{
	"contracts/mlmdapps.sol": {
		"MLMStaking": {
			"abi": [
				{
					"inputs": [],
					"stateMutability": "nonpayable",
					"type": "constructor"
				},
				{
					"anonymous": false,
					"inputs": [
						{
							"indexed": false,
							"internalType": "address",
							"name": "user",
							"type": "address"
						},
						{
							"indexed": false,
							"internalType": "address",
							"name": "referrer",
							"type": "address"
						}
					],
					"name": "Registered",
					"type": "event"
				},
				{
					"anonymous": false,
					"inputs": [
						{
							"indexed": false,
							"internalType": "address",
							"name": "user",
							"type": "address"
						},
						{
							"indexed": false,
							"internalType": "uint256",
							"name": "amount",
							"type": "uint256"
						}
					],
					"name": "Staked",
					"type": "event"
				},
				{
					"inputs": [
						{
							"internalType": "address",
							"name": "_user",
							"type": "address"
						}
					],
					"name": "getUserInfo",
					"outputs": [
						{
							"internalType": "address",
							"name": "referrer",
							"type": "address"
						},
						{
							"internalType": "bool",
							"name": "registered",
							"type": "bool"
						},
						{
							"internalType": "uint256",
							"name": "stakedAmount",
							"type": "uint256"
						}
					],
					"stateMutability": "view",
					"type": "function"
				},
				{
					"inputs": [
						{
							"internalType": "uint256",
							"name": "",
							"type": "uint256"
						}
					],
					"name": "levelRewards",
					"outputs": [
						{
							"internalType": "uint8",
							"name": "",
							"type": "uint8"
						}
					],
					"stateMutability": "view",
					"type": "function"
				},
				{
					"inputs": [],
					"name": "owner",
					"outputs": [
						{
							"internalType": "address",
							"name": "",
							"type": "address"
						}
					],
					"stateMutability": "view",
					"type": "function"
				},
				{
					"inputs": [
						{
							"internalType": "address",
							"name": "_referrer",
							"type": "address"
						}
					],
					"name": "register",
					"outputs": [],
					"stateMutability": "nonpayable",
					"type": "function"
				},
				{
					"inputs": [],
					"name": "stake",
					"outputs": [],
					"stateMutability": "payable",
					"type": "function"
				},
				{
					"inputs": [
						{
							"internalType": "address",
							"name": "",
							"type": "address"
						}
					],
					"name": "users",
					"outputs": [
						{
							"internalType": "address",
							"name": "referrer",
							"type": "address"
						},
						{
							"internalType": "bool",
							"name": "registered",
							"type": "bool"
						},
						{
							"internalType": "uint256",
							"name": "stakedAmount",
							"type": "uint256"
						}
					],
					"stateMutability": "view",
					"type": "function"
				},
				{
					"inputs": [
						{
							"internalType": "uint256",
							"name": "amount",
							"type": "uint256"
						}
					],
					"name": "withdraw",
					"outputs": [],
					"stateMutability": "nonpayable",
					"type": "function"
				},
				{
					"stateMutability": "payable",
					"type": "receive"
				}
			],
			"devdoc": {
				"kind": "dev",
				"methods": {},
				"version": 1
			},
			"evm": {
				"assembly": "    /* \"contracts/mlmdapps.sol\":272:312  uint8[3] public levelRewards = [5, 3, 2] */\n  0xe0\n    /* \"contracts/mlmdapps.sol\":60:2431  contract MLMStaking {... */\n  0x40\n    /* \"contracts/mlmdapps.sol\":272:312  uint8[3] public levelRewards = [5, 3, 2] */\n  mstore\n    /* \"contracts/mlmdapps.sol\":304:305  5 */\n  0x05\n    /* \"contracts/mlmdapps.sol\":60:2431  contract MLMStaking {... */\n  0x80\n    /* \"contracts/mlmdapps.sol\":272:312  uint8[3] public levelRewards = [5, 3, 2] */\n  swap1\n  dup2\n  mstore\n    /* \"contracts/mlmdapps.sol\":307:308  3 */\n  0x03\n    /* \"contracts/mlmdapps.sol\":272:312  uint8[3] public levelRewards = [5, 3, 2] */\n  0xa0\n  dup2\n  swap1\n  mstore\n    /* \"contracts/mlmdapps.sol\":310:311  2 */\n  0x02\n    /* \"contracts/mlmdapps.sol\":272:312  uint8[3] public levelRewards = [5, 3, 2] */\n  0xc0\n  dup2\n  swap1\n  mstore\n  tag_1\n  swap3\n    /* \"contracts/mlmdapps.sol\":310:311  2 */\n  swap1\n  swap2\n    /* \"contracts/mlmdapps.sol\":272:312  uint8[3] public levelRewards = [5, 3, 2] */\n  tag_2\n  jump\t// in\ntag_1:\n  pop\n    /* \"contracts/mlmdapps.sol\":464:556  constructor() {... */\n  callvalue\n  dup1\n  iszero\n  tag_3\n  jumpi\n  0x00\n  dup1\n  revert\ntag_3:\n  pop\n    /* \"contracts/mlmdapps.sol\":489:494  owner */\n  0x00\n    /* \"contracts/mlmdapps.sol\":489:507  owner = msg.sender */\n  dup1\n  sload\n  not(sub(shl(0xa0, 0x01), 0x01))\n  and\n    /* \"contracts/mlmdapps.sol\":497:507  msg.sender */\n  caller\n    /* \"contracts/mlmdapps.sol\":489:507  owner = msg.sender */\n  swap1\n  dup2\n  or\n  dup3\n  sstore\n    /* \"contracts/mlmdapps.sol\":518:530  users[owner] */\n  dup2\n  mstore\n    /* \"contracts/mlmdapps.sol\":489:507  owner = msg.sender */\n  0x01\n    /* \"contracts/mlmdapps.sol\":518:530  users[owner] */\n  0x20\n  mstore\n  0x40\n  swap1\n  keccak256\n    /* \"contracts/mlmdapps.sol\":518:548  users[owner].registered = true */\n  dup1\n  sload\n  not(shl(0xa0, 0xff))\n  and\n  shl(0xa0, 0x01)\n  or\n  swap1\n  sstore\n    /* \"contracts/mlmdapps.sol\":60:2431  contract MLMStaking {... */\n  jump(tag_6)\ntag_2:\n  0x01\n  dup4\n  add\n  swap2\n  dup4\n  swap1\n  dup3\n  iszero\n  tag_7\n  jumpi\n  swap2\n  0x20\n  mul\n  dup3\n  add\n  0x00\ntag_8:\n  dup4\n  dup3\n  gt\n  iszero\n  tag_9\n  jumpi\n  dup4\n  mload\n  dup4\n  dup3\n  0x0100\n  exp\n  dup2\n  sload\n  dup2\n  0xff\n  mul\n  not\n  and\n  swap1\n  dup4\n  0xff\n  and\n  mul\n  or\n  swap1\n  sstore\n  pop\n  swap3\n  0x20\n  add\n  swap3\n  0x01\n  add\n  0x20\n  dup2\n  0x00\n  add\n  div\n  swap3\n  dup4\n  add\n  swap3\n  0x01\n  sub\n  mul\n  jump(tag_8)\ntag_9:\n  dup1\n  iszero\n  tag_10\n  jumpi\n  dup3\n  dup2\n  0x0100\n  exp\n  dup2\n  sload\n  swap1\n  0xff\n  mul\n  not\n  and\n  swap1\n  sstore\n  0x01\n  add\n  0x20\n  dup2\n  0x00\n  add\n  div\n  swap3\n  dup4\n  add\n  swap3\n  0x01\n  sub\n  mul\n  jump(tag_9)\ntag_10:\n  pop\ntag_7:\n  pop\n  tag_11\n  swap3\n  swap2\n  pop\n  tag_12\n  jump\t// in\ntag_11:\n  pop\n  swap1\n  jump\t// out\ntag_12:\ntag_13:\n  dup1\n  dup3\n  gt\n  iszero\n  tag_11\n  jumpi\n  0x00\n  dup2\n  sstore\n  0x01\n  add\n  jump(tag_13)\ntag_6:\n  dataSize(sub_0)\n  dup1\n  dataOffset(sub_0)\n  0x00\n  codecopy\n  0x00\n  return\nstop\n\nsub_0: assembly {\n        /* \"contracts/mlmdapps.sol\":60:2431  contract MLMStaking {... */\n      mstore(0x40, 0x80)\n      jumpi(tag_1, lt(calldatasize, 0x04))\n      shr(0xe0, calldataload(0x00))\n      dup1\n      0x6386c1c7\n      gt\n      tag_10\n      jumpi\n      dup1\n      0x6386c1c7\n      eq\n      tag_6\n      jumpi\n      dup1\n      0x8da5cb5b\n      eq\n      tag_7\n      jumpi\n      dup1\n      0xa87430ba\n      eq\n      tag_8\n      jumpi\n      dup1\n      0xe45a57d0\n      eq\n      tag_9\n      jumpi\n      0x00\n      dup1\n      revert\n    tag_10:\n      dup1\n      0x2e1a7d4d\n      eq\n      tag_3\n      jumpi\n      dup1\n      0x3a4b66f1\n      eq\n      tag_4\n      jumpi\n      dup1\n      0x4420e486\n      eq\n      tag_5\n      jumpi\n      0x00\n      dup1\n      revert\n    tag_1:\n      jumpi(tag_2, calldatasize)\n      stop\n    tag_2:\n      0x00\n      dup1\n      revert\n        /* \"contracts/mlmdapps.sol\":2202:2348  function withdraw(uint256 amount) external {... */\n    tag_3:\n      callvalue\n      dup1\n      iszero\n      tag_13\n      jumpi\n      0x00\n      dup1\n      revert\n    tag_13:\n      pop\n      tag_14\n      tag_15\n      calldatasize\n      0x04\n      tag_16\n      jump\t// in\n    tag_15:\n      tag_17\n      jump\t// in\n    tag_14:\n      stop\n        /* \"contracts/mlmdapps.sol\":1160:1851  function stake() external payable onlyRegistered {... */\n    tag_4:\n      tag_14\n      tag_19\n      jump\t// in\n        /* \"contracts/mlmdapps.sol\":689:1152  function register(address _referrer) external {... */\n    tag_5:\n      callvalue\n      dup1\n      iszero\n      tag_20\n      jumpi\n      0x00\n      dup1\n      revert\n    tag_20:\n      pop\n      tag_14\n      tag_22\n      calldatasize\n      0x04\n      tag_23\n      jump\t// in\n    tag_22:\n      tag_24\n      jump\t// in\n        /* \"contracts/mlmdapps.sol\":1859:2116  function getUserInfo(address _user) external view returns (... */\n    tag_6:\n      callvalue\n      dup1\n      iszero\n      tag_25\n      jumpi\n      0x00\n      dup1\n      revert\n    tag_25:\n      pop\n      tag_26\n      tag_27\n      calldatasize\n      0x04\n      tag_23\n      jump\t// in\n    tag_27:\n      sub(shl(0xa0, 0x01), 0x01)\n        /* \"contracts/mlmdapps.sol\":2036:2048  users[_user] */\n      swap1\n      dup2\n      and\n        /* \"contracts/mlmdapps.sol\":1928:1944  address referrer */\n      0x00\n        /* \"contracts/mlmdapps.sol\":2036:2048  users[_user] */\n      swap1\n      dup2\n      mstore\n        /* \"contracts/mlmdapps.sol\":2036:2041  users */\n      0x01\n        /* \"contracts/mlmdapps.sol\":2036:2048  users[_user] */\n      0x20\n      dup2\n      dup2\n      mstore\n      0x40\n      swap3\n      dup4\n      swap1\n      keccak256\n        /* \"contracts/mlmdapps.sol\":2020:2048  User memory u = users[_user] */\n      dup4\n      mload\n      0x60\n      dup2\n      add\n      dup6\n      mstore\n      dup2\n      sload\n      swap6\n      dup7\n      and\n      dup1\n      dup3\n      mstore\n      shl(0xa0, 0x01)\n      swap1\n      swap7\n      div\n      0xff\n      and\n      iszero\n      iszero\n      swap3\n      dup2\n      add\n      dup4\n      swap1\n      mstore\n      swap3\n      add\n      sload\n      swap2\n      swap1\n      swap3\n      add\n      dup2\n      swap1\n      mstore\n      swap2\n      swap3\n      swap1\n      swap2\n      swap1\n        /* \"contracts/mlmdapps.sol\":1859:2116  function getUserInfo(address _user) external view returns (... */\n      jump\n    tag_26:\n      0x40\n      dup1\n      mload\n      sub(shl(0xa0, 0x01), 0x01)\n        /* \"#utility.yul\":704:736   */\n      swap1\n      swap5\n      and\n        /* \"#utility.yul\":686:737   */\n      dup5\n      mstore\n        /* \"#utility.yul\":780:794   */\n      swap2\n      iszero\n        /* \"#utility.yul\":773:795   */\n      iszero\n        /* \"#utility.yul\":768:770   */\n      0x20\n        /* \"#utility.yul\":753:771   */\n      dup5\n      add\n        /* \"#utility.yul\":746:796   */\n      mstore\n        /* \"#utility.yul\":812:830   */\n      swap1\n      dup3\n      add\n        /* \"#utility.yul\":805:839   */\n      mstore\n        /* \"#utility.yul\":674:676   */\n      0x60\n        /* \"#utility.yul\":659:677   */\n      add\n        /* \"contracts/mlmdapps.sol\":1859:2116  function getUserInfo(address _user) external view returns (... */\n    tag_29:\n      mload(0x40)\n      dup1\n      swap2\n      sub\n      swap1\n      return\n        /* \"contracts/mlmdapps.sol\":87:107  address public owner */\n    tag_7:\n      callvalue\n      dup1\n      iszero\n      tag_31\n      jumpi\n      0x00\n      dup1\n      revert\n    tag_31:\n      pop\n      sload(0x00)\n      tag_32\n      swap1\n      sub(shl(0xa0, 0x01), 0x01)\n      and\n      dup2\n      jump\n    tag_32:\n      mload(0x40)\n      sub(shl(0xa0, 0x01), 0x01)\n        /* \"#utility.yul\":1014:1046   */\n      swap1\n      swap2\n      and\n        /* \"#utility.yul\":996:1047   */\n      dup2\n      mstore\n        /* \"#utility.yul\":984:986   */\n      0x20\n        /* \"#utility.yul\":969:987   */\n      add\n        /* \"contracts/mlmdapps.sol\":87:107  address public owner */\n      tag_29\n        /* \"#utility.yul\":850:1053   */\n      jump\n        /* \"contracts/mlmdapps.sol\":228:265  mapping(address => User) public users */\n    tag_8:\n      callvalue\n      dup1\n      iszero\n      tag_36\n      jumpi\n      0x00\n      dup1\n      revert\n    tag_36:\n      pop\n      tag_26\n      tag_38\n      calldatasize\n      0x04\n      tag_23\n      jump\t// in\n    tag_38:\n      0x01\n      0x20\n      dup2\n      swap1\n      mstore\n      0x00\n      swap2\n      dup3\n      mstore\n      0x40\n      swap1\n      swap2\n      keccak256\n      dup1\n      sload\n      swap2\n      add\n      sload\n      sub(shl(0xa0, 0x01), 0x01)\n      dup3\n      and\n      swap2\n      shl(0xa0, 0x01)\n      swap1\n      div\n      0xff\n      and\n      swap1\n      dup4\n      jump\n        /* \"contracts/mlmdapps.sol\":272:312  uint8[3] public levelRewards = [5, 3, 2] */\n    tag_9:\n      callvalue\n      dup1\n      iszero\n      tag_41\n      jumpi\n      0x00\n      dup1\n      revert\n    tag_41:\n      pop\n      tag_42\n      tag_43\n      calldatasize\n      0x04\n      tag_16\n      jump\t// in\n    tag_43:\n      tag_44\n      jump\t// in\n    tag_42:\n      mload(0x40)\n        /* \"#utility.yul\":1230:1234   */\n      0xff\n        /* \"#utility.yul\":1218:1235   */\n      swap1\n      swap2\n      and\n        /* \"#utility.yul\":1200:1236   */\n      dup2\n      mstore\n        /* \"#utility.yul\":1188:1190   */\n      0x20\n        /* \"#utility.yul\":1173:1191   */\n      add\n        /* \"contracts/mlmdapps.sol\":272:312  uint8[3] public levelRewards = [5, 3, 2] */\n      tag_29\n        /* \"#utility.yul\":1058:1242   */\n      jump\n        /* \"contracts/mlmdapps.sol\":2202:2348  function withdraw(uint256 amount) external {... */\n    tag_17:\n        /* \"contracts/mlmdapps.sol\":2278:2283  owner */\n      and(sub(shl(0xa0, 0x01), 0x01), sload(0x00))\n        /* \"contracts/mlmdapps.sol\":2264:2274  msg.sender */\n      caller\n        /* \"contracts/mlmdapps.sol\":2264:2283  msg.sender == owner */\n      eq\n        /* \"contracts/mlmdapps.sol\":2256:2298  require(msg.sender == owner, \"Only owner\") */\n      tag_48\n      jumpi\n      mload(0x40)\n      shl(0xe5, 0x461bcd)\n      dup2\n      mstore\n        /* \"#utility.yul\":1449:1451   */\n      0x20\n        /* \"contracts/mlmdapps.sol\":2256:2298  require(msg.sender == owner, \"Only owner\") */\n      0x04\n      dup3\n      add\n        /* \"#utility.yul\":1431:1452   */\n      mstore\n        /* \"#utility.yul\":1488:1490   */\n      0x0a\n        /* \"#utility.yul\":1468:1486   */\n      0x24\n      dup3\n      add\n        /* \"#utility.yul\":1461:1491   */\n      mstore\n      shl(0xb1, 0x27b7363c9037bbb732b9)\n        /* \"#utility.yul\":1507:1525   */\n      0x44\n      dup3\n      add\n        /* \"#utility.yul\":1500:1540   */\n      mstore\n        /* \"#utility.yul\":1557:1575   */\n      0x64\n      add\n        /* \"contracts/mlmdapps.sol\":2256:2298  require(msg.sender == owner, \"Only owner\") */\n    tag_49:\n      mload(0x40)\n      dup1\n      swap2\n      sub\n      swap1\n      revert\n    tag_48:\n        /* \"contracts/mlmdapps.sol\":2317:2322  owner */\n      0x00\n      dup1\n      sload\n        /* \"contracts/mlmdapps.sol\":2309:2340  payable(owner).transfer(amount) */\n      mload(0x40)\n      sub(shl(0xa0, 0x01), 0x01)\n        /* \"contracts/mlmdapps.sol\":2317:2322  owner */\n      swap1\n      swap2\n      and\n      swap2\n        /* \"contracts/mlmdapps.sol\":2309:2340  payable(owner).transfer(amount) */\n      dup4\n      iszero\n      0x08fc\n      mul\n      swap2\n        /* \"contracts/mlmdapps.sol\":2333:2339  amount */\n      dup5\n      swap2\n        /* \"contracts/mlmdapps.sol\":2309:2340  payable(owner).transfer(amount) */\n      dup2\n        /* \"contracts/mlmdapps.sol\":2317:2322  owner */\n      dup2\n        /* \"contracts/mlmdapps.sol\":2309:2340  payable(owner).transfer(amount) */\n      dup2\n        /* \"contracts/mlmdapps.sol\":2333:2339  amount */\n      dup6\n        /* \"contracts/mlmdapps.sol\":2317:2322  owner */\n      dup9\n        /* \"contracts/mlmdapps.sol\":2309:2340  payable(owner).transfer(amount) */\n      dup9\n      call\n      swap4\n      pop\n      pop\n      pop\n      pop\n      iszero\n      dup1\n      iszero\n      tag_52\n      jumpi\n      returndatasize\n      0x00\n      dup1\n      returndatacopy\n      revert(0x00, returndatasize)\n    tag_52:\n      pop\n        /* \"contracts/mlmdapps.sol\":2202:2348  function withdraw(uint256 amount) external {... */\n      pop\n      jump\t// out\n        /* \"contracts/mlmdapps.sol\":1160:1851  function stake() external payable onlyRegistered {... */\n    tag_19:\n        /* \"contracts/mlmdapps.sol\":615:625  msg.sender */\n      caller\n        /* \"contracts/mlmdapps.sol\":609:626  users[msg.sender] */\n      0x00\n      swap1\n      dup2\n      mstore\n        /* \"contracts/mlmdapps.sol\":609:614  users */\n      0x01\n        /* \"contracts/mlmdapps.sol\":609:626  users[msg.sender] */\n      0x20\n      mstore\n      0x40\n      swap1\n      keccak256\n        /* \"contracts/mlmdapps.sol\":609:637  users[msg.sender].registered */\n      sload\n      shl(0xa0, 0x01)\n      swap1\n      div\n      0xff\n      and\n        /* \"contracts/mlmdapps.sol\":601:661  require(users[msg.sender].registered, \"User not registered\") */\n      tag_54\n      jumpi\n      mload(0x40)\n      shl(0xe5, 0x461bcd)\n      dup2\n      mstore\n        /* \"#utility.yul\":1788:1790   */\n      0x20\n        /* \"contracts/mlmdapps.sol\":601:661  require(users[msg.sender].registered, \"User not registered\") */\n      0x04\n      dup3\n      add\n        /* \"#utility.yul\":1770:1791   */\n      mstore\n        /* \"#utility.yul\":1827:1829   */\n      0x13\n        /* \"#utility.yul\":1807:1825   */\n      0x24\n      dup3\n      add\n        /* \"#utility.yul\":1800:1830   */\n      mstore\n      shl(0x6a, 0x155cd95c881b9bdd081c9959da5cdd195c9959)\n        /* \"#utility.yul\":1846:1864   */\n      0x44\n      dup3\n      add\n        /* \"#utility.yul\":1839:1888   */\n      mstore\n        /* \"#utility.yul\":1905:1923   */\n      0x64\n      add\n        /* \"contracts/mlmdapps.sol\":601:661  require(users[msg.sender].registered, \"User not registered\") */\n      tag_49\n        /* \"#utility.yul\":1586:1929   */\n      jump\n        /* \"contracts/mlmdapps.sol\":601:661  require(users[msg.sender].registered, \"User not registered\") */\n    tag_54:\n        /* \"contracts/mlmdapps.sol\":1240:1241  0 */\n      0x00\n        /* \"contracts/mlmdapps.sol\":1228:1237  msg.value */\n      callvalue\n        /* \"contracts/mlmdapps.sol\":1228:1241  msg.value > 0 */\n      gt\n        /* \"contracts/mlmdapps.sol\":1220:1264  require(msg.value > 0, \"Amount must be > 0\") */\n      tag_58\n      jumpi\n      mload(0x40)\n      shl(0xe5, 0x461bcd)\n      dup2\n      mstore\n        /* \"#utility.yul\":2136:2138   */\n      0x20\n        /* \"contracts/mlmdapps.sol\":1220:1264  require(msg.value > 0, \"Amount must be > 0\") */\n      0x04\n      dup3\n      add\n        /* \"#utility.yul\":2118:2139   */\n      mstore\n        /* \"#utility.yul\":2175:2177   */\n      0x12\n        /* \"#utility.yul\":2155:2173   */\n      0x24\n      dup3\n      add\n        /* \"#utility.yul\":2148:2178   */\n      mstore\n      shl(0x74, 0x0416d6f756e74206d757374206265203e203)\n        /* \"#utility.yul\":2194:2212   */\n      0x44\n      dup3\n      add\n        /* \"#utility.yul\":2187:2235   */\n      mstore\n        /* \"#utility.yul\":2252:2270   */\n      0x64\n      add\n        /* \"contracts/mlmdapps.sol\":1220:1264  require(msg.value > 0, \"Amount must be > 0\") */\n      tag_49\n        /* \"#utility.yul\":1934:2276   */\n      jump\n        /* \"contracts/mlmdapps.sol\":1220:1264  require(msg.value > 0, \"Amount must be > 0\") */\n    tag_58:\n        /* \"contracts/mlmdapps.sol\":1281:1291  msg.sender */\n      caller\n        /* \"contracts/mlmdapps.sol\":1275:1292  users[msg.sender] */\n      0x00\n      swap1\n      dup2\n      mstore\n        /* \"contracts/mlmdapps.sol\":1275:1280  users */\n      0x01\n        /* \"contracts/mlmdapps.sol\":1275:1292  users[msg.sender] */\n      0x20\n      dup2\n      swap1\n      mstore\n      0x40\n      dup3\n      keccak256\n        /* \"contracts/mlmdapps.sol\":1275:1305  users[msg.sender].stakedAmount */\n      add\n        /* \"contracts/mlmdapps.sol\":1275:1318  users[msg.sender].stakedAmount += msg.value */\n      dup1\n      sload\n        /* \"contracts/mlmdapps.sol\":1309:1318  msg.value */\n      callvalue\n      swap3\n        /* \"contracts/mlmdapps.sol\":1275:1292  users[msg.sender] */\n      swap1\n        /* \"contracts/mlmdapps.sol\":1275:1318  users[msg.sender].stakedAmount += msg.value */\n      tag_61\n      swap1\n        /* \"contracts/mlmdapps.sol\":1309:1318  msg.value */\n      dup5\n      swap1\n        /* \"contracts/mlmdapps.sol\":1275:1318  users[msg.sender].stakedAmount += msg.value */\n      tag_62\n      jump\t// in\n    tag_61:\n      swap1\n      swap2\n      sstore\n      pop\n      pop\n        /* \"contracts/mlmdapps.sol\":1370:1380  msg.sender */\n      caller\n        /* \"contracts/mlmdapps.sol\":1331:1353  address payable upline */\n      0x00\n        /* \"contracts/mlmdapps.sol\":1364:1381  users[msg.sender] */\n      swap1\n      dup2\n      mstore\n        /* \"contracts/mlmdapps.sol\":1364:1369  users */\n      0x01\n        /* \"contracts/mlmdapps.sol\":1364:1381  users[msg.sender] */\n      0x20\n      mstore\n      0x40\n      dup2\n      keccak256\n        /* \"contracts/mlmdapps.sol\":1364:1390  users[msg.sender].referrer */\n      sload\n      sub(shl(0xa0, 0x01), 0x01)\n      and\n      swap1\n        /* \"contracts/mlmdapps.sol\":1422:1431  msg.value */\n      callvalue\n      swap1\n        /* \"contracts/mlmdapps.sol\":1444:1747  for (uint8 i = 0; i < 3; i++) {... */\n    tag_63:\n        /* \"contracts/mlmdapps.sol\":1466:1467  3 */\n      0x03\n        /* \"contracts/mlmdapps.sol\":1462:1463  i */\n      dup2\n        /* \"contracts/mlmdapps.sol\":1462:1467  i < 3 */\n      0xff\n      and\n      lt\n        /* \"contracts/mlmdapps.sol\":1444:1747  for (uint8 i = 0; i < 3; i++) {... */\n      iszero\n      tag_64\n      jumpi\n      sub(shl(0xa0, 0x01), 0x01)\n        /* \"contracts/mlmdapps.sol\":1493:1513  upline == address(0) */\n      dup4\n      and\n        /* \"contracts/mlmdapps.sol\":1489:1520  if (upline == address(0)) break */\n      iszero\n        /* \"contracts/mlmdapps.sol\":1515:1520  break */\n      tag_64\n        /* \"contracts/mlmdapps.sol\":1489:1520  if (upline == address(0)) break */\n      jumpi\n        /* \"contracts/mlmdapps.sol\":1535:1553  uint256 commission */\n      0x00\n        /* \"contracts/mlmdapps.sol\":1588:1591  100 */\n      0x64\n        /* \"contracts/mlmdapps.sol\":1569:1581  levelRewards */\n      0x02\n        /* \"contracts/mlmdapps.sol\":1582:1583  i */\n      dup4\n        /* \"contracts/mlmdapps.sol\":1569:1584  levelRewards[i] */\n      0xff\n      and\n      0x03\n      dup2\n      lt\n      tag_68\n      jumpi\n      tag_68\n      tag_69\n      jump\t// in\n    tag_68:\n      0x20\n      dup2\n      div\n      swap2\n      swap1\n      swap2\n      add\n      sload\n        /* \"contracts/mlmdapps.sol\":1557:1584  msg.value * levelRewards[i] */\n      tag_71\n      swap2\n        /* \"contracts/mlmdapps.sol\":1569:1584  levelRewards[i] */\n      0x1f\n      and\n      0x0100\n      exp\n      swap1\n      div\n      0xff\n      and\n        /* \"contracts/mlmdapps.sol\":1557:1566  msg.value */\n      callvalue\n        /* \"contracts/mlmdapps.sol\":1557:1584  msg.value * levelRewards[i] */\n      tag_72\n      jump\t// in\n    tag_71:\n        /* \"contracts/mlmdapps.sol\":1556:1591  (msg.value * levelRewards[i]) / 100 */\n      tag_73\n      swap2\n      swap1\n      tag_74\n      jump\t// in\n    tag_73:\n        /* \"contracts/mlmdapps.sol\":1606:1642  payable(upline).transfer(commission) */\n      mload(0x40)\n        /* \"contracts/mlmdapps.sol\":1535:1591  uint256 commission = (msg.value * levelRewards[i]) / 100 */\n      swap1\n      swap2\n      pop\n      sub(shl(0xa0, 0x01), 0x01)\n        /* \"contracts/mlmdapps.sol\":1606:1630  payable(upline).transfer */\n      dup6\n      and\n      swap1\n        /* \"contracts/mlmdapps.sol\":1606:1642  payable(upline).transfer(commission) */\n      dup3\n      iszero\n      0x08fc\n      mul\n      swap1\n        /* \"contracts/mlmdapps.sol\":1535:1591  uint256 commission = (msg.value * levelRewards[i]) / 100 */\n      dup4\n      swap1\n        /* \"contracts/mlmdapps.sol\":1606:1642  payable(upline).transfer(commission) */\n      0x00\n      dup2\n      dup2\n      dup2\n        /* \"contracts/mlmdapps.sol\":1535:1591  uint256 commission = (msg.value * levelRewards[i]) / 100 */\n      dup6\n        /* \"contracts/mlmdapps.sol\":1606:1630  payable(upline).transfer */\n      dup9\n        /* \"contracts/mlmdapps.sol\":1606:1642  payable(upline).transfer(commission) */\n      dup9\n      call\n      swap4\n      pop\n      pop\n      pop\n      pop\n      iszero\n      dup1\n      iszero\n      tag_76\n      jumpi\n      returndatasize\n      0x00\n      dup1\n      returndatacopy\n      revert(0x00, returndatasize)\n    tag_76:\n      pop\n        /* \"contracts/mlmdapps.sol\":1657:1680  remaining -= commission */\n      tag_77\n        /* \"contracts/mlmdapps.sol\":1670:1680  commission */\n      dup2\n        /* \"contracts/mlmdapps.sol\":1657:1680  remaining -= commission */\n      dup5\n      tag_78\n      jump\t// in\n    tag_77:\n      sub(shl(0xa0, 0x01), 0x01)\n        /* \"contracts/mlmdapps.sol\":1712:1725  users[upline] */\n      swap5\n      dup6\n      and\n      0x00\n      swap1\n      dup2\n      mstore\n        /* \"contracts/mlmdapps.sol\":1712:1717  users */\n      0x01\n        /* \"contracts/mlmdapps.sol\":1712:1725  users[upline] */\n      0x20\n      mstore\n      0x40\n      swap1\n      keccak256\n        /* \"contracts/mlmdapps.sol\":1712:1734  users[upline].referrer */\n      sload\n      swap1\n      swap5\n      and\n      swap4\n        /* \"contracts/mlmdapps.sol\":1657:1680  remaining -= commission */\n      swap3\n      pop\n        /* \"contracts/mlmdapps.sol\":1469:1472  i++ */\n      dup2\n      swap1\n      pop\n      tag_79\n      dup2\n      tag_80\n      jump\t// in\n    tag_79:\n      swap2\n      pop\n      pop\n        /* \"contracts/mlmdapps.sol\":1444:1747  for (uint8 i = 0; i < 3; i++) {... */\n      jump(tag_63)\n    tag_64:\n      pop\n        /* \"contracts/mlmdapps.sol\":1814:1843  Staked(msg.sender, msg.value) */\n      0x40\n      dup1\n      mload\n        /* \"contracts/mlmdapps.sol\":1821:1831  msg.sender */\n      caller\n        /* \"#utility.yul\":3557:3608   */\n      dup2\n      mstore\n        /* \"contracts/mlmdapps.sol\":1833:1842  msg.value */\n      callvalue\n        /* \"#utility.yul\":3639:3641   */\n      0x20\n        /* \"#utility.yul\":3624:3642   */\n      dup3\n      add\n        /* \"#utility.yul\":3617:3651   */\n      mstore\n        /* \"contracts/mlmdapps.sol\":1814:1843  Staked(msg.sender, msg.value) */\n      0x9e71bc8eea02a63969f509818f2dafb9254532904319f9dbda79b67bd34a5f3d\n      swap2\n        /* \"#utility.yul\":3530:3548   */\n      add\n        /* \"contracts/mlmdapps.sol\":1814:1843  Staked(msg.sender, msg.value) */\n      mload(0x40)\n      dup1\n      swap2\n      sub\n      swap1\n      log1\n        /* \"contracts/mlmdapps.sol\":1209:1851  {... */\n      pop\n      pop\n        /* \"contracts/mlmdapps.sol\":1160:1851  function stake() external payable onlyRegistered {... */\n      jump\t// out\n        /* \"contracts/mlmdapps.sol\":689:1152  function register(address _referrer) external {... */\n    tag_24:\n        /* \"contracts/mlmdapps.sol\":761:771  msg.sender */\n      caller\n        /* \"contracts/mlmdapps.sol\":755:772  users[msg.sender] */\n      0x00\n      swap1\n      dup2\n      mstore\n        /* \"contracts/mlmdapps.sol\":755:760  users */\n      0x01\n        /* \"contracts/mlmdapps.sol\":755:772  users[msg.sender] */\n      0x20\n      mstore\n      0x40\n      swap1\n      keccak256\n        /* \"contracts/mlmdapps.sol\":755:783  users[msg.sender].registered */\n      sload\n      shl(0xa0, 0x01)\n      swap1\n      div\n      0xff\n      and\n        /* \"contracts/mlmdapps.sol\":754:783  !users[msg.sender].registered */\n      iszero\n        /* \"contracts/mlmdapps.sol\":746:806  require(!users[msg.sender].registered, \"Already registered\") */\n      tag_84\n      jumpi\n      mload(0x40)\n      shl(0xe5, 0x461bcd)\n      dup2\n      mstore\n        /* \"#utility.yul\":3864:3866   */\n      0x20\n        /* \"contracts/mlmdapps.sol\":746:806  require(!users[msg.sender].registered, \"Already registered\") */\n      0x04\n      dup3\n      add\n        /* \"#utility.yul\":3846:3867   */\n      mstore\n        /* \"#utility.yul\":3903:3905   */\n      0x12\n        /* \"#utility.yul\":3883:3901   */\n      0x24\n      dup3\n      add\n        /* \"#utility.yul\":3876:3906   */\n      mstore\n      shl(0x72, 0x105b1c9958591e481c9959da5cdd195c9959)\n        /* \"#utility.yul\":3922:3940   */\n      0x44\n      dup3\n      add\n        /* \"#utility.yul\":3915:3963   */\n      mstore\n        /* \"#utility.yul\":3980:3998   */\n      0x64\n      add\n        /* \"contracts/mlmdapps.sol\":746:806  require(!users[msg.sender].registered, \"Already registered\") */\n      tag_49\n        /* \"#utility.yul\":3662:4004   */\n      jump\n        /* \"contracts/mlmdapps.sol\":746:806  require(!users[msg.sender].registered, \"Already registered\") */\n    tag_84:\n        /* \"contracts/mlmdapps.sol\":838:848  msg.sender */\n      caller\n      sub(shl(0xa0, 0x01), 0x01)\n        /* \"contracts/mlmdapps.sol\":825:848  _referrer != msg.sender */\n      dup3\n      and\n      sub\n        /* \"contracts/mlmdapps.sol\":817:874  require(_referrer != msg.sender, \"Cannot refer yourself\") */\n      tag_87\n      jumpi\n      mload(0x40)\n      shl(0xe5, 0x461bcd)\n      dup2\n      mstore\n        /* \"#utility.yul\":4211:4213   */\n      0x20\n        /* \"contracts/mlmdapps.sol\":817:874  require(_referrer != msg.sender, \"Cannot refer yourself\") */\n      0x04\n      dup3\n      add\n        /* \"#utility.yul\":4193:4214   */\n      mstore\n        /* \"#utility.yul\":4250:4252   */\n      0x15\n        /* \"#utility.yul\":4230:4248   */\n      0x24\n      dup3\n      add\n        /* \"#utility.yul\":4223:4253   */\n      mstore\n      shl(0x59, 0x21b0b73737ba103932b332b9103cb7bab939b2b633)\n        /* \"#utility.yul\":4269:4287   */\n      0x44\n      dup3\n      add\n        /* \"#utility.yul\":4262:4313   */\n      mstore\n        /* \"#utility.yul\":4330:4348   */\n      0x64\n      add\n        /* \"contracts/mlmdapps.sol\":817:874  require(_referrer != msg.sender, \"Cannot refer yourself\") */\n      tag_49\n        /* \"#utility.yul\":4009:4354   */\n      jump\n        /* \"contracts/mlmdapps.sol\":817:874  require(_referrer != msg.sender, \"Cannot refer yourself\") */\n    tag_87:\n      sub(shl(0xa0, 0x01), 0x01)\n        /* \"contracts/mlmdapps.sol\":893:909  users[_referrer] */\n      dup2\n      and\n      0x00\n      swap1\n      dup2\n      mstore\n        /* \"contracts/mlmdapps.sol\":893:898  users */\n      0x01\n        /* \"contracts/mlmdapps.sol\":893:909  users[_referrer] */\n      0x20\n      mstore\n      0x40\n      swap1\n      keccak256\n        /* \"contracts/mlmdapps.sol\":893:920  users[_referrer].registered */\n      sload\n      shl(0xa0, 0x01)\n      swap1\n      div\n      0xff\n      and\n        /* \"contracts/mlmdapps.sol\":885:948  require(users[_referrer].registered, \"Referrer not registered\") */\n      tag_90\n      jumpi\n      mload(0x40)\n      shl(0xe5, 0x461bcd)\n      dup2\n      mstore\n        /* \"#utility.yul\":4561:4563   */\n      0x20\n        /* \"contracts/mlmdapps.sol\":885:948  require(users[_referrer].registered, \"Referrer not registered\") */\n      0x04\n      dup3\n      add\n        /* \"#utility.yul\":4543:4564   */\n      mstore\n        /* \"#utility.yul\":4600:4602   */\n      0x17\n        /* \"#utility.yul\":4580:4598   */\n      0x24\n      dup3\n      add\n        /* \"#utility.yul\":4573:4603   */\n      mstore\n        /* \"#utility.yul\":4639:4664   */\n      0x5265666572726572206e6f742072656769737465726564000000000000000000\n        /* \"#utility.yul\":4619:4637   */\n      0x44\n      dup3\n      add\n        /* \"#utility.yul\":4612:4665   */\n      mstore\n        /* \"#utility.yul\":4682:4700   */\n      0x64\n      add\n        /* \"contracts/mlmdapps.sol\":885:948  require(users[_referrer].registered, \"Referrer not registered\") */\n      tag_49\n        /* \"#utility.yul\":4359:4706   */\n      jump\n        /* \"contracts/mlmdapps.sol\":885:948  require(users[_referrer].registered, \"Referrer not registered\") */\n    tag_90:\n        /* \"contracts/mlmdapps.sol\":981:1093  User({... */\n      0x40\n      dup1\n      mload\n      0x60\n      dup2\n      add\n      dup3\n      mstore\n      sub(shl(0xa0, 0x01), 0x01)\n      dup1\n      dup5\n      and\n      dup3\n      mstore\n        /* \"contracts/mlmdapps.sol\":1047:1051  true */\n      0x01\n        /* \"contracts/mlmdapps.sol\":981:1093  User({... */\n      0x20\n      dup1\n      dup5\n      add\n      dup3\n      dup2\n      mstore\n      0x00\n      dup6\n      dup8\n      add\n      dup2\n      dup2\n      mstore\n        /* \"contracts/mlmdapps.sol\":967:977  msg.sender */\n      caller\n        /* \"contracts/mlmdapps.sol\":961:978  users[msg.sender] */\n      dup1\n      dup4\n      mstore\n      swap4\n      dup6\n      swap1\n      mstore\n      swap1\n      dup8\n      swap1\n      keccak256\n        /* \"contracts/mlmdapps.sol\":961:1093  users[msg.sender] = User({... */\n      swap6\n      mload\n      dup7\n      sload\n      swap3\n      mload\n      iszero\n      iszero\n      shl(0xa0, 0x01)\n      mul\n      not(sub(shl(0xa8, 0x01), 0x01))\n      swap1\n      swap4\n      and\n      swap6\n      and\n      swap5\n      swap1\n      swap5\n      or\n      or\n      dup5\n      sstore\n      swap2\n      mload\n      swap3\n      add\n      swap2\n      swap1\n      swap2\n      sstore\n        /* \"contracts/mlmdapps.sol\":1111:1144  Registered(msg.sender, _referrer) */\n      swap1\n      mload\n      0x0a31ee9d46a828884b81003c8498156ea6aa15b9b54bdd0ef0b533d9eba57e55\n      swap2\n      tag_93\n      swap2\n        /* \"contracts/mlmdapps.sol\":1011:1020  _referrer */\n      dup5\n      swap1\n      sub(shl(0xa0, 0x01), 0x01)\n        /* \"#utility.yul\":4941:4956   */\n      swap3\n      dup4\n      and\n        /* \"#utility.yul\":4923:4957   */\n      dup2\n      mstore\n        /* \"#utility.yul\":4993:5008   */\n      swap2\n      and\n        /* \"#utility.yul\":4988:4990   */\n      0x20\n        /* \"#utility.yul\":4973:4991   */\n      dup3\n      add\n        /* \"#utility.yul\":4966:5009   */\n      mstore\n        /* \"#utility.yul\":4873:4875   */\n      0x40\n        /* \"#utility.yul\":4858:4876   */\n      add\n      swap1\n        /* \"#utility.yul\":4711:5015   */\n      jump\n        /* \"contracts/mlmdapps.sol\":1111:1144  Registered(msg.sender, _referrer) */\n    tag_93:\n      mload(0x40)\n      dup1\n      swap2\n      sub\n      swap1\n      log1\n        /* \"contracts/mlmdapps.sol\":689:1152  function register(address _referrer) external {... */\n      pop\n      jump\t// out\n        /* \"contracts/mlmdapps.sol\":272:312  uint8[3] public levelRewards = [5, 3, 2] */\n    tag_44:\n      0x02\n      dup2\n      0x03\n      dup2\n      lt\n      tag_96\n      jumpi\n      0x00\n      dup1\n      revert\n    tag_96:\n      0x20\n      swap2\n      dup3\n      dup3\n      div\n      add\n      swap2\n      swap1\n      mod\n      swap2\n      pop\n      sload\n      swap1\n      0x0100\n      exp\n      swap1\n      div\n      0xff\n      and\n      dup2\n      jump\t// out\n        /* \"#utility.yul\":14:194   */\n    tag_16:\n        /* \"#utility.yul\":73:79   */\n      0x00\n        /* \"#utility.yul\":126:128   */\n      0x20\n        /* \"#utility.yul\":114:123   */\n      dup3\n        /* \"#utility.yul\":105:112   */\n      dup5\n        /* \"#utility.yul\":101:124   */\n      sub\n        /* \"#utility.yul\":97:129   */\n      slt\n        /* \"#utility.yul\":94:146   */\n      iszero\n      tag_101\n      jumpi\n        /* \"#utility.yul\":142:143   */\n      0x00\n        /* \"#utility.yul\":139:140   */\n      dup1\n        /* \"#utility.yul\":132:144   */\n      revert\n        /* \"#utility.yul\":94:146   */\n    tag_101:\n      pop\n        /* \"#utility.yul\":165:188   */\n      calldataload\n      swap2\n        /* \"#utility.yul\":14:194   */\n      swap1\n      pop\n      jump\t// out\n        /* \"#utility.yul\":199:485   */\n    tag_23:\n        /* \"#utility.yul\":258:264   */\n      0x00\n        /* \"#utility.yul\":311:313   */\n      0x20\n        /* \"#utility.yul\":299:308   */\n      dup3\n        /* \"#utility.yul\":290:297   */\n      dup5\n        /* \"#utility.yul\":286:309   */\n      sub\n        /* \"#utility.yul\":282:314   */\n      slt\n        /* \"#utility.yul\":279:331   */\n      iszero\n      tag_103\n      jumpi\n        /* \"#utility.yul\":327:328   */\n      0x00\n        /* \"#utility.yul\":324:325   */\n      dup1\n        /* \"#utility.yul\":317:329   */\n      revert\n        /* \"#utility.yul\":279:331   */\n    tag_103:\n        /* \"#utility.yul\":353:376   */\n      dup2\n      calldataload\n      sub(shl(0xa0, 0x01), 0x01)\n        /* \"#utility.yul\":405:436   */\n      dup2\n      and\n        /* \"#utility.yul\":395:437   */\n      dup2\n      eq\n        /* \"#utility.yul\":385:455   */\n      tag_104\n      jumpi\n        /* \"#utility.yul\":451:452   */\n      0x00\n        /* \"#utility.yul\":448:449   */\n      dup1\n        /* \"#utility.yul\":441:453   */\n      revert\n        /* \"#utility.yul\":385:455   */\n    tag_104:\n        /* \"#utility.yul\":474:479   */\n      swap4\n        /* \"#utility.yul\":199:485   */\n      swap3\n      pop\n      pop\n      pop\n      jump\t// out\n        /* \"#utility.yul\":2281:2408   */\n    tag_98:\n        /* \"#utility.yul\":2342:2352   */\n      0x4e487b71\n        /* \"#utility.yul\":2337:2340   */\n      0xe0\n        /* \"#utility.yul\":2333:2353   */\n      shl\n        /* \"#utility.yul\":2330:2331   */\n      0x00\n        /* \"#utility.yul\":2323:2354   */\n      mstore\n        /* \"#utility.yul\":2373:2377   */\n      0x11\n        /* \"#utility.yul\":2370:2371   */\n      0x04\n        /* \"#utility.yul\":2363:2378   */\n      mstore\n        /* \"#utility.yul\":2397:2401   */\n      0x24\n        /* \"#utility.yul\":2394:2395   */\n      0x00\n        /* \"#utility.yul\":2387:2402   */\n      revert\n        /* \"#utility.yul\":2413:2538   */\n    tag_62:\n        /* \"#utility.yul\":2478:2487   */\n      dup1\n      dup3\n      add\n        /* \"#utility.yul\":2499:2509   */\n      dup1\n      dup3\n      gt\n        /* \"#utility.yul\":2496:2532   */\n      iszero\n      tag_114\n      jumpi\n        /* \"#utility.yul\":2512:2530   */\n      tag_114\n      tag_98\n      jump\t// in\n    tag_114:\n        /* \"#utility.yul\":2413:2538   */\n      swap3\n      swap2\n      pop\n      pop\n      jump\t// out\n        /* \"#utility.yul\":2543:2670   */\n    tag_69:\n        /* \"#utility.yul\":2604:2614   */\n      0x4e487b71\n        /* \"#utility.yul\":2599:2602   */\n      0xe0\n        /* \"#utility.yul\":2595:2615   */\n      shl\n        /* \"#utility.yul\":2592:2593   */\n      0x00\n        /* \"#utility.yul\":2585:2616   */\n      mstore\n        /* \"#utility.yul\":2635:2639   */\n      0x32\n        /* \"#utility.yul\":2632:2633   */\n      0x04\n        /* \"#utility.yul\":2625:2640   */\n      mstore\n        /* \"#utility.yul\":2659:2663   */\n      0x24\n        /* \"#utility.yul\":2656:2657   */\n      0x00\n        /* \"#utility.yul\":2649:2664   */\n      revert\n        /* \"#utility.yul\":2675:2843   */\n    tag_72:\n        /* \"#utility.yul\":2748:2757   */\n      dup1\n      dup3\n      mul\n        /* \"#utility.yul\":2779:2788   */\n      dup2\n      iszero\n        /* \"#utility.yul\":2796:2811   */\n      dup3\n      dup3\n      div\n        /* \"#utility.yul\":2790:2812   */\n      dup5\n      eq\n        /* \"#utility.yul\":2776:2813   */\n      or\n        /* \"#utility.yul\":2766:2837   */\n      tag_114\n      jumpi\n        /* \"#utility.yul\":2817:2835   */\n      tag_114\n      tag_98\n      jump\t// in\n        /* \"#utility.yul\":2848:3065   */\n    tag_74:\n        /* \"#utility.yul\":2888:2889   */\n      0x00\n        /* \"#utility.yul\":2914:2915   */\n      dup3\n        /* \"#utility.yul\":2904:3036   */\n      tag_120\n      jumpi\n        /* \"#utility.yul\":2958:2968   */\n      0x4e487b71\n        /* \"#utility.yul\":2953:2956   */\n      0xe0\n        /* \"#utility.yul\":2949:2969   */\n      shl\n        /* \"#utility.yul\":2946:2947   */\n      0x00\n        /* \"#utility.yul\":2939:2970   */\n      mstore\n        /* \"#utility.yul\":2993:2997   */\n      0x12\n        /* \"#utility.yul\":2990:2991   */\n      0x04\n        /* \"#utility.yul\":2983:2998   */\n      mstore\n        /* \"#utility.yul\":3021:3025   */\n      0x24\n        /* \"#utility.yul\":3018:3019   */\n      0x00\n        /* \"#utility.yul\":3011:3026   */\n      revert\n        /* \"#utility.yul\":2904:3036   */\n    tag_120:\n      pop\n        /* \"#utility.yul\":3050:3059   */\n      div\n      swap1\n        /* \"#utility.yul\":2848:3065   */\n      jump\t// out\n        /* \"#utility.yul\":3070:3198   */\n    tag_78:\n        /* \"#utility.yul\":3137:3146   */\n      dup2\n      dup2\n      sub\n        /* \"#utility.yul\":3158:3169   */\n      dup2\n      dup2\n      gt\n        /* \"#utility.yul\":3155:3192   */\n      iszero\n      tag_114\n      jumpi\n        /* \"#utility.yul\":3172:3190   */\n      tag_114\n      tag_98\n      jump\t// in\n        /* \"#utility.yul\":3203:3378   */\n    tag_80:\n        /* \"#utility.yul\":3240:3243   */\n      0x00\n        /* \"#utility.yul\":3284:3288   */\n      0xff\n        /* \"#utility.yul\":3277:3282   */\n      dup3\n        /* \"#utility.yul\":3273:3289   */\n      and\n        /* \"#utility.yul\":3313:3317   */\n      0xff\n        /* \"#utility.yul\":3304:3311   */\n      dup2\n        /* \"#utility.yul\":3301:3318   */\n      sub\n        /* \"#utility.yul\":3298:3341   */\n      tag_126\n      jumpi\n        /* \"#utility.yul\":3321:3339   */\n      tag_126\n      tag_98\n      jump\t// in\n    tag_126:\n        /* \"#utility.yul\":3370:3371   */\n      0x01\n        /* \"#utility.yul\":3357:3372   */\n      add\n      swap3\n        /* \"#utility.yul\":3203:3378   */\n      swap2\n      pop\n      pop\n      jump\t// out\n\n    auxdata: 0xa2646970667358221220a3b82885c093d9edd132941177a4092d5fd1cd669f216b48015783612901913064736f6c63430008140033\n}\n",
				"bytecode": {
					"linkReferences": {},
					"object": "60e060405260056080908152600360a0819052600260c0819052610024929091610065565b50348015610030575f80fd5b505f80546001600160a01b0319163390811782558152600160205260409020805460ff60a01b1916600160a01b179055610109565b6001830191839082156100e5579160200282015f5b838211156100b757835183826101000a81548160ff021916908360ff16021790555092602001926001016020815f0104928301926001030261007a565b80156100e35782816101000a81549060ff02191690556001016020815f010492830192600103026100b7565b505b506100f19291506100f5565b5090565b5b808211156100f1575f81556001016100f6565b61078d806101165f395ff3fe608060405260043610610071575f3560e01c80636386c1c71161004c5780636386c1c7146100c45780638da5cb5b14610158578063a87430ba1461018e578063e45a57d0146101d6575f80fd5b80632e1a7d4d1461007c5780633a4b66f11461009d5780634420e486146100a5575f80fd5b3661007857005b5f80fd5b348015610087575f80fd5b5061009b61009636600461066b565b610207565b005b61009b61028c565b3480156100b0575f80fd5b5061009b6100bf366004610682565b61047b565b3480156100cf575f80fd5b5061012e6100de366004610682565b6001600160a01b039081165f9081526001602081815260409283902083516060810185528154958616808252600160a01b90960460ff161515928101839052920154919092018190529192909190565b604080516001600160a01b0390941684529115156020840152908201526060015b60405180910390f35b348015610163575f80fd5b505f54610176906001600160a01b031681565b6040516001600160a01b03909116815260200161014f565b348015610199575f80fd5b5061012e6101a8366004610682565b600160208190525f918252604090912080549101546001600160a01b03821691600160a01b900460ff169083565b3480156101e1575f80fd5b506101f56101f036600461066b565b610642565b60405160ff909116815260200161014f565b5f546001600160a01b031633146102525760405162461bcd60e51b815260206004820152600a60248201526927b7363c9037bbb732b960b11b60448201526064015b60405180910390fd5b5f80546040516001600160a01b039091169183156108fc02918491818181858888f19350505050158015610288573d5f803e3d5ffd5b5050565b335f90815260016020526040902054600160a01b900460ff166102e75760405162461bcd60e51b8152602060048201526013602482015272155cd95c881b9bdd081c9959da5cdd195c9959606a1b6044820152606401610249565b5f341161032b5760405162461bcd60e51b81526020600482015260126024820152710416d6f756e74206d757374206265203e20360741b6044820152606401610249565b335f908152600160208190526040822001805434929061034c9084906106c3565b9091555050335f908152600160205260408120546001600160a01b03169034905b60038160ff16101561043e576001600160a01b0383161561043e575f606460028360ff16600381106103a1576103a16106dc565b6020810491909101546103c091601f166101000a900460ff16346106f0565b6103ca9190610707565b6040519091506001600160a01b0385169082156108fc029083905f818181858888f19350505050158015610400573d5f803e3d5ffd5b5061040b8184610726565b6001600160a01b039485165f9081526001602052604090205490941693925081905061043681610739565b91505061036d565b50604080513381523460208201527f9e71bc8eea02a63969f509818f2dafb9254532904319f9dbda79b67bd34a5f3d910160405180910390a15050565b335f90815260016020526040902054600160a01b900460ff16156104d65760405162461bcd60e51b8152602060048201526012602482015271105b1c9958591e481c9959da5cdd195c995960721b6044820152606401610249565b336001600160a01b038216036105265760405162461bcd60e51b815260206004820152601560248201527421b0b73737ba103932b332b9103cb7bab939b2b63360591b6044820152606401610249565b6001600160a01b0381165f90815260016020526040902054600160a01b900460ff166105945760405162461bcd60e51b815260206004820152601760248201527f5265666572726572206e6f7420726567697374657265640000000000000000006044820152606401610249565b604080516060810182526001600160a01b038084168252600160208084018281525f8587018181523380835293859052908790209551865492511515600160a01b026001600160a81b0319909316951694909417178455915192019190915590517f0a31ee9d46a828884b81003c8498156ea6aa15b9b54bdd0ef0b533d9eba57e55916106379184906001600160a01b0392831681529116602082015260400190565b60405180910390a150565b60028160038110610651575f80fd5b60209182820401919006915054906101000a900460ff1681565b5f6020828403121561067b575f80fd5b5035919050565b5f60208284031215610692575f80fd5b81356001600160a01b03811681146106a8575f80fd5b9392505050565b634e487b7160e01b5f52601160045260245ffd5b808201808211156106d6576106d66106af565b92915050565b634e487b7160e01b5f52603260045260245ffd5b80820281158282048414176106d6576106d66106af565b5f8261072157634e487b7160e01b5f52601260045260245ffd5b500490565b818103818111156106d6576106d66106af565b5f60ff821660ff810361074e5761074e6106af565b6001019291505056fea2646970667358221220a3b82885c093d9edd132941177a4092d5fd1cd669f216b48015783612901913064736f6c63430008140033",
					"opcodes": "PUSH1 0xE0 PUSH1 0x40 MSTORE PUSH1 0x5 PUSH1 0x80 SWAP1 DUP2 MSTORE PUSH1 0x3 PUSH1 0xA0 DUP2 SWAP1 MSTORE PUSH1 0x2 PUSH1 0xC0 DUP2 SWAP1 MSTORE PUSH2 0x24 SWAP3 SWAP1 SWAP2 PUSH2 0x65 JUMP JUMPDEST POP CALLVALUE DUP1 ISZERO PUSH2 0x30 JUMPI PUSH0 DUP1 REVERT JUMPDEST POP PUSH0 DUP1 SLOAD PUSH1 0x1 PUSH1 0x1 PUSH1 0xA0 SHL SUB NOT AND CALLER SWAP1 DUP2 OR DUP3 SSTORE DUP2 MSTORE PUSH1 0x1 PUSH1 0x20 MSTORE PUSH1 0x40 SWAP1 KECCAK256 DUP1 SLOAD PUSH1 0xFF PUSH1 0xA0 SHL NOT AND PUSH1 0x1 PUSH1 0xA0 SHL OR SWAP1 SSTORE PUSH2 0x109 JUMP JUMPDEST PUSH1 0x1 DUP4 ADD SWAP2 DUP4 SWAP1 DUP3 ISZERO PUSH2 0xE5 JUMPI SWAP2 PUSH1 0x20 MUL DUP3 ADD PUSH0 JUMPDEST DUP4 DUP3 GT ISZERO PUSH2 0xB7 JUMPI DUP4 MLOAD DUP4 DUP3 PUSH2 0x100 EXP DUP2 SLOAD DUP2 PUSH1 0xFF MUL NOT AND SWAP1 DUP4 PUSH1 0xFF AND MUL OR SWAP1 SSTORE POP SWAP3 PUSH1 0x20 ADD SWAP3 PUSH1 0x1 ADD PUSH1 0x20 DUP2 PUSH0 ADD DIV SWAP3 DUP4 ADD SWAP3 PUSH1 0x1 SUB MUL PUSH2 0x7A JUMP JUMPDEST DUP1 ISZERO PUSH2 0xE3 JUMPI DUP3 DUP2 PUSH2 0x100 EXP DUP2 SLOAD SWAP1 PUSH1 0xFF MUL NOT AND SWAP1 SSTORE PUSH1 0x1 ADD PUSH1 0x20 DUP2 PUSH0 ADD DIV SWAP3 DUP4 ADD SWAP3 PUSH1 0x1 SUB MUL PUSH2 0xB7 JUMP JUMPDEST POP JUMPDEST POP PUSH2 0xF1 SWAP3 SWAP2 POP PUSH2 0xF5 JUMP JUMPDEST POP SWAP1 JUMP JUMPDEST JUMPDEST DUP1 DUP3 GT ISZERO PUSH2 0xF1 JUMPI PUSH0 DUP2 SSTORE PUSH1 0x1 ADD PUSH2 0xF6 JUMP JUMPDEST PUSH2 0x78D DUP1 PUSH2 0x116 PUSH0 CODECOPY PUSH0 RETURN INVALID PUSH1 0x80 PUSH1 0x40 MSTORE PUSH1 0x4 CALLDATASIZE LT PUSH2 0x71 JUMPI PUSH0 CALLDATALOAD PUSH1 0xE0 SHR DUP1 PUSH4 0x6386C1C7 GT PUSH2 0x4C JUMPI DUP1 PUSH4 0x6386C1C7 EQ PUSH2 0xC4 JUMPI DUP1 PUSH4 0x8DA5CB5B EQ PUSH2 0x158 JUMPI DUP1 PUSH4 0xA87430BA EQ PUSH2 0x18E JUMPI DUP1 PUSH4 0xE45A57D0 EQ PUSH2 0x1D6 JUMPI PUSH0 DUP1 REVERT JUMPDEST DUP1 PUSH4 0x2E1A7D4D EQ PUSH2 0x7C JUMPI DUP1 PUSH4 0x3A4B66F1 EQ PUSH2 0x9D JUMPI DUP1 PUSH4 0x4420E486 EQ PUSH2 0xA5 JUMPI PUSH0 DUP1 REVERT JUMPDEST CALLDATASIZE PUSH2 0x78 JUMPI STOP JUMPDEST PUSH0 DUP1 REVERT JUMPDEST CALLVALUE DUP1 ISZERO PUSH2 0x87 JUMPI PUSH0 DUP1 REVERT JUMPDEST POP PUSH2 0x9B PUSH2 0x96 CALLDATASIZE PUSH1 0x4 PUSH2 0x66B JUMP JUMPDEST PUSH2 0x207 JUMP JUMPDEST STOP JUMPDEST PUSH2 0x9B PUSH2 0x28C JUMP JUMPDEST CALLVALUE DUP1 ISZERO PUSH2 0xB0 JUMPI PUSH0 DUP1 REVERT JUMPDEST POP PUSH2 0x9B PUSH2 0xBF CALLDATASIZE PUSH1 0x4 PUSH2 0x682 JUMP JUMPDEST PUSH2 0x47B JUMP JUMPDEST CALLVALUE DUP1 ISZERO PUSH2 0xCF JUMPI PUSH0 DUP1 REVERT JUMPDEST POP PUSH2 0x12E PUSH2 0xDE CALLDATASIZE PUSH1 0x4 PUSH2 0x682 JUMP JUMPDEST PUSH1 0x1 PUSH1 0x1 PUSH1 0xA0 SHL SUB SWAP1 DUP2 AND PUSH0 SWAP1 DUP2 MSTORE PUSH1 0x1 PUSH1 0x20 DUP2 DUP2 MSTORE PUSH1 0x40 SWAP3 DUP4 SWAP1 KECCAK256 DUP4 MLOAD PUSH1 0x60 DUP2 ADD DUP6 MSTORE DUP2 SLOAD SWAP6 DUP7 AND DUP1 DUP3 MSTORE PUSH1 0x1 PUSH1 0xA0 SHL SWAP1 SWAP7 DIV PUSH1 0xFF AND ISZERO ISZERO SWAP3 DUP2 ADD DUP4 SWAP1 MSTORE SWAP3 ADD SLOAD SWAP2 SWAP1 SWAP3 ADD DUP2 SWAP1 MSTORE SWAP2 SWAP3 SWAP1 SWAP2 SWAP1 JUMP JUMPDEST PUSH1 0x40 DUP1 MLOAD PUSH1 0x1 PUSH1 0x1 PUSH1 0xA0 SHL SUB SWAP1 SWAP5 AND DUP5 MSTORE SWAP2 ISZERO ISZERO PUSH1 0x20 DUP5 ADD MSTORE SWAP1 DUP3 ADD MSTORE PUSH1 0x60 ADD JUMPDEST PUSH1 0x40 MLOAD DUP1 SWAP2 SUB SWAP1 RETURN JUMPDEST CALLVALUE DUP1 ISZERO PUSH2 0x163 JUMPI PUSH0 DUP1 REVERT JUMPDEST POP PUSH0 SLOAD PUSH2 0x176 SWAP1 PUSH1 0x1 PUSH1 0x1 PUSH1 0xA0 SHL SUB AND DUP2 JUMP JUMPDEST PUSH1 0x40 MLOAD PUSH1 0x1 PUSH1 0x1 PUSH1 0xA0 SHL SUB SWAP1 SWAP2 AND DUP2 MSTORE PUSH1 0x20 ADD PUSH2 0x14F JUMP JUMPDEST CALLVALUE DUP1 ISZERO PUSH2 0x199 JUMPI PUSH0 DUP1 REVERT JUMPDEST POP PUSH2 0x12E PUSH2 0x1A8 CALLDATASIZE PUSH1 0x4 PUSH2 0x682 JUMP JUMPDEST PUSH1 0x1 PUSH1 0x20 DUP2 SWAP1 MSTORE PUSH0 SWAP2 DUP3 MSTORE PUSH1 0x40 SWAP1 SWAP2 KECCAK256 DUP1 SLOAD SWAP2 ADD SLOAD PUSH1 0x1 PUSH1 0x1 PUSH1 0xA0 SHL SUB DUP3 AND SWAP2 PUSH1 0x1 PUSH1 0xA0 SHL SWAP1 DIV PUSH1 0xFF AND SWAP1 DUP4 JUMP JUMPDEST CALLVALUE DUP1 ISZERO PUSH2 0x1E1 JUMPI PUSH0 DUP1 REVERT JUMPDEST POP PUSH2 0x1F5 PUSH2 0x1F0 CALLDATASIZE PUSH1 0x4 PUSH2 0x66B JUMP JUMPDEST PUSH2 0x642 JUMP JUMPDEST PUSH1 0x40 MLOAD PUSH1 0xFF SWAP1 SWAP2 AND DUP2 MSTORE PUSH1 0x20 ADD PUSH2 0x14F JUMP JUMPDEST PUSH0 SLOAD PUSH1 0x1 PUSH1 0x1 PUSH1 0xA0 SHL SUB AND CALLER EQ PUSH2 0x252 JUMPI PUSH1 0x40 MLOAD PUSH3 0x461BCD PUSH1 0xE5 SHL DUP2 MSTORE PUSH1 0x20 PUSH1 0x4 DUP3 ADD MSTORE PUSH1 0xA PUSH1 0x24 DUP3 ADD MSTORE PUSH10 0x27B7363C9037BBB732B9 PUSH1 0xB1 SHL PUSH1 0x44 DUP3 ADD MSTORE PUSH1 0x64 ADD JUMPDEST PUSH1 0x40 MLOAD DUP1 SWAP2 SUB SWAP1 REVERT JUMPDEST PUSH0 DUP1 SLOAD PUSH1 0x40 MLOAD PUSH1 0x1 PUSH1 0x1 PUSH1 0xA0 SHL SUB SWAP1 SWAP2 AND SWAP2 DUP4 ISZERO PUSH2 0x8FC MUL SWAP2 DUP5 SWAP2 DUP2 DUP2 DUP2 DUP6 DUP9 DUP9 CALL SWAP4 POP POP POP POP ISZERO DUP1 ISZERO PUSH2 0x288 JUMPI RETURNDATASIZE PUSH0 DUP1 RETURNDATACOPY RETURNDATASIZE PUSH0 REVERT JUMPDEST POP POP JUMP JUMPDEST CALLER PUSH0 SWAP1 DUP2 MSTORE PUSH1 0x1 PUSH1 0x20 MSTORE PUSH1 0x40 SWAP1 KECCAK256 SLOAD PUSH1 0x1 PUSH1 0xA0 SHL SWAP1 DIV PUSH1 0xFF AND PUSH2 0x2E7 JUMPI PUSH1 0x40 MLOAD PUSH3 0x461BCD PUSH1 0xE5 SHL DUP2 MSTORE PUSH1 0x20 PUSH1 0x4 DUP3 ADD MSTORE PUSH1 0x13 PUSH1 0x24 DUP3 ADD MSTORE PUSH19 0x155CD95C881B9BDD081C9959DA5CDD195C9959 PUSH1 0x6A SHL PUSH1 0x44 DUP3 ADD MSTORE PUSH1 0x64 ADD PUSH2 0x249 JUMP JUMPDEST PUSH0 CALLVALUE GT PUSH2 0x32B JUMPI PUSH1 0x40 MLOAD PUSH3 0x461BCD PUSH1 0xE5 SHL DUP2 MSTORE PUSH1 0x20 PUSH1 0x4 DUP3 ADD MSTORE PUSH1 0x12 PUSH1 0x24 DUP3 ADD MSTORE PUSH18 0x416D6F756E74206D757374206265203E203 PUSH1 0x74 SHL PUSH1 0x44 DUP3 ADD MSTORE PUSH1 0x64 ADD PUSH2 0x249 JUMP JUMPDEST CALLER PUSH0 SWAP1 DUP2 MSTORE PUSH1 0x1 PUSH1 0x20 DUP2 SWAP1 MSTORE PUSH1 0x40 DUP3 KECCAK256 ADD DUP1 SLOAD CALLVALUE SWAP3 SWAP1 PUSH2 0x34C SWAP1 DUP5 SWAP1 PUSH2 0x6C3 JUMP JUMPDEST SWAP1 SWAP2 SSTORE POP POP CALLER PUSH0 SWAP1 DUP2 MSTORE PUSH1 0x1 PUSH1 0x20 MSTORE PUSH1 0x40 DUP2 KECCAK256 SLOAD PUSH1 0x1 PUSH1 0x1 PUSH1 0xA0 SHL SUB AND SWAP1 CALLVALUE SWAP1 JUMPDEST PUSH1 0x3 DUP2 PUSH1 0xFF AND LT ISZERO PUSH2 0x43E JUMPI PUSH1 0x1 PUSH1 0x1 PUSH1 0xA0 SHL SUB DUP4 AND ISZERO PUSH2 0x43E JUMPI PUSH0 PUSH1 0x64 PUSH1 0x2 DUP4 PUSH1 0xFF AND PUSH1 0x3 DUP2 LT PUSH2 0x3A1 JUMPI PUSH2 0x3A1 PUSH2 0x6DC JUMP JUMPDEST PUSH1 0x20 DUP2 DIV SWAP2 SWAP1 SWAP2 ADD SLOAD PUSH2 0x3C0 SWAP2 PUSH1 0x1F AND PUSH2 0x100 EXP SWAP1 DIV PUSH1 0xFF AND CALLVALUE PUSH2 0x6F0 JUMP JUMPDEST PUSH2 0x3CA SWAP2 SWAP1 PUSH2 0x707 JUMP JUMPDEST PUSH1 0x40 MLOAD SWAP1 SWAP2 POP PUSH1 0x1 PUSH1 0x1 PUSH1 0xA0 SHL SUB DUP6 AND SWAP1 DUP3 ISZERO PUSH2 0x8FC MUL SWAP1 DUP4 SWAP1 PUSH0 DUP2 DUP2 DUP2 DUP6 DUP9 DUP9 CALL SWAP4 POP POP POP POP ISZERO DUP1 ISZERO PUSH2 0x400 JUMPI RETURNDATASIZE PUSH0 DUP1 RETURNDATACOPY RETURNDATASIZE PUSH0 REVERT JUMPDEST POP PUSH2 0x40B DUP2 DUP5 PUSH2 0x726 JUMP JUMPDEST PUSH1 0x1 PUSH1 0x1 PUSH1 0xA0 SHL SUB SWAP5 DUP6 AND PUSH0 SWAP1 DUP2 MSTORE PUSH1 0x1 PUSH1 0x20 MSTORE PUSH1 0x40 SWAP1 KECCAK256 SLOAD SWAP1 SWAP5 AND SWAP4 SWAP3 POP DUP2 SWAP1 POP PUSH2 0x436 DUP2 PUSH2 0x739 JUMP JUMPDEST SWAP2 POP POP PUSH2 0x36D JUMP JUMPDEST POP PUSH1 0x40 DUP1 MLOAD CALLER DUP2 MSTORE CALLVALUE PUSH1 0x20 DUP3 ADD MSTORE PUSH32 0x9E71BC8EEA02A63969F509818F2DAFB9254532904319F9DBDA79B67BD34A5F3D SWAP2 ADD PUSH1 0x40 MLOAD DUP1 SWAP2 SUB SWAP1 LOG1 POP POP JUMP JUMPDEST CALLER PUSH0 SWAP1 DUP2 MSTORE PUSH1 0x1 PUSH1 0x20 MSTORE PUSH1 0x40 SWAP1 KECCAK256 SLOAD PUSH1 0x1 PUSH1 0xA0 SHL SWAP1 DIV PUSH1 0xFF AND ISZERO PUSH2 0x4D6 JUMPI PUSH1 0x40 MLOAD PUSH3 0x461BCD PUSH1 0xE5 SHL DUP2 MSTORE PUSH1 0x20 PUSH1 0x4 DUP3 ADD MSTORE PUSH1 0x12 PUSH1 0x24 DUP3 ADD MSTORE PUSH18 0x105B1C9958591E481C9959DA5CDD195C9959 PUSH1 0x72 SHL PUSH1 0x44 DUP3 ADD MSTORE PUSH1 0x64 ADD PUSH2 0x249 JUMP JUMPDEST CALLER PUSH1 0x1 PUSH1 0x1 PUSH1 0xA0 SHL SUB DUP3 AND SUB PUSH2 0x526 JUMPI PUSH1 0x40 MLOAD PUSH3 0x461BCD PUSH1 0xE5 SHL DUP2 MSTORE PUSH1 0x20 PUSH1 0x4 DUP3 ADD MSTORE PUSH1 0x15 PUSH1 0x24 DUP3 ADD MSTORE PUSH21 0x21B0B73737BA103932B332B9103CB7BAB939B2B633 PUSH1 0x59 SHL PUSH1 0x44 DUP3 ADD MSTORE PUSH1 0x64 ADD PUSH2 0x249 JUMP JUMPDEST PUSH1 0x1 PUSH1 0x1 PUSH1 0xA0 SHL SUB DUP2 AND PUSH0 SWAP1 DUP2 MSTORE PUSH1 0x1 PUSH1 0x20 MSTORE PUSH1 0x40 SWAP1 KECCAK256 SLOAD PUSH1 0x1 PUSH1 0xA0 SHL SWAP1 DIV PUSH1 0xFF AND PUSH2 0x594 JUMPI PUSH1 0x40 MLOAD PUSH3 0x461BCD PUSH1 0xE5 SHL DUP2 MSTORE PUSH1 0x20 PUSH1 0x4 DUP3 ADD MSTORE PUSH1 0x17 PUSH1 0x24 DUP3 ADD MSTORE PUSH32 0x5265666572726572206E6F742072656769737465726564000000000000000000 PUSH1 0x44 DUP3 ADD MSTORE PUSH1 0x64 ADD PUSH2 0x249 JUMP JUMPDEST PUSH1 0x40 DUP1 MLOAD PUSH1 0x60 DUP2 ADD DUP3 MSTORE PUSH1 0x1 PUSH1 0x1 PUSH1 0xA0 SHL SUB DUP1 DUP5 AND DUP3 MSTORE PUSH1 0x1 PUSH1 0x20 DUP1 DUP5 ADD DUP3 DUP2 MSTORE PUSH0 DUP6 DUP8 ADD DUP2 DUP2 MSTORE CALLER DUP1 DUP4 MSTORE SWAP4 DUP6 SWAP1 MSTORE SWAP1 DUP8 SWAP1 KECCAK256 SWAP6 MLOAD DUP7 SLOAD SWAP3 MLOAD ISZERO ISZERO PUSH1 0x1 PUSH1 0xA0 SHL MUL PUSH1 0x1 PUSH1 0x1 PUSH1 0xA8 SHL SUB NOT SWAP1 SWAP4 AND SWAP6 AND SWAP5 SWAP1 SWAP5 OR OR DUP5 SSTORE SWAP2 MLOAD SWAP3 ADD SWAP2 SWAP1 SWAP2 SSTORE SWAP1 MLOAD PUSH32 0xA31EE9D46A828884B81003C8498156EA6AA15B9B54BDD0EF0B533D9EBA57E55 SWAP2 PUSH2 0x637 SWAP2 DUP5 SWAP1 PUSH1 0x1 PUSH1 0x1 PUSH1 0xA0 SHL SUB SWAP3 DUP4 AND DUP2 MSTORE SWAP2 AND PUSH1 0x20 DUP3 ADD MSTORE PUSH1 0x40 ADD SWAP1 JUMP JUMPDEST PUSH1 0x40 MLOAD DUP1 SWAP2 SUB SWAP1 LOG1 POP JUMP JUMPDEST PUSH1 0x2 DUP2 PUSH1 0x3 DUP2 LT PUSH2 0x651 JUMPI PUSH0 DUP1 REVERT JUMPDEST PUSH1 0x20 SWAP2 DUP3 DUP3 DIV ADD SWAP2 SWAP1 MOD SWAP2 POP SLOAD SWAP1 PUSH2 0x100 EXP SWAP1 DIV PUSH1 0xFF AND DUP2 JUMP JUMPDEST PUSH0 PUSH1 0x20 DUP3 DUP5 SUB SLT ISZERO PUSH2 0x67B JUMPI PUSH0 DUP1 REVERT JUMPDEST POP CALLDATALOAD SWAP2 SWAP1 POP JUMP JUMPDEST PUSH0 PUSH1 0x20 DUP3 DUP5 SUB SLT ISZERO PUSH2 0x692 JUMPI PUSH0 DUP1 REVERT JUMPDEST DUP2 CALLDATALOAD PUSH1 0x1 PUSH1 0x1 PUSH1 0xA0 SHL SUB DUP2 AND DUP2 EQ PUSH2 0x6A8 JUMPI PUSH0 DUP1 REVERT JUMPDEST SWAP4 SWAP3 POP POP POP JUMP JUMPDEST PUSH4 0x4E487B71 PUSH1 0xE0 SHL PUSH0 MSTORE PUSH1 0x11 PUSH1 0x4 MSTORE PUSH1 0x24 PUSH0 REVERT JUMPDEST DUP1 DUP3 ADD DUP1 DUP3 GT ISZERO PUSH2 0x6D6 JUMPI PUSH2 0x6D6 PUSH2 0x6AF JUMP JUMPDEST SWAP3 SWAP2 POP POP JUMP JUMPDEST PUSH4 0x4E487B71 PUSH1 0xE0 SHL PUSH0 MSTORE PUSH1 0x32 PUSH1 0x4 MSTORE PUSH1 0x24 PUSH0 REVERT JUMPDEST DUP1 DUP3 MUL DUP2 ISZERO DUP3 DUP3 DIV DUP5 EQ OR PUSH2 0x6D6 JUMPI PUSH2 0x6D6 PUSH2 0x6AF JUMP JUMPDEST PUSH0 DUP3 PUSH2 0x721 JUMPI PUSH4 0x4E487B71 PUSH1 0xE0 SHL PUSH0 MSTORE PUSH1 0x12 PUSH1 0x4 MSTORE PUSH1 0x24 PUSH0 REVERT JUMPDEST POP DIV SWAP1 JUMP JUMPDEST DUP2 DUP2 SUB DUP2 DUP2 GT ISZERO PUSH2 0x6D6 JUMPI PUSH2 0x6D6 PUSH2 0x6AF JUMP JUMPDEST PUSH0 PUSH1 0xFF DUP3 AND PUSH1 0xFF DUP2 SUB PUSH2 0x74E JUMPI PUSH2 0x74E PUSH2 0x6AF JUMP JUMPDEST PUSH1 0x1 ADD SWAP3 SWAP2 POP POP JUMP INVALID LOG2 PUSH5 0x6970667358 0x22 SLT KECCAK256 LOG3 0xB8 0x28 DUP6 0xC0 SWAP4 0xD9 0xED 0xD1 ORIGIN SWAP5 GT PUSH24 0xA4092D5FD1CD669F216B48015783612901913064736F6C63 NUMBER STOP ADDMOD EQ STOP CALLER "
				},
				"gasEstimates": {
					"creation": {
						"codeDepositCost": "386600",
						"executionCost": "infinite",
						"totalCost": "infinite"
					},
					"external": {
						"getUserInfo(address)": "4809",
						"levelRewards(uint256)": "4149",
						"owner()": "2357",
						"register(address)": "35655",
						"stake()": "infinite",
						"users(address)": "4745",
						"withdraw(uint256)": "infinite"
					}
				},
				"methodIdentifiers": {
					"getUserInfo(address)": "6386c1c7",
					"levelRewards(uint256)": "e45a57d0",
					"owner()": "8da5cb5b",
					"register(address)": "4420e486",
					"stake()": "3a4b66f1",
					"users(address)": "a87430ba",
					"withdraw(uint256)": "2e1a7d4d"
				}
			},
			"storageLayout": {
				"storage": [
					{
						"astId": 3,
						"contract": "contracts/mlmdapps.sol:MLMStaking",
						"label": "owner",
						"offset": 0,
						"slot": "0",
						"type": "t_address"
					},
					{
						"astId": 15,
						"contract": "contracts/mlmdapps.sol:MLMStaking",
						"label": "users",
						"offset": 0,
						"slot": "1",
						"type": "t_mapping(t_address,t_struct(User)10_storage)"
					},
					{
						"astId": 23,
						"contract": "contracts/mlmdapps.sol:MLMStaking",
						"label": "levelRewards",
						"offset": 0,
						"slot": "2",
						"type": "t_array(t_uint8)3_storage"
					}
				],
				"types": {
					"t_address": {
						"encoding": "inplace",
						"label": "address",
						"numberOfBytes": "20"
					},
					"t_array(t_uint8)3_storage": {
						"base": "t_uint8",
						"encoding": "inplace",
						"label": "uint8[3]",
						"numberOfBytes": "32"
					},
					"t_bool": {
						"encoding": "inplace",
						"label": "bool",
						"numberOfBytes": "1"
					},
					"t_mapping(t_address,t_struct(User)10_storage)": {
						"encoding": "mapping",
						"key": "t_address",
						"label": "mapping(address => struct MLMStaking.User)",
						"numberOfBytes": "32",
						"value": "t_struct(User)10_storage"
					},
					"t_struct(User)10_storage": {
						"encoding": "inplace",
						"label": "struct MLMStaking.User",
						"members": [
							{
								"astId": 5,
								"contract": "contracts/mlmdapps.sol:MLMStaking",
								"label": "referrer",
								"offset": 0,
								"slot": "0",
								"type": "t_address"
							},
							{
								"astId": 7,
								"contract": "contracts/mlmdapps.sol:MLMStaking",
								"label": "registered",
								"offset": 20,
								"slot": "0",
								"type": "t_bool"
							},
							{
								"astId": 9,
								"contract": "contracts/mlmdapps.sol:MLMStaking",
								"label": "stakedAmount",
								"offset": 0,
								"slot": "1",
								"type": "t_uint256"
							}
						],
						"numberOfBytes": "64"
					},
					"t_uint256": {
						"encoding": "inplace",
						"label": "uint256",
						"numberOfBytes": "32"
					},
					"t_uint8": {
						"encoding": "inplace",
						"label": "uint8",
						"numberOfBytes": "1"
					}
				}
			},
			"userdoc": {
				"kind": "user",
				"methods": {},
				"version": 1
			}
		}
	}
}