{
	"contracts/sikkacoin.sol": {
		"MLMStaking": {
			"abi": [
				{
					"inputs": [
						{
							"internalType": "address",
							"name": "_owner",
							"type": "address"
						},
						{
							"internalType": "address",
							"name": "_tokenAddress",
							"type": "address"
						}
					],
					"stateMutability": "nonpayable",
					"type": "constructor"
				},
				{
					"anonymous": false,
					"inputs": [
						{
							"indexed": true,
							"internalType": "address",
							"name": "user",
							"type": "address"
						},
						{
							"indexed": true,
							"internalType": "uint256",
							"name": "positionId",
							"type": "uint256"
						},
						{
							"indexed": false,
							"internalType": "uint256",
							"name": "amount",
							"type": "uint256"
						},
						{
							"indexed": false,
							"internalType": "uint256",
							"name": "reward",
							"type": "uint256"
						}
					],
					"name": "Claimed",
					"type": "event"
				},
				{
					"anonymous": false,
					"inputs": [
						{
							"indexed": true,
							"internalType": "address",
							"name": "user",
							"type": "address"
						},
						{
							"indexed": true,
							"internalType": "address",
							"name": "referrer",
							"type": "address"
						}
					],
					"name": "Registered",
					"type": "event"
				},
				{
					"anonymous": false,
					"inputs": [
						{
							"indexed": true,
							"internalType": "address",
							"name": "user",
							"type": "address"
						},
						{
							"indexed": true,
							"internalType": "uint256",
							"name": "stakeId",
							"type": "uint256"
						},
						{
							"indexed": true,
							"internalType": "uint256",
							"name": "positionId",
							"type": "uint256"
						},
						{
							"indexed": false,
							"internalType": "uint256",
							"name": "amount",
							"type": "uint256"
						},
						{
							"indexed": false,
							"internalType": "uint256",
							"name": "timestamp",
							"type": "uint256"
						}
					],
					"name": "Staked",
					"type": "event"
				},
				{
					"inputs": [
						{
							"internalType": "uint256",
							"name": "_positionId",
							"type": "uint256"
						}
					],
					"name": "claim",
					"outputs": [],
					"stateMutability": "nonpayable",
					"type": "function"
				},
				{
					"inputs": [
						{
							"internalType": "address",
							"name": "",
							"type": "address"
						}
					],
					"name": "directReferralCount",
					"outputs": [
						{
							"internalType": "uint256",
							"name": "",
							"type": "uint256"
						}
					],
					"stateMutability": "view",
					"type": "function"
				},
				{
					"inputs": [
						{
							"internalType": "address",
							"name": "",
							"type": "address"
						}
					],
					"name": "directReferralIncome",
					"outputs": [
						{
							"internalType": "uint256",
							"name": "",
							"type": "uint256"
						}
					],
					"stateMutability": "view",
					"type": "function"
				},
				{
					"inputs": [
						{
							"internalType": "address",
							"name": "user",
							"type": "address"
						}
					],
					"name": "getDirectReferralCount",
					"outputs": [
						{
							"internalType": "uint256",
							"name": "",
							"type": "uint256"
						}
					],
					"stateMutability": "view",
					"type": "function"
				},
				{
					"inputs": [
						{
							"internalType": "address",
							"name": "user",
							"type": "address"
						}
					],
					"name": "getDirectReferralIncome",
					"outputs": [
						{
							"internalType": "uint256",
							"name": "",
							"type": "uint256"
						}
					],
					"stateMutability": "view",
					"type": "function"
				},
				{
					"inputs": [
						{
							"internalType": "uint256",
							"name": "amount",
							"type": "uint256"
						},
						{
							"internalType": "uint256",
							"name": "numDays",
							"type": "uint256"
						}
					],
					"name": "getEstimatedReturn",
					"outputs": [
						{
							"internalType": "uint256",
							"name": "reward",
							"type": "uint256"
						}
					],
					"stateMutability": "view",
					"type": "function"
				},
				{
					"inputs": [
						{
							"internalType": "address",
							"name": "_user",
							"type": "address"
						}
					],
					"name": "getPositionIds",
					"outputs": [
						{
							"internalType": "uint256[]",
							"name": "",
							"type": "uint256[]"
						}
					],
					"stateMutability": "view",
					"type": "function"
				},
				{
					"inputs": [
						{
							"internalType": "uint256",
							"name": "_positionId",
							"type": "uint256"
						}
					],
					"name": "getStakeByPositionId",
					"outputs": [
						{
							"internalType": "address",
							"name": "user",
							"type": "address"
						},
						{
							"internalType": "uint256",
							"name": "stakeId",
							"type": "uint256"
						},
						{
							"internalType": "uint256",
							"name": "amount",
							"type": "uint256"
						},
						{
							"internalType": "uint256",
							"name": "timestamp",
							"type": "uint256"
						},
						{
							"internalType": "uint256",
							"name": "numDays",
							"type": "uint256"
						},
						{
							"internalType": "bool",
							"name": "claimed",
							"type": "bool"
						}
					],
					"stateMutability": "view",
					"type": "function"
				},
				{
					"inputs": [
						{
							"internalType": "uint256",
							"name": "_positionId",
							"type": "uint256"
						}
					],
					"name": "getStakeDailyReward",
					"outputs": [
						{
							"internalType": "uint256",
							"name": "principal",
							"type": "uint256"
						},
						{
							"internalType": "uint256",
							"name": "apy",
							"type": "uint256"
						},
						{
							"internalType": "uint256",
							"name": "perDayReward",
							"type": "uint256"
						},
						{
							"internalType": "uint256",
							"name": "totalExpectedReward",
							"type": "uint256"
						},
						{
							"internalType": "uint256",
							"name": "durationInDays",
							"type": "uint256"
						}
					],
					"stateMutability": "view",
					"type": "function"
				},
				{
					"inputs": [
						{
							"internalType": "address",
							"name": "user",
							"type": "address"
						}
					],
					"name": "getTotalIncome",
					"outputs": [
						{
							"internalType": "uint256",
							"name": "",
							"type": "uint256"
						}
					],
					"stateMutability": "view",
					"type": "function"
				},
				{
					"inputs": [
						{
							"internalType": "address",
							"name": "user",
							"type": "address"
						}
					],
					"name": "getUserLevel",
					"outputs": [
						{
							"internalType": "uint256",
							"name": "",
							"type": "uint256"
						}
					],
					"stateMutability": "view",
					"type": "function"
				},
				{
					"inputs": [
						{
							"internalType": "address",
							"name": "user",
							"type": "address"
						}
					],
					"name": "isRegistered",
					"outputs": [
						{
							"internalType": "bool",
							"name": "",
							"type": "bool"
						}
					],
					"stateMutability": "view",
					"type": "function"
				},
				{
					"inputs": [
						{
							"internalType": "uint256",
							"name": "",
							"type": "uint256"
						}
					],
					"name": "levelRewards",
					"outputs": [
						{
							"internalType": "uint8",
							"name": "",
							"type": "uint8"
						}
					],
					"stateMutability": "view",
					"type": "function"
				},
				{
					"inputs": [],
					"name": "nextPositionId",
					"outputs": [
						{
							"internalType": "uint256",
							"name": "",
							"type": "uint256"
						}
					],
					"stateMutability": "view",
					"type": "function"
				},
				{
					"inputs": [],
					"name": "nextStakeId",
					"outputs": [
						{
							"internalType": "uint256",
							"name": "",
							"type": "uint256"
						}
					],
					"stateMutability": "view",
					"type": "function"
				},
				{
					"inputs": [],
					"name": "owner",
					"outputs": [
						{
							"internalType": "address",
							"name": "",
							"type": "address"
						}
					],
					"stateMutability": "view",
					"type": "function"
				},
				{
					"inputs": [
						{
							"internalType": "uint256",
							"name": "",
							"type": "uint256"
						}
					],
					"name": "positionIdToUser",
					"outputs": [
						{
							"internalType": "address",
							"name": "",
							"type": "address"
						}
					],
					"stateMutability": "view",
					"type": "function"
				},
				{
					"inputs": [
						{
							"internalType": "address",
							"name": "_referrer",
							"type": "address"
						}
					],
					"name": "register",
					"outputs": [],
					"stateMutability": "nonpayable",
					"type": "function"
				},
				{
					"inputs": [
						{
							"internalType": "uint256",
							"name": "numDays",
							"type": "uint256"
						},
						{
							"internalType": "uint256",
							"name": "amount",
							"type": "uint256"
						}
					],
					"name": "stake",
					"outputs": [],
					"stateMutability": "nonpayable",
					"type": "function"
				},
				{
					"inputs": [
						{
							"internalType": "uint256",
							"name": "",
							"type": "uint256"
						}
					],
					"name": "stakingAPY",
					"outputs": [
						{
							"internalType": "uint256",
							"name": "",
							"type": "uint256"
						}
					],
					"stateMutability": "view",
					"type": "function"
				},
				{
					"inputs": [],
					"name": "token",
					"outputs": [
						{
							"internalType": "contract IERC20",
							"name": "",
							"type": "address"
						}
					],
					"stateMutability": "view",
					"type": "function"
				},
				{
					"inputs": [
						{
							"internalType": "address",
							"name": "",
							"type": "address"
						}
					],
					"name": "totalIncome",
					"outputs": [
						{
							"internalType": "uint256",
							"name": "",
							"type": "uint256"
						}
					],
					"stateMutability": "view",
					"type": "function"
				},
				{
					"inputs": [
						{
							"internalType": "address",
							"name": "",
							"type": "address"
						}
					],
					"name": "users",
					"outputs": [
						{
							"internalType": "address",
							"name": "referrer",
							"type": "address"
						},
						{
							"internalType": "bool",
							"name": "registered",
							"type": "bool"
						}
					],
					"stateMutability": "view",
					"type": "function"
				},
				{
					"inputs": [
						{
							"internalType": "uint256",
							"name": "amount",
							"type": "uint256"
						}
					],
					"name": "withdraw",
					"outputs": [],
					"stateMutability": "nonpayable",
					"type": "function"
				}
			],
			"devdoc": {
				"kind": "dev",
				"methods": {},
				"version": 1
			},
			"evm": {
				"assembly": "    /* \"contracts/sikkacoin.sol\":1053:1097  uint8[5] public levelRewards = [5, 3, 2,1,1] */\n  0x0120\n    /* \"contracts/sikkacoin.sol\":575:9133  contract MLMStaking {\r... */\n  0x40\n    /* \"contracts/sikkacoin.sol\":1053:1097  uint8[5] public levelRewards = [5, 3, 2,1,1] */\n  mstore\n    /* \"contracts/sikkacoin.sol\":1085:1086  5 */\n  0x05\n    /* \"contracts/sikkacoin.sol\":575:9133  contract MLMStaking {\r... */\n  0x80\n    /* \"contracts/sikkacoin.sol\":1053:1097  uint8[5] public levelRewards = [5, 3, 2,1,1] */\n  dup2\n  dup2\n  mstore\n    /* \"contracts/sikkacoin.sol\":1088:1089  3 */\n  0x03\n    /* \"contracts/sikkacoin.sol\":1053:1097  uint8[5] public levelRewards = [5, 3, 2,1,1] */\n  0xa0\n  mstore\n    /* \"contracts/sikkacoin.sol\":1091:1092  2 */\n  0x02\n    /* \"contracts/sikkacoin.sol\":1053:1097  uint8[5] public levelRewards = [5, 3, 2,1,1] */\n  0xc0\n  mstore\n    /* \"contracts/sikkacoin.sol\":1093:1094  1 */\n  0x01\n    /* \"contracts/sikkacoin.sol\":1053:1097  uint8[5] public levelRewards = [5, 3, 2,1,1] */\n  0xe0\n  dup2\n  swap1\n  mstore\n  0x0100\n  mstore\n  tag_1\n  swap2\n  0x04\n  swap2\n    /* \"contracts/sikkacoin.sol\":575:9133  contract MLMStaking {\r... */\n  swap1\n    /* \"contracts/sikkacoin.sol\":1053:1097  uint8[5] public levelRewards = [5, 3, 2,1,1] */\n  tag_2\n  jump\t// in\ntag_1:\n  pop\n    /* \"contracts/sikkacoin.sol\":1711:2148  constructor(address _owner, address _tokenAddress) {\r... */\n  callvalue\n  dup1\n  iszero\n  tag_3\n  jumpi\n  0x00\n  dup1\n  revert\ntag_3:\n  pop\n  mload(0x40)\n  sub(codesize, bytecodeSize)\n  dup1\n  bytecodeSize\n  dup4\n  codecopy\n  dup2\n  add\n  0x40\n  dup2\n  swap1\n  mstore\n  tag_4\n  swap2\n  tag_5\n  jump\t// in\ntag_4:\n  sub(shl(0xa0, 0x01), 0x01)\n    /* \"contracts/sikkacoin.sol\":1781:1801  _owner != address(0) */\n  dup3\n  and\n    /* \"contracts/sikkacoin.sol\":1773:1834  require(_owner != address(0), \"Owner address cannot be zero\") */\n  tag_8\n  jumpi\n  mload(0x40)\n  shl(0xe5, 0x461bcd)\n  dup2\n  mstore\n  0x04\n  add\n  tag_9\n  swap1\n  tag_10\n  jump\t// in\ntag_9:\n  mload(0x40)\n  dup1\n  swap2\n  sub\n  swap1\n  revert\ntag_8:\n  sub(shl(0xa0, 0x01), 0x01)\n    /* \"contracts/sikkacoin.sol\":1853:1880  _tokenAddress != address(0) */\n  dup2\n  and\n    /* \"contracts/sikkacoin.sol\":1845:1913  require(_tokenAddress != address(0), \"Token address cannot be zero\") */\n  tag_11\n  jumpi\n  mload(0x40)\n  shl(0xe5, 0x461bcd)\n  dup2\n  mstore\n  0x04\n  add\n  tag_9\n  swap1\n  tag_13\n  jump\t// in\ntag_11:\n    /* \"contracts/sikkacoin.sol\":1924:1929  owner */\n  0x00\n    /* \"contracts/sikkacoin.sol\":1924:1938  owner = _owner */\n  dup1\n  sload\n  sub(shl(0xa0, 0x01), 0x01)\n  swap4\n  dup5\n  and\n  not(sub(shl(0xa0, 0x01), 0x01))\n  swap2\n  dup3\n  and\n  or\n  dup1\n  dup4\n  sstore\n  0x01\n    /* \"contracts/sikkacoin.sol\":1949:1978  token = IERC20(_tokenAddress) */\n  dup1\n  sload\n  swap5\n  dup7\n  and\n  swap5\n  swap1\n  swap3\n  and\n  swap4\n  swap1\n  swap4\n  or\n  dup2\n  sstore\n    /* \"contracts/sikkacoin.sol\":1995:2000  owner */\n  swap2\n  swap1\n  swap3\n  and\n    /* \"contracts/sikkacoin.sol\":1989:2001  users[owner] */\n  dup3\n  mstore\n    /* \"contracts/sikkacoin.sol\":1989:1994  users */\n  0x02\n    /* \"contracts/sikkacoin.sol\":1989:2001  users[owner] */\n  0x20\n  swap1\n  dup2\n  mstore\n  0x40\n  dup4\n  keccak256\n    /* \"contracts/sikkacoin.sol\":1989:2019  users[owner].registered = true */\n  dup1\n  sload\n  not(shl(0xa0, 0xff))\n  and\n  shl(0xa0, 0x01)\n  or\n  swap1\n  sstore\n    /* \"contracts/sikkacoin.sol\":2032:2042  stakingAPY */\n  0x0a\n    /* \"contracts/sikkacoin.sol\":2032:2046  stakingAPY[30] */\n  swap1\n  mstore\n  0x579cf2be734d9b04ae69aa2ac47f7d57a73216e05f35a9c951916f461f31449d\n    /* \"contracts/sikkacoin.sol\":2032:2050  stakingAPY[30] = 1 */\n  sstore\n    /* \"contracts/sikkacoin.sol\":2078:2079  3 */\n  0x03\n    /* \"contracts/sikkacoin.sol\":2061:2075  stakingAPY[90] */\n  0x7f87218992b43f7ec59f3c8fd242b6759bfedfc613fdc2676bc53b4637f8f351\n    /* \"contracts/sikkacoin.sol\":2061:2079  stakingAPY[90] = 3 */\n  sstore\n    /* \"contracts/sikkacoin.sol\":2108:2109  6 */\n  0x06\n    /* \"contracts/sikkacoin.sol\":2090:2105  stakingAPY[180] */\n  0x2f844fc0a0df69dddfd25d195a0052546da08b9a0566e7bc05a95a3b80f0084c\n    /* \"contracts/sikkacoin.sol\":2090:2109  stakingAPY[180] = 6 */\n  sstore\n    /* \"contracts/sikkacoin.sol\":2131:2134  365 */\n  0x016d\n    /* \"contracts/sikkacoin.sol\":2120:2135  stakingAPY[365] */\n  swap1\n  mstore\n    /* \"contracts/sikkacoin.sol\":2138:2140  12 */\n  0x0c\n    /* \"contracts/sikkacoin.sol\":2120:2135  stakingAPY[365] */\n  0xd2808cfdc884998f3b7977877f7af898c79f14530d4599f2f9e32946b2e1a1e4\n    /* \"contracts/sikkacoin.sol\":2120:2140  stakingAPY[365] = 12 */\n  sstore\n    /* \"contracts/sikkacoin.sol\":575:9133  contract MLMStaking {\r... */\n  jump(tag_23)\ntag_2:\n  0x01\n  dup4\n  add\n  swap2\n  dup4\n  swap1\n  dup3\n  iszero\n  tag_15\n  jumpi\n  swap2\n  0x20\n  mul\n  dup3\n  add\n  0x00\ntag_16:\n  dup4\n  dup3\n  gt\n  iszero\n  tag_17\n  jumpi\n  dup4\n  mload\n  dup4\n  dup3\n  0x0100\n  exp\n  dup2\n  sload\n  dup2\n  0xff\n  mul\n  not\n  and\n  swap1\n  dup4\n  0xff\n  and\n  mul\n  or\n  swap1\n  sstore\n  pop\n  swap3\n  0x20\n  add\n  swap3\n  0x01\n  add\n  0x20\n  dup2\n  0x00\n  add\n  div\n  swap3\n  dup4\n  add\n  swap3\n  0x01\n  sub\n  mul\n  jump(tag_16)\ntag_17:\n  dup1\n  iszero\n  tag_18\n  jumpi\n  dup3\n  dup2\n  0x0100\n  exp\n  dup2\n  sload\n  swap1\n  0xff\n  mul\n  not\n  and\n  swap1\n  sstore\n  0x01\n  add\n  0x20\n  dup2\n  0x00\n  add\n  div\n  swap3\n  dup4\n  add\n  swap3\n  0x01\n  sub\n  mul\n  jump(tag_17)\ntag_18:\n  pop\ntag_15:\n  pop\n  tag_19\n  swap3\n  swap2\n  pop\n  tag_20\n  jump\t// in\ntag_19:\n  pop\n  swap1\n  jump\t// out\ntag_20:\ntag_21:\n  dup1\n  dup3\n  gt\n  iszero\n  tag_19\n  jumpi\n  0x00\n  dup2\n  sstore\n  0x01\n  add\n  jump(tag_21)\n    /* \"#utility.yul\":14:193   */\ntag_24:\n    /* \"#utility.yul\":95:108   */\n  dup1\n  mload\n  sub(shl(0xa0, 0x01), 0x01)\n    /* \"#utility.yul\":137:168   */\n  dup2\n  and\n    /* \"#utility.yul\":127:169   */\n  dup2\n  eq\n    /* \"#utility.yul\":117:119   */\n  tag_26\n  jumpi\n    /* \"#utility.yul\":183:184   */\n  0x00\n    /* \"#utility.yul\":180:181   */\n  dup1\n    /* \"#utility.yul\":173:185   */\n  revert\n    /* \"#utility.yul\":117:119   */\ntag_26:\n    /* \"#utility.yul\":76:193   */\n  swap2\n  swap1\n  pop\n  jump\t// out\n    /* \"#utility.yul\":198:505   */\ntag_5:\n  0x00\n  dup1\n    /* \"#utility.yul\":338:340   */\n  0x40\n    /* \"#utility.yul\":326:335   */\n  dup4\n    /* \"#utility.yul\":317:324   */\n  dup6\n    /* \"#utility.yul\":313:336   */\n  sub\n    /* \"#utility.yul\":309:341   */\n  slt\n    /* \"#utility.yul\":306:308   */\n  iszero\n  tag_28\n  jumpi\n    /* \"#utility.yul\":359:365   */\n  dup2\n    /* \"#utility.yul\":351:357   */\n  dup3\n    /* \"#utility.yul\":344:366   */\n  revert\n    /* \"#utility.yul\":306:308   */\ntag_28:\n    /* \"#utility.yul\":387:429   */\n  tag_29\n    /* \"#utility.yul\":419:428   */\n  dup4\n    /* \"#utility.yul\":387:429   */\n  tag_24\n  jump\t// in\ntag_29:\n    /* \"#utility.yul\":377:429   */\n  swap2\n  pop\n    /* \"#utility.yul\":448:499   */\n  tag_30\n    /* \"#utility.yul\":495:497   */\n  0x20\n    /* \"#utility.yul\":484:493   */\n  dup5\n    /* \"#utility.yul\":480:498   */\n  add\n    /* \"#utility.yul\":448:499   */\n  tag_24\n  jump\t// in\ntag_30:\n    /* \"#utility.yul\":438:499   */\n  swap1\n  pop\n    /* \"#utility.yul\":296:505   */\n  swap3\n  pop\n  swap3\n  swap1\n  pop\n  jump\t// out\n    /* \"#utility.yul\":510:862   */\ntag_10:\n    /* \"#utility.yul\":712:714   */\n  0x20\n    /* \"#utility.yul\":694:715   */\n  dup1\n  dup3\n  mstore\n    /* \"#utility.yul\":751:753   */\n  0x1c\n    /* \"#utility.yul\":731:749   */\n  swap1\n  dup3\n  add\n    /* \"#utility.yul\":724:754   */\n  mstore\n    /* \"#utility.yul\":790:820   */\n  0x4f776e657220616464726573732063616e6e6f74206265207a65726f00000000\n    /* \"#utility.yul\":785:787   */\n  0x40\n    /* \"#utility.yul\":770:788   */\n  dup3\n  add\n    /* \"#utility.yul\":763:821   */\n  mstore\n    /* \"#utility.yul\":853:855   */\n  0x60\n    /* \"#utility.yul\":838:856   */\n  add\n  swap1\n    /* \"#utility.yul\":684:862   */\n  jump\t// out\n    /* \"#utility.yul\":867:1219   */\ntag_13:\n    /* \"#utility.yul\":1069:1071   */\n  0x20\n    /* \"#utility.yul\":1051:1072   */\n  dup1\n  dup3\n  mstore\n    /* \"#utility.yul\":1108:1110   */\n  0x1c\n    /* \"#utility.yul\":1088:1106   */\n  swap1\n  dup3\n  add\n    /* \"#utility.yul\":1081:1111   */\n  mstore\n    /* \"#utility.yul\":1147:1177   */\n  0x546f6b656e20616464726573732063616e6e6f74206265207a65726f00000000\n    /* \"#utility.yul\":1142:1144   */\n  0x40\n    /* \"#utility.yul\":1127:1145   */\n  dup3\n  add\n    /* \"#utility.yul\":1120:1178   */\n  mstore\n    /* \"#utility.yul\":1210:1212   */\n  0x60\n    /* \"#utility.yul\":1195:1213   */\n  add\n  swap1\n    /* \"#utility.yul\":1041:1219   */\n  jump\t// out\ntag_23:\n    /* \"contracts/sikkacoin.sol\":575:9133  contract MLMStaking {\r... */\n  dataSize(sub_0)\n  dup1\n  dataOffset(sub_0)\n  0x00\n  codecopy\n  0x00\n  return\nstop\n\nsub_0: assembly {\n        /* \"contracts/sikkacoin.sol\":575:9133  contract MLMStaking {\r... */\n      mstore(0x40, 0x80)\n      callvalue\n      dup1\n      iszero\n      tag_1\n      jumpi\n      0x00\n      dup1\n      revert\n    tag_1:\n      pop\n      jumpi(tag_2, lt(calldatasize, 0x04))\n      shr(0xe0, calldataload(0x00))\n      dup1\n      0x899346c7\n      gt\n      tag_27\n      jumpi\n      dup1\n      0xbd297178\n      gt\n      tag_28\n      jumpi\n      dup1\n      0xbd297178\n      eq\n      tag_21\n      jumpi\n      dup1\n      0xc2d3c677\n      eq\n      tag_22\n      jumpi\n      dup1\n      0xc3c5a547\n      eq\n      tag_23\n      jumpi\n      dup1\n      0xe45a57d0\n      eq\n      tag_24\n      jumpi\n      dup1\n      0xf6e88873\n      eq\n      tag_25\n      jumpi\n      dup1\n      0xfc0c546a\n      eq\n      tag_26\n      jumpi\n      jump(tag_2)\n    tag_28:\n      dup1\n      0x899346c7\n      eq\n      tag_15\n      jumpi\n      dup1\n      0x8da5cb5b\n      eq\n      tag_16\n      jumpi\n      dup1\n      0x98278efb\n      eq\n      tag_17\n      jumpi\n      dup1\n      0xa87430ba\n      eq\n      tag_18\n      jumpi\n      dup1\n      0xaa7ed462\n      eq\n      tag_19\n      jumpi\n      dup1\n      0xb77b7dc9\n      eq\n      tag_20\n      jumpi\n      jump(tag_2)\n    tag_27:\n      dup1\n      0x4420e486\n      gt\n      tag_29\n      jumpi\n      dup1\n      0x4420e486\n      eq\n      tag_9\n      jumpi\n      dup1\n      0x75506c96\n      eq\n      tag_10\n      jumpi\n      dup1\n      0x797c7f5f\n      eq\n      tag_11\n      jumpi\n      dup1\n      0x7b0472f0\n      eq\n      tag_12\n      jumpi\n      dup1\n      0x862ba05f\n      eq\n      tag_13\n      jumpi\n      dup1\n      0x875bb4e2\n      eq\n      tag_14\n      jumpi\n      jump(tag_2)\n    tag_29:\n      dup1\n      0x1e43eb27\n      eq\n      tag_3\n      jumpi\n      dup1\n      0x21923bde\n      eq\n      tag_4\n      jumpi\n      dup1\n      0x28b496e5\n      eq\n      tag_5\n      jumpi\n      dup1\n      0x28fe7031\n      eq\n      tag_6\n      jumpi\n      dup1\n      0x2e1a7d4d\n      eq\n      tag_7\n      jumpi\n      dup1\n      0x379607f5\n      eq\n      tag_8\n      jumpi\n    tag_2:\n      0x00\n      dup1\n      revert\n        /* \"contracts/sikkacoin.sol\":993:1044  mapping(uint256 => address) public positionIdToUser */\n    tag_3:\n      tag_30\n      tag_31\n      calldatasize\n      0x04\n      tag_32\n      jump\t// in\n    tag_31:\n      tag_33\n      jump\t// in\n    tag_30:\n      mload(0x40)\n      tag_34\n      swap2\n      swap1\n      tag_35\n      jump\t// in\n    tag_34:\n      mload(0x40)\n      dup1\n      swap2\n      sub\n      swap1\n      return\n        /* \"contracts/sikkacoin.sol\":8051:8540  function getUserLevel(address user) external view returns (uint256) {\r... */\n    tag_4:\n      tag_36\n      tag_37\n      calldatasize\n      0x04\n      tag_38\n      jump\t// in\n    tag_37:\n      tag_39\n      jump\t// in\n    tag_36:\n      mload(0x40)\n      tag_34\n      swap2\n      swap1\n      tag_41\n      jump\t// in\n        /* \"contracts/sikkacoin.sol\":5824:6928  function getStakeDailyReward(uint256 _positionId) external view returns (\r... */\n    tag_5:\n      tag_42\n      tag_43\n      calldatasize\n      0x04\n      tag_32\n      jump\t// in\n    tag_43:\n      tag_44\n      jump\t// in\n    tag_42:\n      mload(0x40)\n      tag_34\n      swap6\n      swap5\n      swap4\n      swap3\n      swap2\n      swap1\n      tag_46\n      jump\t// in\n        /* \"contracts/sikkacoin.sol\":7673:8043  function getPositionIds(address _user) external view returns (uint256[] memory) {\r... */\n    tag_6:\n      tag_47\n      tag_48\n      calldatasize\n      0x04\n      tag_38\n      jump\t// in\n    tag_48:\n      tag_49\n      jump\t// in\n    tag_47:\n      mload(0x40)\n      tag_34\n      swap2\n      swap1\n      tag_51\n      jump\t// in\n        /* \"contracts/sikkacoin.sol\":8945:9130  function withdraw(uint256 amount) external {\r... */\n    tag_7:\n      tag_52\n      tag_53\n      calldatasize\n      0x04\n      tag_32\n      jump\t// in\n    tag_53:\n      tag_54\n      jump\t// in\n    tag_52:\n      stop\n        /* \"contracts/sikkacoin.sol\":4476:5699  function claim(uint256 _positionId) external onlyRegistered {\r... */\n    tag_8:\n      tag_52\n      tag_56\n      calldatasize\n      0x04\n      tag_32\n      jump\t// in\n    tag_56:\n      tag_57\n      jump\t// in\n        /* \"contracts/sikkacoin.sol\":2281:2739  function register(address _referrer) external {\r... */\n    tag_9:\n      tag_52\n      tag_59\n      calldatasize\n      0x04\n      tag_38\n      jump\t// in\n    tag_59:\n      tag_60\n      jump\t// in\n        /* \"contracts/sikkacoin.sol\":1104:1130  uint256 public nextStakeId */\n    tag_10:\n      tag_36\n      tag_62\n      jump\t// in\n        /* \"contracts/sikkacoin.sol\":6936:7665  function getStakeByPositionId(uint256 _positionId) external view returns (\r... */\n    tag_11:\n      tag_64\n      tag_65\n      calldatasize\n      0x04\n      tag_32\n      jump\t// in\n    tag_65:\n      tag_66\n      jump\t// in\n    tag_64:\n      mload(0x40)\n      tag_34\n      swap7\n      swap6\n      swap5\n      swap4\n      swap3\n      swap2\n      swap1\n      tag_68\n      jump\t// in\n        /* \"contracts/sikkacoin.sol\":2747:4112  function stake(uint256 numDays, uint256 amount) external onlyRegistered {\r... */\n    tag_12:\n      tag_52\n      tag_70\n      calldatasize\n      0x04\n      tag_71\n      jump\t// in\n    tag_70:\n      tag_72\n      jump\t// in\n        /* \"contracts/sikkacoin.sol\":1298:1344  mapping(address => uint256) public totalIncome */\n    tag_13:\n      tag_36\n      tag_74\n      calldatasize\n      0x04\n      tag_38\n      jump\t// in\n    tag_74:\n      tag_75\n      jump\t// in\n        /* \"contracts/sikkacoin.sol\":1353:1398  mapping(uint256 => uint256) public stakingAPY */\n    tag_14:\n      tag_36\n      tag_78\n      calldatasize\n      0x04\n      tag_32\n      jump\t// in\n    tag_78:\n      tag_79\n      jump\t// in\n        /* \"contracts/sikkacoin.sol\":1137:1166  uint256 public nextPositionId */\n    tag_15:\n      tag_36\n      tag_82\n      jump\t// in\n        /* \"contracts/sikkacoin.sol\":602:622  address public owner */\n    tag_16:\n      tag_30\n      tag_85\n      jump\t// in\n        /* \"contracts/sikkacoin.sol\":8548:8677  function getDirectReferralCount(address user) external view returns (uint256) {\r... */\n    tag_17:\n      tag_36\n      tag_88\n      calldatasize\n      0x04\n      tag_38\n      jump\t// in\n    tag_88:\n      tag_89\n      jump\t// in\n        /* \"contracts/sikkacoin.sol\":949:986  mapping(address => User) public users */\n    tag_18:\n      tag_91\n      tag_92\n      calldatasize\n      0x04\n      tag_38\n      jump\t// in\n    tag_92:\n      tag_93\n      jump\t// in\n    tag_91:\n      mload(0x40)\n      tag_34\n      swap3\n      swap2\n      swap1\n      tag_95\n      jump\t// in\n        /* \"contracts/sikkacoin.sol\":8685:8816  function getDirectReferralIncome(address user) external view returns (uint256) {\r... */\n    tag_19:\n      tag_36\n      tag_97\n      calldatasize\n      0x04\n      tag_38\n      jump\t// in\n    tag_97:\n      tag_98\n      jump\t// in\n        /* \"contracts/sikkacoin.sol\":1175:1229  mapping(address => uint256) public directReferralCount */\n    tag_20:\n      tag_36\n      tag_101\n      calldatasize\n      0x04\n      tag_38\n      jump\t// in\n    tag_101:\n      tag_102\n      jump\t// in\n        /* \"contracts/sikkacoin.sol\":4120:4466  function getEstimatedReturn(uint256 amount, uint256 numDays) external view returns (uint256 reward) {\r... */\n    tag_21:\n      tag_36\n      tag_105\n      calldatasize\n      0x04\n      tag_71\n      jump\t// in\n    tag_105:\n      tag_106\n      jump\t// in\n        /* \"contracts/sikkacoin.sol\":8824:8937  function getTotalIncome(address user) external view returns (uint256) {\r... */\n    tag_22:\n      tag_36\n      tag_109\n      calldatasize\n      0x04\n      tag_38\n      jump\t// in\n    tag_109:\n      tag_110\n      jump\t// in\n        /* \"contracts/sikkacoin.sol\":5711:5816  function isRegistered(address user) external view returns (bool) {\r... */\n    tag_23:\n      tag_112\n      tag_113\n      calldatasize\n      0x04\n      tag_38\n      jump\t// in\n    tag_113:\n      tag_114\n      jump\t// in\n    tag_112:\n      mload(0x40)\n      tag_34\n      swap2\n      swap1\n      tag_116\n      jump\t// in\n        /* \"contracts/sikkacoin.sol\":1053:1097  uint8[5] public levelRewards = [5, 3, 2,1,1] */\n    tag_24:\n      tag_117\n      tag_118\n      calldatasize\n      0x04\n      tag_32\n      jump\t// in\n    tag_118:\n      tag_119\n      jump\t// in\n    tag_117:\n      mload(0x40)\n      tag_34\n      swap2\n      swap1\n      tag_121\n      jump\t// in\n        /* \"contracts/sikkacoin.sol\":1236:1291  mapping(address => uint256) public directReferralIncome */\n    tag_25:\n      tag_36\n      tag_123\n      calldatasize\n      0x04\n      tag_38\n      jump\t// in\n    tag_123:\n      tag_124\n      jump\t// in\n        /* \"contracts/sikkacoin.sol\":629:648  IERC20 public token */\n    tag_26:\n      tag_30\n      tag_127\n      jump\t// in\n        /* \"contracts/sikkacoin.sol\":993:1044  mapping(uint256 => address) public positionIdToUser */\n    tag_33:\n      mstore(0x20, 0x03)\n      0x00\n      swap1\n      dup2\n      mstore\n      0x40\n      swap1\n      keccak256\n      sload\n      sub(shl(0xa0, 0x01), 0x01)\n      and\n      dup2\n      jump\t// out\n        /* \"contracts/sikkacoin.sol\":8051:8540  function getUserLevel(address user) external view returns (uint256) {\r... */\n    tag_39:\n      sub(shl(0xa0, 0x01), 0x01)\n        /* \"contracts/sikkacoin.sol\":8138:8149  users[user] */\n      dup2\n      and\n        /* \"contracts/sikkacoin.sol\":8110:8117  uint256 */\n      0x00\n        /* \"contracts/sikkacoin.sol\":8138:8149  users[user] */\n      swap1\n      dup2\n      mstore\n        /* \"contracts/sikkacoin.sol\":8138:8143  users */\n      0x02\n        /* \"contracts/sikkacoin.sol\":8138:8149  users[user] */\n      0x20\n      mstore\n      0x40\n      dup2\n      keccak256\n        /* \"contracts/sikkacoin.sol\":8138:8160  users[user].registered */\n      sload\n      shl(0xa0, 0x01)\n      swap1\n      div\n      0xff\n      and\n        /* \"contracts/sikkacoin.sol\":8130:8184  require(users[user].registered, \"User not registered\") */\n      tag_131\n      jumpi\n      mload(0x40)\n      shl(0xe5, 0x461bcd)\n      dup2\n      mstore\n      0x04\n      add\n      tag_132\n      swap1\n      tag_133\n      jump\t// in\n    tag_132:\n      mload(0x40)\n      dup1\n      swap2\n      sub\n      swap1\n      revert\n    tag_131:\n        /* \"contracts/sikkacoin.sol\":8197:8210  uint256 level */\n      0x00\n        /* \"contracts/sikkacoin.sol\":8243:8247  user */\n      dup3\n        /* \"contracts/sikkacoin.sol\":8260:8424  while (users[current].referrer != address(0) && users[current].referrer != owner) {\r... */\n    tag_134:\n      sub(shl(0xa0, 0x01), 0x01)\n        /* \"contracts/sikkacoin.sol\":8267:8281  users[current] */\n      dup2\n      dup2\n      and\n        /* \"contracts/sikkacoin.sol\":8302:8303  0 */\n      0x00\n        /* \"contracts/sikkacoin.sol\":8267:8281  users[current] */\n      swap1\n      dup2\n      mstore\n        /* \"contracts/sikkacoin.sol\":8267:8272  users */\n      0x02\n        /* \"contracts/sikkacoin.sol\":8267:8281  users[current] */\n      0x20\n      mstore\n      0x40\n      swap1\n      keccak256\n        /* \"contracts/sikkacoin.sol\":8267:8290  users[current].referrer */\n      sload\n      and\n        /* \"contracts/sikkacoin.sol\":8267:8304  users[current].referrer != address(0) */\n      iszero\n      dup1\n      iszero\n      swap1\n        /* \"contracts/sikkacoin.sol\":8267:8340  users[current].referrer != address(0) && users[current].referrer != owner */\n      tag_136\n      jumpi\n      pop\n        /* \"contracts/sikkacoin.sol\":8335:8340  owner */\n      0x00\n      dup1\n      sload\n      sub(shl(0xa0, 0x01), 0x01)\n        /* \"contracts/sikkacoin.sol\":8308:8322  users[current] */\n      dup4\n      dup2\n      and\n      dup4\n      mstore\n        /* \"contracts/sikkacoin.sol\":8308:8313  users */\n      0x02\n        /* \"contracts/sikkacoin.sol\":8308:8322  users[current] */\n      0x20\n      mstore\n      0x40\n      swap1\n      swap3\n      keccak256\n        /* \"contracts/sikkacoin.sol\":8308:8331  users[current].referrer */\n      sload\n      dup3\n      and\n        /* \"contracts/sikkacoin.sol\":8335:8340  owner */\n      swap2\n      and\n        /* \"contracts/sikkacoin.sol\":8308:8340  users[current].referrer != owner */\n      eq\n      iszero\n        /* \"contracts/sikkacoin.sol\":8267:8340  users[current].referrer != address(0) && users[current].referrer != owner */\n    tag_136:\n        /* \"contracts/sikkacoin.sol\":8260:8424  while (users[current].referrer != address(0) && users[current].referrer != owner) {\r... */\n      iszero\n      tag_135\n      jumpi\n        /* \"contracts/sikkacoin.sol\":8357:8364  level++ */\n      dup2\n      tag_137\n      dup2\n      tag_138\n      jump\t// in\n    tag_137:\n      sub(shl(0xa0, 0x01), 0x01)\n        /* \"contracts/sikkacoin.sol\":8389:8403  users[current] */\n      swap3\n      dup4\n      and\n      0x00\n      swap1\n      dup2\n      mstore\n        /* \"contracts/sikkacoin.sol\":8389:8394  users */\n      0x02\n        /* \"contracts/sikkacoin.sol\":8389:8403  users[current] */\n      0x20\n      mstore\n      0x40\n      swap1\n      keccak256\n        /* \"contracts/sikkacoin.sol\":8389:8412  users[current].referrer */\n      sload\n        /* \"contracts/sikkacoin.sol\":8357:8364  level++ */\n      swap1\n      swap4\n      pop\n        /* \"contracts/sikkacoin.sol\":8389:8412  users[current].referrer */\n      swap1\n      swap2\n      and\n      swap1\n      pop\n        /* \"contracts/sikkacoin.sol\":8260:8424  while (users[current].referrer != address(0) && users[current].referrer != owner) {\r... */\n      jump(tag_134)\n    tag_135:\n        /* \"contracts/sikkacoin.sol\":8467:8472  owner */\n      0x00\n      dup1\n      sload\n      sub(shl(0xa0, 0x01), 0x01)\n        /* \"contracts/sikkacoin.sol\":8440:8454  users[current] */\n      dup4\n      dup2\n      and\n      dup4\n      mstore\n        /* \"contracts/sikkacoin.sol\":8440:8445  users */\n      0x02\n        /* \"contracts/sikkacoin.sol\":8440:8454  users[current] */\n      0x20\n      mstore\n      0x40\n      swap1\n      swap3\n      keccak256\n        /* \"contracts/sikkacoin.sol\":8440:8463  users[current].referrer */\n      sload\n      dup3\n      and\n        /* \"contracts/sikkacoin.sol\":8467:8472  owner */\n      swap2\n      and\n        /* \"contracts/sikkacoin.sol\":8440:8472  users[current].referrer == owner */\n      eq\n        /* \"contracts/sikkacoin.sol\":8436:8508  if (users[current].referrer == owner) {\r... */\n      iszero\n      tag_139\n      jumpi\n        /* \"contracts/sikkacoin.sol\":8489:8496  level++ */\n      dup2\n      tag_140\n      dup2\n      tag_138\n      jump\t// in\n    tag_140:\n      swap3\n      pop\n      pop\n        /* \"contracts/sikkacoin.sol\":8436:8508  if (users[current].referrer == owner) {\r... */\n    tag_139:\n      pop\n        /* \"contracts/sikkacoin.sol\":8527:8532  level */\n      swap3\n        /* \"contracts/sikkacoin.sol\":8051:8540  function getUserLevel(address user) external view returns (uint256) {\r... */\n      swap2\n      pop\n      pop\n      jump\t// out\n        /* \"contracts/sikkacoin.sol\":5824:6928  function getStakeDailyReward(uint256 _positionId) external view returns (\r... */\n    tag_44:\n        /* \"contracts/sikkacoin.sol\":5907:5924  uint256 principal */\n      0x00\n        /* \"contracts/sikkacoin.sol\":6086:6115  positionIdToUser[_positionId] */\n      dup2\n      dup2\n      mstore\n        /* \"contracts/sikkacoin.sol\":6086:6102  positionIdToUser */\n      0x03\n        /* \"contracts/sikkacoin.sol\":6086:6115  positionIdToUser[_positionId] */\n      0x20\n      mstore\n      0x40\n      dup2\n      keccak256\n      sload\n        /* \"contracts/sikkacoin.sol\":5907:5924  uint256 principal */\n      dup2\n      swap1\n      dup2\n      swap1\n      dup2\n      swap1\n      dup2\n      swap1\n      sub(shl(0xa0, 0x01), 0x01)\n        /* \"contracts/sikkacoin.sol\":6086:6115  positionIdToUser[_positionId] */\n      and\n        /* \"contracts/sikkacoin.sol\":6134:6156  userAddr != address(0) */\n      dup1\n        /* \"contracts/sikkacoin.sol\":6126:6179  require(userAddr != address(0), \"Invalid positionId\") */\n      tag_142\n      jumpi\n      mload(0x40)\n      shl(0xe5, 0x461bcd)\n      dup2\n      mstore\n      0x04\n      add\n      tag_132\n      swap1\n      tag_144\n      jump\t// in\n    tag_142:\n      sub(shl(0xa0, 0x01), 0x01)\n        /* \"contracts/sikkacoin.sol\":6216:6231  users[userAddr] */\n      dup2\n      and\n        /* \"contracts/sikkacoin.sol\":6192:6213  Stake[] memory stakes */\n      0x00\n        /* \"contracts/sikkacoin.sol\":6216:6231  users[userAddr] */\n      swap1\n      dup2\n      mstore\n        /* \"contracts/sikkacoin.sol\":6216:6221  users */\n      0x02\n        /* \"contracts/sikkacoin.sol\":6216:6231  users[userAddr] */\n      0x20\n      swap1\n      dup2\n      mstore\n      0x40\n      dup1\n      dup4\n      keccak256\n        /* \"contracts/sikkacoin.sol\":6216:6238  users[userAddr].stakes */\n      0x01\n      add\n        /* \"contracts/sikkacoin.sol\":6192:6238  Stake[] memory stakes = users[userAddr].stakes */\n      dup1\n      sload\n      dup3\n      mload\n      dup2\n      dup6\n      mul\n      dup2\n      add\n      dup6\n      add\n      swap1\n      swap4\n      mstore\n      dup1\n      dup4\n      mstore\n      swap2\n      swap3\n        /* \"contracts/sikkacoin.sol\":6216:6238  users[userAddr].stakes */\n      swap1\n      swap2\n        /* \"contracts/sikkacoin.sol\":6192:6238  Stake[] memory stakes = users[userAddr].stakes */\n      swap1\n        /* \"contracts/sikkacoin.sol\":6192:6213  Stake[] memory stakes */\n      dup5\n      swap1\n        /* \"contracts/sikkacoin.sol\":6192:6238  Stake[] memory stakes = users[userAddr].stakes */\n      dup5\n      add\n    tag_145:\n      dup3\n      dup3\n      lt\n      iszero\n      tag_146\n      jumpi\n      0x00\n      dup5\n      dup2\n      mstore\n      0x20\n      swap1\n      dup2\n      swap1\n      keccak256\n      0x40\n      dup1\n      mload\n      0xc0\n      dup2\n      add\n      dup3\n      mstore\n      0x06\n      dup7\n      mul\n      swap1\n      swap3\n      add\n      dup1\n      sload\n      dup4\n      mstore\n      0x01\n      dup1\n      dup3\n      add\n      sload\n      dup5\n      dup7\n      add\n      mstore\n      0x02\n      dup3\n      add\n      sload\n      swap3\n      dup5\n      add\n      swap3\n      swap1\n      swap3\n      mstore\n      0x03\n      dup2\n      add\n      sload\n      0x60\n      dup5\n      add\n      mstore\n      0x04\n      dup2\n      add\n      sload\n      0x80\n      dup5\n      add\n      mstore\n      0x05\n      add\n      sload\n      0xff\n      and\n      iszero\n      iszero\n      0xa0\n      dup4\n      add\n      mstore\n      swap1\n      dup4\n      mstore\n      swap1\n      swap3\n      add\n      swap2\n      add\n      jump(tag_145)\n    tag_146:\n      pop\n      pop\n      pop\n      pop\n      swap1\n      pop\n        /* \"contracts/sikkacoin.sol\":6254:6263  uint256 i */\n      0x00\n        /* \"contracts/sikkacoin.sol\":6249:6883  for (uint256 i = 0; i < stakes.length; i++) {\r... */\n    tag_148:\n        /* \"contracts/sikkacoin.sol\":6273:6279  stakes */\n      dup2\n        /* \"contracts/sikkacoin.sol\":6273:6286  stakes.length */\n      mload\n        /* \"contracts/sikkacoin.sol\":6269:6270  i */\n      dup2\n        /* \"contracts/sikkacoin.sol\":6269:6286  i < stakes.length */\n      lt\n        /* \"contracts/sikkacoin.sol\":6249:6883  for (uint256 i = 0; i < stakes.length; i++) {\r... */\n      iszero\n      tag_149\n      jumpi\n        /* \"contracts/sikkacoin.sol\":6336:6347  _positionId */\n      dup9\n        /* \"contracts/sikkacoin.sol\":6312:6318  stakes */\n      dup3\n        /* \"contracts/sikkacoin.sol\":6319:6320  i */\n      dup3\n        /* \"contracts/sikkacoin.sol\":6312:6321  stakes[i] */\n      dup2\n      mload\n      dup2\n      lt\n      tag_151\n      jumpi\n      mstore(0x00, shl(0xe0, 0x4e487b71))\n      mstore(0x04, 0x32)\n      revert(0x00, 0x24)\n    tag_151:\n      0x20\n      mul\n      0x20\n      add\n      add\n      mload\n        /* \"contracts/sikkacoin.sol\":6312:6332  stakes[i].positionId */\n      0x40\n      add\n      mload\n        /* \"contracts/sikkacoin.sol\":6312:6347  stakes[i].positionId == _positionId */\n      eq\n        /* \"contracts/sikkacoin.sol\":6308:6872  if (stakes[i].positionId == _positionId) {\r... */\n      iszero\n      tag_152\n      jumpi\n        /* \"contracts/sikkacoin.sol\":6368:6382  uint256 amount */\n      0x00\n        /* \"contracts/sikkacoin.sol\":6385:6391  stakes */\n      dup3\n        /* \"contracts/sikkacoin.sol\":6392:6393  i */\n      dup3\n        /* \"contracts/sikkacoin.sol\":6385:6394  stakes[i] */\n      dup2\n      mload\n      dup2\n      lt\n      tag_153\n      jumpi\n      mstore(0x00, shl(0xe0, 0x4e487b71))\n      mstore(0x04, 0x32)\n      revert(0x00, 0x24)\n    tag_153:\n      0x20\n      mul\n      0x20\n      add\n      add\n      mload\n        /* \"contracts/sikkacoin.sol\":6385:6401  stakes[i].amount */\n      0x20\n      add\n      mload\n        /* \"contracts/sikkacoin.sol\":6368:6401  uint256 amount = stakes[i].amount */\n      swap1\n      pop\n        /* \"contracts/sikkacoin.sol\":6420:6435  uint256 numDays */\n      0x00\n        /* \"contracts/sikkacoin.sol\":6438:6444  stakes */\n      dup4\n        /* \"contracts/sikkacoin.sol\":6445:6446  i */\n      dup4\n        /* \"contracts/sikkacoin.sol\":6438:6447  stakes[i] */\n      dup2\n      mload\n      dup2\n      lt\n      tag_154\n      jumpi\n      mstore(0x00, shl(0xe0, 0x4e487b71))\n      mstore(0x04, 0x32)\n      revert(0x00, 0x24)\n    tag_154:\n      0x20\n      swap1\n      dup2\n      mul\n      swap2\n      swap1\n      swap2\n      add\n      dup2\n      add\n      mload\n        /* \"contracts/sikkacoin.sol\":6438:6455  stakes[i].numDays */\n      0x80\n      add\n      mload\n        /* \"contracts/sikkacoin.sol\":6474:6491  uint256 annualAPY */\n      0x00\n        /* \"contracts/sikkacoin.sol\":6494:6513  stakingAPY[numDays] */\n      dup2\n      dup2\n      mstore\n        /* \"contracts/sikkacoin.sol\":6494:6504  stakingAPY */\n      0x0a\n        /* \"contracts/sikkacoin.sol\":6494:6513  stakingAPY[numDays] */\n      swap1\n      swap3\n      mstore\n      0x40\n      dup3\n      keccak256\n      sload\n        /* \"contracts/sikkacoin.sol\":6438:6455  stakes[i].numDays */\n      swap1\n      swap3\n      pop\n        /* \"contracts/sikkacoin.sol\":6494:6513  stakingAPY[numDays] */\n      swap1\n        /* \"contracts/sikkacoin.sol\":6588:6597  100 * 365 */\n      0x8e94\n        /* \"contracts/sikkacoin.sol\":6438:6455  stakes[i].numDays */\n      dup4\n        /* \"contracts/sikkacoin.sol\":6555:6573  amount * annualAPY */\n      tag_155\n        /* \"contracts/sikkacoin.sol\":6494:6513  stakingAPY[numDays] */\n      dup5\n        /* \"contracts/sikkacoin.sol\":6555:6561  amount */\n      dup8\n        /* \"contracts/sikkacoin.sol\":6555:6573  amount * annualAPY */\n      tag_156\n      jump\t// in\n    tag_155:\n        /* \"contracts/sikkacoin.sol\":6555:6583  amount * annualAPY * numDays */\n      tag_157\n      swap2\n      swap1\n      tag_156\n      jump\t// in\n    tag_157:\n        /* \"contracts/sikkacoin.sol\":6554:6598  (amount * annualAPY * numDays) / (100 * 365) */\n      tag_158\n      swap2\n      swap1\n      tag_159\n      jump\t// in\n    tag_158:\n        /* \"contracts/sikkacoin.sol\":6532:6598  uint256 totalReward = (amount * annualAPY * numDays) / (100 * 365) */\n      swap1\n      pop\n        /* \"contracts/sikkacoin.sol\":6617:6631  uint256 perDay */\n      0x00\n        /* \"contracts/sikkacoin.sol\":6634:6655  totalReward / numDays */\n      tag_160\n        /* \"contracts/sikkacoin.sol\":6648:6655  numDays */\n      dup5\n        /* \"contracts/sikkacoin.sol\":6532:6598  uint256 totalReward = (amount * annualAPY * numDays) / (100 * 365) */\n      dup4\n        /* \"contracts/sikkacoin.sol\":6634:6655  totalReward / numDays */\n      tag_159\n      jump\t// in\n    tag_160:\n        /* \"contracts/sikkacoin.sol\":6706:6712  amount */\n      swap5\n      swap13\n      pop\n        /* \"contracts/sikkacoin.sol\":6735:6744  annualAPY */\n      swap2\n      swap11\n      pop\n        /* \"contracts/sikkacoin.sol\":6617:6655  uint256 perDay = totalReward / numDays */\n      swap3\n      swap9\n      pop\n        /* \"contracts/sikkacoin.sol\":6796:6807  totalReward */\n      swap2\n      swap7\n      pop\n        /* \"contracts/sikkacoin.sol\":6830:6837  numDays */\n      swap5\n      pop\n        /* \"contracts/sikkacoin.sol\":6676:6856  return (\r... */\n      tag_141\n      swap4\n      pop\n      pop\n      pop\n      pop\n      jump\n        /* \"contracts/sikkacoin.sol\":6308:6872  if (stakes[i].positionId == _positionId) {\r... */\n    tag_152:\n        /* \"contracts/sikkacoin.sol\":6288:6291  i++ */\n      dup1\n      tag_161\n      dup2\n      tag_138\n      jump\t// in\n    tag_161:\n      swap2\n      pop\n      pop\n        /* \"contracts/sikkacoin.sol\":6249:6883  for (uint256 i = 0; i < stakes.length; i++) {\r... */\n      jump(tag_148)\n    tag_149:\n      pop\n        /* \"contracts/sikkacoin.sol\":6895:6920  revert(\"Stake not found\") */\n      mload(0x40)\n      shl(0xe5, 0x461bcd)\n      dup2\n      mstore\n      0x04\n      add\n      tag_132\n      swap1\n      tag_163\n      jump\t// in\n        /* \"contracts/sikkacoin.sol\":5824:6928  function getStakeDailyReward(uint256 _positionId) external view returns (\r... */\n    tag_141:\n      swap2\n      swap4\n      swap6\n      swap1\n      swap3\n      swap5\n      pop\n      jump\t// out\n        /* \"contracts/sikkacoin.sol\":7673:8043  function getPositionIds(address _user) external view returns (uint256[] memory) {\r... */\n    tag_49:\n      sub(shl(0xa0, 0x01), 0x01)\n        /* \"contracts/sikkacoin.sol\":7785:7797  users[_user] */\n      dup2\n      and\n        /* \"contracts/sikkacoin.sol\":7764:7782  uint256 stakeCount */\n      0x00\n        /* \"contracts/sikkacoin.sol\":7785:7797  users[_user] */\n      swap1\n      dup2\n      mstore\n        /* \"contracts/sikkacoin.sol\":7785:7790  users */\n      0x02\n        /* \"contracts/sikkacoin.sol\":7785:7797  users[_user] */\n      0x20\n      mstore\n      0x40\n      dup2\n      keccak256\n        /* \"contracts/sikkacoin.sol\":7785:7804  users[_user].stakes */\n      0x01\n      add\n        /* \"contracts/sikkacoin.sol\":7785:7811  users[_user].stakes.length */\n      sload\n        /* \"contracts/sikkacoin.sol\":7735:7751  uint256[] memory */\n      0x60\n      swap2\n        /* \"contracts/sikkacoin.sol\":7785:7811  users[_user].stakes.length */\n      dup2\n        /* \"contracts/sikkacoin.sol\":7853:7878  new uint256[](stakeCount) */\n      0xffffffffffffffff\n      dup2\n      gt\n      iszero\n      tag_165\n      jumpi\n      mstore(0x00, shl(0xe0, 0x4e487b71))\n      mstore(0x04, 0x41)\n      revert(0x00, 0x24)\n    tag_165:\n      mload(0x40)\n      swap1\n      dup1\n      dup3\n      mstore\n      dup1\n      0x20\n      mul\n      0x20\n      add\n      dup3\n      add\n      0x40\n      mstore\n      dup1\n      iszero\n      tag_166\n      jumpi\n      dup2\n      0x20\n      add\n      0x20\n      dup3\n      mul\n      dup1\n      calldatasize\n      dup4\n      calldatacopy\n      add\n      swap1\n      pop\n    tag_166:\n      pop\n        /* \"contracts/sikkacoin.sol\":7822:7878  uint256[] memory positionIds = new uint256[](stakeCount) */\n      swap1\n      pop\n        /* \"contracts/sikkacoin.sol\":7894:7903  uint256 i */\n      0x00\n        /* \"contracts/sikkacoin.sol\":7889:8007  for (uint256 i = 0; i < stakeCount; i++) {\r... */\n    tag_167:\n        /* \"contracts/sikkacoin.sol\":7913:7923  stakeCount */\n      dup3\n        /* \"contracts/sikkacoin.sol\":7909:7910  i */\n      dup2\n        /* \"contracts/sikkacoin.sol\":7909:7923  i < stakeCount */\n      lt\n        /* \"contracts/sikkacoin.sol\":7889:8007  for (uint256 i = 0; i < stakeCount; i++) {\r... */\n      iszero\n      tag_168\n      jumpi\n      sub(shl(0xa0, 0x01), 0x01)\n        /* \"contracts/sikkacoin.sol\":7962:7974  users[_user] */\n      dup6\n      and\n      0x00\n      swap1\n      dup2\n      mstore\n        /* \"contracts/sikkacoin.sol\":7962:7967  users */\n      0x02\n        /* \"contracts/sikkacoin.sol\":7962:7974  users[_user] */\n      0x20\n      mstore\n      0x40\n      swap1\n      keccak256\n        /* \"contracts/sikkacoin.sol\":7962:7981  users[_user].stakes */\n      0x01\n      add\n        /* \"contracts/sikkacoin.sol\":7962:7984  users[_user].stakes[i] */\n      dup1\n      sload\n        /* \"contracts/sikkacoin.sol\":7982:7983  i */\n      dup3\n      swap1\n        /* \"contracts/sikkacoin.sol\":7962:7984  users[_user].stakes[i] */\n      dup2\n      lt\n      tag_170\n      jumpi\n      mstore(0x00, shl(0xe0, 0x4e487b71))\n      mstore(0x04, 0x32)\n      revert(0x00, 0x24)\n    tag_170:\n      swap1\n      0x00\n      mstore\n      keccak256(0x00, 0x20)\n      swap1\n      0x06\n      mul\n      add\n        /* \"contracts/sikkacoin.sol\":7962:7995  users[_user].stakes[i].positionId */\n      0x02\n      add\n      sload\n        /* \"contracts/sikkacoin.sol\":7945:7956  positionIds */\n      dup3\n        /* \"contracts/sikkacoin.sol\":7957:7958  i */\n      dup3\n        /* \"contracts/sikkacoin.sol\":7945:7959  positionIds[i] */\n      dup2\n      mload\n      dup2\n      lt\n      tag_172\n      jumpi\n      mstore(0x00, shl(0xe0, 0x4e487b71))\n      mstore(0x04, 0x32)\n      revert(0x00, 0x24)\n    tag_172:\n      0x20\n      swap1\n      dup2\n      mul\n      swap2\n      swap1\n      swap2\n      add\n      add\n        /* \"contracts/sikkacoin.sol\":7945:7995  positionIds[i] = users[_user].stakes[i].positionId */\n      mstore\n        /* \"contracts/sikkacoin.sol\":7925:7928  i++ */\n      dup1\n      tag_173\n      dup2\n      tag_138\n      jump\t// in\n    tag_173:\n      swap2\n      pop\n      pop\n        /* \"contracts/sikkacoin.sol\":7889:8007  for (uint256 i = 0; i < stakeCount; i++) {\r... */\n      jump(tag_167)\n    tag_168:\n      pop\n        /* \"contracts/sikkacoin.sol\":8024:8035  positionIds */\n      swap4\n        /* \"contracts/sikkacoin.sol\":7673:8043  function getPositionIds(address _user) external view returns (uint256[] memory) {\r... */\n      swap3\n      pop\n      pop\n      pop\n      jump\t// out\n        /* \"contracts/sikkacoin.sol\":8945:9130  function withdraw(uint256 amount) external {\r... */\n    tag_54:\n        /* \"contracts/sikkacoin.sol\":9021:9026  owner */\n      and(sub(shl(0xa0, 0x01), 0x01), sload(0x00))\n        /* \"contracts/sikkacoin.sol\":9007:9017  msg.sender */\n      caller\n        /* \"contracts/sikkacoin.sol\":9007:9026  msg.sender == owner */\n      eq\n        /* \"contracts/sikkacoin.sol\":8999:9054  require(msg.sender == owner, \"Only owner can withdraw\") */\n      tag_175\n      jumpi\n      mload(0x40)\n      shl(0xe5, 0x461bcd)\n      dup2\n      mstore\n      0x04\n      add\n      tag_132\n      swap1\n      tag_177\n      jump\t// in\n    tag_175:\n        /* \"contracts/sikkacoin.sol\":9073:9078  token */\n      sload(0x01)\n      0x00\n        /* \"contracts/sikkacoin.sol\":9088:9093  owner */\n      sload\n        /* \"contracts/sikkacoin.sol\":9073:9102  token.transfer(owner, amount) */\n      mload(0x40)\n      shl(0xe0, 0xa9059cbb)\n      dup2\n      mstore\n      sub(shl(0xa0, 0x01), 0x01)\n        /* \"contracts/sikkacoin.sol\":9073:9078  token */\n      swap3\n      dup4\n      and\n      swap3\n        /* \"contracts/sikkacoin.sol\":9073:9087  token.transfer */\n      0xa9059cbb\n      swap3\n        /* \"contracts/sikkacoin.sol\":9073:9102  token.transfer(owner, amount) */\n      tag_178\n      swap3\n        /* \"contracts/sikkacoin.sol\":9088:9093  owner */\n      swap2\n      and\n      swap1\n        /* \"contracts/sikkacoin.sol\":9095:9101  amount */\n      dup6\n      swap1\n        /* \"contracts/sikkacoin.sol\":9073:9102  token.transfer(owner, amount) */\n      0x04\n      add\n      tag_179\n      jump\t// in\n    tag_178:\n      0x20\n      mload(0x40)\n      dup1\n      dup4\n      sub\n      dup2\n      0x00\n      dup8\n      dup1\n      extcodesize\n      iszero\n      dup1\n      iszero\n      tag_180\n      jumpi\n      0x00\n      dup1\n      revert\n    tag_180:\n      pop\n      gas\n      call\n      iszero\n      dup1\n      iszero\n      tag_182\n      jumpi\n      returndatasize\n      0x00\n      dup1\n      returndatacopy\n      revert(0x00, returndatasize)\n    tag_182:\n      pop\n      pop\n      pop\n      pop\n      mload(0x40)\n      returndatasize\n      not(0x1f)\n      0x1f\n      dup3\n      add\n      and\n      dup3\n      add\n      dup1\n      0x40\n      mstore\n      pop\n      dup2\n      add\n      swap1\n      tag_183\n      swap2\n      swap1\n      tag_184\n      jump\t// in\n    tag_183:\n        /* \"contracts/sikkacoin.sol\":9065:9122  require(token.transfer(owner, amount), \"Withdraw failed\") */\n      tag_185\n      jumpi\n      mload(0x40)\n      shl(0xe5, 0x461bcd)\n      dup2\n      mstore\n      0x04\n      add\n      tag_132\n      swap1\n      tag_187\n      jump\t// in\n    tag_185:\n        /* \"contracts/sikkacoin.sol\":8945:9130  function withdraw(uint256 amount) external {\r... */\n      pop\n      jump\t// out\n        /* \"contracts/sikkacoin.sol\":4476:5699  function claim(uint256 _positionId) external onlyRegistered {\r... */\n    tag_57:\n        /* \"contracts/sikkacoin.sol\":2207:2217  msg.sender */\n      caller\n        /* \"contracts/sikkacoin.sol\":2201:2218  users[msg.sender] */\n      0x00\n      swap1\n      dup2\n      mstore\n        /* \"contracts/sikkacoin.sol\":2201:2206  users */\n      0x02\n        /* \"contracts/sikkacoin.sol\":2201:2218  users[msg.sender] */\n      0x20\n      mstore\n      0x40\n      swap1\n      keccak256\n        /* \"contracts/sikkacoin.sol\":2201:2229  users[msg.sender].registered */\n      sload\n      shl(0xa0, 0x01)\n      swap1\n      div\n      0xff\n      and\n        /* \"contracts/sikkacoin.sol\":2193:2253  require(users[msg.sender].registered, \"User not registered\") */\n      tag_189\n      jumpi\n      mload(0x40)\n      shl(0xe5, 0x461bcd)\n      dup2\n      mstore\n      0x04\n      add\n      tag_132\n      swap1\n      tag_133\n      jump\t// in\n    tag_189:\n        /* \"contracts/sikkacoin.sol\":4547:4563  address userAddr */\n      0x00\n        /* \"contracts/sikkacoin.sol\":4566:4595  positionIdToUser[_positionId] */\n      dup2\n      dup2\n      mstore\n        /* \"contracts/sikkacoin.sol\":4566:4582  positionIdToUser */\n      0x03\n        /* \"contracts/sikkacoin.sol\":4566:4595  positionIdToUser[_positionId] */\n      0x20\n      mstore\n      0x40\n      swap1\n      keccak256\n      sload\n      sub(shl(0xa0, 0x01), 0x01)\n      and\n        /* \"contracts/sikkacoin.sol\":4626:4636  msg.sender */\n      caller\n        /* \"contracts/sikkacoin.sol\":4614:4636  userAddr == msg.sender */\n      dup2\n      eq\n        /* \"contracts/sikkacoin.sol\":4606:4655  require(userAddr == msg.sender, \"Not your stake\") */\n      tag_192\n      jumpi\n      mload(0x40)\n      shl(0xe5, 0x461bcd)\n      dup2\n      mstore\n      0x04\n      add\n      tag_132\n      swap1\n      tag_194\n      jump\t// in\n    tag_192:\n        /* \"contracts/sikkacoin.sol\":4699:4709  msg.sender */\n      caller\n        /* \"contracts/sikkacoin.sol\":4668:4690  Stake[] storage stakes */\n      0x00\n        /* \"contracts/sikkacoin.sol\":4693:4710  users[msg.sender] */\n      swap1\n      dup2\n      mstore\n        /* \"contracts/sikkacoin.sol\":4693:4698  users */\n      0x02\n        /* \"contracts/sikkacoin.sol\":4693:4710  users[msg.sender] */\n      0x20\n      mstore\n      0x40\n      dup2\n      keccak256\n        /* \"contracts/sikkacoin.sol\":4693:4717  users[msg.sender].stakes */\n      0x01\n      add\n      swap1\n        /* \"contracts/sikkacoin.sol\":4730:5633  for (uint256 i = 0; i < stakes.length; i++) {\r... */\n    tag_195:\n        /* \"contracts/sikkacoin.sol\":4754:4767  stakes.length */\n      dup2\n      sload\n        /* \"contracts/sikkacoin.sol\":4750:4767  i < stakes.length */\n      dup2\n      lt\n        /* \"contracts/sikkacoin.sol\":4730:5633  for (uint256 i = 0; i < stakes.length; i++) {\r... */\n      iszero\n      tag_196\n      jumpi\n        /* \"contracts/sikkacoin.sol\":4789:4804  Stake storage s */\n      0x00\n        /* \"contracts/sikkacoin.sol\":4807:4813  stakes */\n      dup3\n        /* \"contracts/sikkacoin.sol\":4814:4815  i */\n      dup3\n        /* \"contracts/sikkacoin.sol\":4807:4816  stakes[i] */\n      dup2\n      sload\n      dup2\n      lt\n      tag_198\n      jumpi\n      mstore(0x00, shl(0xe0, 0x4e487b71))\n      mstore(0x04, 0x32)\n      revert(0x00, 0x24)\n    tag_198:\n      swap1\n      0x00\n      mstore\n      keccak256(0x00, 0x20)\n      swap1\n      0x06\n      mul\n      add\n        /* \"contracts/sikkacoin.sol\":4789:4816  Stake storage s = stakes[i] */\n      swap1\n      pop\n        /* \"contracts/sikkacoin.sol\":4851:4862  _positionId */\n      dup5\n        /* \"contracts/sikkacoin.sol\":4835:4836  s */\n      dup2\n        /* \"contracts/sikkacoin.sol\":4835:4847  s.positionId */\n      0x02\n      add\n      sload\n        /* \"contracts/sikkacoin.sol\":4835:4862  s.positionId == _positionId */\n      eq\n        /* \"contracts/sikkacoin.sol\":4831:5622  if (s.positionId == _positionId) {\r... */\n      iszero\n      tag_200\n      jumpi\n        /* \"contracts/sikkacoin.sol\":4892:4901  s.claimed */\n      0x05\n      dup2\n      add\n      sload\n      0xff\n      and\n        /* \"contracts/sikkacoin.sol\":4891:4901  !s.claimed */\n      iszero\n        /* \"contracts/sikkacoin.sol\":4883:4921  require(!s.claimed, \"Already claimed\") */\n      tag_201\n      jumpi\n      mload(0x40)\n      shl(0xe5, 0x461bcd)\n      dup2\n      mstore\n      0x04\n      add\n      tag_132\n      swap1\n      tag_203\n      jump\t// in\n    tag_201:\n        /* \"contracts/sikkacoin.sol\":4942:4961  uint256 elapsedDays */\n      0x00\n        /* \"contracts/sikkacoin.sol\":4998:5004  1 days */\n      0x015180\n        /* \"contracts/sikkacoin.sol\":4983:4984  s */\n      dup3\n        /* \"contracts/sikkacoin.sol\":4983:4994  s.timestamp */\n      0x03\n      add\n      sload\n        /* \"contracts/sikkacoin.sol\":4965:4980  block.timestamp */\n      timestamp\n        /* \"contracts/sikkacoin.sol\":4965:4994  block.timestamp - s.timestamp */\n      tag_204\n      swap2\n      swap1\n      tag_205\n      jump\t// in\n    tag_204:\n        /* \"contracts/sikkacoin.sol\":4964:5004  (block.timestamp - s.timestamp) / 1 days */\n      tag_206\n      swap2\n      swap1\n      tag_159\n      jump\t// in\n    tag_206:\n        /* \"contracts/sikkacoin.sol\":4942:5004  uint256 elapsedDays = (block.timestamp - s.timestamp) / 1 days */\n      swap1\n      pop\n        /* \"contracts/sikkacoin.sol\":5023:5037  uint256 reward */\n      0x00\n        /* \"contracts/sikkacoin.sol\":5081:5082  s */\n      dup3\n        /* \"contracts/sikkacoin.sol\":5081:5090  s.numDays */\n      0x04\n      add\n      sload\n        /* \"contracts/sikkacoin.sol\":5066:5077  elapsedDays */\n      dup3\n        /* \"contracts/sikkacoin.sol\":5066:5090  elapsedDays >= s.numDays */\n      lt\n        /* \"contracts/sikkacoin.sol\":5062:5370  if (elapsedDays >= s.numDays) {\r... */\n      tag_207\n      jumpi\n        /* \"contracts/sikkacoin.sol\":5147:5156  s.numDays */\n      0x04\n      dup4\n      add\n      sload\n        /* \"contracts/sikkacoin.sol\":5136:5157  stakingAPY[s.numDays] */\n      0x00\n      swap1\n      dup2\n      mstore\n        /* \"contracts/sikkacoin.sol\":5136:5146  stakingAPY */\n      0x0a\n        /* \"contracts/sikkacoin.sol\":5136:5157  stakingAPY[s.numDays] */\n      0x20\n      mstore\n      0x40\n      swap1\n      keccak256\n      sload\n        /* \"contracts/sikkacoin.sol\":5125:5133  s.amount */\n      0x01\n      dup5\n      add\n      sload\n        /* \"contracts/sikkacoin.sol\":5161:5164  100 */\n      0x64\n      swap2\n        /* \"contracts/sikkacoin.sol\":5125:5157  s.amount * stakingAPY[s.numDays] */\n      tag_208\n      swap2\n      tag_156\n      jump\t// in\n    tag_208:\n        /* \"contracts/sikkacoin.sol\":5124:5164  (s.amount * stakingAPY[s.numDays]) / 100 */\n      tag_209\n      swap2\n      swap1\n      tag_159\n      jump\t// in\n    tag_209:\n        /* \"contracts/sikkacoin.sol\":5115:5164  reward = (s.amount * stakingAPY[s.numDays]) / 100 */\n      swap1\n      pop\n        /* \"contracts/sikkacoin.sol\":5062:5370  if (elapsedDays >= s.numDays) {\r... */\n      jump(tag_212)\n    tag_207:\n        /* \"contracts/sikkacoin.sol\":5208:5210  20 */\n      0x14\n        /* \"contracts/sikkacoin.sol\":5194:5205  elapsedDays */\n      dup3\n        /* \"contracts/sikkacoin.sol\":5194:5210  elapsedDays < 20 */\n      lt\n        /* \"contracts/sikkacoin.sol\":5190:5370  if (elapsedDays < 20) {\r... */\n      iszero\n      tag_211\n      jumpi\n      pop\n        /* \"contracts/sikkacoin.sol\":5244:5245  0 */\n      0x00\n        /* \"contracts/sikkacoin.sol\":5190:5370  if (elapsedDays < 20) {\r... */\n      jump(tag_212)\n    tag_211:\n        /* \"contracts/sikkacoin.sol\":5294:5350  revert(\"Cannot claim between 20 days and full duration\") */\n      mload(0x40)\n      shl(0xe5, 0x461bcd)\n      dup2\n      mstore\n      0x04\n      add\n      tag_132\n      swap1\n      tag_214\n      jump\t// in\n        /* \"contracts/sikkacoin.sol\":5190:5370  if (elapsedDays < 20) {\r... */\n    tag_212:\n        /* \"contracts/sikkacoin.sol\":5390:5399  s.claimed */\n      0x05\n      dup4\n      add\n        /* \"contracts/sikkacoin.sol\":5390:5406  s.claimed = true */\n      dup1\n      sload\n      not(0xff)\n      and\n        /* \"contracts/sikkacoin.sol\":5402:5406  true */\n      0x01\n        /* \"contracts/sikkacoin.sol\":5390:5406  s.claimed = true */\n      swap1\n      dup2\n      or\n      swap1\n      swap2\n      sstore\n        /* \"contracts/sikkacoin.sol\":5433:5438  token */\n      dup1\n      sload\n        /* \"contracts/sikkacoin.sol\":5460:5468  s.amount */\n      swap1\n      dup5\n      add\n      sload\n      sub(shl(0xa0, 0x01), 0x01)\n        /* \"contracts/sikkacoin.sol\":5433:5438  token */\n      swap1\n      swap2\n      and\n      swap1\n        /* \"contracts/sikkacoin.sol\":5433:5447  token.transfer */\n      0xa9059cbb\n      swap1\n        /* \"contracts/sikkacoin.sol\":5448:5458  msg.sender */\n      caller\n      swap1\n        /* \"contracts/sikkacoin.sol\":5460:5477  s.amount + reward */\n      tag_215\n      swap1\n        /* \"contracts/sikkacoin.sol\":5471:5477  reward */\n      dup6\n      swap1\n        /* \"contracts/sikkacoin.sol\":5460:5477  s.amount + reward */\n      tag_216\n      jump\t// in\n    tag_215:\n        /* \"contracts/sikkacoin.sol\":5433:5478  token.transfer(msg.sender, s.amount + reward) */\n      mload(0x40)\n      dup4\n      0xffffffff\n      and\n      0xe0\n      shl\n      dup2\n      mstore\n      0x04\n      add\n      tag_217\n      swap3\n      swap2\n      swap1\n      tag_179\n      jump\t// in\n    tag_217:\n      0x20\n      mload(0x40)\n      dup1\n      dup4\n      sub\n      dup2\n      0x00\n      dup8\n      dup1\n      extcodesize\n      iszero\n      dup1\n      iszero\n      tag_218\n      jumpi\n      0x00\n      dup1\n      revert\n    tag_218:\n      pop\n      gas\n      call\n      iszero\n      dup1\n      iszero\n      tag_220\n      jumpi\n      returndatasize\n      0x00\n      dup1\n      returndatacopy\n      revert(0x00, returndatasize)\n    tag_220:\n      pop\n      pop\n      pop\n      pop\n      mload(0x40)\n      returndatasize\n      not(0x1f)\n      0x1f\n      dup3\n      add\n      and\n      dup3\n      add\n      dup1\n      0x40\n      mstore\n      pop\n      dup2\n      add\n      swap1\n      tag_221\n      swap2\n      swap1\n      tag_184\n      jump\t// in\n    tag_221:\n        /* \"contracts/sikkacoin.sol\":5425:5504  require(token.transfer(msg.sender, s.amount + reward), \"Token transfer failed\") */\n      tag_222\n      jumpi\n      mload(0x40)\n      shl(0xe5, 0x461bcd)\n      dup2\n      mstore\n      0x04\n      add\n      tag_132\n      swap1\n      tag_224\n      jump\t// in\n    tag_222:\n        /* \"contracts/sikkacoin.sol\":5550:5551  s */\n      dup3\n        /* \"contracts/sikkacoin.sol\":5550:5562  s.positionId */\n      0x02\n      add\n      sload\n        /* \"contracts/sikkacoin.sol\":5538:5548  msg.sender */\n      caller\n      sub(shl(0xa0, 0x01), 0x01)\n        /* \"contracts/sikkacoin.sol\":5530:5581  Claimed(msg.sender, s.positionId, s.amount, reward) */\n      and\n      0x9cdcf2f7714cca3508c7f0110b04a90a80a3a8dd0e35de99689db74d28c5383e\n        /* \"contracts/sikkacoin.sol\":5564:5565  s */\n      dup6\n        /* \"contracts/sikkacoin.sol\":5564:5572  s.amount */\n      0x01\n      add\n      sload\n        /* \"contracts/sikkacoin.sol\":5574:5580  reward */\n      dup5\n        /* \"contracts/sikkacoin.sol\":5530:5581  Claimed(msg.sender, s.positionId, s.amount, reward) */\n      mload(0x40)\n      tag_225\n      swap3\n      swap2\n      swap1\n      tag_226\n      jump\t// in\n    tag_225:\n      mload(0x40)\n      dup1\n      swap2\n      sub\n      swap1\n      log3\n        /* \"contracts/sikkacoin.sol\":5600:5607  return; */\n      pop\n      pop\n      pop\n      pop\n      pop\n      pop\n      jump(tag_185)\n        /* \"contracts/sikkacoin.sol\":4831:5622  if (s.positionId == _positionId) {\r... */\n    tag_200:\n      pop\n        /* \"contracts/sikkacoin.sol\":4769:4772  i++ */\n      dup1\n      tag_227\n      dup2\n      tag_138\n      jump\t// in\n    tag_227:\n      swap2\n      pop\n      pop\n        /* \"contracts/sikkacoin.sol\":4730:5633  for (uint256 i = 0; i < stakes.length; i++) {\r... */\n      jump(tag_195)\n    tag_196:\n      pop\n        /* \"contracts/sikkacoin.sol\":5645:5691  revert(\"Stake not found for given positionId\") */\n      mload(0x40)\n      shl(0xe5, 0x461bcd)\n      dup2\n      mstore\n      0x04\n      add\n      tag_132\n      swap1\n      tag_229\n      jump\t// in\n        /* \"contracts/sikkacoin.sol\":2281:2739  function register(address _referrer) external {\r... */\n    tag_60:\n        /* \"contracts/sikkacoin.sol\":2353:2363  msg.sender */\n      caller\n        /* \"contracts/sikkacoin.sol\":2347:2364  users[msg.sender] */\n      0x00\n      swap1\n      dup2\n      mstore\n        /* \"contracts/sikkacoin.sol\":2347:2352  users */\n      0x02\n        /* \"contracts/sikkacoin.sol\":2347:2364  users[msg.sender] */\n      0x20\n      mstore\n      0x40\n      swap1\n      keccak256\n        /* \"contracts/sikkacoin.sol\":2347:2375  users[msg.sender].registered */\n      sload\n      shl(0xa0, 0x01)\n      swap1\n      div\n      0xff\n      and\n        /* \"contracts/sikkacoin.sol\":2346:2375  !users[msg.sender].registered */\n      iszero\n        /* \"contracts/sikkacoin.sol\":2338:2398  require(!users[msg.sender].registered, \"Already registered\") */\n      tag_231\n      jumpi\n      mload(0x40)\n      shl(0xe5, 0x461bcd)\n      dup2\n      mstore\n      0x04\n      add\n      tag_132\n      swap1\n      tag_233\n      jump\t// in\n    tag_231:\n      sub(shl(0xa0, 0x01), 0x01)\n        /* \"contracts/sikkacoin.sol\":2417:2440  _referrer != msg.sender */\n      dup2\n      and\n        /* \"contracts/sikkacoin.sol\":2430:2440  msg.sender */\n      caller\n        /* \"contracts/sikkacoin.sol\":2417:2440  _referrer != msg.sender */\n      eq\n      iszero\n        /* \"contracts/sikkacoin.sol\":2409:2466  require(_referrer != msg.sender, \"Cannot refer yourself\") */\n      tag_234\n      jumpi\n      mload(0x40)\n      shl(0xe5, 0x461bcd)\n      dup2\n      mstore\n      0x04\n      add\n      tag_132\n      swap1\n      tag_236\n      jump\t// in\n    tag_234:\n      sub(shl(0xa0, 0x01), 0x01)\n        /* \"contracts/sikkacoin.sol\":2485:2501  users[_referrer] */\n      dup2\n      and\n      0x00\n      swap1\n      dup2\n      mstore\n        /* \"contracts/sikkacoin.sol\":2485:2490  users */\n      0x02\n        /* \"contracts/sikkacoin.sol\":2485:2501  users[_referrer] */\n      0x20\n      mstore\n      0x40\n      swap1\n      keccak256\n        /* \"contracts/sikkacoin.sol\":2485:2512  users[_referrer].registered */\n      sload\n      shl(0xa0, 0x01)\n      swap1\n      div\n      0xff\n      and\n        /* \"contracts/sikkacoin.sol\":2477:2540  require(users[_referrer].registered, \"Referrer not registered\") */\n      tag_237\n      jumpi\n      mload(0x40)\n      shl(0xe5, 0x461bcd)\n      dup2\n      mstore\n      0x04\n      add\n      tag_132\n      swap1\n      tag_239\n      jump\t// in\n    tag_237:\n        /* \"contracts/sikkacoin.sol\":2559:2569  msg.sender */\n      caller\n        /* \"contracts/sikkacoin.sol\":2553:2570  users[msg.sender] */\n      0x00\n      swap1\n      dup2\n      mstore\n        /* \"contracts/sikkacoin.sol\":2553:2558  users */\n      0x02\n        /* \"contracts/sikkacoin.sol\":2553:2570  users[msg.sender] */\n      0x20\n      swap1\n      dup2\n      mstore\n      0x40\n      dup1\n      dup4\n      keccak256\n        /* \"contracts/sikkacoin.sol\":2553:2591  users[msg.sender].referrer = _referrer */\n      dup1\n      sload\n      not(shl(0xa0, 0xff))\n      sub(shl(0xa0, 0x01), 0x01)\n      dup8\n      and\n      not(sub(shl(0xa0, 0x01), 0x01))\n      swap1\n      swap3\n      and\n      dup3\n      or\n        /* \"contracts/sikkacoin.sol\":2602:2637  users[msg.sender].registered = true */\n      and\n      shl(0xa0, 0x01)\n      or\n      swap1\n      swap2\n      sstore\n        /* \"contracts/sikkacoin.sol\":2648:2678  directReferralCount[_referrer] */\n      dup4\n      mstore\n        /* \"contracts/sikkacoin.sol\":2648:2667  directReferralCount */\n      0x07\n        /* \"contracts/sikkacoin.sol\":2648:2678  directReferralCount[_referrer] */\n      swap1\n      swap2\n      mstore\n      dup2\n      keccak256\n        /* \"contracts/sikkacoin.sol\":2648:2680  directReferralCount[_referrer]++ */\n      dup1\n      sload\n      swap2\n      tag_240\n      dup4\n      tag_138\n      jump\t// in\n    tag_240:\n      swap1\n      swap2\n      sstore\n      pop\n      pop\n        /* \"contracts/sikkacoin.sol\":2698:2731  Registered(msg.sender, _referrer) */\n      mload(0x40)\n      sub(shl(0xa0, 0x01), 0x01)\n      dup3\n      and\n      swap1\n        /* \"contracts/sikkacoin.sol\":2709:2719  msg.sender */\n      caller\n      swap1\n        /* \"contracts/sikkacoin.sol\":2698:2731  Registered(msg.sender, _referrer) */\n      0x0a31ee9d46a828884b81003c8498156ea6aa15b9b54bdd0ef0b533d9eba57e55\n      swap1\n      0x00\n      swap1\n      log3\n        /* \"contracts/sikkacoin.sol\":2281:2739  function register(address _referrer) external {\r... */\n      pop\n      jump\t// out\n        /* \"contracts/sikkacoin.sol\":1104:1130  uint256 public nextStakeId */\n    tag_62:\n      sload(0x05)\n      dup2\n      jump\t// out\n        /* \"contracts/sikkacoin.sol\":6936:7665  function getStakeByPositionId(uint256 _positionId) external view returns (\r... */\n    tag_66:\n        /* \"contracts/sikkacoin.sol\":7020:7032  address user */\n      0x00\n        /* \"contracts/sikkacoin.sol\":7198:7227  positionIdToUser[_positionId] */\n      dup2\n      dup2\n      mstore\n        /* \"contracts/sikkacoin.sol\":7198:7214  positionIdToUser */\n      0x03\n        /* \"contracts/sikkacoin.sol\":7198:7227  positionIdToUser[_positionId] */\n      0x20\n      mstore\n      0x40\n      dup2\n      keccak256\n      sload\n        /* \"contracts/sikkacoin.sol\":7020:7032  address user */\n      dup2\n      swap1\n      dup2\n      swap1\n      dup2\n      swap1\n      dup2\n      swap1\n      dup2\n      swap1\n      sub(shl(0xa0, 0x01), 0x01)\n        /* \"contracts/sikkacoin.sol\":7198:7227  positionIdToUser[_positionId] */\n      and\n        /* \"contracts/sikkacoin.sol\":7246:7268  userAddr != address(0) */\n      dup1\n        /* \"contracts/sikkacoin.sol\":7238:7291  require(userAddr != address(0), \"Invalid positionId\") */\n      tag_242\n      jumpi\n      mload(0x40)\n      shl(0xe5, 0x461bcd)\n      dup2\n      mstore\n      0x04\n      add\n      tag_132\n      swap1\n      tag_144\n      jump\t// in\n    tag_242:\n      sub(shl(0xa0, 0x01), 0x01)\n        /* \"contracts/sikkacoin.sol\":7328:7343  users[userAddr] */\n      dup2\n      and\n        /* \"contracts/sikkacoin.sol\":7304:7325  Stake[] memory stakes */\n      0x00\n        /* \"contracts/sikkacoin.sol\":7328:7343  users[userAddr] */\n      swap1\n      dup2\n      mstore\n        /* \"contracts/sikkacoin.sol\":7328:7333  users */\n      0x02\n        /* \"contracts/sikkacoin.sol\":7328:7343  users[userAddr] */\n      0x20\n      swap1\n      dup2\n      mstore\n      0x40\n      dup1\n      dup4\n      keccak256\n        /* \"contracts/sikkacoin.sol\":7328:7350  users[userAddr].stakes */\n      0x01\n      add\n        /* \"contracts/sikkacoin.sol\":7304:7350  Stake[] memory stakes = users[userAddr].stakes */\n      dup1\n      sload\n      dup3\n      mload\n      dup2\n      dup6\n      mul\n      dup2\n      add\n      dup6\n      add\n      swap1\n      swap4\n      mstore\n      dup1\n      dup4\n      mstore\n      swap2\n      swap3\n        /* \"contracts/sikkacoin.sol\":7328:7350  users[userAddr].stakes */\n      swap1\n      swap2\n        /* \"contracts/sikkacoin.sol\":7304:7350  Stake[] memory stakes = users[userAddr].stakes */\n      swap1\n        /* \"contracts/sikkacoin.sol\":7304:7325  Stake[] memory stakes */\n      dup5\n      swap1\n        /* \"contracts/sikkacoin.sol\":7304:7350  Stake[] memory stakes = users[userAddr].stakes */\n      dup5\n      add\n    tag_244:\n      dup3\n      dup3\n      lt\n      iszero\n      tag_245\n      jumpi\n      0x00\n      dup5\n      dup2\n      mstore\n      0x20\n      swap1\n      dup2\n      swap1\n      keccak256\n      0x40\n      dup1\n      mload\n      0xc0\n      dup2\n      add\n      dup3\n      mstore\n      0x06\n      dup7\n      mul\n      swap1\n      swap3\n      add\n      dup1\n      sload\n      dup4\n      mstore\n      0x01\n      dup1\n      dup3\n      add\n      sload\n      dup5\n      dup7\n      add\n      mstore\n      0x02\n      dup3\n      add\n      sload\n      swap3\n      dup5\n      add\n      swap3\n      swap1\n      swap3\n      mstore\n      0x03\n      dup2\n      add\n      sload\n      0x60\n      dup5\n      add\n      mstore\n      0x04\n      dup2\n      add\n      sload\n      0x80\n      dup5\n      add\n      mstore\n      0x05\n      add\n      sload\n      0xff\n      and\n      iszero\n      iszero\n      0xa0\n      dup4\n      add\n      mstore\n      swap1\n      dup4\n      mstore\n      swap1\n      swap3\n      add\n      swap2\n      add\n      jump(tag_244)\n    tag_245:\n      pop\n      pop\n      pop\n      pop\n      swap1\n      pop\n        /* \"contracts/sikkacoin.sol\":7366:7375  uint256 i */\n      0x00\n        /* \"contracts/sikkacoin.sol\":7361:7620  for (uint256 i = 0; i < stakes.length; i++) {\r... */\n    tag_247:\n        /* \"contracts/sikkacoin.sol\":7385:7391  stakes */\n      dup2\n        /* \"contracts/sikkacoin.sol\":7385:7398  stakes.length */\n      mload\n        /* \"contracts/sikkacoin.sol\":7381:7382  i */\n      dup2\n        /* \"contracts/sikkacoin.sol\":7381:7398  i < stakes.length */\n      lt\n        /* \"contracts/sikkacoin.sol\":7361:7620  for (uint256 i = 0; i < stakes.length; i++) {\r... */\n      iszero\n      tag_149\n      jumpi\n        /* \"contracts/sikkacoin.sol\":7448:7459  _positionId */\n      dup10\n        /* \"contracts/sikkacoin.sol\":7424:7430  stakes */\n      dup3\n        /* \"contracts/sikkacoin.sol\":7431:7432  i */\n      dup3\n        /* \"contracts/sikkacoin.sol\":7424:7433  stakes[i] */\n      dup2\n      mload\n      dup2\n      lt\n      tag_250\n      jumpi\n      mstore(0x00, shl(0xe0, 0x4e487b71))\n      mstore(0x04, 0x32)\n      revert(0x00, 0x24)\n    tag_250:\n      0x20\n      mul\n      0x20\n      add\n      add\n      mload\n        /* \"contracts/sikkacoin.sol\":7424:7444  stakes[i].positionId */\n      0x40\n      add\n      mload\n        /* \"contracts/sikkacoin.sol\":7424:7459  stakes[i].positionId == _positionId */\n      eq\n        /* \"contracts/sikkacoin.sol\":7420:7609  if (stakes[i].positionId == _positionId) {\r... */\n      iszero\n      tag_251\n      jumpi\n        /* \"contracts/sikkacoin.sol\":7488:7496  userAddr */\n      dup3\n        /* \"contracts/sikkacoin.sol\":7498:7504  stakes */\n      dup3\n        /* \"contracts/sikkacoin.sol\":7505:7506  i */\n      dup3\n        /* \"contracts/sikkacoin.sol\":7498:7507  stakes[i] */\n      dup2\n      mload\n      dup2\n      lt\n      tag_252\n      jumpi\n      mstore(0x00, shl(0xe0, 0x4e487b71))\n      mstore(0x04, 0x32)\n      revert(0x00, 0x24)\n    tag_252:\n      0x20\n      mul\n      0x20\n      add\n      add\n      mload\n        /* \"contracts/sikkacoin.sol\":7498:7515  stakes[i].stakeId */\n      0x00\n      add\n      mload\n        /* \"contracts/sikkacoin.sol\":7517:7523  stakes */\n      dup4\n        /* \"contracts/sikkacoin.sol\":7524:7525  i */\n      dup4\n        /* \"contracts/sikkacoin.sol\":7517:7526  stakes[i] */\n      dup2\n      mload\n      dup2\n      lt\n      tag_253\n      jumpi\n      mstore(0x00, shl(0xe0, 0x4e487b71))\n      mstore(0x04, 0x32)\n      revert(0x00, 0x24)\n    tag_253:\n      0x20\n      mul\n      0x20\n      add\n      add\n      mload\n        /* \"contracts/sikkacoin.sol\":7517:7533  stakes[i].amount */\n      0x20\n      add\n      mload\n        /* \"contracts/sikkacoin.sol\":7535:7541  stakes */\n      dup5\n        /* \"contracts/sikkacoin.sol\":7542:7543  i */\n      dup5\n        /* \"contracts/sikkacoin.sol\":7535:7544  stakes[i] */\n      dup2\n      mload\n      dup2\n      lt\n      tag_254\n      jumpi\n      mstore(0x00, shl(0xe0, 0x4e487b71))\n      mstore(0x04, 0x32)\n      revert(0x00, 0x24)\n    tag_254:\n      0x20\n      mul\n      0x20\n      add\n      add\n      mload\n        /* \"contracts/sikkacoin.sol\":7535:7554  stakes[i].timestamp */\n      0x60\n      add\n      mload\n        /* \"contracts/sikkacoin.sol\":7556:7562  stakes */\n      dup6\n        /* \"contracts/sikkacoin.sol\":7563:7564  i */\n      dup6\n        /* \"contracts/sikkacoin.sol\":7556:7565  stakes[i] */\n      dup2\n      mload\n      dup2\n      lt\n      tag_255\n      jumpi\n      mstore(0x00, shl(0xe0, 0x4e487b71))\n      mstore(0x04, 0x32)\n      revert(0x00, 0x24)\n    tag_255:\n      0x20\n      mul\n      0x20\n      add\n      add\n      mload\n        /* \"contracts/sikkacoin.sol\":7556:7573  stakes[i].numDays */\n      0x80\n      add\n      mload\n        /* \"contracts/sikkacoin.sol\":7575:7581  stakes */\n      dup7\n        /* \"contracts/sikkacoin.sol\":7582:7583  i */\n      dup7\n        /* \"contracts/sikkacoin.sol\":7575:7584  stakes[i] */\n      dup2\n      mload\n      dup2\n      lt\n      tag_256\n      jumpi\n      mstore(0x00, shl(0xe0, 0x4e487b71))\n      mstore(0x04, 0x32)\n      revert(0x00, 0x24)\n    tag_256:\n      0x20\n      mul\n      0x20\n      add\n      add\n      mload\n        /* \"contracts/sikkacoin.sol\":7575:7592  stakes[i].claimed */\n      0xa0\n      add\n      mload\n        /* \"contracts/sikkacoin.sol\":7480:7593  return (userAddr, stakes[i].stakeId, stakes[i].amount, stakes[i].timestamp, stakes[i].numDays, stakes[i].claimed) */\n      swap9\n      pop\n      swap9\n      pop\n      swap9\n      pop\n      swap9\n      pop\n      swap9\n      pop\n      swap9\n      pop\n      pop\n      pop\n      pop\n      jump(tag_241)\n        /* \"contracts/sikkacoin.sol\":7420:7609  if (stakes[i].positionId == _positionId) {\r... */\n    tag_251:\n        /* \"contracts/sikkacoin.sol\":7400:7403  i++ */\n      dup1\n      tag_257\n      dup2\n      tag_138\n      jump\t// in\n    tag_257:\n      swap2\n      pop\n      pop\n        /* \"contracts/sikkacoin.sol\":7361:7620  for (uint256 i = 0; i < stakes.length; i++) {\r... */\n      jump(tag_247)\n        /* \"contracts/sikkacoin.sol\":6936:7665  function getStakeByPositionId(uint256 _positionId) external view returns (\r... */\n    tag_241:\n      swap2\n      swap4\n      swap6\n      pop\n      swap2\n      swap4\n      swap6\n      jump\t// out\n        /* \"contracts/sikkacoin.sol\":2747:4112  function stake(uint256 numDays, uint256 amount) external onlyRegistered {\r... */\n    tag_72:\n        /* \"contracts/sikkacoin.sol\":2207:2217  msg.sender */\n      caller\n        /* \"contracts/sikkacoin.sol\":2201:2218  users[msg.sender] */\n      0x00\n      swap1\n      dup2\n      mstore\n        /* \"contracts/sikkacoin.sol\":2201:2206  users */\n      0x02\n        /* \"contracts/sikkacoin.sol\":2201:2218  users[msg.sender] */\n      0x20\n      mstore\n      0x40\n      swap1\n      keccak256\n        /* \"contracts/sikkacoin.sol\":2201:2229  users[msg.sender].registered */\n      sload\n      shl(0xa0, 0x01)\n      swap1\n      div\n      0xff\n      and\n        /* \"contracts/sikkacoin.sol\":2193:2253  require(users[msg.sender].registered, \"User not registered\") */\n      tag_260\n      jumpi\n      mload(0x40)\n      shl(0xe5, 0x461bcd)\n      dup2\n      mstore\n      0x04\n      add\n      tag_132\n      swap1\n      tag_133\n      jump\t// in\n    tag_260:\n        /* \"contracts/sikkacoin.sol\":2847:2848  0 */\n      0x00\n        /* \"contracts/sikkacoin.sol\":2838:2844  amount */\n      dup2\n        /* \"contracts/sikkacoin.sol\":2838:2848  amount > 0 */\n      gt\n        /* \"contracts/sikkacoin.sol\":2830:2882  require(amount > 0, \"Amount must be greater than 0\") */\n      tag_263\n      jumpi\n      mload(0x40)\n      shl(0xe5, 0x461bcd)\n      dup2\n      mstore\n      0x04\n      add\n      tag_132\n      swap1\n      tag_265\n      jump\t// in\n    tag_263:\n        /* \"contracts/sikkacoin.sol\":2923:2924  0 */\n      0x00\n        /* \"contracts/sikkacoin.sol\":2901:2920  stakingAPY[numDays] */\n      dup3\n      dup2\n      mstore\n        /* \"contracts/sikkacoin.sol\":2901:2911  stakingAPY */\n      0x0a\n        /* \"contracts/sikkacoin.sol\":2901:2920  stakingAPY[numDays] */\n      0x20\n      mstore\n      0x40\n      swap1\n      keccak256\n      sload\n        /* \"contracts/sikkacoin.sol\":2893:2953  require(stakingAPY[numDays] > 0, \"Invalid staking duration\") */\n      tag_266\n      jumpi\n      mload(0x40)\n      shl(0xe5, 0x461bcd)\n      dup2\n      mstore\n      0x04\n      add\n      tag_132\n      swap1\n      tag_268\n      jump\t// in\n    tag_266:\n        /* \"contracts/sikkacoin.sol\":2974:2979  token */\n      sload(0x01)\n        /* \"contracts/sikkacoin.sol\":2974:3027  token.transferFrom(msg.sender, address(this), amount) */\n      mload(0x40)\n      shl(0xe0, 0x23b872dd)\n      dup2\n      mstore\n      sub(shl(0xa0, 0x01), 0x01)\n        /* \"contracts/sikkacoin.sol\":2974:2979  token */\n      swap1\n      swap2\n      and\n      swap1\n        /* \"contracts/sikkacoin.sol\":2974:2992  token.transferFrom */\n      0x23b872dd\n      swap1\n        /* \"contracts/sikkacoin.sol\":2974:3027  token.transferFrom(msg.sender, address(this), amount) */\n      tag_269\n      swap1\n        /* \"contracts/sikkacoin.sol\":2993:3003  msg.sender */\n      caller\n      swap1\n        /* \"contracts/sikkacoin.sol\":3013:3017  this */\n      address\n      swap1\n        /* \"contracts/sikkacoin.sol\":3020:3026  amount */\n      dup7\n      swap1\n        /* \"contracts/sikkacoin.sol\":2974:3027  token.transferFrom(msg.sender, address(this), amount) */\n      0x04\n      add\n      tag_270\n      jump\t// in\n    tag_269:\n      0x20\n      mload(0x40)\n      dup1\n      dup4\n      sub\n      dup2\n      0x00\n      dup8\n      dup1\n      extcodesize\n      iszero\n      dup1\n      iszero\n      tag_271\n      jumpi\n      0x00\n      dup1\n      revert\n    tag_271:\n      pop\n      gas\n      call\n      iszero\n      dup1\n      iszero\n      tag_273\n      jumpi\n      returndatasize\n      0x00\n      dup1\n      returndatacopy\n      revert(0x00, returndatasize)\n    tag_273:\n      pop\n      pop\n      pop\n      pop\n      mload(0x40)\n      returndatasize\n      not(0x1f)\n      0x1f\n      dup3\n      add\n      and\n      dup3\n      add\n      dup1\n      0x40\n      mstore\n      pop\n      dup2\n      add\n      swap1\n      tag_274\n      swap2\n      swap1\n      tag_184\n      jump\t// in\n    tag_274:\n        /* \"contracts/sikkacoin.sol\":2966:3053  require(token.transferFrom(msg.sender, address(this), amount), \"Token transfer failed\") */\n      tag_275\n      jumpi\n      mload(0x40)\n      shl(0xe5, 0x461bcd)\n      dup2\n      mstore\n      0x04\n      add\n      tag_132\n      swap1\n      tag_224\n      jump\t// in\n    tag_275:\n        /* \"contracts/sikkacoin.sol\":3084:3095  nextStakeId */\n      0x05\n        /* \"contracts/sikkacoin.sol\":3084:3097  nextStakeId++ */\n      dup1\n      sload\n        /* \"contracts/sikkacoin.sol\":3066:3081  uint256 stakeId */\n      0x00\n      swap2\n      dup3\n        /* \"contracts/sikkacoin.sol\":3084:3097  nextStakeId++ */\n      tag_277\n      dup4\n      tag_138\n      jump\t// in\n    tag_277:\n      swap1\n      swap2\n      sstore\n      pop\n        /* \"contracts/sikkacoin.sol\":3129:3143  nextPositionId */\n      0x06\n        /* \"contracts/sikkacoin.sol\":3129:3145  nextPositionId++ */\n      dup1\n      sload\n        /* \"contracts/sikkacoin.sol\":3066:3097  uint256 stakeId = nextStakeId++ */\n      swap2\n      swap3\n      pop\n        /* \"contracts/sikkacoin.sol\":3108:3126  uint256 positionId */\n      0x00\n      swap2\n        /* \"contracts/sikkacoin.sol\":3129:3145  nextPositionId++ */\n      swap1\n        /* \"contracts/sikkacoin.sol\":3108:3126  uint256 positionId */\n      dup3\n        /* \"contracts/sikkacoin.sol\":3129:3145  nextPositionId++ */\n      tag_278\n      dup4\n      tag_138\n      jump\t// in\n    tag_278:\n      swap2\n      swap1\n      pop\n      sstore\n        /* \"contracts/sikkacoin.sol\":3108:3145  uint256 positionId = nextPositionId++ */\n      swap1\n      pop\n        /* \"contracts/sikkacoin.sol\":3156:3173  uint256 timestamp */\n      0x00\n        /* \"contracts/sikkacoin.sol\":3176:3191  block.timestamp */\n      timestamp\n        /* \"contracts/sikkacoin.sol\":3156:3191  uint256 timestamp = block.timestamp */\n      swap1\n      pop\n        /* \"contracts/sikkacoin.sol\":3204:3209  users */\n      0x02\n        /* \"contracts/sikkacoin.sol\":3204:3221  users[msg.sender] */\n      0x00\n        /* \"contracts/sikkacoin.sol\":3210:3220  msg.sender */\n      caller\n      sub(shl(0xa0, 0x01), 0x01)\n        /* \"contracts/sikkacoin.sol\":3204:3221  users[msg.sender] */\n      and\n      sub(shl(0xa0, 0x01), 0x01)\n      and\n      dup2\n      mstore\n      0x20\n      add\n      swap1\n      dup2\n      mstore\n      0x20\n      add\n      0x00\n      keccak256\n        /* \"contracts/sikkacoin.sol\":3204:3228  users[msg.sender].stakes */\n      0x01\n      add\n        /* \"contracts/sikkacoin.sol\":3234:3444  Stake({\r... */\n      mload(0x40)\n      dup1\n      0xc0\n      add\n      0x40\n      mstore\n      dup1\n        /* \"contracts/sikkacoin.sol\":3264:3271  stakeId */\n      dup6\n        /* \"contracts/sikkacoin.sol\":3234:3444  Stake({\r... */\n      dup2\n      mstore\n      0x20\n      add\n        /* \"contracts/sikkacoin.sol\":3294:3300  amount */\n      dup7\n        /* \"contracts/sikkacoin.sol\":3234:3444  Stake({\r... */\n      dup2\n      mstore\n      0x20\n      add\n        /* \"contracts/sikkacoin.sol\":3327:3337  positionId */\n      dup5\n        /* \"contracts/sikkacoin.sol\":3234:3444  Stake({\r... */\n      dup2\n      mstore\n      0x20\n      add\n        /* \"contracts/sikkacoin.sol\":3363:3372  timestamp */\n      dup4\n        /* \"contracts/sikkacoin.sol\":3234:3444  Stake({\r... */\n      dup2\n      mstore\n      0x20\n      add\n        /* \"contracts/sikkacoin.sol\":3396:3403  numDays */\n      dup8\n        /* \"contracts/sikkacoin.sol\":3234:3444  Stake({\r... */\n      dup2\n      mstore\n      0x20\n      add\n        /* \"contracts/sikkacoin.sol\":3427:3432  false */\n      0x00\n        /* \"contracts/sikkacoin.sol\":3234:3444  Stake({\r... */\n      iszero\n      iszero\n      dup2\n      mstore\n      pop\n        /* \"contracts/sikkacoin.sol\":3204:3445  users[msg.sender].stakes.push(Stake({\r... */\n      swap1\n      dup1\n      0x01\n      dup2\n      sload\n      add\n      dup1\n      dup3\n      sstore\n      dup1\n      swap2\n      pop\n      pop\n      0x01\n      swap1\n      sub\n      swap1\n      0x00\n      mstore\n      keccak256(0x00, 0x20)\n      swap1\n      0x06\n      mul\n      add\n      0x00\n      swap1\n      swap2\n      swap1\n      swap2\n      swap1\n      swap2\n      pop\n      0x00\n      dup3\n      add\n      mload\n      dup2\n      0x00\n      add\n      sstore\n      0x20\n      dup3\n      add\n      mload\n      dup2\n      0x01\n      add\n      sstore\n      0x40\n      dup3\n      add\n      mload\n      dup2\n      0x02\n      add\n      sstore\n      0x60\n      dup3\n      add\n      mload\n      dup2\n      0x03\n      add\n      sstore\n      0x80\n      dup3\n      add\n      mload\n      dup2\n      0x04\n      add\n      sstore\n      0xa0\n      dup3\n      add\n      mload\n      dup2\n      0x05\n      add\n      exp(0x0100, 0x00)\n      dup2\n      sload\n      dup2\n      0xff\n      mul\n      not\n      and\n      swap1\n      dup4\n      iszero\n      iszero\n      mul\n      or\n      swap1\n      sstore\n      pop\n      pop\n      pop\n        /* \"contracts/sikkacoin.sol\":3489:3499  msg.sender */\n      caller\n        /* \"contracts/sikkacoin.sol\":3458:3474  positionIdToUser */\n      0x03\n        /* \"contracts/sikkacoin.sol\":3458:3486  positionIdToUser[positionId] */\n      0x00\n        /* \"contracts/sikkacoin.sol\":3475:3485  positionId */\n      dup5\n        /* \"contracts/sikkacoin.sol\":3458:3486  positionIdToUser[positionId] */\n      dup2\n      mstore\n      0x20\n      add\n      swap1\n      dup2\n      mstore\n      0x20\n      add\n      0x00\n      keccak256\n      0x00\n        /* \"contracts/sikkacoin.sol\":3458:3499  positionIdToUser[positionId] = msg.sender */\n      0x0100\n      exp\n      dup2\n      sload\n      dup2\n      sub(shl(0xa0, 0x01), 0x01)\n      mul\n      not\n      and\n      swap1\n      dup4\n      sub(shl(0xa0, 0x01), 0x01)\n      and\n      mul\n      or\n      swap1\n      sstore\n      pop\n        /* \"contracts/sikkacoin.sol\":3512:3526  address upline */\n      0x00\n        /* \"contracts/sikkacoin.sol\":3529:3534  users */\n      0x02\n        /* \"contracts/sikkacoin.sol\":3529:3546  users[msg.sender] */\n      0x00\n        /* \"contracts/sikkacoin.sol\":3535:3545  msg.sender */\n      caller\n      sub(shl(0xa0, 0x01), 0x01)\n        /* \"contracts/sikkacoin.sol\":3529:3546  users[msg.sender] */\n      and\n      sub(shl(0xa0, 0x01), 0x01)\n      and\n      dup2\n      mstore\n      0x20\n      add\n      swap1\n      dup2\n      mstore\n      0x20\n      add\n      0x00\n      keccak256\n        /* \"contracts/sikkacoin.sol\":3529:3555  users[msg.sender].referrer */\n      0x00\n      add\n      0x00\n      swap1\n      sload\n      swap1\n      0x0100\n      exp\n      swap1\n      div\n      sub(shl(0xa0, 0x01), 0x01)\n      and\n        /* \"contracts/sikkacoin.sol\":3512:3555  address upline = users[msg.sender].referrer */\n      swap1\n      pop\n        /* \"contracts/sikkacoin.sol\":3571:3578  uint8 i */\n      0x00\n        /* \"contracts/sikkacoin.sol\":3566:4029  for (uint8 i = 0; i < levelRewards.length; i++) {\r... */\n    tag_280:\n        /* \"contracts/sikkacoin.sol\":3588:3607  levelRewards.length */\n      0x05\n        /* \"contracts/sikkacoin.sol\":3584:3585  i */\n      dup2\n        /* \"contracts/sikkacoin.sol\":3584:3607  i < levelRewards.length */\n      0xff\n      and\n      lt\n        /* \"contracts/sikkacoin.sol\":3566:4029  for (uint8 i = 0; i < levelRewards.length; i++) {\r... */\n      iszero\n      tag_281\n      jumpi\n      sub(shl(0xa0, 0x01), 0x01)\n        /* \"contracts/sikkacoin.sol\":3633:3653  upline == address(0) */\n      dup3\n      and\n        /* \"contracts/sikkacoin.sol\":3629:3660  if (upline == address(0)) break */\n      tag_283\n      jumpi\n        /* \"contracts/sikkacoin.sol\":3655:3660  break */\n      jump(tag_281)\n        /* \"contracts/sikkacoin.sol\":3629:3660  if (upline == address(0)) break */\n    tag_283:\n        /* \"contracts/sikkacoin.sol\":3677:3695  uint256 commission */\n      0x00\n        /* \"contracts/sikkacoin.sol\":3727:3730  100 */\n      0x64\n        /* \"contracts/sikkacoin.sol\":3708:3720  levelRewards */\n      0x04\n        /* \"contracts/sikkacoin.sol\":3721:3722  i */\n      dup4\n        /* \"contracts/sikkacoin.sol\":3708:3723  levelRewards[i] */\n      0xff\n      and\n      0x05\n      dup2\n      lt\n      tag_284\n      jumpi\n      mstore(0x00, shl(0xe0, 0x4e487b71))\n      mstore(0x04, 0x32)\n      revert(0x00, 0x24)\n    tag_284:\n      0x20\n      dup2\n      div\n      swap2\n      swap1\n      swap2\n      add\n      sload\n        /* \"contracts/sikkacoin.sol\":3699:3723  amount * levelRewards[i] */\n      tag_286\n      swap2\n        /* \"contracts/sikkacoin.sol\":3708:3723  levelRewards[i] */\n      0x1f\n      and\n      0x0100\n      exp\n      swap1\n      div\n      0xff\n      and\n        /* \"contracts/sikkacoin.sol\":3699:3705  amount */\n      dup10\n        /* \"contracts/sikkacoin.sol\":3699:3723  amount * levelRewards[i] */\n      tag_156\n      jump\t// in\n    tag_286:\n        /* \"contracts/sikkacoin.sol\":3698:3730  (amount * levelRewards[i]) / 100 */\n      tag_287\n      swap2\n      swap1\n      tag_159\n      jump\t// in\n    tag_287:\n        /* \"contracts/sikkacoin.sol\":3753:3758  token */\n      sload(0x01)\n        /* \"contracts/sikkacoin.sol\":3753:3787  token.transfer(upline, commission) */\n      mload(0x40)\n      shl(0xe0, 0xa9059cbb)\n      dup2\n      mstore\n        /* \"contracts/sikkacoin.sol\":3677:3730  uint256 commission = (amount * levelRewards[i]) / 100 */\n      swap2\n      swap3\n      pop\n      sub(shl(0xa0, 0x01), 0x01)\n        /* \"contracts/sikkacoin.sol\":3753:3758  token */\n      and\n      swap1\n        /* \"contracts/sikkacoin.sol\":3753:3767  token.transfer */\n      0xa9059cbb\n      swap1\n        /* \"contracts/sikkacoin.sol\":3753:3787  token.transfer(upline, commission) */\n      tag_288\n      swap1\n        /* \"contracts/sikkacoin.sol\":3768:3774  upline */\n      dup7\n      swap1\n        /* \"contracts/sikkacoin.sol\":3677:3730  uint256 commission = (amount * levelRewards[i]) / 100 */\n      dup6\n      swap1\n        /* \"contracts/sikkacoin.sol\":3753:3787  token.transfer(upline, commission) */\n      0x04\n      add\n      tag_179\n      jump\t// in\n    tag_288:\n      0x20\n      mload(0x40)\n      dup1\n      dup4\n      sub\n      dup2\n      0x00\n      dup8\n      dup1\n      extcodesize\n      iszero\n      dup1\n      iszero\n      tag_289\n      jumpi\n      0x00\n      dup1\n      revert\n    tag_289:\n      pop\n      gas\n      call\n      iszero\n      dup1\n      iszero\n      tag_291\n      jumpi\n      returndatasize\n      0x00\n      dup1\n      returndatacopy\n      revert(0x00, returndatasize)\n    tag_291:\n      pop\n      pop\n      pop\n      pop\n      mload(0x40)\n      returndatasize\n      not(0x1f)\n      0x1f\n      dup3\n      add\n      and\n      dup3\n      add\n      dup1\n      0x40\n      mstore\n      pop\n      dup2\n      add\n      swap1\n      tag_292\n      swap2\n      swap1\n      tag_184\n      jump\t// in\n    tag_292:\n        /* \"contracts/sikkacoin.sol\":3745:3816  require(token.transfer(upline, commission), \"Referral transfer failed\") */\n      tag_293\n      jumpi\n      mload(0x40)\n      shl(0xe5, 0x461bcd)\n      dup2\n      mstore\n      0x04\n      add\n      tag_132\n      swap1\n      tag_295\n      jump\t// in\n    tag_293:\n      sub(shl(0xa0, 0x01), 0x01)\n        /* \"contracts/sikkacoin.sol\":3833:3852  totalIncome[upline] */\n      dup4\n      and\n      0x00\n      swap1\n      dup2\n      mstore\n        /* \"contracts/sikkacoin.sol\":3833:3844  totalIncome */\n      0x09\n        /* \"contracts/sikkacoin.sol\":3833:3852  totalIncome[upline] */\n      0x20\n      mstore\n      0x40\n      dup2\n      keccak256\n        /* \"contracts/sikkacoin.sol\":3833:3866  totalIncome[upline] += commission */\n      dup1\n      sload\n        /* \"contracts/sikkacoin.sol\":3856:3866  commission */\n      dup4\n      swap3\n        /* \"contracts/sikkacoin.sol\":3833:3852  totalIncome[upline] */\n      swap1\n        /* \"contracts/sikkacoin.sol\":3833:3866  totalIncome[upline] += commission */\n      tag_296\n      swap1\n        /* \"contracts/sikkacoin.sol\":3856:3866  commission */\n      dup5\n      swap1\n        /* \"contracts/sikkacoin.sol\":3833:3866  totalIncome[upline] += commission */\n      tag_216\n      jump\t// in\n    tag_296:\n      swap1\n      swap2\n      sstore\n      pop\n      pop\n        /* \"contracts/sikkacoin.sol\":3885:3891  i == 0 */\n      0xff\n      dup3\n      and\n        /* \"contracts/sikkacoin.sol\":3881:3970  if (i == 0) {\r... */\n      tag_297\n      jumpi\n      sub(shl(0xa0, 0x01), 0x01)\n        /* \"contracts/sikkacoin.sol\":3912:3940  directReferralIncome[upline] */\n      dup4\n      and\n      0x00\n      swap1\n      dup2\n      mstore\n        /* \"contracts/sikkacoin.sol\":3912:3932  directReferralIncome */\n      0x08\n        /* \"contracts/sikkacoin.sol\":3912:3940  directReferralIncome[upline] */\n      0x20\n      mstore\n      0x40\n      dup2\n      keccak256\n        /* \"contracts/sikkacoin.sol\":3912:3954  directReferralIncome[upline] += commission */\n      dup1\n      sload\n        /* \"contracts/sikkacoin.sol\":3944:3954  commission */\n      dup4\n      swap3\n        /* \"contracts/sikkacoin.sol\":3912:3940  directReferralIncome[upline] */\n      swap1\n        /* \"contracts/sikkacoin.sol\":3912:3954  directReferralIncome[upline] += commission */\n      tag_298\n      swap1\n        /* \"contracts/sikkacoin.sol\":3944:3954  commission */\n      dup5\n      swap1\n        /* \"contracts/sikkacoin.sol\":3912:3954  directReferralIncome[upline] += commission */\n      tag_216\n      jump\t// in\n    tag_298:\n      swap1\n      swap2\n      sstore\n      pop\n      pop\n        /* \"contracts/sikkacoin.sol\":3881:3970  if (i == 0) {\r... */\n    tag_297:\n      pop\n      sub(shl(0xa0, 0x01), 0x01)\n        /* \"contracts/sikkacoin.sol\":3995:4008  users[upline] */\n      swap2\n      dup3\n      and\n      0x00\n      swap1\n      dup2\n      mstore\n        /* \"contracts/sikkacoin.sol\":3995:4000  users */\n      0x02\n        /* \"contracts/sikkacoin.sol\":3995:4008  users[upline] */\n      0x20\n      mstore\n      0x40\n      swap1\n      keccak256\n        /* \"contracts/sikkacoin.sol\":3995:4017  users[upline].referrer */\n      sload\n      swap1\n      swap2\n      and\n      swap1\n        /* \"contracts/sikkacoin.sol\":3609:3612  i++ */\n      dup1\n      tag_299\n      dup2\n      tag_300\n      jump\t// in\n    tag_299:\n      swap2\n      pop\n      pop\n        /* \"contracts/sikkacoin.sol\":3566:4029  for (uint8 i = 0; i < levelRewards.length; i++) {\r... */\n      jump(tag_280)\n    tag_281:\n      pop\n        /* \"contracts/sikkacoin.sol\":4074:4084  positionId */\n      dup3\n        /* \"contracts/sikkacoin.sol\":4065:4072  stakeId */\n      dup5\n        /* \"contracts/sikkacoin.sol\":4053:4063  msg.sender */\n      caller\n      sub(shl(0xa0, 0x01), 0x01)\n        /* \"contracts/sikkacoin.sol\":4046:4104  Staked(msg.sender, stakeId, positionId, amount, timestamp) */\n      and\n      0x9cfd25589d1eb8ad71e342a86a8524e83522e3936c0803048c08f6d9ad974f40\n        /* \"contracts/sikkacoin.sol\":4086:4092  amount */\n      dup9\n        /* \"contracts/sikkacoin.sol\":4094:4103  timestamp */\n      dup7\n        /* \"contracts/sikkacoin.sol\":4046:4104  Staked(msg.sender, stakeId, positionId, amount, timestamp) */\n      mload(0x40)\n      tag_301\n      swap3\n      swap2\n      swap1\n      tag_226\n      jump\t// in\n    tag_301:\n      mload(0x40)\n      dup1\n      swap2\n      sub\n      swap1\n      log4\n        /* \"contracts/sikkacoin.sol\":2264:2265  _ */\n      pop\n      pop\n      pop\n      pop\n        /* \"contracts/sikkacoin.sol\":2747:4112  function stake(uint256 numDays, uint256 amount) external onlyRegistered {\r... */\n      pop\n      pop\n      jump\t// out\n        /* \"contracts/sikkacoin.sol\":1298:1344  mapping(address => uint256) public totalIncome */\n    tag_75:\n      mstore(0x20, 0x09)\n      0x00\n      swap1\n      dup2\n      mstore\n      0x40\n      swap1\n      keccak256\n      sload\n      dup2\n      jump\t// out\n        /* \"contracts/sikkacoin.sol\":1353:1398  mapping(uint256 => uint256) public stakingAPY */\n    tag_79:\n      mstore(0x20, 0x0a)\n      0x00\n      swap1\n      dup2\n      mstore\n      0x40\n      swap1\n      keccak256\n      sload\n      dup2\n      jump\t// out\n        /* \"contracts/sikkacoin.sol\":1137:1166  uint256 public nextPositionId */\n    tag_82:\n      sload(0x06)\n      dup2\n      jump\t// out\n        /* \"contracts/sikkacoin.sol\":602:622  address public owner */\n    tag_85:\n      and(sub(shl(0xa0, 0x01), 0x01), sload(0x00))\n      dup2\n      jump\t// out\n        /* \"contracts/sikkacoin.sol\":8548:8677  function getDirectReferralCount(address user) external view returns (uint256) {\r... */\n    tag_89:\n      sub(shl(0xa0, 0x01), 0x01)\n        /* \"contracts/sikkacoin.sol\":8644:8669  directReferralCount[user] */\n      and\n        /* \"contracts/sikkacoin.sol\":8617:8624  uint256 */\n      0x00\n        /* \"contracts/sikkacoin.sol\":8644:8669  directReferralCount[user] */\n      swap1\n      dup2\n      mstore\n        /* \"contracts/sikkacoin.sol\":8644:8663  directReferralCount */\n      0x07\n        /* \"contracts/sikkacoin.sol\":8644:8669  directReferralCount[user] */\n      0x20\n      mstore\n      0x40\n      swap1\n      keccak256\n      sload\n      swap1\n        /* \"contracts/sikkacoin.sol\":8548:8677  function getDirectReferralCount(address user) external view returns (uint256) {\r... */\n      jump\t// out\n        /* \"contracts/sikkacoin.sol\":949:986  mapping(address => User) public users */\n    tag_93:\n      mstore(0x20, 0x02)\n      0x00\n      swap1\n      dup2\n      mstore\n      0x40\n      swap1\n      keccak256\n      sload\n      sub(shl(0xa0, 0x01), 0x01)\n      dup2\n      and\n      swap1\n      shl(0xa0, 0x01)\n      swap1\n      div\n      0xff\n      and\n      dup3\n      jump\t// out\n        /* \"contracts/sikkacoin.sol\":8685:8816  function getDirectReferralIncome(address user) external view returns (uint256) {\r... */\n    tag_98:\n      sub(shl(0xa0, 0x01), 0x01)\n        /* \"contracts/sikkacoin.sol\":8782:8808  directReferralIncome[user] */\n      and\n        /* \"contracts/sikkacoin.sol\":8755:8762  uint256 */\n      0x00\n        /* \"contracts/sikkacoin.sol\":8782:8808  directReferralIncome[user] */\n      swap1\n      dup2\n      mstore\n        /* \"contracts/sikkacoin.sol\":8782:8802  directReferralIncome */\n      0x08\n        /* \"contracts/sikkacoin.sol\":8782:8808  directReferralIncome[user] */\n      0x20\n      mstore\n      0x40\n      swap1\n      keccak256\n      sload\n      swap1\n        /* \"contracts/sikkacoin.sol\":8685:8816  function getDirectReferralIncome(address user) external view returns (uint256) {\r... */\n      jump\t// out\n        /* \"contracts/sikkacoin.sol\":1175:1229  mapping(address => uint256) public directReferralCount */\n    tag_102:\n      mstore(0x20, 0x07)\n      0x00\n      swap1\n      dup2\n      mstore\n      0x40\n      swap1\n      keccak256\n      sload\n      dup2\n      jump\t// out\n        /* \"contracts/sikkacoin.sol\":4120:4466  function getEstimatedReturn(uint256 amount, uint256 numDays) external view returns (uint256 reward) {\r... */\n    tag_106:\n        /* \"contracts/sikkacoin.sol\":4204:4218  uint256 reward */\n      0x00\n        /* \"contracts/sikkacoin.sol\":4244:4245  0 */\n      dup1\n        /* \"contracts/sikkacoin.sol\":4235:4241  amount */\n      dup4\n        /* \"contracts/sikkacoin.sol\":4235:4245  amount > 0 */\n      gt\n        /* \"contracts/sikkacoin.sol\":4227:4279  require(amount > 0, \"Amount must be greater than 0\") */\n      tag_305\n      jumpi\n      mload(0x40)\n      shl(0xe5, 0x461bcd)\n      dup2\n      mstore\n      0x04\n      add\n      tag_132\n      swap1\n      tag_265\n      jump\t// in\n    tag_305:\n        /* \"contracts/sikkacoin.sol\":4316:4317  0 */\n      0x00\n        /* \"contracts/sikkacoin.sol\":4294:4313  stakingAPY[numDays] */\n      dup3\n      dup2\n      mstore\n        /* \"contracts/sikkacoin.sol\":4294:4304  stakingAPY */\n      0x0a\n        /* \"contracts/sikkacoin.sol\":4294:4313  stakingAPY[numDays] */\n      0x20\n      mstore\n      0x40\n      swap1\n      keccak256\n      sload\n        /* \"contracts/sikkacoin.sol\":4286:4346  require(stakingAPY[numDays] > 0, \"Invalid staking duration\") */\n      tag_307\n      jumpi\n      mload(0x40)\n      shl(0xe5, 0x461bcd)\n      dup2\n      mstore\n      0x04\n      add\n      tag_132\n      swap1\n      tag_268\n      jump\t// in\n    tag_307:\n        /* \"contracts/sikkacoin.sol\":4355:4366  uint256 apy */\n      0x00\n        /* \"contracts/sikkacoin.sol\":4369:4388  stakingAPY[numDays] */\n      dup3\n      dup2\n      mstore\n        /* \"contracts/sikkacoin.sol\":4369:4379  stakingAPY */\n      0x0a\n        /* \"contracts/sikkacoin.sol\":4369:4388  stakingAPY[numDays] */\n      0x20\n      mstore\n      0x40\n      swap1\n      keccak256\n      sload\n        /* \"contracts/sikkacoin.sol\":4432:4441  100 * 365 */\n      0x8e94\n        /* \"contracts/sikkacoin.sol\":4380:4387  numDays */\n      dup4\n        /* \"contracts/sikkacoin.sol\":4405:4417  amount * apy */\n      tag_309\n        /* \"contracts/sikkacoin.sol\":4369:4388  stakingAPY[numDays] */\n      dup4\n        /* \"contracts/sikkacoin.sol\":4405:4411  amount */\n      dup8\n        /* \"contracts/sikkacoin.sol\":4405:4417  amount * apy */\n      tag_156\n      jump\t// in\n    tag_309:\n        /* \"contracts/sikkacoin.sol\":4405:4427  amount * apy * numDays */\n      tag_310\n      swap2\n      swap1\n      tag_156\n      jump\t// in\n    tag_310:\n        /* \"contracts/sikkacoin.sol\":4404:4442  (amount * apy * numDays) / (100 * 365) */\n      tag_311\n      swap2\n      swap1\n      tag_159\n      jump\t// in\n    tag_311:\n        /* \"contracts/sikkacoin.sol\":4395:4442  reward = (amount * apy * numDays) / (100 * 365) */\n      swap5\n        /* \"contracts/sikkacoin.sol\":4120:4466  function getEstimatedReturn(uint256 amount, uint256 numDays) external view returns (uint256 reward) {\r... */\n      swap4\n      pop\n      pop\n      pop\n      pop\n      jump\t// out\n        /* \"contracts/sikkacoin.sol\":8824:8937  function getTotalIncome(address user) external view returns (uint256) {\r... */\n    tag_110:\n      sub(shl(0xa0, 0x01), 0x01)\n        /* \"contracts/sikkacoin.sol\":8912:8929  totalIncome[user] */\n      and\n        /* \"contracts/sikkacoin.sol\":8885:8892  uint256 */\n      0x00\n        /* \"contracts/sikkacoin.sol\":8912:8929  totalIncome[user] */\n      swap1\n      dup2\n      mstore\n        /* \"contracts/sikkacoin.sol\":8912:8923  totalIncome */\n      0x09\n        /* \"contracts/sikkacoin.sol\":8912:8929  totalIncome[user] */\n      0x20\n      mstore\n      0x40\n      swap1\n      keccak256\n      sload\n      swap1\n        /* \"contracts/sikkacoin.sol\":8824:8937  function getTotalIncome(address user) external view returns (uint256) {\r... */\n      jump\t// out\n        /* \"contracts/sikkacoin.sol\":5711:5816  function isRegistered(address user) external view returns (bool) {\r... */\n    tag_114:\n      sub(shl(0xa0, 0x01), 0x01)\n        /* \"contracts/sikkacoin.sol\":5790:5801  users[user] */\n      and\n        /* \"contracts/sikkacoin.sol\":5770:5774  bool */\n      0x00\n        /* \"contracts/sikkacoin.sol\":5790:5801  users[user] */\n      swap1\n      dup2\n      mstore\n        /* \"contracts/sikkacoin.sol\":5790:5795  users */\n      0x02\n        /* \"contracts/sikkacoin.sol\":5790:5801  users[user] */\n      0x20\n      mstore\n      0x40\n      swap1\n      keccak256\n        /* \"contracts/sikkacoin.sol\":5790:5812  users[user].registered */\n      sload\n      shl(0xa0, 0x01)\n      swap1\n      div\n      0xff\n      and\n      swap1\n        /* \"contracts/sikkacoin.sol\":5711:5816  function isRegistered(address user) external view returns (bool) {\r... */\n      jump\t// out\n        /* \"contracts/sikkacoin.sol\":1053:1097  uint8[5] public levelRewards = [5, 3, 2,1,1] */\n    tag_119:\n      0x04\n      dup2\n      0x05\n      dup2\n      lt\n      tag_314\n      jumpi\n      0x00\n      dup1\n      revert\n    tag_314:\n      0x20\n      swap2\n      dup3\n      dup3\n      div\n      add\n      swap2\n      swap1\n      mod\n      swap2\n      pop\n      sload\n      swap1\n      0x0100\n      exp\n      swap1\n      div\n      0xff\n      and\n      dup2\n      jump\t// out\n        /* \"contracts/sikkacoin.sol\":1236:1291  mapping(address => uint256) public directReferralIncome */\n    tag_124:\n      mstore(0x20, 0x08)\n      0x00\n      swap1\n      dup2\n      mstore\n      0x40\n      swap1\n      keccak256\n      sload\n      dup2\n      jump\t// out\n        /* \"contracts/sikkacoin.sol\":629:648  IERC20 public token */\n    tag_127:\n      and(sub(shl(0xa0, 0x01), 0x01), sload(0x01))\n      dup2\n      jump\t// out\n        /* \"#utility.yul\":14:320   */\n    tag_38:\n      0x00\n        /* \"#utility.yul\":126:128   */\n      0x20\n        /* \"#utility.yul\":114:123   */\n      dup3\n        /* \"#utility.yul\":105:112   */\n      dup5\n        /* \"#utility.yul\":101:124   */\n      sub\n        /* \"#utility.yul\":97:129   */\n      slt\n        /* \"#utility.yul\":94:96   */\n      iszero\n      tag_318\n      jumpi\n        /* \"#utility.yul\":147:153   */\n      dup1\n        /* \"#utility.yul\":139:145   */\n      dup2\n        /* \"#utility.yul\":132:154   */\n      revert\n        /* \"#utility.yul\":94:96   */\n    tag_318:\n        /* \"#utility.yul\":178:201   */\n      dup2\n      calldataload\n      sub(shl(0xa0, 0x01), 0x01)\n        /* \"#utility.yul\":230:261   */\n      dup2\n      and\n        /* \"#utility.yul\":220:262   */\n      dup2\n      eq\n        /* \"#utility.yul\":210:212   */\n      tag_319\n      jumpi\n        /* \"#utility.yul\":281:287   */\n      dup2\n        /* \"#utility.yul\":273:279   */\n      dup3\n        /* \"#utility.yul\":266:288   */\n      revert\n        /* \"#utility.yul\":210:212   */\n    tag_319:\n        /* \"#utility.yul\":309:314   */\n      swap4\n        /* \"#utility.yul\":84:320   */\n      swap3\n      pop\n      pop\n      pop\n      jump\t// out\n        /* \"#utility.yul\":325:622   */\n    tag_184:\n      0x00\n        /* \"#utility.yul\":445:447   */\n      0x20\n        /* \"#utility.yul\":433:442   */\n      dup3\n        /* \"#utility.yul\":424:431   */\n      dup5\n        /* \"#utility.yul\":420:443   */\n      sub\n        /* \"#utility.yul\":416:448   */\n      slt\n        /* \"#utility.yul\":413:415   */\n      iszero\n      tag_321\n      jumpi\n        /* \"#utility.yul\":466:472   */\n      dup1\n        /* \"#utility.yul\":458:464   */\n      dup2\n        /* \"#utility.yul\":451:473   */\n      revert\n        /* \"#utility.yul\":413:415   */\n    tag_321:\n        /* \"#utility.yul\":503:512   */\n      dup2\n        /* \"#utility.yul\":497:513   */\n      mload\n        /* \"#utility.yul\":556:561   */\n      dup1\n        /* \"#utility.yul\":549:562   */\n      iszero\n        /* \"#utility.yul\":542:563   */\n      iszero\n        /* \"#utility.yul\":535:540   */\n      dup2\n        /* \"#utility.yul\":532:564   */\n      eq\n        /* \"#utility.yul\":522:524   */\n      tag_319\n      jumpi\n        /* \"#utility.yul\":583:589   */\n      dup2\n        /* \"#utility.yul\":575:581   */\n      dup3\n        /* \"#utility.yul\":568:590   */\n      revert\n        /* \"#utility.yul\":627:817   */\n    tag_32:\n      0x00\n        /* \"#utility.yul\":739:741   */\n      0x20\n        /* \"#utility.yul\":727:736   */\n      dup3\n        /* \"#utility.yul\":718:725   */\n      dup5\n        /* \"#utility.yul\":714:737   */\n      sub\n        /* \"#utility.yul\":710:742   */\n      slt\n        /* \"#utility.yul\":707:709   */\n      iszero\n      tag_324\n      jumpi\n        /* \"#utility.yul\":760:766   */\n      dup1\n        /* \"#utility.yul\":752:758   */\n      dup2\n        /* \"#utility.yul\":745:767   */\n      revert\n        /* \"#utility.yul\":707:709   */\n    tag_324:\n      pop\n        /* \"#utility.yul\":788:811   */\n      calldataload\n      swap2\n        /* \"#utility.yul\":697:817   */\n      swap1\n      pop\n      jump\t// out\n        /* \"#utility.yul\":822:1080   */\n    tag_71:\n      0x00\n      dup1\n        /* \"#utility.yul\":951:953   */\n      0x40\n        /* \"#utility.yul\":939:948   */\n      dup4\n        /* \"#utility.yul\":930:937   */\n      dup6\n        /* \"#utility.yul\":926:949   */\n      sub\n        /* \"#utility.yul\":922:954   */\n      slt\n        /* \"#utility.yul\":919:921   */\n      iszero\n      tag_326\n      jumpi\n        /* \"#utility.yul\":972:978   */\n      dup1\n        /* \"#utility.yul\":964:970   */\n      dup2\n        /* \"#utility.yul\":957:979   */\n      revert\n        /* \"#utility.yul\":919:921   */\n    tag_326:\n      pop\n      pop\n        /* \"#utility.yul\":1000:1023   */\n      dup1\n      calldataload\n      swap3\n        /* \"#utility.yul\":1070:1072   */\n      0x20\n        /* \"#utility.yul\":1055:1073   */\n      swap1\n      swap2\n      add\n        /* \"#utility.yul\":1042:1074   */\n      calldataload\n      swap2\n      pop\n        /* \"#utility.yul\":909:1080   */\n      jump\t// out\n        /* \"#utility.yul\":1085:1288   */\n    tag_35:\n      sub(shl(0xa0, 0x01), 0x01)\n        /* \"#utility.yul\":1249:1281   */\n      swap2\n      swap1\n      swap2\n      and\n        /* \"#utility.yul\":1231:1282   */\n      dup2\n      mstore\n        /* \"#utility.yul\":1219:1221   */\n      0x20\n        /* \"#utility.yul\":1204:1222   */\n      add\n      swap1\n        /* \"#utility.yul\":1186:1288   */\n      jump\t// out\n        /* \"#utility.yul\":1293:1668   */\n    tag_270:\n      sub(shl(0xa0, 0x01), 0x01)\n        /* \"#utility.yul\":1551:1566   */\n      swap4\n      dup5\n      and\n        /* \"#utility.yul\":1533:1567   */\n      dup2\n      mstore\n        /* \"#utility.yul\":1603:1618   */\n      swap2\n      swap1\n      swap3\n      and\n        /* \"#utility.yul\":1598:1600   */\n      0x20\n        /* \"#utility.yul\":1583:1601   */\n      dup3\n      add\n        /* \"#utility.yul\":1576:1619   */\n      mstore\n        /* \"#utility.yul\":1650:1652   */\n      0x40\n        /* \"#utility.yul\":1635:1653   */\n      dup2\n      add\n        /* \"#utility.yul\":1628:1662   */\n      swap2\n      swap1\n      swap2\n      mstore\n        /* \"#utility.yul\":1483:1485   */\n      0x60\n        /* \"#utility.yul\":1468:1486   */\n      add\n      swap1\n        /* \"#utility.yul\":1450:1668   */\n      jump\t// out\n        /* \"#utility.yul\":1673:1957   */\n    tag_95:\n      sub(shl(0xa0, 0x01), 0x01)\n        /* \"#utility.yul\":1859:1891   */\n      swap3\n      swap1\n      swap3\n      and\n        /* \"#utility.yul\":1841:1892   */\n      dup3\n      mstore\n        /* \"#utility.yul\":1935:1949   */\n      iszero\n        /* \"#utility.yul\":1928:1950   */\n      iszero\n        /* \"#utility.yul\":1923:1925   */\n      0x20\n        /* \"#utility.yul\":1908:1926   */\n      dup3\n      add\n        /* \"#utility.yul\":1901:1951   */\n      mstore\n        /* \"#utility.yul\":1829:1831   */\n      0x40\n        /* \"#utility.yul\":1814:1832   */\n      add\n      swap1\n        /* \"#utility.yul\":1796:1957   */\n      jump\t// out\n        /* \"#utility.yul\":1962:2236   */\n    tag_179:\n      sub(shl(0xa0, 0x01), 0x01)\n        /* \"#utility.yul\":2154:2186   */\n      swap3\n      swap1\n      swap3\n      and\n        /* \"#utility.yul\":2136:2187   */\n      dup3\n      mstore\n        /* \"#utility.yul\":2218:2220   */\n      0x20\n        /* \"#utility.yul\":2203:2221   */\n      dup3\n      add\n        /* \"#utility.yul\":2196:2230   */\n      mstore\n        /* \"#utility.yul\":2124:2126   */\n      0x40\n        /* \"#utility.yul\":2109:2127   */\n      add\n      swap1\n        /* \"#utility.yul\":2091:2236   */\n      jump\t// out\n        /* \"#utility.yul\":2241:2812   */\n    tag_68:\n      sub(shl(0xa0, 0x01), 0x01)\n        /* \"#utility.yul\":2540:2572   */\n      swap7\n      swap1\n      swap7\n      and\n        /* \"#utility.yul\":2522:2573   */\n      dup7\n      mstore\n        /* \"#utility.yul\":2604:2606   */\n      0x20\n        /* \"#utility.yul\":2589:2607   */\n      dup7\n      add\n        /* \"#utility.yul\":2582:2616   */\n      swap5\n      swap1\n      swap5\n      mstore\n        /* \"#utility.yul\":2647:2649   */\n      0x40\n        /* \"#utility.yul\":2632:2650   */\n      dup6\n      add\n        /* \"#utility.yul\":2625:2659   */\n      swap3\n      swap1\n      swap3\n      mstore\n        /* \"#utility.yul\":2690:2692   */\n      0x60\n        /* \"#utility.yul\":2675:2693   */\n      dup5\n      add\n        /* \"#utility.yul\":2668:2702   */\n      mstore\n        /* \"#utility.yul\":2733:2736   */\n      0x80\n        /* \"#utility.yul\":2718:2737   */\n      dup4\n      add\n        /* \"#utility.yul\":2711:2746   */\n      mstore\n        /* \"#utility.yul\":2790:2804   */\n      iszero\n        /* \"#utility.yul\":2783:2805   */\n      iszero\n        /* \"#utility.yul\":2560:2563   */\n      0xa0\n        /* \"#utility.yul\":2762:2781   */\n      dup3\n      add\n        /* \"#utility.yul\":2755:2806   */\n      mstore\n        /* \"#utility.yul\":2509:2512   */\n      0xc0\n        /* \"#utility.yul\":2494:2513   */\n      add\n      swap1\n        /* \"#utility.yul\":2476:2812   */\n      jump\t// out\n        /* \"#utility.yul\":2817:3452   */\n    tag_51:\n        /* \"#utility.yul\":2988:2990   */\n      0x20\n        /* \"#utility.yul\":3040:3061   */\n      dup1\n      dup3\n      mstore\n        /* \"#utility.yul\":3110:3123   */\n      dup3\n      mload\n        /* \"#utility.yul\":3013:3031   */\n      dup3\n      dup3\n      add\n        /* \"#utility.yul\":3132:3154   */\n      dup2\n      swap1\n      mstore\n        /* \"#utility.yul\":2817:3452   */\n      0x00\n      swap2\n        /* \"#utility.yul\":2988:2990   */\n      swap1\n        /* \"#utility.yul\":3211:3226   */\n      dup5\n      dup3\n      add\n      swap1\n        /* \"#utility.yul\":3185:3187   */\n      0x40\n        /* \"#utility.yul\":3170:3188   */\n      dup6\n      add\n      swap1\n        /* \"#utility.yul\":2817:3452   */\n      dup5\n        /* \"#utility.yul\":3257:3426   */\n    tag_333:\n        /* \"#utility.yul\":3271:3277   */\n      dup2\n        /* \"#utility.yul\":3268:3269   */\n      dup2\n        /* \"#utility.yul\":3265:3278   */\n      lt\n        /* \"#utility.yul\":3257:3426   */\n      iszero\n      tag_335\n      jumpi\n        /* \"#utility.yul\":3332:3345   */\n      dup4\n      mload\n        /* \"#utility.yul\":3320:3346   */\n      dup4\n      mstore\n        /* \"#utility.yul\":3401:3416   */\n      swap3\n      dup5\n      add\n      swap3\n        /* \"#utility.yul\":3366:3378   */\n      swap2\n      dup5\n      add\n      swap2\n        /* \"#utility.yul\":3293:3294   */\n      0x01\n        /* \"#utility.yul\":3286:3295   */\n      add\n        /* \"#utility.yul\":3257:3426   */\n      jump(tag_333)\n    tag_335:\n      pop\n        /* \"#utility.yul\":3443:3446   */\n      swap1\n      swap7\n        /* \"#utility.yul\":2968:3452   */\n      swap6\n      pop\n      pop\n      pop\n      pop\n      pop\n      pop\n      jump\t// out\n        /* \"#utility.yul\":3457:3644   */\n    tag_116:\n        /* \"#utility.yul\":3622:3636   */\n      swap1\n      iszero\n        /* \"#utility.yul\":3615:3637   */\n      iszero\n        /* \"#utility.yul\":3597:3638   */\n      dup2\n      mstore\n        /* \"#utility.yul\":3585:3587   */\n      0x20\n        /* \"#utility.yul\":3570:3588   */\n      add\n      swap1\n        /* \"#utility.yul\":3552:3644   */\n      jump\t// out\n        /* \"#utility.yul\":3870:4217   */\n    tag_239:\n        /* \"#utility.yul\":4072:4074   */\n      0x20\n        /* \"#utility.yul\":4054:4075   */\n      dup1\n      dup3\n      mstore\n        /* \"#utility.yul\":4111:4113   */\n      0x17\n        /* \"#utility.yul\":4091:4109   */\n      swap1\n      dup3\n      add\n        /* \"#utility.yul\":4084:4114   */\n      mstore\n        /* \"#utility.yul\":4150:4175   */\n      0x5265666572726572206e6f742072656769737465726564000000000000000000\n        /* \"#utility.yul\":4145:4147   */\n      0x40\n        /* \"#utility.yul\":4130:4148   */\n      dup3\n      add\n        /* \"#utility.yul\":4123:4176   */\n      mstore\n        /* \"#utility.yul\":4208:4210   */\n      0x60\n        /* \"#utility.yul\":4193:4211   */\n      add\n      swap1\n        /* \"#utility.yul\":4044:4217   */\n      jump\t// out\n        /* \"#utility.yul\":4222:4567   */\n    tag_236:\n        /* \"#utility.yul\":4424:4426   */\n      0x20\n        /* \"#utility.yul\":4406:4427   */\n      dup1\n      dup3\n      mstore\n        /* \"#utility.yul\":4463:4465   */\n      0x15\n        /* \"#utility.yul\":4443:4461   */\n      swap1\n      dup3\n      add\n        /* \"#utility.yul\":4436:4466   */\n      mstore\n      shl(0x59, 0x21b0b73737ba103932b332b9103cb7bab939b2b633)\n        /* \"#utility.yul\":4497:4499   */\n      0x40\n        /* \"#utility.yul\":4482:4500   */\n      dup3\n      add\n        /* \"#utility.yul\":4475:4526   */\n      mstore\n        /* \"#utility.yul\":4558:4560   */\n      0x60\n        /* \"#utility.yul\":4543:4561   */\n      add\n      swap1\n        /* \"#utility.yul\":4396:4567   */\n      jump\t// out\n        /* \"#utility.yul\":4572:4920   */\n    tag_295:\n        /* \"#utility.yul\":4774:4776   */\n      0x20\n        /* \"#utility.yul\":4756:4777   */\n      dup1\n      dup3\n      mstore\n        /* \"#utility.yul\":4813:4815   */\n      0x18\n        /* \"#utility.yul\":4793:4811   */\n      swap1\n      dup3\n      add\n        /* \"#utility.yul\":4786:4816   */\n      mstore\n        /* \"#utility.yul\":4852:4878   */\n      0x526566657272616c207472616e73666572206661696c65640000000000000000\n        /* \"#utility.yul\":4847:4849   */\n      0x40\n        /* \"#utility.yul\":4832:4850   */\n      dup3\n      add\n        /* \"#utility.yul\":4825:4879   */\n      mstore\n        /* \"#utility.yul\":4911:4913   */\n      0x60\n        /* \"#utility.yul\":4896:4914   */\n      add\n      swap1\n        /* \"#utility.yul\":4746:4920   */\n      jump\t// out\n        /* \"#utility.yul\":4925:5268   */\n    tag_133:\n        /* \"#utility.yul\":5127:5129   */\n      0x20\n        /* \"#utility.yul\":5109:5130   */\n      dup1\n      dup3\n      mstore\n        /* \"#utility.yul\":5166:5168   */\n      0x13\n        /* \"#utility.yul\":5146:5164   */\n      swap1\n      dup3\n      add\n        /* \"#utility.yul\":5139:5169   */\n      mstore\n      shl(0x6a, 0x155cd95c881b9bdd081c9959da5cdd195c9959)\n        /* \"#utility.yul\":5200:5202   */\n      0x40\n        /* \"#utility.yul\":5185:5203   */\n      dup3\n      add\n        /* \"#utility.yul\":5178:5227   */\n      mstore\n        /* \"#utility.yul\":5259:5261   */\n      0x60\n        /* \"#utility.yul\":5244:5262   */\n      add\n      swap1\n        /* \"#utility.yul\":5099:5268   */\n      jump\t// out\n        /* \"#utility.yul\":5273:5611   */\n    tag_194:\n        /* \"#utility.yul\":5475:5477   */\n      0x20\n        /* \"#utility.yul\":5457:5478   */\n      dup1\n      dup3\n      mstore\n        /* \"#utility.yul\":5514:5516   */\n      0x0e\n        /* \"#utility.yul\":5494:5512   */\n      swap1\n      dup3\n      add\n        /* \"#utility.yul\":5487:5517   */\n      mstore\n      shl(0x90, 0x4e6f7420796f7572207374616b65)\n        /* \"#utility.yul\":5548:5550   */\n      0x40\n        /* \"#utility.yul\":5533:5551   */\n      dup3\n      add\n        /* \"#utility.yul\":5526:5570   */\n      mstore\n        /* \"#utility.yul\":5602:5604   */\n      0x60\n        /* \"#utility.yul\":5587:5605   */\n      add\n      swap1\n        /* \"#utility.yul\":5447:5611   */\n      jump\t// out\n        /* \"#utility.yul\":5616:5955   */\n    tag_187:\n        /* \"#utility.yul\":5818:5820   */\n      0x20\n        /* \"#utility.yul\":5800:5821   */\n      dup1\n      dup3\n      mstore\n        /* \"#utility.yul\":5857:5859   */\n      0x0f\n        /* \"#utility.yul\":5837:5855   */\n      swap1\n      dup3\n      add\n        /* \"#utility.yul\":5830:5860   */\n      mstore\n      shl(0x8a, 0x15da5d1a191c985dc819985a5b1959)\n        /* \"#utility.yul\":5891:5893   */\n      0x40\n        /* \"#utility.yul\":5876:5894   */\n      dup3\n      add\n        /* \"#utility.yul\":5869:5914   */\n      mstore\n        /* \"#utility.yul\":5946:5948   */\n      0x60\n        /* \"#utility.yul\":5931:5949   */\n      add\n      swap1\n        /* \"#utility.yul\":5790:5955   */\n      jump\t// out\n        /* \"#utility.yul\":5960:6313   */\n    tag_265:\n        /* \"#utility.yul\":6162:6164   */\n      0x20\n        /* \"#utility.yul\":6144:6165   */\n      dup1\n      dup3\n      mstore\n        /* \"#utility.yul\":6201:6203   */\n      0x1d\n        /* \"#utility.yul\":6181:6199   */\n      swap1\n      dup3\n      add\n        /* \"#utility.yul\":6174:6204   */\n      mstore\n        /* \"#utility.yul\":6240:6271   */\n      0x416d6f756e74206d7573742062652067726561746572207468616e2030000000\n        /* \"#utility.yul\":6235:6237   */\n      0x40\n        /* \"#utility.yul\":6220:6238   */\n      dup3\n      add\n        /* \"#utility.yul\":6213:6272   */\n      mstore\n        /* \"#utility.yul\":6304:6306   */\n      0x60\n        /* \"#utility.yul\":6289:6307   */\n      add\n      swap1\n        /* \"#utility.yul\":6134:6313   */\n      jump\t// out\n        /* \"#utility.yul\":6318:6660   */\n    tag_233:\n        /* \"#utility.yul\":6520:6522   */\n      0x20\n        /* \"#utility.yul\":6502:6523   */\n      dup1\n      dup3\n      mstore\n        /* \"#utility.yul\":6559:6561   */\n      0x12\n        /* \"#utility.yul\":6539:6557   */\n      swap1\n      dup3\n      add\n        /* \"#utility.yul\":6532:6562   */\n      mstore\n      shl(0x72, 0x105b1c9958591e481c9959da5cdd195c9959)\n        /* \"#utility.yul\":6593:6595   */\n      0x40\n        /* \"#utility.yul\":6578:6596   */\n      dup3\n      add\n        /* \"#utility.yul\":6571:6619   */\n      mstore\n        /* \"#utility.yul\":6651:6653   */\n      0x60\n        /* \"#utility.yul\":6636:6654   */\n      add\n      swap1\n        /* \"#utility.yul\":6492:6660   */\n      jump\t// out\n        /* \"#utility.yul\":6665:7012   */\n    tag_177:\n        /* \"#utility.yul\":6867:6869   */\n      0x20\n        /* \"#utility.yul\":6849:6870   */\n      dup1\n      dup3\n      mstore\n        /* \"#utility.yul\":6906:6908   */\n      0x17\n        /* \"#utility.yul\":6886:6904   */\n      swap1\n      dup3\n      add\n        /* \"#utility.yul\":6879:6909   */\n      mstore\n        /* \"#utility.yul\":6945:6970   */\n      0x4f6e6c79206f776e65722063616e207769746864726177000000000000000000\n        /* \"#utility.yul\":6940:6942   */\n      0x40\n        /* \"#utility.yul\":6925:6943   */\n      dup3\n      add\n        /* \"#utility.yul\":6918:6971   */\n      mstore\n        /* \"#utility.yul\":7003:7005   */\n      0x60\n        /* \"#utility.yul\":6988:7006   */\n      add\n      swap1\n        /* \"#utility.yul\":6839:7012   */\n      jump\t// out\n        /* \"#utility.yul\":7017:7362   */\n    tag_224:\n        /* \"#utility.yul\":7219:7221   */\n      0x20\n        /* \"#utility.yul\":7201:7222   */\n      dup1\n      dup3\n      mstore\n        /* \"#utility.yul\":7258:7260   */\n      0x15\n        /* \"#utility.yul\":7238:7256   */\n      swap1\n      dup3\n      add\n        /* \"#utility.yul\":7231:7261   */\n      mstore\n      shl(0x5a, 0x151bdad95b881d1c985b9cd9995c8819985a5b1959)\n        /* \"#utility.yul\":7292:7294   */\n      0x40\n        /* \"#utility.yul\":7277:7295   */\n      dup3\n      add\n        /* \"#utility.yul\":7270:7321   */\n      mstore\n        /* \"#utility.yul\":7353:7355   */\n      0x60\n        /* \"#utility.yul\":7338:7356   */\n      add\n      swap1\n        /* \"#utility.yul\":7191:7362   */\n      jump\t// out\n        /* \"#utility.yul\":7367:7706   */\n    tag_203:\n        /* \"#utility.yul\":7569:7571   */\n      0x20\n        /* \"#utility.yul\":7551:7572   */\n      dup1\n      dup3\n      mstore\n        /* \"#utility.yul\":7608:7610   */\n      0x0f\n        /* \"#utility.yul\":7588:7606   */\n      swap1\n      dup3\n      add\n        /* \"#utility.yul\":7581:7611   */\n      mstore\n      shl(0x8a, 0x105b1c9958591e4818db185a5b5959)\n        /* \"#utility.yul\":7642:7644   */\n      0x40\n        /* \"#utility.yul\":7627:7645   */\n      dup3\n      add\n        /* \"#utility.yul\":7620:7665   */\n      mstore\n        /* \"#utility.yul\":7697:7699   */\n      0x60\n        /* \"#utility.yul\":7682:7700   */\n      add\n      swap1\n        /* \"#utility.yul\":7541:7706   */\n      jump\t// out\n        /* \"#utility.yul\":7711:8059   */\n    tag_268:\n        /* \"#utility.yul\":7913:7915   */\n      0x20\n        /* \"#utility.yul\":7895:7916   */\n      dup1\n      dup3\n      mstore\n        /* \"#utility.yul\":7952:7954   */\n      0x18\n        /* \"#utility.yul\":7932:7950   */\n      swap1\n      dup3\n      add\n        /* \"#utility.yul\":7925:7955   */\n      mstore\n        /* \"#utility.yul\":7991:8017   */\n      0x496e76616c6964207374616b696e67206475726174696f6e0000000000000000\n        /* \"#utility.yul\":7986:7988   */\n      0x40\n        /* \"#utility.yul\":7971:7989   */\n      dup3\n      add\n        /* \"#utility.yul\":7964:8018   */\n      mstore\n        /* \"#utility.yul\":8050:8052   */\n      0x60\n        /* \"#utility.yul\":8035:8053   */\n      add\n      swap1\n        /* \"#utility.yul\":7885:8059   */\n      jump\t// out\n        /* \"#utility.yul\":8064:8403   */\n    tag_163:\n        /* \"#utility.yul\":8266:8268   */\n      0x20\n        /* \"#utility.yul\":8248:8269   */\n      dup1\n      dup3\n      mstore\n        /* \"#utility.yul\":8305:8307   */\n      0x0f\n        /* \"#utility.yul\":8285:8303   */\n      swap1\n      dup3\n      add\n        /* \"#utility.yul\":8278:8308   */\n      mstore\n      shl(0x8a, 0x14dd185ad9481b9bdd08199bdd5b99)\n        /* \"#utility.yul\":8339:8341   */\n      0x40\n        /* \"#utility.yul\":8324:8342   */\n      dup3\n      add\n        /* \"#utility.yul\":8317:8362   */\n      mstore\n        /* \"#utility.yul\":8394:8396   */\n      0x60\n        /* \"#utility.yul\":8379:8397   */\n      add\n      swap1\n        /* \"#utility.yul\":8238:8403   */\n      jump\t// out\n        /* \"#utility.yul\":8408:8808   */\n    tag_229:\n        /* \"#utility.yul\":8610:8612   */\n      0x20\n        /* \"#utility.yul\":8592:8613   */\n      dup1\n      dup3\n      mstore\n        /* \"#utility.yul\":8649:8651   */\n      0x24\n        /* \"#utility.yul\":8629:8647   */\n      swap1\n      dup3\n      add\n        /* \"#utility.yul\":8622:8652   */\n      mstore\n        /* \"#utility.yul\":8688:8722   */\n      0x5374616b65206e6f7420666f756e6420666f7220676976656e20706f73697469\n        /* \"#utility.yul\":8683:8685   */\n      0x40\n        /* \"#utility.yul\":8668:8686   */\n      dup3\n      add\n        /* \"#utility.yul\":8661:8723   */\n      mstore\n      shl(0xe2, 0x1bdb9259)\n        /* \"#utility.yul\":8754:8756   */\n      0x60\n        /* \"#utility.yul\":8739:8757   */\n      dup3\n      add\n        /* \"#utility.yul\":8732:8766   */\n      mstore\n        /* \"#utility.yul\":8798:8801   */\n      0x80\n        /* \"#utility.yul\":8783:8802   */\n      add\n      swap1\n        /* \"#utility.yul\":8582:8808   */\n      jump\t// out\n        /* \"#utility.yul\":8813:9223   */\n    tag_214:\n        /* \"#utility.yul\":9015:9017   */\n      0x20\n        /* \"#utility.yul\":8997:9018   */\n      dup1\n      dup3\n      mstore\n        /* \"#utility.yul\":9054:9056   */\n      0x2e\n        /* \"#utility.yul\":9034:9052   */\n      swap1\n      dup3\n      add\n        /* \"#utility.yul\":9027:9057   */\n      mstore\n        /* \"#utility.yul\":9093:9127   */\n      0x43616e6e6f7420636c61696d206265747765656e203230206461797320616e64\n        /* \"#utility.yul\":9088:9090   */\n      0x40\n        /* \"#utility.yul\":9073:9091   */\n      dup3\n      add\n        /* \"#utility.yul\":9066:9128   */\n      mstore\n      shl(0x91, 0x10333ab63610323ab930ba34b7b7)\n        /* \"#utility.yul\":9159:9161   */\n      0x60\n        /* \"#utility.yul\":9144:9162   */\n      dup3\n      add\n        /* \"#utility.yul\":9137:9181   */\n      mstore\n        /* \"#utility.yul\":9213:9216   */\n      0x80\n        /* \"#utility.yul\":9198:9217   */\n      add\n      swap1\n        /* \"#utility.yul\":8987:9223   */\n      jump\t// out\n        /* \"#utility.yul\":9228:9570   */\n    tag_144:\n        /* \"#utility.yul\":9430:9432   */\n      0x20\n        /* \"#utility.yul\":9412:9433   */\n      dup1\n      dup3\n      mstore\n        /* \"#utility.yul\":9469:9471   */\n      0x12\n        /* \"#utility.yul\":9449:9467   */\n      swap1\n      dup3\n      add\n        /* \"#utility.yul\":9442:9472   */\n      mstore\n      shl(0x72, 0x125b9d985b1a59081c1bdcda5d1a5bdb9259)\n        /* \"#utility.yul\":9503:9505   */\n      0x40\n        /* \"#utility.yul\":9488:9506   */\n      dup3\n      add\n        /* \"#utility.yul\":9481:9529   */\n      mstore\n        /* \"#utility.yul\":9561:9563   */\n      0x60\n        /* \"#utility.yul\":9546:9564   */\n      add\n      swap1\n        /* \"#utility.yul\":9402:9570   */\n      jump\t// out\n        /* \"#utility.yul\":9575:9752   */\n    tag_41:\n        /* \"#utility.yul\":9721:9746   */\n      swap1\n      dup2\n      mstore\n        /* \"#utility.yul\":9709:9711   */\n      0x20\n        /* \"#utility.yul\":9694:9712   */\n      add\n      swap1\n        /* \"#utility.yul\":9676:9752   */\n      jump\t// out\n        /* \"#utility.yul\":9757:10005   */\n    tag_226:\n        /* \"#utility.yul\":9931:9956   */\n      swap2\n      dup3\n      mstore\n        /* \"#utility.yul\":9987:9989   */\n      0x20\n        /* \"#utility.yul\":9972:9990   */\n      dup3\n      add\n        /* \"#utility.yul\":9965:9999   */\n      mstore\n        /* \"#utility.yul\":9919:9921   */\n      0x40\n        /* \"#utility.yul\":9904:9922   */\n      add\n      swap1\n        /* \"#utility.yul\":9886:10005   */\n      jump\t// out\n        /* \"#utility.yul\":10010:10473   */\n    tag_46:\n        /* \"#utility.yul\":10269:10294   */\n      swap5\n      dup6\n      mstore\n        /* \"#utility.yul\":10325:10327   */\n      0x20\n        /* \"#utility.yul\":10310:10328   */\n      dup6\n      add\n        /* \"#utility.yul\":10303:10337   */\n      swap4\n      swap1\n      swap4\n      mstore\n        /* \"#utility.yul\":10368:10370   */\n      0x40\n        /* \"#utility.yul\":10353:10371   */\n      dup5\n      add\n        /* \"#utility.yul\":10346:10380   */\n      swap2\n      swap1\n      swap2\n      mstore\n        /* \"#utility.yul\":10411:10413   */\n      0x60\n        /* \"#utility.yul\":10396:10414   */\n      dup4\n      add\n        /* \"#utility.yul\":10389:10423   */\n      mstore\n        /* \"#utility.yul\":10454:10457   */\n      0x80\n        /* \"#utility.yul\":10439:10458   */\n      dup3\n      add\n        /* \"#utility.yul\":10432:10467   */\n      mstore\n        /* \"#utility.yul\":10256:10259   */\n      0xa0\n        /* \"#utility.yul\":10241:10260   */\n      add\n      swap1\n        /* \"#utility.yul\":10223:10473   */\n      jump\t// out\n        /* \"#utility.yul\":10478:10662   */\n    tag_121:\n        /* \"#utility.yul\":10650:10654   */\n      0xff\n        /* \"#utility.yul\":10638:10655   */\n      swap2\n      swap1\n      swap2\n      and\n        /* \"#utility.yul\":10620:10656   */\n      dup2\n      mstore\n        /* \"#utility.yul\":10608:10610   */\n      0x20\n        /* \"#utility.yul\":10593:10611   */\n      add\n      swap1\n        /* \"#utility.yul\":10575:10662   */\n      jump\t// out\n        /* \"#utility.yul\":10667:10795   */\n    tag_216:\n      0x00\n        /* \"#utility.yul\":10738:10739   */\n      dup3\n        /* \"#utility.yul\":10734:10740   */\n      not\n        /* \"#utility.yul\":10731:10732   */\n      dup3\n        /* \"#utility.yul\":10728:10741   */\n      gt\n        /* \"#utility.yul\":10725:10727   */\n      iszero\n      tag_360\n      jumpi\n        /* \"#utility.yul\":10744:10762   */\n      tag_360\n      tag_361\n      jump\t// in\n    tag_360:\n      pop\n        /* \"#utility.yul\":10780:10789   */\n      add\n      swap1\n        /* \"#utility.yul\":10715:10795   */\n      jump\t// out\n        /* \"#utility.yul\":10800:11017   */\n    tag_159:\n      0x00\n        /* \"#utility.yul\":10866:10867   */\n      dup3\n        /* \"#utility.yul\":10856:10858   */\n      tag_363\n      jumpi\n      shl(0xe0, 0x4e487b71)\n        /* \"#utility.yul\":10891:10922   */\n      dup2\n      mstore\n        /* \"#utility.yul\":10945:10949   */\n      0x12\n        /* \"#utility.yul\":10942:10943   */\n      0x04\n        /* \"#utility.yul\":10935:10950   */\n      mstore\n        /* \"#utility.yul\":10973:10977   */\n      0x24\n        /* \"#utility.yul\":10898:10899   */\n      dup2\n        /* \"#utility.yul\":10963:10978   */\n      revert\n        /* \"#utility.yul\":10856:10858   */\n    tag_363:\n      pop\n        /* \"#utility.yul\":11002:11011   */\n      div\n      swap1\n        /* \"#utility.yul\":10846:11017   */\n      jump\t// out\n        /* \"#utility.yul\":11022:11190   */\n    tag_156:\n      0x00\n        /* \"#utility.yul\":11128:11129   */\n      dup2\n        /* \"#utility.yul\":11124:11125   */\n      0x00\n        /* \"#utility.yul\":11120:11126   */\n      not\n        /* \"#utility.yul\":11116:11130   */\n      div\n        /* \"#utility.yul\":11113:11114   */\n      dup4\n        /* \"#utility.yul\":11110:11131   */\n      gt\n        /* \"#utility.yul\":11105:11106   */\n      dup3\n        /* \"#utility.yul\":11098:11107   */\n      iszero\n        /* \"#utility.yul\":11091:11108   */\n      iszero\n        /* \"#utility.yul\":11087:11132   */\n      and\n        /* \"#utility.yul\":11084:11086   */\n      iszero\n      tag_366\n      jumpi\n        /* \"#utility.yul\":11135:11153   */\n      tag_366\n      tag_361\n      jump\t// in\n    tag_366:\n      pop\n        /* \"#utility.yul\":11175:11184   */\n      mul\n      swap1\n        /* \"#utility.yul\":11074:11190   */\n      jump\t// out\n        /* \"#utility.yul\":11195:11320   */\n    tag_205:\n      0x00\n        /* \"#utility.yul\":11263:11264   */\n      dup3\n        /* \"#utility.yul\":11260:11261   */\n      dup3\n        /* \"#utility.yul\":11257:11265   */\n      lt\n        /* \"#utility.yul\":11254:11256   */\n      iszero\n      tag_369\n      jumpi\n        /* \"#utility.yul\":11268:11286   */\n      tag_369\n      tag_361\n      jump\t// in\n    tag_369:\n      pop\n        /* \"#utility.yul\":11305:11314   */\n      sub\n      swap1\n        /* \"#utility.yul\":11244:11320   */\n      jump\t// out\n        /* \"#utility.yul\":11325:11460   */\n    tag_138:\n      0x00\n      not(0x00)\n        /* \"#utility.yul\":11385:11402   */\n      dup3\n      eq\n        /* \"#utility.yul\":11382:11384   */\n      iszero\n      tag_372\n      jumpi\n        /* \"#utility.yul\":11405:11423   */\n      tag_372\n      tag_361\n      jump\t// in\n    tag_372:\n      pop\n        /* \"#utility.yul\":11452:11453   */\n      0x01\n        /* \"#utility.yul\":11441:11454   */\n      add\n      swap1\n        /* \"#utility.yul\":11372:11460   */\n      jump\t// out\n        /* \"#utility.yul\":11465:11640   */\n    tag_300:\n      0x00\n        /* \"#utility.yul\":11546:11550   */\n      0xff\n        /* \"#utility.yul\":11539:11544   */\n      dup3\n        /* \"#utility.yul\":11535:11551   */\n      and\n        /* \"#utility.yul\":11575:11579   */\n      0xff\n        /* \"#utility.yul\":11566:11573   */\n      dup2\n        /* \"#utility.yul\":11563:11580   */\n      eq\n        /* \"#utility.yul\":11560:11562   */\n      iszero\n      tag_375\n      jumpi\n        /* \"#utility.yul\":11583:11601   */\n      tag_375\n      tag_361\n      jump\t// in\n    tag_375:\n        /* \"#utility.yul\":11632:11633   */\n      0x01\n        /* \"#utility.yul\":11619:11634   */\n      add\n      swap3\n        /* \"#utility.yul\":11510:11640   */\n      swap2\n      pop\n      pop\n      jump\t// out\n        /* \"#utility.yul\":11645:11772   */\n    tag_361:\n        /* \"#utility.yul\":11706:11716   */\n      0x4e487b71\n        /* \"#utility.yul\":11701:11704   */\n      0xe0\n        /* \"#utility.yul\":11697:11717   */\n      shl\n        /* \"#utility.yul\":11694:11695   */\n      0x00\n        /* \"#utility.yul\":11687:11718   */\n      mstore\n        /* \"#utility.yul\":11737:11741   */\n      0x11\n        /* \"#utility.yul\":11734:11735   */\n      0x04\n        /* \"#utility.yul\":11727:11742   */\n      mstore\n        /* \"#utility.yul\":11761:11765   */\n      0x24\n        /* \"#utility.yul\":11758:11759   */\n      0x00\n        /* \"#utility.yul\":11751:11766   */\n      revert\n\n    auxdata: 0xa2646970667358221220ec786e9aebeaaab6da83a421d14604a5803fb07ce54d326d574377e7c259f0c464736f6c63430008000033\n}\n",
				"bytecode": {
					"linkReferences": {},
					"object": "61012060405260056080818152600360a052600260c052600160e081905261010052620000309160049190620001ab565b503480156200003e57600080fd5b5060405162001e1838038062001e18833981016040819052620000619162000279565b6001600160a01b038216620000935760405162461bcd60e51b81526004016200008a90620002b0565b60405180910390fd5b6001600160a01b038116620000bc5760405162461bcd60e51b81526004016200008a90620002e7565b600080546001600160a01b039384166001600160a01b03199182161780835560018054948616949092169390931781559190921682526002602090815260408320805460ff60a01b1916600160a01b179055600a90527f579cf2be734d9b04ae69aa2ac47f7d57a73216e05f35a9c951916f461f31449d5560037f7f87218992b43f7ec59f3c8fd242b6759bfedfc613fdc2676bc53b4637f8f3515560067f2f844fc0a0df69dddfd25d195a0052546da08b9a0566e7bc05a95a3b80f0084c5561016d9052600c7fd2808cfdc884998f3b7977877f7af898c79f14530d4599f2f9e32946b2e1a1e4556200031e565b600183019183908215620002335791602002820160005b838211156200020257835183826101000a81548160ff021916908360ff1602179055509260200192600101602081600001049283019260010302620001c2565b8015620002315782816101000a81549060ff021916905560010160208160000104928301926001030262000202565b505b506200024192915062000245565b5090565b5b8082111562000241576000815560010162000246565b80516001600160a01b03811681146200027457600080fd5b919050565b600080604083850312156200028c578182fd5b62000297836200025c565b9150620002a7602084016200025c565b90509250929050565b6020808252601c908201527f4f776e657220616464726573732063616e6e6f74206265207a65726f00000000604082015260600190565b6020808252601c908201527f546f6b656e20616464726573732063616e6e6f74206265207a65726f00000000604082015260600190565b611aea806200032e6000396000f3fe608060405234801561001057600080fd5b50600436106101585760003560e01c8063899346c7116100c3578063bd2971781161007c578063bd297178146102f5578063c2d3c67714610308578063c3c5a5471461031b578063e45a57d01461033b578063f6e888731461035b578063fc0c546a1461036e57610158565b8063899346c71461028b5780638da5cb5b1461029357806398278efb1461029b578063a87430ba146102ae578063aa7ed462146102cf578063b77b7dc9146102e257610158565b80634420e486116101155780634420e4861461021257806375506c9614610225578063797c7f5f1461022d5780637b0472f014610252578063862ba05f14610265578063875bb4e21461027857610158565b80631e43eb271461015d57806321923bde1461018657806328b496e5146101a657806328fe7031146101ca5780632e1a7d4d146101ea578063379607f5146101ff575b600080fd5b61017061016b366004611559565b610376565b60405161017d9190611592565b60405180910390f35b61019961019436600461150b565b610391565b60405161017d91906119ad565b6101b96101b4366004611559565b610495565b60405161017d9594939291906119c4565b6101dd6101d836600461150b565b6106ae565b60405161017d9190611633565b6101fd6101f8366004611559565b6107bd565b005b6101fd61020d366004611559565b61088e565b6101fd61022036600461150b565b610b4e565b610199610c7c565b61024061023b366004611559565b610c82565b60405161017d969594939291906115fe565b6101fd610260366004611571565b610eb8565b61019961027336600461150b565b611353565b610199610286366004611559565b611365565b610199611377565b61017061137d565b6101996102a936600461150b565b61138c565b6102c16102bc36600461150b565b6113a7565b60405161017d9291906115ca565b6101996102dd36600461150b565b6113ce565b6101996102f036600461150b565b6113e9565b610199610303366004611571565b6113fb565b61019961031636600461150b565b611480565b61032e61032936600461150b565b61149b565b60405161017d9190611677565b61034e610349366004611559565b6114c0565b60405161017d91906119e7565b61019961036936600461150b565b6114ea565b6101706114fc565b6003602052600090815260409020546001600160a01b031681565b6001600160a01b038116600090815260026020526040812054600160a01b900460ff166103d95760405162461bcd60e51b81526004016103d09061171f565b60405180910390fd5b6000825b6001600160a01b0381811660009081526002602052604090205416158015906104245750600080546001600160a01b03838116835260026020526040909220548216911614155b1561045a578161043381611a63565b6001600160a01b0392831660009081526002602052604090205490935090911690506103dd565b600080546001600160a01b038381168352600260205260409092205482169116141561048e578161048a81611a63565b9250505b5092915050565b60008181526003602052604081205481908190819081906001600160a01b0316806104d25760405162461bcd60e51b81526004016103d090611981565b6001600160a01b038116600090815260026020908152604080832060010180548251818502810185019093528083529192909190849084015b828210156105785760008481526020908190206040805160c08101825260068602909201805483526001808201548486015260028201549284019290925260038101546060840152600481015460808401526005015460ff16151560a0830152908352909201910161050b565b50505050905060005b815181101561068c57888282815181106105ab57634e487b7160e01b600052603260045260246000fd5b602002602001015160400151141561067a5760008282815181106105df57634e487b7160e01b600052603260045260246000fd5b6020026020010151602001519050600083838151811061060f57634e487b7160e01b600052603260045260246000fd5b602090810291909101810151608001516000818152600a909252604082205490925090618e94836106408487611a2d565b61064a9190611a2d565b6106549190611a0d565b905060006106628483611a0d565b949c50919a5092985091965094506106a59350505050565b8061068481611a63565b915050610581565b5060405162461bcd60e51b81526004016103d0906118c6565b91939590929450565b6001600160a01b0381166000908152600260205260408120600101546060918167ffffffffffffffff8111156106f457634e487b7160e01b600052604160045260246000fd5b60405190808252806020026020018201604052801561071d578160200160208202803683370190505b50905060005b828110156107b5576001600160a01b038516600090815260026020526040902060010180548290811061076657634e487b7160e01b600052603260045260246000fd5b90600052602060002090600602016002015482828151811061079857634e487b7160e01b600052603260045260246000fd5b6020908102919091010152806107ad81611a63565b915050610723565b509392505050565b6000546001600160a01b031633146107e75760405162461bcd60e51b81526004016103d090611800565b60015460005460405163a9059cbb60e01b81526001600160a01b039283169263a9059cbb9261081d9291169085906004016115e5565b602060405180830381600087803b15801561083757600080fd5b505af115801561084b573d6000803e3d6000fd5b505050506040513d601f19601f8201168201806040525081019061086f9190611539565b61088b5760405162461bcd60e51b81526004016103d090611774565b50565b33600090815260026020526040902054600160a01b900460ff166108c45760405162461bcd60e51b81526004016103d09061171f565b6000818152600360205260409020546001600160a01b03163381146108fb5760405162461bcd60e51b81526004016103d09061174c565b336000908152600260205260408120600101905b8154811015610b3557600082828154811061093a57634e487b7160e01b600052603260045260246000fd5b906000526020600020906006020190508481600201541415610b2257600581015460ff161561097b5760405162461bcd60e51b81526004016103d090611866565b6000620151808260030154426109919190611a4c565b61099b9190611a0d565b90506000826004015482106109e05760048301546000908152600a602052604090205460018401546064916109cf91611a2d565b6109d99190611a0d565b9050610a09565b60148210156109f157506000610a09565b60405162461bcd60e51b81526004016103d090611933565b60058301805460ff191660019081179091558054908401546001600160a01b039091169063a9059cbb903390610a409085906119f5565b6040518363ffffffff1660e01b8152600401610a5d9291906115e5565b602060405180830381600087803b158015610a7757600080fd5b505af1158015610a8b573d6000803e3d6000fd5b505050506040513d601f19601f82011682018060405250810190610aaf9190611539565b610acb5760405162461bcd60e51b81526004016103d090611837565b8260020154336001600160a01b03167f9cdcf2f7714cca3508c7f0110b04a90a80a3a8dd0e35de99689db74d28c5383e856001015484604051610b0f9291906119b6565b60405180910390a350505050505061088b565b5080610b2d81611a63565b91505061090f565b5060405162461bcd60e51b81526004016103d0906118ef565b33600090815260026020526040902054600160a01b900460ff1615610b855760405162461bcd60e51b81526004016103d0906117d4565b6001600160a01b038116331415610bae5760405162461bcd60e51b81526004016103d0906116b9565b6001600160a01b038116600090815260026020526040902054600160a01b900460ff16610bed5760405162461bcd60e51b81526004016103d090611682565b336000908152600260209081526040808320805460ff60a01b196001600160a01b0387166001600160a01b0319909216821716600160a01b17909155835260079091528120805491610c3e83611a63565b90915550506040516001600160a01b0382169033907f0a31ee9d46a828884b81003c8498156ea6aa15b9b54bdd0ef0b533d9eba57e5590600090a350565b60055481565b600081815260036020526040812054819081908190819081906001600160a01b031680610cc15760405162461bcd60e51b81526004016103d090611981565b6001600160a01b038116600090815260026020908152604080832060010180548251818502810185019093528083529192909190849084015b82821015610d675760008481526020908190206040805160c08101825260068602909201805483526001808201548486015260028201549284019290925260038101546060840152600481015460808401526005015460ff16151560a08301529083529092019101610cfa565b50505050905060005b815181101561068c5789828281518110610d9a57634e487b7160e01b600052603260045260246000fd5b6020026020010151604001511415610e9d5782828281518110610dcd57634e487b7160e01b600052603260045260246000fd5b602002602001015160000151838381518110610df957634e487b7160e01b600052603260045260246000fd5b602002602001015160200151848481518110610e2557634e487b7160e01b600052603260045260246000fd5b602002602001015160600151858581518110610e5157634e487b7160e01b600052603260045260246000fd5b602002602001015160800151868681518110610e7d57634e487b7160e01b600052603260045260246000fd5b602002602001015160a00151985098509850985098509850505050610eaf565b80610ea781611a63565b915050610d70565b91939550919395565b33600090815260026020526040902054600160a01b900460ff16610eee5760405162461bcd60e51b81526004016103d09061171f565b60008111610f0e5760405162461bcd60e51b81526004016103d09061179d565b6000828152600a6020526040902054610f395760405162461bcd60e51b81526004016103d09061188f565b6001546040516323b872dd60e01b81526001600160a01b03909116906323b872dd90610f6d903390309086906004016115a6565b602060405180830381600087803b158015610f8757600080fd5b505af1158015610f9b573d6000803e3d6000fd5b505050506040513d601f19601f82011682018060405250810190610fbf9190611539565b610fdb5760405162461bcd60e51b81526004016103d090611837565b6005805460009182610fec83611a63565b9091555060068054919250600091908261100583611a63565b919050559050600042905060026000336001600160a01b03166001600160a01b031681526020019081526020016000206001016040518060c00160405280858152602001868152602001848152602001838152602001878152602001600015158152509080600181540180825580915050600190039060005260206000209060060201600090919091909150600082015181600001556020820151816001015560408201518160020155606082015181600301556080820151816004015560a08201518160050160006101000a81548160ff0219169083151502179055505050336003600084815260200190815260200160002060006101000a8154816001600160a01b0302191690836001600160a01b03160217905550600060026000336001600160a01b03166001600160a01b0316815260200190815260200160002060000160009054906101000a90046001600160a01b0316905060005b60058160ff161015611305576001600160a01b03821661117f57611305565b6000606460048360ff16600581106111a757634e487b7160e01b600052603260045260246000fd5b6020810491909101546111c691601f166101000a900460ff1689611a2d565b6111d09190611a0d565b60015460405163a9059cbb60e01b81529192506001600160a01b03169063a9059cbb9061120390869085906004016115e5565b602060405180830381600087803b15801561121d57600080fd5b505af1158015611231573d6000803e3d6000fd5b505050506040513d601f19601f820116820180604052508101906112559190611539565b6112715760405162461bcd60e51b81526004016103d0906116e8565b6001600160a01b038316600090815260096020526040812080548392906112999084906119f5565b909155505060ff82166112d4576001600160a01b038316600090815260086020526040812080548392906112ce9084906119f5565b90915550505b506001600160a01b0391821660009081526002602052604090205490911690806112fd81611a7e565b915050611160565b508284336001600160a01b03167f9cfd25589d1eb8ad71e342a86a8524e83522e3936c0803048c08f6d9ad974f4088866040516113439291906119b6565b60405180910390a4505050505050565b60096020526000908152604090205481565b600a6020526000908152604090205481565b60065481565b6000546001600160a01b031681565b6001600160a01b031660009081526007602052604090205490565b6002602052600090815260409020546001600160a01b03811690600160a01b900460ff1682565b6001600160a01b031660009081526008602052604090205490565b60076020526000908152604090205481565b600080831161141c5760405162461bcd60e51b81526004016103d09061179d565b6000828152600a60205260409020546114475760405162461bcd60e51b81526004016103d09061188f565b6000828152600a6020526040902054618e94836114648387611a2d565b61146e9190611a2d565b6114789190611a0d565b949350505050565b6001600160a01b031660009081526009602052604090205490565b6001600160a01b0316600090815260026020526040902054600160a01b900460ff1690565b600481600581106114d057600080fd5b60209182820401919006915054906101000a900460ff1681565b60086020526000908152604090205481565b6001546001600160a01b031681565b60006020828403121561151c578081fd5b81356001600160a01b0381168114611532578182fd5b9392505050565b60006020828403121561154a578081fd5b81518015158114611532578182fd5b60006020828403121561156a578081fd5b5035919050565b60008060408385031215611583578081fd5b50508035926020909101359150565b6001600160a01b0391909116815260200190565b6001600160a01b039384168152919092166020820152604081019190915260600190565b6001600160a01b039290921682521515602082015260400190565b6001600160a01b03929092168252602082015260400190565b6001600160a01b039690961686526020860194909452604085019290925260608401526080830152151560a082015260c00190565b6020808252825182820181905260009190848201906040850190845b8181101561166b5783518352928401929184019160010161164f565b50909695505050505050565b901515815260200190565b60208082526017908201527f5265666572726572206e6f742072656769737465726564000000000000000000604082015260600190565b60208082526015908201527421b0b73737ba103932b332b9103cb7bab939b2b63360591b604082015260600190565b60208082526018908201527f526566657272616c207472616e73666572206661696c65640000000000000000604082015260600190565b602080825260139082015272155cd95c881b9bdd081c9959da5cdd195c9959606a1b604082015260600190565b6020808252600e908201526d4e6f7420796f7572207374616b6560901b604082015260600190565b6020808252600f908201526e15da5d1a191c985dc819985a5b1959608a1b604082015260600190565b6020808252601d908201527f416d6f756e74206d7573742062652067726561746572207468616e2030000000604082015260600190565b602080825260129082015271105b1c9958591e481c9959da5cdd195c995960721b604082015260600190565b60208082526017908201527f4f6e6c79206f776e65722063616e207769746864726177000000000000000000604082015260600190565b602080825260159082015274151bdad95b881d1c985b9cd9995c8819985a5b1959605a1b604082015260600190565b6020808252600f908201526e105b1c9958591e4818db185a5b5959608a1b604082015260600190565b60208082526018908201527f496e76616c6964207374616b696e67206475726174696f6e0000000000000000604082015260600190565b6020808252600f908201526e14dd185ad9481b9bdd08199bdd5b99608a1b604082015260600190565b60208082526024908201527f5374616b65206e6f7420666f756e6420666f7220676976656e20706f736974696040820152631bdb925960e21b606082015260800190565b6020808252602e908201527f43616e6e6f7420636c61696d206265747765656e203230206461797320616e6460408201526d10333ab63610323ab930ba34b7b760911b606082015260800190565b602080825260129082015271125b9d985b1a59081c1bdcda5d1a5bdb925960721b604082015260600190565b90815260200190565b918252602082015260400190565b948552602085019390935260408401919091526060830152608082015260a00190565b60ff91909116815260200190565b60008219821115611a0857611a08611a9e565b500190565b600082611a2857634e487b7160e01b81526012600452602481fd5b500490565b6000816000190483118215151615611a4757611a47611a9e565b500290565b600082821015611a5e57611a5e611a9e565b500390565b6000600019821415611a7757611a77611a9e565b5060010190565b600060ff821660ff811415611a9557611a95611a9e565b60010192915050565b634e487b7160e01b600052601160045260246000fdfea2646970667358221220ec786e9aebeaaab6da83a421d14604a5803fb07ce54d326d574377e7c259f0c464736f6c63430008000033",
					"opcodes": "PUSH2 0x120 PUSH1 0x40 MSTORE PUSH1 0x5 PUSH1 0x80 DUP2 DUP2 MSTORE PUSH1 0x3 PUSH1 0xA0 MSTORE PUSH1 0x2 PUSH1 0xC0 MSTORE PUSH1 0x1 PUSH1 0xE0 DUP2 SWAP1 MSTORE PUSH2 0x100 MSTORE PUSH3 0x30 SWAP2 PUSH1 0x4 SWAP2 SWAP1 PUSH3 0x1AB JUMP JUMPDEST POP CALLVALUE DUP1 ISZERO PUSH3 0x3E JUMPI PUSH1 0x0 DUP1 REVERT JUMPDEST POP PUSH1 0x40 MLOAD PUSH3 0x1E18 CODESIZE SUB DUP1 PUSH3 0x1E18 DUP4 CODECOPY DUP2 ADD PUSH1 0x40 DUP2 SWAP1 MSTORE PUSH3 0x61 SWAP2 PUSH3 0x279 JUMP JUMPDEST PUSH1 0x1 PUSH1 0x1 PUSH1 0xA0 SHL SUB DUP3 AND PUSH3 0x93 JUMPI PUSH1 0x40 MLOAD PUSH3 0x461BCD PUSH1 0xE5 SHL DUP2 MSTORE PUSH1 0x4 ADD PUSH3 0x8A SWAP1 PUSH3 0x2B0 JUMP JUMPDEST PUSH1 0x40 MLOAD DUP1 SWAP2 SUB SWAP1 REVERT JUMPDEST PUSH1 0x1 PUSH1 0x1 PUSH1 0xA0 SHL SUB DUP2 AND PUSH3 0xBC JUMPI PUSH1 0x40 MLOAD PUSH3 0x461BCD PUSH1 0xE5 SHL DUP2 MSTORE PUSH1 0x4 ADD PUSH3 0x8A SWAP1 PUSH3 0x2E7 JUMP JUMPDEST PUSH1 0x0 DUP1 SLOAD PUSH1 0x1 PUSH1 0x1 PUSH1 0xA0 SHL SUB SWAP4 DUP5 AND PUSH1 0x1 PUSH1 0x1 PUSH1 0xA0 SHL SUB NOT SWAP2 DUP3 AND OR DUP1 DUP4 SSTORE PUSH1 0x1 DUP1 SLOAD SWAP5 DUP7 AND SWAP5 SWAP1 SWAP3 AND SWAP4 SWAP1 SWAP4 OR DUP2 SSTORE SWAP2 SWAP1 SWAP3 AND DUP3 MSTORE PUSH1 0x2 PUSH1 0x20 SWAP1 DUP2 MSTORE PUSH1 0x40 DUP4 KECCAK256 DUP1 SLOAD PUSH1 0xFF PUSH1 0xA0 SHL NOT AND PUSH1 0x1 PUSH1 0xA0 SHL OR SWAP1 SSTORE PUSH1 0xA SWAP1 MSTORE PUSH32 0x579CF2BE734D9B04AE69AA2AC47F7D57A73216E05F35A9C951916F461F31449D SSTORE PUSH1 0x3 PUSH32 0x7F87218992B43F7EC59F3C8FD242B6759BFEDFC613FDC2676BC53B4637F8F351 SSTORE PUSH1 0x6 PUSH32 0x2F844FC0A0DF69DDDFD25D195A0052546DA08B9A0566E7BC05A95A3B80F0084C SSTORE PUSH2 0x16D SWAP1 MSTORE PUSH1 0xC PUSH32 0xD2808CFDC884998F3B7977877F7AF898C79F14530D4599F2F9E32946B2E1A1E4 SSTORE PUSH3 0x31E JUMP JUMPDEST PUSH1 0x1 DUP4 ADD SWAP2 DUP4 SWAP1 DUP3 ISZERO PUSH3 0x233 JUMPI SWAP2 PUSH1 0x20 MUL DUP3 ADD PUSH1 0x0 JUMPDEST DUP4 DUP3 GT ISZERO PUSH3 0x202 JUMPI DUP4 MLOAD DUP4 DUP3 PUSH2 0x100 EXP DUP2 SLOAD DUP2 PUSH1 0xFF MUL NOT AND SWAP1 DUP4 PUSH1 0xFF AND MUL OR SWAP1 SSTORE POP SWAP3 PUSH1 0x20 ADD SWAP3 PUSH1 0x1 ADD PUSH1 0x20 DUP2 PUSH1 0x0 ADD DIV SWAP3 DUP4 ADD SWAP3 PUSH1 0x1 SUB MUL PUSH3 0x1C2 JUMP JUMPDEST DUP1 ISZERO PUSH3 0x231 JUMPI DUP3 DUP2 PUSH2 0x100 EXP DUP2 SLOAD SWAP1 PUSH1 0xFF MUL NOT AND SWAP1 SSTORE PUSH1 0x1 ADD PUSH1 0x20 DUP2 PUSH1 0x0 ADD DIV SWAP3 DUP4 ADD SWAP3 PUSH1 0x1 SUB MUL PUSH3 0x202 JUMP JUMPDEST POP JUMPDEST POP PUSH3 0x241 SWAP3 SWAP2 POP PUSH3 0x245 JUMP JUMPDEST POP SWAP1 JUMP JUMPDEST JUMPDEST DUP1 DUP3 GT ISZERO PUSH3 0x241 JUMPI PUSH1 0x0 DUP2 SSTORE PUSH1 0x1 ADD PUSH3 0x246 JUMP JUMPDEST DUP1 MLOAD PUSH1 0x1 PUSH1 0x1 PUSH1 0xA0 SHL SUB DUP2 AND DUP2 EQ PUSH3 0x274 JUMPI PUSH1 0x0 DUP1 REVERT JUMPDEST SWAP2 SWAP1 POP JUMP JUMPDEST PUSH1 0x0 DUP1 PUSH1 0x40 DUP4 DUP6 SUB SLT ISZERO PUSH3 0x28C JUMPI DUP2 DUP3 REVERT JUMPDEST PUSH3 0x297 DUP4 PUSH3 0x25C JUMP JUMPDEST SWAP2 POP PUSH3 0x2A7 PUSH1 0x20 DUP5 ADD PUSH3 0x25C JUMP JUMPDEST SWAP1 POP SWAP3 POP SWAP3 SWAP1 POP JUMP JUMPDEST PUSH1 0x20 DUP1 DUP3 MSTORE PUSH1 0x1C SWAP1 DUP3 ADD MSTORE PUSH32 0x4F776E657220616464726573732063616E6E6F74206265207A65726F00000000 PUSH1 0x40 DUP3 ADD MSTORE PUSH1 0x60 ADD SWAP1 JUMP JUMPDEST PUSH1 0x20 DUP1 DUP3 MSTORE PUSH1 0x1C SWAP1 DUP3 ADD MSTORE PUSH32 0x546F6B656E20616464726573732063616E6E6F74206265207A65726F00000000 PUSH1 0x40 DUP3 ADD MSTORE PUSH1 0x60 ADD SWAP1 JUMP JUMPDEST PUSH2 0x1AEA DUP1 PUSH3 0x32E PUSH1 0x0 CODECOPY PUSH1 0x0 RETURN INVALID PUSH1 0x80 PUSH1 0x40 MSTORE CALLVALUE DUP1 ISZERO PUSH2 0x10 JUMPI PUSH1 0x0 DUP1 REVERT JUMPDEST POP PUSH1 0x4 CALLDATASIZE LT PUSH2 0x158 JUMPI PUSH1 0x0 CALLDATALOAD PUSH1 0xE0 SHR DUP1 PUSH4 0x899346C7 GT PUSH2 0xC3 JUMPI DUP1 PUSH4 0xBD297178 GT PUSH2 0x7C JUMPI DUP1 PUSH4 0xBD297178 EQ PUSH2 0x2F5 JUMPI DUP1 PUSH4 0xC2D3C677 EQ PUSH2 0x308 JUMPI DUP1 PUSH4 0xC3C5A547 EQ PUSH2 0x31B JUMPI DUP1 PUSH4 0xE45A57D0 EQ PUSH2 0x33B JUMPI DUP1 PUSH4 0xF6E88873 EQ PUSH2 0x35B JUMPI DUP1 PUSH4 0xFC0C546A EQ PUSH2 0x36E JUMPI PUSH2 0x158 JUMP JUMPDEST DUP1 PUSH4 0x899346C7 EQ PUSH2 0x28B JUMPI DUP1 PUSH4 0x8DA5CB5B EQ PUSH2 0x293 JUMPI DUP1 PUSH4 0x98278EFB EQ PUSH2 0x29B JUMPI DUP1 PUSH4 0xA87430BA EQ PUSH2 0x2AE JUMPI DUP1 PUSH4 0xAA7ED462 EQ PUSH2 0x2CF JUMPI DUP1 PUSH4 0xB77B7DC9 EQ PUSH2 0x2E2 JUMPI PUSH2 0x158 JUMP JUMPDEST DUP1 PUSH4 0x4420E486 GT PUSH2 0x115 JUMPI DUP1 PUSH4 0x4420E486 EQ PUSH2 0x212 JUMPI DUP1 PUSH4 0x75506C96 EQ PUSH2 0x225 JUMPI DUP1 PUSH4 0x797C7F5F EQ PUSH2 0x22D JUMPI DUP1 PUSH4 0x7B0472F0 EQ PUSH2 0x252 JUMPI DUP1 PUSH4 0x862BA05F EQ PUSH2 0x265 JUMPI DUP1 PUSH4 0x875BB4E2 EQ PUSH2 0x278 JUMPI PUSH2 0x158 JUMP JUMPDEST DUP1 PUSH4 0x1E43EB27 EQ PUSH2 0x15D JUMPI DUP1 PUSH4 0x21923BDE EQ PUSH2 0x186 JUMPI DUP1 PUSH4 0x28B496E5 EQ PUSH2 0x1A6 JUMPI DUP1 PUSH4 0x28FE7031 EQ PUSH2 0x1CA JUMPI DUP1 PUSH4 0x2E1A7D4D EQ PUSH2 0x1EA JUMPI DUP1 PUSH4 0x379607F5 EQ PUSH2 0x1FF JUMPI JUMPDEST PUSH1 0x0 DUP1 REVERT JUMPDEST PUSH2 0x170 PUSH2 0x16B CALLDATASIZE PUSH1 0x4 PUSH2 0x1559 JUMP JUMPDEST PUSH2 0x376 JUMP JUMPDEST PUSH1 0x40 MLOAD PUSH2 0x17D SWAP2 SWAP1 PUSH2 0x1592 JUMP JUMPDEST PUSH1 0x40 MLOAD DUP1 SWAP2 SUB SWAP1 RETURN JUMPDEST PUSH2 0x199 PUSH2 0x194 CALLDATASIZE PUSH1 0x4 PUSH2 0x150B JUMP JUMPDEST PUSH2 0x391 JUMP JUMPDEST PUSH1 0x40 MLOAD PUSH2 0x17D SWAP2 SWAP1 PUSH2 0x19AD JUMP JUMPDEST PUSH2 0x1B9 PUSH2 0x1B4 CALLDATASIZE PUSH1 0x4 PUSH2 0x1559 JUMP JUMPDEST PUSH2 0x495 JUMP JUMPDEST PUSH1 0x40 MLOAD PUSH2 0x17D SWAP6 SWAP5 SWAP4 SWAP3 SWAP2 SWAP1 PUSH2 0x19C4 JUMP JUMPDEST PUSH2 0x1DD PUSH2 0x1D8 CALLDATASIZE PUSH1 0x4 PUSH2 0x150B JUMP JUMPDEST PUSH2 0x6AE JUMP JUMPDEST PUSH1 0x40 MLOAD PUSH2 0x17D SWAP2 SWAP1 PUSH2 0x1633 JUMP JUMPDEST PUSH2 0x1FD PUSH2 0x1F8 CALLDATASIZE PUSH1 0x4 PUSH2 0x1559 JUMP JUMPDEST PUSH2 0x7BD JUMP JUMPDEST STOP JUMPDEST PUSH2 0x1FD PUSH2 0x20D CALLDATASIZE PUSH1 0x4 PUSH2 0x1559 JUMP JUMPDEST PUSH2 0x88E JUMP JUMPDEST PUSH2 0x1FD PUSH2 0x220 CALLDATASIZE PUSH1 0x4 PUSH2 0x150B JUMP JUMPDEST PUSH2 0xB4E JUMP JUMPDEST PUSH2 0x199 PUSH2 0xC7C JUMP JUMPDEST PUSH2 0x240 PUSH2 0x23B CALLDATASIZE PUSH1 0x4 PUSH2 0x1559 JUMP JUMPDEST PUSH2 0xC82 JUMP JUMPDEST PUSH1 0x40 MLOAD PUSH2 0x17D SWAP7 SWAP6 SWAP5 SWAP4 SWAP3 SWAP2 SWAP1 PUSH2 0x15FE JUMP JUMPDEST PUSH2 0x1FD PUSH2 0x260 CALLDATASIZE PUSH1 0x4 PUSH2 0x1571 JUMP JUMPDEST PUSH2 0xEB8 JUMP JUMPDEST PUSH2 0x199 PUSH2 0x273 CALLDATASIZE PUSH1 0x4 PUSH2 0x150B JUMP JUMPDEST PUSH2 0x1353 JUMP JUMPDEST PUSH2 0x199 PUSH2 0x286 CALLDATASIZE PUSH1 0x4 PUSH2 0x1559 JUMP JUMPDEST PUSH2 0x1365 JUMP JUMPDEST PUSH2 0x199 PUSH2 0x1377 JUMP JUMPDEST PUSH2 0x170 PUSH2 0x137D JUMP JUMPDEST PUSH2 0x199 PUSH2 0x2A9 CALLDATASIZE PUSH1 0x4 PUSH2 0x150B JUMP JUMPDEST PUSH2 0x138C JUMP JUMPDEST PUSH2 0x2C1 PUSH2 0x2BC CALLDATASIZE PUSH1 0x4 PUSH2 0x150B JUMP JUMPDEST PUSH2 0x13A7 JUMP JUMPDEST PUSH1 0x40 MLOAD PUSH2 0x17D SWAP3 SWAP2 SWAP1 PUSH2 0x15CA JUMP JUMPDEST PUSH2 0x199 PUSH2 0x2DD CALLDATASIZE PUSH1 0x4 PUSH2 0x150B JUMP JUMPDEST PUSH2 0x13CE JUMP JUMPDEST PUSH2 0x199 PUSH2 0x2F0 CALLDATASIZE PUSH1 0x4 PUSH2 0x150B JUMP JUMPDEST PUSH2 0x13E9 JUMP JUMPDEST PUSH2 0x199 PUSH2 0x303 CALLDATASIZE PUSH1 0x4 PUSH2 0x1571 JUMP JUMPDEST PUSH2 0x13FB JUMP JUMPDEST PUSH2 0x199 PUSH2 0x316 CALLDATASIZE PUSH1 0x4 PUSH2 0x150B JUMP JUMPDEST PUSH2 0x1480 JUMP JUMPDEST PUSH2 0x32E PUSH2 0x329 CALLDATASIZE PUSH1 0x4 PUSH2 0x150B JUMP JUMPDEST PUSH2 0x149B JUMP JUMPDEST PUSH1 0x40 MLOAD PUSH2 0x17D SWAP2 SWAP1 PUSH2 0x1677 JUMP JUMPDEST PUSH2 0x34E PUSH2 0x349 CALLDATASIZE PUSH1 0x4 PUSH2 0x1559 JUMP JUMPDEST PUSH2 0x14C0 JUMP JUMPDEST PUSH1 0x40 MLOAD PUSH2 0x17D SWAP2 SWAP1 PUSH2 0x19E7 JUMP JUMPDEST PUSH2 0x199 PUSH2 0x369 CALLDATASIZE PUSH1 0x4 PUSH2 0x150B JUMP JUMPDEST PUSH2 0x14EA JUMP JUMPDEST PUSH2 0x170 PUSH2 0x14FC JUMP JUMPDEST PUSH1 0x3 PUSH1 0x20 MSTORE PUSH1 0x0 SWAP1 DUP2 MSTORE PUSH1 0x40 SWAP1 KECCAK256 SLOAD PUSH1 0x1 PUSH1 0x1 PUSH1 0xA0 SHL SUB AND DUP2 JUMP JUMPDEST PUSH1 0x1 PUSH1 0x1 PUSH1 0xA0 SHL SUB DUP2 AND PUSH1 0x0 SWAP1 DUP2 MSTORE PUSH1 0x2 PUSH1 0x20 MSTORE PUSH1 0x40 DUP2 KECCAK256 SLOAD PUSH1 0x1 PUSH1 0xA0 SHL SWAP1 DIV PUSH1 0xFF AND PUSH2 0x3D9 JUMPI PUSH1 0x40 MLOAD PUSH3 0x461BCD PUSH1 0xE5 SHL DUP2 MSTORE PUSH1 0x4 ADD PUSH2 0x3D0 SWAP1 PUSH2 0x171F JUMP JUMPDEST PUSH1 0x40 MLOAD DUP1 SWAP2 SUB SWAP1 REVERT JUMPDEST PUSH1 0x0 DUP3 JUMPDEST PUSH1 0x1 PUSH1 0x1 PUSH1 0xA0 SHL SUB DUP2 DUP2 AND PUSH1 0x0 SWAP1 DUP2 MSTORE PUSH1 0x2 PUSH1 0x20 MSTORE PUSH1 0x40 SWAP1 KECCAK256 SLOAD AND ISZERO DUP1 ISZERO SWAP1 PUSH2 0x424 JUMPI POP PUSH1 0x0 DUP1 SLOAD PUSH1 0x1 PUSH1 0x1 PUSH1 0xA0 SHL SUB DUP4 DUP2 AND DUP4 MSTORE PUSH1 0x2 PUSH1 0x20 MSTORE PUSH1 0x40 SWAP1 SWAP3 KECCAK256 SLOAD DUP3 AND SWAP2 AND EQ ISZERO JUMPDEST ISZERO PUSH2 0x45A JUMPI DUP2 PUSH2 0x433 DUP2 PUSH2 0x1A63 JUMP JUMPDEST PUSH1 0x1 PUSH1 0x1 PUSH1 0xA0 SHL SUB SWAP3 DUP4 AND PUSH1 0x0 SWAP1 DUP2 MSTORE PUSH1 0x2 PUSH1 0x20 MSTORE PUSH1 0x40 SWAP1 KECCAK256 SLOAD SWAP1 SWAP4 POP SWAP1 SWAP2 AND SWAP1 POP PUSH2 0x3DD JUMP JUMPDEST PUSH1 0x0 DUP1 SLOAD PUSH1 0x1 PUSH1 0x1 PUSH1 0xA0 SHL SUB DUP4 DUP2 AND DUP4 MSTORE PUSH1 0x2 PUSH1 0x20 MSTORE PUSH1 0x40 SWAP1 SWAP3 KECCAK256 SLOAD DUP3 AND SWAP2 AND EQ ISZERO PUSH2 0x48E JUMPI DUP2 PUSH2 0x48A DUP2 PUSH2 0x1A63 JUMP JUMPDEST SWAP3 POP POP JUMPDEST POP SWAP3 SWAP2 POP POP JUMP JUMPDEST PUSH1 0x0 DUP2 DUP2 MSTORE PUSH1 0x3 PUSH1 0x20 MSTORE PUSH1 0x40 DUP2 KECCAK256 SLOAD DUP2 SWAP1 DUP2 SWAP1 DUP2 SWAP1 DUP2 SWAP1 PUSH1 0x1 PUSH1 0x1 PUSH1 0xA0 SHL SUB AND DUP1 PUSH2 0x4D2 JUMPI PUSH1 0x40 MLOAD PUSH3 0x461BCD PUSH1 0xE5 SHL DUP2 MSTORE PUSH1 0x4 ADD PUSH2 0x3D0 SWAP1 PUSH2 0x1981 JUMP JUMPDEST PUSH1 0x1 PUSH1 0x1 PUSH1 0xA0 SHL SUB DUP2 AND PUSH1 0x0 SWAP1 DUP2 MSTORE PUSH1 0x2 PUSH1 0x20 SWAP1 DUP2 MSTORE PUSH1 0x40 DUP1 DUP4 KECCAK256 PUSH1 0x1 ADD DUP1 SLOAD DUP3 MLOAD DUP2 DUP6 MUL DUP2 ADD DUP6 ADD SWAP1 SWAP4 MSTORE DUP1 DUP4 MSTORE SWAP2 SWAP3 SWAP1 SWAP2 SWAP1 DUP5 SWAP1 DUP5 ADD JUMPDEST DUP3 DUP3 LT ISZERO PUSH2 0x578 JUMPI PUSH1 0x0 DUP5 DUP2 MSTORE PUSH1 0x20 SWAP1 DUP2 SWAP1 KECCAK256 PUSH1 0x40 DUP1 MLOAD PUSH1 0xC0 DUP2 ADD DUP3 MSTORE PUSH1 0x6 DUP7 MUL SWAP1 SWAP3 ADD DUP1 SLOAD DUP4 MSTORE PUSH1 0x1 DUP1 DUP3 ADD SLOAD DUP5 DUP7 ADD MSTORE PUSH1 0x2 DUP3 ADD SLOAD SWAP3 DUP5 ADD SWAP3 SWAP1 SWAP3 MSTORE PUSH1 0x3 DUP2 ADD SLOAD PUSH1 0x60 DUP5 ADD MSTORE PUSH1 0x4 DUP2 ADD SLOAD PUSH1 0x80 DUP5 ADD MSTORE PUSH1 0x5 ADD SLOAD PUSH1 0xFF AND ISZERO ISZERO PUSH1 0xA0 DUP4 ADD MSTORE SWAP1 DUP4 MSTORE SWAP1 SWAP3 ADD SWAP2 ADD PUSH2 0x50B JUMP JUMPDEST POP POP POP POP SWAP1 POP PUSH1 0x0 JUMPDEST DUP2 MLOAD DUP2 LT ISZERO PUSH2 0x68C JUMPI DUP9 DUP3 DUP3 DUP2 MLOAD DUP2 LT PUSH2 0x5AB JUMPI PUSH4 0x4E487B71 PUSH1 0xE0 SHL PUSH1 0x0 MSTORE PUSH1 0x32 PUSH1 0x4 MSTORE PUSH1 0x24 PUSH1 0x0 REVERT JUMPDEST PUSH1 0x20 MUL PUSH1 0x20 ADD ADD MLOAD PUSH1 0x40 ADD MLOAD EQ ISZERO PUSH2 0x67A JUMPI PUSH1 0x0 DUP3 DUP3 DUP2 MLOAD DUP2 LT PUSH2 0x5DF JUMPI PUSH4 0x4E487B71 PUSH1 0xE0 SHL PUSH1 0x0 MSTORE PUSH1 0x32 PUSH1 0x4 MSTORE PUSH1 0x24 PUSH1 0x0 REVERT JUMPDEST PUSH1 0x20 MUL PUSH1 0x20 ADD ADD MLOAD PUSH1 0x20 ADD MLOAD SWAP1 POP PUSH1 0x0 DUP4 DUP4 DUP2 MLOAD DUP2 LT PUSH2 0x60F JUMPI PUSH4 0x4E487B71 PUSH1 0xE0 SHL PUSH1 0x0 MSTORE PUSH1 0x32 PUSH1 0x4 MSTORE PUSH1 0x24 PUSH1 0x0 REVERT JUMPDEST PUSH1 0x20 SWAP1 DUP2 MUL SWAP2 SWAP1 SWAP2 ADD DUP2 ADD MLOAD PUSH1 0x80 ADD MLOAD PUSH1 0x0 DUP2 DUP2 MSTORE PUSH1 0xA SWAP1 SWAP3 MSTORE PUSH1 0x40 DUP3 KECCAK256 SLOAD SWAP1 SWAP3 POP SWAP1 PUSH2 0x8E94 DUP4 PUSH2 0x640 DUP5 DUP8 PUSH2 0x1A2D JUMP JUMPDEST PUSH2 0x64A SWAP2 SWAP1 PUSH2 0x1A2D JUMP JUMPDEST PUSH2 0x654 SWAP2 SWAP1 PUSH2 0x1A0D JUMP JUMPDEST SWAP1 POP PUSH1 0x0 PUSH2 0x662 DUP5 DUP4 PUSH2 0x1A0D JUMP JUMPDEST SWAP5 SWAP13 POP SWAP2 SWAP11 POP SWAP3 SWAP9 POP SWAP2 SWAP7 POP SWAP5 POP PUSH2 0x6A5 SWAP4 POP POP POP POP JUMP JUMPDEST DUP1 PUSH2 0x684 DUP2 PUSH2 0x1A63 JUMP JUMPDEST SWAP2 POP POP PUSH2 0x581 JUMP JUMPDEST POP PUSH1 0x40 MLOAD PUSH3 0x461BCD PUSH1 0xE5 SHL DUP2 MSTORE PUSH1 0x4 ADD PUSH2 0x3D0 SWAP1 PUSH2 0x18C6 JUMP JUMPDEST SWAP2 SWAP4 SWAP6 SWAP1 SWAP3 SWAP5 POP JUMP JUMPDEST PUSH1 0x1 PUSH1 0x1 PUSH1 0xA0 SHL SUB DUP2 AND PUSH1 0x0 SWAP1 DUP2 MSTORE PUSH1 0x2 PUSH1 0x20 MSTORE PUSH1 0x40 DUP2 KECCAK256 PUSH1 0x1 ADD SLOAD PUSH1 0x60 SWAP2 DUP2 PUSH8 0xFFFFFFFFFFFFFFFF DUP2 GT ISZERO PUSH2 0x6F4 JUMPI PUSH4 0x4E487B71 PUSH1 0xE0 SHL PUSH1 0x0 MSTORE PUSH1 0x41 PUSH1 0x4 MSTORE PUSH1 0x24 PUSH1 0x0 REVERT JUMPDEST PUSH1 0x40 MLOAD SWAP1 DUP1 DUP3 MSTORE DUP1 PUSH1 0x20 MUL PUSH1 0x20 ADD DUP3 ADD PUSH1 0x40 MSTORE DUP1 ISZERO PUSH2 0x71D JUMPI DUP2 PUSH1 0x20 ADD PUSH1 0x20 DUP3 MUL DUP1 CALLDATASIZE DUP4 CALLDATACOPY ADD SWAP1 POP JUMPDEST POP SWAP1 POP PUSH1 0x0 JUMPDEST DUP3 DUP2 LT ISZERO PUSH2 0x7B5 JUMPI PUSH1 0x1 PUSH1 0x1 PUSH1 0xA0 SHL SUB DUP6 AND PUSH1 0x0 SWAP1 DUP2 MSTORE PUSH1 0x2 PUSH1 0x20 MSTORE PUSH1 0x40 SWAP1 KECCAK256 PUSH1 0x1 ADD DUP1 SLOAD DUP3 SWAP1 DUP2 LT PUSH2 0x766 JUMPI PUSH4 0x4E487B71 PUSH1 0xE0 SHL PUSH1 0x0 MSTORE PUSH1 0x32 PUSH1 0x4 MSTORE PUSH1 0x24 PUSH1 0x0 REVERT JUMPDEST SWAP1 PUSH1 0x0 MSTORE PUSH1 0x20 PUSH1 0x0 KECCAK256 SWAP1 PUSH1 0x6 MUL ADD PUSH1 0x2 ADD SLOAD DUP3 DUP3 DUP2 MLOAD DUP2 LT PUSH2 0x798 JUMPI PUSH4 0x4E487B71 PUSH1 0xE0 SHL PUSH1 0x0 MSTORE PUSH1 0x32 PUSH1 0x4 MSTORE PUSH1 0x24 PUSH1 0x0 REVERT JUMPDEST PUSH1 0x20 SWAP1 DUP2 MUL SWAP2 SWAP1 SWAP2 ADD ADD MSTORE DUP1 PUSH2 0x7AD DUP2 PUSH2 0x1A63 JUMP JUMPDEST SWAP2 POP POP PUSH2 0x723 JUMP JUMPDEST POP SWAP4 SWAP3 POP POP POP JUMP JUMPDEST PUSH1 0x0 SLOAD PUSH1 0x1 PUSH1 0x1 PUSH1 0xA0 SHL SUB AND CALLER EQ PUSH2 0x7E7 JUMPI PUSH1 0x40 MLOAD PUSH3 0x461BCD PUSH1 0xE5 SHL DUP2 MSTORE PUSH1 0x4 ADD PUSH2 0x3D0 SWAP1 PUSH2 0x1800 JUMP JUMPDEST PUSH1 0x1 SLOAD PUSH1 0x0 SLOAD PUSH1 0x40 MLOAD PUSH4 0xA9059CBB PUSH1 0xE0 SHL DUP2 MSTORE PUSH1 0x1 PUSH1 0x1 PUSH1 0xA0 SHL SUB SWAP3 DUP4 AND SWAP3 PUSH4 0xA9059CBB SWAP3 PUSH2 0x81D SWAP3 SWAP2 AND SWAP1 DUP6 SWAP1 PUSH1 0x4 ADD PUSH2 0x15E5 JUMP JUMPDEST PUSH1 0x20 PUSH1 0x40 MLOAD DUP1 DUP4 SUB DUP2 PUSH1 0x0 DUP8 DUP1 EXTCODESIZE ISZERO DUP1 ISZERO PUSH2 0x837 JUMPI PUSH1 0x0 DUP1 REVERT JUMPDEST POP GAS CALL ISZERO DUP1 ISZERO PUSH2 0x84B JUMPI RETURNDATASIZE PUSH1 0x0 DUP1 RETURNDATACOPY RETURNDATASIZE PUSH1 0x0 REVERT JUMPDEST POP POP POP POP PUSH1 0x40 MLOAD RETURNDATASIZE PUSH1 0x1F NOT PUSH1 0x1F DUP3 ADD AND DUP3 ADD DUP1 PUSH1 0x40 MSTORE POP DUP2 ADD SWAP1 PUSH2 0x86F SWAP2 SWAP1 PUSH2 0x1539 JUMP JUMPDEST PUSH2 0x88B JUMPI PUSH1 0x40 MLOAD PUSH3 0x461BCD PUSH1 0xE5 SHL DUP2 MSTORE PUSH1 0x4 ADD PUSH2 0x3D0 SWAP1 PUSH2 0x1774 JUMP JUMPDEST POP JUMP JUMPDEST CALLER PUSH1 0x0 SWAP1 DUP2 MSTORE PUSH1 0x2 PUSH1 0x20 MSTORE PUSH1 0x40 SWAP1 KECCAK256 SLOAD PUSH1 0x1 PUSH1 0xA0 SHL SWAP1 DIV PUSH1 0xFF AND PUSH2 0x8C4 JUMPI PUSH1 0x40 MLOAD PUSH3 0x461BCD PUSH1 0xE5 SHL DUP2 MSTORE PUSH1 0x4 ADD PUSH2 0x3D0 SWAP1 PUSH2 0x171F JUMP JUMPDEST PUSH1 0x0 DUP2 DUP2 MSTORE PUSH1 0x3 PUSH1 0x20 MSTORE PUSH1 0x40 SWAP1 KECCAK256 SLOAD PUSH1 0x1 PUSH1 0x1 PUSH1 0xA0 SHL SUB AND CALLER DUP2 EQ PUSH2 0x8FB JUMPI PUSH1 0x40 MLOAD PUSH3 0x461BCD PUSH1 0xE5 SHL DUP2 MSTORE PUSH1 0x4 ADD PUSH2 0x3D0 SWAP1 PUSH2 0x174C JUMP JUMPDEST CALLER PUSH1 0x0 SWAP1 DUP2 MSTORE PUSH1 0x2 PUSH1 0x20 MSTORE PUSH1 0x40 DUP2 KECCAK256 PUSH1 0x1 ADD SWAP1 JUMPDEST DUP2 SLOAD DUP2 LT ISZERO PUSH2 0xB35 JUMPI PUSH1 0x0 DUP3 DUP3 DUP2 SLOAD DUP2 LT PUSH2 0x93A JUMPI PUSH4 0x4E487B71 PUSH1 0xE0 SHL PUSH1 0x0 MSTORE PUSH1 0x32 PUSH1 0x4 MSTORE PUSH1 0x24 PUSH1 0x0 REVERT JUMPDEST SWAP1 PUSH1 0x0 MSTORE PUSH1 0x20 PUSH1 0x0 KECCAK256 SWAP1 PUSH1 0x6 MUL ADD SWAP1 POP DUP5 DUP2 PUSH1 0x2 ADD SLOAD EQ ISZERO PUSH2 0xB22 JUMPI PUSH1 0x5 DUP2 ADD SLOAD PUSH1 0xFF AND ISZERO PUSH2 0x97B JUMPI PUSH1 0x40 MLOAD PUSH3 0x461BCD PUSH1 0xE5 SHL DUP2 MSTORE PUSH1 0x4 ADD PUSH2 0x3D0 SWAP1 PUSH2 0x1866 JUMP JUMPDEST PUSH1 0x0 PUSH3 0x15180 DUP3 PUSH1 0x3 ADD SLOAD TIMESTAMP PUSH2 0x991 SWAP2 SWAP1 PUSH2 0x1A4C JUMP JUMPDEST PUSH2 0x99B SWAP2 SWAP1 PUSH2 0x1A0D JUMP JUMPDEST SWAP1 POP PUSH1 0x0 DUP3 PUSH1 0x4 ADD SLOAD DUP3 LT PUSH2 0x9E0 JUMPI PUSH1 0x4 DUP4 ADD SLOAD PUSH1 0x0 SWAP1 DUP2 MSTORE PUSH1 0xA PUSH1 0x20 MSTORE PUSH1 0x40 SWAP1 KECCAK256 SLOAD PUSH1 0x1 DUP5 ADD SLOAD PUSH1 0x64 SWAP2 PUSH2 0x9CF SWAP2 PUSH2 0x1A2D JUMP JUMPDEST PUSH2 0x9D9 SWAP2 SWAP1 PUSH2 0x1A0D JUMP JUMPDEST SWAP1 POP PUSH2 0xA09 JUMP JUMPDEST PUSH1 0x14 DUP3 LT ISZERO PUSH2 0x9F1 JUMPI POP PUSH1 0x0 PUSH2 0xA09 JUMP JUMPDEST PUSH1 0x40 MLOAD PUSH3 0x461BCD PUSH1 0xE5 SHL DUP2 MSTORE PUSH1 0x4 ADD PUSH2 0x3D0 SWAP1 PUSH2 0x1933 JUMP JUMPDEST PUSH1 0x5 DUP4 ADD DUP1 SLOAD PUSH1 0xFF NOT AND PUSH1 0x1 SWAP1 DUP2 OR SWAP1 SWAP2 SSTORE DUP1 SLOAD SWAP1 DUP5 ADD SLOAD PUSH1 0x1 PUSH1 0x1 PUSH1 0xA0 SHL SUB SWAP1 SWAP2 AND SWAP1 PUSH4 0xA9059CBB SWAP1 CALLER SWAP1 PUSH2 0xA40 SWAP1 DUP6 SWAP1 PUSH2 0x19F5 JUMP JUMPDEST PUSH1 0x40 MLOAD DUP4 PUSH4 0xFFFFFFFF AND PUSH1 0xE0 SHL DUP2 MSTORE PUSH1 0x4 ADD PUSH2 0xA5D SWAP3 SWAP2 SWAP1 PUSH2 0x15E5 JUMP JUMPDEST PUSH1 0x20 PUSH1 0x40 MLOAD DUP1 DUP4 SUB DUP2 PUSH1 0x0 DUP8 DUP1 EXTCODESIZE ISZERO DUP1 ISZERO PUSH2 0xA77 JUMPI PUSH1 0x0 DUP1 REVERT JUMPDEST POP GAS CALL ISZERO DUP1 ISZERO PUSH2 0xA8B JUMPI RETURNDATASIZE PUSH1 0x0 DUP1 RETURNDATACOPY RETURNDATASIZE PUSH1 0x0 REVERT JUMPDEST POP POP POP POP PUSH1 0x40 MLOAD RETURNDATASIZE PUSH1 0x1F NOT PUSH1 0x1F DUP3 ADD AND DUP3 ADD DUP1 PUSH1 0x40 MSTORE POP DUP2 ADD SWAP1 PUSH2 0xAAF SWAP2 SWAP1 PUSH2 0x1539 JUMP JUMPDEST PUSH2 0xACB JUMPI PUSH1 0x40 MLOAD PUSH3 0x461BCD PUSH1 0xE5 SHL DUP2 MSTORE PUSH1 0x4 ADD PUSH2 0x3D0 SWAP1 PUSH2 0x1837 JUMP JUMPDEST DUP3 PUSH1 0x2 ADD SLOAD CALLER PUSH1 0x1 PUSH1 0x1 PUSH1 0xA0 SHL SUB AND PUSH32 0x9CDCF2F7714CCA3508C7F0110B04A90A80A3A8DD0E35DE99689DB74D28C5383E DUP6 PUSH1 0x1 ADD SLOAD DUP5 PUSH1 0x40 MLOAD PUSH2 0xB0F SWAP3 SWAP2 SWAP1 PUSH2 0x19B6 JUMP JUMPDEST PUSH1 0x40 MLOAD DUP1 SWAP2 SUB SWAP1 LOG3 POP POP POP POP POP POP PUSH2 0x88B JUMP JUMPDEST POP DUP1 PUSH2 0xB2D DUP2 PUSH2 0x1A63 JUMP JUMPDEST SWAP2 POP POP PUSH2 0x90F JUMP JUMPDEST POP PUSH1 0x40 MLOAD PUSH3 0x461BCD PUSH1 0xE5 SHL DUP2 MSTORE PUSH1 0x4 ADD PUSH2 0x3D0 SWAP1 PUSH2 0x18EF JUMP JUMPDEST CALLER PUSH1 0x0 SWAP1 DUP2 MSTORE PUSH1 0x2 PUSH1 0x20 MSTORE PUSH1 0x40 SWAP1 KECCAK256 SLOAD PUSH1 0x1 PUSH1 0xA0 SHL SWAP1 DIV PUSH1 0xFF AND ISZERO PUSH2 0xB85 JUMPI PUSH1 0x40 MLOAD PUSH3 0x461BCD PUSH1 0xE5 SHL DUP2 MSTORE PUSH1 0x4 ADD PUSH2 0x3D0 SWAP1 PUSH2 0x17D4 JUMP JUMPDEST PUSH1 0x1 PUSH1 0x1 PUSH1 0xA0 SHL SUB DUP2 AND CALLER EQ ISZERO PUSH2 0xBAE JUMPI PUSH1 0x40 MLOAD PUSH3 0x461BCD PUSH1 0xE5 SHL DUP2 MSTORE PUSH1 0x4 ADD PUSH2 0x3D0 SWAP1 PUSH2 0x16B9 JUMP JUMPDEST PUSH1 0x1 PUSH1 0x1 PUSH1 0xA0 SHL SUB DUP2 AND PUSH1 0x0 SWAP1 DUP2 MSTORE PUSH1 0x2 PUSH1 0x20 MSTORE PUSH1 0x40 SWAP1 KECCAK256 SLOAD PUSH1 0x1 PUSH1 0xA0 SHL SWAP1 DIV PUSH1 0xFF AND PUSH2 0xBED JUMPI PUSH1 0x40 MLOAD PUSH3 0x461BCD PUSH1 0xE5 SHL DUP2 MSTORE PUSH1 0x4 ADD PUSH2 0x3D0 SWAP1 PUSH2 0x1682 JUMP JUMPDEST CALLER PUSH1 0x0 SWAP1 DUP2 MSTORE PUSH1 0x2 PUSH1 0x20 SWAP1 DUP2 MSTORE PUSH1 0x40 DUP1 DUP4 KECCAK256 DUP1 SLOAD PUSH1 0xFF PUSH1 0xA0 SHL NOT PUSH1 0x1 PUSH1 0x1 PUSH1 0xA0 SHL SUB DUP8 AND PUSH1 0x1 PUSH1 0x1 PUSH1 0xA0 SHL SUB NOT SWAP1 SWAP3 AND DUP3 OR AND PUSH1 0x1 PUSH1 0xA0 SHL OR SWAP1 SWAP2 SSTORE DUP4 MSTORE PUSH1 0x7 SWAP1 SWAP2 MSTORE DUP2 KECCAK256 DUP1 SLOAD SWAP2 PUSH2 0xC3E DUP4 PUSH2 0x1A63 JUMP JUMPDEST SWAP1 SWAP2 SSTORE POP POP PUSH1 0x40 MLOAD PUSH1 0x1 PUSH1 0x1 PUSH1 0xA0 SHL SUB DUP3 AND SWAP1 CALLER SWAP1 PUSH32 0xA31EE9D46A828884B81003C8498156EA6AA15B9B54BDD0EF0B533D9EBA57E55 SWAP1 PUSH1 0x0 SWAP1 LOG3 POP JUMP JUMPDEST PUSH1 0x5 SLOAD DUP2 JUMP JUMPDEST PUSH1 0x0 DUP2 DUP2 MSTORE PUSH1 0x3 PUSH1 0x20 MSTORE PUSH1 0x40 DUP2 KECCAK256 SLOAD DUP2 SWAP1 DUP2 SWAP1 DUP2 SWAP1 DUP2 SWAP1 DUP2 SWAP1 PUSH1 0x1 PUSH1 0x1 PUSH1 0xA0 SHL SUB AND DUP1 PUSH2 0xCC1 JUMPI PUSH1 0x40 MLOAD PUSH3 0x461BCD PUSH1 0xE5 SHL DUP2 MSTORE PUSH1 0x4 ADD PUSH2 0x3D0 SWAP1 PUSH2 0x1981 JUMP JUMPDEST PUSH1 0x1 PUSH1 0x1 PUSH1 0xA0 SHL SUB DUP2 AND PUSH1 0x0 SWAP1 DUP2 MSTORE PUSH1 0x2 PUSH1 0x20 SWAP1 DUP2 MSTORE PUSH1 0x40 DUP1 DUP4 KECCAK256 PUSH1 0x1 ADD DUP1 SLOAD DUP3 MLOAD DUP2 DUP6 MUL DUP2 ADD DUP6 ADD SWAP1 SWAP4 MSTORE DUP1 DUP4 MSTORE SWAP2 SWAP3 SWAP1 SWAP2 SWAP1 DUP5 SWAP1 DUP5 ADD JUMPDEST DUP3 DUP3 LT ISZERO PUSH2 0xD67 JUMPI PUSH1 0x0 DUP5 DUP2 MSTORE PUSH1 0x20 SWAP1 DUP2 SWAP1 KECCAK256 PUSH1 0x40 DUP1 MLOAD PUSH1 0xC0 DUP2 ADD DUP3 MSTORE PUSH1 0x6 DUP7 MUL SWAP1 SWAP3 ADD DUP1 SLOAD DUP4 MSTORE PUSH1 0x1 DUP1 DUP3 ADD SLOAD DUP5 DUP7 ADD MSTORE PUSH1 0x2 DUP3 ADD SLOAD SWAP3 DUP5 ADD SWAP3 SWAP1 SWAP3 MSTORE PUSH1 0x3 DUP2 ADD SLOAD PUSH1 0x60 DUP5 ADD MSTORE PUSH1 0x4 DUP2 ADD SLOAD PUSH1 0x80 DUP5 ADD MSTORE PUSH1 0x5 ADD SLOAD PUSH1 0xFF AND ISZERO ISZERO PUSH1 0xA0 DUP4 ADD MSTORE SWAP1 DUP4 MSTORE SWAP1 SWAP3 ADD SWAP2 ADD PUSH2 0xCFA JUMP JUMPDEST POP POP POP POP SWAP1 POP PUSH1 0x0 JUMPDEST DUP2 MLOAD DUP2 LT ISZERO PUSH2 0x68C JUMPI DUP10 DUP3 DUP3 DUP2 MLOAD DUP2 LT PUSH2 0xD9A JUMPI PUSH4 0x4E487B71 PUSH1 0xE0 SHL PUSH1 0x0 MSTORE PUSH1 0x32 PUSH1 0x4 MSTORE PUSH1 0x24 PUSH1 0x0 REVERT JUMPDEST PUSH1 0x20 MUL PUSH1 0x20 ADD ADD MLOAD PUSH1 0x40 ADD MLOAD EQ ISZERO PUSH2 0xE9D JUMPI DUP3 DUP3 DUP3 DUP2 MLOAD DUP2 LT PUSH2 0xDCD JUMPI PUSH4 0x4E487B71 PUSH1 0xE0 SHL PUSH1 0x0 MSTORE PUSH1 0x32 PUSH1 0x4 MSTORE PUSH1 0x24 PUSH1 0x0 REVERT JUMPDEST PUSH1 0x20 MUL PUSH1 0x20 ADD ADD MLOAD PUSH1 0x0 ADD MLOAD DUP4 DUP4 DUP2 MLOAD DUP2 LT PUSH2 0xDF9 JUMPI PUSH4 0x4E487B71 PUSH1 0xE0 SHL PUSH1 0x0 MSTORE PUSH1 0x32 PUSH1 0x4 MSTORE PUSH1 0x24 PUSH1 0x0 REVERT JUMPDEST PUSH1 0x20 MUL PUSH1 0x20 ADD ADD MLOAD PUSH1 0x20 ADD MLOAD DUP5 DUP5 DUP2 MLOAD DUP2 LT PUSH2 0xE25 JUMPI PUSH4 0x4E487B71 PUSH1 0xE0 SHL PUSH1 0x0 MSTORE PUSH1 0x32 PUSH1 0x4 MSTORE PUSH1 0x24 PUSH1 0x0 REVERT JUMPDEST PUSH1 0x20 MUL PUSH1 0x20 ADD ADD MLOAD PUSH1 0x60 ADD MLOAD DUP6 DUP6 DUP2 MLOAD DUP2 LT PUSH2 0xE51 JUMPI PUSH4 0x4E487B71 PUSH1 0xE0 SHL PUSH1 0x0 MSTORE PUSH1 0x32 PUSH1 0x4 MSTORE PUSH1 0x24 PUSH1 0x0 REVERT JUMPDEST PUSH1 0x20 MUL PUSH1 0x20 ADD ADD MLOAD PUSH1 0x80 ADD MLOAD DUP7 DUP7 DUP2 MLOAD DUP2 LT PUSH2 0xE7D JUMPI PUSH4 0x4E487B71 PUSH1 0xE0 SHL PUSH1 0x0 MSTORE PUSH1 0x32 PUSH1 0x4 MSTORE PUSH1 0x24 PUSH1 0x0 REVERT JUMPDEST PUSH1 0x20 MUL PUSH1 0x20 ADD ADD MLOAD PUSH1 0xA0 ADD MLOAD SWAP9 POP SWAP9 POP SWAP9 POP SWAP9 POP SWAP9 POP SWAP9 POP POP POP POP PUSH2 0xEAF JUMP JUMPDEST DUP1 PUSH2 0xEA7 DUP2 PUSH2 0x1A63 JUMP JUMPDEST SWAP2 POP POP PUSH2 0xD70 JUMP JUMPDEST SWAP2 SWAP4 SWAP6 POP SWAP2 SWAP4 SWAP6 JUMP JUMPDEST CALLER PUSH1 0x0 SWAP1 DUP2 MSTORE PUSH1 0x2 PUSH1 0x20 MSTORE PUSH1 0x40 SWAP1 KECCAK256 SLOAD PUSH1 0x1 PUSH1 0xA0 SHL SWAP1 DIV PUSH1 0xFF AND PUSH2 0xEEE JUMPI PUSH1 0x40 MLOAD PUSH3 0x461BCD PUSH1 0xE5 SHL DUP2 MSTORE PUSH1 0x4 ADD PUSH2 0x3D0 SWAP1 PUSH2 0x171F JUMP JUMPDEST PUSH1 0x0 DUP2 GT PUSH2 0xF0E JUMPI PUSH1 0x40 MLOAD PUSH3 0x461BCD PUSH1 0xE5 SHL DUP2 MSTORE PUSH1 0x4 ADD PUSH2 0x3D0 SWAP1 PUSH2 0x179D JUMP JUMPDEST PUSH1 0x0 DUP3 DUP2 MSTORE PUSH1 0xA PUSH1 0x20 MSTORE PUSH1 0x40 SWAP1 KECCAK256 SLOAD PUSH2 0xF39 JUMPI PUSH1 0x40 MLOAD PUSH3 0x461BCD PUSH1 0xE5 SHL DUP2 MSTORE PUSH1 0x4 ADD PUSH2 0x3D0 SWAP1 PUSH2 0x188F JUMP JUMPDEST PUSH1 0x1 SLOAD PUSH1 0x40 MLOAD PUSH4 0x23B872DD PUSH1 0xE0 SHL DUP2 MSTORE PUSH1 0x1 PUSH1 0x1 PUSH1 0xA0 SHL SUB SWAP1 SWAP2 AND SWAP1 PUSH4 0x23B872DD SWAP1 PUSH2 0xF6D SWAP1 CALLER SWAP1 ADDRESS SWAP1 DUP7 SWAP1 PUSH1 0x4 ADD PUSH2 0x15A6 JUMP JUMPDEST PUSH1 0x20 PUSH1 0x40 MLOAD DUP1 DUP4 SUB DUP2 PUSH1 0x0 DUP8 DUP1 EXTCODESIZE ISZERO DUP1 ISZERO PUSH2 0xF87 JUMPI PUSH1 0x0 DUP1 REVERT JUMPDEST POP GAS CALL ISZERO DUP1 ISZERO PUSH2 0xF9B JUMPI RETURNDATASIZE PUSH1 0x0 DUP1 RETURNDATACOPY RETURNDATASIZE PUSH1 0x0 REVERT JUMPDEST POP POP POP POP PUSH1 0x40 MLOAD RETURNDATASIZE PUSH1 0x1F NOT PUSH1 0x1F DUP3 ADD AND DUP3 ADD DUP1 PUSH1 0x40 MSTORE POP DUP2 ADD SWAP1 PUSH2 0xFBF SWAP2 SWAP1 PUSH2 0x1539 JUMP JUMPDEST PUSH2 0xFDB JUMPI PUSH1 0x40 MLOAD PUSH3 0x461BCD PUSH1 0xE5 SHL DUP2 MSTORE PUSH1 0x4 ADD PUSH2 0x3D0 SWAP1 PUSH2 0x1837 JUMP JUMPDEST PUSH1 0x5 DUP1 SLOAD PUSH1 0x0 SWAP2 DUP3 PUSH2 0xFEC DUP4 PUSH2 0x1A63 JUMP JUMPDEST SWAP1 SWAP2 SSTORE POP PUSH1 0x6 DUP1 SLOAD SWAP2 SWAP3 POP PUSH1 0x0 SWAP2 SWAP1 DUP3 PUSH2 0x1005 DUP4 PUSH2 0x1A63 JUMP JUMPDEST SWAP2 SWAP1 POP SSTORE SWAP1 POP PUSH1 0x0 TIMESTAMP SWAP1 POP PUSH1 0x2 PUSH1 0x0 CALLER PUSH1 0x1 PUSH1 0x1 PUSH1 0xA0 SHL SUB AND PUSH1 0x1 PUSH1 0x1 PUSH1 0xA0 SHL SUB AND DUP2 MSTORE PUSH1 0x20 ADD SWAP1 DUP2 MSTORE PUSH1 0x20 ADD PUSH1 0x0 KECCAK256 PUSH1 0x1 ADD PUSH1 0x40 MLOAD DUP1 PUSH1 0xC0 ADD PUSH1 0x40 MSTORE DUP1 DUP6 DUP2 MSTORE PUSH1 0x20 ADD DUP7 DUP2 MSTORE PUSH1 0x20 ADD DUP5 DUP2 MSTORE PUSH1 0x20 ADD DUP4 DUP2 MSTORE PUSH1 0x20 ADD DUP8 DUP2 MSTORE PUSH1 0x20 ADD PUSH1 0x0 ISZERO ISZERO DUP2 MSTORE POP SWAP1 DUP1 PUSH1 0x1 DUP2 SLOAD ADD DUP1 DUP3 SSTORE DUP1 SWAP2 POP POP PUSH1 0x1 SWAP1 SUB SWAP1 PUSH1 0x0 MSTORE PUSH1 0x20 PUSH1 0x0 KECCAK256 SWAP1 PUSH1 0x6 MUL ADD PUSH1 0x0 SWAP1 SWAP2 SWAP1 SWAP2 SWAP1 SWAP2 POP PUSH1 0x0 DUP3 ADD MLOAD DUP2 PUSH1 0x0 ADD SSTORE PUSH1 0x20 DUP3 ADD MLOAD DUP2 PUSH1 0x1 ADD SSTORE PUSH1 0x40 DUP3 ADD MLOAD DUP2 PUSH1 0x2 ADD SSTORE PUSH1 0x60 DUP3 ADD MLOAD DUP2 PUSH1 0x3 ADD SSTORE PUSH1 0x80 DUP3 ADD MLOAD DUP2 PUSH1 0x4 ADD SSTORE PUSH1 0xA0 DUP3 ADD MLOAD DUP2 PUSH1 0x5 ADD PUSH1 0x0 PUSH2 0x100 EXP DUP2 SLOAD DUP2 PUSH1 0xFF MUL NOT AND SWAP1 DUP4 ISZERO ISZERO MUL OR SWAP1 SSTORE POP POP POP CALLER PUSH1 0x3 PUSH1 0x0 DUP5 DUP2 MSTORE PUSH1 0x20 ADD SWAP1 DUP2 MSTORE PUSH1 0x20 ADD PUSH1 0x0 KECCAK256 PUSH1 0x0 PUSH2 0x100 EXP DUP2 SLOAD DUP2 PUSH1 0x1 PUSH1 0x1 PUSH1 0xA0 SHL SUB MUL NOT AND SWAP1 DUP4 PUSH1 0x1 PUSH1 0x1 PUSH1 0xA0 SHL SUB AND MUL OR SWAP1 SSTORE POP PUSH1 0x0 PUSH1 0x2 PUSH1 0x0 CALLER PUSH1 0x1 PUSH1 0x1 PUSH1 0xA0 SHL SUB AND PUSH1 0x1 PUSH1 0x1 PUSH1 0xA0 SHL SUB AND DUP2 MSTORE PUSH1 0x20 ADD SWAP1 DUP2 MSTORE PUSH1 0x20 ADD PUSH1 0x0 KECCAK256 PUSH1 0x0 ADD PUSH1 0x0 SWAP1 SLOAD SWAP1 PUSH2 0x100 EXP SWAP1 DIV PUSH1 0x1 PUSH1 0x1 PUSH1 0xA0 SHL SUB AND SWAP1 POP PUSH1 0x0 JUMPDEST PUSH1 0x5 DUP2 PUSH1 0xFF AND LT ISZERO PUSH2 0x1305 JUMPI PUSH1 0x1 PUSH1 0x1 PUSH1 0xA0 SHL SUB DUP3 AND PUSH2 0x117F JUMPI PUSH2 0x1305 JUMP JUMPDEST PUSH1 0x0 PUSH1 0x64 PUSH1 0x4 DUP4 PUSH1 0xFF AND PUSH1 0x5 DUP2 LT PUSH2 0x11A7 JUMPI PUSH4 0x4E487B71 PUSH1 0xE0 SHL PUSH1 0x0 MSTORE PUSH1 0x32 PUSH1 0x4 MSTORE PUSH1 0x24 PUSH1 0x0 REVERT JUMPDEST PUSH1 0x20 DUP2 DIV SWAP2 SWAP1 SWAP2 ADD SLOAD PUSH2 0x11C6 SWAP2 PUSH1 0x1F AND PUSH2 0x100 EXP SWAP1 DIV PUSH1 0xFF AND DUP10 PUSH2 0x1A2D JUMP JUMPDEST PUSH2 0x11D0 SWAP2 SWAP1 PUSH2 0x1A0D JUMP JUMPDEST PUSH1 0x1 SLOAD PUSH1 0x40 MLOAD PUSH4 0xA9059CBB PUSH1 0xE0 SHL DUP2 MSTORE SWAP2 SWAP3 POP PUSH1 0x1 PUSH1 0x1 PUSH1 0xA0 SHL SUB AND SWAP1 PUSH4 0xA9059CBB SWAP1 PUSH2 0x1203 SWAP1 DUP7 SWAP1 DUP6 SWAP1 PUSH1 0x4 ADD PUSH2 0x15E5 JUMP JUMPDEST PUSH1 0x20 PUSH1 0x40 MLOAD DUP1 DUP4 SUB DUP2 PUSH1 0x0 DUP8 DUP1 EXTCODESIZE ISZERO DUP1 ISZERO PUSH2 0x121D JUMPI PUSH1 0x0 DUP1 REVERT JUMPDEST POP GAS CALL ISZERO DUP1 ISZERO PUSH2 0x1231 JUMPI RETURNDATASIZE PUSH1 0x0 DUP1 RETURNDATACOPY RETURNDATASIZE PUSH1 0x0 REVERT JUMPDEST POP POP POP POP PUSH1 0x40 MLOAD RETURNDATASIZE PUSH1 0x1F NOT PUSH1 0x1F DUP3 ADD AND DUP3 ADD DUP1 PUSH1 0x40 MSTORE POP DUP2 ADD SWAP1 PUSH2 0x1255 SWAP2 SWAP1 PUSH2 0x1539 JUMP JUMPDEST PUSH2 0x1271 JUMPI PUSH1 0x40 MLOAD PUSH3 0x461BCD PUSH1 0xE5 SHL DUP2 MSTORE PUSH1 0x4 ADD PUSH2 0x3D0 SWAP1 PUSH2 0x16E8 JUMP JUMPDEST PUSH1 0x1 PUSH1 0x1 PUSH1 0xA0 SHL SUB DUP4 AND PUSH1 0x0 SWAP1 DUP2 MSTORE PUSH1 0x9 PUSH1 0x20 MSTORE PUSH1 0x40 DUP2 KECCAK256 DUP1 SLOAD DUP4 SWAP3 SWAP1 PUSH2 0x1299 SWAP1 DUP5 SWAP1 PUSH2 0x19F5 JUMP JUMPDEST SWAP1 SWAP2 SSTORE POP POP PUSH1 0xFF DUP3 AND PUSH2 0x12D4 JUMPI PUSH1 0x1 PUSH1 0x1 PUSH1 0xA0 SHL SUB DUP4 AND PUSH1 0x0 SWAP1 DUP2 MSTORE PUSH1 0x8 PUSH1 0x20 MSTORE PUSH1 0x40 DUP2 KECCAK256 DUP1 SLOAD DUP4 SWAP3 SWAP1 PUSH2 0x12CE SWAP1 DUP5 SWAP1 PUSH2 0x19F5 JUMP JUMPDEST SWAP1 SWAP2 SSTORE POP POP JUMPDEST POP PUSH1 0x1 PUSH1 0x1 PUSH1 0xA0 SHL SUB SWAP2 DUP3 AND PUSH1 0x0 SWAP1 DUP2 MSTORE PUSH1 0x2 PUSH1 0x20 MSTORE PUSH1 0x40 SWAP1 KECCAK256 SLOAD SWAP1 SWAP2 AND SWAP1 DUP1 PUSH2 0x12FD DUP2 PUSH2 0x1A7E JUMP JUMPDEST SWAP2 POP POP PUSH2 0x1160 JUMP JUMPDEST POP DUP3 DUP5 CALLER PUSH1 0x1 PUSH1 0x1 PUSH1 0xA0 SHL SUB AND PUSH32 0x9CFD25589D1EB8AD71E342A86A8524E83522E3936C0803048C08F6D9AD974F40 DUP9 DUP7 PUSH1 0x40 MLOAD PUSH2 0x1343 SWAP3 SWAP2 SWAP1 PUSH2 0x19B6 JUMP JUMPDEST PUSH1 0x40 MLOAD DUP1 SWAP2 SUB SWAP1 LOG4 POP POP POP POP POP POP JUMP JUMPDEST PUSH1 0x9 PUSH1 0x20 MSTORE PUSH1 0x0 SWAP1 DUP2 MSTORE PUSH1 0x40 SWAP1 KECCAK256 SLOAD DUP2 JUMP JUMPDEST PUSH1 0xA PUSH1 0x20 MSTORE PUSH1 0x0 SWAP1 DUP2 MSTORE PUSH1 0x40 SWAP1 KECCAK256 SLOAD DUP2 JUMP JUMPDEST PUSH1 0x6 SLOAD DUP2 JUMP JUMPDEST PUSH1 0x0 SLOAD PUSH1 0x1 PUSH1 0x1 PUSH1 0xA0 SHL SUB AND DUP2 JUMP JUMPDEST PUSH1 0x1 PUSH1 0x1 PUSH1 0xA0 SHL SUB AND PUSH1 0x0 SWAP1 DUP2 MSTORE PUSH1 0x7 PUSH1 0x20 MSTORE PUSH1 0x40 SWAP1 KECCAK256 SLOAD SWAP1 JUMP JUMPDEST PUSH1 0x2 PUSH1 0x20 MSTORE PUSH1 0x0 SWAP1 DUP2 MSTORE PUSH1 0x40 SWAP1 KECCAK256 SLOAD PUSH1 0x1 PUSH1 0x1 PUSH1 0xA0 SHL SUB DUP2 AND SWAP1 PUSH1 0x1 PUSH1 0xA0 SHL SWAP1 DIV PUSH1 0xFF AND DUP3 JUMP JUMPDEST PUSH1 0x1 PUSH1 0x1 PUSH1 0xA0 SHL SUB AND PUSH1 0x0 SWAP1 DUP2 MSTORE PUSH1 0x8 PUSH1 0x20 MSTORE PUSH1 0x40 SWAP1 KECCAK256 SLOAD SWAP1 JUMP JUMPDEST PUSH1 0x7 PUSH1 0x20 MSTORE PUSH1 0x0 SWAP1 DUP2 MSTORE PUSH1 0x40 SWAP1 KECCAK256 SLOAD DUP2 JUMP JUMPDEST PUSH1 0x0 DUP1 DUP4 GT PUSH2 0x141C JUMPI PUSH1 0x40 MLOAD PUSH3 0x461BCD PUSH1 0xE5 SHL DUP2 MSTORE PUSH1 0x4 ADD PUSH2 0x3D0 SWAP1 PUSH2 0x179D JUMP JUMPDEST PUSH1 0x0 DUP3 DUP2 MSTORE PUSH1 0xA PUSH1 0x20 MSTORE PUSH1 0x40 SWAP1 KECCAK256 SLOAD PUSH2 0x1447 JUMPI PUSH1 0x40 MLOAD PUSH3 0x461BCD PUSH1 0xE5 SHL DUP2 MSTORE PUSH1 0x4 ADD PUSH2 0x3D0 SWAP1 PUSH2 0x188F JUMP JUMPDEST PUSH1 0x0 DUP3 DUP2 MSTORE PUSH1 0xA PUSH1 0x20 MSTORE PUSH1 0x40 SWAP1 KECCAK256 SLOAD PUSH2 0x8E94 DUP4 PUSH2 0x1464 DUP4 DUP8 PUSH2 0x1A2D JUMP JUMPDEST PUSH2 0x146E SWAP2 SWAP1 PUSH2 0x1A2D JUMP JUMPDEST PUSH2 0x1478 SWAP2 SWAP1 PUSH2 0x1A0D JUMP JUMPDEST SWAP5 SWAP4 POP POP POP POP JUMP JUMPDEST PUSH1 0x1 PUSH1 0x1 PUSH1 0xA0 SHL SUB AND PUSH1 0x0 SWAP1 DUP2 MSTORE PUSH1 0x9 PUSH1 0x20 MSTORE PUSH1 0x40 SWAP1 KECCAK256 SLOAD SWAP1 JUMP JUMPDEST PUSH1 0x1 PUSH1 0x1 PUSH1 0xA0 SHL SUB AND PUSH1 0x0 SWAP1 DUP2 MSTORE PUSH1 0x2 PUSH1 0x20 MSTORE PUSH1 0x40 SWAP1 KECCAK256 SLOAD PUSH1 0x1 PUSH1 0xA0 SHL SWAP1 DIV PUSH1 0xFF AND SWAP1 JUMP JUMPDEST PUSH1 0x4 DUP2 PUSH1 0x5 DUP2 LT PUSH2 0x14D0 JUMPI PUSH1 0x0 DUP1 REVERT JUMPDEST PUSH1 0x20 SWAP2 DUP3 DUP3 DIV ADD SWAP2 SWAP1 MOD SWAP2 POP SLOAD SWAP1 PUSH2 0x100 EXP SWAP1 DIV PUSH1 0xFF AND DUP2 JUMP JUMPDEST PUSH1 0x8 PUSH1 0x20 MSTORE PUSH1 0x0 SWAP1 DUP2 MSTORE PUSH1 0x40 SWAP1 KECCAK256 SLOAD DUP2 JUMP JUMPDEST PUSH1 0x1 SLOAD PUSH1 0x1 PUSH1 0x1 PUSH1 0xA0 SHL SUB AND DUP2 JUMP JUMPDEST PUSH1 0x0 PUSH1 0x20 DUP3 DUP5 SUB SLT ISZERO PUSH2 0x151C JUMPI DUP1 DUP2 REVERT JUMPDEST DUP2 CALLDATALOAD PUSH1 0x1 PUSH1 0x1 PUSH1 0xA0 SHL SUB DUP2 AND DUP2 EQ PUSH2 0x1532 JUMPI DUP2 DUP3 REVERT JUMPDEST SWAP4 SWAP3 POP POP POP JUMP JUMPDEST PUSH1 0x0 PUSH1 0x20 DUP3 DUP5 SUB SLT ISZERO PUSH2 0x154A JUMPI DUP1 DUP2 REVERT JUMPDEST DUP2 MLOAD DUP1 ISZERO ISZERO DUP2 EQ PUSH2 0x1532 JUMPI DUP2 DUP3 REVERT JUMPDEST PUSH1 0x0 PUSH1 0x20 DUP3 DUP5 SUB SLT ISZERO PUSH2 0x156A JUMPI DUP1 DUP2 REVERT JUMPDEST POP CALLDATALOAD SWAP2 SWAP1 POP JUMP JUMPDEST PUSH1 0x0 DUP1 PUSH1 0x40 DUP4 DUP6 SUB SLT ISZERO PUSH2 0x1583 JUMPI DUP1 DUP2 REVERT JUMPDEST POP POP DUP1 CALLDATALOAD SWAP3 PUSH1 0x20 SWAP1 SWAP2 ADD CALLDATALOAD SWAP2 POP JUMP JUMPDEST PUSH1 0x1 PUSH1 0x1 PUSH1 0xA0 SHL SUB SWAP2 SWAP1 SWAP2 AND DUP2 MSTORE PUSH1 0x20 ADD SWAP1 JUMP JUMPDEST PUSH1 0x1 PUSH1 0x1 PUSH1 0xA0 SHL SUB SWAP4 DUP5 AND DUP2 MSTORE SWAP2 SWAP1 SWAP3 AND PUSH1 0x20 DUP3 ADD MSTORE PUSH1 0x40 DUP2 ADD SWAP2 SWAP1 SWAP2 MSTORE PUSH1 0x60 ADD SWAP1 JUMP JUMPDEST PUSH1 0x1 PUSH1 0x1 PUSH1 0xA0 SHL SUB SWAP3 SWAP1 SWAP3 AND DUP3 MSTORE ISZERO ISZERO PUSH1 0x20 DUP3 ADD MSTORE PUSH1 0x40 ADD SWAP1 JUMP JUMPDEST PUSH1 0x1 PUSH1 0x1 PUSH1 0xA0 SHL SUB SWAP3 SWAP1 SWAP3 AND DUP3 MSTORE PUSH1 0x20 DUP3 ADD MSTORE PUSH1 0x40 ADD SWAP1 JUMP JUMPDEST PUSH1 0x1 PUSH1 0x1 PUSH1 0xA0 SHL SUB SWAP7 SWAP1 SWAP7 AND DUP7 MSTORE PUSH1 0x20 DUP7 ADD SWAP5 SWAP1 SWAP5 MSTORE PUSH1 0x40 DUP6 ADD SWAP3 SWAP1 SWAP3 MSTORE PUSH1 0x60 DUP5 ADD MSTORE PUSH1 0x80 DUP4 ADD MSTORE ISZERO ISZERO PUSH1 0xA0 DUP3 ADD MSTORE PUSH1 0xC0 ADD SWAP1 JUMP JUMPDEST PUSH1 0x20 DUP1 DUP3 MSTORE DUP3 MLOAD DUP3 DUP3 ADD DUP2 SWAP1 MSTORE PUSH1 0x0 SWAP2 SWAP1 DUP5 DUP3 ADD SWAP1 PUSH1 0x40 DUP6 ADD SWAP1 DUP5 JUMPDEST DUP2 DUP2 LT ISZERO PUSH2 0x166B JUMPI DUP4 MLOAD DUP4 MSTORE SWAP3 DUP5 ADD SWAP3 SWAP2 DUP5 ADD SWAP2 PUSH1 0x1 ADD PUSH2 0x164F JUMP JUMPDEST POP SWAP1 SWAP7 SWAP6 POP POP POP POP POP POP JUMP JUMPDEST SWAP1 ISZERO ISZERO DUP2 MSTORE PUSH1 0x20 ADD SWAP1 JUMP JUMPDEST PUSH1 0x20 DUP1 DUP3 MSTORE PUSH1 0x17 SWAP1 DUP3 ADD MSTORE PUSH32 0x5265666572726572206E6F742072656769737465726564000000000000000000 PUSH1 0x40 DUP3 ADD MSTORE PUSH1 0x60 ADD SWAP1 JUMP JUMPDEST PUSH1 0x20 DUP1 DUP3 MSTORE PUSH1 0x15 SWAP1 DUP3 ADD MSTORE PUSH21 0x21B0B73737BA103932B332B9103CB7BAB939B2B633 PUSH1 0x59 SHL PUSH1 0x40 DUP3 ADD MSTORE PUSH1 0x60 ADD SWAP1 JUMP JUMPDEST PUSH1 0x20 DUP1 DUP3 MSTORE PUSH1 0x18 SWAP1 DUP3 ADD MSTORE PUSH32 0x526566657272616C207472616E73666572206661696C65640000000000000000 PUSH1 0x40 DUP3 ADD MSTORE PUSH1 0x60 ADD SWAP1 JUMP JUMPDEST PUSH1 0x20 DUP1 DUP3 MSTORE PUSH1 0x13 SWAP1 DUP3 ADD MSTORE PUSH19 0x155CD95C881B9BDD081C9959DA5CDD195C9959 PUSH1 0x6A SHL PUSH1 0x40 DUP3 ADD MSTORE PUSH1 0x60 ADD SWAP1 JUMP JUMPDEST PUSH1 0x20 DUP1 DUP3 MSTORE PUSH1 0xE SWAP1 DUP3 ADD MSTORE PUSH14 0x4E6F7420796F7572207374616B65 PUSH1 0x90 SHL PUSH1 0x40 DUP3 ADD MSTORE PUSH1 0x60 ADD SWAP1 JUMP JUMPDEST PUSH1 0x20 DUP1 DUP3 MSTORE PUSH1 0xF SWAP1 DUP3 ADD MSTORE PUSH15 0x15DA5D1A191C985DC819985A5B1959 PUSH1 0x8A SHL PUSH1 0x40 DUP3 ADD MSTORE PUSH1 0x60 ADD SWAP1 JUMP JUMPDEST PUSH1 0x20 DUP1 DUP3 MSTORE PUSH1 0x1D SWAP1 DUP3 ADD MSTORE PUSH32 0x416D6F756E74206D7573742062652067726561746572207468616E2030000000 PUSH1 0x40 DUP3 ADD MSTORE PUSH1 0x60 ADD SWAP1 JUMP JUMPDEST PUSH1 0x20 DUP1 DUP3 MSTORE PUSH1 0x12 SWAP1 DUP3 ADD MSTORE PUSH18 0x105B1C9958591E481C9959DA5CDD195C9959 PUSH1 0x72 SHL PUSH1 0x40 DUP3 ADD MSTORE PUSH1 0x60 ADD SWAP1 JUMP JUMPDEST PUSH1 0x20 DUP1 DUP3 MSTORE PUSH1 0x17 SWAP1 DUP3 ADD MSTORE PUSH32 0x4F6E6C79206F776E65722063616E207769746864726177000000000000000000 PUSH1 0x40 DUP3 ADD MSTORE PUSH1 0x60 ADD SWAP1 JUMP JUMPDEST PUSH1 0x20 DUP1 DUP3 MSTORE PUSH1 0x15 SWAP1 DUP3 ADD MSTORE PUSH21 0x151BDAD95B881D1C985B9CD9995C8819985A5B1959 PUSH1 0x5A SHL PUSH1 0x40 DUP3 ADD MSTORE PUSH1 0x60 ADD SWAP1 JUMP JUMPDEST PUSH1 0x20 DUP1 DUP3 MSTORE PUSH1 0xF SWAP1 DUP3 ADD MSTORE PUSH15 0x105B1C9958591E4818DB185A5B5959 PUSH1 0x8A SHL PUSH1 0x40 DUP3 ADD MSTORE PUSH1 0x60 ADD SWAP1 JUMP JUMPDEST PUSH1 0x20 DUP1 DUP3 MSTORE PUSH1 0x18 SWAP1 DUP3 ADD MSTORE PUSH32 0x496E76616C6964207374616B696E67206475726174696F6E0000000000000000 PUSH1 0x40 DUP3 ADD MSTORE PUSH1 0x60 ADD SWAP1 JUMP JUMPDEST PUSH1 0x20 DUP1 DUP3 MSTORE PUSH1 0xF SWAP1 DUP3 ADD MSTORE PUSH15 0x14DD185AD9481B9BDD08199BDD5B99 PUSH1 0x8A SHL PUSH1 0x40 DUP3 ADD MSTORE PUSH1 0x60 ADD SWAP1 JUMP JUMPDEST PUSH1 0x20 DUP1 DUP3 MSTORE PUSH1 0x24 SWAP1 DUP3 ADD MSTORE PUSH32 0x5374616B65206E6F7420666F756E6420666F7220676976656E20706F73697469 PUSH1 0x40 DUP3 ADD MSTORE PUSH4 0x1BDB9259 PUSH1 0xE2 SHL PUSH1 0x60 DUP3 ADD MSTORE PUSH1 0x80 ADD SWAP1 JUMP JUMPDEST PUSH1 0x20 DUP1 DUP3 MSTORE PUSH1 0x2E SWAP1 DUP3 ADD MSTORE PUSH32 0x43616E6E6F7420636C61696D206265747765656E203230206461797320616E64 PUSH1 0x40 DUP3 ADD MSTORE PUSH14 0x10333AB63610323AB930BA34B7B7 PUSH1 0x91 SHL PUSH1 0x60 DUP3 ADD MSTORE PUSH1 0x80 ADD SWAP1 JUMP JUMPDEST PUSH1 0x20 DUP1 DUP3 MSTORE PUSH1 0x12 SWAP1 DUP3 ADD MSTORE PUSH18 0x125B9D985B1A59081C1BDCDA5D1A5BDB9259 PUSH1 0x72 SHL PUSH1 0x40 DUP3 ADD MSTORE PUSH1 0x60 ADD SWAP1 JUMP JUMPDEST SWAP1 DUP2 MSTORE PUSH1 0x20 ADD SWAP1 JUMP JUMPDEST SWAP2 DUP3 MSTORE PUSH1 0x20 DUP3 ADD MSTORE PUSH1 0x40 ADD SWAP1 JUMP JUMPDEST SWAP5 DUP6 MSTORE PUSH1 0x20 DUP6 ADD SWAP4 SWAP1 SWAP4 MSTORE PUSH1 0x40 DUP5 ADD SWAP2 SWAP1 SWAP2 MSTORE PUSH1 0x60 DUP4 ADD MSTORE PUSH1 0x80 DUP3 ADD MSTORE PUSH1 0xA0 ADD SWAP1 JUMP JUMPDEST PUSH1 0xFF SWAP2 SWAP1 SWAP2 AND DUP2 MSTORE PUSH1 0x20 ADD SWAP1 JUMP JUMPDEST PUSH1 0x0 DUP3 NOT DUP3 GT ISZERO PUSH2 0x1A08 JUMPI PUSH2 0x1A08 PUSH2 0x1A9E JUMP JUMPDEST POP ADD SWAP1 JUMP JUMPDEST PUSH1 0x0 DUP3 PUSH2 0x1A28 JUMPI PUSH4 0x4E487B71 PUSH1 0xE0 SHL DUP2 MSTORE PUSH1 0x12 PUSH1 0x4 MSTORE PUSH1 0x24 DUP2 REVERT JUMPDEST POP DIV SWAP1 JUMP JUMPDEST PUSH1 0x0 DUP2 PUSH1 0x0 NOT DIV DUP4 GT DUP3 ISZERO ISZERO AND ISZERO PUSH2 0x1A47 JUMPI PUSH2 0x1A47 PUSH2 0x1A9E JUMP JUMPDEST POP MUL SWAP1 JUMP JUMPDEST PUSH1 0x0 DUP3 DUP3 LT ISZERO PUSH2 0x1A5E JUMPI PUSH2 0x1A5E PUSH2 0x1A9E JUMP JUMPDEST POP SUB SWAP1 JUMP JUMPDEST PUSH1 0x0 PUSH1 0x0 NOT DUP3 EQ ISZERO PUSH2 0x1A77 JUMPI PUSH2 0x1A77 PUSH2 0x1A9E JUMP JUMPDEST POP PUSH1 0x1 ADD SWAP1 JUMP JUMPDEST PUSH1 0x0 PUSH1 0xFF DUP3 AND PUSH1 0xFF DUP2 EQ ISZERO PUSH2 0x1A95 JUMPI PUSH2 0x1A95 PUSH2 0x1A9E JUMP JUMPDEST PUSH1 0x1 ADD SWAP3 SWAP2 POP POP JUMP JUMPDEST PUSH4 0x4E487B71 PUSH1 0xE0 SHL PUSH1 0x0 MSTORE PUSH1 0x11 PUSH1 0x4 MSTORE PUSH1 0x24 PUSH1 0x0 REVERT INVALID LOG2 PUSH5 0x6970667358 0x22 SLT KECCAK256 0xEC PUSH25 0x6E9AEBEAAAB6DA83A421D14604A5803FB07CE54D326D574377 0xE7 0xC2 MSIZE CREATE 0xC4 PUSH5 0x736F6C6343 STOP ADDMOD STOP STOP CALLER "
				},
				"gasEstimates": {
					"creation": {
						"codeDepositCost": "1378000",
						"executionCost": "infinite",
						"totalCost": "infinite"
					},
					"external": {
						"claim(uint256)": "infinite",
						"directReferralCount(address)": "1350",
						"directReferralIncome(address)": "1327",
						"getDirectReferralCount(address)": "1302",
						"getDirectReferralIncome(address)": "1346",
						"getEstimatedReturn(uint256,uint256)": "infinite",
						"getPositionIds(address)": "infinite",
						"getStakeByPositionId(uint256)": "infinite",
						"getStakeDailyReward(uint256)": "infinite",
						"getTotalIncome(address)": "1279",
						"getUserLevel(address)": "infinite",
						"isRegistered(address)": "1330",
						"levelRewards(uint256)": "2897",
						"nextPositionId()": "1051",
						"nextStakeId()": "1073",
						"owner()": "1115",
						"positionIdToUser(uint256)": "1237",
						"register(address)": "45639",
						"stake(uint256,uint256)": "infinite",
						"stakingAPY(uint256)": "1304",
						"token()": "1202",
						"totalIncome(address)": "1328",
						"users(address)": "1401",
						"withdraw(uint256)": "infinite"
					}
				},
				"methodIdentifiers": {
					"claim(uint256)": "379607f5",
					"directReferralCount(address)": "b77b7dc9",
					"directReferralIncome(address)": "f6e88873",
					"getDirectReferralCount(address)": "98278efb",
					"getDirectReferralIncome(address)": "aa7ed462",
					"getEstimatedReturn(uint256,uint256)": "bd297178",
					"getPositionIds(address)": "28fe7031",
					"getStakeByPositionId(uint256)": "797c7f5f",
					"getStakeDailyReward(uint256)": "28b496e5",
					"getTotalIncome(address)": "c2d3c677",
					"getUserLevel(address)": "21923bde",
					"isRegistered(address)": "c3c5a547",
					"levelRewards(uint256)": "e45a57d0",
					"nextPositionId()": "899346c7",
					"nextStakeId()": "75506c96",
					"owner()": "8da5cb5b",
					"positionIdToUser(uint256)": "1e43eb27",
					"register(address)": "4420e486",
					"stake(uint256,uint256)": "7b0472f0",
					"stakingAPY(uint256)": "875bb4e2",
					"token()": "fc0c546a",
					"totalIncome(address)": "862ba05f",
					"users(address)": "a87430ba",
					"withdraw(uint256)": "2e1a7d4d"
				}
			},
			"storageLayout": {
				"storage": [
					{
						"astId": 54,
						"contract": "contracts/sikkacoin.sol:MLMStaking",
						"label": "owner",
						"offset": 0,
						"slot": "0",
						"type": "t_address"
					},
					{
						"astId": 57,
						"contract": "contracts/sikkacoin.sol:MLMStaking",
						"label": "token",
						"offset": 0,
						"slot": "1",
						"type": "t_contract(IERC20)52"
					},
					{
						"astId": 84,
						"contract": "contracts/sikkacoin.sol:MLMStaking",
						"label": "users",
						"offset": 0,
						"slot": "2",
						"type": "t_mapping(t_address,t_struct(User)79_storage)"
					},
					{
						"astId": 88,
						"contract": "contracts/sikkacoin.sol:MLMStaking",
						"label": "positionIdToUser",
						"offset": 0,
						"slot": "3",
						"type": "t_mapping(t_uint256,t_address)"
					},
					{
						"astId": 98,
						"contract": "contracts/sikkacoin.sol:MLMStaking",
						"label": "levelRewards",
						"offset": 0,
						"slot": "4",
						"type": "t_array(t_uint8)5_storage"
					},
					{
						"astId": 100,
						"contract": "contracts/sikkacoin.sol:MLMStaking",
						"label": "nextStakeId",
						"offset": 0,
						"slot": "5",
						"type": "t_uint256"
					},
					{
						"astId": 102,
						"contract": "contracts/sikkacoin.sol:MLMStaking",
						"label": "nextPositionId",
						"offset": 0,
						"slot": "6",
						"type": "t_uint256"
					},
					{
						"astId": 106,
						"contract": "contracts/sikkacoin.sol:MLMStaking",
						"label": "directReferralCount",
						"offset": 0,
						"slot": "7",
						"type": "t_mapping(t_address,t_uint256)"
					},
					{
						"astId": 110,
						"contract": "contracts/sikkacoin.sol:MLMStaking",
						"label": "directReferralIncome",
						"offset": 0,
						"slot": "8",
						"type": "t_mapping(t_address,t_uint256)"
					},
					{
						"astId": 114,
						"contract": "contracts/sikkacoin.sol:MLMStaking",
						"label": "totalIncome",
						"offset": 0,
						"slot": "9",
						"type": "t_mapping(t_address,t_uint256)"
					},
					{
						"astId": 118,
						"contract": "contracts/sikkacoin.sol:MLMStaking",
						"label": "stakingAPY",
						"offset": 0,
						"slot": "10",
						"type": "t_mapping(t_uint256,t_uint256)"
					}
				],
				"types": {
					"t_address": {
						"encoding": "inplace",
						"label": "address",
						"numberOfBytes": "20"
					},
					"t_array(t_struct(Stake)70_storage)dyn_storage": {
						"base": "t_struct(Stake)70_storage",
						"encoding": "dynamic_array",
						"label": "struct MLMStaking.Stake[]",
						"numberOfBytes": "32"
					},
					"t_array(t_uint8)5_storage": {
						"base": "t_uint8",
						"encoding": "inplace",
						"label": "uint8[5]",
						"numberOfBytes": "32"
					},
					"t_bool": {
						"encoding": "inplace",
						"label": "bool",
						"numberOfBytes": "1"
					},
					"t_contract(IERC20)52": {
						"encoding": "inplace",
						"label": "contract IERC20",
						"numberOfBytes": "20"
					},
					"t_mapping(t_address,t_struct(User)79_storage)": {
						"encoding": "mapping",
						"key": "t_address",
						"label": "mapping(address => struct MLMStaking.User)",
						"numberOfBytes": "32",
						"value": "t_struct(User)79_storage"
					},
					"t_mapping(t_address,t_uint256)": {
						"encoding": "mapping",
						"key": "t_address",
						"label": "mapping(address => uint256)",
						"numberOfBytes": "32",
						"value": "t_uint256"
					},
					"t_mapping(t_uint256,t_address)": {
						"encoding": "mapping",
						"key": "t_uint256",
						"label": "mapping(uint256 => address)",
						"numberOfBytes": "32",
						"value": "t_address"
					},
					"t_mapping(t_uint256,t_uint256)": {
						"encoding": "mapping",
						"key": "t_uint256",
						"label": "mapping(uint256 => uint256)",
						"numberOfBytes": "32",
						"value": "t_uint256"
					},
					"t_struct(Stake)70_storage": {
						"encoding": "inplace",
						"label": "struct MLMStaking.Stake",
						"members": [
							{
								"astId": 59,
								"contract": "contracts/sikkacoin.sol:MLMStaking",
								"label": "stakeId",
								"offset": 0,
								"slot": "0",
								"type": "t_uint256"
							},
							{
								"astId": 61,
								"contract": "contracts/sikkacoin.sol:MLMStaking",
								"label": "amount",
								"offset": 0,
								"slot": "1",
								"type": "t_uint256"
							},
							{
								"astId": 63,
								"contract": "contracts/sikkacoin.sol:MLMStaking",
								"label": "positionId",
								"offset": 0,
								"slot": "2",
								"type": "t_uint256"
							},
							{
								"astId": 65,
								"contract": "contracts/sikkacoin.sol:MLMStaking",
								"label": "timestamp",
								"offset": 0,
								"slot": "3",
								"type": "t_uint256"
							},
							{
								"astId": 67,
								"contract": "contracts/sikkacoin.sol:MLMStaking",
								"label": "numDays",
								"offset": 0,
								"slot": "4",
								"type": "t_uint256"
							},
							{
								"astId": 69,
								"contract": "contracts/sikkacoin.sol:MLMStaking",
								"label": "claimed",
								"offset": 0,
								"slot": "5",
								"type": "t_bool"
							}
						],
						"numberOfBytes": "192"
					},
					"t_struct(User)79_storage": {
						"encoding": "inplace",
						"label": "struct MLMStaking.User",
						"members": [
							{
								"astId": 72,
								"contract": "contracts/sikkacoin.sol:MLMStaking",
								"label": "referrer",
								"offset": 0,
								"slot": "0",
								"type": "t_address"
							},
							{
								"astId": 74,
								"contract": "contracts/sikkacoin.sol:MLMStaking",
								"label": "registered",
								"offset": 20,
								"slot": "0",
								"type": "t_bool"
							},
							{
								"astId": 78,
								"contract": "contracts/sikkacoin.sol:MLMStaking",
								"label": "stakes",
								"offset": 0,
								"slot": "1",
								"type": "t_array(t_struct(Stake)70_storage)dyn_storage"
							}
						],
						"numberOfBytes": "64"
					},
					"t_uint256": {
						"encoding": "inplace",
						"label": "uint256",
						"numberOfBytes": "32"
					},
					"t_uint8": {
						"encoding": "inplace",
						"label": "uint8",
						"numberOfBytes": "1"
					}
				}
			},
			"userdoc": {
				"kind": "user",
				"methods": {},
				"version": 1
			}
		}
	}
}