{
	"contracts/st.sol": {
		"NFTStaking": {
			"abi": [
				{
					"inputs": [
						{
							"internalType": "address",
							"name": "_usdtAddress",
							"type": "address"
						}
					],
					"stateMutability": "nonpayable",
					"type": "constructor"
				},
				{
					"anonymous": false,
					"inputs": [
						{
							"indexed": true,
							"internalType": "uint256",
							"name": "positionId",
							"type": "uint256"
						},
						{
							"indexed": true,
							"internalType": "address",
							"name": "staker",
							"type": "address"
						},
						{
							"indexed": false,
							"internalType": "uint256",
							"name": "tokenId",
							"type": "uint256"
						},
						{
							"indexed": false,
							"internalType": "uint256",
							"name": "amount",
							"type": "uint256"
						},
						{
							"indexed": false,
							"internalType": "uint256",
							"name": "unlockDate",
							"type": "uint256"
						}
					],
					"name": "NFTStaked",
					"type": "event"
				},
				{
					"anonymous": false,
					"inputs": [
						{
							"indexed": true,
							"internalType": "uint256",
							"name": "positionId",
							"type": "uint256"
						},
						{
							"indexed": true,
							"internalType": "address",
							"name": "staker",
							"type": "address"
						},
						{
							"indexed": false,
							"internalType": "uint256",
							"name": "amountWithdrawn",
							"type": "uint256"
						},
						{
							"indexed": false,
							"internalType": "uint256",
							"name": "interestEarned",
							"type": "uint256"
						}
					],
					"name": "NFTUnstaked",
					"type": "event"
				},
				{
					"anonymous": false,
					"inputs": [
						{
							"indexed": true,
							"internalType": "address",
							"name": "owner",
							"type": "address"
						},
						{
							"indexed": false,
							"internalType": "uint256",
							"name": "amount",
							"type": "uint256"
						}
					],
					"name": "Withdrawn",
					"type": "event"
				},
				{
					"inputs": [
						{
							"internalType": "uint256",
							"name": "positionId",
							"type": "uint256"
						}
					],
					"name": "calculatePreDaysInterest",
					"outputs": [
						{
							"internalType": "uint256",
							"name": "",
							"type": "uint256"
						}
					],
					"stateMutability": "view",
					"type": "function"
				},
				{
					"inputs": [],
					"name": "currentPositionId",
					"outputs": [
						{
							"internalType": "uint256",
							"name": "",
							"type": "uint256"
						}
					],
					"stateMutability": "view",
					"type": "function"
				},
				{
					"inputs": [
						{
							"internalType": "uint256",
							"name": "numDays",
							"type": "uint256"
						}
					],
					"name": "getAPY",
					"outputs": [
						{
							"internalType": "uint256",
							"name": "",
							"type": "uint256"
						}
					],
					"stateMutability": "view",
					"type": "function"
				},
				{
					"inputs": [
						{
							"internalType": "uint256",
							"name": "positionId",
							"type": "uint256"
						}
					],
					"name": "getPositionById",
					"outputs": [
						{
							"components": [
								{
									"internalType": "uint256",
									"name": "positionId",
									"type": "uint256"
								},
								{
									"internalType": "address",
									"name": "walletAddress",
									"type": "address"
								},
								{
									"internalType": "uint256",
									"name": "tokenId",
									"type": "uint256"
								},
								{
									"internalType": "uint256",
									"name": "createdDate",
									"type": "uint256"
								},
								{
									"internalType": "uint256",
									"name": "unlockDate",
									"type": "uint256"
								},
								{
									"internalType": "uint256",
									"name": "apy",
									"type": "uint256"
								},
								{
									"internalType": "uint256",
									"name": "amountStaked",
									"type": "uint256"
								},
								{
									"internalType": "uint256",
									"name": "totalInterest",
									"type": "uint256"
								},
								{
									"internalType": "bool",
									"name": "open",
									"type": "bool"
								}
							],
							"internalType": "struct NFTStaking.Position",
							"name": "",
							"type": "tuple"
						}
					],
					"stateMutability": "view",
					"type": "function"
				},
				{
					"inputs": [
						{
							"internalType": "address",
							"name": "walletAddress",
							"type": "address"
						}
					],
					"name": "getPositionIdsForAddress",
					"outputs": [
						{
							"internalType": "uint256[]",
							"name": "",
							"type": "uint256[]"
						}
					],
					"stateMutability": "view",
					"type": "function"
				},
				{
					"inputs": [
						{
							"internalType": "uint256",
							"name": "numDays",
							"type": "uint256"
						},
						{
							"internalType": "uint256",
							"name": "apy",
							"type": "uint256"
						}
					],
					"name": "modifyStakingAPY",
					"outputs": [],
					"stateMutability": "nonpayable",
					"type": "function"
				},
				{
					"inputs": [],
					"name": "nftUSDT",
					"outputs": [
						{
							"internalType": "contract IERC20",
							"name": "",
							"type": "address"
						}
					],
					"stateMutability": "view",
					"type": "function"
				},
				{
					"inputs": [],
					"name": "owner",
					"outputs": [
						{
							"internalType": "address",
							"name": "",
							"type": "address"
						}
					],
					"stateMutability": "view",
					"type": "function"
				},
				{
					"inputs": [
						{
							"internalType": "address",
							"name": "",
							"type": "address"
						},
						{
							"internalType": "uint256",
							"name": "",
							"type": "uint256"
						}
					],
					"name": "positionIdsByAddress",
					"outputs": [
						{
							"internalType": "uint256",
							"name": "",
							"type": "uint256"
						}
					],
					"stateMutability": "view",
					"type": "function"
				},
				{
					"inputs": [
						{
							"internalType": "uint256",
							"name": "",
							"type": "uint256"
						}
					],
					"name": "positions",
					"outputs": [
						{
							"internalType": "uint256",
							"name": "positionId",
							"type": "uint256"
						},
						{
							"internalType": "address",
							"name": "walletAddress",
							"type": "address"
						},
						{
							"internalType": "uint256",
							"name": "tokenId",
							"type": "uint256"
						},
						{
							"internalType": "uint256",
							"name": "createdDate",
							"type": "uint256"
						},
						{
							"internalType": "uint256",
							"name": "unlockDate",
							"type": "uint256"
						},
						{
							"internalType": "uint256",
							"name": "apy",
							"type": "uint256"
						},
						{
							"internalType": "uint256",
							"name": "amountStaked",
							"type": "uint256"
						},
						{
							"internalType": "uint256",
							"name": "totalInterest",
							"type": "uint256"
						},
						{
							"internalType": "bool",
							"name": "open",
							"type": "bool"
						}
					],
					"stateMutability": "view",
					"type": "function"
				},
				{
					"inputs": [
						{
							"internalType": "uint256",
							"name": "tokenId",
							"type": "uint256"
						},
						{
							"internalType": "uint256",
							"name": "numDays",
							"type": "uint256"
						},
						{
							"internalType": "uint256",
							"name": "amount",
							"type": "uint256"
						}
					],
					"name": "stakeNFT",
					"outputs": [],
					"stateMutability": "nonpayable",
					"type": "function"
				},
				{
					"inputs": [
						{
							"internalType": "uint256",
							"name": "",
							"type": "uint256"
						}
					],
					"name": "stakingAPY",
					"outputs": [
						{
							"internalType": "uint256",
							"name": "",
							"type": "uint256"
						}
					],
					"stateMutability": "view",
					"type": "function"
				},
				{
					"inputs": [
						{
							"internalType": "uint256",
							"name": "positionId",
							"type": "uint256"
						}
					],
					"name": "unstakeNFT",
					"outputs": [],
					"stateMutability": "nonpayable",
					"type": "function"
				},
				{
					"inputs": [
						{
							"internalType": "uint256",
							"name": "amount",
							"type": "uint256"
						}
					],
					"name": "withdraw",
					"outputs": [],
					"stateMutability": "nonpayable",
					"type": "function"
				}
			],
			"devdoc": {
				"kind": "dev",
				"methods": {},
				"version": 1
			},
			"evm": {
				"assembly": "    /* \"contracts/st.sol\":417:5766  contract NFTStaking {... */\n  mstore(0x40, 0x80)\n    /* \"contracts/st.sol\":1308:1620  constructor(address _usdtAddress) {... */\n  callvalue\n  dup1\n  iszero\n  tag_1\n  jumpi\n  0x00\n  dup1\n  revert\ntag_1:\n  pop\n  mload(0x40)\n  sub(codesize, bytecodeSize)\n  dup1\n  bytecodeSize\n  dup4\n  codecopy\n  dup2\n  dup2\n  add\n  0x40\n  mstore\n  dup2\n  add\n  swap1\n  tag_2\n  swap2\n  swap1\n  tag_3\n  jump\t// in\ntag_2:\n    /* \"contracts/st.sol\":1361:1371  msg.sender */\n  caller\n    /* \"contracts/st.sol\":1353:1358  owner */\n  0x00\n  dup1\n    /* \"contracts/st.sol\":1353:1371  owner = msg.sender */\n  0x0100\n  exp\n  dup2\n  sload\n  dup2\n  0xffffffffffffffffffffffffffffffffffffffff\n  mul\n  not\n  and\n  swap1\n  dup4\n  0xffffffffffffffffffffffffffffffffffffffff\n  and\n  mul\n  or\n  swap1\n  sstore\n  pop\n    /* \"contracts/st.sol\":1399:1411  _usdtAddress */\n  dup1\n    /* \"contracts/st.sol\":1382:1389  nftUSDT */\n  0x01\n  0x00\n    /* \"contracts/st.sol\":1382:1412  nftUSDT = IERC20(_usdtAddress) */\n  0x0100\n  exp\n  dup2\n  sload\n  dup2\n  0xffffffffffffffffffffffffffffffffffffffff\n  mul\n  not\n  and\n  swap1\n  dup4\n  0xffffffffffffffffffffffffffffffffffffffff\n  and\n  mul\n  or\n  swap1\n  sstore\n  pop\n    /* \"contracts/st.sol\":1443:1444  1 */\n  0x01\n    /* \"contracts/st.sol\":1423:1440  currentPositionId */\n  0x02\n    /* \"contracts/st.sol\":1423:1444  currentPositionId = 1 */\n  dup2\n  swap1\n  sstore\n  pop\n    /* \"contracts/st.sol\":1521:1522  2 */\n  0x02\n    /* \"contracts/st.sol\":1504:1514  stakingAPY */\n  0x05\n    /* \"contracts/st.sol\":1504:1518  stakingAPY[30] */\n  0x00\n    /* \"contracts/st.sol\":1515:1517  30 */\n  0x1e\n    /* \"contracts/st.sol\":1504:1518  stakingAPY[30] */\n  dup2\n  mstore\n  0x20\n  add\n  swap1\n  dup2\n  mstore\n  0x20\n  add\n  0x00\n  keccak256\n    /* \"contracts/st.sol\":1504:1522  stakingAPY[30] = 2 */\n  dup2\n  swap1\n  sstore\n  pop\n    /* \"contracts/st.sol\":1550:1551  3 */\n  0x03\n    /* \"contracts/st.sol\":1533:1543  stakingAPY */\n  0x05\n    /* \"contracts/st.sol\":1533:1547  stakingAPY[90] */\n  0x00\n    /* \"contracts/st.sol\":1544:1546  90 */\n  0x5a\n    /* \"contracts/st.sol\":1533:1547  stakingAPY[90] */\n  dup2\n  mstore\n  0x20\n  add\n  swap1\n  dup2\n  mstore\n  0x20\n  add\n  0x00\n  keccak256\n    /* \"contracts/st.sol\":1533:1551  stakingAPY[90] = 3 */\n  dup2\n  swap1\n  sstore\n  pop\n    /* \"contracts/st.sol\":1580:1581  6 */\n  0x06\n    /* \"contracts/st.sol\":1562:1572  stakingAPY */\n  0x05\n    /* \"contracts/st.sol\":1562:1577  stakingAPY[180] */\n  0x00\n    /* \"contracts/st.sol\":1573:1576  180 */\n  0xb4\n    /* \"contracts/st.sol\":1562:1577  stakingAPY[180] */\n  dup2\n  mstore\n  0x20\n  add\n  swap1\n  dup2\n  mstore\n  0x20\n  add\n  0x00\n  keccak256\n    /* \"contracts/st.sol\":1562:1581  stakingAPY[180] = 6 */\n  dup2\n  swap1\n  sstore\n  pop\n    /* \"contracts/st.sol\":1610:1612  12 */\n  0x0c\n    /* \"contracts/st.sol\":1592:1602  stakingAPY */\n  0x05\n    /* \"contracts/st.sol\":1592:1607  stakingAPY[365] */\n  0x00\n    /* \"contracts/st.sol\":1603:1606  365 */\n  0x016d\n    /* \"contracts/st.sol\":1592:1607  stakingAPY[365] */\n  dup2\n  mstore\n  0x20\n  add\n  swap1\n  dup2\n  mstore\n  0x20\n  add\n  0x00\n  keccak256\n    /* \"contracts/st.sol\":1592:1612  stakingAPY[365] = 12 */\n  dup2\n  swap1\n  sstore\n  pop\n    /* \"contracts/st.sol\":1308:1620  constructor(address _usdtAddress) {... */\n  pop\n    /* \"contracts/st.sol\":417:5766  contract NFTStaking {... */\n  jump(tag_6)\n    /* \"#utility.yul\":88:205   */\ntag_8:\n    /* \"#utility.yul\":197:198   */\n  0x00\n    /* \"#utility.yul\":194:195   */\n  dup1\n    /* \"#utility.yul\":187:199   */\n  revert\n    /* \"#utility.yul\":334:460   */\ntag_10:\n    /* \"#utility.yul\":371:378   */\n  0x00\n    /* \"#utility.yul\":411:453   */\n  0xffffffffffffffffffffffffffffffffffffffff\n    /* \"#utility.yul\":404:409   */\n  dup3\n    /* \"#utility.yul\":400:454   */\n  and\n    /* \"#utility.yul\":389:454   */\n  swap1\n  pop\n    /* \"#utility.yul\":334:460   */\n  swap2\n  swap1\n  pop\n  jump\t// out\n    /* \"#utility.yul\":466:562   */\ntag_11:\n    /* \"#utility.yul\":503:510   */\n  0x00\n    /* \"#utility.yul\":532:556   */\n  tag_20\n    /* \"#utility.yul\":550:555   */\n  dup3\n    /* \"#utility.yul\":532:556   */\n  tag_10\n  jump\t// in\ntag_20:\n    /* \"#utility.yul\":521:556   */\n  swap1\n  pop\n    /* \"#utility.yul\":466:562   */\n  swap2\n  swap1\n  pop\n  jump\t// out\n    /* \"#utility.yul\":568:690   */\ntag_12:\n    /* \"#utility.yul\":641:665   */\n  tag_22\n    /* \"#utility.yul\":659:664   */\n  dup2\n    /* \"#utility.yul\":641:665   */\n  tag_11\n  jump\t// in\ntag_22:\n    /* \"#utility.yul\":634:639   */\n  dup2\n    /* \"#utility.yul\":631:666   */\n  eq\n    /* \"#utility.yul\":621:684   */\n  tag_23\n  jumpi\n    /* \"#utility.yul\":680:681   */\n  0x00\n    /* \"#utility.yul\":677:678   */\n  dup1\n    /* \"#utility.yul\":670:682   */\n  revert\n    /* \"#utility.yul\":621:684   */\ntag_23:\n    /* \"#utility.yul\":568:690   */\n  pop\n  jump\t// out\n    /* \"#utility.yul\":696:839   */\ntag_13:\n    /* \"#utility.yul\":753:758   */\n  0x00\n    /* \"#utility.yul\":784:790   */\n  dup2\n    /* \"#utility.yul\":778:791   */\n  mload\n    /* \"#utility.yul\":769:791   */\n  swap1\n  pop\n    /* \"#utility.yul\":800:833   */\n  tag_25\n    /* \"#utility.yul\":827:832   */\n  dup2\n    /* \"#utility.yul\":800:833   */\n  tag_12\n  jump\t// in\ntag_25:\n    /* \"#utility.yul\":696:839   */\n  swap3\n  swap2\n  pop\n  pop\n  jump\t// out\n    /* \"#utility.yul\":845:1196   */\ntag_3:\n    /* \"#utility.yul\":915:921   */\n  0x00\n    /* \"#utility.yul\":964:966   */\n  0x20\n    /* \"#utility.yul\":952:961   */\n  dup3\n    /* \"#utility.yul\":943:950   */\n  dup5\n    /* \"#utility.yul\":939:962   */\n  sub\n    /* \"#utility.yul\":935:967   */\n  slt\n    /* \"#utility.yul\":932:1051   */\n  iszero\n  tag_27\n  jumpi\n    /* \"#utility.yul\":970:1049   */\n  tag_28\n  tag_8\n  jump\t// in\ntag_28:\n    /* \"#utility.yul\":932:1051   */\ntag_27:\n    /* \"#utility.yul\":1090:1091   */\n  0x00\n    /* \"#utility.yul\":1115:1179   */\n  tag_29\n    /* \"#utility.yul\":1171:1178   */\n  dup5\n    /* \"#utility.yul\":1162:1168   */\n  dup3\n    /* \"#utility.yul\":1151:1160   */\n  dup6\n    /* \"#utility.yul\":1147:1169   */\n  add\n    /* \"#utility.yul\":1115:1179   */\n  tag_13\n  jump\t// in\ntag_29:\n    /* \"#utility.yul\":1105:1179   */\n  swap2\n  pop\n    /* \"#utility.yul\":1061:1189   */\n  pop\n    /* \"#utility.yul\":845:1196   */\n  swap3\n  swap2\n  pop\n  pop\n  jump\t// out\n    /* \"contracts/st.sol\":417:5766  contract NFTStaking {... */\ntag_6:\n  dataSize(sub_0)\n  dup1\n  dataOffset(sub_0)\n  0x00\n  codecopy\n  0x00\n  return\nstop\n\nsub_0: assembly {\n        /* \"contracts/st.sol\":417:5766  contract NFTStaking {... */\n      mstore(0x40, 0x80)\n      callvalue\n      dup1\n      iszero\n      tag_1\n      jumpi\n      0x00\n      dup1\n      revert\n    tag_1:\n      pop\n      jumpi(tag_2, lt(calldatasize, 0x04))\n      shr(0xe0, calldataload(0x00))\n      dup1\n      0x99fbab88\n      gt\n      tag_17\n      jumpi\n      dup1\n      0xb838ec86\n      gt\n      tag_18\n      jumpi\n      dup1\n      0xb838ec86\n      eq\n      tag_13\n      jumpi\n      dup1\n      0xc1dfa0bb\n      eq\n      tag_14\n      jumpi\n      dup1\n      0xc7d065bc\n      eq\n      tag_15\n      jumpi\n      dup1\n      0xeeee849b\n      eq\n      tag_16\n      jumpi\n      jump(tag_2)\n    tag_18:\n      dup1\n      0x99fbab88\n      eq\n      tag_10\n      jumpi\n      dup1\n      0x9d0f8ca1\n      eq\n      tag_11\n      jumpi\n      dup1\n      0xa7211ff8\n      eq\n      tag_12\n      jumpi\n      jump(tag_2)\n    tag_17:\n      dup1\n      0x45eae373\n      gt\n      tag_19\n      jumpi\n      dup1\n      0x45eae373\n      eq\n      tag_6\n      jumpi\n      dup1\n      0x857224ee\n      eq\n      tag_7\n      jumpi\n      dup1\n      0x875bb4e2\n      eq\n      tag_8\n      jumpi\n      dup1\n      0x8da5cb5b\n      eq\n      tag_9\n      jumpi\n      jump(tag_2)\n    tag_19:\n      dup1\n      0x1131c8cd\n      eq\n      tag_3\n      jumpi\n      dup1\n      0x2e1a7d4d\n      eq\n      tag_4\n      jumpi\n      dup1\n      0x40d98a44\n      eq\n      tag_5\n      jumpi\n    tag_2:\n      0x00\n      dup1\n      revert\n        /* \"contracts/st.sol\":784:816  uint256 public currentPositionId */\n    tag_3:\n      tag_20\n      tag_21\n      jump\t// in\n    tag_20:\n      mload(0x40)\n      tag_22\n      swap2\n      swap1\n      tag_23\n      jump\t// in\n    tag_22:\n      mload(0x40)\n      dup1\n      swap2\n      sub\n      swap1\n      return\n        /* \"contracts/st.sol\":5461:5763  function withdraw(uint256 amount) external {... */\n    tag_4:\n      tag_24\n      0x04\n      dup1\n      calldatasize\n      sub\n      dup2\n      add\n      swap1\n      tag_25\n      swap2\n      swap1\n      tag_26\n      jump\t// in\n    tag_25:\n      tag_27\n      jump\t// in\n    tag_24:\n      stop\n        /* \"contracts/st.sol\":5006:5165  function getPositionIdsForAddress(address walletAddress) external view returns (uint256[] memory) {... */\n    tag_5:\n      tag_28\n      0x04\n      dup1\n      calldatasize\n      sub\n      dup2\n      add\n      swap1\n      tag_29\n      swap2\n      swap1\n      tag_30\n      jump\t// in\n    tag_29:\n      tag_31\n      jump\t// in\n    tag_28:\n      mload(0x40)\n      tag_32\n      swap2\n      swap1\n      tag_33\n      jump\t// in\n    tag_32:\n      mload(0x40)\n      dup1\n      swap2\n      sub\n      swap1\n      return\n        /* \"contracts/st.sol\":875:932  mapping(address => uint256[]) public positionIdsByAddress */\n    tag_6:\n      tag_34\n      0x04\n      dup1\n      calldatasize\n      sub\n      dup2\n      add\n      swap1\n      tag_35\n      swap2\n      swap1\n      tag_36\n      jump\t// in\n    tag_35:\n      tag_37\n      jump\t// in\n    tag_34:\n      mload(0x40)\n      tag_38\n      swap2\n      swap1\n      tag_23\n      jump\t// in\n    tag_38:\n      mload(0x40)\n      dup1\n      swap2\n      sub\n      swap1\n      return\n        /* \"contracts/st.sol\":5291:5453  function modifyStakingAPY(uint256 numDays, uint256 apy) external {... */\n    tag_7:\n      tag_39\n      0x04\n      dup1\n      calldatasize\n      sub\n      dup2\n      add\n      swap1\n      tag_40\n      swap2\n      swap1\n      tag_41\n      jump\t// in\n    tag_40:\n      tag_42\n      jump\t// in\n    tag_39:\n      stop\n        /* \"contracts/st.sol\":939:984  mapping(uint256 => uint256) public stakingAPY */\n    tag_8:\n      tag_43\n      0x04\n      dup1\n      calldatasize\n      sub\n      dup2\n      add\n      swap1\n      tag_44\n      swap2\n      swap1\n      tag_26\n      jump\t// in\n    tag_44:\n      tag_45\n      jump\t// in\n    tag_43:\n      mload(0x40)\n      tag_46\n      swap2\n      swap1\n      tag_23\n      jump\t// in\n    tag_46:\n      mload(0x40)\n      dup1\n      swap2\n      sub\n      swap1\n      return\n        /* \"contracts/st.sol\":444:464  address public owner */\n    tag_9:\n      tag_47\n      tag_48\n      jump\t// in\n    tag_47:\n      mload(0x40)\n      tag_49\n      swap2\n      swap1\n      tag_50\n      jump\t// in\n    tag_49:\n      mload(0x40)\n      dup1\n      swap2\n      sub\n      swap1\n      return\n        /* \"contracts/st.sol\":823:868  mapping(uint256 => Position) public positions */\n    tag_10:\n      tag_51\n      0x04\n      dup1\n      calldatasize\n      sub\n      dup2\n      add\n      swap1\n      tag_52\n      swap2\n      swap1\n      tag_26\n      jump\t// in\n    tag_52:\n      tag_53\n      jump\t// in\n    tag_51:\n      mload(0x40)\n      tag_54\n      swap10\n      swap9\n      swap8\n      swap7\n      swap6\n      swap5\n      swap4\n      swap3\n      swap2\n      swap1\n      tag_55\n      jump\t// in\n    tag_54:\n      mload(0x40)\n      dup1\n      swap2\n      sub\n      swap1\n      return\n        /* \"contracts/st.sol\":471:492  IERC20 public nftUSDT */\n    tag_11:\n      tag_56\n      tag_57\n      jump\t// in\n    tag_56:\n      mload(0x40)\n      tag_58\n      swap2\n      swap1\n      tag_59\n      jump\t// in\n    tag_58:\n      mload(0x40)\n      dup1\n      swap2\n      sub\n      swap1\n      return\n        /* \"contracts/st.sol\":1651:2606  function stakeNFT(uint256 tokenId, uint256 numDays, uint256 amount) external {... */\n    tag_12:\n      tag_60\n      0x04\n      dup1\n      calldatasize\n      sub\n      dup2\n      add\n      swap1\n      tag_61\n      swap2\n      swap1\n      tag_62\n      jump\t// in\n    tag_61:\n      tag_63\n      jump\t// in\n    tag_60:\n      stop\n        /* \"contracts/st.sol\":4866:4998  function getPositionById(uint256 positionId) external view returns (Position memory) {... */\n    tag_13:\n      tag_64\n      0x04\n      dup1\n      calldatasize\n      sub\n      dup2\n      add\n      swap1\n      tag_65\n      swap2\n      swap1\n      tag_26\n      jump\t// in\n    tag_65:\n      tag_66\n      jump\t// in\n    tag_64:\n      mload(0x40)\n      tag_67\n      swap2\n      swap1\n      tag_68\n      jump\t// in\n    tag_67:\n      mload(0x40)\n      dup1\n      swap2\n      sub\n      swap1\n      return\n        /* \"contracts/st.sol\":3517:4848  function unstakeNFT(uint256 positionId) external {... */\n    tag_14:\n      tag_69\n      0x04\n      dup1\n      calldatasize\n      sub\n      dup2\n      add\n      swap1\n      tag_70\n      swap2\n      swap1\n      tag_26\n      jump\t// in\n    tag_70:\n      tag_71\n      jump\t// in\n    tag_69:\n      stop\n        /* \"contracts/st.sol\":2919:3335  function calculatePreDaysInterest(uint256 positionId) external view returns (uint256) {... */\n    tag_15:\n      tag_72\n      0x04\n      dup1\n      calldatasize\n      sub\n      dup2\n      add\n      swap1\n      tag_73\n      swap2\n      swap1\n      tag_26\n      jump\t// in\n    tag_73:\n      tag_74\n      jump\t// in\n    tag_72:\n      mload(0x40)\n      tag_75\n      swap2\n      swap1\n      tag_23\n      jump\t// in\n    tag_75:\n      mload(0x40)\n      dup1\n      swap2\n      sub\n      swap1\n      return\n        /* \"contracts/st.sol\":5173:5283  function getAPY(uint256 numDays) external view returns (uint256) {... */\n    tag_16:\n      tag_76\n      0x04\n      dup1\n      calldatasize\n      sub\n      dup2\n      add\n      swap1\n      tag_77\n      swap2\n      swap1\n      tag_26\n      jump\t// in\n    tag_77:\n      tag_78\n      jump\t// in\n    tag_76:\n      mload(0x40)\n      tag_79\n      swap2\n      swap1\n      tag_23\n      jump\t// in\n    tag_79:\n      mload(0x40)\n      dup1\n      swap2\n      sub\n      swap1\n      return\n        /* \"contracts/st.sol\":784:816  uint256 public currentPositionId */\n    tag_21:\n      sload(0x02)\n      dup2\n      jump\t// out\n        /* \"contracts/st.sol\":5461:5763  function withdraw(uint256 amount) external {... */\n    tag_27:\n        /* \"contracts/st.sol\":5537:5542  owner */\n      0x00\n      dup1\n      sload\n      swap1\n      0x0100\n      exp\n      swap1\n      div\n      0xffffffffffffffffffffffffffffffffffffffff\n      and\n        /* \"contracts/st.sol\":5523:5542  msg.sender == owner */\n      0xffffffffffffffffffffffffffffffffffffffff\n      and\n        /* \"contracts/st.sol\":5523:5533  msg.sender */\n      caller\n        /* \"contracts/st.sol\":5523:5542  msg.sender == owner */\n      0xffffffffffffffffffffffffffffffffffffffff\n      and\n      eq\n        /* \"contracts/st.sol\":5515:5557  require(msg.sender == owner, \"Only owner\") */\n      tag_81\n      jumpi\n      mload(0x40)\n      0x08c379a000000000000000000000000000000000000000000000000000000000\n      dup2\n      mstore\n      0x04\n      add\n      tag_82\n      swap1\n      tag_83\n      jump\t// in\n    tag_82:\n      mload(0x40)\n      dup1\n      swap2\n      sub\n      swap1\n      revert\n    tag_81:\n        /* \"contracts/st.sol\":5612:5618  amount */\n      dup1\n        /* \"contracts/st.sol\":5576:5583  nftUSDT */\n      0x01\n      0x00\n      swap1\n      sload\n      swap1\n      0x0100\n      exp\n      swap1\n      div\n      0xffffffffffffffffffffffffffffffffffffffff\n      and\n        /* \"contracts/st.sol\":5576:5593  nftUSDT.balanceOf */\n      0xffffffffffffffffffffffffffffffffffffffff\n      and\n      0x70a08231\n        /* \"contracts/st.sol\":5602:5606  this */\n      address\n        /* \"contracts/st.sol\":5576:5608  nftUSDT.balanceOf(address(this)) */\n      mload(0x40)\n      dup3\n      0xffffffff\n      and\n      0xe0\n      shl\n      dup2\n      mstore\n      0x04\n      add\n      tag_84\n      swap2\n      swap1\n      tag_50\n      jump\t// in\n    tag_84:\n      0x20\n      mload(0x40)\n      dup1\n      dup4\n      sub\n      dup2\n      dup7\n      gas\n      staticcall\n      iszero\n      dup1\n      iszero\n      tag_86\n      jumpi\n      returndatasize\n      0x00\n      dup1\n      returndatacopy\n      revert(0x00, returndatasize)\n    tag_86:\n      pop\n      pop\n      pop\n      pop\n      mload(0x40)\n      returndatasize\n      not(0x1f)\n      0x1f\n      dup3\n      add\n      and\n      dup3\n      add\n      dup1\n      0x40\n      mstore\n      pop\n      dup2\n      add\n      swap1\n      tag_87\n      swap2\n      swap1\n      tag_88\n      jump\t// in\n    tag_87:\n        /* \"contracts/st.sol\":5576:5618  nftUSDT.balanceOf(address(this)) >= amount */\n      lt\n      iszero\n        /* \"contracts/st.sol\":5568:5643  require(nftUSDT.balanceOf(address(this)) >= amount, \"Insufficient balance\") */\n      tag_89\n      jumpi\n      mload(0x40)\n      0x08c379a000000000000000000000000000000000000000000000000000000000\n      dup2\n      mstore\n      0x04\n      add\n      tag_90\n      swap1\n      tag_91\n      jump\t// in\n    tag_90:\n      mload(0x40)\n      dup1\n      swap2\n      sub\n      swap1\n      revert\n    tag_89:\n        /* \"contracts/st.sol\":5664:5671  nftUSDT */\n      0x01\n      0x00\n      swap1\n      sload\n      swap1\n      0x0100\n      exp\n      swap1\n      div\n      0xffffffffffffffffffffffffffffffffffffffff\n      and\n        /* \"contracts/st.sol\":5664:5680  nftUSDT.transfer */\n      0xffffffffffffffffffffffffffffffffffffffff\n      and\n      0xa9059cbb\n        /* \"contracts/st.sol\":5681:5686  owner */\n      0x00\n      dup1\n      sload\n      swap1\n      0x0100\n      exp\n      swap1\n      div\n      0xffffffffffffffffffffffffffffffffffffffff\n      and\n        /* \"contracts/st.sol\":5688:5694  amount */\n      dup4\n        /* \"contracts/st.sol\":5664:5695  nftUSDT.transfer(owner, amount) */\n      mload(0x40)\n      dup4\n      0xffffffff\n      and\n      0xe0\n      shl\n      dup2\n      mstore\n      0x04\n      add\n      tag_92\n      swap3\n      swap2\n      swap1\n      tag_93\n      jump\t// in\n    tag_92:\n      0x20\n      mload(0x40)\n      dup1\n      dup4\n      sub\n      dup2\n      0x00\n      dup8\n      gas\n      call\n      iszero\n      dup1\n      iszero\n      tag_95\n      jumpi\n      returndatasize\n      0x00\n      dup1\n      returndatacopy\n      revert(0x00, returndatasize)\n    tag_95:\n      pop\n      pop\n      pop\n      pop\n      mload(0x40)\n      returndatasize\n      not(0x1f)\n      0x1f\n      dup3\n      add\n      and\n      dup3\n      add\n      dup1\n      0x40\n      mstore\n      pop\n      dup2\n      add\n      swap1\n      tag_96\n      swap2\n      swap1\n      tag_97\n      jump\t// in\n    tag_96:\n        /* \"contracts/st.sol\":5656:5715  require(nftUSDT.transfer(owner, amount), \"Withdraw failed\") */\n      tag_98\n      jumpi\n      mload(0x40)\n      0x08c379a000000000000000000000000000000000000000000000000000000000\n      dup2\n      mstore\n      0x04\n      add\n      tag_99\n      swap1\n      tag_100\n      jump\t// in\n    tag_99:\n      mload(0x40)\n      dup1\n      swap2\n      sub\n      swap1\n      revert\n    tag_98:\n        /* \"contracts/st.sol\":5741:5746  owner */\n      0x00\n      dup1\n      sload\n      swap1\n      0x0100\n      exp\n      swap1\n      div\n      0xffffffffffffffffffffffffffffffffffffffff\n      and\n        /* \"contracts/st.sol\":5731:5755  Withdrawn(owner, amount) */\n      0xffffffffffffffffffffffffffffffffffffffff\n      and\n      0x7084f5476618d8e60b11ef0d7d3f06914655adb8793e28ff7f018d4c76d505d5\n        /* \"contracts/st.sol\":5748:5754  amount */\n      dup3\n        /* \"contracts/st.sol\":5731:5755  Withdrawn(owner, amount) */\n      mload(0x40)\n      tag_101\n      swap2\n      swap1\n      tag_23\n      jump\t// in\n    tag_101:\n      mload(0x40)\n      dup1\n      swap2\n      sub\n      swap1\n      log2\n        /* \"contracts/st.sol\":5461:5763  function withdraw(uint256 amount) external {... */\n      pop\n      jump\t// out\n        /* \"contracts/st.sol\":5006:5165  function getPositionIdsForAddress(address walletAddress) external view returns (uint256[] memory) {... */\n    tag_31:\n        /* \"contracts/st.sol\":5086:5102  uint256[] memory */\n      0x60\n        /* \"contracts/st.sol\":5122:5142  positionIdsByAddress */\n      0x04\n        /* \"contracts/st.sol\":5122:5157  positionIdsByAddress[walletAddress] */\n      0x00\n        /* \"contracts/st.sol\":5143:5156  walletAddress */\n      dup4\n        /* \"contracts/st.sol\":5122:5157  positionIdsByAddress[walletAddress] */\n      0xffffffffffffffffffffffffffffffffffffffff\n      and\n      0xffffffffffffffffffffffffffffffffffffffff\n      and\n      dup2\n      mstore\n      0x20\n      add\n      swap1\n      dup2\n      mstore\n      0x20\n      add\n      0x00\n      keccak256\n        /* \"contracts/st.sol\":5115:5157  return positionIdsByAddress[walletAddress] */\n      dup1\n      sload\n      dup1\n      0x20\n      mul\n      0x20\n      add\n      mload(0x40)\n      swap1\n      dup2\n      add\n      0x40\n      mstore\n      dup1\n      swap3\n      swap2\n      swap1\n      dup2\n      dup2\n      mstore\n      0x20\n      add\n      dup3\n      dup1\n      sload\n      dup1\n      iszero\n      tag_103\n      jumpi\n      0x20\n      mul\n      dup3\n      add\n      swap2\n      swap1\n      0x00\n      mstore\n      keccak256(0x00, 0x20)\n      swap1\n    tag_104:\n      dup2\n      sload\n      dup2\n      mstore\n      0x20\n      add\n      swap1\n      0x01\n      add\n      swap1\n      dup1\n      dup4\n      gt\n      tag_104\n      jumpi\n    tag_103:\n      pop\n      pop\n      pop\n      pop\n      pop\n      swap1\n      pop\n        /* \"contracts/st.sol\":5006:5165  function getPositionIdsForAddress(address walletAddress) external view returns (uint256[] memory) {... */\n      swap2\n      swap1\n      pop\n      jump\t// out\n        /* \"contracts/st.sol\":875:932  mapping(address => uint256[]) public positionIdsByAddress */\n    tag_37:\n      mstore(0x20, 0x04)\n      dup2\n      0x00\n      mstore\n      keccak256(0x00, 0x40)\n      dup2\n      dup2\n      sload\n      dup2\n      lt\n      tag_105\n      jumpi\n      0x00\n      dup1\n      revert\n    tag_105:\n      swap1\n      0x00\n      mstore\n      keccak256(0x00, 0x20)\n      add\n      0x00\n      swap2\n      pop\n      swap2\n      pop\n      pop\n      sload\n      dup2\n      jump\t// out\n        /* \"contracts/st.sol\":5291:5453  function modifyStakingAPY(uint256 numDays, uint256 apy) external {... */\n    tag_42:\n        /* \"contracts/st.sol\":5389:5394  owner */\n      0x00\n      dup1\n      sload\n      swap1\n      0x0100\n      exp\n      swap1\n      div\n      0xffffffffffffffffffffffffffffffffffffffff\n      and\n        /* \"contracts/st.sol\":5375:5394  msg.sender == owner */\n      0xffffffffffffffffffffffffffffffffffffffff\n      and\n        /* \"contracts/st.sol\":5375:5385  msg.sender */\n      caller\n        /* \"contracts/st.sol\":5375:5394  msg.sender == owner */\n      0xffffffffffffffffffffffffffffffffffffffff\n      and\n      eq\n        /* \"contracts/st.sol\":5367:5409  require(msg.sender == owner, \"Only owner\") */\n      tag_108\n      jumpi\n      mload(0x40)\n      0x08c379a000000000000000000000000000000000000000000000000000000000\n      dup2\n      mstore\n      0x04\n      add\n      tag_109\n      swap1\n      tag_83\n      jump\t// in\n    tag_109:\n      mload(0x40)\n      dup1\n      swap2\n      sub\n      swap1\n      revert\n    tag_108:\n        /* \"contracts/st.sol\":5442:5445  apy */\n      dup1\n        /* \"contracts/st.sol\":5420:5430  stakingAPY */\n      0x05\n        /* \"contracts/st.sol\":5420:5439  stakingAPY[numDays] */\n      0x00\n        /* \"contracts/st.sol\":5431:5438  numDays */\n      dup5\n        /* \"contracts/st.sol\":5420:5439  stakingAPY[numDays] */\n      dup2\n      mstore\n      0x20\n      add\n      swap1\n      dup2\n      mstore\n      0x20\n      add\n      0x00\n      keccak256\n        /* \"contracts/st.sol\":5420:5445  stakingAPY[numDays] = apy */\n      dup2\n      swap1\n      sstore\n      pop\n        /* \"contracts/st.sol\":5291:5453  function modifyStakingAPY(uint256 numDays, uint256 apy) external {... */\n      pop\n      pop\n      jump\t// out\n        /* \"contracts/st.sol\":939:984  mapping(uint256 => uint256) public stakingAPY */\n    tag_45:\n      mstore(0x20, 0x05)\n      dup1\n      0x00\n      mstore\n      keccak256(0x00, 0x40)\n      0x00\n      swap2\n      pop\n      swap1\n      pop\n      sload\n      dup2\n      jump\t// out\n        /* \"contracts/st.sol\":444:464  address public owner */\n    tag_48:\n      0x00\n      dup1\n      sload\n      swap1\n      0x0100\n      exp\n      swap1\n      div\n      0xffffffffffffffffffffffffffffffffffffffff\n      and\n      dup2\n      jump\t// out\n        /* \"contracts/st.sol\":823:868  mapping(uint256 => Position) public positions */\n    tag_53:\n      mstore(0x20, 0x03)\n      dup1\n      0x00\n      mstore\n      keccak256(0x00, 0x40)\n      0x00\n      swap2\n      pop\n      swap1\n      pop\n      dup1\n      0x00\n      add\n      sload\n      swap1\n      dup1\n      0x01\n      add\n      0x00\n      swap1\n      sload\n      swap1\n      0x0100\n      exp\n      swap1\n      div\n      0xffffffffffffffffffffffffffffffffffffffff\n      and\n      swap1\n      dup1\n      0x02\n      add\n      sload\n      swap1\n      dup1\n      0x03\n      add\n      sload\n      swap1\n      dup1\n      0x04\n      add\n      sload\n      swap1\n      dup1\n      0x05\n      add\n      sload\n      swap1\n      dup1\n      0x06\n      add\n      sload\n      swap1\n      dup1\n      0x07\n      add\n      sload\n      swap1\n      dup1\n      0x08\n      add\n      0x00\n      swap1\n      sload\n      swap1\n      0x0100\n      exp\n      swap1\n      div\n      0xff\n      and\n      swap1\n      pop\n      dup10\n      jump\t// out\n        /* \"contracts/st.sol\":471:492  IERC20 public nftUSDT */\n    tag_57:\n      0x01\n      0x00\n      swap1\n      sload\n      swap1\n      0x0100\n      exp\n      swap1\n      div\n      0xffffffffffffffffffffffffffffffffffffffff\n      and\n      dup2\n      jump\t// out\n        /* \"contracts/st.sol\":1651:2606  function stakeNFT(uint256 tokenId, uint256 numDays, uint256 amount) external {... */\n    tag_63:\n        /* \"contracts/st.sol\":1769:1770  0 */\n      0x00\n        /* \"contracts/st.sol\":1747:1757  stakingAPY */\n      0x05\n        /* \"contracts/st.sol\":1747:1766  stakingAPY[numDays] */\n      0x00\n        /* \"contracts/st.sol\":1758:1765  numDays */\n      dup5\n        /* \"contracts/st.sol\":1747:1766  stakingAPY[numDays] */\n      dup2\n      mstore\n      0x20\n      add\n      swap1\n      dup2\n      mstore\n      0x20\n      add\n      0x00\n      keccak256\n      sload\n        /* \"contracts/st.sol\":1747:1770  stakingAPY[numDays] > 0 */\n      gt\n        /* \"contracts/st.sol\":1739:1797  require(stakingAPY[numDays] > 0, \"Invalid staking period\") */\n      tag_111\n      jumpi\n      mload(0x40)\n      0x08c379a000000000000000000000000000000000000000000000000000000000\n      dup2\n      mstore\n      0x04\n      add\n      tag_112\n      swap1\n      tag_113\n      jump\t// in\n    tag_112:\n      mload(0x40)\n      dup1\n      swap2\n      sub\n      swap1\n      revert\n    tag_111:\n        /* \"contracts/st.sol\":1825:1826  0 */\n      0x00\n        /* \"contracts/st.sol\":1816:1822  amount */\n      dup2\n        /* \"contracts/st.sol\":1816:1826  amount > 0 */\n      gt\n        /* \"contracts/st.sol\":1808:1863  require(amount > 0, \"Amount must be greater than zero\") */\n      tag_114\n      jumpi\n      mload(0x40)\n      0x08c379a000000000000000000000000000000000000000000000000000000000\n      dup2\n      mstore\n      0x04\n      add\n      tag_115\n      swap1\n      tag_116\n      jump\t// in\n    tag_115:\n      mload(0x40)\n      dup1\n      swap2\n      sub\n      swap1\n      revert\n    tag_114:\n        /* \"contracts/st.sol\":1884:1891  nftUSDT */\n      0x01\n      0x00\n      swap1\n      sload\n      swap1\n      0x0100\n      exp\n      swap1\n      div\n      0xffffffffffffffffffffffffffffffffffffffff\n      and\n        /* \"contracts/st.sol\":1884:1904  nftUSDT.transferFrom */\n      0xffffffffffffffffffffffffffffffffffffffff\n      and\n      0x23b872dd\n        /* \"contracts/st.sol\":1905:1915  msg.sender */\n      caller\n        /* \"contracts/st.sol\":1925:1929  this */\n      address\n        /* \"contracts/st.sol\":1932:1938  amount */\n      dup5\n        /* \"contracts/st.sol\":1884:1939  nftUSDT.transferFrom(msg.sender, address(this), amount) */\n      mload(0x40)\n      dup5\n      0xffffffff\n      and\n      0xe0\n      shl\n      dup2\n      mstore\n      0x04\n      add\n      tag_117\n      swap4\n      swap3\n      swap2\n      swap1\n      tag_118\n      jump\t// in\n    tag_117:\n      0x20\n      mload(0x40)\n      dup1\n      dup4\n      sub\n      dup2\n      0x00\n      dup8\n      gas\n      call\n      iszero\n      dup1\n      iszero\n      tag_120\n      jumpi\n      returndatasize\n      0x00\n      dup1\n      returndatacopy\n      revert(0x00, returndatasize)\n    tag_120:\n      pop\n      pop\n      pop\n      pop\n      mload(0x40)\n      returndatasize\n      not(0x1f)\n      0x1f\n      dup3\n      add\n      and\n      dup3\n      add\n      dup1\n      0x40\n      mstore\n      pop\n      dup2\n      add\n      swap1\n      tag_121\n      swap2\n      swap1\n      tag_97\n      jump\t// in\n    tag_121:\n        /* \"contracts/st.sol\":1876:1965  require(nftUSDT.transferFrom(msg.sender, address(this), amount), \"Token transfer failed\") */\n      tag_122\n      jumpi\n      mload(0x40)\n      0x08c379a000000000000000000000000000000000000000000000000000000000\n      dup2\n      mstore\n      0x04\n      add\n      tag_123\n      swap1\n      tag_124\n      jump\t// in\n    tag_123:\n      mload(0x40)\n      dup1\n      swap2\n      sub\n      swap1\n      revert\n    tag_122:\n        /* \"contracts/st.sol\":1978:1989  uint256 apy */\n      0x00\n        /* \"contracts/st.sol\":1992:2002  stakingAPY */\n      0x05\n        /* \"contracts/st.sol\":1992:2011  stakingAPY[numDays] */\n      0x00\n        /* \"contracts/st.sol\":2003:2010  numDays */\n      dup5\n        /* \"contracts/st.sol\":1992:2011  stakingAPY[numDays] */\n      dup2\n      mstore\n      0x20\n      add\n      swap1\n      dup2\n      mstore\n      0x20\n      add\n      0x00\n      keccak256\n      sload\n        /* \"contracts/st.sol\":1978:2011  uint256 apy = stakingAPY[numDays] */\n      swap1\n      pop\n        /* \"contracts/st.sol\":2022:2038  uint256 interest */\n      0x00\n        /* \"contracts/st.sol\":2041:2080  calculateInterest(apy, numDays, amount) */\n      tag_125\n        /* \"contracts/st.sol\":2059:2062  apy */\n      dup3\n        /* \"contracts/st.sol\":2064:2071  numDays */\n      dup6\n        /* \"contracts/st.sol\":2073:2079  amount */\n      dup6\n        /* \"contracts/st.sol\":2041:2058  calculateInterest */\n      tag_126\n        /* \"contracts/st.sol\":2041:2080  calculateInterest(apy, numDays, amount) */\n      jump\t// in\n    tag_125:\n        /* \"contracts/st.sol\":2022:2080  uint256 interest = calculateInterest(apy, numDays, amount) */\n      swap1\n      pop\n        /* \"contracts/st.sol\":2124:2384  Position(... */\n      mload(0x40)\n      dup1\n      0x0120\n      add\n      0x40\n      mstore\n      dup1\n        /* \"contracts/st.sol\":2147:2164  currentPositionId */\n      sload(0x02)\n        /* \"contracts/st.sol\":2124:2384  Position(... */\n      dup2\n      mstore\n      0x20\n      add\n        /* \"contracts/st.sol\":2179:2189  msg.sender */\n      caller\n        /* \"contracts/st.sol\":2124:2384  Position(... */\n      0xffffffffffffffffffffffffffffffffffffffff\n      and\n      dup2\n      mstore\n      0x20\n      add\n        /* \"contracts/st.sol\":2204:2211  tokenId */\n      dup7\n        /* \"contracts/st.sol\":2124:2384  Position(... */\n      dup2\n      mstore\n      0x20\n      add\n        /* \"contracts/st.sol\":2226:2241  block.timestamp */\n      timestamp\n        /* \"contracts/st.sol\":2124:2384  Position(... */\n      dup2\n      mstore\n      0x20\n      add\n        /* \"contracts/st.sol\":2285:2291  1 days */\n      0x015180\n        /* \"contracts/st.sol\":2275:2282  numDays */\n      dup7\n        /* \"contracts/st.sol\":2275:2291  numDays * 1 days */\n      tag_127\n      swap2\n      swap1\n      tag_128\n      jump\t// in\n    tag_127:\n        /* \"contracts/st.sol\":2256:2271  block.timestamp */\n      timestamp\n        /* \"contracts/st.sol\":2256:2292  block.timestamp + (numDays * 1 days) */\n      tag_129\n      swap2\n      swap1\n      tag_130\n      jump\t// in\n    tag_129:\n        /* \"contracts/st.sol\":2124:2384  Position(... */\n      dup2\n      mstore\n      0x20\n      add\n        /* \"contracts/st.sol\":2307:2310  apy */\n      dup4\n        /* \"contracts/st.sol\":2124:2384  Position(... */\n      dup2\n      mstore\n      0x20\n      add\n        /* \"contracts/st.sol\":2325:2331  amount */\n      dup5\n        /* \"contracts/st.sol\":2124:2384  Position(... */\n      dup2\n      mstore\n      0x20\n      add\n        /* \"contracts/st.sol\":2346:2354  interest */\n      dup3\n        /* \"contracts/st.sol\":2124:2384  Position(... */\n      dup2\n      mstore\n      0x20\n      add\n        /* \"contracts/st.sol\":2369:2373  true */\n      0x01\n        /* \"contracts/st.sol\":2124:2384  Position(... */\n      iszero\n      iszero\n      dup2\n      mstore\n      pop\n        /* \"contracts/st.sol\":2093:2102  positions */\n      0x03\n        /* \"contracts/st.sol\":2093:2121  positions[currentPositionId] */\n      0x00\n        /* \"contracts/st.sol\":2103:2120  currentPositionId */\n      sload(0x02)\n        /* \"contracts/st.sol\":2093:2121  positions[currentPositionId] */\n      dup2\n      mstore\n      0x20\n      add\n      swap1\n      dup2\n      mstore\n      0x20\n      add\n      0x00\n      keccak256\n        /* \"contracts/st.sol\":2093:2384  positions[currentPositionId] = Position(... */\n      0x00\n      dup3\n      add\n      mload\n      dup2\n      0x00\n      add\n      sstore\n      0x20\n      dup3\n      add\n      mload\n      dup2\n      0x01\n      add\n      exp(0x0100, 0x00)\n      dup2\n      sload\n      dup2\n      0xffffffffffffffffffffffffffffffffffffffff\n      mul\n      not\n      and\n      swap1\n      dup4\n      0xffffffffffffffffffffffffffffffffffffffff\n      and\n      mul\n      or\n      swap1\n      sstore\n      pop\n      0x40\n      dup3\n      add\n      mload\n      dup2\n      0x02\n      add\n      sstore\n      0x60\n      dup3\n      add\n      mload\n      dup2\n      0x03\n      add\n      sstore\n      0x80\n      dup3\n      add\n      mload\n      dup2\n      0x04\n      add\n      sstore\n      0xa0\n      dup3\n      add\n      mload\n      dup2\n      0x05\n      add\n      sstore\n      0xc0\n      dup3\n      add\n      mload\n      dup2\n      0x06\n      add\n      sstore\n      0xe0\n      dup3\n      add\n      mload\n      dup2\n      0x07\n      add\n      sstore\n      0x0100\n      dup3\n      add\n      mload\n      dup2\n      0x08\n      add\n      exp(0x0100, 0x00)\n      dup2\n      sload\n      dup2\n      0xff\n      mul\n      not\n      and\n      swap1\n      dup4\n      iszero\n      iszero\n      mul\n      or\n      swap1\n      sstore\n      pop\n      swap1\n      pop\n      pop\n        /* \"contracts/st.sol\":2397:2417  positionIdsByAddress */\n      0x04\n        /* \"contracts/st.sol\":2397:2429  positionIdsByAddress[msg.sender] */\n      0x00\n        /* \"contracts/st.sol\":2418:2428  msg.sender */\n      caller\n        /* \"contracts/st.sol\":2397:2429  positionIdsByAddress[msg.sender] */\n      0xffffffffffffffffffffffffffffffffffffffff\n      and\n      0xffffffffffffffffffffffffffffffffffffffff\n      and\n      dup2\n      mstore\n      0x20\n      add\n      swap1\n      dup2\n      mstore\n      0x20\n      add\n      0x00\n      keccak256\n        /* \"contracts/st.sol\":2435:2452  currentPositionId */\n      sload(0x02)\n        /* \"contracts/st.sol\":2397:2453  positionIdsByAddress[msg.sender].push(currentPositionId) */\n      swap1\n      dup1\n      0x01\n      dup2\n      sload\n      add\n      dup1\n      dup3\n      sstore\n      dup1\n      swap2\n      pop\n      pop\n      0x01\n      swap1\n      sub\n      swap1\n      0x00\n      mstore\n      keccak256(0x00, 0x20)\n      add\n      0x00\n      swap1\n      swap2\n      swap1\n      swap2\n      swap1\n      swap2\n      pop\n      sstore\n        /* \"contracts/st.sol\":2500:2510  msg.sender */\n      caller\n        /* \"contracts/st.sol\":2471:2566  NFTStaked(currentPositionId, msg.sender, tokenId, amount, block.timestamp + (numDays * 1 days)) */\n      0xffffffffffffffffffffffffffffffffffffffff\n      and\n        /* \"contracts/st.sol\":2481:2498  currentPositionId */\n      sload(0x02)\n        /* \"contracts/st.sol\":2471:2566  NFTStaked(currentPositionId, msg.sender, tokenId, amount, block.timestamp + (numDays * 1 days)) */\n      0x3a58274652ad3c1b21033919df479ac9d224eefab131449d295d924aa4eeecea\n        /* \"contracts/st.sol\":2512:2519  tokenId */\n      dup8\n        /* \"contracts/st.sol\":2521:2527  amount */\n      dup7\n        /* \"contracts/st.sol\":2558:2564  1 days */\n      0x015180\n        /* \"contracts/st.sol\":2548:2555  numDays */\n      dup10\n        /* \"contracts/st.sol\":2548:2564  numDays * 1 days */\n      tag_132\n      swap2\n      swap1\n      tag_128\n      jump\t// in\n    tag_132:\n        /* \"contracts/st.sol\":2529:2544  block.timestamp */\n      timestamp\n        /* \"contracts/st.sol\":2529:2565  block.timestamp + (numDays * 1 days) */\n      tag_133\n      swap2\n      swap1\n      tag_130\n      jump\t// in\n    tag_133:\n        /* \"contracts/st.sol\":2471:2566  NFTStaked(currentPositionId, msg.sender, tokenId, amount, block.timestamp + (numDays * 1 days)) */\n      mload(0x40)\n      tag_134\n      swap4\n      swap3\n      swap2\n      swap1\n      tag_135\n      jump\t// in\n    tag_134:\n      mload(0x40)\n      dup1\n      swap2\n      sub\n      swap1\n      log3\n        /* \"contracts/st.sol\":2579:2596  currentPositionId */\n      0x02\n      0x00\n        /* \"contracts/st.sol\":2579:2598  currentPositionId++ */\n      dup2\n      sload\n      dup1\n      swap3\n      swap2\n      swap1\n      tag_136\n      swap1\n      tag_137\n      jump\t// in\n    tag_136:\n      swap2\n      swap1\n      pop\n      sstore\n      pop\n        /* \"contracts/st.sol\":1728:2606  {... */\n      pop\n      pop\n        /* \"contracts/st.sol\":1651:2606  function stakeNFT(uint256 tokenId, uint256 numDays, uint256 amount) external {... */\n      pop\n      pop\n      pop\n      jump\t// out\n        /* \"contracts/st.sol\":4866:4998  function getPositionById(uint256 positionId) external view returns (Position memory) {... */\n    tag_66:\n        /* \"contracts/st.sol\":4934:4949  Position memory */\n      tag_138\n      tag_139\n      jump\t// in\n    tag_138:\n        /* \"contracts/st.sol\":4969:4978  positions */\n      0x03\n        /* \"contracts/st.sol\":4969:4990  positions[positionId] */\n      0x00\n        /* \"contracts/st.sol\":4979:4989  positionId */\n      dup4\n        /* \"contracts/st.sol\":4969:4990  positions[positionId] */\n      dup2\n      mstore\n      0x20\n      add\n      swap1\n      dup2\n      mstore\n      0x20\n      add\n      0x00\n      keccak256\n        /* \"contracts/st.sol\":4962:4990  return positions[positionId] */\n      mload(0x40)\n      dup1\n      0x0120\n      add\n      0x40\n      mstore\n      swap1\n      dup2\n      0x00\n      dup3\n      add\n      sload\n      dup2\n      mstore\n      0x20\n      add\n      0x01\n      dup3\n      add\n      0x00\n      swap1\n      sload\n      swap1\n      0x0100\n      exp\n      swap1\n      div\n      0xffffffffffffffffffffffffffffffffffffffff\n      and\n      0xffffffffffffffffffffffffffffffffffffffff\n      and\n      0xffffffffffffffffffffffffffffffffffffffff\n      and\n      dup2\n      mstore\n      0x20\n      add\n      0x02\n      dup3\n      add\n      sload\n      dup2\n      mstore\n      0x20\n      add\n      0x03\n      dup3\n      add\n      sload\n      dup2\n      mstore\n      0x20\n      add\n      0x04\n      dup3\n      add\n      sload\n      dup2\n      mstore\n      0x20\n      add\n      0x05\n      dup3\n      add\n      sload\n      dup2\n      mstore\n      0x20\n      add\n      0x06\n      dup3\n      add\n      sload\n      dup2\n      mstore\n      0x20\n      add\n      0x07\n      dup3\n      add\n      sload\n      dup2\n      mstore\n      0x20\n      add\n      0x08\n      dup3\n      add\n      0x00\n      swap1\n      sload\n      swap1\n      0x0100\n      exp\n      swap1\n      div\n      0xff\n      and\n      iszero\n      iszero\n      iszero\n      iszero\n      dup2\n      mstore\n      pop\n      pop\n      swap1\n      pop\n        /* \"contracts/st.sol\":4866:4998  function getPositionById(uint256 positionId) external view returns (Position memory) {... */\n      swap2\n      swap1\n      pop\n      jump\t// out\n        /* \"contracts/st.sol\":3517:4848  function unstakeNFT(uint256 positionId) external {... */\n    tag_71:\n        /* \"contracts/st.sol\":3577:3602  Position storage position */\n      0x00\n        /* \"contracts/st.sol\":3605:3614  positions */\n      0x03\n        /* \"contracts/st.sol\":3605:3626  positions[positionId] */\n      0x00\n        /* \"contracts/st.sol\":3615:3625  positionId */\n      dup4\n        /* \"contracts/st.sol\":3605:3626  positions[positionId] */\n      dup2\n      mstore\n      0x20\n      add\n      swap1\n      dup2\n      mstore\n      0x20\n      add\n      0x00\n      keccak256\n        /* \"contracts/st.sol\":3577:3626  Position storage position = positions[positionId] */\n      swap1\n      pop\n        /* \"contracts/st.sol\":3671:3681  msg.sender */\n      caller\n        /* \"contracts/st.sol\":3645:3681  position.walletAddress == msg.sender */\n      0xffffffffffffffffffffffffffffffffffffffff\n      and\n        /* \"contracts/st.sol\":3645:3653  position */\n      dup2\n        /* \"contracts/st.sol\":3645:3667  position.walletAddress */\n      0x01\n      add\n      0x00\n      swap1\n      sload\n      swap1\n      0x0100\n      exp\n      swap1\n      div\n      0xffffffffffffffffffffffffffffffffffffffff\n      and\n        /* \"contracts/st.sol\":3645:3681  position.walletAddress == msg.sender */\n      0xffffffffffffffffffffffffffffffffffffffff\n      and\n      eq\n        /* \"contracts/st.sol\":3637:3700  require(position.walletAddress == msg.sender, \"Not your stake\") */\n      tag_142\n      jumpi\n      mload(0x40)\n      0x08c379a000000000000000000000000000000000000000000000000000000000\n      dup2\n      mstore\n      0x04\n      add\n      tag_143\n      swap1\n      tag_144\n      jump\t// in\n    tag_143:\n      mload(0x40)\n      dup1\n      swap2\n      sub\n      swap1\n      revert\n    tag_142:\n        /* \"contracts/st.sol\":3719:3727  position */\n      dup1\n        /* \"contracts/st.sol\":3719:3732  position.open */\n      0x08\n      add\n      0x00\n      swap1\n      sload\n      swap1\n      0x0100\n      exp\n      swap1\n      div\n      0xff\n      and\n        /* \"contracts/st.sol\":3711:3753  require(position.open, \"Already unstaked\") */\n      tag_145\n      jumpi\n      mload(0x40)\n      0x08c379a000000000000000000000000000000000000000000000000000000000\n      dup2\n      mstore\n      0x04\n      add\n      tag_146\n      swap1\n      tag_147\n      jump\t// in\n    tag_146:\n      mload(0x40)\n      dup1\n      swap2\n      sub\n      swap1\n      revert\n    tag_145:\n        /* \"contracts/st.sol\":3766:3784  uint256 stakedDays */\n      0x00\n        /* \"contracts/st.sol\":3830:3836  1 days */\n      0x015180\n        /* \"contracts/st.sol\":3806:3814  position */\n      dup3\n        /* \"contracts/st.sol\":3806:3826  position.createdDate */\n      0x03\n      add\n      sload\n        /* \"contracts/st.sol\":3788:3803  block.timestamp */\n      timestamp\n        /* \"contracts/st.sol\":3788:3826  block.timestamp - position.createdDate */\n      tag_148\n      swap2\n      swap1\n      tag_149\n      jump\t// in\n    tag_148:\n        /* \"contracts/st.sol\":3787:3836  (block.timestamp - position.createdDate) / 1 days */\n      tag_150\n      swap2\n      swap1\n      tag_151\n      jump\t// in\n    tag_150:\n        /* \"contracts/st.sol\":3766:3836  uint256 stakedDays = (block.timestamp - position.createdDate) / 1 days */\n      swap1\n      pop\n        /* \"contracts/st.sol\":3847:3871  uint256 amountToTransfer */\n      0x00\n        /* \"contracts/st.sol\":3882:3904  uint256 interestEarned */\n      dup1\n        /* \"contracts/st.sol\":3940:3948  position */\n      dup4\n        /* \"contracts/st.sol\":3940:3959  position.unlockDate */\n      0x04\n      add\n      sload\n        /* \"contracts/st.sol\":3921:3936  block.timestamp */\n      timestamp\n        /* \"contracts/st.sol\":3921:3959  block.timestamp >= position.unlockDate */\n      lt\n        /* \"contracts/st.sol\":3917:4635  if (block.timestamp >= position.unlockDate) {... */\n      tag_152\n      jumpi\n        /* \"contracts/st.sol\":4065:4073  position */\n      dup4\n        /* \"contracts/st.sol\":4065:4087  position.totalInterest */\n      0x07\n      add\n      sload\n        /* \"contracts/st.sol\":4041:4049  position */\n      dup5\n        /* \"contracts/st.sol\":4041:4062  position.amountStaked */\n      0x06\n      add\n      sload\n        /* \"contracts/st.sol\":4041:4087  position.amountStaked + position.totalInterest */\n      tag_153\n      swap2\n      swap1\n      tag_130\n      jump\t// in\n    tag_153:\n        /* \"contracts/st.sol\":4022:4087  amountToTransfer = position.amountStaked + position.totalInterest */\n      swap2\n      pop\n        /* \"contracts/st.sol\":4119:4127  position */\n      dup4\n        /* \"contracts/st.sol\":4119:4141  position.totalInterest */\n      0x07\n      add\n      sload\n        /* \"contracts/st.sol\":4102:4141  interestEarned = position.totalInterest */\n      swap1\n      pop\n        /* \"contracts/st.sol\":3917:4635  if (block.timestamp >= position.unlockDate) {... */\n      jump(tag_154)\n    tag_152:\n        /* \"contracts/st.sol\":4176:4178  20 */\n      0x14\n        /* \"contracts/st.sol\":4163:4173  stakedDays */\n      dup4\n        /* \"contracts/st.sol\":4163:4178  stakedDays < 20 */\n      lt\n        /* \"contracts/st.sol\":4159:4635  if (stakedDays < 20) {... */\n      iszero\n      tag_155\n      jumpi\n        /* \"contracts/st.sol\":4272:4280  position */\n      dup4\n        /* \"contracts/st.sol\":4272:4293  position.amountStaked */\n      0x06\n      add\n      sload\n        /* \"contracts/st.sol\":4253:4293  amountToTransfer = position.amountStaked */\n      swap2\n      pop\n        /* \"contracts/st.sol\":4325:4326  0 */\n      0x00\n        /* \"contracts/st.sol\":4308:4326  interestEarned = 0 */\n      swap1\n      pop\n        /* \"contracts/st.sol\":4159:4635  if (stakedDays < 20) {... */\n      jump(tag_156)\n    tag_155:\n        /* \"contracts/st.sol\":4421:4443  uint256 interestPerDay */\n      0x00\n        /* \"contracts/st.sol\":4487:4492  36500 */\n      0x8e94\n        /* \"contracts/st.sol\":4471:4479  position */\n      dup6\n        /* \"contracts/st.sol\":4471:4483  position.apy */\n      0x05\n      add\n      sload\n        /* \"contracts/st.sol\":4447:4455  position */\n      dup7\n        /* \"contracts/st.sol\":4447:4468  position.amountStaked */\n      0x06\n      add\n      sload\n        /* \"contracts/st.sol\":4447:4483  position.amountStaked * position.apy */\n      tag_157\n      swap2\n      swap1\n      tag_128\n      jump\t// in\n    tag_157:\n        /* \"contracts/st.sol\":4446:4492  (position.amountStaked * position.apy) / 36500 */\n      tag_158\n      swap2\n      swap1\n      tag_151\n      jump\t// in\n    tag_158:\n        /* \"contracts/st.sol\":4421:4492  uint256 interestPerDay = (position.amountStaked * position.apy) / 36500 */\n      swap1\n      pop\n        /* \"contracts/st.sol\":4541:4551  stakedDays */\n      dup4\n        /* \"contracts/st.sol\":4524:4538  interestPerDay */\n      dup2\n        /* \"contracts/st.sol\":4524:4551  interestPerDay * stakedDays */\n      tag_159\n      swap2\n      swap1\n      tag_128\n      jump\t// in\n    tag_159:\n        /* \"contracts/st.sol\":4507:4551  interestEarned = interestPerDay * stakedDays */\n      swap2\n      pop\n        /* \"contracts/st.sol\":4609:4623  interestEarned */\n      dup2\n        /* \"contracts/st.sol\":4585:4593  position */\n      dup6\n        /* \"contracts/st.sol\":4585:4606  position.amountStaked */\n      0x06\n      add\n      sload\n        /* \"contracts/st.sol\":4585:4623  position.amountStaked + interestEarned */\n      tag_160\n      swap2\n      swap1\n      tag_130\n      jump\t// in\n    tag_160:\n        /* \"contracts/st.sol\":4566:4623  amountToTransfer = position.amountStaked + interestEarned */\n      swap3\n      pop\n        /* \"contracts/st.sol\":4344:4635  {... */\n      pop\n        /* \"contracts/st.sol\":4159:4635  if (stakedDays < 20) {... */\n    tag_156:\n        /* \"contracts/st.sol\":3917:4635  if (block.timestamp >= position.unlockDate) {... */\n    tag_154:\n        /* \"contracts/st.sol\":4655:4662  nftUSDT */\n      0x01\n      0x00\n      swap1\n      sload\n      swap1\n      0x0100\n      exp\n      swap1\n      div\n      0xffffffffffffffffffffffffffffffffffffffff\n      and\n        /* \"contracts/st.sol\":4655:4671  nftUSDT.transfer */\n      0xffffffffffffffffffffffffffffffffffffffff\n      and\n      0xa9059cbb\n        /* \"contracts/st.sol\":4672:4682  msg.sender */\n      caller\n        /* \"contracts/st.sol\":4684:4700  amountToTransfer */\n      dup5\n        /* \"contracts/st.sol\":4655:4701  nftUSDT.transfer(msg.sender, amountToTransfer) */\n      mload(0x40)\n      dup4\n      0xffffffff\n      and\n      0xe0\n      shl\n      dup2\n      mstore\n      0x04\n      add\n      tag_161\n      swap3\n      swap2\n      swap1\n      tag_93\n      jump\t// in\n    tag_161:\n      0x20\n      mload(0x40)\n      dup1\n      dup4\n      sub\n      dup2\n      0x00\n      dup8\n      gas\n      call\n      iszero\n      dup1\n      iszero\n      tag_163\n      jumpi\n      returndatasize\n      0x00\n      dup1\n      returndatacopy\n      revert(0x00, returndatasize)\n    tag_163:\n      pop\n      pop\n      pop\n      pop\n      mload(0x40)\n      returndatasize\n      not(0x1f)\n      0x1f\n      dup3\n      add\n      and\n      dup3\n      add\n      dup1\n      0x40\n      mstore\n      pop\n      dup2\n      add\n      swap1\n      tag_164\n      swap2\n      swap1\n      tag_97\n      jump\t// in\n    tag_164:\n        /* \"contracts/st.sol\":4647:4721  require(nftUSDT.transfer(msg.sender, amountToTransfer), \"Transfer failed\") */\n      tag_165\n      jumpi\n      mload(0x40)\n      0x08c379a000000000000000000000000000000000000000000000000000000000\n      dup2\n      mstore\n      0x04\n      add\n      tag_166\n      swap1\n      tag_167\n      jump\t// in\n    tag_166:\n      mload(0x40)\n      dup1\n      swap2\n      sub\n      swap1\n      revert\n    tag_165:\n        /* \"contracts/st.sol\":4748:4753  false */\n      0x00\n        /* \"contracts/st.sol\":4732:4740  position */\n      dup5\n        /* \"contracts/st.sol\":4732:4745  position.open */\n      0x08\n      add\n      0x00\n        /* \"contracts/st.sol\":4732:4753  position.open = false */\n      0x0100\n      exp\n      dup2\n      sload\n      dup2\n      0xff\n      mul\n      not\n      and\n      swap1\n      dup4\n      iszero\n      iszero\n      mul\n      or\n      swap1\n      sstore\n      pop\n        /* \"contracts/st.sol\":4795:4805  msg.sender */\n      caller\n        /* \"contracts/st.sol\":4771:4840  NFTUnstaked(positionId, msg.sender, amountToTransfer, interestEarned) */\n      0xffffffffffffffffffffffffffffffffffffffff\n      and\n        /* \"contracts/st.sol\":4783:4793  positionId */\n      dup6\n        /* \"contracts/st.sol\":4771:4840  NFTUnstaked(positionId, msg.sender, amountToTransfer, interestEarned) */\n      0xd4fb60805a60894a62fe4eb89b3ad68f7bacfe2777738ddfe5ed694c0dcd1d52\n        /* \"contracts/st.sol\":4807:4823  amountToTransfer */\n      dup5\n        /* \"contracts/st.sol\":4825:4839  interestEarned */\n      dup5\n        /* \"contracts/st.sol\":4771:4840  NFTUnstaked(positionId, msg.sender, amountToTransfer, interestEarned) */\n      mload(0x40)\n      tag_168\n      swap3\n      swap2\n      swap1\n      tag_169\n      jump\t// in\n    tag_168:\n      mload(0x40)\n      dup1\n      swap2\n      sub\n      swap1\n      log3\n        /* \"contracts/st.sol\":3566:4848  {... */\n      pop\n      pop\n      pop\n      pop\n        /* \"contracts/st.sol\":3517:4848  function unstakeNFT(uint256 positionId) external {... */\n      pop\n      jump\t// out\n        /* \"contracts/st.sol\":2919:3335  function calculatePreDaysInterest(uint256 positionId) external view returns (uint256) {... */\n    tag_74:\n        /* \"contracts/st.sol\":2996:3003  uint256 */\n      0x00\n        /* \"contracts/st.sol\":3016:3041  Position storage position */\n      dup1\n        /* \"contracts/st.sol\":3044:3053  positions */\n      0x03\n        /* \"contracts/st.sol\":3044:3065  positions[positionId] */\n      0x00\n        /* \"contracts/st.sol\":3054:3064  positionId */\n      dup5\n        /* \"contracts/st.sol\":3044:3065  positions[positionId] */\n      dup2\n      mstore\n      0x20\n      add\n      swap1\n      dup2\n      mstore\n      0x20\n      add\n      0x00\n      keccak256\n        /* \"contracts/st.sol\":3016:3065  Position storage position = positions[positionId] */\n      swap1\n      pop\n        /* \"contracts/st.sol\":3084:3092  position */\n      dup1\n        /* \"contracts/st.sol\":3084:3097  position.open */\n      0x08\n      add\n      0x00\n      swap1\n      sload\n      swap1\n      0x0100\n      exp\n      swap1\n      div\n      0xff\n      and\n        /* \"contracts/st.sol\":3076:3117  require(position.open, \"Position closed\") */\n      tag_171\n      jumpi\n      mload(0x40)\n      0x08c379a000000000000000000000000000000000000000000000000000000000\n      dup2\n      mstore\n      0x04\n      add\n      tag_172\n      swap1\n      tag_173\n      jump\t// in\n    tag_172:\n      mload(0x40)\n      dup1\n      swap2\n      sub\n      swap1\n      revert\n    tag_171:\n        /* \"contracts/st.sol\":3130:3148  uint256 daysStaked */\n      0x00\n        /* \"contracts/st.sol\":3194:3200  1 days */\n      0x015180\n        /* \"contracts/st.sol\":3170:3178  position */\n      dup3\n        /* \"contracts/st.sol\":3170:3190  position.createdDate */\n      0x03\n      add\n      sload\n        /* \"contracts/st.sol\":3152:3167  block.timestamp */\n      timestamp\n        /* \"contracts/st.sol\":3152:3190  block.timestamp - position.createdDate */\n      tag_174\n      swap2\n      swap1\n      tag_149\n      jump\t// in\n    tag_174:\n        /* \"contracts/st.sol\":3151:3200  (block.timestamp - position.createdDate) / 1 days */\n      tag_175\n      swap2\n      swap1\n      tag_151\n      jump\t// in\n    tag_175:\n        /* \"contracts/st.sol\":3130:3200  uint256 daysStaked = (block.timestamp - position.createdDate) / 1 days */\n      swap1\n      pop\n        /* \"contracts/st.sol\":3211:3233  uint256 interestPerDay */\n      0x00\n        /* \"contracts/st.sol\":3277:3282  36500 */\n      0x8e94\n        /* \"contracts/st.sol\":3261:3269  position */\n      dup4\n        /* \"contracts/st.sol\":3261:3273  position.apy */\n      0x05\n      add\n      sload\n        /* \"contracts/st.sol\":3237:3245  position */\n      dup5\n        /* \"contracts/st.sol\":3237:3258  position.amountStaked */\n      0x06\n      add\n      sload\n        /* \"contracts/st.sol\":3237:3273  position.amountStaked * position.apy */\n      tag_176\n      swap2\n      swap1\n      tag_128\n      jump\t// in\n    tag_176:\n        /* \"contracts/st.sol\":3236:3282  (position.amountStaked * position.apy) / 36500 */\n      tag_177\n      swap2\n      swap1\n      tag_151\n      jump\t// in\n    tag_177:\n        /* \"contracts/st.sol\":3211:3282  uint256 interestPerDay = (position.amountStaked * position.apy) / 36500 */\n      swap1\n      pop\n        /* \"contracts/st.sol\":3317:3327  daysStaked */\n      dup2\n        /* \"contracts/st.sol\":3300:3314  interestPerDay */\n      dup2\n        /* \"contracts/st.sol\":3300:3327  interestPerDay * daysStaked */\n      tag_178\n      swap2\n      swap1\n      tag_128\n      jump\t// in\n    tag_178:\n        /* \"contracts/st.sol\":3293:3327  return interestPerDay * daysStaked */\n      swap4\n      pop\n      pop\n      pop\n      pop\n        /* \"contracts/st.sol\":2919:3335  function calculatePreDaysInterest(uint256 positionId) external view returns (uint256) {... */\n      swap2\n      swap1\n      pop\n      jump\t// out\n        /* \"contracts/st.sol\":5173:5283  function getAPY(uint256 numDays) external view returns (uint256) {... */\n    tag_78:\n        /* \"contracts/st.sol\":5229:5236  uint256 */\n      0x00\n        /* \"contracts/st.sol\":5256:5266  stakingAPY */\n      0x05\n        /* \"contracts/st.sol\":5256:5275  stakingAPY[numDays] */\n      0x00\n        /* \"contracts/st.sol\":5267:5274  numDays */\n      dup4\n        /* \"contracts/st.sol\":5256:5275  stakingAPY[numDays] */\n      dup2\n      mstore\n      0x20\n      add\n      swap1\n      dup2\n      mstore\n      0x20\n      add\n      0x00\n      keccak256\n      sload\n        /* \"contracts/st.sol\":5249:5275  return stakingAPY[numDays] */\n      swap1\n      pop\n        /* \"contracts/st.sol\":5173:5283  function getAPY(uint256 numDays) external view returns (uint256) {... */\n      swap2\n      swap1\n      pop\n      jump\t// out\n        /* \"contracts/st.sol\":2643:2861  function calculateInterest(uint256 apy, uint256 numDays, uint256 amount) private pure returns (uint256) {... */\n    tag_126:\n        /* \"contracts/st.sol\":2738:2745  uint256 */\n      0x00\n        /* \"contracts/st.sol\":2758:2780  uint256 yearlyInterest */\n      dup1\n        /* \"contracts/st.sol\":2800:2803  100 */\n      0x64\n        /* \"contracts/st.sol\":2790:2796  amount */\n      dup4\n        /* \"contracts/st.sol\":2784:2787  apy */\n      dup7\n        /* \"contracts/st.sol\":2784:2796  apy * amount */\n      tag_181\n      swap2\n      swap1\n      tag_128\n      jump\t// in\n    tag_181:\n        /* \"contracts/st.sol\":2783:2803  (apy * amount) / 100 */\n      tag_182\n      swap2\n      swap1\n      tag_151\n      jump\t// in\n    tag_182:\n        /* \"contracts/st.sol\":2758:2803  uint256 yearlyInterest = (apy * amount) / 100 */\n      swap1\n      pop\n        /* \"contracts/st.sol\":2850:2853  365 */\n      0x016d\n        /* \"contracts/st.sol\":2839:2846  numDays */\n      dup5\n        /* \"contracts/st.sol\":2822:2836  yearlyInterest */\n      dup3\n        /* \"contracts/st.sol\":2822:2846  yearlyInterest * numDays */\n      tag_183\n      swap2\n      swap1\n      tag_128\n      jump\t// in\n    tag_183:\n        /* \"contracts/st.sol\":2821:2853  (yearlyInterest * numDays) / 365 */\n      tag_184\n      swap2\n      swap1\n      tag_151\n      jump\t// in\n    tag_184:\n        /* \"contracts/st.sol\":2814:2853  return (yearlyInterest * numDays) / 365 */\n      swap2\n      pop\n      pop\n        /* \"contracts/st.sol\":2643:2861  function calculateInterest(uint256 apy, uint256 numDays, uint256 amount) private pure returns (uint256) {... */\n      swap4\n      swap3\n      pop\n      pop\n      pop\n      jump\t// out\n    tag_139:\n      mload(0x40)\n      dup1\n      0x0120\n      add\n      0x40\n      mstore\n      dup1\n      0x00\n      dup2\n      mstore\n      0x20\n      add\n      and(0xffffffffffffffffffffffffffffffffffffffff, 0x00)\n      dup2\n      mstore\n      0x20\n      add\n      0x00\n      dup2\n      mstore\n      0x20\n      add\n      0x00\n      dup2\n      mstore\n      0x20\n      add\n      0x00\n      dup2\n      mstore\n      0x20\n      add\n      0x00\n      dup2\n      mstore\n      0x20\n      add\n      0x00\n      dup2\n      mstore\n      0x20\n      add\n      0x00\n      dup2\n      mstore\n      0x20\n      add\n      iszero(iszero(0x00))\n      dup2\n      mstore\n      pop\n      swap1\n      jump\t// out\n        /* \"#utility.yul\":7:84   */\n    tag_185:\n        /* \"#utility.yul\":44:51   */\n      0x00\n        /* \"#utility.yul\":73:78   */\n      dup2\n        /* \"#utility.yul\":62:78   */\n      swap1\n      pop\n        /* \"#utility.yul\":7:84   */\n      swap2\n      swap1\n      pop\n      jump\t// out\n        /* \"#utility.yul\":90:208   */\n    tag_186:\n        /* \"#utility.yul\":177:201   */\n      tag_243\n        /* \"#utility.yul\":195:200   */\n      dup2\n        /* \"#utility.yul\":177:201   */\n      tag_185\n      jump\t// in\n    tag_243:\n        /* \"#utility.yul\":172:175   */\n      dup3\n        /* \"#utility.yul\":165:202   */\n      mstore\n        /* \"#utility.yul\":90:208   */\n      pop\n      pop\n      jump\t// out\n        /* \"#utility.yul\":214:436   */\n    tag_23:\n        /* \"#utility.yul\":307:311   */\n      0x00\n        /* \"#utility.yul\":345:347   */\n      0x20\n        /* \"#utility.yul\":334:343   */\n      dup3\n        /* \"#utility.yul\":330:348   */\n      add\n        /* \"#utility.yul\":322:348   */\n      swap1\n      pop\n        /* \"#utility.yul\":358:429   */\n      tag_245\n        /* \"#utility.yul\":426:427   */\n      0x00\n        /* \"#utility.yul\":415:424   */\n      dup4\n        /* \"#utility.yul\":411:428   */\n      add\n        /* \"#utility.yul\":402:408   */\n      dup5\n        /* \"#utility.yul\":358:429   */\n      tag_186\n      jump\t// in\n    tag_245:\n        /* \"#utility.yul\":214:436   */\n      swap3\n      swap2\n      pop\n      pop\n      jump\t// out\n        /* \"#utility.yul\":523:640   */\n    tag_188:\n        /* \"#utility.yul\":632:633   */\n      0x00\n        /* \"#utility.yul\":629:630   */\n      dup1\n        /* \"#utility.yul\":622:634   */\n      revert\n        /* \"#utility.yul\":769:891   */\n    tag_190:\n        /* \"#utility.yul\":842:866   */\n      tag_250\n        /* \"#utility.yul\":860:865   */\n      dup2\n        /* \"#utility.yul\":842:866   */\n      tag_185\n      jump\t// in\n    tag_250:\n        /* \"#utility.yul\":835:840   */\n      dup2\n        /* \"#utility.yul\":832:867   */\n      eq\n        /* \"#utility.yul\":822:885   */\n      tag_251\n      jumpi\n        /* \"#utility.yul\":881:882   */\n      0x00\n        /* \"#utility.yul\":878:879   */\n      dup1\n        /* \"#utility.yul\":871:883   */\n      revert\n        /* \"#utility.yul\":822:885   */\n    tag_251:\n        /* \"#utility.yul\":769:891   */\n      pop\n      jump\t// out\n        /* \"#utility.yul\":897:1036   */\n    tag_191:\n        /* \"#utility.yul\":943:948   */\n      0x00\n        /* \"#utility.yul\":981:987   */\n      dup2\n        /* \"#utility.yul\":968:988   */\n      calldataload\n        /* \"#utility.yul\":959:988   */\n      swap1\n      pop\n        /* \"#utility.yul\":997:1030   */\n      tag_253\n        /* \"#utility.yul\":1024:1029   */\n      dup2\n        /* \"#utility.yul\":997:1030   */\n      tag_190\n      jump\t// in\n    tag_253:\n        /* \"#utility.yul\":897:1036   */\n      swap3\n      swap2\n      pop\n      pop\n      jump\t// out\n        /* \"#utility.yul\":1042:1371   */\n    tag_26:\n        /* \"#utility.yul\":1101:1107   */\n      0x00\n        /* \"#utility.yul\":1150:1152   */\n      0x20\n        /* \"#utility.yul\":1138:1147   */\n      dup3\n        /* \"#utility.yul\":1129:1136   */\n      dup5\n        /* \"#utility.yul\":1125:1148   */\n      sub\n        /* \"#utility.yul\":1121:1153   */\n      slt\n        /* \"#utility.yul\":1118:1237   */\n      iszero\n      tag_255\n      jumpi\n        /* \"#utility.yul\":1156:1235   */\n      tag_256\n      tag_188\n      jump\t// in\n    tag_256:\n        /* \"#utility.yul\":1118:1237   */\n    tag_255:\n        /* \"#utility.yul\":1276:1277   */\n      0x00\n        /* \"#utility.yul\":1301:1354   */\n      tag_257\n        /* \"#utility.yul\":1346:1353   */\n      dup5\n        /* \"#utility.yul\":1337:1343   */\n      dup3\n        /* \"#utility.yul\":1326:1335   */\n      dup6\n        /* \"#utility.yul\":1322:1344   */\n      add\n        /* \"#utility.yul\":1301:1354   */\n      tag_191\n      jump\t// in\n    tag_257:\n        /* \"#utility.yul\":1291:1354   */\n      swap2\n      pop\n        /* \"#utility.yul\":1247:1364   */\n      pop\n        /* \"#utility.yul\":1042:1371   */\n      swap3\n      swap2\n      pop\n      pop\n      jump\t// out\n        /* \"#utility.yul\":1377:1503   */\n    tag_192:\n        /* \"#utility.yul\":1414:1421   */\n      0x00\n        /* \"#utility.yul\":1454:1496   */\n      0xffffffffffffffffffffffffffffffffffffffff\n        /* \"#utility.yul\":1447:1452   */\n      dup3\n        /* \"#utility.yul\":1443:1497   */\n      and\n        /* \"#utility.yul\":1432:1497   */\n      swap1\n      pop\n        /* \"#utility.yul\":1377:1503   */\n      swap2\n      swap1\n      pop\n      jump\t// out\n        /* \"#utility.yul\":1509:1605   */\n    tag_193:\n        /* \"#utility.yul\":1546:1553   */\n      0x00\n        /* \"#utility.yul\":1575:1599   */\n      tag_260\n        /* \"#utility.yul\":1593:1598   */\n      dup3\n        /* \"#utility.yul\":1575:1599   */\n      tag_192\n      jump\t// in\n    tag_260:\n        /* \"#utility.yul\":1564:1599   */\n      swap1\n      pop\n        /* \"#utility.yul\":1509:1605   */\n      swap2\n      swap1\n      pop\n      jump\t// out\n        /* \"#utility.yul\":1611:1733   */\n    tag_194:\n        /* \"#utility.yul\":1684:1708   */\n      tag_262\n        /* \"#utility.yul\":1702:1707   */\n      dup2\n        /* \"#utility.yul\":1684:1708   */\n      tag_193\n      jump\t// in\n    tag_262:\n        /* \"#utility.yul\":1677:1682   */\n      dup2\n        /* \"#utility.yul\":1674:1709   */\n      eq\n        /* \"#utility.yul\":1664:1727   */\n      tag_263\n      jumpi\n        /* \"#utility.yul\":1723:1724   */\n      0x00\n        /* \"#utility.yul\":1720:1721   */\n      dup1\n        /* \"#utility.yul\":1713:1725   */\n      revert\n        /* \"#utility.yul\":1664:1727   */\n    tag_263:\n        /* \"#utility.yul\":1611:1733   */\n      pop\n      jump\t// out\n        /* \"#utility.yul\":1739:1878   */\n    tag_195:\n        /* \"#utility.yul\":1785:1790   */\n      0x00\n        /* \"#utility.yul\":1823:1829   */\n      dup2\n        /* \"#utility.yul\":1810:1830   */\n      calldataload\n        /* \"#utility.yul\":1801:1830   */\n      swap1\n      pop\n        /* \"#utility.yul\":1839:1872   */\n      tag_265\n        /* \"#utility.yul\":1866:1871   */\n      dup2\n        /* \"#utility.yul\":1839:1872   */\n      tag_194\n      jump\t// in\n    tag_265:\n        /* \"#utility.yul\":1739:1878   */\n      swap3\n      swap2\n      pop\n      pop\n      jump\t// out\n        /* \"#utility.yul\":1884:2213   */\n    tag_30:\n        /* \"#utility.yul\":1943:1949   */\n      0x00\n        /* \"#utility.yul\":1992:1994   */\n      0x20\n        /* \"#utility.yul\":1980:1989   */\n      dup3\n        /* \"#utility.yul\":1971:1978   */\n      dup5\n        /* \"#utility.yul\":1967:1990   */\n      sub\n        /* \"#utility.yul\":1963:1995   */\n      slt\n        /* \"#utility.yul\":1960:2079   */\n      iszero\n      tag_267\n      jumpi\n        /* \"#utility.yul\":1998:2077   */\n      tag_268\n      tag_188\n      jump\t// in\n    tag_268:\n        /* \"#utility.yul\":1960:2079   */\n    tag_267:\n        /* \"#utility.yul\":2118:2119   */\n      0x00\n        /* \"#utility.yul\":2143:2196   */\n      tag_269\n        /* \"#utility.yul\":2188:2195   */\n      dup5\n        /* \"#utility.yul\":2179:2185   */\n      dup3\n        /* \"#utility.yul\":2168:2177   */\n      dup6\n        /* \"#utility.yul\":2164:2186   */\n      add\n        /* \"#utility.yul\":2143:2196   */\n      tag_195\n      jump\t// in\n    tag_269:\n        /* \"#utility.yul\":2133:2196   */\n      swap2\n      pop\n        /* \"#utility.yul\":2089:2206   */\n      pop\n        /* \"#utility.yul\":1884:2213   */\n      swap3\n      swap2\n      pop\n      pop\n      jump\t// out\n        /* \"#utility.yul\":2219:2333   */\n    tag_196:\n        /* \"#utility.yul\":2286:2292   */\n      0x00\n        /* \"#utility.yul\":2320:2325   */\n      dup2\n        /* \"#utility.yul\":2314:2326   */\n      mload\n        /* \"#utility.yul\":2304:2326   */\n      swap1\n      pop\n        /* \"#utility.yul\":2219:2333   */\n      swap2\n      swap1\n      pop\n      jump\t// out\n        /* \"#utility.yul\":2339:2523   */\n    tag_197:\n        /* \"#utility.yul\":2438:2449   */\n      0x00\n        /* \"#utility.yul\":2472:2478   */\n      dup3\n        /* \"#utility.yul\":2467:2470   */\n      dup3\n        /* \"#utility.yul\":2460:2479   */\n      mstore\n        /* \"#utility.yul\":2512:2516   */\n      0x20\n        /* \"#utility.yul\":2507:2510   */\n      dup3\n        /* \"#utility.yul\":2503:2517   */\n      add\n        /* \"#utility.yul\":2488:2517   */\n      swap1\n      pop\n        /* \"#utility.yul\":2339:2523   */\n      swap3\n      swap2\n      pop\n      pop\n      jump\t// out\n        /* \"#utility.yul\":2529:2661   */\n    tag_198:\n        /* \"#utility.yul\":2596:2600   */\n      0x00\n        /* \"#utility.yul\":2619:2622   */\n      dup2\n        /* \"#utility.yul\":2611:2622   */\n      swap1\n      pop\n        /* \"#utility.yul\":2649:2653   */\n      0x20\n        /* \"#utility.yul\":2644:2647   */\n      dup3\n        /* \"#utility.yul\":2640:2654   */\n      add\n        /* \"#utility.yul\":2632:2654   */\n      swap1\n      pop\n        /* \"#utility.yul\":2529:2661   */\n      swap2\n      swap1\n      pop\n      jump\t// out\n        /* \"#utility.yul\":2667:2775   */\n    tag_199:\n        /* \"#utility.yul\":2744:2768   */\n      tag_274\n        /* \"#utility.yul\":2762:2767   */\n      dup2\n        /* \"#utility.yul\":2744:2768   */\n      tag_185\n      jump\t// in\n    tag_274:\n        /* \"#utility.yul\":2739:2742   */\n      dup3\n        /* \"#utility.yul\":2732:2769   */\n      mstore\n        /* \"#utility.yul\":2667:2775   */\n      pop\n      pop\n      jump\t// out\n        /* \"#utility.yul\":2781:2960   */\n    tag_200:\n        /* \"#utility.yul\":2850:2860   */\n      0x00\n        /* \"#utility.yul\":2871:2917   */\n      tag_276\n        /* \"#utility.yul\":2913:2916   */\n      dup4\n        /* \"#utility.yul\":2905:2911   */\n      dup4\n        /* \"#utility.yul\":2871:2917   */\n      tag_199\n      jump\t// in\n    tag_276:\n        /* \"#utility.yul\":2949:2953   */\n      0x20\n        /* \"#utility.yul\":2944:2947   */\n      dup4\n        /* \"#utility.yul\":2940:2954   */\n      add\n        /* \"#utility.yul\":2926:2954   */\n      swap1\n      pop\n        /* \"#utility.yul\":2781:2960   */\n      swap3\n      swap2\n      pop\n      pop\n      jump\t// out\n        /* \"#utility.yul\":2966:3079   */\n    tag_201:\n        /* \"#utility.yul\":3036:3040   */\n      0x00\n        /* \"#utility.yul\":3068:3072   */\n      0x20\n        /* \"#utility.yul\":3063:3066   */\n      dup3\n        /* \"#utility.yul\":3059:3073   */\n      add\n        /* \"#utility.yul\":3051:3073   */\n      swap1\n      pop\n        /* \"#utility.yul\":2966:3079   */\n      swap2\n      swap1\n      pop\n      jump\t// out\n        /* \"#utility.yul\":3115:3847   */\n    tag_202:\n        /* \"#utility.yul\":3234:3237   */\n      0x00\n        /* \"#utility.yul\":3263:3317   */\n      tag_279\n        /* \"#utility.yul\":3311:3316   */\n      dup3\n        /* \"#utility.yul\":3263:3317   */\n      tag_196\n      jump\t// in\n    tag_279:\n        /* \"#utility.yul\":3333:3419   */\n      tag_280\n        /* \"#utility.yul\":3412:3418   */\n      dup2\n        /* \"#utility.yul\":3407:3410   */\n      dup6\n        /* \"#utility.yul\":3333:3419   */\n      tag_197\n      jump\t// in\n    tag_280:\n        /* \"#utility.yul\":3326:3419   */\n      swap4\n      pop\n        /* \"#utility.yul\":3443:3499   */\n      tag_281\n        /* \"#utility.yul\":3493:3498   */\n      dup4\n        /* \"#utility.yul\":3443:3499   */\n      tag_198\n      jump\t// in\n    tag_281:\n        /* \"#utility.yul\":3522:3529   */\n      dup1\n        /* \"#utility.yul\":3553:3554   */\n      0x00\n        /* \"#utility.yul\":3538:3822   */\n    tag_282:\n        /* \"#utility.yul\":3563:3569   */\n      dup4\n        /* \"#utility.yul\":3560:3561   */\n      dup2\n        /* \"#utility.yul\":3557:3570   */\n      lt\n        /* \"#utility.yul\":3538:3822   */\n      iszero\n      tag_284\n      jumpi\n        /* \"#utility.yul\":3639:3645   */\n      dup2\n        /* \"#utility.yul\":3633:3646   */\n      mload\n        /* \"#utility.yul\":3666:3729   */\n      tag_285\n        /* \"#utility.yul\":3725:3728   */\n      dup9\n        /* \"#utility.yul\":3710:3723   */\n      dup3\n        /* \"#utility.yul\":3666:3729   */\n      tag_200\n      jump\t// in\n    tag_285:\n        /* \"#utility.yul\":3659:3729   */\n      swap8\n      pop\n        /* \"#utility.yul\":3752:3812   */\n      tag_286\n        /* \"#utility.yul\":3805:3811   */\n      dup4\n        /* \"#utility.yul\":3752:3812   */\n      tag_201\n      jump\t// in\n    tag_286:\n        /* \"#utility.yul\":3742:3812   */\n      swap3\n      pop\n        /* \"#utility.yul\":3598:3822   */\n      pop\n        /* \"#utility.yul\":3585:3586   */\n      0x01\n        /* \"#utility.yul\":3582:3583   */\n      dup2\n        /* \"#utility.yul\":3578:3587   */\n      add\n        /* \"#utility.yul\":3573:3587   */\n      swap1\n      pop\n        /* \"#utility.yul\":3538:3822   */\n      jump(tag_282)\n    tag_284:\n        /* \"#utility.yul\":3542:3556   */\n      pop\n        /* \"#utility.yul\":3838:3841   */\n      dup6\n        /* \"#utility.yul\":3831:3841   */\n      swap4\n      pop\n        /* \"#utility.yul\":3239:3847   */\n      pop\n      pop\n      pop\n        /* \"#utility.yul\":3115:3847   */\n      swap3\n      swap2\n      pop\n      pop\n      jump\t// out\n        /* \"#utility.yul\":3853:4226   */\n    tag_33:\n        /* \"#utility.yul\":3996:4000   */\n      0x00\n        /* \"#utility.yul\":4034:4036   */\n      0x20\n        /* \"#utility.yul\":4023:4032   */\n      dup3\n        /* \"#utility.yul\":4019:4037   */\n      add\n        /* \"#utility.yul\":4011:4037   */\n      swap1\n      pop\n        /* \"#utility.yul\":4083:4092   */\n      dup2\n        /* \"#utility.yul\":4077:4081   */\n      dup2\n        /* \"#utility.yul\":4073:4093   */\n      sub\n        /* \"#utility.yul\":4069:4070   */\n      0x00\n        /* \"#utility.yul\":4058:4067   */\n      dup4\n        /* \"#utility.yul\":4054:4071   */\n      add\n        /* \"#utility.yul\":4047:4094   */\n      mstore\n        /* \"#utility.yul\":4111:4219   */\n      tag_288\n        /* \"#utility.yul\":4214:4218   */\n      dup2\n        /* \"#utility.yul\":4205:4211   */\n      dup5\n        /* \"#utility.yul\":4111:4219   */\n      tag_202\n      jump\t// in\n    tag_288:\n        /* \"#utility.yul\":4103:4219   */\n      swap1\n      pop\n        /* \"#utility.yul\":3853:4226   */\n      swap3\n      swap2\n      pop\n      pop\n      jump\t// out\n        /* \"#utility.yul\":4232:4706   */\n    tag_36:\n        /* \"#utility.yul\":4300:4306   */\n      0x00\n        /* \"#utility.yul\":4308:4314   */\n      dup1\n        /* \"#utility.yul\":4357:4359   */\n      0x40\n        /* \"#utility.yul\":4345:4354   */\n      dup4\n        /* \"#utility.yul\":4336:4343   */\n      dup6\n        /* \"#utility.yul\":4332:4355   */\n      sub\n        /* \"#utility.yul\":4328:4360   */\n      slt\n        /* \"#utility.yul\":4325:4444   */\n      iszero\n      tag_290\n      jumpi\n        /* \"#utility.yul\":4363:4442   */\n      tag_291\n      tag_188\n      jump\t// in\n    tag_291:\n        /* \"#utility.yul\":4325:4444   */\n    tag_290:\n        /* \"#utility.yul\":4483:4484   */\n      0x00\n        /* \"#utility.yul\":4508:4561   */\n      tag_292\n        /* \"#utility.yul\":4553:4560   */\n      dup6\n        /* \"#utility.yul\":4544:4550   */\n      dup3\n        /* \"#utility.yul\":4533:4542   */\n      dup7\n        /* \"#utility.yul\":4529:4551   */\n      add\n        /* \"#utility.yul\":4508:4561   */\n      tag_195\n      jump\t// in\n    tag_292:\n        /* \"#utility.yul\":4498:4561   */\n      swap3\n      pop\n        /* \"#utility.yul\":4454:4571   */\n      pop\n        /* \"#utility.yul\":4610:4612   */\n      0x20\n        /* \"#utility.yul\":4636:4689   */\n      tag_293\n        /* \"#utility.yul\":4681:4688   */\n      dup6\n        /* \"#utility.yul\":4672:4678   */\n      dup3\n        /* \"#utility.yul\":4661:4670   */\n      dup7\n        /* \"#utility.yul\":4657:4679   */\n      add\n        /* \"#utility.yul\":4636:4689   */\n      tag_191\n      jump\t// in\n    tag_293:\n        /* \"#utility.yul\":4626:4689   */\n      swap2\n      pop\n        /* \"#utility.yul\":4581:4699   */\n      pop\n        /* \"#utility.yul\":4232:4706   */\n      swap3\n      pop\n      swap3\n      swap1\n      pop\n      jump\t// out\n        /* \"#utility.yul\":4712:5186   */\n    tag_41:\n        /* \"#utility.yul\":4780:4786   */\n      0x00\n        /* \"#utility.yul\":4788:4794   */\n      dup1\n        /* \"#utility.yul\":4837:4839   */\n      0x40\n        /* \"#utility.yul\":4825:4834   */\n      dup4\n        /* \"#utility.yul\":4816:4823   */\n      dup6\n        /* \"#utility.yul\":4812:4835   */\n      sub\n        /* \"#utility.yul\":4808:4840   */\n      slt\n        /* \"#utility.yul\":4805:4924   */\n      iszero\n      tag_295\n      jumpi\n        /* \"#utility.yul\":4843:4922   */\n      tag_296\n      tag_188\n      jump\t// in\n    tag_296:\n        /* \"#utility.yul\":4805:4924   */\n    tag_295:\n        /* \"#utility.yul\":4963:4964   */\n      0x00\n        /* \"#utility.yul\":4988:5041   */\n      tag_297\n        /* \"#utility.yul\":5033:5040   */\n      dup6\n        /* \"#utility.yul\":5024:5030   */\n      dup3\n        /* \"#utility.yul\":5013:5022   */\n      dup7\n        /* \"#utility.yul\":5009:5031   */\n      add\n        /* \"#utility.yul\":4988:5041   */\n      tag_191\n      jump\t// in\n    tag_297:\n        /* \"#utility.yul\":4978:5041   */\n      swap3\n      pop\n        /* \"#utility.yul\":4934:5051   */\n      pop\n        /* \"#utility.yul\":5090:5092   */\n      0x20\n        /* \"#utility.yul\":5116:5169   */\n      tag_298\n        /* \"#utility.yul\":5161:5168   */\n      dup6\n        /* \"#utility.yul\":5152:5158   */\n      dup3\n        /* \"#utility.yul\":5141:5150   */\n      dup7\n        /* \"#utility.yul\":5137:5159   */\n      add\n        /* \"#utility.yul\":5116:5169   */\n      tag_191\n      jump\t// in\n    tag_298:\n        /* \"#utility.yul\":5106:5169   */\n      swap2\n      pop\n        /* \"#utility.yul\":5061:5179   */\n      pop\n        /* \"#utility.yul\":4712:5186   */\n      swap3\n      pop\n      swap3\n      swap1\n      pop\n      jump\t// out\n        /* \"#utility.yul\":5192:5310   */\n    tag_203:\n        /* \"#utility.yul\":5279:5303   */\n      tag_300\n        /* \"#utility.yul\":5297:5302   */\n      dup2\n        /* \"#utility.yul\":5279:5303   */\n      tag_193\n      jump\t// in\n    tag_300:\n        /* \"#utility.yul\":5274:5277   */\n      dup3\n        /* \"#utility.yul\":5267:5304   */\n      mstore\n        /* \"#utility.yul\":5192:5310   */\n      pop\n      pop\n      jump\t// out\n        /* \"#utility.yul\":5316:5538   */\n    tag_50:\n        /* \"#utility.yul\":5409:5413   */\n      0x00\n        /* \"#utility.yul\":5447:5449   */\n      0x20\n        /* \"#utility.yul\":5436:5445   */\n      dup3\n        /* \"#utility.yul\":5432:5450   */\n      add\n        /* \"#utility.yul\":5424:5450   */\n      swap1\n      pop\n        /* \"#utility.yul\":5460:5531   */\n      tag_302\n        /* \"#utility.yul\":5528:5529   */\n      0x00\n        /* \"#utility.yul\":5517:5526   */\n      dup4\n        /* \"#utility.yul\":5513:5530   */\n      add\n        /* \"#utility.yul\":5504:5510   */\n      dup5\n        /* \"#utility.yul\":5460:5531   */\n      tag_203\n      jump\t// in\n    tag_302:\n        /* \"#utility.yul\":5316:5538   */\n      swap3\n      swap2\n      pop\n      pop\n      jump\t// out\n        /* \"#utility.yul\":5544:5634   */\n    tag_204:\n        /* \"#utility.yul\":5578:5585   */\n      0x00\n        /* \"#utility.yul\":5621:5626   */\n      dup2\n        /* \"#utility.yul\":5614:5627   */\n      iszero\n        /* \"#utility.yul\":5607:5628   */\n      iszero\n        /* \"#utility.yul\":5596:5628   */\n      swap1\n      pop\n        /* \"#utility.yul\":5544:5634   */\n      swap2\n      swap1\n      pop\n      jump\t// out\n        /* \"#utility.yul\":5640:5749   */\n    tag_205:\n        /* \"#utility.yul\":5721:5742   */\n      tag_305\n        /* \"#utility.yul\":5736:5741   */\n      dup2\n        /* \"#utility.yul\":5721:5742   */\n      tag_204\n      jump\t// in\n    tag_305:\n        /* \"#utility.yul\":5716:5719   */\n      dup3\n        /* \"#utility.yul\":5709:5743   */\n      mstore\n        /* \"#utility.yul\":5640:5749   */\n      pop\n      pop\n      jump\t// out\n        /* \"#utility.yul\":5755:6851   */\n    tag_55:\n        /* \"#utility.yul\":6066:6070   */\n      0x00\n        /* \"#utility.yul\":6104:6107   */\n      0x0120\n        /* \"#utility.yul\":6093:6102   */\n      dup3\n        /* \"#utility.yul\":6089:6108   */\n      add\n        /* \"#utility.yul\":6081:6108   */\n      swap1\n      pop\n        /* \"#utility.yul\":6118:6189   */\n      tag_307\n        /* \"#utility.yul\":6186:6187   */\n      0x00\n        /* \"#utility.yul\":6175:6184   */\n      dup4\n        /* \"#utility.yul\":6171:6188   */\n      add\n        /* \"#utility.yul\":6162:6168   */\n      dup13\n        /* \"#utility.yul\":6118:6189   */\n      tag_186\n      jump\t// in\n    tag_307:\n        /* \"#utility.yul\":6199:6271   */\n      tag_308\n        /* \"#utility.yul\":6267:6269   */\n      0x20\n        /* \"#utility.yul\":6256:6265   */\n      dup4\n        /* \"#utility.yul\":6252:6270   */\n      add\n        /* \"#utility.yul\":6243:6249   */\n      dup12\n        /* \"#utility.yul\":6199:6271   */\n      tag_203\n      jump\t// in\n    tag_308:\n        /* \"#utility.yul\":6281:6353   */\n      tag_309\n        /* \"#utility.yul\":6349:6351   */\n      0x40\n        /* \"#utility.yul\":6338:6347   */\n      dup4\n        /* \"#utility.yul\":6334:6352   */\n      add\n        /* \"#utility.yul\":6325:6331   */\n      dup11\n        /* \"#utility.yul\":6281:6353   */\n      tag_186\n      jump\t// in\n    tag_309:\n        /* \"#utility.yul\":6363:6435   */\n      tag_310\n        /* \"#utility.yul\":6431:6433   */\n      0x60\n        /* \"#utility.yul\":6420:6429   */\n      dup4\n        /* \"#utility.yul\":6416:6434   */\n      add\n        /* \"#utility.yul\":6407:6413   */\n      dup10\n        /* \"#utility.yul\":6363:6435   */\n      tag_186\n      jump\t// in\n    tag_310:\n        /* \"#utility.yul\":6445:6518   */\n      tag_311\n        /* \"#utility.yul\":6513:6516   */\n      0x80\n        /* \"#utility.yul\":6502:6511   */\n      dup4\n        /* \"#utility.yul\":6498:6517   */\n      add\n        /* \"#utility.yul\":6489:6495   */\n      dup9\n        /* \"#utility.yul\":6445:6518   */\n      tag_186\n      jump\t// in\n    tag_311:\n        /* \"#utility.yul\":6528:6601   */\n      tag_312\n        /* \"#utility.yul\":6596:6599   */\n      0xa0\n        /* \"#utility.yul\":6585:6594   */\n      dup4\n        /* \"#utility.yul\":6581:6600   */\n      add\n        /* \"#utility.yul\":6572:6578   */\n      dup8\n        /* \"#utility.yul\":6528:6601   */\n      tag_186\n      jump\t// in\n    tag_312:\n        /* \"#utility.yul\":6611:6684   */\n      tag_313\n        /* \"#utility.yul\":6679:6682   */\n      0xc0\n        /* \"#utility.yul\":6668:6677   */\n      dup4\n        /* \"#utility.yul\":6664:6683   */\n      add\n        /* \"#utility.yul\":6655:6661   */\n      dup7\n        /* \"#utility.yul\":6611:6684   */\n      tag_186\n      jump\t// in\n    tag_313:\n        /* \"#utility.yul\":6694:6767   */\n      tag_314\n        /* \"#utility.yul\":6762:6765   */\n      0xe0\n        /* \"#utility.yul\":6751:6760   */\n      dup4\n        /* \"#utility.yul\":6747:6766   */\n      add\n        /* \"#utility.yul\":6738:6744   */\n      dup6\n        /* \"#utility.yul\":6694:6767   */\n      tag_186\n      jump\t// in\n    tag_314:\n        /* \"#utility.yul\":6777:6844   */\n      tag_315\n        /* \"#utility.yul\":6839:6842   */\n      0x0100\n        /* \"#utility.yul\":6828:6837   */\n      dup4\n        /* \"#utility.yul\":6824:6843   */\n      add\n        /* \"#utility.yul\":6815:6821   */\n      dup5\n        /* \"#utility.yul\":6777:6844   */\n      tag_205\n      jump\t// in\n    tag_315:\n        /* \"#utility.yul\":5755:6851   */\n      swap11\n      swap10\n      pop\n      pop\n      pop\n      pop\n      pop\n      pop\n      pop\n      pop\n      pop\n      pop\n      jump\t// out\n        /* \"#utility.yul\":6857:6917   */\n    tag_206:\n        /* \"#utility.yul\":6885:6888   */\n      0x00\n        /* \"#utility.yul\":6906:6911   */\n      dup2\n        /* \"#utility.yul\":6899:6911   */\n      swap1\n      pop\n        /* \"#utility.yul\":6857:6917   */\n      swap2\n      swap1\n      pop\n      jump\t// out\n        /* \"#utility.yul\":6923:7065   */\n    tag_207:\n        /* \"#utility.yul\":6973:6982   */\n      0x00\n        /* \"#utility.yul\":7006:7059   */\n      tag_318\n        /* \"#utility.yul\":7024:7058   */\n      tag_319\n        /* \"#utility.yul\":7033:7057   */\n      tag_320\n        /* \"#utility.yul\":7051:7056   */\n      dup5\n        /* \"#utility.yul\":7033:7057   */\n      tag_192\n      jump\t// in\n    tag_320:\n        /* \"#utility.yul\":7024:7058   */\n      tag_206\n      jump\t// in\n    tag_319:\n        /* \"#utility.yul\":7006:7059   */\n      tag_192\n      jump\t// in\n    tag_318:\n        /* \"#utility.yul\":6993:7059   */\n      swap1\n      pop\n        /* \"#utility.yul\":6923:7065   */\n      swap2\n      swap1\n      pop\n      jump\t// out\n        /* \"#utility.yul\":7071:7197   */\n    tag_208:\n        /* \"#utility.yul\":7121:7130   */\n      0x00\n        /* \"#utility.yul\":7154:7191   */\n      tag_322\n        /* \"#utility.yul\":7185:7190   */\n      dup3\n        /* \"#utility.yul\":7154:7191   */\n      tag_207\n      jump\t// in\n    tag_322:\n        /* \"#utility.yul\":7141:7191   */\n      swap1\n      pop\n        /* \"#utility.yul\":7071:7197   */\n      swap2\n      swap1\n      pop\n      jump\t// out\n        /* \"#utility.yul\":7203:7342   */\n    tag_209:\n        /* \"#utility.yul\":7266:7275   */\n      0x00\n        /* \"#utility.yul\":7299:7336   */\n      tag_324\n        /* \"#utility.yul\":7330:7335   */\n      dup3\n        /* \"#utility.yul\":7299:7336   */\n      tag_208\n      jump\t// in\n    tag_324:\n        /* \"#utility.yul\":7286:7336   */\n      swap1\n      pop\n        /* \"#utility.yul\":7203:7342   */\n      swap2\n      swap1\n      pop\n      jump\t// out\n        /* \"#utility.yul\":7348:7505   */\n    tag_210:\n        /* \"#utility.yul\":7448:7498   */\n      tag_326\n        /* \"#utility.yul\":7492:7497   */\n      dup2\n        /* \"#utility.yul\":7448:7498   */\n      tag_209\n      jump\t// in\n    tag_326:\n        /* \"#utility.yul\":7443:7446   */\n      dup3\n        /* \"#utility.yul\":7436:7499   */\n      mstore\n        /* \"#utility.yul\":7348:7505   */\n      pop\n      pop\n      jump\t// out\n        /* \"#utility.yul\":7511:7759   */\n    tag_59:\n        /* \"#utility.yul\":7617:7621   */\n      0x00\n        /* \"#utility.yul\":7655:7657   */\n      0x20\n        /* \"#utility.yul\":7644:7653   */\n      dup3\n        /* \"#utility.yul\":7640:7658   */\n      add\n        /* \"#utility.yul\":7632:7658   */\n      swap1\n      pop\n        /* \"#utility.yul\":7668:7752   */\n      tag_328\n        /* \"#utility.yul\":7749:7750   */\n      0x00\n        /* \"#utility.yul\":7738:7747   */\n      dup4\n        /* \"#utility.yul\":7734:7751   */\n      add\n        /* \"#utility.yul\":7725:7731   */\n      dup5\n        /* \"#utility.yul\":7668:7752   */\n      tag_210\n      jump\t// in\n    tag_328:\n        /* \"#utility.yul\":7511:7759   */\n      swap3\n      swap2\n      pop\n      pop\n      jump\t// out\n        /* \"#utility.yul\":7765:8384   */\n    tag_62:\n        /* \"#utility.yul\":7842:7848   */\n      0x00\n        /* \"#utility.yul\":7850:7856   */\n      dup1\n        /* \"#utility.yul\":7858:7864   */\n      0x00\n        /* \"#utility.yul\":7907:7909   */\n      0x60\n        /* \"#utility.yul\":7895:7904   */\n      dup5\n        /* \"#utility.yul\":7886:7893   */\n      dup7\n        /* \"#utility.yul\":7882:7905   */\n      sub\n        /* \"#utility.yul\":7878:7910   */\n      slt\n        /* \"#utility.yul\":7875:7994   */\n      iszero\n      tag_330\n      jumpi\n        /* \"#utility.yul\":7913:7992   */\n      tag_331\n      tag_188\n      jump\t// in\n    tag_331:\n        /* \"#utility.yul\":7875:7994   */\n    tag_330:\n        /* \"#utility.yul\":8033:8034   */\n      0x00\n        /* \"#utility.yul\":8058:8111   */\n      tag_332\n        /* \"#utility.yul\":8103:8110   */\n      dup7\n        /* \"#utility.yul\":8094:8100   */\n      dup3\n        /* \"#utility.yul\":8083:8092   */\n      dup8\n        /* \"#utility.yul\":8079:8101   */\n      add\n        /* \"#utility.yul\":8058:8111   */\n      tag_191\n      jump\t// in\n    tag_332:\n        /* \"#utility.yul\":8048:8111   */\n      swap4\n      pop\n        /* \"#utility.yul\":8004:8121   */\n      pop\n        /* \"#utility.yul\":8160:8162   */\n      0x20\n        /* \"#utility.yul\":8186:8239   */\n      tag_333\n        /* \"#utility.yul\":8231:8238   */\n      dup7\n        /* \"#utility.yul\":8222:8228   */\n      dup3\n        /* \"#utility.yul\":8211:8220   */\n      dup8\n        /* \"#utility.yul\":8207:8229   */\n      add\n        /* \"#utility.yul\":8186:8239   */\n      tag_191\n      jump\t// in\n    tag_333:\n        /* \"#utility.yul\":8176:8239   */\n      swap3\n      pop\n        /* \"#utility.yul\":8131:8249   */\n      pop\n        /* \"#utility.yul\":8288:8290   */\n      0x40\n        /* \"#utility.yul\":8314:8367   */\n      tag_334\n        /* \"#utility.yul\":8359:8366   */\n      dup7\n        /* \"#utility.yul\":8350:8356   */\n      dup3\n        /* \"#utility.yul\":8339:8348   */\n      dup8\n        /* \"#utility.yul\":8335:8357   */\n      add\n        /* \"#utility.yul\":8314:8367   */\n      tag_191\n      jump\t// in\n    tag_334:\n        /* \"#utility.yul\":8304:8367   */\n      swap2\n      pop\n        /* \"#utility.yul\":8259:8377   */\n      pop\n        /* \"#utility.yul\":7765:8384   */\n      swap3\n      pop\n      swap3\n      pop\n      swap3\n      jump\t// out\n        /* \"#utility.yul\":8390:8498   */\n    tag_211:\n        /* \"#utility.yul\":8467:8491   */\n      tag_336\n        /* \"#utility.yul\":8485:8490   */\n      dup2\n        /* \"#utility.yul\":8467:8491   */\n      tag_193\n      jump\t// in\n    tag_336:\n        /* \"#utility.yul\":8462:8465   */\n      dup3\n        /* \"#utility.yul\":8455:8492   */\n      mstore\n        /* \"#utility.yul\":8390:8498   */\n      pop\n      pop\n      jump\t// out\n        /* \"#utility.yul\":8504:8603   */\n    tag_212:\n        /* \"#utility.yul\":8575:8596   */\n      tag_338\n        /* \"#utility.yul\":8590:8595   */\n      dup2\n        /* \"#utility.yul\":8575:8596   */\n      tag_204\n      jump\t// in\n    tag_338:\n        /* \"#utility.yul\":8570:8573   */\n      dup3\n        /* \"#utility.yul\":8563:8597   */\n      mstore\n        /* \"#utility.yul\":8504:8603   */\n      pop\n      pop\n      jump\t// out\n        /* \"#utility.yul\":8673:10443   */\n    tag_213:\n        /* \"#utility.yul\":8818:8824   */\n      0x0120\n        /* \"#utility.yul\":8813:8816   */\n      dup3\n        /* \"#utility.yul\":8809:8825   */\n      add\n        /* \"#utility.yul\":8913:8917   */\n      0x00\n        /* \"#utility.yul\":8906:8911   */\n      dup3\n        /* \"#utility.yul\":8902:8918   */\n      add\n        /* \"#utility.yul\":8896:8919   */\n      mload\n        /* \"#utility.yul\":8932:8995   */\n      tag_340\n        /* \"#utility.yul\":8989:8993   */\n      0x00\n        /* \"#utility.yul\":8984:8987   */\n      dup6\n        /* \"#utility.yul\":8980:8994   */\n      add\n        /* \"#utility.yul\":8966:8978   */\n      dup3\n        /* \"#utility.yul\":8932:8995   */\n      tag_199\n      jump\t// in\n    tag_340:\n        /* \"#utility.yul\":8835:9005   */\n      pop\n        /* \"#utility.yul\":9096:9100   */\n      0x20\n        /* \"#utility.yul\":9089:9094   */\n      dup3\n        /* \"#utility.yul\":9085:9101   */\n      add\n        /* \"#utility.yul\":9079:9102   */\n      mload\n        /* \"#utility.yul\":9115:9178   */\n      tag_341\n        /* \"#utility.yul\":9172:9176   */\n      0x20\n        /* \"#utility.yul\":9167:9170   */\n      dup6\n        /* \"#utility.yul\":9163:9177   */\n      add\n        /* \"#utility.yul\":9149:9161   */\n      dup3\n        /* \"#utility.yul\":9115:9178   */\n      tag_211\n      jump\t// in\n    tag_341:\n        /* \"#utility.yul\":9015:9188   */\n      pop\n        /* \"#utility.yul\":9273:9277   */\n      0x40\n        /* \"#utility.yul\":9266:9271   */\n      dup3\n        /* \"#utility.yul\":9262:9278   */\n      add\n        /* \"#utility.yul\":9256:9279   */\n      mload\n        /* \"#utility.yul\":9292:9355   */\n      tag_342\n        /* \"#utility.yul\":9349:9353   */\n      0x40\n        /* \"#utility.yul\":9344:9347   */\n      dup6\n        /* \"#utility.yul\":9340:9354   */\n      add\n        /* \"#utility.yul\":9326:9338   */\n      dup3\n        /* \"#utility.yul\":9292:9355   */\n      tag_199\n      jump\t// in\n    tag_342:\n        /* \"#utility.yul\":9198:9365   */\n      pop\n        /* \"#utility.yul\":9454:9458   */\n      0x60\n        /* \"#utility.yul\":9447:9452   */\n      dup3\n        /* \"#utility.yul\":9443:9459   */\n      add\n        /* \"#utility.yul\":9437:9460   */\n      mload\n        /* \"#utility.yul\":9473:9536   */\n      tag_343\n        /* \"#utility.yul\":9530:9534   */\n      0x60\n        /* \"#utility.yul\":9525:9528   */\n      dup6\n        /* \"#utility.yul\":9521:9535   */\n      add\n        /* \"#utility.yul\":9507:9519   */\n      dup3\n        /* \"#utility.yul\":9473:9536   */\n      tag_199\n      jump\t// in\n    tag_343:\n        /* \"#utility.yul\":9375:9546   */\n      pop\n        /* \"#utility.yul\":9634:9638   */\n      0x80\n        /* \"#utility.yul\":9627:9632   */\n      dup3\n        /* \"#utility.yul\":9623:9639   */\n      add\n        /* \"#utility.yul\":9617:9640   */\n      mload\n        /* \"#utility.yul\":9653:9716   */\n      tag_344\n        /* \"#utility.yul\":9710:9714   */\n      0x80\n        /* \"#utility.yul\":9705:9708   */\n      dup6\n        /* \"#utility.yul\":9701:9715   */\n      add\n        /* \"#utility.yul\":9687:9699   */\n      dup3\n        /* \"#utility.yul\":9653:9716   */\n      tag_199\n      jump\t// in\n    tag_344:\n        /* \"#utility.yul\":9556:9726   */\n      pop\n        /* \"#utility.yul\":9807:9811   */\n      0xa0\n        /* \"#utility.yul\":9800:9805   */\n      dup3\n        /* \"#utility.yul\":9796:9812   */\n      add\n        /* \"#utility.yul\":9790:9813   */\n      mload\n        /* \"#utility.yul\":9826:9889   */\n      tag_345\n        /* \"#utility.yul\":9883:9887   */\n      0xa0\n        /* \"#utility.yul\":9878:9881   */\n      dup6\n        /* \"#utility.yul\":9874:9888   */\n      add\n        /* \"#utility.yul\":9860:9872   */\n      dup3\n        /* \"#utility.yul\":9826:9889   */\n      tag_199\n      jump\t// in\n    tag_345:\n        /* \"#utility.yul\":9736:9899   */\n      pop\n        /* \"#utility.yul\":9989:9993   */\n      0xc0\n        /* \"#utility.yul\":9982:9987   */\n      dup3\n        /* \"#utility.yul\":9978:9994   */\n      add\n        /* \"#utility.yul\":9972:9995   */\n      mload\n        /* \"#utility.yul\":10008:10071   */\n      tag_346\n        /* \"#utility.yul\":10065:10069   */\n      0xc0\n        /* \"#utility.yul\":10060:10063   */\n      dup6\n        /* \"#utility.yul\":10056:10070   */\n      add\n        /* \"#utility.yul\":10042:10054   */\n      dup3\n        /* \"#utility.yul\":10008:10071   */\n      tag_199\n      jump\t// in\n    tag_346:\n        /* \"#utility.yul\":9909:10081   */\n      pop\n        /* \"#utility.yul\":10172:10176   */\n      0xe0\n        /* \"#utility.yul\":10165:10170   */\n      dup3\n        /* \"#utility.yul\":10161:10177   */\n      add\n        /* \"#utility.yul\":10155:10178   */\n      mload\n        /* \"#utility.yul\":10191:10254   */\n      tag_347\n        /* \"#utility.yul\":10248:10252   */\n      0xe0\n        /* \"#utility.yul\":10243:10246   */\n      dup6\n        /* \"#utility.yul\":10239:10253   */\n      add\n        /* \"#utility.yul\":10225:10237   */\n      dup3\n        /* \"#utility.yul\":10191:10254   */\n      tag_199\n      jump\t// in\n    tag_347:\n        /* \"#utility.yul\":10091:10264   */\n      pop\n        /* \"#utility.yul\":10346:10352   */\n      0x0100\n        /* \"#utility.yul\":10339:10344   */\n      dup3\n        /* \"#utility.yul\":10335:10353   */\n      add\n        /* \"#utility.yul\":10329:10354   */\n      mload\n        /* \"#utility.yul\":10367:10426   */\n      tag_348\n        /* \"#utility.yul\":10418:10424   */\n      0x0100\n        /* \"#utility.yul\":10413:10416   */\n      dup6\n        /* \"#utility.yul\":10409:10425   */\n      add\n        /* \"#utility.yul\":10395:10407   */\n      dup3\n        /* \"#utility.yul\":10367:10426   */\n      tag_212\n      jump\t// in\n    tag_348:\n        /* \"#utility.yul\":10274:10436   */\n      pop\n        /* \"#utility.yul\":8787:10443   */\n      pop\n        /* \"#utility.yul\":8673:10443   */\n      pop\n      pop\n      jump\t// out\n        /* \"#utility.yul\":10449:10768   */\n    tag_68:\n        /* \"#utility.yul\":10590:10594   */\n      0x00\n        /* \"#utility.yul\":10628:10631   */\n      0x0120\n        /* \"#utility.yul\":10617:10626   */\n      dup3\n        /* \"#utility.yul\":10613:10632   */\n      add\n        /* \"#utility.yul\":10605:10632   */\n      swap1\n      pop\n        /* \"#utility.yul\":10642:10761   */\n      tag_350\n        /* \"#utility.yul\":10758:10759   */\n      0x00\n        /* \"#utility.yul\":10747:10756   */\n      dup4\n        /* \"#utility.yul\":10743:10760   */\n      add\n        /* \"#utility.yul\":10734:10740   */\n      dup5\n        /* \"#utility.yul\":10642:10761   */\n      tag_213\n      jump\t// in\n    tag_350:\n        /* \"#utility.yul\":10449:10768   */\n      swap3\n      swap2\n      pop\n      pop\n      jump\t// out\n        /* \"#utility.yul\":10774:10943   */\n    tag_214:\n        /* \"#utility.yul\":10858:10869   */\n      0x00\n        /* \"#utility.yul\":10892:10898   */\n      dup3\n        /* \"#utility.yul\":10887:10890   */\n      dup3\n        /* \"#utility.yul\":10880:10899   */\n      mstore\n        /* \"#utility.yul\":10932:10936   */\n      0x20\n        /* \"#utility.yul\":10927:10930   */\n      dup3\n        /* \"#utility.yul\":10923:10937   */\n      add\n        /* \"#utility.yul\":10908:10937   */\n      swap1\n      pop\n        /* \"#utility.yul\":10774:10943   */\n      swap3\n      swap2\n      pop\n      pop\n      jump\t// out\n        /* \"#utility.yul\":10949:11109   */\n    tag_215:\n        /* \"#utility.yul\":11089:11101   */\n      0x4f6e6c79206f776e657200000000000000000000000000000000000000000000\n        /* \"#utility.yul\":11085:11086   */\n      0x00\n        /* \"#utility.yul\":11077:11083   */\n      dup3\n        /* \"#utility.yul\":11073:11087   */\n      add\n        /* \"#utility.yul\":11066:11102   */\n      mstore\n        /* \"#utility.yul\":10949:11109   */\n      pop\n      jump\t// out\n        /* \"#utility.yul\":11115:11481   */\n    tag_216:\n        /* \"#utility.yul\":11257:11260   */\n      0x00\n        /* \"#utility.yul\":11278:11345   */\n      tag_354\n        /* \"#utility.yul\":11342:11344   */\n      0x0a\n        /* \"#utility.yul\":11337:11340   */\n      dup4\n        /* \"#utility.yul\":11278:11345   */\n      tag_214\n      jump\t// in\n    tag_354:\n        /* \"#utility.yul\":11271:11345   */\n      swap2\n      pop\n        /* \"#utility.yul\":11354:11447   */\n      tag_355\n        /* \"#utility.yul\":11443:11446   */\n      dup3\n        /* \"#utility.yul\":11354:11447   */\n      tag_215\n      jump\t// in\n    tag_355:\n        /* \"#utility.yul\":11472:11474   */\n      0x20\n        /* \"#utility.yul\":11467:11470   */\n      dup3\n        /* \"#utility.yul\":11463:11475   */\n      add\n        /* \"#utility.yul\":11456:11475   */\n      swap1\n      pop\n        /* \"#utility.yul\":11115:11481   */\n      swap2\n      swap1\n      pop\n      jump\t// out\n        /* \"#utility.yul\":11487:11906   */\n    tag_83:\n        /* \"#utility.yul\":11653:11657   */\n      0x00\n        /* \"#utility.yul\":11691:11693   */\n      0x20\n        /* \"#utility.yul\":11680:11689   */\n      dup3\n        /* \"#utility.yul\":11676:11694   */\n      add\n        /* \"#utility.yul\":11668:11694   */\n      swap1\n      pop\n        /* \"#utility.yul\":11740:11749   */\n      dup2\n        /* \"#utility.yul\":11734:11738   */\n      dup2\n        /* \"#utility.yul\":11730:11750   */\n      sub\n        /* \"#utility.yul\":11726:11727   */\n      0x00\n        /* \"#utility.yul\":11715:11724   */\n      dup4\n        /* \"#utility.yul\":11711:11728   */\n      add\n        /* \"#utility.yul\":11704:11751   */\n      mstore\n        /* \"#utility.yul\":11768:11899   */\n      tag_357\n        /* \"#utility.yul\":11894:11898   */\n      dup2\n        /* \"#utility.yul\":11768:11899   */\n      tag_216\n      jump\t// in\n    tag_357:\n        /* \"#utility.yul\":11760:11899   */\n      swap1\n      pop\n        /* \"#utility.yul\":11487:11906   */\n      swap2\n      swap1\n      pop\n      jump\t// out\n        /* \"#utility.yul\":11912:12055   */\n    tag_217:\n        /* \"#utility.yul\":11969:11974   */\n      0x00\n        /* \"#utility.yul\":12000:12006   */\n      dup2\n        /* \"#utility.yul\":11994:12007   */\n      mload\n        /* \"#utility.yul\":11985:12007   */\n      swap1\n      pop\n        /* \"#utility.yul\":12016:12049   */\n      tag_359\n        /* \"#utility.yul\":12043:12048   */\n      dup2\n        /* \"#utility.yul\":12016:12049   */\n      tag_190\n      jump\t// in\n    tag_359:\n        /* \"#utility.yul\":11912:12055   */\n      swap3\n      swap2\n      pop\n      pop\n      jump\t// out\n        /* \"#utility.yul\":12061:12412   */\n    tag_88:\n        /* \"#utility.yul\":12131:12137   */\n      0x00\n        /* \"#utility.yul\":12180:12182   */\n      0x20\n        /* \"#utility.yul\":12168:12177   */\n      dup3\n        /* \"#utility.yul\":12159:12166   */\n      dup5\n        /* \"#utility.yul\":12155:12178   */\n      sub\n        /* \"#utility.yul\":12151:12183   */\n      slt\n        /* \"#utility.yul\":12148:12267   */\n      iszero\n      tag_361\n      jumpi\n        /* \"#utility.yul\":12186:12265   */\n      tag_362\n      tag_188\n      jump\t// in\n    tag_362:\n        /* \"#utility.yul\":12148:12267   */\n    tag_361:\n        /* \"#utility.yul\":12306:12307   */\n      0x00\n        /* \"#utility.yul\":12331:12395   */\n      tag_363\n        /* \"#utility.yul\":12387:12394   */\n      dup5\n        /* \"#utility.yul\":12378:12384   */\n      dup3\n        /* \"#utility.yul\":12367:12376   */\n      dup6\n        /* \"#utility.yul\":12363:12385   */\n      add\n        /* \"#utility.yul\":12331:12395   */\n      tag_217\n      jump\t// in\n    tag_363:\n        /* \"#utility.yul\":12321:12395   */\n      swap2\n      pop\n        /* \"#utility.yul\":12277:12405   */\n      pop\n        /* \"#utility.yul\":12061:12412   */\n      swap3\n      swap2\n      pop\n      pop\n      jump\t// out\n        /* \"#utility.yul\":12418:12588   */\n    tag_218:\n        /* \"#utility.yul\":12558:12580   */\n      0x496e73756666696369656e742062616c616e6365000000000000000000000000\n        /* \"#utility.yul\":12554:12555   */\n      0x00\n        /* \"#utility.yul\":12546:12552   */\n      dup3\n        /* \"#utility.yul\":12542:12556   */\n      add\n        /* \"#utility.yul\":12535:12581   */\n      mstore\n        /* \"#utility.yul\":12418:12588   */\n      pop\n      jump\t// out\n        /* \"#utility.yul\":12594:12960   */\n    tag_219:\n        /* \"#utility.yul\":12736:12739   */\n      0x00\n        /* \"#utility.yul\":12757:12824   */\n      tag_366\n        /* \"#utility.yul\":12821:12823   */\n      0x14\n        /* \"#utility.yul\":12816:12819   */\n      dup4\n        /* \"#utility.yul\":12757:12824   */\n      tag_214\n      jump\t// in\n    tag_366:\n        /* \"#utility.yul\":12750:12824   */\n      swap2\n      pop\n        /* \"#utility.yul\":12833:12926   */\n      tag_367\n        /* \"#utility.yul\":12922:12925   */\n      dup3\n        /* \"#utility.yul\":12833:12926   */\n      tag_218\n      jump\t// in\n    tag_367:\n        /* \"#utility.yul\":12951:12953   */\n      0x20\n        /* \"#utility.yul\":12946:12949   */\n      dup3\n        /* \"#utility.yul\":12942:12954   */\n      add\n        /* \"#utility.yul\":12935:12954   */\n      swap1\n      pop\n        /* \"#utility.yul\":12594:12960   */\n      swap2\n      swap1\n      pop\n      jump\t// out\n        /* \"#utility.yul\":12966:13385   */\n    tag_91:\n        /* \"#utility.yul\":13132:13136   */\n      0x00\n        /* \"#utility.yul\":13170:13172   */\n      0x20\n        /* \"#utility.yul\":13159:13168   */\n      dup3\n        /* \"#utility.yul\":13155:13173   */\n      add\n        /* \"#utility.yul\":13147:13173   */\n      swap1\n      pop\n        /* \"#utility.yul\":13219:13228   */\n      dup2\n        /* \"#utility.yul\":13213:13217   */\n      dup2\n        /* \"#utility.yul\":13209:13229   */\n      sub\n        /* \"#utility.yul\":13205:13206   */\n      0x00\n        /* \"#utility.yul\":13194:13203   */\n      dup4\n        /* \"#utility.yul\":13190:13207   */\n      add\n        /* \"#utility.yul\":13183:13230   */\n      mstore\n        /* \"#utility.yul\":13247:13378   */\n      tag_369\n        /* \"#utility.yul\":13373:13377   */\n      dup2\n        /* \"#utility.yul\":13247:13378   */\n      tag_219\n      jump\t// in\n    tag_369:\n        /* \"#utility.yul\":13239:13378   */\n      swap1\n      pop\n        /* \"#utility.yul\":12966:13385   */\n      swap2\n      swap1\n      pop\n      jump\t// out\n        /* \"#utility.yul\":13391:13723   */\n    tag_93:\n        /* \"#utility.yul\":13512:13516   */\n      0x00\n        /* \"#utility.yul\":13550:13552   */\n      0x40\n        /* \"#utility.yul\":13539:13548   */\n      dup3\n        /* \"#utility.yul\":13535:13553   */\n      add\n        /* \"#utility.yul\":13527:13553   */\n      swap1\n      pop\n        /* \"#utility.yul\":13563:13634   */\n      tag_371\n        /* \"#utility.yul\":13631:13632   */\n      0x00\n        /* \"#utility.yul\":13620:13629   */\n      dup4\n        /* \"#utility.yul\":13616:13633   */\n      add\n        /* \"#utility.yul\":13607:13613   */\n      dup6\n        /* \"#utility.yul\":13563:13634   */\n      tag_203\n      jump\t// in\n    tag_371:\n        /* \"#utility.yul\":13644:13716   */\n      tag_372\n        /* \"#utility.yul\":13712:13714   */\n      0x20\n        /* \"#utility.yul\":13701:13710   */\n      dup4\n        /* \"#utility.yul\":13697:13715   */\n      add\n        /* \"#utility.yul\":13688:13694   */\n      dup5\n        /* \"#utility.yul\":13644:13716   */\n      tag_186\n      jump\t// in\n    tag_372:\n        /* \"#utility.yul\":13391:13723   */\n      swap4\n      swap3\n      pop\n      pop\n      pop\n      jump\t// out\n        /* \"#utility.yul\":13729:13845   */\n    tag_220:\n        /* \"#utility.yul\":13799:13820   */\n      tag_374\n        /* \"#utility.yul\":13814:13819   */\n      dup2\n        /* \"#utility.yul\":13799:13820   */\n      tag_204\n      jump\t// in\n    tag_374:\n        /* \"#utility.yul\":13792:13797   */\n      dup2\n        /* \"#utility.yul\":13789:13821   */\n      eq\n        /* \"#utility.yul\":13779:13839   */\n      tag_375\n      jumpi\n        /* \"#utility.yul\":13835:13836   */\n      0x00\n        /* \"#utility.yul\":13832:13833   */\n      dup1\n        /* \"#utility.yul\":13825:13837   */\n      revert\n        /* \"#utility.yul\":13779:13839   */\n    tag_375:\n        /* \"#utility.yul\":13729:13845   */\n      pop\n      jump\t// out\n        /* \"#utility.yul\":13851:13988   */\n    tag_221:\n        /* \"#utility.yul\":13905:13910   */\n      0x00\n        /* \"#utility.yul\":13936:13942   */\n      dup2\n        /* \"#utility.yul\":13930:13943   */\n      mload\n        /* \"#utility.yul\":13921:13943   */\n      swap1\n      pop\n        /* \"#utility.yul\":13952:13982   */\n      tag_377\n        /* \"#utility.yul\":13976:13981   */\n      dup2\n        /* \"#utility.yul\":13952:13982   */\n      tag_220\n      jump\t// in\n    tag_377:\n        /* \"#utility.yul\":13851:13988   */\n      swap3\n      swap2\n      pop\n      pop\n      jump\t// out\n        /* \"#utility.yul\":13994:14339   */\n    tag_97:\n        /* \"#utility.yul\":14061:14067   */\n      0x00\n        /* \"#utility.yul\":14110:14112   */\n      0x20\n        /* \"#utility.yul\":14098:14107   */\n      dup3\n        /* \"#utility.yul\":14089:14096   */\n      dup5\n        /* \"#utility.yul\":14085:14108   */\n      sub\n        /* \"#utility.yul\":14081:14113   */\n      slt\n        /* \"#utility.yul\":14078:14197   */\n      iszero\n      tag_379\n      jumpi\n        /* \"#utility.yul\":14116:14195   */\n      tag_380\n      tag_188\n      jump\t// in\n    tag_380:\n        /* \"#utility.yul\":14078:14197   */\n    tag_379:\n        /* \"#utility.yul\":14236:14237   */\n      0x00\n        /* \"#utility.yul\":14261:14322   */\n      tag_381\n        /* \"#utility.yul\":14314:14321   */\n      dup5\n        /* \"#utility.yul\":14305:14311   */\n      dup3\n        /* \"#utility.yul\":14294:14303   */\n      dup6\n        /* \"#utility.yul\":14290:14312   */\n      add\n        /* \"#utility.yul\":14261:14322   */\n      tag_221\n      jump\t// in\n    tag_381:\n        /* \"#utility.yul\":14251:14322   */\n      swap2\n      pop\n        /* \"#utility.yul\":14207:14332   */\n      pop\n        /* \"#utility.yul\":13994:14339   */\n      swap3\n      swap2\n      pop\n      pop\n      jump\t// out\n        /* \"#utility.yul\":14345:14510   */\n    tag_222:\n        /* \"#utility.yul\":14485:14502   */\n      0x5769746864726177206661696c65640000000000000000000000000000000000\n        /* \"#utility.yul\":14481:14482   */\n      0x00\n        /* \"#utility.yul\":14473:14479   */\n      dup3\n        /* \"#utility.yul\":14469:14483   */\n      add\n        /* \"#utility.yul\":14462:14503   */\n      mstore\n        /* \"#utility.yul\":14345:14510   */\n      pop\n      jump\t// out\n        /* \"#utility.yul\":14516:14882   */\n    tag_223:\n        /* \"#utility.yul\":14658:14661   */\n      0x00\n        /* \"#utility.yul\":14679:14746   */\n      tag_384\n        /* \"#utility.yul\":14743:14745   */\n      0x0f\n        /* \"#utility.yul\":14738:14741   */\n      dup4\n        /* \"#utility.yul\":14679:14746   */\n      tag_214\n      jump\t// in\n    tag_384:\n        /* \"#utility.yul\":14672:14746   */\n      swap2\n      pop\n        /* \"#utility.yul\":14755:14848   */\n      tag_385\n        /* \"#utility.yul\":14844:14847   */\n      dup3\n        /* \"#utility.yul\":14755:14848   */\n      tag_222\n      jump\t// in\n    tag_385:\n        /* \"#utility.yul\":14873:14875   */\n      0x20\n        /* \"#utility.yul\":14868:14871   */\n      dup3\n        /* \"#utility.yul\":14864:14876   */\n      add\n        /* \"#utility.yul\":14857:14876   */\n      swap1\n      pop\n        /* \"#utility.yul\":14516:14882   */\n      swap2\n      swap1\n      pop\n      jump\t// out\n        /* \"#utility.yul\":14888:15307   */\n    tag_100:\n        /* \"#utility.yul\":15054:15058   */\n      0x00\n        /* \"#utility.yul\":15092:15094   */\n      0x20\n        /* \"#utility.yul\":15081:15090   */\n      dup3\n        /* \"#utility.yul\":15077:15095   */\n      add\n        /* \"#utility.yul\":15069:15095   */\n      swap1\n      pop\n        /* \"#utility.yul\":15141:15150   */\n      dup2\n        /* \"#utility.yul\":15135:15139   */\n      dup2\n        /* \"#utility.yul\":15131:15151   */\n      sub\n        /* \"#utility.yul\":15127:15128   */\n      0x00\n        /* \"#utility.yul\":15116:15125   */\n      dup4\n        /* \"#utility.yul\":15112:15129   */\n      add\n        /* \"#utility.yul\":15105:15152   */\n      mstore\n        /* \"#utility.yul\":15169:15300   */\n      tag_387\n        /* \"#utility.yul\":15295:15299   */\n      dup2\n        /* \"#utility.yul\":15169:15300   */\n      tag_223\n      jump\t// in\n    tag_387:\n        /* \"#utility.yul\":15161:15300   */\n      swap1\n      pop\n        /* \"#utility.yul\":14888:15307   */\n      swap2\n      swap1\n      pop\n      jump\t// out\n        /* \"#utility.yul\":15313:15485   */\n    tag_224:\n        /* \"#utility.yul\":15453:15477   */\n      0x496e76616c6964207374616b696e6720706572696f6400000000000000000000\n        /* \"#utility.yul\":15449:15450   */\n      0x00\n        /* \"#utility.yul\":15441:15447   */\n      dup3\n        /* \"#utility.yul\":15437:15451   */\n      add\n        /* \"#utility.yul\":15430:15478   */\n      mstore\n        /* \"#utility.yul\":15313:15485   */\n      pop\n      jump\t// out\n        /* \"#utility.yul\":15491:15857   */\n    tag_225:\n        /* \"#utility.yul\":15633:15636   */\n      0x00\n        /* \"#utility.yul\":15654:15721   */\n      tag_390\n        /* \"#utility.yul\":15718:15720   */\n      0x16\n        /* \"#utility.yul\":15713:15716   */\n      dup4\n        /* \"#utility.yul\":15654:15721   */\n      tag_214\n      jump\t// in\n    tag_390:\n        /* \"#utility.yul\":15647:15721   */\n      swap2\n      pop\n        /* \"#utility.yul\":15730:15823   */\n      tag_391\n        /* \"#utility.yul\":15819:15822   */\n      dup3\n        /* \"#utility.yul\":15730:15823   */\n      tag_224\n      jump\t// in\n    tag_391:\n        /* \"#utility.yul\":15848:15850   */\n      0x20\n        /* \"#utility.yul\":15843:15846   */\n      dup3\n        /* \"#utility.yul\":15839:15851   */\n      add\n        /* \"#utility.yul\":15832:15851   */\n      swap1\n      pop\n        /* \"#utility.yul\":15491:15857   */\n      swap2\n      swap1\n      pop\n      jump\t// out\n        /* \"#utility.yul\":15863:16282   */\n    tag_113:\n        /* \"#utility.yul\":16029:16033   */\n      0x00\n        /* \"#utility.yul\":16067:16069   */\n      0x20\n        /* \"#utility.yul\":16056:16065   */\n      dup3\n        /* \"#utility.yul\":16052:16070   */\n      add\n        /* \"#utility.yul\":16044:16070   */\n      swap1\n      pop\n        /* \"#utility.yul\":16116:16125   */\n      dup2\n        /* \"#utility.yul\":16110:16114   */\n      dup2\n        /* \"#utility.yul\":16106:16126   */\n      sub\n        /* \"#utility.yul\":16102:16103   */\n      0x00\n        /* \"#utility.yul\":16091:16100   */\n      dup4\n        /* \"#utility.yul\":16087:16104   */\n      add\n        /* \"#utility.yul\":16080:16127   */\n      mstore\n        /* \"#utility.yul\":16144:16275   */\n      tag_393\n        /* \"#utility.yul\":16270:16274   */\n      dup2\n        /* \"#utility.yul\":16144:16275   */\n      tag_225\n      jump\t// in\n    tag_393:\n        /* \"#utility.yul\":16136:16275   */\n      swap1\n      pop\n        /* \"#utility.yul\":15863:16282   */\n      swap2\n      swap1\n      pop\n      jump\t// out\n        /* \"#utility.yul\":16288:16470   */\n    tag_226:\n        /* \"#utility.yul\":16428:16462   */\n      0x416d6f756e74206d7573742062652067726561746572207468616e207a65726f\n        /* \"#utility.yul\":16424:16425   */\n      0x00\n        /* \"#utility.yul\":16416:16422   */\n      dup3\n        /* \"#utility.yul\":16412:16426   */\n      add\n        /* \"#utility.yul\":16405:16463   */\n      mstore\n        /* \"#utility.yul\":16288:16470   */\n      pop\n      jump\t// out\n        /* \"#utility.yul\":16476:16842   */\n    tag_227:\n        /* \"#utility.yul\":16618:16621   */\n      0x00\n        /* \"#utility.yul\":16639:16706   */\n      tag_396\n        /* \"#utility.yul\":16703:16705   */\n      0x20\n        /* \"#utility.yul\":16698:16701   */\n      dup4\n        /* \"#utility.yul\":16639:16706   */\n      tag_214\n      jump\t// in\n    tag_396:\n        /* \"#utility.yul\":16632:16706   */\n      swap2\n      pop\n        /* \"#utility.yul\":16715:16808   */\n      tag_397\n        /* \"#utility.yul\":16804:16807   */\n      dup3\n        /* \"#utility.yul\":16715:16808   */\n      tag_226\n      jump\t// in\n    tag_397:\n        /* \"#utility.yul\":16833:16835   */\n      0x20\n        /* \"#utility.yul\":16828:16831   */\n      dup3\n        /* \"#utility.yul\":16824:16836   */\n      add\n        /* \"#utility.yul\":16817:16836   */\n      swap1\n      pop\n        /* \"#utility.yul\":16476:16842   */\n      swap2\n      swap1\n      pop\n      jump\t// out\n        /* \"#utility.yul\":16848:17267   */\n    tag_116:\n        /* \"#utility.yul\":17014:17018   */\n      0x00\n        /* \"#utility.yul\":17052:17054   */\n      0x20\n        /* \"#utility.yul\":17041:17050   */\n      dup3\n        /* \"#utility.yul\":17037:17055   */\n      add\n        /* \"#utility.yul\":17029:17055   */\n      swap1\n      pop\n        /* \"#utility.yul\":17101:17110   */\n      dup2\n        /* \"#utility.yul\":17095:17099   */\n      dup2\n        /* \"#utility.yul\":17091:17111   */\n      sub\n        /* \"#utility.yul\":17087:17088   */\n      0x00\n        /* \"#utility.yul\":17076:17085   */\n      dup4\n        /* \"#utility.yul\":17072:17089   */\n      add\n        /* \"#utility.yul\":17065:17112   */\n      mstore\n        /* \"#utility.yul\":17129:17260   */\n      tag_399\n        /* \"#utility.yul\":17255:17259   */\n      dup2\n        /* \"#utility.yul\":17129:17260   */\n      tag_227\n      jump\t// in\n    tag_399:\n        /* \"#utility.yul\":17121:17260   */\n      swap1\n      pop\n        /* \"#utility.yul\":16848:17267   */\n      swap2\n      swap1\n      pop\n      jump\t// out\n        /* \"#utility.yul\":17273:17715   */\n    tag_118:\n        /* \"#utility.yul\":17422:17426   */\n      0x00\n        /* \"#utility.yul\":17460:17462   */\n      0x60\n        /* \"#utility.yul\":17449:17458   */\n      dup3\n        /* \"#utility.yul\":17445:17463   */\n      add\n        /* \"#utility.yul\":17437:17463   */\n      swap1\n      pop\n        /* \"#utility.yul\":17473:17544   */\n      tag_401\n        /* \"#utility.yul\":17541:17542   */\n      0x00\n        /* \"#utility.yul\":17530:17539   */\n      dup4\n        /* \"#utility.yul\":17526:17543   */\n      add\n        /* \"#utility.yul\":17517:17523   */\n      dup7\n        /* \"#utility.yul\":17473:17544   */\n      tag_203\n      jump\t// in\n    tag_401:\n        /* \"#utility.yul\":17554:17626   */\n      tag_402\n        /* \"#utility.yul\":17622:17624   */\n      0x20\n        /* \"#utility.yul\":17611:17620   */\n      dup4\n        /* \"#utility.yul\":17607:17625   */\n      add\n        /* \"#utility.yul\":17598:17604   */\n      dup6\n        /* \"#utility.yul\":17554:17626   */\n      tag_203\n      jump\t// in\n    tag_402:\n        /* \"#utility.yul\":17636:17708   */\n      tag_403\n        /* \"#utility.yul\":17704:17706   */\n      0x40\n        /* \"#utility.yul\":17693:17702   */\n      dup4\n        /* \"#utility.yul\":17689:17707   */\n      add\n        /* \"#utility.yul\":17680:17686   */\n      dup5\n        /* \"#utility.yul\":17636:17708   */\n      tag_186\n      jump\t// in\n    tag_403:\n        /* \"#utility.yul\":17273:17715   */\n      swap5\n      swap4\n      pop\n      pop\n      pop\n      pop\n      jump\t// out\n        /* \"#utility.yul\":17721:17892   */\n    tag_228:\n        /* \"#utility.yul\":17861:17884   */\n      0x546f6b656e207472616e73666572206661696c65640000000000000000000000\n        /* \"#utility.yul\":17857:17858   */\n      0x00\n        /* \"#utility.yul\":17849:17855   */\n      dup3\n        /* \"#utility.yul\":17845:17859   */\n      add\n        /* \"#utility.yul\":17838:17885   */\n      mstore\n        /* \"#utility.yul\":17721:17892   */\n      pop\n      jump\t// out\n        /* \"#utility.yul\":17898:18264   */\n    tag_229:\n        /* \"#utility.yul\":18040:18043   */\n      0x00\n        /* \"#utility.yul\":18061:18128   */\n      tag_406\n        /* \"#utility.yul\":18125:18127   */\n      0x15\n        /* \"#utility.yul\":18120:18123   */\n      dup4\n        /* \"#utility.yul\":18061:18128   */\n      tag_214\n      jump\t// in\n    tag_406:\n        /* \"#utility.yul\":18054:18128   */\n      swap2\n      pop\n        /* \"#utility.yul\":18137:18230   */\n      tag_407\n        /* \"#utility.yul\":18226:18229   */\n      dup3\n        /* \"#utility.yul\":18137:18230   */\n      tag_228\n      jump\t// in\n    tag_407:\n        /* \"#utility.yul\":18255:18257   */\n      0x20\n        /* \"#utility.yul\":18250:18253   */\n      dup3\n        /* \"#utility.yul\":18246:18258   */\n      add\n        /* \"#utility.yul\":18239:18258   */\n      swap1\n      pop\n        /* \"#utility.yul\":17898:18264   */\n      swap2\n      swap1\n      pop\n      jump\t// out\n        /* \"#utility.yul\":18270:18689   */\n    tag_124:\n        /* \"#utility.yul\":18436:18440   */\n      0x00\n        /* \"#utility.yul\":18474:18476   */\n      0x20\n        /* \"#utility.yul\":18463:18472   */\n      dup3\n        /* \"#utility.yul\":18459:18477   */\n      add\n        /* \"#utility.yul\":18451:18477   */\n      swap1\n      pop\n        /* \"#utility.yul\":18523:18532   */\n      dup2\n        /* \"#utility.yul\":18517:18521   */\n      dup2\n        /* \"#utility.yul\":18513:18533   */\n      sub\n        /* \"#utility.yul\":18509:18510   */\n      0x00\n        /* \"#utility.yul\":18498:18507   */\n      dup4\n        /* \"#utility.yul\":18494:18511   */\n      add\n        /* \"#utility.yul\":18487:18534   */\n      mstore\n        /* \"#utility.yul\":18551:18682   */\n      tag_409\n        /* \"#utility.yul\":18677:18681   */\n      dup2\n        /* \"#utility.yul\":18551:18682   */\n      tag_229\n      jump\t// in\n    tag_409:\n        /* \"#utility.yul\":18543:18682   */\n      swap1\n      pop\n        /* \"#utility.yul\":18270:18689   */\n      swap2\n      swap1\n      pop\n      jump\t// out\n        /* \"#utility.yul\":18695:18875   */\n    tag_230:\n        /* \"#utility.yul\":18743:18820   */\n      0x4e487b7100000000000000000000000000000000000000000000000000000000\n        /* \"#utility.yul\":18740:18741   */\n      0x00\n        /* \"#utility.yul\":18733:18821   */\n      mstore\n        /* \"#utility.yul\":18840:18844   */\n      0x11\n        /* \"#utility.yul\":18837:18838   */\n      0x04\n        /* \"#utility.yul\":18830:18845   */\n      mstore\n        /* \"#utility.yul\":18864:18868   */\n      0x24\n        /* \"#utility.yul\":18861:18862   */\n      0x00\n        /* \"#utility.yul\":18854:18869   */\n      revert\n        /* \"#utility.yul\":18881:19291   */\n    tag_128:\n        /* \"#utility.yul\":18921:18928   */\n      0x00\n        /* \"#utility.yul\":18944:18964   */\n      tag_412\n        /* \"#utility.yul\":18962:18963   */\n      dup3\n        /* \"#utility.yul\":18944:18964   */\n      tag_185\n      jump\t// in\n    tag_412:\n        /* \"#utility.yul\":18939:18964   */\n      swap2\n      pop\n        /* \"#utility.yul\":18978:18998   */\n      tag_413\n        /* \"#utility.yul\":18996:18997   */\n      dup4\n        /* \"#utility.yul\":18978:18998   */\n      tag_185\n      jump\t// in\n    tag_413:\n        /* \"#utility.yul\":18973:18998   */\n      swap3\n      pop\n        /* \"#utility.yul\":19033:19034   */\n      dup3\n        /* \"#utility.yul\":19030:19031   */\n      dup3\n        /* \"#utility.yul\":19026:19035   */\n      mul\n        /* \"#utility.yul\":19055:19085   */\n      tag_414\n        /* \"#utility.yul\":19073:19084   */\n      dup2\n        /* \"#utility.yul\":19055:19085   */\n      tag_185\n      jump\t// in\n    tag_414:\n        /* \"#utility.yul\":19044:19085   */\n      swap2\n      pop\n        /* \"#utility.yul\":19234:19235   */\n      dup3\n        /* \"#utility.yul\":19225:19232   */\n      dup3\n        /* \"#utility.yul\":19221:19236   */\n      div\n        /* \"#utility.yul\":19218:19219   */\n      dup5\n        /* \"#utility.yul\":19215:19237   */\n      eq\n        /* \"#utility.yul\":19195:19196   */\n      dup4\n        /* \"#utility.yul\":19188:19197   */\n      iszero\n        /* \"#utility.yul\":19168:19251   */\n      or\n        /* \"#utility.yul\":19145:19284   */\n      tag_415\n      jumpi\n        /* \"#utility.yul\":19264:19282   */\n      tag_416\n      tag_230\n      jump\t// in\n    tag_416:\n        /* \"#utility.yul\":19145:19284   */\n    tag_415:\n        /* \"#utility.yul\":18929:19291   */\n      pop\n        /* \"#utility.yul\":18881:19291   */\n      swap3\n      swap2\n      pop\n      pop\n      jump\t// out\n        /* \"#utility.yul\":19297:19488   */\n    tag_130:\n        /* \"#utility.yul\":19337:19340   */\n      0x00\n        /* \"#utility.yul\":19356:19376   */\n      tag_418\n        /* \"#utility.yul\":19374:19375   */\n      dup3\n        /* \"#utility.yul\":19356:19376   */\n      tag_185\n      jump\t// in\n    tag_418:\n        /* \"#utility.yul\":19351:19376   */\n      swap2\n      pop\n        /* \"#utility.yul\":19390:19410   */\n      tag_419\n        /* \"#utility.yul\":19408:19409   */\n      dup4\n        /* \"#utility.yul\":19390:19410   */\n      tag_185\n      jump\t// in\n    tag_419:\n        /* \"#utility.yul\":19385:19410   */\n      swap3\n      pop\n        /* \"#utility.yul\":19433:19434   */\n      dup3\n        /* \"#utility.yul\":19430:19431   */\n      dup3\n        /* \"#utility.yul\":19426:19435   */\n      add\n        /* \"#utility.yul\":19419:19435   */\n      swap1\n      pop\n        /* \"#utility.yul\":19454:19457   */\n      dup1\n        /* \"#utility.yul\":19451:19452   */\n      dup3\n        /* \"#utility.yul\":19448:19458   */\n      gt\n        /* \"#utility.yul\":19445:19481   */\n      iszero\n      tag_420\n      jumpi\n        /* \"#utility.yul\":19461:19479   */\n      tag_421\n      tag_230\n      jump\t// in\n    tag_421:\n        /* \"#utility.yul\":19445:19481   */\n    tag_420:\n        /* \"#utility.yul\":19297:19488   */\n      swap3\n      swap2\n      pop\n      pop\n      jump\t// out\n        /* \"#utility.yul\":19494:19936   */\n    tag_135:\n        /* \"#utility.yul\":19643:19647   */\n      0x00\n        /* \"#utility.yul\":19681:19683   */\n      0x60\n        /* \"#utility.yul\":19670:19679   */\n      dup3\n        /* \"#utility.yul\":19666:19684   */\n      add\n        /* \"#utility.yul\":19658:19684   */\n      swap1\n      pop\n        /* \"#utility.yul\":19694:19765   */\n      tag_423\n        /* \"#utility.yul\":19762:19763   */\n      0x00\n        /* \"#utility.yul\":19751:19760   */\n      dup4\n        /* \"#utility.yul\":19747:19764   */\n      add\n        /* \"#utility.yul\":19738:19744   */\n      dup7\n        /* \"#utility.yul\":19694:19765   */\n      tag_186\n      jump\t// in\n    tag_423:\n        /* \"#utility.yul\":19775:19847   */\n      tag_424\n        /* \"#utility.yul\":19843:19845   */\n      0x20\n        /* \"#utility.yul\":19832:19841   */\n      dup4\n        /* \"#utility.yul\":19828:19846   */\n      add\n        /* \"#utility.yul\":19819:19825   */\n      dup6\n        /* \"#utility.yul\":19775:19847   */\n      tag_186\n      jump\t// in\n    tag_424:\n        /* \"#utility.yul\":19857:19929   */\n      tag_425\n        /* \"#utility.yul\":19925:19927   */\n      0x40\n        /* \"#utility.yul\":19914:19923   */\n      dup4\n        /* \"#utility.yul\":19910:19928   */\n      add\n        /* \"#utility.yul\":19901:19907   */\n      dup5\n        /* \"#utility.yul\":19857:19929   */\n      tag_186\n      jump\t// in\n    tag_425:\n        /* \"#utility.yul\":19494:19936   */\n      swap5\n      swap4\n      pop\n      pop\n      pop\n      pop\n      jump\t// out\n        /* \"#utility.yul\":19942:20175   */\n    tag_137:\n        /* \"#utility.yul\":19981:19984   */\n      0x00\n        /* \"#utility.yul\":20004:20028   */\n      tag_427\n        /* \"#utility.yul\":20022:20027   */\n      dup3\n        /* \"#utility.yul\":20004:20028   */\n      tag_185\n      jump\t// in\n    tag_427:\n        /* \"#utility.yul\":19995:20028   */\n      swap2\n      pop\n        /* \"#utility.yul\":20050:20116   */\n      0xffffffffffffffffffffffffffffffffffffffffffffffffffffffffffffffff\n        /* \"#utility.yul\":20043:20048   */\n      dup3\n        /* \"#utility.yul\":20040:20117   */\n      sub\n        /* \"#utility.yul\":20037:20140   */\n      tag_428\n      jumpi\n        /* \"#utility.yul\":20120:20138   */\n      tag_429\n      tag_230\n      jump\t// in\n    tag_429:\n        /* \"#utility.yul\":20037:20140   */\n    tag_428:\n        /* \"#utility.yul\":20167:20168   */\n      0x01\n        /* \"#utility.yul\":20160:20165   */\n      dup3\n        /* \"#utility.yul\":20156:20169   */\n      add\n        /* \"#utility.yul\":20149:20169   */\n      swap1\n      pop\n        /* \"#utility.yul\":19942:20175   */\n      swap2\n      swap1\n      pop\n      jump\t// out\n        /* \"#utility.yul\":20181:20345   */\n    tag_231:\n        /* \"#utility.yul\":20321:20337   */\n      0x4e6f7420796f7572207374616b65000000000000000000000000000000000000\n        /* \"#utility.yul\":20317:20318   */\n      0x00\n        /* \"#utility.yul\":20309:20315   */\n      dup3\n        /* \"#utility.yul\":20305:20319   */\n      add\n        /* \"#utility.yul\":20298:20338   */\n      mstore\n        /* \"#utility.yul\":20181:20345   */\n      pop\n      jump\t// out\n        /* \"#utility.yul\":20351:20717   */\n    tag_232:\n        /* \"#utility.yul\":20493:20496   */\n      0x00\n        /* \"#utility.yul\":20514:20581   */\n      tag_432\n        /* \"#utility.yul\":20578:20580   */\n      0x0e\n        /* \"#utility.yul\":20573:20576   */\n      dup4\n        /* \"#utility.yul\":20514:20581   */\n      tag_214\n      jump\t// in\n    tag_432:\n        /* \"#utility.yul\":20507:20581   */\n      swap2\n      pop\n        /* \"#utility.yul\":20590:20683   */\n      tag_433\n        /* \"#utility.yul\":20679:20682   */\n      dup3\n        /* \"#utility.yul\":20590:20683   */\n      tag_231\n      jump\t// in\n    tag_433:\n        /* \"#utility.yul\":20708:20710   */\n      0x20\n        /* \"#utility.yul\":20703:20706   */\n      dup3\n        /* \"#utility.yul\":20699:20711   */\n      add\n        /* \"#utility.yul\":20692:20711   */\n      swap1\n      pop\n        /* \"#utility.yul\":20351:20717   */\n      swap2\n      swap1\n      pop\n      jump\t// out\n        /* \"#utility.yul\":20723:21142   */\n    tag_144:\n        /* \"#utility.yul\":20889:20893   */\n      0x00\n        /* \"#utility.yul\":20927:20929   */\n      0x20\n        /* \"#utility.yul\":20916:20925   */\n      dup3\n        /* \"#utility.yul\":20912:20930   */\n      add\n        /* \"#utility.yul\":20904:20930   */\n      swap1\n      pop\n        /* \"#utility.yul\":20976:20985   */\n      dup2\n        /* \"#utility.yul\":20970:20974   */\n      dup2\n        /* \"#utility.yul\":20966:20986   */\n      sub\n        /* \"#utility.yul\":20962:20963   */\n      0x00\n        /* \"#utility.yul\":20951:20960   */\n      dup4\n        /* \"#utility.yul\":20947:20964   */\n      add\n        /* \"#utility.yul\":20940:20987   */\n      mstore\n        /* \"#utility.yul\":21004:21135   */\n      tag_435\n        /* \"#utility.yul\":21130:21134   */\n      dup2\n        /* \"#utility.yul\":21004:21135   */\n      tag_232\n      jump\t// in\n    tag_435:\n        /* \"#utility.yul\":20996:21135   */\n      swap1\n      pop\n        /* \"#utility.yul\":20723:21142   */\n      swap2\n      swap1\n      pop\n      jump\t// out\n        /* \"#utility.yul\":21148:21314   */\n    tag_233:\n        /* \"#utility.yul\":21288:21306   */\n      0x416c726561647920756e7374616b656400000000000000000000000000000000\n        /* \"#utility.yul\":21284:21285   */\n      0x00\n        /* \"#utility.yul\":21276:21282   */\n      dup3\n        /* \"#utility.yul\":21272:21286   */\n      add\n        /* \"#utility.yul\":21265:21307   */\n      mstore\n        /* \"#utility.yul\":21148:21314   */\n      pop\n      jump\t// out\n        /* \"#utility.yul\":21320:21686   */\n    tag_234:\n        /* \"#utility.yul\":21462:21465   */\n      0x00\n        /* \"#utility.yul\":21483:21550   */\n      tag_438\n        /* \"#utility.yul\":21547:21549   */\n      0x10\n        /* \"#utility.yul\":21542:21545   */\n      dup4\n        /* \"#utility.yul\":21483:21550   */\n      tag_214\n      jump\t// in\n    tag_438:\n        /* \"#utility.yul\":21476:21550   */\n      swap2\n      pop\n        /* \"#utility.yul\":21559:21652   */\n      tag_439\n        /* \"#utility.yul\":21648:21651   */\n      dup3\n        /* \"#utility.yul\":21559:21652   */\n      tag_233\n      jump\t// in\n    tag_439:\n        /* \"#utility.yul\":21677:21679   */\n      0x20\n        /* \"#utility.yul\":21672:21675   */\n      dup3\n        /* \"#utility.yul\":21668:21680   */\n      add\n        /* \"#utility.yul\":21661:21680   */\n      swap1\n      pop\n        /* \"#utility.yul\":21320:21686   */\n      swap2\n      swap1\n      pop\n      jump\t// out\n        /* \"#utility.yul\":21692:22111   */\n    tag_147:\n        /* \"#utility.yul\":21858:21862   */\n      0x00\n        /* \"#utility.yul\":21896:21898   */\n      0x20\n        /* \"#utility.yul\":21885:21894   */\n      dup3\n        /* \"#utility.yul\":21881:21899   */\n      add\n        /* \"#utility.yul\":21873:21899   */\n      swap1\n      pop\n        /* \"#utility.yul\":21945:21954   */\n      dup2\n        /* \"#utility.yul\":21939:21943   */\n      dup2\n        /* \"#utility.yul\":21935:21955   */\n      sub\n        /* \"#utility.yul\":21931:21932   */\n      0x00\n        /* \"#utility.yul\":21920:21929   */\n      dup4\n        /* \"#utility.yul\":21916:21933   */\n      add\n        /* \"#utility.yul\":21909:21956   */\n      mstore\n        /* \"#utility.yul\":21973:22104   */\n      tag_441\n        /* \"#utility.yul\":22099:22103   */\n      dup2\n        /* \"#utility.yul\":21973:22104   */\n      tag_234\n      jump\t// in\n    tag_441:\n        /* \"#utility.yul\":21965:22104   */\n      swap1\n      pop\n        /* \"#utility.yul\":21692:22111   */\n      swap2\n      swap1\n      pop\n      jump\t// out\n        /* \"#utility.yul\":22117:22311   */\n    tag_149:\n        /* \"#utility.yul\":22157:22161   */\n      0x00\n        /* \"#utility.yul\":22177:22197   */\n      tag_443\n        /* \"#utility.yul\":22195:22196   */\n      dup3\n        /* \"#utility.yul\":22177:22197   */\n      tag_185\n      jump\t// in\n    tag_443:\n        /* \"#utility.yul\":22172:22197   */\n      swap2\n      pop\n        /* \"#utility.yul\":22211:22231   */\n      tag_444\n        /* \"#utility.yul\":22229:22230   */\n      dup4\n        /* \"#utility.yul\":22211:22231   */\n      tag_185\n      jump\t// in\n    tag_444:\n        /* \"#utility.yul\":22206:22231   */\n      swap3\n      pop\n        /* \"#utility.yul\":22255:22256   */\n      dup3\n        /* \"#utility.yul\":22252:22253   */\n      dup3\n        /* \"#utility.yul\":22248:22257   */\n      sub\n        /* \"#utility.yul\":22240:22257   */\n      swap1\n      pop\n        /* \"#utility.yul\":22279:22280   */\n      dup2\n        /* \"#utility.yul\":22273:22277   */\n      dup2\n        /* \"#utility.yul\":22270:22281   */\n      gt\n        /* \"#utility.yul\":22267:22304   */\n      iszero\n      tag_445\n      jumpi\n        /* \"#utility.yul\":22284:22302   */\n      tag_446\n      tag_230\n      jump\t// in\n    tag_446:\n        /* \"#utility.yul\":22267:22304   */\n    tag_445:\n        /* \"#utility.yul\":22117:22311   */\n      swap3\n      swap2\n      pop\n      pop\n      jump\t// out\n        /* \"#utility.yul\":22317:22497   */\n    tag_235:\n        /* \"#utility.yul\":22365:22442   */\n      0x4e487b7100000000000000000000000000000000000000000000000000000000\n        /* \"#utility.yul\":22362:22363   */\n      0x00\n        /* \"#utility.yul\":22355:22443   */\n      mstore\n        /* \"#utility.yul\":22462:22466   */\n      0x12\n        /* \"#utility.yul\":22459:22460   */\n      0x04\n        /* \"#utility.yul\":22452:22467   */\n      mstore\n        /* \"#utility.yul\":22486:22490   */\n      0x24\n        /* \"#utility.yul\":22483:22484   */\n      0x00\n        /* \"#utility.yul\":22476:22491   */\n      revert\n        /* \"#utility.yul\":22503:22688   */\n    tag_151:\n        /* \"#utility.yul\":22543:22544   */\n      0x00\n        /* \"#utility.yul\":22560:22580   */\n      tag_449\n        /* \"#utility.yul\":22578:22579   */\n      dup3\n        /* \"#utility.yul\":22560:22580   */\n      tag_185\n      jump\t// in\n    tag_449:\n        /* \"#utility.yul\":22555:22580   */\n      swap2\n      pop\n        /* \"#utility.yul\":22594:22614   */\n      tag_450\n        /* \"#utility.yul\":22612:22613   */\n      dup4\n        /* \"#utility.yul\":22594:22614   */\n      tag_185\n      jump\t// in\n    tag_450:\n        /* \"#utility.yul\":22589:22614   */\n      swap3\n      pop\n        /* \"#utility.yul\":22633:22634   */\n      dup3\n        /* \"#utility.yul\":22623:22658   */\n      tag_451\n      jumpi\n        /* \"#utility.yul\":22638:22656   */\n      tag_452\n      tag_235\n      jump\t// in\n    tag_452:\n        /* \"#utility.yul\":22623:22658   */\n    tag_451:\n        /* \"#utility.yul\":22680:22681   */\n      dup3\n        /* \"#utility.yul\":22677:22678   */\n      dup3\n        /* \"#utility.yul\":22673:22682   */\n      div\n        /* \"#utility.yul\":22668:22682   */\n      swap1\n      pop\n        /* \"#utility.yul\":22503:22688   */\n      swap3\n      swap2\n      pop\n      pop\n      jump\t// out\n        /* \"#utility.yul\":22694:22859   */\n    tag_236:\n        /* \"#utility.yul\":22834:22851   */\n      0x5472616e73666572206661696c65640000000000000000000000000000000000\n        /* \"#utility.yul\":22830:22831   */\n      0x00\n        /* \"#utility.yul\":22822:22828   */\n      dup3\n        /* \"#utility.yul\":22818:22832   */\n      add\n        /* \"#utility.yul\":22811:22852   */\n      mstore\n        /* \"#utility.yul\":22694:22859   */\n      pop\n      jump\t// out\n        /* \"#utility.yul\":22865:23231   */\n    tag_237:\n        /* \"#utility.yul\":23007:23010   */\n      0x00\n        /* \"#utility.yul\":23028:23095   */\n      tag_455\n        /* \"#utility.yul\":23092:23094   */\n      0x0f\n        /* \"#utility.yul\":23087:23090   */\n      dup4\n        /* \"#utility.yul\":23028:23095   */\n      tag_214\n      jump\t// in\n    tag_455:\n        /* \"#utility.yul\":23021:23095   */\n      swap2\n      pop\n        /* \"#utility.yul\":23104:23197   */\n      tag_456\n        /* \"#utility.yul\":23193:23196   */\n      dup3\n        /* \"#utility.yul\":23104:23197   */\n      tag_236\n      jump\t// in\n    tag_456:\n        /* \"#utility.yul\":23222:23224   */\n      0x20\n        /* \"#utility.yul\":23217:23220   */\n      dup3\n        /* \"#utility.yul\":23213:23225   */\n      add\n        /* \"#utility.yul\":23206:23225   */\n      swap1\n      pop\n        /* \"#utility.yul\":22865:23231   */\n      swap2\n      swap1\n      pop\n      jump\t// out\n        /* \"#utility.yul\":23237:23656   */\n    tag_167:\n        /* \"#utility.yul\":23403:23407   */\n      0x00\n        /* \"#utility.yul\":23441:23443   */\n      0x20\n        /* \"#utility.yul\":23430:23439   */\n      dup3\n        /* \"#utility.yul\":23426:23444   */\n      add\n        /* \"#utility.yul\":23418:23444   */\n      swap1\n      pop\n        /* \"#utility.yul\":23490:23499   */\n      dup2\n        /* \"#utility.yul\":23484:23488   */\n      dup2\n        /* \"#utility.yul\":23480:23500   */\n      sub\n        /* \"#utility.yul\":23476:23477   */\n      0x00\n        /* \"#utility.yul\":23465:23474   */\n      dup4\n        /* \"#utility.yul\":23461:23478   */\n      add\n        /* \"#utility.yul\":23454:23501   */\n      mstore\n        /* \"#utility.yul\":23518:23649   */\n      tag_458\n        /* \"#utility.yul\":23644:23648   */\n      dup2\n        /* \"#utility.yul\":23518:23649   */\n      tag_237\n      jump\t// in\n    tag_458:\n        /* \"#utility.yul\":23510:23649   */\n      swap1\n      pop\n        /* \"#utility.yul\":23237:23656   */\n      swap2\n      swap1\n      pop\n      jump\t// out\n        /* \"#utility.yul\":23662:23994   */\n    tag_169:\n        /* \"#utility.yul\":23783:23787   */\n      0x00\n        /* \"#utility.yul\":23821:23823   */\n      0x40\n        /* \"#utility.yul\":23810:23819   */\n      dup3\n        /* \"#utility.yul\":23806:23824   */\n      add\n        /* \"#utility.yul\":23798:23824   */\n      swap1\n      pop\n        /* \"#utility.yul\":23834:23905   */\n      tag_460\n        /* \"#utility.yul\":23902:23903   */\n      0x00\n        /* \"#utility.yul\":23891:23900   */\n      dup4\n        /* \"#utility.yul\":23887:23904   */\n      add\n        /* \"#utility.yul\":23878:23884   */\n      dup6\n        /* \"#utility.yul\":23834:23905   */\n      tag_186\n      jump\t// in\n    tag_460:\n        /* \"#utility.yul\":23915:23987   */\n      tag_461\n        /* \"#utility.yul\":23983:23985   */\n      0x20\n        /* \"#utility.yul\":23972:23981   */\n      dup4\n        /* \"#utility.yul\":23968:23986   */\n      add\n        /* \"#utility.yul\":23959:23965   */\n      dup5\n        /* \"#utility.yul\":23915:23987   */\n      tag_186\n      jump\t// in\n    tag_461:\n        /* \"#utility.yul\":23662:23994   */\n      swap4\n      swap3\n      pop\n      pop\n      pop\n      jump\t// out\n        /* \"#utility.yul\":24000:24165   */\n    tag_238:\n        /* \"#utility.yul\":24140:24157   */\n      0x506f736974696f6e20636c6f7365640000000000000000000000000000000000\n        /* \"#utility.yul\":24136:24137   */\n      0x00\n        /* \"#utility.yul\":24128:24134   */\n      dup3\n        /* \"#utility.yul\":24124:24138   */\n      add\n        /* \"#utility.yul\":24117:24158   */\n      mstore\n        /* \"#utility.yul\":24000:24165   */\n      pop\n      jump\t// out\n        /* \"#utility.yul\":24171:24537   */\n    tag_239:\n        /* \"#utility.yul\":24313:24316   */\n      0x00\n        /* \"#utility.yul\":24334:24401   */\n      tag_464\n        /* \"#utility.yul\":24398:24400   */\n      0x0f\n        /* \"#utility.yul\":24393:24396   */\n      dup4\n        /* \"#utility.yul\":24334:24401   */\n      tag_214\n      jump\t// in\n    tag_464:\n        /* \"#utility.yul\":24327:24401   */\n      swap2\n      pop\n        /* \"#utility.yul\":24410:24503   */\n      tag_465\n        /* \"#utility.yul\":24499:24502   */\n      dup3\n        /* \"#utility.yul\":24410:24503   */\n      tag_238\n      jump\t// in\n    tag_465:\n        /* \"#utility.yul\":24528:24530   */\n      0x20\n        /* \"#utility.yul\":24523:24526   */\n      dup3\n        /* \"#utility.yul\":24519:24531   */\n      add\n        /* \"#utility.yul\":24512:24531   */\n      swap1\n      pop\n        /* \"#utility.yul\":24171:24537   */\n      swap2\n      swap1\n      pop\n      jump\t// out\n        /* \"#utility.yul\":24543:24962   */\n    tag_173:\n        /* \"#utility.yul\":24709:24713   */\n      0x00\n        /* \"#utility.yul\":24747:24749   */\n      0x20\n        /* \"#utility.yul\":24736:24745   */\n      dup3\n        /* \"#utility.yul\":24732:24750   */\n      add\n        /* \"#utility.yul\":24724:24750   */\n      swap1\n      pop\n        /* \"#utility.yul\":24796:24805   */\n      dup2\n        /* \"#utility.yul\":24790:24794   */\n      dup2\n        /* \"#utility.yul\":24786:24806   */\n      sub\n        /* \"#utility.yul\":24782:24783   */\n      0x00\n        /* \"#utility.yul\":24771:24780   */\n      dup4\n        /* \"#utility.yul\":24767:24784   */\n      add\n        /* \"#utility.yul\":24760:24807   */\n      mstore\n        /* \"#utility.yul\":24824:24955   */\n      tag_467\n        /* \"#utility.yul\":24950:24954   */\n      dup2\n        /* \"#utility.yul\":24824:24955   */\n      tag_239\n      jump\t// in\n    tag_467:\n        /* \"#utility.yul\":24816:24955   */\n      swap1\n      pop\n        /* \"#utility.yul\":24543:24962   */\n      swap2\n      swap1\n      pop\n      jump\t// out\n\n    auxdata: 0xa2646970667358221220f57ab62da2482d5c77002224e6175604d9c07d8fa4bf7c3a551fb28236a61ebb64736f6c63430008190033\n}\n",
				"bytecode": {
					"linkReferences": {},
					"object": "608060405234801561000f575f80fd5b50604051611eca380380611eca8339818101604052810190610031919061017d565b335f806101000a81548173ffffffffffffffffffffffffffffffffffffffff021916908373ffffffffffffffffffffffffffffffffffffffff1602179055508060015f6101000a81548173ffffffffffffffffffffffffffffffffffffffff021916908373ffffffffffffffffffffffffffffffffffffffff1602179055506001600281905550600260055f601e81526020019081526020015f2081905550600360055f605a81526020019081526020015f2081905550600660055f60b481526020019081526020015f2081905550600c60055f61016d81526020019081526020015f2081905550506101a8565b5f80fd5b5f73ffffffffffffffffffffffffffffffffffffffff82169050919050565b5f61014c82610123565b9050919050565b61015c81610142565b8114610166575f80fd5b50565b5f8151905061017781610153565b92915050565b5f602082840312156101925761019161011f565b5b5f61019f84828501610169565b91505092915050565b611d15806101b55f395ff3fe608060405234801561000f575f80fd5b50600436106100e8575f3560e01c806399fbab881161008a578063b838ec8611610064578063b838ec8614610262578063c1dfa0bb14610292578063c7d065bc146102ae578063eeee849b146102de576100e8565b806399fbab88146101f05780639d0f8ca114610228578063a7211ff814610246576100e8565b806345eae373116100c657806345eae37314610156578063857224ee14610186578063875bb4e2146101a25780638da5cb5b146101d2576100e8565b80631131c8cd146100ec5780632e1a7d4d1461010a57806340d98a4414610126575b5f80fd5b6100f461030e565b6040516101019190611133565b60405180910390f35b610124600480360381019061011f919061117a565b610314565b005b610140600480360381019061013b91906111ff565b6105e6565b60405161014d91906112e1565b60405180910390f35b610170600480360381019061016b9190611301565b610679565b60405161017d9190611133565b60405180910390f35b6101a0600480360381019061019b919061133f565b6106a4565b005b6101bc60048036038101906101b7919061117a565b61074b565b6040516101c99190611133565b60405180910390f35b6101da610760565b6040516101e7919061138c565b60405180910390f35b61020a6004803603810190610205919061117a565b610783565b60405161021f999897969594939291906113bf565b60405180910390f35b6102306107f8565b60405161023d91906114a5565b60405180910390f35b610260600480360381019061025b91906114be565b61081d565b005b61027c6004803603810190610277919061117a565b610bd5565b60405161028991906115e1565b60405180910390f35b6102ac60048036038101906102a7919061117a565b610cb5565b005b6102c860048036038101906102c3919061117a565b610fa7565b6040516102d59190611133565b60405180910390f35b6102f860048036038101906102f3919061117a565b611067565b6040516103059190611133565b60405180910390f35b60025481565b5f8054906101000a900473ffffffffffffffffffffffffffffffffffffffff1673ffffffffffffffffffffffffffffffffffffffff163373ffffffffffffffffffffffffffffffffffffffff16146103a1576040517f08c379a000000000000000000000000000000000000000000000000000000000815260040161039890611655565b60405180910390fd5b8060015f9054906101000a900473ffffffffffffffffffffffffffffffffffffffff1673ffffffffffffffffffffffffffffffffffffffff166370a08231306040518263ffffffff1660e01b81526004016103fc919061138c565b602060405180830381865afa158015610417573d5f803e3d5ffd5b505050506040513d601f19601f8201168201806040525081019061043b9190611687565b101561047c576040517f08c379a0000000000000000000000000000000000000000000000000000000008152600401610473906116fc565b60405180910390fd5b60015f9054906101000a900473ffffffffffffffffffffffffffffffffffffffff1673ffffffffffffffffffffffffffffffffffffffff1663a9059cbb5f8054906101000a900473ffffffffffffffffffffffffffffffffffffffff16836040518363ffffffff1660e01b81526004016104f792919061171a565b6020604051808303815f875af1158015610513573d5f803e3d5ffd5b505050506040513d601f19601f82011682018060405250810190610537919061176b565b610576576040517f08c379a000000000000000000000000000000000000000000000000000000000815260040161056d906117e0565b60405180910390fd5b5f8054906101000a900473ffffffffffffffffffffffffffffffffffffffff1673ffffffffffffffffffffffffffffffffffffffff167f7084f5476618d8e60b11ef0d7d3f06914655adb8793e28ff7f018d4c76d505d5826040516105db9190611133565b60405180910390a250565b606060045f8373ffffffffffffffffffffffffffffffffffffffff1673ffffffffffffffffffffffffffffffffffffffff1681526020019081526020015f2080548060200260200160405190810160405280929190818152602001828054801561066d57602002820191905f5260205f20905b815481526020019060010190808311610659575b50505050509050919050565b6004602052815f5260405f208181548110610692575f80fd5b905f5260205f20015f91509150505481565b5f8054906101000a900473ffffffffffffffffffffffffffffffffffffffff1673ffffffffffffffffffffffffffffffffffffffff163373ffffffffffffffffffffffffffffffffffffffff1614610731576040517f08c379a000000000000000000000000000000000000000000000000000000000815260040161072890611655565b60405180910390fd5b8060055f8481526020019081526020015f20819055505050565b6005602052805f5260405f205f915090505481565b5f8054906101000a900473ffffffffffffffffffffffffffffffffffffffff1681565b6003602052805f5260405f205f91509050805f015490806001015f9054906101000a900473ffffffffffffffffffffffffffffffffffffffff1690806002015490806003015490806004015490806005015490806006015490806007015490806008015f9054906101000a900460ff16905089565b60015f9054906101000a900473ffffffffffffffffffffffffffffffffffffffff1681565b5f60055f8481526020019081526020015f205411610870576040517f08c379a000000000000000000000000000000000000000000000000000000000815260040161086790611848565b60405180910390fd5b5f81116108b2576040517f08c379a00000000000000000000000000000000000000000000000000000000081526004016108a9906118b0565b60405180910390fd5b60015f9054906101000a900473ffffffffffffffffffffffffffffffffffffffff1673ffffffffffffffffffffffffffffffffffffffff166323b872dd3330846040518463ffffffff1660e01b8152600401610910939291906118ce565b6020604051808303815f875af115801561092c573d5f803e3d5ffd5b505050506040513d601f19601f82011682018060405250810190610950919061176b565b61098f576040517f08c379a00000000000000000000000000000000000000000000000000000000081526004016109869061194d565b60405180910390fd5b5f60055f8481526020019081526020015f205490505f6109b0828585611081565b905060405180610120016040528060025481526020013373ffffffffffffffffffffffffffffffffffffffff16815260200186815260200142815260200162015180866109fd9190611998565b42610a0891906119d9565b81526020018381526020018481526020018281526020016001151581525060035f60025481526020019081526020015f205f820151815f01556020820151816001015f6101000a81548173ffffffffffffffffffffffffffffffffffffffff021916908373ffffffffffffffffffffffffffffffffffffffff16021790555060408201518160020155606082015181600301556080820151816004015560a0820151816005015560c0820151816006015560e08201518160070155610100820151816008015f6101000a81548160ff02191690831515021790555090505060045f3373ffffffffffffffffffffffffffffffffffffffff1673ffffffffffffffffffffffffffffffffffffffff1681526020019081526020015f20600254908060018154018082558091505060019003905f5260205f20015f90919091909150553373ffffffffffffffffffffffffffffffffffffffff166002547f3a58274652ad3c1b21033919df479ac9d224eefab131449d295d924aa4eeecea87866201518089610b959190611998565b42610ba091906119d9565b604051610baf93929190611a0c565b60405180910390a360025f815480929190610bc990611a41565b91905055505050505050565b610bdd6110c0565b60035f8381526020019081526020015f20604051806101200160405290815f8201548152602001600182015f9054906101000a900473ffffffffffffffffffffffffffffffffffffffff1673ffffffffffffffffffffffffffffffffffffffff1673ffffffffffffffffffffffffffffffffffffffff168152602001600282015481526020016003820154815260200160048201548152602001600582015481526020016006820154815260200160078201548152602001600882015f9054906101000a900460ff1615151515815250509050919050565b5f60035f8381526020019081526020015f2090503373ffffffffffffffffffffffffffffffffffffffff16816001015f9054906101000a900473ffffffffffffffffffffffffffffffffffffffff1673ffffffffffffffffffffffffffffffffffffffff1614610d5a576040517f08c379a0000000000000000000000000000000000000000000000000000000008152600401610d5190611ad2565b60405180910390fd5b806008015f9054906101000a900460ff16610daa576040517f08c379a0000000000000000000000000000000000000000000000000000000008152600401610da190611b3a565b60405180910390fd5b5f62015180826003015442610dbf9190611b58565b610dc99190611bb8565b90505f8083600401544210610dfa5783600701548460060154610dec91906119d9565b915083600701549050610e59565b6014831015610e1257836006015491505f9050610e58565b5f618e9485600501548660060154610e2a9190611998565b610e349190611bb8565b90508381610e429190611998565b9150818560060154610e5491906119d9565b9250505b5b60015f9054906101000a900473ffffffffffffffffffffffffffffffffffffffff1673ffffffffffffffffffffffffffffffffffffffff1663a9059cbb33846040518363ffffffff1660e01b8152600401610eb592919061171a565b6020604051808303815f875af1158015610ed1573d5f803e3d5ffd5b505050506040513d601f19601f82011682018060405250810190610ef5919061176b565b610f34576040517f08c379a0000000000000000000000000000000000000000000000000000000008152600401610f2b90611c32565b60405180910390fd5b5f846008015f6101000a81548160ff0219169083151502179055503373ffffffffffffffffffffffffffffffffffffffff16857fd4fb60805a60894a62fe4eb89b3ad68f7bacfe2777738ddfe5ed694c0dcd1d528484604051610f98929190611c50565b60405180910390a35050505050565b5f8060035f8481526020019081526020015f209050806008015f9054906101000a900460ff1661100c576040517f08c379a000000000000000000000000000000000000000000000000000000000815260040161100390611cc1565b60405180910390fd5b5f620151808260030154426110219190611b58565b61102b9190611bb8565b90505f618e94836005015484600601546110459190611998565b61104f9190611bb8565b9050818161105d9190611998565b9350505050919050565b5f60055f8381526020019081526020015f20549050919050565b5f80606483866110919190611998565b61109b9190611bb8565b905061016d84826110ac9190611998565b6110b69190611bb8565b9150509392505050565b6040518061012001604052805f81526020015f73ffffffffffffffffffffffffffffffffffffffff1681526020015f81526020015f81526020015f81526020015f81526020015f81526020015f81526020015f151581525090565b5f819050919050565b61112d8161111b565b82525050565b5f6020820190506111465f830184611124565b92915050565b5f80fd5b6111598161111b565b8114611163575f80fd5b50565b5f8135905061117481611150565b92915050565b5f6020828403121561118f5761118e61114c565b5b5f61119c84828501611166565b91505092915050565b5f73ffffffffffffffffffffffffffffffffffffffff82169050919050565b5f6111ce826111a5565b9050919050565b6111de816111c4565b81146111e8575f80fd5b50565b5f813590506111f9816111d5565b92915050565b5f602082840312156112145761121361114c565b5b5f611221848285016111eb565b91505092915050565b5f81519050919050565b5f82825260208201905092915050565b5f819050602082019050919050565b61125c8161111b565b82525050565b5f61126d8383611253565b60208301905092915050565b5f602082019050919050565b5f61128f8261122a565b6112998185611234565b93506112a483611244565b805f5b838110156112d45781516112bb8882611262565b97506112c683611279565b9250506001810190506112a7565b5085935050505092915050565b5f6020820190508181035f8301526112f98184611285565b905092915050565b5f80604083850312156113175761131661114c565b5b5f611324858286016111eb565b925050602061133585828601611166565b9150509250929050565b5f80604083850312156113555761135461114c565b5b5f61136285828601611166565b925050602061137385828601611166565b9150509250929050565b611386816111c4565b82525050565b5f60208201905061139f5f83018461137d565b92915050565b5f8115159050919050565b6113b9816113a5565b82525050565b5f610120820190506113d35f83018c611124565b6113e0602083018b61137d565b6113ed604083018a611124565b6113fa6060830189611124565b6114076080830188611124565b61141460a0830187611124565b61142160c0830186611124565b61142e60e0830185611124565b61143c6101008301846113b0565b9a9950505050505050505050565b5f819050919050565b5f61146d611468611463846111a5565b61144a565b6111a5565b9050919050565b5f61147e82611453565b9050919050565b5f61148f82611474565b9050919050565b61149f81611485565b82525050565b5f6020820190506114b85f830184611496565b92915050565b5f805f606084860312156114d5576114d461114c565b5b5f6114e286828701611166565b93505060206114f386828701611166565b925050604061150486828701611166565b9150509250925092565b611517816111c4565b82525050565b611526816113a5565b82525050565b61012082015f8201516115415f850182611253565b506020820151611554602085018261150e565b5060408201516115676040850182611253565b50606082015161157a6060850182611253565b50608082015161158d6080850182611253565b5060a08201516115a060a0850182611253565b5060c08201516115b360c0850182611253565b5060e08201516115c660e0850182611253565b506101008201516115db61010085018261151d565b50505050565b5f610120820190506115f55f83018461152c565b92915050565b5f82825260208201905092915050565b7f4f6e6c79206f776e6572000000000000000000000000000000000000000000005f82015250565b5f61163f600a836115fb565b915061164a8261160b565b602082019050919050565b5f6020820190508181035f83015261166c81611633565b9050919050565b5f8151905061168181611150565b92915050565b5f6020828403121561169c5761169b61114c565b5b5f6116a984828501611673565b91505092915050565b7f496e73756666696369656e742062616c616e63650000000000000000000000005f82015250565b5f6116e66014836115fb565b91506116f1826116b2565b602082019050919050565b5f6020820190508181035f830152611713816116da565b9050919050565b5f60408201905061172d5f83018561137d565b61173a6020830184611124565b9392505050565b61174a816113a5565b8114611754575f80fd5b50565b5f8151905061176581611741565b92915050565b5f602082840312156117805761177f61114c565b5b5f61178d84828501611757565b91505092915050565b7f5769746864726177206661696c656400000000000000000000000000000000005f82015250565b5f6117ca600f836115fb565b91506117d582611796565b602082019050919050565b5f6020820190508181035f8301526117f7816117be565b9050919050565b7f496e76616c6964207374616b696e6720706572696f64000000000000000000005f82015250565b5f6118326016836115fb565b915061183d826117fe565b602082019050919050565b5f6020820190508181035f83015261185f81611826565b9050919050565b7f416d6f756e74206d7573742062652067726561746572207468616e207a65726f5f82015250565b5f61189a6020836115fb565b91506118a582611866565b602082019050919050565b5f6020820190508181035f8301526118c78161188e565b9050919050565b5f6060820190506118e15f83018661137d565b6118ee602083018561137d565b6118fb6040830184611124565b949350505050565b7f546f6b656e207472616e73666572206661696c656400000000000000000000005f82015250565b5f6119376015836115fb565b915061194282611903565b602082019050919050565b5f6020820190508181035f8301526119648161192b565b9050919050565b7f4e487b71000000000000000000000000000000000000000000000000000000005f52601160045260245ffd5b5f6119a28261111b565b91506119ad8361111b565b92508282026119bb8161111b565b915082820484148315176119d2576119d161196b565b5b5092915050565b5f6119e38261111b565b91506119ee8361111b565b9250828201905080821115611a0657611a0561196b565b5b92915050565b5f606082019050611a1f5f830186611124565b611a2c6020830185611124565b611a396040830184611124565b949350505050565b5f611a4b8261111b565b91507fffffffffffffffffffffffffffffffffffffffffffffffffffffffffffffffff8203611a7d57611a7c61196b565b5b600182019050919050565b7f4e6f7420796f7572207374616b650000000000000000000000000000000000005f82015250565b5f611abc600e836115fb565b9150611ac782611a88565b602082019050919050565b5f6020820190508181035f830152611ae981611ab0565b9050919050565b7f416c726561647920756e7374616b6564000000000000000000000000000000005f82015250565b5f611b246010836115fb565b9150611b2f82611af0565b602082019050919050565b5f6020820190508181035f830152611b5181611b18565b9050919050565b5f611b628261111b565b9150611b6d8361111b565b9250828203905081811115611b8557611b8461196b565b5b92915050565b7f4e487b71000000000000000000000000000000000000000000000000000000005f52601260045260245ffd5b5f611bc28261111b565b9150611bcd8361111b565b925082611bdd57611bdc611b8b565b5b828204905092915050565b7f5472616e73666572206661696c656400000000000000000000000000000000005f82015250565b5f611c1c600f836115fb565b9150611c2782611be8565b602082019050919050565b5f6020820190508181035f830152611c4981611c10565b9050919050565b5f604082019050611c635f830185611124565b611c706020830184611124565b9392505050565b7f506f736974696f6e20636c6f73656400000000000000000000000000000000005f82015250565b5f611cab600f836115fb565b9150611cb682611c77565b602082019050919050565b5f6020820190508181035f830152611cd881611c9f565b905091905056fea2646970667358221220f57ab62da2482d5c77002224e6175604d9c07d8fa4bf7c3a551fb28236a61ebb64736f6c63430008190033",
					"opcodes": "PUSH1 0x80 PUSH1 0x40 MSTORE CALLVALUE DUP1 ISZERO PUSH2 0xF JUMPI PUSH0 DUP1 REVERT JUMPDEST POP PUSH1 0x40 MLOAD PUSH2 0x1ECA CODESIZE SUB DUP1 PUSH2 0x1ECA DUP4 CODECOPY DUP2 DUP2 ADD PUSH1 0x40 MSTORE DUP2 ADD SWAP1 PUSH2 0x31 SWAP2 SWAP1 PUSH2 0x17D JUMP JUMPDEST CALLER PUSH0 DUP1 PUSH2 0x100 EXP DUP2 SLOAD DUP2 PUSH20 0xFFFFFFFFFFFFFFFFFFFFFFFFFFFFFFFFFFFFFFFF MUL NOT AND SWAP1 DUP4 PUSH20 0xFFFFFFFFFFFFFFFFFFFFFFFFFFFFFFFFFFFFFFFF AND MUL OR SWAP1 SSTORE POP DUP1 PUSH1 0x1 PUSH0 PUSH2 0x100 EXP DUP2 SLOAD DUP2 PUSH20 0xFFFFFFFFFFFFFFFFFFFFFFFFFFFFFFFFFFFFFFFF MUL NOT AND SWAP1 DUP4 PUSH20 0xFFFFFFFFFFFFFFFFFFFFFFFFFFFFFFFFFFFFFFFF AND MUL OR SWAP1 SSTORE POP PUSH1 0x1 PUSH1 0x2 DUP2 SWAP1 SSTORE POP PUSH1 0x2 PUSH1 0x5 PUSH0 PUSH1 0x1E DUP2 MSTORE PUSH1 0x20 ADD SWAP1 DUP2 MSTORE PUSH1 0x20 ADD PUSH0 KECCAK256 DUP2 SWAP1 SSTORE POP PUSH1 0x3 PUSH1 0x5 PUSH0 PUSH1 0x5A DUP2 MSTORE PUSH1 0x20 ADD SWAP1 DUP2 MSTORE PUSH1 0x20 ADD PUSH0 KECCAK256 DUP2 SWAP1 SSTORE POP PUSH1 0x6 PUSH1 0x5 PUSH0 PUSH1 0xB4 DUP2 MSTORE PUSH1 0x20 ADD SWAP1 DUP2 MSTORE PUSH1 0x20 ADD PUSH0 KECCAK256 DUP2 SWAP1 SSTORE POP PUSH1 0xC PUSH1 0x5 PUSH0 PUSH2 0x16D DUP2 MSTORE PUSH1 0x20 ADD SWAP1 DUP2 MSTORE PUSH1 0x20 ADD PUSH0 KECCAK256 DUP2 SWAP1 SSTORE POP POP PUSH2 0x1A8 JUMP JUMPDEST PUSH0 DUP1 REVERT JUMPDEST PUSH0 PUSH20 0xFFFFFFFFFFFFFFFFFFFFFFFFFFFFFFFFFFFFFFFF DUP3 AND SWAP1 POP SWAP2 SWAP1 POP JUMP JUMPDEST PUSH0 PUSH2 0x14C DUP3 PUSH2 0x123 JUMP JUMPDEST SWAP1 POP SWAP2 SWAP1 POP JUMP JUMPDEST PUSH2 0x15C DUP2 PUSH2 0x142 JUMP JUMPDEST DUP2 EQ PUSH2 0x166 JUMPI PUSH0 DUP1 REVERT JUMPDEST POP JUMP JUMPDEST PUSH0 DUP2 MLOAD SWAP1 POP PUSH2 0x177 DUP2 PUSH2 0x153 JUMP JUMPDEST SWAP3 SWAP2 POP POP JUMP JUMPDEST PUSH0 PUSH1 0x20 DUP3 DUP5 SUB SLT ISZERO PUSH2 0x192 JUMPI PUSH2 0x191 PUSH2 0x11F JUMP JUMPDEST JUMPDEST PUSH0 PUSH2 0x19F DUP5 DUP3 DUP6 ADD PUSH2 0x169 JUMP JUMPDEST SWAP2 POP POP SWAP3 SWAP2 POP POP JUMP JUMPDEST PUSH2 0x1D15 DUP1 PUSH2 0x1B5 PUSH0 CODECOPY PUSH0 RETURN INVALID PUSH1 0x80 PUSH1 0x40 MSTORE CALLVALUE DUP1 ISZERO PUSH2 0xF JUMPI PUSH0 DUP1 REVERT JUMPDEST POP PUSH1 0x4 CALLDATASIZE LT PUSH2 0xE8 JUMPI PUSH0 CALLDATALOAD PUSH1 0xE0 SHR DUP1 PUSH4 0x99FBAB88 GT PUSH2 0x8A JUMPI DUP1 PUSH4 0xB838EC86 GT PUSH2 0x64 JUMPI DUP1 PUSH4 0xB838EC86 EQ PUSH2 0x262 JUMPI DUP1 PUSH4 0xC1DFA0BB EQ PUSH2 0x292 JUMPI DUP1 PUSH4 0xC7D065BC EQ PUSH2 0x2AE JUMPI DUP1 PUSH4 0xEEEE849B EQ PUSH2 0x2DE JUMPI PUSH2 0xE8 JUMP JUMPDEST DUP1 PUSH4 0x99FBAB88 EQ PUSH2 0x1F0 JUMPI DUP1 PUSH4 0x9D0F8CA1 EQ PUSH2 0x228 JUMPI DUP1 PUSH4 0xA7211FF8 EQ PUSH2 0x246 JUMPI PUSH2 0xE8 JUMP JUMPDEST DUP1 PUSH4 0x45EAE373 GT PUSH2 0xC6 JUMPI DUP1 PUSH4 0x45EAE373 EQ PUSH2 0x156 JUMPI DUP1 PUSH4 0x857224EE EQ PUSH2 0x186 JUMPI DUP1 PUSH4 0x875BB4E2 EQ PUSH2 0x1A2 JUMPI DUP1 PUSH4 0x8DA5CB5B EQ PUSH2 0x1D2 JUMPI PUSH2 0xE8 JUMP JUMPDEST DUP1 PUSH4 0x1131C8CD EQ PUSH2 0xEC JUMPI DUP1 PUSH4 0x2E1A7D4D EQ PUSH2 0x10A JUMPI DUP1 PUSH4 0x40D98A44 EQ PUSH2 0x126 JUMPI JUMPDEST PUSH0 DUP1 REVERT JUMPDEST PUSH2 0xF4 PUSH2 0x30E JUMP JUMPDEST PUSH1 0x40 MLOAD PUSH2 0x101 SWAP2 SWAP1 PUSH2 0x1133 JUMP JUMPDEST PUSH1 0x40 MLOAD DUP1 SWAP2 SUB SWAP1 RETURN JUMPDEST PUSH2 0x124 PUSH1 0x4 DUP1 CALLDATASIZE SUB DUP2 ADD SWAP1 PUSH2 0x11F SWAP2 SWAP1 PUSH2 0x117A JUMP JUMPDEST PUSH2 0x314 JUMP JUMPDEST STOP JUMPDEST PUSH2 0x140 PUSH1 0x4 DUP1 CALLDATASIZE SUB DUP2 ADD SWAP1 PUSH2 0x13B SWAP2 SWAP1 PUSH2 0x11FF JUMP JUMPDEST PUSH2 0x5E6 JUMP JUMPDEST PUSH1 0x40 MLOAD PUSH2 0x14D SWAP2 SWAP1 PUSH2 0x12E1 JUMP JUMPDEST PUSH1 0x40 MLOAD DUP1 SWAP2 SUB SWAP1 RETURN JUMPDEST PUSH2 0x170 PUSH1 0x4 DUP1 CALLDATASIZE SUB DUP2 ADD SWAP1 PUSH2 0x16B SWAP2 SWAP1 PUSH2 0x1301 JUMP JUMPDEST PUSH2 0x679 JUMP JUMPDEST PUSH1 0x40 MLOAD PUSH2 0x17D SWAP2 SWAP1 PUSH2 0x1133 JUMP JUMPDEST PUSH1 0x40 MLOAD DUP1 SWAP2 SUB SWAP1 RETURN JUMPDEST PUSH2 0x1A0 PUSH1 0x4 DUP1 CALLDATASIZE SUB DUP2 ADD SWAP1 PUSH2 0x19B SWAP2 SWAP1 PUSH2 0x133F JUMP JUMPDEST PUSH2 0x6A4 JUMP JUMPDEST STOP JUMPDEST PUSH2 0x1BC PUSH1 0x4 DUP1 CALLDATASIZE SUB DUP2 ADD SWAP1 PUSH2 0x1B7 SWAP2 SWAP1 PUSH2 0x117A JUMP JUMPDEST PUSH2 0x74B JUMP JUMPDEST PUSH1 0x40 MLOAD PUSH2 0x1C9 SWAP2 SWAP1 PUSH2 0x1133 JUMP JUMPDEST PUSH1 0x40 MLOAD DUP1 SWAP2 SUB SWAP1 RETURN JUMPDEST PUSH2 0x1DA PUSH2 0x760 JUMP JUMPDEST PUSH1 0x40 MLOAD PUSH2 0x1E7 SWAP2 SWAP1 PUSH2 0x138C JUMP JUMPDEST PUSH1 0x40 MLOAD DUP1 SWAP2 SUB SWAP1 RETURN JUMPDEST PUSH2 0x20A PUSH1 0x4 DUP1 CALLDATASIZE SUB DUP2 ADD SWAP1 PUSH2 0x205 SWAP2 SWAP1 PUSH2 0x117A JUMP JUMPDEST PUSH2 0x783 JUMP JUMPDEST PUSH1 0x40 MLOAD PUSH2 0x21F SWAP10 SWAP9 SWAP8 SWAP7 SWAP6 SWAP5 SWAP4 SWAP3 SWAP2 SWAP1 PUSH2 0x13BF JUMP JUMPDEST PUSH1 0x40 MLOAD DUP1 SWAP2 SUB SWAP1 RETURN JUMPDEST PUSH2 0x230 PUSH2 0x7F8 JUMP JUMPDEST PUSH1 0x40 MLOAD PUSH2 0x23D SWAP2 SWAP1 PUSH2 0x14A5 JUMP JUMPDEST PUSH1 0x40 MLOAD DUP1 SWAP2 SUB SWAP1 RETURN JUMPDEST PUSH2 0x260 PUSH1 0x4 DUP1 CALLDATASIZE SUB DUP2 ADD SWAP1 PUSH2 0x25B SWAP2 SWAP1 PUSH2 0x14BE JUMP JUMPDEST PUSH2 0x81D JUMP JUMPDEST STOP JUMPDEST PUSH2 0x27C PUSH1 0x4 DUP1 CALLDATASIZE SUB DUP2 ADD SWAP1 PUSH2 0x277 SWAP2 SWAP1 PUSH2 0x117A JUMP JUMPDEST PUSH2 0xBD5 JUMP JUMPDEST PUSH1 0x40 MLOAD PUSH2 0x289 SWAP2 SWAP1 PUSH2 0x15E1 JUMP JUMPDEST PUSH1 0x40 MLOAD DUP1 SWAP2 SUB SWAP1 RETURN JUMPDEST PUSH2 0x2AC PUSH1 0x4 DUP1 CALLDATASIZE SUB DUP2 ADD SWAP1 PUSH2 0x2A7 SWAP2 SWAP1 PUSH2 0x117A JUMP JUMPDEST PUSH2 0xCB5 JUMP JUMPDEST STOP JUMPDEST PUSH2 0x2C8 PUSH1 0x4 DUP1 CALLDATASIZE SUB DUP2 ADD SWAP1 PUSH2 0x2C3 SWAP2 SWAP1 PUSH2 0x117A JUMP JUMPDEST PUSH2 0xFA7 JUMP JUMPDEST PUSH1 0x40 MLOAD PUSH2 0x2D5 SWAP2 SWAP1 PUSH2 0x1133 JUMP JUMPDEST PUSH1 0x40 MLOAD DUP1 SWAP2 SUB SWAP1 RETURN JUMPDEST PUSH2 0x2F8 PUSH1 0x4 DUP1 CALLDATASIZE SUB DUP2 ADD SWAP1 PUSH2 0x2F3 SWAP2 SWAP1 PUSH2 0x117A JUMP JUMPDEST PUSH2 0x1067 JUMP JUMPDEST PUSH1 0x40 MLOAD PUSH2 0x305 SWAP2 SWAP1 PUSH2 0x1133 JUMP JUMPDEST PUSH1 0x40 MLOAD DUP1 SWAP2 SUB SWAP1 RETURN JUMPDEST PUSH1 0x2 SLOAD DUP2 JUMP JUMPDEST PUSH0 DUP1 SLOAD SWAP1 PUSH2 0x100 EXP SWAP1 DIV PUSH20 0xFFFFFFFFFFFFFFFFFFFFFFFFFFFFFFFFFFFFFFFF AND PUSH20 0xFFFFFFFFFFFFFFFFFFFFFFFFFFFFFFFFFFFFFFFF AND CALLER PUSH20 0xFFFFFFFFFFFFFFFFFFFFFFFFFFFFFFFFFFFFFFFF AND EQ PUSH2 0x3A1 JUMPI PUSH1 0x40 MLOAD PUSH32 0x8C379A000000000000000000000000000000000000000000000000000000000 DUP2 MSTORE PUSH1 0x4 ADD PUSH2 0x398 SWAP1 PUSH2 0x1655 JUMP JUMPDEST PUSH1 0x40 MLOAD DUP1 SWAP2 SUB SWAP1 REVERT JUMPDEST DUP1 PUSH1 0x1 PUSH0 SWAP1 SLOAD SWAP1 PUSH2 0x100 EXP SWAP1 DIV PUSH20 0xFFFFFFFFFFFFFFFFFFFFFFFFFFFFFFFFFFFFFFFF AND PUSH20 0xFFFFFFFFFFFFFFFFFFFFFFFFFFFFFFFFFFFFFFFF AND PUSH4 0x70A08231 ADDRESS PUSH1 0x40 MLOAD DUP3 PUSH4 0xFFFFFFFF AND PUSH1 0xE0 SHL DUP2 MSTORE PUSH1 0x4 ADD PUSH2 0x3FC SWAP2 SWAP1 PUSH2 0x138C JUMP JUMPDEST PUSH1 0x20 PUSH1 0x40 MLOAD DUP1 DUP4 SUB DUP2 DUP7 GAS STATICCALL ISZERO DUP1 ISZERO PUSH2 0x417 JUMPI RETURNDATASIZE PUSH0 DUP1 RETURNDATACOPY RETURNDATASIZE PUSH0 REVERT JUMPDEST POP POP POP POP PUSH1 0x40 MLOAD RETURNDATASIZE PUSH1 0x1F NOT PUSH1 0x1F DUP3 ADD AND DUP3 ADD DUP1 PUSH1 0x40 MSTORE POP DUP2 ADD SWAP1 PUSH2 0x43B SWAP2 SWAP1 PUSH2 0x1687 JUMP JUMPDEST LT ISZERO PUSH2 0x47C JUMPI PUSH1 0x40 MLOAD PUSH32 0x8C379A000000000000000000000000000000000000000000000000000000000 DUP2 MSTORE PUSH1 0x4 ADD PUSH2 0x473 SWAP1 PUSH2 0x16FC JUMP JUMPDEST PUSH1 0x40 MLOAD DUP1 SWAP2 SUB SWAP1 REVERT JUMPDEST PUSH1 0x1 PUSH0 SWAP1 SLOAD SWAP1 PUSH2 0x100 EXP SWAP1 DIV PUSH20 0xFFFFFFFFFFFFFFFFFFFFFFFFFFFFFFFFFFFFFFFF AND PUSH20 0xFFFFFFFFFFFFFFFFFFFFFFFFFFFFFFFFFFFFFFFF AND PUSH4 0xA9059CBB PUSH0 DUP1 SLOAD SWAP1 PUSH2 0x100 EXP SWAP1 DIV PUSH20 0xFFFFFFFFFFFFFFFFFFFFFFFFFFFFFFFFFFFFFFFF AND DUP4 PUSH1 0x40 MLOAD DUP4 PUSH4 0xFFFFFFFF AND PUSH1 0xE0 SHL DUP2 MSTORE PUSH1 0x4 ADD PUSH2 0x4F7 SWAP3 SWAP2 SWAP1 PUSH2 0x171A JUMP JUMPDEST PUSH1 0x20 PUSH1 0x40 MLOAD DUP1 DUP4 SUB DUP2 PUSH0 DUP8 GAS CALL ISZERO DUP1 ISZERO PUSH2 0x513 JUMPI RETURNDATASIZE PUSH0 DUP1 RETURNDATACOPY RETURNDATASIZE PUSH0 REVERT JUMPDEST POP POP POP POP PUSH1 0x40 MLOAD RETURNDATASIZE PUSH1 0x1F NOT PUSH1 0x1F DUP3 ADD AND DUP3 ADD DUP1 PUSH1 0x40 MSTORE POP DUP2 ADD SWAP1 PUSH2 0x537 SWAP2 SWAP1 PUSH2 0x176B JUMP JUMPDEST PUSH2 0x576 JUMPI PUSH1 0x40 MLOAD PUSH32 0x8C379A000000000000000000000000000000000000000000000000000000000 DUP2 MSTORE PUSH1 0x4 ADD PUSH2 0x56D SWAP1 PUSH2 0x17E0 JUMP JUMPDEST PUSH1 0x40 MLOAD DUP1 SWAP2 SUB SWAP1 REVERT JUMPDEST PUSH0 DUP1 SLOAD SWAP1 PUSH2 0x100 EXP SWAP1 DIV PUSH20 0xFFFFFFFFFFFFFFFFFFFFFFFFFFFFFFFFFFFFFFFF AND PUSH20 0xFFFFFFFFFFFFFFFFFFFFFFFFFFFFFFFFFFFFFFFF AND PUSH32 0x7084F5476618D8E60B11EF0D7D3F06914655ADB8793E28FF7F018D4C76D505D5 DUP3 PUSH1 0x40 MLOAD PUSH2 0x5DB SWAP2 SWAP1 PUSH2 0x1133 JUMP JUMPDEST PUSH1 0x40 MLOAD DUP1 SWAP2 SUB SWAP1 LOG2 POP JUMP JUMPDEST PUSH1 0x60 PUSH1 0x4 PUSH0 DUP4 PUSH20 0xFFFFFFFFFFFFFFFFFFFFFFFFFFFFFFFFFFFFFFFF AND PUSH20 0xFFFFFFFFFFFFFFFFFFFFFFFFFFFFFFFFFFFFFFFF AND DUP2 MSTORE PUSH1 0x20 ADD SWAP1 DUP2 MSTORE PUSH1 0x20 ADD PUSH0 KECCAK256 DUP1 SLOAD DUP1 PUSH1 0x20 MUL PUSH1 0x20 ADD PUSH1 0x40 MLOAD SWAP1 DUP2 ADD PUSH1 0x40 MSTORE DUP1 SWAP3 SWAP2 SWAP1 DUP2 DUP2 MSTORE PUSH1 0x20 ADD DUP3 DUP1 SLOAD DUP1 ISZERO PUSH2 0x66D JUMPI PUSH1 0x20 MUL DUP3 ADD SWAP2 SWAP1 PUSH0 MSTORE PUSH1 0x20 PUSH0 KECCAK256 SWAP1 JUMPDEST DUP2 SLOAD DUP2 MSTORE PUSH1 0x20 ADD SWAP1 PUSH1 0x1 ADD SWAP1 DUP1 DUP4 GT PUSH2 0x659 JUMPI JUMPDEST POP POP POP POP POP SWAP1 POP SWAP2 SWAP1 POP JUMP JUMPDEST PUSH1 0x4 PUSH1 0x20 MSTORE DUP2 PUSH0 MSTORE PUSH1 0x40 PUSH0 KECCAK256 DUP2 DUP2 SLOAD DUP2 LT PUSH2 0x692 JUMPI PUSH0 DUP1 REVERT JUMPDEST SWAP1 PUSH0 MSTORE PUSH1 0x20 PUSH0 KECCAK256 ADD PUSH0 SWAP2 POP SWAP2 POP POP SLOAD DUP2 JUMP JUMPDEST PUSH0 DUP1 SLOAD SWAP1 PUSH2 0x100 EXP SWAP1 DIV PUSH20 0xFFFFFFFFFFFFFFFFFFFFFFFFFFFFFFFFFFFFFFFF AND PUSH20 0xFFFFFFFFFFFFFFFFFFFFFFFFFFFFFFFFFFFFFFFF AND CALLER PUSH20 0xFFFFFFFFFFFFFFFFFFFFFFFFFFFFFFFFFFFFFFFF AND EQ PUSH2 0x731 JUMPI PUSH1 0x40 MLOAD PUSH32 0x8C379A000000000000000000000000000000000000000000000000000000000 DUP2 MSTORE PUSH1 0x4 ADD PUSH2 0x728 SWAP1 PUSH2 0x1655 JUMP JUMPDEST PUSH1 0x40 MLOAD DUP1 SWAP2 SUB SWAP1 REVERT JUMPDEST DUP1 PUSH1 0x5 PUSH0 DUP5 DUP2 MSTORE PUSH1 0x20 ADD SWAP1 DUP2 MSTORE PUSH1 0x20 ADD PUSH0 KECCAK256 DUP2 SWAP1 SSTORE POP POP POP JUMP JUMPDEST PUSH1 0x5 PUSH1 0x20 MSTORE DUP1 PUSH0 MSTORE PUSH1 0x40 PUSH0 KECCAK256 PUSH0 SWAP2 POP SWAP1 POP SLOAD DUP2 JUMP JUMPDEST PUSH0 DUP1 SLOAD SWAP1 PUSH2 0x100 EXP SWAP1 DIV PUSH20 0xFFFFFFFFFFFFFFFFFFFFFFFFFFFFFFFFFFFFFFFF AND DUP2 JUMP JUMPDEST PUSH1 0x3 PUSH1 0x20 MSTORE DUP1 PUSH0 MSTORE PUSH1 0x40 PUSH0 KECCAK256 PUSH0 SWAP2 POP SWAP1 POP DUP1 PUSH0 ADD SLOAD SWAP1 DUP1 PUSH1 0x1 ADD PUSH0 SWAP1 SLOAD SWAP1 PUSH2 0x100 EXP SWAP1 DIV PUSH20 0xFFFFFFFFFFFFFFFFFFFFFFFFFFFFFFFFFFFFFFFF AND SWAP1 DUP1 PUSH1 0x2 ADD SLOAD SWAP1 DUP1 PUSH1 0x3 ADD SLOAD SWAP1 DUP1 PUSH1 0x4 ADD SLOAD SWAP1 DUP1 PUSH1 0x5 ADD SLOAD SWAP1 DUP1 PUSH1 0x6 ADD SLOAD SWAP1 DUP1 PUSH1 0x7 ADD SLOAD SWAP1 DUP1 PUSH1 0x8 ADD PUSH0 SWAP1 SLOAD SWAP1 PUSH2 0x100 EXP SWAP1 DIV PUSH1 0xFF AND SWAP1 POP DUP10 JUMP JUMPDEST PUSH1 0x1 PUSH0 SWAP1 SLOAD SWAP1 PUSH2 0x100 EXP SWAP1 DIV PUSH20 0xFFFFFFFFFFFFFFFFFFFFFFFFFFFFFFFFFFFFFFFF AND DUP2 JUMP JUMPDEST PUSH0 PUSH1 0x5 PUSH0 DUP5 DUP2 MSTORE PUSH1 0x20 ADD SWAP1 DUP2 MSTORE PUSH1 0x20 ADD PUSH0 KECCAK256 SLOAD GT PUSH2 0x870 JUMPI PUSH1 0x40 MLOAD PUSH32 0x8C379A000000000000000000000000000000000000000000000000000000000 DUP2 MSTORE PUSH1 0x4 ADD PUSH2 0x867 SWAP1 PUSH2 0x1848 JUMP JUMPDEST PUSH1 0x40 MLOAD DUP1 SWAP2 SUB SWAP1 REVERT JUMPDEST PUSH0 DUP2 GT PUSH2 0x8B2 JUMPI PUSH1 0x40 MLOAD PUSH32 0x8C379A000000000000000000000000000000000000000000000000000000000 DUP2 MSTORE PUSH1 0x4 ADD PUSH2 0x8A9 SWAP1 PUSH2 0x18B0 JUMP JUMPDEST PUSH1 0x40 MLOAD DUP1 SWAP2 SUB SWAP1 REVERT JUMPDEST PUSH1 0x1 PUSH0 SWAP1 SLOAD SWAP1 PUSH2 0x100 EXP SWAP1 DIV PUSH20 0xFFFFFFFFFFFFFFFFFFFFFFFFFFFFFFFFFFFFFFFF AND PUSH20 0xFFFFFFFFFFFFFFFFFFFFFFFFFFFFFFFFFFFFFFFF AND PUSH4 0x23B872DD CALLER ADDRESS DUP5 PUSH1 0x40 MLOAD DUP5 PUSH4 0xFFFFFFFF AND PUSH1 0xE0 SHL DUP2 MSTORE PUSH1 0x4 ADD PUSH2 0x910 SWAP4 SWAP3 SWAP2 SWAP1 PUSH2 0x18CE JUMP JUMPDEST PUSH1 0x20 PUSH1 0x40 MLOAD DUP1 DUP4 SUB DUP2 PUSH0 DUP8 GAS CALL ISZERO DUP1 ISZERO PUSH2 0x92C JUMPI RETURNDATASIZE PUSH0 DUP1 RETURNDATACOPY RETURNDATASIZE PUSH0 REVERT JUMPDEST POP POP POP POP PUSH1 0x40 MLOAD RETURNDATASIZE PUSH1 0x1F NOT PUSH1 0x1F DUP3 ADD AND DUP3 ADD DUP1 PUSH1 0x40 MSTORE POP DUP2 ADD SWAP1 PUSH2 0x950 SWAP2 SWAP1 PUSH2 0x176B JUMP JUMPDEST PUSH2 0x98F JUMPI PUSH1 0x40 MLOAD PUSH32 0x8C379A000000000000000000000000000000000000000000000000000000000 DUP2 MSTORE PUSH1 0x4 ADD PUSH2 0x986 SWAP1 PUSH2 0x194D JUMP JUMPDEST PUSH1 0x40 MLOAD DUP1 SWAP2 SUB SWAP1 REVERT JUMPDEST PUSH0 PUSH1 0x5 PUSH0 DUP5 DUP2 MSTORE PUSH1 0x20 ADD SWAP1 DUP2 MSTORE PUSH1 0x20 ADD PUSH0 KECCAK256 SLOAD SWAP1 POP PUSH0 PUSH2 0x9B0 DUP3 DUP6 DUP6 PUSH2 0x1081 JUMP JUMPDEST SWAP1 POP PUSH1 0x40 MLOAD DUP1 PUSH2 0x120 ADD PUSH1 0x40 MSTORE DUP1 PUSH1 0x2 SLOAD DUP2 MSTORE PUSH1 0x20 ADD CALLER PUSH20 0xFFFFFFFFFFFFFFFFFFFFFFFFFFFFFFFFFFFFFFFF AND DUP2 MSTORE PUSH1 0x20 ADD DUP7 DUP2 MSTORE PUSH1 0x20 ADD TIMESTAMP DUP2 MSTORE PUSH1 0x20 ADD PUSH3 0x15180 DUP7 PUSH2 0x9FD SWAP2 SWAP1 PUSH2 0x1998 JUMP JUMPDEST TIMESTAMP PUSH2 0xA08 SWAP2 SWAP1 PUSH2 0x19D9 JUMP JUMPDEST DUP2 MSTORE PUSH1 0x20 ADD DUP4 DUP2 MSTORE PUSH1 0x20 ADD DUP5 DUP2 MSTORE PUSH1 0x20 ADD DUP3 DUP2 MSTORE PUSH1 0x20 ADD PUSH1 0x1 ISZERO ISZERO DUP2 MSTORE POP PUSH1 0x3 PUSH0 PUSH1 0x2 SLOAD DUP2 MSTORE PUSH1 0x20 ADD SWAP1 DUP2 MSTORE PUSH1 0x20 ADD PUSH0 KECCAK256 PUSH0 DUP3 ADD MLOAD DUP2 PUSH0 ADD SSTORE PUSH1 0x20 DUP3 ADD MLOAD DUP2 PUSH1 0x1 ADD PUSH0 PUSH2 0x100 EXP DUP2 SLOAD DUP2 PUSH20 0xFFFFFFFFFFFFFFFFFFFFFFFFFFFFFFFFFFFFFFFF MUL NOT AND SWAP1 DUP4 PUSH20 0xFFFFFFFFFFFFFFFFFFFFFFFFFFFFFFFFFFFFFFFF AND MUL OR SWAP1 SSTORE POP PUSH1 0x40 DUP3 ADD MLOAD DUP2 PUSH1 0x2 ADD SSTORE PUSH1 0x60 DUP3 ADD MLOAD DUP2 PUSH1 0x3 ADD SSTORE PUSH1 0x80 DUP3 ADD MLOAD DUP2 PUSH1 0x4 ADD SSTORE PUSH1 0xA0 DUP3 ADD MLOAD DUP2 PUSH1 0x5 ADD SSTORE PUSH1 0xC0 DUP3 ADD MLOAD DUP2 PUSH1 0x6 ADD SSTORE PUSH1 0xE0 DUP3 ADD MLOAD DUP2 PUSH1 0x7 ADD SSTORE PUSH2 0x100 DUP3 ADD MLOAD DUP2 PUSH1 0x8 ADD PUSH0 PUSH2 0x100 EXP DUP2 SLOAD DUP2 PUSH1 0xFF MUL NOT AND SWAP1 DUP4 ISZERO ISZERO MUL OR SWAP1 SSTORE POP SWAP1 POP POP PUSH1 0x4 PUSH0 CALLER PUSH20 0xFFFFFFFFFFFFFFFFFFFFFFFFFFFFFFFFFFFFFFFF AND PUSH20 0xFFFFFFFFFFFFFFFFFFFFFFFFFFFFFFFFFFFFFFFF AND DUP2 MSTORE PUSH1 0x20 ADD SWAP1 DUP2 MSTORE PUSH1 0x20 ADD PUSH0 KECCAK256 PUSH1 0x2 SLOAD SWAP1 DUP1 PUSH1 0x1 DUP2 SLOAD ADD DUP1 DUP3 SSTORE DUP1 SWAP2 POP POP PUSH1 0x1 SWAP1 SUB SWAP1 PUSH0 MSTORE PUSH1 0x20 PUSH0 KECCAK256 ADD PUSH0 SWAP1 SWAP2 SWAP1 SWAP2 SWAP1 SWAP2 POP SSTORE CALLER PUSH20 0xFFFFFFFFFFFFFFFFFFFFFFFFFFFFFFFFFFFFFFFF AND PUSH1 0x2 SLOAD PUSH32 0x3A58274652AD3C1B21033919DF479AC9D224EEFAB131449D295D924AA4EEECEA DUP8 DUP7 PUSH3 0x15180 DUP10 PUSH2 0xB95 SWAP2 SWAP1 PUSH2 0x1998 JUMP JUMPDEST TIMESTAMP PUSH2 0xBA0 SWAP2 SWAP1 PUSH2 0x19D9 JUMP JUMPDEST PUSH1 0x40 MLOAD PUSH2 0xBAF SWAP4 SWAP3 SWAP2 SWAP1 PUSH2 0x1A0C JUMP JUMPDEST PUSH1 0x40 MLOAD DUP1 SWAP2 SUB SWAP1 LOG3 PUSH1 0x2 PUSH0 DUP2 SLOAD DUP1 SWAP3 SWAP2 SWAP1 PUSH2 0xBC9 SWAP1 PUSH2 0x1A41 JUMP JUMPDEST SWAP2 SWAP1 POP SSTORE POP POP POP POP POP POP JUMP JUMPDEST PUSH2 0xBDD PUSH2 0x10C0 JUMP JUMPDEST PUSH1 0x3 PUSH0 DUP4 DUP2 MSTORE PUSH1 0x20 ADD SWAP1 DUP2 MSTORE PUSH1 0x20 ADD PUSH0 KECCAK256 PUSH1 0x40 MLOAD DUP1 PUSH2 0x120 ADD PUSH1 0x40 MSTORE SWAP1 DUP2 PUSH0 DUP3 ADD SLOAD DUP2 MSTORE PUSH1 0x20 ADD PUSH1 0x1 DUP3 ADD PUSH0 SWAP1 SLOAD SWAP1 PUSH2 0x100 EXP SWAP1 DIV PUSH20 0xFFFFFFFFFFFFFFFFFFFFFFFFFFFFFFFFFFFFFFFF AND PUSH20 0xFFFFFFFFFFFFFFFFFFFFFFFFFFFFFFFFFFFFFFFF AND PUSH20 0xFFFFFFFFFFFFFFFFFFFFFFFFFFFFFFFFFFFFFFFF AND DUP2 MSTORE PUSH1 0x20 ADD PUSH1 0x2 DUP3 ADD SLOAD DUP2 MSTORE PUSH1 0x20 ADD PUSH1 0x3 DUP3 ADD SLOAD DUP2 MSTORE PUSH1 0x20 ADD PUSH1 0x4 DUP3 ADD SLOAD DUP2 MSTORE PUSH1 0x20 ADD PUSH1 0x5 DUP3 ADD SLOAD DUP2 MSTORE PUSH1 0x20 ADD PUSH1 0x6 DUP3 ADD SLOAD DUP2 MSTORE PUSH1 0x20 ADD PUSH1 0x7 DUP3 ADD SLOAD DUP2 MSTORE PUSH1 0x20 ADD PUSH1 0x8 DUP3 ADD PUSH0 SWAP1 SLOAD SWAP1 PUSH2 0x100 EXP SWAP1 DIV PUSH1 0xFF AND ISZERO ISZERO ISZERO ISZERO DUP2 MSTORE POP POP SWAP1 POP SWAP2 SWAP1 POP JUMP JUMPDEST PUSH0 PUSH1 0x3 PUSH0 DUP4 DUP2 MSTORE PUSH1 0x20 ADD SWAP1 DUP2 MSTORE PUSH1 0x20 ADD PUSH0 KECCAK256 SWAP1 POP CALLER PUSH20 0xFFFFFFFFFFFFFFFFFFFFFFFFFFFFFFFFFFFFFFFF AND DUP2 PUSH1 0x1 ADD PUSH0 SWAP1 SLOAD SWAP1 PUSH2 0x100 EXP SWAP1 DIV PUSH20 0xFFFFFFFFFFFFFFFFFFFFFFFFFFFFFFFFFFFFFFFF AND PUSH20 0xFFFFFFFFFFFFFFFFFFFFFFFFFFFFFFFFFFFFFFFF AND EQ PUSH2 0xD5A JUMPI PUSH1 0x40 MLOAD PUSH32 0x8C379A000000000000000000000000000000000000000000000000000000000 DUP2 MSTORE PUSH1 0x4 ADD PUSH2 0xD51 SWAP1 PUSH2 0x1AD2 JUMP JUMPDEST PUSH1 0x40 MLOAD DUP1 SWAP2 SUB SWAP1 REVERT JUMPDEST DUP1 PUSH1 0x8 ADD PUSH0 SWAP1 SLOAD SWAP1 PUSH2 0x100 EXP SWAP1 DIV PUSH1 0xFF AND PUSH2 0xDAA JUMPI PUSH1 0x40 MLOAD PUSH32 0x8C379A000000000000000000000000000000000000000000000000000000000 DUP2 MSTORE PUSH1 0x4 ADD PUSH2 0xDA1 SWAP1 PUSH2 0x1B3A JUMP JUMPDEST PUSH1 0x40 MLOAD DUP1 SWAP2 SUB SWAP1 REVERT JUMPDEST PUSH0 PUSH3 0x15180 DUP3 PUSH1 0x3 ADD SLOAD TIMESTAMP PUSH2 0xDBF SWAP2 SWAP1 PUSH2 0x1B58 JUMP JUMPDEST PUSH2 0xDC9 SWAP2 SWAP1 PUSH2 0x1BB8 JUMP JUMPDEST SWAP1 POP PUSH0 DUP1 DUP4 PUSH1 0x4 ADD SLOAD TIMESTAMP LT PUSH2 0xDFA JUMPI DUP4 PUSH1 0x7 ADD SLOAD DUP5 PUSH1 0x6 ADD SLOAD PUSH2 0xDEC SWAP2 SWAP1 PUSH2 0x19D9 JUMP JUMPDEST SWAP2 POP DUP4 PUSH1 0x7 ADD SLOAD SWAP1 POP PUSH2 0xE59 JUMP JUMPDEST PUSH1 0x14 DUP4 LT ISZERO PUSH2 0xE12 JUMPI DUP4 PUSH1 0x6 ADD SLOAD SWAP2 POP PUSH0 SWAP1 POP PUSH2 0xE58 JUMP JUMPDEST PUSH0 PUSH2 0x8E94 DUP6 PUSH1 0x5 ADD SLOAD DUP7 PUSH1 0x6 ADD SLOAD PUSH2 0xE2A SWAP2 SWAP1 PUSH2 0x1998 JUMP JUMPDEST PUSH2 0xE34 SWAP2 SWAP1 PUSH2 0x1BB8 JUMP JUMPDEST SWAP1 POP DUP4 DUP2 PUSH2 0xE42 SWAP2 SWAP1 PUSH2 0x1998 JUMP JUMPDEST SWAP2 POP DUP2 DUP6 PUSH1 0x6 ADD SLOAD PUSH2 0xE54 SWAP2 SWAP1 PUSH2 0x19D9 JUMP JUMPDEST SWAP3 POP POP JUMPDEST JUMPDEST PUSH1 0x1 PUSH0 SWAP1 SLOAD SWAP1 PUSH2 0x100 EXP SWAP1 DIV PUSH20 0xFFFFFFFFFFFFFFFFFFFFFFFFFFFFFFFFFFFFFFFF AND PUSH20 0xFFFFFFFFFFFFFFFFFFFFFFFFFFFFFFFFFFFFFFFF AND PUSH4 0xA9059CBB CALLER DUP5 PUSH1 0x40 MLOAD DUP4 PUSH4 0xFFFFFFFF AND PUSH1 0xE0 SHL DUP2 MSTORE PUSH1 0x4 ADD PUSH2 0xEB5 SWAP3 SWAP2 SWAP1 PUSH2 0x171A JUMP JUMPDEST PUSH1 0x20 PUSH1 0x40 MLOAD DUP1 DUP4 SUB DUP2 PUSH0 DUP8 GAS CALL ISZERO DUP1 ISZERO PUSH2 0xED1 JUMPI RETURNDATASIZE PUSH0 DUP1 RETURNDATACOPY RETURNDATASIZE PUSH0 REVERT JUMPDEST POP POP POP POP PUSH1 0x40 MLOAD RETURNDATASIZE PUSH1 0x1F NOT PUSH1 0x1F DUP3 ADD AND DUP3 ADD DUP1 PUSH1 0x40 MSTORE POP DUP2 ADD SWAP1 PUSH2 0xEF5 SWAP2 SWAP1 PUSH2 0x176B JUMP JUMPDEST PUSH2 0xF34 JUMPI PUSH1 0x40 MLOAD PUSH32 0x8C379A000000000000000000000000000000000000000000000000000000000 DUP2 MSTORE PUSH1 0x4 ADD PUSH2 0xF2B SWAP1 PUSH2 0x1C32 JUMP JUMPDEST PUSH1 0x40 MLOAD DUP1 SWAP2 SUB SWAP1 REVERT JUMPDEST PUSH0 DUP5 PUSH1 0x8 ADD PUSH0 PUSH2 0x100 EXP DUP2 SLOAD DUP2 PUSH1 0xFF MUL NOT AND SWAP1 DUP4 ISZERO ISZERO MUL OR SWAP1 SSTORE POP CALLER PUSH20 0xFFFFFFFFFFFFFFFFFFFFFFFFFFFFFFFFFFFFFFFF AND DUP6 PUSH32 0xD4FB60805A60894A62FE4EB89B3AD68F7BACFE2777738DDFE5ED694C0DCD1D52 DUP5 DUP5 PUSH1 0x40 MLOAD PUSH2 0xF98 SWAP3 SWAP2 SWAP1 PUSH2 0x1C50 JUMP JUMPDEST PUSH1 0x40 MLOAD DUP1 SWAP2 SUB SWAP1 LOG3 POP POP POP POP POP JUMP JUMPDEST PUSH0 DUP1 PUSH1 0x3 PUSH0 DUP5 DUP2 MSTORE PUSH1 0x20 ADD SWAP1 DUP2 MSTORE PUSH1 0x20 ADD PUSH0 KECCAK256 SWAP1 POP DUP1 PUSH1 0x8 ADD PUSH0 SWAP1 SLOAD SWAP1 PUSH2 0x100 EXP SWAP1 DIV PUSH1 0xFF AND PUSH2 0x100C JUMPI PUSH1 0x40 MLOAD PUSH32 0x8C379A000000000000000000000000000000000000000000000000000000000 DUP2 MSTORE PUSH1 0x4 ADD PUSH2 0x1003 SWAP1 PUSH2 0x1CC1 JUMP JUMPDEST PUSH1 0x40 MLOAD DUP1 SWAP2 SUB SWAP1 REVERT JUMPDEST PUSH0 PUSH3 0x15180 DUP3 PUSH1 0x3 ADD SLOAD TIMESTAMP PUSH2 0x1021 SWAP2 SWAP1 PUSH2 0x1B58 JUMP JUMPDEST PUSH2 0x102B SWAP2 SWAP1 PUSH2 0x1BB8 JUMP JUMPDEST SWAP1 POP PUSH0 PUSH2 0x8E94 DUP4 PUSH1 0x5 ADD SLOAD DUP5 PUSH1 0x6 ADD SLOAD PUSH2 0x1045 SWAP2 SWAP1 PUSH2 0x1998 JUMP JUMPDEST PUSH2 0x104F SWAP2 SWAP1 PUSH2 0x1BB8 JUMP JUMPDEST SWAP1 POP DUP2 DUP2 PUSH2 0x105D SWAP2 SWAP1 PUSH2 0x1998 JUMP JUMPDEST SWAP4 POP POP POP POP SWAP2 SWAP1 POP JUMP JUMPDEST PUSH0 PUSH1 0x5 PUSH0 DUP4 DUP2 MSTORE PUSH1 0x20 ADD SWAP1 DUP2 MSTORE PUSH1 0x20 ADD PUSH0 KECCAK256 SLOAD SWAP1 POP SWAP2 SWAP1 POP JUMP JUMPDEST PUSH0 DUP1 PUSH1 0x64 DUP4 DUP7 PUSH2 0x1091 SWAP2 SWAP1 PUSH2 0x1998 JUMP JUMPDEST PUSH2 0x109B SWAP2 SWAP1 PUSH2 0x1BB8 JUMP JUMPDEST SWAP1 POP PUSH2 0x16D DUP5 DUP3 PUSH2 0x10AC SWAP2 SWAP1 PUSH2 0x1998 JUMP JUMPDEST PUSH2 0x10B6 SWAP2 SWAP1 PUSH2 0x1BB8 JUMP JUMPDEST SWAP2 POP POP SWAP4 SWAP3 POP POP POP JUMP JUMPDEST PUSH1 0x40 MLOAD DUP1 PUSH2 0x120 ADD PUSH1 0x40 MSTORE DUP1 PUSH0 DUP2 MSTORE PUSH1 0x20 ADD PUSH0 PUSH20 0xFFFFFFFFFFFFFFFFFFFFFFFFFFFFFFFFFFFFFFFF AND DUP2 MSTORE PUSH1 0x20 ADD PUSH0 DUP2 MSTORE PUSH1 0x20 ADD PUSH0 DUP2 MSTORE PUSH1 0x20 ADD PUSH0 DUP2 MSTORE PUSH1 0x20 ADD PUSH0 DUP2 MSTORE PUSH1 0x20 ADD PUSH0 DUP2 MSTORE PUSH1 0x20 ADD PUSH0 DUP2 MSTORE PUSH1 0x20 ADD PUSH0 ISZERO ISZERO DUP2 MSTORE POP SWAP1 JUMP JUMPDEST PUSH0 DUP2 SWAP1 POP SWAP2 SWAP1 POP JUMP JUMPDEST PUSH2 0x112D DUP2 PUSH2 0x111B JUMP JUMPDEST DUP3 MSTORE POP POP JUMP JUMPDEST PUSH0 PUSH1 0x20 DUP3 ADD SWAP1 POP PUSH2 0x1146 PUSH0 DUP4 ADD DUP5 PUSH2 0x1124 JUMP JUMPDEST SWAP3 SWAP2 POP POP JUMP JUMPDEST PUSH0 DUP1 REVERT JUMPDEST PUSH2 0x1159 DUP2 PUSH2 0x111B JUMP JUMPDEST DUP2 EQ PUSH2 0x1163 JUMPI PUSH0 DUP1 REVERT JUMPDEST POP JUMP JUMPDEST PUSH0 DUP2 CALLDATALOAD SWAP1 POP PUSH2 0x1174 DUP2 PUSH2 0x1150 JUMP JUMPDEST SWAP3 SWAP2 POP POP JUMP JUMPDEST PUSH0 PUSH1 0x20 DUP3 DUP5 SUB SLT ISZERO PUSH2 0x118F JUMPI PUSH2 0x118E PUSH2 0x114C JUMP JUMPDEST JUMPDEST PUSH0 PUSH2 0x119C DUP5 DUP3 DUP6 ADD PUSH2 0x1166 JUMP JUMPDEST SWAP2 POP POP SWAP3 SWAP2 POP POP JUMP JUMPDEST PUSH0 PUSH20 0xFFFFFFFFFFFFFFFFFFFFFFFFFFFFFFFFFFFFFFFF DUP3 AND SWAP1 POP SWAP2 SWAP1 POP JUMP JUMPDEST PUSH0 PUSH2 0x11CE DUP3 PUSH2 0x11A5 JUMP JUMPDEST SWAP1 POP SWAP2 SWAP1 POP JUMP JUMPDEST PUSH2 0x11DE DUP2 PUSH2 0x11C4 JUMP JUMPDEST DUP2 EQ PUSH2 0x11E8 JUMPI PUSH0 DUP1 REVERT JUMPDEST POP JUMP JUMPDEST PUSH0 DUP2 CALLDATALOAD SWAP1 POP PUSH2 0x11F9 DUP2 PUSH2 0x11D5 JUMP JUMPDEST SWAP3 SWAP2 POP POP JUMP JUMPDEST PUSH0 PUSH1 0x20 DUP3 DUP5 SUB SLT ISZERO PUSH2 0x1214 JUMPI PUSH2 0x1213 PUSH2 0x114C JUMP JUMPDEST JUMPDEST PUSH0 PUSH2 0x1221 DUP5 DUP3 DUP6 ADD PUSH2 0x11EB JUMP JUMPDEST SWAP2 POP POP SWAP3 SWAP2 POP POP JUMP JUMPDEST PUSH0 DUP2 MLOAD SWAP1 POP SWAP2 SWAP1 POP JUMP JUMPDEST PUSH0 DUP3 DUP3 MSTORE PUSH1 0x20 DUP3 ADD SWAP1 POP SWAP3 SWAP2 POP POP JUMP JUMPDEST PUSH0 DUP2 SWAP1 POP PUSH1 0x20 DUP3 ADD SWAP1 POP SWAP2 SWAP1 POP JUMP JUMPDEST PUSH2 0x125C DUP2 PUSH2 0x111B JUMP JUMPDEST DUP3 MSTORE POP POP JUMP JUMPDEST PUSH0 PUSH2 0x126D DUP4 DUP4 PUSH2 0x1253 JUMP JUMPDEST PUSH1 0x20 DUP4 ADD SWAP1 POP SWAP3 SWAP2 POP POP JUMP JUMPDEST PUSH0 PUSH1 0x20 DUP3 ADD SWAP1 POP SWAP2 SWAP1 POP JUMP JUMPDEST PUSH0 PUSH2 0x128F DUP3 PUSH2 0x122A JUMP JUMPDEST PUSH2 0x1299 DUP2 DUP6 PUSH2 0x1234 JUMP JUMPDEST SWAP4 POP PUSH2 0x12A4 DUP4 PUSH2 0x1244 JUMP JUMPDEST DUP1 PUSH0 JUMPDEST DUP4 DUP2 LT ISZERO PUSH2 0x12D4 JUMPI DUP2 MLOAD PUSH2 0x12BB DUP9 DUP3 PUSH2 0x1262 JUMP JUMPDEST SWAP8 POP PUSH2 0x12C6 DUP4 PUSH2 0x1279 JUMP JUMPDEST SWAP3 POP POP PUSH1 0x1 DUP2 ADD SWAP1 POP PUSH2 0x12A7 JUMP JUMPDEST POP DUP6 SWAP4 POP POP POP POP SWAP3 SWAP2 POP POP JUMP JUMPDEST PUSH0 PUSH1 0x20 DUP3 ADD SWAP1 POP DUP2 DUP2 SUB PUSH0 DUP4 ADD MSTORE PUSH2 0x12F9 DUP2 DUP5 PUSH2 0x1285 JUMP JUMPDEST SWAP1 POP SWAP3 SWAP2 POP POP JUMP JUMPDEST PUSH0 DUP1 PUSH1 0x40 DUP4 DUP6 SUB SLT ISZERO PUSH2 0x1317 JUMPI PUSH2 0x1316 PUSH2 0x114C JUMP JUMPDEST JUMPDEST PUSH0 PUSH2 0x1324 DUP6 DUP3 DUP7 ADD PUSH2 0x11EB JUMP JUMPDEST SWAP3 POP POP PUSH1 0x20 PUSH2 0x1335 DUP6 DUP3 DUP7 ADD PUSH2 0x1166 JUMP JUMPDEST SWAP2 POP POP SWAP3 POP SWAP3 SWAP1 POP JUMP JUMPDEST PUSH0 DUP1 PUSH1 0x40 DUP4 DUP6 SUB SLT ISZERO PUSH2 0x1355 JUMPI PUSH2 0x1354 PUSH2 0x114C JUMP JUMPDEST JUMPDEST PUSH0 PUSH2 0x1362 DUP6 DUP3 DUP7 ADD PUSH2 0x1166 JUMP JUMPDEST SWAP3 POP POP PUSH1 0x20 PUSH2 0x1373 DUP6 DUP3 DUP7 ADD PUSH2 0x1166 JUMP JUMPDEST SWAP2 POP POP SWAP3 POP SWAP3 SWAP1 POP JUMP JUMPDEST PUSH2 0x1386 DUP2 PUSH2 0x11C4 JUMP JUMPDEST DUP3 MSTORE POP POP JUMP JUMPDEST PUSH0 PUSH1 0x20 DUP3 ADD SWAP1 POP PUSH2 0x139F PUSH0 DUP4 ADD DUP5 PUSH2 0x137D JUMP JUMPDEST SWAP3 SWAP2 POP POP JUMP JUMPDEST PUSH0 DUP2 ISZERO ISZERO SWAP1 POP SWAP2 SWAP1 POP JUMP JUMPDEST PUSH2 0x13B9 DUP2 PUSH2 0x13A5 JUMP JUMPDEST DUP3 MSTORE POP POP JUMP JUMPDEST PUSH0 PUSH2 0x120 DUP3 ADD SWAP1 POP PUSH2 0x13D3 PUSH0 DUP4 ADD DUP13 PUSH2 0x1124 JUMP JUMPDEST PUSH2 0x13E0 PUSH1 0x20 DUP4 ADD DUP12 PUSH2 0x137D JUMP JUMPDEST PUSH2 0x13ED PUSH1 0x40 DUP4 ADD DUP11 PUSH2 0x1124 JUMP JUMPDEST PUSH2 0x13FA PUSH1 0x60 DUP4 ADD DUP10 PUSH2 0x1124 JUMP JUMPDEST PUSH2 0x1407 PUSH1 0x80 DUP4 ADD DUP9 PUSH2 0x1124 JUMP JUMPDEST PUSH2 0x1414 PUSH1 0xA0 DUP4 ADD DUP8 PUSH2 0x1124 JUMP JUMPDEST PUSH2 0x1421 PUSH1 0xC0 DUP4 ADD DUP7 PUSH2 0x1124 JUMP JUMPDEST PUSH2 0x142E PUSH1 0xE0 DUP4 ADD DUP6 PUSH2 0x1124 JUMP JUMPDEST PUSH2 0x143C PUSH2 0x100 DUP4 ADD DUP5 PUSH2 0x13B0 JUMP JUMPDEST SWAP11 SWAP10 POP POP POP POP POP POP POP POP POP POP JUMP JUMPDEST PUSH0 DUP2 SWAP1 POP SWAP2 SWAP1 POP JUMP JUMPDEST PUSH0 PUSH2 0x146D PUSH2 0x1468 PUSH2 0x1463 DUP5 PUSH2 0x11A5 JUMP JUMPDEST PUSH2 0x144A JUMP JUMPDEST PUSH2 0x11A5 JUMP JUMPDEST SWAP1 POP SWAP2 SWAP1 POP JUMP JUMPDEST PUSH0 PUSH2 0x147E DUP3 PUSH2 0x1453 JUMP JUMPDEST SWAP1 POP SWAP2 SWAP1 POP JUMP JUMPDEST PUSH0 PUSH2 0x148F DUP3 PUSH2 0x1474 JUMP JUMPDEST SWAP1 POP SWAP2 SWAP1 POP JUMP JUMPDEST PUSH2 0x149F DUP2 PUSH2 0x1485 JUMP JUMPDEST DUP3 MSTORE POP POP JUMP JUMPDEST PUSH0 PUSH1 0x20 DUP3 ADD SWAP1 POP PUSH2 0x14B8 PUSH0 DUP4 ADD DUP5 PUSH2 0x1496 JUMP JUMPDEST SWAP3 SWAP2 POP POP JUMP JUMPDEST PUSH0 DUP1 PUSH0 PUSH1 0x60 DUP5 DUP7 SUB SLT ISZERO PUSH2 0x14D5 JUMPI PUSH2 0x14D4 PUSH2 0x114C JUMP JUMPDEST JUMPDEST PUSH0 PUSH2 0x14E2 DUP7 DUP3 DUP8 ADD PUSH2 0x1166 JUMP JUMPDEST SWAP4 POP POP PUSH1 0x20 PUSH2 0x14F3 DUP7 DUP3 DUP8 ADD PUSH2 0x1166 JUMP JUMPDEST SWAP3 POP POP PUSH1 0x40 PUSH2 0x1504 DUP7 DUP3 DUP8 ADD PUSH2 0x1166 JUMP JUMPDEST SWAP2 POP POP SWAP3 POP SWAP3 POP SWAP3 JUMP JUMPDEST PUSH2 0x1517 DUP2 PUSH2 0x11C4 JUMP JUMPDEST DUP3 MSTORE POP POP JUMP JUMPDEST PUSH2 0x1526 DUP2 PUSH2 0x13A5 JUMP JUMPDEST DUP3 MSTORE POP POP JUMP JUMPDEST PUSH2 0x120 DUP3 ADD PUSH0 DUP3 ADD MLOAD PUSH2 0x1541 PUSH0 DUP6 ADD DUP3 PUSH2 0x1253 JUMP JUMPDEST POP PUSH1 0x20 DUP3 ADD MLOAD PUSH2 0x1554 PUSH1 0x20 DUP6 ADD DUP3 PUSH2 0x150E JUMP JUMPDEST POP PUSH1 0x40 DUP3 ADD MLOAD PUSH2 0x1567 PUSH1 0x40 DUP6 ADD DUP3 PUSH2 0x1253 JUMP JUMPDEST POP PUSH1 0x60 DUP3 ADD MLOAD PUSH2 0x157A PUSH1 0x60 DUP6 ADD DUP3 PUSH2 0x1253 JUMP JUMPDEST POP PUSH1 0x80 DUP3 ADD MLOAD PUSH2 0x158D PUSH1 0x80 DUP6 ADD DUP3 PUSH2 0x1253 JUMP JUMPDEST POP PUSH1 0xA0 DUP3 ADD MLOAD PUSH2 0x15A0 PUSH1 0xA0 DUP6 ADD DUP3 PUSH2 0x1253 JUMP JUMPDEST POP PUSH1 0xC0 DUP3 ADD MLOAD PUSH2 0x15B3 PUSH1 0xC0 DUP6 ADD DUP3 PUSH2 0x1253 JUMP JUMPDEST POP PUSH1 0xE0 DUP3 ADD MLOAD PUSH2 0x15C6 PUSH1 0xE0 DUP6 ADD DUP3 PUSH2 0x1253 JUMP JUMPDEST POP PUSH2 0x100 DUP3 ADD MLOAD PUSH2 0x15DB PUSH2 0x100 DUP6 ADD DUP3 PUSH2 0x151D JUMP JUMPDEST POP POP POP POP JUMP JUMPDEST PUSH0 PUSH2 0x120 DUP3 ADD SWAP1 POP PUSH2 0x15F5 PUSH0 DUP4 ADD DUP5 PUSH2 0x152C JUMP JUMPDEST SWAP3 SWAP2 POP POP JUMP JUMPDEST PUSH0 DUP3 DUP3 MSTORE PUSH1 0x20 DUP3 ADD SWAP1 POP SWAP3 SWAP2 POP POP JUMP JUMPDEST PUSH32 0x4F6E6C79206F776E657200000000000000000000000000000000000000000000 PUSH0 DUP3 ADD MSTORE POP JUMP JUMPDEST PUSH0 PUSH2 0x163F PUSH1 0xA DUP4 PUSH2 0x15FB JUMP JUMPDEST SWAP2 POP PUSH2 0x164A DUP3 PUSH2 0x160B JUMP JUMPDEST PUSH1 0x20 DUP3 ADD SWAP1 POP SWAP2 SWAP1 POP JUMP JUMPDEST PUSH0 PUSH1 0x20 DUP3 ADD SWAP1 POP DUP2 DUP2 SUB PUSH0 DUP4 ADD MSTORE PUSH2 0x166C DUP2 PUSH2 0x1633 JUMP JUMPDEST SWAP1 POP SWAP2 SWAP1 POP JUMP JUMPDEST PUSH0 DUP2 MLOAD SWAP1 POP PUSH2 0x1681 DUP2 PUSH2 0x1150 JUMP JUMPDEST SWAP3 SWAP2 POP POP JUMP JUMPDEST PUSH0 PUSH1 0x20 DUP3 DUP5 SUB SLT ISZERO PUSH2 0x169C JUMPI PUSH2 0x169B PUSH2 0x114C JUMP JUMPDEST JUMPDEST PUSH0 PUSH2 0x16A9 DUP5 DUP3 DUP6 ADD PUSH2 0x1673 JUMP JUMPDEST SWAP2 POP POP SWAP3 SWAP2 POP POP JUMP JUMPDEST PUSH32 0x496E73756666696369656E742062616C616E6365000000000000000000000000 PUSH0 DUP3 ADD MSTORE POP JUMP JUMPDEST PUSH0 PUSH2 0x16E6 PUSH1 0x14 DUP4 PUSH2 0x15FB JUMP JUMPDEST SWAP2 POP PUSH2 0x16F1 DUP3 PUSH2 0x16B2 JUMP JUMPDEST PUSH1 0x20 DUP3 ADD SWAP1 POP SWAP2 SWAP1 POP JUMP JUMPDEST PUSH0 PUSH1 0x20 DUP3 ADD SWAP1 POP DUP2 DUP2 SUB PUSH0 DUP4 ADD MSTORE PUSH2 0x1713 DUP2 PUSH2 0x16DA JUMP JUMPDEST SWAP1 POP SWAP2 SWAP1 POP JUMP JUMPDEST PUSH0 PUSH1 0x40 DUP3 ADD SWAP1 POP PUSH2 0x172D PUSH0 DUP4 ADD DUP6 PUSH2 0x137D JUMP JUMPDEST PUSH2 0x173A PUSH1 0x20 DUP4 ADD DUP5 PUSH2 0x1124 JUMP JUMPDEST SWAP4 SWAP3 POP POP POP JUMP JUMPDEST PUSH2 0x174A DUP2 PUSH2 0x13A5 JUMP JUMPDEST DUP2 EQ PUSH2 0x1754 JUMPI PUSH0 DUP1 REVERT JUMPDEST POP JUMP JUMPDEST PUSH0 DUP2 MLOAD SWAP1 POP PUSH2 0x1765 DUP2 PUSH2 0x1741 JUMP JUMPDEST SWAP3 SWAP2 POP POP JUMP JUMPDEST PUSH0 PUSH1 0x20 DUP3 DUP5 SUB SLT ISZERO PUSH2 0x1780 JUMPI PUSH2 0x177F PUSH2 0x114C JUMP JUMPDEST JUMPDEST PUSH0 PUSH2 0x178D DUP5 DUP3 DUP6 ADD PUSH2 0x1757 JUMP JUMPDEST SWAP2 POP POP SWAP3 SWAP2 POP POP JUMP JUMPDEST PUSH32 0x5769746864726177206661696C65640000000000000000000000000000000000 PUSH0 DUP3 ADD MSTORE POP JUMP JUMPDEST PUSH0 PUSH2 0x17CA PUSH1 0xF DUP4 PUSH2 0x15FB JUMP JUMPDEST SWAP2 POP PUSH2 0x17D5 DUP3 PUSH2 0x1796 JUMP JUMPDEST PUSH1 0x20 DUP3 ADD SWAP1 POP SWAP2 SWAP1 POP JUMP JUMPDEST PUSH0 PUSH1 0x20 DUP3 ADD SWAP1 POP DUP2 DUP2 SUB PUSH0 DUP4 ADD MSTORE PUSH2 0x17F7 DUP2 PUSH2 0x17BE JUMP JUMPDEST SWAP1 POP SWAP2 SWAP1 POP JUMP JUMPDEST PUSH32 0x496E76616C6964207374616B696E6720706572696F6400000000000000000000 PUSH0 DUP3 ADD MSTORE POP JUMP JUMPDEST PUSH0 PUSH2 0x1832 PUSH1 0x16 DUP4 PUSH2 0x15FB JUMP JUMPDEST SWAP2 POP PUSH2 0x183D DUP3 PUSH2 0x17FE JUMP JUMPDEST PUSH1 0x20 DUP3 ADD SWAP1 POP SWAP2 SWAP1 POP JUMP JUMPDEST PUSH0 PUSH1 0x20 DUP3 ADD SWAP1 POP DUP2 DUP2 SUB PUSH0 DUP4 ADD MSTORE PUSH2 0x185F DUP2 PUSH2 0x1826 JUMP JUMPDEST SWAP1 POP SWAP2 SWAP1 POP JUMP JUMPDEST PUSH32 0x416D6F756E74206D7573742062652067726561746572207468616E207A65726F PUSH0 DUP3 ADD MSTORE POP JUMP JUMPDEST PUSH0 PUSH2 0x189A PUSH1 0x20 DUP4 PUSH2 0x15FB JUMP JUMPDEST SWAP2 POP PUSH2 0x18A5 DUP3 PUSH2 0x1866 JUMP JUMPDEST PUSH1 0x20 DUP3 ADD SWAP1 POP SWAP2 SWAP1 POP JUMP JUMPDEST PUSH0 PUSH1 0x20 DUP3 ADD SWAP1 POP DUP2 DUP2 SUB PUSH0 DUP4 ADD MSTORE PUSH2 0x18C7 DUP2 PUSH2 0x188E JUMP JUMPDEST SWAP1 POP SWAP2 SWAP1 POP JUMP JUMPDEST PUSH0 PUSH1 0x60 DUP3 ADD SWAP1 POP PUSH2 0x18E1 PUSH0 DUP4 ADD DUP7 PUSH2 0x137D JUMP JUMPDEST PUSH2 0x18EE PUSH1 0x20 DUP4 ADD DUP6 PUSH2 0x137D JUMP JUMPDEST PUSH2 0x18FB PUSH1 0x40 DUP4 ADD DUP5 PUSH2 0x1124 JUMP JUMPDEST SWAP5 SWAP4 POP POP POP POP JUMP JUMPDEST PUSH32 0x546F6B656E207472616E73666572206661696C65640000000000000000000000 PUSH0 DUP3 ADD MSTORE POP JUMP JUMPDEST PUSH0 PUSH2 0x1937 PUSH1 0x15 DUP4 PUSH2 0x15FB JUMP JUMPDEST SWAP2 POP PUSH2 0x1942 DUP3 PUSH2 0x1903 JUMP JUMPDEST PUSH1 0x20 DUP3 ADD SWAP1 POP SWAP2 SWAP1 POP JUMP JUMPDEST PUSH0 PUSH1 0x20 DUP3 ADD SWAP1 POP DUP2 DUP2 SUB PUSH0 DUP4 ADD MSTORE PUSH2 0x1964 DUP2 PUSH2 0x192B JUMP JUMPDEST SWAP1 POP SWAP2 SWAP1 POP JUMP JUMPDEST PUSH32 0x4E487B7100000000000000000000000000000000000000000000000000000000 PUSH0 MSTORE PUSH1 0x11 PUSH1 0x4 MSTORE PUSH1 0x24 PUSH0 REVERT JUMPDEST PUSH0 PUSH2 0x19A2 DUP3 PUSH2 0x111B JUMP JUMPDEST SWAP2 POP PUSH2 0x19AD DUP4 PUSH2 0x111B JUMP JUMPDEST SWAP3 POP DUP3 DUP3 MUL PUSH2 0x19BB DUP2 PUSH2 0x111B JUMP JUMPDEST SWAP2 POP DUP3 DUP3 DIV DUP5 EQ DUP4 ISZERO OR PUSH2 0x19D2 JUMPI PUSH2 0x19D1 PUSH2 0x196B JUMP JUMPDEST JUMPDEST POP SWAP3 SWAP2 POP POP JUMP JUMPDEST PUSH0 PUSH2 0x19E3 DUP3 PUSH2 0x111B JUMP JUMPDEST SWAP2 POP PUSH2 0x19EE DUP4 PUSH2 0x111B JUMP JUMPDEST SWAP3 POP DUP3 DUP3 ADD SWAP1 POP DUP1 DUP3 GT ISZERO PUSH2 0x1A06 JUMPI PUSH2 0x1A05 PUSH2 0x196B JUMP JUMPDEST JUMPDEST SWAP3 SWAP2 POP POP JUMP JUMPDEST PUSH0 PUSH1 0x60 DUP3 ADD SWAP1 POP PUSH2 0x1A1F PUSH0 DUP4 ADD DUP7 PUSH2 0x1124 JUMP JUMPDEST PUSH2 0x1A2C PUSH1 0x20 DUP4 ADD DUP6 PUSH2 0x1124 JUMP JUMPDEST PUSH2 0x1A39 PUSH1 0x40 DUP4 ADD DUP5 PUSH2 0x1124 JUMP JUMPDEST SWAP5 SWAP4 POP POP POP POP JUMP JUMPDEST PUSH0 PUSH2 0x1A4B DUP3 PUSH2 0x111B JUMP JUMPDEST SWAP2 POP PUSH32 0xFFFFFFFFFFFFFFFFFFFFFFFFFFFFFFFFFFFFFFFFFFFFFFFFFFFFFFFFFFFFFFFF DUP3 SUB PUSH2 0x1A7D JUMPI PUSH2 0x1A7C PUSH2 0x196B JUMP JUMPDEST JUMPDEST PUSH1 0x1 DUP3 ADD SWAP1 POP SWAP2 SWAP1 POP JUMP JUMPDEST PUSH32 0x4E6F7420796F7572207374616B65000000000000000000000000000000000000 PUSH0 DUP3 ADD MSTORE POP JUMP JUMPDEST PUSH0 PUSH2 0x1ABC PUSH1 0xE DUP4 PUSH2 0x15FB JUMP JUMPDEST SWAP2 POP PUSH2 0x1AC7 DUP3 PUSH2 0x1A88 JUMP JUMPDEST PUSH1 0x20 DUP3 ADD SWAP1 POP SWAP2 SWAP1 POP JUMP JUMPDEST PUSH0 PUSH1 0x20 DUP3 ADD SWAP1 POP DUP2 DUP2 SUB PUSH0 DUP4 ADD MSTORE PUSH2 0x1AE9 DUP2 PUSH2 0x1AB0 JUMP JUMPDEST SWAP1 POP SWAP2 SWAP1 POP JUMP JUMPDEST PUSH32 0x416C726561647920756E7374616B656400000000000000000000000000000000 PUSH0 DUP3 ADD MSTORE POP JUMP JUMPDEST PUSH0 PUSH2 0x1B24 PUSH1 0x10 DUP4 PUSH2 0x15FB JUMP JUMPDEST SWAP2 POP PUSH2 0x1B2F DUP3 PUSH2 0x1AF0 JUMP JUMPDEST PUSH1 0x20 DUP3 ADD SWAP1 POP SWAP2 SWAP1 POP JUMP JUMPDEST PUSH0 PUSH1 0x20 DUP3 ADD SWAP1 POP DUP2 DUP2 SUB PUSH0 DUP4 ADD MSTORE PUSH2 0x1B51 DUP2 PUSH2 0x1B18 JUMP JUMPDEST SWAP1 POP SWAP2 SWAP1 POP JUMP JUMPDEST PUSH0 PUSH2 0x1B62 DUP3 PUSH2 0x111B JUMP JUMPDEST SWAP2 POP PUSH2 0x1B6D DUP4 PUSH2 0x111B JUMP JUMPDEST SWAP3 POP DUP3 DUP3 SUB SWAP1 POP DUP2 DUP2 GT ISZERO PUSH2 0x1B85 JUMPI PUSH2 0x1B84 PUSH2 0x196B JUMP JUMPDEST JUMPDEST SWAP3 SWAP2 POP POP JUMP JUMPDEST PUSH32 0x4E487B7100000000000000000000000000000000000000000000000000000000 PUSH0 MSTORE PUSH1 0x12 PUSH1 0x4 MSTORE PUSH1 0x24 PUSH0 REVERT JUMPDEST PUSH0 PUSH2 0x1BC2 DUP3 PUSH2 0x111B JUMP JUMPDEST SWAP2 POP PUSH2 0x1BCD DUP4 PUSH2 0x111B JUMP JUMPDEST SWAP3 POP DUP3 PUSH2 0x1BDD JUMPI PUSH2 0x1BDC PUSH2 0x1B8B JUMP JUMPDEST JUMPDEST DUP3 DUP3 DIV SWAP1 POP SWAP3 SWAP2 POP POP JUMP JUMPDEST PUSH32 0x5472616E73666572206661696C65640000000000000000000000000000000000 PUSH0 DUP3 ADD MSTORE POP JUMP JUMPDEST PUSH0 PUSH2 0x1C1C PUSH1 0xF DUP4 PUSH2 0x15FB JUMP JUMPDEST SWAP2 POP PUSH2 0x1C27 DUP3 PUSH2 0x1BE8 JUMP JUMPDEST PUSH1 0x20 DUP3 ADD SWAP1 POP SWAP2 SWAP1 POP JUMP JUMPDEST PUSH0 PUSH1 0x20 DUP3 ADD SWAP1 POP DUP2 DUP2 SUB PUSH0 DUP4 ADD MSTORE PUSH2 0x1C49 DUP2 PUSH2 0x1C10 JUMP JUMPDEST SWAP1 POP SWAP2 SWAP1 POP JUMP JUMPDEST PUSH0 PUSH1 0x40 DUP3 ADD SWAP1 POP PUSH2 0x1C63 PUSH0 DUP4 ADD DUP6 PUSH2 0x1124 JUMP JUMPDEST PUSH2 0x1C70 PUSH1 0x20 DUP4 ADD DUP5 PUSH2 0x1124 JUMP JUMPDEST SWAP4 SWAP3 POP POP POP JUMP JUMPDEST PUSH32 0x506F736974696F6E20636C6F7365640000000000000000000000000000000000 PUSH0 DUP3 ADD MSTORE POP JUMP JUMPDEST PUSH0 PUSH2 0x1CAB PUSH1 0xF DUP4 PUSH2 0x15FB JUMP JUMPDEST SWAP2 POP PUSH2 0x1CB6 DUP3 PUSH2 0x1C77 JUMP JUMPDEST PUSH1 0x20 DUP3 ADD SWAP1 POP SWAP2 SWAP1 POP JUMP JUMPDEST PUSH0 PUSH1 0x20 DUP3 ADD SWAP1 POP DUP2 DUP2 SUB PUSH0 DUP4 ADD MSTORE PUSH2 0x1CD8 DUP2 PUSH2 0x1C9F JUMP JUMPDEST SWAP1 POP SWAP2 SWAP1 POP JUMP INVALID LOG2 PUSH5 0x6970667358 0x22 SLT KECCAK256 CREATE2 PUSH27 0xB62DA2482D5C77002224E6175604D9C07D8FA4BF7C3A551FB28236 0xA6 0x1E 0xBB PUSH5 0x736F6C6343 STOP ADDMOD NOT STOP CALLER "
				},
				"gasEstimates": {
					"creation": {
						"codeDepositCost": "1489000",
						"executionCost": "infinite",
						"totalCost": "infinite"
					},
					"external": {
						"calculatePreDaysInterest(uint256)": "infinite",
						"currentPositionId()": "2449",
						"getAPY(uint256)": "infinite",
						"getPositionById(uint256)": "infinite",
						"getPositionIdsForAddress(address)": "infinite",
						"modifyStakingAPY(uint256,uint256)": "infinite",
						"nftUSDT()": "infinite",
						"owner()": "2594",
						"positionIdsByAddress(address,uint256)": "infinite",
						"positions(uint256)": "infinite",
						"stakeNFT(uint256,uint256,uint256)": "infinite",
						"stakingAPY(uint256)": "infinite",
						"unstakeNFT(uint256)": "infinite",
						"withdraw(uint256)": "infinite"
					},
					"internal": {
						"calculateInterest(uint256,uint256,uint256)": "infinite"
					}
				},
				"methodIdentifiers": {
					"calculatePreDaysInterest(uint256)": "c7d065bc",
					"currentPositionId()": "1131c8cd",
					"getAPY(uint256)": "eeee849b",
					"getPositionById(uint256)": "b838ec86",
					"getPositionIdsForAddress(address)": "40d98a44",
					"modifyStakingAPY(uint256,uint256)": "857224ee",
					"nftUSDT()": "9d0f8ca1",
					"owner()": "8da5cb5b",
					"positionIdsByAddress(address,uint256)": "45eae373",
					"positions(uint256)": "99fbab88",
					"stakeNFT(uint256,uint256,uint256)": "a7211ff8",
					"stakingAPY(uint256)": "875bb4e2",
					"unstakeNFT(uint256)": "c1dfa0bb",
					"withdraw(uint256)": "2e1a7d4d"
				}
			},
			"storageLayout": {
				"storage": [
					{
						"astId": 31,
						"contract": "contracts/st.sol:NFTStaking",
						"label": "owner",
						"offset": 0,
						"slot": "0",
						"type": "t_address"
					},
					{
						"astId": 34,
						"contract": "contracts/st.sol:NFTStaking",
						"label": "nftUSDT",
						"offset": 0,
						"slot": "1",
						"type": "t_contract(IERC20)29"
					},
					{
						"astId": 55,
						"contract": "contracts/st.sol:NFTStaking",
						"label": "currentPositionId",
						"offset": 0,
						"slot": "2",
						"type": "t_uint256"
					},
					{
						"astId": 60,
						"contract": "contracts/st.sol:NFTStaking",
						"label": "positions",
						"offset": 0,
						"slot": "3",
						"type": "t_mapping(t_uint256,t_struct(Position)53_storage)"
					},
					{
						"astId": 65,
						"contract": "contracts/st.sol:NFTStaking",
						"label": "positionIdsByAddress",
						"offset": 0,
						"slot": "4",
						"type": "t_mapping(t_address,t_array(t_uint256)dyn_storage)"
					},
					{
						"astId": 69,
						"contract": "contracts/st.sol:NFTStaking",
						"label": "stakingAPY",
						"offset": 0,
						"slot": "5",
						"type": "t_mapping(t_uint256,t_uint256)"
					}
				],
				"types": {
					"t_address": {
						"encoding": "inplace",
						"label": "address",
						"numberOfBytes": "20"
					},
					"t_array(t_uint256)dyn_storage": {
						"base": "t_uint256",
						"encoding": "dynamic_array",
						"label": "uint256[]",
						"numberOfBytes": "32"
					},
					"t_bool": {
						"encoding": "inplace",
						"label": "bool",
						"numberOfBytes": "1"
					},
					"t_contract(IERC20)29": {
						"encoding": "inplace",
						"label": "contract IERC20",
						"numberOfBytes": "20"
					},
					"t_mapping(t_address,t_array(t_uint256)dyn_storage)": {
						"encoding": "mapping",
						"key": "t_address",
						"label": "mapping(address => uint256[])",
						"numberOfBytes": "32",
						"value": "t_array(t_uint256)dyn_storage"
					},
					"t_mapping(t_uint256,t_struct(Position)53_storage)": {
						"encoding": "mapping",
						"key": "t_uint256",
						"label": "mapping(uint256 => struct NFTStaking.Position)",
						"numberOfBytes": "32",
						"value": "t_struct(Position)53_storage"
					},
					"t_mapping(t_uint256,t_uint256)": {
						"encoding": "mapping",
						"key": "t_uint256",
						"label": "mapping(uint256 => uint256)",
						"numberOfBytes": "32",
						"value": "t_uint256"
					},
					"t_struct(Position)53_storage": {
						"encoding": "inplace",
						"label": "struct NFTStaking.Position",
						"members": [
							{
								"astId": 36,
								"contract": "contracts/st.sol:NFTStaking",
								"label": "positionId",
								"offset": 0,
								"slot": "0",
								"type": "t_uint256"
							},
							{
								"astId": 38,
								"contract": "contracts/st.sol:NFTStaking",
								"label": "walletAddress",
								"offset": 0,
								"slot": "1",
								"type": "t_address"
							},
							{
								"astId": 40,
								"contract": "contracts/st.sol:NFTStaking",
								"label": "tokenId",
								"offset": 0,
								"slot": "2",
								"type": "t_uint256"
							},
							{
								"astId": 42,
								"contract": "contracts/st.sol:NFTStaking",
								"label": "createdDate",
								"offset": 0,
								"slot": "3",
								"type": "t_uint256"
							},
							{
								"astId": 44,
								"contract": "contracts/st.sol:NFTStaking",
								"label": "unlockDate",
								"offset": 0,
								"slot": "4",
								"type": "t_uint256"
							},
							{
								"astId": 46,
								"contract": "contracts/st.sol:NFTStaking",
								"label": "apy",
								"offset": 0,
								"slot": "5",
								"type": "t_uint256"
							},
							{
								"astId": 48,
								"contract": "contracts/st.sol:NFTStaking",
								"label": "amountStaked",
								"offset": 0,
								"slot": "6",
								"type": "t_uint256"
							},
							{
								"astId": 50,
								"contract": "contracts/st.sol:NFTStaking",
								"label": "totalInterest",
								"offset": 0,
								"slot": "7",
								"type": "t_uint256"
							},
							{
								"astId": 52,
								"contract": "contracts/st.sol:NFTStaking",
								"label": "open",
								"offset": 0,
								"slot": "8",
								"type": "t_bool"
							}
						],
						"numberOfBytes": "288"
					},
					"t_uint256": {
						"encoding": "inplace",
						"label": "uint256",
						"numberOfBytes": "32"
					}
				}
			},
			"userdoc": {
				"kind": "user",
				"methods": {},
				"version": 1
			}
		}
	}
}