{
	"contracts/kk.sol": {
		"MLMStakingUSDT": {
			"abi": [
				{
					"inputs": [
						{
							"internalType": "address",
							"name": "_usdtToken",
							"type": "address"
						}
					],
					"stateMutability": "nonpayable",
					"type": "constructor"
				},
				{
					"inputs": [
						{
							"internalType": "uint256",
							"name": "",
							"type": "uint256"
						}
					],
					"name": "allUsers",
					"outputs": [
						{
							"internalType": "address",
							"name": "",
							"type": "address"
						}
					],
					"stateMutability": "view",
					"type": "function"
				},
				{
					"inputs": [
						{
							"internalType": "address",
							"name": "",
							"type": "address"
						},
						{
							"internalType": "uint256",
							"name": "",
							"type": "uint256"
						}
					],
					"name": "directReferrals",
					"outputs": [
						{
							"internalType": "address",
							"name": "referralAddress",
							"type": "address"
						},
						{
							"internalType": "uint256",
							"name": "incomeEarned",
							"type": "uint256"
						},
						{
							"internalType": "uint256",
							"name": "timestamp",
							"type": "uint256"
						}
					],
					"stateMutability": "view",
					"type": "function"
				},
				{
					"inputs": [
						{
							"internalType": "address",
							"name": "user",
							"type": "address"
						}
					],
					"name": "getDirectReferralCount",
					"outputs": [
						{
							"internalType": "uint256",
							"name": "",
							"type": "uint256"
						}
					],
					"stateMutability": "view",
					"type": "function"
				},
				{
					"inputs": [
						{
							"internalType": "address",
							"name": "_user",
							"type": "address"
						}
					],
					"name": "getLevelIncomeDistribution",
					"outputs": [
						{
							"components": [
								{
									"internalType": "address",
									"name": "receiverAddress",
									"type": "address"
								},
								{
									"internalType": "uint256",
									"name": "stakeId",
									"type": "uint256"
								},
								{
									"internalType": "uint256",
									"name": "stakeAmount",
									"type": "uint256"
								},
								{
									"internalType": "uint256",
									"name": "incomeReceived",
									"type": "uint256"
								},
								{
									"internalType": "address",
									"name": "uplineAddress",
									"type": "address"
								},
								{
									"internalType": "uint256",
									"name": "timestamp",
									"type": "uint256"
								},
								{
									"internalType": "uint8",
									"name": "level",
									"type": "uint8"
								}
							],
							"internalType": "struct MLMStakingUSDT.LevelIncomeData[]",
							"name": "",
							"type": "tuple[]"
						}
					],
					"stateMutability": "view",
					"type": "function"
				},
				{
					"inputs": [
						{
							"internalType": "address",
							"name": "_user",
							"type": "address"
						}
					],
					"name": "getPositionIds",
					"outputs": [
						{
							"internalType": "uint256[]",
							"name": "",
							"type": "uint256[]"
						}
					],
					"stateMutability": "view",
					"type": "function"
				},
				{
					"inputs": [
						{
							"internalType": "address",
							"name": "user",
							"type": "address"
						}
					],
					"name": "getReferralIncomeDetails",
					"outputs": [
						{
							"internalType": "address[]",
							"name": "referralAddresses",
							"type": "address[]"
						},
						{
							"internalType": "uint256[]",
							"name": "incomes",
							"type": "uint256[]"
						},
						{
							"internalType": "uint256[]",
							"name": "timestamps",
							"type": "uint256[]"
						}
					],
					"stateMutability": "view",
					"type": "function"
				},
				{
					"inputs": [
						{
							"internalType": "uint256",
							"name": "_positionId",
							"type": "uint256"
						}
					],
					"name": "getStakeByPositionId",
					"outputs": [
						{
							"internalType": "address",
							"name": "user",
							"type": "address"
						},
						{
							"internalType": "uint256",
							"name": "stakeId",
							"type": "uint256"
						},
						{
							"internalType": "uint256",
							"name": "amount",
							"type": "uint256"
						},
						{
							"internalType": "uint256",
							"name": "timestamp",
							"type": "uint256"
						}
					],
					"stateMutability": "view",
					"type": "function"
				},
				{
					"inputs": [
						{
							"internalType": "address",
							"name": "user",
							"type": "address"
						}
					],
					"name": "getTotalIncome",
					"outputs": [
						{
							"internalType": "uint256",
							"name": "",
							"type": "uint256"
						}
					],
					"stateMutability": "view",
					"type": "function"
				},
				{
					"inputs": [
						{
							"internalType": "address",
							"name": "user",
							"type": "address"
						}
					],
					"name": "getTotalLevelIncome",
					"outputs": [
						{
							"internalType": "uint256",
							"name": "",
							"type": "uint256"
						}
					],
					"stateMutability": "view",
					"type": "function"
				},
				{
					"inputs": [],
					"name": "getTotalUsers",
					"outputs": [
						{
							"internalType": "uint256",
							"name": "",
							"type": "uint256"
						}
					],
					"stateMutability": "view",
					"type": "function"
				},
				{
					"inputs": [
						{
							"internalType": "address",
							"name": "user",
							"type": "address"
						}
					],
					"name": "getUserLevel",
					"outputs": [
						{
							"internalType": "uint8",
							"name": "",
							"type": "uint8"
						}
					],
					"stateMutability": "view",
					"type": "function"
				},
				{
					"inputs": [
						{
							"internalType": "uint256",
							"name": "",
							"type": "uint256"
						}
					],
					"name": "levelRewards",
					"outputs": [
						{
							"internalType": "uint8",
							"name": "",
							"type": "uint8"
						}
					],
					"stateMutability": "view",
					"type": "function"
				},
				{
					"inputs": [],
					"name": "owner",
					"outputs": [
						{
							"internalType": "address",
							"name": "",
							"type": "address"
						}
					],
					"stateMutability": "view",
					"type": "function"
				},
				{
					"inputs": [
						{
							"internalType": "uint256",
							"name": "",
							"type": "uint256"
						}
					],
					"name": "positionIdToUser",
					"outputs": [
						{
							"internalType": "address",
							"name": "",
							"type": "address"
						}
					],
					"stateMutability": "view",
					"type": "function"
				},
				{
					"inputs": [
						{
							"internalType": "address",
							"name": "referrer",
							"type": "address"
						}
					],
					"name": "register",
					"outputs": [],
					"stateMutability": "nonpayable",
					"type": "function"
				},
				{
					"inputs": [
						{
							"internalType": "uint256",
							"name": "amount",
							"type": "uint256"
						}
					],
					"name": "stake",
					"outputs": [],
					"stateMutability": "nonpayable",
					"type": "function"
				},
				{
					"inputs": [],
					"name": "stakeCounter",
					"outputs": [
						{
							"internalType": "uint256",
							"name": "",
							"type": "uint256"
						}
					],
					"stateMutability": "view",
					"type": "function"
				},
				{
					"inputs": [],
					"name": "usdtToken",
					"outputs": [
						{
							"internalType": "contract IERC20",
							"name": "",
							"type": "address"
						}
					],
					"stateMutability": "view",
					"type": "function"
				},
				{
					"inputs": [
						{
							"internalType": "address",
							"name": "",
							"type": "address"
						}
					],
					"name": "users",
					"outputs": [
						{
							"internalType": "address",
							"name": "referrer",
							"type": "address"
						},
						{
							"internalType": "uint256",
							"name": "totalIncome",
							"type": "uint256"
						},
						{
							"internalType": "uint256",
							"name": "levelIncome",
							"type": "uint256"
						}
					],
					"stateMutability": "view",
					"type": "function"
				},
				{
					"inputs": [
						{
							"internalType": "uint256",
							"name": "amount",
							"type": "uint256"
						}
					],
					"name": "withdrawUSDT",
					"outputs": [],
					"stateMutability": "nonpayable",
					"type": "function"
				}
			],
			"devdoc": {
				"kind": "dev",
				"methods": {},
				"version": 1
			},
			"evm": {
				"assembly": "    /* \"contracts/kk.sol\":1365:1404  uint8[] public levelRewards = [5, 3, 2] */\n  0xe0\n    /* \"contracts/kk.sol\":271:7873  contract MLMStakingUSDT {... */\n  0x40\n    /* \"contracts/kk.sol\":1365:1404  uint8[] public levelRewards = [5, 3, 2] */\n  mstore\n    /* \"contracts/kk.sol\":1396:1397  5 */\n  0x05\n    /* \"contracts/kk.sol\":271:7873  contract MLMStakingUSDT {... */\n  0x80\n    /* \"contracts/kk.sol\":1365:1404  uint8[] public levelRewards = [5, 3, 2] */\n  swap1\n  dup2\n  mstore\n    /* \"contracts/kk.sol\":1399:1400  3 */\n  0x03\n    /* \"contracts/kk.sol\":1365:1404  uint8[] public levelRewards = [5, 3, 2] */\n  0xa0\n  dup2\n  swap1\n  mstore\n    /* \"contracts/kk.sol\":1402:1403  2 */\n  0x02\n    /* \"contracts/kk.sol\":1365:1404  uint8[] public levelRewards = [5, 3, 2] */\n  0xc0\n  mstore\n  tag_1\n  swap2\n  0x07\n  swap2\n  tag_2\n  jump\t// in\ntag_1:\n  pop\n    /* \"contracts/kk.sol\":395:505  constructor(address _usdtToken) {... */\n  callvalue\n  dup1\n  iszero\n  tag_3\n  jumpi\n  0x00\n  dup1\n  revert\ntag_3:\n  pop\n  mload(0x40)\n  sub(codesize, bytecodeSize)\n  dup1\n  bytecodeSize\n  dup4\n  codecopy\n  dup2\n  add\n  0x40\n  dup2\n  swap1\n  mstore\n  tag_4\n  swap2\n  tag_5\n  jump\t// in\ntag_4:\n    /* \"contracts/kk.sol\":438:443  owner */\n  0x00\n    /* \"contracts/kk.sol\":438:456  owner = msg.sender */\n  dup1\n  sload\n    /* \"contracts/kk.sol\":446:456  msg.sender */\n  caller\n  not(sub(shl(0xa0, 0x01), 0x01))\n    /* \"contracts/kk.sol\":438:456  owner = msg.sender */\n  swap2\n  dup3\n  and\n  or\n  swap1\n  swap2\n  sstore\n    /* \"contracts/kk.sol\":467:476  usdtToken */\n  0x02\n    /* \"contracts/kk.sol\":467:497  usdtToken = IERC20(_usdtToken) */\n  dup1\n  sload\n  swap1\n  swap2\n  and\n  sub(shl(0xa0, 0x01), 0x01)\n  swap3\n  swap1\n  swap3\n  and\n  swap2\n  swap1\n  swap2\n  or\n  swap1\n  sstore\n    /* \"contracts/kk.sol\":271:7873  contract MLMStakingUSDT {... */\n  jump(tag_17)\ntag_2:\n  dup3\n  dup1\n  sload\n  dup3\n  dup3\n  sstore\n  swap1\n  0x00\n  mstore\n  keccak256(0x00, 0x20)\n  swap1\n  0x1f\n  add\n  0x20\n  swap1\n  div\n  dup2\n  add\n  swap3\n  dup3\n  iszero\n  tag_9\n  jumpi\n  swap2\n  0x20\n  mul\n  dup3\n  add\n  0x00\ntag_10:\n  dup4\n  dup3\n  gt\n  iszero\n  tag_11\n  jumpi\n  dup4\n  mload\n  dup4\n  dup3\n  0x0100\n  exp\n  dup2\n  sload\n  dup2\n  0xff\n  mul\n  not\n  and\n  swap1\n  dup4\n  0xff\n  and\n  mul\n  or\n  swap1\n  sstore\n  pop\n  swap3\n  0x20\n  add\n  swap3\n  0x01\n  add\n  0x20\n  dup2\n  0x00\n  add\n  div\n  swap3\n  dup4\n  add\n  swap3\n  0x01\n  sub\n  mul\n  jump(tag_10)\ntag_11:\n  dup1\n  iszero\n  tag_12\n  jumpi\n  dup3\n  dup2\n  0x0100\n  exp\n  dup2\n  sload\n  swap1\n  0xff\n  mul\n  not\n  and\n  swap1\n  sstore\n  0x01\n  add\n  0x20\n  dup2\n  0x00\n  add\n  div\n  swap3\n  dup4\n  add\n  swap3\n  0x01\n  sub\n  mul\n  jump(tag_11)\ntag_12:\n  pop\ntag_9:\n  pop\n  tag_13\n  swap3\n  swap2\n  pop\n  tag_14\n  jump\t// in\ntag_13:\n  pop\n  swap1\n  jump\t// out\ntag_14:\ntag_15:\n  dup1\n  dup3\n  gt\n  iszero\n  tag_13\n  jumpi\n  0x00\n  dup2\n  sstore\n  0x01\n  add\n  jump(tag_15)\n    /* \"#utility.yul\":14:304   */\ntag_5:\n    /* \"#utility.yul\":84:90   */\n  0x00\n    /* \"#utility.yul\":137:139   */\n  0x20\n    /* \"#utility.yul\":125:134   */\n  dup3\n    /* \"#utility.yul\":116:123   */\n  dup5\n    /* \"#utility.yul\":112:135   */\n  sub\n    /* \"#utility.yul\":108:140   */\n  slt\n    /* \"#utility.yul\":105:157   */\n  iszero\n  tag_19\n  jumpi\n    /* \"#utility.yul\":153:154   */\n  0x00\n    /* \"#utility.yul\":150:151   */\n  dup1\n    /* \"#utility.yul\":143:155   */\n  revert\n    /* \"#utility.yul\":105:157   */\ntag_19:\n    /* \"#utility.yul\":179:195   */\n  dup2\n  mload\n  sub(shl(0xa0, 0x01), 0x01)\n    /* \"#utility.yul\":224:255   */\n  dup2\n  and\n    /* \"#utility.yul\":214:256   */\n  dup2\n  eq\n    /* \"#utility.yul\":204:274   */\n  tag_20\n  jumpi\n    /* \"#utility.yul\":270:271   */\n  0x00\n    /* \"#utility.yul\":267:268   */\n  dup1\n    /* \"#utility.yul\":260:272   */\n  revert\n    /* \"#utility.yul\":204:274   */\ntag_20:\n    /* \"#utility.yul\":293:298   */\n  swap4\n    /* \"#utility.yul\":14:304   */\n  swap3\n  pop\n  pop\n  pop\n  jump\t// out\ntag_17:\n    /* \"contracts/kk.sol\":271:7873  contract MLMStakingUSDT {... */\n  dataSize(sub_0)\n  dup1\n  dataOffset(sub_0)\n  0x00\n  codecopy\n  0x00\n  return\nstop\n\nsub_0: assembly {\n        /* \"contracts/kk.sol\":271:7873  contract MLMStakingUSDT {... */\n      mstore(0x40, 0x80)\n      callvalue\n      dup1\n      iszero\n      tag_1\n      jumpi\n      0x00\n      dup1\n      revert\n    tag_1:\n      pop\n      jumpi(tag_2, lt(calldatasize, 0x04))\n      shr(0xe0, calldataload(0x00))\n      dup1\n      0x9d747bad\n      gt\n      tag_23\n      jumpi\n      dup1\n      0xc2d3c677\n      gt\n      tag_24\n      jumpi\n      dup1\n      0xc2d3c677\n      eq\n      tag_18\n      jumpi\n      dup1\n      0xc5b89c0a\n      eq\n      tag_19\n      jumpi\n      dup1\n      0xe45a57d0\n      eq\n      tag_20\n      jumpi\n      dup1\n      0xef71ae56\n      eq\n      tag_21\n      jumpi\n      dup1\n      0xf7b17d10\n      eq\n      tag_22\n      jumpi\n      0x00\n      dup1\n      revert\n    tag_24:\n      dup1\n      0x9d747bad\n      eq\n      tag_13\n      jumpi\n      dup1\n      0xa2bdedf4\n      eq\n      tag_14\n      jumpi\n      dup1\n      0xa694fc3a\n      eq\n      tag_15\n      jumpi\n      dup1\n      0xa87430ba\n      eq\n      tag_16\n      jumpi\n      dup1\n      0xa98ad46c\n      eq\n      tag_17\n      jumpi\n      0x00\n      dup1\n      revert\n    tag_23:\n      dup1\n      0x4420e486\n      gt\n      tag_25\n      jumpi\n      dup1\n      0x4420e486\n      eq\n      tag_8\n      jumpi\n      dup1\n      0x797c7f5f\n      eq\n      tag_9\n      jumpi\n      dup1\n      0x8da5cb5b\n      eq\n      tag_10\n      jumpi\n      dup1\n      0x98278efb\n      eq\n      tag_11\n      jumpi\n      dup1\n      0x9be572f6\n      eq\n      tag_12\n      jumpi\n      0x00\n      dup1\n      revert\n    tag_25:\n      dup1\n      0x05ad3935\n      eq\n      tag_3\n      jumpi\n      dup1\n      0x1e43eb27\n      eq\n      tag_4\n      jumpi\n      dup1\n      0x21923bde\n      eq\n      tag_5\n      jumpi\n      dup1\n      0x28fe7031\n      eq\n      tag_6\n      jumpi\n      dup1\n      0x3ea521ef\n      eq\n      tag_7\n      jumpi\n    tag_2:\n      0x00\n      dup1\n      revert\n        /* \"contracts/kk.sol\":1207:1264  mapping(address => ReferralInfo[]) public directReferrals */\n    tag_3:\n      tag_26\n      tag_27\n      calldatasize\n      0x04\n      tag_28\n      jump\t// in\n    tag_27:\n      tag_29\n      jump\t// in\n    tag_26:\n      0x40\n      dup1\n      mload\n      sub(shl(0xa0, 0x01), 0x01)\n        /* \"#utility.yul\":671:703   */\n      swap1\n      swap5\n      and\n        /* \"#utility.yul\":653:704   */\n      dup5\n      mstore\n        /* \"#utility.yul\":735:737   */\n      0x20\n        /* \"#utility.yul\":720:738   */\n      dup5\n      add\n        /* \"#utility.yul\":713:747   */\n      swap3\n      swap1\n      swap3\n      mstore\n        /* \"#utility.yul\":763:781   */\n      swap1\n      dup3\n      add\n        /* \"#utility.yul\":756:790   */\n      mstore\n        /* \"#utility.yul\":641:643   */\n      0x60\n        /* \"#utility.yul\":626:644   */\n      add\n        /* \"contracts/kk.sol\":1207:1264  mapping(address => ReferralInfo[]) public directReferrals */\n    tag_30:\n      mload(0x40)\n      dup1\n      swap2\n      sub\n      swap1\n      return\n        /* \"contracts/kk.sol\":1271:1322  mapping(uint256 => address) public positionIdToUser */\n    tag_4:\n      tag_32\n      tag_33\n      calldatasize\n      0x04\n      tag_34\n      jump\t// in\n    tag_33:\n      mstore(0x20, 0x05)\n      0x00\n      swap1\n      dup2\n      mstore\n      0x40\n      swap1\n      keccak256\n      sload\n      sub(shl(0xa0, 0x01), 0x01)\n      and\n      dup2\n      jump\n    tag_32:\n      mload(0x40)\n      sub(shl(0xa0, 0x01), 0x01)\n        /* \"#utility.yul\":1150:1182   */\n      swap1\n      swap2\n      and\n        /* \"#utility.yul\":1132:1183   */\n      dup2\n      mstore\n        /* \"#utility.yul\":1120:1122   */\n      0x20\n        /* \"#utility.yul\":1105:1123   */\n      add\n        /* \"contracts/kk.sol\":1271:1322  mapping(uint256 => address) public positionIdToUser */\n      tag_30\n        /* \"#utility.yul\":986:1189   */\n      jump\n        /* \"contracts/kk.sol\":5395:5649  function getUserLevel(address user) external view returns (uint8) {... */\n    tag_5:\n      tag_38\n      tag_39\n      calldatasize\n      0x04\n      tag_40\n      jump\t// in\n    tag_39:\n      tag_41\n      jump\t// in\n    tag_38:\n      mload(0x40)\n        /* \"#utility.yul\":1557:1561   */\n      0xff\n        /* \"#utility.yul\":1545:1562   */\n      swap1\n      swap2\n      and\n        /* \"#utility.yul\":1527:1563   */\n      dup2\n      mstore\n        /* \"#utility.yul\":1515:1517   */\n      0x20\n        /* \"#utility.yul\":1500:1518   */\n      add\n        /* \"contracts/kk.sol\":5395:5649  function getUserLevel(address user) external view returns (uint8) {... */\n      tag_30\n        /* \"#utility.yul\":1385:1569   */\n      jump\n        /* \"contracts/kk.sol\":3926:4261  function getPositionIds(address _user) external view returns (uint256[] memory) {... */\n    tag_6:\n      tag_44\n      tag_45\n      calldatasize\n      0x04\n      tag_40\n      jump\t// in\n    tag_45:\n      tag_46\n      jump\t// in\n    tag_44:\n      mload(0x40)\n      tag_30\n      swap2\n      swap1\n      tag_48\n      jump\t// in\n        /* \"contracts/kk.sol\":7599:7764  function withdrawUSDT(uint256 amount) external {... */\n    tag_7:\n      tag_49\n      tag_50\n      calldatasize\n      0x04\n      tag_34\n      jump\t// in\n    tag_50:\n      tag_51\n      jump\t// in\n    tag_49:\n      stop\n        /* \"contracts/kk.sol\":1451:1922  function register(address referrer) external {... */\n    tag_8:\n      tag_49\n      tag_53\n      calldatasize\n      0x04\n      tag_40\n      jump\t// in\n    tag_53:\n      tag_54\n      jump\t// in\n        /* \"contracts/kk.sol\":3276:3918  function getStakeByPositionId(uint256 _positionId) external view returns (... */\n    tag_9:\n      tag_55\n      tag_56\n      calldatasize\n      0x04\n      tag_34\n      jump\t// in\n    tag_56:\n      tag_57\n      jump\t// in\n    tag_55:\n      0x40\n      dup1\n      mload\n      sub(shl(0xa0, 0x01), 0x01)\n        /* \"#utility.yul\":2529:2561   */\n      swap1\n      swap6\n      and\n        /* \"#utility.yul\":2511:2562   */\n      dup6\n      mstore\n        /* \"#utility.yul\":2593:2595   */\n      0x20\n        /* \"#utility.yul\":2578:2596   */\n      dup6\n      add\n        /* \"#utility.yul\":2571:2605   */\n      swap4\n      swap1\n      swap4\n      mstore\n        /* \"#utility.yul\":2621:2639   */\n      swap2\n      dup4\n      add\n        /* \"#utility.yul\":2614:2648   */\n      mstore\n        /* \"#utility.yul\":2679:2681   */\n      0x60\n        /* \"#utility.yul\":2664:2682   */\n      dup3\n      add\n        /* \"#utility.yul\":2657:2691   */\n      mstore\n        /* \"#utility.yul\":2498:2501   */\n      0x80\n        /* \"#utility.yul\":2483:2502   */\n      add\n        /* \"contracts/kk.sol\":3276:3918  function getStakeByPositionId(uint256 _positionId) external view returns (... */\n      tag_30\n        /* \"#utility.yul\":2280:2697   */\n      jump\n        /* \"contracts/kk.sol\":302:322  address public owner */\n    tag_10:\n      sload(0x00)\n      tag_32\n      swap1\n      sub(shl(0xa0, 0x01), 0x01)\n      and\n      dup2\n      jump\n        /* \"contracts/kk.sol\":4269:4401  function getDirectReferralCount(address user) external view returns (uint256) {... */\n    tag_11:\n      tag_63\n      tag_64\n      calldatasize\n      0x04\n      tag_40\n      jump\t// in\n    tag_64:\n      sub(shl(0xa0, 0x01), 0x01)\n        /* \"contracts/kk.sol\":4365:4386  directReferrals[user] */\n      and\n        /* \"contracts/kk.sol\":4338:4345  uint256 */\n      0x00\n        /* \"contracts/kk.sol\":4365:4386  directReferrals[user] */\n      swap1\n      dup2\n      mstore\n        /* \"contracts/kk.sol\":4365:4380  directReferrals */\n      0x04\n        /* \"contracts/kk.sol\":4365:4386  directReferrals[user] */\n      0x20\n      mstore\n      0x40\n      swap1\n      keccak256\n        /* \"contracts/kk.sol\":4365:4393  directReferrals[user].length */\n      sload\n      swap1\n        /* \"contracts/kk.sol\":4269:4401  function getDirectReferralCount(address user) external view returns (uint256) {... */\n      jump\n    tag_63:\n      mload(0x40)\n        /* \"#utility.yul\":2848:2873   */\n      swap1\n      dup2\n      mstore\n        /* \"#utility.yul\":2836:2838   */\n      0x20\n        /* \"#utility.yul\":2821:2839   */\n      add\n        /* \"contracts/kk.sol\":4269:4401  function getDirectReferralCount(address user) external view returns (uint256) {... */\n      tag_30\n        /* \"#utility.yul\":2702:2879   */\n      jump\n        /* \"contracts/kk.sol\":7772:7870  function getTotalUsers() external view returns (uint256) {... */\n    tag_12:\n        /* \"contracts/kk.sol\":7847:7855  allUsers */\n      0x06\n        /* \"contracts/kk.sol\":7847:7862  allUsers.length */\n      sload\n        /* \"contracts/kk.sol\":7772:7870  function getTotalUsers() external view returns (uint256) {... */\n      jump(tag_63)\n        /* \"contracts/kk.sol\":4409:5128  function getReferralIncomeDetails(address user) external view returns (... */\n    tag_13:\n      tag_71\n      tag_72\n      calldatasize\n      0x04\n      tag_40\n      jump\t// in\n    tag_72:\n      tag_73\n      jump\t// in\n    tag_71:\n      mload(0x40)\n      tag_30\n      swap4\n      swap3\n      swap2\n      swap1\n      tag_75\n      jump\t// in\n        /* \"contracts/kk.sol\":1329:1354  address[] public allUsers */\n    tag_14:\n      tag_32\n      tag_77\n      calldatasize\n      0x04\n      tag_34\n      jump\t// in\n    tag_77:\n      tag_78\n      jump\t// in\n        /* \"contracts/kk.sol\":1930:3268  function stake(uint256 amount) external {... */\n    tag_15:\n      tag_49\n      tag_81\n      calldatasize\n      0x04\n      tag_34\n      jump\t// in\n    tag_81:\n      tag_82\n      jump\t// in\n        /* \"contracts/kk.sol\":1163:1200  mapping(address => User) public users */\n    tag_16:\n      tag_26\n      tag_84\n      calldatasize\n      0x04\n      tag_40\n      jump\t// in\n    tag_84:\n      0x03\n      0x20\n      dup2\n      swap1\n      mstore\n      0x00\n      swap2\n      dup3\n      mstore\n      0x40\n      swap1\n      swap2\n      keccak256\n      dup1\n      sload\n      0x02\n      dup3\n      add\n      sload\n      swap2\n      swap1\n      swap3\n      add\n      sload\n      sub(shl(0xa0, 0x01), 0x01)\n      swap1\n      swap3\n      and\n      swap2\n      dup4\n      jump\n        /* \"contracts/kk.sol\":363:386  IERC20 public usdtToken */\n    tag_17:\n      sload(0x02)\n      tag_32\n      swap1\n      sub(shl(0xa0, 0x01), 0x01)\n      and\n      dup2\n      jump\n        /* \"contracts/kk.sol\":5136:5255  function getTotalIncome(address user) external view returns (uint256) {... */\n    tag_18:\n      tag_63\n      tag_92\n      calldatasize\n      0x04\n      tag_40\n      jump\t// in\n    tag_92:\n      sub(shl(0xa0, 0x01), 0x01)\n        /* \"contracts/kk.sol\":5224:5235  users[user] */\n      and\n        /* \"contracts/kk.sol\":5197:5204  uint256 */\n      0x00\n        /* \"contracts/kk.sol\":5224:5235  users[user] */\n      swap1\n      dup2\n      mstore\n        /* \"contracts/kk.sol\":5224:5229  users */\n      0x03\n        /* \"contracts/kk.sol\":5224:5235  users[user] */\n      0x20\n      mstore\n      0x40\n      swap1\n      keccak256\n        /* \"contracts/kk.sol\":5224:5247  users[user].totalIncome */\n      0x02\n      add\n      sload\n      swap1\n        /* \"contracts/kk.sol\":5136:5255  function getTotalIncome(address user) external view returns (uint256) {... */\n      jump\n        /* \"contracts/kk.sol\":5263:5387  function getTotalLevelIncome(address user) external view returns (uint256) {... */\n    tag_19:\n      tag_63\n      tag_96\n      calldatasize\n      0x04\n      tag_40\n      jump\t// in\n    tag_96:\n      sub(shl(0xa0, 0x01), 0x01)\n        /* \"contracts/kk.sol\":5356:5367  users[user] */\n      and\n        /* \"contracts/kk.sol\":5329:5336  uint256 */\n      0x00\n        /* \"contracts/kk.sol\":5356:5367  users[user] */\n      swap1\n      dup2\n      mstore\n        /* \"contracts/kk.sol\":5356:5361  users */\n      0x03\n        /* \"contracts/kk.sol\":5356:5367  users[user] */\n      0x20\n      dup2\n      swap1\n      mstore\n      0x40\n      swap1\n      swap2\n      keccak256\n        /* \"contracts/kk.sol\":5356:5379  users[user].levelIncome */\n      add\n      sload\n      swap1\n        /* \"contracts/kk.sol\":5263:5387  function getTotalLevelIncome(address user) external view returns (uint256) {... */\n      jump\n        /* \"contracts/kk.sol\":1365:1404  uint8[] public levelRewards = [5, 3, 2] */\n    tag_20:\n      tag_38\n      tag_100\n      calldatasize\n      0x04\n      tag_34\n      jump\t// in\n    tag_100:\n      tag_101\n      jump\t// in\n        /* \"contracts/kk.sol\":5657:7591  function getLevelIncomeDistribution(address _user) external view returns (LevelIncomeData[] memory) {... */\n    tag_21:\n      tag_103\n      tag_104\n      calldatasize\n      0x04\n      tag_40\n      jump\t// in\n    tag_104:\n      tag_105\n      jump\t// in\n    tag_103:\n      mload(0x40)\n      tag_30\n      swap2\n      swap1\n      tag_107\n      jump\t// in\n        /* \"contracts/kk.sol\":329:356  uint256 public stakeCounter */\n    tag_22:\n      tag_63\n      sload(0x01)\n      dup2\n      jump\n        /* \"contracts/kk.sol\":1207:1264  mapping(address => ReferralInfo[]) public directReferrals */\n    tag_29:\n      mstore(0x20, 0x04)\n      dup2\n      0x00\n      mstore\n      keccak256(0x00, 0x40)\n      dup2\n      dup2\n      sload\n      dup2\n      lt\n      tag_111\n      jumpi\n      0x00\n      dup1\n      revert\n    tag_111:\n      0x00\n      swap2\n      dup3\n      mstore\n      0x20\n      swap1\n      swap2\n      keccak256\n      0x03\n      swap1\n      swap2\n      mul\n      add\n      dup1\n      sload\n      0x01\n      dup3\n      add\n      sload\n      0x02\n      swap1\n      swap3\n      add\n      sload\n      sub(shl(0xa0, 0x01), 0x01)\n      swap1\n      swap2\n      and\n      swap4\n      pop\n      swap1\n      swap2\n      pop\n      dup4\n      jump\t// out\n        /* \"contracts/kk.sol\":5395:5649  function getUserLevel(address user) external view returns (uint8) {... */\n    tag_41:\n      sub(shl(0xa0, 0x01), 0x01)\n        /* \"contracts/kk.sol\":5488:5509  directReferrals[user] */\n      dup2\n      and\n        /* \"contracts/kk.sol\":5454:5459  uint8 */\n      0x00\n        /* \"contracts/kk.sol\":5488:5509  directReferrals[user] */\n      swap1\n      dup2\n      mstore\n        /* \"contracts/kk.sol\":5488:5503  directReferrals */\n      0x04\n        /* \"contracts/kk.sol\":5488:5509  directReferrals[user] */\n      0x20\n      mstore\n      0x40\n      dup2\n      keccak256\n        /* \"contracts/kk.sol\":5488:5516  directReferrals[user].length */\n      sload\n        /* \"contracts/kk.sol\":5540:5542  10 */\n      0x0a\n        /* \"contracts/kk.sol\":5531:5542  count >= 10 */\n      dup2\n      lt\n        /* \"contracts/kk.sol\":5527:5552  if (count >= 10) return 3 */\n      tag_114\n      jumpi\n      pop\n        /* \"contracts/kk.sol\":5551:5552  3 */\n      0x03\n      swap3\n        /* \"contracts/kk.sol\":5395:5649  function getUserLevel(address user) external view returns (uint8) {... */\n      swap2\n      pop\n      pop\n      jump\t// out\n        /* \"contracts/kk.sol\":5527:5552  if (count >= 10) return 3 */\n    tag_114:\n        /* \"contracts/kk.sol\":5576:5577  5 */\n      0x05\n        /* \"contracts/kk.sol\":5567:5572  count */\n      dup2\n        /* \"contracts/kk.sol\":5567:5577  count >= 5 */\n      lt\n        /* \"contracts/kk.sol\":5563:5587  if (count >= 5) return 2 */\n      tag_115\n      jumpi\n      pop\n        /* \"contracts/kk.sol\":5586:5587  2 */\n      0x02\n      swap3\n        /* \"contracts/kk.sol\":5395:5649  function getUserLevel(address user) external view returns (uint8) {... */\n      swap2\n      pop\n      pop\n      jump\t// out\n        /* \"contracts/kk.sol\":5563:5587  if (count >= 5) return 2 */\n    tag_115:\n        /* \"contracts/kk.sol\":5611:5612  1 */\n      0x01\n        /* \"contracts/kk.sol\":5602:5607  count */\n      dup2\n        /* \"contracts/kk.sol\":5602:5612  count >= 1 */\n      lt\n        /* \"contracts/kk.sol\":5598:5622  if (count >= 1) return 1 */\n      tag_116\n      jumpi\n      pop\n        /* \"contracts/kk.sol\":5621:5622  1 */\n      0x01\n      swap3\n        /* \"contracts/kk.sol\":5395:5649  function getUserLevel(address user) external view returns (uint8) {... */\n      swap2\n      pop\n      pop\n      jump\t// out\n        /* \"contracts/kk.sol\":5598:5622  if (count >= 1) return 1 */\n    tag_116:\n      pop\n        /* \"contracts/kk.sol\":5640:5641  0 */\n      0x00\n      swap3\n        /* \"contracts/kk.sol\":5395:5649  function getUserLevel(address user) external view returns (uint8) {... */\n      swap2\n      pop\n      pop\n      jump\t// out\n        /* \"contracts/kk.sol\":3926:4261  function getPositionIds(address _user) external view returns (uint256[] memory) {... */\n    tag_46:\n      sub(shl(0xa0, 0x01), 0x01)\n        /* \"contracts/kk.sol\":4033:4045  users[_user] */\n      dup2\n      and\n        /* \"contracts/kk.sol\":4017:4030  uint256 count */\n      0x00\n        /* \"contracts/kk.sol\":4033:4045  users[_user] */\n      swap1\n      dup2\n      mstore\n        /* \"contracts/kk.sol\":4033:4038  users */\n      0x03\n        /* \"contracts/kk.sol\":4033:4045  users[_user] */\n      0x20\n      mstore\n      0x40\n      dup2\n      keccak256\n        /* \"contracts/kk.sol\":4033:4052  users[_user].stakes */\n      0x01\n      add\n        /* \"contracts/kk.sol\":4033:4059  users[_user].stakes.length */\n      sload\n        /* \"contracts/kk.sol\":3988:4004  uint256[] memory */\n      0x60\n      swap2\n        /* \"contracts/kk.sol\":4033:4059  users[_user].stakes.length */\n      dup2\n        /* \"contracts/kk.sol\":4093:4113  new uint256[](count) */\n      0xffffffffffffffff\n      dup2\n      gt\n      iszero\n      tag_119\n      jumpi\n      tag_119\n      tag_120\n      jump\t// in\n    tag_119:\n      mload(0x40)\n      swap1\n      dup1\n      dup3\n      mstore\n      dup1\n      0x20\n      mul\n      0x20\n      add\n      dup3\n      add\n      0x40\n      mstore\n      dup1\n      iszero\n      tag_121\n      jumpi\n      dup2\n      0x20\n      add\n      0x20\n      dup3\n      mul\n      dup1\n      calldatasize\n      dup4\n      calldatacopy\n      add\n      swap1\n      pop\n    tag_121:\n      pop\n        /* \"contracts/kk.sol\":4070:4113  uint256[] memory ids = new uint256[](count) */\n      swap1\n      pop\n        /* \"contracts/kk.sol\":4131:4140  uint256 i */\n      0x00\n        /* \"contracts/kk.sol\":4126:4231  for (uint256 i = 0; i < count; i++) {... */\n    tag_122:\n        /* \"contracts/kk.sol\":4150:4155  count */\n      dup3\n        /* \"contracts/kk.sol\":4146:4147  i */\n      dup2\n        /* \"contracts/kk.sol\":4146:4155  i < count */\n      lt\n        /* \"contracts/kk.sol\":4126:4231  for (uint256 i = 0; i < count; i++) {... */\n      iszero\n      tag_123\n      jumpi\n      sub(shl(0xa0, 0x01), 0x01)\n        /* \"contracts/kk.sol\":4186:4198  users[_user] */\n      dup6\n      and\n      0x00\n      swap1\n      dup2\n      mstore\n        /* \"contracts/kk.sol\":4186:4191  users */\n      0x03\n        /* \"contracts/kk.sol\":4186:4198  users[_user] */\n      0x20\n      mstore\n      0x40\n      swap1\n      keccak256\n        /* \"contracts/kk.sol\":4186:4205  users[_user].stakes */\n      0x01\n      add\n        /* \"contracts/kk.sol\":4186:4208  users[_user].stakes[i] */\n      dup1\n      sload\n        /* \"contracts/kk.sol\":4206:4207  i */\n      dup3\n      swap1\n        /* \"contracts/kk.sol\":4186:4208  users[_user].stakes[i] */\n      dup2\n      lt\n      tag_126\n      jumpi\n      tag_126\n      tag_127\n      jump\t// in\n    tag_126:\n      swap1\n      0x00\n      mstore\n      keccak256(0x00, 0x20)\n      swap1\n      0x04\n      mul\n      add\n        /* \"contracts/kk.sol\":4186:4219  users[_user].stakes[i].positionId */\n      0x01\n      add\n      sload\n        /* \"contracts/kk.sol\":4177:4180  ids */\n      dup3\n        /* \"contracts/kk.sol\":4181:4182  i */\n      dup3\n        /* \"contracts/kk.sol\":4177:4183  ids[i] */\n      dup2\n      mload\n      dup2\n      lt\n      tag_130\n      jumpi\n      tag_130\n      tag_127\n      jump\t// in\n    tag_130:\n      0x20\n      swap1\n      dup2\n      mul\n      swap2\n      swap1\n      swap2\n      add\n      add\n        /* \"contracts/kk.sol\":4177:4219  ids[i] = users[_user].stakes[i].positionId */\n      mstore\n        /* \"contracts/kk.sol\":4157:4160  i++ */\n      dup1\n      tag_131\n      dup2\n      tag_132\n      jump\t// in\n    tag_131:\n      swap2\n      pop\n      pop\n        /* \"contracts/kk.sol\":4126:4231  for (uint256 i = 0; i < count; i++) {... */\n      jump(tag_122)\n    tag_123:\n      pop\n        /* \"contracts/kk.sol\":4250:4253  ids */\n      swap4\n        /* \"contracts/kk.sol\":3926:4261  function getPositionIds(address _user) external view returns (uint256[] memory) {... */\n      swap3\n      pop\n      pop\n      pop\n      jump\t// out\n        /* \"contracts/kk.sol\":7599:7764  function withdrawUSDT(uint256 amount) external {... */\n    tag_51:\n        /* \"contracts/kk.sol\":7679:7684  owner */\n      and(sub(shl(0xa0, 0x01), 0x01), sload(0x00))\n        /* \"contracts/kk.sol\":7665:7675  msg.sender */\n      caller\n        /* \"contracts/kk.sol\":7665:7684  msg.sender == owner */\n      eq\n        /* \"contracts/kk.sol\":7657:7712  require(msg.sender == owner, \"Only owner can withdraw\") */\n      tag_134\n      jumpi\n      mload(0x40)\n      shl(0xe5, 0x461bcd)\n      dup2\n      mstore\n        /* \"#utility.yul\":6136:6138   */\n      0x20\n        /* \"contracts/kk.sol\":7657:7712  require(msg.sender == owner, \"Only owner can withdraw\") */\n      0x04\n      dup3\n      add\n        /* \"#utility.yul\":6118:6139   */\n      mstore\n        /* \"#utility.yul\":6175:6177   */\n      0x17\n        /* \"#utility.yul\":6155:6173   */\n      0x24\n      dup3\n      add\n        /* \"#utility.yul\":6148:6178   */\n      mstore\n        /* \"#utility.yul\":6214:6239   */\n      0x4f6e6c79206f776e65722063616e207769746864726177000000000000000000\n        /* \"#utility.yul\":6194:6212   */\n      0x44\n      dup3\n      add\n        /* \"#utility.yul\":6187:6240   */\n      mstore\n        /* \"#utility.yul\":6257:6275   */\n      0x64\n      add\n        /* \"contracts/kk.sol\":7657:7712  require(msg.sender == owner, \"Only owner can withdraw\") */\n    tag_135:\n      mload(0x40)\n      dup1\n      swap2\n      sub\n      swap1\n      revert\n    tag_134:\n        /* \"contracts/kk.sol\":7723:7732  usdtToken */\n      sload(0x02)\n      0x00\n        /* \"contracts/kk.sol\":7742:7747  owner */\n      sload\n        /* \"contracts/kk.sol\":7723:7756  usdtToken.transfer(owner, amount) */\n      mload(0x40)\n      shl(0xe0, 0xa9059cbb)\n      dup2\n      mstore\n      sub(shl(0xa0, 0x01), 0x01)\n        /* \"contracts/kk.sol\":7742:7747  owner */\n      swap2\n      dup3\n      and\n        /* \"contracts/kk.sol\":7723:7756  usdtToken.transfer(owner, amount) */\n      0x04\n      dup3\n      add\n        /* \"#utility.yul\":6460:6511   */\n      mstore\n        /* \"#utility.yul\":6527:6545   */\n      0x24\n      dup2\n      add\n        /* \"#utility.yul\":6520:6554   */\n      dup5\n      swap1\n      mstore\n        /* \"contracts/kk.sol\":7723:7732  usdtToken */\n      swap2\n      and\n      swap1\n        /* \"contracts/kk.sol\":7723:7741  usdtToken.transfer */\n      0xa9059cbb\n      swap1\n        /* \"#utility.yul\":6433:6451   */\n      0x44\n      add\n        /* \"contracts/kk.sol\":7723:7756  usdtToken.transfer(owner, amount) */\n      0x20\n      mload(0x40)\n      dup1\n      dup4\n      sub\n      dup2\n      0x00\n      dup8\n      gas\n      call\n      iszero\n      dup1\n      iszero\n      tag_140\n      jumpi\n      returndatasize\n      0x00\n      dup1\n      returndatacopy\n      revert(0x00, returndatasize)\n    tag_140:\n      pop\n      pop\n      pop\n      pop\n      mload(0x40)\n      returndatasize\n      not(0x1f)\n      0x1f\n      dup3\n      add\n      and\n      dup3\n      add\n      dup1\n      0x40\n      mstore\n      pop\n      dup2\n      add\n      swap1\n      tag_141\n      swap2\n      swap1\n      tag_142\n      jump\t// in\n    tag_141:\n      pop\n        /* \"contracts/kk.sol\":7599:7764  function withdrawUSDT(uint256 amount) external {... */\n      pop\n      jump\t// out\n        /* \"contracts/kk.sol\":1451:1922  function register(address referrer) external {... */\n    tag_54:\n        /* \"contracts/kk.sol\":1521:1531  msg.sender */\n      caller\n        /* \"contracts/kk.sol\":1553:1554  0 */\n      0x00\n        /* \"contracts/kk.sol\":1515:1532  users[msg.sender] */\n      swap1\n      dup2\n      mstore\n        /* \"contracts/kk.sol\":1515:1520  users */\n      0x03\n        /* \"contracts/kk.sol\":1515:1532  users[msg.sender] */\n      0x20\n      mstore\n      0x40\n      swap1\n      keccak256\n        /* \"contracts/kk.sol\":1515:1541  users[msg.sender].referrer */\n      sload\n      sub(shl(0xa0, 0x01), 0x01)\n      and\n        /* \"contracts/kk.sol\":1515:1555  users[msg.sender].referrer == address(0) */\n      iszero\n        /* \"contracts/kk.sol\":1507:1578  require(users[msg.sender].referrer == address(0), \"Already registered\") */\n      tag_144\n      jumpi\n      mload(0x40)\n      shl(0xe5, 0x461bcd)\n      dup2\n      mstore\n        /* \"#utility.yul\":7049:7051   */\n      0x20\n        /* \"contracts/kk.sol\":1507:1578  require(users[msg.sender].referrer == address(0), \"Already registered\") */\n      0x04\n      dup3\n      add\n        /* \"#utility.yul\":7031:7052   */\n      mstore\n        /* \"#utility.yul\":7088:7090   */\n      0x12\n        /* \"#utility.yul\":7068:7086   */\n      0x24\n      dup3\n      add\n        /* \"#utility.yul\":7061:7091   */\n      mstore\n      shl(0x72, 0x105b1c9958591e481c9959da5cdd195c9959)\n        /* \"#utility.yul\":7107:7125   */\n      0x44\n      dup3\n      add\n        /* \"#utility.yul\":7100:7148   */\n      mstore\n        /* \"#utility.yul\":7165:7183   */\n      0x64\n      add\n        /* \"contracts/kk.sol\":1507:1578  require(users[msg.sender].referrer == address(0), \"Already registered\") */\n      tag_135\n        /* \"#utility.yul\":6847:7189   */\n      jump\n        /* \"contracts/kk.sol\":1507:1578  require(users[msg.sender].referrer == address(0), \"Already registered\") */\n    tag_144:\n        /* \"contracts/kk.sol\":1609:1619  msg.sender */\n      caller\n      sub(shl(0xa0, 0x01), 0x01)\n        /* \"contracts/kk.sol\":1597:1619  referrer != msg.sender */\n      dup3\n      and\n      sub\n        /* \"contracts/kk.sol\":1589:1645  require(referrer != msg.sender, \"Cannot refer yourself\") */\n      tag_147\n      jumpi\n      mload(0x40)\n      shl(0xe5, 0x461bcd)\n      dup2\n      mstore\n        /* \"#utility.yul\":7396:7398   */\n      0x20\n        /* \"contracts/kk.sol\":1589:1645  require(referrer != msg.sender, \"Cannot refer yourself\") */\n      0x04\n      dup3\n      add\n        /* \"#utility.yul\":7378:7399   */\n      mstore\n        /* \"#utility.yul\":7435:7437   */\n      0x15\n        /* \"#utility.yul\":7415:7433   */\n      0x24\n      dup3\n      add\n        /* \"#utility.yul\":7408:7438   */\n      mstore\n      shl(0x59, 0x21b0b73737ba103932b332b9103cb7bab939b2b633)\n        /* \"#utility.yul\":7454:7472   */\n      0x44\n      dup3\n      add\n        /* \"#utility.yul\":7447:7498   */\n      mstore\n        /* \"#utility.yul\":7515:7533   */\n      0x64\n      add\n        /* \"contracts/kk.sol\":1589:1645  require(referrer != msg.sender, \"Cannot refer yourself\") */\n      tag_135\n        /* \"#utility.yul\":7194:7539   */\n      jump\n        /* \"contracts/kk.sol\":1589:1645  require(referrer != msg.sender, \"Cannot refer yourself\") */\n    tag_147:\n        /* \"contracts/kk.sol\":1664:1674  msg.sender */\n      caller\n        /* \"contracts/kk.sol\":1658:1675  users[msg.sender] */\n      0x00\n      dup2\n      dup2\n      mstore\n        /* \"contracts/kk.sol\":1658:1663  users */\n      0x03\n        /* \"contracts/kk.sol\":1658:1675  users[msg.sender] */\n      0x20\n      dup2\n      dup2\n      mstore\n      0x40\n      dup1\n      dup5\n      keccak256\n        /* \"contracts/kk.sol\":1658:1695  users[msg.sender].referrer = referrer */\n      dup1\n      sload\n      sub(shl(0xa0, 0x01), 0x01)\n      swap8\n      dup9\n      and\n      not(sub(shl(0xa0, 0x01), 0x01))\n      swap2\n      dup3\n      and\n      dup2\n      or\n      swap1\n      swap3\n      sstore\n        /* \"contracts/kk.sol\":1706:1714  allUsers */\n      0x06\n        /* \"contracts/kk.sol\":1706:1731  allUsers.push(msg.sender) */\n      dup1\n      sload\n        /* \"contracts/kk.sol\":1658:1695  users[msg.sender].referrer = referrer */\n      0x01\n        /* \"contracts/kk.sol\":1706:1731  allUsers.push(msg.sender) */\n      dup2\n      dup2\n      add\n      swap1\n      swap3\n      sstore\n      0xf652222313e28459528d920b65115c16c04f3efc82aaedc97be59f3f377c0d3f\n      add\n      dup1\n      sload\n      dup4\n      and\n      dup10\n      or\n      swap1\n      sstore\n        /* \"contracts/kk.sol\":1744:1769  directReferrals[referrer] */\n      swap2\n      dup7\n      mstore\n        /* \"contracts/kk.sol\":1744:1759  directReferrals */\n      0x04\n        /* \"contracts/kk.sol\":1744:1769  directReferrals[referrer] */\n      dup5\n      mstore\n      dup3\n      dup7\n      keccak256\n        /* \"contracts/kk.sol\":1775:1913  ReferralInfo({... */\n      dup4\n      mload\n      0x60\n      dup2\n      add\n      dup6\n      mstore\n      swap8\n      dup9\n      mstore\n      dup8\n      dup6\n      add\n      dup8\n      dup2\n      mstore\n        /* \"contracts/kk.sol\":1886:1901  block.timestamp */\n      timestamp\n        /* \"contracts/kk.sol\":1775:1913  ReferralInfo({... */\n      swap5\n      dup10\n      add\n      swap5\n      dup6\n      mstore\n        /* \"contracts/kk.sol\":1744:1914  directReferrals[referrer].push(ReferralInfo({... */\n      dup2\n      sload\n      dup1\n      dup6\n      add\n      dup4\n      sstore\n      swap2\n      dup9\n      mstore\n      swap5\n      swap1\n      swap7\n      keccak256\n      swap7\n      mload\n      swap6\n      swap1\n      swap5\n      mul\n      swap1\n      swap6\n      add\n      dup1\n      sload\n      swap5\n      swap1\n      swap7\n      and\n      swap4\n      swap1\n      swap3\n      and\n      swap3\n      swap1\n      swap3\n      or\n      dup5\n      sstore\n      swap1\n      mload\n      swap2\n      dup4\n      add\n      swap2\n      swap1\n      swap2\n      sstore\n      mload\n      0x02\n      swap1\n      swap2\n      add\n      sstore\n        /* \"contracts/kk.sol\":1451:1922  function register(address referrer) external {... */\n      jump\t// out\n        /* \"contracts/kk.sol\":3276:3918  function getStakeByPositionId(uint256 _positionId) external view returns (... */\n    tag_57:\n        /* \"contracts/kk.sol\":3360:3372  address user */\n      0x00\n        /* \"contracts/kk.sol\":3489:3518  positionIdToUser[_positionId] */\n      dup2\n      dup2\n      mstore\n        /* \"contracts/kk.sol\":3489:3505  positionIdToUser */\n      0x05\n        /* \"contracts/kk.sol\":3489:3518  positionIdToUser[_positionId] */\n      0x20\n      mstore\n      0x40\n      dup2\n      keccak256\n      sload\n        /* \"contracts/kk.sol\":3360:3372  address user */\n      dup2\n      swap1\n      dup2\n      swap1\n      dup2\n      swap1\n      sub(shl(0xa0, 0x01), 0x01)\n        /* \"contracts/kk.sol\":3489:3518  positionIdToUser[_positionId] */\n      and\n      dup1\n        /* \"contracts/kk.sol\":3529:3582  require(userAddr != address(0), \"Invalid positionId\") */\n      tag_153\n      jumpi\n      mload(0x40)\n      shl(0xe5, 0x461bcd)\n      dup2\n      mstore\n        /* \"#utility.yul\":7746:7748   */\n      0x20\n        /* \"contracts/kk.sol\":3529:3582  require(userAddr != address(0), \"Invalid positionId\") */\n      0x04\n      dup3\n      add\n        /* \"#utility.yul\":7728:7749   */\n      mstore\n        /* \"#utility.yul\":7785:7787   */\n      0x12\n        /* \"#utility.yul\":7765:7783   */\n      0x24\n      dup3\n      add\n        /* \"#utility.yul\":7758:7788   */\n      mstore\n      shl(0x72, 0x125b9d985b1a59081c1bdcda5d1a5bdb9259)\n        /* \"#utility.yul\":7804:7822   */\n      0x44\n      dup3\n      add\n        /* \"#utility.yul\":7797:7845   */\n      mstore\n        /* \"#utility.yul\":7862:7880   */\n      0x64\n      add\n        /* \"contracts/kk.sol\":3529:3582  require(userAddr != address(0), \"Invalid positionId\") */\n      tag_135\n        /* \"#utility.yul\":7544:7886   */\n      jump\n        /* \"contracts/kk.sol\":3529:3582  require(userAddr != address(0), \"Invalid positionId\") */\n    tag_153:\n      sub(shl(0xa0, 0x01), 0x01)\n        /* \"contracts/kk.sol\":3619:3634  users[userAddr] */\n      dup2\n      and\n        /* \"contracts/kk.sol\":3595:3616  Stake[] memory stakes */\n      0x00\n        /* \"contracts/kk.sol\":3619:3634  users[userAddr] */\n      swap1\n      dup2\n      mstore\n        /* \"contracts/kk.sol\":3619:3624  users */\n      0x03\n        /* \"contracts/kk.sol\":3619:3634  users[userAddr] */\n      0x20\n      swap1\n      dup2\n      mstore\n      0x40\n      dup1\n      dup4\n      keccak256\n        /* \"contracts/kk.sol\":3619:3641  users[userAddr].stakes */\n      0x01\n      add\n        /* \"contracts/kk.sol\":3595:3641  Stake[] memory stakes = users[userAddr].stakes */\n      dup1\n      sload\n      dup3\n      mload\n      dup2\n      dup6\n      mul\n      dup2\n      add\n      dup6\n      add\n      swap1\n      swap4\n      mstore\n      dup1\n      dup4\n      mstore\n      swap2\n      swap3\n        /* \"contracts/kk.sol\":3619:3641  users[userAddr].stakes */\n      swap1\n      swap2\n        /* \"contracts/kk.sol\":3595:3641  Stake[] memory stakes = users[userAddr].stakes */\n      swap1\n        /* \"contracts/kk.sol\":3595:3616  Stake[] memory stakes */\n      dup5\n      swap1\n        /* \"contracts/kk.sol\":3595:3641  Stake[] memory stakes = users[userAddr].stakes */\n      dup5\n      add\n    tag_156:\n      dup3\n      dup3\n      lt\n      iszero\n      tag_157\n      jumpi\n      dup4\n      dup3\n      swap1\n      0x00\n      mstore\n      keccak256(0x00, 0x20)\n      swap1\n      0x04\n      mul\n      add\n      mload(0x40)\n      dup1\n      0x80\n      add\n      0x40\n      mstore\n      swap1\n      dup2\n      0x00\n      dup3\n      add\n      sload\n      dup2\n      mstore\n      0x20\n      add\n      0x01\n      dup3\n      add\n      sload\n      dup2\n      mstore\n      0x20\n      add\n      0x02\n      dup3\n      add\n      sload\n      dup2\n      mstore\n      0x20\n      add\n      0x03\n      dup3\n      add\n      sload\n      dup2\n      mstore\n      pop\n      pop\n      dup2\n      mstore\n      0x20\n      add\n      swap1\n      0x01\n      add\n      swap1\n      jump(tag_156)\n    tag_157:\n      pop\n      pop\n      pop\n      pop\n      swap1\n      pop\n        /* \"contracts/kk.sol\":3657:3666  uint256 i */\n      0x00\n        /* \"contracts/kk.sol\":3652:3873  for (uint256 i = 0; i < stakes.length; i++) {... */\n    tag_159:\n        /* \"contracts/kk.sol\":3676:3682  stakes */\n      dup2\n        /* \"contracts/kk.sol\":3676:3689  stakes.length */\n      mload\n        /* \"contracts/kk.sol\":3672:3673  i */\n      dup2\n        /* \"contracts/kk.sol\":3672:3689  i < stakes.length */\n      lt\n        /* \"contracts/kk.sol\":3652:3873  for (uint256 i = 0; i < stakes.length; i++) {... */\n      iszero\n      tag_160\n      jumpi\n        /* \"contracts/kk.sol\":3739:3750  _positionId */\n      dup8\n        /* \"contracts/kk.sol\":3715:3721  stakes */\n      dup3\n        /* \"contracts/kk.sol\":3722:3723  i */\n      dup3\n        /* \"contracts/kk.sol\":3715:3724  stakes[i] */\n      dup2\n      mload\n      dup2\n      lt\n      tag_163\n      jumpi\n      tag_163\n      tag_127\n      jump\t// in\n    tag_163:\n      0x20\n      mul\n      0x20\n      add\n      add\n      mload\n        /* \"contracts/kk.sol\":3715:3735  stakes[i].positionId */\n      0x20\n      add\n      mload\n        /* \"contracts/kk.sol\":3715:3750  stakes[i].positionId == _positionId */\n      sub\n        /* \"contracts/kk.sol\":3711:3862  if (stakes[i].positionId == _positionId) {... */\n      tag_164\n      jumpi\n        /* \"contracts/kk.sol\":3779:3787  userAddr */\n      dup3\n        /* \"contracts/kk.sol\":3789:3795  stakes */\n      dup3\n        /* \"contracts/kk.sol\":3796:3797  i */\n      dup3\n        /* \"contracts/kk.sol\":3789:3798  stakes[i] */\n      dup2\n      mload\n      dup2\n      lt\n      tag_166\n      jumpi\n      tag_166\n      tag_127\n      jump\t// in\n    tag_166:\n      0x20\n      mul\n      0x20\n      add\n      add\n      mload\n        /* \"contracts/kk.sol\":3789:3806  stakes[i].stakeId */\n      0x00\n      add\n      mload\n        /* \"contracts/kk.sol\":3808:3814  stakes */\n      dup4\n        /* \"contracts/kk.sol\":3815:3816  i */\n      dup4\n        /* \"contracts/kk.sol\":3808:3817  stakes[i] */\n      dup2\n      mload\n      dup2\n      lt\n      tag_168\n      jumpi\n      tag_168\n      tag_127\n      jump\t// in\n    tag_168:\n      0x20\n      mul\n      0x20\n      add\n      add\n      mload\n        /* \"contracts/kk.sol\":3808:3824  stakes[i].amount */\n      0x40\n      add\n      mload\n        /* \"contracts/kk.sol\":3826:3832  stakes */\n      dup5\n        /* \"contracts/kk.sol\":3833:3834  i */\n      dup5\n        /* \"contracts/kk.sol\":3826:3835  stakes[i] */\n      dup2\n      mload\n      dup2\n      lt\n      tag_170\n      jumpi\n      tag_170\n      tag_127\n      jump\t// in\n    tag_170:\n      0x20\n      mul\n      0x20\n      add\n      add\n      mload\n        /* \"contracts/kk.sol\":3826:3845  stakes[i].timestamp */\n      0x60\n      add\n      mload\n        /* \"contracts/kk.sol\":3771:3846  return (userAddr, stakes[i].stakeId, stakes[i].amount, stakes[i].timestamp) */\n      swap7\n      pop\n      swap7\n      pop\n      swap7\n      pop\n      swap7\n      pop\n      pop\n      pop\n      pop\n      jump(tag_152)\n        /* \"contracts/kk.sol\":3711:3862  if (stakes[i].positionId == _positionId) {... */\n    tag_164:\n        /* \"contracts/kk.sol\":3691:3694  i++ */\n      dup1\n      tag_171\n      dup2\n      tag_132\n      jump\t// in\n    tag_171:\n      swap2\n      pop\n      pop\n        /* \"contracts/kk.sol\":3652:3873  for (uint256 i = 0; i < stakes.length; i++) {... */\n      jump(tag_159)\n    tag_160:\n      pop\n        /* \"contracts/kk.sol\":3885:3910  revert(\"Stake not found\") */\n      mload(0x40)\n      shl(0xe5, 0x461bcd)\n      dup2\n      mstore\n        /* \"#utility.yul\":8093:8095   */\n      0x20\n        /* \"contracts/kk.sol\":3885:3910  revert(\"Stake not found\") */\n      0x04\n      dup3\n      add\n        /* \"#utility.yul\":8075:8096   */\n      mstore\n        /* \"#utility.yul\":8132:8134   */\n      0x0f\n        /* \"#utility.yul\":8112:8130   */\n      0x24\n      dup3\n      add\n        /* \"#utility.yul\":8105:8135   */\n      mstore\n      shl(0x8a, 0x14dd185ad9481b9bdd08199bdd5b99)\n        /* \"#utility.yul\":8151:8169   */\n      0x44\n      dup3\n      add\n        /* \"#utility.yul\":8144:8189   */\n      mstore\n        /* \"#utility.yul\":8206:8224   */\n      0x64\n      add\n        /* \"contracts/kk.sol\":3885:3910  revert(\"Stake not found\") */\n      tag_135\n        /* \"#utility.yul\":7891:8230   */\n      jump\n        /* \"contracts/kk.sol\":3276:3918  function getStakeByPositionId(uint256 _positionId) external view returns (... */\n    tag_152:\n      swap2\n      swap4\n      pop\n      swap2\n      swap4\n      jump\t// out\n        /* \"contracts/kk.sol\":4409:5128  function getReferralIncomeDetails(address user) external view returns (... */\n    tag_73:\n      sub(shl(0xa0, 0x01), 0x01)\n        /* \"contracts/kk.sol\":4646:4667  directReferrals[user] */\n      dup2\n      and\n        /* \"contracts/kk.sol\":4616:4643  ReferralInfo[] storage refs */\n      0x00\n        /* \"contracts/kk.sol\":4646:4667  directReferrals[user] */\n      swap1\n      dup2\n      mstore\n        /* \"contracts/kk.sol\":4646:4661  directReferrals */\n      0x04\n        /* \"contracts/kk.sol\":4646:4667  directReferrals[user] */\n      0x20\n      mstore\n      0x40\n      swap1\n      keccak256\n        /* \"contracts/kk.sol\":4694:4705  refs.length */\n      dup1\n      sload\n        /* \"contracts/kk.sol\":4490:4524  address[] memory referralAddresses */\n      0x60\n      swap2\n      dup3\n      swap2\n      dup3\n      swap2\n        /* \"contracts/kk.sol\":4646:4667  directReferrals[user] */\n      swap1\n        /* \"contracts/kk.sol\":4694:4705  refs.length */\n      dup1\n        /* \"contracts/kk.sol\":4738:4758  new address[](count) */\n      0xffffffffffffffff\n      dup2\n      gt\n      iszero\n      tag_178\n      jumpi\n      tag_178\n      tag_120\n      jump\t// in\n    tag_178:\n      mload(0x40)\n      swap1\n      dup1\n      dup3\n      mstore\n      dup1\n      0x20\n      mul\n      0x20\n      add\n      dup3\n      add\n      0x40\n      mstore\n      dup1\n      iszero\n      tag_179\n      jumpi\n      dup2\n      0x20\n      add\n      0x20\n      dup3\n      mul\n      dup1\n      calldatasize\n      dup4\n      calldatacopy\n      add\n      swap1\n      pop\n    tag_179:\n      pop\n        /* \"contracts/kk.sol\":4718:4758  referralAddresses = new address[](count) */\n      swap5\n      pop\n        /* \"contracts/kk.sol\":4793:4798  count */\n      dup1\n        /* \"contracts/kk.sol\":4779:4799  new uint256[](count) */\n      0xffffffffffffffff\n      dup2\n      gt\n      iszero\n      tag_181\n      jumpi\n      tag_181\n      tag_120\n      jump\t// in\n    tag_181:\n      mload(0x40)\n      swap1\n      dup1\n      dup3\n      mstore\n      dup1\n      0x20\n      mul\n      0x20\n      add\n      dup3\n      add\n      0x40\n      mstore\n      dup1\n      iszero\n      tag_182\n      jumpi\n      dup2\n      0x20\n      add\n      0x20\n      dup3\n      mul\n      dup1\n      calldatasize\n      dup4\n      calldatacopy\n      add\n      swap1\n      pop\n    tag_182:\n      pop\n        /* \"contracts/kk.sol\":4769:4799  incomes = new uint256[](count) */\n      swap4\n      pop\n        /* \"contracts/kk.sol\":4837:4842  count */\n      dup1\n        /* \"contracts/kk.sol\":4823:4843  new uint256[](count) */\n      0xffffffffffffffff\n      dup2\n      gt\n      iszero\n      tag_184\n      jumpi\n      tag_184\n      tag_120\n      jump\t// in\n    tag_184:\n      mload(0x40)\n      swap1\n      dup1\n      dup3\n      mstore\n      dup1\n      0x20\n      mul\n      0x20\n      add\n      dup3\n      add\n      0x40\n      mstore\n      dup1\n      iszero\n      tag_185\n      jumpi\n      dup2\n      0x20\n      add\n      0x20\n      dup3\n      mul\n      dup1\n      calldatasize\n      dup4\n      calldatacopy\n      add\n      swap1\n      pop\n    tag_185:\n      pop\n        /* \"contracts/kk.sol\":4810:4843  timestamps = new uint256[](count) */\n      swap3\n      pop\n        /* \"contracts/kk.sol\":4861:4870  uint256 i */\n      0x00\n        /* \"contracts/kk.sol\":4856:5061  for (uint256 i = 0; i < count; i++) {... */\n    tag_186:\n        /* \"contracts/kk.sol\":4880:4885  count */\n      dup2\n        /* \"contracts/kk.sol\":4876:4877  i */\n      dup2\n        /* \"contracts/kk.sol\":4876:4885  i < count */\n      lt\n        /* \"contracts/kk.sol\":4856:5061  for (uint256 i = 0; i < count; i++) {... */\n      iszero\n      tag_187\n      jumpi\n        /* \"contracts/kk.sol\":4930:4934  refs */\n      dup3\n        /* \"contracts/kk.sol\":4935:4936  i */\n      dup2\n        /* \"contracts/kk.sol\":4930:4937  refs[i] */\n      dup2\n      sload\n      dup2\n      lt\n      tag_190\n      jumpi\n      tag_190\n      tag_127\n      jump\t// in\n    tag_190:\n      0x00\n      swap2\n      dup3\n      mstore\n      0x20\n      swap1\n      swap2\n      keccak256\n      0x03\n      swap1\n      swap2\n      mul\n      add\n        /* \"contracts/kk.sol\":4930:4953  refs[i].referralAddress */\n      sload\n        /* \"contracts/kk.sol\":4907:4927  referralAddresses[i] */\n      dup7\n      mload\n      sub(shl(0xa0, 0x01), 0x01)\n        /* \"contracts/kk.sol\":4930:4953  refs[i].referralAddress */\n      swap1\n      swap2\n      and\n      swap1\n        /* \"contracts/kk.sol\":4907:4924  referralAddresses */\n      dup8\n      swap1\n        /* \"contracts/kk.sol\":4925:4926  i */\n      dup4\n      swap1\n        /* \"contracts/kk.sol\":4907:4927  referralAddresses[i] */\n      dup2\n      lt\n      tag_193\n      jumpi\n      tag_193\n      tag_127\n      jump\t// in\n    tag_193:\n      0x20\n      mul\n      0x20\n      add\n      add\n        /* \"contracts/kk.sol\":4907:4953  referralAddresses[i] = refs[i].referralAddress */\n      swap1\n      sub(shl(0xa0, 0x01), 0x01)\n      and\n      swap1\n      dup2\n      sub(shl(0xa0, 0x01), 0x01)\n      and\n      dup2\n      mstore\n      pop\n      pop\n        /* \"contracts/kk.sol\":4981:4985  refs */\n      dup3\n        /* \"contracts/kk.sol\":4986:4987  i */\n      dup2\n        /* \"contracts/kk.sol\":4981:4988  refs[i] */\n      dup2\n      sload\n      dup2\n      lt\n      tag_195\n      jumpi\n      tag_195\n      tag_127\n      jump\t// in\n    tag_195:\n      swap1\n      0x00\n      mstore\n      keccak256(0x00, 0x20)\n      swap1\n      0x03\n      mul\n      add\n        /* \"contracts/kk.sol\":4981:5001  refs[i].incomeEarned */\n      0x01\n      add\n      sload\n        /* \"contracts/kk.sol\":4968:4975  incomes */\n      dup6\n        /* \"contracts/kk.sol\":4976:4977  i */\n      dup3\n        /* \"contracts/kk.sol\":4968:4978  incomes[i] */\n      dup2\n      mload\n      dup2\n      lt\n      tag_198\n      jumpi\n      tag_198\n      tag_127\n      jump\t// in\n    tag_198:\n      0x20\n      mul\n      0x20\n      add\n      add\n        /* \"contracts/kk.sol\":4968:5001  incomes[i] = refs[i].incomeEarned */\n      dup2\n      dup2\n      mstore\n      pop\n      pop\n        /* \"contracts/kk.sol\":5032:5036  refs */\n      dup3\n        /* \"contracts/kk.sol\":5037:5038  i */\n      dup2\n        /* \"contracts/kk.sol\":5032:5039  refs[i] */\n      dup2\n      sload\n      dup2\n      lt\n      tag_200\n      jumpi\n      tag_200\n      tag_127\n      jump\t// in\n    tag_200:\n      swap1\n      0x00\n      mstore\n      keccak256(0x00, 0x20)\n      swap1\n      0x03\n      mul\n      add\n        /* \"contracts/kk.sol\":5032:5049  refs[i].timestamp */\n      0x02\n      add\n      sload\n        /* \"contracts/kk.sol\":5016:5026  timestamps */\n      dup5\n        /* \"contracts/kk.sol\":5027:5028  i */\n      dup3\n        /* \"contracts/kk.sol\":5016:5029  timestamps[i] */\n      dup2\n      mload\n      dup2\n      lt\n      tag_203\n      jumpi\n      tag_203\n      tag_127\n      jump\t// in\n    tag_203:\n      0x20\n      swap1\n      dup2\n      mul\n      swap2\n      swap1\n      swap2\n      add\n      add\n        /* \"contracts/kk.sol\":5016:5049  timestamps[i] = refs[i].timestamp */\n      mstore\n        /* \"contracts/kk.sol\":4887:4890  i++ */\n      dup1\n      tag_204\n      dup2\n      tag_132\n      jump\t// in\n    tag_204:\n      swap2\n      pop\n      pop\n        /* \"contracts/kk.sol\":4856:5061  for (uint256 i = 0; i < count; i++) {... */\n      jump(tag_186)\n    tag_187:\n      pop\n        /* \"contracts/kk.sol\":5073:5120  return (referralAddresses, incomes, timestamps) */\n      pop\n      pop\n        /* \"contracts/kk.sol\":4409:5128  function getReferralIncomeDetails(address user) external view returns (... */\n      swap2\n      swap4\n      swap1\n      swap3\n      pop\n      jump\t// out\n        /* \"contracts/kk.sol\":1329:1354  address[] public allUsers */\n    tag_78:\n      0x06\n      dup2\n      dup2\n      sload\n      dup2\n      lt\n      tag_205\n      jumpi\n      0x00\n      dup1\n      revert\n    tag_205:\n      0x00\n      swap2\n      dup3\n      mstore\n      0x20\n      swap1\n      swap2\n      keccak256\n      add\n      sload\n      sub(shl(0xa0, 0x01), 0x01)\n      and\n      swap1\n      pop\n      dup2\n      jump\t// out\n        /* \"contracts/kk.sol\":1930:3268  function stake(uint256 amount) external {... */\n    tag_82:\n        /* \"contracts/kk.sol\":1998:1999  0 */\n      0x00\n        /* \"contracts/kk.sol\":1989:1995  amount */\n      dup2\n        /* \"contracts/kk.sol\":1989:1999  amount > 0 */\n      gt\n        /* \"contracts/kk.sol\":1981:2032  require(amount > 0, \"Stake must be greater than 0\") */\n      tag_208\n      jumpi\n      mload(0x40)\n      shl(0xe5, 0x461bcd)\n      dup2\n      mstore\n        /* \"#utility.yul\":8437:8439   */\n      0x20\n        /* \"contracts/kk.sol\":1981:2032  require(amount > 0, \"Stake must be greater than 0\") */\n      0x04\n      dup3\n      add\n        /* \"#utility.yul\":8419:8440   */\n      mstore\n        /* \"#utility.yul\":8476:8478   */\n      0x1c\n        /* \"#utility.yul\":8456:8474   */\n      0x24\n      dup3\n      add\n        /* \"#utility.yul\":8449:8479   */\n      mstore\n        /* \"#utility.yul\":8515:8545   */\n      0x5374616b65206d7573742062652067726561746572207468616e203000000000\n        /* \"#utility.yul\":8495:8513   */\n      0x44\n      dup3\n      add\n        /* \"#utility.yul\":8488:8546   */\n      mstore\n        /* \"#utility.yul\":8563:8581   */\n      0x64\n      add\n        /* \"contracts/kk.sol\":1981:2032  require(amount > 0, \"Stake must be greater than 0\") */\n      tag_135\n        /* \"#utility.yul\":8235:8587   */\n      jump\n        /* \"contracts/kk.sol\":1981:2032  require(amount > 0, \"Stake must be greater than 0\") */\n    tag_208:\n        /* \"contracts/kk.sol\":2057:2067  msg.sender */\n      caller\n        /* \"contracts/kk.sol\":2089:2090  0 */\n      0x00\n        /* \"contracts/kk.sol\":2051:2068  users[msg.sender] */\n      swap1\n      dup2\n      mstore\n        /* \"contracts/kk.sol\":2051:2056  users */\n      0x03\n        /* \"contracts/kk.sol\":2051:2068  users[msg.sender] */\n      0x20\n      mstore\n      0x40\n      swap1\n      keccak256\n        /* \"contracts/kk.sol\":2051:2077  users[msg.sender].referrer */\n      sload\n      sub(shl(0xa0, 0x01), 0x01)\n      and\n        /* \"contracts/kk.sol\":2043:2119  require(users[msg.sender].referrer != address(0), \"User must be registered\") */\n      tag_211\n      jumpi\n      mload(0x40)\n      shl(0xe5, 0x461bcd)\n      dup2\n      mstore\n        /* \"#utility.yul\":8794:8796   */\n      0x20\n        /* \"contracts/kk.sol\":2043:2119  require(users[msg.sender].referrer != address(0), \"User must be registered\") */\n      0x04\n      dup3\n      add\n        /* \"#utility.yul\":8776:8797   */\n      mstore\n        /* \"#utility.yul\":8833:8835   */\n      0x17\n        /* \"#utility.yul\":8813:8831   */\n      0x24\n      dup3\n      add\n        /* \"#utility.yul\":8806:8836   */\n      mstore\n        /* \"#utility.yul\":8872:8897   */\n      0x55736572206d7573742062652072656769737465726564000000000000000000\n        /* \"#utility.yul\":8852:8870   */\n      0x44\n      dup3\n      add\n        /* \"#utility.yul\":8845:8898   */\n      mstore\n        /* \"#utility.yul\":8915:8933   */\n      0x64\n      add\n        /* \"contracts/kk.sol\":2043:2119  require(users[msg.sender].referrer != address(0), \"User must be registered\") */\n      tag_135\n        /* \"#utility.yul\":8592:8939   */\n      jump\n        /* \"contracts/kk.sol\":2043:2119  require(users[msg.sender].referrer != address(0), \"User must be registered\") */\n    tag_211:\n        /* \"contracts/kk.sol\":2132:2141  usdtToken */\n      sload(0x02)\n        /* \"contracts/kk.sol\":2132:2189  usdtToken.transferFrom(msg.sender, address(this), amount) */\n      mload(0x40)\n      shl(0xe0, 0x23b872dd)\n      dup2\n      mstore\n        /* \"contracts/kk.sol\":2155:2165  msg.sender */\n      caller\n        /* \"contracts/kk.sol\":2132:2189  usdtToken.transferFrom(msg.sender, address(this), amount) */\n      0x04\n      dup3\n      add\n        /* \"#utility.yul\":9184:9218   */\n      mstore\n        /* \"contracts/kk.sol\":2175:2179  this */\n      address\n        /* \"#utility.yul\":9234:9252   */\n      0x24\n      dup3\n      add\n        /* \"#utility.yul\":9227:9270   */\n      mstore\n        /* \"#utility.yul\":9286:9304   */\n      0x44\n      dup2\n      add\n        /* \"#utility.yul\":9279:9313   */\n      dup4\n      swap1\n      mstore\n      sub(shl(0xa0, 0x01), 0x01)\n        /* \"contracts/kk.sol\":2132:2141  usdtToken */\n      swap1\n      swap2\n      and\n      swap1\n        /* \"contracts/kk.sol\":2132:2154  usdtToken.transferFrom */\n      0x23b872dd\n      swap1\n        /* \"#utility.yul\":9119:9137   */\n      0x64\n      add\n        /* \"contracts/kk.sol\":2132:2189  usdtToken.transferFrom(msg.sender, address(this), amount) */\n      0x20\n      mload(0x40)\n      dup1\n      dup4\n      sub\n      dup2\n      0x00\n      dup8\n      gas\n      call\n      iszero\n      dup1\n      iszero\n      tag_217\n      jumpi\n      returndatasize\n      0x00\n      dup1\n      returndatacopy\n      revert(0x00, returndatasize)\n    tag_217:\n      pop\n      pop\n      pop\n      pop\n      mload(0x40)\n      returndatasize\n      not(0x1f)\n      0x1f\n      dup3\n      add\n      and\n      dup3\n      add\n      dup1\n      0x40\n      mstore\n      pop\n      dup2\n      add\n      swap1\n      tag_218\n      swap2\n      swap1\n      tag_142\n      jump\t// in\n    tag_218:\n      pop\n        /* \"contracts/kk.sol\":2202:2220  uint256 positionId */\n      0x00\n        /* \"contracts/kk.sol\":2225:2237  stakeCounter */\n      0x01\n      0x00\n        /* \"contracts/kk.sol\":2223:2237  ++stakeCounter */\n      dup2\n      sload\n      tag_219\n      swap1\n      tag_132\n      jump\t// in\n    tag_219:\n      swap2\n      dup3\n      swap1\n      sstore\n      pop\n        /* \"contracts/kk.sol\":2256:2266  msg.sender */\n      caller\n        /* \"contracts/kk.sol\":2250:2267  users[msg.sender] */\n      0x00\n      dup2\n      dup2\n      mstore\n        /* \"contracts/kk.sol\":2250:2255  users */\n      0x03\n        /* \"contracts/kk.sol\":2250:2267  users[msg.sender] */\n      0x20\n      dup2\n      dup2\n      mstore\n      0x40\n      dup1\n      dup5\n      keccak256\n        /* \"contracts/kk.sol\":2280:2441  Stake({... */\n      dup2\n      mload\n      0x80\n      dup2\n      add\n      dup4\n      mstore\n        /* \"contracts/kk.sol\":2250:2274  users[msg.sender].stakes */\n      0x01\n        /* \"contracts/kk.sol\":2310:2322  stakeCounter */\n      dup1\n      sload\n        /* \"contracts/kk.sol\":2280:2441  Stake({... */\n      dup3\n      mstore\n      dup2\n      dup6\n      add\n      dup10\n      dup2\n      mstore\n      dup3\n      dup6\n      add\n      dup13\n      dup2\n      mstore\n        /* \"contracts/kk.sol\":2414:2429  block.timestamp */\n      timestamp\n        /* \"contracts/kk.sol\":2280:2441  Stake({... */\n      0x60\n      dup6\n      add\n      swap1\n      dup2\n      mstore\n        /* \"contracts/kk.sol\":2250:2274  users[msg.sender].stakes */\n      dup4\n      dup7\n      add\n        /* \"contracts/kk.sol\":2250:2442  users[msg.sender].stakes.push(Stake({... */\n      dup1\n      sload\n      dup1\n      dup7\n      add\n      dup3\n      sstore\n      swap1\n      dup12\n      mstore\n      dup9\n      dup12\n      keccak256\n      swap6\n      mload\n      0x04\n      swap1\n      swap2\n      mul\n      swap1\n      swap6\n      add\n      swap5\n      dup6\n      sstore\n      swap2\n      mload\n      swap3\n      dup5\n      add\n      swap3\n      swap1\n      swap3\n      sstore\n      swap1\n      mload\n      0x02\n      dup4\n      add\n      sstore\n      mload\n      swap1\n      dup6\n      add\n      sstore\n        /* \"contracts/kk.sol\":2455:2483  positionIdToUser[positionId] */\n      dup7\n      dup6\n      mstore\n        /* \"contracts/kk.sol\":2455:2471  positionIdToUser */\n      0x05\n        /* \"contracts/kk.sol\":2455:2483  positionIdToUser[positionId] */\n      dup4\n      mstore\n      swap1\n      dup5\n      keccak256\n        /* \"contracts/kk.sol\":2455:2496  positionIdToUser[positionId] = msg.sender */\n      dup1\n      sload\n      not(sub(shl(0xa0, 0x01), 0x01))\n      and\n      dup7\n      or\n      swap1\n      sstore\n        /* \"contracts/kk.sol\":2562:2579  users[msg.sender] */\n      swap4\n      dup4\n      mstore\n      mstore\n        /* \"contracts/kk.sol\":2562:2588  users[msg.sender].referrer */\n      swap1\n      sload\n        /* \"contracts/kk.sol\":2223:2237  ++stakeCounter */\n      swap2\n      swap3\n      pop\n      sub(shl(0xa0, 0x01), 0x01)\n        /* \"contracts/kk.sol\":2562:2588  users[msg.sender].referrer */\n      swap1\n      swap2\n      and\n      swap1\n        /* \"contracts/kk.sol\":2601:3261  for (uint8 i = 0; i < levelRewards.length && upline != address(0); i++) {... */\n    tag_221:\n        /* \"contracts/kk.sol\":2623:2635  levelRewards */\n      0x07\n        /* \"contracts/kk.sol\":2623:2642  levelRewards.length */\n      sload\n        /* \"contracts/kk.sol\":2619:2642  i < levelRewards.length */\n      0xff\n      dup3\n      and\n      lt\n        /* \"contracts/kk.sol\":2619:2666  i < levelRewards.length && upline != address(0) */\n      dup1\n      iszero\n      tag_224\n      jumpi\n      pop\n      sub(shl(0xa0, 0x01), 0x01)\n        /* \"contracts/kk.sol\":2646:2666  upline != address(0) */\n      dup3\n      and\n      iszero\n      iszero\n        /* \"contracts/kk.sol\":2619:2666  i < levelRewards.length && upline != address(0) */\n    tag_224:\n        /* \"contracts/kk.sol\":2601:3261  for (uint8 i = 0; i < levelRewards.length && upline != address(0); i++) {... */\n      iszero\n      tag_222\n      jumpi\n        /* \"contracts/kk.sol\":2688:2702  uint256 reward */\n      0x00\n        /* \"contracts/kk.sol\":2734:2737  100 */\n      0x64\n        /* \"contracts/kk.sol\":2715:2727  levelRewards */\n      0x07\n        /* \"contracts/kk.sol\":2728:2729  i */\n      dup4\n        /* \"contracts/kk.sol\":2715:2730  levelRewards[i] */\n      0xff\n      and\n      dup2\n      sload\n      dup2\n      lt\n      tag_226\n      jumpi\n      tag_226\n      tag_127\n      jump\t// in\n    tag_226:\n      0x00\n      swap2\n      dup3\n      mstore\n      0x20\n      swap2\n      dup3\n      swap1\n      keccak256\n      swap2\n      dup2\n      div\n      swap1\n      swap2\n      add\n      sload\n        /* \"contracts/kk.sol\":2706:2730  amount * levelRewards[i] */\n      tag_228\n      swap2\n        /* \"contracts/kk.sol\":2715:2730  levelRewards[i] */\n      0x1f\n      and\n      0x0100\n      exp\n      swap1\n      div\n      0xff\n      and\n        /* \"contracts/kk.sol\":2706:2712  amount */\n      dup8\n        /* \"contracts/kk.sol\":2706:2730  amount * levelRewards[i] */\n      tag_229\n      jump\t// in\n    tag_228:\n        /* \"contracts/kk.sol\":2705:2737  (amount * levelRewards[i]) / 100 */\n      tag_230\n      swap2\n      swap1\n      tag_231\n      jump\t// in\n    tag_230:\n        /* \"contracts/kk.sol\":2752:2761  usdtToken */\n      sload(0x02)\n        /* \"contracts/kk.sol\":2752:2786  usdtToken.transfer(upline, reward) */\n      mload(0x40)\n      shl(0xe0, 0xa9059cbb)\n      dup2\n      mstore\n      sub(shl(0xa0, 0x01), 0x01)\n        /* \"#utility.yul\":6478:6510   */\n      dup7\n      dup2\n      and\n        /* \"contracts/kk.sol\":2752:2786  usdtToken.transfer(upline, reward) */\n      0x04\n      dup4\n      add\n        /* \"#utility.yul\":6460:6511   */\n      mstore\n        /* \"#utility.yul\":6527:6545   */\n      0x24\n      dup3\n      add\n        /* \"#utility.yul\":6520:6554   */\n      dup5\n      swap1\n      mstore\n        /* \"contracts/kk.sol\":2688:2737  uint256 reward = (amount * levelRewards[i]) / 100 */\n      swap3\n      swap4\n      pop\n        /* \"contracts/kk.sol\":2752:2761  usdtToken */\n      swap2\n      and\n      swap1\n        /* \"contracts/kk.sol\":2752:2770  usdtToken.transfer */\n      0xa9059cbb\n      swap1\n        /* \"#utility.yul\":6433:6451   */\n      0x44\n      add\n        /* \"contracts/kk.sol\":2752:2786  usdtToken.transfer(upline, reward) */\n      0x20\n      mload(0x40)\n      dup1\n      dup4\n      sub\n      dup2\n      0x00\n      dup8\n      gas\n      call\n      iszero\n      dup1\n      iszero\n      tag_234\n      jumpi\n      returndatasize\n      0x00\n      dup1\n      returndatacopy\n      revert(0x00, returndatasize)\n    tag_234:\n      pop\n      pop\n      pop\n      pop\n      mload(0x40)\n      returndatasize\n      not(0x1f)\n      0x1f\n      dup3\n      add\n      and\n      dup3\n      add\n      dup1\n      0x40\n      mstore\n      pop\n      dup2\n      add\n      swap1\n      tag_235\n      swap2\n      swap1\n      tag_142\n      jump\t// in\n    tag_235:\n      pop\n      sub(shl(0xa0, 0x01), 0x01)\n        /* \"contracts/kk.sol\":2803:2816  users[upline] */\n      dup4\n      and\n      0x00\n      swap1\n      dup2\n      mstore\n        /* \"contracts/kk.sol\":2803:2808  users */\n      0x03\n        /* \"contracts/kk.sol\":2803:2816  users[upline] */\n      0x20\n      mstore\n      0x40\n      dup2\n      keccak256\n        /* \"contracts/kk.sol\":2803:2828  users[upline].totalIncome */\n      0x02\n      add\n        /* \"contracts/kk.sol\":2803:2838  users[upline].totalIncome += reward */\n      dup1\n      sload\n        /* \"contracts/kk.sol\":2832:2838  reward */\n      dup4\n      swap3\n        /* \"contracts/kk.sol\":2803:2816  users[upline] */\n      swap1\n        /* \"contracts/kk.sol\":2803:2838  users[upline].totalIncome += reward */\n      tag_236\n      swap1\n        /* \"contracts/kk.sol\":2832:2838  reward */\n      dup5\n      swap1\n        /* \"contracts/kk.sol\":2803:2838  users[upline].totalIncome += reward */\n      tag_237\n      jump\t// in\n    tag_236:\n      swap1\n      swap2\n      sstore\n      pop\n      pop\n      sub(shl(0xa0, 0x01), 0x01)\n        /* \"contracts/kk.sol\":2853:2866  users[upline] */\n      dup4\n      and\n      0x00\n      swap1\n      dup2\n      mstore\n        /* \"contracts/kk.sol\":2853:2858  users */\n      0x03\n        /* \"contracts/kk.sol\":2853:2866  users[upline] */\n      0x20\n      dup2\n      swap1\n      mstore\n      0x40\n      dup3\n      keccak256\n        /* \"contracts/kk.sol\":2853:2878  users[upline].levelIncome */\n      add\n        /* \"contracts/kk.sol\":2853:2888  users[upline].levelIncome += reward */\n      dup1\n      sload\n        /* \"contracts/kk.sol\":2882:2888  reward */\n      dup4\n      swap3\n        /* \"contracts/kk.sol\":2853:2866  users[upline] */\n      swap1\n        /* \"contracts/kk.sol\":2853:2888  users[upline].levelIncome += reward */\n      tag_238\n      swap1\n        /* \"contracts/kk.sol\":2882:2888  reward */\n      dup5\n      swap1\n        /* \"contracts/kk.sol\":2853:2888  users[upline].levelIncome += reward */\n      tag_237\n      jump\t// in\n    tag_238:\n      swap1\n      swap2\n      sstore\n      pop\n      pop\n      sub(shl(0xa0, 0x01), 0x01)\n        /* \"contracts/kk.sol\":2972:2995  directReferrals[upline] */\n      dup4\n      and\n        /* \"contracts/kk.sol\":2942:2969  ReferralInfo[] storage refs */\n      0x00\n        /* \"contracts/kk.sol\":2972:2995  directReferrals[upline] */\n      swap1\n      dup2\n      mstore\n        /* \"contracts/kk.sol\":2972:2987  directReferrals */\n      0x04\n        /* \"contracts/kk.sol\":2972:2995  directReferrals[upline] */\n      0x20\n      mstore\n      0x40\n      dup2\n      keccak256\n      swap1\n        /* \"contracts/kk.sol\":3010:3202  for (uint256 j = 0; j < refs.length; j++) {... */\n    tag_239:\n        /* \"contracts/kk.sol\":3034:3045  refs.length */\n      dup2\n      sload\n        /* \"contracts/kk.sol\":3030:3045  j < refs.length */\n      dup2\n      lt\n        /* \"contracts/kk.sol\":3010:3202  for (uint256 j = 0; j < refs.length; j++) {... */\n      iszero\n      tag_240\n      jumpi\n        /* \"contracts/kk.sol\":3102:3112  msg.sender */\n      caller\n      sub(shl(0xa0, 0x01), 0x01)\n        /* \"contracts/kk.sol\":3075:3112  refs[j].referralAddress == msg.sender */\n      and\n        /* \"contracts/kk.sol\":3075:3079  refs */\n      dup3\n        /* \"contracts/kk.sol\":3080:3081  j */\n      dup3\n        /* \"contracts/kk.sol\":3075:3082  refs[j] */\n      dup2\n      sload\n      dup2\n      lt\n      tag_243\n      jumpi\n      tag_243\n      tag_127\n      jump\t// in\n    tag_243:\n      0x00\n      swap2\n      dup3\n      mstore\n      0x20\n      swap1\n      swap2\n      keccak256\n      0x03\n      swap1\n      swap2\n      mul\n      add\n        /* \"contracts/kk.sol\":3075:3098  refs[j].referralAddress */\n      sload\n      sub(shl(0xa0, 0x01), 0x01)\n      and\n        /* \"contracts/kk.sol\":3075:3112  refs[j].referralAddress == msg.sender */\n      sub\n        /* \"contracts/kk.sol\":3071:3187  if (refs[j].referralAddress == msg.sender) {... */\n      tag_245\n      jumpi\n        /* \"contracts/kk.sol\":3161:3167  reward */\n      dup3\n        /* \"contracts/kk.sol\":3137:3141  refs */\n      dup3\n        /* \"contracts/kk.sol\":3142:3143  j */\n      dup3\n        /* \"contracts/kk.sol\":3137:3144  refs[j] */\n      dup2\n      sload\n      dup2\n      lt\n      tag_247\n      jumpi\n      tag_247\n      tag_127\n      jump\t// in\n    tag_247:\n      swap1\n      0x00\n      mstore\n      keccak256(0x00, 0x20)\n      swap1\n      0x03\n      mul\n      add\n        /* \"contracts/kk.sol\":3137:3157  refs[j].incomeEarned */\n      0x01\n      add\n      0x00\n        /* \"contracts/kk.sol\":3137:3167  refs[j].incomeEarned += reward */\n      dup3\n      dup3\n      sload\n      tag_249\n      swap2\n      swap1\n      tag_237\n      jump\t// in\n    tag_249:\n      swap1\n      swap2\n      sstore\n      pop\n      pop\n        /* \"contracts/kk.sol\":3071:3187  if (refs[j].referralAddress == msg.sender) {... */\n    tag_245:\n        /* \"contracts/kk.sol\":3047:3050  j++ */\n      dup1\n      tag_250\n      dup2\n      tag_132\n      jump\t// in\n    tag_250:\n      swap2\n      pop\n      pop\n        /* \"contracts/kk.sol\":3010:3202  for (uint256 j = 0; j < refs.length; j++) {... */\n      jump(tag_239)\n    tag_240:\n      pop\n      pop\n      pop\n      sub(shl(0xa0, 0x01), 0x01)\n        /* \"contracts/kk.sol\":3227:3240  users[upline] */\n      swap2\n      dup3\n      and\n      0x00\n      swap1\n      dup2\n      mstore\n        /* \"contracts/kk.sol\":3227:3232  users */\n      0x03\n        /* \"contracts/kk.sol\":3227:3240  users[upline] */\n      0x20\n      mstore\n      0x40\n      swap1\n      keccak256\n        /* \"contracts/kk.sol\":3227:3249  users[upline].referrer */\n      sload\n      swap1\n      swap2\n      and\n      swap1\n        /* \"contracts/kk.sol\":2668:2671  i++ */\n      dup1\n      tag_251\n      dup2\n      tag_252\n      jump\t// in\n    tag_251:\n      swap2\n      pop\n      pop\n        /* \"contracts/kk.sol\":2601:3261  for (uint8 i = 0; i < levelRewards.length && upline != address(0); i++) {... */\n      jump(tag_221)\n    tag_222:\n      pop\n        /* \"contracts/kk.sol\":1970:3268  {... */\n      pop\n      pop\n        /* \"contracts/kk.sol\":1930:3268  function stake(uint256 amount) external {... */\n      pop\n      jump\t// out\n        /* \"contracts/kk.sol\":1365:1404  uint8[] public levelRewards = [5, 3, 2] */\n    tag_101:\n      0x07\n      dup2\n      dup2\n      sload\n      dup2\n      lt\n      tag_255\n      jumpi\n      0x00\n      dup1\n      revert\n    tag_255:\n      swap1\n      0x00\n      mstore\n      keccak256(0x00, 0x20)\n      swap1\n      0x20\n      swap2\n      dup3\n      dup3\n      div\n      add\n      swap2\n      swap1\n      mod\n      swap2\n      pop\n      sload\n      swap1\n      0x0100\n      exp\n      swap1\n      div\n      0xff\n      and\n      dup2\n      jump\t// out\n        /* \"contracts/kk.sol\":5657:7591  function getLevelIncomeDistribution(address _user) external view returns (LevelIncomeData[] memory) {... */\n    tag_105:\n        /* \"contracts/kk.sol\":5731:5755  LevelIncomeData[] memory */\n      0x60\n        /* \"contracts/kk.sol\":5768:5786  uint256 totalCount */\n      0x00\n        /* \"contracts/kk.sol\":5808:5817  uint256 i */\n      dup1\n        /* \"contracts/kk.sol\":5803:6292  for (uint256 i = 0; i < allUsers.length; i++) {... */\n    tag_258:\n        /* \"contracts/kk.sol\":5827:5835  allUsers */\n      0x06\n        /* \"contracts/kk.sol\":5827:5842  allUsers.length */\n      sload\n        /* \"contracts/kk.sol\":5823:5842  i < allUsers.length */\n      dup2\n      lt\n        /* \"contracts/kk.sol\":5803:6292  for (uint256 i = 0; i < allUsers.length; i++) {... */\n      iszero\n      tag_259\n      jumpi\n        /* \"contracts/kk.sol\":5864:5878  address staker */\n      0x00\n        /* \"contracts/kk.sol\":5881:5889  allUsers */\n      0x06\n        /* \"contracts/kk.sol\":5890:5891  i */\n      dup3\n        /* \"contracts/kk.sol\":5881:5892  allUsers[i] */\n      dup2\n      sload\n      dup2\n      lt\n      tag_262\n      jumpi\n      tag_262\n      tag_127\n      jump\t// in\n    tag_262:\n      0x00\n      swap2\n      dup3\n      mstore\n      0x20\n      dup1\n      dup4\n      keccak256\n      swap1\n      swap2\n      add\n      sload\n      sub(shl(0xa0, 0x01), 0x01)\n      and\n        /* \"contracts/kk.sol\":5931:5944  users[staker] */\n      dup1\n      dup4\n      mstore\n        /* \"contracts/kk.sol\":5931:5936  users */\n      0x03\n        /* \"contracts/kk.sol\":5931:5944  users[staker] */\n      dup3\n      mstore\n      0x40\n      dup1\n      dup5\n      keccak256\n        /* \"contracts/kk.sol\":5881:5892  allUsers[i] */\n      0x01\n        /* \"contracts/kk.sol\":5931:5951  users[staker].stakes */\n      add\n        /* \"contracts/kk.sol\":5907:5951  Stake[] memory stakes = users[staker].stakes */\n      dup1\n      sload\n      dup3\n      mload\n      dup2\n      dup7\n      mul\n      dup2\n      add\n      dup7\n      add\n      swap1\n      swap4\n      mstore\n      dup1\n      dup4\n      mstore\n        /* \"contracts/kk.sol\":5881:5892  allUsers[i] */\n      swap3\n      swap6\n      pop\n        /* \"contracts/kk.sol\":5907:5951  Stake[] memory stakes = users[staker].stakes */\n      swap1\n      swap3\n        /* \"contracts/kk.sol\":5931:5951  users[staker].stakes */\n      swap1\n      swap2\n        /* \"contracts/kk.sol\":5907:5951  Stake[] memory stakes = users[staker].stakes */\n      swap1\n        /* \"contracts/kk.sol\":5881:5892  allUsers[i] */\n      dup5\n      swap1\n        /* \"contracts/kk.sol\":5907:5951  Stake[] memory stakes = users[staker].stakes */\n      dup5\n      add\n    tag_264:\n      dup3\n      dup3\n      lt\n      iszero\n      tag_265\n      jumpi\n      dup4\n      dup3\n      swap1\n      0x00\n      mstore\n      keccak256(0x00, 0x20)\n      swap1\n      0x04\n      mul\n      add\n      mload(0x40)\n      dup1\n      0x80\n      add\n      0x40\n      mstore\n      swap1\n      dup2\n      0x00\n      dup3\n      add\n      sload\n      dup2\n      mstore\n      0x20\n      add\n      0x01\n      dup3\n      add\n      sload\n      dup2\n      mstore\n      0x20\n      add\n      0x02\n      dup3\n      add\n      sload\n      dup2\n      mstore\n      0x20\n      add\n      0x03\n      dup3\n      add\n      sload\n      dup2\n      mstore\n      pop\n      pop\n      dup2\n      mstore\n      0x20\n      add\n      swap1\n      0x01\n      add\n      swap1\n      jump(tag_264)\n    tag_265:\n      pop\n      pop\n      pop\n      pop\n      sub(shl(0xa0, 0x01), 0x01)\n        /* \"contracts/kk.sol\":5983:5996  users[staker] */\n      dup4\n      dup2\n      and\n        /* \"contracts/kk.sol\":5966:5980  address upline */\n      0x00\n        /* \"contracts/kk.sol\":5983:5996  users[staker] */\n      swap1\n      dup2\n      mstore\n        /* \"contracts/kk.sol\":5983:5988  users */\n      0x03\n        /* \"contracts/kk.sol\":5983:5996  users[staker] */\n      0x20\n      mstore\n      0x40\n      dup2\n      keccak256\n        /* \"contracts/kk.sol\":5983:6005  users[staker].referrer */\n      sload\n        /* \"contracts/kk.sol\":5907:5951  Stake[] memory stakes = users[staker].stakes */\n      swap3\n      swap4\n      pop\n        /* \"contracts/kk.sol\":5983:6005  users[staker].referrer */\n      swap2\n      and\n      swap1\n        /* \"contracts/kk.sol\":6022:6281  for (uint8 level = 0; level < levelRewards.length && upline != address(0); level++) {... */\n    tag_267:\n        /* \"contracts/kk.sol\":6052:6064  levelRewards */\n      0x07\n        /* \"contracts/kk.sol\":6052:6071  levelRewards.length */\n      sload\n        /* \"contracts/kk.sol\":6044:6071  level < levelRewards.length */\n      0xff\n      dup3\n      and\n      lt\n        /* \"contracts/kk.sol\":6044:6095  level < levelRewards.length && upline != address(0) */\n      dup1\n      iszero\n      tag_270\n      jumpi\n      pop\n      sub(shl(0xa0, 0x01), 0x01)\n        /* \"contracts/kk.sol\":6075:6095  upline != address(0) */\n      dup3\n      and\n      iszero\n      iszero\n        /* \"contracts/kk.sol\":6044:6095  level < levelRewards.length && upline != address(0) */\n    tag_270:\n        /* \"contracts/kk.sol\":6022:6281  for (uint8 level = 0; level < levelRewards.length && upline != address(0); level++) {... */\n      iszero\n      tag_268\n      jumpi\n        /* \"contracts/kk.sol\":6139:6144  _user */\n      dup8\n      sub(shl(0xa0, 0x01), 0x01)\n        /* \"contracts/kk.sol\":6129:6144  upline == _user */\n      and\n        /* \"contracts/kk.sol\":6129:6135  upline */\n      dup3\n      sub(shl(0xa0, 0x01), 0x01)\n        /* \"contracts/kk.sol\":6129:6144  upline == _user */\n      and\n      sub\n        /* \"contracts/kk.sol\":6125:6216  if (upline == _user) {... */\n      tag_271\n      jumpi\n        /* \"contracts/kk.sol\":6183:6196  stakes.length */\n      dup3\n      mload\n        /* \"contracts/kk.sol\":6169:6196  totalCount += stakes.length */\n      tag_272\n      swap1\n      dup8\n      tag_237\n      jump\t// in\n    tag_272:\n      swap6\n      pop\n        /* \"contracts/kk.sol\":6125:6216  if (upline == _user) {... */\n    tag_271:\n      sub(shl(0xa0, 0x01), 0x01)\n        /* \"contracts/kk.sol\":6243:6256  users[upline] */\n      swap2\n      dup3\n      and\n      0x00\n      swap1\n      dup2\n      mstore\n        /* \"contracts/kk.sol\":6243:6248  users */\n      0x03\n        /* \"contracts/kk.sol\":6243:6256  users[upline] */\n      0x20\n      mstore\n      0x40\n      swap1\n      keccak256\n        /* \"contracts/kk.sol\":6243:6265  users[upline].referrer */\n      sload\n      swap1\n      swap2\n      and\n      swap1\n        /* \"contracts/kk.sol\":6097:6104  level++ */\n      dup1\n      tag_273\n      dup2\n      tag_252\n      jump\t// in\n    tag_273:\n      swap2\n      pop\n      pop\n        /* \"contracts/kk.sol\":6022:6281  for (uint8 level = 0; level < levelRewards.length && upline != address(0); level++) {... */\n      jump(tag_267)\n    tag_268:\n      pop\n        /* \"contracts/kk.sol\":5849:6292  {... */\n      pop\n      pop\n      pop\n        /* \"contracts/kk.sol\":5844:5847  i++ */\n      dup1\n      dup1\n      tag_274\n      swap1\n      tag_132\n      jump\t// in\n    tag_274:\n      swap2\n      pop\n      pop\n        /* \"contracts/kk.sol\":5803:6292  for (uint256 i = 0; i < allUsers.length; i++) {... */\n      jump(tag_258)\n    tag_259:\n      pop\n        /* \"contracts/kk.sol\":6304:6339  LevelIncomeData[] memory incomeData */\n      0x00\n        /* \"contracts/kk.sol\":6364:6374  totalCount */\n      dup2\n        /* \"contracts/kk.sol\":6342:6375  new LevelIncomeData[](totalCount) */\n      0xffffffffffffffff\n      dup2\n      gt\n      iszero\n      tag_276\n      jumpi\n      tag_276\n      tag_120\n      jump\t// in\n    tag_276:\n      mload(0x40)\n      swap1\n      dup1\n      dup3\n      mstore\n      dup1\n      0x20\n      mul\n      0x20\n      add\n      dup3\n      add\n      0x40\n      mstore\n      dup1\n      iszero\n      tag_277\n      jumpi\n      dup2\n      0x20\n      add\n    tag_278:\n      tag_279\n      mload(0x40)\n      dup1\n      0xe0\n      add\n      0x40\n      mstore\n      dup1\n      and(sub(shl(0xa0, 0x01), 0x01), 0x00)\n      dup2\n      mstore\n      0x20\n      add\n      0x00\n      dup2\n      mstore\n      0x20\n      add\n      0x00\n      dup2\n      mstore\n      0x20\n      add\n      0x00\n      dup2\n      mstore\n      0x20\n      add\n      and(sub(shl(0xa0, 0x01), 0x01), 0x00)\n      dup2\n      mstore\n      0x20\n      add\n      0x00\n      dup2\n      mstore\n      0x20\n      add\n      and(0xff, 0x00)\n      dup2\n      mstore\n      pop\n      swap1\n      jump\n    tag_279:\n      dup2\n      mstore\n      0x20\n      add\n      swap1\n      0x01\n      swap1\n      sub\n      swap1\n      dup2\n      tag_278\n      jumpi\n      swap1\n      pop\n    tag_277:\n      pop\n        /* \"contracts/kk.sol\":6304:6375  LevelIncomeData[] memory incomeData = new LevelIncomeData[](totalCount) */\n      swap1\n      pop\n        /* \"contracts/kk.sol\":6386:6399  uint256 index */\n      0x00\n        /* \"contracts/kk.sol\":6421:6430  uint256 i */\n      dup1\n        /* \"contracts/kk.sol\":6416:7554  for (uint256 i = 0; i < allUsers.length; i++) {... */\n    tag_281:\n        /* \"contracts/kk.sol\":6440:6448  allUsers */\n      0x06\n        /* \"contracts/kk.sol\":6440:6455  allUsers.length */\n      sload\n        /* \"contracts/kk.sol\":6436:6455  i < allUsers.length */\n      dup2\n      lt\n        /* \"contracts/kk.sol\":6416:7554  for (uint256 i = 0; i < allUsers.length; i++) {... */\n      iszero\n      tag_282\n      jumpi\n        /* \"contracts/kk.sol\":6477:6491  address staker */\n      0x00\n        /* \"contracts/kk.sol\":6494:6502  allUsers */\n      0x06\n        /* \"contracts/kk.sol\":6503:6504  i */\n      dup3\n        /* \"contracts/kk.sol\":6494:6505  allUsers[i] */\n      dup2\n      sload\n      dup2\n      lt\n      tag_285\n      jumpi\n      tag_285\n      tag_127\n      jump\t// in\n    tag_285:\n      0x00\n      swap2\n      dup3\n      mstore\n      0x20\n      dup1\n      dup4\n      keccak256\n      swap1\n      swap2\n      add\n      sload\n      sub(shl(0xa0, 0x01), 0x01)\n      and\n        /* \"contracts/kk.sol\":6544:6557  users[staker] */\n      dup1\n      dup4\n      mstore\n        /* \"contracts/kk.sol\":6544:6549  users */\n      0x03\n        /* \"contracts/kk.sol\":6544:6557  users[staker] */\n      dup3\n      mstore\n      0x40\n      dup1\n      dup5\n      keccak256\n        /* \"contracts/kk.sol\":6494:6505  allUsers[i] */\n      0x01\n        /* \"contracts/kk.sol\":6544:6564  users[staker].stakes */\n      add\n        /* \"contracts/kk.sol\":6520:6564  Stake[] memory stakes = users[staker].stakes */\n      dup1\n      sload\n      dup3\n      mload\n      dup2\n      dup7\n      mul\n      dup2\n      add\n      dup7\n      add\n      swap1\n      swap4\n      mstore\n      dup1\n      dup4\n      mstore\n        /* \"contracts/kk.sol\":6494:6505  allUsers[i] */\n      swap3\n      swap6\n      pop\n        /* \"contracts/kk.sol\":6520:6564  Stake[] memory stakes = users[staker].stakes */\n      swap1\n      swap3\n        /* \"contracts/kk.sol\":6544:6564  users[staker].stakes */\n      swap1\n      swap2\n        /* \"contracts/kk.sol\":6520:6564  Stake[] memory stakes = users[staker].stakes */\n      swap1\n        /* \"contracts/kk.sol\":6494:6505  allUsers[i] */\n      dup5\n      swap1\n        /* \"contracts/kk.sol\":6520:6564  Stake[] memory stakes = users[staker].stakes */\n      dup5\n      add\n    tag_287:\n      dup3\n      dup3\n      lt\n      iszero\n      tag_288\n      jumpi\n      dup4\n      dup3\n      swap1\n      0x00\n      mstore\n      keccak256(0x00, 0x20)\n      swap1\n      0x04\n      mul\n      add\n      mload(0x40)\n      dup1\n      0x80\n      add\n      0x40\n      mstore\n      swap1\n      dup2\n      0x00\n      dup3\n      add\n      sload\n      dup2\n      mstore\n      0x20\n      add\n      0x01\n      dup3\n      add\n      sload\n      dup2\n      mstore\n      0x20\n      add\n      0x02\n      dup3\n      add\n      sload\n      dup2\n      mstore\n      0x20\n      add\n      0x03\n      dup3\n      add\n      sload\n      dup2\n      mstore\n      pop\n      pop\n      dup2\n      mstore\n      0x20\n      add\n      swap1\n      0x01\n      add\n      swap1\n      jump(tag_287)\n    tag_288:\n      pop\n      pop\n      pop\n      pop\n      sub(shl(0xa0, 0x01), 0x01)\n        /* \"contracts/kk.sol\":6596:6609  users[staker] */\n      dup4\n      dup2\n      and\n        /* \"contracts/kk.sol\":6579:6593  address upline */\n      0x00\n        /* \"contracts/kk.sol\":6596:6609  users[staker] */\n      swap1\n      dup2\n      mstore\n        /* \"contracts/kk.sol\":6596:6601  users */\n      0x03\n        /* \"contracts/kk.sol\":6596:6609  users[staker] */\n      0x20\n      mstore\n      0x40\n      dup2\n      keccak256\n        /* \"contracts/kk.sol\":6596:6618  users[staker].referrer */\n      sload\n        /* \"contracts/kk.sol\":6520:6564  Stake[] memory stakes = users[staker].stakes */\n      swap3\n      swap4\n      pop\n        /* \"contracts/kk.sol\":6596:6618  users[staker].referrer */\n      swap2\n      and\n      swap1\n        /* \"contracts/kk.sol\":6635:7543  for (uint8 level = 0; level < levelRewards.length && upline != address(0); level++) {... */\n    tag_290:\n        /* \"contracts/kk.sol\":6665:6677  levelRewards */\n      0x07\n        /* \"contracts/kk.sol\":6665:6684  levelRewards.length */\n      sload\n        /* \"contracts/kk.sol\":6657:6684  level < levelRewards.length */\n      0xff\n      dup3\n      and\n      lt\n        /* \"contracts/kk.sol\":6657:6708  level < levelRewards.length && upline != address(0) */\n      dup1\n      iszero\n      tag_293\n      jumpi\n      pop\n      sub(shl(0xa0, 0x01), 0x01)\n        /* \"contracts/kk.sol\":6688:6708  upline != address(0) */\n      dup3\n      and\n      iszero\n      iszero\n        /* \"contracts/kk.sol\":6657:6708  level < levelRewards.length && upline != address(0) */\n    tag_293:\n        /* \"contracts/kk.sol\":6635:7543  for (uint8 level = 0; level < levelRewards.length && upline != address(0); level++) {... */\n      iszero\n      tag_291\n      jumpi\n        /* \"contracts/kk.sol\":6752:6757  _user */\n      dup10\n      sub(shl(0xa0, 0x01), 0x01)\n        /* \"contracts/kk.sol\":6742:6757  upline == _user */\n      and\n        /* \"contracts/kk.sol\":6742:6748  upline */\n      dup3\n      sub(shl(0xa0, 0x01), 0x01)\n        /* \"contracts/kk.sol\":6742:6757  upline == _user */\n      and\n      sub\n        /* \"contracts/kk.sol\":6738:7478  if (upline == _user) {... */\n      tag_294\n      jumpi\n        /* \"contracts/kk.sol\":6787:6796  uint256 j */\n      0x00\n        /* \"contracts/kk.sol\":6782:7459  for (uint256 j = 0; j < stakes.length; j++) {... */\n    tag_295:\n        /* \"contracts/kk.sol\":6806:6812  stakes */\n      dup4\n        /* \"contracts/kk.sol\":6806:6819  stakes.length */\n      mload\n        /* \"contracts/kk.sol\":6802:6803  j */\n      dup2\n        /* \"contracts/kk.sol\":6802:6819  j < stakes.length */\n      lt\n        /* \"contracts/kk.sol\":6782:7459  for (uint256 j = 0; j < stakes.length; j++) {... */\n      iszero\n      tag_296\n      jumpi\n        /* \"contracts/kk.sol\":6853:6871  Stake memory stake */\n      0x00\n        /* \"contracts/kk.sol\":6874:6880  stakes */\n      dup5\n        /* \"contracts/kk.sol\":6881:6882  j */\n      dup3\n        /* \"contracts/kk.sol\":6874:6883  stakes[j] */\n      dup2\n      mload\n      dup2\n      lt\n      tag_299\n      jumpi\n      tag_299\n      tag_127\n      jump\t// in\n    tag_299:\n      0x20\n      mul\n      0x20\n      add\n      add\n      mload\n        /* \"contracts/kk.sol\":6853:6883  Stake memory stake = stakes[j] */\n      swap1\n      pop\n        /* \"contracts/kk.sol\":6910:6924  uint256 income */\n      0x00\n        /* \"contracts/kk.sol\":6966:6969  100 */\n      0x64\n        /* \"contracts/kk.sol\":6943:6955  levelRewards */\n      0x07\n        /* \"contracts/kk.sol\":6956:6961  level */\n      dup6\n        /* \"contracts/kk.sol\":6943:6962  levelRewards[level] */\n      0xff\n      and\n      dup2\n      sload\n      dup2\n      lt\n      tag_301\n      jumpi\n      tag_301\n      tag_127\n      jump\t// in\n    tag_301:\n      swap1\n      0x00\n      mstore\n      keccak256(0x00, 0x20)\n      swap1\n      0x20\n      swap2\n      dup3\n      dup3\n      div\n      add\n      swap2\n      swap1\n      mod\n      swap1\n      sload\n      swap1\n      0x0100\n      exp\n      swap1\n      div\n      0xff\n      and\n        /* \"contracts/kk.sol\":6928:6962  stake.amount * levelRewards[level] */\n      0xff\n      and\n        /* \"contracts/kk.sol\":6928:6933  stake */\n      dup4\n        /* \"contracts/kk.sol\":6928:6940  stake.amount */\n      0x40\n      add\n      mload\n        /* \"contracts/kk.sol\":6928:6962  stake.amount * levelRewards[level] */\n      tag_303\n      swap2\n      swap1\n      tag_229\n      jump\t// in\n    tag_303:\n        /* \"contracts/kk.sol\":6927:6969  (stake.amount * levelRewards[level]) / 100 */\n      tag_304\n      swap2\n      swap1\n      tag_231\n      jump\t// in\n    tag_304:\n        /* \"contracts/kk.sol\":6910:6969  uint256 income = (stake.amount * levelRewards[level]) / 100 */\n      swap1\n      pop\n        /* \"contracts/kk.sol\":7020:7435  LevelIncomeData({... */\n      mload(0x40)\n      dup1\n      0xe0\n      add\n      0x40\n      mstore\n      dup1\n        /* \"contracts/kk.sol\":7084:7089  _user */\n      dup15\n      sub(shl(0xa0, 0x01), 0x01)\n        /* \"contracts/kk.sol\":7020:7435  LevelIncomeData({... */\n      and\n      dup2\n      mstore\n      0x20\n      add\n        /* \"contracts/kk.sol\":7129:7134  stake */\n      dup4\n        /* \"contracts/kk.sol\":7129:7142  stake.stakeId */\n      0x00\n      add\n      mload\n        /* \"contracts/kk.sol\":7020:7435  LevelIncomeData({... */\n      dup2\n      mstore\n      0x20\n      add\n        /* \"contracts/kk.sol\":7186:7191  stake */\n      dup4\n        /* \"contracts/kk.sol\":7186:7198  stake.amount */\n      0x40\n      add\n      mload\n        /* \"contracts/kk.sol\":7020:7435  LevelIncomeData({... */\n      dup2\n      mstore\n      0x20\n      add\n        /* \"contracts/kk.sol\":7245:7251  income */\n      dup3\n        /* \"contracts/kk.sol\":7020:7435  LevelIncomeData({... */\n      dup2\n      mstore\n      0x20\n      add\n        /* \"contracts/kk.sol\":7297:7303  staker */\n      dup9\n      sub(shl(0xa0, 0x01), 0x01)\n        /* \"contracts/kk.sol\":7020:7435  LevelIncomeData({... */\n      and\n      dup2\n      mstore\n      0x20\n      add\n        /* \"contracts/kk.sol\":7345:7350  stake */\n      dup4\n        /* \"contracts/kk.sol\":7345:7360  stake.timestamp */\n      0x60\n      add\n      mload\n        /* \"contracts/kk.sol\":7020:7435  LevelIncomeData({... */\n      dup2\n      mstore\n      0x20\n      add\n        /* \"contracts/kk.sol\":7398:7403  level */\n      dup6\n        /* \"contracts/kk.sol\":7406:7407  1 */\n      0x01\n        /* \"contracts/kk.sol\":7398:7407  level + 1 */\n      tag_305\n      swap2\n      swap1\n      tag_306\n      jump\t// in\n    tag_305:\n        /* \"contracts/kk.sol\":7020:7435  LevelIncomeData({... */\n      0xff\n      and\n      swap1\n      mstore\n        /* \"contracts/kk.sol\":6998:7008  incomeData */\n      dup11\n        /* \"contracts/kk.sol\":7009:7016  index++ */\n      dup11\n      tag_307\n      dup2\n      tag_132\n      jump\t// in\n    tag_307:\n      swap12\n      pop\n        /* \"contracts/kk.sol\":6998:7017  incomeData[index++] */\n      dup2\n      mload\n      dup2\n      lt\n      tag_309\n      jumpi\n      tag_309\n      tag_127\n      jump\t// in\n    tag_309:\n      0x20\n      mul\n      0x20\n      add\n      add\n        /* \"contracts/kk.sol\":6998:7435  incomeData[index++] = LevelIncomeData({... */\n      dup2\n      swap1\n      mstore\n      pop\n        /* \"contracts/kk.sol\":6826:7459  {... */\n      pop\n      pop\n        /* \"contracts/kk.sol\":6821:6824  j++ */\n      dup1\n      dup1\n      tag_310\n      swap1\n      tag_132\n      jump\t// in\n    tag_310:\n      swap2\n      pop\n      pop\n        /* \"contracts/kk.sol\":6782:7459  for (uint256 j = 0; j < stakes.length; j++) {... */\n      jump(tag_295)\n    tag_296:\n      pop\n        /* \"contracts/kk.sol\":6738:7478  if (upline == _user) {... */\n    tag_294:\n      sub(shl(0xa0, 0x01), 0x01)\n        /* \"contracts/kk.sol\":7505:7518  users[upline] */\n      swap2\n      dup3\n      and\n      0x00\n      swap1\n      dup2\n      mstore\n        /* \"contracts/kk.sol\":7505:7510  users */\n      0x03\n        /* \"contracts/kk.sol\":7505:7518  users[upline] */\n      0x20\n      mstore\n      0x40\n      swap1\n      keccak256\n        /* \"contracts/kk.sol\":7505:7527  users[upline].referrer */\n      sload\n      swap1\n      swap2\n      and\n      swap1\n        /* \"contracts/kk.sol\":6710:6717  level++ */\n      dup1\n      tag_311\n      dup2\n      tag_252\n      jump\t// in\n    tag_311:\n      swap2\n      pop\n      pop\n        /* \"contracts/kk.sol\":6635:7543  for (uint8 level = 0; level < levelRewards.length && upline != address(0); level++) {... */\n      jump(tag_290)\n    tag_291:\n      pop\n        /* \"contracts/kk.sol\":6462:7554  {... */\n      pop\n      pop\n      pop\n        /* \"contracts/kk.sol\":6457:6460  i++ */\n      dup1\n      dup1\n      tag_312\n      swap1\n      tag_132\n      jump\t// in\n    tag_312:\n      swap2\n      pop\n      pop\n        /* \"contracts/kk.sol\":6416:7554  for (uint256 i = 0; i < allUsers.length; i++) {... */\n      jump(tag_281)\n    tag_282:\n      pop\n        /* \"contracts/kk.sol\":7573:7583  incomeData */\n      swap1\n      swap5\n        /* \"contracts/kk.sol\":5657:7591  function getLevelIncomeDistribution(address _user) external view returns (LevelIncomeData[] memory) {... */\n      swap4\n      pop\n      pop\n      pop\n      pop\n      jump\t// out\n        /* \"#utility.yul\":14:187   */\n    tag_313:\n        /* \"#utility.yul\":82:102   */\n      dup1\n      calldataload\n      sub(shl(0xa0, 0x01), 0x01)\n        /* \"#utility.yul\":131:162   */\n      dup2\n      and\n        /* \"#utility.yul\":121:163   */\n      dup2\n      eq\n        /* \"#utility.yul\":111:181   */\n      tag_318\n      jumpi\n        /* \"#utility.yul\":177:178   */\n      0x00\n        /* \"#utility.yul\":174:175   */\n      dup1\n        /* \"#utility.yul\":167:179   */\n      revert\n        /* \"#utility.yul\":111:181   */\n    tag_318:\n        /* \"#utility.yul\":14:187   */\n      swap2\n      swap1\n      pop\n      jump\t// out\n        /* \"#utility.yul\":192:446   */\n    tag_28:\n        /* \"#utility.yul\":260:266   */\n      0x00\n        /* \"#utility.yul\":268:274   */\n      dup1\n        /* \"#utility.yul\":321:323   */\n      0x40\n        /* \"#utility.yul\":309:318   */\n      dup4\n        /* \"#utility.yul\":300:307   */\n      dup6\n        /* \"#utility.yul\":296:319   */\n      sub\n        /* \"#utility.yul\":292:324   */\n      slt\n        /* \"#utility.yul\":289:341   */\n      iszero\n      tag_320\n      jumpi\n        /* \"#utility.yul\":337:338   */\n      0x00\n        /* \"#utility.yul\":334:335   */\n      dup1\n        /* \"#utility.yul\":327:339   */\n      revert\n        /* \"#utility.yul\":289:341   */\n    tag_320:\n        /* \"#utility.yul\":360:389   */\n      tag_321\n        /* \"#utility.yul\":379:388   */\n      dup4\n        /* \"#utility.yul\":360:389   */\n      tag_313\n      jump\t// in\n    tag_321:\n        /* \"#utility.yul\":350:389   */\n      swap5\n        /* \"#utility.yul\":436:438   */\n      0x20\n        /* \"#utility.yul\":421:439   */\n      swap4\n      swap1\n      swap4\n      add\n        /* \"#utility.yul\":408:440   */\n      calldataload\n      swap4\n      pop\n      pop\n      pop\n        /* \"#utility.yul\":192:446   */\n      jump\t// out\n        /* \"#utility.yul\":801:981   */\n    tag_34:\n        /* \"#utility.yul\":860:866   */\n      0x00\n        /* \"#utility.yul\":913:915   */\n      0x20\n        /* \"#utility.yul\":901:910   */\n      dup3\n        /* \"#utility.yul\":892:899   */\n      dup5\n        /* \"#utility.yul\":888:911   */\n      sub\n        /* \"#utility.yul\":884:916   */\n      slt\n        /* \"#utility.yul\":881:933   */\n      iszero\n      tag_324\n      jumpi\n        /* \"#utility.yul\":929:930   */\n      0x00\n        /* \"#utility.yul\":926:927   */\n      dup1\n        /* \"#utility.yul\":919:931   */\n      revert\n        /* \"#utility.yul\":881:933   */\n    tag_324:\n      pop\n        /* \"#utility.yul\":952:975   */\n      calldataload\n      swap2\n        /* \"#utility.yul\":801:981   */\n      swap1\n      pop\n      jump\t// out\n        /* \"#utility.yul\":1194:1380   */\n    tag_40:\n        /* \"#utility.yul\":1253:1259   */\n      0x00\n        /* \"#utility.yul\":1306:1308   */\n      0x20\n        /* \"#utility.yul\":1294:1303   */\n      dup3\n        /* \"#utility.yul\":1285:1292   */\n      dup5\n        /* \"#utility.yul\":1281:1304   */\n      sub\n        /* \"#utility.yul\":1277:1309   */\n      slt\n        /* \"#utility.yul\":1274:1326   */\n      iszero\n      tag_327\n      jumpi\n        /* \"#utility.yul\":1322:1323   */\n      0x00\n        /* \"#utility.yul\":1319:1320   */\n      dup1\n        /* \"#utility.yul\":1312:1324   */\n      revert\n        /* \"#utility.yul\":1274:1326   */\n    tag_327:\n        /* \"#utility.yul\":1345:1374   */\n      tag_328\n        /* \"#utility.yul\":1364:1373   */\n      dup3\n        /* \"#utility.yul\":1345:1374   */\n      tag_313\n      jump\t// in\n    tag_328:\n        /* \"#utility.yul\":1335:1374   */\n      swap4\n        /* \"#utility.yul\":1194:1380   */\n      swap3\n      pop\n      pop\n      pop\n      jump\t// out\n        /* \"#utility.yul\":1574:2009   */\n    tag_314:\n        /* \"#utility.yul\":1627:1630   */\n      0x00\n        /* \"#utility.yul\":1665:1670   */\n      dup2\n        /* \"#utility.yul\":1659:1671   */\n      mload\n        /* \"#utility.yul\":1692:1698   */\n      dup1\n        /* \"#utility.yul\":1687:1690   */\n      dup5\n        /* \"#utility.yul\":1680:1699   */\n      mstore\n        /* \"#utility.yul\":1718:1722   */\n      0x20\n        /* \"#utility.yul\":1747:1749   */\n      dup1\n        /* \"#utility.yul\":1742:1745   */\n      dup6\n        /* \"#utility.yul\":1738:1750   */\n      add\n        /* \"#utility.yul\":1731:1750   */\n      swap5\n      pop\n        /* \"#utility.yul\":1784:1786   */\n      dup1\n        /* \"#utility.yul\":1777:1782   */\n      dup5\n        /* \"#utility.yul\":1773:1787   */\n      add\n        /* \"#utility.yul\":1805:1806   */\n      0x00\n        /* \"#utility.yul\":1815:1984   */\n    tag_331:\n        /* \"#utility.yul\":1829:1835   */\n      dup4\n        /* \"#utility.yul\":1826:1827   */\n      dup2\n        /* \"#utility.yul\":1823:1836   */\n      lt\n        /* \"#utility.yul\":1815:1984   */\n      iszero\n      tag_333\n      jumpi\n        /* \"#utility.yul\":1890:1903   */\n      dup2\n      mload\n        /* \"#utility.yul\":1878:1904   */\n      dup8\n      mstore\n        /* \"#utility.yul\":1924:1936   */\n      swap6\n      dup3\n      add\n      swap6\n        /* \"#utility.yul\":1959:1974   */\n      swap1\n      dup3\n      add\n      swap1\n        /* \"#utility.yul\":1851:1852   */\n      0x01\n        /* \"#utility.yul\":1844:1853   */\n      add\n        /* \"#utility.yul\":1815:1984   */\n      jump(tag_331)\n    tag_333:\n      pop\n        /* \"#utility.yul\":2000:2003   */\n      swap5\n      swap6\n        /* \"#utility.yul\":1574:2009   */\n      swap5\n      pop\n      pop\n      pop\n      pop\n      pop\n      jump\t// out\n        /* \"#utility.yul\":2014:2275   */\n    tag_48:\n        /* \"#utility.yul\":2193:2195   */\n      0x20\n        /* \"#utility.yul\":2182:2191   */\n      dup2\n        /* \"#utility.yul\":2175:2196   */\n      mstore\n        /* \"#utility.yul\":2156:2160   */\n      0x00\n        /* \"#utility.yul\":2213:2269   */\n      tag_328\n        /* \"#utility.yul\":2265:2267   */\n      0x20\n        /* \"#utility.yul\":2254:2263   */\n      dup4\n        /* \"#utility.yul\":2250:2268   */\n      add\n        /* \"#utility.yul\":2242:2248   */\n      dup5\n        /* \"#utility.yul\":2213:2269   */\n      tag_314\n      jump\t// in\n        /* \"#utility.yul\":2884:3921   */\n    tag_75:\n        /* \"#utility.yul\":3230:3232   */\n      0x60\n        /* \"#utility.yul\":3242:3263   */\n      dup1\n      dup3\n      mstore\n        /* \"#utility.yul\":3312:3325   */\n      dup5\n      mload\n        /* \"#utility.yul\":3215:3233   */\n      swap1\n      dup3\n      add\n        /* \"#utility.yul\":3334:3356   */\n      dup2\n      swap1\n      mstore\n        /* \"#utility.yul\":3182:3186   */\n      0x00\n      swap1\n        /* \"#utility.yul\":3410:3414   */\n      0x20\n      swap1\n        /* \"#utility.yul\":3387:3390   */\n      0x80\n        /* \"#utility.yul\":3372:3391   */\n      dup5\n      add\n      swap1\n        /* \"#utility.yul\":3437:3452   */\n      dup3\n      dup9\n      add\n        /* \"#utility.yul\":3182:3186   */\n      dup5\n        /* \"#utility.yul\":3480:3675   */\n    tag_339:\n        /* \"#utility.yul\":3494:3500   */\n      dup3\n        /* \"#utility.yul\":3491:3492   */\n      dup2\n        /* \"#utility.yul\":3488:3501   */\n      lt\n        /* \"#utility.yul\":3480:3675   */\n      iszero\n      tag_341\n      jumpi\n        /* \"#utility.yul\":3559:3572   */\n      dup2\n      mload\n      sub(shl(0xa0, 0x01), 0x01)\n        /* \"#utility.yul\":3555:3594   */\n      and\n        /* \"#utility.yul\":3543:3595   */\n      dup5\n      mstore\n        /* \"#utility.yul\":3615:3627   */\n      swap3\n      dup5\n      add\n      swap3\n        /* \"#utility.yul\":3650:3665   */\n      swap1\n      dup5\n      add\n      swap1\n        /* \"#utility.yul\":3591:3592   */\n      0x01\n        /* \"#utility.yul\":3509:3518   */\n      add\n        /* \"#utility.yul\":3480:3675   */\n      jump(tag_339)\n    tag_341:\n        /* \"#utility.yul\":3484:3487   */\n      pop\n      pop\n      pop\n        /* \"#utility.yul\":3720:3729   */\n      dup4\n        /* \"#utility.yul\":3715:3718   */\n      dup2\n        /* \"#utility.yul\":3711:3730   */\n      sub\n        /* \"#utility.yul\":3706:3708   */\n      dup3\n        /* \"#utility.yul\":3695:3704   */\n      dup6\n        /* \"#utility.yul\":3691:3709   */\n      add\n        /* \"#utility.yul\":3684:3731   */\n      mstore\n        /* \"#utility.yul\":3754:3795   */\n      tag_342\n        /* \"#utility.yul\":3791:3794   */\n      dup2\n        /* \"#utility.yul\":3783:3789   */\n      dup8\n        /* \"#utility.yul\":3754:3795   */\n      tag_314\n      jump\t// in\n    tag_342:\n        /* \"#utility.yul\":3740:3795   */\n      swap2\n      pop\n      pop\n        /* \"#utility.yul\":3843:3852   */\n      dup3\n        /* \"#utility.yul\":3835:3841   */\n      dup2\n        /* \"#utility.yul\":3831:3853   */\n      sub\n        /* \"#utility.yul\":3826:3828   */\n      0x40\n        /* \"#utility.yul\":3815:3824   */\n      dup5\n        /* \"#utility.yul\":3811:3829   */\n      add\n        /* \"#utility.yul\":3804:3854   */\n      mstore\n        /* \"#utility.yul\":3871:3915   */\n      tag_343\n        /* \"#utility.yul\":3908:3914   */\n      dup2\n        /* \"#utility.yul\":3900:3906   */\n      dup6\n        /* \"#utility.yul\":3871:3915   */\n      tag_314\n      jump\t// in\n    tag_343:\n        /* \"#utility.yul\":3863:3915   */\n      swap7\n        /* \"#utility.yul\":2884:3921   */\n      swap6\n      pop\n      pop\n      pop\n      pop\n      pop\n      pop\n      jump\t// out\n        /* \"#utility.yul\":4147:5393   */\n    tag_107:\n        /* \"#utility.yul\":4380:4382   */\n      0x20\n        /* \"#utility.yul\":4432:4453   */\n      dup1\n      dup3\n      mstore\n        /* \"#utility.yul\":4502:4515   */\n      dup3\n      mload\n        /* \"#utility.yul\":4405:4423   */\n      dup3\n      dup3\n      add\n        /* \"#utility.yul\":4524:4546   */\n      dup2\n      swap1\n      mstore\n        /* \"#utility.yul\":4351:4355   */\n      0x00\n      swap2\n        /* \"#utility.yul\":4380:4382   */\n      swap1\n        /* \"#utility.yul\":4565:4567   */\n      0x40\n      swap1\n        /* \"#utility.yul\":4583:4601   */\n      dup2\n      dup6\n      add\n      swap1\n        /* \"#utility.yul\":4624:4639   */\n      dup7\n      dup5\n      add\n        /* \"#utility.yul\":4351:4355   */\n      dup6\n        /* \"#utility.yul\":4667:5367   */\n    tag_346:\n        /* \"#utility.yul\":4681:4687   */\n      dup3\n        /* \"#utility.yul\":4678:4679   */\n      dup2\n        /* \"#utility.yul\":4675:4688   */\n      lt\n        /* \"#utility.yul\":4667:5367   */\n      iszero\n      tag_348\n      jumpi\n        /* \"#utility.yul\":4740:4753   */\n      dup2\n      mload\n        /* \"#utility.yul\":4824:4833   */\n      dup1\n      mload\n      sub(shl(0xa0, 0x01), 0x01)\n        /* \"#utility.yul\":4820:4838   */\n      swap1\n      dup2\n      and\n        /* \"#utility.yul\":4808:4839   */\n      dup7\n      mstore\n        /* \"#utility.yul\":4879:4890   */\n      dup8\n      dup3\n      add\n        /* \"#utility.yul\":4873:4891   */\n      mload\n        /* \"#utility.yul\":4859:4871   */\n      dup9\n      dup8\n      add\n        /* \"#utility.yul\":4852:4892   */\n      mstore\n        /* \"#utility.yul\":4932:4943   */\n      dup7\n      dup3\n      add\n        /* \"#utility.yul\":4926:4944   */\n      mload\n        /* \"#utility.yul\":4912:4924   */\n      dup8\n      dup8\n      add\n        /* \"#utility.yul\":4905:4945   */\n      mstore\n        /* \"#utility.yul\":4968:4972   */\n      0x60\n        /* \"#utility.yul\":5012:5023   */\n      dup1\n      dup4\n      add\n        /* \"#utility.yul\":5006:5024   */\n      mload\n        /* \"#utility.yul\":4992:5004   */\n      swap1\n      dup8\n      add\n        /* \"#utility.yul\":4985:5025   */\n      mstore\n        /* \"#utility.yul\":5048:5052   */\n      0x80\n        /* \"#utility.yul\":5096:5107   */\n      dup1\n      dup4\n      add\n        /* \"#utility.yul\":5090:5108   */\n      mload\n        /* \"#utility.yul\":5086:5113   */\n      swap1\n      swap2\n      and\n        /* \"#utility.yul\":5072:5084   */\n      swap1\n      dup7\n      add\n        /* \"#utility.yul\":5065:5114   */\n      mstore\n        /* \"#utility.yul\":4784:4787   */\n      0xa0\n        /* \"#utility.yul\":5181:5192   */\n      dup1\n      dup3\n      add\n        /* \"#utility.yul\":5175:5193   */\n      mload\n        /* \"#utility.yul\":5161:5173   */\n      swap1\n      dup7\n      add\n        /* \"#utility.yul\":5154:5194   */\n      mstore\n        /* \"#utility.yul\":5217:5221   */\n      0xc0\n        /* \"#utility.yul\":5265:5276   */\n      swap1\n      dup2\n      add\n        /* \"#utility.yul\":5259:5277   */\n      mload\n        /* \"#utility.yul\":5279:5283   */\n      0xff\n        /* \"#utility.yul\":5255:5284   */\n      and\n        /* \"#utility.yul\":5241:5253   */\n      swap1\n      dup6\n      add\n        /* \"#utility.yul\":5234:5285   */\n      mstore\n        /* \"#utility.yul\":5314:5318   */\n      0xe0\n        /* \"#utility.yul\":5305:5319   */\n      swap1\n      swap4\n      add\n      swap3\n        /* \"#utility.yul\":5342:5357   */\n      swap1\n      dup6\n      add\n      swap1\n        /* \"#utility.yul\":4793:4794   */\n      0x01\n        /* \"#utility.yul\":4696:4705   */\n      add\n        /* \"#utility.yul\":4667:5367   */\n      jump(tag_346)\n    tag_348:\n      pop\n        /* \"#utility.yul\":5384:5387   */\n      swap2\n      swap8\n        /* \"#utility.yul\":4147:5393   */\n      swap7\n      pop\n      pop\n      pop\n      pop\n      pop\n      pop\n      pop\n      jump\t// out\n        /* \"#utility.yul\":5398:5525   */\n    tag_120:\n        /* \"#utility.yul\":5459:5469   */\n      0x4e487b71\n        /* \"#utility.yul\":5454:5457   */\n      0xe0\n        /* \"#utility.yul\":5450:5470   */\n      shl\n        /* \"#utility.yul\":5447:5448   */\n      0x00\n        /* \"#utility.yul\":5440:5471   */\n      mstore\n        /* \"#utility.yul\":5490:5494   */\n      0x41\n        /* \"#utility.yul\":5487:5488   */\n      0x04\n        /* \"#utility.yul\":5480:5495   */\n      mstore\n        /* \"#utility.yul\":5514:5518   */\n      0x24\n        /* \"#utility.yul\":5511:5512   */\n      0x00\n        /* \"#utility.yul\":5504:5519   */\n      revert\n        /* \"#utility.yul\":5530:5657   */\n    tag_127:\n        /* \"#utility.yul\":5591:5601   */\n      0x4e487b71\n        /* \"#utility.yul\":5586:5589   */\n      0xe0\n        /* \"#utility.yul\":5582:5602   */\n      shl\n        /* \"#utility.yul\":5579:5580   */\n      0x00\n        /* \"#utility.yul\":5572:5603   */\n      mstore\n        /* \"#utility.yul\":5622:5626   */\n      0x32\n        /* \"#utility.yul\":5619:5620   */\n      0x04\n        /* \"#utility.yul\":5612:5627   */\n      mstore\n        /* \"#utility.yul\":5646:5650   */\n      0x24\n        /* \"#utility.yul\":5643:5644   */\n      0x00\n        /* \"#utility.yul\":5636:5651   */\n      revert\n        /* \"#utility.yul\":5662:5789   */\n    tag_315:\n        /* \"#utility.yul\":5723:5733   */\n      0x4e487b71\n        /* \"#utility.yul\":5718:5721   */\n      0xe0\n        /* \"#utility.yul\":5714:5734   */\n      shl\n        /* \"#utility.yul\":5711:5712   */\n      0x00\n        /* \"#utility.yul\":5704:5735   */\n      mstore\n        /* \"#utility.yul\":5754:5758   */\n      0x11\n        /* \"#utility.yul\":5751:5752   */\n      0x04\n        /* \"#utility.yul\":5744:5759   */\n      mstore\n        /* \"#utility.yul\":5778:5782   */\n      0x24\n        /* \"#utility.yul\":5775:5776   */\n      0x00\n        /* \"#utility.yul\":5768:5783   */\n      revert\n        /* \"#utility.yul\":5794:5929   */\n    tag_132:\n        /* \"#utility.yul\":5833:5836   */\n      0x00\n        /* \"#utility.yul\":5854:5871   */\n      0x01\n      dup3\n      add\n        /* \"#utility.yul\":5851:5894   */\n      tag_354\n      jumpi\n        /* \"#utility.yul\":5874:5892   */\n      tag_354\n      tag_315\n      jump\t// in\n    tag_354:\n      pop\n        /* \"#utility.yul\":5921:5922   */\n      0x01\n        /* \"#utility.yul\":5910:5923   */\n      add\n      swap1\n        /* \"#utility.yul\":5794:5929   */\n      jump\t// out\n        /* \"#utility.yul\":6565:6842   */\n    tag_142:\n        /* \"#utility.yul\":6632:6638   */\n      0x00\n        /* \"#utility.yul\":6685:6687   */\n      0x20\n        /* \"#utility.yul\":6673:6682   */\n      dup3\n        /* \"#utility.yul\":6664:6671   */\n      dup5\n        /* \"#utility.yul\":6660:6683   */\n      sub\n        /* \"#utility.yul\":6656:6688   */\n      slt\n        /* \"#utility.yul\":6653:6705   */\n      iszero\n      tag_358\n      jumpi\n        /* \"#utility.yul\":6701:6702   */\n      0x00\n        /* \"#utility.yul\":6698:6699   */\n      dup1\n        /* \"#utility.yul\":6691:6703   */\n      revert\n        /* \"#utility.yul\":6653:6705   */\n    tag_358:\n        /* \"#utility.yul\":6733:6742   */\n      dup2\n        /* \"#utility.yul\":6727:6743   */\n      mload\n        /* \"#utility.yul\":6786:6791   */\n      dup1\n        /* \"#utility.yul\":6779:6792   */\n      iszero\n        /* \"#utility.yul\":6772:6793   */\n      iszero\n        /* \"#utility.yul\":6765:6770   */\n      dup2\n        /* \"#utility.yul\":6762:6794   */\n      eq\n        /* \"#utility.yul\":6752:6812   */\n      tag_328\n      jumpi\n        /* \"#utility.yul\":6808:6809   */\n      0x00\n        /* \"#utility.yul\":6805:6806   */\n      dup1\n        /* \"#utility.yul\":6798:6810   */\n      revert\n        /* \"#utility.yul\":9324:9492   */\n    tag_229:\n        /* \"#utility.yul\":9397:9406   */\n      dup1\n      dup3\n      mul\n        /* \"#utility.yul\":9428:9437   */\n      dup2\n      iszero\n        /* \"#utility.yul\":9445:9460   */\n      dup3\n      dup3\n      div\n        /* \"#utility.yul\":9439:9461   */\n      dup5\n      eq\n        /* \"#utility.yul\":9425:9462   */\n      or\n        /* \"#utility.yul\":9415:9486   */\n      tag_369\n      jumpi\n        /* \"#utility.yul\":9466:9484   */\n      tag_369\n      tag_315\n      jump\t// in\n    tag_369:\n        /* \"#utility.yul\":9324:9492   */\n      swap3\n      swap2\n      pop\n      pop\n      jump\t// out\n        /* \"#utility.yul\":9497:9714   */\n    tag_231:\n        /* \"#utility.yul\":9537:9538   */\n      0x00\n        /* \"#utility.yul\":9563:9564   */\n      dup3\n        /* \"#utility.yul\":9553:9685   */\n      tag_371\n      jumpi\n        /* \"#utility.yul\":9607:9617   */\n      0x4e487b71\n        /* \"#utility.yul\":9602:9605   */\n      0xe0\n        /* \"#utility.yul\":9598:9618   */\n      shl\n        /* \"#utility.yul\":9595:9596   */\n      0x00\n        /* \"#utility.yul\":9588:9619   */\n      mstore\n        /* \"#utility.yul\":9642:9646   */\n      0x12\n        /* \"#utility.yul\":9639:9640   */\n      0x04\n        /* \"#utility.yul\":9632:9647   */\n      mstore\n        /* \"#utility.yul\":9670:9674   */\n      0x24\n        /* \"#utility.yul\":9667:9668   */\n      0x00\n        /* \"#utility.yul\":9660:9675   */\n      revert\n        /* \"#utility.yul\":9553:9685   */\n    tag_371:\n      pop\n        /* \"#utility.yul\":9699:9708   */\n      div\n      swap1\n        /* \"#utility.yul\":9497:9714   */\n      jump\t// out\n        /* \"#utility.yul\":9719:9844   */\n    tag_237:\n        /* \"#utility.yul\":9784:9793   */\n      dup1\n      dup3\n      add\n        /* \"#utility.yul\":9805:9815   */\n      dup1\n      dup3\n      gt\n        /* \"#utility.yul\":9802:9838   */\n      iszero\n      tag_369\n      jumpi\n        /* \"#utility.yul\":9818:9836   */\n      tag_369\n      tag_315\n      jump\t// in\n        /* \"#utility.yul\":9849:10024   */\n    tag_252:\n        /* \"#utility.yul\":9886:9889   */\n      0x00\n        /* \"#utility.yul\":9930:9934   */\n      0xff\n        /* \"#utility.yul\":9923:9928   */\n      dup3\n        /* \"#utility.yul\":9919:9935   */\n      and\n        /* \"#utility.yul\":9959:9963   */\n      0xff\n        /* \"#utility.yul\":9950:9957   */\n      dup2\n        /* \"#utility.yul\":9947:9964   */\n      sub\n        /* \"#utility.yul\":9944:9987   */\n      tag_377\n      jumpi\n        /* \"#utility.yul\":9967:9985   */\n      tag_377\n      tag_315\n      jump\t// in\n    tag_377:\n        /* \"#utility.yul\":10016:10017   */\n      0x01\n        /* \"#utility.yul\":10003:10018   */\n      add\n      swap3\n        /* \"#utility.yul\":9849:10024   */\n      swap2\n      pop\n      pop\n      jump\t// out\n        /* \"#utility.yul\":10029:10177   */\n    tag_306:\n        /* \"#utility.yul\":10117:10121   */\n      0xff\n        /* \"#utility.yul\":10096:10108   */\n      dup2\n      dup2\n      and\n        /* \"#utility.yul\":10110:10122   */\n      dup4\n      dup3\n      and\n        /* \"#utility.yul\":10092:10123   */\n      add\n      swap1\n        /* \"#utility.yul\":10135:10148   */\n      dup2\n      gt\n        /* \"#utility.yul\":10132:10171   */\n      iszero\n      tag_369\n      jumpi\n        /* \"#utility.yul\":10151:10169   */\n      tag_369\n      tag_315\n      jump\t// in\n\n    auxdata: 0xa264697066735822122091a69a612d646fa51536a9d7ea891cdb84f9c16d6565f7025471e4023febfea464736f6c63430008140033\n}\n",
				"bytecode": {
					"linkReferences": {},
					"object": "60e060405260056080908152600360a0819052600260c052620000259160079162000088565b5034801562000032575f80fd5b50604051620018b4380380620018b4833981016040819052620000559162000146565b5f8054336001600160a01b031991821617909155600280549091166001600160a01b039290921691909117905562000175565b828054828255905f5260205f2090601f016020900481019282156200011e579160200282015f5b83821115620000ee57835183826101000a81548160ff021916908360ff16021790555092602001926001016020815f01049283019260010302620000af565b80156200011c5782816101000a81549060ff02191690556001016020815f01049283019260010302620000ee565b505b506200012c92915062000130565b5090565b5b808211156200012c575f815560010162000131565b5f6020828403121562000157575f80fd5b81516001600160a01b03811681146200016e575f80fd5b9392505050565b61173180620001835f395ff3fe608060405234801561000f575f80fd5b5060043610610127575f3560e01c80639d747bad116100a9578063c2d3c6771161006e578063c2d3c67714610336578063c5b89c0a14610361578063e45a57d01461038d578063ef71ae56146103a0578063f7b17d10146103c0575f80fd5b80639d747bad146102a2578063a2bdedf4146102c4578063a694fc3a146102d7578063a87430ba146102ea578063a98ad46c14610323575f80fd5b80634420e486116100ef5780634420e48614610202578063797c7f5f146102155780638da5cb5b1461025257806398278efb146102645780639be572f61461029a575f80fd5b806305ad39351461012b5780631e43eb271461016857806321923bde146101a857806328fe7031146101cd5780633ea521ef146101ed575b5f80fd5b61013e610139366004611452565b6103c9565b604080516001600160a01b0390941684526020840192909252908201526060015b60405180910390f35b61019061017636600461147a565b60056020525f90815260409020546001600160a01b031681565b6040516001600160a01b03909116815260200161015f565b6101bb6101b6366004611491565b610411565b60405160ff909116815260200161015f565b6101e06101db366004611491565b610464565b60405161015f91906114ea565b6102006101fb36600461147a565b610544565b005b610200610210366004611491565b61061b565b61022861022336600461147a565b610785565b604080516001600160a01b039095168552602085019390935291830152606082015260800161015f565b5f54610190906001600160a01b031681565b61028c610272366004611491565b6001600160a01b03165f9081526004602052604090205490565b60405190815260200161015f565b60065461028c565b6102b56102b0366004611491565b610966565b60405161015f939291906114fc565b6101906102d236600461147a565b610b5d565b6102006102e536600461147a565b610b85565b61013e6102f8366004611491565b600360208190525f91825260409091208054600282015491909201546001600160a01b039092169183565b600254610190906001600160a01b031681565b61028c610344366004611491565b6001600160a01b03165f9081526003602052604090206002015490565b61028c61036f366004611491565b6001600160a01b03165f908152600360208190526040909120015490565b6101bb61039b36600461147a565b610f76565b6103b36103ae366004611491565b610fa7565b60405161015f9190611570565b61028c60015481565b6004602052815f5260405f2081815481106103e2575f80fd5b5f9182526020909120600390910201805460018201546002909201546001600160a01b03909116935090915083565b6001600160a01b0381165f90815260046020526040812054600a811061043a5750600392915050565b6005811061044b5750600292915050565b6001811061045c5750600192915050565b505f92915050565b6001600160a01b0381165f908152600360205260408120600101546060918167ffffffffffffffff81111561049b5761049b611602565b6040519080825280602002602001820160405280156104c4578160200160208202803683370190505b5090505f5b8281101561053c576001600160a01b0385165f9081526003602052604090206001018054829081106104fd576104fd611616565b905f5260205f2090600402016001015482828151811061051f5761051f611616565b6020908102919091010152806105348161163e565b9150506104c9565b509392505050565b5f546001600160a01b031633146105a25760405162461bcd60e51b815260206004820152601760248201527f4f6e6c79206f776e65722063616e20776974686472617700000000000000000060448201526064015b60405180910390fd5b6002545f5460405163a9059cbb60e01b81526001600160a01b0391821660048201526024810184905291169063a9059cbb906044016020604051808303815f875af11580156105f3573d5f803e3d5ffd5b505050506040513d601f19601f820116820180604052508101906106179190611656565b5050565b335f908152600360205260409020546001600160a01b0316156106755760405162461bcd60e51b8152602060048201526012602482015271105b1c9958591e481c9959da5cdd195c995960721b6044820152606401610599565b336001600160a01b038216036106c55760405162461bcd60e51b815260206004820152601560248201527421b0b73737ba103932b332b9103cb7bab939b2b63360591b6044820152606401610599565b335f81815260036020818152604080842080546001600160a01b039788166001600160a01b031991821681179092556006805460018181019092557ff652222313e28459528d920b65115c16c04f3efc82aaedc97be59f3f377c0d3f0180548316891790559186526004845282862083516060810185529788528785018781524294890194855281548085018355918852949096209651959094029095018054949096169390921692909217845590519183019190915551600290910155565b5f818152600560205260408120548190819081906001600160a01b0316806107e45760405162461bcd60e51b8152602060048201526012602482015271125b9d985b1a59081c1bdcda5d1a5bdb925960721b6044820152606401610599565b6001600160a01b0381165f90815260036020908152604080832060010180548251818502810185019093528083529192909190849084015b82821015610873578382905f5260205f2090600402016040518060800160405290815f820154815260200160018201548152602001600282015481526020016003820154815250508152602001906001019061081c565b5050505090505f5b8151811015610924578782828151811061089757610897611616565b6020026020010151602001510361091257828282815181106108bb576108bb611616565b60200260200101515f01518383815181106108d8576108d8611616565b6020026020010151604001518484815181106108f6576108f6611616565b602002602001015160600151965096509650965050505061095f565b8061091c8161163e565b91505061087b565b5060405162461bcd60e51b815260206004820152600f60248201526e14dd185ad9481b9bdd08199bdd5b99608a1b6044820152606401610599565b9193509193565b6001600160a01b0381165f908152600460205260409020805460609182918291908067ffffffffffffffff8111156109a0576109a0611602565b6040519080825280602002602001820160405280156109c9578160200160208202803683370190505b5094508067ffffffffffffffff8111156109e5576109e5611602565b604051908082528060200260200182016040528015610a0e578160200160208202803683370190505b5093508067ffffffffffffffff811115610a2a57610a2a611602565b604051908082528060200260200182016040528015610a53578160200160208202803683370190505b5092505f5b81811015610b5357828181548110610a7257610a72611616565b5f91825260209091206003909102015486516001600160a01b0390911690879083908110610aa257610aa2611616565b60200260200101906001600160a01b031690816001600160a01b031681525050828181548110610ad457610ad4611616565b905f5260205f20906003020160010154858281518110610af657610af6611616565b602002602001018181525050828181548110610b1457610b14611616565b905f5260205f20906003020160020154848281518110610b3657610b36611616565b602090810291909101015280610b4b8161163e565b915050610a58565b5050509193909250565b60068181548110610b6c575f80fd5b5f918252602090912001546001600160a01b0316905081565b5f8111610bd45760405162461bcd60e51b815260206004820152601c60248201527f5374616b65206d7573742062652067726561746572207468616e2030000000006044820152606401610599565b335f908152600360205260409020546001600160a01b0316610c385760405162461bcd60e51b815260206004820152601760248201527f55736572206d75737420626520726567697374657265640000000000000000006044820152606401610599565b6002546040516323b872dd60e01b8152336004820152306024820152604481018390526001600160a01b03909116906323b872dd906064016020604051808303815f875af1158015610c8c573d5f803e3d5ffd5b505050506040513d601f19601f82011682018060405250810190610cb09190611656565b505f60015f8154610cc09061163e565b9182905550335f81815260036020818152604080842081516080810183526001805482528185018981528285018c8152426060850190815283860180548086018255908b52888b20955160049091029095019485559151928401929092559051600283015551908501558685526005835290842080546001600160a01b031916861790559383525290549192506001600160a01b03909116905b60075460ff8216108015610d7657506001600160a01b03821615155b15610f70575f606460078360ff1681548110610d9457610d94611616565b5f91825260209182902091810490910154610dbb91601f166101000a900460ff1687611675565b610dc59190611692565b60025460405163a9059cbb60e01b81526001600160a01b0386811660048301526024820184905292935091169063a9059cbb906044016020604051808303815f875af1158015610e17573d5f803e3d5ffd5b505050506040513d601f19601f82011682018060405250810190610e3b9190611656565b506001600160a01b0383165f9081526003602052604081206002018054839290610e669084906116b1565b90915550506001600160a01b0383165f9081526003602081905260408220018054839290610e959084906116b1565b90915550506001600160a01b0383165f908152600460205260408120905b8154811015610f3e57336001600160a01b0316828281548110610ed857610ed8611616565b5f9182526020909120600390910201546001600160a01b031603610f2c5782828281548110610f0957610f09611616565b905f5260205f2090600302016001015f828254610f2691906116b1565b90915550505b80610f368161163e565b915050610eb3565b5050506001600160a01b039182165f908152600360205260409020549091169080610f68816116c4565b915050610d5a565b50505050565b60078181548110610f85575f80fd5b905f5260205f209060209182820401919006915054906101000a900460ff1681565b60605f805b600654811015611117575f60068281548110610fca57610fca611616565b5f9182526020808320909101546001600160a01b031680835260038252604080842060010180548251818602810186019093528083529295509092909190849084015b82821015611064578382905f5260205f2090600402016040518060800160405290815f820154815260200160018201548152602001600282015481526020016003820154815250508152602001906001019061100d565b505050506001600160a01b038381165f908152600360205260408120549293509116905b60075460ff82161080156110a457506001600160a01b03821615155b1561110057876001600160a01b0316826001600160a01b0316036110d15782516110ce90876116b1565b95505b6001600160a01b039182165f9081526003602052604090205490911690806110f8816116c4565b915050611088565b50505050808061110f9061163e565b915050610fac565b505f8167ffffffffffffffff81111561113257611132611602565b6040519080825280602002602001820160405280156111b157816020015b61119e6040518060e001604052805f6001600160a01b031681526020015f81526020015f81526020015f81526020015f6001600160a01b031681526020015f81526020015f60ff1681525090565b8152602001906001900390816111505790505b5090505f805b60065481101561142d575f600682815481106111d5576111d5611616565b5f9182526020808320909101546001600160a01b031680835260038252604080842060010180548251818602810186019093528083529295509092909190849084015b8282101561126f578382905f5260205f2090600402016040518060800160405290815f8201548152602001600182015481526020016002820154815260200160038201548152505081526020019060010190611218565b505050506001600160a01b038381165f908152600360205260408120549293509116905b60075460ff82161080156112af57506001600160a01b03821615155b1561141657896001600160a01b0316826001600160a01b0316036113e7575f5b83518110156113e5575f8482815181106112eb576112eb611616565b602002602001015190505f606460078560ff168154811061130e5761130e611616565b905f5260205f2090602091828204019190069054906101000a900460ff1660ff16836040015161133e9190611675565b6113489190611692565b90506040518060e001604052808e6001600160a01b03168152602001835f0151815260200183604001518152602001828152602001886001600160a01b03168152602001836060015181526020018560016113a391906116e2565b60ff1690528a8a6113b38161163e565b9b50815181106113c5576113c5611616565b6020026020010181905250505080806113dd9061163e565b9150506112cf565b505b6001600160a01b039182165f90815260036020526040902054909116908061140e816116c4565b915050611293565b5050505080806114259061163e565b9150506111b7565b5090949350505050565b80356001600160a01b038116811461144d575f80fd5b919050565b5f8060408385031215611463575f80fd5b61146c83611437565b946020939093013593505050565b5f6020828403121561148a575f80fd5b5035919050565b5f602082840312156114a1575f80fd5b6114aa82611437565b9392505050565b5f8151808452602080850194508084015f5b838110156114df578151875295820195908201906001016114c3565b509495945050505050565b602081525f6114aa60208301846114b1565b606080825284519082018190525f906020906080840190828801845b8281101561153d5781516001600160a01b031684529284019290840190600101611518565b5050508381038285015261155181876114b1565b915050828103604084015261156681856114b1565b9695505050505050565b602080825282518282018190525f919060409081850190868401855b828110156115f557815180516001600160a01b03908116865287820151888701528682015187870152606080830151908701526080808301519091169086015260a0808201519086015260c09081015160ff169085015260e0909301929085019060010161158c565b5091979650505050505050565b634e487b7160e01b5f52604160045260245ffd5b634e487b7160e01b5f52603260045260245ffd5b634e487b7160e01b5f52601160045260245ffd5b5f6001820161164f5761164f61162a565b5060010190565b5f60208284031215611666575f80fd5b815180151581146114aa575f80fd5b808202811582820484141761168c5761168c61162a565b92915050565b5f826116ac57634e487b7160e01b5f52601260045260245ffd5b500490565b8082018082111561168c5761168c61162a565b5f60ff821660ff81036116d9576116d961162a565b60010192915050565b60ff818116838216019081111561168c5761168c61162a56fea264697066735822122091a69a612d646fa51536a9d7ea891cdb84f9c16d6565f7025471e4023febfea464736f6c63430008140033",
					"opcodes": "PUSH1 0xE0 PUSH1 0x40 MSTORE PUSH1 0x5 PUSH1 0x80 SWAP1 DUP2 MSTORE PUSH1 0x3 PUSH1 0xA0 DUP2 SWAP1 MSTORE PUSH1 0x2 PUSH1 0xC0 MSTORE PUSH3 0x25 SWAP2 PUSH1 0x7 SWAP2 PUSH3 0x88 JUMP JUMPDEST POP CALLVALUE DUP1 ISZERO PUSH3 0x32 JUMPI PUSH0 DUP1 REVERT JUMPDEST POP PUSH1 0x40 MLOAD PUSH3 0x18B4 CODESIZE SUB DUP1 PUSH3 0x18B4 DUP4 CODECOPY DUP2 ADD PUSH1 0x40 DUP2 SWAP1 MSTORE PUSH3 0x55 SWAP2 PUSH3 0x146 JUMP JUMPDEST PUSH0 DUP1 SLOAD CALLER PUSH1 0x1 PUSH1 0x1 PUSH1 0xA0 SHL SUB NOT SWAP2 DUP3 AND OR SWAP1 SWAP2 SSTORE PUSH1 0x2 DUP1 SLOAD SWAP1 SWAP2 AND PUSH1 0x1 PUSH1 0x1 PUSH1 0xA0 SHL SUB SWAP3 SWAP1 SWAP3 AND SWAP2 SWAP1 SWAP2 OR SWAP1 SSTORE PUSH3 0x175 JUMP JUMPDEST DUP3 DUP1 SLOAD DUP3 DUP3 SSTORE SWAP1 PUSH0 MSTORE PUSH1 0x20 PUSH0 KECCAK256 SWAP1 PUSH1 0x1F ADD PUSH1 0x20 SWAP1 DIV DUP2 ADD SWAP3 DUP3 ISZERO PUSH3 0x11E JUMPI SWAP2 PUSH1 0x20 MUL DUP3 ADD PUSH0 JUMPDEST DUP4 DUP3 GT ISZERO PUSH3 0xEE JUMPI DUP4 MLOAD DUP4 DUP3 PUSH2 0x100 EXP DUP2 SLOAD DUP2 PUSH1 0xFF MUL NOT AND SWAP1 DUP4 PUSH1 0xFF AND MUL OR SWAP1 SSTORE POP SWAP3 PUSH1 0x20 ADD SWAP3 PUSH1 0x1 ADD PUSH1 0x20 DUP2 PUSH0 ADD DIV SWAP3 DUP4 ADD SWAP3 PUSH1 0x1 SUB MUL PUSH3 0xAF JUMP JUMPDEST DUP1 ISZERO PUSH3 0x11C JUMPI DUP3 DUP2 PUSH2 0x100 EXP DUP2 SLOAD SWAP1 PUSH1 0xFF MUL NOT AND SWAP1 SSTORE PUSH1 0x1 ADD PUSH1 0x20 DUP2 PUSH0 ADD DIV SWAP3 DUP4 ADD SWAP3 PUSH1 0x1 SUB MUL PUSH3 0xEE JUMP JUMPDEST POP JUMPDEST POP PUSH3 0x12C SWAP3 SWAP2 POP PUSH3 0x130 JUMP JUMPDEST POP SWAP1 JUMP JUMPDEST JUMPDEST DUP1 DUP3 GT ISZERO PUSH3 0x12C JUMPI PUSH0 DUP2 SSTORE PUSH1 0x1 ADD PUSH3 0x131 JUMP JUMPDEST PUSH0 PUSH1 0x20 DUP3 DUP5 SUB SLT ISZERO PUSH3 0x157 JUMPI PUSH0 DUP1 REVERT JUMPDEST DUP2 MLOAD PUSH1 0x1 PUSH1 0x1 PUSH1 0xA0 SHL SUB DUP2 AND DUP2 EQ PUSH3 0x16E JUMPI PUSH0 DUP1 REVERT JUMPDEST SWAP4 SWAP3 POP POP POP JUMP JUMPDEST PUSH2 0x1731 DUP1 PUSH3 0x183 PUSH0 CODECOPY PUSH0 RETURN INVALID PUSH1 0x80 PUSH1 0x40 MSTORE CALLVALUE DUP1 ISZERO PUSH2 0xF JUMPI PUSH0 DUP1 REVERT JUMPDEST POP PUSH1 0x4 CALLDATASIZE LT PUSH2 0x127 JUMPI PUSH0 CALLDATALOAD PUSH1 0xE0 SHR DUP1 PUSH4 0x9D747BAD GT PUSH2 0xA9 JUMPI DUP1 PUSH4 0xC2D3C677 GT PUSH2 0x6E JUMPI DUP1 PUSH4 0xC2D3C677 EQ PUSH2 0x336 JUMPI DUP1 PUSH4 0xC5B89C0A EQ PUSH2 0x361 JUMPI DUP1 PUSH4 0xE45A57D0 EQ PUSH2 0x38D JUMPI DUP1 PUSH4 0xEF71AE56 EQ PUSH2 0x3A0 JUMPI DUP1 PUSH4 0xF7B17D10 EQ PUSH2 0x3C0 JUMPI PUSH0 DUP1 REVERT JUMPDEST DUP1 PUSH4 0x9D747BAD EQ PUSH2 0x2A2 JUMPI DUP1 PUSH4 0xA2BDEDF4 EQ PUSH2 0x2C4 JUMPI DUP1 PUSH4 0xA694FC3A EQ PUSH2 0x2D7 JUMPI DUP1 PUSH4 0xA87430BA EQ PUSH2 0x2EA JUMPI DUP1 PUSH4 0xA98AD46C EQ PUSH2 0x323 JUMPI PUSH0 DUP1 REVERT JUMPDEST DUP1 PUSH4 0x4420E486 GT PUSH2 0xEF JUMPI DUP1 PUSH4 0x4420E486 EQ PUSH2 0x202 JUMPI DUP1 PUSH4 0x797C7F5F EQ PUSH2 0x215 JUMPI DUP1 PUSH4 0x8DA5CB5B EQ PUSH2 0x252 JUMPI DUP1 PUSH4 0x98278EFB EQ PUSH2 0x264 JUMPI DUP1 PUSH4 0x9BE572F6 EQ PUSH2 0x29A JUMPI PUSH0 DUP1 REVERT JUMPDEST DUP1 PUSH4 0x5AD3935 EQ PUSH2 0x12B JUMPI DUP1 PUSH4 0x1E43EB27 EQ PUSH2 0x168 JUMPI DUP1 PUSH4 0x21923BDE EQ PUSH2 0x1A8 JUMPI DUP1 PUSH4 0x28FE7031 EQ PUSH2 0x1CD JUMPI DUP1 PUSH4 0x3EA521EF EQ PUSH2 0x1ED JUMPI JUMPDEST PUSH0 DUP1 REVERT JUMPDEST PUSH2 0x13E PUSH2 0x139 CALLDATASIZE PUSH1 0x4 PUSH2 0x1452 JUMP JUMPDEST PUSH2 0x3C9 JUMP JUMPDEST PUSH1 0x40 DUP1 MLOAD PUSH1 0x1 PUSH1 0x1 PUSH1 0xA0 SHL SUB SWAP1 SWAP5 AND DUP5 MSTORE PUSH1 0x20 DUP5 ADD SWAP3 SWAP1 SWAP3 MSTORE SWAP1 DUP3 ADD MSTORE PUSH1 0x60 ADD JUMPDEST PUSH1 0x40 MLOAD DUP1 SWAP2 SUB SWAP1 RETURN JUMPDEST PUSH2 0x190 PUSH2 0x176 CALLDATASIZE PUSH1 0x4 PUSH2 0x147A JUMP JUMPDEST PUSH1 0x5 PUSH1 0x20 MSTORE PUSH0 SWAP1 DUP2 MSTORE PUSH1 0x40 SWAP1 KECCAK256 SLOAD PUSH1 0x1 PUSH1 0x1 PUSH1 0xA0 SHL SUB AND DUP2 JUMP JUMPDEST PUSH1 0x40 MLOAD PUSH1 0x1 PUSH1 0x1 PUSH1 0xA0 SHL SUB SWAP1 SWAP2 AND DUP2 MSTORE PUSH1 0x20 ADD PUSH2 0x15F JUMP JUMPDEST PUSH2 0x1BB PUSH2 0x1B6 CALLDATASIZE PUSH1 0x4 PUSH2 0x1491 JUMP JUMPDEST PUSH2 0x411 JUMP JUMPDEST PUSH1 0x40 MLOAD PUSH1 0xFF SWAP1 SWAP2 AND DUP2 MSTORE PUSH1 0x20 ADD PUSH2 0x15F JUMP JUMPDEST PUSH2 0x1E0 PUSH2 0x1DB CALLDATASIZE PUSH1 0x4 PUSH2 0x1491 JUMP JUMPDEST PUSH2 0x464 JUMP JUMPDEST PUSH1 0x40 MLOAD PUSH2 0x15F SWAP2 SWAP1 PUSH2 0x14EA JUMP JUMPDEST PUSH2 0x200 PUSH2 0x1FB CALLDATASIZE PUSH1 0x4 PUSH2 0x147A JUMP JUMPDEST PUSH2 0x544 JUMP JUMPDEST STOP JUMPDEST PUSH2 0x200 PUSH2 0x210 CALLDATASIZE PUSH1 0x4 PUSH2 0x1491 JUMP JUMPDEST PUSH2 0x61B JUMP JUMPDEST PUSH2 0x228 PUSH2 0x223 CALLDATASIZE PUSH1 0x4 PUSH2 0x147A JUMP JUMPDEST PUSH2 0x785 JUMP JUMPDEST PUSH1 0x40 DUP1 MLOAD PUSH1 0x1 PUSH1 0x1 PUSH1 0xA0 SHL SUB SWAP1 SWAP6 AND DUP6 MSTORE PUSH1 0x20 DUP6 ADD SWAP4 SWAP1 SWAP4 MSTORE SWAP2 DUP4 ADD MSTORE PUSH1 0x60 DUP3 ADD MSTORE PUSH1 0x80 ADD PUSH2 0x15F JUMP JUMPDEST PUSH0 SLOAD PUSH2 0x190 SWAP1 PUSH1 0x1 PUSH1 0x1 PUSH1 0xA0 SHL SUB AND DUP2 JUMP JUMPDEST PUSH2 0x28C PUSH2 0x272 CALLDATASIZE PUSH1 0x4 PUSH2 0x1491 JUMP JUMPDEST PUSH1 0x1 PUSH1 0x1 PUSH1 0xA0 SHL SUB AND PUSH0 SWAP1 DUP2 MSTORE PUSH1 0x4 PUSH1 0x20 MSTORE PUSH1 0x40 SWAP1 KECCAK256 SLOAD SWAP1 JUMP JUMPDEST PUSH1 0x40 MLOAD SWAP1 DUP2 MSTORE PUSH1 0x20 ADD PUSH2 0x15F JUMP JUMPDEST PUSH1 0x6 SLOAD PUSH2 0x28C JUMP JUMPDEST PUSH2 0x2B5 PUSH2 0x2B0 CALLDATASIZE PUSH1 0x4 PUSH2 0x1491 JUMP JUMPDEST PUSH2 0x966 JUMP JUMPDEST PUSH1 0x40 MLOAD PUSH2 0x15F SWAP4 SWAP3 SWAP2 SWAP1 PUSH2 0x14FC JUMP JUMPDEST PUSH2 0x190 PUSH2 0x2D2 CALLDATASIZE PUSH1 0x4 PUSH2 0x147A JUMP JUMPDEST PUSH2 0xB5D JUMP JUMPDEST PUSH2 0x200 PUSH2 0x2E5 CALLDATASIZE PUSH1 0x4 PUSH2 0x147A JUMP JUMPDEST PUSH2 0xB85 JUMP JUMPDEST PUSH2 0x13E PUSH2 0x2F8 CALLDATASIZE PUSH1 0x4 PUSH2 0x1491 JUMP JUMPDEST PUSH1 0x3 PUSH1 0x20 DUP2 SWAP1 MSTORE PUSH0 SWAP2 DUP3 MSTORE PUSH1 0x40 SWAP1 SWAP2 KECCAK256 DUP1 SLOAD PUSH1 0x2 DUP3 ADD SLOAD SWAP2 SWAP1 SWAP3 ADD SLOAD PUSH1 0x1 PUSH1 0x1 PUSH1 0xA0 SHL SUB SWAP1 SWAP3 AND SWAP2 DUP4 JUMP JUMPDEST PUSH1 0x2 SLOAD PUSH2 0x190 SWAP1 PUSH1 0x1 PUSH1 0x1 PUSH1 0xA0 SHL SUB AND DUP2 JUMP JUMPDEST PUSH2 0x28C PUSH2 0x344 CALLDATASIZE PUSH1 0x4 PUSH2 0x1491 JUMP JUMPDEST PUSH1 0x1 PUSH1 0x1 PUSH1 0xA0 SHL SUB AND PUSH0 SWAP1 DUP2 MSTORE PUSH1 0x3 PUSH1 0x20 MSTORE PUSH1 0x40 SWAP1 KECCAK256 PUSH1 0x2 ADD SLOAD SWAP1 JUMP JUMPDEST PUSH2 0x28C PUSH2 0x36F CALLDATASIZE PUSH1 0x4 PUSH2 0x1491 JUMP JUMPDEST PUSH1 0x1 PUSH1 0x1 PUSH1 0xA0 SHL SUB AND PUSH0 SWAP1 DUP2 MSTORE PUSH1 0x3 PUSH1 0x20 DUP2 SWAP1 MSTORE PUSH1 0x40 SWAP1 SWAP2 KECCAK256 ADD SLOAD SWAP1 JUMP JUMPDEST PUSH2 0x1BB PUSH2 0x39B CALLDATASIZE PUSH1 0x4 PUSH2 0x147A JUMP JUMPDEST PUSH2 0xF76 JUMP JUMPDEST PUSH2 0x3B3 PUSH2 0x3AE CALLDATASIZE PUSH1 0x4 PUSH2 0x1491 JUMP JUMPDEST PUSH2 0xFA7 JUMP JUMPDEST PUSH1 0x40 MLOAD PUSH2 0x15F SWAP2 SWAP1 PUSH2 0x1570 JUMP JUMPDEST PUSH2 0x28C PUSH1 0x1 SLOAD DUP2 JUMP JUMPDEST PUSH1 0x4 PUSH1 0x20 MSTORE DUP2 PUSH0 MSTORE PUSH1 0x40 PUSH0 KECCAK256 DUP2 DUP2 SLOAD DUP2 LT PUSH2 0x3E2 JUMPI PUSH0 DUP1 REVERT JUMPDEST PUSH0 SWAP2 DUP3 MSTORE PUSH1 0x20 SWAP1 SWAP2 KECCAK256 PUSH1 0x3 SWAP1 SWAP2 MUL ADD DUP1 SLOAD PUSH1 0x1 DUP3 ADD SLOAD PUSH1 0x2 SWAP1 SWAP3 ADD SLOAD PUSH1 0x1 PUSH1 0x1 PUSH1 0xA0 SHL SUB SWAP1 SWAP2 AND SWAP4 POP SWAP1 SWAP2 POP DUP4 JUMP JUMPDEST PUSH1 0x1 PUSH1 0x1 PUSH1 0xA0 SHL SUB DUP2 AND PUSH0 SWAP1 DUP2 MSTORE PUSH1 0x4 PUSH1 0x20 MSTORE PUSH1 0x40 DUP2 KECCAK256 SLOAD PUSH1 0xA DUP2 LT PUSH2 0x43A JUMPI POP PUSH1 0x3 SWAP3 SWAP2 POP POP JUMP JUMPDEST PUSH1 0x5 DUP2 LT PUSH2 0x44B JUMPI POP PUSH1 0x2 SWAP3 SWAP2 POP POP JUMP JUMPDEST PUSH1 0x1 DUP2 LT PUSH2 0x45C JUMPI POP PUSH1 0x1 SWAP3 SWAP2 POP POP JUMP JUMPDEST POP PUSH0 SWAP3 SWAP2 POP POP JUMP JUMPDEST PUSH1 0x1 PUSH1 0x1 PUSH1 0xA0 SHL SUB DUP2 AND PUSH0 SWAP1 DUP2 MSTORE PUSH1 0x3 PUSH1 0x20 MSTORE PUSH1 0x40 DUP2 KECCAK256 PUSH1 0x1 ADD SLOAD PUSH1 0x60 SWAP2 DUP2 PUSH8 0xFFFFFFFFFFFFFFFF DUP2 GT ISZERO PUSH2 0x49B JUMPI PUSH2 0x49B PUSH2 0x1602 JUMP JUMPDEST PUSH1 0x40 MLOAD SWAP1 DUP1 DUP3 MSTORE DUP1 PUSH1 0x20 MUL PUSH1 0x20 ADD DUP3 ADD PUSH1 0x40 MSTORE DUP1 ISZERO PUSH2 0x4C4 JUMPI DUP2 PUSH1 0x20 ADD PUSH1 0x20 DUP3 MUL DUP1 CALLDATASIZE DUP4 CALLDATACOPY ADD SWAP1 POP JUMPDEST POP SWAP1 POP PUSH0 JUMPDEST DUP3 DUP2 LT ISZERO PUSH2 0x53C JUMPI PUSH1 0x1 PUSH1 0x1 PUSH1 0xA0 SHL SUB DUP6 AND PUSH0 SWAP1 DUP2 MSTORE PUSH1 0x3 PUSH1 0x20 MSTORE PUSH1 0x40 SWAP1 KECCAK256 PUSH1 0x1 ADD DUP1 SLOAD DUP3 SWAP1 DUP2 LT PUSH2 0x4FD JUMPI PUSH2 0x4FD PUSH2 0x1616 JUMP JUMPDEST SWAP1 PUSH0 MSTORE PUSH1 0x20 PUSH0 KECCAK256 SWAP1 PUSH1 0x4 MUL ADD PUSH1 0x1 ADD SLOAD DUP3 DUP3 DUP2 MLOAD DUP2 LT PUSH2 0x51F JUMPI PUSH2 0x51F PUSH2 0x1616 JUMP JUMPDEST PUSH1 0x20 SWAP1 DUP2 MUL SWAP2 SWAP1 SWAP2 ADD ADD MSTORE DUP1 PUSH2 0x534 DUP2 PUSH2 0x163E JUMP JUMPDEST SWAP2 POP POP PUSH2 0x4C9 JUMP JUMPDEST POP SWAP4 SWAP3 POP POP POP JUMP JUMPDEST PUSH0 SLOAD PUSH1 0x1 PUSH1 0x1 PUSH1 0xA0 SHL SUB AND CALLER EQ PUSH2 0x5A2 JUMPI PUSH1 0x40 MLOAD PUSH3 0x461BCD PUSH1 0xE5 SHL DUP2 MSTORE PUSH1 0x20 PUSH1 0x4 DUP3 ADD MSTORE PUSH1 0x17 PUSH1 0x24 DUP3 ADD MSTORE PUSH32 0x4F6E6C79206F776E65722063616E207769746864726177000000000000000000 PUSH1 0x44 DUP3 ADD MSTORE PUSH1 0x64 ADD JUMPDEST PUSH1 0x40 MLOAD DUP1 SWAP2 SUB SWAP1 REVERT JUMPDEST PUSH1 0x2 SLOAD PUSH0 SLOAD PUSH1 0x40 MLOAD PUSH4 0xA9059CBB PUSH1 0xE0 SHL DUP2 MSTORE PUSH1 0x1 PUSH1 0x1 PUSH1 0xA0 SHL SUB SWAP2 DUP3 AND PUSH1 0x4 DUP3 ADD MSTORE PUSH1 0x24 DUP2 ADD DUP5 SWAP1 MSTORE SWAP2 AND SWAP1 PUSH4 0xA9059CBB SWAP1 PUSH1 0x44 ADD PUSH1 0x20 PUSH1 0x40 MLOAD DUP1 DUP4 SUB DUP2 PUSH0 DUP8 GAS CALL ISZERO DUP1 ISZERO PUSH2 0x5F3 JUMPI RETURNDATASIZE PUSH0 DUP1 RETURNDATACOPY RETURNDATASIZE PUSH0 REVERT JUMPDEST POP POP POP POP PUSH1 0x40 MLOAD RETURNDATASIZE PUSH1 0x1F NOT PUSH1 0x1F DUP3 ADD AND DUP3 ADD DUP1 PUSH1 0x40 MSTORE POP DUP2 ADD SWAP1 PUSH2 0x617 SWAP2 SWAP1 PUSH2 0x1656 JUMP JUMPDEST POP POP JUMP JUMPDEST CALLER PUSH0 SWAP1 DUP2 MSTORE PUSH1 0x3 PUSH1 0x20 MSTORE PUSH1 0x40 SWAP1 KECCAK256 SLOAD PUSH1 0x1 PUSH1 0x1 PUSH1 0xA0 SHL SUB AND ISZERO PUSH2 0x675 JUMPI PUSH1 0x40 MLOAD PUSH3 0x461BCD PUSH1 0xE5 SHL DUP2 MSTORE PUSH1 0x20 PUSH1 0x4 DUP3 ADD MSTORE PUSH1 0x12 PUSH1 0x24 DUP3 ADD MSTORE PUSH18 0x105B1C9958591E481C9959DA5CDD195C9959 PUSH1 0x72 SHL PUSH1 0x44 DUP3 ADD MSTORE PUSH1 0x64 ADD PUSH2 0x599 JUMP JUMPDEST CALLER PUSH1 0x1 PUSH1 0x1 PUSH1 0xA0 SHL SUB DUP3 AND SUB PUSH2 0x6C5 JUMPI PUSH1 0x40 MLOAD PUSH3 0x461BCD PUSH1 0xE5 SHL DUP2 MSTORE PUSH1 0x20 PUSH1 0x4 DUP3 ADD MSTORE PUSH1 0x15 PUSH1 0x24 DUP3 ADD MSTORE PUSH21 0x21B0B73737BA103932B332B9103CB7BAB939B2B633 PUSH1 0x59 SHL PUSH1 0x44 DUP3 ADD MSTORE PUSH1 0x64 ADD PUSH2 0x599 JUMP JUMPDEST CALLER PUSH0 DUP2 DUP2 MSTORE PUSH1 0x3 PUSH1 0x20 DUP2 DUP2 MSTORE PUSH1 0x40 DUP1 DUP5 KECCAK256 DUP1 SLOAD PUSH1 0x1 PUSH1 0x1 PUSH1 0xA0 SHL SUB SWAP8 DUP9 AND PUSH1 0x1 PUSH1 0x1 PUSH1 0xA0 SHL SUB NOT SWAP2 DUP3 AND DUP2 OR SWAP1 SWAP3 SSTORE PUSH1 0x6 DUP1 SLOAD PUSH1 0x1 DUP2 DUP2 ADD SWAP1 SWAP3 SSTORE PUSH32 0xF652222313E28459528D920B65115C16C04F3EFC82AAEDC97BE59F3F377C0D3F ADD DUP1 SLOAD DUP4 AND DUP10 OR SWAP1 SSTORE SWAP2 DUP7 MSTORE PUSH1 0x4 DUP5 MSTORE DUP3 DUP7 KECCAK256 DUP4 MLOAD PUSH1 0x60 DUP2 ADD DUP6 MSTORE SWAP8 DUP9 MSTORE DUP8 DUP6 ADD DUP8 DUP2 MSTORE TIMESTAMP SWAP5 DUP10 ADD SWAP5 DUP6 MSTORE DUP2 SLOAD DUP1 DUP6 ADD DUP4 SSTORE SWAP2 DUP9 MSTORE SWAP5 SWAP1 SWAP7 KECCAK256 SWAP7 MLOAD SWAP6 SWAP1 SWAP5 MUL SWAP1 SWAP6 ADD DUP1 SLOAD SWAP5 SWAP1 SWAP7 AND SWAP4 SWAP1 SWAP3 AND SWAP3 SWAP1 SWAP3 OR DUP5 SSTORE SWAP1 MLOAD SWAP2 DUP4 ADD SWAP2 SWAP1 SWAP2 SSTORE MLOAD PUSH1 0x2 SWAP1 SWAP2 ADD SSTORE JUMP JUMPDEST PUSH0 DUP2 DUP2 MSTORE PUSH1 0x5 PUSH1 0x20 MSTORE PUSH1 0x40 DUP2 KECCAK256 SLOAD DUP2 SWAP1 DUP2 SWAP1 DUP2 SWAP1 PUSH1 0x1 PUSH1 0x1 PUSH1 0xA0 SHL SUB AND DUP1 PUSH2 0x7E4 JUMPI PUSH1 0x40 MLOAD PUSH3 0x461BCD PUSH1 0xE5 SHL DUP2 MSTORE PUSH1 0x20 PUSH1 0x4 DUP3 ADD MSTORE PUSH1 0x12 PUSH1 0x24 DUP3 ADD MSTORE PUSH18 0x125B9D985B1A59081C1BDCDA5D1A5BDB9259 PUSH1 0x72 SHL PUSH1 0x44 DUP3 ADD MSTORE PUSH1 0x64 ADD PUSH2 0x599 JUMP JUMPDEST PUSH1 0x1 PUSH1 0x1 PUSH1 0xA0 SHL SUB DUP2 AND PUSH0 SWAP1 DUP2 MSTORE PUSH1 0x3 PUSH1 0x20 SWAP1 DUP2 MSTORE PUSH1 0x40 DUP1 DUP4 KECCAK256 PUSH1 0x1 ADD DUP1 SLOAD DUP3 MLOAD DUP2 DUP6 MUL DUP2 ADD DUP6 ADD SWAP1 SWAP4 MSTORE DUP1 DUP4 MSTORE SWAP2 SWAP3 SWAP1 SWAP2 SWAP1 DUP5 SWAP1 DUP5 ADD JUMPDEST DUP3 DUP3 LT ISZERO PUSH2 0x873 JUMPI DUP4 DUP3 SWAP1 PUSH0 MSTORE PUSH1 0x20 PUSH0 KECCAK256 SWAP1 PUSH1 0x4 MUL ADD PUSH1 0x40 MLOAD DUP1 PUSH1 0x80 ADD PUSH1 0x40 MSTORE SWAP1 DUP2 PUSH0 DUP3 ADD SLOAD DUP2 MSTORE PUSH1 0x20 ADD PUSH1 0x1 DUP3 ADD SLOAD DUP2 MSTORE PUSH1 0x20 ADD PUSH1 0x2 DUP3 ADD SLOAD DUP2 MSTORE PUSH1 0x20 ADD PUSH1 0x3 DUP3 ADD SLOAD DUP2 MSTORE POP POP DUP2 MSTORE PUSH1 0x20 ADD SWAP1 PUSH1 0x1 ADD SWAP1 PUSH2 0x81C JUMP JUMPDEST POP POP POP POP SWAP1 POP PUSH0 JUMPDEST DUP2 MLOAD DUP2 LT ISZERO PUSH2 0x924 JUMPI DUP8 DUP3 DUP3 DUP2 MLOAD DUP2 LT PUSH2 0x897 JUMPI PUSH2 0x897 PUSH2 0x1616 JUMP JUMPDEST PUSH1 0x20 MUL PUSH1 0x20 ADD ADD MLOAD PUSH1 0x20 ADD MLOAD SUB PUSH2 0x912 JUMPI DUP3 DUP3 DUP3 DUP2 MLOAD DUP2 LT PUSH2 0x8BB JUMPI PUSH2 0x8BB PUSH2 0x1616 JUMP JUMPDEST PUSH1 0x20 MUL PUSH1 0x20 ADD ADD MLOAD PUSH0 ADD MLOAD DUP4 DUP4 DUP2 MLOAD DUP2 LT PUSH2 0x8D8 JUMPI PUSH2 0x8D8 PUSH2 0x1616 JUMP JUMPDEST PUSH1 0x20 MUL PUSH1 0x20 ADD ADD MLOAD PUSH1 0x40 ADD MLOAD DUP5 DUP5 DUP2 MLOAD DUP2 LT PUSH2 0x8F6 JUMPI PUSH2 0x8F6 PUSH2 0x1616 JUMP JUMPDEST PUSH1 0x20 MUL PUSH1 0x20 ADD ADD MLOAD PUSH1 0x60 ADD MLOAD SWAP7 POP SWAP7 POP SWAP7 POP SWAP7 POP POP POP POP PUSH2 0x95F JUMP JUMPDEST DUP1 PUSH2 0x91C DUP2 PUSH2 0x163E JUMP JUMPDEST SWAP2 POP POP PUSH2 0x87B JUMP JUMPDEST POP PUSH1 0x40 MLOAD PUSH3 0x461BCD PUSH1 0xE5 SHL DUP2 MSTORE PUSH1 0x20 PUSH1 0x4 DUP3 ADD MSTORE PUSH1 0xF PUSH1 0x24 DUP3 ADD MSTORE PUSH15 0x14DD185AD9481B9BDD08199BDD5B99 PUSH1 0x8A SHL PUSH1 0x44 DUP3 ADD MSTORE PUSH1 0x64 ADD PUSH2 0x599 JUMP JUMPDEST SWAP2 SWAP4 POP SWAP2 SWAP4 JUMP JUMPDEST PUSH1 0x1 PUSH1 0x1 PUSH1 0xA0 SHL SUB DUP2 AND PUSH0 SWAP1 DUP2 MSTORE PUSH1 0x4 PUSH1 0x20 MSTORE PUSH1 0x40 SWAP1 KECCAK256 DUP1 SLOAD PUSH1 0x60 SWAP2 DUP3 SWAP2 DUP3 SWAP2 SWAP1 DUP1 PUSH8 0xFFFFFFFFFFFFFFFF DUP2 GT ISZERO PUSH2 0x9A0 JUMPI PUSH2 0x9A0 PUSH2 0x1602 JUMP JUMPDEST PUSH1 0x40 MLOAD SWAP1 DUP1 DUP3 MSTORE DUP1 PUSH1 0x20 MUL PUSH1 0x20 ADD DUP3 ADD PUSH1 0x40 MSTORE DUP1 ISZERO PUSH2 0x9C9 JUMPI DUP2 PUSH1 0x20 ADD PUSH1 0x20 DUP3 MUL DUP1 CALLDATASIZE DUP4 CALLDATACOPY ADD SWAP1 POP JUMPDEST POP SWAP5 POP DUP1 PUSH8 0xFFFFFFFFFFFFFFFF DUP2 GT ISZERO PUSH2 0x9E5 JUMPI PUSH2 0x9E5 PUSH2 0x1602 JUMP JUMPDEST PUSH1 0x40 MLOAD SWAP1 DUP1 DUP3 MSTORE DUP1 PUSH1 0x20 MUL PUSH1 0x20 ADD DUP3 ADD PUSH1 0x40 MSTORE DUP1 ISZERO PUSH2 0xA0E JUMPI DUP2 PUSH1 0x20 ADD PUSH1 0x20 DUP3 MUL DUP1 CALLDATASIZE DUP4 CALLDATACOPY ADD SWAP1 POP JUMPDEST POP SWAP4 POP DUP1 PUSH8 0xFFFFFFFFFFFFFFFF DUP2 GT ISZERO PUSH2 0xA2A JUMPI PUSH2 0xA2A PUSH2 0x1602 JUMP JUMPDEST PUSH1 0x40 MLOAD SWAP1 DUP1 DUP3 MSTORE DUP1 PUSH1 0x20 MUL PUSH1 0x20 ADD DUP3 ADD PUSH1 0x40 MSTORE DUP1 ISZERO PUSH2 0xA53 JUMPI DUP2 PUSH1 0x20 ADD PUSH1 0x20 DUP3 MUL DUP1 CALLDATASIZE DUP4 CALLDATACOPY ADD SWAP1 POP JUMPDEST POP SWAP3 POP PUSH0 JUMPDEST DUP2 DUP2 LT ISZERO PUSH2 0xB53 JUMPI DUP3 DUP2 DUP2 SLOAD DUP2 LT PUSH2 0xA72 JUMPI PUSH2 0xA72 PUSH2 0x1616 JUMP JUMPDEST PUSH0 SWAP2 DUP3 MSTORE PUSH1 0x20 SWAP1 SWAP2 KECCAK256 PUSH1 0x3 SWAP1 SWAP2 MUL ADD SLOAD DUP7 MLOAD PUSH1 0x1 PUSH1 0x1 PUSH1 0xA0 SHL SUB SWAP1 SWAP2 AND SWAP1 DUP8 SWAP1 DUP4 SWAP1 DUP2 LT PUSH2 0xAA2 JUMPI PUSH2 0xAA2 PUSH2 0x1616 JUMP JUMPDEST PUSH1 0x20 MUL PUSH1 0x20 ADD ADD SWAP1 PUSH1 0x1 PUSH1 0x1 PUSH1 0xA0 SHL SUB AND SWAP1 DUP2 PUSH1 0x1 PUSH1 0x1 PUSH1 0xA0 SHL SUB AND DUP2 MSTORE POP POP DUP3 DUP2 DUP2 SLOAD DUP2 LT PUSH2 0xAD4 JUMPI PUSH2 0xAD4 PUSH2 0x1616 JUMP JUMPDEST SWAP1 PUSH0 MSTORE PUSH1 0x20 PUSH0 KECCAK256 SWAP1 PUSH1 0x3 MUL ADD PUSH1 0x1 ADD SLOAD DUP6 DUP3 DUP2 MLOAD DUP2 LT PUSH2 0xAF6 JUMPI PUSH2 0xAF6 PUSH2 0x1616 JUMP JUMPDEST PUSH1 0x20 MUL PUSH1 0x20 ADD ADD DUP2 DUP2 MSTORE POP POP DUP3 DUP2 DUP2 SLOAD DUP2 LT PUSH2 0xB14 JUMPI PUSH2 0xB14 PUSH2 0x1616 JUMP JUMPDEST SWAP1 PUSH0 MSTORE PUSH1 0x20 PUSH0 KECCAK256 SWAP1 PUSH1 0x3 MUL ADD PUSH1 0x2 ADD SLOAD DUP5 DUP3 DUP2 MLOAD DUP2 LT PUSH2 0xB36 JUMPI PUSH2 0xB36 PUSH2 0x1616 JUMP JUMPDEST PUSH1 0x20 SWAP1 DUP2 MUL SWAP2 SWAP1 SWAP2 ADD ADD MSTORE DUP1 PUSH2 0xB4B DUP2 PUSH2 0x163E JUMP JUMPDEST SWAP2 POP POP PUSH2 0xA58 JUMP JUMPDEST POP POP POP SWAP2 SWAP4 SWAP1 SWAP3 POP JUMP JUMPDEST PUSH1 0x6 DUP2 DUP2 SLOAD DUP2 LT PUSH2 0xB6C JUMPI PUSH0 DUP1 REVERT JUMPDEST PUSH0 SWAP2 DUP3 MSTORE PUSH1 0x20 SWAP1 SWAP2 KECCAK256 ADD SLOAD PUSH1 0x1 PUSH1 0x1 PUSH1 0xA0 SHL SUB AND SWAP1 POP DUP2 JUMP JUMPDEST PUSH0 DUP2 GT PUSH2 0xBD4 JUMPI PUSH1 0x40 MLOAD PUSH3 0x461BCD PUSH1 0xE5 SHL DUP2 MSTORE PUSH1 0x20 PUSH1 0x4 DUP3 ADD MSTORE PUSH1 0x1C PUSH1 0x24 DUP3 ADD MSTORE PUSH32 0x5374616B65206D7573742062652067726561746572207468616E203000000000 PUSH1 0x44 DUP3 ADD MSTORE PUSH1 0x64 ADD PUSH2 0x599 JUMP JUMPDEST CALLER PUSH0 SWAP1 DUP2 MSTORE PUSH1 0x3 PUSH1 0x20 MSTORE PUSH1 0x40 SWAP1 KECCAK256 SLOAD PUSH1 0x1 PUSH1 0x1 PUSH1 0xA0 SHL SUB AND PUSH2 0xC38 JUMPI PUSH1 0x40 MLOAD PUSH3 0x461BCD PUSH1 0xE5 SHL DUP2 MSTORE PUSH1 0x20 PUSH1 0x4 DUP3 ADD MSTORE PUSH1 0x17 PUSH1 0x24 DUP3 ADD MSTORE PUSH32 0x55736572206D7573742062652072656769737465726564000000000000000000 PUSH1 0x44 DUP3 ADD MSTORE PUSH1 0x64 ADD PUSH2 0x599 JUMP JUMPDEST PUSH1 0x2 SLOAD PUSH1 0x40 MLOAD PUSH4 0x23B872DD PUSH1 0xE0 SHL DUP2 MSTORE CALLER PUSH1 0x4 DUP3 ADD MSTORE ADDRESS PUSH1 0x24 DUP3 ADD MSTORE PUSH1 0x44 DUP2 ADD DUP4 SWAP1 MSTORE PUSH1 0x1 PUSH1 0x1 PUSH1 0xA0 SHL SUB SWAP1 SWAP2 AND SWAP1 PUSH4 0x23B872DD SWAP1 PUSH1 0x64 ADD PUSH1 0x20 PUSH1 0x40 MLOAD DUP1 DUP4 SUB DUP2 PUSH0 DUP8 GAS CALL ISZERO DUP1 ISZERO PUSH2 0xC8C JUMPI RETURNDATASIZE PUSH0 DUP1 RETURNDATACOPY RETURNDATASIZE PUSH0 REVERT JUMPDEST POP POP POP POP PUSH1 0x40 MLOAD RETURNDATASIZE PUSH1 0x1F NOT PUSH1 0x1F DUP3 ADD AND DUP3 ADD DUP1 PUSH1 0x40 MSTORE POP DUP2 ADD SWAP1 PUSH2 0xCB0 SWAP2 SWAP1 PUSH2 0x1656 JUMP JUMPDEST POP PUSH0 PUSH1 0x1 PUSH0 DUP2 SLOAD PUSH2 0xCC0 SWAP1 PUSH2 0x163E JUMP JUMPDEST SWAP2 DUP3 SWAP1 SSTORE POP CALLER PUSH0 DUP2 DUP2 MSTORE PUSH1 0x3 PUSH1 0x20 DUP2 DUP2 MSTORE PUSH1 0x40 DUP1 DUP5 KECCAK256 DUP2 MLOAD PUSH1 0x80 DUP2 ADD DUP4 MSTORE PUSH1 0x1 DUP1 SLOAD DUP3 MSTORE DUP2 DUP6 ADD DUP10 DUP2 MSTORE DUP3 DUP6 ADD DUP13 DUP2 MSTORE TIMESTAMP PUSH1 0x60 DUP6 ADD SWAP1 DUP2 MSTORE DUP4 DUP7 ADD DUP1 SLOAD DUP1 DUP7 ADD DUP3 SSTORE SWAP1 DUP12 MSTORE DUP9 DUP12 KECCAK256 SWAP6 MLOAD PUSH1 0x4 SWAP1 SWAP2 MUL SWAP1 SWAP6 ADD SWAP5 DUP6 SSTORE SWAP2 MLOAD SWAP3 DUP5 ADD SWAP3 SWAP1 SWAP3 SSTORE SWAP1 MLOAD PUSH1 0x2 DUP4 ADD SSTORE MLOAD SWAP1 DUP6 ADD SSTORE DUP7 DUP6 MSTORE PUSH1 0x5 DUP4 MSTORE SWAP1 DUP5 KECCAK256 DUP1 SLOAD PUSH1 0x1 PUSH1 0x1 PUSH1 0xA0 SHL SUB NOT AND DUP7 OR SWAP1 SSTORE SWAP4 DUP4 MSTORE MSTORE SWAP1 SLOAD SWAP2 SWAP3 POP PUSH1 0x1 PUSH1 0x1 PUSH1 0xA0 SHL SUB SWAP1 SWAP2 AND SWAP1 JUMPDEST PUSH1 0x7 SLOAD PUSH1 0xFF DUP3 AND LT DUP1 ISZERO PUSH2 0xD76 JUMPI POP PUSH1 0x1 PUSH1 0x1 PUSH1 0xA0 SHL SUB DUP3 AND ISZERO ISZERO JUMPDEST ISZERO PUSH2 0xF70 JUMPI PUSH0 PUSH1 0x64 PUSH1 0x7 DUP4 PUSH1 0xFF AND DUP2 SLOAD DUP2 LT PUSH2 0xD94 JUMPI PUSH2 0xD94 PUSH2 0x1616 JUMP JUMPDEST PUSH0 SWAP2 DUP3 MSTORE PUSH1 0x20 SWAP2 DUP3 SWAP1 KECCAK256 SWAP2 DUP2 DIV SWAP1 SWAP2 ADD SLOAD PUSH2 0xDBB SWAP2 PUSH1 0x1F AND PUSH2 0x100 EXP SWAP1 DIV PUSH1 0xFF AND DUP8 PUSH2 0x1675 JUMP JUMPDEST PUSH2 0xDC5 SWAP2 SWAP1 PUSH2 0x1692 JUMP JUMPDEST PUSH1 0x2 SLOAD PUSH1 0x40 MLOAD PUSH4 0xA9059CBB PUSH1 0xE0 SHL DUP2 MSTORE PUSH1 0x1 PUSH1 0x1 PUSH1 0xA0 SHL SUB DUP7 DUP2 AND PUSH1 0x4 DUP4 ADD MSTORE PUSH1 0x24 DUP3 ADD DUP5 SWAP1 MSTORE SWAP3 SWAP4 POP SWAP2 AND SWAP1 PUSH4 0xA9059CBB SWAP1 PUSH1 0x44 ADD PUSH1 0x20 PUSH1 0x40 MLOAD DUP1 DUP4 SUB DUP2 PUSH0 DUP8 GAS CALL ISZERO DUP1 ISZERO PUSH2 0xE17 JUMPI RETURNDATASIZE PUSH0 DUP1 RETURNDATACOPY RETURNDATASIZE PUSH0 REVERT JUMPDEST POP POP POP POP PUSH1 0x40 MLOAD RETURNDATASIZE PUSH1 0x1F NOT PUSH1 0x1F DUP3 ADD AND DUP3 ADD DUP1 PUSH1 0x40 MSTORE POP DUP2 ADD SWAP1 PUSH2 0xE3B SWAP2 SWAP1 PUSH2 0x1656 JUMP JUMPDEST POP PUSH1 0x1 PUSH1 0x1 PUSH1 0xA0 SHL SUB DUP4 AND PUSH0 SWAP1 DUP2 MSTORE PUSH1 0x3 PUSH1 0x20 MSTORE PUSH1 0x40 DUP2 KECCAK256 PUSH1 0x2 ADD DUP1 SLOAD DUP4 SWAP3 SWAP1 PUSH2 0xE66 SWAP1 DUP5 SWAP1 PUSH2 0x16B1 JUMP JUMPDEST SWAP1 SWAP2 SSTORE POP POP PUSH1 0x1 PUSH1 0x1 PUSH1 0xA0 SHL SUB DUP4 AND PUSH0 SWAP1 DUP2 MSTORE PUSH1 0x3 PUSH1 0x20 DUP2 SWAP1 MSTORE PUSH1 0x40 DUP3 KECCAK256 ADD DUP1 SLOAD DUP4 SWAP3 SWAP1 PUSH2 0xE95 SWAP1 DUP5 SWAP1 PUSH2 0x16B1 JUMP JUMPDEST SWAP1 SWAP2 SSTORE POP POP PUSH1 0x1 PUSH1 0x1 PUSH1 0xA0 SHL SUB DUP4 AND PUSH0 SWAP1 DUP2 MSTORE PUSH1 0x4 PUSH1 0x20 MSTORE PUSH1 0x40 DUP2 KECCAK256 SWAP1 JUMPDEST DUP2 SLOAD DUP2 LT ISZERO PUSH2 0xF3E JUMPI CALLER PUSH1 0x1 PUSH1 0x1 PUSH1 0xA0 SHL SUB AND DUP3 DUP3 DUP2 SLOAD DUP2 LT PUSH2 0xED8 JUMPI PUSH2 0xED8 PUSH2 0x1616 JUMP JUMPDEST PUSH0 SWAP2 DUP3 MSTORE PUSH1 0x20 SWAP1 SWAP2 KECCAK256 PUSH1 0x3 SWAP1 SWAP2 MUL ADD SLOAD PUSH1 0x1 PUSH1 0x1 PUSH1 0xA0 SHL SUB AND SUB PUSH2 0xF2C JUMPI DUP3 DUP3 DUP3 DUP2 SLOAD DUP2 LT PUSH2 0xF09 JUMPI PUSH2 0xF09 PUSH2 0x1616 JUMP JUMPDEST SWAP1 PUSH0 MSTORE PUSH1 0x20 PUSH0 KECCAK256 SWAP1 PUSH1 0x3 MUL ADD PUSH1 0x1 ADD PUSH0 DUP3 DUP3 SLOAD PUSH2 0xF26 SWAP2 SWAP1 PUSH2 0x16B1 JUMP JUMPDEST SWAP1 SWAP2 SSTORE POP POP JUMPDEST DUP1 PUSH2 0xF36 DUP2 PUSH2 0x163E JUMP JUMPDEST SWAP2 POP POP PUSH2 0xEB3 JUMP JUMPDEST POP POP POP PUSH1 0x1 PUSH1 0x1 PUSH1 0xA0 SHL SUB SWAP2 DUP3 AND PUSH0 SWAP1 DUP2 MSTORE PUSH1 0x3 PUSH1 0x20 MSTORE PUSH1 0x40 SWAP1 KECCAK256 SLOAD SWAP1 SWAP2 AND SWAP1 DUP1 PUSH2 0xF68 DUP2 PUSH2 0x16C4 JUMP JUMPDEST SWAP2 POP POP PUSH2 0xD5A JUMP JUMPDEST POP POP POP POP JUMP JUMPDEST PUSH1 0x7 DUP2 DUP2 SLOAD DUP2 LT PUSH2 0xF85 JUMPI PUSH0 DUP1 REVERT JUMPDEST SWAP1 PUSH0 MSTORE PUSH1 0x20 PUSH0 KECCAK256 SWAP1 PUSH1 0x20 SWAP2 DUP3 DUP3 DIV ADD SWAP2 SWAP1 MOD SWAP2 POP SLOAD SWAP1 PUSH2 0x100 EXP SWAP1 DIV PUSH1 0xFF AND DUP2 JUMP JUMPDEST PUSH1 0x60 PUSH0 DUP1 JUMPDEST PUSH1 0x6 SLOAD DUP2 LT ISZERO PUSH2 0x1117 JUMPI PUSH0 PUSH1 0x6 DUP3 DUP2 SLOAD DUP2 LT PUSH2 0xFCA JUMPI PUSH2 0xFCA PUSH2 0x1616 JUMP JUMPDEST PUSH0 SWAP2 DUP3 MSTORE PUSH1 0x20 DUP1 DUP4 KECCAK256 SWAP1 SWAP2 ADD SLOAD PUSH1 0x1 PUSH1 0x1 PUSH1 0xA0 SHL SUB AND DUP1 DUP4 MSTORE PUSH1 0x3 DUP3 MSTORE PUSH1 0x40 DUP1 DUP5 KECCAK256 PUSH1 0x1 ADD DUP1 SLOAD DUP3 MLOAD DUP2 DUP7 MUL DUP2 ADD DUP7 ADD SWAP1 SWAP4 MSTORE DUP1 DUP4 MSTORE SWAP3 SWAP6 POP SWAP1 SWAP3 SWAP1 SWAP2 SWAP1 DUP5 SWAP1 DUP5 ADD JUMPDEST DUP3 DUP3 LT ISZERO PUSH2 0x1064 JUMPI DUP4 DUP3 SWAP1 PUSH0 MSTORE PUSH1 0x20 PUSH0 KECCAK256 SWAP1 PUSH1 0x4 MUL ADD PUSH1 0x40 MLOAD DUP1 PUSH1 0x80 ADD PUSH1 0x40 MSTORE SWAP1 DUP2 PUSH0 DUP3 ADD SLOAD DUP2 MSTORE PUSH1 0x20 ADD PUSH1 0x1 DUP3 ADD SLOAD DUP2 MSTORE PUSH1 0x20 ADD PUSH1 0x2 DUP3 ADD SLOAD DUP2 MSTORE PUSH1 0x20 ADD PUSH1 0x3 DUP3 ADD SLOAD DUP2 MSTORE POP POP DUP2 MSTORE PUSH1 0x20 ADD SWAP1 PUSH1 0x1 ADD SWAP1 PUSH2 0x100D JUMP JUMPDEST POP POP POP POP PUSH1 0x1 PUSH1 0x1 PUSH1 0xA0 SHL SUB DUP4 DUP2 AND PUSH0 SWAP1 DUP2 MSTORE PUSH1 0x3 PUSH1 0x20 MSTORE PUSH1 0x40 DUP2 KECCAK256 SLOAD SWAP3 SWAP4 POP SWAP2 AND SWAP1 JUMPDEST PUSH1 0x7 SLOAD PUSH1 0xFF DUP3 AND LT DUP1 ISZERO PUSH2 0x10A4 JUMPI POP PUSH1 0x1 PUSH1 0x1 PUSH1 0xA0 SHL SUB DUP3 AND ISZERO ISZERO JUMPDEST ISZERO PUSH2 0x1100 JUMPI DUP8 PUSH1 0x1 PUSH1 0x1 PUSH1 0xA0 SHL SUB AND DUP3 PUSH1 0x1 PUSH1 0x1 PUSH1 0xA0 SHL SUB AND SUB PUSH2 0x10D1 JUMPI DUP3 MLOAD PUSH2 0x10CE SWAP1 DUP8 PUSH2 0x16B1 JUMP JUMPDEST SWAP6 POP JUMPDEST PUSH1 0x1 PUSH1 0x1 PUSH1 0xA0 SHL SUB SWAP2 DUP3 AND PUSH0 SWAP1 DUP2 MSTORE PUSH1 0x3 PUSH1 0x20 MSTORE PUSH1 0x40 SWAP1 KECCAK256 SLOAD SWAP1 SWAP2 AND SWAP1 DUP1 PUSH2 0x10F8 DUP2 PUSH2 0x16C4 JUMP JUMPDEST SWAP2 POP POP PUSH2 0x1088 JUMP JUMPDEST POP POP POP POP DUP1 DUP1 PUSH2 0x110F SWAP1 PUSH2 0x163E JUMP JUMPDEST SWAP2 POP POP PUSH2 0xFAC JUMP JUMPDEST POP PUSH0 DUP2 PUSH8 0xFFFFFFFFFFFFFFFF DUP2 GT ISZERO PUSH2 0x1132 JUMPI PUSH2 0x1132 PUSH2 0x1602 JUMP JUMPDEST PUSH1 0x40 MLOAD SWAP1 DUP1 DUP3 MSTORE DUP1 PUSH1 0x20 MUL PUSH1 0x20 ADD DUP3 ADD PUSH1 0x40 MSTORE DUP1 ISZERO PUSH2 0x11B1 JUMPI DUP2 PUSH1 0x20 ADD JUMPDEST PUSH2 0x119E PUSH1 0x40 MLOAD DUP1 PUSH1 0xE0 ADD PUSH1 0x40 MSTORE DUP1 PUSH0 PUSH1 0x1 PUSH1 0x1 PUSH1 0xA0 SHL SUB AND DUP2 MSTORE PUSH1 0x20 ADD PUSH0 DUP2 MSTORE PUSH1 0x20 ADD PUSH0 DUP2 MSTORE PUSH1 0x20 ADD PUSH0 DUP2 MSTORE PUSH1 0x20 ADD PUSH0 PUSH1 0x1 PUSH1 0x1 PUSH1 0xA0 SHL SUB AND DUP2 MSTORE PUSH1 0x20 ADD PUSH0 DUP2 MSTORE PUSH1 0x20 ADD PUSH0 PUSH1 0xFF AND DUP2 MSTORE POP SWAP1 JUMP JUMPDEST DUP2 MSTORE PUSH1 0x20 ADD SWAP1 PUSH1 0x1 SWAP1 SUB SWAP1 DUP2 PUSH2 0x1150 JUMPI SWAP1 POP JUMPDEST POP SWAP1 POP PUSH0 DUP1 JUMPDEST PUSH1 0x6 SLOAD DUP2 LT ISZERO PUSH2 0x142D JUMPI PUSH0 PUSH1 0x6 DUP3 DUP2 SLOAD DUP2 LT PUSH2 0x11D5 JUMPI PUSH2 0x11D5 PUSH2 0x1616 JUMP JUMPDEST PUSH0 SWAP2 DUP3 MSTORE PUSH1 0x20 DUP1 DUP4 KECCAK256 SWAP1 SWAP2 ADD SLOAD PUSH1 0x1 PUSH1 0x1 PUSH1 0xA0 SHL SUB AND DUP1 DUP4 MSTORE PUSH1 0x3 DUP3 MSTORE PUSH1 0x40 DUP1 DUP5 KECCAK256 PUSH1 0x1 ADD DUP1 SLOAD DUP3 MLOAD DUP2 DUP7 MUL DUP2 ADD DUP7 ADD SWAP1 SWAP4 MSTORE DUP1 DUP4 MSTORE SWAP3 SWAP6 POP SWAP1 SWAP3 SWAP1 SWAP2 SWAP1 DUP5 SWAP1 DUP5 ADD JUMPDEST DUP3 DUP3 LT ISZERO PUSH2 0x126F JUMPI DUP4 DUP3 SWAP1 PUSH0 MSTORE PUSH1 0x20 PUSH0 KECCAK256 SWAP1 PUSH1 0x4 MUL ADD PUSH1 0x40 MLOAD DUP1 PUSH1 0x80 ADD PUSH1 0x40 MSTORE SWAP1 DUP2 PUSH0 DUP3 ADD SLOAD DUP2 MSTORE PUSH1 0x20 ADD PUSH1 0x1 DUP3 ADD SLOAD DUP2 MSTORE PUSH1 0x20 ADD PUSH1 0x2 DUP3 ADD SLOAD DUP2 MSTORE PUSH1 0x20 ADD PUSH1 0x3 DUP3 ADD SLOAD DUP2 MSTORE POP POP DUP2 MSTORE PUSH1 0x20 ADD SWAP1 PUSH1 0x1 ADD SWAP1 PUSH2 0x1218 JUMP JUMPDEST POP POP POP POP PUSH1 0x1 PUSH1 0x1 PUSH1 0xA0 SHL SUB DUP4 DUP2 AND PUSH0 SWAP1 DUP2 MSTORE PUSH1 0x3 PUSH1 0x20 MSTORE PUSH1 0x40 DUP2 KECCAK256 SLOAD SWAP3 SWAP4 POP SWAP2 AND SWAP1 JUMPDEST PUSH1 0x7 SLOAD PUSH1 0xFF DUP3 AND LT DUP1 ISZERO PUSH2 0x12AF JUMPI POP PUSH1 0x1 PUSH1 0x1 PUSH1 0xA0 SHL SUB DUP3 AND ISZERO ISZERO JUMPDEST ISZERO PUSH2 0x1416 JUMPI DUP10 PUSH1 0x1 PUSH1 0x1 PUSH1 0xA0 SHL SUB AND DUP3 PUSH1 0x1 PUSH1 0x1 PUSH1 0xA0 SHL SUB AND SUB PUSH2 0x13E7 JUMPI PUSH0 JUMPDEST DUP4 MLOAD DUP2 LT ISZERO PUSH2 0x13E5 JUMPI PUSH0 DUP5 DUP3 DUP2 MLOAD DUP2 LT PUSH2 0x12EB JUMPI PUSH2 0x12EB PUSH2 0x1616 JUMP JUMPDEST PUSH1 0x20 MUL PUSH1 0x20 ADD ADD MLOAD SWAP1 POP PUSH0 PUSH1 0x64 PUSH1 0x7 DUP6 PUSH1 0xFF AND DUP2 SLOAD DUP2 LT PUSH2 0x130E JUMPI PUSH2 0x130E PUSH2 0x1616 JUMP JUMPDEST SWAP1 PUSH0 MSTORE PUSH1 0x20 PUSH0 KECCAK256 SWAP1 PUSH1 0x20 SWAP2 DUP3 DUP3 DIV ADD SWAP2 SWAP1 MOD SWAP1 SLOAD SWAP1 PUSH2 0x100 EXP SWAP1 DIV PUSH1 0xFF AND PUSH1 0xFF AND DUP4 PUSH1 0x40 ADD MLOAD PUSH2 0x133E SWAP2 SWAP1 PUSH2 0x1675 JUMP JUMPDEST PUSH2 0x1348 SWAP2 SWAP1 PUSH2 0x1692 JUMP JUMPDEST SWAP1 POP PUSH1 0x40 MLOAD DUP1 PUSH1 0xE0 ADD PUSH1 0x40 MSTORE DUP1 DUP15 PUSH1 0x1 PUSH1 0x1 PUSH1 0xA0 SHL SUB AND DUP2 MSTORE PUSH1 0x20 ADD DUP4 PUSH0 ADD MLOAD DUP2 MSTORE PUSH1 0x20 ADD DUP4 PUSH1 0x40 ADD MLOAD DUP2 MSTORE PUSH1 0x20 ADD DUP3 DUP2 MSTORE PUSH1 0x20 ADD DUP9 PUSH1 0x1 PUSH1 0x1 PUSH1 0xA0 SHL SUB AND DUP2 MSTORE PUSH1 0x20 ADD DUP4 PUSH1 0x60 ADD MLOAD DUP2 MSTORE PUSH1 0x20 ADD DUP6 PUSH1 0x1 PUSH2 0x13A3 SWAP2 SWAP1 PUSH2 0x16E2 JUMP JUMPDEST PUSH1 0xFF AND SWAP1 MSTORE DUP11 DUP11 PUSH2 0x13B3 DUP2 PUSH2 0x163E JUMP JUMPDEST SWAP12 POP DUP2 MLOAD DUP2 LT PUSH2 0x13C5 JUMPI PUSH2 0x13C5 PUSH2 0x1616 JUMP JUMPDEST PUSH1 0x20 MUL PUSH1 0x20 ADD ADD DUP2 SWAP1 MSTORE POP POP POP DUP1 DUP1 PUSH2 0x13DD SWAP1 PUSH2 0x163E JUMP JUMPDEST SWAP2 POP POP PUSH2 0x12CF JUMP JUMPDEST POP JUMPDEST PUSH1 0x1 PUSH1 0x1 PUSH1 0xA0 SHL SUB SWAP2 DUP3 AND PUSH0 SWAP1 DUP2 MSTORE PUSH1 0x3 PUSH1 0x20 MSTORE PUSH1 0x40 SWAP1 KECCAK256 SLOAD SWAP1 SWAP2 AND SWAP1 DUP1 PUSH2 0x140E DUP2 PUSH2 0x16C4 JUMP JUMPDEST SWAP2 POP POP PUSH2 0x1293 JUMP JUMPDEST POP POP POP POP DUP1 DUP1 PUSH2 0x1425 SWAP1 PUSH2 0x163E JUMP JUMPDEST SWAP2 POP POP PUSH2 0x11B7 JUMP JUMPDEST POP SWAP1 SWAP5 SWAP4 POP POP POP POP JUMP JUMPDEST DUP1 CALLDATALOAD PUSH1 0x1 PUSH1 0x1 PUSH1 0xA0 SHL SUB DUP2 AND DUP2 EQ PUSH2 0x144D JUMPI PUSH0 DUP1 REVERT JUMPDEST SWAP2 SWAP1 POP JUMP JUMPDEST PUSH0 DUP1 PUSH1 0x40 DUP4 DUP6 SUB SLT ISZERO PUSH2 0x1463 JUMPI PUSH0 DUP1 REVERT JUMPDEST PUSH2 0x146C DUP4 PUSH2 0x1437 JUMP JUMPDEST SWAP5 PUSH1 0x20 SWAP4 SWAP1 SWAP4 ADD CALLDATALOAD SWAP4 POP POP POP JUMP JUMPDEST PUSH0 PUSH1 0x20 DUP3 DUP5 SUB SLT ISZERO PUSH2 0x148A JUMPI PUSH0 DUP1 REVERT JUMPDEST POP CALLDATALOAD SWAP2 SWAP1 POP JUMP JUMPDEST PUSH0 PUSH1 0x20 DUP3 DUP5 SUB SLT ISZERO PUSH2 0x14A1 JUMPI PUSH0 DUP1 REVERT JUMPDEST PUSH2 0x14AA DUP3 PUSH2 0x1437 JUMP JUMPDEST SWAP4 SWAP3 POP POP POP JUMP JUMPDEST PUSH0 DUP2 MLOAD DUP1 DUP5 MSTORE PUSH1 0x20 DUP1 DUP6 ADD SWAP5 POP DUP1 DUP5 ADD PUSH0 JUMPDEST DUP4 DUP2 LT ISZERO PUSH2 0x14DF JUMPI DUP2 MLOAD DUP8 MSTORE SWAP6 DUP3 ADD SWAP6 SWAP1 DUP3 ADD SWAP1 PUSH1 0x1 ADD PUSH2 0x14C3 JUMP JUMPDEST POP SWAP5 SWAP6 SWAP5 POP POP POP POP POP JUMP JUMPDEST PUSH1 0x20 DUP2 MSTORE PUSH0 PUSH2 0x14AA PUSH1 0x20 DUP4 ADD DUP5 PUSH2 0x14B1 JUMP JUMPDEST PUSH1 0x60 DUP1 DUP3 MSTORE DUP5 MLOAD SWAP1 DUP3 ADD DUP2 SWAP1 MSTORE PUSH0 SWAP1 PUSH1 0x20 SWAP1 PUSH1 0x80 DUP5 ADD SWAP1 DUP3 DUP9 ADD DUP5 JUMPDEST DUP3 DUP2 LT ISZERO PUSH2 0x153D JUMPI DUP2 MLOAD PUSH1 0x1 PUSH1 0x1 PUSH1 0xA0 SHL SUB AND DUP5 MSTORE SWAP3 DUP5 ADD SWAP3 SWAP1 DUP5 ADD SWAP1 PUSH1 0x1 ADD PUSH2 0x1518 JUMP JUMPDEST POP POP POP DUP4 DUP2 SUB DUP3 DUP6 ADD MSTORE PUSH2 0x1551 DUP2 DUP8 PUSH2 0x14B1 JUMP JUMPDEST SWAP2 POP POP DUP3 DUP2 SUB PUSH1 0x40 DUP5 ADD MSTORE PUSH2 0x1566 DUP2 DUP6 PUSH2 0x14B1 JUMP JUMPDEST SWAP7 SWAP6 POP POP POP POP POP POP JUMP JUMPDEST PUSH1 0x20 DUP1 DUP3 MSTORE DUP3 MLOAD DUP3 DUP3 ADD DUP2 SWAP1 MSTORE PUSH0 SWAP2 SWAP1 PUSH1 0x40 SWAP1 DUP2 DUP6 ADD SWAP1 DUP7 DUP5 ADD DUP6 JUMPDEST DUP3 DUP2 LT ISZERO PUSH2 0x15F5 JUMPI DUP2 MLOAD DUP1 MLOAD PUSH1 0x1 PUSH1 0x1 PUSH1 0xA0 SHL SUB SWAP1 DUP2 AND DUP7 MSTORE DUP8 DUP3 ADD MLOAD DUP9 DUP8 ADD MSTORE DUP7 DUP3 ADD MLOAD DUP8 DUP8 ADD MSTORE PUSH1 0x60 DUP1 DUP4 ADD MLOAD SWAP1 DUP8 ADD MSTORE PUSH1 0x80 DUP1 DUP4 ADD MLOAD SWAP1 SWAP2 AND SWAP1 DUP7 ADD MSTORE PUSH1 0xA0 DUP1 DUP3 ADD MLOAD SWAP1 DUP7 ADD MSTORE PUSH1 0xC0 SWAP1 DUP2 ADD MLOAD PUSH1 0xFF AND SWAP1 DUP6 ADD MSTORE PUSH1 0xE0 SWAP1 SWAP4 ADD SWAP3 SWAP1 DUP6 ADD SWAP1 PUSH1 0x1 ADD PUSH2 0x158C JUMP JUMPDEST POP SWAP2 SWAP8 SWAP7 POP POP POP POP POP POP POP JUMP JUMPDEST PUSH4 0x4E487B71 PUSH1 0xE0 SHL PUSH0 MSTORE PUSH1 0x41 PUSH1 0x4 MSTORE PUSH1 0x24 PUSH0 REVERT JUMPDEST PUSH4 0x4E487B71 PUSH1 0xE0 SHL PUSH0 MSTORE PUSH1 0x32 PUSH1 0x4 MSTORE PUSH1 0x24 PUSH0 REVERT JUMPDEST PUSH4 0x4E487B71 PUSH1 0xE0 SHL PUSH0 MSTORE PUSH1 0x11 PUSH1 0x4 MSTORE PUSH1 0x24 PUSH0 REVERT JUMPDEST PUSH0 PUSH1 0x1 DUP3 ADD PUSH2 0x164F JUMPI PUSH2 0x164F PUSH2 0x162A JUMP JUMPDEST POP PUSH1 0x1 ADD SWAP1 JUMP JUMPDEST PUSH0 PUSH1 0x20 DUP3 DUP5 SUB SLT ISZERO PUSH2 0x1666 JUMPI PUSH0 DUP1 REVERT JUMPDEST DUP2 MLOAD DUP1 ISZERO ISZERO DUP2 EQ PUSH2 0x14AA JUMPI PUSH0 DUP1 REVERT JUMPDEST DUP1 DUP3 MUL DUP2 ISZERO DUP3 DUP3 DIV DUP5 EQ OR PUSH2 0x168C JUMPI PUSH2 0x168C PUSH2 0x162A JUMP JUMPDEST SWAP3 SWAP2 POP POP JUMP JUMPDEST PUSH0 DUP3 PUSH2 0x16AC JUMPI PUSH4 0x4E487B71 PUSH1 0xE0 SHL PUSH0 MSTORE PUSH1 0x12 PUSH1 0x4 MSTORE PUSH1 0x24 PUSH0 REVERT JUMPDEST POP DIV SWAP1 JUMP JUMPDEST DUP1 DUP3 ADD DUP1 DUP3 GT ISZERO PUSH2 0x168C JUMPI PUSH2 0x168C PUSH2 0x162A JUMP JUMPDEST PUSH0 PUSH1 0xFF DUP3 AND PUSH1 0xFF DUP2 SUB PUSH2 0x16D9 JUMPI PUSH2 0x16D9 PUSH2 0x162A JUMP JUMPDEST PUSH1 0x1 ADD SWAP3 SWAP2 POP POP JUMP JUMPDEST PUSH1 0xFF DUP2 DUP2 AND DUP4 DUP3 AND ADD SWAP1 DUP2 GT ISZERO PUSH2 0x168C JUMPI PUSH2 0x168C PUSH2 0x162A JUMP INVALID LOG2 PUSH5 0x6970667358 0x22 SLT KECCAK256 SWAP2 0xA6 SWAP11 PUSH2 0x2D64 PUSH16 0xA51536A9D7EA891CDB84F9C16D6565F7 MUL SLOAD PUSH18 0xE4023FEBFEA464736F6C6343000814003300 "
				},
				"gasEstimates": {
					"creation": {
						"codeDepositCost": "1187400",
						"executionCost": "infinite",
						"totalCost": "infinite"
					},
					"external": {
						"allUsers(uint256)": "4656",
						"directReferrals(address,uint256)": "9081",
						"getDirectReferralCount(address)": "2623",
						"getLevelIncomeDistribution(address)": "infinite",
						"getPositionIds(address)": "infinite",
						"getReferralIncomeDetails(address)": "infinite",
						"getStakeByPositionId(uint256)": "infinite",
						"getTotalIncome(address)": "2562",
						"getTotalLevelIncome(address)": "2590",
						"getTotalUsers()": "2402",
						"getUserLevel(address)": "2706",
						"levelRewards(uint256)": "6301",
						"owner()": "2402",
						"positionIdToUser(uint256)": "2520",
						"register(address)": "151186",
						"stake(uint256)": "infinite",
						"stakeCounter()": "2404",
						"usdtToken()": "2447",
						"users(address)": "6917",
						"withdrawUSDT(uint256)": "infinite"
					}
				},
				"methodIdentifiers": {
					"allUsers(uint256)": "a2bdedf4",
					"directReferrals(address,uint256)": "05ad3935",
					"getDirectReferralCount(address)": "98278efb",
					"getLevelIncomeDistribution(address)": "ef71ae56",
					"getPositionIds(address)": "28fe7031",
					"getReferralIncomeDetails(address)": "9d747bad",
					"getStakeByPositionId(uint256)": "797c7f5f",
					"getTotalIncome(address)": "c2d3c677",
					"getTotalLevelIncome(address)": "c5b89c0a",
					"getTotalUsers()": "9be572f6",
					"getUserLevel(address)": "21923bde",
					"levelRewards(uint256)": "e45a57d0",
					"owner()": "8da5cb5b",
					"positionIdToUser(uint256)": "1e43eb27",
					"register(address)": "4420e486",
					"stake(uint256)": "a694fc3a",
					"stakeCounter()": "f7b17d10",
					"usdtToken()": "a98ad46c",
					"users(address)": "a87430ba",
					"withdrawUSDT(uint256)": "3ea521ef"
				}
			},
			"storageLayout": {
				"storage": [
					{
						"astId": 24,
						"contract": "contracts/kk.sol:MLMStakingUSDT",
						"label": "owner",
						"offset": 0,
						"slot": "0",
						"type": "t_address"
					},
					{
						"astId": 26,
						"contract": "contracts/kk.sol:MLMStakingUSDT",
						"label": "stakeCounter",
						"offset": 0,
						"slot": "1",
						"type": "t_uint256"
					},
					{
						"astId": 29,
						"contract": "contracts/kk.sol:MLMStakingUSDT",
						"label": "usdtToken",
						"offset": 0,
						"slot": "2",
						"type": "t_contract(IERC20)22"
					},
					{
						"astId": 93,
						"contract": "contracts/kk.sol:MLMStakingUSDT",
						"label": "users",
						"offset": 0,
						"slot": "3",
						"type": "t_mapping(t_address,t_struct(User)73_storage)"
					},
					{
						"astId": 99,
						"contract": "contracts/kk.sol:MLMStakingUSDT",
						"label": "directReferrals",
						"offset": 0,
						"slot": "4",
						"type": "t_mapping(t_address,t_array(t_struct(ReferralInfo)62_storage)dyn_storage)"
					},
					{
						"astId": 103,
						"contract": "contracts/kk.sol:MLMStakingUSDT",
						"label": "positionIdToUser",
						"offset": 0,
						"slot": "5",
						"type": "t_mapping(t_uint256,t_address)"
					},
					{
						"astId": 106,
						"contract": "contracts/kk.sol:MLMStakingUSDT",
						"label": "allUsers",
						"offset": 0,
						"slot": "6",
						"type": "t_array(t_address)dyn_storage"
					},
					{
						"astId": 113,
						"contract": "contracts/kk.sol:MLMStakingUSDT",
						"label": "levelRewards",
						"offset": 0,
						"slot": "7",
						"type": "t_array(t_uint8)dyn_storage"
					}
				],
				"types": {
					"t_address": {
						"encoding": "inplace",
						"label": "address",
						"numberOfBytes": "20"
					},
					"t_array(t_address)dyn_storage": {
						"base": "t_address",
						"encoding": "dynamic_array",
						"label": "address[]",
						"numberOfBytes": "32"
					},
					"t_array(t_struct(ReferralInfo)62_storage)dyn_storage": {
						"base": "t_struct(ReferralInfo)62_storage",
						"encoding": "dynamic_array",
						"label": "struct MLMStakingUSDT.ReferralInfo[]",
						"numberOfBytes": "32"
					},
					"t_array(t_struct(Stake)55_storage)dyn_storage": {
						"base": "t_struct(Stake)55_storage",
						"encoding": "dynamic_array",
						"label": "struct MLMStakingUSDT.Stake[]",
						"numberOfBytes": "32"
					},
					"t_array(t_uint8)dyn_storage": {
						"base": "t_uint8",
						"encoding": "dynamic_array",
						"label": "uint8[]",
						"numberOfBytes": "32"
					},
					"t_contract(IERC20)22": {
						"encoding": "inplace",
						"label": "contract IERC20",
						"numberOfBytes": "20"
					},
					"t_mapping(t_address,t_array(t_struct(ReferralInfo)62_storage)dyn_storage)": {
						"encoding": "mapping",
						"key": "t_address",
						"label": "mapping(address => struct MLMStakingUSDT.ReferralInfo[])",
						"numberOfBytes": "32",
						"value": "t_array(t_struct(ReferralInfo)62_storage)dyn_storage"
					},
					"t_mapping(t_address,t_struct(User)73_storage)": {
						"encoding": "mapping",
						"key": "t_address",
						"label": "mapping(address => struct MLMStakingUSDT.User)",
						"numberOfBytes": "32",
						"value": "t_struct(User)73_storage"
					},
					"t_mapping(t_uint256,t_address)": {
						"encoding": "mapping",
						"key": "t_uint256",
						"label": "mapping(uint256 => address)",
						"numberOfBytes": "32",
						"value": "t_address"
					},
					"t_struct(ReferralInfo)62_storage": {
						"encoding": "inplace",
						"label": "struct MLMStakingUSDT.ReferralInfo",
						"members": [
							{
								"astId": 57,
								"contract": "contracts/kk.sol:MLMStakingUSDT",
								"label": "referralAddress",
								"offset": 0,
								"slot": "0",
								"type": "t_address"
							},
							{
								"astId": 59,
								"contract": "contracts/kk.sol:MLMStakingUSDT",
								"label": "incomeEarned",
								"offset": 0,
								"slot": "1",
								"type": "t_uint256"
							},
							{
								"astId": 61,
								"contract": "contracts/kk.sol:MLMStakingUSDT",
								"label": "timestamp",
								"offset": 0,
								"slot": "2",
								"type": "t_uint256"
							}
						],
						"numberOfBytes": "96"
					},
					"t_struct(Stake)55_storage": {
						"encoding": "inplace",
						"label": "struct MLMStakingUSDT.Stake",
						"members": [
							{
								"astId": 48,
								"contract": "contracts/kk.sol:MLMStakingUSDT",
								"label": "stakeId",
								"offset": 0,
								"slot": "0",
								"type": "t_uint256"
							},
							{
								"astId": 50,
								"contract": "contracts/kk.sol:MLMStakingUSDT",
								"label": "positionId",
								"offset": 0,
								"slot": "1",
								"type": "t_uint256"
							},
							{
								"astId": 52,
								"contract": "contracts/kk.sol:MLMStakingUSDT",
								"label": "amount",
								"offset": 0,
								"slot": "2",
								"type": "t_uint256"
							},
							{
								"astId": 54,
								"contract": "contracts/kk.sol:MLMStakingUSDT",
								"label": "timestamp",
								"offset": 0,
								"slot": "3",
								"type": "t_uint256"
							}
						],
						"numberOfBytes": "128"
					},
					"t_struct(User)73_storage": {
						"encoding": "inplace",
						"label": "struct MLMStakingUSDT.User",
						"members": [
							{
								"astId": 64,
								"contract": "contracts/kk.sol:MLMStakingUSDT",
								"label": "referrer",
								"offset": 0,
								"slot": "0",
								"type": "t_address"
							},
							{
								"astId": 68,
								"contract": "contracts/kk.sol:MLMStakingUSDT",
								"label": "stakes",
								"offset": 0,
								"slot": "1",
								"type": "t_array(t_struct(Stake)55_storage)dyn_storage"
							},
							{
								"astId": 70,
								"contract": "contracts/kk.sol:MLMStakingUSDT",
								"label": "totalIncome",
								"offset": 0,
								"slot": "2",
								"type": "t_uint256"
							},
							{
								"astId": 72,
								"contract": "contracts/kk.sol:MLMStakingUSDT",
								"label": "levelIncome",
								"offset": 0,
								"slot": "3",
								"type": "t_uint256"
							}
						],
						"numberOfBytes": "128"
					},
					"t_uint256": {
						"encoding": "inplace",
						"label": "uint256",
						"numberOfBytes": "32"
					},
					"t_uint8": {
						"encoding": "inplace",
						"label": "uint8",
						"numberOfBytes": "1"
					}
				}
			},
			"userdoc": {
				"kind": "user",
				"methods": {},
				"version": 1
			}
		}
	}
}