{
	"contracts/roy.sol": {
		"MLMStakingUSDT": {
			"abi": [
				{
					"inputs": [
						{
							"internalType": "address",
							"name": "_usdtToken",
							"type": "address"
						}
					],
					"stateMutability": "nonpayable",
					"type": "constructor"
				},
				{
					"anonymous": false,
					"inputs": [
						{
							"indexed": true,
							"internalType": "address",
							"name": "user",
							"type": "address"
						},
						{
							"indexed": false,
							"internalType": "uint256",
							"name": "stakeId",
							"type": "uint256"
						},
						{
							"indexed": false,
							"internalType": "uint256",
							"name": "amount",
							"type": "uint256"
						},
						{
							"indexed": false,
							"internalType": "uint256",
							"name": "reward",
							"type": "uint256"
						}
					],
					"name": "Claimed",
					"type": "event"
				},
				{
					"inputs": [
						{
							"internalType": "uint256",
							"name": "",
							"type": "uint256"
						}
					],
					"name": "allUsers",
					"outputs": [
						{
							"internalType": "address",
							"name": "",
							"type": "address"
						}
					],
					"stateMutability": "view",
					"type": "function"
				},
				{
					"inputs": [
						{
							"internalType": "uint256",
							"name": "_positionId",
							"type": "uint256"
						}
					],
					"name": "claim",
					"outputs": [],
					"stateMutability": "nonpayable",
					"type": "function"
				},
				{
					"inputs": [
						{
							"internalType": "address",
							"name": "",
							"type": "address"
						}
					],
					"name": "directReferralIncome",
					"outputs": [
						{
							"internalType": "uint256",
							"name": "",
							"type": "uint256"
						}
					],
					"stateMutability": "view",
					"type": "function"
				},
				{
					"inputs": [
						{
							"internalType": "address",
							"name": "",
							"type": "address"
						},
						{
							"internalType": "uint256",
							"name": "",
							"type": "uint256"
						}
					],
					"name": "directReferrals",
					"outputs": [
						{
							"internalType": "address",
							"name": "referralAddress",
							"type": "address"
						},
						{
							"internalType": "uint256",
							"name": "incomeEarned",
							"type": "uint256"
						},
						{
							"internalType": "uint256",
							"name": "timestamp",
							"type": "uint256"
						}
					],
					"stateMutability": "view",
					"type": "function"
				},
				{
					"inputs": [
						{
							"internalType": "address",
							"name": "user",
							"type": "address"
						}
					],
					"name": "getDirectReferralCount",
					"outputs": [
						{
							"internalType": "uint256",
							"name": "",
							"type": "uint256"
						}
					],
					"stateMutability": "view",
					"type": "function"
				},
				{
					"inputs": [
						{
							"internalType": "address",
							"name": "user",
							"type": "address"
						}
					],
					"name": "getDirectReferralIncome",
					"outputs": [
						{
							"internalType": "uint256",
							"name": "",
							"type": "uint256"
						}
					],
					"stateMutability": "view",
					"type": "function"
				},
				{
					"inputs": [
						{
							"internalType": "uint256",
							"name": "amount",
							"type": "uint256"
						},
						{
							"internalType": "uint256",
							"name": "numDays",
							"type": "uint256"
						}
					],
					"name": "getEstimatedReturn",
					"outputs": [
						{
							"internalType": "uint256",
							"name": "interest",
							"type": "uint256"
						},
						{
							"internalType": "uint256",
							"name": "totalReturn",
							"type": "uint256"
						}
					],
					"stateMutability": "view",
					"type": "function"
				},
				{
					"inputs": [
						{
							"internalType": "address",
							"name": "user",
							"type": "address"
						}
					],
					"name": "getLevelIncome",
					"outputs": [
						{
							"internalType": "uint256",
							"name": "",
							"type": "uint256"
						}
					],
					"stateMutability": "view",
					"type": "function"
				},
				{
					"inputs": [
						{
							"internalType": "address",
							"name": "_user",
							"type": "address"
						}
					],
					"name": "getLevelIncomeDistribution",
					"outputs": [
						{
							"components": [
								{
									"internalType": "address",
									"name": "receiverAddress",
									"type": "address"
								},
								{
									"internalType": "uint256",
									"name": "stakeId",
									"type": "uint256"
								},
								{
									"internalType": "uint256",
									"name": "stakeAmount",
									"type": "uint256"
								},
								{
									"internalType": "uint256",
									"name": "incomeReceived",
									"type": "uint256"
								},
								{
									"internalType": "address",
									"name": "uplineAddress",
									"type": "address"
								},
								{
									"internalType": "uint256",
									"name": "timestamp",
									"type": "uint256"
								},
								{
									"internalType": "uint8",
									"name": "level",
									"type": "uint8"
								}
							],
							"internalType": "struct MLMStakingUSDT.LevelIncomeData[]",
							"name": "",
							"type": "tuple[]"
						}
					],
					"stateMutability": "view",
					"type": "function"
				},
				{
					"inputs": [
						{
							"internalType": "address",
							"name": "_user",
							"type": "address"
						}
					],
					"name": "getPositionIds",
					"outputs": [
						{
							"internalType": "uint256[]",
							"name": "",
							"type": "uint256[]"
						}
					],
					"stateMutability": "view",
					"type": "function"
				},
				{
					"inputs": [
						{
							"internalType": "address",
							"name": "user",
							"type": "address"
						}
					],
					"name": "getReferralIncomeDetails",
					"outputs": [
						{
							"internalType": "address[]",
							"name": "referralAddresses",
							"type": "address[]"
						},
						{
							"internalType": "uint256[]",
							"name": "incomes",
							"type": "uint256[]"
						},
						{
							"internalType": "uint256[]",
							"name": "timestamps",
							"type": "uint256[]"
						}
					],
					"stateMutability": "view",
					"type": "function"
				},
				{
					"inputs": [
						{
							"internalType": "uint256",
							"name": "_positionId",
							"type": "uint256"
						}
					],
					"name": "getStakeByPositionId",
					"outputs": [
						{
							"internalType": "address",
							"name": "user",
							"type": "address"
						},
						{
							"internalType": "uint256",
							"name": "stakeId",
							"type": "uint256"
						},
						{
							"internalType": "uint256",
							"name": "amount",
							"type": "uint256"
						},
						{
							"internalType": "uint256",
							"name": "startDate",
							"type": "uint256"
						},
						{
							"internalType": "uint256",
							"name": "endDate",
							"type": "uint256"
						},
						{
							"internalType": "uint256",
							"name": "apy",
							"type": "uint256"
						},
						{
							"internalType": "uint256",
							"name": "perDayInterest",
							"type": "uint256"
						},
						{
							"internalType": "bool",
							"name": "status",
							"type": "bool"
						}
					],
					"stateMutability": "view",
					"type": "function"
				},
				{
					"inputs": [
						{
							"internalType": "address",
							"name": "user",
							"type": "address"
						}
					],
					"name": "getTotalIncome",
					"outputs": [
						{
							"internalType": "uint256",
							"name": "",
							"type": "uint256"
						}
					],
					"stateMutability": "view",
					"type": "function"
				},
				{
					"inputs": [
						{
							"internalType": "address",
							"name": "user",
							"type": "address"
						}
					],
					"name": "getTotalLevelIncome",
					"outputs": [
						{
							"internalType": "uint256",
							"name": "",
							"type": "uint256"
						}
					],
					"stateMutability": "view",
					"type": "function"
				},
				{
					"inputs": [],
					"name": "getTotalUsers",
					"outputs": [
						{
							"internalType": "uint256",
							"name": "",
							"type": "uint256"
						}
					],
					"stateMutability": "view",
					"type": "function"
				},
				{
					"inputs": [
						{
							"internalType": "address",
							"name": "user",
							"type": "address"
						}
					],
					"name": "getUserLevel",
					"outputs": [
						{
							"internalType": "uint8",
							"name": "",
							"type": "uint8"
						}
					],
					"stateMutability": "view",
					"type": "function"
				},
				{
					"inputs": [
						{
							"internalType": "address",
							"name": "user",
							"type": "address"
						}
					],
					"name": "isRegistered",
					"outputs": [
						{
							"internalType": "bool",
							"name": "",
							"type": "bool"
						}
					],
					"stateMutability": "view",
					"type": "function"
				},
				{
					"inputs": [
						{
							"internalType": "uint256",
							"name": "",
							"type": "uint256"
						}
					],
					"name": "levelRewards",
					"outputs": [
						{
							"internalType": "uint8",
							"name": "",
							"type": "uint8"
						}
					],
					"stateMutability": "view",
					"type": "function"
				},
				{
					"inputs": [],
					"name": "owner",
					"outputs": [
						{
							"internalType": "address",
							"name": "",
							"type": "address"
						}
					],
					"stateMutability": "view",
					"type": "function"
				},
				{
					"inputs": [
						{
							"internalType": "uint256",
							"name": "",
							"type": "uint256"
						}
					],
					"name": "positionIdToUser",
					"outputs": [
						{
							"internalType": "address",
							"name": "",
							"type": "address"
						}
					],
					"stateMutability": "view",
					"type": "function"
				},
				{
					"inputs": [
						{
							"internalType": "address",
							"name": "referrer",
							"type": "address"
						}
					],
					"name": "register",
					"outputs": [],
					"stateMutability": "nonpayable",
					"type": "function"
				},
				{
					"inputs": [
						{
							"internalType": "uint256",
							"name": "numDays",
							"type": "uint256"
						},
						{
							"internalType": "uint256",
							"name": "amount",
							"type": "uint256"
						}
					],
					"name": "stake",
					"outputs": [],
					"stateMutability": "nonpayable",
					"type": "function"
				},
				{
					"inputs": [],
					"name": "stakeCounter",
					"outputs": [
						{
							"internalType": "uint256",
							"name": "",
							"type": "uint256"
						}
					],
					"stateMutability": "view",
					"type": "function"
				},
				{
					"inputs": [
						{
							"internalType": "uint256",
							"name": "",
							"type": "uint256"
						}
					],
					"name": "stakingAPY",
					"outputs": [
						{
							"internalType": "uint256",
							"name": "",
							"type": "uint256"
						}
					],
					"stateMutability": "view",
					"type": "function"
				},
				{
					"inputs": [],
					"name": "usdtToken",
					"outputs": [
						{
							"internalType": "contract IERC20",
							"name": "",
							"type": "address"
						}
					],
					"stateMutability": "view",
					"type": "function"
				},
				{
					"inputs": [
						{
							"internalType": "address",
							"name": "",
							"type": "address"
						}
					],
					"name": "users",
					"outputs": [
						{
							"internalType": "address",
							"name": "referrer",
							"type": "address"
						},
						{
							"internalType": "uint256",
							"name": "totalIncome",
							"type": "uint256"
						},
						{
							"internalType": "uint256",
							"name": "levelIncome",
							"type": "uint256"
						},
						{
							"internalType": "bool",
							"name": "registered",
							"type": "bool"
						}
					],
					"stateMutability": "view",
					"type": "function"
				},
				{
					"inputs": [
						{
							"internalType": "uint256",
							"name": "amount",
							"type": "uint256"
						}
					],
					"name": "withdrawUSDT",
					"outputs": [],
					"stateMutability": "nonpayable",
					"type": "function"
				}
			],
			"devdoc": {
				"kind": "dev",
				"methods": {},
				"version": 1
			},
			"evm": {
				"assembly": "    /* \"contracts/roy.sol\":1786:1832  uint8[5] public levelRewards = [5, 3, 2, 1, 1] */\n  0x0120\n    /* \"contracts/roy.sol\":349:12572  contract MLMStakingUSDT {... */\n  0x40\n    /* \"contracts/roy.sol\":1786:1832  uint8[5] public levelRewards = [5, 3, 2, 1, 1] */\n  mstore\n    /* \"contracts/roy.sol\":1818:1819  5 */\n  0x05\n    /* \"contracts/roy.sol\":349:12572  contract MLMStakingUSDT {... */\n  0x80\n    /* \"contracts/roy.sol\":1786:1832  uint8[5] public levelRewards = [5, 3, 2, 1, 1] */\n  dup2\n  dup2\n  mstore\n    /* \"contracts/roy.sol\":1821:1822  3 */\n  0x03\n    /* \"contracts/roy.sol\":1786:1832  uint8[5] public levelRewards = [5, 3, 2, 1, 1] */\n  0xa0\n  mstore\n    /* \"contracts/roy.sol\":1824:1825  2 */\n  0x02\n    /* \"contracts/roy.sol\":1786:1832  uint8[5] public levelRewards = [5, 3, 2, 1, 1] */\n  0xc0\n  mstore\n    /* \"contracts/roy.sol\":1827:1828  1 */\n  0x01\n    /* \"contracts/roy.sol\":1786:1832  uint8[5] public levelRewards = [5, 3, 2, 1, 1] */\n  0xe0\n  dup2\n  swap1\n  mstore\n  0x0100\n  mstore\n  tag_1\n  swap2\n  0x09\n  swap2\n    /* \"contracts/roy.sol\":349:12572  contract MLMStakingUSDT {... */\n  swap1\n    /* \"contracts/roy.sol\":1786:1832  uint8[5] public levelRewards = [5, 3, 2, 1, 1] */\n  tag_2\n  jump\t// in\ntag_1:\n  pop\n    /* \"contracts/roy.sol\":473:753  constructor(address _usdtToken) {... */\n  callvalue\n  dup1\n  iszero\n  tag_3\n  jumpi\n  0x00\n  dup1\n  revert\ntag_3:\n  pop\n  mload(0x40)\n  sub(codesize, bytecodeSize)\n  dup1\n  bytecodeSize\n  dup4\n  codecopy\n  dup2\n  add\n  0x40\n  dup2\n  swap1\n  mstore\n  tag_4\n  swap2\n  tag_5\n  jump\t// in\ntag_4:\n    /* \"contracts/roy.sol\":516:521  owner */\n  0x00\n    /* \"contracts/roy.sol\":516:534  owner = msg.sender */\n  dup1\n  sload\n    /* \"contracts/roy.sol\":524:534  msg.sender */\n  caller\n  not(sub(shl(0xa0, 0x01), 0x01))\n    /* \"contracts/roy.sol\":516:534  owner = msg.sender */\n  swap2\n  dup3\n  and\n  dup2\n  or\n  dup4\n  sstore\n    /* \"contracts/roy.sol\":545:554  usdtToken */\n  0x02\n    /* \"contracts/roy.sol\":545:575  usdtToken = IERC20(_usdtToken) */\n  dup1\n  sload\n  swap1\n  swap3\n  and\n  sub(shl(0xa0, 0x01), 0x01)\n  swap5\n  swap1\n  swap5\n  and\n  swap4\n  swap1\n  swap4\n  or\n  swap1\n  sstore\n    /* \"contracts/roy.sol\":586:598  users[owner] */\n  swap1\n  dup2\n  mstore\n    /* \"contracts/roy.sol\":586:591  users */\n  0x03\n    /* \"contracts/roy.sol\":586:598  users[owner] */\n  0x20\n  dup2\n  dup2\n  mstore\n  0x40\n  dup4\n  keccak256\n    /* \"contracts/roy.sol\":586:609  users[owner].registered */\n  0x04\n  add\n    /* \"contracts/roy.sol\":586:616  users[owner].registered = true */\n  dup1\n  sload\n  not(0xff)\n  and\n  0x01\n  swap1\n  dup2\n  or\n  swap1\n  swap2\n  sstore\n    /* \"contracts/roy.sol\":629:639  stakingAPY */\n  0x06\n    /* \"contracts/roy.sol\":629:643  stakingAPY[30] */\n  swap2\n  dup3\n  swap1\n  mstore\n  0xb6ba906ff52451a7a924e2eaeb8aea3ebee7350a8703e5e417edb25358c7dcc1\n    /* \"contracts/roy.sol\":629:647  stakingAPY[30] = 1 */\n  sstore\n    /* \"contracts/roy.sol\":658:672  stakingAPY[90] */\n  0x1727c0104c2870c3003671480695f7dab262614528b49265008e76fd3d48c5fe\n    /* \"contracts/roy.sol\":658:676  stakingAPY[90] = 3 */\n  swap2\n  swap1\n  swap2\n  sstore\n    /* \"contracts/roy.sol\":687:702  stakingAPY[180] */\n  0xfb78eb295a86b096b5f095822bd250a277112be4103ea4a7608d96eca726b2c1\n    /* \"contracts/roy.sol\":687:706  stakingAPY[180] = 6 */\n  sstore\n    /* \"contracts/roy.sol\":728:731  365 */\n  0x016d\n    /* \"contracts/roy.sol\":717:732  stakingAPY[365] */\n  swap1\n  mstore\n    /* \"contracts/roy.sol\":735:737  12 */\n  0x0c\n    /* \"contracts/roy.sol\":717:732  stakingAPY[365] */\n  0x0bbf8adea84d189c39869a372ab30aeba9246eea044edc5a37ac100921b2c4e1\n    /* \"contracts/roy.sol\":717:737  stakingAPY[365] = 12 */\n  sstore\n    /* \"contracts/roy.sol\":349:12572  contract MLMStakingUSDT {... */\n  jump(tag_17)\ntag_2:\n  0x01\n  dup4\n  add\n  swap2\n  dup4\n  swap1\n  dup3\n  iszero\n  tag_9\n  jumpi\n  swap2\n  0x20\n  mul\n  dup3\n  add\n  0x00\ntag_10:\n  dup4\n  dup3\n  gt\n  iszero\n  tag_11\n  jumpi\n  dup4\n  mload\n  dup4\n  dup3\n  0x0100\n  exp\n  dup2\n  sload\n  dup2\n  0xff\n  mul\n  not\n  and\n  swap1\n  dup4\n  0xff\n  and\n  mul\n  or\n  swap1\n  sstore\n  pop\n  swap3\n  0x20\n  add\n  swap3\n  0x01\n  add\n  0x20\n  dup2\n  0x00\n  add\n  div\n  swap3\n  dup4\n  add\n  swap3\n  0x01\n  sub\n  mul\n  jump(tag_10)\ntag_11:\n  dup1\n  iszero\n  tag_12\n  jumpi\n  dup3\n  dup2\n  0x0100\n  exp\n  dup2\n  sload\n  swap1\n  0xff\n  mul\n  not\n  and\n  swap1\n  sstore\n  0x01\n  add\n  0x20\n  dup2\n  0x00\n  add\n  div\n  swap3\n  dup4\n  add\n  swap3\n  0x01\n  sub\n  mul\n  jump(tag_11)\ntag_12:\n  pop\ntag_9:\n  pop\n  tag_13\n  swap3\n  swap2\n  pop\n  tag_14\n  jump\t// in\ntag_13:\n  pop\n  swap1\n  jump\t// out\ntag_14:\ntag_15:\n  dup1\n  dup3\n  gt\n  iszero\n  tag_13\n  jumpi\n  0x00\n  dup2\n  sstore\n  0x01\n  add\n  jump(tag_15)\n    /* \"#utility.yul\":14:304   */\ntag_5:\n    /* \"#utility.yul\":84:90   */\n  0x00\n    /* \"#utility.yul\":137:139   */\n  0x20\n    /* \"#utility.yul\":125:134   */\n  dup3\n    /* \"#utility.yul\":116:123   */\n  dup5\n    /* \"#utility.yul\":112:135   */\n  sub\n    /* \"#utility.yul\":108:140   */\n  slt\n    /* \"#utility.yul\":105:157   */\n  iszero\n  tag_19\n  jumpi\n    /* \"#utility.yul\":153:154   */\n  0x00\n    /* \"#utility.yul\":150:151   */\n  dup1\n    /* \"#utility.yul\":143:155   */\n  revert\n    /* \"#utility.yul\":105:157   */\ntag_19:\n    /* \"#utility.yul\":179:195   */\n  dup2\n  mload\n  sub(shl(0xa0, 0x01), 0x01)\n    /* \"#utility.yul\":224:255   */\n  dup2\n  and\n    /* \"#utility.yul\":214:256   */\n  dup2\n  eq\n    /* \"#utility.yul\":204:274   */\n  tag_20\n  jumpi\n    /* \"#utility.yul\":270:271   */\n  0x00\n    /* \"#utility.yul\":267:268   */\n  dup1\n    /* \"#utility.yul\":260:272   */\n  revert\n    /* \"#utility.yul\":204:274   */\ntag_20:\n    /* \"#utility.yul\":293:298   */\n  swap4\n    /* \"#utility.yul\":14:304   */\n  swap3\n  pop\n  pop\n  pop\n  jump\t// out\ntag_17:\n    /* \"contracts/roy.sol\":349:12572  contract MLMStakingUSDT {... */\n  dataSize(sub_0)\n  dup1\n  dataOffset(sub_0)\n  0x00\n  codecopy\n  0x00\n  return\nstop\n\nsub_0: assembly {\n        /* \"contracts/roy.sol\":349:12572  contract MLMStakingUSDT {... */\n      mstore(0x40, 0x80)\n      callvalue\n      dup1\n      iszero\n      tag_1\n      jumpi\n      0x00\n      dup1\n      revert\n    tag_1:\n      pop\n      jumpi(tag_2, lt(calldatasize, 0x04))\n      shr(0xe0, calldataload(0x00))\n      dup1\n      0x9be572f6\n      gt\n      tag_30\n      jumpi\n      dup1\n      0xc2d3c677\n      gt\n      tag_31\n      jumpi\n      dup1\n      0xe45a57d0\n      gt\n      tag_32\n      jumpi\n      dup1\n      0xe45a57d0\n      eq\n      tag_26\n      jumpi\n      dup1\n      0xef71ae56\n      eq\n      tag_27\n      jumpi\n      dup1\n      0xf6e88873\n      eq\n      tag_28\n      jumpi\n      dup1\n      0xf7b17d10\n      eq\n      tag_29\n      jumpi\n      0x00\n      dup1\n      revert\n    tag_32:\n      dup1\n      0xc2d3c677\n      eq\n      tag_23\n      jumpi\n      dup1\n      0xc3c5a547\n      eq\n      tag_24\n      jumpi\n      dup1\n      0xc5b89c0a\n      eq\n      tag_10\n      jumpi\n      0x00\n      dup1\n      revert\n    tag_31:\n      dup1\n      0xa87430ba\n      gt\n      tag_33\n      jumpi\n      dup1\n      0xa87430ba\n      eq\n      tag_19\n      jumpi\n      dup1\n      0xa98ad46c\n      eq\n      tag_20\n      jumpi\n      dup1\n      0xaa7ed462\n      eq\n      tag_21\n      jumpi\n      dup1\n      0xbd297178\n      eq\n      tag_22\n      jumpi\n      0x00\n      dup1\n      revert\n    tag_33:\n      dup1\n      0x9be572f6\n      eq\n      tag_16\n      jumpi\n      dup1\n      0x9d747bad\n      eq\n      tag_17\n      jumpi\n      dup1\n      0xa2bdedf4\n      eq\n      tag_18\n      jumpi\n      0x00\n      dup1\n      revert\n    tag_30:\n      dup1\n      0x4420e486\n      gt\n      tag_34\n      jumpi\n      dup1\n      0x7b0472f0\n      gt\n      tag_35\n      jumpi\n      dup1\n      0x7b0472f0\n      eq\n      tag_12\n      jumpi\n      dup1\n      0x875bb4e2\n      eq\n      tag_13\n      jumpi\n      dup1\n      0x8da5cb5b\n      eq\n      tag_14\n      jumpi\n      dup1\n      0x98278efb\n      eq\n      tag_15\n      jumpi\n      0x00\n      dup1\n      revert\n    tag_35:\n      dup1\n      0x4420e486\n      eq\n      tag_9\n      jumpi\n      dup1\n      0x5bd4e16a\n      eq\n      tag_10\n      jumpi\n      dup1\n      0x797c7f5f\n      eq\n      tag_11\n      jumpi\n      0x00\n      dup1\n      revert\n    tag_34:\n      dup1\n      0x05ad3935\n      eq\n      tag_3\n      jumpi\n      dup1\n      0x1e43eb27\n      eq\n      tag_4\n      jumpi\n      dup1\n      0x21923bde\n      eq\n      tag_5\n      jumpi\n      dup1\n      0x28fe7031\n      eq\n      tag_6\n      jumpi\n      dup1\n      0x379607f5\n      eq\n      tag_7\n      jumpi\n      dup1\n      0x3ea521ef\n      eq\n      tag_8\n      jumpi\n    tag_2:\n      0x00\n      dup1\n      revert\n        /* \"contracts/roy.sol\":1516:1573  mapping(address => ReferralInfo[]) public directReferrals */\n    tag_3:\n      tag_36\n      tag_37\n      calldatasize\n      0x04\n      tag_38\n      jump\t// in\n    tag_37:\n      tag_39\n      jump\t// in\n    tag_36:\n      0x40\n      dup1\n      mload\n      sub(shl(0xa0, 0x01), 0x01)\n        /* \"#utility.yul\":671:703   */\n      swap1\n      swap5\n      and\n        /* \"#utility.yul\":653:704   */\n      dup5\n      mstore\n        /* \"#utility.yul\":735:737   */\n      0x20\n        /* \"#utility.yul\":720:738   */\n      dup5\n      add\n        /* \"#utility.yul\":713:747   */\n      swap3\n      swap1\n      swap3\n      mstore\n        /* \"#utility.yul\":763:781   */\n      swap1\n      dup3\n      add\n        /* \"#utility.yul\":756:790   */\n      mstore\n        /* \"#utility.yul\":641:643   */\n      0x60\n        /* \"#utility.yul\":626:644   */\n      add\n        /* \"contracts/roy.sol\":1516:1573  mapping(address => ReferralInfo[]) public directReferrals */\n    tag_40:\n      mload(0x40)\n      dup1\n      swap2\n      sub\n      swap1\n      return\n        /* \"contracts/roy.sol\":1580:1631  mapping(uint256 => address) public positionIdToUser */\n    tag_4:\n      tag_42\n      tag_43\n      calldatasize\n      0x04\n      tag_44\n      jump\t// in\n    tag_43:\n      mstore(0x20, 0x05)\n      0x00\n      swap1\n      dup2\n      mstore\n      0x40\n      swap1\n      keccak256\n      sload\n      sub(shl(0xa0, 0x01), 0x01)\n      and\n      dup2\n      jump\n    tag_42:\n      mload(0x40)\n      sub(shl(0xa0, 0x01), 0x01)\n        /* \"#utility.yul\":1150:1182   */\n      swap1\n      swap2\n      and\n        /* \"#utility.yul\":1132:1183   */\n      dup2\n      mstore\n        /* \"#utility.yul\":1120:1122   */\n      0x20\n        /* \"#utility.yul\":1105:1123   */\n      add\n        /* \"contracts/roy.sol\":1580:1631  mapping(uint256 => address) public positionIdToUser */\n      tag_40\n        /* \"#utility.yul\":986:1189   */\n      jump\n        /* \"contracts/roy.sol\":9973:10227  function getUserLevel(address user) external view returns (uint8) {... */\n    tag_5:\n      tag_48\n      tag_49\n      calldatasize\n      0x04\n      tag_50\n      jump\t// in\n    tag_49:\n      tag_51\n      jump\t// in\n    tag_48:\n      mload(0x40)\n        /* \"#utility.yul\":1557:1561   */\n      0xff\n        /* \"#utility.yul\":1545:1562   */\n      swap1\n      swap2\n      and\n        /* \"#utility.yul\":1527:1563   */\n      dup2\n      mstore\n        /* \"#utility.yul\":1515:1517   */\n      0x20\n        /* \"#utility.yul\":1500:1518   */\n      add\n        /* \"contracts/roy.sol\":9973:10227  function getUserLevel(address user) external view returns (uint8) {... */\n      tag_40\n        /* \"#utility.yul\":1385:1569   */\n      jump\n        /* \"contracts/roy.sol\":8228:8563  function getPositionIds(address _user) external view returns (uint256[] memory) {... */\n    tag_6:\n      tag_54\n      tag_55\n      calldatasize\n      0x04\n      tag_50\n      jump\t// in\n    tag_55:\n      tag_56\n      jump\t// in\n    tag_54:\n      mload(0x40)\n      tag_40\n      swap2\n      swap1\n      tag_58\n      jump\t// in\n        /* \"contracts/roy.sol\":5091:6318  function claim(uint256 _positionId) external onlyRegistered {... */\n    tag_7:\n      tag_59\n      tag_60\n      calldatasize\n      0x04\n      tag_44\n      jump\t// in\n    tag_60:\n      tag_61\n      jump\t// in\n    tag_59:\n      stop\n        /* \"contracts/roy.sol\":12177:12342  function withdrawUSDT(uint256 amount) external {... */\n    tag_8:\n      tag_59\n      tag_63\n      calldatasize\n      0x04\n      tag_44\n      jump\t// in\n    tag_63:\n      tag_64\n      jump\t// in\n        /* \"contracts/roy.sol\":2054:2633  function register(address referrer) external {... */\n    tag_9:\n      tag_59\n      tag_66\n      calldatasize\n      0x04\n      tag_50\n      jump\t// in\n    tag_66:\n      tag_67\n      jump\t// in\n        /* \"contracts/roy.sol\":8858:8977  function getLevelIncome(address user) external view returns (uint256) {... */\n    tag_10:\n      tag_68\n      tag_69\n      calldatasize\n      0x04\n      tag_50\n      jump\t// in\n    tag_69:\n      sub(shl(0xa0, 0x01), 0x01)\n        /* \"contracts/roy.sol\":8946:8957  users[user] */\n      and\n        /* \"contracts/roy.sol\":8919:8926  uint256 */\n      0x00\n        /* \"contracts/roy.sol\":8946:8957  users[user] */\n      swap1\n      dup2\n      mstore\n        /* \"contracts/roy.sol\":8946:8951  users */\n      0x03\n        /* \"contracts/roy.sol\":8946:8957  users[user] */\n      0x20\n      dup2\n      swap1\n      mstore\n      0x40\n      swap1\n      swap2\n      keccak256\n        /* \"contracts/roy.sol\":8946:8969  users[user].levelIncome */\n      add\n      sload\n      swap1\n        /* \"contracts/roy.sol\":8858:8977  function getLevelIncome(address user) external view returns (uint256) {... */\n      jump\n    tag_68:\n      mload(0x40)\n        /* \"#utility.yul\":2430:2455   */\n      swap1\n      dup2\n      mstore\n        /* \"#utility.yul\":2418:2420   */\n      0x20\n        /* \"#utility.yul\":2403:2421   */\n      add\n        /* \"contracts/roy.sol\":8858:8977  function getLevelIncome(address user) external view returns (uint256) {... */\n      tag_40\n        /* \"#utility.yul\":2284:2461   */\n      jump\n        /* \"contracts/roy.sol\":7028:8218  function getStakeByPositionId(uint256 _positionId) external view returns (... */\n    tag_11:\n      tag_73\n      tag_74\n      calldatasize\n      0x04\n      tag_44\n      jump\t// in\n    tag_74:\n      tag_75\n      jump\t// in\n    tag_73:\n      0x40\n      dup1\n      mload\n      sub(shl(0xa0, 0x01), 0x01)\n        /* \"#utility.yul\":2821:2853   */\n      swap1\n      swap10\n      and\n        /* \"#utility.yul\":2803:2854   */\n      dup10\n      mstore\n        /* \"#utility.yul\":2885:2887   */\n      0x20\n        /* \"#utility.yul\":2870:2888   */\n      dup10\n      add\n        /* \"#utility.yul\":2863:2897   */\n      swap8\n      swap1\n      swap8\n      mstore\n        /* \"#utility.yul\":2913:2931   */\n      swap6\n      dup8\n      add\n        /* \"#utility.yul\":2906:2940   */\n      swap5\n      swap1\n      swap5\n      mstore\n        /* \"#utility.yul\":2971:2973   */\n      0x60\n        /* \"#utility.yul\":2956:2974   */\n      dup7\n      add\n        /* \"#utility.yul\":2949:2983   */\n      swap3\n      swap1\n      swap3\n      mstore\n        /* \"#utility.yul\":3014:3017   */\n      0x80\n        /* \"#utility.yul\":2999:3018   */\n      dup6\n      add\n        /* \"#utility.yul\":2992:3027   */\n      mstore\n        /* \"#utility.yul\":2841:2844   */\n      0xa0\n        /* \"#utility.yul\":3043:3062   */\n      dup5\n      add\n        /* \"#utility.yul\":3036:3071   */\n      mstore\n        /* \"#utility.yul\":3102:3105   */\n      0xc0\n        /* \"#utility.yul\":3087:3106   */\n      dup4\n      add\n        /* \"#utility.yul\":3080:3115   */\n      mstore\n        /* \"#utility.yul\":3159:3173   */\n      iszero\n        /* \"#utility.yul\":3152:3174   */\n      iszero\n        /* \"#utility.yul\":3146:3149   */\n      0xe0\n        /* \"#utility.yul\":3131:3150   */\n      dup3\n      add\n        /* \"#utility.yul\":3124:3175   */\n      mstore\n        /* \"#utility.yul\":2790:2793   */\n      0x0100\n        /* \"#utility.yul\":2775:2794   */\n      add\n        /* \"contracts/roy.sol\":7028:8218  function getStakeByPositionId(uint256 _positionId) external view returns (... */\n      tag_40\n        /* \"#utility.yul\":2466:3181   */\n      jump\n        /* \"contracts/roy.sol\":2641:4511  function stake(uint256 numDays, uint256 amount) external onlyRegistered {... */\n    tag_12:\n      tag_59\n      tag_79\n      calldatasize\n      0x04\n      tag_80\n      jump\t// in\n    tag_79:\n      tag_81\n      jump\t// in\n        /* \"contracts/roy.sol\":1638:1683  mapping(uint256 => uint256) public stakingAPY */\n    tag_13:\n      tag_68\n      tag_83\n      calldatasize\n      0x04\n      tag_44\n      jump\t// in\n    tag_83:\n      mstore(0x20, 0x06)\n      0x00\n      swap1\n      dup2\n      mstore\n      0x40\n      swap1\n      keccak256\n      sload\n      dup2\n      jump\n        /* \"contracts/roy.sol\":380:400  address public owner */\n    tag_14:\n      sload(0x00)\n      tag_42\n      swap1\n      sub(shl(0xa0, 0x01), 0x01)\n      and\n      dup2\n      jump\n        /* \"contracts/roy.sol\":8579:8711  function getDirectReferralCount(address user) external view returns (uint256) {... */\n    tag_15:\n      tag_68\n      tag_90\n      calldatasize\n      0x04\n      tag_50\n      jump\t// in\n    tag_90:\n      sub(shl(0xa0, 0x01), 0x01)\n        /* \"contracts/roy.sol\":8675:8696  directReferrals[user] */\n      and\n        /* \"contracts/roy.sol\":8648:8655  uint256 */\n      0x00\n        /* \"contracts/roy.sol\":8675:8696  directReferrals[user] */\n      swap1\n      dup2\n      mstore\n        /* \"contracts/roy.sol\":8675:8690  directReferrals */\n      0x04\n        /* \"contracts/roy.sol\":8675:8696  directReferrals[user] */\n      0x20\n      mstore\n      0x40\n      swap1\n      keccak256\n        /* \"contracts/roy.sol\":8675:8703  directReferrals[user].length */\n      sload\n      swap1\n        /* \"contracts/roy.sol\":8579:8711  function getDirectReferralCount(address user) external view returns (uint256) {... */\n      jump\n        /* \"contracts/roy.sol\":12471:12569  function getTotalUsers() external view returns (uint256) {... */\n    tag_16:\n        /* \"contracts/roy.sol\":12546:12554  allUsers */\n      0x08\n        /* \"contracts/roy.sol\":12546:12561  allUsers.length */\n      sload\n        /* \"contracts/roy.sol\":12471:12569  function getTotalUsers() external view returns (uint256) {... */\n      jump(tag_68)\n        /* \"contracts/roy.sol\":8987:9706  function getReferralIncomeDetails(address user) external view returns (... */\n    tag_17:\n      tag_96\n      tag_97\n      calldatasize\n      0x04\n      tag_50\n      jump\t// in\n    tag_97:\n      tag_98\n      jump\t// in\n    tag_96:\n      mload(0x40)\n      tag_40\n      swap4\n      swap3\n      swap2\n      swap1\n      tag_100\n      jump\t// in\n        /* \"contracts/roy.sol\":1754:1779  address[] public allUsers */\n    tag_18:\n      tag_42\n      tag_102\n      calldatasize\n      0x04\n      tag_44\n      jump\t// in\n    tag_102:\n      tag_103\n      jump\t// in\n        /* \"contracts/roy.sol\":1472:1509  mapping(address => User) public users */\n    tag_19:\n      tag_105\n      tag_106\n      calldatasize\n      0x04\n      tag_50\n      jump\t// in\n    tag_106:\n      0x03\n      0x20\n      dup2\n      swap1\n      mstore\n      0x00\n      swap2\n      dup3\n      mstore\n      0x40\n      swap1\n      swap2\n      keccak256\n      dup1\n      sload\n      0x02\n      dup3\n      add\n      sload\n      swap3\n      dup3\n      add\n      sload\n      0x04\n      swap1\n      swap3\n      add\n      sload\n      sub(shl(0xa0, 0x01), 0x01)\n      swap1\n      swap2\n      and\n      swap3\n      swap2\n      swap1\n      0xff\n      and\n      dup5\n      jump\n    tag_105:\n      0x40\n      dup1\n      mload\n      sub(shl(0xa0, 0x01), 0x01)\n        /* \"#utility.yul\":4728:4760   */\n      swap1\n      swap6\n      and\n        /* \"#utility.yul\":4710:4761   */\n      dup6\n      mstore\n        /* \"#utility.yul\":4792:4794   */\n      0x20\n        /* \"#utility.yul\":4777:4795   */\n      dup6\n      add\n        /* \"#utility.yul\":4770:4804   */\n      swap4\n      swap1\n      swap4\n      mstore\n        /* \"#utility.yul\":4820:4838   */\n      swap2\n      dup4\n      add\n        /* \"#utility.yul\":4813:4847   */\n      mstore\n        /* \"#utility.yul\":4890:4904   */\n      iszero\n        /* \"#utility.yul\":4883:4905   */\n      iszero\n        /* \"#utility.yul\":4878:4880   */\n      0x60\n        /* \"#utility.yul\":4863:4881   */\n      dup3\n      add\n        /* \"#utility.yul\":4856:4906   */\n      mstore\n        /* \"#utility.yul\":4697:4700   */\n      0x80\n        /* \"#utility.yul\":4682:4701   */\n      add\n        /* \"contracts/roy.sol\":1472:1509  mapping(address => User) public users */\n      tag_40\n        /* \"#utility.yul\":4485:4912   */\n      jump\n        /* \"contracts/roy.sol\":441:464  IERC20 public usdtToken */\n    tag_20:\n      sload(0x02)\n      tag_42\n      swap1\n      sub(shl(0xa0, 0x01), 0x01)\n      and\n      dup2\n      jump\n        /* \"contracts/roy.sol\":8719:8850  function getDirectReferralIncome(address user) external view returns (uint256) {... */\n    tag_21:\n      tag_68\n      tag_115\n      calldatasize\n      0x04\n      tag_50\n      jump\t// in\n    tag_115:\n      sub(shl(0xa0, 0x01), 0x01)\n        /* \"contracts/roy.sol\":8816:8842  directReferralIncome[user] */\n      and\n        /* \"contracts/roy.sol\":8789:8796  uint256 */\n      0x00\n        /* \"contracts/roy.sol\":8816:8842  directReferralIncome[user] */\n      swap1\n      dup2\n      mstore\n        /* \"contracts/roy.sol\":8816:8836  directReferralIncome */\n      0x07\n        /* \"contracts/roy.sol\":8816:8842  directReferralIncome[user] */\n      0x20\n      mstore\n      0x40\n      swap1\n      keccak256\n      sload\n      swap1\n        /* \"contracts/roy.sol\":8719:8850  function getDirectReferralIncome(address user) external view returns (uint256) {... */\n      jump\n        /* \"contracts/roy.sol\":4528:5081  function getEstimatedReturn(uint256 amount, uint256 numDays) external view returns (uint256 interest, uint256 totalReturn) {... */\n    tag_22:\n      tag_118\n      tag_119\n      calldatasize\n      0x04\n      tag_80\n      jump\t// in\n    tag_119:\n      tag_120\n      jump\t// in\n    tag_118:\n      0x40\n      dup1\n      mload\n        /* \"#utility.yul\":5312:5337   */\n      swap3\n      dup4\n      mstore\n        /* \"#utility.yul\":5368:5370   */\n      0x20\n        /* \"#utility.yul\":5353:5371   */\n      dup4\n      add\n        /* \"#utility.yul\":5346:5380   */\n      swap2\n      swap1\n      swap2\n      mstore\n        /* \"#utility.yul\":5285:5303   */\n      add\n        /* \"contracts/roy.sol\":4528:5081  function getEstimatedReturn(uint256 amount, uint256 numDays) external view returns (uint256 interest, uint256 totalReturn) {... */\n      tag_40\n        /* \"#utility.yul\":5138:5386   */\n      jump\n        /* \"contracts/roy.sol\":9714:9833  function getTotalIncome(address user) external view returns (uint256) {... */\n    tag_23:\n      tag_68\n      tag_124\n      calldatasize\n      0x04\n      tag_50\n      jump\t// in\n    tag_124:\n      sub(shl(0xa0, 0x01), 0x01)\n        /* \"contracts/roy.sol\":9802:9813  users[user] */\n      and\n        /* \"contracts/roy.sol\":9775:9782  uint256 */\n      0x00\n        /* \"contracts/roy.sol\":9802:9813  users[user] */\n      swap1\n      dup2\n      mstore\n        /* \"contracts/roy.sol\":9802:9807  users */\n      0x03\n        /* \"contracts/roy.sol\":9802:9813  users[user] */\n      0x20\n      mstore\n      0x40\n      swap1\n      keccak256\n        /* \"contracts/roy.sol\":9802:9825  users[user].totalIncome */\n      0x02\n      add\n      sload\n      swap1\n        /* \"contracts/roy.sol\":9714:9833  function getTotalIncome(address user) external view returns (uint256) {... */\n      jump\n        /* \"contracts/roy.sol\":12350:12463  function isRegistered(address user) external view returns (bool) {... */\n    tag_24:\n      tag_127\n      tag_128\n      calldatasize\n      0x04\n      tag_50\n      jump\t// in\n    tag_128:\n      sub(shl(0xa0, 0x01), 0x01)\n        /* \"contracts/roy.sol\":12433:12444  users[user] */\n      and\n        /* \"contracts/roy.sol\":12409:12413  bool */\n      0x00\n        /* \"contracts/roy.sol\":12433:12444  users[user] */\n      swap1\n      dup2\n      mstore\n        /* \"contracts/roy.sol\":12433:12438  users */\n      0x03\n        /* \"contracts/roy.sol\":12433:12444  users[user] */\n      0x20\n      mstore\n      0x40\n      swap1\n      keccak256\n        /* \"contracts/roy.sol\":12433:12455  users[user].registered */\n      0x04\n      add\n      sload\n      0xff\n      and\n      swap1\n        /* \"contracts/roy.sol\":12350:12463  function isRegistered(address user) external view returns (bool) {... */\n      jump\n    tag_127:\n      mload(0x40)\n        /* \"#utility.yul\":5556:5570   */\n      swap1\n      iszero\n        /* \"#utility.yul\":5549:5571   */\n      iszero\n        /* \"#utility.yul\":5531:5572   */\n      dup2\n      mstore\n        /* \"#utility.yul\":5519:5521   */\n      0x20\n        /* \"#utility.yul\":5504:5522   */\n      add\n        /* \"contracts/roy.sol\":12350:12463  function isRegistered(address user) external view returns (bool) {... */\n      tag_40\n        /* \"#utility.yul\":5391:5578   */\n      jump\n        /* \"contracts/roy.sol\":1786:1832  uint8[5] public levelRewards = [5, 3, 2, 1, 1] */\n    tag_26:\n      tag_48\n      tag_137\n      calldatasize\n      0x04\n      tag_44\n      jump\t// in\n    tag_137:\n      tag_138\n      jump\t// in\n        /* \"contracts/roy.sol\":10235:12169  function getLevelIncomeDistribution(address _user) external view returns (LevelIncomeData[] memory) {... */\n    tag_27:\n      tag_140\n      tag_141\n      calldatasize\n      0x04\n      tag_50\n      jump\t// in\n    tag_141:\n      tag_142\n      jump\t// in\n    tag_140:\n      mload(0x40)\n      tag_40\n      swap2\n      swap1\n      tag_144\n      jump\t// in\n        /* \"contracts/roy.sol\":1690:1745  mapping(address => uint256) public directReferralIncome */\n    tag_28:\n      tag_68\n      tag_146\n      calldatasize\n      0x04\n      tag_50\n      jump\t// in\n    tag_146:\n      mstore(0x20, 0x07)\n      0x00\n      swap1\n      dup2\n      mstore\n      0x40\n      swap1\n      keccak256\n      sload\n      dup2\n      jump\n        /* \"contracts/roy.sol\":407:434  uint256 public stakeCounter */\n    tag_29:\n      tag_68\n      sload(0x01)\n      dup2\n      jump\n        /* \"contracts/roy.sol\":1516:1573  mapping(address => ReferralInfo[]) public directReferrals */\n    tag_39:\n      mstore(0x20, 0x04)\n      dup2\n      0x00\n      mstore\n      keccak256(0x00, 0x40)\n      dup2\n      dup2\n      sload\n      dup2\n      lt\n      tag_152\n      jumpi\n      0x00\n      dup1\n      revert\n    tag_152:\n      0x00\n      swap2\n      dup3\n      mstore\n      0x20\n      swap1\n      swap2\n      keccak256\n      0x03\n      swap1\n      swap2\n      mul\n      add\n      dup1\n      sload\n      0x01\n      dup3\n      add\n      sload\n      0x02\n      swap1\n      swap3\n      add\n      sload\n      sub(shl(0xa0, 0x01), 0x01)\n      swap1\n      swap2\n      and\n      swap4\n      pop\n      swap1\n      swap2\n      pop\n      dup4\n      jump\t// out\n        /* \"contracts/roy.sol\":9973:10227  function getUserLevel(address user) external view returns (uint8) {... */\n    tag_51:\n      sub(shl(0xa0, 0x01), 0x01)\n        /* \"contracts/roy.sol\":10066:10087  directReferrals[user] */\n      dup2\n      and\n        /* \"contracts/roy.sol\":10032:10037  uint8 */\n      0x00\n        /* \"contracts/roy.sol\":10066:10087  directReferrals[user] */\n      swap1\n      dup2\n      mstore\n        /* \"contracts/roy.sol\":10066:10081  directReferrals */\n      0x04\n        /* \"contracts/roy.sol\":10066:10087  directReferrals[user] */\n      0x20\n      mstore\n      0x40\n      dup2\n      keccak256\n        /* \"contracts/roy.sol\":10066:10094  directReferrals[user].length */\n      sload\n        /* \"contracts/roy.sol\":10118:10120  10 */\n      0x0a\n        /* \"contracts/roy.sol\":10109:10120  count >= 10 */\n      dup2\n      lt\n        /* \"contracts/roy.sol\":10105:10130  if (count >= 10) return 3 */\n      tag_155\n      jumpi\n      pop\n        /* \"contracts/roy.sol\":10129:10130  3 */\n      0x03\n      swap3\n        /* \"contracts/roy.sol\":9973:10227  function getUserLevel(address user) external view returns (uint8) {... */\n      swap2\n      pop\n      pop\n      jump\t// out\n        /* \"contracts/roy.sol\":10105:10130  if (count >= 10) return 3 */\n    tag_155:\n        /* \"contracts/roy.sol\":10154:10155  5 */\n      0x05\n        /* \"contracts/roy.sol\":10145:10150  count */\n      dup2\n        /* \"contracts/roy.sol\":10145:10155  count >= 5 */\n      lt\n        /* \"contracts/roy.sol\":10141:10165  if (count >= 5) return 2 */\n      tag_156\n      jumpi\n      pop\n        /* \"contracts/roy.sol\":10164:10165  2 */\n      0x02\n      swap3\n        /* \"contracts/roy.sol\":9973:10227  function getUserLevel(address user) external view returns (uint8) {... */\n      swap2\n      pop\n      pop\n      jump\t// out\n        /* \"contracts/roy.sol\":10141:10165  if (count >= 5) return 2 */\n    tag_156:\n        /* \"contracts/roy.sol\":10189:10190  1 */\n      0x01\n        /* \"contracts/roy.sol\":10180:10185  count */\n      dup2\n        /* \"contracts/roy.sol\":10180:10190  count >= 1 */\n      lt\n        /* \"contracts/roy.sol\":10176:10200  if (count >= 1) return 1 */\n      tag_157\n      jumpi\n      pop\n        /* \"contracts/roy.sol\":10199:10200  1 */\n      0x01\n      swap3\n        /* \"contracts/roy.sol\":9973:10227  function getUserLevel(address user) external view returns (uint8) {... */\n      swap2\n      pop\n      pop\n      jump\t// out\n        /* \"contracts/roy.sol\":10176:10200  if (count >= 1) return 1 */\n    tag_157:\n      pop\n        /* \"contracts/roy.sol\":10218:10219  0 */\n      0x00\n      swap3\n        /* \"contracts/roy.sol\":9973:10227  function getUserLevel(address user) external view returns (uint8) {... */\n      swap2\n      pop\n      pop\n      jump\t// out\n        /* \"contracts/roy.sol\":8228:8563  function getPositionIds(address _user) external view returns (uint256[] memory) {... */\n    tag_56:\n      sub(shl(0xa0, 0x01), 0x01)\n        /* \"contracts/roy.sol\":8335:8347  users[_user] */\n      dup2\n      and\n        /* \"contracts/roy.sol\":8319:8332  uint256 count */\n      0x00\n        /* \"contracts/roy.sol\":8335:8347  users[_user] */\n      swap1\n      dup2\n      mstore\n        /* \"contracts/roy.sol\":8335:8340  users */\n      0x03\n        /* \"contracts/roy.sol\":8335:8347  users[_user] */\n      0x20\n      mstore\n      0x40\n      dup2\n      keccak256\n        /* \"contracts/roy.sol\":8335:8354  users[_user].stakes */\n      0x01\n      add\n        /* \"contracts/roy.sol\":8335:8361  users[_user].stakes.length */\n      sload\n        /* \"contracts/roy.sol\":8290:8306  uint256[] memory */\n      0x60\n      swap2\n        /* \"contracts/roy.sol\":8335:8361  users[_user].stakes.length */\n      dup2\n        /* \"contracts/roy.sol\":8395:8415  new uint256[](count) */\n      0xffffffffffffffff\n      dup2\n      gt\n      iszero\n      tag_160\n      jumpi\n      tag_160\n      tag_161\n      jump\t// in\n    tag_160:\n      mload(0x40)\n      swap1\n      dup1\n      dup3\n      mstore\n      dup1\n      0x20\n      mul\n      0x20\n      add\n      dup3\n      add\n      0x40\n      mstore\n      dup1\n      iszero\n      tag_162\n      jumpi\n      dup2\n      0x20\n      add\n      0x20\n      dup3\n      mul\n      dup1\n      calldatasize\n      dup4\n      calldatacopy\n      add\n      swap1\n      pop\n    tag_162:\n      pop\n        /* \"contracts/roy.sol\":8372:8415  uint256[] memory ids = new uint256[](count) */\n      swap1\n      pop\n        /* \"contracts/roy.sol\":8433:8442  uint256 i */\n      0x00\n        /* \"contracts/roy.sol\":8428:8533  for (uint256 i = 0; i < count; i++) {... */\n    tag_163:\n        /* \"contracts/roy.sol\":8452:8457  count */\n      dup3\n        /* \"contracts/roy.sol\":8448:8449  i */\n      dup2\n        /* \"contracts/roy.sol\":8448:8457  i < count */\n      lt\n        /* \"contracts/roy.sol\":8428:8533  for (uint256 i = 0; i < count; i++) {... */\n      iszero\n      tag_164\n      jumpi\n      sub(shl(0xa0, 0x01), 0x01)\n        /* \"contracts/roy.sol\":8488:8500  users[_user] */\n      dup6\n      and\n      0x00\n      swap1\n      dup2\n      mstore\n        /* \"contracts/roy.sol\":8488:8493  users */\n      0x03\n        /* \"contracts/roy.sol\":8488:8500  users[_user] */\n      0x20\n      mstore\n      0x40\n      swap1\n      keccak256\n        /* \"contracts/roy.sol\":8488:8507  users[_user].stakes */\n      0x01\n      add\n        /* \"contracts/roy.sol\":8488:8510  users[_user].stakes[i] */\n      dup1\n      sload\n        /* \"contracts/roy.sol\":8508:8509  i */\n      dup3\n      swap1\n        /* \"contracts/roy.sol\":8488:8510  users[_user].stakes[i] */\n      dup2\n      lt\n      tag_167\n      jumpi\n      tag_167\n      tag_168\n      jump\t// in\n    tag_167:\n      swap1\n      0x00\n      mstore\n      keccak256(0x00, 0x20)\n      swap1\n      0x06\n      mul\n      add\n        /* \"contracts/roy.sol\":8488:8521  users[_user].stakes[i].positionId */\n      0x01\n      add\n      sload\n        /* \"contracts/roy.sol\":8479:8482  ids */\n      dup3\n        /* \"contracts/roy.sol\":8483:8484  i */\n      dup3\n        /* \"contracts/roy.sol\":8479:8485  ids[i] */\n      dup2\n      mload\n      dup2\n      lt\n      tag_171\n      jumpi\n      tag_171\n      tag_168\n      jump\t// in\n    tag_171:\n      0x20\n      swap1\n      dup2\n      mul\n      swap2\n      swap1\n      swap2\n      add\n      add\n        /* \"contracts/roy.sol\":8479:8521  ids[i] = users[_user].stakes[i].positionId */\n      mstore\n        /* \"contracts/roy.sol\":8459:8462  i++ */\n      0x01\n      add\n        /* \"contracts/roy.sol\":8428:8533  for (uint256 i = 0; i < count; i++) {... */\n      jump(tag_163)\n    tag_164:\n      pop\n        /* \"contracts/roy.sol\":8552:8555  ids */\n      swap4\n        /* \"contracts/roy.sol\":8228:8563  function getPositionIds(address _user) external view returns (uint256[] memory) {... */\n      swap3\n      pop\n      pop\n      pop\n      jump\t// out\n        /* \"contracts/roy.sol\":5091:6318  function claim(uint256 _positionId) external onlyRegistered {... */\n    tag_61:\n        /* \"contracts/roy.sol\":1985:1995  msg.sender */\n      caller\n        /* \"contracts/roy.sol\":1979:1996  users[msg.sender] */\n      0x00\n      swap1\n      dup2\n      mstore\n        /* \"contracts/roy.sol\":1979:1984  users */\n      0x03\n        /* \"contracts/roy.sol\":1979:1996  users[msg.sender] */\n      0x20\n      mstore\n      0x40\n      swap1\n      keccak256\n        /* \"contracts/roy.sol\":1979:2007  users[msg.sender].registered */\n      0x04\n      add\n      sload\n      0xff\n      and\n        /* \"contracts/roy.sol\":1971:2026  require(users[msg.sender].registered, \"Not registered\") */\n      tag_173\n      jumpi\n      mload(0x40)\n      shl(0xe5, 0x461bcd)\n      dup2\n      mstore\n        /* \"#utility.yul\":7302:7304   */\n      0x20\n        /* \"contracts/roy.sol\":1971:2026  require(users[msg.sender].registered, \"Not registered\") */\n      0x04\n      dup3\n      add\n        /* \"#utility.yul\":7284:7305   */\n      mstore\n        /* \"#utility.yul\":7341:7343   */\n      0x0e\n        /* \"#utility.yul\":7321:7339   */\n      0x24\n      dup3\n      add\n        /* \"#utility.yul\":7314:7344   */\n      mstore\n      shl(0x92, 0x139bdd081c9959da5cdd195c9959)\n        /* \"#utility.yul\":7360:7378   */\n      0x44\n      dup3\n      add\n        /* \"#utility.yul\":7353:7397   */\n      mstore\n        /* \"#utility.yul\":7414:7432   */\n      0x64\n      add\n        /* \"contracts/roy.sol\":1971:2026  require(users[msg.sender].registered, \"Not registered\") */\n    tag_174:\n      mload(0x40)\n      dup1\n      swap2\n      sub\n      swap1\n      revert\n    tag_173:\n        /* \"contracts/roy.sol\":5162:5178  address userAddr */\n      0x00\n        /* \"contracts/roy.sol\":5181:5210  positionIdToUser[_positionId] */\n      dup2\n      dup2\n      mstore\n        /* \"contracts/roy.sol\":5181:5197  positionIdToUser */\n      0x05\n        /* \"contracts/roy.sol\":5181:5210  positionIdToUser[_positionId] */\n      0x20\n      mstore\n      0x40\n      swap1\n      keccak256\n      sload\n      sub(shl(0xa0, 0x01), 0x01)\n      and\n        /* \"contracts/roy.sol\":5241:5251  msg.sender */\n      caller\n        /* \"contracts/roy.sol\":5229:5251  userAddr == msg.sender */\n      dup2\n      eq\n        /* \"contracts/roy.sol\":5221:5270  require(userAddr == msg.sender, \"Not your stake\") */\n      tag_177\n      jumpi\n      mload(0x40)\n      shl(0xe5, 0x461bcd)\n      dup2\n      mstore\n        /* \"#utility.yul\":7645:7647   */\n      0x20\n        /* \"contracts/roy.sol\":5221:5270  require(userAddr == msg.sender, \"Not your stake\") */\n      0x04\n      dup3\n      add\n        /* \"#utility.yul\":7627:7648   */\n      mstore\n        /* \"#utility.yul\":7684:7686   */\n      0x0e\n        /* \"#utility.yul\":7664:7682   */\n      0x24\n      dup3\n      add\n        /* \"#utility.yul\":7657:7687   */\n      mstore\n      shl(0x90, 0x4e6f7420796f7572207374616b65)\n        /* \"#utility.yul\":7703:7721   */\n      0x44\n      dup3\n      add\n        /* \"#utility.yul\":7696:7740   */\n      mstore\n        /* \"#utility.yul\":7757:7775   */\n      0x64\n      add\n        /* \"contracts/roy.sol\":5221:5270  require(userAddr == msg.sender, \"Not your stake\") */\n      tag_174\n        /* \"#utility.yul\":7443:7781   */\n      jump\n        /* \"contracts/roy.sol\":5221:5270  require(userAddr == msg.sender, \"Not your stake\") */\n    tag_177:\n        /* \"contracts/roy.sol\":5314:5324  msg.sender */\n      caller\n        /* \"contracts/roy.sol\":5283:5305  Stake[] storage stakes */\n      0x00\n        /* \"contracts/roy.sol\":5308:5325  users[msg.sender] */\n      swap1\n      dup2\n      mstore\n        /* \"contracts/roy.sol\":5308:5313  users */\n      0x03\n        /* \"contracts/roy.sol\":5308:5325  users[msg.sender] */\n      0x20\n      mstore\n      0x40\n      dup2\n      keccak256\n        /* \"contracts/roy.sol\":5308:5332  users[msg.sender].stakes */\n      0x01\n      add\n      swap1\n        /* \"contracts/roy.sol\":5345:6252  for (uint256 i = 0; i < stakes.length; i++) {... */\n    tag_180:\n        /* \"contracts/roy.sol\":5369:5382  stakes.length */\n      dup2\n      sload\n        /* \"contracts/roy.sol\":5365:5382  i < stakes.length */\n      dup2\n      lt\n        /* \"contracts/roy.sol\":5345:6252  for (uint256 i = 0; i < stakes.length; i++) {... */\n      iszero\n      tag_181\n      jumpi\n        /* \"contracts/roy.sol\":5404:5419  Stake storage s */\n      0x00\n        /* \"contracts/roy.sol\":5422:5428  stakes */\n      dup3\n        /* \"contracts/roy.sol\":5429:5430  i */\n      dup3\n        /* \"contracts/roy.sol\":5422:5431  stakes[i] */\n      dup2\n      sload\n      dup2\n      lt\n      tag_184\n      jumpi\n      tag_184\n      tag_168\n      jump\t// in\n    tag_184:\n      swap1\n      0x00\n      mstore\n      keccak256(0x00, 0x20)\n      swap1\n      0x06\n      mul\n      add\n        /* \"contracts/roy.sol\":5404:5431  Stake storage s = stakes[i] */\n      swap1\n      pop\n        /* \"contracts/roy.sol\":5466:5477  _positionId */\n      dup5\n        /* \"contracts/roy.sol\":5450:5451  s */\n      dup2\n        /* \"contracts/roy.sol\":5450:5462  s.positionId */\n      0x01\n      add\n      sload\n        /* \"contracts/roy.sol\":5450:5477  s.positionId == _positionId */\n      sub\n        /* \"contracts/roy.sol\":5446:6241  if (s.positionId == _positionId) {... */\n      tag_186\n      jumpi\n        /* \"contracts/roy.sol\":5507:5516  s.claimed */\n      0x05\n      dup2\n      add\n      sload\n      0xff\n      and\n        /* \"contracts/roy.sol\":5506:5516  !s.claimed */\n      iszero\n        /* \"contracts/roy.sol\":5498:5536  require(!s.claimed, \"Already claimed\") */\n      tag_187\n      jumpi\n      mload(0x40)\n      shl(0xe5, 0x461bcd)\n      dup2\n      mstore\n        /* \"#utility.yul\":7988:7990   */\n      0x20\n        /* \"contracts/roy.sol\":5498:5536  require(!s.claimed, \"Already claimed\") */\n      0x04\n      dup3\n      add\n        /* \"#utility.yul\":7970:7991   */\n      mstore\n        /* \"#utility.yul\":8027:8029   */\n      0x0f\n        /* \"#utility.yul\":8007:8025   */\n      0x24\n      dup3\n      add\n        /* \"#utility.yul\":8000:8030   */\n      mstore\n      shl(0x8a, 0x105b1c9958591e4818db185a5b5959)\n        /* \"#utility.yul\":8046:8064   */\n      0x44\n      dup3\n      add\n        /* \"#utility.yul\":8039:8084   */\n      mstore\n        /* \"#utility.yul\":8101:8119   */\n      0x64\n      add\n        /* \"contracts/roy.sol\":5498:5536  require(!s.claimed, \"Already claimed\") */\n      tag_174\n        /* \"#utility.yul\":7786:8125   */\n      jump\n        /* \"contracts/roy.sol\":5498:5536  require(!s.claimed, \"Already claimed\") */\n    tag_187:\n        /* \"contracts/roy.sol\":5557:5576  uint256 elapsedDays */\n      0x00\n        /* \"contracts/roy.sol\":5613:5619  1 days */\n      0x015180\n        /* \"contracts/roy.sol\":5598:5599  s */\n      dup3\n        /* \"contracts/roy.sol\":5598:5609  s.timestamp */\n      0x03\n      add\n      sload\n        /* \"contracts/roy.sol\":5580:5595  block.timestamp */\n      timestamp\n        /* \"contracts/roy.sol\":5580:5609  block.timestamp - s.timestamp */\n      tag_190\n      swap2\n      swap1\n      tag_191\n      jump\t// in\n    tag_190:\n        /* \"contracts/roy.sol\":5579:5619  (block.timestamp - s.timestamp) / 1 days */\n      tag_192\n      swap2\n      swap1\n      tag_193\n      jump\t// in\n    tag_192:\n        /* \"contracts/roy.sol\":5557:5619  uint256 elapsedDays = (block.timestamp - s.timestamp) / 1 days */\n      swap1\n      pop\n        /* \"contracts/roy.sol\":5638:5652  uint256 reward */\n      0x00\n        /* \"contracts/roy.sol\":5696:5697  s */\n      dup3\n        /* \"contracts/roy.sol\":5696:5705  s.numDays */\n      0x04\n      add\n      sload\n        /* \"contracts/roy.sol\":5681:5692  elapsedDays */\n      dup3\n        /* \"contracts/roy.sol\":5681:5705  elapsedDays >= s.numDays */\n      lt\n        /* \"contracts/roy.sol\":5677:5985  if (elapsedDays >= s.numDays) {... */\n      tag_194\n      jumpi\n        /* \"contracts/roy.sol\":5762:5771  s.numDays */\n      0x04\n      dup4\n      add\n      sload\n        /* \"contracts/roy.sol\":5751:5772  stakingAPY[s.numDays] */\n      0x00\n      swap1\n      dup2\n      mstore\n        /* \"contracts/roy.sol\":5751:5761  stakingAPY */\n      0x06\n        /* \"contracts/roy.sol\":5751:5772  stakingAPY[s.numDays] */\n      0x20\n      mstore\n      0x40\n      swap1\n      keccak256\n      sload\n        /* \"contracts/roy.sol\":5740:5748  s.amount */\n      0x02\n      dup5\n      add\n      sload\n        /* \"contracts/roy.sol\":5776:5779  100 */\n      0x64\n      swap2\n        /* \"contracts/roy.sol\":5740:5772  s.amount * stakingAPY[s.numDays] */\n      tag_195\n      swap2\n      tag_196\n      jump\t// in\n    tag_195:\n        /* \"contracts/roy.sol\":5739:5779  (s.amount * stakingAPY[s.numDays]) / 100 */\n      tag_197\n      swap2\n      swap1\n      tag_193\n      jump\t// in\n    tag_197:\n        /* \"contracts/roy.sol\":5730:5779  reward = (s.amount * stakingAPY[s.numDays]) / 100 */\n      swap1\n      pop\n        /* \"contracts/roy.sol\":5677:5985  if (elapsedDays >= s.numDays) {... */\n      jump(tag_200)\n    tag_194:\n        /* \"contracts/roy.sol\":5823:5825  20 */\n      0x14\n        /* \"contracts/roy.sol\":5809:5820  elapsedDays */\n      dup3\n        /* \"contracts/roy.sol\":5809:5825  elapsedDays < 20 */\n      lt\n        /* \"contracts/roy.sol\":5805:5985  if (elapsedDays < 20) {... */\n      iszero\n      tag_199\n      jumpi\n      pop\n        /* \"contracts/roy.sol\":5859:5860  0 */\n      0x00\n        /* \"contracts/roy.sol\":5805:5985  if (elapsedDays < 20) {... */\n      jump(tag_200)\n    tag_199:\n        /* \"contracts/roy.sol\":5909:5965  revert(\"Cannot claim between 20 days and full duration\") */\n      mload(0x40)\n      shl(0xe5, 0x461bcd)\n      dup2\n      mstore\n        /* \"#utility.yul\":8992:8994   */\n      0x20\n        /* \"contracts/roy.sol\":5909:5965  revert(\"Cannot claim between 20 days and full duration\") */\n      0x04\n      dup3\n      add\n        /* \"#utility.yul\":8974:8995   */\n      mstore\n        /* \"#utility.yul\":9031:9033   */\n      0x2e\n        /* \"#utility.yul\":9011:9029   */\n      0x24\n      dup3\n      add\n        /* \"#utility.yul\":9004:9034   */\n      mstore\n        /* \"#utility.yul\":9070:9104   */\n      0x43616e6e6f7420636c61696d206265747765656e203230206461797320616e64\n        /* \"#utility.yul\":9050:9068   */\n      0x44\n      dup3\n      add\n        /* \"#utility.yul\":9043:9105   */\n      mstore\n      shl(0x91, 0x10333ab63610323ab930ba34b7b7)\n        /* \"#utility.yul\":9121:9139   */\n      0x64\n      dup3\n      add\n        /* \"#utility.yul\":9114:9158   */\n      mstore\n        /* \"#utility.yul\":9175:9194   */\n      0x84\n      add\n        /* \"contracts/roy.sol\":5909:5965  revert(\"Cannot claim between 20 days and full duration\") */\n      tag_174\n        /* \"#utility.yul\":8790:9200   */\n      jump\n        /* \"contracts/roy.sol\":5805:5985  if (elapsedDays < 20) {... */\n    tag_200:\n        /* \"contracts/roy.sol\":6005:6014  s.claimed */\n      0x05\n      dup4\n      add\n        /* \"contracts/roy.sol\":6005:6021  s.claimed = true */\n      dup1\n      sload\n      not(0xff)\n      and\n        /* \"contracts/roy.sol\":6017:6021  true */\n      0x01\n        /* \"contracts/roy.sol\":6005:6021  s.claimed = true */\n      or\n      swap1\n      sstore\n        /* \"contracts/roy.sol\":6048:6057  usdtToken */\n      0x02\n      dup1\n      sload\n        /* \"contracts/roy.sol\":6079:6087  s.amount */\n      swap1\n      dup5\n      add\n      sload\n      sub(shl(0xa0, 0x01), 0x01)\n        /* \"contracts/roy.sol\":6048:6057  usdtToken */\n      swap1\n      swap2\n      and\n      swap1\n        /* \"contracts/roy.sol\":6048:6066  usdtToken.transfer */\n      0xa9059cbb\n      swap1\n        /* \"contracts/roy.sol\":6067:6077  msg.sender */\n      caller\n      swap1\n        /* \"contracts/roy.sol\":6079:6096  s.amount + reward */\n      tag_203\n      swap1\n        /* \"contracts/roy.sol\":6090:6096  reward */\n      dup6\n      swap1\n        /* \"contracts/roy.sol\":6079:6096  s.amount + reward */\n      tag_204\n      jump\t// in\n    tag_203:\n        /* \"contracts/roy.sol\":6048:6097  usdtToken.transfer(msg.sender, s.amount + reward) */\n      mload(0x40)\n      not(sub(shl(0xe0, 0x01), 0x01))\n      0xe0\n      dup6\n      swap1\n      shl\n      and\n      dup2\n      mstore\n      sub(shl(0xa0, 0x01), 0x01)\n        /* \"#utility.yul\":9527:9559   */\n      swap1\n      swap3\n      and\n        /* \"contracts/roy.sol\":6048:6097  usdtToken.transfer(msg.sender, s.amount + reward) */\n      0x04\n      dup4\n      add\n        /* \"#utility.yul\":9509:9560   */\n      mstore\n        /* \"#utility.yul\":9576:9594   */\n      0x24\n      dup3\n      add\n        /* \"#utility.yul\":9569:9603   */\n      mstore\n        /* \"#utility.yul\":9482:9500   */\n      0x44\n      add\n        /* \"contracts/roy.sol\":6048:6097  usdtToken.transfer(msg.sender, s.amount + reward) */\n      0x20\n      mload(0x40)\n      dup1\n      dup4\n      sub\n      dup2\n      0x00\n      dup8\n      gas\n      call\n      iszero\n      dup1\n      iszero\n      tag_208\n      jumpi\n      returndatasize\n      0x00\n      dup1\n      returndatacopy\n      revert(0x00, returndatasize)\n    tag_208:\n      pop\n      pop\n      pop\n      pop\n      mload(0x40)\n      returndatasize\n      not(0x1f)\n      0x1f\n      dup3\n      add\n      and\n      dup3\n      add\n      dup1\n      0x40\n      mstore\n      pop\n      dup2\n      add\n      swap1\n      tag_209\n      swap2\n      swap1\n      tag_210\n      jump\t// in\n    tag_209:\n        /* \"contracts/roy.sol\":6040:6123  require(usdtToken.transfer(msg.sender, s.amount + reward), \"Token transfer failed\") */\n      tag_211\n      jumpi\n      mload(0x40)\n      shl(0xe5, 0x461bcd)\n      dup2\n      mstore\n        /* \"#utility.yul\":10098:10100   */\n      0x20\n        /* \"contracts/roy.sol\":6040:6123  require(usdtToken.transfer(msg.sender, s.amount + reward), \"Token transfer failed\") */\n      0x04\n      dup3\n      add\n        /* \"#utility.yul\":10080:10101   */\n      mstore\n        /* \"#utility.yul\":10137:10139   */\n      0x15\n        /* \"#utility.yul\":10117:10135   */\n      0x24\n      dup3\n      add\n        /* \"#utility.yul\":10110:10140   */\n      mstore\n      shl(0x5a, 0x151bdad95b881d1c985b9cd9995c8819985a5b1959)\n        /* \"#utility.yul\":10156:10174   */\n      0x44\n      dup3\n      add\n        /* \"#utility.yul\":10149:10200   */\n      mstore\n        /* \"#utility.yul\":10217:10235   */\n      0x64\n      add\n        /* \"contracts/roy.sol\":6040:6123  require(usdtToken.transfer(msg.sender, s.amount + reward), \"Token transfer failed\") */\n      tag_174\n        /* \"#utility.yul\":9896:10241   */\n      jump\n        /* \"contracts/roy.sol\":6040:6123  require(usdtToken.transfer(msg.sender, s.amount + reward), \"Token transfer failed\") */\n    tag_211:\n        /* \"contracts/roy.sol\":6169:6181  s.positionId */\n      0x01\n      dup4\n      add\n      sload\n        /* \"contracts/roy.sol\":6183:6191  s.amount */\n      0x02\n      dup5\n      add\n      sload\n        /* \"contracts/roy.sol\":6149:6200  Claimed(msg.sender, s.positionId, s.amount, reward) */\n      0x40\n      dup1\n      mload\n        /* \"#utility.yul\":10448:10473   */\n      swap3\n      dup4\n      mstore\n        /* \"#utility.yul\":10504:10506   */\n      0x20\n        /* \"#utility.yul\":10489:10507   */\n      dup4\n      add\n        /* \"#utility.yul\":10482:10516   */\n      swap2\n      swap1\n      swap2\n      mstore\n        /* \"#utility.yul\":10532:10550   */\n      dup2\n      add\n        /* \"#utility.yul\":10525:10559   */\n      dup3\n      swap1\n      mstore\n        /* \"contracts/roy.sol\":6157:6167  msg.sender */\n      caller\n      swap1\n        /* \"contracts/roy.sol\":6149:6200  Claimed(msg.sender, s.positionId, s.amount, reward) */\n      0x9cdcf2f7714cca3508c7f0110b04a90a80a3a8dd0e35de99689db74d28c5383e\n      swap1\n        /* \"#utility.yul\":10436:10438   */\n      0x60\n        /* \"#utility.yul\":10421:10439   */\n      add\n        /* \"contracts/roy.sol\":6149:6200  Claimed(msg.sender, s.positionId, s.amount, reward) */\n      mload(0x40)\n      dup1\n      swap2\n      sub\n      swap1\n      log2\n        /* \"contracts/roy.sol\":6219:6226  return; */\n      pop\n      pop\n      pop\n      pop\n      pop\n      pop\n        /* \"contracts/roy.sol\":5091:6318  function claim(uint256 _positionId) external onlyRegistered {... */\n      pop\n      jump\t// out\n        /* \"contracts/roy.sol\":5446:6241  if (s.positionId == _positionId) {... */\n    tag_186:\n      pop\n        /* \"contracts/roy.sol\":5384:5387  i++ */\n      0x01\n      add\n        /* \"contracts/roy.sol\":5345:6252  for (uint256 i = 0; i < stakes.length; i++) {... */\n      jump(tag_180)\n    tag_181:\n      pop\n        /* \"contracts/roy.sol\":6264:6310  revert(\"Stake not found for given positionId\") */\n      mload(0x40)\n      shl(0xe5, 0x461bcd)\n      dup2\n      mstore\n        /* \"#utility.yul\":10772:10774   */\n      0x20\n        /* \"contracts/roy.sol\":6264:6310  revert(\"Stake not found for given positionId\") */\n      0x04\n      dup3\n      add\n        /* \"#utility.yul\":10754:10775   */\n      mstore\n        /* \"#utility.yul\":10811:10813   */\n      0x24\n        /* \"#utility.yul\":10791:10809   */\n      dup1\n      dup3\n      add\n        /* \"#utility.yul\":10784:10814   */\n      mstore\n        /* \"#utility.yul\":10850:10884   */\n      0x5374616b65206e6f7420666f756e6420666f7220676976656e20706f73697469\n        /* \"#utility.yul\":10830:10848   */\n      0x44\n      dup3\n      add\n        /* \"#utility.yul\":10823:10885   */\n      mstore\n      shl(0xe2, 0x1bdb9259)\n        /* \"#utility.yul\":10901:10919   */\n      0x64\n      dup3\n      add\n        /* \"#utility.yul\":10894:10928   */\n      mstore\n        /* \"#utility.yul\":10945:10964   */\n      0x84\n      add\n        /* \"contracts/roy.sol\":6264:6310  revert(\"Stake not found for given positionId\") */\n      tag_174\n        /* \"#utility.yul\":10570:10970   */\n      jump\n        /* \"contracts/roy.sol\":12177:12342  function withdrawUSDT(uint256 amount) external {... */\n    tag_64:\n        /* \"contracts/roy.sol\":12257:12262  owner */\n      and(sub(shl(0xa0, 0x01), 0x01), sload(0x00))\n        /* \"contracts/roy.sol\":12243:12253  msg.sender */\n      caller\n        /* \"contracts/roy.sol\":12243:12262  msg.sender == owner */\n      eq\n        /* \"contracts/roy.sol\":12235:12290  require(msg.sender == owner, \"Only owner can withdraw\") */\n      tag_219\n      jumpi\n      mload(0x40)\n      shl(0xe5, 0x461bcd)\n      dup2\n      mstore\n        /* \"#utility.yul\":11177:11179   */\n      0x20\n        /* \"contracts/roy.sol\":12235:12290  require(msg.sender == owner, \"Only owner can withdraw\") */\n      0x04\n      dup3\n      add\n        /* \"#utility.yul\":11159:11180   */\n      mstore\n        /* \"#utility.yul\":11216:11218   */\n      0x17\n        /* \"#utility.yul\":11196:11214   */\n      0x24\n      dup3\n      add\n        /* \"#utility.yul\":11189:11219   */\n      mstore\n        /* \"#utility.yul\":11255:11280   */\n      0x4f6e6c79206f776e65722063616e207769746864726177000000000000000000\n        /* \"#utility.yul\":11235:11253   */\n      0x44\n      dup3\n      add\n        /* \"#utility.yul\":11228:11281   */\n      mstore\n        /* \"#utility.yul\":11298:11316   */\n      0x64\n      add\n        /* \"contracts/roy.sol\":12235:12290  require(msg.sender == owner, \"Only owner can withdraw\") */\n      tag_174\n        /* \"#utility.yul\":10975:11322   */\n      jump\n        /* \"contracts/roy.sol\":12235:12290  require(msg.sender == owner, \"Only owner can withdraw\") */\n    tag_219:\n        /* \"contracts/roy.sol\":12301:12310  usdtToken */\n      sload(0x02)\n      0x00\n        /* \"contracts/roy.sol\":12320:12325  owner */\n      sload\n        /* \"contracts/roy.sol\":12301:12334  usdtToken.transfer(owner, amount) */\n      mload(0x40)\n      shl(0xe0, 0xa9059cbb)\n      dup2\n      mstore\n      sub(shl(0xa0, 0x01), 0x01)\n        /* \"contracts/roy.sol\":12320:12325  owner */\n      swap2\n      dup3\n      and\n        /* \"contracts/roy.sol\":12301:12334  usdtToken.transfer(owner, amount) */\n      0x04\n      dup3\n      add\n        /* \"#utility.yul\":9509:9560   */\n      mstore\n        /* \"#utility.yul\":9576:9594   */\n      0x24\n      dup2\n      add\n        /* \"#utility.yul\":9569:9603   */\n      dup5\n      swap1\n      mstore\n        /* \"contracts/roy.sol\":12301:12310  usdtToken */\n      swap2\n      and\n      swap1\n        /* \"contracts/roy.sol\":12301:12319  usdtToken.transfer */\n      0xa9059cbb\n      swap1\n        /* \"#utility.yul\":9482:9500   */\n      0x44\n      add\n        /* \"contracts/roy.sol\":12301:12334  usdtToken.transfer(owner, amount) */\n      0x20\n      mload(0x40)\n      dup1\n      dup4\n      sub\n      dup2\n      0x00\n      dup8\n      gas\n      call\n      iszero\n      dup1\n      iszero\n      tag_224\n      jumpi\n      returndatasize\n      0x00\n      dup1\n      returndatacopy\n      revert(0x00, returndatasize)\n    tag_224:\n      pop\n      pop\n      pop\n      pop\n      mload(0x40)\n      returndatasize\n      not(0x1f)\n      0x1f\n      dup3\n      add\n      and\n      dup3\n      add\n      dup1\n      0x40\n      mstore\n      pop\n      dup2\n      add\n      swap1\n      tag_225\n      swap2\n      swap1\n      tag_210\n      jump\t// in\n    tag_225:\n      pop\n        /* \"contracts/roy.sol\":12177:12342  function withdrawUSDT(uint256 amount) external {... */\n      pop\n      jump\t// out\n        /* \"contracts/roy.sol\":2054:2633  function register(address referrer) external {... */\n    tag_67:\n        /* \"contracts/roy.sol\":2125:2135  msg.sender */\n      caller\n        /* \"contracts/roy.sol\":2119:2136  users[msg.sender] */\n      0x00\n      swap1\n      dup2\n      mstore\n        /* \"contracts/roy.sol\":2119:2124  users */\n      0x03\n        /* \"contracts/roy.sol\":2119:2136  users[msg.sender] */\n      0x20\n      mstore\n      0x40\n      swap1\n      keccak256\n        /* \"contracts/roy.sol\":2119:2147  users[msg.sender].registered */\n      0x04\n      add\n      sload\n      0xff\n      and\n        /* \"contracts/roy.sol\":2118:2147  !users[msg.sender].registered */\n      iszero\n        /* \"contracts/roy.sol\":2110:2170  require(!users[msg.sender].registered, \"Already registered\") */\n      tag_227\n      jumpi\n      mload(0x40)\n      shl(0xe5, 0x461bcd)\n      dup2\n      mstore\n        /* \"#utility.yul\":11529:11531   */\n      0x20\n        /* \"contracts/roy.sol\":2110:2170  require(!users[msg.sender].registered, \"Already registered\") */\n      0x04\n      dup3\n      add\n        /* \"#utility.yul\":11511:11532   */\n      mstore\n        /* \"#utility.yul\":11568:11570   */\n      0x12\n        /* \"#utility.yul\":11548:11566   */\n      0x24\n      dup3\n      add\n        /* \"#utility.yul\":11541:11571   */\n      mstore\n      shl(0x72, 0x105b1c9958591e481c9959da5cdd195c9959)\n        /* \"#utility.yul\":11587:11605   */\n      0x44\n      dup3\n      add\n        /* \"#utility.yul\":11580:11628   */\n      mstore\n        /* \"#utility.yul\":11645:11663   */\n      0x64\n      add\n        /* \"contracts/roy.sol\":2110:2170  require(!users[msg.sender].registered, \"Already registered\") */\n      tag_174\n        /* \"#utility.yul\":11327:11669   */\n      jump\n        /* \"contracts/roy.sol\":2110:2170  require(!users[msg.sender].registered, \"Already registered\") */\n    tag_227:\n        /* \"contracts/roy.sol\":2201:2211  msg.sender */\n      caller\n      sub(shl(0xa0, 0x01), 0x01)\n        /* \"contracts/roy.sol\":2189:2211  referrer != msg.sender */\n      dup3\n      and\n      sub\n        /* \"contracts/roy.sol\":2181:2237  require(referrer != msg.sender, \"Cannot refer yourself\") */\n      tag_230\n      jumpi\n      mload(0x40)\n      shl(0xe5, 0x461bcd)\n      dup2\n      mstore\n        /* \"#utility.yul\":11876:11878   */\n      0x20\n        /* \"contracts/roy.sol\":2181:2237  require(referrer != msg.sender, \"Cannot refer yourself\") */\n      0x04\n      dup3\n      add\n        /* \"#utility.yul\":11858:11879   */\n      mstore\n        /* \"#utility.yul\":11915:11917   */\n      0x15\n        /* \"#utility.yul\":11895:11913   */\n      0x24\n      dup3\n      add\n        /* \"#utility.yul\":11888:11918   */\n      mstore\n      shl(0x59, 0x21b0b73737ba103932b332b9103cb7bab939b2b633)\n        /* \"#utility.yul\":11934:11952   */\n      0x44\n      dup3\n      add\n        /* \"#utility.yul\":11927:11978   */\n      mstore\n        /* \"#utility.yul\":11995:12013   */\n      0x64\n      add\n        /* \"contracts/roy.sol\":2181:2237  require(referrer != msg.sender, \"Cannot refer yourself\") */\n      tag_174\n        /* \"#utility.yul\":11674:12019   */\n      jump\n        /* \"contracts/roy.sol\":2181:2237  require(referrer != msg.sender, \"Cannot refer yourself\") */\n    tag_230:\n      sub(shl(0xa0, 0x01), 0x01)\n        /* \"contracts/roy.sol\":2256:2271  users[referrer] */\n      dup2\n      and\n      0x00\n      swap1\n      dup2\n      mstore\n        /* \"contracts/roy.sol\":2256:2261  users */\n      0x03\n        /* \"contracts/roy.sol\":2256:2271  users[referrer] */\n      0x20\n      mstore\n      0x40\n      swap1\n      keccak256\n        /* \"contracts/roy.sol\":2256:2282  users[referrer].registered */\n      0x04\n      add\n      sload\n      0xff\n      and\n        /* \"contracts/roy.sol\":2248:2310  require(users[referrer].registered, \"Referrer not registered\") */\n      tag_233\n      jumpi\n      mload(0x40)\n      shl(0xe5, 0x461bcd)\n      dup2\n      mstore\n        /* \"#utility.yul\":12226:12228   */\n      0x20\n        /* \"contracts/roy.sol\":2248:2310  require(users[referrer].registered, \"Referrer not registered\") */\n      0x04\n      dup3\n      add\n        /* \"#utility.yul\":12208:12229   */\n      mstore\n        /* \"#utility.yul\":12265:12267   */\n      0x17\n        /* \"#utility.yul\":12245:12263   */\n      0x24\n      dup3\n      add\n        /* \"#utility.yul\":12238:12268   */\n      mstore\n        /* \"#utility.yul\":12304:12329   */\n      0x5265666572726572206e6f742072656769737465726564000000000000000000\n        /* \"#utility.yul\":12284:12302   */\n      0x44\n      dup3\n      add\n        /* \"#utility.yul\":12277:12330   */\n      mstore\n        /* \"#utility.yul\":12347:12365   */\n      0x64\n      add\n        /* \"contracts/roy.sol\":2248:2310  require(users[referrer].registered, \"Referrer not registered\") */\n      tag_174\n        /* \"#utility.yul\":12024:12371   */\n      jump\n        /* \"contracts/roy.sol\":2248:2310  require(users[referrer].registered, \"Referrer not registered\") */\n    tag_233:\n        /* \"contracts/roy.sol\":2329:2339  msg.sender */\n      caller\n        /* \"contracts/roy.sol\":2323:2340  users[msg.sender] */\n      0x00\n      dup2\n      dup2\n      mstore\n        /* \"contracts/roy.sol\":2323:2328  users */\n      0x03\n        /* \"contracts/roy.sol\":2323:2340  users[msg.sender] */\n      0x20\n      dup2\n      dup2\n      mstore\n      0x40\n      dup1\n      dup5\n      keccak256\n        /* \"contracts/roy.sol\":2323:2360  users[msg.sender].referrer = referrer */\n      dup1\n      sload\n      sub(shl(0xa0, 0x01), 0x01)\n      swap8\n      dup9\n      and\n      not(sub(shl(0xa0, 0x01), 0x01))\n      swap2\n      dup3\n      and\n      dup2\n      or\n      dup4\n      sstore\n        /* \"contracts/roy.sol\":2371:2399  users[msg.sender].registered */\n      0x04\n      swap3\n      dup4\n      add\n        /* \"contracts/roy.sol\":2371:2406  users[msg.sender].registered = true */\n      dup1\n      sload\n      not(0xff)\n      and\n        /* \"contracts/roy.sol\":2323:2360  users[msg.sender].referrer = referrer */\n      0x01\n        /* \"contracts/roy.sol\":2371:2406  users[msg.sender].registered = true */\n      swap1\n      dup2\n      or\n      swap1\n      swap2\n      sstore\n        /* \"contracts/roy.sol\":2417:2425  allUsers */\n      0x08\n        /* \"contracts/roy.sol\":2417:2442  allUsers.push(msg.sender) */\n      dup1\n      sload\n      dup1\n      dup4\n      add\n      swap1\n      swap2\n      sstore\n      0xf3f7a9fe364faab93b216da50a3214154f22a0a2b415b23a84c8169e8b636ee3\n      add\n      dup1\n      sload\n      dup5\n      and\n      dup11\n      or\n      swap1\n      sstore\n        /* \"contracts/roy.sol\":2455:2480  directReferrals[referrer] */\n      swap1\n      dup8\n      mstore\n      swap2\n      dup5\n      mstore\n      dup3\n      dup7\n      keccak256\n        /* \"contracts/roy.sol\":2486:2624  ReferralInfo({... */\n      dup4\n      mload\n      0x60\n      dup2\n      add\n      dup6\n      mstore\n      swap8\n      dup9\n      mstore\n      dup8\n      dup6\n      add\n      dup8\n      dup2\n      mstore\n        /* \"contracts/roy.sol\":2597:2612  block.timestamp */\n      timestamp\n        /* \"contracts/roy.sol\":2486:2624  ReferralInfo({... */\n      swap5\n      dup10\n      add\n      swap5\n      dup6\n      mstore\n        /* \"contracts/roy.sol\":2455:2625  directReferrals[referrer].push(ReferralInfo({... */\n      dup2\n      sload\n      dup1\n      dup6\n      add\n      dup4\n      sstore\n      swap2\n      dup9\n      mstore\n      swap5\n      swap1\n      swap7\n      keccak256\n      swap7\n      mload\n      swap6\n      swap1\n      swap5\n      mul\n      swap1\n      swap6\n      add\n      dup1\n      sload\n      swap5\n      swap1\n      swap7\n      and\n      swap4\n      swap1\n      swap3\n      and\n      swap3\n      swap1\n      swap3\n      or\n      dup5\n      sstore\n      swap1\n      mload\n      swap2\n      dup4\n      add\n      swap2\n      swap1\n      swap2\n      sstore\n      mload\n      0x02\n      swap1\n      swap2\n      add\n      sstore\n        /* \"contracts/roy.sol\":2054:2633  function register(address referrer) external {... */\n      jump\t// out\n        /* \"contracts/roy.sol\":7028:8218  function getStakeByPositionId(uint256 _positionId) external view returns (... */\n    tag_75:\n        /* \"contracts/roy.sol\":7108:7120  address user */\n      0x00\n        /* \"contracts/roy.sol\":7304:7333  positionIdToUser[_positionId] */\n      dup2\n      dup2\n      mstore\n        /* \"contracts/roy.sol\":7304:7320  positionIdToUser */\n      0x05\n        /* \"contracts/roy.sol\":7304:7333  positionIdToUser[_positionId] */\n      0x20\n      mstore\n      0x40\n      dup2\n      keccak256\n      sload\n        /* \"contracts/roy.sol\":7108:7120  address user */\n      dup2\n      swap1\n      dup2\n      swap1\n      dup2\n      swap1\n      dup2\n      swap1\n      dup2\n      swap1\n      dup2\n      swap1\n      dup2\n      swap1\n      sub(shl(0xa0, 0x01), 0x01)\n        /* \"contracts/roy.sol\":7304:7333  positionIdToUser[_positionId] */\n      and\n      dup1\n        /* \"contracts/roy.sol\":7340:7393  require(userAddr != address(0), \"Invalid positionId\") */\n      tag_240\n      jumpi\n      mload(0x40)\n      shl(0xe5, 0x461bcd)\n      dup2\n      mstore\n        /* \"#utility.yul\":12578:12580   */\n      0x20\n        /* \"contracts/roy.sol\":7340:7393  require(userAddr != address(0), \"Invalid positionId\") */\n      0x04\n      dup3\n      add\n        /* \"#utility.yul\":12560:12581   */\n      mstore\n        /* \"#utility.yul\":12617:12619   */\n      0x12\n        /* \"#utility.yul\":12597:12615   */\n      0x24\n      dup3\n      add\n        /* \"#utility.yul\":12590:12620   */\n      mstore\n      shl(0x72, 0x125b9d985b1a59081c1bdcda5d1a5bdb9259)\n        /* \"#utility.yul\":12636:12654   */\n      0x44\n      dup3\n      add\n        /* \"#utility.yul\":12629:12677   */\n      mstore\n        /* \"#utility.yul\":12694:12712   */\n      0x64\n      add\n        /* \"contracts/roy.sol\":7340:7393  require(userAddr != address(0), \"Invalid positionId\") */\n      tag_174\n        /* \"#utility.yul\":12376:12718   */\n      jump\n        /* \"contracts/roy.sol\":7340:7393  require(userAddr != address(0), \"Invalid positionId\") */\n    tag_240:\n      sub(shl(0xa0, 0x01), 0x01)\n        /* \"contracts/roy.sol\":7426:7441  users[userAddr] */\n      dup2\n      and\n        /* \"contracts/roy.sol\":7402:7423  Stake[] memory stakes */\n      0x00\n        /* \"contracts/roy.sol\":7426:7441  users[userAddr] */\n      swap1\n      dup2\n      mstore\n        /* \"contracts/roy.sol\":7426:7431  users */\n      0x03\n        /* \"contracts/roy.sol\":7426:7441  users[userAddr] */\n      0x20\n      swap1\n      dup2\n      mstore\n      0x40\n      dup1\n      dup4\n      keccak256\n        /* \"contracts/roy.sol\":7426:7448  users[userAddr].stakes */\n      0x01\n      add\n        /* \"contracts/roy.sol\":7402:7448  Stake[] memory stakes = users[userAddr].stakes */\n      dup1\n      sload\n      dup3\n      mload\n      dup2\n      dup6\n      mul\n      dup2\n      add\n      dup6\n      add\n      swap1\n      swap4\n      mstore\n      dup1\n      dup4\n      mstore\n      swap2\n      swap3\n        /* \"contracts/roy.sol\":7426:7448  users[userAddr].stakes */\n      swap1\n      swap2\n        /* \"contracts/roy.sol\":7402:7448  Stake[] memory stakes = users[userAddr].stakes */\n      swap1\n        /* \"contracts/roy.sol\":7402:7423  Stake[] memory stakes */\n      dup5\n      swap1\n        /* \"contracts/roy.sol\":7402:7448  Stake[] memory stakes = users[userAddr].stakes */\n      dup5\n      add\n    tag_243:\n      dup3\n      dup3\n      lt\n      iszero\n      tag_244\n      jumpi\n      0x00\n      dup5\n      dup2\n      mstore\n      0x20\n      swap1\n      dup2\n      swap1\n      keccak256\n      0x40\n      dup1\n      mload\n      0xc0\n      dup2\n      add\n      dup3\n      mstore\n      0x06\n      dup7\n      mul\n      swap1\n      swap3\n      add\n      dup1\n      sload\n      dup4\n      mstore\n      0x01\n      dup1\n      dup3\n      add\n      sload\n      dup5\n      dup7\n      add\n      mstore\n      0x02\n      dup3\n      add\n      sload\n      swap3\n      dup5\n      add\n      swap3\n      swap1\n      swap3\n      mstore\n      0x03\n      dup2\n      add\n      sload\n      0x60\n      dup5\n      add\n      mstore\n      0x04\n      dup2\n      add\n      sload\n      0x80\n      dup5\n      add\n      mstore\n      0x05\n      add\n      sload\n      0xff\n      and\n      iszero\n      iszero\n      0xa0\n      dup4\n      add\n      mstore\n      swap1\n      dup4\n      mstore\n      swap1\n      swap3\n      add\n      swap2\n      add\n      jump(tag_243)\n    tag_244:\n      pop\n      pop\n      pop\n      pop\n      swap1\n      pop\n        /* \"contracts/roy.sol\":7460:7469  uint256 i */\n      0x00\n        /* \"contracts/roy.sol\":7455:8181  for (uint256 i = 0; i < stakes.length; i++) {... */\n    tag_246:\n        /* \"contracts/roy.sol\":7479:7485  stakes */\n      dup2\n        /* \"contracts/roy.sol\":7479:7492  stakes.length */\n      mload\n        /* \"contracts/roy.sol\":7475:7476  i */\n      dup2\n        /* \"contracts/roy.sol\":7475:7492  i < stakes.length */\n      lt\n        /* \"contracts/roy.sol\":7455:8181  for (uint256 i = 0; i < stakes.length; i++) {... */\n      iszero\n      tag_247\n      jumpi\n        /* \"contracts/roy.sol\":7538:7549  _positionId */\n      dup12\n        /* \"contracts/roy.sol\":7514:7520  stakes */\n      dup3\n        /* \"contracts/roy.sol\":7521:7522  i */\n      dup3\n        /* \"contracts/roy.sol\":7514:7523  stakes[i] */\n      dup2\n      mload\n      dup2\n      lt\n      tag_250\n      jumpi\n      tag_250\n      tag_168\n      jump\t// in\n    tag_250:\n      0x20\n      mul\n      0x20\n      add\n      add\n      mload\n        /* \"contracts/roy.sol\":7514:7534  stakes[i].positionId */\n      0x20\n      add\n      mload\n        /* \"contracts/roy.sol\":7514:7549  stakes[i].positionId == _positionId */\n      sub\n        /* \"contracts/roy.sol\":7510:8174  if (stakes[i].positionId == _positionId) {... */\n      tag_251\n      jumpi\n        /* \"contracts/roy.sol\":7566:7580  Stake memory s */\n      0x00\n        /* \"contracts/roy.sol\":7583:7589  stakes */\n      dup3\n        /* \"contracts/roy.sol\":7590:7591  i */\n      dup3\n        /* \"contracts/roy.sol\":7583:7592  stakes[i] */\n      dup2\n      mload\n      dup2\n      lt\n      tag_253\n      jumpi\n      tag_253\n      tag_168\n      jump\t// in\n    tag_253:\n      0x20\n      mul\n      0x20\n      add\n      add\n      mload\n        /* \"contracts/roy.sol\":7566:7592  Stake memory s = stakes[i] */\n      swap1\n      pop\n        /* \"contracts/roy.sol\":7609:7624  uint256 apyRate */\n      0x00\n        /* \"contracts/roy.sol\":7627:7637  stakingAPY */\n      0x06\n        /* \"contracts/roy.sol\":7627:7648  stakingAPY[s.numDays] */\n      0x00\n        /* \"contracts/roy.sol\":7638:7639  s */\n      dup4\n        /* \"contracts/roy.sol\":7638:7647  s.numDays */\n      0x80\n      add\n      mload\n        /* \"contracts/roy.sol\":7627:7648  stakingAPY[s.numDays] */\n      dup2\n      mstore\n      0x20\n      add\n      swap1\n      dup2\n      mstore\n      0x20\n      add\n      0x00\n      keccak256\n      sload\n        /* \"contracts/roy.sol\":7609:7648  uint256 apyRate = stakingAPY[s.numDays] */\n      swap1\n      pop\n        /* \"contracts/roy.sol\":7663:7684  uint256 dailyInterest */\n      0x00\n        /* \"contracts/roy.sol\":7716:7717  s */\n      dup3\n        /* \"contracts/roy.sol\":7716:7725  s.numDays */\n      0x80\n      add\n      mload\n        /* \"contracts/roy.sol\":7710:7713  100 */\n      0x64\n        /* \"contracts/roy.sol\":7699:7706  apyRate */\n      dup4\n        /* \"contracts/roy.sol\":7688:7689  s */\n      dup6\n        /* \"contracts/roy.sol\":7688:7696  s.amount */\n      0x40\n      add\n      mload\n        /* \"contracts/roy.sol\":7688:7706  s.amount * apyRate */\n      tag_254\n      swap2\n      swap1\n      tag_196\n      jump\t// in\n    tag_254:\n        /* \"contracts/roy.sol\":7687:7713  (s.amount * apyRate) / 100 */\n      tag_255\n      swap2\n      swap1\n      tag_193\n      jump\t// in\n    tag_255:\n        /* \"contracts/roy.sol\":7687:7725  (s.amount * apyRate) / 100 / s.numDays */\n      tag_256\n      swap2\n      swap1\n      tag_193\n      jump\t// in\n    tag_256:\n        /* \"contracts/roy.sol\":7663:7725  uint256 dailyInterest = (s.amount * apyRate) / 100 / s.numDays */\n      swap1\n      pop\n        /* \"contracts/roy.sol\":7740:7751  uint256 end */\n      0x00\n        /* \"contracts/roy.sol\":7769:7770  s */\n      dup4\n        /* \"contracts/roy.sol\":7769:7778  s.numDays */\n      0x80\n      add\n      mload\n        /* \"contracts/roy.sol\":7781:7787  1 days */\n      0x015180\n        /* \"contracts/roy.sol\":7769:7787  s.numDays * 1 days */\n      tag_257\n      swap2\n      swap1\n      tag_196\n      jump\t// in\n    tag_257:\n        /* \"contracts/roy.sol\":7754:7755  s */\n      dup5\n        /* \"contracts/roy.sol\":7754:7765  s.timestamp */\n      0x60\n      add\n      mload\n        /* \"contracts/roy.sol\":7754:7788  s.timestamp + (s.numDays * 1 days) */\n      tag_258\n      swap2\n      swap1\n      tag_204\n      jump\t// in\n    tag_258:\n        /* \"contracts/roy.sol\":7740:7788  uint256 end = s.timestamp + (s.numDays * 1 days) */\n      swap1\n      pop\n        /* \"contracts/roy.sol\":7803:7816  bool isActive */\n      0x00\n        /* \"contracts/roy.sol\":7820:7821  s */\n      dup5\n        /* \"contracts/roy.sol\":7820:7829  s.claimed */\n      0xa0\n      add\n      mload\n        /* \"contracts/roy.sol\":7819:7829  !s.claimed */\n      iszero\n        /* \"contracts/roy.sol\":7819:7854  !s.claimed && block.timestamp < end */\n      dup1\n      iszero\n      tag_259\n      jumpi\n      pop\n        /* \"contracts/roy.sol\":7851:7854  end */\n      dup2\n        /* \"contracts/roy.sol\":7833:7848  block.timestamp */\n      timestamp\n        /* \"contracts/roy.sol\":7833:7854  block.timestamp < end */\n      lt\n        /* \"contracts/roy.sol\":7819:7854  !s.claimed && block.timestamp < end */\n    tag_259:\n        /* \"contracts/roy.sol\":7803:7854  bool isActive = !s.claimed && block.timestamp < end */\n      swap1\n      pop\n        /* \"contracts/roy.sol\":7897:7905  userAddr */\n      dup8\n        /* \"contracts/roy.sol\":7924:7925  s */\n      dup6\n        /* \"contracts/roy.sol\":7924:7933  s.stakeId */\n      0x00\n      add\n      mload\n        /* \"contracts/roy.sol\":7952:7953  s */\n      dup7\n        /* \"contracts/roy.sol\":7952:7960  s.amount */\n      0x40\n      add\n      mload\n        /* \"contracts/roy.sol\":7979:7980  s */\n      dup8\n        /* \"contracts/roy.sol\":7979:7990  s.timestamp */\n      0x60\n      add\n      mload\n        /* \"contracts/roy.sol\":8023:8026  end */\n      dup6\n        /* \"contracts/roy.sol\":8065:8072  apyRate */\n      dup9\n        /* \"contracts/roy.sol\":8091:8104  dailyInterest */\n      dup9\n        /* \"contracts/roy.sol\":8123:8131  isActive */\n      dup8\n        /* \"contracts/roy.sol\":7871:8162  return (... */\n      swap16\n      pop\n      swap16\n      pop\n      swap16\n      pop\n      swap16\n      pop\n      swap16\n      pop\n      swap16\n      pop\n      swap16\n      pop\n      swap16\n      pop\n      pop\n      pop\n      pop\n      pop\n      pop\n      pop\n      pop\n      pop\n      jump(tag_239)\n        /* \"contracts/roy.sol\":7510:8174  if (stakes[i].positionId == _positionId) {... */\n    tag_251:\n        /* \"contracts/roy.sol\":7494:7497  i++ */\n      0x01\n      add\n        /* \"contracts/roy.sol\":7455:8181  for (uint256 i = 0; i < stakes.length; i++) {... */\n      jump(tag_246)\n    tag_247:\n      pop\n        /* \"contracts/roy.sol\":8189:8214  revert(\"Stake not found\") */\n      mload(0x40)\n      shl(0xe5, 0x461bcd)\n      dup2\n      mstore\n        /* \"#utility.yul\":12925:12927   */\n      0x20\n        /* \"contracts/roy.sol\":8189:8214  revert(\"Stake not found\") */\n      0x04\n      dup3\n      add\n        /* \"#utility.yul\":12907:12928   */\n      mstore\n        /* \"#utility.yul\":12964:12966   */\n      0x0f\n        /* \"#utility.yul\":12944:12962   */\n      0x24\n      dup3\n      add\n        /* \"#utility.yul\":12937:12967   */\n      mstore\n      shl(0x8a, 0x14dd185ad9481b9bdd08199bdd5b99)\n        /* \"#utility.yul\":12983:13001   */\n      0x44\n      dup3\n      add\n        /* \"#utility.yul\":12976:13021   */\n      mstore\n        /* \"#utility.yul\":13038:13056   */\n      0x64\n      add\n        /* \"contracts/roy.sol\":8189:8214  revert(\"Stake not found\") */\n      tag_174\n        /* \"#utility.yul\":12723:13062   */\n      jump\n        /* \"contracts/roy.sol\":7028:8218  function getStakeByPositionId(uint256 _positionId) external view returns (... */\n    tag_239:\n      swap2\n      swap4\n      swap6\n      swap8\n      pop\n      swap2\n      swap4\n      swap6\n      swap8\n      jump\t// out\n        /* \"contracts/roy.sol\":2641:4511  function stake(uint256 numDays, uint256 amount) external onlyRegistered {... */\n    tag_81:\n        /* \"contracts/roy.sol\":1985:1995  msg.sender */\n      caller\n        /* \"contracts/roy.sol\":1979:1996  users[msg.sender] */\n      0x00\n      swap1\n      dup2\n      mstore\n        /* \"contracts/roy.sol\":1979:1984  users */\n      0x03\n        /* \"contracts/roy.sol\":1979:1996  users[msg.sender] */\n      0x20\n      mstore\n      0x40\n      swap1\n      keccak256\n        /* \"contracts/roy.sol\":1979:2007  users[msg.sender].registered */\n      0x04\n      add\n      sload\n      0xff\n      and\n        /* \"contracts/roy.sol\":1971:2026  require(users[msg.sender].registered, \"Not registered\") */\n      tag_263\n      jumpi\n      mload(0x40)\n      shl(0xe5, 0x461bcd)\n      dup2\n      mstore\n        /* \"#utility.yul\":7302:7304   */\n      0x20\n        /* \"contracts/roy.sol\":1971:2026  require(users[msg.sender].registered, \"Not registered\") */\n      0x04\n      dup3\n      add\n        /* \"#utility.yul\":7284:7305   */\n      mstore\n        /* \"#utility.yul\":7341:7343   */\n      0x0e\n        /* \"#utility.yul\":7321:7339   */\n      0x24\n      dup3\n      add\n        /* \"#utility.yul\":7314:7344   */\n      mstore\n      shl(0x92, 0x139bdd081c9959da5cdd195c9959)\n        /* \"#utility.yul\":7360:7378   */\n      0x44\n      dup3\n      add\n        /* \"#utility.yul\":7353:7397   */\n      mstore\n        /* \"#utility.yul\":7414:7432   */\n      0x64\n      add\n        /* \"contracts/roy.sol\":1971:2026  require(users[msg.sender].registered, \"Not registered\") */\n      tag_174\n        /* \"#utility.yul\":7100:7438   */\n      jump\n        /* \"contracts/roy.sol\":1971:2026  require(users[msg.sender].registered, \"Not registered\") */\n    tag_263:\n        /* \"contracts/roy.sol\":2741:2742  0 */\n      0x00\n        /* \"contracts/roy.sol\":2732:2738  amount */\n      dup2\n        /* \"contracts/roy.sol\":2732:2742  amount > 0 */\n      gt\n        /* \"contracts/roy.sol\":2724:2782  require(amount > 0, \"Stake amount must be greater than 0\") */\n      tag_266\n      jumpi\n      mload(0x40)\n      shl(0xe5, 0x461bcd)\n      dup2\n      mstore\n        /* \"#utility.yul\":13269:13271   */\n      0x20\n        /* \"contracts/roy.sol\":2724:2782  require(amount > 0, \"Stake amount must be greater than 0\") */\n      0x04\n      dup3\n      add\n        /* \"#utility.yul\":13251:13272   */\n      mstore\n        /* \"#utility.yul\":13308:13310   */\n      0x23\n        /* \"#utility.yul\":13288:13306   */\n      0x24\n      dup3\n      add\n        /* \"#utility.yul\":13281:13311   */\n      mstore\n        /* \"#utility.yul\":13347:13381   */\n      0x5374616b6520616d6f756e74206d757374206265206772656174657220746861\n        /* \"#utility.yul\":13327:13345   */\n      0x44\n      dup3\n      add\n        /* \"#utility.yul\":13320:13382   */\n      mstore\n      shl(0xec, 0x06e203)\n        /* \"#utility.yul\":13398:13416   */\n      0x64\n      dup3\n      add\n        /* \"#utility.yul\":13391:13424   */\n      mstore\n        /* \"#utility.yul\":13441:13460   */\n      0x84\n      add\n        /* \"contracts/roy.sol\":2724:2782  require(amount > 0, \"Stake amount must be greater than 0\") */\n      tag_174\n        /* \"#utility.yul\":13067:13466   */\n      jump\n        /* \"contracts/roy.sol\":2724:2782  require(amount > 0, \"Stake amount must be greater than 0\") */\n    tag_266:\n        /* \"contracts/roy.sol\":2823:2824  0 */\n      0x00\n        /* \"contracts/roy.sol\":2801:2820  stakingAPY[numDays] */\n      dup3\n      dup2\n      mstore\n        /* \"contracts/roy.sol\":2801:2811  stakingAPY */\n      0x06\n        /* \"contracts/roy.sol\":2801:2820  stakingAPY[numDays] */\n      0x20\n      mstore\n      0x40\n      swap1\n      keccak256\n      sload\n        /* \"contracts/roy.sol\":2793:2853  require(stakingAPY[numDays] > 0, \"Invalid staking duration\") */\n      tag_269\n      jumpi\n      mload(0x40)\n      shl(0xe5, 0x461bcd)\n      dup2\n      mstore\n        /* \"#utility.yul\":13673:13675   */\n      0x20\n        /* \"contracts/roy.sol\":2793:2853  require(stakingAPY[numDays] > 0, \"Invalid staking duration\") */\n      0x04\n      dup3\n      add\n        /* \"#utility.yul\":13655:13676   */\n      mstore\n        /* \"#utility.yul\":13712:13714   */\n      0x18\n        /* \"#utility.yul\":13692:13710   */\n      0x24\n      dup3\n      add\n        /* \"#utility.yul\":13685:13715   */\n      mstore\n      shl(0x41, 0x24b73b30b634b21039ba30b5b4b73390323ab930ba34b7b7)\n        /* \"#utility.yul\":13731:13749   */\n      0x44\n      dup3\n      add\n        /* \"#utility.yul\":13724:13778   */\n      mstore\n        /* \"#utility.yul\":13795:13813   */\n      0x64\n      add\n        /* \"contracts/roy.sol\":2793:2853  require(stakingAPY[numDays] > 0, \"Invalid staking duration\") */\n      tag_174\n        /* \"#utility.yul\":13471:13819   */\n      jump\n        /* \"contracts/roy.sol\":2793:2853  require(stakingAPY[numDays] > 0, \"Invalid staking duration\") */\n    tag_269:\n        /* \"contracts/roy.sol\":2881:2890  usdtToken */\n      sload(0x02)\n        /* \"contracts/roy.sol\":2881:2938  usdtToken.transferFrom(msg.sender, address(this), amount) */\n      mload(0x40)\n      shl(0xe0, 0x23b872dd)\n      dup2\n      mstore\n        /* \"contracts/roy.sol\":2904:2914  msg.sender */\n      caller\n        /* \"contracts/roy.sol\":2881:2938  usdtToken.transferFrom(msg.sender, address(this), amount) */\n      0x04\n      dup3\n      add\n        /* \"#utility.yul\":14064:14098   */\n      mstore\n        /* \"contracts/roy.sol\":2924:2928  this */\n      address\n        /* \"#utility.yul\":14114:14132   */\n      0x24\n      dup3\n      add\n        /* \"#utility.yul\":14107:14150   */\n      mstore\n        /* \"#utility.yul\":14166:14184   */\n      0x44\n      dup2\n      add\n        /* \"#utility.yul\":14159:14193   */\n      dup4\n      swap1\n      mstore\n        /* \"contracts/roy.sol\":2866:2878  bool success */\n      0x00\n      swap2\n      sub(shl(0xa0, 0x01), 0x01)\n        /* \"contracts/roy.sol\":2881:2890  usdtToken */\n      and\n      swap1\n        /* \"contracts/roy.sol\":2881:2903  usdtToken.transferFrom */\n      0x23b872dd\n      swap1\n        /* \"#utility.yul\":13999:14017   */\n      0x64\n      add\n        /* \"contracts/roy.sol\":2881:2938  usdtToken.transferFrom(msg.sender, address(this), amount) */\n      0x20\n      mload(0x40)\n      dup1\n      dup4\n      sub\n      dup2\n      0x00\n      dup8\n      gas\n      call\n      iszero\n      dup1\n      iszero\n      tag_275\n      jumpi\n      returndatasize\n      0x00\n      dup1\n      returndatacopy\n      revert(0x00, returndatasize)\n    tag_275:\n      pop\n      pop\n      pop\n      pop\n      mload(0x40)\n      returndatasize\n      not(0x1f)\n      0x1f\n      dup3\n      add\n      and\n      dup3\n      add\n      dup1\n      0x40\n      mstore\n      pop\n      dup2\n      add\n      swap1\n      tag_276\n      swap2\n      swap1\n      tag_210\n      jump\t// in\n    tag_276:\n        /* \"contracts/roy.sol\":2866:2938  bool success = usdtToken.transferFrom(msg.sender, address(this), amount) */\n      swap1\n      pop\n        /* \"contracts/roy.sol\":2957:2964  success */\n      dup1\n        /* \"contracts/roy.sol\":2949:2989  require(success, \"USDT transfer failed\") */\n      tag_277\n      jumpi\n      mload(0x40)\n      shl(0xe5, 0x461bcd)\n      dup2\n      mstore\n        /* \"#utility.yul\":14406:14408   */\n      0x20\n        /* \"contracts/roy.sol\":2949:2989  require(success, \"USDT transfer failed\") */\n      0x04\n      dup3\n      add\n        /* \"#utility.yul\":14388:14409   */\n      mstore\n        /* \"#utility.yul\":14445:14447   */\n      0x14\n        /* \"#utility.yul\":14425:14443   */\n      0x24\n      dup3\n      add\n        /* \"#utility.yul\":14418:14448   */\n      mstore\n      shl(0x62, 0x1554d115081d1c985b9cd9995c8819985a5b1959)\n        /* \"#utility.yul\":14464:14482   */\n      0x44\n      dup3\n      add\n        /* \"#utility.yul\":14457:14507   */\n      mstore\n        /* \"#utility.yul\":14524:14542   */\n      0x64\n      add\n        /* \"contracts/roy.sol\":2949:2989  require(success, \"USDT transfer failed\") */\n      tag_174\n        /* \"#utility.yul\":14204:14548   */\n      jump\n        /* \"contracts/roy.sol\":2949:2989  require(success, \"USDT transfer failed\") */\n    tag_277:\n        /* \"contracts/roy.sol\":3002:3020  uint256 positionId */\n      0x00\n        /* \"contracts/roy.sol\":3025:3037  stakeCounter */\n      0x01\n      0x00\n        /* \"contracts/roy.sol\":3023:3037  ++stakeCounter */\n      dup2\n      sload\n      tag_280\n      swap1\n      tag_281\n      jump\t// in\n    tag_280:\n      swap2\n      swap1\n      pop\n      dup2\n      swap1\n      sstore\n        /* \"contracts/roy.sol\":3002:3037  uint256 positionId = ++stakeCounter */\n      swap1\n      pop\n        /* \"contracts/roy.sol\":3050:3055  users */\n      0x03\n        /* \"contracts/roy.sol\":3050:3067  users[msg.sender] */\n      0x00\n        /* \"contracts/roy.sol\":3056:3066  msg.sender */\n      caller\n      sub(shl(0xa0, 0x01), 0x01)\n        /* \"contracts/roy.sol\":3050:3067  users[msg.sender] */\n      and\n      sub(shl(0xa0, 0x01), 0x01)\n      and\n      dup2\n      mstore\n      0x20\n      add\n      swap1\n      dup2\n      mstore\n      0x20\n      add\n      0x00\n      keccak256\n        /* \"contracts/roy.sol\":3050:3074  users[msg.sender].stakes */\n      0x01\n      add\n        /* \"contracts/roy.sol\":3080:3301  Stake({... */\n      mload(0x40)\n      dup1\n      0xc0\n      add\n      0x40\n      mstore\n      dup1\n        /* \"contracts/roy.sol\":3110:3122  stakeCounter */\n      sload(0x01)\n        /* \"contracts/roy.sol\":3080:3301  Stake({... */\n      dup2\n      mstore\n      0x20\n      add\n        /* \"contracts/roy.sol\":3149:3159  positionId */\n      dup4\n        /* \"contracts/roy.sol\":3080:3301  Stake({... */\n      dup2\n      mstore\n      0x20\n      add\n        /* \"contracts/roy.sol\":3182:3188  amount */\n      dup6\n        /* \"contracts/roy.sol\":3080:3301  Stake({... */\n      dup2\n      mstore\n      0x20\n      add\n        /* \"contracts/roy.sol\":3214:3229  block.timestamp */\n      timestamp\n        /* \"contracts/roy.sol\":3080:3301  Stake({... */\n      dup2\n      mstore\n      0x20\n      add\n        /* \"contracts/roy.sol\":3253:3260  numDays */\n      dup7\n        /* \"contracts/roy.sol\":3080:3301  Stake({... */\n      dup2\n      mstore\n      0x20\n      add\n        /* \"contracts/roy.sol\":3284:3289  false */\n      0x00\n        /* \"contracts/roy.sol\":3080:3301  Stake({... */\n      iszero\n      iszero\n      dup2\n      mstore\n      pop\n        /* \"contracts/roy.sol\":3050:3302  users[msg.sender].stakes.push(Stake({... */\n      swap1\n      dup1\n      0x01\n      dup2\n      sload\n      add\n      dup1\n      dup3\n      sstore\n      dup1\n      swap2\n      pop\n      pop\n      0x01\n      swap1\n      sub\n      swap1\n      0x00\n      mstore\n      keccak256(0x00, 0x20)\n      swap1\n      0x06\n      mul\n      add\n      0x00\n      swap1\n      swap2\n      swap1\n      swap2\n      swap1\n      swap2\n      pop\n      0x00\n      dup3\n      add\n      mload\n      dup2\n      0x00\n      add\n      sstore\n      0x20\n      dup3\n      add\n      mload\n      dup2\n      0x01\n      add\n      sstore\n      0x40\n      dup3\n      add\n      mload\n      dup2\n      0x02\n      add\n      sstore\n      0x60\n      dup3\n      add\n      mload\n      dup2\n      0x03\n      add\n      sstore\n      0x80\n      dup3\n      add\n      mload\n      dup2\n      0x04\n      add\n      sstore\n      0xa0\n      dup3\n      add\n      mload\n      dup2\n      0x05\n      add\n      exp(0x0100, 0x00)\n      dup2\n      sload\n      dup2\n      0xff\n      mul\n      not\n      and\n      swap1\n      dup4\n      iszero\n      iszero\n      mul\n      or\n      swap1\n      sstore\n      pop\n      pop\n      pop\n        /* \"contracts/roy.sol\":3346:3356  msg.sender */\n      caller\n        /* \"contracts/roy.sol\":3315:3331  positionIdToUser */\n      0x05\n        /* \"contracts/roy.sol\":3315:3343  positionIdToUser[positionId] */\n      0x00\n        /* \"contracts/roy.sol\":3332:3342  positionId */\n      dup4\n        /* \"contracts/roy.sol\":3315:3343  positionIdToUser[positionId] */\n      dup2\n      mstore\n      0x20\n      add\n      swap1\n      dup2\n      mstore\n      0x20\n      add\n      0x00\n      keccak256\n      0x00\n        /* \"contracts/roy.sol\":3315:3356  positionIdToUser[positionId] = msg.sender */\n      0x0100\n      exp\n      dup2\n      sload\n      dup2\n      sub(shl(0xa0, 0x01), 0x01)\n      mul\n      not\n      and\n      swap1\n      dup4\n      sub(shl(0xa0, 0x01), 0x01)\n      and\n      mul\n      or\n      swap1\n      sstore\n      pop\n        /* \"contracts/roy.sol\":3405:3419  address upline */\n      0x00\n        /* \"contracts/roy.sol\":3422:3427  users */\n      0x03\n        /* \"contracts/roy.sol\":3422:3439  users[msg.sender] */\n      0x00\n        /* \"contracts/roy.sol\":3428:3438  msg.sender */\n      caller\n      sub(shl(0xa0, 0x01), 0x01)\n        /* \"contracts/roy.sol\":3422:3439  users[msg.sender] */\n      and\n      sub(shl(0xa0, 0x01), 0x01)\n      and\n      dup2\n      mstore\n      0x20\n      add\n      swap1\n      dup2\n      mstore\n      0x20\n      add\n      0x00\n      keccak256\n        /* \"contracts/roy.sol\":3422:3448  users[msg.sender].referrer */\n      0x00\n      add\n      0x00\n      swap1\n      sload\n      swap1\n      0x0100\n      exp\n      swap1\n      div\n      sub(shl(0xa0, 0x01), 0x01)\n      and\n        /* \"contracts/roy.sol\":3405:3448  address upline = users[msg.sender].referrer */\n      swap1\n      pop\n        /* \"contracts/roy.sol\":3466:3473  uint8 i */\n      0x00\n        /* \"contracts/roy.sol\":3461:4504  for (uint8 i = 0; i < levelRewards.length && upline != address(0); i++) {... */\n    tag_283:\n        /* \"contracts/roy.sol\":3483:3502  levelRewards.length */\n      0x05\n        /* \"contracts/roy.sol\":3479:3480  i */\n      dup2\n        /* \"contracts/roy.sol\":3479:3502  i < levelRewards.length */\n      0xff\n      and\n      lt\n        /* \"contracts/roy.sol\":3479:3526  i < levelRewards.length && upline != address(0) */\n      dup1\n      iszero\n      tag_286\n      jumpi\n      pop\n      sub(shl(0xa0, 0x01), 0x01)\n        /* \"contracts/roy.sol\":3506:3526  upline != address(0) */\n      dup3\n      and\n      iszero\n      iszero\n        /* \"contracts/roy.sol\":3479:3526  i < levelRewards.length && upline != address(0) */\n    tag_286:\n        /* \"contracts/roy.sol\":3461:4504  for (uint8 i = 0; i < levelRewards.length && upline != address(0); i++) {... */\n      iszero\n      tag_284\n      jumpi\n        /* \"contracts/roy.sol\":3548:3562  uint256 reward */\n      0x00\n        /* \"contracts/roy.sol\":3594:3597  100 */\n      0x64\n        /* \"contracts/roy.sol\":3575:3587  levelRewards */\n      0x09\n        /* \"contracts/roy.sol\":3588:3589  i */\n      dup4\n        /* \"contracts/roy.sol\":3575:3590  levelRewards[i] */\n      0xff\n      and\n      0x05\n      dup2\n      lt\n      tag_288\n      jumpi\n      tag_288\n      tag_168\n      jump\t// in\n    tag_288:\n      0x20\n      dup2\n      div\n      swap2\n      swap1\n      swap2\n      add\n      sload\n        /* \"contracts/roy.sol\":3566:3590  amount * levelRewards[i] */\n      tag_290\n      swap2\n        /* \"contracts/roy.sol\":3575:3590  levelRewards[i] */\n      0x1f\n      and\n      0x0100\n      exp\n      swap1\n      div\n      0xff\n      and\n        /* \"contracts/roy.sol\":3566:3572  amount */\n      dup9\n        /* \"contracts/roy.sol\":3566:3590  amount * levelRewards[i] */\n      tag_196\n      jump\t// in\n    tag_290:\n        /* \"contracts/roy.sol\":3565:3597  (amount * levelRewards[i]) / 100 */\n      tag_291\n      swap2\n      swap1\n      tag_193\n      jump\t// in\n    tag_291:\n        /* \"contracts/roy.sol\":3622:3631  usdtToken */\n      sload(0x02)\n        /* \"contracts/roy.sol\":3622:3656  usdtToken.balanceOf(address(this)) */\n      mload(0x40)\n      shl(0xe0, 0x70a08231)\n      dup2\n      mstore\n        /* \"contracts/roy.sol\":3650:3654  this */\n      address\n        /* \"contracts/roy.sol\":3622:3656  usdtToken.balanceOf(address(this)) */\n      0x04\n      dup3\n      add\n        /* \"#utility.yul\":1132:1183   */\n      mstore\n        /* \"contracts/roy.sol\":3548:3597  uint256 reward = (amount * levelRewards[i]) / 100 */\n      swap2\n      swap3\n      pop\n      dup3\n      swap2\n      sub(shl(0xa0, 0x01), 0x01)\n        /* \"contracts/roy.sol\":3622:3631  usdtToken */\n      swap1\n      swap2\n      and\n      swap1\n        /* \"contracts/roy.sol\":3622:3641  usdtToken.balanceOf */\n      0x70a08231\n      swap1\n        /* \"#utility.yul\":1105:1123   */\n      0x24\n      add\n        /* \"contracts/roy.sol\":3622:3656  usdtToken.balanceOf(address(this)) */\n      0x20\n      mload(0x40)\n      dup1\n      dup4\n      sub\n      dup2\n      dup7\n      gas\n      staticcall\n      iszero\n      dup1\n      iszero\n      tag_294\n      jumpi\n      returndatasize\n      0x00\n      dup1\n      returndatacopy\n      revert(0x00, returndatasize)\n    tag_294:\n      pop\n      pop\n      pop\n      pop\n      mload(0x40)\n      returndatasize\n      not(0x1f)\n      0x1f\n      dup3\n      add\n      and\n      dup3\n      add\n      dup1\n      0x40\n      mstore\n      pop\n      dup2\n      add\n      swap1\n      tag_295\n      swap2\n      swap1\n      tag_296\n      jump\t// in\n    tag_295:\n        /* \"contracts/roy.sol\":3622:3666  usdtToken.balanceOf(address(this)) >= reward */\n      lt\n      iszero\n        /* \"contracts/roy.sol\":3614:3700  require(usdtToken.balanceOf(address(this)) >= reward, \"Insufficient contract balance\") */\n      tag_297\n      jumpi\n      mload(0x40)\n      shl(0xe5, 0x461bcd)\n      dup2\n      mstore\n        /* \"#utility.yul\":15084:15086   */\n      0x20\n        /* \"contracts/roy.sol\":3614:3700  require(usdtToken.balanceOf(address(this)) >= reward, \"Insufficient contract balance\") */\n      0x04\n      dup3\n      add\n        /* \"#utility.yul\":15066:15087   */\n      mstore\n        /* \"#utility.yul\":15123:15125   */\n      0x1d\n        /* \"#utility.yul\":15103:15121   */\n      0x24\n      dup3\n      add\n        /* \"#utility.yul\":15096:15126   */\n      mstore\n        /* \"#utility.yul\":15162:15193   */\n      0x496e73756666696369656e7420636f6e74726163742062616c616e6365000000\n        /* \"#utility.yul\":15142:15160   */\n      0x44\n      dup3\n      add\n        /* \"#utility.yul\":15135:15194   */\n      mstore\n        /* \"#utility.yul\":15211:15229   */\n      0x64\n      add\n        /* \"contracts/roy.sol\":3614:3700  require(usdtToken.balanceOf(address(this)) >= reward, \"Insufficient contract balance\") */\n      tag_174\n        /* \"#utility.yul\":14882:15235   */\n      jump\n        /* \"contracts/roy.sol\":3614:3700  require(usdtToken.balanceOf(address(this)) >= reward, \"Insufficient contract balance\") */\n    tag_297:\n        /* \"contracts/roy.sol\":3738:3747  usdtToken */\n      sload(0x02)\n        /* \"contracts/roy.sol\":3738:3772  usdtToken.transfer(upline, reward) */\n      mload(0x40)\n      shl(0xe0, 0xa9059cbb)\n      dup2\n      mstore\n      sub(shl(0xa0, 0x01), 0x01)\n        /* \"#utility.yul\":9527:9559   */\n      dup6\n      dup2\n      and\n        /* \"contracts/roy.sol\":3738:3772  usdtToken.transfer(upline, reward) */\n      0x04\n      dup4\n      add\n        /* \"#utility.yul\":9509:9560   */\n      mstore\n        /* \"#utility.yul\":9576:9594   */\n      0x24\n      dup3\n      add\n        /* \"#utility.yul\":9569:9603   */\n      dup5\n      swap1\n      mstore\n        /* \"contracts/roy.sol\":3717:3735  bool rewardSuccess */\n      0x00\n      swap3\n        /* \"contracts/roy.sol\":3738:3747  usdtToken */\n      and\n      swap1\n        /* \"contracts/roy.sol\":3738:3756  usdtToken.transfer */\n      0xa9059cbb\n      swap1\n        /* \"#utility.yul\":9482:9500   */\n      0x44\n      add\n        /* \"contracts/roy.sol\":3738:3772  usdtToken.transfer(upline, reward) */\n      0x20\n      mload(0x40)\n      dup1\n      dup4\n      sub\n      dup2\n      0x00\n      dup8\n      gas\n      call\n      iszero\n      dup1\n      iszero\n      tag_302\n      jumpi\n      returndatasize\n      0x00\n      dup1\n      returndatacopy\n      revert(0x00, returndatasize)\n    tag_302:\n      pop\n      pop\n      pop\n      pop\n      mload(0x40)\n      returndatasize\n      not(0x1f)\n      0x1f\n      dup3\n      add\n      and\n      dup3\n      add\n      dup1\n      0x40\n      mstore\n      pop\n      dup2\n      add\n      swap1\n      tag_303\n      swap2\n      swap1\n      tag_210\n      jump\t// in\n    tag_303:\n        /* \"contracts/roy.sol\":3717:3772  bool rewardSuccess = usdtToken.transfer(upline, reward) */\n      swap1\n      pop\n        /* \"contracts/roy.sol\":3795:3808  rewardSuccess */\n      dup1\n        /* \"contracts/roy.sol\":3787:3835  require(rewardSuccess, \"Reward transfer failed\") */\n      tag_304\n      jumpi\n      mload(0x40)\n      shl(0xe5, 0x461bcd)\n      dup2\n      mstore\n        /* \"#utility.yul\":15442:15444   */\n      0x20\n        /* \"contracts/roy.sol\":3787:3835  require(rewardSuccess, \"Reward transfer failed\") */\n      0x04\n      dup3\n      add\n        /* \"#utility.yul\":15424:15445   */\n      mstore\n        /* \"#utility.yul\":15481:15483   */\n      0x16\n        /* \"#utility.yul\":15461:15479   */\n      0x24\n      dup3\n      add\n        /* \"#utility.yul\":15454:15484   */\n      mstore\n      shl(0x52, 0x14995dd85c99081d1c985b9cd9995c8819985a5b1959)\n        /* \"#utility.yul\":15500:15518   */\n      0x44\n      dup3\n      add\n        /* \"#utility.yul\":15493:15545   */\n      mstore\n        /* \"#utility.yul\":15562:15580   */\n      0x64\n      add\n        /* \"contracts/roy.sol\":3787:3835  require(rewardSuccess, \"Reward transfer failed\") */\n      tag_174\n        /* \"#utility.yul\":15240:15586   */\n      jump\n        /* \"contracts/roy.sol\":3787:3835  require(rewardSuccess, \"Reward transfer failed\") */\n    tag_304:\n      sub(shl(0xa0, 0x01), 0x01)\n        /* \"contracts/roy.sol\":3852:3865  users[upline] */\n      dup5\n      and\n      0x00\n      swap1\n      dup2\n      mstore\n        /* \"contracts/roy.sol\":3852:3857  users */\n      0x03\n        /* \"contracts/roy.sol\":3852:3865  users[upline] */\n      0x20\n      mstore\n      0x40\n      dup2\n      keccak256\n        /* \"contracts/roy.sol\":3852:3877  users[upline].totalIncome */\n      0x02\n      add\n        /* \"contracts/roy.sol\":3852:3887  users[upline].totalIncome += reward */\n      dup1\n      sload\n        /* \"contracts/roy.sol\":3881:3887  reward */\n      dup5\n      swap3\n        /* \"contracts/roy.sol\":3852:3865  users[upline] */\n      swap1\n        /* \"contracts/roy.sol\":3852:3887  users[upline].totalIncome += reward */\n      tag_307\n      swap1\n        /* \"contracts/roy.sol\":3881:3887  reward */\n      dup5\n      swap1\n        /* \"contracts/roy.sol\":3852:3887  users[upline].totalIncome += reward */\n      tag_204\n      jump\t// in\n    tag_307:\n      swap1\n      swap2\n      sstore\n      pop\n      pop\n        /* \"contracts/roy.sol\":3908:3914  i == 0 */\n      0xff\n      dup4\n      and\n        /* \"contracts/roy.sol\":3913:3914  0 */\n      0x00\n        /* \"contracts/roy.sol\":3908:3914  i == 0 */\n      sub\n        /* \"contracts/roy.sol\":3904:4141  if (i == 0) {... */\n      tag_308\n      jumpi\n      sub(shl(0xa0, 0x01), 0x01)\n        /* \"contracts/roy.sol\":3978:4006  directReferralIncome[upline] */\n      dup5\n      and\n      0x00\n      swap1\n      dup2\n      mstore\n        /* \"contracts/roy.sol\":3978:3998  directReferralIncome */\n      0x07\n        /* \"contracts/roy.sol\":3978:4006  directReferralIncome[upline] */\n      0x20\n      mstore\n      0x40\n      dup2\n      keccak256\n        /* \"contracts/roy.sol\":3978:4016  directReferralIncome[upline] += reward */\n      dup1\n      sload\n        /* \"contracts/roy.sol\":4010:4016  reward */\n      dup5\n      swap3\n        /* \"contracts/roy.sol\":3978:4006  directReferralIncome[upline] */\n      swap1\n        /* \"contracts/roy.sol\":3978:4016  directReferralIncome[upline] += reward */\n      tag_309\n      swap1\n        /* \"contracts/roy.sol\":4010:4016  reward */\n      dup5\n      swap1\n        /* \"contracts/roy.sol\":3978:4016  directReferralIncome[upline] += reward */\n      tag_204\n      jump\t// in\n    tag_309:\n      swap1\n      swap2\n      sstore\n      pop\n        /* \"contracts/roy.sol\":3904:4141  if (i == 0) {... */\n      tag_310\n      swap1\n      pop\n      jump\n    tag_308:\n      sub(shl(0xa0, 0x01), 0x01)\n        /* \"contracts/roy.sol\":4090:4103  users[upline] */\n      dup5\n      and\n      0x00\n      swap1\n      dup2\n      mstore\n        /* \"contracts/roy.sol\":4090:4095  users */\n      0x03\n        /* \"contracts/roy.sol\":4090:4103  users[upline] */\n      0x20\n      dup2\n      swap1\n      mstore\n      0x40\n      dup3\n      keccak256\n        /* \"contracts/roy.sol\":4090:4115  users[upline].levelIncome */\n      add\n        /* \"contracts/roy.sol\":4090:4125  users[upline].levelIncome += reward */\n      dup1\n      sload\n        /* \"contracts/roy.sol\":4119:4125  reward */\n      dup5\n      swap3\n        /* \"contracts/roy.sol\":4090:4103  users[upline] */\n      swap1\n        /* \"contracts/roy.sol\":4090:4125  users[upline].levelIncome += reward */\n      tag_311\n      swap1\n        /* \"contracts/roy.sol\":4119:4125  reward */\n      dup5\n      swap1\n        /* \"contracts/roy.sol\":4090:4125  users[upline].levelIncome += reward */\n      tag_204\n      jump\t// in\n    tag_311:\n      swap1\n      swap2\n      sstore\n      pop\n      pop\n        /* \"contracts/roy.sol\":3904:4141  if (i == 0) {... */\n    tag_310:\n      sub(shl(0xa0, 0x01), 0x01)\n        /* \"contracts/roy.sol\":4187:4210  directReferrals[upline] */\n      dup5\n      and\n        /* \"contracts/roy.sol\":4157:4184  ReferralInfo[] storage refs */\n      0x00\n        /* \"contracts/roy.sol\":4187:4210  directReferrals[upline] */\n      swap1\n      dup2\n      mstore\n        /* \"contracts/roy.sol\":4187:4202  directReferrals */\n      0x04\n        /* \"contracts/roy.sol\":4187:4210  directReferrals[upline] */\n      0x20\n      mstore\n      0x40\n      dup2\n      keccak256\n      swap1\n        /* \"contracts/roy.sol\":4225:4445  for (uint256 j = 0; j < refs.length; j++) {... */\n    tag_312:\n        /* \"contracts/roy.sol\":4249:4260  refs.length */\n      dup2\n      sload\n        /* \"contracts/roy.sol\":4245:4260  j < refs.length */\n      dup2\n      lt\n        /* \"contracts/roy.sol\":4225:4445  for (uint256 j = 0; j < refs.length; j++) {... */\n      iszero\n      tag_313\n      jumpi\n        /* \"contracts/roy.sol\":4317:4327  msg.sender */\n      caller\n      sub(shl(0xa0, 0x01), 0x01)\n        /* \"contracts/roy.sol\":4290:4327  refs[j].referralAddress == msg.sender */\n      and\n        /* \"contracts/roy.sol\":4290:4294  refs */\n      dup3\n        /* \"contracts/roy.sol\":4295:4296  j */\n      dup3\n        /* \"contracts/roy.sol\":4290:4297  refs[j] */\n      dup2\n      sload\n      dup2\n      lt\n      tag_316\n      jumpi\n      tag_316\n      tag_168\n      jump\t// in\n    tag_316:\n      0x00\n      swap2\n      dup3\n      mstore\n      0x20\n      swap1\n      swap2\n      keccak256\n      0x03\n      swap1\n      swap2\n      mul\n      add\n        /* \"contracts/roy.sol\":4290:4313  refs[j].referralAddress */\n      sload\n      sub(shl(0xa0, 0x01), 0x01)\n      and\n        /* \"contracts/roy.sol\":4290:4327  refs[j].referralAddress == msg.sender */\n      sub\n        /* \"contracts/roy.sol\":4286:4430  if (refs[j].referralAddress == msg.sender) {... */\n      tag_318\n      jumpi\n        /* \"contracts/roy.sol\":4376:4382  reward */\n      dup4\n        /* \"contracts/roy.sol\":4352:4356  refs */\n      dup3\n        /* \"contracts/roy.sol\":4357:4358  j */\n      dup3\n        /* \"contracts/roy.sol\":4352:4359  refs[j] */\n      dup2\n      sload\n      dup2\n      lt\n      tag_320\n      jumpi\n      tag_320\n      tag_168\n      jump\t// in\n    tag_320:\n      swap1\n      0x00\n      mstore\n      keccak256(0x00, 0x20)\n      swap1\n      0x03\n      mul\n      add\n        /* \"contracts/roy.sol\":4352:4372  refs[j].incomeEarned */\n      0x01\n      add\n      0x00\n        /* \"contracts/roy.sol\":4352:4382  refs[j].incomeEarned += reward */\n      dup3\n      dup3\n      sload\n      tag_322\n      swap2\n      swap1\n      tag_204\n      jump\t// in\n    tag_322:\n      swap1\n      swap2\n      sstore\n      pop\n        /* \"contracts/roy.sol\":4405:4410  break */\n      tag_313\n      swap1\n      pop\n      jump\n        /* \"contracts/roy.sol\":4286:4430  if (refs[j].referralAddress == msg.sender) {... */\n    tag_318:\n        /* \"contracts/roy.sol\":4262:4265  j++ */\n      0x01\n      add\n        /* \"contracts/roy.sol\":4225:4445  for (uint256 j = 0; j < refs.length; j++) {... */\n      jump(tag_312)\n    tag_313:\n      pop\n      pop\n      pop\n      sub(shl(0xa0, 0x01), 0x01)\n        /* \"contracts/roy.sol\":4470:4483  users[upline] */\n      swap3\n      dup4\n      and\n      0x00\n      swap1\n      dup2\n      mstore\n        /* \"contracts/roy.sol\":4470:4475  users */\n      0x03\n        /* \"contracts/roy.sol\":4470:4483  users[upline] */\n      0x20\n      mstore\n      0x40\n      swap1\n      keccak256\n        /* \"contracts/roy.sol\":4470:4492  users[upline].referrer */\n      sload\n      swap1\n      swap3\n      and\n      swap2\n      pop\n        /* \"contracts/roy.sol\":3528:3531  i++ */\n      dup1\n      tag_323\n      dup2\n      tag_324\n      jump\t// in\n    tag_323:\n      swap2\n      pop\n      pop\n        /* \"contracts/roy.sol\":3461:4504  for (uint8 i = 0; i < levelRewards.length && upline != address(0); i++) {... */\n      jump(tag_283)\n    tag_284:\n      pop\n        /* \"contracts/roy.sol\":2713:4511  {... */\n      pop\n      pop\n      pop\n        /* \"contracts/roy.sol\":2641:4511  function stake(uint256 numDays, uint256 amount) external onlyRegistered {... */\n      pop\n      pop\n      jump\t// out\n        /* \"contracts/roy.sol\":8987:9706  function getReferralIncomeDetails(address user) external view returns (... */\n    tag_98:\n      sub(shl(0xa0, 0x01), 0x01)\n        /* \"contracts/roy.sol\":9224:9245  directReferrals[user] */\n      dup2\n      and\n        /* \"contracts/roy.sol\":9194:9221  ReferralInfo[] storage refs */\n      0x00\n        /* \"contracts/roy.sol\":9224:9245  directReferrals[user] */\n      swap1\n      dup2\n      mstore\n        /* \"contracts/roy.sol\":9224:9239  directReferrals */\n      0x04\n        /* \"contracts/roy.sol\":9224:9245  directReferrals[user] */\n      0x20\n      mstore\n      0x40\n      swap1\n      keccak256\n        /* \"contracts/roy.sol\":9272:9283  refs.length */\n      dup1\n      sload\n        /* \"contracts/roy.sol\":9068:9102  address[] memory referralAddresses */\n      0x60\n      swap2\n      dup3\n      swap2\n      dup3\n      swap2\n        /* \"contracts/roy.sol\":9224:9245  directReferrals[user] */\n      swap1\n        /* \"contracts/roy.sol\":9272:9283  refs.length */\n      dup1\n        /* \"contracts/roy.sol\":9316:9336  new address[](count) */\n      0xffffffffffffffff\n      dup2\n      gt\n      iszero\n      tag_329\n      jumpi\n      tag_329\n      tag_161\n      jump\t// in\n    tag_329:\n      mload(0x40)\n      swap1\n      dup1\n      dup3\n      mstore\n      dup1\n      0x20\n      mul\n      0x20\n      add\n      dup3\n      add\n      0x40\n      mstore\n      dup1\n      iszero\n      tag_330\n      jumpi\n      dup2\n      0x20\n      add\n      0x20\n      dup3\n      mul\n      dup1\n      calldatasize\n      dup4\n      calldatacopy\n      add\n      swap1\n      pop\n    tag_330:\n      pop\n        /* \"contracts/roy.sol\":9296:9336  referralAddresses = new address[](count) */\n      swap5\n      pop\n        /* \"contracts/roy.sol\":9371:9376  count */\n      dup1\n        /* \"contracts/roy.sol\":9357:9377  new uint256[](count) */\n      0xffffffffffffffff\n      dup2\n      gt\n      iszero\n      tag_332\n      jumpi\n      tag_332\n      tag_161\n      jump\t// in\n    tag_332:\n      mload(0x40)\n      swap1\n      dup1\n      dup3\n      mstore\n      dup1\n      0x20\n      mul\n      0x20\n      add\n      dup3\n      add\n      0x40\n      mstore\n      dup1\n      iszero\n      tag_333\n      jumpi\n      dup2\n      0x20\n      add\n      0x20\n      dup3\n      mul\n      dup1\n      calldatasize\n      dup4\n      calldatacopy\n      add\n      swap1\n      pop\n    tag_333:\n      pop\n        /* \"contracts/roy.sol\":9347:9377  incomes = new uint256[](count) */\n      swap4\n      pop\n        /* \"contracts/roy.sol\":9415:9420  count */\n      dup1\n        /* \"contracts/roy.sol\":9401:9421  new uint256[](count) */\n      0xffffffffffffffff\n      dup2\n      gt\n      iszero\n      tag_335\n      jumpi\n      tag_335\n      tag_161\n      jump\t// in\n    tag_335:\n      mload(0x40)\n      swap1\n      dup1\n      dup3\n      mstore\n      dup1\n      0x20\n      mul\n      0x20\n      add\n      dup3\n      add\n      0x40\n      mstore\n      dup1\n      iszero\n      tag_336\n      jumpi\n      dup2\n      0x20\n      add\n      0x20\n      dup3\n      mul\n      dup1\n      calldatasize\n      dup4\n      calldatacopy\n      add\n      swap1\n      pop\n    tag_336:\n      pop\n        /* \"contracts/roy.sol\":9388:9421  timestamps = new uint256[](count) */\n      swap3\n      pop\n        /* \"contracts/roy.sol\":9439:9448  uint256 i */\n      0x00\n        /* \"contracts/roy.sol\":9434:9639  for (uint256 i = 0; i < count; i++) {... */\n    tag_337:\n        /* \"contracts/roy.sol\":9458:9463  count */\n      dup2\n        /* \"contracts/roy.sol\":9454:9455  i */\n      dup2\n        /* \"contracts/roy.sol\":9454:9463  i < count */\n      lt\n        /* \"contracts/roy.sol\":9434:9639  for (uint256 i = 0; i < count; i++) {... */\n      iszero\n      tag_338\n      jumpi\n        /* \"contracts/roy.sol\":9508:9512  refs */\n      dup3\n        /* \"contracts/roy.sol\":9513:9514  i */\n      dup2\n        /* \"contracts/roy.sol\":9508:9515  refs[i] */\n      dup2\n      sload\n      dup2\n      lt\n      tag_341\n      jumpi\n      tag_341\n      tag_168\n      jump\t// in\n    tag_341:\n      0x00\n      swap2\n      dup3\n      mstore\n      0x20\n      swap1\n      swap2\n      keccak256\n      0x03\n      swap1\n      swap2\n      mul\n      add\n        /* \"contracts/roy.sol\":9508:9531  refs[i].referralAddress */\n      sload\n        /* \"contracts/roy.sol\":9485:9505  referralAddresses[i] */\n      dup7\n      mload\n      sub(shl(0xa0, 0x01), 0x01)\n        /* \"contracts/roy.sol\":9508:9531  refs[i].referralAddress */\n      swap1\n      swap2\n      and\n      swap1\n        /* \"contracts/roy.sol\":9485:9502  referralAddresses */\n      dup8\n      swap1\n        /* \"contracts/roy.sol\":9503:9504  i */\n      dup4\n      swap1\n        /* \"contracts/roy.sol\":9485:9505  referralAddresses[i] */\n      dup2\n      lt\n      tag_344\n      jumpi\n      tag_344\n      tag_168\n      jump\t// in\n    tag_344:\n      0x20\n      mul\n      0x20\n      add\n      add\n        /* \"contracts/roy.sol\":9485:9531  referralAddresses[i] = refs[i].referralAddress */\n      swap1\n      sub(shl(0xa0, 0x01), 0x01)\n      and\n      swap1\n      dup2\n      sub(shl(0xa0, 0x01), 0x01)\n      and\n      dup2\n      mstore\n      pop\n      pop\n        /* \"contracts/roy.sol\":9559:9563  refs */\n      dup3\n        /* \"contracts/roy.sol\":9564:9565  i */\n      dup2\n        /* \"contracts/roy.sol\":9559:9566  refs[i] */\n      dup2\n      sload\n      dup2\n      lt\n      tag_346\n      jumpi\n      tag_346\n      tag_168\n      jump\t// in\n    tag_346:\n      swap1\n      0x00\n      mstore\n      keccak256(0x00, 0x20)\n      swap1\n      0x03\n      mul\n      add\n        /* \"contracts/roy.sol\":9559:9579  refs[i].incomeEarned */\n      0x01\n      add\n      sload\n        /* \"contracts/roy.sol\":9546:9553  incomes */\n      dup6\n        /* \"contracts/roy.sol\":9554:9555  i */\n      dup3\n        /* \"contracts/roy.sol\":9546:9556  incomes[i] */\n      dup2\n      mload\n      dup2\n      lt\n      tag_349\n      jumpi\n      tag_349\n      tag_168\n      jump\t// in\n    tag_349:\n      0x20\n      mul\n      0x20\n      add\n      add\n        /* \"contracts/roy.sol\":9546:9579  incomes[i] = refs[i].incomeEarned */\n      dup2\n      dup2\n      mstore\n      pop\n      pop\n        /* \"contracts/roy.sol\":9610:9614  refs */\n      dup3\n        /* \"contracts/roy.sol\":9615:9616  i */\n      dup2\n        /* \"contracts/roy.sol\":9610:9617  refs[i] */\n      dup2\n      sload\n      dup2\n      lt\n      tag_351\n      jumpi\n      tag_351\n      tag_168\n      jump\t// in\n    tag_351:\n      swap1\n      0x00\n      mstore\n      keccak256(0x00, 0x20)\n      swap1\n      0x03\n      mul\n      add\n        /* \"contracts/roy.sol\":9610:9627  refs[i].timestamp */\n      0x02\n      add\n      sload\n        /* \"contracts/roy.sol\":9594:9604  timestamps */\n      dup5\n        /* \"contracts/roy.sol\":9605:9606  i */\n      dup3\n        /* \"contracts/roy.sol\":9594:9607  timestamps[i] */\n      dup2\n      mload\n      dup2\n      lt\n      tag_354\n      jumpi\n      tag_354\n      tag_168\n      jump\t// in\n    tag_354:\n      0x20\n      swap1\n      dup2\n      mul\n      swap2\n      swap1\n      swap2\n      add\n      add\n        /* \"contracts/roy.sol\":9594:9627  timestamps[i] = refs[i].timestamp */\n      mstore\n        /* \"contracts/roy.sol\":9465:9468  i++ */\n      0x01\n      add\n        /* \"contracts/roy.sol\":9434:9639  for (uint256 i = 0; i < count; i++) {... */\n      jump(tag_337)\n    tag_338:\n      pop\n        /* \"contracts/roy.sol\":9651:9698  return (referralAddresses, incomes, timestamps) */\n      pop\n      pop\n        /* \"contracts/roy.sol\":8987:9706  function getReferralIncomeDetails(address user) external view returns (... */\n      swap2\n      swap4\n      swap1\n      swap3\n      pop\n      jump\t// out\n        /* \"contracts/roy.sol\":1754:1779  address[] public allUsers */\n    tag_103:\n      0x08\n      dup2\n      dup2\n      sload\n      dup2\n      lt\n      tag_355\n      jumpi\n      0x00\n      dup1\n      revert\n    tag_355:\n      0x00\n      swap2\n      dup3\n      mstore\n      0x20\n      swap1\n      swap2\n      keccak256\n      add\n      sload\n      sub(shl(0xa0, 0x01), 0x01)\n      and\n      swap1\n      pop\n      dup2\n      jump\t// out\n        /* \"contracts/roy.sol\":4528:5081  function getEstimatedReturn(uint256 amount, uint256 numDays) external view returns (uint256 interest, uint256 totalReturn) {... */\n    tag_120:\n        /* \"contracts/roy.sol\":4612:4628  uint256 interest */\n      0x00\n        /* \"contracts/roy.sol\":4630:4649  uint256 totalReturn */\n      dup1\n        /* \"contracts/roy.sol\":4675:4676  0 */\n      0x00\n        /* \"contracts/roy.sol\":4666:4672  amount */\n      dup5\n        /* \"contracts/roy.sol\":4666:4676  amount > 0 */\n      gt\n        /* \"contracts/roy.sol\":4658:4710  require(amount > 0, \"Amount must be greater than 0\") */\n      tag_359\n      jumpi\n      mload(0x40)\n      shl(0xe5, 0x461bcd)\n      dup2\n      mstore\n        /* \"#utility.yul\":15973:15975   */\n      0x20\n        /* \"contracts/roy.sol\":4658:4710  require(amount > 0, \"Amount must be greater than 0\") */\n      0x04\n      dup3\n      add\n        /* \"#utility.yul\":15955:15976   */\n      mstore\n        /* \"#utility.yul\":16012:16014   */\n      0x1d\n        /* \"#utility.yul\":15992:16010   */\n      0x24\n      dup3\n      add\n        /* \"#utility.yul\":15985:16015   */\n      mstore\n        /* \"#utility.yul\":16051:16082   */\n      0x416d6f756e74206d7573742062652067726561746572207468616e2030000000\n        /* \"#utility.yul\":16031:16049   */\n      0x44\n      dup3\n      add\n        /* \"#utility.yul\":16024:16083   */\n      mstore\n        /* \"#utility.yul\":16100:16118   */\n      0x64\n      add\n        /* \"contracts/roy.sol\":4658:4710  require(amount > 0, \"Amount must be greater than 0\") */\n      tag_174\n        /* \"#utility.yul\":15771:16124   */\n      jump\n        /* \"contracts/roy.sol\":4658:4710  require(amount > 0, \"Amount must be greater than 0\") */\n    tag_359:\n        /* \"contracts/roy.sol\":4747:4748  0 */\n      0x00\n        /* \"contracts/roy.sol\":4725:4744  stakingAPY[numDays] */\n      dup4\n      dup2\n      mstore\n        /* \"contracts/roy.sol\":4725:4735  stakingAPY */\n      0x06\n        /* \"contracts/roy.sol\":4725:4744  stakingAPY[numDays] */\n      0x20\n      mstore\n      0x40\n      swap1\n      keccak256\n      sload\n        /* \"contracts/roy.sol\":4717:4777  require(stakingAPY[numDays] > 0, \"Invalid staking duration\") */\n      tag_362\n      jumpi\n      mload(0x40)\n      shl(0xe5, 0x461bcd)\n      dup2\n      mstore\n        /* \"#utility.yul\":13673:13675   */\n      0x20\n        /* \"contracts/roy.sol\":4717:4777  require(stakingAPY[numDays] > 0, \"Invalid staking duration\") */\n      0x04\n      dup3\n      add\n        /* \"#utility.yul\":13655:13676   */\n      mstore\n        /* \"#utility.yul\":13712:13714   */\n      0x18\n        /* \"#utility.yul\":13692:13710   */\n      0x24\n      dup3\n      add\n        /* \"#utility.yul\":13685:13715   */\n      mstore\n      shl(0x41, 0x24b73b30b634b21039ba30b5b4b73390323ab930ba34b7b7)\n        /* \"#utility.yul\":13731:13749   */\n      0x44\n      dup3\n      add\n        /* \"#utility.yul\":13724:13778   */\n      mstore\n        /* \"#utility.yul\":13795:13813   */\n      0x64\n      add\n        /* \"contracts/roy.sol\":4717:4777  require(stakingAPY[numDays] > 0, \"Invalid staking duration\") */\n      tag_174\n        /* \"#utility.yul\":13471:13819   */\n      jump\n        /* \"contracts/roy.sol\":4717:4777  require(stakingAPY[numDays] > 0, \"Invalid staking duration\") */\n    tag_362:\n        /* \"contracts/roy.sol\":4786:4797  uint256 apy */\n      0x00\n        /* \"contracts/roy.sol\":4800:4819  stakingAPY[numDays] */\n      dup4\n      dup2\n      mstore\n        /* \"contracts/roy.sol\":4800:4810  stakingAPY */\n      0x06\n        /* \"contracts/roy.sol\":4800:4819  stakingAPY[numDays] */\n      0x20\n      mstore\n      0x40\n      swap1\n      keccak256\n      sload\n        /* \"contracts/roy.sol\":4938:4947  100 * 365 */\n      0x8e94\n        /* \"contracts/roy.sol\":4811:4818  numDays */\n      dup5\n        /* \"contracts/roy.sol\":4911:4923  amount * apy */\n      tag_364\n        /* \"contracts/roy.sol\":4800:4819  stakingAPY[numDays] */\n      dup4\n        /* \"contracts/roy.sol\":4911:4917  amount */\n      dup9\n        /* \"contracts/roy.sol\":4911:4923  amount * apy */\n      tag_196\n      jump\t// in\n    tag_364:\n        /* \"contracts/roy.sol\":4911:4933  amount * apy * numDays */\n      tag_365\n      swap2\n      swap1\n      tag_196\n      jump\t// in\n    tag_365:\n        /* \"contracts/roy.sol\":4910:4948  (amount * apy * numDays) / (100 * 365) */\n      tag_366\n      swap2\n      swap1\n      tag_193\n      jump\t// in\n    tag_366:\n        /* \"contracts/roy.sol\":4899:4948  interest = (amount * apy * numDays) / (100 * 365) */\n      swap3\n      pop\n        /* \"contracts/roy.sol\":5021:5038  amount + interest */\n      tag_367\n        /* \"contracts/roy.sol\":4899:4948  interest = (amount * apy * numDays) / (100 * 365) */\n      dup4\n        /* \"contracts/roy.sol\":5021:5027  amount */\n      dup7\n        /* \"contracts/roy.sol\":5021:5038  amount + interest */\n      tag_204\n      jump\t// in\n    tag_367:\n        /* \"contracts/roy.sol\":5007:5038  totalReturn = amount + interest */\n      swap2\n      pop\n        /* \"contracts/roy.sol\":5047:5077  return (interest, totalReturn) */\n      pop\n        /* \"contracts/roy.sol\":4528:5081  function getEstimatedReturn(uint256 amount, uint256 numDays) external view returns (uint256 interest, uint256 totalReturn) {... */\n      swap3\n      pop\n      swap3\n      swap1\n      pop\n      jump\t// out\n        /* \"contracts/roy.sol\":1786:1832  uint8[5] public levelRewards = [5, 3, 2, 1, 1] */\n    tag_138:\n      0x09\n      dup2\n      0x05\n      dup2\n      lt\n      tag_371\n      jumpi\n      0x00\n      dup1\n      revert\n    tag_371:\n      0x20\n      swap2\n      dup3\n      dup3\n      div\n      add\n      swap2\n      swap1\n      mod\n      swap2\n      pop\n      sload\n      swap1\n      0x0100\n      exp\n      swap1\n      div\n      0xff\n      and\n      dup2\n      jump\t// out\n        /* \"contracts/roy.sol\":10235:12169  function getLevelIncomeDistribution(address _user) external view returns (LevelIncomeData[] memory) {... */\n    tag_142:\n        /* \"contracts/roy.sol\":10309:10333  LevelIncomeData[] memory */\n      0x60\n        /* \"contracts/roy.sol\":10346:10364  uint256 totalCount */\n      0x00\n        /* \"contracts/roy.sol\":10386:10395  uint256 i */\n      dup1\n        /* \"contracts/roy.sol\":10381:10870  for (uint256 i = 0; i < allUsers.length; i++) {... */\n    tag_374:\n        /* \"contracts/roy.sol\":10405:10413  allUsers */\n      0x08\n        /* \"contracts/roy.sol\":10405:10420  allUsers.length */\n      sload\n        /* \"contracts/roy.sol\":10401:10420  i < allUsers.length */\n      dup2\n      lt\n        /* \"contracts/roy.sol\":10381:10870  for (uint256 i = 0; i < allUsers.length; i++) {... */\n      iszero\n      tag_375\n      jumpi\n        /* \"contracts/roy.sol\":10442:10456  address staker */\n      0x00\n        /* \"contracts/roy.sol\":10459:10467  allUsers */\n      0x08\n        /* \"contracts/roy.sol\":10468:10469  i */\n      dup3\n        /* \"contracts/roy.sol\":10459:10470  allUsers[i] */\n      dup2\n      sload\n      dup2\n      lt\n      tag_378\n      jumpi\n      tag_378\n      tag_168\n      jump\t// in\n    tag_378:\n      0x00\n      swap2\n      dup3\n      mstore\n      0x20\n      dup1\n      dup4\n      keccak256\n      swap1\n      swap2\n      add\n      sload\n      sub(shl(0xa0, 0x01), 0x01)\n      and\n        /* \"contracts/roy.sol\":10509:10522  users[staker] */\n      dup1\n      dup4\n      mstore\n        /* \"contracts/roy.sol\":10509:10514  users */\n      0x03\n        /* \"contracts/roy.sol\":10509:10522  users[staker] */\n      dup3\n      mstore\n      0x40\n      dup1\n      dup5\n      keccak256\n        /* \"contracts/roy.sol\":10459:10470  allUsers[i] */\n      0x01\n        /* \"contracts/roy.sol\":10509:10529  users[staker].stakes */\n      add\n        /* \"contracts/roy.sol\":10485:10529  Stake[] memory stakes = users[staker].stakes */\n      dup1\n      sload\n      dup3\n      mload\n      dup2\n      dup7\n      mul\n      dup2\n      add\n      dup7\n      add\n      swap1\n      swap4\n      mstore\n      dup1\n      dup4\n      mstore\n        /* \"contracts/roy.sol\":10459:10470  allUsers[i] */\n      swap3\n      swap6\n      pop\n        /* \"contracts/roy.sol\":10485:10529  Stake[] memory stakes = users[staker].stakes */\n      swap1\n      swap3\n        /* \"contracts/roy.sol\":10509:10529  users[staker].stakes */\n      swap1\n      swap2\n        /* \"contracts/roy.sol\":10485:10529  Stake[] memory stakes = users[staker].stakes */\n      swap1\n        /* \"contracts/roy.sol\":10459:10470  allUsers[i] */\n      dup5\n      swap1\n        /* \"contracts/roy.sol\":10485:10529  Stake[] memory stakes = users[staker].stakes */\n      dup5\n      add\n    tag_380:\n      dup3\n      dup3\n      lt\n      iszero\n      tag_381\n      jumpi\n      0x00\n      dup5\n      dup2\n      mstore\n      0x20\n      swap1\n      dup2\n      swap1\n      keccak256\n      0x40\n      dup1\n      mload\n      0xc0\n      dup2\n      add\n      dup3\n      mstore\n      0x06\n      dup7\n      mul\n      swap1\n      swap3\n      add\n      dup1\n      sload\n      dup4\n      mstore\n      0x01\n      dup1\n      dup3\n      add\n      sload\n      dup5\n      dup7\n      add\n      mstore\n      0x02\n      dup3\n      add\n      sload\n      swap3\n      dup5\n      add\n      swap3\n      swap1\n      swap3\n      mstore\n      0x03\n      dup2\n      add\n      sload\n      0x60\n      dup5\n      add\n      mstore\n      0x04\n      dup2\n      add\n      sload\n      0x80\n      dup5\n      add\n      mstore\n      0x05\n      add\n      sload\n      0xff\n      and\n      iszero\n      iszero\n      0xa0\n      dup4\n      add\n      mstore\n      swap1\n      dup4\n      mstore\n      swap1\n      swap3\n      add\n      swap2\n      add\n      jump(tag_380)\n    tag_381:\n      pop\n      pop\n      pop\n      pop\n      sub(shl(0xa0, 0x01), 0x01)\n        /* \"contracts/roy.sol\":10561:10574  users[staker] */\n      dup4\n      dup2\n      and\n        /* \"contracts/roy.sol\":10544:10558  address upline */\n      0x00\n        /* \"contracts/roy.sol\":10561:10574  users[staker] */\n      swap1\n      dup2\n      mstore\n        /* \"contracts/roy.sol\":10561:10566  users */\n      0x03\n        /* \"contracts/roy.sol\":10561:10574  users[staker] */\n      0x20\n      mstore\n      0x40\n      dup2\n      keccak256\n        /* \"contracts/roy.sol\":10561:10583  users[staker].referrer */\n      sload\n        /* \"contracts/roy.sol\":10485:10529  Stake[] memory stakes = users[staker].stakes */\n      swap3\n      swap4\n      pop\n        /* \"contracts/roy.sol\":10561:10583  users[staker].referrer */\n      swap2\n      and\n      swap1\n        /* \"contracts/roy.sol\":10600:10859  for (uint8 level = 0; level < levelRewards.length && upline != address(0); level++) {... */\n    tag_383:\n        /* \"contracts/roy.sol\":10630:10649  levelRewards.length */\n      0x05\n        /* \"contracts/roy.sol\":10622:10627  level */\n      dup2\n        /* \"contracts/roy.sol\":10622:10649  level < levelRewards.length */\n      0xff\n      and\n      lt\n        /* \"contracts/roy.sol\":10622:10673  level < levelRewards.length && upline != address(0) */\n      dup1\n      iszero\n      tag_386\n      jumpi\n      pop\n      sub(shl(0xa0, 0x01), 0x01)\n        /* \"contracts/roy.sol\":10653:10673  upline != address(0) */\n      dup3\n      and\n      iszero\n      iszero\n        /* \"contracts/roy.sol\":10622:10673  level < levelRewards.length && upline != address(0) */\n    tag_386:\n        /* \"contracts/roy.sol\":10600:10859  for (uint8 level = 0; level < levelRewards.length && upline != address(0); level++) {... */\n      iszero\n      tag_384\n      jumpi\n        /* \"contracts/roy.sol\":10717:10722  _user */\n      dup8\n      sub(shl(0xa0, 0x01), 0x01)\n        /* \"contracts/roy.sol\":10707:10722  upline == _user */\n      and\n        /* \"contracts/roy.sol\":10707:10713  upline */\n      dup3\n      sub(shl(0xa0, 0x01), 0x01)\n        /* \"contracts/roy.sol\":10707:10722  upline == _user */\n      and\n      sub\n        /* \"contracts/roy.sol\":10703:10794  if (upline == _user) {... */\n      tag_387\n      jumpi\n        /* \"contracts/roy.sol\":10761:10774  stakes.length */\n      dup3\n      mload\n        /* \"contracts/roy.sol\":10747:10774  totalCount += stakes.length */\n      tag_388\n      swap1\n      dup8\n      tag_204\n      jump\t// in\n    tag_388:\n      swap6\n      pop\n        /* \"contracts/roy.sol\":10703:10794  if (upline == _user) {... */\n    tag_387:\n      sub(shl(0xa0, 0x01), 0x01)\n        /* \"contracts/roy.sol\":10821:10834  users[upline] */\n      swap2\n      dup3\n      and\n      0x00\n      swap1\n      dup2\n      mstore\n        /* \"contracts/roy.sol\":10821:10826  users */\n      0x03\n        /* \"contracts/roy.sol\":10821:10834  users[upline] */\n      0x20\n      mstore\n      0x40\n      swap1\n      keccak256\n        /* \"contracts/roy.sol\":10821:10843  users[upline].referrer */\n      sload\n      swap1\n      swap2\n      and\n      swap1\n        /* \"contracts/roy.sol\":10675:10682  level++ */\n      dup1\n      tag_389\n      dup2\n      tag_324\n      jump\t// in\n    tag_389:\n      swap2\n      pop\n      pop\n        /* \"contracts/roy.sol\":10600:10859  for (uint8 level = 0; level < levelRewards.length && upline != address(0); level++) {... */\n      jump(tag_383)\n    tag_384:\n      pop\n      pop\n        /* \"contracts/roy.sol\":10422:10425  i++ */\n      0x01\n      swap1\n      swap3\n      add\n      swap2\n      pop\n        /* \"contracts/roy.sol\":10381:10870  for (uint256 i = 0; i < allUsers.length; i++) {... */\n      tag_374\n      swap1\n      pop\n      jump\n    tag_375:\n      pop\n        /* \"contracts/roy.sol\":10882:10917  LevelIncomeData[] memory incomeData */\n      0x00\n        /* \"contracts/roy.sol\":10942:10952  totalCount */\n      dup2\n        /* \"contracts/roy.sol\":10920:10953  new LevelIncomeData[](totalCount) */\n      0xffffffffffffffff\n      dup2\n      gt\n      iszero\n      tag_391\n      jumpi\n      tag_391\n      tag_161\n      jump\t// in\n    tag_391:\n      mload(0x40)\n      swap1\n      dup1\n      dup3\n      mstore\n      dup1\n      0x20\n      mul\n      0x20\n      add\n      dup3\n      add\n      0x40\n      mstore\n      dup1\n      iszero\n      tag_392\n      jumpi\n      dup2\n      0x20\n      add\n    tag_393:\n      tag_394\n      mload(0x40)\n      dup1\n      0xe0\n      add\n      0x40\n      mstore\n      dup1\n      and(sub(shl(0xa0, 0x01), 0x01), 0x00)\n      dup2\n      mstore\n      0x20\n      add\n      0x00\n      dup2\n      mstore\n      0x20\n      add\n      0x00\n      dup2\n      mstore\n      0x20\n      add\n      0x00\n      dup2\n      mstore\n      0x20\n      add\n      and(sub(shl(0xa0, 0x01), 0x01), 0x00)\n      dup2\n      mstore\n      0x20\n      add\n      0x00\n      dup2\n      mstore\n      0x20\n      add\n      and(0xff, 0x00)\n      dup2\n      mstore\n      pop\n      swap1\n      jump\n    tag_394:\n      dup2\n      mstore\n      0x20\n      add\n      swap1\n      0x01\n      swap1\n      sub\n      swap1\n      dup2\n      tag_393\n      jumpi\n      swap1\n      pop\n    tag_392:\n      pop\n        /* \"contracts/roy.sol\":10882:10953  LevelIncomeData[] memory incomeData = new LevelIncomeData[](totalCount) */\n      swap1\n      pop\n        /* \"contracts/roy.sol\":10964:10977  uint256 index */\n      0x00\n        /* \"contracts/roy.sol\":10999:11008  uint256 i */\n      dup1\n        /* \"contracts/roy.sol\":10994:12132  for (uint256 i = 0; i < allUsers.length; i++) {... */\n    tag_396:\n        /* \"contracts/roy.sol\":11018:11026  allUsers */\n      0x08\n        /* \"contracts/roy.sol\":11018:11033  allUsers.length */\n      sload\n        /* \"contracts/roy.sol\":11014:11033  i < allUsers.length */\n      dup2\n      lt\n        /* \"contracts/roy.sol\":10994:12132  for (uint256 i = 0; i < allUsers.length; i++) {... */\n      iszero\n      tag_397\n      jumpi\n        /* \"contracts/roy.sol\":11055:11069  address staker */\n      0x00\n        /* \"contracts/roy.sol\":11072:11080  allUsers */\n      0x08\n        /* \"contracts/roy.sol\":11081:11082  i */\n      dup3\n        /* \"contracts/roy.sol\":11072:11083  allUsers[i] */\n      dup2\n      sload\n      dup2\n      lt\n      tag_400\n      jumpi\n      tag_400\n      tag_168\n      jump\t// in\n    tag_400:\n      0x00\n      swap2\n      dup3\n      mstore\n      0x20\n      dup1\n      dup4\n      keccak256\n      swap1\n      swap2\n      add\n      sload\n      sub(shl(0xa0, 0x01), 0x01)\n      and\n        /* \"contracts/roy.sol\":11122:11135  users[staker] */\n      dup1\n      dup4\n      mstore\n        /* \"contracts/roy.sol\":11122:11127  users */\n      0x03\n        /* \"contracts/roy.sol\":11122:11135  users[staker] */\n      dup3\n      mstore\n      0x40\n      dup1\n      dup5\n      keccak256\n        /* \"contracts/roy.sol\":11072:11083  allUsers[i] */\n      0x01\n        /* \"contracts/roy.sol\":11122:11142  users[staker].stakes */\n      add\n        /* \"contracts/roy.sol\":11098:11142  Stake[] memory stakes = users[staker].stakes */\n      dup1\n      sload\n      dup3\n      mload\n      dup2\n      dup7\n      mul\n      dup2\n      add\n      dup7\n      add\n      swap1\n      swap4\n      mstore\n      dup1\n      dup4\n      mstore\n        /* \"contracts/roy.sol\":11072:11083  allUsers[i] */\n      swap3\n      swap6\n      pop\n        /* \"contracts/roy.sol\":11098:11142  Stake[] memory stakes = users[staker].stakes */\n      swap1\n      swap3\n        /* \"contracts/roy.sol\":11122:11142  users[staker].stakes */\n      swap1\n      swap2\n        /* \"contracts/roy.sol\":11098:11142  Stake[] memory stakes = users[staker].stakes */\n      swap1\n        /* \"contracts/roy.sol\":11072:11083  allUsers[i] */\n      dup5\n      swap1\n        /* \"contracts/roy.sol\":11098:11142  Stake[] memory stakes = users[staker].stakes */\n      dup5\n      add\n    tag_402:\n      dup3\n      dup3\n      lt\n      iszero\n      tag_403\n      jumpi\n      0x00\n      dup5\n      dup2\n      mstore\n      0x20\n      swap1\n      dup2\n      swap1\n      keccak256\n      0x40\n      dup1\n      mload\n      0xc0\n      dup2\n      add\n      dup3\n      mstore\n      0x06\n      dup7\n      mul\n      swap1\n      swap3\n      add\n      dup1\n      sload\n      dup4\n      mstore\n      0x01\n      dup1\n      dup3\n      add\n      sload\n      dup5\n      dup7\n      add\n      mstore\n      0x02\n      dup3\n      add\n      sload\n      swap3\n      dup5\n      add\n      swap3\n      swap1\n      swap3\n      mstore\n      0x03\n      dup2\n      add\n      sload\n      0x60\n      dup5\n      add\n      mstore\n      0x04\n      dup2\n      add\n      sload\n      0x80\n      dup5\n      add\n      mstore\n      0x05\n      add\n      sload\n      0xff\n      and\n      iszero\n      iszero\n      0xa0\n      dup4\n      add\n      mstore\n      swap1\n      dup4\n      mstore\n      swap1\n      swap3\n      add\n      swap2\n      add\n      jump(tag_402)\n    tag_403:\n      pop\n      pop\n      pop\n      pop\n      sub(shl(0xa0, 0x01), 0x01)\n        /* \"contracts/roy.sol\":11174:11187  users[staker] */\n      dup4\n      dup2\n      and\n        /* \"contracts/roy.sol\":11157:11171  address upline */\n      0x00\n        /* \"contracts/roy.sol\":11174:11187  users[staker] */\n      swap1\n      dup2\n      mstore\n        /* \"contracts/roy.sol\":11174:11179  users */\n      0x03\n        /* \"contracts/roy.sol\":11174:11187  users[staker] */\n      0x20\n      mstore\n      0x40\n      dup2\n      keccak256\n        /* \"contracts/roy.sol\":11174:11196  users[staker].referrer */\n      sload\n        /* \"contracts/roy.sol\":11098:11142  Stake[] memory stakes = users[staker].stakes */\n      swap3\n      swap4\n      pop\n        /* \"contracts/roy.sol\":11174:11196  users[staker].referrer */\n      swap2\n      and\n      swap1\n        /* \"contracts/roy.sol\":11213:12121  for (uint8 level = 0; level < levelRewards.length && upline != address(0); level++) {... */\n    tag_405:\n        /* \"contracts/roy.sol\":11243:11262  levelRewards.length */\n      0x05\n        /* \"contracts/roy.sol\":11235:11240  level */\n      dup2\n        /* \"contracts/roy.sol\":11235:11262  level < levelRewards.length */\n      0xff\n      and\n      lt\n        /* \"contracts/roy.sol\":11235:11286  level < levelRewards.length && upline != address(0) */\n      dup1\n      iszero\n      tag_408\n      jumpi\n      pop\n      sub(shl(0xa0, 0x01), 0x01)\n        /* \"contracts/roy.sol\":11266:11286  upline != address(0) */\n      dup3\n      and\n      iszero\n      iszero\n        /* \"contracts/roy.sol\":11235:11286  level < levelRewards.length && upline != address(0) */\n    tag_408:\n        /* \"contracts/roy.sol\":11213:12121  for (uint8 level = 0; level < levelRewards.length && upline != address(0); level++) {... */\n      iszero\n      tag_406\n      jumpi\n        /* \"contracts/roy.sol\":11330:11335  _user */\n      dup10\n      sub(shl(0xa0, 0x01), 0x01)\n        /* \"contracts/roy.sol\":11320:11335  upline == _user */\n      and\n        /* \"contracts/roy.sol\":11320:11326  upline */\n      dup3\n      sub(shl(0xa0, 0x01), 0x01)\n        /* \"contracts/roy.sol\":11320:11335  upline == _user */\n      and\n      sub\n        /* \"contracts/roy.sol\":11316:12056  if (upline == _user) {... */\n      tag_409\n      jumpi\n        /* \"contracts/roy.sol\":11365:11374  uint256 j */\n      0x00\n        /* \"contracts/roy.sol\":11360:12037  for (uint256 j = 0; j < stakes.length; j++) {... */\n    tag_410:\n        /* \"contracts/roy.sol\":11384:11390  stakes */\n      dup4\n        /* \"contracts/roy.sol\":11384:11397  stakes.length */\n      mload\n        /* \"contracts/roy.sol\":11380:11381  j */\n      dup2\n        /* \"contracts/roy.sol\":11380:11397  j < stakes.length */\n      lt\n        /* \"contracts/roy.sol\":11360:12037  for (uint256 j = 0; j < stakes.length; j++) {... */\n      iszero\n      tag_411\n      jumpi\n        /* \"contracts/roy.sol\":11431:11449  Stake memory stake */\n      0x00\n        /* \"contracts/roy.sol\":11452:11458  stakes */\n      dup5\n        /* \"contracts/roy.sol\":11459:11460  j */\n      dup3\n        /* \"contracts/roy.sol\":11452:11461  stakes[j] */\n      dup2\n      mload\n      dup2\n      lt\n      tag_414\n      jumpi\n      tag_414\n      tag_168\n      jump\t// in\n    tag_414:\n      0x20\n      mul\n      0x20\n      add\n      add\n      mload\n        /* \"contracts/roy.sol\":11431:11461  Stake memory stake = stakes[j] */\n      swap1\n      pop\n        /* \"contracts/roy.sol\":11488:11502  uint256 income */\n      0x00\n        /* \"contracts/roy.sol\":11544:11547  100 */\n      0x64\n        /* \"contracts/roy.sol\":11521:11533  levelRewards */\n      0x09\n        /* \"contracts/roy.sol\":11534:11539  level */\n      dup6\n        /* \"contracts/roy.sol\":11521:11540  levelRewards[level] */\n      0xff\n      and\n      0x05\n      dup2\n      lt\n      tag_416\n      jumpi\n      tag_416\n      tag_168\n      jump\t// in\n    tag_416:\n      0x20\n      swap2\n      dup3\n      dup3\n      div\n      add\n      swap2\n      swap1\n      mod\n      swap1\n      sload\n      swap1\n      0x0100\n      exp\n      swap1\n      div\n      0xff\n      and\n        /* \"contracts/roy.sol\":11506:11540  stake.amount * levelRewards[level] */\n      0xff\n      and\n        /* \"contracts/roy.sol\":11506:11511  stake */\n      dup4\n        /* \"contracts/roy.sol\":11506:11518  stake.amount */\n      0x40\n      add\n      mload\n        /* \"contracts/roy.sol\":11506:11540  stake.amount * levelRewards[level] */\n      tag_418\n      swap2\n      swap1\n      tag_196\n      jump\t// in\n    tag_418:\n        /* \"contracts/roy.sol\":11505:11547  (stake.amount * levelRewards[level]) / 100 */\n      tag_419\n      swap2\n      swap1\n      tag_193\n      jump\t// in\n    tag_419:\n        /* \"contracts/roy.sol\":11488:11547  uint256 income = (stake.amount * levelRewards[level]) / 100 */\n      swap1\n      pop\n        /* \"contracts/roy.sol\":11598:12013  LevelIncomeData({... */\n      mload(0x40)\n      dup1\n      0xe0\n      add\n      0x40\n      mstore\n      dup1\n        /* \"contracts/roy.sol\":11662:11667  _user */\n      dup15\n      sub(shl(0xa0, 0x01), 0x01)\n        /* \"contracts/roy.sol\":11598:12013  LevelIncomeData({... */\n      and\n      dup2\n      mstore\n      0x20\n      add\n        /* \"contracts/roy.sol\":11707:11712  stake */\n      dup4\n        /* \"contracts/roy.sol\":11707:11720  stake.stakeId */\n      0x00\n      add\n      mload\n        /* \"contracts/roy.sol\":11598:12013  LevelIncomeData({... */\n      dup2\n      mstore\n      0x20\n      add\n        /* \"contracts/roy.sol\":11764:11769  stake */\n      dup4\n        /* \"contracts/roy.sol\":11764:11776  stake.amount */\n      0x40\n      add\n      mload\n        /* \"contracts/roy.sol\":11598:12013  LevelIncomeData({... */\n      dup2\n      mstore\n      0x20\n      add\n        /* \"contracts/roy.sol\":11823:11829  income */\n      dup3\n        /* \"contracts/roy.sol\":11598:12013  LevelIncomeData({... */\n      dup2\n      mstore\n      0x20\n      add\n        /* \"contracts/roy.sol\":11875:11881  staker */\n      dup9\n      sub(shl(0xa0, 0x01), 0x01)\n        /* \"contracts/roy.sol\":11598:12013  LevelIncomeData({... */\n      and\n      dup2\n      mstore\n      0x20\n      add\n        /* \"contracts/roy.sol\":11923:11928  stake */\n      dup4\n        /* \"contracts/roy.sol\":11923:11938  stake.timestamp */\n      0x60\n      add\n      mload\n        /* \"contracts/roy.sol\":11598:12013  LevelIncomeData({... */\n      dup2\n      mstore\n      0x20\n      add\n        /* \"contracts/roy.sol\":11976:11981  level */\n      dup6\n        /* \"contracts/roy.sol\":11984:11985  1 */\n      0x01\n        /* \"contracts/roy.sol\":11976:11985  level + 1 */\n      tag_420\n      swap2\n      swap1\n      tag_421\n      jump\t// in\n    tag_420:\n        /* \"contracts/roy.sol\":11598:12013  LevelIncomeData({... */\n      0xff\n      and\n      swap1\n      mstore\n        /* \"contracts/roy.sol\":11576:11586  incomeData */\n      dup11\n        /* \"contracts/roy.sol\":11587:11594  index++ */\n      dup11\n      tag_422\n      dup2\n      tag_281\n      jump\t// in\n    tag_422:\n      swap12\n      pop\n        /* \"contracts/roy.sol\":11576:11595  incomeData[index++] */\n      dup2\n      mload\n      dup2\n      lt\n      tag_424\n      jumpi\n      tag_424\n      tag_168\n      jump\t// in\n    tag_424:\n      0x20\n      swap1\n      dup2\n      mul\n      swap2\n      swap1\n      swap2\n      add\n      add\n        /* \"contracts/roy.sol\":11576:12013  incomeData[index++] = LevelIncomeData({... */\n      mstore\n      pop\n      pop\n        /* \"contracts/roy.sol\":11399:11402  j++ */\n      0x01\n      add\n        /* \"contracts/roy.sol\":11360:12037  for (uint256 j = 0; j < stakes.length; j++) {... */\n      jump(tag_410)\n    tag_411:\n      pop\n        /* \"contracts/roy.sol\":11316:12056  if (upline == _user) {... */\n    tag_409:\n      sub(shl(0xa0, 0x01), 0x01)\n        /* \"contracts/roy.sol\":12083:12096  users[upline] */\n      swap2\n      dup3\n      and\n      0x00\n      swap1\n      dup2\n      mstore\n        /* \"contracts/roy.sol\":12083:12088  users */\n      0x03\n        /* \"contracts/roy.sol\":12083:12096  users[upline] */\n      0x20\n      mstore\n      0x40\n      swap1\n      keccak256\n        /* \"contracts/roy.sol\":12083:12105  users[upline].referrer */\n      sload\n      swap1\n      swap2\n      and\n      swap1\n        /* \"contracts/roy.sol\":11288:11295  level++ */\n      dup1\n      tag_425\n      dup2\n      tag_324\n      jump\t// in\n    tag_425:\n      swap2\n      pop\n      pop\n        /* \"contracts/roy.sol\":11213:12121  for (uint8 level = 0; level < levelRewards.length && upline != address(0); level++) {... */\n      jump(tag_405)\n    tag_406:\n      pop\n      pop\n        /* \"contracts/roy.sol\":11035:11038  i++ */\n      0x01\n      swap1\n      swap3\n      add\n      swap2\n      pop\n        /* \"contracts/roy.sol\":10994:12132  for (uint256 i = 0; i < allUsers.length; i++) {... */\n      tag_396\n      swap1\n      pop\n      jump\n    tag_397:\n      pop\n        /* \"contracts/roy.sol\":12151:12161  incomeData */\n      swap1\n      swap5\n        /* \"contracts/roy.sol\":10235:12169  function getLevelIncomeDistribution(address _user) external view returns (LevelIncomeData[] memory) {... */\n      swap4\n      pop\n      pop\n      pop\n      pop\n      jump\t// out\n        /* \"#utility.yul\":14:187   */\n    tag_426:\n        /* \"#utility.yul\":82:102   */\n      dup1\n      calldataload\n      sub(shl(0xa0, 0x01), 0x01)\n        /* \"#utility.yul\":131:162   */\n      dup2\n      and\n        /* \"#utility.yul\":121:163   */\n      dup2\n      eq\n        /* \"#utility.yul\":111:181   */\n      tag_431\n      jumpi\n        /* \"#utility.yul\":177:178   */\n      0x00\n        /* \"#utility.yul\":174:175   */\n      dup1\n        /* \"#utility.yul\":167:179   */\n      revert\n        /* \"#utility.yul\":111:181   */\n    tag_431:\n        /* \"#utility.yul\":14:187   */\n      swap2\n      swap1\n      pop\n      jump\t// out\n        /* \"#utility.yul\":192:446   */\n    tag_38:\n        /* \"#utility.yul\":260:266   */\n      0x00\n        /* \"#utility.yul\":268:274   */\n      dup1\n        /* \"#utility.yul\":321:323   */\n      0x40\n        /* \"#utility.yul\":309:318   */\n      dup4\n        /* \"#utility.yul\":300:307   */\n      dup6\n        /* \"#utility.yul\":296:319   */\n      sub\n        /* \"#utility.yul\":292:324   */\n      slt\n        /* \"#utility.yul\":289:341   */\n      iszero\n      tag_433\n      jumpi\n        /* \"#utility.yul\":337:338   */\n      0x00\n        /* \"#utility.yul\":334:335   */\n      dup1\n        /* \"#utility.yul\":327:339   */\n      revert\n        /* \"#utility.yul\":289:341   */\n    tag_433:\n        /* \"#utility.yul\":360:389   */\n      tag_434\n        /* \"#utility.yul\":379:388   */\n      dup4\n        /* \"#utility.yul\":360:389   */\n      tag_426\n      jump\t// in\n    tag_434:\n        /* \"#utility.yul\":350:389   */\n      swap5\n        /* \"#utility.yul\":436:438   */\n      0x20\n        /* \"#utility.yul\":421:439   */\n      swap4\n      swap1\n      swap4\n      add\n        /* \"#utility.yul\":408:440   */\n      calldataload\n      swap4\n      pop\n      pop\n      pop\n        /* \"#utility.yul\":192:446   */\n      jump\t// out\n        /* \"#utility.yul\":801:981   */\n    tag_44:\n        /* \"#utility.yul\":860:866   */\n      0x00\n        /* \"#utility.yul\":913:915   */\n      0x20\n        /* \"#utility.yul\":901:910   */\n      dup3\n        /* \"#utility.yul\":892:899   */\n      dup5\n        /* \"#utility.yul\":888:911   */\n      sub\n        /* \"#utility.yul\":884:916   */\n      slt\n        /* \"#utility.yul\":881:933   */\n      iszero\n      tag_437\n      jumpi\n        /* \"#utility.yul\":929:930   */\n      0x00\n        /* \"#utility.yul\":926:927   */\n      dup1\n        /* \"#utility.yul\":919:931   */\n      revert\n        /* \"#utility.yul\":881:933   */\n    tag_437:\n      pop\n        /* \"#utility.yul\":952:975   */\n      calldataload\n      swap2\n        /* \"#utility.yul\":801:981   */\n      swap1\n      pop\n      jump\t// out\n        /* \"#utility.yul\":1194:1380   */\n    tag_50:\n        /* \"#utility.yul\":1253:1259   */\n      0x00\n        /* \"#utility.yul\":1306:1308   */\n      0x20\n        /* \"#utility.yul\":1294:1303   */\n      dup3\n        /* \"#utility.yul\":1285:1292   */\n      dup5\n        /* \"#utility.yul\":1281:1304   */\n      sub\n        /* \"#utility.yul\":1277:1309   */\n      slt\n        /* \"#utility.yul\":1274:1326   */\n      iszero\n      tag_440\n      jumpi\n        /* \"#utility.yul\":1322:1323   */\n      0x00\n        /* \"#utility.yul\":1319:1320   */\n      dup1\n        /* \"#utility.yul\":1312:1324   */\n      revert\n        /* \"#utility.yul\":1274:1326   */\n    tag_440:\n        /* \"#utility.yul\":1345:1374   */\n      tag_441\n        /* \"#utility.yul\":1364:1373   */\n      dup3\n        /* \"#utility.yul\":1345:1374   */\n      tag_426\n      jump\t// in\n    tag_441:\n        /* \"#utility.yul\":1335:1374   */\n      swap4\n        /* \"#utility.yul\":1194:1380   */\n      swap3\n      pop\n      pop\n      pop\n      jump\t// out\n        /* \"#utility.yul\":1574:2013   */\n    tag_427:\n        /* \"#utility.yul\":1627:1630   */\n      0x00\n        /* \"#utility.yul\":1665:1670   */\n      dup2\n        /* \"#utility.yul\":1659:1671   */\n      mload\n        /* \"#utility.yul\":1692:1698   */\n      dup1\n        /* \"#utility.yul\":1687:1690   */\n      dup5\n        /* \"#utility.yul\":1680:1699   */\n      mstore\n        /* \"#utility.yul\":1718:1722   */\n      0x20\n        /* \"#utility.yul\":1747:1751   */\n      dup1\n        /* \"#utility.yul\":1742:1745   */\n      dup6\n        /* \"#utility.yul\":1738:1752   */\n      add\n        /* \"#utility.yul\":1731:1752   */\n      swap5\n      pop\n        /* \"#utility.yul\":1786:1790   */\n      0x20\n        /* \"#utility.yul\":1779:1784   */\n      dup5\n        /* \"#utility.yul\":1775:1791   */\n      add\n        /* \"#utility.yul\":1809:1810   */\n      0x00\n        /* \"#utility.yul\":1819:1988   */\n    tag_444:\n        /* \"#utility.yul\":1833:1839   */\n      dup4\n        /* \"#utility.yul\":1830:1831   */\n      dup2\n        /* \"#utility.yul\":1827:1840   */\n      lt\n        /* \"#utility.yul\":1819:1988   */\n      iszero\n      tag_446\n      jumpi\n        /* \"#utility.yul\":1894:1907   */\n      dup2\n      mload\n        /* \"#utility.yul\":1882:1908   */\n      dup8\n      mstore\n        /* \"#utility.yul\":1928:1940   */\n      swap6\n      dup3\n      add\n      swap6\n        /* \"#utility.yul\":1963:1978   */\n      swap1\n      dup3\n      add\n      swap1\n        /* \"#utility.yul\":1855:1856   */\n      0x01\n        /* \"#utility.yul\":1848:1857   */\n      add\n        /* \"#utility.yul\":1819:1988   */\n      jump(tag_444)\n    tag_446:\n      pop\n        /* \"#utility.yul\":2004:2007   */\n      swap5\n      swap6\n        /* \"#utility.yul\":1574:2013   */\n      swap5\n      pop\n      pop\n      pop\n      pop\n      pop\n      jump\t// out\n        /* \"#utility.yul\":2018:2279   */\n    tag_58:\n        /* \"#utility.yul\":2197:2199   */\n      0x20\n        /* \"#utility.yul\":2186:2195   */\n      dup2\n        /* \"#utility.yul\":2179:2200   */\n      mstore\n        /* \"#utility.yul\":2160:2164   */\n      0x00\n        /* \"#utility.yul\":2217:2273   */\n      tag_441\n        /* \"#utility.yul\":2269:2271   */\n      0x20\n        /* \"#utility.yul\":2258:2267   */\n      dup4\n        /* \"#utility.yul\":2254:2272   */\n      add\n        /* \"#utility.yul\":2246:2252   */\n      dup5\n        /* \"#utility.yul\":2217:2273   */\n      tag_427\n      jump\t// in\n        /* \"#utility.yul\":3186:3434   */\n    tag_80:\n        /* \"#utility.yul\":3254:3260   */\n      0x00\n        /* \"#utility.yul\":3262:3268   */\n      dup1\n        /* \"#utility.yul\":3315:3317   */\n      0x40\n        /* \"#utility.yul\":3303:3312   */\n      dup4\n        /* \"#utility.yul\":3294:3301   */\n      dup6\n        /* \"#utility.yul\":3290:3313   */\n      sub\n        /* \"#utility.yul\":3286:3318   */\n      slt\n        /* \"#utility.yul\":3283:3335   */\n      iszero\n      tag_452\n      jumpi\n        /* \"#utility.yul\":3331:3332   */\n      0x00\n        /* \"#utility.yul\":3328:3329   */\n      dup1\n        /* \"#utility.yul\":3321:3333   */\n      revert\n        /* \"#utility.yul\":3283:3335   */\n    tag_452:\n      pop\n      pop\n        /* \"#utility.yul\":3354:3377   */\n      dup1\n      calldataload\n      swap3\n        /* \"#utility.yul\":3424:3426   */\n      0x20\n        /* \"#utility.yul\":3409:3427   */\n      swap1\n      swap2\n      add\n        /* \"#utility.yul\":3396:3428   */\n      calldataload\n      swap2\n      pop\n        /* \"#utility.yul\":3186:3434   */\n      jump\t// out\n        /* \"#utility.yul\":3439:4480   */\n    tag_100:\n        /* \"#utility.yul\":3785:3787   */\n      0x60\n        /* \"#utility.yul\":3797:3818   */\n      dup1\n      dup3\n      mstore\n        /* \"#utility.yul\":3867:3880   */\n      dup5\n      mload\n        /* \"#utility.yul\":3770:3788   */\n      swap1\n      dup3\n      add\n        /* \"#utility.yul\":3889:3911   */\n      dup2\n      swap1\n      mstore\n        /* \"#utility.yul\":3737:3741   */\n      0x00\n      swap1\n        /* \"#utility.yul\":3965:3969   */\n      0x20\n      swap1\n        /* \"#utility.yul\":3942:3945   */\n      0x80\n        /* \"#utility.yul\":3927:3946   */\n      dup5\n      add\n      swap1\n        /* \"#utility.yul\":3992:4009   */\n      dup3\n      dup9\n      add\n        /* \"#utility.yul\":3737:3741   */\n      dup5\n        /* \"#utility.yul\":4037:4232   */\n    tag_454:\n        /* \"#utility.yul\":4051:4057   */\n      dup3\n        /* \"#utility.yul\":4048:4049   */\n      dup2\n        /* \"#utility.yul\":4045:4058   */\n      lt\n        /* \"#utility.yul\":4037:4232   */\n      iszero\n      tag_456\n      jumpi\n        /* \"#utility.yul\":4116:4129   */\n      dup2\n      mload\n      sub(shl(0xa0, 0x01), 0x01)\n        /* \"#utility.yul\":4112:4151   */\n      and\n        /* \"#utility.yul\":4100:4152   */\n      dup5\n      mstore\n        /* \"#utility.yul\":4172:4184   */\n      swap3\n      dup5\n      add\n      swap3\n        /* \"#utility.yul\":4207:4222   */\n      swap1\n      dup5\n      add\n      swap1\n        /* \"#utility.yul\":4148:4149   */\n      0x01\n        /* \"#utility.yul\":4066:4075   */\n      add\n        /* \"#utility.yul\":4037:4232   */\n      jump(tag_454)\n    tag_456:\n        /* \"#utility.yul\":4041:4044   */\n      pop\n      pop\n      pop\n        /* \"#utility.yul\":4279:4288   */\n      dup4\n        /* \"#utility.yul\":4274:4277   */\n      dup2\n        /* \"#utility.yul\":4270:4289   */\n      sub\n        /* \"#utility.yul\":4263:4267   */\n      0x20\n        /* \"#utility.yul\":4252:4261   */\n      dup6\n        /* \"#utility.yul\":4248:4268   */\n      add\n        /* \"#utility.yul\":4241:4290   */\n      mstore\n        /* \"#utility.yul\":4313:4354   */\n      tag_457\n        /* \"#utility.yul\":4350:4353   */\n      dup2\n        /* \"#utility.yul\":4342:4348   */\n      dup8\n        /* \"#utility.yul\":4313:4354   */\n      tag_427\n      jump\t// in\n    tag_457:\n        /* \"#utility.yul\":4299:4354   */\n      swap2\n      pop\n      pop\n        /* \"#utility.yul\":4402:4411   */\n      dup3\n        /* \"#utility.yul\":4394:4400   */\n      dup2\n        /* \"#utility.yul\":4390:4412   */\n      sub\n        /* \"#utility.yul\":4385:4387   */\n      0x40\n        /* \"#utility.yul\":4374:4383   */\n      dup5\n        /* \"#utility.yul\":4370:4388   */\n      add\n        /* \"#utility.yul\":4363:4413   */\n      mstore\n        /* \"#utility.yul\":4430:4474   */\n      tag_458\n        /* \"#utility.yul\":4467:4473   */\n      dup2\n        /* \"#utility.yul\":4459:4465   */\n      dup6\n        /* \"#utility.yul\":4430:4474   */\n      tag_427\n      jump\t// in\n    tag_458:\n        /* \"#utility.yul\":4422:4474   */\n      swap7\n        /* \"#utility.yul\":3439:4480   */\n      swap6\n      pop\n      pop\n      pop\n      pop\n      pop\n      pop\n      jump\t// out\n        /* \"#utility.yul\":5583:6831   */\n    tag_144:\n        /* \"#utility.yul\":5818:5820   */\n      0x20\n        /* \"#utility.yul\":5870:5891   */\n      dup1\n      dup3\n      mstore\n        /* \"#utility.yul\":5940:5953   */\n      dup3\n      mload\n        /* \"#utility.yul\":5843:5861   */\n      dup3\n      dup3\n      add\n        /* \"#utility.yul\":5962:5984   */\n      dup2\n      swap1\n      mstore\n        /* \"#utility.yul\":5789:5793   */\n      0x00\n      swap2\n        /* \"#utility.yul\":5818:5820   */\n      swap1\n        /* \"#utility.yul\":6003:6005   */\n      0x40\n      swap1\n        /* \"#utility.yul\":6021:6039   */\n      dup2\n      dup6\n      add\n      swap1\n        /* \"#utility.yul\":6062:6077   */\n      dup7\n      dup5\n      add\n        /* \"#utility.yul\":5789:5793   */\n      dup6\n        /* \"#utility.yul\":6105:6805   */\n    tag_464:\n        /* \"#utility.yul\":6119:6125   */\n      dup3\n        /* \"#utility.yul\":6116:6117   */\n      dup2\n        /* \"#utility.yul\":6113:6126   */\n      lt\n        /* \"#utility.yul\":6105:6805   */\n      iszero\n      tag_466\n      jumpi\n        /* \"#utility.yul\":6178:6191   */\n      dup2\n      mload\n        /* \"#utility.yul\":6262:6271   */\n      dup1\n      mload\n      sub(shl(0xa0, 0x01), 0x01)\n        /* \"#utility.yul\":6258:6276   */\n      swap1\n      dup2\n      and\n        /* \"#utility.yul\":6246:6277   */\n      dup7\n      mstore\n        /* \"#utility.yul\":6317:6328   */\n      dup8\n      dup3\n      add\n        /* \"#utility.yul\":6311:6329   */\n      mload\n        /* \"#utility.yul\":6297:6309   */\n      dup9\n      dup8\n      add\n        /* \"#utility.yul\":6290:6330   */\n      mstore\n        /* \"#utility.yul\":6370:6381   */\n      dup7\n      dup3\n      add\n        /* \"#utility.yul\":6364:6382   */\n      mload\n        /* \"#utility.yul\":6350:6362   */\n      dup8\n      dup8\n      add\n        /* \"#utility.yul\":6343:6383   */\n      mstore\n        /* \"#utility.yul\":6406:6410   */\n      0x60\n        /* \"#utility.yul\":6450:6461   */\n      dup1\n      dup4\n      add\n        /* \"#utility.yul\":6444:6462   */\n      mload\n        /* \"#utility.yul\":6430:6442   */\n      swap1\n      dup8\n      add\n        /* \"#utility.yul\":6423:6463   */\n      mstore\n        /* \"#utility.yul\":6486:6490   */\n      0x80\n        /* \"#utility.yul\":6534:6545   */\n      dup1\n      dup4\n      add\n        /* \"#utility.yul\":6528:6546   */\n      mload\n        /* \"#utility.yul\":6524:6551   */\n      swap1\n      swap2\n      and\n        /* \"#utility.yul\":6510:6522   */\n      swap1\n      dup7\n      add\n        /* \"#utility.yul\":6503:6552   */\n      mstore\n        /* \"#utility.yul\":6222:6225   */\n      0xa0\n        /* \"#utility.yul\":6619:6630   */\n      dup1\n      dup3\n      add\n        /* \"#utility.yul\":6613:6631   */\n      mload\n        /* \"#utility.yul\":6599:6611   */\n      swap1\n      dup7\n      add\n        /* \"#utility.yul\":6592:6632   */\n      mstore\n        /* \"#utility.yul\":6655:6659   */\n      0xc0\n        /* \"#utility.yul\":6703:6714   */\n      swap1\n      dup2\n      add\n        /* \"#utility.yul\":6697:6715   */\n      mload\n        /* \"#utility.yul\":6717:6721   */\n      0xff\n        /* \"#utility.yul\":6693:6722   */\n      and\n        /* \"#utility.yul\":6679:6691   */\n      swap1\n      dup6\n      add\n        /* \"#utility.yul\":6672:6723   */\n      mstore\n        /* \"#utility.yul\":6752:6756   */\n      0xe0\n        /* \"#utility.yul\":6743:6757   */\n      swap1\n      swap4\n      add\n      swap3\n        /* \"#utility.yul\":6780:6795   */\n      swap1\n      dup6\n      add\n      swap1\n        /* \"#utility.yul\":6231:6232   */\n      0x01\n        /* \"#utility.yul\":6134:6143   */\n      add\n        /* \"#utility.yul\":6105:6805   */\n      jump(tag_464)\n    tag_466:\n      pop\n        /* \"#utility.yul\":6822:6825   */\n      swap2\n      swap8\n        /* \"#utility.yul\":5583:6831   */\n      swap7\n      pop\n      pop\n      pop\n      pop\n      pop\n      pop\n      pop\n      jump\t// out\n        /* \"#utility.yul\":6836:6963   */\n    tag_161:\n        /* \"#utility.yul\":6897:6907   */\n      0x4e487b71\n        /* \"#utility.yul\":6892:6895   */\n      0xe0\n        /* \"#utility.yul\":6888:6908   */\n      shl\n        /* \"#utility.yul\":6885:6886   */\n      0x00\n        /* \"#utility.yul\":6878:6909   */\n      mstore\n        /* \"#utility.yul\":6928:6932   */\n      0x41\n        /* \"#utility.yul\":6925:6926   */\n      0x04\n        /* \"#utility.yul\":6918:6933   */\n      mstore\n        /* \"#utility.yul\":6952:6956   */\n      0x24\n        /* \"#utility.yul\":6949:6950   */\n      0x00\n        /* \"#utility.yul\":6942:6957   */\n      revert\n        /* \"#utility.yul\":6968:7095   */\n    tag_168:\n        /* \"#utility.yul\":7029:7039   */\n      0x4e487b71\n        /* \"#utility.yul\":7024:7027   */\n      0xe0\n        /* \"#utility.yul\":7020:7040   */\n      shl\n        /* \"#utility.yul\":7017:7018   */\n      0x00\n        /* \"#utility.yul\":7010:7041   */\n      mstore\n        /* \"#utility.yul\":7060:7064   */\n      0x32\n        /* \"#utility.yul\":7057:7058   */\n      0x04\n        /* \"#utility.yul\":7050:7065   */\n      mstore\n        /* \"#utility.yul\":7084:7088   */\n      0x24\n        /* \"#utility.yul\":7081:7082   */\n      0x00\n        /* \"#utility.yul\":7074:7089   */\n      revert\n        /* \"#utility.yul\":8130:8257   */\n    tag_428:\n        /* \"#utility.yul\":8191:8201   */\n      0x4e487b71\n        /* \"#utility.yul\":8186:8189   */\n      0xe0\n        /* \"#utility.yul\":8182:8202   */\n      shl\n        /* \"#utility.yul\":8179:8180   */\n      0x00\n        /* \"#utility.yul\":8172:8203   */\n      mstore\n        /* \"#utility.yul\":8222:8226   */\n      0x11\n        /* \"#utility.yul\":8219:8220   */\n      0x04\n        /* \"#utility.yul\":8212:8227   */\n      mstore\n        /* \"#utility.yul\":8246:8250   */\n      0x24\n        /* \"#utility.yul\":8243:8244   */\n      0x00\n        /* \"#utility.yul\":8236:8251   */\n      revert\n        /* \"#utility.yul\":8262:8390   */\n    tag_191:\n        /* \"#utility.yul\":8329:8338   */\n      dup2\n      dup2\n      sub\n        /* \"#utility.yul\":8350:8361   */\n      dup2\n      dup2\n      gt\n        /* \"#utility.yul\":8347:8384   */\n      iszero\n      tag_475\n      jumpi\n        /* \"#utility.yul\":8364:8382   */\n      tag_475\n      tag_428\n      jump\t// in\n    tag_475:\n        /* \"#utility.yul\":8262:8390   */\n      swap3\n      swap2\n      pop\n      pop\n      jump\t// out\n        /* \"#utility.yul\":8395:8612   */\n    tag_193:\n        /* \"#utility.yul\":8435:8436   */\n      0x00\n        /* \"#utility.yul\":8461:8462   */\n      dup3\n        /* \"#utility.yul\":8451:8583   */\n      tag_477\n      jumpi\n        /* \"#utility.yul\":8505:8515   */\n      0x4e487b71\n        /* \"#utility.yul\":8500:8503   */\n      0xe0\n        /* \"#utility.yul\":8496:8516   */\n      shl\n        /* \"#utility.yul\":8493:8494   */\n      0x00\n        /* \"#utility.yul\":8486:8517   */\n      mstore\n        /* \"#utility.yul\":8540:8544   */\n      0x12\n        /* \"#utility.yul\":8537:8538   */\n      0x04\n        /* \"#utility.yul\":8530:8545   */\n      mstore\n        /* \"#utility.yul\":8568:8572   */\n      0x24\n        /* \"#utility.yul\":8565:8566   */\n      0x00\n        /* \"#utility.yul\":8558:8573   */\n      revert\n        /* \"#utility.yul\":8451:8583   */\n    tag_477:\n      pop\n        /* \"#utility.yul\":8597:8606   */\n      div\n      swap1\n        /* \"#utility.yul\":8395:8612   */\n      jump\t// out\n        /* \"#utility.yul\":8617:8785   */\n    tag_196:\n        /* \"#utility.yul\":8690:8699   */\n      dup1\n      dup3\n      mul\n        /* \"#utility.yul\":8721:8730   */\n      dup2\n      iszero\n        /* \"#utility.yul\":8738:8753   */\n      dup3\n      dup3\n      div\n        /* \"#utility.yul\":8732:8754   */\n      dup5\n      eq\n        /* \"#utility.yul\":8718:8755   */\n      or\n        /* \"#utility.yul\":8708:8779   */\n      tag_475\n      jumpi\n        /* \"#utility.yul\":8759:8777   */\n      tag_475\n      tag_428\n      jump\t// in\n        /* \"#utility.yul\":9205:9330   */\n    tag_204:\n        /* \"#utility.yul\":9270:9279   */\n      dup1\n      dup3\n      add\n        /* \"#utility.yul\":9291:9301   */\n      dup1\n      dup3\n      gt\n        /* \"#utility.yul\":9288:9324   */\n      iszero\n      tag_475\n      jumpi\n        /* \"#utility.yul\":9304:9322   */\n      tag_475\n      tag_428\n      jump\t// in\n        /* \"#utility.yul\":9614:9891   */\n    tag_210:\n        /* \"#utility.yul\":9681:9687   */\n      0x00\n        /* \"#utility.yul\":9734:9736   */\n      0x20\n        /* \"#utility.yul\":9722:9731   */\n      dup3\n        /* \"#utility.yul\":9713:9720   */\n      dup5\n        /* \"#utility.yul\":9709:9732   */\n      sub\n        /* \"#utility.yul\":9705:9737   */\n      slt\n        /* \"#utility.yul\":9702:9754   */\n      iszero\n      tag_487\n      jumpi\n        /* \"#utility.yul\":9750:9751   */\n      0x00\n        /* \"#utility.yul\":9747:9748   */\n      dup1\n        /* \"#utility.yul\":9740:9752   */\n      revert\n        /* \"#utility.yul\":9702:9754   */\n    tag_487:\n        /* \"#utility.yul\":9782:9791   */\n      dup2\n        /* \"#utility.yul\":9776:9792   */\n      mload\n        /* \"#utility.yul\":9835:9840   */\n      dup1\n        /* \"#utility.yul\":9828:9841   */\n      iszero\n        /* \"#utility.yul\":9821:9842   */\n      iszero\n        /* \"#utility.yul\":9814:9819   */\n      dup2\n        /* \"#utility.yul\":9811:9843   */\n      eq\n        /* \"#utility.yul\":9801:9861   */\n      tag_441\n      jumpi\n        /* \"#utility.yul\":9857:9858   */\n      0x00\n        /* \"#utility.yul\":9854:9855   */\n      dup1\n        /* \"#utility.yul\":9847:9859   */\n      revert\n        /* \"#utility.yul\":14553:14688   */\n    tag_281:\n        /* \"#utility.yul\":14592:14595   */\n      0x00\n        /* \"#utility.yul\":14613:14630   */\n      0x01\n      dup3\n      add\n        /* \"#utility.yul\":14610:14653   */\n      tag_504\n      jumpi\n        /* \"#utility.yul\":14633:14651   */\n      tag_504\n      tag_428\n      jump\t// in\n    tag_504:\n      pop\n        /* \"#utility.yul\":14680:14681   */\n      0x01\n        /* \"#utility.yul\":14669:14682   */\n      add\n      swap1\n        /* \"#utility.yul\":14553:14688   */\n      jump\t// out\n        /* \"#utility.yul\":14693:14877   */\n    tag_296:\n        /* \"#utility.yul\":14763:14769   */\n      0x00\n        /* \"#utility.yul\":14816:14818   */\n      0x20\n        /* \"#utility.yul\":14804:14813   */\n      dup3\n        /* \"#utility.yul\":14795:14802   */\n      dup5\n        /* \"#utility.yul\":14791:14814   */\n      sub\n        /* \"#utility.yul\":14787:14819   */\n      slt\n        /* \"#utility.yul\":14784:14836   */\n      iszero\n      tag_506\n      jumpi\n        /* \"#utility.yul\":14832:14833   */\n      0x00\n        /* \"#utility.yul\":14829:14830   */\n      dup1\n        /* \"#utility.yul\":14822:14834   */\n      revert\n        /* \"#utility.yul\":14784:14836   */\n    tag_506:\n      pop\n        /* \"#utility.yul\":14855:14871   */\n      mload\n      swap2\n        /* \"#utility.yul\":14693:14877   */\n      swap1\n      pop\n      jump\t// out\n        /* \"#utility.yul\":15591:15766   */\n    tag_324:\n        /* \"#utility.yul\":15628:15631   */\n      0x00\n        /* \"#utility.yul\":15672:15676   */\n      0xff\n        /* \"#utility.yul\":15665:15670   */\n      dup3\n        /* \"#utility.yul\":15661:15677   */\n      and\n        /* \"#utility.yul\":15701:15705   */\n      0xff\n        /* \"#utility.yul\":15692:15699   */\n      dup2\n        /* \"#utility.yul\":15689:15706   */\n      sub\n        /* \"#utility.yul\":15686:15729   */\n      tag_511\n      jumpi\n        /* \"#utility.yul\":15709:15727   */\n      tag_511\n      tag_428\n      jump\t// in\n    tag_511:\n        /* \"#utility.yul\":15758:15759   */\n      0x01\n        /* \"#utility.yul\":15745:15760   */\n      add\n      swap3\n        /* \"#utility.yul\":15591:15766   */\n      swap2\n      pop\n      pop\n      jump\t// out\n        /* \"#utility.yul\":16129:16277   */\n    tag_421:\n        /* \"#utility.yul\":16217:16221   */\n      0xff\n        /* \"#utility.yul\":16196:16208   */\n      dup2\n      dup2\n      and\n        /* \"#utility.yul\":16210:16222   */\n      dup4\n      dup3\n      and\n        /* \"#utility.yul\":16192:16223   */\n      add\n      swap1\n        /* \"#utility.yul\":16235:16248   */\n      dup2\n      gt\n        /* \"#utility.yul\":16232:16271   */\n      iszero\n      tag_475\n      jumpi\n        /* \"#utility.yul\":16251:16269   */\n      tag_475\n      tag_428\n      jump\t// in\n\n    auxdata: 0xa2646970667358221220a7e27b7efe0522e2dfb626d1dc7ff88cca5123cc429d97fa42bf430066840c6a64736f6c63430008190033\n}\n",
				"bytecode": {
					"linkReferences": {},
					"object": "61012060405260056080818152600360a052600260c052600160e08190526101005261002e9160099190610142565b5034801561003a575f80fd5b50604051612329380380612329833981016040819052610059916101e6565b5f8054336001600160a01b031991821681178355600280549092166001600160a01b03949094169390931790559081526003602081815260408320600401805460ff191660019081179091556006918290527fb6ba906ff52451a7a924e2eaeb8aea3ebee7350a8703e5e417edb25358c7dcc1557f1727c0104c2870c3003671480695f7dab262614528b49265008e76fd3d48c5fe919091557ffb78eb295a86b096b5f095822bd250a277112be4103ea4a7608d96eca726b2c15561016d9052600c7f0bbf8adea84d189c39869a372ab30aeba9246eea044edc5a37ac100921b2c4e155610213565b6001830191839082156101c2579160200282015f5b8382111561019457835183826101000a81548160ff021916908360ff16021790555092602001926001016020815f01049283019260010302610157565b80156101c05782816101000a81549060ff02191690556001016020815f01049283019260010302610194565b505b506101ce9291506101d2565b5090565b5b808211156101ce575f81556001016101d3565b5f602082840312156101f6575f80fd5b81516001600160a01b038116811461020c575f80fd5b9392505050565b612109806102205f395ff3fe608060405234801561000f575f80fd5b50600436106101a1575f3560e01c80639be572f6116100f3578063c2d3c67711610093578063e45a57d01161006e578063e45a57d01461051a578063ef71ae561461052d578063f6e888731461054d578063f7b17d101461056c575f80fd5b8063c2d3c677146104b1578063c3c5a547146104dc578063c5b89c0a146102a2575f80fd5b8063a87430ba116100ce578063a87430ba146103df578063a98ad46c1461044e578063aa7ed46214610461578063bd29717814610489575f80fd5b80639be572f6146103a25780639d747bad146103aa578063a2bdedf4146103cc575f80fd5b80634420e4861161015e5780637b0472f0116101395780637b0472f014610336578063875bb4e2146103495780638da5cb5b1461036857806398278efb1461037a575f80fd5b80634420e4861461028f5780635bd4e16a146102a2578063797c7f5f146102dc575f80fd5b806305ad3935146101a55780631e43eb27146101e257806321923bde1461022257806328fe703114610247578063379607f5146102675780633ea521ef1461027c575b5f80fd5b6101b86101b3366004611dde565b610575565b604080516001600160a01b0390941684526020840192909252908201526060015b60405180910390f35b61020a6101f0366004611e06565b60056020525f90815260409020546001600160a01b031681565b6040516001600160a01b0390911681526020016101d9565b610235610230366004611e1d565b6105bd565b60405160ff90911681526020016101d9565b61025a610255366004611e1d565b610610565b6040516101d99190611e77565b61027a610275366004611e06565b6106e6565b005b61027a61028a366004611e06565b610a8e565b61027a61029d366004611e1d565b610b60565b6102ce6102b0366004611e1d565b6001600160a01b03165f908152600360208190526040909120015490565b6040519081526020016101d9565b6102ef6102ea366004611e06565b610d40565b604080516001600160a01b0390991689526020890197909752958701949094526060860192909252608085015260a084015260c0830152151560e0820152610100016101d9565b61027a610344366004611e89565b610f9b565b6102ce610357366004611e06565b60066020525f908152604090205481565b5f5461020a906001600160a01b031681565b6102ce610388366004611e1d565b6001600160a01b03165f9081526004602052604090205490565b6008546102ce565b6103bd6103b8366004611e1d565b611602565b6040516101d993929190611ea9565b61020a6103da366004611e06565b6117ef565b6104226103ed366004611e1d565b600360208190525f918252604090912080546002820154928201546004909201546001600160a01b0390911692919060ff1684565b604080516001600160a01b039095168552602085019390935291830152151560608201526080016101d9565b60025461020a906001600160a01b031681565b6102ce61046f366004611e1d565b6001600160a01b03165f9081526007602052604090205490565b61049c610497366004611e89565b611817565b604080519283526020830191909152016101d9565b6102ce6104bf366004611e1d565b6001600160a01b03165f9081526003602052604090206002015490565b61050a6104ea366004611e1d565b6001600160a01b03165f9081526003602052604090206004015460ff1690565b60405190151581526020016101d9565b610235610528366004611e06565b611903565b61054061053b366004611e1d565b61192c565b6040516101d99190611f1e565b6102ce61055b366004611e1d565b60076020525f908152604090205481565b6102ce60015481565b6004602052815f5260405f20818154811061058e575f80fd5b5f9182526020909120600390910201805460018201546002909201546001600160a01b03909116935090915083565b6001600160a01b0381165f90815260046020526040812054600a81106105e65750600392915050565b600581106105f75750600292915050565b600181106106085750600192915050565b505f92915050565b6001600160a01b0381165f908152600360205260408120600101546060918167ffffffffffffffff81111561064757610647611fb0565b604051908082528060200260200182016040528015610670578160200160208202803683370190505b5090505f5b828110156106de576001600160a01b0385165f9081526003602052604090206001018054829081106106a9576106a9611fc4565b905f5260205f209060060201600101548282815181106106cb576106cb611fc4565b6020908102919091010152600101610675565b509392505050565b335f9081526003602052604090206004015460ff1661073d5760405162461bcd60e51b815260206004820152600e60248201526d139bdd081c9959da5cdd195c995960921b60448201526064015b60405180910390fd5b5f818152600560205260409020546001600160a01b03163381146107945760405162461bcd60e51b815260206004820152600e60248201526d4e6f7420796f7572207374616b6560901b6044820152606401610734565b335f908152600360205260408120600101905b8154811015610a39575f8282815481106107c3576107c3611fc4565b905f5260205f209060060201905084816001015403610a3057600581015460ff16156108235760405162461bcd60e51b815260206004820152600f60248201526e105b1c9958591e4818db185a5b5959608a1b6044820152606401610734565b5f620151808260030154426108389190611fec565b6108429190612005565b90505f826004015482106108855760048301545f90815260066020526040902054600284015460649161087491612024565b61087e9190612005565b90506108f4565b601482101561089557505f6108f4565b60405162461bcd60e51b815260206004820152602e60248201527f43616e6e6f7420636c61696d206265747765656e203230206461797320616e6460448201526d10333ab63610323ab930ba34b7b760911b6064820152608401610734565b60058301805460ff1916600117905560028054908401546001600160a01b039091169063a9059cbb90339061092a90859061203b565b6040516001600160e01b031960e085901b1681526001600160a01b03909216600483015260248201526044016020604051808303815f875af1158015610972573d5f803e3d5ffd5b505050506040513d601f19601f82011682018060405250810190610996919061204e565b6109da5760405162461bcd60e51b8152602060048201526015602482015274151bdad95b881d1c985b9cd9995c8819985a5b1959605a1b6044820152606401610734565b60018301546002840154604080519283526020830191909152810182905233907f9cdcf2f7714cca3508c7f0110b04a90a80a3a8dd0e35de99689db74d28c5383e9060600160405180910390a250505050505050565b506001016107a7565b5060405162461bcd60e51b8152602060048201526024808201527f5374616b65206e6f7420666f756e6420666f7220676976656e20706f736974696044820152631bdb925960e21b6064820152608401610734565b5f546001600160a01b03163314610ae75760405162461bcd60e51b815260206004820152601760248201527f4f6e6c79206f776e65722063616e2077697468647261770000000000000000006044820152606401610734565b6002545f5460405163a9059cbb60e01b81526001600160a01b0391821660048201526024810184905291169063a9059cbb906044016020604051808303815f875af1158015610b38573d5f803e3d5ffd5b505050506040513d601f19601f82011682018060405250810190610b5c919061204e565b5050565b335f9081526003602052604090206004015460ff1615610bb75760405162461bcd60e51b8152602060048201526012602482015271105b1c9958591e481c9959da5cdd195c995960721b6044820152606401610734565b336001600160a01b03821603610c075760405162461bcd60e51b815260206004820152601560248201527421b0b73737ba103932b332b9103cb7bab939b2b63360591b6044820152606401610734565b6001600160a01b0381165f9081526003602052604090206004015460ff16610c715760405162461bcd60e51b815260206004820152601760248201527f5265666572726572206e6f7420726567697374657265640000000000000000006044820152606401610734565b335f81815260036020818152604080842080546001600160a01b039788166001600160a01b0319918216811783556004928301805460ff19166001908117909155600880548083019091557ff3f7a9fe364faab93b216da50a3214154f22a0a2b415b23a84c8169e8b636ee301805484168a17905590875291845282862083516060810185529788528785018781524294890194855281548085018355918852949096209651959094029095018054949096169390921692909217845590519183019190915551600290910155565b5f8181526005602052604081205481908190819081908190819081906001600160a01b031680610da75760405162461bcd60e51b8152602060048201526012602482015271125b9d985b1a59081c1bdcda5d1a5bdb925960721b6044820152606401610734565b6001600160a01b0381165f90815260036020908152604080832060010180548251818502810185019093528083529192909190849084015b82821015610e4b575f8481526020908190206040805160c08101825260068602909201805483526001808201548486015260028201549284019290925260038101546060840152600481015460808401526005015460ff16151560a08301529083529092019101610ddf565b5050505090505f5b8151811015610f55578b828281518110610e6f57610e6f611fc4565b60200260200101516020015103610f4d575f828281518110610e9357610e93611fc4565b602002602001015190505f60065f836080015181526020019081526020015f205490505f82608001516064838560400151610ece9190612024565b610ed89190612005565b610ee29190612005565b90505f836080015162015180610ef89190612024565b8460600151610f07919061203b565b90505f8460a00151158015610f1b57508142105b905087855f015186604001518760600151858888879f509f509f509f509f509f509f509f505050505050505050610f90565b600101610e53565b5060405162461bcd60e51b815260206004820152600f60248201526e14dd185ad9481b9bdd08199bdd5b99608a1b6044820152606401610734565b919395975091939597565b335f9081526003602052604090206004015460ff16610fed5760405162461bcd60e51b815260206004820152600e60248201526d139bdd081c9959da5cdd195c995960921b6044820152606401610734565b5f81116110485760405162461bcd60e51b815260206004820152602360248201527f5374616b6520616d6f756e74206d75737420626520677265617465722074686160448201526206e20360ec1b6064820152608401610734565b5f8281526006602052604090205461109d5760405162461bcd60e51b815260206004820152601860248201527724b73b30b634b21039ba30b5b4b73390323ab930ba34b7b760411b6044820152606401610734565b6002546040516323b872dd60e01b8152336004820152306024820152604481018390525f916001600160a01b0316906323b872dd906064016020604051808303815f875af11580156110f1573d5f803e3d5ffd5b505050506040513d601f19601f82011682018060405250810190611115919061204e565b90508061115b5760405162461bcd60e51b81526020600482015260146024820152731554d115081d1c985b9cd9995c8819985a5b195960621b6044820152606401610734565b5f60015f815461116a9061206d565b919050819055905060035f336001600160a01b03166001600160a01b031681526020019081526020015f206001016040518060c0016040528060015481526020018381526020018581526020014281526020018681526020015f1515815250908060018154018082558091505060019003905f5260205f2090600602015f909190919091505f820151815f01556020820151816001015560408201518160020155606082015181600301556080820151816004015560a0820151816005015f6101000a81548160ff02191690831515021790555050503360055f8381526020019081526020015f205f6101000a8154816001600160a01b0302191690836001600160a01b031602179055505f60035f336001600160a01b03166001600160a01b031681526020019081526020015f205f015f9054906101000a90046001600160a01b031690505f5b60058160ff161080156112cd57506001600160a01b03821615155b156115fa575f606460098360ff16600581106112eb576112eb611fc4565b60208104919091015461130a91601f166101000a900460ff1688612024565b6113149190612005565b6002546040516370a0823160e01b815230600482015291925082916001600160a01b03909116906370a0823190602401602060405180830381865afa15801561135f573d5f803e3d5ffd5b505050506040513d601f19601f820116820180604052508101906113839190612085565b10156113d15760405162461bcd60e51b815260206004820152601d60248201527f496e73756666696369656e7420636f6e74726163742062616c616e63650000006044820152606401610734565b60025460405163a9059cbb60e01b81526001600160a01b038581166004830152602482018490525f92169063a9059cbb906044016020604051808303815f875af1158015611421573d5f803e3d5ffd5b505050506040513d601f19601f82011682018060405250810190611445919061204e565b90508061148d5760405162461bcd60e51b815260206004820152601660248201527514995dd85c99081d1c985b9cd9995c8819985a5b195960521b6044820152606401610734565b6001600160a01b0384165f90815260036020526040812060020180548492906114b790849061203b565b909155505060ff83165f036114f8576001600160a01b0384165f90815260076020526040812080548492906114ed90849061203b565b909155506115289050565b6001600160a01b0384165f908152600360208190526040822001805484929061152290849061203b565b90915550505b6001600160a01b0384165f908152600460205260408120905b81548110156115c757336001600160a01b031682828154811061156657611566611fc4565b5f9182526020909120600390910201546001600160a01b0316036115bf578382828154811061159757611597611fc4565b905f5260205f2090600302016001015f8282546115b4919061203b565b909155506115c79050565b600101611541565b5050506001600160a01b039283165f908152600360205260409020549092169150806115f28161209c565b9150506112b2565b505050505050565b6001600160a01b0381165f908152600460205260409020805460609182918291908067ffffffffffffffff81111561163c5761163c611fb0565b604051908082528060200260200182016040528015611665578160200160208202803683370190505b5094508067ffffffffffffffff81111561168157611681611fb0565b6040519080825280602002602001820160405280156116aa578160200160208202803683370190505b5093508067ffffffffffffffff8111156116c6576116c6611fb0565b6040519080825280602002602001820160405280156116ef578160200160208202803683370190505b5092505f5b818110156117e55782818154811061170e5761170e611fc4565b5f91825260209091206003909102015486516001600160a01b039091169087908390811061173e5761173e611fc4565b60200260200101906001600160a01b031690816001600160a01b03168152505082818154811061177057611770611fc4565b905f5260205f2090600302016001015485828151811061179257611792611fc4565b6020026020010181815250508281815481106117b0576117b0611fc4565b905f5260205f209060030201600201548482815181106117d2576117d2611fc4565b60209081029190910101526001016116f4565b5050509193909250565b600881815481106117fe575f80fd5b5f918252602090912001546001600160a01b0316905081565b5f805f84116118685760405162461bcd60e51b815260206004820152601d60248201527f416d6f756e74206d7573742062652067726561746572207468616e20300000006044820152606401610734565b5f838152600660205260409020546118bd5760405162461bcd60e51b815260206004820152601860248201527724b73b30b634b21039ba30b5b4b73390323ab930ba34b7b760411b6044820152606401610734565b5f83815260066020526040902054618e94846118d98388612024565b6118e39190612024565b6118ed9190612005565b92506118f9838661203b565b9150509250929050565b60098160058110611912575f80fd5b60209182820401919006915054906101000a900460ff1681565b60605f805b600854811015611aa9575f6008828154811061194f5761194f611fc4565b5f9182526020808320909101546001600160a01b031680835260038252604080842060010180548251818602810186019093528083529295509092909190849084015b828210156119fe575f8481526020908190206040805160c08101825260068602909201805483526001808201548486015260028201549284019290925260038101546060840152600481015460808401526005015460ff16151560a08301529083529092019101611992565b505050506001600160a01b038381165f908152600360205260408120549293509116905b60058160ff16108015611a3d57506001600160a01b03821615155b15611a9957876001600160a01b0316826001600160a01b031603611a6a578251611a67908761203b565b95505b6001600160a01b039182165f908152600360205260409020549091169080611a918161209c565b915050611a22565b5050600190920191506119319050565b505f8167ffffffffffffffff811115611ac457611ac4611fb0565b604051908082528060200260200182016040528015611b4357816020015b611b306040518060e001604052805f6001600160a01b031681526020015f81526020015f81526020015f81526020015f6001600160a01b031681526020015f81526020015f60ff1681525090565b815260200190600190039081611ae25790505b5090505f805b600854811015611db9575f60088281548110611b6757611b67611fc4565b5f9182526020808320909101546001600160a01b031680835260038252604080842060010180548251818602810186019093528083529295509092909190849084015b82821015611c16575f8481526020908190206040805160c08101825260068602909201805483526001808201548486015260028201549284019290925260038101546060840152600481015460808401526005015460ff16151560a08301529083529092019101611baa565b505050506001600160a01b038381165f908152600360205260408120549293509116905b60058160ff16108015611c5557506001600160a01b03821615155b15611da957896001600160a01b0316826001600160a01b031603611d7a575f5b8351811015611d78575f848281518110611c9157611c91611fc4565b602002602001015190505f606460098560ff1660058110611cb457611cb4611fc4565b602091828204019190069054906101000a900460ff1660ff168360400151611cdc9190612024565b611ce69190612005565b90506040518060e001604052808e6001600160a01b03168152602001835f0151815260200183604001518152602001828152602001886001600160a01b0316815260200183606001518152602001856001611d4191906120ba565b60ff1690528a8a611d518161206d565b9b5081518110611d6357611d63611fc4565b60209081029190910101525050600101611c75565b505b6001600160a01b039182165f908152600360205260409020549091169080611da18161209c565b915050611c3a565b505060019092019150611b499050565b5090949350505050565b80356001600160a01b0381168114611dd9575f80fd5b919050565b5f8060408385031215611def575f80fd5b611df883611dc3565b946020939093013593505050565b5f60208284031215611e16575f80fd5b5035919050565b5f60208284031215611e2d575f80fd5b611e3682611dc3565b9392505050565b5f815180845260208085019450602084015f5b83811015611e6c57815187529582019590820190600101611e50565b509495945050505050565b602081525f611e366020830184611e3d565b5f8060408385031215611e9a575f80fd5b50508035926020909101359150565b606080825284519082018190525f906020906080840190828801845b82811015611eea5781516001600160a01b031684529284019290840190600101611ec5565b5050508381036020850152611eff8187611e3d565b9150508281036040840152611f148185611e3d565b9695505050505050565b602080825282518282018190525f919060409081850190868401855b82811015611fa357815180516001600160a01b03908116865287820151888701528682015187870152606080830151908701526080808301519091169086015260a0808201519086015260c09081015160ff169085015260e09093019290850190600101611f3a565b5091979650505050505050565b634e487b7160e01b5f52604160045260245ffd5b634e487b7160e01b5f52603260045260245ffd5b634e487b7160e01b5f52601160045260245ffd5b81810381811115611fff57611fff611fd8565b92915050565b5f8261201f57634e487b7160e01b5f52601260045260245ffd5b500490565b8082028115828204841417611fff57611fff611fd8565b80820180821115611fff57611fff611fd8565b5f6020828403121561205e575f80fd5b81518015158114611e36575f80fd5b5f6001820161207e5761207e611fd8565b5060010190565b5f60208284031215612095575f80fd5b5051919050565b5f60ff821660ff81036120b1576120b1611fd8565b60010192915050565b60ff8181168382160190811115611fff57611fff611fd856fea2646970667358221220a7e27b7efe0522e2dfb626d1dc7ff88cca5123cc429d97fa42bf430066840c6a64736f6c63430008190033",
					"opcodes": "PUSH2 0x120 PUSH1 0x40 MSTORE PUSH1 0x5 PUSH1 0x80 DUP2 DUP2 MSTORE PUSH1 0x3 PUSH1 0xA0 MSTORE PUSH1 0x2 PUSH1 0xC0 MSTORE PUSH1 0x1 PUSH1 0xE0 DUP2 SWAP1 MSTORE PUSH2 0x100 MSTORE PUSH2 0x2E SWAP2 PUSH1 0x9 SWAP2 SWAP1 PUSH2 0x142 JUMP JUMPDEST POP CALLVALUE DUP1 ISZERO PUSH2 0x3A JUMPI PUSH0 DUP1 REVERT JUMPDEST POP PUSH1 0x40 MLOAD PUSH2 0x2329 CODESIZE SUB DUP1 PUSH2 0x2329 DUP4 CODECOPY DUP2 ADD PUSH1 0x40 DUP2 SWAP1 MSTORE PUSH2 0x59 SWAP2 PUSH2 0x1E6 JUMP JUMPDEST PUSH0 DUP1 SLOAD CALLER PUSH1 0x1 PUSH1 0x1 PUSH1 0xA0 SHL SUB NOT SWAP2 DUP3 AND DUP2 OR DUP4 SSTORE PUSH1 0x2 DUP1 SLOAD SWAP1 SWAP3 AND PUSH1 0x1 PUSH1 0x1 PUSH1 0xA0 SHL SUB SWAP5 SWAP1 SWAP5 AND SWAP4 SWAP1 SWAP4 OR SWAP1 SSTORE SWAP1 DUP2 MSTORE PUSH1 0x3 PUSH1 0x20 DUP2 DUP2 MSTORE PUSH1 0x40 DUP4 KECCAK256 PUSH1 0x4 ADD DUP1 SLOAD PUSH1 0xFF NOT AND PUSH1 0x1 SWAP1 DUP2 OR SWAP1 SWAP2 SSTORE PUSH1 0x6 SWAP2 DUP3 SWAP1 MSTORE PUSH32 0xB6BA906FF52451A7A924E2EAEB8AEA3EBEE7350A8703E5E417EDB25358C7DCC1 SSTORE PUSH32 0x1727C0104C2870C3003671480695F7DAB262614528B49265008E76FD3D48C5FE SWAP2 SWAP1 SWAP2 SSTORE PUSH32 0xFB78EB295A86B096B5F095822BD250A277112BE4103EA4A7608D96ECA726B2C1 SSTORE PUSH2 0x16D SWAP1 MSTORE PUSH1 0xC PUSH32 0xBBF8ADEA84D189C39869A372AB30AEBA9246EEA044EDC5A37AC100921B2C4E1 SSTORE PUSH2 0x213 JUMP JUMPDEST PUSH1 0x1 DUP4 ADD SWAP2 DUP4 SWAP1 DUP3 ISZERO PUSH2 0x1C2 JUMPI SWAP2 PUSH1 0x20 MUL DUP3 ADD PUSH0 JUMPDEST DUP4 DUP3 GT ISZERO PUSH2 0x194 JUMPI DUP4 MLOAD DUP4 DUP3 PUSH2 0x100 EXP DUP2 SLOAD DUP2 PUSH1 0xFF MUL NOT AND SWAP1 DUP4 PUSH1 0xFF AND MUL OR SWAP1 SSTORE POP SWAP3 PUSH1 0x20 ADD SWAP3 PUSH1 0x1 ADD PUSH1 0x20 DUP2 PUSH0 ADD DIV SWAP3 DUP4 ADD SWAP3 PUSH1 0x1 SUB MUL PUSH2 0x157 JUMP JUMPDEST DUP1 ISZERO PUSH2 0x1C0 JUMPI DUP3 DUP2 PUSH2 0x100 EXP DUP2 SLOAD SWAP1 PUSH1 0xFF MUL NOT AND SWAP1 SSTORE PUSH1 0x1 ADD PUSH1 0x20 DUP2 PUSH0 ADD DIV SWAP3 DUP4 ADD SWAP3 PUSH1 0x1 SUB MUL PUSH2 0x194 JUMP JUMPDEST POP JUMPDEST POP PUSH2 0x1CE SWAP3 SWAP2 POP PUSH2 0x1D2 JUMP JUMPDEST POP SWAP1 JUMP JUMPDEST JUMPDEST DUP1 DUP3 GT ISZERO PUSH2 0x1CE JUMPI PUSH0 DUP2 SSTORE PUSH1 0x1 ADD PUSH2 0x1D3 JUMP JUMPDEST PUSH0 PUSH1 0x20 DUP3 DUP5 SUB SLT ISZERO PUSH2 0x1F6 JUMPI PUSH0 DUP1 REVERT JUMPDEST DUP2 MLOAD PUSH1 0x1 PUSH1 0x1 PUSH1 0xA0 SHL SUB DUP2 AND DUP2 EQ PUSH2 0x20C JUMPI PUSH0 DUP1 REVERT JUMPDEST SWAP4 SWAP3 POP POP POP JUMP JUMPDEST PUSH2 0x2109 DUP1 PUSH2 0x220 PUSH0 CODECOPY PUSH0 RETURN INVALID PUSH1 0x80 PUSH1 0x40 MSTORE CALLVALUE DUP1 ISZERO PUSH2 0xF JUMPI PUSH0 DUP1 REVERT JUMPDEST POP PUSH1 0x4 CALLDATASIZE LT PUSH2 0x1A1 JUMPI PUSH0 CALLDATALOAD PUSH1 0xE0 SHR DUP1 PUSH4 0x9BE572F6 GT PUSH2 0xF3 JUMPI DUP1 PUSH4 0xC2D3C677 GT PUSH2 0x93 JUMPI DUP1 PUSH4 0xE45A57D0 GT PUSH2 0x6E JUMPI DUP1 PUSH4 0xE45A57D0 EQ PUSH2 0x51A JUMPI DUP1 PUSH4 0xEF71AE56 EQ PUSH2 0x52D JUMPI DUP1 PUSH4 0xF6E88873 EQ PUSH2 0x54D JUMPI DUP1 PUSH4 0xF7B17D10 EQ PUSH2 0x56C JUMPI PUSH0 DUP1 REVERT JUMPDEST DUP1 PUSH4 0xC2D3C677 EQ PUSH2 0x4B1 JUMPI DUP1 PUSH4 0xC3C5A547 EQ PUSH2 0x4DC JUMPI DUP1 PUSH4 0xC5B89C0A EQ PUSH2 0x2A2 JUMPI PUSH0 DUP1 REVERT JUMPDEST DUP1 PUSH4 0xA87430BA GT PUSH2 0xCE JUMPI DUP1 PUSH4 0xA87430BA EQ PUSH2 0x3DF JUMPI DUP1 PUSH4 0xA98AD46C EQ PUSH2 0x44E JUMPI DUP1 PUSH4 0xAA7ED462 EQ PUSH2 0x461 JUMPI DUP1 PUSH4 0xBD297178 EQ PUSH2 0x489 JUMPI PUSH0 DUP1 REVERT JUMPDEST DUP1 PUSH4 0x9BE572F6 EQ PUSH2 0x3A2 JUMPI DUP1 PUSH4 0x9D747BAD EQ PUSH2 0x3AA JUMPI DUP1 PUSH4 0xA2BDEDF4 EQ PUSH2 0x3CC JUMPI PUSH0 DUP1 REVERT JUMPDEST DUP1 PUSH4 0x4420E486 GT PUSH2 0x15E JUMPI DUP1 PUSH4 0x7B0472F0 GT PUSH2 0x139 JUMPI DUP1 PUSH4 0x7B0472F0 EQ PUSH2 0x336 JUMPI DUP1 PUSH4 0x875BB4E2 EQ PUSH2 0x349 JUMPI DUP1 PUSH4 0x8DA5CB5B EQ PUSH2 0x368 JUMPI DUP1 PUSH4 0x98278EFB EQ PUSH2 0x37A JUMPI PUSH0 DUP1 REVERT JUMPDEST DUP1 PUSH4 0x4420E486 EQ PUSH2 0x28F JUMPI DUP1 PUSH4 0x5BD4E16A EQ PUSH2 0x2A2 JUMPI DUP1 PUSH4 0x797C7F5F EQ PUSH2 0x2DC JUMPI PUSH0 DUP1 REVERT JUMPDEST DUP1 PUSH4 0x5AD3935 EQ PUSH2 0x1A5 JUMPI DUP1 PUSH4 0x1E43EB27 EQ PUSH2 0x1E2 JUMPI DUP1 PUSH4 0x21923BDE EQ PUSH2 0x222 JUMPI DUP1 PUSH4 0x28FE7031 EQ PUSH2 0x247 JUMPI DUP1 PUSH4 0x379607F5 EQ PUSH2 0x267 JUMPI DUP1 PUSH4 0x3EA521EF EQ PUSH2 0x27C JUMPI JUMPDEST PUSH0 DUP1 REVERT JUMPDEST PUSH2 0x1B8 PUSH2 0x1B3 CALLDATASIZE PUSH1 0x4 PUSH2 0x1DDE JUMP JUMPDEST PUSH2 0x575 JUMP JUMPDEST PUSH1 0x40 DUP1 MLOAD PUSH1 0x1 PUSH1 0x1 PUSH1 0xA0 SHL SUB SWAP1 SWAP5 AND DUP5 MSTORE PUSH1 0x20 DUP5 ADD SWAP3 SWAP1 SWAP3 MSTORE SWAP1 DUP3 ADD MSTORE PUSH1 0x60 ADD JUMPDEST PUSH1 0x40 MLOAD DUP1 SWAP2 SUB SWAP1 RETURN JUMPDEST PUSH2 0x20A PUSH2 0x1F0 CALLDATASIZE PUSH1 0x4 PUSH2 0x1E06 JUMP JUMPDEST PUSH1 0x5 PUSH1 0x20 MSTORE PUSH0 SWAP1 DUP2 MSTORE PUSH1 0x40 SWAP1 KECCAK256 SLOAD PUSH1 0x1 PUSH1 0x1 PUSH1 0xA0 SHL SUB AND DUP2 JUMP JUMPDEST PUSH1 0x40 MLOAD PUSH1 0x1 PUSH1 0x1 PUSH1 0xA0 SHL SUB SWAP1 SWAP2 AND DUP2 MSTORE PUSH1 0x20 ADD PUSH2 0x1D9 JUMP JUMPDEST PUSH2 0x235 PUSH2 0x230 CALLDATASIZE PUSH1 0x4 PUSH2 0x1E1D JUMP JUMPDEST PUSH2 0x5BD JUMP JUMPDEST PUSH1 0x40 MLOAD PUSH1 0xFF SWAP1 SWAP2 AND DUP2 MSTORE PUSH1 0x20 ADD PUSH2 0x1D9 JUMP JUMPDEST PUSH2 0x25A PUSH2 0x255 CALLDATASIZE PUSH1 0x4 PUSH2 0x1E1D JUMP JUMPDEST PUSH2 0x610 JUMP JUMPDEST PUSH1 0x40 MLOAD PUSH2 0x1D9 SWAP2 SWAP1 PUSH2 0x1E77 JUMP JUMPDEST PUSH2 0x27A PUSH2 0x275 CALLDATASIZE PUSH1 0x4 PUSH2 0x1E06 JUMP JUMPDEST PUSH2 0x6E6 JUMP JUMPDEST STOP JUMPDEST PUSH2 0x27A PUSH2 0x28A CALLDATASIZE PUSH1 0x4 PUSH2 0x1E06 JUMP JUMPDEST PUSH2 0xA8E JUMP JUMPDEST PUSH2 0x27A PUSH2 0x29D CALLDATASIZE PUSH1 0x4 PUSH2 0x1E1D JUMP JUMPDEST PUSH2 0xB60 JUMP JUMPDEST PUSH2 0x2CE PUSH2 0x2B0 CALLDATASIZE PUSH1 0x4 PUSH2 0x1E1D JUMP JUMPDEST PUSH1 0x1 PUSH1 0x1 PUSH1 0xA0 SHL SUB AND PUSH0 SWAP1 DUP2 MSTORE PUSH1 0x3 PUSH1 0x20 DUP2 SWAP1 MSTORE PUSH1 0x40 SWAP1 SWAP2 KECCAK256 ADD SLOAD SWAP1 JUMP JUMPDEST PUSH1 0x40 MLOAD SWAP1 DUP2 MSTORE PUSH1 0x20 ADD PUSH2 0x1D9 JUMP JUMPDEST PUSH2 0x2EF PUSH2 0x2EA CALLDATASIZE PUSH1 0x4 PUSH2 0x1E06 JUMP JUMPDEST PUSH2 0xD40 JUMP JUMPDEST PUSH1 0x40 DUP1 MLOAD PUSH1 0x1 PUSH1 0x1 PUSH1 0xA0 SHL SUB SWAP1 SWAP10 AND DUP10 MSTORE PUSH1 0x20 DUP10 ADD SWAP8 SWAP1 SWAP8 MSTORE SWAP6 DUP8 ADD SWAP5 SWAP1 SWAP5 MSTORE PUSH1 0x60 DUP7 ADD SWAP3 SWAP1 SWAP3 MSTORE PUSH1 0x80 DUP6 ADD MSTORE PUSH1 0xA0 DUP5 ADD MSTORE PUSH1 0xC0 DUP4 ADD MSTORE ISZERO ISZERO PUSH1 0xE0 DUP3 ADD MSTORE PUSH2 0x100 ADD PUSH2 0x1D9 JUMP JUMPDEST PUSH2 0x27A PUSH2 0x344 CALLDATASIZE PUSH1 0x4 PUSH2 0x1E89 JUMP JUMPDEST PUSH2 0xF9B JUMP JUMPDEST PUSH2 0x2CE PUSH2 0x357 CALLDATASIZE PUSH1 0x4 PUSH2 0x1E06 JUMP JUMPDEST PUSH1 0x6 PUSH1 0x20 MSTORE PUSH0 SWAP1 DUP2 MSTORE PUSH1 0x40 SWAP1 KECCAK256 SLOAD DUP2 JUMP JUMPDEST PUSH0 SLOAD PUSH2 0x20A SWAP1 PUSH1 0x1 PUSH1 0x1 PUSH1 0xA0 SHL SUB AND DUP2 JUMP JUMPDEST PUSH2 0x2CE PUSH2 0x388 CALLDATASIZE PUSH1 0x4 PUSH2 0x1E1D JUMP JUMPDEST PUSH1 0x1 PUSH1 0x1 PUSH1 0xA0 SHL SUB AND PUSH0 SWAP1 DUP2 MSTORE PUSH1 0x4 PUSH1 0x20 MSTORE PUSH1 0x40 SWAP1 KECCAK256 SLOAD SWAP1 JUMP JUMPDEST PUSH1 0x8 SLOAD PUSH2 0x2CE JUMP JUMPDEST PUSH2 0x3BD PUSH2 0x3B8 CALLDATASIZE PUSH1 0x4 PUSH2 0x1E1D JUMP JUMPDEST PUSH2 0x1602 JUMP JUMPDEST PUSH1 0x40 MLOAD PUSH2 0x1D9 SWAP4 SWAP3 SWAP2 SWAP1 PUSH2 0x1EA9 JUMP JUMPDEST PUSH2 0x20A PUSH2 0x3DA CALLDATASIZE PUSH1 0x4 PUSH2 0x1E06 JUMP JUMPDEST PUSH2 0x17EF JUMP JUMPDEST PUSH2 0x422 PUSH2 0x3ED CALLDATASIZE PUSH1 0x4 PUSH2 0x1E1D JUMP JUMPDEST PUSH1 0x3 PUSH1 0x20 DUP2 SWAP1 MSTORE PUSH0 SWAP2 DUP3 MSTORE PUSH1 0x40 SWAP1 SWAP2 KECCAK256 DUP1 SLOAD PUSH1 0x2 DUP3 ADD SLOAD SWAP3 DUP3 ADD SLOAD PUSH1 0x4 SWAP1 SWAP3 ADD SLOAD PUSH1 0x1 PUSH1 0x1 PUSH1 0xA0 SHL SUB SWAP1 SWAP2 AND SWAP3 SWAP2 SWAP1 PUSH1 0xFF AND DUP5 JUMP JUMPDEST PUSH1 0x40 DUP1 MLOAD PUSH1 0x1 PUSH1 0x1 PUSH1 0xA0 SHL SUB SWAP1 SWAP6 AND DUP6 MSTORE PUSH1 0x20 DUP6 ADD SWAP4 SWAP1 SWAP4 MSTORE SWAP2 DUP4 ADD MSTORE ISZERO ISZERO PUSH1 0x60 DUP3 ADD MSTORE PUSH1 0x80 ADD PUSH2 0x1D9 JUMP JUMPDEST PUSH1 0x2 SLOAD PUSH2 0x20A SWAP1 PUSH1 0x1 PUSH1 0x1 PUSH1 0xA0 SHL SUB AND DUP2 JUMP JUMPDEST PUSH2 0x2CE PUSH2 0x46F CALLDATASIZE PUSH1 0x4 PUSH2 0x1E1D JUMP JUMPDEST PUSH1 0x1 PUSH1 0x1 PUSH1 0xA0 SHL SUB AND PUSH0 SWAP1 DUP2 MSTORE PUSH1 0x7 PUSH1 0x20 MSTORE PUSH1 0x40 SWAP1 KECCAK256 SLOAD SWAP1 JUMP JUMPDEST PUSH2 0x49C PUSH2 0x497 CALLDATASIZE PUSH1 0x4 PUSH2 0x1E89 JUMP JUMPDEST PUSH2 0x1817 JUMP JUMPDEST PUSH1 0x40 DUP1 MLOAD SWAP3 DUP4 MSTORE PUSH1 0x20 DUP4 ADD SWAP2 SWAP1 SWAP2 MSTORE ADD PUSH2 0x1D9 JUMP JUMPDEST PUSH2 0x2CE PUSH2 0x4BF CALLDATASIZE PUSH1 0x4 PUSH2 0x1E1D JUMP JUMPDEST PUSH1 0x1 PUSH1 0x1 PUSH1 0xA0 SHL SUB AND PUSH0 SWAP1 DUP2 MSTORE PUSH1 0x3 PUSH1 0x20 MSTORE PUSH1 0x40 SWAP1 KECCAK256 PUSH1 0x2 ADD SLOAD SWAP1 JUMP JUMPDEST PUSH2 0x50A PUSH2 0x4EA CALLDATASIZE PUSH1 0x4 PUSH2 0x1E1D JUMP JUMPDEST PUSH1 0x1 PUSH1 0x1 PUSH1 0xA0 SHL SUB AND PUSH0 SWAP1 DUP2 MSTORE PUSH1 0x3 PUSH1 0x20 MSTORE PUSH1 0x40 SWAP1 KECCAK256 PUSH1 0x4 ADD SLOAD PUSH1 0xFF AND SWAP1 JUMP JUMPDEST PUSH1 0x40 MLOAD SWAP1 ISZERO ISZERO DUP2 MSTORE PUSH1 0x20 ADD PUSH2 0x1D9 JUMP JUMPDEST PUSH2 0x235 PUSH2 0x528 CALLDATASIZE PUSH1 0x4 PUSH2 0x1E06 JUMP JUMPDEST PUSH2 0x1903 JUMP JUMPDEST PUSH2 0x540 PUSH2 0x53B CALLDATASIZE PUSH1 0x4 PUSH2 0x1E1D JUMP JUMPDEST PUSH2 0x192C JUMP JUMPDEST PUSH1 0x40 MLOAD PUSH2 0x1D9 SWAP2 SWAP1 PUSH2 0x1F1E JUMP JUMPDEST PUSH2 0x2CE PUSH2 0x55B CALLDATASIZE PUSH1 0x4 PUSH2 0x1E1D JUMP JUMPDEST PUSH1 0x7 PUSH1 0x20 MSTORE PUSH0 SWAP1 DUP2 MSTORE PUSH1 0x40 SWAP1 KECCAK256 SLOAD DUP2 JUMP JUMPDEST PUSH2 0x2CE PUSH1 0x1 SLOAD DUP2 JUMP JUMPDEST PUSH1 0x4 PUSH1 0x20 MSTORE DUP2 PUSH0 MSTORE PUSH1 0x40 PUSH0 KECCAK256 DUP2 DUP2 SLOAD DUP2 LT PUSH2 0x58E JUMPI PUSH0 DUP1 REVERT JUMPDEST PUSH0 SWAP2 DUP3 MSTORE PUSH1 0x20 SWAP1 SWAP2 KECCAK256 PUSH1 0x3 SWAP1 SWAP2 MUL ADD DUP1 SLOAD PUSH1 0x1 DUP3 ADD SLOAD PUSH1 0x2 SWAP1 SWAP3 ADD SLOAD PUSH1 0x1 PUSH1 0x1 PUSH1 0xA0 SHL SUB SWAP1 SWAP2 AND SWAP4 POP SWAP1 SWAP2 POP DUP4 JUMP JUMPDEST PUSH1 0x1 PUSH1 0x1 PUSH1 0xA0 SHL SUB DUP2 AND PUSH0 SWAP1 DUP2 MSTORE PUSH1 0x4 PUSH1 0x20 MSTORE PUSH1 0x40 DUP2 KECCAK256 SLOAD PUSH1 0xA DUP2 LT PUSH2 0x5E6 JUMPI POP PUSH1 0x3 SWAP3 SWAP2 POP POP JUMP JUMPDEST PUSH1 0x5 DUP2 LT PUSH2 0x5F7 JUMPI POP PUSH1 0x2 SWAP3 SWAP2 POP POP JUMP JUMPDEST PUSH1 0x1 DUP2 LT PUSH2 0x608 JUMPI POP PUSH1 0x1 SWAP3 SWAP2 POP POP JUMP JUMPDEST POP PUSH0 SWAP3 SWAP2 POP POP JUMP JUMPDEST PUSH1 0x1 PUSH1 0x1 PUSH1 0xA0 SHL SUB DUP2 AND PUSH0 SWAP1 DUP2 MSTORE PUSH1 0x3 PUSH1 0x20 MSTORE PUSH1 0x40 DUP2 KECCAK256 PUSH1 0x1 ADD SLOAD PUSH1 0x60 SWAP2 DUP2 PUSH8 0xFFFFFFFFFFFFFFFF DUP2 GT ISZERO PUSH2 0x647 JUMPI PUSH2 0x647 PUSH2 0x1FB0 JUMP JUMPDEST PUSH1 0x40 MLOAD SWAP1 DUP1 DUP3 MSTORE DUP1 PUSH1 0x20 MUL PUSH1 0x20 ADD DUP3 ADD PUSH1 0x40 MSTORE DUP1 ISZERO PUSH2 0x670 JUMPI DUP2 PUSH1 0x20 ADD PUSH1 0x20 DUP3 MUL DUP1 CALLDATASIZE DUP4 CALLDATACOPY ADD SWAP1 POP JUMPDEST POP SWAP1 POP PUSH0 JUMPDEST DUP3 DUP2 LT ISZERO PUSH2 0x6DE JUMPI PUSH1 0x1 PUSH1 0x1 PUSH1 0xA0 SHL SUB DUP6 AND PUSH0 SWAP1 DUP2 MSTORE PUSH1 0x3 PUSH1 0x20 MSTORE PUSH1 0x40 SWAP1 KECCAK256 PUSH1 0x1 ADD DUP1 SLOAD DUP3 SWAP1 DUP2 LT PUSH2 0x6A9 JUMPI PUSH2 0x6A9 PUSH2 0x1FC4 JUMP JUMPDEST SWAP1 PUSH0 MSTORE PUSH1 0x20 PUSH0 KECCAK256 SWAP1 PUSH1 0x6 MUL ADD PUSH1 0x1 ADD SLOAD DUP3 DUP3 DUP2 MLOAD DUP2 LT PUSH2 0x6CB JUMPI PUSH2 0x6CB PUSH2 0x1FC4 JUMP JUMPDEST PUSH1 0x20 SWAP1 DUP2 MUL SWAP2 SWAP1 SWAP2 ADD ADD MSTORE PUSH1 0x1 ADD PUSH2 0x675 JUMP JUMPDEST POP SWAP4 SWAP3 POP POP POP JUMP JUMPDEST CALLER PUSH0 SWAP1 DUP2 MSTORE PUSH1 0x3 PUSH1 0x20 MSTORE PUSH1 0x40 SWAP1 KECCAK256 PUSH1 0x4 ADD SLOAD PUSH1 0xFF AND PUSH2 0x73D JUMPI PUSH1 0x40 MLOAD PUSH3 0x461BCD PUSH1 0xE5 SHL DUP2 MSTORE PUSH1 0x20 PUSH1 0x4 DUP3 ADD MSTORE PUSH1 0xE PUSH1 0x24 DUP3 ADD MSTORE PUSH14 0x139BDD081C9959DA5CDD195C9959 PUSH1 0x92 SHL PUSH1 0x44 DUP3 ADD MSTORE PUSH1 0x64 ADD JUMPDEST PUSH1 0x40 MLOAD DUP1 SWAP2 SUB SWAP1 REVERT JUMPDEST PUSH0 DUP2 DUP2 MSTORE PUSH1 0x5 PUSH1 0x20 MSTORE PUSH1 0x40 SWAP1 KECCAK256 SLOAD PUSH1 0x1 PUSH1 0x1 PUSH1 0xA0 SHL SUB AND CALLER DUP2 EQ PUSH2 0x794 JUMPI PUSH1 0x40 MLOAD PUSH3 0x461BCD PUSH1 0xE5 SHL DUP2 MSTORE PUSH1 0x20 PUSH1 0x4 DUP3 ADD MSTORE PUSH1 0xE PUSH1 0x24 DUP3 ADD MSTORE PUSH14 0x4E6F7420796F7572207374616B65 PUSH1 0x90 SHL PUSH1 0x44 DUP3 ADD MSTORE PUSH1 0x64 ADD PUSH2 0x734 JUMP JUMPDEST CALLER PUSH0 SWAP1 DUP2 MSTORE PUSH1 0x3 PUSH1 0x20 MSTORE PUSH1 0x40 DUP2 KECCAK256 PUSH1 0x1 ADD SWAP1 JUMPDEST DUP2 SLOAD DUP2 LT ISZERO PUSH2 0xA39 JUMPI PUSH0 DUP3 DUP3 DUP2 SLOAD DUP2 LT PUSH2 0x7C3 JUMPI PUSH2 0x7C3 PUSH2 0x1FC4 JUMP JUMPDEST SWAP1 PUSH0 MSTORE PUSH1 0x20 PUSH0 KECCAK256 SWAP1 PUSH1 0x6 MUL ADD SWAP1 POP DUP5 DUP2 PUSH1 0x1 ADD SLOAD SUB PUSH2 0xA30 JUMPI PUSH1 0x5 DUP2 ADD SLOAD PUSH1 0xFF AND ISZERO PUSH2 0x823 JUMPI PUSH1 0x40 MLOAD PUSH3 0x461BCD PUSH1 0xE5 SHL DUP2 MSTORE PUSH1 0x20 PUSH1 0x4 DUP3 ADD MSTORE PUSH1 0xF PUSH1 0x24 DUP3 ADD MSTORE PUSH15 0x105B1C9958591E4818DB185A5B5959 PUSH1 0x8A SHL PUSH1 0x44 DUP3 ADD MSTORE PUSH1 0x64 ADD PUSH2 0x734 JUMP JUMPDEST PUSH0 PUSH3 0x15180 DUP3 PUSH1 0x3 ADD SLOAD TIMESTAMP PUSH2 0x838 SWAP2 SWAP1 PUSH2 0x1FEC JUMP JUMPDEST PUSH2 0x842 SWAP2 SWAP1 PUSH2 0x2005 JUMP JUMPDEST SWAP1 POP PUSH0 DUP3 PUSH1 0x4 ADD SLOAD DUP3 LT PUSH2 0x885 JUMPI PUSH1 0x4 DUP4 ADD SLOAD PUSH0 SWAP1 DUP2 MSTORE PUSH1 0x6 PUSH1 0x20 MSTORE PUSH1 0x40 SWAP1 KECCAK256 SLOAD PUSH1 0x2 DUP5 ADD SLOAD PUSH1 0x64 SWAP2 PUSH2 0x874 SWAP2 PUSH2 0x2024 JUMP JUMPDEST PUSH2 0x87E SWAP2 SWAP1 PUSH2 0x2005 JUMP JUMPDEST SWAP1 POP PUSH2 0x8F4 JUMP JUMPDEST PUSH1 0x14 DUP3 LT ISZERO PUSH2 0x895 JUMPI POP PUSH0 PUSH2 0x8F4 JUMP JUMPDEST PUSH1 0x40 MLOAD PUSH3 0x461BCD PUSH1 0xE5 SHL DUP2 MSTORE PUSH1 0x20 PUSH1 0x4 DUP3 ADD MSTORE PUSH1 0x2E PUSH1 0x24 DUP3 ADD MSTORE PUSH32 0x43616E6E6F7420636C61696D206265747765656E203230206461797320616E64 PUSH1 0x44 DUP3 ADD MSTORE PUSH14 0x10333AB63610323AB930BA34B7B7 PUSH1 0x91 SHL PUSH1 0x64 DUP3 ADD MSTORE PUSH1 0x84 ADD PUSH2 0x734 JUMP JUMPDEST PUSH1 0x5 DUP4 ADD DUP1 SLOAD PUSH1 0xFF NOT AND PUSH1 0x1 OR SWAP1 SSTORE PUSH1 0x2 DUP1 SLOAD SWAP1 DUP5 ADD SLOAD PUSH1 0x1 PUSH1 0x1 PUSH1 0xA0 SHL SUB SWAP1 SWAP2 AND SWAP1 PUSH4 0xA9059CBB SWAP1 CALLER SWAP1 PUSH2 0x92A SWAP1 DUP6 SWAP1 PUSH2 0x203B JUMP JUMPDEST PUSH1 0x40 MLOAD PUSH1 0x1 PUSH1 0x1 PUSH1 0xE0 SHL SUB NOT PUSH1 0xE0 DUP6 SWAP1 SHL AND DUP2 MSTORE PUSH1 0x1 PUSH1 0x1 PUSH1 0xA0 SHL SUB SWAP1 SWAP3 AND PUSH1 0x4 DUP4 ADD MSTORE PUSH1 0x24 DUP3 ADD MSTORE PUSH1 0x44 ADD PUSH1 0x20 PUSH1 0x40 MLOAD DUP1 DUP4 SUB DUP2 PUSH0 DUP8 GAS CALL ISZERO DUP1 ISZERO PUSH2 0x972 JUMPI RETURNDATASIZE PUSH0 DUP1 RETURNDATACOPY RETURNDATASIZE PUSH0 REVERT JUMPDEST POP POP POP POP PUSH1 0x40 MLOAD RETURNDATASIZE PUSH1 0x1F NOT PUSH1 0x1F DUP3 ADD AND DUP3 ADD DUP1 PUSH1 0x40 MSTORE POP DUP2 ADD SWAP1 PUSH2 0x996 SWAP2 SWAP1 PUSH2 0x204E JUMP JUMPDEST PUSH2 0x9DA JUMPI PUSH1 0x40 MLOAD PUSH3 0x461BCD PUSH1 0xE5 SHL DUP2 MSTORE PUSH1 0x20 PUSH1 0x4 DUP3 ADD MSTORE PUSH1 0x15 PUSH1 0x24 DUP3 ADD MSTORE PUSH21 0x151BDAD95B881D1C985B9CD9995C8819985A5B1959 PUSH1 0x5A SHL PUSH1 0x44 DUP3 ADD MSTORE PUSH1 0x64 ADD PUSH2 0x734 JUMP JUMPDEST PUSH1 0x1 DUP4 ADD SLOAD PUSH1 0x2 DUP5 ADD SLOAD PUSH1 0x40 DUP1 MLOAD SWAP3 DUP4 MSTORE PUSH1 0x20 DUP4 ADD SWAP2 SWAP1 SWAP2 MSTORE DUP2 ADD DUP3 SWAP1 MSTORE CALLER SWAP1 PUSH32 0x9CDCF2F7714CCA3508C7F0110B04A90A80A3A8DD0E35DE99689DB74D28C5383E SWAP1 PUSH1 0x60 ADD PUSH1 0x40 MLOAD DUP1 SWAP2 SUB SWAP1 LOG2 POP POP POP POP POP POP POP JUMP JUMPDEST POP PUSH1 0x1 ADD PUSH2 0x7A7 JUMP JUMPDEST POP PUSH1 0x40 MLOAD PUSH3 0x461BCD PUSH1 0xE5 SHL DUP2 MSTORE PUSH1 0x20 PUSH1 0x4 DUP3 ADD MSTORE PUSH1 0x24 DUP1 DUP3 ADD MSTORE PUSH32 0x5374616B65206E6F7420666F756E6420666F7220676976656E20706F73697469 PUSH1 0x44 DUP3 ADD MSTORE PUSH4 0x1BDB9259 PUSH1 0xE2 SHL PUSH1 0x64 DUP3 ADD MSTORE PUSH1 0x84 ADD PUSH2 0x734 JUMP JUMPDEST PUSH0 SLOAD PUSH1 0x1 PUSH1 0x1 PUSH1 0xA0 SHL SUB AND CALLER EQ PUSH2 0xAE7 JUMPI PUSH1 0x40 MLOAD PUSH3 0x461BCD PUSH1 0xE5 SHL DUP2 MSTORE PUSH1 0x20 PUSH1 0x4 DUP3 ADD MSTORE PUSH1 0x17 PUSH1 0x24 DUP3 ADD MSTORE PUSH32 0x4F6E6C79206F776E65722063616E207769746864726177000000000000000000 PUSH1 0x44 DUP3 ADD MSTORE PUSH1 0x64 ADD PUSH2 0x734 JUMP JUMPDEST PUSH1 0x2 SLOAD PUSH0 SLOAD PUSH1 0x40 MLOAD PUSH4 0xA9059CBB PUSH1 0xE0 SHL DUP2 MSTORE PUSH1 0x1 PUSH1 0x1 PUSH1 0xA0 SHL SUB SWAP2 DUP3 AND PUSH1 0x4 DUP3 ADD MSTORE PUSH1 0x24 DUP2 ADD DUP5 SWAP1 MSTORE SWAP2 AND SWAP1 PUSH4 0xA9059CBB SWAP1 PUSH1 0x44 ADD PUSH1 0x20 PUSH1 0x40 MLOAD DUP1 DUP4 SUB DUP2 PUSH0 DUP8 GAS CALL ISZERO DUP1 ISZERO PUSH2 0xB38 JUMPI RETURNDATASIZE PUSH0 DUP1 RETURNDATACOPY RETURNDATASIZE PUSH0 REVERT JUMPDEST POP POP POP POP PUSH1 0x40 MLOAD RETURNDATASIZE PUSH1 0x1F NOT PUSH1 0x1F DUP3 ADD AND DUP3 ADD DUP1 PUSH1 0x40 MSTORE POP DUP2 ADD SWAP1 PUSH2 0xB5C SWAP2 SWAP1 PUSH2 0x204E JUMP JUMPDEST POP POP JUMP JUMPDEST CALLER PUSH0 SWAP1 DUP2 MSTORE PUSH1 0x3 PUSH1 0x20 MSTORE PUSH1 0x40 SWAP1 KECCAK256 PUSH1 0x4 ADD SLOAD PUSH1 0xFF AND ISZERO PUSH2 0xBB7 JUMPI PUSH1 0x40 MLOAD PUSH3 0x461BCD PUSH1 0xE5 SHL DUP2 MSTORE PUSH1 0x20 PUSH1 0x4 DUP3 ADD MSTORE PUSH1 0x12 PUSH1 0x24 DUP3 ADD MSTORE PUSH18 0x105B1C9958591E481C9959DA5CDD195C9959 PUSH1 0x72 SHL PUSH1 0x44 DUP3 ADD MSTORE PUSH1 0x64 ADD PUSH2 0x734 JUMP JUMPDEST CALLER PUSH1 0x1 PUSH1 0x1 PUSH1 0xA0 SHL SUB DUP3 AND SUB PUSH2 0xC07 JUMPI PUSH1 0x40 MLOAD PUSH3 0x461BCD PUSH1 0xE5 SHL DUP2 MSTORE PUSH1 0x20 PUSH1 0x4 DUP3 ADD MSTORE PUSH1 0x15 PUSH1 0x24 DUP3 ADD MSTORE PUSH21 0x21B0B73737BA103932B332B9103CB7BAB939B2B633 PUSH1 0x59 SHL PUSH1 0x44 DUP3 ADD MSTORE PUSH1 0x64 ADD PUSH2 0x734 JUMP JUMPDEST PUSH1 0x1 PUSH1 0x1 PUSH1 0xA0 SHL SUB DUP2 AND PUSH0 SWAP1 DUP2 MSTORE PUSH1 0x3 PUSH1 0x20 MSTORE PUSH1 0x40 SWAP1 KECCAK256 PUSH1 0x4 ADD SLOAD PUSH1 0xFF AND PUSH2 0xC71 JUMPI PUSH1 0x40 MLOAD PUSH3 0x461BCD PUSH1 0xE5 SHL DUP2 MSTORE PUSH1 0x20 PUSH1 0x4 DUP3 ADD MSTORE PUSH1 0x17 PUSH1 0x24 DUP3 ADD MSTORE PUSH32 0x5265666572726572206E6F742072656769737465726564000000000000000000 PUSH1 0x44 DUP3 ADD MSTORE PUSH1 0x64 ADD PUSH2 0x734 JUMP JUMPDEST CALLER PUSH0 DUP2 DUP2 MSTORE PUSH1 0x3 PUSH1 0x20 DUP2 DUP2 MSTORE PUSH1 0x40 DUP1 DUP5 KECCAK256 DUP1 SLOAD PUSH1 0x1 PUSH1 0x1 PUSH1 0xA0 SHL SUB SWAP8 DUP9 AND PUSH1 0x1 PUSH1 0x1 PUSH1 0xA0 SHL SUB NOT SWAP2 DUP3 AND DUP2 OR DUP4 SSTORE PUSH1 0x4 SWAP3 DUP4 ADD DUP1 SLOAD PUSH1 0xFF NOT AND PUSH1 0x1 SWAP1 DUP2 OR SWAP1 SWAP2 SSTORE PUSH1 0x8 DUP1 SLOAD DUP1 DUP4 ADD SWAP1 SWAP2 SSTORE PUSH32 0xF3F7A9FE364FAAB93B216DA50A3214154F22A0A2B415B23A84C8169E8B636EE3 ADD DUP1 SLOAD DUP5 AND DUP11 OR SWAP1 SSTORE SWAP1 DUP8 MSTORE SWAP2 DUP5 MSTORE DUP3 DUP7 KECCAK256 DUP4 MLOAD PUSH1 0x60 DUP2 ADD DUP6 MSTORE SWAP8 DUP9 MSTORE DUP8 DUP6 ADD DUP8 DUP2 MSTORE TIMESTAMP SWAP5 DUP10 ADD SWAP5 DUP6 MSTORE DUP2 SLOAD DUP1 DUP6 ADD DUP4 SSTORE SWAP2 DUP9 MSTORE SWAP5 SWAP1 SWAP7 KECCAK256 SWAP7 MLOAD SWAP6 SWAP1 SWAP5 MUL SWAP1 SWAP6 ADD DUP1 SLOAD SWAP5 SWAP1 SWAP7 AND SWAP4 SWAP1 SWAP3 AND SWAP3 SWAP1 SWAP3 OR DUP5 SSTORE SWAP1 MLOAD SWAP2 DUP4 ADD SWAP2 SWAP1 SWAP2 SSTORE MLOAD PUSH1 0x2 SWAP1 SWAP2 ADD SSTORE JUMP JUMPDEST PUSH0 DUP2 DUP2 MSTORE PUSH1 0x5 PUSH1 0x20 MSTORE PUSH1 0x40 DUP2 KECCAK256 SLOAD DUP2 SWAP1 DUP2 SWAP1 DUP2 SWAP1 DUP2 SWAP1 DUP2 SWAP1 DUP2 SWAP1 DUP2 SWAP1 PUSH1 0x1 PUSH1 0x1 PUSH1 0xA0 SHL SUB AND DUP1 PUSH2 0xDA7 JUMPI PUSH1 0x40 MLOAD PUSH3 0x461BCD PUSH1 0xE5 SHL DUP2 MSTORE PUSH1 0x20 PUSH1 0x4 DUP3 ADD MSTORE PUSH1 0x12 PUSH1 0x24 DUP3 ADD MSTORE PUSH18 0x125B9D985B1A59081C1BDCDA5D1A5BDB9259 PUSH1 0x72 SHL PUSH1 0x44 DUP3 ADD MSTORE PUSH1 0x64 ADD PUSH2 0x734 JUMP JUMPDEST PUSH1 0x1 PUSH1 0x1 PUSH1 0xA0 SHL SUB DUP2 AND PUSH0 SWAP1 DUP2 MSTORE PUSH1 0x3 PUSH1 0x20 SWAP1 DUP2 MSTORE PUSH1 0x40 DUP1 DUP4 KECCAK256 PUSH1 0x1 ADD DUP1 SLOAD DUP3 MLOAD DUP2 DUP6 MUL DUP2 ADD DUP6 ADD SWAP1 SWAP4 MSTORE DUP1 DUP4 MSTORE SWAP2 SWAP3 SWAP1 SWAP2 SWAP1 DUP5 SWAP1 DUP5 ADD JUMPDEST DUP3 DUP3 LT ISZERO PUSH2 0xE4B JUMPI PUSH0 DUP5 DUP2 MSTORE PUSH1 0x20 SWAP1 DUP2 SWAP1 KECCAK256 PUSH1 0x40 DUP1 MLOAD PUSH1 0xC0 DUP2 ADD DUP3 MSTORE PUSH1 0x6 DUP7 MUL SWAP1 SWAP3 ADD DUP1 SLOAD DUP4 MSTORE PUSH1 0x1 DUP1 DUP3 ADD SLOAD DUP5 DUP7 ADD MSTORE PUSH1 0x2 DUP3 ADD SLOAD SWAP3 DUP5 ADD SWAP3 SWAP1 SWAP3 MSTORE PUSH1 0x3 DUP2 ADD SLOAD PUSH1 0x60 DUP5 ADD MSTORE PUSH1 0x4 DUP2 ADD SLOAD PUSH1 0x80 DUP5 ADD MSTORE PUSH1 0x5 ADD SLOAD PUSH1 0xFF AND ISZERO ISZERO PUSH1 0xA0 DUP4 ADD MSTORE SWAP1 DUP4 MSTORE SWAP1 SWAP3 ADD SWAP2 ADD PUSH2 0xDDF JUMP JUMPDEST POP POP POP POP SWAP1 POP PUSH0 JUMPDEST DUP2 MLOAD DUP2 LT ISZERO PUSH2 0xF55 JUMPI DUP12 DUP3 DUP3 DUP2 MLOAD DUP2 LT PUSH2 0xE6F JUMPI PUSH2 0xE6F PUSH2 0x1FC4 JUMP JUMPDEST PUSH1 0x20 MUL PUSH1 0x20 ADD ADD MLOAD PUSH1 0x20 ADD MLOAD SUB PUSH2 0xF4D JUMPI PUSH0 DUP3 DUP3 DUP2 MLOAD DUP2 LT PUSH2 0xE93 JUMPI PUSH2 0xE93 PUSH2 0x1FC4 JUMP JUMPDEST PUSH1 0x20 MUL PUSH1 0x20 ADD ADD MLOAD SWAP1 POP PUSH0 PUSH1 0x6 PUSH0 DUP4 PUSH1 0x80 ADD MLOAD DUP2 MSTORE PUSH1 0x20 ADD SWAP1 DUP2 MSTORE PUSH1 0x20 ADD PUSH0 KECCAK256 SLOAD SWAP1 POP PUSH0 DUP3 PUSH1 0x80 ADD MLOAD PUSH1 0x64 DUP4 DUP6 PUSH1 0x40 ADD MLOAD PUSH2 0xECE SWAP2 SWAP1 PUSH2 0x2024 JUMP JUMPDEST PUSH2 0xED8 SWAP2 SWAP1 PUSH2 0x2005 JUMP JUMPDEST PUSH2 0xEE2 SWAP2 SWAP1 PUSH2 0x2005 JUMP JUMPDEST SWAP1 POP PUSH0 DUP4 PUSH1 0x80 ADD MLOAD PUSH3 0x15180 PUSH2 0xEF8 SWAP2 SWAP1 PUSH2 0x2024 JUMP JUMPDEST DUP5 PUSH1 0x60 ADD MLOAD PUSH2 0xF07 SWAP2 SWAP1 PUSH2 0x203B JUMP JUMPDEST SWAP1 POP PUSH0 DUP5 PUSH1 0xA0 ADD MLOAD ISZERO DUP1 ISZERO PUSH2 0xF1B JUMPI POP DUP2 TIMESTAMP LT JUMPDEST SWAP1 POP DUP8 DUP6 PUSH0 ADD MLOAD DUP7 PUSH1 0x40 ADD MLOAD DUP8 PUSH1 0x60 ADD MLOAD DUP6 DUP9 DUP9 DUP8 SWAP16 POP SWAP16 POP SWAP16 POP SWAP16 POP SWAP16 POP SWAP16 POP SWAP16 POP SWAP16 POP POP POP POP POP POP POP POP POP PUSH2 0xF90 JUMP JUMPDEST PUSH1 0x1 ADD PUSH2 0xE53 JUMP JUMPDEST POP PUSH1 0x40 MLOAD PUSH3 0x461BCD PUSH1 0xE5 SHL DUP2 MSTORE PUSH1 0x20 PUSH1 0x4 DUP3 ADD MSTORE PUSH1 0xF PUSH1 0x24 DUP3 ADD MSTORE PUSH15 0x14DD185AD9481B9BDD08199BDD5B99 PUSH1 0x8A SHL PUSH1 0x44 DUP3 ADD MSTORE PUSH1 0x64 ADD PUSH2 0x734 JUMP JUMPDEST SWAP2 SWAP4 SWAP6 SWAP8 POP SWAP2 SWAP4 SWAP6 SWAP8 JUMP JUMPDEST CALLER PUSH0 SWAP1 DUP2 MSTORE PUSH1 0x3 PUSH1 0x20 MSTORE PUSH1 0x40 SWAP1 KECCAK256 PUSH1 0x4 ADD SLOAD PUSH1 0xFF AND PUSH2 0xFED JUMPI PUSH1 0x40 MLOAD PUSH3 0x461BCD PUSH1 0xE5 SHL DUP2 MSTORE PUSH1 0x20 PUSH1 0x4 DUP3 ADD MSTORE PUSH1 0xE PUSH1 0x24 DUP3 ADD MSTORE PUSH14 0x139BDD081C9959DA5CDD195C9959 PUSH1 0x92 SHL PUSH1 0x44 DUP3 ADD MSTORE PUSH1 0x64 ADD PUSH2 0x734 JUMP JUMPDEST PUSH0 DUP2 GT PUSH2 0x1048 JUMPI PUSH1 0x40 MLOAD PUSH3 0x461BCD PUSH1 0xE5 SHL DUP2 MSTORE PUSH1 0x20 PUSH1 0x4 DUP3 ADD MSTORE PUSH1 0x23 PUSH1 0x24 DUP3 ADD MSTORE PUSH32 0x5374616B6520616D6F756E74206D757374206265206772656174657220746861 PUSH1 0x44 DUP3 ADD MSTORE PUSH3 0x6E203 PUSH1 0xEC SHL PUSH1 0x64 DUP3 ADD MSTORE PUSH1 0x84 ADD PUSH2 0x734 JUMP JUMPDEST PUSH0 DUP3 DUP2 MSTORE PUSH1 0x6 PUSH1 0x20 MSTORE PUSH1 0x40 SWAP1 KECCAK256 SLOAD PUSH2 0x109D JUMPI PUSH1 0x40 MLOAD PUSH3 0x461BCD PUSH1 0xE5 SHL DUP2 MSTORE PUSH1 0x20 PUSH1 0x4 DUP3 ADD MSTORE PUSH1 0x18 PUSH1 0x24 DUP3 ADD MSTORE PUSH24 0x24B73B30B634B21039BA30B5B4B73390323AB930BA34B7B7 PUSH1 0x41 SHL PUSH1 0x44 DUP3 ADD MSTORE PUSH1 0x64 ADD PUSH2 0x734 JUMP JUMPDEST PUSH1 0x2 SLOAD PUSH1 0x40 MLOAD PUSH4 0x23B872DD PUSH1 0xE0 SHL DUP2 MSTORE CALLER PUSH1 0x4 DUP3 ADD MSTORE ADDRESS PUSH1 0x24 DUP3 ADD MSTORE PUSH1 0x44 DUP2 ADD DUP4 SWAP1 MSTORE PUSH0 SWAP2 PUSH1 0x1 PUSH1 0x1 PUSH1 0xA0 SHL SUB AND SWAP1 PUSH4 0x23B872DD SWAP1 PUSH1 0x64 ADD PUSH1 0x20 PUSH1 0x40 MLOAD DUP1 DUP4 SUB DUP2 PUSH0 DUP8 GAS CALL ISZERO DUP1 ISZERO PUSH2 0x10F1 JUMPI RETURNDATASIZE PUSH0 DUP1 RETURNDATACOPY RETURNDATASIZE PUSH0 REVERT JUMPDEST POP POP POP POP PUSH1 0x40 MLOAD RETURNDATASIZE PUSH1 0x1F NOT PUSH1 0x1F DUP3 ADD AND DUP3 ADD DUP1 PUSH1 0x40 MSTORE POP DUP2 ADD SWAP1 PUSH2 0x1115 SWAP2 SWAP1 PUSH2 0x204E JUMP JUMPDEST SWAP1 POP DUP1 PUSH2 0x115B JUMPI PUSH1 0x40 MLOAD PUSH3 0x461BCD PUSH1 0xE5 SHL DUP2 MSTORE PUSH1 0x20 PUSH1 0x4 DUP3 ADD MSTORE PUSH1 0x14 PUSH1 0x24 DUP3 ADD MSTORE PUSH20 0x1554D115081D1C985B9CD9995C8819985A5B1959 PUSH1 0x62 SHL PUSH1 0x44 DUP3 ADD MSTORE PUSH1 0x64 ADD PUSH2 0x734 JUMP JUMPDEST PUSH0 PUSH1 0x1 PUSH0 DUP2 SLOAD PUSH2 0x116A SWAP1 PUSH2 0x206D JUMP JUMPDEST SWAP2 SWAP1 POP DUP2 SWAP1 SSTORE SWAP1 POP PUSH1 0x3 PUSH0 CALLER PUSH1 0x1 PUSH1 0x1 PUSH1 0xA0 SHL SUB AND PUSH1 0x1 PUSH1 0x1 PUSH1 0xA0 SHL SUB AND DUP2 MSTORE PUSH1 0x20 ADD SWAP1 DUP2 MSTORE PUSH1 0x20 ADD PUSH0 KECCAK256 PUSH1 0x1 ADD PUSH1 0x40 MLOAD DUP1 PUSH1 0xC0 ADD PUSH1 0x40 MSTORE DUP1 PUSH1 0x1 SLOAD DUP2 MSTORE PUSH1 0x20 ADD DUP4 DUP2 MSTORE PUSH1 0x20 ADD DUP6 DUP2 MSTORE PUSH1 0x20 ADD TIMESTAMP DUP2 MSTORE PUSH1 0x20 ADD DUP7 DUP2 MSTORE PUSH1 0x20 ADD PUSH0 ISZERO ISZERO DUP2 MSTORE POP SWAP1 DUP1 PUSH1 0x1 DUP2 SLOAD ADD DUP1 DUP3 SSTORE DUP1 SWAP2 POP POP PUSH1 0x1 SWAP1 SUB SWAP1 PUSH0 MSTORE PUSH1 0x20 PUSH0 KECCAK256 SWAP1 PUSH1 0x6 MUL ADD PUSH0 SWAP1 SWAP2 SWAP1 SWAP2 SWAP1 SWAP2 POP PUSH0 DUP3 ADD MLOAD DUP2 PUSH0 ADD SSTORE PUSH1 0x20 DUP3 ADD MLOAD DUP2 PUSH1 0x1 ADD SSTORE PUSH1 0x40 DUP3 ADD MLOAD DUP2 PUSH1 0x2 ADD SSTORE PUSH1 0x60 DUP3 ADD MLOAD DUP2 PUSH1 0x3 ADD SSTORE PUSH1 0x80 DUP3 ADD MLOAD DUP2 PUSH1 0x4 ADD SSTORE PUSH1 0xA0 DUP3 ADD MLOAD DUP2 PUSH1 0x5 ADD PUSH0 PUSH2 0x100 EXP DUP2 SLOAD DUP2 PUSH1 0xFF MUL NOT AND SWAP1 DUP4 ISZERO ISZERO MUL OR SWAP1 SSTORE POP POP POP CALLER PUSH1 0x5 PUSH0 DUP4 DUP2 MSTORE PUSH1 0x20 ADD SWAP1 DUP2 MSTORE PUSH1 0x20 ADD PUSH0 KECCAK256 PUSH0 PUSH2 0x100 EXP DUP2 SLOAD DUP2 PUSH1 0x1 PUSH1 0x1 PUSH1 0xA0 SHL SUB MUL NOT AND SWAP1 DUP4 PUSH1 0x1 PUSH1 0x1 PUSH1 0xA0 SHL SUB AND MUL OR SWAP1 SSTORE POP PUSH0 PUSH1 0x3 PUSH0 CALLER PUSH1 0x1 PUSH1 0x1 PUSH1 0xA0 SHL SUB AND PUSH1 0x1 PUSH1 0x1 PUSH1 0xA0 SHL SUB AND DUP2 MSTORE PUSH1 0x20 ADD SWAP1 DUP2 MSTORE PUSH1 0x20 ADD PUSH0 KECCAK256 PUSH0 ADD PUSH0 SWAP1 SLOAD SWAP1 PUSH2 0x100 EXP SWAP1 DIV PUSH1 0x1 PUSH1 0x1 PUSH1 0xA0 SHL SUB AND SWAP1 POP PUSH0 JUMPDEST PUSH1 0x5 DUP2 PUSH1 0xFF AND LT DUP1 ISZERO PUSH2 0x12CD JUMPI POP PUSH1 0x1 PUSH1 0x1 PUSH1 0xA0 SHL SUB DUP3 AND ISZERO ISZERO JUMPDEST ISZERO PUSH2 0x15FA JUMPI PUSH0 PUSH1 0x64 PUSH1 0x9 DUP4 PUSH1 0xFF AND PUSH1 0x5 DUP2 LT PUSH2 0x12EB JUMPI PUSH2 0x12EB PUSH2 0x1FC4 JUMP JUMPDEST PUSH1 0x20 DUP2 DIV SWAP2 SWAP1 SWAP2 ADD SLOAD PUSH2 0x130A SWAP2 PUSH1 0x1F AND PUSH2 0x100 EXP SWAP1 DIV PUSH1 0xFF AND DUP9 PUSH2 0x2024 JUMP JUMPDEST PUSH2 0x1314 SWAP2 SWAP1 PUSH2 0x2005 JUMP JUMPDEST PUSH1 0x2 SLOAD PUSH1 0x40 MLOAD PUSH4 0x70A08231 PUSH1 0xE0 SHL DUP2 MSTORE ADDRESS PUSH1 0x4 DUP3 ADD MSTORE SWAP2 SWAP3 POP DUP3 SWAP2 PUSH1 0x1 PUSH1 0x1 PUSH1 0xA0 SHL SUB SWAP1 SWAP2 AND SWAP1 PUSH4 0x70A08231 SWAP1 PUSH1 0x24 ADD PUSH1 0x20 PUSH1 0x40 MLOAD DUP1 DUP4 SUB DUP2 DUP7 GAS STATICCALL ISZERO DUP1 ISZERO PUSH2 0x135F JUMPI RETURNDATASIZE PUSH0 DUP1 RETURNDATACOPY RETURNDATASIZE PUSH0 REVERT JUMPDEST POP POP POP POP PUSH1 0x40 MLOAD RETURNDATASIZE PUSH1 0x1F NOT PUSH1 0x1F DUP3 ADD AND DUP3 ADD DUP1 PUSH1 0x40 MSTORE POP DUP2 ADD SWAP1 PUSH2 0x1383 SWAP2 SWAP1 PUSH2 0x2085 JUMP JUMPDEST LT ISZERO PUSH2 0x13D1 JUMPI PUSH1 0x40 MLOAD PUSH3 0x461BCD PUSH1 0xE5 SHL DUP2 MSTORE PUSH1 0x20 PUSH1 0x4 DUP3 ADD MSTORE PUSH1 0x1D PUSH1 0x24 DUP3 ADD MSTORE PUSH32 0x496E73756666696369656E7420636F6E74726163742062616C616E6365000000 PUSH1 0x44 DUP3 ADD MSTORE PUSH1 0x64 ADD PUSH2 0x734 JUMP JUMPDEST PUSH1 0x2 SLOAD PUSH1 0x40 MLOAD PUSH4 0xA9059CBB PUSH1 0xE0 SHL DUP2 MSTORE PUSH1 0x1 PUSH1 0x1 PUSH1 0xA0 SHL SUB DUP6 DUP2 AND PUSH1 0x4 DUP4 ADD MSTORE PUSH1 0x24 DUP3 ADD DUP5 SWAP1 MSTORE PUSH0 SWAP3 AND SWAP1 PUSH4 0xA9059CBB SWAP1 PUSH1 0x44 ADD PUSH1 0x20 PUSH1 0x40 MLOAD DUP1 DUP4 SUB DUP2 PUSH0 DUP8 GAS CALL ISZERO DUP1 ISZERO PUSH2 0x1421 JUMPI RETURNDATASIZE PUSH0 DUP1 RETURNDATACOPY RETURNDATASIZE PUSH0 REVERT JUMPDEST POP POP POP POP PUSH1 0x40 MLOAD RETURNDATASIZE PUSH1 0x1F NOT PUSH1 0x1F DUP3 ADD AND DUP3 ADD DUP1 PUSH1 0x40 MSTORE POP DUP2 ADD SWAP1 PUSH2 0x1445 SWAP2 SWAP1 PUSH2 0x204E JUMP JUMPDEST SWAP1 POP DUP1 PUSH2 0x148D JUMPI PUSH1 0x40 MLOAD PUSH3 0x461BCD PUSH1 0xE5 SHL DUP2 MSTORE PUSH1 0x20 PUSH1 0x4 DUP3 ADD MSTORE PUSH1 0x16 PUSH1 0x24 DUP3 ADD MSTORE PUSH22 0x14995DD85C99081D1C985B9CD9995C8819985A5B1959 PUSH1 0x52 SHL PUSH1 0x44 DUP3 ADD MSTORE PUSH1 0x64 ADD PUSH2 0x734 JUMP JUMPDEST PUSH1 0x1 PUSH1 0x1 PUSH1 0xA0 SHL SUB DUP5 AND PUSH0 SWAP1 DUP2 MSTORE PUSH1 0x3 PUSH1 0x20 MSTORE PUSH1 0x40 DUP2 KECCAK256 PUSH1 0x2 ADD DUP1 SLOAD DUP5 SWAP3 SWAP1 PUSH2 0x14B7 SWAP1 DUP5 SWAP1 PUSH2 0x203B JUMP JUMPDEST SWAP1 SWAP2 SSTORE POP POP PUSH1 0xFF DUP4 AND PUSH0 SUB PUSH2 0x14F8 JUMPI PUSH1 0x1 PUSH1 0x1 PUSH1 0xA0 SHL SUB DUP5 AND PUSH0 SWAP1 DUP2 MSTORE PUSH1 0x7 PUSH1 0x20 MSTORE PUSH1 0x40 DUP2 KECCAK256 DUP1 SLOAD DUP5 SWAP3 SWAP1 PUSH2 0x14ED SWAP1 DUP5 SWAP1 PUSH2 0x203B JUMP JUMPDEST SWAP1 SWAP2 SSTORE POP PUSH2 0x1528 SWAP1 POP JUMP JUMPDEST PUSH1 0x1 PUSH1 0x1 PUSH1 0xA0 SHL SUB DUP5 AND PUSH0 SWAP1 DUP2 MSTORE PUSH1 0x3 PUSH1 0x20 DUP2 SWAP1 MSTORE PUSH1 0x40 DUP3 KECCAK256 ADD DUP1 SLOAD DUP5 SWAP3 SWAP1 PUSH2 0x1522 SWAP1 DUP5 SWAP1 PUSH2 0x203B JUMP JUMPDEST SWAP1 SWAP2 SSTORE POP POP JUMPDEST PUSH1 0x1 PUSH1 0x1 PUSH1 0xA0 SHL SUB DUP5 AND PUSH0 SWAP1 DUP2 MSTORE PUSH1 0x4 PUSH1 0x20 MSTORE PUSH1 0x40 DUP2 KECCAK256 SWAP1 JUMPDEST DUP2 SLOAD DUP2 LT ISZERO PUSH2 0x15C7 JUMPI CALLER PUSH1 0x1 PUSH1 0x1 PUSH1 0xA0 SHL SUB AND DUP3 DUP3 DUP2 SLOAD DUP2 LT PUSH2 0x1566 JUMPI PUSH2 0x1566 PUSH2 0x1FC4 JUMP JUMPDEST PUSH0 SWAP2 DUP3 MSTORE PUSH1 0x20 SWAP1 SWAP2 KECCAK256 PUSH1 0x3 SWAP1 SWAP2 MUL ADD SLOAD PUSH1 0x1 PUSH1 0x1 PUSH1 0xA0 SHL SUB AND SUB PUSH2 0x15BF JUMPI DUP4 DUP3 DUP3 DUP2 SLOAD DUP2 LT PUSH2 0x1597 JUMPI PUSH2 0x1597 PUSH2 0x1FC4 JUMP JUMPDEST SWAP1 PUSH0 MSTORE PUSH1 0x20 PUSH0 KECCAK256 SWAP1 PUSH1 0x3 MUL ADD PUSH1 0x1 ADD PUSH0 DUP3 DUP3 SLOAD PUSH2 0x15B4 SWAP2 SWAP1 PUSH2 0x203B JUMP JUMPDEST SWAP1 SWAP2 SSTORE POP PUSH2 0x15C7 SWAP1 POP JUMP JUMPDEST PUSH1 0x1 ADD PUSH2 0x1541 JUMP JUMPDEST POP POP POP PUSH1 0x1 PUSH1 0x1 PUSH1 0xA0 SHL SUB SWAP3 DUP4 AND PUSH0 SWAP1 DUP2 MSTORE PUSH1 0x3 PUSH1 0x20 MSTORE PUSH1 0x40 SWAP1 KECCAK256 SLOAD SWAP1 SWAP3 AND SWAP2 POP DUP1 PUSH2 0x15F2 DUP2 PUSH2 0x209C JUMP JUMPDEST SWAP2 POP POP PUSH2 0x12B2 JUMP JUMPDEST POP POP POP POP POP POP JUMP JUMPDEST PUSH1 0x1 PUSH1 0x1 PUSH1 0xA0 SHL SUB DUP2 AND PUSH0 SWAP1 DUP2 MSTORE PUSH1 0x4 PUSH1 0x20 MSTORE PUSH1 0x40 SWAP1 KECCAK256 DUP1 SLOAD PUSH1 0x60 SWAP2 DUP3 SWAP2 DUP3 SWAP2 SWAP1 DUP1 PUSH8 0xFFFFFFFFFFFFFFFF DUP2 GT ISZERO PUSH2 0x163C JUMPI PUSH2 0x163C PUSH2 0x1FB0 JUMP JUMPDEST PUSH1 0x40 MLOAD SWAP1 DUP1 DUP3 MSTORE DUP1 PUSH1 0x20 MUL PUSH1 0x20 ADD DUP3 ADD PUSH1 0x40 MSTORE DUP1 ISZERO PUSH2 0x1665 JUMPI DUP2 PUSH1 0x20 ADD PUSH1 0x20 DUP3 MUL DUP1 CALLDATASIZE DUP4 CALLDATACOPY ADD SWAP1 POP JUMPDEST POP SWAP5 POP DUP1 PUSH8 0xFFFFFFFFFFFFFFFF DUP2 GT ISZERO PUSH2 0x1681 JUMPI PUSH2 0x1681 PUSH2 0x1FB0 JUMP JUMPDEST PUSH1 0x40 MLOAD SWAP1 DUP1 DUP3 MSTORE DUP1 PUSH1 0x20 MUL PUSH1 0x20 ADD DUP3 ADD PUSH1 0x40 MSTORE DUP1 ISZERO PUSH2 0x16AA JUMPI DUP2 PUSH1 0x20 ADD PUSH1 0x20 DUP3 MUL DUP1 CALLDATASIZE DUP4 CALLDATACOPY ADD SWAP1 POP JUMPDEST POP SWAP4 POP DUP1 PUSH8 0xFFFFFFFFFFFFFFFF DUP2 GT ISZERO PUSH2 0x16C6 JUMPI PUSH2 0x16C6 PUSH2 0x1FB0 JUMP JUMPDEST PUSH1 0x40 MLOAD SWAP1 DUP1 DUP3 MSTORE DUP1 PUSH1 0x20 MUL PUSH1 0x20 ADD DUP3 ADD PUSH1 0x40 MSTORE DUP1 ISZERO PUSH2 0x16EF JUMPI DUP2 PUSH1 0x20 ADD PUSH1 0x20 DUP3 MUL DUP1 CALLDATASIZE DUP4 CALLDATACOPY ADD SWAP1 POP JUMPDEST POP SWAP3 POP PUSH0 JUMPDEST DUP2 DUP2 LT ISZERO PUSH2 0x17E5 JUMPI DUP3 DUP2 DUP2 SLOAD DUP2 LT PUSH2 0x170E JUMPI PUSH2 0x170E PUSH2 0x1FC4 JUMP JUMPDEST PUSH0 SWAP2 DUP3 MSTORE PUSH1 0x20 SWAP1 SWAP2 KECCAK256 PUSH1 0x3 SWAP1 SWAP2 MUL ADD SLOAD DUP7 MLOAD PUSH1 0x1 PUSH1 0x1 PUSH1 0xA0 SHL SUB SWAP1 SWAP2 AND SWAP1 DUP8 SWAP1 DUP4 SWAP1 DUP2 LT PUSH2 0x173E JUMPI PUSH2 0x173E PUSH2 0x1FC4 JUMP JUMPDEST PUSH1 0x20 MUL PUSH1 0x20 ADD ADD SWAP1 PUSH1 0x1 PUSH1 0x1 PUSH1 0xA0 SHL SUB AND SWAP1 DUP2 PUSH1 0x1 PUSH1 0x1 PUSH1 0xA0 SHL SUB AND DUP2 MSTORE POP POP DUP3 DUP2 DUP2 SLOAD DUP2 LT PUSH2 0x1770 JUMPI PUSH2 0x1770 PUSH2 0x1FC4 JUMP JUMPDEST SWAP1 PUSH0 MSTORE PUSH1 0x20 PUSH0 KECCAK256 SWAP1 PUSH1 0x3 MUL ADD PUSH1 0x1 ADD SLOAD DUP6 DUP3 DUP2 MLOAD DUP2 LT PUSH2 0x1792 JUMPI PUSH2 0x1792 PUSH2 0x1FC4 JUMP JUMPDEST PUSH1 0x20 MUL PUSH1 0x20 ADD ADD DUP2 DUP2 MSTORE POP POP DUP3 DUP2 DUP2 SLOAD DUP2 LT PUSH2 0x17B0 JUMPI PUSH2 0x17B0 PUSH2 0x1FC4 JUMP JUMPDEST SWAP1 PUSH0 MSTORE PUSH1 0x20 PUSH0 KECCAK256 SWAP1 PUSH1 0x3 MUL ADD PUSH1 0x2 ADD SLOAD DUP5 DUP3 DUP2 MLOAD DUP2 LT PUSH2 0x17D2 JUMPI PUSH2 0x17D2 PUSH2 0x1FC4 JUMP JUMPDEST PUSH1 0x20 SWAP1 DUP2 MUL SWAP2 SWAP1 SWAP2 ADD ADD MSTORE PUSH1 0x1 ADD PUSH2 0x16F4 JUMP JUMPDEST POP POP POP SWAP2 SWAP4 SWAP1 SWAP3 POP JUMP JUMPDEST PUSH1 0x8 DUP2 DUP2 SLOAD DUP2 LT PUSH2 0x17FE JUMPI PUSH0 DUP1 REVERT JUMPDEST PUSH0 SWAP2 DUP3 MSTORE PUSH1 0x20 SWAP1 SWAP2 KECCAK256 ADD SLOAD PUSH1 0x1 PUSH1 0x1 PUSH1 0xA0 SHL SUB AND SWAP1 POP DUP2 JUMP JUMPDEST PUSH0 DUP1 PUSH0 DUP5 GT PUSH2 0x1868 JUMPI PUSH1 0x40 MLOAD PUSH3 0x461BCD PUSH1 0xE5 SHL DUP2 MSTORE PUSH1 0x20 PUSH1 0x4 DUP3 ADD MSTORE PUSH1 0x1D PUSH1 0x24 DUP3 ADD MSTORE PUSH32 0x416D6F756E74206D7573742062652067726561746572207468616E2030000000 PUSH1 0x44 DUP3 ADD MSTORE PUSH1 0x64 ADD PUSH2 0x734 JUMP JUMPDEST PUSH0 DUP4 DUP2 MSTORE PUSH1 0x6 PUSH1 0x20 MSTORE PUSH1 0x40 SWAP1 KECCAK256 SLOAD PUSH2 0x18BD JUMPI PUSH1 0x40 MLOAD PUSH3 0x461BCD PUSH1 0xE5 SHL DUP2 MSTORE PUSH1 0x20 PUSH1 0x4 DUP3 ADD MSTORE PUSH1 0x18 PUSH1 0x24 DUP3 ADD MSTORE PUSH24 0x24B73B30B634B21039BA30B5B4B73390323AB930BA34B7B7 PUSH1 0x41 SHL PUSH1 0x44 DUP3 ADD MSTORE PUSH1 0x64 ADD PUSH2 0x734 JUMP JUMPDEST PUSH0 DUP4 DUP2 MSTORE PUSH1 0x6 PUSH1 0x20 MSTORE PUSH1 0x40 SWAP1 KECCAK256 SLOAD PUSH2 0x8E94 DUP5 PUSH2 0x18D9 DUP4 DUP9 PUSH2 0x2024 JUMP JUMPDEST PUSH2 0x18E3 SWAP2 SWAP1 PUSH2 0x2024 JUMP JUMPDEST PUSH2 0x18ED SWAP2 SWAP1 PUSH2 0x2005 JUMP JUMPDEST SWAP3 POP PUSH2 0x18F9 DUP4 DUP7 PUSH2 0x203B JUMP JUMPDEST SWAP2 POP POP SWAP3 POP SWAP3 SWAP1 POP JUMP JUMPDEST PUSH1 0x9 DUP2 PUSH1 0x5 DUP2 LT PUSH2 0x1912 JUMPI PUSH0 DUP1 REVERT JUMPDEST PUSH1 0x20 SWAP2 DUP3 DUP3 DIV ADD SWAP2 SWAP1 MOD SWAP2 POP SLOAD SWAP1 PUSH2 0x100 EXP SWAP1 DIV PUSH1 0xFF AND DUP2 JUMP JUMPDEST PUSH1 0x60 PUSH0 DUP1 JUMPDEST PUSH1 0x8 SLOAD DUP2 LT ISZERO PUSH2 0x1AA9 JUMPI PUSH0 PUSH1 0x8 DUP3 DUP2 SLOAD DUP2 LT PUSH2 0x194F JUMPI PUSH2 0x194F PUSH2 0x1FC4 JUMP JUMPDEST PUSH0 SWAP2 DUP3 MSTORE PUSH1 0x20 DUP1 DUP4 KECCAK256 SWAP1 SWAP2 ADD SLOAD PUSH1 0x1 PUSH1 0x1 PUSH1 0xA0 SHL SUB AND DUP1 DUP4 MSTORE PUSH1 0x3 DUP3 MSTORE PUSH1 0x40 DUP1 DUP5 KECCAK256 PUSH1 0x1 ADD DUP1 SLOAD DUP3 MLOAD DUP2 DUP7 MUL DUP2 ADD DUP7 ADD SWAP1 SWAP4 MSTORE DUP1 DUP4 MSTORE SWAP3 SWAP6 POP SWAP1 SWAP3 SWAP1 SWAP2 SWAP1 DUP5 SWAP1 DUP5 ADD JUMPDEST DUP3 DUP3 LT ISZERO PUSH2 0x19FE JUMPI PUSH0 DUP5 DUP2 MSTORE PUSH1 0x20 SWAP1 DUP2 SWAP1 KECCAK256 PUSH1 0x40 DUP1 MLOAD PUSH1 0xC0 DUP2 ADD DUP3 MSTORE PUSH1 0x6 DUP7 MUL SWAP1 SWAP3 ADD DUP1 SLOAD DUP4 MSTORE PUSH1 0x1 DUP1 DUP3 ADD SLOAD DUP5 DUP7 ADD MSTORE PUSH1 0x2 DUP3 ADD SLOAD SWAP3 DUP5 ADD SWAP3 SWAP1 SWAP3 MSTORE PUSH1 0x3 DUP2 ADD SLOAD PUSH1 0x60 DUP5 ADD MSTORE PUSH1 0x4 DUP2 ADD SLOAD PUSH1 0x80 DUP5 ADD MSTORE PUSH1 0x5 ADD SLOAD PUSH1 0xFF AND ISZERO ISZERO PUSH1 0xA0 DUP4 ADD MSTORE SWAP1 DUP4 MSTORE SWAP1 SWAP3 ADD SWAP2 ADD PUSH2 0x1992 JUMP JUMPDEST POP POP POP POP PUSH1 0x1 PUSH1 0x1 PUSH1 0xA0 SHL SUB DUP4 DUP2 AND PUSH0 SWAP1 DUP2 MSTORE PUSH1 0x3 PUSH1 0x20 MSTORE PUSH1 0x40 DUP2 KECCAK256 SLOAD SWAP3 SWAP4 POP SWAP2 AND SWAP1 JUMPDEST PUSH1 0x5 DUP2 PUSH1 0xFF AND LT DUP1 ISZERO PUSH2 0x1A3D JUMPI POP PUSH1 0x1 PUSH1 0x1 PUSH1 0xA0 SHL SUB DUP3 AND ISZERO ISZERO JUMPDEST ISZERO PUSH2 0x1A99 JUMPI DUP8 PUSH1 0x1 PUSH1 0x1 PUSH1 0xA0 SHL SUB AND DUP3 PUSH1 0x1 PUSH1 0x1 PUSH1 0xA0 SHL SUB AND SUB PUSH2 0x1A6A JUMPI DUP3 MLOAD PUSH2 0x1A67 SWAP1 DUP8 PUSH2 0x203B JUMP JUMPDEST SWAP6 POP JUMPDEST PUSH1 0x1 PUSH1 0x1 PUSH1 0xA0 SHL SUB SWAP2 DUP3 AND PUSH0 SWAP1 DUP2 MSTORE PUSH1 0x3 PUSH1 0x20 MSTORE PUSH1 0x40 SWAP1 KECCAK256 SLOAD SWAP1 SWAP2 AND SWAP1 DUP1 PUSH2 0x1A91 DUP2 PUSH2 0x209C JUMP JUMPDEST SWAP2 POP POP PUSH2 0x1A22 JUMP JUMPDEST POP POP PUSH1 0x1 SWAP1 SWAP3 ADD SWAP2 POP PUSH2 0x1931 SWAP1 POP JUMP JUMPDEST POP PUSH0 DUP2 PUSH8 0xFFFFFFFFFFFFFFFF DUP2 GT ISZERO PUSH2 0x1AC4 JUMPI PUSH2 0x1AC4 PUSH2 0x1FB0 JUMP JUMPDEST PUSH1 0x40 MLOAD SWAP1 DUP1 DUP3 MSTORE DUP1 PUSH1 0x20 MUL PUSH1 0x20 ADD DUP3 ADD PUSH1 0x40 MSTORE DUP1 ISZERO PUSH2 0x1B43 JUMPI DUP2 PUSH1 0x20 ADD JUMPDEST PUSH2 0x1B30 PUSH1 0x40 MLOAD DUP1 PUSH1 0xE0 ADD PUSH1 0x40 MSTORE DUP1 PUSH0 PUSH1 0x1 PUSH1 0x1 PUSH1 0xA0 SHL SUB AND DUP2 MSTORE PUSH1 0x20 ADD PUSH0 DUP2 MSTORE PUSH1 0x20 ADD PUSH0 DUP2 MSTORE PUSH1 0x20 ADD PUSH0 DUP2 MSTORE PUSH1 0x20 ADD PUSH0 PUSH1 0x1 PUSH1 0x1 PUSH1 0xA0 SHL SUB AND DUP2 MSTORE PUSH1 0x20 ADD PUSH0 DUP2 MSTORE PUSH1 0x20 ADD PUSH0 PUSH1 0xFF AND DUP2 MSTORE POP SWAP1 JUMP JUMPDEST DUP2 MSTORE PUSH1 0x20 ADD SWAP1 PUSH1 0x1 SWAP1 SUB SWAP1 DUP2 PUSH2 0x1AE2 JUMPI SWAP1 POP JUMPDEST POP SWAP1 POP PUSH0 DUP1 JUMPDEST PUSH1 0x8 SLOAD DUP2 LT ISZERO PUSH2 0x1DB9 JUMPI PUSH0 PUSH1 0x8 DUP3 DUP2 SLOAD DUP2 LT PUSH2 0x1B67 JUMPI PUSH2 0x1B67 PUSH2 0x1FC4 JUMP JUMPDEST PUSH0 SWAP2 DUP3 MSTORE PUSH1 0x20 DUP1 DUP4 KECCAK256 SWAP1 SWAP2 ADD SLOAD PUSH1 0x1 PUSH1 0x1 PUSH1 0xA0 SHL SUB AND DUP1 DUP4 MSTORE PUSH1 0x3 DUP3 MSTORE PUSH1 0x40 DUP1 DUP5 KECCAK256 PUSH1 0x1 ADD DUP1 SLOAD DUP3 MLOAD DUP2 DUP7 MUL DUP2 ADD DUP7 ADD SWAP1 SWAP4 MSTORE DUP1 DUP4 MSTORE SWAP3 SWAP6 POP SWAP1 SWAP3 SWAP1 SWAP2 SWAP1 DUP5 SWAP1 DUP5 ADD JUMPDEST DUP3 DUP3 LT ISZERO PUSH2 0x1C16 JUMPI PUSH0 DUP5 DUP2 MSTORE PUSH1 0x20 SWAP1 DUP2 SWAP1 KECCAK256 PUSH1 0x40 DUP1 MLOAD PUSH1 0xC0 DUP2 ADD DUP3 MSTORE PUSH1 0x6 DUP7 MUL SWAP1 SWAP3 ADD DUP1 SLOAD DUP4 MSTORE PUSH1 0x1 DUP1 DUP3 ADD SLOAD DUP5 DUP7 ADD MSTORE PUSH1 0x2 DUP3 ADD SLOAD SWAP3 DUP5 ADD SWAP3 SWAP1 SWAP3 MSTORE PUSH1 0x3 DUP2 ADD SLOAD PUSH1 0x60 DUP5 ADD MSTORE PUSH1 0x4 DUP2 ADD SLOAD PUSH1 0x80 DUP5 ADD MSTORE PUSH1 0x5 ADD SLOAD PUSH1 0xFF AND ISZERO ISZERO PUSH1 0xA0 DUP4 ADD MSTORE SWAP1 DUP4 MSTORE SWAP1 SWAP3 ADD SWAP2 ADD PUSH2 0x1BAA JUMP JUMPDEST POP POP POP POP PUSH1 0x1 PUSH1 0x1 PUSH1 0xA0 SHL SUB DUP4 DUP2 AND PUSH0 SWAP1 DUP2 MSTORE PUSH1 0x3 PUSH1 0x20 MSTORE PUSH1 0x40 DUP2 KECCAK256 SLOAD SWAP3 SWAP4 POP SWAP2 AND SWAP1 JUMPDEST PUSH1 0x5 DUP2 PUSH1 0xFF AND LT DUP1 ISZERO PUSH2 0x1C55 JUMPI POP PUSH1 0x1 PUSH1 0x1 PUSH1 0xA0 SHL SUB DUP3 AND ISZERO ISZERO JUMPDEST ISZERO PUSH2 0x1DA9 JUMPI DUP10 PUSH1 0x1 PUSH1 0x1 PUSH1 0xA0 SHL SUB AND DUP3 PUSH1 0x1 PUSH1 0x1 PUSH1 0xA0 SHL SUB AND SUB PUSH2 0x1D7A JUMPI PUSH0 JUMPDEST DUP4 MLOAD DUP2 LT ISZERO PUSH2 0x1D78 JUMPI PUSH0 DUP5 DUP3 DUP2 MLOAD DUP2 LT PUSH2 0x1C91 JUMPI PUSH2 0x1C91 PUSH2 0x1FC4 JUMP JUMPDEST PUSH1 0x20 MUL PUSH1 0x20 ADD ADD MLOAD SWAP1 POP PUSH0 PUSH1 0x64 PUSH1 0x9 DUP6 PUSH1 0xFF AND PUSH1 0x5 DUP2 LT PUSH2 0x1CB4 JUMPI PUSH2 0x1CB4 PUSH2 0x1FC4 JUMP JUMPDEST PUSH1 0x20 SWAP2 DUP3 DUP3 DIV ADD SWAP2 SWAP1 MOD SWAP1 SLOAD SWAP1 PUSH2 0x100 EXP SWAP1 DIV PUSH1 0xFF AND PUSH1 0xFF AND DUP4 PUSH1 0x40 ADD MLOAD PUSH2 0x1CDC SWAP2 SWAP1 PUSH2 0x2024 JUMP JUMPDEST PUSH2 0x1CE6 SWAP2 SWAP1 PUSH2 0x2005 JUMP JUMPDEST SWAP1 POP PUSH1 0x40 MLOAD DUP1 PUSH1 0xE0 ADD PUSH1 0x40 MSTORE DUP1 DUP15 PUSH1 0x1 PUSH1 0x1 PUSH1 0xA0 SHL SUB AND DUP2 MSTORE PUSH1 0x20 ADD DUP4 PUSH0 ADD MLOAD DUP2 MSTORE PUSH1 0x20 ADD DUP4 PUSH1 0x40 ADD MLOAD DUP2 MSTORE PUSH1 0x20 ADD DUP3 DUP2 MSTORE PUSH1 0x20 ADD DUP9 PUSH1 0x1 PUSH1 0x1 PUSH1 0xA0 SHL SUB AND DUP2 MSTORE PUSH1 0x20 ADD DUP4 PUSH1 0x60 ADD MLOAD DUP2 MSTORE PUSH1 0x20 ADD DUP6 PUSH1 0x1 PUSH2 0x1D41 SWAP2 SWAP1 PUSH2 0x20BA JUMP JUMPDEST PUSH1 0xFF AND SWAP1 MSTORE DUP11 DUP11 PUSH2 0x1D51 DUP2 PUSH2 0x206D JUMP JUMPDEST SWAP12 POP DUP2 MLOAD DUP2 LT PUSH2 0x1D63 JUMPI PUSH2 0x1D63 PUSH2 0x1FC4 JUMP JUMPDEST PUSH1 0x20 SWAP1 DUP2 MUL SWAP2 SWAP1 SWAP2 ADD ADD MSTORE POP POP PUSH1 0x1 ADD PUSH2 0x1C75 JUMP JUMPDEST POP JUMPDEST PUSH1 0x1 PUSH1 0x1 PUSH1 0xA0 SHL SUB SWAP2 DUP3 AND PUSH0 SWAP1 DUP2 MSTORE PUSH1 0x3 PUSH1 0x20 MSTORE PUSH1 0x40 SWAP1 KECCAK256 SLOAD SWAP1 SWAP2 AND SWAP1 DUP1 PUSH2 0x1DA1 DUP2 PUSH2 0x209C JUMP JUMPDEST SWAP2 POP POP PUSH2 0x1C3A JUMP JUMPDEST POP POP PUSH1 0x1 SWAP1 SWAP3 ADD SWAP2 POP PUSH2 0x1B49 SWAP1 POP JUMP JUMPDEST POP SWAP1 SWAP5 SWAP4 POP POP POP POP JUMP JUMPDEST DUP1 CALLDATALOAD PUSH1 0x1 PUSH1 0x1 PUSH1 0xA0 SHL SUB DUP2 AND DUP2 EQ PUSH2 0x1DD9 JUMPI PUSH0 DUP1 REVERT JUMPDEST SWAP2 SWAP1 POP JUMP JUMPDEST PUSH0 DUP1 PUSH1 0x40 DUP4 DUP6 SUB SLT ISZERO PUSH2 0x1DEF JUMPI PUSH0 DUP1 REVERT JUMPDEST PUSH2 0x1DF8 DUP4 PUSH2 0x1DC3 JUMP JUMPDEST SWAP5 PUSH1 0x20 SWAP4 SWAP1 SWAP4 ADD CALLDATALOAD SWAP4 POP POP POP JUMP JUMPDEST PUSH0 PUSH1 0x20 DUP3 DUP5 SUB SLT ISZERO PUSH2 0x1E16 JUMPI PUSH0 DUP1 REVERT JUMPDEST POP CALLDATALOAD SWAP2 SWAP1 POP JUMP JUMPDEST PUSH0 PUSH1 0x20 DUP3 DUP5 SUB SLT ISZERO PUSH2 0x1E2D JUMPI PUSH0 DUP1 REVERT JUMPDEST PUSH2 0x1E36 DUP3 PUSH2 0x1DC3 JUMP JUMPDEST SWAP4 SWAP3 POP POP POP JUMP JUMPDEST PUSH0 DUP2 MLOAD DUP1 DUP5 MSTORE PUSH1 0x20 DUP1 DUP6 ADD SWAP5 POP PUSH1 0x20 DUP5 ADD PUSH0 JUMPDEST DUP4 DUP2 LT ISZERO PUSH2 0x1E6C JUMPI DUP2 MLOAD DUP8 MSTORE SWAP6 DUP3 ADD SWAP6 SWAP1 DUP3 ADD SWAP1 PUSH1 0x1 ADD PUSH2 0x1E50 JUMP JUMPDEST POP SWAP5 SWAP6 SWAP5 POP POP POP POP POP JUMP JUMPDEST PUSH1 0x20 DUP2 MSTORE PUSH0 PUSH2 0x1E36 PUSH1 0x20 DUP4 ADD DUP5 PUSH2 0x1E3D JUMP JUMPDEST PUSH0 DUP1 PUSH1 0x40 DUP4 DUP6 SUB SLT ISZERO PUSH2 0x1E9A JUMPI PUSH0 DUP1 REVERT JUMPDEST POP POP DUP1 CALLDATALOAD SWAP3 PUSH1 0x20 SWAP1 SWAP2 ADD CALLDATALOAD SWAP2 POP JUMP JUMPDEST PUSH1 0x60 DUP1 DUP3 MSTORE DUP5 MLOAD SWAP1 DUP3 ADD DUP2 SWAP1 MSTORE PUSH0 SWAP1 PUSH1 0x20 SWAP1 PUSH1 0x80 DUP5 ADD SWAP1 DUP3 DUP9 ADD DUP5 JUMPDEST DUP3 DUP2 LT ISZERO PUSH2 0x1EEA JUMPI DUP2 MLOAD PUSH1 0x1 PUSH1 0x1 PUSH1 0xA0 SHL SUB AND DUP5 MSTORE SWAP3 DUP5 ADD SWAP3 SWAP1 DUP5 ADD SWAP1 PUSH1 0x1 ADD PUSH2 0x1EC5 JUMP JUMPDEST POP POP POP DUP4 DUP2 SUB PUSH1 0x20 DUP6 ADD MSTORE PUSH2 0x1EFF DUP2 DUP8 PUSH2 0x1E3D JUMP JUMPDEST SWAP2 POP POP DUP3 DUP2 SUB PUSH1 0x40 DUP5 ADD MSTORE PUSH2 0x1F14 DUP2 DUP6 PUSH2 0x1E3D JUMP JUMPDEST SWAP7 SWAP6 POP POP POP POP POP POP JUMP JUMPDEST PUSH1 0x20 DUP1 DUP3 MSTORE DUP3 MLOAD DUP3 DUP3 ADD DUP2 SWAP1 MSTORE PUSH0 SWAP2 SWAP1 PUSH1 0x40 SWAP1 DUP2 DUP6 ADD SWAP1 DUP7 DUP5 ADD DUP6 JUMPDEST DUP3 DUP2 LT ISZERO PUSH2 0x1FA3 JUMPI DUP2 MLOAD DUP1 MLOAD PUSH1 0x1 PUSH1 0x1 PUSH1 0xA0 SHL SUB SWAP1 DUP2 AND DUP7 MSTORE DUP8 DUP3 ADD MLOAD DUP9 DUP8 ADD MSTORE DUP7 DUP3 ADD MLOAD DUP8 DUP8 ADD MSTORE PUSH1 0x60 DUP1 DUP4 ADD MLOAD SWAP1 DUP8 ADD MSTORE PUSH1 0x80 DUP1 DUP4 ADD MLOAD SWAP1 SWAP2 AND SWAP1 DUP7 ADD MSTORE PUSH1 0xA0 DUP1 DUP3 ADD MLOAD SWAP1 DUP7 ADD MSTORE PUSH1 0xC0 SWAP1 DUP2 ADD MLOAD PUSH1 0xFF AND SWAP1 DUP6 ADD MSTORE PUSH1 0xE0 SWAP1 SWAP4 ADD SWAP3 SWAP1 DUP6 ADD SWAP1 PUSH1 0x1 ADD PUSH2 0x1F3A JUMP JUMPDEST POP SWAP2 SWAP8 SWAP7 POP POP POP POP POP POP POP JUMP JUMPDEST PUSH4 0x4E487B71 PUSH1 0xE0 SHL PUSH0 MSTORE PUSH1 0x41 PUSH1 0x4 MSTORE PUSH1 0x24 PUSH0 REVERT JUMPDEST PUSH4 0x4E487B71 PUSH1 0xE0 SHL PUSH0 MSTORE PUSH1 0x32 PUSH1 0x4 MSTORE PUSH1 0x24 PUSH0 REVERT JUMPDEST PUSH4 0x4E487B71 PUSH1 0xE0 SHL PUSH0 MSTORE PUSH1 0x11 PUSH1 0x4 MSTORE PUSH1 0x24 PUSH0 REVERT JUMPDEST DUP2 DUP2 SUB DUP2 DUP2 GT ISZERO PUSH2 0x1FFF JUMPI PUSH2 0x1FFF PUSH2 0x1FD8 JUMP JUMPDEST SWAP3 SWAP2 POP POP JUMP JUMPDEST PUSH0 DUP3 PUSH2 0x201F JUMPI PUSH4 0x4E487B71 PUSH1 0xE0 SHL PUSH0 MSTORE PUSH1 0x12 PUSH1 0x4 MSTORE PUSH1 0x24 PUSH0 REVERT JUMPDEST POP DIV SWAP1 JUMP JUMPDEST DUP1 DUP3 MUL DUP2 ISZERO DUP3 DUP3 DIV DUP5 EQ OR PUSH2 0x1FFF JUMPI PUSH2 0x1FFF PUSH2 0x1FD8 JUMP JUMPDEST DUP1 DUP3 ADD DUP1 DUP3 GT ISZERO PUSH2 0x1FFF JUMPI PUSH2 0x1FFF PUSH2 0x1FD8 JUMP JUMPDEST PUSH0 PUSH1 0x20 DUP3 DUP5 SUB SLT ISZERO PUSH2 0x205E JUMPI PUSH0 DUP1 REVERT JUMPDEST DUP2 MLOAD DUP1 ISZERO ISZERO DUP2 EQ PUSH2 0x1E36 JUMPI PUSH0 DUP1 REVERT JUMPDEST PUSH0 PUSH1 0x1 DUP3 ADD PUSH2 0x207E JUMPI PUSH2 0x207E PUSH2 0x1FD8 JUMP JUMPDEST POP PUSH1 0x1 ADD SWAP1 JUMP JUMPDEST PUSH0 PUSH1 0x20 DUP3 DUP5 SUB SLT ISZERO PUSH2 0x2095 JUMPI PUSH0 DUP1 REVERT JUMPDEST POP MLOAD SWAP2 SWAP1 POP JUMP JUMPDEST PUSH0 PUSH1 0xFF DUP3 AND PUSH1 0xFF DUP2 SUB PUSH2 0x20B1 JUMPI PUSH2 0x20B1 PUSH2 0x1FD8 JUMP JUMPDEST PUSH1 0x1 ADD SWAP3 SWAP2 POP POP JUMP JUMPDEST PUSH1 0xFF DUP2 DUP2 AND DUP4 DUP3 AND ADD SWAP1 DUP2 GT ISZERO PUSH2 0x1FFF JUMPI PUSH2 0x1FFF PUSH2 0x1FD8 JUMP INVALID LOG2 PUSH5 0x6970667358 0x22 SLT KECCAK256 0xA7 0xE2 PUSH28 0x7EFE0522E2DFB626D1DC7FF88CCA5123CC429D97FA42BF430066840C PUSH11 0x64736F6C63430008190033 "
				},
				"gasEstimates": {
					"creation": {
						"codeDepositCost": "1691400",
						"executionCost": "infinite",
						"totalCost": "infinite"
					},
					"external": {
						"allUsers(uint256)": "4701",
						"claim(uint256)": "infinite",
						"directReferralIncome(address)": "2604",
						"directReferrals(address,uint256)": "9081",
						"getDirectReferralCount(address)": "2645",
						"getDirectReferralIncome(address)": "2623",
						"getEstimatedReturn(uint256,uint256)": "infinite",
						"getLevelIncome(address)": "2614",
						"getLevelIncomeDistribution(address)": "infinite",
						"getPositionIds(address)": "infinite",
						"getReferralIncomeDetails(address)": "infinite",
						"getStakeByPositionId(uint256)": "infinite",
						"getTotalIncome(address)": "2585",
						"getTotalLevelIncome(address)": "2635",
						"getTotalUsers()": "2337",
						"getUserLevel(address)": "2706",
						"isRegistered(address)": "2619",
						"levelRewards(uint256)": "4127",
						"owner()": "2424",
						"positionIdToUser(uint256)": "2520",
						"register(address)": "177654",
						"stake(uint256,uint256)": "infinite",
						"stakeCounter()": "2404",
						"stakingAPY(uint256)": "2502",
						"usdtToken()": "2403",
						"users(address)": "9026",
						"withdrawUSDT(uint256)": "infinite"
					}
				},
				"methodIdentifiers": {
					"allUsers(uint256)": "a2bdedf4",
					"claim(uint256)": "379607f5",
					"directReferralIncome(address)": "f6e88873",
					"directReferrals(address,uint256)": "05ad3935",
					"getDirectReferralCount(address)": "98278efb",
					"getDirectReferralIncome(address)": "aa7ed462",
					"getEstimatedReturn(uint256,uint256)": "bd297178",
					"getLevelIncome(address)": "5bd4e16a",
					"getLevelIncomeDistribution(address)": "ef71ae56",
					"getPositionIds(address)": "28fe7031",
					"getReferralIncomeDetails(address)": "9d747bad",
					"getStakeByPositionId(uint256)": "797c7f5f",
					"getTotalIncome(address)": "c2d3c677",
					"getTotalLevelIncome(address)": "c5b89c0a",
					"getTotalUsers()": "9be572f6",
					"getUserLevel(address)": "21923bde",
					"isRegistered(address)": "c3c5a547",
					"levelRewards(uint256)": "e45a57d0",
					"owner()": "8da5cb5b",
					"positionIdToUser(uint256)": "1e43eb27",
					"register(address)": "4420e486",
					"stake(uint256,uint256)": "7b0472f0",
					"stakeCounter()": "f7b17d10",
					"stakingAPY(uint256)": "875bb4e2",
					"usdtToken()": "a98ad46c",
					"users(address)": "a87430ba",
					"withdrawUSDT(uint256)": "3ea521ef"
				}
			},
			"storageLayout": {
				"storage": [
					{
						"astId": 31,
						"contract": "contracts/roy.sol:MLMStakingUSDT",
						"label": "owner",
						"offset": 0,
						"slot": "0",
						"type": "t_address"
					},
					{
						"astId": 33,
						"contract": "contracts/roy.sol:MLMStakingUSDT",
						"label": "stakeCounter",
						"offset": 0,
						"slot": "1",
						"type": "t_uint256"
					},
					{
						"astId": 36,
						"contract": "contracts/roy.sol:MLMStakingUSDT",
						"label": "usdtToken",
						"offset": 0,
						"slot": "2",
						"type": "t_contract(IERC20)29"
					},
					{
						"astId": 137,
						"contract": "contracts/roy.sol:MLMStakingUSDT",
						"label": "users",
						"offset": 0,
						"slot": "3",
						"type": "t_mapping(t_address,t_struct(User)117_storage)"
					},
					{
						"astId": 143,
						"contract": "contracts/roy.sol:MLMStakingUSDT",
						"label": "directReferrals",
						"offset": 0,
						"slot": "4",
						"type": "t_mapping(t_address,t_array(t_struct(ReferralInfo)104_storage)dyn_storage)"
					},
					{
						"astId": 147,
						"contract": "contracts/roy.sol:MLMStakingUSDT",
						"label": "positionIdToUser",
						"offset": 0,
						"slot": "5",
						"type": "t_mapping(t_uint256,t_address)"
					},
					{
						"astId": 151,
						"contract": "contracts/roy.sol:MLMStakingUSDT",
						"label": "stakingAPY",
						"offset": 0,
						"slot": "6",
						"type": "t_mapping(t_uint256,t_uint256)"
					},
					{
						"astId": 155,
						"contract": "contracts/roy.sol:MLMStakingUSDT",
						"label": "directReferralIncome",
						"offset": 0,
						"slot": "7",
						"type": "t_mapping(t_address,t_uint256)"
					},
					{
						"astId": 158,
						"contract": "contracts/roy.sol:MLMStakingUSDT",
						"label": "allUsers",
						"offset": 0,
						"slot": "8",
						"type": "t_array(t_address)dyn_storage"
					},
					{
						"astId": 168,
						"contract": "contracts/roy.sol:MLMStakingUSDT",
						"label": "levelRewards",
						"offset": 0,
						"slot": "9",
						"type": "t_array(t_uint8)5_storage"
					}
				],
				"types": {
					"t_address": {
						"encoding": "inplace",
						"label": "address",
						"numberOfBytes": "20"
					},
					"t_array(t_address)dyn_storage": {
						"base": "t_address",
						"encoding": "dynamic_array",
						"label": "address[]",
						"numberOfBytes": "32"
					},
					"t_array(t_struct(ReferralInfo)104_storage)dyn_storage": {
						"base": "t_struct(ReferralInfo)104_storage",
						"encoding": "dynamic_array",
						"label": "struct MLMStakingUSDT.ReferralInfo[]",
						"numberOfBytes": "32"
					},
					"t_array(t_struct(Stake)97_storage)dyn_storage": {
						"base": "t_struct(Stake)97_storage",
						"encoding": "dynamic_array",
						"label": "struct MLMStakingUSDT.Stake[]",
						"numberOfBytes": "32"
					},
					"t_array(t_uint8)5_storage": {
						"base": "t_uint8",
						"encoding": "inplace",
						"label": "uint8[5]",
						"numberOfBytes": "32"
					},
					"t_bool": {
						"encoding": "inplace",
						"label": "bool",
						"numberOfBytes": "1"
					},
					"t_contract(IERC20)29": {
						"encoding": "inplace",
						"label": "contract IERC20",
						"numberOfBytes": "20"
					},
					"t_mapping(t_address,t_array(t_struct(ReferralInfo)104_storage)dyn_storage)": {
						"encoding": "mapping",
						"key": "t_address",
						"label": "mapping(address => struct MLMStakingUSDT.ReferralInfo[])",
						"numberOfBytes": "32",
						"value": "t_array(t_struct(ReferralInfo)104_storage)dyn_storage"
					},
					"t_mapping(t_address,t_struct(User)117_storage)": {
						"encoding": "mapping",
						"key": "t_address",
						"label": "mapping(address => struct MLMStakingUSDT.User)",
						"numberOfBytes": "32",
						"value": "t_struct(User)117_storage"
					},
					"t_mapping(t_address,t_uint256)": {
						"encoding": "mapping",
						"key": "t_address",
						"label": "mapping(address => uint256)",
						"numberOfBytes": "32",
						"value": "t_uint256"
					},
					"t_mapping(t_uint256,t_address)": {
						"encoding": "mapping",
						"key": "t_uint256",
						"label": "mapping(uint256 => address)",
						"numberOfBytes": "32",
						"value": "t_address"
					},
					"t_mapping(t_uint256,t_uint256)": {
						"encoding": "mapping",
						"key": "t_uint256",
						"label": "mapping(uint256 => uint256)",
						"numberOfBytes": "32",
						"value": "t_uint256"
					},
					"t_struct(ReferralInfo)104_storage": {
						"encoding": "inplace",
						"label": "struct MLMStakingUSDT.ReferralInfo",
						"members": [
							{
								"astId": 99,
								"contract": "contracts/roy.sol:MLMStakingUSDT",
								"label": "referralAddress",
								"offset": 0,
								"slot": "0",
								"type": "t_address"
							},
							{
								"astId": 101,
								"contract": "contracts/roy.sol:MLMStakingUSDT",
								"label": "incomeEarned",
								"offset": 0,
								"slot": "1",
								"type": "t_uint256"
							},
							{
								"astId": 103,
								"contract": "contracts/roy.sol:MLMStakingUSDT",
								"label": "timestamp",
								"offset": 0,
								"slot": "2",
								"type": "t_uint256"
							}
						],
						"numberOfBytes": "96"
					},
					"t_struct(Stake)97_storage": {
						"encoding": "inplace",
						"label": "struct MLMStakingUSDT.Stake",
						"members": [
							{
								"astId": 86,
								"contract": "contracts/roy.sol:MLMStakingUSDT",
								"label": "stakeId",
								"offset": 0,
								"slot": "0",
								"type": "t_uint256"
							},
							{
								"astId": 88,
								"contract": "contracts/roy.sol:MLMStakingUSDT",
								"label": "positionId",
								"offset": 0,
								"slot": "1",
								"type": "t_uint256"
							},
							{
								"astId": 90,
								"contract": "contracts/roy.sol:MLMStakingUSDT",
								"label": "amount",
								"offset": 0,
								"slot": "2",
								"type": "t_uint256"
							},
							{
								"astId": 92,
								"contract": "contracts/roy.sol:MLMStakingUSDT",
								"label": "timestamp",
								"offset": 0,
								"slot": "3",
								"type": "t_uint256"
							},
							{
								"astId": 94,
								"contract": "contracts/roy.sol:MLMStakingUSDT",
								"label": "numDays",
								"offset": 0,
								"slot": "4",
								"type": "t_uint256"
							},
							{
								"astId": 96,
								"contract": "contracts/roy.sol:MLMStakingUSDT",
								"label": "claimed",
								"offset": 0,
								"slot": "5",
								"type": "t_bool"
							}
						],
						"numberOfBytes": "192"
					},
					"t_struct(User)117_storage": {
						"encoding": "inplace",
						"label": "struct MLMStakingUSDT.User",
						"members": [
							{
								"astId": 106,
								"contract": "contracts/roy.sol:MLMStakingUSDT",
								"label": "referrer",
								"offset": 0,
								"slot": "0",
								"type": "t_address"
							},
							{
								"astId": 110,
								"contract": "contracts/roy.sol:MLMStakingUSDT",
								"label": "stakes",
								"offset": 0,
								"slot": "1",
								"type": "t_array(t_struct(Stake)97_storage)dyn_storage"
							},
							{
								"astId": 112,
								"contract": "contracts/roy.sol:MLMStakingUSDT",
								"label": "totalIncome",
								"offset": 0,
								"slot": "2",
								"type": "t_uint256"
							},
							{
								"astId": 114,
								"contract": "contracts/roy.sol:MLMStakingUSDT",
								"label": "levelIncome",
								"offset": 0,
								"slot": "3",
								"type": "t_uint256"
							},
							{
								"astId": 116,
								"contract": "contracts/roy.sol:MLMStakingUSDT",
								"label": "registered",
								"offset": 0,
								"slot": "4",
								"type": "t_bool"
							}
						],
						"numberOfBytes": "160"
					},
					"t_uint256": {
						"encoding": "inplace",
						"label": "uint256",
						"numberOfBytes": "32"
					},
					"t_uint8": {
						"encoding": "inplace",
						"label": "uint8",
						"numberOfBytes": "1"
					}
				}
			},
			"userdoc": {
				"kind": "user",
				"methods": {},
				"version": 1
			}
		}
	}
}