{
	"contracts/mlm.sol": {
		"MLMStaking": {
			"abi": [
				{
					"inputs": [
						{
							"internalType": "address",
							"name": "_owner",
							"type": "address"
						}
					],
					"stateMutability": "nonpayable",
					"type": "constructor"
				},
				{
					"anonymous": false,
					"inputs": [
						{
							"indexed": true,
							"internalType": "address",
							"name": "user",
							"type": "address"
						},
						{
							"indexed": true,
							"internalType": "address",
							"name": "referrer",
							"type": "address"
						}
					],
					"name": "Registered",
					"type": "event"
				},
				{
					"anonymous": false,
					"inputs": [
						{
							"indexed": true,
							"internalType": "address",
							"name": "user",
							"type": "address"
						},
						{
							"indexed": true,
							"internalType": "uint256",
							"name": "stakeId",
							"type": "uint256"
						},
						{
							"indexed": true,
							"internalType": "uint256",
							"name": "positionId",
							"type": "uint256"
						},
						{
							"indexed": false,
							"internalType": "uint256",
							"name": "amount",
							"type": "uint256"
						},
						{
							"indexed": false,
							"internalType": "uint256",
							"name": "timestamp",
							"type": "uint256"
						}
					],
					"name": "Staked",
					"type": "event"
				},
				{
					"inputs": [
						{
							"internalType": "address",
							"name": "",
							"type": "address"
						}
					],
					"name": "directReferralCount",
					"outputs": [
						{
							"internalType": "uint256",
							"name": "",
							"type": "uint256"
						}
					],
					"stateMutability": "view",
					"type": "function"
				},
				{
					"inputs": [
						{
							"internalType": "address",
							"name": "",
							"type": "address"
						}
					],
					"name": "directReferralIncome",
					"outputs": [
						{
							"internalType": "uint256",
							"name": "",
							"type": "uint256"
						}
					],
					"stateMutability": "view",
					"type": "function"
				},
				{
					"inputs": [
						{
							"internalType": "address",
							"name": "user",
							"type": "address"
						}
					],
					"name": "getDirectReferralCount",
					"outputs": [
						{
							"internalType": "uint256",
							"name": "",
							"type": "uint256"
						}
					],
					"stateMutability": "view",
					"type": "function"
				},
				{
					"inputs": [
						{
							"internalType": "address",
							"name": "user",
							"type": "address"
						}
					],
					"name": "getDirectReferralIncome",
					"outputs": [
						{
							"internalType": "uint256",
							"name": "",
							"type": "uint256"
						}
					],
					"stateMutability": "view",
					"type": "function"
				},
				{
					"inputs": [
						{
							"internalType": "address",
							"name": "_user",
							"type": "address"
						}
					],
					"name": "getPositionIds",
					"outputs": [
						{
							"internalType": "uint256[]",
							"name": "",
							"type": "uint256[]"
						}
					],
					"stateMutability": "view",
					"type": "function"
				},
				{
					"inputs": [
						{
							"internalType": "uint256",
							"name": "_positionId",
							"type": "uint256"
						}
					],
					"name": "getStakeByPositionId",
					"outputs": [
						{
							"internalType": "address",
							"name": "user",
							"type": "address"
						},
						{
							"internalType": "uint256",
							"name": "stakeId",
							"type": "uint256"
						},
						{
							"internalType": "uint256",
							"name": "amount",
							"type": "uint256"
						},
						{
							"internalType": "uint256",
							"name": "timestamp",
							"type": "uint256"
						}
					],
					"stateMutability": "view",
					"type": "function"
				},
				{
					"inputs": [
						{
							"internalType": "address",
							"name": "user",
							"type": "address"
						}
					],
					"name": "getTotalIncome",
					"outputs": [
						{
							"internalType": "uint256",
							"name": "",
							"type": "uint256"
						}
					],
					"stateMutability": "view",
					"type": "function"
				},
				{
					"inputs": [
						{
							"internalType": "address",
							"name": "user",
							"type": "address"
						}
					],
					"name": "getUserLevel",
					"outputs": [
						{
							"internalType": "uint256",
							"name": "",
							"type": "uint256"
						}
					],
					"stateMutability": "view",
					"type": "function"
				},
				{
					"inputs": [
						{
							"internalType": "uint256",
							"name": "",
							"type": "uint256"
						}
					],
					"name": "levelRewards",
					"outputs": [
						{
							"internalType": "uint8",
							"name": "",
							"type": "uint8"
						}
					],
					"stateMutability": "view",
					"type": "function"
				},
				{
					"inputs": [],
					"name": "nextPositionId",
					"outputs": [
						{
							"internalType": "uint256",
							"name": "",
							"type": "uint256"
						}
					],
					"stateMutability": "view",
					"type": "function"
				},
				{
					"inputs": [],
					"name": "nextStakeId",
					"outputs": [
						{
							"internalType": "uint256",
							"name": "",
							"type": "uint256"
						}
					],
					"stateMutability": "view",
					"type": "function"
				},
				{
					"inputs": [],
					"name": "owner",
					"outputs": [
						{
							"internalType": "address",
							"name": "",
							"type": "address"
						}
					],
					"stateMutability": "view",
					"type": "function"
				},
				{
					"inputs": [
						{
							"internalType": "uint256",
							"name": "",
							"type": "uint256"
						}
					],
					"name": "positionIdToUser",
					"outputs": [
						{
							"internalType": "address",
							"name": "",
							"type": "address"
						}
					],
					"stateMutability": "view",
					"type": "function"
				},
				{
					"inputs": [
						{
							"internalType": "address",
							"name": "_referrer",
							"type": "address"
						}
					],
					"name": "register",
					"outputs": [],
					"stateMutability": "nonpayable",
					"type": "function"
				},
				{
					"inputs": [],
					"name": "stake",
					"outputs": [],
					"stateMutability": "payable",
					"type": "function"
				},
				{
					"inputs": [
						{
							"internalType": "address",
							"name": "",
							"type": "address"
						}
					],
					"name": "totalIncome",
					"outputs": [
						{
							"internalType": "uint256",
							"name": "",
							"type": "uint256"
						}
					],
					"stateMutability": "view",
					"type": "function"
				},
				{
					"inputs": [
						{
							"internalType": "address",
							"name": "",
							"type": "address"
						}
					],
					"name": "users",
					"outputs": [
						{
							"internalType": "address",
							"name": "referrer",
							"type": "address"
						},
						{
							"internalType": "bool",
							"name": "registered",
							"type": "bool"
						}
					],
					"stateMutability": "view",
					"type": "function"
				},
				{
					"inputs": [
						{
							"internalType": "uint256",
							"name": "amount",
							"type": "uint256"
						}
					],
					"name": "withdraw",
					"outputs": [],
					"stateMutability": "nonpayable",
					"type": "function"
				},
				{
					"stateMutability": "payable",
					"type": "receive"
				}
			],
			"devdoc": {
				"kind": "dev",
				"methods": {},
				"version": 1
			},
			"evm": {
				"assembly": "    /* \"contracts/mlm.sol\":441:481  uint8[3] public levelRewards = [5, 3, 2] */\n  0xe0\n    /* \"contracts/mlm.sol\":57:5347  contract MLMStaking {... */\n  0x40\n    /* \"contracts/mlm.sol\":441:481  uint8[3] public levelRewards = [5, 3, 2] */\n  mstore\n    /* \"contracts/mlm.sol\":473:474  5 */\n  0x05\n    /* \"contracts/mlm.sol\":57:5347  contract MLMStaking {... */\n  0x80\n    /* \"contracts/mlm.sol\":441:481  uint8[3] public levelRewards = [5, 3, 2] */\n  swap1\n  dup2\n  mstore\n    /* \"contracts/mlm.sol\":476:477  3 */\n  0x03\n    /* \"contracts/mlm.sol\":441:481  uint8[3] public levelRewards = [5, 3, 2] */\n  0xa0\n  dup2\n  swap1\n  mstore\n    /* \"contracts/mlm.sol\":479:480  2 */\n  0x02\n    /* \"contracts/mlm.sol\":441:481  uint8[3] public levelRewards = [5, 3, 2] */\n  0xc0\n  mstore\n  tag_1\n  swap2\n    /* \"contracts/mlm.sol\":476:477  3 */\n  dup2\n    /* \"contracts/mlm.sol\":441:481  uint8[3] public levelRewards = [5, 3, 2] */\n  tag_2\n  jump\t// in\ntag_1:\n  pop\n    /* \"contracts/mlm.sol\":1042:1212  constructor(address _owner) {... */\n  callvalue\n  dup1\n  iszero\n  tag_3\n  jumpi\n  0x00\n  dup1\n  revert\ntag_3:\n  pop\n  mload(0x40)\n  sub(codesize, bytecodeSize)\n  dup1\n  bytecodeSize\n  dup4\n  codecopy\n  dup2\n  add\n  0x40\n  dup2\n  swap1\n  mstore\n  tag_4\n  swap2\n  tag_5\n  jump\t// in\ntag_4:\n  sub(shl(0xa0, 0x01), 0x01)\n    /* \"contracts/mlm.sol\":1088:1108  _owner != address(0) */\n  dup2\n  and\n    /* \"contracts/mlm.sol\":1080:1141  require(_owner != address(0), \"Owner address cannot be zero\") */\n  tag_8\n  jumpi\n  mload(0x40)\n  shl(0xe5, 0x461bcd)\n  dup2\n  mstore\n    /* \"#utility.yul\":511:513   */\n  0x20\n    /* \"contracts/mlm.sol\":1080:1141  require(_owner != address(0), \"Owner address cannot be zero\") */\n  0x04\n  dup3\n  add\n    /* \"#utility.yul\":493:514   */\n  mstore\n    /* \"#utility.yul\":550:552   */\n  0x1c\n    /* \"#utility.yul\":530:548   */\n  0x24\n  dup3\n  add\n    /* \"#utility.yul\":523:553   */\n  mstore\n    /* \"#utility.yul\":589:619   */\n  0x4f776e657220616464726573732063616e6e6f74206265207a65726f00000000\n    /* \"#utility.yul\":569:587   */\n  0x44\n  dup3\n  add\n    /* \"#utility.yul\":562:620   */\n  mstore\n    /* \"#utility.yul\":637:655   */\n  0x64\n  add\n    /* \"contracts/mlm.sol\":1080:1141  require(_owner != address(0), \"Owner address cannot be zero\") */\n  mload(0x40)\n  dup1\n  swap2\n  sub\n  swap1\n  revert\ntag_8:\n    /* \"contracts/mlm.sol\":1151:1156  owner */\n  0x00\n    /* \"contracts/mlm.sol\":1151:1165  owner = _owner */\n  dup1\n  sload\n  sub(shl(0xa0, 0x01), 0x01)\n  swap1\n  swap3\n  and\n  not(sub(shl(0xa0, 0x01), 0x01))\n  swap1\n  swap3\n  and\n  dup3\n  or\n  dup2\n  sstore\n    /* \"contracts/mlm.sol\":1175:1187  users[owner] */\n  swap1\n  dup2\n  mstore\n    /* \"contracts/mlm.sol\":1151:1165  owner = _owner */\n  0x01\n    /* \"contracts/mlm.sol\":1175:1187  users[owner] */\n  0x20\n  mstore\n  0x40\n  swap1\n  keccak256\n    /* \"contracts/mlm.sol\":1175:1205  users[owner].registered = true */\n  dup1\n  sload\n  not(shl(0xa0, 0xff))\n  and\n  shl(0xa0, 0x01)\n  or\n  swap1\n  sstore\n    /* \"contracts/mlm.sol\":57:5347  contract MLMStaking {... */\n  jump(tag_20)\ntag_2:\n  0x01\n  dup4\n  add\n  swap2\n  dup4\n  swap1\n  dup3\n  iszero\n  tag_12\n  jumpi\n  swap2\n  0x20\n  mul\n  dup3\n  add\n  0x00\ntag_13:\n  dup4\n  dup3\n  gt\n  iszero\n  tag_14\n  jumpi\n  dup4\n  mload\n  dup4\n  dup3\n  0x0100\n  exp\n  dup2\n  sload\n  dup2\n  0xff\n  mul\n  not\n  and\n  swap1\n  dup4\n  0xff\n  and\n  mul\n  or\n  swap1\n  sstore\n  pop\n  swap3\n  0x20\n  add\n  swap3\n  0x01\n  add\n  0x20\n  dup2\n  0x00\n  add\n  div\n  swap3\n  dup4\n  add\n  swap3\n  0x01\n  sub\n  mul\n  jump(tag_13)\ntag_14:\n  dup1\n  iszero\n  tag_15\n  jumpi\n  dup3\n  dup2\n  0x0100\n  exp\n  dup2\n  sload\n  swap1\n  0xff\n  mul\n  not\n  and\n  swap1\n  sstore\n  0x01\n  add\n  0x20\n  dup2\n  0x00\n  add\n  div\n  swap3\n  dup4\n  add\n  swap3\n  0x01\n  sub\n  mul\n  jump(tag_14)\ntag_15:\n  pop\ntag_12:\n  pop\n  tag_16\n  swap3\n  swap2\n  pop\n  tag_17\n  jump\t// in\ntag_16:\n  pop\n  swap1\n  jump\t// out\ntag_17:\ntag_18:\n  dup1\n  dup3\n  gt\n  iszero\n  tag_16\n  jumpi\n  0x00\n  dup2\n  sstore\n  0x01\n  add\n  jump(tag_18)\n    /* \"#utility.yul\":14:304   */\ntag_5:\n    /* \"#utility.yul\":84:90   */\n  0x00\n    /* \"#utility.yul\":137:139   */\n  0x20\n    /* \"#utility.yul\":125:134   */\n  dup3\n    /* \"#utility.yul\":116:123   */\n  dup5\n    /* \"#utility.yul\":112:135   */\n  sub\n    /* \"#utility.yul\":108:140   */\n  slt\n    /* \"#utility.yul\":105:157   */\n  iszero\n  tag_22\n  jumpi\n    /* \"#utility.yul\":153:154   */\n  0x00\n    /* \"#utility.yul\":150:151   */\n  dup1\n    /* \"#utility.yul\":143:155   */\n  revert\n    /* \"#utility.yul\":105:157   */\ntag_22:\n    /* \"#utility.yul\":179:195   */\n  dup2\n  mload\n  sub(shl(0xa0, 0x01), 0x01)\n    /* \"#utility.yul\":224:255   */\n  dup2\n  and\n    /* \"#utility.yul\":214:256   */\n  dup2\n  eq\n    /* \"#utility.yul\":204:274   */\n  tag_23\n  jumpi\n    /* \"#utility.yul\":270:271   */\n  0x00\n    /* \"#utility.yul\":267:268   */\n  dup1\n    /* \"#utility.yul\":260:272   */\n  revert\n    /* \"#utility.yul\":204:274   */\ntag_23:\n    /* \"#utility.yul\":293:298   */\n  swap4\n    /* \"#utility.yul\":14:304   */\n  swap3\n  pop\n  pop\n  pop\n  jump\t// out\n    /* \"#utility.yul\":309:661   */\ntag_20:\n    /* \"contracts/mlm.sol\":57:5347  contract MLMStaking {... */\n  dataSize(sub_0)\n  dup1\n  dataOffset(sub_0)\n  0x00\n  codecopy\n  0x00\n  return\nstop\n\nsub_0: assembly {\n        /* \"contracts/mlm.sol\":57:5347  contract MLMStaking {... */\n      mstore(0x40, 0x80)\n      jumpi(tag_1, lt(calldatasize, 0x04))\n      shr(0xe0, calldataload(0x00))\n      dup1\n      0x899346c7\n      gt\n      tag_21\n      jumpi\n      dup1\n      0xaa7ed462\n      gt\n      tag_22\n      jumpi\n      dup1\n      0xaa7ed462\n      eq\n      tag_16\n      jumpi\n      dup1\n      0xb77b7dc9\n      eq\n      tag_17\n      jumpi\n      dup1\n      0xc2d3c677\n      eq\n      tag_18\n      jumpi\n      dup1\n      0xe45a57d0\n      eq\n      tag_19\n      jumpi\n      dup1\n      0xf6e88873\n      eq\n      tag_20\n      jumpi\n      0x00\n      dup1\n      revert\n    tag_22:\n      dup1\n      0x899346c7\n      eq\n      tag_12\n      jumpi\n      dup1\n      0x8da5cb5b\n      eq\n      tag_13\n      jumpi\n      dup1\n      0x98278efb\n      eq\n      tag_14\n      jumpi\n      dup1\n      0xa87430ba\n      eq\n      tag_15\n      jumpi\n      0x00\n      dup1\n      revert\n    tag_21:\n      dup1\n      0x3a4b66f1\n      gt\n      tag_23\n      jumpi\n      dup1\n      0x3a4b66f1\n      eq\n      tag_7\n      jumpi\n      dup1\n      0x4420e486\n      eq\n      tag_8\n      jumpi\n      dup1\n      0x75506c96\n      eq\n      tag_9\n      jumpi\n      dup1\n      0x797c7f5f\n      eq\n      tag_10\n      jumpi\n      dup1\n      0x862ba05f\n      eq\n      tag_11\n      jumpi\n      0x00\n      dup1\n      revert\n    tag_23:\n      dup1\n      0x1e43eb27\n      eq\n      tag_3\n      jumpi\n      dup1\n      0x21923bde\n      eq\n      tag_4\n      jumpi\n      dup1\n      0x28fe7031\n      eq\n      tag_5\n      jumpi\n      dup1\n      0x2e1a7d4d\n      eq\n      tag_6\n      jumpi\n      0x00\n      dup1\n      revert\n    tag_1:\n      jumpi(tag_2, calldatasize)\n      stop\n    tag_2:\n      0x00\n      dup1\n      revert\n        /* \"contracts/mlm.sol\":383:434  mapping(uint256 => address) public positionIdToUser */\n    tag_3:\n      callvalue\n      dup1\n      iszero\n      tag_26\n      jumpi\n      0x00\n      dup1\n      revert\n    tag_26:\n      pop\n      tag_27\n      tag_28\n      calldatasize\n      0x04\n      tag_29\n      jump\t// in\n    tag_28:\n      mstore(0x20, 0x02)\n      0x00\n      swap1\n      dup2\n      mstore\n      0x40\n      swap1\n      keccak256\n      sload\n      sub(shl(0xa0, 0x01), 0x01)\n      and\n      dup2\n      jump\n    tag_27:\n      mload(0x40)\n      sub(shl(0xa0, 0x01), 0x01)\n        /* \"#utility.yul\":363:395   */\n      swap1\n      swap2\n      and\n        /* \"#utility.yul\":345:396   */\n      dup2\n      mstore\n        /* \"#utility.yul\":333:335   */\n      0x20\n        /* \"#utility.yul\":318:336   */\n      add\n        /* \"contracts/mlm.sol\":383:434  mapping(uint256 => address) public positionIdToUser */\n    tag_31:\n      mload(0x40)\n      dup1\n      swap2\n      sub\n      swap1\n      return\n        /* \"contracts/mlm.sol\":4116:4603  function getUserLevel(address user) external view returns (uint256) {... */\n    tag_4:\n      callvalue\n      dup1\n      iszero\n      tag_33\n      jumpi\n      0x00\n      dup1\n      revert\n    tag_33:\n      pop\n      tag_34\n      tag_35\n      calldatasize\n      0x04\n      tag_36\n      jump\t// in\n    tag_35:\n      tag_37\n      jump\t// in\n    tag_34:\n      mload(0x40)\n        /* \"#utility.yul\":844:869   */\n      swap1\n      dup2\n      mstore\n        /* \"#utility.yul\":832:834   */\n      0x20\n        /* \"#utility.yul\":817:835   */\n      add\n        /* \"contracts/mlm.sol\":4116:4603  function getUserLevel(address user) external view returns (uint256) {... */\n      tag_31\n        /* \"#utility.yul\":698:875   */\n      jump\n        /* \"contracts/mlm.sol\":3748:4113  function getPositionIds(address _user) external view returns (uint256[] memory) {... */\n    tag_5:\n      callvalue\n      dup1\n      iszero\n      tag_40\n      jumpi\n      0x00\n      dup1\n      revert\n    tag_40:\n      pop\n      tag_41\n      tag_42\n      calldatasize\n      0x04\n      tag_36\n      jump\t// in\n    tag_42:\n      tag_43\n      jump\t// in\n    tag_41:\n      mload(0x40)\n      tag_31\n      swap2\n      swap1\n      tag_45\n      jump\t// in\n        /* \"contracts/mlm.sol\":5047:5286  function withdraw(uint256 amount) external {... */\n    tag_6:\n      callvalue\n      dup1\n      iszero\n      tag_46\n      jumpi\n      0x00\n      dup1\n      revert\n    tag_46:\n      pop\n      tag_47\n      tag_48\n      calldatasize\n      0x04\n      tag_29\n      jump\t// in\n    tag_48:\n      tag_49\n      jump\t// in\n    tag_47:\n      stop\n        /* \"contracts/mlm.sol\":1836:3050  function stake() external payable onlyRegistered {... */\n    tag_7:\n      tag_47\n      tag_51\n      jump\t// in\n        /* \"contracts/mlm.sol\":1338:1830  function register(address _referrer) external {... */\n    tag_8:\n      callvalue\n      dup1\n      iszero\n      tag_52\n      jumpi\n      0x00\n      dup1\n      revert\n    tag_52:\n      pop\n      tag_47\n      tag_54\n      calldatasize\n      0x04\n      tag_36\n      jump\t// in\n    tag_54:\n      tag_55\n      jump\t// in\n        /* \"contracts/mlm.sol\":531:557  uint256 public nextStakeId */\n    tag_9:\n      callvalue\n      dup1\n      iszero\n      tag_56\n      jumpi\n      0x00\n      dup1\n      revert\n    tag_56:\n      pop\n      tag_34\n      sload(0x04)\n      dup2\n      jump\n        /* \"contracts/mlm.sol\":3096:3742  function getStakeByPositionId(uint256 _positionId) external view returns (... */\n    tag_10:\n      callvalue\n      dup1\n      iszero\n      tag_60\n      jumpi\n      0x00\n      dup1\n      revert\n    tag_60:\n      pop\n      tag_61\n      tag_62\n      calldatasize\n      0x04\n      tag_29\n      jump\t// in\n    tag_62:\n      tag_63\n      jump\t// in\n    tag_61:\n      0x40\n      dup1\n      mload\n      sub(shl(0xa0, 0x01), 0x01)\n        /* \"#utility.yul\":1766:1798   */\n      swap1\n      swap6\n      and\n        /* \"#utility.yul\":1748:1799   */\n      dup6\n      mstore\n        /* \"#utility.yul\":1830:1832   */\n      0x20\n        /* \"#utility.yul\":1815:1833   */\n      dup6\n      add\n        /* \"#utility.yul\":1808:1842   */\n      swap4\n      swap1\n      swap4\n      mstore\n        /* \"#utility.yul\":1858:1876   */\n      swap2\n      dup4\n      add\n        /* \"#utility.yul\":1851:1885   */\n      mstore\n        /* \"#utility.yul\":1916:1918   */\n      0x60\n        /* \"#utility.yul\":1901:1919   */\n      dup3\n      add\n        /* \"#utility.yul\":1894:1928   */\n      mstore\n        /* \"#utility.yul\":1735:1738   */\n      0x80\n        /* \"#utility.yul\":1720:1739   */\n      add\n        /* \"contracts/mlm.sol\":3096:3742  function getStakeByPositionId(uint256 _positionId) external view returns (... */\n      tag_31\n        /* \"#utility.yul\":1517:1934   */\n      jump\n        /* \"contracts/mlm.sol\":744:790  mapping(address => uint256) public totalIncome */\n    tag_11:\n      callvalue\n      dup1\n      iszero\n      tag_66\n      jumpi\n      0x00\n      dup1\n      revert\n    tag_66:\n      pop\n      tag_34\n      tag_68\n      calldatasize\n      0x04\n      tag_36\n      jump\t// in\n    tag_68:\n      mstore(0x20, 0x08)\n      0x00\n      swap1\n      dup2\n      mstore\n      0x40\n      swap1\n      keccak256\n      sload\n      dup2\n      jump\n        /* \"contracts/mlm.sol\":563:592  uint256 public nextPositionId */\n    tag_12:\n      callvalue\n      dup1\n      iszero\n      tag_71\n      jumpi\n      0x00\n      dup1\n      revert\n    tag_71:\n      pop\n      tag_34\n      sload(0x05)\n      dup2\n      jump\n        /* \"contracts/mlm.sol\":83:103  address public owner */\n    tag_13:\n      callvalue\n      dup1\n      iszero\n      tag_75\n      jumpi\n      0x00\n      dup1\n      revert\n    tag_75:\n      pop\n      sload(0x00)\n      tag_27\n      swap1\n      sub(shl(0xa0, 0x01), 0x01)\n      and\n      dup2\n      jump\n        /* \"contracts/mlm.sol\":4636:4763  function getDirectReferralCount(address user) external view returns (uint256) {... */\n    tag_14:\n      callvalue\n      dup1\n      iszero\n      tag_79\n      jumpi\n      0x00\n      dup1\n      revert\n    tag_79:\n      pop\n      tag_34\n      tag_81\n      calldatasize\n      0x04\n      tag_36\n      jump\t// in\n    tag_81:\n      sub(shl(0xa0, 0x01), 0x01)\n        /* \"contracts/mlm.sol\":4731:4756  directReferralCount[user] */\n      and\n        /* \"contracts/mlm.sol\":4705:4712  uint256 */\n      0x00\n        /* \"contracts/mlm.sol\":4731:4756  directReferralCount[user] */\n      swap1\n      dup2\n      mstore\n        /* \"contracts/mlm.sol\":4731:4750  directReferralCount */\n      0x06\n        /* \"contracts/mlm.sol\":4731:4756  directReferralCount[user] */\n      0x20\n      mstore\n      0x40\n      swap1\n      keccak256\n      sload\n      swap1\n        /* \"contracts/mlm.sol\":4636:4763  function getDirectReferralCount(address user) external view returns (uint256) {... */\n      jump\n        /* \"contracts/mlm.sol\":340:377  mapping(address => User) public users */\n    tag_15:\n      callvalue\n      dup1\n      iszero\n      tag_84\n      jumpi\n      0x00\n      dup1\n      revert\n    tag_84:\n      pop\n      tag_85\n      tag_86\n      calldatasize\n      0x04\n      tag_36\n      jump\t// in\n    tag_86:\n      mstore(0x20, 0x01)\n      0x00\n      swap1\n      dup2\n      mstore\n      0x40\n      swap1\n      keccak256\n      sload\n      sub(shl(0xa0, 0x01), 0x01)\n      dup2\n      and\n      swap1\n      shl(0xa0, 0x01)\n      swap1\n      div\n      0xff\n      and\n      dup3\n      jump\n    tag_85:\n      0x40\n      dup1\n      mload\n      sub(shl(0xa0, 0x01), 0x01)\n        /* \"#utility.yul\":2125:2157   */\n      swap1\n      swap4\n      and\n        /* \"#utility.yul\":2107:2158   */\n      dup4\n      mstore\n        /* \"#utility.yul\":2201:2215   */\n      swap1\n      iszero\n        /* \"#utility.yul\":2194:2216   */\n      iszero\n        /* \"#utility.yul\":2189:2191   */\n      0x20\n        /* \"#utility.yul\":2174:2192   */\n      dup4\n      add\n        /* \"#utility.yul\":2167:2217   */\n      mstore\n        /* \"#utility.yul\":2080:2098   */\n      add\n        /* \"contracts/mlm.sol\":340:377  mapping(address => User) public users */\n      tag_31\n        /* \"#utility.yul\":1939:2223   */\n      jump\n        /* \"contracts/mlm.sol\":4769:4898  function getDirectReferralIncome(address user) external view returns (uint256) {... */\n    tag_16:\n      callvalue\n      dup1\n      iszero\n      tag_90\n      jumpi\n      0x00\n      dup1\n      revert\n    tag_90:\n      pop\n      tag_34\n      tag_92\n      calldatasize\n      0x04\n      tag_36\n      jump\t// in\n    tag_92:\n      sub(shl(0xa0, 0x01), 0x01)\n        /* \"contracts/mlm.sol\":4865:4891  directReferralIncome[user] */\n      and\n        /* \"contracts/mlm.sol\":4839:4846  uint256 */\n      0x00\n        /* \"contracts/mlm.sol\":4865:4891  directReferralIncome[user] */\n      swap1\n      dup2\n      mstore\n        /* \"contracts/mlm.sol\":4865:4885  directReferralIncome */\n      0x07\n        /* \"contracts/mlm.sol\":4865:4891  directReferralIncome[user] */\n      0x20\n      mstore\n      0x40\n      swap1\n      keccak256\n      sload\n      swap1\n        /* \"contracts/mlm.sol\":4769:4898  function getDirectReferralIncome(address user) external view returns (uint256) {... */\n      jump\n        /* \"contracts/mlm.sol\":623:677  mapping(address => uint256) public directReferralCount */\n    tag_17:\n      callvalue\n      dup1\n      iszero\n      tag_95\n      jumpi\n      0x00\n      dup1\n      revert\n    tag_95:\n      pop\n      tag_34\n      tag_97\n      calldatasize\n      0x04\n      tag_36\n      jump\t// in\n    tag_97:\n      mstore(0x20, 0x06)\n      0x00\n      swap1\n      dup2\n      mstore\n      0x40\n      swap1\n      keccak256\n      sload\n      dup2\n      jump\n        /* \"contracts/mlm.sol\":4904:5015  function getTotalIncome(address user) external view returns (uint256) {... */\n    tag_18:\n      callvalue\n      dup1\n      iszero\n      tag_100\n      jumpi\n      0x00\n      dup1\n      revert\n    tag_100:\n      pop\n      tag_34\n      tag_102\n      calldatasize\n      0x04\n      tag_36\n      jump\t// in\n    tag_102:\n      sub(shl(0xa0, 0x01), 0x01)\n        /* \"contracts/mlm.sol\":4991:5008  totalIncome[user] */\n      and\n        /* \"contracts/mlm.sol\":4965:4972  uint256 */\n      0x00\n        /* \"contracts/mlm.sol\":4991:5008  totalIncome[user] */\n      swap1\n      dup2\n      mstore\n        /* \"contracts/mlm.sol\":4991:5002  totalIncome */\n      0x08\n        /* \"contracts/mlm.sol\":4991:5008  totalIncome[user] */\n      0x20\n      mstore\n      0x40\n      swap1\n      keccak256\n      sload\n      swap1\n        /* \"contracts/mlm.sol\":4904:5015  function getTotalIncome(address user) external view returns (uint256) {... */\n      jump\n        /* \"contracts/mlm.sol\":441:481  uint8[3] public levelRewards = [5, 3, 2] */\n    tag_19:\n      callvalue\n      dup1\n      iszero\n      tag_105\n      jumpi\n      0x00\n      dup1\n      revert\n    tag_105:\n      pop\n      tag_106\n      tag_107\n      calldatasize\n      0x04\n      tag_29\n      jump\t// in\n    tag_107:\n      tag_108\n      jump\t// in\n    tag_106:\n      mload(0x40)\n        /* \"#utility.yul\":2400:2404   */\n      0xff\n        /* \"#utility.yul\":2388:2405   */\n      swap1\n      swap2\n      and\n        /* \"#utility.yul\":2370:2406   */\n      dup2\n      mstore\n        /* \"#utility.yul\":2358:2360   */\n      0x20\n        /* \"#utility.yul\":2343:2361   */\n      add\n        /* \"contracts/mlm.sol\":441:481  uint8[3] public levelRewards = [5, 3, 2] */\n      tag_31\n        /* \"#utility.yul\":2228:2412   */\n      jump\n        /* \"contracts/mlm.sol\":683:738  mapping(address => uint256) public directReferralIncome */\n    tag_20:\n      callvalue\n      dup1\n      iszero\n      tag_111\n      jumpi\n      0x00\n      dup1\n      revert\n    tag_111:\n      pop\n      tag_34\n      tag_113\n      calldatasize\n      0x04\n      tag_36\n      jump\t// in\n    tag_113:\n      mstore(0x20, 0x07)\n      0x00\n      swap1\n      dup2\n      mstore\n      0x40\n      swap1\n      keccak256\n      sload\n      dup2\n      jump\n        /* \"contracts/mlm.sol\":4116:4603  function getUserLevel(address user) external view returns (uint256) {... */\n    tag_37:\n      sub(shl(0xa0, 0x01), 0x01)\n        /* \"contracts/mlm.sol\":4198:4209  users[user] */\n      dup2\n      and\n        /* \"contracts/mlm.sol\":4175:4182  uint256 */\n      0x00\n        /* \"contracts/mlm.sol\":4198:4209  users[user] */\n      swap1\n      dup2\n      mstore\n        /* \"contracts/mlm.sol\":4198:4203  users */\n      0x01\n        /* \"contracts/mlm.sol\":4198:4209  users[user] */\n      0x20\n      mstore\n      0x40\n      dup2\n      keccak256\n        /* \"contracts/mlm.sol\":4198:4220  users[user].registered */\n      sload\n      shl(0xa0, 0x01)\n      swap1\n      div\n      0xff\n      and\n        /* \"contracts/mlm.sol\":4190:4244  require(users[user].registered, \"User not registered\") */\n      tag_117\n      jumpi\n      mload(0x40)\n      shl(0xe5, 0x461bcd)\n      dup2\n      mstore\n        /* \"#utility.yul\":2619:2621   */\n      0x20\n        /* \"contracts/mlm.sol\":4190:4244  require(users[user].registered, \"User not registered\") */\n      0x04\n      dup3\n      add\n        /* \"#utility.yul\":2601:2622   */\n      mstore\n        /* \"#utility.yul\":2658:2660   */\n      0x13\n        /* \"#utility.yul\":2638:2656   */\n      0x24\n      dup3\n      add\n        /* \"#utility.yul\":2631:2661   */\n      mstore\n      shl(0x6a, 0x155cd95c881b9bdd081c9959da5cdd195c9959)\n        /* \"#utility.yul\":2677:2695   */\n      0x44\n      dup3\n      add\n        /* \"#utility.yul\":2670:2719   */\n      mstore\n        /* \"#utility.yul\":2736:2754   */\n      0x64\n      add\n        /* \"contracts/mlm.sol\":4190:4244  require(users[user].registered, \"User not registered\") */\n    tag_118:\n      mload(0x40)\n      dup1\n      swap2\n      sub\n      swap1\n      revert\n    tag_117:\n        /* \"contracts/mlm.sol\":4251:4264  uint256 level */\n      0x00\n        /* \"contracts/mlm.sol\":4292:4296  user */\n      dup3\n        /* \"contracts/mlm.sol\":4303:4452  while (users[current].referrer != address(0) && users[current].referrer != owner) {... */\n    tag_120:\n      sub(shl(0xa0, 0x01), 0x01)\n        /* \"contracts/mlm.sol\":4310:4324  users[current] */\n      dup2\n      dup2\n      and\n        /* \"contracts/mlm.sol\":4345:4346  0 */\n      0x00\n        /* \"contracts/mlm.sol\":4310:4324  users[current] */\n      swap1\n      dup2\n      mstore\n        /* \"contracts/mlm.sol\":4310:4315  users */\n      0x01\n        /* \"contracts/mlm.sol\":4310:4324  users[current] */\n      0x20\n      mstore\n      0x40\n      swap1\n      keccak256\n        /* \"contracts/mlm.sol\":4310:4333  users[current].referrer */\n      sload\n      and\n        /* \"contracts/mlm.sol\":4310:4347  users[current].referrer != address(0) */\n      iszero\n      dup1\n      iszero\n      swap1\n        /* \"contracts/mlm.sol\":4310:4383  users[current].referrer != address(0) && users[current].referrer != owner */\n      tag_122\n      jumpi\n      pop\n        /* \"contracts/mlm.sol\":4378:4383  owner */\n      0x00\n      dup1\n      sload\n      sub(shl(0xa0, 0x01), 0x01)\n        /* \"contracts/mlm.sol\":4351:4365  users[current] */\n      dup4\n      dup2\n      and\n      dup4\n      mstore\n        /* \"contracts/mlm.sol\":4378:4383  owner */\n      0x01\n        /* \"contracts/mlm.sol\":4351:4365  users[current] */\n      0x20\n      mstore\n      0x40\n      swap1\n      swap3\n      keccak256\n        /* \"contracts/mlm.sol\":4351:4374  users[current].referrer */\n      sload\n      dup3\n      and\n        /* \"contracts/mlm.sol\":4378:4383  owner */\n      swap2\n      and\n        /* \"contracts/mlm.sol\":4351:4383  users[current].referrer != owner */\n      eq\n      iszero\n        /* \"contracts/mlm.sol\":4310:4383  users[current].referrer != address(0) && users[current].referrer != owner */\n    tag_122:\n        /* \"contracts/mlm.sol\":4303:4452  while (users[current].referrer != address(0) && users[current].referrer != owner) {... */\n      iszero\n      tag_121\n      jumpi\n        /* \"contracts/mlm.sol\":4395:4402  level++ */\n      dup2\n      tag_123\n      dup2\n      tag_124\n      jump\t// in\n    tag_123:\n      sub(shl(0xa0, 0x01), 0x01)\n        /* \"contracts/mlm.sol\":4422:4436  users[current] */\n      swap3\n      dup4\n      and\n      0x00\n      swap1\n      dup2\n      mstore\n        /* \"contracts/mlm.sol\":4422:4427  users */\n      0x01\n        /* \"contracts/mlm.sol\":4422:4436  users[current] */\n      0x20\n      mstore\n      0x40\n      swap1\n      keccak256\n        /* \"contracts/mlm.sol\":4422:4445  users[current].referrer */\n      sload\n        /* \"contracts/mlm.sol\":4395:4402  level++ */\n      swap1\n      swap4\n      pop\n        /* \"contracts/mlm.sol\":4422:4445  users[current].referrer */\n      swap1\n      swap2\n      and\n      swap1\n      pop\n        /* \"contracts/mlm.sol\":4303:4452  while (users[current].referrer != address(0) && users[current].referrer != owner) {... */\n      jump(tag_120)\n    tag_121:\n        /* \"contracts/mlm.sol\":4551:4556  owner */\n      0x00\n      dup1\n      sload\n      sub(shl(0xa0, 0x01), 0x01)\n        /* \"contracts/mlm.sol\":4524:4538  users[current] */\n      dup4\n      dup2\n      and\n      dup4\n      mstore\n        /* \"contracts/mlm.sol\":4551:4556  owner */\n      0x01\n        /* \"contracts/mlm.sol\":4524:4538  users[current] */\n      0x20\n      mstore\n      0x40\n      swap1\n      swap3\n      keccak256\n        /* \"contracts/mlm.sol\":4524:4547  users[current].referrer */\n      sload\n        /* \"contracts/mlm.sol\":4551:4556  owner */\n      swap1\n      dup3\n      and\n        /* \"contracts/mlm.sol\":4524:4547  users[current].referrer */\n      swap2\n      and\n        /* \"contracts/mlm.sol\":4524:4556  users[current].referrer == owner */\n      sub\n        /* \"contracts/mlm.sol\":4520:4582  if (users[current].referrer == owner) {... */\n      tag_125\n      jumpi\n        /* \"contracts/mlm.sol\":4568:4575  level++ */\n      dup2\n      tag_126\n      dup2\n      tag_124\n      jump\t// in\n    tag_126:\n      swap3\n      pop\n      pop\n        /* \"contracts/mlm.sol\":4520:4582  if (users[current].referrer == owner) {... */\n    tag_125:\n      pop\n        /* \"contracts/mlm.sol\":4595:4600  level */\n      swap3\n        /* \"contracts/mlm.sol\":4116:4603  function getUserLevel(address user) external view returns (uint256) {... */\n      swap2\n      pop\n      pop\n      jump\t// out\n        /* \"contracts/mlm.sol\":3748:4113  function getPositionIds(address _user) external view returns (uint256[] memory) {... */\n    tag_43:\n      sub(shl(0xa0, 0x01), 0x01)\n        /* \"contracts/mlm.sol\":3859:3871  users[_user] */\n      dup2\n      and\n        /* \"contracts/mlm.sol\":3838:3856  uint256 stakeCount */\n      0x00\n        /* \"contracts/mlm.sol\":3859:3871  users[_user] */\n      swap1\n      dup2\n      mstore\n        /* \"contracts/mlm.sol\":3859:3864  users */\n      0x01\n        /* \"contracts/mlm.sol\":3859:3871  users[_user] */\n      0x20\n      dup2\n      swap1\n      mstore\n      0x40\n      dup3\n      keccak256\n        /* \"contracts/mlm.sol\":3859:3878  users[_user].stakes */\n      add\n        /* \"contracts/mlm.sol\":3859:3885  users[_user].stakes.length */\n      sload\n        /* \"contracts/mlm.sol\":3810:3826  uint256[] memory */\n      0x60\n      swap2\n        /* \"contracts/mlm.sol\":3859:3885  users[_user].stakes.length */\n      dup2\n        /* \"contracts/mlm.sol\":3926:3951  new uint256[](stakeCount) */\n      0xffffffffffffffff\n      dup2\n      gt\n      iszero\n      tag_129\n      jumpi\n      tag_129\n      tag_130\n      jump\t// in\n    tag_129:\n      mload(0x40)\n      swap1\n      dup1\n      dup3\n      mstore\n      dup1\n      0x20\n      mul\n      0x20\n      add\n      dup3\n      add\n      0x40\n      mstore\n      dup1\n      iszero\n      tag_131\n      jumpi\n      dup2\n      0x20\n      add\n      0x20\n      dup3\n      mul\n      dup1\n      calldatasize\n      dup4\n      calldatacopy\n      add\n      swap1\n      pop\n    tag_131:\n      pop\n        /* \"contracts/mlm.sol\":3895:3951  uint256[] memory positionIds = new uint256[](stakeCount) */\n      swap1\n      pop\n        /* \"contracts/mlm.sol\":3967:3976  uint256 i */\n      0x00\n        /* \"contracts/mlm.sol\":3962:4078  for (uint256 i = 0; i < stakeCount; i++) {... */\n    tag_132:\n        /* \"contracts/mlm.sol\":3986:3996  stakeCount */\n      dup3\n        /* \"contracts/mlm.sol\":3982:3983  i */\n      dup2\n        /* \"contracts/mlm.sol\":3982:3996  i < stakeCount */\n      lt\n        /* \"contracts/mlm.sol\":3962:4078  for (uint256 i = 0; i < stakeCount; i++) {... */\n      iszero\n      tag_133\n      jumpi\n      sub(shl(0xa0, 0x01), 0x01)\n        /* \"contracts/mlm.sol\":4034:4046  users[_user] */\n      dup6\n      and\n      0x00\n      swap1\n      dup2\n      mstore\n        /* \"contracts/mlm.sol\":4034:4039  users */\n      0x01\n        /* \"contracts/mlm.sol\":4034:4046  users[_user] */\n      0x20\n      dup2\n      swap1\n      mstore\n      0x40\n      swap1\n      swap2\n      keccak256\n        /* \"contracts/mlm.sol\":4034:4053  users[_user].stakes */\n      add\n        /* \"contracts/mlm.sol\":4034:4056  users[_user].stakes[i] */\n      dup1\n      sload\n        /* \"contracts/mlm.sol\":4054:4055  i */\n      dup3\n      swap1\n        /* \"contracts/mlm.sol\":4034:4056  users[_user].stakes[i] */\n      dup2\n      lt\n      tag_136\n      jumpi\n      tag_136\n      tag_137\n      jump\t// in\n    tag_136:\n      swap1\n      0x00\n      mstore\n      keccak256(0x00, 0x20)\n      swap1\n      0x04\n      mul\n      add\n        /* \"contracts/mlm.sol\":4034:4067  users[_user].stakes[i].positionId */\n      0x02\n      add\n      sload\n        /* \"contracts/mlm.sol\":4017:4028  positionIds */\n      dup3\n        /* \"contracts/mlm.sol\":4029:4030  i */\n      dup3\n        /* \"contracts/mlm.sol\":4017:4031  positionIds[i] */\n      dup2\n      mload\n      dup2\n      lt\n      tag_140\n      jumpi\n      tag_140\n      tag_137\n      jump\t// in\n    tag_140:\n      0x20\n      swap1\n      dup2\n      mul\n      swap2\n      swap1\n      swap2\n      add\n      add\n        /* \"contracts/mlm.sol\":4017:4067  positionIds[i] = users[_user].stakes[i].positionId */\n      mstore\n        /* \"contracts/mlm.sol\":3998:4001  i++ */\n      0x01\n      add\n        /* \"contracts/mlm.sol\":3962:4078  for (uint256 i = 0; i < stakeCount; i++) {... */\n      jump(tag_132)\n    tag_133:\n      pop\n        /* \"contracts/mlm.sol\":4095:4106  positionIds */\n      swap4\n        /* \"contracts/mlm.sol\":3748:4113  function getPositionIds(address _user) external view returns (uint256[] memory) {... */\n      swap3\n      pop\n      pop\n      pop\n      jump\t// out\n        /* \"contracts/mlm.sol\":5047:5286  function withdraw(uint256 amount) external {... */\n    tag_49:\n        /* \"contracts/mlm.sol\":5122:5127  owner */\n      and(sub(shl(0xa0, 0x01), 0x01), sload(0x00))\n        /* \"contracts/mlm.sol\":5108:5118  msg.sender */\n      caller\n        /* \"contracts/mlm.sol\":5108:5127  msg.sender == owner */\n      eq\n        /* \"contracts/mlm.sol\":5100:5155  require(msg.sender == owner, \"Only owner can withdraw\") */\n      tag_142\n      jumpi\n      mload(0x40)\n      shl(0xe5, 0x461bcd)\n      dup2\n      mstore\n        /* \"#utility.yul\":3503:3505   */\n      0x20\n        /* \"contracts/mlm.sol\":5100:5155  require(msg.sender == owner, \"Only owner can withdraw\") */\n      0x04\n      dup3\n      add\n        /* \"#utility.yul\":3485:3506   */\n      mstore\n        /* \"#utility.yul\":3542:3544   */\n      0x17\n        /* \"#utility.yul\":3522:3540   */\n      0x24\n      dup3\n      add\n        /* \"#utility.yul\":3515:3545   */\n      mstore\n        /* \"#utility.yul\":3581:3606   */\n      0x4f6e6c79206f776e65722063616e207769746864726177000000000000000000\n        /* \"#utility.yul\":3561:3579   */\n      0x44\n      dup3\n      add\n        /* \"#utility.yul\":3554:3607   */\n      mstore\n        /* \"#utility.yul\":3624:3642   */\n      0x64\n      add\n        /* \"contracts/mlm.sol\":5100:5155  require(msg.sender == owner, \"Only owner can withdraw\") */\n      tag_118\n        /* \"#utility.yul\":3301:3648   */\n      jump\n        /* \"contracts/mlm.sol\":5100:5155  require(msg.sender == owner, \"Only owner can withdraw\") */\n    tag_142:\n        /* \"contracts/mlm.sol\":5198:5204  amount */\n      dup1\n        /* \"contracts/mlm.sol\":5173:5194  address(this).balance */\n      selfbalance\n        /* \"contracts/mlm.sol\":5173:5204  address(this).balance >= amount */\n      lt\n      iszero\n        /* \"contracts/mlm.sol\":5165:5238  require(address(this).balance >= amount, \"Insufficient contract balance\") */\n      tag_145\n      jumpi\n      mload(0x40)\n      shl(0xe5, 0x461bcd)\n      dup2\n      mstore\n        /* \"#utility.yul\":3855:3857   */\n      0x20\n        /* \"contracts/mlm.sol\":5165:5238  require(address(this).balance >= amount, \"Insufficient contract balance\") */\n      0x04\n      dup3\n      add\n        /* \"#utility.yul\":3837:3858   */\n      mstore\n        /* \"#utility.yul\":3894:3896   */\n      0x1d\n        /* \"#utility.yul\":3874:3892   */\n      0x24\n      dup3\n      add\n        /* \"#utility.yul\":3867:3897   */\n      mstore\n        /* \"#utility.yul\":3933:3964   */\n      0x496e73756666696369656e7420636f6e74726163742062616c616e6365000000\n        /* \"#utility.yul\":3913:3931   */\n      0x44\n      dup3\n      add\n        /* \"#utility.yul\":3906:3965   */\n      mstore\n        /* \"#utility.yul\":3982:4000   */\n      0x64\n      add\n        /* \"contracts/mlm.sol\":5165:5238  require(address(this).balance >= amount, \"Insufficient contract balance\") */\n      tag_118\n        /* \"#utility.yul\":3653:4006   */\n      jump\n        /* \"contracts/mlm.sol\":5165:5238  require(address(this).balance >= amount, \"Insufficient contract balance\") */\n    tag_145:\n        /* \"contracts/mlm.sol\":5256:5261  owner */\n      0x00\n      dup1\n      sload\n        /* \"contracts/mlm.sol\":5248:5279  payable(owner).transfer(amount) */\n      mload(0x40)\n      sub(shl(0xa0, 0x01), 0x01)\n        /* \"contracts/mlm.sol\":5256:5261  owner */\n      swap1\n      swap2\n      and\n      swap2\n        /* \"contracts/mlm.sol\":5248:5279  payable(owner).transfer(amount) */\n      dup4\n      iszero\n      0x08fc\n      mul\n      swap2\n        /* \"contracts/mlm.sol\":5272:5278  amount */\n      dup5\n      swap2\n        /* \"contracts/mlm.sol\":5248:5279  payable(owner).transfer(amount) */\n      dup2\n        /* \"contracts/mlm.sol\":5256:5261  owner */\n      dup2\n        /* \"contracts/mlm.sol\":5248:5279  payable(owner).transfer(amount) */\n      dup2\n        /* \"contracts/mlm.sol\":5272:5278  amount */\n      dup6\n        /* \"contracts/mlm.sol\":5256:5261  owner */\n      dup9\n        /* \"contracts/mlm.sol\":5248:5279  payable(owner).transfer(amount) */\n      dup9\n      call\n      swap4\n      pop\n      pop\n      pop\n      pop\n      iszero\n      dup1\n      iszero\n      tag_149\n      jumpi\n      returndatasize\n      0x00\n      dup1\n      returndatacopy\n      revert(0x00, returndatasize)\n    tag_149:\n      pop\n        /* \"contracts/mlm.sol\":5047:5286  function withdraw(uint256 amount) external {... */\n      pop\n      jump\t// out\n        /* \"contracts/mlm.sol\":1836:3050  function stake() external payable onlyRegistered {... */\n    tag_51:\n        /* \"contracts/mlm.sol\":1268:1278  msg.sender */\n      caller\n        /* \"contracts/mlm.sol\":1262:1279  users[msg.sender] */\n      0x00\n      swap1\n      dup2\n      mstore\n        /* \"contracts/mlm.sol\":1262:1267  users */\n      0x01\n        /* \"contracts/mlm.sol\":1262:1279  users[msg.sender] */\n      0x20\n      mstore\n      0x40\n      swap1\n      keccak256\n        /* \"contracts/mlm.sol\":1262:1290  users[msg.sender].registered */\n      sload\n      shl(0xa0, 0x01)\n      swap1\n      div\n      0xff\n      and\n        /* \"contracts/mlm.sol\":1254:1314  require(users[msg.sender].registered, \"User not registered\") */\n      tag_151\n      jumpi\n      mload(0x40)\n      shl(0xe5, 0x461bcd)\n      dup2\n      mstore\n        /* \"#utility.yul\":2619:2621   */\n      0x20\n        /* \"contracts/mlm.sol\":1254:1314  require(users[msg.sender].registered, \"User not registered\") */\n      0x04\n      dup3\n      add\n        /* \"#utility.yul\":2601:2622   */\n      mstore\n        /* \"#utility.yul\":2658:2660   */\n      0x13\n        /* \"#utility.yul\":2638:2656   */\n      0x24\n      dup3\n      add\n        /* \"#utility.yul\":2631:2661   */\n      mstore\n      shl(0x6a, 0x155cd95c881b9bdd081c9959da5cdd195c9959)\n        /* \"#utility.yul\":2677:2695   */\n      0x44\n      dup3\n      add\n        /* \"#utility.yul\":2670:2719   */\n      mstore\n        /* \"#utility.yul\":2736:2754   */\n      0x64\n      add\n        /* \"contracts/mlm.sol\":1254:1314  require(users[msg.sender].registered, \"User not registered\") */\n      tag_118\n        /* \"#utility.yul\":2417:2760   */\n      jump\n        /* \"contracts/mlm.sol\":1254:1314  require(users[msg.sender].registered, \"User not registered\") */\n    tag_151:\n        /* \"contracts/mlm.sol\":1915:1916  0 */\n      0x00\n        /* \"contracts/mlm.sol\":1903:1912  msg.value */\n      callvalue\n        /* \"contracts/mlm.sol\":1903:1916  msg.value > 0 */\n      gt\n        /* \"contracts/mlm.sol\":1895:1950  require(msg.value > 0, \"Amount must be greater than 0\") */\n      tag_154\n      jumpi\n      mload(0x40)\n      shl(0xe5, 0x461bcd)\n      dup2\n      mstore\n        /* \"#utility.yul\":4213:4215   */\n      0x20\n        /* \"contracts/mlm.sol\":1895:1950  require(msg.value > 0, \"Amount must be greater than 0\") */\n      0x04\n      dup3\n      add\n        /* \"#utility.yul\":4195:4216   */\n      mstore\n        /* \"#utility.yul\":4252:4254   */\n      0x1d\n        /* \"#utility.yul\":4232:4250   */\n      0x24\n      dup3\n      add\n        /* \"#utility.yul\":4225:4255   */\n      mstore\n        /* \"#utility.yul\":4291:4322   */\n      0x416d6f756e74206d7573742062652067726561746572207468616e2030000000\n        /* \"#utility.yul\":4271:4289   */\n      0x44\n      dup3\n      add\n        /* \"#utility.yul\":4264:4323   */\n      mstore\n        /* \"#utility.yul\":4340:4358   */\n      0x64\n      add\n        /* \"contracts/mlm.sol\":1895:1950  require(msg.value > 0, \"Amount must be greater than 0\") */\n      tag_118\n        /* \"#utility.yul\":4011:4364   */\n      jump\n        /* \"contracts/mlm.sol\":1895:1950  require(msg.value > 0, \"Amount must be greater than 0\") */\n    tag_154:\n        /* \"contracts/mlm.sol\":1979:1990  nextStakeId */\n      0x04\n        /* \"contracts/mlm.sol\":1979:1992  nextStakeId++ */\n      dup1\n      sload\n        /* \"contracts/mlm.sol\":1961:1976  uint256 stakeId */\n      0x00\n      swap2\n      dup3\n        /* \"contracts/mlm.sol\":1979:1992  nextStakeId++ */\n      tag_157\n      dup4\n      tag_124\n      jump\t// in\n    tag_157:\n      swap1\n      swap2\n      sstore\n      pop\n        /* \"contracts/mlm.sol\":2023:2037  nextPositionId */\n      0x05\n        /* \"contracts/mlm.sol\":2023:2039  nextPositionId++ */\n      dup1\n      sload\n        /* \"contracts/mlm.sol\":1961:1992  uint256 stakeId = nextStakeId++ */\n      swap2\n      swap3\n      pop\n        /* \"contracts/mlm.sol\":2002:2020  uint256 positionId */\n      0x00\n      swap2\n        /* \"contracts/mlm.sol\":2023:2039  nextPositionId++ */\n      swap1\n        /* \"contracts/mlm.sol\":2002:2020  uint256 positionId */\n      dup3\n        /* \"contracts/mlm.sol\":2023:2039  nextPositionId++ */\n      tag_158\n      dup4\n      tag_124\n      jump\t// in\n    tag_158:\n      swap1\n      swap2\n      sstore\n      pop\n        /* \"contracts/mlm.sol\":2127:2137  msg.sender */\n      caller\n        /* \"contracts/mlm.sol\":2049:2066  uint256 timestamp */\n      0x00\n        /* \"contracts/mlm.sol\":2121:2138  users[msg.sender] */\n      dup2\n      dup2\n      mstore\n        /* \"contracts/mlm.sol\":2121:2126  users */\n      0x01\n        /* \"contracts/mlm.sol\":2121:2138  users[msg.sender] */\n      0x20\n      dup2\n      dup2\n      mstore\n      0x40\n      dup1\n      dup5\n      keccak256\n        /* \"contracts/mlm.sol\":2151:2299  Stake({... */\n      dup2\n      mload\n      0x80\n      dup2\n      add\n      dup4\n      mstore\n      dup10\n      dup2\n      mstore\n        /* \"contracts/mlm.sol\":2209:2218  msg.value */\n      callvalue\n        /* \"contracts/mlm.sol\":2151:2299  Stake({... */\n      dup2\n      dup6\n      add\n      swap1\n      dup2\n      mstore\n      dup2\n      dup5\n      add\n      dup10\n      dup2\n      mstore\n        /* \"contracts/mlm.sol\":2069:2084  block.timestamp */\n      timestamp\n        /* \"contracts/mlm.sol\":2151:2299  Stake({... */\n      0x60\n      dup5\n      add\n      dup2\n      dup2\n      mstore\n        /* \"contracts/mlm.sol\":2121:2145  users[msg.sender].stakes */\n      dup6\n      dup10\n      add\n        /* \"contracts/mlm.sol\":2121:2300  users[msg.sender].stakes.push(Stake({... */\n      dup1\n      sload\n      dup1\n      dup12\n      add\n      dup3\n      sstore\n      swap1\n      dup12\n      mstore\n      dup9\n      dup12\n      keccak256\n      swap6\n      mload\n      0x04\n      swap1\n      swap2\n      mul\n      swap1\n      swap6\n      add\n      swap5\n      dup6\n      sstore\n      swap3\n      mload\n      dup5\n      dup10\n      add\n      sstore\n      swap1\n      mload\n      0x02\n      dup1\n      dup6\n      add\n      swap2\n      swap1\n      swap2\n      sstore\n      swap2\n      mload\n      0x03\n      swap1\n      swap4\n      add\n      swap3\n      swap1\n      swap3\n      sstore\n        /* \"contracts/mlm.sol\":2355:2383  positionIdToUser[positionId] */\n      dup9\n      dup8\n      mstore\n      dup5\n      mstore\n      swap2\n      dup6\n      keccak256\n        /* \"contracts/mlm.sol\":2355:2396  positionIdToUser[positionId] = msg.sender */\n      dup1\n      sload\n      not(sub(shl(0xa0, 0x01), 0x01))\n      and\n      dup8\n      or\n      swap1\n      sstore\n        /* \"contracts/mlm.sol\":2470:2487  users[msg.sender] */\n      swap5\n      dup5\n      mstore\n      swap2\n      swap1\n      mstore\n        /* \"contracts/mlm.sol\":2470:2496  users[msg.sender].referrer */\n      swap2\n      sload\n        /* \"contracts/mlm.sol\":2002:2039  uint256 positionId = nextPositionId++ */\n      swap3\n      swap4\n      pop\n        /* \"contracts/mlm.sol\":2069:2084  block.timestamp */\n      swap1\n      swap2\n      sub(shl(0xa0, 0x01), 0x01)\n        /* \"contracts/mlm.sol\":2470:2496  users[msg.sender].referrer */\n      and\n      swap1\n        /* \"contracts/mlm.sol\":2508:2967  for (uint8 i = 0; i < levelRewards.length; i++) {... */\n    tag_160:\n        /* \"contracts/mlm.sol\":2530:2549  levelRewards.length */\n      0x03\n        /* \"contracts/mlm.sol\":2526:2527  i */\n      dup2\n        /* \"contracts/mlm.sol\":2526:2549  i < levelRewards.length */\n      0xff\n      and\n      lt\n        /* \"contracts/mlm.sol\":2508:2967  for (uint8 i = 0; i < levelRewards.length; i++) {... */\n      iszero\n      tag_161\n      jumpi\n      sub(shl(0xa0, 0x01), 0x01)\n        /* \"contracts/mlm.sol\":2574:2594  upline == address(0) */\n      dup3\n      and\n        /* \"contracts/mlm.sol\":2570:2601  if (upline == address(0)) break */\n      iszero\n        /* \"contracts/mlm.sol\":2596:2601  break */\n      tag_161\n        /* \"contracts/mlm.sol\":2570:2601  if (upline == address(0)) break */\n      jumpi\n        /* \"contracts/mlm.sol\":2616:2634  uint256 commission */\n      0x00\n        /* \"contracts/mlm.sol\":2669:2672  100 */\n      0x64\n        /* \"contracts/mlm.sol\":2650:2662  levelRewards */\n      0x03\n        /* \"contracts/mlm.sol\":2663:2664  i */\n      dup4\n        /* \"contracts/mlm.sol\":2650:2665  levelRewards[i] */\n      0xff\n      and\n      0x03\n      dup2\n      lt\n      tag_165\n      jumpi\n      tag_165\n      tag_137\n      jump\t// in\n    tag_165:\n      0x20\n      dup2\n      div\n      swap2\n      swap1\n      swap2\n      add\n      sload\n        /* \"contracts/mlm.sol\":2638:2665  msg.value * levelRewards[i] */\n      tag_167\n      swap2\n        /* \"contracts/mlm.sol\":2650:2665  levelRewards[i] */\n      0x1f\n      and\n      0x0100\n      exp\n      swap1\n      div\n      0xff\n      and\n        /* \"contracts/mlm.sol\":2638:2647  msg.value */\n      callvalue\n        /* \"contracts/mlm.sol\":2638:2665  msg.value * levelRewards[i] */\n      tag_168\n      jump\t// in\n    tag_167:\n        /* \"contracts/mlm.sol\":2637:2672  (msg.value * levelRewards[i]) / 100 */\n      tag_169\n      swap2\n      swap1\n      tag_170\n      jump\t// in\n    tag_169:\n        /* \"contracts/mlm.sol\":2686:2713  upline.transfer(commission) */\n      mload(0x40)\n        /* \"contracts/mlm.sol\":2616:2672  uint256 commission = (msg.value * levelRewards[i]) / 100 */\n      swap1\n      swap2\n      pop\n      sub(shl(0xa0, 0x01), 0x01)\n        /* \"contracts/mlm.sol\":2686:2701  upline.transfer */\n      dup5\n      and\n      swap1\n        /* \"contracts/mlm.sol\":2686:2713  upline.transfer(commission) */\n      dup3\n      iszero\n      0x08fc\n      mul\n      swap1\n        /* \"contracts/mlm.sol\":2616:2672  uint256 commission = (msg.value * levelRewards[i]) / 100 */\n      dup4\n      swap1\n        /* \"contracts/mlm.sol\":2686:2713  upline.transfer(commission) */\n      0x00\n      dup2\n      dup2\n      dup2\n        /* \"contracts/mlm.sol\":2616:2672  uint256 commission = (msg.value * levelRewards[i]) / 100 */\n      dup6\n        /* \"contracts/mlm.sol\":2686:2701  upline.transfer */\n      dup9\n        /* \"contracts/mlm.sol\":2686:2713  upline.transfer(commission) */\n      dup9\n      call\n      swap4\n      pop\n      pop\n      pop\n      pop\n      iszero\n      dup1\n      iszero\n      tag_172\n      jumpi\n      returndatasize\n      0x00\n      dup1\n      returndatacopy\n      revert(0x00, returndatasize)\n    tag_172:\n      pop\n      sub(shl(0xa0, 0x01), 0x01)\n        /* \"contracts/mlm.sol\":2768:2787  totalIncome[upline] */\n      dup4\n      and\n      0x00\n      swap1\n      dup2\n      mstore\n        /* \"contracts/mlm.sol\":2768:2779  totalIncome */\n      0x08\n        /* \"contracts/mlm.sol\":2768:2787  totalIncome[upline] */\n      0x20\n      mstore\n      0x40\n      dup2\n      keccak256\n        /* \"contracts/mlm.sol\":2768:2801  totalIncome[upline] += commission */\n      dup1\n      sload\n        /* \"contracts/mlm.sol\":2791:2801  commission */\n      dup4\n      swap3\n        /* \"contracts/mlm.sol\":2768:2787  totalIncome[upline] */\n      swap1\n        /* \"contracts/mlm.sol\":2768:2801  totalIncome[upline] += commission */\n      tag_173\n      swap1\n        /* \"contracts/mlm.sol\":2791:2801  commission */\n      dup5\n      swap1\n        /* \"contracts/mlm.sol\":2768:2801  totalIncome[upline] += commission */\n      tag_174\n      jump\t// in\n    tag_173:\n      swap1\n      swap2\n      sstore\n      pop\n      pop\n        /* \"contracts/mlm.sol\":2819:2825  i == 0 */\n      0xff\n      dup3\n      and\n        /* \"contracts/mlm.sol\":2824:2825  0 */\n      0x00\n        /* \"contracts/mlm.sol\":2819:2825  i == 0 */\n      sub\n        /* \"contracts/mlm.sol\":2815:2902  if (i == 0) {... */\n      tag_175\n      jumpi\n      sub(shl(0xa0, 0x01), 0x01)\n        /* \"contracts/mlm.sol\":2845:2873  directReferralIncome[upline] */\n      dup4\n      and\n      0x00\n      swap1\n      dup2\n      mstore\n        /* \"contracts/mlm.sol\":2845:2865  directReferralIncome */\n      0x07\n        /* \"contracts/mlm.sol\":2845:2873  directReferralIncome[upline] */\n      0x20\n      mstore\n      0x40\n      dup2\n      keccak256\n        /* \"contracts/mlm.sol\":2845:2887  directReferralIncome[upline] += commission */\n      dup1\n      sload\n        /* \"contracts/mlm.sol\":2877:2887  commission */\n      dup4\n      swap3\n        /* \"contracts/mlm.sol\":2845:2873  directReferralIncome[upline] */\n      swap1\n        /* \"contracts/mlm.sol\":2845:2887  directReferralIncome[upline] += commission */\n      tag_176\n      swap1\n        /* \"contracts/mlm.sol\":2877:2887  commission */\n      dup5\n      swap1\n        /* \"contracts/mlm.sol\":2845:2887  directReferralIncome[upline] += commission */\n      tag_174\n      jump\t// in\n    tag_176:\n      swap1\n      swap2\n      sstore\n      pop\n      pop\n        /* \"contracts/mlm.sol\":2815:2902  if (i == 0) {... */\n    tag_175:\n      pop\n      sub(shl(0xa0, 0x01), 0x01)\n        /* \"contracts/mlm.sol\":2933:2946  users[upline] */\n      swap2\n      dup3\n      and\n      0x00\n      swap1\n      dup2\n      mstore\n        /* \"contracts/mlm.sol\":2933:2938  users */\n      0x01\n        /* \"contracts/mlm.sol\":2933:2946  users[upline] */\n      0x20\n      mstore\n      0x40\n      swap1\n      keccak256\n        /* \"contracts/mlm.sol\":2933:2955  users[upline].referrer */\n      sload\n      swap1\n      swap2\n      and\n      swap1\n        /* \"contracts/mlm.sol\":2551:2554  i++ */\n      dup1\n      tag_177\n      dup2\n      tag_178\n      jump\t// in\n    tag_177:\n      swap2\n      pop\n      pop\n        /* \"contracts/mlm.sol\":2508:2967  for (uint8 i = 0; i < levelRewards.length; i++) {... */\n      jump(tag_160)\n    tag_161:\n      pop\n        /* \"contracts/mlm.sol\":2982:3043  Staked(msg.sender, stakeId, positionId, msg.value, timestamp) */\n      0x40\n      dup1\n      mload\n        /* \"contracts/mlm.sol\":3022:3031  msg.value */\n      callvalue\n        /* \"#utility.yul\":5248:5273   */\n      dup2\n      mstore\n        /* \"#utility.yul\":5304:5306   */\n      0x20\n        /* \"#utility.yul\":5289:5307   */\n      dup2\n      add\n        /* \"#utility.yul\":5282:5316   */\n      dup5\n      swap1\n      mstore\n        /* \"contracts/mlm.sol\":3010:3020  positionId */\n      dup5\n      swap2\n        /* \"contracts/mlm.sol\":3001:3008  stakeId */\n      dup7\n      swap2\n        /* \"contracts/mlm.sol\":2989:2999  msg.sender */\n      caller\n      swap2\n        /* \"contracts/mlm.sol\":2982:3043  Staked(msg.sender, stakeId, positionId, msg.value, timestamp) */\n      0x9cfd25589d1eb8ad71e342a86a8524e83522e3936c0803048c08f6d9ad974f40\n      swap2\n        /* \"#utility.yul\":5221:5239   */\n      add\n        /* \"contracts/mlm.sol\":2982:3043  Staked(msg.sender, stakeId, positionId, msg.value, timestamp) */\n      mload(0x40)\n      dup1\n      swap2\n      sub\n      swap1\n      log4\n        /* \"contracts/mlm.sol\":1885:3050  {... */\n      pop\n      pop\n      pop\n      pop\n        /* \"contracts/mlm.sol\":1836:3050  function stake() external payable onlyRegistered {... */\n      jump\t// out\n        /* \"contracts/mlm.sol\":1338:1830  function register(address _referrer) external {... */\n    tag_55:\n        /* \"contracts/mlm.sol\":1409:1419  msg.sender */\n      caller\n        /* \"contracts/mlm.sol\":1403:1420  users[msg.sender] */\n      0x00\n      swap1\n      dup2\n      mstore\n        /* \"contracts/mlm.sol\":1403:1408  users */\n      0x01\n        /* \"contracts/mlm.sol\":1403:1420  users[msg.sender] */\n      0x20\n      mstore\n      0x40\n      swap1\n      keccak256\n        /* \"contracts/mlm.sol\":1403:1431  users[msg.sender].registered */\n      sload\n      shl(0xa0, 0x01)\n      swap1\n      div\n      0xff\n      and\n        /* \"contracts/mlm.sol\":1402:1431  !users[msg.sender].registered */\n      iszero\n        /* \"contracts/mlm.sol\":1394:1454  require(!users[msg.sender].registered, \"Already registered\") */\n      tag_182\n      jumpi\n      mload(0x40)\n      shl(0xe5, 0x461bcd)\n      dup2\n      mstore\n        /* \"#utility.yul\":5529:5531   */\n      0x20\n        /* \"contracts/mlm.sol\":1394:1454  require(!users[msg.sender].registered, \"Already registered\") */\n      0x04\n      dup3\n      add\n        /* \"#utility.yul\":5511:5532   */\n      mstore\n        /* \"#utility.yul\":5568:5570   */\n      0x12\n        /* \"#utility.yul\":5548:5566   */\n      0x24\n      dup3\n      add\n        /* \"#utility.yul\":5541:5571   */\n      mstore\n      shl(0x72, 0x105b1c9958591e481c9959da5cdd195c9959)\n        /* \"#utility.yul\":5587:5605   */\n      0x44\n      dup3\n      add\n        /* \"#utility.yul\":5580:5628   */\n      mstore\n        /* \"#utility.yul\":5645:5663   */\n      0x64\n      add\n        /* \"contracts/mlm.sol\":1394:1454  require(!users[msg.sender].registered, \"Already registered\") */\n      tag_118\n        /* \"#utility.yul\":5327:5669   */\n      jump\n        /* \"contracts/mlm.sol\":1394:1454  require(!users[msg.sender].registered, \"Already registered\") */\n    tag_182:\n        /* \"contracts/mlm.sol\":1485:1495  msg.sender */\n      caller\n      sub(shl(0xa0, 0x01), 0x01)\n        /* \"contracts/mlm.sol\":1472:1495  _referrer != msg.sender */\n      dup3\n      and\n      sub\n        /* \"contracts/mlm.sol\":1464:1521  require(_referrer != msg.sender, \"Cannot refer yourself\") */\n      tag_185\n      jumpi\n      mload(0x40)\n      shl(0xe5, 0x461bcd)\n      dup2\n      mstore\n        /* \"#utility.yul\":5876:5878   */\n      0x20\n        /* \"contracts/mlm.sol\":1464:1521  require(_referrer != msg.sender, \"Cannot refer yourself\") */\n      0x04\n      dup3\n      add\n        /* \"#utility.yul\":5858:5879   */\n      mstore\n        /* \"#utility.yul\":5915:5917   */\n      0x15\n        /* \"#utility.yul\":5895:5913   */\n      0x24\n      dup3\n      add\n        /* \"#utility.yul\":5888:5918   */\n      mstore\n      shl(0x59, 0x21b0b73737ba103932b332b9103cb7bab939b2b633)\n        /* \"#utility.yul\":5934:5952   */\n      0x44\n      dup3\n      add\n        /* \"#utility.yul\":5927:5978   */\n      mstore\n        /* \"#utility.yul\":5995:6013   */\n      0x64\n      add\n        /* \"contracts/mlm.sol\":1464:1521  require(_referrer != msg.sender, \"Cannot refer yourself\") */\n      tag_118\n        /* \"#utility.yul\":5674:6019   */\n      jump\n        /* \"contracts/mlm.sol\":1464:1521  require(_referrer != msg.sender, \"Cannot refer yourself\") */\n    tag_185:\n      sub(shl(0xa0, 0x01), 0x01)\n        /* \"contracts/mlm.sol\":1539:1555  users[_referrer] */\n      dup2\n      and\n      0x00\n      swap1\n      dup2\n      mstore\n        /* \"contracts/mlm.sol\":1539:1544  users */\n      0x01\n        /* \"contracts/mlm.sol\":1539:1555  users[_referrer] */\n      0x20\n      mstore\n      0x40\n      swap1\n      keccak256\n        /* \"contracts/mlm.sol\":1539:1566  users[_referrer].registered */\n      sload\n      shl(0xa0, 0x01)\n      swap1\n      div\n      0xff\n      and\n        /* \"contracts/mlm.sol\":1531:1594  require(users[_referrer].registered, \"Referrer not registered\") */\n      tag_188\n      jumpi\n      mload(0x40)\n      shl(0xe5, 0x461bcd)\n      dup2\n      mstore\n        /* \"#utility.yul\":6226:6228   */\n      0x20\n        /* \"contracts/mlm.sol\":1531:1594  require(users[_referrer].registered, \"Referrer not registered\") */\n      0x04\n      dup3\n      add\n        /* \"#utility.yul\":6208:6229   */\n      mstore\n        /* \"#utility.yul\":6265:6267   */\n      0x17\n        /* \"#utility.yul\":6245:6263   */\n      0x24\n      dup3\n      add\n        /* \"#utility.yul\":6238:6268   */\n      mstore\n        /* \"#utility.yul\":6304:6329   */\n      0x5265666572726572206e6f742072656769737465726564000000000000000000\n        /* \"#utility.yul\":6284:6302   */\n      0x44\n      dup3\n      add\n        /* \"#utility.yul\":6277:6330   */\n      mstore\n        /* \"#utility.yul\":6347:6365   */\n      0x64\n      add\n        /* \"contracts/mlm.sol\":1531:1594  require(users[_referrer].registered, \"Referrer not registered\") */\n      tag_118\n        /* \"#utility.yul\":6024:6371   */\n      jump\n        /* \"contracts/mlm.sol\":1531:1594  require(users[_referrer].registered, \"Referrer not registered\") */\n    tag_188:\n        /* \"contracts/mlm.sol\":1611:1621  msg.sender */\n      caller\n        /* \"contracts/mlm.sol\":1605:1622  users[msg.sender] */\n      0x00\n      swap1\n      dup2\n      mstore\n        /* \"contracts/mlm.sol\":1605:1610  users */\n      0x01\n        /* \"contracts/mlm.sol\":1605:1622  users[msg.sender] */\n      0x20\n      swap1\n      dup2\n      mstore\n      0x40\n      dup1\n      dup4\n      keccak256\n        /* \"contracts/mlm.sol\":1605:1643  users[msg.sender].referrer = _referrer */\n      dup1\n      sload\n      not(sub(shl(0xa8, 0x01), 0x01))\n        /* \"contracts/mlm.sol\":1653:1688  users[msg.sender].registered = true */\n      and\n      sub(shl(0xa0, 0x01), 0x01)\n        /* \"contracts/mlm.sol\":1605:1643  users[msg.sender].referrer = _referrer */\n      dup7\n      and\n        /* \"contracts/mlm.sol\":1653:1688  users[msg.sender].registered = true */\n      swap1\n      dup2\n      or\n      shl(0xa0, 0x01)\n      or\n      swap1\n      swap2\n      sstore\n        /* \"contracts/mlm.sol\":1742:1772  directReferralCount[_referrer] */\n      dup4\n      mstore\n        /* \"contracts/mlm.sol\":1742:1761  directReferralCount */\n      0x06\n        /* \"contracts/mlm.sol\":1742:1772  directReferralCount[_referrer] */\n      swap1\n      swap2\n      mstore\n      dup2\n      keccak256\n        /* \"contracts/mlm.sol\":1742:1774  directReferralCount[_referrer]++ */\n      dup1\n      sload\n      swap2\n      tag_191\n      dup4\n      tag_124\n      jump\t// in\n    tag_191:\n      swap1\n      swap2\n      sstore\n      pop\n      pop\n        /* \"contracts/mlm.sol\":1790:1823  Registered(msg.sender, _referrer) */\n      mload(0x40)\n      sub(shl(0xa0, 0x01), 0x01)\n      dup3\n      and\n      swap1\n        /* \"contracts/mlm.sol\":1801:1811  msg.sender */\n      caller\n      swap1\n        /* \"contracts/mlm.sol\":1790:1823  Registered(msg.sender, _referrer) */\n      0x0a31ee9d46a828884b81003c8498156ea6aa15b9b54bdd0ef0b533d9eba57e55\n      swap1\n      0x00\n      swap1\n      log3\n        /* \"contracts/mlm.sol\":1338:1830  function register(address _referrer) external {... */\n      pop\n      jump\t// out\n        /* \"contracts/mlm.sol\":3096:3742  function getStakeByPositionId(uint256 _positionId) external view returns (... */\n    tag_63:\n        /* \"contracts/mlm.sol\":3179:3191  address user */\n      0x00\n        /* \"contracts/mlm.sol\":3303:3332  positionIdToUser[_positionId] */\n      dup2\n      dup2\n      mstore\n        /* \"contracts/mlm.sol\":3303:3319  positionIdToUser */\n      0x02\n        /* \"contracts/mlm.sol\":3303:3332  positionIdToUser[_positionId] */\n      0x20\n      mstore\n      0x40\n      dup2\n      keccak256\n      sload\n        /* \"contracts/mlm.sol\":3179:3191  address user */\n      dup2\n      swap1\n      dup2\n      swap1\n      dup2\n      swap1\n      sub(shl(0xa0, 0x01), 0x01)\n        /* \"contracts/mlm.sol\":3303:3332  positionIdToUser[_positionId] */\n      and\n      dup1\n        /* \"contracts/mlm.sol\":3342:3395  require(userAddr != address(0), \"Invalid positionId\") */\n      tag_193\n      jumpi\n      mload(0x40)\n      shl(0xe5, 0x461bcd)\n      dup2\n      mstore\n        /* \"#utility.yul\":6578:6580   */\n      0x20\n        /* \"contracts/mlm.sol\":3342:3395  require(userAddr != address(0), \"Invalid positionId\") */\n      0x04\n      dup3\n      add\n        /* \"#utility.yul\":6560:6581   */\n      mstore\n        /* \"#utility.yul\":6617:6619   */\n      0x12\n        /* \"#utility.yul\":6597:6615   */\n      0x24\n      dup3\n      add\n        /* \"#utility.yul\":6590:6620   */\n      mstore\n      shl(0x72, 0x125b9d985b1a59081c1bdcda5d1a5bdb9259)\n        /* \"#utility.yul\":6636:6654   */\n      0x44\n      dup3\n      add\n        /* \"#utility.yul\":6629:6677   */\n      mstore\n        /* \"#utility.yul\":6694:6712   */\n      0x64\n      add\n        /* \"contracts/mlm.sol\":3342:3395  require(userAddr != address(0), \"Invalid positionId\") */\n      tag_118\n        /* \"#utility.yul\":6376:6718   */\n      jump\n        /* \"contracts/mlm.sol\":3342:3395  require(userAddr != address(0), \"Invalid positionId\") */\n    tag_193:\n      sub(shl(0xa0, 0x01), 0x01)\n        /* \"contracts/mlm.sol\":3430:3445  users[userAddr] */\n      dup2\n      and\n        /* \"contracts/mlm.sol\":3406:3427  Stake[] memory stakes */\n      0x00\n        /* \"contracts/mlm.sol\":3430:3445  users[userAddr] */\n      swap1\n      dup2\n      mstore\n        /* \"contracts/mlm.sol\":3430:3435  users */\n      0x01\n        /* \"contracts/mlm.sol\":3430:3445  users[userAddr] */\n      0x20\n      dup2\n      dup2\n      mstore\n      0x40\n      dup1\n      dup5\n      keccak256\n        /* \"contracts/mlm.sol\":3430:3452  users[userAddr].stakes */\n      swap1\n      swap3\n      add\n        /* \"contracts/mlm.sol\":3406:3452  Stake[] memory stakes = users[userAddr].stakes */\n      dup1\n      sload\n      dup4\n      mload\n      dup2\n      dup5\n      mul\n      dup2\n      add\n      dup5\n      add\n      swap1\n      swap5\n      mstore\n      dup1\n      dup5\n      mstore\n        /* \"contracts/mlm.sol\":3430:3452  users[userAddr].stakes */\n      swap1\n      swap2\n        /* \"contracts/mlm.sol\":3406:3427  Stake[] memory stakes */\n      dup5\n      swap1\n        /* \"contracts/mlm.sol\":3406:3452  Stake[] memory stakes = users[userAddr].stakes */\n      dup5\n      add\n    tag_196:\n      dup3\n      dup3\n      lt\n      iszero\n      tag_197\n      jumpi\n      dup4\n      dup3\n      swap1\n      0x00\n      mstore\n      keccak256(0x00, 0x20)\n      swap1\n      0x04\n      mul\n      add\n      mload(0x40)\n      dup1\n      0x80\n      add\n      0x40\n      mstore\n      swap1\n      dup2\n      0x00\n      dup3\n      add\n      sload\n      dup2\n      mstore\n      0x20\n      add\n      0x01\n      dup3\n      add\n      sload\n      dup2\n      mstore\n      0x20\n      add\n      0x02\n      dup3\n      add\n      sload\n      dup2\n      mstore\n      0x20\n      add\n      0x03\n      dup3\n      add\n      sload\n      dup2\n      mstore\n      pop\n      pop\n      dup2\n      mstore\n      0x20\n      add\n      swap1\n      0x01\n      add\n      swap1\n      jump(tag_196)\n    tag_197:\n      pop\n      pop\n      pop\n      pop\n      swap1\n      pop\n        /* \"contracts/mlm.sol\":3467:3476  uint256 i */\n      0x00\n        /* \"contracts/mlm.sol\":3462:3679  for (uint256 i = 0; i < stakes.length; i++) {... */\n    tag_199:\n        /* \"contracts/mlm.sol\":3486:3492  stakes */\n      dup2\n        /* \"contracts/mlm.sol\":3486:3499  stakes.length */\n      mload\n        /* \"contracts/mlm.sol\":3482:3483  i */\n      dup2\n        /* \"contracts/mlm.sol\":3482:3499  i < stakes.length */\n      lt\n        /* \"contracts/mlm.sol\":3462:3679  for (uint256 i = 0; i < stakes.length; i++) {... */\n      iszero\n      tag_200\n      jumpi\n        /* \"contracts/mlm.sol\":3548:3559  _positionId */\n      dup8\n        /* \"contracts/mlm.sol\":3524:3530  stakes */\n      dup3\n        /* \"contracts/mlm.sol\":3531:3532  i */\n      dup3\n        /* \"contracts/mlm.sol\":3524:3533  stakes[i] */\n      dup2\n      mload\n      dup2\n      lt\n      tag_203\n      jumpi\n      tag_203\n      tag_137\n      jump\t// in\n    tag_203:\n      0x20\n      mul\n      0x20\n      add\n      add\n      mload\n        /* \"contracts/mlm.sol\":3524:3544  stakes[i].positionId */\n      0x40\n      add\n      mload\n        /* \"contracts/mlm.sol\":3524:3559  stakes[i].positionId == _positionId */\n      sub\n        /* \"contracts/mlm.sol\":3520:3669  if (stakes[i].positionId == _positionId) {... */\n      tag_204\n      jumpi\n        /* \"contracts/mlm.sol\":3587:3595  userAddr */\n      dup3\n        /* \"contracts/mlm.sol\":3597:3603  stakes */\n      dup3\n        /* \"contracts/mlm.sol\":3604:3605  i */\n      dup3\n        /* \"contracts/mlm.sol\":3597:3606  stakes[i] */\n      dup2\n      mload\n      dup2\n      lt\n      tag_206\n      jumpi\n      tag_206\n      tag_137\n      jump\t// in\n    tag_206:\n      0x20\n      mul\n      0x20\n      add\n      add\n      mload\n        /* \"contracts/mlm.sol\":3597:3614  stakes[i].stakeId */\n      0x00\n      add\n      mload\n        /* \"contracts/mlm.sol\":3616:3622  stakes */\n      dup4\n        /* \"contracts/mlm.sol\":3623:3624  i */\n      dup4\n        /* \"contracts/mlm.sol\":3616:3625  stakes[i] */\n      dup2\n      mload\n      dup2\n      lt\n      tag_208\n      jumpi\n      tag_208\n      tag_137\n      jump\t// in\n    tag_208:\n      0x20\n      mul\n      0x20\n      add\n      add\n      mload\n        /* \"contracts/mlm.sol\":3616:3632  stakes[i].amount */\n      0x20\n      add\n      mload\n        /* \"contracts/mlm.sol\":3634:3640  stakes */\n      dup5\n        /* \"contracts/mlm.sol\":3641:3642  i */\n      dup5\n        /* \"contracts/mlm.sol\":3634:3643  stakes[i] */\n      dup2\n      mload\n      dup2\n      lt\n      tag_210\n      jumpi\n      tag_210\n      tag_137\n      jump\t// in\n    tag_210:\n      0x20\n      mul\n      0x20\n      add\n      add\n      mload\n        /* \"contracts/mlm.sol\":3634:3653  stakes[i].timestamp */\n      0x60\n      add\n      mload\n        /* \"contracts/mlm.sol\":3579:3654  return (userAddr, stakes[i].stakeId, stakes[i].amount, stakes[i].timestamp) */\n      swap7\n      pop\n      swap7\n      pop\n      swap7\n      pop\n      swap7\n      pop\n      pop\n      pop\n      pop\n      jump(tag_192)\n        /* \"contracts/mlm.sol\":3520:3669  if (stakes[i].positionId == _positionId) {... */\n    tag_204:\n        /* \"contracts/mlm.sol\":3501:3504  i++ */\n      0x01\n      add\n        /* \"contracts/mlm.sol\":3462:3679  for (uint256 i = 0; i < stakes.length; i++) {... */\n      jump(tag_199)\n    tag_200:\n      pop\n        /* \"contracts/mlm.sol\":3689:3735  revert(\"Stake not found for given positionId\") */\n      mload(0x40)\n      shl(0xe5, 0x461bcd)\n      dup2\n      mstore\n        /* \"#utility.yul\":6925:6927   */\n      0x20\n        /* \"contracts/mlm.sol\":3689:3735  revert(\"Stake not found for given positionId\") */\n      0x04\n      dup3\n      add\n        /* \"#utility.yul\":6907:6928   */\n      mstore\n        /* \"#utility.yul\":6964:6966   */\n      0x24\n        /* \"#utility.yul\":6944:6962   */\n      dup1\n      dup3\n      add\n        /* \"#utility.yul\":6937:6967   */\n      mstore\n        /* \"#utility.yul\":7003:7037   */\n      0x5374616b65206e6f7420666f756e6420666f7220676976656e20706f73697469\n        /* \"#utility.yul\":6983:7001   */\n      0x44\n      dup3\n      add\n        /* \"#utility.yul\":6976:7038   */\n      mstore\n      shl(0xe2, 0x1bdb9259)\n        /* \"#utility.yul\":7054:7072   */\n      0x64\n      dup3\n      add\n        /* \"#utility.yul\":7047:7081   */\n      mstore\n        /* \"#utility.yul\":7098:7117   */\n      0x84\n      add\n        /* \"contracts/mlm.sol\":3689:3735  revert(\"Stake not found for given positionId\") */\n      tag_118\n        /* \"#utility.yul\":6723:7123   */\n      jump\n        /* \"contracts/mlm.sol\":3096:3742  function getStakeByPositionId(uint256 _positionId) external view returns (... */\n    tag_192:\n      swap2\n      swap4\n      pop\n      swap2\n      swap4\n      jump\t// out\n        /* \"contracts/mlm.sol\":441:481  uint8[3] public levelRewards = [5, 3, 2] */\n    tag_108:\n      0x03\n      dup2\n      0x03\n      dup2\n      lt\n      tag_216\n      jumpi\n      0x00\n      dup1\n      revert\n    tag_216:\n      0x20\n      swap2\n      dup3\n      dup3\n      div\n      add\n      swap2\n      swap1\n      mod\n      swap2\n      pop\n      sload\n      swap1\n      0x0100\n      exp\n      swap1\n      div\n      0xff\n      and\n      dup2\n      jump\t// out\n        /* \"#utility.yul\":14:194   */\n    tag_29:\n        /* \"#utility.yul\":73:79   */\n      0x00\n        /* \"#utility.yul\":126:128   */\n      0x20\n        /* \"#utility.yul\":114:123   */\n      dup3\n        /* \"#utility.yul\":105:112   */\n      dup5\n        /* \"#utility.yul\":101:124   */\n      sub\n        /* \"#utility.yul\":97:129   */\n      slt\n        /* \"#utility.yul\":94:146   */\n      iszero\n      tag_221\n      jumpi\n        /* \"#utility.yul\":142:143   */\n      0x00\n        /* \"#utility.yul\":139:140   */\n      dup1\n        /* \"#utility.yul\":132:144   */\n      revert\n        /* \"#utility.yul\":94:146   */\n    tag_221:\n      pop\n        /* \"#utility.yul\":165:188   */\n      calldataload\n      swap2\n        /* \"#utility.yul\":14:194   */\n      swap1\n      pop\n      jump\t// out\n        /* \"#utility.yul\":407:693   */\n    tag_36:\n        /* \"#utility.yul\":466:472   */\n      0x00\n        /* \"#utility.yul\":519:521   */\n      0x20\n        /* \"#utility.yul\":507:516   */\n      dup3\n        /* \"#utility.yul\":498:505   */\n      dup5\n        /* \"#utility.yul\":494:517   */\n      sub\n        /* \"#utility.yul\":490:522   */\n      slt\n        /* \"#utility.yul\":487:539   */\n      iszero\n      tag_224\n      jumpi\n        /* \"#utility.yul\":535:536   */\n      0x00\n        /* \"#utility.yul\":532:533   */\n      dup1\n        /* \"#utility.yul\":525:537   */\n      revert\n        /* \"#utility.yul\":487:539   */\n    tag_224:\n        /* \"#utility.yul\":561:584   */\n      dup2\n      calldataload\n      sub(shl(0xa0, 0x01), 0x01)\n        /* \"#utility.yul\":613:644   */\n      dup2\n      and\n        /* \"#utility.yul\":603:645   */\n      dup2\n      eq\n        /* \"#utility.yul\":593:663   */\n      tag_225\n      jumpi\n        /* \"#utility.yul\":659:660   */\n      0x00\n        /* \"#utility.yul\":656:657   */\n      dup1\n        /* \"#utility.yul\":649:661   */\n      revert\n        /* \"#utility.yul\":593:663   */\n    tag_225:\n        /* \"#utility.yul\":682:687   */\n      swap4\n        /* \"#utility.yul\":407:693   */\n      swap3\n      pop\n      pop\n      pop\n      jump\t// out\n        /* \"#utility.yul\":880:1512   */\n    tag_45:\n        /* \"#utility.yul\":1051:1053   */\n      0x20\n        /* \"#utility.yul\":1103:1124   */\n      dup1\n      dup3\n      mstore\n        /* \"#utility.yul\":1173:1186   */\n      dup3\n      mload\n        /* \"#utility.yul\":1076:1094   */\n      dup3\n      dup3\n      add\n        /* \"#utility.yul\":1195:1217   */\n      dup2\n      swap1\n      mstore\n        /* \"#utility.yul\":1022:1026   */\n      0x00\n      swap2\n        /* \"#utility.yul\":1051:1053   */\n      swap1\n        /* \"#utility.yul\":1274:1289   */\n      dup5\n      dup3\n      add\n      swap1\n        /* \"#utility.yul\":1248:1250   */\n      0x40\n        /* \"#utility.yul\":1233:1251   */\n      dup6\n      add\n      swap1\n        /* \"#utility.yul\":1022:1026   */\n      dup5\n        /* \"#utility.yul\":1317:1486   */\n    tag_228:\n        /* \"#utility.yul\":1331:1337   */\n      dup2\n        /* \"#utility.yul\":1328:1329   */\n      dup2\n        /* \"#utility.yul\":1325:1338   */\n      lt\n        /* \"#utility.yul\":1317:1486   */\n      iszero\n      tag_230\n      jumpi\n        /* \"#utility.yul\":1392:1405   */\n      dup4\n      mload\n        /* \"#utility.yul\":1380:1406   */\n      dup4\n      mstore\n        /* \"#utility.yul\":1461:1476   */\n      swap3\n      dup5\n      add\n      swap3\n        /* \"#utility.yul\":1426:1438   */\n      swap2\n      dup5\n      add\n      swap2\n        /* \"#utility.yul\":1353:1354   */\n      0x01\n        /* \"#utility.yul\":1346:1355   */\n      add\n        /* \"#utility.yul\":1317:1486   */\n      jump(tag_228)\n    tag_230:\n      pop\n        /* \"#utility.yul\":1503:1506   */\n      swap1\n      swap7\n        /* \"#utility.yul\":880:1512   */\n      swap6\n      pop\n      pop\n      pop\n      pop\n      pop\n      pop\n      jump\t// out\n        /* \"#utility.yul\":2765:2892   */\n    tag_218:\n        /* \"#utility.yul\":2826:2836   */\n      0x4e487b71\n        /* \"#utility.yul\":2821:2824   */\n      0xe0\n        /* \"#utility.yul\":2817:2837   */\n      shl\n        /* \"#utility.yul\":2814:2815   */\n      0x00\n        /* \"#utility.yul\":2807:2838   */\n      mstore\n        /* \"#utility.yul\":2857:2861   */\n      0x11\n        /* \"#utility.yul\":2854:2855   */\n      0x04\n        /* \"#utility.yul\":2847:2862   */\n      mstore\n        /* \"#utility.yul\":2881:2885   */\n      0x24\n        /* \"#utility.yul\":2878:2879   */\n      0x00\n        /* \"#utility.yul\":2871:2886   */\n      revert\n        /* \"#utility.yul\":2897:3032   */\n    tag_124:\n        /* \"#utility.yul\":2936:2939   */\n      0x00\n        /* \"#utility.yul\":2957:2974   */\n      0x01\n      dup3\n      add\n        /* \"#utility.yul\":2954:2997   */\n      tag_238\n      jumpi\n        /* \"#utility.yul\":2977:2995   */\n      tag_238\n      tag_218\n      jump\t// in\n    tag_238:\n      pop\n        /* \"#utility.yul\":3024:3025   */\n      0x01\n        /* \"#utility.yul\":3013:3026   */\n      add\n      swap1\n        /* \"#utility.yul\":2897:3032   */\n      jump\t// out\n        /* \"#utility.yul\":3037:3164   */\n    tag_130:\n        /* \"#utility.yul\":3098:3108   */\n      0x4e487b71\n        /* \"#utility.yul\":3093:3096   */\n      0xe0\n        /* \"#utility.yul\":3089:3109   */\n      shl\n        /* \"#utility.yul\":3086:3087   */\n      0x00\n        /* \"#utility.yul\":3079:3110   */\n      mstore\n        /* \"#utility.yul\":3129:3133   */\n      0x41\n        /* \"#utility.yul\":3126:3127   */\n      0x04\n        /* \"#utility.yul\":3119:3134   */\n      mstore\n        /* \"#utility.yul\":3153:3157   */\n      0x24\n        /* \"#utility.yul\":3150:3151   */\n      0x00\n        /* \"#utility.yul\":3143:3158   */\n      revert\n        /* \"#utility.yul\":3169:3296   */\n    tag_137:\n        /* \"#utility.yul\":3230:3240   */\n      0x4e487b71\n        /* \"#utility.yul\":3225:3228   */\n      0xe0\n        /* \"#utility.yul\":3221:3241   */\n      shl\n        /* \"#utility.yul\":3218:3219   */\n      0x00\n        /* \"#utility.yul\":3211:3242   */\n      mstore\n        /* \"#utility.yul\":3261:3265   */\n      0x32\n        /* \"#utility.yul\":3258:3259   */\n      0x04\n        /* \"#utility.yul\":3251:3266   */\n      mstore\n        /* \"#utility.yul\":3285:3289   */\n      0x24\n        /* \"#utility.yul\":3282:3283   */\n      0x00\n        /* \"#utility.yul\":3275:3290   */\n      revert\n        /* \"#utility.yul\":4369:4537   */\n    tag_168:\n        /* \"#utility.yul\":4442:4451   */\n      dup1\n      dup3\n      mul\n        /* \"#utility.yul\":4473:4482   */\n      dup2\n      iszero\n        /* \"#utility.yul\":4490:4505   */\n      dup3\n      dup3\n      div\n        /* \"#utility.yul\":4484:4506   */\n      dup5\n      eq\n        /* \"#utility.yul\":4470:4507   */\n      or\n        /* \"#utility.yul\":4460:4531   */\n      tag_246\n      jumpi\n        /* \"#utility.yul\":4511:4529   */\n      tag_246\n      tag_218\n      jump\t// in\n    tag_246:\n        /* \"#utility.yul\":4369:4537   */\n      swap3\n      swap2\n      pop\n      pop\n      jump\t// out\n        /* \"#utility.yul\":4542:4759   */\n    tag_170:\n        /* \"#utility.yul\":4582:4583   */\n      0x00\n        /* \"#utility.yul\":4608:4609   */\n      dup3\n        /* \"#utility.yul\":4598:4730   */\n      tag_248\n      jumpi\n        /* \"#utility.yul\":4652:4662   */\n      0x4e487b71\n        /* \"#utility.yul\":4647:4650   */\n      0xe0\n        /* \"#utility.yul\":4643:4663   */\n      shl\n        /* \"#utility.yul\":4640:4641   */\n      0x00\n        /* \"#utility.yul\":4633:4664   */\n      mstore\n        /* \"#utility.yul\":4687:4691   */\n      0x12\n        /* \"#utility.yul\":4684:4685   */\n      0x04\n        /* \"#utility.yul\":4677:4692   */\n      mstore\n        /* \"#utility.yul\":4715:4719   */\n      0x24\n        /* \"#utility.yul\":4712:4713   */\n      0x00\n        /* \"#utility.yul\":4705:4720   */\n      revert\n        /* \"#utility.yul\":4598:4730   */\n    tag_248:\n      pop\n        /* \"#utility.yul\":4744:4753   */\n      div\n      swap1\n        /* \"#utility.yul\":4542:4759   */\n      jump\t// out\n        /* \"#utility.yul\":4764:4889   */\n    tag_174:\n        /* \"#utility.yul\":4829:4838   */\n      dup1\n      dup3\n      add\n        /* \"#utility.yul\":4850:4860   */\n      dup1\n      dup3\n      gt\n        /* \"#utility.yul\":4847:4883   */\n      iszero\n      tag_246\n      jumpi\n        /* \"#utility.yul\":4863:4881   */\n      tag_246\n      tag_218\n      jump\t// in\n        /* \"#utility.yul\":4894:5069   */\n    tag_178:\n        /* \"#utility.yul\":4931:4934   */\n      0x00\n        /* \"#utility.yul\":4975:4979   */\n      0xff\n        /* \"#utility.yul\":4968:4973   */\n      dup3\n        /* \"#utility.yul\":4964:4980   */\n      and\n        /* \"#utility.yul\":5004:5008   */\n      0xff\n        /* \"#utility.yul\":4995:5002   */\n      dup2\n        /* \"#utility.yul\":4992:5009   */\n      sub\n        /* \"#utility.yul\":4989:5032   */\n      tag_254\n      jumpi\n        /* \"#utility.yul\":5012:5030   */\n      tag_254\n      tag_218\n      jump\t// in\n    tag_254:\n        /* \"#utility.yul\":5061:5062   */\n      0x01\n        /* \"#utility.yul\":5048:5063   */\n      add\n      swap3\n        /* \"#utility.yul\":4894:5069   */\n      swap2\n      pop\n      pop\n      jump\t// out\n\n    auxdata: 0xa2646970667358221220c0a24a3e8ce141584cbf6eb9a47156d1f3de2762a0c1729e1659fe15d918173364736f6c63430008190033\n}\n",
				"bytecode": {
					"linkReferences": {},
					"object": "60e060405260056080908152600360a0819052600260c05261002191816100e6565b5034801561002d575f80fd5b506040516110f13803806110f183398101604081905261004c9161018a565b6001600160a01b0381166100a65760405162461bcd60e51b815260206004820152601c60248201527f4f776e657220616464726573732063616e6e6f74206265207a65726f00000000604482015260640160405180910390fd5b5f80546001600160a01b039092166001600160a01b031990921682178155908152600160205260409020805460ff60a01b1916600160a01b1790556101b7565b600183019183908215610166579160200282015f5b8382111561013857835183826101000a81548160ff021916908360ff16021790555092602001926001016020815f010492830192600103026100fb565b80156101645782816101000a81549060ff02191690556001016020815f01049283019260010302610138565b505b50610172929150610176565b5090565b5b80821115610172575f8155600101610177565b5f6020828403121561019a575f80fd5b81516001600160a01b03811681146101b0575f80fd5b9392505050565b610f2d806101c45f395ff3fe608060405260043610610108575f3560e01c8063899346c711610092578063aa7ed46211610062578063aa7ed46214610354578063b77b7dc914610388578063c2d3c677146103b3578063e45a57d0146103e7578063f6e8887314610418575f80fd5b8063899346c71461028e5780638da5cb5b146102a357806398278efb146102c1578063a87430ba146102f5575f80fd5b80633a4b66f1116100d85780633a4b66f1146101de5780634420e486146101e657806375506c9614610205578063797c7f5f1461021a578063862ba05f14610263575f80fd5b80631e43eb271461011357806321923bde1461016457806328fe7031146101915780632e1a7d4d146101bd575f80fd5b3661010f57005b5f80fd5b34801561011e575f80fd5b5061014761012d366004610daf565b60026020525f90815260409020546001600160a01b031681565b6040516001600160a01b0390911681526020015b60405180910390f35b34801561016f575f80fd5b5061018361017e366004610dc6565b610443565b60405190815260200161015b565b34801561019c575f80fd5b506101b06101ab366004610dc6565b610563565b60405161015b9190610df3565b3480156101c8575f80fd5b506101dc6101d7366004610daf565b61063a565b005b6101dc61071d565b3480156101f1575f80fd5b506101dc610200366004610dc6565b6109fa565b348015610210575f80fd5b5061018360045481565b348015610225575f80fd5b50610239610234366004610daf565b610b98565b604080516001600160a01b039095168552602085019390935291830152606082015260800161015b565b34801561026e575f80fd5b5061018361027d366004610dc6565b60086020525f908152604090205481565b348015610299575f80fd5b5061018360055481565b3480156102ae575f80fd5b505f54610147906001600160a01b031681565b3480156102cc575f80fd5b506101836102db366004610dc6565b6001600160a01b03165f9081526006602052604090205490565b348015610300575f80fd5b5061033561030f366004610dc6565b60016020525f90815260409020546001600160a01b03811690600160a01b900460ff1682565b604080516001600160a01b03909316835290151560208301520161015b565b34801561035f575f80fd5b5061018361036e366004610dc6565b6001600160a01b03165f9081526007602052604090205490565b348015610393575f80fd5b506101836103a2366004610dc6565b60066020525f908152604090205481565b3480156103be575f80fd5b506101836103cd366004610dc6565b6001600160a01b03165f9081526008602052604090205490565b3480156103f2575f80fd5b50610406610401366004610daf565b610d86565b60405160ff909116815260200161015b565b348015610423575f80fd5b50610183610432366004610dc6565b60076020525f908152604090205481565b6001600160a01b0381165f90815260016020526040812054600160a01b900460ff166104ac5760405162461bcd60e51b8152602060048201526013602482015272155cd95c881b9bdd081c9959da5cdd195c9959606a1b60448201526064015b60405180910390fd5b5f825b6001600160a01b038181165f9081526001602052604090205416158015906104f457505f80546001600160a01b03838116835260016020526040909220548216911614155b15610529578161050381610e4a565b6001600160a01b039283165f9081526001602052604090205490935090911690506104af565b5f80546001600160a01b038381168352600160205260409092205490821691160361055c578161055881610e4a565b9250505b5092915050565b6001600160a01b0381165f908152600160208190526040822001546060918167ffffffffffffffff81111561059a5761059a610e62565b6040519080825280602002602001820160405280156105c3578160200160208202803683370190505b5090505f5b82811015610632576001600160a01b0385165f908152600160208190526040909120018054829081106105fd576105fd610e76565b905f5260205f2090600402016002015482828151811061061f5761061f610e76565b60209081029190910101526001016105c8565b509392505050565b5f546001600160a01b031633146106935760405162461bcd60e51b815260206004820152601760248201527f4f6e6c79206f776e65722063616e20776974686472617700000000000000000060448201526064016104a3565b804710156106e35760405162461bcd60e51b815260206004820152601d60248201527f496e73756666696369656e7420636f6e74726163742062616c616e636500000060448201526064016104a3565b5f80546040516001600160a01b039091169183156108fc02918491818181858888f19350505050158015610719573d5f803e3d5ffd5b5050565b335f90815260016020526040902054600160a01b900460ff166107785760405162461bcd60e51b8152602060048201526013602482015272155cd95c881b9bdd081c9959da5cdd195c9959606a1b60448201526064016104a3565b5f34116107c75760405162461bcd60e51b815260206004820152601d60248201527f416d6f756e74206d7573742062652067726561746572207468616e203000000060448201526064016104a3565b600480545f91826107d783610e4a565b90915550600580549192505f9190826107ef83610e4a565b90915550335f81815260016020818152604080842081516080810183528981523481850190815281840189815242606084018181528589018054808b018255908b52888b209551600490910290950194855592518489015590516002808501919091559151600390930192909255888752845291852080546001600160a01b03191687179055948452919052915492935090916001600160a01b0316905b60038160ff1610156109b4576001600160a01b038216156109b4575f606460038360ff16600381106108c1576108c1610e76565b6020810491909101546108e091601f166101000a900460ff1634610e8a565b6108ea9190610ea7565b6040519091506001600160a01b0384169082156108fc029083905f818181858888f19350505050158015610920573d5f803e3d5ffd5b506001600160a01b0383165f9081526008602052604081208054839290610948908490610ec6565b909155505060ff82165f03610984576001600160a01b0383165f908152600760205260408120805483929061097e908490610ec6565b90915550505b506001600160a01b039182165f9081526001602052604090205490911690806109ac81610ed9565b91505061088d565b5060408051348152602081018490528491869133917f9cfd25589d1eb8ad71e342a86a8524e83522e3936c0803048c08f6d9ad974f40910160405180910390a450505050565b335f90815260016020526040902054600160a01b900460ff1615610a555760405162461bcd60e51b8152602060048201526012602482015271105b1c9958591e481c9959da5cdd195c995960721b60448201526064016104a3565b336001600160a01b03821603610aa55760405162461bcd60e51b815260206004820152601560248201527421b0b73737ba103932b332b9103cb7bab939b2b63360591b60448201526064016104a3565b6001600160a01b0381165f90815260016020526040902054600160a01b900460ff16610b135760405162461bcd60e51b815260206004820152601760248201527f5265666572726572206e6f74207265676973746572656400000000000000000060448201526064016104a3565b335f90815260016020908152604080832080546001600160a81b0319166001600160a01b038616908117600160a01b17909155835260069091528120805491610b5b83610e4a565b90915550506040516001600160a01b0382169033907f0a31ee9d46a828884b81003c8498156ea6aa15b9b54bdd0ef0b533d9eba57e55905f90a350565b5f818152600260205260408120548190819081906001600160a01b031680610bf75760405162461bcd60e51b8152602060048201526012602482015271125b9d985b1a59081c1bdcda5d1a5bdb925960721b60448201526064016104a3565b6001600160a01b0381165f90815260016020818152604080842090920180548351818402810184019094528084529091849084015b82821015610c83578382905f5260205f2090600402016040518060800160405290815f8201548152602001600182015481526020016002820154815260200160038201548152505081526020019060010190610c2c565b5050505090505f5b8151811015610d2a5787828281518110610ca757610ca7610e76565b60200260200101516040015103610d225782828281518110610ccb57610ccb610e76565b60200260200101515f0151838381518110610ce857610ce8610e76565b602002602001015160200151848481518110610d0657610d06610e76565b6020026020010151606001519650965096509650505050610d7f565b600101610c8b565b5060405162461bcd60e51b8152602060048201526024808201527f5374616b65206e6f7420666f756e6420666f7220676976656e20706f736974696044820152631bdb925960e21b60648201526084016104a3565b9193509193565b60038160038110610d95575f80fd5b60209182820401919006915054906101000a900460ff1681565b5f60208284031215610dbf575f80fd5b5035919050565b5f60208284031215610dd6575f80fd5b81356001600160a01b0381168114610dec575f80fd5b9392505050565b602080825282518282018190525f9190848201906040850190845b81811015610e2a57835183529284019291840191600101610e0e565b50909695505050505050565b634e487b7160e01b5f52601160045260245ffd5b5f60018201610e5b57610e5b610e36565b5060010190565b634e487b7160e01b5f52604160045260245ffd5b634e487b7160e01b5f52603260045260245ffd5b8082028115828204841417610ea157610ea1610e36565b92915050565b5f82610ec157634e487b7160e01b5f52601260045260245ffd5b500490565b80820180821115610ea157610ea1610e36565b5f60ff821660ff8103610eee57610eee610e36565b6001019291505056fea2646970667358221220c0a24a3e8ce141584cbf6eb9a47156d1f3de2762a0c1729e1659fe15d918173364736f6c63430008190033",
					"opcodes": "PUSH1 0xE0 PUSH1 0x40 MSTORE PUSH1 0x5 PUSH1 0x80 SWAP1 DUP2 MSTORE PUSH1 0x3 PUSH1 0xA0 DUP2 SWAP1 MSTORE PUSH1 0x2 PUSH1 0xC0 MSTORE PUSH2 0x21 SWAP2 DUP2 PUSH2 0xE6 JUMP JUMPDEST POP CALLVALUE DUP1 ISZERO PUSH2 0x2D JUMPI PUSH0 DUP1 REVERT JUMPDEST POP PUSH1 0x40 MLOAD PUSH2 0x10F1 CODESIZE SUB DUP1 PUSH2 0x10F1 DUP4 CODECOPY DUP2 ADD PUSH1 0x40 DUP2 SWAP1 MSTORE PUSH2 0x4C SWAP2 PUSH2 0x18A JUMP JUMPDEST PUSH1 0x1 PUSH1 0x1 PUSH1 0xA0 SHL SUB DUP2 AND PUSH2 0xA6 JUMPI PUSH1 0x40 MLOAD PUSH3 0x461BCD PUSH1 0xE5 SHL DUP2 MSTORE PUSH1 0x20 PUSH1 0x4 DUP3 ADD MSTORE PUSH1 0x1C PUSH1 0x24 DUP3 ADD MSTORE PUSH32 0x4F776E657220616464726573732063616E6E6F74206265207A65726F00000000 PUSH1 0x44 DUP3 ADD MSTORE PUSH1 0x64 ADD PUSH1 0x40 MLOAD DUP1 SWAP2 SUB SWAP1 REVERT JUMPDEST PUSH0 DUP1 SLOAD PUSH1 0x1 PUSH1 0x1 PUSH1 0xA0 SHL SUB SWAP1 SWAP3 AND PUSH1 0x1 PUSH1 0x1 PUSH1 0xA0 SHL SUB NOT SWAP1 SWAP3 AND DUP3 OR DUP2 SSTORE SWAP1 DUP2 MSTORE PUSH1 0x1 PUSH1 0x20 MSTORE PUSH1 0x40 SWAP1 KECCAK256 DUP1 SLOAD PUSH1 0xFF PUSH1 0xA0 SHL NOT AND PUSH1 0x1 PUSH1 0xA0 SHL OR SWAP1 SSTORE PUSH2 0x1B7 JUMP JUMPDEST PUSH1 0x1 DUP4 ADD SWAP2 DUP4 SWAP1 DUP3 ISZERO PUSH2 0x166 JUMPI SWAP2 PUSH1 0x20 MUL DUP3 ADD PUSH0 JUMPDEST DUP4 DUP3 GT ISZERO PUSH2 0x138 JUMPI DUP4 MLOAD DUP4 DUP3 PUSH2 0x100 EXP DUP2 SLOAD DUP2 PUSH1 0xFF MUL NOT AND SWAP1 DUP4 PUSH1 0xFF AND MUL OR SWAP1 SSTORE POP SWAP3 PUSH1 0x20 ADD SWAP3 PUSH1 0x1 ADD PUSH1 0x20 DUP2 PUSH0 ADD DIV SWAP3 DUP4 ADD SWAP3 PUSH1 0x1 SUB MUL PUSH2 0xFB JUMP JUMPDEST DUP1 ISZERO PUSH2 0x164 JUMPI DUP3 DUP2 PUSH2 0x100 EXP DUP2 SLOAD SWAP1 PUSH1 0xFF MUL NOT AND SWAP1 SSTORE PUSH1 0x1 ADD PUSH1 0x20 DUP2 PUSH0 ADD DIV SWAP3 DUP4 ADD SWAP3 PUSH1 0x1 SUB MUL PUSH2 0x138 JUMP JUMPDEST POP JUMPDEST POP PUSH2 0x172 SWAP3 SWAP2 POP PUSH2 0x176 JUMP JUMPDEST POP SWAP1 JUMP JUMPDEST JUMPDEST DUP1 DUP3 GT ISZERO PUSH2 0x172 JUMPI PUSH0 DUP2 SSTORE PUSH1 0x1 ADD PUSH2 0x177 JUMP JUMPDEST PUSH0 PUSH1 0x20 DUP3 DUP5 SUB SLT ISZERO PUSH2 0x19A JUMPI PUSH0 DUP1 REVERT JUMPDEST DUP2 MLOAD PUSH1 0x1 PUSH1 0x1 PUSH1 0xA0 SHL SUB DUP2 AND DUP2 EQ PUSH2 0x1B0 JUMPI PUSH0 DUP1 REVERT JUMPDEST SWAP4 SWAP3 POP POP POP JUMP JUMPDEST PUSH2 0xF2D DUP1 PUSH2 0x1C4 PUSH0 CODECOPY PUSH0 RETURN INVALID PUSH1 0x80 PUSH1 0x40 MSTORE PUSH1 0x4 CALLDATASIZE LT PUSH2 0x108 JUMPI PUSH0 CALLDATALOAD PUSH1 0xE0 SHR DUP1 PUSH4 0x899346C7 GT PUSH2 0x92 JUMPI DUP1 PUSH4 0xAA7ED462 GT PUSH2 0x62 JUMPI DUP1 PUSH4 0xAA7ED462 EQ PUSH2 0x354 JUMPI DUP1 PUSH4 0xB77B7DC9 EQ PUSH2 0x388 JUMPI DUP1 PUSH4 0xC2D3C677 EQ PUSH2 0x3B3 JUMPI DUP1 PUSH4 0xE45A57D0 EQ PUSH2 0x3E7 JUMPI DUP1 PUSH4 0xF6E88873 EQ PUSH2 0x418 JUMPI PUSH0 DUP1 REVERT JUMPDEST DUP1 PUSH4 0x899346C7 EQ PUSH2 0x28E JUMPI DUP1 PUSH4 0x8DA5CB5B EQ PUSH2 0x2A3 JUMPI DUP1 PUSH4 0x98278EFB EQ PUSH2 0x2C1 JUMPI DUP1 PUSH4 0xA87430BA EQ PUSH2 0x2F5 JUMPI PUSH0 DUP1 REVERT JUMPDEST DUP1 PUSH4 0x3A4B66F1 GT PUSH2 0xD8 JUMPI DUP1 PUSH4 0x3A4B66F1 EQ PUSH2 0x1DE JUMPI DUP1 PUSH4 0x4420E486 EQ PUSH2 0x1E6 JUMPI DUP1 PUSH4 0x75506C96 EQ PUSH2 0x205 JUMPI DUP1 PUSH4 0x797C7F5F EQ PUSH2 0x21A JUMPI DUP1 PUSH4 0x862BA05F EQ PUSH2 0x263 JUMPI PUSH0 DUP1 REVERT JUMPDEST DUP1 PUSH4 0x1E43EB27 EQ PUSH2 0x113 JUMPI DUP1 PUSH4 0x21923BDE EQ PUSH2 0x164 JUMPI DUP1 PUSH4 0x28FE7031 EQ PUSH2 0x191 JUMPI DUP1 PUSH4 0x2E1A7D4D EQ PUSH2 0x1BD JUMPI PUSH0 DUP1 REVERT JUMPDEST CALLDATASIZE PUSH2 0x10F JUMPI STOP JUMPDEST PUSH0 DUP1 REVERT JUMPDEST CALLVALUE DUP1 ISZERO PUSH2 0x11E JUMPI PUSH0 DUP1 REVERT JUMPDEST POP PUSH2 0x147 PUSH2 0x12D CALLDATASIZE PUSH1 0x4 PUSH2 0xDAF JUMP JUMPDEST PUSH1 0x2 PUSH1 0x20 MSTORE PUSH0 SWAP1 DUP2 MSTORE PUSH1 0x40 SWAP1 KECCAK256 SLOAD PUSH1 0x1 PUSH1 0x1 PUSH1 0xA0 SHL SUB AND DUP2 JUMP JUMPDEST PUSH1 0x40 MLOAD PUSH1 0x1 PUSH1 0x1 PUSH1 0xA0 SHL SUB SWAP1 SWAP2 AND DUP2 MSTORE PUSH1 0x20 ADD JUMPDEST PUSH1 0x40 MLOAD DUP1 SWAP2 SUB SWAP1 RETURN JUMPDEST CALLVALUE DUP1 ISZERO PUSH2 0x16F JUMPI PUSH0 DUP1 REVERT JUMPDEST POP PUSH2 0x183 PUSH2 0x17E CALLDATASIZE PUSH1 0x4 PUSH2 0xDC6 JUMP JUMPDEST PUSH2 0x443 JUMP JUMPDEST PUSH1 0x40 MLOAD SWAP1 DUP2 MSTORE PUSH1 0x20 ADD PUSH2 0x15B JUMP JUMPDEST CALLVALUE DUP1 ISZERO PUSH2 0x19C JUMPI PUSH0 DUP1 REVERT JUMPDEST POP PUSH2 0x1B0 PUSH2 0x1AB CALLDATASIZE PUSH1 0x4 PUSH2 0xDC6 JUMP JUMPDEST PUSH2 0x563 JUMP JUMPDEST PUSH1 0x40 MLOAD PUSH2 0x15B SWAP2 SWAP1 PUSH2 0xDF3 JUMP JUMPDEST CALLVALUE DUP1 ISZERO PUSH2 0x1C8 JUMPI PUSH0 DUP1 REVERT JUMPDEST POP PUSH2 0x1DC PUSH2 0x1D7 CALLDATASIZE PUSH1 0x4 PUSH2 0xDAF JUMP JUMPDEST PUSH2 0x63A JUMP JUMPDEST STOP JUMPDEST PUSH2 0x1DC PUSH2 0x71D JUMP JUMPDEST CALLVALUE DUP1 ISZERO PUSH2 0x1F1 JUMPI PUSH0 DUP1 REVERT JUMPDEST POP PUSH2 0x1DC PUSH2 0x200 CALLDATASIZE PUSH1 0x4 PUSH2 0xDC6 JUMP JUMPDEST PUSH2 0x9FA JUMP JUMPDEST CALLVALUE DUP1 ISZERO PUSH2 0x210 JUMPI PUSH0 DUP1 REVERT JUMPDEST POP PUSH2 0x183 PUSH1 0x4 SLOAD DUP2 JUMP JUMPDEST CALLVALUE DUP1 ISZERO PUSH2 0x225 JUMPI PUSH0 DUP1 REVERT JUMPDEST POP PUSH2 0x239 PUSH2 0x234 CALLDATASIZE PUSH1 0x4 PUSH2 0xDAF JUMP JUMPDEST PUSH2 0xB98 JUMP JUMPDEST PUSH1 0x40 DUP1 MLOAD PUSH1 0x1 PUSH1 0x1 PUSH1 0xA0 SHL SUB SWAP1 SWAP6 AND DUP6 MSTORE PUSH1 0x20 DUP6 ADD SWAP4 SWAP1 SWAP4 MSTORE SWAP2 DUP4 ADD MSTORE PUSH1 0x60 DUP3 ADD MSTORE PUSH1 0x80 ADD PUSH2 0x15B JUMP JUMPDEST CALLVALUE DUP1 ISZERO PUSH2 0x26E JUMPI PUSH0 DUP1 REVERT JUMPDEST POP PUSH2 0x183 PUSH2 0x27D CALLDATASIZE PUSH1 0x4 PUSH2 0xDC6 JUMP JUMPDEST PUSH1 0x8 PUSH1 0x20 MSTORE PUSH0 SWAP1 DUP2 MSTORE PUSH1 0x40 SWAP1 KECCAK256 SLOAD DUP2 JUMP JUMPDEST CALLVALUE DUP1 ISZERO PUSH2 0x299 JUMPI PUSH0 DUP1 REVERT JUMPDEST POP PUSH2 0x183 PUSH1 0x5 SLOAD DUP2 JUMP JUMPDEST CALLVALUE DUP1 ISZERO PUSH2 0x2AE JUMPI PUSH0 DUP1 REVERT JUMPDEST POP PUSH0 SLOAD PUSH2 0x147 SWAP1 PUSH1 0x1 PUSH1 0x1 PUSH1 0xA0 SHL SUB AND DUP2 JUMP JUMPDEST CALLVALUE DUP1 ISZERO PUSH2 0x2CC JUMPI PUSH0 DUP1 REVERT JUMPDEST POP PUSH2 0x183 PUSH2 0x2DB CALLDATASIZE PUSH1 0x4 PUSH2 0xDC6 JUMP JUMPDEST PUSH1 0x1 PUSH1 0x1 PUSH1 0xA0 SHL SUB AND PUSH0 SWAP1 DUP2 MSTORE PUSH1 0x6 PUSH1 0x20 MSTORE PUSH1 0x40 SWAP1 KECCAK256 SLOAD SWAP1 JUMP JUMPDEST CALLVALUE DUP1 ISZERO PUSH2 0x300 JUMPI PUSH0 DUP1 REVERT JUMPDEST POP PUSH2 0x335 PUSH2 0x30F CALLDATASIZE PUSH1 0x4 PUSH2 0xDC6 JUMP JUMPDEST PUSH1 0x1 PUSH1 0x20 MSTORE PUSH0 SWAP1 DUP2 MSTORE PUSH1 0x40 SWAP1 KECCAK256 SLOAD PUSH1 0x1 PUSH1 0x1 PUSH1 0xA0 SHL SUB DUP2 AND SWAP1 PUSH1 0x1 PUSH1 0xA0 SHL SWAP1 DIV PUSH1 0xFF AND DUP3 JUMP JUMPDEST PUSH1 0x40 DUP1 MLOAD PUSH1 0x1 PUSH1 0x1 PUSH1 0xA0 SHL SUB SWAP1 SWAP4 AND DUP4 MSTORE SWAP1 ISZERO ISZERO PUSH1 0x20 DUP4 ADD MSTORE ADD PUSH2 0x15B JUMP JUMPDEST CALLVALUE DUP1 ISZERO PUSH2 0x35F JUMPI PUSH0 DUP1 REVERT JUMPDEST POP PUSH2 0x183 PUSH2 0x36E CALLDATASIZE PUSH1 0x4 PUSH2 0xDC6 JUMP JUMPDEST PUSH1 0x1 PUSH1 0x1 PUSH1 0xA0 SHL SUB AND PUSH0 SWAP1 DUP2 MSTORE PUSH1 0x7 PUSH1 0x20 MSTORE PUSH1 0x40 SWAP1 KECCAK256 SLOAD SWAP1 JUMP JUMPDEST CALLVALUE DUP1 ISZERO PUSH2 0x393 JUMPI PUSH0 DUP1 REVERT JUMPDEST POP PUSH2 0x183 PUSH2 0x3A2 CALLDATASIZE PUSH1 0x4 PUSH2 0xDC6 JUMP JUMPDEST PUSH1 0x6 PUSH1 0x20 MSTORE PUSH0 SWAP1 DUP2 MSTORE PUSH1 0x40 SWAP1 KECCAK256 SLOAD DUP2 JUMP JUMPDEST CALLVALUE DUP1 ISZERO PUSH2 0x3BE JUMPI PUSH0 DUP1 REVERT JUMPDEST POP PUSH2 0x183 PUSH2 0x3CD CALLDATASIZE PUSH1 0x4 PUSH2 0xDC6 JUMP JUMPDEST PUSH1 0x1 PUSH1 0x1 PUSH1 0xA0 SHL SUB AND PUSH0 SWAP1 DUP2 MSTORE PUSH1 0x8 PUSH1 0x20 MSTORE PUSH1 0x40 SWAP1 KECCAK256 SLOAD SWAP1 JUMP JUMPDEST CALLVALUE DUP1 ISZERO PUSH2 0x3F2 JUMPI PUSH0 DUP1 REVERT JUMPDEST POP PUSH2 0x406 PUSH2 0x401 CALLDATASIZE PUSH1 0x4 PUSH2 0xDAF JUMP JUMPDEST PUSH2 0xD86 JUMP JUMPDEST PUSH1 0x40 MLOAD PUSH1 0xFF SWAP1 SWAP2 AND DUP2 MSTORE PUSH1 0x20 ADD PUSH2 0x15B JUMP JUMPDEST CALLVALUE DUP1 ISZERO PUSH2 0x423 JUMPI PUSH0 DUP1 REVERT JUMPDEST POP PUSH2 0x183 PUSH2 0x432 CALLDATASIZE PUSH1 0x4 PUSH2 0xDC6 JUMP JUMPDEST PUSH1 0x7 PUSH1 0x20 MSTORE PUSH0 SWAP1 DUP2 MSTORE PUSH1 0x40 SWAP1 KECCAK256 SLOAD DUP2 JUMP JUMPDEST PUSH1 0x1 PUSH1 0x1 PUSH1 0xA0 SHL SUB DUP2 AND PUSH0 SWAP1 DUP2 MSTORE PUSH1 0x1 PUSH1 0x20 MSTORE PUSH1 0x40 DUP2 KECCAK256 SLOAD PUSH1 0x1 PUSH1 0xA0 SHL SWAP1 DIV PUSH1 0xFF AND PUSH2 0x4AC JUMPI PUSH1 0x40 MLOAD PUSH3 0x461BCD PUSH1 0xE5 SHL DUP2 MSTORE PUSH1 0x20 PUSH1 0x4 DUP3 ADD MSTORE PUSH1 0x13 PUSH1 0x24 DUP3 ADD MSTORE PUSH19 0x155CD95C881B9BDD081C9959DA5CDD195C9959 PUSH1 0x6A SHL PUSH1 0x44 DUP3 ADD MSTORE PUSH1 0x64 ADD JUMPDEST PUSH1 0x40 MLOAD DUP1 SWAP2 SUB SWAP1 REVERT JUMPDEST PUSH0 DUP3 JUMPDEST PUSH1 0x1 PUSH1 0x1 PUSH1 0xA0 SHL SUB DUP2 DUP2 AND PUSH0 SWAP1 DUP2 MSTORE PUSH1 0x1 PUSH1 0x20 MSTORE PUSH1 0x40 SWAP1 KECCAK256 SLOAD AND ISZERO DUP1 ISZERO SWAP1 PUSH2 0x4F4 JUMPI POP PUSH0 DUP1 SLOAD PUSH1 0x1 PUSH1 0x1 PUSH1 0xA0 SHL SUB DUP4 DUP2 AND DUP4 MSTORE PUSH1 0x1 PUSH1 0x20 MSTORE PUSH1 0x40 SWAP1 SWAP3 KECCAK256 SLOAD DUP3 AND SWAP2 AND EQ ISZERO JUMPDEST ISZERO PUSH2 0x529 JUMPI DUP2 PUSH2 0x503 DUP2 PUSH2 0xE4A JUMP JUMPDEST PUSH1 0x1 PUSH1 0x1 PUSH1 0xA0 SHL SUB SWAP3 DUP4 AND PUSH0 SWAP1 DUP2 MSTORE PUSH1 0x1 PUSH1 0x20 MSTORE PUSH1 0x40 SWAP1 KECCAK256 SLOAD SWAP1 SWAP4 POP SWAP1 SWAP2 AND SWAP1 POP PUSH2 0x4AF JUMP JUMPDEST PUSH0 DUP1 SLOAD PUSH1 0x1 PUSH1 0x1 PUSH1 0xA0 SHL SUB DUP4 DUP2 AND DUP4 MSTORE PUSH1 0x1 PUSH1 0x20 MSTORE PUSH1 0x40 SWAP1 SWAP3 KECCAK256 SLOAD SWAP1 DUP3 AND SWAP2 AND SUB PUSH2 0x55C JUMPI DUP2 PUSH2 0x558 DUP2 PUSH2 0xE4A JUMP JUMPDEST SWAP3 POP POP JUMPDEST POP SWAP3 SWAP2 POP POP JUMP JUMPDEST PUSH1 0x1 PUSH1 0x1 PUSH1 0xA0 SHL SUB DUP2 AND PUSH0 SWAP1 DUP2 MSTORE PUSH1 0x1 PUSH1 0x20 DUP2 SWAP1 MSTORE PUSH1 0x40 DUP3 KECCAK256 ADD SLOAD PUSH1 0x60 SWAP2 DUP2 PUSH8 0xFFFFFFFFFFFFFFFF DUP2 GT ISZERO PUSH2 0x59A JUMPI PUSH2 0x59A PUSH2 0xE62 JUMP JUMPDEST PUSH1 0x40 MLOAD SWAP1 DUP1 DUP3 MSTORE DUP1 PUSH1 0x20 MUL PUSH1 0x20 ADD DUP3 ADD PUSH1 0x40 MSTORE DUP1 ISZERO PUSH2 0x5C3 JUMPI DUP2 PUSH1 0x20 ADD PUSH1 0x20 DUP3 MUL DUP1 CALLDATASIZE DUP4 CALLDATACOPY ADD SWAP1 POP JUMPDEST POP SWAP1 POP PUSH0 JUMPDEST DUP3 DUP2 LT ISZERO PUSH2 0x632 JUMPI PUSH1 0x1 PUSH1 0x1 PUSH1 0xA0 SHL SUB DUP6 AND PUSH0 SWAP1 DUP2 MSTORE PUSH1 0x1 PUSH1 0x20 DUP2 SWAP1 MSTORE PUSH1 0x40 SWAP1 SWAP2 KECCAK256 ADD DUP1 SLOAD DUP3 SWAP1 DUP2 LT PUSH2 0x5FD JUMPI PUSH2 0x5FD PUSH2 0xE76 JUMP JUMPDEST SWAP1 PUSH0 MSTORE PUSH1 0x20 PUSH0 KECCAK256 SWAP1 PUSH1 0x4 MUL ADD PUSH1 0x2 ADD SLOAD DUP3 DUP3 DUP2 MLOAD DUP2 LT PUSH2 0x61F JUMPI PUSH2 0x61F PUSH2 0xE76 JUMP JUMPDEST PUSH1 0x20 SWAP1 DUP2 MUL SWAP2 SWAP1 SWAP2 ADD ADD MSTORE PUSH1 0x1 ADD PUSH2 0x5C8 JUMP JUMPDEST POP SWAP4 SWAP3 POP POP POP JUMP JUMPDEST PUSH0 SLOAD PUSH1 0x1 PUSH1 0x1 PUSH1 0xA0 SHL SUB AND CALLER EQ PUSH2 0x693 JUMPI PUSH1 0x40 MLOAD PUSH3 0x461BCD PUSH1 0xE5 SHL DUP2 MSTORE PUSH1 0x20 PUSH1 0x4 DUP3 ADD MSTORE PUSH1 0x17 PUSH1 0x24 DUP3 ADD MSTORE PUSH32 0x4F6E6C79206F776E65722063616E207769746864726177000000000000000000 PUSH1 0x44 DUP3 ADD MSTORE PUSH1 0x64 ADD PUSH2 0x4A3 JUMP JUMPDEST DUP1 SELFBALANCE LT ISZERO PUSH2 0x6E3 JUMPI PUSH1 0x40 MLOAD PUSH3 0x461BCD PUSH1 0xE5 SHL DUP2 MSTORE PUSH1 0x20 PUSH1 0x4 DUP3 ADD MSTORE PUSH1 0x1D PUSH1 0x24 DUP3 ADD MSTORE PUSH32 0x496E73756666696369656E7420636F6E74726163742062616C616E6365000000 PUSH1 0x44 DUP3 ADD MSTORE PUSH1 0x64 ADD PUSH2 0x4A3 JUMP JUMPDEST PUSH0 DUP1 SLOAD PUSH1 0x40 MLOAD PUSH1 0x1 PUSH1 0x1 PUSH1 0xA0 SHL SUB SWAP1 SWAP2 AND SWAP2 DUP4 ISZERO PUSH2 0x8FC MUL SWAP2 DUP5 SWAP2 DUP2 DUP2 DUP2 DUP6 DUP9 DUP9 CALL SWAP4 POP POP POP POP ISZERO DUP1 ISZERO PUSH2 0x719 JUMPI RETURNDATASIZE PUSH0 DUP1 RETURNDATACOPY RETURNDATASIZE PUSH0 REVERT JUMPDEST POP POP JUMP JUMPDEST CALLER PUSH0 SWAP1 DUP2 MSTORE PUSH1 0x1 PUSH1 0x20 MSTORE PUSH1 0x40 SWAP1 KECCAK256 SLOAD PUSH1 0x1 PUSH1 0xA0 SHL SWAP1 DIV PUSH1 0xFF AND PUSH2 0x778 JUMPI PUSH1 0x40 MLOAD PUSH3 0x461BCD PUSH1 0xE5 SHL DUP2 MSTORE PUSH1 0x20 PUSH1 0x4 DUP3 ADD MSTORE PUSH1 0x13 PUSH1 0x24 DUP3 ADD MSTORE PUSH19 0x155CD95C881B9BDD081C9959DA5CDD195C9959 PUSH1 0x6A SHL PUSH1 0x44 DUP3 ADD MSTORE PUSH1 0x64 ADD PUSH2 0x4A3 JUMP JUMPDEST PUSH0 CALLVALUE GT PUSH2 0x7C7 JUMPI PUSH1 0x40 MLOAD PUSH3 0x461BCD PUSH1 0xE5 SHL DUP2 MSTORE PUSH1 0x20 PUSH1 0x4 DUP3 ADD MSTORE PUSH1 0x1D PUSH1 0x24 DUP3 ADD MSTORE PUSH32 0x416D6F756E74206D7573742062652067726561746572207468616E2030000000 PUSH1 0x44 DUP3 ADD MSTORE PUSH1 0x64 ADD PUSH2 0x4A3 JUMP JUMPDEST PUSH1 0x4 DUP1 SLOAD PUSH0 SWAP2 DUP3 PUSH2 0x7D7 DUP4 PUSH2 0xE4A JUMP JUMPDEST SWAP1 SWAP2 SSTORE POP PUSH1 0x5 DUP1 SLOAD SWAP2 SWAP3 POP PUSH0 SWAP2 SWAP1 DUP3 PUSH2 0x7EF DUP4 PUSH2 0xE4A JUMP JUMPDEST SWAP1 SWAP2 SSTORE POP CALLER PUSH0 DUP2 DUP2 MSTORE PUSH1 0x1 PUSH1 0x20 DUP2 DUP2 MSTORE PUSH1 0x40 DUP1 DUP5 KECCAK256 DUP2 MLOAD PUSH1 0x80 DUP2 ADD DUP4 MSTORE DUP10 DUP2 MSTORE CALLVALUE DUP2 DUP6 ADD SWAP1 DUP2 MSTORE DUP2 DUP5 ADD DUP10 DUP2 MSTORE TIMESTAMP PUSH1 0x60 DUP5 ADD DUP2 DUP2 MSTORE DUP6 DUP10 ADD DUP1 SLOAD DUP1 DUP12 ADD DUP3 SSTORE SWAP1 DUP12 MSTORE DUP9 DUP12 KECCAK256 SWAP6 MLOAD PUSH1 0x4 SWAP1 SWAP2 MUL SWAP1 SWAP6 ADD SWAP5 DUP6 SSTORE SWAP3 MLOAD DUP5 DUP10 ADD SSTORE SWAP1 MLOAD PUSH1 0x2 DUP1 DUP6 ADD SWAP2 SWAP1 SWAP2 SSTORE SWAP2 MLOAD PUSH1 0x3 SWAP1 SWAP4 ADD SWAP3 SWAP1 SWAP3 SSTORE DUP9 DUP8 MSTORE DUP5 MSTORE SWAP2 DUP6 KECCAK256 DUP1 SLOAD PUSH1 0x1 PUSH1 0x1 PUSH1 0xA0 SHL SUB NOT AND DUP8 OR SWAP1 SSTORE SWAP5 DUP5 MSTORE SWAP2 SWAP1 MSTORE SWAP2 SLOAD SWAP3 SWAP4 POP SWAP1 SWAP2 PUSH1 0x1 PUSH1 0x1 PUSH1 0xA0 SHL SUB AND SWAP1 JUMPDEST PUSH1 0x3 DUP2 PUSH1 0xFF AND LT ISZERO PUSH2 0x9B4 JUMPI PUSH1 0x1 PUSH1 0x1 PUSH1 0xA0 SHL SUB DUP3 AND ISZERO PUSH2 0x9B4 JUMPI PUSH0 PUSH1 0x64 PUSH1 0x3 DUP4 PUSH1 0xFF AND PUSH1 0x3 DUP2 LT PUSH2 0x8C1 JUMPI PUSH2 0x8C1 PUSH2 0xE76 JUMP JUMPDEST PUSH1 0x20 DUP2 DIV SWAP2 SWAP1 SWAP2 ADD SLOAD PUSH2 0x8E0 SWAP2 PUSH1 0x1F AND PUSH2 0x100 EXP SWAP1 DIV PUSH1 0xFF AND CALLVALUE PUSH2 0xE8A JUMP JUMPDEST PUSH2 0x8EA SWAP2 SWAP1 PUSH2 0xEA7 JUMP JUMPDEST PUSH1 0x40 MLOAD SWAP1 SWAP2 POP PUSH1 0x1 PUSH1 0x1 PUSH1 0xA0 SHL SUB DUP5 AND SWAP1 DUP3 ISZERO PUSH2 0x8FC MUL SWAP1 DUP4 SWAP1 PUSH0 DUP2 DUP2 DUP2 DUP6 DUP9 DUP9 CALL SWAP4 POP POP POP POP ISZERO DUP1 ISZERO PUSH2 0x920 JUMPI RETURNDATASIZE PUSH0 DUP1 RETURNDATACOPY RETURNDATASIZE PUSH0 REVERT JUMPDEST POP PUSH1 0x1 PUSH1 0x1 PUSH1 0xA0 SHL SUB DUP4 AND PUSH0 SWAP1 DUP2 MSTORE PUSH1 0x8 PUSH1 0x20 MSTORE PUSH1 0x40 DUP2 KECCAK256 DUP1 SLOAD DUP4 SWAP3 SWAP1 PUSH2 0x948 SWAP1 DUP5 SWAP1 PUSH2 0xEC6 JUMP JUMPDEST SWAP1 SWAP2 SSTORE POP POP PUSH1 0xFF DUP3 AND PUSH0 SUB PUSH2 0x984 JUMPI PUSH1 0x1 PUSH1 0x1 PUSH1 0xA0 SHL SUB DUP4 AND PUSH0 SWAP1 DUP2 MSTORE PUSH1 0x7 PUSH1 0x20 MSTORE PUSH1 0x40 DUP2 KECCAK256 DUP1 SLOAD DUP4 SWAP3 SWAP1 PUSH2 0x97E SWAP1 DUP5 SWAP1 PUSH2 0xEC6 JUMP JUMPDEST SWAP1 SWAP2 SSTORE POP POP JUMPDEST POP PUSH1 0x1 PUSH1 0x1 PUSH1 0xA0 SHL SUB SWAP2 DUP3 AND PUSH0 SWAP1 DUP2 MSTORE PUSH1 0x1 PUSH1 0x20 MSTORE PUSH1 0x40 SWAP1 KECCAK256 SLOAD SWAP1 SWAP2 AND SWAP1 DUP1 PUSH2 0x9AC DUP2 PUSH2 0xED9 JUMP JUMPDEST SWAP2 POP POP PUSH2 0x88D JUMP JUMPDEST POP PUSH1 0x40 DUP1 MLOAD CALLVALUE DUP2 MSTORE PUSH1 0x20 DUP2 ADD DUP5 SWAP1 MSTORE DUP5 SWAP2 DUP7 SWAP2 CALLER SWAP2 PUSH32 0x9CFD25589D1EB8AD71E342A86A8524E83522E3936C0803048C08F6D9AD974F40 SWAP2 ADD PUSH1 0x40 MLOAD DUP1 SWAP2 SUB SWAP1 LOG4 POP POP POP POP JUMP JUMPDEST CALLER PUSH0 SWAP1 DUP2 MSTORE PUSH1 0x1 PUSH1 0x20 MSTORE PUSH1 0x40 SWAP1 KECCAK256 SLOAD PUSH1 0x1 PUSH1 0xA0 SHL SWAP1 DIV PUSH1 0xFF AND ISZERO PUSH2 0xA55 JUMPI PUSH1 0x40 MLOAD PUSH3 0x461BCD PUSH1 0xE5 SHL DUP2 MSTORE PUSH1 0x20 PUSH1 0x4 DUP3 ADD MSTORE PUSH1 0x12 PUSH1 0x24 DUP3 ADD MSTORE PUSH18 0x105B1C9958591E481C9959DA5CDD195C9959 PUSH1 0x72 SHL PUSH1 0x44 DUP3 ADD MSTORE PUSH1 0x64 ADD PUSH2 0x4A3 JUMP JUMPDEST CALLER PUSH1 0x1 PUSH1 0x1 PUSH1 0xA0 SHL SUB DUP3 AND SUB PUSH2 0xAA5 JUMPI PUSH1 0x40 MLOAD PUSH3 0x461BCD PUSH1 0xE5 SHL DUP2 MSTORE PUSH1 0x20 PUSH1 0x4 DUP3 ADD MSTORE PUSH1 0x15 PUSH1 0x24 DUP3 ADD MSTORE PUSH21 0x21B0B73737BA103932B332B9103CB7BAB939B2B633 PUSH1 0x59 SHL PUSH1 0x44 DUP3 ADD MSTORE PUSH1 0x64 ADD PUSH2 0x4A3 JUMP JUMPDEST PUSH1 0x1 PUSH1 0x1 PUSH1 0xA0 SHL SUB DUP2 AND PUSH0 SWAP1 DUP2 MSTORE PUSH1 0x1 PUSH1 0x20 MSTORE PUSH1 0x40 SWAP1 KECCAK256 SLOAD PUSH1 0x1 PUSH1 0xA0 SHL SWAP1 DIV PUSH1 0xFF AND PUSH2 0xB13 JUMPI PUSH1 0x40 MLOAD PUSH3 0x461BCD PUSH1 0xE5 SHL DUP2 MSTORE PUSH1 0x20 PUSH1 0x4 DUP3 ADD MSTORE PUSH1 0x17 PUSH1 0x24 DUP3 ADD MSTORE PUSH32 0x5265666572726572206E6F742072656769737465726564000000000000000000 PUSH1 0x44 DUP3 ADD MSTORE PUSH1 0x64 ADD PUSH2 0x4A3 JUMP JUMPDEST CALLER PUSH0 SWAP1 DUP2 MSTORE PUSH1 0x1 PUSH1 0x20 SWAP1 DUP2 MSTORE PUSH1 0x40 DUP1 DUP4 KECCAK256 DUP1 SLOAD PUSH1 0x1 PUSH1 0x1 PUSH1 0xA8 SHL SUB NOT AND PUSH1 0x1 PUSH1 0x1 PUSH1 0xA0 SHL SUB DUP7 AND SWAP1 DUP2 OR PUSH1 0x1 PUSH1 0xA0 SHL OR SWAP1 SWAP2 SSTORE DUP4 MSTORE PUSH1 0x6 SWAP1 SWAP2 MSTORE DUP2 KECCAK256 DUP1 SLOAD SWAP2 PUSH2 0xB5B DUP4 PUSH2 0xE4A JUMP JUMPDEST SWAP1 SWAP2 SSTORE POP POP PUSH1 0x40 MLOAD PUSH1 0x1 PUSH1 0x1 PUSH1 0xA0 SHL SUB DUP3 AND SWAP1 CALLER SWAP1 PUSH32 0xA31EE9D46A828884B81003C8498156EA6AA15B9B54BDD0EF0B533D9EBA57E55 SWAP1 PUSH0 SWAP1 LOG3 POP JUMP JUMPDEST PUSH0 DUP2 DUP2 MSTORE PUSH1 0x2 PUSH1 0x20 MSTORE PUSH1 0x40 DUP2 KECCAK256 SLOAD DUP2 SWAP1 DUP2 SWAP1 DUP2 SWAP1 PUSH1 0x1 PUSH1 0x1 PUSH1 0xA0 SHL SUB AND DUP1 PUSH2 0xBF7 JUMPI PUSH1 0x40 MLOAD PUSH3 0x461BCD PUSH1 0xE5 SHL DUP2 MSTORE PUSH1 0x20 PUSH1 0x4 DUP3 ADD MSTORE PUSH1 0x12 PUSH1 0x24 DUP3 ADD MSTORE PUSH18 0x125B9D985B1A59081C1BDCDA5D1A5BDB9259 PUSH1 0x72 SHL PUSH1 0x44 DUP3 ADD MSTORE PUSH1 0x64 ADD PUSH2 0x4A3 JUMP JUMPDEST PUSH1 0x1 PUSH1 0x1 PUSH1 0xA0 SHL SUB DUP2 AND PUSH0 SWAP1 DUP2 MSTORE PUSH1 0x1 PUSH1 0x20 DUP2 DUP2 MSTORE PUSH1 0x40 DUP1 DUP5 KECCAK256 SWAP1 SWAP3 ADD DUP1 SLOAD DUP4 MLOAD DUP2 DUP5 MUL DUP2 ADD DUP5 ADD SWAP1 SWAP5 MSTORE DUP1 DUP5 MSTORE SWAP1 SWAP2 DUP5 SWAP1 DUP5 ADD JUMPDEST DUP3 DUP3 LT ISZERO PUSH2 0xC83 JUMPI DUP4 DUP3 SWAP1 PUSH0 MSTORE PUSH1 0x20 PUSH0 KECCAK256 SWAP1 PUSH1 0x4 MUL ADD PUSH1 0x40 MLOAD DUP1 PUSH1 0x80 ADD PUSH1 0x40 MSTORE SWAP1 DUP2 PUSH0 DUP3 ADD SLOAD DUP2 MSTORE PUSH1 0x20 ADD PUSH1 0x1 DUP3 ADD SLOAD DUP2 MSTORE PUSH1 0x20 ADD PUSH1 0x2 DUP3 ADD SLOAD DUP2 MSTORE PUSH1 0x20 ADD PUSH1 0x3 DUP3 ADD SLOAD DUP2 MSTORE POP POP DUP2 MSTORE PUSH1 0x20 ADD SWAP1 PUSH1 0x1 ADD SWAP1 PUSH2 0xC2C JUMP JUMPDEST POP POP POP POP SWAP1 POP PUSH0 JUMPDEST DUP2 MLOAD DUP2 LT ISZERO PUSH2 0xD2A JUMPI DUP8 DUP3 DUP3 DUP2 MLOAD DUP2 LT PUSH2 0xCA7 JUMPI PUSH2 0xCA7 PUSH2 0xE76 JUMP JUMPDEST PUSH1 0x20 MUL PUSH1 0x20 ADD ADD MLOAD PUSH1 0x40 ADD MLOAD SUB PUSH2 0xD22 JUMPI DUP3 DUP3 DUP3 DUP2 MLOAD DUP2 LT PUSH2 0xCCB JUMPI PUSH2 0xCCB PUSH2 0xE76 JUMP JUMPDEST PUSH1 0x20 MUL PUSH1 0x20 ADD ADD MLOAD PUSH0 ADD MLOAD DUP4 DUP4 DUP2 MLOAD DUP2 LT PUSH2 0xCE8 JUMPI PUSH2 0xCE8 PUSH2 0xE76 JUMP JUMPDEST PUSH1 0x20 MUL PUSH1 0x20 ADD ADD MLOAD PUSH1 0x20 ADD MLOAD DUP5 DUP5 DUP2 MLOAD DUP2 LT PUSH2 0xD06 JUMPI PUSH2 0xD06 PUSH2 0xE76 JUMP JUMPDEST PUSH1 0x20 MUL PUSH1 0x20 ADD ADD MLOAD PUSH1 0x60 ADD MLOAD SWAP7 POP SWAP7 POP SWAP7 POP SWAP7 POP POP POP POP PUSH2 0xD7F JUMP JUMPDEST PUSH1 0x1 ADD PUSH2 0xC8B JUMP JUMPDEST POP PUSH1 0x40 MLOAD PUSH3 0x461BCD PUSH1 0xE5 SHL DUP2 MSTORE PUSH1 0x20 PUSH1 0x4 DUP3 ADD MSTORE PUSH1 0x24 DUP1 DUP3 ADD MSTORE PUSH32 0x5374616B65206E6F7420666F756E6420666F7220676976656E20706F73697469 PUSH1 0x44 DUP3 ADD MSTORE PUSH4 0x1BDB9259 PUSH1 0xE2 SHL PUSH1 0x64 DUP3 ADD MSTORE PUSH1 0x84 ADD PUSH2 0x4A3 JUMP JUMPDEST SWAP2 SWAP4 POP SWAP2 SWAP4 JUMP JUMPDEST PUSH1 0x3 DUP2 PUSH1 0x3 DUP2 LT PUSH2 0xD95 JUMPI PUSH0 DUP1 REVERT JUMPDEST PUSH1 0x20 SWAP2 DUP3 DUP3 DIV ADD SWAP2 SWAP1 MOD SWAP2 POP SLOAD SWAP1 PUSH2 0x100 EXP SWAP1 DIV PUSH1 0xFF AND DUP2 JUMP JUMPDEST PUSH0 PUSH1 0x20 DUP3 DUP5 SUB SLT ISZERO PUSH2 0xDBF JUMPI PUSH0 DUP1 REVERT JUMPDEST POP CALLDATALOAD SWAP2 SWAP1 POP JUMP JUMPDEST PUSH0 PUSH1 0x20 DUP3 DUP5 SUB SLT ISZERO PUSH2 0xDD6 JUMPI PUSH0 DUP1 REVERT JUMPDEST DUP2 CALLDATALOAD PUSH1 0x1 PUSH1 0x1 PUSH1 0xA0 SHL SUB DUP2 AND DUP2 EQ PUSH2 0xDEC JUMPI PUSH0 DUP1 REVERT JUMPDEST SWAP4 SWAP3 POP POP POP JUMP JUMPDEST PUSH1 0x20 DUP1 DUP3 MSTORE DUP3 MLOAD DUP3 DUP3 ADD DUP2 SWAP1 MSTORE PUSH0 SWAP2 SWAP1 DUP5 DUP3 ADD SWAP1 PUSH1 0x40 DUP6 ADD SWAP1 DUP5 JUMPDEST DUP2 DUP2 LT ISZERO PUSH2 0xE2A JUMPI DUP4 MLOAD DUP4 MSTORE SWAP3 DUP5 ADD SWAP3 SWAP2 DUP5 ADD SWAP2 PUSH1 0x1 ADD PUSH2 0xE0E JUMP JUMPDEST POP SWAP1 SWAP7 SWAP6 POP POP POP POP POP POP JUMP JUMPDEST PUSH4 0x4E487B71 PUSH1 0xE0 SHL PUSH0 MSTORE PUSH1 0x11 PUSH1 0x4 MSTORE PUSH1 0x24 PUSH0 REVERT JUMPDEST PUSH0 PUSH1 0x1 DUP3 ADD PUSH2 0xE5B JUMPI PUSH2 0xE5B PUSH2 0xE36 JUMP JUMPDEST POP PUSH1 0x1 ADD SWAP1 JUMP JUMPDEST PUSH4 0x4E487B71 PUSH1 0xE0 SHL PUSH0 MSTORE PUSH1 0x41 PUSH1 0x4 MSTORE PUSH1 0x24 PUSH0 REVERT JUMPDEST PUSH4 0x4E487B71 PUSH1 0xE0 SHL PUSH0 MSTORE PUSH1 0x32 PUSH1 0x4 MSTORE PUSH1 0x24 PUSH0 REVERT JUMPDEST DUP1 DUP3 MUL DUP2 ISZERO DUP3 DUP3 DIV DUP5 EQ OR PUSH2 0xEA1 JUMPI PUSH2 0xEA1 PUSH2 0xE36 JUMP JUMPDEST SWAP3 SWAP2 POP POP JUMP JUMPDEST PUSH0 DUP3 PUSH2 0xEC1 JUMPI PUSH4 0x4E487B71 PUSH1 0xE0 SHL PUSH0 MSTORE PUSH1 0x12 PUSH1 0x4 MSTORE PUSH1 0x24 PUSH0 REVERT JUMPDEST POP DIV SWAP1 JUMP JUMPDEST DUP1 DUP3 ADD DUP1 DUP3 GT ISZERO PUSH2 0xEA1 JUMPI PUSH2 0xEA1 PUSH2 0xE36 JUMP JUMPDEST PUSH0 PUSH1 0xFF DUP3 AND PUSH1 0xFF DUP2 SUB PUSH2 0xEEE JUMPI PUSH2 0xEEE PUSH2 0xE36 JUMP JUMPDEST PUSH1 0x1 ADD SWAP3 SWAP2 POP POP JUMP INVALID LOG2 PUSH5 0x6970667358 0x22 SLT KECCAK256 0xC0 LOG2 BLOBBASEFEE RETURNDATACOPY DUP13 0xE1 COINBASE PC 0x4C 0xBF PUSH15 0xB9A47156D1F3DE2762A0C1729E1659 INVALID ISZERO 0xD9 XOR OR CALLER PUSH5 0x736F6C6343 STOP ADDMOD NOT STOP CALLER "
				},
				"gasEstimates": {
					"creation": {
						"codeDepositCost": "777000",
						"executionCost": "infinite",
						"totalCost": "infinite"
					},
					"external": {
						"directReferralCount(address)": "2525",
						"directReferralIncome(address)": "2591",
						"getDirectReferralCount(address)": "2566",
						"getDirectReferralIncome(address)": "2521",
						"getPositionIds(address)": "infinite",
						"getStakeByPositionId(uint256)": "infinite",
						"getTotalIncome(address)": "2565",
						"getUserLevel(address)": "infinite",
						"levelRewards(uint256)": "4171",
						"nextPositionId()": "2317",
						"nextStakeId()": "2361",
						"owner()": "2369",
						"positionIdToUser(uint256)": "2487",
						"register(address)": "55027",
						"stake()": "infinite",
						"totalIncome(address)": "2592",
						"users(address)": "2662",
						"withdraw(uint256)": "infinite"
					}
				},
				"methodIdentifiers": {
					"directReferralCount(address)": "b77b7dc9",
					"directReferralIncome(address)": "f6e88873",
					"getDirectReferralCount(address)": "98278efb",
					"getDirectReferralIncome(address)": "aa7ed462",
					"getPositionIds(address)": "28fe7031",
					"getStakeByPositionId(uint256)": "797c7f5f",
					"getTotalIncome(address)": "c2d3c677",
					"getUserLevel(address)": "21923bde",
					"levelRewards(uint256)": "e45a57d0",
					"nextPositionId()": "899346c7",
					"nextStakeId()": "75506c96",
					"owner()": "8da5cb5b",
					"positionIdToUser(uint256)": "1e43eb27",
					"register(address)": "4420e486",
					"stake()": "3a4b66f1",
					"totalIncome(address)": "862ba05f",
					"users(address)": "a87430ba",
					"withdraw(uint256)": "2e1a7d4d"
				}
			},
			"storageLayout": {
				"storage": [
					{
						"astId": 3,
						"contract": "contracts/mlm.sol:MLMStaking",
						"label": "owner",
						"offset": 0,
						"slot": "0",
						"type": "t_address"
					},
					{
						"astId": 26,
						"contract": "contracts/mlm.sol:MLMStaking",
						"label": "users",
						"offset": 0,
						"slot": "1",
						"type": "t_mapping(t_address,t_struct(User)21_storage)"
					},
					{
						"astId": 30,
						"contract": "contracts/mlm.sol:MLMStaking",
						"label": "positionIdToUser",
						"offset": 0,
						"slot": "2",
						"type": "t_mapping(t_uint256,t_address)"
					},
					{
						"astId": 38,
						"contract": "contracts/mlm.sol:MLMStaking",
						"label": "levelRewards",
						"offset": 0,
						"slot": "3",
						"type": "t_array(t_uint8)3_storage"
					},
					{
						"astId": 40,
						"contract": "contracts/mlm.sol:MLMStaking",
						"label": "nextStakeId",
						"offset": 0,
						"slot": "4",
						"type": "t_uint256"
					},
					{
						"astId": 42,
						"contract": "contracts/mlm.sol:MLMStaking",
						"label": "nextPositionId",
						"offset": 0,
						"slot": "5",
						"type": "t_uint256"
					},
					{
						"astId": 46,
						"contract": "contracts/mlm.sol:MLMStaking",
						"label": "directReferralCount",
						"offset": 0,
						"slot": "6",
						"type": "t_mapping(t_address,t_uint256)"
					},
					{
						"astId": 50,
						"contract": "contracts/mlm.sol:MLMStaking",
						"label": "directReferralIncome",
						"offset": 0,
						"slot": "7",
						"type": "t_mapping(t_address,t_uint256)"
					},
					{
						"astId": 54,
						"contract": "contracts/mlm.sol:MLMStaking",
						"label": "totalIncome",
						"offset": 0,
						"slot": "8",
						"type": "t_mapping(t_address,t_uint256)"
					}
				],
				"types": {
					"t_address": {
						"encoding": "inplace",
						"label": "address",
						"numberOfBytes": "20"
					},
					"t_array(t_struct(Stake)12_storage)dyn_storage": {
						"base": "t_struct(Stake)12_storage",
						"encoding": "dynamic_array",
						"label": "struct MLMStaking.Stake[]",
						"numberOfBytes": "32"
					},
					"t_array(t_uint8)3_storage": {
						"base": "t_uint8",
						"encoding": "inplace",
						"label": "uint8[3]",
						"numberOfBytes": "32"
					},
					"t_bool": {
						"encoding": "inplace",
						"label": "bool",
						"numberOfBytes": "1"
					},
					"t_mapping(t_address,t_struct(User)21_storage)": {
						"encoding": "mapping",
						"key": "t_address",
						"label": "mapping(address => struct MLMStaking.User)",
						"numberOfBytes": "32",
						"value": "t_struct(User)21_storage"
					},
					"t_mapping(t_address,t_uint256)": {
						"encoding": "mapping",
						"key": "t_address",
						"label": "mapping(address => uint256)",
						"numberOfBytes": "32",
						"value": "t_uint256"
					},
					"t_mapping(t_uint256,t_address)": {
						"encoding": "mapping",
						"key": "t_uint256",
						"label": "mapping(uint256 => address)",
						"numberOfBytes": "32",
						"value": "t_address"
					},
					"t_struct(Stake)12_storage": {
						"encoding": "inplace",
						"label": "struct MLMStaking.Stake",
						"members": [
							{
								"astId": 5,
								"contract": "contracts/mlm.sol:MLMStaking",
								"label": "stakeId",
								"offset": 0,
								"slot": "0",
								"type": "t_uint256"
							},
							{
								"astId": 7,
								"contract": "contracts/mlm.sol:MLMStaking",
								"label": "amount",
								"offset": 0,
								"slot": "1",
								"type": "t_uint256"
							},
							{
								"astId": 9,
								"contract": "contracts/mlm.sol:MLMStaking",
								"label": "positionId",
								"offset": 0,
								"slot": "2",
								"type": "t_uint256"
							},
							{
								"astId": 11,
								"contract": "contracts/mlm.sol:MLMStaking",
								"label": "timestamp",
								"offset": 0,
								"slot": "3",
								"type": "t_uint256"
							}
						],
						"numberOfBytes": "128"
					},
					"t_struct(User)21_storage": {
						"encoding": "inplace",
						"label": "struct MLMStaking.User",
						"members": [
							{
								"astId": 14,
								"contract": "contracts/mlm.sol:MLMStaking",
								"label": "referrer",
								"offset": 0,
								"slot": "0",
								"type": "t_address"
							},
							{
								"astId": 16,
								"contract": "contracts/mlm.sol:MLMStaking",
								"label": "registered",
								"offset": 20,
								"slot": "0",
								"type": "t_bool"
							},
							{
								"astId": 20,
								"contract": "contracts/mlm.sol:MLMStaking",
								"label": "stakes",
								"offset": 0,
								"slot": "1",
								"type": "t_array(t_struct(Stake)12_storage)dyn_storage"
							}
						],
						"numberOfBytes": "64"
					},
					"t_uint256": {
						"encoding": "inplace",
						"label": "uint256",
						"numberOfBytes": "32"
					},
					"t_uint8": {
						"encoding": "inplace",
						"label": "uint8",
						"numberOfBytes": "1"
					}
				}
			},
			"userdoc": {
				"kind": "user",
				"methods": {},
				"version": 1
			}
		}
	}
}