{
	"contracts/kk.sol": {
		"MLMStakingUSDT": {
			"abi": [
				{
					"inputs": [
						{
							"internalType": "address",
							"name": "_usdtToken",
							"type": "address"
						}
					],
					"stateMutability": "nonpayable",
					"type": "constructor"
				},
				{
					"inputs": [
						{
							"internalType": "uint256",
							"name": "",
							"type": "uint256"
						}
					],
					"name": "allUsers",
					"outputs": [
						{
							"internalType": "address",
							"name": "",
							"type": "address"
						}
					],
					"stateMutability": "view",
					"type": "function"
				},
				{
					"inputs": [
						{
							"internalType": "address",
							"name": "",
							"type": "address"
						},
						{
							"internalType": "uint256",
							"name": "",
							"type": "uint256"
						}
					],
					"name": "directReferrals",
					"outputs": [
						{
							"internalType": "address",
							"name": "referralAddress",
							"type": "address"
						},
						{
							"internalType": "uint256",
							"name": "incomeEarned",
							"type": "uint256"
						},
						{
							"internalType": "uint256",
							"name": "timestamp",
							"type": "uint256"
						}
					],
					"stateMutability": "view",
					"type": "function"
				},
				{
					"inputs": [
						{
							"internalType": "address",
							"name": "user",
							"type": "address"
						}
					],
					"name": "getDirectReferralCount",
					"outputs": [
						{
							"internalType": "uint256",
							"name": "",
							"type": "uint256"
						}
					],
					"stateMutability": "view",
					"type": "function"
				},
				{
					"inputs": [
						{
							"internalType": "address",
							"name": "_user",
							"type": "address"
						}
					],
					"name": "getLevelIncomeDistribution",
					"outputs": [
						{
							"components": [
								{
									"internalType": "address",
									"name": "receiverAddress",
									"type": "address"
								},
								{
									"internalType": "uint256",
									"name": "stakeId",
									"type": "uint256"
								},
								{
									"internalType": "uint256",
									"name": "stakeAmount",
									"type": "uint256"
								},
								{
									"internalType": "uint256",
									"name": "incomeReceived",
									"type": "uint256"
								},
								{
									"internalType": "address",
									"name": "uplineAddress",
									"type": "address"
								},
								{
									"internalType": "uint256",
									"name": "timestamp",
									"type": "uint256"
								},
								{
									"internalType": "uint8",
									"name": "level",
									"type": "uint8"
								}
							],
							"internalType": "struct MLMStakingUSDT.LevelIncomeData[]",
							"name": "",
							"type": "tuple[]"
						}
					],
					"stateMutability": "view",
					"type": "function"
				},
				{
					"inputs": [
						{
							"internalType": "address",
							"name": "_user",
							"type": "address"
						}
					],
					"name": "getPositionIds",
					"outputs": [
						{
							"internalType": "uint256[]",
							"name": "",
							"type": "uint256[]"
						}
					],
					"stateMutability": "view",
					"type": "function"
				},
				{
					"inputs": [
						{
							"internalType": "address",
							"name": "user",
							"type": "address"
						}
					],
					"name": "getReferralIncomeDetails",
					"outputs": [
						{
							"internalType": "address[]",
							"name": "referralAddresses",
							"type": "address[]"
						},
						{
							"internalType": "uint256[]",
							"name": "incomes",
							"type": "uint256[]"
						},
						{
							"internalType": "uint256[]",
							"name": "timestamps",
							"type": "uint256[]"
						}
					],
					"stateMutability": "view",
					"type": "function"
				},
				{
					"inputs": [
						{
							"internalType": "uint256",
							"name": "_positionId",
							"type": "uint256"
						}
					],
					"name": "getStakeByPositionId",
					"outputs": [
						{
							"internalType": "address",
							"name": "user",
							"type": "address"
						},
						{
							"internalType": "uint256",
							"name": "stakeId",
							"type": "uint256"
						},
						{
							"internalType": "uint256",
							"name": "amount",
							"type": "uint256"
						},
						{
							"internalType": "uint256",
							"name": "timestamp",
							"type": "uint256"
						}
					],
					"stateMutability": "view",
					"type": "function"
				},
				{
					"inputs": [
						{
							"internalType": "address",
							"name": "user",
							"type": "address"
						}
					],
					"name": "getTotalIncome",
					"outputs": [
						{
							"internalType": "uint256",
							"name": "",
							"type": "uint256"
						}
					],
					"stateMutability": "view",
					"type": "function"
				},
				{
					"inputs": [
						{
							"internalType": "address",
							"name": "user",
							"type": "address"
						}
					],
					"name": "getTotalLevelIncome",
					"outputs": [
						{
							"internalType": "uint256",
							"name": "",
							"type": "uint256"
						}
					],
					"stateMutability": "view",
					"type": "function"
				},
				{
					"inputs": [],
					"name": "getTotalUsers",
					"outputs": [
						{
							"internalType": "uint256",
							"name": "",
							"type": "uint256"
						}
					],
					"stateMutability": "view",
					"type": "function"
				},
				{
					"inputs": [
						{
							"internalType": "address",
							"name": "user",
							"type": "address"
						}
					],
					"name": "getUserLevel",
					"outputs": [
						{
							"internalType": "uint8",
							"name": "",
							"type": "uint8"
						}
					],
					"stateMutability": "view",
					"type": "function"
				},
				{
					"inputs": [
						{
							"internalType": "uint256",
							"name": "",
							"type": "uint256"
						}
					],
					"name": "levelRewards",
					"outputs": [
						{
							"internalType": "uint8",
							"name": "",
							"type": "uint8"
						}
					],
					"stateMutability": "view",
					"type": "function"
				},
				{
					"inputs": [],
					"name": "owner",
					"outputs": [
						{
							"internalType": "address",
							"name": "",
							"type": "address"
						}
					],
					"stateMutability": "view",
					"type": "function"
				},
				{
					"inputs": [
						{
							"internalType": "uint256",
							"name": "",
							"type": "uint256"
						}
					],
					"name": "positionIdToUser",
					"outputs": [
						{
							"internalType": "address",
							"name": "",
							"type": "address"
						}
					],
					"stateMutability": "view",
					"type": "function"
				},
				{
					"inputs": [
						{
							"internalType": "address",
							"name": "referrer",
							"type": "address"
						}
					],
					"name": "register",
					"outputs": [],
					"stateMutability": "nonpayable",
					"type": "function"
				},
				{
					"inputs": [
						{
							"internalType": "uint256",
							"name": "amount",
							"type": "uint256"
						}
					],
					"name": "stake",
					"outputs": [],
					"stateMutability": "nonpayable",
					"type": "function"
				},
				{
					"inputs": [],
					"name": "stakeCounter",
					"outputs": [
						{
							"internalType": "uint256",
							"name": "",
							"type": "uint256"
						}
					],
					"stateMutability": "view",
					"type": "function"
				},
				{
					"inputs": [],
					"name": "usdtToken",
					"outputs": [
						{
							"internalType": "contract IERC20",
							"name": "",
							"type": "address"
						}
					],
					"stateMutability": "view",
					"type": "function"
				},
				{
					"inputs": [
						{
							"internalType": "address",
							"name": "",
							"type": "address"
						}
					],
					"name": "users",
					"outputs": [
						{
							"internalType": "address",
							"name": "referrer",
							"type": "address"
						},
						{
							"internalType": "uint256",
							"name": "totalIncome",
							"type": "uint256"
						},
						{
							"internalType": "uint256",
							"name": "levelIncome",
							"type": "uint256"
						}
					],
					"stateMutability": "view",
					"type": "function"
				},
				{
					"inputs": [
						{
							"internalType": "uint256",
							"name": "amount",
							"type": "uint256"
						}
					],
					"name": "withdrawUSDT",
					"outputs": [],
					"stateMutability": "nonpayable",
					"type": "function"
				}
			],
			"devdoc": {
				"kind": "dev",
				"methods": {},
				"version": 1
			},
			"evm": {
				"assembly": "    /* \"contracts/kk.sol\":1458:1497  uint8[] public levelRewards = [5, 3, 2] */\n  0xe0\n    /* \"contracts/kk.sol\":364:7989  contract MLMStakingUSDT {... */\n  0x40\n    /* \"contracts/kk.sol\":1458:1497  uint8[] public levelRewards = [5, 3, 2] */\n  mstore\n    /* \"contracts/kk.sol\":1489:1490  5 */\n  0x05\n    /* \"contracts/kk.sol\":364:7989  contract MLMStakingUSDT {... */\n  0x80\n    /* \"contracts/kk.sol\":1458:1497  uint8[] public levelRewards = [5, 3, 2] */\n  swap1\n  dup2\n  mstore\n    /* \"contracts/kk.sol\":1492:1493  3 */\n  0x03\n    /* \"contracts/kk.sol\":1458:1497  uint8[] public levelRewards = [5, 3, 2] */\n  0xa0\n  dup2\n  swap1\n  mstore\n    /* \"contracts/kk.sol\":1495:1496  2 */\n  0x02\n    /* \"contracts/kk.sol\":1458:1497  uint8[] public levelRewards = [5, 3, 2] */\n  0xc0\n  mstore\n  tag_1\n  swap2\n  0x07\n  swap2\n  tag_2\n  jump\t// in\ntag_1:\n  pop\n    /* \"contracts/kk.sol\":488:598  constructor(address _usdtToken) {... */\n  callvalue\n  dup1\n  iszero\n  tag_3\n  jumpi\n  0x00\n  dup1\n  revert\ntag_3:\n  pop\n  mload(0x40)\n  sub(codesize, bytecodeSize)\n  dup1\n  bytecodeSize\n  dup4\n  codecopy\n  dup2\n  add\n  0x40\n  dup2\n  swap1\n  mstore\n  tag_4\n  swap2\n  tag_5\n  jump\t// in\ntag_4:\n    /* \"contracts/kk.sol\":531:536  owner */\n  0x00\n    /* \"contracts/kk.sol\":531:549  owner = msg.sender */\n  dup1\n  sload\n    /* \"contracts/kk.sol\":539:549  msg.sender */\n  caller\n  not(sub(shl(0xa0, 0x01), 0x01))\n    /* \"contracts/kk.sol\":531:549  owner = msg.sender */\n  swap2\n  dup3\n  and\n  or\n  swap1\n  swap2\n  sstore\n    /* \"contracts/kk.sol\":560:569  usdtToken */\n  0x02\n    /* \"contracts/kk.sol\":560:590  usdtToken = IERC20(_usdtToken) */\n  dup1\n  sload\n  swap1\n  swap2\n  and\n  sub(shl(0xa0, 0x01), 0x01)\n  swap3\n  swap1\n  swap3\n  and\n  swap2\n  swap1\n  swap2\n  or\n  swap1\n  sstore\n    /* \"contracts/kk.sol\":364:7989  contract MLMStakingUSDT {... */\n  jump(tag_17)\ntag_2:\n  dup3\n  dup1\n  sload\n  dup3\n  dup3\n  sstore\n  swap1\n  0x00\n  mstore\n  keccak256(0x00, 0x20)\n  swap1\n  0x1f\n  add\n  0x20\n  swap1\n  div\n  dup2\n  add\n  swap3\n  dup3\n  iszero\n  tag_9\n  jumpi\n  swap2\n  0x20\n  mul\n  dup3\n  add\n  0x00\ntag_10:\n  dup4\n  dup3\n  gt\n  iszero\n  tag_11\n  jumpi\n  dup4\n  mload\n  dup4\n  dup3\n  0x0100\n  exp\n  dup2\n  sload\n  dup2\n  0xff\n  mul\n  not\n  and\n  swap1\n  dup4\n  0xff\n  and\n  mul\n  or\n  swap1\n  sstore\n  pop\n  swap3\n  0x20\n  add\n  swap3\n  0x01\n  add\n  0x20\n  dup2\n  0x00\n  add\n  div\n  swap3\n  dup4\n  add\n  swap3\n  0x01\n  sub\n  mul\n  jump(tag_10)\ntag_11:\n  dup1\n  iszero\n  tag_12\n  jumpi\n  dup3\n  dup2\n  0x0100\n  exp\n  dup2\n  sload\n  swap1\n  0xff\n  mul\n  not\n  and\n  swap1\n  sstore\n  0x01\n  add\n  0x20\n  dup2\n  0x00\n  add\n  div\n  swap3\n  dup4\n  add\n  swap3\n  0x01\n  sub\n  mul\n  jump(tag_11)\ntag_12:\n  pop\ntag_9:\n  pop\n  tag_13\n  swap3\n  swap2\n  pop\n  tag_14\n  jump\t// in\ntag_13:\n  pop\n  swap1\n  jump\t// out\ntag_14:\ntag_15:\n  dup1\n  dup3\n  gt\n  iszero\n  tag_13\n  jumpi\n  0x00\n  dup2\n  sstore\n  0x01\n  add\n  jump(tag_15)\n    /* \"#utility.yul\":14:304   */\ntag_5:\n    /* \"#utility.yul\":84:90   */\n  0x00\n    /* \"#utility.yul\":137:139   */\n  0x20\n    /* \"#utility.yul\":125:134   */\n  dup3\n    /* \"#utility.yul\":116:123   */\n  dup5\n    /* \"#utility.yul\":112:135   */\n  sub\n    /* \"#utility.yul\":108:140   */\n  slt\n    /* \"#utility.yul\":105:157   */\n  iszero\n  tag_19\n  jumpi\n    /* \"#utility.yul\":153:154   */\n  0x00\n    /* \"#utility.yul\":150:151   */\n  dup1\n    /* \"#utility.yul\":143:155   */\n  revert\n    /* \"#utility.yul\":105:157   */\ntag_19:\n    /* \"#utility.yul\":179:195   */\n  dup2\n  mload\n  sub(shl(0xa0, 0x01), 0x01)\n    /* \"#utility.yul\":224:255   */\n  dup2\n  and\n    /* \"#utility.yul\":214:256   */\n  dup2\n  eq\n    /* \"#utility.yul\":204:274   */\n  tag_20\n  jumpi\n    /* \"#utility.yul\":270:271   */\n  0x00\n    /* \"#utility.yul\":267:268   */\n  dup1\n    /* \"#utility.yul\":260:272   */\n  revert\n    /* \"#utility.yul\":204:274   */\ntag_20:\n    /* \"#utility.yul\":293:298   */\n  swap4\n    /* \"#utility.yul\":14:304   */\n  swap3\n  pop\n  pop\n  pop\n  jump\t// out\ntag_17:\n    /* \"contracts/kk.sol\":364:7989  contract MLMStakingUSDT {... */\n  dataSize(sub_0)\n  dup1\n  dataOffset(sub_0)\n  0x00\n  codecopy\n  0x00\n  return\nstop\n\nsub_0: assembly {\n        /* \"contracts/kk.sol\":364:7989  contract MLMStakingUSDT {... */\n      mstore(0x40, 0x80)\n      callvalue\n      dup1\n      iszero\n      tag_1\n      jumpi\n      0x00\n      dup1\n      revert\n    tag_1:\n      pop\n      jumpi(tag_2, lt(calldatasize, 0x04))\n      shr(0xe0, calldataload(0x00))\n      dup1\n      0x9d747bad\n      gt\n      tag_23\n      jumpi\n      dup1\n      0xc2d3c677\n      gt\n      tag_24\n      jumpi\n      dup1\n      0xc2d3c677\n      eq\n      tag_18\n      jumpi\n      dup1\n      0xc5b89c0a\n      eq\n      tag_19\n      jumpi\n      dup1\n      0xe45a57d0\n      eq\n      tag_20\n      jumpi\n      dup1\n      0xef71ae56\n      eq\n      tag_21\n      jumpi\n      dup1\n      0xf7b17d10\n      eq\n      tag_22\n      jumpi\n      0x00\n      dup1\n      revert\n    tag_24:\n      dup1\n      0x9d747bad\n      eq\n      tag_13\n      jumpi\n      dup1\n      0xa2bdedf4\n      eq\n      tag_14\n      jumpi\n      dup1\n      0xa694fc3a\n      eq\n      tag_15\n      jumpi\n      dup1\n      0xa87430ba\n      eq\n      tag_16\n      jumpi\n      dup1\n      0xa98ad46c\n      eq\n      tag_17\n      jumpi\n      0x00\n      dup1\n      revert\n    tag_23:\n      dup1\n      0x4420e486\n      gt\n      tag_25\n      jumpi\n      dup1\n      0x4420e486\n      eq\n      tag_8\n      jumpi\n      dup1\n      0x797c7f5f\n      eq\n      tag_9\n      jumpi\n      dup1\n      0x8da5cb5b\n      eq\n      tag_10\n      jumpi\n      dup1\n      0x98278efb\n      eq\n      tag_11\n      jumpi\n      dup1\n      0x9be572f6\n      eq\n      tag_12\n      jumpi\n      0x00\n      dup1\n      revert\n    tag_25:\n      dup1\n      0x05ad3935\n      eq\n      tag_3\n      jumpi\n      dup1\n      0x1e43eb27\n      eq\n      tag_4\n      jumpi\n      dup1\n      0x21923bde\n      eq\n      tag_5\n      jumpi\n      dup1\n      0x28fe7031\n      eq\n      tag_6\n      jumpi\n      dup1\n      0x3ea521ef\n      eq\n      tag_7\n      jumpi\n    tag_2:\n      0x00\n      dup1\n      revert\n        /* \"contracts/kk.sol\":1300:1357  mapping(address => ReferralInfo[]) public directReferrals */\n    tag_3:\n      tag_26\n      tag_27\n      calldatasize\n      0x04\n      tag_28\n      jump\t// in\n    tag_27:\n      tag_29\n      jump\t// in\n    tag_26:\n      0x40\n      dup1\n      mload\n      sub(shl(0xa0, 0x01), 0x01)\n        /* \"#utility.yul\":671:703   */\n      swap1\n      swap5\n      and\n        /* \"#utility.yul\":653:704   */\n      dup5\n      mstore\n        /* \"#utility.yul\":735:737   */\n      0x20\n        /* \"#utility.yul\":720:738   */\n      dup5\n      add\n        /* \"#utility.yul\":713:747   */\n      swap3\n      swap1\n      swap3\n      mstore\n        /* \"#utility.yul\":763:781   */\n      swap1\n      dup3\n      add\n        /* \"#utility.yul\":756:790   */\n      mstore\n        /* \"#utility.yul\":641:643   */\n      0x60\n        /* \"#utility.yul\":626:644   */\n      add\n        /* \"contracts/kk.sol\":1300:1357  mapping(address => ReferralInfo[]) public directReferrals */\n    tag_30:\n      mload(0x40)\n      dup1\n      swap2\n      sub\n      swap1\n      return\n        /* \"contracts/kk.sol\":1364:1415  mapping(uint256 => address) public positionIdToUser */\n    tag_4:\n      tag_32\n      tag_33\n      calldatasize\n      0x04\n      tag_34\n      jump\t// in\n    tag_33:\n      mstore(0x20, 0x05)\n      0x00\n      swap1\n      dup2\n      mstore\n      0x40\n      swap1\n      keccak256\n      sload\n      sub(shl(0xa0, 0x01), 0x01)\n      and\n      dup2\n      jump\n    tag_32:\n      mload(0x40)\n      sub(shl(0xa0, 0x01), 0x01)\n        /* \"#utility.yul\":1150:1182   */\n      swap1\n      swap2\n      and\n        /* \"#utility.yul\":1132:1183   */\n      dup2\n      mstore\n        /* \"#utility.yul\":1120:1122   */\n      0x20\n        /* \"#utility.yul\":1105:1123   */\n      add\n        /* \"contracts/kk.sol\":1364:1415  mapping(uint256 => address) public positionIdToUser */\n      tag_30\n        /* \"#utility.yul\":986:1189   */\n      jump\n        /* \"contracts/kk.sol\":5501:5765  function getUserLevel(address user) external view returns (uint8) {... */\n    tag_5:\n      tag_38\n      tag_39\n      calldatasize\n      0x04\n      tag_40\n      jump\t// in\n    tag_39:\n      tag_41\n      jump\t// in\n    tag_38:\n      mload(0x40)\n        /* \"#utility.yul\":1557:1561   */\n      0xff\n        /* \"#utility.yul\":1545:1562   */\n      swap1\n      swap2\n      and\n        /* \"#utility.yul\":1527:1563   */\n      dup2\n      mstore\n        /* \"#utility.yul\":1515:1517   */\n      0x20\n        /* \"#utility.yul\":1500:1518   */\n      add\n        /* \"contracts/kk.sol\":5501:5765  function getUserLevel(address user) external view returns (uint8) {... */\n      tag_30\n        /* \"#utility.yul\":1385:1569   */\n      jump\n        /* \"contracts/kk.sol\":4023:4358  function getPositionIds(address _user) external view returns (uint256[] memory) {... */\n    tag_6:\n      tag_44\n      tag_45\n      calldatasize\n      0x04\n      tag_40\n      jump\t// in\n    tag_45:\n      tag_46\n      jump\t// in\n    tag_44:\n      mload(0x40)\n      tag_30\n      swap2\n      swap1\n      tag_48\n      jump\t// in\n        /* \"contracts/kk.sol\":7715:7880  function withdrawUSDT(uint256 amount) external {... */\n    tag_7:\n      tag_49\n      tag_50\n      calldatasize\n      0x04\n      tag_34\n      jump\t// in\n    tag_50:\n      tag_51\n      jump\t// in\n    tag_49:\n      stop\n        /* \"contracts/kk.sol\":1544:2015  function register(address referrer) external {... */\n    tag_8:\n      tag_49\n      tag_53\n      calldatasize\n      0x04\n      tag_40\n      jump\t// in\n    tag_53:\n      tag_54\n      jump\t// in\n        /* \"contracts/kk.sol\":3373:4015  function getStakeByPositionId(uint256 _positionId) external view returns (... */\n    tag_9:\n      tag_55\n      tag_56\n      calldatasize\n      0x04\n      tag_34\n      jump\t// in\n    tag_56:\n      tag_57\n      jump\t// in\n    tag_55:\n      0x40\n      dup1\n      mload\n      sub(shl(0xa0, 0x01), 0x01)\n        /* \"#utility.yul\":2533:2565   */\n      swap1\n      swap6\n      and\n        /* \"#utility.yul\":2515:2566   */\n      dup6\n      mstore\n        /* \"#utility.yul\":2597:2599   */\n      0x20\n        /* \"#utility.yul\":2582:2600   */\n      dup6\n      add\n        /* \"#utility.yul\":2575:2609   */\n      swap4\n      swap1\n      swap4\n      mstore\n        /* \"#utility.yul\":2625:2643   */\n      swap2\n      dup4\n      add\n        /* \"#utility.yul\":2618:2652   */\n      mstore\n        /* \"#utility.yul\":2683:2685   */\n      0x60\n        /* \"#utility.yul\":2668:2686   */\n      dup3\n      add\n        /* \"#utility.yul\":2661:2695   */\n      mstore\n        /* \"#utility.yul\":2502:2505   */\n      0x80\n        /* \"#utility.yul\":2487:2506   */\n      add\n        /* \"contracts/kk.sol\":3373:4015  function getStakeByPositionId(uint256 _positionId) external view returns (... */\n      tag_30\n        /* \"#utility.yul\":2284:2701   */\n      jump\n        /* \"contracts/kk.sol\":395:415  address public owner */\n    tag_10:\n      sload(0x00)\n      tag_32\n      swap1\n      sub(shl(0xa0, 0x01), 0x01)\n      and\n      dup2\n      jump\n        /* \"contracts/kk.sol\":4375:4507  function getDirectReferralCount(address user) external view returns (uint256) {... */\n    tag_11:\n      tag_63\n      tag_64\n      calldatasize\n      0x04\n      tag_40\n      jump\t// in\n    tag_64:\n      sub(shl(0xa0, 0x01), 0x01)\n        /* \"contracts/kk.sol\":4471:4492  directReferrals[user] */\n      and\n        /* \"contracts/kk.sol\":4444:4451  uint256 */\n      0x00\n        /* \"contracts/kk.sol\":4471:4492  directReferrals[user] */\n      swap1\n      dup2\n      mstore\n        /* \"contracts/kk.sol\":4471:4486  directReferrals */\n      0x04\n        /* \"contracts/kk.sol\":4471:4492  directReferrals[user] */\n      0x20\n      mstore\n      0x40\n      swap1\n      keccak256\n        /* \"contracts/kk.sol\":4471:4499  directReferrals[user].length */\n      sload\n      swap1\n        /* \"contracts/kk.sol\":4375:4507  function getDirectReferralCount(address user) external view returns (uint256) {... */\n      jump\n    tag_63:\n      mload(0x40)\n        /* \"#utility.yul\":2852:2877   */\n      swap1\n      dup2\n      mstore\n        /* \"#utility.yul\":2840:2842   */\n      0x20\n        /* \"#utility.yul\":2825:2843   */\n      add\n        /* \"contracts/kk.sol\":4375:4507  function getDirectReferralCount(address user) external view returns (uint256) {... */\n      tag_30\n        /* \"#utility.yul\":2706:2883   */\n      jump\n        /* \"contracts/kk.sol\":7888:7986  function getTotalUsers() external view returns (uint256) {... */\n    tag_12:\n        /* \"contracts/kk.sol\":7963:7971  allUsers */\n      0x06\n        /* \"contracts/kk.sol\":7963:7978  allUsers.length */\n      sload\n        /* \"contracts/kk.sol\":7888:7986  function getTotalUsers() external view returns (uint256) {... */\n      jump(tag_63)\n        /* \"contracts/kk.sol\":4515:5234  function getReferralIncomeDetails(address user) external view returns (... */\n    tag_13:\n      tag_71\n      tag_72\n      calldatasize\n      0x04\n      tag_40\n      jump\t// in\n    tag_72:\n      tag_73\n      jump\t// in\n    tag_71:\n      mload(0x40)\n      tag_30\n      swap4\n      swap3\n      swap2\n      swap1\n      tag_75\n      jump\t// in\n        /* \"contracts/kk.sol\":1422:1447  address[] public allUsers */\n    tag_14:\n      tag_32\n      tag_77\n      calldatasize\n      0x04\n      tag_34\n      jump\t// in\n    tag_77:\n      tag_78\n      jump\t// in\n        /* \"contracts/kk.sol\":2025:3365  function stake(uint256 amount) external {... */\n    tag_15:\n      tag_49\n      tag_81\n      calldatasize\n      0x04\n      tag_34\n      jump\t// in\n    tag_81:\n      tag_82\n      jump\t// in\n        /* \"contracts/kk.sol\":1256:1293  mapping(address => User) public users */\n    tag_16:\n      tag_26\n      tag_84\n      calldatasize\n      0x04\n      tag_40\n      jump\t// in\n    tag_84:\n      0x03\n      0x20\n      dup2\n      swap1\n      mstore\n      0x00\n      swap2\n      dup3\n      mstore\n      0x40\n      swap1\n      swap2\n      keccak256\n      dup1\n      sload\n      0x02\n      dup3\n      add\n      sload\n      swap2\n      swap1\n      swap3\n      add\n      sload\n      sub(shl(0xa0, 0x01), 0x01)\n      swap1\n      swap3\n      and\n      swap2\n      dup4\n      jump\n        /* \"contracts/kk.sol\":456:479  IERC20 public usdtToken */\n    tag_17:\n      sload(0x02)\n      tag_32\n      swap1\n      sub(shl(0xa0, 0x01), 0x01)\n      and\n      dup2\n      jump\n        /* \"contracts/kk.sol\":5242:5361  function getTotalIncome(address user) external view returns (uint256) {... */\n    tag_18:\n      tag_63\n      tag_92\n      calldatasize\n      0x04\n      tag_40\n      jump\t// in\n    tag_92:\n      sub(shl(0xa0, 0x01), 0x01)\n        /* \"contracts/kk.sol\":5330:5341  users[user] */\n      and\n        /* \"contracts/kk.sol\":5303:5310  uint256 */\n      0x00\n        /* \"contracts/kk.sol\":5330:5341  users[user] */\n      swap1\n      dup2\n      mstore\n        /* \"contracts/kk.sol\":5330:5335  users */\n      0x03\n        /* \"contracts/kk.sol\":5330:5341  users[user] */\n      0x20\n      mstore\n      0x40\n      swap1\n      keccak256\n        /* \"contracts/kk.sol\":5330:5353  users[user].totalIncome */\n      0x02\n      add\n      sload\n      swap1\n        /* \"contracts/kk.sol\":5242:5361  function getTotalIncome(address user) external view returns (uint256) {... */\n      jump\n        /* \"contracts/kk.sol\":5369:5493  function getTotalLevelIncome(address user) external view returns (uint256) {... */\n    tag_19:\n      tag_63\n      tag_96\n      calldatasize\n      0x04\n      tag_40\n      jump\t// in\n    tag_96:\n      sub(shl(0xa0, 0x01), 0x01)\n        /* \"contracts/kk.sol\":5462:5473  users[user] */\n      and\n        /* \"contracts/kk.sol\":5435:5442  uint256 */\n      0x00\n        /* \"contracts/kk.sol\":5462:5473  users[user] */\n      swap1\n      dup2\n      mstore\n        /* \"contracts/kk.sol\":5462:5467  users */\n      0x03\n        /* \"contracts/kk.sol\":5462:5473  users[user] */\n      0x20\n      dup2\n      swap1\n      mstore\n      0x40\n      swap1\n      swap2\n      keccak256\n        /* \"contracts/kk.sol\":5462:5485  users[user].levelIncome */\n      add\n      sload\n      swap1\n        /* \"contracts/kk.sol\":5369:5493  function getTotalLevelIncome(address user) external view returns (uint256) {... */\n      jump\n        /* \"contracts/kk.sol\":1458:1497  uint8[] public levelRewards = [5, 3, 2] */\n    tag_20:\n      tag_38\n      tag_100\n      calldatasize\n      0x04\n      tag_34\n      jump\t// in\n    tag_100:\n      tag_101\n      jump\t// in\n        /* \"contracts/kk.sol\":5773:7707  function getLevelIncomeDistribution(address _user) external view returns (LevelIncomeData[] memory) {... */\n    tag_21:\n      tag_103\n      tag_104\n      calldatasize\n      0x04\n      tag_40\n      jump\t// in\n    tag_104:\n      tag_105\n      jump\t// in\n    tag_103:\n      mload(0x40)\n      tag_30\n      swap2\n      swap1\n      tag_107\n      jump\t// in\n        /* \"contracts/kk.sol\":422:449  uint256 public stakeCounter */\n    tag_22:\n      tag_63\n      sload(0x01)\n      dup2\n      jump\n        /* \"contracts/kk.sol\":1300:1357  mapping(address => ReferralInfo[]) public directReferrals */\n    tag_29:\n      mstore(0x20, 0x04)\n      dup2\n      0x00\n      mstore\n      keccak256(0x00, 0x40)\n      dup2\n      dup2\n      sload\n      dup2\n      lt\n      tag_111\n      jumpi\n      0x00\n      dup1\n      revert\n    tag_111:\n      0x00\n      swap2\n      dup3\n      mstore\n      0x20\n      swap1\n      swap2\n      keccak256\n      0x03\n      swap1\n      swap2\n      mul\n      add\n      dup1\n      sload\n      0x01\n      dup3\n      add\n      sload\n      0x02\n      swap1\n      swap3\n      add\n      sload\n      sub(shl(0xa0, 0x01), 0x01)\n      swap1\n      swap2\n      and\n      swap4\n      pop\n      swap1\n      swap2\n      pop\n      dup4\n      jump\t// out\n        /* \"contracts/kk.sol\":5501:5765  function getUserLevel(address user) external view returns (uint8) {... */\n    tag_41:\n      sub(shl(0xa0, 0x01), 0x01)\n        /* \"contracts/kk.sol\":5594:5615  directReferrals[user] */\n      dup2\n      and\n        /* \"contracts/kk.sol\":5560:5565  uint8 */\n      0x00\n        /* \"contracts/kk.sol\":5594:5615  directReferrals[user] */\n      swap1\n      dup2\n      mstore\n        /* \"contracts/kk.sol\":5594:5609  directReferrals */\n      0x04\n        /* \"contracts/kk.sol\":5594:5615  directReferrals[user] */\n      0x20\n      mstore\n      0x40\n      dup2\n      keccak256\n        /* \"contracts/kk.sol\":5594:5622  directReferrals[user].length */\n      sload\n        /* \"contracts/kk.sol\":5646:5648  10 */\n      0x0a\n        /* \"contracts/kk.sol\":5637:5648  count >= 10 */\n      dup2\n      lt\n        /* \"contracts/kk.sol\":5633:5658  if (count >= 10) return 3 */\n      tag_114\n      jumpi\n      pop\n        /* \"contracts/kk.sol\":5657:5658  3 */\n      0x03\n      swap3\n        /* \"contracts/kk.sol\":5501:5765  function getUserLevel(address user) external view returns (uint8) {... */\n      swap2\n      pop\n      pop\n      jump\t// out\n        /* \"contracts/kk.sol\":5633:5658  if (count >= 10) return 3 */\n    tag_114:\n        /* \"contracts/kk.sol\":5692:5693  5 */\n      0x05\n        /* \"contracts/kk.sol\":5683:5688  count */\n      dup2\n        /* \"contracts/kk.sol\":5683:5693  count >= 5 */\n      lt\n        /* \"contracts/kk.sol\":5679:5703  if (count >= 5) return 2 */\n      tag_115\n      jumpi\n      pop\n        /* \"contracts/kk.sol\":5702:5703  2 */\n      0x02\n      swap3\n        /* \"contracts/kk.sol\":5501:5765  function getUserLevel(address user) external view returns (uint8) {... */\n      swap2\n      pop\n      pop\n      jump\t// out\n        /* \"contracts/kk.sol\":5679:5703  if (count >= 5) return 2 */\n    tag_115:\n        /* \"contracts/kk.sol\":5727:5728  1 */\n      0x01\n        /* \"contracts/kk.sol\":5718:5723  count */\n      dup2\n        /* \"contracts/kk.sol\":5718:5728  count >= 1 */\n      lt\n        /* \"contracts/kk.sol\":5714:5738  if (count >= 1) return 1 */\n      tag_116\n      jumpi\n      pop\n        /* \"contracts/kk.sol\":5737:5738  1 */\n      0x01\n      swap3\n        /* \"contracts/kk.sol\":5501:5765  function getUserLevel(address user) external view returns (uint8) {... */\n      swap2\n      pop\n      pop\n      jump\t// out\n        /* \"contracts/kk.sol\":5714:5738  if (count >= 1) return 1 */\n    tag_116:\n      pop\n        /* \"contracts/kk.sol\":5756:5757  0 */\n      0x00\n      swap3\n        /* \"contracts/kk.sol\":5501:5765  function getUserLevel(address user) external view returns (uint8) {... */\n      swap2\n      pop\n      pop\n      jump\t// out\n        /* \"contracts/kk.sol\":4023:4358  function getPositionIds(address _user) external view returns (uint256[] memory) {... */\n    tag_46:\n      sub(shl(0xa0, 0x01), 0x01)\n        /* \"contracts/kk.sol\":4130:4142  users[_user] */\n      dup2\n      and\n        /* \"contracts/kk.sol\":4114:4127  uint256 count */\n      0x00\n        /* \"contracts/kk.sol\":4130:4142  users[_user] */\n      swap1\n      dup2\n      mstore\n        /* \"contracts/kk.sol\":4130:4135  users */\n      0x03\n        /* \"contracts/kk.sol\":4130:4142  users[_user] */\n      0x20\n      mstore\n      0x40\n      dup2\n      keccak256\n        /* \"contracts/kk.sol\":4130:4149  users[_user].stakes */\n      0x01\n      add\n        /* \"contracts/kk.sol\":4130:4156  users[_user].stakes.length */\n      sload\n        /* \"contracts/kk.sol\":4085:4101  uint256[] memory */\n      0x60\n      swap2\n        /* \"contracts/kk.sol\":4130:4156  users[_user].stakes.length */\n      dup2\n        /* \"contracts/kk.sol\":4190:4210  new uint256[](count) */\n      0xffffffffffffffff\n      dup2\n      gt\n      iszero\n      tag_119\n      jumpi\n      tag_119\n      tag_120\n      jump\t// in\n    tag_119:\n      mload(0x40)\n      swap1\n      dup1\n      dup3\n      mstore\n      dup1\n      0x20\n      mul\n      0x20\n      add\n      dup3\n      add\n      0x40\n      mstore\n      dup1\n      iszero\n      tag_121\n      jumpi\n      dup2\n      0x20\n      add\n      0x20\n      dup3\n      mul\n      dup1\n      calldatasize\n      dup4\n      calldatacopy\n      add\n      swap1\n      pop\n    tag_121:\n      pop\n        /* \"contracts/kk.sol\":4167:4210  uint256[] memory ids = new uint256[](count) */\n      swap1\n      pop\n        /* \"contracts/kk.sol\":4228:4237  uint256 i */\n      0x00\n        /* \"contracts/kk.sol\":4223:4328  for (uint256 i = 0; i < count; i++) {... */\n    tag_122:\n        /* \"contracts/kk.sol\":4247:4252  count */\n      dup3\n        /* \"contracts/kk.sol\":4243:4244  i */\n      dup2\n        /* \"contracts/kk.sol\":4243:4252  i < count */\n      lt\n        /* \"contracts/kk.sol\":4223:4328  for (uint256 i = 0; i < count; i++) {... */\n      iszero\n      tag_123\n      jumpi\n      sub(shl(0xa0, 0x01), 0x01)\n        /* \"contracts/kk.sol\":4283:4295  users[_user] */\n      dup6\n      and\n      0x00\n      swap1\n      dup2\n      mstore\n        /* \"contracts/kk.sol\":4283:4288  users */\n      0x03\n        /* \"contracts/kk.sol\":4283:4295  users[_user] */\n      0x20\n      mstore\n      0x40\n      swap1\n      keccak256\n        /* \"contracts/kk.sol\":4283:4302  users[_user].stakes */\n      0x01\n      add\n        /* \"contracts/kk.sol\":4283:4305  users[_user].stakes[i] */\n      dup1\n      sload\n        /* \"contracts/kk.sol\":4303:4304  i */\n      dup3\n      swap1\n        /* \"contracts/kk.sol\":4283:4305  users[_user].stakes[i] */\n      dup2\n      lt\n      tag_126\n      jumpi\n      tag_126\n      tag_127\n      jump\t// in\n    tag_126:\n      swap1\n      0x00\n      mstore\n      keccak256(0x00, 0x20)\n      swap1\n      0x04\n      mul\n      add\n        /* \"contracts/kk.sol\":4283:4316  users[_user].stakes[i].positionId */\n      0x01\n      add\n      sload\n        /* \"contracts/kk.sol\":4274:4277  ids */\n      dup3\n        /* \"contracts/kk.sol\":4278:4279  i */\n      dup3\n        /* \"contracts/kk.sol\":4274:4280  ids[i] */\n      dup2\n      mload\n      dup2\n      lt\n      tag_130\n      jumpi\n      tag_130\n      tag_127\n      jump\t// in\n    tag_130:\n      0x20\n      swap1\n      dup2\n      mul\n      swap2\n      swap1\n      swap2\n      add\n      add\n        /* \"contracts/kk.sol\":4274:4316  ids[i] = users[_user].stakes[i].positionId */\n      mstore\n        /* \"contracts/kk.sol\":4254:4257  i++ */\n      0x01\n      add\n        /* \"contracts/kk.sol\":4223:4328  for (uint256 i = 0; i < count; i++) {... */\n      jump(tag_122)\n    tag_123:\n      pop\n        /* \"contracts/kk.sol\":4347:4350  ids */\n      swap4\n        /* \"contracts/kk.sol\":4023:4358  function getPositionIds(address _user) external view returns (uint256[] memory) {... */\n      swap3\n      pop\n      pop\n      pop\n      jump\t// out\n        /* \"contracts/kk.sol\":7715:7880  function withdrawUSDT(uint256 amount) external {... */\n    tag_51:\n        /* \"contracts/kk.sol\":7795:7800  owner */\n      and(sub(shl(0xa0, 0x01), 0x01), sload(0x00))\n        /* \"contracts/kk.sol\":7781:7791  msg.sender */\n      caller\n        /* \"contracts/kk.sol\":7781:7800  msg.sender == owner */\n      eq\n        /* \"contracts/kk.sol\":7773:7828  require(msg.sender == owner, \"Only owner can withdraw\") */\n      tag_132\n      jumpi\n      mload(0x40)\n      shl(0xe5, 0x461bcd)\n      dup2\n      mstore\n        /* \"#utility.yul\":5872:5874   */\n      0x20\n        /* \"contracts/kk.sol\":7773:7828  require(msg.sender == owner, \"Only owner can withdraw\") */\n      0x04\n      dup3\n      add\n        /* \"#utility.yul\":5854:5875   */\n      mstore\n        /* \"#utility.yul\":5911:5913   */\n      0x17\n        /* \"#utility.yul\":5891:5909   */\n      0x24\n      dup3\n      add\n        /* \"#utility.yul\":5884:5914   */\n      mstore\n        /* \"#utility.yul\":5950:5975   */\n      0x4f6e6c79206f776e65722063616e207769746864726177000000000000000000\n        /* \"#utility.yul\":5930:5948   */\n      0x44\n      dup3\n      add\n        /* \"#utility.yul\":5923:5976   */\n      mstore\n        /* \"#utility.yul\":5993:6011   */\n      0x64\n      add\n        /* \"contracts/kk.sol\":7773:7828  require(msg.sender == owner, \"Only owner can withdraw\") */\n    tag_133:\n      mload(0x40)\n      dup1\n      swap2\n      sub\n      swap1\n      revert\n    tag_132:\n        /* \"contracts/kk.sol\":7839:7848  usdtToken */\n      sload(0x02)\n      0x00\n        /* \"contracts/kk.sol\":7858:7863  owner */\n      sload\n        /* \"contracts/kk.sol\":7839:7872  usdtToken.transfer(owner, amount) */\n      mload(0x40)\n      shl(0xe0, 0xa9059cbb)\n      dup2\n      mstore\n      sub(shl(0xa0, 0x01), 0x01)\n        /* \"contracts/kk.sol\":7858:7863  owner */\n      swap2\n      dup3\n      and\n        /* \"contracts/kk.sol\":7839:7872  usdtToken.transfer(owner, amount) */\n      0x04\n      dup3\n      add\n        /* \"#utility.yul\":6196:6247   */\n      mstore\n        /* \"#utility.yul\":6263:6281   */\n      0x24\n      dup2\n      add\n        /* \"#utility.yul\":6256:6290   */\n      dup5\n      swap1\n      mstore\n        /* \"contracts/kk.sol\":7839:7848  usdtToken */\n      swap2\n      and\n      swap1\n        /* \"contracts/kk.sol\":7839:7857  usdtToken.transfer */\n      0xa9059cbb\n      swap1\n        /* \"#utility.yul\":6169:6187   */\n      0x44\n      add\n        /* \"contracts/kk.sol\":7839:7872  usdtToken.transfer(owner, amount) */\n      0x20\n      mload(0x40)\n      dup1\n      dup4\n      sub\n      dup2\n      0x00\n      dup8\n      gas\n      call\n      iszero\n      dup1\n      iszero\n      tag_138\n      jumpi\n      returndatasize\n      0x00\n      dup1\n      returndatacopy\n      revert(0x00, returndatasize)\n    tag_138:\n      pop\n      pop\n      pop\n      pop\n      mload(0x40)\n      returndatasize\n      not(0x1f)\n      0x1f\n      dup3\n      add\n      and\n      dup3\n      add\n      dup1\n      0x40\n      mstore\n      pop\n      dup2\n      add\n      swap1\n      tag_139\n      swap2\n      swap1\n      tag_140\n      jump\t// in\n    tag_139:\n      pop\n        /* \"contracts/kk.sol\":7715:7880  function withdrawUSDT(uint256 amount) external {... */\n      pop\n      jump\t// out\n        /* \"contracts/kk.sol\":1544:2015  function register(address referrer) external {... */\n    tag_54:\n        /* \"contracts/kk.sol\":1614:1624  msg.sender */\n      caller\n        /* \"contracts/kk.sol\":1646:1647  0 */\n      0x00\n        /* \"contracts/kk.sol\":1608:1625  users[msg.sender] */\n      swap1\n      dup2\n      mstore\n        /* \"contracts/kk.sol\":1608:1613  users */\n      0x03\n        /* \"contracts/kk.sol\":1608:1625  users[msg.sender] */\n      0x20\n      mstore\n      0x40\n      swap1\n      keccak256\n        /* \"contracts/kk.sol\":1608:1634  users[msg.sender].referrer */\n      sload\n      sub(shl(0xa0, 0x01), 0x01)\n      and\n        /* \"contracts/kk.sol\":1608:1648  users[msg.sender].referrer == address(0) */\n      iszero\n        /* \"contracts/kk.sol\":1600:1671  require(users[msg.sender].referrer == address(0), \"Already registered\") */\n      tag_142\n      jumpi\n      mload(0x40)\n      shl(0xe5, 0x461bcd)\n      dup2\n      mstore\n        /* \"#utility.yul\":6785:6787   */\n      0x20\n        /* \"contracts/kk.sol\":1600:1671  require(users[msg.sender].referrer == address(0), \"Already registered\") */\n      0x04\n      dup3\n      add\n        /* \"#utility.yul\":6767:6788   */\n      mstore\n        /* \"#utility.yul\":6824:6826   */\n      0x12\n        /* \"#utility.yul\":6804:6822   */\n      0x24\n      dup3\n      add\n        /* \"#utility.yul\":6797:6827   */\n      mstore\n      shl(0x72, 0x105b1c9958591e481c9959da5cdd195c9959)\n        /* \"#utility.yul\":6843:6861   */\n      0x44\n      dup3\n      add\n        /* \"#utility.yul\":6836:6884   */\n      mstore\n        /* \"#utility.yul\":6901:6919   */\n      0x64\n      add\n        /* \"contracts/kk.sol\":1600:1671  require(users[msg.sender].referrer == address(0), \"Already registered\") */\n      tag_133\n        /* \"#utility.yul\":6583:6925   */\n      jump\n        /* \"contracts/kk.sol\":1600:1671  require(users[msg.sender].referrer == address(0), \"Already registered\") */\n    tag_142:\n        /* \"contracts/kk.sol\":1702:1712  msg.sender */\n      caller\n      sub(shl(0xa0, 0x01), 0x01)\n        /* \"contracts/kk.sol\":1690:1712  referrer != msg.sender */\n      dup3\n      and\n      sub\n        /* \"contracts/kk.sol\":1682:1738  require(referrer != msg.sender, \"Cannot refer yourself\") */\n      tag_145\n      jumpi\n      mload(0x40)\n      shl(0xe5, 0x461bcd)\n      dup2\n      mstore\n        /* \"#utility.yul\":7132:7134   */\n      0x20\n        /* \"contracts/kk.sol\":1682:1738  require(referrer != msg.sender, \"Cannot refer yourself\") */\n      0x04\n      dup3\n      add\n        /* \"#utility.yul\":7114:7135   */\n      mstore\n        /* \"#utility.yul\":7171:7173   */\n      0x15\n        /* \"#utility.yul\":7151:7169   */\n      0x24\n      dup3\n      add\n        /* \"#utility.yul\":7144:7174   */\n      mstore\n      shl(0x59, 0x21b0b73737ba103932b332b9103cb7bab939b2b633)\n        /* \"#utility.yul\":7190:7208   */\n      0x44\n      dup3\n      add\n        /* \"#utility.yul\":7183:7234   */\n      mstore\n        /* \"#utility.yul\":7251:7269   */\n      0x64\n      add\n        /* \"contracts/kk.sol\":1682:1738  require(referrer != msg.sender, \"Cannot refer yourself\") */\n      tag_133\n        /* \"#utility.yul\":6930:7275   */\n      jump\n        /* \"contracts/kk.sol\":1682:1738  require(referrer != msg.sender, \"Cannot refer yourself\") */\n    tag_145:\n        /* \"contracts/kk.sol\":1757:1767  msg.sender */\n      caller\n        /* \"contracts/kk.sol\":1751:1768  users[msg.sender] */\n      0x00\n      dup2\n      dup2\n      mstore\n        /* \"contracts/kk.sol\":1751:1756  users */\n      0x03\n        /* \"contracts/kk.sol\":1751:1768  users[msg.sender] */\n      0x20\n      dup2\n      dup2\n      mstore\n      0x40\n      dup1\n      dup5\n      keccak256\n        /* \"contracts/kk.sol\":1751:1788  users[msg.sender].referrer = referrer */\n      dup1\n      sload\n      sub(shl(0xa0, 0x01), 0x01)\n      swap8\n      dup9\n      and\n      not(sub(shl(0xa0, 0x01), 0x01))\n      swap2\n      dup3\n      and\n      dup2\n      or\n      swap1\n      swap3\n      sstore\n        /* \"contracts/kk.sol\":1799:1807  allUsers */\n      0x06\n        /* \"contracts/kk.sol\":1799:1824  allUsers.push(msg.sender) */\n      dup1\n      sload\n        /* \"contracts/kk.sol\":1751:1788  users[msg.sender].referrer = referrer */\n      0x01\n        /* \"contracts/kk.sol\":1799:1824  allUsers.push(msg.sender) */\n      dup2\n      dup2\n      add\n      swap1\n      swap3\n      sstore\n      0xf652222313e28459528d920b65115c16c04f3efc82aaedc97be59f3f377c0d3f\n      add\n      dup1\n      sload\n      dup4\n      and\n      dup10\n      or\n      swap1\n      sstore\n        /* \"contracts/kk.sol\":1837:1862  directReferrals[referrer] */\n      swap2\n      dup7\n      mstore\n        /* \"contracts/kk.sol\":1837:1852  directReferrals */\n      0x04\n        /* \"contracts/kk.sol\":1837:1862  directReferrals[referrer] */\n      dup5\n      mstore\n      dup3\n      dup7\n      keccak256\n        /* \"contracts/kk.sol\":1868:2006  ReferralInfo({... */\n      dup4\n      mload\n      0x60\n      dup2\n      add\n      dup6\n      mstore\n      swap8\n      dup9\n      mstore\n      dup8\n      dup6\n      add\n      dup8\n      dup2\n      mstore\n        /* \"contracts/kk.sol\":1979:1994  block.timestamp */\n      timestamp\n        /* \"contracts/kk.sol\":1868:2006  ReferralInfo({... */\n      swap5\n      dup10\n      add\n      swap5\n      dup6\n      mstore\n        /* \"contracts/kk.sol\":1837:2007  directReferrals[referrer].push(ReferralInfo({... */\n      dup2\n      sload\n      dup1\n      dup6\n      add\n      dup4\n      sstore\n      swap2\n      dup9\n      mstore\n      swap5\n      swap1\n      swap7\n      keccak256\n      swap7\n      mload\n      swap6\n      swap1\n      swap5\n      mul\n      swap1\n      swap6\n      add\n      dup1\n      sload\n      swap5\n      swap1\n      swap7\n      and\n      swap4\n      swap1\n      swap3\n      and\n      swap3\n      swap1\n      swap3\n      or\n      dup5\n      sstore\n      swap1\n      mload\n      swap2\n      dup4\n      add\n      swap2\n      swap1\n      swap2\n      sstore\n      mload\n      0x02\n      swap1\n      swap2\n      add\n      sstore\n        /* \"contracts/kk.sol\":1544:2015  function register(address referrer) external {... */\n      jump\t// out\n        /* \"contracts/kk.sol\":3373:4015  function getStakeByPositionId(uint256 _positionId) external view returns (... */\n    tag_57:\n        /* \"contracts/kk.sol\":3457:3469  address user */\n      0x00\n        /* \"contracts/kk.sol\":3586:3615  positionIdToUser[_positionId] */\n      dup2\n      dup2\n      mstore\n        /* \"contracts/kk.sol\":3586:3602  positionIdToUser */\n      0x05\n        /* \"contracts/kk.sol\":3586:3615  positionIdToUser[_positionId] */\n      0x20\n      mstore\n      0x40\n      dup2\n      keccak256\n      sload\n        /* \"contracts/kk.sol\":3457:3469  address user */\n      dup2\n      swap1\n      dup2\n      swap1\n      dup2\n      swap1\n      sub(shl(0xa0, 0x01), 0x01)\n        /* \"contracts/kk.sol\":3586:3615  positionIdToUser[_positionId] */\n      and\n      dup1\n        /* \"contracts/kk.sol\":3626:3679  require(userAddr != address(0), \"Invalid positionId\") */\n      tag_151\n      jumpi\n      mload(0x40)\n      shl(0xe5, 0x461bcd)\n      dup2\n      mstore\n        /* \"#utility.yul\":7482:7484   */\n      0x20\n        /* \"contracts/kk.sol\":3626:3679  require(userAddr != address(0), \"Invalid positionId\") */\n      0x04\n      dup3\n      add\n        /* \"#utility.yul\":7464:7485   */\n      mstore\n        /* \"#utility.yul\":7521:7523   */\n      0x12\n        /* \"#utility.yul\":7501:7519   */\n      0x24\n      dup3\n      add\n        /* \"#utility.yul\":7494:7524   */\n      mstore\n      shl(0x72, 0x125b9d985b1a59081c1bdcda5d1a5bdb9259)\n        /* \"#utility.yul\":7540:7558   */\n      0x44\n      dup3\n      add\n        /* \"#utility.yul\":7533:7581   */\n      mstore\n        /* \"#utility.yul\":7598:7616   */\n      0x64\n      add\n        /* \"contracts/kk.sol\":3626:3679  require(userAddr != address(0), \"Invalid positionId\") */\n      tag_133\n        /* \"#utility.yul\":7280:7622   */\n      jump\n        /* \"contracts/kk.sol\":3626:3679  require(userAddr != address(0), \"Invalid positionId\") */\n    tag_151:\n      sub(shl(0xa0, 0x01), 0x01)\n        /* \"contracts/kk.sol\":3716:3731  users[userAddr] */\n      dup2\n      and\n        /* \"contracts/kk.sol\":3692:3713  Stake[] memory stakes */\n      0x00\n        /* \"contracts/kk.sol\":3716:3731  users[userAddr] */\n      swap1\n      dup2\n      mstore\n        /* \"contracts/kk.sol\":3716:3721  users */\n      0x03\n        /* \"contracts/kk.sol\":3716:3731  users[userAddr] */\n      0x20\n      swap1\n      dup2\n      mstore\n      0x40\n      dup1\n      dup4\n      keccak256\n        /* \"contracts/kk.sol\":3716:3738  users[userAddr].stakes */\n      0x01\n      add\n        /* \"contracts/kk.sol\":3692:3738  Stake[] memory stakes = users[userAddr].stakes */\n      dup1\n      sload\n      dup3\n      mload\n      dup2\n      dup6\n      mul\n      dup2\n      add\n      dup6\n      add\n      swap1\n      swap4\n      mstore\n      dup1\n      dup4\n      mstore\n      swap2\n      swap3\n        /* \"contracts/kk.sol\":3716:3738  users[userAddr].stakes */\n      swap1\n      swap2\n        /* \"contracts/kk.sol\":3692:3738  Stake[] memory stakes = users[userAddr].stakes */\n      swap1\n        /* \"contracts/kk.sol\":3692:3713  Stake[] memory stakes */\n      dup5\n      swap1\n        /* \"contracts/kk.sol\":3692:3738  Stake[] memory stakes = users[userAddr].stakes */\n      dup5\n      add\n    tag_154:\n      dup3\n      dup3\n      lt\n      iszero\n      tag_155\n      jumpi\n      dup4\n      dup3\n      swap1\n      0x00\n      mstore\n      keccak256(0x00, 0x20)\n      swap1\n      0x04\n      mul\n      add\n      mload(0x40)\n      dup1\n      0x80\n      add\n      0x40\n      mstore\n      swap1\n      dup2\n      0x00\n      dup3\n      add\n      sload\n      dup2\n      mstore\n      0x20\n      add\n      0x01\n      dup3\n      add\n      sload\n      dup2\n      mstore\n      0x20\n      add\n      0x02\n      dup3\n      add\n      sload\n      dup2\n      mstore\n      0x20\n      add\n      0x03\n      dup3\n      add\n      sload\n      dup2\n      mstore\n      pop\n      pop\n      dup2\n      mstore\n      0x20\n      add\n      swap1\n      0x01\n      add\n      swap1\n      jump(tag_154)\n    tag_155:\n      pop\n      pop\n      pop\n      pop\n      swap1\n      pop\n        /* \"contracts/kk.sol\":3754:3763  uint256 i */\n      0x00\n        /* \"contracts/kk.sol\":3749:3970  for (uint256 i = 0; i < stakes.length; i++) {... */\n    tag_157:\n        /* \"contracts/kk.sol\":3773:3779  stakes */\n      dup2\n        /* \"contracts/kk.sol\":3773:3786  stakes.length */\n      mload\n        /* \"contracts/kk.sol\":3769:3770  i */\n      dup2\n        /* \"contracts/kk.sol\":3769:3786  i < stakes.length */\n      lt\n        /* \"contracts/kk.sol\":3749:3970  for (uint256 i = 0; i < stakes.length; i++) {... */\n      iszero\n      tag_158\n      jumpi\n        /* \"contracts/kk.sol\":3836:3847  _positionId */\n      dup8\n        /* \"contracts/kk.sol\":3812:3818  stakes */\n      dup3\n        /* \"contracts/kk.sol\":3819:3820  i */\n      dup3\n        /* \"contracts/kk.sol\":3812:3821  stakes[i] */\n      dup2\n      mload\n      dup2\n      lt\n      tag_161\n      jumpi\n      tag_161\n      tag_127\n      jump\t// in\n    tag_161:\n      0x20\n      mul\n      0x20\n      add\n      add\n      mload\n        /* \"contracts/kk.sol\":3812:3832  stakes[i].positionId */\n      0x20\n      add\n      mload\n        /* \"contracts/kk.sol\":3812:3847  stakes[i].positionId == _positionId */\n      sub\n        /* \"contracts/kk.sol\":3808:3959  if (stakes[i].positionId == _positionId) {... */\n      tag_162\n      jumpi\n        /* \"contracts/kk.sol\":3876:3884  userAddr */\n      dup3\n        /* \"contracts/kk.sol\":3886:3892  stakes */\n      dup3\n        /* \"contracts/kk.sol\":3893:3894  i */\n      dup3\n        /* \"contracts/kk.sol\":3886:3895  stakes[i] */\n      dup2\n      mload\n      dup2\n      lt\n      tag_164\n      jumpi\n      tag_164\n      tag_127\n      jump\t// in\n    tag_164:\n      0x20\n      mul\n      0x20\n      add\n      add\n      mload\n        /* \"contracts/kk.sol\":3886:3903  stakes[i].stakeId */\n      0x00\n      add\n      mload\n        /* \"contracts/kk.sol\":3905:3911  stakes */\n      dup4\n        /* \"contracts/kk.sol\":3912:3913  i */\n      dup4\n        /* \"contracts/kk.sol\":3905:3914  stakes[i] */\n      dup2\n      mload\n      dup2\n      lt\n      tag_166\n      jumpi\n      tag_166\n      tag_127\n      jump\t// in\n    tag_166:\n      0x20\n      mul\n      0x20\n      add\n      add\n      mload\n        /* \"contracts/kk.sol\":3905:3921  stakes[i].amount */\n      0x40\n      add\n      mload\n        /* \"contracts/kk.sol\":3923:3929  stakes */\n      dup5\n        /* \"contracts/kk.sol\":3930:3931  i */\n      dup5\n        /* \"contracts/kk.sol\":3923:3932  stakes[i] */\n      dup2\n      mload\n      dup2\n      lt\n      tag_168\n      jumpi\n      tag_168\n      tag_127\n      jump\t// in\n    tag_168:\n      0x20\n      mul\n      0x20\n      add\n      add\n      mload\n        /* \"contracts/kk.sol\":3923:3942  stakes[i].timestamp */\n      0x60\n      add\n      mload\n        /* \"contracts/kk.sol\":3868:3943  return (userAddr, stakes[i].stakeId, stakes[i].amount, stakes[i].timestamp) */\n      swap7\n      pop\n      swap7\n      pop\n      swap7\n      pop\n      swap7\n      pop\n      pop\n      pop\n      pop\n      jump(tag_150)\n        /* \"contracts/kk.sol\":3808:3959  if (stakes[i].positionId == _positionId) {... */\n    tag_162:\n        /* \"contracts/kk.sol\":3788:3791  i++ */\n      0x01\n      add\n        /* \"contracts/kk.sol\":3749:3970  for (uint256 i = 0; i < stakes.length; i++) {... */\n      jump(tag_157)\n    tag_158:\n      pop\n        /* \"contracts/kk.sol\":3982:4007  revert(\"Stake not found\") */\n      mload(0x40)\n      shl(0xe5, 0x461bcd)\n      dup2\n      mstore\n        /* \"#utility.yul\":7829:7831   */\n      0x20\n        /* \"contracts/kk.sol\":3982:4007  revert(\"Stake not found\") */\n      0x04\n      dup3\n      add\n        /* \"#utility.yul\":7811:7832   */\n      mstore\n        /* \"#utility.yul\":7868:7870   */\n      0x0f\n        /* \"#utility.yul\":7848:7866   */\n      0x24\n      dup3\n      add\n        /* \"#utility.yul\":7841:7871   */\n      mstore\n      shl(0x8a, 0x14dd185ad9481b9bdd08199bdd5b99)\n        /* \"#utility.yul\":7887:7905   */\n      0x44\n      dup3\n      add\n        /* \"#utility.yul\":7880:7925   */\n      mstore\n        /* \"#utility.yul\":7942:7960   */\n      0x64\n      add\n        /* \"contracts/kk.sol\":3982:4007  revert(\"Stake not found\") */\n      tag_133\n        /* \"#utility.yul\":7627:7966   */\n      jump\n        /* \"contracts/kk.sol\":3373:4015  function getStakeByPositionId(uint256 _positionId) external view returns (... */\n    tag_150:\n      swap2\n      swap4\n      pop\n      swap2\n      swap4\n      jump\t// out\n        /* \"contracts/kk.sol\":4515:5234  function getReferralIncomeDetails(address user) external view returns (... */\n    tag_73:\n      sub(shl(0xa0, 0x01), 0x01)\n        /* \"contracts/kk.sol\":4752:4773  directReferrals[user] */\n      dup2\n      and\n        /* \"contracts/kk.sol\":4722:4749  ReferralInfo[] storage refs */\n      0x00\n        /* \"contracts/kk.sol\":4752:4773  directReferrals[user] */\n      swap1\n      dup2\n      mstore\n        /* \"contracts/kk.sol\":4752:4767  directReferrals */\n      0x04\n        /* \"contracts/kk.sol\":4752:4773  directReferrals[user] */\n      0x20\n      mstore\n      0x40\n      swap1\n      keccak256\n        /* \"contracts/kk.sol\":4800:4811  refs.length */\n      dup1\n      sload\n        /* \"contracts/kk.sol\":4596:4630  address[] memory referralAddresses */\n      0x60\n      swap2\n      dup3\n      swap2\n      dup3\n      swap2\n        /* \"contracts/kk.sol\":4752:4773  directReferrals[user] */\n      swap1\n        /* \"contracts/kk.sol\":4800:4811  refs.length */\n      dup1\n        /* \"contracts/kk.sol\":4844:4864  new address[](count) */\n      0xffffffffffffffff\n      dup2\n      gt\n      iszero\n      tag_175\n      jumpi\n      tag_175\n      tag_120\n      jump\t// in\n    tag_175:\n      mload(0x40)\n      swap1\n      dup1\n      dup3\n      mstore\n      dup1\n      0x20\n      mul\n      0x20\n      add\n      dup3\n      add\n      0x40\n      mstore\n      dup1\n      iszero\n      tag_176\n      jumpi\n      dup2\n      0x20\n      add\n      0x20\n      dup3\n      mul\n      dup1\n      calldatasize\n      dup4\n      calldatacopy\n      add\n      swap1\n      pop\n    tag_176:\n      pop\n        /* \"contracts/kk.sol\":4824:4864  referralAddresses = new address[](count) */\n      swap5\n      pop\n        /* \"contracts/kk.sol\":4899:4904  count */\n      dup1\n        /* \"contracts/kk.sol\":4885:4905  new uint256[](count) */\n      0xffffffffffffffff\n      dup2\n      gt\n      iszero\n      tag_178\n      jumpi\n      tag_178\n      tag_120\n      jump\t// in\n    tag_178:\n      mload(0x40)\n      swap1\n      dup1\n      dup3\n      mstore\n      dup1\n      0x20\n      mul\n      0x20\n      add\n      dup3\n      add\n      0x40\n      mstore\n      dup1\n      iszero\n      tag_179\n      jumpi\n      dup2\n      0x20\n      add\n      0x20\n      dup3\n      mul\n      dup1\n      calldatasize\n      dup4\n      calldatacopy\n      add\n      swap1\n      pop\n    tag_179:\n      pop\n        /* \"contracts/kk.sol\":4875:4905  incomes = new uint256[](count) */\n      swap4\n      pop\n        /* \"contracts/kk.sol\":4943:4948  count */\n      dup1\n        /* \"contracts/kk.sol\":4929:4949  new uint256[](count) */\n      0xffffffffffffffff\n      dup2\n      gt\n      iszero\n      tag_181\n      jumpi\n      tag_181\n      tag_120\n      jump\t// in\n    tag_181:\n      mload(0x40)\n      swap1\n      dup1\n      dup3\n      mstore\n      dup1\n      0x20\n      mul\n      0x20\n      add\n      dup3\n      add\n      0x40\n      mstore\n      dup1\n      iszero\n      tag_182\n      jumpi\n      dup2\n      0x20\n      add\n      0x20\n      dup3\n      mul\n      dup1\n      calldatasize\n      dup4\n      calldatacopy\n      add\n      swap1\n      pop\n    tag_182:\n      pop\n        /* \"contracts/kk.sol\":4916:4949  timestamps = new uint256[](count) */\n      swap3\n      pop\n        /* \"contracts/kk.sol\":4967:4976  uint256 i */\n      0x00\n        /* \"contracts/kk.sol\":4962:5167  for (uint256 i = 0; i < count; i++) {... */\n    tag_183:\n        /* \"contracts/kk.sol\":4986:4991  count */\n      dup2\n        /* \"contracts/kk.sol\":4982:4983  i */\n      dup2\n        /* \"contracts/kk.sol\":4982:4991  i < count */\n      lt\n        /* \"contracts/kk.sol\":4962:5167  for (uint256 i = 0; i < count; i++) {... */\n      iszero\n      tag_184\n      jumpi\n        /* \"contracts/kk.sol\":5036:5040  refs */\n      dup3\n        /* \"contracts/kk.sol\":5041:5042  i */\n      dup2\n        /* \"contracts/kk.sol\":5036:5043  refs[i] */\n      dup2\n      sload\n      dup2\n      lt\n      tag_187\n      jumpi\n      tag_187\n      tag_127\n      jump\t// in\n    tag_187:\n      0x00\n      swap2\n      dup3\n      mstore\n      0x20\n      swap1\n      swap2\n      keccak256\n      0x03\n      swap1\n      swap2\n      mul\n      add\n        /* \"contracts/kk.sol\":5036:5059  refs[i].referralAddress */\n      sload\n        /* \"contracts/kk.sol\":5013:5033  referralAddresses[i] */\n      dup7\n      mload\n      sub(shl(0xa0, 0x01), 0x01)\n        /* \"contracts/kk.sol\":5036:5059  refs[i].referralAddress */\n      swap1\n      swap2\n      and\n      swap1\n        /* \"contracts/kk.sol\":5013:5030  referralAddresses */\n      dup8\n      swap1\n        /* \"contracts/kk.sol\":5031:5032  i */\n      dup4\n      swap1\n        /* \"contracts/kk.sol\":5013:5033  referralAddresses[i] */\n      dup2\n      lt\n      tag_190\n      jumpi\n      tag_190\n      tag_127\n      jump\t// in\n    tag_190:\n      0x20\n      mul\n      0x20\n      add\n      add\n        /* \"contracts/kk.sol\":5013:5059  referralAddresses[i] = refs[i].referralAddress */\n      swap1\n      sub(shl(0xa0, 0x01), 0x01)\n      and\n      swap1\n      dup2\n      sub(shl(0xa0, 0x01), 0x01)\n      and\n      dup2\n      mstore\n      pop\n      pop\n        /* \"contracts/kk.sol\":5087:5091  refs */\n      dup3\n        /* \"contracts/kk.sol\":5092:5093  i */\n      dup2\n        /* \"contracts/kk.sol\":5087:5094  refs[i] */\n      dup2\n      sload\n      dup2\n      lt\n      tag_192\n      jumpi\n      tag_192\n      tag_127\n      jump\t// in\n    tag_192:\n      swap1\n      0x00\n      mstore\n      keccak256(0x00, 0x20)\n      swap1\n      0x03\n      mul\n      add\n        /* \"contracts/kk.sol\":5087:5107  refs[i].incomeEarned */\n      0x01\n      add\n      sload\n        /* \"contracts/kk.sol\":5074:5081  incomes */\n      dup6\n        /* \"contracts/kk.sol\":5082:5083  i */\n      dup3\n        /* \"contracts/kk.sol\":5074:5084  incomes[i] */\n      dup2\n      mload\n      dup2\n      lt\n      tag_195\n      jumpi\n      tag_195\n      tag_127\n      jump\t// in\n    tag_195:\n      0x20\n      mul\n      0x20\n      add\n      add\n        /* \"contracts/kk.sol\":5074:5107  incomes[i] = refs[i].incomeEarned */\n      dup2\n      dup2\n      mstore\n      pop\n      pop\n        /* \"contracts/kk.sol\":5138:5142  refs */\n      dup3\n        /* \"contracts/kk.sol\":5143:5144  i */\n      dup2\n        /* \"contracts/kk.sol\":5138:5145  refs[i] */\n      dup2\n      sload\n      dup2\n      lt\n      tag_197\n      jumpi\n      tag_197\n      tag_127\n      jump\t// in\n    tag_197:\n      swap1\n      0x00\n      mstore\n      keccak256(0x00, 0x20)\n      swap1\n      0x03\n      mul\n      add\n        /* \"contracts/kk.sol\":5138:5155  refs[i].timestamp */\n      0x02\n      add\n      sload\n        /* \"contracts/kk.sol\":5122:5132  timestamps */\n      dup5\n        /* \"contracts/kk.sol\":5133:5134  i */\n      dup3\n        /* \"contracts/kk.sol\":5122:5135  timestamps[i] */\n      dup2\n      mload\n      dup2\n      lt\n      tag_200\n      jumpi\n      tag_200\n      tag_127\n      jump\t// in\n    tag_200:\n      0x20\n      swap1\n      dup2\n      mul\n      swap2\n      swap1\n      swap2\n      add\n      add\n        /* \"contracts/kk.sol\":5122:5155  timestamps[i] = refs[i].timestamp */\n      mstore\n        /* \"contracts/kk.sol\":4993:4996  i++ */\n      0x01\n      add\n        /* \"contracts/kk.sol\":4962:5167  for (uint256 i = 0; i < count; i++) {... */\n      jump(tag_183)\n    tag_184:\n      pop\n        /* \"contracts/kk.sol\":5179:5226  return (referralAddresses, incomes, timestamps) */\n      pop\n      pop\n        /* \"contracts/kk.sol\":4515:5234  function getReferralIncomeDetails(address user) external view returns (... */\n      swap2\n      swap4\n      swap1\n      swap3\n      pop\n      jump\t// out\n        /* \"contracts/kk.sol\":1422:1447  address[] public allUsers */\n    tag_78:\n      0x06\n      dup2\n      dup2\n      sload\n      dup2\n      lt\n      tag_201\n      jumpi\n      0x00\n      dup1\n      revert\n    tag_201:\n      0x00\n      swap2\n      dup3\n      mstore\n      0x20\n      swap1\n      swap2\n      keccak256\n      add\n      sload\n      sub(shl(0xa0, 0x01), 0x01)\n      and\n      swap1\n      pop\n      dup2\n      jump\t// out\n        /* \"contracts/kk.sol\":2025:3365  function stake(uint256 amount) external {... */\n    tag_82:\n        /* \"contracts/kk.sol\":2093:2094  0 */\n      0x00\n        /* \"contracts/kk.sol\":2084:2090  amount */\n      dup2\n        /* \"contracts/kk.sol\":2084:2094  amount > 0 */\n      gt\n        /* \"contracts/kk.sol\":2076:2127  require(amount > 0, \"Stake must be greater than 0\") */\n      tag_204\n      jumpi\n      mload(0x40)\n      shl(0xe5, 0x461bcd)\n      dup2\n      mstore\n        /* \"#utility.yul\":8173:8175   */\n      0x20\n        /* \"contracts/kk.sol\":2076:2127  require(amount > 0, \"Stake must be greater than 0\") */\n      0x04\n      dup3\n      add\n        /* \"#utility.yul\":8155:8176   */\n      mstore\n        /* \"#utility.yul\":8212:8214   */\n      0x1c\n        /* \"#utility.yul\":8192:8210   */\n      0x24\n      dup3\n      add\n        /* \"#utility.yul\":8185:8215   */\n      mstore\n        /* \"#utility.yul\":8251:8281   */\n      0x5374616b65206d7573742062652067726561746572207468616e203000000000\n        /* \"#utility.yul\":8231:8249   */\n      0x44\n      dup3\n      add\n        /* \"#utility.yul\":8224:8282   */\n      mstore\n        /* \"#utility.yul\":8299:8317   */\n      0x64\n      add\n        /* \"contracts/kk.sol\":2076:2127  require(amount > 0, \"Stake must be greater than 0\") */\n      tag_133\n        /* \"#utility.yul\":7971:8323   */\n      jump\n        /* \"contracts/kk.sol\":2076:2127  require(amount > 0, \"Stake must be greater than 0\") */\n    tag_204:\n        /* \"contracts/kk.sol\":2152:2162  msg.sender */\n      caller\n        /* \"contracts/kk.sol\":2184:2185  0 */\n      0x00\n        /* \"contracts/kk.sol\":2146:2163  users[msg.sender] */\n      swap1\n      dup2\n      mstore\n        /* \"contracts/kk.sol\":2146:2151  users */\n      0x03\n        /* \"contracts/kk.sol\":2146:2163  users[msg.sender] */\n      0x20\n      mstore\n      0x40\n      swap1\n      keccak256\n        /* \"contracts/kk.sol\":2146:2172  users[msg.sender].referrer */\n      sload\n      sub(shl(0xa0, 0x01), 0x01)\n      and\n        /* \"contracts/kk.sol\":2138:2214  require(users[msg.sender].referrer != address(0), \"User must be registered\") */\n      tag_207\n      jumpi\n      mload(0x40)\n      shl(0xe5, 0x461bcd)\n      dup2\n      mstore\n        /* \"#utility.yul\":8530:8532   */\n      0x20\n        /* \"contracts/kk.sol\":2138:2214  require(users[msg.sender].referrer != address(0), \"User must be registered\") */\n      0x04\n      dup3\n      add\n        /* \"#utility.yul\":8512:8533   */\n      mstore\n        /* \"#utility.yul\":8569:8571   */\n      0x17\n        /* \"#utility.yul\":8549:8567   */\n      0x24\n      dup3\n      add\n        /* \"#utility.yul\":8542:8572   */\n      mstore\n        /* \"#utility.yul\":8608:8633   */\n      0x55736572206d7573742062652072656769737465726564000000000000000000\n        /* \"#utility.yul\":8588:8606   */\n      0x44\n      dup3\n      add\n        /* \"#utility.yul\":8581:8634   */\n      mstore\n        /* \"#utility.yul\":8651:8669   */\n      0x64\n      add\n        /* \"contracts/kk.sol\":2138:2214  require(users[msg.sender].referrer != address(0), \"User must be registered\") */\n      tag_133\n        /* \"#utility.yul\":8328:8675   */\n      jump\n        /* \"contracts/kk.sol\":2138:2214  require(users[msg.sender].referrer != address(0), \"User must be registered\") */\n    tag_207:\n        /* \"contracts/kk.sol\":2227:2236  usdtToken */\n      sload(0x02)\n        /* \"contracts/kk.sol\":2227:2284  usdtToken.transferFrom(msg.sender, address(this), amount) */\n      mload(0x40)\n      shl(0xe0, 0x23b872dd)\n      dup2\n      mstore\n        /* \"contracts/kk.sol\":2250:2260  msg.sender */\n      caller\n        /* \"contracts/kk.sol\":2227:2284  usdtToken.transferFrom(msg.sender, address(this), amount) */\n      0x04\n      dup3\n      add\n        /* \"#utility.yul\":8920:8954   */\n      mstore\n        /* \"contracts/kk.sol\":2270:2274  this */\n      address\n        /* \"#utility.yul\":8970:8988   */\n      0x24\n      dup3\n      add\n        /* \"#utility.yul\":8963:9006   */\n      mstore\n        /* \"#utility.yul\":9022:9040   */\n      0x44\n      dup2\n      add\n        /* \"#utility.yul\":9015:9049   */\n      dup4\n      swap1\n      mstore\n      sub(shl(0xa0, 0x01), 0x01)\n        /* \"contracts/kk.sol\":2227:2236  usdtToken */\n      swap1\n      swap2\n      and\n      swap1\n        /* \"contracts/kk.sol\":2227:2249  usdtToken.transferFrom */\n      0x23b872dd\n      swap1\n        /* \"#utility.yul\":8855:8873   */\n      0x64\n      add\n        /* \"contracts/kk.sol\":2227:2284  usdtToken.transferFrom(msg.sender, address(this), amount) */\n      0x20\n      mload(0x40)\n      dup1\n      dup4\n      sub\n      dup2\n      0x00\n      dup8\n      gas\n      call\n      iszero\n      dup1\n      iszero\n      tag_213\n      jumpi\n      returndatasize\n      0x00\n      dup1\n      returndatacopy\n      revert(0x00, returndatasize)\n    tag_213:\n      pop\n      pop\n      pop\n      pop\n      mload(0x40)\n      returndatasize\n      not(0x1f)\n      0x1f\n      dup3\n      add\n      and\n      dup3\n      add\n      dup1\n      0x40\n      mstore\n      pop\n      dup2\n      add\n      swap1\n      tag_214\n      swap2\n      swap1\n      tag_140\n      jump\t// in\n    tag_214:\n      pop\n        /* \"contracts/kk.sol\":2297:2315  uint256 positionId */\n      0x00\n        /* \"contracts/kk.sol\":2320:2332  stakeCounter */\n      0x01\n      0x00\n        /* \"contracts/kk.sol\":2318:2332  ++stakeCounter */\n      dup2\n      sload\n      tag_215\n      swap1\n      tag_216\n      jump\t// in\n    tag_215:\n      swap2\n      dup3\n      swap1\n      sstore\n      pop\n        /* \"contracts/kk.sol\":2351:2361  msg.sender */\n      caller\n        /* \"contracts/kk.sol\":2345:2362  users[msg.sender] */\n      0x00\n      dup2\n      dup2\n      mstore\n        /* \"contracts/kk.sol\":2345:2350  users */\n      0x03\n        /* \"contracts/kk.sol\":2345:2362  users[msg.sender] */\n      0x20\n      dup2\n      dup2\n      mstore\n      0x40\n      dup1\n      dup5\n      keccak256\n        /* \"contracts/kk.sol\":2375:2536  Stake({... */\n      dup2\n      mload\n      0x80\n      dup2\n      add\n      dup4\n      mstore\n        /* \"contracts/kk.sol\":2345:2369  users[msg.sender].stakes */\n      0x01\n        /* \"contracts/kk.sol\":2405:2417  stakeCounter */\n      dup1\n      sload\n        /* \"contracts/kk.sol\":2375:2536  Stake({... */\n      dup3\n      mstore\n      dup2\n      dup6\n      add\n      dup10\n      dup2\n      mstore\n      dup3\n      dup6\n      add\n      dup13\n      dup2\n      mstore\n        /* \"contracts/kk.sol\":2509:2524  block.timestamp */\n      timestamp\n        /* \"contracts/kk.sol\":2375:2536  Stake({... */\n      0x60\n      dup6\n      add\n      swap1\n      dup2\n      mstore\n        /* \"contracts/kk.sol\":2345:2369  users[msg.sender].stakes */\n      dup4\n      dup7\n      add\n        /* \"contracts/kk.sol\":2345:2537  users[msg.sender].stakes.push(Stake({... */\n      dup1\n      sload\n      dup1\n      dup7\n      add\n      dup3\n      sstore\n      swap1\n      dup12\n      mstore\n      dup9\n      dup12\n      keccak256\n      swap6\n      mload\n      0x04\n      swap1\n      swap2\n      mul\n      swap1\n      swap6\n      add\n      swap5\n      dup6\n      sstore\n      swap2\n      mload\n      swap3\n      dup5\n      add\n      swap3\n      swap1\n      swap3\n      sstore\n      swap1\n      mload\n      0x02\n      dup4\n      add\n      sstore\n      mload\n      swap1\n      dup6\n      add\n      sstore\n        /* \"contracts/kk.sol\":2550:2578  positionIdToUser[positionId] */\n      dup7\n      dup6\n      mstore\n        /* \"contracts/kk.sol\":2550:2566  positionIdToUser */\n      0x05\n        /* \"contracts/kk.sol\":2550:2578  positionIdToUser[positionId] */\n      dup4\n      mstore\n      swap1\n      dup5\n      keccak256\n        /* \"contracts/kk.sol\":2550:2591  positionIdToUser[positionId] = msg.sender */\n      dup1\n      sload\n      not(sub(shl(0xa0, 0x01), 0x01))\n      and\n      dup7\n      or\n      swap1\n      sstore\n        /* \"contracts/kk.sol\":2659:2676  users[msg.sender] */\n      swap4\n      dup4\n      mstore\n      mstore\n        /* \"contracts/kk.sol\":2659:2685  users[msg.sender].referrer */\n      swap1\n      sload\n        /* \"contracts/kk.sol\":2318:2332  ++stakeCounter */\n      swap2\n      swap3\n      pop\n      sub(shl(0xa0, 0x01), 0x01)\n        /* \"contracts/kk.sol\":2659:2685  users[msg.sender].referrer */\n      swap1\n      swap2\n      and\n      swap1\n        /* \"contracts/kk.sol\":2698:3358  for (uint8 i = 0; i < levelRewards.length && upline != address(0); i++) {... */\n    tag_218:\n        /* \"contracts/kk.sol\":2720:2732  levelRewards */\n      0x07\n        /* \"contracts/kk.sol\":2720:2739  levelRewards.length */\n      sload\n        /* \"contracts/kk.sol\":2716:2739  i < levelRewards.length */\n      0xff\n      dup3\n      and\n      lt\n        /* \"contracts/kk.sol\":2716:2763  i < levelRewards.length && upline != address(0) */\n      dup1\n      iszero\n      tag_221\n      jumpi\n      pop\n      sub(shl(0xa0, 0x01), 0x01)\n        /* \"contracts/kk.sol\":2743:2763  upline != address(0) */\n      dup3\n      and\n      iszero\n      iszero\n        /* \"contracts/kk.sol\":2716:2763  i < levelRewards.length && upline != address(0) */\n    tag_221:\n        /* \"contracts/kk.sol\":2698:3358  for (uint8 i = 0; i < levelRewards.length && upline != address(0); i++) {... */\n      iszero\n      tag_219\n      jumpi\n        /* \"contracts/kk.sol\":2785:2799  uint256 reward */\n      0x00\n        /* \"contracts/kk.sol\":2831:2834  100 */\n      0x64\n        /* \"contracts/kk.sol\":2812:2824  levelRewards */\n      0x07\n        /* \"contracts/kk.sol\":2825:2826  i */\n      dup4\n        /* \"contracts/kk.sol\":2812:2827  levelRewards[i] */\n      0xff\n      and\n      dup2\n      sload\n      dup2\n      lt\n      tag_223\n      jumpi\n      tag_223\n      tag_127\n      jump\t// in\n    tag_223:\n      0x00\n      swap2\n      dup3\n      mstore\n      0x20\n      swap2\n      dup3\n      swap1\n      keccak256\n      swap2\n      dup2\n      div\n      swap1\n      swap2\n      add\n      sload\n        /* \"contracts/kk.sol\":2803:2827  amount * levelRewards[i] */\n      tag_225\n      swap2\n        /* \"contracts/kk.sol\":2812:2827  levelRewards[i] */\n      0x1f\n      and\n      0x0100\n      exp\n      swap1\n      div\n      0xff\n      and\n        /* \"contracts/kk.sol\":2803:2809  amount */\n      dup8\n        /* \"contracts/kk.sol\":2803:2827  amount * levelRewards[i] */\n      tag_226\n      jump\t// in\n    tag_225:\n        /* \"contracts/kk.sol\":2802:2834  (amount * levelRewards[i]) / 100 */\n      tag_227\n      swap2\n      swap1\n      tag_228\n      jump\t// in\n    tag_227:\n        /* \"contracts/kk.sol\":2849:2858  usdtToken */\n      sload(0x02)\n        /* \"contracts/kk.sol\":2849:2883  usdtToken.transfer(upline, reward) */\n      mload(0x40)\n      shl(0xe0, 0xa9059cbb)\n      dup2\n      mstore\n      sub(shl(0xa0, 0x01), 0x01)\n        /* \"#utility.yul\":6214:6246   */\n      dup7\n      dup2\n      and\n        /* \"contracts/kk.sol\":2849:2883  usdtToken.transfer(upline, reward) */\n      0x04\n      dup4\n      add\n        /* \"#utility.yul\":6196:6247   */\n      mstore\n        /* \"#utility.yul\":6263:6281   */\n      0x24\n      dup3\n      add\n        /* \"#utility.yul\":6256:6290   */\n      dup5\n      swap1\n      mstore\n        /* \"contracts/kk.sol\":2785:2834  uint256 reward = (amount * levelRewards[i]) / 100 */\n      swap3\n      swap4\n      pop\n        /* \"contracts/kk.sol\":2849:2858  usdtToken */\n      swap2\n      and\n      swap1\n        /* \"contracts/kk.sol\":2849:2867  usdtToken.transfer */\n      0xa9059cbb\n      swap1\n        /* \"#utility.yul\":6169:6187   */\n      0x44\n      add\n        /* \"contracts/kk.sol\":2849:2883  usdtToken.transfer(upline, reward) */\n      0x20\n      mload(0x40)\n      dup1\n      dup4\n      sub\n      dup2\n      0x00\n      dup8\n      gas\n      call\n      iszero\n      dup1\n      iszero\n      tag_231\n      jumpi\n      returndatasize\n      0x00\n      dup1\n      returndatacopy\n      revert(0x00, returndatasize)\n    tag_231:\n      pop\n      pop\n      pop\n      pop\n      mload(0x40)\n      returndatasize\n      not(0x1f)\n      0x1f\n      dup3\n      add\n      and\n      dup3\n      add\n      dup1\n      0x40\n      mstore\n      pop\n      dup2\n      add\n      swap1\n      tag_232\n      swap2\n      swap1\n      tag_140\n      jump\t// in\n    tag_232:\n      pop\n      sub(shl(0xa0, 0x01), 0x01)\n        /* \"contracts/kk.sol\":2900:2913  users[upline] */\n      dup4\n      and\n      0x00\n      swap1\n      dup2\n      mstore\n        /* \"contracts/kk.sol\":2900:2905  users */\n      0x03\n        /* \"contracts/kk.sol\":2900:2913  users[upline] */\n      0x20\n      mstore\n      0x40\n      dup2\n      keccak256\n        /* \"contracts/kk.sol\":2900:2925  users[upline].totalIncome */\n      0x02\n      add\n        /* \"contracts/kk.sol\":2900:2935  users[upline].totalIncome += reward */\n      dup1\n      sload\n        /* \"contracts/kk.sol\":2929:2935  reward */\n      dup4\n      swap3\n        /* \"contracts/kk.sol\":2900:2913  users[upline] */\n      swap1\n        /* \"contracts/kk.sol\":2900:2935  users[upline].totalIncome += reward */\n      tag_233\n      swap1\n        /* \"contracts/kk.sol\":2929:2935  reward */\n      dup5\n      swap1\n        /* \"contracts/kk.sol\":2900:2935  users[upline].totalIncome += reward */\n      tag_234\n      jump\t// in\n    tag_233:\n      swap1\n      swap2\n      sstore\n      pop\n      pop\n      sub(shl(0xa0, 0x01), 0x01)\n        /* \"contracts/kk.sol\":2950:2963  users[upline] */\n      dup4\n      and\n      0x00\n      swap1\n      dup2\n      mstore\n        /* \"contracts/kk.sol\":2950:2955  users */\n      0x03\n        /* \"contracts/kk.sol\":2950:2963  users[upline] */\n      0x20\n      dup2\n      swap1\n      mstore\n      0x40\n      dup3\n      keccak256\n        /* \"contracts/kk.sol\":2950:2975  users[upline].levelIncome */\n      add\n        /* \"contracts/kk.sol\":2950:2985  users[upline].levelIncome += reward */\n      dup1\n      sload\n        /* \"contracts/kk.sol\":2979:2985  reward */\n      dup4\n      swap3\n        /* \"contracts/kk.sol\":2950:2963  users[upline] */\n      swap1\n        /* \"contracts/kk.sol\":2950:2985  users[upline].levelIncome += reward */\n      tag_235\n      swap1\n        /* \"contracts/kk.sol\":2979:2985  reward */\n      dup5\n      swap1\n        /* \"contracts/kk.sol\":2950:2985  users[upline].levelIncome += reward */\n      tag_234\n      jump\t// in\n    tag_235:\n      swap1\n      swap2\n      sstore\n      pop\n      pop\n      sub(shl(0xa0, 0x01), 0x01)\n        /* \"contracts/kk.sol\":3069:3092  directReferrals[upline] */\n      dup4\n      and\n        /* \"contracts/kk.sol\":3039:3066  ReferralInfo[] storage refs */\n      0x00\n        /* \"contracts/kk.sol\":3069:3092  directReferrals[upline] */\n      swap1\n      dup2\n      mstore\n        /* \"contracts/kk.sol\":3069:3084  directReferrals */\n      0x04\n        /* \"contracts/kk.sol\":3069:3092  directReferrals[upline] */\n      0x20\n      mstore\n      0x40\n      dup2\n      keccak256\n      swap1\n        /* \"contracts/kk.sol\":3107:3299  for (uint256 j = 0; j < refs.length; j++) {... */\n    tag_236:\n        /* \"contracts/kk.sol\":3131:3142  refs.length */\n      dup2\n      sload\n        /* \"contracts/kk.sol\":3127:3142  j < refs.length */\n      dup2\n      lt\n        /* \"contracts/kk.sol\":3107:3299  for (uint256 j = 0; j < refs.length; j++) {... */\n      iszero\n      tag_237\n      jumpi\n        /* \"contracts/kk.sol\":3199:3209  msg.sender */\n      caller\n      sub(shl(0xa0, 0x01), 0x01)\n        /* \"contracts/kk.sol\":3172:3209  refs[j].referralAddress == msg.sender */\n      and\n        /* \"contracts/kk.sol\":3172:3176  refs */\n      dup3\n        /* \"contracts/kk.sol\":3177:3178  j */\n      dup3\n        /* \"contracts/kk.sol\":3172:3179  refs[j] */\n      dup2\n      sload\n      dup2\n      lt\n      tag_240\n      jumpi\n      tag_240\n      tag_127\n      jump\t// in\n    tag_240:\n      0x00\n      swap2\n      dup3\n      mstore\n      0x20\n      swap1\n      swap2\n      keccak256\n      0x03\n      swap1\n      swap2\n      mul\n      add\n        /* \"contracts/kk.sol\":3172:3195  refs[j].referralAddress */\n      sload\n      sub(shl(0xa0, 0x01), 0x01)\n      and\n        /* \"contracts/kk.sol\":3172:3209  refs[j].referralAddress == msg.sender */\n      sub\n        /* \"contracts/kk.sol\":3168:3284  if (refs[j].referralAddress == msg.sender) {... */\n      tag_242\n      jumpi\n        /* \"contracts/kk.sol\":3258:3264  reward */\n      dup3\n        /* \"contracts/kk.sol\":3234:3238  refs */\n      dup3\n        /* \"contracts/kk.sol\":3239:3240  j */\n      dup3\n        /* \"contracts/kk.sol\":3234:3241  refs[j] */\n      dup2\n      sload\n      dup2\n      lt\n      tag_244\n      jumpi\n      tag_244\n      tag_127\n      jump\t// in\n    tag_244:\n      swap1\n      0x00\n      mstore\n      keccak256(0x00, 0x20)\n      swap1\n      0x03\n      mul\n      add\n        /* \"contracts/kk.sol\":3234:3254  refs[j].incomeEarned */\n      0x01\n      add\n      0x00\n        /* \"contracts/kk.sol\":3234:3264  refs[j].incomeEarned += reward */\n      dup3\n      dup3\n      sload\n      tag_246\n      swap2\n      swap1\n      tag_234\n      jump\t// in\n    tag_246:\n      swap1\n      swap2\n      sstore\n      pop\n      pop\n        /* \"contracts/kk.sol\":3168:3284  if (refs[j].referralAddress == msg.sender) {... */\n    tag_242:\n        /* \"contracts/kk.sol\":3144:3147  j++ */\n      0x01\n      add\n        /* \"contracts/kk.sol\":3107:3299  for (uint256 j = 0; j < refs.length; j++) {... */\n      jump(tag_236)\n    tag_237:\n      pop\n      pop\n      pop\n      sub(shl(0xa0, 0x01), 0x01)\n        /* \"contracts/kk.sol\":3324:3337  users[upline] */\n      swap2\n      dup3\n      and\n      0x00\n      swap1\n      dup2\n      mstore\n        /* \"contracts/kk.sol\":3324:3329  users */\n      0x03\n        /* \"contracts/kk.sol\":3324:3337  users[upline] */\n      0x20\n      mstore\n      0x40\n      swap1\n      keccak256\n        /* \"contracts/kk.sol\":3324:3346  users[upline].referrer */\n      sload\n      swap1\n      swap2\n      and\n      swap1\n        /* \"contracts/kk.sol\":2765:2768  i++ */\n      dup1\n      tag_247\n      dup2\n      tag_248\n      jump\t// in\n    tag_247:\n      swap2\n      pop\n      pop\n        /* \"contracts/kk.sol\":2698:3358  for (uint8 i = 0; i < levelRewards.length && upline != address(0); i++) {... */\n      jump(tag_218)\n    tag_219:\n      pop\n        /* \"contracts/kk.sol\":2065:3365  {... */\n      pop\n      pop\n        /* \"contracts/kk.sol\":2025:3365  function stake(uint256 amount) external {... */\n      pop\n      jump\t// out\n        /* \"contracts/kk.sol\":1458:1497  uint8[] public levelRewards = [5, 3, 2] */\n    tag_101:\n      0x07\n      dup2\n      dup2\n      sload\n      dup2\n      lt\n      tag_251\n      jumpi\n      0x00\n      dup1\n      revert\n    tag_251:\n      swap1\n      0x00\n      mstore\n      keccak256(0x00, 0x20)\n      swap1\n      0x20\n      swap2\n      dup3\n      dup3\n      div\n      add\n      swap2\n      swap1\n      mod\n      swap2\n      pop\n      sload\n      swap1\n      0x0100\n      exp\n      swap1\n      div\n      0xff\n      and\n      dup2\n      jump\t// out\n        /* \"contracts/kk.sol\":5773:7707  function getLevelIncomeDistribution(address _user) external view returns (LevelIncomeData[] memory) {... */\n    tag_105:\n        /* \"contracts/kk.sol\":5847:5871  LevelIncomeData[] memory */\n      0x60\n        /* \"contracts/kk.sol\":5884:5902  uint256 totalCount */\n      0x00\n        /* \"contracts/kk.sol\":5924:5933  uint256 i */\n      dup1\n        /* \"contracts/kk.sol\":5919:6408  for (uint256 i = 0; i < allUsers.length; i++) {... */\n    tag_254:\n        /* \"contracts/kk.sol\":5943:5951  allUsers */\n      0x06\n        /* \"contracts/kk.sol\":5943:5958  allUsers.length */\n      sload\n        /* \"contracts/kk.sol\":5939:5958  i < allUsers.length */\n      dup2\n      lt\n        /* \"contracts/kk.sol\":5919:6408  for (uint256 i = 0; i < allUsers.length; i++) {... */\n      iszero\n      tag_255\n      jumpi\n        /* \"contracts/kk.sol\":5980:5994  address staker */\n      0x00\n        /* \"contracts/kk.sol\":5997:6005  allUsers */\n      0x06\n        /* \"contracts/kk.sol\":6006:6007  i */\n      dup3\n        /* \"contracts/kk.sol\":5997:6008  allUsers[i] */\n      dup2\n      sload\n      dup2\n      lt\n      tag_258\n      jumpi\n      tag_258\n      tag_127\n      jump\t// in\n    tag_258:\n      0x00\n      swap2\n      dup3\n      mstore\n      0x20\n      dup1\n      dup4\n      keccak256\n      swap1\n      swap2\n      add\n      sload\n      sub(shl(0xa0, 0x01), 0x01)\n      and\n        /* \"contracts/kk.sol\":6047:6060  users[staker] */\n      dup1\n      dup4\n      mstore\n        /* \"contracts/kk.sol\":6047:6052  users */\n      0x03\n        /* \"contracts/kk.sol\":6047:6060  users[staker] */\n      dup3\n      mstore\n      0x40\n      dup1\n      dup5\n      keccak256\n        /* \"contracts/kk.sol\":5997:6008  allUsers[i] */\n      0x01\n        /* \"contracts/kk.sol\":6047:6067  users[staker].stakes */\n      add\n        /* \"contracts/kk.sol\":6023:6067  Stake[] memory stakes = users[staker].stakes */\n      dup1\n      sload\n      dup3\n      mload\n      dup2\n      dup7\n      mul\n      dup2\n      add\n      dup7\n      add\n      swap1\n      swap4\n      mstore\n      dup1\n      dup4\n      mstore\n        /* \"contracts/kk.sol\":5997:6008  allUsers[i] */\n      swap3\n      swap6\n      pop\n        /* \"contracts/kk.sol\":6023:6067  Stake[] memory stakes = users[staker].stakes */\n      swap1\n      swap3\n        /* \"contracts/kk.sol\":6047:6067  users[staker].stakes */\n      swap1\n      swap2\n        /* \"contracts/kk.sol\":6023:6067  Stake[] memory stakes = users[staker].stakes */\n      swap1\n        /* \"contracts/kk.sol\":5997:6008  allUsers[i] */\n      dup5\n      swap1\n        /* \"contracts/kk.sol\":6023:6067  Stake[] memory stakes = users[staker].stakes */\n      dup5\n      add\n    tag_260:\n      dup3\n      dup3\n      lt\n      iszero\n      tag_261\n      jumpi\n      dup4\n      dup3\n      swap1\n      0x00\n      mstore\n      keccak256(0x00, 0x20)\n      swap1\n      0x04\n      mul\n      add\n      mload(0x40)\n      dup1\n      0x80\n      add\n      0x40\n      mstore\n      swap1\n      dup2\n      0x00\n      dup3\n      add\n      sload\n      dup2\n      mstore\n      0x20\n      add\n      0x01\n      dup3\n      add\n      sload\n      dup2\n      mstore\n      0x20\n      add\n      0x02\n      dup3\n      add\n      sload\n      dup2\n      mstore\n      0x20\n      add\n      0x03\n      dup3\n      add\n      sload\n      dup2\n      mstore\n      pop\n      pop\n      dup2\n      mstore\n      0x20\n      add\n      swap1\n      0x01\n      add\n      swap1\n      jump(tag_260)\n    tag_261:\n      pop\n      pop\n      pop\n      pop\n      sub(shl(0xa0, 0x01), 0x01)\n        /* \"contracts/kk.sol\":6099:6112  users[staker] */\n      dup4\n      dup2\n      and\n        /* \"contracts/kk.sol\":6082:6096  address upline */\n      0x00\n        /* \"contracts/kk.sol\":6099:6112  users[staker] */\n      swap1\n      dup2\n      mstore\n        /* \"contracts/kk.sol\":6099:6104  users */\n      0x03\n        /* \"contracts/kk.sol\":6099:6112  users[staker] */\n      0x20\n      mstore\n      0x40\n      dup2\n      keccak256\n        /* \"contracts/kk.sol\":6099:6121  users[staker].referrer */\n      sload\n        /* \"contracts/kk.sol\":6023:6067  Stake[] memory stakes = users[staker].stakes */\n      swap3\n      swap4\n      pop\n        /* \"contracts/kk.sol\":6099:6121  users[staker].referrer */\n      swap2\n      and\n      swap1\n        /* \"contracts/kk.sol\":6138:6397  for (uint8 level = 0; level < levelRewards.length && upline != address(0); level++) {... */\n    tag_263:\n        /* \"contracts/kk.sol\":6168:6180  levelRewards */\n      0x07\n        /* \"contracts/kk.sol\":6168:6187  levelRewards.length */\n      sload\n        /* \"contracts/kk.sol\":6160:6187  level < levelRewards.length */\n      0xff\n      dup3\n      and\n      lt\n        /* \"contracts/kk.sol\":6160:6211  level < levelRewards.length && upline != address(0) */\n      dup1\n      iszero\n      tag_266\n      jumpi\n      pop\n      sub(shl(0xa0, 0x01), 0x01)\n        /* \"contracts/kk.sol\":6191:6211  upline != address(0) */\n      dup3\n      and\n      iszero\n      iszero\n        /* \"contracts/kk.sol\":6160:6211  level < levelRewards.length && upline != address(0) */\n    tag_266:\n        /* \"contracts/kk.sol\":6138:6397  for (uint8 level = 0; level < levelRewards.length && upline != address(0); level++) {... */\n      iszero\n      tag_264\n      jumpi\n        /* \"contracts/kk.sol\":6255:6260  _user */\n      dup8\n      sub(shl(0xa0, 0x01), 0x01)\n        /* \"contracts/kk.sol\":6245:6260  upline == _user */\n      and\n        /* \"contracts/kk.sol\":6245:6251  upline */\n      dup3\n      sub(shl(0xa0, 0x01), 0x01)\n        /* \"contracts/kk.sol\":6245:6260  upline == _user */\n      and\n      sub\n        /* \"contracts/kk.sol\":6241:6332  if (upline == _user) {... */\n      tag_267\n      jumpi\n        /* \"contracts/kk.sol\":6299:6312  stakes.length */\n      dup3\n      mload\n        /* \"contracts/kk.sol\":6285:6312  totalCount += stakes.length */\n      tag_268\n      swap1\n      dup8\n      tag_234\n      jump\t// in\n    tag_268:\n      swap6\n      pop\n        /* \"contracts/kk.sol\":6241:6332  if (upline == _user) {... */\n    tag_267:\n      sub(shl(0xa0, 0x01), 0x01)\n        /* \"contracts/kk.sol\":6359:6372  users[upline] */\n      swap2\n      dup3\n      and\n      0x00\n      swap1\n      dup2\n      mstore\n        /* \"contracts/kk.sol\":6359:6364  users */\n      0x03\n        /* \"contracts/kk.sol\":6359:6372  users[upline] */\n      0x20\n      mstore\n      0x40\n      swap1\n      keccak256\n        /* \"contracts/kk.sol\":6359:6381  users[upline].referrer */\n      sload\n      swap1\n      swap2\n      and\n      swap1\n        /* \"contracts/kk.sol\":6213:6220  level++ */\n      dup1\n      tag_269\n      dup2\n      tag_248\n      jump\t// in\n    tag_269:\n      swap2\n      pop\n      pop\n        /* \"contracts/kk.sol\":6138:6397  for (uint8 level = 0; level < levelRewards.length && upline != address(0); level++) {... */\n      jump(tag_263)\n    tag_264:\n      pop\n      pop\n        /* \"contracts/kk.sol\":5960:5963  i++ */\n      0x01\n      swap1\n      swap3\n      add\n      swap2\n      pop\n        /* \"contracts/kk.sol\":5919:6408  for (uint256 i = 0; i < allUsers.length; i++) {... */\n      tag_254\n      swap1\n      pop\n      jump\n    tag_255:\n      pop\n        /* \"contracts/kk.sol\":6420:6455  LevelIncomeData[] memory incomeData */\n      0x00\n        /* \"contracts/kk.sol\":6480:6490  totalCount */\n      dup2\n        /* \"contracts/kk.sol\":6458:6491  new LevelIncomeData[](totalCount) */\n      0xffffffffffffffff\n      dup2\n      gt\n      iszero\n      tag_271\n      jumpi\n      tag_271\n      tag_120\n      jump\t// in\n    tag_271:\n      mload(0x40)\n      swap1\n      dup1\n      dup3\n      mstore\n      dup1\n      0x20\n      mul\n      0x20\n      add\n      dup3\n      add\n      0x40\n      mstore\n      dup1\n      iszero\n      tag_272\n      jumpi\n      dup2\n      0x20\n      add\n    tag_273:\n      tag_274\n      mload(0x40)\n      dup1\n      0xe0\n      add\n      0x40\n      mstore\n      dup1\n      and(sub(shl(0xa0, 0x01), 0x01), 0x00)\n      dup2\n      mstore\n      0x20\n      add\n      0x00\n      dup2\n      mstore\n      0x20\n      add\n      0x00\n      dup2\n      mstore\n      0x20\n      add\n      0x00\n      dup2\n      mstore\n      0x20\n      add\n      and(sub(shl(0xa0, 0x01), 0x01), 0x00)\n      dup2\n      mstore\n      0x20\n      add\n      0x00\n      dup2\n      mstore\n      0x20\n      add\n      and(0xff, 0x00)\n      dup2\n      mstore\n      pop\n      swap1\n      jump\n    tag_274:\n      dup2\n      mstore\n      0x20\n      add\n      swap1\n      0x01\n      swap1\n      sub\n      swap1\n      dup2\n      tag_273\n      jumpi\n      swap1\n      pop\n    tag_272:\n      pop\n        /* \"contracts/kk.sol\":6420:6491  LevelIncomeData[] memory incomeData = new LevelIncomeData[](totalCount) */\n      swap1\n      pop\n        /* \"contracts/kk.sol\":6502:6515  uint256 index */\n      0x00\n        /* \"contracts/kk.sol\":6537:6546  uint256 i */\n      dup1\n        /* \"contracts/kk.sol\":6532:7670  for (uint256 i = 0; i < allUsers.length; i++) {... */\n    tag_276:\n        /* \"contracts/kk.sol\":6556:6564  allUsers */\n      0x06\n        /* \"contracts/kk.sol\":6556:6571  allUsers.length */\n      sload\n        /* \"contracts/kk.sol\":6552:6571  i < allUsers.length */\n      dup2\n      lt\n        /* \"contracts/kk.sol\":6532:7670  for (uint256 i = 0; i < allUsers.length; i++) {... */\n      iszero\n      tag_277\n      jumpi\n        /* \"contracts/kk.sol\":6593:6607  address staker */\n      0x00\n        /* \"contracts/kk.sol\":6610:6618  allUsers */\n      0x06\n        /* \"contracts/kk.sol\":6619:6620  i */\n      dup3\n        /* \"contracts/kk.sol\":6610:6621  allUsers[i] */\n      dup2\n      sload\n      dup2\n      lt\n      tag_280\n      jumpi\n      tag_280\n      tag_127\n      jump\t// in\n    tag_280:\n      0x00\n      swap2\n      dup3\n      mstore\n      0x20\n      dup1\n      dup4\n      keccak256\n      swap1\n      swap2\n      add\n      sload\n      sub(shl(0xa0, 0x01), 0x01)\n      and\n        /* \"contracts/kk.sol\":6660:6673  users[staker] */\n      dup1\n      dup4\n      mstore\n        /* \"contracts/kk.sol\":6660:6665  users */\n      0x03\n        /* \"contracts/kk.sol\":6660:6673  users[staker] */\n      dup3\n      mstore\n      0x40\n      dup1\n      dup5\n      keccak256\n        /* \"contracts/kk.sol\":6610:6621  allUsers[i] */\n      0x01\n        /* \"contracts/kk.sol\":6660:6680  users[staker].stakes */\n      add\n        /* \"contracts/kk.sol\":6636:6680  Stake[] memory stakes = users[staker].stakes */\n      dup1\n      sload\n      dup3\n      mload\n      dup2\n      dup7\n      mul\n      dup2\n      add\n      dup7\n      add\n      swap1\n      swap4\n      mstore\n      dup1\n      dup4\n      mstore\n        /* \"contracts/kk.sol\":6610:6621  allUsers[i] */\n      swap3\n      swap6\n      pop\n        /* \"contracts/kk.sol\":6636:6680  Stake[] memory stakes = users[staker].stakes */\n      swap1\n      swap3\n        /* \"contracts/kk.sol\":6660:6680  users[staker].stakes */\n      swap1\n      swap2\n        /* \"contracts/kk.sol\":6636:6680  Stake[] memory stakes = users[staker].stakes */\n      swap1\n        /* \"contracts/kk.sol\":6610:6621  allUsers[i] */\n      dup5\n      swap1\n        /* \"contracts/kk.sol\":6636:6680  Stake[] memory stakes = users[staker].stakes */\n      dup5\n      add\n    tag_282:\n      dup3\n      dup3\n      lt\n      iszero\n      tag_283\n      jumpi\n      dup4\n      dup3\n      swap1\n      0x00\n      mstore\n      keccak256(0x00, 0x20)\n      swap1\n      0x04\n      mul\n      add\n      mload(0x40)\n      dup1\n      0x80\n      add\n      0x40\n      mstore\n      swap1\n      dup2\n      0x00\n      dup3\n      add\n      sload\n      dup2\n      mstore\n      0x20\n      add\n      0x01\n      dup3\n      add\n      sload\n      dup2\n      mstore\n      0x20\n      add\n      0x02\n      dup3\n      add\n      sload\n      dup2\n      mstore\n      0x20\n      add\n      0x03\n      dup3\n      add\n      sload\n      dup2\n      mstore\n      pop\n      pop\n      dup2\n      mstore\n      0x20\n      add\n      swap1\n      0x01\n      add\n      swap1\n      jump(tag_282)\n    tag_283:\n      pop\n      pop\n      pop\n      pop\n      sub(shl(0xa0, 0x01), 0x01)\n        /* \"contracts/kk.sol\":6712:6725  users[staker] */\n      dup4\n      dup2\n      and\n        /* \"contracts/kk.sol\":6695:6709  address upline */\n      0x00\n        /* \"contracts/kk.sol\":6712:6725  users[staker] */\n      swap1\n      dup2\n      mstore\n        /* \"contracts/kk.sol\":6712:6717  users */\n      0x03\n        /* \"contracts/kk.sol\":6712:6725  users[staker] */\n      0x20\n      mstore\n      0x40\n      dup2\n      keccak256\n        /* \"contracts/kk.sol\":6712:6734  users[staker].referrer */\n      sload\n        /* \"contracts/kk.sol\":6636:6680  Stake[] memory stakes = users[staker].stakes */\n      swap3\n      swap4\n      pop\n        /* \"contracts/kk.sol\":6712:6734  users[staker].referrer */\n      swap2\n      and\n      swap1\n        /* \"contracts/kk.sol\":6751:7659  for (uint8 level = 0; level < levelRewards.length && upline != address(0); level++) {... */\n    tag_285:\n        /* \"contracts/kk.sol\":6781:6793  levelRewards */\n      0x07\n        /* \"contracts/kk.sol\":6781:6800  levelRewards.length */\n      sload\n        /* \"contracts/kk.sol\":6773:6800  level < levelRewards.length */\n      0xff\n      dup3\n      and\n      lt\n        /* \"contracts/kk.sol\":6773:6824  level < levelRewards.length && upline != address(0) */\n      dup1\n      iszero\n      tag_288\n      jumpi\n      pop\n      sub(shl(0xa0, 0x01), 0x01)\n        /* \"contracts/kk.sol\":6804:6824  upline != address(0) */\n      dup3\n      and\n      iszero\n      iszero\n        /* \"contracts/kk.sol\":6773:6824  level < levelRewards.length && upline != address(0) */\n    tag_288:\n        /* \"contracts/kk.sol\":6751:7659  for (uint8 level = 0; level < levelRewards.length && upline != address(0); level++) {... */\n      iszero\n      tag_286\n      jumpi\n        /* \"contracts/kk.sol\":6868:6873  _user */\n      dup10\n      sub(shl(0xa0, 0x01), 0x01)\n        /* \"contracts/kk.sol\":6858:6873  upline == _user */\n      and\n        /* \"contracts/kk.sol\":6858:6864  upline */\n      dup3\n      sub(shl(0xa0, 0x01), 0x01)\n        /* \"contracts/kk.sol\":6858:6873  upline == _user */\n      and\n      sub\n        /* \"contracts/kk.sol\":6854:7594  if (upline == _user) {... */\n      tag_289\n      jumpi\n        /* \"contracts/kk.sol\":6903:6912  uint256 j */\n      0x00\n        /* \"contracts/kk.sol\":6898:7575  for (uint256 j = 0; j < stakes.length; j++) {... */\n    tag_290:\n        /* \"contracts/kk.sol\":6922:6928  stakes */\n      dup4\n        /* \"contracts/kk.sol\":6922:6935  stakes.length */\n      mload\n        /* \"contracts/kk.sol\":6918:6919  j */\n      dup2\n        /* \"contracts/kk.sol\":6918:6935  j < stakes.length */\n      lt\n        /* \"contracts/kk.sol\":6898:7575  for (uint256 j = 0; j < stakes.length; j++) {... */\n      iszero\n      tag_291\n      jumpi\n        /* \"contracts/kk.sol\":6969:6987  Stake memory stake */\n      0x00\n        /* \"contracts/kk.sol\":6990:6996  stakes */\n      dup5\n        /* \"contracts/kk.sol\":6997:6998  j */\n      dup3\n        /* \"contracts/kk.sol\":6990:6999  stakes[j] */\n      dup2\n      mload\n      dup2\n      lt\n      tag_294\n      jumpi\n      tag_294\n      tag_127\n      jump\t// in\n    tag_294:\n      0x20\n      mul\n      0x20\n      add\n      add\n      mload\n        /* \"contracts/kk.sol\":6969:6999  Stake memory stake = stakes[j] */\n      swap1\n      pop\n        /* \"contracts/kk.sol\":7026:7040  uint256 income */\n      0x00\n        /* \"contracts/kk.sol\":7082:7085  100 */\n      0x64\n        /* \"contracts/kk.sol\":7059:7071  levelRewards */\n      0x07\n        /* \"contracts/kk.sol\":7072:7077  level */\n      dup6\n        /* \"contracts/kk.sol\":7059:7078  levelRewards[level] */\n      0xff\n      and\n      dup2\n      sload\n      dup2\n      lt\n      tag_296\n      jumpi\n      tag_296\n      tag_127\n      jump\t// in\n    tag_296:\n      swap1\n      0x00\n      mstore\n      keccak256(0x00, 0x20)\n      swap1\n      0x20\n      swap2\n      dup3\n      dup3\n      div\n      add\n      swap2\n      swap1\n      mod\n      swap1\n      sload\n      swap1\n      0x0100\n      exp\n      swap1\n      div\n      0xff\n      and\n        /* \"contracts/kk.sol\":7044:7078  stake.amount * levelRewards[level] */\n      0xff\n      and\n        /* \"contracts/kk.sol\":7044:7049  stake */\n      dup4\n        /* \"contracts/kk.sol\":7044:7056  stake.amount */\n      0x40\n      add\n      mload\n        /* \"contracts/kk.sol\":7044:7078  stake.amount * levelRewards[level] */\n      tag_298\n      swap2\n      swap1\n      tag_226\n      jump\t// in\n    tag_298:\n        /* \"contracts/kk.sol\":7043:7085  (stake.amount * levelRewards[level]) / 100 */\n      tag_299\n      swap2\n      swap1\n      tag_228\n      jump\t// in\n    tag_299:\n        /* \"contracts/kk.sol\":7026:7085  uint256 income = (stake.amount * levelRewards[level]) / 100 */\n      swap1\n      pop\n        /* \"contracts/kk.sol\":7136:7551  LevelIncomeData({... */\n      mload(0x40)\n      dup1\n      0xe0\n      add\n      0x40\n      mstore\n      dup1\n        /* \"contracts/kk.sol\":7200:7205  _user */\n      dup15\n      sub(shl(0xa0, 0x01), 0x01)\n        /* \"contracts/kk.sol\":7136:7551  LevelIncomeData({... */\n      and\n      dup2\n      mstore\n      0x20\n      add\n        /* \"contracts/kk.sol\":7245:7250  stake */\n      dup4\n        /* \"contracts/kk.sol\":7245:7258  stake.stakeId */\n      0x00\n      add\n      mload\n        /* \"contracts/kk.sol\":7136:7551  LevelIncomeData({... */\n      dup2\n      mstore\n      0x20\n      add\n        /* \"contracts/kk.sol\":7302:7307  stake */\n      dup4\n        /* \"contracts/kk.sol\":7302:7314  stake.amount */\n      0x40\n      add\n      mload\n        /* \"contracts/kk.sol\":7136:7551  LevelIncomeData({... */\n      dup2\n      mstore\n      0x20\n      add\n        /* \"contracts/kk.sol\":7361:7367  income */\n      dup3\n        /* \"contracts/kk.sol\":7136:7551  LevelIncomeData({... */\n      dup2\n      mstore\n      0x20\n      add\n        /* \"contracts/kk.sol\":7413:7419  staker */\n      dup9\n      sub(shl(0xa0, 0x01), 0x01)\n        /* \"contracts/kk.sol\":7136:7551  LevelIncomeData({... */\n      and\n      dup2\n      mstore\n      0x20\n      add\n        /* \"contracts/kk.sol\":7461:7466  stake */\n      dup4\n        /* \"contracts/kk.sol\":7461:7476  stake.timestamp */\n      0x60\n      add\n      mload\n        /* \"contracts/kk.sol\":7136:7551  LevelIncomeData({... */\n      dup2\n      mstore\n      0x20\n      add\n        /* \"contracts/kk.sol\":7514:7519  level */\n      dup6\n        /* \"contracts/kk.sol\":7522:7523  1 */\n      0x01\n        /* \"contracts/kk.sol\":7514:7523  level + 1 */\n      tag_300\n      swap2\n      swap1\n      tag_301\n      jump\t// in\n    tag_300:\n        /* \"contracts/kk.sol\":7136:7551  LevelIncomeData({... */\n      0xff\n      and\n      swap1\n      mstore\n        /* \"contracts/kk.sol\":7114:7124  incomeData */\n      dup11\n        /* \"contracts/kk.sol\":7125:7132  index++ */\n      dup11\n      tag_302\n      dup2\n      tag_216\n      jump\t// in\n    tag_302:\n      swap12\n      pop\n        /* \"contracts/kk.sol\":7114:7133  incomeData[index++] */\n      dup2\n      mload\n      dup2\n      lt\n      tag_304\n      jumpi\n      tag_304\n      tag_127\n      jump\t// in\n    tag_304:\n      0x20\n      swap1\n      dup2\n      mul\n      swap2\n      swap1\n      swap2\n      add\n      add\n        /* \"contracts/kk.sol\":7114:7551  incomeData[index++] = LevelIncomeData({... */\n      mstore\n      pop\n      pop\n        /* \"contracts/kk.sol\":6937:6940  j++ */\n      0x01\n      add\n        /* \"contracts/kk.sol\":6898:7575  for (uint256 j = 0; j < stakes.length; j++) {... */\n      jump(tag_290)\n    tag_291:\n      pop\n        /* \"contracts/kk.sol\":6854:7594  if (upline == _user) {... */\n    tag_289:\n      sub(shl(0xa0, 0x01), 0x01)\n        /* \"contracts/kk.sol\":7621:7634  users[upline] */\n      swap2\n      dup3\n      and\n      0x00\n      swap1\n      dup2\n      mstore\n        /* \"contracts/kk.sol\":7621:7626  users */\n      0x03\n        /* \"contracts/kk.sol\":7621:7634  users[upline] */\n      0x20\n      mstore\n      0x40\n      swap1\n      keccak256\n        /* \"contracts/kk.sol\":7621:7643  users[upline].referrer */\n      sload\n      swap1\n      swap2\n      and\n      swap1\n        /* \"contracts/kk.sol\":6826:6833  level++ */\n      dup1\n      tag_305\n      dup2\n      tag_248\n      jump\t// in\n    tag_305:\n      swap2\n      pop\n      pop\n        /* \"contracts/kk.sol\":6751:7659  for (uint8 level = 0; level < levelRewards.length && upline != address(0); level++) {... */\n      jump(tag_285)\n    tag_286:\n      pop\n      pop\n        /* \"contracts/kk.sol\":6573:6576  i++ */\n      0x01\n      swap1\n      swap3\n      add\n      swap2\n      pop\n        /* \"contracts/kk.sol\":6532:7670  for (uint256 i = 0; i < allUsers.length; i++) {... */\n      tag_276\n      swap1\n      pop\n      jump\n    tag_277:\n      pop\n        /* \"contracts/kk.sol\":7689:7699  incomeData */\n      swap1\n      swap5\n        /* \"contracts/kk.sol\":5773:7707  function getLevelIncomeDistribution(address _user) external view returns (LevelIncomeData[] memory) {... */\n      swap4\n      pop\n      pop\n      pop\n      pop\n      jump\t// out\n        /* \"#utility.yul\":14:187   */\n    tag_306:\n        /* \"#utility.yul\":82:102   */\n      dup1\n      calldataload\n      sub(shl(0xa0, 0x01), 0x01)\n        /* \"#utility.yul\":131:162   */\n      dup2\n      and\n        /* \"#utility.yul\":121:163   */\n      dup2\n      eq\n        /* \"#utility.yul\":111:181   */\n      tag_311\n      jumpi\n        /* \"#utility.yul\":177:178   */\n      0x00\n        /* \"#utility.yul\":174:175   */\n      dup1\n        /* \"#utility.yul\":167:179   */\n      revert\n        /* \"#utility.yul\":111:181   */\n    tag_311:\n        /* \"#utility.yul\":14:187   */\n      swap2\n      swap1\n      pop\n      jump\t// out\n        /* \"#utility.yul\":192:446   */\n    tag_28:\n        /* \"#utility.yul\":260:266   */\n      0x00\n        /* \"#utility.yul\":268:274   */\n      dup1\n        /* \"#utility.yul\":321:323   */\n      0x40\n        /* \"#utility.yul\":309:318   */\n      dup4\n        /* \"#utility.yul\":300:307   */\n      dup6\n        /* \"#utility.yul\":296:319   */\n      sub\n        /* \"#utility.yul\":292:324   */\n      slt\n        /* \"#utility.yul\":289:341   */\n      iszero\n      tag_313\n      jumpi\n        /* \"#utility.yul\":337:338   */\n      0x00\n        /* \"#utility.yul\":334:335   */\n      dup1\n        /* \"#utility.yul\":327:339   */\n      revert\n        /* \"#utility.yul\":289:341   */\n    tag_313:\n        /* \"#utility.yul\":360:389   */\n      tag_314\n        /* \"#utility.yul\":379:388   */\n      dup4\n        /* \"#utility.yul\":360:389   */\n      tag_306\n      jump\t// in\n    tag_314:\n        /* \"#utility.yul\":350:389   */\n      swap5\n        /* \"#utility.yul\":436:438   */\n      0x20\n        /* \"#utility.yul\":421:439   */\n      swap4\n      swap1\n      swap4\n      add\n        /* \"#utility.yul\":408:440   */\n      calldataload\n      swap4\n      pop\n      pop\n      pop\n        /* \"#utility.yul\":192:446   */\n      jump\t// out\n        /* \"#utility.yul\":801:981   */\n    tag_34:\n        /* \"#utility.yul\":860:866   */\n      0x00\n        /* \"#utility.yul\":913:915   */\n      0x20\n        /* \"#utility.yul\":901:910   */\n      dup3\n        /* \"#utility.yul\":892:899   */\n      dup5\n        /* \"#utility.yul\":888:911   */\n      sub\n        /* \"#utility.yul\":884:916   */\n      slt\n        /* \"#utility.yul\":881:933   */\n      iszero\n      tag_317\n      jumpi\n        /* \"#utility.yul\":929:930   */\n      0x00\n        /* \"#utility.yul\":926:927   */\n      dup1\n        /* \"#utility.yul\":919:931   */\n      revert\n        /* \"#utility.yul\":881:933   */\n    tag_317:\n      pop\n        /* \"#utility.yul\":952:975   */\n      calldataload\n      swap2\n        /* \"#utility.yul\":801:981   */\n      swap1\n      pop\n      jump\t// out\n        /* \"#utility.yul\":1194:1380   */\n    tag_40:\n        /* \"#utility.yul\":1253:1259   */\n      0x00\n        /* \"#utility.yul\":1306:1308   */\n      0x20\n        /* \"#utility.yul\":1294:1303   */\n      dup3\n        /* \"#utility.yul\":1285:1292   */\n      dup5\n        /* \"#utility.yul\":1281:1304   */\n      sub\n        /* \"#utility.yul\":1277:1309   */\n      slt\n        /* \"#utility.yul\":1274:1326   */\n      iszero\n      tag_320\n      jumpi\n        /* \"#utility.yul\":1322:1323   */\n      0x00\n        /* \"#utility.yul\":1319:1320   */\n      dup1\n        /* \"#utility.yul\":1312:1324   */\n      revert\n        /* \"#utility.yul\":1274:1326   */\n    tag_320:\n        /* \"#utility.yul\":1345:1374   */\n      tag_321\n        /* \"#utility.yul\":1364:1373   */\n      dup3\n        /* \"#utility.yul\":1345:1374   */\n      tag_306\n      jump\t// in\n    tag_321:\n        /* \"#utility.yul\":1335:1374   */\n      swap4\n        /* \"#utility.yul\":1194:1380   */\n      swap3\n      pop\n      pop\n      pop\n      jump\t// out\n        /* \"#utility.yul\":1574:2013   */\n    tag_307:\n        /* \"#utility.yul\":1627:1630   */\n      0x00\n        /* \"#utility.yul\":1665:1670   */\n      dup2\n        /* \"#utility.yul\":1659:1671   */\n      mload\n        /* \"#utility.yul\":1692:1698   */\n      dup1\n        /* \"#utility.yul\":1687:1690   */\n      dup5\n        /* \"#utility.yul\":1680:1699   */\n      mstore\n        /* \"#utility.yul\":1718:1722   */\n      0x20\n        /* \"#utility.yul\":1747:1751   */\n      dup1\n        /* \"#utility.yul\":1742:1745   */\n      dup6\n        /* \"#utility.yul\":1738:1752   */\n      add\n        /* \"#utility.yul\":1731:1752   */\n      swap5\n      pop\n        /* \"#utility.yul\":1786:1790   */\n      0x20\n        /* \"#utility.yul\":1779:1784   */\n      dup5\n        /* \"#utility.yul\":1775:1791   */\n      add\n        /* \"#utility.yul\":1809:1810   */\n      0x00\n        /* \"#utility.yul\":1819:1988   */\n    tag_324:\n        /* \"#utility.yul\":1833:1839   */\n      dup4\n        /* \"#utility.yul\":1830:1831   */\n      dup2\n        /* \"#utility.yul\":1827:1840   */\n      lt\n        /* \"#utility.yul\":1819:1988   */\n      iszero\n      tag_326\n      jumpi\n        /* \"#utility.yul\":1894:1907   */\n      dup2\n      mload\n        /* \"#utility.yul\":1882:1908   */\n      dup8\n      mstore\n        /* \"#utility.yul\":1928:1940   */\n      swap6\n      dup3\n      add\n      swap6\n        /* \"#utility.yul\":1963:1978   */\n      swap1\n      dup3\n      add\n      swap1\n        /* \"#utility.yul\":1855:1856   */\n      0x01\n        /* \"#utility.yul\":1848:1857   */\n      add\n        /* \"#utility.yul\":1819:1988   */\n      jump(tag_324)\n    tag_326:\n      pop\n        /* \"#utility.yul\":2004:2007   */\n      swap5\n      swap6\n        /* \"#utility.yul\":1574:2013   */\n      swap5\n      pop\n      pop\n      pop\n      pop\n      pop\n      jump\t// out\n        /* \"#utility.yul\":2018:2279   */\n    tag_48:\n        /* \"#utility.yul\":2197:2199   */\n      0x20\n        /* \"#utility.yul\":2186:2195   */\n      dup2\n        /* \"#utility.yul\":2179:2200   */\n      mstore\n        /* \"#utility.yul\":2160:2164   */\n      0x00\n        /* \"#utility.yul\":2217:2273   */\n      tag_321\n        /* \"#utility.yul\":2269:2271   */\n      0x20\n        /* \"#utility.yul\":2258:2267   */\n      dup4\n        /* \"#utility.yul\":2254:2272   */\n      add\n        /* \"#utility.yul\":2246:2252   */\n      dup5\n        /* \"#utility.yul\":2217:2273   */\n      tag_307\n      jump\t// in\n        /* \"#utility.yul\":2888:3929   */\n    tag_75:\n        /* \"#utility.yul\":3234:3236   */\n      0x60\n        /* \"#utility.yul\":3246:3267   */\n      dup1\n      dup3\n      mstore\n        /* \"#utility.yul\":3316:3329   */\n      dup5\n      mload\n        /* \"#utility.yul\":3219:3237   */\n      swap1\n      dup3\n      add\n        /* \"#utility.yul\":3338:3360   */\n      dup2\n      swap1\n      mstore\n        /* \"#utility.yul\":3186:3190   */\n      0x00\n      swap1\n        /* \"#utility.yul\":3414:3418   */\n      0x20\n      swap1\n        /* \"#utility.yul\":3391:3394   */\n      0x80\n        /* \"#utility.yul\":3376:3395   */\n      dup5\n      add\n      swap1\n        /* \"#utility.yul\":3441:3458   */\n      dup3\n      dup9\n      add\n        /* \"#utility.yul\":3186:3190   */\n      dup5\n        /* \"#utility.yul\":3486:3681   */\n    tag_332:\n        /* \"#utility.yul\":3500:3506   */\n      dup3\n        /* \"#utility.yul\":3497:3498   */\n      dup2\n        /* \"#utility.yul\":3494:3507   */\n      lt\n        /* \"#utility.yul\":3486:3681   */\n      iszero\n      tag_334\n      jumpi\n        /* \"#utility.yul\":3565:3578   */\n      dup2\n      mload\n      sub(shl(0xa0, 0x01), 0x01)\n        /* \"#utility.yul\":3561:3600   */\n      and\n        /* \"#utility.yul\":3549:3601   */\n      dup5\n      mstore\n        /* \"#utility.yul\":3621:3633   */\n      swap3\n      dup5\n      add\n      swap3\n        /* \"#utility.yul\":3656:3671   */\n      swap1\n      dup5\n      add\n      swap1\n        /* \"#utility.yul\":3597:3598   */\n      0x01\n        /* \"#utility.yul\":3515:3524   */\n      add\n        /* \"#utility.yul\":3486:3681   */\n      jump(tag_332)\n    tag_334:\n        /* \"#utility.yul\":3490:3493   */\n      pop\n      pop\n      pop\n        /* \"#utility.yul\":3728:3737   */\n      dup4\n        /* \"#utility.yul\":3723:3726   */\n      dup2\n        /* \"#utility.yul\":3719:3738   */\n      sub\n        /* \"#utility.yul\":3712:3716   */\n      0x20\n        /* \"#utility.yul\":3701:3710   */\n      dup6\n        /* \"#utility.yul\":3697:3717   */\n      add\n        /* \"#utility.yul\":3690:3739   */\n      mstore\n        /* \"#utility.yul\":3762:3803   */\n      tag_335\n        /* \"#utility.yul\":3799:3802   */\n      dup2\n        /* \"#utility.yul\":3791:3797   */\n      dup8\n        /* \"#utility.yul\":3762:3803   */\n      tag_307\n      jump\t// in\n    tag_335:\n        /* \"#utility.yul\":3748:3803   */\n      swap2\n      pop\n      pop\n        /* \"#utility.yul\":3851:3860   */\n      dup3\n        /* \"#utility.yul\":3843:3849   */\n      dup2\n        /* \"#utility.yul\":3839:3861   */\n      sub\n        /* \"#utility.yul\":3834:3836   */\n      0x40\n        /* \"#utility.yul\":3823:3832   */\n      dup5\n        /* \"#utility.yul\":3819:3837   */\n      add\n        /* \"#utility.yul\":3812:3862   */\n      mstore\n        /* \"#utility.yul\":3879:3923   */\n      tag_336\n        /* \"#utility.yul\":3916:3922   */\n      dup2\n        /* \"#utility.yul\":3908:3914   */\n      dup6\n        /* \"#utility.yul\":3879:3923   */\n      tag_307\n      jump\t// in\n    tag_336:\n        /* \"#utility.yul\":3871:3923   */\n      swap7\n        /* \"#utility.yul\":2888:3929   */\n      swap6\n      pop\n      pop\n      pop\n      pop\n      pop\n      pop\n      jump\t// out\n        /* \"#utility.yul\":4155:5401   */\n    tag_107:\n        /* \"#utility.yul\":4388:4390   */\n      0x20\n        /* \"#utility.yul\":4440:4461   */\n      dup1\n      dup3\n      mstore\n        /* \"#utility.yul\":4510:4523   */\n      dup3\n      mload\n        /* \"#utility.yul\":4413:4431   */\n      dup3\n      dup3\n      add\n        /* \"#utility.yul\":4532:4554   */\n      dup2\n      swap1\n      mstore\n        /* \"#utility.yul\":4359:4363   */\n      0x00\n      swap2\n        /* \"#utility.yul\":4388:4390   */\n      swap1\n        /* \"#utility.yul\":4573:4575   */\n      0x40\n      swap1\n        /* \"#utility.yul\":4591:4609   */\n      dup2\n      dup6\n      add\n      swap1\n        /* \"#utility.yul\":4632:4647   */\n      dup7\n      dup5\n      add\n        /* \"#utility.yul\":4359:4363   */\n      dup6\n        /* \"#utility.yul\":4675:5375   */\n    tag_339:\n        /* \"#utility.yul\":4689:4695   */\n      dup3\n        /* \"#utility.yul\":4686:4687   */\n      dup2\n        /* \"#utility.yul\":4683:4696   */\n      lt\n        /* \"#utility.yul\":4675:5375   */\n      iszero\n      tag_341\n      jumpi\n        /* \"#utility.yul\":4748:4761   */\n      dup2\n      mload\n        /* \"#utility.yul\":4832:4841   */\n      dup1\n      mload\n      sub(shl(0xa0, 0x01), 0x01)\n        /* \"#utility.yul\":4828:4846   */\n      swap1\n      dup2\n      and\n        /* \"#utility.yul\":4816:4847   */\n      dup7\n      mstore\n        /* \"#utility.yul\":4887:4898   */\n      dup8\n      dup3\n      add\n        /* \"#utility.yul\":4881:4899   */\n      mload\n        /* \"#utility.yul\":4867:4879   */\n      dup9\n      dup8\n      add\n        /* \"#utility.yul\":4860:4900   */\n      mstore\n        /* \"#utility.yul\":4940:4951   */\n      dup7\n      dup3\n      add\n        /* \"#utility.yul\":4934:4952   */\n      mload\n        /* \"#utility.yul\":4920:4932   */\n      dup8\n      dup8\n      add\n        /* \"#utility.yul\":4913:4953   */\n      mstore\n        /* \"#utility.yul\":4976:4980   */\n      0x60\n        /* \"#utility.yul\":5020:5031   */\n      dup1\n      dup4\n      add\n        /* \"#utility.yul\":5014:5032   */\n      mload\n        /* \"#utility.yul\":5000:5012   */\n      swap1\n      dup8\n      add\n        /* \"#utility.yul\":4993:5033   */\n      mstore\n        /* \"#utility.yul\":5056:5060   */\n      0x80\n        /* \"#utility.yul\":5104:5115   */\n      dup1\n      dup4\n      add\n        /* \"#utility.yul\":5098:5116   */\n      mload\n        /* \"#utility.yul\":5094:5121   */\n      swap1\n      swap2\n      and\n        /* \"#utility.yul\":5080:5092   */\n      swap1\n      dup7\n      add\n        /* \"#utility.yul\":5073:5122   */\n      mstore\n        /* \"#utility.yul\":4792:4795   */\n      0xa0\n        /* \"#utility.yul\":5189:5200   */\n      dup1\n      dup3\n      add\n        /* \"#utility.yul\":5183:5201   */\n      mload\n        /* \"#utility.yul\":5169:5181   */\n      swap1\n      dup7\n      add\n        /* \"#utility.yul\":5162:5202   */\n      mstore\n        /* \"#utility.yul\":5225:5229   */\n      0xc0\n        /* \"#utility.yul\":5273:5284   */\n      swap1\n      dup2\n      add\n        /* \"#utility.yul\":5267:5285   */\n      mload\n        /* \"#utility.yul\":5287:5291   */\n      0xff\n        /* \"#utility.yul\":5263:5292   */\n      and\n        /* \"#utility.yul\":5249:5261   */\n      swap1\n      dup6\n      add\n        /* \"#utility.yul\":5242:5293   */\n      mstore\n        /* \"#utility.yul\":5322:5326   */\n      0xe0\n        /* \"#utility.yul\":5313:5327   */\n      swap1\n      swap4\n      add\n      swap3\n        /* \"#utility.yul\":5350:5365   */\n      swap1\n      dup6\n      add\n      swap1\n        /* \"#utility.yul\":4801:4802   */\n      0x01\n        /* \"#utility.yul\":4704:4713   */\n      add\n        /* \"#utility.yul\":4675:5375   */\n      jump(tag_339)\n    tag_341:\n      pop\n        /* \"#utility.yul\":5392:5395   */\n      swap2\n      swap8\n        /* \"#utility.yul\":4155:5401   */\n      swap7\n      pop\n      pop\n      pop\n      pop\n      pop\n      pop\n      pop\n      jump\t// out\n        /* \"#utility.yul\":5406:5533   */\n    tag_120:\n        /* \"#utility.yul\":5467:5477   */\n      0x4e487b71\n        /* \"#utility.yul\":5462:5465   */\n      0xe0\n        /* \"#utility.yul\":5458:5478   */\n      shl\n        /* \"#utility.yul\":5455:5456   */\n      0x00\n        /* \"#utility.yul\":5448:5479   */\n      mstore\n        /* \"#utility.yul\":5498:5502   */\n      0x41\n        /* \"#utility.yul\":5495:5496   */\n      0x04\n        /* \"#utility.yul\":5488:5503   */\n      mstore\n        /* \"#utility.yul\":5522:5526   */\n      0x24\n        /* \"#utility.yul\":5519:5520   */\n      0x00\n        /* \"#utility.yul\":5512:5527   */\n      revert\n        /* \"#utility.yul\":5538:5665   */\n    tag_127:\n        /* \"#utility.yul\":5599:5609   */\n      0x4e487b71\n        /* \"#utility.yul\":5594:5597   */\n      0xe0\n        /* \"#utility.yul\":5590:5610   */\n      shl\n        /* \"#utility.yul\":5587:5588   */\n      0x00\n        /* \"#utility.yul\":5580:5611   */\n      mstore\n        /* \"#utility.yul\":5630:5634   */\n      0x32\n        /* \"#utility.yul\":5627:5628   */\n      0x04\n        /* \"#utility.yul\":5620:5635   */\n      mstore\n        /* \"#utility.yul\":5654:5658   */\n      0x24\n        /* \"#utility.yul\":5651:5652   */\n      0x00\n        /* \"#utility.yul\":5644:5659   */\n      revert\n        /* \"#utility.yul\":6301:6578   */\n    tag_140:\n        /* \"#utility.yul\":6368:6374   */\n      0x00\n        /* \"#utility.yul\":6421:6423   */\n      0x20\n        /* \"#utility.yul\":6409:6418   */\n      dup3\n        /* \"#utility.yul\":6400:6407   */\n      dup5\n        /* \"#utility.yul\":6396:6419   */\n      sub\n        /* \"#utility.yul\":6392:6424   */\n      slt\n        /* \"#utility.yul\":6389:6441   */\n      iszero\n      tag_347\n      jumpi\n        /* \"#utility.yul\":6437:6438   */\n      0x00\n        /* \"#utility.yul\":6434:6435   */\n      dup1\n        /* \"#utility.yul\":6427:6439   */\n      revert\n        /* \"#utility.yul\":6389:6441   */\n    tag_347:\n        /* \"#utility.yul\":6469:6478   */\n      dup2\n        /* \"#utility.yul\":6463:6479   */\n      mload\n        /* \"#utility.yul\":6522:6527   */\n      dup1\n        /* \"#utility.yul\":6515:6528   */\n      iszero\n        /* \"#utility.yul\":6508:6529   */\n      iszero\n        /* \"#utility.yul\":6501:6506   */\n      dup2\n        /* \"#utility.yul\":6498:6530   */\n      eq\n        /* \"#utility.yul\":6488:6548   */\n      tag_321\n      jumpi\n        /* \"#utility.yul\":6544:6545   */\n      0x00\n        /* \"#utility.yul\":6541:6542   */\n      dup1\n        /* \"#utility.yul\":6534:6546   */\n      revert\n        /* \"#utility.yul\":9060:9187   */\n    tag_308:\n        /* \"#utility.yul\":9121:9131   */\n      0x4e487b71\n        /* \"#utility.yul\":9116:9119   */\n      0xe0\n        /* \"#utility.yul\":9112:9132   */\n      shl\n        /* \"#utility.yul\":9109:9110   */\n      0x00\n        /* \"#utility.yul\":9102:9133   */\n      mstore\n        /* \"#utility.yul\":9152:9156   */\n      0x11\n        /* \"#utility.yul\":9149:9150   */\n      0x04\n        /* \"#utility.yul\":9142:9157   */\n      mstore\n        /* \"#utility.yul\":9176:9180   */\n      0x24\n        /* \"#utility.yul\":9173:9174   */\n      0x00\n        /* \"#utility.yul\":9166:9181   */\n      revert\n        /* \"#utility.yul\":9192:9327   */\n    tag_216:\n        /* \"#utility.yul\":9231:9234   */\n      0x00\n        /* \"#utility.yul\":9252:9269   */\n      0x01\n      dup3\n      add\n        /* \"#utility.yul\":9249:9292   */\n      tag_359\n      jumpi\n        /* \"#utility.yul\":9272:9290   */\n      tag_359\n      tag_308\n      jump\t// in\n    tag_359:\n      pop\n        /* \"#utility.yul\":9319:9320   */\n      0x01\n        /* \"#utility.yul\":9308:9321   */\n      add\n      swap1\n        /* \"#utility.yul\":9192:9327   */\n      jump\t// out\n        /* \"#utility.yul\":9332:9500   */\n    tag_226:\n        /* \"#utility.yul\":9405:9414   */\n      dup1\n      dup3\n      mul\n        /* \"#utility.yul\":9436:9445   */\n      dup2\n      iszero\n        /* \"#utility.yul\":9453:9468   */\n      dup3\n      dup3\n      div\n        /* \"#utility.yul\":9447:9469   */\n      dup5\n      eq\n        /* \"#utility.yul\":9433:9470   */\n      or\n        /* \"#utility.yul\":9423:9494   */\n      tag_362\n      jumpi\n        /* \"#utility.yul\":9474:9492   */\n      tag_362\n      tag_308\n      jump\t// in\n    tag_362:\n        /* \"#utility.yul\":9332:9500   */\n      swap3\n      swap2\n      pop\n      pop\n      jump\t// out\n        /* \"#utility.yul\":9505:9722   */\n    tag_228:\n        /* \"#utility.yul\":9545:9546   */\n      0x00\n        /* \"#utility.yul\":9571:9572   */\n      dup3\n        /* \"#utility.yul\":9561:9693   */\n      tag_364\n      jumpi\n        /* \"#utility.yul\":9615:9625   */\n      0x4e487b71\n        /* \"#utility.yul\":9610:9613   */\n      0xe0\n        /* \"#utility.yul\":9606:9626   */\n      shl\n        /* \"#utility.yul\":9603:9604   */\n      0x00\n        /* \"#utility.yul\":9596:9627   */\n      mstore\n        /* \"#utility.yul\":9650:9654   */\n      0x12\n        /* \"#utility.yul\":9647:9648   */\n      0x04\n        /* \"#utility.yul\":9640:9655   */\n      mstore\n        /* \"#utility.yul\":9678:9682   */\n      0x24\n        /* \"#utility.yul\":9675:9676   */\n      0x00\n        /* \"#utility.yul\":9668:9683   */\n      revert\n        /* \"#utility.yul\":9561:9693   */\n    tag_364:\n      pop\n        /* \"#utility.yul\":9707:9716   */\n      div\n      swap1\n        /* \"#utility.yul\":9505:9722   */\n      jump\t// out\n        /* \"#utility.yul\":9727:9852   */\n    tag_234:\n        /* \"#utility.yul\":9792:9801   */\n      dup1\n      dup3\n      add\n        /* \"#utility.yul\":9813:9823   */\n      dup1\n      dup3\n      gt\n        /* \"#utility.yul\":9810:9846   */\n      iszero\n      tag_362\n      jumpi\n        /* \"#utility.yul\":9826:9844   */\n      tag_362\n      tag_308\n      jump\t// in\n        /* \"#utility.yul\":9857:10032   */\n    tag_248:\n        /* \"#utility.yul\":9894:9897   */\n      0x00\n        /* \"#utility.yul\":9938:9942   */\n      0xff\n        /* \"#utility.yul\":9931:9936   */\n      dup3\n        /* \"#utility.yul\":9927:9943   */\n      and\n        /* \"#utility.yul\":9967:9971   */\n      0xff\n        /* \"#utility.yul\":9958:9965   */\n      dup2\n        /* \"#utility.yul\":9955:9972   */\n      sub\n        /* \"#utility.yul\":9952:9995   */\n      tag_370\n      jumpi\n        /* \"#utility.yul\":9975:9993   */\n      tag_370\n      tag_308\n      jump\t// in\n    tag_370:\n        /* \"#utility.yul\":10024:10025   */\n      0x01\n        /* \"#utility.yul\":10011:10026   */\n      add\n      swap3\n        /* \"#utility.yul\":9857:10032   */\n      swap2\n      pop\n      pop\n      jump\t// out\n        /* \"#utility.yul\":10037:10185   */\n    tag_301:\n        /* \"#utility.yul\":10125:10129   */\n      0xff\n        /* \"#utility.yul\":10104:10116   */\n      dup2\n      dup2\n      and\n        /* \"#utility.yul\":10118:10130   */\n      dup4\n      dup3\n      and\n        /* \"#utility.yul\":10100:10131   */\n      add\n      swap1\n        /* \"#utility.yul\":10143:10156   */\n      dup2\n      gt\n        /* \"#utility.yul\":10140:10179   */\n      iszero\n      tag_362\n      jumpi\n        /* \"#utility.yul\":10159:10177   */\n      tag_362\n      tag_308\n      jump\t// in\n\n    auxdata: 0xa2646970667358221220cbe04389eb2c5085f39b1e5729fa325094bef61581ee0905c5ffa1361ceda5ea64736f6c63430008190033\n}\n",
				"bytecode": {
					"linkReferences": {},
					"object": "60e060405260056080908152600360a0819052600260c05261002391600791610080565b5034801561002f575f80fd5b5060405161186138038061186183398101604081905261004e91610135565b5f8054336001600160a01b031991821617909155600280549091166001600160a01b0392909216919091179055610162565b828054828255905f5260205f2090601f01602090048101928215610111579160200282015f5b838211156100e357835183826101000a81548160ff021916908360ff16021790555092602001926001016020815f010492830192600103026100a6565b801561010f5782816101000a81549060ff02191690556001016020815f010492830192600103026100e3565b505b5061011d929150610121565b5090565b5b8082111561011d575f8155600101610122565b5f60208284031215610145575f80fd5b81516001600160a01b038116811461015b575f80fd5b9392505050565b6116f28061016f5f395ff3fe608060405234801561000f575f80fd5b5060043610610127575f3560e01c80639d747bad116100a9578063c2d3c6771161006e578063c2d3c67714610336578063c5b89c0a14610361578063e45a57d01461038d578063ef71ae56146103a0578063f7b17d10146103c0575f80fd5b80639d747bad146102a2578063a2bdedf4146102c4578063a694fc3a146102d7578063a87430ba146102ea578063a98ad46c14610323575f80fd5b80634420e486116100ef5780634420e48614610202578063797c7f5f146102155780638da5cb5b1461025257806398278efb146102645780639be572f61461029a575f80fd5b806305ad39351461012b5780631e43eb271461016857806321923bde146101a857806328fe7031146101cd5780633ea521ef146101ed575b5f80fd5b61013e610139366004611411565b6103c9565b604080516001600160a01b0390941684526020840192909252908201526060015b60405180910390f35b610190610176366004611439565b60056020525f90815260409020546001600160a01b031681565b6040516001600160a01b03909116815260200161015f565b6101bb6101b6366004611450565b610411565b60405160ff909116815260200161015f565b6101e06101db366004611450565b610464565b60405161015f91906114aa565b6102006101fb366004611439565b61053a565b005b610200610210366004611450565b610611565b610228610223366004611439565b61077b565b604080516001600160a01b039095168552602085019390935291830152606082015260800161015f565b5f54610190906001600160a01b031681565b61028c610272366004611450565b6001600160a01b03165f9081526004602052604090205490565b60405190815260200161015f565b60065461028c565b6102b56102b0366004611450565b610952565b60405161015f939291906114bc565b6101906102d2366004611439565b610b3f565b6102006102e5366004611439565b610b67565b61013e6102f8366004611450565b600360208190525f91825260409091208054600282015491909201546001600160a01b039092169183565b600254610190906001600160a01b031681565b61028c610344366004611450565b6001600160a01b03165f9081526003602052604090206002015490565b61028c61036f366004611450565b6001600160a01b03165f908152600360208190526040909120015490565b6101bb61039b366004611439565b610f4e565b6103b36103ae366004611450565b610f7f565b60405161015f9190611531565b61028c60015481565b6004602052815f5260405f2081815481106103e2575f80fd5b5f9182526020909120600390910201805460018201546002909201546001600160a01b03909116935090915083565b6001600160a01b0381165f90815260046020526040812054600a811061043a5750600392915050565b6005811061044b5750600292915050565b6001811061045c5750600192915050565b505f92915050565b6001600160a01b0381165f908152600360205260408120600101546060918167ffffffffffffffff81111561049b5761049b6115c3565b6040519080825280602002602001820160405280156104c4578160200160208202803683370190505b5090505f5b82811015610532576001600160a01b0385165f9081526003602052604090206001018054829081106104fd576104fd6115d7565b905f5260205f2090600402016001015482828151811061051f5761051f6115d7565b60209081029190910101526001016104c9565b509392505050565b5f546001600160a01b031633146105985760405162461bcd60e51b815260206004820152601760248201527f4f6e6c79206f776e65722063616e20776974686472617700000000000000000060448201526064015b60405180910390fd5b6002545f5460405163a9059cbb60e01b81526001600160a01b0391821660048201526024810184905291169063a9059cbb906044016020604051808303815f875af11580156105e9573d5f803e3d5ffd5b505050506040513d601f19601f8201168201806040525081019061060d91906115eb565b5050565b335f908152600360205260409020546001600160a01b03161561066b5760405162461bcd60e51b8152602060048201526012602482015271105b1c9958591e481c9959da5cdd195c995960721b604482015260640161058f565b336001600160a01b038216036106bb5760405162461bcd60e51b815260206004820152601560248201527421b0b73737ba103932b332b9103cb7bab939b2b63360591b604482015260640161058f565b335f81815260036020818152604080842080546001600160a01b039788166001600160a01b031991821681179092556006805460018181019092557ff652222313e28459528d920b65115c16c04f3efc82aaedc97be59f3f377c0d3f0180548316891790559186526004845282862083516060810185529788528785018781524294890194855281548085018355918852949096209651959094029095018054949096169390921692909217845590519183019190915551600290910155565b5f818152600560205260408120548190819081906001600160a01b0316806107da5760405162461bcd60e51b8152602060048201526012602482015271125b9d985b1a59081c1bdcda5d1a5bdb925960721b604482015260640161058f565b6001600160a01b0381165f90815260036020908152604080832060010180548251818502810185019093528083529192909190849084015b82821015610869578382905f5260205f2090600402016040518060800160405290815f8201548152602001600182015481526020016002820154815260200160038201548152505081526020019060010190610812565b5050505090505f5b8151811015610910578782828151811061088d5761088d6115d7565b6020026020010151602001510361090857828282815181106108b1576108b16115d7565b60200260200101515f01518383815181106108ce576108ce6115d7565b6020026020010151604001518484815181106108ec576108ec6115d7565b602002602001015160600151965096509650965050505061094b565b600101610871565b5060405162461bcd60e51b815260206004820152600f60248201526e14dd185ad9481b9bdd08199bdd5b99608a1b604482015260640161058f565b9193509193565b6001600160a01b0381165f908152600460205260409020805460609182918291908067ffffffffffffffff81111561098c5761098c6115c3565b6040519080825280602002602001820160405280156109b5578160200160208202803683370190505b5094508067ffffffffffffffff8111156109d1576109d16115c3565b6040519080825280602002602001820160405280156109fa578160200160208202803683370190505b5093508067ffffffffffffffff811115610a1657610a166115c3565b604051908082528060200260200182016040528015610a3f578160200160208202803683370190505b5092505f5b81811015610b3557828181548110610a5e57610a5e6115d7565b5f91825260209091206003909102015486516001600160a01b0390911690879083908110610a8e57610a8e6115d7565b60200260200101906001600160a01b031690816001600160a01b031681525050828181548110610ac057610ac06115d7565b905f5260205f20906003020160010154858281518110610ae257610ae26115d7565b602002602001018181525050828181548110610b0057610b006115d7565b905f5260205f20906003020160020154848281518110610b2257610b226115d7565b6020908102919091010152600101610a44565b5050509193909250565b60068181548110610b4e575f80fd5b5f918252602090912001546001600160a01b0316905081565b5f8111610bb65760405162461bcd60e51b815260206004820152601c60248201527f5374616b65206d7573742062652067726561746572207468616e203000000000604482015260640161058f565b335f908152600360205260409020546001600160a01b0316610c1a5760405162461bcd60e51b815260206004820152601760248201527f55736572206d7573742062652072656769737465726564000000000000000000604482015260640161058f565b6002546040516323b872dd60e01b8152336004820152306024820152604481018390526001600160a01b03909116906323b872dd906064016020604051808303815f875af1158015610c6e573d5f803e3d5ffd5b505050506040513d601f19601f82011682018060405250810190610c9291906115eb565b505f60015f8154610ca29061161e565b9182905550335f81815260036020818152604080842081516080810183526001805482528185018981528285018c8152426060850190815283860180548086018255908b52888b20955160049091029095019485559151928401929092559051600283015551908501558685526005835290842080546001600160a01b031916861790559383525290549192506001600160a01b03909116905b60075460ff8216108015610d5857506001600160a01b03821615155b15610f48575f606460078360ff1681548110610d7657610d766115d7565b5f91825260209182902091810490910154610d9d91601f166101000a900460ff1687611636565b610da79190611653565b60025460405163a9059cbb60e01b81526001600160a01b0386811660048301526024820184905292935091169063a9059cbb906044016020604051808303815f875af1158015610df9573d5f803e3d5ffd5b505050506040513d601f19601f82011682018060405250810190610e1d91906115eb565b506001600160a01b0383165f9081526003602052604081206002018054839290610e48908490611672565b90915550506001600160a01b0383165f9081526003602081905260408220018054839290610e77908490611672565b90915550506001600160a01b0383165f908152600460205260408120905b8154811015610f1657336001600160a01b0316828281548110610eba57610eba6115d7565b5f9182526020909120600390910201546001600160a01b031603610f0e5782828281548110610eeb57610eeb6115d7565b905f5260205f2090600302016001015f828254610f089190611672565b90915550505b600101610e95565b5050506001600160a01b039182165f908152600360205260409020549091169080610f4081611685565b915050610d3c565b50505050565b60078181548110610f5d575f80fd5b905f5260205f209060209182820401919006915054906101000a900460ff1681565b60605f805b6006548110156110e8575f60068281548110610fa257610fa26115d7565b5f9182526020808320909101546001600160a01b031680835260038252604080842060010180548251818602810186019093528083529295509092909190849084015b8282101561103c578382905f5260205f2090600402016040518060800160405290815f8201548152602001600182015481526020016002820154815260200160038201548152505081526020019060010190610fe5565b505050506001600160a01b038381165f908152600360205260408120549293509116905b60075460ff821610801561107c57506001600160a01b03821615155b156110d857876001600160a01b0316826001600160a01b0316036110a95782516110a69087611672565b95505b6001600160a01b039182165f9081526003602052604090205490911690806110d081611685565b915050611060565b505060019092019150610f849050565b505f8167ffffffffffffffff811115611103576111036115c3565b60405190808252806020026020018201604052801561118257816020015b61116f6040518060e001604052805f6001600160a01b031681526020015f81526020015f81526020015f81526020015f6001600160a01b031681526020015f81526020015f60ff1681525090565b8152602001906001900390816111215790505b5090505f805b6006548110156113ec575f600682815481106111a6576111a66115d7565b5f9182526020808320909101546001600160a01b031680835260038252604080842060010180548251818602810186019093528083529295509092909190849084015b82821015611240578382905f5260205f2090600402016040518060800160405290815f82015481526020016001820154815260200160028201548152602001600382015481525050815260200190600101906111e9565b505050506001600160a01b038381165f908152600360205260408120549293509116905b60075460ff821610801561128057506001600160a01b03821615155b156113dc57896001600160a01b0316826001600160a01b0316036113ad575f5b83518110156113ab575f8482815181106112bc576112bc6115d7565b602002602001015190505f606460078560ff16815481106112df576112df6115d7565b905f5260205f2090602091828204019190069054906101000a900460ff1660ff16836040015161130f9190611636565b6113199190611653565b90506040518060e001604052808e6001600160a01b03168152602001835f0151815260200183604001518152602001828152602001886001600160a01b031681526020018360600151815260200185600161137491906116a3565b60ff1690528a8a6113848161161e565b9b5081518110611396576113966115d7565b602090810291909101015250506001016112a0565b505b6001600160a01b039182165f9081526003602052604090205490911690806113d481611685565b915050611264565b5050600190920191506111889050565b5090949350505050565b80356001600160a01b038116811461140c575f80fd5b919050565b5f8060408385031215611422575f80fd5b61142b836113f6565b946020939093013593505050565b5f60208284031215611449575f80fd5b5035919050565b5f60208284031215611460575f80fd5b611469826113f6565b9392505050565b5f815180845260208085019450602084015f5b8381101561149f57815187529582019590820190600101611483565b509495945050505050565b602081525f6114696020830184611470565b606080825284519082018190525f906020906080840190828801845b828110156114fd5781516001600160a01b0316845292840192908401906001016114d8565b50505083810360208501526115128187611470565b91505082810360408401526115278185611470565b9695505050505050565b602080825282518282018190525f919060409081850190868401855b828110156115b657815180516001600160a01b03908116865287820151888701528682015187870152606080830151908701526080808301519091169086015260a0808201519086015260c09081015160ff169085015260e0909301929085019060010161154d565b5091979650505050505050565b634e487b7160e01b5f52604160045260245ffd5b634e487b7160e01b5f52603260045260245ffd5b5f602082840312156115fb575f80fd5b81518015158114611469575f80fd5b634e487b7160e01b5f52601160045260245ffd5b5f6001820161162f5761162f61160a565b5060010190565b808202811582820484141761164d5761164d61160a565b92915050565b5f8261166d57634e487b7160e01b5f52601260045260245ffd5b500490565b8082018082111561164d5761164d61160a565b5f60ff821660ff810361169a5761169a61160a565b60010192915050565b60ff818116838216019081111561164d5761164d61160a56fea2646970667358221220cbe04389eb2c5085f39b1e5729fa325094bef61581ee0905c5ffa1361ceda5ea64736f6c63430008190033",
					"opcodes": "PUSH1 0xE0 PUSH1 0x40 MSTORE PUSH1 0x5 PUSH1 0x80 SWAP1 DUP2 MSTORE PUSH1 0x3 PUSH1 0xA0 DUP2 SWAP1 MSTORE PUSH1 0x2 PUSH1 0xC0 MSTORE PUSH2 0x23 SWAP2 PUSH1 0x7 SWAP2 PUSH2 0x80 JUMP JUMPDEST POP CALLVALUE DUP1 ISZERO PUSH2 0x2F JUMPI PUSH0 DUP1 REVERT JUMPDEST POP PUSH1 0x40 MLOAD PUSH2 0x1861 CODESIZE SUB DUP1 PUSH2 0x1861 DUP4 CODECOPY DUP2 ADD PUSH1 0x40 DUP2 SWAP1 MSTORE PUSH2 0x4E SWAP2 PUSH2 0x135 JUMP JUMPDEST PUSH0 DUP1 SLOAD CALLER PUSH1 0x1 PUSH1 0x1 PUSH1 0xA0 SHL SUB NOT SWAP2 DUP3 AND OR SWAP1 SWAP2 SSTORE PUSH1 0x2 DUP1 SLOAD SWAP1 SWAP2 AND PUSH1 0x1 PUSH1 0x1 PUSH1 0xA0 SHL SUB SWAP3 SWAP1 SWAP3 AND SWAP2 SWAP1 SWAP2 OR SWAP1 SSTORE PUSH2 0x162 JUMP JUMPDEST DUP3 DUP1 SLOAD DUP3 DUP3 SSTORE SWAP1 PUSH0 MSTORE PUSH1 0x20 PUSH0 KECCAK256 SWAP1 PUSH1 0x1F ADD PUSH1 0x20 SWAP1 DIV DUP2 ADD SWAP3 DUP3 ISZERO PUSH2 0x111 JUMPI SWAP2 PUSH1 0x20 MUL DUP3 ADD PUSH0 JUMPDEST DUP4 DUP3 GT ISZERO PUSH2 0xE3 JUMPI DUP4 MLOAD DUP4 DUP3 PUSH2 0x100 EXP DUP2 SLOAD DUP2 PUSH1 0xFF MUL NOT AND SWAP1 DUP4 PUSH1 0xFF AND MUL OR SWAP1 SSTORE POP SWAP3 PUSH1 0x20 ADD SWAP3 PUSH1 0x1 ADD PUSH1 0x20 DUP2 PUSH0 ADD DIV SWAP3 DUP4 ADD SWAP3 PUSH1 0x1 SUB MUL PUSH2 0xA6 JUMP JUMPDEST DUP1 ISZERO PUSH2 0x10F JUMPI DUP3 DUP2 PUSH2 0x100 EXP DUP2 SLOAD SWAP1 PUSH1 0xFF MUL NOT AND SWAP1 SSTORE PUSH1 0x1 ADD PUSH1 0x20 DUP2 PUSH0 ADD DIV SWAP3 DUP4 ADD SWAP3 PUSH1 0x1 SUB MUL PUSH2 0xE3 JUMP JUMPDEST POP JUMPDEST POP PUSH2 0x11D SWAP3 SWAP2 POP PUSH2 0x121 JUMP JUMPDEST POP SWAP1 JUMP JUMPDEST JUMPDEST DUP1 DUP3 GT ISZERO PUSH2 0x11D JUMPI PUSH0 DUP2 SSTORE PUSH1 0x1 ADD PUSH2 0x122 JUMP JUMPDEST PUSH0 PUSH1 0x20 DUP3 DUP5 SUB SLT ISZERO PUSH2 0x145 JUMPI PUSH0 DUP1 REVERT JUMPDEST DUP2 MLOAD PUSH1 0x1 PUSH1 0x1 PUSH1 0xA0 SHL SUB DUP2 AND DUP2 EQ PUSH2 0x15B JUMPI PUSH0 DUP1 REVERT JUMPDEST SWAP4 SWAP3 POP POP POP JUMP JUMPDEST PUSH2 0x16F2 DUP1 PUSH2 0x16F PUSH0 CODECOPY PUSH0 RETURN INVALID PUSH1 0x80 PUSH1 0x40 MSTORE CALLVALUE DUP1 ISZERO PUSH2 0xF JUMPI PUSH0 DUP1 REVERT JUMPDEST POP PUSH1 0x4 CALLDATASIZE LT PUSH2 0x127 JUMPI PUSH0 CALLDATALOAD PUSH1 0xE0 SHR DUP1 PUSH4 0x9D747BAD GT PUSH2 0xA9 JUMPI DUP1 PUSH4 0xC2D3C677 GT PUSH2 0x6E JUMPI DUP1 PUSH4 0xC2D3C677 EQ PUSH2 0x336 JUMPI DUP1 PUSH4 0xC5B89C0A EQ PUSH2 0x361 JUMPI DUP1 PUSH4 0xE45A57D0 EQ PUSH2 0x38D JUMPI DUP1 PUSH4 0xEF71AE56 EQ PUSH2 0x3A0 JUMPI DUP1 PUSH4 0xF7B17D10 EQ PUSH2 0x3C0 JUMPI PUSH0 DUP1 REVERT JUMPDEST DUP1 PUSH4 0x9D747BAD EQ PUSH2 0x2A2 JUMPI DUP1 PUSH4 0xA2BDEDF4 EQ PUSH2 0x2C4 JUMPI DUP1 PUSH4 0xA694FC3A EQ PUSH2 0x2D7 JUMPI DUP1 PUSH4 0xA87430BA EQ PUSH2 0x2EA JUMPI DUP1 PUSH4 0xA98AD46C EQ PUSH2 0x323 JUMPI PUSH0 DUP1 REVERT JUMPDEST DUP1 PUSH4 0x4420E486 GT PUSH2 0xEF JUMPI DUP1 PUSH4 0x4420E486 EQ PUSH2 0x202 JUMPI DUP1 PUSH4 0x797C7F5F EQ PUSH2 0x215 JUMPI DUP1 PUSH4 0x8DA5CB5B EQ PUSH2 0x252 JUMPI DUP1 PUSH4 0x98278EFB EQ PUSH2 0x264 JUMPI DUP1 PUSH4 0x9BE572F6 EQ PUSH2 0x29A JUMPI PUSH0 DUP1 REVERT JUMPDEST DUP1 PUSH4 0x5AD3935 EQ PUSH2 0x12B JUMPI DUP1 PUSH4 0x1E43EB27 EQ PUSH2 0x168 JUMPI DUP1 PUSH4 0x21923BDE EQ PUSH2 0x1A8 JUMPI DUP1 PUSH4 0x28FE7031 EQ PUSH2 0x1CD JUMPI DUP1 PUSH4 0x3EA521EF EQ PUSH2 0x1ED JUMPI JUMPDEST PUSH0 DUP1 REVERT JUMPDEST PUSH2 0x13E PUSH2 0x139 CALLDATASIZE PUSH1 0x4 PUSH2 0x1411 JUMP JUMPDEST PUSH2 0x3C9 JUMP JUMPDEST PUSH1 0x40 DUP1 MLOAD PUSH1 0x1 PUSH1 0x1 PUSH1 0xA0 SHL SUB SWAP1 SWAP5 AND DUP5 MSTORE PUSH1 0x20 DUP5 ADD SWAP3 SWAP1 SWAP3 MSTORE SWAP1 DUP3 ADD MSTORE PUSH1 0x60 ADD JUMPDEST PUSH1 0x40 MLOAD DUP1 SWAP2 SUB SWAP1 RETURN JUMPDEST PUSH2 0x190 PUSH2 0x176 CALLDATASIZE PUSH1 0x4 PUSH2 0x1439 JUMP JUMPDEST PUSH1 0x5 PUSH1 0x20 MSTORE PUSH0 SWAP1 DUP2 MSTORE PUSH1 0x40 SWAP1 KECCAK256 SLOAD PUSH1 0x1 PUSH1 0x1 PUSH1 0xA0 SHL SUB AND DUP2 JUMP JUMPDEST PUSH1 0x40 MLOAD PUSH1 0x1 PUSH1 0x1 PUSH1 0xA0 SHL SUB SWAP1 SWAP2 AND DUP2 MSTORE PUSH1 0x20 ADD PUSH2 0x15F JUMP JUMPDEST PUSH2 0x1BB PUSH2 0x1B6 CALLDATASIZE PUSH1 0x4 PUSH2 0x1450 JUMP JUMPDEST PUSH2 0x411 JUMP JUMPDEST PUSH1 0x40 MLOAD PUSH1 0xFF SWAP1 SWAP2 AND DUP2 MSTORE PUSH1 0x20 ADD PUSH2 0x15F JUMP JUMPDEST PUSH2 0x1E0 PUSH2 0x1DB CALLDATASIZE PUSH1 0x4 PUSH2 0x1450 JUMP JUMPDEST PUSH2 0x464 JUMP JUMPDEST PUSH1 0x40 MLOAD PUSH2 0x15F SWAP2 SWAP1 PUSH2 0x14AA JUMP JUMPDEST PUSH2 0x200 PUSH2 0x1FB CALLDATASIZE PUSH1 0x4 PUSH2 0x1439 JUMP JUMPDEST PUSH2 0x53A JUMP JUMPDEST STOP JUMPDEST PUSH2 0x200 PUSH2 0x210 CALLDATASIZE PUSH1 0x4 PUSH2 0x1450 JUMP JUMPDEST PUSH2 0x611 JUMP JUMPDEST PUSH2 0x228 PUSH2 0x223 CALLDATASIZE PUSH1 0x4 PUSH2 0x1439 JUMP JUMPDEST PUSH2 0x77B JUMP JUMPDEST PUSH1 0x40 DUP1 MLOAD PUSH1 0x1 PUSH1 0x1 PUSH1 0xA0 SHL SUB SWAP1 SWAP6 AND DUP6 MSTORE PUSH1 0x20 DUP6 ADD SWAP4 SWAP1 SWAP4 MSTORE SWAP2 DUP4 ADD MSTORE PUSH1 0x60 DUP3 ADD MSTORE PUSH1 0x80 ADD PUSH2 0x15F JUMP JUMPDEST PUSH0 SLOAD PUSH2 0x190 SWAP1 PUSH1 0x1 PUSH1 0x1 PUSH1 0xA0 SHL SUB AND DUP2 JUMP JUMPDEST PUSH2 0x28C PUSH2 0x272 CALLDATASIZE PUSH1 0x4 PUSH2 0x1450 JUMP JUMPDEST PUSH1 0x1 PUSH1 0x1 PUSH1 0xA0 SHL SUB AND PUSH0 SWAP1 DUP2 MSTORE PUSH1 0x4 PUSH1 0x20 MSTORE PUSH1 0x40 SWAP1 KECCAK256 SLOAD SWAP1 JUMP JUMPDEST PUSH1 0x40 MLOAD SWAP1 DUP2 MSTORE PUSH1 0x20 ADD PUSH2 0x15F JUMP JUMPDEST PUSH1 0x6 SLOAD PUSH2 0x28C JUMP JUMPDEST PUSH2 0x2B5 PUSH2 0x2B0 CALLDATASIZE PUSH1 0x4 PUSH2 0x1450 JUMP JUMPDEST PUSH2 0x952 JUMP JUMPDEST PUSH1 0x40 MLOAD PUSH2 0x15F SWAP4 SWAP3 SWAP2 SWAP1 PUSH2 0x14BC JUMP JUMPDEST PUSH2 0x190 PUSH2 0x2D2 CALLDATASIZE PUSH1 0x4 PUSH2 0x1439 JUMP JUMPDEST PUSH2 0xB3F JUMP JUMPDEST PUSH2 0x200 PUSH2 0x2E5 CALLDATASIZE PUSH1 0x4 PUSH2 0x1439 JUMP JUMPDEST PUSH2 0xB67 JUMP JUMPDEST PUSH2 0x13E PUSH2 0x2F8 CALLDATASIZE PUSH1 0x4 PUSH2 0x1450 JUMP JUMPDEST PUSH1 0x3 PUSH1 0x20 DUP2 SWAP1 MSTORE PUSH0 SWAP2 DUP3 MSTORE PUSH1 0x40 SWAP1 SWAP2 KECCAK256 DUP1 SLOAD PUSH1 0x2 DUP3 ADD SLOAD SWAP2 SWAP1 SWAP3 ADD SLOAD PUSH1 0x1 PUSH1 0x1 PUSH1 0xA0 SHL SUB SWAP1 SWAP3 AND SWAP2 DUP4 JUMP JUMPDEST PUSH1 0x2 SLOAD PUSH2 0x190 SWAP1 PUSH1 0x1 PUSH1 0x1 PUSH1 0xA0 SHL SUB AND DUP2 JUMP JUMPDEST PUSH2 0x28C PUSH2 0x344 CALLDATASIZE PUSH1 0x4 PUSH2 0x1450 JUMP JUMPDEST PUSH1 0x1 PUSH1 0x1 PUSH1 0xA0 SHL SUB AND PUSH0 SWAP1 DUP2 MSTORE PUSH1 0x3 PUSH1 0x20 MSTORE PUSH1 0x40 SWAP1 KECCAK256 PUSH1 0x2 ADD SLOAD SWAP1 JUMP JUMPDEST PUSH2 0x28C PUSH2 0x36F CALLDATASIZE PUSH1 0x4 PUSH2 0x1450 JUMP JUMPDEST PUSH1 0x1 PUSH1 0x1 PUSH1 0xA0 SHL SUB AND PUSH0 SWAP1 DUP2 MSTORE PUSH1 0x3 PUSH1 0x20 DUP2 SWAP1 MSTORE PUSH1 0x40 SWAP1 SWAP2 KECCAK256 ADD SLOAD SWAP1 JUMP JUMPDEST PUSH2 0x1BB PUSH2 0x39B CALLDATASIZE PUSH1 0x4 PUSH2 0x1439 JUMP JUMPDEST PUSH2 0xF4E JUMP JUMPDEST PUSH2 0x3B3 PUSH2 0x3AE CALLDATASIZE PUSH1 0x4 PUSH2 0x1450 JUMP JUMPDEST PUSH2 0xF7F JUMP JUMPDEST PUSH1 0x40 MLOAD PUSH2 0x15F SWAP2 SWAP1 PUSH2 0x1531 JUMP JUMPDEST PUSH2 0x28C PUSH1 0x1 SLOAD DUP2 JUMP JUMPDEST PUSH1 0x4 PUSH1 0x20 MSTORE DUP2 PUSH0 MSTORE PUSH1 0x40 PUSH0 KECCAK256 DUP2 DUP2 SLOAD DUP2 LT PUSH2 0x3E2 JUMPI PUSH0 DUP1 REVERT JUMPDEST PUSH0 SWAP2 DUP3 MSTORE PUSH1 0x20 SWAP1 SWAP2 KECCAK256 PUSH1 0x3 SWAP1 SWAP2 MUL ADD DUP1 SLOAD PUSH1 0x1 DUP3 ADD SLOAD PUSH1 0x2 SWAP1 SWAP3 ADD SLOAD PUSH1 0x1 PUSH1 0x1 PUSH1 0xA0 SHL SUB SWAP1 SWAP2 AND SWAP4 POP SWAP1 SWAP2 POP DUP4 JUMP JUMPDEST PUSH1 0x1 PUSH1 0x1 PUSH1 0xA0 SHL SUB DUP2 AND PUSH0 SWAP1 DUP2 MSTORE PUSH1 0x4 PUSH1 0x20 MSTORE PUSH1 0x40 DUP2 KECCAK256 SLOAD PUSH1 0xA DUP2 LT PUSH2 0x43A JUMPI POP PUSH1 0x3 SWAP3 SWAP2 POP POP JUMP JUMPDEST PUSH1 0x5 DUP2 LT PUSH2 0x44B JUMPI POP PUSH1 0x2 SWAP3 SWAP2 POP POP JUMP JUMPDEST PUSH1 0x1 DUP2 LT PUSH2 0x45C JUMPI POP PUSH1 0x1 SWAP3 SWAP2 POP POP JUMP JUMPDEST POP PUSH0 SWAP3 SWAP2 POP POP JUMP JUMPDEST PUSH1 0x1 PUSH1 0x1 PUSH1 0xA0 SHL SUB DUP2 AND PUSH0 SWAP1 DUP2 MSTORE PUSH1 0x3 PUSH1 0x20 MSTORE PUSH1 0x40 DUP2 KECCAK256 PUSH1 0x1 ADD SLOAD PUSH1 0x60 SWAP2 DUP2 PUSH8 0xFFFFFFFFFFFFFFFF DUP2 GT ISZERO PUSH2 0x49B JUMPI PUSH2 0x49B PUSH2 0x15C3 JUMP JUMPDEST PUSH1 0x40 MLOAD SWAP1 DUP1 DUP3 MSTORE DUP1 PUSH1 0x20 MUL PUSH1 0x20 ADD DUP3 ADD PUSH1 0x40 MSTORE DUP1 ISZERO PUSH2 0x4C4 JUMPI DUP2 PUSH1 0x20 ADD PUSH1 0x20 DUP3 MUL DUP1 CALLDATASIZE DUP4 CALLDATACOPY ADD SWAP1 POP JUMPDEST POP SWAP1 POP PUSH0 JUMPDEST DUP3 DUP2 LT ISZERO PUSH2 0x532 JUMPI PUSH1 0x1 PUSH1 0x1 PUSH1 0xA0 SHL SUB DUP6 AND PUSH0 SWAP1 DUP2 MSTORE PUSH1 0x3 PUSH1 0x20 MSTORE PUSH1 0x40 SWAP1 KECCAK256 PUSH1 0x1 ADD DUP1 SLOAD DUP3 SWAP1 DUP2 LT PUSH2 0x4FD JUMPI PUSH2 0x4FD PUSH2 0x15D7 JUMP JUMPDEST SWAP1 PUSH0 MSTORE PUSH1 0x20 PUSH0 KECCAK256 SWAP1 PUSH1 0x4 MUL ADD PUSH1 0x1 ADD SLOAD DUP3 DUP3 DUP2 MLOAD DUP2 LT PUSH2 0x51F JUMPI PUSH2 0x51F PUSH2 0x15D7 JUMP JUMPDEST PUSH1 0x20 SWAP1 DUP2 MUL SWAP2 SWAP1 SWAP2 ADD ADD MSTORE PUSH1 0x1 ADD PUSH2 0x4C9 JUMP JUMPDEST POP SWAP4 SWAP3 POP POP POP JUMP JUMPDEST PUSH0 SLOAD PUSH1 0x1 PUSH1 0x1 PUSH1 0xA0 SHL SUB AND CALLER EQ PUSH2 0x598 JUMPI PUSH1 0x40 MLOAD PUSH3 0x461BCD PUSH1 0xE5 SHL DUP2 MSTORE PUSH1 0x20 PUSH1 0x4 DUP3 ADD MSTORE PUSH1 0x17 PUSH1 0x24 DUP3 ADD MSTORE PUSH32 0x4F6E6C79206F776E65722063616E207769746864726177000000000000000000 PUSH1 0x44 DUP3 ADD MSTORE PUSH1 0x64 ADD JUMPDEST PUSH1 0x40 MLOAD DUP1 SWAP2 SUB SWAP1 REVERT JUMPDEST PUSH1 0x2 SLOAD PUSH0 SLOAD PUSH1 0x40 MLOAD PUSH4 0xA9059CBB PUSH1 0xE0 SHL DUP2 MSTORE PUSH1 0x1 PUSH1 0x1 PUSH1 0xA0 SHL SUB SWAP2 DUP3 AND PUSH1 0x4 DUP3 ADD MSTORE PUSH1 0x24 DUP2 ADD DUP5 SWAP1 MSTORE SWAP2 AND SWAP1 PUSH4 0xA9059CBB SWAP1 PUSH1 0x44 ADD PUSH1 0x20 PUSH1 0x40 MLOAD DUP1 DUP4 SUB DUP2 PUSH0 DUP8 GAS CALL ISZERO DUP1 ISZERO PUSH2 0x5E9 JUMPI RETURNDATASIZE PUSH0 DUP1 RETURNDATACOPY RETURNDATASIZE PUSH0 REVERT JUMPDEST POP POP POP POP PUSH1 0x40 MLOAD RETURNDATASIZE PUSH1 0x1F NOT PUSH1 0x1F DUP3 ADD AND DUP3 ADD DUP1 PUSH1 0x40 MSTORE POP DUP2 ADD SWAP1 PUSH2 0x60D SWAP2 SWAP1 PUSH2 0x15EB JUMP JUMPDEST POP POP JUMP JUMPDEST CALLER PUSH0 SWAP1 DUP2 MSTORE PUSH1 0x3 PUSH1 0x20 MSTORE PUSH1 0x40 SWAP1 KECCAK256 SLOAD PUSH1 0x1 PUSH1 0x1 PUSH1 0xA0 SHL SUB AND ISZERO PUSH2 0x66B JUMPI PUSH1 0x40 MLOAD PUSH3 0x461BCD PUSH1 0xE5 SHL DUP2 MSTORE PUSH1 0x20 PUSH1 0x4 DUP3 ADD MSTORE PUSH1 0x12 PUSH1 0x24 DUP3 ADD MSTORE PUSH18 0x105B1C9958591E481C9959DA5CDD195C9959 PUSH1 0x72 SHL PUSH1 0x44 DUP3 ADD MSTORE PUSH1 0x64 ADD PUSH2 0x58F JUMP JUMPDEST CALLER PUSH1 0x1 PUSH1 0x1 PUSH1 0xA0 SHL SUB DUP3 AND SUB PUSH2 0x6BB JUMPI PUSH1 0x40 MLOAD PUSH3 0x461BCD PUSH1 0xE5 SHL DUP2 MSTORE PUSH1 0x20 PUSH1 0x4 DUP3 ADD MSTORE PUSH1 0x15 PUSH1 0x24 DUP3 ADD MSTORE PUSH21 0x21B0B73737BA103932B332B9103CB7BAB939B2B633 PUSH1 0x59 SHL PUSH1 0x44 DUP3 ADD MSTORE PUSH1 0x64 ADD PUSH2 0x58F JUMP JUMPDEST CALLER PUSH0 DUP2 DUP2 MSTORE PUSH1 0x3 PUSH1 0x20 DUP2 DUP2 MSTORE PUSH1 0x40 DUP1 DUP5 KECCAK256 DUP1 SLOAD PUSH1 0x1 PUSH1 0x1 PUSH1 0xA0 SHL SUB SWAP8 DUP9 AND PUSH1 0x1 PUSH1 0x1 PUSH1 0xA0 SHL SUB NOT SWAP2 DUP3 AND DUP2 OR SWAP1 SWAP3 SSTORE PUSH1 0x6 DUP1 SLOAD PUSH1 0x1 DUP2 DUP2 ADD SWAP1 SWAP3 SSTORE PUSH32 0xF652222313E28459528D920B65115C16C04F3EFC82AAEDC97BE59F3F377C0D3F ADD DUP1 SLOAD DUP4 AND DUP10 OR SWAP1 SSTORE SWAP2 DUP7 MSTORE PUSH1 0x4 DUP5 MSTORE DUP3 DUP7 KECCAK256 DUP4 MLOAD PUSH1 0x60 DUP2 ADD DUP6 MSTORE SWAP8 DUP9 MSTORE DUP8 DUP6 ADD DUP8 DUP2 MSTORE TIMESTAMP SWAP5 DUP10 ADD SWAP5 DUP6 MSTORE DUP2 SLOAD DUP1 DUP6 ADD DUP4 SSTORE SWAP2 DUP9 MSTORE SWAP5 SWAP1 SWAP7 KECCAK256 SWAP7 MLOAD SWAP6 SWAP1 SWAP5 MUL SWAP1 SWAP6 ADD DUP1 SLOAD SWAP5 SWAP1 SWAP7 AND SWAP4 SWAP1 SWAP3 AND SWAP3 SWAP1 SWAP3 OR DUP5 SSTORE SWAP1 MLOAD SWAP2 DUP4 ADD SWAP2 SWAP1 SWAP2 SSTORE MLOAD PUSH1 0x2 SWAP1 SWAP2 ADD SSTORE JUMP JUMPDEST PUSH0 DUP2 DUP2 MSTORE PUSH1 0x5 PUSH1 0x20 MSTORE PUSH1 0x40 DUP2 KECCAK256 SLOAD DUP2 SWAP1 DUP2 SWAP1 DUP2 SWAP1 PUSH1 0x1 PUSH1 0x1 PUSH1 0xA0 SHL SUB AND DUP1 PUSH2 0x7DA JUMPI PUSH1 0x40 MLOAD PUSH3 0x461BCD PUSH1 0xE5 SHL DUP2 MSTORE PUSH1 0x20 PUSH1 0x4 DUP3 ADD MSTORE PUSH1 0x12 PUSH1 0x24 DUP3 ADD MSTORE PUSH18 0x125B9D985B1A59081C1BDCDA5D1A5BDB9259 PUSH1 0x72 SHL PUSH1 0x44 DUP3 ADD MSTORE PUSH1 0x64 ADD PUSH2 0x58F JUMP JUMPDEST PUSH1 0x1 PUSH1 0x1 PUSH1 0xA0 SHL SUB DUP2 AND PUSH0 SWAP1 DUP2 MSTORE PUSH1 0x3 PUSH1 0x20 SWAP1 DUP2 MSTORE PUSH1 0x40 DUP1 DUP4 KECCAK256 PUSH1 0x1 ADD DUP1 SLOAD DUP3 MLOAD DUP2 DUP6 MUL DUP2 ADD DUP6 ADD SWAP1 SWAP4 MSTORE DUP1 DUP4 MSTORE SWAP2 SWAP3 SWAP1 SWAP2 SWAP1 DUP5 SWAP1 DUP5 ADD JUMPDEST DUP3 DUP3 LT ISZERO PUSH2 0x869 JUMPI DUP4 DUP3 SWAP1 PUSH0 MSTORE PUSH1 0x20 PUSH0 KECCAK256 SWAP1 PUSH1 0x4 MUL ADD PUSH1 0x40 MLOAD DUP1 PUSH1 0x80 ADD PUSH1 0x40 MSTORE SWAP1 DUP2 PUSH0 DUP3 ADD SLOAD DUP2 MSTORE PUSH1 0x20 ADD PUSH1 0x1 DUP3 ADD SLOAD DUP2 MSTORE PUSH1 0x20 ADD PUSH1 0x2 DUP3 ADD SLOAD DUP2 MSTORE PUSH1 0x20 ADD PUSH1 0x3 DUP3 ADD SLOAD DUP2 MSTORE POP POP DUP2 MSTORE PUSH1 0x20 ADD SWAP1 PUSH1 0x1 ADD SWAP1 PUSH2 0x812 JUMP JUMPDEST POP POP POP POP SWAP1 POP PUSH0 JUMPDEST DUP2 MLOAD DUP2 LT ISZERO PUSH2 0x910 JUMPI DUP8 DUP3 DUP3 DUP2 MLOAD DUP2 LT PUSH2 0x88D JUMPI PUSH2 0x88D PUSH2 0x15D7 JUMP JUMPDEST PUSH1 0x20 MUL PUSH1 0x20 ADD ADD MLOAD PUSH1 0x20 ADD MLOAD SUB PUSH2 0x908 JUMPI DUP3 DUP3 DUP3 DUP2 MLOAD DUP2 LT PUSH2 0x8B1 JUMPI PUSH2 0x8B1 PUSH2 0x15D7 JUMP JUMPDEST PUSH1 0x20 MUL PUSH1 0x20 ADD ADD MLOAD PUSH0 ADD MLOAD DUP4 DUP4 DUP2 MLOAD DUP2 LT PUSH2 0x8CE JUMPI PUSH2 0x8CE PUSH2 0x15D7 JUMP JUMPDEST PUSH1 0x20 MUL PUSH1 0x20 ADD ADD MLOAD PUSH1 0x40 ADD MLOAD DUP5 DUP5 DUP2 MLOAD DUP2 LT PUSH2 0x8EC JUMPI PUSH2 0x8EC PUSH2 0x15D7 JUMP JUMPDEST PUSH1 0x20 MUL PUSH1 0x20 ADD ADD MLOAD PUSH1 0x60 ADD MLOAD SWAP7 POP SWAP7 POP SWAP7 POP SWAP7 POP POP POP POP PUSH2 0x94B JUMP JUMPDEST PUSH1 0x1 ADD PUSH2 0x871 JUMP JUMPDEST POP PUSH1 0x40 MLOAD PUSH3 0x461BCD PUSH1 0xE5 SHL DUP2 MSTORE PUSH1 0x20 PUSH1 0x4 DUP3 ADD MSTORE PUSH1 0xF PUSH1 0x24 DUP3 ADD MSTORE PUSH15 0x14DD185AD9481B9BDD08199BDD5B99 PUSH1 0x8A SHL PUSH1 0x44 DUP3 ADD MSTORE PUSH1 0x64 ADD PUSH2 0x58F JUMP JUMPDEST SWAP2 SWAP4 POP SWAP2 SWAP4 JUMP JUMPDEST PUSH1 0x1 PUSH1 0x1 PUSH1 0xA0 SHL SUB DUP2 AND PUSH0 SWAP1 DUP2 MSTORE PUSH1 0x4 PUSH1 0x20 MSTORE PUSH1 0x40 SWAP1 KECCAK256 DUP1 SLOAD PUSH1 0x60 SWAP2 DUP3 SWAP2 DUP3 SWAP2 SWAP1 DUP1 PUSH8 0xFFFFFFFFFFFFFFFF DUP2 GT ISZERO PUSH2 0x98C JUMPI PUSH2 0x98C PUSH2 0x15C3 JUMP JUMPDEST PUSH1 0x40 MLOAD SWAP1 DUP1 DUP3 MSTORE DUP1 PUSH1 0x20 MUL PUSH1 0x20 ADD DUP3 ADD PUSH1 0x40 MSTORE DUP1 ISZERO PUSH2 0x9B5 JUMPI DUP2 PUSH1 0x20 ADD PUSH1 0x20 DUP3 MUL DUP1 CALLDATASIZE DUP4 CALLDATACOPY ADD SWAP1 POP JUMPDEST POP SWAP5 POP DUP1 PUSH8 0xFFFFFFFFFFFFFFFF DUP2 GT ISZERO PUSH2 0x9D1 JUMPI PUSH2 0x9D1 PUSH2 0x15C3 JUMP JUMPDEST PUSH1 0x40 MLOAD SWAP1 DUP1 DUP3 MSTORE DUP1 PUSH1 0x20 MUL PUSH1 0x20 ADD DUP3 ADD PUSH1 0x40 MSTORE DUP1 ISZERO PUSH2 0x9FA JUMPI DUP2 PUSH1 0x20 ADD PUSH1 0x20 DUP3 MUL DUP1 CALLDATASIZE DUP4 CALLDATACOPY ADD SWAP1 POP JUMPDEST POP SWAP4 POP DUP1 PUSH8 0xFFFFFFFFFFFFFFFF DUP2 GT ISZERO PUSH2 0xA16 JUMPI PUSH2 0xA16 PUSH2 0x15C3 JUMP JUMPDEST PUSH1 0x40 MLOAD SWAP1 DUP1 DUP3 MSTORE DUP1 PUSH1 0x20 MUL PUSH1 0x20 ADD DUP3 ADD PUSH1 0x40 MSTORE DUP1 ISZERO PUSH2 0xA3F JUMPI DUP2 PUSH1 0x20 ADD PUSH1 0x20 DUP3 MUL DUP1 CALLDATASIZE DUP4 CALLDATACOPY ADD SWAP1 POP JUMPDEST POP SWAP3 POP PUSH0 JUMPDEST DUP2 DUP2 LT ISZERO PUSH2 0xB35 JUMPI DUP3 DUP2 DUP2 SLOAD DUP2 LT PUSH2 0xA5E JUMPI PUSH2 0xA5E PUSH2 0x15D7 JUMP JUMPDEST PUSH0 SWAP2 DUP3 MSTORE PUSH1 0x20 SWAP1 SWAP2 KECCAK256 PUSH1 0x3 SWAP1 SWAP2 MUL ADD SLOAD DUP7 MLOAD PUSH1 0x1 PUSH1 0x1 PUSH1 0xA0 SHL SUB SWAP1 SWAP2 AND SWAP1 DUP8 SWAP1 DUP4 SWAP1 DUP2 LT PUSH2 0xA8E JUMPI PUSH2 0xA8E PUSH2 0x15D7 JUMP JUMPDEST PUSH1 0x20 MUL PUSH1 0x20 ADD ADD SWAP1 PUSH1 0x1 PUSH1 0x1 PUSH1 0xA0 SHL SUB AND SWAP1 DUP2 PUSH1 0x1 PUSH1 0x1 PUSH1 0xA0 SHL SUB AND DUP2 MSTORE POP POP DUP3 DUP2 DUP2 SLOAD DUP2 LT PUSH2 0xAC0 JUMPI PUSH2 0xAC0 PUSH2 0x15D7 JUMP JUMPDEST SWAP1 PUSH0 MSTORE PUSH1 0x20 PUSH0 KECCAK256 SWAP1 PUSH1 0x3 MUL ADD PUSH1 0x1 ADD SLOAD DUP6 DUP3 DUP2 MLOAD DUP2 LT PUSH2 0xAE2 JUMPI PUSH2 0xAE2 PUSH2 0x15D7 JUMP JUMPDEST PUSH1 0x20 MUL PUSH1 0x20 ADD ADD DUP2 DUP2 MSTORE POP POP DUP3 DUP2 DUP2 SLOAD DUP2 LT PUSH2 0xB00 JUMPI PUSH2 0xB00 PUSH2 0x15D7 JUMP JUMPDEST SWAP1 PUSH0 MSTORE PUSH1 0x20 PUSH0 KECCAK256 SWAP1 PUSH1 0x3 MUL ADD PUSH1 0x2 ADD SLOAD DUP5 DUP3 DUP2 MLOAD DUP2 LT PUSH2 0xB22 JUMPI PUSH2 0xB22 PUSH2 0x15D7 JUMP JUMPDEST PUSH1 0x20 SWAP1 DUP2 MUL SWAP2 SWAP1 SWAP2 ADD ADD MSTORE PUSH1 0x1 ADD PUSH2 0xA44 JUMP JUMPDEST POP POP POP SWAP2 SWAP4 SWAP1 SWAP3 POP JUMP JUMPDEST PUSH1 0x6 DUP2 DUP2 SLOAD DUP2 LT PUSH2 0xB4E JUMPI PUSH0 DUP1 REVERT JUMPDEST PUSH0 SWAP2 DUP3 MSTORE PUSH1 0x20 SWAP1 SWAP2 KECCAK256 ADD SLOAD PUSH1 0x1 PUSH1 0x1 PUSH1 0xA0 SHL SUB AND SWAP1 POP DUP2 JUMP JUMPDEST PUSH0 DUP2 GT PUSH2 0xBB6 JUMPI PUSH1 0x40 MLOAD PUSH3 0x461BCD PUSH1 0xE5 SHL DUP2 MSTORE PUSH1 0x20 PUSH1 0x4 DUP3 ADD MSTORE PUSH1 0x1C PUSH1 0x24 DUP3 ADD MSTORE PUSH32 0x5374616B65206D7573742062652067726561746572207468616E203000000000 PUSH1 0x44 DUP3 ADD MSTORE PUSH1 0x64 ADD PUSH2 0x58F JUMP JUMPDEST CALLER PUSH0 SWAP1 DUP2 MSTORE PUSH1 0x3 PUSH1 0x20 MSTORE PUSH1 0x40 SWAP1 KECCAK256 SLOAD PUSH1 0x1 PUSH1 0x1 PUSH1 0xA0 SHL SUB AND PUSH2 0xC1A JUMPI PUSH1 0x40 MLOAD PUSH3 0x461BCD PUSH1 0xE5 SHL DUP2 MSTORE PUSH1 0x20 PUSH1 0x4 DUP3 ADD MSTORE PUSH1 0x17 PUSH1 0x24 DUP3 ADD MSTORE PUSH32 0x55736572206D7573742062652072656769737465726564000000000000000000 PUSH1 0x44 DUP3 ADD MSTORE PUSH1 0x64 ADD PUSH2 0x58F JUMP JUMPDEST PUSH1 0x2 SLOAD PUSH1 0x40 MLOAD PUSH4 0x23B872DD PUSH1 0xE0 SHL DUP2 MSTORE CALLER PUSH1 0x4 DUP3 ADD MSTORE ADDRESS PUSH1 0x24 DUP3 ADD MSTORE PUSH1 0x44 DUP2 ADD DUP4 SWAP1 MSTORE PUSH1 0x1 PUSH1 0x1 PUSH1 0xA0 SHL SUB SWAP1 SWAP2 AND SWAP1 PUSH4 0x23B872DD SWAP1 PUSH1 0x64 ADD PUSH1 0x20 PUSH1 0x40 MLOAD DUP1 DUP4 SUB DUP2 PUSH0 DUP8 GAS CALL ISZERO DUP1 ISZERO PUSH2 0xC6E JUMPI RETURNDATASIZE PUSH0 DUP1 RETURNDATACOPY RETURNDATASIZE PUSH0 REVERT JUMPDEST POP POP POP POP PUSH1 0x40 MLOAD RETURNDATASIZE PUSH1 0x1F NOT PUSH1 0x1F DUP3 ADD AND DUP3 ADD DUP1 PUSH1 0x40 MSTORE POP DUP2 ADD SWAP1 PUSH2 0xC92 SWAP2 SWAP1 PUSH2 0x15EB JUMP JUMPDEST POP PUSH0 PUSH1 0x1 PUSH0 DUP2 SLOAD PUSH2 0xCA2 SWAP1 PUSH2 0x161E JUMP JUMPDEST SWAP2 DUP3 SWAP1 SSTORE POP CALLER PUSH0 DUP2 DUP2 MSTORE PUSH1 0x3 PUSH1 0x20 DUP2 DUP2 MSTORE PUSH1 0x40 DUP1 DUP5 KECCAK256 DUP2 MLOAD PUSH1 0x80 DUP2 ADD DUP4 MSTORE PUSH1 0x1 DUP1 SLOAD DUP3 MSTORE DUP2 DUP6 ADD DUP10 DUP2 MSTORE DUP3 DUP6 ADD DUP13 DUP2 MSTORE TIMESTAMP PUSH1 0x60 DUP6 ADD SWAP1 DUP2 MSTORE DUP4 DUP7 ADD DUP1 SLOAD DUP1 DUP7 ADD DUP3 SSTORE SWAP1 DUP12 MSTORE DUP9 DUP12 KECCAK256 SWAP6 MLOAD PUSH1 0x4 SWAP1 SWAP2 MUL SWAP1 SWAP6 ADD SWAP5 DUP6 SSTORE SWAP2 MLOAD SWAP3 DUP5 ADD SWAP3 SWAP1 SWAP3 SSTORE SWAP1 MLOAD PUSH1 0x2 DUP4 ADD SSTORE MLOAD SWAP1 DUP6 ADD SSTORE DUP7 DUP6 MSTORE PUSH1 0x5 DUP4 MSTORE SWAP1 DUP5 KECCAK256 DUP1 SLOAD PUSH1 0x1 PUSH1 0x1 PUSH1 0xA0 SHL SUB NOT AND DUP7 OR SWAP1 SSTORE SWAP4 DUP4 MSTORE MSTORE SWAP1 SLOAD SWAP2 SWAP3 POP PUSH1 0x1 PUSH1 0x1 PUSH1 0xA0 SHL SUB SWAP1 SWAP2 AND SWAP1 JUMPDEST PUSH1 0x7 SLOAD PUSH1 0xFF DUP3 AND LT DUP1 ISZERO PUSH2 0xD58 JUMPI POP PUSH1 0x1 PUSH1 0x1 PUSH1 0xA0 SHL SUB DUP3 AND ISZERO ISZERO JUMPDEST ISZERO PUSH2 0xF48 JUMPI PUSH0 PUSH1 0x64 PUSH1 0x7 DUP4 PUSH1 0xFF AND DUP2 SLOAD DUP2 LT PUSH2 0xD76 JUMPI PUSH2 0xD76 PUSH2 0x15D7 JUMP JUMPDEST PUSH0 SWAP2 DUP3 MSTORE PUSH1 0x20 SWAP2 DUP3 SWAP1 KECCAK256 SWAP2 DUP2 DIV SWAP1 SWAP2 ADD SLOAD PUSH2 0xD9D SWAP2 PUSH1 0x1F AND PUSH2 0x100 EXP SWAP1 DIV PUSH1 0xFF AND DUP8 PUSH2 0x1636 JUMP JUMPDEST PUSH2 0xDA7 SWAP2 SWAP1 PUSH2 0x1653 JUMP JUMPDEST PUSH1 0x2 SLOAD PUSH1 0x40 MLOAD PUSH4 0xA9059CBB PUSH1 0xE0 SHL DUP2 MSTORE PUSH1 0x1 PUSH1 0x1 PUSH1 0xA0 SHL SUB DUP7 DUP2 AND PUSH1 0x4 DUP4 ADD MSTORE PUSH1 0x24 DUP3 ADD DUP5 SWAP1 MSTORE SWAP3 SWAP4 POP SWAP2 AND SWAP1 PUSH4 0xA9059CBB SWAP1 PUSH1 0x44 ADD PUSH1 0x20 PUSH1 0x40 MLOAD DUP1 DUP4 SUB DUP2 PUSH0 DUP8 GAS CALL ISZERO DUP1 ISZERO PUSH2 0xDF9 JUMPI RETURNDATASIZE PUSH0 DUP1 RETURNDATACOPY RETURNDATASIZE PUSH0 REVERT JUMPDEST POP POP POP POP PUSH1 0x40 MLOAD RETURNDATASIZE PUSH1 0x1F NOT PUSH1 0x1F DUP3 ADD AND DUP3 ADD DUP1 PUSH1 0x40 MSTORE POP DUP2 ADD SWAP1 PUSH2 0xE1D SWAP2 SWAP1 PUSH2 0x15EB JUMP JUMPDEST POP PUSH1 0x1 PUSH1 0x1 PUSH1 0xA0 SHL SUB DUP4 AND PUSH0 SWAP1 DUP2 MSTORE PUSH1 0x3 PUSH1 0x20 MSTORE PUSH1 0x40 DUP2 KECCAK256 PUSH1 0x2 ADD DUP1 SLOAD DUP4 SWAP3 SWAP1 PUSH2 0xE48 SWAP1 DUP5 SWAP1 PUSH2 0x1672 JUMP JUMPDEST SWAP1 SWAP2 SSTORE POP POP PUSH1 0x1 PUSH1 0x1 PUSH1 0xA0 SHL SUB DUP4 AND PUSH0 SWAP1 DUP2 MSTORE PUSH1 0x3 PUSH1 0x20 DUP2 SWAP1 MSTORE PUSH1 0x40 DUP3 KECCAK256 ADD DUP1 SLOAD DUP4 SWAP3 SWAP1 PUSH2 0xE77 SWAP1 DUP5 SWAP1 PUSH2 0x1672 JUMP JUMPDEST SWAP1 SWAP2 SSTORE POP POP PUSH1 0x1 PUSH1 0x1 PUSH1 0xA0 SHL SUB DUP4 AND PUSH0 SWAP1 DUP2 MSTORE PUSH1 0x4 PUSH1 0x20 MSTORE PUSH1 0x40 DUP2 KECCAK256 SWAP1 JUMPDEST DUP2 SLOAD DUP2 LT ISZERO PUSH2 0xF16 JUMPI CALLER PUSH1 0x1 PUSH1 0x1 PUSH1 0xA0 SHL SUB AND DUP3 DUP3 DUP2 SLOAD DUP2 LT PUSH2 0xEBA JUMPI PUSH2 0xEBA PUSH2 0x15D7 JUMP JUMPDEST PUSH0 SWAP2 DUP3 MSTORE PUSH1 0x20 SWAP1 SWAP2 KECCAK256 PUSH1 0x3 SWAP1 SWAP2 MUL ADD SLOAD PUSH1 0x1 PUSH1 0x1 PUSH1 0xA0 SHL SUB AND SUB PUSH2 0xF0E JUMPI DUP3 DUP3 DUP3 DUP2 SLOAD DUP2 LT PUSH2 0xEEB JUMPI PUSH2 0xEEB PUSH2 0x15D7 JUMP JUMPDEST SWAP1 PUSH0 MSTORE PUSH1 0x20 PUSH0 KECCAK256 SWAP1 PUSH1 0x3 MUL ADD PUSH1 0x1 ADD PUSH0 DUP3 DUP3 SLOAD PUSH2 0xF08 SWAP2 SWAP1 PUSH2 0x1672 JUMP JUMPDEST SWAP1 SWAP2 SSTORE POP POP JUMPDEST PUSH1 0x1 ADD PUSH2 0xE95 JUMP JUMPDEST POP POP POP PUSH1 0x1 PUSH1 0x1 PUSH1 0xA0 SHL SUB SWAP2 DUP3 AND PUSH0 SWAP1 DUP2 MSTORE PUSH1 0x3 PUSH1 0x20 MSTORE PUSH1 0x40 SWAP1 KECCAK256 SLOAD SWAP1 SWAP2 AND SWAP1 DUP1 PUSH2 0xF40 DUP2 PUSH2 0x1685 JUMP JUMPDEST SWAP2 POP POP PUSH2 0xD3C JUMP JUMPDEST POP POP POP POP JUMP JUMPDEST PUSH1 0x7 DUP2 DUP2 SLOAD DUP2 LT PUSH2 0xF5D JUMPI PUSH0 DUP1 REVERT JUMPDEST SWAP1 PUSH0 MSTORE PUSH1 0x20 PUSH0 KECCAK256 SWAP1 PUSH1 0x20 SWAP2 DUP3 DUP3 DIV ADD SWAP2 SWAP1 MOD SWAP2 POP SLOAD SWAP1 PUSH2 0x100 EXP SWAP1 DIV PUSH1 0xFF AND DUP2 JUMP JUMPDEST PUSH1 0x60 PUSH0 DUP1 JUMPDEST PUSH1 0x6 SLOAD DUP2 LT ISZERO PUSH2 0x10E8 JUMPI PUSH0 PUSH1 0x6 DUP3 DUP2 SLOAD DUP2 LT PUSH2 0xFA2 JUMPI PUSH2 0xFA2 PUSH2 0x15D7 JUMP JUMPDEST PUSH0 SWAP2 DUP3 MSTORE PUSH1 0x20 DUP1 DUP4 KECCAK256 SWAP1 SWAP2 ADD SLOAD PUSH1 0x1 PUSH1 0x1 PUSH1 0xA0 SHL SUB AND DUP1 DUP4 MSTORE PUSH1 0x3 DUP3 MSTORE PUSH1 0x40 DUP1 DUP5 KECCAK256 PUSH1 0x1 ADD DUP1 SLOAD DUP3 MLOAD DUP2 DUP7 MUL DUP2 ADD DUP7 ADD SWAP1 SWAP4 MSTORE DUP1 DUP4 MSTORE SWAP3 SWAP6 POP SWAP1 SWAP3 SWAP1 SWAP2 SWAP1 DUP5 SWAP1 DUP5 ADD JUMPDEST DUP3 DUP3 LT ISZERO PUSH2 0x103C JUMPI DUP4 DUP3 SWAP1 PUSH0 MSTORE PUSH1 0x20 PUSH0 KECCAK256 SWAP1 PUSH1 0x4 MUL ADD PUSH1 0x40 MLOAD DUP1 PUSH1 0x80 ADD PUSH1 0x40 MSTORE SWAP1 DUP2 PUSH0 DUP3 ADD SLOAD DUP2 MSTORE PUSH1 0x20 ADD PUSH1 0x1 DUP3 ADD SLOAD DUP2 MSTORE PUSH1 0x20 ADD PUSH1 0x2 DUP3 ADD SLOAD DUP2 MSTORE PUSH1 0x20 ADD PUSH1 0x3 DUP3 ADD SLOAD DUP2 MSTORE POP POP DUP2 MSTORE PUSH1 0x20 ADD SWAP1 PUSH1 0x1 ADD SWAP1 PUSH2 0xFE5 JUMP JUMPDEST POP POP POP POP PUSH1 0x1 PUSH1 0x1 PUSH1 0xA0 SHL SUB DUP4 DUP2 AND PUSH0 SWAP1 DUP2 MSTORE PUSH1 0x3 PUSH1 0x20 MSTORE PUSH1 0x40 DUP2 KECCAK256 SLOAD SWAP3 SWAP4 POP SWAP2 AND SWAP1 JUMPDEST PUSH1 0x7 SLOAD PUSH1 0xFF DUP3 AND LT DUP1 ISZERO PUSH2 0x107C JUMPI POP PUSH1 0x1 PUSH1 0x1 PUSH1 0xA0 SHL SUB DUP3 AND ISZERO ISZERO JUMPDEST ISZERO PUSH2 0x10D8 JUMPI DUP8 PUSH1 0x1 PUSH1 0x1 PUSH1 0xA0 SHL SUB AND DUP3 PUSH1 0x1 PUSH1 0x1 PUSH1 0xA0 SHL SUB AND SUB PUSH2 0x10A9 JUMPI DUP3 MLOAD PUSH2 0x10A6 SWAP1 DUP8 PUSH2 0x1672 JUMP JUMPDEST SWAP6 POP JUMPDEST PUSH1 0x1 PUSH1 0x1 PUSH1 0xA0 SHL SUB SWAP2 DUP3 AND PUSH0 SWAP1 DUP2 MSTORE PUSH1 0x3 PUSH1 0x20 MSTORE PUSH1 0x40 SWAP1 KECCAK256 SLOAD SWAP1 SWAP2 AND SWAP1 DUP1 PUSH2 0x10D0 DUP2 PUSH2 0x1685 JUMP JUMPDEST SWAP2 POP POP PUSH2 0x1060 JUMP JUMPDEST POP POP PUSH1 0x1 SWAP1 SWAP3 ADD SWAP2 POP PUSH2 0xF84 SWAP1 POP JUMP JUMPDEST POP PUSH0 DUP2 PUSH8 0xFFFFFFFFFFFFFFFF DUP2 GT ISZERO PUSH2 0x1103 JUMPI PUSH2 0x1103 PUSH2 0x15C3 JUMP JUMPDEST PUSH1 0x40 MLOAD SWAP1 DUP1 DUP3 MSTORE DUP1 PUSH1 0x20 MUL PUSH1 0x20 ADD DUP3 ADD PUSH1 0x40 MSTORE DUP1 ISZERO PUSH2 0x1182 JUMPI DUP2 PUSH1 0x20 ADD JUMPDEST PUSH2 0x116F PUSH1 0x40 MLOAD DUP1 PUSH1 0xE0 ADD PUSH1 0x40 MSTORE DUP1 PUSH0 PUSH1 0x1 PUSH1 0x1 PUSH1 0xA0 SHL SUB AND DUP2 MSTORE PUSH1 0x20 ADD PUSH0 DUP2 MSTORE PUSH1 0x20 ADD PUSH0 DUP2 MSTORE PUSH1 0x20 ADD PUSH0 DUP2 MSTORE PUSH1 0x20 ADD PUSH0 PUSH1 0x1 PUSH1 0x1 PUSH1 0xA0 SHL SUB AND DUP2 MSTORE PUSH1 0x20 ADD PUSH0 DUP2 MSTORE PUSH1 0x20 ADD PUSH0 PUSH1 0xFF AND DUP2 MSTORE POP SWAP1 JUMP JUMPDEST DUP2 MSTORE PUSH1 0x20 ADD SWAP1 PUSH1 0x1 SWAP1 SUB SWAP1 DUP2 PUSH2 0x1121 JUMPI SWAP1 POP JUMPDEST POP SWAP1 POP PUSH0 DUP1 JUMPDEST PUSH1 0x6 SLOAD DUP2 LT ISZERO PUSH2 0x13EC JUMPI PUSH0 PUSH1 0x6 DUP3 DUP2 SLOAD DUP2 LT PUSH2 0x11A6 JUMPI PUSH2 0x11A6 PUSH2 0x15D7 JUMP JUMPDEST PUSH0 SWAP2 DUP3 MSTORE PUSH1 0x20 DUP1 DUP4 KECCAK256 SWAP1 SWAP2 ADD SLOAD PUSH1 0x1 PUSH1 0x1 PUSH1 0xA0 SHL SUB AND DUP1 DUP4 MSTORE PUSH1 0x3 DUP3 MSTORE PUSH1 0x40 DUP1 DUP5 KECCAK256 PUSH1 0x1 ADD DUP1 SLOAD DUP3 MLOAD DUP2 DUP7 MUL DUP2 ADD DUP7 ADD SWAP1 SWAP4 MSTORE DUP1 DUP4 MSTORE SWAP3 SWAP6 POP SWAP1 SWAP3 SWAP1 SWAP2 SWAP1 DUP5 SWAP1 DUP5 ADD JUMPDEST DUP3 DUP3 LT ISZERO PUSH2 0x1240 JUMPI DUP4 DUP3 SWAP1 PUSH0 MSTORE PUSH1 0x20 PUSH0 KECCAK256 SWAP1 PUSH1 0x4 MUL ADD PUSH1 0x40 MLOAD DUP1 PUSH1 0x80 ADD PUSH1 0x40 MSTORE SWAP1 DUP2 PUSH0 DUP3 ADD SLOAD DUP2 MSTORE PUSH1 0x20 ADD PUSH1 0x1 DUP3 ADD SLOAD DUP2 MSTORE PUSH1 0x20 ADD PUSH1 0x2 DUP3 ADD SLOAD DUP2 MSTORE PUSH1 0x20 ADD PUSH1 0x3 DUP3 ADD SLOAD DUP2 MSTORE POP POP DUP2 MSTORE PUSH1 0x20 ADD SWAP1 PUSH1 0x1 ADD SWAP1 PUSH2 0x11E9 JUMP JUMPDEST POP POP POP POP PUSH1 0x1 PUSH1 0x1 PUSH1 0xA0 SHL SUB DUP4 DUP2 AND PUSH0 SWAP1 DUP2 MSTORE PUSH1 0x3 PUSH1 0x20 MSTORE PUSH1 0x40 DUP2 KECCAK256 SLOAD SWAP3 SWAP4 POP SWAP2 AND SWAP1 JUMPDEST PUSH1 0x7 SLOAD PUSH1 0xFF DUP3 AND LT DUP1 ISZERO PUSH2 0x1280 JUMPI POP PUSH1 0x1 PUSH1 0x1 PUSH1 0xA0 SHL SUB DUP3 AND ISZERO ISZERO JUMPDEST ISZERO PUSH2 0x13DC JUMPI DUP10 PUSH1 0x1 PUSH1 0x1 PUSH1 0xA0 SHL SUB AND DUP3 PUSH1 0x1 PUSH1 0x1 PUSH1 0xA0 SHL SUB AND SUB PUSH2 0x13AD JUMPI PUSH0 JUMPDEST DUP4 MLOAD DUP2 LT ISZERO PUSH2 0x13AB JUMPI PUSH0 DUP5 DUP3 DUP2 MLOAD DUP2 LT PUSH2 0x12BC JUMPI PUSH2 0x12BC PUSH2 0x15D7 JUMP JUMPDEST PUSH1 0x20 MUL PUSH1 0x20 ADD ADD MLOAD SWAP1 POP PUSH0 PUSH1 0x64 PUSH1 0x7 DUP6 PUSH1 0xFF AND DUP2 SLOAD DUP2 LT PUSH2 0x12DF JUMPI PUSH2 0x12DF PUSH2 0x15D7 JUMP JUMPDEST SWAP1 PUSH0 MSTORE PUSH1 0x20 PUSH0 KECCAK256 SWAP1 PUSH1 0x20 SWAP2 DUP3 DUP3 DIV ADD SWAP2 SWAP1 MOD SWAP1 SLOAD SWAP1 PUSH2 0x100 EXP SWAP1 DIV PUSH1 0xFF AND PUSH1 0xFF AND DUP4 PUSH1 0x40 ADD MLOAD PUSH2 0x130F SWAP2 SWAP1 PUSH2 0x1636 JUMP JUMPDEST PUSH2 0x1319 SWAP2 SWAP1 PUSH2 0x1653 JUMP JUMPDEST SWAP1 POP PUSH1 0x40 MLOAD DUP1 PUSH1 0xE0 ADD PUSH1 0x40 MSTORE DUP1 DUP15 PUSH1 0x1 PUSH1 0x1 PUSH1 0xA0 SHL SUB AND DUP2 MSTORE PUSH1 0x20 ADD DUP4 PUSH0 ADD MLOAD DUP2 MSTORE PUSH1 0x20 ADD DUP4 PUSH1 0x40 ADD MLOAD DUP2 MSTORE PUSH1 0x20 ADD DUP3 DUP2 MSTORE PUSH1 0x20 ADD DUP9 PUSH1 0x1 PUSH1 0x1 PUSH1 0xA0 SHL SUB AND DUP2 MSTORE PUSH1 0x20 ADD DUP4 PUSH1 0x60 ADD MLOAD DUP2 MSTORE PUSH1 0x20 ADD DUP6 PUSH1 0x1 PUSH2 0x1374 SWAP2 SWAP1 PUSH2 0x16A3 JUMP JUMPDEST PUSH1 0xFF AND SWAP1 MSTORE DUP11 DUP11 PUSH2 0x1384 DUP2 PUSH2 0x161E JUMP JUMPDEST SWAP12 POP DUP2 MLOAD DUP2 LT PUSH2 0x1396 JUMPI PUSH2 0x1396 PUSH2 0x15D7 JUMP JUMPDEST PUSH1 0x20 SWAP1 DUP2 MUL SWAP2 SWAP1 SWAP2 ADD ADD MSTORE POP POP PUSH1 0x1 ADD PUSH2 0x12A0 JUMP JUMPDEST POP JUMPDEST PUSH1 0x1 PUSH1 0x1 PUSH1 0xA0 SHL SUB SWAP2 DUP3 AND PUSH0 SWAP1 DUP2 MSTORE PUSH1 0x3 PUSH1 0x20 MSTORE PUSH1 0x40 SWAP1 KECCAK256 SLOAD SWAP1 SWAP2 AND SWAP1 DUP1 PUSH2 0x13D4 DUP2 PUSH2 0x1685 JUMP JUMPDEST SWAP2 POP POP PUSH2 0x1264 JUMP JUMPDEST POP POP PUSH1 0x1 SWAP1 SWAP3 ADD SWAP2 POP PUSH2 0x1188 SWAP1 POP JUMP JUMPDEST POP SWAP1 SWAP5 SWAP4 POP POP POP POP JUMP JUMPDEST DUP1 CALLDATALOAD PUSH1 0x1 PUSH1 0x1 PUSH1 0xA0 SHL SUB DUP2 AND DUP2 EQ PUSH2 0x140C JUMPI PUSH0 DUP1 REVERT JUMPDEST SWAP2 SWAP1 POP JUMP JUMPDEST PUSH0 DUP1 PUSH1 0x40 DUP4 DUP6 SUB SLT ISZERO PUSH2 0x1422 JUMPI PUSH0 DUP1 REVERT JUMPDEST PUSH2 0x142B DUP4 PUSH2 0x13F6 JUMP JUMPDEST SWAP5 PUSH1 0x20 SWAP4 SWAP1 SWAP4 ADD CALLDATALOAD SWAP4 POP POP POP JUMP JUMPDEST PUSH0 PUSH1 0x20 DUP3 DUP5 SUB SLT ISZERO PUSH2 0x1449 JUMPI PUSH0 DUP1 REVERT JUMPDEST POP CALLDATALOAD SWAP2 SWAP1 POP JUMP JUMPDEST PUSH0 PUSH1 0x20 DUP3 DUP5 SUB SLT ISZERO PUSH2 0x1460 JUMPI PUSH0 DUP1 REVERT JUMPDEST PUSH2 0x1469 DUP3 PUSH2 0x13F6 JUMP JUMPDEST SWAP4 SWAP3 POP POP POP JUMP JUMPDEST PUSH0 DUP2 MLOAD DUP1 DUP5 MSTORE PUSH1 0x20 DUP1 DUP6 ADD SWAP5 POP PUSH1 0x20 DUP5 ADD PUSH0 JUMPDEST DUP4 DUP2 LT ISZERO PUSH2 0x149F JUMPI DUP2 MLOAD DUP8 MSTORE SWAP6 DUP3 ADD SWAP6 SWAP1 DUP3 ADD SWAP1 PUSH1 0x1 ADD PUSH2 0x1483 JUMP JUMPDEST POP SWAP5 SWAP6 SWAP5 POP POP POP POP POP JUMP JUMPDEST PUSH1 0x20 DUP2 MSTORE PUSH0 PUSH2 0x1469 PUSH1 0x20 DUP4 ADD DUP5 PUSH2 0x1470 JUMP JUMPDEST PUSH1 0x60 DUP1 DUP3 MSTORE DUP5 MLOAD SWAP1 DUP3 ADD DUP2 SWAP1 MSTORE PUSH0 SWAP1 PUSH1 0x20 SWAP1 PUSH1 0x80 DUP5 ADD SWAP1 DUP3 DUP9 ADD DUP5 JUMPDEST DUP3 DUP2 LT ISZERO PUSH2 0x14FD JUMPI DUP2 MLOAD PUSH1 0x1 PUSH1 0x1 PUSH1 0xA0 SHL SUB AND DUP5 MSTORE SWAP3 DUP5 ADD SWAP3 SWAP1 DUP5 ADD SWAP1 PUSH1 0x1 ADD PUSH2 0x14D8 JUMP JUMPDEST POP POP POP DUP4 DUP2 SUB PUSH1 0x20 DUP6 ADD MSTORE PUSH2 0x1512 DUP2 DUP8 PUSH2 0x1470 JUMP JUMPDEST SWAP2 POP POP DUP3 DUP2 SUB PUSH1 0x40 DUP5 ADD MSTORE PUSH2 0x1527 DUP2 DUP6 PUSH2 0x1470 JUMP JUMPDEST SWAP7 SWAP6 POP POP POP POP POP POP JUMP JUMPDEST PUSH1 0x20 DUP1 DUP3 MSTORE DUP3 MLOAD DUP3 DUP3 ADD DUP2 SWAP1 MSTORE PUSH0 SWAP2 SWAP1 PUSH1 0x40 SWAP1 DUP2 DUP6 ADD SWAP1 DUP7 DUP5 ADD DUP6 JUMPDEST DUP3 DUP2 LT ISZERO PUSH2 0x15B6 JUMPI DUP2 MLOAD DUP1 MLOAD PUSH1 0x1 PUSH1 0x1 PUSH1 0xA0 SHL SUB SWAP1 DUP2 AND DUP7 MSTORE DUP8 DUP3 ADD MLOAD DUP9 DUP8 ADD MSTORE DUP7 DUP3 ADD MLOAD DUP8 DUP8 ADD MSTORE PUSH1 0x60 DUP1 DUP4 ADD MLOAD SWAP1 DUP8 ADD MSTORE PUSH1 0x80 DUP1 DUP4 ADD MLOAD SWAP1 SWAP2 AND SWAP1 DUP7 ADD MSTORE PUSH1 0xA0 DUP1 DUP3 ADD MLOAD SWAP1 DUP7 ADD MSTORE PUSH1 0xC0 SWAP1 DUP2 ADD MLOAD PUSH1 0xFF AND SWAP1 DUP6 ADD MSTORE PUSH1 0xE0 SWAP1 SWAP4 ADD SWAP3 SWAP1 DUP6 ADD SWAP1 PUSH1 0x1 ADD PUSH2 0x154D JUMP JUMPDEST POP SWAP2 SWAP8 SWAP7 POP POP POP POP POP POP POP JUMP JUMPDEST PUSH4 0x4E487B71 PUSH1 0xE0 SHL PUSH0 MSTORE PUSH1 0x41 PUSH1 0x4 MSTORE PUSH1 0x24 PUSH0 REVERT JUMPDEST PUSH4 0x4E487B71 PUSH1 0xE0 SHL PUSH0 MSTORE PUSH1 0x32 PUSH1 0x4 MSTORE PUSH1 0x24 PUSH0 REVERT JUMPDEST PUSH0 PUSH1 0x20 DUP3 DUP5 SUB SLT ISZERO PUSH2 0x15FB JUMPI PUSH0 DUP1 REVERT JUMPDEST DUP2 MLOAD DUP1 ISZERO ISZERO DUP2 EQ PUSH2 0x1469 JUMPI PUSH0 DUP1 REVERT JUMPDEST PUSH4 0x4E487B71 PUSH1 0xE0 SHL PUSH0 MSTORE PUSH1 0x11 PUSH1 0x4 MSTORE PUSH1 0x24 PUSH0 REVERT JUMPDEST PUSH0 PUSH1 0x1 DUP3 ADD PUSH2 0x162F JUMPI PUSH2 0x162F PUSH2 0x160A JUMP JUMPDEST POP PUSH1 0x1 ADD SWAP1 JUMP JUMPDEST DUP1 DUP3 MUL DUP2 ISZERO DUP3 DUP3 DIV DUP5 EQ OR PUSH2 0x164D JUMPI PUSH2 0x164D PUSH2 0x160A JUMP JUMPDEST SWAP3 SWAP2 POP POP JUMP JUMPDEST PUSH0 DUP3 PUSH2 0x166D JUMPI PUSH4 0x4E487B71 PUSH1 0xE0 SHL PUSH0 MSTORE PUSH1 0x12 PUSH1 0x4 MSTORE PUSH1 0x24 PUSH0 REVERT JUMPDEST POP DIV SWAP1 JUMP JUMPDEST DUP1 DUP3 ADD DUP1 DUP3 GT ISZERO PUSH2 0x164D JUMPI PUSH2 0x164D PUSH2 0x160A JUMP JUMPDEST PUSH0 PUSH1 0xFF DUP3 AND PUSH1 0xFF DUP2 SUB PUSH2 0x169A JUMPI PUSH2 0x169A PUSH2 0x160A JUMP JUMPDEST PUSH1 0x1 ADD SWAP3 SWAP2 POP POP JUMP JUMPDEST PUSH1 0xFF DUP2 DUP2 AND DUP4 DUP3 AND ADD SWAP1 DUP2 GT ISZERO PUSH2 0x164D JUMPI PUSH2 0x164D PUSH2 0x160A JUMP INVALID LOG2 PUSH5 0x6970667358 0x22 SLT KECCAK256 0xCB 0xE0 NUMBER DUP10 0xEB 0x2C POP DUP6 RETURN SWAP12 0x1E JUMPI 0x29 STATICCALL ORIGIN POP SWAP5 0xBE 0xF6 ISZERO DUP2 0xEE MULMOD SDIV 0xC5 SELFDESTRUCT LOG1 CALLDATASIZE SHR 0xED 0xA5 0xEA PUSH5 0x736F6C6343 STOP ADDMOD NOT STOP CALLER "
				},
				"gasEstimates": {
					"creation": {
						"codeDepositCost": "1174800",
						"executionCost": "infinite",
						"totalCost": "infinite"
					},
					"external": {
						"allUsers(uint256)": "4656",
						"directReferrals(address,uint256)": "9081",
						"getDirectReferralCount(address)": "2623",
						"getLevelIncomeDistribution(address)": "infinite",
						"getPositionIds(address)": "infinite",
						"getReferralIncomeDetails(address)": "infinite",
						"getStakeByPositionId(uint256)": "infinite",
						"getTotalIncome(address)": "2562",
						"getTotalLevelIncome(address)": "2590",
						"getTotalUsers()": "2402",
						"getUserLevel(address)": "2706",
						"levelRewards(uint256)": "6301",
						"owner()": "2402",
						"positionIdToUser(uint256)": "2520",
						"register(address)": "151186",
						"stake(uint256)": "infinite",
						"stakeCounter()": "2404",
						"usdtToken()": "2447",
						"users(address)": "6917",
						"withdrawUSDT(uint256)": "infinite"
					}
				},
				"methodIdentifiers": {
					"allUsers(uint256)": "a2bdedf4",
					"directReferrals(address,uint256)": "05ad3935",
					"getDirectReferralCount(address)": "98278efb",
					"getLevelIncomeDistribution(address)": "ef71ae56",
					"getPositionIds(address)": "28fe7031",
					"getReferralIncomeDetails(address)": "9d747bad",
					"getStakeByPositionId(uint256)": "797c7f5f",
					"getTotalIncome(address)": "c2d3c677",
					"getTotalLevelIncome(address)": "c5b89c0a",
					"getTotalUsers()": "9be572f6",
					"getUserLevel(address)": "21923bde",
					"levelRewards(uint256)": "e45a57d0",
					"owner()": "8da5cb5b",
					"positionIdToUser(uint256)": "1e43eb27",
					"register(address)": "4420e486",
					"stake(uint256)": "a694fc3a",
					"stakeCounter()": "f7b17d10",
					"usdtToken()": "a98ad46c",
					"users(address)": "a87430ba",
					"withdrawUSDT(uint256)": "3ea521ef"
				}
			},
			"storageLayout": {
				"storage": [
					{
						"astId": 31,
						"contract": "contracts/kk.sol:MLMStakingUSDT",
						"label": "owner",
						"offset": 0,
						"slot": "0",
						"type": "t_address"
					},
					{
						"astId": 33,
						"contract": "contracts/kk.sol:MLMStakingUSDT",
						"label": "stakeCounter",
						"offset": 0,
						"slot": "1",
						"type": "t_uint256"
					},
					{
						"astId": 36,
						"contract": "contracts/kk.sol:MLMStakingUSDT",
						"label": "usdtToken",
						"offset": 0,
						"slot": "2",
						"type": "t_contract(IERC20)29"
					},
					{
						"astId": 100,
						"contract": "contracts/kk.sol:MLMStakingUSDT",
						"label": "users",
						"offset": 0,
						"slot": "3",
						"type": "t_mapping(t_address,t_struct(User)80_storage)"
					},
					{
						"astId": 106,
						"contract": "contracts/kk.sol:MLMStakingUSDT",
						"label": "directReferrals",
						"offset": 0,
						"slot": "4",
						"type": "t_mapping(t_address,t_array(t_struct(ReferralInfo)69_storage)dyn_storage)"
					},
					{
						"astId": 110,
						"contract": "contracts/kk.sol:MLMStakingUSDT",
						"label": "positionIdToUser",
						"offset": 0,
						"slot": "5",
						"type": "t_mapping(t_uint256,t_address)"
					},
					{
						"astId": 113,
						"contract": "contracts/kk.sol:MLMStakingUSDT",
						"label": "allUsers",
						"offset": 0,
						"slot": "6",
						"type": "t_array(t_address)dyn_storage"
					},
					{
						"astId": 120,
						"contract": "contracts/kk.sol:MLMStakingUSDT",
						"label": "levelRewards",
						"offset": 0,
						"slot": "7",
						"type": "t_array(t_uint8)dyn_storage"
					}
				],
				"types": {
					"t_address": {
						"encoding": "inplace",
						"label": "address",
						"numberOfBytes": "20"
					},
					"t_array(t_address)dyn_storage": {
						"base": "t_address",
						"encoding": "dynamic_array",
						"label": "address[]",
						"numberOfBytes": "32"
					},
					"t_array(t_struct(ReferralInfo)69_storage)dyn_storage": {
						"base": "t_struct(ReferralInfo)69_storage",
						"encoding": "dynamic_array",
						"label": "struct MLMStakingUSDT.ReferralInfo[]",
						"numberOfBytes": "32"
					},
					"t_array(t_struct(Stake)62_storage)dyn_storage": {
						"base": "t_struct(Stake)62_storage",
						"encoding": "dynamic_array",
						"label": "struct MLMStakingUSDT.Stake[]",
						"numberOfBytes": "32"
					},
					"t_array(t_uint8)dyn_storage": {
						"base": "t_uint8",
						"encoding": "dynamic_array",
						"label": "uint8[]",
						"numberOfBytes": "32"
					},
					"t_contract(IERC20)29": {
						"encoding": "inplace",
						"label": "contract IERC20",
						"numberOfBytes": "20"
					},
					"t_mapping(t_address,t_array(t_struct(ReferralInfo)69_storage)dyn_storage)": {
						"encoding": "mapping",
						"key": "t_address",
						"label": "mapping(address => struct MLMStakingUSDT.ReferralInfo[])",
						"numberOfBytes": "32",
						"value": "t_array(t_struct(ReferralInfo)69_storage)dyn_storage"
					},
					"t_mapping(t_address,t_struct(User)80_storage)": {
						"encoding": "mapping",
						"key": "t_address",
						"label": "mapping(address => struct MLMStakingUSDT.User)",
						"numberOfBytes": "32",
						"value": "t_struct(User)80_storage"
					},
					"t_mapping(t_uint256,t_address)": {
						"encoding": "mapping",
						"key": "t_uint256",
						"label": "mapping(uint256 => address)",
						"numberOfBytes": "32",
						"value": "t_address"
					},
					"t_struct(ReferralInfo)69_storage": {
						"encoding": "inplace",
						"label": "struct MLMStakingUSDT.ReferralInfo",
						"members": [
							{
								"astId": 64,
								"contract": "contracts/kk.sol:MLMStakingUSDT",
								"label": "referralAddress",
								"offset": 0,
								"slot": "0",
								"type": "t_address"
							},
							{
								"astId": 66,
								"contract": "contracts/kk.sol:MLMStakingUSDT",
								"label": "incomeEarned",
								"offset": 0,
								"slot": "1",
								"type": "t_uint256"
							},
							{
								"astId": 68,
								"contract": "contracts/kk.sol:MLMStakingUSDT",
								"label": "timestamp",
								"offset": 0,
								"slot": "2",
								"type": "t_uint256"
							}
						],
						"numberOfBytes": "96"
					},
					"t_struct(Stake)62_storage": {
						"encoding": "inplace",
						"label": "struct MLMStakingUSDT.Stake",
						"members": [
							{
								"astId": 55,
								"contract": "contracts/kk.sol:MLMStakingUSDT",
								"label": "stakeId",
								"offset": 0,
								"slot": "0",
								"type": "t_uint256"
							},
							{
								"astId": 57,
								"contract": "contracts/kk.sol:MLMStakingUSDT",
								"label": "positionId",
								"offset": 0,
								"slot": "1",
								"type": "t_uint256"
							},
							{
								"astId": 59,
								"contract": "contracts/kk.sol:MLMStakingUSDT",
								"label": "amount",
								"offset": 0,
								"slot": "2",
								"type": "t_uint256"
							},
							{
								"astId": 61,
								"contract": "contracts/kk.sol:MLMStakingUSDT",
								"label": "timestamp",
								"offset": 0,
								"slot": "3",
								"type": "t_uint256"
							}
						],
						"numberOfBytes": "128"
					},
					"t_struct(User)80_storage": {
						"encoding": "inplace",
						"label": "struct MLMStakingUSDT.User",
						"members": [
							{
								"astId": 71,
								"contract": "contracts/kk.sol:MLMStakingUSDT",
								"label": "referrer",
								"offset": 0,
								"slot": "0",
								"type": "t_address"
							},
							{
								"astId": 75,
								"contract": "contracts/kk.sol:MLMStakingUSDT",
								"label": "stakes",
								"offset": 0,
								"slot": "1",
								"type": "t_array(t_struct(Stake)62_storage)dyn_storage"
							},
							{
								"astId": 77,
								"contract": "contracts/kk.sol:MLMStakingUSDT",
								"label": "totalIncome",
								"offset": 0,
								"slot": "2",
								"type": "t_uint256"
							},
							{
								"astId": 79,
								"contract": "contracts/kk.sol:MLMStakingUSDT",
								"label": "levelIncome",
								"offset": 0,
								"slot": "3",
								"type": "t_uint256"
							}
						],
						"numberOfBytes": "128"
					},
					"t_uint256": {
						"encoding": "inplace",
						"label": "uint256",
						"numberOfBytes": "32"
					},
					"t_uint8": {
						"encoding": "inplace",
						"label": "uint8",
						"numberOfBytes": "1"
					}
				}
			},
			"userdoc": {
				"kind": "user",
				"methods": {},
				"version": 1
			}
		}
	}
}