{
	"contracts/mintone.sol": {
		"MLMStakingUSDT": {
			"abi": [
				{
					"inputs": [
						{
							"internalType": "address",
							"name": "_usdtToken",
							"type": "address"
						}
					],
					"stateMutability": "nonpayable",
					"type": "constructor"
				},
				{
					"anonymous": false,
					"inputs": [
						{
							"indexed": true,
							"internalType": "address",
							"name": "user",
							"type": "address"
						},
						{
							"indexed": false,
							"internalType": "uint256",
							"name": "stakeId",
							"type": "uint256"
						},
						{
							"indexed": false,
							"internalType": "uint256",
							"name": "amount",
							"type": "uint256"
						},
						{
							"indexed": false,
							"internalType": "uint256",
							"name": "reward",
							"type": "uint256"
						}
					],
					"name": "Claimed",
					"type": "event"
				},
				{
					"inputs": [
						{
							"internalType": "uint256",
							"name": "",
							"type": "uint256"
						}
					],
					"name": "allUsers",
					"outputs": [
						{
							"internalType": "address",
							"name": "",
							"type": "address"
						}
					],
					"stateMutability": "view",
					"type": "function"
				},
				{
					"inputs": [
						{
							"internalType": "uint256",
							"name": "_positionId",
							"type": "uint256"
						}
					],
					"name": "claim",
					"outputs": [],
					"stateMutability": "nonpayable",
					"type": "function"
				},
				{
					"inputs": [
						{
							"internalType": "address",
							"name": "",
							"type": "address"
						}
					],
					"name": "directReferralIncome",
					"outputs": [
						{
							"internalType": "uint256",
							"name": "",
							"type": "uint256"
						}
					],
					"stateMutability": "view",
					"type": "function"
				},
				{
					"inputs": [
						{
							"internalType": "address",
							"name": "",
							"type": "address"
						},
						{
							"internalType": "uint256",
							"name": "",
							"type": "uint256"
						}
					],
					"name": "directReferrals",
					"outputs": [
						{
							"internalType": "address",
							"name": "referralAddress",
							"type": "address"
						},
						{
							"internalType": "uint256",
							"name": "incomeEarned",
							"type": "uint256"
						},
						{
							"internalType": "uint256",
							"name": "timestamp",
							"type": "uint256"
						}
					],
					"stateMutability": "view",
					"type": "function"
				},
				{
					"inputs": [
						{
							"internalType": "address",
							"name": "user",
							"type": "address"
						}
					],
					"name": "getDirectReferralCount",
					"outputs": [
						{
							"internalType": "uint256",
							"name": "",
							"type": "uint256"
						}
					],
					"stateMutability": "view",
					"type": "function"
				},
				{
					"inputs": [
						{
							"internalType": "address",
							"name": "user",
							"type": "address"
						}
					],
					"name": "getDirectReferralIncome",
					"outputs": [
						{
							"internalType": "uint256",
							"name": "",
							"type": "uint256"
						}
					],
					"stateMutability": "view",
					"type": "function"
				},
				{
					"inputs": [
						{
							"internalType": "uint256",
							"name": "amount",
							"type": "uint256"
						},
						{
							"internalType": "uint256",
							"name": "numDays",
							"type": "uint256"
						}
					],
					"name": "getEstimatedReturn",
					"outputs": [
						{
							"internalType": "uint256",
							"name": "interest",
							"type": "uint256"
						},
						{
							"internalType": "uint256",
							"name": "totalReturn",
							"type": "uint256"
						}
					],
					"stateMutability": "view",
					"type": "function"
				},
				{
					"inputs": [
						{
							"internalType": "address",
							"name": "user",
							"type": "address"
						}
					],
					"name": "getLevelIncome",
					"outputs": [
						{
							"internalType": "uint256",
							"name": "",
							"type": "uint256"
						}
					],
					"stateMutability": "view",
					"type": "function"
				},
				{
					"inputs": [
						{
							"internalType": "address",
							"name": "_user",
							"type": "address"
						}
					],
					"name": "getLevelIncomeDistribution",
					"outputs": [
						{
							"components": [
								{
									"internalType": "address",
									"name": "receiverAddress",
									"type": "address"
								},
								{
									"internalType": "uint256",
									"name": "stakeId",
									"type": "uint256"
								},
								{
									"internalType": "uint256",
									"name": "stakeAmount",
									"type": "uint256"
								},
								{
									"internalType": "uint256",
									"name": "incomeReceived",
									"type": "uint256"
								},
								{
									"internalType": "address",
									"name": "uplineAddress",
									"type": "address"
								},
								{
									"internalType": "uint256",
									"name": "timestamp",
									"type": "uint256"
								},
								{
									"internalType": "uint8",
									"name": "level",
									"type": "uint8"
								}
							],
							"internalType": "struct MLMStakingUSDT.LevelIncomeData[]",
							"name": "",
							"type": "tuple[]"
						}
					],
					"stateMutability": "view",
					"type": "function"
				},
				{
					"inputs": [
						{
							"internalType": "address",
							"name": "_user",
							"type": "address"
						}
					],
					"name": "getPositionIds",
					"outputs": [
						{
							"internalType": "uint256[]",
							"name": "",
							"type": "uint256[]"
						}
					],
					"stateMutability": "view",
					"type": "function"
				},
				{
					"inputs": [
						{
							"internalType": "address",
							"name": "user",
							"type": "address"
						}
					],
					"name": "getReferralIncomeDetails",
					"outputs": [
						{
							"internalType": "address[]",
							"name": "referralAddresses",
							"type": "address[]"
						},
						{
							"internalType": "uint256[]",
							"name": "incomes",
							"type": "uint256[]"
						},
						{
							"internalType": "uint256[]",
							"name": "timestamps",
							"type": "uint256[]"
						}
					],
					"stateMutability": "view",
					"type": "function"
				},
				{
					"inputs": [
						{
							"internalType": "uint256",
							"name": "_positionId",
							"type": "uint256"
						}
					],
					"name": "getStakeByPositionId",
					"outputs": [
						{
							"internalType": "address",
							"name": "user",
							"type": "address"
						},
						{
							"internalType": "uint256",
							"name": "stakeId",
							"type": "uint256"
						},
						{
							"internalType": "uint256",
							"name": "amount",
							"type": "uint256"
						},
						{
							"internalType": "uint256",
							"name": "timestamp",
							"type": "uint256"
						}
					],
					"stateMutability": "view",
					"type": "function"
				},
				{
					"inputs": [
						{
							"internalType": "address",
							"name": "user",
							"type": "address"
						}
					],
					"name": "getTotalIncome",
					"outputs": [
						{
							"internalType": "uint256",
							"name": "",
							"type": "uint256"
						}
					],
					"stateMutability": "view",
					"type": "function"
				},
				{
					"inputs": [],
					"name": "getTotalUsers",
					"outputs": [
						{
							"internalType": "uint256",
							"name": "",
							"type": "uint256"
						}
					],
					"stateMutability": "view",
					"type": "function"
				},
				{
					"inputs": [
						{
							"internalType": "address",
							"name": "user",
							"type": "address"
						}
					],
					"name": "getUserLevel",
					"outputs": [
						{
							"internalType": "uint8",
							"name": "",
							"type": "uint8"
						}
					],
					"stateMutability": "view",
					"type": "function"
				},
				{
					"inputs": [
						{
							"internalType": "address",
							"name": "user",
							"type": "address"
						}
					],
					"name": "isRegistered",
					"outputs": [
						{
							"internalType": "bool",
							"name": "",
							"type": "bool"
						}
					],
					"stateMutability": "view",
					"type": "function"
				},
				{
					"inputs": [
						{
							"internalType": "uint256",
							"name": "",
							"type": "uint256"
						}
					],
					"name": "levelRewards",
					"outputs": [
						{
							"internalType": "uint8",
							"name": "",
							"type": "uint8"
						}
					],
					"stateMutability": "view",
					"type": "function"
				},
				{
					"inputs": [],
					"name": "owner",
					"outputs": [
						{
							"internalType": "address",
							"name": "",
							"type": "address"
						}
					],
					"stateMutability": "view",
					"type": "function"
				},
				{
					"inputs": [
						{
							"internalType": "uint256",
							"name": "",
							"type": "uint256"
						}
					],
					"name": "positionIdToUser",
					"outputs": [
						{
							"internalType": "address",
							"name": "",
							"type": "address"
						}
					],
					"stateMutability": "view",
					"type": "function"
				},
				{
					"inputs": [
						{
							"internalType": "address",
							"name": "referrer",
							"type": "address"
						}
					],
					"name": "register",
					"outputs": [],
					"stateMutability": "nonpayable",
					"type": "function"
				},
				{
					"inputs": [
						{
							"internalType": "uint256",
							"name": "numDays",
							"type": "uint256"
						},
						{
							"internalType": "uint256",
							"name": "amount",
							"type": "uint256"
						}
					],
					"name": "stake",
					"outputs": [],
					"stateMutability": "nonpayable",
					"type": "function"
				},
				{
					"inputs": [],
					"name": "stakeCounter",
					"outputs": [
						{
							"internalType": "uint256",
							"name": "",
							"type": "uint256"
						}
					],
					"stateMutability": "view",
					"type": "function"
				},
				{
					"inputs": [
						{
							"internalType": "uint256",
							"name": "",
							"type": "uint256"
						}
					],
					"name": "stakingAPY",
					"outputs": [
						{
							"internalType": "uint256",
							"name": "",
							"type": "uint256"
						}
					],
					"stateMutability": "view",
					"type": "function"
				},
				{
					"inputs": [],
					"name": "usdtToken",
					"outputs": [
						{
							"internalType": "contract IERC20",
							"name": "",
							"type": "address"
						}
					],
					"stateMutability": "view",
					"type": "function"
				},
				{
					"inputs": [
						{
							"internalType": "address",
							"name": "",
							"type": "address"
						}
					],
					"name": "users",
					"outputs": [
						{
							"internalType": "address",
							"name": "referrer",
							"type": "address"
						},
						{
							"internalType": "uint256",
							"name": "totalIncome",
							"type": "uint256"
						},
						{
							"internalType": "uint256",
							"name": "levelIncome",
							"type": "uint256"
						},
						{
							"internalType": "bool",
							"name": "registered",
							"type": "bool"
						}
					],
					"stateMutability": "view",
					"type": "function"
				},
				{
					"inputs": [
						{
							"internalType": "uint256",
							"name": "amount",
							"type": "uint256"
						}
					],
					"name": "withdrawUSDT",
					"outputs": [],
					"stateMutability": "nonpayable",
					"type": "function"
				}
			],
			"devdoc": {
				"kind": "dev",
				"methods": {},
				"version": 1
			},
			"evm": {
				"assembly": "    /* \"contracts/mintone.sol\":1792:1838  uint8[5] public levelRewards = [5, 3, 2, 1, 1] */\n  0x0120\n    /* \"contracts/mintone.sol\":349:11239  contract MLMStakingUSDT {... */\n  0x40\n    /* \"contracts/mintone.sol\":1792:1838  uint8[5] public levelRewards = [5, 3, 2, 1, 1] */\n  mstore\n    /* \"contracts/mintone.sol\":1824:1825  5 */\n  0x05\n    /* \"contracts/mintone.sol\":349:11239  contract MLMStakingUSDT {... */\n  0x80\n    /* \"contracts/mintone.sol\":1792:1838  uint8[5] public levelRewards = [5, 3, 2, 1, 1] */\n  dup2\n  dup2\n  mstore\n    /* \"contracts/mintone.sol\":1827:1828  3 */\n  0x03\n    /* \"contracts/mintone.sol\":1792:1838  uint8[5] public levelRewards = [5, 3, 2, 1, 1] */\n  0xa0\n  mstore\n    /* \"contracts/mintone.sol\":1830:1831  2 */\n  0x02\n    /* \"contracts/mintone.sol\":1792:1838  uint8[5] public levelRewards = [5, 3, 2, 1, 1] */\n  0xc0\n  mstore\n    /* \"contracts/mintone.sol\":1833:1834  1 */\n  0x01\n    /* \"contracts/mintone.sol\":1792:1838  uint8[5] public levelRewards = [5, 3, 2, 1, 1] */\n  0xe0\n  dup2\n  swap1\n  mstore\n  0x0100\n  mstore\n  tag_1\n  swap2\n  0x09\n  swap2\n    /* \"contracts/mintone.sol\":349:11239  contract MLMStakingUSDT {... */\n  swap1\n    /* \"contracts/mintone.sol\":1792:1838  uint8[5] public levelRewards = [5, 3, 2, 1, 1] */\n  tag_2\n  jump\t// in\ntag_1:\n  pop\n    /* \"contracts/mintone.sol\":473:745  constructor(address _usdtToken) {... */\n  callvalue\n  dup1\n  iszero\n  tag_3\n  jumpi\n  0x00\n  dup1\n  revert\ntag_3:\n  pop\n  mload(0x40)\n  sub(codesize, bytecodeSize)\n  dup1\n  bytecodeSize\n  dup4\n  codecopy\n  dup2\n  add\n  0x40\n  dup2\n  swap1\n  mstore\n  tag_4\n  swap2\n  tag_5\n  jump\t// in\ntag_4:\n    /* \"contracts/mintone.sol\":516:521  owner */\n  0x00\n    /* \"contracts/mintone.sol\":516:534  owner = msg.sender */\n  dup1\n  sload\n    /* \"contracts/mintone.sol\":524:534  msg.sender */\n  caller\n  not(sub(shl(0xa0, 0x01), 0x01))\n    /* \"contracts/mintone.sol\":516:534  owner = msg.sender */\n  swap2\n  dup3\n  and\n  dup2\n  or\n  dup4\n  sstore\n    /* \"contracts/mintone.sol\":545:554  usdtToken */\n  0x02\n    /* \"contracts/mintone.sol\":545:575  usdtToken = IERC20(_usdtToken) */\n  dup1\n  sload\n  swap1\n  swap3\n  and\n  sub(shl(0xa0, 0x01), 0x01)\n  swap5\n  swap1\n  swap5\n  and\n  swap4\n  swap1\n  swap4\n  or\n  swap1\n  sstore\n    /* \"contracts/mintone.sol\":586:598  users[owner] */\n  swap1\n  dup2\n  mstore\n    /* \"contracts/mintone.sol\":586:591  users */\n  0x03\n    /* \"contracts/mintone.sol\":586:598  users[owner] */\n  0x20\n  dup2\n  dup2\n  mstore\n  0x40\n  dup4\n  keccak256\n    /* \"contracts/mintone.sol\":586:609  users[owner].registered */\n  0x04\n  add\n    /* \"contracts/mintone.sol\":586:616  users[owner].registered = true */\n  dup1\n  sload\n  not(0xff)\n  and\n  0x01\n  swap1\n  dup2\n  or\n  swap1\n  swap2\n  sstore\n    /* \"contracts/mintone.sol\":629:639  stakingAPY */\n  0x06\n    /* \"contracts/mintone.sol\":629:643  stakingAPY[30] */\n  swap2\n  dup3\n  swap1\n  mstore\n  0xb6ba906ff52451a7a924e2eaeb8aea3ebee7350a8703e5e417edb25358c7dcc1\n    /* \"contracts/mintone.sol\":629:647  stakingAPY[30] = 1 */\n  sstore\n    /* \"contracts/mintone.sol\":658:672  stakingAPY[90] */\n  0x1727c0104c2870c3003671480695f7dab262614528b49265008e76fd3d48c5fe\n    /* \"contracts/mintone.sol\":658:676  stakingAPY[90] = 3 */\n  swap2\n  swap1\n  swap2\n  sstore\n    /* \"contracts/mintone.sol\":687:702  stakingAPY[180] */\n  0xfb78eb295a86b096b5f095822bd250a277112be4103ea4a7608d96eca726b2c1\n    /* \"contracts/mintone.sol\":687:706  stakingAPY[180] = 6 */\n  sstore\n    /* \"contracts/mintone.sol\":728:731  365 */\n  0x016d\n    /* \"contracts/mintone.sol\":717:732  stakingAPY[365] */\n  swap1\n  mstore\n    /* \"contracts/mintone.sol\":735:737  12 */\n  0x0c\n    /* \"contracts/mintone.sol\":717:732  stakingAPY[365] */\n  0x0bbf8adea84d189c39869a372ab30aeba9246eea044edc5a37ac100921b2c4e1\n    /* \"contracts/mintone.sol\":717:737  stakingAPY[365] = 12 */\n  sstore\n    /* \"contracts/mintone.sol\":349:11239  contract MLMStakingUSDT {... */\n  jump(tag_17)\ntag_2:\n  0x01\n  dup4\n  add\n  swap2\n  dup4\n  swap1\n  dup3\n  iszero\n  tag_9\n  jumpi\n  swap2\n  0x20\n  mul\n  dup3\n  add\n  0x00\ntag_10:\n  dup4\n  dup3\n  gt\n  iszero\n  tag_11\n  jumpi\n  dup4\n  mload\n  dup4\n  dup3\n  0x0100\n  exp\n  dup2\n  sload\n  dup2\n  0xff\n  mul\n  not\n  and\n  swap1\n  dup4\n  0xff\n  and\n  mul\n  or\n  swap1\n  sstore\n  pop\n  swap3\n  0x20\n  add\n  swap3\n  0x01\n  add\n  0x20\n  dup2\n  0x00\n  add\n  div\n  swap3\n  dup4\n  add\n  swap3\n  0x01\n  sub\n  mul\n  jump(tag_10)\ntag_11:\n  dup1\n  iszero\n  tag_12\n  jumpi\n  dup3\n  dup2\n  0x0100\n  exp\n  dup2\n  sload\n  swap1\n  0xff\n  mul\n  not\n  and\n  swap1\n  sstore\n  0x01\n  add\n  0x20\n  dup2\n  0x00\n  add\n  div\n  swap3\n  dup4\n  add\n  swap3\n  0x01\n  sub\n  mul\n  jump(tag_11)\ntag_12:\n  pop\ntag_9:\n  pop\n  tag_13\n  swap3\n  swap2\n  pop\n  tag_14\n  jump\t// in\ntag_13:\n  pop\n  swap1\n  jump\t// out\ntag_14:\ntag_15:\n  dup1\n  dup3\n  gt\n  iszero\n  tag_13\n  jumpi\n  0x00\n  dup2\n  sstore\n  0x01\n  add\n  jump(tag_15)\n    /* \"#utility.yul\":14:304   */\ntag_5:\n    /* \"#utility.yul\":84:90   */\n  0x00\n    /* \"#utility.yul\":137:139   */\n  0x20\n    /* \"#utility.yul\":125:134   */\n  dup3\n    /* \"#utility.yul\":116:123   */\n  dup5\n    /* \"#utility.yul\":112:135   */\n  sub\n    /* \"#utility.yul\":108:140   */\n  slt\n    /* \"#utility.yul\":105:157   */\n  iszero\n  tag_19\n  jumpi\n    /* \"#utility.yul\":153:154   */\n  0x00\n    /* \"#utility.yul\":150:151   */\n  dup1\n    /* \"#utility.yul\":143:155   */\n  revert\n    /* \"#utility.yul\":105:157   */\ntag_19:\n    /* \"#utility.yul\":179:195   */\n  dup2\n  mload\n  sub(shl(0xa0, 0x01), 0x01)\n    /* \"#utility.yul\":224:255   */\n  dup2\n  and\n    /* \"#utility.yul\":214:256   */\n  dup2\n  eq\n    /* \"#utility.yul\":204:274   */\n  tag_20\n  jumpi\n    /* \"#utility.yul\":270:271   */\n  0x00\n    /* \"#utility.yul\":267:268   */\n  dup1\n    /* \"#utility.yul\":260:272   */\n  revert\n    /* \"#utility.yul\":204:274   */\ntag_20:\n    /* \"#utility.yul\":293:298   */\n  swap4\n    /* \"#utility.yul\":14:304   */\n  swap3\n  pop\n  pop\n  pop\n  jump\t// out\ntag_17:\n    /* \"contracts/mintone.sol\":349:11239  contract MLMStakingUSDT {... */\n  dataSize(sub_0)\n  dup1\n  dataOffset(sub_0)\n  0x00\n  codecopy\n  0x00\n  return\nstop\n\nsub_0: assembly {\n        /* \"contracts/mintone.sol\":349:11239  contract MLMStakingUSDT {... */\n      mstore(0x40, 0x80)\n      callvalue\n      dup1\n      iszero\n      tag_1\n      jumpi\n      0x00\n      dup1\n      revert\n    tag_1:\n      pop\n      jumpi(tag_2, lt(calldatasize, 0x04))\n      shr(0xe0, calldataload(0x00))\n      dup1\n      0x9be572f6\n      gt\n      tag_29\n      jumpi\n      dup1\n      0xbd297178\n      gt\n      tag_30\n      jumpi\n      dup1\n      0xe45a57d0\n      gt\n      tag_31\n      jumpi\n      dup1\n      0xe45a57d0\n      eq\n      tag_25\n      jumpi\n      dup1\n      0xef71ae56\n      eq\n      tag_26\n      jumpi\n      dup1\n      0xf6e88873\n      eq\n      tag_27\n      jumpi\n      dup1\n      0xf7b17d10\n      eq\n      tag_28\n      jumpi\n      0x00\n      dup1\n      revert\n    tag_31:\n      dup1\n      0xbd297178\n      eq\n      tag_22\n      jumpi\n      dup1\n      0xc2d3c677\n      eq\n      tag_23\n      jumpi\n      dup1\n      0xc3c5a547\n      eq\n      tag_24\n      jumpi\n      0x00\n      dup1\n      revert\n    tag_30:\n      dup1\n      0x9be572f6\n      eq\n      tag_16\n      jumpi\n      dup1\n      0x9d747bad\n      eq\n      tag_17\n      jumpi\n      dup1\n      0xa2bdedf4\n      eq\n      tag_18\n      jumpi\n      dup1\n      0xa87430ba\n      eq\n      tag_19\n      jumpi\n      dup1\n      0xa98ad46c\n      eq\n      tag_20\n      jumpi\n      dup1\n      0xaa7ed462\n      eq\n      tag_21\n      jumpi\n      0x00\n      dup1\n      revert\n    tag_29:\n      dup1\n      0x4420e486\n      gt\n      tag_32\n      jumpi\n      dup1\n      0x7b0472f0\n      gt\n      tag_33\n      jumpi\n      dup1\n      0x7b0472f0\n      eq\n      tag_12\n      jumpi\n      dup1\n      0x875bb4e2\n      eq\n      tag_13\n      jumpi\n      dup1\n      0x8da5cb5b\n      eq\n      tag_14\n      jumpi\n      dup1\n      0x98278efb\n      eq\n      tag_15\n      jumpi\n      0x00\n      dup1\n      revert\n    tag_33:\n      dup1\n      0x4420e486\n      eq\n      tag_9\n      jumpi\n      dup1\n      0x5bd4e16a\n      eq\n      tag_10\n      jumpi\n      dup1\n      0x797c7f5f\n      eq\n      tag_11\n      jumpi\n      0x00\n      dup1\n      revert\n    tag_32:\n      dup1\n      0x05ad3935\n      eq\n      tag_3\n      jumpi\n      dup1\n      0x1e43eb27\n      eq\n      tag_4\n      jumpi\n      dup1\n      0x21923bde\n      eq\n      tag_5\n      jumpi\n      dup1\n      0x28fe7031\n      eq\n      tag_6\n      jumpi\n      dup1\n      0x379607f5\n      eq\n      tag_7\n      jumpi\n      dup1\n      0x3ea521ef\n      eq\n      tag_8\n      jumpi\n    tag_2:\n      0x00\n      dup1\n      revert\n        /* \"contracts/mintone.sol\":1522:1579  mapping(address => ReferralInfo[]) public directReferrals */\n    tag_3:\n      tag_34\n      tag_35\n      calldatasize\n      0x04\n      tag_36\n      jump\t// in\n    tag_35:\n      tag_37\n      jump\t// in\n    tag_34:\n      0x40\n      dup1\n      mload\n      sub(shl(0xa0, 0x01), 0x01)\n        /* \"#utility.yul\":671:703   */\n      swap1\n      swap5\n      and\n        /* \"#utility.yul\":653:704   */\n      dup5\n      mstore\n        /* \"#utility.yul\":735:737   */\n      0x20\n        /* \"#utility.yul\":720:738   */\n      dup5\n      add\n        /* \"#utility.yul\":713:747   */\n      swap3\n      swap1\n      swap3\n      mstore\n        /* \"#utility.yul\":763:781   */\n      swap1\n      dup3\n      add\n        /* \"#utility.yul\":756:790   */\n      mstore\n        /* \"#utility.yul\":641:643   */\n      0x60\n        /* \"#utility.yul\":626:644   */\n      add\n        /* \"contracts/mintone.sol\":1522:1579  mapping(address => ReferralInfo[]) public directReferrals */\n    tag_38:\n      mload(0x40)\n      dup1\n      swap2\n      sub\n      swap1\n      return\n        /* \"contracts/mintone.sol\":1586:1637  mapping(uint256 => address) public positionIdToUser */\n    tag_4:\n      tag_40\n      tag_41\n      calldatasize\n      0x04\n      tag_42\n      jump\t// in\n    tag_41:\n      mstore(0x20, 0x05)\n      0x00\n      swap1\n      dup2\n      mstore\n      0x40\n      swap1\n      keccak256\n      sload\n      sub(shl(0xa0, 0x01), 0x01)\n      and\n      dup2\n      jump\n    tag_40:\n      mload(0x40)\n      sub(shl(0xa0, 0x01), 0x01)\n        /* \"#utility.yul\":1150:1182   */\n      swap1\n      swap2\n      and\n        /* \"#utility.yul\":1132:1183   */\n      dup2\n      mstore\n        /* \"#utility.yul\":1120:1122   */\n      0x20\n        /* \"#utility.yul\":1105:1123   */\n      add\n        /* \"contracts/mintone.sol\":1586:1637  mapping(uint256 => address) public positionIdToUser */\n      tag_38\n        /* \"#utility.yul\":986:1189   */\n      jump\n        /* \"contracts/mintone.sol\":8475:8729  function getUserLevel(address user) external view returns (uint8) {... */\n    tag_5:\n      tag_46\n      tag_47\n      calldatasize\n      0x04\n      tag_48\n      jump\t// in\n    tag_47:\n      tag_49\n      jump\t// in\n    tag_46:\n      mload(0x40)\n        /* \"#utility.yul\":1557:1561   */\n      0xff\n        /* \"#utility.yul\":1545:1562   */\n      swap1\n      swap2\n      and\n        /* \"#utility.yul\":1527:1563   */\n      dup2\n      mstore\n        /* \"#utility.yul\":1515:1517   */\n      0x20\n        /* \"#utility.yul\":1500:1518   */\n      add\n        /* \"contracts/mintone.sol\":8475:8729  function getUserLevel(address user) external view returns (uint8) {... */\n      tag_38\n        /* \"#utility.yul\":1385:1569   */\n      jump\n        /* \"contracts/mintone.sol\":6872:7207  function getPositionIds(address _user) external view returns (uint256[] memory) {... */\n    tag_6:\n      tag_52\n      tag_53\n      calldatasize\n      0x04\n      tag_48\n      jump\t// in\n    tag_53:\n      tag_54\n      jump\t// in\n    tag_52:\n      mload(0x40)\n      tag_38\n      swap2\n      swap1\n      tag_56\n      jump\t// in\n        /* \"contracts/mintone.sol\":4987:6214  function claim(uint256 _positionId) external onlyRegistered {... */\n    tag_7:\n      tag_57\n      tag_58\n      calldatasize\n      0x04\n      tag_42\n      jump\t// in\n    tag_58:\n      tag_59\n      jump\t// in\n    tag_57:\n      stop\n        /* \"contracts/mintone.sol\":10679:11009  function withdrawUSDT(uint256 amount) external {... */\n    tag_8:\n      tag_57\n      tag_61\n      calldatasize\n      0x04\n      tag_42\n      jump\t// in\n    tag_61:\n      tag_62\n      jump\t// in\n        /* \"contracts/mintone.sol\":2060:2639  function register(address referrer) external {... */\n    tag_9:\n      tag_57\n      tag_64\n      calldatasize\n      0x04\n      tag_48\n      jump\t// in\n    tag_64:\n      tag_65\n      jump\t// in\n        /* \"contracts/mintone.sol\":7494:7613  function getLevelIncome(address user) external view returns (uint256) {... */\n    tag_10:\n      tag_66\n      tag_67\n      calldatasize\n      0x04\n      tag_48\n      jump\t// in\n    tag_67:\n      sub(shl(0xa0, 0x01), 0x01)\n        /* \"contracts/mintone.sol\":7582:7593  users[user] */\n      and\n        /* \"contracts/mintone.sol\":7555:7562  uint256 */\n      0x00\n        /* \"contracts/mintone.sol\":7582:7593  users[user] */\n      swap1\n      dup2\n      mstore\n        /* \"contracts/mintone.sol\":7582:7587  users */\n      0x03\n        /* \"contracts/mintone.sol\":7582:7593  users[user] */\n      0x20\n      dup2\n      swap1\n      mstore\n      0x40\n      swap1\n      swap2\n      keccak256\n        /* \"contracts/mintone.sol\":7582:7605  users[user].levelIncome */\n      add\n      sload\n      swap1\n        /* \"contracts/mintone.sol\":7494:7613  function getLevelIncome(address user) external view returns (uint256) {... */\n      jump\n    tag_66:\n      mload(0x40)\n        /* \"#utility.yul\":2430:2455   */\n      swap1\n      dup2\n      mstore\n        /* \"#utility.yul\":2418:2420   */\n      0x20\n        /* \"#utility.yul\":2403:2421   */\n      add\n        /* \"contracts/mintone.sol\":7494:7613  function getLevelIncome(address user) external view returns (uint256) {... */\n      tag_38\n        /* \"#utility.yul\":2284:2461   */\n      jump\n        /* \"contracts/mintone.sol\":6222:6864  function getStakeByPositionId(uint256 _positionId) external view returns (... */\n    tag_11:\n      tag_71\n      tag_72\n      calldatasize\n      0x04\n      tag_42\n      jump\t// in\n    tag_72:\n      tag_73\n      jump\t// in\n    tag_71:\n      0x40\n      dup1\n      mload\n      sub(shl(0xa0, 0x01), 0x01)\n        /* \"#utility.yul\":2715:2747   */\n      swap1\n      swap6\n      and\n        /* \"#utility.yul\":2697:2748   */\n      dup6\n      mstore\n        /* \"#utility.yul\":2779:2781   */\n      0x20\n        /* \"#utility.yul\":2764:2782   */\n      dup6\n      add\n        /* \"#utility.yul\":2757:2791   */\n      swap4\n      swap1\n      swap4\n      mstore\n        /* \"#utility.yul\":2807:2825   */\n      swap2\n      dup4\n      add\n        /* \"#utility.yul\":2800:2834   */\n      mstore\n        /* \"#utility.yul\":2865:2867   */\n      0x60\n        /* \"#utility.yul\":2850:2868   */\n      dup3\n      add\n        /* \"#utility.yul\":2843:2877   */\n      mstore\n        /* \"#utility.yul\":2684:2687   */\n      0x80\n        /* \"#utility.yul\":2669:2688   */\n      add\n        /* \"contracts/mintone.sol\":6222:6864  function getStakeByPositionId(uint256 _positionId) external view returns (... */\n      tag_38\n        /* \"#utility.yul\":2466:2883   */\n      jump\n        /* \"contracts/mintone.sol\":2647:4517  function stake(uint256 numDays, uint256 amount) external onlyRegistered {... */\n    tag_12:\n      tag_57\n      tag_77\n      calldatasize\n      0x04\n      tag_78\n      jump\t// in\n    tag_77:\n      tag_79\n      jump\t// in\n        /* \"contracts/mintone.sol\":1644:1689  mapping(uint256 => uint256) public stakingAPY */\n    tag_13:\n      tag_66\n      tag_81\n      calldatasize\n      0x04\n      tag_42\n      jump\t// in\n    tag_81:\n      mstore(0x20, 0x06)\n      0x00\n      swap1\n      dup2\n      mstore\n      0x40\n      swap1\n      keccak256\n      sload\n      dup2\n      jump\n        /* \"contracts/mintone.sol\":380:400  address public owner */\n    tag_14:\n      sload(0x00)\n      tag_40\n      swap1\n      sub(shl(0xa0, 0x01), 0x01)\n      and\n      dup2\n      jump\n        /* \"contracts/mintone.sol\":7215:7347  function getDirectReferralCount(address user) external view returns (uint256) {... */\n    tag_15:\n      tag_66\n      tag_88\n      calldatasize\n      0x04\n      tag_48\n      jump\t// in\n    tag_88:\n      sub(shl(0xa0, 0x01), 0x01)\n        /* \"contracts/mintone.sol\":7311:7332  directReferrals[user] */\n      and\n        /* \"contracts/mintone.sol\":7284:7291  uint256 */\n      0x00\n        /* \"contracts/mintone.sol\":7311:7332  directReferrals[user] */\n      swap1\n      dup2\n      mstore\n        /* \"contracts/mintone.sol\":7311:7326  directReferrals */\n      0x04\n        /* \"contracts/mintone.sol\":7311:7332  directReferrals[user] */\n      0x20\n      mstore\n      0x40\n      swap1\n      keccak256\n        /* \"contracts/mintone.sol\":7311:7339  directReferrals[user].length */\n      sload\n      swap1\n        /* \"contracts/mintone.sol\":7215:7347  function getDirectReferralCount(address user) external view returns (uint256) {... */\n      jump\n        /* \"contracts/mintone.sol\":11138:11236  function getTotalUsers() external view returns (uint256) {... */\n    tag_16:\n        /* \"contracts/mintone.sol\":11213:11221  allUsers */\n      0x08\n        /* \"contracts/mintone.sol\":11213:11228  allUsers.length */\n      sload\n        /* \"contracts/mintone.sol\":11138:11236  function getTotalUsers() external view returns (uint256) {... */\n      jump(tag_66)\n        /* \"contracts/mintone.sol\":7748:8467  function getReferralIncomeDetails(address user) external view returns (... */\n    tag_17:\n      tag_94\n      tag_95\n      calldatasize\n      0x04\n      tag_48\n      jump\t// in\n    tag_95:\n      tag_96\n      jump\t// in\n    tag_94:\n      mload(0x40)\n      tag_38\n      swap4\n      swap3\n      swap2\n      swap1\n      tag_98\n      jump\t// in\n        /* \"contracts/mintone.sol\":1760:1785  address[] public allUsers */\n    tag_18:\n      tag_40\n      tag_100\n      calldatasize\n      0x04\n      tag_42\n      jump\t// in\n    tag_100:\n      tag_101\n      jump\t// in\n        /* \"contracts/mintone.sol\":1478:1515  mapping(address => User) public users */\n    tag_19:\n      tag_103\n      tag_104\n      calldatasize\n      0x04\n      tag_48\n      jump\t// in\n    tag_104:\n      0x03\n      0x20\n      dup2\n      swap1\n      mstore\n      0x00\n      swap2\n      dup3\n      mstore\n      0x40\n      swap1\n      swap2\n      keccak256\n      dup1\n      sload\n      0x02\n      dup3\n      add\n      sload\n      swap3\n      dup3\n      add\n      sload\n      0x04\n      swap1\n      swap3\n      add\n      sload\n      sub(shl(0xa0, 0x01), 0x01)\n      swap1\n      swap2\n      and\n      swap3\n      swap2\n      swap1\n      0xff\n      and\n      dup5\n      jump\n    tag_103:\n      0x40\n      dup1\n      mload\n      sub(shl(0xa0, 0x01), 0x01)\n        /* \"#utility.yul\":4430:4462   */\n      swap1\n      swap6\n      and\n        /* \"#utility.yul\":4412:4463   */\n      dup6\n      mstore\n        /* \"#utility.yul\":4494:4496   */\n      0x20\n        /* \"#utility.yul\":4479:4497   */\n      dup6\n      add\n        /* \"#utility.yul\":4472:4506   */\n      swap4\n      swap1\n      swap4\n      mstore\n        /* \"#utility.yul\":4522:4540   */\n      swap2\n      dup4\n      add\n        /* \"#utility.yul\":4515:4549   */\n      mstore\n        /* \"#utility.yul\":4592:4606   */\n      iszero\n        /* \"#utility.yul\":4585:4607   */\n      iszero\n        /* \"#utility.yul\":4580:4582   */\n      0x60\n        /* \"#utility.yul\":4565:4583   */\n      dup3\n      add\n        /* \"#utility.yul\":4558:4608   */\n      mstore\n        /* \"#utility.yul\":4399:4402   */\n      0x80\n        /* \"#utility.yul\":4384:4403   */\n      add\n        /* \"contracts/mintone.sol\":1478:1515  mapping(address => User) public users */\n      tag_38\n        /* \"#utility.yul\":4187:4614   */\n      jump\n        /* \"contracts/mintone.sol\":441:464  IERC20 public usdtToken */\n    tag_20:\n      sload(0x02)\n      tag_40\n      swap1\n      sub(shl(0xa0, 0x01), 0x01)\n      and\n      dup2\n      jump\n        /* \"contracts/mintone.sol\":7355:7486  function getDirectReferralIncome(address user) external view returns (uint256) {... */\n    tag_21:\n      tag_66\n      tag_113\n      calldatasize\n      0x04\n      tag_48\n      jump\t// in\n    tag_113:\n      sub(shl(0xa0, 0x01), 0x01)\n        /* \"contracts/mintone.sol\":7452:7478  directReferralIncome[user] */\n      and\n        /* \"contracts/mintone.sol\":7425:7432  uint256 */\n      0x00\n        /* \"contracts/mintone.sol\":7452:7478  directReferralIncome[user] */\n      swap1\n      dup2\n      mstore\n        /* \"contracts/mintone.sol\":7452:7472  directReferralIncome */\n      0x07\n        /* \"contracts/mintone.sol\":7452:7478  directReferralIncome[user] */\n      0x20\n      mstore\n      0x40\n      swap1\n      keccak256\n      sload\n      swap1\n        /* \"contracts/mintone.sol\":7355:7486  function getDirectReferralIncome(address user) external view returns (uint256) {... */\n      jump\n        /* \"contracts/mintone.sol\":4525:4979  function getEstimatedReturn(uint256 amount, uint256 numDays) external view returns (uint256 interest, uint256 totalReturn) {... */\n    tag_22:\n      tag_116\n      tag_117\n      calldatasize\n      0x04\n      tag_78\n      jump\t// in\n    tag_117:\n      tag_118\n      jump\t// in\n    tag_116:\n      0x40\n      dup1\n      mload\n        /* \"#utility.yul\":5014:5039   */\n      swap3\n      dup4\n      mstore\n        /* \"#utility.yul\":5070:5072   */\n      0x20\n        /* \"#utility.yul\":5055:5073   */\n      dup4\n      add\n        /* \"#utility.yul\":5048:5082   */\n      swap2\n      swap1\n      swap2\n      mstore\n        /* \"#utility.yul\":4987:5005   */\n      add\n        /* \"contracts/mintone.sol\":4525:4979  function getEstimatedReturn(uint256 amount, uint256 numDays) external view returns (uint256 interest, uint256 totalReturn) {... */\n      tag_38\n        /* \"#utility.yul\":4840:5088   */\n      jump\n        /* \"contracts/mintone.sol\":7621:7740  function getTotalIncome(address user) external view returns (uint256) {... */\n    tag_23:\n      tag_66\n      tag_122\n      calldatasize\n      0x04\n      tag_48\n      jump\t// in\n    tag_122:\n      sub(shl(0xa0, 0x01), 0x01)\n        /* \"contracts/mintone.sol\":7709:7720  users[user] */\n      and\n        /* \"contracts/mintone.sol\":7682:7689  uint256 */\n      0x00\n        /* \"contracts/mintone.sol\":7709:7720  users[user] */\n      swap1\n      dup2\n      mstore\n        /* \"contracts/mintone.sol\":7709:7714  users */\n      0x03\n        /* \"contracts/mintone.sol\":7709:7720  users[user] */\n      0x20\n      mstore\n      0x40\n      swap1\n      keccak256\n        /* \"contracts/mintone.sol\":7709:7732  users[user].totalIncome */\n      0x02\n      add\n      sload\n      swap1\n        /* \"contracts/mintone.sol\":7621:7740  function getTotalIncome(address user) external view returns (uint256) {... */\n      jump\n        /* \"contracts/mintone.sol\":11017:11130  function isRegistered(address user) external view returns (bool) {... */\n    tag_24:\n      tag_125\n      tag_126\n      calldatasize\n      0x04\n      tag_48\n      jump\t// in\n    tag_126:\n      sub(shl(0xa0, 0x01), 0x01)\n        /* \"contracts/mintone.sol\":11100:11111  users[user] */\n      and\n        /* \"contracts/mintone.sol\":11076:11080  bool */\n      0x00\n        /* \"contracts/mintone.sol\":11100:11111  users[user] */\n      swap1\n      dup2\n      mstore\n        /* \"contracts/mintone.sol\":11100:11105  users */\n      0x03\n        /* \"contracts/mintone.sol\":11100:11111  users[user] */\n      0x20\n      mstore\n      0x40\n      swap1\n      keccak256\n        /* \"contracts/mintone.sol\":11100:11122  users[user].registered */\n      0x04\n      add\n      sload\n      0xff\n      and\n      swap1\n        /* \"contracts/mintone.sol\":11017:11130  function isRegistered(address user) external view returns (bool) {... */\n      jump\n    tag_125:\n      mload(0x40)\n        /* \"#utility.yul\":5258:5272   */\n      swap1\n      iszero\n        /* \"#utility.yul\":5251:5273   */\n      iszero\n        /* \"#utility.yul\":5233:5274   */\n      dup2\n      mstore\n        /* \"#utility.yul\":5221:5223   */\n      0x20\n        /* \"#utility.yul\":5206:5224   */\n      add\n        /* \"contracts/mintone.sol\":11017:11130  function isRegistered(address user) external view returns (bool) {... */\n      tag_38\n        /* \"#utility.yul\":5093:5280   */\n      jump\n        /* \"contracts/mintone.sol\":1792:1838  uint8[5] public levelRewards = [5, 3, 2, 1, 1] */\n    tag_25:\n      tag_46\n      tag_131\n      calldatasize\n      0x04\n      tag_42\n      jump\t// in\n    tag_131:\n      tag_132\n      jump\t// in\n        /* \"contracts/mintone.sol\":8737:10671  function getLevelIncomeDistribution(address _user) external view returns (LevelIncomeData[] memory) {... */\n    tag_26:\n      tag_134\n      tag_135\n      calldatasize\n      0x04\n      tag_48\n      jump\t// in\n    tag_135:\n      tag_136\n      jump\t// in\n    tag_134:\n      mload(0x40)\n      tag_38\n      swap2\n      swap1\n      tag_138\n      jump\t// in\n        /* \"contracts/mintone.sol\":1696:1751  mapping(address => uint256) public directReferralIncome */\n    tag_27:\n      tag_66\n      tag_140\n      calldatasize\n      0x04\n      tag_48\n      jump\t// in\n    tag_140:\n      mstore(0x20, 0x07)\n      0x00\n      swap1\n      dup2\n      mstore\n      0x40\n      swap1\n      keccak256\n      sload\n      dup2\n      jump\n        /* \"contracts/mintone.sol\":407:434  uint256 public stakeCounter */\n    tag_28:\n      tag_66\n      sload(0x01)\n      dup2\n      jump\n        /* \"contracts/mintone.sol\":1522:1579  mapping(address => ReferralInfo[]) public directReferrals */\n    tag_37:\n      mstore(0x20, 0x04)\n      dup2\n      0x00\n      mstore\n      keccak256(0x00, 0x40)\n      dup2\n      dup2\n      sload\n      dup2\n      lt\n      tag_146\n      jumpi\n      0x00\n      dup1\n      revert\n    tag_146:\n      0x00\n      swap2\n      dup3\n      mstore\n      0x20\n      swap1\n      swap2\n      keccak256\n      0x03\n      swap1\n      swap2\n      mul\n      add\n      dup1\n      sload\n      0x01\n      dup3\n      add\n      sload\n      0x02\n      swap1\n      swap3\n      add\n      sload\n      sub(shl(0xa0, 0x01), 0x01)\n      swap1\n      swap2\n      and\n      swap4\n      pop\n      swap1\n      swap2\n      pop\n      dup4\n      jump\t// out\n        /* \"contracts/mintone.sol\":8475:8729  function getUserLevel(address user) external view returns (uint8) {... */\n    tag_49:\n      sub(shl(0xa0, 0x01), 0x01)\n        /* \"contracts/mintone.sol\":8568:8589  directReferrals[user] */\n      dup2\n      and\n        /* \"contracts/mintone.sol\":8534:8539  uint8 */\n      0x00\n        /* \"contracts/mintone.sol\":8568:8589  directReferrals[user] */\n      swap1\n      dup2\n      mstore\n        /* \"contracts/mintone.sol\":8568:8583  directReferrals */\n      0x04\n        /* \"contracts/mintone.sol\":8568:8589  directReferrals[user] */\n      0x20\n      mstore\n      0x40\n      dup2\n      keccak256\n        /* \"contracts/mintone.sol\":8568:8596  directReferrals[user].length */\n      sload\n        /* \"contracts/mintone.sol\":8620:8622  10 */\n      0x0a\n        /* \"contracts/mintone.sol\":8611:8622  count >= 10 */\n      dup2\n      lt\n        /* \"contracts/mintone.sol\":8607:8632  if (count >= 10) return 3 */\n      tag_149\n      jumpi\n      pop\n        /* \"contracts/mintone.sol\":8631:8632  3 */\n      0x03\n      swap3\n        /* \"contracts/mintone.sol\":8475:8729  function getUserLevel(address user) external view returns (uint8) {... */\n      swap2\n      pop\n      pop\n      jump\t// out\n        /* \"contracts/mintone.sol\":8607:8632  if (count >= 10) return 3 */\n    tag_149:\n        /* \"contracts/mintone.sol\":8656:8657  5 */\n      0x05\n        /* \"contracts/mintone.sol\":8647:8652  count */\n      dup2\n        /* \"contracts/mintone.sol\":8647:8657  count >= 5 */\n      lt\n        /* \"contracts/mintone.sol\":8643:8667  if (count >= 5) return 2 */\n      tag_150\n      jumpi\n      pop\n        /* \"contracts/mintone.sol\":8666:8667  2 */\n      0x02\n      swap3\n        /* \"contracts/mintone.sol\":8475:8729  function getUserLevel(address user) external view returns (uint8) {... */\n      swap2\n      pop\n      pop\n      jump\t// out\n        /* \"contracts/mintone.sol\":8643:8667  if (count >= 5) return 2 */\n    tag_150:\n        /* \"contracts/mintone.sol\":8691:8692  1 */\n      0x01\n        /* \"contracts/mintone.sol\":8682:8687  count */\n      dup2\n        /* \"contracts/mintone.sol\":8682:8692  count >= 1 */\n      lt\n        /* \"contracts/mintone.sol\":8678:8702  if (count >= 1) return 1 */\n      tag_151\n      jumpi\n      pop\n        /* \"contracts/mintone.sol\":8701:8702  1 */\n      0x01\n      swap3\n        /* \"contracts/mintone.sol\":8475:8729  function getUserLevel(address user) external view returns (uint8) {... */\n      swap2\n      pop\n      pop\n      jump\t// out\n        /* \"contracts/mintone.sol\":8678:8702  if (count >= 1) return 1 */\n    tag_151:\n      pop\n        /* \"contracts/mintone.sol\":8720:8721  0 */\n      0x00\n      swap3\n        /* \"contracts/mintone.sol\":8475:8729  function getUserLevel(address user) external view returns (uint8) {... */\n      swap2\n      pop\n      pop\n      jump\t// out\n        /* \"contracts/mintone.sol\":6872:7207  function getPositionIds(address _user) external view returns (uint256[] memory) {... */\n    tag_54:\n      sub(shl(0xa0, 0x01), 0x01)\n        /* \"contracts/mintone.sol\":6979:6991  users[_user] */\n      dup2\n      and\n        /* \"contracts/mintone.sol\":6963:6976  uint256 count */\n      0x00\n        /* \"contracts/mintone.sol\":6979:6991  users[_user] */\n      swap1\n      dup2\n      mstore\n        /* \"contracts/mintone.sol\":6979:6984  users */\n      0x03\n        /* \"contracts/mintone.sol\":6979:6991  users[_user] */\n      0x20\n      mstore\n      0x40\n      dup2\n      keccak256\n        /* \"contracts/mintone.sol\":6979:6998  users[_user].stakes */\n      0x01\n      add\n        /* \"contracts/mintone.sol\":6979:7005  users[_user].stakes.length */\n      sload\n        /* \"contracts/mintone.sol\":6934:6950  uint256[] memory */\n      0x60\n      swap2\n        /* \"contracts/mintone.sol\":6979:7005  users[_user].stakes.length */\n      dup2\n        /* \"contracts/mintone.sol\":7039:7059  new uint256[](count) */\n      0xffffffffffffffff\n      dup2\n      gt\n      iszero\n      tag_154\n      jumpi\n      tag_154\n      tag_155\n      jump\t// in\n    tag_154:\n      mload(0x40)\n      swap1\n      dup1\n      dup3\n      mstore\n      dup1\n      0x20\n      mul\n      0x20\n      add\n      dup3\n      add\n      0x40\n      mstore\n      dup1\n      iszero\n      tag_156\n      jumpi\n      dup2\n      0x20\n      add\n      0x20\n      dup3\n      mul\n      dup1\n      calldatasize\n      dup4\n      calldatacopy\n      add\n      swap1\n      pop\n    tag_156:\n      pop\n        /* \"contracts/mintone.sol\":7016:7059  uint256[] memory ids = new uint256[](count) */\n      swap1\n      pop\n        /* \"contracts/mintone.sol\":7077:7086  uint256 i */\n      0x00\n        /* \"contracts/mintone.sol\":7072:7177  for (uint256 i = 0; i < count; i++) {... */\n    tag_157:\n        /* \"contracts/mintone.sol\":7096:7101  count */\n      dup3\n        /* \"contracts/mintone.sol\":7092:7093  i */\n      dup2\n        /* \"contracts/mintone.sol\":7092:7101  i < count */\n      lt\n        /* \"contracts/mintone.sol\":7072:7177  for (uint256 i = 0; i < count; i++) {... */\n      iszero\n      tag_158\n      jumpi\n      sub(shl(0xa0, 0x01), 0x01)\n        /* \"contracts/mintone.sol\":7132:7144  users[_user] */\n      dup6\n      and\n      0x00\n      swap1\n      dup2\n      mstore\n        /* \"contracts/mintone.sol\":7132:7137  users */\n      0x03\n        /* \"contracts/mintone.sol\":7132:7144  users[_user] */\n      0x20\n      mstore\n      0x40\n      swap1\n      keccak256\n        /* \"contracts/mintone.sol\":7132:7151  users[_user].stakes */\n      0x01\n      add\n        /* \"contracts/mintone.sol\":7132:7154  users[_user].stakes[i] */\n      dup1\n      sload\n        /* \"contracts/mintone.sol\":7152:7153  i */\n      dup3\n      swap1\n        /* \"contracts/mintone.sol\":7132:7154  users[_user].stakes[i] */\n      dup2\n      lt\n      tag_161\n      jumpi\n      tag_161\n      tag_162\n      jump\t// in\n    tag_161:\n      swap1\n      0x00\n      mstore\n      keccak256(0x00, 0x20)\n      swap1\n      0x06\n      mul\n      add\n        /* \"contracts/mintone.sol\":7132:7165  users[_user].stakes[i].positionId */\n      0x01\n      add\n      sload\n        /* \"contracts/mintone.sol\":7123:7126  ids */\n      dup3\n        /* \"contracts/mintone.sol\":7127:7128  i */\n      dup3\n        /* \"contracts/mintone.sol\":7123:7129  ids[i] */\n      dup2\n      mload\n      dup2\n      lt\n      tag_165\n      jumpi\n      tag_165\n      tag_162\n      jump\t// in\n    tag_165:\n      0x20\n      swap1\n      dup2\n      mul\n      swap2\n      swap1\n      swap2\n      add\n      add\n        /* \"contracts/mintone.sol\":7123:7165  ids[i] = users[_user].stakes[i].positionId */\n      mstore\n        /* \"contracts/mintone.sol\":7103:7106  i++ */\n      0x01\n      add\n        /* \"contracts/mintone.sol\":7072:7177  for (uint256 i = 0; i < count; i++) {... */\n      jump(tag_157)\n    tag_158:\n      pop\n        /* \"contracts/mintone.sol\":7196:7199  ids */\n      swap4\n        /* \"contracts/mintone.sol\":6872:7207  function getPositionIds(address _user) external view returns (uint256[] memory) {... */\n      swap3\n      pop\n      pop\n      pop\n      jump\t// out\n        /* \"contracts/mintone.sol\":4987:6214  function claim(uint256 _positionId) external onlyRegistered {... */\n    tag_59:\n        /* \"contracts/mintone.sol\":1991:2001  msg.sender */\n      caller\n        /* \"contracts/mintone.sol\":1985:2002  users[msg.sender] */\n      0x00\n      swap1\n      dup2\n      mstore\n        /* \"contracts/mintone.sol\":1985:1990  users */\n      0x03\n        /* \"contracts/mintone.sol\":1985:2002  users[msg.sender] */\n      0x20\n      mstore\n      0x40\n      swap1\n      keccak256\n        /* \"contracts/mintone.sol\":1985:2013  users[msg.sender].registered */\n      0x04\n      add\n      sload\n      0xff\n      and\n        /* \"contracts/mintone.sol\":1977:2032  require(users[msg.sender].registered, \"Not registered\") */\n      tag_167\n      jumpi\n      mload(0x40)\n      shl(0xe5, 0x461bcd)\n      dup2\n      mstore\n        /* \"#utility.yul\":7004:7006   */\n      0x20\n        /* \"contracts/mintone.sol\":1977:2032  require(users[msg.sender].registered, \"Not registered\") */\n      0x04\n      dup3\n      add\n        /* \"#utility.yul\":6986:7007   */\n      mstore\n        /* \"#utility.yul\":7043:7045   */\n      0x0e\n        /* \"#utility.yul\":7023:7041   */\n      0x24\n      dup3\n      add\n        /* \"#utility.yul\":7016:7046   */\n      mstore\n      shl(0x92, 0x139bdd081c9959da5cdd195c9959)\n        /* \"#utility.yul\":7062:7080   */\n      0x44\n      dup3\n      add\n        /* \"#utility.yul\":7055:7099   */\n      mstore\n        /* \"#utility.yul\":7116:7134   */\n      0x64\n      add\n        /* \"contracts/mintone.sol\":1977:2032  require(users[msg.sender].registered, \"Not registered\") */\n    tag_168:\n      mload(0x40)\n      dup1\n      swap2\n      sub\n      swap1\n      revert\n    tag_167:\n        /* \"contracts/mintone.sol\":5058:5074  address userAddr */\n      0x00\n        /* \"contracts/mintone.sol\":5077:5106  positionIdToUser[_positionId] */\n      dup2\n      dup2\n      mstore\n        /* \"contracts/mintone.sol\":5077:5093  positionIdToUser */\n      0x05\n        /* \"contracts/mintone.sol\":5077:5106  positionIdToUser[_positionId] */\n      0x20\n      mstore\n      0x40\n      swap1\n      keccak256\n      sload\n      sub(shl(0xa0, 0x01), 0x01)\n      and\n        /* \"contracts/mintone.sol\":5137:5147  msg.sender */\n      caller\n        /* \"contracts/mintone.sol\":5125:5147  userAddr == msg.sender */\n      dup2\n      eq\n        /* \"contracts/mintone.sol\":5117:5166  require(userAddr == msg.sender, \"Not your stake\") */\n      tag_171\n      jumpi\n      mload(0x40)\n      shl(0xe5, 0x461bcd)\n      dup2\n      mstore\n        /* \"#utility.yul\":7347:7349   */\n      0x20\n        /* \"contracts/mintone.sol\":5117:5166  require(userAddr == msg.sender, \"Not your stake\") */\n      0x04\n      dup3\n      add\n        /* \"#utility.yul\":7329:7350   */\n      mstore\n        /* \"#utility.yul\":7386:7388   */\n      0x0e\n        /* \"#utility.yul\":7366:7384   */\n      0x24\n      dup3\n      add\n        /* \"#utility.yul\":7359:7389   */\n      mstore\n      shl(0x90, 0x4e6f7420796f7572207374616b65)\n        /* \"#utility.yul\":7405:7423   */\n      0x44\n      dup3\n      add\n        /* \"#utility.yul\":7398:7442   */\n      mstore\n        /* \"#utility.yul\":7459:7477   */\n      0x64\n      add\n        /* \"contracts/mintone.sol\":5117:5166  require(userAddr == msg.sender, \"Not your stake\") */\n      tag_168\n        /* \"#utility.yul\":7145:7483   */\n      jump\n        /* \"contracts/mintone.sol\":5117:5166  require(userAddr == msg.sender, \"Not your stake\") */\n    tag_171:\n        /* \"contracts/mintone.sol\":5210:5220  msg.sender */\n      caller\n        /* \"contracts/mintone.sol\":5179:5201  Stake[] storage stakes */\n      0x00\n        /* \"contracts/mintone.sol\":5204:5221  users[msg.sender] */\n      swap1\n      dup2\n      mstore\n        /* \"contracts/mintone.sol\":5204:5209  users */\n      0x03\n        /* \"contracts/mintone.sol\":5204:5221  users[msg.sender] */\n      0x20\n      mstore\n      0x40\n      dup2\n      keccak256\n        /* \"contracts/mintone.sol\":5204:5228  users[msg.sender].stakes */\n      0x01\n      add\n      swap1\n        /* \"contracts/mintone.sol\":5241:6148  for (uint256 i = 0; i < stakes.length; i++) {... */\n    tag_174:\n        /* \"contracts/mintone.sol\":5265:5278  stakes.length */\n      dup2\n      sload\n        /* \"contracts/mintone.sol\":5261:5278  i < stakes.length */\n      dup2\n      lt\n        /* \"contracts/mintone.sol\":5241:6148  for (uint256 i = 0; i < stakes.length; i++) {... */\n      iszero\n      tag_175\n      jumpi\n        /* \"contracts/mintone.sol\":5300:5315  Stake storage s */\n      0x00\n        /* \"contracts/mintone.sol\":5318:5324  stakes */\n      dup3\n        /* \"contracts/mintone.sol\":5325:5326  i */\n      dup3\n        /* \"contracts/mintone.sol\":5318:5327  stakes[i] */\n      dup2\n      sload\n      dup2\n      lt\n      tag_178\n      jumpi\n      tag_178\n      tag_162\n      jump\t// in\n    tag_178:\n      swap1\n      0x00\n      mstore\n      keccak256(0x00, 0x20)\n      swap1\n      0x06\n      mul\n      add\n        /* \"contracts/mintone.sol\":5300:5327  Stake storage s = stakes[i] */\n      swap1\n      pop\n        /* \"contracts/mintone.sol\":5362:5373  _positionId */\n      dup5\n        /* \"contracts/mintone.sol\":5346:5347  s */\n      dup2\n        /* \"contracts/mintone.sol\":5346:5358  s.positionId */\n      0x01\n      add\n      sload\n        /* \"contracts/mintone.sol\":5346:5373  s.positionId == _positionId */\n      sub\n        /* \"contracts/mintone.sol\":5342:6137  if (s.positionId == _positionId) {... */\n      tag_180\n      jumpi\n        /* \"contracts/mintone.sol\":5403:5412  s.claimed */\n      0x05\n      dup2\n      add\n      sload\n      0xff\n      and\n        /* \"contracts/mintone.sol\":5402:5412  !s.claimed */\n      iszero\n        /* \"contracts/mintone.sol\":5394:5432  require(!s.claimed, \"Already claimed\") */\n      tag_181\n      jumpi\n      mload(0x40)\n      shl(0xe5, 0x461bcd)\n      dup2\n      mstore\n        /* \"#utility.yul\":7690:7692   */\n      0x20\n        /* \"contracts/mintone.sol\":5394:5432  require(!s.claimed, \"Already claimed\") */\n      0x04\n      dup3\n      add\n        /* \"#utility.yul\":7672:7693   */\n      mstore\n        /* \"#utility.yul\":7729:7731   */\n      0x0f\n        /* \"#utility.yul\":7709:7727   */\n      0x24\n      dup3\n      add\n        /* \"#utility.yul\":7702:7732   */\n      mstore\n      shl(0x8a, 0x105b1c9958591e4818db185a5b5959)\n        /* \"#utility.yul\":7748:7766   */\n      0x44\n      dup3\n      add\n        /* \"#utility.yul\":7741:7786   */\n      mstore\n        /* \"#utility.yul\":7803:7821   */\n      0x64\n      add\n        /* \"contracts/mintone.sol\":5394:5432  require(!s.claimed, \"Already claimed\") */\n      tag_168\n        /* \"#utility.yul\":7488:7827   */\n      jump\n        /* \"contracts/mintone.sol\":5394:5432  require(!s.claimed, \"Already claimed\") */\n    tag_181:\n        /* \"contracts/mintone.sol\":5453:5472  uint256 elapsedDays */\n      0x00\n        /* \"contracts/mintone.sol\":5509:5515  1 days */\n      0x015180\n        /* \"contracts/mintone.sol\":5494:5495  s */\n      dup3\n        /* \"contracts/mintone.sol\":5494:5505  s.timestamp */\n      0x03\n      add\n      sload\n        /* \"contracts/mintone.sol\":5476:5491  block.timestamp */\n      timestamp\n        /* \"contracts/mintone.sol\":5476:5505  block.timestamp - s.timestamp */\n      tag_184\n      swap2\n      swap1\n      tag_185\n      jump\t// in\n    tag_184:\n        /* \"contracts/mintone.sol\":5475:5515  (block.timestamp - s.timestamp) / 1 days */\n      tag_186\n      swap2\n      swap1\n      tag_187\n      jump\t// in\n    tag_186:\n        /* \"contracts/mintone.sol\":5453:5515  uint256 elapsedDays = (block.timestamp - s.timestamp) / 1 days */\n      swap1\n      pop\n        /* \"contracts/mintone.sol\":5534:5548  uint256 reward */\n      0x00\n        /* \"contracts/mintone.sol\":5592:5593  s */\n      dup3\n        /* \"contracts/mintone.sol\":5592:5601  s.numDays */\n      0x04\n      add\n      sload\n        /* \"contracts/mintone.sol\":5577:5588  elapsedDays */\n      dup3\n        /* \"contracts/mintone.sol\":5577:5601  elapsedDays >= s.numDays */\n      lt\n        /* \"contracts/mintone.sol\":5573:5881  if (elapsedDays >= s.numDays) {... */\n      tag_188\n      jumpi\n        /* \"contracts/mintone.sol\":5658:5667  s.numDays */\n      0x04\n      dup4\n      add\n      sload\n        /* \"contracts/mintone.sol\":5647:5668  stakingAPY[s.numDays] */\n      0x00\n      swap1\n      dup2\n      mstore\n        /* \"contracts/mintone.sol\":5647:5657  stakingAPY */\n      0x06\n        /* \"contracts/mintone.sol\":5647:5668  stakingAPY[s.numDays] */\n      0x20\n      mstore\n      0x40\n      swap1\n      keccak256\n      sload\n        /* \"contracts/mintone.sol\":5636:5644  s.amount */\n      0x02\n      dup5\n      add\n      sload\n        /* \"contracts/mintone.sol\":5672:5675  100 */\n      0x64\n      swap2\n        /* \"contracts/mintone.sol\":5636:5668  s.amount * stakingAPY[s.numDays] */\n      tag_189\n      swap2\n      tag_190\n      jump\t// in\n    tag_189:\n        /* \"contracts/mintone.sol\":5635:5675  (s.amount * stakingAPY[s.numDays]) / 100 */\n      tag_191\n      swap2\n      swap1\n      tag_187\n      jump\t// in\n    tag_191:\n        /* \"contracts/mintone.sol\":5626:5675  reward = (s.amount * stakingAPY[s.numDays]) / 100 */\n      swap1\n      pop\n        /* \"contracts/mintone.sol\":5573:5881  if (elapsedDays >= s.numDays) {... */\n      jump(tag_194)\n    tag_188:\n        /* \"contracts/mintone.sol\":5719:5721  20 */\n      0x14\n        /* \"contracts/mintone.sol\":5705:5716  elapsedDays */\n      dup3\n        /* \"contracts/mintone.sol\":5705:5721  elapsedDays < 20 */\n      lt\n        /* \"contracts/mintone.sol\":5701:5881  if (elapsedDays < 20) {... */\n      iszero\n      tag_193\n      jumpi\n      pop\n        /* \"contracts/mintone.sol\":5755:5756  0 */\n      0x00\n        /* \"contracts/mintone.sol\":5701:5881  if (elapsedDays < 20) {... */\n      jump(tag_194)\n    tag_193:\n        /* \"contracts/mintone.sol\":5805:5861  revert(\"Cannot claim between 20 days and full duration\") */\n      mload(0x40)\n      shl(0xe5, 0x461bcd)\n      dup2\n      mstore\n        /* \"#utility.yul\":8694:8696   */\n      0x20\n        /* \"contracts/mintone.sol\":5805:5861  revert(\"Cannot claim between 20 days and full duration\") */\n      0x04\n      dup3\n      add\n        /* \"#utility.yul\":8676:8697   */\n      mstore\n        /* \"#utility.yul\":8733:8735   */\n      0x2e\n        /* \"#utility.yul\":8713:8731   */\n      0x24\n      dup3\n      add\n        /* \"#utility.yul\":8706:8736   */\n      mstore\n        /* \"#utility.yul\":8772:8806   */\n      0x43616e6e6f7420636c61696d206265747765656e203230206461797320616e64\n        /* \"#utility.yul\":8752:8770   */\n      0x44\n      dup3\n      add\n        /* \"#utility.yul\":8745:8807   */\n      mstore\n      shl(0x91, 0x10333ab63610323ab930ba34b7b7)\n        /* \"#utility.yul\":8823:8841   */\n      0x64\n      dup3\n      add\n        /* \"#utility.yul\":8816:8860   */\n      mstore\n        /* \"#utility.yul\":8877:8896   */\n      0x84\n      add\n        /* \"contracts/mintone.sol\":5805:5861  revert(\"Cannot claim between 20 days and full duration\") */\n      tag_168\n        /* \"#utility.yul\":8492:8902   */\n      jump\n        /* \"contracts/mintone.sol\":5701:5881  if (elapsedDays < 20) {... */\n    tag_194:\n        /* \"contracts/mintone.sol\":5901:5910  s.claimed */\n      0x05\n      dup4\n      add\n        /* \"contracts/mintone.sol\":5901:5917  s.claimed = true */\n      dup1\n      sload\n      not(0xff)\n      and\n        /* \"contracts/mintone.sol\":5913:5917  true */\n      0x01\n        /* \"contracts/mintone.sol\":5901:5917  s.claimed = true */\n      or\n      swap1\n      sstore\n        /* \"contracts/mintone.sol\":5944:5953  usdtToken */\n      0x02\n      dup1\n      sload\n        /* \"contracts/mintone.sol\":5975:5983  s.amount */\n      swap1\n      dup5\n      add\n      sload\n      sub(shl(0xa0, 0x01), 0x01)\n        /* \"contracts/mintone.sol\":5944:5953  usdtToken */\n      swap1\n      swap2\n      and\n      swap1\n        /* \"contracts/mintone.sol\":5944:5962  usdtToken.transfer */\n      0xa9059cbb\n      swap1\n        /* \"contracts/mintone.sol\":5963:5973  msg.sender */\n      caller\n      swap1\n        /* \"contracts/mintone.sol\":5975:5992  s.amount + reward */\n      tag_197\n      swap1\n        /* \"contracts/mintone.sol\":5986:5992  reward */\n      dup6\n      swap1\n        /* \"contracts/mintone.sol\":5975:5992  s.amount + reward */\n      tag_198\n      jump\t// in\n    tag_197:\n        /* \"contracts/mintone.sol\":5944:5993  usdtToken.transfer(msg.sender, s.amount + reward) */\n      mload(0x40)\n      not(sub(shl(0xe0, 0x01), 0x01))\n      0xe0\n      dup6\n      swap1\n      shl\n      and\n      dup2\n      mstore\n      sub(shl(0xa0, 0x01), 0x01)\n        /* \"#utility.yul\":9229:9261   */\n      swap1\n      swap3\n      and\n        /* \"contracts/mintone.sol\":5944:5993  usdtToken.transfer(msg.sender, s.amount + reward) */\n      0x04\n      dup4\n      add\n        /* \"#utility.yul\":9211:9262   */\n      mstore\n        /* \"#utility.yul\":9278:9296   */\n      0x24\n      dup3\n      add\n        /* \"#utility.yul\":9271:9305   */\n      mstore\n        /* \"#utility.yul\":9184:9202   */\n      0x44\n      add\n        /* \"contracts/mintone.sol\":5944:5993  usdtToken.transfer(msg.sender, s.amount + reward) */\n      0x20\n      mload(0x40)\n      dup1\n      dup4\n      sub\n      dup2\n      0x00\n      dup8\n      gas\n      call\n      iszero\n      dup1\n      iszero\n      tag_202\n      jumpi\n      returndatasize\n      0x00\n      dup1\n      returndatacopy\n      revert(0x00, returndatasize)\n    tag_202:\n      pop\n      pop\n      pop\n      pop\n      mload(0x40)\n      returndatasize\n      not(0x1f)\n      0x1f\n      dup3\n      add\n      and\n      dup3\n      add\n      dup1\n      0x40\n      mstore\n      pop\n      dup2\n      add\n      swap1\n      tag_203\n      swap2\n      swap1\n      tag_204\n      jump\t// in\n    tag_203:\n        /* \"contracts/mintone.sol\":5936:6019  require(usdtToken.transfer(msg.sender, s.amount + reward), \"Token transfer failed\") */\n      tag_205\n      jumpi\n      mload(0x40)\n      shl(0xe5, 0x461bcd)\n      dup2\n      mstore\n        /* \"#utility.yul\":9800:9802   */\n      0x20\n        /* \"contracts/mintone.sol\":5936:6019  require(usdtToken.transfer(msg.sender, s.amount + reward), \"Token transfer failed\") */\n      0x04\n      dup3\n      add\n        /* \"#utility.yul\":9782:9803   */\n      mstore\n        /* \"#utility.yul\":9839:9841   */\n      0x15\n        /* \"#utility.yul\":9819:9837   */\n      0x24\n      dup3\n      add\n        /* \"#utility.yul\":9812:9842   */\n      mstore\n      shl(0x5a, 0x151bdad95b881d1c985b9cd9995c8819985a5b1959)\n        /* \"#utility.yul\":9858:9876   */\n      0x44\n      dup3\n      add\n        /* \"#utility.yul\":9851:9902   */\n      mstore\n        /* \"#utility.yul\":9919:9937   */\n      0x64\n      add\n        /* \"contracts/mintone.sol\":5936:6019  require(usdtToken.transfer(msg.sender, s.amount + reward), \"Token transfer failed\") */\n      tag_168\n        /* \"#utility.yul\":9598:9943   */\n      jump\n        /* \"contracts/mintone.sol\":5936:6019  require(usdtToken.transfer(msg.sender, s.amount + reward), \"Token transfer failed\") */\n    tag_205:\n        /* \"contracts/mintone.sol\":6065:6077  s.positionId */\n      0x01\n      dup4\n      add\n      sload\n        /* \"contracts/mintone.sol\":6079:6087  s.amount */\n      0x02\n      dup5\n      add\n      sload\n        /* \"contracts/mintone.sol\":6045:6096  Claimed(msg.sender, s.positionId, s.amount, reward) */\n      0x40\n      dup1\n      mload\n        /* \"#utility.yul\":10150:10175   */\n      swap3\n      dup4\n      mstore\n        /* \"#utility.yul\":10206:10208   */\n      0x20\n        /* \"#utility.yul\":10191:10209   */\n      dup4\n      add\n        /* \"#utility.yul\":10184:10218   */\n      swap2\n      swap1\n      swap2\n      mstore\n        /* \"#utility.yul\":10234:10252   */\n      dup2\n      add\n        /* \"#utility.yul\":10227:10261   */\n      dup3\n      swap1\n      mstore\n        /* \"contracts/mintone.sol\":6053:6063  msg.sender */\n      caller\n      swap1\n        /* \"contracts/mintone.sol\":6045:6096  Claimed(msg.sender, s.positionId, s.amount, reward) */\n      0x9cdcf2f7714cca3508c7f0110b04a90a80a3a8dd0e35de99689db74d28c5383e\n      swap1\n        /* \"#utility.yul\":10138:10140   */\n      0x60\n        /* \"#utility.yul\":10123:10141   */\n      add\n        /* \"contracts/mintone.sol\":6045:6096  Claimed(msg.sender, s.positionId, s.amount, reward) */\n      mload(0x40)\n      dup1\n      swap2\n      sub\n      swap1\n      log2\n        /* \"contracts/mintone.sol\":6115:6122  return; */\n      pop\n      pop\n      pop\n      pop\n      pop\n      pop\n        /* \"contracts/mintone.sol\":4987:6214  function claim(uint256 _positionId) external onlyRegistered {... */\n      pop\n      jump\t// out\n        /* \"contracts/mintone.sol\":5342:6137  if (s.positionId == _positionId) {... */\n    tag_180:\n      pop\n        /* \"contracts/mintone.sol\":5280:5283  i++ */\n      0x01\n      add\n        /* \"contracts/mintone.sol\":5241:6148  for (uint256 i = 0; i < stakes.length; i++) {... */\n      jump(tag_174)\n    tag_175:\n      pop\n        /* \"contracts/mintone.sol\":6160:6206  revert(\"Stake not found for given positionId\") */\n      mload(0x40)\n      shl(0xe5, 0x461bcd)\n      dup2\n      mstore\n        /* \"#utility.yul\":10474:10476   */\n      0x20\n        /* \"contracts/mintone.sol\":6160:6206  revert(\"Stake not found for given positionId\") */\n      0x04\n      dup3\n      add\n        /* \"#utility.yul\":10456:10477   */\n      mstore\n        /* \"#utility.yul\":10513:10515   */\n      0x24\n        /* \"#utility.yul\":10493:10511   */\n      dup1\n      dup3\n      add\n        /* \"#utility.yul\":10486:10516   */\n      mstore\n        /* \"#utility.yul\":10552:10586   */\n      0x5374616b65206e6f7420666f756e6420666f7220676976656e20706f73697469\n        /* \"#utility.yul\":10532:10550   */\n      0x44\n      dup3\n      add\n        /* \"#utility.yul\":10525:10587   */\n      mstore\n      shl(0xe2, 0x1bdb9259)\n        /* \"#utility.yul\":10603:10621   */\n      0x64\n      dup3\n      add\n        /* \"#utility.yul\":10596:10630   */\n      mstore\n        /* \"#utility.yul\":10647:10666   */\n      0x84\n      add\n        /* \"contracts/mintone.sol\":6160:6206  revert(\"Stake not found for given positionId\") */\n      tag_168\n        /* \"#utility.yul\":10272:10672   */\n      jump\n        /* \"contracts/mintone.sol\":10679:11009  function withdrawUSDT(uint256 amount) external {... */\n    tag_62:\n        /* \"contracts/mintone.sol\":10759:10764  owner */\n      and(sub(shl(0xa0, 0x01), 0x01), sload(0x00))\n        /* \"contracts/mintone.sol\":10745:10755  msg.sender */\n      caller\n        /* \"contracts/mintone.sol\":10745:10764  msg.sender == owner */\n      eq\n        /* \"contracts/mintone.sol\":10737:10792  require(msg.sender == owner, \"Only owner can withdraw\") */\n      tag_213\n      jumpi\n      mload(0x40)\n      shl(0xe5, 0x461bcd)\n      dup2\n      mstore\n        /* \"#utility.yul\":10879:10881   */\n      0x20\n        /* \"contracts/mintone.sol\":10737:10792  require(msg.sender == owner, \"Only owner can withdraw\") */\n      0x04\n      dup3\n      add\n        /* \"#utility.yul\":10861:10882   */\n      mstore\n        /* \"#utility.yul\":10918:10920   */\n      0x17\n        /* \"#utility.yul\":10898:10916   */\n      0x24\n      dup3\n      add\n        /* \"#utility.yul\":10891:10921   */\n      mstore\n        /* \"#utility.yul\":10957:10982   */\n      0x4f6e6c79206f776e65722063616e207769746864726177000000000000000000\n        /* \"#utility.yul\":10937:10955   */\n      0x44\n      dup3\n      add\n        /* \"#utility.yul\":10930:10983   */\n      mstore\n        /* \"#utility.yul\":11000:11018   */\n      0x64\n      add\n        /* \"contracts/mintone.sol\":10737:10792  require(msg.sender == owner, \"Only owner can withdraw\") */\n      tag_168\n        /* \"#utility.yul\":10677:11024   */\n      jump\n        /* \"contracts/mintone.sol\":10737:10792  require(msg.sender == owner, \"Only owner can withdraw\") */\n    tag_213:\n        /* \"contracts/mintone.sol\":10811:10820  usdtToken */\n      sload(0x02)\n        /* \"contracts/mintone.sol\":10811:10845  usdtToken.balanceOf(address(this)) */\n      mload(0x40)\n      shl(0xe0, 0x70a08231)\n      dup2\n      mstore\n        /* \"contracts/mintone.sol\":10839:10843  this */\n      address\n        /* \"contracts/mintone.sol\":10811:10845  usdtToken.balanceOf(address(this)) */\n      0x04\n      dup3\n      add\n        /* \"#utility.yul\":1132:1183   */\n      mstore\n        /* \"contracts/mintone.sol\":10849:10855  amount */\n      dup3\n      swap2\n      sub(shl(0xa0, 0x01), 0x01)\n        /* \"contracts/mintone.sol\":10811:10820  usdtToken */\n      and\n      swap1\n        /* \"contracts/mintone.sol\":10811:10830  usdtToken.balanceOf */\n      0x70a08231\n      swap1\n        /* \"#utility.yul\":1105:1123   */\n      0x24\n      add\n        /* \"contracts/mintone.sol\":10811:10845  usdtToken.balanceOf(address(this)) */\n      0x20\n      mload(0x40)\n      dup1\n      dup4\n      sub\n      dup2\n      dup7\n      gas\n      staticcall\n      iszero\n      dup1\n      iszero\n      tag_218\n      jumpi\n      returndatasize\n      0x00\n      dup1\n      returndatacopy\n      revert(0x00, returndatasize)\n    tag_218:\n      pop\n      pop\n      pop\n      pop\n      mload(0x40)\n      returndatasize\n      not(0x1f)\n      0x1f\n      dup3\n      add\n      and\n      dup3\n      add\n      dup1\n      0x40\n      mstore\n      pop\n      dup2\n      add\n      swap1\n      tag_219\n      swap2\n      swap1\n      tag_220\n      jump\t// in\n    tag_219:\n        /* \"contracts/mintone.sol\":10811:10855  usdtToken.balanceOf(address(this)) >= amount */\n      lt\n      iszero\n        /* \"contracts/mintone.sol\":10803:10892  require(usdtToken.balanceOf(address(this)) >= amount, \"Insufficient balance in contract\") */\n      tag_221\n      jumpi\n      mload(0x40)\n      shl(0xe5, 0x461bcd)\n      dup2\n      mstore\n        /* \"#utility.yul\":11420:11422   */\n      0x20\n        /* \"contracts/mintone.sol\":10803:10892  require(usdtToken.balanceOf(address(this)) >= amount, \"Insufficient balance in contract\") */\n      0x04\n      dup3\n      add\n        /* \"#utility.yul\":11402:11423   */\n      dup2\n      swap1\n      mstore\n        /* \"#utility.yul\":11439:11457   */\n      0x24\n      dup3\n      add\n        /* \"#utility.yul\":11432:11462   */\n      mstore\n        /* \"#utility.yul\":11498:11532   */\n      0x496e73756666696369656e742062616c616e636520696e20636f6e7472616374\n        /* \"#utility.yul\":11478:11496   */\n      0x44\n      dup3\n      add\n        /* \"#utility.yul\":11471:11533   */\n      mstore\n        /* \"#utility.yul\":11550:11568   */\n      0x64\n      add\n        /* \"contracts/mintone.sol\":10803:10892  require(usdtToken.balanceOf(address(this)) >= amount, \"Insufficient balance in contract\") */\n      tag_168\n        /* \"#utility.yul\":11218:11574   */\n      jump\n        /* \"contracts/mintone.sol\":10803:10892  require(usdtToken.balanceOf(address(this)) >= amount, \"Insufficient balance in contract\") */\n    tag_221:\n        /* \"contracts/mintone.sol\":10920:10929  usdtToken */\n      sload(0x02)\n        /* \"contracts/mintone.sol\":10905:10917  bool success */\n      0x00\n        /* \"contracts/mintone.sol\":10939:10944  owner */\n      dup1\n      sload\n        /* \"contracts/mintone.sol\":10920:10953  usdtToken.transfer(owner, amount) */\n      mload(0x40)\n      shl(0xe0, 0xa9059cbb)\n      dup2\n      mstore\n      sub(shl(0xa0, 0x01), 0x01)\n        /* \"contracts/mintone.sol\":10939:10944  owner */\n      swap2\n      dup3\n      and\n        /* \"contracts/mintone.sol\":10920:10953  usdtToken.transfer(owner, amount) */\n      0x04\n      dup3\n      add\n        /* \"#utility.yul\":9211:9262   */\n      mstore\n        /* \"#utility.yul\":9278:9296   */\n      0x24\n      dup2\n      add\n        /* \"#utility.yul\":9271:9305   */\n      dup6\n      swap1\n      mstore\n        /* \"contracts/mintone.sol\":10905:10917  bool success */\n      swap2\n      swap3\n        /* \"contracts/mintone.sol\":10920:10929  usdtToken */\n      and\n      swap1\n        /* \"contracts/mintone.sol\":10920:10938  usdtToken.transfer */\n      0xa9059cbb\n      swap1\n        /* \"#utility.yul\":9184:9202   */\n      0x44\n      add\n        /* \"contracts/mintone.sol\":10920:10953  usdtToken.transfer(owner, amount) */\n      0x20\n      mload(0x40)\n      dup1\n      dup4\n      sub\n      dup2\n      0x00\n      dup8\n      gas\n      call\n      iszero\n      dup1\n      iszero\n      tag_226\n      jumpi\n      returndatasize\n      0x00\n      dup1\n      returndatacopy\n      revert(0x00, returndatasize)\n    tag_226:\n      pop\n      pop\n      pop\n      pop\n      mload(0x40)\n      returndatasize\n      not(0x1f)\n      0x1f\n      dup3\n      add\n      and\n      dup3\n      add\n      dup1\n      0x40\n      mstore\n      pop\n      dup2\n      add\n      swap1\n      tag_227\n      swap2\n      swap1\n      tag_204\n      jump\t// in\n    tag_227:\n        /* \"contracts/mintone.sol\":10905:10953  bool success = usdtToken.transfer(owner, amount) */\n      swap1\n      pop\n        /* \"contracts/mintone.sol\":10972:10979  success */\n      dup1\n        /* \"contracts/mintone.sol\":10964:11001  require(success, \"Withdrawal failed\") */\n      tag_228\n      jumpi\n      mload(0x40)\n      shl(0xe5, 0x461bcd)\n      dup2\n      mstore\n        /* \"#utility.yul\":11781:11783   */\n      0x20\n        /* \"contracts/mintone.sol\":10964:11001  require(success, \"Withdrawal failed\") */\n      0x04\n      dup3\n      add\n        /* \"#utility.yul\":11763:11784   */\n      mstore\n        /* \"#utility.yul\":11820:11822   */\n      0x11\n        /* \"#utility.yul\":11800:11818   */\n      0x24\n      dup3\n      add\n        /* \"#utility.yul\":11793:11823   */\n      mstore\n      shl(0x7a, 0x15da5d1a191c985dd85b0819985a5b1959)\n        /* \"#utility.yul\":11839:11857   */\n      0x44\n      dup3\n      add\n        /* \"#utility.yul\":11832:11879   */\n      mstore\n        /* \"#utility.yul\":11896:11914   */\n      0x64\n      add\n        /* \"contracts/mintone.sol\":10964:11001  require(success, \"Withdrawal failed\") */\n      tag_168\n        /* \"#utility.yul\":11579:11920   */\n      jump\n        /* \"contracts/mintone.sol\":10964:11001  require(success, \"Withdrawal failed\") */\n    tag_228:\n        /* \"contracts/mintone.sol\":10726:11009  {... */\n      pop\n        /* \"contracts/mintone.sol\":10679:11009  function withdrawUSDT(uint256 amount) external {... */\n      pop\n      jump\t// out\n        /* \"contracts/mintone.sol\":2060:2639  function register(address referrer) external {... */\n    tag_65:\n        /* \"contracts/mintone.sol\":2131:2141  msg.sender */\n      caller\n        /* \"contracts/mintone.sol\":2125:2142  users[msg.sender] */\n      0x00\n      swap1\n      dup2\n      mstore\n        /* \"contracts/mintone.sol\":2125:2130  users */\n      0x03\n        /* \"contracts/mintone.sol\":2125:2142  users[msg.sender] */\n      0x20\n      mstore\n      0x40\n      swap1\n      keccak256\n        /* \"contracts/mintone.sol\":2125:2153  users[msg.sender].registered */\n      0x04\n      add\n      sload\n      0xff\n      and\n        /* \"contracts/mintone.sol\":2124:2153  !users[msg.sender].registered */\n      iszero\n        /* \"contracts/mintone.sol\":2116:2176  require(!users[msg.sender].registered, \"Already registered\") */\n      tag_232\n      jumpi\n      mload(0x40)\n      shl(0xe5, 0x461bcd)\n      dup2\n      mstore\n        /* \"#utility.yul\":12127:12129   */\n      0x20\n        /* \"contracts/mintone.sol\":2116:2176  require(!users[msg.sender].registered, \"Already registered\") */\n      0x04\n      dup3\n      add\n        /* \"#utility.yul\":12109:12130   */\n      mstore\n        /* \"#utility.yul\":12166:12168   */\n      0x12\n        /* \"#utility.yul\":12146:12164   */\n      0x24\n      dup3\n      add\n        /* \"#utility.yul\":12139:12169   */\n      mstore\n      shl(0x72, 0x105b1c9958591e481c9959da5cdd195c9959)\n        /* \"#utility.yul\":12185:12203   */\n      0x44\n      dup3\n      add\n        /* \"#utility.yul\":12178:12226   */\n      mstore\n        /* \"#utility.yul\":12243:12261   */\n      0x64\n      add\n        /* \"contracts/mintone.sol\":2116:2176  require(!users[msg.sender].registered, \"Already registered\") */\n      tag_168\n        /* \"#utility.yul\":11925:12267   */\n      jump\n        /* \"contracts/mintone.sol\":2116:2176  require(!users[msg.sender].registered, \"Already registered\") */\n    tag_232:\n        /* \"contracts/mintone.sol\":2207:2217  msg.sender */\n      caller\n      sub(shl(0xa0, 0x01), 0x01)\n        /* \"contracts/mintone.sol\":2195:2217  referrer != msg.sender */\n      dup3\n      and\n      sub\n        /* \"contracts/mintone.sol\":2187:2243  require(referrer != msg.sender, \"Cannot refer yourself\") */\n      tag_235\n      jumpi\n      mload(0x40)\n      shl(0xe5, 0x461bcd)\n      dup2\n      mstore\n        /* \"#utility.yul\":12474:12476   */\n      0x20\n        /* \"contracts/mintone.sol\":2187:2243  require(referrer != msg.sender, \"Cannot refer yourself\") */\n      0x04\n      dup3\n      add\n        /* \"#utility.yul\":12456:12477   */\n      mstore\n        /* \"#utility.yul\":12513:12515   */\n      0x15\n        /* \"#utility.yul\":12493:12511   */\n      0x24\n      dup3\n      add\n        /* \"#utility.yul\":12486:12516   */\n      mstore\n      shl(0x59, 0x21b0b73737ba103932b332b9103cb7bab939b2b633)\n        /* \"#utility.yul\":12532:12550   */\n      0x44\n      dup3\n      add\n        /* \"#utility.yul\":12525:12576   */\n      mstore\n        /* \"#utility.yul\":12593:12611   */\n      0x64\n      add\n        /* \"contracts/mintone.sol\":2187:2243  require(referrer != msg.sender, \"Cannot refer yourself\") */\n      tag_168\n        /* \"#utility.yul\":12272:12617   */\n      jump\n        /* \"contracts/mintone.sol\":2187:2243  require(referrer != msg.sender, \"Cannot refer yourself\") */\n    tag_235:\n      sub(shl(0xa0, 0x01), 0x01)\n        /* \"contracts/mintone.sol\":2262:2277  users[referrer] */\n      dup2\n      and\n      0x00\n      swap1\n      dup2\n      mstore\n        /* \"contracts/mintone.sol\":2262:2267  users */\n      0x03\n        /* \"contracts/mintone.sol\":2262:2277  users[referrer] */\n      0x20\n      mstore\n      0x40\n      swap1\n      keccak256\n        /* \"contracts/mintone.sol\":2262:2288  users[referrer].registered */\n      0x04\n      add\n      sload\n      0xff\n      and\n        /* \"contracts/mintone.sol\":2254:2316  require(users[referrer].registered, \"Referrer not registered\") */\n      tag_238\n      jumpi\n      mload(0x40)\n      shl(0xe5, 0x461bcd)\n      dup2\n      mstore\n        /* \"#utility.yul\":12824:12826   */\n      0x20\n        /* \"contracts/mintone.sol\":2254:2316  require(users[referrer].registered, \"Referrer not registered\") */\n      0x04\n      dup3\n      add\n        /* \"#utility.yul\":12806:12827   */\n      mstore\n        /* \"#utility.yul\":12863:12865   */\n      0x17\n        /* \"#utility.yul\":12843:12861   */\n      0x24\n      dup3\n      add\n        /* \"#utility.yul\":12836:12866   */\n      mstore\n        /* \"#utility.yul\":12902:12927   */\n      0x5265666572726572206e6f742072656769737465726564000000000000000000\n        /* \"#utility.yul\":12882:12900   */\n      0x44\n      dup3\n      add\n        /* \"#utility.yul\":12875:12928   */\n      mstore\n        /* \"#utility.yul\":12945:12963   */\n      0x64\n      add\n        /* \"contracts/mintone.sol\":2254:2316  require(users[referrer].registered, \"Referrer not registered\") */\n      tag_168\n        /* \"#utility.yul\":12622:12969   */\n      jump\n        /* \"contracts/mintone.sol\":2254:2316  require(users[referrer].registered, \"Referrer not registered\") */\n    tag_238:\n        /* \"contracts/mintone.sol\":2335:2345  msg.sender */\n      caller\n        /* \"contracts/mintone.sol\":2329:2346  users[msg.sender] */\n      0x00\n      dup2\n      dup2\n      mstore\n        /* \"contracts/mintone.sol\":2329:2334  users */\n      0x03\n        /* \"contracts/mintone.sol\":2329:2346  users[msg.sender] */\n      0x20\n      dup2\n      dup2\n      mstore\n      0x40\n      dup1\n      dup5\n      keccak256\n        /* \"contracts/mintone.sol\":2329:2366  users[msg.sender].referrer = referrer */\n      dup1\n      sload\n      sub(shl(0xa0, 0x01), 0x01)\n      swap8\n      dup9\n      and\n      not(sub(shl(0xa0, 0x01), 0x01))\n      swap2\n      dup3\n      and\n      dup2\n      or\n      dup4\n      sstore\n        /* \"contracts/mintone.sol\":2377:2405  users[msg.sender].registered */\n      0x04\n      swap3\n      dup4\n      add\n        /* \"contracts/mintone.sol\":2377:2412  users[msg.sender].registered = true */\n      dup1\n      sload\n      not(0xff)\n      and\n        /* \"contracts/mintone.sol\":2329:2366  users[msg.sender].referrer = referrer */\n      0x01\n        /* \"contracts/mintone.sol\":2377:2412  users[msg.sender].registered = true */\n      swap1\n      dup2\n      or\n      swap1\n      swap2\n      sstore\n        /* \"contracts/mintone.sol\":2423:2431  allUsers */\n      0x08\n        /* \"contracts/mintone.sol\":2423:2448  allUsers.push(msg.sender) */\n      dup1\n      sload\n      dup1\n      dup4\n      add\n      swap1\n      swap2\n      sstore\n      0xf3f7a9fe364faab93b216da50a3214154f22a0a2b415b23a84c8169e8b636ee3\n      add\n      dup1\n      sload\n      dup5\n      and\n      dup11\n      or\n      swap1\n      sstore\n        /* \"contracts/mintone.sol\":2461:2486  directReferrals[referrer] */\n      swap1\n      dup8\n      mstore\n      swap2\n      dup5\n      mstore\n      dup3\n      dup7\n      keccak256\n        /* \"contracts/mintone.sol\":2492:2630  ReferralInfo({... */\n      dup4\n      mload\n      0x60\n      dup2\n      add\n      dup6\n      mstore\n      swap8\n      dup9\n      mstore\n      dup8\n      dup6\n      add\n      dup8\n      dup2\n      mstore\n        /* \"contracts/mintone.sol\":2603:2618  block.timestamp */\n      timestamp\n        /* \"contracts/mintone.sol\":2492:2630  ReferralInfo({... */\n      swap5\n      dup10\n      add\n      swap5\n      dup6\n      mstore\n        /* \"contracts/mintone.sol\":2461:2631  directReferrals[referrer].push(ReferralInfo({... */\n      dup2\n      sload\n      dup1\n      dup6\n      add\n      dup4\n      sstore\n      swap2\n      dup9\n      mstore\n      swap5\n      swap1\n      swap7\n      keccak256\n      swap7\n      mload\n      swap6\n      swap1\n      swap5\n      mul\n      swap1\n      swap6\n      add\n      dup1\n      sload\n      swap5\n      swap1\n      swap7\n      and\n      swap4\n      swap1\n      swap3\n      and\n      swap3\n      swap1\n      swap3\n      or\n      dup5\n      sstore\n      swap1\n      mload\n      swap2\n      dup4\n      add\n      swap2\n      swap1\n      swap2\n      sstore\n      mload\n      0x02\n      swap1\n      swap2\n      add\n      sstore\n        /* \"contracts/mintone.sol\":2060:2639  function register(address referrer) external {... */\n      jump\t// out\n        /* \"contracts/mintone.sol\":6222:6864  function getStakeByPositionId(uint256 _positionId) external view returns (... */\n    tag_73:\n        /* \"contracts/mintone.sol\":6306:6318  address user */\n      0x00\n        /* \"contracts/mintone.sol\":6435:6464  positionIdToUser[_positionId] */\n      dup2\n      dup2\n      mstore\n        /* \"contracts/mintone.sol\":6435:6451  positionIdToUser */\n      0x05\n        /* \"contracts/mintone.sol\":6435:6464  positionIdToUser[_positionId] */\n      0x20\n      mstore\n      0x40\n      dup2\n      keccak256\n      sload\n        /* \"contracts/mintone.sol\":6306:6318  address user */\n      dup2\n      swap1\n      dup2\n      swap1\n      dup2\n      swap1\n      sub(shl(0xa0, 0x01), 0x01)\n        /* \"contracts/mintone.sol\":6435:6464  positionIdToUser[_positionId] */\n      and\n      dup1\n        /* \"contracts/mintone.sol\":6475:6528  require(userAddr != address(0), \"Invalid positionId\") */\n      tag_245\n      jumpi\n      mload(0x40)\n      shl(0xe5, 0x461bcd)\n      dup2\n      mstore\n        /* \"#utility.yul\":13176:13178   */\n      0x20\n        /* \"contracts/mintone.sol\":6475:6528  require(userAddr != address(0), \"Invalid positionId\") */\n      0x04\n      dup3\n      add\n        /* \"#utility.yul\":13158:13179   */\n      mstore\n        /* \"#utility.yul\":13215:13217   */\n      0x12\n        /* \"#utility.yul\":13195:13213   */\n      0x24\n      dup3\n      add\n        /* \"#utility.yul\":13188:13218   */\n      mstore\n      shl(0x72, 0x125b9d985b1a59081c1bdcda5d1a5bdb9259)\n        /* \"#utility.yul\":13234:13252   */\n      0x44\n      dup3\n      add\n        /* \"#utility.yul\":13227:13275   */\n      mstore\n        /* \"#utility.yul\":13292:13310   */\n      0x64\n      add\n        /* \"contracts/mintone.sol\":6475:6528  require(userAddr != address(0), \"Invalid positionId\") */\n      tag_168\n        /* \"#utility.yul\":12974:13316   */\n      jump\n        /* \"contracts/mintone.sol\":6475:6528  require(userAddr != address(0), \"Invalid positionId\") */\n    tag_245:\n      sub(shl(0xa0, 0x01), 0x01)\n        /* \"contracts/mintone.sol\":6565:6580  users[userAddr] */\n      dup2\n      and\n        /* \"contracts/mintone.sol\":6541:6562  Stake[] memory stakes */\n      0x00\n        /* \"contracts/mintone.sol\":6565:6580  users[userAddr] */\n      swap1\n      dup2\n      mstore\n        /* \"contracts/mintone.sol\":6565:6570  users */\n      0x03\n        /* \"contracts/mintone.sol\":6565:6580  users[userAddr] */\n      0x20\n      swap1\n      dup2\n      mstore\n      0x40\n      dup1\n      dup4\n      keccak256\n        /* \"contracts/mintone.sol\":6565:6587  users[userAddr].stakes */\n      0x01\n      add\n        /* \"contracts/mintone.sol\":6541:6587  Stake[] memory stakes = users[userAddr].stakes */\n      dup1\n      sload\n      dup3\n      mload\n      dup2\n      dup6\n      mul\n      dup2\n      add\n      dup6\n      add\n      swap1\n      swap4\n      mstore\n      dup1\n      dup4\n      mstore\n      swap2\n      swap3\n        /* \"contracts/mintone.sol\":6565:6587  users[userAddr].stakes */\n      swap1\n      swap2\n        /* \"contracts/mintone.sol\":6541:6587  Stake[] memory stakes = users[userAddr].stakes */\n      swap1\n        /* \"contracts/mintone.sol\":6541:6562  Stake[] memory stakes */\n      dup5\n      swap1\n        /* \"contracts/mintone.sol\":6541:6587  Stake[] memory stakes = users[userAddr].stakes */\n      dup5\n      add\n    tag_248:\n      dup3\n      dup3\n      lt\n      iszero\n      tag_249\n      jumpi\n      0x00\n      dup5\n      dup2\n      mstore\n      0x20\n      swap1\n      dup2\n      swap1\n      keccak256\n      0x40\n      dup1\n      mload\n      0xc0\n      dup2\n      add\n      dup3\n      mstore\n      0x06\n      dup7\n      mul\n      swap1\n      swap3\n      add\n      dup1\n      sload\n      dup4\n      mstore\n      0x01\n      dup1\n      dup3\n      add\n      sload\n      dup5\n      dup7\n      add\n      mstore\n      0x02\n      dup3\n      add\n      sload\n      swap3\n      dup5\n      add\n      swap3\n      swap1\n      swap3\n      mstore\n      0x03\n      dup2\n      add\n      sload\n      0x60\n      dup5\n      add\n      mstore\n      0x04\n      dup2\n      add\n      sload\n      0x80\n      dup5\n      add\n      mstore\n      0x05\n      add\n      sload\n      0xff\n      and\n      iszero\n      iszero\n      0xa0\n      dup4\n      add\n      mstore\n      swap1\n      dup4\n      mstore\n      swap1\n      swap3\n      add\n      swap2\n      add\n      jump(tag_248)\n    tag_249:\n      pop\n      pop\n      pop\n      pop\n      swap1\n      pop\n        /* \"contracts/mintone.sol\":6603:6612  uint256 i */\n      0x00\n        /* \"contracts/mintone.sol\":6598:6819  for (uint256 i = 0; i < stakes.length; i++) {... */\n    tag_251:\n        /* \"contracts/mintone.sol\":6622:6628  stakes */\n      dup2\n        /* \"contracts/mintone.sol\":6622:6635  stakes.length */\n      mload\n        /* \"contracts/mintone.sol\":6618:6619  i */\n      dup2\n        /* \"contracts/mintone.sol\":6618:6635  i < stakes.length */\n      lt\n        /* \"contracts/mintone.sol\":6598:6819  for (uint256 i = 0; i < stakes.length; i++) {... */\n      iszero\n      tag_252\n      jumpi\n        /* \"contracts/mintone.sol\":6685:6696  _positionId */\n      dup8\n        /* \"contracts/mintone.sol\":6661:6667  stakes */\n      dup3\n        /* \"contracts/mintone.sol\":6668:6669  i */\n      dup3\n        /* \"contracts/mintone.sol\":6661:6670  stakes[i] */\n      dup2\n      mload\n      dup2\n      lt\n      tag_255\n      jumpi\n      tag_255\n      tag_162\n      jump\t// in\n    tag_255:\n      0x20\n      mul\n      0x20\n      add\n      add\n      mload\n        /* \"contracts/mintone.sol\":6661:6681  stakes[i].positionId */\n      0x20\n      add\n      mload\n        /* \"contracts/mintone.sol\":6661:6696  stakes[i].positionId == _positionId */\n      sub\n        /* \"contracts/mintone.sol\":6657:6808  if (stakes[i].positionId == _positionId) {... */\n      tag_256\n      jumpi\n        /* \"contracts/mintone.sol\":6725:6733  userAddr */\n      dup3\n        /* \"contracts/mintone.sol\":6735:6741  stakes */\n      dup3\n        /* \"contracts/mintone.sol\":6742:6743  i */\n      dup3\n        /* \"contracts/mintone.sol\":6735:6744  stakes[i] */\n      dup2\n      mload\n      dup2\n      lt\n      tag_258\n      jumpi\n      tag_258\n      tag_162\n      jump\t// in\n    tag_258:\n      0x20\n      mul\n      0x20\n      add\n      add\n      mload\n        /* \"contracts/mintone.sol\":6735:6752  stakes[i].stakeId */\n      0x00\n      add\n      mload\n        /* \"contracts/mintone.sol\":6754:6760  stakes */\n      dup4\n        /* \"contracts/mintone.sol\":6761:6762  i */\n      dup4\n        /* \"contracts/mintone.sol\":6754:6763  stakes[i] */\n      dup2\n      mload\n      dup2\n      lt\n      tag_260\n      jumpi\n      tag_260\n      tag_162\n      jump\t// in\n    tag_260:\n      0x20\n      mul\n      0x20\n      add\n      add\n      mload\n        /* \"contracts/mintone.sol\":6754:6770  stakes[i].amount */\n      0x40\n      add\n      mload\n        /* \"contracts/mintone.sol\":6772:6778  stakes */\n      dup5\n        /* \"contracts/mintone.sol\":6779:6780  i */\n      dup5\n        /* \"contracts/mintone.sol\":6772:6781  stakes[i] */\n      dup2\n      mload\n      dup2\n      lt\n      tag_262\n      jumpi\n      tag_262\n      tag_162\n      jump\t// in\n    tag_262:\n      0x20\n      mul\n      0x20\n      add\n      add\n      mload\n        /* \"contracts/mintone.sol\":6772:6791  stakes[i].timestamp */\n      0x60\n      add\n      mload\n        /* \"contracts/mintone.sol\":6717:6792  return (userAddr, stakes[i].stakeId, stakes[i].amount, stakes[i].timestamp) */\n      swap7\n      pop\n      swap7\n      pop\n      swap7\n      pop\n      swap7\n      pop\n      pop\n      pop\n      pop\n      jump(tag_244)\n        /* \"contracts/mintone.sol\":6657:6808  if (stakes[i].positionId == _positionId) {... */\n    tag_256:\n        /* \"contracts/mintone.sol\":6637:6640  i++ */\n      0x01\n      add\n        /* \"contracts/mintone.sol\":6598:6819  for (uint256 i = 0; i < stakes.length; i++) {... */\n      jump(tag_251)\n    tag_252:\n      pop\n        /* \"contracts/mintone.sol\":6831:6856  revert(\"Stake not found\") */\n      mload(0x40)\n      shl(0xe5, 0x461bcd)\n      dup2\n      mstore\n        /* \"#utility.yul\":13523:13525   */\n      0x20\n        /* \"contracts/mintone.sol\":6831:6856  revert(\"Stake not found\") */\n      0x04\n      dup3\n      add\n        /* \"#utility.yul\":13505:13526   */\n      mstore\n        /* \"#utility.yul\":13562:13564   */\n      0x0f\n        /* \"#utility.yul\":13542:13560   */\n      0x24\n      dup3\n      add\n        /* \"#utility.yul\":13535:13565   */\n      mstore\n      shl(0x8a, 0x14dd185ad9481b9bdd08199bdd5b99)\n        /* \"#utility.yul\":13581:13599   */\n      0x44\n      dup3\n      add\n        /* \"#utility.yul\":13574:13619   */\n      mstore\n        /* \"#utility.yul\":13636:13654   */\n      0x64\n      add\n        /* \"contracts/mintone.sol\":6831:6856  revert(\"Stake not found\") */\n      tag_168\n        /* \"#utility.yul\":13321:13660   */\n      jump\n        /* \"contracts/mintone.sol\":6222:6864  function getStakeByPositionId(uint256 _positionId) external view returns (... */\n    tag_244:\n      swap2\n      swap4\n      pop\n      swap2\n      swap4\n      jump\t// out\n        /* \"contracts/mintone.sol\":2647:4517  function stake(uint256 numDays, uint256 amount) external onlyRegistered {... */\n    tag_79:\n        /* \"contracts/mintone.sol\":1991:2001  msg.sender */\n      caller\n        /* \"contracts/mintone.sol\":1985:2002  users[msg.sender] */\n      0x00\n      swap1\n      dup2\n      mstore\n        /* \"contracts/mintone.sol\":1985:1990  users */\n      0x03\n        /* \"contracts/mintone.sol\":1985:2002  users[msg.sender] */\n      0x20\n      mstore\n      0x40\n      swap1\n      keccak256\n        /* \"contracts/mintone.sol\":1985:2013  users[msg.sender].registered */\n      0x04\n      add\n      sload\n      0xff\n      and\n        /* \"contracts/mintone.sol\":1977:2032  require(users[msg.sender].registered, \"Not registered\") */\n      tag_266\n      jumpi\n      mload(0x40)\n      shl(0xe5, 0x461bcd)\n      dup2\n      mstore\n        /* \"#utility.yul\":7004:7006   */\n      0x20\n        /* \"contracts/mintone.sol\":1977:2032  require(users[msg.sender].registered, \"Not registered\") */\n      0x04\n      dup3\n      add\n        /* \"#utility.yul\":6986:7007   */\n      mstore\n        /* \"#utility.yul\":7043:7045   */\n      0x0e\n        /* \"#utility.yul\":7023:7041   */\n      0x24\n      dup3\n      add\n        /* \"#utility.yul\":7016:7046   */\n      mstore\n      shl(0x92, 0x139bdd081c9959da5cdd195c9959)\n        /* \"#utility.yul\":7062:7080   */\n      0x44\n      dup3\n      add\n        /* \"#utility.yul\":7055:7099   */\n      mstore\n        /* \"#utility.yul\":7116:7134   */\n      0x64\n      add\n        /* \"contracts/mintone.sol\":1977:2032  require(users[msg.sender].registered, \"Not registered\") */\n      tag_168\n        /* \"#utility.yul\":6802:7140   */\n      jump\n        /* \"contracts/mintone.sol\":1977:2032  require(users[msg.sender].registered, \"Not registered\") */\n    tag_266:\n        /* \"contracts/mintone.sol\":2747:2748  0 */\n      0x00\n        /* \"contracts/mintone.sol\":2738:2744  amount */\n      dup2\n        /* \"contracts/mintone.sol\":2738:2748  amount > 0 */\n      gt\n        /* \"contracts/mintone.sol\":2730:2788  require(amount > 0, \"Stake amount must be greater than 0\") */\n      tag_269\n      jumpi\n      mload(0x40)\n      shl(0xe5, 0x461bcd)\n      dup2\n      mstore\n        /* \"#utility.yul\":13867:13869   */\n      0x20\n        /* \"contracts/mintone.sol\":2730:2788  require(amount > 0, \"Stake amount must be greater than 0\") */\n      0x04\n      dup3\n      add\n        /* \"#utility.yul\":13849:13870   */\n      mstore\n        /* \"#utility.yul\":13906:13908   */\n      0x23\n        /* \"#utility.yul\":13886:13904   */\n      0x24\n      dup3\n      add\n        /* \"#utility.yul\":13879:13909   */\n      mstore\n        /* \"#utility.yul\":13945:13979   */\n      0x5374616b6520616d6f756e74206d757374206265206772656174657220746861\n        /* \"#utility.yul\":13925:13943   */\n      0x44\n      dup3\n      add\n        /* \"#utility.yul\":13918:13980   */\n      mstore\n      shl(0xec, 0x06e203)\n        /* \"#utility.yul\":13996:14014   */\n      0x64\n      dup3\n      add\n        /* \"#utility.yul\":13989:14022   */\n      mstore\n        /* \"#utility.yul\":14039:14058   */\n      0x84\n      add\n        /* \"contracts/mintone.sol\":2730:2788  require(amount > 0, \"Stake amount must be greater than 0\") */\n      tag_168\n        /* \"#utility.yul\":13665:14064   */\n      jump\n        /* \"contracts/mintone.sol\":2730:2788  require(amount > 0, \"Stake amount must be greater than 0\") */\n    tag_269:\n        /* \"contracts/mintone.sol\":2829:2830  0 */\n      0x00\n        /* \"contracts/mintone.sol\":2807:2826  stakingAPY[numDays] */\n      dup3\n      dup2\n      mstore\n        /* \"contracts/mintone.sol\":2807:2817  stakingAPY */\n      0x06\n        /* \"contracts/mintone.sol\":2807:2826  stakingAPY[numDays] */\n      0x20\n      mstore\n      0x40\n      swap1\n      keccak256\n      sload\n        /* \"contracts/mintone.sol\":2799:2859  require(stakingAPY[numDays] > 0, \"Invalid staking duration\") */\n      tag_272\n      jumpi\n      mload(0x40)\n      shl(0xe5, 0x461bcd)\n      dup2\n      mstore\n        /* \"#utility.yul\":14271:14273   */\n      0x20\n        /* \"contracts/mintone.sol\":2799:2859  require(stakingAPY[numDays] > 0, \"Invalid staking duration\") */\n      0x04\n      dup3\n      add\n        /* \"#utility.yul\":14253:14274   */\n      mstore\n        /* \"#utility.yul\":14310:14312   */\n      0x18\n        /* \"#utility.yul\":14290:14308   */\n      0x24\n      dup3\n      add\n        /* \"#utility.yul\":14283:14313   */\n      mstore\n      shl(0x41, 0x24b73b30b634b21039ba30b5b4b73390323ab930ba34b7b7)\n        /* \"#utility.yul\":14329:14347   */\n      0x44\n      dup3\n      add\n        /* \"#utility.yul\":14322:14376   */\n      mstore\n        /* \"#utility.yul\":14393:14411   */\n      0x64\n      add\n        /* \"contracts/mintone.sol\":2799:2859  require(stakingAPY[numDays] > 0, \"Invalid staking duration\") */\n      tag_168\n        /* \"#utility.yul\":14069:14417   */\n      jump\n        /* \"contracts/mintone.sol\":2799:2859  require(stakingAPY[numDays] > 0, \"Invalid staking duration\") */\n    tag_272:\n        /* \"contracts/mintone.sol\":2887:2896  usdtToken */\n      sload(0x02)\n        /* \"contracts/mintone.sol\":2887:2944  usdtToken.transferFrom(msg.sender, address(this), amount) */\n      mload(0x40)\n      shl(0xe0, 0x23b872dd)\n      dup2\n      mstore\n        /* \"contracts/mintone.sol\":2910:2920  msg.sender */\n      caller\n        /* \"contracts/mintone.sol\":2887:2944  usdtToken.transferFrom(msg.sender, address(this), amount) */\n      0x04\n      dup3\n      add\n        /* \"#utility.yul\":14662:14696   */\n      mstore\n        /* \"contracts/mintone.sol\":2930:2934  this */\n      address\n        /* \"#utility.yul\":14712:14730   */\n      0x24\n      dup3\n      add\n        /* \"#utility.yul\":14705:14748   */\n      mstore\n        /* \"#utility.yul\":14764:14782   */\n      0x44\n      dup2\n      add\n        /* \"#utility.yul\":14757:14791   */\n      dup4\n      swap1\n      mstore\n        /* \"contracts/mintone.sol\":2872:2884  bool success */\n      0x00\n      swap2\n      sub(shl(0xa0, 0x01), 0x01)\n        /* \"contracts/mintone.sol\":2887:2896  usdtToken */\n      and\n      swap1\n        /* \"contracts/mintone.sol\":2887:2909  usdtToken.transferFrom */\n      0x23b872dd\n      swap1\n        /* \"#utility.yul\":14597:14615   */\n      0x64\n      add\n        /* \"contracts/mintone.sol\":2887:2944  usdtToken.transferFrom(msg.sender, address(this), amount) */\n      0x20\n      mload(0x40)\n      dup1\n      dup4\n      sub\n      dup2\n      0x00\n      dup8\n      gas\n      call\n      iszero\n      dup1\n      iszero\n      tag_278\n      jumpi\n      returndatasize\n      0x00\n      dup1\n      returndatacopy\n      revert(0x00, returndatasize)\n    tag_278:\n      pop\n      pop\n      pop\n      pop\n      mload(0x40)\n      returndatasize\n      not(0x1f)\n      0x1f\n      dup3\n      add\n      and\n      dup3\n      add\n      dup1\n      0x40\n      mstore\n      pop\n      dup2\n      add\n      swap1\n      tag_279\n      swap2\n      swap1\n      tag_204\n      jump\t// in\n    tag_279:\n        /* \"contracts/mintone.sol\":2872:2944  bool success = usdtToken.transferFrom(msg.sender, address(this), amount) */\n      swap1\n      pop\n        /* \"contracts/mintone.sol\":2963:2970  success */\n      dup1\n        /* \"contracts/mintone.sol\":2955:2995  require(success, \"USDT transfer failed\") */\n      tag_280\n      jumpi\n      mload(0x40)\n      shl(0xe5, 0x461bcd)\n      dup2\n      mstore\n        /* \"#utility.yul\":15004:15006   */\n      0x20\n        /* \"contracts/mintone.sol\":2955:2995  require(success, \"USDT transfer failed\") */\n      0x04\n      dup3\n      add\n        /* \"#utility.yul\":14986:15007   */\n      mstore\n        /* \"#utility.yul\":15043:15045   */\n      0x14\n        /* \"#utility.yul\":15023:15041   */\n      0x24\n      dup3\n      add\n        /* \"#utility.yul\":15016:15046   */\n      mstore\n      shl(0x62, 0x1554d115081d1c985b9cd9995c8819985a5b1959)\n        /* \"#utility.yul\":15062:15080   */\n      0x44\n      dup3\n      add\n        /* \"#utility.yul\":15055:15105   */\n      mstore\n        /* \"#utility.yul\":15122:15140   */\n      0x64\n      add\n        /* \"contracts/mintone.sol\":2955:2995  require(success, \"USDT transfer failed\") */\n      tag_168\n        /* \"#utility.yul\":14802:15146   */\n      jump\n        /* \"contracts/mintone.sol\":2955:2995  require(success, \"USDT transfer failed\") */\n    tag_280:\n        /* \"contracts/mintone.sol\":3008:3026  uint256 positionId */\n      0x00\n        /* \"contracts/mintone.sol\":3031:3043  stakeCounter */\n      0x01\n      0x00\n        /* \"contracts/mintone.sol\":3029:3043  ++stakeCounter */\n      dup2\n      sload\n      tag_283\n      swap1\n      tag_284\n      jump\t// in\n    tag_283:\n      swap2\n      swap1\n      pop\n      dup2\n      swap1\n      sstore\n        /* \"contracts/mintone.sol\":3008:3043  uint256 positionId = ++stakeCounter */\n      swap1\n      pop\n        /* \"contracts/mintone.sol\":3056:3061  users */\n      0x03\n        /* \"contracts/mintone.sol\":3056:3073  users[msg.sender] */\n      0x00\n        /* \"contracts/mintone.sol\":3062:3072  msg.sender */\n      caller\n      sub(shl(0xa0, 0x01), 0x01)\n        /* \"contracts/mintone.sol\":3056:3073  users[msg.sender] */\n      and\n      sub(shl(0xa0, 0x01), 0x01)\n      and\n      dup2\n      mstore\n      0x20\n      add\n      swap1\n      dup2\n      mstore\n      0x20\n      add\n      0x00\n      keccak256\n        /* \"contracts/mintone.sol\":3056:3080  users[msg.sender].stakes */\n      0x01\n      add\n        /* \"contracts/mintone.sol\":3086:3307  Stake({... */\n      mload(0x40)\n      dup1\n      0xc0\n      add\n      0x40\n      mstore\n      dup1\n        /* \"contracts/mintone.sol\":3116:3128  stakeCounter */\n      sload(0x01)\n        /* \"contracts/mintone.sol\":3086:3307  Stake({... */\n      dup2\n      mstore\n      0x20\n      add\n        /* \"contracts/mintone.sol\":3155:3165  positionId */\n      dup4\n        /* \"contracts/mintone.sol\":3086:3307  Stake({... */\n      dup2\n      mstore\n      0x20\n      add\n        /* \"contracts/mintone.sol\":3188:3194  amount */\n      dup6\n        /* \"contracts/mintone.sol\":3086:3307  Stake({... */\n      dup2\n      mstore\n      0x20\n      add\n        /* \"contracts/mintone.sol\":3220:3235  block.timestamp */\n      timestamp\n        /* \"contracts/mintone.sol\":3086:3307  Stake({... */\n      dup2\n      mstore\n      0x20\n      add\n        /* \"contracts/mintone.sol\":3259:3266  numDays */\n      dup7\n        /* \"contracts/mintone.sol\":3086:3307  Stake({... */\n      dup2\n      mstore\n      0x20\n      add\n        /* \"contracts/mintone.sol\":3290:3295  false */\n      0x00\n        /* \"contracts/mintone.sol\":3086:3307  Stake({... */\n      iszero\n      iszero\n      dup2\n      mstore\n      pop\n        /* \"contracts/mintone.sol\":3056:3308  users[msg.sender].stakes.push(Stake({... */\n      swap1\n      dup1\n      0x01\n      dup2\n      sload\n      add\n      dup1\n      dup3\n      sstore\n      dup1\n      swap2\n      pop\n      pop\n      0x01\n      swap1\n      sub\n      swap1\n      0x00\n      mstore\n      keccak256(0x00, 0x20)\n      swap1\n      0x06\n      mul\n      add\n      0x00\n      swap1\n      swap2\n      swap1\n      swap2\n      swap1\n      swap2\n      pop\n      0x00\n      dup3\n      add\n      mload\n      dup2\n      0x00\n      add\n      sstore\n      0x20\n      dup3\n      add\n      mload\n      dup2\n      0x01\n      add\n      sstore\n      0x40\n      dup3\n      add\n      mload\n      dup2\n      0x02\n      add\n      sstore\n      0x60\n      dup3\n      add\n      mload\n      dup2\n      0x03\n      add\n      sstore\n      0x80\n      dup3\n      add\n      mload\n      dup2\n      0x04\n      add\n      sstore\n      0xa0\n      dup3\n      add\n      mload\n      dup2\n      0x05\n      add\n      exp(0x0100, 0x00)\n      dup2\n      sload\n      dup2\n      0xff\n      mul\n      not\n      and\n      swap1\n      dup4\n      iszero\n      iszero\n      mul\n      or\n      swap1\n      sstore\n      pop\n      pop\n      pop\n        /* \"contracts/mintone.sol\":3352:3362  msg.sender */\n      caller\n        /* \"contracts/mintone.sol\":3321:3337  positionIdToUser */\n      0x05\n        /* \"contracts/mintone.sol\":3321:3349  positionIdToUser[positionId] */\n      0x00\n        /* \"contracts/mintone.sol\":3338:3348  positionId */\n      dup4\n        /* \"contracts/mintone.sol\":3321:3349  positionIdToUser[positionId] */\n      dup2\n      mstore\n      0x20\n      add\n      swap1\n      dup2\n      mstore\n      0x20\n      add\n      0x00\n      keccak256\n      0x00\n        /* \"contracts/mintone.sol\":3321:3362  positionIdToUser[positionId] = msg.sender */\n      0x0100\n      exp\n      dup2\n      sload\n      dup2\n      sub(shl(0xa0, 0x01), 0x01)\n      mul\n      not\n      and\n      swap1\n      dup4\n      sub(shl(0xa0, 0x01), 0x01)\n      and\n      mul\n      or\n      swap1\n      sstore\n      pop\n        /* \"contracts/mintone.sol\":3411:3425  address upline */\n      0x00\n        /* \"contracts/mintone.sol\":3428:3433  users */\n      0x03\n        /* \"contracts/mintone.sol\":3428:3445  users[msg.sender] */\n      0x00\n        /* \"contracts/mintone.sol\":3434:3444  msg.sender */\n      caller\n      sub(shl(0xa0, 0x01), 0x01)\n        /* \"contracts/mintone.sol\":3428:3445  users[msg.sender] */\n      and\n      sub(shl(0xa0, 0x01), 0x01)\n      and\n      dup2\n      mstore\n      0x20\n      add\n      swap1\n      dup2\n      mstore\n      0x20\n      add\n      0x00\n      keccak256\n        /* \"contracts/mintone.sol\":3428:3454  users[msg.sender].referrer */\n      0x00\n      add\n      0x00\n      swap1\n      sload\n      swap1\n      0x0100\n      exp\n      swap1\n      div\n      sub(shl(0xa0, 0x01), 0x01)\n      and\n        /* \"contracts/mintone.sol\":3411:3454  address upline = users[msg.sender].referrer */\n      swap1\n      pop\n        /* \"contracts/mintone.sol\":3472:3479  uint8 i */\n      0x00\n        /* \"contracts/mintone.sol\":3467:4510  for (uint8 i = 0; i < levelRewards.length && upline != address(0); i++) {... */\n    tag_286:\n        /* \"contracts/mintone.sol\":3489:3508  levelRewards.length */\n      0x05\n        /* \"contracts/mintone.sol\":3485:3486  i */\n      dup2\n        /* \"contracts/mintone.sol\":3485:3508  i < levelRewards.length */\n      0xff\n      and\n      lt\n        /* \"contracts/mintone.sol\":3485:3532  i < levelRewards.length && upline != address(0) */\n      dup1\n      iszero\n      tag_289\n      jumpi\n      pop\n      sub(shl(0xa0, 0x01), 0x01)\n        /* \"contracts/mintone.sol\":3512:3532  upline != address(0) */\n      dup3\n      and\n      iszero\n      iszero\n        /* \"contracts/mintone.sol\":3485:3532  i < levelRewards.length && upline != address(0) */\n    tag_289:\n        /* \"contracts/mintone.sol\":3467:4510  for (uint8 i = 0; i < levelRewards.length && upline != address(0); i++) {... */\n      iszero\n      tag_287\n      jumpi\n        /* \"contracts/mintone.sol\":3554:3568  uint256 reward */\n      0x00\n        /* \"contracts/mintone.sol\":3600:3603  100 */\n      0x64\n        /* \"contracts/mintone.sol\":3581:3593  levelRewards */\n      0x09\n        /* \"contracts/mintone.sol\":3594:3595  i */\n      dup4\n        /* \"contracts/mintone.sol\":3581:3596  levelRewards[i] */\n      0xff\n      and\n      0x05\n      dup2\n      lt\n      tag_291\n      jumpi\n      tag_291\n      tag_162\n      jump\t// in\n    tag_291:\n      0x20\n      dup2\n      div\n      swap2\n      swap1\n      swap2\n      add\n      sload\n        /* \"contracts/mintone.sol\":3572:3596  amount * levelRewards[i] */\n      tag_293\n      swap2\n        /* \"contracts/mintone.sol\":3581:3596  levelRewards[i] */\n      0x1f\n      and\n      0x0100\n      exp\n      swap1\n      div\n      0xff\n      and\n        /* \"contracts/mintone.sol\":3572:3578  amount */\n      dup9\n        /* \"contracts/mintone.sol\":3572:3596  amount * levelRewards[i] */\n      tag_190\n      jump\t// in\n    tag_293:\n        /* \"contracts/mintone.sol\":3571:3603  (amount * levelRewards[i]) / 100 */\n      tag_294\n      swap2\n      swap1\n      tag_187\n      jump\t// in\n    tag_294:\n        /* \"contracts/mintone.sol\":3628:3637  usdtToken */\n      sload(0x02)\n        /* \"contracts/mintone.sol\":3628:3662  usdtToken.balanceOf(address(this)) */\n      mload(0x40)\n      shl(0xe0, 0x70a08231)\n      dup2\n      mstore\n        /* \"contracts/mintone.sol\":3656:3660  this */\n      address\n        /* \"contracts/mintone.sol\":3628:3662  usdtToken.balanceOf(address(this)) */\n      0x04\n      dup3\n      add\n        /* \"#utility.yul\":1132:1183   */\n      mstore\n        /* \"contracts/mintone.sol\":3554:3603  uint256 reward = (amount * levelRewards[i]) / 100 */\n      swap2\n      swap3\n      pop\n      dup3\n      swap2\n      sub(shl(0xa0, 0x01), 0x01)\n        /* \"contracts/mintone.sol\":3628:3637  usdtToken */\n      swap1\n      swap2\n      and\n      swap1\n        /* \"contracts/mintone.sol\":3628:3647  usdtToken.balanceOf */\n      0x70a08231\n      swap1\n        /* \"#utility.yul\":1105:1123   */\n      0x24\n      add\n        /* \"contracts/mintone.sol\":3628:3662  usdtToken.balanceOf(address(this)) */\n      0x20\n      mload(0x40)\n      dup1\n      dup4\n      sub\n      dup2\n      dup7\n      gas\n      staticcall\n      iszero\n      dup1\n      iszero\n      tag_297\n      jumpi\n      returndatasize\n      0x00\n      dup1\n      returndatacopy\n      revert(0x00, returndatasize)\n    tag_297:\n      pop\n      pop\n      pop\n      pop\n      mload(0x40)\n      returndatasize\n      not(0x1f)\n      0x1f\n      dup3\n      add\n      and\n      dup3\n      add\n      dup1\n      0x40\n      mstore\n      pop\n      dup2\n      add\n      swap1\n      tag_298\n      swap2\n      swap1\n      tag_220\n      jump\t// in\n    tag_298:\n        /* \"contracts/mintone.sol\":3628:3672  usdtToken.balanceOf(address(this)) >= reward */\n      lt\n      iszero\n        /* \"contracts/mintone.sol\":3620:3706  require(usdtToken.balanceOf(address(this)) >= reward, \"Insufficient contract balance\") */\n      tag_299\n      jumpi\n      mload(0x40)\n      shl(0xe5, 0x461bcd)\n      dup2\n      mstore\n        /* \"#utility.yul\":15493:15495   */\n      0x20\n        /* \"contracts/mintone.sol\":3620:3706  require(usdtToken.balanceOf(address(this)) >= reward, \"Insufficient contract balance\") */\n      0x04\n      dup3\n      add\n        /* \"#utility.yul\":15475:15496   */\n      mstore\n        /* \"#utility.yul\":15532:15534   */\n      0x1d\n        /* \"#utility.yul\":15512:15530   */\n      0x24\n      dup3\n      add\n        /* \"#utility.yul\":15505:15535   */\n      mstore\n        /* \"#utility.yul\":15571:15602   */\n      0x496e73756666696369656e7420636f6e74726163742062616c616e6365000000\n        /* \"#utility.yul\":15551:15569   */\n      0x44\n      dup3\n      add\n        /* \"#utility.yul\":15544:15603   */\n      mstore\n        /* \"#utility.yul\":15620:15638   */\n      0x64\n      add\n        /* \"contracts/mintone.sol\":3620:3706  require(usdtToken.balanceOf(address(this)) >= reward, \"Insufficient contract balance\") */\n      tag_168\n        /* \"#utility.yul\":15291:15644   */\n      jump\n        /* \"contracts/mintone.sol\":3620:3706  require(usdtToken.balanceOf(address(this)) >= reward, \"Insufficient contract balance\") */\n    tag_299:\n        /* \"contracts/mintone.sol\":3744:3753  usdtToken */\n      sload(0x02)\n        /* \"contracts/mintone.sol\":3744:3778  usdtToken.transfer(upline, reward) */\n      mload(0x40)\n      shl(0xe0, 0xa9059cbb)\n      dup2\n      mstore\n      sub(shl(0xa0, 0x01), 0x01)\n        /* \"#utility.yul\":9229:9261   */\n      dup6\n      dup2\n      and\n        /* \"contracts/mintone.sol\":3744:3778  usdtToken.transfer(upline, reward) */\n      0x04\n      dup4\n      add\n        /* \"#utility.yul\":9211:9262   */\n      mstore\n        /* \"#utility.yul\":9278:9296   */\n      0x24\n      dup3\n      add\n        /* \"#utility.yul\":9271:9305   */\n      dup5\n      swap1\n      mstore\n        /* \"contracts/mintone.sol\":3723:3741  bool rewardSuccess */\n      0x00\n      swap3\n        /* \"contracts/mintone.sol\":3744:3753  usdtToken */\n      and\n      swap1\n        /* \"contracts/mintone.sol\":3744:3762  usdtToken.transfer */\n      0xa9059cbb\n      swap1\n        /* \"#utility.yul\":9184:9202   */\n      0x44\n      add\n        /* \"contracts/mintone.sol\":3744:3778  usdtToken.transfer(upline, reward) */\n      0x20\n      mload(0x40)\n      dup1\n      dup4\n      sub\n      dup2\n      0x00\n      dup8\n      gas\n      call\n      iszero\n      dup1\n      iszero\n      tag_304\n      jumpi\n      returndatasize\n      0x00\n      dup1\n      returndatacopy\n      revert(0x00, returndatasize)\n    tag_304:\n      pop\n      pop\n      pop\n      pop\n      mload(0x40)\n      returndatasize\n      not(0x1f)\n      0x1f\n      dup3\n      add\n      and\n      dup3\n      add\n      dup1\n      0x40\n      mstore\n      pop\n      dup2\n      add\n      swap1\n      tag_305\n      swap2\n      swap1\n      tag_204\n      jump\t// in\n    tag_305:\n        /* \"contracts/mintone.sol\":3723:3778  bool rewardSuccess = usdtToken.transfer(upline, reward) */\n      swap1\n      pop\n        /* \"contracts/mintone.sol\":3801:3814  rewardSuccess */\n      dup1\n        /* \"contracts/mintone.sol\":3793:3841  require(rewardSuccess, \"Reward transfer failed\") */\n      tag_306\n      jumpi\n      mload(0x40)\n      shl(0xe5, 0x461bcd)\n      dup2\n      mstore\n        /* \"#utility.yul\":15851:15853   */\n      0x20\n        /* \"contracts/mintone.sol\":3793:3841  require(rewardSuccess, \"Reward transfer failed\") */\n      0x04\n      dup3\n      add\n        /* \"#utility.yul\":15833:15854   */\n      mstore\n        /* \"#utility.yul\":15890:15892   */\n      0x16\n        /* \"#utility.yul\":15870:15888   */\n      0x24\n      dup3\n      add\n        /* \"#utility.yul\":15863:15893   */\n      mstore\n      shl(0x52, 0x14995dd85c99081d1c985b9cd9995c8819985a5b1959)\n        /* \"#utility.yul\":15909:15927   */\n      0x44\n      dup3\n      add\n        /* \"#utility.yul\":15902:15954   */\n      mstore\n        /* \"#utility.yul\":15971:15989   */\n      0x64\n      add\n        /* \"contracts/mintone.sol\":3793:3841  require(rewardSuccess, \"Reward transfer failed\") */\n      tag_168\n        /* \"#utility.yul\":15649:15995   */\n      jump\n        /* \"contracts/mintone.sol\":3793:3841  require(rewardSuccess, \"Reward transfer failed\") */\n    tag_306:\n      sub(shl(0xa0, 0x01), 0x01)\n        /* \"contracts/mintone.sol\":3858:3871  users[upline] */\n      dup5\n      and\n      0x00\n      swap1\n      dup2\n      mstore\n        /* \"contracts/mintone.sol\":3858:3863  users */\n      0x03\n        /* \"contracts/mintone.sol\":3858:3871  users[upline] */\n      0x20\n      mstore\n      0x40\n      dup2\n      keccak256\n        /* \"contracts/mintone.sol\":3858:3883  users[upline].totalIncome */\n      0x02\n      add\n        /* \"contracts/mintone.sol\":3858:3893  users[upline].totalIncome += reward */\n      dup1\n      sload\n        /* \"contracts/mintone.sol\":3887:3893  reward */\n      dup5\n      swap3\n        /* \"contracts/mintone.sol\":3858:3871  users[upline] */\n      swap1\n        /* \"contracts/mintone.sol\":3858:3893  users[upline].totalIncome += reward */\n      tag_309\n      swap1\n        /* \"contracts/mintone.sol\":3887:3893  reward */\n      dup5\n      swap1\n        /* \"contracts/mintone.sol\":3858:3893  users[upline].totalIncome += reward */\n      tag_198\n      jump\t// in\n    tag_309:\n      swap1\n      swap2\n      sstore\n      pop\n      pop\n        /* \"contracts/mintone.sol\":3914:3920  i == 0 */\n      0xff\n      dup4\n      and\n        /* \"contracts/mintone.sol\":3919:3920  0 */\n      0x00\n        /* \"contracts/mintone.sol\":3914:3920  i == 0 */\n      sub\n        /* \"contracts/mintone.sol\":3910:4147  if (i == 0) {... */\n      tag_310\n      jumpi\n      sub(shl(0xa0, 0x01), 0x01)\n        /* \"contracts/mintone.sol\":3984:4012  directReferralIncome[upline] */\n      dup5\n      and\n      0x00\n      swap1\n      dup2\n      mstore\n        /* \"contracts/mintone.sol\":3984:4004  directReferralIncome */\n      0x07\n        /* \"contracts/mintone.sol\":3984:4012  directReferralIncome[upline] */\n      0x20\n      mstore\n      0x40\n      dup2\n      keccak256\n        /* \"contracts/mintone.sol\":3984:4022  directReferralIncome[upline] += reward */\n      dup1\n      sload\n        /* \"contracts/mintone.sol\":4016:4022  reward */\n      dup5\n      swap3\n        /* \"contracts/mintone.sol\":3984:4012  directReferralIncome[upline] */\n      swap1\n        /* \"contracts/mintone.sol\":3984:4022  directReferralIncome[upline] += reward */\n      tag_311\n      swap1\n        /* \"contracts/mintone.sol\":4016:4022  reward */\n      dup5\n      swap1\n        /* \"contracts/mintone.sol\":3984:4022  directReferralIncome[upline] += reward */\n      tag_198\n      jump\t// in\n    tag_311:\n      swap1\n      swap2\n      sstore\n      pop\n        /* \"contracts/mintone.sol\":3910:4147  if (i == 0) {... */\n      tag_312\n      swap1\n      pop\n      jump\n    tag_310:\n      sub(shl(0xa0, 0x01), 0x01)\n        /* \"contracts/mintone.sol\":4096:4109  users[upline] */\n      dup5\n      and\n      0x00\n      swap1\n      dup2\n      mstore\n        /* \"contracts/mintone.sol\":4096:4101  users */\n      0x03\n        /* \"contracts/mintone.sol\":4096:4109  users[upline] */\n      0x20\n      dup2\n      swap1\n      mstore\n      0x40\n      dup3\n      keccak256\n        /* \"contracts/mintone.sol\":4096:4121  users[upline].levelIncome */\n      add\n        /* \"contracts/mintone.sol\":4096:4131  users[upline].levelIncome += reward */\n      dup1\n      sload\n        /* \"contracts/mintone.sol\":4125:4131  reward */\n      dup5\n      swap3\n        /* \"contracts/mintone.sol\":4096:4109  users[upline] */\n      swap1\n        /* \"contracts/mintone.sol\":4096:4131  users[upline].levelIncome += reward */\n      tag_313\n      swap1\n        /* \"contracts/mintone.sol\":4125:4131  reward */\n      dup5\n      swap1\n        /* \"contracts/mintone.sol\":4096:4131  users[upline].levelIncome += reward */\n      tag_198\n      jump\t// in\n    tag_313:\n      swap1\n      swap2\n      sstore\n      pop\n      pop\n        /* \"contracts/mintone.sol\":3910:4147  if (i == 0) {... */\n    tag_312:\n      sub(shl(0xa0, 0x01), 0x01)\n        /* \"contracts/mintone.sol\":4193:4216  directReferrals[upline] */\n      dup5\n      and\n        /* \"contracts/mintone.sol\":4163:4190  ReferralInfo[] storage refs */\n      0x00\n        /* \"contracts/mintone.sol\":4193:4216  directReferrals[upline] */\n      swap1\n      dup2\n      mstore\n        /* \"contracts/mintone.sol\":4193:4208  directReferrals */\n      0x04\n        /* \"contracts/mintone.sol\":4193:4216  directReferrals[upline] */\n      0x20\n      mstore\n      0x40\n      dup2\n      keccak256\n      swap1\n        /* \"contracts/mintone.sol\":4231:4451  for (uint256 j = 0; j < refs.length; j++) {... */\n    tag_314:\n        /* \"contracts/mintone.sol\":4255:4266  refs.length */\n      dup2\n      sload\n        /* \"contracts/mintone.sol\":4251:4266  j < refs.length */\n      dup2\n      lt\n        /* \"contracts/mintone.sol\":4231:4451  for (uint256 j = 0; j < refs.length; j++) {... */\n      iszero\n      tag_315\n      jumpi\n        /* \"contracts/mintone.sol\":4323:4333  msg.sender */\n      caller\n      sub(shl(0xa0, 0x01), 0x01)\n        /* \"contracts/mintone.sol\":4296:4333  refs[j].referralAddress == msg.sender */\n      and\n        /* \"contracts/mintone.sol\":4296:4300  refs */\n      dup3\n        /* \"contracts/mintone.sol\":4301:4302  j */\n      dup3\n        /* \"contracts/mintone.sol\":4296:4303  refs[j] */\n      dup2\n      sload\n      dup2\n      lt\n      tag_318\n      jumpi\n      tag_318\n      tag_162\n      jump\t// in\n    tag_318:\n      0x00\n      swap2\n      dup3\n      mstore\n      0x20\n      swap1\n      swap2\n      keccak256\n      0x03\n      swap1\n      swap2\n      mul\n      add\n        /* \"contracts/mintone.sol\":4296:4319  refs[j].referralAddress */\n      sload\n      sub(shl(0xa0, 0x01), 0x01)\n      and\n        /* \"contracts/mintone.sol\":4296:4333  refs[j].referralAddress == msg.sender */\n      sub\n        /* \"contracts/mintone.sol\":4292:4436  if (refs[j].referralAddress == msg.sender) {... */\n      tag_320\n      jumpi\n        /* \"contracts/mintone.sol\":4382:4388  reward */\n      dup4\n        /* \"contracts/mintone.sol\":4358:4362  refs */\n      dup3\n        /* \"contracts/mintone.sol\":4363:4364  j */\n      dup3\n        /* \"contracts/mintone.sol\":4358:4365  refs[j] */\n      dup2\n      sload\n      dup2\n      lt\n      tag_322\n      jumpi\n      tag_322\n      tag_162\n      jump\t// in\n    tag_322:\n      swap1\n      0x00\n      mstore\n      keccak256(0x00, 0x20)\n      swap1\n      0x03\n      mul\n      add\n        /* \"contracts/mintone.sol\":4358:4378  refs[j].incomeEarned */\n      0x01\n      add\n      0x00\n        /* \"contracts/mintone.sol\":4358:4388  refs[j].incomeEarned += reward */\n      dup3\n      dup3\n      sload\n      tag_324\n      swap2\n      swap1\n      tag_198\n      jump\t// in\n    tag_324:\n      swap1\n      swap2\n      sstore\n      pop\n        /* \"contracts/mintone.sol\":4411:4416  break */\n      tag_315\n      swap1\n      pop\n      jump\n        /* \"contracts/mintone.sol\":4292:4436  if (refs[j].referralAddress == msg.sender) {... */\n    tag_320:\n        /* \"contracts/mintone.sol\":4268:4271  j++ */\n      0x01\n      add\n        /* \"contracts/mintone.sol\":4231:4451  for (uint256 j = 0; j < refs.length; j++) {... */\n      jump(tag_314)\n    tag_315:\n      pop\n      pop\n      pop\n      sub(shl(0xa0, 0x01), 0x01)\n        /* \"contracts/mintone.sol\":4476:4489  users[upline] */\n      swap3\n      dup4\n      and\n      0x00\n      swap1\n      dup2\n      mstore\n        /* \"contracts/mintone.sol\":4476:4481  users */\n      0x03\n        /* \"contracts/mintone.sol\":4476:4489  users[upline] */\n      0x20\n      mstore\n      0x40\n      swap1\n      keccak256\n        /* \"contracts/mintone.sol\":4476:4498  users[upline].referrer */\n      sload\n      swap1\n      swap3\n      and\n      swap2\n      pop\n        /* \"contracts/mintone.sol\":3534:3537  i++ */\n      dup1\n      tag_325\n      dup2\n      tag_326\n      jump\t// in\n    tag_325:\n      swap2\n      pop\n      pop\n        /* \"contracts/mintone.sol\":3467:4510  for (uint8 i = 0; i < levelRewards.length && upline != address(0); i++) {... */\n      jump(tag_286)\n    tag_287:\n      pop\n        /* \"contracts/mintone.sol\":2719:4517  {... */\n      pop\n      pop\n      pop\n        /* \"contracts/mintone.sol\":2647:4517  function stake(uint256 numDays, uint256 amount) external onlyRegistered {... */\n      pop\n      pop\n      jump\t// out\n        /* \"contracts/mintone.sol\":7748:8467  function getReferralIncomeDetails(address user) external view returns (... */\n    tag_96:\n      sub(shl(0xa0, 0x01), 0x01)\n        /* \"contracts/mintone.sol\":7985:8006  directReferrals[user] */\n      dup2\n      and\n        /* \"contracts/mintone.sol\":7955:7982  ReferralInfo[] storage refs */\n      0x00\n        /* \"contracts/mintone.sol\":7985:8006  directReferrals[user] */\n      swap1\n      dup2\n      mstore\n        /* \"contracts/mintone.sol\":7985:8000  directReferrals */\n      0x04\n        /* \"contracts/mintone.sol\":7985:8006  directReferrals[user] */\n      0x20\n      mstore\n      0x40\n      swap1\n      keccak256\n        /* \"contracts/mintone.sol\":8033:8044  refs.length */\n      dup1\n      sload\n        /* \"contracts/mintone.sol\":7829:7863  address[] memory referralAddresses */\n      0x60\n      swap2\n      dup3\n      swap2\n      dup3\n      swap2\n        /* \"contracts/mintone.sol\":7985:8006  directReferrals[user] */\n      swap1\n        /* \"contracts/mintone.sol\":8033:8044  refs.length */\n      dup1\n        /* \"contracts/mintone.sol\":8077:8097  new address[](count) */\n      0xffffffffffffffff\n      dup2\n      gt\n      iszero\n      tag_331\n      jumpi\n      tag_331\n      tag_155\n      jump\t// in\n    tag_331:\n      mload(0x40)\n      swap1\n      dup1\n      dup3\n      mstore\n      dup1\n      0x20\n      mul\n      0x20\n      add\n      dup3\n      add\n      0x40\n      mstore\n      dup1\n      iszero\n      tag_332\n      jumpi\n      dup2\n      0x20\n      add\n      0x20\n      dup3\n      mul\n      dup1\n      calldatasize\n      dup4\n      calldatacopy\n      add\n      swap1\n      pop\n    tag_332:\n      pop\n        /* \"contracts/mintone.sol\":8057:8097  referralAddresses = new address[](count) */\n      swap5\n      pop\n        /* \"contracts/mintone.sol\":8132:8137  count */\n      dup1\n        /* \"contracts/mintone.sol\":8118:8138  new uint256[](count) */\n      0xffffffffffffffff\n      dup2\n      gt\n      iszero\n      tag_334\n      jumpi\n      tag_334\n      tag_155\n      jump\t// in\n    tag_334:\n      mload(0x40)\n      swap1\n      dup1\n      dup3\n      mstore\n      dup1\n      0x20\n      mul\n      0x20\n      add\n      dup3\n      add\n      0x40\n      mstore\n      dup1\n      iszero\n      tag_335\n      jumpi\n      dup2\n      0x20\n      add\n      0x20\n      dup3\n      mul\n      dup1\n      calldatasize\n      dup4\n      calldatacopy\n      add\n      swap1\n      pop\n    tag_335:\n      pop\n        /* \"contracts/mintone.sol\":8108:8138  incomes = new uint256[](count) */\n      swap4\n      pop\n        /* \"contracts/mintone.sol\":8176:8181  count */\n      dup1\n        /* \"contracts/mintone.sol\":8162:8182  new uint256[](count) */\n      0xffffffffffffffff\n      dup2\n      gt\n      iszero\n      tag_337\n      jumpi\n      tag_337\n      tag_155\n      jump\t// in\n    tag_337:\n      mload(0x40)\n      swap1\n      dup1\n      dup3\n      mstore\n      dup1\n      0x20\n      mul\n      0x20\n      add\n      dup3\n      add\n      0x40\n      mstore\n      dup1\n      iszero\n      tag_338\n      jumpi\n      dup2\n      0x20\n      add\n      0x20\n      dup3\n      mul\n      dup1\n      calldatasize\n      dup4\n      calldatacopy\n      add\n      swap1\n      pop\n    tag_338:\n      pop\n        /* \"contracts/mintone.sol\":8149:8182  timestamps = new uint256[](count) */\n      swap3\n      pop\n        /* \"contracts/mintone.sol\":8200:8209  uint256 i */\n      0x00\n        /* \"contracts/mintone.sol\":8195:8400  for (uint256 i = 0; i < count; i++) {... */\n    tag_339:\n        /* \"contracts/mintone.sol\":8219:8224  count */\n      dup2\n        /* \"contracts/mintone.sol\":8215:8216  i */\n      dup2\n        /* \"contracts/mintone.sol\":8215:8224  i < count */\n      lt\n        /* \"contracts/mintone.sol\":8195:8400  for (uint256 i = 0; i < count; i++) {... */\n      iszero\n      tag_340\n      jumpi\n        /* \"contracts/mintone.sol\":8269:8273  refs */\n      dup3\n        /* \"contracts/mintone.sol\":8274:8275  i */\n      dup2\n        /* \"contracts/mintone.sol\":8269:8276  refs[i] */\n      dup2\n      sload\n      dup2\n      lt\n      tag_343\n      jumpi\n      tag_343\n      tag_162\n      jump\t// in\n    tag_343:\n      0x00\n      swap2\n      dup3\n      mstore\n      0x20\n      swap1\n      swap2\n      keccak256\n      0x03\n      swap1\n      swap2\n      mul\n      add\n        /* \"contracts/mintone.sol\":8269:8292  refs[i].referralAddress */\n      sload\n        /* \"contracts/mintone.sol\":8246:8266  referralAddresses[i] */\n      dup7\n      mload\n      sub(shl(0xa0, 0x01), 0x01)\n        /* \"contracts/mintone.sol\":8269:8292  refs[i].referralAddress */\n      swap1\n      swap2\n      and\n      swap1\n        /* \"contracts/mintone.sol\":8246:8263  referralAddresses */\n      dup8\n      swap1\n        /* \"contracts/mintone.sol\":8264:8265  i */\n      dup4\n      swap1\n        /* \"contracts/mintone.sol\":8246:8266  referralAddresses[i] */\n      dup2\n      lt\n      tag_346\n      jumpi\n      tag_346\n      tag_162\n      jump\t// in\n    tag_346:\n      0x20\n      mul\n      0x20\n      add\n      add\n        /* \"contracts/mintone.sol\":8246:8292  referralAddresses[i] = refs[i].referralAddress */\n      swap1\n      sub(shl(0xa0, 0x01), 0x01)\n      and\n      swap1\n      dup2\n      sub(shl(0xa0, 0x01), 0x01)\n      and\n      dup2\n      mstore\n      pop\n      pop\n        /* \"contracts/mintone.sol\":8320:8324  refs */\n      dup3\n        /* \"contracts/mintone.sol\":8325:8326  i */\n      dup2\n        /* \"contracts/mintone.sol\":8320:8327  refs[i] */\n      dup2\n      sload\n      dup2\n      lt\n      tag_348\n      jumpi\n      tag_348\n      tag_162\n      jump\t// in\n    tag_348:\n      swap1\n      0x00\n      mstore\n      keccak256(0x00, 0x20)\n      swap1\n      0x03\n      mul\n      add\n        /* \"contracts/mintone.sol\":8320:8340  refs[i].incomeEarned */\n      0x01\n      add\n      sload\n        /* \"contracts/mintone.sol\":8307:8314  incomes */\n      dup6\n        /* \"contracts/mintone.sol\":8315:8316  i */\n      dup3\n        /* \"contracts/mintone.sol\":8307:8317  incomes[i] */\n      dup2\n      mload\n      dup2\n      lt\n      tag_351\n      jumpi\n      tag_351\n      tag_162\n      jump\t// in\n    tag_351:\n      0x20\n      mul\n      0x20\n      add\n      add\n        /* \"contracts/mintone.sol\":8307:8340  incomes[i] = refs[i].incomeEarned */\n      dup2\n      dup2\n      mstore\n      pop\n      pop\n        /* \"contracts/mintone.sol\":8371:8375  refs */\n      dup3\n        /* \"contracts/mintone.sol\":8376:8377  i */\n      dup2\n        /* \"contracts/mintone.sol\":8371:8378  refs[i] */\n      dup2\n      sload\n      dup2\n      lt\n      tag_353\n      jumpi\n      tag_353\n      tag_162\n      jump\t// in\n    tag_353:\n      swap1\n      0x00\n      mstore\n      keccak256(0x00, 0x20)\n      swap1\n      0x03\n      mul\n      add\n        /* \"contracts/mintone.sol\":8371:8388  refs[i].timestamp */\n      0x02\n      add\n      sload\n        /* \"contracts/mintone.sol\":8355:8365  timestamps */\n      dup5\n        /* \"contracts/mintone.sol\":8366:8367  i */\n      dup3\n        /* \"contracts/mintone.sol\":8355:8368  timestamps[i] */\n      dup2\n      mload\n      dup2\n      lt\n      tag_356\n      jumpi\n      tag_356\n      tag_162\n      jump\t// in\n    tag_356:\n      0x20\n      swap1\n      dup2\n      mul\n      swap2\n      swap1\n      swap2\n      add\n      add\n        /* \"contracts/mintone.sol\":8355:8388  timestamps[i] = refs[i].timestamp */\n      mstore\n        /* \"contracts/mintone.sol\":8226:8229  i++ */\n      0x01\n      add\n        /* \"contracts/mintone.sol\":8195:8400  for (uint256 i = 0; i < count; i++) {... */\n      jump(tag_339)\n    tag_340:\n      pop\n        /* \"contracts/mintone.sol\":8412:8459  return (referralAddresses, incomes, timestamps) */\n      pop\n      pop\n        /* \"contracts/mintone.sol\":7748:8467  function getReferralIncomeDetails(address user) external view returns (... */\n      swap2\n      swap4\n      swap1\n      swap3\n      pop\n      jump\t// out\n        /* \"contracts/mintone.sol\":1760:1785  address[] public allUsers */\n    tag_101:\n      0x08\n      dup2\n      dup2\n      sload\n      dup2\n      lt\n      tag_357\n      jumpi\n      0x00\n      dup1\n      revert\n    tag_357:\n      0x00\n      swap2\n      dup3\n      mstore\n      0x20\n      swap1\n      swap2\n      keccak256\n      add\n      sload\n      sub(shl(0xa0, 0x01), 0x01)\n      and\n      swap1\n      pop\n      dup2\n      jump\t// out\n        /* \"contracts/mintone.sol\":4525:4979  function getEstimatedReturn(uint256 amount, uint256 numDays) external view returns (uint256 interest, uint256 totalReturn) {... */\n    tag_118:\n        /* \"contracts/mintone.sol\":4609:4625  uint256 interest */\n      0x00\n        /* \"contracts/mintone.sol\":4627:4646  uint256 totalReturn */\n      dup1\n        /* \"contracts/mintone.sol\":4676:4677  0 */\n      0x00\n        /* \"contracts/mintone.sol\":4667:4673  amount */\n      dup5\n        /* \"contracts/mintone.sol\":4667:4677  amount > 0 */\n      gt\n        /* \"contracts/mintone.sol\":4659:4711  require(amount > 0, \"Amount must be greater than 0\") */\n      tag_361\n      jumpi\n      mload(0x40)\n      shl(0xe5, 0x461bcd)\n      dup2\n      mstore\n        /* \"#utility.yul\":16382:16384   */\n      0x20\n        /* \"contracts/mintone.sol\":4659:4711  require(amount > 0, \"Amount must be greater than 0\") */\n      0x04\n      dup3\n      add\n        /* \"#utility.yul\":16364:16385   */\n      mstore\n        /* \"#utility.yul\":16421:16423   */\n      0x1d\n        /* \"#utility.yul\":16401:16419   */\n      0x24\n      dup3\n      add\n        /* \"#utility.yul\":16394:16424   */\n      mstore\n        /* \"#utility.yul\":16460:16491   */\n      0x416d6f756e74206d7573742062652067726561746572207468616e2030000000\n        /* \"#utility.yul\":16440:16458   */\n      0x44\n      dup3\n      add\n        /* \"#utility.yul\":16433:16492   */\n      mstore\n        /* \"#utility.yul\":16509:16527   */\n      0x64\n      add\n        /* \"contracts/mintone.sol\":4659:4711  require(amount > 0, \"Amount must be greater than 0\") */\n      tag_168\n        /* \"#utility.yul\":16180:16533   */\n      jump\n        /* \"contracts/mintone.sol\":4659:4711  require(amount > 0, \"Amount must be greater than 0\") */\n    tag_361:\n        /* \"contracts/mintone.sol\":4752:4753  0 */\n      0x00\n        /* \"contracts/mintone.sol\":4730:4749  stakingAPY[numDays] */\n      dup4\n      dup2\n      mstore\n        /* \"contracts/mintone.sol\":4730:4740  stakingAPY */\n      0x06\n        /* \"contracts/mintone.sol\":4730:4749  stakingAPY[numDays] */\n      0x20\n      mstore\n      0x40\n      swap1\n      keccak256\n      sload\n        /* \"contracts/mintone.sol\":4722:4782  require(stakingAPY[numDays] > 0, \"Invalid staking duration\") */\n      tag_364\n      jumpi\n      mload(0x40)\n      shl(0xe5, 0x461bcd)\n      dup2\n      mstore\n        /* \"#utility.yul\":14271:14273   */\n      0x20\n        /* \"contracts/mintone.sol\":4722:4782  require(stakingAPY[numDays] > 0, \"Invalid staking duration\") */\n      0x04\n      dup3\n      add\n        /* \"#utility.yul\":14253:14274   */\n      mstore\n        /* \"#utility.yul\":14310:14312   */\n      0x18\n        /* \"#utility.yul\":14290:14308   */\n      0x24\n      dup3\n      add\n        /* \"#utility.yul\":14283:14313   */\n      mstore\n      shl(0x41, 0x24b73b30b634b21039ba30b5b4b73390323ab930ba34b7b7)\n        /* \"#utility.yul\":14329:14347   */\n      0x44\n      dup3\n      add\n        /* \"#utility.yul\":14322:14376   */\n      mstore\n        /* \"#utility.yul\":14393:14411   */\n      0x64\n      add\n        /* \"contracts/mintone.sol\":4722:4782  require(stakingAPY[numDays] > 0, \"Invalid staking duration\") */\n      tag_168\n        /* \"#utility.yul\":14069:14417   */\n      jump\n        /* \"contracts/mintone.sol\":4722:4782  require(stakingAPY[numDays] > 0, \"Invalid staking duration\") */\n    tag_364:\n        /* \"contracts/mintone.sol\":4795:4806  uint256 apy */\n      0x00\n        /* \"contracts/mintone.sol\":4809:4828  stakingAPY[numDays] */\n      dup4\n      dup2\n      mstore\n        /* \"contracts/mintone.sol\":4809:4819  stakingAPY */\n      0x06\n        /* \"contracts/mintone.sol\":4809:4828  stakingAPY[numDays] */\n      0x20\n      mstore\n      0x40\n      swap1\n      keccak256\n      sload\n        /* \"contracts/mintone.sol\":4878:4887  100 * 365 */\n      0x8e94\n        /* \"contracts/mintone.sol\":4820:4827  numDays */\n      dup5\n        /* \"contracts/mintone.sol\":4851:4863  amount * apy */\n      tag_366\n        /* \"contracts/mintone.sol\":4809:4828  stakingAPY[numDays] */\n      dup4\n        /* \"contracts/mintone.sol\":4851:4857  amount */\n      dup9\n        /* \"contracts/mintone.sol\":4851:4863  amount * apy */\n      tag_190\n      jump\t// in\n    tag_366:\n        /* \"contracts/mintone.sol\":4851:4873  amount * apy * numDays */\n      tag_367\n      swap2\n      swap1\n      tag_190\n      jump\t// in\n    tag_367:\n        /* \"contracts/mintone.sol\":4850:4888  (amount * apy * numDays) / (100 * 365) */\n      tag_368\n      swap2\n      swap1\n      tag_187\n      jump\t// in\n    tag_368:\n        /* \"contracts/mintone.sol\":4839:4888  interest = (amount * apy * numDays) / (100 * 365) */\n      swap3\n      pop\n        /* \"contracts/mintone.sol\":4913:4930  amount + interest */\n      tag_369\n        /* \"contracts/mintone.sol\":4839:4888  interest = (amount * apy * numDays) / (100 * 365) */\n      dup4\n        /* \"contracts/mintone.sol\":4913:4919  amount */\n      dup7\n        /* \"contracts/mintone.sol\":4913:4930  amount + interest */\n      tag_198\n      jump\t// in\n    tag_369:\n        /* \"contracts/mintone.sol\":4899:4930  totalReturn = amount + interest */\n      swap2\n      pop\n        /* \"contracts/mintone.sol\":4941:4971  return (interest, totalReturn) */\n      pop\n        /* \"contracts/mintone.sol\":4525:4979  function getEstimatedReturn(uint256 amount, uint256 numDays) external view returns (uint256 interest, uint256 totalReturn) {... */\n      swap3\n      pop\n      swap3\n      swap1\n      pop\n      jump\t// out\n        /* \"contracts/mintone.sol\":1792:1838  uint8[5] public levelRewards = [5, 3, 2, 1, 1] */\n    tag_132:\n      0x09\n      dup2\n      0x05\n      dup2\n      lt\n      tag_372\n      jumpi\n      0x00\n      dup1\n      revert\n    tag_372:\n      0x20\n      swap2\n      dup3\n      dup3\n      div\n      add\n      swap2\n      swap1\n      mod\n      swap2\n      pop\n      sload\n      swap1\n      0x0100\n      exp\n      swap1\n      div\n      0xff\n      and\n      dup2\n      jump\t// out\n        /* \"contracts/mintone.sol\":8737:10671  function getLevelIncomeDistribution(address _user) external view returns (LevelIncomeData[] memory) {... */\n    tag_136:\n        /* \"contracts/mintone.sol\":8811:8835  LevelIncomeData[] memory */\n      0x60\n        /* \"contracts/mintone.sol\":8848:8866  uint256 totalCount */\n      0x00\n        /* \"contracts/mintone.sol\":8888:8897  uint256 i */\n      dup1\n        /* \"contracts/mintone.sol\":8883:9372  for (uint256 i = 0; i < allUsers.length; i++) {... */\n    tag_375:\n        /* \"contracts/mintone.sol\":8907:8915  allUsers */\n      0x08\n        /* \"contracts/mintone.sol\":8907:8922  allUsers.length */\n      sload\n        /* \"contracts/mintone.sol\":8903:8922  i < allUsers.length */\n      dup2\n      lt\n        /* \"contracts/mintone.sol\":8883:9372  for (uint256 i = 0; i < allUsers.length; i++) {... */\n      iszero\n      tag_376\n      jumpi\n        /* \"contracts/mintone.sol\":8944:8958  address staker */\n      0x00\n        /* \"contracts/mintone.sol\":8961:8969  allUsers */\n      0x08\n        /* \"contracts/mintone.sol\":8970:8971  i */\n      dup3\n        /* \"contracts/mintone.sol\":8961:8972  allUsers[i] */\n      dup2\n      sload\n      dup2\n      lt\n      tag_379\n      jumpi\n      tag_379\n      tag_162\n      jump\t// in\n    tag_379:\n      0x00\n      swap2\n      dup3\n      mstore\n      0x20\n      dup1\n      dup4\n      keccak256\n      swap1\n      swap2\n      add\n      sload\n      sub(shl(0xa0, 0x01), 0x01)\n      and\n        /* \"contracts/mintone.sol\":9011:9024  users[staker] */\n      dup1\n      dup4\n      mstore\n        /* \"contracts/mintone.sol\":9011:9016  users */\n      0x03\n        /* \"contracts/mintone.sol\":9011:9024  users[staker] */\n      dup3\n      mstore\n      0x40\n      dup1\n      dup5\n      keccak256\n        /* \"contracts/mintone.sol\":8961:8972  allUsers[i] */\n      0x01\n        /* \"contracts/mintone.sol\":9011:9031  users[staker].stakes */\n      add\n        /* \"contracts/mintone.sol\":8987:9031  Stake[] memory stakes = users[staker].stakes */\n      dup1\n      sload\n      dup3\n      mload\n      dup2\n      dup7\n      mul\n      dup2\n      add\n      dup7\n      add\n      swap1\n      swap4\n      mstore\n      dup1\n      dup4\n      mstore\n        /* \"contracts/mintone.sol\":8961:8972  allUsers[i] */\n      swap3\n      swap6\n      pop\n        /* \"contracts/mintone.sol\":8987:9031  Stake[] memory stakes = users[staker].stakes */\n      swap1\n      swap3\n        /* \"contracts/mintone.sol\":9011:9031  users[staker].stakes */\n      swap1\n      swap2\n        /* \"contracts/mintone.sol\":8987:9031  Stake[] memory stakes = users[staker].stakes */\n      swap1\n        /* \"contracts/mintone.sol\":8961:8972  allUsers[i] */\n      dup5\n      swap1\n        /* \"contracts/mintone.sol\":8987:9031  Stake[] memory stakes = users[staker].stakes */\n      dup5\n      add\n    tag_381:\n      dup3\n      dup3\n      lt\n      iszero\n      tag_382\n      jumpi\n      0x00\n      dup5\n      dup2\n      mstore\n      0x20\n      swap1\n      dup2\n      swap1\n      keccak256\n      0x40\n      dup1\n      mload\n      0xc0\n      dup2\n      add\n      dup3\n      mstore\n      0x06\n      dup7\n      mul\n      swap1\n      swap3\n      add\n      dup1\n      sload\n      dup4\n      mstore\n      0x01\n      dup1\n      dup3\n      add\n      sload\n      dup5\n      dup7\n      add\n      mstore\n      0x02\n      dup3\n      add\n      sload\n      swap3\n      dup5\n      add\n      swap3\n      swap1\n      swap3\n      mstore\n      0x03\n      dup2\n      add\n      sload\n      0x60\n      dup5\n      add\n      mstore\n      0x04\n      dup2\n      add\n      sload\n      0x80\n      dup5\n      add\n      mstore\n      0x05\n      add\n      sload\n      0xff\n      and\n      iszero\n      iszero\n      0xa0\n      dup4\n      add\n      mstore\n      swap1\n      dup4\n      mstore\n      swap1\n      swap3\n      add\n      swap2\n      add\n      jump(tag_381)\n    tag_382:\n      pop\n      pop\n      pop\n      pop\n      sub(shl(0xa0, 0x01), 0x01)\n        /* \"contracts/mintone.sol\":9063:9076  users[staker] */\n      dup4\n      dup2\n      and\n        /* \"contracts/mintone.sol\":9046:9060  address upline */\n      0x00\n        /* \"contracts/mintone.sol\":9063:9076  users[staker] */\n      swap1\n      dup2\n      mstore\n        /* \"contracts/mintone.sol\":9063:9068  users */\n      0x03\n        /* \"contracts/mintone.sol\":9063:9076  users[staker] */\n      0x20\n      mstore\n      0x40\n      dup2\n      keccak256\n        /* \"contracts/mintone.sol\":9063:9085  users[staker].referrer */\n      sload\n        /* \"contracts/mintone.sol\":8987:9031  Stake[] memory stakes = users[staker].stakes */\n      swap3\n      swap4\n      pop\n        /* \"contracts/mintone.sol\":9063:9085  users[staker].referrer */\n      swap2\n      and\n      swap1\n        /* \"contracts/mintone.sol\":9102:9361  for (uint8 level = 0; level < levelRewards.length && upline != address(0); level++) {... */\n    tag_384:\n        /* \"contracts/mintone.sol\":9132:9151  levelRewards.length */\n      0x05\n        /* \"contracts/mintone.sol\":9124:9129  level */\n      dup2\n        /* \"contracts/mintone.sol\":9124:9151  level < levelRewards.length */\n      0xff\n      and\n      lt\n        /* \"contracts/mintone.sol\":9124:9175  level < levelRewards.length && upline != address(0) */\n      dup1\n      iszero\n      tag_387\n      jumpi\n      pop\n      sub(shl(0xa0, 0x01), 0x01)\n        /* \"contracts/mintone.sol\":9155:9175  upline != address(0) */\n      dup3\n      and\n      iszero\n      iszero\n        /* \"contracts/mintone.sol\":9124:9175  level < levelRewards.length && upline != address(0) */\n    tag_387:\n        /* \"contracts/mintone.sol\":9102:9361  for (uint8 level = 0; level < levelRewards.length && upline != address(0); level++) {... */\n      iszero\n      tag_385\n      jumpi\n        /* \"contracts/mintone.sol\":9219:9224  _user */\n      dup8\n      sub(shl(0xa0, 0x01), 0x01)\n        /* \"contracts/mintone.sol\":9209:9224  upline == _user */\n      and\n        /* \"contracts/mintone.sol\":9209:9215  upline */\n      dup3\n      sub(shl(0xa0, 0x01), 0x01)\n        /* \"contracts/mintone.sol\":9209:9224  upline == _user */\n      and\n      sub\n        /* \"contracts/mintone.sol\":9205:9296  if (upline == _user) {... */\n      tag_388\n      jumpi\n        /* \"contracts/mintone.sol\":9263:9276  stakes.length */\n      dup3\n      mload\n        /* \"contracts/mintone.sol\":9249:9276  totalCount += stakes.length */\n      tag_389\n      swap1\n      dup8\n      tag_198\n      jump\t// in\n    tag_389:\n      swap6\n      pop\n        /* \"contracts/mintone.sol\":9205:9296  if (upline == _user) {... */\n    tag_388:\n      sub(shl(0xa0, 0x01), 0x01)\n        /* \"contracts/mintone.sol\":9323:9336  users[upline] */\n      swap2\n      dup3\n      and\n      0x00\n      swap1\n      dup2\n      mstore\n        /* \"contracts/mintone.sol\":9323:9328  users */\n      0x03\n        /* \"contracts/mintone.sol\":9323:9336  users[upline] */\n      0x20\n      mstore\n      0x40\n      swap1\n      keccak256\n        /* \"contracts/mintone.sol\":9323:9345  users[upline].referrer */\n      sload\n      swap1\n      swap2\n      and\n      swap1\n        /* \"contracts/mintone.sol\":9177:9184  level++ */\n      dup1\n      tag_390\n      dup2\n      tag_326\n      jump\t// in\n    tag_390:\n      swap2\n      pop\n      pop\n        /* \"contracts/mintone.sol\":9102:9361  for (uint8 level = 0; level < levelRewards.length && upline != address(0); level++) {... */\n      jump(tag_384)\n    tag_385:\n      pop\n      pop\n        /* \"contracts/mintone.sol\":8924:8927  i++ */\n      0x01\n      swap1\n      swap3\n      add\n      swap2\n      pop\n        /* \"contracts/mintone.sol\":8883:9372  for (uint256 i = 0; i < allUsers.length; i++) {... */\n      tag_375\n      swap1\n      pop\n      jump\n    tag_376:\n      pop\n        /* \"contracts/mintone.sol\":9384:9419  LevelIncomeData[] memory incomeData */\n      0x00\n        /* \"contracts/mintone.sol\":9444:9454  totalCount */\n      dup2\n        /* \"contracts/mintone.sol\":9422:9455  new LevelIncomeData[](totalCount) */\n      0xffffffffffffffff\n      dup2\n      gt\n      iszero\n      tag_392\n      jumpi\n      tag_392\n      tag_155\n      jump\t// in\n    tag_392:\n      mload(0x40)\n      swap1\n      dup1\n      dup3\n      mstore\n      dup1\n      0x20\n      mul\n      0x20\n      add\n      dup3\n      add\n      0x40\n      mstore\n      dup1\n      iszero\n      tag_393\n      jumpi\n      dup2\n      0x20\n      add\n    tag_394:\n      tag_395\n      mload(0x40)\n      dup1\n      0xe0\n      add\n      0x40\n      mstore\n      dup1\n      and(sub(shl(0xa0, 0x01), 0x01), 0x00)\n      dup2\n      mstore\n      0x20\n      add\n      0x00\n      dup2\n      mstore\n      0x20\n      add\n      0x00\n      dup2\n      mstore\n      0x20\n      add\n      0x00\n      dup2\n      mstore\n      0x20\n      add\n      and(sub(shl(0xa0, 0x01), 0x01), 0x00)\n      dup2\n      mstore\n      0x20\n      add\n      0x00\n      dup2\n      mstore\n      0x20\n      add\n      and(0xff, 0x00)\n      dup2\n      mstore\n      pop\n      swap1\n      jump\n    tag_395:\n      dup2\n      mstore\n      0x20\n      add\n      swap1\n      0x01\n      swap1\n      sub\n      swap1\n      dup2\n      tag_394\n      jumpi\n      swap1\n      pop\n    tag_393:\n      pop\n        /* \"contracts/mintone.sol\":9384:9455  LevelIncomeData[] memory incomeData = new LevelIncomeData[](totalCount) */\n      swap1\n      pop\n        /* \"contracts/mintone.sol\":9466:9479  uint256 index */\n      0x00\n        /* \"contracts/mintone.sol\":9501:9510  uint256 i */\n      dup1\n        /* \"contracts/mintone.sol\":9496:10634  for (uint256 i = 0; i < allUsers.length; i++) {... */\n    tag_397:\n        /* \"contracts/mintone.sol\":9520:9528  allUsers */\n      0x08\n        /* \"contracts/mintone.sol\":9520:9535  allUsers.length */\n      sload\n        /* \"contracts/mintone.sol\":9516:9535  i < allUsers.length */\n      dup2\n      lt\n        /* \"contracts/mintone.sol\":9496:10634  for (uint256 i = 0; i < allUsers.length; i++) {... */\n      iszero\n      tag_398\n      jumpi\n        /* \"contracts/mintone.sol\":9557:9571  address staker */\n      0x00\n        /* \"contracts/mintone.sol\":9574:9582  allUsers */\n      0x08\n        /* \"contracts/mintone.sol\":9583:9584  i */\n      dup3\n        /* \"contracts/mintone.sol\":9574:9585  allUsers[i] */\n      dup2\n      sload\n      dup2\n      lt\n      tag_401\n      jumpi\n      tag_401\n      tag_162\n      jump\t// in\n    tag_401:\n      0x00\n      swap2\n      dup3\n      mstore\n      0x20\n      dup1\n      dup4\n      keccak256\n      swap1\n      swap2\n      add\n      sload\n      sub(shl(0xa0, 0x01), 0x01)\n      and\n        /* \"contracts/mintone.sol\":9624:9637  users[staker] */\n      dup1\n      dup4\n      mstore\n        /* \"contracts/mintone.sol\":9624:9629  users */\n      0x03\n        /* \"contracts/mintone.sol\":9624:9637  users[staker] */\n      dup3\n      mstore\n      0x40\n      dup1\n      dup5\n      keccak256\n        /* \"contracts/mintone.sol\":9574:9585  allUsers[i] */\n      0x01\n        /* \"contracts/mintone.sol\":9624:9644  users[staker].stakes */\n      add\n        /* \"contracts/mintone.sol\":9600:9644  Stake[] memory stakes = users[staker].stakes */\n      dup1\n      sload\n      dup3\n      mload\n      dup2\n      dup7\n      mul\n      dup2\n      add\n      dup7\n      add\n      swap1\n      swap4\n      mstore\n      dup1\n      dup4\n      mstore\n        /* \"contracts/mintone.sol\":9574:9585  allUsers[i] */\n      swap3\n      swap6\n      pop\n        /* \"contracts/mintone.sol\":9600:9644  Stake[] memory stakes = users[staker].stakes */\n      swap1\n      swap3\n        /* \"contracts/mintone.sol\":9624:9644  users[staker].stakes */\n      swap1\n      swap2\n        /* \"contracts/mintone.sol\":9600:9644  Stake[] memory stakes = users[staker].stakes */\n      swap1\n        /* \"contracts/mintone.sol\":9574:9585  allUsers[i] */\n      dup5\n      swap1\n        /* \"contracts/mintone.sol\":9600:9644  Stake[] memory stakes = users[staker].stakes */\n      dup5\n      add\n    tag_403:\n      dup3\n      dup3\n      lt\n      iszero\n      tag_404\n      jumpi\n      0x00\n      dup5\n      dup2\n      mstore\n      0x20\n      swap1\n      dup2\n      swap1\n      keccak256\n      0x40\n      dup1\n      mload\n      0xc0\n      dup2\n      add\n      dup3\n      mstore\n      0x06\n      dup7\n      mul\n      swap1\n      swap3\n      add\n      dup1\n      sload\n      dup4\n      mstore\n      0x01\n      dup1\n      dup3\n      add\n      sload\n      dup5\n      dup7\n      add\n      mstore\n      0x02\n      dup3\n      add\n      sload\n      swap3\n      dup5\n      add\n      swap3\n      swap1\n      swap3\n      mstore\n      0x03\n      dup2\n      add\n      sload\n      0x60\n      dup5\n      add\n      mstore\n      0x04\n      dup2\n      add\n      sload\n      0x80\n      dup5\n      add\n      mstore\n      0x05\n      add\n      sload\n      0xff\n      and\n      iszero\n      iszero\n      0xa0\n      dup4\n      add\n      mstore\n      swap1\n      dup4\n      mstore\n      swap1\n      swap3\n      add\n      swap2\n      add\n      jump(tag_403)\n    tag_404:\n      pop\n      pop\n      pop\n      pop\n      sub(shl(0xa0, 0x01), 0x01)\n        /* \"contracts/mintone.sol\":9676:9689  users[staker] */\n      dup4\n      dup2\n      and\n        /* \"contracts/mintone.sol\":9659:9673  address upline */\n      0x00\n        /* \"contracts/mintone.sol\":9676:9689  users[staker] */\n      swap1\n      dup2\n      mstore\n        /* \"contracts/mintone.sol\":9676:9681  users */\n      0x03\n        /* \"contracts/mintone.sol\":9676:9689  users[staker] */\n      0x20\n      mstore\n      0x40\n      dup2\n      keccak256\n        /* \"contracts/mintone.sol\":9676:9698  users[staker].referrer */\n      sload\n        /* \"contracts/mintone.sol\":9600:9644  Stake[] memory stakes = users[staker].stakes */\n      swap3\n      swap4\n      pop\n        /* \"contracts/mintone.sol\":9676:9698  users[staker].referrer */\n      swap2\n      and\n      swap1\n        /* \"contracts/mintone.sol\":9715:10623  for (uint8 level = 0; level < levelRewards.length && upline != address(0); level++) {... */\n    tag_406:\n        /* \"contracts/mintone.sol\":9745:9764  levelRewards.length */\n      0x05\n        /* \"contracts/mintone.sol\":9737:9742  level */\n      dup2\n        /* \"contracts/mintone.sol\":9737:9764  level < levelRewards.length */\n      0xff\n      and\n      lt\n        /* \"contracts/mintone.sol\":9737:9788  level < levelRewards.length && upline != address(0) */\n      dup1\n      iszero\n      tag_409\n      jumpi\n      pop\n      sub(shl(0xa0, 0x01), 0x01)\n        /* \"contracts/mintone.sol\":9768:9788  upline != address(0) */\n      dup3\n      and\n      iszero\n      iszero\n        /* \"contracts/mintone.sol\":9737:9788  level < levelRewards.length && upline != address(0) */\n    tag_409:\n        /* \"contracts/mintone.sol\":9715:10623  for (uint8 level = 0; level < levelRewards.length && upline != address(0); level++) {... */\n      iszero\n      tag_407\n      jumpi\n        /* \"contracts/mintone.sol\":9832:9837  _user */\n      dup10\n      sub(shl(0xa0, 0x01), 0x01)\n        /* \"contracts/mintone.sol\":9822:9837  upline == _user */\n      and\n        /* \"contracts/mintone.sol\":9822:9828  upline */\n      dup3\n      sub(shl(0xa0, 0x01), 0x01)\n        /* \"contracts/mintone.sol\":9822:9837  upline == _user */\n      and\n      sub\n        /* \"contracts/mintone.sol\":9818:10558  if (upline == _user) {... */\n      tag_410\n      jumpi\n        /* \"contracts/mintone.sol\":9867:9876  uint256 j */\n      0x00\n        /* \"contracts/mintone.sol\":9862:10539  for (uint256 j = 0; j < stakes.length; j++) {... */\n    tag_411:\n        /* \"contracts/mintone.sol\":9886:9892  stakes */\n      dup4\n        /* \"contracts/mintone.sol\":9886:9899  stakes.length */\n      mload\n        /* \"contracts/mintone.sol\":9882:9883  j */\n      dup2\n        /* \"contracts/mintone.sol\":9882:9899  j < stakes.length */\n      lt\n        /* \"contracts/mintone.sol\":9862:10539  for (uint256 j = 0; j < stakes.length; j++) {... */\n      iszero\n      tag_412\n      jumpi\n        /* \"contracts/mintone.sol\":9933:9951  Stake memory stake */\n      0x00\n        /* \"contracts/mintone.sol\":9954:9960  stakes */\n      dup5\n        /* \"contracts/mintone.sol\":9961:9962  j */\n      dup3\n        /* \"contracts/mintone.sol\":9954:9963  stakes[j] */\n      dup2\n      mload\n      dup2\n      lt\n      tag_415\n      jumpi\n      tag_415\n      tag_162\n      jump\t// in\n    tag_415:\n      0x20\n      mul\n      0x20\n      add\n      add\n      mload\n        /* \"contracts/mintone.sol\":9933:9963  Stake memory stake = stakes[j] */\n      swap1\n      pop\n        /* \"contracts/mintone.sol\":9990:10004  uint256 income */\n      0x00\n        /* \"contracts/mintone.sol\":10046:10049  100 */\n      0x64\n        /* \"contracts/mintone.sol\":10023:10035  levelRewards */\n      0x09\n        /* \"contracts/mintone.sol\":10036:10041  level */\n      dup6\n        /* \"contracts/mintone.sol\":10023:10042  levelRewards[level] */\n      0xff\n      and\n      0x05\n      dup2\n      lt\n      tag_417\n      jumpi\n      tag_417\n      tag_162\n      jump\t// in\n    tag_417:\n      0x20\n      swap2\n      dup3\n      dup3\n      div\n      add\n      swap2\n      swap1\n      mod\n      swap1\n      sload\n      swap1\n      0x0100\n      exp\n      swap1\n      div\n      0xff\n      and\n        /* \"contracts/mintone.sol\":10008:10042  stake.amount * levelRewards[level] */\n      0xff\n      and\n        /* \"contracts/mintone.sol\":10008:10013  stake */\n      dup4\n        /* \"contracts/mintone.sol\":10008:10020  stake.amount */\n      0x40\n      add\n      mload\n        /* \"contracts/mintone.sol\":10008:10042  stake.amount * levelRewards[level] */\n      tag_419\n      swap2\n      swap1\n      tag_190\n      jump\t// in\n    tag_419:\n        /* \"contracts/mintone.sol\":10007:10049  (stake.amount * levelRewards[level]) / 100 */\n      tag_420\n      swap2\n      swap1\n      tag_187\n      jump\t// in\n    tag_420:\n        /* \"contracts/mintone.sol\":9990:10049  uint256 income = (stake.amount * levelRewards[level]) / 100 */\n      swap1\n      pop\n        /* \"contracts/mintone.sol\":10100:10515  LevelIncomeData({... */\n      mload(0x40)\n      dup1\n      0xe0\n      add\n      0x40\n      mstore\n      dup1\n        /* \"contracts/mintone.sol\":10164:10169  _user */\n      dup15\n      sub(shl(0xa0, 0x01), 0x01)\n        /* \"contracts/mintone.sol\":10100:10515  LevelIncomeData({... */\n      and\n      dup2\n      mstore\n      0x20\n      add\n        /* \"contracts/mintone.sol\":10209:10214  stake */\n      dup4\n        /* \"contracts/mintone.sol\":10209:10222  stake.stakeId */\n      0x00\n      add\n      mload\n        /* \"contracts/mintone.sol\":10100:10515  LevelIncomeData({... */\n      dup2\n      mstore\n      0x20\n      add\n        /* \"contracts/mintone.sol\":10266:10271  stake */\n      dup4\n        /* \"contracts/mintone.sol\":10266:10278  stake.amount */\n      0x40\n      add\n      mload\n        /* \"contracts/mintone.sol\":10100:10515  LevelIncomeData({... */\n      dup2\n      mstore\n      0x20\n      add\n        /* \"contracts/mintone.sol\":10325:10331  income */\n      dup3\n        /* \"contracts/mintone.sol\":10100:10515  LevelIncomeData({... */\n      dup2\n      mstore\n      0x20\n      add\n        /* \"contracts/mintone.sol\":10377:10383  staker */\n      dup9\n      sub(shl(0xa0, 0x01), 0x01)\n        /* \"contracts/mintone.sol\":10100:10515  LevelIncomeData({... */\n      and\n      dup2\n      mstore\n      0x20\n      add\n        /* \"contracts/mintone.sol\":10425:10430  stake */\n      dup4\n        /* \"contracts/mintone.sol\":10425:10440  stake.timestamp */\n      0x60\n      add\n      mload\n        /* \"contracts/mintone.sol\":10100:10515  LevelIncomeData({... */\n      dup2\n      mstore\n      0x20\n      add\n        /* \"contracts/mintone.sol\":10478:10483  level */\n      dup6\n        /* \"contracts/mintone.sol\":10486:10487  1 */\n      0x01\n        /* \"contracts/mintone.sol\":10478:10487  level + 1 */\n      tag_421\n      swap2\n      swap1\n      tag_422\n      jump\t// in\n    tag_421:\n        /* \"contracts/mintone.sol\":10100:10515  LevelIncomeData({... */\n      0xff\n      and\n      swap1\n      mstore\n        /* \"contracts/mintone.sol\":10078:10088  incomeData */\n      dup11\n        /* \"contracts/mintone.sol\":10089:10096  index++ */\n      dup11\n      tag_423\n      dup2\n      tag_284\n      jump\t// in\n    tag_423:\n      swap12\n      pop\n        /* \"contracts/mintone.sol\":10078:10097  incomeData[index++] */\n      dup2\n      mload\n      dup2\n      lt\n      tag_425\n      jumpi\n      tag_425\n      tag_162\n      jump\t// in\n    tag_425:\n      0x20\n      swap1\n      dup2\n      mul\n      swap2\n      swap1\n      swap2\n      add\n      add\n        /* \"contracts/mintone.sol\":10078:10515  incomeData[index++] = LevelIncomeData({... */\n      mstore\n      pop\n      pop\n        /* \"contracts/mintone.sol\":9901:9904  j++ */\n      0x01\n      add\n        /* \"contracts/mintone.sol\":9862:10539  for (uint256 j = 0; j < stakes.length; j++) {... */\n      jump(tag_411)\n    tag_412:\n      pop\n        /* \"contracts/mintone.sol\":9818:10558  if (upline == _user) {... */\n    tag_410:\n      sub(shl(0xa0, 0x01), 0x01)\n        /* \"contracts/mintone.sol\":10585:10598  users[upline] */\n      swap2\n      dup3\n      and\n      0x00\n      swap1\n      dup2\n      mstore\n        /* \"contracts/mintone.sol\":10585:10590  users */\n      0x03\n        /* \"contracts/mintone.sol\":10585:10598  users[upline] */\n      0x20\n      mstore\n      0x40\n      swap1\n      keccak256\n        /* \"contracts/mintone.sol\":10585:10607  users[upline].referrer */\n      sload\n      swap1\n      swap2\n      and\n      swap1\n        /* \"contracts/mintone.sol\":9790:9797  level++ */\n      dup1\n      tag_426\n      dup2\n      tag_326\n      jump\t// in\n    tag_426:\n      swap2\n      pop\n      pop\n        /* \"contracts/mintone.sol\":9715:10623  for (uint8 level = 0; level < levelRewards.length && upline != address(0); level++) {... */\n      jump(tag_406)\n    tag_407:\n      pop\n      pop\n        /* \"contracts/mintone.sol\":9537:9540  i++ */\n      0x01\n      swap1\n      swap3\n      add\n      swap2\n      pop\n        /* \"contracts/mintone.sol\":9496:10634  for (uint256 i = 0; i < allUsers.length; i++) {... */\n      tag_397\n      swap1\n      pop\n      jump\n    tag_398:\n      pop\n        /* \"contracts/mintone.sol\":10653:10663  incomeData */\n      swap1\n      swap5\n        /* \"contracts/mintone.sol\":8737:10671  function getLevelIncomeDistribution(address _user) external view returns (LevelIncomeData[] memory) {... */\n      swap4\n      pop\n      pop\n      pop\n      pop\n      jump\t// out\n        /* \"#utility.yul\":14:187   */\n    tag_427:\n        /* \"#utility.yul\":82:102   */\n      dup1\n      calldataload\n      sub(shl(0xa0, 0x01), 0x01)\n        /* \"#utility.yul\":131:162   */\n      dup2\n      and\n        /* \"#utility.yul\":121:163   */\n      dup2\n      eq\n        /* \"#utility.yul\":111:181   */\n      tag_432\n      jumpi\n        /* \"#utility.yul\":177:178   */\n      0x00\n        /* \"#utility.yul\":174:175   */\n      dup1\n        /* \"#utility.yul\":167:179   */\n      revert\n        /* \"#utility.yul\":111:181   */\n    tag_432:\n        /* \"#utility.yul\":14:187   */\n      swap2\n      swap1\n      pop\n      jump\t// out\n        /* \"#utility.yul\":192:446   */\n    tag_36:\n        /* \"#utility.yul\":260:266   */\n      0x00\n        /* \"#utility.yul\":268:274   */\n      dup1\n        /* \"#utility.yul\":321:323   */\n      0x40\n        /* \"#utility.yul\":309:318   */\n      dup4\n        /* \"#utility.yul\":300:307   */\n      dup6\n        /* \"#utility.yul\":296:319   */\n      sub\n        /* \"#utility.yul\":292:324   */\n      slt\n        /* \"#utility.yul\":289:341   */\n      iszero\n      tag_434\n      jumpi\n        /* \"#utility.yul\":337:338   */\n      0x00\n        /* \"#utility.yul\":334:335   */\n      dup1\n        /* \"#utility.yul\":327:339   */\n      revert\n        /* \"#utility.yul\":289:341   */\n    tag_434:\n        /* \"#utility.yul\":360:389   */\n      tag_435\n        /* \"#utility.yul\":379:388   */\n      dup4\n        /* \"#utility.yul\":360:389   */\n      tag_427\n      jump\t// in\n    tag_435:\n        /* \"#utility.yul\":350:389   */\n      swap5\n        /* \"#utility.yul\":436:438   */\n      0x20\n        /* \"#utility.yul\":421:439   */\n      swap4\n      swap1\n      swap4\n      add\n        /* \"#utility.yul\":408:440   */\n      calldataload\n      swap4\n      pop\n      pop\n      pop\n        /* \"#utility.yul\":192:446   */\n      jump\t// out\n        /* \"#utility.yul\":801:981   */\n    tag_42:\n        /* \"#utility.yul\":860:866   */\n      0x00\n        /* \"#utility.yul\":913:915   */\n      0x20\n        /* \"#utility.yul\":901:910   */\n      dup3\n        /* \"#utility.yul\":892:899   */\n      dup5\n        /* \"#utility.yul\":888:911   */\n      sub\n        /* \"#utility.yul\":884:916   */\n      slt\n        /* \"#utility.yul\":881:933   */\n      iszero\n      tag_438\n      jumpi\n        /* \"#utility.yul\":929:930   */\n      0x00\n        /* \"#utility.yul\":926:927   */\n      dup1\n        /* \"#utility.yul\":919:931   */\n      revert\n        /* \"#utility.yul\":881:933   */\n    tag_438:\n      pop\n        /* \"#utility.yul\":952:975   */\n      calldataload\n      swap2\n        /* \"#utility.yul\":801:981   */\n      swap1\n      pop\n      jump\t// out\n        /* \"#utility.yul\":1194:1380   */\n    tag_48:\n        /* \"#utility.yul\":1253:1259   */\n      0x00\n        /* \"#utility.yul\":1306:1308   */\n      0x20\n        /* \"#utility.yul\":1294:1303   */\n      dup3\n        /* \"#utility.yul\":1285:1292   */\n      dup5\n        /* \"#utility.yul\":1281:1304   */\n      sub\n        /* \"#utility.yul\":1277:1309   */\n      slt\n        /* \"#utility.yul\":1274:1326   */\n      iszero\n      tag_441\n      jumpi\n        /* \"#utility.yul\":1322:1323   */\n      0x00\n        /* \"#utility.yul\":1319:1320   */\n      dup1\n        /* \"#utility.yul\":1312:1324   */\n      revert\n        /* \"#utility.yul\":1274:1326   */\n    tag_441:\n        /* \"#utility.yul\":1345:1374   */\n      tag_442\n        /* \"#utility.yul\":1364:1373   */\n      dup3\n        /* \"#utility.yul\":1345:1374   */\n      tag_427\n      jump\t// in\n    tag_442:\n        /* \"#utility.yul\":1335:1374   */\n      swap4\n        /* \"#utility.yul\":1194:1380   */\n      swap3\n      pop\n      pop\n      pop\n      jump\t// out\n        /* \"#utility.yul\":1574:2013   */\n    tag_428:\n        /* \"#utility.yul\":1627:1630   */\n      0x00\n        /* \"#utility.yul\":1665:1670   */\n      dup2\n        /* \"#utility.yul\":1659:1671   */\n      mload\n        /* \"#utility.yul\":1692:1698   */\n      dup1\n        /* \"#utility.yul\":1687:1690   */\n      dup5\n        /* \"#utility.yul\":1680:1699   */\n      mstore\n        /* \"#utility.yul\":1718:1722   */\n      0x20\n        /* \"#utility.yul\":1747:1751   */\n      dup1\n        /* \"#utility.yul\":1742:1745   */\n      dup6\n        /* \"#utility.yul\":1738:1752   */\n      add\n        /* \"#utility.yul\":1731:1752   */\n      swap5\n      pop\n        /* \"#utility.yul\":1786:1790   */\n      0x20\n        /* \"#utility.yul\":1779:1784   */\n      dup5\n        /* \"#utility.yul\":1775:1791   */\n      add\n        /* \"#utility.yul\":1809:1810   */\n      0x00\n        /* \"#utility.yul\":1819:1988   */\n    tag_445:\n        /* \"#utility.yul\":1833:1839   */\n      dup4\n        /* \"#utility.yul\":1830:1831   */\n      dup2\n        /* \"#utility.yul\":1827:1840   */\n      lt\n        /* \"#utility.yul\":1819:1988   */\n      iszero\n      tag_447\n      jumpi\n        /* \"#utility.yul\":1894:1907   */\n      dup2\n      mload\n        /* \"#utility.yul\":1882:1908   */\n      dup8\n      mstore\n        /* \"#utility.yul\":1928:1940   */\n      swap6\n      dup3\n      add\n      swap6\n        /* \"#utility.yul\":1963:1978   */\n      swap1\n      dup3\n      add\n      swap1\n        /* \"#utility.yul\":1855:1856   */\n      0x01\n        /* \"#utility.yul\":1848:1857   */\n      add\n        /* \"#utility.yul\":1819:1988   */\n      jump(tag_445)\n    tag_447:\n      pop\n        /* \"#utility.yul\":2004:2007   */\n      swap5\n      swap6\n        /* \"#utility.yul\":1574:2013   */\n      swap5\n      pop\n      pop\n      pop\n      pop\n      pop\n      jump\t// out\n        /* \"#utility.yul\":2018:2279   */\n    tag_56:\n        /* \"#utility.yul\":2197:2199   */\n      0x20\n        /* \"#utility.yul\":2186:2195   */\n      dup2\n        /* \"#utility.yul\":2179:2200   */\n      mstore\n        /* \"#utility.yul\":2160:2164   */\n      0x00\n        /* \"#utility.yul\":2217:2273   */\n      tag_442\n        /* \"#utility.yul\":2269:2271   */\n      0x20\n        /* \"#utility.yul\":2258:2267   */\n      dup4\n        /* \"#utility.yul\":2254:2272   */\n      add\n        /* \"#utility.yul\":2246:2252   */\n      dup5\n        /* \"#utility.yul\":2217:2273   */\n      tag_428\n      jump\t// in\n        /* \"#utility.yul\":2888:3136   */\n    tag_78:\n        /* \"#utility.yul\":2956:2962   */\n      0x00\n        /* \"#utility.yul\":2964:2970   */\n      dup1\n        /* \"#utility.yul\":3017:3019   */\n      0x40\n        /* \"#utility.yul\":3005:3014   */\n      dup4\n        /* \"#utility.yul\":2996:3003   */\n      dup6\n        /* \"#utility.yul\":2992:3015   */\n      sub\n        /* \"#utility.yul\":2988:3020   */\n      slt\n        /* \"#utility.yul\":2985:3037   */\n      iszero\n      tag_453\n      jumpi\n        /* \"#utility.yul\":3033:3034   */\n      0x00\n        /* \"#utility.yul\":3030:3031   */\n      dup1\n        /* \"#utility.yul\":3023:3035   */\n      revert\n        /* \"#utility.yul\":2985:3037   */\n    tag_453:\n      pop\n      pop\n        /* \"#utility.yul\":3056:3079   */\n      dup1\n      calldataload\n      swap3\n        /* \"#utility.yul\":3126:3128   */\n      0x20\n        /* \"#utility.yul\":3111:3129   */\n      swap1\n      swap2\n      add\n        /* \"#utility.yul\":3098:3130   */\n      calldataload\n      swap2\n      pop\n        /* \"#utility.yul\":2888:3136   */\n      jump\t// out\n        /* \"#utility.yul\":3141:4182   */\n    tag_98:\n        /* \"#utility.yul\":3487:3489   */\n      0x60\n        /* \"#utility.yul\":3499:3520   */\n      dup1\n      dup3\n      mstore\n        /* \"#utility.yul\":3569:3582   */\n      dup5\n      mload\n        /* \"#utility.yul\":3472:3490   */\n      swap1\n      dup3\n      add\n        /* \"#utility.yul\":3591:3613   */\n      dup2\n      swap1\n      mstore\n        /* \"#utility.yul\":3439:3443   */\n      0x00\n      swap1\n        /* \"#utility.yul\":3667:3671   */\n      0x20\n      swap1\n        /* \"#utility.yul\":3644:3647   */\n      0x80\n        /* \"#utility.yul\":3629:3648   */\n      dup5\n      add\n      swap1\n        /* \"#utility.yul\":3694:3711   */\n      dup3\n      dup9\n      add\n        /* \"#utility.yul\":3439:3443   */\n      dup5\n        /* \"#utility.yul\":3739:3934   */\n    tag_455:\n        /* \"#utility.yul\":3753:3759   */\n      dup3\n        /* \"#utility.yul\":3750:3751   */\n      dup2\n        /* \"#utility.yul\":3747:3760   */\n      lt\n        /* \"#utility.yul\":3739:3934   */\n      iszero\n      tag_457\n      jumpi\n        /* \"#utility.yul\":3818:3831   */\n      dup2\n      mload\n      sub(shl(0xa0, 0x01), 0x01)\n        /* \"#utility.yul\":3814:3853   */\n      and\n        /* \"#utility.yul\":3802:3854   */\n      dup5\n      mstore\n        /* \"#utility.yul\":3874:3886   */\n      swap3\n      dup5\n      add\n      swap3\n        /* \"#utility.yul\":3909:3924   */\n      swap1\n      dup5\n      add\n      swap1\n        /* \"#utility.yul\":3850:3851   */\n      0x01\n        /* \"#utility.yul\":3768:3777   */\n      add\n        /* \"#utility.yul\":3739:3934   */\n      jump(tag_455)\n    tag_457:\n        /* \"#utility.yul\":3743:3746   */\n      pop\n      pop\n      pop\n        /* \"#utility.yul\":3981:3990   */\n      dup4\n        /* \"#utility.yul\":3976:3979   */\n      dup2\n        /* \"#utility.yul\":3972:3991   */\n      sub\n        /* \"#utility.yul\":3965:3969   */\n      0x20\n        /* \"#utility.yul\":3954:3963   */\n      dup6\n        /* \"#utility.yul\":3950:3970   */\n      add\n        /* \"#utility.yul\":3943:3992   */\n      mstore\n        /* \"#utility.yul\":4015:4056   */\n      tag_458\n        /* \"#utility.yul\":4052:4055   */\n      dup2\n        /* \"#utility.yul\":4044:4050   */\n      dup8\n        /* \"#utility.yul\":4015:4056   */\n      tag_428\n      jump\t// in\n    tag_458:\n        /* \"#utility.yul\":4001:4056   */\n      swap2\n      pop\n      pop\n        /* \"#utility.yul\":4104:4113   */\n      dup3\n        /* \"#utility.yul\":4096:4102   */\n      dup2\n        /* \"#utility.yul\":4092:4114   */\n      sub\n        /* \"#utility.yul\":4087:4089   */\n      0x40\n        /* \"#utility.yul\":4076:4085   */\n      dup5\n        /* \"#utility.yul\":4072:4090   */\n      add\n        /* \"#utility.yul\":4065:4115   */\n      mstore\n        /* \"#utility.yul\":4132:4176   */\n      tag_459\n        /* \"#utility.yul\":4169:4175   */\n      dup2\n        /* \"#utility.yul\":4161:4167   */\n      dup6\n        /* \"#utility.yul\":4132:4176   */\n      tag_428\n      jump\t// in\n    tag_459:\n        /* \"#utility.yul\":4124:4176   */\n      swap7\n        /* \"#utility.yul\":3141:4182   */\n      swap6\n      pop\n      pop\n      pop\n      pop\n      pop\n      pop\n      jump\t// out\n        /* \"#utility.yul\":5285:6533   */\n    tag_138:\n        /* \"#utility.yul\":5520:5522   */\n      0x20\n        /* \"#utility.yul\":5572:5593   */\n      dup1\n      dup3\n      mstore\n        /* \"#utility.yul\":5642:5655   */\n      dup3\n      mload\n        /* \"#utility.yul\":5545:5563   */\n      dup3\n      dup3\n      add\n        /* \"#utility.yul\":5664:5686   */\n      dup2\n      swap1\n      mstore\n        /* \"#utility.yul\":5491:5495   */\n      0x00\n      swap2\n        /* \"#utility.yul\":5520:5522   */\n      swap1\n        /* \"#utility.yul\":5705:5707   */\n      0x40\n      swap1\n        /* \"#utility.yul\":5723:5741   */\n      dup2\n      dup6\n      add\n      swap1\n        /* \"#utility.yul\":5764:5779   */\n      dup7\n      dup5\n      add\n        /* \"#utility.yul\":5491:5495   */\n      dup6\n        /* \"#utility.yul\":5807:6507   */\n    tag_465:\n        /* \"#utility.yul\":5821:5827   */\n      dup3\n        /* \"#utility.yul\":5818:5819   */\n      dup2\n        /* \"#utility.yul\":5815:5828   */\n      lt\n        /* \"#utility.yul\":5807:6507   */\n      iszero\n      tag_467\n      jumpi\n        /* \"#utility.yul\":5880:5893   */\n      dup2\n      mload\n        /* \"#utility.yul\":5964:5973   */\n      dup1\n      mload\n      sub(shl(0xa0, 0x01), 0x01)\n        /* \"#utility.yul\":5960:5978   */\n      swap1\n      dup2\n      and\n        /* \"#utility.yul\":5948:5979   */\n      dup7\n      mstore\n        /* \"#utility.yul\":6019:6030   */\n      dup8\n      dup3\n      add\n        /* \"#utility.yul\":6013:6031   */\n      mload\n        /* \"#utility.yul\":5999:6011   */\n      dup9\n      dup8\n      add\n        /* \"#utility.yul\":5992:6032   */\n      mstore\n        /* \"#utility.yul\":6072:6083   */\n      dup7\n      dup3\n      add\n        /* \"#utility.yul\":6066:6084   */\n      mload\n        /* \"#utility.yul\":6052:6064   */\n      dup8\n      dup8\n      add\n        /* \"#utility.yul\":6045:6085   */\n      mstore\n        /* \"#utility.yul\":6108:6112   */\n      0x60\n        /* \"#utility.yul\":6152:6163   */\n      dup1\n      dup4\n      add\n        /* \"#utility.yul\":6146:6164   */\n      mload\n        /* \"#utility.yul\":6132:6144   */\n      swap1\n      dup8\n      add\n        /* \"#utility.yul\":6125:6165   */\n      mstore\n        /* \"#utility.yul\":6188:6192   */\n      0x80\n        /* \"#utility.yul\":6236:6247   */\n      dup1\n      dup4\n      add\n        /* \"#utility.yul\":6230:6248   */\n      mload\n        /* \"#utility.yul\":6226:6253   */\n      swap1\n      swap2\n      and\n        /* \"#utility.yul\":6212:6224   */\n      swap1\n      dup7\n      add\n        /* \"#utility.yul\":6205:6254   */\n      mstore\n        /* \"#utility.yul\":5924:5927   */\n      0xa0\n        /* \"#utility.yul\":6321:6332   */\n      dup1\n      dup3\n      add\n        /* \"#utility.yul\":6315:6333   */\n      mload\n        /* \"#utility.yul\":6301:6313   */\n      swap1\n      dup7\n      add\n        /* \"#utility.yul\":6294:6334   */\n      mstore\n        /* \"#utility.yul\":6357:6361   */\n      0xc0\n        /* \"#utility.yul\":6405:6416   */\n      swap1\n      dup2\n      add\n        /* \"#utility.yul\":6399:6417   */\n      mload\n        /* \"#utility.yul\":6419:6423   */\n      0xff\n        /* \"#utility.yul\":6395:6424   */\n      and\n        /* \"#utility.yul\":6381:6393   */\n      swap1\n      dup6\n      add\n        /* \"#utility.yul\":6374:6425   */\n      mstore\n        /* \"#utility.yul\":6454:6458   */\n      0xe0\n        /* \"#utility.yul\":6445:6459   */\n      swap1\n      swap4\n      add\n      swap3\n        /* \"#utility.yul\":6482:6497   */\n      swap1\n      dup6\n      add\n      swap1\n        /* \"#utility.yul\":5933:5934   */\n      0x01\n        /* \"#utility.yul\":5836:5845   */\n      add\n        /* \"#utility.yul\":5807:6507   */\n      jump(tag_465)\n    tag_467:\n      pop\n        /* \"#utility.yul\":6524:6527   */\n      swap2\n      swap8\n        /* \"#utility.yul\":5285:6533   */\n      swap7\n      pop\n      pop\n      pop\n      pop\n      pop\n      pop\n      pop\n      jump\t// out\n        /* \"#utility.yul\":6538:6665   */\n    tag_155:\n        /* \"#utility.yul\":6599:6609   */\n      0x4e487b71\n        /* \"#utility.yul\":6594:6597   */\n      0xe0\n        /* \"#utility.yul\":6590:6610   */\n      shl\n        /* \"#utility.yul\":6587:6588   */\n      0x00\n        /* \"#utility.yul\":6580:6611   */\n      mstore\n        /* \"#utility.yul\":6630:6634   */\n      0x41\n        /* \"#utility.yul\":6627:6628   */\n      0x04\n        /* \"#utility.yul\":6620:6635   */\n      mstore\n        /* \"#utility.yul\":6654:6658   */\n      0x24\n        /* \"#utility.yul\":6651:6652   */\n      0x00\n        /* \"#utility.yul\":6644:6659   */\n      revert\n        /* \"#utility.yul\":6670:6797   */\n    tag_162:\n        /* \"#utility.yul\":6731:6741   */\n      0x4e487b71\n        /* \"#utility.yul\":6726:6729   */\n      0xe0\n        /* \"#utility.yul\":6722:6742   */\n      shl\n        /* \"#utility.yul\":6719:6720   */\n      0x00\n        /* \"#utility.yul\":6712:6743   */\n      mstore\n        /* \"#utility.yul\":6762:6766   */\n      0x32\n        /* \"#utility.yul\":6759:6760   */\n      0x04\n        /* \"#utility.yul\":6752:6767   */\n      mstore\n        /* \"#utility.yul\":6786:6790   */\n      0x24\n        /* \"#utility.yul\":6783:6784   */\n      0x00\n        /* \"#utility.yul\":6776:6791   */\n      revert\n        /* \"#utility.yul\":7832:7959   */\n    tag_429:\n        /* \"#utility.yul\":7893:7903   */\n      0x4e487b71\n        /* \"#utility.yul\":7888:7891   */\n      0xe0\n        /* \"#utility.yul\":7884:7904   */\n      shl\n        /* \"#utility.yul\":7881:7882   */\n      0x00\n        /* \"#utility.yul\":7874:7905   */\n      mstore\n        /* \"#utility.yul\":7924:7928   */\n      0x11\n        /* \"#utility.yul\":7921:7922   */\n      0x04\n        /* \"#utility.yul\":7914:7929   */\n      mstore\n        /* \"#utility.yul\":7948:7952   */\n      0x24\n        /* \"#utility.yul\":7945:7946   */\n      0x00\n        /* \"#utility.yul\":7938:7953   */\n      revert\n        /* \"#utility.yul\":7964:8092   */\n    tag_185:\n        /* \"#utility.yul\":8031:8040   */\n      dup2\n      dup2\n      sub\n        /* \"#utility.yul\":8052:8063   */\n      dup2\n      dup2\n      gt\n        /* \"#utility.yul\":8049:8086   */\n      iszero\n      tag_476\n      jumpi\n        /* \"#utility.yul\":8066:8084   */\n      tag_476\n      tag_429\n      jump\t// in\n    tag_476:\n        /* \"#utility.yul\":7964:8092   */\n      swap3\n      swap2\n      pop\n      pop\n      jump\t// out\n        /* \"#utility.yul\":8097:8314   */\n    tag_187:\n        /* \"#utility.yul\":8137:8138   */\n      0x00\n        /* \"#utility.yul\":8163:8164   */\n      dup3\n        /* \"#utility.yul\":8153:8285   */\n      tag_478\n      jumpi\n        /* \"#utility.yul\":8207:8217   */\n      0x4e487b71\n        /* \"#utility.yul\":8202:8205   */\n      0xe0\n        /* \"#utility.yul\":8198:8218   */\n      shl\n        /* \"#utility.yul\":8195:8196   */\n      0x00\n        /* \"#utility.yul\":8188:8219   */\n      mstore\n        /* \"#utility.yul\":8242:8246   */\n      0x12\n        /* \"#utility.yul\":8239:8240   */\n      0x04\n        /* \"#utility.yul\":8232:8247   */\n      mstore\n        /* \"#utility.yul\":8270:8274   */\n      0x24\n        /* \"#utility.yul\":8267:8268   */\n      0x00\n        /* \"#utility.yul\":8260:8275   */\n      revert\n        /* \"#utility.yul\":8153:8285   */\n    tag_478:\n      pop\n        /* \"#utility.yul\":8299:8308   */\n      div\n      swap1\n        /* \"#utility.yul\":8097:8314   */\n      jump\t// out\n        /* \"#utility.yul\":8319:8487   */\n    tag_190:\n        /* \"#utility.yul\":8392:8401   */\n      dup1\n      dup3\n      mul\n        /* \"#utility.yul\":8423:8432   */\n      dup2\n      iszero\n        /* \"#utility.yul\":8440:8455   */\n      dup3\n      dup3\n      div\n        /* \"#utility.yul\":8434:8456   */\n      dup5\n      eq\n        /* \"#utility.yul\":8420:8457   */\n      or\n        /* \"#utility.yul\":8410:8481   */\n      tag_476\n      jumpi\n        /* \"#utility.yul\":8461:8479   */\n      tag_476\n      tag_429\n      jump\t// in\n        /* \"#utility.yul\":8907:9032   */\n    tag_198:\n        /* \"#utility.yul\":8972:8981   */\n      dup1\n      dup3\n      add\n        /* \"#utility.yul\":8993:9003   */\n      dup1\n      dup3\n      gt\n        /* \"#utility.yul\":8990:9026   */\n      iszero\n      tag_476\n      jumpi\n        /* \"#utility.yul\":9006:9024   */\n      tag_476\n      tag_429\n      jump\t// in\n        /* \"#utility.yul\":9316:9593   */\n    tag_204:\n        /* \"#utility.yul\":9383:9389   */\n      0x00\n        /* \"#utility.yul\":9436:9438   */\n      0x20\n        /* \"#utility.yul\":9424:9433   */\n      dup3\n        /* \"#utility.yul\":9415:9422   */\n      dup5\n        /* \"#utility.yul\":9411:9434   */\n      sub\n        /* \"#utility.yul\":9407:9439   */\n      slt\n        /* \"#utility.yul\":9404:9456   */\n      iszero\n      tag_488\n      jumpi\n        /* \"#utility.yul\":9452:9453   */\n      0x00\n        /* \"#utility.yul\":9449:9450   */\n      dup1\n        /* \"#utility.yul\":9442:9454   */\n      revert\n        /* \"#utility.yul\":9404:9456   */\n    tag_488:\n        /* \"#utility.yul\":9484:9493   */\n      dup2\n        /* \"#utility.yul\":9478:9494   */\n      mload\n        /* \"#utility.yul\":9537:9542   */\n      dup1\n        /* \"#utility.yul\":9530:9543   */\n      iszero\n        /* \"#utility.yul\":9523:9544   */\n      iszero\n        /* \"#utility.yul\":9516:9521   */\n      dup2\n        /* \"#utility.yul\":9513:9545   */\n      eq\n        /* \"#utility.yul\":9503:9563   */\n      tag_442\n      jumpi\n        /* \"#utility.yul\":9559:9560   */\n      0x00\n        /* \"#utility.yul\":9556:9557   */\n      dup1\n        /* \"#utility.yul\":9549:9561   */\n      revert\n        /* \"#utility.yul\":11029:11213   */\n    tag_220:\n        /* \"#utility.yul\":11099:11105   */\n      0x00\n        /* \"#utility.yul\":11152:11154   */\n      0x20\n        /* \"#utility.yul\":11140:11149   */\n      dup3\n        /* \"#utility.yul\":11131:11138   */\n      dup5\n        /* \"#utility.yul\":11127:11150   */\n      sub\n        /* \"#utility.yul\":11123:11155   */\n      slt\n        /* \"#utility.yul\":11120:11172   */\n      iszero\n      tag_495\n      jumpi\n        /* \"#utility.yul\":11168:11169   */\n      0x00\n        /* \"#utility.yul\":11165:11166   */\n      dup1\n        /* \"#utility.yul\":11158:11170   */\n      revert\n        /* \"#utility.yul\":11120:11172   */\n    tag_495:\n      pop\n        /* \"#utility.yul\":11191:11207   */\n      mload\n      swap2\n        /* \"#utility.yul\":11029:11213   */\n      swap1\n      pop\n      jump\t// out\n        /* \"#utility.yul\":15151:15286   */\n    tag_284:\n        /* \"#utility.yul\":15190:15193   */\n      0x00\n        /* \"#utility.yul\":15211:15228   */\n      0x01\n      dup3\n      add\n        /* \"#utility.yul\":15208:15251   */\n      tag_509\n      jumpi\n        /* \"#utility.yul\":15231:15249   */\n      tag_509\n      tag_429\n      jump\t// in\n    tag_509:\n      pop\n        /* \"#utility.yul\":15278:15279   */\n      0x01\n        /* \"#utility.yul\":15267:15280   */\n      add\n      swap1\n        /* \"#utility.yul\":15151:15286   */\n      jump\t// out\n        /* \"#utility.yul\":16000:16175   */\n    tag_326:\n        /* \"#utility.yul\":16037:16040   */\n      0x00\n        /* \"#utility.yul\":16081:16085   */\n      0xff\n        /* \"#utility.yul\":16074:16079   */\n      dup3\n        /* \"#utility.yul\":16070:16086   */\n      and\n        /* \"#utility.yul\":16110:16114   */\n      0xff\n        /* \"#utility.yul\":16101:16108   */\n      dup2\n        /* \"#utility.yul\":16098:16115   */\n      sub\n        /* \"#utility.yul\":16095:16138   */\n      tag_514\n      jumpi\n        /* \"#utility.yul\":16118:16136   */\n      tag_514\n      tag_429\n      jump\t// in\n    tag_514:\n        /* \"#utility.yul\":16167:16168   */\n      0x01\n        /* \"#utility.yul\":16154:16169   */\n      add\n      swap3\n        /* \"#utility.yul\":16000:16175   */\n      swap2\n      pop\n      pop\n      jump\t// out\n        /* \"#utility.yul\":16538:16686   */\n    tag_422:\n        /* \"#utility.yul\":16626:16630   */\n      0xff\n        /* \"#utility.yul\":16605:16617   */\n      dup2\n      dup2\n      and\n        /* \"#utility.yul\":16619:16631   */\n      dup4\n      dup3\n      and\n        /* \"#utility.yul\":16601:16632   */\n      add\n      swap1\n        /* \"#utility.yul\":16644:16657   */\n      dup2\n      gt\n        /* \"#utility.yul\":16641:16680   */\n      iszero\n      tag_476\n      jumpi\n        /* \"#utility.yul\":16660:16678   */\n      tag_476\n      tag_429\n      jump\t// in\n\n    auxdata: 0xa264697066735822122016b8825484255fae3ee41e569fbf343561ee4741ce65aaee00ab8a3af857639664736f6c63430008190033\n}\n",
				"bytecode": {
					"linkReferences": {},
					"object": "61012060405260056080818152600360a052600260c052600160e08190526101005261002e9160099190610142565b5034801561003a575f80fd5b50604051612380380380612380833981016040819052610059916101e6565b5f8054336001600160a01b031991821681178355600280549092166001600160a01b03949094169390931790559081526003602081815260408320600401805460ff191660019081179091556006918290527fb6ba906ff52451a7a924e2eaeb8aea3ebee7350a8703e5e417edb25358c7dcc1557f1727c0104c2870c3003671480695f7dab262614528b49265008e76fd3d48c5fe919091557ffb78eb295a86b096b5f095822bd250a277112be4103ea4a7608d96eca726b2c15561016d9052600c7f0bbf8adea84d189c39869a372ab30aeba9246eea044edc5a37ac100921b2c4e155610213565b6001830191839082156101c2579160200282015f5b8382111561019457835183826101000a81548160ff021916908360ff16021790555092602001926001016020815f01049283019260010302610157565b80156101c05782816101000a81549060ff02191690556001016020815f01049283019260010302610194565b505b506101ce9291506101d2565b5090565b5b808211156101ce575f81556001016101d3565b5f602082840312156101f6575f80fd5b81516001600160a01b038116811461020c575f80fd5b9392505050565b612160806102205f395ff3fe608060405234801561000f575f80fd5b5060043610610187575f3560e01c80639be572f6116100d9578063bd29717811610093578063e45a57d01161006e578063e45a57d0146104e3578063ef71ae56146104f6578063f6e8887314610516578063f7b17d1014610535575f80fd5b8063bd29717814610452578063c2d3c6771461047a578063c3c5a547146104a5575f80fd5b80639be572f61461036b5780639d747bad14610373578063a2bdedf414610395578063a87430ba146103a8578063a98ad46c14610417578063aa7ed4621461042a575f80fd5b80634420e486116101445780637b0472f01161011f5780637b0472f0146102ff578063875bb4e2146103125780638da5cb5b1461033157806398278efb14610343575f80fd5b80634420e486146102755780635bd4e16a14610288578063797c7f5f146102c2575f80fd5b806305ad39351461018b5780631e43eb27146101c857806321923bde1461020857806328fe70311461022d578063379607f51461024d5780633ea521ef14610262575b5f80fd5b61019e610199366004611e35565b61053e565b604080516001600160a01b0390941684526020840192909252908201526060015b60405180910390f35b6101f06101d6366004611e5d565b60056020525f90815260409020546001600160a01b031681565b6040516001600160a01b0390911681526020016101bf565b61021b610216366004611e74565b610586565b60405160ff90911681526020016101bf565b61024061023b366004611e74565b6105d9565b6040516101bf9190611ece565b61026061025b366004611e5d565b6106af565b005b610260610270366004611e5d565b610a57565b610260610283366004611e74565b610c26565b6102b4610296366004611e74565b6001600160a01b03165f908152600360208190526040909120015490565b6040519081526020016101bf565b6102d56102d0366004611e5d565b610e06565b604080516001600160a01b03909516855260208501939093529183015260608201526080016101bf565b61026061030d366004611ee0565b610ff2565b6102b4610320366004611e5d565b60066020525f908152604090205481565b5f546101f0906001600160a01b031681565b6102b4610351366004611e74565b6001600160a01b03165f9081526004602052604090205490565b6008546102b4565b610386610381366004611e74565b611659565b6040516101bf93929190611f00565b6101f06103a3366004611e5d565b611846565b6103eb6103b6366004611e74565b600360208190525f918252604090912080546002820154928201546004909201546001600160a01b0390911692919060ff1684565b604080516001600160a01b039095168552602085019390935291830152151560608201526080016101bf565b6002546101f0906001600160a01b031681565b6102b4610438366004611e74565b6001600160a01b03165f9081526007602052604090205490565b610465610460366004611ee0565b61186e565b604080519283526020830191909152016101bf565b6102b4610488366004611e74565b6001600160a01b03165f9081526003602052604090206002015490565b6104d36104b3366004611e74565b6001600160a01b03165f9081526003602052604090206004015460ff1690565b60405190151581526020016101bf565b61021b6104f1366004611e5d565b61195a565b610509610504366004611e74565b611983565b6040516101bf9190611f75565b6102b4610524366004611e74565b60076020525f908152604090205481565b6102b460015481565b6004602052815f5260405f208181548110610557575f80fd5b5f9182526020909120600390910201805460018201546002909201546001600160a01b03909116935090915083565b6001600160a01b0381165f90815260046020526040812054600a81106105af5750600392915050565b600581106105c05750600292915050565b600181106105d15750600192915050565b505f92915050565b6001600160a01b0381165f908152600360205260408120600101546060918167ffffffffffffffff81111561061057610610612007565b604051908082528060200260200182016040528015610639578160200160208202803683370190505b5090505f5b828110156106a7576001600160a01b0385165f9081526003602052604090206001018054829081106106725761067261201b565b905f5260205f209060060201600101548282815181106106945761069461201b565b602090810291909101015260010161063e565b509392505050565b335f9081526003602052604090206004015460ff166107065760405162461bcd60e51b815260206004820152600e60248201526d139bdd081c9959da5cdd195c995960921b60448201526064015b60405180910390fd5b5f818152600560205260409020546001600160a01b031633811461075d5760405162461bcd60e51b815260206004820152600e60248201526d4e6f7420796f7572207374616b6560901b60448201526064016106fd565b335f908152600360205260408120600101905b8154811015610a02575f82828154811061078c5761078c61201b565b905f5260205f2090600602019050848160010154036109f957600581015460ff16156107ec5760405162461bcd60e51b815260206004820152600f60248201526e105b1c9958591e4818db185a5b5959608a1b60448201526064016106fd565b5f620151808260030154426108019190612043565b61080b919061205c565b90505f8260040154821061084e5760048301545f90815260066020526040902054600284015460649161083d9161207b565b610847919061205c565b90506108bd565b601482101561085e57505f6108bd565b60405162461bcd60e51b815260206004820152602e60248201527f43616e6e6f7420636c61696d206265747765656e203230206461797320616e6460448201526d10333ab63610323ab930ba34b7b760911b60648201526084016106fd565b60058301805460ff1916600117905560028054908401546001600160a01b039091169063a9059cbb9033906108f3908590612092565b6040516001600160e01b031960e085901b1681526001600160a01b03909216600483015260248201526044016020604051808303815f875af115801561093b573d5f803e3d5ffd5b505050506040513d601f19601f8201168201806040525081019061095f91906120a5565b6109a35760405162461bcd60e51b8152602060048201526015602482015274151bdad95b881d1c985b9cd9995c8819985a5b1959605a1b60448201526064016106fd565b60018301546002840154604080519283526020830191909152810182905233907f9cdcf2f7714cca3508c7f0110b04a90a80a3a8dd0e35de99689db74d28c5383e9060600160405180910390a250505050505050565b50600101610770565b5060405162461bcd60e51b8152602060048201526024808201527f5374616b65206e6f7420666f756e6420666f7220676976656e20706f736974696044820152631bdb925960e21b60648201526084016106fd565b5f546001600160a01b03163314610ab05760405162461bcd60e51b815260206004820152601760248201527f4f6e6c79206f776e65722063616e20776974686472617700000000000000000060448201526064016106fd565b6002546040516370a0823160e01b815230600482015282916001600160a01b0316906370a0823190602401602060405180830381865afa158015610af6573d5f803e3d5ffd5b505050506040513d601f19601f82011682018060405250810190610b1a91906120c4565b1015610b685760405162461bcd60e51b815260206004820181905260248201527f496e73756666696369656e742062616c616e636520696e20636f6e747261637460448201526064016106fd565b6002545f805460405163a9059cbb60e01b81526001600160a01b039182166004820152602481018590529192169063a9059cbb906044016020604051808303815f875af1158015610bbb573d5f803e3d5ffd5b505050506040513d601f19601f82011682018060405250810190610bdf91906120a5565b905080610c225760405162461bcd60e51b815260206004820152601160248201527015da5d1a191c985dd85b0819985a5b1959607a1b60448201526064016106fd565b5050565b335f9081526003602052604090206004015460ff1615610c7d5760405162461bcd60e51b8152602060048201526012602482015271105b1c9958591e481c9959da5cdd195c995960721b60448201526064016106fd565b336001600160a01b03821603610ccd5760405162461bcd60e51b815260206004820152601560248201527421b0b73737ba103932b332b9103cb7bab939b2b63360591b60448201526064016106fd565b6001600160a01b0381165f9081526003602052604090206004015460ff16610d375760405162461bcd60e51b815260206004820152601760248201527f5265666572726572206e6f74207265676973746572656400000000000000000060448201526064016106fd565b335f81815260036020818152604080842080546001600160a01b039788166001600160a01b0319918216811783556004928301805460ff19166001908117909155600880548083019091557ff3f7a9fe364faab93b216da50a3214154f22a0a2b415b23a84c8169e8b636ee301805484168a17905590875291845282862083516060810185529788528785018781524294890194855281548085018355918852949096209651959094029095018054949096169390921692909217845590519183019190915551600290910155565b5f818152600560205260408120548190819081906001600160a01b031680610e655760405162461bcd60e51b8152602060048201526012602482015271125b9d985b1a59081c1bdcda5d1a5bdb925960721b60448201526064016106fd565b6001600160a01b0381165f90815260036020908152604080832060010180548251818502810185019093528083529192909190849084015b82821015610f09575f8481526020908190206040805160c08101825260068602909201805483526001808201548486015260028201549284019290925260038101546060840152600481015460808401526005015460ff16151560a08301529083529092019101610e9d565b5050505090505f5b8151811015610fb05787828281518110610f2d57610f2d61201b565b60200260200101516020015103610fa85782828281518110610f5157610f5161201b565b60200260200101515f0151838381518110610f6e57610f6e61201b565b602002602001015160400151848481518110610f8c57610f8c61201b565b6020026020010151606001519650965096509650505050610feb565b600101610f11565b5060405162461bcd60e51b815260206004820152600f60248201526e14dd185ad9481b9bdd08199bdd5b99608a1b60448201526064016106fd565b9193509193565b335f9081526003602052604090206004015460ff166110445760405162461bcd60e51b815260206004820152600e60248201526d139bdd081c9959da5cdd195c995960921b60448201526064016106fd565b5f811161109f5760405162461bcd60e51b815260206004820152602360248201527f5374616b6520616d6f756e74206d75737420626520677265617465722074686160448201526206e20360ec1b60648201526084016106fd565b5f828152600660205260409020546110f45760405162461bcd60e51b815260206004820152601860248201527724b73b30b634b21039ba30b5b4b73390323ab930ba34b7b760411b60448201526064016106fd565b6002546040516323b872dd60e01b8152336004820152306024820152604481018390525f916001600160a01b0316906323b872dd906064016020604051808303815f875af1158015611148573d5f803e3d5ffd5b505050506040513d601f19601f8201168201806040525081019061116c91906120a5565b9050806111b25760405162461bcd60e51b81526020600482015260146024820152731554d115081d1c985b9cd9995c8819985a5b195960621b60448201526064016106fd565b5f60015f81546111c1906120db565b919050819055905060035f336001600160a01b03166001600160a01b031681526020019081526020015f206001016040518060c0016040528060015481526020018381526020018581526020014281526020018681526020015f1515815250908060018154018082558091505060019003905f5260205f2090600602015f909190919091505f820151815f01556020820151816001015560408201518160020155606082015181600301556080820151816004015560a0820151816005015f6101000a81548160ff02191690831515021790555050503360055f8381526020019081526020015f205f6101000a8154816001600160a01b0302191690836001600160a01b031602179055505f60035f336001600160a01b03166001600160a01b031681526020019081526020015f205f015f9054906101000a90046001600160a01b031690505f5b60058160ff1610801561132457506001600160a01b03821615155b15611651575f606460098360ff16600581106113425761134261201b565b60208104919091015461136191601f166101000a900460ff168861207b565b61136b919061205c565b6002546040516370a0823160e01b815230600482015291925082916001600160a01b03909116906370a0823190602401602060405180830381865afa1580156113b6573d5f803e3d5ffd5b505050506040513d601f19601f820116820180604052508101906113da91906120c4565b10156114285760405162461bcd60e51b815260206004820152601d60248201527f496e73756666696369656e7420636f6e74726163742062616c616e636500000060448201526064016106fd565b60025460405163a9059cbb60e01b81526001600160a01b038581166004830152602482018490525f92169063a9059cbb906044016020604051808303815f875af1158015611478573d5f803e3d5ffd5b505050506040513d601f19601f8201168201806040525081019061149c91906120a5565b9050806114e45760405162461bcd60e51b815260206004820152601660248201527514995dd85c99081d1c985b9cd9995c8819985a5b195960521b60448201526064016106fd565b6001600160a01b0384165f908152600360205260408120600201805484929061150e908490612092565b909155505060ff83165f0361154f576001600160a01b0384165f9081526007602052604081208054849290611544908490612092565b9091555061157f9050565b6001600160a01b0384165f9081526003602081905260408220018054849290611579908490612092565b90915550505b6001600160a01b0384165f908152600460205260408120905b815481101561161e57336001600160a01b03168282815481106115bd576115bd61201b565b5f9182526020909120600390910201546001600160a01b03160361161657838282815481106115ee576115ee61201b565b905f5260205f2090600302016001015f82825461160b9190612092565b9091555061161e9050565b600101611598565b5050506001600160a01b039283165f90815260036020526040902054909216915080611649816120f3565b915050611309565b505050505050565b6001600160a01b0381165f908152600460205260409020805460609182918291908067ffffffffffffffff81111561169357611693612007565b6040519080825280602002602001820160405280156116bc578160200160208202803683370190505b5094508067ffffffffffffffff8111156116d8576116d8612007565b604051908082528060200260200182016040528015611701578160200160208202803683370190505b5093508067ffffffffffffffff81111561171d5761171d612007565b604051908082528060200260200182016040528015611746578160200160208202803683370190505b5092505f5b8181101561183c578281815481106117655761176561201b565b5f91825260209091206003909102015486516001600160a01b03909116908790839081106117955761179561201b565b60200260200101906001600160a01b031690816001600160a01b0316815250508281815481106117c7576117c761201b565b905f5260205f209060030201600101548582815181106117e9576117e961201b565b6020026020010181815250508281815481106118075761180761201b565b905f5260205f209060030201600201548482815181106118295761182961201b565b602090810291909101015260010161174b565b5050509193909250565b60088181548110611855575f80fd5b5f918252602090912001546001600160a01b0316905081565b5f805f84116118bf5760405162461bcd60e51b815260206004820152601d60248201527f416d6f756e74206d7573742062652067726561746572207468616e203000000060448201526064016106fd565b5f838152600660205260409020546119145760405162461bcd60e51b815260206004820152601860248201527724b73b30b634b21039ba30b5b4b73390323ab930ba34b7b760411b60448201526064016106fd565b5f83815260066020526040902054618e9484611930838861207b565b61193a919061207b565b611944919061205c565b92506119508386612092565b9150509250929050565b60098160058110611969575f80fd5b60209182820401919006915054906101000a900460ff1681565b60605f805b600854811015611b00575f600882815481106119a6576119a661201b565b5f9182526020808320909101546001600160a01b031680835260038252604080842060010180548251818602810186019093528083529295509092909190849084015b82821015611a55575f8481526020908190206040805160c08101825260068602909201805483526001808201548486015260028201549284019290925260038101546060840152600481015460808401526005015460ff16151560a083015290835290920191016119e9565b505050506001600160a01b038381165f908152600360205260408120549293509116905b60058160ff16108015611a9457506001600160a01b03821615155b15611af057876001600160a01b0316826001600160a01b031603611ac1578251611abe9087612092565b95505b6001600160a01b039182165f908152600360205260409020549091169080611ae8816120f3565b915050611a79565b5050600190920191506119889050565b505f8167ffffffffffffffff811115611b1b57611b1b612007565b604051908082528060200260200182016040528015611b9a57816020015b611b876040518060e001604052805f6001600160a01b031681526020015f81526020015f81526020015f81526020015f6001600160a01b031681526020015f81526020015f60ff1681525090565b815260200190600190039081611b395790505b5090505f805b600854811015611e10575f60088281548110611bbe57611bbe61201b565b5f9182526020808320909101546001600160a01b031680835260038252604080842060010180548251818602810186019093528083529295509092909190849084015b82821015611c6d575f8481526020908190206040805160c08101825260068602909201805483526001808201548486015260028201549284019290925260038101546060840152600481015460808401526005015460ff16151560a08301529083529092019101611c01565b505050506001600160a01b038381165f908152600360205260408120549293509116905b60058160ff16108015611cac57506001600160a01b03821615155b15611e0057896001600160a01b0316826001600160a01b031603611dd1575f5b8351811015611dcf575f848281518110611ce857611ce861201b565b602002602001015190505f606460098560ff1660058110611d0b57611d0b61201b565b602091828204019190069054906101000a900460ff1660ff168360400151611d33919061207b565b611d3d919061205c565b90506040518060e001604052808e6001600160a01b03168152602001835f0151815260200183604001518152602001828152602001886001600160a01b0316815260200183606001518152602001856001611d989190612111565b60ff1690528a8a611da8816120db565b9b5081518110611dba57611dba61201b565b60209081029190910101525050600101611ccc565b505b6001600160a01b039182165f908152600360205260409020549091169080611df8816120f3565b915050611c91565b505060019092019150611ba09050565b5090949350505050565b80356001600160a01b0381168114611e30575f80fd5b919050565b5f8060408385031215611e46575f80fd5b611e4f83611e1a565b946020939093013593505050565b5f60208284031215611e6d575f80fd5b5035919050565b5f60208284031215611e84575f80fd5b611e8d82611e1a565b9392505050565b5f815180845260208085019450602084015f5b83811015611ec357815187529582019590820190600101611ea7565b509495945050505050565b602081525f611e8d6020830184611e94565b5f8060408385031215611ef1575f80fd5b50508035926020909101359150565b606080825284519082018190525f906020906080840190828801845b82811015611f415781516001600160a01b031684529284019290840190600101611f1c565b5050508381036020850152611f568187611e94565b9150508281036040840152611f6b8185611e94565b9695505050505050565b602080825282518282018190525f919060409081850190868401855b82811015611ffa57815180516001600160a01b03908116865287820151888701528682015187870152606080830151908701526080808301519091169086015260a0808201519086015260c09081015160ff169085015260e09093019290850190600101611f91565b5091979650505050505050565b634e487b7160e01b5f52604160045260245ffd5b634e487b7160e01b5f52603260045260245ffd5b634e487b7160e01b5f52601160045260245ffd5b818103818111156120565761205661202f565b92915050565b5f8261207657634e487b7160e01b5f52601260045260245ffd5b500490565b80820281158282048414176120565761205661202f565b808201808211156120565761205661202f565b5f602082840312156120b5575f80fd5b81518015158114611e8d575f80fd5b5f602082840312156120d4575f80fd5b5051919050565b5f600182016120ec576120ec61202f565b5060010190565b5f60ff821660ff81036121085761210861202f565b60010192915050565b60ff81811683821601908111156120565761205661202f56fea264697066735822122016b8825484255fae3ee41e569fbf343561ee4741ce65aaee00ab8a3af857639664736f6c63430008190033",
					"opcodes": "PUSH2 0x120 PUSH1 0x40 MSTORE PUSH1 0x5 PUSH1 0x80 DUP2 DUP2 MSTORE PUSH1 0x3 PUSH1 0xA0 MSTORE PUSH1 0x2 PUSH1 0xC0 MSTORE PUSH1 0x1 PUSH1 0xE0 DUP2 SWAP1 MSTORE PUSH2 0x100 MSTORE PUSH2 0x2E SWAP2 PUSH1 0x9 SWAP2 SWAP1 PUSH2 0x142 JUMP JUMPDEST POP CALLVALUE DUP1 ISZERO PUSH2 0x3A JUMPI PUSH0 DUP1 REVERT JUMPDEST POP PUSH1 0x40 MLOAD PUSH2 0x2380 CODESIZE SUB DUP1 PUSH2 0x2380 DUP4 CODECOPY DUP2 ADD PUSH1 0x40 DUP2 SWAP1 MSTORE PUSH2 0x59 SWAP2 PUSH2 0x1E6 JUMP JUMPDEST PUSH0 DUP1 SLOAD CALLER PUSH1 0x1 PUSH1 0x1 PUSH1 0xA0 SHL SUB NOT SWAP2 DUP3 AND DUP2 OR DUP4 SSTORE PUSH1 0x2 DUP1 SLOAD SWAP1 SWAP3 AND PUSH1 0x1 PUSH1 0x1 PUSH1 0xA0 SHL SUB SWAP5 SWAP1 SWAP5 AND SWAP4 SWAP1 SWAP4 OR SWAP1 SSTORE SWAP1 DUP2 MSTORE PUSH1 0x3 PUSH1 0x20 DUP2 DUP2 MSTORE PUSH1 0x40 DUP4 KECCAK256 PUSH1 0x4 ADD DUP1 SLOAD PUSH1 0xFF NOT AND PUSH1 0x1 SWAP1 DUP2 OR SWAP1 SWAP2 SSTORE PUSH1 0x6 SWAP2 DUP3 SWAP1 MSTORE PUSH32 0xB6BA906FF52451A7A924E2EAEB8AEA3EBEE7350A8703E5E417EDB25358C7DCC1 SSTORE PUSH32 0x1727C0104C2870C3003671480695F7DAB262614528B49265008E76FD3D48C5FE SWAP2 SWAP1 SWAP2 SSTORE PUSH32 0xFB78EB295A86B096B5F095822BD250A277112BE4103EA4A7608D96ECA726B2C1 SSTORE PUSH2 0x16D SWAP1 MSTORE PUSH1 0xC PUSH32 0xBBF8ADEA84D189C39869A372AB30AEBA9246EEA044EDC5A37AC100921B2C4E1 SSTORE PUSH2 0x213 JUMP JUMPDEST PUSH1 0x1 DUP4 ADD SWAP2 DUP4 SWAP1 DUP3 ISZERO PUSH2 0x1C2 JUMPI SWAP2 PUSH1 0x20 MUL DUP3 ADD PUSH0 JUMPDEST DUP4 DUP3 GT ISZERO PUSH2 0x194 JUMPI DUP4 MLOAD DUP4 DUP3 PUSH2 0x100 EXP DUP2 SLOAD DUP2 PUSH1 0xFF MUL NOT AND SWAP1 DUP4 PUSH1 0xFF AND MUL OR SWAP1 SSTORE POP SWAP3 PUSH1 0x20 ADD SWAP3 PUSH1 0x1 ADD PUSH1 0x20 DUP2 PUSH0 ADD DIV SWAP3 DUP4 ADD SWAP3 PUSH1 0x1 SUB MUL PUSH2 0x157 JUMP JUMPDEST DUP1 ISZERO PUSH2 0x1C0 JUMPI DUP3 DUP2 PUSH2 0x100 EXP DUP2 SLOAD SWAP1 PUSH1 0xFF MUL NOT AND SWAP1 SSTORE PUSH1 0x1 ADD PUSH1 0x20 DUP2 PUSH0 ADD DIV SWAP3 DUP4 ADD SWAP3 PUSH1 0x1 SUB MUL PUSH2 0x194 JUMP JUMPDEST POP JUMPDEST POP PUSH2 0x1CE SWAP3 SWAP2 POP PUSH2 0x1D2 JUMP JUMPDEST POP SWAP1 JUMP JUMPDEST JUMPDEST DUP1 DUP3 GT ISZERO PUSH2 0x1CE JUMPI PUSH0 DUP2 SSTORE PUSH1 0x1 ADD PUSH2 0x1D3 JUMP JUMPDEST PUSH0 PUSH1 0x20 DUP3 DUP5 SUB SLT ISZERO PUSH2 0x1F6 JUMPI PUSH0 DUP1 REVERT JUMPDEST DUP2 MLOAD PUSH1 0x1 PUSH1 0x1 PUSH1 0xA0 SHL SUB DUP2 AND DUP2 EQ PUSH2 0x20C JUMPI PUSH0 DUP1 REVERT JUMPDEST SWAP4 SWAP3 POP POP POP JUMP JUMPDEST PUSH2 0x2160 DUP1 PUSH2 0x220 PUSH0 CODECOPY PUSH0 RETURN INVALID PUSH1 0x80 PUSH1 0x40 MSTORE CALLVALUE DUP1 ISZERO PUSH2 0xF JUMPI PUSH0 DUP1 REVERT JUMPDEST POP PUSH1 0x4 CALLDATASIZE LT PUSH2 0x187 JUMPI PUSH0 CALLDATALOAD PUSH1 0xE0 SHR DUP1 PUSH4 0x9BE572F6 GT PUSH2 0xD9 JUMPI DUP1 PUSH4 0xBD297178 GT PUSH2 0x93 JUMPI DUP1 PUSH4 0xE45A57D0 GT PUSH2 0x6E JUMPI DUP1 PUSH4 0xE45A57D0 EQ PUSH2 0x4E3 JUMPI DUP1 PUSH4 0xEF71AE56 EQ PUSH2 0x4F6 JUMPI DUP1 PUSH4 0xF6E88873 EQ PUSH2 0x516 JUMPI DUP1 PUSH4 0xF7B17D10 EQ PUSH2 0x535 JUMPI PUSH0 DUP1 REVERT JUMPDEST DUP1 PUSH4 0xBD297178 EQ PUSH2 0x452 JUMPI DUP1 PUSH4 0xC2D3C677 EQ PUSH2 0x47A JUMPI DUP1 PUSH4 0xC3C5A547 EQ PUSH2 0x4A5 JUMPI PUSH0 DUP1 REVERT JUMPDEST DUP1 PUSH4 0x9BE572F6 EQ PUSH2 0x36B JUMPI DUP1 PUSH4 0x9D747BAD EQ PUSH2 0x373 JUMPI DUP1 PUSH4 0xA2BDEDF4 EQ PUSH2 0x395 JUMPI DUP1 PUSH4 0xA87430BA EQ PUSH2 0x3A8 JUMPI DUP1 PUSH4 0xA98AD46C EQ PUSH2 0x417 JUMPI DUP1 PUSH4 0xAA7ED462 EQ PUSH2 0x42A JUMPI PUSH0 DUP1 REVERT JUMPDEST DUP1 PUSH4 0x4420E486 GT PUSH2 0x144 JUMPI DUP1 PUSH4 0x7B0472F0 GT PUSH2 0x11F JUMPI DUP1 PUSH4 0x7B0472F0 EQ PUSH2 0x2FF JUMPI DUP1 PUSH4 0x875BB4E2 EQ PUSH2 0x312 JUMPI DUP1 PUSH4 0x8DA5CB5B EQ PUSH2 0x331 JUMPI DUP1 PUSH4 0x98278EFB EQ PUSH2 0x343 JUMPI PUSH0 DUP1 REVERT JUMPDEST DUP1 PUSH4 0x4420E486 EQ PUSH2 0x275 JUMPI DUP1 PUSH4 0x5BD4E16A EQ PUSH2 0x288 JUMPI DUP1 PUSH4 0x797C7F5F EQ PUSH2 0x2C2 JUMPI PUSH0 DUP1 REVERT JUMPDEST DUP1 PUSH4 0x5AD3935 EQ PUSH2 0x18B JUMPI DUP1 PUSH4 0x1E43EB27 EQ PUSH2 0x1C8 JUMPI DUP1 PUSH4 0x21923BDE EQ PUSH2 0x208 JUMPI DUP1 PUSH4 0x28FE7031 EQ PUSH2 0x22D JUMPI DUP1 PUSH4 0x379607F5 EQ PUSH2 0x24D JUMPI DUP1 PUSH4 0x3EA521EF EQ PUSH2 0x262 JUMPI JUMPDEST PUSH0 DUP1 REVERT JUMPDEST PUSH2 0x19E PUSH2 0x199 CALLDATASIZE PUSH1 0x4 PUSH2 0x1E35 JUMP JUMPDEST PUSH2 0x53E JUMP JUMPDEST PUSH1 0x40 DUP1 MLOAD PUSH1 0x1 PUSH1 0x1 PUSH1 0xA0 SHL SUB SWAP1 SWAP5 AND DUP5 MSTORE PUSH1 0x20 DUP5 ADD SWAP3 SWAP1 SWAP3 MSTORE SWAP1 DUP3 ADD MSTORE PUSH1 0x60 ADD JUMPDEST PUSH1 0x40 MLOAD DUP1 SWAP2 SUB SWAP1 RETURN JUMPDEST PUSH2 0x1F0 PUSH2 0x1D6 CALLDATASIZE PUSH1 0x4 PUSH2 0x1E5D JUMP JUMPDEST PUSH1 0x5 PUSH1 0x20 MSTORE PUSH0 SWAP1 DUP2 MSTORE PUSH1 0x40 SWAP1 KECCAK256 SLOAD PUSH1 0x1 PUSH1 0x1 PUSH1 0xA0 SHL SUB AND DUP2 JUMP JUMPDEST PUSH1 0x40 MLOAD PUSH1 0x1 PUSH1 0x1 PUSH1 0xA0 SHL SUB SWAP1 SWAP2 AND DUP2 MSTORE PUSH1 0x20 ADD PUSH2 0x1BF JUMP JUMPDEST PUSH2 0x21B PUSH2 0x216 CALLDATASIZE PUSH1 0x4 PUSH2 0x1E74 JUMP JUMPDEST PUSH2 0x586 JUMP JUMPDEST PUSH1 0x40 MLOAD PUSH1 0xFF SWAP1 SWAP2 AND DUP2 MSTORE PUSH1 0x20 ADD PUSH2 0x1BF JUMP JUMPDEST PUSH2 0x240 PUSH2 0x23B CALLDATASIZE PUSH1 0x4 PUSH2 0x1E74 JUMP JUMPDEST PUSH2 0x5D9 JUMP JUMPDEST PUSH1 0x40 MLOAD PUSH2 0x1BF SWAP2 SWAP1 PUSH2 0x1ECE JUMP JUMPDEST PUSH2 0x260 PUSH2 0x25B CALLDATASIZE PUSH1 0x4 PUSH2 0x1E5D JUMP JUMPDEST PUSH2 0x6AF JUMP JUMPDEST STOP JUMPDEST PUSH2 0x260 PUSH2 0x270 CALLDATASIZE PUSH1 0x4 PUSH2 0x1E5D JUMP JUMPDEST PUSH2 0xA57 JUMP JUMPDEST PUSH2 0x260 PUSH2 0x283 CALLDATASIZE PUSH1 0x4 PUSH2 0x1E74 JUMP JUMPDEST PUSH2 0xC26 JUMP JUMPDEST PUSH2 0x2B4 PUSH2 0x296 CALLDATASIZE PUSH1 0x4 PUSH2 0x1E74 JUMP JUMPDEST PUSH1 0x1 PUSH1 0x1 PUSH1 0xA0 SHL SUB AND PUSH0 SWAP1 DUP2 MSTORE PUSH1 0x3 PUSH1 0x20 DUP2 SWAP1 MSTORE PUSH1 0x40 SWAP1 SWAP2 KECCAK256 ADD SLOAD SWAP1 JUMP JUMPDEST PUSH1 0x40 MLOAD SWAP1 DUP2 MSTORE PUSH1 0x20 ADD PUSH2 0x1BF JUMP JUMPDEST PUSH2 0x2D5 PUSH2 0x2D0 CALLDATASIZE PUSH1 0x4 PUSH2 0x1E5D JUMP JUMPDEST PUSH2 0xE06 JUMP JUMPDEST PUSH1 0x40 DUP1 MLOAD PUSH1 0x1 PUSH1 0x1 PUSH1 0xA0 SHL SUB SWAP1 SWAP6 AND DUP6 MSTORE PUSH1 0x20 DUP6 ADD SWAP4 SWAP1 SWAP4 MSTORE SWAP2 DUP4 ADD MSTORE PUSH1 0x60 DUP3 ADD MSTORE PUSH1 0x80 ADD PUSH2 0x1BF JUMP JUMPDEST PUSH2 0x260 PUSH2 0x30D CALLDATASIZE PUSH1 0x4 PUSH2 0x1EE0 JUMP JUMPDEST PUSH2 0xFF2 JUMP JUMPDEST PUSH2 0x2B4 PUSH2 0x320 CALLDATASIZE PUSH1 0x4 PUSH2 0x1E5D JUMP JUMPDEST PUSH1 0x6 PUSH1 0x20 MSTORE PUSH0 SWAP1 DUP2 MSTORE PUSH1 0x40 SWAP1 KECCAK256 SLOAD DUP2 JUMP JUMPDEST PUSH0 SLOAD PUSH2 0x1F0 SWAP1 PUSH1 0x1 PUSH1 0x1 PUSH1 0xA0 SHL SUB AND DUP2 JUMP JUMPDEST PUSH2 0x2B4 PUSH2 0x351 CALLDATASIZE PUSH1 0x4 PUSH2 0x1E74 JUMP JUMPDEST PUSH1 0x1 PUSH1 0x1 PUSH1 0xA0 SHL SUB AND PUSH0 SWAP1 DUP2 MSTORE PUSH1 0x4 PUSH1 0x20 MSTORE PUSH1 0x40 SWAP1 KECCAK256 SLOAD SWAP1 JUMP JUMPDEST PUSH1 0x8 SLOAD PUSH2 0x2B4 JUMP JUMPDEST PUSH2 0x386 PUSH2 0x381 CALLDATASIZE PUSH1 0x4 PUSH2 0x1E74 JUMP JUMPDEST PUSH2 0x1659 JUMP JUMPDEST PUSH1 0x40 MLOAD PUSH2 0x1BF SWAP4 SWAP3 SWAP2 SWAP1 PUSH2 0x1F00 JUMP JUMPDEST PUSH2 0x1F0 PUSH2 0x3A3 CALLDATASIZE PUSH1 0x4 PUSH2 0x1E5D JUMP JUMPDEST PUSH2 0x1846 JUMP JUMPDEST PUSH2 0x3EB PUSH2 0x3B6 CALLDATASIZE PUSH1 0x4 PUSH2 0x1E74 JUMP JUMPDEST PUSH1 0x3 PUSH1 0x20 DUP2 SWAP1 MSTORE PUSH0 SWAP2 DUP3 MSTORE PUSH1 0x40 SWAP1 SWAP2 KECCAK256 DUP1 SLOAD PUSH1 0x2 DUP3 ADD SLOAD SWAP3 DUP3 ADD SLOAD PUSH1 0x4 SWAP1 SWAP3 ADD SLOAD PUSH1 0x1 PUSH1 0x1 PUSH1 0xA0 SHL SUB SWAP1 SWAP2 AND SWAP3 SWAP2 SWAP1 PUSH1 0xFF AND DUP5 JUMP JUMPDEST PUSH1 0x40 DUP1 MLOAD PUSH1 0x1 PUSH1 0x1 PUSH1 0xA0 SHL SUB SWAP1 SWAP6 AND DUP6 MSTORE PUSH1 0x20 DUP6 ADD SWAP4 SWAP1 SWAP4 MSTORE SWAP2 DUP4 ADD MSTORE ISZERO ISZERO PUSH1 0x60 DUP3 ADD MSTORE PUSH1 0x80 ADD PUSH2 0x1BF JUMP JUMPDEST PUSH1 0x2 SLOAD PUSH2 0x1F0 SWAP1 PUSH1 0x1 PUSH1 0x1 PUSH1 0xA0 SHL SUB AND DUP2 JUMP JUMPDEST PUSH2 0x2B4 PUSH2 0x438 CALLDATASIZE PUSH1 0x4 PUSH2 0x1E74 JUMP JUMPDEST PUSH1 0x1 PUSH1 0x1 PUSH1 0xA0 SHL SUB AND PUSH0 SWAP1 DUP2 MSTORE PUSH1 0x7 PUSH1 0x20 MSTORE PUSH1 0x40 SWAP1 KECCAK256 SLOAD SWAP1 JUMP JUMPDEST PUSH2 0x465 PUSH2 0x460 CALLDATASIZE PUSH1 0x4 PUSH2 0x1EE0 JUMP JUMPDEST PUSH2 0x186E JUMP JUMPDEST PUSH1 0x40 DUP1 MLOAD SWAP3 DUP4 MSTORE PUSH1 0x20 DUP4 ADD SWAP2 SWAP1 SWAP2 MSTORE ADD PUSH2 0x1BF JUMP JUMPDEST PUSH2 0x2B4 PUSH2 0x488 CALLDATASIZE PUSH1 0x4 PUSH2 0x1E74 JUMP JUMPDEST PUSH1 0x1 PUSH1 0x1 PUSH1 0xA0 SHL SUB AND PUSH0 SWAP1 DUP2 MSTORE PUSH1 0x3 PUSH1 0x20 MSTORE PUSH1 0x40 SWAP1 KECCAK256 PUSH1 0x2 ADD SLOAD SWAP1 JUMP JUMPDEST PUSH2 0x4D3 PUSH2 0x4B3 CALLDATASIZE PUSH1 0x4 PUSH2 0x1E74 JUMP JUMPDEST PUSH1 0x1 PUSH1 0x1 PUSH1 0xA0 SHL SUB AND PUSH0 SWAP1 DUP2 MSTORE PUSH1 0x3 PUSH1 0x20 MSTORE PUSH1 0x40 SWAP1 KECCAK256 PUSH1 0x4 ADD SLOAD PUSH1 0xFF AND SWAP1 JUMP JUMPDEST PUSH1 0x40 MLOAD SWAP1 ISZERO ISZERO DUP2 MSTORE PUSH1 0x20 ADD PUSH2 0x1BF JUMP JUMPDEST PUSH2 0x21B PUSH2 0x4F1 CALLDATASIZE PUSH1 0x4 PUSH2 0x1E5D JUMP JUMPDEST PUSH2 0x195A JUMP JUMPDEST PUSH2 0x509 PUSH2 0x504 CALLDATASIZE PUSH1 0x4 PUSH2 0x1E74 JUMP JUMPDEST PUSH2 0x1983 JUMP JUMPDEST PUSH1 0x40 MLOAD PUSH2 0x1BF SWAP2 SWAP1 PUSH2 0x1F75 JUMP JUMPDEST PUSH2 0x2B4 PUSH2 0x524 CALLDATASIZE PUSH1 0x4 PUSH2 0x1E74 JUMP JUMPDEST PUSH1 0x7 PUSH1 0x20 MSTORE PUSH0 SWAP1 DUP2 MSTORE PUSH1 0x40 SWAP1 KECCAK256 SLOAD DUP2 JUMP JUMPDEST PUSH2 0x2B4 PUSH1 0x1 SLOAD DUP2 JUMP JUMPDEST PUSH1 0x4 PUSH1 0x20 MSTORE DUP2 PUSH0 MSTORE PUSH1 0x40 PUSH0 KECCAK256 DUP2 DUP2 SLOAD DUP2 LT PUSH2 0x557 JUMPI PUSH0 DUP1 REVERT JUMPDEST PUSH0 SWAP2 DUP3 MSTORE PUSH1 0x20 SWAP1 SWAP2 KECCAK256 PUSH1 0x3 SWAP1 SWAP2 MUL ADD DUP1 SLOAD PUSH1 0x1 DUP3 ADD SLOAD PUSH1 0x2 SWAP1 SWAP3 ADD SLOAD PUSH1 0x1 PUSH1 0x1 PUSH1 0xA0 SHL SUB SWAP1 SWAP2 AND SWAP4 POP SWAP1 SWAP2 POP DUP4 JUMP JUMPDEST PUSH1 0x1 PUSH1 0x1 PUSH1 0xA0 SHL SUB DUP2 AND PUSH0 SWAP1 DUP2 MSTORE PUSH1 0x4 PUSH1 0x20 MSTORE PUSH1 0x40 DUP2 KECCAK256 SLOAD PUSH1 0xA DUP2 LT PUSH2 0x5AF JUMPI POP PUSH1 0x3 SWAP3 SWAP2 POP POP JUMP JUMPDEST PUSH1 0x5 DUP2 LT PUSH2 0x5C0 JUMPI POP PUSH1 0x2 SWAP3 SWAP2 POP POP JUMP JUMPDEST PUSH1 0x1 DUP2 LT PUSH2 0x5D1 JUMPI POP PUSH1 0x1 SWAP3 SWAP2 POP POP JUMP JUMPDEST POP PUSH0 SWAP3 SWAP2 POP POP JUMP JUMPDEST PUSH1 0x1 PUSH1 0x1 PUSH1 0xA0 SHL SUB DUP2 AND PUSH0 SWAP1 DUP2 MSTORE PUSH1 0x3 PUSH1 0x20 MSTORE PUSH1 0x40 DUP2 KECCAK256 PUSH1 0x1 ADD SLOAD PUSH1 0x60 SWAP2 DUP2 PUSH8 0xFFFFFFFFFFFFFFFF DUP2 GT ISZERO PUSH2 0x610 JUMPI PUSH2 0x610 PUSH2 0x2007 JUMP JUMPDEST PUSH1 0x40 MLOAD SWAP1 DUP1 DUP3 MSTORE DUP1 PUSH1 0x20 MUL PUSH1 0x20 ADD DUP3 ADD PUSH1 0x40 MSTORE DUP1 ISZERO PUSH2 0x639 JUMPI DUP2 PUSH1 0x20 ADD PUSH1 0x20 DUP3 MUL DUP1 CALLDATASIZE DUP4 CALLDATACOPY ADD SWAP1 POP JUMPDEST POP SWAP1 POP PUSH0 JUMPDEST DUP3 DUP2 LT ISZERO PUSH2 0x6A7 JUMPI PUSH1 0x1 PUSH1 0x1 PUSH1 0xA0 SHL SUB DUP6 AND PUSH0 SWAP1 DUP2 MSTORE PUSH1 0x3 PUSH1 0x20 MSTORE PUSH1 0x40 SWAP1 KECCAK256 PUSH1 0x1 ADD DUP1 SLOAD DUP3 SWAP1 DUP2 LT PUSH2 0x672 JUMPI PUSH2 0x672 PUSH2 0x201B JUMP JUMPDEST SWAP1 PUSH0 MSTORE PUSH1 0x20 PUSH0 KECCAK256 SWAP1 PUSH1 0x6 MUL ADD PUSH1 0x1 ADD SLOAD DUP3 DUP3 DUP2 MLOAD DUP2 LT PUSH2 0x694 JUMPI PUSH2 0x694 PUSH2 0x201B JUMP JUMPDEST PUSH1 0x20 SWAP1 DUP2 MUL SWAP2 SWAP1 SWAP2 ADD ADD MSTORE PUSH1 0x1 ADD PUSH2 0x63E JUMP JUMPDEST POP SWAP4 SWAP3 POP POP POP JUMP JUMPDEST CALLER PUSH0 SWAP1 DUP2 MSTORE PUSH1 0x3 PUSH1 0x20 MSTORE PUSH1 0x40 SWAP1 KECCAK256 PUSH1 0x4 ADD SLOAD PUSH1 0xFF AND PUSH2 0x706 JUMPI PUSH1 0x40 MLOAD PUSH3 0x461BCD PUSH1 0xE5 SHL DUP2 MSTORE PUSH1 0x20 PUSH1 0x4 DUP3 ADD MSTORE PUSH1 0xE PUSH1 0x24 DUP3 ADD MSTORE PUSH14 0x139BDD081C9959DA5CDD195C9959 PUSH1 0x92 SHL PUSH1 0x44 DUP3 ADD MSTORE PUSH1 0x64 ADD JUMPDEST PUSH1 0x40 MLOAD DUP1 SWAP2 SUB SWAP1 REVERT JUMPDEST PUSH0 DUP2 DUP2 MSTORE PUSH1 0x5 PUSH1 0x20 MSTORE PUSH1 0x40 SWAP1 KECCAK256 SLOAD PUSH1 0x1 PUSH1 0x1 PUSH1 0xA0 SHL SUB AND CALLER DUP2 EQ PUSH2 0x75D JUMPI PUSH1 0x40 MLOAD PUSH3 0x461BCD PUSH1 0xE5 SHL DUP2 MSTORE PUSH1 0x20 PUSH1 0x4 DUP3 ADD MSTORE PUSH1 0xE PUSH1 0x24 DUP3 ADD MSTORE PUSH14 0x4E6F7420796F7572207374616B65 PUSH1 0x90 SHL PUSH1 0x44 DUP3 ADD MSTORE PUSH1 0x64 ADD PUSH2 0x6FD JUMP JUMPDEST CALLER PUSH0 SWAP1 DUP2 MSTORE PUSH1 0x3 PUSH1 0x20 MSTORE PUSH1 0x40 DUP2 KECCAK256 PUSH1 0x1 ADD SWAP1 JUMPDEST DUP2 SLOAD DUP2 LT ISZERO PUSH2 0xA02 JUMPI PUSH0 DUP3 DUP3 DUP2 SLOAD DUP2 LT PUSH2 0x78C JUMPI PUSH2 0x78C PUSH2 0x201B JUMP JUMPDEST SWAP1 PUSH0 MSTORE PUSH1 0x20 PUSH0 KECCAK256 SWAP1 PUSH1 0x6 MUL ADD SWAP1 POP DUP5 DUP2 PUSH1 0x1 ADD SLOAD SUB PUSH2 0x9F9 JUMPI PUSH1 0x5 DUP2 ADD SLOAD PUSH1 0xFF AND ISZERO PUSH2 0x7EC JUMPI PUSH1 0x40 MLOAD PUSH3 0x461BCD PUSH1 0xE5 SHL DUP2 MSTORE PUSH1 0x20 PUSH1 0x4 DUP3 ADD MSTORE PUSH1 0xF PUSH1 0x24 DUP3 ADD MSTORE PUSH15 0x105B1C9958591E4818DB185A5B5959 PUSH1 0x8A SHL PUSH1 0x44 DUP3 ADD MSTORE PUSH1 0x64 ADD PUSH2 0x6FD JUMP JUMPDEST PUSH0 PUSH3 0x15180 DUP3 PUSH1 0x3 ADD SLOAD TIMESTAMP PUSH2 0x801 SWAP2 SWAP1 PUSH2 0x2043 JUMP JUMPDEST PUSH2 0x80B SWAP2 SWAP1 PUSH2 0x205C JUMP JUMPDEST SWAP1 POP PUSH0 DUP3 PUSH1 0x4 ADD SLOAD DUP3 LT PUSH2 0x84E JUMPI PUSH1 0x4 DUP4 ADD SLOAD PUSH0 SWAP1 DUP2 MSTORE PUSH1 0x6 PUSH1 0x20 MSTORE PUSH1 0x40 SWAP1 KECCAK256 SLOAD PUSH1 0x2 DUP5 ADD SLOAD PUSH1 0x64 SWAP2 PUSH2 0x83D SWAP2 PUSH2 0x207B JUMP JUMPDEST PUSH2 0x847 SWAP2 SWAP1 PUSH2 0x205C JUMP JUMPDEST SWAP1 POP PUSH2 0x8BD JUMP JUMPDEST PUSH1 0x14 DUP3 LT ISZERO PUSH2 0x85E JUMPI POP PUSH0 PUSH2 0x8BD JUMP JUMPDEST PUSH1 0x40 MLOAD PUSH3 0x461BCD PUSH1 0xE5 SHL DUP2 MSTORE PUSH1 0x20 PUSH1 0x4 DUP3 ADD MSTORE PUSH1 0x2E PUSH1 0x24 DUP3 ADD MSTORE PUSH32 0x43616E6E6F7420636C61696D206265747765656E203230206461797320616E64 PUSH1 0x44 DUP3 ADD MSTORE PUSH14 0x10333AB63610323AB930BA34B7B7 PUSH1 0x91 SHL PUSH1 0x64 DUP3 ADD MSTORE PUSH1 0x84 ADD PUSH2 0x6FD JUMP JUMPDEST PUSH1 0x5 DUP4 ADD DUP1 SLOAD PUSH1 0xFF NOT AND PUSH1 0x1 OR SWAP1 SSTORE PUSH1 0x2 DUP1 SLOAD SWAP1 DUP5 ADD SLOAD PUSH1 0x1 PUSH1 0x1 PUSH1 0xA0 SHL SUB SWAP1 SWAP2 AND SWAP1 PUSH4 0xA9059CBB SWAP1 CALLER SWAP1 PUSH2 0x8F3 SWAP1 DUP6 SWAP1 PUSH2 0x2092 JUMP JUMPDEST PUSH1 0x40 MLOAD PUSH1 0x1 PUSH1 0x1 PUSH1 0xE0 SHL SUB NOT PUSH1 0xE0 DUP6 SWAP1 SHL AND DUP2 MSTORE PUSH1 0x1 PUSH1 0x1 PUSH1 0xA0 SHL SUB SWAP1 SWAP3 AND PUSH1 0x4 DUP4 ADD MSTORE PUSH1 0x24 DUP3 ADD MSTORE PUSH1 0x44 ADD PUSH1 0x20 PUSH1 0x40 MLOAD DUP1 DUP4 SUB DUP2 PUSH0 DUP8 GAS CALL ISZERO DUP1 ISZERO PUSH2 0x93B JUMPI RETURNDATASIZE PUSH0 DUP1 RETURNDATACOPY RETURNDATASIZE PUSH0 REVERT JUMPDEST POP POP POP POP PUSH1 0x40 MLOAD RETURNDATASIZE PUSH1 0x1F NOT PUSH1 0x1F DUP3 ADD AND DUP3 ADD DUP1 PUSH1 0x40 MSTORE POP DUP2 ADD SWAP1 PUSH2 0x95F SWAP2 SWAP1 PUSH2 0x20A5 JUMP JUMPDEST PUSH2 0x9A3 JUMPI PUSH1 0x40 MLOAD PUSH3 0x461BCD PUSH1 0xE5 SHL DUP2 MSTORE PUSH1 0x20 PUSH1 0x4 DUP3 ADD MSTORE PUSH1 0x15 PUSH1 0x24 DUP3 ADD MSTORE PUSH21 0x151BDAD95B881D1C985B9CD9995C8819985A5B1959 PUSH1 0x5A SHL PUSH1 0x44 DUP3 ADD MSTORE PUSH1 0x64 ADD PUSH2 0x6FD JUMP JUMPDEST PUSH1 0x1 DUP4 ADD SLOAD PUSH1 0x2 DUP5 ADD SLOAD PUSH1 0x40 DUP1 MLOAD SWAP3 DUP4 MSTORE PUSH1 0x20 DUP4 ADD SWAP2 SWAP1 SWAP2 MSTORE DUP2 ADD DUP3 SWAP1 MSTORE CALLER SWAP1 PUSH32 0x9CDCF2F7714CCA3508C7F0110B04A90A80A3A8DD0E35DE99689DB74D28C5383E SWAP1 PUSH1 0x60 ADD PUSH1 0x40 MLOAD DUP1 SWAP2 SUB SWAP1 LOG2 POP POP POP POP POP POP POP JUMP JUMPDEST POP PUSH1 0x1 ADD PUSH2 0x770 JUMP JUMPDEST POP PUSH1 0x40 MLOAD PUSH3 0x461BCD PUSH1 0xE5 SHL DUP2 MSTORE PUSH1 0x20 PUSH1 0x4 DUP3 ADD MSTORE PUSH1 0x24 DUP1 DUP3 ADD MSTORE PUSH32 0x5374616B65206E6F7420666F756E6420666F7220676976656E20706F73697469 PUSH1 0x44 DUP3 ADD MSTORE PUSH4 0x1BDB9259 PUSH1 0xE2 SHL PUSH1 0x64 DUP3 ADD MSTORE PUSH1 0x84 ADD PUSH2 0x6FD JUMP JUMPDEST PUSH0 SLOAD PUSH1 0x1 PUSH1 0x1 PUSH1 0xA0 SHL SUB AND CALLER EQ PUSH2 0xAB0 JUMPI PUSH1 0x40 MLOAD PUSH3 0x461BCD PUSH1 0xE5 SHL DUP2 MSTORE PUSH1 0x20 PUSH1 0x4 DUP3 ADD MSTORE PUSH1 0x17 PUSH1 0x24 DUP3 ADD MSTORE PUSH32 0x4F6E6C79206F776E65722063616E207769746864726177000000000000000000 PUSH1 0x44 DUP3 ADD MSTORE PUSH1 0x64 ADD PUSH2 0x6FD JUMP JUMPDEST PUSH1 0x2 SLOAD PUSH1 0x40 MLOAD PUSH4 0x70A08231 PUSH1 0xE0 SHL DUP2 MSTORE ADDRESS PUSH1 0x4 DUP3 ADD MSTORE DUP3 SWAP2 PUSH1 0x1 PUSH1 0x1 PUSH1 0xA0 SHL SUB AND SWAP1 PUSH4 0x70A08231 SWAP1 PUSH1 0x24 ADD PUSH1 0x20 PUSH1 0x40 MLOAD DUP1 DUP4 SUB DUP2 DUP7 GAS STATICCALL ISZERO DUP1 ISZERO PUSH2 0xAF6 JUMPI RETURNDATASIZE PUSH0 DUP1 RETURNDATACOPY RETURNDATASIZE PUSH0 REVERT JUMPDEST POP POP POP POP PUSH1 0x40 MLOAD RETURNDATASIZE PUSH1 0x1F NOT PUSH1 0x1F DUP3 ADD AND DUP3 ADD DUP1 PUSH1 0x40 MSTORE POP DUP2 ADD SWAP1 PUSH2 0xB1A SWAP2 SWAP1 PUSH2 0x20C4 JUMP JUMPDEST LT ISZERO PUSH2 0xB68 JUMPI PUSH1 0x40 MLOAD PUSH3 0x461BCD PUSH1 0xE5 SHL DUP2 MSTORE PUSH1 0x20 PUSH1 0x4 DUP3 ADD DUP2 SWAP1 MSTORE PUSH1 0x24 DUP3 ADD MSTORE PUSH32 0x496E73756666696369656E742062616C616E636520696E20636F6E7472616374 PUSH1 0x44 DUP3 ADD MSTORE PUSH1 0x64 ADD PUSH2 0x6FD JUMP JUMPDEST PUSH1 0x2 SLOAD PUSH0 DUP1 SLOAD PUSH1 0x40 MLOAD PUSH4 0xA9059CBB PUSH1 0xE0 SHL DUP2 MSTORE PUSH1 0x1 PUSH1 0x1 PUSH1 0xA0 SHL SUB SWAP2 DUP3 AND PUSH1 0x4 DUP3 ADD MSTORE PUSH1 0x24 DUP2 ADD DUP6 SWAP1 MSTORE SWAP2 SWAP3 AND SWAP1 PUSH4 0xA9059CBB SWAP1 PUSH1 0x44 ADD PUSH1 0x20 PUSH1 0x40 MLOAD DUP1 DUP4 SUB DUP2 PUSH0 DUP8 GAS CALL ISZERO DUP1 ISZERO PUSH2 0xBBB JUMPI RETURNDATASIZE PUSH0 DUP1 RETURNDATACOPY RETURNDATASIZE PUSH0 REVERT JUMPDEST POP POP POP POP PUSH1 0x40 MLOAD RETURNDATASIZE PUSH1 0x1F NOT PUSH1 0x1F DUP3 ADD AND DUP3 ADD DUP1 PUSH1 0x40 MSTORE POP DUP2 ADD SWAP1 PUSH2 0xBDF SWAP2 SWAP1 PUSH2 0x20A5 JUMP JUMPDEST SWAP1 POP DUP1 PUSH2 0xC22 JUMPI PUSH1 0x40 MLOAD PUSH3 0x461BCD PUSH1 0xE5 SHL DUP2 MSTORE PUSH1 0x20 PUSH1 0x4 DUP3 ADD MSTORE PUSH1 0x11 PUSH1 0x24 DUP3 ADD MSTORE PUSH17 0x15DA5D1A191C985DD85B0819985A5B1959 PUSH1 0x7A SHL PUSH1 0x44 DUP3 ADD MSTORE PUSH1 0x64 ADD PUSH2 0x6FD JUMP JUMPDEST POP POP JUMP JUMPDEST CALLER PUSH0 SWAP1 DUP2 MSTORE PUSH1 0x3 PUSH1 0x20 MSTORE PUSH1 0x40 SWAP1 KECCAK256 PUSH1 0x4 ADD SLOAD PUSH1 0xFF AND ISZERO PUSH2 0xC7D JUMPI PUSH1 0x40 MLOAD PUSH3 0x461BCD PUSH1 0xE5 SHL DUP2 MSTORE PUSH1 0x20 PUSH1 0x4 DUP3 ADD MSTORE PUSH1 0x12 PUSH1 0x24 DUP3 ADD MSTORE PUSH18 0x105B1C9958591E481C9959DA5CDD195C9959 PUSH1 0x72 SHL PUSH1 0x44 DUP3 ADD MSTORE PUSH1 0x64 ADD PUSH2 0x6FD JUMP JUMPDEST CALLER PUSH1 0x1 PUSH1 0x1 PUSH1 0xA0 SHL SUB DUP3 AND SUB PUSH2 0xCCD JUMPI PUSH1 0x40 MLOAD PUSH3 0x461BCD PUSH1 0xE5 SHL DUP2 MSTORE PUSH1 0x20 PUSH1 0x4 DUP3 ADD MSTORE PUSH1 0x15 PUSH1 0x24 DUP3 ADD MSTORE PUSH21 0x21B0B73737BA103932B332B9103CB7BAB939B2B633 PUSH1 0x59 SHL PUSH1 0x44 DUP3 ADD MSTORE PUSH1 0x64 ADD PUSH2 0x6FD JUMP JUMPDEST PUSH1 0x1 PUSH1 0x1 PUSH1 0xA0 SHL SUB DUP2 AND PUSH0 SWAP1 DUP2 MSTORE PUSH1 0x3 PUSH1 0x20 MSTORE PUSH1 0x40 SWAP1 KECCAK256 PUSH1 0x4 ADD SLOAD PUSH1 0xFF AND PUSH2 0xD37 JUMPI PUSH1 0x40 MLOAD PUSH3 0x461BCD PUSH1 0xE5 SHL DUP2 MSTORE PUSH1 0x20 PUSH1 0x4 DUP3 ADD MSTORE PUSH1 0x17 PUSH1 0x24 DUP3 ADD MSTORE PUSH32 0x5265666572726572206E6F742072656769737465726564000000000000000000 PUSH1 0x44 DUP3 ADD MSTORE PUSH1 0x64 ADD PUSH2 0x6FD JUMP JUMPDEST CALLER PUSH0 DUP2 DUP2 MSTORE PUSH1 0x3 PUSH1 0x20 DUP2 DUP2 MSTORE PUSH1 0x40 DUP1 DUP5 KECCAK256 DUP1 SLOAD PUSH1 0x1 PUSH1 0x1 PUSH1 0xA0 SHL SUB SWAP8 DUP9 AND PUSH1 0x1 PUSH1 0x1 PUSH1 0xA0 SHL SUB NOT SWAP2 DUP3 AND DUP2 OR DUP4 SSTORE PUSH1 0x4 SWAP3 DUP4 ADD DUP1 SLOAD PUSH1 0xFF NOT AND PUSH1 0x1 SWAP1 DUP2 OR SWAP1 SWAP2 SSTORE PUSH1 0x8 DUP1 SLOAD DUP1 DUP4 ADD SWAP1 SWAP2 SSTORE PUSH32 0xF3F7A9FE364FAAB93B216DA50A3214154F22A0A2B415B23A84C8169E8B636EE3 ADD DUP1 SLOAD DUP5 AND DUP11 OR SWAP1 SSTORE SWAP1 DUP8 MSTORE SWAP2 DUP5 MSTORE DUP3 DUP7 KECCAK256 DUP4 MLOAD PUSH1 0x60 DUP2 ADD DUP6 MSTORE SWAP8 DUP9 MSTORE DUP8 DUP6 ADD DUP8 DUP2 MSTORE TIMESTAMP SWAP5 DUP10 ADD SWAP5 DUP6 MSTORE DUP2 SLOAD DUP1 DUP6 ADD DUP4 SSTORE SWAP2 DUP9 MSTORE SWAP5 SWAP1 SWAP7 KECCAK256 SWAP7 MLOAD SWAP6 SWAP1 SWAP5 MUL SWAP1 SWAP6 ADD DUP1 SLOAD SWAP5 SWAP1 SWAP7 AND SWAP4 SWAP1 SWAP3 AND SWAP3 SWAP1 SWAP3 OR DUP5 SSTORE SWAP1 MLOAD SWAP2 DUP4 ADD SWAP2 SWAP1 SWAP2 SSTORE MLOAD PUSH1 0x2 SWAP1 SWAP2 ADD SSTORE JUMP JUMPDEST PUSH0 DUP2 DUP2 MSTORE PUSH1 0x5 PUSH1 0x20 MSTORE PUSH1 0x40 DUP2 KECCAK256 SLOAD DUP2 SWAP1 DUP2 SWAP1 DUP2 SWAP1 PUSH1 0x1 PUSH1 0x1 PUSH1 0xA0 SHL SUB AND DUP1 PUSH2 0xE65 JUMPI PUSH1 0x40 MLOAD PUSH3 0x461BCD PUSH1 0xE5 SHL DUP2 MSTORE PUSH1 0x20 PUSH1 0x4 DUP3 ADD MSTORE PUSH1 0x12 PUSH1 0x24 DUP3 ADD MSTORE PUSH18 0x125B9D985B1A59081C1BDCDA5D1A5BDB9259 PUSH1 0x72 SHL PUSH1 0x44 DUP3 ADD MSTORE PUSH1 0x64 ADD PUSH2 0x6FD JUMP JUMPDEST PUSH1 0x1 PUSH1 0x1 PUSH1 0xA0 SHL SUB DUP2 AND PUSH0 SWAP1 DUP2 MSTORE PUSH1 0x3 PUSH1 0x20 SWAP1 DUP2 MSTORE PUSH1 0x40 DUP1 DUP4 KECCAK256 PUSH1 0x1 ADD DUP1 SLOAD DUP3 MLOAD DUP2 DUP6 MUL DUP2 ADD DUP6 ADD SWAP1 SWAP4 MSTORE DUP1 DUP4 MSTORE SWAP2 SWAP3 SWAP1 SWAP2 SWAP1 DUP5 SWAP1 DUP5 ADD JUMPDEST DUP3 DUP3 LT ISZERO PUSH2 0xF09 JUMPI PUSH0 DUP5 DUP2 MSTORE PUSH1 0x20 SWAP1 DUP2 SWAP1 KECCAK256 PUSH1 0x40 DUP1 MLOAD PUSH1 0xC0 DUP2 ADD DUP3 MSTORE PUSH1 0x6 DUP7 MUL SWAP1 SWAP3 ADD DUP1 SLOAD DUP4 MSTORE PUSH1 0x1 DUP1 DUP3 ADD SLOAD DUP5 DUP7 ADD MSTORE PUSH1 0x2 DUP3 ADD SLOAD SWAP3 DUP5 ADD SWAP3 SWAP1 SWAP3 MSTORE PUSH1 0x3 DUP2 ADD SLOAD PUSH1 0x60 DUP5 ADD MSTORE PUSH1 0x4 DUP2 ADD SLOAD PUSH1 0x80 DUP5 ADD MSTORE PUSH1 0x5 ADD SLOAD PUSH1 0xFF AND ISZERO ISZERO PUSH1 0xA0 DUP4 ADD MSTORE SWAP1 DUP4 MSTORE SWAP1 SWAP3 ADD SWAP2 ADD PUSH2 0xE9D JUMP JUMPDEST POP POP POP POP SWAP1 POP PUSH0 JUMPDEST DUP2 MLOAD DUP2 LT ISZERO PUSH2 0xFB0 JUMPI DUP8 DUP3 DUP3 DUP2 MLOAD DUP2 LT PUSH2 0xF2D JUMPI PUSH2 0xF2D PUSH2 0x201B JUMP JUMPDEST PUSH1 0x20 MUL PUSH1 0x20 ADD ADD MLOAD PUSH1 0x20 ADD MLOAD SUB PUSH2 0xFA8 JUMPI DUP3 DUP3 DUP3 DUP2 MLOAD DUP2 LT PUSH2 0xF51 JUMPI PUSH2 0xF51 PUSH2 0x201B JUMP JUMPDEST PUSH1 0x20 MUL PUSH1 0x20 ADD ADD MLOAD PUSH0 ADD MLOAD DUP4 DUP4 DUP2 MLOAD DUP2 LT PUSH2 0xF6E JUMPI PUSH2 0xF6E PUSH2 0x201B JUMP JUMPDEST PUSH1 0x20 MUL PUSH1 0x20 ADD ADD MLOAD PUSH1 0x40 ADD MLOAD DUP5 DUP5 DUP2 MLOAD DUP2 LT PUSH2 0xF8C JUMPI PUSH2 0xF8C PUSH2 0x201B JUMP JUMPDEST PUSH1 0x20 MUL PUSH1 0x20 ADD ADD MLOAD PUSH1 0x60 ADD MLOAD SWAP7 POP SWAP7 POP SWAP7 POP SWAP7 POP POP POP POP PUSH2 0xFEB JUMP JUMPDEST PUSH1 0x1 ADD PUSH2 0xF11 JUMP JUMPDEST POP PUSH1 0x40 MLOAD PUSH3 0x461BCD PUSH1 0xE5 SHL DUP2 MSTORE PUSH1 0x20 PUSH1 0x4 DUP3 ADD MSTORE PUSH1 0xF PUSH1 0x24 DUP3 ADD MSTORE PUSH15 0x14DD185AD9481B9BDD08199BDD5B99 PUSH1 0x8A SHL PUSH1 0x44 DUP3 ADD MSTORE PUSH1 0x64 ADD PUSH2 0x6FD JUMP JUMPDEST SWAP2 SWAP4 POP SWAP2 SWAP4 JUMP JUMPDEST CALLER PUSH0 SWAP1 DUP2 MSTORE PUSH1 0x3 PUSH1 0x20 MSTORE PUSH1 0x40 SWAP1 KECCAK256 PUSH1 0x4 ADD SLOAD PUSH1 0xFF AND PUSH2 0x1044 JUMPI PUSH1 0x40 MLOAD PUSH3 0x461BCD PUSH1 0xE5 SHL DUP2 MSTORE PUSH1 0x20 PUSH1 0x4 DUP3 ADD MSTORE PUSH1 0xE PUSH1 0x24 DUP3 ADD MSTORE PUSH14 0x139BDD081C9959DA5CDD195C9959 PUSH1 0x92 SHL PUSH1 0x44 DUP3 ADD MSTORE PUSH1 0x64 ADD PUSH2 0x6FD JUMP JUMPDEST PUSH0 DUP2 GT PUSH2 0x109F JUMPI PUSH1 0x40 MLOAD PUSH3 0x461BCD PUSH1 0xE5 SHL DUP2 MSTORE PUSH1 0x20 PUSH1 0x4 DUP3 ADD MSTORE PUSH1 0x23 PUSH1 0x24 DUP3 ADD MSTORE PUSH32 0x5374616B6520616D6F756E74206D757374206265206772656174657220746861 PUSH1 0x44 DUP3 ADD MSTORE PUSH3 0x6E203 PUSH1 0xEC SHL PUSH1 0x64 DUP3 ADD MSTORE PUSH1 0x84 ADD PUSH2 0x6FD JUMP JUMPDEST PUSH0 DUP3 DUP2 MSTORE PUSH1 0x6 PUSH1 0x20 MSTORE PUSH1 0x40 SWAP1 KECCAK256 SLOAD PUSH2 0x10F4 JUMPI PUSH1 0x40 MLOAD PUSH3 0x461BCD PUSH1 0xE5 SHL DUP2 MSTORE PUSH1 0x20 PUSH1 0x4 DUP3 ADD MSTORE PUSH1 0x18 PUSH1 0x24 DUP3 ADD MSTORE PUSH24 0x24B73B30B634B21039BA30B5B4B73390323AB930BA34B7B7 PUSH1 0x41 SHL PUSH1 0x44 DUP3 ADD MSTORE PUSH1 0x64 ADD PUSH2 0x6FD JUMP JUMPDEST PUSH1 0x2 SLOAD PUSH1 0x40 MLOAD PUSH4 0x23B872DD PUSH1 0xE0 SHL DUP2 MSTORE CALLER PUSH1 0x4 DUP3 ADD MSTORE ADDRESS PUSH1 0x24 DUP3 ADD MSTORE PUSH1 0x44 DUP2 ADD DUP4 SWAP1 MSTORE PUSH0 SWAP2 PUSH1 0x1 PUSH1 0x1 PUSH1 0xA0 SHL SUB AND SWAP1 PUSH4 0x23B872DD SWAP1 PUSH1 0x64 ADD PUSH1 0x20 PUSH1 0x40 MLOAD DUP1 DUP4 SUB DUP2 PUSH0 DUP8 GAS CALL ISZERO DUP1 ISZERO PUSH2 0x1148 JUMPI RETURNDATASIZE PUSH0 DUP1 RETURNDATACOPY RETURNDATASIZE PUSH0 REVERT JUMPDEST POP POP POP POP PUSH1 0x40 MLOAD RETURNDATASIZE PUSH1 0x1F NOT PUSH1 0x1F DUP3 ADD AND DUP3 ADD DUP1 PUSH1 0x40 MSTORE POP DUP2 ADD SWAP1 PUSH2 0x116C SWAP2 SWAP1 PUSH2 0x20A5 JUMP JUMPDEST SWAP1 POP DUP1 PUSH2 0x11B2 JUMPI PUSH1 0x40 MLOAD PUSH3 0x461BCD PUSH1 0xE5 SHL DUP2 MSTORE PUSH1 0x20 PUSH1 0x4 DUP3 ADD MSTORE PUSH1 0x14 PUSH1 0x24 DUP3 ADD MSTORE PUSH20 0x1554D115081D1C985B9CD9995C8819985A5B1959 PUSH1 0x62 SHL PUSH1 0x44 DUP3 ADD MSTORE PUSH1 0x64 ADD PUSH2 0x6FD JUMP JUMPDEST PUSH0 PUSH1 0x1 PUSH0 DUP2 SLOAD PUSH2 0x11C1 SWAP1 PUSH2 0x20DB JUMP JUMPDEST SWAP2 SWAP1 POP DUP2 SWAP1 SSTORE SWAP1 POP PUSH1 0x3 PUSH0 CALLER PUSH1 0x1 PUSH1 0x1 PUSH1 0xA0 SHL SUB AND PUSH1 0x1 PUSH1 0x1 PUSH1 0xA0 SHL SUB AND DUP2 MSTORE PUSH1 0x20 ADD SWAP1 DUP2 MSTORE PUSH1 0x20 ADD PUSH0 KECCAK256 PUSH1 0x1 ADD PUSH1 0x40 MLOAD DUP1 PUSH1 0xC0 ADD PUSH1 0x40 MSTORE DUP1 PUSH1 0x1 SLOAD DUP2 MSTORE PUSH1 0x20 ADD DUP4 DUP2 MSTORE PUSH1 0x20 ADD DUP6 DUP2 MSTORE PUSH1 0x20 ADD TIMESTAMP DUP2 MSTORE PUSH1 0x20 ADD DUP7 DUP2 MSTORE PUSH1 0x20 ADD PUSH0 ISZERO ISZERO DUP2 MSTORE POP SWAP1 DUP1 PUSH1 0x1 DUP2 SLOAD ADD DUP1 DUP3 SSTORE DUP1 SWAP2 POP POP PUSH1 0x1 SWAP1 SUB SWAP1 PUSH0 MSTORE PUSH1 0x20 PUSH0 KECCAK256 SWAP1 PUSH1 0x6 MUL ADD PUSH0 SWAP1 SWAP2 SWAP1 SWAP2 SWAP1 SWAP2 POP PUSH0 DUP3 ADD MLOAD DUP2 PUSH0 ADD SSTORE PUSH1 0x20 DUP3 ADD MLOAD DUP2 PUSH1 0x1 ADD SSTORE PUSH1 0x40 DUP3 ADD MLOAD DUP2 PUSH1 0x2 ADD SSTORE PUSH1 0x60 DUP3 ADD MLOAD DUP2 PUSH1 0x3 ADD SSTORE PUSH1 0x80 DUP3 ADD MLOAD DUP2 PUSH1 0x4 ADD SSTORE PUSH1 0xA0 DUP3 ADD MLOAD DUP2 PUSH1 0x5 ADD PUSH0 PUSH2 0x100 EXP DUP2 SLOAD DUP2 PUSH1 0xFF MUL NOT AND SWAP1 DUP4 ISZERO ISZERO MUL OR SWAP1 SSTORE POP POP POP CALLER PUSH1 0x5 PUSH0 DUP4 DUP2 MSTORE PUSH1 0x20 ADD SWAP1 DUP2 MSTORE PUSH1 0x20 ADD PUSH0 KECCAK256 PUSH0 PUSH2 0x100 EXP DUP2 SLOAD DUP2 PUSH1 0x1 PUSH1 0x1 PUSH1 0xA0 SHL SUB MUL NOT AND SWAP1 DUP4 PUSH1 0x1 PUSH1 0x1 PUSH1 0xA0 SHL SUB AND MUL OR SWAP1 SSTORE POP PUSH0 PUSH1 0x3 PUSH0 CALLER PUSH1 0x1 PUSH1 0x1 PUSH1 0xA0 SHL SUB AND PUSH1 0x1 PUSH1 0x1 PUSH1 0xA0 SHL SUB AND DUP2 MSTORE PUSH1 0x20 ADD SWAP1 DUP2 MSTORE PUSH1 0x20 ADD PUSH0 KECCAK256 PUSH0 ADD PUSH0 SWAP1 SLOAD SWAP1 PUSH2 0x100 EXP SWAP1 DIV PUSH1 0x1 PUSH1 0x1 PUSH1 0xA0 SHL SUB AND SWAP1 POP PUSH0 JUMPDEST PUSH1 0x5 DUP2 PUSH1 0xFF AND LT DUP1 ISZERO PUSH2 0x1324 JUMPI POP PUSH1 0x1 PUSH1 0x1 PUSH1 0xA0 SHL SUB DUP3 AND ISZERO ISZERO JUMPDEST ISZERO PUSH2 0x1651 JUMPI PUSH0 PUSH1 0x64 PUSH1 0x9 DUP4 PUSH1 0xFF AND PUSH1 0x5 DUP2 LT PUSH2 0x1342 JUMPI PUSH2 0x1342 PUSH2 0x201B JUMP JUMPDEST PUSH1 0x20 DUP2 DIV SWAP2 SWAP1 SWAP2 ADD SLOAD PUSH2 0x1361 SWAP2 PUSH1 0x1F AND PUSH2 0x100 EXP SWAP1 DIV PUSH1 0xFF AND DUP9 PUSH2 0x207B JUMP JUMPDEST PUSH2 0x136B SWAP2 SWAP1 PUSH2 0x205C JUMP JUMPDEST PUSH1 0x2 SLOAD PUSH1 0x40 MLOAD PUSH4 0x70A08231 PUSH1 0xE0 SHL DUP2 MSTORE ADDRESS PUSH1 0x4 DUP3 ADD MSTORE SWAP2 SWAP3 POP DUP3 SWAP2 PUSH1 0x1 PUSH1 0x1 PUSH1 0xA0 SHL SUB SWAP1 SWAP2 AND SWAP1 PUSH4 0x70A08231 SWAP1 PUSH1 0x24 ADD PUSH1 0x20 PUSH1 0x40 MLOAD DUP1 DUP4 SUB DUP2 DUP7 GAS STATICCALL ISZERO DUP1 ISZERO PUSH2 0x13B6 JUMPI RETURNDATASIZE PUSH0 DUP1 RETURNDATACOPY RETURNDATASIZE PUSH0 REVERT JUMPDEST POP POP POP POP PUSH1 0x40 MLOAD RETURNDATASIZE PUSH1 0x1F NOT PUSH1 0x1F DUP3 ADD AND DUP3 ADD DUP1 PUSH1 0x40 MSTORE POP DUP2 ADD SWAP1 PUSH2 0x13DA SWAP2 SWAP1 PUSH2 0x20C4 JUMP JUMPDEST LT ISZERO PUSH2 0x1428 JUMPI PUSH1 0x40 MLOAD PUSH3 0x461BCD PUSH1 0xE5 SHL DUP2 MSTORE PUSH1 0x20 PUSH1 0x4 DUP3 ADD MSTORE PUSH1 0x1D PUSH1 0x24 DUP3 ADD MSTORE PUSH32 0x496E73756666696369656E7420636F6E74726163742062616C616E6365000000 PUSH1 0x44 DUP3 ADD MSTORE PUSH1 0x64 ADD PUSH2 0x6FD JUMP JUMPDEST PUSH1 0x2 SLOAD PUSH1 0x40 MLOAD PUSH4 0xA9059CBB PUSH1 0xE0 SHL DUP2 MSTORE PUSH1 0x1 PUSH1 0x1 PUSH1 0xA0 SHL SUB DUP6 DUP2 AND PUSH1 0x4 DUP4 ADD MSTORE PUSH1 0x24 DUP3 ADD DUP5 SWAP1 MSTORE PUSH0 SWAP3 AND SWAP1 PUSH4 0xA9059CBB SWAP1 PUSH1 0x44 ADD PUSH1 0x20 PUSH1 0x40 MLOAD DUP1 DUP4 SUB DUP2 PUSH0 DUP8 GAS CALL ISZERO DUP1 ISZERO PUSH2 0x1478 JUMPI RETURNDATASIZE PUSH0 DUP1 RETURNDATACOPY RETURNDATASIZE PUSH0 REVERT JUMPDEST POP POP POP POP PUSH1 0x40 MLOAD RETURNDATASIZE PUSH1 0x1F NOT PUSH1 0x1F DUP3 ADD AND DUP3 ADD DUP1 PUSH1 0x40 MSTORE POP DUP2 ADD SWAP1 PUSH2 0x149C SWAP2 SWAP1 PUSH2 0x20A5 JUMP JUMPDEST SWAP1 POP DUP1 PUSH2 0x14E4 JUMPI PUSH1 0x40 MLOAD PUSH3 0x461BCD PUSH1 0xE5 SHL DUP2 MSTORE PUSH1 0x20 PUSH1 0x4 DUP3 ADD MSTORE PUSH1 0x16 PUSH1 0x24 DUP3 ADD MSTORE PUSH22 0x14995DD85C99081D1C985B9CD9995C8819985A5B1959 PUSH1 0x52 SHL PUSH1 0x44 DUP3 ADD MSTORE PUSH1 0x64 ADD PUSH2 0x6FD JUMP JUMPDEST PUSH1 0x1 PUSH1 0x1 PUSH1 0xA0 SHL SUB DUP5 AND PUSH0 SWAP1 DUP2 MSTORE PUSH1 0x3 PUSH1 0x20 MSTORE PUSH1 0x40 DUP2 KECCAK256 PUSH1 0x2 ADD DUP1 SLOAD DUP5 SWAP3 SWAP1 PUSH2 0x150E SWAP1 DUP5 SWAP1 PUSH2 0x2092 JUMP JUMPDEST SWAP1 SWAP2 SSTORE POP POP PUSH1 0xFF DUP4 AND PUSH0 SUB PUSH2 0x154F JUMPI PUSH1 0x1 PUSH1 0x1 PUSH1 0xA0 SHL SUB DUP5 AND PUSH0 SWAP1 DUP2 MSTORE PUSH1 0x7 PUSH1 0x20 MSTORE PUSH1 0x40 DUP2 KECCAK256 DUP1 SLOAD DUP5 SWAP3 SWAP1 PUSH2 0x1544 SWAP1 DUP5 SWAP1 PUSH2 0x2092 JUMP JUMPDEST SWAP1 SWAP2 SSTORE POP PUSH2 0x157F SWAP1 POP JUMP JUMPDEST PUSH1 0x1 PUSH1 0x1 PUSH1 0xA0 SHL SUB DUP5 AND PUSH0 SWAP1 DUP2 MSTORE PUSH1 0x3 PUSH1 0x20 DUP2 SWAP1 MSTORE PUSH1 0x40 DUP3 KECCAK256 ADD DUP1 SLOAD DUP5 SWAP3 SWAP1 PUSH2 0x1579 SWAP1 DUP5 SWAP1 PUSH2 0x2092 JUMP JUMPDEST SWAP1 SWAP2 SSTORE POP POP JUMPDEST PUSH1 0x1 PUSH1 0x1 PUSH1 0xA0 SHL SUB DUP5 AND PUSH0 SWAP1 DUP2 MSTORE PUSH1 0x4 PUSH1 0x20 MSTORE PUSH1 0x40 DUP2 KECCAK256 SWAP1 JUMPDEST DUP2 SLOAD DUP2 LT ISZERO PUSH2 0x161E JUMPI CALLER PUSH1 0x1 PUSH1 0x1 PUSH1 0xA0 SHL SUB AND DUP3 DUP3 DUP2 SLOAD DUP2 LT PUSH2 0x15BD JUMPI PUSH2 0x15BD PUSH2 0x201B JUMP JUMPDEST PUSH0 SWAP2 DUP3 MSTORE PUSH1 0x20 SWAP1 SWAP2 KECCAK256 PUSH1 0x3 SWAP1 SWAP2 MUL ADD SLOAD PUSH1 0x1 PUSH1 0x1 PUSH1 0xA0 SHL SUB AND SUB PUSH2 0x1616 JUMPI DUP4 DUP3 DUP3 DUP2 SLOAD DUP2 LT PUSH2 0x15EE JUMPI PUSH2 0x15EE PUSH2 0x201B JUMP JUMPDEST SWAP1 PUSH0 MSTORE PUSH1 0x20 PUSH0 KECCAK256 SWAP1 PUSH1 0x3 MUL ADD PUSH1 0x1 ADD PUSH0 DUP3 DUP3 SLOAD PUSH2 0x160B SWAP2 SWAP1 PUSH2 0x2092 JUMP JUMPDEST SWAP1 SWAP2 SSTORE POP PUSH2 0x161E SWAP1 POP JUMP JUMPDEST PUSH1 0x1 ADD PUSH2 0x1598 JUMP JUMPDEST POP POP POP PUSH1 0x1 PUSH1 0x1 PUSH1 0xA0 SHL SUB SWAP3 DUP4 AND PUSH0 SWAP1 DUP2 MSTORE PUSH1 0x3 PUSH1 0x20 MSTORE PUSH1 0x40 SWAP1 KECCAK256 SLOAD SWAP1 SWAP3 AND SWAP2 POP DUP1 PUSH2 0x1649 DUP2 PUSH2 0x20F3 JUMP JUMPDEST SWAP2 POP POP PUSH2 0x1309 JUMP JUMPDEST POP POP POP POP POP POP JUMP JUMPDEST PUSH1 0x1 PUSH1 0x1 PUSH1 0xA0 SHL SUB DUP2 AND PUSH0 SWAP1 DUP2 MSTORE PUSH1 0x4 PUSH1 0x20 MSTORE PUSH1 0x40 SWAP1 KECCAK256 DUP1 SLOAD PUSH1 0x60 SWAP2 DUP3 SWAP2 DUP3 SWAP2 SWAP1 DUP1 PUSH8 0xFFFFFFFFFFFFFFFF DUP2 GT ISZERO PUSH2 0x1693 JUMPI PUSH2 0x1693 PUSH2 0x2007 JUMP JUMPDEST PUSH1 0x40 MLOAD SWAP1 DUP1 DUP3 MSTORE DUP1 PUSH1 0x20 MUL PUSH1 0x20 ADD DUP3 ADD PUSH1 0x40 MSTORE DUP1 ISZERO PUSH2 0x16BC JUMPI DUP2 PUSH1 0x20 ADD PUSH1 0x20 DUP3 MUL DUP1 CALLDATASIZE DUP4 CALLDATACOPY ADD SWAP1 POP JUMPDEST POP SWAP5 POP DUP1 PUSH8 0xFFFFFFFFFFFFFFFF DUP2 GT ISZERO PUSH2 0x16D8 JUMPI PUSH2 0x16D8 PUSH2 0x2007 JUMP JUMPDEST PUSH1 0x40 MLOAD SWAP1 DUP1 DUP3 MSTORE DUP1 PUSH1 0x20 MUL PUSH1 0x20 ADD DUP3 ADD PUSH1 0x40 MSTORE DUP1 ISZERO PUSH2 0x1701 JUMPI DUP2 PUSH1 0x20 ADD PUSH1 0x20 DUP3 MUL DUP1 CALLDATASIZE DUP4 CALLDATACOPY ADD SWAP1 POP JUMPDEST POP SWAP4 POP DUP1 PUSH8 0xFFFFFFFFFFFFFFFF DUP2 GT ISZERO PUSH2 0x171D JUMPI PUSH2 0x171D PUSH2 0x2007 JUMP JUMPDEST PUSH1 0x40 MLOAD SWAP1 DUP1 DUP3 MSTORE DUP1 PUSH1 0x20 MUL PUSH1 0x20 ADD DUP3 ADD PUSH1 0x40 MSTORE DUP1 ISZERO PUSH2 0x1746 JUMPI DUP2 PUSH1 0x20 ADD PUSH1 0x20 DUP3 MUL DUP1 CALLDATASIZE DUP4 CALLDATACOPY ADD SWAP1 POP JUMPDEST POP SWAP3 POP PUSH0 JUMPDEST DUP2 DUP2 LT ISZERO PUSH2 0x183C JUMPI DUP3 DUP2 DUP2 SLOAD DUP2 LT PUSH2 0x1765 JUMPI PUSH2 0x1765 PUSH2 0x201B JUMP JUMPDEST PUSH0 SWAP2 DUP3 MSTORE PUSH1 0x20 SWAP1 SWAP2 KECCAK256 PUSH1 0x3 SWAP1 SWAP2 MUL ADD SLOAD DUP7 MLOAD PUSH1 0x1 PUSH1 0x1 PUSH1 0xA0 SHL SUB SWAP1 SWAP2 AND SWAP1 DUP8 SWAP1 DUP4 SWAP1 DUP2 LT PUSH2 0x1795 JUMPI PUSH2 0x1795 PUSH2 0x201B JUMP JUMPDEST PUSH1 0x20 MUL PUSH1 0x20 ADD ADD SWAP1 PUSH1 0x1 PUSH1 0x1 PUSH1 0xA0 SHL SUB AND SWAP1 DUP2 PUSH1 0x1 PUSH1 0x1 PUSH1 0xA0 SHL SUB AND DUP2 MSTORE POP POP DUP3 DUP2 DUP2 SLOAD DUP2 LT PUSH2 0x17C7 JUMPI PUSH2 0x17C7 PUSH2 0x201B JUMP JUMPDEST SWAP1 PUSH0 MSTORE PUSH1 0x20 PUSH0 KECCAK256 SWAP1 PUSH1 0x3 MUL ADD PUSH1 0x1 ADD SLOAD DUP6 DUP3 DUP2 MLOAD DUP2 LT PUSH2 0x17E9 JUMPI PUSH2 0x17E9 PUSH2 0x201B JUMP JUMPDEST PUSH1 0x20 MUL PUSH1 0x20 ADD ADD DUP2 DUP2 MSTORE POP POP DUP3 DUP2 DUP2 SLOAD DUP2 LT PUSH2 0x1807 JUMPI PUSH2 0x1807 PUSH2 0x201B JUMP JUMPDEST SWAP1 PUSH0 MSTORE PUSH1 0x20 PUSH0 KECCAK256 SWAP1 PUSH1 0x3 MUL ADD PUSH1 0x2 ADD SLOAD DUP5 DUP3 DUP2 MLOAD DUP2 LT PUSH2 0x1829 JUMPI PUSH2 0x1829 PUSH2 0x201B JUMP JUMPDEST PUSH1 0x20 SWAP1 DUP2 MUL SWAP2 SWAP1 SWAP2 ADD ADD MSTORE PUSH1 0x1 ADD PUSH2 0x174B JUMP JUMPDEST POP POP POP SWAP2 SWAP4 SWAP1 SWAP3 POP JUMP JUMPDEST PUSH1 0x8 DUP2 DUP2 SLOAD DUP2 LT PUSH2 0x1855 JUMPI PUSH0 DUP1 REVERT JUMPDEST PUSH0 SWAP2 DUP3 MSTORE PUSH1 0x20 SWAP1 SWAP2 KECCAK256 ADD SLOAD PUSH1 0x1 PUSH1 0x1 PUSH1 0xA0 SHL SUB AND SWAP1 POP DUP2 JUMP JUMPDEST PUSH0 DUP1 PUSH0 DUP5 GT PUSH2 0x18BF JUMPI PUSH1 0x40 MLOAD PUSH3 0x461BCD PUSH1 0xE5 SHL DUP2 MSTORE PUSH1 0x20 PUSH1 0x4 DUP3 ADD MSTORE PUSH1 0x1D PUSH1 0x24 DUP3 ADD MSTORE PUSH32 0x416D6F756E74206D7573742062652067726561746572207468616E2030000000 PUSH1 0x44 DUP3 ADD MSTORE PUSH1 0x64 ADD PUSH2 0x6FD JUMP JUMPDEST PUSH0 DUP4 DUP2 MSTORE PUSH1 0x6 PUSH1 0x20 MSTORE PUSH1 0x40 SWAP1 KECCAK256 SLOAD PUSH2 0x1914 JUMPI PUSH1 0x40 MLOAD PUSH3 0x461BCD PUSH1 0xE5 SHL DUP2 MSTORE PUSH1 0x20 PUSH1 0x4 DUP3 ADD MSTORE PUSH1 0x18 PUSH1 0x24 DUP3 ADD MSTORE PUSH24 0x24B73B30B634B21039BA30B5B4B73390323AB930BA34B7B7 PUSH1 0x41 SHL PUSH1 0x44 DUP3 ADD MSTORE PUSH1 0x64 ADD PUSH2 0x6FD JUMP JUMPDEST PUSH0 DUP4 DUP2 MSTORE PUSH1 0x6 PUSH1 0x20 MSTORE PUSH1 0x40 SWAP1 KECCAK256 SLOAD PUSH2 0x8E94 DUP5 PUSH2 0x1930 DUP4 DUP9 PUSH2 0x207B JUMP JUMPDEST PUSH2 0x193A SWAP2 SWAP1 PUSH2 0x207B JUMP JUMPDEST PUSH2 0x1944 SWAP2 SWAP1 PUSH2 0x205C JUMP JUMPDEST SWAP3 POP PUSH2 0x1950 DUP4 DUP7 PUSH2 0x2092 JUMP JUMPDEST SWAP2 POP POP SWAP3 POP SWAP3 SWAP1 POP JUMP JUMPDEST PUSH1 0x9 DUP2 PUSH1 0x5 DUP2 LT PUSH2 0x1969 JUMPI PUSH0 DUP1 REVERT JUMPDEST PUSH1 0x20 SWAP2 DUP3 DUP3 DIV ADD SWAP2 SWAP1 MOD SWAP2 POP SLOAD SWAP1 PUSH2 0x100 EXP SWAP1 DIV PUSH1 0xFF AND DUP2 JUMP JUMPDEST PUSH1 0x60 PUSH0 DUP1 JUMPDEST PUSH1 0x8 SLOAD DUP2 LT ISZERO PUSH2 0x1B00 JUMPI PUSH0 PUSH1 0x8 DUP3 DUP2 SLOAD DUP2 LT PUSH2 0x19A6 JUMPI PUSH2 0x19A6 PUSH2 0x201B JUMP JUMPDEST PUSH0 SWAP2 DUP3 MSTORE PUSH1 0x20 DUP1 DUP4 KECCAK256 SWAP1 SWAP2 ADD SLOAD PUSH1 0x1 PUSH1 0x1 PUSH1 0xA0 SHL SUB AND DUP1 DUP4 MSTORE PUSH1 0x3 DUP3 MSTORE PUSH1 0x40 DUP1 DUP5 KECCAK256 PUSH1 0x1 ADD DUP1 SLOAD DUP3 MLOAD DUP2 DUP7 MUL DUP2 ADD DUP7 ADD SWAP1 SWAP4 MSTORE DUP1 DUP4 MSTORE SWAP3 SWAP6 POP SWAP1 SWAP3 SWAP1 SWAP2 SWAP1 DUP5 SWAP1 DUP5 ADD JUMPDEST DUP3 DUP3 LT ISZERO PUSH2 0x1A55 JUMPI PUSH0 DUP5 DUP2 MSTORE PUSH1 0x20 SWAP1 DUP2 SWAP1 KECCAK256 PUSH1 0x40 DUP1 MLOAD PUSH1 0xC0 DUP2 ADD DUP3 MSTORE PUSH1 0x6 DUP7 MUL SWAP1 SWAP3 ADD DUP1 SLOAD DUP4 MSTORE PUSH1 0x1 DUP1 DUP3 ADD SLOAD DUP5 DUP7 ADD MSTORE PUSH1 0x2 DUP3 ADD SLOAD SWAP3 DUP5 ADD SWAP3 SWAP1 SWAP3 MSTORE PUSH1 0x3 DUP2 ADD SLOAD PUSH1 0x60 DUP5 ADD MSTORE PUSH1 0x4 DUP2 ADD SLOAD PUSH1 0x80 DUP5 ADD MSTORE PUSH1 0x5 ADD SLOAD PUSH1 0xFF AND ISZERO ISZERO PUSH1 0xA0 DUP4 ADD MSTORE SWAP1 DUP4 MSTORE SWAP1 SWAP3 ADD SWAP2 ADD PUSH2 0x19E9 JUMP JUMPDEST POP POP POP POP PUSH1 0x1 PUSH1 0x1 PUSH1 0xA0 SHL SUB DUP4 DUP2 AND PUSH0 SWAP1 DUP2 MSTORE PUSH1 0x3 PUSH1 0x20 MSTORE PUSH1 0x40 DUP2 KECCAK256 SLOAD SWAP3 SWAP4 POP SWAP2 AND SWAP1 JUMPDEST PUSH1 0x5 DUP2 PUSH1 0xFF AND LT DUP1 ISZERO PUSH2 0x1A94 JUMPI POP PUSH1 0x1 PUSH1 0x1 PUSH1 0xA0 SHL SUB DUP3 AND ISZERO ISZERO JUMPDEST ISZERO PUSH2 0x1AF0 JUMPI DUP8 PUSH1 0x1 PUSH1 0x1 PUSH1 0xA0 SHL SUB AND DUP3 PUSH1 0x1 PUSH1 0x1 PUSH1 0xA0 SHL SUB AND SUB PUSH2 0x1AC1 JUMPI DUP3 MLOAD PUSH2 0x1ABE SWAP1 DUP8 PUSH2 0x2092 JUMP JUMPDEST SWAP6 POP JUMPDEST PUSH1 0x1 PUSH1 0x1 PUSH1 0xA0 SHL SUB SWAP2 DUP3 AND PUSH0 SWAP1 DUP2 MSTORE PUSH1 0x3 PUSH1 0x20 MSTORE PUSH1 0x40 SWAP1 KECCAK256 SLOAD SWAP1 SWAP2 AND SWAP1 DUP1 PUSH2 0x1AE8 DUP2 PUSH2 0x20F3 JUMP JUMPDEST SWAP2 POP POP PUSH2 0x1A79 JUMP JUMPDEST POP POP PUSH1 0x1 SWAP1 SWAP3 ADD SWAP2 POP PUSH2 0x1988 SWAP1 POP JUMP JUMPDEST POP PUSH0 DUP2 PUSH8 0xFFFFFFFFFFFFFFFF DUP2 GT ISZERO PUSH2 0x1B1B JUMPI PUSH2 0x1B1B PUSH2 0x2007 JUMP JUMPDEST PUSH1 0x40 MLOAD SWAP1 DUP1 DUP3 MSTORE DUP1 PUSH1 0x20 MUL PUSH1 0x20 ADD DUP3 ADD PUSH1 0x40 MSTORE DUP1 ISZERO PUSH2 0x1B9A JUMPI DUP2 PUSH1 0x20 ADD JUMPDEST PUSH2 0x1B87 PUSH1 0x40 MLOAD DUP1 PUSH1 0xE0 ADD PUSH1 0x40 MSTORE DUP1 PUSH0 PUSH1 0x1 PUSH1 0x1 PUSH1 0xA0 SHL SUB AND DUP2 MSTORE PUSH1 0x20 ADD PUSH0 DUP2 MSTORE PUSH1 0x20 ADD PUSH0 DUP2 MSTORE PUSH1 0x20 ADD PUSH0 DUP2 MSTORE PUSH1 0x20 ADD PUSH0 PUSH1 0x1 PUSH1 0x1 PUSH1 0xA0 SHL SUB AND DUP2 MSTORE PUSH1 0x20 ADD PUSH0 DUP2 MSTORE PUSH1 0x20 ADD PUSH0 PUSH1 0xFF AND DUP2 MSTORE POP SWAP1 JUMP JUMPDEST DUP2 MSTORE PUSH1 0x20 ADD SWAP1 PUSH1 0x1 SWAP1 SUB SWAP1 DUP2 PUSH2 0x1B39 JUMPI SWAP1 POP JUMPDEST POP SWAP1 POP PUSH0 DUP1 JUMPDEST PUSH1 0x8 SLOAD DUP2 LT ISZERO PUSH2 0x1E10 JUMPI PUSH0 PUSH1 0x8 DUP3 DUP2 SLOAD DUP2 LT PUSH2 0x1BBE JUMPI PUSH2 0x1BBE PUSH2 0x201B JUMP JUMPDEST PUSH0 SWAP2 DUP3 MSTORE PUSH1 0x20 DUP1 DUP4 KECCAK256 SWAP1 SWAP2 ADD SLOAD PUSH1 0x1 PUSH1 0x1 PUSH1 0xA0 SHL SUB AND DUP1 DUP4 MSTORE PUSH1 0x3 DUP3 MSTORE PUSH1 0x40 DUP1 DUP5 KECCAK256 PUSH1 0x1 ADD DUP1 SLOAD DUP3 MLOAD DUP2 DUP7 MUL DUP2 ADD DUP7 ADD SWAP1 SWAP4 MSTORE DUP1 DUP4 MSTORE SWAP3 SWAP6 POP SWAP1 SWAP3 SWAP1 SWAP2 SWAP1 DUP5 SWAP1 DUP5 ADD JUMPDEST DUP3 DUP3 LT ISZERO PUSH2 0x1C6D JUMPI PUSH0 DUP5 DUP2 MSTORE PUSH1 0x20 SWAP1 DUP2 SWAP1 KECCAK256 PUSH1 0x40 DUP1 MLOAD PUSH1 0xC0 DUP2 ADD DUP3 MSTORE PUSH1 0x6 DUP7 MUL SWAP1 SWAP3 ADD DUP1 SLOAD DUP4 MSTORE PUSH1 0x1 DUP1 DUP3 ADD SLOAD DUP5 DUP7 ADD MSTORE PUSH1 0x2 DUP3 ADD SLOAD SWAP3 DUP5 ADD SWAP3 SWAP1 SWAP3 MSTORE PUSH1 0x3 DUP2 ADD SLOAD PUSH1 0x60 DUP5 ADD MSTORE PUSH1 0x4 DUP2 ADD SLOAD PUSH1 0x80 DUP5 ADD MSTORE PUSH1 0x5 ADD SLOAD PUSH1 0xFF AND ISZERO ISZERO PUSH1 0xA0 DUP4 ADD MSTORE SWAP1 DUP4 MSTORE SWAP1 SWAP3 ADD SWAP2 ADD PUSH2 0x1C01 JUMP JUMPDEST POP POP POP POP PUSH1 0x1 PUSH1 0x1 PUSH1 0xA0 SHL SUB DUP4 DUP2 AND PUSH0 SWAP1 DUP2 MSTORE PUSH1 0x3 PUSH1 0x20 MSTORE PUSH1 0x40 DUP2 KECCAK256 SLOAD SWAP3 SWAP4 POP SWAP2 AND SWAP1 JUMPDEST PUSH1 0x5 DUP2 PUSH1 0xFF AND LT DUP1 ISZERO PUSH2 0x1CAC JUMPI POP PUSH1 0x1 PUSH1 0x1 PUSH1 0xA0 SHL SUB DUP3 AND ISZERO ISZERO JUMPDEST ISZERO PUSH2 0x1E00 JUMPI DUP10 PUSH1 0x1 PUSH1 0x1 PUSH1 0xA0 SHL SUB AND DUP3 PUSH1 0x1 PUSH1 0x1 PUSH1 0xA0 SHL SUB AND SUB PUSH2 0x1DD1 JUMPI PUSH0 JUMPDEST DUP4 MLOAD DUP2 LT ISZERO PUSH2 0x1DCF JUMPI PUSH0 DUP5 DUP3 DUP2 MLOAD DUP2 LT PUSH2 0x1CE8 JUMPI PUSH2 0x1CE8 PUSH2 0x201B JUMP JUMPDEST PUSH1 0x20 MUL PUSH1 0x20 ADD ADD MLOAD SWAP1 POP PUSH0 PUSH1 0x64 PUSH1 0x9 DUP6 PUSH1 0xFF AND PUSH1 0x5 DUP2 LT PUSH2 0x1D0B JUMPI PUSH2 0x1D0B PUSH2 0x201B JUMP JUMPDEST PUSH1 0x20 SWAP2 DUP3 DUP3 DIV ADD SWAP2 SWAP1 MOD SWAP1 SLOAD SWAP1 PUSH2 0x100 EXP SWAP1 DIV PUSH1 0xFF AND PUSH1 0xFF AND DUP4 PUSH1 0x40 ADD MLOAD PUSH2 0x1D33 SWAP2 SWAP1 PUSH2 0x207B JUMP JUMPDEST PUSH2 0x1D3D SWAP2 SWAP1 PUSH2 0x205C JUMP JUMPDEST SWAP1 POP PUSH1 0x40 MLOAD DUP1 PUSH1 0xE0 ADD PUSH1 0x40 MSTORE DUP1 DUP15 PUSH1 0x1 PUSH1 0x1 PUSH1 0xA0 SHL SUB AND DUP2 MSTORE PUSH1 0x20 ADD DUP4 PUSH0 ADD MLOAD DUP2 MSTORE PUSH1 0x20 ADD DUP4 PUSH1 0x40 ADD MLOAD DUP2 MSTORE PUSH1 0x20 ADD DUP3 DUP2 MSTORE PUSH1 0x20 ADD DUP9 PUSH1 0x1 PUSH1 0x1 PUSH1 0xA0 SHL SUB AND DUP2 MSTORE PUSH1 0x20 ADD DUP4 PUSH1 0x60 ADD MLOAD DUP2 MSTORE PUSH1 0x20 ADD DUP6 PUSH1 0x1 PUSH2 0x1D98 SWAP2 SWAP1 PUSH2 0x2111 JUMP JUMPDEST PUSH1 0xFF AND SWAP1 MSTORE DUP11 DUP11 PUSH2 0x1DA8 DUP2 PUSH2 0x20DB JUMP JUMPDEST SWAP12 POP DUP2 MLOAD DUP2 LT PUSH2 0x1DBA JUMPI PUSH2 0x1DBA PUSH2 0x201B JUMP JUMPDEST PUSH1 0x20 SWAP1 DUP2 MUL SWAP2 SWAP1 SWAP2 ADD ADD MSTORE POP POP PUSH1 0x1 ADD PUSH2 0x1CCC JUMP JUMPDEST POP JUMPDEST PUSH1 0x1 PUSH1 0x1 PUSH1 0xA0 SHL SUB SWAP2 DUP3 AND PUSH0 SWAP1 DUP2 MSTORE PUSH1 0x3 PUSH1 0x20 MSTORE PUSH1 0x40 SWAP1 KECCAK256 SLOAD SWAP1 SWAP2 AND SWAP1 DUP1 PUSH2 0x1DF8 DUP2 PUSH2 0x20F3 JUMP JUMPDEST SWAP2 POP POP PUSH2 0x1C91 JUMP JUMPDEST POP POP PUSH1 0x1 SWAP1 SWAP3 ADD SWAP2 POP PUSH2 0x1BA0 SWAP1 POP JUMP JUMPDEST POP SWAP1 SWAP5 SWAP4 POP POP POP POP JUMP JUMPDEST DUP1 CALLDATALOAD PUSH1 0x1 PUSH1 0x1 PUSH1 0xA0 SHL SUB DUP2 AND DUP2 EQ PUSH2 0x1E30 JUMPI PUSH0 DUP1 REVERT JUMPDEST SWAP2 SWAP1 POP JUMP JUMPDEST PUSH0 DUP1 PUSH1 0x40 DUP4 DUP6 SUB SLT ISZERO PUSH2 0x1E46 JUMPI PUSH0 DUP1 REVERT JUMPDEST PUSH2 0x1E4F DUP4 PUSH2 0x1E1A JUMP JUMPDEST SWAP5 PUSH1 0x20 SWAP4 SWAP1 SWAP4 ADD CALLDATALOAD SWAP4 POP POP POP JUMP JUMPDEST PUSH0 PUSH1 0x20 DUP3 DUP5 SUB SLT ISZERO PUSH2 0x1E6D JUMPI PUSH0 DUP1 REVERT JUMPDEST POP CALLDATALOAD SWAP2 SWAP1 POP JUMP JUMPDEST PUSH0 PUSH1 0x20 DUP3 DUP5 SUB SLT ISZERO PUSH2 0x1E84 JUMPI PUSH0 DUP1 REVERT JUMPDEST PUSH2 0x1E8D DUP3 PUSH2 0x1E1A JUMP JUMPDEST SWAP4 SWAP3 POP POP POP JUMP JUMPDEST PUSH0 DUP2 MLOAD DUP1 DUP5 MSTORE PUSH1 0x20 DUP1 DUP6 ADD SWAP5 POP PUSH1 0x20 DUP5 ADD PUSH0 JUMPDEST DUP4 DUP2 LT ISZERO PUSH2 0x1EC3 JUMPI DUP2 MLOAD DUP8 MSTORE SWAP6 DUP3 ADD SWAP6 SWAP1 DUP3 ADD SWAP1 PUSH1 0x1 ADD PUSH2 0x1EA7 JUMP JUMPDEST POP SWAP5 SWAP6 SWAP5 POP POP POP POP POP JUMP JUMPDEST PUSH1 0x20 DUP2 MSTORE PUSH0 PUSH2 0x1E8D PUSH1 0x20 DUP4 ADD DUP5 PUSH2 0x1E94 JUMP JUMPDEST PUSH0 DUP1 PUSH1 0x40 DUP4 DUP6 SUB SLT ISZERO PUSH2 0x1EF1 JUMPI PUSH0 DUP1 REVERT JUMPDEST POP POP DUP1 CALLDATALOAD SWAP3 PUSH1 0x20 SWAP1 SWAP2 ADD CALLDATALOAD SWAP2 POP JUMP JUMPDEST PUSH1 0x60 DUP1 DUP3 MSTORE DUP5 MLOAD SWAP1 DUP3 ADD DUP2 SWAP1 MSTORE PUSH0 SWAP1 PUSH1 0x20 SWAP1 PUSH1 0x80 DUP5 ADD SWAP1 DUP3 DUP9 ADD DUP5 JUMPDEST DUP3 DUP2 LT ISZERO PUSH2 0x1F41 JUMPI DUP2 MLOAD PUSH1 0x1 PUSH1 0x1 PUSH1 0xA0 SHL SUB AND DUP5 MSTORE SWAP3 DUP5 ADD SWAP3 SWAP1 DUP5 ADD SWAP1 PUSH1 0x1 ADD PUSH2 0x1F1C JUMP JUMPDEST POP POP POP DUP4 DUP2 SUB PUSH1 0x20 DUP6 ADD MSTORE PUSH2 0x1F56 DUP2 DUP8 PUSH2 0x1E94 JUMP JUMPDEST SWAP2 POP POP DUP3 DUP2 SUB PUSH1 0x40 DUP5 ADD MSTORE PUSH2 0x1F6B DUP2 DUP6 PUSH2 0x1E94 JUMP JUMPDEST SWAP7 SWAP6 POP POP POP POP POP POP JUMP JUMPDEST PUSH1 0x20 DUP1 DUP3 MSTORE DUP3 MLOAD DUP3 DUP3 ADD DUP2 SWAP1 MSTORE PUSH0 SWAP2 SWAP1 PUSH1 0x40 SWAP1 DUP2 DUP6 ADD SWAP1 DUP7 DUP5 ADD DUP6 JUMPDEST DUP3 DUP2 LT ISZERO PUSH2 0x1FFA JUMPI DUP2 MLOAD DUP1 MLOAD PUSH1 0x1 PUSH1 0x1 PUSH1 0xA0 SHL SUB SWAP1 DUP2 AND DUP7 MSTORE DUP8 DUP3 ADD MLOAD DUP9 DUP8 ADD MSTORE DUP7 DUP3 ADD MLOAD DUP8 DUP8 ADD MSTORE PUSH1 0x60 DUP1 DUP4 ADD MLOAD SWAP1 DUP8 ADD MSTORE PUSH1 0x80 DUP1 DUP4 ADD MLOAD SWAP1 SWAP2 AND SWAP1 DUP7 ADD MSTORE PUSH1 0xA0 DUP1 DUP3 ADD MLOAD SWAP1 DUP7 ADD MSTORE PUSH1 0xC0 SWAP1 DUP2 ADD MLOAD PUSH1 0xFF AND SWAP1 DUP6 ADD MSTORE PUSH1 0xE0 SWAP1 SWAP4 ADD SWAP3 SWAP1 DUP6 ADD SWAP1 PUSH1 0x1 ADD PUSH2 0x1F91 JUMP JUMPDEST POP SWAP2 SWAP8 SWAP7 POP POP POP POP POP POP POP JUMP JUMPDEST PUSH4 0x4E487B71 PUSH1 0xE0 SHL PUSH0 MSTORE PUSH1 0x41 PUSH1 0x4 MSTORE PUSH1 0x24 PUSH0 REVERT JUMPDEST PUSH4 0x4E487B71 PUSH1 0xE0 SHL PUSH0 MSTORE PUSH1 0x32 PUSH1 0x4 MSTORE PUSH1 0x24 PUSH0 REVERT JUMPDEST PUSH4 0x4E487B71 PUSH1 0xE0 SHL PUSH0 MSTORE PUSH1 0x11 PUSH1 0x4 MSTORE PUSH1 0x24 PUSH0 REVERT JUMPDEST DUP2 DUP2 SUB DUP2 DUP2 GT ISZERO PUSH2 0x2056 JUMPI PUSH2 0x2056 PUSH2 0x202F JUMP JUMPDEST SWAP3 SWAP2 POP POP JUMP JUMPDEST PUSH0 DUP3 PUSH2 0x2076 JUMPI PUSH4 0x4E487B71 PUSH1 0xE0 SHL PUSH0 MSTORE PUSH1 0x12 PUSH1 0x4 MSTORE PUSH1 0x24 PUSH0 REVERT JUMPDEST POP DIV SWAP1 JUMP JUMPDEST DUP1 DUP3 MUL DUP2 ISZERO DUP3 DUP3 DIV DUP5 EQ OR PUSH2 0x2056 JUMPI PUSH2 0x2056 PUSH2 0x202F JUMP JUMPDEST DUP1 DUP3 ADD DUP1 DUP3 GT ISZERO PUSH2 0x2056 JUMPI PUSH2 0x2056 PUSH2 0x202F JUMP JUMPDEST PUSH0 PUSH1 0x20 DUP3 DUP5 SUB SLT ISZERO PUSH2 0x20B5 JUMPI PUSH0 DUP1 REVERT JUMPDEST DUP2 MLOAD DUP1 ISZERO ISZERO DUP2 EQ PUSH2 0x1E8D JUMPI PUSH0 DUP1 REVERT JUMPDEST PUSH0 PUSH1 0x20 DUP3 DUP5 SUB SLT ISZERO PUSH2 0x20D4 JUMPI PUSH0 DUP1 REVERT JUMPDEST POP MLOAD SWAP2 SWAP1 POP JUMP JUMPDEST PUSH0 PUSH1 0x1 DUP3 ADD PUSH2 0x20EC JUMPI PUSH2 0x20EC PUSH2 0x202F JUMP JUMPDEST POP PUSH1 0x1 ADD SWAP1 JUMP JUMPDEST PUSH0 PUSH1 0xFF DUP3 AND PUSH1 0xFF DUP2 SUB PUSH2 0x2108 JUMPI PUSH2 0x2108 PUSH2 0x202F JUMP JUMPDEST PUSH1 0x1 ADD SWAP3 SWAP2 POP POP JUMP JUMPDEST PUSH1 0xFF DUP2 DUP2 AND DUP4 DUP3 AND ADD SWAP1 DUP2 GT ISZERO PUSH2 0x2056 JUMPI PUSH2 0x2056 PUSH2 0x202F JUMP INVALID LOG2 PUSH5 0x6970667358 0x22 SLT KECCAK256 AND 0xB8 DUP3 SLOAD DUP5 0x25 PUSH0 0xAE RETURNDATACOPY 0xE4 0x1E JUMP SWAP16 0xBF CALLVALUE CALLDATALOAD PUSH2 0xEE47 COINBASE 0xCE PUSH6 0xAAEE00AB8A3A 0xF8 JUMPI PUSH4 0x9664736F PUSH13 0x63430008190033000000000000 "
				},
				"gasEstimates": {
					"creation": {
						"codeDepositCost": "1708800",
						"executionCost": "infinite",
						"totalCost": "infinite"
					},
					"external": {
						"allUsers(uint256)": "4678",
						"claim(uint256)": "infinite",
						"directReferralIncome(address)": "2604",
						"directReferrals(address,uint256)": "9081",
						"getDirectReferralCount(address)": "2645",
						"getDirectReferralIncome(address)": "2667",
						"getEstimatedReturn(uint256,uint256)": "infinite",
						"getLevelIncome(address)": "2614",
						"getLevelIncomeDistribution(address)": "infinite",
						"getPositionIds(address)": "infinite",
						"getReferralIncomeDetails(address)": "infinite",
						"getStakeByPositionId(uint256)": "infinite",
						"getTotalIncome(address)": "2607",
						"getTotalUsers()": "2314",
						"getUserLevel(address)": "2706",
						"isRegistered(address)": "2641",
						"levelRewards(uint256)": "4127",
						"owner()": "2424",
						"positionIdToUser(uint256)": "2520",
						"register(address)": "177654",
						"stake(uint256,uint256)": "infinite",
						"stakeCounter()": "2404",
						"stakingAPY(uint256)": "2502",
						"usdtToken()": "2447",
						"users(address)": "9070",
						"withdrawUSDT(uint256)": "infinite"
					}
				},
				"methodIdentifiers": {
					"allUsers(uint256)": "a2bdedf4",
					"claim(uint256)": "379607f5",
					"directReferralIncome(address)": "f6e88873",
					"directReferrals(address,uint256)": "05ad3935",
					"getDirectReferralCount(address)": "98278efb",
					"getDirectReferralIncome(address)": "aa7ed462",
					"getEstimatedReturn(uint256,uint256)": "bd297178",
					"getLevelIncome(address)": "5bd4e16a",
					"getLevelIncomeDistribution(address)": "ef71ae56",
					"getPositionIds(address)": "28fe7031",
					"getReferralIncomeDetails(address)": "9d747bad",
					"getStakeByPositionId(uint256)": "797c7f5f",
					"getTotalIncome(address)": "c2d3c677",
					"getTotalUsers()": "9be572f6",
					"getUserLevel(address)": "21923bde",
					"isRegistered(address)": "c3c5a547",
					"levelRewards(uint256)": "e45a57d0",
					"owner()": "8da5cb5b",
					"positionIdToUser(uint256)": "1e43eb27",
					"register(address)": "4420e486",
					"stake(uint256,uint256)": "7b0472f0",
					"stakeCounter()": "f7b17d10",
					"stakingAPY(uint256)": "875bb4e2",
					"usdtToken()": "a98ad46c",
					"users(address)": "a87430ba",
					"withdrawUSDT(uint256)": "3ea521ef"
				}
			},
			"storageLayout": {
				"storage": [
					{
						"astId": 31,
						"contract": "contracts/mintone.sol:MLMStakingUSDT",
						"label": "owner",
						"offset": 0,
						"slot": "0",
						"type": "t_address"
					},
					{
						"astId": 33,
						"contract": "contracts/mintone.sol:MLMStakingUSDT",
						"label": "stakeCounter",
						"offset": 0,
						"slot": "1",
						"type": "t_uint256"
					},
					{
						"astId": 36,
						"contract": "contracts/mintone.sol:MLMStakingUSDT",
						"label": "usdtToken",
						"offset": 0,
						"slot": "2",
						"type": "t_contract(IERC20)29"
					},
					{
						"astId": 137,
						"contract": "contracts/mintone.sol:MLMStakingUSDT",
						"label": "users",
						"offset": 0,
						"slot": "3",
						"type": "t_mapping(t_address,t_struct(User)117_storage)"
					},
					{
						"astId": 143,
						"contract": "contracts/mintone.sol:MLMStakingUSDT",
						"label": "directReferrals",
						"offset": 0,
						"slot": "4",
						"type": "t_mapping(t_address,t_array(t_struct(ReferralInfo)104_storage)dyn_storage)"
					},
					{
						"astId": 147,
						"contract": "contracts/mintone.sol:MLMStakingUSDT",
						"label": "positionIdToUser",
						"offset": 0,
						"slot": "5",
						"type": "t_mapping(t_uint256,t_address)"
					},
					{
						"astId": 151,
						"contract": "contracts/mintone.sol:MLMStakingUSDT",
						"label": "stakingAPY",
						"offset": 0,
						"slot": "6",
						"type": "t_mapping(t_uint256,t_uint256)"
					},
					{
						"astId": 155,
						"contract": "contracts/mintone.sol:MLMStakingUSDT",
						"label": "directReferralIncome",
						"offset": 0,
						"slot": "7",
						"type": "t_mapping(t_address,t_uint256)"
					},
					{
						"astId": 158,
						"contract": "contracts/mintone.sol:MLMStakingUSDT",
						"label": "allUsers",
						"offset": 0,
						"slot": "8",
						"type": "t_array(t_address)dyn_storage"
					},
					{
						"astId": 168,
						"contract": "contracts/mintone.sol:MLMStakingUSDT",
						"label": "levelRewards",
						"offset": 0,
						"slot": "9",
						"type": "t_array(t_uint8)5_storage"
					}
				],
				"types": {
					"t_address": {
						"encoding": "inplace",
						"label": "address",
						"numberOfBytes": "20"
					},
					"t_array(t_address)dyn_storage": {
						"base": "t_address",
						"encoding": "dynamic_array",
						"label": "address[]",
						"numberOfBytes": "32"
					},
					"t_array(t_struct(ReferralInfo)104_storage)dyn_storage": {
						"base": "t_struct(ReferralInfo)104_storage",
						"encoding": "dynamic_array",
						"label": "struct MLMStakingUSDT.ReferralInfo[]",
						"numberOfBytes": "32"
					},
					"t_array(t_struct(Stake)97_storage)dyn_storage": {
						"base": "t_struct(Stake)97_storage",
						"encoding": "dynamic_array",
						"label": "struct MLMStakingUSDT.Stake[]",
						"numberOfBytes": "32"
					},
					"t_array(t_uint8)5_storage": {
						"base": "t_uint8",
						"encoding": "inplace",
						"label": "uint8[5]",
						"numberOfBytes": "32"
					},
					"t_bool": {
						"encoding": "inplace",
						"label": "bool",
						"numberOfBytes": "1"
					},
					"t_contract(IERC20)29": {
						"encoding": "inplace",
						"label": "contract IERC20",
						"numberOfBytes": "20"
					},
					"t_mapping(t_address,t_array(t_struct(ReferralInfo)104_storage)dyn_storage)": {
						"encoding": "mapping",
						"key": "t_address",
						"label": "mapping(address => struct MLMStakingUSDT.ReferralInfo[])",
						"numberOfBytes": "32",
						"value": "t_array(t_struct(ReferralInfo)104_storage)dyn_storage"
					},
					"t_mapping(t_address,t_struct(User)117_storage)": {
						"encoding": "mapping",
						"key": "t_address",
						"label": "mapping(address => struct MLMStakingUSDT.User)",
						"numberOfBytes": "32",
						"value": "t_struct(User)117_storage"
					},
					"t_mapping(t_address,t_uint256)": {
						"encoding": "mapping",
						"key": "t_address",
						"label": "mapping(address => uint256)",
						"numberOfBytes": "32",
						"value": "t_uint256"
					},
					"t_mapping(t_uint256,t_address)": {
						"encoding": "mapping",
						"key": "t_uint256",
						"label": "mapping(uint256 => address)",
						"numberOfBytes": "32",
						"value": "t_address"
					},
					"t_mapping(t_uint256,t_uint256)": {
						"encoding": "mapping",
						"key": "t_uint256",
						"label": "mapping(uint256 => uint256)",
						"numberOfBytes": "32",
						"value": "t_uint256"
					},
					"t_struct(ReferralInfo)104_storage": {
						"encoding": "inplace",
						"label": "struct MLMStakingUSDT.ReferralInfo",
						"members": [
							{
								"astId": 99,
								"contract": "contracts/mintone.sol:MLMStakingUSDT",
								"label": "referralAddress",
								"offset": 0,
								"slot": "0",
								"type": "t_address"
							},
							{
								"astId": 101,
								"contract": "contracts/mintone.sol:MLMStakingUSDT",
								"label": "incomeEarned",
								"offset": 0,
								"slot": "1",
								"type": "t_uint256"
							},
							{
								"astId": 103,
								"contract": "contracts/mintone.sol:MLMStakingUSDT",
								"label": "timestamp",
								"offset": 0,
								"slot": "2",
								"type": "t_uint256"
							}
						],
						"numberOfBytes": "96"
					},
					"t_struct(Stake)97_storage": {
						"encoding": "inplace",
						"label": "struct MLMStakingUSDT.Stake",
						"members": [
							{
								"astId": 86,
								"contract": "contracts/mintone.sol:MLMStakingUSDT",
								"label": "stakeId",
								"offset": 0,
								"slot": "0",
								"type": "t_uint256"
							},
							{
								"astId": 88,
								"contract": "contracts/mintone.sol:MLMStakingUSDT",
								"label": "positionId",
								"offset": 0,
								"slot": "1",
								"type": "t_uint256"
							},
							{
								"astId": 90,
								"contract": "contracts/mintone.sol:MLMStakingUSDT",
								"label": "amount",
								"offset": 0,
								"slot": "2",
								"type": "t_uint256"
							},
							{
								"astId": 92,
								"contract": "contracts/mintone.sol:MLMStakingUSDT",
								"label": "timestamp",
								"offset": 0,
								"slot": "3",
								"type": "t_uint256"
							},
							{
								"astId": 94,
								"contract": "contracts/mintone.sol:MLMStakingUSDT",
								"label": "numDays",
								"offset": 0,
								"slot": "4",
								"type": "t_uint256"
							},
							{
								"astId": 96,
								"contract": "contracts/mintone.sol:MLMStakingUSDT",
								"label": "claimed",
								"offset": 0,
								"slot": "5",
								"type": "t_bool"
							}
						],
						"numberOfBytes": "192"
					},
					"t_struct(User)117_storage": {
						"encoding": "inplace",
						"label": "struct MLMStakingUSDT.User",
						"members": [
							{
								"astId": 106,
								"contract": "contracts/mintone.sol:MLMStakingUSDT",
								"label": "referrer",
								"offset": 0,
								"slot": "0",
								"type": "t_address"
							},
							{
								"astId": 110,
								"contract": "contracts/mintone.sol:MLMStakingUSDT",
								"label": "stakes",
								"offset": 0,
								"slot": "1",
								"type": "t_array(t_struct(Stake)97_storage)dyn_storage"
							},
							{
								"astId": 112,
								"contract": "contracts/mintone.sol:MLMStakingUSDT",
								"label": "totalIncome",
								"offset": 0,
								"slot": "2",
								"type": "t_uint256"
							},
							{
								"astId": 114,
								"contract": "contracts/mintone.sol:MLMStakingUSDT",
								"label": "levelIncome",
								"offset": 0,
								"slot": "3",
								"type": "t_uint256"
							},
							{
								"astId": 116,
								"contract": "contracts/mintone.sol:MLMStakingUSDT",
								"label": "registered",
								"offset": 0,
								"slot": "4",
								"type": "t_bool"
							}
						],
						"numberOfBytes": "160"
					},
					"t_uint256": {
						"encoding": "inplace",
						"label": "uint256",
						"numberOfBytes": "32"
					},
					"t_uint8": {
						"encoding": "inplace",
						"label": "uint8",
						"numberOfBytes": "1"
					}
				}
			},
			"userdoc": {
				"kind": "user",
				"methods": {},
				"version": 1
			}
		}
	}
}