{
	"contracts/3_Ballot.sol": {
		"MLMStaking": {
			"abi": [
				{
					"inputs": [
						{
							"internalType": "uint256",
							"name": "",
							"type": "uint256"
						}
					],
					"name": "allUsers",
					"outputs": [
						{
							"internalType": "address",
							"name": "",
							"type": "address"
						}
					],
					"stateMutability": "view",
					"type": "function"
				},
				{
					"inputs": [
						{
							"internalType": "address",
							"name": "",
							"type": "address"
						},
						{
							"internalType": "uint256",
							"name": "",
							"type": "uint256"
						}
					],
					"name": "directReferrals",
					"outputs": [
						{
							"internalType": "address",
							"name": "referralAddress",
							"type": "address"
						},
						{
							"internalType": "uint256",
							"name": "incomeEarned",
							"type": "uint256"
						},
						{
							"internalType": "uint256",
							"name": "timestamp",
							"type": "uint256"
						}
					],
					"stateMutability": "view",
					"type": "function"
				},
				{
					"inputs": [
						{
							"internalType": "address",
							"name": "_user",
							"type": "address"
						}
					],
					"name": "getLevelIncomeDistribution",
					"outputs": [
						{
							"components": [
								{
									"internalType": "address",
									"name": "receiverAddress",
									"type": "address"
								},
								{
									"internalType": "uint256",
									"name": "stakeId",
									"type": "uint256"
								},
								{
									"internalType": "uint256",
									"name": "stakeAmount",
									"type": "uint256"
								},
								{
									"internalType": "uint256",
									"name": "incomeReceived",
									"type": "uint256"
								},
								{
									"internalType": "address",
									"name": "uplineAddress",
									"type": "address"
								},
								{
									"internalType": "uint256",
									"name": "timestamp",
									"type": "uint256"
								},
								{
									"internalType": "uint8",
									"name": "level",
									"type": "uint8"
								}
							],
							"internalType": "struct MLMStaking.LevelIncomeData[]",
							"name": "",
							"type": "tuple[]"
						}
					],
					"stateMutability": "view",
					"type": "function"
				},
				{
					"inputs": [],
					"name": "getTotalUsers",
					"outputs": [
						{
							"internalType": "uint256",
							"name": "",
							"type": "uint256"
						}
					],
					"stateMutability": "view",
					"type": "function"
				},
				{
					"inputs": [
						{
							"internalType": "address",
							"name": "user",
							"type": "address"
						}
					],
					"name": "getUserStakes",
					"outputs": [
						{
							"components": [
								{
									"internalType": "uint256",
									"name": "stakeId",
									"type": "uint256"
								},
								{
									"internalType": "uint256",
									"name": "amount",
									"type": "uint256"
								},
								{
									"internalType": "uint256",
									"name": "timestamp",
									"type": "uint256"
								}
							],
							"internalType": "struct MLMStaking.Stake[]",
							"name": "",
							"type": "tuple[]"
						}
					],
					"stateMutability": "view",
					"type": "function"
				},
				{
					"inputs": [
						{
							"internalType": "uint256",
							"name": "",
							"type": "uint256"
						}
					],
					"name": "levelRewards",
					"outputs": [
						{
							"internalType": "uint8",
							"name": "",
							"type": "uint8"
						}
					],
					"stateMutability": "view",
					"type": "function"
				},
				{
					"inputs": [],
					"name": "nextPositionId",
					"outputs": [
						{
							"internalType": "uint256",
							"name": "",
							"type": "uint256"
						}
					],
					"stateMutability": "view",
					"type": "function"
				},
				{
					"inputs": [],
					"name": "nextStakeId",
					"outputs": [
						{
							"internalType": "uint256",
							"name": "",
							"type": "uint256"
						}
					],
					"stateMutability": "view",
					"type": "function"
				},
				{
					"inputs": [
						{
							"internalType": "uint256",
							"name": "",
							"type": "uint256"
						}
					],
					"name": "positionIdToUser",
					"outputs": [
						{
							"internalType": "address",
							"name": "",
							"type": "address"
						}
					],
					"stateMutability": "view",
					"type": "function"
				},
				{
					"inputs": [
						{
							"internalType": "address",
							"name": "referrer",
							"type": "address"
						}
					],
					"name": "register",
					"outputs": [],
					"stateMutability": "nonpayable",
					"type": "function"
				},
				{
					"inputs": [],
					"name": "stake",
					"outputs": [],
					"stateMutability": "payable",
					"type": "function"
				},
				{
					"inputs": [],
					"name": "stakeCounter",
					"outputs": [
						{
							"internalType": "uint256",
							"name": "",
							"type": "uint256"
						}
					],
					"stateMutability": "view",
					"type": "function"
				},
				{
					"inputs": [
						{
							"internalType": "address",
							"name": "",
							"type": "address"
						}
					],
					"name": "users",
					"outputs": [
						{
							"internalType": "address",
							"name": "referrer",
							"type": "address"
						},
						{
							"internalType": "bool",
							"name": "registered",
							"type": "bool"
						},
						{
							"internalType": "uint256",
							"name": "totalIncome",
							"type": "uint256"
						},
						{
							"internalType": "uint256",
							"name": "directReferralIncome",
							"type": "uint256"
						},
						{
							"internalType": "uint256",
							"name": "levelIncome",
							"type": "uint256"
						}
					],
					"stateMutability": "view",
					"type": "function"
				}
			],
			"devdoc": {
				"kind": "dev",
				"methods": {},
				"version": 1
			},
			"evm": {
				"assembly": "    /* \"contracts/3_Ballot.sol\":1128:1167  uint8[] public levelRewards = [5, 3, 2] */\n  0xe0\n    /* \"contracts/3_Ballot.sol\":57:4539  contract MLMStaking {... */\n  0x40\n    /* \"contracts/3_Ballot.sol\":1128:1167  uint8[] public levelRewards = [5, 3, 2] */\n  mstore\n    /* \"contracts/3_Ballot.sol\":1159:1160  5 */\n  0x05\n    /* \"contracts/3_Ballot.sol\":57:4539  contract MLMStaking {... */\n  0x80\n    /* \"contracts/3_Ballot.sol\":1128:1167  uint8[] public levelRewards = [5, 3, 2] */\n  swap1\n  dup2\n  mstore\n    /* \"contracts/3_Ballot.sol\":1162:1163  3 */\n  0x03\n    /* \"contracts/3_Ballot.sol\":1128:1167  uint8[] public levelRewards = [5, 3, 2] */\n  0xa0\n  dup2\n  swap1\n  mstore\n    /* \"contracts/3_Ballot.sol\":1165:1166  2 */\n  0x02\n    /* \"contracts/3_Ballot.sol\":1128:1167  uint8[] public levelRewards = [5, 3, 2] */\n  0xc0\n  mstore\n  tag_1\n  swap2\n  0x07\n  swap2\n  tag_2\n  jump\t// in\ntag_1:\n  pop\n    /* \"contracts/3_Ballot.sol\":57:4539  contract MLMStaking {... */\n  callvalue\n  dup1\n  iszero\n  tag_3\n  jumpi\n  revert(0x00, 0x00)\ntag_3:\n  pop\n  jump(tag_4)\ntag_2:\n  dup3\n  dup1\n  sload\n  dup3\n  dup3\n  sstore\n  swap1\n  0x00\n  mstore\n  keccak256(0x00, 0x20)\n  swap1\n  0x1f\n  add\n  0x20\n  swap1\n  div\n  dup2\n  add\n  swap3\n  dup3\n  iszero\n  tag_5\n  jumpi\n  swap2\n  0x20\n  mul\n  dup3\n  add\n  0x00\ntag_6:\n  dup4\n  dup3\n  gt\n  iszero\n  tag_7\n  jumpi\n  dup4\n  mload\n  dup4\n  dup3\n  0x0100\n  exp\n  dup2\n  sload\n  dup2\n  0xff\n  mul\n  not\n  and\n  swap1\n  dup4\n  0xff\n  and\n  mul\n  or\n  swap1\n  sstore\n  pop\n  swap3\n  0x20\n  add\n  swap3\n  0x01\n  add\n  0x20\n  dup2\n  0x00\n  add\n  div\n  swap3\n  dup4\n  add\n  swap3\n  0x01\n  sub\n  mul\n  jump(tag_6)\ntag_7:\n  dup1\n  iszero\n  tag_8\n  jumpi\n  dup3\n  dup2\n  0x0100\n  exp\n  dup2\n  sload\n  swap1\n  0xff\n  mul\n  not\n  and\n  swap1\n  sstore\n  0x01\n  add\n  0x20\n  dup2\n  0x00\n  add\n  div\n  swap3\n  dup4\n  add\n  swap3\n  0x01\n  sub\n  mul\n  jump(tag_7)\ntag_8:\n  pop\ntag_5:\n  pop\n  tag_9\n  swap3\n  swap2\n  pop\n  tag_10\n  jump\t// in\ntag_9:\n  pop\n  swap1\n  jump\t// out\ntag_10:\ntag_11:\n  dup1\n  dup3\n  gt\n  iszero\n  tag_9\n  jumpi\n  0x00\n  dup2\n  sstore\n  0x01\n  add\n  jump(tag_11)\ntag_4:\n  dataSize(sub_0)\n  dup1\n  dataOffset(sub_0)\n  0x00\n  codecopy\n  0x00\n  return\nstop\n\nsub_0: assembly {\n        /* \"contracts/3_Ballot.sol\":57:4539  contract MLMStaking {... */\n      mstore(0x40, 0x80)\n      jumpi(tag_1, lt(calldatasize, 0x04))\n      shr(0xe0, calldataload(0x00))\n      dup1\n      0x899346c7\n      gt\n      tag_15\n      jumpi\n      dup1\n      0xa87430ba\n      gt\n      tag_16\n      jumpi\n      dup1\n      0xa87430ba\n      eq\n      tag_11\n      jumpi\n      dup1\n      0xe45a57d0\n      eq\n      tag_12\n      jumpi\n      dup1\n      0xef71ae56\n      eq\n      tag_13\n      jumpi\n      dup1\n      0xf7b17d10\n      eq\n      tag_14\n      jumpi\n      revert(0x00, 0x00)\n    tag_16:\n      dup1\n      0x899346c7\n      eq\n      tag_8\n      jumpi\n      dup1\n      0x9be572f6\n      eq\n      tag_9\n      jumpi\n      dup1\n      0xa2bdedf4\n      eq\n      tag_10\n      jumpi\n      revert(0x00, 0x00)\n    tag_15:\n      dup1\n      0x05ad3935\n      eq\n      tag_2\n      jumpi\n      dup1\n      0x1e43eb27\n      eq\n      tag_3\n      jumpi\n      dup1\n      0x3a4b66f1\n      eq\n      tag_4\n      jumpi\n      dup1\n      0x4420e486\n      eq\n      tag_5\n      jumpi\n      dup1\n      0x75506c96\n      eq\n      tag_6\n      jumpi\n      dup1\n      0x842e2981\n      eq\n      tag_7\n      jumpi\n    tag_1:\n      revert(0x00, 0x00)\n        /* \"contracts/3_Ballot.sol\":866:923  mapping(address => ReferralInfo[]) public directReferrals */\n    tag_2:\n      callvalue\n      dup1\n      iszero\n      tag_17\n      jumpi\n      revert(0x00, 0x00)\n    tag_17:\n      pop\n      tag_18\n      tag_19\n      calldatasize\n      0x04\n      tag_20\n      jump\t// in\n    tag_19:\n      tag_21\n      jump\t// in\n    tag_18:\n      0x40\n      dup1\n      mload\n      sub(shl(0xa0, 0x01), 0x01)\n        /* \"#utility.yul\":717:749   */\n      swap1\n      swap5\n      and\n        /* \"#utility.yul\":699:750   */\n      dup5\n      mstore\n        /* \"#utility.yul\":781:783   */\n      0x20\n        /* \"#utility.yul\":766:784   */\n      dup5\n      add\n        /* \"#utility.yul\":759:793   */\n      swap3\n      swap1\n      swap3\n      mstore\n        /* \"#utility.yul\":809:827   */\n      swap1\n      dup3\n      add\n        /* \"#utility.yul\":802:836   */\n      mstore\n        /* \"#utility.yul\":687:689   */\n      0x60\n        /* \"#utility.yul\":672:690   */\n      add\n        /* \"contracts/3_Ballot.sol\":866:923  mapping(address => ReferralInfo[]) public directReferrals */\n    tag_22:\n      mload(0x40)\n      dup1\n      swap2\n      sub\n      swap1\n      return\n        /* \"contracts/3_Ballot.sol\":929:980  mapping(uint256 => address) public positionIdToUser */\n    tag_3:\n      callvalue\n      dup1\n      iszero\n      tag_24\n      jumpi\n      revert(0x00, 0x00)\n    tag_24:\n      pop\n      tag_25\n      tag_26\n      calldatasize\n      0x04\n      tag_27\n      jump\t// in\n    tag_26:\n      mstore(0x20, 0x02)\n      0x00\n      swap1\n      dup2\n      mstore\n      0x40\n      swap1\n      keccak256\n      sload\n      sub(shl(0xa0, 0x01), 0x01)\n      and\n      dup2\n      jump\n    tag_25:\n      mload(0x40)\n      sub(shl(0xa0, 0x01), 0x01)\n        /* \"#utility.yul\":1242:1274   */\n      swap1\n      swap2\n      and\n        /* \"#utility.yul\":1224:1275   */\n      dup2\n      mstore\n        /* \"#utility.yul\":1212:1214   */\n      0x20\n        /* \"#utility.yul\":1197:1215   */\n      add\n        /* \"contracts/3_Ballot.sol\":929:980  mapping(uint256 => address) public positionIdToUser */\n      tag_22\n        /* \"#utility.yul\":1078:1281   */\n      jump\n        /* \"contracts/3_Ballot.sol\":1557:2237  function stake() external payable {... */\n    tag_4:\n      tag_31\n      tag_32\n      jump\t// in\n    tag_31:\n      stop\n        /* \"contracts/3_Ballot.sol\":1248:1529  function register(address referrer) external {... */\n    tag_5:\n      callvalue\n      dup1\n      iszero\n      tag_33\n      jumpi\n      revert(0x00, 0x00)\n    tag_33:\n      pop\n      tag_31\n      tag_35\n      calldatasize\n      0x04\n      tag_36\n      jump\t// in\n    tag_35:\n      tag_37\n      jump\t// in\n        /* \"contracts/3_Ballot.sol\":1060:1086  uint256 public nextStakeId */\n    tag_6:\n      callvalue\n      dup1\n      iszero\n      tag_38\n      jumpi\n      revert(0x00, 0x00)\n    tag_38:\n      pop\n      tag_39\n      sload(0x05)\n      dup2\n      jump\n    tag_39:\n      mload(0x40)\n        /* \"#utility.yul\":1623:1648   */\n      swap1\n      dup2\n      mstore\n        /* \"#utility.yul\":1611:1613   */\n      0x20\n        /* \"#utility.yul\":1596:1614   */\n      add\n        /* \"contracts/3_Ballot.sol\":1060:1086  uint256 public nextStakeId */\n      tag_22\n        /* \"#utility.yul\":1477:1654   */\n      jump\n        /* \"contracts/3_Ballot.sol\":4419:4537  function getUserStakes(address user) external view returns (Stake[] memory) {... */\n    tag_7:\n      callvalue\n      dup1\n      iszero\n      tag_43\n      jumpi\n      revert(0x00, 0x00)\n    tag_43:\n      pop\n      tag_44\n      tag_45\n      calldatasize\n      0x04\n      tag_36\n      jump\t// in\n    tag_45:\n      tag_46\n      jump\t// in\n    tag_44:\n      mload(0x40)\n      tag_22\n      swap2\n      swap1\n      tag_48\n      jump\t// in\n        /* \"contracts/3_Ballot.sol\":1092:1121  uint256 public nextPositionId */\n    tag_8:\n      callvalue\n      dup1\n      iszero\n      tag_49\n      jumpi\n      revert(0x00, 0x00)\n    tag_49:\n      pop\n      tag_39\n      sload(0x06)\n      dup2\n      jump\n        /* \"contracts/3_Ballot.sol\":4281:4377  function getTotalUsers() external view returns (uint256) {... */\n    tag_9:\n      callvalue\n      dup1\n      iszero\n      tag_53\n      jumpi\n      revert(0x00, 0x00)\n    tag_53:\n      pop\n        /* \"contracts/3_Ballot.sol\":4355:4363  allUsers */\n      0x03\n        /* \"contracts/3_Ballot.sol\":4355:4370  allUsers.length */\n      sload\n        /* \"contracts/3_Ballot.sol\":4281:4377  function getTotalUsers() external view returns (uint256) {... */\n      jump(tag_39)\n        /* \"contracts/3_Ballot.sol\":993:1018  address[] public allUsers */\n    tag_10:\n      callvalue\n      dup1\n      iszero\n      tag_57\n      jumpi\n      revert(0x00, 0x00)\n    tag_57:\n      pop\n      tag_25\n      tag_59\n      calldatasize\n      0x04\n      tag_27\n      jump\t// in\n    tag_59:\n      tag_60\n      jump\t// in\n        /* \"contracts/3_Ballot.sol\":823:860  mapping(address => User) public users */\n    tag_11:\n      callvalue\n      dup1\n      iszero\n      tag_62\n      jumpi\n      revert(0x00, 0x00)\n    tag_62:\n      pop\n      tag_63\n      tag_64\n      calldatasize\n      0x04\n      tag_36\n      jump\t// in\n    tag_64:\n      0x00\n      0x20\n      dup2\n      swap1\n      mstore\n      swap1\n      dup2\n      mstore\n      0x40\n      swap1\n      keccak256\n      dup1\n      sload\n      0x02\n      dup3\n      add\n      sload\n      0x03\n      dup4\n      add\n      sload\n      0x04\n      swap1\n      swap4\n      add\n      sload\n      sub(shl(0xa0, 0x01), 0x01)\n      dup4\n      and\n      swap4\n      shl(0xa0, 0x01)\n      swap1\n      swap4\n      div\n      0xff\n      and\n      swap3\n      swap1\n      dup6\n      jump\n    tag_63:\n      0x40\n      dup1\n      mload\n      sub(shl(0xa0, 0x01), 0x01)\n        /* \"#utility.yul\":2726:2758   */\n      swap1\n      swap7\n      and\n        /* \"#utility.yul\":2708:2759   */\n      dup7\n      mstore\n        /* \"#utility.yul\":2802:2816   */\n      swap4\n      iszero\n        /* \"#utility.yul\":2795:2817   */\n      iszero\n        /* \"#utility.yul\":2790:2792   */\n      0x20\n        /* \"#utility.yul\":2775:2793   */\n      dup7\n      add\n        /* \"#utility.yul\":2768:2818   */\n      mstore\n        /* \"#utility.yul\":2834:2852   */\n      swap3\n      dup5\n      add\n        /* \"#utility.yul\":2827:2861   */\n      swap2\n      swap1\n      swap2\n      mstore\n        /* \"#utility.yul\":2892:2894   */\n      0x60\n        /* \"#utility.yul\":2877:2895   */\n      dup4\n      add\n        /* \"#utility.yul\":2870:2904   */\n      mstore\n        /* \"#utility.yul\":2935:2938   */\n      0x80\n        /* \"#utility.yul\":2920:2939   */\n      dup3\n      add\n        /* \"#utility.yul\":2913:2948   */\n      mstore\n        /* \"#utility.yul\":2695:2698   */\n      0xa0\n        /* \"#utility.yul\":2680:2699   */\n      add\n        /* \"contracts/3_Ballot.sol\":823:860  mapping(address => User) public users */\n      tag_22\n        /* \"#utility.yul\":2455:2954   */\n      jump\n        /* \"contracts/3_Ballot.sol\":1128:1167  uint8[] public levelRewards = [5, 3, 2] */\n    tag_12:\n      callvalue\n      dup1\n      iszero\n      tag_68\n      jumpi\n      revert(0x00, 0x00)\n    tag_68:\n      pop\n      tag_69\n      tag_70\n      calldatasize\n      0x04\n      tag_27\n      jump\t// in\n    tag_70:\n      tag_71\n      jump\t// in\n    tag_69:\n      mload(0x40)\n        /* \"#utility.yul\":3131:3135   */\n      0xff\n        /* \"#utility.yul\":3119:3136   */\n      swap1\n      swap2\n      and\n        /* \"#utility.yul\":3101:3137   */\n      dup2\n      mstore\n        /* \"#utility.yul\":3089:3091   */\n      0x20\n        /* \"#utility.yul\":3074:3092   */\n      add\n        /* \"contracts/3_Ballot.sol\":1128:1167  uint8[] public levelRewards = [5, 3, 2] */\n      tag_22\n        /* \"#utility.yul\":2959:3143   */\n      jump\n        /* \"contracts/3_Ballot.sol\":2301:4244  function getLevelIncomeDistribution(address _user) external view returns (LevelIncomeData[] memory) {... */\n    tag_13:\n      callvalue\n      dup1\n      iszero\n      tag_74\n      jumpi\n      revert(0x00, 0x00)\n    tag_74:\n      pop\n      tag_75\n      tag_76\n      calldatasize\n      0x04\n      tag_36\n      jump\t// in\n    tag_76:\n      tag_77\n      jump\t// in\n    tag_75:\n      mload(0x40)\n      tag_22\n      swap2\n      swap1\n      tag_79\n      jump\t// in\n        /* \"contracts/3_Ballot.sol\":1025:1052  uint256 public stakeCounter */\n    tag_14:\n      callvalue\n      dup1\n      iszero\n      tag_80\n      jumpi\n      revert(0x00, 0x00)\n    tag_80:\n      pop\n      tag_39\n      sload(0x04)\n      dup2\n      jump\n        /* \"contracts/3_Ballot.sol\":866:923  mapping(address => ReferralInfo[]) public directReferrals */\n    tag_21:\n      mstore(0x20, 0x01)\n      dup2\n      0x00\n      mstore\n      keccak256(0x00, 0x40)\n      dup2\n      dup2\n      sload\n      dup2\n      lt\n      tag_84\n      jumpi\n      0x00\n      dup1\n      revert\n    tag_84:\n      0x00\n      swap2\n      dup3\n      mstore\n      0x20\n      swap1\n      swap2\n      keccak256\n      0x03\n      swap1\n      swap2\n      mul\n      add\n      dup1\n      sload\n      0x01\n      dup3\n      add\n      sload\n      0x02\n      swap1\n      swap3\n      add\n      sload\n      sub(shl(0xa0, 0x01), 0x01)\n      swap1\n      swap2\n      and\n      swap4\n      pop\n      swap1\n      swap2\n      pop\n      dup4\n      jump\t// out\n        /* \"contracts/3_Ballot.sol\":1557:2237  function stake() external payable {... */\n    tag_32:\n        /* \"contracts/3_Ballot.sol\":1621:1622  0 */\n      0x00\n        /* \"contracts/3_Ballot.sol\":1609:1618  msg.value */\n      callvalue\n        /* \"contracts/3_Ballot.sol\":1609:1622  msg.value > 0 */\n      gt\n        /* \"contracts/3_Ballot.sol\":1601:1648  require(msg.value > 0, \"Stake amount required\") */\n      tag_87\n      jumpi\n      mload(0x40)\n      shl(0xe5, 0x461bcd)\n      dup2\n      mstore\n        /* \"#utility.yul\":4459:4461   */\n      0x20\n        /* \"contracts/3_Ballot.sol\":1601:1648  require(msg.value > 0, \"Stake amount required\") */\n      0x04\n      dup3\n      add\n        /* \"#utility.yul\":4441:4462   */\n      mstore\n        /* \"#utility.yul\":4498:4500   */\n      0x15\n        /* \"#utility.yul\":4478:4496   */\n      0x24\n      dup3\n      add\n        /* \"#utility.yul\":4471:4501   */\n      mstore\n      shl(0x5a, 0x14dd185ad948185b5bdd5b9d081c995c5d5a5c9959)\n        /* \"#utility.yul\":4517:4535   */\n      0x44\n      dup3\n      add\n        /* \"#utility.yul\":4510:4561   */\n      mstore\n        /* \"#utility.yul\":4578:4596   */\n      0x64\n      add\n        /* \"contracts/3_Ballot.sol\":1601:1648  require(msg.value > 0, \"Stake amount required\") */\n    tag_88:\n      mload(0x40)\n      dup1\n      swap2\n      sub\n      swap1\n      revert\n    tag_87:\n        /* \"contracts/3_Ballot.sol\":1672:1682  msg.sender */\n      caller\n        /* \"contracts/3_Ballot.sol\":1704:1705  0 */\n      0x00\n        /* \"contracts/3_Ballot.sol\":1666:1683  users[msg.sender] */\n      swap1\n      dup2\n      mstore\n      0x20\n      dup2\n      swap1\n      mstore\n      0x40\n      swap1\n      keccak256\n        /* \"contracts/3_Ballot.sol\":1666:1692  users[msg.sender].referrer */\n      sload\n      sub(shl(0xa0, 0x01), 0x01)\n      and\n        /* \"contracts/3_Ballot.sol\":1658:1725  require(users[msg.sender].referrer != address(0), \"Register first\") */\n      tag_90\n      jumpi\n      mload(0x40)\n      shl(0xe5, 0x461bcd)\n      dup2\n      mstore\n        /* \"#utility.yul\":4809:4811   */\n      0x20\n        /* \"contracts/3_Ballot.sol\":1658:1725  require(users[msg.sender].referrer != address(0), \"Register first\") */\n      0x04\n      dup3\n      add\n        /* \"#utility.yul\":4791:4812   */\n      mstore\n        /* \"#utility.yul\":4848:4850   */\n      0x0e\n        /* \"#utility.yul\":4828:4846   */\n      0x24\n      dup3\n      add\n        /* \"#utility.yul\":4821:4851   */\n      mstore\n      shl(0x92, 0x149959da5cdd195c88199a5c9cdd)\n        /* \"#utility.yul\":4867:4885   */\n      0x44\n      dup3\n      add\n        /* \"#utility.yul\":4860:4904   */\n      mstore\n        /* \"#utility.yul\":4921:4939   */\n      0x64\n      add\n        /* \"contracts/3_Ballot.sol\":1658:1725  require(users[msg.sender].referrer != address(0), \"Register first\") */\n      tag_88\n        /* \"#utility.yul\":4607:4945   */\n      jump\n        /* \"contracts/3_Ballot.sol\":1658:1725  require(users[msg.sender].referrer != address(0), \"Register first\") */\n    tag_90:\n        /* \"contracts/3_Ballot.sol\":1742:1752  msg.sender */\n      caller\n        /* \"contracts/3_Ballot.sol\":1736:1741  users */\n      0x00\n        /* \"contracts/3_Ballot.sol\":1736:1753  users[msg.sender] */\n      swap1\n      dup2\n      mstore\n      0x20\n      dup2\n      swap1\n      mstore\n      0x40\n      dup1\n      dup3\n      keccak256\n        /* \"contracts/3_Ballot.sol\":1766:1891  Stake({... */\n      dup2\n      mload\n      0x60\n      dup2\n      add\n      swap1\n      swap3\n      mstore\n        /* \"contracts/3_Ballot.sol\":1797:1809  stakeCounter */\n      0x04\n        /* \"contracts/3_Ballot.sol\":1795:1809  ++stakeCounter */\n      dup1\n      sload\n        /* \"contracts/3_Ballot.sol\":1736:1760  users[msg.sender].stakes */\n      0x01\n      swap1\n      swap3\n      add\n      swap4\n        /* \"contracts/3_Ballot.sol\":1766:1891  Stake({... */\n      dup4\n      swap3\n        /* \"contracts/3_Ballot.sol\":1795:1809  ++stakeCounter */\n      tag_93\n      swap1\n      tag_94\n      jump\t// in\n    tag_93:\n      swap2\n      dup3\n      swap1\n      sstore\n      pop\n        /* \"contracts/3_Ballot.sol\":1766:1891  Stake({... */\n      dup2\n      mstore\n        /* \"contracts/3_Ballot.sol\":1831:1840  msg.value */\n      callvalue\n        /* \"contracts/3_Ballot.sol\":1766:1891  Stake({... */\n      0x20\n      dup1\n      dup4\n      add\n      swap2\n      swap1\n      swap2\n      mstore\n        /* \"contracts/3_Ballot.sol\":1865:1880  block.timestamp */\n      timestamp\n        /* \"contracts/3_Ballot.sol\":1766:1891  Stake({... */\n      0x40\n      swap3\n      dup4\n      add\n      mstore\n        /* \"contracts/3_Ballot.sol\":1736:1892  users[msg.sender].stakes.push(Stake({... */\n      dup4\n      sload\n      0x01\n      dup2\n      dup2\n      add\n      dup7\n      sstore\n      0x00\n      swap6\n      dup7\n      mstore\n      dup3\n      dup7\n      keccak256\n      dup6\n      mload\n      0x03\n      swap1\n      swap4\n      mul\n      add\n      swap2\n      dup3\n      sstore\n      dup5\n      dup4\n      add\n      mload\n      swap1\n      dup3\n      add\n      sstore\n      swap3\n      dup3\n      add\n      mload\n      0x02\n      swap1\n      swap4\n      add\n      swap3\n      swap1\n      swap3\n      sstore\n        /* \"contracts/3_Ballot.sol\":1961:1971  msg.sender */\n      caller\n        /* \"contracts/3_Ballot.sol\":1955:1972  users[msg.sender] */\n      dup4\n      mstore\n      swap1\n      dup3\n      swap1\n      mstore\n      dup2\n      keccak256\n        /* \"contracts/3_Ballot.sol\":1955:1981  users[msg.sender].referrer */\n      sload\n      sub(shl(0xa0, 0x01), 0x01)\n      and\n      swap1\n        /* \"contracts/3_Ballot.sol\":1991:2231  for (uint8 i = 0; i < levelRewards.length && upline != address(0); i++) {... */\n    tag_96:\n        /* \"contracts/3_Ballot.sol\":2013:2025  levelRewards */\n      0x07\n        /* \"contracts/3_Ballot.sol\":2013:2032  levelRewards.length */\n      sload\n        /* \"contracts/3_Ballot.sol\":2009:2032  i < levelRewards.length */\n      0xff\n      dup3\n      and\n      lt\n        /* \"contracts/3_Ballot.sol\":2009:2056  i < levelRewards.length && upline != address(0) */\n      dup1\n      iszero\n      tag_99\n      jumpi\n      pop\n      sub(shl(0xa0, 0x01), 0x01)\n        /* \"contracts/3_Ballot.sol\":2036:2056  upline != address(0) */\n      dup3\n      and\n      iszero\n      iszero\n        /* \"contracts/3_Ballot.sol\":2009:2056  i < levelRewards.length && upline != address(0) */\n    tag_99:\n        /* \"contracts/3_Ballot.sol\":1991:2231  for (uint8 i = 0; i < levelRewards.length && upline != address(0); i++) {... */\n      iszero\n      tag_97\n      jumpi\n        /* \"contracts/3_Ballot.sol\":2077:2091  uint256 reward */\n      0x00\n        /* \"contracts/3_Ballot.sol\":2126:2129  100 */\n      0x64\n        /* \"contracts/3_Ballot.sol\":2107:2119  levelRewards */\n      0x07\n        /* \"contracts/3_Ballot.sol\":2120:2121  i */\n      dup4\n        /* \"contracts/3_Ballot.sol\":2107:2122  levelRewards[i] */\n      0xff\n      and\n      dup2\n      sload\n      dup2\n      lt\n      tag_101\n      jumpi\n      tag_101\n      tag_102\n      jump\t// in\n    tag_101:\n      0x00\n      swap2\n      dup3\n      mstore\n      0x20\n      swap2\n      dup3\n      swap1\n      keccak256\n      swap2\n      dup2\n      div\n      swap1\n      swap2\n      add\n      sload\n        /* \"contracts/3_Ballot.sol\":2095:2122  msg.value * levelRewards[i] */\n      tag_104\n      swap2\n        /* \"contracts/3_Ballot.sol\":2107:2122  levelRewards[i] */\n      0x1f\n      and\n      0x0100\n      exp\n      swap1\n      div\n      0xff\n      and\n        /* \"contracts/3_Ballot.sol\":2095:2104  msg.value */\n      callvalue\n        /* \"contracts/3_Ballot.sol\":2095:2122  msg.value * levelRewards[i] */\n      tag_105\n      jump\t// in\n    tag_104:\n        /* \"contracts/3_Ballot.sol\":2094:2129  (msg.value * levelRewards[i]) / 100 */\n      tag_106\n      swap2\n      swap1\n      tag_107\n      jump\t// in\n    tag_106:\n        /* \"contracts/3_Ballot.sol\":2143:2175  payable(upline).transfer(reward) */\n      mload(0x40)\n        /* \"contracts/3_Ballot.sol\":2077:2129  uint256 reward = (msg.value * levelRewards[i]) / 100 */\n      swap1\n      swap2\n      pop\n      sub(shl(0xa0, 0x01), 0x01)\n        /* \"contracts/3_Ballot.sol\":2143:2167  payable(upline).transfer */\n      dup5\n      and\n      swap1\n        /* \"contracts/3_Ballot.sol\":2143:2175  payable(upline).transfer(reward) */\n      dup3\n      iszero\n      0x08fc\n      mul\n      swap1\n        /* \"contracts/3_Ballot.sol\":2077:2129  uint256 reward = (msg.value * levelRewards[i]) / 100 */\n      dup4\n      swap1\n        /* \"contracts/3_Ballot.sol\":2143:2175  payable(upline).transfer(reward) */\n      0x00\n      dup2\n      dup2\n      dup2\n        /* \"contracts/3_Ballot.sol\":2077:2129  uint256 reward = (msg.value * levelRewards[i]) / 100 */\n      dup6\n        /* \"contracts/3_Ballot.sol\":2143:2167  payable(upline).transfer */\n      dup9\n        /* \"contracts/3_Ballot.sol\":2143:2175  payable(upline).transfer(reward) */\n      dup9\n      call\n      swap4\n      pop\n      pop\n      pop\n      pop\n      iszero\n      dup1\n      iszero\n      tag_109\n      jumpi\n      returndatacopy(0x00, 0x00, returndatasize)\n      revert(0x00, returndatasize)\n    tag_109:\n      pop\n      pop\n      sub(shl(0xa0, 0x01), 0x01)\n        /* \"contracts/3_Ballot.sol\":2198:2211  users[upline] */\n      swap2\n      dup3\n      and\n        /* \"contracts/3_Ballot.sol\":2198:2203  users */\n      0x00\n        /* \"contracts/3_Ballot.sol\":2198:2211  users[upline] */\n      swap1\n      dup2\n      mstore\n      0x20\n      dup2\n      swap1\n      mstore\n      0x40\n      swap1\n      keccak256\n        /* \"contracts/3_Ballot.sol\":2198:2220  users[upline].referrer */\n      sload\n      swap1\n      swap2\n      and\n      swap1\n        /* \"contracts/3_Ballot.sol\":2058:2061  i++ */\n      dup1\n      tag_110\n      dup2\n      tag_111\n      jump\t// in\n    tag_110:\n      swap2\n      pop\n      pop\n        /* \"contracts/3_Ballot.sol\":1991:2231  for (uint8 i = 0; i < levelRewards.length && upline != address(0); i++) {... */\n      jump(tag_96)\n    tag_97:\n      pop\n        /* \"contracts/3_Ballot.sol\":1591:2237  {... */\n      pop\n        /* \"contracts/3_Ballot.sol\":1557:2237  function stake() external payable {... */\n      jump\t// out\n        /* \"contracts/3_Ballot.sol\":1248:1529  function register(address referrer) external {... */\n    tag_37:\n        /* \"contracts/3_Ballot.sol\":1317:1327  msg.sender */\n      caller\n        /* \"contracts/3_Ballot.sol\":1349:1350  0 */\n      0x00\n        /* \"contracts/3_Ballot.sol\":1311:1328  users[msg.sender] */\n      swap1\n      dup2\n      mstore\n      0x20\n      dup2\n      swap1\n      mstore\n      0x40\n      swap1\n      keccak256\n        /* \"contracts/3_Ballot.sol\":1311:1337  users[msg.sender].referrer */\n      sload\n      sub(shl(0xa0, 0x01), 0x01)\n      and\n        /* \"contracts/3_Ballot.sol\":1311:1351  users[msg.sender].referrer == address(0) */\n      iszero\n        /* \"contracts/3_Ballot.sol\":1303:1374  require(users[msg.sender].referrer == address(0), \"Already registered\") */\n      tag_113\n      jumpi\n      mload(0x40)\n      shl(0xe5, 0x461bcd)\n      dup2\n      mstore\n        /* \"#utility.yul\":6131:6133   */\n      0x20\n        /* \"contracts/3_Ballot.sol\":1303:1374  require(users[msg.sender].referrer == address(0), \"Already registered\") */\n      0x04\n      dup3\n      add\n        /* \"#utility.yul\":6113:6134   */\n      mstore\n        /* \"#utility.yul\":6170:6172   */\n      0x12\n        /* \"#utility.yul\":6150:6168   */\n      0x24\n      dup3\n      add\n        /* \"#utility.yul\":6143:6173   */\n      mstore\n      shl(0x72, 0x105b1c9958591e481c9959da5cdd195c9959)\n        /* \"#utility.yul\":6189:6207   */\n      0x44\n      dup3\n      add\n        /* \"#utility.yul\":6182:6230   */\n      mstore\n        /* \"#utility.yul\":6247:6265   */\n      0x64\n      add\n        /* \"contracts/3_Ballot.sol\":1303:1374  require(users[msg.sender].referrer == address(0), \"Already registered\") */\n      tag_88\n        /* \"#utility.yul\":5929:6271   */\n      jump\n        /* \"contracts/3_Ballot.sol\":1303:1374  require(users[msg.sender].referrer == address(0), \"Already registered\") */\n    tag_113:\n        /* \"contracts/3_Ballot.sol\":1404:1414  msg.sender */\n      caller\n      sub(shl(0xa0, 0x01), 0x01)\n        /* \"contracts/3_Ballot.sol\":1392:1414  referrer != msg.sender */\n      dup3\n      and\n      sub\n        /* \"contracts/3_Ballot.sol\":1384:1439  require(referrer != msg.sender, \"Can't refer yourself\") */\n      tag_116\n      jumpi\n      mload(0x40)\n      shl(0xe5, 0x461bcd)\n      dup2\n      mstore\n        /* \"#utility.yul\":6478:6480   */\n      0x20\n        /* \"contracts/3_Ballot.sol\":1384:1439  require(referrer != msg.sender, \"Can't refer yourself\") */\n      0x04\n      dup3\n      add\n        /* \"#utility.yul\":6460:6481   */\n      mstore\n        /* \"#utility.yul\":6517:6519   */\n      0x14\n        /* \"#utility.yul\":6497:6515   */\n      0x24\n      dup3\n      add\n        /* \"#utility.yul\":6490:6520   */\n      mstore\n      shl(0x61, 0x21b0b713ba103932b332b9103cb7bab939b2b633)\n        /* \"#utility.yul\":6536:6554   */\n      0x44\n      dup3\n      add\n        /* \"#utility.yul\":6529:6579   */\n      mstore\n        /* \"#utility.yul\":6596:6614   */\n      0x64\n      add\n        /* \"contracts/3_Ballot.sol\":1384:1439  require(referrer != msg.sender, \"Can't refer yourself\") */\n      tag_88\n        /* \"#utility.yul\":6276:6620   */\n      jump\n        /* \"contracts/3_Ballot.sol\":1384:1439  require(referrer != msg.sender, \"Can't refer yourself\") */\n    tag_116:\n        /* \"contracts/3_Ballot.sol\":1456:1466  msg.sender */\n      caller\n        /* \"contracts/3_Ballot.sol\":1450:1455  users */\n      0x00\n        /* \"contracts/3_Ballot.sol\":1450:1467  users[msg.sender] */\n      dup2\n      dup2\n      mstore\n      0x20\n      dup2\n      swap1\n      mstore\n      0x40\n      dup2\n      keccak256\n        /* \"contracts/3_Ballot.sol\":1450:1487  users[msg.sender].referrer = referrer */\n      dup1\n      sload\n      sub(shl(0xa0, 0x01), 0x01)\n      swap1\n      swap5\n      and\n      not(sub(shl(0xa0, 0x01), 0x01))\n      swap5\n      dup6\n      and\n      or\n      swap1\n      sstore\n        /* \"contracts/3_Ballot.sol\":1497:1505  allUsers */\n      0x03\n        /* \"contracts/3_Ballot.sol\":1497:1522  allUsers.push(msg.sender) */\n      dup1\n      sload\n        /* \"contracts/3_Ballot.sol\":1450:1487  users[msg.sender].referrer = referrer */\n      0x01\n        /* \"contracts/3_Ballot.sol\":1497:1522  allUsers.push(msg.sender) */\n      dup2\n      add\n      dup3\n      sstore\n      swap2\n      mstore\n      0xc2575a0e9e593c00f959f8c92f12db2869c3395a3b0502d05e2516446f71f85b\n      add\n      dup1\n      sload\n      swap1\n      swap3\n      and\n      or\n      swap1\n      sstore\n        /* \"contracts/3_Ballot.sol\":1248:1529  function register(address referrer) external {... */\n      jump\t// out\n        /* \"contracts/3_Ballot.sol\":4419:4537  function getUserStakes(address user) external view returns (Stake[] memory) {... */\n    tag_46:\n      sub(shl(0xa0, 0x01), 0x01)\n        /* \"contracts/3_Ballot.sol\":4512:4523  users[user] */\n      dup2\n      and\n        /* \"contracts/3_Ballot.sol\":4512:4517  users */\n      0x00\n        /* \"contracts/3_Ballot.sol\":4512:4523  users[user] */\n      swap1\n      dup2\n      mstore\n      0x20\n      dup2\n      dup2\n      mstore\n      0x40\n      dup1\n      dup4\n      keccak256\n        /* \"contracts/3_Ballot.sol\":4512:4530  users[user].stakes */\n      0x01\n      add\n        /* \"contracts/3_Ballot.sol\":4505:4530  return users[user].stakes */\n      dup1\n      sload\n      dup3\n      mload\n      dup2\n      dup6\n      mul\n      dup2\n      add\n      dup6\n      add\n      swap1\n      swap4\n      mstore\n      dup1\n      dup4\n      mstore\n        /* \"contracts/3_Ballot.sol\":4479:4493  Stake[] memory */\n      0x60\n      swap5\n        /* \"contracts/3_Ballot.sol\":4505:4530  return users[user].stakes */\n      swap3\n      swap4\n        /* \"contracts/3_Ballot.sol\":4512:4530  users[user].stakes */\n      swap2\n      swap3\n        /* \"contracts/3_Ballot.sol\":4505:4530  return users[user].stakes */\n      swap1\n      swap2\n      dup5\n      add\n    tag_121:\n      dup3\n      dup3\n      lt\n      iszero\n      tag_122\n      jumpi\n      dup4\n      dup3\n      swap1\n      0x00\n      mstore\n      keccak256(0x00, 0x20)\n      swap1\n      0x03\n      mul\n      add\n      mload(0x40)\n      dup1\n      0x60\n      add\n      0x40\n      mstore\n      swap1\n      dup2\n      0x00\n      dup3\n      add\n      sload\n      dup2\n      mstore\n      0x20\n      add\n      0x01\n      dup3\n      add\n      sload\n      dup2\n      mstore\n      0x20\n      add\n      0x02\n      dup3\n      add\n      sload\n      dup2\n      mstore\n      pop\n      pop\n      dup2\n      mstore\n      0x20\n      add\n      swap1\n      0x01\n      add\n      swap1\n      jump(tag_121)\n    tag_122:\n      pop\n      pop\n      pop\n      pop\n      swap1\n      pop\n        /* \"contracts/3_Ballot.sol\":4419:4537  function getUserStakes(address user) external view returns (Stake[] memory) {... */\n      swap2\n      swap1\n      pop\n      jump\t// out\n        /* \"contracts/3_Ballot.sol\":993:1018  address[] public allUsers */\n    tag_60:\n      0x03\n      dup2\n      dup2\n      sload\n      dup2\n      lt\n      tag_125\n      jumpi\n      0x00\n      dup1\n      revert\n    tag_125:\n      0x00\n      swap2\n      dup3\n      mstore\n      0x20\n      swap1\n      swap2\n      keccak256\n      add\n      sload\n      sub(shl(0xa0, 0x01), 0x01)\n      and\n      swap1\n      pop\n      dup2\n      jump\t// out\n        /* \"contracts/3_Ballot.sol\":1128:1167  uint8[] public levelRewards = [5, 3, 2] */\n    tag_71:\n      0x07\n      dup2\n      dup2\n      sload\n      dup2\n      lt\n      tag_127\n      jumpi\n      0x00\n      dup1\n      revert\n    tag_127:\n      swap1\n      0x00\n      mstore\n      keccak256(0x00, 0x20)\n      swap1\n      0x20\n      swap2\n      dup3\n      dup3\n      div\n      add\n      swap2\n      swap1\n      mod\n      swap2\n      pop\n      sload\n      swap1\n      0x0100\n      exp\n      swap1\n      div\n      0xff\n      and\n      dup2\n      jump\t// out\n        /* \"contracts/3_Ballot.sol\":2301:4244  function getLevelIncomeDistribution(address _user) external view returns (LevelIncomeData[] memory) {... */\n    tag_77:\n        /* \"contracts/3_Ballot.sol\":2375:2399  LevelIncomeData[] memory */\n      0x60\n        /* \"contracts/3_Ballot.sol\":2411:2429  uint256 totalCount */\n      0x00\n      dup1\n        /* \"contracts/3_Ballot.sol\":2475:2953  for (uint256 i = 0; i < allUsers.length; i++) {... */\n    tag_130:\n        /* \"contracts/3_Ballot.sol\":2499:2507  allUsers */\n      0x03\n        /* \"contracts/3_Ballot.sol\":2499:2514  allUsers.length */\n      sload\n        /* \"contracts/3_Ballot.sol\":2495:2514  i < allUsers.length */\n      dup2\n      lt\n        /* \"contracts/3_Ballot.sol\":2475:2953  for (uint256 i = 0; i < allUsers.length; i++) {... */\n      iszero\n      tag_131\n      jumpi\n        /* \"contracts/3_Ballot.sol\":2535:2549  address staker */\n      0x00\n        /* \"contracts/3_Ballot.sol\":2552:2560  allUsers */\n      0x03\n        /* \"contracts/3_Ballot.sol\":2561:2562  i */\n      dup3\n        /* \"contracts/3_Ballot.sol\":2552:2563  allUsers[i] */\n      dup2\n      sload\n      dup2\n      lt\n      tag_134\n      jumpi\n      tag_134\n      tag_102\n      jump\t// in\n    tag_134:\n      0x00\n      swap2\n      dup3\n      mstore\n      0x20\n      dup1\n      dup4\n      keccak256\n      swap1\n      swap2\n      add\n      sload\n      sub(shl(0xa0, 0x01), 0x01)\n      and\n        /* \"contracts/3_Ballot.sol\":2601:2614  users[staker] */\n      dup1\n      dup4\n      mstore\n      dup3\n      dup3\n      mstore\n      0x40\n      dup1\n      dup5\n      keccak256\n        /* \"contracts/3_Ballot.sol\":2552:2563  allUsers[i] */\n      0x01\n        /* \"contracts/3_Ballot.sol\":2601:2621  users[staker].stakes */\n      add\n        /* \"contracts/3_Ballot.sol\":2577:2621  Stake[] memory stakes = users[staker].stakes */\n      dup1\n      sload\n      dup3\n      mload\n      dup2\n      dup7\n      mul\n      dup2\n      add\n      dup7\n      add\n      swap1\n      swap4\n      mstore\n      dup1\n      dup4\n      mstore\n        /* \"contracts/3_Ballot.sol\":2552:2563  allUsers[i] */\n      swap3\n      swap6\n      pop\n        /* \"contracts/3_Ballot.sol\":2577:2621  Stake[] memory stakes = users[staker].stakes */\n      swap1\n      swap3\n        /* \"contracts/3_Ballot.sol\":2601:2621  users[staker].stakes */\n      swap1\n      swap2\n        /* \"contracts/3_Ballot.sol\":2577:2621  Stake[] memory stakes = users[staker].stakes */\n      swap1\n        /* \"contracts/3_Ballot.sol\":2552:2563  allUsers[i] */\n      dup5\n      swap1\n        /* \"contracts/3_Ballot.sol\":2577:2621  Stake[] memory stakes = users[staker].stakes */\n      dup5\n      add\n    tag_136:\n      dup3\n      dup3\n      lt\n      iszero\n      tag_137\n      jumpi\n      dup4\n      dup3\n      swap1\n      0x00\n      mstore\n      keccak256(0x00, 0x20)\n      swap1\n      0x03\n      mul\n      add\n      mload(0x40)\n      dup1\n      0x60\n      add\n      0x40\n      mstore\n      swap1\n      dup2\n      0x00\n      dup3\n      add\n      sload\n      dup2\n      mstore\n      0x20\n      add\n      0x01\n      dup3\n      add\n      sload\n      dup2\n      mstore\n      0x20\n      add\n      0x02\n      dup3\n      add\n      sload\n      dup2\n      mstore\n      pop\n      pop\n      dup2\n      mstore\n      0x20\n      add\n      swap1\n      0x01\n      add\n      swap1\n      jump(tag_136)\n    tag_137:\n      pop\n      pop\n      pop\n      pop\n      sub(shl(0xa0, 0x01), 0x01)\n        /* \"contracts/3_Ballot.sol\":2652:2665  users[staker] */\n      dup4\n      dup2\n      and\n        /* \"contracts/3_Ballot.sol\":2635:2649  address upline */\n      0x00\n        /* \"contracts/3_Ballot.sol\":2652:2665  users[staker] */\n      swap1\n      dup2\n      mstore\n      0x20\n      dup2\n      swap1\n      mstore\n      0x40\n      dup2\n      keccak256\n        /* \"contracts/3_Ballot.sol\":2652:2674  users[staker].referrer */\n      sload\n        /* \"contracts/3_Ballot.sol\":2577:2621  Stake[] memory stakes = users[staker].stakes */\n      swap3\n      swap4\n      pop\n        /* \"contracts/3_Ballot.sol\":2652:2674  users[staker].referrer */\n      swap2\n      and\n      swap1\n        /* \"contracts/3_Ballot.sol\":2689:2943  for (uint8 level = 0; level < levelRewards.length && upline != address(0); level++) {... */\n    tag_139:\n        /* \"contracts/3_Ballot.sol\":2719:2731  levelRewards */\n      0x07\n        /* \"contracts/3_Ballot.sol\":2719:2738  levelRewards.length */\n      sload\n        /* \"contracts/3_Ballot.sol\":2711:2738  level < levelRewards.length */\n      0xff\n      dup3\n      and\n      lt\n        /* \"contracts/3_Ballot.sol\":2711:2762  level < levelRewards.length && upline != address(0) */\n      dup1\n      iszero\n      tag_142\n      jumpi\n      pop\n      sub(shl(0xa0, 0x01), 0x01)\n        /* \"contracts/3_Ballot.sol\":2742:2762  upline != address(0) */\n      dup3\n      and\n      iszero\n      iszero\n        /* \"contracts/3_Ballot.sol\":2711:2762  level < levelRewards.length && upline != address(0) */\n    tag_142:\n        /* \"contracts/3_Ballot.sol\":2689:2943  for (uint8 level = 0; level < levelRewards.length && upline != address(0); level++) {... */\n      iszero\n      tag_140\n      jumpi\n        /* \"contracts/3_Ballot.sol\":2805:2810  _user */\n      dup8\n      sub(shl(0xa0, 0x01), 0x01)\n        /* \"contracts/3_Ballot.sol\":2795:2810  upline == _user */\n      and\n        /* \"contracts/3_Ballot.sol\":2795:2801  upline */\n      dup3\n      sub(shl(0xa0, 0x01), 0x01)\n        /* \"contracts/3_Ballot.sol\":2795:2810  upline == _user */\n      and\n      sub\n        /* \"contracts/3_Ballot.sol\":2791:2880  if (upline == _user) {... */\n      tag_143\n      jumpi\n        /* \"contracts/3_Ballot.sol\":2848:2861  stakes.length */\n      dup3\n      mload\n        /* \"contracts/3_Ballot.sol\":2834:2861  totalCount += stakes.length */\n      tag_144\n      swap1\n      dup8\n      tag_145\n      jump\t// in\n    tag_144:\n      swap6\n      pop\n        /* \"contracts/3_Ballot.sol\":2791:2880  if (upline == _user) {... */\n    tag_143:\n      sub(shl(0xa0, 0x01), 0x01)\n        /* \"contracts/3_Ballot.sol\":2906:2919  users[upline] */\n      swap2\n      dup3\n      and\n        /* \"contracts/3_Ballot.sol\":2906:2911  users */\n      0x00\n        /* \"contracts/3_Ballot.sol\":2906:2919  users[upline] */\n      swap1\n      dup2\n      mstore\n      0x20\n      dup2\n      swap1\n      mstore\n      0x40\n      swap1\n      keccak256\n        /* \"contracts/3_Ballot.sol\":2906:2928  users[upline].referrer */\n      sload\n      swap1\n      swap2\n      and\n      swap1\n        /* \"contracts/3_Ballot.sol\":2764:2771  level++ */\n      dup1\n      tag_146\n      dup2\n      tag_111\n      jump\t// in\n    tag_146:\n      swap2\n      pop\n      pop\n        /* \"contracts/3_Ballot.sol\":2689:2943  for (uint8 level = 0; level < levelRewards.length && upline != address(0); level++) {... */\n      jump(tag_139)\n    tag_140:\n      pop\n      pop\n        /* \"contracts/3_Ballot.sol\":2516:2519  i++ */\n      0x01\n      swap1\n      swap3\n      add\n      swap2\n      pop\n        /* \"contracts/3_Ballot.sol\":2475:2953  for (uint256 i = 0; i < allUsers.length; i++) {... */\n      tag_130\n      swap1\n      pop\n      jump\n    tag_131:\n      pop\n        /* \"contracts/3_Ballot.sol\":2963:2998  LevelIncomeData[] memory incomeData */\n      0x00\n        /* \"contracts/3_Ballot.sol\":3023:3033  totalCount */\n      dup2\n        /* \"contracts/3_Ballot.sol\":3001:3034  new LevelIncomeData[](totalCount) */\n      0xffffffffffffffff\n      dup2\n      gt\n      iszero\n      tag_148\n      jumpi\n      tag_148\n      tag_149\n      jump\t// in\n    tag_148:\n      mload(0x40)\n      swap1\n      dup1\n      dup3\n      mstore\n      dup1\n      0x20\n      mul\n      0x20\n      add\n      dup3\n      add\n      0x40\n      mstore\n      dup1\n      iszero\n      tag_150\n      jumpi\n      dup2\n      0x20\n      add\n    tag_151:\n      tag_152\n      mload(0x40)\n      dup1\n      0xe0\n      add\n      0x40\n      mstore\n      dup1\n      and(sub(shl(0xa0, 0x01), 0x01), 0x00)\n      dup2\n      mstore\n      0x20\n      add\n      0x00\n      dup2\n      mstore\n      0x20\n      add\n      0x00\n      dup2\n      mstore\n      0x20\n      add\n      0x00\n      dup2\n      mstore\n      0x20\n      add\n      and(sub(shl(0xa0, 0x01), 0x01), 0x00)\n      dup2\n      mstore\n      0x20\n      add\n      0x00\n      dup2\n      mstore\n      0x20\n      add\n      and(0xff, 0x00)\n      dup2\n      mstore\n      pop\n      swap1\n      jump\n    tag_152:\n      dup2\n      mstore\n      0x20\n      add\n      swap1\n      0x01\n      swap1\n      sub\n      swap1\n      dup2\n      tag_151\n      jumpi\n      swap1\n      pop\n    tag_150:\n      pop\n        /* \"contracts/3_Ballot.sol\":2963:3034  LevelIncomeData[] memory incomeData = new LevelIncomeData[](totalCount) */\n      swap1\n      pop\n        /* \"contracts/3_Ballot.sol\":3044:3057  uint256 index */\n      0x00\n      dup1\n        /* \"contracts/3_Ballot.sol\":3096:4210  for (uint256 i = 0; i < allUsers.length; i++) {... */\n    tag_154:\n        /* \"contracts/3_Ballot.sol\":3120:3128  allUsers */\n      0x03\n        /* \"contracts/3_Ballot.sol\":3120:3135  allUsers.length */\n      sload\n        /* \"contracts/3_Ballot.sol\":3116:3135  i < allUsers.length */\n      dup2\n      lt\n        /* \"contracts/3_Ballot.sol\":3096:4210  for (uint256 i = 0; i < allUsers.length; i++) {... */\n      iszero\n      tag_155\n      jumpi\n        /* \"contracts/3_Ballot.sol\":3156:3170  address staker */\n      0x00\n        /* \"contracts/3_Ballot.sol\":3173:3181  allUsers */\n      0x03\n        /* \"contracts/3_Ballot.sol\":3182:3183  i */\n      dup3\n        /* \"contracts/3_Ballot.sol\":3173:3184  allUsers[i] */\n      dup2\n      sload\n      dup2\n      lt\n      tag_158\n      jumpi\n      tag_158\n      tag_102\n      jump\t// in\n    tag_158:\n      0x00\n      swap2\n      dup3\n      mstore\n      0x20\n      dup1\n      dup4\n      keccak256\n      swap1\n      swap2\n      add\n      sload\n      sub(shl(0xa0, 0x01), 0x01)\n      and\n        /* \"contracts/3_Ballot.sol\":3222:3235  users[staker] */\n      dup1\n      dup4\n      mstore\n      dup3\n      dup3\n      mstore\n      0x40\n      dup1\n      dup5\n      keccak256\n        /* \"contracts/3_Ballot.sol\":3173:3184  allUsers[i] */\n      0x01\n        /* \"contracts/3_Ballot.sol\":3222:3242  users[staker].stakes */\n      add\n        /* \"contracts/3_Ballot.sol\":3198:3242  Stake[] memory stakes = users[staker].stakes */\n      dup1\n      sload\n      dup3\n      mload\n      dup2\n      dup7\n      mul\n      dup2\n      add\n      dup7\n      add\n      swap1\n      swap4\n      mstore\n      dup1\n      dup4\n      mstore\n        /* \"contracts/3_Ballot.sol\":3173:3184  allUsers[i] */\n      swap3\n      swap6\n      pop\n        /* \"contracts/3_Ballot.sol\":3198:3242  Stake[] memory stakes = users[staker].stakes */\n      swap1\n      swap3\n        /* \"contracts/3_Ballot.sol\":3222:3242  users[staker].stakes */\n      swap1\n      swap2\n        /* \"contracts/3_Ballot.sol\":3198:3242  Stake[] memory stakes = users[staker].stakes */\n      swap1\n        /* \"contracts/3_Ballot.sol\":3173:3184  allUsers[i] */\n      dup5\n      swap1\n        /* \"contracts/3_Ballot.sol\":3198:3242  Stake[] memory stakes = users[staker].stakes */\n      dup5\n      add\n    tag_160:\n      dup3\n      dup3\n      lt\n      iszero\n      tag_161\n      jumpi\n      dup4\n      dup3\n      swap1\n      0x00\n      mstore\n      keccak256(0x00, 0x20)\n      swap1\n      0x03\n      mul\n      add\n      mload(0x40)\n      dup1\n      0x60\n      add\n      0x40\n      mstore\n      swap1\n      dup2\n      0x00\n      dup3\n      add\n      sload\n      dup2\n      mstore\n      0x20\n      add\n      0x01\n      dup3\n      add\n      sload\n      dup2\n      mstore\n      0x20\n      add\n      0x02\n      dup3\n      add\n      sload\n      dup2\n      mstore\n      pop\n      pop\n      dup2\n      mstore\n      0x20\n      add\n      swap1\n      0x01\n      add\n      swap1\n      jump(tag_160)\n    tag_161:\n      pop\n      pop\n      pop\n      pop\n      sub(shl(0xa0, 0x01), 0x01)\n        /* \"contracts/3_Ballot.sol\":3273:3286  users[staker] */\n      dup4\n      dup2\n      and\n        /* \"contracts/3_Ballot.sol\":3256:3270  address upline */\n      0x00\n        /* \"contracts/3_Ballot.sol\":3273:3286  users[staker] */\n      swap1\n      dup2\n      mstore\n      0x20\n      dup2\n      swap1\n      mstore\n      0x40\n      dup2\n      keccak256\n        /* \"contracts/3_Ballot.sol\":3273:3295  users[staker].referrer */\n      sload\n        /* \"contracts/3_Ballot.sol\":3198:3242  Stake[] memory stakes = users[staker].stakes */\n      swap3\n      swap4\n      pop\n        /* \"contracts/3_Ballot.sol\":3273:3295  users[staker].referrer */\n      swap2\n      and\n      swap1\n        /* \"contracts/3_Ballot.sol\":3310:4200  for (uint8 level = 0; level < levelRewards.length && upline != address(0); level++) {... */\n    tag_163:\n        /* \"contracts/3_Ballot.sol\":3340:3352  levelRewards */\n      0x07\n        /* \"contracts/3_Ballot.sol\":3340:3359  levelRewards.length */\n      sload\n        /* \"contracts/3_Ballot.sol\":3332:3359  level < levelRewards.length */\n      0xff\n      dup3\n      and\n      lt\n        /* \"contracts/3_Ballot.sol\":3332:3383  level < levelRewards.length && upline != address(0) */\n      dup1\n      iszero\n      tag_166\n      jumpi\n      pop\n      sub(shl(0xa0, 0x01), 0x01)\n        /* \"contracts/3_Ballot.sol\":3363:3383  upline != address(0) */\n      dup3\n      and\n      iszero\n      iszero\n        /* \"contracts/3_Ballot.sol\":3332:3383  level < levelRewards.length && upline != address(0) */\n    tag_166:\n        /* \"contracts/3_Ballot.sol\":3310:4200  for (uint8 level = 0; level < levelRewards.length && upline != address(0); level++) {... */\n      iszero\n      tag_164\n      jumpi\n        /* \"contracts/3_Ballot.sol\":3426:3431  _user */\n      dup10\n      sub(shl(0xa0, 0x01), 0x01)\n        /* \"contracts/3_Ballot.sol\":3416:3431  upline == _user */\n      and\n        /* \"contracts/3_Ballot.sol\":3416:3422  upline */\n      dup3\n      sub(shl(0xa0, 0x01), 0x01)\n        /* \"contracts/3_Ballot.sol\":3416:3431  upline == _user */\n      and\n      sub\n        /* \"contracts/3_Ballot.sol\":3412:4137  if (upline == _user) {... */\n      tag_167\n      jumpi\n        /* \"contracts/3_Ballot.sol\":3460:3469  uint256 j */\n      0x00\n        /* \"contracts/3_Ballot.sol\":3455:4119  for (uint256 j = 0; j < stakes.length; j++) {... */\n    tag_168:\n        /* \"contracts/3_Ballot.sol\":3479:3485  stakes */\n      dup4\n        /* \"contracts/3_Ballot.sol\":3479:3492  stakes.length */\n      mload\n        /* \"contracts/3_Ballot.sol\":3475:3476  j */\n      dup2\n        /* \"contracts/3_Ballot.sol\":3475:3492  j < stakes.length */\n      lt\n        /* \"contracts/3_Ballot.sol\":3455:4119  for (uint256 j = 0; j < stakes.length; j++) {... */\n      iszero\n      tag_169\n      jumpi\n        /* \"contracts/3_Ballot.sol\":3525:3543  Stake memory stake */\n      0x00\n        /* \"contracts/3_Ballot.sol\":3546:3552  stakes */\n      dup5\n        /* \"contracts/3_Ballot.sol\":3553:3554  j */\n      dup3\n        /* \"contracts/3_Ballot.sol\":3546:3555  stakes[j] */\n      dup2\n      mload\n      dup2\n      lt\n      tag_172\n      jumpi\n      tag_172\n      tag_102\n      jump\t// in\n    tag_172:\n      0x20\n      mul\n      0x20\n      add\n      add\n      mload\n        /* \"contracts/3_Ballot.sol\":3525:3555  Stake memory stake = stakes[j] */\n      swap1\n      pop\n        /* \"contracts/3_Ballot.sol\":3581:3595  uint256 income */\n      0x00\n        /* \"contracts/3_Ballot.sol\":3637:3640  100 */\n      0x64\n        /* \"contracts/3_Ballot.sol\":3614:3626  levelRewards */\n      0x07\n        /* \"contracts/3_Ballot.sol\":3627:3632  level */\n      dup6\n        /* \"contracts/3_Ballot.sol\":3614:3633  levelRewards[level] */\n      0xff\n      and\n      dup2\n      sload\n      dup2\n      lt\n      tag_174\n      jumpi\n      tag_174\n      tag_102\n      jump\t// in\n    tag_174:\n      swap1\n      0x00\n      mstore\n      keccak256(0x00, 0x20)\n      swap1\n      0x20\n      swap2\n      dup3\n      dup3\n      div\n      add\n      swap2\n      swap1\n      mod\n      swap1\n      sload\n      swap1\n      0x0100\n      exp\n      swap1\n      div\n      0xff\n      and\n        /* \"contracts/3_Ballot.sol\":3599:3633  stake.amount * levelRewards[level] */\n      0xff\n      and\n        /* \"contracts/3_Ballot.sol\":3599:3604  stake */\n      dup4\n        /* \"contracts/3_Ballot.sol\":3599:3611  stake.amount */\n      0x20\n      add\n      mload\n        /* \"contracts/3_Ballot.sol\":3599:3633  stake.amount * levelRewards[level] */\n      tag_176\n      swap2\n      swap1\n      tag_105\n      jump\t// in\n    tag_176:\n        /* \"contracts/3_Ballot.sol\":3598:3640  (stake.amount * levelRewards[level]) / 100 */\n      tag_177\n      swap2\n      swap1\n      tag_107\n      jump\t// in\n    tag_177:\n        /* \"contracts/3_Ballot.sol\":3581:3640  uint256 income = (stake.amount * levelRewards[level]) / 100 */\n      swap1\n      pop\n        /* \"contracts/3_Ballot.sol\":3689:4096  LevelIncomeData({... */\n      mload(0x40)\n      dup1\n      0xe0\n      add\n      0x40\n      mstore\n      dup1\n        /* \"contracts/3_Ballot.sol\":3752:3757  _user */\n      dup15\n      sub(shl(0xa0, 0x01), 0x01)\n        /* \"contracts/3_Ballot.sol\":3689:4096  LevelIncomeData({... */\n      and\n      dup2\n      mstore\n      0x20\n      add\n        /* \"contracts/3_Ballot.sol\":3796:3801  stake */\n      dup4\n        /* \"contracts/3_Ballot.sol\":3796:3809  stake.stakeId */\n      0x00\n      add\n      mload\n        /* \"contracts/3_Ballot.sol\":3689:4096  LevelIncomeData({... */\n      dup2\n      mstore\n      0x20\n      add\n        /* \"contracts/3_Ballot.sol\":3852:3857  stake */\n      dup4\n        /* \"contracts/3_Ballot.sol\":3852:3864  stake.amount */\n      0x20\n      add\n      mload\n        /* \"contracts/3_Ballot.sol\":3689:4096  LevelIncomeData({... */\n      dup2\n      mstore\n      0x20\n      add\n        /* \"contracts/3_Ballot.sol\":3910:3916  income */\n      dup3\n        /* \"contracts/3_Ballot.sol\":3689:4096  LevelIncomeData({... */\n      dup2\n      mstore\n      0x20\n      add\n        /* \"contracts/3_Ballot.sol\":3961:3967  staker */\n      dup9\n      sub(shl(0xa0, 0x01), 0x01)\n        /* \"contracts/3_Ballot.sol\":3689:4096  LevelIncomeData({... */\n      and\n      dup2\n      mstore\n      0x20\n      add\n        /* \"contracts/3_Ballot.sol\":4008:4013  stake */\n      dup4\n        /* \"contracts/3_Ballot.sol\":4008:4023  stake.timestamp */\n      0x40\n      add\n      mload\n        /* \"contracts/3_Ballot.sol\":3689:4096  LevelIncomeData({... */\n      dup2\n      mstore\n      0x20\n      add\n        /* \"contracts/3_Ballot.sol\":4060:4065  level */\n      dup6\n        /* \"contracts/3_Ballot.sol\":4068:4069  1 */\n      0x01\n        /* \"contracts/3_Ballot.sol\":4060:4069  level + 1 */\n      tag_178\n      swap2\n      swap1\n      tag_179\n      jump\t// in\n    tag_178:\n        /* \"contracts/3_Ballot.sol\":3689:4096  LevelIncomeData({... */\n      0xff\n      and\n      swap1\n      mstore\n        /* \"contracts/3_Ballot.sol\":3667:3677  incomeData */\n      dup11\n        /* \"contracts/3_Ballot.sol\":3678:3685  index++ */\n      dup11\n      tag_180\n      dup2\n      tag_94\n      jump\t// in\n    tag_180:\n      swap12\n      pop\n        /* \"contracts/3_Ballot.sol\":3667:3686  incomeData[index++] */\n      dup2\n      mload\n      dup2\n      lt\n      tag_182\n      jumpi\n      tag_182\n      tag_102\n      jump\t// in\n    tag_182:\n      0x20\n      swap1\n      dup2\n      mul\n      swap2\n      swap1\n      swap2\n      add\n      add\n        /* \"contracts/3_Ballot.sol\":3667:4096  incomeData[index++] = LevelIncomeData({... */\n      mstore\n      pop\n      pop\n        /* \"contracts/3_Ballot.sol\":3494:3497  j++ */\n      0x01\n      add\n        /* \"contracts/3_Ballot.sol\":3455:4119  for (uint256 j = 0; j < stakes.length; j++) {... */\n      jump(tag_168)\n    tag_169:\n      pop\n        /* \"contracts/3_Ballot.sol\":3412:4137  if (upline == _user) {... */\n    tag_167:\n      sub(shl(0xa0, 0x01), 0x01)\n        /* \"contracts/3_Ballot.sol\":4163:4176  users[upline] */\n      swap2\n      dup3\n      and\n        /* \"contracts/3_Ballot.sol\":4163:4168  users */\n      0x00\n        /* \"contracts/3_Ballot.sol\":4163:4176  users[upline] */\n      swap1\n      dup2\n      mstore\n      0x20\n      dup2\n      swap1\n      mstore\n      0x40\n      swap1\n      keccak256\n        /* \"contracts/3_Ballot.sol\":4163:4185  users[upline].referrer */\n      sload\n      swap1\n      swap2\n      and\n      swap1\n        /* \"contracts/3_Ballot.sol\":3385:3392  level++ */\n      dup1\n      tag_183\n      dup2\n      tag_111\n      jump\t// in\n    tag_183:\n      swap2\n      pop\n      pop\n        /* \"contracts/3_Ballot.sol\":3310:4200  for (uint8 level = 0; level < levelRewards.length && upline != address(0); level++) {... */\n      jump(tag_163)\n    tag_164:\n      pop\n      pop\n        /* \"contracts/3_Ballot.sol\":3137:3140  i++ */\n      0x01\n      swap1\n      swap3\n      add\n      swap2\n      pop\n        /* \"contracts/3_Ballot.sol\":3096:4210  for (uint256 i = 0; i < allUsers.length; i++) {... */\n      tag_154\n      swap1\n      pop\n      jump\n    tag_155:\n      pop\n        /* \"contracts/3_Ballot.sol\":4227:4237  incomeData */\n      swap1\n      swap5\n        /* \"contracts/3_Ballot.sol\":2301:4244  function getLevelIncomeDistribution(address _user) external view returns (LevelIncomeData[] memory) {... */\n      swap4\n      pop\n      pop\n      pop\n      pop\n      jump\t// out\n        /* \"#utility.yul\":14:187   */\n    tag_184:\n        /* \"#utility.yul\":82:102   */\n      dup1\n      calldataload\n      sub(shl(0xa0, 0x01), 0x01)\n        /* \"#utility.yul\":131:162   */\n      dup2\n      and\n        /* \"#utility.yul\":121:163   */\n      dup2\n      eq\n        /* \"#utility.yul\":111:181   */\n      tag_188\n      jumpi\n        /* \"#utility.yul\":177:178   */\n      0x00\n        /* \"#utility.yul\":174:175   */\n      0x00\n        /* \"#utility.yul\":167:179   */\n      revert\n        /* \"#utility.yul\":111:181   */\n    tag_188:\n        /* \"#utility.yul\":14:187   */\n      swap2\n      swap1\n      pop\n      jump\t// out\n        /* \"#utility.yul\":192:492   */\n    tag_20:\n        /* \"#utility.yul\":260:266   */\n      0x00\n        /* \"#utility.yul\":268:274   */\n      0x00\n        /* \"#utility.yul\":321:323   */\n      0x40\n        /* \"#utility.yul\":309:318   */\n      dup4\n        /* \"#utility.yul\":300:307   */\n      dup6\n        /* \"#utility.yul\":296:319   */\n      sub\n        /* \"#utility.yul\":292:324   */\n      slt\n        /* \"#utility.yul\":289:341   */\n      iszero\n      tag_190\n      jumpi\n        /* \"#utility.yul\":337:338   */\n      0x00\n        /* \"#utility.yul\":334:335   */\n      0x00\n        /* \"#utility.yul\":327:339   */\n      revert\n        /* \"#utility.yul\":289:341   */\n    tag_190:\n        /* \"#utility.yul\":360:389   */\n      tag_191\n        /* \"#utility.yul\":379:388   */\n      dup4\n        /* \"#utility.yul\":360:389   */\n      tag_184\n      jump\t// in\n    tag_191:\n        /* \"#utility.yul\":350:389   */\n      swap5\n        /* \"#utility.yul\":458:460   */\n      0x20\n        /* \"#utility.yul\":443:461   */\n      swap4\n      swap1\n      swap4\n      add\n        /* \"#utility.yul\":430:462   */\n      calldataload\n      swap4\n      pop\n      pop\n      pop\n        /* \"#utility.yul\":192:492   */\n      jump\t// out\n        /* \"#utility.yul\":847:1073   */\n    tag_27:\n        /* \"#utility.yul\":906:912   */\n      0x00\n        /* \"#utility.yul\":959:961   */\n      0x20\n        /* \"#utility.yul\":947:956   */\n      dup3\n        /* \"#utility.yul\":938:945   */\n      dup5\n        /* \"#utility.yul\":934:957   */\n      sub\n        /* \"#utility.yul\":930:962   */\n      slt\n        /* \"#utility.yul\":927:979   */\n      iszero\n      tag_194\n      jumpi\n        /* \"#utility.yul\":975:976   */\n      0x00\n        /* \"#utility.yul\":972:973   */\n      0x00\n        /* \"#utility.yul\":965:977   */\n      revert\n        /* \"#utility.yul\":927:979   */\n    tag_194:\n      pop\n        /* \"#utility.yul\":1020:1043   */\n      calldataload\n      swap2\n        /* \"#utility.yul\":847:1073   */\n      swap1\n      pop\n      jump\t// out\n        /* \"#utility.yul\":1286:1472   */\n    tag_36:\n        /* \"#utility.yul\":1345:1351   */\n      0x00\n        /* \"#utility.yul\":1398:1400   */\n      0x20\n        /* \"#utility.yul\":1386:1395   */\n      dup3\n        /* \"#utility.yul\":1377:1384   */\n      dup5\n        /* \"#utility.yul\":1373:1396   */\n      sub\n        /* \"#utility.yul\":1369:1401   */\n      slt\n        /* \"#utility.yul\":1366:1418   */\n      iszero\n      tag_197\n      jumpi\n        /* \"#utility.yul\":1414:1415   */\n      0x00\n        /* \"#utility.yul\":1411:1412   */\n      0x00\n        /* \"#utility.yul\":1404:1416   */\n      revert\n        /* \"#utility.yul\":1366:1418   */\n    tag_197:\n        /* \"#utility.yul\":1437:1466   */\n      tag_198\n        /* \"#utility.yul\":1456:1465   */\n      dup3\n        /* \"#utility.yul\":1437:1466   */\n      tag_184\n      jump\t// in\n    tag_198:\n        /* \"#utility.yul\":1427:1466   */\n      swap4\n        /* \"#utility.yul\":1286:1472   */\n      swap3\n      pop\n      pop\n      pop\n      jump\t// out\n        /* \"#utility.yul\":1659:2450   */\n    tag_48:\n        /* \"#utility.yul\":1889:1891   */\n      0x20\n        /* \"#utility.yul\":1901:1922   */\n      dup1\n      dup3\n      mstore\n        /* \"#utility.yul\":1971:1984   */\n      dup3\n      mload\n        /* \"#utility.yul\":1874:1892   */\n      dup3\n      dup3\n      add\n        /* \"#utility.yul\":1993:2015   */\n      dup2\n      swap1\n      mstore\n        /* \"#utility.yul\":1841:1845   */\n      0x00\n      swap2\n        /* \"#utility.yul\":2072:2087   */\n      dup5\n      add\n      swap1\n        /* \"#utility.yul\":2046:2048   */\n      0x40\n        /* \"#utility.yul\":2031:2049   */\n      dup5\n      add\n      swap1\n        /* \"#utility.yul\":1841:1845   */\n      dup4\n        /* \"#utility.yul\":2115:2424   */\n    tag_201:\n        /* \"#utility.yul\":2129:2135   */\n      dup2\n        /* \"#utility.yul\":2126:2127   */\n      dup2\n        /* \"#utility.yul\":2123:2136   */\n      lt\n        /* \"#utility.yul\":2115:2424   */\n      iszero\n      tag_203\n      jumpi\n        /* \"#utility.yul\":2194:2200   */\n      dup4\n        /* \"#utility.yul\":2188:2201   */\n      mload\n        /* \"#utility.yul\":2232:2234   */\n      dup1\n        /* \"#utility.yul\":2226:2235   */\n      mload\n        /* \"#utility.yul\":2221:2224   */\n      dup5\n        /* \"#utility.yul\":2214:2236   */\n      mstore\n        /* \"#utility.yul\":2284:2286   */\n      0x20\n        /* \"#utility.yul\":2280:2282   */\n      dup2\n        /* \"#utility.yul\":2276:2287   */\n      add\n        /* \"#utility.yul\":2270:2288   */\n      mload\n        /* \"#utility.yul\":2265:2267   */\n      0x20\n        /* \"#utility.yul\":2260:2263   */\n      dup6\n        /* \"#utility.yul\":2256:2268   */\n      add\n        /* \"#utility.yul\":2249:2289   */\n      mstore\n        /* \"#utility.yul\":2337:2339   */\n      0x40\n        /* \"#utility.yul\":2333:2335   */\n      dup2\n        /* \"#utility.yul\":2329:2340   */\n      add\n        /* \"#utility.yul\":2323:2341   */\n      mload\n        /* \"#utility.yul\":2318:2320   */\n      0x40\n        /* \"#utility.yul\":2313:2316   */\n      dup6\n        /* \"#utility.yul\":2309:2321   */\n      add\n        /* \"#utility.yul\":2302:2342   */\n      mstore\n      pop\n        /* \"#utility.yul\":2371:2375   */\n      0x60\n        /* \"#utility.yul\":2366:2369   */\n      dup4\n        /* \"#utility.yul\":2362:2376   */\n      add\n        /* \"#utility.yul\":2355:2376   */\n      swap3\n      pop\n        /* \"#utility.yul\":2411:2413   */\n      0x20\n        /* \"#utility.yul\":2403:2409   */\n      dup5\n        /* \"#utility.yul\":2399:2414   */\n      add\n        /* \"#utility.yul\":2389:2414   */\n      swap4\n      pop\n        /* \"#utility.yul\":2151:2152   */\n      0x01\n        /* \"#utility.yul\":2148:2149   */\n      dup2\n        /* \"#utility.yul\":2144:2153   */\n      add\n        /* \"#utility.yul\":2139:2153   */\n      swap1\n      pop\n        /* \"#utility.yul\":2115:2424   */\n      jump(tag_201)\n    tag_203:\n      pop\n        /* \"#utility.yul\":2441:2444   */\n      swap1\n      swap6\n        /* \"#utility.yul\":1659:2450   */\n      swap5\n      pop\n      pop\n      pop\n      pop\n      pop\n      jump\t// out\n        /* \"#utility.yul\":3148:4252   */\n    tag_79:\n        /* \"#utility.yul\":3400:3402   */\n      0x20\n        /* \"#utility.yul\":3412:3433   */\n      dup1\n      dup3\n      mstore\n        /* \"#utility.yul\":3482:3495   */\n      dup3\n      mload\n        /* \"#utility.yul\":3385:3403   */\n      dup3\n      dup3\n      add\n        /* \"#utility.yul\":3504:3526   */\n      dup2\n      swap1\n      mstore\n        /* \"#utility.yul\":3352:3356   */\n      0x00\n      swap2\n        /* \"#utility.yul\":3583:3598   */\n      dup5\n      add\n      swap1\n        /* \"#utility.yul\":3557:3559   */\n      0x40\n        /* \"#utility.yul\":3542:3560   */\n      dup5\n      add\n      swap1\n        /* \"#utility.yul\":3352:3356   */\n      dup4\n        /* \"#utility.yul\":3626:4226   */\n    tag_207:\n        /* \"#utility.yul\":3640:3646   */\n      dup2\n        /* \"#utility.yul\":3637:3638   */\n      dup2\n        /* \"#utility.yul\":3634:3647   */\n      lt\n        /* \"#utility.yul\":3626:4226   */\n      iszero\n      tag_203\n      jumpi\n        /* \"#utility.yul\":3705:3711   */\n      dup4\n        /* \"#utility.yul\":3699:3712   */\n      mload\n        /* \"#utility.yul\":3769:3770   */\n      0x01\n        /* \"#utility.yul\":3765:3766   */\n      dup1\n        /* \"#utility.yul\":3760:3763   */\n      0xa0\n        /* \"#utility.yul\":3756:3767   */\n      shl\n        /* \"#utility.yul\":3752:3771   */\n      sub\n        /* \"#utility.yul\":3747:3749   */\n      dup2\n        /* \"#utility.yul\":3741:3750   */\n      mload\n        /* \"#utility.yul\":3737:3772   */\n      and\n        /* \"#utility.yul\":3732:3735   */\n      dup5\n        /* \"#utility.yul\":3725:3773   */\n      mstore\n        /* \"#utility.yul\":3821:3823   */\n      0x20\n        /* \"#utility.yul\":3817:3819   */\n      dup2\n        /* \"#utility.yul\":3813:3824   */\n      add\n        /* \"#utility.yul\":3807:3825   */\n      mload\n        /* \"#utility.yul\":3802:3804   */\n      0x20\n        /* \"#utility.yul\":3797:3800   */\n      dup6\n        /* \"#utility.yul\":3793:3805   */\n      add\n        /* \"#utility.yul\":3786:3826   */\n      mstore\n        /* \"#utility.yul\":3874:3876   */\n      0x40\n        /* \"#utility.yul\":3870:3872   */\n      dup2\n        /* \"#utility.yul\":3866:3877   */\n      add\n        /* \"#utility.yul\":3860:3878   */\n      mload\n        /* \"#utility.yul\":3855:3857   */\n      0x40\n        /* \"#utility.yul\":3850:3853   */\n      dup6\n        /* \"#utility.yul\":3846:3858   */\n      add\n        /* \"#utility.yul\":3839:3879   */\n      mstore\n        /* \"#utility.yul\":3929:3933   */\n      0x60\n        /* \"#utility.yul\":3925:3927   */\n      dup2\n        /* \"#utility.yul\":3921:3934   */\n      add\n        /* \"#utility.yul\":3915:3935   */\n      mload\n        /* \"#utility.yul\":3908:3912   */\n      0x60\n        /* \"#utility.yul\":3903:3906   */\n      dup6\n        /* \"#utility.yul\":3899:3913   */\n      add\n        /* \"#utility.yul\":3892:3936   */\n      mstore\n        /* \"#utility.yul\":4015:4016   */\n      0x01\n        /* \"#utility.yul\":4011:4012   */\n      dup1\n        /* \"#utility.yul\":4006:4009   */\n      0xa0\n        /* \"#utility.yul\":4002:4013   */\n      shl\n        /* \"#utility.yul\":3998:4017   */\n      sub\n        /* \"#utility.yul\":3990:3994   */\n      0x80\n        /* \"#utility.yul\":3986:3988   */\n      dup3\n        /* \"#utility.yul\":3982:3995   */\n      add\n        /* \"#utility.yul\":3976:3996   */\n      mload\n        /* \"#utility.yul\":3972:4018   */\n      and\n        /* \"#utility.yul\":3965:3969   */\n      0x80\n        /* \"#utility.yul\":3960:3963   */\n      dup6\n        /* \"#utility.yul\":3956:3970   */\n      add\n        /* \"#utility.yul\":3949:4019   */\n      mstore\n        /* \"#utility.yul\":4069:4073   */\n      0xa0\n        /* \"#utility.yul\":4065:4067   */\n      dup2\n        /* \"#utility.yul\":4061:4074   */\n      add\n        /* \"#utility.yul\":4055:4075   */\n      mload\n        /* \"#utility.yul\":4048:4052   */\n      0xa0\n        /* \"#utility.yul\":4043:4046   */\n      dup6\n        /* \"#utility.yul\":4039:4053   */\n      add\n        /* \"#utility.yul\":4032:4076   */\n      mstore\n        /* \"#utility.yul\":4138:4142   */\n      0xff\n        /* \"#utility.yul\":4130:4134   */\n      0xc0\n        /* \"#utility.yul\":4126:4128   */\n      dup3\n        /* \"#utility.yul\":4122:4135   */\n      add\n        /* \"#utility.yul\":4116:4136   */\n      mload\n        /* \"#utility.yul\":4112:4143   */\n      and\n        /* \"#utility.yul\":4105:4109   */\n      0xc0\n        /* \"#utility.yul\":4100:4103   */\n      dup6\n        /* \"#utility.yul\":4096:4110   */\n      add\n        /* \"#utility.yul\":4089:4144   */\n      mstore\n      pop\n        /* \"#utility.yul\":4173:4177   */\n      0xe0\n        /* \"#utility.yul\":4168:4171   */\n      dup4\n        /* \"#utility.yul\":4164:4178   */\n      add\n        /* \"#utility.yul\":4157:4178   */\n      swap3\n      pop\n        /* \"#utility.yul\":4213:4215   */\n      0x20\n        /* \"#utility.yul\":4205:4211   */\n      dup5\n        /* \"#utility.yul\":4201:4216   */\n      add\n        /* \"#utility.yul\":4191:4216   */\n      swap4\n      pop\n        /* \"#utility.yul\":3662:3663   */\n      0x01\n        /* \"#utility.yul\":3659:3660   */\n      dup2\n        /* \"#utility.yul\":3655:3664   */\n      add\n        /* \"#utility.yul\":3650:3664   */\n      swap1\n      pop\n        /* \"#utility.yul\":3626:4226   */\n      jump(tag_207)\n        /* \"#utility.yul\":4950:5077   */\n    tag_185:\n        /* \"#utility.yul\":5011:5021   */\n      0x4e487b71\n        /* \"#utility.yul\":5006:5009   */\n      0xe0\n        /* \"#utility.yul\":5002:5022   */\n      shl\n        /* \"#utility.yul\":4999:5000   */\n      0x00\n        /* \"#utility.yul\":4992:5023   */\n      mstore\n        /* \"#utility.yul\":5042:5046   */\n      0x11\n        /* \"#utility.yul\":5039:5040   */\n      0x04\n        /* \"#utility.yul\":5032:5047   */\n      mstore\n        /* \"#utility.yul\":5066:5070   */\n      0x24\n        /* \"#utility.yul\":5063:5064   */\n      0x00\n        /* \"#utility.yul\":5056:5071   */\n      revert\n        /* \"#utility.yul\":5082:5217   */\n    tag_94:\n        /* \"#utility.yul\":5121:5124   */\n      0x00\n        /* \"#utility.yul\":5142:5159   */\n      0x01\n      dup3\n      add\n        /* \"#utility.yul\":5139:5182   */\n      tag_215\n      jumpi\n        /* \"#utility.yul\":5162:5180   */\n      tag_215\n      tag_185\n      jump\t// in\n    tag_215:\n      pop\n        /* \"#utility.yul\":5209:5210   */\n      0x01\n        /* \"#utility.yul\":5198:5211   */\n      add\n      swap1\n        /* \"#utility.yul\":5082:5217   */\n      jump\t// out\n        /* \"#utility.yul\":5222:5349   */\n    tag_102:\n        /* \"#utility.yul\":5283:5293   */\n      0x4e487b71\n        /* \"#utility.yul\":5278:5281   */\n      0xe0\n        /* \"#utility.yul\":5274:5294   */\n      shl\n        /* \"#utility.yul\":5271:5272   */\n      0x00\n        /* \"#utility.yul\":5264:5295   */\n      mstore\n        /* \"#utility.yul\":5314:5318   */\n      0x32\n        /* \"#utility.yul\":5311:5312   */\n      0x04\n        /* \"#utility.yul\":5304:5319   */\n      mstore\n        /* \"#utility.yul\":5338:5342   */\n      0x24\n        /* \"#utility.yul\":5335:5336   */\n      0x00\n        /* \"#utility.yul\":5328:5343   */\n      revert\n        /* \"#utility.yul\":5354:5522   */\n    tag_105:\n        /* \"#utility.yul\":5427:5436   */\n      dup1\n      dup3\n      mul\n        /* \"#utility.yul\":5458:5467   */\n      dup2\n      iszero\n        /* \"#utility.yul\":5475:5490   */\n      dup3\n      dup3\n      div\n        /* \"#utility.yul\":5469:5491   */\n      dup5\n      eq\n        /* \"#utility.yul\":5455:5492   */\n      or\n        /* \"#utility.yul\":5445:5516   */\n      tag_219\n      jumpi\n        /* \"#utility.yul\":5496:5514   */\n      tag_219\n      tag_185\n      jump\t// in\n    tag_219:\n        /* \"#utility.yul\":5354:5522   */\n      swap3\n      swap2\n      pop\n      pop\n      jump\t// out\n        /* \"#utility.yul\":5527:5744   */\n    tag_107:\n        /* \"#utility.yul\":5567:5568   */\n      0x00\n        /* \"#utility.yul\":5593:5594   */\n      dup3\n        /* \"#utility.yul\":5583:5715   */\n      tag_221\n      jumpi\n        /* \"#utility.yul\":5637:5647   */\n      0x4e487b71\n        /* \"#utility.yul\":5632:5635   */\n      0xe0\n        /* \"#utility.yul\":5628:5648   */\n      shl\n        /* \"#utility.yul\":5625:5626   */\n      0x00\n        /* \"#utility.yul\":5618:5649   */\n      mstore\n        /* \"#utility.yul\":5672:5676   */\n      0x12\n        /* \"#utility.yul\":5669:5670   */\n      0x04\n        /* \"#utility.yul\":5662:5677   */\n      mstore\n        /* \"#utility.yul\":5700:5704   */\n      0x24\n        /* \"#utility.yul\":5697:5698   */\n      0x00\n        /* \"#utility.yul\":5690:5705   */\n      revert\n        /* \"#utility.yul\":5583:5715   */\n    tag_221:\n      pop\n        /* \"#utility.yul\":5729:5738   */\n      div\n      swap1\n        /* \"#utility.yul\":5527:5744   */\n      jump\t// out\n        /* \"#utility.yul\":5749:5924   */\n    tag_111:\n        /* \"#utility.yul\":5786:5789   */\n      0x00\n        /* \"#utility.yul\":5830:5834   */\n      0xff\n        /* \"#utility.yul\":5823:5828   */\n      dup3\n        /* \"#utility.yul\":5819:5835   */\n      and\n        /* \"#utility.yul\":5859:5863   */\n      0xff\n        /* \"#utility.yul\":5850:5857   */\n      dup2\n        /* \"#utility.yul\":5847:5864   */\n      sub\n        /* \"#utility.yul\":5844:5887   */\n      tag_224\n      jumpi\n        /* \"#utility.yul\":5867:5885   */\n      tag_224\n      tag_185\n      jump\t// in\n    tag_224:\n        /* \"#utility.yul\":5916:5917   */\n      0x01\n        /* \"#utility.yul\":5903:5918   */\n      add\n      swap3\n        /* \"#utility.yul\":5749:5924   */\n      swap2\n      pop\n      pop\n      jump\t// out\n        /* \"#utility.yul\":6625:6750   */\n    tag_145:\n        /* \"#utility.yul\":6690:6699   */\n      dup1\n      dup3\n      add\n        /* \"#utility.yul\":6711:6721   */\n      dup1\n      dup3\n      gt\n        /* \"#utility.yul\":6708:6744   */\n      iszero\n      tag_219\n      jumpi\n        /* \"#utility.yul\":6724:6742   */\n      tag_219\n      tag_185\n      jump\t// in\n        /* \"#utility.yul\":6755:6882   */\n    tag_149:\n        /* \"#utility.yul\":6816:6826   */\n      0x4e487b71\n        /* \"#utility.yul\":6811:6814   */\n      0xe0\n        /* \"#utility.yul\":6807:6827   */\n      shl\n        /* \"#utility.yul\":6804:6805   */\n      0x00\n        /* \"#utility.yul\":6797:6828   */\n      mstore\n        /* \"#utility.yul\":6847:6851   */\n      0x41\n        /* \"#utility.yul\":6844:6845   */\n      0x04\n        /* \"#utility.yul\":6837:6852   */\n      mstore\n        /* \"#utility.yul\":6871:6875   */\n      0x24\n        /* \"#utility.yul\":6868:6869   */\n      0x00\n        /* \"#utility.yul\":6861:6876   */\n      revert\n        /* \"#utility.yul\":6887:7035   */\n    tag_179:\n        /* \"#utility.yul\":6975:6979   */\n      0xff\n        /* \"#utility.yul\":6954:6966   */\n      dup2\n      dup2\n      and\n        /* \"#utility.yul\":6968:6980   */\n      dup4\n      dup3\n      and\n        /* \"#utility.yul\":6950:6981   */\n      add\n      swap1\n        /* \"#utility.yul\":6993:7006   */\n      dup2\n      gt\n        /* \"#utility.yul\":6990:7029   */\n      iszero\n      tag_219\n      jumpi\n        /* \"#utility.yul\":7009:7027   */\n      tag_219\n      tag_185\n      jump\t// in\n\n    auxdata: 0xa2646970667358221220ea2fbac199299ae38930e27ebd36ca56a3eb58494c8abfd282cd120907cbecf064736f6c634300081e0033\n}\n",
				"bytecode": {
					"linkReferences": {},
					"object": "60e060405260056080908152600360a0819052600260c0526021916007916031565b50348015602c575f5ffd5b5060dd565b828054828255905f5260205f2090601f0160209004810192821560bd579160200282015f5b83821115609157835183826101000a81548160ff021916908360ff16021790555092602001926001016020815f010492830192600103026056565b801560bb5782816101000a81549060ff02191690556001016020815f010492830192600103026091565b505b5060c792915060cb565b5090565b5b8082111560c7575f815560010160cc565b610e24806100ea5f395ff3fe6080604052600436106100bf575f3560e01c8063899346c71161007c578063a87430ba11610057578063a87430ba14610218578063e45a57d01461029e578063ef71ae56146102cf578063f7b17d10146102fb575f5ffd5b8063899346c7146101d05780639be572f6146101e5578063a2bdedf4146101f9575f5ffd5b806305ad3935146100c35780631e43eb271461010c5780633a4b66f1146101585780634420e4861461016257806375506c9614610181578063842e2981146101a4575b5f5ffd5b3480156100ce575f5ffd5b506100e26100dd366004610bc9565b610310565b604080516001600160a01b0390941684526020840192909252908201526060015b60405180910390f35b348015610117575f5ffd5b50610140610126366004610bf1565b60026020525f90815260409020546001600160a01b031681565b6040516001600160a01b039091168152602001610103565b610160610358565b005b34801561016d575f5ffd5b5061016061017c366004610c08565b610559565b34801561018c575f5ffd5b5061019660055481565b604051908152602001610103565b3480156101af575f5ffd5b506101c36101be366004610c08565b610664565b6040516101039190610c28565b3480156101db575f5ffd5b5061019660065481565b3480156101f0575f5ffd5b50600354610196565b348015610204575f5ffd5b50610140610213366004610bf1565b6106f4565b348015610223575f5ffd5b5061026c610232366004610c08565b5f6020819052908152604090208054600282015460038301546004909301546001600160a01b03831693600160a01b90930460ff16929085565b604080516001600160a01b0390961686529315156020860152928401919091526060830152608082015260a001610103565b3480156102a9575f5ffd5b506102bd6102b8366004610bf1565b61071c565b60405160ff9091168152602001610103565b3480156102da575f5ffd5b506102ee6102e9366004610c08565b61074d565b6040516101039190610c86565b348015610306575f5ffd5b5061019660045481565b6001602052815f5260405f208181548110610329575f80fd5b5f9182526020909120600390910201805460018201546002909201546001600160a01b03909116935090915083565b5f34116103a45760405162461bcd60e51b815260206004820152601560248201527414dd185ad948185b5bdd5b9d081c995c5d5a5c9959605a1b60448201526064015b60405180910390fd5b335f908152602081905260409020546001600160a01b03166103f95760405162461bcd60e51b815260206004820152600e60248201526d149959da5cdd195c88199a5c9cdd60921b604482015260640161039b565b335f9081526020819052604080822081516060810190925260048054600190920193839261042690610d28565b9182905550815234602080830191909152426040928301528354600181810186555f9586528286208551600390930201918255848301519082015592820151600290930192909255338352908290528120546001600160a01b0316905b60075460ff821610801561049f57506001600160a01b03821615155b15610555575f606460078360ff16815481106104bd576104bd610d40565b5f918252602091829020918104909101546104e491601f166101000a900460ff1634610d54565b6104ee9190610d71565b6040519091506001600160a01b0384169082156108fc029083905f818181858888f19350505050158015610524573d5f5f3e3d5ffd5b50506001600160a01b039182165f90815260208190526040902054909116908061054d81610d90565b915050610483565b5050565b335f908152602081905260409020546001600160a01b0316156105b35760405162461bcd60e51b8152602060048201526012602482015271105b1c9958591e481c9959da5cdd195c995960721b604482015260640161039b565b336001600160a01b038216036106025760405162461bcd60e51b815260206004820152601460248201527321b0b713ba103932b332b9103cb7bab939b2b63360611b604482015260640161039b565b335f81815260208190526040812080546001600160a01b039094166001600160a01b03199485161790556003805460018101825591527fc2575a0e9e593c00f959f8c92f12db2869c3395a3b0502d05e2516446f71f85b018054909216179055565b6001600160a01b0381165f90815260208181526040808320600101805482518185028101850190935280835260609492939192909184015b828210156106e9578382905f5260205f2090600302016040518060600160405290815f8201548152602001600182015481526020016002820154815250508152602001906001019061069c565b505050509050919050565b60038181548110610703575f80fd5b5f918252602090912001546001600160a01b0316905081565b6007818154811061072b575f80fd5b905f5260205f209060209182820401919006915054906101000a900460ff1681565b60605f805b6003548110156108ab575f6003828154811061077057610770610d40565b5f9182526020808320909101546001600160a01b0316808352828252604080842060010180548251818602810186019093528083529295509092909190849084015b828210156107ff578382905f5260205f2090600302016040518060600160405290815f820154815260200160018201548152602001600282015481525050815260200190600101906107b2565b505050506001600160a01b038381165f908152602081905260408120549293509116905b60075460ff821610801561083f57506001600160a01b03821615155b1561089b57876001600160a01b0316826001600160a01b03160361086c5782516108699087610dae565b95505b6001600160a01b039182165f90815260208190526040902054909116908061089381610d90565b915050610823565b5050600190920191506107529050565b505f8167ffffffffffffffff8111156108c6576108c6610dc1565b60405190808252806020026020018201604052801561094557816020015b6109326040518060e001604052805f6001600160a01b031681526020015f81526020015f81526020015f81526020015f6001600160a01b031681526020015f81526020015f60ff1681525090565b8152602001906001900390816108e45790505b5090505f805b600354811015610ba4575f6003828154811061096957610969610d40565b5f9182526020808320909101546001600160a01b0316808352828252604080842060010180548251818602810186019093528083529295509092909190849084015b828210156109f8578382905f5260205f2090600302016040518060600160405290815f820154815260200160018201548152602001600282015481525050815260200190600101906109ab565b505050506001600160a01b038381165f908152602081905260408120549293509116905b60075460ff8216108015610a3857506001600160a01b03821615155b15610b9457896001600160a01b0316826001600160a01b031603610b65575f5b8351811015610b63575f848281518110610a7457610a74610d40565b602002602001015190505f606460078560ff1681548110610a9757610a97610d40565b905f5260205f2090602091828204019190069054906101000a900460ff1660ff168360200151610ac79190610d54565b610ad19190610d71565b90506040518060e001604052808e6001600160a01b03168152602001835f0151815260200183602001518152602001828152602001886001600160a01b0316815260200183604001518152602001856001610b2c9190610dd5565b60ff1690528a8a610b3c81610d28565b9b5081518110610b4e57610b4e610d40565b60209081029190910101525050600101610a58565b505b6001600160a01b039182165f908152602081905260409020549091169080610b8c81610d90565b915050610a1c565b50506001909201915061094b9050565b5090949350505050565b80356001600160a01b0381168114610bc4575f5ffd5b919050565b5f5f60408385031215610bda575f5ffd5b610be383610bae565b946020939093013593505050565b5f60208284031215610c01575f5ffd5b5035919050565b5f60208284031215610c18575f5ffd5b610c2182610bae565b9392505050565b602080825282518282018190525f918401906040840190835b81811015610c7b57835180518452602081015160208501526040810151604085015250606083019250602084019350600181019050610c41565b509095945050505050565b602080825282518282018190525f918401906040840190835b81811015610c7b57835160018060a01b03815116845260208101516020850152604081015160408501526060810151606085015260018060a01b03608082015116608085015260a081015160a085015260ff60c08201511660c08501525060e083019250602084019350600181019050610c9f565b634e487b7160e01b5f52601160045260245ffd5b5f60018201610d3957610d39610d14565b5060010190565b634e487b7160e01b5f52603260045260245ffd5b8082028115828204841417610d6b57610d6b610d14565b92915050565b5f82610d8b57634e487b7160e01b5f52601260045260245ffd5b500490565b5f60ff821660ff8103610da557610da5610d14565b60010192915050565b80820180821115610d6b57610d6b610d14565b634e487b7160e01b5f52604160045260245ffd5b60ff8181168382160190811115610d6b57610d6b610d1456fea2646970667358221220ea2fbac199299ae38930e27ebd36ca56a3eb58494c8abfd282cd120907cbecf064736f6c634300081e0033",
					"opcodes": "PUSH1 0xE0 PUSH1 0x40 MSTORE PUSH1 0x5 PUSH1 0x80 SWAP1 DUP2 MSTORE PUSH1 0x3 PUSH1 0xA0 DUP2 SWAP1 MSTORE PUSH1 0x2 PUSH1 0xC0 MSTORE PUSH1 0x21 SWAP2 PUSH1 0x7 SWAP2 PUSH1 0x31 JUMP JUMPDEST POP CALLVALUE DUP1 ISZERO PUSH1 0x2C JUMPI PUSH0 PUSH0 REVERT JUMPDEST POP PUSH1 0xDD JUMP JUMPDEST DUP3 DUP1 SLOAD DUP3 DUP3 SSTORE SWAP1 PUSH0 MSTORE PUSH1 0x20 PUSH0 KECCAK256 SWAP1 PUSH1 0x1F ADD PUSH1 0x20 SWAP1 DIV DUP2 ADD SWAP3 DUP3 ISZERO PUSH1 0xBD JUMPI SWAP2 PUSH1 0x20 MUL DUP3 ADD PUSH0 JUMPDEST DUP4 DUP3 GT ISZERO PUSH1 0x91 JUMPI DUP4 MLOAD DUP4 DUP3 PUSH2 0x100 EXP DUP2 SLOAD DUP2 PUSH1 0xFF MUL NOT AND SWAP1 DUP4 PUSH1 0xFF AND MUL OR SWAP1 SSTORE POP SWAP3 PUSH1 0x20 ADD SWAP3 PUSH1 0x1 ADD PUSH1 0x20 DUP2 PUSH0 ADD DIV SWAP3 DUP4 ADD SWAP3 PUSH1 0x1 SUB MUL PUSH1 0x56 JUMP JUMPDEST DUP1 ISZERO PUSH1 0xBB JUMPI DUP3 DUP2 PUSH2 0x100 EXP DUP2 SLOAD SWAP1 PUSH1 0xFF MUL NOT AND SWAP1 SSTORE PUSH1 0x1 ADD PUSH1 0x20 DUP2 PUSH0 ADD DIV SWAP3 DUP4 ADD SWAP3 PUSH1 0x1 SUB MUL PUSH1 0x91 JUMP JUMPDEST POP JUMPDEST POP PUSH1 0xC7 SWAP3 SWAP2 POP PUSH1 0xCB JUMP JUMPDEST POP SWAP1 JUMP JUMPDEST JUMPDEST DUP1 DUP3 GT ISZERO PUSH1 0xC7 JUMPI PUSH0 DUP2 SSTORE PUSH1 0x1 ADD PUSH1 0xCC JUMP JUMPDEST PUSH2 0xE24 DUP1 PUSH2 0xEA PUSH0 CODECOPY PUSH0 RETURN INVALID PUSH1 0x80 PUSH1 0x40 MSTORE PUSH1 0x4 CALLDATASIZE LT PUSH2 0xBF JUMPI PUSH0 CALLDATALOAD PUSH1 0xE0 SHR DUP1 PUSH4 0x899346C7 GT PUSH2 0x7C JUMPI DUP1 PUSH4 0xA87430BA GT PUSH2 0x57 JUMPI DUP1 PUSH4 0xA87430BA EQ PUSH2 0x218 JUMPI DUP1 PUSH4 0xE45A57D0 EQ PUSH2 0x29E JUMPI DUP1 PUSH4 0xEF71AE56 EQ PUSH2 0x2CF JUMPI DUP1 PUSH4 0xF7B17D10 EQ PUSH2 0x2FB JUMPI PUSH0 PUSH0 REVERT JUMPDEST DUP1 PUSH4 0x899346C7 EQ PUSH2 0x1D0 JUMPI DUP1 PUSH4 0x9BE572F6 EQ PUSH2 0x1E5 JUMPI DUP1 PUSH4 0xA2BDEDF4 EQ PUSH2 0x1F9 JUMPI PUSH0 PUSH0 REVERT JUMPDEST DUP1 PUSH4 0x5AD3935 EQ PUSH2 0xC3 JUMPI DUP1 PUSH4 0x1E43EB27 EQ PUSH2 0x10C JUMPI DUP1 PUSH4 0x3A4B66F1 EQ PUSH2 0x158 JUMPI DUP1 PUSH4 0x4420E486 EQ PUSH2 0x162 JUMPI DUP1 PUSH4 0x75506C96 EQ PUSH2 0x181 JUMPI DUP1 PUSH4 0x842E2981 EQ PUSH2 0x1A4 JUMPI JUMPDEST PUSH0 PUSH0 REVERT JUMPDEST CALLVALUE DUP1 ISZERO PUSH2 0xCE JUMPI PUSH0 PUSH0 REVERT JUMPDEST POP PUSH2 0xE2 PUSH2 0xDD CALLDATASIZE PUSH1 0x4 PUSH2 0xBC9 JUMP JUMPDEST PUSH2 0x310 JUMP JUMPDEST PUSH1 0x40 DUP1 MLOAD PUSH1 0x1 PUSH1 0x1 PUSH1 0xA0 SHL SUB SWAP1 SWAP5 AND DUP5 MSTORE PUSH1 0x20 DUP5 ADD SWAP3 SWAP1 SWAP3 MSTORE SWAP1 DUP3 ADD MSTORE PUSH1 0x60 ADD JUMPDEST PUSH1 0x40 MLOAD DUP1 SWAP2 SUB SWAP1 RETURN JUMPDEST CALLVALUE DUP1 ISZERO PUSH2 0x117 JUMPI PUSH0 PUSH0 REVERT JUMPDEST POP PUSH2 0x140 PUSH2 0x126 CALLDATASIZE PUSH1 0x4 PUSH2 0xBF1 JUMP JUMPDEST PUSH1 0x2 PUSH1 0x20 MSTORE PUSH0 SWAP1 DUP2 MSTORE PUSH1 0x40 SWAP1 KECCAK256 SLOAD PUSH1 0x1 PUSH1 0x1 PUSH1 0xA0 SHL SUB AND DUP2 JUMP JUMPDEST PUSH1 0x40 MLOAD PUSH1 0x1 PUSH1 0x1 PUSH1 0xA0 SHL SUB SWAP1 SWAP2 AND DUP2 MSTORE PUSH1 0x20 ADD PUSH2 0x103 JUMP JUMPDEST PUSH2 0x160 PUSH2 0x358 JUMP JUMPDEST STOP JUMPDEST CALLVALUE DUP1 ISZERO PUSH2 0x16D JUMPI PUSH0 PUSH0 REVERT JUMPDEST POP PUSH2 0x160 PUSH2 0x17C CALLDATASIZE PUSH1 0x4 PUSH2 0xC08 JUMP JUMPDEST PUSH2 0x559 JUMP JUMPDEST CALLVALUE DUP1 ISZERO PUSH2 0x18C JUMPI PUSH0 PUSH0 REVERT JUMPDEST POP PUSH2 0x196 PUSH1 0x5 SLOAD DUP2 JUMP JUMPDEST PUSH1 0x40 MLOAD SWAP1 DUP2 MSTORE PUSH1 0x20 ADD PUSH2 0x103 JUMP JUMPDEST CALLVALUE DUP1 ISZERO PUSH2 0x1AF JUMPI PUSH0 PUSH0 REVERT JUMPDEST POP PUSH2 0x1C3 PUSH2 0x1BE CALLDATASIZE PUSH1 0x4 PUSH2 0xC08 JUMP JUMPDEST PUSH2 0x664 JUMP JUMPDEST PUSH1 0x40 MLOAD PUSH2 0x103 SWAP2 SWAP1 PUSH2 0xC28 JUMP JUMPDEST CALLVALUE DUP1 ISZERO PUSH2 0x1DB JUMPI PUSH0 PUSH0 REVERT JUMPDEST POP PUSH2 0x196 PUSH1 0x6 SLOAD DUP2 JUMP JUMPDEST CALLVALUE DUP1 ISZERO PUSH2 0x1F0 JUMPI PUSH0 PUSH0 REVERT JUMPDEST POP PUSH1 0x3 SLOAD PUSH2 0x196 JUMP JUMPDEST CALLVALUE DUP1 ISZERO PUSH2 0x204 JUMPI PUSH0 PUSH0 REVERT JUMPDEST POP PUSH2 0x140 PUSH2 0x213 CALLDATASIZE PUSH1 0x4 PUSH2 0xBF1 JUMP JUMPDEST PUSH2 0x6F4 JUMP JUMPDEST CALLVALUE DUP1 ISZERO PUSH2 0x223 JUMPI PUSH0 PUSH0 REVERT JUMPDEST POP PUSH2 0x26C PUSH2 0x232 CALLDATASIZE PUSH1 0x4 PUSH2 0xC08 JUMP JUMPDEST PUSH0 PUSH1 0x20 DUP2 SWAP1 MSTORE SWAP1 DUP2 MSTORE PUSH1 0x40 SWAP1 KECCAK256 DUP1 SLOAD PUSH1 0x2 DUP3 ADD SLOAD PUSH1 0x3 DUP4 ADD SLOAD PUSH1 0x4 SWAP1 SWAP4 ADD SLOAD PUSH1 0x1 PUSH1 0x1 PUSH1 0xA0 SHL SUB DUP4 AND SWAP4 PUSH1 0x1 PUSH1 0xA0 SHL SWAP1 SWAP4 DIV PUSH1 0xFF AND SWAP3 SWAP1 DUP6 JUMP JUMPDEST PUSH1 0x40 DUP1 MLOAD PUSH1 0x1 PUSH1 0x1 PUSH1 0xA0 SHL SUB SWAP1 SWAP7 AND DUP7 MSTORE SWAP4 ISZERO ISZERO PUSH1 0x20 DUP7 ADD MSTORE SWAP3 DUP5 ADD SWAP2 SWAP1 SWAP2 MSTORE PUSH1 0x60 DUP4 ADD MSTORE PUSH1 0x80 DUP3 ADD MSTORE PUSH1 0xA0 ADD PUSH2 0x103 JUMP JUMPDEST CALLVALUE DUP1 ISZERO PUSH2 0x2A9 JUMPI PUSH0 PUSH0 REVERT JUMPDEST POP PUSH2 0x2BD PUSH2 0x2B8 CALLDATASIZE PUSH1 0x4 PUSH2 0xBF1 JUMP JUMPDEST PUSH2 0x71C JUMP JUMPDEST PUSH1 0x40 MLOAD PUSH1 0xFF SWAP1 SWAP2 AND DUP2 MSTORE PUSH1 0x20 ADD PUSH2 0x103 JUMP JUMPDEST CALLVALUE DUP1 ISZERO PUSH2 0x2DA JUMPI PUSH0 PUSH0 REVERT JUMPDEST POP PUSH2 0x2EE PUSH2 0x2E9 CALLDATASIZE PUSH1 0x4 PUSH2 0xC08 JUMP JUMPDEST PUSH2 0x74D JUMP JUMPDEST PUSH1 0x40 MLOAD PUSH2 0x103 SWAP2 SWAP1 PUSH2 0xC86 JUMP JUMPDEST CALLVALUE DUP1 ISZERO PUSH2 0x306 JUMPI PUSH0 PUSH0 REVERT JUMPDEST POP PUSH2 0x196 PUSH1 0x4 SLOAD DUP2 JUMP JUMPDEST PUSH1 0x1 PUSH1 0x20 MSTORE DUP2 PUSH0 MSTORE PUSH1 0x40 PUSH0 KECCAK256 DUP2 DUP2 SLOAD DUP2 LT PUSH2 0x329 JUMPI PUSH0 DUP1 REVERT JUMPDEST PUSH0 SWAP2 DUP3 MSTORE PUSH1 0x20 SWAP1 SWAP2 KECCAK256 PUSH1 0x3 SWAP1 SWAP2 MUL ADD DUP1 SLOAD PUSH1 0x1 DUP3 ADD SLOAD PUSH1 0x2 SWAP1 SWAP3 ADD SLOAD PUSH1 0x1 PUSH1 0x1 PUSH1 0xA0 SHL SUB SWAP1 SWAP2 AND SWAP4 POP SWAP1 SWAP2 POP DUP4 JUMP JUMPDEST PUSH0 CALLVALUE GT PUSH2 0x3A4 JUMPI PUSH1 0x40 MLOAD PUSH3 0x461BCD PUSH1 0xE5 SHL DUP2 MSTORE PUSH1 0x20 PUSH1 0x4 DUP3 ADD MSTORE PUSH1 0x15 PUSH1 0x24 DUP3 ADD MSTORE PUSH21 0x14DD185AD948185B5BDD5B9D081C995C5D5A5C9959 PUSH1 0x5A SHL PUSH1 0x44 DUP3 ADD MSTORE PUSH1 0x64 ADD JUMPDEST PUSH1 0x40 MLOAD DUP1 SWAP2 SUB SWAP1 REVERT JUMPDEST CALLER PUSH0 SWAP1 DUP2 MSTORE PUSH1 0x20 DUP2 SWAP1 MSTORE PUSH1 0x40 SWAP1 KECCAK256 SLOAD PUSH1 0x1 PUSH1 0x1 PUSH1 0xA0 SHL SUB AND PUSH2 0x3F9 JUMPI PUSH1 0x40 MLOAD PUSH3 0x461BCD PUSH1 0xE5 SHL DUP2 MSTORE PUSH1 0x20 PUSH1 0x4 DUP3 ADD MSTORE PUSH1 0xE PUSH1 0x24 DUP3 ADD MSTORE PUSH14 0x149959DA5CDD195C88199A5C9CDD PUSH1 0x92 SHL PUSH1 0x44 DUP3 ADD MSTORE PUSH1 0x64 ADD PUSH2 0x39B JUMP JUMPDEST CALLER PUSH0 SWAP1 DUP2 MSTORE PUSH1 0x20 DUP2 SWAP1 MSTORE PUSH1 0x40 DUP1 DUP3 KECCAK256 DUP2 MLOAD PUSH1 0x60 DUP2 ADD SWAP1 SWAP3 MSTORE PUSH1 0x4 DUP1 SLOAD PUSH1 0x1 SWAP1 SWAP3 ADD SWAP4 DUP4 SWAP3 PUSH2 0x426 SWAP1 PUSH2 0xD28 JUMP JUMPDEST SWAP2 DUP3 SWAP1 SSTORE POP DUP2 MSTORE CALLVALUE PUSH1 0x20 DUP1 DUP4 ADD SWAP2 SWAP1 SWAP2 MSTORE TIMESTAMP PUSH1 0x40 SWAP3 DUP4 ADD MSTORE DUP4 SLOAD PUSH1 0x1 DUP2 DUP2 ADD DUP7 SSTORE PUSH0 SWAP6 DUP7 MSTORE DUP3 DUP7 KECCAK256 DUP6 MLOAD PUSH1 0x3 SWAP1 SWAP4 MUL ADD SWAP2 DUP3 SSTORE DUP5 DUP4 ADD MLOAD SWAP1 DUP3 ADD SSTORE SWAP3 DUP3 ADD MLOAD PUSH1 0x2 SWAP1 SWAP4 ADD SWAP3 SWAP1 SWAP3 SSTORE CALLER DUP4 MSTORE SWAP1 DUP3 SWAP1 MSTORE DUP2 KECCAK256 SLOAD PUSH1 0x1 PUSH1 0x1 PUSH1 0xA0 SHL SUB AND SWAP1 JUMPDEST PUSH1 0x7 SLOAD PUSH1 0xFF DUP3 AND LT DUP1 ISZERO PUSH2 0x49F JUMPI POP PUSH1 0x1 PUSH1 0x1 PUSH1 0xA0 SHL SUB DUP3 AND ISZERO ISZERO JUMPDEST ISZERO PUSH2 0x555 JUMPI PUSH0 PUSH1 0x64 PUSH1 0x7 DUP4 PUSH1 0xFF AND DUP2 SLOAD DUP2 LT PUSH2 0x4BD JUMPI PUSH2 0x4BD PUSH2 0xD40 JUMP JUMPDEST PUSH0 SWAP2 DUP3 MSTORE PUSH1 0x20 SWAP2 DUP3 SWAP1 KECCAK256 SWAP2 DUP2 DIV SWAP1 SWAP2 ADD SLOAD PUSH2 0x4E4 SWAP2 PUSH1 0x1F AND PUSH2 0x100 EXP SWAP1 DIV PUSH1 0xFF AND CALLVALUE PUSH2 0xD54 JUMP JUMPDEST PUSH2 0x4EE SWAP2 SWAP1 PUSH2 0xD71 JUMP JUMPDEST PUSH1 0x40 MLOAD SWAP1 SWAP2 POP PUSH1 0x1 PUSH1 0x1 PUSH1 0xA0 SHL SUB DUP5 AND SWAP1 DUP3 ISZERO PUSH2 0x8FC MUL SWAP1 DUP4 SWAP1 PUSH0 DUP2 DUP2 DUP2 DUP6 DUP9 DUP9 CALL SWAP4 POP POP POP POP ISZERO DUP1 ISZERO PUSH2 0x524 JUMPI RETURNDATASIZE PUSH0 PUSH0 RETURNDATACOPY RETURNDATASIZE PUSH0 REVERT JUMPDEST POP POP PUSH1 0x1 PUSH1 0x1 PUSH1 0xA0 SHL SUB SWAP2 DUP3 AND PUSH0 SWAP1 DUP2 MSTORE PUSH1 0x20 DUP2 SWAP1 MSTORE PUSH1 0x40 SWAP1 KECCAK256 SLOAD SWAP1 SWAP2 AND SWAP1 DUP1 PUSH2 0x54D DUP2 PUSH2 0xD90 JUMP JUMPDEST SWAP2 POP POP PUSH2 0x483 JUMP JUMPDEST POP POP JUMP JUMPDEST CALLER PUSH0 SWAP1 DUP2 MSTORE PUSH1 0x20 DUP2 SWAP1 MSTORE PUSH1 0x40 SWAP1 KECCAK256 SLOAD PUSH1 0x1 PUSH1 0x1 PUSH1 0xA0 SHL SUB AND ISZERO PUSH2 0x5B3 JUMPI PUSH1 0x40 MLOAD PUSH3 0x461BCD PUSH1 0xE5 SHL DUP2 MSTORE PUSH1 0x20 PUSH1 0x4 DUP3 ADD MSTORE PUSH1 0x12 PUSH1 0x24 DUP3 ADD MSTORE PUSH18 0x105B1C9958591E481C9959DA5CDD195C9959 PUSH1 0x72 SHL PUSH1 0x44 DUP3 ADD MSTORE PUSH1 0x64 ADD PUSH2 0x39B JUMP JUMPDEST CALLER PUSH1 0x1 PUSH1 0x1 PUSH1 0xA0 SHL SUB DUP3 AND SUB PUSH2 0x602 JUMPI PUSH1 0x40 MLOAD PUSH3 0x461BCD PUSH1 0xE5 SHL DUP2 MSTORE PUSH1 0x20 PUSH1 0x4 DUP3 ADD MSTORE PUSH1 0x14 PUSH1 0x24 DUP3 ADD MSTORE PUSH20 0x21B0B713BA103932B332B9103CB7BAB939B2B633 PUSH1 0x61 SHL PUSH1 0x44 DUP3 ADD MSTORE PUSH1 0x64 ADD PUSH2 0x39B JUMP JUMPDEST CALLER PUSH0 DUP2 DUP2 MSTORE PUSH1 0x20 DUP2 SWAP1 MSTORE PUSH1 0x40 DUP2 KECCAK256 DUP1 SLOAD PUSH1 0x1 PUSH1 0x1 PUSH1 0xA0 SHL SUB SWAP1 SWAP5 AND PUSH1 0x1 PUSH1 0x1 PUSH1 0xA0 SHL SUB NOT SWAP5 DUP6 AND OR SWAP1 SSTORE PUSH1 0x3 DUP1 SLOAD PUSH1 0x1 DUP2 ADD DUP3 SSTORE SWAP2 MSTORE PUSH32 0xC2575A0E9E593C00F959F8C92F12DB2869C3395A3B0502D05E2516446F71F85B ADD DUP1 SLOAD SWAP1 SWAP3 AND OR SWAP1 SSTORE JUMP JUMPDEST PUSH1 0x1 PUSH1 0x1 PUSH1 0xA0 SHL SUB DUP2 AND PUSH0 SWAP1 DUP2 MSTORE PUSH1 0x20 DUP2 DUP2 MSTORE PUSH1 0x40 DUP1 DUP4 KECCAK256 PUSH1 0x1 ADD DUP1 SLOAD DUP3 MLOAD DUP2 DUP6 MUL DUP2 ADD DUP6 ADD SWAP1 SWAP4 MSTORE DUP1 DUP4 MSTORE PUSH1 0x60 SWAP5 SWAP3 SWAP4 SWAP2 SWAP3 SWAP1 SWAP2 DUP5 ADD JUMPDEST DUP3 DUP3 LT ISZERO PUSH2 0x6E9 JUMPI DUP4 DUP3 SWAP1 PUSH0 MSTORE PUSH1 0x20 PUSH0 KECCAK256 SWAP1 PUSH1 0x3 MUL ADD PUSH1 0x40 MLOAD DUP1 PUSH1 0x60 ADD PUSH1 0x40 MSTORE SWAP1 DUP2 PUSH0 DUP3 ADD SLOAD DUP2 MSTORE PUSH1 0x20 ADD PUSH1 0x1 DUP3 ADD SLOAD DUP2 MSTORE PUSH1 0x20 ADD PUSH1 0x2 DUP3 ADD SLOAD DUP2 MSTORE POP POP DUP2 MSTORE PUSH1 0x20 ADD SWAP1 PUSH1 0x1 ADD SWAP1 PUSH2 0x69C JUMP JUMPDEST POP POP POP POP SWAP1 POP SWAP2 SWAP1 POP JUMP JUMPDEST PUSH1 0x3 DUP2 DUP2 SLOAD DUP2 LT PUSH2 0x703 JUMPI PUSH0 DUP1 REVERT JUMPDEST PUSH0 SWAP2 DUP3 MSTORE PUSH1 0x20 SWAP1 SWAP2 KECCAK256 ADD SLOAD PUSH1 0x1 PUSH1 0x1 PUSH1 0xA0 SHL SUB AND SWAP1 POP DUP2 JUMP JUMPDEST PUSH1 0x7 DUP2 DUP2 SLOAD DUP2 LT PUSH2 0x72B JUMPI PUSH0 DUP1 REVERT JUMPDEST SWAP1 PUSH0 MSTORE PUSH1 0x20 PUSH0 KECCAK256 SWAP1 PUSH1 0x20 SWAP2 DUP3 DUP3 DIV ADD SWAP2 SWAP1 MOD SWAP2 POP SLOAD SWAP1 PUSH2 0x100 EXP SWAP1 DIV PUSH1 0xFF AND DUP2 JUMP JUMPDEST PUSH1 0x60 PUSH0 DUP1 JUMPDEST PUSH1 0x3 SLOAD DUP2 LT ISZERO PUSH2 0x8AB JUMPI PUSH0 PUSH1 0x3 DUP3 DUP2 SLOAD DUP2 LT PUSH2 0x770 JUMPI PUSH2 0x770 PUSH2 0xD40 JUMP JUMPDEST PUSH0 SWAP2 DUP3 MSTORE PUSH1 0x20 DUP1 DUP4 KECCAK256 SWAP1 SWAP2 ADD SLOAD PUSH1 0x1 PUSH1 0x1 PUSH1 0xA0 SHL SUB AND DUP1 DUP4 MSTORE DUP3 DUP3 MSTORE PUSH1 0x40 DUP1 DUP5 KECCAK256 PUSH1 0x1 ADD DUP1 SLOAD DUP3 MLOAD DUP2 DUP7 MUL DUP2 ADD DUP7 ADD SWAP1 SWAP4 MSTORE DUP1 DUP4 MSTORE SWAP3 SWAP6 POP SWAP1 SWAP3 SWAP1 SWAP2 SWAP1 DUP5 SWAP1 DUP5 ADD JUMPDEST DUP3 DUP3 LT ISZERO PUSH2 0x7FF JUMPI DUP4 DUP3 SWAP1 PUSH0 MSTORE PUSH1 0x20 PUSH0 KECCAK256 SWAP1 PUSH1 0x3 MUL ADD PUSH1 0x40 MLOAD DUP1 PUSH1 0x60 ADD PUSH1 0x40 MSTORE SWAP1 DUP2 PUSH0 DUP3 ADD SLOAD DUP2 MSTORE PUSH1 0x20 ADD PUSH1 0x1 DUP3 ADD SLOAD DUP2 MSTORE PUSH1 0x20 ADD PUSH1 0x2 DUP3 ADD SLOAD DUP2 MSTORE POP POP DUP2 MSTORE PUSH1 0x20 ADD SWAP1 PUSH1 0x1 ADD SWAP1 PUSH2 0x7B2 JUMP JUMPDEST POP POP POP POP PUSH1 0x1 PUSH1 0x1 PUSH1 0xA0 SHL SUB DUP4 DUP2 AND PUSH0 SWAP1 DUP2 MSTORE PUSH1 0x20 DUP2 SWAP1 MSTORE PUSH1 0x40 DUP2 KECCAK256 SLOAD SWAP3 SWAP4 POP SWAP2 AND SWAP1 JUMPDEST PUSH1 0x7 SLOAD PUSH1 0xFF DUP3 AND LT DUP1 ISZERO PUSH2 0x83F JUMPI POP PUSH1 0x1 PUSH1 0x1 PUSH1 0xA0 SHL SUB DUP3 AND ISZERO ISZERO JUMPDEST ISZERO PUSH2 0x89B JUMPI DUP8 PUSH1 0x1 PUSH1 0x1 PUSH1 0xA0 SHL SUB AND DUP3 PUSH1 0x1 PUSH1 0x1 PUSH1 0xA0 SHL SUB AND SUB PUSH2 0x86C JUMPI DUP3 MLOAD PUSH2 0x869 SWAP1 DUP8 PUSH2 0xDAE JUMP JUMPDEST SWAP6 POP JUMPDEST PUSH1 0x1 PUSH1 0x1 PUSH1 0xA0 SHL SUB SWAP2 DUP3 AND PUSH0 SWAP1 DUP2 MSTORE PUSH1 0x20 DUP2 SWAP1 MSTORE PUSH1 0x40 SWAP1 KECCAK256 SLOAD SWAP1 SWAP2 AND SWAP1 DUP1 PUSH2 0x893 DUP2 PUSH2 0xD90 JUMP JUMPDEST SWAP2 POP POP PUSH2 0x823 JUMP JUMPDEST POP POP PUSH1 0x1 SWAP1 SWAP3 ADD SWAP2 POP PUSH2 0x752 SWAP1 POP JUMP JUMPDEST POP PUSH0 DUP2 PUSH8 0xFFFFFFFFFFFFFFFF DUP2 GT ISZERO PUSH2 0x8C6 JUMPI PUSH2 0x8C6 PUSH2 0xDC1 JUMP JUMPDEST PUSH1 0x40 MLOAD SWAP1 DUP1 DUP3 MSTORE DUP1 PUSH1 0x20 MUL PUSH1 0x20 ADD DUP3 ADD PUSH1 0x40 MSTORE DUP1 ISZERO PUSH2 0x945 JUMPI DUP2 PUSH1 0x20 ADD JUMPDEST PUSH2 0x932 PUSH1 0x40 MLOAD DUP1 PUSH1 0xE0 ADD PUSH1 0x40 MSTORE DUP1 PUSH0 PUSH1 0x1 PUSH1 0x1 PUSH1 0xA0 SHL SUB AND DUP2 MSTORE PUSH1 0x20 ADD PUSH0 DUP2 MSTORE PUSH1 0x20 ADD PUSH0 DUP2 MSTORE PUSH1 0x20 ADD PUSH0 DUP2 MSTORE PUSH1 0x20 ADD PUSH0 PUSH1 0x1 PUSH1 0x1 PUSH1 0xA0 SHL SUB AND DUP2 MSTORE PUSH1 0x20 ADD PUSH0 DUP2 MSTORE PUSH1 0x20 ADD PUSH0 PUSH1 0xFF AND DUP2 MSTORE POP SWAP1 JUMP JUMPDEST DUP2 MSTORE PUSH1 0x20 ADD SWAP1 PUSH1 0x1 SWAP1 SUB SWAP1 DUP2 PUSH2 0x8E4 JUMPI SWAP1 POP JUMPDEST POP SWAP1 POP PUSH0 DUP1 JUMPDEST PUSH1 0x3 SLOAD DUP2 LT ISZERO PUSH2 0xBA4 JUMPI PUSH0 PUSH1 0x3 DUP3 DUP2 SLOAD DUP2 LT PUSH2 0x969 JUMPI PUSH2 0x969 PUSH2 0xD40 JUMP JUMPDEST PUSH0 SWAP2 DUP3 MSTORE PUSH1 0x20 DUP1 DUP4 KECCAK256 SWAP1 SWAP2 ADD SLOAD PUSH1 0x1 PUSH1 0x1 PUSH1 0xA0 SHL SUB AND DUP1 DUP4 MSTORE DUP3 DUP3 MSTORE PUSH1 0x40 DUP1 DUP5 KECCAK256 PUSH1 0x1 ADD DUP1 SLOAD DUP3 MLOAD DUP2 DUP7 MUL DUP2 ADD DUP7 ADD SWAP1 SWAP4 MSTORE DUP1 DUP4 MSTORE SWAP3 SWAP6 POP SWAP1 SWAP3 SWAP1 SWAP2 SWAP1 DUP5 SWAP1 DUP5 ADD JUMPDEST DUP3 DUP3 LT ISZERO PUSH2 0x9F8 JUMPI DUP4 DUP3 SWAP1 PUSH0 MSTORE PUSH1 0x20 PUSH0 KECCAK256 SWAP1 PUSH1 0x3 MUL ADD PUSH1 0x40 MLOAD DUP1 PUSH1 0x60 ADD PUSH1 0x40 MSTORE SWAP1 DUP2 PUSH0 DUP3 ADD SLOAD DUP2 MSTORE PUSH1 0x20 ADD PUSH1 0x1 DUP3 ADD SLOAD DUP2 MSTORE PUSH1 0x20 ADD PUSH1 0x2 DUP3 ADD SLOAD DUP2 MSTORE POP POP DUP2 MSTORE PUSH1 0x20 ADD SWAP1 PUSH1 0x1 ADD SWAP1 PUSH2 0x9AB JUMP JUMPDEST POP POP POP POP PUSH1 0x1 PUSH1 0x1 PUSH1 0xA0 SHL SUB DUP4 DUP2 AND PUSH0 SWAP1 DUP2 MSTORE PUSH1 0x20 DUP2 SWAP1 MSTORE PUSH1 0x40 DUP2 KECCAK256 SLOAD SWAP3 SWAP4 POP SWAP2 AND SWAP1 JUMPDEST PUSH1 0x7 SLOAD PUSH1 0xFF DUP3 AND LT DUP1 ISZERO PUSH2 0xA38 JUMPI POP PUSH1 0x1 PUSH1 0x1 PUSH1 0xA0 SHL SUB DUP3 AND ISZERO ISZERO JUMPDEST ISZERO PUSH2 0xB94 JUMPI DUP10 PUSH1 0x1 PUSH1 0x1 PUSH1 0xA0 SHL SUB AND DUP3 PUSH1 0x1 PUSH1 0x1 PUSH1 0xA0 SHL SUB AND SUB PUSH2 0xB65 JUMPI PUSH0 JUMPDEST DUP4 MLOAD DUP2 LT ISZERO PUSH2 0xB63 JUMPI PUSH0 DUP5 DUP3 DUP2 MLOAD DUP2 LT PUSH2 0xA74 JUMPI PUSH2 0xA74 PUSH2 0xD40 JUMP JUMPDEST PUSH1 0x20 MUL PUSH1 0x20 ADD ADD MLOAD SWAP1 POP PUSH0 PUSH1 0x64 PUSH1 0x7 DUP6 PUSH1 0xFF AND DUP2 SLOAD DUP2 LT PUSH2 0xA97 JUMPI PUSH2 0xA97 PUSH2 0xD40 JUMP JUMPDEST SWAP1 PUSH0 MSTORE PUSH1 0x20 PUSH0 KECCAK256 SWAP1 PUSH1 0x20 SWAP2 DUP3 DUP3 DIV ADD SWAP2 SWAP1 MOD SWAP1 SLOAD SWAP1 PUSH2 0x100 EXP SWAP1 DIV PUSH1 0xFF AND PUSH1 0xFF AND DUP4 PUSH1 0x20 ADD MLOAD PUSH2 0xAC7 SWAP2 SWAP1 PUSH2 0xD54 JUMP JUMPDEST PUSH2 0xAD1 SWAP2 SWAP1 PUSH2 0xD71 JUMP JUMPDEST SWAP1 POP PUSH1 0x40 MLOAD DUP1 PUSH1 0xE0 ADD PUSH1 0x40 MSTORE DUP1 DUP15 PUSH1 0x1 PUSH1 0x1 PUSH1 0xA0 SHL SUB AND DUP2 MSTORE PUSH1 0x20 ADD DUP4 PUSH0 ADD MLOAD DUP2 MSTORE PUSH1 0x20 ADD DUP4 PUSH1 0x20 ADD MLOAD DUP2 MSTORE PUSH1 0x20 ADD DUP3 DUP2 MSTORE PUSH1 0x20 ADD DUP9 PUSH1 0x1 PUSH1 0x1 PUSH1 0xA0 SHL SUB AND DUP2 MSTORE PUSH1 0x20 ADD DUP4 PUSH1 0x40 ADD MLOAD DUP2 MSTORE PUSH1 0x20 ADD DUP6 PUSH1 0x1 PUSH2 0xB2C SWAP2 SWAP1 PUSH2 0xDD5 JUMP JUMPDEST PUSH1 0xFF AND SWAP1 MSTORE DUP11 DUP11 PUSH2 0xB3C DUP2 PUSH2 0xD28 JUMP JUMPDEST SWAP12 POP DUP2 MLOAD DUP2 LT PUSH2 0xB4E JUMPI PUSH2 0xB4E PUSH2 0xD40 JUMP JUMPDEST PUSH1 0x20 SWAP1 DUP2 MUL SWAP2 SWAP1 SWAP2 ADD ADD MSTORE POP POP PUSH1 0x1 ADD PUSH2 0xA58 JUMP JUMPDEST POP JUMPDEST PUSH1 0x1 PUSH1 0x1 PUSH1 0xA0 SHL SUB SWAP2 DUP3 AND PUSH0 SWAP1 DUP2 MSTORE PUSH1 0x20 DUP2 SWAP1 MSTORE PUSH1 0x40 SWAP1 KECCAK256 SLOAD SWAP1 SWAP2 AND SWAP1 DUP1 PUSH2 0xB8C DUP2 PUSH2 0xD90 JUMP JUMPDEST SWAP2 POP POP PUSH2 0xA1C JUMP JUMPDEST POP POP PUSH1 0x1 SWAP1 SWAP3 ADD SWAP2 POP PUSH2 0x94B SWAP1 POP JUMP JUMPDEST POP SWAP1 SWAP5 SWAP4 POP POP POP POP JUMP JUMPDEST DUP1 CALLDATALOAD PUSH1 0x1 PUSH1 0x1 PUSH1 0xA0 SHL SUB DUP2 AND DUP2 EQ PUSH2 0xBC4 JUMPI PUSH0 PUSH0 REVERT JUMPDEST SWAP2 SWAP1 POP JUMP JUMPDEST PUSH0 PUSH0 PUSH1 0x40 DUP4 DUP6 SUB SLT ISZERO PUSH2 0xBDA JUMPI PUSH0 PUSH0 REVERT JUMPDEST PUSH2 0xBE3 DUP4 PUSH2 0xBAE JUMP JUMPDEST SWAP5 PUSH1 0x20 SWAP4 SWAP1 SWAP4 ADD CALLDATALOAD SWAP4 POP POP POP JUMP JUMPDEST PUSH0 PUSH1 0x20 DUP3 DUP5 SUB SLT ISZERO PUSH2 0xC01 JUMPI PUSH0 PUSH0 REVERT JUMPDEST POP CALLDATALOAD SWAP2 SWAP1 POP JUMP JUMPDEST PUSH0 PUSH1 0x20 DUP3 DUP5 SUB SLT ISZERO PUSH2 0xC18 JUMPI PUSH0 PUSH0 REVERT JUMPDEST PUSH2 0xC21 DUP3 PUSH2 0xBAE JUMP JUMPDEST SWAP4 SWAP3 POP POP POP JUMP JUMPDEST PUSH1 0x20 DUP1 DUP3 MSTORE DUP3 MLOAD DUP3 DUP3 ADD DUP2 SWAP1 MSTORE PUSH0 SWAP2 DUP5 ADD SWAP1 PUSH1 0x40 DUP5 ADD SWAP1 DUP4 JUMPDEST DUP2 DUP2 LT ISZERO PUSH2 0xC7B JUMPI DUP4 MLOAD DUP1 MLOAD DUP5 MSTORE PUSH1 0x20 DUP2 ADD MLOAD PUSH1 0x20 DUP6 ADD MSTORE PUSH1 0x40 DUP2 ADD MLOAD PUSH1 0x40 DUP6 ADD MSTORE POP PUSH1 0x60 DUP4 ADD SWAP3 POP PUSH1 0x20 DUP5 ADD SWAP4 POP PUSH1 0x1 DUP2 ADD SWAP1 POP PUSH2 0xC41 JUMP JUMPDEST POP SWAP1 SWAP6 SWAP5 POP POP POP POP POP JUMP JUMPDEST PUSH1 0x20 DUP1 DUP3 MSTORE DUP3 MLOAD DUP3 DUP3 ADD DUP2 SWAP1 MSTORE PUSH0 SWAP2 DUP5 ADD SWAP1 PUSH1 0x40 DUP5 ADD SWAP1 DUP4 JUMPDEST DUP2 DUP2 LT ISZERO PUSH2 0xC7B JUMPI DUP4 MLOAD PUSH1 0x1 DUP1 PUSH1 0xA0 SHL SUB DUP2 MLOAD AND DUP5 MSTORE PUSH1 0x20 DUP2 ADD MLOAD PUSH1 0x20 DUP6 ADD MSTORE PUSH1 0x40 DUP2 ADD MLOAD PUSH1 0x40 DUP6 ADD MSTORE PUSH1 0x60 DUP2 ADD MLOAD PUSH1 0x60 DUP6 ADD MSTORE PUSH1 0x1 DUP1 PUSH1 0xA0 SHL SUB PUSH1 0x80 DUP3 ADD MLOAD AND PUSH1 0x80 DUP6 ADD MSTORE PUSH1 0xA0 DUP2 ADD MLOAD PUSH1 0xA0 DUP6 ADD MSTORE PUSH1 0xFF PUSH1 0xC0 DUP3 ADD MLOAD AND PUSH1 0xC0 DUP6 ADD MSTORE POP PUSH1 0xE0 DUP4 ADD SWAP3 POP PUSH1 0x20 DUP5 ADD SWAP4 POP PUSH1 0x1 DUP2 ADD SWAP1 POP PUSH2 0xC9F JUMP JUMPDEST PUSH4 0x4E487B71 PUSH1 0xE0 SHL PUSH0 MSTORE PUSH1 0x11 PUSH1 0x4 MSTORE PUSH1 0x24 PUSH0 REVERT JUMPDEST PUSH0 PUSH1 0x1 DUP3 ADD PUSH2 0xD39 JUMPI PUSH2 0xD39 PUSH2 0xD14 JUMP JUMPDEST POP PUSH1 0x1 ADD SWAP1 JUMP JUMPDEST PUSH4 0x4E487B71 PUSH1 0xE0 SHL PUSH0 MSTORE PUSH1 0x32 PUSH1 0x4 MSTORE PUSH1 0x24 PUSH0 REVERT JUMPDEST DUP1 DUP3 MUL DUP2 ISZERO DUP3 DUP3 DIV DUP5 EQ OR PUSH2 0xD6B JUMPI PUSH2 0xD6B PUSH2 0xD14 JUMP JUMPDEST SWAP3 SWAP2 POP POP JUMP JUMPDEST PUSH0 DUP3 PUSH2 0xD8B JUMPI PUSH4 0x4E487B71 PUSH1 0xE0 SHL PUSH0 MSTORE PUSH1 0x12 PUSH1 0x4 MSTORE PUSH1 0x24 PUSH0 REVERT JUMPDEST POP DIV SWAP1 JUMP JUMPDEST PUSH0 PUSH1 0xFF DUP3 AND PUSH1 0xFF DUP2 SUB PUSH2 0xDA5 JUMPI PUSH2 0xDA5 PUSH2 0xD14 JUMP JUMPDEST PUSH1 0x1 ADD SWAP3 SWAP2 POP POP JUMP JUMPDEST DUP1 DUP3 ADD DUP1 DUP3 GT ISZERO PUSH2 0xD6B JUMPI PUSH2 0xD6B PUSH2 0xD14 JUMP JUMPDEST PUSH4 0x4E487B71 PUSH1 0xE0 SHL PUSH0 MSTORE PUSH1 0x41 PUSH1 0x4 MSTORE PUSH1 0x24 PUSH0 REVERT JUMPDEST PUSH1 0xFF DUP2 DUP2 AND DUP4 DUP3 AND ADD SWAP1 DUP2 GT ISZERO PUSH2 0xD6B JUMPI PUSH2 0xD6B PUSH2 0xD14 JUMP INVALID LOG2 PUSH5 0x6970667358 0x22 SLT KECCAK256 0xEA 0x2F 0xBA 0xC1 SWAP10 0x29 SWAP11 CALLF 0x8930 0xE2 PUSH31 0xBD36CA56A3EB58494C8ABFD282CD120907CBECF064736F6C634300081E0033 "
				},
				"gasEstimates": {
					"creation": {
						"codeDepositCost": "724000",
						"executionCost": "infinite",
						"totalCost": "infinite"
					},
					"external": {
						"allUsers(uint256)": "4678",
						"directReferrals(address,uint256)": "9057",
						"getLevelIncomeDistribution(address)": "infinite",
						"getTotalUsers()": "2336",
						"getUserStakes(address)": "infinite",
						"levelRewards(uint256)": "6279",
						"nextPositionId()": "2317",
						"nextStakeId()": "2383",
						"positionIdToUser(uint256)": "2497",
						"register(address)": "75396",
						"stake()": "infinite",
						"stakeCounter()": "2382",
						"users(address)": "9032"
					}
				},
				"methodIdentifiers": {
					"allUsers(uint256)": "a2bdedf4",
					"directReferrals(address,uint256)": "05ad3935",
					"getLevelIncomeDistribution(address)": "ef71ae56",
					"getTotalUsers()": "9be572f6",
					"getUserStakes(address)": "842e2981",
					"levelRewards(uint256)": "e45a57d0",
					"nextPositionId()": "899346c7",
					"nextStakeId()": "75506c96",
					"positionIdToUser(uint256)": "1e43eb27",
					"register(address)": "4420e486",
					"stake()": "3a4b66f1",
					"stakeCounter()": "f7b17d10",
					"users(address)": "a87430ba"
				}
			},
			"storageLayout": {
				"storage": [
					{
						"astId": 50,
						"contract": "contracts/3_Ballot.sol:MLMStaking",
						"label": "users",
						"offset": 0,
						"slot": "0",
						"type": "t_mapping(t_address,t_struct(User)23_storage)"
					},
					{
						"astId": 56,
						"contract": "contracts/3_Ballot.sol:MLMStaking",
						"label": "directReferrals",
						"offset": 0,
						"slot": "1",
						"type": "t_mapping(t_address,t_array(t_struct(ReferralInfo)30_storage)dyn_storage)"
					},
					{
						"astId": 60,
						"contract": "contracts/3_Ballot.sol:MLMStaking",
						"label": "positionIdToUser",
						"offset": 0,
						"slot": "2",
						"type": "t_mapping(t_uint256,t_address)"
					},
					{
						"astId": 63,
						"contract": "contracts/3_Ballot.sol:MLMStaking",
						"label": "allUsers",
						"offset": 0,
						"slot": "3",
						"type": "t_array(t_address)dyn_storage"
					},
					{
						"astId": 65,
						"contract": "contracts/3_Ballot.sol:MLMStaking",
						"label": "stakeCounter",
						"offset": 0,
						"slot": "4",
						"type": "t_uint256"
					},
					{
						"astId": 67,
						"contract": "contracts/3_Ballot.sol:MLMStaking",
						"label": "nextStakeId",
						"offset": 0,
						"slot": "5",
						"type": "t_uint256"
					},
					{
						"astId": 69,
						"contract": "contracts/3_Ballot.sol:MLMStaking",
						"label": "nextPositionId",
						"offset": 0,
						"slot": "6",
						"type": "t_uint256"
					},
					{
						"astId": 76,
						"contract": "contracts/3_Ballot.sol:MLMStaking",
						"label": "levelRewards",
						"offset": 0,
						"slot": "7",
						"type": "t_array(t_uint8)dyn_storage"
					}
				],
				"types": {
					"t_address": {
						"encoding": "inplace",
						"label": "address",
						"numberOfBytes": "20"
					},
					"t_array(t_address)dyn_storage": {
						"base": "t_address",
						"encoding": "dynamic_array",
						"label": "address[]",
						"numberOfBytes": "32"
					},
					"t_array(t_struct(ReferralInfo)30_storage)dyn_storage": {
						"base": "t_struct(ReferralInfo)30_storage",
						"encoding": "dynamic_array",
						"label": "struct MLMStaking.ReferralInfo[]",
						"numberOfBytes": "32"
					},
					"t_array(t_struct(Stake)8_storage)dyn_storage": {
						"base": "t_struct(Stake)8_storage",
						"encoding": "dynamic_array",
						"label": "struct MLMStaking.Stake[]",
						"numberOfBytes": "32"
					},
					"t_array(t_uint8)dyn_storage": {
						"base": "t_uint8",
						"encoding": "dynamic_array",
						"label": "uint8[]",
						"numberOfBytes": "32"
					},
					"t_bool": {
						"encoding": "inplace",
						"label": "bool",
						"numberOfBytes": "1"
					},
					"t_mapping(t_address,t_array(t_struct(ReferralInfo)30_storage)dyn_storage)": {
						"encoding": "mapping",
						"key": "t_address",
						"label": "mapping(address => struct MLMStaking.ReferralInfo[])",
						"numberOfBytes": "32",
						"value": "t_array(t_struct(ReferralInfo)30_storage)dyn_storage"
					},
					"t_mapping(t_address,t_struct(User)23_storage)": {
						"encoding": "mapping",
						"key": "t_address",
						"label": "mapping(address => struct MLMStaking.User)",
						"numberOfBytes": "32",
						"value": "t_struct(User)23_storage"
					},
					"t_mapping(t_uint256,t_address)": {
						"encoding": "mapping",
						"key": "t_uint256",
						"label": "mapping(uint256 => address)",
						"numberOfBytes": "32",
						"value": "t_address"
					},
					"t_struct(ReferralInfo)30_storage": {
						"encoding": "inplace",
						"label": "struct MLMStaking.ReferralInfo",
						"members": [
							{
								"astId": 25,
								"contract": "contracts/3_Ballot.sol:MLMStaking",
								"label": "referralAddress",
								"offset": 0,
								"slot": "0",
								"type": "t_address"
							},
							{
								"astId": 27,
								"contract": "contracts/3_Ballot.sol:MLMStaking",
								"label": "incomeEarned",
								"offset": 0,
								"slot": "1",
								"type": "t_uint256"
							},
							{
								"astId": 29,
								"contract": "contracts/3_Ballot.sol:MLMStaking",
								"label": "timestamp",
								"offset": 0,
								"slot": "2",
								"type": "t_uint256"
							}
						],
						"numberOfBytes": "96"
					},
					"t_struct(Stake)8_storage": {
						"encoding": "inplace",
						"label": "struct MLMStaking.Stake",
						"members": [
							{
								"astId": 3,
								"contract": "contracts/3_Ballot.sol:MLMStaking",
								"label": "stakeId",
								"offset": 0,
								"slot": "0",
								"type": "t_uint256"
							},
							{
								"astId": 5,
								"contract": "contracts/3_Ballot.sol:MLMStaking",
								"label": "amount",
								"offset": 0,
								"slot": "1",
								"type": "t_uint256"
							},
							{
								"astId": 7,
								"contract": "contracts/3_Ballot.sol:MLMStaking",
								"label": "timestamp",
								"offset": 0,
								"slot": "2",
								"type": "t_uint256"
							}
						],
						"numberOfBytes": "96"
					},
					"t_struct(User)23_storage": {
						"encoding": "inplace",
						"label": "struct MLMStaking.User",
						"members": [
							{
								"astId": 10,
								"contract": "contracts/3_Ballot.sol:MLMStaking",
								"label": "referrer",
								"offset": 0,
								"slot": "0",
								"type": "t_address"
							},
							{
								"astId": 12,
								"contract": "contracts/3_Ballot.sol:MLMStaking",
								"label": "registered",
								"offset": 20,
								"slot": "0",
								"type": "t_bool"
							},
							{
								"astId": 16,
								"contract": "contracts/3_Ballot.sol:MLMStaking",
								"label": "stakes",
								"offset": 0,
								"slot": "1",
								"type": "t_array(t_struct(Stake)8_storage)dyn_storage"
							},
							{
								"astId": 18,
								"contract": "contracts/3_Ballot.sol:MLMStaking",
								"label": "totalIncome",
								"offset": 0,
								"slot": "2",
								"type": "t_uint256"
							},
							{
								"astId": 20,
								"contract": "contracts/3_Ballot.sol:MLMStaking",
								"label": "directReferralIncome",
								"offset": 0,
								"slot": "3",
								"type": "t_uint256"
							},
							{
								"astId": 22,
								"contract": "contracts/3_Ballot.sol:MLMStaking",
								"label": "levelIncome",
								"offset": 0,
								"slot": "4",
								"type": "t_uint256"
							}
						],
						"numberOfBytes": "160"
					},
					"t_uint256": {
						"encoding": "inplace",
						"label": "uint256",
						"numberOfBytes": "32"
					},
					"t_uint8": {
						"encoding": "inplace",
						"label": "uint8",
						"numberOfBytes": "1"
					}
				}
			},
			"userdoc": {
				"kind": "user",
				"methods": {},
				"version": 1
			}
		}
	}
}