{
	"contracts/mlm.sol": {
		"MLMStaking": {
			"abi": [
				{
					"inputs": [
						{
							"internalType": "address",
							"name": "_owner",
							"type": "address"
						}
					],
					"stateMutability": "nonpayable",
					"type": "constructor"
				},
				{
					"anonymous": false,
					"inputs": [
						{
							"indexed": true,
							"internalType": "address",
							"name": "user",
							"type": "address"
						},
						{
							"indexed": true,
							"internalType": "address",
							"name": "referrer",
							"type": "address"
						}
					],
					"name": "Registered",
					"type": "event"
				},
				{
					"anonymous": false,
					"inputs": [
						{
							"indexed": true,
							"internalType": "address",
							"name": "user",
							"type": "address"
						},
						{
							"indexed": true,
							"internalType": "uint256",
							"name": "stakeId",
							"type": "uint256"
						},
						{
							"indexed": true,
							"internalType": "uint256",
							"name": "positionId",
							"type": "uint256"
						},
						{
							"indexed": false,
							"internalType": "uint256",
							"name": "amount",
							"type": "uint256"
						},
						{
							"indexed": false,
							"internalType": "uint256",
							"name": "timestamp",
							"type": "uint256"
						}
					],
					"name": "Staked",
					"type": "event"
				},
				{
					"inputs": [
						{
							"internalType": "address",
							"name": "",
							"type": "address"
						}
					],
					"name": "directReferralCount",
					"outputs": [
						{
							"internalType": "uint256",
							"name": "",
							"type": "uint256"
						}
					],
					"stateMutability": "view",
					"type": "function"
				},
				{
					"inputs": [
						{
							"internalType": "address",
							"name": "",
							"type": "address"
						}
					],
					"name": "directReferralIncome",
					"outputs": [
						{
							"internalType": "uint256",
							"name": "",
							"type": "uint256"
						}
					],
					"stateMutability": "view",
					"type": "function"
				},
				{
					"inputs": [
						{
							"internalType": "address",
							"name": "user",
							"type": "address"
						}
					],
					"name": "getDirectReferralCount",
					"outputs": [
						{
							"internalType": "uint256",
							"name": "",
							"type": "uint256"
						}
					],
					"stateMutability": "view",
					"type": "function"
				},
				{
					"inputs": [
						{
							"internalType": "address",
							"name": "user",
							"type": "address"
						}
					],
					"name": "getDirectReferralIncome",
					"outputs": [
						{
							"internalType": "uint256",
							"name": "",
							"type": "uint256"
						}
					],
					"stateMutability": "view",
					"type": "function"
				},
				{
					"inputs": [
						{
							"internalType": "address",
							"name": "_user",
							"type": "address"
						}
					],
					"name": "getPositionIds",
					"outputs": [
						{
							"internalType": "uint256[]",
							"name": "",
							"type": "uint256[]"
						}
					],
					"stateMutability": "view",
					"type": "function"
				},
				{
					"inputs": [
						{
							"internalType": "uint256",
							"name": "_positionId",
							"type": "uint256"
						}
					],
					"name": "getStakeByPositionId",
					"outputs": [
						{
							"internalType": "address",
							"name": "user",
							"type": "address"
						},
						{
							"internalType": "uint256",
							"name": "stakeId",
							"type": "uint256"
						},
						{
							"internalType": "uint256",
							"name": "amount",
							"type": "uint256"
						},
						{
							"internalType": "uint256",
							"name": "timestamp",
							"type": "uint256"
						}
					],
					"stateMutability": "view",
					"type": "function"
				},
				{
					"inputs": [
						{
							"internalType": "address",
							"name": "user",
							"type": "address"
						}
					],
					"name": "getTotalIncome",
					"outputs": [
						{
							"internalType": "uint256",
							"name": "",
							"type": "uint256"
						}
					],
					"stateMutability": "view",
					"type": "function"
				},
				{
					"inputs": [
						{
							"internalType": "address",
							"name": "user",
							"type": "address"
						}
					],
					"name": "getUserLevel",
					"outputs": [
						{
							"internalType": "uint256",
							"name": "",
							"type": "uint256"
						}
					],
					"stateMutability": "view",
					"type": "function"
				},
				{
					"inputs": [
						{
							"internalType": "uint256",
							"name": "",
							"type": "uint256"
						}
					],
					"name": "levelRewards",
					"outputs": [
						{
							"internalType": "uint8",
							"name": "",
							"type": "uint8"
						}
					],
					"stateMutability": "view",
					"type": "function"
				},
				{
					"inputs": [],
					"name": "nextPositionId",
					"outputs": [
						{
							"internalType": "uint256",
							"name": "",
							"type": "uint256"
						}
					],
					"stateMutability": "view",
					"type": "function"
				},
				{
					"inputs": [],
					"name": "nextStakeId",
					"outputs": [
						{
							"internalType": "uint256",
							"name": "",
							"type": "uint256"
						}
					],
					"stateMutability": "view",
					"type": "function"
				},
				{
					"inputs": [],
					"name": "owner",
					"outputs": [
						{
							"internalType": "address",
							"name": "",
							"type": "address"
						}
					],
					"stateMutability": "view",
					"type": "function"
				},
				{
					"inputs": [
						{
							"internalType": "uint256",
							"name": "",
							"type": "uint256"
						}
					],
					"name": "positionIdToUser",
					"outputs": [
						{
							"internalType": "address",
							"name": "",
							"type": "address"
						}
					],
					"stateMutability": "view",
					"type": "function"
				},
				{
					"inputs": [
						{
							"internalType": "address",
							"name": "_referrer",
							"type": "address"
						}
					],
					"name": "register",
					"outputs": [],
					"stateMutability": "nonpayable",
					"type": "function"
				},
				{
					"inputs": [],
					"name": "stake",
					"outputs": [],
					"stateMutability": "payable",
					"type": "function"
				},
				{
					"inputs": [
						{
							"internalType": "address",
							"name": "",
							"type": "address"
						}
					],
					"name": "totalIncome",
					"outputs": [
						{
							"internalType": "uint256",
							"name": "",
							"type": "uint256"
						}
					],
					"stateMutability": "view",
					"type": "function"
				},
				{
					"inputs": [
						{
							"internalType": "address",
							"name": "",
							"type": "address"
						}
					],
					"name": "users",
					"outputs": [
						{
							"internalType": "address",
							"name": "referrer",
							"type": "address"
						},
						{
							"internalType": "bool",
							"name": "registered",
							"type": "bool"
						}
					],
					"stateMutability": "view",
					"type": "function"
				},
				{
					"inputs": [
						{
							"internalType": "uint256",
							"name": "amount",
							"type": "uint256"
						}
					],
					"name": "withdraw",
					"outputs": [],
					"stateMutability": "nonpayable",
					"type": "function"
				},
				{
					"stateMutability": "payable",
					"type": "receive"
				}
			],
			"devdoc": {
				"kind": "dev",
				"methods": {},
				"version": 1
			},
			"evm": {
				"assembly": "    /* \"contracts/mlm.sol\":57:5347  contract MLMStaking {... */\n  mstore(0x40, 0x80)\n    /* \"contracts/mlm.sol\":441:481  uint8[3] public levelRewards = [5, 3, 2] */\n  mload(0x40)\n  dup1\n  0x60\n  add\n  0x40\n  mstore\n  dup1\n    /* \"contracts/mlm.sol\":473:474  5 */\n  0x05\n    /* \"contracts/mlm.sol\":441:481  uint8[3] public levelRewards = [5, 3, 2] */\n  0xff\n  and\n  dup2\n  mstore\n  0x20\n  add\n    /* \"contracts/mlm.sol\":476:477  3 */\n  0x03\n    /* \"contracts/mlm.sol\":441:481  uint8[3] public levelRewards = [5, 3, 2] */\n  0xff\n  and\n  dup2\n  mstore\n  0x20\n  add\n    /* \"contracts/mlm.sol\":479:480  2 */\n  0x02\n    /* \"contracts/mlm.sol\":441:481  uint8[3] public levelRewards = [5, 3, 2] */\n  0xff\n  and\n  dup2\n  mstore\n  pop\n  0x03\n  swap1\n  0x03\n  tag_1\n  swap3\n  swap2\n  swap1\n  tag_2\n  jump\t// in\ntag_1:\n  pop\n    /* \"contracts/mlm.sol\":1042:1212  constructor(address _owner) {... */\n  callvalue\n  dup1\n  iszero\n  tag_3\n  jumpi\n  0x00\n  dup1\n  revert\ntag_3:\n  pop\n  mload(0x40)\n  sub(codesize, bytecodeSize)\n  dup1\n  bytecodeSize\n  dup4\n  codecopy\n  dup2\n  dup2\n  add\n  0x40\n  mstore\n  dup2\n  add\n  swap1\n  tag_4\n  swap2\n  swap1\n  tag_5\n  jump\t// in\ntag_4:\n    /* \"contracts/mlm.sol\":1106:1107  0 */\n  0x00\n    /* \"contracts/mlm.sol\":1088:1108  _owner != address(0) */\n  0xffffffffffffffffffffffffffffffffffffffff\n  and\n    /* \"contracts/mlm.sol\":1088:1094  _owner */\n  dup2\n    /* \"contracts/mlm.sol\":1088:1108  _owner != address(0) */\n  0xffffffffffffffffffffffffffffffffffffffff\n  and\n  sub\n    /* \"contracts/mlm.sol\":1080:1141  require(_owner != address(0), \"Owner address cannot be zero\") */\n  tag_8\n  jumpi\n  mload(0x40)\n  0x08c379a000000000000000000000000000000000000000000000000000000000\n  dup2\n  mstore\n  0x04\n  add\n  tag_9\n  swap1\n  tag_10\n  jump\t// in\ntag_9:\n  mload(0x40)\n  dup1\n  swap2\n  sub\n  swap1\n  revert\ntag_8:\n    /* \"contracts/mlm.sol\":1159:1165  _owner */\n  dup1\n    /* \"contracts/mlm.sol\":1151:1156  owner */\n  0x00\n  dup1\n    /* \"contracts/mlm.sol\":1151:1165  owner = _owner */\n  0x0100\n  exp\n  dup2\n  sload\n  dup2\n  0xffffffffffffffffffffffffffffffffffffffff\n  mul\n  not\n  and\n  swap1\n  dup4\n  0xffffffffffffffffffffffffffffffffffffffff\n  and\n  mul\n  or\n  swap1\n  sstore\n  pop\n    /* \"contracts/mlm.sol\":1201:1205  true */\n  0x01\n    /* \"contracts/mlm.sol\":1175:1180  users */\n  dup1\n    /* \"contracts/mlm.sol\":1175:1187  users[owner] */\n  0x00\n    /* \"contracts/mlm.sol\":1181:1186  owner */\n  dup1\n  0x00\n  swap1\n  sload\n  swap1\n  0x0100\n  exp\n  swap1\n  div\n  0xffffffffffffffffffffffffffffffffffffffff\n  and\n    /* \"contracts/mlm.sol\":1175:1187  users[owner] */\n  0xffffffffffffffffffffffffffffffffffffffff\n  and\n  0xffffffffffffffffffffffffffffffffffffffff\n  and\n  dup2\n  mstore\n  0x20\n  add\n  swap1\n  dup2\n  mstore\n  0x20\n  add\n  0x00\n  keccak256\n    /* \"contracts/mlm.sol\":1175:1198  users[owner].registered */\n  0x00\n  add\n  0x14\n    /* \"contracts/mlm.sol\":1175:1205  users[owner].registered = true */\n  0x0100\n  exp\n  dup2\n  sload\n  dup2\n  0xff\n  mul\n  not\n  and\n  swap1\n  dup4\n  iszero\n  iszero\n  mul\n  or\n  swap1\n  sstore\n  pop\n    /* \"contracts/mlm.sol\":1042:1212  constructor(address _owner) {... */\n  pop\n    /* \"contracts/mlm.sol\":57:5347  contract MLMStaking {... */\n  jump(tag_11)\ntag_2:\n  dup3\n  add(0x1f, 0x03)\n  0x20\n  swap1\n  div\n  dup2\n  add\n  swap3\n  dup3\n  iszero\n  tag_12\n  jumpi\n  swap2\n  0x20\n  mul\n  dup3\n  add\n  0x00\ntag_13:\n  dup4\n  dup3\n  gt\n  iszero\n  tag_14\n  jumpi\n  dup4\n  mload\n  dup4\n  dup3\n  0x0100\n  exp\n  dup2\n  sload\n  dup2\n  0xff\n  mul\n  not\n  and\n  swap1\n  dup4\n  0xff\n  and\n  mul\n  or\n  swap1\n  sstore\n  pop\n  swap3\n  0x20\n  add\n  swap3\n  0x01\n  add\n  0x20\n  dup2\n  0x00\n  add\n  div\n  swap3\n  dup4\n  add\n  swap3\n  0x01\n  sub\n  mul\n  jump(tag_13)\ntag_14:\n  dup1\n  iszero\n  tag_15\n  jumpi\n  dup3\n  dup2\n  0x0100\n  exp\n  dup2\n  sload\n  swap1\n  0xff\n  mul\n  not\n  and\n  swap1\n  sstore\n  0x01\n  add\n  0x20\n  dup2\n  0x00\n  add\n  div\n  swap3\n  dup4\n  add\n  swap3\n  0x01\n  sub\n  mul\n  jump(tag_14)\ntag_15:\n  pop\ntag_12:\n  pop\n  swap1\n  pop\n  tag_16\n  swap2\n  swap1\n  tag_17\n  jump\t// in\ntag_16:\n  pop\n  swap1\n  jump\t// out\ntag_17:\ntag_18:\n  dup1\n  dup3\n  gt\n  iszero\n  tag_19\n  jumpi\n  0x00\n  dup2\n  0x00\n  swap1\n  sstore\n  pop\n  0x01\n  add\n  jump(tag_18)\ntag_19:\n  pop\n  swap1\n  jump\t// out\n    /* \"#utility.yul\":88:205   */\ntag_21:\n    /* \"#utility.yul\":197:198   */\n  0x00\n    /* \"#utility.yul\":194:195   */\n  dup1\n    /* \"#utility.yul\":187:199   */\n  revert\n    /* \"#utility.yul\":334:460   */\ntag_23:\n    /* \"#utility.yul\":371:378   */\n  0x00\n    /* \"#utility.yul\":411:453   */\n  0xffffffffffffffffffffffffffffffffffffffff\n    /* \"#utility.yul\":404:409   */\n  dup3\n    /* \"#utility.yul\":400:454   */\n  and\n    /* \"#utility.yul\":389:454   */\n  swap1\n  pop\n    /* \"#utility.yul\":334:460   */\n  swap2\n  swap1\n  pop\n  jump\t// out\n    /* \"#utility.yul\":466:562   */\ntag_24:\n    /* \"#utility.yul\":503:510   */\n  0x00\n    /* \"#utility.yul\":532:556   */\n  tag_36\n    /* \"#utility.yul\":550:555   */\n  dup3\n    /* \"#utility.yul\":532:556   */\n  tag_23\n  jump\t// in\ntag_36:\n    /* \"#utility.yul\":521:556   */\n  swap1\n  pop\n    /* \"#utility.yul\":466:562   */\n  swap2\n  swap1\n  pop\n  jump\t// out\n    /* \"#utility.yul\":568:690   */\ntag_25:\n    /* \"#utility.yul\":641:665   */\n  tag_38\n    /* \"#utility.yul\":659:664   */\n  dup2\n    /* \"#utility.yul\":641:665   */\n  tag_24\n  jump\t// in\ntag_38:\n    /* \"#utility.yul\":634:639   */\n  dup2\n    /* \"#utility.yul\":631:666   */\n  eq\n    /* \"#utility.yul\":621:684   */\n  tag_39\n  jumpi\n    /* \"#utility.yul\":680:681   */\n  0x00\n    /* \"#utility.yul\":677:678   */\n  dup1\n    /* \"#utility.yul\":670:682   */\n  revert\n    /* \"#utility.yul\":621:684   */\ntag_39:\n    /* \"#utility.yul\":568:690   */\n  pop\n  jump\t// out\n    /* \"#utility.yul\":696:839   */\ntag_26:\n    /* \"#utility.yul\":753:758   */\n  0x00\n    /* \"#utility.yul\":784:790   */\n  dup2\n    /* \"#utility.yul\":778:791   */\n  mload\n    /* \"#utility.yul\":769:791   */\n  swap1\n  pop\n    /* \"#utility.yul\":800:833   */\n  tag_41\n    /* \"#utility.yul\":827:832   */\n  dup2\n    /* \"#utility.yul\":800:833   */\n  tag_25\n  jump\t// in\ntag_41:\n    /* \"#utility.yul\":696:839   */\n  swap3\n  swap2\n  pop\n  pop\n  jump\t// out\n    /* \"#utility.yul\":845:1196   */\ntag_5:\n    /* \"#utility.yul\":915:921   */\n  0x00\n    /* \"#utility.yul\":964:966   */\n  0x20\n    /* \"#utility.yul\":952:961   */\n  dup3\n    /* \"#utility.yul\":943:950   */\n  dup5\n    /* \"#utility.yul\":939:962   */\n  sub\n    /* \"#utility.yul\":935:967   */\n  slt\n    /* \"#utility.yul\":932:1051   */\n  iszero\n  tag_43\n  jumpi\n    /* \"#utility.yul\":970:1049   */\n  tag_44\n  tag_21\n  jump\t// in\ntag_44:\n    /* \"#utility.yul\":932:1051   */\ntag_43:\n    /* \"#utility.yul\":1090:1091   */\n  0x00\n    /* \"#utility.yul\":1115:1179   */\n  tag_45\n    /* \"#utility.yul\":1171:1178   */\n  dup5\n    /* \"#utility.yul\":1162:1168   */\n  dup3\n    /* \"#utility.yul\":1151:1160   */\n  dup6\n    /* \"#utility.yul\":1147:1169   */\n  add\n    /* \"#utility.yul\":1115:1179   */\n  tag_26\n  jump\t// in\ntag_45:\n    /* \"#utility.yul\":1105:1179   */\n  swap2\n  pop\n    /* \"#utility.yul\":1061:1189   */\n  pop\n    /* \"#utility.yul\":845:1196   */\n  swap3\n  swap2\n  pop\n  pop\n  jump\t// out\n    /* \"#utility.yul\":1202:1371   */\ntag_27:\n    /* \"#utility.yul\":1286:1297   */\n  0x00\n    /* \"#utility.yul\":1320:1326   */\n  dup3\n    /* \"#utility.yul\":1315:1318   */\n  dup3\n    /* \"#utility.yul\":1308:1327   */\n  mstore\n    /* \"#utility.yul\":1360:1364   */\n  0x20\n    /* \"#utility.yul\":1355:1358   */\n  dup3\n    /* \"#utility.yul\":1351:1365   */\n  add\n    /* \"#utility.yul\":1336:1365   */\n  swap1\n  pop\n    /* \"#utility.yul\":1202:1371   */\n  swap3\n  swap2\n  pop\n  pop\n  jump\t// out\n    /* \"#utility.yul\":1377:1555   */\ntag_28:\n    /* \"#utility.yul\":1517:1547   */\n  0x4f776e657220616464726573732063616e6e6f74206265207a65726f00000000\n    /* \"#utility.yul\":1513:1514   */\n  0x00\n    /* \"#utility.yul\":1505:1511   */\n  dup3\n    /* \"#utility.yul\":1501:1515   */\n  add\n    /* \"#utility.yul\":1494:1548   */\n  mstore\n    /* \"#utility.yul\":1377:1555   */\n  pop\n  jump\t// out\n    /* \"#utility.yul\":1561:1927   */\ntag_29:\n    /* \"#utility.yul\":1703:1706   */\n  0x00\n    /* \"#utility.yul\":1724:1791   */\n  tag_49\n    /* \"#utility.yul\":1788:1790   */\n  0x1c\n    /* \"#utility.yul\":1783:1786   */\n  dup4\n    /* \"#utility.yul\":1724:1791   */\n  tag_27\n  jump\t// in\ntag_49:\n    /* \"#utility.yul\":1717:1791   */\n  swap2\n  pop\n    /* \"#utility.yul\":1800:1893   */\n  tag_50\n    /* \"#utility.yul\":1889:1892   */\n  dup3\n    /* \"#utility.yul\":1800:1893   */\n  tag_28\n  jump\t// in\ntag_50:\n    /* \"#utility.yul\":1918:1920   */\n  0x20\n    /* \"#utility.yul\":1913:1916   */\n  dup3\n    /* \"#utility.yul\":1909:1921   */\n  add\n    /* \"#utility.yul\":1902:1921   */\n  swap1\n  pop\n    /* \"#utility.yul\":1561:1927   */\n  swap2\n  swap1\n  pop\n  jump\t// out\n    /* \"#utility.yul\":1933:2352   */\ntag_10:\n    /* \"#utility.yul\":2099:2103   */\n  0x00\n    /* \"#utility.yul\":2137:2139   */\n  0x20\n    /* \"#utility.yul\":2126:2135   */\n  dup3\n    /* \"#utility.yul\":2122:2140   */\n  add\n    /* \"#utility.yul\":2114:2140   */\n  swap1\n  pop\n    /* \"#utility.yul\":2186:2195   */\n  dup2\n    /* \"#utility.yul\":2180:2184   */\n  dup2\n    /* \"#utility.yul\":2176:2196   */\n  sub\n    /* \"#utility.yul\":2172:2173   */\n  0x00\n    /* \"#utility.yul\":2161:2170   */\n  dup4\n    /* \"#utility.yul\":2157:2174   */\n  add\n    /* \"#utility.yul\":2150:2197   */\n  mstore\n    /* \"#utility.yul\":2214:2345   */\n  tag_52\n    /* \"#utility.yul\":2340:2344   */\n  dup2\n    /* \"#utility.yul\":2214:2345   */\n  tag_29\n  jump\t// in\ntag_52:\n    /* \"#utility.yul\":2206:2345   */\n  swap1\n  pop\n    /* \"#utility.yul\":1933:2352   */\n  swap2\n  swap1\n  pop\n  jump\t// out\n    /* \"contracts/mlm.sol\":57:5347  contract MLMStaking {... */\ntag_11:\n  dataSize(sub_0)\n  dup1\n  dataOffset(sub_0)\n  0x00\n  codecopy\n  0x00\n  return\nstop\n\nsub_0: assembly {\n        /* \"contracts/mlm.sol\":57:5347  contract MLMStaking {... */\n      mstore(0x40, 0x80)\n      jumpi(tag_1, lt(calldatasize, 0x04))\n      shr(0xe0, calldataload(0x00))\n      dup1\n      0x899346c7\n      gt\n      tag_21\n      jumpi\n      dup1\n      0xaa7ed462\n      gt\n      tag_22\n      jumpi\n      dup1\n      0xaa7ed462\n      eq\n      tag_16\n      jumpi\n      dup1\n      0xb77b7dc9\n      eq\n      tag_17\n      jumpi\n      dup1\n      0xc2d3c677\n      eq\n      tag_18\n      jumpi\n      dup1\n      0xe45a57d0\n      eq\n      tag_19\n      jumpi\n      dup1\n      0xf6e88873\n      eq\n      tag_20\n      jumpi\n      jump(tag_2)\n    tag_22:\n      dup1\n      0x899346c7\n      eq\n      tag_12\n      jumpi\n      dup1\n      0x8da5cb5b\n      eq\n      tag_13\n      jumpi\n      dup1\n      0x98278efb\n      eq\n      tag_14\n      jumpi\n      dup1\n      0xa87430ba\n      eq\n      tag_15\n      jumpi\n      jump(tag_2)\n    tag_21:\n      dup1\n      0x3a4b66f1\n      gt\n      tag_23\n      jumpi\n      dup1\n      0x3a4b66f1\n      eq\n      tag_7\n      jumpi\n      dup1\n      0x4420e486\n      eq\n      tag_8\n      jumpi\n      dup1\n      0x75506c96\n      eq\n      tag_9\n      jumpi\n      dup1\n      0x797c7f5f\n      eq\n      tag_10\n      jumpi\n      dup1\n      0x862ba05f\n      eq\n      tag_11\n      jumpi\n      jump(tag_2)\n    tag_23:\n      dup1\n      0x1e43eb27\n      eq\n      tag_3\n      jumpi\n      dup1\n      0x21923bde\n      eq\n      tag_4\n      jumpi\n      dup1\n      0x28fe7031\n      eq\n      tag_5\n      jumpi\n      dup1\n      0x2e1a7d4d\n      eq\n      tag_6\n      jumpi\n      jump(tag_2)\n    tag_1:\n      jumpi(tag_2, calldatasize)\n      stop\n    tag_2:\n      0x00\n      dup1\n      revert\n        /* \"contracts/mlm.sol\":383:434  mapping(uint256 => address) public positionIdToUser */\n    tag_3:\n      callvalue\n      dup1\n      iszero\n      tag_26\n      jumpi\n      0x00\n      dup1\n      revert\n    tag_26:\n      pop\n      tag_27\n      0x04\n      dup1\n      calldatasize\n      sub\n      dup2\n      add\n      swap1\n      tag_28\n      swap2\n      swap1\n      tag_29\n      jump\t// in\n    tag_28:\n      tag_30\n      jump\t// in\n    tag_27:\n      mload(0x40)\n      tag_31\n      swap2\n      swap1\n      tag_32\n      jump\t// in\n    tag_31:\n      mload(0x40)\n      dup1\n      swap2\n      sub\n      swap1\n      return\n        /* \"contracts/mlm.sol\":4116:4603  function getUserLevel(address user) external view returns (uint256) {... */\n    tag_4:\n      callvalue\n      dup1\n      iszero\n      tag_33\n      jumpi\n      0x00\n      dup1\n      revert\n    tag_33:\n      pop\n      tag_34\n      0x04\n      dup1\n      calldatasize\n      sub\n      dup2\n      add\n      swap1\n      tag_35\n      swap2\n      swap1\n      tag_36\n      jump\t// in\n    tag_35:\n      tag_37\n      jump\t// in\n    tag_34:\n      mload(0x40)\n      tag_38\n      swap2\n      swap1\n      tag_39\n      jump\t// in\n    tag_38:\n      mload(0x40)\n      dup1\n      swap2\n      sub\n      swap1\n      return\n        /* \"contracts/mlm.sol\":3748:4113  function getPositionIds(address _user) external view returns (uint256[] memory) {... */\n    tag_5:\n      callvalue\n      dup1\n      iszero\n      tag_40\n      jumpi\n      0x00\n      dup1\n      revert\n    tag_40:\n      pop\n      tag_41\n      0x04\n      dup1\n      calldatasize\n      sub\n      dup2\n      add\n      swap1\n      tag_42\n      swap2\n      swap1\n      tag_36\n      jump\t// in\n    tag_42:\n      tag_43\n      jump\t// in\n    tag_41:\n      mload(0x40)\n      tag_44\n      swap2\n      swap1\n      tag_45\n      jump\t// in\n    tag_44:\n      mload(0x40)\n      dup1\n      swap2\n      sub\n      swap1\n      return\n        /* \"contracts/mlm.sol\":5047:5286  function withdraw(uint256 amount) external {... */\n    tag_6:\n      callvalue\n      dup1\n      iszero\n      tag_46\n      jumpi\n      0x00\n      dup1\n      revert\n    tag_46:\n      pop\n      tag_47\n      0x04\n      dup1\n      calldatasize\n      sub\n      dup2\n      add\n      swap1\n      tag_48\n      swap2\n      swap1\n      tag_29\n      jump\t// in\n    tag_48:\n      tag_49\n      jump\t// in\n    tag_47:\n      stop\n        /* \"contracts/mlm.sol\":1836:3050  function stake() external payable onlyRegistered {... */\n    tag_7:\n      tag_50\n      tag_51\n      jump\t// in\n    tag_50:\n      stop\n        /* \"contracts/mlm.sol\":1338:1830  function register(address _referrer) external {... */\n    tag_8:\n      callvalue\n      dup1\n      iszero\n      tag_52\n      jumpi\n      0x00\n      dup1\n      revert\n    tag_52:\n      pop\n      tag_53\n      0x04\n      dup1\n      calldatasize\n      sub\n      dup2\n      add\n      swap1\n      tag_54\n      swap2\n      swap1\n      tag_36\n      jump\t// in\n    tag_54:\n      tag_55\n      jump\t// in\n    tag_53:\n      stop\n        /* \"contracts/mlm.sol\":531:557  uint256 public nextStakeId */\n    tag_9:\n      callvalue\n      dup1\n      iszero\n      tag_56\n      jumpi\n      0x00\n      dup1\n      revert\n    tag_56:\n      pop\n      tag_57\n      tag_58\n      jump\t// in\n    tag_57:\n      mload(0x40)\n      tag_59\n      swap2\n      swap1\n      tag_39\n      jump\t// in\n    tag_59:\n      mload(0x40)\n      dup1\n      swap2\n      sub\n      swap1\n      return\n        /* \"contracts/mlm.sol\":3096:3742  function getStakeByPositionId(uint256 _positionId) external view returns (... */\n    tag_10:\n      callvalue\n      dup1\n      iszero\n      tag_60\n      jumpi\n      0x00\n      dup1\n      revert\n    tag_60:\n      pop\n      tag_61\n      0x04\n      dup1\n      calldatasize\n      sub\n      dup2\n      add\n      swap1\n      tag_62\n      swap2\n      swap1\n      tag_29\n      jump\t// in\n    tag_62:\n      tag_63\n      jump\t// in\n    tag_61:\n      mload(0x40)\n      tag_64\n      swap5\n      swap4\n      swap3\n      swap2\n      swap1\n      tag_65\n      jump\t// in\n    tag_64:\n      mload(0x40)\n      dup1\n      swap2\n      sub\n      swap1\n      return\n        /* \"contracts/mlm.sol\":744:790  mapping(address => uint256) public totalIncome */\n    tag_11:\n      callvalue\n      dup1\n      iszero\n      tag_66\n      jumpi\n      0x00\n      dup1\n      revert\n    tag_66:\n      pop\n      tag_67\n      0x04\n      dup1\n      calldatasize\n      sub\n      dup2\n      add\n      swap1\n      tag_68\n      swap2\n      swap1\n      tag_36\n      jump\t// in\n    tag_68:\n      tag_69\n      jump\t// in\n    tag_67:\n      mload(0x40)\n      tag_70\n      swap2\n      swap1\n      tag_39\n      jump\t// in\n    tag_70:\n      mload(0x40)\n      dup1\n      swap2\n      sub\n      swap1\n      return\n        /* \"contracts/mlm.sol\":563:592  uint256 public nextPositionId */\n    tag_12:\n      callvalue\n      dup1\n      iszero\n      tag_71\n      jumpi\n      0x00\n      dup1\n      revert\n    tag_71:\n      pop\n      tag_72\n      tag_73\n      jump\t// in\n    tag_72:\n      mload(0x40)\n      tag_74\n      swap2\n      swap1\n      tag_39\n      jump\t// in\n    tag_74:\n      mload(0x40)\n      dup1\n      swap2\n      sub\n      swap1\n      return\n        /* \"contracts/mlm.sol\":83:103  address public owner */\n    tag_13:\n      callvalue\n      dup1\n      iszero\n      tag_75\n      jumpi\n      0x00\n      dup1\n      revert\n    tag_75:\n      pop\n      tag_76\n      tag_77\n      jump\t// in\n    tag_76:\n      mload(0x40)\n      tag_78\n      swap2\n      swap1\n      tag_32\n      jump\t// in\n    tag_78:\n      mload(0x40)\n      dup1\n      swap2\n      sub\n      swap1\n      return\n        /* \"contracts/mlm.sol\":4636:4763  function getDirectReferralCount(address user) external view returns (uint256) {... */\n    tag_14:\n      callvalue\n      dup1\n      iszero\n      tag_79\n      jumpi\n      0x00\n      dup1\n      revert\n    tag_79:\n      pop\n      tag_80\n      0x04\n      dup1\n      calldatasize\n      sub\n      dup2\n      add\n      swap1\n      tag_81\n      swap2\n      swap1\n      tag_36\n      jump\t// in\n    tag_81:\n      tag_82\n      jump\t// in\n    tag_80:\n      mload(0x40)\n      tag_83\n      swap2\n      swap1\n      tag_39\n      jump\t// in\n    tag_83:\n      mload(0x40)\n      dup1\n      swap2\n      sub\n      swap1\n      return\n        /* \"contracts/mlm.sol\":340:377  mapping(address => User) public users */\n    tag_15:\n      callvalue\n      dup1\n      iszero\n      tag_84\n      jumpi\n      0x00\n      dup1\n      revert\n    tag_84:\n      pop\n      tag_85\n      0x04\n      dup1\n      calldatasize\n      sub\n      dup2\n      add\n      swap1\n      tag_86\n      swap2\n      swap1\n      tag_36\n      jump\t// in\n    tag_86:\n      tag_87\n      jump\t// in\n    tag_85:\n      mload(0x40)\n      tag_88\n      swap3\n      swap2\n      swap1\n      tag_89\n      jump\t// in\n    tag_88:\n      mload(0x40)\n      dup1\n      swap2\n      sub\n      swap1\n      return\n        /* \"contracts/mlm.sol\":4769:4898  function getDirectReferralIncome(address user) external view returns (uint256) {... */\n    tag_16:\n      callvalue\n      dup1\n      iszero\n      tag_90\n      jumpi\n      0x00\n      dup1\n      revert\n    tag_90:\n      pop\n      tag_91\n      0x04\n      dup1\n      calldatasize\n      sub\n      dup2\n      add\n      swap1\n      tag_92\n      swap2\n      swap1\n      tag_36\n      jump\t// in\n    tag_92:\n      tag_93\n      jump\t// in\n    tag_91:\n      mload(0x40)\n      tag_94\n      swap2\n      swap1\n      tag_39\n      jump\t// in\n    tag_94:\n      mload(0x40)\n      dup1\n      swap2\n      sub\n      swap1\n      return\n        /* \"contracts/mlm.sol\":623:677  mapping(address => uint256) public directReferralCount */\n    tag_17:\n      callvalue\n      dup1\n      iszero\n      tag_95\n      jumpi\n      0x00\n      dup1\n      revert\n    tag_95:\n      pop\n      tag_96\n      0x04\n      dup1\n      calldatasize\n      sub\n      dup2\n      add\n      swap1\n      tag_97\n      swap2\n      swap1\n      tag_36\n      jump\t// in\n    tag_97:\n      tag_98\n      jump\t// in\n    tag_96:\n      mload(0x40)\n      tag_99\n      swap2\n      swap1\n      tag_39\n      jump\t// in\n    tag_99:\n      mload(0x40)\n      dup1\n      swap2\n      sub\n      swap1\n      return\n        /* \"contracts/mlm.sol\":4904:5015  function getTotalIncome(address user) external view returns (uint256) {... */\n    tag_18:\n      callvalue\n      dup1\n      iszero\n      tag_100\n      jumpi\n      0x00\n      dup1\n      revert\n    tag_100:\n      pop\n      tag_101\n      0x04\n      dup1\n      calldatasize\n      sub\n      dup2\n      add\n      swap1\n      tag_102\n      swap2\n      swap1\n      tag_36\n      jump\t// in\n    tag_102:\n      tag_103\n      jump\t// in\n    tag_101:\n      mload(0x40)\n      tag_104\n      swap2\n      swap1\n      tag_39\n      jump\t// in\n    tag_104:\n      mload(0x40)\n      dup1\n      swap2\n      sub\n      swap1\n      return\n        /* \"contracts/mlm.sol\":441:481  uint8[3] public levelRewards = [5, 3, 2] */\n    tag_19:\n      callvalue\n      dup1\n      iszero\n      tag_105\n      jumpi\n      0x00\n      dup1\n      revert\n    tag_105:\n      pop\n      tag_106\n      0x04\n      dup1\n      calldatasize\n      sub\n      dup2\n      add\n      swap1\n      tag_107\n      swap2\n      swap1\n      tag_29\n      jump\t// in\n    tag_107:\n      tag_108\n      jump\t// in\n    tag_106:\n      mload(0x40)\n      tag_109\n      swap2\n      swap1\n      tag_110\n      jump\t// in\n    tag_109:\n      mload(0x40)\n      dup1\n      swap2\n      sub\n      swap1\n      return\n        /* \"contracts/mlm.sol\":683:738  mapping(address => uint256) public directReferralIncome */\n    tag_20:\n      callvalue\n      dup1\n      iszero\n      tag_111\n      jumpi\n      0x00\n      dup1\n      revert\n    tag_111:\n      pop\n      tag_112\n      0x04\n      dup1\n      calldatasize\n      sub\n      dup2\n      add\n      swap1\n      tag_113\n      swap2\n      swap1\n      tag_36\n      jump\t// in\n    tag_113:\n      tag_114\n      jump\t// in\n    tag_112:\n      mload(0x40)\n      tag_115\n      swap2\n      swap1\n      tag_39\n      jump\t// in\n    tag_115:\n      mload(0x40)\n      dup1\n      swap2\n      sub\n      swap1\n      return\n        /* \"contracts/mlm.sol\":383:434  mapping(uint256 => address) public positionIdToUser */\n    tag_30:\n      mstore(0x20, 0x02)\n      dup1\n      0x00\n      mstore\n      keccak256(0x00, 0x40)\n      0x00\n      swap2\n      pop\n      sload\n      swap1\n      0x0100\n      exp\n      swap1\n      div\n      0xffffffffffffffffffffffffffffffffffffffff\n      and\n      dup2\n      jump\t// out\n        /* \"contracts/mlm.sol\":4116:4603  function getUserLevel(address user) external view returns (uint256) {... */\n    tag_37:\n        /* \"contracts/mlm.sol\":4175:4182  uint256 */\n      0x00\n        /* \"contracts/mlm.sol\":4198:4203  users */\n      0x01\n        /* \"contracts/mlm.sol\":4198:4209  users[user] */\n      0x00\n        /* \"contracts/mlm.sol\":4204:4208  user */\n      dup4\n        /* \"contracts/mlm.sol\":4198:4209  users[user] */\n      0xffffffffffffffffffffffffffffffffffffffff\n      and\n      0xffffffffffffffffffffffffffffffffffffffff\n      and\n      dup2\n      mstore\n      0x20\n      add\n      swap1\n      dup2\n      mstore\n      0x20\n      add\n      0x00\n      keccak256\n        /* \"contracts/mlm.sol\":4198:4220  users[user].registered */\n      0x00\n      add\n      0x14\n      swap1\n      sload\n      swap1\n      0x0100\n      exp\n      swap1\n      div\n      0xff\n      and\n        /* \"contracts/mlm.sol\":4190:4244  require(users[user].registered, \"User not registered\") */\n      tag_117\n      jumpi\n      mload(0x40)\n      0x08c379a000000000000000000000000000000000000000000000000000000000\n      dup2\n      mstore\n      0x04\n      add\n      tag_118\n      swap1\n      tag_119\n      jump\t// in\n    tag_118:\n      mload(0x40)\n      dup1\n      swap2\n      sub\n      swap1\n      revert\n    tag_117:\n        /* \"contracts/mlm.sol\":4251:4264  uint256 level */\n      0x00\n        /* \"contracts/mlm.sol\":4274:4289  address current */\n      dup1\n        /* \"contracts/mlm.sol\":4292:4296  user */\n      dup4\n        /* \"contracts/mlm.sol\":4274:4296  address current = user */\n      swap1\n      pop\n        /* \"contracts/mlm.sol\":4303:4452  while (users[current].referrer != address(0) && users[current].referrer != owner) {... */\n    tag_120:\n        /* \"contracts/mlm.sol\":4345:4346  0 */\n      0x00\n        /* \"contracts/mlm.sol\":4310:4347  users[current].referrer != address(0) */\n      0xffffffffffffffffffffffffffffffffffffffff\n      and\n        /* \"contracts/mlm.sol\":4310:4315  users */\n      0x01\n        /* \"contracts/mlm.sol\":4310:4324  users[current] */\n      0x00\n        /* \"contracts/mlm.sol\":4316:4323  current */\n      dup4\n        /* \"contracts/mlm.sol\":4310:4324  users[current] */\n      0xffffffffffffffffffffffffffffffffffffffff\n      and\n      0xffffffffffffffffffffffffffffffffffffffff\n      and\n      dup2\n      mstore\n      0x20\n      add\n      swap1\n      dup2\n      mstore\n      0x20\n      add\n      0x00\n      keccak256\n        /* \"contracts/mlm.sol\":4310:4333  users[current].referrer */\n      0x00\n      add\n      0x00\n      swap1\n      sload\n      swap1\n      0x0100\n      exp\n      swap1\n      div\n      0xffffffffffffffffffffffffffffffffffffffff\n      and\n        /* \"contracts/mlm.sol\":4310:4347  users[current].referrer != address(0) */\n      0xffffffffffffffffffffffffffffffffffffffff\n      and\n      eq\n      iszero\n        /* \"contracts/mlm.sol\":4310:4383  users[current].referrer != address(0) && users[current].referrer != owner */\n      dup1\n      iszero\n      tag_122\n      jumpi\n      pop\n        /* \"contracts/mlm.sol\":4378:4383  owner */\n      0x00\n      dup1\n      sload\n      swap1\n      0x0100\n      exp\n      swap1\n      div\n      0xffffffffffffffffffffffffffffffffffffffff\n      and\n        /* \"contracts/mlm.sol\":4351:4383  users[current].referrer != owner */\n      0xffffffffffffffffffffffffffffffffffffffff\n      and\n        /* \"contracts/mlm.sol\":4351:4356  users */\n      0x01\n        /* \"contracts/mlm.sol\":4351:4365  users[current] */\n      0x00\n        /* \"contracts/mlm.sol\":4357:4364  current */\n      dup4\n        /* \"contracts/mlm.sol\":4351:4365  users[current] */\n      0xffffffffffffffffffffffffffffffffffffffff\n      and\n      0xffffffffffffffffffffffffffffffffffffffff\n      and\n      dup2\n      mstore\n      0x20\n      add\n      swap1\n      dup2\n      mstore\n      0x20\n      add\n      0x00\n      keccak256\n        /* \"contracts/mlm.sol\":4351:4374  users[current].referrer */\n      0x00\n      add\n      0x00\n      swap1\n      sload\n      swap1\n      0x0100\n      exp\n      swap1\n      div\n      0xffffffffffffffffffffffffffffffffffffffff\n      and\n        /* \"contracts/mlm.sol\":4351:4383  users[current].referrer != owner */\n      0xffffffffffffffffffffffffffffffffffffffff\n      and\n      eq\n      iszero\n        /* \"contracts/mlm.sol\":4310:4383  users[current].referrer != address(0) && users[current].referrer != owner */\n    tag_122:\n        /* \"contracts/mlm.sol\":4303:4452  while (users[current].referrer != address(0) && users[current].referrer != owner) {... */\n      iszero\n      tag_121\n      jumpi\n        /* \"contracts/mlm.sol\":4395:4402  level++ */\n      dup2\n      dup1\n      tag_123\n      swap1\n      tag_124\n      jump\t// in\n    tag_123:\n      swap3\n      pop\n      pop\n        /* \"contracts/mlm.sol\":4422:4427  users */\n      0x01\n        /* \"contracts/mlm.sol\":4422:4436  users[current] */\n      0x00\n        /* \"contracts/mlm.sol\":4428:4435  current */\n      dup3\n        /* \"contracts/mlm.sol\":4422:4436  users[current] */\n      0xffffffffffffffffffffffffffffffffffffffff\n      and\n      0xffffffffffffffffffffffffffffffffffffffff\n      and\n      dup2\n      mstore\n      0x20\n      add\n      swap1\n      dup2\n      mstore\n      0x20\n      add\n      0x00\n      keccak256\n        /* \"contracts/mlm.sol\":4422:4445  users[current].referrer */\n      0x00\n      add\n      0x00\n      swap1\n      sload\n      swap1\n      0x0100\n      exp\n      swap1\n      div\n      0xffffffffffffffffffffffffffffffffffffffff\n      and\n        /* \"contracts/mlm.sol\":4412:4445  current = users[current].referrer */\n      swap1\n      pop\n        /* \"contracts/mlm.sol\":4303:4452  while (users[current].referrer != address(0) && users[current].referrer != owner) {... */\n      jump(tag_120)\n    tag_121:\n        /* \"contracts/mlm.sol\":4551:4556  owner */\n      0x00\n      dup1\n      sload\n      swap1\n      0x0100\n      exp\n      swap1\n      div\n      0xffffffffffffffffffffffffffffffffffffffff\n      and\n        /* \"contracts/mlm.sol\":4524:4556  users[current].referrer == owner */\n      0xffffffffffffffffffffffffffffffffffffffff\n      and\n        /* \"contracts/mlm.sol\":4524:4529  users */\n      0x01\n        /* \"contracts/mlm.sol\":4524:4538  users[current] */\n      0x00\n        /* \"contracts/mlm.sol\":4530:4537  current */\n      dup4\n        /* \"contracts/mlm.sol\":4524:4538  users[current] */\n      0xffffffffffffffffffffffffffffffffffffffff\n      and\n      0xffffffffffffffffffffffffffffffffffffffff\n      and\n      dup2\n      mstore\n      0x20\n      add\n      swap1\n      dup2\n      mstore\n      0x20\n      add\n      0x00\n      keccak256\n        /* \"contracts/mlm.sol\":4524:4547  users[current].referrer */\n      0x00\n      add\n      0x00\n      swap1\n      sload\n      swap1\n      0x0100\n      exp\n      swap1\n      div\n      0xffffffffffffffffffffffffffffffffffffffff\n      and\n        /* \"contracts/mlm.sol\":4524:4556  users[current].referrer == owner */\n      0xffffffffffffffffffffffffffffffffffffffff\n      and\n      sub\n        /* \"contracts/mlm.sol\":4520:4582  if (users[current].referrer == owner) {... */\n      tag_125\n      jumpi\n        /* \"contracts/mlm.sol\":4568:4575  level++ */\n      dup2\n      dup1\n      tag_126\n      swap1\n      tag_124\n      jump\t// in\n    tag_126:\n      swap3\n      pop\n      pop\n        /* \"contracts/mlm.sol\":4520:4582  if (users[current].referrer == owner) {... */\n    tag_125:\n        /* \"contracts/mlm.sol\":4595:4600  level */\n      dup2\n        /* \"contracts/mlm.sol\":4588:4600  return level */\n      swap3\n      pop\n      pop\n      pop\n        /* \"contracts/mlm.sol\":4116:4603  function getUserLevel(address user) external view returns (uint256) {... */\n      swap2\n      swap1\n      pop\n      jump\t// out\n        /* \"contracts/mlm.sol\":3748:4113  function getPositionIds(address _user) external view returns (uint256[] memory) {... */\n    tag_43:\n        /* \"contracts/mlm.sol\":3810:3826  uint256[] memory */\n      0x60\n        /* \"contracts/mlm.sol\":3838:3856  uint256 stakeCount */\n      0x00\n        /* \"contracts/mlm.sol\":3859:3864  users */\n      0x01\n        /* \"contracts/mlm.sol\":3859:3871  users[_user] */\n      0x00\n        /* \"contracts/mlm.sol\":3865:3870  _user */\n      dup5\n        /* \"contracts/mlm.sol\":3859:3871  users[_user] */\n      0xffffffffffffffffffffffffffffffffffffffff\n      and\n      0xffffffffffffffffffffffffffffffffffffffff\n      and\n      dup2\n      mstore\n      0x20\n      add\n      swap1\n      dup2\n      mstore\n      0x20\n      add\n      0x00\n      keccak256\n        /* \"contracts/mlm.sol\":3859:3878  users[_user].stakes */\n      0x01\n      add\n        /* \"contracts/mlm.sol\":3859:3885  users[_user].stakes.length */\n      dup1\n      sload\n      swap1\n      pop\n        /* \"contracts/mlm.sol\":3838:3885  uint256 stakeCount = users[_user].stakes.length */\n      swap1\n      pop\n        /* \"contracts/mlm.sol\":3895:3923  uint256[] memory positionIds */\n      0x00\n        /* \"contracts/mlm.sol\":3940:3950  stakeCount */\n      dup2\n        /* \"contracts/mlm.sol\":3926:3951  new uint256[](stakeCount) */\n      0xffffffffffffffff\n      dup2\n      gt\n      iszero\n      tag_128\n      jumpi\n      tag_129\n      tag_130\n      jump\t// in\n    tag_129:\n    tag_128:\n      mload(0x40)\n      swap1\n      dup1\n      dup3\n      mstore\n      dup1\n      0x20\n      mul\n      0x20\n      add\n      dup3\n      add\n      0x40\n      mstore\n      dup1\n      iszero\n      tag_131\n      jumpi\n      dup2\n      0x20\n      add\n      0x20\n      dup3\n      mul\n      dup1\n      calldatasize\n      dup4\n      calldatacopy\n      dup1\n      dup3\n      add\n      swap2\n      pop\n      pop\n      swap1\n      pop\n    tag_131:\n      pop\n        /* \"contracts/mlm.sol\":3895:3951  uint256[] memory positionIds = new uint256[](stakeCount) */\n      swap1\n      pop\n        /* \"contracts/mlm.sol\":3967:3976  uint256 i */\n      0x00\n        /* \"contracts/mlm.sol\":3962:4078  for (uint256 i = 0; i < stakeCount; i++) {... */\n    tag_132:\n        /* \"contracts/mlm.sol\":3986:3996  stakeCount */\n      dup3\n        /* \"contracts/mlm.sol\":3982:3983  i */\n      dup2\n        /* \"contracts/mlm.sol\":3982:3996  i < stakeCount */\n      lt\n        /* \"contracts/mlm.sol\":3962:4078  for (uint256 i = 0; i < stakeCount; i++) {... */\n      iszero\n      tag_133\n      jumpi\n        /* \"contracts/mlm.sol\":4034:4039  users */\n      0x01\n        /* \"contracts/mlm.sol\":4034:4046  users[_user] */\n      0x00\n        /* \"contracts/mlm.sol\":4040:4045  _user */\n      dup7\n        /* \"contracts/mlm.sol\":4034:4046  users[_user] */\n      0xffffffffffffffffffffffffffffffffffffffff\n      and\n      0xffffffffffffffffffffffffffffffffffffffff\n      and\n      dup2\n      mstore\n      0x20\n      add\n      swap1\n      dup2\n      mstore\n      0x20\n      add\n      0x00\n      keccak256\n        /* \"contracts/mlm.sol\":4034:4053  users[_user].stakes */\n      0x01\n      add\n        /* \"contracts/mlm.sol\":4054:4055  i */\n      dup2\n        /* \"contracts/mlm.sol\":4034:4056  users[_user].stakes[i] */\n      dup2\n      sload\n      dup2\n      lt\n      tag_135\n      jumpi\n      tag_136\n      tag_137\n      jump\t// in\n    tag_136:\n    tag_135:\n      swap1\n      0x00\n      mstore\n      keccak256(0x00, 0x20)\n      swap1\n      0x04\n      mul\n      add\n        /* \"contracts/mlm.sol\":4034:4067  users[_user].stakes[i].positionId */\n      0x02\n      add\n      sload\n        /* \"contracts/mlm.sol\":4017:4028  positionIds */\n      dup3\n        /* \"contracts/mlm.sol\":4029:4030  i */\n      dup3\n        /* \"contracts/mlm.sol\":4017:4031  positionIds[i] */\n      dup2\n      mload\n      dup2\n      lt\n      tag_139\n      jumpi\n      tag_140\n      tag_137\n      jump\t// in\n    tag_140:\n    tag_139:\n      0x20\n      mul\n      0x20\n      add\n      add\n        /* \"contracts/mlm.sol\":4017:4067  positionIds[i] = users[_user].stakes[i].positionId */\n      dup2\n      dup2\n      mstore\n      pop\n      pop\n        /* \"contracts/mlm.sol\":3998:4001  i++ */\n      dup1\n      dup1\n      0x01\n      add\n      swap2\n      pop\n      pop\n        /* \"contracts/mlm.sol\":3962:4078  for (uint256 i = 0; i < stakeCount; i++) {... */\n      jump(tag_132)\n    tag_133:\n      pop\n        /* \"contracts/mlm.sol\":4095:4106  positionIds */\n      dup1\n        /* \"contracts/mlm.sol\":4088:4106  return positionIds */\n      swap3\n      pop\n      pop\n      pop\n        /* \"contracts/mlm.sol\":3748:4113  function getPositionIds(address _user) external view returns (uint256[] memory) {... */\n      swap2\n      swap1\n      pop\n      jump\t// out\n        /* \"contracts/mlm.sol\":5047:5286  function withdraw(uint256 amount) external {... */\n    tag_49:\n        /* \"contracts/mlm.sol\":5122:5127  owner */\n      0x00\n      dup1\n      sload\n      swap1\n      0x0100\n      exp\n      swap1\n      div\n      0xffffffffffffffffffffffffffffffffffffffff\n      and\n        /* \"contracts/mlm.sol\":5108:5127  msg.sender == owner */\n      0xffffffffffffffffffffffffffffffffffffffff\n      and\n        /* \"contracts/mlm.sol\":5108:5118  msg.sender */\n      caller\n        /* \"contracts/mlm.sol\":5108:5127  msg.sender == owner */\n      0xffffffffffffffffffffffffffffffffffffffff\n      and\n      eq\n        /* \"contracts/mlm.sol\":5100:5155  require(msg.sender == owner, \"Only owner can withdraw\") */\n      tag_142\n      jumpi\n      mload(0x40)\n      0x08c379a000000000000000000000000000000000000000000000000000000000\n      dup2\n      mstore\n      0x04\n      add\n      tag_143\n      swap1\n      tag_144\n      jump\t// in\n    tag_143:\n      mload(0x40)\n      dup1\n      swap2\n      sub\n      swap1\n      revert\n    tag_142:\n        /* \"contracts/mlm.sol\":5198:5204  amount */\n      dup1\n        /* \"contracts/mlm.sol\":5173:5194  address(this).balance */\n      selfbalance\n        /* \"contracts/mlm.sol\":5173:5204  address(this).balance >= amount */\n      lt\n      iszero\n        /* \"contracts/mlm.sol\":5165:5238  require(address(this).balance >= amount, \"Insufficient contract balance\") */\n      tag_145\n      jumpi\n      mload(0x40)\n      0x08c379a000000000000000000000000000000000000000000000000000000000\n      dup2\n      mstore\n      0x04\n      add\n      tag_146\n      swap1\n      tag_147\n      jump\t// in\n    tag_146:\n      mload(0x40)\n      dup1\n      swap2\n      sub\n      swap1\n      revert\n    tag_145:\n        /* \"contracts/mlm.sol\":5256:5261  owner */\n      0x00\n      dup1\n      sload\n      swap1\n      0x0100\n      exp\n      swap1\n      div\n      0xffffffffffffffffffffffffffffffffffffffff\n      and\n        /* \"contracts/mlm.sol\":5248:5271  payable(owner).transfer */\n      0xffffffffffffffffffffffffffffffffffffffff\n      and\n        /* \"contracts/mlm.sol\":5248:5279  payable(owner).transfer(amount) */\n      0x08fc\n        /* \"contracts/mlm.sol\":5272:5278  amount */\n      dup3\n        /* \"contracts/mlm.sol\":5248:5279  payable(owner).transfer(amount) */\n      swap1\n      dup2\n      iszero\n      mul\n      swap1\n      mload(0x40)\n      0x00\n      mload(0x40)\n      dup1\n      dup4\n      sub\n      dup2\n      dup6\n      dup9\n      dup9\n      call\n      swap4\n      pop\n      pop\n      pop\n      pop\n      iszero\n      dup1\n      iszero\n      tag_149\n      jumpi\n      returndatasize\n      0x00\n      dup1\n      returndatacopy\n      revert(0x00, returndatasize)\n    tag_149:\n      pop\n        /* \"contracts/mlm.sol\":5047:5286  function withdraw(uint256 amount) external {... */\n      pop\n      jump\t// out\n        /* \"contracts/mlm.sol\":1836:3050  function stake() external payable onlyRegistered {... */\n    tag_51:\n        /* \"contracts/mlm.sol\":1262:1267  users */\n      0x01\n        /* \"contracts/mlm.sol\":1262:1279  users[msg.sender] */\n      0x00\n        /* \"contracts/mlm.sol\":1268:1278  msg.sender */\n      caller\n        /* \"contracts/mlm.sol\":1262:1279  users[msg.sender] */\n      0xffffffffffffffffffffffffffffffffffffffff\n      and\n      0xffffffffffffffffffffffffffffffffffffffff\n      and\n      dup2\n      mstore\n      0x20\n      add\n      swap1\n      dup2\n      mstore\n      0x20\n      add\n      0x00\n      keccak256\n        /* \"contracts/mlm.sol\":1262:1290  users[msg.sender].registered */\n      0x00\n      add\n      0x14\n      swap1\n      sload\n      swap1\n      0x0100\n      exp\n      swap1\n      div\n      0xff\n      and\n        /* \"contracts/mlm.sol\":1254:1314  require(users[msg.sender].registered, \"User not registered\") */\n      tag_151\n      jumpi\n      mload(0x40)\n      0x08c379a000000000000000000000000000000000000000000000000000000000\n      dup2\n      mstore\n      0x04\n      add\n      tag_152\n      swap1\n      tag_119\n      jump\t// in\n    tag_152:\n      mload(0x40)\n      dup1\n      swap2\n      sub\n      swap1\n      revert\n    tag_151:\n        /* \"contracts/mlm.sol\":1915:1916  0 */\n      0x00\n        /* \"contracts/mlm.sol\":1903:1912  msg.value */\n      callvalue\n        /* \"contracts/mlm.sol\":1903:1916  msg.value > 0 */\n      gt\n        /* \"contracts/mlm.sol\":1895:1950  require(msg.value > 0, \"Amount must be greater than 0\") */\n      tag_154\n      jumpi\n      mload(0x40)\n      0x08c379a000000000000000000000000000000000000000000000000000000000\n      dup2\n      mstore\n      0x04\n      add\n      tag_155\n      swap1\n      tag_156\n      jump\t// in\n    tag_155:\n      mload(0x40)\n      dup1\n      swap2\n      sub\n      swap1\n      revert\n    tag_154:\n        /* \"contracts/mlm.sol\":1961:1976  uint256 stakeId */\n      0x00\n        /* \"contracts/mlm.sol\":1979:1990  nextStakeId */\n      0x04\n      0x00\n        /* \"contracts/mlm.sol\":1979:1992  nextStakeId++ */\n      dup2\n      sload\n      dup1\n      swap3\n      swap2\n      swap1\n      tag_157\n      swap1\n      tag_124\n      jump\t// in\n    tag_157:\n      swap2\n      swap1\n      pop\n      sstore\n        /* \"contracts/mlm.sol\":1961:1992  uint256 stakeId = nextStakeId++ */\n      swap1\n      pop\n        /* \"contracts/mlm.sol\":2002:2020  uint256 positionId */\n      0x00\n        /* \"contracts/mlm.sol\":2023:2037  nextPositionId */\n      0x05\n      0x00\n        /* \"contracts/mlm.sol\":2023:2039  nextPositionId++ */\n      dup2\n      sload\n      dup1\n      swap3\n      swap2\n      swap1\n      tag_158\n      swap1\n      tag_124\n      jump\t// in\n    tag_158:\n      swap2\n      swap1\n      pop\n      sstore\n        /* \"contracts/mlm.sol\":2002:2039  uint256 positionId = nextPositionId++ */\n      swap1\n      pop\n        /* \"contracts/mlm.sol\":2049:2066  uint256 timestamp */\n      0x00\n        /* \"contracts/mlm.sol\":2069:2084  block.timestamp */\n      timestamp\n        /* \"contracts/mlm.sol\":2049:2084  uint256 timestamp = block.timestamp */\n      swap1\n      pop\n        /* \"contracts/mlm.sol\":2121:2126  users */\n      0x01\n        /* \"contracts/mlm.sol\":2121:2138  users[msg.sender] */\n      0x00\n        /* \"contracts/mlm.sol\":2127:2137  msg.sender */\n      caller\n        /* \"contracts/mlm.sol\":2121:2138  users[msg.sender] */\n      0xffffffffffffffffffffffffffffffffffffffff\n      and\n      0xffffffffffffffffffffffffffffffffffffffff\n      and\n      dup2\n      mstore\n      0x20\n      add\n      swap1\n      dup2\n      mstore\n      0x20\n      add\n      0x00\n      keccak256\n        /* \"contracts/mlm.sol\":2121:2145  users[msg.sender].stakes */\n      0x01\n      add\n        /* \"contracts/mlm.sol\":2151:2299  Stake({... */\n      mload(0x40)\n      dup1\n      0x80\n      add\n      0x40\n      mstore\n      dup1\n        /* \"contracts/mlm.sol\":2180:2187  stakeId */\n      dup6\n        /* \"contracts/mlm.sol\":2151:2299  Stake({... */\n      dup2\n      mstore\n      0x20\n      add\n        /* \"contracts/mlm.sol\":2209:2218  msg.value */\n      callvalue\n        /* \"contracts/mlm.sol\":2151:2299  Stake({... */\n      dup2\n      mstore\n      0x20\n      add\n        /* \"contracts/mlm.sol\":2244:2254  positionId */\n      dup5\n        /* \"contracts/mlm.sol\":2151:2299  Stake({... */\n      dup2\n      mstore\n      0x20\n      add\n        /* \"contracts/mlm.sol\":2279:2288  timestamp */\n      dup4\n        /* \"contracts/mlm.sol\":2151:2299  Stake({... */\n      dup2\n      mstore\n      pop\n        /* \"contracts/mlm.sol\":2121:2300  users[msg.sender].stakes.push(Stake({... */\n      swap1\n      dup1\n      0x01\n      dup2\n      sload\n      add\n      dup1\n      dup3\n      sstore\n      dup1\n      swap2\n      pop\n      pop\n      0x01\n      swap1\n      sub\n      swap1\n      0x00\n      mstore\n      keccak256(0x00, 0x20)\n      swap1\n      0x04\n      mul\n      add\n      0x00\n      swap1\n      swap2\n      swap1\n      swap2\n      swap1\n      swap2\n      pop\n      0x00\n      dup3\n      add\n      mload\n      dup2\n      0x00\n      add\n      sstore\n      0x20\n      dup3\n      add\n      mload\n      dup2\n      0x01\n      add\n      sstore\n      0x40\n      dup3\n      add\n      mload\n      dup2\n      0x02\n      add\n      sstore\n      0x60\n      dup3\n      add\n      mload\n      dup2\n      0x03\n      add\n      sstore\n      pop\n      pop\n        /* \"contracts/mlm.sol\":2386:2396  msg.sender */\n      caller\n        /* \"contracts/mlm.sol\":2355:2371  positionIdToUser */\n      0x02\n        /* \"contracts/mlm.sol\":2355:2383  positionIdToUser[positionId] */\n      0x00\n        /* \"contracts/mlm.sol\":2372:2382  positionId */\n      dup5\n        /* \"contracts/mlm.sol\":2355:2383  positionIdToUser[positionId] */\n      dup2\n      mstore\n      0x20\n      add\n      swap1\n      dup2\n      mstore\n      0x20\n      add\n      0x00\n      keccak256\n      0x00\n        /* \"contracts/mlm.sol\":2355:2396  positionIdToUser[positionId] = msg.sender */\n      0x0100\n      exp\n      dup2\n      sload\n      dup2\n      0xffffffffffffffffffffffffffffffffffffffff\n      mul\n      not\n      and\n      swap1\n      dup4\n      0xffffffffffffffffffffffffffffffffffffffff\n      and\n      mul\n      or\n      swap1\n      sstore\n      pop\n        /* \"contracts/mlm.sol\":2437:2459  address payable upline */\n      0x00\n        /* \"contracts/mlm.sol\":2470:2475  users */\n      0x01\n        /* \"contracts/mlm.sol\":2470:2487  users[msg.sender] */\n      0x00\n        /* \"contracts/mlm.sol\":2476:2486  msg.sender */\n      caller\n        /* \"contracts/mlm.sol\":2470:2487  users[msg.sender] */\n      0xffffffffffffffffffffffffffffffffffffffff\n      and\n      0xffffffffffffffffffffffffffffffffffffffff\n      and\n      dup2\n      mstore\n      0x20\n      add\n      swap1\n      dup2\n      mstore\n      0x20\n      add\n      0x00\n      keccak256\n        /* \"contracts/mlm.sol\":2470:2496  users[msg.sender].referrer */\n      0x00\n      add\n      0x00\n      swap1\n      sload\n      swap1\n      0x0100\n      exp\n      swap1\n      div\n      0xffffffffffffffffffffffffffffffffffffffff\n      and\n        /* \"contracts/mlm.sol\":2437:2497  address payable upline = payable(users[msg.sender].referrer) */\n      swap1\n      pop\n        /* \"contracts/mlm.sol\":2513:2520  uint8 i */\n      0x00\n        /* \"contracts/mlm.sol\":2508:2967  for (uint8 i = 0; i < levelRewards.length; i++) {... */\n    tag_160:\n        /* \"contracts/mlm.sol\":2530:2549  levelRewards.length */\n      0x03\n        /* \"contracts/mlm.sol\":2526:2527  i */\n      dup2\n        /* \"contracts/mlm.sol\":2526:2549  i < levelRewards.length */\n      0xff\n      and\n      lt\n        /* \"contracts/mlm.sol\":2508:2967  for (uint8 i = 0; i < levelRewards.length; i++) {... */\n      iszero\n      tag_161\n      jumpi\n        /* \"contracts/mlm.sol\":2592:2593  0 */\n      0x00\n        /* \"contracts/mlm.sol\":2574:2594  upline == address(0) */\n      0xffffffffffffffffffffffffffffffffffffffff\n      and\n        /* \"contracts/mlm.sol\":2574:2580  upline */\n      dup3\n        /* \"contracts/mlm.sol\":2574:2594  upline == address(0) */\n      0xffffffffffffffffffffffffffffffffffffffff\n      and\n      sub\n        /* \"contracts/mlm.sol\":2570:2601  if (upline == address(0)) break */\n      iszero\n        /* \"contracts/mlm.sol\":2596:2601  break */\n      tag_161\n        /* \"contracts/mlm.sol\":2570:2601  if (upline == address(0)) break */\n      jumpi\n        /* \"contracts/mlm.sol\":2616:2634  uint256 commission */\n      0x00\n        /* \"contracts/mlm.sol\":2669:2672  100 */\n      0x64\n        /* \"contracts/mlm.sol\":2650:2662  levelRewards */\n      0x03\n        /* \"contracts/mlm.sol\":2663:2664  i */\n      dup4\n        /* \"contracts/mlm.sol\":2650:2665  levelRewards[i] */\n      0xff\n      and\n      0x03\n      dup2\n      lt\n      tag_164\n      jumpi\n      tag_165\n      tag_137\n      jump\t// in\n    tag_165:\n    tag_164:\n      0x20\n      swap2\n      dup3\n      dup3\n      div\n      add\n      swap2\n      swap1\n      mod\n      swap1\n      sload\n      swap1\n      0x0100\n      exp\n      swap1\n      div\n      0xff\n      and\n        /* \"contracts/mlm.sol\":2638:2665  msg.value * levelRewards[i] */\n      0xff\n      and\n        /* \"contracts/mlm.sol\":2638:2647  msg.value */\n      callvalue\n        /* \"contracts/mlm.sol\":2638:2665  msg.value * levelRewards[i] */\n      tag_167\n      swap2\n      swap1\n      tag_168\n      jump\t// in\n    tag_167:\n        /* \"contracts/mlm.sol\":2637:2672  (msg.value * levelRewards[i]) / 100 */\n      tag_169\n      swap2\n      swap1\n      tag_170\n      jump\t// in\n    tag_169:\n        /* \"contracts/mlm.sol\":2616:2672  uint256 commission = (msg.value * levelRewards[i]) / 100 */\n      swap1\n      pop\n        /* \"contracts/mlm.sol\":2686:2692  upline */\n      dup3\n        /* \"contracts/mlm.sol\":2686:2701  upline.transfer */\n      0xffffffffffffffffffffffffffffffffffffffff\n      and\n        /* \"contracts/mlm.sol\":2686:2713  upline.transfer(commission) */\n      0x08fc\n        /* \"contracts/mlm.sol\":2702:2712  commission */\n      dup3\n        /* \"contracts/mlm.sol\":2686:2713  upline.transfer(commission) */\n      swap1\n      dup2\n      iszero\n      mul\n      swap1\n      mload(0x40)\n      0x00\n      mload(0x40)\n      dup1\n      dup4\n      sub\n      dup2\n      dup6\n      dup9\n      dup9\n      call\n      swap4\n      pop\n      pop\n      pop\n      pop\n      iszero\n      dup1\n      iszero\n      tag_172\n      jumpi\n      returndatasize\n      0x00\n      dup1\n      returndatacopy\n      revert(0x00, returndatasize)\n    tag_172:\n      pop\n        /* \"contracts/mlm.sol\":2791:2801  commission */\n      dup1\n        /* \"contracts/mlm.sol\":2768:2779  totalIncome */\n      0x08\n        /* \"contracts/mlm.sol\":2768:2787  totalIncome[upline] */\n      0x00\n        /* \"contracts/mlm.sol\":2780:2786  upline */\n      dup6\n        /* \"contracts/mlm.sol\":2768:2787  totalIncome[upline] */\n      0xffffffffffffffffffffffffffffffffffffffff\n      and\n      0xffffffffffffffffffffffffffffffffffffffff\n      and\n      dup2\n      mstore\n      0x20\n      add\n      swap1\n      dup2\n      mstore\n      0x20\n      add\n      0x00\n      keccak256\n      0x00\n        /* \"contracts/mlm.sol\":2768:2801  totalIncome[upline] += commission */\n      dup3\n      dup3\n      sload\n      tag_173\n      swap2\n      swap1\n      tag_174\n      jump\t// in\n    tag_173:\n      swap3\n      pop\n      pop\n      dup2\n      swap1\n      sstore\n      pop\n        /* \"contracts/mlm.sol\":2824:2825  0 */\n      0x00\n        /* \"contracts/mlm.sol\":2819:2820  i */\n      dup3\n        /* \"contracts/mlm.sol\":2819:2825  i == 0 */\n      0xff\n      and\n      sub\n        /* \"contracts/mlm.sol\":2815:2902  if (i == 0) {... */\n      tag_175\n      jumpi\n        /* \"contracts/mlm.sol\":2877:2887  commission */\n      dup1\n        /* \"contracts/mlm.sol\":2845:2865  directReferralIncome */\n      0x07\n        /* \"contracts/mlm.sol\":2845:2873  directReferralIncome[upline] */\n      0x00\n        /* \"contracts/mlm.sol\":2866:2872  upline */\n      dup6\n        /* \"contracts/mlm.sol\":2845:2873  directReferralIncome[upline] */\n      0xffffffffffffffffffffffffffffffffffffffff\n      and\n      0xffffffffffffffffffffffffffffffffffffffff\n      and\n      dup2\n      mstore\n      0x20\n      add\n      swap1\n      dup2\n      mstore\n      0x20\n      add\n      0x00\n      keccak256\n      0x00\n        /* \"contracts/mlm.sol\":2845:2887  directReferralIncome[upline] += commission */\n      dup3\n      dup3\n      sload\n      tag_176\n      swap2\n      swap1\n      tag_174\n      jump\t// in\n    tag_176:\n      swap3\n      pop\n      pop\n      dup2\n      swap1\n      sstore\n      pop\n        /* \"contracts/mlm.sol\":2815:2902  if (i == 0) {... */\n    tag_175:\n        /* \"contracts/mlm.sol\":2933:2938  users */\n      0x01\n        /* \"contracts/mlm.sol\":2933:2946  users[upline] */\n      0x00\n        /* \"contracts/mlm.sol\":2939:2945  upline */\n      dup5\n        /* \"contracts/mlm.sol\":2933:2946  users[upline] */\n      0xffffffffffffffffffffffffffffffffffffffff\n      and\n      0xffffffffffffffffffffffffffffffffffffffff\n      and\n      dup2\n      mstore\n      0x20\n      add\n      swap1\n      dup2\n      mstore\n      0x20\n      add\n      0x00\n      keccak256\n        /* \"contracts/mlm.sol\":2933:2955  users[upline].referrer */\n      0x00\n      add\n      0x00\n      swap1\n      sload\n      swap1\n      0x0100\n      exp\n      swap1\n      div\n      0xffffffffffffffffffffffffffffffffffffffff\n      and\n        /* \"contracts/mlm.sol\":2916:2956  upline = payable(users[upline].referrer) */\n      swap3\n      pop\n        /* \"contracts/mlm.sol\":2556:2967  {... */\n      pop\n        /* \"contracts/mlm.sol\":2551:2554  i++ */\n      dup1\n      dup1\n      tag_177\n      swap1\n      tag_178\n      jump\t// in\n    tag_177:\n      swap2\n      pop\n      pop\n        /* \"contracts/mlm.sol\":2508:2967  for (uint8 i = 0; i < levelRewards.length; i++) {... */\n      jump(tag_160)\n    tag_161:\n      pop\n        /* \"contracts/mlm.sol\":3010:3020  positionId */\n      dup3\n        /* \"contracts/mlm.sol\":3001:3008  stakeId */\n      dup5\n        /* \"contracts/mlm.sol\":2989:2999  msg.sender */\n      caller\n        /* \"contracts/mlm.sol\":2982:3043  Staked(msg.sender, stakeId, positionId, msg.value, timestamp) */\n      0xffffffffffffffffffffffffffffffffffffffff\n      and\n      0x9cfd25589d1eb8ad71e342a86a8524e83522e3936c0803048c08f6d9ad974f40\n        /* \"contracts/mlm.sol\":3022:3031  msg.value */\n      callvalue\n        /* \"contracts/mlm.sol\":3033:3042  timestamp */\n      dup7\n        /* \"contracts/mlm.sol\":2982:3043  Staked(msg.sender, stakeId, positionId, msg.value, timestamp) */\n      mload(0x40)\n      tag_179\n      swap3\n      swap2\n      swap1\n      tag_180\n      jump\t// in\n    tag_179:\n      mload(0x40)\n      dup1\n      swap2\n      sub\n      swap1\n      log4\n        /* \"contracts/mlm.sol\":1885:3050  {... */\n      pop\n      pop\n      pop\n      pop\n        /* \"contracts/mlm.sol\":1836:3050  function stake() external payable onlyRegistered {... */\n      jump\t// out\n        /* \"contracts/mlm.sol\":1338:1830  function register(address _referrer) external {... */\n    tag_55:\n        /* \"contracts/mlm.sol\":1403:1408  users */\n      0x01\n        /* \"contracts/mlm.sol\":1403:1420  users[msg.sender] */\n      0x00\n        /* \"contracts/mlm.sol\":1409:1419  msg.sender */\n      caller\n        /* \"contracts/mlm.sol\":1403:1420  users[msg.sender] */\n      0xffffffffffffffffffffffffffffffffffffffff\n      and\n      0xffffffffffffffffffffffffffffffffffffffff\n      and\n      dup2\n      mstore\n      0x20\n      add\n      swap1\n      dup2\n      mstore\n      0x20\n      add\n      0x00\n      keccak256\n        /* \"contracts/mlm.sol\":1403:1431  users[msg.sender].registered */\n      0x00\n      add\n      0x14\n      swap1\n      sload\n      swap1\n      0x0100\n      exp\n      swap1\n      div\n      0xff\n      and\n        /* \"contracts/mlm.sol\":1402:1431  !users[msg.sender].registered */\n      iszero\n        /* \"contracts/mlm.sol\":1394:1454  require(!users[msg.sender].registered, \"Already registered\") */\n      tag_182\n      jumpi\n      mload(0x40)\n      0x08c379a000000000000000000000000000000000000000000000000000000000\n      dup2\n      mstore\n      0x04\n      add\n      tag_183\n      swap1\n      tag_184\n      jump\t// in\n    tag_183:\n      mload(0x40)\n      dup1\n      swap2\n      sub\n      swap1\n      revert\n    tag_182:\n        /* \"contracts/mlm.sol\":1485:1495  msg.sender */\n      caller\n        /* \"contracts/mlm.sol\":1472:1495  _referrer != msg.sender */\n      0xffffffffffffffffffffffffffffffffffffffff\n      and\n        /* \"contracts/mlm.sol\":1472:1481  _referrer */\n      dup2\n        /* \"contracts/mlm.sol\":1472:1495  _referrer != msg.sender */\n      0xffffffffffffffffffffffffffffffffffffffff\n      and\n      sub\n        /* \"contracts/mlm.sol\":1464:1521  require(_referrer != msg.sender, \"Cannot refer yourself\") */\n      tag_185\n      jumpi\n      mload(0x40)\n      0x08c379a000000000000000000000000000000000000000000000000000000000\n      dup2\n      mstore\n      0x04\n      add\n      tag_186\n      swap1\n      tag_187\n      jump\t// in\n    tag_186:\n      mload(0x40)\n      dup1\n      swap2\n      sub\n      swap1\n      revert\n    tag_185:\n        /* \"contracts/mlm.sol\":1539:1544  users */\n      0x01\n        /* \"contracts/mlm.sol\":1539:1555  users[_referrer] */\n      0x00\n        /* \"contracts/mlm.sol\":1545:1554  _referrer */\n      dup3\n        /* \"contracts/mlm.sol\":1539:1555  users[_referrer] */\n      0xffffffffffffffffffffffffffffffffffffffff\n      and\n      0xffffffffffffffffffffffffffffffffffffffff\n      and\n      dup2\n      mstore\n      0x20\n      add\n      swap1\n      dup2\n      mstore\n      0x20\n      add\n      0x00\n      keccak256\n        /* \"contracts/mlm.sol\":1539:1566  users[_referrer].registered */\n      0x00\n      add\n      0x14\n      swap1\n      sload\n      swap1\n      0x0100\n      exp\n      swap1\n      div\n      0xff\n      and\n        /* \"contracts/mlm.sol\":1531:1594  require(users[_referrer].registered, \"Referrer not registered\") */\n      tag_188\n      jumpi\n      mload(0x40)\n      0x08c379a000000000000000000000000000000000000000000000000000000000\n      dup2\n      mstore\n      0x04\n      add\n      tag_189\n      swap1\n      tag_190\n      jump\t// in\n    tag_189:\n      mload(0x40)\n      dup1\n      swap2\n      sub\n      swap1\n      revert\n    tag_188:\n        /* \"contracts/mlm.sol\":1634:1643  _referrer */\n      dup1\n        /* \"contracts/mlm.sol\":1605:1610  users */\n      0x01\n        /* \"contracts/mlm.sol\":1605:1622  users[msg.sender] */\n      0x00\n        /* \"contracts/mlm.sol\":1611:1621  msg.sender */\n      caller\n        /* \"contracts/mlm.sol\":1605:1622  users[msg.sender] */\n      0xffffffffffffffffffffffffffffffffffffffff\n      and\n      0xffffffffffffffffffffffffffffffffffffffff\n      and\n      dup2\n      mstore\n      0x20\n      add\n      swap1\n      dup2\n      mstore\n      0x20\n      add\n      0x00\n      keccak256\n        /* \"contracts/mlm.sol\":1605:1631  users[msg.sender].referrer */\n      0x00\n      add\n      0x00\n        /* \"contracts/mlm.sol\":1605:1643  users[msg.sender].referrer = _referrer */\n      0x0100\n      exp\n      dup2\n      sload\n      dup2\n      0xffffffffffffffffffffffffffffffffffffffff\n      mul\n      not\n      and\n      swap1\n      dup4\n      0xffffffffffffffffffffffffffffffffffffffff\n      and\n      mul\n      or\n      swap1\n      sstore\n      pop\n        /* \"contracts/mlm.sol\":1684:1688  true */\n      0x01\n        /* \"contracts/mlm.sol\":1653:1658  users */\n      dup1\n        /* \"contracts/mlm.sol\":1653:1670  users[msg.sender] */\n      0x00\n        /* \"contracts/mlm.sol\":1659:1669  msg.sender */\n      caller\n        /* \"contracts/mlm.sol\":1653:1670  users[msg.sender] */\n      0xffffffffffffffffffffffffffffffffffffffff\n      and\n      0xffffffffffffffffffffffffffffffffffffffff\n      and\n      dup2\n      mstore\n      0x20\n      add\n      swap1\n      dup2\n      mstore\n      0x20\n      add\n      0x00\n      keccak256\n        /* \"contracts/mlm.sol\":1653:1681  users[msg.sender].registered */\n      0x00\n      add\n      0x14\n        /* \"contracts/mlm.sol\":1653:1688  users[msg.sender].registered = true */\n      0x0100\n      exp\n      dup2\n      sload\n      dup2\n      0xff\n      mul\n      not\n      and\n      swap1\n      dup4\n      iszero\n      iszero\n      mul\n      or\n      swap1\n      sstore\n      pop\n        /* \"contracts/mlm.sol\":1742:1761  directReferralCount */\n      0x06\n        /* \"contracts/mlm.sol\":1742:1772  directReferralCount[_referrer] */\n      0x00\n        /* \"contracts/mlm.sol\":1762:1771  _referrer */\n      dup3\n        /* \"contracts/mlm.sol\":1742:1772  directReferralCount[_referrer] */\n      0xffffffffffffffffffffffffffffffffffffffff\n      and\n      0xffffffffffffffffffffffffffffffffffffffff\n      and\n      dup2\n      mstore\n      0x20\n      add\n      swap1\n      dup2\n      mstore\n      0x20\n      add\n      0x00\n      keccak256\n      0x00\n        /* \"contracts/mlm.sol\":1742:1774  directReferralCount[_referrer]++ */\n      dup2\n      sload\n      dup1\n      swap3\n      swap2\n      swap1\n      tag_191\n      swap1\n      tag_124\n      jump\t// in\n    tag_191:\n      swap2\n      swap1\n      pop\n      sstore\n      pop\n        /* \"contracts/mlm.sol\":1813:1822  _referrer */\n      dup1\n        /* \"contracts/mlm.sol\":1790:1823  Registered(msg.sender, _referrer) */\n      0xffffffffffffffffffffffffffffffffffffffff\n      and\n        /* \"contracts/mlm.sol\":1801:1811  msg.sender */\n      caller\n        /* \"contracts/mlm.sol\":1790:1823  Registered(msg.sender, _referrer) */\n      0xffffffffffffffffffffffffffffffffffffffff\n      and\n      0x0a31ee9d46a828884b81003c8498156ea6aa15b9b54bdd0ef0b533d9eba57e55\n      mload(0x40)\n      mload(0x40)\n      dup1\n      swap2\n      sub\n      swap1\n      log3\n        /* \"contracts/mlm.sol\":1338:1830  function register(address _referrer) external {... */\n      pop\n      jump\t// out\n        /* \"contracts/mlm.sol\":531:557  uint256 public nextStakeId */\n    tag_58:\n      sload(0x04)\n      dup2\n      jump\t// out\n        /* \"contracts/mlm.sol\":3096:3742  function getStakeByPositionId(uint256 _positionId) external view returns (... */\n    tag_63:\n        /* \"contracts/mlm.sol\":3179:3191  address user */\n      0x00\n        /* \"contracts/mlm.sol\":3201:3216  uint256 stakeId */\n      dup1\n        /* \"contracts/mlm.sol\":3226:3240  uint256 amount */\n      0x00\n        /* \"contracts/mlm.sol\":3250:3267  uint256 timestamp */\n      dup1\n        /* \"contracts/mlm.sol\":3284:3300  address userAddr */\n      0x00\n        /* \"contracts/mlm.sol\":3303:3319  positionIdToUser */\n      0x02\n        /* \"contracts/mlm.sol\":3303:3332  positionIdToUser[_positionId] */\n      0x00\n        /* \"contracts/mlm.sol\":3320:3331  _positionId */\n      dup8\n        /* \"contracts/mlm.sol\":3303:3332  positionIdToUser[_positionId] */\n      dup2\n      mstore\n      0x20\n      add\n      swap1\n      dup2\n      mstore\n      0x20\n      add\n      0x00\n      keccak256\n      0x00\n      swap1\n      sload\n      swap1\n      0x0100\n      exp\n      swap1\n      div\n      0xffffffffffffffffffffffffffffffffffffffff\n      and\n        /* \"contracts/mlm.sol\":3284:3332  address userAddr = positionIdToUser[_positionId] */\n      swap1\n      pop\n        /* \"contracts/mlm.sol\":3370:3371  0 */\n      0x00\n        /* \"contracts/mlm.sol\":3350:3372  userAddr != address(0) */\n      0xffffffffffffffffffffffffffffffffffffffff\n      and\n        /* \"contracts/mlm.sol\":3350:3358  userAddr */\n      dup2\n        /* \"contracts/mlm.sol\":3350:3372  userAddr != address(0) */\n      0xffffffffffffffffffffffffffffffffffffffff\n      and\n      sub\n        /* \"contracts/mlm.sol\":3342:3395  require(userAddr != address(0), \"Invalid positionId\") */\n      tag_193\n      jumpi\n      mload(0x40)\n      0x08c379a000000000000000000000000000000000000000000000000000000000\n      dup2\n      mstore\n      0x04\n      add\n      tag_194\n      swap1\n      tag_195\n      jump\t// in\n    tag_194:\n      mload(0x40)\n      dup1\n      swap2\n      sub\n      swap1\n      revert\n    tag_193:\n        /* \"contracts/mlm.sol\":3406:3427  Stake[] memory stakes */\n      0x00\n        /* \"contracts/mlm.sol\":3430:3435  users */\n      0x01\n        /* \"contracts/mlm.sol\":3430:3445  users[userAddr] */\n      0x00\n        /* \"contracts/mlm.sol\":3436:3444  userAddr */\n      dup4\n        /* \"contracts/mlm.sol\":3430:3445  users[userAddr] */\n      0xffffffffffffffffffffffffffffffffffffffff\n      and\n      0xffffffffffffffffffffffffffffffffffffffff\n      and\n      dup2\n      mstore\n      0x20\n      add\n      swap1\n      dup2\n      mstore\n      0x20\n      add\n      0x00\n      keccak256\n        /* \"contracts/mlm.sol\":3430:3452  users[userAddr].stakes */\n      0x01\n      add\n        /* \"contracts/mlm.sol\":3406:3452  Stake[] memory stakes = users[userAddr].stakes */\n      dup1\n      sload\n      dup1\n      0x20\n      mul\n      0x20\n      add\n      mload(0x40)\n      swap1\n      dup2\n      add\n      0x40\n      mstore\n      dup1\n      swap3\n      swap2\n      swap1\n      dup2\n      dup2\n      mstore\n      0x20\n      add\n      0x00\n      swap1\n    tag_196:\n      dup3\n      dup3\n      lt\n      iszero\n      tag_197\n      jumpi\n      dup4\n      dup3\n      swap1\n      0x00\n      mstore\n      keccak256(0x00, 0x20)\n      swap1\n      0x04\n      mul\n      add\n      mload(0x40)\n      dup1\n      0x80\n      add\n      0x40\n      mstore\n      swap1\n      dup2\n      0x00\n      dup3\n      add\n      sload\n      dup2\n      mstore\n      0x20\n      add\n      0x01\n      dup3\n      add\n      sload\n      dup2\n      mstore\n      0x20\n      add\n      0x02\n      dup3\n      add\n      sload\n      dup2\n      mstore\n      0x20\n      add\n      0x03\n      dup3\n      add\n      sload\n      dup2\n      mstore\n      pop\n      pop\n      dup2\n      mstore\n      0x20\n      add\n      swap1\n      0x01\n      add\n      swap1\n      jump(tag_196)\n    tag_197:\n      pop\n      pop\n      pop\n      pop\n      swap1\n      pop\n        /* \"contracts/mlm.sol\":3467:3476  uint256 i */\n      0x00\n        /* \"contracts/mlm.sol\":3462:3679  for (uint256 i = 0; i < stakes.length; i++) {... */\n    tag_199:\n        /* \"contracts/mlm.sol\":3486:3492  stakes */\n      dup2\n        /* \"contracts/mlm.sol\":3486:3499  stakes.length */\n      mload\n        /* \"contracts/mlm.sol\":3482:3483  i */\n      dup2\n        /* \"contracts/mlm.sol\":3482:3499  i < stakes.length */\n      lt\n        /* \"contracts/mlm.sol\":3462:3679  for (uint256 i = 0; i < stakes.length; i++) {... */\n      iszero\n      tag_200\n      jumpi\n        /* \"contracts/mlm.sol\":3548:3559  _positionId */\n      dup8\n        /* \"contracts/mlm.sol\":3524:3530  stakes */\n      dup3\n        /* \"contracts/mlm.sol\":3531:3532  i */\n      dup3\n        /* \"contracts/mlm.sol\":3524:3533  stakes[i] */\n      dup2\n      mload\n      dup2\n      lt\n      tag_202\n      jumpi\n      tag_203\n      tag_137\n      jump\t// in\n    tag_203:\n    tag_202:\n      0x20\n      mul\n      0x20\n      add\n      add\n      mload\n        /* \"contracts/mlm.sol\":3524:3544  stakes[i].positionId */\n      0x40\n      add\n      mload\n        /* \"contracts/mlm.sol\":3524:3559  stakes[i].positionId == _positionId */\n      sub\n        /* \"contracts/mlm.sol\":3520:3669  if (stakes[i].positionId == _positionId) {... */\n      tag_204\n      jumpi\n        /* \"contracts/mlm.sol\":3587:3595  userAddr */\n      dup3\n        /* \"contracts/mlm.sol\":3597:3603  stakes */\n      dup3\n        /* \"contracts/mlm.sol\":3604:3605  i */\n      dup3\n        /* \"contracts/mlm.sol\":3597:3606  stakes[i] */\n      dup2\n      mload\n      dup2\n      lt\n      tag_205\n      jumpi\n      tag_206\n      tag_137\n      jump\t// in\n    tag_206:\n    tag_205:\n      0x20\n      mul\n      0x20\n      add\n      add\n      mload\n        /* \"contracts/mlm.sol\":3597:3614  stakes[i].stakeId */\n      0x00\n      add\n      mload\n        /* \"contracts/mlm.sol\":3616:3622  stakes */\n      dup4\n        /* \"contracts/mlm.sol\":3623:3624  i */\n      dup4\n        /* \"contracts/mlm.sol\":3616:3625  stakes[i] */\n      dup2\n      mload\n      dup2\n      lt\n      tag_207\n      jumpi\n      tag_208\n      tag_137\n      jump\t// in\n    tag_208:\n    tag_207:\n      0x20\n      mul\n      0x20\n      add\n      add\n      mload\n        /* \"contracts/mlm.sol\":3616:3632  stakes[i].amount */\n      0x20\n      add\n      mload\n        /* \"contracts/mlm.sol\":3634:3640  stakes */\n      dup5\n        /* \"contracts/mlm.sol\":3641:3642  i */\n      dup5\n        /* \"contracts/mlm.sol\":3634:3643  stakes[i] */\n      dup2\n      mload\n      dup2\n      lt\n      tag_209\n      jumpi\n      tag_210\n      tag_137\n      jump\t// in\n    tag_210:\n    tag_209:\n      0x20\n      mul\n      0x20\n      add\n      add\n      mload\n        /* \"contracts/mlm.sol\":3634:3653  stakes[i].timestamp */\n      0x60\n      add\n      mload\n        /* \"contracts/mlm.sol\":3579:3654  return (userAddr, stakes[i].stakeId, stakes[i].amount, stakes[i].timestamp) */\n      swap7\n      pop\n      swap7\n      pop\n      swap7\n      pop\n      swap7\n      pop\n      pop\n      pop\n      pop\n      jump(tag_192)\n        /* \"contracts/mlm.sol\":3520:3669  if (stakes[i].positionId == _positionId) {... */\n    tag_204:\n        /* \"contracts/mlm.sol\":3501:3504  i++ */\n      dup1\n      dup1\n      0x01\n      add\n      swap2\n      pop\n      pop\n        /* \"contracts/mlm.sol\":3462:3679  for (uint256 i = 0; i < stakes.length; i++) {... */\n      jump(tag_199)\n    tag_200:\n      pop\n        /* \"contracts/mlm.sol\":3689:3735  revert(\"Stake not found for given positionId\") */\n      mload(0x40)\n      0x08c379a000000000000000000000000000000000000000000000000000000000\n      dup2\n      mstore\n      0x04\n      add\n      tag_211\n      swap1\n      tag_212\n      jump\t// in\n    tag_211:\n      mload(0x40)\n      dup1\n      swap2\n      sub\n      swap1\n      revert\n        /* \"contracts/mlm.sol\":3096:3742  function getStakeByPositionId(uint256 _positionId) external view returns (... */\n    tag_192:\n      swap2\n      swap4\n      pop\n      swap2\n      swap4\n      jump\t// out\n        /* \"contracts/mlm.sol\":744:790  mapping(address => uint256) public totalIncome */\n    tag_69:\n      mstore(0x20, 0x08)\n      dup1\n      0x00\n      mstore\n      keccak256(0x00, 0x40)\n      0x00\n      swap2\n      pop\n      swap1\n      pop\n      sload\n      dup2\n      jump\t// out\n        /* \"contracts/mlm.sol\":563:592  uint256 public nextPositionId */\n    tag_73:\n      sload(0x05)\n      dup2\n      jump\t// out\n        /* \"contracts/mlm.sol\":83:103  address public owner */\n    tag_77:\n      0x00\n      dup1\n      sload\n      swap1\n      0x0100\n      exp\n      swap1\n      div\n      0xffffffffffffffffffffffffffffffffffffffff\n      and\n      dup2\n      jump\t// out\n        /* \"contracts/mlm.sol\":4636:4763  function getDirectReferralCount(address user) external view returns (uint256) {... */\n    tag_82:\n        /* \"contracts/mlm.sol\":4705:4712  uint256 */\n      0x00\n        /* \"contracts/mlm.sol\":4731:4750  directReferralCount */\n      0x06\n        /* \"contracts/mlm.sol\":4731:4756  directReferralCount[user] */\n      0x00\n        /* \"contracts/mlm.sol\":4751:4755  user */\n      dup4\n        /* \"contracts/mlm.sol\":4731:4756  directReferralCount[user] */\n      0xffffffffffffffffffffffffffffffffffffffff\n      and\n      0xffffffffffffffffffffffffffffffffffffffff\n      and\n      dup2\n      mstore\n      0x20\n      add\n      swap1\n      dup2\n      mstore\n      0x20\n      add\n      0x00\n      keccak256\n      sload\n        /* \"contracts/mlm.sol\":4724:4756  return directReferralCount[user] */\n      swap1\n      pop\n        /* \"contracts/mlm.sol\":4636:4763  function getDirectReferralCount(address user) external view returns (uint256) {... */\n      swap2\n      swap1\n      pop\n      jump\t// out\n        /* \"contracts/mlm.sol\":340:377  mapping(address => User) public users */\n    tag_87:\n      mstore(0x20, 0x01)\n      dup1\n      0x00\n      mstore\n      keccak256(0x00, 0x40)\n      0x00\n      swap2\n      pop\n      swap1\n      pop\n      dup1\n      0x00\n      add\n      0x00\n      swap1\n      sload\n      swap1\n      0x0100\n      exp\n      swap1\n      div\n      0xffffffffffffffffffffffffffffffffffffffff\n      and\n      swap1\n      dup1\n      0x00\n      add\n      0x14\n      swap1\n      sload\n      swap1\n      0x0100\n      exp\n      swap1\n      div\n      0xff\n      and\n      swap1\n      pop\n      dup3\n      jump\t// out\n        /* \"contracts/mlm.sol\":4769:4898  function getDirectReferralIncome(address user) external view returns (uint256) {... */\n    tag_93:\n        /* \"contracts/mlm.sol\":4839:4846  uint256 */\n      0x00\n        /* \"contracts/mlm.sol\":4865:4885  directReferralIncome */\n      0x07\n        /* \"contracts/mlm.sol\":4865:4891  directReferralIncome[user] */\n      0x00\n        /* \"contracts/mlm.sol\":4886:4890  user */\n      dup4\n        /* \"contracts/mlm.sol\":4865:4891  directReferralIncome[user] */\n      0xffffffffffffffffffffffffffffffffffffffff\n      and\n      0xffffffffffffffffffffffffffffffffffffffff\n      and\n      dup2\n      mstore\n      0x20\n      add\n      swap1\n      dup2\n      mstore\n      0x20\n      add\n      0x00\n      keccak256\n      sload\n        /* \"contracts/mlm.sol\":4858:4891  return directReferralIncome[user] */\n      swap1\n      pop\n        /* \"contracts/mlm.sol\":4769:4898  function getDirectReferralIncome(address user) external view returns (uint256) {... */\n      swap2\n      swap1\n      pop\n      jump\t// out\n        /* \"contracts/mlm.sol\":623:677  mapping(address => uint256) public directReferralCount */\n    tag_98:\n      mstore(0x20, 0x06)\n      dup1\n      0x00\n      mstore\n      keccak256(0x00, 0x40)\n      0x00\n      swap2\n      pop\n      swap1\n      pop\n      sload\n      dup2\n      jump\t// out\n        /* \"contracts/mlm.sol\":4904:5015  function getTotalIncome(address user) external view returns (uint256) {... */\n    tag_103:\n        /* \"contracts/mlm.sol\":4965:4972  uint256 */\n      0x00\n        /* \"contracts/mlm.sol\":4991:5002  totalIncome */\n      0x08\n        /* \"contracts/mlm.sol\":4991:5008  totalIncome[user] */\n      0x00\n        /* \"contracts/mlm.sol\":5003:5007  user */\n      dup4\n        /* \"contracts/mlm.sol\":4991:5008  totalIncome[user] */\n      0xffffffffffffffffffffffffffffffffffffffff\n      and\n      0xffffffffffffffffffffffffffffffffffffffff\n      and\n      dup2\n      mstore\n      0x20\n      add\n      swap1\n      dup2\n      mstore\n      0x20\n      add\n      0x00\n      keccak256\n      sload\n        /* \"contracts/mlm.sol\":4984:5008  return totalIncome[user] */\n      swap1\n      pop\n        /* \"contracts/mlm.sol\":4904:5015  function getTotalIncome(address user) external view returns (uint256) {... */\n      swap2\n      swap1\n      pop\n      jump\t// out\n        /* \"contracts/mlm.sol\":441:481  uint8[3] public levelRewards = [5, 3, 2] */\n    tag_108:\n      0x03\n      dup2\n      0x03\n      dup2\n      lt\n      tag_216\n      jumpi\n      0x00\n      dup1\n      revert\n    tag_216:\n      0x20\n      swap2\n      dup3\n      dup3\n      div\n      add\n      swap2\n      swap1\n      mod\n      swap2\n      pop\n      sload\n      swap1\n      0x0100\n      exp\n      swap1\n      div\n      0xff\n      and\n      dup2\n      jump\t// out\n        /* \"contracts/mlm.sol\":683:738  mapping(address => uint256) public directReferralIncome */\n    tag_114:\n      mstore(0x20, 0x07)\n      dup1\n      0x00\n      mstore\n      keccak256(0x00, 0x40)\n      0x00\n      swap2\n      pop\n      swap1\n      pop\n      sload\n      dup2\n      jump\t// out\n        /* \"#utility.yul\":88:205   */\n    tag_219:\n        /* \"#utility.yul\":197:198   */\n      0x00\n        /* \"#utility.yul\":194:195   */\n      dup1\n        /* \"#utility.yul\":187:199   */\n      revert\n        /* \"#utility.yul\":334:411   */\n    tag_221:\n        /* \"#utility.yul\":371:378   */\n      0x00\n        /* \"#utility.yul\":400:405   */\n      dup2\n        /* \"#utility.yul\":389:405   */\n      swap1\n      pop\n        /* \"#utility.yul\":334:411   */\n      swap2\n      swap1\n      pop\n      jump\t// out\n        /* \"#utility.yul\":417:539   */\n    tag_222:\n        /* \"#utility.yul\":490:514   */\n      tag_268\n        /* \"#utility.yul\":508:513   */\n      dup2\n        /* \"#utility.yul\":490:514   */\n      tag_221\n      jump\t// in\n    tag_268:\n        /* \"#utility.yul\":483:488   */\n      dup2\n        /* \"#utility.yul\":480:515   */\n      eq\n        /* \"#utility.yul\":470:533   */\n      tag_269\n      jumpi\n        /* \"#utility.yul\":529:530   */\n      0x00\n        /* \"#utility.yul\":526:527   */\n      dup1\n        /* \"#utility.yul\":519:531   */\n      revert\n        /* \"#utility.yul\":470:533   */\n    tag_269:\n        /* \"#utility.yul\":417:539   */\n      pop\n      jump\t// out\n        /* \"#utility.yul\":545:684   */\n    tag_223:\n        /* \"#utility.yul\":591:596   */\n      0x00\n        /* \"#utility.yul\":629:635   */\n      dup2\n        /* \"#utility.yul\":616:636   */\n      calldataload\n        /* \"#utility.yul\":607:636   */\n      swap1\n      pop\n        /* \"#utility.yul\":645:678   */\n      tag_271\n        /* \"#utility.yul\":672:677   */\n      dup2\n        /* \"#utility.yul\":645:678   */\n      tag_222\n      jump\t// in\n    tag_271:\n        /* \"#utility.yul\":545:684   */\n      swap3\n      swap2\n      pop\n      pop\n      jump\t// out\n        /* \"#utility.yul\":690:1019   */\n    tag_29:\n        /* \"#utility.yul\":749:755   */\n      0x00\n        /* \"#utility.yul\":798:800   */\n      0x20\n        /* \"#utility.yul\":786:795   */\n      dup3\n        /* \"#utility.yul\":777:784   */\n      dup5\n        /* \"#utility.yul\":773:796   */\n      sub\n        /* \"#utility.yul\":769:801   */\n      slt\n        /* \"#utility.yul\":766:885   */\n      iszero\n      tag_273\n      jumpi\n        /* \"#utility.yul\":804:883   */\n      tag_274\n      tag_219\n      jump\t// in\n    tag_274:\n        /* \"#utility.yul\":766:885   */\n    tag_273:\n        /* \"#utility.yul\":924:925   */\n      0x00\n        /* \"#utility.yul\":949:1002   */\n      tag_275\n        /* \"#utility.yul\":994:1001   */\n      dup5\n        /* \"#utility.yul\":985:991   */\n      dup3\n        /* \"#utility.yul\":974:983   */\n      dup6\n        /* \"#utility.yul\":970:992   */\n      add\n        /* \"#utility.yul\":949:1002   */\n      tag_223\n      jump\t// in\n    tag_275:\n        /* \"#utility.yul\":939:1002   */\n      swap2\n      pop\n        /* \"#utility.yul\":895:1012   */\n      pop\n        /* \"#utility.yul\":690:1019   */\n      swap3\n      swap2\n      pop\n      pop\n      jump\t// out\n        /* \"#utility.yul\":1025:1151   */\n    tag_224:\n        /* \"#utility.yul\":1062:1069   */\n      0x00\n        /* \"#utility.yul\":1102:1144   */\n      0xffffffffffffffffffffffffffffffffffffffff\n        /* \"#utility.yul\":1095:1100   */\n      dup3\n        /* \"#utility.yul\":1091:1145   */\n      and\n        /* \"#utility.yul\":1080:1145   */\n      swap1\n      pop\n        /* \"#utility.yul\":1025:1151   */\n      swap2\n      swap1\n      pop\n      jump\t// out\n        /* \"#utility.yul\":1157:1253   */\n    tag_225:\n        /* \"#utility.yul\":1194:1201   */\n      0x00\n        /* \"#utility.yul\":1223:1247   */\n      tag_278\n        /* \"#utility.yul\":1241:1246   */\n      dup3\n        /* \"#utility.yul\":1223:1247   */\n      tag_224\n      jump\t// in\n    tag_278:\n        /* \"#utility.yul\":1212:1247   */\n      swap1\n      pop\n        /* \"#utility.yul\":1157:1253   */\n      swap2\n      swap1\n      pop\n      jump\t// out\n        /* \"#utility.yul\":1259:1377   */\n    tag_226:\n        /* \"#utility.yul\":1346:1370   */\n      tag_280\n        /* \"#utility.yul\":1364:1369   */\n      dup2\n        /* \"#utility.yul\":1346:1370   */\n      tag_225\n      jump\t// in\n    tag_280:\n        /* \"#utility.yul\":1341:1344   */\n      dup3\n        /* \"#utility.yul\":1334:1371   */\n      mstore\n        /* \"#utility.yul\":1259:1377   */\n      pop\n      pop\n      jump\t// out\n        /* \"#utility.yul\":1383:1605   */\n    tag_32:\n        /* \"#utility.yul\":1476:1480   */\n      0x00\n        /* \"#utility.yul\":1514:1516   */\n      0x20\n        /* \"#utility.yul\":1503:1512   */\n      dup3\n        /* \"#utility.yul\":1499:1517   */\n      add\n        /* \"#utility.yul\":1491:1517   */\n      swap1\n      pop\n        /* \"#utility.yul\":1527:1598   */\n      tag_282\n        /* \"#utility.yul\":1595:1596   */\n      0x00\n        /* \"#utility.yul\":1584:1593   */\n      dup4\n        /* \"#utility.yul\":1580:1597   */\n      add\n        /* \"#utility.yul\":1571:1577   */\n      dup5\n        /* \"#utility.yul\":1527:1598   */\n      tag_226\n      jump\t// in\n    tag_282:\n        /* \"#utility.yul\":1383:1605   */\n      swap3\n      swap2\n      pop\n      pop\n      jump\t// out\n        /* \"#utility.yul\":1611:1733   */\n    tag_227:\n        /* \"#utility.yul\":1684:1708   */\n      tag_284\n        /* \"#utility.yul\":1702:1707   */\n      dup2\n        /* \"#utility.yul\":1684:1708   */\n      tag_225\n      jump\t// in\n    tag_284:\n        /* \"#utility.yul\":1677:1682   */\n      dup2\n        /* \"#utility.yul\":1674:1709   */\n      eq\n        /* \"#utility.yul\":1664:1727   */\n      tag_285\n      jumpi\n        /* \"#utility.yul\":1723:1724   */\n      0x00\n        /* \"#utility.yul\":1720:1721   */\n      dup1\n        /* \"#utility.yul\":1713:1725   */\n      revert\n        /* \"#utility.yul\":1664:1727   */\n    tag_285:\n        /* \"#utility.yul\":1611:1733   */\n      pop\n      jump\t// out\n        /* \"#utility.yul\":1739:1878   */\n    tag_228:\n        /* \"#utility.yul\":1785:1790   */\n      0x00\n        /* \"#utility.yul\":1823:1829   */\n      dup2\n        /* \"#utility.yul\":1810:1830   */\n      calldataload\n        /* \"#utility.yul\":1801:1830   */\n      swap1\n      pop\n        /* \"#utility.yul\":1839:1872   */\n      tag_287\n        /* \"#utility.yul\":1866:1871   */\n      dup2\n        /* \"#utility.yul\":1839:1872   */\n      tag_227\n      jump\t// in\n    tag_287:\n        /* \"#utility.yul\":1739:1878   */\n      swap3\n      swap2\n      pop\n      pop\n      jump\t// out\n        /* \"#utility.yul\":1884:2213   */\n    tag_36:\n        /* \"#utility.yul\":1943:1949   */\n      0x00\n        /* \"#utility.yul\":1992:1994   */\n      0x20\n        /* \"#utility.yul\":1980:1989   */\n      dup3\n        /* \"#utility.yul\":1971:1978   */\n      dup5\n        /* \"#utility.yul\":1967:1990   */\n      sub\n        /* \"#utility.yul\":1963:1995   */\n      slt\n        /* \"#utility.yul\":1960:2079   */\n      iszero\n      tag_289\n      jumpi\n        /* \"#utility.yul\":1998:2077   */\n      tag_290\n      tag_219\n      jump\t// in\n    tag_290:\n        /* \"#utility.yul\":1960:2079   */\n    tag_289:\n        /* \"#utility.yul\":2118:2119   */\n      0x00\n        /* \"#utility.yul\":2143:2196   */\n      tag_291\n        /* \"#utility.yul\":2188:2195   */\n      dup5\n        /* \"#utility.yul\":2179:2185   */\n      dup3\n        /* \"#utility.yul\":2168:2177   */\n      dup6\n        /* \"#utility.yul\":2164:2186   */\n      add\n        /* \"#utility.yul\":2143:2196   */\n      tag_228\n      jump\t// in\n    tag_291:\n        /* \"#utility.yul\":2133:2196   */\n      swap2\n      pop\n        /* \"#utility.yul\":2089:2206   */\n      pop\n        /* \"#utility.yul\":1884:2213   */\n      swap3\n      swap2\n      pop\n      pop\n      jump\t// out\n        /* \"#utility.yul\":2219:2337   */\n    tag_229:\n        /* \"#utility.yul\":2306:2330   */\n      tag_293\n        /* \"#utility.yul\":2324:2329   */\n      dup2\n        /* \"#utility.yul\":2306:2330   */\n      tag_221\n      jump\t// in\n    tag_293:\n        /* \"#utility.yul\":2301:2304   */\n      dup3\n        /* \"#utility.yul\":2294:2331   */\n      mstore\n        /* \"#utility.yul\":2219:2337   */\n      pop\n      pop\n      jump\t// out\n        /* \"#utility.yul\":2343:2565   */\n    tag_39:\n        /* \"#utility.yul\":2436:2440   */\n      0x00\n        /* \"#utility.yul\":2474:2476   */\n      0x20\n        /* \"#utility.yul\":2463:2472   */\n      dup3\n        /* \"#utility.yul\":2459:2477   */\n      add\n        /* \"#utility.yul\":2451:2477   */\n      swap1\n      pop\n        /* \"#utility.yul\":2487:2558   */\n      tag_295\n        /* \"#utility.yul\":2555:2556   */\n      0x00\n        /* \"#utility.yul\":2544:2553   */\n      dup4\n        /* \"#utility.yul\":2540:2557   */\n      add\n        /* \"#utility.yul\":2531:2537   */\n      dup5\n        /* \"#utility.yul\":2487:2558   */\n      tag_229\n      jump\t// in\n    tag_295:\n        /* \"#utility.yul\":2343:2565   */\n      swap3\n      swap2\n      pop\n      pop\n      jump\t// out\n        /* \"#utility.yul\":2571:2685   */\n    tag_230:\n        /* \"#utility.yul\":2638:2644   */\n      0x00\n        /* \"#utility.yul\":2672:2677   */\n      dup2\n        /* \"#utility.yul\":2666:2678   */\n      mload\n        /* \"#utility.yul\":2656:2678   */\n      swap1\n      pop\n        /* \"#utility.yul\":2571:2685   */\n      swap2\n      swap1\n      pop\n      jump\t// out\n        /* \"#utility.yul\":2691:2875   */\n    tag_231:\n        /* \"#utility.yul\":2790:2801   */\n      0x00\n        /* \"#utility.yul\":2824:2830   */\n      dup3\n        /* \"#utility.yul\":2819:2822   */\n      dup3\n        /* \"#utility.yul\":2812:2831   */\n      mstore\n        /* \"#utility.yul\":2864:2868   */\n      0x20\n        /* \"#utility.yul\":2859:2862   */\n      dup3\n        /* \"#utility.yul\":2855:2869   */\n      add\n        /* \"#utility.yul\":2840:2869   */\n      swap1\n      pop\n        /* \"#utility.yul\":2691:2875   */\n      swap3\n      swap2\n      pop\n      pop\n      jump\t// out\n        /* \"#utility.yul\":2881:3013   */\n    tag_232:\n        /* \"#utility.yul\":2948:2952   */\n      0x00\n        /* \"#utility.yul\":2971:2974   */\n      dup2\n        /* \"#utility.yul\":2963:2974   */\n      swap1\n      pop\n        /* \"#utility.yul\":3001:3005   */\n      0x20\n        /* \"#utility.yul\":2996:2999   */\n      dup3\n        /* \"#utility.yul\":2992:3006   */\n      add\n        /* \"#utility.yul\":2984:3006   */\n      swap1\n      pop\n        /* \"#utility.yul\":2881:3013   */\n      swap2\n      swap1\n      pop\n      jump\t// out\n        /* \"#utility.yul\":3019:3127   */\n    tag_233:\n        /* \"#utility.yul\":3096:3120   */\n      tag_300\n        /* \"#utility.yul\":3114:3119   */\n      dup2\n        /* \"#utility.yul\":3096:3120   */\n      tag_221\n      jump\t// in\n    tag_300:\n        /* \"#utility.yul\":3091:3094   */\n      dup3\n        /* \"#utility.yul\":3084:3121   */\n      mstore\n        /* \"#utility.yul\":3019:3127   */\n      pop\n      pop\n      jump\t// out\n        /* \"#utility.yul\":3133:3312   */\n    tag_234:\n        /* \"#utility.yul\":3202:3212   */\n      0x00\n        /* \"#utility.yul\":3223:3269   */\n      tag_302\n        /* \"#utility.yul\":3265:3268   */\n      dup4\n        /* \"#utility.yul\":3257:3263   */\n      dup4\n        /* \"#utility.yul\":3223:3269   */\n      tag_233\n      jump\t// in\n    tag_302:\n        /* \"#utility.yul\":3301:3305   */\n      0x20\n        /* \"#utility.yul\":3296:3299   */\n      dup4\n        /* \"#utility.yul\":3292:3306   */\n      add\n        /* \"#utility.yul\":3278:3306   */\n      swap1\n      pop\n        /* \"#utility.yul\":3133:3312   */\n      swap3\n      swap2\n      pop\n      pop\n      jump\t// out\n        /* \"#utility.yul\":3318:3431   */\n    tag_235:\n        /* \"#utility.yul\":3388:3392   */\n      0x00\n        /* \"#utility.yul\":3420:3424   */\n      0x20\n        /* \"#utility.yul\":3415:3418   */\n      dup3\n        /* \"#utility.yul\":3411:3425   */\n      add\n        /* \"#utility.yul\":3403:3425   */\n      swap1\n      pop\n        /* \"#utility.yul\":3318:3431   */\n      swap2\n      swap1\n      pop\n      jump\t// out\n        /* \"#utility.yul\":3467:4199   */\n    tag_236:\n        /* \"#utility.yul\":3586:3589   */\n      0x00\n        /* \"#utility.yul\":3615:3669   */\n      tag_305\n        /* \"#utility.yul\":3663:3668   */\n      dup3\n        /* \"#utility.yul\":3615:3669   */\n      tag_230\n      jump\t// in\n    tag_305:\n        /* \"#utility.yul\":3685:3771   */\n      tag_306\n        /* \"#utility.yul\":3764:3770   */\n      dup2\n        /* \"#utility.yul\":3759:3762   */\n      dup6\n        /* \"#utility.yul\":3685:3771   */\n      tag_231\n      jump\t// in\n    tag_306:\n        /* \"#utility.yul\":3678:3771   */\n      swap4\n      pop\n        /* \"#utility.yul\":3795:3851   */\n      tag_307\n        /* \"#utility.yul\":3845:3850   */\n      dup4\n        /* \"#utility.yul\":3795:3851   */\n      tag_232\n      jump\t// in\n    tag_307:\n        /* \"#utility.yul\":3874:3881   */\n      dup1\n        /* \"#utility.yul\":3905:3906   */\n      0x00\n        /* \"#utility.yul\":3890:4174   */\n    tag_308:\n        /* \"#utility.yul\":3915:3921   */\n      dup4\n        /* \"#utility.yul\":3912:3913   */\n      dup2\n        /* \"#utility.yul\":3909:3922   */\n      lt\n        /* \"#utility.yul\":3890:4174   */\n      iszero\n      tag_310\n      jumpi\n        /* \"#utility.yul\":3991:3997   */\n      dup2\n        /* \"#utility.yul\":3985:3998   */\n      mload\n        /* \"#utility.yul\":4018:4081   */\n      tag_311\n        /* \"#utility.yul\":4077:4080   */\n      dup9\n        /* \"#utility.yul\":4062:4075   */\n      dup3\n        /* \"#utility.yul\":4018:4081   */\n      tag_234\n      jump\t// in\n    tag_311:\n        /* \"#utility.yul\":4011:4081   */\n      swap8\n      pop\n        /* \"#utility.yul\":4104:4164   */\n      tag_312\n        /* \"#utility.yul\":4157:4163   */\n      dup4\n        /* \"#utility.yul\":4104:4164   */\n      tag_235\n      jump\t// in\n    tag_312:\n        /* \"#utility.yul\":4094:4164   */\n      swap3\n      pop\n        /* \"#utility.yul\":3950:4174   */\n      pop\n        /* \"#utility.yul\":3937:3938   */\n      0x01\n        /* \"#utility.yul\":3934:3935   */\n      dup2\n        /* \"#utility.yul\":3930:3939   */\n      add\n        /* \"#utility.yul\":3925:3939   */\n      swap1\n      pop\n        /* \"#utility.yul\":3890:4174   */\n      jump(tag_308)\n    tag_310:\n        /* \"#utility.yul\":3894:3908   */\n      pop\n        /* \"#utility.yul\":4190:4193   */\n      dup6\n        /* \"#utility.yul\":4183:4193   */\n      swap4\n      pop\n        /* \"#utility.yul\":3591:4199   */\n      pop\n      pop\n      pop\n        /* \"#utility.yul\":3467:4199   */\n      swap3\n      swap2\n      pop\n      pop\n      jump\t// out\n        /* \"#utility.yul\":4205:4578   */\n    tag_45:\n        /* \"#utility.yul\":4348:4352   */\n      0x00\n        /* \"#utility.yul\":4386:4388   */\n      0x20\n        /* \"#utility.yul\":4375:4384   */\n      dup3\n        /* \"#utility.yul\":4371:4389   */\n      add\n        /* \"#utility.yul\":4363:4389   */\n      swap1\n      pop\n        /* \"#utility.yul\":4435:4444   */\n      dup2\n        /* \"#utility.yul\":4429:4433   */\n      dup2\n        /* \"#utility.yul\":4425:4445   */\n      sub\n        /* \"#utility.yul\":4421:4422   */\n      0x00\n        /* \"#utility.yul\":4410:4419   */\n      dup4\n        /* \"#utility.yul\":4406:4423   */\n      add\n        /* \"#utility.yul\":4399:4446   */\n      mstore\n        /* \"#utility.yul\":4463:4571   */\n      tag_314\n        /* \"#utility.yul\":4566:4570   */\n      dup2\n        /* \"#utility.yul\":4557:4563   */\n      dup5\n        /* \"#utility.yul\":4463:4571   */\n      tag_236\n      jump\t// in\n    tag_314:\n        /* \"#utility.yul\":4455:4571   */\n      swap1\n      pop\n        /* \"#utility.yul\":4205:4578   */\n      swap3\n      swap2\n      pop\n      pop\n      jump\t// out\n        /* \"#utility.yul\":4584:5137   */\n    tag_65:\n        /* \"#utility.yul\":4761:4765   */\n      0x00\n        /* \"#utility.yul\":4799:4802   */\n      0x80\n        /* \"#utility.yul\":4788:4797   */\n      dup3\n        /* \"#utility.yul\":4784:4803   */\n      add\n        /* \"#utility.yul\":4776:4803   */\n      swap1\n      pop\n        /* \"#utility.yul\":4813:4884   */\n      tag_316\n        /* \"#utility.yul\":4881:4882   */\n      0x00\n        /* \"#utility.yul\":4870:4879   */\n      dup4\n        /* \"#utility.yul\":4866:4883   */\n      add\n        /* \"#utility.yul\":4857:4863   */\n      dup8\n        /* \"#utility.yul\":4813:4884   */\n      tag_226\n      jump\t// in\n    tag_316:\n        /* \"#utility.yul\":4894:4966   */\n      tag_317\n        /* \"#utility.yul\":4962:4964   */\n      0x20\n        /* \"#utility.yul\":4951:4960   */\n      dup4\n        /* \"#utility.yul\":4947:4965   */\n      add\n        /* \"#utility.yul\":4938:4944   */\n      dup7\n        /* \"#utility.yul\":4894:4966   */\n      tag_229\n      jump\t// in\n    tag_317:\n        /* \"#utility.yul\":4976:5048   */\n      tag_318\n        /* \"#utility.yul\":5044:5046   */\n      0x40\n        /* \"#utility.yul\":5033:5042   */\n      dup4\n        /* \"#utility.yul\":5029:5047   */\n      add\n        /* \"#utility.yul\":5020:5026   */\n      dup6\n        /* \"#utility.yul\":4976:5048   */\n      tag_229\n      jump\t// in\n    tag_318:\n        /* \"#utility.yul\":5058:5130   */\n      tag_319\n        /* \"#utility.yul\":5126:5128   */\n      0x60\n        /* \"#utility.yul\":5115:5124   */\n      dup4\n        /* \"#utility.yul\":5111:5129   */\n      add\n        /* \"#utility.yul\":5102:5108   */\n      dup5\n        /* \"#utility.yul\":5058:5130   */\n      tag_229\n      jump\t// in\n    tag_319:\n        /* \"#utility.yul\":4584:5137   */\n      swap6\n      swap5\n      pop\n      pop\n      pop\n      pop\n      pop\n      jump\t// out\n        /* \"#utility.yul\":5143:5233   */\n    tag_237:\n        /* \"#utility.yul\":5177:5184   */\n      0x00\n        /* \"#utility.yul\":5220:5225   */\n      dup2\n        /* \"#utility.yul\":5213:5226   */\n      iszero\n        /* \"#utility.yul\":5206:5227   */\n      iszero\n        /* \"#utility.yul\":5195:5227   */\n      swap1\n      pop\n        /* \"#utility.yul\":5143:5233   */\n      swap2\n      swap1\n      pop\n      jump\t// out\n        /* \"#utility.yul\":5239:5348   */\n    tag_238:\n        /* \"#utility.yul\":5320:5341   */\n      tag_322\n        /* \"#utility.yul\":5335:5340   */\n      dup2\n        /* \"#utility.yul\":5320:5341   */\n      tag_237\n      jump\t// in\n    tag_322:\n        /* \"#utility.yul\":5315:5318   */\n      dup3\n        /* \"#utility.yul\":5308:5342   */\n      mstore\n        /* \"#utility.yul\":5239:5348   */\n      pop\n      pop\n      jump\t// out\n        /* \"#utility.yul\":5354:5674   */\n    tag_89:\n        /* \"#utility.yul\":5469:5473   */\n      0x00\n        /* \"#utility.yul\":5507:5509   */\n      0x40\n        /* \"#utility.yul\":5496:5505   */\n      dup3\n        /* \"#utility.yul\":5492:5510   */\n      add\n        /* \"#utility.yul\":5484:5510   */\n      swap1\n      pop\n        /* \"#utility.yul\":5520:5591   */\n      tag_324\n        /* \"#utility.yul\":5588:5589   */\n      0x00\n        /* \"#utility.yul\":5577:5586   */\n      dup4\n        /* \"#utility.yul\":5573:5590   */\n      add\n        /* \"#utility.yul\":5564:5570   */\n      dup6\n        /* \"#utility.yul\":5520:5591   */\n      tag_226\n      jump\t// in\n    tag_324:\n        /* \"#utility.yul\":5601:5667   */\n      tag_325\n        /* \"#utility.yul\":5663:5665   */\n      0x20\n        /* \"#utility.yul\":5652:5661   */\n      dup4\n        /* \"#utility.yul\":5648:5666   */\n      add\n        /* \"#utility.yul\":5639:5645   */\n      dup5\n        /* \"#utility.yul\":5601:5667   */\n      tag_238\n      jump\t// in\n    tag_325:\n        /* \"#utility.yul\":5354:5674   */\n      swap4\n      swap3\n      pop\n      pop\n      pop\n      jump\t// out\n        /* \"#utility.yul\":5680:5766   */\n    tag_239:\n        /* \"#utility.yul\":5715:5722   */\n      0x00\n        /* \"#utility.yul\":5755:5759   */\n      0xff\n        /* \"#utility.yul\":5748:5753   */\n      dup3\n        /* \"#utility.yul\":5744:5760   */\n      and\n        /* \"#utility.yul\":5733:5760   */\n      swap1\n      pop\n        /* \"#utility.yul\":5680:5766   */\n      swap2\n      swap1\n      pop\n      jump\t// out\n        /* \"#utility.yul\":5772:5884   */\n    tag_240:\n        /* \"#utility.yul\":5855:5877   */\n      tag_328\n        /* \"#utility.yul\":5871:5876   */\n      dup2\n        /* \"#utility.yul\":5855:5877   */\n      tag_239\n      jump\t// in\n    tag_328:\n        /* \"#utility.yul\":5850:5853   */\n      dup3\n        /* \"#utility.yul\":5843:5878   */\n      mstore\n        /* \"#utility.yul\":5772:5884   */\n      pop\n      pop\n      jump\t// out\n        /* \"#utility.yul\":5890:6104   */\n    tag_110:\n        /* \"#utility.yul\":5979:5983   */\n      0x00\n        /* \"#utility.yul\":6017:6019   */\n      0x20\n        /* \"#utility.yul\":6006:6015   */\n      dup3\n        /* \"#utility.yul\":6002:6020   */\n      add\n        /* \"#utility.yul\":5994:6020   */\n      swap1\n      pop\n        /* \"#utility.yul\":6030:6097   */\n      tag_330\n        /* \"#utility.yul\":6094:6095   */\n      0x00\n        /* \"#utility.yul\":6083:6092   */\n      dup4\n        /* \"#utility.yul\":6079:6096   */\n      add\n        /* \"#utility.yul\":6070:6076   */\n      dup5\n        /* \"#utility.yul\":6030:6097   */\n      tag_240\n      jump\t// in\n    tag_330:\n        /* \"#utility.yul\":5890:6104   */\n      swap3\n      swap2\n      pop\n      pop\n      jump\t// out\n        /* \"#utility.yul\":6110:6279   */\n    tag_241:\n        /* \"#utility.yul\":6194:6205   */\n      0x00\n        /* \"#utility.yul\":6228:6234   */\n      dup3\n        /* \"#utility.yul\":6223:6226   */\n      dup3\n        /* \"#utility.yul\":6216:6235   */\n      mstore\n        /* \"#utility.yul\":6268:6272   */\n      0x20\n        /* \"#utility.yul\":6263:6266   */\n      dup3\n        /* \"#utility.yul\":6259:6273   */\n      add\n        /* \"#utility.yul\":6244:6273   */\n      swap1\n      pop\n        /* \"#utility.yul\":6110:6279   */\n      swap3\n      swap2\n      pop\n      pop\n      jump\t// out\n        /* \"#utility.yul\":6285:6454   */\n    tag_242:\n        /* \"#utility.yul\":6425:6446   */\n      0x55736572206e6f74207265676973746572656400000000000000000000000000\n        /* \"#utility.yul\":6421:6422   */\n      0x00\n        /* \"#utility.yul\":6413:6419   */\n      dup3\n        /* \"#utility.yul\":6409:6423   */\n      add\n        /* \"#utility.yul\":6402:6447   */\n      mstore\n        /* \"#utility.yul\":6285:6454   */\n      pop\n      jump\t// out\n        /* \"#utility.yul\":6460:6826   */\n    tag_243:\n        /* \"#utility.yul\":6602:6605   */\n      0x00\n        /* \"#utility.yul\":6623:6690   */\n      tag_334\n        /* \"#utility.yul\":6687:6689   */\n      0x13\n        /* \"#utility.yul\":6682:6685   */\n      dup4\n        /* \"#utility.yul\":6623:6690   */\n      tag_241\n      jump\t// in\n    tag_334:\n        /* \"#utility.yul\":6616:6690   */\n      swap2\n      pop\n        /* \"#utility.yul\":6699:6792   */\n      tag_335\n        /* \"#utility.yul\":6788:6791   */\n      dup3\n        /* \"#utility.yul\":6699:6792   */\n      tag_242\n      jump\t// in\n    tag_335:\n        /* \"#utility.yul\":6817:6819   */\n      0x20\n        /* \"#utility.yul\":6812:6815   */\n      dup3\n        /* \"#utility.yul\":6808:6820   */\n      add\n        /* \"#utility.yul\":6801:6820   */\n      swap1\n      pop\n        /* \"#utility.yul\":6460:6826   */\n      swap2\n      swap1\n      pop\n      jump\t// out\n        /* \"#utility.yul\":6832:7251   */\n    tag_119:\n        /* \"#utility.yul\":6998:7002   */\n      0x00\n        /* \"#utility.yul\":7036:7038   */\n      0x20\n        /* \"#utility.yul\":7025:7034   */\n      dup3\n        /* \"#utility.yul\":7021:7039   */\n      add\n        /* \"#utility.yul\":7013:7039   */\n      swap1\n      pop\n        /* \"#utility.yul\":7085:7094   */\n      dup2\n        /* \"#utility.yul\":7079:7083   */\n      dup2\n        /* \"#utility.yul\":7075:7095   */\n      sub\n        /* \"#utility.yul\":7071:7072   */\n      0x00\n        /* \"#utility.yul\":7060:7069   */\n      dup4\n        /* \"#utility.yul\":7056:7073   */\n      add\n        /* \"#utility.yul\":7049:7096   */\n      mstore\n        /* \"#utility.yul\":7113:7244   */\n      tag_337\n        /* \"#utility.yul\":7239:7243   */\n      dup2\n        /* \"#utility.yul\":7113:7244   */\n      tag_243\n      jump\t// in\n    tag_337:\n        /* \"#utility.yul\":7105:7244   */\n      swap1\n      pop\n        /* \"#utility.yul\":6832:7251   */\n      swap2\n      swap1\n      pop\n      jump\t// out\n        /* \"#utility.yul\":7257:7437   */\n    tag_244:\n        /* \"#utility.yul\":7305:7382   */\n      0x4e487b7100000000000000000000000000000000000000000000000000000000\n        /* \"#utility.yul\":7302:7303   */\n      0x00\n        /* \"#utility.yul\":7295:7383   */\n      mstore\n        /* \"#utility.yul\":7402:7406   */\n      0x11\n        /* \"#utility.yul\":7399:7400   */\n      0x04\n        /* \"#utility.yul\":7392:7407   */\n      mstore\n        /* \"#utility.yul\":7426:7430   */\n      0x24\n        /* \"#utility.yul\":7423:7424   */\n      0x00\n        /* \"#utility.yul\":7416:7431   */\n      revert\n        /* \"#utility.yul\":7443:7676   */\n    tag_124:\n        /* \"#utility.yul\":7482:7485   */\n      0x00\n        /* \"#utility.yul\":7505:7529   */\n      tag_340\n        /* \"#utility.yul\":7523:7528   */\n      dup3\n        /* \"#utility.yul\":7505:7529   */\n      tag_221\n      jump\t// in\n    tag_340:\n        /* \"#utility.yul\":7496:7529   */\n      swap2\n      pop\n        /* \"#utility.yul\":7551:7617   */\n      0xffffffffffffffffffffffffffffffffffffffffffffffffffffffffffffffff\n        /* \"#utility.yul\":7544:7549   */\n      dup3\n        /* \"#utility.yul\":7541:7618   */\n      sub\n        /* \"#utility.yul\":7538:7641   */\n      tag_341\n      jumpi\n        /* \"#utility.yul\":7621:7639   */\n      tag_342\n      tag_244\n      jump\t// in\n    tag_342:\n        /* \"#utility.yul\":7538:7641   */\n    tag_341:\n        /* \"#utility.yul\":7668:7669   */\n      0x01\n        /* \"#utility.yul\":7661:7666   */\n      dup3\n        /* \"#utility.yul\":7657:7670   */\n      add\n        /* \"#utility.yul\":7650:7670   */\n      swap1\n      pop\n        /* \"#utility.yul\":7443:7676   */\n      swap2\n      swap1\n      pop\n      jump\t// out\n        /* \"#utility.yul\":7682:7862   */\n    tag_130:\n        /* \"#utility.yul\":7730:7807   */\n      0x4e487b7100000000000000000000000000000000000000000000000000000000\n        /* \"#utility.yul\":7727:7728   */\n      0x00\n        /* \"#utility.yul\":7720:7808   */\n      mstore\n        /* \"#utility.yul\":7827:7831   */\n      0x41\n        /* \"#utility.yul\":7824:7825   */\n      0x04\n        /* \"#utility.yul\":7817:7832   */\n      mstore\n        /* \"#utility.yul\":7851:7855   */\n      0x24\n        /* \"#utility.yul\":7848:7849   */\n      0x00\n        /* \"#utility.yul\":7841:7856   */\n      revert\n        /* \"#utility.yul\":7868:8048   */\n    tag_137:\n        /* \"#utility.yul\":7916:7993   */\n      0x4e487b7100000000000000000000000000000000000000000000000000000000\n        /* \"#utility.yul\":7913:7914   */\n      0x00\n        /* \"#utility.yul\":7906:7994   */\n      mstore\n        /* \"#utility.yul\":8013:8017   */\n      0x32\n        /* \"#utility.yul\":8010:8011   */\n      0x04\n        /* \"#utility.yul\":8003:8018   */\n      mstore\n        /* \"#utility.yul\":8037:8041   */\n      0x24\n        /* \"#utility.yul\":8034:8035   */\n      0x00\n        /* \"#utility.yul\":8027:8042   */\n      revert\n        /* \"#utility.yul\":8054:8227   */\n    tag_245:\n        /* \"#utility.yul\":8194:8219   */\n      0x4f6e6c79206f776e65722063616e207769746864726177000000000000000000\n        /* \"#utility.yul\":8190:8191   */\n      0x00\n        /* \"#utility.yul\":8182:8188   */\n      dup3\n        /* \"#utility.yul\":8178:8192   */\n      add\n        /* \"#utility.yul\":8171:8220   */\n      mstore\n        /* \"#utility.yul\":8054:8227   */\n      pop\n      jump\t// out\n        /* \"#utility.yul\":8233:8599   */\n    tag_246:\n        /* \"#utility.yul\":8375:8378   */\n      0x00\n        /* \"#utility.yul\":8396:8463   */\n      tag_347\n        /* \"#utility.yul\":8460:8462   */\n      0x17\n        /* \"#utility.yul\":8455:8458   */\n      dup4\n        /* \"#utility.yul\":8396:8463   */\n      tag_241\n      jump\t// in\n    tag_347:\n        /* \"#utility.yul\":8389:8463   */\n      swap2\n      pop\n        /* \"#utility.yul\":8472:8565   */\n      tag_348\n        /* \"#utility.yul\":8561:8564   */\n      dup3\n        /* \"#utility.yul\":8472:8565   */\n      tag_245\n      jump\t// in\n    tag_348:\n        /* \"#utility.yul\":8590:8592   */\n      0x20\n        /* \"#utility.yul\":8585:8588   */\n      dup3\n        /* \"#utility.yul\":8581:8593   */\n      add\n        /* \"#utility.yul\":8574:8593   */\n      swap1\n      pop\n        /* \"#utility.yul\":8233:8599   */\n      swap2\n      swap1\n      pop\n      jump\t// out\n        /* \"#utility.yul\":8605:9024   */\n    tag_144:\n        /* \"#utility.yul\":8771:8775   */\n      0x00\n        /* \"#utility.yul\":8809:8811   */\n      0x20\n        /* \"#utility.yul\":8798:8807   */\n      dup3\n        /* \"#utility.yul\":8794:8812   */\n      add\n        /* \"#utility.yul\":8786:8812   */\n      swap1\n      pop\n        /* \"#utility.yul\":8858:8867   */\n      dup2\n        /* \"#utility.yul\":8852:8856   */\n      dup2\n        /* \"#utility.yul\":8848:8868   */\n      sub\n        /* \"#utility.yul\":8844:8845   */\n      0x00\n        /* \"#utility.yul\":8833:8842   */\n      dup4\n        /* \"#utility.yul\":8829:8846   */\n      add\n        /* \"#utility.yul\":8822:8869   */\n      mstore\n        /* \"#utility.yul\":8886:9017   */\n      tag_350\n        /* \"#utility.yul\":9012:9016   */\n      dup2\n        /* \"#utility.yul\":8886:9017   */\n      tag_246\n      jump\t// in\n    tag_350:\n        /* \"#utility.yul\":8878:9017   */\n      swap1\n      pop\n        /* \"#utility.yul\":8605:9024   */\n      swap2\n      swap1\n      pop\n      jump\t// out\n        /* \"#utility.yul\":9030:9209   */\n    tag_247:\n        /* \"#utility.yul\":9170:9201   */\n      0x496e73756666696369656e7420636f6e74726163742062616c616e6365000000\n        /* \"#utility.yul\":9166:9167   */\n      0x00\n        /* \"#utility.yul\":9158:9164   */\n      dup3\n        /* \"#utility.yul\":9154:9168   */\n      add\n        /* \"#utility.yul\":9147:9202   */\n      mstore\n        /* \"#utility.yul\":9030:9209   */\n      pop\n      jump\t// out\n        /* \"#utility.yul\":9215:9581   */\n    tag_248:\n        /* \"#utility.yul\":9357:9360   */\n      0x00\n        /* \"#utility.yul\":9378:9445   */\n      tag_353\n        /* \"#utility.yul\":9442:9444   */\n      0x1d\n        /* \"#utility.yul\":9437:9440   */\n      dup4\n        /* \"#utility.yul\":9378:9445   */\n      tag_241\n      jump\t// in\n    tag_353:\n        /* \"#utility.yul\":9371:9445   */\n      swap2\n      pop\n        /* \"#utility.yul\":9454:9547   */\n      tag_354\n        /* \"#utility.yul\":9543:9546   */\n      dup3\n        /* \"#utility.yul\":9454:9547   */\n      tag_247\n      jump\t// in\n    tag_354:\n        /* \"#utility.yul\":9572:9574   */\n      0x20\n        /* \"#utility.yul\":9567:9570   */\n      dup3\n        /* \"#utility.yul\":9563:9575   */\n      add\n        /* \"#utility.yul\":9556:9575   */\n      swap1\n      pop\n        /* \"#utility.yul\":9215:9581   */\n      swap2\n      swap1\n      pop\n      jump\t// out\n        /* \"#utility.yul\":9587:10006   */\n    tag_147:\n        /* \"#utility.yul\":9753:9757   */\n      0x00\n        /* \"#utility.yul\":9791:9793   */\n      0x20\n        /* \"#utility.yul\":9780:9789   */\n      dup3\n        /* \"#utility.yul\":9776:9794   */\n      add\n        /* \"#utility.yul\":9768:9794   */\n      swap1\n      pop\n        /* \"#utility.yul\":9840:9849   */\n      dup2\n        /* \"#utility.yul\":9834:9838   */\n      dup2\n        /* \"#utility.yul\":9830:9850   */\n      sub\n        /* \"#utility.yul\":9826:9827   */\n      0x00\n        /* \"#utility.yul\":9815:9824   */\n      dup4\n        /* \"#utility.yul\":9811:9828   */\n      add\n        /* \"#utility.yul\":9804:9851   */\n      mstore\n        /* \"#utility.yul\":9868:9999   */\n      tag_356\n        /* \"#utility.yul\":9994:9998   */\n      dup2\n        /* \"#utility.yul\":9868:9999   */\n      tag_248\n      jump\t// in\n    tag_356:\n        /* \"#utility.yul\":9860:9999   */\n      swap1\n      pop\n        /* \"#utility.yul\":9587:10006   */\n      swap2\n      swap1\n      pop\n      jump\t// out\n        /* \"#utility.yul\":10012:10191   */\n    tag_249:\n        /* \"#utility.yul\":10152:10183   */\n      0x416d6f756e74206d7573742062652067726561746572207468616e2030000000\n        /* \"#utility.yul\":10148:10149   */\n      0x00\n        /* \"#utility.yul\":10140:10146   */\n      dup3\n        /* \"#utility.yul\":10136:10150   */\n      add\n        /* \"#utility.yul\":10129:10184   */\n      mstore\n        /* \"#utility.yul\":10012:10191   */\n      pop\n      jump\t// out\n        /* \"#utility.yul\":10197:10563   */\n    tag_250:\n        /* \"#utility.yul\":10339:10342   */\n      0x00\n        /* \"#utility.yul\":10360:10427   */\n      tag_359\n        /* \"#utility.yul\":10424:10426   */\n      0x1d\n        /* \"#utility.yul\":10419:10422   */\n      dup4\n        /* \"#utility.yul\":10360:10427   */\n      tag_241\n      jump\t// in\n    tag_359:\n        /* \"#utility.yul\":10353:10427   */\n      swap2\n      pop\n        /* \"#utility.yul\":10436:10529   */\n      tag_360\n        /* \"#utility.yul\":10525:10528   */\n      dup3\n        /* \"#utility.yul\":10436:10529   */\n      tag_249\n      jump\t// in\n    tag_360:\n        /* \"#utility.yul\":10554:10556   */\n      0x20\n        /* \"#utility.yul\":10549:10552   */\n      dup3\n        /* \"#utility.yul\":10545:10557   */\n      add\n        /* \"#utility.yul\":10538:10557   */\n      swap1\n      pop\n        /* \"#utility.yul\":10197:10563   */\n      swap2\n      swap1\n      pop\n      jump\t// out\n        /* \"#utility.yul\":10569:10988   */\n    tag_156:\n        /* \"#utility.yul\":10735:10739   */\n      0x00\n        /* \"#utility.yul\":10773:10775   */\n      0x20\n        /* \"#utility.yul\":10762:10771   */\n      dup3\n        /* \"#utility.yul\":10758:10776   */\n      add\n        /* \"#utility.yul\":10750:10776   */\n      swap1\n      pop\n        /* \"#utility.yul\":10822:10831   */\n      dup2\n        /* \"#utility.yul\":10816:10820   */\n      dup2\n        /* \"#utility.yul\":10812:10832   */\n      sub\n        /* \"#utility.yul\":10808:10809   */\n      0x00\n        /* \"#utility.yul\":10797:10806   */\n      dup4\n        /* \"#utility.yul\":10793:10810   */\n      add\n        /* \"#utility.yul\":10786:10833   */\n      mstore\n        /* \"#utility.yul\":10850:10981   */\n      tag_362\n        /* \"#utility.yul\":10976:10980   */\n      dup2\n        /* \"#utility.yul\":10850:10981   */\n      tag_250\n      jump\t// in\n    tag_362:\n        /* \"#utility.yul\":10842:10981   */\n      swap1\n      pop\n        /* \"#utility.yul\":10569:10988   */\n      swap2\n      swap1\n      pop\n      jump\t// out\n        /* \"#utility.yul\":10994:11404   */\n    tag_168:\n        /* \"#utility.yul\":11034:11041   */\n      0x00\n        /* \"#utility.yul\":11057:11077   */\n      tag_364\n        /* \"#utility.yul\":11075:11076   */\n      dup3\n        /* \"#utility.yul\":11057:11077   */\n      tag_221\n      jump\t// in\n    tag_364:\n        /* \"#utility.yul\":11052:11077   */\n      swap2\n      pop\n        /* \"#utility.yul\":11091:11111   */\n      tag_365\n        /* \"#utility.yul\":11109:11110   */\n      dup4\n        /* \"#utility.yul\":11091:11111   */\n      tag_221\n      jump\t// in\n    tag_365:\n        /* \"#utility.yul\":11086:11111   */\n      swap3\n      pop\n        /* \"#utility.yul\":11146:11147   */\n      dup3\n        /* \"#utility.yul\":11143:11144   */\n      dup3\n        /* \"#utility.yul\":11139:11148   */\n      mul\n        /* \"#utility.yul\":11168:11198   */\n      tag_366\n        /* \"#utility.yul\":11186:11197   */\n      dup2\n        /* \"#utility.yul\":11168:11198   */\n      tag_221\n      jump\t// in\n    tag_366:\n        /* \"#utility.yul\":11157:11198   */\n      swap2\n      pop\n        /* \"#utility.yul\":11347:11348   */\n      dup3\n        /* \"#utility.yul\":11338:11345   */\n      dup3\n        /* \"#utility.yul\":11334:11349   */\n      div\n        /* \"#utility.yul\":11331:11332   */\n      dup5\n        /* \"#utility.yul\":11328:11350   */\n      eq\n        /* \"#utility.yul\":11308:11309   */\n      dup4\n        /* \"#utility.yul\":11301:11310   */\n      iszero\n        /* \"#utility.yul\":11281:11364   */\n      or\n        /* \"#utility.yul\":11258:11397   */\n      tag_367\n      jumpi\n        /* \"#utility.yul\":11377:11395   */\n      tag_368\n      tag_244\n      jump\t// in\n    tag_368:\n        /* \"#utility.yul\":11258:11397   */\n    tag_367:\n        /* \"#utility.yul\":11042:11404   */\n      pop\n        /* \"#utility.yul\":10994:11404   */\n      swap3\n      swap2\n      pop\n      pop\n      jump\t// out\n        /* \"#utility.yul\":11410:11590   */\n    tag_251:\n        /* \"#utility.yul\":11458:11535   */\n      0x4e487b7100000000000000000000000000000000000000000000000000000000\n        /* \"#utility.yul\":11455:11456   */\n      0x00\n        /* \"#utility.yul\":11448:11536   */\n      mstore\n        /* \"#utility.yul\":11555:11559   */\n      0x12\n        /* \"#utility.yul\":11552:11553   */\n      0x04\n        /* \"#utility.yul\":11545:11560   */\n      mstore\n        /* \"#utility.yul\":11579:11583   */\n      0x24\n        /* \"#utility.yul\":11576:11577   */\n      0x00\n        /* \"#utility.yul\":11569:11584   */\n      revert\n        /* \"#utility.yul\":11596:11781   */\n    tag_170:\n        /* \"#utility.yul\":11636:11637   */\n      0x00\n        /* \"#utility.yul\":11653:11673   */\n      tag_371\n        /* \"#utility.yul\":11671:11672   */\n      dup3\n        /* \"#utility.yul\":11653:11673   */\n      tag_221\n      jump\t// in\n    tag_371:\n        /* \"#utility.yul\":11648:11673   */\n      swap2\n      pop\n        /* \"#utility.yul\":11687:11707   */\n      tag_372\n        /* \"#utility.yul\":11705:11706   */\n      dup4\n        /* \"#utility.yul\":11687:11707   */\n      tag_221\n      jump\t// in\n    tag_372:\n        /* \"#utility.yul\":11682:11707   */\n      swap3\n      pop\n        /* \"#utility.yul\":11726:11727   */\n      dup3\n        /* \"#utility.yul\":11716:11751   */\n      tag_373\n      jumpi\n        /* \"#utility.yul\":11731:11749   */\n      tag_374\n      tag_251\n      jump\t// in\n    tag_374:\n        /* \"#utility.yul\":11716:11751   */\n    tag_373:\n        /* \"#utility.yul\":11773:11774   */\n      dup3\n        /* \"#utility.yul\":11770:11771   */\n      dup3\n        /* \"#utility.yul\":11766:11775   */\n      div\n        /* \"#utility.yul\":11761:11775   */\n      swap1\n      pop\n        /* \"#utility.yul\":11596:11781   */\n      swap3\n      swap2\n      pop\n      pop\n      jump\t// out\n        /* \"#utility.yul\":11787:11978   */\n    tag_174:\n        /* \"#utility.yul\":11827:11830   */\n      0x00\n        /* \"#utility.yul\":11846:11866   */\n      tag_376\n        /* \"#utility.yul\":11864:11865   */\n      dup3\n        /* \"#utility.yul\":11846:11866   */\n      tag_221\n      jump\t// in\n    tag_376:\n        /* \"#utility.yul\":11841:11866   */\n      swap2\n      pop\n        /* \"#utility.yul\":11880:11900   */\n      tag_377\n        /* \"#utility.yul\":11898:11899   */\n      dup4\n        /* \"#utility.yul\":11880:11900   */\n      tag_221\n      jump\t// in\n    tag_377:\n        /* \"#utility.yul\":11875:11900   */\n      swap3\n      pop\n        /* \"#utility.yul\":11923:11924   */\n      dup3\n        /* \"#utility.yul\":11920:11921   */\n      dup3\n        /* \"#utility.yul\":11916:11925   */\n      add\n        /* \"#utility.yul\":11909:11925   */\n      swap1\n      pop\n        /* \"#utility.yul\":11944:11947   */\n      dup1\n        /* \"#utility.yul\":11941:11942   */\n      dup3\n        /* \"#utility.yul\":11938:11948   */\n      gt\n        /* \"#utility.yul\":11935:11971   */\n      iszero\n      tag_378\n      jumpi\n        /* \"#utility.yul\":11951:11969   */\n      tag_379\n      tag_244\n      jump\t// in\n    tag_379:\n        /* \"#utility.yul\":11935:11971   */\n    tag_378:\n        /* \"#utility.yul\":11787:11978   */\n      swap3\n      swap2\n      pop\n      pop\n      jump\t// out\n        /* \"#utility.yul\":11984:12151   */\n    tag_178:\n        /* \"#utility.yul\":12021:12024   */\n      0x00\n        /* \"#utility.yul\":12044:12066   */\n      tag_381\n        /* \"#utility.yul\":12060:12065   */\n      dup3\n        /* \"#utility.yul\":12044:12066   */\n      tag_239\n      jump\t// in\n    tag_381:\n        /* \"#utility.yul\":12035:12066   */\n      swap2\n      pop\n        /* \"#utility.yul\":12088:12092   */\n      0xff\n        /* \"#utility.yul\":12081:12086   */\n      dup3\n        /* \"#utility.yul\":12078:12093   */\n      sub\n        /* \"#utility.yul\":12075:12116   */\n      tag_382\n      jumpi\n        /* \"#utility.yul\":12096:12114   */\n      tag_383\n      tag_244\n      jump\t// in\n    tag_383:\n        /* \"#utility.yul\":12075:12116   */\n    tag_382:\n        /* \"#utility.yul\":12143:12144   */\n      0x01\n        /* \"#utility.yul\":12136:12141   */\n      dup3\n        /* \"#utility.yul\":12132:12145   */\n      add\n        /* \"#utility.yul\":12125:12145   */\n      swap1\n      pop\n        /* \"#utility.yul\":11984:12151   */\n      swap2\n      swap1\n      pop\n      jump\t// out\n        /* \"#utility.yul\":12157:12489   */\n    tag_180:\n        /* \"#utility.yul\":12278:12282   */\n      0x00\n        /* \"#utility.yul\":12316:12318   */\n      0x40\n        /* \"#utility.yul\":12305:12314   */\n      dup3\n        /* \"#utility.yul\":12301:12319   */\n      add\n        /* \"#utility.yul\":12293:12319   */\n      swap1\n      pop\n        /* \"#utility.yul\":12329:12400   */\n      tag_385\n        /* \"#utility.yul\":12397:12398   */\n      0x00\n        /* \"#utility.yul\":12386:12395   */\n      dup4\n        /* \"#utility.yul\":12382:12399   */\n      add\n        /* \"#utility.yul\":12373:12379   */\n      dup6\n        /* \"#utility.yul\":12329:12400   */\n      tag_229\n      jump\t// in\n    tag_385:\n        /* \"#utility.yul\":12410:12482   */\n      tag_386\n        /* \"#utility.yul\":12478:12480   */\n      0x20\n        /* \"#utility.yul\":12467:12476   */\n      dup4\n        /* \"#utility.yul\":12463:12481   */\n      add\n        /* \"#utility.yul\":12454:12460   */\n      dup5\n        /* \"#utility.yul\":12410:12482   */\n      tag_229\n      jump\t// in\n    tag_386:\n        /* \"#utility.yul\":12157:12489   */\n      swap4\n      swap3\n      pop\n      pop\n      pop\n      jump\t// out\n        /* \"#utility.yul\":12495:12663   */\n    tag_252:\n        /* \"#utility.yul\":12635:12655   */\n      0x416c726561647920726567697374657265640000000000000000000000000000\n        /* \"#utility.yul\":12631:12632   */\n      0x00\n        /* \"#utility.yul\":12623:12629   */\n      dup3\n        /* \"#utility.yul\":12619:12633   */\n      add\n        /* \"#utility.yul\":12612:12656   */\n      mstore\n        /* \"#utility.yul\":12495:12663   */\n      pop\n      jump\t// out\n        /* \"#utility.yul\":12669:13035   */\n    tag_253:\n        /* \"#utility.yul\":12811:12814   */\n      0x00\n        /* \"#utility.yul\":12832:12899   */\n      tag_389\n        /* \"#utility.yul\":12896:12898   */\n      0x12\n        /* \"#utility.yul\":12891:12894   */\n      dup4\n        /* \"#utility.yul\":12832:12899   */\n      tag_241\n      jump\t// in\n    tag_389:\n        /* \"#utility.yul\":12825:12899   */\n      swap2\n      pop\n        /* \"#utility.yul\":12908:13001   */\n      tag_390\n        /* \"#utility.yul\":12997:13000   */\n      dup3\n        /* \"#utility.yul\":12908:13001   */\n      tag_252\n      jump\t// in\n    tag_390:\n        /* \"#utility.yul\":13026:13028   */\n      0x20\n        /* \"#utility.yul\":13021:13024   */\n      dup3\n        /* \"#utility.yul\":13017:13029   */\n      add\n        /* \"#utility.yul\":13010:13029   */\n      swap1\n      pop\n        /* \"#utility.yul\":12669:13035   */\n      swap2\n      swap1\n      pop\n      jump\t// out\n        /* \"#utility.yul\":13041:13460   */\n    tag_184:\n        /* \"#utility.yul\":13207:13211   */\n      0x00\n        /* \"#utility.yul\":13245:13247   */\n      0x20\n        /* \"#utility.yul\":13234:13243   */\n      dup3\n        /* \"#utility.yul\":13230:13248   */\n      add\n        /* \"#utility.yul\":13222:13248   */\n      swap1\n      pop\n        /* \"#utility.yul\":13294:13303   */\n      dup2\n        /* \"#utility.yul\":13288:13292   */\n      dup2\n        /* \"#utility.yul\":13284:13304   */\n      sub\n        /* \"#utility.yul\":13280:13281   */\n      0x00\n        /* \"#utility.yul\":13269:13278   */\n      dup4\n        /* \"#utility.yul\":13265:13282   */\n      add\n        /* \"#utility.yul\":13258:13305   */\n      mstore\n        /* \"#utility.yul\":13322:13453   */\n      tag_392\n        /* \"#utility.yul\":13448:13452   */\n      dup2\n        /* \"#utility.yul\":13322:13453   */\n      tag_253\n      jump\t// in\n    tag_392:\n        /* \"#utility.yul\":13314:13453   */\n      swap1\n      pop\n        /* \"#utility.yul\":13041:13460   */\n      swap2\n      swap1\n      pop\n      jump\t// out\n        /* \"#utility.yul\":13466:13637   */\n    tag_254:\n        /* \"#utility.yul\":13606:13629   */\n      0x43616e6e6f7420726566657220796f757273656c660000000000000000000000\n        /* \"#utility.yul\":13602:13603   */\n      0x00\n        /* \"#utility.yul\":13594:13600   */\n      dup3\n        /* \"#utility.yul\":13590:13604   */\n      add\n        /* \"#utility.yul\":13583:13630   */\n      mstore\n        /* \"#utility.yul\":13466:13637   */\n      pop\n      jump\t// out\n        /* \"#utility.yul\":13643:14009   */\n    tag_255:\n        /* \"#utility.yul\":13785:13788   */\n      0x00\n        /* \"#utility.yul\":13806:13873   */\n      tag_395\n        /* \"#utility.yul\":13870:13872   */\n      0x15\n        /* \"#utility.yul\":13865:13868   */\n      dup4\n        /* \"#utility.yul\":13806:13873   */\n      tag_241\n      jump\t// in\n    tag_395:\n        /* \"#utility.yul\":13799:13873   */\n      swap2\n      pop\n        /* \"#utility.yul\":13882:13975   */\n      tag_396\n        /* \"#utility.yul\":13971:13974   */\n      dup3\n        /* \"#utility.yul\":13882:13975   */\n      tag_254\n      jump\t// in\n    tag_396:\n        /* \"#utility.yul\":14000:14002   */\n      0x20\n        /* \"#utility.yul\":13995:13998   */\n      dup3\n        /* \"#utility.yul\":13991:14003   */\n      add\n        /* \"#utility.yul\":13984:14003   */\n      swap1\n      pop\n        /* \"#utility.yul\":13643:14009   */\n      swap2\n      swap1\n      pop\n      jump\t// out\n        /* \"#utility.yul\":14015:14434   */\n    tag_187:\n        /* \"#utility.yul\":14181:14185   */\n      0x00\n        /* \"#utility.yul\":14219:14221   */\n      0x20\n        /* \"#utility.yul\":14208:14217   */\n      dup3\n        /* \"#utility.yul\":14204:14222   */\n      add\n        /* \"#utility.yul\":14196:14222   */\n      swap1\n      pop\n        /* \"#utility.yul\":14268:14277   */\n      dup2\n        /* \"#utility.yul\":14262:14266   */\n      dup2\n        /* \"#utility.yul\":14258:14278   */\n      sub\n        /* \"#utility.yul\":14254:14255   */\n      0x00\n        /* \"#utility.yul\":14243:14252   */\n      dup4\n        /* \"#utility.yul\":14239:14256   */\n      add\n        /* \"#utility.yul\":14232:14279   */\n      mstore\n        /* \"#utility.yul\":14296:14427   */\n      tag_398\n        /* \"#utility.yul\":14422:14426   */\n      dup2\n        /* \"#utility.yul\":14296:14427   */\n      tag_255\n      jump\t// in\n    tag_398:\n        /* \"#utility.yul\":14288:14427   */\n      swap1\n      pop\n        /* \"#utility.yul\":14015:14434   */\n      swap2\n      swap1\n      pop\n      jump\t// out\n        /* \"#utility.yul\":14440:14613   */\n    tag_256:\n        /* \"#utility.yul\":14580:14605   */\n      0x5265666572726572206e6f742072656769737465726564000000000000000000\n        /* \"#utility.yul\":14576:14577   */\n      0x00\n        /* \"#utility.yul\":14568:14574   */\n      dup3\n        /* \"#utility.yul\":14564:14578   */\n      add\n        /* \"#utility.yul\":14557:14606   */\n      mstore\n        /* \"#utility.yul\":14440:14613   */\n      pop\n      jump\t// out\n        /* \"#utility.yul\":14619:14985   */\n    tag_257:\n        /* \"#utility.yul\":14761:14764   */\n      0x00\n        /* \"#utility.yul\":14782:14849   */\n      tag_401\n        /* \"#utility.yul\":14846:14848   */\n      0x17\n        /* \"#utility.yul\":14841:14844   */\n      dup4\n        /* \"#utility.yul\":14782:14849   */\n      tag_241\n      jump\t// in\n    tag_401:\n        /* \"#utility.yul\":14775:14849   */\n      swap2\n      pop\n        /* \"#utility.yul\":14858:14951   */\n      tag_402\n        /* \"#utility.yul\":14947:14950   */\n      dup3\n        /* \"#utility.yul\":14858:14951   */\n      tag_256\n      jump\t// in\n    tag_402:\n        /* \"#utility.yul\":14976:14978   */\n      0x20\n        /* \"#utility.yul\":14971:14974   */\n      dup3\n        /* \"#utility.yul\":14967:14979   */\n      add\n        /* \"#utility.yul\":14960:14979   */\n      swap1\n      pop\n        /* \"#utility.yul\":14619:14985   */\n      swap2\n      swap1\n      pop\n      jump\t// out\n        /* \"#utility.yul\":14991:15410   */\n    tag_190:\n        /* \"#utility.yul\":15157:15161   */\n      0x00\n        /* \"#utility.yul\":15195:15197   */\n      0x20\n        /* \"#utility.yul\":15184:15193   */\n      dup3\n        /* \"#utility.yul\":15180:15198   */\n      add\n        /* \"#utility.yul\":15172:15198   */\n      swap1\n      pop\n        /* \"#utility.yul\":15244:15253   */\n      dup2\n        /* \"#utility.yul\":15238:15242   */\n      dup2\n        /* \"#utility.yul\":15234:15254   */\n      sub\n        /* \"#utility.yul\":15230:15231   */\n      0x00\n        /* \"#utility.yul\":15219:15228   */\n      dup4\n        /* \"#utility.yul\":15215:15232   */\n      add\n        /* \"#utility.yul\":15208:15255   */\n      mstore\n        /* \"#utility.yul\":15272:15403   */\n      tag_404\n        /* \"#utility.yul\":15398:15402   */\n      dup2\n        /* \"#utility.yul\":15272:15403   */\n      tag_257\n      jump\t// in\n    tag_404:\n        /* \"#utility.yul\":15264:15403   */\n      swap1\n      pop\n        /* \"#utility.yul\":14991:15410   */\n      swap2\n      swap1\n      pop\n      jump\t// out\n        /* \"#utility.yul\":15416:15584   */\n    tag_258:\n        /* \"#utility.yul\":15556:15576   */\n      0x496e76616c696420706f736974696f6e49640000000000000000000000000000\n        /* \"#utility.yul\":15552:15553   */\n      0x00\n        /* \"#utility.yul\":15544:15550   */\n      dup3\n        /* \"#utility.yul\":15540:15554   */\n      add\n        /* \"#utility.yul\":15533:15577   */\n      mstore\n        /* \"#utility.yul\":15416:15584   */\n      pop\n      jump\t// out\n        /* \"#utility.yul\":15590:15956   */\n    tag_259:\n        /* \"#utility.yul\":15732:15735   */\n      0x00\n        /* \"#utility.yul\":15753:15820   */\n      tag_407\n        /* \"#utility.yul\":15817:15819   */\n      0x12\n        /* \"#utility.yul\":15812:15815   */\n      dup4\n        /* \"#utility.yul\":15753:15820   */\n      tag_241\n      jump\t// in\n    tag_407:\n        /* \"#utility.yul\":15746:15820   */\n      swap2\n      pop\n        /* \"#utility.yul\":15829:15922   */\n      tag_408\n        /* \"#utility.yul\":15918:15921   */\n      dup3\n        /* \"#utility.yul\":15829:15922   */\n      tag_258\n      jump\t// in\n    tag_408:\n        /* \"#utility.yul\":15947:15949   */\n      0x20\n        /* \"#utility.yul\":15942:15945   */\n      dup3\n        /* \"#utility.yul\":15938:15950   */\n      add\n        /* \"#utility.yul\":15931:15950   */\n      swap1\n      pop\n        /* \"#utility.yul\":15590:15956   */\n      swap2\n      swap1\n      pop\n      jump\t// out\n        /* \"#utility.yul\":15962:16381   */\n    tag_195:\n        /* \"#utility.yul\":16128:16132   */\n      0x00\n        /* \"#utility.yul\":16166:16168   */\n      0x20\n        /* \"#utility.yul\":16155:16164   */\n      dup3\n        /* \"#utility.yul\":16151:16169   */\n      add\n        /* \"#utility.yul\":16143:16169   */\n      swap1\n      pop\n        /* \"#utility.yul\":16215:16224   */\n      dup2\n        /* \"#utility.yul\":16209:16213   */\n      dup2\n        /* \"#utility.yul\":16205:16225   */\n      sub\n        /* \"#utility.yul\":16201:16202   */\n      0x00\n        /* \"#utility.yul\":16190:16199   */\n      dup4\n        /* \"#utility.yul\":16186:16203   */\n      add\n        /* \"#utility.yul\":16179:16226   */\n      mstore\n        /* \"#utility.yul\":16243:16374   */\n      tag_410\n        /* \"#utility.yul\":16369:16373   */\n      dup2\n        /* \"#utility.yul\":16243:16374   */\n      tag_259\n      jump\t// in\n    tag_410:\n        /* \"#utility.yul\":16235:16374   */\n      swap1\n      pop\n        /* \"#utility.yul\":15962:16381   */\n      swap2\n      swap1\n      pop\n      jump\t// out\n        /* \"#utility.yul\":16387:16610   */\n    tag_260:\n        /* \"#utility.yul\":16527:16561   */\n      0x5374616b65206e6f7420666f756e6420666f7220676976656e20706f73697469\n        /* \"#utility.yul\":16523:16524   */\n      0x00\n        /* \"#utility.yul\":16515:16521   */\n      dup3\n        /* \"#utility.yul\":16511:16525   */\n      add\n        /* \"#utility.yul\":16504:16562   */\n      mstore\n        /* \"#utility.yul\":16596:16602   */\n      0x6f6e496400000000000000000000000000000000000000000000000000000000\n        /* \"#utility.yul\":16591:16593   */\n      0x20\n        /* \"#utility.yul\":16583:16589   */\n      dup3\n        /* \"#utility.yul\":16579:16594   */\n      add\n        /* \"#utility.yul\":16572:16603   */\n      mstore\n        /* \"#utility.yul\":16387:16610   */\n      pop\n      jump\t// out\n        /* \"#utility.yul\":16616:16982   */\n    tag_261:\n        /* \"#utility.yul\":16758:16761   */\n      0x00\n        /* \"#utility.yul\":16779:16846   */\n      tag_413\n        /* \"#utility.yul\":16843:16845   */\n      0x24\n        /* \"#utility.yul\":16838:16841   */\n      dup4\n        /* \"#utility.yul\":16779:16846   */\n      tag_241\n      jump\t// in\n    tag_413:\n        /* \"#utility.yul\":16772:16846   */\n      swap2\n      pop\n        /* \"#utility.yul\":16855:16948   */\n      tag_414\n        /* \"#utility.yul\":16944:16947   */\n      dup3\n        /* \"#utility.yul\":16855:16948   */\n      tag_260\n      jump\t// in\n    tag_414:\n        /* \"#utility.yul\":16973:16975   */\n      0x40\n        /* \"#utility.yul\":16968:16971   */\n      dup3\n        /* \"#utility.yul\":16964:16976   */\n      add\n        /* \"#utility.yul\":16957:16976   */\n      swap1\n      pop\n        /* \"#utility.yul\":16616:16982   */\n      swap2\n      swap1\n      pop\n      jump\t// out\n        /* \"#utility.yul\":16988:17407   */\n    tag_212:\n        /* \"#utility.yul\":17154:17158   */\n      0x00\n        /* \"#utility.yul\":17192:17194   */\n      0x20\n        /* \"#utility.yul\":17181:17190   */\n      dup3\n        /* \"#utility.yul\":17177:17195   */\n      add\n        /* \"#utility.yul\":17169:17195   */\n      swap1\n      pop\n        /* \"#utility.yul\":17241:17250   */\n      dup2\n        /* \"#utility.yul\":17235:17239   */\n      dup2\n        /* \"#utility.yul\":17231:17251   */\n      sub\n        /* \"#utility.yul\":17227:17228   */\n      0x00\n        /* \"#utility.yul\":17216:17225   */\n      dup4\n        /* \"#utility.yul\":17212:17229   */\n      add\n        /* \"#utility.yul\":17205:17252   */\n      mstore\n        /* \"#utility.yul\":17269:17400   */\n      tag_416\n        /* \"#utility.yul\":17395:17399   */\n      dup2\n        /* \"#utility.yul\":17269:17400   */\n      tag_261\n      jump\t// in\n    tag_416:\n        /* \"#utility.yul\":17261:17400   */\n      swap1\n      pop\n        /* \"#utility.yul\":16988:17407   */\n      swap2\n      swap1\n      pop\n      jump\t// out\n\n    auxdata: 0xa26469706673582212205b325221d1923c32fbc6ad97b7fd8b64341b5e17953b76fc96d80a7ca3cf8f7d64736f6c63430008190033\n}\n",
				"bytecode": {
					"linkReferences": {},
					"object": "60806040526040518060600160405280600560ff168152602001600360ff168152602001600260ff16815250600390600361003b929190610193565b50348015610047575f80fd5b50604051612255380380612255833981810160405281019061006991906102a3565b5f73ffffffffffffffffffffffffffffffffffffffff168173ffffffffffffffffffffffffffffffffffffffff16036100d7576040517f08c379a00000000000000000000000000000000000000000000000000000000081526004016100ce90610328565b60405180910390fd5b805f806101000a81548173ffffffffffffffffffffffffffffffffffffffff021916908373ffffffffffffffffffffffffffffffffffffffff1602179055506001805f805f9054906101000a900473ffffffffffffffffffffffffffffffffffffffff1673ffffffffffffffffffffffffffffffffffffffff1673ffffffffffffffffffffffffffffffffffffffff1681526020019081526020015f205f0160146101000a81548160ff02191690831515021790555050610346565b826003601f01602090048101928215610219579160200282015f5b838211156101eb57835183826101000a81548160ff021916908360ff16021790555092602001926001016020815f010492830192600103026101ae565b80156102175782816101000a81549060ff02191690556001016020815f010492830192600103026101eb565b505b509050610226919061022a565b5090565b5b80821115610241575f815f90555060010161022b565b5090565b5f80fd5b5f73ffffffffffffffffffffffffffffffffffffffff82169050919050565b5f61027282610249565b9050919050565b61028281610268565b811461028c575f80fd5b50565b5f8151905061029d81610279565b92915050565b5f602082840312156102b8576102b7610245565b5b5f6102c58482850161028f565b91505092915050565b5f82825260208201905092915050565b7f4f776e657220616464726573732063616e6e6f74206265207a65726f000000005f82015250565b5f610312601c836102ce565b915061031d826102de565b602082019050919050565b5f6020820190508181035f83015261033f81610306565b9050919050565b611f02806103535f395ff3fe60806040526004361061010c575f3560e01c8063899346c711610094578063aa7ed46211610063578063aa7ed46214610397578063b77b7dc9146103d3578063c2d3c6771461040f578063e45a57d01461044b578063f6e888731461048757610113565b8063899346c7146102ca5780638da5cb5b146102f457806398278efb1461031e578063a87430ba1461035a57610113565b80633a4b66f1116100db5780633a4b66f1146101f35780634420e486146101fd57806375506c9614610225578063797c7f5f1461024f578063862ba05f1461028e57610113565b80631e43eb271461011757806321923bde1461015357806328fe70311461018f5780632e1a7d4d146101cb57610113565b3661011357005b5f80fd5b348015610122575f80fd5b5061013d60048036038101906101389190611671565b6104c3565b60405161014a91906116db565b60405180910390f35b34801561015e575f80fd5b506101796004803603810190610174919061171e565b6104f3565b6040516101869190611758565b60405180910390f35b34801561019a575f80fd5b506101b560048036038101906101b0919061171e565b61080b565b6040516101c29190611828565b60405180910390f35b3480156101d6575f80fd5b506101f160048036038101906101ec9190611671565b610943565b005b6101fb610a79565b005b348015610208575f80fd5b50610223600480360381019061021e919061171e565b610f2c565b005b348015610230575f80fd5b50610239611236565b6040516102469190611758565b60405180910390f35b34801561025a575f80fd5b5061027560048036038101906102709190611671565b61123c565b6040516102859493929190611848565b60405180910390f35b348015610299575f80fd5b506102b460048036038101906102af919061171e565b61148c565b6040516102c19190611758565b60405180910390f35b3480156102d5575f80fd5b506102de6114a1565b6040516102eb9190611758565b60405180910390f35b3480156102ff575f80fd5b506103086114a7565b60405161031591906116db565b60405180910390f35b348015610329575f80fd5b50610344600480360381019061033f919061171e565b6114ca565b6040516103519190611758565b60405180910390f35b348015610365575f80fd5b50610380600480360381019061037b919061171e565b611510565b60405161038e9291906118a5565b60405180910390f35b3480156103a2575f80fd5b506103bd60048036038101906103b8919061171e565b61155b565b6040516103ca9190611758565b60405180910390f35b3480156103de575f80fd5b506103f960048036038101906103f4919061171e565b6115a1565b6040516104069190611758565b60405180910390f35b34801561041a575f80fd5b506104356004803603810190610430919061171e565b6115b6565b6040516104429190611758565b60405180910390f35b348015610456575f80fd5b50610471600480360381019061046c9190611671565b6115fc565b60405161047e91906118e7565b60405180910390f35b348015610492575f80fd5b506104ad60048036038101906104a8919061171e565b611625565b6040516104ba9190611758565b60405180910390f35b6002602052805f5260405f205f915054906101000a900473ffffffffffffffffffffffffffffffffffffffff1681565b5f60015f8373ffffffffffffffffffffffffffffffffffffffff1673ffffffffffffffffffffffffffffffffffffffff1681526020019081526020015f205f0160149054906101000a900460ff16610580576040517f08c379a00000000000000000000000000000000000000000000000000000000081526004016105779061195a565b60405180910390fd5b5f808390505b5f73ffffffffffffffffffffffffffffffffffffffff1660015f8373ffffffffffffffffffffffffffffffffffffffff1673ffffffffffffffffffffffffffffffffffffffff1681526020019081526020015f205f015f9054906101000a900473ffffffffffffffffffffffffffffffffffffffff1673ffffffffffffffffffffffffffffffffffffffff16141580156106c957505f8054906101000a900473ffffffffffffffffffffffffffffffffffffffff1673ffffffffffffffffffffffffffffffffffffffff1660015f8373ffffffffffffffffffffffffffffffffffffffff1673ffffffffffffffffffffffffffffffffffffffff1681526020019081526020015f205f015f9054906101000a900473ffffffffffffffffffffffffffffffffffffffff1673ffffffffffffffffffffffffffffffffffffffff1614155b156107425781806106d9906119a5565b92505060015f8273ffffffffffffffffffffffffffffffffffffffff1673ffffffffffffffffffffffffffffffffffffffff1681526020019081526020015f205f015f9054906101000a900473ffffffffffffffffffffffffffffffffffffffff169050610586565b5f8054906101000a900473ffffffffffffffffffffffffffffffffffffffff1673ffffffffffffffffffffffffffffffffffffffff1660015f8373ffffffffffffffffffffffffffffffffffffffff1673ffffffffffffffffffffffffffffffffffffffff1681526020019081526020015f205f015f9054906101000a900473ffffffffffffffffffffffffffffffffffffffff1673ffffffffffffffffffffffffffffffffffffffff16036108015781806107fd906119a5565b9250505b8192505050919050565b60605f60015f8473ffffffffffffffffffffffffffffffffffffffff1673ffffffffffffffffffffffffffffffffffffffff1681526020019081526020015f206001018054905090505f8167ffffffffffffffff81111561086f5761086e6119ec565b5b60405190808252806020026020018201604052801561089d5781602001602082028036833780820191505090505b5090505f5b828110156109385760015f8673ffffffffffffffffffffffffffffffffffffffff1673ffffffffffffffffffffffffffffffffffffffff1681526020019081526020015f2060010181815481106108fc576108fb611a19565b5b905f5260205f2090600402016002015482828151811061091f5761091e611a19565b5b60200260200101818152505080806001019150506108a2565b508092505050919050565b5f8054906101000a900473ffffffffffffffffffffffffffffffffffffffff1673ffffffffffffffffffffffffffffffffffffffff163373ffffffffffffffffffffffffffffffffffffffff16146109d0576040517f08c379a00000000000000000000000000000000000000000000000000000000081526004016109c790611a90565b60405180910390fd5b80471015610a13576040517f08c379a0000000000000000000000000000000000000000000000000000000008152600401610a0a90611af8565b60405180910390fd5b5f8054906101000a900473ffffffffffffffffffffffffffffffffffffffff1673ffffffffffffffffffffffffffffffffffffffff166108fc8290811502906040515f60405180830381858888f19350505050158015610a75573d5f803e3d5ffd5b5050565b60015f3373ffffffffffffffffffffffffffffffffffffffff1673ffffffffffffffffffffffffffffffffffffffff1681526020019081526020015f205f0160149054906101000a900460ff16610b05576040517f08c379a0000000000000000000000000000000000000000000000000000000008152600401610afc9061195a565b60405180910390fd5b5f3411610b47576040517f08c379a0000000000000000000000000000000000000000000000000000000008152600401610b3e90611b60565b60405180910390fd5b5f60045f815480929190610b5a906119a5565b9190505590505f60055f815480929190610b73906119a5565b9190505590505f42905060015f3373ffffffffffffffffffffffffffffffffffffffff1673ffffffffffffffffffffffffffffffffffffffff1681526020019081526020015f20600101604051806080016040528085815260200134815260200184815260200183815250908060018154018082558091505060019003905f5260205f2090600402015f909190919091505f820151815f015560208201518160010155604082015181600201556060820151816003015550503360025f8481526020019081526020015f205f6101000a81548173ffffffffffffffffffffffffffffffffffffffff021916908373ffffffffffffffffffffffffffffffffffffffff1602179055505f60015f3373ffffffffffffffffffffffffffffffffffffffff1673ffffffffffffffffffffffffffffffffffffffff1681526020019081526020015f205f015f9054906101000a900473ffffffffffffffffffffffffffffffffffffffff1690505f5b60038160ff161015610ed3575f73ffffffffffffffffffffffffffffffffffffffff168273ffffffffffffffffffffffffffffffffffffffff160315610ed3575f606460038360ff1660038110610d3957610d38611a19565b5b602091828204019190069054906101000a900460ff1660ff1634610d5d9190611b7e565b610d679190611bec565b90508273ffffffffffffffffffffffffffffffffffffffff166108fc8290811502906040515f60405180830381858888f19350505050158015610dac573d5f803e3d5ffd5b508060085f8573ffffffffffffffffffffffffffffffffffffffff1673ffffffffffffffffffffffffffffffffffffffff1681526020019081526020015f205f828254610df99190611c1c565b925050819055505f8260ff1603610e5e578060075f8573ffffffffffffffffffffffffffffffffffffffff1673ffffffffffffffffffffffffffffffffffffffff1681526020019081526020015f205f828254610e569190611c1c565b925050819055505b60015f8473ffffffffffffffffffffffffffffffffffffffff1673ffffffffffffffffffffffffffffffffffffffff1681526020019081526020015f205f015f9054906101000a900473ffffffffffffffffffffffffffffffffffffffff169250508080610ecb90611c4f565b915050610cdf565b5082843373ffffffffffffffffffffffffffffffffffffffff167f9cfd25589d1eb8ad71e342a86a8524e83522e3936c0803048c08f6d9ad974f403486604051610f1e929190611c77565b60405180910390a450505050565b60015f3373ffffffffffffffffffffffffffffffffffffffff1673ffffffffffffffffffffffffffffffffffffffff1681526020019081526020015f205f0160149054906101000a900460ff1615610fb9576040517f08c379a0000000000000000000000000000000000000000000000000000000008152600401610fb090611ce8565b60405180910390fd5b3373ffffffffffffffffffffffffffffffffffffffff168173ffffffffffffffffffffffffffffffffffffffff1603611027576040517f08c379a000000000000000000000000000000000000000000000000000000000815260040161101e90611d50565b60405180910390fd5b60015f8273ffffffffffffffffffffffffffffffffffffffff1673ffffffffffffffffffffffffffffffffffffffff1681526020019081526020015f205f0160149054906101000a900460ff166110b3576040517f08c379a00000000000000000000000000000000000000000000000000000000081526004016110aa90611db8565b60405180910390fd5b8060015f3373ffffffffffffffffffffffffffffffffffffffff1673ffffffffffffffffffffffffffffffffffffffff1681526020019081526020015f205f015f6101000a81548173ffffffffffffffffffffffffffffffffffffffff021916908373ffffffffffffffffffffffffffffffffffffffff1602179055506001805f3373ffffffffffffffffffffffffffffffffffffffff1673ffffffffffffffffffffffffffffffffffffffff1681526020019081526020015f205f0160146101000a81548160ff02191690831515021790555060065f8273ffffffffffffffffffffffffffffffffffffffff1673ffffffffffffffffffffffffffffffffffffffff1681526020019081526020015f205f8154809291906111d4906119a5565b91905055508073ffffffffffffffffffffffffffffffffffffffff163373ffffffffffffffffffffffffffffffffffffffff167f0a31ee9d46a828884b81003c8498156ea6aa15b9b54bdd0ef0b533d9eba57e5560405160405180910390a350565b60045481565b5f805f805f60025f8781526020019081526020015f205f9054906101000a900473ffffffffffffffffffffffffffffffffffffffff1690505f73ffffffffffffffffffffffffffffffffffffffff168173ffffffffffffffffffffffffffffffffffffffff16036112e2576040517f08c379a00000000000000000000000000000000000000000000000000000000081526004016112d990611e20565b60405180910390fd5b5f60015f8373ffffffffffffffffffffffffffffffffffffffff1673ffffffffffffffffffffffffffffffffffffffff1681526020019081526020015f20600101805480602002602001604051908101604052809291908181526020015f905b82821015611399578382905f5260205f2090600402016040518060800160405290815f8201548152602001600182015481526020016002820154815260200160038201548152505081526020019060010190611342565b5050505090505f5b815181101561144957878282815181106113be576113bd611a19565b5b6020026020010151604001510361143c57828282815181106113e3576113e2611a19565b5b60200260200101515f015183838151811061140157611400611a19565b5b6020026020010151602001518484815181106114205761141f611a19565b5b6020026020010151606001519650965096509650505050611485565b80806001019150506113a1565b506040517f08c379a000000000000000000000000000000000000000000000000000000000815260040161147c90611eae565b60405180910390fd5b9193509193565b6008602052805f5260405f205f915090505481565b60055481565b5f8054906101000a900473ffffffffffffffffffffffffffffffffffffffff1681565b5f60065f8373ffffffffffffffffffffffffffffffffffffffff1673ffffffffffffffffffffffffffffffffffffffff1681526020019081526020015f20549050919050565b6001602052805f5260405f205f91509050805f015f9054906101000a900473ffffffffffffffffffffffffffffffffffffffff1690805f0160149054906101000a900460ff16905082565b5f60075f8373ffffffffffffffffffffffffffffffffffffffff1673ffffffffffffffffffffffffffffffffffffffff1681526020019081526020015f20549050919050565b6006602052805f5260405f205f915090505481565b5f60085f8373ffffffffffffffffffffffffffffffffffffffff1673ffffffffffffffffffffffffffffffffffffffff1681526020019081526020015f20549050919050565b6003816003811061160b575f80fd5b60209182820401919006915054906101000a900460ff1681565b6007602052805f5260405f205f915090505481565b5f80fd5b5f819050919050565b6116508161163e565b811461165a575f80fd5b50565b5f8135905061166b81611647565b92915050565b5f602082840312156116865761168561163a565b5b5f6116938482850161165d565b91505092915050565b5f73ffffffffffffffffffffffffffffffffffffffff82169050919050565b5f6116c58261169c565b9050919050565b6116d5816116bb565b82525050565b5f6020820190506116ee5f8301846116cc565b92915050565b6116fd816116bb565b8114611707575f80fd5b50565b5f81359050611718816116f4565b92915050565b5f602082840312156117335761173261163a565b5b5f6117408482850161170a565b91505092915050565b6117528161163e565b82525050565b5f60208201905061176b5f830184611749565b92915050565b5f81519050919050565b5f82825260208201905092915050565b5f819050602082019050919050565b6117a38161163e565b82525050565b5f6117b4838361179a565b60208301905092915050565b5f602082019050919050565b5f6117d682611771565b6117e0818561177b565b93506117eb8361178b565b805f5b8381101561181b57815161180288826117a9565b975061180d836117c0565b9250506001810190506117ee565b5085935050505092915050565b5f6020820190508181035f83015261184081846117cc565b905092915050565b5f60808201905061185b5f8301876116cc565b6118686020830186611749565b6118756040830185611749565b6118826060830184611749565b95945050505050565b5f8115159050919050565b61189f8161188b565b82525050565b5f6040820190506118b85f8301856116cc565b6118c56020830184611896565b9392505050565b5f60ff82169050919050565b6118e1816118cc565b82525050565b5f6020820190506118fa5f8301846118d8565b92915050565b5f82825260208201905092915050565b7f55736572206e6f742072656769737465726564000000000000000000000000005f82015250565b5f611944601383611900565b915061194f82611910565b602082019050919050565b5f6020820190508181035f83015261197181611938565b9050919050565b7f4e487b71000000000000000000000000000000000000000000000000000000005f52601160045260245ffd5b5f6119af8261163e565b91507fffffffffffffffffffffffffffffffffffffffffffffffffffffffffffffffff82036119e1576119e0611978565b5b600182019050919050565b7f4e487b71000000000000000000000000000000000000000000000000000000005f52604160045260245ffd5b7f4e487b71000000000000000000000000000000000000000000000000000000005f52603260045260245ffd5b7f4f6e6c79206f776e65722063616e2077697468647261770000000000000000005f82015250565b5f611a7a601783611900565b9150611a8582611a46565b602082019050919050565b5f6020820190508181035f830152611aa781611a6e565b9050919050565b7f496e73756666696369656e7420636f6e74726163742062616c616e63650000005f82015250565b5f611ae2601d83611900565b9150611aed82611aae565b602082019050919050565b5f6020820190508181035f830152611b0f81611ad6565b9050919050565b7f416d6f756e74206d7573742062652067726561746572207468616e20300000005f82015250565b5f611b4a601d83611900565b9150611b5582611b16565b602082019050919050565b5f6020820190508181035f830152611b7781611b3e565b9050919050565b5f611b888261163e565b9150611b938361163e565b9250828202611ba18161163e565b91508282048414831517611bb857611bb7611978565b5b5092915050565b7f4e487b71000000000000000000000000000000000000000000000000000000005f52601260045260245ffd5b5f611bf68261163e565b9150611c018361163e565b925082611c1157611c10611bbf565b5b828204905092915050565b5f611c268261163e565b9150611c318361163e565b9250828201905080821115611c4957611c48611978565b5b92915050565b5f611c59826118cc565b915060ff8203611c6c57611c6b611978565b5b600182019050919050565b5f604082019050611c8a5f830185611749565b611c976020830184611749565b9392505050565b7f416c7265616479207265676973746572656400000000000000000000000000005f82015250565b5f611cd2601283611900565b9150611cdd82611c9e565b602082019050919050565b5f6020820190508181035f830152611cff81611cc6565b9050919050565b7f43616e6e6f7420726566657220796f757273656c6600000000000000000000005f82015250565b5f611d3a601583611900565b9150611d4582611d06565b602082019050919050565b5f6020820190508181035f830152611d6781611d2e565b9050919050565b7f5265666572726572206e6f7420726567697374657265640000000000000000005f82015250565b5f611da2601783611900565b9150611dad82611d6e565b602082019050919050565b5f6020820190508181035f830152611dcf81611d96565b9050919050565b7f496e76616c696420706f736974696f6e496400000000000000000000000000005f82015250565b5f611e0a601283611900565b9150611e1582611dd6565b602082019050919050565b5f6020820190508181035f830152611e3781611dfe565b9050919050565b7f5374616b65206e6f7420666f756e6420666f7220676976656e20706f736974695f8201527f6f6e496400000000000000000000000000000000000000000000000000000000602082015250565b5f611e98602483611900565b9150611ea382611e3e565b604082019050919050565b5f6020820190508181035f830152611ec581611e8c565b905091905056fea26469706673582212205b325221d1923c32fbc6ad97b7fd8b64341b5e17953b76fc96d80a7ca3cf8f7d64736f6c63430008190033",
					"opcodes": "PUSH1 0x80 PUSH1 0x40 MSTORE PUSH1 0x40 MLOAD DUP1 PUSH1 0x60 ADD PUSH1 0x40 MSTORE DUP1 PUSH1 0x5 PUSH1 0xFF AND DUP2 MSTORE PUSH1 0x20 ADD PUSH1 0x3 PUSH1 0xFF AND DUP2 MSTORE PUSH1 0x20 ADD PUSH1 0x2 PUSH1 0xFF AND DUP2 MSTORE POP PUSH1 0x3 SWAP1 PUSH1 0x3 PUSH2 0x3B SWAP3 SWAP2 SWAP1 PUSH2 0x193 JUMP JUMPDEST POP CALLVALUE DUP1 ISZERO PUSH2 0x47 JUMPI PUSH0 DUP1 REVERT JUMPDEST POP PUSH1 0x40 MLOAD PUSH2 0x2255 CODESIZE SUB DUP1 PUSH2 0x2255 DUP4 CODECOPY DUP2 DUP2 ADD PUSH1 0x40 MSTORE DUP2 ADD SWAP1 PUSH2 0x69 SWAP2 SWAP1 PUSH2 0x2A3 JUMP JUMPDEST PUSH0 PUSH20 0xFFFFFFFFFFFFFFFFFFFFFFFFFFFFFFFFFFFFFFFF AND DUP2 PUSH20 0xFFFFFFFFFFFFFFFFFFFFFFFFFFFFFFFFFFFFFFFF AND SUB PUSH2 0xD7 JUMPI PUSH1 0x40 MLOAD PUSH32 0x8C379A000000000000000000000000000000000000000000000000000000000 DUP2 MSTORE PUSH1 0x4 ADD PUSH2 0xCE SWAP1 PUSH2 0x328 JUMP JUMPDEST PUSH1 0x40 MLOAD DUP1 SWAP2 SUB SWAP1 REVERT JUMPDEST DUP1 PUSH0 DUP1 PUSH2 0x100 EXP DUP2 SLOAD DUP2 PUSH20 0xFFFFFFFFFFFFFFFFFFFFFFFFFFFFFFFFFFFFFFFF MUL NOT AND SWAP1 DUP4 PUSH20 0xFFFFFFFFFFFFFFFFFFFFFFFFFFFFFFFFFFFFFFFF AND MUL OR SWAP1 SSTORE POP PUSH1 0x1 DUP1 PUSH0 DUP1 PUSH0 SWAP1 SLOAD SWAP1 PUSH2 0x100 EXP SWAP1 DIV PUSH20 0xFFFFFFFFFFFFFFFFFFFFFFFFFFFFFFFFFFFFFFFF AND PUSH20 0xFFFFFFFFFFFFFFFFFFFFFFFFFFFFFFFFFFFFFFFF AND PUSH20 0xFFFFFFFFFFFFFFFFFFFFFFFFFFFFFFFFFFFFFFFF AND DUP2 MSTORE PUSH1 0x20 ADD SWAP1 DUP2 MSTORE PUSH1 0x20 ADD PUSH0 KECCAK256 PUSH0 ADD PUSH1 0x14 PUSH2 0x100 EXP DUP2 SLOAD DUP2 PUSH1 0xFF MUL NOT AND SWAP1 DUP4 ISZERO ISZERO MUL OR SWAP1 SSTORE POP POP PUSH2 0x346 JUMP JUMPDEST DUP3 PUSH1 0x3 PUSH1 0x1F ADD PUSH1 0x20 SWAP1 DIV DUP2 ADD SWAP3 DUP3 ISZERO PUSH2 0x219 JUMPI SWAP2 PUSH1 0x20 MUL DUP3 ADD PUSH0 JUMPDEST DUP4 DUP3 GT ISZERO PUSH2 0x1EB JUMPI DUP4 MLOAD DUP4 DUP3 PUSH2 0x100 EXP DUP2 SLOAD DUP2 PUSH1 0xFF MUL NOT AND SWAP1 DUP4 PUSH1 0xFF AND MUL OR SWAP1 SSTORE POP SWAP3 PUSH1 0x20 ADD SWAP3 PUSH1 0x1 ADD PUSH1 0x20 DUP2 PUSH0 ADD DIV SWAP3 DUP4 ADD SWAP3 PUSH1 0x1 SUB MUL PUSH2 0x1AE JUMP JUMPDEST DUP1 ISZERO PUSH2 0x217 JUMPI DUP3 DUP2 PUSH2 0x100 EXP DUP2 SLOAD SWAP1 PUSH1 0xFF MUL NOT AND SWAP1 SSTORE PUSH1 0x1 ADD PUSH1 0x20 DUP2 PUSH0 ADD DIV SWAP3 DUP4 ADD SWAP3 PUSH1 0x1 SUB MUL PUSH2 0x1EB JUMP JUMPDEST POP JUMPDEST POP SWAP1 POP PUSH2 0x226 SWAP2 SWAP1 PUSH2 0x22A JUMP JUMPDEST POP SWAP1 JUMP JUMPDEST JUMPDEST DUP1 DUP3 GT ISZERO PUSH2 0x241 JUMPI PUSH0 DUP2 PUSH0 SWAP1 SSTORE POP PUSH1 0x1 ADD PUSH2 0x22B JUMP JUMPDEST POP SWAP1 JUMP JUMPDEST PUSH0 DUP1 REVERT JUMPDEST PUSH0 PUSH20 0xFFFFFFFFFFFFFFFFFFFFFFFFFFFFFFFFFFFFFFFF DUP3 AND SWAP1 POP SWAP2 SWAP1 POP JUMP JUMPDEST PUSH0 PUSH2 0x272 DUP3 PUSH2 0x249 JUMP JUMPDEST SWAP1 POP SWAP2 SWAP1 POP JUMP JUMPDEST PUSH2 0x282 DUP2 PUSH2 0x268 JUMP JUMPDEST DUP2 EQ PUSH2 0x28C JUMPI PUSH0 DUP1 REVERT JUMPDEST POP JUMP JUMPDEST PUSH0 DUP2 MLOAD SWAP1 POP PUSH2 0x29D DUP2 PUSH2 0x279 JUMP JUMPDEST SWAP3 SWAP2 POP POP JUMP JUMPDEST PUSH0 PUSH1 0x20 DUP3 DUP5 SUB SLT ISZERO PUSH2 0x2B8 JUMPI PUSH2 0x2B7 PUSH2 0x245 JUMP JUMPDEST JUMPDEST PUSH0 PUSH2 0x2C5 DUP5 DUP3 DUP6 ADD PUSH2 0x28F JUMP JUMPDEST SWAP2 POP POP SWAP3 SWAP2 POP POP JUMP JUMPDEST PUSH0 DUP3 DUP3 MSTORE PUSH1 0x20 DUP3 ADD SWAP1 POP SWAP3 SWAP2 POP POP JUMP JUMPDEST PUSH32 0x4F776E657220616464726573732063616E6E6F74206265207A65726F00000000 PUSH0 DUP3 ADD MSTORE POP JUMP JUMPDEST PUSH0 PUSH2 0x312 PUSH1 0x1C DUP4 PUSH2 0x2CE JUMP JUMPDEST SWAP2 POP PUSH2 0x31D DUP3 PUSH2 0x2DE JUMP JUMPDEST PUSH1 0x20 DUP3 ADD SWAP1 POP SWAP2 SWAP1 POP JUMP JUMPDEST PUSH0 PUSH1 0x20 DUP3 ADD SWAP1 POP DUP2 DUP2 SUB PUSH0 DUP4 ADD MSTORE PUSH2 0x33F DUP2 PUSH2 0x306 JUMP JUMPDEST SWAP1 POP SWAP2 SWAP1 POP JUMP JUMPDEST PUSH2 0x1F02 DUP1 PUSH2 0x353 PUSH0 CODECOPY PUSH0 RETURN INVALID PUSH1 0x80 PUSH1 0x40 MSTORE PUSH1 0x4 CALLDATASIZE LT PUSH2 0x10C JUMPI PUSH0 CALLDATALOAD PUSH1 0xE0 SHR DUP1 PUSH4 0x899346C7 GT PUSH2 0x94 JUMPI DUP1 PUSH4 0xAA7ED462 GT PUSH2 0x63 JUMPI DUP1 PUSH4 0xAA7ED462 EQ PUSH2 0x397 JUMPI DUP1 PUSH4 0xB77B7DC9 EQ PUSH2 0x3D3 JUMPI DUP1 PUSH4 0xC2D3C677 EQ PUSH2 0x40F JUMPI DUP1 PUSH4 0xE45A57D0 EQ PUSH2 0x44B JUMPI DUP1 PUSH4 0xF6E88873 EQ PUSH2 0x487 JUMPI PUSH2 0x113 JUMP JUMPDEST DUP1 PUSH4 0x899346C7 EQ PUSH2 0x2CA JUMPI DUP1 PUSH4 0x8DA5CB5B EQ PUSH2 0x2F4 JUMPI DUP1 PUSH4 0x98278EFB EQ PUSH2 0x31E JUMPI DUP1 PUSH4 0xA87430BA EQ PUSH2 0x35A JUMPI PUSH2 0x113 JUMP JUMPDEST DUP1 PUSH4 0x3A4B66F1 GT PUSH2 0xDB JUMPI DUP1 PUSH4 0x3A4B66F1 EQ PUSH2 0x1F3 JUMPI DUP1 PUSH4 0x4420E486 EQ PUSH2 0x1FD JUMPI DUP1 PUSH4 0x75506C96 EQ PUSH2 0x225 JUMPI DUP1 PUSH4 0x797C7F5F EQ PUSH2 0x24F JUMPI DUP1 PUSH4 0x862BA05F EQ PUSH2 0x28E JUMPI PUSH2 0x113 JUMP JUMPDEST DUP1 PUSH4 0x1E43EB27 EQ PUSH2 0x117 JUMPI DUP1 PUSH4 0x21923BDE EQ PUSH2 0x153 JUMPI DUP1 PUSH4 0x28FE7031 EQ PUSH2 0x18F JUMPI DUP1 PUSH4 0x2E1A7D4D EQ PUSH2 0x1CB JUMPI PUSH2 0x113 JUMP JUMPDEST CALLDATASIZE PUSH2 0x113 JUMPI STOP JUMPDEST PUSH0 DUP1 REVERT JUMPDEST CALLVALUE DUP1 ISZERO PUSH2 0x122 JUMPI PUSH0 DUP1 REVERT JUMPDEST POP PUSH2 0x13D PUSH1 0x4 DUP1 CALLDATASIZE SUB DUP2 ADD SWAP1 PUSH2 0x138 SWAP2 SWAP1 PUSH2 0x1671 JUMP JUMPDEST PUSH2 0x4C3 JUMP JUMPDEST PUSH1 0x40 MLOAD PUSH2 0x14A SWAP2 SWAP1 PUSH2 0x16DB JUMP JUMPDEST PUSH1 0x40 MLOAD DUP1 SWAP2 SUB SWAP1 RETURN JUMPDEST CALLVALUE DUP1 ISZERO PUSH2 0x15E JUMPI PUSH0 DUP1 REVERT JUMPDEST POP PUSH2 0x179 PUSH1 0x4 DUP1 CALLDATASIZE SUB DUP2 ADD SWAP1 PUSH2 0x174 SWAP2 SWAP1 PUSH2 0x171E JUMP JUMPDEST PUSH2 0x4F3 JUMP JUMPDEST PUSH1 0x40 MLOAD PUSH2 0x186 SWAP2 SWAP1 PUSH2 0x1758 JUMP JUMPDEST PUSH1 0x40 MLOAD DUP1 SWAP2 SUB SWAP1 RETURN JUMPDEST CALLVALUE DUP1 ISZERO PUSH2 0x19A JUMPI PUSH0 DUP1 REVERT JUMPDEST POP PUSH2 0x1B5 PUSH1 0x4 DUP1 CALLDATASIZE SUB DUP2 ADD SWAP1 PUSH2 0x1B0 SWAP2 SWAP1 PUSH2 0x171E JUMP JUMPDEST PUSH2 0x80B JUMP JUMPDEST PUSH1 0x40 MLOAD PUSH2 0x1C2 SWAP2 SWAP1 PUSH2 0x1828 JUMP JUMPDEST PUSH1 0x40 MLOAD DUP1 SWAP2 SUB SWAP1 RETURN JUMPDEST CALLVALUE DUP1 ISZERO PUSH2 0x1D6 JUMPI PUSH0 DUP1 REVERT JUMPDEST POP PUSH2 0x1F1 PUSH1 0x4 DUP1 CALLDATASIZE SUB DUP2 ADD SWAP1 PUSH2 0x1EC SWAP2 SWAP1 PUSH2 0x1671 JUMP JUMPDEST PUSH2 0x943 JUMP JUMPDEST STOP JUMPDEST PUSH2 0x1FB PUSH2 0xA79 JUMP JUMPDEST STOP JUMPDEST CALLVALUE DUP1 ISZERO PUSH2 0x208 JUMPI PUSH0 DUP1 REVERT JUMPDEST POP PUSH2 0x223 PUSH1 0x4 DUP1 CALLDATASIZE SUB DUP2 ADD SWAP1 PUSH2 0x21E SWAP2 SWAP1 PUSH2 0x171E JUMP JUMPDEST PUSH2 0xF2C JUMP JUMPDEST STOP JUMPDEST CALLVALUE DUP1 ISZERO PUSH2 0x230 JUMPI PUSH0 DUP1 REVERT JUMPDEST POP PUSH2 0x239 PUSH2 0x1236 JUMP JUMPDEST PUSH1 0x40 MLOAD PUSH2 0x246 SWAP2 SWAP1 PUSH2 0x1758 JUMP JUMPDEST PUSH1 0x40 MLOAD DUP1 SWAP2 SUB SWAP1 RETURN JUMPDEST CALLVALUE DUP1 ISZERO PUSH2 0x25A JUMPI PUSH0 DUP1 REVERT JUMPDEST POP PUSH2 0x275 PUSH1 0x4 DUP1 CALLDATASIZE SUB DUP2 ADD SWAP1 PUSH2 0x270 SWAP2 SWAP1 PUSH2 0x1671 JUMP JUMPDEST PUSH2 0x123C JUMP JUMPDEST PUSH1 0x40 MLOAD PUSH2 0x285 SWAP5 SWAP4 SWAP3 SWAP2 SWAP1 PUSH2 0x1848 JUMP JUMPDEST PUSH1 0x40 MLOAD DUP1 SWAP2 SUB SWAP1 RETURN JUMPDEST CALLVALUE DUP1 ISZERO PUSH2 0x299 JUMPI PUSH0 DUP1 REVERT JUMPDEST POP PUSH2 0x2B4 PUSH1 0x4 DUP1 CALLDATASIZE SUB DUP2 ADD SWAP1 PUSH2 0x2AF SWAP2 SWAP1 PUSH2 0x171E JUMP JUMPDEST PUSH2 0x148C JUMP JUMPDEST PUSH1 0x40 MLOAD PUSH2 0x2C1 SWAP2 SWAP1 PUSH2 0x1758 JUMP JUMPDEST PUSH1 0x40 MLOAD DUP1 SWAP2 SUB SWAP1 RETURN JUMPDEST CALLVALUE DUP1 ISZERO PUSH2 0x2D5 JUMPI PUSH0 DUP1 REVERT JUMPDEST POP PUSH2 0x2DE PUSH2 0x14A1 JUMP JUMPDEST PUSH1 0x40 MLOAD PUSH2 0x2EB SWAP2 SWAP1 PUSH2 0x1758 JUMP JUMPDEST PUSH1 0x40 MLOAD DUP1 SWAP2 SUB SWAP1 RETURN JUMPDEST CALLVALUE DUP1 ISZERO PUSH2 0x2FF JUMPI PUSH0 DUP1 REVERT JUMPDEST POP PUSH2 0x308 PUSH2 0x14A7 JUMP JUMPDEST PUSH1 0x40 MLOAD PUSH2 0x315 SWAP2 SWAP1 PUSH2 0x16DB JUMP JUMPDEST PUSH1 0x40 MLOAD DUP1 SWAP2 SUB SWAP1 RETURN JUMPDEST CALLVALUE DUP1 ISZERO PUSH2 0x329 JUMPI PUSH0 DUP1 REVERT JUMPDEST POP PUSH2 0x344 PUSH1 0x4 DUP1 CALLDATASIZE SUB DUP2 ADD SWAP1 PUSH2 0x33F SWAP2 SWAP1 PUSH2 0x171E JUMP JUMPDEST PUSH2 0x14CA JUMP JUMPDEST PUSH1 0x40 MLOAD PUSH2 0x351 SWAP2 SWAP1 PUSH2 0x1758 JUMP JUMPDEST PUSH1 0x40 MLOAD DUP1 SWAP2 SUB SWAP1 RETURN JUMPDEST CALLVALUE DUP1 ISZERO PUSH2 0x365 JUMPI PUSH0 DUP1 REVERT JUMPDEST POP PUSH2 0x380 PUSH1 0x4 DUP1 CALLDATASIZE SUB DUP2 ADD SWAP1 PUSH2 0x37B SWAP2 SWAP1 PUSH2 0x171E JUMP JUMPDEST PUSH2 0x1510 JUMP JUMPDEST PUSH1 0x40 MLOAD PUSH2 0x38E SWAP3 SWAP2 SWAP1 PUSH2 0x18A5 JUMP JUMPDEST PUSH1 0x40 MLOAD DUP1 SWAP2 SUB SWAP1 RETURN JUMPDEST CALLVALUE DUP1 ISZERO PUSH2 0x3A2 JUMPI PUSH0 DUP1 REVERT JUMPDEST POP PUSH2 0x3BD PUSH1 0x4 DUP1 CALLDATASIZE SUB DUP2 ADD SWAP1 PUSH2 0x3B8 SWAP2 SWAP1 PUSH2 0x171E JUMP JUMPDEST PUSH2 0x155B JUMP JUMPDEST PUSH1 0x40 MLOAD PUSH2 0x3CA SWAP2 SWAP1 PUSH2 0x1758 JUMP JUMPDEST PUSH1 0x40 MLOAD DUP1 SWAP2 SUB SWAP1 RETURN JUMPDEST CALLVALUE DUP1 ISZERO PUSH2 0x3DE JUMPI PUSH0 DUP1 REVERT JUMPDEST POP PUSH2 0x3F9 PUSH1 0x4 DUP1 CALLDATASIZE SUB DUP2 ADD SWAP1 PUSH2 0x3F4 SWAP2 SWAP1 PUSH2 0x171E JUMP JUMPDEST PUSH2 0x15A1 JUMP JUMPDEST PUSH1 0x40 MLOAD PUSH2 0x406 SWAP2 SWAP1 PUSH2 0x1758 JUMP JUMPDEST PUSH1 0x40 MLOAD DUP1 SWAP2 SUB SWAP1 RETURN JUMPDEST CALLVALUE DUP1 ISZERO PUSH2 0x41A JUMPI PUSH0 DUP1 REVERT JUMPDEST POP PUSH2 0x435 PUSH1 0x4 DUP1 CALLDATASIZE SUB DUP2 ADD SWAP1 PUSH2 0x430 SWAP2 SWAP1 PUSH2 0x171E JUMP JUMPDEST PUSH2 0x15B6 JUMP JUMPDEST PUSH1 0x40 MLOAD PUSH2 0x442 SWAP2 SWAP1 PUSH2 0x1758 JUMP JUMPDEST PUSH1 0x40 MLOAD DUP1 SWAP2 SUB SWAP1 RETURN JUMPDEST CALLVALUE DUP1 ISZERO PUSH2 0x456 JUMPI PUSH0 DUP1 REVERT JUMPDEST POP PUSH2 0x471 PUSH1 0x4 DUP1 CALLDATASIZE SUB DUP2 ADD SWAP1 PUSH2 0x46C SWAP2 SWAP1 PUSH2 0x1671 JUMP JUMPDEST PUSH2 0x15FC JUMP JUMPDEST PUSH1 0x40 MLOAD PUSH2 0x47E SWAP2 SWAP1 PUSH2 0x18E7 JUMP JUMPDEST PUSH1 0x40 MLOAD DUP1 SWAP2 SUB SWAP1 RETURN JUMPDEST CALLVALUE DUP1 ISZERO PUSH2 0x492 JUMPI PUSH0 DUP1 REVERT JUMPDEST POP PUSH2 0x4AD PUSH1 0x4 DUP1 CALLDATASIZE SUB DUP2 ADD SWAP1 PUSH2 0x4A8 SWAP2 SWAP1 PUSH2 0x171E JUMP JUMPDEST PUSH2 0x1625 JUMP JUMPDEST PUSH1 0x40 MLOAD PUSH2 0x4BA SWAP2 SWAP1 PUSH2 0x1758 JUMP JUMPDEST PUSH1 0x40 MLOAD DUP1 SWAP2 SUB SWAP1 RETURN JUMPDEST PUSH1 0x2 PUSH1 0x20 MSTORE DUP1 PUSH0 MSTORE PUSH1 0x40 PUSH0 KECCAK256 PUSH0 SWAP2 POP SLOAD SWAP1 PUSH2 0x100 EXP SWAP1 DIV PUSH20 0xFFFFFFFFFFFFFFFFFFFFFFFFFFFFFFFFFFFFFFFF AND DUP2 JUMP JUMPDEST PUSH0 PUSH1 0x1 PUSH0 DUP4 PUSH20 0xFFFFFFFFFFFFFFFFFFFFFFFFFFFFFFFFFFFFFFFF AND PUSH20 0xFFFFFFFFFFFFFFFFFFFFFFFFFFFFFFFFFFFFFFFF AND DUP2 MSTORE PUSH1 0x20 ADD SWAP1 DUP2 MSTORE PUSH1 0x20 ADD PUSH0 KECCAK256 PUSH0 ADD PUSH1 0x14 SWAP1 SLOAD SWAP1 PUSH2 0x100 EXP SWAP1 DIV PUSH1 0xFF AND PUSH2 0x580 JUMPI PUSH1 0x40 MLOAD PUSH32 0x8C379A000000000000000000000000000000000000000000000000000000000 DUP2 MSTORE PUSH1 0x4 ADD PUSH2 0x577 SWAP1 PUSH2 0x195A JUMP JUMPDEST PUSH1 0x40 MLOAD DUP1 SWAP2 SUB SWAP1 REVERT JUMPDEST PUSH0 DUP1 DUP4 SWAP1 POP JUMPDEST PUSH0 PUSH20 0xFFFFFFFFFFFFFFFFFFFFFFFFFFFFFFFFFFFFFFFF AND PUSH1 0x1 PUSH0 DUP4 PUSH20 0xFFFFFFFFFFFFFFFFFFFFFFFFFFFFFFFFFFFFFFFF AND PUSH20 0xFFFFFFFFFFFFFFFFFFFFFFFFFFFFFFFFFFFFFFFF AND DUP2 MSTORE PUSH1 0x20 ADD SWAP1 DUP2 MSTORE PUSH1 0x20 ADD PUSH0 KECCAK256 PUSH0 ADD PUSH0 SWAP1 SLOAD SWAP1 PUSH2 0x100 EXP SWAP1 DIV PUSH20 0xFFFFFFFFFFFFFFFFFFFFFFFFFFFFFFFFFFFFFFFF AND PUSH20 0xFFFFFFFFFFFFFFFFFFFFFFFFFFFFFFFFFFFFFFFF AND EQ ISZERO DUP1 ISZERO PUSH2 0x6C9 JUMPI POP PUSH0 DUP1 SLOAD SWAP1 PUSH2 0x100 EXP SWAP1 DIV PUSH20 0xFFFFFFFFFFFFFFFFFFFFFFFFFFFFFFFFFFFFFFFF AND PUSH20 0xFFFFFFFFFFFFFFFFFFFFFFFFFFFFFFFFFFFFFFFF AND PUSH1 0x1 PUSH0 DUP4 PUSH20 0xFFFFFFFFFFFFFFFFFFFFFFFFFFFFFFFFFFFFFFFF AND PUSH20 0xFFFFFFFFFFFFFFFFFFFFFFFFFFFFFFFFFFFFFFFF AND DUP2 MSTORE PUSH1 0x20 ADD SWAP1 DUP2 MSTORE PUSH1 0x20 ADD PUSH0 KECCAK256 PUSH0 ADD PUSH0 SWAP1 SLOAD SWAP1 PUSH2 0x100 EXP SWAP1 DIV PUSH20 0xFFFFFFFFFFFFFFFFFFFFFFFFFFFFFFFFFFFFFFFF AND PUSH20 0xFFFFFFFFFFFFFFFFFFFFFFFFFFFFFFFFFFFFFFFF AND EQ ISZERO JUMPDEST ISZERO PUSH2 0x742 JUMPI DUP2 DUP1 PUSH2 0x6D9 SWAP1 PUSH2 0x19A5 JUMP JUMPDEST SWAP3 POP POP PUSH1 0x1 PUSH0 DUP3 PUSH20 0xFFFFFFFFFFFFFFFFFFFFFFFFFFFFFFFFFFFFFFFF AND PUSH20 0xFFFFFFFFFFFFFFFFFFFFFFFFFFFFFFFFFFFFFFFF AND DUP2 MSTORE PUSH1 0x20 ADD SWAP1 DUP2 MSTORE PUSH1 0x20 ADD PUSH0 KECCAK256 PUSH0 ADD PUSH0 SWAP1 SLOAD SWAP1 PUSH2 0x100 EXP SWAP1 DIV PUSH20 0xFFFFFFFFFFFFFFFFFFFFFFFFFFFFFFFFFFFFFFFF AND SWAP1 POP PUSH2 0x586 JUMP JUMPDEST PUSH0 DUP1 SLOAD SWAP1 PUSH2 0x100 EXP SWAP1 DIV PUSH20 0xFFFFFFFFFFFFFFFFFFFFFFFFFFFFFFFFFFFFFFFF AND PUSH20 0xFFFFFFFFFFFFFFFFFFFFFFFFFFFFFFFFFFFFFFFF AND PUSH1 0x1 PUSH0 DUP4 PUSH20 0xFFFFFFFFFFFFFFFFFFFFFFFFFFFFFFFFFFFFFFFF AND PUSH20 0xFFFFFFFFFFFFFFFFFFFFFFFFFFFFFFFFFFFFFFFF AND DUP2 MSTORE PUSH1 0x20 ADD SWAP1 DUP2 MSTORE PUSH1 0x20 ADD PUSH0 KECCAK256 PUSH0 ADD PUSH0 SWAP1 SLOAD SWAP1 PUSH2 0x100 EXP SWAP1 DIV PUSH20 0xFFFFFFFFFFFFFFFFFFFFFFFFFFFFFFFFFFFFFFFF AND PUSH20 0xFFFFFFFFFFFFFFFFFFFFFFFFFFFFFFFFFFFFFFFF AND SUB PUSH2 0x801 JUMPI DUP2 DUP1 PUSH2 0x7FD SWAP1 PUSH2 0x19A5 JUMP JUMPDEST SWAP3 POP POP JUMPDEST DUP2 SWAP3 POP POP POP SWAP2 SWAP1 POP JUMP JUMPDEST PUSH1 0x60 PUSH0 PUSH1 0x1 PUSH0 DUP5 PUSH20 0xFFFFFFFFFFFFFFFFFFFFFFFFFFFFFFFFFFFFFFFF AND PUSH20 0xFFFFFFFFFFFFFFFFFFFFFFFFFFFFFFFFFFFFFFFF AND DUP2 MSTORE PUSH1 0x20 ADD SWAP1 DUP2 MSTORE PUSH1 0x20 ADD PUSH0 KECCAK256 PUSH1 0x1 ADD DUP1 SLOAD SWAP1 POP SWAP1 POP PUSH0 DUP2 PUSH8 0xFFFFFFFFFFFFFFFF DUP2 GT ISZERO PUSH2 0x86F JUMPI PUSH2 0x86E PUSH2 0x19EC JUMP JUMPDEST JUMPDEST PUSH1 0x40 MLOAD SWAP1 DUP1 DUP3 MSTORE DUP1 PUSH1 0x20 MUL PUSH1 0x20 ADD DUP3 ADD PUSH1 0x40 MSTORE DUP1 ISZERO PUSH2 0x89D JUMPI DUP2 PUSH1 0x20 ADD PUSH1 0x20 DUP3 MUL DUP1 CALLDATASIZE DUP4 CALLDATACOPY DUP1 DUP3 ADD SWAP2 POP POP SWAP1 POP JUMPDEST POP SWAP1 POP PUSH0 JUMPDEST DUP3 DUP2 LT ISZERO PUSH2 0x938 JUMPI PUSH1 0x1 PUSH0 DUP7 PUSH20 0xFFFFFFFFFFFFFFFFFFFFFFFFFFFFFFFFFFFFFFFF AND PUSH20 0xFFFFFFFFFFFFFFFFFFFFFFFFFFFFFFFFFFFFFFFF AND DUP2 MSTORE PUSH1 0x20 ADD SWAP1 DUP2 MSTORE PUSH1 0x20 ADD PUSH0 KECCAK256 PUSH1 0x1 ADD DUP2 DUP2 SLOAD DUP2 LT PUSH2 0x8FC JUMPI PUSH2 0x8FB PUSH2 0x1A19 JUMP JUMPDEST JUMPDEST SWAP1 PUSH0 MSTORE PUSH1 0x20 PUSH0 KECCAK256 SWAP1 PUSH1 0x4 MUL ADD PUSH1 0x2 ADD SLOAD DUP3 DUP3 DUP2 MLOAD DUP2 LT PUSH2 0x91F JUMPI PUSH2 0x91E PUSH2 0x1A19 JUMP JUMPDEST JUMPDEST PUSH1 0x20 MUL PUSH1 0x20 ADD ADD DUP2 DUP2 MSTORE POP POP DUP1 DUP1 PUSH1 0x1 ADD SWAP2 POP POP PUSH2 0x8A2 JUMP JUMPDEST POP DUP1 SWAP3 POP POP POP SWAP2 SWAP1 POP JUMP JUMPDEST PUSH0 DUP1 SLOAD SWAP1 PUSH2 0x100 EXP SWAP1 DIV PUSH20 0xFFFFFFFFFFFFFFFFFFFFFFFFFFFFFFFFFFFFFFFF AND PUSH20 0xFFFFFFFFFFFFFFFFFFFFFFFFFFFFFFFFFFFFFFFF AND CALLER PUSH20 0xFFFFFFFFFFFFFFFFFFFFFFFFFFFFFFFFFFFFFFFF AND EQ PUSH2 0x9D0 JUMPI PUSH1 0x40 MLOAD PUSH32 0x8C379A000000000000000000000000000000000000000000000000000000000 DUP2 MSTORE PUSH1 0x4 ADD PUSH2 0x9C7 SWAP1 PUSH2 0x1A90 JUMP JUMPDEST PUSH1 0x40 MLOAD DUP1 SWAP2 SUB SWAP1 REVERT JUMPDEST DUP1 SELFBALANCE LT ISZERO PUSH2 0xA13 JUMPI PUSH1 0x40 MLOAD PUSH32 0x8C379A000000000000000000000000000000000000000000000000000000000 DUP2 MSTORE PUSH1 0x4 ADD PUSH2 0xA0A SWAP1 PUSH2 0x1AF8 JUMP JUMPDEST PUSH1 0x40 MLOAD DUP1 SWAP2 SUB SWAP1 REVERT JUMPDEST PUSH0 DUP1 SLOAD SWAP1 PUSH2 0x100 EXP SWAP1 DIV PUSH20 0xFFFFFFFFFFFFFFFFFFFFFFFFFFFFFFFFFFFFFFFF AND PUSH20 0xFFFFFFFFFFFFFFFFFFFFFFFFFFFFFFFFFFFFFFFF AND PUSH2 0x8FC DUP3 SWAP1 DUP2 ISZERO MUL SWAP1 PUSH1 0x40 MLOAD PUSH0 PUSH1 0x40 MLOAD DUP1 DUP4 SUB DUP2 DUP6 DUP9 DUP9 CALL SWAP4 POP POP POP POP ISZERO DUP1 ISZERO PUSH2 0xA75 JUMPI RETURNDATASIZE PUSH0 DUP1 RETURNDATACOPY RETURNDATASIZE PUSH0 REVERT JUMPDEST POP POP JUMP JUMPDEST PUSH1 0x1 PUSH0 CALLER PUSH20 0xFFFFFFFFFFFFFFFFFFFFFFFFFFFFFFFFFFFFFFFF AND PUSH20 0xFFFFFFFFFFFFFFFFFFFFFFFFFFFFFFFFFFFFFFFF AND DUP2 MSTORE PUSH1 0x20 ADD SWAP1 DUP2 MSTORE PUSH1 0x20 ADD PUSH0 KECCAK256 PUSH0 ADD PUSH1 0x14 SWAP1 SLOAD SWAP1 PUSH2 0x100 EXP SWAP1 DIV PUSH1 0xFF AND PUSH2 0xB05 JUMPI PUSH1 0x40 MLOAD PUSH32 0x8C379A000000000000000000000000000000000000000000000000000000000 DUP2 MSTORE PUSH1 0x4 ADD PUSH2 0xAFC SWAP1 PUSH2 0x195A JUMP JUMPDEST PUSH1 0x40 MLOAD DUP1 SWAP2 SUB SWAP1 REVERT JUMPDEST PUSH0 CALLVALUE GT PUSH2 0xB47 JUMPI PUSH1 0x40 MLOAD PUSH32 0x8C379A000000000000000000000000000000000000000000000000000000000 DUP2 MSTORE PUSH1 0x4 ADD PUSH2 0xB3E SWAP1 PUSH2 0x1B60 JUMP JUMPDEST PUSH1 0x40 MLOAD DUP1 SWAP2 SUB SWAP1 REVERT JUMPDEST PUSH0 PUSH1 0x4 PUSH0 DUP2 SLOAD DUP1 SWAP3 SWAP2 SWAP1 PUSH2 0xB5A SWAP1 PUSH2 0x19A5 JUMP JUMPDEST SWAP2 SWAP1 POP SSTORE SWAP1 POP PUSH0 PUSH1 0x5 PUSH0 DUP2 SLOAD DUP1 SWAP3 SWAP2 SWAP1 PUSH2 0xB73 SWAP1 PUSH2 0x19A5 JUMP JUMPDEST SWAP2 SWAP1 POP SSTORE SWAP1 POP PUSH0 TIMESTAMP SWAP1 POP PUSH1 0x1 PUSH0 CALLER PUSH20 0xFFFFFFFFFFFFFFFFFFFFFFFFFFFFFFFFFFFFFFFF AND PUSH20 0xFFFFFFFFFFFFFFFFFFFFFFFFFFFFFFFFFFFFFFFF AND DUP2 MSTORE PUSH1 0x20 ADD SWAP1 DUP2 MSTORE PUSH1 0x20 ADD PUSH0 KECCAK256 PUSH1 0x1 ADD PUSH1 0x40 MLOAD DUP1 PUSH1 0x80 ADD PUSH1 0x40 MSTORE DUP1 DUP6 DUP2 MSTORE PUSH1 0x20 ADD CALLVALUE DUP2 MSTORE PUSH1 0x20 ADD DUP5 DUP2 MSTORE PUSH1 0x20 ADD DUP4 DUP2 MSTORE POP SWAP1 DUP1 PUSH1 0x1 DUP2 SLOAD ADD DUP1 DUP3 SSTORE DUP1 SWAP2 POP POP PUSH1 0x1 SWAP1 SUB SWAP1 PUSH0 MSTORE PUSH1 0x20 PUSH0 KECCAK256 SWAP1 PUSH1 0x4 MUL ADD PUSH0 SWAP1 SWAP2 SWAP1 SWAP2 SWAP1 SWAP2 POP PUSH0 DUP3 ADD MLOAD DUP2 PUSH0 ADD SSTORE PUSH1 0x20 DUP3 ADD MLOAD DUP2 PUSH1 0x1 ADD SSTORE PUSH1 0x40 DUP3 ADD MLOAD DUP2 PUSH1 0x2 ADD SSTORE PUSH1 0x60 DUP3 ADD MLOAD DUP2 PUSH1 0x3 ADD SSTORE POP POP CALLER PUSH1 0x2 PUSH0 DUP5 DUP2 MSTORE PUSH1 0x20 ADD SWAP1 DUP2 MSTORE PUSH1 0x20 ADD PUSH0 KECCAK256 PUSH0 PUSH2 0x100 EXP DUP2 SLOAD DUP2 PUSH20 0xFFFFFFFFFFFFFFFFFFFFFFFFFFFFFFFFFFFFFFFF MUL NOT AND SWAP1 DUP4 PUSH20 0xFFFFFFFFFFFFFFFFFFFFFFFFFFFFFFFFFFFFFFFF AND MUL OR SWAP1 SSTORE POP PUSH0 PUSH1 0x1 PUSH0 CALLER PUSH20 0xFFFFFFFFFFFFFFFFFFFFFFFFFFFFFFFFFFFFFFFF AND PUSH20 0xFFFFFFFFFFFFFFFFFFFFFFFFFFFFFFFFFFFFFFFF AND DUP2 MSTORE PUSH1 0x20 ADD SWAP1 DUP2 MSTORE PUSH1 0x20 ADD PUSH0 KECCAK256 PUSH0 ADD PUSH0 SWAP1 SLOAD SWAP1 PUSH2 0x100 EXP SWAP1 DIV PUSH20 0xFFFFFFFFFFFFFFFFFFFFFFFFFFFFFFFFFFFFFFFF AND SWAP1 POP PUSH0 JUMPDEST PUSH1 0x3 DUP2 PUSH1 0xFF AND LT ISZERO PUSH2 0xED3 JUMPI PUSH0 PUSH20 0xFFFFFFFFFFFFFFFFFFFFFFFFFFFFFFFFFFFFFFFF AND DUP3 PUSH20 0xFFFFFFFFFFFFFFFFFFFFFFFFFFFFFFFFFFFFFFFF AND SUB ISZERO PUSH2 0xED3 JUMPI PUSH0 PUSH1 0x64 PUSH1 0x3 DUP4 PUSH1 0xFF AND PUSH1 0x3 DUP2 LT PUSH2 0xD39 JUMPI PUSH2 0xD38 PUSH2 0x1A19 JUMP JUMPDEST JUMPDEST PUSH1 0x20 SWAP2 DUP3 DUP3 DIV ADD SWAP2 SWAP1 MOD SWAP1 SLOAD SWAP1 PUSH2 0x100 EXP SWAP1 DIV PUSH1 0xFF AND PUSH1 0xFF AND CALLVALUE PUSH2 0xD5D SWAP2 SWAP1 PUSH2 0x1B7E JUMP JUMPDEST PUSH2 0xD67 SWAP2 SWAP1 PUSH2 0x1BEC JUMP JUMPDEST SWAP1 POP DUP3 PUSH20 0xFFFFFFFFFFFFFFFFFFFFFFFFFFFFFFFFFFFFFFFF AND PUSH2 0x8FC DUP3 SWAP1 DUP2 ISZERO MUL SWAP1 PUSH1 0x40 MLOAD PUSH0 PUSH1 0x40 MLOAD DUP1 DUP4 SUB DUP2 DUP6 DUP9 DUP9 CALL SWAP4 POP POP POP POP ISZERO DUP1 ISZERO PUSH2 0xDAC JUMPI RETURNDATASIZE PUSH0 DUP1 RETURNDATACOPY RETURNDATASIZE PUSH0 REVERT JUMPDEST POP DUP1 PUSH1 0x8 PUSH0 DUP6 PUSH20 0xFFFFFFFFFFFFFFFFFFFFFFFFFFFFFFFFFFFFFFFF AND PUSH20 0xFFFFFFFFFFFFFFFFFFFFFFFFFFFFFFFFFFFFFFFF AND DUP2 MSTORE PUSH1 0x20 ADD SWAP1 DUP2 MSTORE PUSH1 0x20 ADD PUSH0 KECCAK256 PUSH0 DUP3 DUP3 SLOAD PUSH2 0xDF9 SWAP2 SWAP1 PUSH2 0x1C1C JUMP JUMPDEST SWAP3 POP POP DUP2 SWAP1 SSTORE POP PUSH0 DUP3 PUSH1 0xFF AND SUB PUSH2 0xE5E JUMPI DUP1 PUSH1 0x7 PUSH0 DUP6 PUSH20 0xFFFFFFFFFFFFFFFFFFFFFFFFFFFFFFFFFFFFFFFF AND PUSH20 0xFFFFFFFFFFFFFFFFFFFFFFFFFFFFFFFFFFFFFFFF AND DUP2 MSTORE PUSH1 0x20 ADD SWAP1 DUP2 MSTORE PUSH1 0x20 ADD PUSH0 KECCAK256 PUSH0 DUP3 DUP3 SLOAD PUSH2 0xE56 SWAP2 SWAP1 PUSH2 0x1C1C JUMP JUMPDEST SWAP3 POP POP DUP2 SWAP1 SSTORE POP JUMPDEST PUSH1 0x1 PUSH0 DUP5 PUSH20 0xFFFFFFFFFFFFFFFFFFFFFFFFFFFFFFFFFFFFFFFF AND PUSH20 0xFFFFFFFFFFFFFFFFFFFFFFFFFFFFFFFFFFFFFFFF AND DUP2 MSTORE PUSH1 0x20 ADD SWAP1 DUP2 MSTORE PUSH1 0x20 ADD PUSH0 KECCAK256 PUSH0 ADD PUSH0 SWAP1 SLOAD SWAP1 PUSH2 0x100 EXP SWAP1 DIV PUSH20 0xFFFFFFFFFFFFFFFFFFFFFFFFFFFFFFFFFFFFFFFF AND SWAP3 POP POP DUP1 DUP1 PUSH2 0xECB SWAP1 PUSH2 0x1C4F JUMP JUMPDEST SWAP2 POP POP PUSH2 0xCDF JUMP JUMPDEST POP DUP3 DUP5 CALLER PUSH20 0xFFFFFFFFFFFFFFFFFFFFFFFFFFFFFFFFFFFFFFFF AND PUSH32 0x9CFD25589D1EB8AD71E342A86A8524E83522E3936C0803048C08F6D9AD974F40 CALLVALUE DUP7 PUSH1 0x40 MLOAD PUSH2 0xF1E SWAP3 SWAP2 SWAP1 PUSH2 0x1C77 JUMP JUMPDEST PUSH1 0x40 MLOAD DUP1 SWAP2 SUB SWAP1 LOG4 POP POP POP POP JUMP JUMPDEST PUSH1 0x1 PUSH0 CALLER PUSH20 0xFFFFFFFFFFFFFFFFFFFFFFFFFFFFFFFFFFFFFFFF AND PUSH20 0xFFFFFFFFFFFFFFFFFFFFFFFFFFFFFFFFFFFFFFFF AND DUP2 MSTORE PUSH1 0x20 ADD SWAP1 DUP2 MSTORE PUSH1 0x20 ADD PUSH0 KECCAK256 PUSH0 ADD PUSH1 0x14 SWAP1 SLOAD SWAP1 PUSH2 0x100 EXP SWAP1 DIV PUSH1 0xFF AND ISZERO PUSH2 0xFB9 JUMPI PUSH1 0x40 MLOAD PUSH32 0x8C379A000000000000000000000000000000000000000000000000000000000 DUP2 MSTORE PUSH1 0x4 ADD PUSH2 0xFB0 SWAP1 PUSH2 0x1CE8 JUMP JUMPDEST PUSH1 0x40 MLOAD DUP1 SWAP2 SUB SWAP1 REVERT JUMPDEST CALLER PUSH20 0xFFFFFFFFFFFFFFFFFFFFFFFFFFFFFFFFFFFFFFFF AND DUP2 PUSH20 0xFFFFFFFFFFFFFFFFFFFFFFFFFFFFFFFFFFFFFFFF AND SUB PUSH2 0x1027 JUMPI PUSH1 0x40 MLOAD PUSH32 0x8C379A000000000000000000000000000000000000000000000000000000000 DUP2 MSTORE PUSH1 0x4 ADD PUSH2 0x101E SWAP1 PUSH2 0x1D50 JUMP JUMPDEST PUSH1 0x40 MLOAD DUP1 SWAP2 SUB SWAP1 REVERT JUMPDEST PUSH1 0x1 PUSH0 DUP3 PUSH20 0xFFFFFFFFFFFFFFFFFFFFFFFFFFFFFFFFFFFFFFFF AND PUSH20 0xFFFFFFFFFFFFFFFFFFFFFFFFFFFFFFFFFFFFFFFF AND DUP2 MSTORE PUSH1 0x20 ADD SWAP1 DUP2 MSTORE PUSH1 0x20 ADD PUSH0 KECCAK256 PUSH0 ADD PUSH1 0x14 SWAP1 SLOAD SWAP1 PUSH2 0x100 EXP SWAP1 DIV PUSH1 0xFF AND PUSH2 0x10B3 JUMPI PUSH1 0x40 MLOAD PUSH32 0x8C379A000000000000000000000000000000000000000000000000000000000 DUP2 MSTORE PUSH1 0x4 ADD PUSH2 0x10AA SWAP1 PUSH2 0x1DB8 JUMP JUMPDEST PUSH1 0x40 MLOAD DUP1 SWAP2 SUB SWAP1 REVERT JUMPDEST DUP1 PUSH1 0x1 PUSH0 CALLER PUSH20 0xFFFFFFFFFFFFFFFFFFFFFFFFFFFFFFFFFFFFFFFF AND PUSH20 0xFFFFFFFFFFFFFFFFFFFFFFFFFFFFFFFFFFFFFFFF AND DUP2 MSTORE PUSH1 0x20 ADD SWAP1 DUP2 MSTORE PUSH1 0x20 ADD PUSH0 KECCAK256 PUSH0 ADD PUSH0 PUSH2 0x100 EXP DUP2 SLOAD DUP2 PUSH20 0xFFFFFFFFFFFFFFFFFFFFFFFFFFFFFFFFFFFFFFFF MUL NOT AND SWAP1 DUP4 PUSH20 0xFFFFFFFFFFFFFFFFFFFFFFFFFFFFFFFFFFFFFFFF AND MUL OR SWAP1 SSTORE POP PUSH1 0x1 DUP1 PUSH0 CALLER PUSH20 0xFFFFFFFFFFFFFFFFFFFFFFFFFFFFFFFFFFFFFFFF AND PUSH20 0xFFFFFFFFFFFFFFFFFFFFFFFFFFFFFFFFFFFFFFFF AND DUP2 MSTORE PUSH1 0x20 ADD SWAP1 DUP2 MSTORE PUSH1 0x20 ADD PUSH0 KECCAK256 PUSH0 ADD PUSH1 0x14 PUSH2 0x100 EXP DUP2 SLOAD DUP2 PUSH1 0xFF MUL NOT AND SWAP1 DUP4 ISZERO ISZERO MUL OR SWAP1 SSTORE POP PUSH1 0x6 PUSH0 DUP3 PUSH20 0xFFFFFFFFFFFFFFFFFFFFFFFFFFFFFFFFFFFFFFFF AND PUSH20 0xFFFFFFFFFFFFFFFFFFFFFFFFFFFFFFFFFFFFFFFF AND DUP2 MSTORE PUSH1 0x20 ADD SWAP1 DUP2 MSTORE PUSH1 0x20 ADD PUSH0 KECCAK256 PUSH0 DUP2 SLOAD DUP1 SWAP3 SWAP2 SWAP1 PUSH2 0x11D4 SWAP1 PUSH2 0x19A5 JUMP JUMPDEST SWAP2 SWAP1 POP SSTORE POP DUP1 PUSH20 0xFFFFFFFFFFFFFFFFFFFFFFFFFFFFFFFFFFFFFFFF AND CALLER PUSH20 0xFFFFFFFFFFFFFFFFFFFFFFFFFFFFFFFFFFFFFFFF AND PUSH32 0xA31EE9D46A828884B81003C8498156EA6AA15B9B54BDD0EF0B533D9EBA57E55 PUSH1 0x40 MLOAD PUSH1 0x40 MLOAD DUP1 SWAP2 SUB SWAP1 LOG3 POP JUMP JUMPDEST PUSH1 0x4 SLOAD DUP2 JUMP JUMPDEST PUSH0 DUP1 PUSH0 DUP1 PUSH0 PUSH1 0x2 PUSH0 DUP8 DUP2 MSTORE PUSH1 0x20 ADD SWAP1 DUP2 MSTORE PUSH1 0x20 ADD PUSH0 KECCAK256 PUSH0 SWAP1 SLOAD SWAP1 PUSH2 0x100 EXP SWAP1 DIV PUSH20 0xFFFFFFFFFFFFFFFFFFFFFFFFFFFFFFFFFFFFFFFF AND SWAP1 POP PUSH0 PUSH20 0xFFFFFFFFFFFFFFFFFFFFFFFFFFFFFFFFFFFFFFFF AND DUP2 PUSH20 0xFFFFFFFFFFFFFFFFFFFFFFFFFFFFFFFFFFFFFFFF AND SUB PUSH2 0x12E2 JUMPI PUSH1 0x40 MLOAD PUSH32 0x8C379A000000000000000000000000000000000000000000000000000000000 DUP2 MSTORE PUSH1 0x4 ADD PUSH2 0x12D9 SWAP1 PUSH2 0x1E20 JUMP JUMPDEST PUSH1 0x40 MLOAD DUP1 SWAP2 SUB SWAP1 REVERT JUMPDEST PUSH0 PUSH1 0x1 PUSH0 DUP4 PUSH20 0xFFFFFFFFFFFFFFFFFFFFFFFFFFFFFFFFFFFFFFFF AND PUSH20 0xFFFFFFFFFFFFFFFFFFFFFFFFFFFFFFFFFFFFFFFF AND DUP2 MSTORE PUSH1 0x20 ADD SWAP1 DUP2 MSTORE PUSH1 0x20 ADD PUSH0 KECCAK256 PUSH1 0x1 ADD DUP1 SLOAD DUP1 PUSH1 0x20 MUL PUSH1 0x20 ADD PUSH1 0x40 MLOAD SWAP1 DUP2 ADD PUSH1 0x40 MSTORE DUP1 SWAP3 SWAP2 SWAP1 DUP2 DUP2 MSTORE PUSH1 0x20 ADD PUSH0 SWAP1 JUMPDEST DUP3 DUP3 LT ISZERO PUSH2 0x1399 JUMPI DUP4 DUP3 SWAP1 PUSH0 MSTORE PUSH1 0x20 PUSH0 KECCAK256 SWAP1 PUSH1 0x4 MUL ADD PUSH1 0x40 MLOAD DUP1 PUSH1 0x80 ADD PUSH1 0x40 MSTORE SWAP1 DUP2 PUSH0 DUP3 ADD SLOAD DUP2 MSTORE PUSH1 0x20 ADD PUSH1 0x1 DUP3 ADD SLOAD DUP2 MSTORE PUSH1 0x20 ADD PUSH1 0x2 DUP3 ADD SLOAD DUP2 MSTORE PUSH1 0x20 ADD PUSH1 0x3 DUP3 ADD SLOAD DUP2 MSTORE POP POP DUP2 MSTORE PUSH1 0x20 ADD SWAP1 PUSH1 0x1 ADD SWAP1 PUSH2 0x1342 JUMP JUMPDEST POP POP POP POP SWAP1 POP PUSH0 JUMPDEST DUP2 MLOAD DUP2 LT ISZERO PUSH2 0x1449 JUMPI DUP8 DUP3 DUP3 DUP2 MLOAD DUP2 LT PUSH2 0x13BE JUMPI PUSH2 0x13BD PUSH2 0x1A19 JUMP JUMPDEST JUMPDEST PUSH1 0x20 MUL PUSH1 0x20 ADD ADD MLOAD PUSH1 0x40 ADD MLOAD SUB PUSH2 0x143C JUMPI DUP3 DUP3 DUP3 DUP2 MLOAD DUP2 LT PUSH2 0x13E3 JUMPI PUSH2 0x13E2 PUSH2 0x1A19 JUMP JUMPDEST JUMPDEST PUSH1 0x20 MUL PUSH1 0x20 ADD ADD MLOAD PUSH0 ADD MLOAD DUP4 DUP4 DUP2 MLOAD DUP2 LT PUSH2 0x1401 JUMPI PUSH2 0x1400 PUSH2 0x1A19 JUMP JUMPDEST JUMPDEST PUSH1 0x20 MUL PUSH1 0x20 ADD ADD MLOAD PUSH1 0x20 ADD MLOAD DUP5 DUP5 DUP2 MLOAD DUP2 LT PUSH2 0x1420 JUMPI PUSH2 0x141F PUSH2 0x1A19 JUMP JUMPDEST JUMPDEST PUSH1 0x20 MUL PUSH1 0x20 ADD ADD MLOAD PUSH1 0x60 ADD MLOAD SWAP7 POP SWAP7 POP SWAP7 POP SWAP7 POP POP POP POP PUSH2 0x1485 JUMP JUMPDEST DUP1 DUP1 PUSH1 0x1 ADD SWAP2 POP POP PUSH2 0x13A1 JUMP JUMPDEST POP PUSH1 0x40 MLOAD PUSH32 0x8C379A000000000000000000000000000000000000000000000000000000000 DUP2 MSTORE PUSH1 0x4 ADD PUSH2 0x147C SWAP1 PUSH2 0x1EAE JUMP JUMPDEST PUSH1 0x40 MLOAD DUP1 SWAP2 SUB SWAP1 REVERT JUMPDEST SWAP2 SWAP4 POP SWAP2 SWAP4 JUMP JUMPDEST PUSH1 0x8 PUSH1 0x20 MSTORE DUP1 PUSH0 MSTORE PUSH1 0x40 PUSH0 KECCAK256 PUSH0 SWAP2 POP SWAP1 POP SLOAD DUP2 JUMP JUMPDEST PUSH1 0x5 SLOAD DUP2 JUMP JUMPDEST PUSH0 DUP1 SLOAD SWAP1 PUSH2 0x100 EXP SWAP1 DIV PUSH20 0xFFFFFFFFFFFFFFFFFFFFFFFFFFFFFFFFFFFFFFFF AND DUP2 JUMP JUMPDEST PUSH0 PUSH1 0x6 PUSH0 DUP4 PUSH20 0xFFFFFFFFFFFFFFFFFFFFFFFFFFFFFFFFFFFFFFFF AND PUSH20 0xFFFFFFFFFFFFFFFFFFFFFFFFFFFFFFFFFFFFFFFF AND DUP2 MSTORE PUSH1 0x20 ADD SWAP1 DUP2 MSTORE PUSH1 0x20 ADD PUSH0 KECCAK256 SLOAD SWAP1 POP SWAP2 SWAP1 POP JUMP JUMPDEST PUSH1 0x1 PUSH1 0x20 MSTORE DUP1 PUSH0 MSTORE PUSH1 0x40 PUSH0 KECCAK256 PUSH0 SWAP2 POP SWAP1 POP DUP1 PUSH0 ADD PUSH0 SWAP1 SLOAD SWAP1 PUSH2 0x100 EXP SWAP1 DIV PUSH20 0xFFFFFFFFFFFFFFFFFFFFFFFFFFFFFFFFFFFFFFFF AND SWAP1 DUP1 PUSH0 ADD PUSH1 0x14 SWAP1 SLOAD SWAP1 PUSH2 0x100 EXP SWAP1 DIV PUSH1 0xFF AND SWAP1 POP DUP3 JUMP JUMPDEST PUSH0 PUSH1 0x7 PUSH0 DUP4 PUSH20 0xFFFFFFFFFFFFFFFFFFFFFFFFFFFFFFFFFFFFFFFF AND PUSH20 0xFFFFFFFFFFFFFFFFFFFFFFFFFFFFFFFFFFFFFFFF AND DUP2 MSTORE PUSH1 0x20 ADD SWAP1 DUP2 MSTORE PUSH1 0x20 ADD PUSH0 KECCAK256 SLOAD SWAP1 POP SWAP2 SWAP1 POP JUMP JUMPDEST PUSH1 0x6 PUSH1 0x20 MSTORE DUP1 PUSH0 MSTORE PUSH1 0x40 PUSH0 KECCAK256 PUSH0 SWAP2 POP SWAP1 POP SLOAD DUP2 JUMP JUMPDEST PUSH0 PUSH1 0x8 PUSH0 DUP4 PUSH20 0xFFFFFFFFFFFFFFFFFFFFFFFFFFFFFFFFFFFFFFFF AND PUSH20 0xFFFFFFFFFFFFFFFFFFFFFFFFFFFFFFFFFFFFFFFF AND DUP2 MSTORE PUSH1 0x20 ADD SWAP1 DUP2 MSTORE PUSH1 0x20 ADD PUSH0 KECCAK256 SLOAD SWAP1 POP SWAP2 SWAP1 POP JUMP JUMPDEST PUSH1 0x3 DUP2 PUSH1 0x3 DUP2 LT PUSH2 0x160B JUMPI PUSH0 DUP1 REVERT JUMPDEST PUSH1 0x20 SWAP2 DUP3 DUP3 DIV ADD SWAP2 SWAP1 MOD SWAP2 POP SLOAD SWAP1 PUSH2 0x100 EXP SWAP1 DIV PUSH1 0xFF AND DUP2 JUMP JUMPDEST PUSH1 0x7 PUSH1 0x20 MSTORE DUP1 PUSH0 MSTORE PUSH1 0x40 PUSH0 KECCAK256 PUSH0 SWAP2 POP SWAP1 POP SLOAD DUP2 JUMP JUMPDEST PUSH0 DUP1 REVERT JUMPDEST PUSH0 DUP2 SWAP1 POP SWAP2 SWAP1 POP JUMP JUMPDEST PUSH2 0x1650 DUP2 PUSH2 0x163E JUMP JUMPDEST DUP2 EQ PUSH2 0x165A JUMPI PUSH0 DUP1 REVERT JUMPDEST POP JUMP JUMPDEST PUSH0 DUP2 CALLDATALOAD SWAP1 POP PUSH2 0x166B DUP2 PUSH2 0x1647 JUMP JUMPDEST SWAP3 SWAP2 POP POP JUMP JUMPDEST PUSH0 PUSH1 0x20 DUP3 DUP5 SUB SLT ISZERO PUSH2 0x1686 JUMPI PUSH2 0x1685 PUSH2 0x163A JUMP JUMPDEST JUMPDEST PUSH0 PUSH2 0x1693 DUP5 DUP3 DUP6 ADD PUSH2 0x165D JUMP JUMPDEST SWAP2 POP POP SWAP3 SWAP2 POP POP JUMP JUMPDEST PUSH0 PUSH20 0xFFFFFFFFFFFFFFFFFFFFFFFFFFFFFFFFFFFFFFFF DUP3 AND SWAP1 POP SWAP2 SWAP1 POP JUMP JUMPDEST PUSH0 PUSH2 0x16C5 DUP3 PUSH2 0x169C JUMP JUMPDEST SWAP1 POP SWAP2 SWAP1 POP JUMP JUMPDEST PUSH2 0x16D5 DUP2 PUSH2 0x16BB JUMP JUMPDEST DUP3 MSTORE POP POP JUMP JUMPDEST PUSH0 PUSH1 0x20 DUP3 ADD SWAP1 POP PUSH2 0x16EE PUSH0 DUP4 ADD DUP5 PUSH2 0x16CC JUMP JUMPDEST SWAP3 SWAP2 POP POP JUMP JUMPDEST PUSH2 0x16FD DUP2 PUSH2 0x16BB JUMP JUMPDEST DUP2 EQ PUSH2 0x1707 JUMPI PUSH0 DUP1 REVERT JUMPDEST POP JUMP JUMPDEST PUSH0 DUP2 CALLDATALOAD SWAP1 POP PUSH2 0x1718 DUP2 PUSH2 0x16F4 JUMP JUMPDEST SWAP3 SWAP2 POP POP JUMP JUMPDEST PUSH0 PUSH1 0x20 DUP3 DUP5 SUB SLT ISZERO PUSH2 0x1733 JUMPI PUSH2 0x1732 PUSH2 0x163A JUMP JUMPDEST JUMPDEST PUSH0 PUSH2 0x1740 DUP5 DUP3 DUP6 ADD PUSH2 0x170A JUMP JUMPDEST SWAP2 POP POP SWAP3 SWAP2 POP POP JUMP JUMPDEST PUSH2 0x1752 DUP2 PUSH2 0x163E JUMP JUMPDEST DUP3 MSTORE POP POP JUMP JUMPDEST PUSH0 PUSH1 0x20 DUP3 ADD SWAP1 POP PUSH2 0x176B PUSH0 DUP4 ADD DUP5 PUSH2 0x1749 JUMP JUMPDEST SWAP3 SWAP2 POP POP JUMP JUMPDEST PUSH0 DUP2 MLOAD SWAP1 POP SWAP2 SWAP1 POP JUMP JUMPDEST PUSH0 DUP3 DUP3 MSTORE PUSH1 0x20 DUP3 ADD SWAP1 POP SWAP3 SWAP2 POP POP JUMP JUMPDEST PUSH0 DUP2 SWAP1 POP PUSH1 0x20 DUP3 ADD SWAP1 POP SWAP2 SWAP1 POP JUMP JUMPDEST PUSH2 0x17A3 DUP2 PUSH2 0x163E JUMP JUMPDEST DUP3 MSTORE POP POP JUMP JUMPDEST PUSH0 PUSH2 0x17B4 DUP4 DUP4 PUSH2 0x179A JUMP JUMPDEST PUSH1 0x20 DUP4 ADD SWAP1 POP SWAP3 SWAP2 POP POP JUMP JUMPDEST PUSH0 PUSH1 0x20 DUP3 ADD SWAP1 POP SWAP2 SWAP1 POP JUMP JUMPDEST PUSH0 PUSH2 0x17D6 DUP3 PUSH2 0x1771 JUMP JUMPDEST PUSH2 0x17E0 DUP2 DUP6 PUSH2 0x177B JUMP JUMPDEST SWAP4 POP PUSH2 0x17EB DUP4 PUSH2 0x178B JUMP JUMPDEST DUP1 PUSH0 JUMPDEST DUP4 DUP2 LT ISZERO PUSH2 0x181B JUMPI DUP2 MLOAD PUSH2 0x1802 DUP9 DUP3 PUSH2 0x17A9 JUMP JUMPDEST SWAP8 POP PUSH2 0x180D DUP4 PUSH2 0x17C0 JUMP JUMPDEST SWAP3 POP POP PUSH1 0x1 DUP2 ADD SWAP1 POP PUSH2 0x17EE JUMP JUMPDEST POP DUP6 SWAP4 POP POP POP POP SWAP3 SWAP2 POP POP JUMP JUMPDEST PUSH0 PUSH1 0x20 DUP3 ADD SWAP1 POP DUP2 DUP2 SUB PUSH0 DUP4 ADD MSTORE PUSH2 0x1840 DUP2 DUP5 PUSH2 0x17CC JUMP JUMPDEST SWAP1 POP SWAP3 SWAP2 POP POP JUMP JUMPDEST PUSH0 PUSH1 0x80 DUP3 ADD SWAP1 POP PUSH2 0x185B PUSH0 DUP4 ADD DUP8 PUSH2 0x16CC JUMP JUMPDEST PUSH2 0x1868 PUSH1 0x20 DUP4 ADD DUP7 PUSH2 0x1749 JUMP JUMPDEST PUSH2 0x1875 PUSH1 0x40 DUP4 ADD DUP6 PUSH2 0x1749 JUMP JUMPDEST PUSH2 0x1882 PUSH1 0x60 DUP4 ADD DUP5 PUSH2 0x1749 JUMP JUMPDEST SWAP6 SWAP5 POP POP POP POP POP JUMP JUMPDEST PUSH0 DUP2 ISZERO ISZERO SWAP1 POP SWAP2 SWAP1 POP JUMP JUMPDEST PUSH2 0x189F DUP2 PUSH2 0x188B JUMP JUMPDEST DUP3 MSTORE POP POP JUMP JUMPDEST PUSH0 PUSH1 0x40 DUP3 ADD SWAP1 POP PUSH2 0x18B8 PUSH0 DUP4 ADD DUP6 PUSH2 0x16CC JUMP JUMPDEST PUSH2 0x18C5 PUSH1 0x20 DUP4 ADD DUP5 PUSH2 0x1896 JUMP JUMPDEST SWAP4 SWAP3 POP POP POP JUMP JUMPDEST PUSH0 PUSH1 0xFF DUP3 AND SWAP1 POP SWAP2 SWAP1 POP JUMP JUMPDEST PUSH2 0x18E1 DUP2 PUSH2 0x18CC JUMP JUMPDEST DUP3 MSTORE POP POP JUMP JUMPDEST PUSH0 PUSH1 0x20 DUP3 ADD SWAP1 POP PUSH2 0x18FA PUSH0 DUP4 ADD DUP5 PUSH2 0x18D8 JUMP JUMPDEST SWAP3 SWAP2 POP POP JUMP JUMPDEST PUSH0 DUP3 DUP3 MSTORE PUSH1 0x20 DUP3 ADD SWAP1 POP SWAP3 SWAP2 POP POP JUMP JUMPDEST PUSH32 0x55736572206E6F74207265676973746572656400000000000000000000000000 PUSH0 DUP3 ADD MSTORE POP JUMP JUMPDEST PUSH0 PUSH2 0x1944 PUSH1 0x13 DUP4 PUSH2 0x1900 JUMP JUMPDEST SWAP2 POP PUSH2 0x194F DUP3 PUSH2 0x1910 JUMP JUMPDEST PUSH1 0x20 DUP3 ADD SWAP1 POP SWAP2 SWAP1 POP JUMP JUMPDEST PUSH0 PUSH1 0x20 DUP3 ADD SWAP1 POP DUP2 DUP2 SUB PUSH0 DUP4 ADD MSTORE PUSH2 0x1971 DUP2 PUSH2 0x1938 JUMP JUMPDEST SWAP1 POP SWAP2 SWAP1 POP JUMP JUMPDEST PUSH32 0x4E487B7100000000000000000000000000000000000000000000000000000000 PUSH0 MSTORE PUSH1 0x11 PUSH1 0x4 MSTORE PUSH1 0x24 PUSH0 REVERT JUMPDEST PUSH0 PUSH2 0x19AF DUP3 PUSH2 0x163E JUMP JUMPDEST SWAP2 POP PUSH32 0xFFFFFFFFFFFFFFFFFFFFFFFFFFFFFFFFFFFFFFFFFFFFFFFFFFFFFFFFFFFFFFFF DUP3 SUB PUSH2 0x19E1 JUMPI PUSH2 0x19E0 PUSH2 0x1978 JUMP JUMPDEST JUMPDEST PUSH1 0x1 DUP3 ADD SWAP1 POP SWAP2 SWAP1 POP JUMP JUMPDEST PUSH32 0x4E487B7100000000000000000000000000000000000000000000000000000000 PUSH0 MSTORE PUSH1 0x41 PUSH1 0x4 MSTORE PUSH1 0x24 PUSH0 REVERT JUMPDEST PUSH32 0x4E487B7100000000000000000000000000000000000000000000000000000000 PUSH0 MSTORE PUSH1 0x32 PUSH1 0x4 MSTORE PUSH1 0x24 PUSH0 REVERT JUMPDEST PUSH32 0x4F6E6C79206F776E65722063616E207769746864726177000000000000000000 PUSH0 DUP3 ADD MSTORE POP JUMP JUMPDEST PUSH0 PUSH2 0x1A7A PUSH1 0x17 DUP4 PUSH2 0x1900 JUMP JUMPDEST SWAP2 POP PUSH2 0x1A85 DUP3 PUSH2 0x1A46 JUMP JUMPDEST PUSH1 0x20 DUP3 ADD SWAP1 POP SWAP2 SWAP1 POP JUMP JUMPDEST PUSH0 PUSH1 0x20 DUP3 ADD SWAP1 POP DUP2 DUP2 SUB PUSH0 DUP4 ADD MSTORE PUSH2 0x1AA7 DUP2 PUSH2 0x1A6E JUMP JUMPDEST SWAP1 POP SWAP2 SWAP1 POP JUMP JUMPDEST PUSH32 0x496E73756666696369656E7420636F6E74726163742062616C616E6365000000 PUSH0 DUP3 ADD MSTORE POP JUMP JUMPDEST PUSH0 PUSH2 0x1AE2 PUSH1 0x1D DUP4 PUSH2 0x1900 JUMP JUMPDEST SWAP2 POP PUSH2 0x1AED DUP3 PUSH2 0x1AAE JUMP JUMPDEST PUSH1 0x20 DUP3 ADD SWAP1 POP SWAP2 SWAP1 POP JUMP JUMPDEST PUSH0 PUSH1 0x20 DUP3 ADD SWAP1 POP DUP2 DUP2 SUB PUSH0 DUP4 ADD MSTORE PUSH2 0x1B0F DUP2 PUSH2 0x1AD6 JUMP JUMPDEST SWAP1 POP SWAP2 SWAP1 POP JUMP JUMPDEST PUSH32 0x416D6F756E74206D7573742062652067726561746572207468616E2030000000 PUSH0 DUP3 ADD MSTORE POP JUMP JUMPDEST PUSH0 PUSH2 0x1B4A PUSH1 0x1D DUP4 PUSH2 0x1900 JUMP JUMPDEST SWAP2 POP PUSH2 0x1B55 DUP3 PUSH2 0x1B16 JUMP JUMPDEST PUSH1 0x20 DUP3 ADD SWAP1 POP SWAP2 SWAP1 POP JUMP JUMPDEST PUSH0 PUSH1 0x20 DUP3 ADD SWAP1 POP DUP2 DUP2 SUB PUSH0 DUP4 ADD MSTORE PUSH2 0x1B77 DUP2 PUSH2 0x1B3E JUMP JUMPDEST SWAP1 POP SWAP2 SWAP1 POP JUMP JUMPDEST PUSH0 PUSH2 0x1B88 DUP3 PUSH2 0x163E JUMP JUMPDEST SWAP2 POP PUSH2 0x1B93 DUP4 PUSH2 0x163E JUMP JUMPDEST SWAP3 POP DUP3 DUP3 MUL PUSH2 0x1BA1 DUP2 PUSH2 0x163E JUMP JUMPDEST SWAP2 POP DUP3 DUP3 DIV DUP5 EQ DUP4 ISZERO OR PUSH2 0x1BB8 JUMPI PUSH2 0x1BB7 PUSH2 0x1978 JUMP JUMPDEST JUMPDEST POP SWAP3 SWAP2 POP POP JUMP JUMPDEST PUSH32 0x4E487B7100000000000000000000000000000000000000000000000000000000 PUSH0 MSTORE PUSH1 0x12 PUSH1 0x4 MSTORE PUSH1 0x24 PUSH0 REVERT JUMPDEST PUSH0 PUSH2 0x1BF6 DUP3 PUSH2 0x163E JUMP JUMPDEST SWAP2 POP PUSH2 0x1C01 DUP4 PUSH2 0x163E JUMP JUMPDEST SWAP3 POP DUP3 PUSH2 0x1C11 JUMPI PUSH2 0x1C10 PUSH2 0x1BBF JUMP JUMPDEST JUMPDEST DUP3 DUP3 DIV SWAP1 POP SWAP3 SWAP2 POP POP JUMP JUMPDEST PUSH0 PUSH2 0x1C26 DUP3 PUSH2 0x163E JUMP JUMPDEST SWAP2 POP PUSH2 0x1C31 DUP4 PUSH2 0x163E JUMP JUMPDEST SWAP3 POP DUP3 DUP3 ADD SWAP1 POP DUP1 DUP3 GT ISZERO PUSH2 0x1C49 JUMPI PUSH2 0x1C48 PUSH2 0x1978 JUMP JUMPDEST JUMPDEST SWAP3 SWAP2 POP POP JUMP JUMPDEST PUSH0 PUSH2 0x1C59 DUP3 PUSH2 0x18CC JUMP JUMPDEST SWAP2 POP PUSH1 0xFF DUP3 SUB PUSH2 0x1C6C JUMPI PUSH2 0x1C6B PUSH2 0x1978 JUMP JUMPDEST JUMPDEST PUSH1 0x1 DUP3 ADD SWAP1 POP SWAP2 SWAP1 POP JUMP JUMPDEST PUSH0 PUSH1 0x40 DUP3 ADD SWAP1 POP PUSH2 0x1C8A PUSH0 DUP4 ADD DUP6 PUSH2 0x1749 JUMP JUMPDEST PUSH2 0x1C97 PUSH1 0x20 DUP4 ADD DUP5 PUSH2 0x1749 JUMP JUMPDEST SWAP4 SWAP3 POP POP POP JUMP JUMPDEST PUSH32 0x416C726561647920726567697374657265640000000000000000000000000000 PUSH0 DUP3 ADD MSTORE POP JUMP JUMPDEST PUSH0 PUSH2 0x1CD2 PUSH1 0x12 DUP4 PUSH2 0x1900 JUMP JUMPDEST SWAP2 POP PUSH2 0x1CDD DUP3 PUSH2 0x1C9E JUMP JUMPDEST PUSH1 0x20 DUP3 ADD SWAP1 POP SWAP2 SWAP1 POP JUMP JUMPDEST PUSH0 PUSH1 0x20 DUP3 ADD SWAP1 POP DUP2 DUP2 SUB PUSH0 DUP4 ADD MSTORE PUSH2 0x1CFF DUP2 PUSH2 0x1CC6 JUMP JUMPDEST SWAP1 POP SWAP2 SWAP1 POP JUMP JUMPDEST PUSH32 0x43616E6E6F7420726566657220796F757273656C660000000000000000000000 PUSH0 DUP3 ADD MSTORE POP JUMP JUMPDEST PUSH0 PUSH2 0x1D3A PUSH1 0x15 DUP4 PUSH2 0x1900 JUMP JUMPDEST SWAP2 POP PUSH2 0x1D45 DUP3 PUSH2 0x1D06 JUMP JUMPDEST PUSH1 0x20 DUP3 ADD SWAP1 POP SWAP2 SWAP1 POP JUMP JUMPDEST PUSH0 PUSH1 0x20 DUP3 ADD SWAP1 POP DUP2 DUP2 SUB PUSH0 DUP4 ADD MSTORE PUSH2 0x1D67 DUP2 PUSH2 0x1D2E JUMP JUMPDEST SWAP1 POP SWAP2 SWAP1 POP JUMP JUMPDEST PUSH32 0x5265666572726572206E6F742072656769737465726564000000000000000000 PUSH0 DUP3 ADD MSTORE POP JUMP JUMPDEST PUSH0 PUSH2 0x1DA2 PUSH1 0x17 DUP4 PUSH2 0x1900 JUMP JUMPDEST SWAP2 POP PUSH2 0x1DAD DUP3 PUSH2 0x1D6E JUMP JUMPDEST PUSH1 0x20 DUP3 ADD SWAP1 POP SWAP2 SWAP1 POP JUMP JUMPDEST PUSH0 PUSH1 0x20 DUP3 ADD SWAP1 POP DUP2 DUP2 SUB PUSH0 DUP4 ADD MSTORE PUSH2 0x1DCF DUP2 PUSH2 0x1D96 JUMP JUMPDEST SWAP1 POP SWAP2 SWAP1 POP JUMP JUMPDEST PUSH32 0x496E76616C696420706F736974696F6E49640000000000000000000000000000 PUSH0 DUP3 ADD MSTORE POP JUMP JUMPDEST PUSH0 PUSH2 0x1E0A PUSH1 0x12 DUP4 PUSH2 0x1900 JUMP JUMPDEST SWAP2 POP PUSH2 0x1E15 DUP3 PUSH2 0x1DD6 JUMP JUMPDEST PUSH1 0x20 DUP3 ADD SWAP1 POP SWAP2 SWAP1 POP JUMP JUMPDEST PUSH0 PUSH1 0x20 DUP3 ADD SWAP1 POP DUP2 DUP2 SUB PUSH0 DUP4 ADD MSTORE PUSH2 0x1E37 DUP2 PUSH2 0x1DFE JUMP JUMPDEST SWAP1 POP SWAP2 SWAP1 POP JUMP JUMPDEST PUSH32 0x5374616B65206E6F7420666F756E6420666F7220676976656E20706F73697469 PUSH0 DUP3 ADD MSTORE PUSH32 0x6F6E496400000000000000000000000000000000000000000000000000000000 PUSH1 0x20 DUP3 ADD MSTORE POP JUMP JUMPDEST PUSH0 PUSH2 0x1E98 PUSH1 0x24 DUP4 PUSH2 0x1900 JUMP JUMPDEST SWAP2 POP PUSH2 0x1EA3 DUP3 PUSH2 0x1E3E JUMP JUMPDEST PUSH1 0x40 DUP3 ADD SWAP1 POP SWAP2 SWAP1 POP JUMP JUMPDEST PUSH0 PUSH1 0x20 DUP3 ADD SWAP1 POP DUP2 DUP2 SUB PUSH0 DUP4 ADD MSTORE PUSH2 0x1EC5 DUP2 PUSH2 0x1E8C JUMP JUMPDEST SWAP1 POP SWAP2 SWAP1 POP JUMP INVALID LOG2 PUSH5 0x6970667358 0x22 SLT KECCAK256 JUMPDEST ORIGIN MSTORE 0x21 0xD1 SWAP3 EXTCODECOPY ORIGIN 0xFB 0xC6 0xAD SWAP8 0xB7 REVERT DUP12 PUSH5 0x341B5E1795 EXTCODESIZE PUSH23 0xFC96D80A7CA3CF8F7D64736F6C63430008190033000000 "
				},
				"gasEstimates": {
					"creation": {
						"codeDepositCost": "1587600",
						"executionCost": "infinite",
						"totalCost": "infinite"
					},
					"external": {
						"directReferralCount(address)": "2846",
						"directReferralIncome(address)": "2912",
						"getDirectReferralCount(address)": "2896",
						"getDirectReferralIncome(address)": "2851",
						"getPositionIds(address)": "infinite",
						"getStakeByPositionId(uint256)": "infinite",
						"getTotalIncome(address)": "2895",
						"getUserLevel(address)": "infinite",
						"levelRewards(uint256)": "4467",
						"nextPositionId()": "2448",
						"nextStakeId()": "2492",
						"owner()": "2550",
						"positionIdToUser(uint256)": "2851",
						"register(address)": "79875",
						"stake()": "infinite",
						"totalIncome(address)": "2913",
						"users(address)": "infinite",
						"withdraw(uint256)": "infinite"
					}
				},
				"methodIdentifiers": {
					"directReferralCount(address)": "b77b7dc9",
					"directReferralIncome(address)": "f6e88873",
					"getDirectReferralCount(address)": "98278efb",
					"getDirectReferralIncome(address)": "aa7ed462",
					"getPositionIds(address)": "28fe7031",
					"getStakeByPositionId(uint256)": "797c7f5f",
					"getTotalIncome(address)": "c2d3c677",
					"getUserLevel(address)": "21923bde",
					"levelRewards(uint256)": "e45a57d0",
					"nextPositionId()": "899346c7",
					"nextStakeId()": "75506c96",
					"owner()": "8da5cb5b",
					"positionIdToUser(uint256)": "1e43eb27",
					"register(address)": "4420e486",
					"stake()": "3a4b66f1",
					"totalIncome(address)": "862ba05f",
					"users(address)": "a87430ba",
					"withdraw(uint256)": "2e1a7d4d"
				}
			},
			"storageLayout": {
				"storage": [
					{
						"astId": 3,
						"contract": "contracts/mlm.sol:MLMStaking",
						"label": "owner",
						"offset": 0,
						"slot": "0",
						"type": "t_address"
					},
					{
						"astId": 26,
						"contract": "contracts/mlm.sol:MLMStaking",
						"label": "users",
						"offset": 0,
						"slot": "1",
						"type": "t_mapping(t_address,t_struct(User)21_storage)"
					},
					{
						"astId": 30,
						"contract": "contracts/mlm.sol:MLMStaking",
						"label": "positionIdToUser",
						"offset": 0,
						"slot": "2",
						"type": "t_mapping(t_uint256,t_address)"
					},
					{
						"astId": 38,
						"contract": "contracts/mlm.sol:MLMStaking",
						"label": "levelRewards",
						"offset": 0,
						"slot": "3",
						"type": "t_array(t_uint8)3_storage"
					},
					{
						"astId": 40,
						"contract": "contracts/mlm.sol:MLMStaking",
						"label": "nextStakeId",
						"offset": 0,
						"slot": "4",
						"type": "t_uint256"
					},
					{
						"astId": 42,
						"contract": "contracts/mlm.sol:MLMStaking",
						"label": "nextPositionId",
						"offset": 0,
						"slot": "5",
						"type": "t_uint256"
					},
					{
						"astId": 46,
						"contract": "contracts/mlm.sol:MLMStaking",
						"label": "directReferralCount",
						"offset": 0,
						"slot": "6",
						"type": "t_mapping(t_address,t_uint256)"
					},
					{
						"astId": 50,
						"contract": "contracts/mlm.sol:MLMStaking",
						"label": "directReferralIncome",
						"offset": 0,
						"slot": "7",
						"type": "t_mapping(t_address,t_uint256)"
					},
					{
						"astId": 54,
						"contract": "contracts/mlm.sol:MLMStaking",
						"label": "totalIncome",
						"offset": 0,
						"slot": "8",
						"type": "t_mapping(t_address,t_uint256)"
					}
				],
				"types": {
					"t_address": {
						"encoding": "inplace",
						"label": "address",
						"numberOfBytes": "20"
					},
					"t_array(t_struct(Stake)12_storage)dyn_storage": {
						"base": "t_struct(Stake)12_storage",
						"encoding": "dynamic_array",
						"label": "struct MLMStaking.Stake[]",
						"numberOfBytes": "32"
					},
					"t_array(t_uint8)3_storage": {
						"base": "t_uint8",
						"encoding": "inplace",
						"label": "uint8[3]",
						"numberOfBytes": "32"
					},
					"t_bool": {
						"encoding": "inplace",
						"label": "bool",
						"numberOfBytes": "1"
					},
					"t_mapping(t_address,t_struct(User)21_storage)": {
						"encoding": "mapping",
						"key": "t_address",
						"label": "mapping(address => struct MLMStaking.User)",
						"numberOfBytes": "32",
						"value": "t_struct(User)21_storage"
					},
					"t_mapping(t_address,t_uint256)": {
						"encoding": "mapping",
						"key": "t_address",
						"label": "mapping(address => uint256)",
						"numberOfBytes": "32",
						"value": "t_uint256"
					},
					"t_mapping(t_uint256,t_address)": {
						"encoding": "mapping",
						"key": "t_uint256",
						"label": "mapping(uint256 => address)",
						"numberOfBytes": "32",
						"value": "t_address"
					},
					"t_struct(Stake)12_storage": {
						"encoding": "inplace",
						"label": "struct MLMStaking.Stake",
						"members": [
							{
								"astId": 5,
								"contract": "contracts/mlm.sol:MLMStaking",
								"label": "stakeId",
								"offset": 0,
								"slot": "0",
								"type": "t_uint256"
							},
							{
								"astId": 7,
								"contract": "contracts/mlm.sol:MLMStaking",
								"label": "amount",
								"offset": 0,
								"slot": "1",
								"type": "t_uint256"
							},
							{
								"astId": 9,
								"contract": "contracts/mlm.sol:MLMStaking",
								"label": "positionId",
								"offset": 0,
								"slot": "2",
								"type": "t_uint256"
							},
							{
								"astId": 11,
								"contract": "contracts/mlm.sol:MLMStaking",
								"label": "timestamp",
								"offset": 0,
								"slot": "3",
								"type": "t_uint256"
							}
						],
						"numberOfBytes": "128"
					},
					"t_struct(User)21_storage": {
						"encoding": "inplace",
						"label": "struct MLMStaking.User",
						"members": [
							{
								"astId": 14,
								"contract": "contracts/mlm.sol:MLMStaking",
								"label": "referrer",
								"offset": 0,
								"slot": "0",
								"type": "t_address"
							},
							{
								"astId": 16,
								"contract": "contracts/mlm.sol:MLMStaking",
								"label": "registered",
								"offset": 20,
								"slot": "0",
								"type": "t_bool"
							},
							{
								"astId": 20,
								"contract": "contracts/mlm.sol:MLMStaking",
								"label": "stakes",
								"offset": 0,
								"slot": "1",
								"type": "t_array(t_struct(Stake)12_storage)dyn_storage"
							}
						],
						"numberOfBytes": "64"
					},
					"t_uint256": {
						"encoding": "inplace",
						"label": "uint256",
						"numberOfBytes": "32"
					},
					"t_uint8": {
						"encoding": "inplace",
						"label": "uint8",
						"numberOfBytes": "1"
					}
				}
			},
			"userdoc": {
				"kind": "user",
				"methods": {},
				"version": 1
			}
		}
	}
}