{
	"contracts/1_Storage.sol": {
		"SikkaStakingDecentralize": {
			"abi": [
				{
					"inputs": [
						{
							"internalType": "address",
							"name": "_usdtToken",
							"type": "address"
						}
					],
					"stateMutability": "nonpayable",
					"type": "constructor"
				},
				{
					"anonymous": false,
					"inputs": [
						{
							"indexed": true,
							"internalType": "address",
							"name": "user",
							"type": "address"
						},
						{
							"indexed": false,
							"internalType": "uint256",
							"name": "stakeId",
							"type": "uint256"
						},
						{
							"indexed": false,
							"internalType": "uint256",
							"name": "amount",
							"type": "uint256"
						},
						{
							"indexed": false,
							"internalType": "uint256",
							"name": "reward",
							"type": "uint256"
						}
					],
					"name": "Claimed",
					"type": "event"
				},
				{
					"inputs": [
						{
							"internalType": "uint256",
							"name": "",
							"type": "uint256"
						}
					],
					"name": "allUsers",
					"outputs": [
						{
							"internalType": "address",
							"name": "",
							"type": "address"
						}
					],
					"stateMutability": "view",
					"type": "function"
				},
				{
					"inputs": [
						{
							"internalType": "address",
							"name": "",
							"type": "address"
						}
					],
					"name": "directReferralIncome",
					"outputs": [
						{
							"internalType": "uint256",
							"name": "",
							"type": "uint256"
						}
					],
					"stateMutability": "view",
					"type": "function"
				},
				{
					"inputs": [
						{
							"internalType": "address",
							"name": "",
							"type": "address"
						},
						{
							"internalType": "uint256",
							"name": "",
							"type": "uint256"
						}
					],
					"name": "directReferrals",
					"outputs": [
						{
							"internalType": "address",
							"name": "referralAddress",
							"type": "address"
						},
						{
							"internalType": "uint256",
							"name": "incomeEarned",
							"type": "uint256"
						},
						{
							"internalType": "uint256",
							"name": "timestamp",
							"type": "uint256"
						}
					],
					"stateMutability": "view",
					"type": "function"
				},
				{
					"inputs": [
						{
							"internalType": "address",
							"name": "user",
							"type": "address"
						}
					],
					"name": "getDirectReferralIncomeData",
					"outputs": [
						{
							"components": [
								{
									"internalType": "address",
									"name": "referralAddress",
									"type": "address"
								},
								{
									"internalType": "uint256",
									"name": "incomeEarned",
									"type": "uint256"
								},
								{
									"internalType": "uint256",
									"name": "timestamp",
									"type": "uint256"
								}
							],
							"internalType": "struct SikkaStakingDecentralize.ReferralIncomeView[]",
							"name": "",
							"type": "tuple[]"
						}
					],
					"stateMutability": "view",
					"type": "function"
				},
				{
					"inputs": [
						{
							"internalType": "uint256",
							"name": "",
							"type": "uint256"
						}
					],
					"name": "levelRewards",
					"outputs": [
						{
							"internalType": "uint8",
							"name": "",
							"type": "uint8"
						}
					],
					"stateMutability": "view",
					"type": "function"
				},
				{
					"inputs": [],
					"name": "owner",
					"outputs": [
						{
							"internalType": "address",
							"name": "",
							"type": "address"
						}
					],
					"stateMutability": "view",
					"type": "function"
				},
				{
					"inputs": [
						{
							"internalType": "uint256",
							"name": "",
							"type": "uint256"
						}
					],
					"name": "positionIdToUser",
					"outputs": [
						{
							"internalType": "address",
							"name": "",
							"type": "address"
						}
					],
					"stateMutability": "view",
					"type": "function"
				},
				{
					"inputs": [
						{
							"internalType": "address",
							"name": "referrer",
							"type": "address"
						}
					],
					"name": "register",
					"outputs": [],
					"stateMutability": "nonpayable",
					"type": "function"
				},
				{
					"inputs": [
						{
							"internalType": "uint256",
							"name": "numDays",
							"type": "uint256"
						},
						{
							"internalType": "uint256",
							"name": "amount",
							"type": "uint256"
						}
					],
					"name": "stake",
					"outputs": [],
					"stateMutability": "nonpayable",
					"type": "function"
				},
				{
					"inputs": [],
					"name": "stakeCounter",
					"outputs": [
						{
							"internalType": "uint256",
							"name": "",
							"type": "uint256"
						}
					],
					"stateMutability": "view",
					"type": "function"
				},
				{
					"inputs": [
						{
							"internalType": "uint256",
							"name": "",
							"type": "uint256"
						}
					],
					"name": "stakingAPY",
					"outputs": [
						{
							"internalType": "uint256",
							"name": "",
							"type": "uint256"
						}
					],
					"stateMutability": "view",
					"type": "function"
				},
				{
					"inputs": [],
					"name": "usdtToken",
					"outputs": [
						{
							"internalType": "contract IERC20",
							"name": "",
							"type": "address"
						}
					],
					"stateMutability": "view",
					"type": "function"
				},
				{
					"inputs": [
						{
							"internalType": "address",
							"name": "",
							"type": "address"
						}
					],
					"name": "users",
					"outputs": [
						{
							"internalType": "address",
							"name": "referrer",
							"type": "address"
						},
						{
							"internalType": "uint256",
							"name": "totalIncome",
							"type": "uint256"
						},
						{
							"internalType": "uint256",
							"name": "levelIncome",
							"type": "uint256"
						},
						{
							"internalType": "bool",
							"name": "registered",
							"type": "bool"
						}
					],
					"stateMutability": "view",
					"type": "function"
				}
			],
			"devdoc": {
				"kind": "dev",
				"methods": {},
				"version": 1
			},
			"evm": {
				"assembly": "    /* \"contracts/1_Storage.sol\":382:6692  contract SikkaStakingDecentralize {... */\n  mstore(0x40, 0x80)\n    /* \"contracts/1_Storage.sol\":1731:1777  uint8[5] public levelRewards = [5, 3, 2, 1, 1] */\n  mload(0x40)\n  dup1\n  0xa0\n  add\n  0x40\n  mstore\n  dup1\n    /* \"contracts/1_Storage.sol\":1763:1764  5 */\n  0x05\n    /* \"contracts/1_Storage.sol\":1731:1777  uint8[5] public levelRewards = [5, 3, 2, 1, 1] */\n  0xff\n  and\n  dup2\n  mstore\n  0x20\n  add\n    /* \"contracts/1_Storage.sol\":1766:1767  3 */\n  0x03\n    /* \"contracts/1_Storage.sol\":1731:1777  uint8[5] public levelRewards = [5, 3, 2, 1, 1] */\n  0xff\n  and\n  dup2\n  mstore\n  0x20\n  add\n    /* \"contracts/1_Storage.sol\":1769:1770  2 */\n  0x02\n    /* \"contracts/1_Storage.sol\":1731:1777  uint8[5] public levelRewards = [5, 3, 2, 1, 1] */\n  0xff\n  and\n  dup2\n  mstore\n  0x20\n  add\n    /* \"contracts/1_Storage.sol\":1772:1773  1 */\n  0x01\n    /* \"contracts/1_Storage.sol\":1731:1777  uint8[5] public levelRewards = [5, 3, 2, 1, 1] */\n  0xff\n  and\n  dup2\n  mstore\n  0x20\n  add\n    /* \"contracts/1_Storage.sol\":1775:1776  1 */\n  0x01\n    /* \"contracts/1_Storage.sol\":1731:1777  uint8[5] public levelRewards = [5, 3, 2, 1, 1] */\n  0xff\n  and\n  dup2\n  mstore\n  pop\n  0x09\n  swap1\n  0x05\n  tag_1\n  swap3\n  swap2\n  swap1\n  tag_2\n  jump\t// in\ntag_1:\n  pop\n    /* \"contracts/1_Storage.sol\":511:831  constructor(address _usdtToken) {... */\n  callvalue\n  dup1\n  iszero\n  tag_3\n  jumpi\n  0x00\n  dup1\n  revert\ntag_3:\n  pop\n  mload(0x40)\n  sub(codesize, bytecodeSize)\n  dup1\n  bytecodeSize\n  dup4\n  codecopy\n  dup2\n  dup2\n  add\n  0x40\n  mstore\n  dup2\n  add\n  swap1\n  tag_4\n  swap2\n  swap1\n  tag_5\n  jump\t// in\ntag_4:\n    /* \"contracts/1_Storage.sol\":561:571  msg.sender */\n  caller\n    /* \"contracts/1_Storage.sol\":553:558  owner */\n  0x00\n  dup1\n    /* \"contracts/1_Storage.sol\":553:571  owner = msg.sender */\n  0x0100\n  exp\n  dup2\n  sload\n  dup2\n  0xffffffffffffffffffffffffffffffffffffffff\n  mul\n  not\n  and\n  swap1\n  dup4\n  0xffffffffffffffffffffffffffffffffffffffff\n  and\n  mul\n  or\n  swap1\n  sstore\n  pop\n    /* \"contracts/1_Storage.sol\":600:610  _usdtToken */\n  dup1\n    /* \"contracts/1_Storage.sol\":581:590  usdtToken */\n  0x02\n  0x00\n    /* \"contracts/1_Storage.sol\":581:611  usdtToken = IERC20(_usdtToken) */\n  0x0100\n  exp\n  dup2\n  sload\n  dup2\n  0xffffffffffffffffffffffffffffffffffffffff\n  mul\n  not\n  and\n  swap1\n  dup4\n  0xffffffffffffffffffffffffffffffffffffffff\n  and\n  mul\n  or\n  swap1\n  sstore\n  pop\n    /* \"contracts/1_Storage.sol\":647:651  true */\n  0x01\n    /* \"contracts/1_Storage.sol\":621:626  users */\n  0x03\n    /* \"contracts/1_Storage.sol\":621:633  users[owner] */\n  0x00\n    /* \"contracts/1_Storage.sol\":627:632  owner */\n  dup1\n  0x00\n  swap1\n  sload\n  swap1\n  0x0100\n  exp\n  swap1\n  div\n  0xffffffffffffffffffffffffffffffffffffffff\n  and\n    /* \"contracts/1_Storage.sol\":621:633  users[owner] */\n  0xffffffffffffffffffffffffffffffffffffffff\n  and\n  0xffffffffffffffffffffffffffffffffffffffff\n  and\n  dup2\n  mstore\n  0x20\n  add\n  swap1\n  dup2\n  mstore\n  0x20\n  add\n  0x00\n  keccak256\n    /* \"contracts/1_Storage.sol\":621:644  users[owner].registered */\n  0x04\n  add\n  0x00\n    /* \"contracts/1_Storage.sol\":621:651  users[owner].registered = true */\n  0x0100\n  exp\n  dup2\n  sload\n  dup2\n  0xff\n  mul\n  not\n  and\n  swap1\n  dup4\n  iszero\n  iszero\n  mul\n  or\n  swap1\n  sstore\n  pop\n    /* \"contracts/1_Storage.sol\":679:680  1 */\n  0x01\n    /* \"contracts/1_Storage.sol\":662:672  stakingAPY */\n  0x06\n    /* \"contracts/1_Storage.sol\":662:676  stakingAPY[30] */\n  0x00\n    /* \"contracts/1_Storage.sol\":673:675  30 */\n  0x1e\n    /* \"contracts/1_Storage.sol\":662:676  stakingAPY[30] */\n  dup2\n  mstore\n  0x20\n  add\n  swap1\n  dup2\n  mstore\n  0x20\n  add\n  0x00\n  keccak256\n    /* \"contracts/1_Storage.sol\":662:680  stakingAPY[30] = 1 */\n  dup2\n  swap1\n  sstore\n  pop\n    /* \"contracts/1_Storage.sol\":707:708  2 */\n  0x02\n    /* \"contracts/1_Storage.sol\":690:700  stakingAPY */\n  0x06\n    /* \"contracts/1_Storage.sol\":690:704  stakingAPY[60] */\n  0x00\n    /* \"contracts/1_Storage.sol\":701:703  60 */\n  0x3c\n    /* \"contracts/1_Storage.sol\":690:704  stakingAPY[60] */\n  dup2\n  mstore\n  0x20\n  add\n  swap1\n  dup2\n  mstore\n  0x20\n  add\n  0x00\n  keccak256\n    /* \"contracts/1_Storage.sol\":690:708  stakingAPY[60] = 2 */\n  dup2\n  swap1\n  sstore\n  pop\n    /* \"contracts/1_Storage.sol\":735:736  4 */\n  0x04\n    /* \"contracts/1_Storage.sol\":718:728  stakingAPY */\n  0x06\n    /* \"contracts/1_Storage.sol\":718:732  stakingAPY[90] */\n  0x00\n    /* \"contracts/1_Storage.sol\":729:731  90 */\n  0x5a\n    /* \"contracts/1_Storage.sol\":718:732  stakingAPY[90] */\n  dup2\n  mstore\n  0x20\n  add\n  swap1\n  dup2\n  mstore\n  0x20\n  add\n  0x00\n  keccak256\n    /* \"contracts/1_Storage.sol\":718:736  stakingAPY[90] = 4 */\n  dup2\n  swap1\n  sstore\n  pop\n    /* \"contracts/1_Storage.sol\":764:765  6 */\n  0x06\n    /* \"contracts/1_Storage.sol\":746:756  stakingAPY */\n  dup1\n    /* \"contracts/1_Storage.sol\":746:761  stakingAPY[120] */\n  0x00\n    /* \"contracts/1_Storage.sol\":757:760  120 */\n  0x78\n    /* \"contracts/1_Storage.sol\":746:761  stakingAPY[120] */\n  dup2\n  mstore\n  0x20\n  add\n  swap1\n  dup2\n  mstore\n  0x20\n  add\n  0x00\n  keccak256\n    /* \"contracts/1_Storage.sol\":746:765  stakingAPY[120] = 6 */\n  dup2\n  swap1\n  sstore\n  pop\n    /* \"contracts/1_Storage.sol\":793:794  9 */\n  0x09\n    /* \"contracts/1_Storage.sol\":775:785  stakingAPY */\n  0x06\n    /* \"contracts/1_Storage.sol\":775:790  stakingAPY[180] */\n  0x00\n    /* \"contracts/1_Storage.sol\":786:789  180 */\n  0xb4\n    /* \"contracts/1_Storage.sol\":775:790  stakingAPY[180] */\n  dup2\n  mstore\n  0x20\n  add\n  swap1\n  dup2\n  mstore\n  0x20\n  add\n  0x00\n  keccak256\n    /* \"contracts/1_Storage.sol\":775:794  stakingAPY[180] = 9 */\n  dup2\n  swap1\n  sstore\n  pop\n    /* \"contracts/1_Storage.sol\":822:824  20 */\n  0x14\n    /* \"contracts/1_Storage.sol\":804:814  stakingAPY */\n  0x06\n    /* \"contracts/1_Storage.sol\":804:819  stakingAPY[365] */\n  0x00\n    /* \"contracts/1_Storage.sol\":815:818  365 */\n  0x016d\n    /* \"contracts/1_Storage.sol\":804:819  stakingAPY[365] */\n  dup2\n  mstore\n  0x20\n  add\n  swap1\n  dup2\n  mstore\n  0x20\n  add\n  0x00\n  keccak256\n    /* \"contracts/1_Storage.sol\":804:824  stakingAPY[365] = 20 */\n  dup2\n  swap1\n  sstore\n  pop\n    /* \"contracts/1_Storage.sol\":511:831  constructor(address _usdtToken) {... */\n  pop\n    /* \"contracts/1_Storage.sol\":382:6692  contract SikkaStakingDecentralize {... */\n  jump(tag_8)\ntag_2:\n  dup3\n  add(0x1f, 0x05)\n  0x20\n  swap1\n  div\n  dup2\n  add\n  swap3\n  dup3\n  iszero\n  tag_9\n  jumpi\n  swap2\n  0x20\n  mul\n  dup3\n  add\n  0x00\ntag_10:\n  dup4\n  dup3\n  gt\n  iszero\n  tag_11\n  jumpi\n  dup4\n  mload\n  dup4\n  dup3\n  0x0100\n  exp\n  dup2\n  sload\n  dup2\n  0xff\n  mul\n  not\n  and\n  swap1\n  dup4\n  0xff\n  and\n  mul\n  or\n  swap1\n  sstore\n  pop\n  swap3\n  0x20\n  add\n  swap3\n  0x01\n  add\n  0x20\n  dup2\n  0x00\n  add\n  div\n  swap3\n  dup4\n  add\n  swap3\n  0x01\n  sub\n  mul\n  jump(tag_10)\ntag_11:\n  dup1\n  iszero\n  tag_12\n  jumpi\n  dup3\n  dup2\n  0x0100\n  exp\n  dup2\n  sload\n  swap1\n  0xff\n  mul\n  not\n  and\n  swap1\n  sstore\n  0x01\n  add\n  0x20\n  dup2\n  0x00\n  add\n  div\n  swap3\n  dup4\n  add\n  swap3\n  0x01\n  sub\n  mul\n  jump(tag_11)\ntag_12:\n  pop\ntag_9:\n  pop\n  swap1\n  pop\n  tag_13\n  swap2\n  swap1\n  tag_14\n  jump\t// in\ntag_13:\n  pop\n  swap1\n  jump\t// out\ntag_14:\ntag_15:\n  dup1\n  dup3\n  gt\n  iszero\n  tag_16\n  jumpi\n  0x00\n  dup2\n  0x00\n  swap1\n  sstore\n  pop\n  0x01\n  add\n  jump(tag_15)\ntag_16:\n  pop\n  swap1\n  jump\t// out\n    /* \"#utility.yul\":88:205   */\ntag_18:\n    /* \"#utility.yul\":197:198   */\n  0x00\n    /* \"#utility.yul\":194:195   */\n  dup1\n    /* \"#utility.yul\":187:199   */\n  revert\n    /* \"#utility.yul\":334:460   */\ntag_20:\n    /* \"#utility.yul\":371:378   */\n  0x00\n    /* \"#utility.yul\":411:453   */\n  0xffffffffffffffffffffffffffffffffffffffff\n    /* \"#utility.yul\":404:409   */\n  dup3\n    /* \"#utility.yul\":400:454   */\n  and\n    /* \"#utility.yul\":389:454   */\n  swap1\n  pop\n    /* \"#utility.yul\":334:460   */\n  swap2\n  swap1\n  pop\n  jump\t// out\n    /* \"#utility.yul\":466:562   */\ntag_21:\n    /* \"#utility.yul\":503:510   */\n  0x00\n    /* \"#utility.yul\":532:556   */\n  tag_30\n    /* \"#utility.yul\":550:555   */\n  dup3\n    /* \"#utility.yul\":532:556   */\n  tag_20\n  jump\t// in\ntag_30:\n    /* \"#utility.yul\":521:556   */\n  swap1\n  pop\n    /* \"#utility.yul\":466:562   */\n  swap2\n  swap1\n  pop\n  jump\t// out\n    /* \"#utility.yul\":568:690   */\ntag_22:\n    /* \"#utility.yul\":641:665   */\n  tag_32\n    /* \"#utility.yul\":659:664   */\n  dup2\n    /* \"#utility.yul\":641:665   */\n  tag_21\n  jump\t// in\ntag_32:\n    /* \"#utility.yul\":634:639   */\n  dup2\n    /* \"#utility.yul\":631:666   */\n  eq\n    /* \"#utility.yul\":621:684   */\n  tag_33\n  jumpi\n    /* \"#utility.yul\":680:681   */\n  0x00\n    /* \"#utility.yul\":677:678   */\n  dup1\n    /* \"#utility.yul\":670:682   */\n  revert\n    /* \"#utility.yul\":621:684   */\ntag_33:\n    /* \"#utility.yul\":568:690   */\n  pop\n  jump\t// out\n    /* \"#utility.yul\":696:839   */\ntag_23:\n    /* \"#utility.yul\":753:758   */\n  0x00\n    /* \"#utility.yul\":784:790   */\n  dup2\n    /* \"#utility.yul\":778:791   */\n  mload\n    /* \"#utility.yul\":769:791   */\n  swap1\n  pop\n    /* \"#utility.yul\":800:833   */\n  tag_35\n    /* \"#utility.yul\":827:832   */\n  dup2\n    /* \"#utility.yul\":800:833   */\n  tag_22\n  jump\t// in\ntag_35:\n    /* \"#utility.yul\":696:839   */\n  swap3\n  swap2\n  pop\n  pop\n  jump\t// out\n    /* \"#utility.yul\":845:1196   */\ntag_5:\n    /* \"#utility.yul\":915:921   */\n  0x00\n    /* \"#utility.yul\":964:966   */\n  0x20\n    /* \"#utility.yul\":952:961   */\n  dup3\n    /* \"#utility.yul\":943:950   */\n  dup5\n    /* \"#utility.yul\":939:962   */\n  sub\n    /* \"#utility.yul\":935:967   */\n  slt\n    /* \"#utility.yul\":932:1051   */\n  iszero\n  tag_37\n  jumpi\n    /* \"#utility.yul\":970:1049   */\n  tag_38\n  tag_18\n  jump\t// in\ntag_38:\n    /* \"#utility.yul\":932:1051   */\ntag_37:\n    /* \"#utility.yul\":1090:1091   */\n  0x00\n    /* \"#utility.yul\":1115:1179   */\n  tag_39\n    /* \"#utility.yul\":1171:1178   */\n  dup5\n    /* \"#utility.yul\":1162:1168   */\n  dup3\n    /* \"#utility.yul\":1151:1160   */\n  dup6\n    /* \"#utility.yul\":1147:1169   */\n  add\n    /* \"#utility.yul\":1115:1179   */\n  tag_23\n  jump\t// in\ntag_39:\n    /* \"#utility.yul\":1105:1179   */\n  swap2\n  pop\n    /* \"#utility.yul\":1061:1189   */\n  pop\n    /* \"#utility.yul\":845:1196   */\n  swap3\n  swap2\n  pop\n  pop\n  jump\t// out\n    /* \"contracts/1_Storage.sol\":382:6692  contract SikkaStakingDecentralize {... */\ntag_8:\n  dataSize(sub_0)\n  dup1\n  dataOffset(sub_0)\n  0x00\n  codecopy\n  0x00\n  return\nstop\n\nsub_0: assembly {\n        /* \"contracts/1_Storage.sol\":382:6692  contract SikkaStakingDecentralize {... */\n      mstore(0x40, 0x80)\n      callvalue\n      dup1\n      iszero\n      tag_1\n      jumpi\n      0x00\n      dup1\n      revert\n    tag_1:\n      pop\n      jumpi(tag_2, lt(calldatasize, 0x04))\n      shr(0xe0, calldataload(0x00))\n      dup1\n      0xa2bdedf4\n      gt\n      tag_16\n      jumpi\n      dup1\n      0xe22fcd7b\n      gt\n      tag_17\n      jumpi\n      dup1\n      0xe22fcd7b\n      eq\n      tag_12\n      jumpi\n      dup1\n      0xe45a57d0\n      eq\n      tag_13\n      jumpi\n      dup1\n      0xf6e88873\n      eq\n      tag_14\n      jumpi\n      dup1\n      0xf7b17d10\n      eq\n      tag_15\n      jumpi\n      jump(tag_2)\n    tag_17:\n      dup1\n      0xa2bdedf4\n      eq\n      tag_9\n      jumpi\n      dup1\n      0xa87430ba\n      eq\n      tag_10\n      jumpi\n      dup1\n      0xa98ad46c\n      eq\n      tag_11\n      jumpi\n      jump(tag_2)\n    tag_16:\n      dup1\n      0x05ad3935\n      eq\n      tag_3\n      jumpi\n      dup1\n      0x1e43eb27\n      eq\n      tag_4\n      jumpi\n      dup1\n      0x4420e486\n      eq\n      tag_5\n      jumpi\n      dup1\n      0x7b0472f0\n      eq\n      tag_6\n      jumpi\n      dup1\n      0x875bb4e2\n      eq\n      tag_7\n      jumpi\n      dup1\n      0x8da5cb5b\n      eq\n      tag_8\n      jumpi\n    tag_2:\n      0x00\n      dup1\n      revert\n        /* \"contracts/1_Storage.sol\":1467:1524  mapping(address => ReferralInfo[]) public directReferrals */\n    tag_3:\n      tag_18\n      0x04\n      dup1\n      calldatasize\n      sub\n      dup2\n      add\n      swap1\n      tag_19\n      swap2\n      swap1\n      tag_20\n      jump\t// in\n    tag_19:\n      tag_21\n      jump\t// in\n    tag_18:\n      mload(0x40)\n      tag_22\n      swap4\n      swap3\n      swap2\n      swap1\n      tag_23\n      jump\t// in\n    tag_22:\n      mload(0x40)\n      dup1\n      swap2\n      sub\n      swap1\n      return\n        /* \"contracts/1_Storage.sol\":1530:1581  mapping(uint256 => address) public positionIdToUser */\n    tag_4:\n      tag_24\n      0x04\n      dup1\n      calldatasize\n      sub\n      dup2\n      add\n      swap1\n      tag_25\n      swap2\n      swap1\n      tag_26\n      jump\t// in\n    tag_25:\n      tag_27\n      jump\t// in\n    tag_24:\n      mload(0x40)\n      tag_28\n      swap2\n      swap1\n      tag_29\n      jump\t// in\n    tag_28:\n      mload(0x40)\n      dup1\n      swap2\n      sub\n      swap1\n      return\n        /* \"contracts/1_Storage.sol\":2139:2841  function register(address referrer) external {... */\n    tag_5:\n      tag_30\n      0x04\n      dup1\n      calldatasize\n      sub\n      dup2\n      add\n      swap1\n      tag_31\n      swap2\n      swap1\n      tag_32\n      jump\t// in\n    tag_31:\n      tag_33\n      jump\t// in\n    tag_30:\n      stop\n        /* \"contracts/1_Storage.sol\":2844:6061  function stake(uint256 numDays, uint256 amount) external onlyRegistered {... */\n    tag_6:\n      tag_34\n      0x04\n      dup1\n      calldatasize\n      sub\n      dup2\n      add\n      swap1\n      tag_35\n      swap2\n      swap1\n      tag_36\n      jump\t// in\n    tag_35:\n      tag_37\n      jump\t// in\n    tag_34:\n      stop\n        /* \"contracts/1_Storage.sol\":1587:1632  mapping(uint256 => uint256) public stakingAPY */\n    tag_7:\n      tag_38\n      0x04\n      dup1\n      calldatasize\n      sub\n      dup2\n      add\n      swap1\n      tag_39\n      swap2\n      swap1\n      tag_26\n      jump\t// in\n    tag_39:\n      tag_40\n      jump\t// in\n    tag_38:\n      mload(0x40)\n      tag_41\n      swap2\n      swap1\n      tag_42\n      jump\t// in\n    tag_41:\n      mload(0x40)\n      dup1\n      swap2\n      sub\n      swap1\n      return\n        /* \"contracts/1_Storage.sol\":422:442  address public owner */\n    tag_8:\n      tag_43\n      tag_44\n      jump\t// in\n    tag_43:\n      mload(0x40)\n      tag_45\n      swap2\n      swap1\n      tag_29\n      jump\t// in\n    tag_45:\n      mload(0x40)\n      dup1\n      swap2\n      sub\n      swap1\n      return\n        /* \"contracts/1_Storage.sol\":1700:1725  address[] public allUsers */\n    tag_9:\n      tag_46\n      0x04\n      dup1\n      calldatasize\n      sub\n      dup2\n      add\n      swap1\n      tag_47\n      swap2\n      swap1\n      tag_26\n      jump\t// in\n    tag_47:\n      tag_48\n      jump\t// in\n    tag_46:\n      mload(0x40)\n      tag_49\n      swap2\n      swap1\n      tag_29\n      jump\t// in\n    tag_49:\n      mload(0x40)\n      dup1\n      swap2\n      sub\n      swap1\n      return\n        /* \"contracts/1_Storage.sol\":1424:1461  mapping(address => User) public users */\n    tag_10:\n      tag_50\n      0x04\n      dup1\n      calldatasize\n      sub\n      dup2\n      add\n      swap1\n      tag_51\n      swap2\n      swap1\n      tag_32\n      jump\t// in\n    tag_51:\n      tag_52\n      jump\t// in\n    tag_50:\n      mload(0x40)\n      tag_53\n      swap5\n      swap4\n      swap3\n      swap2\n      swap1\n      tag_54\n      jump\t// in\n    tag_53:\n      mload(0x40)\n      dup1\n      swap2\n      sub\n      swap1\n      return\n        /* \"contracts/1_Storage.sol\":481:504  IERC20 public usdtToken */\n    tag_11:\n      tag_55\n      tag_56\n      jump\t// in\n    tag_55:\n      mload(0x40)\n      tag_57\n      swap2\n      swap1\n      tag_58\n      jump\t// in\n    tag_57:\n      mload(0x40)\n      dup1\n      swap2\n      sub\n      swap1\n      return\n        /* \"contracts/1_Storage.sol\":6139:6690  function getDirectReferralIncomeData(address user) external view returns (ReferralIncomeView[] memory) {... */\n    tag_12:\n      tag_59\n      0x04\n      dup1\n      calldatasize\n      sub\n      dup2\n      add\n      swap1\n      tag_60\n      swap2\n      swap1\n      tag_32\n      jump\t// in\n    tag_60:\n      tag_61\n      jump\t// in\n    tag_59:\n      mload(0x40)\n      tag_62\n      swap2\n      swap1\n      tag_63\n      jump\t// in\n    tag_62:\n      mload(0x40)\n      dup1\n      swap2\n      sub\n      swap1\n      return\n        /* \"contracts/1_Storage.sol\":1731:1777  uint8[5] public levelRewards = [5, 3, 2, 1, 1] */\n    tag_13:\n      tag_64\n      0x04\n      dup1\n      calldatasize\n      sub\n      dup2\n      add\n      swap1\n      tag_65\n      swap2\n      swap1\n      tag_26\n      jump\t// in\n    tag_65:\n      tag_66\n      jump\t// in\n    tag_64:\n      mload(0x40)\n      tag_67\n      swap2\n      swap1\n      tag_68\n      jump\t// in\n    tag_67:\n      mload(0x40)\n      dup1\n      swap2\n      sub\n      swap1\n      return\n        /* \"contracts/1_Storage.sol\":1638:1693  mapping(address => uint256) public directReferralIncome */\n    tag_14:\n      tag_69\n      0x04\n      dup1\n      calldatasize\n      sub\n      dup2\n      add\n      swap1\n      tag_70\n      swap2\n      swap1\n      tag_32\n      jump\t// in\n    tag_70:\n      tag_71\n      jump\t// in\n    tag_69:\n      mload(0x40)\n      tag_72\n      swap2\n      swap1\n      tag_42\n      jump\t// in\n    tag_72:\n      mload(0x40)\n      dup1\n      swap2\n      sub\n      swap1\n      return\n        /* \"contracts/1_Storage.sol\":448:475  uint256 public stakeCounter */\n    tag_15:\n      tag_73\n      tag_74\n      jump\t// in\n    tag_73:\n      mload(0x40)\n      tag_75\n      swap2\n      swap1\n      tag_42\n      jump\t// in\n    tag_75:\n      mload(0x40)\n      dup1\n      swap2\n      sub\n      swap1\n      return\n        /* \"contracts/1_Storage.sol\":1467:1524  mapping(address => ReferralInfo[]) public directReferrals */\n    tag_21:\n      mstore(0x20, 0x04)\n      dup2\n      0x00\n      mstore\n      keccak256(0x00, 0x40)\n      dup2\n      dup2\n      sload\n      dup2\n      lt\n      tag_76\n      jumpi\n      0x00\n      dup1\n      revert\n    tag_76:\n      swap1\n      0x00\n      mstore\n      keccak256(0x00, 0x20)\n      swap1\n      0x03\n      mul\n      add\n      0x00\n      swap2\n      pop\n      swap2\n      pop\n      pop\n      dup1\n      0x00\n      add\n      0x00\n      swap1\n      sload\n      swap1\n      0x0100\n      exp\n      swap1\n      div\n      0xffffffffffffffffffffffffffffffffffffffff\n      and\n      swap1\n      dup1\n      0x01\n      add\n      sload\n      swap1\n      dup1\n      0x02\n      add\n      sload\n      swap1\n      pop\n      dup4\n      jump\t// out\n        /* \"contracts/1_Storage.sol\":1530:1581  mapping(uint256 => address) public positionIdToUser */\n    tag_27:\n      mstore(0x20, 0x05)\n      dup1\n      0x00\n      mstore\n      keccak256(0x00, 0x40)\n      0x00\n      swap2\n      pop\n      sload\n      swap1\n      0x0100\n      exp\n      swap1\n      div\n      0xffffffffffffffffffffffffffffffffffffffff\n      and\n      dup2\n      jump\t// out\n        /* \"contracts/1_Storage.sol\":2139:2841  function register(address referrer) external {... */\n    tag_33:\n        /* \"contracts/1_Storage.sol\":2203:2208  users */\n      0x03\n        /* \"contracts/1_Storage.sol\":2203:2220  users[msg.sender] */\n      0x00\n        /* \"contracts/1_Storage.sol\":2209:2219  msg.sender */\n      caller\n        /* \"contracts/1_Storage.sol\":2203:2220  users[msg.sender] */\n      0xffffffffffffffffffffffffffffffffffffffff\n      and\n      0xffffffffffffffffffffffffffffffffffffffff\n      and\n      dup2\n      mstore\n      0x20\n      add\n      swap1\n      dup2\n      mstore\n      0x20\n      add\n      0x00\n      keccak256\n        /* \"contracts/1_Storage.sol\":2203:2231  users[msg.sender].registered */\n      0x04\n      add\n      0x00\n      swap1\n      sload\n      swap1\n      0x0100\n      exp\n      swap1\n      div\n      0xff\n      and\n        /* \"contracts/1_Storage.sol\":2202:2231  !users[msg.sender].registered */\n      iszero\n        /* \"contracts/1_Storage.sol\":2194:2254  require(!users[msg.sender].registered, \"Already registered\") */\n      tag_79\n      jumpi\n      mload(0x40)\n      0x08c379a000000000000000000000000000000000000000000000000000000000\n      dup2\n      mstore\n      0x04\n      add\n      tag_80\n      swap1\n      tag_81\n      jump\t// in\n    tag_80:\n      mload(0x40)\n      dup1\n      swap2\n      sub\n      swap1\n      revert\n    tag_79:\n        /* \"contracts/1_Storage.sol\":2284:2294  msg.sender */\n      caller\n        /* \"contracts/1_Storage.sol\":2272:2294  referrer != msg.sender */\n      0xffffffffffffffffffffffffffffffffffffffff\n      and\n        /* \"contracts/1_Storage.sol\":2272:2280  referrer */\n      dup2\n        /* \"contracts/1_Storage.sol\":2272:2294  referrer != msg.sender */\n      0xffffffffffffffffffffffffffffffffffffffff\n      and\n      sub\n        /* \"contracts/1_Storage.sol\":2264:2320  require(referrer != msg.sender, \"Cannot refer yourself\") */\n      tag_82\n      jumpi\n      mload(0x40)\n      0x08c379a000000000000000000000000000000000000000000000000000000000\n      dup2\n      mstore\n      0x04\n      add\n      tag_83\n      swap1\n      tag_84\n      jump\t// in\n    tag_83:\n      mload(0x40)\n      dup1\n      swap2\n      sub\n      swap1\n      revert\n    tag_82:\n        /* \"contracts/1_Storage.sol\":2338:2343  users */\n      0x03\n        /* \"contracts/1_Storage.sol\":2338:2353  users[referrer] */\n      0x00\n        /* \"contracts/1_Storage.sol\":2344:2352  referrer */\n      dup3\n        /* \"contracts/1_Storage.sol\":2338:2353  users[referrer] */\n      0xffffffffffffffffffffffffffffffffffffffff\n      and\n      0xffffffffffffffffffffffffffffffffffffffff\n      and\n      dup2\n      mstore\n      0x20\n      add\n      swap1\n      dup2\n      mstore\n      0x20\n      add\n      0x00\n      keccak256\n        /* \"contracts/1_Storage.sol\":2338:2364  users[referrer].registered */\n      0x04\n      add\n      0x00\n      swap1\n      sload\n      swap1\n      0x0100\n      exp\n      swap1\n      div\n      0xff\n      and\n        /* \"contracts/1_Storage.sol\":2330:2392  require(users[referrer].registered, \"Referrer not registered\") */\n      tag_85\n      jumpi\n      mload(0x40)\n      0x08c379a000000000000000000000000000000000000000000000000000000000\n      dup2\n      mstore\n      0x04\n      add\n      tag_86\n      swap1\n      tag_87\n      jump\t// in\n    tag_86:\n      mload(0x40)\n      dup1\n      swap2\n      sub\n      swap1\n      revert\n    tag_85:\n        /* \"contracts/1_Storage.sol\":2442:2443  0 */\n      0x00\n        /* \"contracts/1_Storage.sol\":2410:2415  users */\n      0x03\n        /* \"contracts/1_Storage.sol\":2410:2425  users[referrer] */\n      0x00\n        /* \"contracts/1_Storage.sol\":2416:2424  referrer */\n      dup4\n        /* \"contracts/1_Storage.sol\":2410:2425  users[referrer] */\n      0xffffffffffffffffffffffffffffffffffffffff\n      and\n      0xffffffffffffffffffffffffffffffffffffffff\n      and\n      dup2\n      mstore\n      0x20\n      add\n      swap1\n      dup2\n      mstore\n      0x20\n      add\n      0x00\n      keccak256\n        /* \"contracts/1_Storage.sol\":2410:2432  users[referrer].stakes */\n      0x01\n      add\n        /* \"contracts/1_Storage.sol\":2410:2439  users[referrer].stakes.length */\n      dup1\n      sload\n      swap1\n      pop\n        /* \"contracts/1_Storage.sol\":2410:2443  users[referrer].stakes.length > 0 */\n      gt\n        /* \"contracts/1_Storage.sol\":2402:2491  require(users[referrer].stakes.length > 0, \"Referrer must stake before you can register\") */\n      tag_88\n      jumpi\n      mload(0x40)\n      0x08c379a000000000000000000000000000000000000000000000000000000000\n      dup2\n      mstore\n      0x04\n      add\n      tag_89\n      swap1\n      tag_90\n      jump\t// in\n    tag_89:\n      mload(0x40)\n      dup1\n      swap2\n      sub\n      swap1\n      revert\n    tag_88:\n        /* \"contracts/1_Storage.sol\":2531:2539  referrer */\n      dup1\n        /* \"contracts/1_Storage.sol\":2502:2507  users */\n      0x03\n        /* \"contracts/1_Storage.sol\":2502:2519  users[msg.sender] */\n      0x00\n        /* \"contracts/1_Storage.sol\":2508:2518  msg.sender */\n      caller\n        /* \"contracts/1_Storage.sol\":2502:2519  users[msg.sender] */\n      0xffffffffffffffffffffffffffffffffffffffff\n      and\n      0xffffffffffffffffffffffffffffffffffffffff\n      and\n      dup2\n      mstore\n      0x20\n      add\n      swap1\n      dup2\n      mstore\n      0x20\n      add\n      0x00\n      keccak256\n        /* \"contracts/1_Storage.sol\":2502:2528  users[msg.sender].referrer */\n      0x00\n      add\n      0x00\n        /* \"contracts/1_Storage.sol\":2502:2539  users[msg.sender].referrer = referrer */\n      0x0100\n      exp\n      dup2\n      sload\n      dup2\n      0xffffffffffffffffffffffffffffffffffffffff\n      mul\n      not\n      and\n      swap1\n      dup4\n      0xffffffffffffffffffffffffffffffffffffffff\n      and\n      mul\n      or\n      swap1\n      sstore\n      pop\n        /* \"contracts/1_Storage.sol\":2580:2584  true */\n      0x01\n        /* \"contracts/1_Storage.sol\":2549:2554  users */\n      0x03\n        /* \"contracts/1_Storage.sol\":2549:2566  users[msg.sender] */\n      0x00\n        /* \"contracts/1_Storage.sol\":2555:2565  msg.sender */\n      caller\n        /* \"contracts/1_Storage.sol\":2549:2566  users[msg.sender] */\n      0xffffffffffffffffffffffffffffffffffffffff\n      and\n      0xffffffffffffffffffffffffffffffffffffffff\n      and\n      dup2\n      mstore\n      0x20\n      add\n      swap1\n      dup2\n      mstore\n      0x20\n      add\n      0x00\n      keccak256\n        /* \"contracts/1_Storage.sol\":2549:2577  users[msg.sender].registered */\n      0x04\n      add\n      0x00\n        /* \"contracts/1_Storage.sol\":2549:2584  users[msg.sender].registered = true */\n      0x0100\n      exp\n      dup2\n      sload\n      dup2\n      0xff\n      mul\n      not\n      and\n      swap1\n      dup4\n      iszero\n      iszero\n      mul\n      or\n      swap1\n      sstore\n      pop\n        /* \"contracts/1_Storage.sol\":2594:2602  allUsers */\n      0x08\n        /* \"contracts/1_Storage.sol\":2608:2618  msg.sender */\n      caller\n        /* \"contracts/1_Storage.sol\":2594:2619  allUsers.push(msg.sender) */\n      swap1\n      dup1\n      0x01\n      dup2\n      sload\n      add\n      dup1\n      dup3\n      sstore\n      dup1\n      swap2\n      pop\n      pop\n      0x01\n      swap1\n      sub\n      swap1\n      0x00\n      mstore\n      keccak256(0x00, 0x20)\n      add\n      0x00\n      swap1\n      swap2\n      swap1\n      swap2\n      swap1\n      swap2\n      0x0100\n      exp\n      dup2\n      sload\n      dup2\n      0xffffffffffffffffffffffffffffffffffffffff\n      mul\n      not\n      and\n      swap1\n      dup4\n      0xffffffffffffffffffffffffffffffffffffffff\n      and\n      mul\n      or\n      swap1\n      sstore\n      pop\n        /* \"contracts/1_Storage.sol\":2630:2645  directReferrals */\n      0x04\n        /* \"contracts/1_Storage.sol\":2630:2655  directReferrals[referrer] */\n      0x00\n        /* \"contracts/1_Storage.sol\":2646:2654  referrer */\n      dup3\n        /* \"contracts/1_Storage.sol\":2630:2655  directReferrals[referrer] */\n      0xffffffffffffffffffffffffffffffffffffffff\n      and\n      0xffffffffffffffffffffffffffffffffffffffff\n      and\n      dup2\n      mstore\n      0x20\n      add\n      swap1\n      dup2\n      mstore\n      0x20\n      add\n      0x00\n      keccak256\n        /* \"contracts/1_Storage.sol\":2674:2824  ReferralInfo({... */\n      mload(0x40)\n      dup1\n      0x60\n      add\n      0x40\n      mstore\n      dup1\n        /* \"contracts/1_Storage.sol\":2722:2732  msg.sender */\n      caller\n        /* \"contracts/1_Storage.sol\":2674:2824  ReferralInfo({... */\n      0xffffffffffffffffffffffffffffffffffffffff\n      and\n      dup2\n      mstore\n      0x20\n      add\n        /* \"contracts/1_Storage.sol\":2764:2765  0 */\n      0x00\n        /* \"contracts/1_Storage.sol\":2674:2824  ReferralInfo({... */\n      dup2\n      mstore\n      0x20\n      add\n        /* \"contracts/1_Storage.sol\":2794:2809  block.timestamp */\n      timestamp\n        /* \"contracts/1_Storage.sol\":2674:2824  ReferralInfo({... */\n      dup2\n      mstore\n      pop\n        /* \"contracts/1_Storage.sol\":2630:2834  directReferrals[referrer].push(... */\n      swap1\n      dup1\n      0x01\n      dup2\n      sload\n      add\n      dup1\n      dup3\n      sstore\n      dup1\n      swap2\n      pop\n      pop\n      0x01\n      swap1\n      sub\n      swap1\n      0x00\n      mstore\n      keccak256(0x00, 0x20)\n      swap1\n      0x03\n      mul\n      add\n      0x00\n      swap1\n      swap2\n      swap1\n      swap2\n      swap1\n      swap2\n      pop\n      0x00\n      dup3\n      add\n      mload\n      dup2\n      0x00\n      add\n      exp(0x0100, 0x00)\n      dup2\n      sload\n      dup2\n      0xffffffffffffffffffffffffffffffffffffffff\n      mul\n      not\n      and\n      swap1\n      dup4\n      0xffffffffffffffffffffffffffffffffffffffff\n      and\n      mul\n      or\n      swap1\n      sstore\n      pop\n      0x20\n      dup3\n      add\n      mload\n      dup2\n      0x01\n      add\n      sstore\n      0x40\n      dup3\n      add\n      mload\n      dup2\n      0x02\n      add\n      sstore\n      pop\n      pop\n        /* \"contracts/1_Storage.sol\":2139:2841  function register(address referrer) external {... */\n      pop\n      jump\t// out\n        /* \"contracts/1_Storage.sol\":2844:6061  function stake(uint256 numDays, uint256 amount) external onlyRegistered {... */\n    tag_37:\n        /* \"contracts/1_Storage.sol\":1957:1962  users */\n      0x03\n        /* \"contracts/1_Storage.sol\":1957:1974  users[msg.sender] */\n      0x00\n        /* \"contracts/1_Storage.sol\":1963:1973  msg.sender */\n      caller\n        /* \"contracts/1_Storage.sol\":1957:1974  users[msg.sender] */\n      0xffffffffffffffffffffffffffffffffffffffff\n      and\n      0xffffffffffffffffffffffffffffffffffffffff\n      and\n      dup2\n      mstore\n      0x20\n      add\n      swap1\n      dup2\n      mstore\n      0x20\n      add\n      0x00\n      keccak256\n        /* \"contracts/1_Storage.sol\":1957:1985  users[msg.sender].registered */\n      0x04\n      add\n      0x00\n      swap1\n      sload\n      swap1\n      0x0100\n      exp\n      swap1\n      div\n      0xff\n      and\n        /* \"contracts/1_Storage.sol\":1949:2004  require(users[msg.sender].registered, \"Not registered\") */\n      tag_94\n      jumpi\n      mload(0x40)\n      0x08c379a000000000000000000000000000000000000000000000000000000000\n      dup2\n      mstore\n      0x04\n      add\n      tag_95\n      swap1\n      tag_96\n      jump\t// in\n    tag_95:\n      mload(0x40)\n      dup1\n      swap2\n      sub\n      swap1\n      revert\n    tag_94:\n        /* \"contracts/1_Storage.sol\":2939:2940  0 */\n      0x00\n        /* \"contracts/1_Storage.sol\":2930:2936  amount */\n      dup2\n        /* \"contracts/1_Storage.sol\":2930:2940  amount > 0 */\n      gt\n        /* \"contracts/1_Storage.sol\":2922:2980  require(amount > 0, \"Stake amount must be greater than 0\") */\n      tag_98\n      jumpi\n      mload(0x40)\n      0x08c379a000000000000000000000000000000000000000000000000000000000\n      dup2\n      mstore\n      0x04\n      add\n      tag_99\n      swap1\n      tag_100\n      jump\t// in\n    tag_99:\n      mload(0x40)\n      dup1\n      swap2\n      sub\n      swap1\n      revert\n    tag_98:\n        /* \"contracts/1_Storage.sol\":3016:3017  0 */\n      0x00\n        /* \"contracts/1_Storage.sol\":2994:3004  stakingAPY */\n      0x06\n        /* \"contracts/1_Storage.sol\":2994:3013  stakingAPY[numDays] */\n      0x00\n        /* \"contracts/1_Storage.sol\":3005:3012  numDays */\n      dup5\n        /* \"contracts/1_Storage.sol\":2994:3013  stakingAPY[numDays] */\n      dup2\n      mstore\n      0x20\n      add\n      swap1\n      dup2\n      mstore\n      0x20\n      add\n      0x00\n      keccak256\n      sload\n        /* \"contracts/1_Storage.sol\":2994:3017  stakingAPY[numDays] > 0 */\n      gt\n        /* \"contracts/1_Storage.sol\":2986:3046  require(stakingAPY[numDays] > 0, \"Invalid staking duration\") */\n      tag_101\n      jumpi\n      mload(0x40)\n      0x08c379a000000000000000000000000000000000000000000000000000000000\n      dup2\n      mstore\n      0x04\n      add\n      tag_102\n      swap1\n      tag_103\n      jump\t// in\n    tag_102:\n      mload(0x40)\n      dup1\n      swap2\n      sub\n      swap1\n      revert\n    tag_101:\n        /* \"contracts/1_Storage.sol\":3053:3069  address referrer */\n      0x00\n        /* \"contracts/1_Storage.sol\":3072:3077  users */\n      0x03\n        /* \"contracts/1_Storage.sol\":3072:3089  users[msg.sender] */\n      0x00\n        /* \"contracts/1_Storage.sol\":3078:3088  msg.sender */\n      caller\n        /* \"contracts/1_Storage.sol\":3072:3089  users[msg.sender] */\n      0xffffffffffffffffffffffffffffffffffffffff\n      and\n      0xffffffffffffffffffffffffffffffffffffffff\n      and\n      dup2\n      mstore\n      0x20\n      add\n      swap1\n      dup2\n      mstore\n      0x20\n      add\n      0x00\n      keccak256\n        /* \"contracts/1_Storage.sol\":3072:3098  users[msg.sender].referrer */\n      0x00\n      add\n      0x00\n      swap1\n      sload\n      swap1\n      0x0100\n      exp\n      swap1\n      div\n      0xffffffffffffffffffffffffffffffffffffffff\n      and\n        /* \"contracts/1_Storage.sol\":3053:3098  address referrer = users[msg.sender].referrer */\n      swap1\n      pop\n        /* \"contracts/1_Storage.sol\":3129:3130  0 */\n      0x00\n        /* \"contracts/1_Storage.sol\":3109:3131  referrer != address(0) */\n      0xffffffffffffffffffffffffffffffffffffffff\n      and\n        /* \"contracts/1_Storage.sol\":3109:3117  referrer */\n      dup2\n        /* \"contracts/1_Storage.sol\":3109:3131  referrer != address(0) */\n      0xffffffffffffffffffffffffffffffffffffffff\n      and\n      eq\n        /* \"contracts/1_Storage.sol\":3105:3236  if (referrer != address(0)) {... */\n      tag_104\n      jumpi\n        /* \"contracts/1_Storage.sol\":3183:3184  0 */\n      0x00\n        /* \"contracts/1_Storage.sol\":3151:3156  users */\n      0x03\n        /* \"contracts/1_Storage.sol\":3151:3166  users[referrer] */\n      0x00\n        /* \"contracts/1_Storage.sol\":3157:3165  referrer */\n      dup4\n        /* \"contracts/1_Storage.sol\":3151:3166  users[referrer] */\n      0xffffffffffffffffffffffffffffffffffffffff\n      and\n      0xffffffffffffffffffffffffffffffffffffffff\n      and\n      dup2\n      mstore\n      0x20\n      add\n      swap1\n      dup2\n      mstore\n      0x20\n      add\n      0x00\n      keccak256\n        /* \"contracts/1_Storage.sol\":3151:3173  users[referrer].stakes */\n      0x01\n      add\n        /* \"contracts/1_Storage.sol\":3151:3180  users[referrer].stakes.length */\n      dup1\n      sload\n      swap1\n      pop\n        /* \"contracts/1_Storage.sol\":3151:3184  users[referrer].stakes.length > 0 */\n      gt\n        /* \"contracts/1_Storage.sol\":3143:3229  require(users[referrer].stakes.length > 0, \"Referrer must stake before you can stake\") */\n      tag_105\n      jumpi\n      mload(0x40)\n      0x08c379a000000000000000000000000000000000000000000000000000000000\n      dup2\n      mstore\n      0x04\n      add\n      tag_106\n      swap1\n      tag_107\n      jump\t// in\n    tag_106:\n      mload(0x40)\n      dup1\n      swap2\n      sub\n      swap1\n      revert\n    tag_105:\n        /* \"contracts/1_Storage.sol\":3105:3236  if (referrer != address(0)) {... */\n    tag_104:\n        /* \"contracts/1_Storage.sol\":3242:3254  bool success */\n      0x00\n        /* \"contracts/1_Storage.sol\":3257:3266  usdtToken */\n      0x02\n      0x00\n      swap1\n      sload\n      swap1\n      0x0100\n      exp\n      swap1\n      div\n      0xffffffffffffffffffffffffffffffffffffffff\n      and\n        /* \"contracts/1_Storage.sol\":3257:3279  usdtToken.transferFrom */\n      0xffffffffffffffffffffffffffffffffffffffff\n      and\n      0x23b872dd\n        /* \"contracts/1_Storage.sol\":3280:3290  msg.sender */\n      caller\n        /* \"contracts/1_Storage.sol\":3300:3304  this */\n      address\n        /* \"contracts/1_Storage.sol\":3307:3313  amount */\n      dup7\n        /* \"contracts/1_Storage.sol\":3257:3314  usdtToken.transferFrom(msg.sender, address(this), amount) */\n      mload(0x40)\n      dup5\n      0xffffffff\n      and\n      0xe0\n      shl\n      dup2\n      mstore\n      0x04\n      add\n      tag_108\n      swap4\n      swap3\n      swap2\n      swap1\n      tag_109\n      jump\t// in\n    tag_108:\n      0x20\n      mload(0x40)\n      dup1\n      dup4\n      sub\n      dup2\n      0x00\n      dup8\n      gas\n      call\n      iszero\n      dup1\n      iszero\n      tag_111\n      jumpi\n      returndatasize\n      0x00\n      dup1\n      returndatacopy\n      revert(0x00, returndatasize)\n    tag_111:\n      pop\n      pop\n      pop\n      pop\n      mload(0x40)\n      returndatasize\n      not(0x1f)\n      0x1f\n      dup3\n      add\n      and\n      dup3\n      add\n      dup1\n      0x40\n      mstore\n      pop\n      dup2\n      add\n      swap1\n      tag_112\n      swap2\n      swap1\n      tag_113\n      jump\t// in\n    tag_112:\n        /* \"contracts/1_Storage.sol\":3242:3314  bool success = usdtToken.transferFrom(msg.sender, address(this), amount) */\n      swap1\n      pop\n        /* \"contracts/1_Storage.sol\":3328:3335  success */\n      dup1\n        /* \"contracts/1_Storage.sol\":3320:3360  require(success, \"USDT transfer failed\") */\n      tag_114\n      jumpi\n      mload(0x40)\n      0x08c379a000000000000000000000000000000000000000000000000000000000\n      dup2\n      mstore\n      0x04\n      add\n      tag_115\n      swap1\n      tag_116\n      jump\t// in\n    tag_115:\n      mload(0x40)\n      dup1\n      swap2\n      sub\n      swap1\n      revert\n    tag_114:\n        /* \"contracts/1_Storage.sol\":3367:3385  uint256 positionId */\n      0x00\n        /* \"contracts/1_Storage.sol\":3390:3402  stakeCounter */\n      0x01\n      0x00\n        /* \"contracts/1_Storage.sol\":3388:3402  ++stakeCounter */\n      dup2\n      sload\n      tag_117\n      swap1\n      tag_118\n      jump\t// in\n    tag_117:\n      swap2\n      swap1\n      pop\n      dup2\n      swap1\n      sstore\n        /* \"contracts/1_Storage.sol\":3367:3402  uint256 positionId = ++stakeCounter */\n      swap1\n      pop\n        /* \"contracts/1_Storage.sol\":3409:3414  users */\n      0x03\n        /* \"contracts/1_Storage.sol\":3409:3426  users[msg.sender] */\n      0x00\n        /* \"contracts/1_Storage.sol\":3415:3425  msg.sender */\n      caller\n        /* \"contracts/1_Storage.sol\":3409:3426  users[msg.sender] */\n      0xffffffffffffffffffffffffffffffffffffffff\n      and\n      0xffffffffffffffffffffffffffffffffffffffff\n      and\n      dup2\n      mstore\n      0x20\n      add\n      swap1\n      dup2\n      mstore\n      0x20\n      add\n      0x00\n      keccak256\n        /* \"contracts/1_Storage.sol\":3409:3433  users[msg.sender].stakes */\n      0x01\n      add\n        /* \"contracts/1_Storage.sol\":3448:3662  Stake({... */\n      mload(0x40)\n      dup1\n      0xc0\n      add\n      0x40\n      mstore\n      dup1\n        /* \"contracts/1_Storage.sol\":3477:3489  stakeCounter */\n      sload(0x01)\n        /* \"contracts/1_Storage.sol\":3448:3662  Stake({... */\n      dup2\n      mstore\n      0x20\n      add\n        /* \"contracts/1_Storage.sol\":3515:3525  positionId */\n      dup4\n        /* \"contracts/1_Storage.sol\":3448:3662  Stake({... */\n      dup2\n      mstore\n      0x20\n      add\n        /* \"contracts/1_Storage.sol\":3547:3553  amount */\n      dup7\n        /* \"contracts/1_Storage.sol\":3448:3662  Stake({... */\n      dup2\n      mstore\n      0x20\n      add\n        /* \"contracts/1_Storage.sol\":3578:3593  block.timestamp */\n      timestamp\n        /* \"contracts/1_Storage.sol\":3448:3662  Stake({... */\n      dup2\n      mstore\n      0x20\n      add\n        /* \"contracts/1_Storage.sol\":3616:3623  numDays */\n      dup8\n        /* \"contracts/1_Storage.sol\":3448:3662  Stake({... */\n      dup2\n      mstore\n      0x20\n      add\n        /* \"contracts/1_Storage.sol\":3646:3651  false */\n      0x00\n        /* \"contracts/1_Storage.sol\":3448:3662  Stake({... */\n      iszero\n      iszero\n      dup2\n      mstore\n      pop\n        /* \"contracts/1_Storage.sol\":3409:3668  users[msg.sender].stakes.push(... */\n      swap1\n      dup1\n      0x01\n      dup2\n      sload\n      add\n      dup1\n      dup3\n      sstore\n      dup1\n      swap2\n      pop\n      pop\n      0x01\n      swap1\n      sub\n      swap1\n      0x00\n      mstore\n      keccak256(0x00, 0x20)\n      swap1\n      0x06\n      mul\n      add\n      0x00\n      swap1\n      swap2\n      swap1\n      swap2\n      swap1\n      swap2\n      pop\n      0x00\n      dup3\n      add\n      mload\n      dup2\n      0x00\n      add\n      sstore\n      0x20\n      dup3\n      add\n      mload\n      dup2\n      0x01\n      add\n      sstore\n      0x40\n      dup3\n      add\n      mload\n      dup2\n      0x02\n      add\n      sstore\n      0x60\n      dup3\n      add\n      mload\n      dup2\n      0x03\n      add\n      sstore\n      0x80\n      dup3\n      add\n      mload\n      dup2\n      0x04\n      add\n      sstore\n      0xa0\n      dup3\n      add\n      mload\n      dup2\n      0x05\n      add\n      exp(0x0100, 0x00)\n      dup2\n      sload\n      dup2\n      0xff\n      mul\n      not\n      and\n      swap1\n      dup4\n      iszero\n      iszero\n      mul\n      or\n      swap1\n      sstore\n      pop\n      pop\n      pop\n        /* \"contracts/1_Storage.sol\":3706:3716  msg.sender */\n      caller\n        /* \"contracts/1_Storage.sol\":3675:3691  positionIdToUser */\n      0x05\n        /* \"contracts/1_Storage.sol\":3675:3703  positionIdToUser[positionId] */\n      0x00\n        /* \"contracts/1_Storage.sol\":3692:3702  positionId */\n      dup4\n        /* \"contracts/1_Storage.sol\":3675:3703  positionIdToUser[positionId] */\n      dup2\n      mstore\n      0x20\n      add\n      swap1\n      dup2\n      mstore\n      0x20\n      add\n      0x00\n      keccak256\n      0x00\n        /* \"contracts/1_Storage.sol\":3675:3716  positionIdToUser[positionId] = msg.sender */\n      0x0100\n      exp\n      dup2\n      sload\n      dup2\n      0xffffffffffffffffffffffffffffffffffffffff\n      mul\n      not\n      and\n      swap1\n      dup4\n      0xffffffffffffffffffffffffffffffffffffffff\n      and\n      mul\n      or\n      swap1\n      sstore\n      pop\n        /* \"contracts/1_Storage.sol\":3723:3740  bool isFirstStake */\n      0x00\n        /* \"contracts/1_Storage.sol\":3778:3779  1 */\n      0x01\n        /* \"contracts/1_Storage.sol\":3743:3748  users */\n      0x03\n        /* \"contracts/1_Storage.sol\":3743:3760  users[msg.sender] */\n      0x00\n        /* \"contracts/1_Storage.sol\":3749:3759  msg.sender */\n      caller\n        /* \"contracts/1_Storage.sol\":3743:3760  users[msg.sender] */\n      0xffffffffffffffffffffffffffffffffffffffff\n      and\n      0xffffffffffffffffffffffffffffffffffffffff\n      and\n      dup2\n      mstore\n      0x20\n      add\n      swap1\n      dup2\n      mstore\n      0x20\n      add\n      0x00\n      keccak256\n        /* \"contracts/1_Storage.sol\":3743:3767  users[msg.sender].stakes */\n      0x01\n      add\n        /* \"contracts/1_Storage.sol\":3743:3774  users[msg.sender].stakes.length */\n      dup1\n      sload\n      swap1\n      pop\n        /* \"contracts/1_Storage.sol\":3743:3779  users[msg.sender].stakes.length == 1 */\n      eq\n        /* \"contracts/1_Storage.sol\":3723:3779  bool isFirstStake = users[msg.sender].stakes.length == 1 */\n      swap1\n      pop\n        /* \"contracts/1_Storage.sol\":3785:3799  address upline */\n      0x00\n        /* \"contracts/1_Storage.sol\":3802:3807  users */\n      0x03\n        /* \"contracts/1_Storage.sol\":3802:3819  users[msg.sender] */\n      0x00\n        /* \"contracts/1_Storage.sol\":3808:3818  msg.sender */\n      caller\n        /* \"contracts/1_Storage.sol\":3802:3819  users[msg.sender] */\n      0xffffffffffffffffffffffffffffffffffffffff\n      and\n      0xffffffffffffffffffffffffffffffffffffffff\n      and\n      dup2\n      mstore\n      0x20\n      add\n      swap1\n      dup2\n      mstore\n      0x20\n      add\n      0x00\n      keccak256\n        /* \"contracts/1_Storage.sol\":3802:3828  users[msg.sender].referrer */\n      0x00\n      add\n      0x00\n      swap1\n      sload\n      swap1\n      0x0100\n      exp\n      swap1\n      div\n      0xffffffffffffffffffffffffffffffffffffffff\n      and\n        /* \"contracts/1_Storage.sol\":3785:3828  address upline = users[msg.sender].referrer */\n      swap1\n      pop\n        /* \"contracts/1_Storage.sol\":3840:3847  uint8 i */\n      0x00\n        /* \"contracts/1_Storage.sol\":3835:6059  for (uint8 i = 0; i < levelRewards.length && upline != address(0); i++) {... */\n    tag_120:\n        /* \"contracts/1_Storage.sol\":3857:3876  levelRewards.length */\n      0x05\n        /* \"contracts/1_Storage.sol\":3853:3854  i */\n      dup2\n        /* \"contracts/1_Storage.sol\":3853:3876  i < levelRewards.length */\n      0xff\n      and\n      lt\n        /* \"contracts/1_Storage.sol\":3853:3900  i < levelRewards.length && upline != address(0) */\n      dup1\n      iszero\n      tag_123\n      jumpi\n      pop\n        /* \"contracts/1_Storage.sol\":3898:3899  0 */\n      0x00\n        /* \"contracts/1_Storage.sol\":3880:3900  upline != address(0) */\n      0xffffffffffffffffffffffffffffffffffffffff\n      and\n        /* \"contracts/1_Storage.sol\":3880:3886  upline */\n      dup3\n        /* \"contracts/1_Storage.sol\":3880:3900  upline != address(0) */\n      0xffffffffffffffffffffffffffffffffffffffff\n      and\n      eq\n      iszero\n        /* \"contracts/1_Storage.sol\":3853:3900  i < levelRewards.length && upline != address(0) */\n    tag_123:\n        /* \"contracts/1_Storage.sol\":3835:6059  for (uint8 i = 0; i < levelRewards.length && upline != address(0); i++) {... */\n      iszero\n      tag_121\n      jumpi\n        /* \"contracts/1_Storage.sol\":3917:3931  uint256 reward */\n      0x00\n        /* \"contracts/1_Storage.sol\":3955:3956  0 */\n      dup1\n        /* \"contracts/1_Storage.sol\":3950:3951  i */\n      dup3\n        /* \"contracts/1_Storage.sol\":3950:3956  i == 0 */\n      0xff\n      and\n      sub\n        /* \"contracts/1_Storage.sol\":3946:6011  if (i == 0) {... */\n      tag_124\n      jumpi\n        /* \"contracts/1_Storage.sol\":3976:3988  isFirstStake */\n      dup4\n        /* \"contracts/1_Storage.sol\":3972:5574  if (isFirstStake) {... */\n      iszero\n      tag_125\n      jumpi\n        /* \"contracts/1_Storage.sol\":4050:4070  uint256 directReward */\n      0x00\n        /* \"contracts/1_Storage.sol\":4088:4091  100 */\n      0x64\n        /* \"contracts/1_Storage.sol\":4083:4084  5 */\n      0x05\n        /* \"contracts/1_Storage.sol\":4074:4080  amount */\n      dup11\n        /* \"contracts/1_Storage.sol\":4074:4084  amount * 5 */\n      tag_126\n      swap2\n      swap1\n      tag_127\n      jump\t// in\n    tag_126:\n        /* \"contracts/1_Storage.sol\":4073:4091  (amount * 5) / 100 */\n      tag_128\n      swap2\n      swap1\n      tag_129\n      jump\t// in\n    tag_128:\n        /* \"contracts/1_Storage.sol\":4050:4091  uint256 directReward = (amount * 5) / 100 */\n      swap1\n      pop\n        /* \"contracts/1_Storage.sol\":4109:4129  uint256 level1Reward */\n      0x00\n        /* \"contracts/1_Storage.sol\":4147:4150  100 */\n      0x64\n        /* \"contracts/1_Storage.sol\":4142:4143  5 */\n      0x05\n        /* \"contracts/1_Storage.sol\":4133:4139  amount */\n      dup12\n        /* \"contracts/1_Storage.sol\":4133:4143  amount * 5 */\n      tag_130\n      swap2\n      swap1\n      tag_127\n      jump\t// in\n    tag_130:\n        /* \"contracts/1_Storage.sol\":4132:4150  (amount * 5) / 100 */\n      tag_131\n      swap2\n      swap1\n      tag_129\n      jump\t// in\n    tag_131:\n        /* \"contracts/1_Storage.sol\":4109:4150  uint256 level1Reward = (amount * 5) / 100 */\n      swap1\n      pop\n        /* \"contracts/1_Storage.sol\":4230:4242  level1Reward */\n      dup1\n        /* \"contracts/1_Storage.sol\":4215:4227  directReward */\n      dup3\n        /* \"contracts/1_Storage.sol\":4215:4242  directReward + level1Reward */\n      tag_132\n      swap2\n      swap1\n      tag_133\n      jump\t// in\n    tag_132:\n        /* \"contracts/1_Storage.sol\":4177:4186  usdtToken */\n      0x02\n      0x00\n      swap1\n      sload\n      swap1\n      0x0100\n      exp\n      swap1\n      div\n      0xffffffffffffffffffffffffffffffffffffffff\n      and\n        /* \"contracts/1_Storage.sol\":4177:4196  usdtToken.balanceOf */\n      0xffffffffffffffffffffffffffffffffffffffff\n      and\n      0x70a08231\n        /* \"contracts/1_Storage.sol\":4205:4209  this */\n      address\n        /* \"contracts/1_Storage.sol\":4177:4211  usdtToken.balanceOf(address(this)) */\n      mload(0x40)\n      dup3\n      0xffffffff\n      and\n      0xe0\n      shl\n      dup2\n      mstore\n      0x04\n      add\n      tag_134\n      swap2\n      swap1\n      tag_29\n      jump\t// in\n    tag_134:\n      0x20\n      mload(0x40)\n      dup1\n      dup4\n      sub\n      dup2\n      dup7\n      gas\n      staticcall\n      iszero\n      dup1\n      iszero\n      tag_136\n      jumpi\n      returndatasize\n      0x00\n      dup1\n      returndatacopy\n      revert(0x00, returndatasize)\n    tag_136:\n      pop\n      pop\n      pop\n      pop\n      mload(0x40)\n      returndatasize\n      not(0x1f)\n      0x1f\n      dup3\n      add\n      and\n      dup3\n      add\n      dup1\n      0x40\n      mstore\n      pop\n      dup2\n      add\n      swap1\n      tag_137\n      swap2\n      swap1\n      tag_138\n      jump\t// in\n    tag_137:\n        /* \"contracts/1_Storage.sol\":4177:4242  usdtToken.balanceOf(address(this)) >= directReward + level1Reward */\n      lt\n      iszero\n        /* \"contracts/1_Storage.sol\":4169:4276  require(usdtToken.balanceOf(address(this)) >= directReward + level1Reward, \"Insufficient contract balance\") */\n      tag_139\n      jumpi\n      mload(0x40)\n      0x08c379a000000000000000000000000000000000000000000000000000000000\n      dup2\n      mstore\n      0x04\n      add\n      tag_140\n      swap1\n      tag_141\n      jump\t// in\n    tag_140:\n      mload(0x40)\n      dup1\n      swap2\n      sub\n      swap1\n      revert\n    tag_139:\n        /* \"contracts/1_Storage.sol\":4303:4312  usdtToken */\n      0x02\n      0x00\n      swap1\n      sload\n      swap1\n      0x0100\n      exp\n      swap1\n      div\n      0xffffffffffffffffffffffffffffffffffffffff\n      and\n        /* \"contracts/1_Storage.sol\":4303:4321  usdtToken.transfer */\n      0xffffffffffffffffffffffffffffffffffffffff\n      and\n      0xa9059cbb\n        /* \"contracts/1_Storage.sol\":4322:4328  upline */\n      dup7\n        /* \"contracts/1_Storage.sol\":4330:4342  directReward */\n      dup5\n        /* \"contracts/1_Storage.sol\":4303:4343  usdtToken.transfer(upline, directReward) */\n      mload(0x40)\n      dup4\n      0xffffffff\n      and\n      0xe0\n      shl\n      dup2\n      mstore\n      0x04\n      add\n      tag_142\n      swap3\n      swap2\n      swap1\n      tag_143\n      jump\t// in\n    tag_142:\n      0x20\n      mload(0x40)\n      dup1\n      dup4\n      sub\n      dup2\n      0x00\n      dup8\n      gas\n      call\n      iszero\n      dup1\n      iszero\n      tag_145\n      jumpi\n      returndatasize\n      0x00\n      dup1\n      returndatacopy\n      revert(0x00, returndatasize)\n    tag_145:\n      pop\n      pop\n      pop\n      pop\n      mload(0x40)\n      returndatasize\n      not(0x1f)\n      0x1f\n      dup3\n      add\n      and\n      dup3\n      add\n      dup1\n      0x40\n      mstore\n      pop\n      dup2\n      add\n      swap1\n      tag_146\n      swap2\n      swap1\n      tag_113\n      jump\t// in\n    tag_146:\n        /* \"contracts/1_Storage.sol\":4295:4379  require(usdtToken.transfer(upline, directReward), \"Direct referral transfer failed\") */\n      tag_147\n      jumpi\n      mload(0x40)\n      0x08c379a000000000000000000000000000000000000000000000000000000000\n      dup2\n      mstore\n      0x04\n      add\n      tag_148\n      swap1\n      tag_149\n      jump\t// in\n    tag_148:\n      mload(0x40)\n      dup1\n      swap2\n      sub\n      swap1\n      revert\n    tag_147:\n        /* \"contracts/1_Storage.sol\":4405:4414  usdtToken */\n      0x02\n      0x00\n      swap1\n      sload\n      swap1\n      0x0100\n      exp\n      swap1\n      div\n      0xffffffffffffffffffffffffffffffffffffffff\n      and\n        /* \"contracts/1_Storage.sol\":4405:4423  usdtToken.transfer */\n      0xffffffffffffffffffffffffffffffffffffffff\n      and\n      0xa9059cbb\n        /* \"contracts/1_Storage.sol\":4424:4430  upline */\n      dup7\n        /* \"contracts/1_Storage.sol\":4432:4444  level1Reward */\n      dup4\n        /* \"contracts/1_Storage.sol\":4405:4445  usdtToken.transfer(upline, level1Reward) */\n      mload(0x40)\n      dup4\n      0xffffffff\n      and\n      0xe0\n      shl\n      dup2\n      mstore\n      0x04\n      add\n      tag_150\n      swap3\n      swap2\n      swap1\n      tag_143\n      jump\t// in\n    tag_150:\n      0x20\n      mload(0x40)\n      dup1\n      dup4\n      sub\n      dup2\n      0x00\n      dup8\n      gas\n      call\n      iszero\n      dup1\n      iszero\n      tag_152\n      jumpi\n      returndatasize\n      0x00\n      dup1\n      returndatacopy\n      revert(0x00, returndatasize)\n    tag_152:\n      pop\n      pop\n      pop\n      pop\n      mload(0x40)\n      returndatasize\n      not(0x1f)\n      0x1f\n      dup3\n      add\n      and\n      dup3\n      add\n      dup1\n      0x40\n      mstore\n      pop\n      dup2\n      add\n      swap1\n      tag_153\n      swap2\n      swap1\n      tag_113\n      jump\t// in\n    tag_153:\n        /* \"contracts/1_Storage.sol\":4397:4480  require(usdtToken.transfer(upline, level1Reward), \"Level 1 reward transfer failed\") */\n      tag_154\n      jumpi\n      mload(0x40)\n      0x08c379a000000000000000000000000000000000000000000000000000000000\n      dup2\n      mstore\n      0x04\n      add\n      tag_155\n      swap1\n      tag_156\n      jump\t// in\n    tag_155:\n      mload(0x40)\n      dup1\n      swap2\n      sub\n      swap1\n      revert\n    tag_154:\n        /* \"contracts/1_Storage.sol\":4531:4543  directReward */\n      dup2\n        /* \"contracts/1_Storage.sol\":4499:4519  directReferralIncome */\n      0x07\n        /* \"contracts/1_Storage.sol\":4499:4527  directReferralIncome[upline] */\n      0x00\n        /* \"contracts/1_Storage.sol\":4520:4526  upline */\n      dup8\n        /* \"contracts/1_Storage.sol\":4499:4527  directReferralIncome[upline] */\n      0xffffffffffffffffffffffffffffffffffffffff\n      and\n      0xffffffffffffffffffffffffffffffffffffffff\n      and\n      dup2\n      mstore\n      0x20\n      add\n      swap1\n      dup2\n      mstore\n      0x20\n      add\n      0x00\n      keccak256\n      0x00\n        /* \"contracts/1_Storage.sol\":4499:4543  directReferralIncome[upline] += directReward */\n      dup3\n      dup3\n      sload\n      tag_157\n      swap2\n      swap1\n      tag_133\n      jump\t// in\n    tag_157:\n      swap3\n      pop\n      pop\n      dup2\n      swap1\n      sstore\n      pop\n        /* \"contracts/1_Storage.sol\":4605:4617  level1Reward */\n      dup1\n        /* \"contracts/1_Storage.sol\":4590:4602  directReward */\n      dup3\n        /* \"contracts/1_Storage.sol\":4590:4617  directReward + level1Reward */\n      tag_158\n      swap2\n      swap1\n      tag_133\n      jump\t// in\n    tag_158:\n        /* \"contracts/1_Storage.sol\":4561:4566  users */\n      0x03\n        /* \"contracts/1_Storage.sol\":4561:4574  users[upline] */\n      0x00\n        /* \"contracts/1_Storage.sol\":4567:4573  upline */\n      dup8\n        /* \"contracts/1_Storage.sol\":4561:4574  users[upline] */\n      0xffffffffffffffffffffffffffffffffffffffff\n      and\n      0xffffffffffffffffffffffffffffffffffffffff\n      and\n      dup2\n      mstore\n      0x20\n      add\n      swap1\n      dup2\n      mstore\n      0x20\n      add\n      0x00\n      keccak256\n        /* \"contracts/1_Storage.sol\":4561:4586  users[upline].totalIncome */\n      0x02\n      add\n      0x00\n        /* \"contracts/1_Storage.sol\":4561:4617  users[upline].totalIncome += directReward + level1Reward */\n      dup3\n      dup3\n      sload\n      tag_159\n      swap2\n      swap1\n      tag_133\n      jump\t// in\n    tag_159:\n      swap3\n      pop\n      pop\n      dup2\n      swap1\n      sstore\n      pop\n        /* \"contracts/1_Storage.sol\":4664:4676  level1Reward */\n      dup1\n        /* \"contracts/1_Storage.sol\":4635:4640  users */\n      0x03\n        /* \"contracts/1_Storage.sol\":4635:4648  users[upline] */\n      0x00\n        /* \"contracts/1_Storage.sol\":4641:4647  upline */\n      dup8\n        /* \"contracts/1_Storage.sol\":4635:4648  users[upline] */\n      0xffffffffffffffffffffffffffffffffffffffff\n      and\n      0xffffffffffffffffffffffffffffffffffffffff\n      and\n      dup2\n      mstore\n      0x20\n      add\n      swap1\n      dup2\n      mstore\n      0x20\n      add\n      0x00\n      keccak256\n        /* \"contracts/1_Storage.sol\":4635:4660  users[upline].levelIncome */\n      0x03\n      add\n      0x00\n        /* \"contracts/1_Storage.sol\":4635:4676  users[upline].levelIncome += level1Reward */\n      dup3\n      dup3\n      sload\n      tag_160\n      swap2\n      swap1\n      tag_133\n      jump\t// in\n    tag_160:\n      swap3\n      pop\n      pop\n      dup2\n      swap1\n      sstore\n      pop\n        /* \"contracts/1_Storage.sol\":4748:4775  ReferralInfo[] storage refs */\n      0x00\n        /* \"contracts/1_Storage.sol\":4778:4793  directReferrals */\n      0x04\n        /* \"contracts/1_Storage.sol\":4778:4801  directReferrals[upline] */\n      0x00\n        /* \"contracts/1_Storage.sol\":4794:4800  upline */\n      dup8\n        /* \"contracts/1_Storage.sol\":4778:4801  directReferrals[upline] */\n      0xffffffffffffffffffffffffffffffffffffffff\n      and\n      0xffffffffffffffffffffffffffffffffffffffff\n      and\n      dup2\n      mstore\n      0x20\n      add\n      swap1\n      dup2\n      mstore\n      0x20\n      add\n      0x00\n      keccak256\n        /* \"contracts/1_Storage.sol\":4748:4801  ReferralInfo[] storage refs = directReferrals[upline] */\n      swap1\n      pop\n        /* \"contracts/1_Storage.sol\":4824:4833  uint256 j */\n      0x00\n        /* \"contracts/1_Storage.sol\":4819:5097  for (uint256 j = 0; j < refs.length; j++) {... */\n    tag_161:\n        /* \"contracts/1_Storage.sol\":4843:4847  refs */\n      dup2\n        /* \"contracts/1_Storage.sol\":4843:4854  refs.length */\n      dup1\n      sload\n      swap1\n      pop\n        /* \"contracts/1_Storage.sol\":4839:4840  j */\n      dup2\n        /* \"contracts/1_Storage.sol\":4839:4854  j < refs.length */\n      lt\n        /* \"contracts/1_Storage.sol\":4819:5097  for (uint256 j = 0; j < refs.length; j++) {... */\n      iszero\n      tag_162\n      jumpi\n        /* \"contracts/1_Storage.sol\":4914:4924  msg.sender */\n      caller\n        /* \"contracts/1_Storage.sol\":4887:4924  refs[j].referralAddress == msg.sender */\n      0xffffffffffffffffffffffffffffffffffffffff\n      and\n        /* \"contracts/1_Storage.sol\":4887:4891  refs */\n      dup3\n        /* \"contracts/1_Storage.sol\":4892:4893  j */\n      dup3\n        /* \"contracts/1_Storage.sol\":4887:4894  refs[j] */\n      dup2\n      sload\n      dup2\n      lt\n      tag_164\n      jumpi\n      tag_165\n      tag_166\n      jump\t// in\n    tag_165:\n    tag_164:\n      swap1\n      0x00\n      mstore\n      keccak256(0x00, 0x20)\n      swap1\n      0x03\n      mul\n      add\n        /* \"contracts/1_Storage.sol\":4887:4910  refs[j].referralAddress */\n      0x00\n      add\n      0x00\n      swap1\n      sload\n      swap1\n      0x0100\n      exp\n      swap1\n      div\n      0xffffffffffffffffffffffffffffffffffffffff\n      and\n        /* \"contracts/1_Storage.sol\":4887:4924  refs[j].referralAddress == msg.sender */\n      0xffffffffffffffffffffffffffffffffffffffff\n      and\n      sub\n        /* \"contracts/1_Storage.sol\":4883:5079  if (refs[j].referralAddress == msg.sender) {... */\n      tag_168\n      jumpi\n        /* \"contracts/1_Storage.sol\":4976:4988  directReward */\n      dup4\n        /* \"contracts/1_Storage.sol\":4952:4956  refs */\n      dup3\n        /* \"contracts/1_Storage.sol\":4957:4958  j */\n      dup3\n        /* \"contracts/1_Storage.sol\":4952:4959  refs[j] */\n      dup2\n      sload\n      dup2\n      lt\n      tag_169\n      jumpi\n      tag_170\n      tag_166\n      jump\t// in\n    tag_170:\n    tag_169:\n      swap1\n      0x00\n      mstore\n      keccak256(0x00, 0x20)\n      swap1\n      0x03\n      mul\n      add\n        /* \"contracts/1_Storage.sol\":4952:4972  refs[j].incomeEarned */\n      0x01\n      add\n      0x00\n        /* \"contracts/1_Storage.sol\":4952:4988  refs[j].incomeEarned += directReward */\n      dup3\n      dup3\n      sload\n      tag_172\n      swap2\n      swap1\n      tag_133\n      jump\t// in\n    tag_172:\n      swap3\n      pop\n      pop\n      dup2\n      swap1\n      sstore\n      pop\n        /* \"contracts/1_Storage.sol\":5051:5056  break */\n      jump(tag_162)\n        /* \"contracts/1_Storage.sol\":4883:5079  if (refs[j].referralAddress == msg.sender) {... */\n    tag_168:\n        /* \"contracts/1_Storage.sol\":4856:4859  j++ */\n      dup1\n      dup1\n      0x01\n      add\n      swap2\n      pop\n      pop\n        /* \"contracts/1_Storage.sol\":4819:5097  for (uint256 j = 0; j < refs.length; j++) {... */\n      jump(tag_161)\n    tag_162:\n      pop\n        /* \"contracts/1_Storage.sol\":3990:5111  {... */\n      pop\n      pop\n      pop\n        /* \"contracts/1_Storage.sol\":3972:5574  if (isFirstStake) {... */\n      jump(tag_173)\n    tag_125:\n        /* \"contracts/1_Storage.sol\":5173:5176  100 */\n      0x64\n        /* \"contracts/1_Storage.sol\":5154:5166  levelRewards */\n      0x09\n        /* \"contracts/1_Storage.sol\":5167:5168  i */\n      dup4\n        /* \"contracts/1_Storage.sol\":5154:5169  levelRewards[i] */\n      0xff\n      and\n      0x05\n      dup2\n      lt\n      tag_174\n      jumpi\n      tag_175\n      tag_166\n      jump\t// in\n    tag_175:\n    tag_174:\n      0x20\n      swap2\n      dup3\n      dup3\n      div\n      add\n      swap2\n      swap1\n      mod\n      swap1\n      sload\n      swap1\n      0x0100\n      exp\n      swap1\n      div\n      0xff\n      and\n        /* \"contracts/1_Storage.sol\":5145:5169  amount * levelRewards[i] */\n      0xff\n      and\n        /* \"contracts/1_Storage.sol\":5145:5151  amount */\n      dup10\n        /* \"contracts/1_Storage.sol\":5145:5169  amount * levelRewards[i] */\n      tag_177\n      swap2\n      swap1\n      tag_127\n      jump\t// in\n    tag_177:\n        /* \"contracts/1_Storage.sol\":5144:5176  (amount * levelRewards[i]) / 100 */\n      tag_178\n      swap2\n      swap1\n      tag_129\n      jump\t// in\n    tag_178:\n        /* \"contracts/1_Storage.sol\":5135:5176  reward = (amount * levelRewards[i]) / 100 */\n      swap1\n      pop\n        /* \"contracts/1_Storage.sol\":5240:5246  reward */\n      dup1\n        /* \"contracts/1_Storage.sol\":5202:5211  usdtToken */\n      0x02\n      0x00\n      swap1\n      sload\n      swap1\n      0x0100\n      exp\n      swap1\n      div\n      0xffffffffffffffffffffffffffffffffffffffff\n      and\n        /* \"contracts/1_Storage.sol\":5202:5221  usdtToken.balanceOf */\n      0xffffffffffffffffffffffffffffffffffffffff\n      and\n      0x70a08231\n        /* \"contracts/1_Storage.sol\":5230:5234  this */\n      address\n        /* \"contracts/1_Storage.sol\":5202:5236  usdtToken.balanceOf(address(this)) */\n      mload(0x40)\n      dup3\n      0xffffffff\n      and\n      0xe0\n      shl\n      dup2\n      mstore\n      0x04\n      add\n      tag_179\n      swap2\n      swap1\n      tag_29\n      jump\t// in\n    tag_179:\n      0x20\n      mload(0x40)\n      dup1\n      dup4\n      sub\n      dup2\n      dup7\n      gas\n      staticcall\n      iszero\n      dup1\n      iszero\n      tag_181\n      jumpi\n      returndatasize\n      0x00\n      dup1\n      returndatacopy\n      revert(0x00, returndatasize)\n    tag_181:\n      pop\n      pop\n      pop\n      pop\n      mload(0x40)\n      returndatasize\n      not(0x1f)\n      0x1f\n      dup3\n      add\n      and\n      dup3\n      add\n      dup1\n      0x40\n      mstore\n      pop\n      dup2\n      add\n      swap1\n      tag_182\n      swap2\n      swap1\n      tag_138\n      jump\t// in\n    tag_182:\n        /* \"contracts/1_Storage.sol\":5202:5246  usdtToken.balanceOf(address(this)) >= reward */\n      lt\n      iszero\n        /* \"contracts/1_Storage.sol\":5194:5280  require(usdtToken.balanceOf(address(this)) >= reward, \"Insufficient contract balance\") */\n      tag_183\n      jumpi\n      mload(0x40)\n      0x08c379a000000000000000000000000000000000000000000000000000000000\n      dup2\n      mstore\n      0x04\n      add\n      tag_184\n      swap1\n      tag_141\n      jump\t// in\n    tag_184:\n      mload(0x40)\n      dup1\n      swap2\n      sub\n      swap1\n      revert\n    tag_183:\n        /* \"contracts/1_Storage.sol\":5306:5315  usdtToken */\n      0x02\n      0x00\n      swap1\n      sload\n      swap1\n      0x0100\n      exp\n      swap1\n      div\n      0xffffffffffffffffffffffffffffffffffffffff\n      and\n        /* \"contracts/1_Storage.sol\":5306:5324  usdtToken.transfer */\n      0xffffffffffffffffffffffffffffffffffffffff\n      and\n      0xa9059cbb\n        /* \"contracts/1_Storage.sol\":5325:5331  upline */\n      dup5\n        /* \"contracts/1_Storage.sol\":5333:5339  reward */\n      dup4\n        /* \"contracts/1_Storage.sol\":5306:5340  usdtToken.transfer(upline, reward) */\n      mload(0x40)\n      dup4\n      0xffffffff\n      and\n      0xe0\n      shl\n      dup2\n      mstore\n      0x04\n      add\n      tag_185\n      swap3\n      swap2\n      swap1\n      tag_143\n      jump\t// in\n    tag_185:\n      0x20\n      mload(0x40)\n      dup1\n      dup4\n      sub\n      dup2\n      0x00\n      dup8\n      gas\n      call\n      iszero\n      dup1\n      iszero\n      tag_187\n      jumpi\n      returndatasize\n      0x00\n      dup1\n      returndatacopy\n      revert(0x00, returndatasize)\n    tag_187:\n      pop\n      pop\n      pop\n      pop\n      mload(0x40)\n      returndatasize\n      not(0x1f)\n      0x1f\n      dup3\n      add\n      and\n      dup3\n      add\n      dup1\n      0x40\n      mstore\n      pop\n      dup2\n      add\n      swap1\n      tag_188\n      swap2\n      swap1\n      tag_113\n      jump\t// in\n    tag_188:\n        /* \"contracts/1_Storage.sol\":5298:5375  require(usdtToken.transfer(upline, reward), \"Level 1 reward transfer failed\") */\n      tag_189\n      jumpi\n      mload(0x40)\n      0x08c379a000000000000000000000000000000000000000000000000000000000\n      dup2\n      mstore\n      0x04\n      add\n      tag_190\n      swap1\n      tag_156\n      jump\t// in\n    tag_190:\n      mload(0x40)\n      dup1\n      swap2\n      sub\n      swap1\n      revert\n    tag_189:\n        /* \"contracts/1_Storage.sol\":5423:5429  reward */\n      dup1\n        /* \"contracts/1_Storage.sol\":5394:5399  users */\n      0x03\n        /* \"contracts/1_Storage.sol\":5394:5407  users[upline] */\n      0x00\n        /* \"contracts/1_Storage.sol\":5400:5406  upline */\n      dup6\n        /* \"contracts/1_Storage.sol\":5394:5407  users[upline] */\n      0xffffffffffffffffffffffffffffffffffffffff\n      and\n      0xffffffffffffffffffffffffffffffffffffffff\n      and\n      dup2\n      mstore\n      0x20\n      add\n      swap1\n      dup2\n      mstore\n      0x20\n      add\n      0x00\n      keccak256\n        /* \"contracts/1_Storage.sol\":5394:5419  users[upline].totalIncome */\n      0x02\n      add\n      0x00\n        /* \"contracts/1_Storage.sol\":5394:5429  users[upline].totalIncome += reward */\n      dup3\n      dup3\n      sload\n      tag_191\n      swap2\n      swap1\n      tag_133\n      jump\t// in\n    tag_191:\n      swap3\n      pop\n      pop\n      dup2\n      swap1\n      sstore\n      pop\n        /* \"contracts/1_Storage.sol\":5476:5482  reward */\n      dup1\n        /* \"contracts/1_Storage.sol\":5447:5452  users */\n      0x03\n        /* \"contracts/1_Storage.sol\":5447:5460  users[upline] */\n      0x00\n        /* \"contracts/1_Storage.sol\":5453:5459  upline */\n      dup6\n        /* \"contracts/1_Storage.sol\":5447:5460  users[upline] */\n      0xffffffffffffffffffffffffffffffffffffffff\n      and\n      0xffffffffffffffffffffffffffffffffffffffff\n      and\n      dup2\n      mstore\n      0x20\n      add\n      swap1\n      dup2\n      mstore\n      0x20\n      add\n      0x00\n      keccak256\n        /* \"contracts/1_Storage.sol\":5447:5472  users[upline].levelIncome */\n      0x03\n      add\n      0x00\n        /* \"contracts/1_Storage.sol\":5447:5482  users[upline].levelIncome += reward */\n      dup3\n      dup3\n      sload\n      tag_192\n      swap2\n      swap1\n      tag_133\n      jump\t// in\n    tag_192:\n      swap3\n      pop\n      pop\n      dup2\n      swap1\n      sstore\n      pop\n        /* \"contracts/1_Storage.sol\":3972:5574  if (isFirstStake) {... */\n    tag_173:\n        /* \"contracts/1_Storage.sol\":3946:6011  if (i == 0) {... */\n      jump(tag_193)\n    tag_124:\n        /* \"contracts/1_Storage.sol\":5642:5645  100 */\n      0x64\n        /* \"contracts/1_Storage.sol\":5623:5635  levelRewards */\n      0x09\n        /* \"contracts/1_Storage.sol\":5636:5637  i */\n      dup4\n        /* \"contracts/1_Storage.sol\":5623:5638  levelRewards[i] */\n      0xff\n      and\n      0x05\n      dup2\n      lt\n      tag_194\n      jumpi\n      tag_195\n      tag_166\n      jump\t// in\n    tag_195:\n    tag_194:\n      0x20\n      swap2\n      dup3\n      dup3\n      div\n      add\n      swap2\n      swap1\n      mod\n      swap1\n      sload\n      swap1\n      0x0100\n      exp\n      swap1\n      div\n      0xff\n      and\n        /* \"contracts/1_Storage.sol\":5614:5638  amount * levelRewards[i] */\n      0xff\n      and\n        /* \"contracts/1_Storage.sol\":5614:5620  amount */\n      dup10\n        /* \"contracts/1_Storage.sol\":5614:5638  amount * levelRewards[i] */\n      tag_197\n      swap2\n      swap1\n      tag_127\n      jump\t// in\n    tag_197:\n        /* \"contracts/1_Storage.sol\":5613:5645  (amount * levelRewards[i]) / 100 */\n      tag_198\n      swap2\n      swap1\n      tag_129\n      jump\t// in\n    tag_198:\n        /* \"contracts/1_Storage.sol\":5604:5645  reward = (amount * levelRewards[i]) / 100 */\n      swap1\n      pop\n        /* \"contracts/1_Storage.sol\":5705:5711  reward */\n      dup1\n        /* \"contracts/1_Storage.sol\":5667:5676  usdtToken */\n      0x02\n      0x00\n      swap1\n      sload\n      swap1\n      0x0100\n      exp\n      swap1\n      div\n      0xffffffffffffffffffffffffffffffffffffffff\n      and\n        /* \"contracts/1_Storage.sol\":5667:5686  usdtToken.balanceOf */\n      0xffffffffffffffffffffffffffffffffffffffff\n      and\n      0x70a08231\n        /* \"contracts/1_Storage.sol\":5695:5699  this */\n      address\n        /* \"contracts/1_Storage.sol\":5667:5701  usdtToken.balanceOf(address(this)) */\n      mload(0x40)\n      dup3\n      0xffffffff\n      and\n      0xe0\n      shl\n      dup2\n      mstore\n      0x04\n      add\n      tag_199\n      swap2\n      swap1\n      tag_29\n      jump\t// in\n    tag_199:\n      0x20\n      mload(0x40)\n      dup1\n      dup4\n      sub\n      dup2\n      dup7\n      gas\n      staticcall\n      iszero\n      dup1\n      iszero\n      tag_201\n      jumpi\n      returndatasize\n      0x00\n      dup1\n      returndatacopy\n      revert(0x00, returndatasize)\n    tag_201:\n      pop\n      pop\n      pop\n      pop\n      mload(0x40)\n      returndatasize\n      not(0x1f)\n      0x1f\n      dup3\n      add\n      and\n      dup3\n      add\n      dup1\n      0x40\n      mstore\n      pop\n      dup2\n      add\n      swap1\n      tag_202\n      swap2\n      swap1\n      tag_138\n      jump\t// in\n    tag_202:\n        /* \"contracts/1_Storage.sol\":5667:5711  usdtToken.balanceOf(address(this)) >= reward */\n      lt\n      iszero\n        /* \"contracts/1_Storage.sol\":5659:5745  require(usdtToken.balanceOf(address(this)) >= reward, \"Insufficient contract balance\") */\n      tag_203\n      jumpi\n      mload(0x40)\n      0x08c379a000000000000000000000000000000000000000000000000000000000\n      dup2\n      mstore\n      0x04\n      add\n      tag_204\n      swap1\n      tag_141\n      jump\t// in\n    tag_204:\n      mload(0x40)\n      dup1\n      swap2\n      sub\n      swap1\n      revert\n    tag_203:\n        /* \"contracts/1_Storage.sol\":5767:5776  usdtToken */\n      0x02\n      0x00\n      swap1\n      sload\n      swap1\n      0x0100\n      exp\n      swap1\n      div\n      0xffffffffffffffffffffffffffffffffffffffff\n      and\n        /* \"contracts/1_Storage.sol\":5767:5785  usdtToken.transfer */\n      0xffffffffffffffffffffffffffffffffffffffff\n      and\n      0xa9059cbb\n        /* \"contracts/1_Storage.sol\":5786:5792  upline */\n      dup5\n        /* \"contracts/1_Storage.sol\":5794:5800  reward */\n      dup4\n        /* \"contracts/1_Storage.sol\":5767:5801  usdtToken.transfer(upline, reward) */\n      mload(0x40)\n      dup4\n      0xffffffff\n      and\n      0xe0\n      shl\n      dup2\n      mstore\n      0x04\n      add\n      tag_205\n      swap3\n      swap2\n      swap1\n      tag_143\n      jump\t// in\n    tag_205:\n      0x20\n      mload(0x40)\n      dup1\n      dup4\n      sub\n      dup2\n      0x00\n      dup8\n      gas\n      call\n      iszero\n      dup1\n      iszero\n      tag_207\n      jumpi\n      returndatasize\n      0x00\n      dup1\n      returndatacopy\n      revert(0x00, returndatasize)\n    tag_207:\n      pop\n      pop\n      pop\n      pop\n      mload(0x40)\n      returndatasize\n      not(0x1f)\n      0x1f\n      dup3\n      add\n      and\n      dup3\n      add\n      dup1\n      0x40\n      mstore\n      pop\n      dup2\n      add\n      swap1\n      tag_208\n      swap2\n      swap1\n      tag_113\n      jump\t// in\n    tag_208:\n        /* \"contracts/1_Storage.sol\":5759:5834  require(usdtToken.transfer(upline, reward), \"Level reward transfer failed\") */\n      tag_209\n      jumpi\n      mload(0x40)\n      0x08c379a000000000000000000000000000000000000000000000000000000000\n      dup2\n      mstore\n      0x04\n      add\n      tag_210\n      swap1\n      tag_211\n      jump\t// in\n    tag_210:\n      mload(0x40)\n      dup1\n      swap2\n      sub\n      swap1\n      revert\n    tag_209:\n        /* \"contracts/1_Storage.sol\":5878:5884  reward */\n      dup1\n        /* \"contracts/1_Storage.sol\":5849:5854  users */\n      0x03\n        /* \"contracts/1_Storage.sol\":5849:5862  users[upline] */\n      0x00\n        /* \"contracts/1_Storage.sol\":5855:5861  upline */\n      dup6\n        /* \"contracts/1_Storage.sol\":5849:5862  users[upline] */\n      0xffffffffffffffffffffffffffffffffffffffff\n      and\n      0xffffffffffffffffffffffffffffffffffffffff\n      and\n      dup2\n      mstore\n      0x20\n      add\n      swap1\n      dup2\n      mstore\n      0x20\n      add\n      0x00\n      keccak256\n        /* \"contracts/1_Storage.sol\":5849:5874  users[upline].totalIncome */\n      0x02\n      add\n      0x00\n        /* \"contracts/1_Storage.sol\":5849:5884  users[upline].totalIncome += reward */\n      dup3\n      dup3\n      sload\n      tag_212\n      swap2\n      swap1\n      tag_133\n      jump\t// in\n    tag_212:\n      swap3\n      pop\n      pop\n      dup2\n      swap1\n      sstore\n      pop\n        /* \"contracts/1_Storage.sol\":5927:5933  reward */\n      dup1\n        /* \"contracts/1_Storage.sol\":5898:5903  users */\n      0x03\n        /* \"contracts/1_Storage.sol\":5898:5911  users[upline] */\n      0x00\n        /* \"contracts/1_Storage.sol\":5904:5910  upline */\n      dup6\n        /* \"contracts/1_Storage.sol\":5898:5911  users[upline] */\n      0xffffffffffffffffffffffffffffffffffffffff\n      and\n      0xffffffffffffffffffffffffffffffffffffffff\n      and\n      dup2\n      mstore\n      0x20\n      add\n      swap1\n      dup2\n      mstore\n      0x20\n      add\n      0x00\n      keccak256\n        /* \"contracts/1_Storage.sol\":5898:5923  users[upline].levelIncome */\n      0x03\n      add\n      0x00\n        /* \"contracts/1_Storage.sol\":5898:5933  users[upline].levelIncome += reward */\n      dup3\n      dup3\n      sload\n      tag_213\n      swap2\n      swap1\n      tag_133\n      jump\t// in\n    tag_213:\n      swap3\n      pop\n      pop\n      dup2\n      swap1\n      sstore\n      pop\n        /* \"contracts/1_Storage.sol\":3946:6011  if (i == 0) {... */\n    tag_193:\n        /* \"contracts/1_Storage.sol\":6030:6035  users */\n      0x03\n        /* \"contracts/1_Storage.sol\":6030:6043  users[upline] */\n      0x00\n        /* \"contracts/1_Storage.sol\":6036:6042  upline */\n      dup5\n        /* \"contracts/1_Storage.sol\":6030:6043  users[upline] */\n      0xffffffffffffffffffffffffffffffffffffffff\n      and\n      0xffffffffffffffffffffffffffffffffffffffff\n      and\n      dup2\n      mstore\n      0x20\n      add\n      swap1\n      dup2\n      mstore\n      0x20\n      add\n      0x00\n      keccak256\n        /* \"contracts/1_Storage.sol\":6030:6052  users[upline].referrer */\n      0x00\n      add\n      0x00\n      swap1\n      sload\n      swap1\n      0x0100\n      exp\n      swap1\n      div\n      0xffffffffffffffffffffffffffffffffffffffff\n      and\n        /* \"contracts/1_Storage.sol\":6021:6052  upline = users[upline].referrer */\n      swap3\n      pop\n        /* \"contracts/1_Storage.sol\":3907:6059  {... */\n      pop\n        /* \"contracts/1_Storage.sol\":3902:3905  i++ */\n      dup1\n      dup1\n      tag_214\n      swap1\n      tag_215\n      jump\t// in\n    tag_214:\n      swap2\n      pop\n      pop\n        /* \"contracts/1_Storage.sol\":3835:6059  for (uint8 i = 0; i < levelRewards.length && upline != address(0); i++) {... */\n      jump(tag_120)\n    tag_121:\n      pop\n        /* \"contracts/1_Storage.sol\":2916:6061  {... */\n      pop\n      pop\n      pop\n      pop\n      pop\n        /* \"contracts/1_Storage.sol\":2844:6061  function stake(uint256 numDays, uint256 amount) external onlyRegistered {... */\n      pop\n      pop\n      jump\t// out\n        /* \"contracts/1_Storage.sol\":1587:1632  mapping(uint256 => uint256) public stakingAPY */\n    tag_40:\n      mstore(0x20, 0x06)\n      dup1\n      0x00\n      mstore\n      keccak256(0x00, 0x40)\n      0x00\n      swap2\n      pop\n      swap1\n      pop\n      sload\n      dup2\n      jump\t// out\n        /* \"contracts/1_Storage.sol\":422:442  address public owner */\n    tag_44:\n      0x00\n      dup1\n      sload\n      swap1\n      0x0100\n      exp\n      swap1\n      div\n      0xffffffffffffffffffffffffffffffffffffffff\n      and\n      dup2\n      jump\t// out\n        /* \"contracts/1_Storage.sol\":1700:1725  address[] public allUsers */\n    tag_48:\n      0x08\n      dup2\n      dup2\n      sload\n      dup2\n      lt\n      tag_216\n      jumpi\n      0x00\n      dup1\n      revert\n    tag_216:\n      swap1\n      0x00\n      mstore\n      keccak256(0x00, 0x20)\n      add\n      0x00\n      swap2\n      pop\n      sload\n      swap1\n      0x0100\n      exp\n      swap1\n      div\n      0xffffffffffffffffffffffffffffffffffffffff\n      and\n      dup2\n      jump\t// out\n        /* \"contracts/1_Storage.sol\":1424:1461  mapping(address => User) public users */\n    tag_52:\n      mstore(0x20, 0x03)\n      dup1\n      0x00\n      mstore\n      keccak256(0x00, 0x40)\n      0x00\n      swap2\n      pop\n      swap1\n      pop\n      dup1\n      0x00\n      add\n      0x00\n      swap1\n      sload\n      swap1\n      0x0100\n      exp\n      swap1\n      div\n      0xffffffffffffffffffffffffffffffffffffffff\n      and\n      swap1\n      dup1\n      0x02\n      add\n      sload\n      swap1\n      dup1\n      0x03\n      add\n      sload\n      swap1\n      dup1\n      0x04\n      add\n      0x00\n      swap1\n      sload\n      swap1\n      0x0100\n      exp\n      swap1\n      div\n      0xff\n      and\n      swap1\n      pop\n      dup5\n      jump\t// out\n        /* \"contracts/1_Storage.sol\":481:504  IERC20 public usdtToken */\n    tag_56:\n      0x02\n      0x00\n      swap1\n      sload\n      swap1\n      0x0100\n      exp\n      swap1\n      div\n      0xffffffffffffffffffffffffffffffffffffffff\n      and\n      dup2\n      jump\t// out\n        /* \"contracts/1_Storage.sol\":6139:6690  function getDirectReferralIncomeData(address user) external view returns (ReferralIncomeView[] memory) {... */\n    tag_61:\n        /* \"contracts/1_Storage.sol\":6213:6240  ReferralIncomeView[] memory */\n      0x60\n        /* \"contracts/1_Storage.sol\":6252:6278  ReferralInfo[] memory refs */\n      0x00\n        /* \"contracts/1_Storage.sol\":6281:6296  directReferrals */\n      0x04\n        /* \"contracts/1_Storage.sol\":6281:6302  directReferrals[user] */\n      0x00\n        /* \"contracts/1_Storage.sol\":6297:6301  user */\n      dup5\n        /* \"contracts/1_Storage.sol\":6281:6302  directReferrals[user] */\n      0xffffffffffffffffffffffffffffffffffffffff\n      and\n      0xffffffffffffffffffffffffffffffffffffffff\n      and\n      dup2\n      mstore\n      0x20\n      add\n      swap1\n      dup2\n      mstore\n      0x20\n      add\n      0x00\n      keccak256\n        /* \"contracts/1_Storage.sol\":6252:6302  ReferralInfo[] memory refs = directReferrals[user] */\n      dup1\n      sload\n      dup1\n      0x20\n      mul\n      0x20\n      add\n      mload(0x40)\n      swap1\n      dup2\n      add\n      0x40\n      mstore\n      dup1\n      swap3\n      swap2\n      swap1\n      dup2\n      dup2\n      mstore\n      0x20\n      add\n      0x00\n      swap1\n    tag_219:\n      dup3\n      dup3\n      lt\n      iszero\n      tag_220\n      jumpi\n      dup4\n      dup3\n      swap1\n      0x00\n      mstore\n      keccak256(0x00, 0x20)\n      swap1\n      0x03\n      mul\n      add\n      mload(0x40)\n      dup1\n      0x60\n      add\n      0x40\n      mstore\n      swap1\n      dup2\n      0x00\n      dup3\n      add\n      0x00\n      swap1\n      sload\n      swap1\n      0x0100\n      exp\n      swap1\n      div\n      0xffffffffffffffffffffffffffffffffffffffff\n      and\n      0xffffffffffffffffffffffffffffffffffffffff\n      and\n      0xffffffffffffffffffffffffffffffffffffffff\n      and\n      dup2\n      mstore\n      0x20\n      add\n      0x01\n      dup3\n      add\n      sload\n      dup2\n      mstore\n      0x20\n      add\n      0x02\n      dup3\n      add\n      sload\n      dup2\n      mstore\n      pop\n      pop\n      dup2\n      mstore\n      0x20\n      add\n      swap1\n      0x01\n      add\n      swap1\n      jump(tag_219)\n    tag_220:\n      pop\n      pop\n      pop\n      pop\n      swap1\n      pop\n        /* \"contracts/1_Storage.sol\":6312:6344  ReferralIncomeView[] memory data */\n      0x00\n        /* \"contracts/1_Storage.sol\":6372:6376  refs */\n      dup2\n        /* \"contracts/1_Storage.sol\":6372:6383  refs.length */\n      mload\n        /* \"contracts/1_Storage.sol\":6347:6384  new ReferralIncomeView[](refs.length) */\n      0xffffffffffffffff\n      dup2\n      gt\n      iszero\n      tag_222\n      jumpi\n      tag_223\n      tag_224\n      jump\t// in\n    tag_223:\n    tag_222:\n      mload(0x40)\n      swap1\n      dup1\n      dup3\n      mstore\n      dup1\n      0x20\n      mul\n      0x20\n      add\n      dup3\n      add\n      0x40\n      mstore\n      dup1\n      iszero\n      tag_225\n      jumpi\n      dup2\n      0x20\n      add\n    tag_226:\n      tag_227\n      tag_228\n      jump\t// in\n    tag_227:\n      dup2\n      mstore\n      0x20\n      add\n      swap1\n      0x01\n      swap1\n      sub\n      swap1\n      dup2\n      tag_226\n      jumpi\n      swap1\n      pop\n    tag_225:\n      pop\n        /* \"contracts/1_Storage.sol\":6312:6384  ReferralIncomeView[] memory data = new ReferralIncomeView[](refs.length) */\n      swap1\n      pop\n        /* \"contracts/1_Storage.sol\":6400:6409  uint256 i */\n      0x00\n        /* \"contracts/1_Storage.sol\":6395:6662  for (uint256 i = 0; i < refs.length; i++) {... */\n    tag_229:\n        /* \"contracts/1_Storage.sol\":6419:6423  refs */\n      dup3\n        /* \"contracts/1_Storage.sol\":6419:6430  refs.length */\n      mload\n        /* \"contracts/1_Storage.sol\":6415:6416  i */\n      dup2\n        /* \"contracts/1_Storage.sol\":6415:6430  i < refs.length */\n      lt\n        /* \"contracts/1_Storage.sol\":6395:6662  for (uint256 i = 0; i < refs.length; i++) {... */\n      iszero\n      tag_230\n      jumpi\n        /* \"contracts/1_Storage.sol\":6461:6651  ReferralIncomeView({... */\n      mload(0x40)\n      dup1\n      0x60\n      add\n      0x40\n      mstore\n      dup1\n        /* \"contracts/1_Storage.sol\":6515:6519  refs */\n      dup5\n        /* \"contracts/1_Storage.sol\":6520:6521  i */\n      dup4\n        /* \"contracts/1_Storage.sol\":6515:6522  refs[i] */\n      dup2\n      mload\n      dup2\n      lt\n      tag_232\n      jumpi\n      tag_233\n      tag_166\n      jump\t// in\n    tag_233:\n    tag_232:\n      0x20\n      mul\n      0x20\n      add\n      add\n      mload\n        /* \"contracts/1_Storage.sol\":6515:6538  refs[i].referralAddress */\n      0x00\n      add\n      mload\n        /* \"contracts/1_Storage.sol\":6461:6651  ReferralIncomeView({... */\n      0xffffffffffffffffffffffffffffffffffffffff\n      and\n      dup2\n      mstore\n      0x20\n      add\n        /* \"contracts/1_Storage.sol\":6570:6574  refs */\n      dup5\n        /* \"contracts/1_Storage.sol\":6575:6576  i */\n      dup4\n        /* \"contracts/1_Storage.sol\":6570:6577  refs[i] */\n      dup2\n      mload\n      dup2\n      lt\n      tag_234\n      jumpi\n      tag_235\n      tag_166\n      jump\t// in\n    tag_235:\n    tag_234:\n      0x20\n      mul\n      0x20\n      add\n      add\n      mload\n        /* \"contracts/1_Storage.sol\":6570:6590  refs[i].incomeEarned */\n      0x20\n      add\n      mload\n        /* \"contracts/1_Storage.sol\":6461:6651  ReferralIncomeView({... */\n      dup2\n      mstore\n      0x20\n      add\n        /* \"contracts/1_Storage.sol\":6619:6623  refs */\n      dup5\n        /* \"contracts/1_Storage.sol\":6624:6625  i */\n      dup4\n        /* \"contracts/1_Storage.sol\":6619:6626  refs[i] */\n      dup2\n      mload\n      dup2\n      lt\n      tag_236\n      jumpi\n      tag_237\n      tag_166\n      jump\t// in\n    tag_237:\n    tag_236:\n      0x20\n      mul\n      0x20\n      add\n      add\n      mload\n        /* \"contracts/1_Storage.sol\":6619:6636  refs[i].timestamp */\n      0x40\n      add\n      mload\n        /* \"contracts/1_Storage.sol\":6461:6651  ReferralIncomeView({... */\n      dup2\n      mstore\n      pop\n        /* \"contracts/1_Storage.sol\":6451:6455  data */\n      dup3\n        /* \"contracts/1_Storage.sol\":6456:6457  i */\n      dup3\n        /* \"contracts/1_Storage.sol\":6451:6458  data[i] */\n      dup2\n      mload\n      dup2\n      lt\n      tag_238\n      jumpi\n      tag_239\n      tag_166\n      jump\t// in\n    tag_239:\n    tag_238:\n      0x20\n      mul\n      0x20\n      add\n      add\n        /* \"contracts/1_Storage.sol\":6451:6651  data[i] = ReferralIncomeView({... */\n      dup2\n      swap1\n      mstore\n      pop\n        /* \"contracts/1_Storage.sol\":6432:6435  i++ */\n      dup1\n      dup1\n      0x01\n      add\n      swap2\n      pop\n      pop\n        /* \"contracts/1_Storage.sol\":6395:6662  for (uint256 i = 0; i < refs.length; i++) {... */\n      jump(tag_229)\n    tag_230:\n      pop\n        /* \"contracts/1_Storage.sol\":6679:6683  data */\n      dup1\n        /* \"contracts/1_Storage.sol\":6672:6683  return data */\n      swap3\n      pop\n      pop\n      pop\n        /* \"contracts/1_Storage.sol\":6139:6690  function getDirectReferralIncomeData(address user) external view returns (ReferralIncomeView[] memory) {... */\n      swap2\n      swap1\n      pop\n      jump\t// out\n        /* \"contracts/1_Storage.sol\":1731:1777  uint8[5] public levelRewards = [5, 3, 2, 1, 1] */\n    tag_66:\n      0x09\n      dup2\n      0x05\n      dup2\n      lt\n      tag_240\n      jumpi\n      0x00\n      dup1\n      revert\n    tag_240:\n      0x20\n      swap2\n      dup3\n      dup3\n      div\n      add\n      swap2\n      swap1\n      mod\n      swap2\n      pop\n      sload\n      swap1\n      0x0100\n      exp\n      swap1\n      div\n      0xff\n      and\n      dup2\n      jump\t// out\n        /* \"contracts/1_Storage.sol\":1638:1693  mapping(address => uint256) public directReferralIncome */\n    tag_71:\n      mstore(0x20, 0x07)\n      dup1\n      0x00\n      mstore\n      keccak256(0x00, 0x40)\n      0x00\n      swap2\n      pop\n      swap1\n      pop\n      sload\n      dup2\n      jump\t// out\n        /* \"contracts/1_Storage.sol\":448:475  uint256 public stakeCounter */\n    tag_74:\n      sload(0x01)\n      dup2\n      jump\t// out\n    tag_228:\n      mload(0x40)\n      dup1\n      0x60\n      add\n      0x40\n      mstore\n      dup1\n      and(0xffffffffffffffffffffffffffffffffffffffff, 0x00)\n      dup2\n      mstore\n      0x20\n      add\n      0x00\n      dup2\n      mstore\n      0x20\n      add\n      0x00\n      dup2\n      mstore\n      pop\n      swap1\n      jump\t// out\n        /* \"#utility.yul\":88:205   */\n    tag_243:\n        /* \"#utility.yul\":197:198   */\n      0x00\n        /* \"#utility.yul\":194:195   */\n      dup1\n        /* \"#utility.yul\":187:199   */\n      revert\n        /* \"#utility.yul\":334:460   */\n    tag_245:\n        /* \"#utility.yul\":371:378   */\n      0x00\n        /* \"#utility.yul\":411:453   */\n      0xffffffffffffffffffffffffffffffffffffffff\n        /* \"#utility.yul\":404:409   */\n      dup3\n        /* \"#utility.yul\":400:454   */\n      and\n        /* \"#utility.yul\":389:454   */\n      swap1\n      pop\n        /* \"#utility.yul\":334:460   */\n      swap2\n      swap1\n      pop\n      jump\t// out\n        /* \"#utility.yul\":466:562   */\n    tag_246:\n        /* \"#utility.yul\":503:510   */\n      0x00\n        /* \"#utility.yul\":532:556   */\n      tag_310\n        /* \"#utility.yul\":550:555   */\n      dup3\n        /* \"#utility.yul\":532:556   */\n      tag_245\n      jump\t// in\n    tag_310:\n        /* \"#utility.yul\":521:556   */\n      swap1\n      pop\n        /* \"#utility.yul\":466:562   */\n      swap2\n      swap1\n      pop\n      jump\t// out\n        /* \"#utility.yul\":568:690   */\n    tag_247:\n        /* \"#utility.yul\":641:665   */\n      tag_312\n        /* \"#utility.yul\":659:664   */\n      dup2\n        /* \"#utility.yul\":641:665   */\n      tag_246\n      jump\t// in\n    tag_312:\n        /* \"#utility.yul\":634:639   */\n      dup2\n        /* \"#utility.yul\":631:666   */\n      eq\n        /* \"#utility.yul\":621:684   */\n      tag_313\n      jumpi\n        /* \"#utility.yul\":680:681   */\n      0x00\n        /* \"#utility.yul\":677:678   */\n      dup1\n        /* \"#utility.yul\":670:682   */\n      revert\n        /* \"#utility.yul\":621:684   */\n    tag_313:\n        /* \"#utility.yul\":568:690   */\n      pop\n      jump\t// out\n        /* \"#utility.yul\":696:835   */\n    tag_248:\n        /* \"#utility.yul\":742:747   */\n      0x00\n        /* \"#utility.yul\":780:786   */\n      dup2\n        /* \"#utility.yul\":767:787   */\n      calldataload\n        /* \"#utility.yul\":758:787   */\n      swap1\n      pop\n        /* \"#utility.yul\":796:829   */\n      tag_315\n        /* \"#utility.yul\":823:828   */\n      dup2\n        /* \"#utility.yul\":796:829   */\n      tag_247\n      jump\t// in\n    tag_315:\n        /* \"#utility.yul\":696:835   */\n      swap3\n      swap2\n      pop\n      pop\n      jump\t// out\n        /* \"#utility.yul\":841:918   */\n    tag_249:\n        /* \"#utility.yul\":878:885   */\n      0x00\n        /* \"#utility.yul\":907:912   */\n      dup2\n        /* \"#utility.yul\":896:912   */\n      swap1\n      pop\n        /* \"#utility.yul\":841:918   */\n      swap2\n      swap1\n      pop\n      jump\t// out\n        /* \"#utility.yul\":924:1046   */\n    tag_250:\n        /* \"#utility.yul\":997:1021   */\n      tag_318\n        /* \"#utility.yul\":1015:1020   */\n      dup2\n        /* \"#utility.yul\":997:1021   */\n      tag_249\n      jump\t// in\n    tag_318:\n        /* \"#utility.yul\":990:995   */\n      dup2\n        /* \"#utility.yul\":987:1022   */\n      eq\n        /* \"#utility.yul\":977:1040   */\n      tag_319\n      jumpi\n        /* \"#utility.yul\":1036:1037   */\n      0x00\n        /* \"#utility.yul\":1033:1034   */\n      dup1\n        /* \"#utility.yul\":1026:1038   */\n      revert\n        /* \"#utility.yul\":977:1040   */\n    tag_319:\n        /* \"#utility.yul\":924:1046   */\n      pop\n      jump\t// out\n        /* \"#utility.yul\":1052:1191   */\n    tag_251:\n        /* \"#utility.yul\":1098:1103   */\n      0x00\n        /* \"#utility.yul\":1136:1142   */\n      dup2\n        /* \"#utility.yul\":1123:1143   */\n      calldataload\n        /* \"#utility.yul\":1114:1143   */\n      swap1\n      pop\n        /* \"#utility.yul\":1152:1185   */\n      tag_321\n        /* \"#utility.yul\":1179:1184   */\n      dup2\n        /* \"#utility.yul\":1152:1185   */\n      tag_250\n      jump\t// in\n    tag_321:\n        /* \"#utility.yul\":1052:1191   */\n      swap3\n      swap2\n      pop\n      pop\n      jump\t// out\n        /* \"#utility.yul\":1197:1671   */\n    tag_20:\n        /* \"#utility.yul\":1265:1271   */\n      0x00\n        /* \"#utility.yul\":1273:1279   */\n      dup1\n        /* \"#utility.yul\":1322:1324   */\n      0x40\n        /* \"#utility.yul\":1310:1319   */\n      dup4\n        /* \"#utility.yul\":1301:1308   */\n      dup6\n        /* \"#utility.yul\":1297:1320   */\n      sub\n        /* \"#utility.yul\":1293:1325   */\n      slt\n        /* \"#utility.yul\":1290:1409   */\n      iszero\n      tag_323\n      jumpi\n        /* \"#utility.yul\":1328:1407   */\n      tag_324\n      tag_243\n      jump\t// in\n    tag_324:\n        /* \"#utility.yul\":1290:1409   */\n    tag_323:\n        /* \"#utility.yul\":1448:1449   */\n      0x00\n        /* \"#utility.yul\":1473:1526   */\n      tag_325\n        /* \"#utility.yul\":1518:1525   */\n      dup6\n        /* \"#utility.yul\":1509:1515   */\n      dup3\n        /* \"#utility.yul\":1498:1507   */\n      dup7\n        /* \"#utility.yul\":1494:1516   */\n      add\n        /* \"#utility.yul\":1473:1526   */\n      tag_248\n      jump\t// in\n    tag_325:\n        /* \"#utility.yul\":1463:1526   */\n      swap3\n      pop\n        /* \"#utility.yul\":1419:1536   */\n      pop\n        /* \"#utility.yul\":1575:1577   */\n      0x20\n        /* \"#utility.yul\":1601:1654   */\n      tag_326\n        /* \"#utility.yul\":1646:1653   */\n      dup6\n        /* \"#utility.yul\":1637:1643   */\n      dup3\n        /* \"#utility.yul\":1626:1635   */\n      dup7\n        /* \"#utility.yul\":1622:1644   */\n      add\n        /* \"#utility.yul\":1601:1654   */\n      tag_251\n      jump\t// in\n    tag_326:\n        /* \"#utility.yul\":1591:1654   */\n      swap2\n      pop\n        /* \"#utility.yul\":1546:1664   */\n      pop\n        /* \"#utility.yul\":1197:1671   */\n      swap3\n      pop\n      swap3\n      swap1\n      pop\n      jump\t// out\n        /* \"#utility.yul\":1677:1795   */\n    tag_252:\n        /* \"#utility.yul\":1764:1788   */\n      tag_328\n        /* \"#utility.yul\":1782:1787   */\n      dup2\n        /* \"#utility.yul\":1764:1788   */\n      tag_246\n      jump\t// in\n    tag_328:\n        /* \"#utility.yul\":1759:1762   */\n      dup3\n        /* \"#utility.yul\":1752:1789   */\n      mstore\n        /* \"#utility.yul\":1677:1795   */\n      pop\n      pop\n      jump\t// out\n        /* \"#utility.yul\":1801:1919   */\n    tag_253:\n        /* \"#utility.yul\":1888:1912   */\n      tag_330\n        /* \"#utility.yul\":1906:1911   */\n      dup2\n        /* \"#utility.yul\":1888:1912   */\n      tag_249\n      jump\t// in\n    tag_330:\n        /* \"#utility.yul\":1883:1886   */\n      dup3\n        /* \"#utility.yul\":1876:1913   */\n      mstore\n        /* \"#utility.yul\":1801:1919   */\n      pop\n      pop\n      jump\t// out\n        /* \"#utility.yul\":1925:2367   */\n    tag_23:\n        /* \"#utility.yul\":2074:2078   */\n      0x00\n        /* \"#utility.yul\":2112:2114   */\n      0x60\n        /* \"#utility.yul\":2101:2110   */\n      dup3\n        /* \"#utility.yul\":2097:2115   */\n      add\n        /* \"#utility.yul\":2089:2115   */\n      swap1\n      pop\n        /* \"#utility.yul\":2125:2196   */\n      tag_332\n        /* \"#utility.yul\":2193:2194   */\n      0x00\n        /* \"#utility.yul\":2182:2191   */\n      dup4\n        /* \"#utility.yul\":2178:2195   */\n      add\n        /* \"#utility.yul\":2169:2175   */\n      dup7\n        /* \"#utility.yul\":2125:2196   */\n      tag_252\n      jump\t// in\n    tag_332:\n        /* \"#utility.yul\":2206:2278   */\n      tag_333\n        /* \"#utility.yul\":2274:2276   */\n      0x20\n        /* \"#utility.yul\":2263:2272   */\n      dup4\n        /* \"#utility.yul\":2259:2277   */\n      add\n        /* \"#utility.yul\":2250:2256   */\n      dup6\n        /* \"#utility.yul\":2206:2278   */\n      tag_253\n      jump\t// in\n    tag_333:\n        /* \"#utility.yul\":2288:2360   */\n      tag_334\n        /* \"#utility.yul\":2356:2358   */\n      0x40\n        /* \"#utility.yul\":2345:2354   */\n      dup4\n        /* \"#utility.yul\":2341:2359   */\n      add\n        /* \"#utility.yul\":2332:2338   */\n      dup5\n        /* \"#utility.yul\":2288:2360   */\n      tag_253\n      jump\t// in\n    tag_334:\n        /* \"#utility.yul\":1925:2367   */\n      swap5\n      swap4\n      pop\n      pop\n      pop\n      pop\n      jump\t// out\n        /* \"#utility.yul\":2373:2702   */\n    tag_26:\n        /* \"#utility.yul\":2432:2438   */\n      0x00\n        /* \"#utility.yul\":2481:2483   */\n      0x20\n        /* \"#utility.yul\":2469:2478   */\n      dup3\n        /* \"#utility.yul\":2460:2467   */\n      dup5\n        /* \"#utility.yul\":2456:2479   */\n      sub\n        /* \"#utility.yul\":2452:2484   */\n      slt\n        /* \"#utility.yul\":2449:2568   */\n      iszero\n      tag_336\n      jumpi\n        /* \"#utility.yul\":2487:2566   */\n      tag_337\n      tag_243\n      jump\t// in\n    tag_337:\n        /* \"#utility.yul\":2449:2568   */\n    tag_336:\n        /* \"#utility.yul\":2607:2608   */\n      0x00\n        /* \"#utility.yul\":2632:2685   */\n      tag_338\n        /* \"#utility.yul\":2677:2684   */\n      dup5\n        /* \"#utility.yul\":2668:2674   */\n      dup3\n        /* \"#utility.yul\":2657:2666   */\n      dup6\n        /* \"#utility.yul\":2653:2675   */\n      add\n        /* \"#utility.yul\":2632:2685   */\n      tag_251\n      jump\t// in\n    tag_338:\n        /* \"#utility.yul\":2622:2685   */\n      swap2\n      pop\n        /* \"#utility.yul\":2578:2695   */\n      pop\n        /* \"#utility.yul\":2373:2702   */\n      swap3\n      swap2\n      pop\n      pop\n      jump\t// out\n        /* \"#utility.yul\":2708:2930   */\n    tag_29:\n        /* \"#utility.yul\":2801:2805   */\n      0x00\n        /* \"#utility.yul\":2839:2841   */\n      0x20\n        /* \"#utility.yul\":2828:2837   */\n      dup3\n        /* \"#utility.yul\":2824:2842   */\n      add\n        /* \"#utility.yul\":2816:2842   */\n      swap1\n      pop\n        /* \"#utility.yul\":2852:2923   */\n      tag_340\n        /* \"#utility.yul\":2920:2921   */\n      0x00\n        /* \"#utility.yul\":2909:2918   */\n      dup4\n        /* \"#utility.yul\":2905:2922   */\n      add\n        /* \"#utility.yul\":2896:2902   */\n      dup5\n        /* \"#utility.yul\":2852:2923   */\n      tag_252\n      jump\t// in\n    tag_340:\n        /* \"#utility.yul\":2708:2930   */\n      swap3\n      swap2\n      pop\n      pop\n      jump\t// out\n        /* \"#utility.yul\":2936:3265   */\n    tag_32:\n        /* \"#utility.yul\":2995:3001   */\n      0x00\n        /* \"#utility.yul\":3044:3046   */\n      0x20\n        /* \"#utility.yul\":3032:3041   */\n      dup3\n        /* \"#utility.yul\":3023:3030   */\n      dup5\n        /* \"#utility.yul\":3019:3042   */\n      sub\n        /* \"#utility.yul\":3015:3047   */\n      slt\n        /* \"#utility.yul\":3012:3131   */\n      iszero\n      tag_342\n      jumpi\n        /* \"#utility.yul\":3050:3129   */\n      tag_343\n      tag_243\n      jump\t// in\n    tag_343:\n        /* \"#utility.yul\":3012:3131   */\n    tag_342:\n        /* \"#utility.yul\":3170:3171   */\n      0x00\n        /* \"#utility.yul\":3195:3248   */\n      tag_344\n        /* \"#utility.yul\":3240:3247   */\n      dup5\n        /* \"#utility.yul\":3231:3237   */\n      dup3\n        /* \"#utility.yul\":3220:3229   */\n      dup6\n        /* \"#utility.yul\":3216:3238   */\n      add\n        /* \"#utility.yul\":3195:3248   */\n      tag_248\n      jump\t// in\n    tag_344:\n        /* \"#utility.yul\":3185:3248   */\n      swap2\n      pop\n        /* \"#utility.yul\":3141:3258   */\n      pop\n        /* \"#utility.yul\":2936:3265   */\n      swap3\n      swap2\n      pop\n      pop\n      jump\t// out\n        /* \"#utility.yul\":3271:3745   */\n    tag_36:\n        /* \"#utility.yul\":3339:3345   */\n      0x00\n        /* \"#utility.yul\":3347:3353   */\n      dup1\n        /* \"#utility.yul\":3396:3398   */\n      0x40\n        /* \"#utility.yul\":3384:3393   */\n      dup4\n        /* \"#utility.yul\":3375:3382   */\n      dup6\n        /* \"#utility.yul\":3371:3394   */\n      sub\n        /* \"#utility.yul\":3367:3399   */\n      slt\n        /* \"#utility.yul\":3364:3483   */\n      iszero\n      tag_346\n      jumpi\n        /* \"#utility.yul\":3402:3481   */\n      tag_347\n      tag_243\n      jump\t// in\n    tag_347:\n        /* \"#utility.yul\":3364:3483   */\n    tag_346:\n        /* \"#utility.yul\":3522:3523   */\n      0x00\n        /* \"#utility.yul\":3547:3600   */\n      tag_348\n        /* \"#utility.yul\":3592:3599   */\n      dup6\n        /* \"#utility.yul\":3583:3589   */\n      dup3\n        /* \"#utility.yul\":3572:3581   */\n      dup7\n        /* \"#utility.yul\":3568:3590   */\n      add\n        /* \"#utility.yul\":3547:3600   */\n      tag_251\n      jump\t// in\n    tag_348:\n        /* \"#utility.yul\":3537:3600   */\n      swap3\n      pop\n        /* \"#utility.yul\":3493:3610   */\n      pop\n        /* \"#utility.yul\":3649:3651   */\n      0x20\n        /* \"#utility.yul\":3675:3728   */\n      tag_349\n        /* \"#utility.yul\":3720:3727   */\n      dup6\n        /* \"#utility.yul\":3711:3717   */\n      dup3\n        /* \"#utility.yul\":3700:3709   */\n      dup7\n        /* \"#utility.yul\":3696:3718   */\n      add\n        /* \"#utility.yul\":3675:3728   */\n      tag_251\n      jump\t// in\n    tag_349:\n        /* \"#utility.yul\":3665:3728   */\n      swap2\n      pop\n        /* \"#utility.yul\":3620:3738   */\n      pop\n        /* \"#utility.yul\":3271:3745   */\n      swap3\n      pop\n      swap3\n      swap1\n      pop\n      jump\t// out\n        /* \"#utility.yul\":3751:3973   */\n    tag_42:\n        /* \"#utility.yul\":3844:3848   */\n      0x00\n        /* \"#utility.yul\":3882:3884   */\n      0x20\n        /* \"#utility.yul\":3871:3880   */\n      dup3\n        /* \"#utility.yul\":3867:3885   */\n      add\n        /* \"#utility.yul\":3859:3885   */\n      swap1\n      pop\n        /* \"#utility.yul\":3895:3966   */\n      tag_351\n        /* \"#utility.yul\":3963:3964   */\n      0x00\n        /* \"#utility.yul\":3952:3961   */\n      dup4\n        /* \"#utility.yul\":3948:3965   */\n      add\n        /* \"#utility.yul\":3939:3945   */\n      dup5\n        /* \"#utility.yul\":3895:3966   */\n      tag_253\n      jump\t// in\n    tag_351:\n        /* \"#utility.yul\":3751:3973   */\n      swap3\n      swap2\n      pop\n      pop\n      jump\t// out\n        /* \"#utility.yul\":3979:4069   */\n    tag_254:\n        /* \"#utility.yul\":4013:4020   */\n      0x00\n        /* \"#utility.yul\":4056:4061   */\n      dup2\n        /* \"#utility.yul\":4049:4062   */\n      iszero\n        /* \"#utility.yul\":4042:4063   */\n      iszero\n        /* \"#utility.yul\":4031:4063   */\n      swap1\n      pop\n        /* \"#utility.yul\":3979:4069   */\n      swap2\n      swap1\n      pop\n      jump\t// out\n        /* \"#utility.yul\":4075:4184   */\n    tag_255:\n        /* \"#utility.yul\":4156:4177   */\n      tag_354\n        /* \"#utility.yul\":4171:4176   */\n      dup2\n        /* \"#utility.yul\":4156:4177   */\n      tag_254\n      jump\t// in\n    tag_354:\n        /* \"#utility.yul\":4151:4154   */\n      dup3\n        /* \"#utility.yul\":4144:4178   */\n      mstore\n        /* \"#utility.yul\":4075:4184   */\n      pop\n      pop\n      jump\t// out\n        /* \"#utility.yul\":4190:4731   */\n    tag_54:\n        /* \"#utility.yul\":4361:4365   */\n      0x00\n        /* \"#utility.yul\":4399:4402   */\n      0x80\n        /* \"#utility.yul\":4388:4397   */\n      dup3\n        /* \"#utility.yul\":4384:4403   */\n      add\n        /* \"#utility.yul\":4376:4403   */\n      swap1\n      pop\n        /* \"#utility.yul\":4413:4484   */\n      tag_356\n        /* \"#utility.yul\":4481:4482   */\n      0x00\n        /* \"#utility.yul\":4470:4479   */\n      dup4\n        /* \"#utility.yul\":4466:4483   */\n      add\n        /* \"#utility.yul\":4457:4463   */\n      dup8\n        /* \"#utility.yul\":4413:4484   */\n      tag_252\n      jump\t// in\n    tag_356:\n        /* \"#utility.yul\":4494:4566   */\n      tag_357\n        /* \"#utility.yul\":4562:4564   */\n      0x20\n        /* \"#utility.yul\":4551:4560   */\n      dup4\n        /* \"#utility.yul\":4547:4565   */\n      add\n        /* \"#utility.yul\":4538:4544   */\n      dup7\n        /* \"#utility.yul\":4494:4566   */\n      tag_253\n      jump\t// in\n    tag_357:\n        /* \"#utility.yul\":4576:4648   */\n      tag_358\n        /* \"#utility.yul\":4644:4646   */\n      0x40\n        /* \"#utility.yul\":4633:4642   */\n      dup4\n        /* \"#utility.yul\":4629:4647   */\n      add\n        /* \"#utility.yul\":4620:4626   */\n      dup6\n        /* \"#utility.yul\":4576:4648   */\n      tag_253\n      jump\t// in\n    tag_358:\n        /* \"#utility.yul\":4658:4724   */\n      tag_359\n        /* \"#utility.yul\":4720:4722   */\n      0x60\n        /* \"#utility.yul\":4709:4718   */\n      dup4\n        /* \"#utility.yul\":4705:4723   */\n      add\n        /* \"#utility.yul\":4696:4702   */\n      dup5\n        /* \"#utility.yul\":4658:4724   */\n      tag_255\n      jump\t// in\n    tag_359:\n        /* \"#utility.yul\":4190:4731   */\n      swap6\n      swap5\n      pop\n      pop\n      pop\n      pop\n      pop\n      jump\t// out\n        /* \"#utility.yul\":4737:4797   */\n    tag_256:\n        /* \"#utility.yul\":4765:4768   */\n      0x00\n        /* \"#utility.yul\":4786:4791   */\n      dup2\n        /* \"#utility.yul\":4779:4791   */\n      swap1\n      pop\n        /* \"#utility.yul\":4737:4797   */\n      swap2\n      swap1\n      pop\n      jump\t// out\n        /* \"#utility.yul\":4803:4945   */\n    tag_257:\n        /* \"#utility.yul\":4853:4862   */\n      0x00\n        /* \"#utility.yul\":4886:4939   */\n      tag_362\n        /* \"#utility.yul\":4904:4938   */\n      tag_363\n        /* \"#utility.yul\":4913:4937   */\n      tag_364\n        /* \"#utility.yul\":4931:4936   */\n      dup5\n        /* \"#utility.yul\":4913:4937   */\n      tag_245\n      jump\t// in\n    tag_364:\n        /* \"#utility.yul\":4904:4938   */\n      tag_256\n      jump\t// in\n    tag_363:\n        /* \"#utility.yul\":4886:4939   */\n      tag_245\n      jump\t// in\n    tag_362:\n        /* \"#utility.yul\":4873:4939   */\n      swap1\n      pop\n        /* \"#utility.yul\":4803:4945   */\n      swap2\n      swap1\n      pop\n      jump\t// out\n        /* \"#utility.yul\":4951:5077   */\n    tag_258:\n        /* \"#utility.yul\":5001:5010   */\n      0x00\n        /* \"#utility.yul\":5034:5071   */\n      tag_366\n        /* \"#utility.yul\":5065:5070   */\n      dup3\n        /* \"#utility.yul\":5034:5071   */\n      tag_257\n      jump\t// in\n    tag_366:\n        /* \"#utility.yul\":5021:5071   */\n      swap1\n      pop\n        /* \"#utility.yul\":4951:5077   */\n      swap2\n      swap1\n      pop\n      jump\t// out\n        /* \"#utility.yul\":5083:5222   */\n    tag_259:\n        /* \"#utility.yul\":5146:5155   */\n      0x00\n        /* \"#utility.yul\":5179:5216   */\n      tag_368\n        /* \"#utility.yul\":5210:5215   */\n      dup3\n        /* \"#utility.yul\":5179:5216   */\n      tag_258\n      jump\t// in\n    tag_368:\n        /* \"#utility.yul\":5166:5216   */\n      swap1\n      pop\n        /* \"#utility.yul\":5083:5222   */\n      swap2\n      swap1\n      pop\n      jump\t// out\n        /* \"#utility.yul\":5228:5385   */\n    tag_260:\n        /* \"#utility.yul\":5328:5378   */\n      tag_370\n        /* \"#utility.yul\":5372:5377   */\n      dup2\n        /* \"#utility.yul\":5328:5378   */\n      tag_259\n      jump\t// in\n    tag_370:\n        /* \"#utility.yul\":5323:5326   */\n      dup3\n        /* \"#utility.yul\":5316:5379   */\n      mstore\n        /* \"#utility.yul\":5228:5385   */\n      pop\n      pop\n      jump\t// out\n        /* \"#utility.yul\":5391:5639   */\n    tag_58:\n        /* \"#utility.yul\":5497:5501   */\n      0x00\n        /* \"#utility.yul\":5535:5537   */\n      0x20\n        /* \"#utility.yul\":5524:5533   */\n      dup3\n        /* \"#utility.yul\":5520:5538   */\n      add\n        /* \"#utility.yul\":5512:5538   */\n      swap1\n      pop\n        /* \"#utility.yul\":5548:5632   */\n      tag_372\n        /* \"#utility.yul\":5629:5630   */\n      0x00\n        /* \"#utility.yul\":5618:5627   */\n      dup4\n        /* \"#utility.yul\":5614:5631   */\n      add\n        /* \"#utility.yul\":5605:5611   */\n      dup5\n        /* \"#utility.yul\":5548:5632   */\n      tag_260\n      jump\t// in\n    tag_372:\n        /* \"#utility.yul\":5391:5639   */\n      swap3\n      swap2\n      pop\n      pop\n      jump\t// out\n        /* \"#utility.yul\":5645:5794   */\n    tag_261:\n        /* \"#utility.yul\":5747:5753   */\n      0x00\n        /* \"#utility.yul\":5781:5786   */\n      dup2\n        /* \"#utility.yul\":5775:5787   */\n      mload\n        /* \"#utility.yul\":5765:5787   */\n      swap1\n      pop\n        /* \"#utility.yul\":5645:5794   */\n      swap2\n      swap1\n      pop\n      jump\t// out\n        /* \"#utility.yul\":5800:6019   */\n    tag_262:\n        /* \"#utility.yul\":5934:5945   */\n      0x00\n        /* \"#utility.yul\":5968:5974   */\n      dup3\n        /* \"#utility.yul\":5963:5966   */\n      dup3\n        /* \"#utility.yul\":5956:5975   */\n      mstore\n        /* \"#utility.yul\":6008:6012   */\n      0x20\n        /* \"#utility.yul\":6003:6006   */\n      dup3\n        /* \"#utility.yul\":5999:6013   */\n      add\n        /* \"#utility.yul\":5984:6013   */\n      swap1\n      pop\n        /* \"#utility.yul\":5800:6019   */\n      swap3\n      swap2\n      pop\n      pop\n      jump\t// out\n        /* \"#utility.yul\":6025:6192   */\n    tag_263:\n        /* \"#utility.yul\":6127:6131   */\n      0x00\n        /* \"#utility.yul\":6150:6153   */\n      dup2\n        /* \"#utility.yul\":6142:6153   */\n      swap1\n      pop\n        /* \"#utility.yul\":6180:6184   */\n      0x20\n        /* \"#utility.yul\":6175:6178   */\n      dup3\n        /* \"#utility.yul\":6171:6185   */\n      add\n        /* \"#utility.yul\":6163:6185   */\n      swap1\n      pop\n        /* \"#utility.yul\":6025:6192   */\n      swap2\n      swap1\n      pop\n      jump\t// out\n        /* \"#utility.yul\":6198:6306   */\n    tag_264:\n        /* \"#utility.yul\":6275:6299   */\n      tag_377\n        /* \"#utility.yul\":6293:6298   */\n      dup2\n        /* \"#utility.yul\":6275:6299   */\n      tag_246\n      jump\t// in\n    tag_377:\n        /* \"#utility.yul\":6270:6273   */\n      dup3\n        /* \"#utility.yul\":6263:6300   */\n      mstore\n        /* \"#utility.yul\":6198:6306   */\n      pop\n      pop\n      jump\t// out\n        /* \"#utility.yul\":6312:6420   */\n    tag_265:\n        /* \"#utility.yul\":6389:6413   */\n      tag_379\n        /* \"#utility.yul\":6407:6412   */\n      dup2\n        /* \"#utility.yul\":6389:6413   */\n      tag_249\n      jump\t// in\n    tag_379:\n        /* \"#utility.yul\":6384:6387   */\n      dup3\n        /* \"#utility.yul\":6377:6414   */\n      mstore\n        /* \"#utility.yul\":6312:6420   */\n      pop\n      pop\n      jump\t// out\n        /* \"#utility.yul\":6538:7253   */\n    tag_266:\n        /* \"#utility.yul\":6695:6699   */\n      0x60\n        /* \"#utility.yul\":6690:6693   */\n      dup3\n        /* \"#utility.yul\":6686:6700   */\n      add\n        /* \"#utility.yul\":6793:6797   */\n      0x00\n        /* \"#utility.yul\":6786:6791   */\n      dup3\n        /* \"#utility.yul\":6782:6798   */\n      add\n        /* \"#utility.yul\":6776:6799   */\n      mload\n        /* \"#utility.yul\":6812:6875   */\n      tag_381\n        /* \"#utility.yul\":6869:6873   */\n      0x00\n        /* \"#utility.yul\":6864:6867   */\n      dup6\n        /* \"#utility.yul\":6860:6874   */\n      add\n        /* \"#utility.yul\":6846:6858   */\n      dup3\n        /* \"#utility.yul\":6812:6875   */\n      tag_264\n      jump\t// in\n    tag_381:\n        /* \"#utility.yul\":6710:6885   */\n      pop\n        /* \"#utility.yul\":6975:6979   */\n      0x20\n        /* \"#utility.yul\":6968:6973   */\n      dup3\n        /* \"#utility.yul\":6964:6980   */\n      add\n        /* \"#utility.yul\":6958:6981   */\n      mload\n        /* \"#utility.yul\":6994:7057   */\n      tag_382\n        /* \"#utility.yul\":7051:7055   */\n      0x20\n        /* \"#utility.yul\":7046:7049   */\n      dup6\n        /* \"#utility.yul\":7042:7056   */\n      add\n        /* \"#utility.yul\":7028:7040   */\n      dup3\n        /* \"#utility.yul\":6994:7057   */\n      tag_265\n      jump\t// in\n    tag_382:\n        /* \"#utility.yul\":6895:7067   */\n      pop\n        /* \"#utility.yul\":7154:7158   */\n      0x40\n        /* \"#utility.yul\":7147:7152   */\n      dup3\n        /* \"#utility.yul\":7143:7159   */\n      add\n        /* \"#utility.yul\":7137:7160   */\n      mload\n        /* \"#utility.yul\":7173:7236   */\n      tag_383\n        /* \"#utility.yul\":7230:7234   */\n      0x40\n        /* \"#utility.yul\":7225:7228   */\n      dup6\n        /* \"#utility.yul\":7221:7235   */\n      add\n        /* \"#utility.yul\":7207:7219   */\n      dup3\n        /* \"#utility.yul\":7173:7236   */\n      tag_265\n      jump\t// in\n    tag_383:\n        /* \"#utility.yul\":7077:7246   */\n      pop\n        /* \"#utility.yul\":6664:7253   */\n      pop\n        /* \"#utility.yul\":6538:7253   */\n      pop\n      pop\n      jump\t// out\n        /* \"#utility.yul\":7259:7578   */\n    tag_267:\n        /* \"#utility.yul\":7398:7408   */\n      0x00\n        /* \"#utility.yul\":7419:7535   */\n      tag_385\n        /* \"#utility.yul\":7531:7534   */\n      dup4\n        /* \"#utility.yul\":7523:7529   */\n      dup4\n        /* \"#utility.yul\":7419:7535   */\n      tag_266\n      jump\t// in\n    tag_385:\n        /* \"#utility.yul\":7567:7571   */\n      0x60\n        /* \"#utility.yul\":7562:7565   */\n      dup4\n        /* \"#utility.yul\":7558:7572   */\n      add\n        /* \"#utility.yul\":7544:7572   */\n      swap1\n      pop\n        /* \"#utility.yul\":7259:7578   */\n      swap3\n      swap2\n      pop\n      pop\n      jump\t// out\n        /* \"#utility.yul\":7584:7732   */\n    tag_268:\n        /* \"#utility.yul\":7689:7693   */\n      0x00\n        /* \"#utility.yul\":7721:7725   */\n      0x20\n        /* \"#utility.yul\":7716:7719   */\n      dup3\n        /* \"#utility.yul\":7712:7726   */\n      add\n        /* \"#utility.yul\":7704:7726   */\n      swap1\n      pop\n        /* \"#utility.yul\":7584:7732   */\n      swap2\n      swap1\n      pop\n      jump\t// out\n        /* \"#utility.yul\":7854:8866   */\n    tag_269:\n        /* \"#utility.yul\":8043:8046   */\n      0x00\n        /* \"#utility.yul\":8072:8161   */\n      tag_388\n        /* \"#utility.yul\":8155:8160   */\n      dup3\n        /* \"#utility.yul\":8072:8161   */\n      tag_261\n      jump\t// in\n    tag_388:\n        /* \"#utility.yul\":8177:8298   */\n      tag_389\n        /* \"#utility.yul\":8291:8297   */\n      dup2\n        /* \"#utility.yul\":8286:8289   */\n      dup6\n        /* \"#utility.yul\":8177:8298   */\n      tag_262\n      jump\t// in\n    tag_389:\n        /* \"#utility.yul\":8170:8298   */\n      swap4\n      pop\n        /* \"#utility.yul\":8322:8413   */\n      tag_390\n        /* \"#utility.yul\":8407:8412   */\n      dup4\n        /* \"#utility.yul\":8322:8413   */\n      tag_263\n      jump\t// in\n    tag_390:\n        /* \"#utility.yul\":8436:8443   */\n      dup1\n        /* \"#utility.yul\":8467:8468   */\n      0x00\n        /* \"#utility.yul\":8452:8841   */\n    tag_391:\n        /* \"#utility.yul\":8477:8483   */\n      dup4\n        /* \"#utility.yul\":8474:8475   */\n      dup2\n        /* \"#utility.yul\":8471:8484   */\n      lt\n        /* \"#utility.yul\":8452:8841   */\n      iszero\n      tag_393\n      jumpi\n        /* \"#utility.yul\":8553:8559   */\n      dup2\n        /* \"#utility.yul\":8547:8560   */\n      mload\n        /* \"#utility.yul\":8580:8713   */\n      tag_394\n        /* \"#utility.yul\":8709:8712   */\n      dup9\n        /* \"#utility.yul\":8694:8707   */\n      dup3\n        /* \"#utility.yul\":8580:8713   */\n      tag_267\n      jump\t// in\n    tag_394:\n        /* \"#utility.yul\":8573:8713   */\n      swap8\n      pop\n        /* \"#utility.yul\":8736:8831   */\n      tag_395\n        /* \"#utility.yul\":8824:8830   */\n      dup4\n        /* \"#utility.yul\":8736:8831   */\n      tag_268\n      jump\t// in\n    tag_395:\n        /* \"#utility.yul\":8726:8831   */\n      swap3\n      pop\n        /* \"#utility.yul\":8512:8841   */\n      pop\n        /* \"#utility.yul\":8499:8500   */\n      0x01\n        /* \"#utility.yul\":8496:8497   */\n      dup2\n        /* \"#utility.yul\":8492:8501   */\n      add\n        /* \"#utility.yul\":8487:8501   */\n      swap1\n      pop\n        /* \"#utility.yul\":8452:8841   */\n      jump(tag_391)\n    tag_393:\n        /* \"#utility.yul\":8456:8470   */\n      pop\n        /* \"#utility.yul\":8857:8860   */\n      dup6\n        /* \"#utility.yul\":8850:8860   */\n      swap4\n      pop\n        /* \"#utility.yul\":8048:8866   */\n      pop\n      pop\n      pop\n        /* \"#utility.yul\":7854:8866   */\n      swap3\n      swap2\n      pop\n      pop\n      jump\t// out\n        /* \"#utility.yul\":8872:9385   */\n    tag_63:\n        /* \"#utility.yul\":9085:9089   */\n      0x00\n        /* \"#utility.yul\":9123:9125   */\n      0x20\n        /* \"#utility.yul\":9112:9121   */\n      dup3\n        /* \"#utility.yul\":9108:9126   */\n      add\n        /* \"#utility.yul\":9100:9126   */\n      swap1\n      pop\n        /* \"#utility.yul\":9172:9181   */\n      dup2\n        /* \"#utility.yul\":9166:9170   */\n      dup2\n        /* \"#utility.yul\":9162:9182   */\n      sub\n        /* \"#utility.yul\":9158:9159   */\n      0x00\n        /* \"#utility.yul\":9147:9156   */\n      dup4\n        /* \"#utility.yul\":9143:9160   */\n      add\n        /* \"#utility.yul\":9136:9183   */\n      mstore\n        /* \"#utility.yul\":9200:9378   */\n      tag_397\n        /* \"#utility.yul\":9373:9377   */\n      dup2\n        /* \"#utility.yul\":9364:9370   */\n      dup5\n        /* \"#utility.yul\":9200:9378   */\n      tag_269\n      jump\t// in\n    tag_397:\n        /* \"#utility.yul\":9192:9378   */\n      swap1\n      pop\n        /* \"#utility.yul\":8872:9385   */\n      swap3\n      swap2\n      pop\n      pop\n      jump\t// out\n        /* \"#utility.yul\":9391:9477   */\n    tag_270:\n        /* \"#utility.yul\":9426:9433   */\n      0x00\n        /* \"#utility.yul\":9466:9470   */\n      0xff\n        /* \"#utility.yul\":9459:9464   */\n      dup3\n        /* \"#utility.yul\":9455:9471   */\n      and\n        /* \"#utility.yul\":9444:9471   */\n      swap1\n      pop\n        /* \"#utility.yul\":9391:9477   */\n      swap2\n      swap1\n      pop\n      jump\t// out\n        /* \"#utility.yul\":9483:9595   */\n    tag_271:\n        /* \"#utility.yul\":9566:9588   */\n      tag_400\n        /* \"#utility.yul\":9582:9587   */\n      dup2\n        /* \"#utility.yul\":9566:9588   */\n      tag_270\n      jump\t// in\n    tag_400:\n        /* \"#utility.yul\":9561:9564   */\n      dup3\n        /* \"#utility.yul\":9554:9589   */\n      mstore\n        /* \"#utility.yul\":9483:9595   */\n      pop\n      pop\n      jump\t// out\n        /* \"#utility.yul\":9601:9815   */\n    tag_68:\n        /* \"#utility.yul\":9690:9694   */\n      0x00\n        /* \"#utility.yul\":9728:9730   */\n      0x20\n        /* \"#utility.yul\":9717:9726   */\n      dup3\n        /* \"#utility.yul\":9713:9731   */\n      add\n        /* \"#utility.yul\":9705:9731   */\n      swap1\n      pop\n        /* \"#utility.yul\":9741:9808   */\n      tag_402\n        /* \"#utility.yul\":9805:9806   */\n      0x00\n        /* \"#utility.yul\":9794:9803   */\n      dup4\n        /* \"#utility.yul\":9790:9807   */\n      add\n        /* \"#utility.yul\":9781:9787   */\n      dup5\n        /* \"#utility.yul\":9741:9808   */\n      tag_271\n      jump\t// in\n    tag_402:\n        /* \"#utility.yul\":9601:9815   */\n      swap3\n      swap2\n      pop\n      pop\n      jump\t// out\n        /* \"#utility.yul\":9821:9990   */\n    tag_272:\n        /* \"#utility.yul\":9905:9916   */\n      0x00\n        /* \"#utility.yul\":9939:9945   */\n      dup3\n        /* \"#utility.yul\":9934:9937   */\n      dup3\n        /* \"#utility.yul\":9927:9946   */\n      mstore\n        /* \"#utility.yul\":9979:9983   */\n      0x20\n        /* \"#utility.yul\":9974:9977   */\n      dup3\n        /* \"#utility.yul\":9970:9984   */\n      add\n        /* \"#utility.yul\":9955:9984   */\n      swap1\n      pop\n        /* \"#utility.yul\":9821:9990   */\n      swap3\n      swap2\n      pop\n      pop\n      jump\t// out\n        /* \"#utility.yul\":9996:10164   */\n    tag_273:\n        /* \"#utility.yul\":10136:10156   */\n      0x416c726561647920726567697374657265640000000000000000000000000000\n        /* \"#utility.yul\":10132:10133   */\n      0x00\n        /* \"#utility.yul\":10124:10130   */\n      dup3\n        /* \"#utility.yul\":10120:10134   */\n      add\n        /* \"#utility.yul\":10113:10157   */\n      mstore\n        /* \"#utility.yul\":9996:10164   */\n      pop\n      jump\t// out\n        /* \"#utility.yul\":10170:10536   */\n    tag_274:\n        /* \"#utility.yul\":10312:10315   */\n      0x00\n        /* \"#utility.yul\":10333:10400   */\n      tag_406\n        /* \"#utility.yul\":10397:10399   */\n      0x12\n        /* \"#utility.yul\":10392:10395   */\n      dup4\n        /* \"#utility.yul\":10333:10400   */\n      tag_272\n      jump\t// in\n    tag_406:\n        /* \"#utility.yul\":10326:10400   */\n      swap2\n      pop\n        /* \"#utility.yul\":10409:10502   */\n      tag_407\n        /* \"#utility.yul\":10498:10501   */\n      dup3\n        /* \"#utility.yul\":10409:10502   */\n      tag_273\n      jump\t// in\n    tag_407:\n        /* \"#utility.yul\":10527:10529   */\n      0x20\n        /* \"#utility.yul\":10522:10525   */\n      dup3\n        /* \"#utility.yul\":10518:10530   */\n      add\n        /* \"#utility.yul\":10511:10530   */\n      swap1\n      pop\n        /* \"#utility.yul\":10170:10536   */\n      swap2\n      swap1\n      pop\n      jump\t// out\n        /* \"#utility.yul\":10542:10961   */\n    tag_81:\n        /* \"#utility.yul\":10708:10712   */\n      0x00\n        /* \"#utility.yul\":10746:10748   */\n      0x20\n        /* \"#utility.yul\":10735:10744   */\n      dup3\n        /* \"#utility.yul\":10731:10749   */\n      add\n        /* \"#utility.yul\":10723:10749   */\n      swap1\n      pop\n        /* \"#utility.yul\":10795:10804   */\n      dup2\n        /* \"#utility.yul\":10789:10793   */\n      dup2\n        /* \"#utility.yul\":10785:10805   */\n      sub\n        /* \"#utility.yul\":10781:10782   */\n      0x00\n        /* \"#utility.yul\":10770:10779   */\n      dup4\n        /* \"#utility.yul\":10766:10783   */\n      add\n        /* \"#utility.yul\":10759:10806   */\n      mstore\n        /* \"#utility.yul\":10823:10954   */\n      tag_409\n        /* \"#utility.yul\":10949:10953   */\n      dup2\n        /* \"#utility.yul\":10823:10954   */\n      tag_274\n      jump\t// in\n    tag_409:\n        /* \"#utility.yul\":10815:10954   */\n      swap1\n      pop\n        /* \"#utility.yul\":10542:10961   */\n      swap2\n      swap1\n      pop\n      jump\t// out\n        /* \"#utility.yul\":10967:11138   */\n    tag_275:\n        /* \"#utility.yul\":11107:11130   */\n      0x43616e6e6f7420726566657220796f757273656c660000000000000000000000\n        /* \"#utility.yul\":11103:11104   */\n      0x00\n        /* \"#utility.yul\":11095:11101   */\n      dup3\n        /* \"#utility.yul\":11091:11105   */\n      add\n        /* \"#utility.yul\":11084:11131   */\n      mstore\n        /* \"#utility.yul\":10967:11138   */\n      pop\n      jump\t// out\n        /* \"#utility.yul\":11144:11510   */\n    tag_276:\n        /* \"#utility.yul\":11286:11289   */\n      0x00\n        /* \"#utility.yul\":11307:11374   */\n      tag_412\n        /* \"#utility.yul\":11371:11373   */\n      0x15\n        /* \"#utility.yul\":11366:11369   */\n      dup4\n        /* \"#utility.yul\":11307:11374   */\n      tag_272\n      jump\t// in\n    tag_412:\n        /* \"#utility.yul\":11300:11374   */\n      swap2\n      pop\n        /* \"#utility.yul\":11383:11476   */\n      tag_413\n        /* \"#utility.yul\":11472:11475   */\n      dup3\n        /* \"#utility.yul\":11383:11476   */\n      tag_275\n      jump\t// in\n    tag_413:\n        /* \"#utility.yul\":11501:11503   */\n      0x20\n        /* \"#utility.yul\":11496:11499   */\n      dup3\n        /* \"#utility.yul\":11492:11504   */\n      add\n        /* \"#utility.yul\":11485:11504   */\n      swap1\n      pop\n        /* \"#utility.yul\":11144:11510   */\n      swap2\n      swap1\n      pop\n      jump\t// out\n        /* \"#utility.yul\":11516:11935   */\n    tag_84:\n        /* \"#utility.yul\":11682:11686   */\n      0x00\n        /* \"#utility.yul\":11720:11722   */\n      0x20\n        /* \"#utility.yul\":11709:11718   */\n      dup3\n        /* \"#utility.yul\":11705:11723   */\n      add\n        /* \"#utility.yul\":11697:11723   */\n      swap1\n      pop\n        /* \"#utility.yul\":11769:11778   */\n      dup2\n        /* \"#utility.yul\":11763:11767   */\n      dup2\n        /* \"#utility.yul\":11759:11779   */\n      sub\n        /* \"#utility.yul\":11755:11756   */\n      0x00\n        /* \"#utility.yul\":11744:11753   */\n      dup4\n        /* \"#utility.yul\":11740:11757   */\n      add\n        /* \"#utility.yul\":11733:11780   */\n      mstore\n        /* \"#utility.yul\":11797:11928   */\n      tag_415\n        /* \"#utility.yul\":11923:11927   */\n      dup2\n        /* \"#utility.yul\":11797:11928   */\n      tag_276\n      jump\t// in\n    tag_415:\n        /* \"#utility.yul\":11789:11928   */\n      swap1\n      pop\n        /* \"#utility.yul\":11516:11935   */\n      swap2\n      swap1\n      pop\n      jump\t// out\n        /* \"#utility.yul\":11941:12114   */\n    tag_277:\n        /* \"#utility.yul\":12081:12106   */\n      0x5265666572726572206e6f742072656769737465726564000000000000000000\n        /* \"#utility.yul\":12077:12078   */\n      0x00\n        /* \"#utility.yul\":12069:12075   */\n      dup3\n        /* \"#utility.yul\":12065:12079   */\n      add\n        /* \"#utility.yul\":12058:12107   */\n      mstore\n        /* \"#utility.yul\":11941:12114   */\n      pop\n      jump\t// out\n        /* \"#utility.yul\":12120:12486   */\n    tag_278:\n        /* \"#utility.yul\":12262:12265   */\n      0x00\n        /* \"#utility.yul\":12283:12350   */\n      tag_418\n        /* \"#utility.yul\":12347:12349   */\n      0x17\n        /* \"#utility.yul\":12342:12345   */\n      dup4\n        /* \"#utility.yul\":12283:12350   */\n      tag_272\n      jump\t// in\n    tag_418:\n        /* \"#utility.yul\":12276:12350   */\n      swap2\n      pop\n        /* \"#utility.yul\":12359:12452   */\n      tag_419\n        /* \"#utility.yul\":12448:12451   */\n      dup3\n        /* \"#utility.yul\":12359:12452   */\n      tag_277\n      jump\t// in\n    tag_419:\n        /* \"#utility.yul\":12477:12479   */\n      0x20\n        /* \"#utility.yul\":12472:12475   */\n      dup3\n        /* \"#utility.yul\":12468:12480   */\n      add\n        /* \"#utility.yul\":12461:12480   */\n      swap1\n      pop\n        /* \"#utility.yul\":12120:12486   */\n      swap2\n      swap1\n      pop\n      jump\t// out\n        /* \"#utility.yul\":12492:12911   */\n    tag_87:\n        /* \"#utility.yul\":12658:12662   */\n      0x00\n        /* \"#utility.yul\":12696:12698   */\n      0x20\n        /* \"#utility.yul\":12685:12694   */\n      dup3\n        /* \"#utility.yul\":12681:12699   */\n      add\n        /* \"#utility.yul\":12673:12699   */\n      swap1\n      pop\n        /* \"#utility.yul\":12745:12754   */\n      dup2\n        /* \"#utility.yul\":12739:12743   */\n      dup2\n        /* \"#utility.yul\":12735:12755   */\n      sub\n        /* \"#utility.yul\":12731:12732   */\n      0x00\n        /* \"#utility.yul\":12720:12729   */\n      dup4\n        /* \"#utility.yul\":12716:12733   */\n      add\n        /* \"#utility.yul\":12709:12756   */\n      mstore\n        /* \"#utility.yul\":12773:12904   */\n      tag_421\n        /* \"#utility.yul\":12899:12903   */\n      dup2\n        /* \"#utility.yul\":12773:12904   */\n      tag_278\n      jump\t// in\n    tag_421:\n        /* \"#utility.yul\":12765:12904   */\n      swap1\n      pop\n        /* \"#utility.yul\":12492:12911   */\n      swap2\n      swap1\n      pop\n      jump\t// out\n        /* \"#utility.yul\":12917:13147   */\n    tag_279:\n        /* \"#utility.yul\":13057:13091   */\n      0x5265666572726572206d757374207374616b65206265666f726520796f752063\n        /* \"#utility.yul\":13053:13054   */\n      0x00\n        /* \"#utility.yul\":13045:13051   */\n      dup3\n        /* \"#utility.yul\":13041:13055   */\n      add\n        /* \"#utility.yul\":13034:13092   */\n      mstore\n        /* \"#utility.yul\":13126:13139   */\n      0x616e207265676973746572000000000000000000000000000000000000000000\n        /* \"#utility.yul\":13121:13123   */\n      0x20\n        /* \"#utility.yul\":13113:13119   */\n      dup3\n        /* \"#utility.yul\":13109:13124   */\n      add\n        /* \"#utility.yul\":13102:13140   */\n      mstore\n        /* \"#utility.yul\":12917:13147   */\n      pop\n      jump\t// out\n        /* \"#utility.yul\":13153:13519   */\n    tag_280:\n        /* \"#utility.yul\":13295:13298   */\n      0x00\n        /* \"#utility.yul\":13316:13383   */\n      tag_424\n        /* \"#utility.yul\":13380:13382   */\n      0x2b\n        /* \"#utility.yul\":13375:13378   */\n      dup4\n        /* \"#utility.yul\":13316:13383   */\n      tag_272\n      jump\t// in\n    tag_424:\n        /* \"#utility.yul\":13309:13383   */\n      swap2\n      pop\n        /* \"#utility.yul\":13392:13485   */\n      tag_425\n        /* \"#utility.yul\":13481:13484   */\n      dup3\n        /* \"#utility.yul\":13392:13485   */\n      tag_279\n      jump\t// in\n    tag_425:\n        /* \"#utility.yul\":13510:13512   */\n      0x40\n        /* \"#utility.yul\":13505:13508   */\n      dup3\n        /* \"#utility.yul\":13501:13513   */\n      add\n        /* \"#utility.yul\":13494:13513   */\n      swap1\n      pop\n        /* \"#utility.yul\":13153:13519   */\n      swap2\n      swap1\n      pop\n      jump\t// out\n        /* \"#utility.yul\":13525:13944   */\n    tag_90:\n        /* \"#utility.yul\":13691:13695   */\n      0x00\n        /* \"#utility.yul\":13729:13731   */\n      0x20\n        /* \"#utility.yul\":13718:13727   */\n      dup3\n        /* \"#utility.yul\":13714:13732   */\n      add\n        /* \"#utility.yul\":13706:13732   */\n      swap1\n      pop\n        /* \"#utility.yul\":13778:13787   */\n      dup2\n        /* \"#utility.yul\":13772:13776   */\n      dup2\n        /* \"#utility.yul\":13768:13788   */\n      sub\n        /* \"#utility.yul\":13764:13765   */\n      0x00\n        /* \"#utility.yul\":13753:13762   */\n      dup4\n        /* \"#utility.yul\":13749:13766   */\n      add\n        /* \"#utility.yul\":13742:13789   */\n      mstore\n        /* \"#utility.yul\":13806:13937   */\n      tag_427\n        /* \"#utility.yul\":13932:13936   */\n      dup2\n        /* \"#utility.yul\":13806:13937   */\n      tag_280\n      jump\t// in\n    tag_427:\n        /* \"#utility.yul\":13798:13937   */\n      swap1\n      pop\n        /* \"#utility.yul\":13525:13944   */\n      swap2\n      swap1\n      pop\n      jump\t// out\n        /* \"#utility.yul\":13950:14114   */\n    tag_281:\n        /* \"#utility.yul\":14090:14106   */\n      0x4e6f742072656769737465726564000000000000000000000000000000000000\n        /* \"#utility.yul\":14086:14087   */\n      0x00\n        /* \"#utility.yul\":14078:14084   */\n      dup3\n        /* \"#utility.yul\":14074:14088   */\n      add\n        /* \"#utility.yul\":14067:14107   */\n      mstore\n        /* \"#utility.yul\":13950:14114   */\n      pop\n      jump\t// out\n        /* \"#utility.yul\":14120:14486   */\n    tag_282:\n        /* \"#utility.yul\":14262:14265   */\n      0x00\n        /* \"#utility.yul\":14283:14350   */\n      tag_430\n        /* \"#utility.yul\":14347:14349   */\n      0x0e\n        /* \"#utility.yul\":14342:14345   */\n      dup4\n        /* \"#utility.yul\":14283:14350   */\n      tag_272\n      jump\t// in\n    tag_430:\n        /* \"#utility.yul\":14276:14350   */\n      swap2\n      pop\n        /* \"#utility.yul\":14359:14452   */\n      tag_431\n        /* \"#utility.yul\":14448:14451   */\n      dup3\n        /* \"#utility.yul\":14359:14452   */\n      tag_281\n      jump\t// in\n    tag_431:\n        /* \"#utility.yul\":14477:14479   */\n      0x20\n        /* \"#utility.yul\":14472:14475   */\n      dup3\n        /* \"#utility.yul\":14468:14480   */\n      add\n        /* \"#utility.yul\":14461:14480   */\n      swap1\n      pop\n        /* \"#utility.yul\":14120:14486   */\n      swap2\n      swap1\n      pop\n      jump\t// out\n        /* \"#utility.yul\":14492:14911   */\n    tag_96:\n        /* \"#utility.yul\":14658:14662   */\n      0x00\n        /* \"#utility.yul\":14696:14698   */\n      0x20\n        /* \"#utility.yul\":14685:14694   */\n      dup3\n        /* \"#utility.yul\":14681:14699   */\n      add\n        /* \"#utility.yul\":14673:14699   */\n      swap1\n      pop\n        /* \"#utility.yul\":14745:14754   */\n      dup2\n        /* \"#utility.yul\":14739:14743   */\n      dup2\n        /* \"#utility.yul\":14735:14755   */\n      sub\n        /* \"#utility.yul\":14731:14732   */\n      0x00\n        /* \"#utility.yul\":14720:14729   */\n      dup4\n        /* \"#utility.yul\":14716:14733   */\n      add\n        /* \"#utility.yul\":14709:14756   */\n      mstore\n        /* \"#utility.yul\":14773:14904   */\n      tag_433\n        /* \"#utility.yul\":14899:14903   */\n      dup2\n        /* \"#utility.yul\":14773:14904   */\n      tag_282\n      jump\t// in\n    tag_433:\n        /* \"#utility.yul\":14765:14904   */\n      swap1\n      pop\n        /* \"#utility.yul\":14492:14911   */\n      swap2\n      swap1\n      pop\n      jump\t// out\n        /* \"#utility.yul\":14917:15139   */\n    tag_283:\n        /* \"#utility.yul\":15057:15091   */\n      0x5374616b6520616d6f756e74206d757374206265206772656174657220746861\n        /* \"#utility.yul\":15053:15054   */\n      0x00\n        /* \"#utility.yul\":15045:15051   */\n      dup3\n        /* \"#utility.yul\":15041:15055   */\n      add\n        /* \"#utility.yul\":15034:15092   */\n      mstore\n        /* \"#utility.yul\":15126:15131   */\n      0x6e20300000000000000000000000000000000000000000000000000000000000\n        /* \"#utility.yul\":15121:15123   */\n      0x20\n        /* \"#utility.yul\":15113:15119   */\n      dup3\n        /* \"#utility.yul\":15109:15124   */\n      add\n        /* \"#utility.yul\":15102:15132   */\n      mstore\n        /* \"#utility.yul\":14917:15139   */\n      pop\n      jump\t// out\n        /* \"#utility.yul\":15145:15511   */\n    tag_284:\n        /* \"#utility.yul\":15287:15290   */\n      0x00\n        /* \"#utility.yul\":15308:15375   */\n      tag_436\n        /* \"#utility.yul\":15372:15374   */\n      0x23\n        /* \"#utility.yul\":15367:15370   */\n      dup4\n        /* \"#utility.yul\":15308:15375   */\n      tag_272\n      jump\t// in\n    tag_436:\n        /* \"#utility.yul\":15301:15375   */\n      swap2\n      pop\n        /* \"#utility.yul\":15384:15477   */\n      tag_437\n        /* \"#utility.yul\":15473:15476   */\n      dup3\n        /* \"#utility.yul\":15384:15477   */\n      tag_283\n      jump\t// in\n    tag_437:\n        /* \"#utility.yul\":15502:15504   */\n      0x40\n        /* \"#utility.yul\":15497:15500   */\n      dup3\n        /* \"#utility.yul\":15493:15505   */\n      add\n        /* \"#utility.yul\":15486:15505   */\n      swap1\n      pop\n        /* \"#utility.yul\":15145:15511   */\n      swap2\n      swap1\n      pop\n      jump\t// out\n        /* \"#utility.yul\":15517:15936   */\n    tag_100:\n        /* \"#utility.yul\":15683:15687   */\n      0x00\n        /* \"#utility.yul\":15721:15723   */\n      0x20\n        /* \"#utility.yul\":15710:15719   */\n      dup3\n        /* \"#utility.yul\":15706:15724   */\n      add\n        /* \"#utility.yul\":15698:15724   */\n      swap1\n      pop\n        /* \"#utility.yul\":15770:15779   */\n      dup2\n        /* \"#utility.yul\":15764:15768   */\n      dup2\n        /* \"#utility.yul\":15760:15780   */\n      sub\n        /* \"#utility.yul\":15756:15757   */\n      0x00\n        /* \"#utility.yul\":15745:15754   */\n      dup4\n        /* \"#utility.yul\":15741:15758   */\n      add\n        /* \"#utility.yul\":15734:15781   */\n      mstore\n        /* \"#utility.yul\":15798:15929   */\n      tag_439\n        /* \"#utility.yul\":15924:15928   */\n      dup2\n        /* \"#utility.yul\":15798:15929   */\n      tag_284\n      jump\t// in\n    tag_439:\n        /* \"#utility.yul\":15790:15929   */\n      swap1\n      pop\n        /* \"#utility.yul\":15517:15936   */\n      swap2\n      swap1\n      pop\n      jump\t// out\n        /* \"#utility.yul\":15942:16116   */\n    tag_285:\n        /* \"#utility.yul\":16082:16108   */\n      0x496e76616c6964207374616b696e67206475726174696f6e0000000000000000\n        /* \"#utility.yul\":16078:16079   */\n      0x00\n        /* \"#utility.yul\":16070:16076   */\n      dup3\n        /* \"#utility.yul\":16066:16080   */\n      add\n        /* \"#utility.yul\":16059:16109   */\n      mstore\n        /* \"#utility.yul\":15942:16116   */\n      pop\n      jump\t// out\n        /* \"#utility.yul\":16122:16488   */\n    tag_286:\n        /* \"#utility.yul\":16264:16267   */\n      0x00\n        /* \"#utility.yul\":16285:16352   */\n      tag_442\n        /* \"#utility.yul\":16349:16351   */\n      0x18\n        /* \"#utility.yul\":16344:16347   */\n      dup4\n        /* \"#utility.yul\":16285:16352   */\n      tag_272\n      jump\t// in\n    tag_442:\n        /* \"#utility.yul\":16278:16352   */\n      swap2\n      pop\n        /* \"#utility.yul\":16361:16454   */\n      tag_443\n        /* \"#utility.yul\":16450:16453   */\n      dup3\n        /* \"#utility.yul\":16361:16454   */\n      tag_285\n      jump\t// in\n    tag_443:\n        /* \"#utility.yul\":16479:16481   */\n      0x20\n        /* \"#utility.yul\":16474:16477   */\n      dup3\n        /* \"#utility.yul\":16470:16482   */\n      add\n        /* \"#utility.yul\":16463:16482   */\n      swap1\n      pop\n        /* \"#utility.yul\":16122:16488   */\n      swap2\n      swap1\n      pop\n      jump\t// out\n        /* \"#utility.yul\":16494:16913   */\n    tag_103:\n        /* \"#utility.yul\":16660:16664   */\n      0x00\n        /* \"#utility.yul\":16698:16700   */\n      0x20\n        /* \"#utility.yul\":16687:16696   */\n      dup3\n        /* \"#utility.yul\":16683:16701   */\n      add\n        /* \"#utility.yul\":16675:16701   */\n      swap1\n      pop\n        /* \"#utility.yul\":16747:16756   */\n      dup2\n        /* \"#utility.yul\":16741:16745   */\n      dup2\n        /* \"#utility.yul\":16737:16757   */\n      sub\n        /* \"#utility.yul\":16733:16734   */\n      0x00\n        /* \"#utility.yul\":16722:16731   */\n      dup4\n        /* \"#utility.yul\":16718:16735   */\n      add\n        /* \"#utility.yul\":16711:16758   */\n      mstore\n        /* \"#utility.yul\":16775:16906   */\n      tag_445\n        /* \"#utility.yul\":16901:16905   */\n      dup2\n        /* \"#utility.yul\":16775:16906   */\n      tag_286\n      jump\t// in\n    tag_445:\n        /* \"#utility.yul\":16767:16906   */\n      swap1\n      pop\n        /* \"#utility.yul\":16494:16913   */\n      swap2\n      swap1\n      pop\n      jump\t// out\n        /* \"#utility.yul\":16919:17146   */\n    tag_287:\n        /* \"#utility.yul\":17059:17093   */\n      0x5265666572726572206d757374207374616b65206265666f726520796f752063\n        /* \"#utility.yul\":17055:17056   */\n      0x00\n        /* \"#utility.yul\":17047:17053   */\n      dup3\n        /* \"#utility.yul\":17043:17057   */\n      add\n        /* \"#utility.yul\":17036:17094   */\n      mstore\n        /* \"#utility.yul\":17128:17138   */\n      0x616e207374616b65000000000000000000000000000000000000000000000000\n        /* \"#utility.yul\":17123:17125   */\n      0x20\n        /* \"#utility.yul\":17115:17121   */\n      dup3\n        /* \"#utility.yul\":17111:17126   */\n      add\n        /* \"#utility.yul\":17104:17139   */\n      mstore\n        /* \"#utility.yul\":16919:17146   */\n      pop\n      jump\t// out\n        /* \"#utility.yul\":17152:17518   */\n    tag_288:\n        /* \"#utility.yul\":17294:17297   */\n      0x00\n        /* \"#utility.yul\":17315:17382   */\n      tag_448\n        /* \"#utility.yul\":17379:17381   */\n      0x28\n        /* \"#utility.yul\":17374:17377   */\n      dup4\n        /* \"#utility.yul\":17315:17382   */\n      tag_272\n      jump\t// in\n    tag_448:\n        /* \"#utility.yul\":17308:17382   */\n      swap2\n      pop\n        /* \"#utility.yul\":17391:17484   */\n      tag_449\n        /* \"#utility.yul\":17480:17483   */\n      dup3\n        /* \"#utility.yul\":17391:17484   */\n      tag_287\n      jump\t// in\n    tag_449:\n        /* \"#utility.yul\":17509:17511   */\n      0x40\n        /* \"#utility.yul\":17504:17507   */\n      dup3\n        /* \"#utility.yul\":17500:17512   */\n      add\n        /* \"#utility.yul\":17493:17512   */\n      swap1\n      pop\n        /* \"#utility.yul\":17152:17518   */\n      swap2\n      swap1\n      pop\n      jump\t// out\n        /* \"#utility.yul\":17524:17943   */\n    tag_107:\n        /* \"#utility.yul\":17690:17694   */\n      0x00\n        /* \"#utility.yul\":17728:17730   */\n      0x20\n        /* \"#utility.yul\":17717:17726   */\n      dup3\n        /* \"#utility.yul\":17713:17731   */\n      add\n        /* \"#utility.yul\":17705:17731   */\n      swap1\n      pop\n        /* \"#utility.yul\":17777:17786   */\n      dup2\n        /* \"#utility.yul\":17771:17775   */\n      dup2\n        /* \"#utility.yul\":17767:17787   */\n      sub\n        /* \"#utility.yul\":17763:17764   */\n      0x00\n        /* \"#utility.yul\":17752:17761   */\n      dup4\n        /* \"#utility.yul\":17748:17765   */\n      add\n        /* \"#utility.yul\":17741:17788   */\n      mstore\n        /* \"#utility.yul\":17805:17936   */\n      tag_451\n        /* \"#utility.yul\":17931:17935   */\n      dup2\n        /* \"#utility.yul\":17805:17936   */\n      tag_288\n      jump\t// in\n    tag_451:\n        /* \"#utility.yul\":17797:17936   */\n      swap1\n      pop\n        /* \"#utility.yul\":17524:17943   */\n      swap2\n      swap1\n      pop\n      jump\t// out\n        /* \"#utility.yul\":17949:18391   */\n    tag_109:\n        /* \"#utility.yul\":18098:18102   */\n      0x00\n        /* \"#utility.yul\":18136:18138   */\n      0x60\n        /* \"#utility.yul\":18125:18134   */\n      dup3\n        /* \"#utility.yul\":18121:18139   */\n      add\n        /* \"#utility.yul\":18113:18139   */\n      swap1\n      pop\n        /* \"#utility.yul\":18149:18220   */\n      tag_453\n        /* \"#utility.yul\":18217:18218   */\n      0x00\n        /* \"#utility.yul\":18206:18215   */\n      dup4\n        /* \"#utility.yul\":18202:18219   */\n      add\n        /* \"#utility.yul\":18193:18199   */\n      dup7\n        /* \"#utility.yul\":18149:18220   */\n      tag_252\n      jump\t// in\n    tag_453:\n        /* \"#utility.yul\":18230:18302   */\n      tag_454\n        /* \"#utility.yul\":18298:18300   */\n      0x20\n        /* \"#utility.yul\":18287:18296   */\n      dup4\n        /* \"#utility.yul\":18283:18301   */\n      add\n        /* \"#utility.yul\":18274:18280   */\n      dup6\n        /* \"#utility.yul\":18230:18302   */\n      tag_252\n      jump\t// in\n    tag_454:\n        /* \"#utility.yul\":18312:18384   */\n      tag_455\n        /* \"#utility.yul\":18380:18382   */\n      0x40\n        /* \"#utility.yul\":18369:18378   */\n      dup4\n        /* \"#utility.yul\":18365:18383   */\n      add\n        /* \"#utility.yul\":18356:18362   */\n      dup5\n        /* \"#utility.yul\":18312:18384   */\n      tag_253\n      jump\t// in\n    tag_455:\n        /* \"#utility.yul\":17949:18391   */\n      swap5\n      swap4\n      pop\n      pop\n      pop\n      pop\n      jump\t// out\n        /* \"#utility.yul\":18397:18513   */\n    tag_289:\n        /* \"#utility.yul\":18467:18488   */\n      tag_457\n        /* \"#utility.yul\":18482:18487   */\n      dup2\n        /* \"#utility.yul\":18467:18488   */\n      tag_254\n      jump\t// in\n    tag_457:\n        /* \"#utility.yul\":18460:18465   */\n      dup2\n        /* \"#utility.yul\":18457:18489   */\n      eq\n        /* \"#utility.yul\":18447:18507   */\n      tag_458\n      jumpi\n        /* \"#utility.yul\":18503:18504   */\n      0x00\n        /* \"#utility.yul\":18500:18501   */\n      dup1\n        /* \"#utility.yul\":18493:18505   */\n      revert\n        /* \"#utility.yul\":18447:18507   */\n    tag_458:\n        /* \"#utility.yul\":18397:18513   */\n      pop\n      jump\t// out\n        /* \"#utility.yul\":18519:18656   */\n    tag_290:\n        /* \"#utility.yul\":18573:18578   */\n      0x00\n        /* \"#utility.yul\":18604:18610   */\n      dup2\n        /* \"#utility.yul\":18598:18611   */\n      mload\n        /* \"#utility.yul\":18589:18611   */\n      swap1\n      pop\n        /* \"#utility.yul\":18620:18650   */\n      tag_460\n        /* \"#utility.yul\":18644:18649   */\n      dup2\n        /* \"#utility.yul\":18620:18650   */\n      tag_289\n      jump\t// in\n    tag_460:\n        /* \"#utility.yul\":18519:18656   */\n      swap3\n      swap2\n      pop\n      pop\n      jump\t// out\n        /* \"#utility.yul\":18662:19007   */\n    tag_113:\n        /* \"#utility.yul\":18729:18735   */\n      0x00\n        /* \"#utility.yul\":18778:18780   */\n      0x20\n        /* \"#utility.yul\":18766:18775   */\n      dup3\n        /* \"#utility.yul\":18757:18764   */\n      dup5\n        /* \"#utility.yul\":18753:18776   */\n      sub\n        /* \"#utility.yul\":18749:18781   */\n      slt\n        /* \"#utility.yul\":18746:18865   */\n      iszero\n      tag_462\n      jumpi\n        /* \"#utility.yul\":18784:18863   */\n      tag_463\n      tag_243\n      jump\t// in\n    tag_463:\n        /* \"#utility.yul\":18746:18865   */\n    tag_462:\n        /* \"#utility.yul\":18904:18905   */\n      0x00\n        /* \"#utility.yul\":18929:18990   */\n      tag_464\n        /* \"#utility.yul\":18982:18989   */\n      dup5\n        /* \"#utility.yul\":18973:18979   */\n      dup3\n        /* \"#utility.yul\":18962:18971   */\n      dup6\n        /* \"#utility.yul\":18958:18980   */\n      add\n        /* \"#utility.yul\":18929:18990   */\n      tag_290\n      jump\t// in\n    tag_464:\n        /* \"#utility.yul\":18919:18990   */\n      swap2\n      pop\n        /* \"#utility.yul\":18875:19000   */\n      pop\n        /* \"#utility.yul\":18662:19007   */\n      swap3\n      swap2\n      pop\n      pop\n      jump\t// out\n        /* \"#utility.yul\":19013:19183   */\n    tag_291:\n        /* \"#utility.yul\":19153:19175   */\n      0x55534454207472616e73666572206661696c6564000000000000000000000000\n        /* \"#utility.yul\":19149:19150   */\n      0x00\n        /* \"#utility.yul\":19141:19147   */\n      dup3\n        /* \"#utility.yul\":19137:19151   */\n      add\n        /* \"#utility.yul\":19130:19176   */\n      mstore\n        /* \"#utility.yul\":19013:19183   */\n      pop\n      jump\t// out\n        /* \"#utility.yul\":19189:19555   */\n    tag_292:\n        /* \"#utility.yul\":19331:19334   */\n      0x00\n        /* \"#utility.yul\":19352:19419   */\n      tag_467\n        /* \"#utility.yul\":19416:19418   */\n      0x14\n        /* \"#utility.yul\":19411:19414   */\n      dup4\n        /* \"#utility.yul\":19352:19419   */\n      tag_272\n      jump\t// in\n    tag_467:\n        /* \"#utility.yul\":19345:19419   */\n      swap2\n      pop\n        /* \"#utility.yul\":19428:19521   */\n      tag_468\n        /* \"#utility.yul\":19517:19520   */\n      dup3\n        /* \"#utility.yul\":19428:19521   */\n      tag_291\n      jump\t// in\n    tag_468:\n        /* \"#utility.yul\":19546:19548   */\n      0x20\n        /* \"#utility.yul\":19541:19544   */\n      dup3\n        /* \"#utility.yul\":19537:19549   */\n      add\n        /* \"#utility.yul\":19530:19549   */\n      swap1\n      pop\n        /* \"#utility.yul\":19189:19555   */\n      swap2\n      swap1\n      pop\n      jump\t// out\n        /* \"#utility.yul\":19561:19980   */\n    tag_116:\n        /* \"#utility.yul\":19727:19731   */\n      0x00\n        /* \"#utility.yul\":19765:19767   */\n      0x20\n        /* \"#utility.yul\":19754:19763   */\n      dup3\n        /* \"#utility.yul\":19750:19768   */\n      add\n        /* \"#utility.yul\":19742:19768   */\n      swap1\n      pop\n        /* \"#utility.yul\":19814:19823   */\n      dup2\n        /* \"#utility.yul\":19808:19812   */\n      dup2\n        /* \"#utility.yul\":19804:19824   */\n      sub\n        /* \"#utility.yul\":19800:19801   */\n      0x00\n        /* \"#utility.yul\":19789:19798   */\n      dup4\n        /* \"#utility.yul\":19785:19802   */\n      add\n        /* \"#utility.yul\":19778:19825   */\n      mstore\n        /* \"#utility.yul\":19842:19973   */\n      tag_470\n        /* \"#utility.yul\":19968:19972   */\n      dup2\n        /* \"#utility.yul\":19842:19973   */\n      tag_292\n      jump\t// in\n    tag_470:\n        /* \"#utility.yul\":19834:19973   */\n      swap1\n      pop\n        /* \"#utility.yul\":19561:19980   */\n      swap2\n      swap1\n      pop\n      jump\t// out\n        /* \"#utility.yul\":19986:20166   */\n    tag_293:\n        /* \"#utility.yul\":20034:20111   */\n      0x4e487b7100000000000000000000000000000000000000000000000000000000\n        /* \"#utility.yul\":20031:20032   */\n      0x00\n        /* \"#utility.yul\":20024:20112   */\n      mstore\n        /* \"#utility.yul\":20131:20135   */\n      0x11\n        /* \"#utility.yul\":20128:20129   */\n      0x04\n        /* \"#utility.yul\":20121:20136   */\n      mstore\n        /* \"#utility.yul\":20155:20159   */\n      0x24\n        /* \"#utility.yul\":20152:20153   */\n      0x00\n        /* \"#utility.yul\":20145:20160   */\n      revert\n        /* \"#utility.yul\":20172:20405   */\n    tag_118:\n        /* \"#utility.yul\":20211:20214   */\n      0x00\n        /* \"#utility.yul\":20234:20258   */\n      tag_473\n        /* \"#utility.yul\":20252:20257   */\n      dup3\n        /* \"#utility.yul\":20234:20258   */\n      tag_249\n      jump\t// in\n    tag_473:\n        /* \"#utility.yul\":20225:20258   */\n      swap2\n      pop\n        /* \"#utility.yul\":20280:20346   */\n      0xffffffffffffffffffffffffffffffffffffffffffffffffffffffffffffffff\n        /* \"#utility.yul\":20273:20278   */\n      dup3\n        /* \"#utility.yul\":20270:20347   */\n      sub\n        /* \"#utility.yul\":20267:20370   */\n      tag_474\n      jumpi\n        /* \"#utility.yul\":20350:20368   */\n      tag_475\n      tag_293\n      jump\t// in\n    tag_475:\n        /* \"#utility.yul\":20267:20370   */\n    tag_474:\n        /* \"#utility.yul\":20397:20398   */\n      0x01\n        /* \"#utility.yul\":20390:20395   */\n      dup3\n        /* \"#utility.yul\":20386:20399   */\n      add\n        /* \"#utility.yul\":20379:20399   */\n      swap1\n      pop\n        /* \"#utility.yul\":20172:20405   */\n      swap2\n      swap1\n      pop\n      jump\t// out\n        /* \"#utility.yul\":20411:20821   */\n    tag_127:\n        /* \"#utility.yul\":20451:20458   */\n      0x00\n        /* \"#utility.yul\":20474:20494   */\n      tag_477\n        /* \"#utility.yul\":20492:20493   */\n      dup3\n        /* \"#utility.yul\":20474:20494   */\n      tag_249\n      jump\t// in\n    tag_477:\n        /* \"#utility.yul\":20469:20494   */\n      swap2\n      pop\n        /* \"#utility.yul\":20508:20528   */\n      tag_478\n        /* \"#utility.yul\":20526:20527   */\n      dup4\n        /* \"#utility.yul\":20508:20528   */\n      tag_249\n      jump\t// in\n    tag_478:\n        /* \"#utility.yul\":20503:20528   */\n      swap3\n      pop\n        /* \"#utility.yul\":20563:20564   */\n      dup3\n        /* \"#utility.yul\":20560:20561   */\n      dup3\n        /* \"#utility.yul\":20556:20565   */\n      mul\n        /* \"#utility.yul\":20585:20615   */\n      tag_479\n        /* \"#utility.yul\":20603:20614   */\n      dup2\n        /* \"#utility.yul\":20585:20615   */\n      tag_249\n      jump\t// in\n    tag_479:\n        /* \"#utility.yul\":20574:20615   */\n      swap2\n      pop\n        /* \"#utility.yul\":20764:20765   */\n      dup3\n        /* \"#utility.yul\":20755:20762   */\n      dup3\n        /* \"#utility.yul\":20751:20766   */\n      div\n        /* \"#utility.yul\":20748:20749   */\n      dup5\n        /* \"#utility.yul\":20745:20767   */\n      eq\n        /* \"#utility.yul\":20725:20726   */\n      dup4\n        /* \"#utility.yul\":20718:20727   */\n      iszero\n        /* \"#utility.yul\":20698:20781   */\n      or\n        /* \"#utility.yul\":20675:20814   */\n      tag_480\n      jumpi\n        /* \"#utility.yul\":20794:20812   */\n      tag_481\n      tag_293\n      jump\t// in\n    tag_481:\n        /* \"#utility.yul\":20675:20814   */\n    tag_480:\n        /* \"#utility.yul\":20459:20821   */\n      pop\n        /* \"#utility.yul\":20411:20821   */\n      swap3\n      swap2\n      pop\n      pop\n      jump\t// out\n        /* \"#utility.yul\":20827:21007   */\n    tag_294:\n        /* \"#utility.yul\":20875:20952   */\n      0x4e487b7100000000000000000000000000000000000000000000000000000000\n        /* \"#utility.yul\":20872:20873   */\n      0x00\n        /* \"#utility.yul\":20865:20953   */\n      mstore\n        /* \"#utility.yul\":20972:20976   */\n      0x12\n        /* \"#utility.yul\":20969:20970   */\n      0x04\n        /* \"#utility.yul\":20962:20977   */\n      mstore\n        /* \"#utility.yul\":20996:21000   */\n      0x24\n        /* \"#utility.yul\":20993:20994   */\n      0x00\n        /* \"#utility.yul\":20986:21001   */\n      revert\n        /* \"#utility.yul\":21013:21198   */\n    tag_129:\n        /* \"#utility.yul\":21053:21054   */\n      0x00\n        /* \"#utility.yul\":21070:21090   */\n      tag_484\n        /* \"#utility.yul\":21088:21089   */\n      dup3\n        /* \"#utility.yul\":21070:21090   */\n      tag_249\n      jump\t// in\n    tag_484:\n        /* \"#utility.yul\":21065:21090   */\n      swap2\n      pop\n        /* \"#utility.yul\":21104:21124   */\n      tag_485\n        /* \"#utility.yul\":21122:21123   */\n      dup4\n        /* \"#utility.yul\":21104:21124   */\n      tag_249\n      jump\t// in\n    tag_485:\n        /* \"#utility.yul\":21099:21124   */\n      swap3\n      pop\n        /* \"#utility.yul\":21143:21144   */\n      dup3\n        /* \"#utility.yul\":21133:21168   */\n      tag_486\n      jumpi\n        /* \"#utility.yul\":21148:21166   */\n      tag_487\n      tag_294\n      jump\t// in\n    tag_487:\n        /* \"#utility.yul\":21133:21168   */\n    tag_486:\n        /* \"#utility.yul\":21190:21191   */\n      dup3\n        /* \"#utility.yul\":21187:21188   */\n      dup3\n        /* \"#utility.yul\":21183:21192   */\n      div\n        /* \"#utility.yul\":21178:21192   */\n      swap1\n      pop\n        /* \"#utility.yul\":21013:21198   */\n      swap3\n      swap2\n      pop\n      pop\n      jump\t// out\n        /* \"#utility.yul\":21204:21395   */\n    tag_133:\n        /* \"#utility.yul\":21244:21247   */\n      0x00\n        /* \"#utility.yul\":21263:21283   */\n      tag_489\n        /* \"#utility.yul\":21281:21282   */\n      dup3\n        /* \"#utility.yul\":21263:21283   */\n      tag_249\n      jump\t// in\n    tag_489:\n        /* \"#utility.yul\":21258:21283   */\n      swap2\n      pop\n        /* \"#utility.yul\":21297:21317   */\n      tag_490\n        /* \"#utility.yul\":21315:21316   */\n      dup4\n        /* \"#utility.yul\":21297:21317   */\n      tag_249\n      jump\t// in\n    tag_490:\n        /* \"#utility.yul\":21292:21317   */\n      swap3\n      pop\n        /* \"#utility.yul\":21340:21341   */\n      dup3\n        /* \"#utility.yul\":21337:21338   */\n      dup3\n        /* \"#utility.yul\":21333:21342   */\n      add\n        /* \"#utility.yul\":21326:21342   */\n      swap1\n      pop\n        /* \"#utility.yul\":21361:21364   */\n      dup1\n        /* \"#utility.yul\":21358:21359   */\n      dup3\n        /* \"#utility.yul\":21355:21365   */\n      gt\n        /* \"#utility.yul\":21352:21388   */\n      iszero\n      tag_491\n      jumpi\n        /* \"#utility.yul\":21368:21386   */\n      tag_492\n      tag_293\n      jump\t// in\n    tag_492:\n        /* \"#utility.yul\":21352:21388   */\n    tag_491:\n        /* \"#utility.yul\":21204:21395   */\n      swap3\n      swap2\n      pop\n      pop\n      jump\t// out\n        /* \"#utility.yul\":21401:21544   */\n    tag_295:\n        /* \"#utility.yul\":21458:21463   */\n      0x00\n        /* \"#utility.yul\":21489:21495   */\n      dup2\n        /* \"#utility.yul\":21483:21496   */\n      mload\n        /* \"#utility.yul\":21474:21496   */\n      swap1\n      pop\n        /* \"#utility.yul\":21505:21538   */\n      tag_494\n        /* \"#utility.yul\":21532:21537   */\n      dup2\n        /* \"#utility.yul\":21505:21538   */\n      tag_250\n      jump\t// in\n    tag_494:\n        /* \"#utility.yul\":21401:21544   */\n      swap3\n      swap2\n      pop\n      pop\n      jump\t// out\n        /* \"#utility.yul\":21550:21901   */\n    tag_138:\n        /* \"#utility.yul\":21620:21626   */\n      0x00\n        /* \"#utility.yul\":21669:21671   */\n      0x20\n        /* \"#utility.yul\":21657:21666   */\n      dup3\n        /* \"#utility.yul\":21648:21655   */\n      dup5\n        /* \"#utility.yul\":21644:21667   */\n      sub\n        /* \"#utility.yul\":21640:21672   */\n      slt\n        /* \"#utility.yul\":21637:21756   */\n      iszero\n      tag_496\n      jumpi\n        /* \"#utility.yul\":21675:21754   */\n      tag_497\n      tag_243\n      jump\t// in\n    tag_497:\n        /* \"#utility.yul\":21637:21756   */\n    tag_496:\n        /* \"#utility.yul\":21795:21796   */\n      0x00\n        /* \"#utility.yul\":21820:21884   */\n      tag_498\n        /* \"#utility.yul\":21876:21883   */\n      dup5\n        /* \"#utility.yul\":21867:21873   */\n      dup3\n        /* \"#utility.yul\":21856:21865   */\n      dup6\n        /* \"#utility.yul\":21852:21874   */\n      add\n        /* \"#utility.yul\":21820:21884   */\n      tag_295\n      jump\t// in\n    tag_498:\n        /* \"#utility.yul\":21810:21884   */\n      swap2\n      pop\n        /* \"#utility.yul\":21766:21894   */\n      pop\n        /* \"#utility.yul\":21550:21901   */\n      swap3\n      swap2\n      pop\n      pop\n      jump\t// out\n        /* \"#utility.yul\":21907:22086   */\n    tag_296:\n        /* \"#utility.yul\":22047:22078   */\n      0x496e73756666696369656e7420636f6e74726163742062616c616e6365000000\n        /* \"#utility.yul\":22043:22044   */\n      0x00\n        /* \"#utility.yul\":22035:22041   */\n      dup3\n        /* \"#utility.yul\":22031:22045   */\n      add\n        /* \"#utility.yul\":22024:22079   */\n      mstore\n        /* \"#utility.yul\":21907:22086   */\n      pop\n      jump\t// out\n        /* \"#utility.yul\":22092:22458   */\n    tag_297:\n        /* \"#utility.yul\":22234:22237   */\n      0x00\n        /* \"#utility.yul\":22255:22322   */\n      tag_501\n        /* \"#utility.yul\":22319:22321   */\n      0x1d\n        /* \"#utility.yul\":22314:22317   */\n      dup4\n        /* \"#utility.yul\":22255:22322   */\n      tag_272\n      jump\t// in\n    tag_501:\n        /* \"#utility.yul\":22248:22322   */\n      swap2\n      pop\n        /* \"#utility.yul\":22331:22424   */\n      tag_502\n        /* \"#utility.yul\":22420:22423   */\n      dup3\n        /* \"#utility.yul\":22331:22424   */\n      tag_296\n      jump\t// in\n    tag_502:\n        /* \"#utility.yul\":22449:22451   */\n      0x20\n        /* \"#utility.yul\":22444:22447   */\n      dup3\n        /* \"#utility.yul\":22440:22452   */\n      add\n        /* \"#utility.yul\":22433:22452   */\n      swap1\n      pop\n        /* \"#utility.yul\":22092:22458   */\n      swap2\n      swap1\n      pop\n      jump\t// out\n        /* \"#utility.yul\":22464:22883   */\n    tag_141:\n        /* \"#utility.yul\":22630:22634   */\n      0x00\n        /* \"#utility.yul\":22668:22670   */\n      0x20\n        /* \"#utility.yul\":22657:22666   */\n      dup3\n        /* \"#utility.yul\":22653:22671   */\n      add\n        /* \"#utility.yul\":22645:22671   */\n      swap1\n      pop\n        /* \"#utility.yul\":22717:22726   */\n      dup2\n        /* \"#utility.yul\":22711:22715   */\n      dup2\n        /* \"#utility.yul\":22707:22727   */\n      sub\n        /* \"#utility.yul\":22703:22704   */\n      0x00\n        /* \"#utility.yul\":22692:22701   */\n      dup4\n        /* \"#utility.yul\":22688:22705   */\n      add\n        /* \"#utility.yul\":22681:22728   */\n      mstore\n        /* \"#utility.yul\":22745:22876   */\n      tag_504\n        /* \"#utility.yul\":22871:22875   */\n      dup2\n        /* \"#utility.yul\":22745:22876   */\n      tag_297\n      jump\t// in\n    tag_504:\n        /* \"#utility.yul\":22737:22876   */\n      swap1\n      pop\n        /* \"#utility.yul\":22464:22883   */\n      swap2\n      swap1\n      pop\n      jump\t// out\n        /* \"#utility.yul\":22889:23221   */\n    tag_143:\n        /* \"#utility.yul\":23010:23014   */\n      0x00\n        /* \"#utility.yul\":23048:23050   */\n      0x40\n        /* \"#utility.yul\":23037:23046   */\n      dup3\n        /* \"#utility.yul\":23033:23051   */\n      add\n        /* \"#utility.yul\":23025:23051   */\n      swap1\n      pop\n        /* \"#utility.yul\":23061:23132   */\n      tag_506\n        /* \"#utility.yul\":23129:23130   */\n      0x00\n        /* \"#utility.yul\":23118:23127   */\n      dup4\n        /* \"#utility.yul\":23114:23131   */\n      add\n        /* \"#utility.yul\":23105:23111   */\n      dup6\n        /* \"#utility.yul\":23061:23132   */\n      tag_252\n      jump\t// in\n    tag_506:\n        /* \"#utility.yul\":23142:23214   */\n      tag_507\n        /* \"#utility.yul\":23210:23212   */\n      0x20\n        /* \"#utility.yul\":23199:23208   */\n      dup4\n        /* \"#utility.yul\":23195:23213   */\n      add\n        /* \"#utility.yul\":23186:23192   */\n      dup5\n        /* \"#utility.yul\":23142:23214   */\n      tag_253\n      jump\t// in\n    tag_507:\n        /* \"#utility.yul\":22889:23221   */\n      swap4\n      swap3\n      pop\n      pop\n      pop\n      jump\t// out\n        /* \"#utility.yul\":23227:23408   */\n    tag_298:\n        /* \"#utility.yul\":23367:23400   */\n      0x44697265637420726566657272616c207472616e73666572206661696c656400\n        /* \"#utility.yul\":23363:23364   */\n      0x00\n        /* \"#utility.yul\":23355:23361   */\n      dup3\n        /* \"#utility.yul\":23351:23365   */\n      add\n        /* \"#utility.yul\":23344:23401   */\n      mstore\n        /* \"#utility.yul\":23227:23408   */\n      pop\n      jump\t// out\n        /* \"#utility.yul\":23414:23780   */\n    tag_299:\n        /* \"#utility.yul\":23556:23559   */\n      0x00\n        /* \"#utility.yul\":23577:23644   */\n      tag_510\n        /* \"#utility.yul\":23641:23643   */\n      0x1f\n        /* \"#utility.yul\":23636:23639   */\n      dup4\n        /* \"#utility.yul\":23577:23644   */\n      tag_272\n      jump\t// in\n    tag_510:\n        /* \"#utility.yul\":23570:23644   */\n      swap2\n      pop\n        /* \"#utility.yul\":23653:23746   */\n      tag_511\n        /* \"#utility.yul\":23742:23745   */\n      dup3\n        /* \"#utility.yul\":23653:23746   */\n      tag_298\n      jump\t// in\n    tag_511:\n        /* \"#utility.yul\":23771:23773   */\n      0x20\n        /* \"#utility.yul\":23766:23769   */\n      dup3\n        /* \"#utility.yul\":23762:23774   */\n      add\n        /* \"#utility.yul\":23755:23774   */\n      swap1\n      pop\n        /* \"#utility.yul\":23414:23780   */\n      swap2\n      swap1\n      pop\n      jump\t// out\n        /* \"#utility.yul\":23786:24205   */\n    tag_149:\n        /* \"#utility.yul\":23952:23956   */\n      0x00\n        /* \"#utility.yul\":23990:23992   */\n      0x20\n        /* \"#utility.yul\":23979:23988   */\n      dup3\n        /* \"#utility.yul\":23975:23993   */\n      add\n        /* \"#utility.yul\":23967:23993   */\n      swap1\n      pop\n        /* \"#utility.yul\":24039:24048   */\n      dup2\n        /* \"#utility.yul\":24033:24037   */\n      dup2\n        /* \"#utility.yul\":24029:24049   */\n      sub\n        /* \"#utility.yul\":24025:24026   */\n      0x00\n        /* \"#utility.yul\":24014:24023   */\n      dup4\n        /* \"#utility.yul\":24010:24027   */\n      add\n        /* \"#utility.yul\":24003:24050   */\n      mstore\n        /* \"#utility.yul\":24067:24198   */\n      tag_513\n        /* \"#utility.yul\":24193:24197   */\n      dup2\n        /* \"#utility.yul\":24067:24198   */\n      tag_299\n      jump\t// in\n    tag_513:\n        /* \"#utility.yul\":24059:24198   */\n      swap1\n      pop\n        /* \"#utility.yul\":23786:24205   */\n      swap2\n      swap1\n      pop\n      jump\t// out\n        /* \"#utility.yul\":24211:24391   */\n    tag_300:\n        /* \"#utility.yul\":24351:24383   */\n      0x4c6576656c203120726577617264207472616e73666572206661696c65640000\n        /* \"#utility.yul\":24347:24348   */\n      0x00\n        /* \"#utility.yul\":24339:24345   */\n      dup3\n        /* \"#utility.yul\":24335:24349   */\n      add\n        /* \"#utility.yul\":24328:24384   */\n      mstore\n        /* \"#utility.yul\":24211:24391   */\n      pop\n      jump\t// out\n        /* \"#utility.yul\":24397:24763   */\n    tag_301:\n        /* \"#utility.yul\":24539:24542   */\n      0x00\n        /* \"#utility.yul\":24560:24627   */\n      tag_516\n        /* \"#utility.yul\":24624:24626   */\n      0x1e\n        /* \"#utility.yul\":24619:24622   */\n      dup4\n        /* \"#utility.yul\":24560:24627   */\n      tag_272\n      jump\t// in\n    tag_516:\n        /* \"#utility.yul\":24553:24627   */\n      swap2\n      pop\n        /* \"#utility.yul\":24636:24729   */\n      tag_517\n        /* \"#utility.yul\":24725:24728   */\n      dup3\n        /* \"#utility.yul\":24636:24729   */\n      tag_300\n      jump\t// in\n    tag_517:\n        /* \"#utility.yul\":24754:24756   */\n      0x20\n        /* \"#utility.yul\":24749:24752   */\n      dup3\n        /* \"#utility.yul\":24745:24757   */\n      add\n        /* \"#utility.yul\":24738:24757   */\n      swap1\n      pop\n        /* \"#utility.yul\":24397:24763   */\n      swap2\n      swap1\n      pop\n      jump\t// out\n        /* \"#utility.yul\":24769:25188   */\n    tag_156:\n        /* \"#utility.yul\":24935:24939   */\n      0x00\n        /* \"#utility.yul\":24973:24975   */\n      0x20\n        /* \"#utility.yul\":24962:24971   */\n      dup3\n        /* \"#utility.yul\":24958:24976   */\n      add\n        /* \"#utility.yul\":24950:24976   */\n      swap1\n      pop\n        /* \"#utility.yul\":25022:25031   */\n      dup2\n        /* \"#utility.yul\":25016:25020   */\n      dup2\n        /* \"#utility.yul\":25012:25032   */\n      sub\n        /* \"#utility.yul\":25008:25009   */\n      0x00\n        /* \"#utility.yul\":24997:25006   */\n      dup4\n        /* \"#utility.yul\":24993:25010   */\n      add\n        /* \"#utility.yul\":24986:25033   */\n      mstore\n        /* \"#utility.yul\":25050:25181   */\n      tag_519\n        /* \"#utility.yul\":25176:25180   */\n      dup2\n        /* \"#utility.yul\":25050:25181   */\n      tag_301\n      jump\t// in\n    tag_519:\n        /* \"#utility.yul\":25042:25181   */\n      swap1\n      pop\n        /* \"#utility.yul\":24769:25188   */\n      swap2\n      swap1\n      pop\n      jump\t// out\n        /* \"#utility.yul\":25194:25374   */\n    tag_166:\n        /* \"#utility.yul\":25242:25319   */\n      0x4e487b7100000000000000000000000000000000000000000000000000000000\n        /* \"#utility.yul\":25239:25240   */\n      0x00\n        /* \"#utility.yul\":25232:25320   */\n      mstore\n        /* \"#utility.yul\":25339:25343   */\n      0x32\n        /* \"#utility.yul\":25336:25337   */\n      0x04\n        /* \"#utility.yul\":25329:25344   */\n      mstore\n        /* \"#utility.yul\":25363:25367   */\n      0x24\n        /* \"#utility.yul\":25360:25361   */\n      0x00\n        /* \"#utility.yul\":25353:25368   */\n      revert\n        /* \"#utility.yul\":25380:25558   */\n    tag_302:\n        /* \"#utility.yul\":25520:25550   */\n      0x4c6576656c20726577617264207472616e73666572206661696c656400000000\n        /* \"#utility.yul\":25516:25517   */\n      0x00\n        /* \"#utility.yul\":25508:25514   */\n      dup3\n        /* \"#utility.yul\":25504:25518   */\n      add\n        /* \"#utility.yul\":25497:25551   */\n      mstore\n        /* \"#utility.yul\":25380:25558   */\n      pop\n      jump\t// out\n        /* \"#utility.yul\":25564:25930   */\n    tag_303:\n        /* \"#utility.yul\":25706:25709   */\n      0x00\n        /* \"#utility.yul\":25727:25794   */\n      tag_523\n        /* \"#utility.yul\":25791:25793   */\n      0x1c\n        /* \"#utility.yul\":25786:25789   */\n      dup4\n        /* \"#utility.yul\":25727:25794   */\n      tag_272\n      jump\t// in\n    tag_523:\n        /* \"#utility.yul\":25720:25794   */\n      swap2\n      pop\n        /* \"#utility.yul\":25803:25896   */\n      tag_524\n        /* \"#utility.yul\":25892:25895   */\n      dup3\n        /* \"#utility.yul\":25803:25896   */\n      tag_302\n      jump\t// in\n    tag_524:\n        /* \"#utility.yul\":25921:25923   */\n      0x20\n        /* \"#utility.yul\":25916:25919   */\n      dup3\n        /* \"#utility.yul\":25912:25924   */\n      add\n        /* \"#utility.yul\":25905:25924   */\n      swap1\n      pop\n        /* \"#utility.yul\":25564:25930   */\n      swap2\n      swap1\n      pop\n      jump\t// out\n        /* \"#utility.yul\":25936:26355   */\n    tag_211:\n        /* \"#utility.yul\":26102:26106   */\n      0x00\n        /* \"#utility.yul\":26140:26142   */\n      0x20\n        /* \"#utility.yul\":26129:26138   */\n      dup3\n        /* \"#utility.yul\":26125:26143   */\n      add\n        /* \"#utility.yul\":26117:26143   */\n      swap1\n      pop\n        /* \"#utility.yul\":26189:26198   */\n      dup2\n        /* \"#utility.yul\":26183:26187   */\n      dup2\n        /* \"#utility.yul\":26179:26199   */\n      sub\n        /* \"#utility.yul\":26175:26176   */\n      0x00\n        /* \"#utility.yul\":26164:26173   */\n      dup4\n        /* \"#utility.yul\":26160:26177   */\n      add\n        /* \"#utility.yul\":26153:26200   */\n      mstore\n        /* \"#utility.yul\":26217:26348   */\n      tag_526\n        /* \"#utility.yul\":26343:26347   */\n      dup2\n        /* \"#utility.yul\":26217:26348   */\n      tag_303\n      jump\t// in\n    tag_526:\n        /* \"#utility.yul\":26209:26348   */\n      swap1\n      pop\n        /* \"#utility.yul\":25936:26355   */\n      swap2\n      swap1\n      pop\n      jump\t// out\n        /* \"#utility.yul\":26361:26528   */\n    tag_215:\n        /* \"#utility.yul\":26398:26401   */\n      0x00\n        /* \"#utility.yul\":26421:26443   */\n      tag_528\n        /* \"#utility.yul\":26437:26442   */\n      dup3\n        /* \"#utility.yul\":26421:26443   */\n      tag_270\n      jump\t// in\n    tag_528:\n        /* \"#utility.yul\":26412:26443   */\n      swap2\n      pop\n        /* \"#utility.yul\":26465:26469   */\n      0xff\n        /* \"#utility.yul\":26458:26463   */\n      dup3\n        /* \"#utility.yul\":26455:26470   */\n      sub\n        /* \"#utility.yul\":26452:26493   */\n      tag_529\n      jumpi\n        /* \"#utility.yul\":26473:26491   */\n      tag_530\n      tag_293\n      jump\t// in\n    tag_530:\n        /* \"#utility.yul\":26452:26493   */\n    tag_529:\n        /* \"#utility.yul\":26520:26521   */\n      0x01\n        /* \"#utility.yul\":26513:26518   */\n      dup3\n        /* \"#utility.yul\":26509:26522   */\n      add\n        /* \"#utility.yul\":26502:26522   */\n      swap1\n      pop\n        /* \"#utility.yul\":26361:26528   */\n      swap2\n      swap1\n      pop\n      jump\t// out\n        /* \"#utility.yul\":26534:26714   */\n    tag_224:\n        /* \"#utility.yul\":26582:26659   */\n      0x4e487b7100000000000000000000000000000000000000000000000000000000\n        /* \"#utility.yul\":26579:26580   */\n      0x00\n        /* \"#utility.yul\":26572:26660   */\n      mstore\n        /* \"#utility.yul\":26679:26683   */\n      0x41\n        /* \"#utility.yul\":26676:26677   */\n      0x04\n        /* \"#utility.yul\":26669:26684   */\n      mstore\n        /* \"#utility.yul\":26703:26707   */\n      0x24\n        /* \"#utility.yul\":26700:26701   */\n      0x00\n        /* \"#utility.yul\":26693:26708   */\n      revert\n\n    auxdata: 0xa264697066735822122059cb5ac19f730423e44e08a7ea549b1875b67e9236279e613943ca41786c522664736f6c63430008190033\n}\n",
				"bytecode": {
					"linkReferences": {},
					"object": "60806040526040518060a00160405280600560ff168152602001600360ff168152602001600260ff168152602001600160ff168152602001600160ff16815250600990600561004f92919061020a565b5034801561005b575f80fd5b50604051612b88380380612b88833981810160405281019061007d919061031a565b335f806101000a81548173ffffffffffffffffffffffffffffffffffffffff021916908373ffffffffffffffffffffffffffffffffffffffff1602179055508060025f6101000a81548173ffffffffffffffffffffffffffffffffffffffff021916908373ffffffffffffffffffffffffffffffffffffffff160217905550600160035f805f9054906101000a900473ffffffffffffffffffffffffffffffffffffffff1673ffffffffffffffffffffffffffffffffffffffff1673ffffffffffffffffffffffffffffffffffffffff1681526020019081526020015f206004015f6101000a81548160ff021916908315150217905550600160065f601e81526020019081526020015f2081905550600260065f603c81526020019081526020015f2081905550600460065f605a81526020019081526020015f20819055506006805f607881526020019081526020015f2081905550600960065f60b481526020019081526020015f2081905550601460065f61016d81526020019081526020015f208190555050610345565b826005601f01602090048101928215610290579160200282015f5b8382111561026257835183826101000a81548160ff021916908360ff16021790555092602001926001016020815f01049283019260010302610225565b801561028e5782816101000a81549060ff02191690556001016020815f01049283019260010302610262565b505b50905061029d91906102a1565b5090565b5b808211156102b8575f815f9055506001016102a2565b5090565b5f80fd5b5f73ffffffffffffffffffffffffffffffffffffffff82169050919050565b5f6102e9826102c0565b9050919050565b6102f9816102df565b8114610303575f80fd5b50565b5f81519050610314816102f0565b92915050565b5f6020828403121561032f5761032e6102bc565b5b5f61033c84828501610306565b91505092915050565b612836806103525f395ff3fe608060405234801561000f575f80fd5b50600436106100cd575f3560e01c8063a2bdedf41161008a578063e22fcd7b11610064578063e22fcd7b1461023a578063e45a57d01461026a578063f6e888731461029a578063f7b17d10146102ca576100cd565b8063a2bdedf4146101b9578063a87430ba146101e9578063a98ad46c1461021c576100cd565b806305ad3935146100d15780631e43eb27146101035780634420e486146101335780637b0472f01461014f578063875bb4e21461016b5780638da5cb5b1461019b575b5f80fd5b6100eb60048036038101906100e69190611bfd565b6102e8565b6040516100fa93929190611c59565b60405180910390f35b61011d60048036038101906101189190611c8e565b610347565b60405161012a9190611cb9565b60405180910390f35b61014d60048036038101906101489190611cd2565b610377565b005b61016960048036038101906101649190611cfd565b6107a9565b005b61018560048036038101906101809190611c8e565b6117e5565b6040516101929190611d3b565b60405180910390f35b6101a36117fa565b6040516101b09190611cb9565b60405180910390f35b6101d360048036038101906101ce9190611c8e565b61181d565b6040516101e09190611cb9565b60405180910390f35b61020360048036038101906101fe9190611cd2565b611858565b6040516102139493929190611d6e565b60405180910390f35b6102246118af565b6040516102319190611e0c565b60405180910390f35b610254600480360381019061024f9190611cd2565b6118d4565b6040516102619190611f2b565b60405180910390f35b610284600480360381019061027f9190611c8e565b611af4565b6040516102919190611f66565b60405180910390f35b6102b460048036038101906102af9190611cd2565b611b1d565b6040516102c19190611d3b565b60405180910390f35b6102d2611b32565b6040516102df9190611d3b565b60405180910390f35b6004602052815f5260405f208181548110610301575f80fd5b905f5260205f2090600302015f9150915050805f015f9054906101000a900473ffffffffffffffffffffffffffffffffffffffff16908060010154908060020154905083565b6005602052805f5260405f205f915054906101000a900473ffffffffffffffffffffffffffffffffffffffff1681565b60035f3373ffffffffffffffffffffffffffffffffffffffff1673ffffffffffffffffffffffffffffffffffffffff1681526020019081526020015f206004015f9054906101000a900460ff1615610404576040517f08c379a00000000000000000000000000000000000000000000000000000000081526004016103fb90611fd9565b60405180910390fd5b3373ffffffffffffffffffffffffffffffffffffffff168173ffffffffffffffffffffffffffffffffffffffff1603610472576040517f08c379a000000000000000000000000000000000000000000000000000000000815260040161046990612041565b60405180910390fd5b60035f8273ffffffffffffffffffffffffffffffffffffffff1673ffffffffffffffffffffffffffffffffffffffff1681526020019081526020015f206004015f9054906101000a900460ff166104fe576040517f08c379a00000000000000000000000000000000000000000000000000000000081526004016104f5906120a9565b60405180910390fd5b5f60035f8373ffffffffffffffffffffffffffffffffffffffff1673ffffffffffffffffffffffffffffffffffffffff1681526020019081526020015f206001018054905011610583576040517f08c379a000000000000000000000000000000000000000000000000000000000815260040161057a90612137565b60405180910390fd5b8060035f3373ffffffffffffffffffffffffffffffffffffffff1673ffffffffffffffffffffffffffffffffffffffff1681526020019081526020015f205f015f6101000a81548173ffffffffffffffffffffffffffffffffffffffff021916908373ffffffffffffffffffffffffffffffffffffffff160217905550600160035f3373ffffffffffffffffffffffffffffffffffffffff1673ffffffffffffffffffffffffffffffffffffffff1681526020019081526020015f206004015f6101000a81548160ff021916908315150217905550600833908060018154018082558091505060019003905f5260205f20015f9091909190916101000a81548173ffffffffffffffffffffffffffffffffffffffff021916908373ffffffffffffffffffffffffffffffffffffffff16021790555060045f8273ffffffffffffffffffffffffffffffffffffffff1673ffffffffffffffffffffffffffffffffffffffff1681526020019081526020015f2060405180606001604052803373ffffffffffffffffffffffffffffffffffffffff1681526020015f815260200142815250908060018154018082558091505060019003905f5260205f2090600302015f909190919091505f820151815f015f6101000a81548173ffffffffffffffffffffffffffffffffffffffff021916908373ffffffffffffffffffffffffffffffffffffffff1602179055506020820151816001015560408201518160020155505050565b60035f3373ffffffffffffffffffffffffffffffffffffffff1673ffffffffffffffffffffffffffffffffffffffff1681526020019081526020015f206004015f9054906101000a900460ff16610835576040517f08c379a000000000000000000000000000000000000000000000000000000000815260040161082c9061219f565b60405180910390fd5b5f8111610877576040517f08c379a000000000000000000000000000000000000000000000000000000000815260040161086e9061222d565b60405180910390fd5b5f60065f8481526020019081526020015f2054116108ca576040517f08c379a00000000000000000000000000000000000000000000000000000000081526004016108c190612295565b60405180910390fd5b5f60035f3373ffffffffffffffffffffffffffffffffffffffff1673ffffffffffffffffffffffffffffffffffffffff1681526020019081526020015f205f015f9054906101000a900473ffffffffffffffffffffffffffffffffffffffff1690505f73ffffffffffffffffffffffffffffffffffffffff168173ffffffffffffffffffffffffffffffffffffffff16146109e5575f60035f8373ffffffffffffffffffffffffffffffffffffffff1673ffffffffffffffffffffffffffffffffffffffff1681526020019081526020015f2060010180549050116109e4576040517f08c379a00000000000000000000000000000000000000000000000000000000081526004016109db90612323565b60405180910390fd5b5b5f60025f9054906101000a900473ffffffffffffffffffffffffffffffffffffffff1673ffffffffffffffffffffffffffffffffffffffff166323b872dd3330866040518463ffffffff1660e01b8152600401610a4493929190612341565b6020604051808303815f875af1158015610a60573d5f803e3d5ffd5b505050506040513d601f19601f82011682018060405250810190610a8491906123a0565b905080610ac6576040517f08c379a0000000000000000000000000000000000000000000000000000000008152600401610abd90612415565b60405180910390fd5b5f60015f8154610ad590612460565b919050819055905060035f3373ffffffffffffffffffffffffffffffffffffffff1673ffffffffffffffffffffffffffffffffffffffff1681526020019081526020015f206001016040518060c0016040528060015481526020018381526020018681526020014281526020018781526020015f1515815250908060018154018082558091505060019003905f5260205f2090600602015f909190919091505f820151815f01556020820151816001015560408201518160020155606082015181600301556080820151816004015560a0820151816005015f6101000a81548160ff02191690831515021790555050503360055f8381526020019081526020015f205f6101000a81548173ffffffffffffffffffffffffffffffffffffffff021916908373ffffffffffffffffffffffffffffffffffffffff1602179055505f600160035f3373ffffffffffffffffffffffffffffffffffffffff1673ffffffffffffffffffffffffffffffffffffffff1681526020019081526020015f20600101805490501490505f60035f3373ffffffffffffffffffffffffffffffffffffffff1673ffffffffffffffffffffffffffffffffffffffff1681526020019081526020015f205f015f9054906101000a900473ffffffffffffffffffffffffffffffffffffffff1690505f5b60058160ff16108015610d0157505f73ffffffffffffffffffffffffffffffffffffffff168273ffffffffffffffffffffffffffffffffffffffff1614155b156117db575f808260ff16036114ba578315611209575f606460058a610d2791906124a7565b610d319190612515565b90505f606460058b610d4391906124a7565b610d4d9190612515565b90508082610d5b9190612545565b60025f9054906101000a900473ffffffffffffffffffffffffffffffffffffffff1673ffffffffffffffffffffffffffffffffffffffff166370a08231306040518263ffffffff1660e01b8152600401610db59190611cb9565b602060405180830381865afa158015610dd0573d5f803e3d5ffd5b505050506040513d601f19601f82011682018060405250810190610df4919061258c565b1015610e35576040517f08c379a0000000000000000000000000000000000000000000000000000000008152600401610e2c90612601565b60405180910390fd5b60025f9054906101000a900473ffffffffffffffffffffffffffffffffffffffff1673ffffffffffffffffffffffffffffffffffffffff1663a9059cbb86846040518363ffffffff1660e01b8152600401610e9192919061261f565b6020604051808303815f875af1158015610ead573d5f803e3d5ffd5b505050506040513d601f19601f82011682018060405250810190610ed191906123a0565b610f10576040517f08c379a0000000000000000000000000000000000000000000000000000000008152600401610f0790612690565b60405180910390fd5b60025f9054906101000a900473ffffffffffffffffffffffffffffffffffffffff1673ffffffffffffffffffffffffffffffffffffffff1663a9059cbb86836040518363ffffffff1660e01b8152600401610f6c92919061261f565b6020604051808303815f875af1158015610f88573d5f803e3d5ffd5b505050506040513d601f19601f82011682018060405250810190610fac91906123a0565b610feb576040517f08c379a0000000000000000000000000000000000000000000000000000000008152600401610fe2906126f8565b60405180910390fd5b8160075f8773ffffffffffffffffffffffffffffffffffffffff1673ffffffffffffffffffffffffffffffffffffffff1681526020019081526020015f205f8282546110379190612545565b92505081905550808261104a9190612545565b60035f8773ffffffffffffffffffffffffffffffffffffffff1673ffffffffffffffffffffffffffffffffffffffff1681526020019081526020015f206002015f8282546110989190612545565b925050819055508060035f8773ffffffffffffffffffffffffffffffffffffffff1673ffffffffffffffffffffffffffffffffffffffff1681526020019081526020015f206003015f8282546110ee9190612545565b925050819055505f60045f8773ffffffffffffffffffffffffffffffffffffffff1673ffffffffffffffffffffffffffffffffffffffff1681526020019081526020015f2090505f5b8180549050811015611200573373ffffffffffffffffffffffffffffffffffffffff1682828154811061116d5761116c612716565b5b905f5260205f2090600302015f015f9054906101000a900473ffffffffffffffffffffffffffffffffffffffff1673ffffffffffffffffffffffffffffffffffffffff16036111f357838282815481106111ca576111c9612716565b5b905f5260205f2090600302016001015f8282546111e79190612545565b92505081905550611200565b8080600101915050611137565b505050506114b5565b606460098360ff166005811061122257611221612716565b5b602091828204019190069054906101000a900460ff1660ff168961124691906124a7565b6112509190612515565b90508060025f9054906101000a900473ffffffffffffffffffffffffffffffffffffffff1673ffffffffffffffffffffffffffffffffffffffff166370a08231306040518263ffffffff1660e01b81526004016112ad9190611cb9565b602060405180830381865afa1580156112c8573d5f803e3d5ffd5b505050506040513d601f19601f820116820180604052508101906112ec919061258c565b101561132d576040517f08c379a000000000000000000000000000000000000000000000000000000000815260040161132490612601565b60405180910390fd5b60025f9054906101000a900473ffffffffffffffffffffffffffffffffffffffff1673ffffffffffffffffffffffffffffffffffffffff1663a9059cbb84836040518363ffffffff1660e01b815260040161138992919061261f565b6020604051808303815f875af11580156113a5573d5f803e3d5ffd5b505050506040513d601f19601f820116820180604052508101906113c991906123a0565b611408576040517f08c379a00000000000000000000000000000000000000000000000000000000081526004016113ff906126f8565b60405180910390fd5b8060035f8573ffffffffffffffffffffffffffffffffffffffff1673ffffffffffffffffffffffffffffffffffffffff1681526020019081526020015f206002015f8282546114579190612545565b925050819055508060035f8573ffffffffffffffffffffffffffffffffffffffff1673ffffffffffffffffffffffffffffffffffffffff1681526020019081526020015f206003015f8282546114ad9190612545565b925050819055505b611766565b606460098360ff16600581106114d3576114d2612716565b5b602091828204019190069054906101000a900460ff1660ff16896114f791906124a7565b6115019190612515565b90508060025f9054906101000a900473ffffffffffffffffffffffffffffffffffffffff1673ffffffffffffffffffffffffffffffffffffffff166370a08231306040518263ffffffff1660e01b815260040161155e9190611cb9565b602060405180830381865afa158015611579573d5f803e3d5ffd5b505050506040513d601f19601f8201168201806040525081019061159d919061258c565b10156115de576040517f08c379a00000000000000000000000000000000000000000000000000000000081526004016115d590612601565b60405180910390fd5b60025f9054906101000a900473ffffffffffffffffffffffffffffffffffffffff1673ffffffffffffffffffffffffffffffffffffffff1663a9059cbb84836040518363ffffffff1660e01b815260040161163a92919061261f565b6020604051808303815f875af1158015611656573d5f803e3d5ffd5b505050506040513d601f19601f8201168201806040525081019061167a91906123a0565b6116b9576040517f08c379a00000000000000000000000000000000000000000000000000000000081526004016116b09061278d565b60405180910390fd5b8060035f8573ffffffffffffffffffffffffffffffffffffffff1673ffffffffffffffffffffffffffffffffffffffff1681526020019081526020015f206002015f8282546117089190612545565b925050819055508060035f8573ffffffffffffffffffffffffffffffffffffffff1673ffffffffffffffffffffffffffffffffffffffff1681526020019081526020015f206003015f82825461175e9190612545565b925050819055505b60035f8473ffffffffffffffffffffffffffffffffffffffff1673ffffffffffffffffffffffffffffffffffffffff1681526020019081526020015f205f015f9054906101000a900473ffffffffffffffffffffffffffffffffffffffff1692505080806117d3906127ab565b915050610cc2565b5050505050505050565b6006602052805f5260405f205f915090505481565b5f8054906101000a900473ffffffffffffffffffffffffffffffffffffffff1681565b6008818154811061182c575f80fd5b905f5260205f20015f915054906101000a900473ffffffffffffffffffffffffffffffffffffffff1681565b6003602052805f5260405f205f91509050805f015f9054906101000a900473ffffffffffffffffffffffffffffffffffffffff1690806002015490806003015490806004015f9054906101000a900460ff16905084565b60025f9054906101000a900473ffffffffffffffffffffffffffffffffffffffff1681565b60605f60045f8473ffffffffffffffffffffffffffffffffffffffff1673ffffffffffffffffffffffffffffffffffffffff1681526020019081526020015f20805480602002602001604051908101604052809291908181526020015f905b828210156119cb578382905f5260205f2090600302016040518060600160405290815f82015f9054906101000a900473ffffffffffffffffffffffffffffffffffffffff1673ffffffffffffffffffffffffffffffffffffffff1673ffffffffffffffffffffffffffffffffffffffff1681526020016001820154815260200160028201548152505081526020019060010190611933565b5050505090505f815167ffffffffffffffff8111156119ed576119ec6127d3565b5b604051908082528060200260200182016040528015611a2657816020015b611a13611b38565b815260200190600190039081611a0b5790505b5090505f5b8251811015611ae9576040518060600160405280848381518110611a5257611a51612716565b5b60200260200101515f015173ffffffffffffffffffffffffffffffffffffffff168152602001848381518110611a8b57611a8a612716565b5b6020026020010151602001518152602001848381518110611aaf57611aae612716565b5b602002602001015160400151815250828281518110611ad157611ad0612716565b5b60200260200101819052508080600101915050611a2b565b508092505050919050565b60098160058110611b03575f80fd5b60209182820401919006915054906101000a900460ff1681565b6007602052805f5260405f205f915090505481565b60015481565b60405180606001604052805f73ffffffffffffffffffffffffffffffffffffffff1681526020015f81526020015f81525090565b5f80fd5b5f73ffffffffffffffffffffffffffffffffffffffff82169050919050565b5f611b9982611b70565b9050919050565b611ba981611b8f565b8114611bb3575f80fd5b50565b5f81359050611bc481611ba0565b92915050565b5f819050919050565b611bdc81611bca565b8114611be6575f80fd5b50565b5f81359050611bf781611bd3565b92915050565b5f8060408385031215611c1357611c12611b6c565b5b5f611c2085828601611bb6565b9250506020611c3185828601611be9565b9150509250929050565b611c4481611b8f565b82525050565b611c5381611bca565b82525050565b5f606082019050611c6c5f830186611c3b565b611c796020830185611c4a565b611c866040830184611c4a565b949350505050565b5f60208284031215611ca357611ca2611b6c565b5b5f611cb084828501611be9565b91505092915050565b5f602082019050611ccc5f830184611c3b565b92915050565b5f60208284031215611ce757611ce6611b6c565b5b5f611cf484828501611bb6565b91505092915050565b5f8060408385031215611d1357611d12611b6c565b5b5f611d2085828601611be9565b9250506020611d3185828601611be9565b9150509250929050565b5f602082019050611d4e5f830184611c4a565b92915050565b5f8115159050919050565b611d6881611d54565b82525050565b5f608082019050611d815f830187611c3b565b611d8e6020830186611c4a565b611d9b6040830185611c4a565b611da86060830184611d5f565b95945050505050565b5f819050919050565b5f611dd4611dcf611dca84611b70565b611db1565b611b70565b9050919050565b5f611de582611dba565b9050919050565b5f611df682611ddb565b9050919050565b611e0681611dec565b82525050565b5f602082019050611e1f5f830184611dfd565b92915050565b5f81519050919050565b5f82825260208201905092915050565b5f819050602082019050919050565b611e5781611b8f565b82525050565b611e6681611bca565b82525050565b606082015f820151611e805f850182611e4e565b506020820151611e936020850182611e5d565b506040820151611ea66040850182611e5d565b50505050565b5f611eb78383611e6c565b60608301905092915050565b5f602082019050919050565b5f611ed982611e25565b611ee38185611e2f565b9350611eee83611e3f565b805f5b83811015611f1e578151611f058882611eac565b9750611f1083611ec3565b925050600181019050611ef1565b5085935050505092915050565b5f6020820190508181035f830152611f438184611ecf565b905092915050565b5f60ff82169050919050565b611f6081611f4b565b82525050565b5f602082019050611f795f830184611f57565b92915050565b5f82825260208201905092915050565b7f416c7265616479207265676973746572656400000000000000000000000000005f82015250565b5f611fc3601283611f7f565b9150611fce82611f8f565b602082019050919050565b5f6020820190508181035f830152611ff081611fb7565b9050919050565b7f43616e6e6f7420726566657220796f757273656c6600000000000000000000005f82015250565b5f61202b601583611f7f565b915061203682611ff7565b602082019050919050565b5f6020820190508181035f8301526120588161201f565b9050919050565b7f5265666572726572206e6f7420726567697374657265640000000000000000005f82015250565b5f612093601783611f7f565b915061209e8261205f565b602082019050919050565b5f6020820190508181035f8301526120c081612087565b9050919050565b7f5265666572726572206d757374207374616b65206265666f726520796f7520635f8201527f616e207265676973746572000000000000000000000000000000000000000000602082015250565b5f612121602b83611f7f565b915061212c826120c7565b604082019050919050565b5f6020820190508181035f83015261214e81612115565b9050919050565b7f4e6f7420726567697374657265640000000000000000000000000000000000005f82015250565b5f612189600e83611f7f565b915061219482612155565b602082019050919050565b5f6020820190508181035f8301526121b68161217d565b9050919050565b7f5374616b6520616d6f756e74206d7573742062652067726561746572207468615f8201527f6e20300000000000000000000000000000000000000000000000000000000000602082015250565b5f612217602383611f7f565b9150612222826121bd565b604082019050919050565b5f6020820190508181035f8301526122448161220b565b9050919050565b7f496e76616c6964207374616b696e67206475726174696f6e00000000000000005f82015250565b5f61227f601883611f7f565b915061228a8261224b565b602082019050919050565b5f6020820190508181035f8301526122ac81612273565b9050919050565b7f5265666572726572206d757374207374616b65206265666f726520796f7520635f8201527f616e207374616b65000000000000000000000000000000000000000000000000602082015250565b5f61230d602883611f7f565b9150612318826122b3565b604082019050919050565b5f6020820190508181035f83015261233a81612301565b9050919050565b5f6060820190506123545f830186611c3b565b6123616020830185611c3b565b61236e6040830184611c4a565b949350505050565b61237f81611d54565b8114612389575f80fd5b50565b5f8151905061239a81612376565b92915050565b5f602082840312156123b5576123b4611b6c565b5b5f6123c28482850161238c565b91505092915050565b7f55534454207472616e73666572206661696c65640000000000000000000000005f82015250565b5f6123ff601483611f7f565b915061240a826123cb565b602082019050919050565b5f6020820190508181035f83015261242c816123f3565b9050919050565b7f4e487b71000000000000000000000000000000000000000000000000000000005f52601160045260245ffd5b5f61246a82611bca565b91507fffffffffffffffffffffffffffffffffffffffffffffffffffffffffffffffff820361249c5761249b612433565b5b600182019050919050565b5f6124b182611bca565b91506124bc83611bca565b92508282026124ca81611bca565b915082820484148315176124e1576124e0612433565b5b5092915050565b7f4e487b71000000000000000000000000000000000000000000000000000000005f52601260045260245ffd5b5f61251f82611bca565b915061252a83611bca565b92508261253a576125396124e8565b5b828204905092915050565b5f61254f82611bca565b915061255a83611bca565b925082820190508082111561257257612571612433565b5b92915050565b5f8151905061258681611bd3565b92915050565b5f602082840312156125a1576125a0611b6c565b5b5f6125ae84828501612578565b91505092915050565b7f496e73756666696369656e7420636f6e74726163742062616c616e63650000005f82015250565b5f6125eb601d83611f7f565b91506125f6826125b7565b602082019050919050565b5f6020820190508181035f830152612618816125df565b9050919050565b5f6040820190506126325f830185611c3b565b61263f6020830184611c4a565b9392505050565b7f44697265637420726566657272616c207472616e73666572206661696c6564005f82015250565b5f61267a601f83611f7f565b915061268582612646565b602082019050919050565b5f6020820190508181035f8301526126a78161266e565b9050919050565b7f4c6576656c203120726577617264207472616e73666572206661696c656400005f82015250565b5f6126e2601e83611f7f565b91506126ed826126ae565b602082019050919050565b5f6020820190508181035f83015261270f816126d6565b9050919050565b7f4e487b71000000000000000000000000000000000000000000000000000000005f52603260045260245ffd5b7f4c6576656c20726577617264207472616e73666572206661696c6564000000005f82015250565b5f612777601c83611f7f565b915061278282612743565b602082019050919050565b5f6020820190508181035f8301526127a48161276b565b9050919050565b5f6127b582611f4b565b915060ff82036127c8576127c7612433565b5b600182019050919050565b7f4e487b71000000000000000000000000000000000000000000000000000000005f52604160045260245ffdfea264697066735822122059cb5ac19f730423e44e08a7ea549b1875b67e9236279e613943ca41786c522664736f6c63430008190033",
					"opcodes": "PUSH1 0x80 PUSH1 0x40 MSTORE PUSH1 0x40 MLOAD DUP1 PUSH1 0xA0 ADD PUSH1 0x40 MSTORE DUP1 PUSH1 0x5 PUSH1 0xFF AND DUP2 MSTORE PUSH1 0x20 ADD PUSH1 0x3 PUSH1 0xFF AND DUP2 MSTORE PUSH1 0x20 ADD PUSH1 0x2 PUSH1 0xFF AND DUP2 MSTORE PUSH1 0x20 ADD PUSH1 0x1 PUSH1 0xFF AND DUP2 MSTORE PUSH1 0x20 ADD PUSH1 0x1 PUSH1 0xFF AND DUP2 MSTORE POP PUSH1 0x9 SWAP1 PUSH1 0x5 PUSH2 0x4F SWAP3 SWAP2 SWAP1 PUSH2 0x20A JUMP JUMPDEST POP CALLVALUE DUP1 ISZERO PUSH2 0x5B JUMPI PUSH0 DUP1 REVERT JUMPDEST POP PUSH1 0x40 MLOAD PUSH2 0x2B88 CODESIZE SUB DUP1 PUSH2 0x2B88 DUP4 CODECOPY DUP2 DUP2 ADD PUSH1 0x40 MSTORE DUP2 ADD SWAP1 PUSH2 0x7D SWAP2 SWAP1 PUSH2 0x31A JUMP JUMPDEST CALLER PUSH0 DUP1 PUSH2 0x100 EXP DUP2 SLOAD DUP2 PUSH20 0xFFFFFFFFFFFFFFFFFFFFFFFFFFFFFFFFFFFFFFFF MUL NOT AND SWAP1 DUP4 PUSH20 0xFFFFFFFFFFFFFFFFFFFFFFFFFFFFFFFFFFFFFFFF AND MUL OR SWAP1 SSTORE POP DUP1 PUSH1 0x2 PUSH0 PUSH2 0x100 EXP DUP2 SLOAD DUP2 PUSH20 0xFFFFFFFFFFFFFFFFFFFFFFFFFFFFFFFFFFFFFFFF MUL NOT AND SWAP1 DUP4 PUSH20 0xFFFFFFFFFFFFFFFFFFFFFFFFFFFFFFFFFFFFFFFF AND MUL OR SWAP1 SSTORE POP PUSH1 0x1 PUSH1 0x3 PUSH0 DUP1 PUSH0 SWAP1 SLOAD SWAP1 PUSH2 0x100 EXP SWAP1 DIV PUSH20 0xFFFFFFFFFFFFFFFFFFFFFFFFFFFFFFFFFFFFFFFF AND PUSH20 0xFFFFFFFFFFFFFFFFFFFFFFFFFFFFFFFFFFFFFFFF AND PUSH20 0xFFFFFFFFFFFFFFFFFFFFFFFFFFFFFFFFFFFFFFFF AND DUP2 MSTORE PUSH1 0x20 ADD SWAP1 DUP2 MSTORE PUSH1 0x20 ADD PUSH0 KECCAK256 PUSH1 0x4 ADD PUSH0 PUSH2 0x100 EXP DUP2 SLOAD DUP2 PUSH1 0xFF MUL NOT AND SWAP1 DUP4 ISZERO ISZERO MUL OR SWAP1 SSTORE POP PUSH1 0x1 PUSH1 0x6 PUSH0 PUSH1 0x1E DUP2 MSTORE PUSH1 0x20 ADD SWAP1 DUP2 MSTORE PUSH1 0x20 ADD PUSH0 KECCAK256 DUP2 SWAP1 SSTORE POP PUSH1 0x2 PUSH1 0x6 PUSH0 PUSH1 0x3C DUP2 MSTORE PUSH1 0x20 ADD SWAP1 DUP2 MSTORE PUSH1 0x20 ADD PUSH0 KECCAK256 DUP2 SWAP1 SSTORE POP PUSH1 0x4 PUSH1 0x6 PUSH0 PUSH1 0x5A DUP2 MSTORE PUSH1 0x20 ADD SWAP1 DUP2 MSTORE PUSH1 0x20 ADD PUSH0 KECCAK256 DUP2 SWAP1 SSTORE POP PUSH1 0x6 DUP1 PUSH0 PUSH1 0x78 DUP2 MSTORE PUSH1 0x20 ADD SWAP1 DUP2 MSTORE PUSH1 0x20 ADD PUSH0 KECCAK256 DUP2 SWAP1 SSTORE POP PUSH1 0x9 PUSH1 0x6 PUSH0 PUSH1 0xB4 DUP2 MSTORE PUSH1 0x20 ADD SWAP1 DUP2 MSTORE PUSH1 0x20 ADD PUSH0 KECCAK256 DUP2 SWAP1 SSTORE POP PUSH1 0x14 PUSH1 0x6 PUSH0 PUSH2 0x16D DUP2 MSTORE PUSH1 0x20 ADD SWAP1 DUP2 MSTORE PUSH1 0x20 ADD PUSH0 KECCAK256 DUP2 SWAP1 SSTORE POP POP PUSH2 0x345 JUMP JUMPDEST DUP3 PUSH1 0x5 PUSH1 0x1F ADD PUSH1 0x20 SWAP1 DIV DUP2 ADD SWAP3 DUP3 ISZERO PUSH2 0x290 JUMPI SWAP2 PUSH1 0x20 MUL DUP3 ADD PUSH0 JUMPDEST DUP4 DUP3 GT ISZERO PUSH2 0x262 JUMPI DUP4 MLOAD DUP4 DUP3 PUSH2 0x100 EXP DUP2 SLOAD DUP2 PUSH1 0xFF MUL NOT AND SWAP1 DUP4 PUSH1 0xFF AND MUL OR SWAP1 SSTORE POP SWAP3 PUSH1 0x20 ADD SWAP3 PUSH1 0x1 ADD PUSH1 0x20 DUP2 PUSH0 ADD DIV SWAP3 DUP4 ADD SWAP3 PUSH1 0x1 SUB MUL PUSH2 0x225 JUMP JUMPDEST DUP1 ISZERO PUSH2 0x28E JUMPI DUP3 DUP2 PUSH2 0x100 EXP DUP2 SLOAD SWAP1 PUSH1 0xFF MUL NOT AND SWAP1 SSTORE PUSH1 0x1 ADD PUSH1 0x20 DUP2 PUSH0 ADD DIV SWAP3 DUP4 ADD SWAP3 PUSH1 0x1 SUB MUL PUSH2 0x262 JUMP JUMPDEST POP JUMPDEST POP SWAP1 POP PUSH2 0x29D SWAP2 SWAP1 PUSH2 0x2A1 JUMP JUMPDEST POP SWAP1 JUMP JUMPDEST JUMPDEST DUP1 DUP3 GT ISZERO PUSH2 0x2B8 JUMPI PUSH0 DUP2 PUSH0 SWAP1 SSTORE POP PUSH1 0x1 ADD PUSH2 0x2A2 JUMP JUMPDEST POP SWAP1 JUMP JUMPDEST PUSH0 DUP1 REVERT JUMPDEST PUSH0 PUSH20 0xFFFFFFFFFFFFFFFFFFFFFFFFFFFFFFFFFFFFFFFF DUP3 AND SWAP1 POP SWAP2 SWAP1 POP JUMP JUMPDEST PUSH0 PUSH2 0x2E9 DUP3 PUSH2 0x2C0 JUMP JUMPDEST SWAP1 POP SWAP2 SWAP1 POP JUMP JUMPDEST PUSH2 0x2F9 DUP2 PUSH2 0x2DF JUMP JUMPDEST DUP2 EQ PUSH2 0x303 JUMPI PUSH0 DUP1 REVERT JUMPDEST POP JUMP JUMPDEST PUSH0 DUP2 MLOAD SWAP1 POP PUSH2 0x314 DUP2 PUSH2 0x2F0 JUMP JUMPDEST SWAP3 SWAP2 POP POP JUMP JUMPDEST PUSH0 PUSH1 0x20 DUP3 DUP5 SUB SLT ISZERO PUSH2 0x32F JUMPI PUSH2 0x32E PUSH2 0x2BC JUMP JUMPDEST JUMPDEST PUSH0 PUSH2 0x33C DUP5 DUP3 DUP6 ADD PUSH2 0x306 JUMP JUMPDEST SWAP2 POP POP SWAP3 SWAP2 POP POP JUMP JUMPDEST PUSH2 0x2836 DUP1 PUSH2 0x352 PUSH0 CODECOPY PUSH0 RETURN INVALID PUSH1 0x80 PUSH1 0x40 MSTORE CALLVALUE DUP1 ISZERO PUSH2 0xF JUMPI PUSH0 DUP1 REVERT JUMPDEST POP PUSH1 0x4 CALLDATASIZE LT PUSH2 0xCD JUMPI PUSH0 CALLDATALOAD PUSH1 0xE0 SHR DUP1 PUSH4 0xA2BDEDF4 GT PUSH2 0x8A JUMPI DUP1 PUSH4 0xE22FCD7B GT PUSH2 0x64 JUMPI DUP1 PUSH4 0xE22FCD7B EQ PUSH2 0x23A JUMPI DUP1 PUSH4 0xE45A57D0 EQ PUSH2 0x26A JUMPI DUP1 PUSH4 0xF6E88873 EQ PUSH2 0x29A JUMPI DUP1 PUSH4 0xF7B17D10 EQ PUSH2 0x2CA JUMPI PUSH2 0xCD JUMP JUMPDEST DUP1 PUSH4 0xA2BDEDF4 EQ PUSH2 0x1B9 JUMPI DUP1 PUSH4 0xA87430BA EQ PUSH2 0x1E9 JUMPI DUP1 PUSH4 0xA98AD46C EQ PUSH2 0x21C JUMPI PUSH2 0xCD JUMP JUMPDEST DUP1 PUSH4 0x5AD3935 EQ PUSH2 0xD1 JUMPI DUP1 PUSH4 0x1E43EB27 EQ PUSH2 0x103 JUMPI DUP1 PUSH4 0x4420E486 EQ PUSH2 0x133 JUMPI DUP1 PUSH4 0x7B0472F0 EQ PUSH2 0x14F JUMPI DUP1 PUSH4 0x875BB4E2 EQ PUSH2 0x16B JUMPI DUP1 PUSH4 0x8DA5CB5B EQ PUSH2 0x19B JUMPI JUMPDEST PUSH0 DUP1 REVERT JUMPDEST PUSH2 0xEB PUSH1 0x4 DUP1 CALLDATASIZE SUB DUP2 ADD SWAP1 PUSH2 0xE6 SWAP2 SWAP1 PUSH2 0x1BFD JUMP JUMPDEST PUSH2 0x2E8 JUMP JUMPDEST PUSH1 0x40 MLOAD PUSH2 0xFA SWAP4 SWAP3 SWAP2 SWAP1 PUSH2 0x1C59 JUMP JUMPDEST PUSH1 0x40 MLOAD DUP1 SWAP2 SUB SWAP1 RETURN JUMPDEST PUSH2 0x11D PUSH1 0x4 DUP1 CALLDATASIZE SUB DUP2 ADD SWAP1 PUSH2 0x118 SWAP2 SWAP1 PUSH2 0x1C8E JUMP JUMPDEST PUSH2 0x347 JUMP JUMPDEST PUSH1 0x40 MLOAD PUSH2 0x12A SWAP2 SWAP1 PUSH2 0x1CB9 JUMP JUMPDEST PUSH1 0x40 MLOAD DUP1 SWAP2 SUB SWAP1 RETURN JUMPDEST PUSH2 0x14D PUSH1 0x4 DUP1 CALLDATASIZE SUB DUP2 ADD SWAP1 PUSH2 0x148 SWAP2 SWAP1 PUSH2 0x1CD2 JUMP JUMPDEST PUSH2 0x377 JUMP JUMPDEST STOP JUMPDEST PUSH2 0x169 PUSH1 0x4 DUP1 CALLDATASIZE SUB DUP2 ADD SWAP1 PUSH2 0x164 SWAP2 SWAP1 PUSH2 0x1CFD JUMP JUMPDEST PUSH2 0x7A9 JUMP JUMPDEST STOP JUMPDEST PUSH2 0x185 PUSH1 0x4 DUP1 CALLDATASIZE SUB DUP2 ADD SWAP1 PUSH2 0x180 SWAP2 SWAP1 PUSH2 0x1C8E JUMP JUMPDEST PUSH2 0x17E5 JUMP JUMPDEST PUSH1 0x40 MLOAD PUSH2 0x192 SWAP2 SWAP1 PUSH2 0x1D3B JUMP JUMPDEST PUSH1 0x40 MLOAD DUP1 SWAP2 SUB SWAP1 RETURN JUMPDEST PUSH2 0x1A3 PUSH2 0x17FA JUMP JUMPDEST PUSH1 0x40 MLOAD PUSH2 0x1B0 SWAP2 SWAP1 PUSH2 0x1CB9 JUMP JUMPDEST PUSH1 0x40 MLOAD DUP1 SWAP2 SUB SWAP1 RETURN JUMPDEST PUSH2 0x1D3 PUSH1 0x4 DUP1 CALLDATASIZE SUB DUP2 ADD SWAP1 PUSH2 0x1CE SWAP2 SWAP1 PUSH2 0x1C8E JUMP JUMPDEST PUSH2 0x181D JUMP JUMPDEST PUSH1 0x40 MLOAD PUSH2 0x1E0 SWAP2 SWAP1 PUSH2 0x1CB9 JUMP JUMPDEST PUSH1 0x40 MLOAD DUP1 SWAP2 SUB SWAP1 RETURN JUMPDEST PUSH2 0x203 PUSH1 0x4 DUP1 CALLDATASIZE SUB DUP2 ADD SWAP1 PUSH2 0x1FE SWAP2 SWAP1 PUSH2 0x1CD2 JUMP JUMPDEST PUSH2 0x1858 JUMP JUMPDEST PUSH1 0x40 MLOAD PUSH2 0x213 SWAP5 SWAP4 SWAP3 SWAP2 SWAP1 PUSH2 0x1D6E JUMP JUMPDEST PUSH1 0x40 MLOAD DUP1 SWAP2 SUB SWAP1 RETURN JUMPDEST PUSH2 0x224 PUSH2 0x18AF JUMP JUMPDEST PUSH1 0x40 MLOAD PUSH2 0x231 SWAP2 SWAP1 PUSH2 0x1E0C JUMP JUMPDEST PUSH1 0x40 MLOAD DUP1 SWAP2 SUB SWAP1 RETURN JUMPDEST PUSH2 0x254 PUSH1 0x4 DUP1 CALLDATASIZE SUB DUP2 ADD SWAP1 PUSH2 0x24F SWAP2 SWAP1 PUSH2 0x1CD2 JUMP JUMPDEST PUSH2 0x18D4 JUMP JUMPDEST PUSH1 0x40 MLOAD PUSH2 0x261 SWAP2 SWAP1 PUSH2 0x1F2B JUMP JUMPDEST PUSH1 0x40 MLOAD DUP1 SWAP2 SUB SWAP1 RETURN JUMPDEST PUSH2 0x284 PUSH1 0x4 DUP1 CALLDATASIZE SUB DUP2 ADD SWAP1 PUSH2 0x27F SWAP2 SWAP1 PUSH2 0x1C8E JUMP JUMPDEST PUSH2 0x1AF4 JUMP JUMPDEST PUSH1 0x40 MLOAD PUSH2 0x291 SWAP2 SWAP1 PUSH2 0x1F66 JUMP JUMPDEST PUSH1 0x40 MLOAD DUP1 SWAP2 SUB SWAP1 RETURN JUMPDEST PUSH2 0x2B4 PUSH1 0x4 DUP1 CALLDATASIZE SUB DUP2 ADD SWAP1 PUSH2 0x2AF SWAP2 SWAP1 PUSH2 0x1CD2 JUMP JUMPDEST PUSH2 0x1B1D JUMP JUMPDEST PUSH1 0x40 MLOAD PUSH2 0x2C1 SWAP2 SWAP1 PUSH2 0x1D3B JUMP JUMPDEST PUSH1 0x40 MLOAD DUP1 SWAP2 SUB SWAP1 RETURN JUMPDEST PUSH2 0x2D2 PUSH2 0x1B32 JUMP JUMPDEST PUSH1 0x40 MLOAD PUSH2 0x2DF SWAP2 SWAP1 PUSH2 0x1D3B JUMP JUMPDEST PUSH1 0x40 MLOAD DUP1 SWAP2 SUB SWAP1 RETURN JUMPDEST PUSH1 0x4 PUSH1 0x20 MSTORE DUP2 PUSH0 MSTORE PUSH1 0x40 PUSH0 KECCAK256 DUP2 DUP2 SLOAD DUP2 LT PUSH2 0x301 JUMPI PUSH0 DUP1 REVERT JUMPDEST SWAP1 PUSH0 MSTORE PUSH1 0x20 PUSH0 KECCAK256 SWAP1 PUSH1 0x3 MUL ADD PUSH0 SWAP2 POP SWAP2 POP POP DUP1 PUSH0 ADD PUSH0 SWAP1 SLOAD SWAP1 PUSH2 0x100 EXP SWAP1 DIV PUSH20 0xFFFFFFFFFFFFFFFFFFFFFFFFFFFFFFFFFFFFFFFF AND SWAP1 DUP1 PUSH1 0x1 ADD SLOAD SWAP1 DUP1 PUSH1 0x2 ADD SLOAD SWAP1 POP DUP4 JUMP JUMPDEST PUSH1 0x5 PUSH1 0x20 MSTORE DUP1 PUSH0 MSTORE PUSH1 0x40 PUSH0 KECCAK256 PUSH0 SWAP2 POP SLOAD SWAP1 PUSH2 0x100 EXP SWAP1 DIV PUSH20 0xFFFFFFFFFFFFFFFFFFFFFFFFFFFFFFFFFFFFFFFF AND DUP2 JUMP JUMPDEST PUSH1 0x3 PUSH0 CALLER PUSH20 0xFFFFFFFFFFFFFFFFFFFFFFFFFFFFFFFFFFFFFFFF AND PUSH20 0xFFFFFFFFFFFFFFFFFFFFFFFFFFFFFFFFFFFFFFFF AND DUP2 MSTORE PUSH1 0x20 ADD SWAP1 DUP2 MSTORE PUSH1 0x20 ADD PUSH0 KECCAK256 PUSH1 0x4 ADD PUSH0 SWAP1 SLOAD SWAP1 PUSH2 0x100 EXP SWAP1 DIV PUSH1 0xFF AND ISZERO PUSH2 0x404 JUMPI PUSH1 0x40 MLOAD PUSH32 0x8C379A000000000000000000000000000000000000000000000000000000000 DUP2 MSTORE PUSH1 0x4 ADD PUSH2 0x3FB SWAP1 PUSH2 0x1FD9 JUMP JUMPDEST PUSH1 0x40 MLOAD DUP1 SWAP2 SUB SWAP1 REVERT JUMPDEST CALLER PUSH20 0xFFFFFFFFFFFFFFFFFFFFFFFFFFFFFFFFFFFFFFFF AND DUP2 PUSH20 0xFFFFFFFFFFFFFFFFFFFFFFFFFFFFFFFFFFFFFFFF AND SUB PUSH2 0x472 JUMPI PUSH1 0x40 MLOAD PUSH32 0x8C379A000000000000000000000000000000000000000000000000000000000 DUP2 MSTORE PUSH1 0x4 ADD PUSH2 0x469 SWAP1 PUSH2 0x2041 JUMP JUMPDEST PUSH1 0x40 MLOAD DUP1 SWAP2 SUB SWAP1 REVERT JUMPDEST PUSH1 0x3 PUSH0 DUP3 PUSH20 0xFFFFFFFFFFFFFFFFFFFFFFFFFFFFFFFFFFFFFFFF AND PUSH20 0xFFFFFFFFFFFFFFFFFFFFFFFFFFFFFFFFFFFFFFFF AND DUP2 MSTORE PUSH1 0x20 ADD SWAP1 DUP2 MSTORE PUSH1 0x20 ADD PUSH0 KECCAK256 PUSH1 0x4 ADD PUSH0 SWAP1 SLOAD SWAP1 PUSH2 0x100 EXP SWAP1 DIV PUSH1 0xFF AND PUSH2 0x4FE JUMPI PUSH1 0x40 MLOAD PUSH32 0x8C379A000000000000000000000000000000000000000000000000000000000 DUP2 MSTORE PUSH1 0x4 ADD PUSH2 0x4F5 SWAP1 PUSH2 0x20A9 JUMP JUMPDEST PUSH1 0x40 MLOAD DUP1 SWAP2 SUB SWAP1 REVERT JUMPDEST PUSH0 PUSH1 0x3 PUSH0 DUP4 PUSH20 0xFFFFFFFFFFFFFFFFFFFFFFFFFFFFFFFFFFFFFFFF AND PUSH20 0xFFFFFFFFFFFFFFFFFFFFFFFFFFFFFFFFFFFFFFFF AND DUP2 MSTORE PUSH1 0x20 ADD SWAP1 DUP2 MSTORE PUSH1 0x20 ADD PUSH0 KECCAK256 PUSH1 0x1 ADD DUP1 SLOAD SWAP1 POP GT PUSH2 0x583 JUMPI PUSH1 0x40 MLOAD PUSH32 0x8C379A000000000000000000000000000000000000000000000000000000000 DUP2 MSTORE PUSH1 0x4 ADD PUSH2 0x57A SWAP1 PUSH2 0x2137 JUMP JUMPDEST PUSH1 0x40 MLOAD DUP1 SWAP2 SUB SWAP1 REVERT JUMPDEST DUP1 PUSH1 0x3 PUSH0 CALLER PUSH20 0xFFFFFFFFFFFFFFFFFFFFFFFFFFFFFFFFFFFFFFFF AND PUSH20 0xFFFFFFFFFFFFFFFFFFFFFFFFFFFFFFFFFFFFFFFF AND DUP2 MSTORE PUSH1 0x20 ADD SWAP1 DUP2 MSTORE PUSH1 0x20 ADD PUSH0 KECCAK256 PUSH0 ADD PUSH0 PUSH2 0x100 EXP DUP2 SLOAD DUP2 PUSH20 0xFFFFFFFFFFFFFFFFFFFFFFFFFFFFFFFFFFFFFFFF MUL NOT AND SWAP1 DUP4 PUSH20 0xFFFFFFFFFFFFFFFFFFFFFFFFFFFFFFFFFFFFFFFF AND MUL OR SWAP1 SSTORE POP PUSH1 0x1 PUSH1 0x3 PUSH0 CALLER PUSH20 0xFFFFFFFFFFFFFFFFFFFFFFFFFFFFFFFFFFFFFFFF AND PUSH20 0xFFFFFFFFFFFFFFFFFFFFFFFFFFFFFFFFFFFFFFFF AND DUP2 MSTORE PUSH1 0x20 ADD SWAP1 DUP2 MSTORE PUSH1 0x20 ADD PUSH0 KECCAK256 PUSH1 0x4 ADD PUSH0 PUSH2 0x100 EXP DUP2 SLOAD DUP2 PUSH1 0xFF MUL NOT AND SWAP1 DUP4 ISZERO ISZERO MUL OR SWAP1 SSTORE POP PUSH1 0x8 CALLER SWAP1 DUP1 PUSH1 0x1 DUP2 SLOAD ADD DUP1 DUP3 SSTORE DUP1 SWAP2 POP POP PUSH1 0x1 SWAP1 SUB SWAP1 PUSH0 MSTORE PUSH1 0x20 PUSH0 KECCAK256 ADD PUSH0 SWAP1 SWAP2 SWAP1 SWAP2 SWAP1 SWAP2 PUSH2 0x100 EXP DUP2 SLOAD DUP2 PUSH20 0xFFFFFFFFFFFFFFFFFFFFFFFFFFFFFFFFFFFFFFFF MUL NOT AND SWAP1 DUP4 PUSH20 0xFFFFFFFFFFFFFFFFFFFFFFFFFFFFFFFFFFFFFFFF AND MUL OR SWAP1 SSTORE POP PUSH1 0x4 PUSH0 DUP3 PUSH20 0xFFFFFFFFFFFFFFFFFFFFFFFFFFFFFFFFFFFFFFFF AND PUSH20 0xFFFFFFFFFFFFFFFFFFFFFFFFFFFFFFFFFFFFFFFF AND DUP2 MSTORE PUSH1 0x20 ADD SWAP1 DUP2 MSTORE PUSH1 0x20 ADD PUSH0 KECCAK256 PUSH1 0x40 MLOAD DUP1 PUSH1 0x60 ADD PUSH1 0x40 MSTORE DUP1 CALLER PUSH20 0xFFFFFFFFFFFFFFFFFFFFFFFFFFFFFFFFFFFFFFFF AND DUP2 MSTORE PUSH1 0x20 ADD PUSH0 DUP2 MSTORE PUSH1 0x20 ADD TIMESTAMP DUP2 MSTORE POP SWAP1 DUP1 PUSH1 0x1 DUP2 SLOAD ADD DUP1 DUP3 SSTORE DUP1 SWAP2 POP POP PUSH1 0x1 SWAP1 SUB SWAP1 PUSH0 MSTORE PUSH1 0x20 PUSH0 KECCAK256 SWAP1 PUSH1 0x3 MUL ADD PUSH0 SWAP1 SWAP2 SWAP1 SWAP2 SWAP1 SWAP2 POP PUSH0 DUP3 ADD MLOAD DUP2 PUSH0 ADD PUSH0 PUSH2 0x100 EXP DUP2 SLOAD DUP2 PUSH20 0xFFFFFFFFFFFFFFFFFFFFFFFFFFFFFFFFFFFFFFFF MUL NOT AND SWAP1 DUP4 PUSH20 0xFFFFFFFFFFFFFFFFFFFFFFFFFFFFFFFFFFFFFFFF AND MUL OR SWAP1 SSTORE POP PUSH1 0x20 DUP3 ADD MLOAD DUP2 PUSH1 0x1 ADD SSTORE PUSH1 0x40 DUP3 ADD MLOAD DUP2 PUSH1 0x2 ADD SSTORE POP POP POP JUMP JUMPDEST PUSH1 0x3 PUSH0 CALLER PUSH20 0xFFFFFFFFFFFFFFFFFFFFFFFFFFFFFFFFFFFFFFFF AND PUSH20 0xFFFFFFFFFFFFFFFFFFFFFFFFFFFFFFFFFFFFFFFF AND DUP2 MSTORE PUSH1 0x20 ADD SWAP1 DUP2 MSTORE PUSH1 0x20 ADD PUSH0 KECCAK256 PUSH1 0x4 ADD PUSH0 SWAP1 SLOAD SWAP1 PUSH2 0x100 EXP SWAP1 DIV PUSH1 0xFF AND PUSH2 0x835 JUMPI PUSH1 0x40 MLOAD PUSH32 0x8C379A000000000000000000000000000000000000000000000000000000000 DUP2 MSTORE PUSH1 0x4 ADD PUSH2 0x82C SWAP1 PUSH2 0x219F JUMP JUMPDEST PUSH1 0x40 MLOAD DUP1 SWAP2 SUB SWAP1 REVERT JUMPDEST PUSH0 DUP2 GT PUSH2 0x877 JUMPI PUSH1 0x40 MLOAD PUSH32 0x8C379A000000000000000000000000000000000000000000000000000000000 DUP2 MSTORE PUSH1 0x4 ADD PUSH2 0x86E SWAP1 PUSH2 0x222D JUMP JUMPDEST PUSH1 0x40 MLOAD DUP1 SWAP2 SUB SWAP1 REVERT JUMPDEST PUSH0 PUSH1 0x6 PUSH0 DUP5 DUP2 MSTORE PUSH1 0x20 ADD SWAP1 DUP2 MSTORE PUSH1 0x20 ADD PUSH0 KECCAK256 SLOAD GT PUSH2 0x8CA JUMPI PUSH1 0x40 MLOAD PUSH32 0x8C379A000000000000000000000000000000000000000000000000000000000 DUP2 MSTORE PUSH1 0x4 ADD PUSH2 0x8C1 SWAP1 PUSH2 0x2295 JUMP JUMPDEST PUSH1 0x40 MLOAD DUP1 SWAP2 SUB SWAP1 REVERT JUMPDEST PUSH0 PUSH1 0x3 PUSH0 CALLER PUSH20 0xFFFFFFFFFFFFFFFFFFFFFFFFFFFFFFFFFFFFFFFF AND PUSH20 0xFFFFFFFFFFFFFFFFFFFFFFFFFFFFFFFFFFFFFFFF AND DUP2 MSTORE PUSH1 0x20 ADD SWAP1 DUP2 MSTORE PUSH1 0x20 ADD PUSH0 KECCAK256 PUSH0 ADD PUSH0 SWAP1 SLOAD SWAP1 PUSH2 0x100 EXP SWAP1 DIV PUSH20 0xFFFFFFFFFFFFFFFFFFFFFFFFFFFFFFFFFFFFFFFF AND SWAP1 POP PUSH0 PUSH20 0xFFFFFFFFFFFFFFFFFFFFFFFFFFFFFFFFFFFFFFFF AND DUP2 PUSH20 0xFFFFFFFFFFFFFFFFFFFFFFFFFFFFFFFFFFFFFFFF AND EQ PUSH2 0x9E5 JUMPI PUSH0 PUSH1 0x3 PUSH0 DUP4 PUSH20 0xFFFFFFFFFFFFFFFFFFFFFFFFFFFFFFFFFFFFFFFF AND PUSH20 0xFFFFFFFFFFFFFFFFFFFFFFFFFFFFFFFFFFFFFFFF AND DUP2 MSTORE PUSH1 0x20 ADD SWAP1 DUP2 MSTORE PUSH1 0x20 ADD PUSH0 KECCAK256 PUSH1 0x1 ADD DUP1 SLOAD SWAP1 POP GT PUSH2 0x9E4 JUMPI PUSH1 0x40 MLOAD PUSH32 0x8C379A000000000000000000000000000000000000000000000000000000000 DUP2 MSTORE PUSH1 0x4 ADD PUSH2 0x9DB SWAP1 PUSH2 0x2323 JUMP JUMPDEST PUSH1 0x40 MLOAD DUP1 SWAP2 SUB SWAP1 REVERT JUMPDEST JUMPDEST PUSH0 PUSH1 0x2 PUSH0 SWAP1 SLOAD SWAP1 PUSH2 0x100 EXP SWAP1 DIV PUSH20 0xFFFFFFFFFFFFFFFFFFFFFFFFFFFFFFFFFFFFFFFF AND PUSH20 0xFFFFFFFFFFFFFFFFFFFFFFFFFFFFFFFFFFFFFFFF AND PUSH4 0x23B872DD CALLER ADDRESS DUP7 PUSH1 0x40 MLOAD DUP5 PUSH4 0xFFFFFFFF AND PUSH1 0xE0 SHL DUP2 MSTORE PUSH1 0x4 ADD PUSH2 0xA44 SWAP4 SWAP3 SWAP2 SWAP1 PUSH2 0x2341 JUMP JUMPDEST PUSH1 0x20 PUSH1 0x40 MLOAD DUP1 DUP4 SUB DUP2 PUSH0 DUP8 GAS CALL ISZERO DUP1 ISZERO PUSH2 0xA60 JUMPI RETURNDATASIZE PUSH0 DUP1 RETURNDATACOPY RETURNDATASIZE PUSH0 REVERT JUMPDEST POP POP POP POP PUSH1 0x40 MLOAD RETURNDATASIZE PUSH1 0x1F NOT PUSH1 0x1F DUP3 ADD AND DUP3 ADD DUP1 PUSH1 0x40 MSTORE POP DUP2 ADD SWAP1 PUSH2 0xA84 SWAP2 SWAP1 PUSH2 0x23A0 JUMP JUMPDEST SWAP1 POP DUP1 PUSH2 0xAC6 JUMPI PUSH1 0x40 MLOAD PUSH32 0x8C379A000000000000000000000000000000000000000000000000000000000 DUP2 MSTORE PUSH1 0x4 ADD PUSH2 0xABD SWAP1 PUSH2 0x2415 JUMP JUMPDEST PUSH1 0x40 MLOAD DUP1 SWAP2 SUB SWAP1 REVERT JUMPDEST PUSH0 PUSH1 0x1 PUSH0 DUP2 SLOAD PUSH2 0xAD5 SWAP1 PUSH2 0x2460 JUMP JUMPDEST SWAP2 SWAP1 POP DUP2 SWAP1 SSTORE SWAP1 POP PUSH1 0x3 PUSH0 CALLER PUSH20 0xFFFFFFFFFFFFFFFFFFFFFFFFFFFFFFFFFFFFFFFF AND PUSH20 0xFFFFFFFFFFFFFFFFFFFFFFFFFFFFFFFFFFFFFFFF AND DUP2 MSTORE PUSH1 0x20 ADD SWAP1 DUP2 MSTORE PUSH1 0x20 ADD PUSH0 KECCAK256 PUSH1 0x1 ADD PUSH1 0x40 MLOAD DUP1 PUSH1 0xC0 ADD PUSH1 0x40 MSTORE DUP1 PUSH1 0x1 SLOAD DUP2 MSTORE PUSH1 0x20 ADD DUP4 DUP2 MSTORE PUSH1 0x20 ADD DUP7 DUP2 MSTORE PUSH1 0x20 ADD TIMESTAMP DUP2 MSTORE PUSH1 0x20 ADD DUP8 DUP2 MSTORE PUSH1 0x20 ADD PUSH0 ISZERO ISZERO DUP2 MSTORE POP SWAP1 DUP1 PUSH1 0x1 DUP2 SLOAD ADD DUP1 DUP3 SSTORE DUP1 SWAP2 POP POP PUSH1 0x1 SWAP1 SUB SWAP1 PUSH0 MSTORE PUSH1 0x20 PUSH0 KECCAK256 SWAP1 PUSH1 0x6 MUL ADD PUSH0 SWAP1 SWAP2 SWAP1 SWAP2 SWAP1 SWAP2 POP PUSH0 DUP3 ADD MLOAD DUP2 PUSH0 ADD SSTORE PUSH1 0x20 DUP3 ADD MLOAD DUP2 PUSH1 0x1 ADD SSTORE PUSH1 0x40 DUP3 ADD MLOAD DUP2 PUSH1 0x2 ADD SSTORE PUSH1 0x60 DUP3 ADD MLOAD DUP2 PUSH1 0x3 ADD SSTORE PUSH1 0x80 DUP3 ADD MLOAD DUP2 PUSH1 0x4 ADD SSTORE PUSH1 0xA0 DUP3 ADD MLOAD DUP2 PUSH1 0x5 ADD PUSH0 PUSH2 0x100 EXP DUP2 SLOAD DUP2 PUSH1 0xFF MUL NOT AND SWAP1 DUP4 ISZERO ISZERO MUL OR SWAP1 SSTORE POP POP POP CALLER PUSH1 0x5 PUSH0 DUP4 DUP2 MSTORE PUSH1 0x20 ADD SWAP1 DUP2 MSTORE PUSH1 0x20 ADD PUSH0 KECCAK256 PUSH0 PUSH2 0x100 EXP DUP2 SLOAD DUP2 PUSH20 0xFFFFFFFFFFFFFFFFFFFFFFFFFFFFFFFFFFFFFFFF MUL NOT AND SWAP1 DUP4 PUSH20 0xFFFFFFFFFFFFFFFFFFFFFFFFFFFFFFFFFFFFFFFF AND MUL OR SWAP1 SSTORE POP PUSH0 PUSH1 0x1 PUSH1 0x3 PUSH0 CALLER PUSH20 0xFFFFFFFFFFFFFFFFFFFFFFFFFFFFFFFFFFFFFFFF AND PUSH20 0xFFFFFFFFFFFFFFFFFFFFFFFFFFFFFFFFFFFFFFFF AND DUP2 MSTORE PUSH1 0x20 ADD SWAP1 DUP2 MSTORE PUSH1 0x20 ADD PUSH0 KECCAK256 PUSH1 0x1 ADD DUP1 SLOAD SWAP1 POP EQ SWAP1 POP PUSH0 PUSH1 0x3 PUSH0 CALLER PUSH20 0xFFFFFFFFFFFFFFFFFFFFFFFFFFFFFFFFFFFFFFFF AND PUSH20 0xFFFFFFFFFFFFFFFFFFFFFFFFFFFFFFFFFFFFFFFF AND DUP2 MSTORE PUSH1 0x20 ADD SWAP1 DUP2 MSTORE PUSH1 0x20 ADD PUSH0 KECCAK256 PUSH0 ADD PUSH0 SWAP1 SLOAD SWAP1 PUSH2 0x100 EXP SWAP1 DIV PUSH20 0xFFFFFFFFFFFFFFFFFFFFFFFFFFFFFFFFFFFFFFFF AND SWAP1 POP PUSH0 JUMPDEST PUSH1 0x5 DUP2 PUSH1 0xFF AND LT DUP1 ISZERO PUSH2 0xD01 JUMPI POP PUSH0 PUSH20 0xFFFFFFFFFFFFFFFFFFFFFFFFFFFFFFFFFFFFFFFF AND DUP3 PUSH20 0xFFFFFFFFFFFFFFFFFFFFFFFFFFFFFFFFFFFFFFFF AND EQ ISZERO JUMPDEST ISZERO PUSH2 0x17DB JUMPI PUSH0 DUP1 DUP3 PUSH1 0xFF AND SUB PUSH2 0x14BA JUMPI DUP4 ISZERO PUSH2 0x1209 JUMPI PUSH0 PUSH1 0x64 PUSH1 0x5 DUP11 PUSH2 0xD27 SWAP2 SWAP1 PUSH2 0x24A7 JUMP JUMPDEST PUSH2 0xD31 SWAP2 SWAP1 PUSH2 0x2515 JUMP JUMPDEST SWAP1 POP PUSH0 PUSH1 0x64 PUSH1 0x5 DUP12 PUSH2 0xD43 SWAP2 SWAP1 PUSH2 0x24A7 JUMP JUMPDEST PUSH2 0xD4D SWAP2 SWAP1 PUSH2 0x2515 JUMP JUMPDEST SWAP1 POP DUP1 DUP3 PUSH2 0xD5B SWAP2 SWAP1 PUSH2 0x2545 JUMP JUMPDEST PUSH1 0x2 PUSH0 SWAP1 SLOAD SWAP1 PUSH2 0x100 EXP SWAP1 DIV PUSH20 0xFFFFFFFFFFFFFFFFFFFFFFFFFFFFFFFFFFFFFFFF AND PUSH20 0xFFFFFFFFFFFFFFFFFFFFFFFFFFFFFFFFFFFFFFFF AND PUSH4 0x70A08231 ADDRESS PUSH1 0x40 MLOAD DUP3 PUSH4 0xFFFFFFFF AND PUSH1 0xE0 SHL DUP2 MSTORE PUSH1 0x4 ADD PUSH2 0xDB5 SWAP2 SWAP1 PUSH2 0x1CB9 JUMP JUMPDEST PUSH1 0x20 PUSH1 0x40 MLOAD DUP1 DUP4 SUB DUP2 DUP7 GAS STATICCALL ISZERO DUP1 ISZERO PUSH2 0xDD0 JUMPI RETURNDATASIZE PUSH0 DUP1 RETURNDATACOPY RETURNDATASIZE PUSH0 REVERT JUMPDEST POP POP POP POP PUSH1 0x40 MLOAD RETURNDATASIZE PUSH1 0x1F NOT PUSH1 0x1F DUP3 ADD AND DUP3 ADD DUP1 PUSH1 0x40 MSTORE POP DUP2 ADD SWAP1 PUSH2 0xDF4 SWAP2 SWAP1 PUSH2 0x258C JUMP JUMPDEST LT ISZERO PUSH2 0xE35 JUMPI PUSH1 0x40 MLOAD PUSH32 0x8C379A000000000000000000000000000000000000000000000000000000000 DUP2 MSTORE PUSH1 0x4 ADD PUSH2 0xE2C SWAP1 PUSH2 0x2601 JUMP JUMPDEST PUSH1 0x40 MLOAD DUP1 SWAP2 SUB SWAP1 REVERT JUMPDEST PUSH1 0x2 PUSH0 SWAP1 SLOAD SWAP1 PUSH2 0x100 EXP SWAP1 DIV PUSH20 0xFFFFFFFFFFFFFFFFFFFFFFFFFFFFFFFFFFFFFFFF AND PUSH20 0xFFFFFFFFFFFFFFFFFFFFFFFFFFFFFFFFFFFFFFFF AND PUSH4 0xA9059CBB DUP7 DUP5 PUSH1 0x40 MLOAD DUP4 PUSH4 0xFFFFFFFF AND PUSH1 0xE0 SHL DUP2 MSTORE PUSH1 0x4 ADD PUSH2 0xE91 SWAP3 SWAP2 SWAP1 PUSH2 0x261F JUMP JUMPDEST PUSH1 0x20 PUSH1 0x40 MLOAD DUP1 DUP4 SUB DUP2 PUSH0 DUP8 GAS CALL ISZERO DUP1 ISZERO PUSH2 0xEAD JUMPI RETURNDATASIZE PUSH0 DUP1 RETURNDATACOPY RETURNDATASIZE PUSH0 REVERT JUMPDEST POP POP POP POP PUSH1 0x40 MLOAD RETURNDATASIZE PUSH1 0x1F NOT PUSH1 0x1F DUP3 ADD AND DUP3 ADD DUP1 PUSH1 0x40 MSTORE POP DUP2 ADD SWAP1 PUSH2 0xED1 SWAP2 SWAP1 PUSH2 0x23A0 JUMP JUMPDEST PUSH2 0xF10 JUMPI PUSH1 0x40 MLOAD PUSH32 0x8C379A000000000000000000000000000000000000000000000000000000000 DUP2 MSTORE PUSH1 0x4 ADD PUSH2 0xF07 SWAP1 PUSH2 0x2690 JUMP JUMPDEST PUSH1 0x40 MLOAD DUP1 SWAP2 SUB SWAP1 REVERT JUMPDEST PUSH1 0x2 PUSH0 SWAP1 SLOAD SWAP1 PUSH2 0x100 EXP SWAP1 DIV PUSH20 0xFFFFFFFFFFFFFFFFFFFFFFFFFFFFFFFFFFFFFFFF AND PUSH20 0xFFFFFFFFFFFFFFFFFFFFFFFFFFFFFFFFFFFFFFFF AND PUSH4 0xA9059CBB DUP7 DUP4 PUSH1 0x40 MLOAD DUP4 PUSH4 0xFFFFFFFF AND PUSH1 0xE0 SHL DUP2 MSTORE PUSH1 0x4 ADD PUSH2 0xF6C SWAP3 SWAP2 SWAP1 PUSH2 0x261F JUMP JUMPDEST PUSH1 0x20 PUSH1 0x40 MLOAD DUP1 DUP4 SUB DUP2 PUSH0 DUP8 GAS CALL ISZERO DUP1 ISZERO PUSH2 0xF88 JUMPI RETURNDATASIZE PUSH0 DUP1 RETURNDATACOPY RETURNDATASIZE PUSH0 REVERT JUMPDEST POP POP POP POP PUSH1 0x40 MLOAD RETURNDATASIZE PUSH1 0x1F NOT PUSH1 0x1F DUP3 ADD AND DUP3 ADD DUP1 PUSH1 0x40 MSTORE POP DUP2 ADD SWAP1 PUSH2 0xFAC SWAP2 SWAP1 PUSH2 0x23A0 JUMP JUMPDEST PUSH2 0xFEB JUMPI PUSH1 0x40 MLOAD PUSH32 0x8C379A000000000000000000000000000000000000000000000000000000000 DUP2 MSTORE PUSH1 0x4 ADD PUSH2 0xFE2 SWAP1 PUSH2 0x26F8 JUMP JUMPDEST PUSH1 0x40 MLOAD DUP1 SWAP2 SUB SWAP1 REVERT JUMPDEST DUP2 PUSH1 0x7 PUSH0 DUP8 PUSH20 0xFFFFFFFFFFFFFFFFFFFFFFFFFFFFFFFFFFFFFFFF AND PUSH20 0xFFFFFFFFFFFFFFFFFFFFFFFFFFFFFFFFFFFFFFFF AND DUP2 MSTORE PUSH1 0x20 ADD SWAP1 DUP2 MSTORE PUSH1 0x20 ADD PUSH0 KECCAK256 PUSH0 DUP3 DUP3 SLOAD PUSH2 0x1037 SWAP2 SWAP1 PUSH2 0x2545 JUMP JUMPDEST SWAP3 POP POP DUP2 SWAP1 SSTORE POP DUP1 DUP3 PUSH2 0x104A SWAP2 SWAP1 PUSH2 0x2545 JUMP JUMPDEST PUSH1 0x3 PUSH0 DUP8 PUSH20 0xFFFFFFFFFFFFFFFFFFFFFFFFFFFFFFFFFFFFFFFF AND PUSH20 0xFFFFFFFFFFFFFFFFFFFFFFFFFFFFFFFFFFFFFFFF AND DUP2 MSTORE PUSH1 0x20 ADD SWAP1 DUP2 MSTORE PUSH1 0x20 ADD PUSH0 KECCAK256 PUSH1 0x2 ADD PUSH0 DUP3 DUP3 SLOAD PUSH2 0x1098 SWAP2 SWAP1 PUSH2 0x2545 JUMP JUMPDEST SWAP3 POP POP DUP2 SWAP1 SSTORE POP DUP1 PUSH1 0x3 PUSH0 DUP8 PUSH20 0xFFFFFFFFFFFFFFFFFFFFFFFFFFFFFFFFFFFFFFFF AND PUSH20 0xFFFFFFFFFFFFFFFFFFFFFFFFFFFFFFFFFFFFFFFF AND DUP2 MSTORE PUSH1 0x20 ADD SWAP1 DUP2 MSTORE PUSH1 0x20 ADD PUSH0 KECCAK256 PUSH1 0x3 ADD PUSH0 DUP3 DUP3 SLOAD PUSH2 0x10EE SWAP2 SWAP1 PUSH2 0x2545 JUMP JUMPDEST SWAP3 POP POP DUP2 SWAP1 SSTORE POP PUSH0 PUSH1 0x4 PUSH0 DUP8 PUSH20 0xFFFFFFFFFFFFFFFFFFFFFFFFFFFFFFFFFFFFFFFF AND PUSH20 0xFFFFFFFFFFFFFFFFFFFFFFFFFFFFFFFFFFFFFFFF AND DUP2 MSTORE PUSH1 0x20 ADD SWAP1 DUP2 MSTORE PUSH1 0x20 ADD PUSH0 KECCAK256 SWAP1 POP PUSH0 JUMPDEST DUP2 DUP1 SLOAD SWAP1 POP DUP2 LT ISZERO PUSH2 0x1200 JUMPI CALLER PUSH20 0xFFFFFFFFFFFFFFFFFFFFFFFFFFFFFFFFFFFFFFFF AND DUP3 DUP3 DUP2 SLOAD DUP2 LT PUSH2 0x116D JUMPI PUSH2 0x116C PUSH2 0x2716 JUMP JUMPDEST JUMPDEST SWAP1 PUSH0 MSTORE PUSH1 0x20 PUSH0 KECCAK256 SWAP1 PUSH1 0x3 MUL ADD PUSH0 ADD PUSH0 SWAP1 SLOAD SWAP1 PUSH2 0x100 EXP SWAP1 DIV PUSH20 0xFFFFFFFFFFFFFFFFFFFFFFFFFFFFFFFFFFFFFFFF AND PUSH20 0xFFFFFFFFFFFFFFFFFFFFFFFFFFFFFFFFFFFFFFFF AND SUB PUSH2 0x11F3 JUMPI DUP4 DUP3 DUP3 DUP2 SLOAD DUP2 LT PUSH2 0x11CA JUMPI PUSH2 0x11C9 PUSH2 0x2716 JUMP JUMPDEST JUMPDEST SWAP1 PUSH0 MSTORE PUSH1 0x20 PUSH0 KECCAK256 SWAP1 PUSH1 0x3 MUL ADD PUSH1 0x1 ADD PUSH0 DUP3 DUP3 SLOAD PUSH2 0x11E7 SWAP2 SWAP1 PUSH2 0x2545 JUMP JUMPDEST SWAP3 POP POP DUP2 SWAP1 SSTORE POP PUSH2 0x1200 JUMP JUMPDEST DUP1 DUP1 PUSH1 0x1 ADD SWAP2 POP POP PUSH2 0x1137 JUMP JUMPDEST POP POP POP POP PUSH2 0x14B5 JUMP JUMPDEST PUSH1 0x64 PUSH1 0x9 DUP4 PUSH1 0xFF AND PUSH1 0x5 DUP2 LT PUSH2 0x1222 JUMPI PUSH2 0x1221 PUSH2 0x2716 JUMP JUMPDEST JUMPDEST PUSH1 0x20 SWAP2 DUP3 DUP3 DIV ADD SWAP2 SWAP1 MOD SWAP1 SLOAD SWAP1 PUSH2 0x100 EXP SWAP1 DIV PUSH1 0xFF AND PUSH1 0xFF AND DUP10 PUSH2 0x1246 SWAP2 SWAP1 PUSH2 0x24A7 JUMP JUMPDEST PUSH2 0x1250 SWAP2 SWAP1 PUSH2 0x2515 JUMP JUMPDEST SWAP1 POP DUP1 PUSH1 0x2 PUSH0 SWAP1 SLOAD SWAP1 PUSH2 0x100 EXP SWAP1 DIV PUSH20 0xFFFFFFFFFFFFFFFFFFFFFFFFFFFFFFFFFFFFFFFF AND PUSH20 0xFFFFFFFFFFFFFFFFFFFFFFFFFFFFFFFFFFFFFFFF AND PUSH4 0x70A08231 ADDRESS PUSH1 0x40 MLOAD DUP3 PUSH4 0xFFFFFFFF AND PUSH1 0xE0 SHL DUP2 MSTORE PUSH1 0x4 ADD PUSH2 0x12AD SWAP2 SWAP1 PUSH2 0x1CB9 JUMP JUMPDEST PUSH1 0x20 PUSH1 0x40 MLOAD DUP1 DUP4 SUB DUP2 DUP7 GAS STATICCALL ISZERO DUP1 ISZERO PUSH2 0x12C8 JUMPI RETURNDATASIZE PUSH0 DUP1 RETURNDATACOPY RETURNDATASIZE PUSH0 REVERT JUMPDEST POP POP POP POP PUSH1 0x40 MLOAD RETURNDATASIZE PUSH1 0x1F NOT PUSH1 0x1F DUP3 ADD AND DUP3 ADD DUP1 PUSH1 0x40 MSTORE POP DUP2 ADD SWAP1 PUSH2 0x12EC SWAP2 SWAP1 PUSH2 0x258C JUMP JUMPDEST LT ISZERO PUSH2 0x132D JUMPI PUSH1 0x40 MLOAD PUSH32 0x8C379A000000000000000000000000000000000000000000000000000000000 DUP2 MSTORE PUSH1 0x4 ADD PUSH2 0x1324 SWAP1 PUSH2 0x2601 JUMP JUMPDEST PUSH1 0x40 MLOAD DUP1 SWAP2 SUB SWAP1 REVERT JUMPDEST PUSH1 0x2 PUSH0 SWAP1 SLOAD SWAP1 PUSH2 0x100 EXP SWAP1 DIV PUSH20 0xFFFFFFFFFFFFFFFFFFFFFFFFFFFFFFFFFFFFFFFF AND PUSH20 0xFFFFFFFFFFFFFFFFFFFFFFFFFFFFFFFFFFFFFFFF AND PUSH4 0xA9059CBB DUP5 DUP4 PUSH1 0x40 MLOAD DUP4 PUSH4 0xFFFFFFFF AND PUSH1 0xE0 SHL DUP2 MSTORE PUSH1 0x4 ADD PUSH2 0x1389 SWAP3 SWAP2 SWAP1 PUSH2 0x261F JUMP JUMPDEST PUSH1 0x20 PUSH1 0x40 MLOAD DUP1 DUP4 SUB DUP2 PUSH0 DUP8 GAS CALL ISZERO DUP1 ISZERO PUSH2 0x13A5 JUMPI RETURNDATASIZE PUSH0 DUP1 RETURNDATACOPY RETURNDATASIZE PUSH0 REVERT JUMPDEST POP POP POP POP PUSH1 0x40 MLOAD RETURNDATASIZE PUSH1 0x1F NOT PUSH1 0x1F DUP3 ADD AND DUP3 ADD DUP1 PUSH1 0x40 MSTORE POP DUP2 ADD SWAP1 PUSH2 0x13C9 SWAP2 SWAP1 PUSH2 0x23A0 JUMP JUMPDEST PUSH2 0x1408 JUMPI PUSH1 0x40 MLOAD PUSH32 0x8C379A000000000000000000000000000000000000000000000000000000000 DUP2 MSTORE PUSH1 0x4 ADD PUSH2 0x13FF SWAP1 PUSH2 0x26F8 JUMP JUMPDEST PUSH1 0x40 MLOAD DUP1 SWAP2 SUB SWAP1 REVERT JUMPDEST DUP1 PUSH1 0x3 PUSH0 DUP6 PUSH20 0xFFFFFFFFFFFFFFFFFFFFFFFFFFFFFFFFFFFFFFFF AND PUSH20 0xFFFFFFFFFFFFFFFFFFFFFFFFFFFFFFFFFFFFFFFF AND DUP2 MSTORE PUSH1 0x20 ADD SWAP1 DUP2 MSTORE PUSH1 0x20 ADD PUSH0 KECCAK256 PUSH1 0x2 ADD PUSH0 DUP3 DUP3 SLOAD PUSH2 0x1457 SWAP2 SWAP1 PUSH2 0x2545 JUMP JUMPDEST SWAP3 POP POP DUP2 SWAP1 SSTORE POP DUP1 PUSH1 0x3 PUSH0 DUP6 PUSH20 0xFFFFFFFFFFFFFFFFFFFFFFFFFFFFFFFFFFFFFFFF AND PUSH20 0xFFFFFFFFFFFFFFFFFFFFFFFFFFFFFFFFFFFFFFFF AND DUP2 MSTORE PUSH1 0x20 ADD SWAP1 DUP2 MSTORE PUSH1 0x20 ADD PUSH0 KECCAK256 PUSH1 0x3 ADD PUSH0 DUP3 DUP3 SLOAD PUSH2 0x14AD SWAP2 SWAP1 PUSH2 0x2545 JUMP JUMPDEST SWAP3 POP POP DUP2 SWAP1 SSTORE POP JUMPDEST PUSH2 0x1766 JUMP JUMPDEST PUSH1 0x64 PUSH1 0x9 DUP4 PUSH1 0xFF AND PUSH1 0x5 DUP2 LT PUSH2 0x14D3 JUMPI PUSH2 0x14D2 PUSH2 0x2716 JUMP JUMPDEST JUMPDEST PUSH1 0x20 SWAP2 DUP3 DUP3 DIV ADD SWAP2 SWAP1 MOD SWAP1 SLOAD SWAP1 PUSH2 0x100 EXP SWAP1 DIV PUSH1 0xFF AND PUSH1 0xFF AND DUP10 PUSH2 0x14F7 SWAP2 SWAP1 PUSH2 0x24A7 JUMP JUMPDEST PUSH2 0x1501 SWAP2 SWAP1 PUSH2 0x2515 JUMP JUMPDEST SWAP1 POP DUP1 PUSH1 0x2 PUSH0 SWAP1 SLOAD SWAP1 PUSH2 0x100 EXP SWAP1 DIV PUSH20 0xFFFFFFFFFFFFFFFFFFFFFFFFFFFFFFFFFFFFFFFF AND PUSH20 0xFFFFFFFFFFFFFFFFFFFFFFFFFFFFFFFFFFFFFFFF AND PUSH4 0x70A08231 ADDRESS PUSH1 0x40 MLOAD DUP3 PUSH4 0xFFFFFFFF AND PUSH1 0xE0 SHL DUP2 MSTORE PUSH1 0x4 ADD PUSH2 0x155E SWAP2 SWAP1 PUSH2 0x1CB9 JUMP JUMPDEST PUSH1 0x20 PUSH1 0x40 MLOAD DUP1 DUP4 SUB DUP2 DUP7 GAS STATICCALL ISZERO DUP1 ISZERO PUSH2 0x1579 JUMPI RETURNDATASIZE PUSH0 DUP1 RETURNDATACOPY RETURNDATASIZE PUSH0 REVERT JUMPDEST POP POP POP POP PUSH1 0x40 MLOAD RETURNDATASIZE PUSH1 0x1F NOT PUSH1 0x1F DUP3 ADD AND DUP3 ADD DUP1 PUSH1 0x40 MSTORE POP DUP2 ADD SWAP1 PUSH2 0x159D SWAP2 SWAP1 PUSH2 0x258C JUMP JUMPDEST LT ISZERO PUSH2 0x15DE JUMPI PUSH1 0x40 MLOAD PUSH32 0x8C379A000000000000000000000000000000000000000000000000000000000 DUP2 MSTORE PUSH1 0x4 ADD PUSH2 0x15D5 SWAP1 PUSH2 0x2601 JUMP JUMPDEST PUSH1 0x40 MLOAD DUP1 SWAP2 SUB SWAP1 REVERT JUMPDEST PUSH1 0x2 PUSH0 SWAP1 SLOAD SWAP1 PUSH2 0x100 EXP SWAP1 DIV PUSH20 0xFFFFFFFFFFFFFFFFFFFFFFFFFFFFFFFFFFFFFFFF AND PUSH20 0xFFFFFFFFFFFFFFFFFFFFFFFFFFFFFFFFFFFFFFFF AND PUSH4 0xA9059CBB DUP5 DUP4 PUSH1 0x40 MLOAD DUP4 PUSH4 0xFFFFFFFF AND PUSH1 0xE0 SHL DUP2 MSTORE PUSH1 0x4 ADD PUSH2 0x163A SWAP3 SWAP2 SWAP1 PUSH2 0x261F JUMP JUMPDEST PUSH1 0x20 PUSH1 0x40 MLOAD DUP1 DUP4 SUB DUP2 PUSH0 DUP8 GAS CALL ISZERO DUP1 ISZERO PUSH2 0x1656 JUMPI RETURNDATASIZE PUSH0 DUP1 RETURNDATACOPY RETURNDATASIZE PUSH0 REVERT JUMPDEST POP POP POP POP PUSH1 0x40 MLOAD RETURNDATASIZE PUSH1 0x1F NOT PUSH1 0x1F DUP3 ADD AND DUP3 ADD DUP1 PUSH1 0x40 MSTORE POP DUP2 ADD SWAP1 PUSH2 0x167A SWAP2 SWAP1 PUSH2 0x23A0 JUMP JUMPDEST PUSH2 0x16B9 JUMPI PUSH1 0x40 MLOAD PUSH32 0x8C379A000000000000000000000000000000000000000000000000000000000 DUP2 MSTORE PUSH1 0x4 ADD PUSH2 0x16B0 SWAP1 PUSH2 0x278D JUMP JUMPDEST PUSH1 0x40 MLOAD DUP1 SWAP2 SUB SWAP1 REVERT JUMPDEST DUP1 PUSH1 0x3 PUSH0 DUP6 PUSH20 0xFFFFFFFFFFFFFFFFFFFFFFFFFFFFFFFFFFFFFFFF AND PUSH20 0xFFFFFFFFFFFFFFFFFFFFFFFFFFFFFFFFFFFFFFFF AND DUP2 MSTORE PUSH1 0x20 ADD SWAP1 DUP2 MSTORE PUSH1 0x20 ADD PUSH0 KECCAK256 PUSH1 0x2 ADD PUSH0 DUP3 DUP3 SLOAD PUSH2 0x1708 SWAP2 SWAP1 PUSH2 0x2545 JUMP JUMPDEST SWAP3 POP POP DUP2 SWAP1 SSTORE POP DUP1 PUSH1 0x3 PUSH0 DUP6 PUSH20 0xFFFFFFFFFFFFFFFFFFFFFFFFFFFFFFFFFFFFFFFF AND PUSH20 0xFFFFFFFFFFFFFFFFFFFFFFFFFFFFFFFFFFFFFFFF AND DUP2 MSTORE PUSH1 0x20 ADD SWAP1 DUP2 MSTORE PUSH1 0x20 ADD PUSH0 KECCAK256 PUSH1 0x3 ADD PUSH0 DUP3 DUP3 SLOAD PUSH2 0x175E SWAP2 SWAP1 PUSH2 0x2545 JUMP JUMPDEST SWAP3 POP POP DUP2 SWAP1 SSTORE POP JUMPDEST PUSH1 0x3 PUSH0 DUP5 PUSH20 0xFFFFFFFFFFFFFFFFFFFFFFFFFFFFFFFFFFFFFFFF AND PUSH20 0xFFFFFFFFFFFFFFFFFFFFFFFFFFFFFFFFFFFFFFFF AND DUP2 MSTORE PUSH1 0x20 ADD SWAP1 DUP2 MSTORE PUSH1 0x20 ADD PUSH0 KECCAK256 PUSH0 ADD PUSH0 SWAP1 SLOAD SWAP1 PUSH2 0x100 EXP SWAP1 DIV PUSH20 0xFFFFFFFFFFFFFFFFFFFFFFFFFFFFFFFFFFFFFFFF AND SWAP3 POP POP DUP1 DUP1 PUSH2 0x17D3 SWAP1 PUSH2 0x27AB JUMP JUMPDEST SWAP2 POP POP PUSH2 0xCC2 JUMP JUMPDEST POP POP POP POP POP POP POP POP JUMP JUMPDEST PUSH1 0x6 PUSH1 0x20 MSTORE DUP1 PUSH0 MSTORE PUSH1 0x40 PUSH0 KECCAK256 PUSH0 SWAP2 POP SWAP1 POP SLOAD DUP2 JUMP JUMPDEST PUSH0 DUP1 SLOAD SWAP1 PUSH2 0x100 EXP SWAP1 DIV PUSH20 0xFFFFFFFFFFFFFFFFFFFFFFFFFFFFFFFFFFFFFFFF AND DUP2 JUMP JUMPDEST PUSH1 0x8 DUP2 DUP2 SLOAD DUP2 LT PUSH2 0x182C JUMPI PUSH0 DUP1 REVERT JUMPDEST SWAP1 PUSH0 MSTORE PUSH1 0x20 PUSH0 KECCAK256 ADD PUSH0 SWAP2 POP SLOAD SWAP1 PUSH2 0x100 EXP SWAP1 DIV PUSH20 0xFFFFFFFFFFFFFFFFFFFFFFFFFFFFFFFFFFFFFFFF AND DUP2 JUMP JUMPDEST PUSH1 0x3 PUSH1 0x20 MSTORE DUP1 PUSH0 MSTORE PUSH1 0x40 PUSH0 KECCAK256 PUSH0 SWAP2 POP SWAP1 POP DUP1 PUSH0 ADD PUSH0 SWAP1 SLOAD SWAP1 PUSH2 0x100 EXP SWAP1 DIV PUSH20 0xFFFFFFFFFFFFFFFFFFFFFFFFFFFFFFFFFFFFFFFF AND SWAP1 DUP1 PUSH1 0x2 ADD SLOAD SWAP1 DUP1 PUSH1 0x3 ADD SLOAD SWAP1 DUP1 PUSH1 0x4 ADD PUSH0 SWAP1 SLOAD SWAP1 PUSH2 0x100 EXP SWAP1 DIV PUSH1 0xFF AND SWAP1 POP DUP5 JUMP JUMPDEST PUSH1 0x2 PUSH0 SWAP1 SLOAD SWAP1 PUSH2 0x100 EXP SWAP1 DIV PUSH20 0xFFFFFFFFFFFFFFFFFFFFFFFFFFFFFFFFFFFFFFFF AND DUP2 JUMP JUMPDEST PUSH1 0x60 PUSH0 PUSH1 0x4 PUSH0 DUP5 PUSH20 0xFFFFFFFFFFFFFFFFFFFFFFFFFFFFFFFFFFFFFFFF AND PUSH20 0xFFFFFFFFFFFFFFFFFFFFFFFFFFFFFFFFFFFFFFFF AND DUP2 MSTORE PUSH1 0x20 ADD SWAP1 DUP2 MSTORE PUSH1 0x20 ADD PUSH0 KECCAK256 DUP1 SLOAD DUP1 PUSH1 0x20 MUL PUSH1 0x20 ADD PUSH1 0x40 MLOAD SWAP1 DUP2 ADD PUSH1 0x40 MSTORE DUP1 SWAP3 SWAP2 SWAP1 DUP2 DUP2 MSTORE PUSH1 0x20 ADD PUSH0 SWAP1 JUMPDEST DUP3 DUP3 LT ISZERO PUSH2 0x19CB JUMPI DUP4 DUP3 SWAP1 PUSH0 MSTORE PUSH1 0x20 PUSH0 KECCAK256 SWAP1 PUSH1 0x3 MUL ADD PUSH1 0x40 MLOAD DUP1 PUSH1 0x60 ADD PUSH1 0x40 MSTORE SWAP1 DUP2 PUSH0 DUP3 ADD PUSH0 SWAP1 SLOAD SWAP1 PUSH2 0x100 EXP SWAP1 DIV PUSH20 0xFFFFFFFFFFFFFFFFFFFFFFFFFFFFFFFFFFFFFFFF AND PUSH20 0xFFFFFFFFFFFFFFFFFFFFFFFFFFFFFFFFFFFFFFFF AND PUSH20 0xFFFFFFFFFFFFFFFFFFFFFFFFFFFFFFFFFFFFFFFF AND DUP2 MSTORE PUSH1 0x20 ADD PUSH1 0x1 DUP3 ADD SLOAD DUP2 MSTORE PUSH1 0x20 ADD PUSH1 0x2 DUP3 ADD SLOAD DUP2 MSTORE POP POP DUP2 MSTORE PUSH1 0x20 ADD SWAP1 PUSH1 0x1 ADD SWAP1 PUSH2 0x1933 JUMP JUMPDEST POP POP POP POP SWAP1 POP PUSH0 DUP2 MLOAD PUSH8 0xFFFFFFFFFFFFFFFF DUP2 GT ISZERO PUSH2 0x19ED JUMPI PUSH2 0x19EC PUSH2 0x27D3 JUMP JUMPDEST JUMPDEST PUSH1 0x40 MLOAD SWAP1 DUP1 DUP3 MSTORE DUP1 PUSH1 0x20 MUL PUSH1 0x20 ADD DUP3 ADD PUSH1 0x40 MSTORE DUP1 ISZERO PUSH2 0x1A26 JUMPI DUP2 PUSH1 0x20 ADD JUMPDEST PUSH2 0x1A13 PUSH2 0x1B38 JUMP JUMPDEST DUP2 MSTORE PUSH1 0x20 ADD SWAP1 PUSH1 0x1 SWAP1 SUB SWAP1 DUP2 PUSH2 0x1A0B JUMPI SWAP1 POP JUMPDEST POP SWAP1 POP PUSH0 JUMPDEST DUP3 MLOAD DUP2 LT ISZERO PUSH2 0x1AE9 JUMPI PUSH1 0x40 MLOAD DUP1 PUSH1 0x60 ADD PUSH1 0x40 MSTORE DUP1 DUP5 DUP4 DUP2 MLOAD DUP2 LT PUSH2 0x1A52 JUMPI PUSH2 0x1A51 PUSH2 0x2716 JUMP JUMPDEST JUMPDEST PUSH1 0x20 MUL PUSH1 0x20 ADD ADD MLOAD PUSH0 ADD MLOAD PUSH20 0xFFFFFFFFFFFFFFFFFFFFFFFFFFFFFFFFFFFFFFFF AND DUP2 MSTORE PUSH1 0x20 ADD DUP5 DUP4 DUP2 MLOAD DUP2 LT PUSH2 0x1A8B JUMPI PUSH2 0x1A8A PUSH2 0x2716 JUMP JUMPDEST JUMPDEST PUSH1 0x20 MUL PUSH1 0x20 ADD ADD MLOAD PUSH1 0x20 ADD MLOAD DUP2 MSTORE PUSH1 0x20 ADD DUP5 DUP4 DUP2 MLOAD DUP2 LT PUSH2 0x1AAF JUMPI PUSH2 0x1AAE PUSH2 0x2716 JUMP JUMPDEST JUMPDEST PUSH1 0x20 MUL PUSH1 0x20 ADD ADD MLOAD PUSH1 0x40 ADD MLOAD DUP2 MSTORE POP DUP3 DUP3 DUP2 MLOAD DUP2 LT PUSH2 0x1AD1 JUMPI PUSH2 0x1AD0 PUSH2 0x2716 JUMP JUMPDEST JUMPDEST PUSH1 0x20 MUL PUSH1 0x20 ADD ADD DUP2 SWAP1 MSTORE POP DUP1 DUP1 PUSH1 0x1 ADD SWAP2 POP POP PUSH2 0x1A2B JUMP JUMPDEST POP DUP1 SWAP3 POP POP POP SWAP2 SWAP1 POP JUMP JUMPDEST PUSH1 0x9 DUP2 PUSH1 0x5 DUP2 LT PUSH2 0x1B03 JUMPI PUSH0 DUP1 REVERT JUMPDEST PUSH1 0x20 SWAP2 DUP3 DUP3 DIV ADD SWAP2 SWAP1 MOD SWAP2 POP SLOAD SWAP1 PUSH2 0x100 EXP SWAP1 DIV PUSH1 0xFF AND DUP2 JUMP JUMPDEST PUSH1 0x7 PUSH1 0x20 MSTORE DUP1 PUSH0 MSTORE PUSH1 0x40 PUSH0 KECCAK256 PUSH0 SWAP2 POP SWAP1 POP SLOAD DUP2 JUMP JUMPDEST PUSH1 0x1 SLOAD DUP2 JUMP JUMPDEST PUSH1 0x40 MLOAD DUP1 PUSH1 0x60 ADD PUSH1 0x40 MSTORE DUP1 PUSH0 PUSH20 0xFFFFFFFFFFFFFFFFFFFFFFFFFFFFFFFFFFFFFFFF AND DUP2 MSTORE PUSH1 0x20 ADD PUSH0 DUP2 MSTORE PUSH1 0x20 ADD PUSH0 DUP2 MSTORE POP SWAP1 JUMP JUMPDEST PUSH0 DUP1 REVERT JUMPDEST PUSH0 PUSH20 0xFFFFFFFFFFFFFFFFFFFFFFFFFFFFFFFFFFFFFFFF DUP3 AND SWAP1 POP SWAP2 SWAP1 POP JUMP JUMPDEST PUSH0 PUSH2 0x1B99 DUP3 PUSH2 0x1B70 JUMP JUMPDEST SWAP1 POP SWAP2 SWAP1 POP JUMP JUMPDEST PUSH2 0x1BA9 DUP2 PUSH2 0x1B8F JUMP JUMPDEST DUP2 EQ PUSH2 0x1BB3 JUMPI PUSH0 DUP1 REVERT JUMPDEST POP JUMP JUMPDEST PUSH0 DUP2 CALLDATALOAD SWAP1 POP PUSH2 0x1BC4 DUP2 PUSH2 0x1BA0 JUMP JUMPDEST SWAP3 SWAP2 POP POP JUMP JUMPDEST PUSH0 DUP2 SWAP1 POP SWAP2 SWAP1 POP JUMP JUMPDEST PUSH2 0x1BDC DUP2 PUSH2 0x1BCA JUMP JUMPDEST DUP2 EQ PUSH2 0x1BE6 JUMPI PUSH0 DUP1 REVERT JUMPDEST POP JUMP JUMPDEST PUSH0 DUP2 CALLDATALOAD SWAP1 POP PUSH2 0x1BF7 DUP2 PUSH2 0x1BD3 JUMP JUMPDEST SWAP3 SWAP2 POP POP JUMP JUMPDEST PUSH0 DUP1 PUSH1 0x40 DUP4 DUP6 SUB SLT ISZERO PUSH2 0x1C13 JUMPI PUSH2 0x1C12 PUSH2 0x1B6C JUMP JUMPDEST JUMPDEST PUSH0 PUSH2 0x1C20 DUP6 DUP3 DUP7 ADD PUSH2 0x1BB6 JUMP JUMPDEST SWAP3 POP POP PUSH1 0x20 PUSH2 0x1C31 DUP6 DUP3 DUP7 ADD PUSH2 0x1BE9 JUMP JUMPDEST SWAP2 POP POP SWAP3 POP SWAP3 SWAP1 POP JUMP JUMPDEST PUSH2 0x1C44 DUP2 PUSH2 0x1B8F JUMP JUMPDEST DUP3 MSTORE POP POP JUMP JUMPDEST PUSH2 0x1C53 DUP2 PUSH2 0x1BCA JUMP JUMPDEST DUP3 MSTORE POP POP JUMP JUMPDEST PUSH0 PUSH1 0x60 DUP3 ADD SWAP1 POP PUSH2 0x1C6C PUSH0 DUP4 ADD DUP7 PUSH2 0x1C3B JUMP JUMPDEST PUSH2 0x1C79 PUSH1 0x20 DUP4 ADD DUP6 PUSH2 0x1C4A JUMP JUMPDEST PUSH2 0x1C86 PUSH1 0x40 DUP4 ADD DUP5 PUSH2 0x1C4A JUMP JUMPDEST SWAP5 SWAP4 POP POP POP POP JUMP JUMPDEST PUSH0 PUSH1 0x20 DUP3 DUP5 SUB SLT ISZERO PUSH2 0x1CA3 JUMPI PUSH2 0x1CA2 PUSH2 0x1B6C JUMP JUMPDEST JUMPDEST PUSH0 PUSH2 0x1CB0 DUP5 DUP3 DUP6 ADD PUSH2 0x1BE9 JUMP JUMPDEST SWAP2 POP POP SWAP3 SWAP2 POP POP JUMP JUMPDEST PUSH0 PUSH1 0x20 DUP3 ADD SWAP1 POP PUSH2 0x1CCC PUSH0 DUP4 ADD DUP5 PUSH2 0x1C3B JUMP JUMPDEST SWAP3 SWAP2 POP POP JUMP JUMPDEST PUSH0 PUSH1 0x20 DUP3 DUP5 SUB SLT ISZERO PUSH2 0x1CE7 JUMPI PUSH2 0x1CE6 PUSH2 0x1B6C JUMP JUMPDEST JUMPDEST PUSH0 PUSH2 0x1CF4 DUP5 DUP3 DUP6 ADD PUSH2 0x1BB6 JUMP JUMPDEST SWAP2 POP POP SWAP3 SWAP2 POP POP JUMP JUMPDEST PUSH0 DUP1 PUSH1 0x40 DUP4 DUP6 SUB SLT ISZERO PUSH2 0x1D13 JUMPI PUSH2 0x1D12 PUSH2 0x1B6C JUMP JUMPDEST JUMPDEST PUSH0 PUSH2 0x1D20 DUP6 DUP3 DUP7 ADD PUSH2 0x1BE9 JUMP JUMPDEST SWAP3 POP POP PUSH1 0x20 PUSH2 0x1D31 DUP6 DUP3 DUP7 ADD PUSH2 0x1BE9 JUMP JUMPDEST SWAP2 POP POP SWAP3 POP SWAP3 SWAP1 POP JUMP JUMPDEST PUSH0 PUSH1 0x20 DUP3 ADD SWAP1 POP PUSH2 0x1D4E PUSH0 DUP4 ADD DUP5 PUSH2 0x1C4A JUMP JUMPDEST SWAP3 SWAP2 POP POP JUMP JUMPDEST PUSH0 DUP2 ISZERO ISZERO SWAP1 POP SWAP2 SWAP1 POP JUMP JUMPDEST PUSH2 0x1D68 DUP2 PUSH2 0x1D54 JUMP JUMPDEST DUP3 MSTORE POP POP JUMP JUMPDEST PUSH0 PUSH1 0x80 DUP3 ADD SWAP1 POP PUSH2 0x1D81 PUSH0 DUP4 ADD DUP8 PUSH2 0x1C3B JUMP JUMPDEST PUSH2 0x1D8E PUSH1 0x20 DUP4 ADD DUP7 PUSH2 0x1C4A JUMP JUMPDEST PUSH2 0x1D9B PUSH1 0x40 DUP4 ADD DUP6 PUSH2 0x1C4A JUMP JUMPDEST PUSH2 0x1DA8 PUSH1 0x60 DUP4 ADD DUP5 PUSH2 0x1D5F JUMP JUMPDEST SWAP6 SWAP5 POP POP POP POP POP JUMP JUMPDEST PUSH0 DUP2 SWAP1 POP SWAP2 SWAP1 POP JUMP JUMPDEST PUSH0 PUSH2 0x1DD4 PUSH2 0x1DCF PUSH2 0x1DCA DUP5 PUSH2 0x1B70 JUMP JUMPDEST PUSH2 0x1DB1 JUMP JUMPDEST PUSH2 0x1B70 JUMP JUMPDEST SWAP1 POP SWAP2 SWAP1 POP JUMP JUMPDEST PUSH0 PUSH2 0x1DE5 DUP3 PUSH2 0x1DBA JUMP JUMPDEST SWAP1 POP SWAP2 SWAP1 POP JUMP JUMPDEST PUSH0 PUSH2 0x1DF6 DUP3 PUSH2 0x1DDB JUMP JUMPDEST SWAP1 POP SWAP2 SWAP1 POP JUMP JUMPDEST PUSH2 0x1E06 DUP2 PUSH2 0x1DEC JUMP JUMPDEST DUP3 MSTORE POP POP JUMP JUMPDEST PUSH0 PUSH1 0x20 DUP3 ADD SWAP1 POP PUSH2 0x1E1F PUSH0 DUP4 ADD DUP5 PUSH2 0x1DFD JUMP JUMPDEST SWAP3 SWAP2 POP POP JUMP JUMPDEST PUSH0 DUP2 MLOAD SWAP1 POP SWAP2 SWAP1 POP JUMP JUMPDEST PUSH0 DUP3 DUP3 MSTORE PUSH1 0x20 DUP3 ADD SWAP1 POP SWAP3 SWAP2 POP POP JUMP JUMPDEST PUSH0 DUP2 SWAP1 POP PUSH1 0x20 DUP3 ADD SWAP1 POP SWAP2 SWAP1 POP JUMP JUMPDEST PUSH2 0x1E57 DUP2 PUSH2 0x1B8F JUMP JUMPDEST DUP3 MSTORE POP POP JUMP JUMPDEST PUSH2 0x1E66 DUP2 PUSH2 0x1BCA JUMP JUMPDEST DUP3 MSTORE POP POP JUMP JUMPDEST PUSH1 0x60 DUP3 ADD PUSH0 DUP3 ADD MLOAD PUSH2 0x1E80 PUSH0 DUP6 ADD DUP3 PUSH2 0x1E4E JUMP JUMPDEST POP PUSH1 0x20 DUP3 ADD MLOAD PUSH2 0x1E93 PUSH1 0x20 DUP6 ADD DUP3 PUSH2 0x1E5D JUMP JUMPDEST POP PUSH1 0x40 DUP3 ADD MLOAD PUSH2 0x1EA6 PUSH1 0x40 DUP6 ADD DUP3 PUSH2 0x1E5D JUMP JUMPDEST POP POP POP POP JUMP JUMPDEST PUSH0 PUSH2 0x1EB7 DUP4 DUP4 PUSH2 0x1E6C JUMP JUMPDEST PUSH1 0x60 DUP4 ADD SWAP1 POP SWAP3 SWAP2 POP POP JUMP JUMPDEST PUSH0 PUSH1 0x20 DUP3 ADD SWAP1 POP SWAP2 SWAP1 POP JUMP JUMPDEST PUSH0 PUSH2 0x1ED9 DUP3 PUSH2 0x1E25 JUMP JUMPDEST PUSH2 0x1EE3 DUP2 DUP6 PUSH2 0x1E2F JUMP JUMPDEST SWAP4 POP PUSH2 0x1EEE DUP4 PUSH2 0x1E3F JUMP JUMPDEST DUP1 PUSH0 JUMPDEST DUP4 DUP2 LT ISZERO PUSH2 0x1F1E JUMPI DUP2 MLOAD PUSH2 0x1F05 DUP9 DUP3 PUSH2 0x1EAC JUMP JUMPDEST SWAP8 POP PUSH2 0x1F10 DUP4 PUSH2 0x1EC3 JUMP JUMPDEST SWAP3 POP POP PUSH1 0x1 DUP2 ADD SWAP1 POP PUSH2 0x1EF1 JUMP JUMPDEST POP DUP6 SWAP4 POP POP POP POP SWAP3 SWAP2 POP POP JUMP JUMPDEST PUSH0 PUSH1 0x20 DUP3 ADD SWAP1 POP DUP2 DUP2 SUB PUSH0 DUP4 ADD MSTORE PUSH2 0x1F43 DUP2 DUP5 PUSH2 0x1ECF JUMP JUMPDEST SWAP1 POP SWAP3 SWAP2 POP POP JUMP JUMPDEST PUSH0 PUSH1 0xFF DUP3 AND SWAP1 POP SWAP2 SWAP1 POP JUMP JUMPDEST PUSH2 0x1F60 DUP2 PUSH2 0x1F4B JUMP JUMPDEST DUP3 MSTORE POP POP JUMP JUMPDEST PUSH0 PUSH1 0x20 DUP3 ADD SWAP1 POP PUSH2 0x1F79 PUSH0 DUP4 ADD DUP5 PUSH2 0x1F57 JUMP JUMPDEST SWAP3 SWAP2 POP POP JUMP JUMPDEST PUSH0 DUP3 DUP3 MSTORE PUSH1 0x20 DUP3 ADD SWAP1 POP SWAP3 SWAP2 POP POP JUMP JUMPDEST PUSH32 0x416C726561647920726567697374657265640000000000000000000000000000 PUSH0 DUP3 ADD MSTORE POP JUMP JUMPDEST PUSH0 PUSH2 0x1FC3 PUSH1 0x12 DUP4 PUSH2 0x1F7F JUMP JUMPDEST SWAP2 POP PUSH2 0x1FCE DUP3 PUSH2 0x1F8F JUMP JUMPDEST PUSH1 0x20 DUP3 ADD SWAP1 POP SWAP2 SWAP1 POP JUMP JUMPDEST PUSH0 PUSH1 0x20 DUP3 ADD SWAP1 POP DUP2 DUP2 SUB PUSH0 DUP4 ADD MSTORE PUSH2 0x1FF0 DUP2 PUSH2 0x1FB7 JUMP JUMPDEST SWAP1 POP SWAP2 SWAP1 POP JUMP JUMPDEST PUSH32 0x43616E6E6F7420726566657220796F757273656C660000000000000000000000 PUSH0 DUP3 ADD MSTORE POP JUMP JUMPDEST PUSH0 PUSH2 0x202B PUSH1 0x15 DUP4 PUSH2 0x1F7F JUMP JUMPDEST SWAP2 POP PUSH2 0x2036 DUP3 PUSH2 0x1FF7 JUMP JUMPDEST PUSH1 0x20 DUP3 ADD SWAP1 POP SWAP2 SWAP1 POP JUMP JUMPDEST PUSH0 PUSH1 0x20 DUP3 ADD SWAP1 POP DUP2 DUP2 SUB PUSH0 DUP4 ADD MSTORE PUSH2 0x2058 DUP2 PUSH2 0x201F JUMP JUMPDEST SWAP1 POP SWAP2 SWAP1 POP JUMP JUMPDEST PUSH32 0x5265666572726572206E6F742072656769737465726564000000000000000000 PUSH0 DUP3 ADD MSTORE POP JUMP JUMPDEST PUSH0 PUSH2 0x2093 PUSH1 0x17 DUP4 PUSH2 0x1F7F JUMP JUMPDEST SWAP2 POP PUSH2 0x209E DUP3 PUSH2 0x205F JUMP JUMPDEST PUSH1 0x20 DUP3 ADD SWAP1 POP SWAP2 SWAP1 POP JUMP JUMPDEST PUSH0 PUSH1 0x20 DUP3 ADD SWAP1 POP DUP2 DUP2 SUB PUSH0 DUP4 ADD MSTORE PUSH2 0x20C0 DUP2 PUSH2 0x2087 JUMP JUMPDEST SWAP1 POP SWAP2 SWAP1 POP JUMP JUMPDEST PUSH32 0x5265666572726572206D757374207374616B65206265666F726520796F752063 PUSH0 DUP3 ADD MSTORE PUSH32 0x616E207265676973746572000000000000000000000000000000000000000000 PUSH1 0x20 DUP3 ADD MSTORE POP JUMP JUMPDEST PUSH0 PUSH2 0x2121 PUSH1 0x2B DUP4 PUSH2 0x1F7F JUMP JUMPDEST SWAP2 POP PUSH2 0x212C DUP3 PUSH2 0x20C7 JUMP JUMPDEST PUSH1 0x40 DUP3 ADD SWAP1 POP SWAP2 SWAP1 POP JUMP JUMPDEST PUSH0 PUSH1 0x20 DUP3 ADD SWAP1 POP DUP2 DUP2 SUB PUSH0 DUP4 ADD MSTORE PUSH2 0x214E DUP2 PUSH2 0x2115 JUMP JUMPDEST SWAP1 POP SWAP2 SWAP1 POP JUMP JUMPDEST PUSH32 0x4E6F742072656769737465726564000000000000000000000000000000000000 PUSH0 DUP3 ADD MSTORE POP JUMP JUMPDEST PUSH0 PUSH2 0x2189 PUSH1 0xE DUP4 PUSH2 0x1F7F JUMP JUMPDEST SWAP2 POP PUSH2 0x2194 DUP3 PUSH2 0x2155 JUMP JUMPDEST PUSH1 0x20 DUP3 ADD SWAP1 POP SWAP2 SWAP1 POP JUMP JUMPDEST PUSH0 PUSH1 0x20 DUP3 ADD SWAP1 POP DUP2 DUP2 SUB PUSH0 DUP4 ADD MSTORE PUSH2 0x21B6 DUP2 PUSH2 0x217D JUMP JUMPDEST SWAP1 POP SWAP2 SWAP1 POP JUMP JUMPDEST PUSH32 0x5374616B6520616D6F756E74206D757374206265206772656174657220746861 PUSH0 DUP3 ADD MSTORE PUSH32 0x6E20300000000000000000000000000000000000000000000000000000000000 PUSH1 0x20 DUP3 ADD MSTORE POP JUMP JUMPDEST PUSH0 PUSH2 0x2217 PUSH1 0x23 DUP4 PUSH2 0x1F7F JUMP JUMPDEST SWAP2 POP PUSH2 0x2222 DUP3 PUSH2 0x21BD JUMP JUMPDEST PUSH1 0x40 DUP3 ADD SWAP1 POP SWAP2 SWAP1 POP JUMP JUMPDEST PUSH0 PUSH1 0x20 DUP3 ADD SWAP1 POP DUP2 DUP2 SUB PUSH0 DUP4 ADD MSTORE PUSH2 0x2244 DUP2 PUSH2 0x220B JUMP JUMPDEST SWAP1 POP SWAP2 SWAP1 POP JUMP JUMPDEST PUSH32 0x496E76616C6964207374616B696E67206475726174696F6E0000000000000000 PUSH0 DUP3 ADD MSTORE POP JUMP JUMPDEST PUSH0 PUSH2 0x227F PUSH1 0x18 DUP4 PUSH2 0x1F7F JUMP JUMPDEST SWAP2 POP PUSH2 0x228A DUP3 PUSH2 0x224B JUMP JUMPDEST PUSH1 0x20 DUP3 ADD SWAP1 POP SWAP2 SWAP1 POP JUMP JUMPDEST PUSH0 PUSH1 0x20 DUP3 ADD SWAP1 POP DUP2 DUP2 SUB PUSH0 DUP4 ADD MSTORE PUSH2 0x22AC DUP2 PUSH2 0x2273 JUMP JUMPDEST SWAP1 POP SWAP2 SWAP1 POP JUMP JUMPDEST PUSH32 0x5265666572726572206D757374207374616B65206265666F726520796F752063 PUSH0 DUP3 ADD MSTORE PUSH32 0x616E207374616B65000000000000000000000000000000000000000000000000 PUSH1 0x20 DUP3 ADD MSTORE POP JUMP JUMPDEST PUSH0 PUSH2 0x230D PUSH1 0x28 DUP4 PUSH2 0x1F7F JUMP JUMPDEST SWAP2 POP PUSH2 0x2318 DUP3 PUSH2 0x22B3 JUMP JUMPDEST PUSH1 0x40 DUP3 ADD SWAP1 POP SWAP2 SWAP1 POP JUMP JUMPDEST PUSH0 PUSH1 0x20 DUP3 ADD SWAP1 POP DUP2 DUP2 SUB PUSH0 DUP4 ADD MSTORE PUSH2 0x233A DUP2 PUSH2 0x2301 JUMP JUMPDEST SWAP1 POP SWAP2 SWAP1 POP JUMP JUMPDEST PUSH0 PUSH1 0x60 DUP3 ADD SWAP1 POP PUSH2 0x2354 PUSH0 DUP4 ADD DUP7 PUSH2 0x1C3B JUMP JUMPDEST PUSH2 0x2361 PUSH1 0x20 DUP4 ADD DUP6 PUSH2 0x1C3B JUMP JUMPDEST PUSH2 0x236E PUSH1 0x40 DUP4 ADD DUP5 PUSH2 0x1C4A JUMP JUMPDEST SWAP5 SWAP4 POP POP POP POP JUMP JUMPDEST PUSH2 0x237F DUP2 PUSH2 0x1D54 JUMP JUMPDEST DUP2 EQ PUSH2 0x2389 JUMPI PUSH0 DUP1 REVERT JUMPDEST POP JUMP JUMPDEST PUSH0 DUP2 MLOAD SWAP1 POP PUSH2 0x239A DUP2 PUSH2 0x2376 JUMP JUMPDEST SWAP3 SWAP2 POP POP JUMP JUMPDEST PUSH0 PUSH1 0x20 DUP3 DUP5 SUB SLT ISZERO PUSH2 0x23B5 JUMPI PUSH2 0x23B4 PUSH2 0x1B6C JUMP JUMPDEST JUMPDEST PUSH0 PUSH2 0x23C2 DUP5 DUP3 DUP6 ADD PUSH2 0x238C JUMP JUMPDEST SWAP2 POP POP SWAP3 SWAP2 POP POP JUMP JUMPDEST PUSH32 0x55534454207472616E73666572206661696C6564000000000000000000000000 PUSH0 DUP3 ADD MSTORE POP JUMP JUMPDEST PUSH0 PUSH2 0x23FF PUSH1 0x14 DUP4 PUSH2 0x1F7F JUMP JUMPDEST SWAP2 POP PUSH2 0x240A DUP3 PUSH2 0x23CB JUMP JUMPDEST PUSH1 0x20 DUP3 ADD SWAP1 POP SWAP2 SWAP1 POP JUMP JUMPDEST PUSH0 PUSH1 0x20 DUP3 ADD SWAP1 POP DUP2 DUP2 SUB PUSH0 DUP4 ADD MSTORE PUSH2 0x242C DUP2 PUSH2 0x23F3 JUMP JUMPDEST SWAP1 POP SWAP2 SWAP1 POP JUMP JUMPDEST PUSH32 0x4E487B7100000000000000000000000000000000000000000000000000000000 PUSH0 MSTORE PUSH1 0x11 PUSH1 0x4 MSTORE PUSH1 0x24 PUSH0 REVERT JUMPDEST PUSH0 PUSH2 0x246A DUP3 PUSH2 0x1BCA JUMP JUMPDEST SWAP2 POP PUSH32 0xFFFFFFFFFFFFFFFFFFFFFFFFFFFFFFFFFFFFFFFFFFFFFFFFFFFFFFFFFFFFFFFF DUP3 SUB PUSH2 0x249C JUMPI PUSH2 0x249B PUSH2 0x2433 JUMP JUMPDEST JUMPDEST PUSH1 0x1 DUP3 ADD SWAP1 POP SWAP2 SWAP1 POP JUMP JUMPDEST PUSH0 PUSH2 0x24B1 DUP3 PUSH2 0x1BCA JUMP JUMPDEST SWAP2 POP PUSH2 0x24BC DUP4 PUSH2 0x1BCA JUMP JUMPDEST SWAP3 POP DUP3 DUP3 MUL PUSH2 0x24CA DUP2 PUSH2 0x1BCA JUMP JUMPDEST SWAP2 POP DUP3 DUP3 DIV DUP5 EQ DUP4 ISZERO OR PUSH2 0x24E1 JUMPI PUSH2 0x24E0 PUSH2 0x2433 JUMP JUMPDEST JUMPDEST POP SWAP3 SWAP2 POP POP JUMP JUMPDEST PUSH32 0x4E487B7100000000000000000000000000000000000000000000000000000000 PUSH0 MSTORE PUSH1 0x12 PUSH1 0x4 MSTORE PUSH1 0x24 PUSH0 REVERT JUMPDEST PUSH0 PUSH2 0x251F DUP3 PUSH2 0x1BCA JUMP JUMPDEST SWAP2 POP PUSH2 0x252A DUP4 PUSH2 0x1BCA JUMP JUMPDEST SWAP3 POP DUP3 PUSH2 0x253A JUMPI PUSH2 0x2539 PUSH2 0x24E8 JUMP JUMPDEST JUMPDEST DUP3 DUP3 DIV SWAP1 POP SWAP3 SWAP2 POP POP JUMP JUMPDEST PUSH0 PUSH2 0x254F DUP3 PUSH2 0x1BCA JUMP JUMPDEST SWAP2 POP PUSH2 0x255A DUP4 PUSH2 0x1BCA JUMP JUMPDEST SWAP3 POP DUP3 DUP3 ADD SWAP1 POP DUP1 DUP3 GT ISZERO PUSH2 0x2572 JUMPI PUSH2 0x2571 PUSH2 0x2433 JUMP JUMPDEST JUMPDEST SWAP3 SWAP2 POP POP JUMP JUMPDEST PUSH0 DUP2 MLOAD SWAP1 POP PUSH2 0x2586 DUP2 PUSH2 0x1BD3 JUMP JUMPDEST SWAP3 SWAP2 POP POP JUMP JUMPDEST PUSH0 PUSH1 0x20 DUP3 DUP5 SUB SLT ISZERO PUSH2 0x25A1 JUMPI PUSH2 0x25A0 PUSH2 0x1B6C JUMP JUMPDEST JUMPDEST PUSH0 PUSH2 0x25AE DUP5 DUP3 DUP6 ADD PUSH2 0x2578 JUMP JUMPDEST SWAP2 POP POP SWAP3 SWAP2 POP POP JUMP JUMPDEST PUSH32 0x496E73756666696369656E7420636F6E74726163742062616C616E6365000000 PUSH0 DUP3 ADD MSTORE POP JUMP JUMPDEST PUSH0 PUSH2 0x25EB PUSH1 0x1D DUP4 PUSH2 0x1F7F JUMP JUMPDEST SWAP2 POP PUSH2 0x25F6 DUP3 PUSH2 0x25B7 JUMP JUMPDEST PUSH1 0x20 DUP3 ADD SWAP1 POP SWAP2 SWAP1 POP JUMP JUMPDEST PUSH0 PUSH1 0x20 DUP3 ADD SWAP1 POP DUP2 DUP2 SUB PUSH0 DUP4 ADD MSTORE PUSH2 0x2618 DUP2 PUSH2 0x25DF JUMP JUMPDEST SWAP1 POP SWAP2 SWAP1 POP JUMP JUMPDEST PUSH0 PUSH1 0x40 DUP3 ADD SWAP1 POP PUSH2 0x2632 PUSH0 DUP4 ADD DUP6 PUSH2 0x1C3B JUMP JUMPDEST PUSH2 0x263F PUSH1 0x20 DUP4 ADD DUP5 PUSH2 0x1C4A JUMP JUMPDEST SWAP4 SWAP3 POP POP POP JUMP JUMPDEST PUSH32 0x44697265637420726566657272616C207472616E73666572206661696C656400 PUSH0 DUP3 ADD MSTORE POP JUMP JUMPDEST PUSH0 PUSH2 0x267A PUSH1 0x1F DUP4 PUSH2 0x1F7F JUMP JUMPDEST SWAP2 POP PUSH2 0x2685 DUP3 PUSH2 0x2646 JUMP JUMPDEST PUSH1 0x20 DUP3 ADD SWAP1 POP SWAP2 SWAP1 POP JUMP JUMPDEST PUSH0 PUSH1 0x20 DUP3 ADD SWAP1 POP DUP2 DUP2 SUB PUSH0 DUP4 ADD MSTORE PUSH2 0x26A7 DUP2 PUSH2 0x266E JUMP JUMPDEST SWAP1 POP SWAP2 SWAP1 POP JUMP JUMPDEST PUSH32 0x4C6576656C203120726577617264207472616E73666572206661696C65640000 PUSH0 DUP3 ADD MSTORE POP JUMP JUMPDEST PUSH0 PUSH2 0x26E2 PUSH1 0x1E DUP4 PUSH2 0x1F7F JUMP JUMPDEST SWAP2 POP PUSH2 0x26ED DUP3 PUSH2 0x26AE JUMP JUMPDEST PUSH1 0x20 DUP3 ADD SWAP1 POP SWAP2 SWAP1 POP JUMP JUMPDEST PUSH0 PUSH1 0x20 DUP3 ADD SWAP1 POP DUP2 DUP2 SUB PUSH0 DUP4 ADD MSTORE PUSH2 0x270F DUP2 PUSH2 0x26D6 JUMP JUMPDEST SWAP1 POP SWAP2 SWAP1 POP JUMP JUMPDEST PUSH32 0x4E487B7100000000000000000000000000000000000000000000000000000000 PUSH0 MSTORE PUSH1 0x32 PUSH1 0x4 MSTORE PUSH1 0x24 PUSH0 REVERT JUMPDEST PUSH32 0x4C6576656C20726577617264207472616E73666572206661696C656400000000 PUSH0 DUP3 ADD MSTORE POP JUMP JUMPDEST PUSH0 PUSH2 0x2777 PUSH1 0x1C DUP4 PUSH2 0x1F7F JUMP JUMPDEST SWAP2 POP PUSH2 0x2782 DUP3 PUSH2 0x2743 JUMP JUMPDEST PUSH1 0x20 DUP3 ADD SWAP1 POP SWAP2 SWAP1 POP JUMP JUMPDEST PUSH0 PUSH1 0x20 DUP3 ADD SWAP1 POP DUP2 DUP2 SUB PUSH0 DUP4 ADD MSTORE PUSH2 0x27A4 DUP2 PUSH2 0x276B JUMP JUMPDEST SWAP1 POP SWAP2 SWAP1 POP JUMP JUMPDEST PUSH0 PUSH2 0x27B5 DUP3 PUSH2 0x1F4B JUMP JUMPDEST SWAP2 POP PUSH1 0xFF DUP3 SUB PUSH2 0x27C8 JUMPI PUSH2 0x27C7 PUSH2 0x2433 JUMP JUMPDEST JUMPDEST PUSH1 0x1 DUP3 ADD SWAP1 POP SWAP2 SWAP1 POP JUMP JUMPDEST PUSH32 0x4E487B7100000000000000000000000000000000000000000000000000000000 PUSH0 MSTORE PUSH1 0x41 PUSH1 0x4 MSTORE PUSH1 0x24 PUSH0 REVERT INVALID LOG2 PUSH5 0x6970667358 0x22 SLT KECCAK256 MSIZE 0xCB GAS 0xC1 SWAP16 PUSH20 0x423E44E08A7EA549B1875B67E9236279E613943 0xCA COINBASE PUSH25 0x6C522664736F6C634300081900330000000000000000000000 "
				},
				"gasEstimates": {
					"creation": {
						"codeDepositCost": "2058800",
						"executionCost": "infinite",
						"totalCost": "infinite"
					},
					"external": {
						"allUsers(uint256)": "4967",
						"directReferralIncome(address)": "2868",
						"directReferrals(address,uint256)": "infinite",
						"getDirectReferralIncomeData(address)": "infinite",
						"levelRewards(uint256)": "4423",
						"owner()": "2616",
						"positionIdToUser(uint256)": "2850",
						"register(address)": "180459",
						"stake(uint256,uint256)": "infinite",
						"stakeCounter()": "2513",
						"stakingAPY(uint256)": "infinite",
						"usdtToken()": "infinite",
						"users(address)": "infinite"
					}
				},
				"methodIdentifiers": {
					"allUsers(uint256)": "a2bdedf4",
					"directReferralIncome(address)": "f6e88873",
					"directReferrals(address,uint256)": "05ad3935",
					"getDirectReferralIncomeData(address)": "e22fcd7b",
					"levelRewards(uint256)": "e45a57d0",
					"owner()": "8da5cb5b",
					"positionIdToUser(uint256)": "1e43eb27",
					"register(address)": "4420e486",
					"stake(uint256,uint256)": "7b0472f0",
					"stakeCounter()": "f7b17d10",
					"stakingAPY(uint256)": "875bb4e2",
					"usdtToken()": "a98ad46c",
					"users(address)": "a87430ba"
				}
			},
			"storageLayout": {
				"storage": [
					{
						"astId": 31,
						"contract": "contracts/1_Storage.sol:SikkaStakingDecentralize",
						"label": "owner",
						"offset": 0,
						"slot": "0",
						"type": "t_address"
					},
					{
						"astId": 33,
						"contract": "contracts/1_Storage.sol:SikkaStakingDecentralize",
						"label": "stakeCounter",
						"offset": 0,
						"slot": "1",
						"type": "t_uint256"
					},
					{
						"astId": 36,
						"contract": "contracts/1_Storage.sol:SikkaStakingDecentralize",
						"label": "usdtToken",
						"offset": 0,
						"slot": "2",
						"type": "t_contract(IERC20)29"
					},
					{
						"astId": 141,
						"contract": "contracts/1_Storage.sol:SikkaStakingDecentralize",
						"label": "users",
						"offset": 0,
						"slot": "3",
						"type": "t_mapping(t_address,t_struct(User)129_storage)"
					},
					{
						"astId": 147,
						"contract": "contracts/1_Storage.sol:SikkaStakingDecentralize",
						"label": "directReferrals",
						"offset": 0,
						"slot": "4",
						"type": "t_mapping(t_address,t_array(t_struct(ReferralInfo)116_storage)dyn_storage)"
					},
					{
						"astId": 151,
						"contract": "contracts/1_Storage.sol:SikkaStakingDecentralize",
						"label": "positionIdToUser",
						"offset": 0,
						"slot": "5",
						"type": "t_mapping(t_uint256,t_address)"
					},
					{
						"astId": 155,
						"contract": "contracts/1_Storage.sol:SikkaStakingDecentralize",
						"label": "stakingAPY",
						"offset": 0,
						"slot": "6",
						"type": "t_mapping(t_uint256,t_uint256)"
					},
					{
						"astId": 159,
						"contract": "contracts/1_Storage.sol:SikkaStakingDecentralize",
						"label": "directReferralIncome",
						"offset": 0,
						"slot": "7",
						"type": "t_mapping(t_address,t_uint256)"
					},
					{
						"astId": 162,
						"contract": "contracts/1_Storage.sol:SikkaStakingDecentralize",
						"label": "allUsers",
						"offset": 0,
						"slot": "8",
						"type": "t_array(t_address)dyn_storage"
					},
					{
						"astId": 172,
						"contract": "contracts/1_Storage.sol:SikkaStakingDecentralize",
						"label": "levelRewards",
						"offset": 0,
						"slot": "9",
						"type": "t_array(t_uint8)5_storage"
					}
				],
				"types": {
					"t_address": {
						"encoding": "inplace",
						"label": "address",
						"numberOfBytes": "20"
					},
					"t_array(t_address)dyn_storage": {
						"base": "t_address",
						"encoding": "dynamic_array",
						"label": "address[]",
						"numberOfBytes": "32"
					},
					"t_array(t_struct(ReferralInfo)116_storage)dyn_storage": {
						"base": "t_struct(ReferralInfo)116_storage",
						"encoding": "dynamic_array",
						"label": "struct SikkaStakingDecentralize.ReferralInfo[]",
						"numberOfBytes": "32"
					},
					"t_array(t_struct(Stake)109_storage)dyn_storage": {
						"base": "t_struct(Stake)109_storage",
						"encoding": "dynamic_array",
						"label": "struct SikkaStakingDecentralize.Stake[]",
						"numberOfBytes": "32"
					},
					"t_array(t_uint8)5_storage": {
						"base": "t_uint8",
						"encoding": "inplace",
						"label": "uint8[5]",
						"numberOfBytes": "32"
					},
					"t_bool": {
						"encoding": "inplace",
						"label": "bool",
						"numberOfBytes": "1"
					},
					"t_contract(IERC20)29": {
						"encoding": "inplace",
						"label": "contract IERC20",
						"numberOfBytes": "20"
					},
					"t_mapping(t_address,t_array(t_struct(ReferralInfo)116_storage)dyn_storage)": {
						"encoding": "mapping",
						"key": "t_address",
						"label": "mapping(address => struct SikkaStakingDecentralize.ReferralInfo[])",
						"numberOfBytes": "32",
						"value": "t_array(t_struct(ReferralInfo)116_storage)dyn_storage"
					},
					"t_mapping(t_address,t_struct(User)129_storage)": {
						"encoding": "mapping",
						"key": "t_address",
						"label": "mapping(address => struct SikkaStakingDecentralize.User)",
						"numberOfBytes": "32",
						"value": "t_struct(User)129_storage"
					},
					"t_mapping(t_address,t_uint256)": {
						"encoding": "mapping",
						"key": "t_address",
						"label": "mapping(address => uint256)",
						"numberOfBytes": "32",
						"value": "t_uint256"
					},
					"t_mapping(t_uint256,t_address)": {
						"encoding": "mapping",
						"key": "t_uint256",
						"label": "mapping(uint256 => address)",
						"numberOfBytes": "32",
						"value": "t_address"
					},
					"t_mapping(t_uint256,t_uint256)": {
						"encoding": "mapping",
						"key": "t_uint256",
						"label": "mapping(uint256 => uint256)",
						"numberOfBytes": "32",
						"value": "t_uint256"
					},
					"t_struct(ReferralInfo)116_storage": {
						"encoding": "inplace",
						"label": "struct SikkaStakingDecentralize.ReferralInfo",
						"members": [
							{
								"astId": 111,
								"contract": "contracts/1_Storage.sol:SikkaStakingDecentralize",
								"label": "referralAddress",
								"offset": 0,
								"slot": "0",
								"type": "t_address"
							},
							{
								"astId": 113,
								"contract": "contracts/1_Storage.sol:SikkaStakingDecentralize",
								"label": "incomeEarned",
								"offset": 0,
								"slot": "1",
								"type": "t_uint256"
							},
							{
								"astId": 115,
								"contract": "contracts/1_Storage.sol:SikkaStakingDecentralize",
								"label": "timestamp",
								"offset": 0,
								"slot": "2",
								"type": "t_uint256"
							}
						],
						"numberOfBytes": "96"
					},
					"t_struct(Stake)109_storage": {
						"encoding": "inplace",
						"label": "struct SikkaStakingDecentralize.Stake",
						"members": [
							{
								"astId": 98,
								"contract": "contracts/1_Storage.sol:SikkaStakingDecentralize",
								"label": "stakeId",
								"offset": 0,
								"slot": "0",
								"type": "t_uint256"
							},
							{
								"astId": 100,
								"contract": "contracts/1_Storage.sol:SikkaStakingDecentralize",
								"label": "positionId",
								"offset": 0,
								"slot": "1",
								"type": "t_uint256"
							},
							{
								"astId": 102,
								"contract": "contracts/1_Storage.sol:SikkaStakingDecentralize",
								"label": "amount",
								"offset": 0,
								"slot": "2",
								"type": "t_uint256"
							},
							{
								"astId": 104,
								"contract": "contracts/1_Storage.sol:SikkaStakingDecentralize",
								"label": "timestamp",
								"offset": 0,
								"slot": "3",
								"type": "t_uint256"
							},
							{
								"astId": 106,
								"contract": "contracts/1_Storage.sol:SikkaStakingDecentralize",
								"label": "numDays",
								"offset": 0,
								"slot": "4",
								"type": "t_uint256"
							},
							{
								"astId": 108,
								"contract": "contracts/1_Storage.sol:SikkaStakingDecentralize",
								"label": "claimed",
								"offset": 0,
								"slot": "5",
								"type": "t_bool"
							}
						],
						"numberOfBytes": "192"
					},
					"t_struct(User)129_storage": {
						"encoding": "inplace",
						"label": "struct SikkaStakingDecentralize.User",
						"members": [
							{
								"astId": 118,
								"contract": "contracts/1_Storage.sol:SikkaStakingDecentralize",
								"label": "referrer",
								"offset": 0,
								"slot": "0",
								"type": "t_address"
							},
							{
								"astId": 122,
								"contract": "contracts/1_Storage.sol:SikkaStakingDecentralize",
								"label": "stakes",
								"offset": 0,
								"slot": "1",
								"type": "t_array(t_struct(Stake)109_storage)dyn_storage"
							},
							{
								"astId": 124,
								"contract": "contracts/1_Storage.sol:SikkaStakingDecentralize",
								"label": "totalIncome",
								"offset": 0,
								"slot": "2",
								"type": "t_uint256"
							},
							{
								"astId": 126,
								"contract": "contracts/1_Storage.sol:SikkaStakingDecentralize",
								"label": "levelIncome",
								"offset": 0,
								"slot": "3",
								"type": "t_uint256"
							},
							{
								"astId": 128,
								"contract": "contracts/1_Storage.sol:SikkaStakingDecentralize",
								"label": "registered",
								"offset": 0,
								"slot": "4",
								"type": "t_bool"
							}
						],
						"numberOfBytes": "160"
					},
					"t_uint256": {
						"encoding": "inplace",
						"label": "uint256",
						"numberOfBytes": "32"
					},
					"t_uint8": {
						"encoding": "inplace",
						"label": "uint8",
						"numberOfBytes": "1"
					}
				}
			},
			"userdoc": {
				"kind": "user",
				"methods": {
					"getDirectReferralIncomeData(address)": {
						"notice": "✅ Fetch direct referral income for a user (array of structs)"
					}
				},
				"version": 1
			}
		}
	}
}