{
	"contracts/roy.sol": {
		"SikkaStakingDecentralize": {
			"abi": [
				{
					"inputs": [
						{
							"internalType": "address",
							"name": "_usdtToken",
							"type": "address"
						}
					],
					"stateMutability": "nonpayable",
					"type": "constructor"
				},
				{
					"anonymous": false,
					"inputs": [
						{
							"indexed": true,
							"internalType": "address",
							"name": "user",
							"type": "address"
						},
						{
							"indexed": false,
							"internalType": "uint256",
							"name": "stakeId",
							"type": "uint256"
						},
						{
							"indexed": false,
							"internalType": "uint256",
							"name": "amount",
							"type": "uint256"
						},
						{
							"indexed": false,
							"internalType": "uint256",
							"name": "reward",
							"type": "uint256"
						}
					],
					"name": "Claimed",
					"type": "event"
				},
				{
					"inputs": [
						{
							"internalType": "uint256",
							"name": "",
							"type": "uint256"
						}
					],
					"name": "allUsers",
					"outputs": [
						{
							"internalType": "address",
							"name": "",
							"type": "address"
						}
					],
					"stateMutability": "view",
					"type": "function"
				},
				{
					"inputs": [
						{
							"internalType": "uint256",
							"name": "_positionId",
							"type": "uint256"
						}
					],
					"name": "claim",
					"outputs": [],
					"stateMutability": "nonpayable",
					"type": "function"
				},
				{
					"inputs": [
						{
							"internalType": "uint256",
							"name": "_positionId",
							"type": "uint256"
						}
					],
					"name": "claimEmergency",
					"outputs": [],
					"stateMutability": "nonpayable",
					"type": "function"
				},
				{
					"inputs": [
						{
							"internalType": "address",
							"name": "",
							"type": "address"
						}
					],
					"name": "directReferralIncome",
					"outputs": [
						{
							"internalType": "uint256",
							"name": "",
							"type": "uint256"
						}
					],
					"stateMutability": "view",
					"type": "function"
				},
				{
					"inputs": [
						{
							"internalType": "address",
							"name": "",
							"type": "address"
						},
						{
							"internalType": "uint256",
							"name": "",
							"type": "uint256"
						}
					],
					"name": "directReferrals",
					"outputs": [
						{
							"internalType": "address",
							"name": "referralAddress",
							"type": "address"
						},
						{
							"internalType": "uint256",
							"name": "incomeEarned",
							"type": "uint256"
						},
						{
							"internalType": "uint256",
							"name": "timestamp",
							"type": "uint256"
						}
					],
					"stateMutability": "view",
					"type": "function"
				},
				{
					"inputs": [],
					"name": "getContractBalance",
					"outputs": [
						{
							"internalType": "uint256",
							"name": "",
							"type": "uint256"
						}
					],
					"stateMutability": "view",
					"type": "function"
				},
				{
					"inputs": [
						{
							"internalType": "address",
							"name": "user",
							"type": "address"
						}
					],
					"name": "getDirectReferralCount",
					"outputs": [
						{
							"internalType": "uint256",
							"name": "",
							"type": "uint256"
						}
					],
					"stateMutability": "view",
					"type": "function"
				},
				{
					"inputs": [
						{
							"internalType": "address",
							"name": "user",
							"type": "address"
						}
					],
					"name": "getDirectReferralIncome",
					"outputs": [
						{
							"internalType": "uint256",
							"name": "",
							"type": "uint256"
						}
					],
					"stateMutability": "view",
					"type": "function"
				},
				{
					"inputs": [
						{
							"internalType": "uint256",
							"name": "amount",
							"type": "uint256"
						},
						{
							"internalType": "uint256",
							"name": "numDays",
							"type": "uint256"
						}
					],
					"name": "getEstimatedReturn",
					"outputs": [
						{
							"internalType": "uint256",
							"name": "interest",
							"type": "uint256"
						},
						{
							"internalType": "uint256",
							"name": "totalReturn",
							"type": "uint256"
						}
					],
					"stateMutability": "view",
					"type": "function"
				},
				{
					"inputs": [
						{
							"internalType": "address",
							"name": "user",
							"type": "address"
						}
					],
					"name": "getLevelIncome",
					"outputs": [
						{
							"internalType": "uint256",
							"name": "",
							"type": "uint256"
						}
					],
					"stateMutability": "view",
					"type": "function"
				},
				{
					"inputs": [
						{
							"internalType": "address",
							"name": "_user",
							"type": "address"
						}
					],
					"name": "getLevelIncomeDistribution",
					"outputs": [
						{
							"components": [
								{
									"internalType": "address",
									"name": "receiverAddress",
									"type": "address"
								},
								{
									"internalType": "uint256",
									"name": "stakeId",
									"type": "uint256"
								},
								{
									"internalType": "uint256",
									"name": "stakeAmount",
									"type": "uint256"
								},
								{
									"internalType": "uint256",
									"name": "incomeReceived",
									"type": "uint256"
								},
								{
									"internalType": "address",
									"name": "uplineAddress",
									"type": "address"
								},
								{
									"internalType": "uint256",
									"name": "timestamp",
									"type": "uint256"
								},
								{
									"internalType": "uint8",
									"name": "level",
									"type": "uint8"
								}
							],
							"internalType": "struct SikkaStakingDecentralize.LevelIncomeData[]",
							"name": "",
							"type": "tuple[]"
						}
					],
					"stateMutability": "view",
					"type": "function"
				},
				{
					"inputs": [
						{
							"internalType": "address",
							"name": "_user",
							"type": "address"
						}
					],
					"name": "getPositionIds",
					"outputs": [
						{
							"internalType": "uint256[]",
							"name": "",
							"type": "uint256[]"
						}
					],
					"stateMutability": "view",
					"type": "function"
				},
				{
					"inputs": [
						{
							"internalType": "address",
							"name": "user",
							"type": "address"
						}
					],
					"name": "getReferralIncomeDetails",
					"outputs": [
						{
							"internalType": "address[]",
							"name": "referralAddresses",
							"type": "address[]"
						},
						{
							"internalType": "uint256[]",
							"name": "incomes",
							"type": "uint256[]"
						},
						{
							"internalType": "uint256[]",
							"name": "timestamps",
							"type": "uint256[]"
						}
					],
					"stateMutability": "view",
					"type": "function"
				},
				{
					"inputs": [
						{
							"internalType": "uint256",
							"name": "_positionId",
							"type": "uint256"
						}
					],
					"name": "getStakeByPositionId",
					"outputs": [
						{
							"internalType": "address",
							"name": "user",
							"type": "address"
						},
						{
							"internalType": "uint256",
							"name": "stakeId",
							"type": "uint256"
						},
						{
							"internalType": "uint256",
							"name": "amount",
							"type": "uint256"
						},
						{
							"internalType": "uint256",
							"name": "startDate",
							"type": "uint256"
						},
						{
							"internalType": "uint256",
							"name": "endDate",
							"type": "uint256"
						},
						{
							"internalType": "uint256",
							"name": "apy",
							"type": "uint256"
						},
						{
							"internalType": "uint256",
							"name": "perDayInterest",
							"type": "uint256"
						},
						{
							"internalType": "bool",
							"name": "status",
							"type": "bool"
						}
					],
					"stateMutability": "view",
					"type": "function"
				},
				{
					"inputs": [
						{
							"internalType": "address",
							"name": "user",
							"type": "address"
						}
					],
					"name": "getTotalIncome",
					"outputs": [
						{
							"internalType": "uint256",
							"name": "",
							"type": "uint256"
						}
					],
					"stateMutability": "view",
					"type": "function"
				},
				{
					"inputs": [
						{
							"internalType": "address",
							"name": "user",
							"type": "address"
						}
					],
					"name": "getTotalLevelIncome",
					"outputs": [
						{
							"internalType": "uint256",
							"name": "",
							"type": "uint256"
						}
					],
					"stateMutability": "view",
					"type": "function"
				},
				{
					"inputs": [],
					"name": "getTotalUsers",
					"outputs": [
						{
							"internalType": "uint256",
							"name": "",
							"type": "uint256"
						}
					],
					"stateMutability": "view",
					"type": "function"
				},
				{
					"inputs": [
						{
							"internalType": "address",
							"name": "user",
							"type": "address"
						}
					],
					"name": "getUpline",
					"outputs": [
						{
							"internalType": "address",
							"name": "",
							"type": "address"
						}
					],
					"stateMutability": "view",
					"type": "function"
				},
				{
					"inputs": [
						{
							"internalType": "address",
							"name": "user",
							"type": "address"
						}
					],
					"name": "getUserLevel",
					"outputs": [
						{
							"internalType": "uint8",
							"name": "",
							"type": "uint8"
						}
					],
					"stateMutability": "view",
					"type": "function"
				},
				{
					"inputs": [
						{
							"internalType": "address",
							"name": "user",
							"type": "address"
						}
					],
					"name": "isRegistered",
					"outputs": [
						{
							"internalType": "bool",
							"name": "",
							"type": "bool"
						}
					],
					"stateMutability": "view",
					"type": "function"
				},
				{
					"inputs": [
						{
							"internalType": "uint256",
							"name": "",
							"type": "uint256"
						}
					],
					"name": "levelRewards",
					"outputs": [
						{
							"internalType": "uint8",
							"name": "",
							"type": "uint8"
						}
					],
					"stateMutability": "view",
					"type": "function"
				},
				{
					"inputs": [],
					"name": "owner",
					"outputs": [
						{
							"internalType": "address",
							"name": "",
							"type": "address"
						}
					],
					"stateMutability": "view",
					"type": "function"
				},
				{
					"inputs": [
						{
							"internalType": "address",
							"name": "to",
							"type": "address"
						},
						{
							"internalType": "uint256",
							"name": "amount",
							"type": "uint256"
						}
					],
					"name": "ownerTransfer",
					"outputs": [],
					"stateMutability": "nonpayable",
					"type": "function"
				},
				{
					"inputs": [
						{
							"internalType": "uint256",
							"name": "",
							"type": "uint256"
						}
					],
					"name": "positionIdToUser",
					"outputs": [
						{
							"internalType": "address",
							"name": "",
							"type": "address"
						}
					],
					"stateMutability": "view",
					"type": "function"
				},
				{
					"inputs": [
						{
							"internalType": "address",
							"name": "referrer",
							"type": "address"
						}
					],
					"name": "register",
					"outputs": [],
					"stateMutability": "nonpayable",
					"type": "function"
				},
				{
					"inputs": [
						{
							"internalType": "uint8[5]",
							"name": "newRewards",
							"type": "uint8[5]"
						}
					],
					"name": "setLevelRewards",
					"outputs": [],
					"stateMutability": "nonpayable",
					"type": "function"
				},
				{
					"inputs": [
						{
							"internalType": "uint256",
							"name": "numDays",
							"type": "uint256"
						},
						{
							"internalType": "uint256",
							"name": "apy",
							"type": "uint256"
						}
					],
					"name": "setStakingAPY",
					"outputs": [],
					"stateMutability": "nonpayable",
					"type": "function"
				},
				{
					"inputs": [
						{
							"internalType": "uint256",
							"name": "numDays",
							"type": "uint256"
						},
						{
							"internalType": "uint256",
							"name": "amount",
							"type": "uint256"
						}
					],
					"name": "stake",
					"outputs": [],
					"stateMutability": "nonpayable",
					"type": "function"
				},
				{
					"inputs": [],
					"name": "stakeCounter",
					"outputs": [
						{
							"internalType": "uint256",
							"name": "",
							"type": "uint256"
						}
					],
					"stateMutability": "view",
					"type": "function"
				},
				{
					"inputs": [
						{
							"internalType": "uint256",
							"name": "",
							"type": "uint256"
						}
					],
					"name": "stakingAPY",
					"outputs": [
						{
							"internalType": "uint256",
							"name": "",
							"type": "uint256"
						}
					],
					"stateMutability": "view",
					"type": "function"
				},
				{
					"inputs": [],
					"name": "usdtToken",
					"outputs": [
						{
							"internalType": "contract IERC20",
							"name": "",
							"type": "address"
						}
					],
					"stateMutability": "view",
					"type": "function"
				},
				{
					"inputs": [
						{
							"internalType": "address",
							"name": "",
							"type": "address"
						}
					],
					"name": "users",
					"outputs": [
						{
							"internalType": "address",
							"name": "referrer",
							"type": "address"
						},
						{
							"internalType": "uint256",
							"name": "totalIncome",
							"type": "uint256"
						},
						{
							"internalType": "uint256",
							"name": "levelIncome",
							"type": "uint256"
						},
						{
							"internalType": "bool",
							"name": "registered",
							"type": "bool"
						}
					],
					"stateMutability": "view",
					"type": "function"
				},
				{
					"inputs": [
						{
							"internalType": "uint256",
							"name": "amount",
							"type": "uint256"
						}
					],
					"name": "withdrawUSDT",
					"outputs": [],
					"stateMutability": "nonpayable",
					"type": "function"
				}
			],
			"devdoc": {
				"kind": "dev",
				"methods": {},
				"version": 1
			},
			"evm": {
				"assembly": "    /* \"contracts/roy.sol\":1849:1895  uint8[5] public levelRewards = [5, 3, 2, 1, 1] */\n  0x0120\n    /* \"contracts/roy.sol\":389:19754  contract SikkaStakingDecentralize {... */\n  0x40\n    /* \"contracts/roy.sol\":1849:1895  uint8[5] public levelRewards = [5, 3, 2, 1, 1] */\n  mstore\n    /* \"contracts/roy.sol\":1881:1882  5 */\n  0x05\n    /* \"contracts/roy.sol\":389:19754  contract SikkaStakingDecentralize {... */\n  0x80\n    /* \"contracts/roy.sol\":1849:1895  uint8[5] public levelRewards = [5, 3, 2, 1, 1] */\n  dup2\n  dup2\n  mstore\n    /* \"contracts/roy.sol\":1884:1885  3 */\n  0x03\n    /* \"contracts/roy.sol\":1849:1895  uint8[5] public levelRewards = [5, 3, 2, 1, 1] */\n  0xa0\n  mstore\n    /* \"contracts/roy.sol\":1887:1888  2 */\n  0x02\n    /* \"contracts/roy.sol\":1849:1895  uint8[5] public levelRewards = [5, 3, 2, 1, 1] */\n  0xc0\n  mstore\n    /* \"contracts/roy.sol\":1890:1891  1 */\n  0x01\n    /* \"contracts/roy.sol\":1849:1895  uint8[5] public levelRewards = [5, 3, 2, 1, 1] */\n  0xe0\n  dup2\n  swap1\n  mstore\n  0x0100\n  mstore\n  tag_1\n  swap2\n  0x09\n  swap2\n    /* \"contracts/roy.sol\":389:19754  contract SikkaStakingDecentralize {... */\n  swap1\n    /* \"contracts/roy.sol\":1849:1895  uint8[5] public levelRewards = [5, 3, 2, 1, 1] */\n  tag_2\n  jump\t// in\ntag_1:\n  pop\n    /* \"contracts/roy.sol\":518:839  constructor(address _usdtToken) {... */\n  callvalue\n  dup1\n  iszero\n  tag_3\n  jumpi\n  revert(0x00, 0x00)\ntag_3:\n  pop\n  mload(0x40)\n  sub(codesize, bytecodeSize)\n  dup1\n  bytecodeSize\n  dup4\n  codecopy\n  dup2\n  add\n  0x40\n  dup2\n  swap1\n  mstore\n  tag_4\n  swap2\n  tag_5\n  jump\t// in\ntag_4:\n    /* \"contracts/roy.sol\":560:565  owner */\n  0x00\n    /* \"contracts/roy.sol\":560:578  owner = msg.sender */\n  dup1\n  sload\n    /* \"contracts/roy.sol\":568:578  msg.sender */\n  caller\n  not(sub(shl(0xa0, 0x01), 0x01))\n    /* \"contracts/roy.sol\":560:578  owner = msg.sender */\n  swap2\n  dup3\n  and\n  dup2\n  or\n  dup4\n  sstore\n    /* \"contracts/roy.sol\":588:597  usdtToken */\n  0x02\n    /* \"contracts/roy.sol\":588:618  usdtToken = IERC20(_usdtToken) */\n  dup1\n  sload\n  swap1\n  swap3\n  and\n  sub(shl(0xa0, 0x01), 0x01)\n  swap5\n  swap1\n  swap5\n  and\n  swap4\n  swap1\n  swap4\n  or\n  dup2\n  sstore\n    /* \"contracts/roy.sol\":628:640  users[owner] */\n  swap2\n  dup2\n  mstore\n    /* \"contracts/roy.sol\":628:633  users */\n  0x03\n    /* \"contracts/roy.sol\":628:640  users[owner] */\n  0x20\n  swap1\n  dup2\n  mstore\n  0x40\n  dup3\n  keccak256\n    /* \"contracts/roy.sol\":628:651  users[owner].registered */\n  0x04\n  swap1\n  dup2\n  add\n    /* \"contracts/roy.sol\":628:658  users[owner].registered = true */\n  dup1\n  sload\n  not(0xff)\n  and\n  0x01\n  swap1\n  dup2\n  or\n  swap1\n  swap2\n  sstore\n    /* \"contracts/roy.sol\":669:679  stakingAPY */\n  0x06\n    /* \"contracts/roy.sol\":669:683  stakingAPY[30] */\n  swap3\n  dup4\n  swap1\n  mstore\n  0xb6ba906ff52451a7a924e2eaeb8aea3ebee7350a8703e5e417edb25358c7dcc1\n    /* \"contracts/roy.sol\":669:687  stakingAPY[30] = 1 */\n  sstore\n    /* \"contracts/roy.sol\":697:711  stakingAPY[60] */\n  0x6ca6dcafc04b6e03616746c3528366f990e332021e35d59275be746d65cae0a7\n    /* \"contracts/roy.sol\":697:715  stakingAPY[60] = 2 */\n  swap4\n  swap1\n  swap4\n  sstore\n    /* \"contracts/roy.sol\":726:740  stakingAPY[90] */\n  0x1727c0104c2870c3003671480695f7dab262614528b49265008e76fd3d48c5fe\n    /* \"contracts/roy.sol\":726:744  stakingAPY[90] = 4 */\n  swap3\n  swap1\n  swap3\n  sstore\n    /* \"contracts/roy.sol\":754:769  stakingAPY[120] */\n  0x5451fe6494362676ddb91456d9957c85d968e6f82956407c931a14c023049e6a\n    /* \"contracts/roy.sol\":754:773  stakingAPY[120] = 6 */\n  swap2\n  swap1\n  swap2\n  sstore\n    /* \"contracts/roy.sol\":801:802  9 */\n  0x09\n    /* \"contracts/roy.sol\":783:798  stakingAPY[180] */\n  0xfb78eb295a86b096b5f095822bd250a277112be4103ea4a7608d96eca726b2c1\n    /* \"contracts/roy.sol\":783:802  stakingAPY[180] = 9 */\n  sstore\n    /* \"contracts/roy.sol\":823:826  365 */\n  0x016d\n    /* \"contracts/roy.sol\":812:827  stakingAPY[365] */\n  swap1\n  mstore\n    /* \"contracts/roy.sol\":830:832  20 */\n  0x14\n    /* \"contracts/roy.sol\":812:827  stakingAPY[365] */\n  0x0bbf8adea84d189c39869a372ab30aeba9246eea044edc5a37ac100921b2c4e1\n    /* \"contracts/roy.sol\":812:832  stakingAPY[365] = 20 */\n  sstore\n    /* \"contracts/roy.sol\":389:19754  contract SikkaStakingDecentralize {... */\n  jump(tag_17)\ntag_2:\n  0x01\n  dup4\n  add\n  swap2\n  dup4\n  swap1\n  dup3\n  iszero\n  tag_9\n  jumpi\n  swap2\n  0x20\n  mul\n  dup3\n  add\n  0x00\ntag_10:\n  dup4\n  dup3\n  gt\n  iszero\n  tag_11\n  jumpi\n  dup4\n  mload\n  dup4\n  dup3\n  0x0100\n  exp\n  dup2\n  sload\n  dup2\n  0xff\n  mul\n  not\n  and\n  swap1\n  dup4\n  0xff\n  and\n  mul\n  or\n  swap1\n  sstore\n  pop\n  swap3\n  0x20\n  add\n  swap3\n  0x01\n  add\n  0x20\n  dup2\n  0x00\n  add\n  div\n  swap3\n  dup4\n  add\n  swap3\n  0x01\n  sub\n  mul\n  jump(tag_10)\ntag_11:\n  dup1\n  iszero\n  tag_12\n  jumpi\n  dup3\n  dup2\n  0x0100\n  exp\n  dup2\n  sload\n  swap1\n  0xff\n  mul\n  not\n  and\n  swap1\n  sstore\n  0x01\n  add\n  0x20\n  dup2\n  0x00\n  add\n  div\n  swap3\n  dup4\n  add\n  swap3\n  0x01\n  sub\n  mul\n  jump(tag_11)\ntag_12:\n  pop\ntag_9:\n  pop\n  tag_13\n  swap3\n  swap2\n  pop\n  tag_14\n  jump\t// in\ntag_13:\n  pop\n  swap1\n  jump\t// out\ntag_14:\ntag_15:\n  dup1\n  dup3\n  gt\n  iszero\n  tag_13\n  jumpi\n  0x00\n  dup2\n  sstore\n  0x01\n  add\n  jump(tag_15)\n    /* \"#utility.yul\":14:304   */\ntag_5:\n    /* \"#utility.yul\":84:90   */\n  0x00\n    /* \"#utility.yul\":137:139   */\n  0x20\n    /* \"#utility.yul\":125:134   */\n  dup3\n    /* \"#utility.yul\":116:123   */\n  dup5\n    /* \"#utility.yul\":112:135   */\n  sub\n    /* \"#utility.yul\":108:140   */\n  slt\n    /* \"#utility.yul\":105:157   */\n  iszero\n  tag_19\n  jumpi\n    /* \"#utility.yul\":153:154   */\n  0x00\n    /* \"#utility.yul\":150:151   */\n  0x00\n    /* \"#utility.yul\":143:155   */\n  revert\n    /* \"#utility.yul\":105:157   */\ntag_19:\n    /* \"#utility.yul\":179:195   */\n  dup2\n  mload\n  sub(shl(0xa0, 0x01), 0x01)\n    /* \"#utility.yul\":224:255   */\n  dup2\n  and\n    /* \"#utility.yul\":214:256   */\n  dup2\n  eq\n    /* \"#utility.yul\":204:274   */\n  tag_20\n  jumpi\n    /* \"#utility.yul\":270:271   */\n  0x00\n    /* \"#utility.yul\":267:268   */\n  0x00\n    /* \"#utility.yul\":260:272   */\n  revert\n    /* \"#utility.yul\":204:274   */\ntag_20:\n    /* \"#utility.yul\":293:298   */\n  swap4\n    /* \"#utility.yul\":14:304   */\n  swap3\n  pop\n  pop\n  pop\n  jump\t// out\ntag_17:\n    /* \"contracts/roy.sol\":389:19754  contract SikkaStakingDecentralize {... */\n  dataSize(sub_0)\n  dup1\n  dataOffset(sub_0)\n  0x00\n  codecopy\n  0x00\n  return\nstop\n\nsub_0: assembly {\n        /* \"contracts/roy.sol\":389:19754  contract SikkaStakingDecentralize {... */\n      mstore(0x40, 0x80)\n      callvalue\n      dup1\n      iszero\n      tag_1\n      jumpi\n      revert(0x00, 0x00)\n    tag_1:\n      pop\n      jumpi(tag_2, lt(calldatasize, 0x04))\n      shr(0xe0, calldataload(0x00))\n      dup1\n      0x98278efb\n      gt\n      tag_36\n      jumpi\n      dup1\n      0xc2d3c677\n      gt\n      tag_37\n      jumpi\n      dup1\n      0xd85c8966\n      gt\n      tag_38\n      jumpi\n      dup1\n      0xd85c8966\n      eq\n      tag_31\n      jumpi\n      dup1\n      0xe45a57d0\n      eq\n      tag_32\n      jumpi\n      dup1\n      0xef71ae56\n      eq\n      tag_33\n      jumpi\n      dup1\n      0xf6e88873\n      eq\n      tag_34\n      jumpi\n      dup1\n      0xf7b17d10\n      eq\n      tag_35\n      jumpi\n      revert(0x00, 0x00)\n    tag_38:\n      dup1\n      0xc2d3c677\n      eq\n      tag_27\n      jumpi\n      dup1\n      0xc3c5a547\n      eq\n      tag_28\n      jumpi\n      dup1\n      0xc5b89c0a\n      eq\n      tag_11\n      jumpi\n      dup1\n      0xcb6f37ab\n      eq\n      tag_30\n      jumpi\n      revert(0x00, 0x00)\n    tag_37:\n      dup1\n      0xa87430ba\n      gt\n      tag_39\n      jumpi\n      dup1\n      0xa87430ba\n      eq\n      tag_23\n      jumpi\n      dup1\n      0xa98ad46c\n      eq\n      tag_24\n      jumpi\n      dup1\n      0xaa7ed462\n      eq\n      tag_25\n      jumpi\n      dup1\n      0xbd297178\n      eq\n      tag_26\n      jumpi\n      revert(0x00, 0x00)\n    tag_39:\n      dup1\n      0x98278efb\n      eq\n      tag_19\n      jumpi\n      dup1\n      0x9be572f6\n      eq\n      tag_20\n      jumpi\n      dup1\n      0x9d747bad\n      eq\n      tag_21\n      jumpi\n      dup1\n      0xa2bdedf4\n      eq\n      tag_22\n      jumpi\n      revert(0x00, 0x00)\n    tag_36:\n      dup1\n      0x5bd4e16a\n      gt\n      tag_40\n      jumpi\n      dup1\n      0x797c7f5f\n      gt\n      tag_41\n      jumpi\n      dup1\n      0x797c7f5f\n      eq\n      tag_15\n      jumpi\n      dup1\n      0x7b0472f0\n      eq\n      tag_16\n      jumpi\n      dup1\n      0x875bb4e2\n      eq\n      tag_17\n      jumpi\n      dup1\n      0x8da5cb5b\n      eq\n      tag_18\n      jumpi\n      revert(0x00, 0x00)\n    tag_41:\n      dup1\n      0x5bd4e16a\n      eq\n      tag_11\n      jumpi\n      dup1\n      0x656596a5\n      eq\n      tag_12\n      jumpi\n      dup1\n      0x6c8c2156\n      eq\n      tag_13\n      jumpi\n      dup1\n      0x6f9fb98a\n      eq\n      tag_14\n      jumpi\n      revert(0x00, 0x00)\n    tag_40:\n      dup1\n      0x379607f5\n      gt\n      tag_42\n      jumpi\n      dup1\n      0x379607f5\n      eq\n      tag_7\n      jumpi\n      dup1\n      0x3ea521ef\n      eq\n      tag_8\n      jumpi\n      dup1\n      0x4420e486\n      eq\n      tag_9\n      jumpi\n      dup1\n      0x4850d2a2\n      eq\n      tag_10\n      jumpi\n      revert(0x00, 0x00)\n    tag_42:\n      dup1\n      0x05ad3935\n      eq\n      tag_3\n      jumpi\n      dup1\n      0x1e43eb27\n      eq\n      tag_4\n      jumpi\n      dup1\n      0x21923bde\n      eq\n      tag_5\n      jumpi\n      dup1\n      0x28fe7031\n      eq\n      tag_6\n      jumpi\n    tag_2:\n      revert(0x00, 0x00)\n        /* \"contracts/roy.sol\":1585:1642  mapping(address => ReferralInfo[]) public directReferrals */\n    tag_3:\n      tag_43\n      tag_44\n      calldatasize\n      0x04\n      tag_45\n      jump\t// in\n    tag_44:\n      tag_46\n      jump\t// in\n    tag_43:\n      0x40\n      dup1\n      mload\n      sub(shl(0xa0, 0x01), 0x01)\n        /* \"#utility.yul\":717:749   */\n      swap1\n      swap5\n      and\n        /* \"#utility.yul\":699:750   */\n      dup5\n      mstore\n        /* \"#utility.yul\":781:783   */\n      0x20\n        /* \"#utility.yul\":766:784   */\n      dup5\n      add\n        /* \"#utility.yul\":759:793   */\n      swap3\n      swap1\n      swap3\n      mstore\n        /* \"#utility.yul\":809:827   */\n      swap1\n      dup3\n      add\n        /* \"#utility.yul\":802:836   */\n      mstore\n        /* \"#utility.yul\":687:689   */\n      0x60\n        /* \"#utility.yul\":672:690   */\n      add\n        /* \"contracts/roy.sol\":1585:1642  mapping(address => ReferralInfo[]) public directReferrals */\n    tag_47:\n      mload(0x40)\n      dup1\n      swap2\n      sub\n      swap1\n      return\n        /* \"contracts/roy.sol\":1648:1699  mapping(uint256 => address) public positionIdToUser */\n    tag_4:\n      tag_49\n      tag_50\n      calldatasize\n      0x04\n      tag_51\n      jump\t// in\n    tag_50:\n      mstore(0x20, 0x05)\n      0x00\n      swap1\n      dup2\n      mstore\n      0x40\n      swap1\n      keccak256\n      sload\n      sub(shl(0xa0, 0x01), 0x01)\n      and\n      dup2\n      jump\n    tag_49:\n      mload(0x40)\n      sub(shl(0xa0, 0x01), 0x01)\n        /* \"#utility.yul\":1242:1274   */\n      swap1\n      swap2\n      and\n        /* \"#utility.yul\":1224:1275   */\n      dup2\n      mstore\n        /* \"#utility.yul\":1212:1214   */\n      0x20\n        /* \"#utility.yul\":1197:1215   */\n      add\n        /* \"contracts/roy.sol\":1648:1699  mapping(uint256 => address) public positionIdToUser */\n      tag_47\n        /* \"#utility.yul\":1078:1281   */\n      jump\n        /* \"contracts/roy.sol\":16620:16868  function getUserLevel(address user) external view returns (uint8) {... */\n    tag_5:\n      tag_55\n      tag_56\n      calldatasize\n      0x04\n      tag_57\n      jump\t// in\n    tag_56:\n      tag_58\n      jump\t// in\n    tag_55:\n      mload(0x40)\n        /* \"#utility.yul\":1649:1653   */\n      0xff\n        /* \"#utility.yul\":1637:1654   */\n      swap1\n      swap2\n      and\n        /* \"#utility.yul\":1619:1655   */\n      dup2\n      mstore\n        /* \"#utility.yul\":1607:1609   */\n      0x20\n        /* \"#utility.yul\":1592:1610   */\n      add\n        /* \"contracts/roy.sol\":16620:16868  function getUserLevel(address user) external view returns (uint8) {... */\n      tag_47\n        /* \"#utility.yul\":1477:1661   */\n      jump\n        /* \"contracts/roy.sol\":13931:14285  function getPositionIds(address _user)... */\n    tag_6:\n      tag_61\n      tag_62\n      calldatasize\n      0x04\n      tag_57\n      jump\t// in\n    tag_62:\n      tag_63\n      jump\t// in\n    tag_61:\n      mload(0x40)\n      tag_47\n      swap2\n      swap1\n      tag_65\n      jump\t// in\n        /* \"contracts/roy.sol\":8631:10878  function claim(uint256 _positionId) external onlyRegistered {... */\n    tag_7:\n      tag_66\n      tag_67\n      calldatasize\n      0x04\n      tag_51\n      jump\t// in\n    tag_67:\n      tag_68\n      jump\t// in\n    tag_66:\n      stop\n        /* \"contracts/roy.sol\":18948:19110  function withdrawUSDT(uint256 amount) external {... */\n    tag_8:\n      tag_66\n      tag_70\n      calldatasize\n      0x04\n      tag_51\n      jump\t// in\n    tag_70:\n      tag_71\n      jump\t// in\n        /* \"contracts/roy.sol\":2259:2995  function register(address referrer) external {... */\n    tag_9:\n      tag_66\n      tag_73\n      calldatasize\n      0x04\n      tag_57\n      jump\t// in\n    tag_73:\n      tag_74\n      jump\t// in\n        /* \"contracts/roy.sol\":8312:8476  function setStakingAPY(uint256 numDays, uint256 apy) external onlyOwner {... */\n    tag_10:\n      tag_66\n      tag_76\n      calldatasize\n      0x04\n      tag_77\n      jump\t// in\n    tag_76:\n      tag_78\n      jump\t// in\n        /* \"contracts/roy.sol\":14618:14735  function getLevelIncome(address user) external view returns (uint256) {... */\n    tag_11:\n      tag_79\n      tag_80\n      calldatasize\n      0x04\n      tag_57\n      jump\t// in\n    tag_80:\n      sub(shl(0xa0, 0x01), 0x01)\n        /* \"contracts/roy.sol\":14705:14716  users[user] */\n      and\n        /* \"contracts/roy.sol\":14679:14686  uint256 */\n      0x00\n        /* \"contracts/roy.sol\":14705:14716  users[user] */\n      swap1\n      dup2\n      mstore\n        /* \"contracts/roy.sol\":14705:14710  users */\n      0x03\n        /* \"contracts/roy.sol\":14705:14716  users[user] */\n      0x20\n      dup2\n      swap1\n      mstore\n      0x40\n      swap1\n      swap2\n      keccak256\n        /* \"contracts/roy.sol\":14705:14728  users[user].levelIncome */\n      add\n      sload\n      swap1\n        /* \"contracts/roy.sol\":14618:14735  function getLevelIncome(address user) external view returns (uint256) {... */\n      jump\n    tag_79:\n      mload(0x40)\n        /* \"#utility.yul\":2854:2879   */\n      swap1\n      dup2\n      mstore\n        /* \"#utility.yul\":2842:2844   */\n      0x20\n        /* \"#utility.yul\":2827:2845   */\n      add\n        /* \"contracts/roy.sol\":14618:14735  function getLevelIncome(address user) external view returns (uint256) {... */\n      tag_47\n        /* \"#utility.yul\":2708:2885   */\n      jump\n        /* \"contracts/roy.sol\":8511:8625  function setLevelRewards(uint8[5] memory newRewards) external onlyOwner {... */\n    tag_12:\n      tag_66\n      tag_85\n      calldatasize\n      0x04\n      tag_86\n      jump\t// in\n    tag_85:\n      tag_87\n      jump\t// in\n        /* \"contracts/roy.sol\":10884:12545  function claimEmergency(uint256 _positionId) external onlyRegistered {... */\n    tag_13:\n      tag_66\n      tag_89\n      calldatasize\n      0x04\n      tag_51\n      jump\t// in\n    tag_89:\n      tag_90\n      jump\t// in\n        /* \"contracts/roy.sol\":6231:6351  function getContractBalance() external view returns (uint256) {... */\n    tag_14:\n      tag_79\n      tag_92\n      jump\t// in\n        /* \"contracts/roy.sol\":12551:13925  function getStakeByPositionId(uint256 _positionId)... */\n    tag_15:\n      tag_94\n      tag_95\n      calldatasize\n      0x04\n      tag_51\n      jump\t// in\n    tag_95:\n      tag_96\n      jump\t// in\n    tag_94:\n      0x40\n      dup1\n      mload\n      sub(shl(0xa0, 0x01), 0x01)\n        /* \"#utility.yul\":4306:4338   */\n      swap1\n      swap10\n      and\n        /* \"#utility.yul\":4288:4339   */\n      dup10\n      mstore\n        /* \"#utility.yul\":4370:4372   */\n      0x20\n        /* \"#utility.yul\":4355:4373   */\n      dup10\n      add\n        /* \"#utility.yul\":4348:4382   */\n      swap8\n      swap1\n      swap8\n      mstore\n        /* \"#utility.yul\":4398:4416   */\n      swap6\n      dup8\n      add\n        /* \"#utility.yul\":4391:4425   */\n      swap5\n      swap1\n      swap5\n      mstore\n        /* \"#utility.yul\":4456:4458   */\n      0x60\n        /* \"#utility.yul\":4441:4459   */\n      dup7\n      add\n        /* \"#utility.yul\":4434:4468   */\n      swap3\n      swap1\n      swap3\n      mstore\n        /* \"#utility.yul\":4499:4502   */\n      0x80\n        /* \"#utility.yul\":4484:4503   */\n      dup6\n      add\n        /* \"#utility.yul\":4477:4512   */\n      mstore\n        /* \"#utility.yul\":4326:4329   */\n      0xa0\n        /* \"#utility.yul\":4528:4547   */\n      dup5\n      add\n        /* \"#utility.yul\":4521:4556   */\n      mstore\n        /* \"#utility.yul\":4587:4590   */\n      0xc0\n        /* \"#utility.yul\":4572:4591   */\n      dup4\n      add\n        /* \"#utility.yul\":4565:4600   */\n      mstore\n        /* \"#utility.yul\":4644:4658   */\n      iszero\n        /* \"#utility.yul\":4637:4659   */\n      iszero\n        /* \"#utility.yul\":4631:4634   */\n      0xe0\n        /* \"#utility.yul\":4616:4635   */\n      dup3\n      add\n        /* \"#utility.yul\":4609:4660   */\n      mstore\n        /* \"#utility.yul\":4275:4278   */\n      0x0100\n        /* \"#utility.yul\":4260:4279   */\n      add\n        /* \"contracts/roy.sol\":12551:13925  function getStakeByPositionId(uint256 _positionId)... */\n      tag_47\n        /* \"#utility.yul\":3951:4666   */\n      jump\n        /* \"contracts/roy.sol\":3001:6218  function stake(uint256 numDays, uint256 amount) external onlyRegistered {... */\n    tag_16:\n      tag_66\n      tag_100\n      calldatasize\n      0x04\n      tag_77\n      jump\t// in\n    tag_100:\n      tag_101\n      jump\t// in\n        /* \"contracts/roy.sol\":1705:1750  mapping(uint256 => uint256) public stakingAPY */\n    tag_17:\n      tag_79\n      tag_103\n      calldatasize\n      0x04\n      tag_51\n      jump\t// in\n    tag_103:\n      mstore(0x20, 0x06)\n      0x00\n      swap1\n      dup2\n      mstore\n      0x40\n      swap1\n      keccak256\n      sload\n      dup2\n      jump\n        /* \"contracts/roy.sol\":429:449  address public owner */\n    tag_18:\n      sload(0x00)\n      tag_49\n      swap1\n      sub(shl(0xa0, 0x01), 0x01)\n      and\n      dup2\n      jump\n        /* \"contracts/roy.sol\":14291:14449  function getDirectReferralCount(address user)... */\n    tag_19:\n      tag_79\n      tag_110\n      calldatasize\n      0x04\n      tag_57\n      jump\t// in\n    tag_110:\n      sub(shl(0xa0, 0x01), 0x01)\n        /* \"contracts/roy.sol\":14414:14435  directReferrals[user] */\n      and\n        /* \"contracts/roy.sol\":14384:14391  uint256 */\n      0x00\n        /* \"contracts/roy.sol\":14414:14435  directReferrals[user] */\n      swap1\n      dup2\n      mstore\n        /* \"contracts/roy.sol\":14414:14429  directReferrals */\n      0x04\n        /* \"contracts/roy.sol\":14414:14435  directReferrals[user] */\n      0x20\n      mstore\n      0x40\n      swap1\n      keccak256\n        /* \"contracts/roy.sol\":14414:14442  directReferrals[user].length */\n      sload\n      swap1\n        /* \"contracts/roy.sol\":14291:14449  function getDirectReferralCount(address user)... */\n      jump\n        /* \"contracts/roy.sol\":19233:19329  function getTotalUsers() external view returns (uint256) {... */\n    tag_20:\n        /* \"contracts/roy.sol\":19307:19315  allUsers */\n      0x08\n        /* \"contracts/roy.sol\":19307:19322  allUsers.length */\n      sload\n        /* \"contracts/roy.sol\":19233:19329  function getTotalUsers() external view returns (uint256) {... */\n      jump(tag_79)\n        /* \"contracts/roy.sol\":7531:8275  function getReferralIncomeDetails(address user)... */\n    tag_21:\n      tag_116\n      tag_117\n      calldatasize\n      0x04\n      tag_57\n      jump\t// in\n    tag_117:\n      tag_118\n      jump\t// in\n    tag_116:\n      mload(0x40)\n      tag_47\n      swap4\n      swap3\n      swap2\n      swap1\n      tag_120\n      jump\t// in\n        /* \"contracts/roy.sol\":1818:1843  address[] public allUsers */\n    tag_22:\n      tag_49\n      tag_122\n      calldatasize\n      0x04\n      tag_51\n      jump\t// in\n    tag_122:\n      tag_123\n      jump\t// in\n        /* \"contracts/roy.sol\":1542:1579  mapping(address => User) public users */\n    tag_23:\n      tag_125\n      tag_126\n      calldatasize\n      0x04\n      tag_57\n      jump\t// in\n    tag_126:\n      0x03\n      0x20\n      dup2\n      swap1\n      mstore\n      0x00\n      swap2\n      dup3\n      mstore\n      0x40\n      swap1\n      swap2\n      keccak256\n      dup1\n      sload\n      0x02\n      dup3\n      add\n      sload\n      swap3\n      dup3\n      add\n      sload\n      0x04\n      swap1\n      swap3\n      add\n      sload\n      sub(shl(0xa0, 0x01), 0x01)\n      swap1\n      swap2\n      and\n      swap3\n      swap2\n      swap1\n      0xff\n      and\n      dup5\n      jump\n    tag_125:\n      0x40\n      dup1\n      mload\n      sub(shl(0xa0, 0x01), 0x01)\n        /* \"#utility.yul\":5941:5973   */\n      swap1\n      swap6\n      and\n        /* \"#utility.yul\":5923:5974   */\n      dup6\n      mstore\n        /* \"#utility.yul\":6005:6007   */\n      0x20\n        /* \"#utility.yul\":5990:6008   */\n      dup6\n      add\n        /* \"#utility.yul\":5983:6017   */\n      swap4\n      swap1\n      swap4\n      mstore\n        /* \"#utility.yul\":6033:6051   */\n      swap2\n      dup4\n      add\n        /* \"#utility.yul\":6026:6060   */\n      mstore\n        /* \"#utility.yul\":6103:6117   */\n      iszero\n        /* \"#utility.yul\":6096:6118   */\n      iszero\n        /* \"#utility.yul\":6091:6093   */\n      0x60\n        /* \"#utility.yul\":6076:6094   */\n      dup3\n      add\n        /* \"#utility.yul\":6069:6119   */\n      mstore\n        /* \"#utility.yul\":5910:5913   */\n      0x80\n        /* \"#utility.yul\":5895:5914   */\n      add\n        /* \"contracts/roy.sol\":1542:1579  mapping(address => User) public users */\n      tag_47\n        /* \"#utility.yul\":5698:6125   */\n      jump\n        /* \"contracts/roy.sol\":488:511  IERC20 public usdtToken */\n    tag_24:\n      sload(0x02)\n      tag_49\n      swap1\n      sub(shl(0xa0, 0x01), 0x01)\n      and\n      dup2\n      jump\n        /* \"contracts/roy.sol\":14455:14612  function getDirectReferralIncome(address user)... */\n    tag_25:\n      tag_79\n      tag_135\n      calldatasize\n      0x04\n      tag_57\n      jump\t// in\n    tag_135:\n      sub(shl(0xa0, 0x01), 0x01)\n        /* \"contracts/roy.sol\":14579:14605  directReferralIncome[user] */\n      and\n        /* \"contracts/roy.sol\":14549:14556  uint256 */\n      0x00\n        /* \"contracts/roy.sol\":14579:14605  directReferralIncome[user] */\n      swap1\n      dup2\n      mstore\n        /* \"contracts/roy.sol\":14579:14599  directReferralIncome */\n      0x07\n        /* \"contracts/roy.sol\":14579:14605  directReferralIncome[user] */\n      0x20\n      mstore\n      0x40\n      swap1\n      keccak256\n      sload\n      swap1\n        /* \"contracts/roy.sol\":14455:14612  function getDirectReferralIncome(address user)... */\n      jump\n        /* \"contracts/roy.sol\":6362:7337  function getEstimatedReturn(uint256 amount, uint256 numDays)... */\n    tag_26:\n      tag_138\n      tag_139\n      calldatasize\n      0x04\n      tag_77\n      jump\t// in\n    tag_139:\n      tag_140\n      jump\t// in\n    tag_138:\n      0x40\n      dup1\n      mload\n        /* \"#utility.yul\":6525:6550   */\n      swap3\n      dup4\n      mstore\n        /* \"#utility.yul\":6581:6583   */\n      0x20\n        /* \"#utility.yul\":6566:6584   */\n      dup4\n      add\n        /* \"#utility.yul\":6559:6593   */\n      swap2\n      swap1\n      swap2\n      mstore\n        /* \"#utility.yul\":6498:6516   */\n      add\n        /* \"contracts/roy.sol\":6362:7337  function getEstimatedReturn(uint256 amount, uint256 numDays)... */\n      tag_47\n        /* \"#utility.yul\":6351:6599   */\n      jump\n        /* \"contracts/roy.sol\":16369:16486  function getTotalIncome(address user) external view returns (uint256) {... */\n    tag_27:\n      tag_79\n      tag_144\n      calldatasize\n      0x04\n      tag_57\n      jump\t// in\n    tag_144:\n      sub(shl(0xa0, 0x01), 0x01)\n        /* \"contracts/roy.sol\":16456:16467  users[user] */\n      and\n        /* \"contracts/roy.sol\":16430:16437  uint256 */\n      0x00\n        /* \"contracts/roy.sol\":16456:16467  users[user] */\n      swap1\n      dup2\n      mstore\n        /* \"contracts/roy.sol\":16456:16461  users */\n      0x03\n        /* \"contracts/roy.sol\":16456:16467  users[user] */\n      0x20\n      mstore\n      0x40\n      swap1\n      keccak256\n        /* \"contracts/roy.sol\":16456:16479  users[user].totalIncome */\n      0x02\n      add\n      sload\n      swap1\n        /* \"contracts/roy.sol\":16369:16486  function getTotalIncome(address user) external view returns (uint256) {... */\n      jump\n        /* \"contracts/roy.sol\":19116:19227  function isRegistered(address user) external view returns (bool) {... */\n    tag_28:\n      tag_147\n      tag_148\n      calldatasize\n      0x04\n      tag_57\n      jump\t// in\n    tag_148:\n      sub(shl(0xa0, 0x01), 0x01)\n        /* \"contracts/roy.sol\":19198:19209  users[user] */\n      and\n        /* \"contracts/roy.sol\":19175:19179  bool */\n      0x00\n        /* \"contracts/roy.sol\":19198:19209  users[user] */\n      swap1\n      dup2\n      mstore\n        /* \"contracts/roy.sol\":19198:19203  users */\n      0x03\n        /* \"contracts/roy.sol\":19198:19209  users[user] */\n      0x20\n      mstore\n      0x40\n      swap1\n      keccak256\n        /* \"contracts/roy.sol\":19198:19220  users[user].registered */\n      0x04\n      add\n      sload\n      0xff\n      and\n      swap1\n        /* \"contracts/roy.sol\":19116:19227  function isRegistered(address user) external view returns (bool) {... */\n      jump\n    tag_147:\n      mload(0x40)\n        /* \"#utility.yul\":6769:6783   */\n      swap1\n      iszero\n        /* \"#utility.yul\":6762:6784   */\n      iszero\n        /* \"#utility.yul\":6744:6785   */\n      dup2\n      mstore\n        /* \"#utility.yul\":6732:6734   */\n      0x20\n        /* \"#utility.yul\":6717:6735   */\n      add\n        /* \"contracts/roy.sol\":19116:19227  function isRegistered(address user) external view returns (bool) {... */\n      tag_47\n        /* \"#utility.yul\":6604:6791   */\n      jump\n        /* \"contracts/roy.sol\":7347:7520  function getUpline(address user) external view returns (address) {... */\n    tag_30:\n      tag_49\n      tag_157\n      calldatasize\n      0x04\n      tag_57\n      jump\t// in\n    tag_157:\n      tag_158\n      jump\t// in\n        /* \"contracts/roy.sol\":19335:19648  function ownerTransfer(address to, uint256 amount) external onlyOwner {... */\n    tag_31:\n      tag_66\n      tag_161\n      calldatasize\n      0x04\n      tag_45\n      jump\t// in\n    tag_161:\n      tag_162\n      jump\t// in\n        /* \"contracts/roy.sol\":1849:1895  uint8[5] public levelRewards = [5, 3, 2, 1, 1] */\n    tag_32:\n      tag_55\n      tag_164\n      calldatasize\n      0x04\n      tag_51\n      jump\t// in\n    tag_164:\n      tag_165\n      jump\t// in\n        /* \"contracts/roy.sol\":16874:18942  function getLevelIncomeDistribution(address _user)... */\n    tag_33:\n      tag_167\n      tag_168\n      calldatasize\n      0x04\n      tag_57\n      jump\t// in\n    tag_168:\n      tag_169\n      jump\t// in\n    tag_167:\n      mload(0x40)\n      tag_47\n      swap2\n      swap1\n      tag_171\n      jump\t// in\n        /* \"contracts/roy.sol\":1756:1811  mapping(address => uint256) public directReferralIncome */\n    tag_34:\n      tag_79\n      tag_173\n      calldatasize\n      0x04\n      tag_57\n      jump\t// in\n    tag_173:\n      mstore(0x20, 0x07)\n      0x00\n      swap1\n      dup2\n      mstore\n      0x40\n      swap1\n      keccak256\n      sload\n      dup2\n      jump\n        /* \"contracts/roy.sol\":455:482  uint256 public stakeCounter */\n    tag_35:\n      tag_79\n      sload(0x01)\n      dup2\n      jump\n        /* \"contracts/roy.sol\":1585:1642  mapping(address => ReferralInfo[]) public directReferrals */\n    tag_46:\n      mstore(0x20, 0x04)\n      dup2\n      0x00\n      mstore\n      keccak256(0x00, 0x40)\n      dup2\n      dup2\n      sload\n      dup2\n      lt\n      tag_179\n      jumpi\n      0x00\n      dup1\n      revert\n    tag_179:\n      0x00\n      swap2\n      dup3\n      mstore\n      0x20\n      swap1\n      swap2\n      keccak256\n      0x03\n      swap1\n      swap2\n      mul\n      add\n      dup1\n      sload\n      0x01\n      dup3\n      add\n      sload\n      0x02\n      swap1\n      swap3\n      add\n      sload\n      sub(shl(0xa0, 0x01), 0x01)\n      swap1\n      swap2\n      and\n      swap4\n      pop\n      swap1\n      swap2\n      pop\n      dup4\n      jump\t// out\n        /* \"contracts/roy.sol\":16620:16868  function getUserLevel(address user) external view returns (uint8) {... */\n    tag_58:\n      sub(shl(0xa0, 0x01), 0x01)\n        /* \"contracts/roy.sol\":16712:16733  directReferrals[user] */\n      dup2\n      and\n        /* \"contracts/roy.sol\":16679:16684  uint8 */\n      0x00\n        /* \"contracts/roy.sol\":16712:16733  directReferrals[user] */\n      swap1\n      dup2\n      mstore\n        /* \"contracts/roy.sol\":16712:16727  directReferrals */\n      0x04\n        /* \"contracts/roy.sol\":16712:16733  directReferrals[user] */\n      0x20\n      mstore\n      0x40\n      dup2\n      keccak256\n        /* \"contracts/roy.sol\":16712:16740  directReferrals[user].length */\n      sload\n        /* \"contracts/roy.sol\":16763:16765  10 */\n      0x0a\n        /* \"contracts/roy.sol\":16754:16765  count >= 10 */\n      dup2\n      lt\n        /* \"contracts/roy.sol\":16750:16775  if (count >= 10) return 3 */\n      tag_182\n      jumpi\n      pop\n        /* \"contracts/roy.sol\":16774:16775  3 */\n      0x03\n      swap3\n        /* \"contracts/roy.sol\":16620:16868  function getUserLevel(address user) external view returns (uint8) {... */\n      swap2\n      pop\n      pop\n      jump\t// out\n        /* \"contracts/roy.sol\":16750:16775  if (count >= 10) return 3 */\n    tag_182:\n        /* \"contracts/roy.sol\":16798:16799  5 */\n      0x05\n        /* \"contracts/roy.sol\":16789:16794  count */\n      dup2\n        /* \"contracts/roy.sol\":16789:16799  count >= 5 */\n      lt\n        /* \"contracts/roy.sol\":16785:16809  if (count >= 5) return 2 */\n      tag_183\n      jumpi\n      pop\n        /* \"contracts/roy.sol\":16808:16809  2 */\n      0x02\n      swap3\n        /* \"contracts/roy.sol\":16620:16868  function getUserLevel(address user) external view returns (uint8) {... */\n      swap2\n      pop\n      pop\n      jump\t// out\n        /* \"contracts/roy.sol\":16785:16809  if (count >= 5) return 2 */\n    tag_183:\n        /* \"contracts/roy.sol\":16832:16833  1 */\n      0x01\n        /* \"contracts/roy.sol\":16823:16828  count */\n      dup2\n        /* \"contracts/roy.sol\":16823:16833  count >= 1 */\n      lt\n        /* \"contracts/roy.sol\":16819:16843  if (count >= 1) return 1 */\n      tag_184\n      jumpi\n      pop\n        /* \"contracts/roy.sol\":16842:16843  1 */\n      0x01\n      swap3\n        /* \"contracts/roy.sol\":16620:16868  function getUserLevel(address user) external view returns (uint8) {... */\n      swap2\n      pop\n      pop\n      jump\t// out\n        /* \"contracts/roy.sol\":16819:16843  if (count >= 1) return 1 */\n    tag_184:\n      pop\n        /* \"contracts/roy.sol\":16860:16861  0 */\n      0x00\n      swap3\n        /* \"contracts/roy.sol\":16620:16868  function getUserLevel(address user) external view returns (uint8) {... */\n      swap2\n      pop\n      pop\n      jump\t// out\n        /* \"contracts/roy.sol\":13931:14285  function getPositionIds(address _user)... */\n    tag_63:\n      sub(shl(0xa0, 0x01), 0x01)\n        /* \"contracts/roy.sol\":14065:14077  users[_user] */\n      dup2\n      and\n        /* \"contracts/roy.sol\":14049:14062  uint256 count */\n      0x00\n        /* \"contracts/roy.sol\":14065:14077  users[_user] */\n      swap1\n      dup2\n      mstore\n        /* \"contracts/roy.sol\":14065:14070  users */\n      0x03\n        /* \"contracts/roy.sol\":14065:14077  users[_user] */\n      0x20\n      mstore\n      0x40\n      dup2\n      keccak256\n        /* \"contracts/roy.sol\":14065:14084  users[_user].stakes */\n      0x01\n      add\n        /* \"contracts/roy.sol\":14065:14091  users[_user].stakes.length */\n      sload\n        /* \"contracts/roy.sol\":14017:14033  uint256[] memory */\n      0x60\n      swap2\n        /* \"contracts/roy.sol\":14065:14091  users[_user].stakes.length */\n      dup2\n        /* \"contracts/roy.sol\":14124:14144  new uint256[](count) */\n      0xffffffffffffffff\n      dup2\n      gt\n      iszero\n      tag_187\n      jumpi\n      tag_187\n      tag_188\n      jump\t// in\n    tag_187:\n      mload(0x40)\n      swap1\n      dup1\n      dup3\n      mstore\n      dup1\n      0x20\n      mul\n      0x20\n      add\n      dup3\n      add\n      0x40\n      mstore\n      dup1\n      iszero\n      tag_189\n      jumpi\n      dup2\n      0x20\n      add\n      0x20\n      dup3\n      mul\n      dup1\n      calldatasize\n      dup4\n      calldatacopy\n      add\n      swap1\n      pop\n    tag_189:\n      pop\n        /* \"contracts/roy.sol\":14101:14144  uint256[] memory ids = new uint256[](count) */\n      swap1\n      pop\n        /* \"contracts/roy.sol\":14160:14169  uint256 i */\n      0x00\n        /* \"contracts/roy.sol\":14155:14258  for (uint256 i = 0; i < count; i++) {... */\n    tag_190:\n        /* \"contracts/roy.sol\":14179:14184  count */\n      dup3\n        /* \"contracts/roy.sol\":14175:14176  i */\n      dup2\n        /* \"contracts/roy.sol\":14175:14184  i < count */\n      lt\n        /* \"contracts/roy.sol\":14155:14258  for (uint256 i = 0; i < count; i++) {... */\n      iszero\n      tag_191\n      jumpi\n      sub(shl(0xa0, 0x01), 0x01)\n        /* \"contracts/roy.sol\":14214:14226  users[_user] */\n      dup6\n      and\n      0x00\n      swap1\n      dup2\n      mstore\n        /* \"contracts/roy.sol\":14214:14219  users */\n      0x03\n        /* \"contracts/roy.sol\":14214:14226  users[_user] */\n      0x20\n      mstore\n      0x40\n      swap1\n      keccak256\n        /* \"contracts/roy.sol\":14214:14233  users[_user].stakes */\n      0x01\n      add\n        /* \"contracts/roy.sol\":14214:14236  users[_user].stakes[i] */\n      dup1\n      sload\n        /* \"contracts/roy.sol\":14234:14235  i */\n      dup3\n      swap1\n        /* \"contracts/roy.sol\":14214:14236  users[_user].stakes[i] */\n      dup2\n      lt\n      tag_194\n      jumpi\n      tag_194\n      tag_195\n      jump\t// in\n    tag_194:\n      swap1\n      0x00\n      mstore\n      keccak256(0x00, 0x20)\n      swap1\n      0x06\n      mul\n      add\n        /* \"contracts/roy.sol\":14214:14247  users[_user].stakes[i].positionId */\n      0x01\n      add\n      sload\n        /* \"contracts/roy.sol\":14205:14208  ids */\n      dup3\n        /* \"contracts/roy.sol\":14209:14210  i */\n      dup3\n        /* \"contracts/roy.sol\":14205:14211  ids[i] */\n      dup2\n      mload\n      dup2\n      lt\n      tag_198\n      jumpi\n      tag_198\n      tag_195\n      jump\t// in\n    tag_198:\n      0x20\n      swap1\n      dup2\n      mul\n      swap2\n      swap1\n      swap2\n      add\n      add\n        /* \"contracts/roy.sol\":14205:14247  ids[i] = users[_user].stakes[i].positionId */\n      mstore\n        /* \"contracts/roy.sol\":14186:14189  i++ */\n      0x01\n      add\n        /* \"contracts/roy.sol\":14155:14258  for (uint256 i = 0; i < count; i++) {... */\n      jump(tag_190)\n    tag_191:\n      pop\n        /* \"contracts/roy.sol\":14275:14278  ids */\n      swap4\n        /* \"contracts/roy.sol\":13931:14285  function getPositionIds(address _user)... */\n      swap3\n      pop\n      pop\n      pop\n      jump\t// out\n        /* \"contracts/roy.sol\":8631:10878  function claim(uint256 _positionId) external onlyRegistered {... */\n    tag_68:\n        /* \"contracts/roy.sol\":2083:2093  msg.sender */\n      caller\n        /* \"contracts/roy.sol\":2077:2094  users[msg.sender] */\n      0x00\n      swap1\n      dup2\n      mstore\n        /* \"contracts/roy.sol\":2077:2082  users */\n      0x03\n        /* \"contracts/roy.sol\":2077:2094  users[msg.sender] */\n      0x20\n      mstore\n      0x40\n      swap1\n      keccak256\n        /* \"contracts/roy.sol\":2077:2105  users[msg.sender].registered */\n      0x04\n      add\n      sload\n      0xff\n      and\n        /* \"contracts/roy.sol\":2069:2124  require(users[msg.sender].registered, \"Not registered\") */\n      tag_200\n      jumpi\n      mload(0x40)\n      shl(0xe5, 0x461bcd)\n      dup2\n      mstore\n      0x04\n      add\n      tag_201\n      swap1\n      tag_202\n      jump\t// in\n    tag_201:\n      mload(0x40)\n      dup1\n      swap2\n      sub\n      swap1\n      revert\n    tag_200:\n        /* \"contracts/roy.sol\":8723:8733  msg.sender */\n      caller\n        /* \"contracts/roy.sol\":8701:8720  address userAddress */\n      0x00\n        /* \"contracts/roy.sol\":8763:8781  users[userAddress] */\n      dup2\n      dup2\n      mstore\n        /* \"contracts/roy.sol\":8763:8768  users */\n      0x03\n        /* \"contracts/roy.sol\":8763:8781  users[userAddress] */\n      0x20\n      mstore\n      0x40\n      dup2\n      keccak256\n      swap1\n        /* \"contracts/roy.sol\":8816:8827  user.stakes */\n      0x01\n      dup3\n      add\n      swap1\n        /* \"contracts/roy.sol\":8701:8720  address userAddress */\n      dup1\n        /* \"contracts/roy.sol\":8867:10809  for (uint256 i = 0; i < stakes.length; i++) {... */\n    tag_204:\n        /* \"contracts/roy.sol\":8891:8904  stakes.length */\n      dup3\n      sload\n        /* \"contracts/roy.sol\":8887:8904  i < stakes.length */\n      dup2\n      lt\n        /* \"contracts/roy.sol\":8867:10809  for (uint256 i = 0; i < stakes.length; i++) {... */\n      iszero\n      tag_205\n      jumpi\n        /* \"contracts/roy.sol\":8953:8964  _positionId */\n      dup6\n        /* \"contracts/roy.sol\":8929:8935  stakes */\n      dup4\n        /* \"contracts/roy.sol\":8936:8937  i */\n      dup3\n        /* \"contracts/roy.sol\":8929:8938  stakes[i] */\n      dup2\n      sload\n      dup2\n      lt\n      tag_208\n      jumpi\n      tag_208\n      tag_195\n      jump\t// in\n    tag_208:\n      swap1\n      0x00\n      mstore\n      keccak256(0x00, 0x20)\n      swap1\n      0x06\n      mul\n      add\n        /* \"contracts/roy.sol\":8929:8949  stakes[i].positionId */\n      0x01\n      add\n      sload\n        /* \"contracts/roy.sol\":8929:8964  stakes[i].positionId == _positionId */\n      eq\n        /* \"contracts/roy.sol\":8929:8986  stakes[i].positionId == _positionId && !stakes[i].claimed */\n      dup1\n      iszero\n      tag_210\n      jumpi\n      pop\n        /* \"contracts/roy.sol\":8969:8975  stakes */\n      dup3\n        /* \"contracts/roy.sol\":8976:8977  i */\n      dup2\n        /* \"contracts/roy.sol\":8969:8978  stakes[i] */\n      dup2\n      sload\n      dup2\n      lt\n      tag_212\n      jumpi\n      tag_212\n      tag_195\n      jump\t// in\n    tag_212:\n      0x00\n      swap2\n      dup3\n      mstore\n      0x20\n      swap1\n      swap2\n      keccak256\n        /* \"contracts/roy.sol\":8969:8986  stakes[i].claimed */\n      0x05\n        /* \"contracts/roy.sol\":8969:8978  stakes[i] */\n      0x06\n      swap1\n      swap3\n      mul\n      add\n        /* \"contracts/roy.sol\":8969:8986  stakes[i].claimed */\n      add\n      sload\n      0xff\n      and\n        /* \"contracts/roy.sol\":8968:8986  !stakes[i].claimed */\n      iszero\n        /* \"contracts/roy.sol\":8929:8986  stakes[i].positionId == _positionId && !stakes[i].claimed */\n    tag_210:\n        /* \"contracts/roy.sol\":8925:10799  if (stakes[i].positionId == _positionId && !stakes[i].claimed) {... */\n      iszero\n      tag_214\n      jumpi\n        /* \"contracts/roy.sol\":9101:9107  stakes */\n      dup3\n        /* \"contracts/roy.sol\":9108:9109  i */\n      dup2\n        /* \"contracts/roy.sol\":9101:9110  stakes[i] */\n      dup2\n      sload\n      dup2\n      lt\n      tag_216\n      jumpi\n      tag_216\n      tag_195\n      jump\t// in\n    tag_216:\n      swap1\n      0x00\n      mstore\n      keccak256(0x00, 0x20)\n      swap1\n      0x06\n      mul\n      add\n        /* \"contracts/roy.sol\":9101:9118  stakes[i].numDays */\n      0x04\n      add\n      sload\n        /* \"contracts/roy.sol\":9121:9127  1 days */\n      0x015180\n        /* \"contracts/roy.sol\":9101:9127  stakes[i].numDays * 1 days */\n      tag_218\n      swap2\n      swap1\n      tag_219\n      jump\t// in\n    tag_218:\n        /* \"contracts/roy.sol\":9078:9084  stakes */\n      dup4\n        /* \"contracts/roy.sol\":9085:9086  i */\n      dup3\n        /* \"contracts/roy.sol\":9078:9087  stakes[i] */\n      dup2\n      sload\n      dup2\n      lt\n      tag_221\n      jumpi\n      tag_221\n      tag_195\n      jump\t// in\n    tag_221:\n      swap1\n      0x00\n      mstore\n      keccak256(0x00, 0x20)\n      swap1\n      0x06\n      mul\n      add\n        /* \"contracts/roy.sol\":9078:9097  stakes[i].timestamp */\n      0x03\n      add\n      sload\n        /* \"contracts/roy.sol\":9078:9128  stakes[i].timestamp + (stakes[i].numDays * 1 days) */\n      tag_223\n      swap2\n      swap1\n      tag_224\n      jump\t// in\n    tag_223:\n        /* \"contracts/roy.sol\":9035:9050  block.timestamp */\n      timestamp\n        /* \"contracts/roy.sol\":9035:9128  block.timestamp >=... */\n      lt\n      iszero\n        /* \"contracts/roy.sol\":9006:9202  require(... */\n      tag_225\n      jumpi\n      mload(0x40)\n      shl(0xe5, 0x461bcd)\n      dup2\n      mstore\n        /* \"#utility.yul\":9019:9021   */\n      0x20\n        /* \"contracts/roy.sol\":9006:9202  require(... */\n      0x04\n      dup3\n      add\n        /* \"#utility.yul\":9001:9022   */\n      dup2\n      swap1\n      mstore\n        /* \"#utility.yul\":9038:9056   */\n      0x24\n      dup3\n      add\n        /* \"#utility.yul\":9031:9061   */\n      mstore\n        /* \"#utility.yul\":9097:9131   */\n      0x5374616b696e6720706572696f64206e6f742079657420636f6d706c65746564\n        /* \"#utility.yul\":9077:9095   */\n      0x44\n      dup3\n      add\n        /* \"#utility.yul\":9070:9132   */\n      mstore\n        /* \"#utility.yul\":9149:9167   */\n      0x64\n      add\n        /* \"contracts/roy.sol\":9006:9202  require(... */\n      tag_201\n        /* \"#utility.yul\":8817:9173   */\n      jump\n        /* \"contracts/roy.sol\":9006:9202  require(... */\n    tag_225:\n        /* \"contracts/roy.sol\":9221:9232  uint256 apy */\n      0x00\n        /* \"contracts/roy.sol\":9235:9245  stakingAPY */\n      0x06\n        /* \"contracts/roy.sol\":9235:9264  stakingAPY[stakes[i].numDays] */\n      0x00\n        /* \"contracts/roy.sol\":9246:9252  stakes */\n      dup6\n        /* \"contracts/roy.sol\":9253:9254  i */\n      dup5\n        /* \"contracts/roy.sol\":9246:9255  stakes[i] */\n      dup2\n      sload\n      dup2\n      lt\n      tag_229\n      jumpi\n      tag_229\n      tag_195\n      jump\t// in\n    tag_229:\n      swap1\n      0x00\n      mstore\n      keccak256(0x00, 0x20)\n      swap1\n      0x06\n      mul\n      add\n        /* \"contracts/roy.sol\":9246:9263  stakes[i].numDays */\n      0x04\n      add\n      sload\n        /* \"contracts/roy.sol\":9235:9264  stakingAPY[stakes[i].numDays] */\n      dup2\n      mstore\n      0x20\n      add\n      swap1\n      dup2\n      mstore\n      0x20\n      add\n      0x00\n      keccak256\n      sload\n        /* \"contracts/roy.sol\":9221:9264  uint256 apy = stakingAPY[stakes[i].numDays] */\n      swap1\n      pop\n        /* \"contracts/roy.sol\":9282:9301  uint256 denominator */\n      0x00\n        /* \"contracts/roy.sol\":9324:9330  stakes */\n      dup5\n        /* \"contracts/roy.sol\":9331:9332  i */\n      dup4\n        /* \"contracts/roy.sol\":9324:9333  stakes[i] */\n      dup2\n      sload\n      dup2\n      lt\n      tag_232\n      jumpi\n      tag_232\n      tag_195\n      jump\t// in\n    tag_232:\n      swap1\n      0x00\n      mstore\n      keccak256(0x00, 0x20)\n      swap1\n      0x06\n      mul\n      add\n        /* \"contracts/roy.sol\":9324:9341  stakes[i].numDays */\n      0x04\n      add\n      sload\n        /* \"contracts/roy.sol\":9345:9347  30 */\n      0x1e\n        /* \"contracts/roy.sol\":9324:9347  stakes[i].numDays == 30 */\n      sub\n        /* \"contracts/roy.sol\":9320:9993  if (stakes[i].numDays == 30) {... */\n      tag_234\n      jumpi\n      pop\n        /* \"contracts/roy.sol\":9385:9393  100 * 30 */\n      0x0bb8\n        /* \"contracts/roy.sol\":9320:9993  if (stakes[i].numDays == 30) {... */\n      jump(tag_260)\n    tag_234:\n        /* \"contracts/roy.sol\":9422:9428  stakes */\n      dup5\n        /* \"contracts/roy.sol\":9429:9430  i */\n      dup4\n        /* \"contracts/roy.sol\":9422:9431  stakes[i] */\n      dup2\n      sload\n      dup2\n      lt\n      tag_237\n      jumpi\n      tag_237\n      tag_195\n      jump\t// in\n    tag_237:\n      swap1\n      0x00\n      mstore\n      keccak256(0x00, 0x20)\n      swap1\n      0x06\n      mul\n      add\n        /* \"contracts/roy.sol\":9422:9439  stakes[i].numDays */\n      0x04\n      add\n      sload\n        /* \"contracts/roy.sol\":9443:9445  60 */\n      0x3c\n        /* \"contracts/roy.sol\":9422:9445  stakes[i].numDays == 60 */\n      sub\n        /* \"contracts/roy.sol\":9418:9993  if (stakes[i].numDays == 60) {... */\n      tag_239\n      jumpi\n      pop\n        /* \"contracts/roy.sol\":9483:9491  100 * 60 */\n      0x1770\n        /* \"contracts/roy.sol\":9418:9993  if (stakes[i].numDays == 60) {... */\n      jump(tag_260)\n    tag_239:\n        /* \"contracts/roy.sol\":9520:9526  stakes */\n      dup5\n        /* \"contracts/roy.sol\":9527:9528  i */\n      dup4\n        /* \"contracts/roy.sol\":9520:9529  stakes[i] */\n      dup2\n      sload\n      dup2\n      lt\n      tag_242\n      jumpi\n      tag_242\n      tag_195\n      jump\t// in\n    tag_242:\n      swap1\n      0x00\n      mstore\n      keccak256(0x00, 0x20)\n      swap1\n      0x06\n      mul\n      add\n        /* \"contracts/roy.sol\":9520:9537  stakes[i].numDays */\n      0x04\n      add\n      sload\n        /* \"contracts/roy.sol\":9541:9543  90 */\n      0x5a\n        /* \"contracts/roy.sol\":9520:9543  stakes[i].numDays == 90 */\n      sub\n        /* \"contracts/roy.sol\":9516:9993  if (stakes[i].numDays == 90) {... */\n      tag_244\n      jumpi\n      pop\n        /* \"contracts/roy.sol\":9581:9589  100 * 90 */\n      0x2328\n        /* \"contracts/roy.sol\":9516:9993  if (stakes[i].numDays == 90) {... */\n      jump(tag_260)\n    tag_244:\n        /* \"contracts/roy.sol\":9618:9624  stakes */\n      dup5\n        /* \"contracts/roy.sol\":9625:9626  i */\n      dup4\n        /* \"contracts/roy.sol\":9618:9627  stakes[i] */\n      dup2\n      sload\n      dup2\n      lt\n      tag_247\n      jumpi\n      tag_247\n      tag_195\n      jump\t// in\n    tag_247:\n      swap1\n      0x00\n      mstore\n      keccak256(0x00, 0x20)\n      swap1\n      0x06\n      mul\n      add\n        /* \"contracts/roy.sol\":9618:9635  stakes[i].numDays */\n      0x04\n      add\n      sload\n        /* \"contracts/roy.sol\":9639:9642  120 */\n      0x78\n        /* \"contracts/roy.sol\":9618:9642  stakes[i].numDays == 120 */\n      sub\n        /* \"contracts/roy.sol\":9614:9993  if (stakes[i].numDays == 120) {... */\n      tag_249\n      jumpi\n      pop\n        /* \"contracts/roy.sol\":9680:9689  100 * 120 */\n      0x2ee0\n        /* \"contracts/roy.sol\":9614:9993  if (stakes[i].numDays == 120) {... */\n      jump(tag_260)\n    tag_249:\n        /* \"contracts/roy.sol\":9718:9724  stakes */\n      dup5\n        /* \"contracts/roy.sol\":9725:9726  i */\n      dup4\n        /* \"contracts/roy.sol\":9718:9727  stakes[i] */\n      dup2\n      sload\n      dup2\n      lt\n      tag_252\n      jumpi\n      tag_252\n      tag_195\n      jump\t// in\n    tag_252:\n      swap1\n      0x00\n      mstore\n      keccak256(0x00, 0x20)\n      swap1\n      0x06\n      mul\n      add\n        /* \"contracts/roy.sol\":9718:9735  stakes[i].numDays */\n      0x04\n      add\n      sload\n        /* \"contracts/roy.sol\":9739:9742  180 */\n      0xb4\n        /* \"contracts/roy.sol\":9718:9742  stakes[i].numDays == 180 */\n      sub\n        /* \"contracts/roy.sol\":9714:9993  if (stakes[i].numDays == 180) {... */\n      tag_254\n      jumpi\n      pop\n        /* \"contracts/roy.sol\":9780:9789  100 * 180 */\n      0x4650\n        /* \"contracts/roy.sol\":9714:9993  if (stakes[i].numDays == 180) {... */\n      jump(tag_260)\n    tag_254:\n        /* \"contracts/roy.sol\":9818:9824  stakes */\n      dup5\n        /* \"contracts/roy.sol\":9825:9826  i */\n      dup4\n        /* \"contracts/roy.sol\":9818:9827  stakes[i] */\n      dup2\n      sload\n      dup2\n      lt\n      tag_257\n      jumpi\n      tag_257\n      tag_195\n      jump\t// in\n    tag_257:\n      swap1\n      0x00\n      mstore\n      keccak256(0x00, 0x20)\n      swap1\n      0x06\n      mul\n      add\n        /* \"contracts/roy.sol\":9818:9835  stakes[i].numDays */\n      0x04\n      add\n      sload\n        /* \"contracts/roy.sol\":9839:9842  365 */\n      0x016d\n        /* \"contracts/roy.sol\":9818:9842  stakes[i].numDays == 365 */\n      sub\n        /* \"contracts/roy.sol\":9814:9993  if (stakes[i].numDays == 365) {... */\n      tag_259\n      jumpi\n      pop\n        /* \"contracts/roy.sol\":9880:9889  100 * 365 */\n      0x8e94\n        /* \"contracts/roy.sol\":9814:9993  if (stakes[i].numDays == 365) {... */\n      jump(tag_260)\n    tag_259:\n        /* \"contracts/roy.sol\":9936:9974  revert(\"Unsupported staking duration\") */\n      mload(0x40)\n      shl(0xe5, 0x461bcd)\n      dup2\n      mstore\n        /* \"#utility.yul\":9380:9382   */\n      0x20\n        /* \"contracts/roy.sol\":9936:9974  revert(\"Unsupported staking duration\") */\n      0x04\n      dup3\n      add\n        /* \"#utility.yul\":9362:9383   */\n      mstore\n        /* \"#utility.yul\":9419:9421   */\n      0x1c\n        /* \"#utility.yul\":9399:9417   */\n      0x24\n      dup3\n      add\n        /* \"#utility.yul\":9392:9422   */\n      mstore\n        /* \"#utility.yul\":9458:9488   */\n      0x556e737570706f72746564207374616b696e67206475726174696f6e00000000\n        /* \"#utility.yul\":9438:9456   */\n      0x44\n      dup3\n      add\n        /* \"#utility.yul\":9431:9489   */\n      mstore\n        /* \"#utility.yul\":9506:9524   */\n      0x64\n      add\n        /* \"contracts/roy.sol\":9936:9974  revert(\"Unsupported staking duration\") */\n      tag_201\n        /* \"#utility.yul\":9178:9530   */\n      jump\n        /* \"contracts/roy.sol\":9814:9993  if (stakes[i].numDays == 365) {... */\n    tag_260:\n        /* \"contracts/roy.sol\":10011:10027  uint256 interest */\n      0x00\n        /* \"contracts/roy.sol\":10117:10128  denominator */\n      dup2\n        /* \"contracts/roy.sol\":10096:10102  stakes */\n      dup7\n        /* \"contracts/roy.sol\":10103:10104  i */\n      dup6\n        /* \"contracts/roy.sol\":10096:10105  stakes[i] */\n      dup2\n      sload\n      dup2\n      lt\n      tag_264\n      jumpi\n      tag_264\n      tag_195\n      jump\t// in\n    tag_264:\n      swap1\n      0x00\n      mstore\n      keccak256(0x00, 0x20)\n      swap1\n      0x06\n      mul\n      add\n        /* \"contracts/roy.sol\":10096:10113  stakes[i].numDays */\n      0x04\n      add\n      sload\n        /* \"contracts/roy.sol\":10070:10073  apy */\n      dup5\n        /* \"contracts/roy.sol\":10031:10037  stakes */\n      dup9\n        /* \"contracts/roy.sol\":10038:10039  i */\n      dup8\n        /* \"contracts/roy.sol\":10031:10040  stakes[i] */\n      dup2\n      sload\n      dup2\n      lt\n      tag_267\n      jumpi\n      tag_267\n      tag_195\n      jump\t// in\n    tag_267:\n      swap1\n      0x00\n      mstore\n      keccak256(0x00, 0x20)\n      swap1\n      0x06\n      mul\n      add\n        /* \"contracts/roy.sol\":10031:10047  stakes[i].amount */\n      0x02\n      add\n      sload\n        /* \"contracts/roy.sol\":10031:10073  stakes[i].amount *... */\n      tag_269\n      swap2\n      swap1\n      tag_219\n      jump\t// in\n    tag_269:\n        /* \"contracts/roy.sol\":10031:10113  stakes[i].amount *... */\n      tag_270\n      swap2\n      swap1\n      tag_219\n      jump\t// in\n    tag_270:\n        /* \"contracts/roy.sol\":10030:10128  (stakes[i].amount *... */\n      tag_271\n      swap2\n      swap1\n      tag_272\n      jump\t// in\n    tag_271:\n        /* \"contracts/roy.sol\":10011:10128  uint256 interest = (stakes[i].amount *... */\n      swap1\n      pop\n        /* \"contracts/roy.sol\":10146:10165  uint256 totalAmount */\n      0x00\n        /* \"contracts/roy.sol\":10187:10195  interest */\n      dup2\n        /* \"contracts/roy.sol\":10168:10174  stakes */\n      dup8\n        /* \"contracts/roy.sol\":10175:10176  i */\n      dup7\n        /* \"contracts/roy.sol\":10168:10177  stakes[i] */\n      dup2\n      sload\n      dup2\n      lt\n      tag_274\n      jumpi\n      tag_274\n      tag_195\n      jump\t// in\n    tag_274:\n      swap1\n      0x00\n      mstore\n      keccak256(0x00, 0x20)\n      swap1\n      0x06\n      mul\n      add\n        /* \"contracts/roy.sol\":10168:10184  stakes[i].amount */\n      0x02\n      add\n      sload\n        /* \"contracts/roy.sol\":10168:10195  stakes[i].amount + interest */\n      tag_276\n      swap2\n      swap1\n      tag_224\n      jump\t// in\n    tag_276:\n        /* \"contracts/roy.sol\":10243:10252  usdtToken */\n      sload(0x02)\n        /* \"contracts/roy.sol\":10243:10277  usdtToken.balanceOf(address(this)) */\n      mload(0x40)\n      shl(0xe0, 0x70a08231)\n      dup2\n      mstore\n        /* \"contracts/roy.sol\":10271:10275  this */\n      address\n        /* \"contracts/roy.sol\":10243:10277  usdtToken.balanceOf(address(this)) */\n      0x04\n      dup3\n      add\n        /* \"#utility.yul\":1224:1275   */\n      mstore\n        /* \"contracts/roy.sol\":10146:10195  uint256 totalAmount = stakes[i].amount + interest */\n      swap2\n      swap3\n      pop\n      dup3\n      swap2\n      sub(shl(0xa0, 0x01), 0x01)\n        /* \"contracts/roy.sol\":10243:10252  usdtToken */\n      swap1\n      swap2\n      and\n      swap1\n        /* \"contracts/roy.sol\":10243:10262  usdtToken.balanceOf */\n      0x70a08231\n      swap1\n        /* \"#utility.yul\":1197:1215   */\n      0x24\n      add\n        /* \"contracts/roy.sol\":10243:10277  usdtToken.balanceOf(address(this)) */\n      0x20\n      mload(0x40)\n      dup1\n      dup4\n      sub\n      dup2\n      dup7\n      gas\n      staticcall\n      iszero\n      dup1\n      iszero\n      tag_279\n      jumpi\n      returndatacopy(0x00, 0x00, returndatasize)\n      revert(0x00, returndatasize)\n    tag_279:\n      pop\n      pop\n      pop\n      pop\n      mload(0x40)\n      returndatasize\n      not(0x1f)\n      0x1f\n      dup3\n      add\n      and\n      dup3\n      add\n      dup1\n      0x40\n      mstore\n      pop\n      dup2\n      add\n      swap1\n      tag_280\n      swap2\n      swap1\n      tag_281\n      jump\t// in\n    tag_280:\n        /* \"contracts/roy.sol\":10243:10292  usdtToken.balanceOf(address(this)) >= totalAmount */\n      lt\n      iszero\n        /* \"contracts/roy.sol\":10214:10363  require(... */\n      tag_282\n      jumpi\n      mload(0x40)\n      shl(0xe5, 0x461bcd)\n      dup2\n      mstore\n      0x04\n      add\n      tag_201\n      swap1\n      tag_284\n      jump\t// in\n    tag_282:\n        /* \"contracts/roy.sol\":10402:10406  true */\n      0x01\n        /* \"contracts/roy.sol\":10382:10388  stakes */\n      dup8\n        /* \"contracts/roy.sol\":10389:10390  i */\n      dup7\n        /* \"contracts/roy.sol\":10382:10391  stakes[i] */\n      dup2\n      sload\n      dup2\n      lt\n      tag_286\n      jumpi\n      tag_286\n      tag_195\n      jump\t// in\n    tag_286:\n      0x00\n      swap2\n      dup3\n      mstore\n      0x20\n      dup3\n      keccak256\n      0x06\n      swap2\n      swap1\n      swap2\n      mul\n      add\n        /* \"contracts/roy.sol\":10382:10399  stakes[i].claimed */\n      0x05\n      add\n        /* \"contracts/roy.sol\":10382:10406  stakes[i].claimed = true */\n      dup1\n      sload\n      not(0xff)\n      and\n      swap3\n      iszero\n      iszero\n      swap3\n      swap1\n      swap3\n      or\n      swap1\n      swap2\n      sstore\n        /* \"contracts/roy.sol\":10439:10448  usdtToken */\n      sload(0x02)\n        /* \"contracts/roy.sol\":10439:10483  usdtToken.transfer(userAddress, totalAmount) */\n      mload(0x40)\n      shl(0xe0, 0xa9059cbb)\n      dup2\n      mstore\n      sub(shl(0xa0, 0x01), 0x01)\n        /* \"#utility.yul\":10496:10528   */\n      dup13\n      dup2\n      and\n        /* \"contracts/roy.sol\":10439:10483  usdtToken.transfer(userAddress, totalAmount) */\n      0x04\n      dup4\n      add\n        /* \"#utility.yul\":10478:10529   */\n      mstore\n        /* \"#utility.yul\":10545:10563   */\n      0x24\n      dup3\n      add\n        /* \"#utility.yul\":10538:10572   */\n      dup6\n      swap1\n      mstore\n        /* \"contracts/roy.sol\":10439:10448  usdtToken */\n      swap1\n      swap2\n      and\n      swap1\n        /* \"contracts/roy.sol\":10439:10457  usdtToken.transfer */\n      0xa9059cbb\n      swap1\n        /* \"#utility.yul\":10451:10469   */\n      0x44\n      add\n        /* \"contracts/roy.sol\":10439:10483  usdtToken.transfer(userAddress, totalAmount) */\n      0x20\n      mload(0x40)\n      dup1\n      dup4\n      sub\n      dup2\n      0x00\n      dup8\n      gas\n      call\n      iszero\n      dup1\n      iszero\n      tag_291\n      jumpi\n      returndatacopy(0x00, 0x00, returndatasize)\n      revert(0x00, returndatasize)\n    tag_291:\n      pop\n      pop\n      pop\n      pop\n      mload(0x40)\n      returndatasize\n      not(0x1f)\n      0x1f\n      dup3\n      add\n      and\n      dup3\n      add\n      dup1\n      0x40\n      mstore\n      pop\n      dup2\n      add\n      swap1\n      tag_292\n      swap2\n      swap1\n      tag_293\n      jump\t// in\n    tag_292:\n        /* \"contracts/roy.sol\":10424:10483  bool success = usdtToken.transfer(userAddress, totalAmount) */\n      swap1\n      pop\n        /* \"contracts/roy.sol\":10509:10516  success */\n      dup1\n        /* \"contracts/roy.sol\":10501:10541  require(success, \"USDT transfer failed\") */\n      tag_294\n      jumpi\n      mload(0x40)\n      shl(0xe5, 0x461bcd)\n      dup2\n      mstore\n        /* \"#utility.yul\":11067:11069   */\n      0x20\n        /* \"contracts/roy.sol\":10501:10541  require(success, \"USDT transfer failed\") */\n      0x04\n      dup3\n      add\n        /* \"#utility.yul\":11049:11070   */\n      mstore\n        /* \"#utility.yul\":11106:11108   */\n      0x14\n        /* \"#utility.yul\":11086:11104   */\n      0x24\n      dup3\n      add\n        /* \"#utility.yul\":11079:11109   */\n      mstore\n      shl(0x62, 0x1554d115081d1c985b9cd9995c8819985a5b1959)\n        /* \"#utility.yul\":11125:11143   */\n      0x44\n      dup3\n      add\n        /* \"#utility.yul\":11118:11168   */\n      mstore\n        /* \"#utility.yul\":11185:11203   */\n      0x64\n      add\n        /* \"contracts/roy.sol\":10501:10541  require(success, \"USDT transfer failed\") */\n      tag_201\n        /* \"#utility.yul\":10865:11209   */\n      jump\n        /* \"contracts/roy.sol\":10501:10541  require(success, \"USDT transfer failed\") */\n    tag_294:\n        /* \"contracts/roy.sol\":10594:10605  userAddress */\n      dup10\n      sub(shl(0xa0, 0x01), 0x01)\n        /* \"contracts/roy.sol\":10565:10730  Claimed(... */\n      and\n      0x9cdcf2f7714cca3508c7f0110b04a90a80a3a8dd0e35de99689db74d28c5383e\n        /* \"contracts/roy.sol\":10627:10633  stakes */\n      dup10\n        /* \"contracts/roy.sol\":10634:10635  i */\n      dup9\n        /* \"contracts/roy.sol\":10627:10636  stakes[i] */\n      dup2\n      sload\n      dup2\n      lt\n      tag_298\n      jumpi\n      tag_298\n      tag_195\n      jump\t// in\n    tag_298:\n      swap1\n      0x00\n      mstore\n      keccak256(0x00, 0x20)\n      swap1\n      0x06\n      mul\n      add\n        /* \"contracts/roy.sol\":10627:10644  stakes[i].stakeId */\n      0x00\n      add\n      sload\n        /* \"contracts/roy.sol\":10666:10672  stakes */\n      dup11\n        /* \"contracts/roy.sol\":10673:10674  i */\n      dup10\n        /* \"contracts/roy.sol\":10666:10675  stakes[i] */\n      dup2\n      sload\n      dup2\n      lt\n      tag_301\n      jumpi\n      tag_301\n      tag_195\n      jump\t// in\n    tag_301:\n      0x00\n      swap2\n      dup3\n      mstore\n      0x20\n      swap2\n      dup3\n      swap1\n      keccak256\n        /* \"contracts/roy.sol\":10666:10682  stakes[i].amount */\n      0x02\n        /* \"contracts/roy.sol\":10666:10675  stakes[i] */\n      0x06\n      swap1\n      swap3\n      mul\n      add\n        /* \"contracts/roy.sol\":10666:10682  stakes[i].amount */\n      add\n      sload\n        /* \"contracts/roy.sol\":10565:10730  Claimed(... */\n      0x40\n      dup1\n      mload\n        /* \"#utility.yul\":11416:11441   */\n      swap4\n      dup5\n      mstore\n        /* \"#utility.yul\":11457:11475   */\n      swap2\n      dup4\n      add\n        /* \"#utility.yul\":11450:11484   */\n      mstore\n        /* \"#utility.yul\":11500:11518   */\n      dup2\n      add\n        /* \"#utility.yul\":11493:11527   */\n      dup7\n      swap1\n      mstore\n        /* \"#utility.yul\":11404:11406   */\n      0x60\n        /* \"#utility.yul\":11389:11407   */\n      add\n        /* \"contracts/roy.sol\":10565:10730  Claimed(... */\n    tag_303:\n      mload(0x40)\n      dup1\n      swap2\n      sub\n      swap1\n      log2\n        /* \"contracts/roy.sol\":10757:10761  true */\n      0x01\n        /* \"contracts/roy.sol\":10749:10761  found = true */\n      swap7\n      pop\n        /* \"contracts/roy.sol\":10779:10784  break */\n      pop\n      pop\n      pop\n      pop\n      pop\n      jump(tag_205)\n        /* \"contracts/roy.sol\":8925:10799  if (stakes[i].positionId == _positionId && !stakes[i].claimed) {... */\n    tag_214:\n        /* \"contracts/roy.sol\":8906:8909  i++ */\n      0x01\n      add\n        /* \"contracts/roy.sol\":8867:10809  for (uint256 i = 0; i < stakes.length; i++) {... */\n      jump(tag_204)\n    tag_205:\n      pop\n        /* \"contracts/roy.sol\":10827:10832  found */\n      dup1\n        /* \"contracts/roy.sol\":10819:10871  require(found, \"Stake not found or already claimed\") */\n      tag_305\n      jumpi\n      mload(0x40)\n      shl(0xe5, 0x461bcd)\n      dup2\n      mstore\n        /* \"#utility.yul\":11740:11742   */\n      0x20\n        /* \"contracts/roy.sol\":10819:10871  require(found, \"Stake not found or already claimed\") */\n      0x04\n      dup3\n      add\n        /* \"#utility.yul\":11722:11743   */\n      mstore\n        /* \"#utility.yul\":11779:11781   */\n      0x22\n        /* \"#utility.yul\":11759:11777   */\n      0x24\n      dup3\n      add\n        /* \"#utility.yul\":11752:11782   */\n      mstore\n        /* \"#utility.yul\":11818:11852   */\n      0x5374616b65206e6f7420666f756e64206f7220616c726561647920636c61696d\n        /* \"#utility.yul\":11798:11816   */\n      0x44\n      dup3\n      add\n        /* \"#utility.yul\":11791:11853   */\n      mstore\n      shl(0xf2, 0x1959)\n        /* \"#utility.yul\":11869:11887   */\n      0x64\n      dup3\n      add\n        /* \"#utility.yul\":11862:11894   */\n      mstore\n        /* \"#utility.yul\":11911:11930   */\n      0x84\n      add\n        /* \"contracts/roy.sol\":10819:10871  require(found, \"Stake not found or already claimed\") */\n      tag_201\n        /* \"#utility.yul\":11538:11936   */\n      jump\n        /* \"contracts/roy.sol\":10819:10871  require(found, \"Stake not found or already claimed\") */\n    tag_305:\n        /* \"contracts/roy.sol\":8691:10878  {... */\n      pop\n      pop\n      pop\n      pop\n        /* \"contracts/roy.sol\":8631:10878  function claim(uint256 _positionId) external onlyRegistered {... */\n      pop\n      jump\t// out\n        /* \"contracts/roy.sol\":18948:19110  function withdrawUSDT(uint256 amount) external {... */\n    tag_71:\n        /* \"contracts/roy.sol\":19027:19032  owner */\n      and(sub(shl(0xa0, 0x01), 0x01), sload(0x00))\n        /* \"contracts/roy.sol\":19013:19023  msg.sender */\n      caller\n        /* \"contracts/roy.sol\":19013:19032  msg.sender == owner */\n      eq\n        /* \"contracts/roy.sol\":19005:19060  require(msg.sender == owner, \"Only owner can withdraw\") */\n      tag_309\n      jumpi\n      mload(0x40)\n      shl(0xe5, 0x461bcd)\n      dup2\n      mstore\n        /* \"#utility.yul\":12143:12145   */\n      0x20\n        /* \"contracts/roy.sol\":19005:19060  require(msg.sender == owner, \"Only owner can withdraw\") */\n      0x04\n      dup3\n      add\n        /* \"#utility.yul\":12125:12146   */\n      mstore\n        /* \"#utility.yul\":12182:12184   */\n      0x17\n        /* \"#utility.yul\":12162:12180   */\n      0x24\n      dup3\n      add\n        /* \"#utility.yul\":12155:12185   */\n      mstore\n        /* \"#utility.yul\":12221:12246   */\n      0x4f6e6c79206f776e65722063616e207769746864726177000000000000000000\n        /* \"#utility.yul\":12201:12219   */\n      0x44\n      dup3\n      add\n        /* \"#utility.yul\":12194:12247   */\n      mstore\n        /* \"#utility.yul\":12264:12282   */\n      0x64\n      add\n        /* \"contracts/roy.sol\":19005:19060  require(msg.sender == owner, \"Only owner can withdraw\") */\n      tag_201\n        /* \"#utility.yul\":11941:12288   */\n      jump\n        /* \"contracts/roy.sol\":19005:19060  require(msg.sender == owner, \"Only owner can withdraw\") */\n    tag_309:\n        /* \"contracts/roy.sol\":19070:19079  usdtToken */\n      sload(0x02)\n      0x00\n        /* \"contracts/roy.sol\":19089:19094  owner */\n      sload\n        /* \"contracts/roy.sol\":19070:19103  usdtToken.transfer(owner, amount) */\n      mload(0x40)\n      shl(0xe0, 0xa9059cbb)\n      dup2\n      mstore\n      sub(shl(0xa0, 0x01), 0x01)\n        /* \"contracts/roy.sol\":19089:19094  owner */\n      swap2\n      dup3\n      and\n        /* \"contracts/roy.sol\":19070:19103  usdtToken.transfer(owner, amount) */\n      0x04\n      dup3\n      add\n        /* \"#utility.yul\":10478:10529   */\n      mstore\n        /* \"#utility.yul\":10545:10563   */\n      0x24\n      dup2\n      add\n        /* \"#utility.yul\":10538:10572   */\n      dup5\n      swap1\n      mstore\n        /* \"contracts/roy.sol\":19070:19079  usdtToken */\n      swap2\n      and\n      swap1\n        /* \"contracts/roy.sol\":19070:19088  usdtToken.transfer */\n      0xa9059cbb\n      swap1\n        /* \"#utility.yul\":10451:10469   */\n      0x44\n      add\n        /* \"contracts/roy.sol\":19070:19103  usdtToken.transfer(owner, amount) */\n      0x20\n      mload(0x40)\n      dup1\n      dup4\n      sub\n      dup2\n      0x00\n      dup8\n      gas\n      call\n      iszero\n      dup1\n      iszero\n      tag_314\n      jumpi\n      returndatacopy(0x00, 0x00, returndatasize)\n      revert(0x00, returndatasize)\n    tag_314:\n      pop\n      pop\n      pop\n      pop\n      mload(0x40)\n      returndatasize\n      not(0x1f)\n      0x1f\n      dup3\n      add\n      and\n      dup3\n      add\n      dup1\n      0x40\n      mstore\n      pop\n      dup2\n      add\n      swap1\n      tag_315\n      swap2\n      swap1\n      tag_293\n      jump\t// in\n    tag_315:\n      pop\n        /* \"contracts/roy.sol\":18948:19110  function withdrawUSDT(uint256 amount) external {... */\n      pop\n      jump\t// out\n        /* \"contracts/roy.sol\":2259:2995  function register(address referrer) external {... */\n    tag_74:\n        /* \"contracts/roy.sol\":2329:2339  msg.sender */\n      caller\n        /* \"contracts/roy.sol\":2323:2340  users[msg.sender] */\n      0x00\n      swap1\n      dup2\n      mstore\n        /* \"contracts/roy.sol\":2323:2328  users */\n      0x03\n        /* \"contracts/roy.sol\":2323:2340  users[msg.sender] */\n      0x20\n      mstore\n      0x40\n      swap1\n      keccak256\n        /* \"contracts/roy.sol\":2323:2351  users[msg.sender].registered */\n      0x04\n      add\n      sload\n      0xff\n      and\n        /* \"contracts/roy.sol\":2322:2351  !users[msg.sender].registered */\n      iszero\n        /* \"contracts/roy.sol\":2314:2374  require(!users[msg.sender].registered, \"Already registered\") */\n      tag_317\n      jumpi\n      mload(0x40)\n      shl(0xe5, 0x461bcd)\n      dup2\n      mstore\n        /* \"#utility.yul\":12495:12497   */\n      0x20\n        /* \"contracts/roy.sol\":2314:2374  require(!users[msg.sender].registered, \"Already registered\") */\n      0x04\n      dup3\n      add\n        /* \"#utility.yul\":12477:12498   */\n      mstore\n        /* \"#utility.yul\":12534:12536   */\n      0x12\n        /* \"#utility.yul\":12514:12532   */\n      0x24\n      dup3\n      add\n        /* \"#utility.yul\":12507:12537   */\n      mstore\n      shl(0x72, 0x105b1c9958591e481c9959da5cdd195c9959)\n        /* \"#utility.yul\":12553:12571   */\n      0x44\n      dup3\n      add\n        /* \"#utility.yul\":12546:12594   */\n      mstore\n        /* \"#utility.yul\":12611:12629   */\n      0x64\n      add\n        /* \"contracts/roy.sol\":2314:2374  require(!users[msg.sender].registered, \"Already registered\") */\n      tag_201\n        /* \"#utility.yul\":12293:12635   */\n      jump\n        /* \"contracts/roy.sol\":2314:2374  require(!users[msg.sender].registered, \"Already registered\") */\n    tag_317:\n        /* \"contracts/roy.sol\":2404:2414  msg.sender */\n      caller\n      sub(shl(0xa0, 0x01), 0x01)\n        /* \"contracts/roy.sol\":2392:2414  referrer != msg.sender */\n      dup3\n      and\n      sub\n        /* \"contracts/roy.sol\":2384:2440  require(referrer != msg.sender, \"Cannot refer yourself\") */\n      tag_320\n      jumpi\n      mload(0x40)\n      shl(0xe5, 0x461bcd)\n      dup2\n      mstore\n        /* \"#utility.yul\":12842:12844   */\n      0x20\n        /* \"contracts/roy.sol\":2384:2440  require(referrer != msg.sender, \"Cannot refer yourself\") */\n      0x04\n      dup3\n      add\n        /* \"#utility.yul\":12824:12845   */\n      mstore\n        /* \"#utility.yul\":12881:12883   */\n      0x15\n        /* \"#utility.yul\":12861:12879   */\n      0x24\n      dup3\n      add\n        /* \"#utility.yul\":12854:12884   */\n      mstore\n      shl(0x59, 0x21b0b73737ba103932b332b9103cb7bab939b2b633)\n        /* \"#utility.yul\":12900:12918   */\n      0x44\n      dup3\n      add\n        /* \"#utility.yul\":12893:12944   */\n      mstore\n        /* \"#utility.yul\":12961:12979   */\n      0x64\n      add\n        /* \"contracts/roy.sol\":2384:2440  require(referrer != msg.sender, \"Cannot refer yourself\") */\n      tag_201\n        /* \"#utility.yul\":12640:12985   */\n      jump\n        /* \"contracts/roy.sol\":2384:2440  require(referrer != msg.sender, \"Cannot refer yourself\") */\n    tag_320:\n      sub(shl(0xa0, 0x01), 0x01)\n        /* \"contracts/roy.sol\":2458:2473  users[referrer] */\n      dup2\n      and\n      0x00\n      swap1\n      dup2\n      mstore\n        /* \"contracts/roy.sol\":2458:2463  users */\n      0x03\n        /* \"contracts/roy.sol\":2458:2473  users[referrer] */\n      0x20\n      mstore\n      0x40\n      swap1\n      keccak256\n        /* \"contracts/roy.sol\":2458:2484  users[referrer].registered */\n      0x04\n      add\n      sload\n      0xff\n      and\n        /* \"contracts/roy.sol\":2450:2512  require(users[referrer].registered, \"Referrer not registered\") */\n      tag_323\n      jumpi\n      mload(0x40)\n      shl(0xe5, 0x461bcd)\n      dup2\n      mstore\n        /* \"#utility.yul\":13192:13194   */\n      0x20\n        /* \"contracts/roy.sol\":2450:2512  require(users[referrer].registered, \"Referrer not registered\") */\n      0x04\n      dup3\n      add\n        /* \"#utility.yul\":13174:13195   */\n      mstore\n        /* \"#utility.yul\":13231:13233   */\n      0x17\n        /* \"#utility.yul\":13211:13229   */\n      0x24\n      dup3\n      add\n        /* \"#utility.yul\":13204:13234   */\n      mstore\n        /* \"#utility.yul\":13270:13295   */\n      0x5265666572726572206e6f742072656769737465726564000000000000000000\n        /* \"#utility.yul\":13250:13268   */\n      0x44\n      dup3\n      add\n        /* \"#utility.yul\":13243:13296   */\n      mstore\n        /* \"#utility.yul\":13313:13331   */\n      0x64\n      add\n        /* \"contracts/roy.sol\":2450:2512  require(users[referrer].registered, \"Referrer not registered\") */\n      tag_201\n        /* \"#utility.yul\":12990:13337   */\n      jump\n        /* \"contracts/roy.sol\":2450:2512  require(users[referrer].registered, \"Referrer not registered\") */\n    tag_323:\n      sub(shl(0xa0, 0x01), 0x01)\n        /* \"contracts/roy.sol\":2543:2558  users[referrer] */\n      dup2\n      and\n        /* \"contracts/roy.sol\":2575:2576  0 */\n      0x00\n        /* \"contracts/roy.sol\":2543:2558  users[referrer] */\n      swap1\n      dup2\n      mstore\n        /* \"contracts/roy.sol\":2543:2548  users */\n      0x03\n        /* \"contracts/roy.sol\":2543:2558  users[referrer] */\n      0x20\n      mstore\n      0x40\n      swap1\n      keccak256\n        /* \"contracts/roy.sol\":2543:2565  users[referrer].stakes */\n      0x01\n      add\n        /* \"contracts/roy.sol\":2543:2572  users[referrer].stakes.length */\n      sload\n        /* \"contracts/roy.sol\":2522:2645  require(... */\n      tag_326\n      jumpi\n      mload(0x40)\n      shl(0xe5, 0x461bcd)\n      dup2\n      mstore\n        /* \"#utility.yul\":13544:13546   */\n      0x20\n        /* \"contracts/roy.sol\":2522:2645  require(... */\n      0x04\n      dup3\n      add\n        /* \"#utility.yul\":13526:13547   */\n      mstore\n        /* \"#utility.yul\":13583:13585   */\n      0x2b\n        /* \"#utility.yul\":13563:13581   */\n      0x24\n      dup3\n      add\n        /* \"#utility.yul\":13556:13586   */\n      mstore\n        /* \"#utility.yul\":13622:13656   */\n      0x5265666572726572206d757374207374616b65206265666f726520796f752063\n        /* \"#utility.yul\":13602:13620   */\n      0x44\n      dup3\n      add\n        /* \"#utility.yul\":13595:13657   */\n      mstore\n      shl(0xa9, 0x30b7103932b3b4b9ba32b9)\n        /* \"#utility.yul\":13673:13691   */\n      0x64\n      dup3\n      add\n        /* \"#utility.yul\":13666:13707   */\n      mstore\n        /* \"#utility.yul\":13724:13743   */\n      0x84\n      add\n        /* \"contracts/roy.sol\":2522:2645  require(... */\n      tag_201\n        /* \"#utility.yul\":13342:13749   */\n      jump\n        /* \"contracts/roy.sol\":2522:2645  require(... */\n    tag_326:\n        /* \"contracts/roy.sol\":2662:2672  msg.sender */\n      caller\n        /* \"contracts/roy.sol\":2656:2673  users[msg.sender] */\n      0x00\n      dup2\n      dup2\n      mstore\n        /* \"contracts/roy.sol\":2656:2661  users */\n      0x03\n        /* \"contracts/roy.sol\":2656:2673  users[msg.sender] */\n      0x20\n      dup2\n      dup2\n      mstore\n      0x40\n      dup1\n      dup5\n      keccak256\n        /* \"contracts/roy.sol\":2656:2693  users[msg.sender].referrer = referrer */\n      dup1\n      sload\n      sub(shl(0xa0, 0x01), 0x01)\n      swap8\n      dup9\n      and\n      not(sub(shl(0xa0, 0x01), 0x01))\n      swap2\n      dup3\n      and\n      dup2\n      or\n      dup4\n      sstore\n        /* \"contracts/roy.sol\":2703:2731  users[msg.sender].registered */\n      0x04\n      swap3\n      dup4\n      add\n        /* \"contracts/roy.sol\":2703:2738  users[msg.sender].registered = true */\n      dup1\n      sload\n      not(0xff)\n      and\n        /* \"contracts/roy.sol\":2656:2693  users[msg.sender].referrer = referrer */\n      0x01\n        /* \"contracts/roy.sol\":2703:2738  users[msg.sender].registered = true */\n      swap1\n      dup2\n      or\n      swap1\n      swap2\n      sstore\n        /* \"contracts/roy.sol\":2748:2756  allUsers */\n      0x08\n        /* \"contracts/roy.sol\":2748:2773  allUsers.push(msg.sender) */\n      dup1\n      sload\n      dup1\n      dup4\n      add\n      swap1\n      swap2\n      sstore\n      0xf3f7a9fe364faab93b216da50a3214154f22a0a2b415b23a84c8169e8b636ee3\n      add\n      dup1\n      sload\n      dup5\n      and\n      dup11\n      or\n      swap1\n      sstore\n        /* \"contracts/roy.sol\":2784:2809  directReferrals[referrer] */\n      swap1\n      dup8\n      mstore\n      swap2\n      dup5\n      mstore\n      dup3\n      dup7\n      keccak256\n        /* \"contracts/roy.sol\":2828:2978  ReferralInfo({... */\n      dup4\n      mload\n      0x60\n      dup2\n      add\n      dup6\n      mstore\n      swap8\n      dup9\n      mstore\n      dup8\n      dup6\n      add\n      dup8\n      dup2\n      mstore\n        /* \"contracts/roy.sol\":2948:2963  block.timestamp */\n      timestamp\n        /* \"contracts/roy.sol\":2828:2978  ReferralInfo({... */\n      swap5\n      dup10\n      add\n      swap5\n      dup6\n      mstore\n        /* \"contracts/roy.sol\":2784:2988  directReferrals[referrer].push(... */\n      dup2\n      sload\n      dup1\n      dup6\n      add\n      dup4\n      sstore\n      swap2\n      dup9\n      mstore\n      swap5\n      swap1\n      swap7\n      keccak256\n      swap7\n      mload\n      swap6\n      swap1\n      swap5\n      mul\n      swap1\n      swap6\n      add\n      dup1\n      sload\n      swap5\n      swap1\n      swap7\n      and\n      swap4\n      swap1\n      swap3\n      and\n      swap3\n      swap1\n      swap3\n      or\n      dup5\n      sstore\n      swap1\n      mload\n      swap2\n      dup4\n      add\n      swap2\n      swap1\n      swap2\n      sstore\n      mload\n      0x02\n      swap1\n      swap2\n      add\n      sstore\n        /* \"contracts/roy.sol\":2259:2995  function register(address referrer) external {... */\n      jump\t// out\n        /* \"contracts/roy.sol\":8312:8476  function setStakingAPY(uint256 numDays, uint256 apy) external onlyOwner {... */\n    tag_78:\n        /* \"contracts/roy.sol\":2201:2206  owner */\n      and(sub(shl(0xa0, 0x01), 0x01), sload(0x00))\n        /* \"contracts/roy.sol\":2187:2197  msg.sender */\n      caller\n        /* \"contracts/roy.sol\":2187:2206  msg.sender == owner */\n      eq\n        /* \"contracts/roy.sol\":2179:2235  require(msg.sender == owner, \"Only owner can call this\") */\n      tag_332\n      jumpi\n      mload(0x40)\n      shl(0xe5, 0x461bcd)\n      dup2\n      mstore\n      0x04\n      add\n      tag_201\n      swap1\n      tag_334\n      jump\t// in\n    tag_332:\n        /* \"contracts/roy.sol\":8412:8413  0 */\n      0x00\n        /* \"contracts/roy.sol\":8402:8409  numDays */\n      dup3\n        /* \"contracts/roy.sol\":8402:8413  numDays > 0 */\n      gt\n        /* \"contracts/roy.sol\":8394:8434  require(numDays > 0, \"Days must be > 0\") */\n      tag_336\n      jumpi\n      mload(0x40)\n      shl(0xe5, 0x461bcd)\n      dup2\n      mstore\n        /* \"#utility.yul\":14309:14311   */\n      0x20\n        /* \"contracts/roy.sol\":8394:8434  require(numDays > 0, \"Days must be > 0\") */\n      0x04\n      dup3\n      add\n        /* \"#utility.yul\":14291:14312   */\n      mstore\n        /* \"#utility.yul\":14348:14350   */\n      0x10\n        /* \"#utility.yul\":14328:14346   */\n      0x24\n      dup3\n      add\n        /* \"#utility.yul\":14321:14351   */\n      mstore\n      shl(0x84, 0x044617973206d757374206265203e203)\n        /* \"#utility.yul\":14367:14385   */\n      0x44\n      dup3\n      add\n        /* \"#utility.yul\":14360:14406   */\n      mstore\n        /* \"#utility.yul\":14423:14441   */\n      0x64\n      add\n        /* \"contracts/roy.sol\":8394:8434  require(numDays > 0, \"Days must be > 0\") */\n      tag_201\n        /* \"#utility.yul\":14107:14447   */\n      jump\n        /* \"contracts/roy.sol\":8394:8434  require(numDays > 0, \"Days must be > 0\") */\n    tag_336:\n        /* \"contracts/roy.sol\":8444:8463  stakingAPY[numDays] */\n      0x00\n      swap2\n      dup3\n      mstore\n        /* \"contracts/roy.sol\":8444:8454  stakingAPY */\n      0x06\n        /* \"contracts/roy.sol\":8444:8463  stakingAPY[numDays] */\n      0x20\n      mstore\n      0x40\n      swap1\n      swap2\n      keccak256\n        /* \"contracts/roy.sol\":8444:8469  stakingAPY[numDays] = apy */\n      sstore\n        /* \"contracts/roy.sol\":8312:8476  function setStakingAPY(uint256 numDays, uint256 apy) external onlyOwner {... */\n      jump\t// out\n        /* \"contracts/roy.sol\":8511:8625  function setLevelRewards(uint8[5] memory newRewards) external onlyOwner {... */\n    tag_87:\n        /* \"contracts/roy.sol\":2201:2206  owner */\n      and(sub(shl(0xa0, 0x01), 0x01), sload(0x00))\n        /* \"contracts/roy.sol\":2187:2197  msg.sender */\n      caller\n        /* \"contracts/roy.sol\":2187:2206  msg.sender == owner */\n      eq\n        /* \"contracts/roy.sol\":2179:2235  require(msg.sender == owner, \"Only owner can call this\") */\n      tag_341\n      jumpi\n      mload(0x40)\n      shl(0xe5, 0x461bcd)\n      dup2\n      mstore\n      0x04\n      add\n      tag_201\n      swap1\n      tag_334\n      jump\t// in\n    tag_341:\n        /* \"contracts/roy.sol\":8593:8618  levelRewards = newRewards */\n      tag_315\n        /* \"contracts/roy.sol\":8593:8605  levelRewards */\n      0x09\n        /* \"contracts/roy.sol\":8608:8618  newRewards */\n      dup3\n        /* \"contracts/roy.sol\":8593:8618  levelRewards = newRewards */\n      0x05\n      tag_345\n      jump\t// in\n        /* \"contracts/roy.sol\":10884:12545  function claimEmergency(uint256 _positionId) external onlyRegistered {... */\n    tag_90:\n        /* \"contracts/roy.sol\":2083:2093  msg.sender */\n      caller\n        /* \"contracts/roy.sol\":2077:2094  users[msg.sender] */\n      0x00\n      swap1\n      dup2\n      mstore\n        /* \"contracts/roy.sol\":2077:2082  users */\n      0x03\n        /* \"contracts/roy.sol\":2077:2094  users[msg.sender] */\n      0x20\n      mstore\n      0x40\n      swap1\n      keccak256\n        /* \"contracts/roy.sol\":2077:2105  users[msg.sender].registered */\n      0x04\n      add\n      sload\n      0xff\n      and\n        /* \"contracts/roy.sol\":2069:2124  require(users[msg.sender].registered, \"Not registered\") */\n      tag_347\n      jumpi\n      mload(0x40)\n      shl(0xe5, 0x461bcd)\n      dup2\n      mstore\n      0x04\n      add\n      tag_201\n      swap1\n      tag_202\n      jump\t// in\n    tag_347:\n        /* \"contracts/roy.sol\":10985:10995  msg.sender */\n      caller\n        /* \"contracts/roy.sol\":10963:10982  address userAddress */\n      0x00\n        /* \"contracts/roy.sol\":11025:11043  users[userAddress] */\n      dup2\n      dup2\n      mstore\n        /* \"contracts/roy.sol\":11025:11030  users */\n      0x03\n        /* \"contracts/roy.sol\":11025:11043  users[userAddress] */\n      0x20\n      mstore\n      0x40\n      dup2\n      keccak256\n      swap1\n        /* \"contracts/roy.sol\":11078:11089  user.stakes */\n      0x01\n      dup3\n      add\n      swap1\n        /* \"contracts/roy.sol\":10963:10982  address userAddress */\n      dup1\n        /* \"contracts/roy.sol\":11129:12476  for (uint256 i = 0; i < stakes.length; i++) {... */\n    tag_350:\n        /* \"contracts/roy.sol\":11153:11166  stakes.length */\n      dup3\n      sload\n        /* \"contracts/roy.sol\":11149:11166  i < stakes.length */\n      dup2\n      lt\n        /* \"contracts/roy.sol\":11129:12476  for (uint256 i = 0; i < stakes.length; i++) {... */\n      iszero\n      tag_205\n      jumpi\n        /* \"contracts/roy.sol\":11215:11226  _positionId */\n      dup6\n        /* \"contracts/roy.sol\":11191:11197  stakes */\n      dup4\n        /* \"contracts/roy.sol\":11198:11199  i */\n      dup3\n        /* \"contracts/roy.sol\":11191:11200  stakes[i] */\n      dup2\n      sload\n      dup2\n      lt\n      tag_354\n      jumpi\n      tag_354\n      tag_195\n      jump\t// in\n    tag_354:\n      swap1\n      0x00\n      mstore\n      keccak256(0x00, 0x20)\n      swap1\n      0x06\n      mul\n      add\n        /* \"contracts/roy.sol\":11191:11211  stakes[i].positionId */\n      0x01\n      add\n      sload\n        /* \"contracts/roy.sol\":11191:11226  stakes[i].positionId == _positionId */\n      eq\n        /* \"contracts/roy.sol\":11191:11248  stakes[i].positionId == _positionId && !stakes[i].claimed */\n      dup1\n      iszero\n      tag_356\n      jumpi\n      pop\n        /* \"contracts/roy.sol\":11231:11237  stakes */\n      dup3\n        /* \"contracts/roy.sol\":11238:11239  i */\n      dup2\n        /* \"contracts/roy.sol\":11231:11240  stakes[i] */\n      dup2\n      sload\n      dup2\n      lt\n      tag_358\n      jumpi\n      tag_358\n      tag_195\n      jump\t// in\n    tag_358:\n      0x00\n      swap2\n      dup3\n      mstore\n      0x20\n      swap1\n      swap2\n      keccak256\n        /* \"contracts/roy.sol\":11231:11248  stakes[i].claimed */\n      0x05\n        /* \"contracts/roy.sol\":11231:11240  stakes[i] */\n      0x06\n      swap1\n      swap3\n      mul\n      add\n        /* \"contracts/roy.sol\":11231:11248  stakes[i].claimed */\n      add\n      sload\n      0xff\n      and\n        /* \"contracts/roy.sol\":11230:11248  !stakes[i].claimed */\n      iszero\n        /* \"contracts/roy.sol\":11191:11248  stakes[i].positionId == _positionId && !stakes[i].claimed */\n    tag_356:\n        /* \"contracts/roy.sol\":11187:12466  if (stakes[i].positionId == _positionId && !stakes[i].claimed) {... */\n      iszero\n      tag_360\n      jumpi\n        /* \"contracts/roy.sol\":11378:11384  stakes */\n      dup3\n        /* \"contracts/roy.sol\":11385:11386  i */\n      dup2\n        /* \"contracts/roy.sol\":11378:11387  stakes[i] */\n      dup2\n      sload\n      dup2\n      lt\n      tag_362\n      jumpi\n      tag_362\n      tag_195\n      jump\t// in\n    tag_362:\n      swap1\n      0x00\n      mstore\n      keccak256(0x00, 0x20)\n      swap1\n      0x06\n      mul\n      add\n        /* \"contracts/roy.sol\":11378:11397  stakes[i].timestamp */\n      0x03\n      add\n      sload\n        /* \"contracts/roy.sol\":11400:11407  20 days */\n      0x1a5e00\n        /* \"contracts/roy.sol\":11378:11407  stakes[i].timestamp + 20 days */\n      tag_364\n      swap2\n      swap1\n      tag_224\n      jump\t// in\n    tag_364:\n        /* \"contracts/roy.sol\":11359:11374  block.timestamp */\n      timestamp\n        /* \"contracts/roy.sol\":11359:11407  block.timestamp >= stakes[i].timestamp + 20 days */\n      lt\n      iszero\n        /* \"contracts/roy.sol\":11330:11491  require(... */\n      tag_365\n      jumpi\n      mload(0x40)\n      shl(0xe5, 0x461bcd)\n      dup2\n      mstore\n        /* \"#utility.yul\":14654:14656   */\n      0x20\n        /* \"contracts/roy.sol\":11330:11491  require(... */\n      0x04\n      dup3\n      add\n        /* \"#utility.yul\":14636:14657   */\n      mstore\n        /* \"#utility.yul\":14693:14695   */\n      0x2a\n        /* \"#utility.yul\":14673:14691   */\n      0x24\n      dup3\n      add\n        /* \"#utility.yul\":14666:14696   */\n      mstore\n        /* \"#utility.yul\":14732:14766   */\n      0x456d657267656e637920636c61696d20616c6c6f776564206f6e6c7920616674\n        /* \"#utility.yul\":14712:14730   */\n      0x44\n      dup3\n      add\n        /* \"#utility.yul\":14705:14767   */\n      mstore\n      shl(0xb0, 0x65722031302064617973)\n        /* \"#utility.yul\":14783:14801   */\n      0x64\n      dup3\n      add\n        /* \"#utility.yul\":14776:14816   */\n      mstore\n        /* \"#utility.yul\":14833:14852   */\n      0x84\n      add\n        /* \"contracts/roy.sol\":11330:11491  require(... */\n      tag_201\n        /* \"#utility.yul\":14452:14858   */\n      jump\n        /* \"contracts/roy.sol\":11330:11491  require(... */\n    tag_365:\n        /* \"contracts/roy.sol\":11510:11524  uint256 amount */\n      0x00\n        /* \"contracts/roy.sol\":11527:11533  stakes */\n      dup4\n        /* \"contracts/roy.sol\":11534:11535  i */\n      dup3\n        /* \"contracts/roy.sol\":11527:11536  stakes[i] */\n      dup2\n      sload\n      dup2\n      lt\n      tag_369\n      jumpi\n      tag_369\n      tag_195\n      jump\t// in\n    tag_369:\n      0x00\n      swap2\n      dup3\n      mstore\n      0x20\n      dup3\n      keccak256\n        /* \"contracts/roy.sol\":11527:11543  stakes[i].amount */\n      0x02\n        /* \"contracts/roy.sol\":11527:11536  stakes[i] */\n      0x06\n      swap1\n      swap3\n      mul\n      add\n        /* \"contracts/roy.sol\":11527:11543  stakes[i].amount */\n      add\n      sload\n      swap2\n      pop\n        /* \"contracts/roy.sol\":11595:11598  100 */\n      0x64\n        /* \"contracts/roy.sol\":11581:11591  amount * 5 */\n      tag_371\n        /* \"contracts/roy.sol\":11527:11543  stakes[i].amount */\n      dup4\n        /* \"contracts/roy.sol\":11590:11591  5 */\n      0x05\n        /* \"contracts/roy.sol\":11581:11591  amount * 5 */\n      tag_219\n      jump\t// in\n    tag_371:\n        /* \"contracts/roy.sol\":11580:11598  (amount * 5) / 100 */\n      tag_372\n      swap2\n      swap1\n      tag_272\n      jump\t// in\n    tag_372:\n        /* \"contracts/roy.sol\":11561:11598  uint256 adminFee = (amount * 5) / 100 */\n      swap1\n      pop\n        /* \"contracts/roy.sol\":11616:11634  uint256 userAmount */\n      0x00\n        /* \"contracts/roy.sol\":11637:11654  amount - adminFee */\n      tag_373\n        /* \"contracts/roy.sol\":11561:11598  uint256 adminFee = (amount * 5) / 100 */\n      dup3\n        /* \"contracts/roy.sol\":11637:11643  amount */\n      dup5\n        /* \"contracts/roy.sol\":11637:11654  amount - adminFee */\n      tag_374\n      jump\t// in\n    tag_373:\n        /* \"contracts/roy.sol\":11702:11711  usdtToken */\n      sload(0x02)\n        /* \"contracts/roy.sol\":11702:11736  usdtToken.balanceOf(address(this)) */\n      mload(0x40)\n      shl(0xe0, 0x70a08231)\n      dup2\n      mstore\n        /* \"contracts/roy.sol\":11730:11734  this */\n      address\n        /* \"contracts/roy.sol\":11702:11736  usdtToken.balanceOf(address(this)) */\n      0x04\n      dup3\n      add\n        /* \"#utility.yul\":1224:1275   */\n      mstore\n        /* \"contracts/roy.sol\":11616:11654  uint256 userAmount = amount - adminFee */\n      swap2\n      swap3\n      pop\n        /* \"contracts/roy.sol\":11740:11746  amount */\n      dup5\n      swap2\n      sub(shl(0xa0, 0x01), 0x01)\n        /* \"contracts/roy.sol\":11702:11711  usdtToken */\n      swap1\n      swap2\n      and\n      swap1\n        /* \"contracts/roy.sol\":11702:11721  usdtToken.balanceOf */\n      0x70a08231\n      swap1\n        /* \"#utility.yul\":1197:1215   */\n      0x24\n      add\n        /* \"contracts/roy.sol\":11702:11736  usdtToken.balanceOf(address(this)) */\n      0x20\n      mload(0x40)\n      dup1\n      dup4\n      sub\n      dup2\n      dup7\n      gas\n      staticcall\n      iszero\n      dup1\n      iszero\n      tag_377\n      jumpi\n      returndatacopy(0x00, 0x00, returndatasize)\n      revert(0x00, returndatasize)\n    tag_377:\n      pop\n      pop\n      pop\n      pop\n      mload(0x40)\n      returndatasize\n      not(0x1f)\n      0x1f\n      dup3\n      add\n      and\n      dup3\n      add\n      dup1\n      0x40\n      mstore\n      pop\n      dup2\n      add\n      swap1\n      tag_378\n      swap2\n      swap1\n      tag_281\n      jump\t// in\n    tag_378:\n        /* \"contracts/roy.sol\":11702:11746  usdtToken.balanceOf(address(this)) >= amount */\n      lt\n      iszero\n        /* \"contracts/roy.sol\":11673:11817  require(... */\n      tag_379\n      jumpi\n      mload(0x40)\n      shl(0xe5, 0x461bcd)\n      dup2\n      mstore\n      0x04\n      add\n      tag_201\n      swap1\n      tag_284\n      jump\t// in\n    tag_379:\n        /* \"contracts/roy.sol\":11856:11860  true */\n      0x01\n        /* \"contracts/roy.sol\":11836:11842  stakes */\n      dup7\n        /* \"contracts/roy.sol\":11843:11844  i */\n      dup6\n        /* \"contracts/roy.sol\":11836:11845  stakes[i] */\n      dup2\n      sload\n      dup2\n      lt\n      tag_382\n      jumpi\n      tag_382\n      tag_195\n      jump\t// in\n    tag_382:\n      0x00\n      swap2\n      dup3\n      mstore\n      0x20\n      dup3\n      keccak256\n      0x06\n      swap2\n      swap1\n      swap2\n      mul\n      add\n        /* \"contracts/roy.sol\":11836:11853  stakes[i].claimed */\n      0x05\n      add\n        /* \"contracts/roy.sol\":11836:11860  stakes[i].claimed = true */\n      dup1\n      sload\n      not(0xff)\n      and\n      swap3\n      iszero\n      iszero\n      swap3\n      swap1\n      swap3\n      or\n      swap1\n      swap2\n      sstore\n        /* \"contracts/roy.sol\":11939:11948  usdtToken */\n      sload(0x02)\n        /* \"contracts/roy.sol\":11939:11982  usdtToken.transfer(userAddress, userAmount) */\n      mload(0x40)\n      shl(0xe0, 0xa9059cbb)\n      dup2\n      mstore\n      sub(shl(0xa0, 0x01), 0x01)\n        /* \"#utility.yul\":10496:10528   */\n      dup12\n      dup2\n      and\n        /* \"contracts/roy.sol\":11939:11982  usdtToken.transfer(userAddress, userAmount) */\n      0x04\n      dup4\n      add\n        /* \"#utility.yul\":10478:10529   */\n      mstore\n        /* \"#utility.yul\":10545:10563   */\n      0x24\n      dup3\n      add\n        /* \"#utility.yul\":10538:10572   */\n      dup6\n      swap1\n      mstore\n        /* \"contracts/roy.sol\":11939:11948  usdtToken */\n      swap1\n      swap2\n      and\n      swap1\n        /* \"contracts/roy.sol\":11939:11957  usdtToken.transfer */\n      0xa9059cbb\n      swap1\n        /* \"#utility.yul\":10451:10469   */\n      0x44\n      add\n        /* \"contracts/roy.sol\":11939:11982  usdtToken.transfer(userAddress, userAmount) */\n      0x20\n      mload(0x40)\n      dup1\n      dup4\n      sub\n      dup2\n      0x00\n      dup8\n      gas\n      call\n      iszero\n      dup1\n      iszero\n      tag_386\n      jumpi\n      returndatacopy(0x00, 0x00, returndatasize)\n      revert(0x00, returndatasize)\n    tag_386:\n      pop\n      pop\n      pop\n      pop\n      mload(0x40)\n      returndatasize\n      not(0x1f)\n      0x1f\n      dup3\n      add\n      and\n      dup3\n      add\n      dup1\n      0x40\n      mstore\n      pop\n      dup2\n      add\n      swap1\n      tag_387\n      swap2\n      swap1\n      tag_293\n      jump\t// in\n    tag_387:\n        /* \"contracts/roy.sol\":11920:11982  bool successUser = usdtToken.transfer(userAddress, userAmount) */\n      swap1\n      pop\n        /* \"contracts/roy.sol\":12008:12019  successUser */\n      dup1\n        /* \"contracts/roy.sol\":12000:12044  require(successUser, \"User transfer failed\") */\n      tag_388\n      jumpi\n      mload(0x40)\n      shl(0xe5, 0x461bcd)\n      dup2\n      mstore\n        /* \"#utility.yul\":15198:15200   */\n      0x20\n        /* \"contracts/roy.sol\":12000:12044  require(successUser, \"User transfer failed\") */\n      0x04\n      dup3\n      add\n        /* \"#utility.yul\":15180:15201   */\n      mstore\n        /* \"#utility.yul\":15237:15239   */\n      0x14\n        /* \"#utility.yul\":15217:15235   */\n      0x24\n      dup3\n      add\n        /* \"#utility.yul\":15210:15240   */\n      mstore\n      shl(0x62, 0x155cd95c881d1c985b9cd9995c8819985a5b1959)\n        /* \"#utility.yul\":15256:15274   */\n      0x44\n      dup3\n      add\n        /* \"#utility.yul\":15249:15299   */\n      mstore\n        /* \"#utility.yul\":15316:15334   */\n      0x64\n      add\n        /* \"contracts/roy.sol\":12000:12044  require(successUser, \"User transfer failed\") */\n      tag_201\n        /* \"#utility.yul\":14996:15340   */\n      jump\n        /* \"contracts/roy.sol\":12000:12044  require(successUser, \"User transfer failed\") */\n    tag_388:\n        /* \"contracts/roy.sol\":12121:12130  usdtToken */\n      sload(0x02)\n        /* \"contracts/roy.sol\":12121:12251  usdtToken.transfer(... */\n      mload(0x40)\n      shl(0xe0, 0xa9059cbb)\n      dup2\n      mstore\n        /* \"contracts/roy.sol\":12161:12203  0xeEf21D3e729763275415156B3A96DC26F371753e */\n      0xeef21d3e729763275415156b3a96dc26f371753e\n        /* \"contracts/roy.sol\":12121:12251  usdtToken.transfer(... */\n      0x04\n      dup3\n      add\n        /* \"#utility.yul\":10478:10529   */\n      mstore\n        /* \"#utility.yul\":10545:10563   */\n      0x24\n      dup2\n      add\n        /* \"#utility.yul\":10538:10572   */\n      dup6\n      swap1\n      mstore\n        /* \"contracts/roy.sol\":12101:12118  bool successAdmin */\n      0x00\n      swap2\n      sub(shl(0xa0, 0x01), 0x01)\n        /* \"contracts/roy.sol\":12121:12130  usdtToken */\n      and\n      swap1\n        /* \"contracts/roy.sol\":12121:12139  usdtToken.transfer */\n      0xa9059cbb\n      swap1\n        /* \"#utility.yul\":10451:10469   */\n      0x44\n      add\n        /* \"contracts/roy.sol\":12121:12251  usdtToken.transfer(... */\n      0x20\n      mload(0x40)\n      dup1\n      dup4\n      sub\n      dup2\n      0x00\n      dup8\n      gas\n      call\n      iszero\n      dup1\n      iszero\n      tag_393\n      jumpi\n      returndatacopy(0x00, 0x00, returndatasize)\n      revert(0x00, returndatasize)\n    tag_393:\n      pop\n      pop\n      pop\n      pop\n      mload(0x40)\n      returndatasize\n      not(0x1f)\n      0x1f\n      dup3\n      add\n      and\n      dup3\n      add\n      dup1\n      0x40\n      mstore\n      pop\n      dup2\n      add\n      swap1\n      tag_394\n      swap2\n      swap1\n      tag_293\n      jump\t// in\n    tag_394:\n        /* \"contracts/roy.sol\":12101:12251  bool successAdmin = usdtToken.transfer(... */\n      swap1\n      pop\n        /* \"contracts/roy.sol\":12277:12289  successAdmin */\n      dup1\n        /* \"contracts/roy.sol\":12269:12319  require(successAdmin, \"Admin fee transfer failed\") */\n      tag_395\n      jumpi\n      mload(0x40)\n      shl(0xe5, 0x461bcd)\n      dup2\n      mstore\n        /* \"#utility.yul\":15547:15549   */\n      0x20\n        /* \"contracts/roy.sol\":12269:12319  require(successAdmin, \"Admin fee transfer failed\") */\n      0x04\n      dup3\n      add\n        /* \"#utility.yul\":15529:15550   */\n      mstore\n        /* \"#utility.yul\":15586:15588   */\n      0x19\n        /* \"#utility.yul\":15566:15584   */\n      0x24\n      dup3\n      add\n        /* \"#utility.yul\":15559:15589   */\n      mstore\n        /* \"#utility.yul\":15625:15652   */\n      0x41646d696e20666565207472616e73666572206661696c656400000000000000\n        /* \"#utility.yul\":15605:15623   */\n      0x44\n      dup3\n      add\n        /* \"#utility.yul\":15598:15653   */\n      mstore\n        /* \"#utility.yul\":15670:15688   */\n      0x64\n      add\n        /* \"contracts/roy.sol\":12269:12319  require(successAdmin, \"Admin fee transfer failed\") */\n      tag_201\n        /* \"#utility.yul\":15345:15694   */\n      jump\n        /* \"contracts/roy.sol\":12269:12319  require(successAdmin, \"Admin fee transfer failed\") */\n    tag_395:\n        /* \"contracts/roy.sol\":12351:12362  userAddress */\n      dup10\n      sub(shl(0xa0, 0x01), 0x01)\n        /* \"contracts/roy.sol\":12343:12397  Claimed(userAddress, stakes[i].stakeId, userAmount, 0) */\n      and\n      0x9cdcf2f7714cca3508c7f0110b04a90a80a3a8dd0e35de99689db74d28c5383e\n        /* \"contracts/roy.sol\":12364:12370  stakes */\n      dup10\n        /* \"contracts/roy.sol\":12371:12372  i */\n      dup9\n        /* \"contracts/roy.sol\":12364:12373  stakes[i] */\n      dup2\n      sload\n      dup2\n      lt\n      tag_399\n      jumpi\n      tag_399\n      tag_195\n      jump\t// in\n    tag_399:\n      0x00\n      swap2\n      dup3\n      mstore\n      0x20\n      dup3\n      keccak256\n      0x06\n      swap1\n      swap2\n      mul\n      add\n        /* \"contracts/roy.sol\":12364:12381  stakes[i].stakeId */\n      sload\n        /* \"contracts/roy.sol\":12343:12397  Claimed(userAddress, stakes[i].stakeId, userAmount, 0) */\n      mload(0x40)\n      tag_303\n      swap3\n        /* \"contracts/roy.sol\":12383:12393  userAmount */\n      dup9\n      swap2\n        /* \"#utility.yul\":11416:11441   */\n      swap3\n      dup4\n      mstore\n        /* \"#utility.yul\":11472:11474   */\n      0x20\n        /* \"#utility.yul\":11457:11475   */\n      dup4\n      add\n        /* \"#utility.yul\":11450:11484   */\n      swap2\n      swap1\n      swap2\n      mstore\n        /* \"#utility.yul\":11515:11517   */\n      0x40\n        /* \"#utility.yul\":11500:11518   */\n      dup3\n      add\n        /* \"#utility.yul\":11493:11527   */\n      mstore\n        /* \"#utility.yul\":11404:11406   */\n      0x60\n        /* \"#utility.yul\":11389:11407   */\n      add\n      swap1\n        /* \"#utility.yul\":11214:11533   */\n      jump\n        /* \"contracts/roy.sol\":11187:12466  if (stakes[i].positionId == _positionId && !stakes[i].claimed) {... */\n    tag_360:\n        /* \"contracts/roy.sol\":11168:11171  i++ */\n      0x01\n      add\n        /* \"contracts/roy.sol\":11129:12476  for (uint256 i = 0; i < stakes.length; i++) {... */\n      jump(tag_350)\n        /* \"contracts/roy.sol\":6231:6351  function getContractBalance() external view returns (uint256) {... */\n    tag_92:\n        /* \"contracts/roy.sol\":6310:6319  usdtToken */\n      sload(0x02)\n        /* \"contracts/roy.sol\":6310:6344  usdtToken.balanceOf(address(this)) */\n      mload(0x40)\n      shl(0xe0, 0x70a08231)\n      dup2\n      mstore\n        /* \"contracts/roy.sol\":6338:6342  this */\n      address\n        /* \"contracts/roy.sol\":6310:6344  usdtToken.balanceOf(address(this)) */\n      0x04\n      dup3\n      add\n        /* \"#utility.yul\":1224:1275   */\n      mstore\n        /* \"contracts/roy.sol\":6284:6291  uint256 */\n      0x00\n      swap2\n      sub(shl(0xa0, 0x01), 0x01)\n        /* \"contracts/roy.sol\":6310:6319  usdtToken */\n      and\n      swap1\n        /* \"contracts/roy.sol\":6310:6329  usdtToken.balanceOf */\n      0x70a08231\n      swap1\n        /* \"#utility.yul\":1197:1215   */\n      0x24\n      add\n        /* \"contracts/roy.sol\":6310:6344  usdtToken.balanceOf(address(this)) */\n      0x20\n      mload(0x40)\n      dup1\n      dup4\n      sub\n      dup2\n      dup7\n      gas\n      staticcall\n      iszero\n      dup1\n      iszero\n      tag_408\n      jumpi\n      returndatacopy(0x00, 0x00, returndatasize)\n      revert(0x00, returndatasize)\n    tag_408:\n      pop\n      pop\n      pop\n      pop\n      mload(0x40)\n      returndatasize\n      not(0x1f)\n      0x1f\n      dup3\n      add\n      and\n      dup3\n      add\n      dup1\n      0x40\n      mstore\n      pop\n      dup2\n      add\n      swap1\n      tag_409\n      swap2\n      swap1\n      tag_281\n      jump\t// in\n    tag_409:\n        /* \"contracts/roy.sol\":6303:6344  return usdtToken.balanceOf(address(this)) */\n      swap1\n      pop\n        /* \"contracts/roy.sol\":6231:6351  function getContractBalance() external view returns (uint256) {... */\n      swap1\n      jump\t// out\n        /* \"contracts/roy.sol\":12551:13925  function getStakeByPositionId(uint256 _positionId)... */\n    tag_96:\n        /* \"contracts/roy.sol\":12662:12674  address user */\n      0x00\n        /* \"contracts/roy.sol\":12921:12950  positionIdToUser[_positionId] */\n      dup2\n      dup2\n      mstore\n        /* \"contracts/roy.sol\":12921:12937  positionIdToUser */\n      0x05\n        /* \"contracts/roy.sol\":12921:12950  positionIdToUser[_positionId] */\n      0x20\n      mstore\n      0x40\n      dup2\n      keccak256\n      sload\n        /* \"contracts/roy.sol\":12662:12674  address user */\n      dup2\n      swap1\n      dup2\n      swap1\n      dup2\n      swap1\n      dup2\n      swap1\n      dup2\n      swap1\n      dup2\n      swap1\n      dup2\n      swap1\n      sub(shl(0xa0, 0x01), 0x01)\n        /* \"contracts/roy.sol\":12921:12950  positionIdToUser[_positionId] */\n      and\n      dup1\n        /* \"contracts/roy.sol\":12960:13013  require(userAddr != address(0), \"Invalid positionId\") */\n      tag_411\n      jumpi\n      mload(0x40)\n      shl(0xe5, 0x461bcd)\n      dup2\n      mstore\n        /* \"#utility.yul\":16233:16235   */\n      0x20\n        /* \"contracts/roy.sol\":12960:13013  require(userAddr != address(0), \"Invalid positionId\") */\n      0x04\n      dup3\n      add\n        /* \"#utility.yul\":16215:16236   */\n      mstore\n        /* \"#utility.yul\":16272:16274   */\n      0x12\n        /* \"#utility.yul\":16252:16270   */\n      0x24\n      dup3\n      add\n        /* \"#utility.yul\":16245:16275   */\n      mstore\n      shl(0x72, 0x125b9d985b1a59081c1bdcda5d1a5bdb9259)\n        /* \"#utility.yul\":16291:16309   */\n      0x44\n      dup3\n      add\n        /* \"#utility.yul\":16284:16332   */\n      mstore\n        /* \"#utility.yul\":16349:16367   */\n      0x64\n      add\n        /* \"contracts/roy.sol\":12960:13013  require(userAddr != address(0), \"Invalid positionId\") */\n      tag_201\n        /* \"#utility.yul\":16031:16373   */\n      jump\n        /* \"contracts/roy.sol\":12960:13013  require(userAddr != address(0), \"Invalid positionId\") */\n    tag_411:\n      sub(shl(0xa0, 0x01), 0x01)\n        /* \"contracts/roy.sol\":13048:13063  users[userAddr] */\n      dup2\n      and\n        /* \"contracts/roy.sol\":13024:13045  Stake[] memory stakes */\n      0x00\n        /* \"contracts/roy.sol\":13048:13063  users[userAddr] */\n      swap1\n      dup2\n      mstore\n        /* \"contracts/roy.sol\":13048:13053  users */\n      0x03\n        /* \"contracts/roy.sol\":13048:13063  users[userAddr] */\n      0x20\n      swap1\n      dup2\n      mstore\n      0x40\n      dup1\n      dup4\n      keccak256\n        /* \"contracts/roy.sol\":13048:13070  users[userAddr].stakes */\n      0x01\n      add\n        /* \"contracts/roy.sol\":13024:13070  Stake[] memory stakes = users[userAddr].stakes */\n      dup1\n      sload\n      dup3\n      mload\n      dup2\n      dup6\n      mul\n      dup2\n      add\n      dup6\n      add\n      swap1\n      swap4\n      mstore\n      dup1\n      dup4\n      mstore\n      swap2\n      swap3\n        /* \"contracts/roy.sol\":13048:13070  users[userAddr].stakes */\n      swap1\n      swap2\n        /* \"contracts/roy.sol\":13024:13070  Stake[] memory stakes = users[userAddr].stakes */\n      swap1\n        /* \"contracts/roy.sol\":13024:13045  Stake[] memory stakes */\n      dup5\n      swap1\n        /* \"contracts/roy.sol\":13024:13070  Stake[] memory stakes = users[userAddr].stakes */\n      dup5\n      add\n    tag_414:\n      dup3\n      dup3\n      lt\n      iszero\n      tag_415\n      jumpi\n      0x00\n      dup5\n      dup2\n      mstore\n      0x20\n      swap1\n      dup2\n      swap1\n      keccak256\n      0x40\n      dup1\n      mload\n      0xc0\n      dup2\n      add\n      dup3\n      mstore\n      0x06\n      dup7\n      mul\n      swap1\n      swap3\n      add\n      dup1\n      sload\n      dup4\n      mstore\n      0x01\n      dup1\n      dup3\n      add\n      sload\n      dup5\n      dup7\n      add\n      mstore\n      0x02\n      dup3\n      add\n      sload\n      swap3\n      dup5\n      add\n      swap3\n      swap1\n      swap3\n      mstore\n      0x03\n      dup2\n      add\n      sload\n      0x60\n      dup5\n      add\n      mstore\n      0x04\n      dup2\n      add\n      sload\n      0x80\n      dup5\n      add\n      mstore\n      0x05\n      add\n      sload\n      0xff\n      and\n      iszero\n      iszero\n      0xa0\n      dup4\n      add\n      mstore\n      swap1\n      dup4\n      mstore\n      swap1\n      swap3\n      add\n      swap2\n      add\n      jump(tag_414)\n    tag_415:\n      pop\n      swap3\n      swap4\n      pop\n        /* \"contracts/roy.sol\":13085:13094  uint256 i */\n      0x00\n      swap3\n      pop\n      pop\n      pop\n        /* \"contracts/roy.sol\":13080:13883  for (uint256 i = 0; i < stakes.length; i++) {... */\n    tag_417:\n        /* \"contracts/roy.sol\":13104:13110  stakes */\n      dup2\n        /* \"contracts/roy.sol\":13104:13117  stakes.length */\n      mload\n        /* \"contracts/roy.sol\":13100:13101  i */\n      dup2\n        /* \"contracts/roy.sol\":13100:13117  i < stakes.length */\n      lt\n        /* \"contracts/roy.sol\":13080:13883  for (uint256 i = 0; i < stakes.length; i++) {... */\n      iszero\n      tag_418\n      jumpi\n        /* \"contracts/roy.sol\":13166:13177  _positionId */\n      dup12\n        /* \"contracts/roy.sol\":13142:13148  stakes */\n      dup3\n        /* \"contracts/roy.sol\":13149:13150  i */\n      dup3\n        /* \"contracts/roy.sol\":13142:13151  stakes[i] */\n      dup2\n      mload\n      dup2\n      lt\n      tag_421\n      jumpi\n      tag_421\n      tag_195\n      jump\t// in\n    tag_421:\n      0x20\n      mul\n      0x20\n      add\n      add\n      mload\n        /* \"contracts/roy.sol\":13142:13162  stakes[i].positionId */\n      0x20\n      add\n      mload\n        /* \"contracts/roy.sol\":13142:13177  stakes[i].positionId == _positionId */\n      sub\n        /* \"contracts/roy.sol\":13138:13873  if (stakes[i].positionId == _positionId) {... */\n      tag_422\n      jumpi\n        /* \"contracts/roy.sol\":13197:13211  Stake memory s */\n      0x00\n        /* \"contracts/roy.sol\":13214:13220  stakes */\n      dup3\n        /* \"contracts/roy.sol\":13221:13222  i */\n      dup3\n        /* \"contracts/roy.sol\":13214:13223  stakes[i] */\n      dup2\n      mload\n      dup2\n      lt\n      tag_424\n      jumpi\n      tag_424\n      tag_195\n      jump\t// in\n    tag_424:\n      0x20\n      mul\n      0x20\n      add\n      add\n      mload\n        /* \"contracts/roy.sol\":13197:13223  Stake memory s = stakes[i] */\n      swap1\n      pop\n        /* \"contracts/roy.sol\":13242:13257  uint256 apyRate */\n      0x00\n        /* \"contracts/roy.sol\":13260:13270  stakingAPY */\n      0x06\n        /* \"contracts/roy.sol\":13260:13281  stakingAPY[s.numDays] */\n      0x00\n        /* \"contracts/roy.sol\":13271:13272  s */\n      dup4\n        /* \"contracts/roy.sol\":13271:13280  s.numDays */\n      0x80\n      add\n      mload\n        /* \"contracts/roy.sol\":13260:13281  stakingAPY[s.numDays] */\n      dup2\n      mstore\n      0x20\n      add\n      swap1\n      dup2\n      mstore\n      0x20\n      add\n      0x00\n      keccak256\n      sload\n        /* \"contracts/roy.sol\":13242:13281  uint256 apyRate = stakingAPY[s.numDays] */\n      swap1\n      pop\n        /* \"contracts/roy.sol\":13299:13310  uint256 end */\n      0x00\n        /* \"contracts/roy.sol\":13328:13329  s */\n      dup3\n        /* \"contracts/roy.sol\":13328:13337  s.numDays */\n      0x80\n      add\n      mload\n        /* \"contracts/roy.sol\":13340:13346  1 days */\n      0x015180\n        /* \"contracts/roy.sol\":13328:13346  s.numDays * 1 days */\n      tag_425\n      swap2\n      swap1\n      tag_219\n      jump\t// in\n    tag_425:\n        /* \"contracts/roy.sol\":13313:13314  s */\n      dup4\n        /* \"contracts/roy.sol\":13313:13324  s.timestamp */\n      0x60\n      add\n      mload\n        /* \"contracts/roy.sol\":13313:13347  s.timestamp + (s.numDays * 1 days) */\n      tag_426\n      swap2\n      swap1\n      tag_224\n      jump\t// in\n    tag_426:\n        /* \"contracts/roy.sol\":13299:13347  uint256 end = s.timestamp + (s.numDays * 1 days) */\n      swap1\n      pop\n        /* \"contracts/roy.sol\":13365:13378  bool isActive */\n      0x00\n        /* \"contracts/roy.sol\":13382:13383  s */\n      dup4\n        /* \"contracts/roy.sol\":13382:13391  s.claimed */\n      0xa0\n      add\n      mload\n        /* \"contracts/roy.sol\":13381:13391  !s.claimed */\n      iszero\n        /* \"contracts/roy.sol\":13381:13416  !s.claimed && block.timestamp < end */\n      dup1\n      iszero\n      tag_427\n      jumpi\n      pop\n        /* \"contracts/roy.sol\":13413:13416  end */\n      dup2\n        /* \"contracts/roy.sol\":13395:13410  block.timestamp */\n      timestamp\n        /* \"contracts/roy.sol\":13395:13416  block.timestamp < end */\n      lt\n        /* \"contracts/roy.sol\":13381:13416  !s.claimed && block.timestamp < end */\n    tag_427:\n        /* \"contracts/roy.sol\":13365:13416  bool isActive = !s.claimed && block.timestamp < end */\n      swap1\n      pop\n        /* \"contracts/roy.sol\":13515:13536  uint256 dailyInterest */\n      0x00\n        /* \"contracts/roy.sol\":13568:13571  365 */\n      0x016d\n        /* \"contracts/roy.sol\":13562:13565  100 */\n      0x64\n        /* \"contracts/roy.sol\":13551:13558  apyRate */\n      dup6\n        /* \"contracts/roy.sol\":13540:13541  s */\n      dup8\n        /* \"contracts/roy.sol\":13540:13548  s.amount */\n      0x40\n      add\n      mload\n        /* \"contracts/roy.sol\":13540:13558  s.amount * apyRate */\n      tag_428\n      swap2\n      swap1\n      tag_219\n      jump\t// in\n    tag_428:\n        /* \"contracts/roy.sol\":13539:13565  (s.amount * apyRate) / 100 */\n      tag_429\n      swap2\n      swap1\n      tag_272\n      jump\t// in\n    tag_429:\n        /* \"contracts/roy.sol\":13539:13571  (s.amount * apyRate) / 100 / 365 */\n      tag_430\n      swap2\n      swap1\n      tag_272\n      jump\t// in\n    tag_430:\n        /* \"contracts/roy.sol\":13515:13571  uint256 dailyInterest = (s.amount * apyRate) / 100 / 365 */\n      swap1\n      pop\n        /* \"contracts/roy.sol\":13619:13627  userAddr */\n      dup8\n        /* \"contracts/roy.sol\":13649:13650  s */\n      dup6\n        /* \"contracts/roy.sol\":13649:13658  s.stakeId */\n      0x00\n      add\n      mload\n        /* \"contracts/roy.sol\":13680:13681  s */\n      dup7\n        /* \"contracts/roy.sol\":13680:13688  s.amount */\n      0x40\n      add\n      mload\n        /* \"contracts/roy.sol\":13710:13711  s */\n      dup8\n        /* \"contracts/roy.sol\":13710:13721  s.timestamp */\n      0x60\n      add\n      mload\n        /* \"contracts/roy.sol\":13743:13746  end */\n      dup7\n        /* \"contracts/roy.sol\":13768:13775  apyRate */\n      dup9\n        /* \"contracts/roy.sol\":13797:13810  dailyInterest */\n      dup7\n        /* \"contracts/roy.sol\":13832:13840  isActive */\n      dup9\n        /* \"contracts/roy.sol\":13590:13858  return (... */\n      swap16\n      pop\n      swap16\n      pop\n      swap16\n      pop\n      swap16\n      pop\n      swap16\n      pop\n      swap16\n      pop\n      swap16\n      pop\n      swap16\n      pop\n      pop\n      pop\n      pop\n      pop\n      pop\n      pop\n      pop\n      pop\n      jump(tag_410)\n        /* \"contracts/roy.sol\":13138:13873  if (stakes[i].positionId == _positionId) {... */\n    tag_422:\n        /* \"contracts/roy.sol\":13119:13122  i++ */\n      0x01\n      add\n        /* \"contracts/roy.sol\":13080:13883  for (uint256 i = 0; i < stakes.length; i++) {... */\n      jump(tag_417)\n    tag_418:\n      pop\n        /* \"contracts/roy.sol\":13893:13918  revert(\"Stake not found\") */\n      mload(0x40)\n      shl(0xe5, 0x461bcd)\n      dup2\n      mstore\n        /* \"#utility.yul\":16580:16582   */\n      0x20\n        /* \"contracts/roy.sol\":13893:13918  revert(\"Stake not found\") */\n      0x04\n      dup3\n      add\n        /* \"#utility.yul\":16562:16583   */\n      mstore\n        /* \"#utility.yul\":16619:16621   */\n      0x0f\n        /* \"#utility.yul\":16599:16617   */\n      0x24\n      dup3\n      add\n        /* \"#utility.yul\":16592:16622   */\n      mstore\n      shl(0x8a, 0x14dd185ad9481b9bdd08199bdd5b99)\n        /* \"#utility.yul\":16638:16656   */\n      0x44\n      dup3\n      add\n        /* \"#utility.yul\":16631:16676   */\n      mstore\n        /* \"#utility.yul\":16693:16711   */\n      0x64\n      add\n        /* \"contracts/roy.sol\":13893:13918  revert(\"Stake not found\") */\n      tag_201\n        /* \"#utility.yul\":16378:16717   */\n      jump\n        /* \"contracts/roy.sol\":12551:13925  function getStakeByPositionId(uint256 _positionId)... */\n    tag_410:\n      swap2\n      swap4\n      swap6\n      swap8\n      pop\n      swap2\n      swap4\n      swap6\n      swap8\n      jump\t// out\n        /* \"contracts/roy.sol\":3001:6218  function stake(uint256 numDays, uint256 amount) external onlyRegistered {... */\n    tag_101:\n        /* \"contracts/roy.sol\":2083:2093  msg.sender */\n      caller\n        /* \"contracts/roy.sol\":2077:2094  users[msg.sender] */\n      0x00\n      swap1\n      dup2\n      mstore\n        /* \"contracts/roy.sol\":2077:2082  users */\n      0x03\n        /* \"contracts/roy.sol\":2077:2094  users[msg.sender] */\n      0x20\n      mstore\n      0x40\n      swap1\n      keccak256\n        /* \"contracts/roy.sol\":2077:2105  users[msg.sender].registered */\n      0x04\n      add\n      sload\n      0xff\n      and\n        /* \"contracts/roy.sol\":2069:2124  require(users[msg.sender].registered, \"Not registered\") */\n      tag_434\n      jumpi\n      mload(0x40)\n      shl(0xe5, 0x461bcd)\n      dup2\n      mstore\n      0x04\n      add\n      tag_201\n      swap1\n      tag_202\n      jump\t// in\n    tag_434:\n        /* \"contracts/roy.sol\":3096:3097  0 */\n      0x00\n        /* \"contracts/roy.sol\":3087:3093  amount */\n      dup2\n        /* \"contracts/roy.sol\":3087:3097  amount > 0 */\n      gt\n        /* \"contracts/roy.sol\":3079:3137  require(amount > 0, \"Stake amount must be greater than 0\") */\n      tag_437\n      jumpi\n      mload(0x40)\n      shl(0xe5, 0x461bcd)\n      dup2\n      mstore\n        /* \"#utility.yul\":16924:16926   */\n      0x20\n        /* \"contracts/roy.sol\":3079:3137  require(amount > 0, \"Stake amount must be greater than 0\") */\n      0x04\n      dup3\n      add\n        /* \"#utility.yul\":16906:16927   */\n      mstore\n        /* \"#utility.yul\":16963:16965   */\n      0x23\n        /* \"#utility.yul\":16943:16961   */\n      0x24\n      dup3\n      add\n        /* \"#utility.yul\":16936:16966   */\n      mstore\n        /* \"#utility.yul\":17002:17036   */\n      0x5374616b6520616d6f756e74206d757374206265206772656174657220746861\n        /* \"#utility.yul\":16982:17000   */\n      0x44\n      dup3\n      add\n        /* \"#utility.yul\":16975:17037   */\n      mstore\n      shl(0xec, 0x06e203)\n        /* \"#utility.yul\":17053:17071   */\n      0x64\n      dup3\n      add\n        /* \"#utility.yul\":17046:17079   */\n      mstore\n        /* \"#utility.yul\":17096:17115   */\n      0x84\n      add\n        /* \"contracts/roy.sol\":3079:3137  require(amount > 0, \"Stake amount must be greater than 0\") */\n      tag_201\n        /* \"#utility.yul\":16722:17121   */\n      jump\n        /* \"contracts/roy.sol\":3079:3137  require(amount > 0, \"Stake amount must be greater than 0\") */\n    tag_437:\n        /* \"contracts/roy.sol\":3173:3174  0 */\n      0x00\n        /* \"contracts/roy.sol\":3151:3170  stakingAPY[numDays] */\n      dup3\n      dup2\n      mstore\n        /* \"contracts/roy.sol\":3151:3161  stakingAPY */\n      0x06\n        /* \"contracts/roy.sol\":3151:3170  stakingAPY[numDays] */\n      0x20\n      mstore\n      0x40\n      swap1\n      keccak256\n      sload\n        /* \"contracts/roy.sol\":3143:3203  require(stakingAPY[numDays] > 0, \"Invalid staking duration\") */\n      tag_440\n      jumpi\n      mload(0x40)\n      shl(0xe5, 0x461bcd)\n      dup2\n      mstore\n        /* \"#utility.yul\":17328:17330   */\n      0x20\n        /* \"contracts/roy.sol\":3143:3203  require(stakingAPY[numDays] > 0, \"Invalid staking duration\") */\n      0x04\n      dup3\n      add\n        /* \"#utility.yul\":17310:17331   */\n      mstore\n        /* \"#utility.yul\":17367:17369   */\n      0x18\n        /* \"#utility.yul\":17347:17365   */\n      0x24\n      dup3\n      add\n        /* \"#utility.yul\":17340:17370   */\n      mstore\n      shl(0x41, 0x24b73b30b634b21039ba30b5b4b73390323ab930ba34b7b7)\n        /* \"#utility.yul\":17386:17404   */\n      0x44\n      dup3\n      add\n        /* \"#utility.yul\":17379:17433   */\n      mstore\n        /* \"#utility.yul\":17450:17468   */\n      0x64\n      add\n        /* \"contracts/roy.sol\":3143:3203  require(stakingAPY[numDays] > 0, \"Invalid staking duration\") */\n      tag_201\n        /* \"#utility.yul\":17126:17474   */\n      jump\n        /* \"contracts/roy.sol\":3143:3203  require(stakingAPY[numDays] > 0, \"Invalid staking duration\") */\n    tag_440:\n        /* \"contracts/roy.sol\":3235:3245  msg.sender */\n      caller\n        /* \"contracts/roy.sol\":3210:3226  address referrer */\n      0x00\n        /* \"contracts/roy.sol\":3229:3246  users[msg.sender] */\n      swap1\n      dup2\n      mstore\n        /* \"contracts/roy.sol\":3229:3234  users */\n      0x03\n        /* \"contracts/roy.sol\":3229:3246  users[msg.sender] */\n      0x20\n      mstore\n      0x40\n      swap1\n      keccak256\n        /* \"contracts/roy.sol\":3229:3255  users[msg.sender].referrer */\n      sload\n      sub(shl(0xa0, 0x01), 0x01)\n      and\n        /* \"contracts/roy.sol\":3266:3288  referrer != address(0) */\n      dup1\n      iszero\n        /* \"contracts/roy.sol\":3262:3393  if (referrer != address(0)) {... */\n      tag_444\n      jumpi\n      sub(shl(0xa0, 0x01), 0x01)\n        /* \"contracts/roy.sol\":3308:3323  users[referrer] */\n      dup2\n      and\n        /* \"contracts/roy.sol\":3340:3341  0 */\n      0x00\n        /* \"contracts/roy.sol\":3308:3323  users[referrer] */\n      swap1\n      dup2\n      mstore\n        /* \"contracts/roy.sol\":3308:3313  users */\n      0x03\n        /* \"contracts/roy.sol\":3308:3323  users[referrer] */\n      0x20\n      mstore\n      0x40\n      swap1\n      keccak256\n        /* \"contracts/roy.sol\":3308:3330  users[referrer].stakes */\n      0x01\n      add\n        /* \"contracts/roy.sol\":3308:3337  users[referrer].stakes.length */\n      sload\n        /* \"contracts/roy.sol\":3300:3386  require(users[referrer].stakes.length > 0, \"Referrer must stake before you can stake\") */\n      tag_444\n      jumpi\n      mload(0x40)\n      shl(0xe5, 0x461bcd)\n      dup2\n      mstore\n        /* \"#utility.yul\":17681:17683   */\n      0x20\n        /* \"contracts/roy.sol\":3300:3386  require(users[referrer].stakes.length > 0, \"Referrer must stake before you can stake\") */\n      0x04\n      dup3\n      add\n        /* \"#utility.yul\":17663:17684   */\n      mstore\n        /* \"#utility.yul\":17720:17722   */\n      0x28\n        /* \"#utility.yul\":17700:17718   */\n      0x24\n      dup3\n      add\n        /* \"#utility.yul\":17693:17723   */\n      mstore\n        /* \"#utility.yul\":17759:17793   */\n      0x5265666572726572206d757374207374616b65206265666f726520796f752063\n        /* \"#utility.yul\":17739:17757   */\n      0x44\n      dup3\n      add\n        /* \"#utility.yul\":17732:17794   */\n      mstore\n      shl(0xc0, 0x616e207374616b65)\n        /* \"#utility.yul\":17810:17828   */\n      0x64\n      dup3\n      add\n        /* \"#utility.yul\":17803:17841   */\n      mstore\n        /* \"#utility.yul\":17858:17877   */\n      0x84\n      add\n        /* \"contracts/roy.sol\":3300:3386  require(users[referrer].stakes.length > 0, \"Referrer must stake before you can stake\") */\n      tag_201\n        /* \"#utility.yul\":17479:17883   */\n      jump\n        /* \"contracts/roy.sol\":3300:3386  require(users[referrer].stakes.length > 0, \"Referrer must stake before you can stake\") */\n    tag_444:\n        /* \"contracts/roy.sol\":3414:3423  usdtToken */\n      sload(0x02)\n        /* \"contracts/roy.sol\":3414:3471  usdtToken.transferFrom(msg.sender, address(this), amount) */\n      mload(0x40)\n      shl(0xe0, 0x23b872dd)\n      dup2\n      mstore\n        /* \"contracts/roy.sol\":3437:3447  msg.sender */\n      caller\n        /* \"contracts/roy.sol\":3414:3471  usdtToken.transferFrom(msg.sender, address(this), amount) */\n      0x04\n      dup3\n      add\n        /* \"#utility.yul\":18090:18141   */\n      mstore\n        /* \"contracts/roy.sol\":3457:3461  this */\n      address\n        /* \"#utility.yul\":18157:18175   */\n      0x24\n      dup3\n      add\n        /* \"#utility.yul\":18150:18210   */\n      mstore\n        /* \"#utility.yul\":18226:18244   */\n      0x44\n      dup2\n      add\n        /* \"#utility.yul\":18219:18253   */\n      dup5\n      swap1\n      mstore\n        /* \"contracts/roy.sol\":3399:3411  bool success */\n      0x00\n      swap2\n      sub(shl(0xa0, 0x01), 0x01)\n        /* \"contracts/roy.sol\":3414:3423  usdtToken */\n      and\n      swap1\n        /* \"contracts/roy.sol\":3414:3436  usdtToken.transferFrom */\n      0x23b872dd\n      swap1\n        /* \"#utility.yul\":18063:18081   */\n      0x64\n      add\n        /* \"contracts/roy.sol\":3414:3471  usdtToken.transferFrom(msg.sender, address(this), amount) */\n      0x20\n      mload(0x40)\n      dup1\n      dup4\n      sub\n      dup2\n      0x00\n      dup8\n      gas\n      call\n      iszero\n      dup1\n      iszero\n      tag_450\n      jumpi\n      returndatacopy(0x00, 0x00, returndatasize)\n      revert(0x00, returndatasize)\n    tag_450:\n      pop\n      pop\n      pop\n      pop\n      mload(0x40)\n      returndatasize\n      not(0x1f)\n      0x1f\n      dup3\n      add\n      and\n      dup3\n      add\n      dup1\n      0x40\n      mstore\n      pop\n      dup2\n      add\n      swap1\n      tag_451\n      swap2\n      swap1\n      tag_293\n      jump\t// in\n    tag_451:\n        /* \"contracts/roy.sol\":3399:3471  bool success = usdtToken.transferFrom(msg.sender, address(this), amount) */\n      swap1\n      pop\n        /* \"contracts/roy.sol\":3485:3492  success */\n      dup1\n        /* \"contracts/roy.sol\":3477:3517  require(success, \"USDT transfer failed\") */\n      tag_452\n      jumpi\n      mload(0x40)\n      shl(0xe5, 0x461bcd)\n      dup2\n      mstore\n        /* \"#utility.yul\":11067:11069   */\n      0x20\n        /* \"contracts/roy.sol\":3477:3517  require(success, \"USDT transfer failed\") */\n      0x04\n      dup3\n      add\n        /* \"#utility.yul\":11049:11070   */\n      mstore\n        /* \"#utility.yul\":11106:11108   */\n      0x14\n        /* \"#utility.yul\":11086:11104   */\n      0x24\n      dup3\n      add\n        /* \"#utility.yul\":11079:11109   */\n      mstore\n      shl(0x62, 0x1554d115081d1c985b9cd9995c8819985a5b1959)\n        /* \"#utility.yul\":11125:11143   */\n      0x44\n      dup3\n      add\n        /* \"#utility.yul\":11118:11168   */\n      mstore\n        /* \"#utility.yul\":11185:11203   */\n      0x64\n      add\n        /* \"contracts/roy.sol\":3477:3517  require(success, \"USDT transfer failed\") */\n      tag_201\n        /* \"#utility.yul\":10865:11209   */\n      jump\n        /* \"contracts/roy.sol\":3477:3517  require(success, \"USDT transfer failed\") */\n    tag_452:\n        /* \"contracts/roy.sol\":3524:3542  uint256 positionId */\n      0x00\n        /* \"contracts/roy.sol\":3547:3559  stakeCounter */\n      0x01\n      0x00\n        /* \"contracts/roy.sol\":3545:3559  ++stakeCounter */\n      dup2\n      sload\n      tag_454\n      swap1\n      tag_455\n      jump\t// in\n    tag_454:\n      swap2\n      swap1\n      pop\n      dup2\n      swap1\n      sstore\n        /* \"contracts/roy.sol\":3524:3559  uint256 positionId = ++stakeCounter */\n      swap1\n      pop\n        /* \"contracts/roy.sol\":3566:3571  users */\n      0x03\n        /* \"contracts/roy.sol\":3566:3583  users[msg.sender] */\n      0x00\n        /* \"contracts/roy.sol\":3572:3582  msg.sender */\n      caller\n      sub(shl(0xa0, 0x01), 0x01)\n        /* \"contracts/roy.sol\":3566:3583  users[msg.sender] */\n      and\n      sub(shl(0xa0, 0x01), 0x01)\n      and\n      dup2\n      mstore\n      0x20\n      add\n      swap1\n      dup2\n      mstore\n      0x20\n      add\n      0x00\n      keccak256\n        /* \"contracts/roy.sol\":3566:3590  users[msg.sender].stakes */\n      0x01\n      add\n        /* \"contracts/roy.sol\":3605:3819  Stake({... */\n      mload(0x40)\n      dup1\n      0xc0\n      add\n      0x40\n      mstore\n      dup1\n        /* \"contracts/roy.sol\":3634:3646  stakeCounter */\n      sload(0x01)\n        /* \"contracts/roy.sol\":3605:3819  Stake({... */\n      dup2\n      mstore\n      0x20\n      add\n        /* \"contracts/roy.sol\":3672:3682  positionId */\n      dup4\n        /* \"contracts/roy.sol\":3605:3819  Stake({... */\n      dup2\n      mstore\n      0x20\n      add\n        /* \"contracts/roy.sol\":3704:3710  amount */\n      dup7\n        /* \"contracts/roy.sol\":3605:3819  Stake({... */\n      dup2\n      mstore\n      0x20\n      add\n        /* \"contracts/roy.sol\":3735:3750  block.timestamp */\n      timestamp\n        /* \"contracts/roy.sol\":3605:3819  Stake({... */\n      dup2\n      mstore\n      0x20\n      add\n        /* \"contracts/roy.sol\":3773:3780  numDays */\n      dup8\n        /* \"contracts/roy.sol\":3605:3819  Stake({... */\n      dup2\n      mstore\n      0x20\n      add\n        /* \"contracts/roy.sol\":3803:3808  false */\n      0x00\n        /* \"contracts/roy.sol\":3605:3819  Stake({... */\n      iszero\n      iszero\n      dup2\n      mstore\n      pop\n        /* \"contracts/roy.sol\":3566:3825  users[msg.sender].stakes.push(... */\n      swap1\n      dup1\n      0x01\n      dup2\n      sload\n      add\n      dup1\n      dup3\n      sstore\n      dup1\n      swap2\n      pop\n      pop\n      0x01\n      swap1\n      sub\n      swap1\n      0x00\n      mstore\n      keccak256(0x00, 0x20)\n      swap1\n      0x06\n      mul\n      add\n      0x00\n      swap1\n      swap2\n      swap1\n      swap2\n      swap1\n      swap2\n      pop\n      0x00\n      dup3\n      add\n      mload\n      dup2\n      0x00\n      add\n      sstore\n      0x20\n      dup3\n      add\n      mload\n      dup2\n      0x01\n      add\n      sstore\n      0x40\n      dup3\n      add\n      mload\n      dup2\n      0x02\n      add\n      sstore\n      0x60\n      dup3\n      add\n      mload\n      dup2\n      0x03\n      add\n      sstore\n      0x80\n      dup3\n      add\n      mload\n      dup2\n      0x04\n      add\n      sstore\n      0xa0\n      dup3\n      add\n      mload\n      dup2\n      0x05\n      add\n      exp(0x0100, 0x00)\n      dup2\n      sload\n      dup2\n      0xff\n      mul\n      not\n      and\n      swap1\n      dup4\n      iszero\n      iszero\n      mul\n      or\n      swap1\n      sstore\n      pop\n      pop\n      pop\n        /* \"contracts/roy.sol\":3863:3873  msg.sender */\n      caller\n        /* \"contracts/roy.sol\":3832:3848  positionIdToUser */\n      0x05\n        /* \"contracts/roy.sol\":3832:3860  positionIdToUser[positionId] */\n      0x00\n        /* \"contracts/roy.sol\":3849:3859  positionId */\n      dup4\n        /* \"contracts/roy.sol\":3832:3860  positionIdToUser[positionId] */\n      dup2\n      mstore\n      0x20\n      add\n      swap1\n      dup2\n      mstore\n      0x20\n      add\n      0x00\n      keccak256\n      0x00\n        /* \"contracts/roy.sol\":3832:3873  positionIdToUser[positionId] = msg.sender */\n      0x0100\n      exp\n      dup2\n      sload\n      dup2\n      sub(shl(0xa0, 0x01), 0x01)\n      mul\n      not\n      and\n      swap1\n      dup4\n      sub(shl(0xa0, 0x01), 0x01)\n      and\n      mul\n      or\n      swap1\n      sstore\n      pop\n        /* \"contracts/roy.sol\":3880:3897  bool isFirstStake */\n      0x00\n        /* \"contracts/roy.sol\":3900:3905  users */\n      0x03\n        /* \"contracts/roy.sol\":3900:3917  users[msg.sender] */\n      0x00\n        /* \"contracts/roy.sol\":3906:3916  msg.sender */\n      caller\n      sub(shl(0xa0, 0x01), 0x01)\n        /* \"contracts/roy.sol\":3900:3917  users[msg.sender] */\n      and\n      sub(shl(0xa0, 0x01), 0x01)\n      and\n      dup2\n      mstore\n      0x20\n      add\n      swap1\n      dup2\n      mstore\n      0x20\n      add\n      0x00\n      keccak256\n        /* \"contracts/roy.sol\":3900:3924  users[msg.sender].stakes */\n      0x01\n      add\n        /* \"contracts/roy.sol\":3900:3931  users[msg.sender].stakes.length */\n      dup1\n      sload\n      swap1\n      pop\n        /* \"contracts/roy.sol\":3935:3936  1 */\n      0x01\n        /* \"contracts/roy.sol\":3900:3936  users[msg.sender].stakes.length == 1 */\n      eq\n        /* \"contracts/roy.sol\":3880:3936  bool isFirstStake = users[msg.sender].stakes.length == 1 */\n      swap1\n      pop\n        /* \"contracts/roy.sol\":3942:3956  address upline */\n      0x00\n        /* \"contracts/roy.sol\":3959:3964  users */\n      0x03\n        /* \"contracts/roy.sol\":3959:3976  users[msg.sender] */\n      0x00\n        /* \"contracts/roy.sol\":3965:3975  msg.sender */\n      caller\n      sub(shl(0xa0, 0x01), 0x01)\n        /* \"contracts/roy.sol\":3959:3976  users[msg.sender] */\n      and\n      sub(shl(0xa0, 0x01), 0x01)\n      and\n      dup2\n      mstore\n      0x20\n      add\n      swap1\n      dup2\n      mstore\n      0x20\n      add\n      0x00\n      keccak256\n        /* \"contracts/roy.sol\":3959:3985  users[msg.sender].referrer */\n      0x00\n      add\n      0x00\n      swap1\n      sload\n      swap1\n      0x0100\n      exp\n      swap1\n      div\n      sub(shl(0xa0, 0x01), 0x01)\n      and\n        /* \"contracts/roy.sol\":3942:3985  address upline = users[msg.sender].referrer */\n      swap1\n      pop\n        /* \"contracts/roy.sol\":3997:4004  uint8 i */\n      0x00\n        /* \"contracts/roy.sol\":4007:4008  0 */\n      0x00\n        /* \"contracts/roy.sol\":3997:4008  uint8 i = 0 */\n      swap1\n      pop\n        /* \"contracts/roy.sol\":3992:6216  for (uint8 i = 0; i < levelRewards.length && upline != address(0); i++) {... */\n    tag_457:\n        /* \"contracts/roy.sol\":4014:4033  levelRewards.length */\n      0x05\n        /* \"contracts/roy.sol\":4010:4011  i */\n      dup2\n        /* \"contracts/roy.sol\":4010:4033  i < levelRewards.length */\n      0xff\n      and\n      lt\n        /* \"contracts/roy.sol\":4010:4057  i < levelRewards.length && upline != address(0) */\n      dup1\n      iszero\n      tag_460\n      jumpi\n      pop\n      sub(shl(0xa0, 0x01), 0x01)\n        /* \"contracts/roy.sol\":4037:4057  upline != address(0) */\n      dup3\n      and\n      iszero\n      iszero\n        /* \"contracts/roy.sol\":4010:4057  i < levelRewards.length && upline != address(0) */\n    tag_460:\n        /* \"contracts/roy.sol\":3992:6216  for (uint8 i = 0; i < levelRewards.length && upline != address(0); i++) {... */\n      iszero\n      tag_458\n      jumpi\n        /* \"contracts/roy.sol\":4074:4088  uint256 reward */\n      0x00\n        /* \"contracts/roy.sol\":4107:4113  i == 0 */\n      0xff\n      dup3\n      and\n      dup2\n      sub\n        /* \"contracts/roy.sol\":4103:6168  if (i == 0) {... */\n      tag_461\n      jumpi\n        /* \"contracts/roy.sol\":4133:4145  isFirstStake */\n      dup4\n        /* \"contracts/roy.sol\":4129:5731  if (isFirstStake) {... */\n      iszero\n      tag_462\n      jumpi\n        /* \"contracts/roy.sol\":4207:4227  uint256 directReward */\n      0x00\n        /* \"contracts/roy.sol\":4245:4248  100 */\n      0x64\n        /* \"contracts/roy.sol\":4231:4241  amount * 5 */\n      tag_463\n        /* \"contracts/roy.sol\":4231:4237  amount */\n      dup11\n        /* \"contracts/roy.sol\":4240:4241  5 */\n      0x05\n        /* \"contracts/roy.sol\":4231:4241  amount * 5 */\n      tag_219\n      jump\t// in\n    tag_463:\n        /* \"contracts/roy.sol\":4230:4248  (amount * 5) / 100 */\n      tag_464\n      swap2\n      swap1\n      tag_272\n      jump\t// in\n    tag_464:\n        /* \"contracts/roy.sol\":4207:4248  uint256 directReward = (amount * 5) / 100 */\n      swap1\n      pop\n        /* \"contracts/roy.sol\":4266:4286  uint256 level1Reward */\n      0x00\n        /* \"contracts/roy.sol\":4304:4307  100 */\n      0x64\n        /* \"contracts/roy.sol\":4290:4300  amount * 5 */\n      tag_465\n        /* \"contracts/roy.sol\":4290:4296  amount */\n      dup12\n        /* \"contracts/roy.sol\":4299:4300  5 */\n      0x05\n        /* \"contracts/roy.sol\":4290:4300  amount * 5 */\n      tag_219\n      jump\t// in\n    tag_465:\n        /* \"contracts/roy.sol\":4289:4307  (amount * 5) / 100 */\n      tag_466\n      swap2\n      swap1\n      tag_272\n      jump\t// in\n    tag_466:\n        /* \"contracts/roy.sol\":4266:4307  uint256 level1Reward = (amount * 5) / 100 */\n      swap1\n      pop\n        /* \"contracts/roy.sol\":4372:4399  directReward + level1Reward */\n      tag_467\n        /* \"contracts/roy.sol\":4266:4307  uint256 level1Reward = (amount * 5) / 100 */\n      dup2\n        /* \"contracts/roy.sol\":4372:4384  directReward */\n      dup4\n        /* \"contracts/roy.sol\":4372:4399  directReward + level1Reward */\n      tag_224\n      jump\t// in\n    tag_467:\n        /* \"contracts/roy.sol\":4334:4343  usdtToken */\n      sload(0x02)\n        /* \"contracts/roy.sol\":4334:4368  usdtToken.balanceOf(address(this)) */\n      mload(0x40)\n      shl(0xe0, 0x70a08231)\n      dup2\n      mstore\n        /* \"contracts/roy.sol\":4362:4366  this */\n      address\n        /* \"contracts/roy.sol\":4334:4368  usdtToken.balanceOf(address(this)) */\n      0x04\n      dup3\n      add\n        /* \"#utility.yul\":1224:1275   */\n      mstore\n      sub(shl(0xa0, 0x01), 0x01)\n        /* \"contracts/roy.sol\":4334:4343  usdtToken */\n      swap1\n      swap2\n      and\n      swap1\n        /* \"contracts/roy.sol\":4334:4353  usdtToken.balanceOf */\n      0x70a08231\n      swap1\n        /* \"#utility.yul\":1197:1215   */\n      0x24\n      add\n        /* \"contracts/roy.sol\":4334:4368  usdtToken.balanceOf(address(this)) */\n      0x20\n      mload(0x40)\n      dup1\n      dup4\n      sub\n      dup2\n      dup7\n      gas\n      staticcall\n      iszero\n      dup1\n      iszero\n      tag_470\n      jumpi\n      returndatacopy(0x00, 0x00, returndatasize)\n      revert(0x00, returndatasize)\n    tag_470:\n      pop\n      pop\n      pop\n      pop\n      mload(0x40)\n      returndatasize\n      not(0x1f)\n      0x1f\n      dup3\n      add\n      and\n      dup3\n      add\n      dup1\n      0x40\n      mstore\n      pop\n      dup2\n      add\n      swap1\n      tag_471\n      swap2\n      swap1\n      tag_281\n      jump\t// in\n    tag_471:\n        /* \"contracts/roy.sol\":4334:4399  usdtToken.balanceOf(address(this)) >= directReward + level1Reward */\n      lt\n      iszero\n        /* \"contracts/roy.sol\":4326:4433  require(usdtToken.balanceOf(address(this)) >= directReward + level1Reward, \"Insufficient contract balance\") */\n      tag_472\n      jumpi\n      mload(0x40)\n      shl(0xe5, 0x461bcd)\n      dup2\n      mstore\n      0x04\n      add\n      tag_201\n      swap1\n      tag_284\n      jump\t// in\n    tag_472:\n        /* \"contracts/roy.sol\":4460:4469  usdtToken */\n      sload(0x02)\n        /* \"contracts/roy.sol\":4460:4500  usdtToken.transfer(upline, directReward) */\n      mload(0x40)\n      shl(0xe0, 0xa9059cbb)\n      dup2\n      mstore\n      sub(shl(0xa0, 0x01), 0x01)\n        /* \"#utility.yul\":10496:10528   */\n      dup8\n      dup2\n      and\n        /* \"contracts/roy.sol\":4460:4500  usdtToken.transfer(upline, directReward) */\n      0x04\n      dup4\n      add\n        /* \"#utility.yul\":10478:10529   */\n      mstore\n        /* \"#utility.yul\":10545:10563   */\n      0x24\n      dup3\n      add\n        /* \"#utility.yul\":10538:10572   */\n      dup6\n      swap1\n      mstore\n        /* \"contracts/roy.sol\":4460:4469  usdtToken */\n      swap1\n      swap2\n      and\n      swap1\n        /* \"contracts/roy.sol\":4460:4478  usdtToken.transfer */\n      0xa9059cbb\n      swap1\n        /* \"#utility.yul\":10451:10469   */\n      0x44\n      add\n        /* \"contracts/roy.sol\":4460:4500  usdtToken.transfer(upline, directReward) */\n      0x20\n      mload(0x40)\n      dup1\n      dup4\n      sub\n      dup2\n      0x00\n      dup8\n      gas\n      call\n      iszero\n      dup1\n      iszero\n      tag_476\n      jumpi\n      returndatacopy(0x00, 0x00, returndatasize)\n      revert(0x00, returndatasize)\n    tag_476:\n      pop\n      pop\n      pop\n      pop\n      mload(0x40)\n      returndatasize\n      not(0x1f)\n      0x1f\n      dup3\n      add\n      and\n      dup3\n      add\n      dup1\n      0x40\n      mstore\n      pop\n      dup2\n      add\n      swap1\n      tag_477\n      swap2\n      swap1\n      tag_293\n      jump\t// in\n    tag_477:\n        /* \"contracts/roy.sol\":4452:4536  require(usdtToken.transfer(upline, directReward), \"Direct referral transfer failed\") */\n      tag_478\n      jumpi\n      mload(0x40)\n      shl(0xe5, 0x461bcd)\n      dup2\n      mstore\n        /* \"#utility.yul\":18606:18608   */\n      0x20\n        /* \"contracts/roy.sol\":4452:4536  require(usdtToken.transfer(upline, directReward), \"Direct referral transfer failed\") */\n      0x04\n      dup3\n      add\n        /* \"#utility.yul\":18588:18609   */\n      mstore\n        /* \"#utility.yul\":18645:18647   */\n      0x1f\n        /* \"#utility.yul\":18625:18643   */\n      0x24\n      dup3\n      add\n        /* \"#utility.yul\":18618:18648   */\n      mstore\n        /* \"#utility.yul\":18684:18717   */\n      0x44697265637420726566657272616c207472616e73666572206661696c656400\n        /* \"#utility.yul\":18664:18682   */\n      0x44\n      dup3\n      add\n        /* \"#utility.yul\":18657:18718   */\n      mstore\n        /* \"#utility.yul\":18735:18753   */\n      0x64\n      add\n        /* \"contracts/roy.sol\":4452:4536  require(usdtToken.transfer(upline, directReward), \"Direct referral transfer failed\") */\n      tag_201\n        /* \"#utility.yul\":18404:18759   */\n      jump\n        /* \"contracts/roy.sol\":4452:4536  require(usdtToken.transfer(upline, directReward), \"Direct referral transfer failed\") */\n    tag_478:\n        /* \"contracts/roy.sol\":4562:4571  usdtToken */\n      sload(0x02)\n        /* \"contracts/roy.sol\":4562:4602  usdtToken.transfer(upline, level1Reward) */\n      mload(0x40)\n      shl(0xe0, 0xa9059cbb)\n      dup2\n      mstore\n      sub(shl(0xa0, 0x01), 0x01)\n        /* \"#utility.yul\":10496:10528   */\n      dup8\n      dup2\n      and\n        /* \"contracts/roy.sol\":4562:4602  usdtToken.transfer(upline, level1Reward) */\n      0x04\n      dup4\n      add\n        /* \"#utility.yul\":10478:10529   */\n      mstore\n        /* \"#utility.yul\":10545:10563   */\n      0x24\n      dup3\n      add\n        /* \"#utility.yul\":10538:10572   */\n      dup5\n      swap1\n      mstore\n        /* \"contracts/roy.sol\":4562:4571  usdtToken */\n      swap1\n      swap2\n      and\n      swap1\n        /* \"contracts/roy.sol\":4562:4580  usdtToken.transfer */\n      0xa9059cbb\n      swap1\n        /* \"#utility.yul\":10451:10469   */\n      0x44\n      add\n        /* \"contracts/roy.sol\":4562:4602  usdtToken.transfer(upline, level1Reward) */\n      0x20\n      mload(0x40)\n      dup1\n      dup4\n      sub\n      dup2\n      0x00\n      dup8\n      gas\n      call\n      iszero\n      dup1\n      iszero\n      tag_483\n      jumpi\n      returndatacopy(0x00, 0x00, returndatasize)\n      revert(0x00, returndatasize)\n    tag_483:\n      pop\n      pop\n      pop\n      pop\n      mload(0x40)\n      returndatasize\n      not(0x1f)\n      0x1f\n      dup3\n      add\n      and\n      dup3\n      add\n      dup1\n      0x40\n      mstore\n      pop\n      dup2\n      add\n      swap1\n      tag_484\n      swap2\n      swap1\n      tag_293\n      jump\t// in\n    tag_484:\n        /* \"contracts/roy.sol\":4554:4637  require(usdtToken.transfer(upline, level1Reward), \"Level 1 reward transfer failed\") */\n      tag_485\n      jumpi\n      mload(0x40)\n      shl(0xe5, 0x461bcd)\n      dup2\n      mstore\n        /* \"#utility.yul\":18966:18968   */\n      0x20\n        /* \"contracts/roy.sol\":4554:4637  require(usdtToken.transfer(upline, level1Reward), \"Level 1 reward transfer failed\") */\n      0x04\n      dup3\n      add\n        /* \"#utility.yul\":18948:18969   */\n      mstore\n        /* \"#utility.yul\":19005:19007   */\n      0x1e\n        /* \"#utility.yul\":18985:19003   */\n      0x24\n      dup3\n      add\n        /* \"#utility.yul\":18978:19008   */\n      mstore\n        /* \"#utility.yul\":19044:19076   */\n      0x4c6576656c203120726577617264207472616e73666572206661696c65640000\n        /* \"#utility.yul\":19024:19042   */\n      0x44\n      dup3\n      add\n        /* \"#utility.yul\":19017:19077   */\n      mstore\n        /* \"#utility.yul\":19094:19112   */\n      0x64\n      add\n        /* \"contracts/roy.sol\":4554:4637  require(usdtToken.transfer(upline, level1Reward), \"Level 1 reward transfer failed\") */\n      tag_201\n        /* \"#utility.yul\":18764:19118   */\n      jump\n        /* \"contracts/roy.sol\":4554:4637  require(usdtToken.transfer(upline, level1Reward), \"Level 1 reward transfer failed\") */\n    tag_485:\n      sub(shl(0xa0, 0x01), 0x01)\n        /* \"contracts/roy.sol\":4656:4684  directReferralIncome[upline] */\n      dup6\n      and\n      0x00\n      swap1\n      dup2\n      mstore\n        /* \"contracts/roy.sol\":4656:4676  directReferralIncome */\n      0x07\n        /* \"contracts/roy.sol\":4656:4684  directReferralIncome[upline] */\n      0x20\n      mstore\n      0x40\n      dup2\n      keccak256\n        /* \"contracts/roy.sol\":4656:4700  directReferralIncome[upline] += directReward */\n      dup1\n      sload\n        /* \"contracts/roy.sol\":4688:4700  directReward */\n      dup5\n      swap3\n        /* \"contracts/roy.sol\":4656:4684  directReferralIncome[upline] */\n      swap1\n        /* \"contracts/roy.sol\":4656:4700  directReferralIncome[upline] += directReward */\n      tag_488\n      swap1\n        /* \"contracts/roy.sol\":4688:4700  directReward */\n      dup5\n      swap1\n        /* \"contracts/roy.sol\":4656:4700  directReferralIncome[upline] += directReward */\n      tag_224\n      jump\t// in\n    tag_488:\n      swap1\n      swap2\n      sstore\n      pop\n        /* \"contracts/roy.sol\":4747:4774  directReward + level1Reward */\n      tag_489\n      swap1\n      pop\n        /* \"contracts/roy.sol\":4762:4774  level1Reward */\n      dup2\n        /* \"contracts/roy.sol\":4747:4759  directReward */\n      dup4\n        /* \"contracts/roy.sol\":4747:4774  directReward + level1Reward */\n      tag_224\n      jump\t// in\n    tag_489:\n      sub(shl(0xa0, 0x01), 0x01)\n        /* \"contracts/roy.sol\":4718:4731  users[upline] */\n      dup7\n      and\n      0x00\n      swap1\n      dup2\n      mstore\n        /* \"contracts/roy.sol\":4718:4723  users */\n      0x03\n        /* \"contracts/roy.sol\":4718:4731  users[upline] */\n      0x20\n      mstore\n      0x40\n      dup2\n      keccak256\n        /* \"contracts/roy.sol\":4718:4743  users[upline].totalIncome */\n      0x02\n      add\n        /* \"contracts/roy.sol\":4718:4774  users[upline].totalIncome += directReward + level1Reward */\n      dup1\n      sload\n        /* \"contracts/roy.sol\":4718:4743  users[upline].totalIncome */\n      swap1\n      swap2\n        /* \"contracts/roy.sol\":4718:4731  users[upline] */\n      swap1\n        /* \"contracts/roy.sol\":4718:4774  users[upline].totalIncome += directReward + level1Reward */\n      tag_490\n      swap1\n      dup5\n      swap1\n      tag_224\n      jump\t// in\n    tag_490:\n      swap1\n      swap2\n      sstore\n      pop\n      pop\n      sub(shl(0xa0, 0x01), 0x01)\n        /* \"contracts/roy.sol\":4792:4805  users[upline] */\n      dup6\n      and\n      0x00\n      swap1\n      dup2\n      mstore\n        /* \"contracts/roy.sol\":4792:4797  users */\n      0x03\n        /* \"contracts/roy.sol\":4792:4805  users[upline] */\n      0x20\n      dup2\n      swap1\n      mstore\n      0x40\n      dup3\n      keccak256\n        /* \"contracts/roy.sol\":4792:4817  users[upline].levelIncome */\n      add\n        /* \"contracts/roy.sol\":4792:4833  users[upline].levelIncome += level1Reward */\n      dup1\n      sload\n        /* \"contracts/roy.sol\":4821:4833  level1Reward */\n      dup4\n      swap3\n        /* \"contracts/roy.sol\":4792:4805  users[upline] */\n      swap1\n        /* \"contracts/roy.sol\":4792:4833  users[upline].levelIncome += level1Reward */\n      tag_491\n      swap1\n        /* \"contracts/roy.sol\":4821:4833  level1Reward */\n      dup5\n      swap1\n        /* \"contracts/roy.sol\":4792:4833  users[upline].levelIncome += level1Reward */\n      tag_224\n      jump\t// in\n    tag_491:\n      swap1\n      swap2\n      sstore\n      pop\n      pop\n      sub(shl(0xa0, 0x01), 0x01)\n        /* \"contracts/roy.sol\":4935:4958  directReferrals[upline] */\n      dup6\n      and\n        /* \"contracts/roy.sol\":4905:4932  ReferralInfo[] storage refs */\n      0x00\n        /* \"contracts/roy.sol\":4935:4958  directReferrals[upline] */\n      swap1\n      dup2\n      mstore\n        /* \"contracts/roy.sol\":4935:4950  directReferrals */\n      0x04\n        /* \"contracts/roy.sol\":4935:4958  directReferrals[upline] */\n      0x20\n      mstore\n      0x40\n      dup2\n      keccak256\n      swap1\n        /* \"contracts/roy.sol\":4976:5254  for (uint256 j = 0; j < refs.length; j++) {... */\n    tag_492:\n        /* \"contracts/roy.sol\":5000:5011  refs.length */\n      dup2\n      sload\n        /* \"contracts/roy.sol\":4996:5011  j < refs.length */\n      dup2\n      lt\n        /* \"contracts/roy.sol\":4976:5254  for (uint256 j = 0; j < refs.length; j++) {... */\n      iszero\n      tag_493\n      jumpi\n        /* \"contracts/roy.sol\":5071:5081  msg.sender */\n      caller\n      sub(shl(0xa0, 0x01), 0x01)\n        /* \"contracts/roy.sol\":5044:5081  refs[j].referralAddress == msg.sender */\n      and\n        /* \"contracts/roy.sol\":5044:5048  refs */\n      dup3\n        /* \"contracts/roy.sol\":5049:5050  j */\n      dup3\n        /* \"contracts/roy.sol\":5044:5051  refs[j] */\n      dup2\n      sload\n      dup2\n      lt\n      tag_496\n      jumpi\n      tag_496\n      tag_195\n      jump\t// in\n    tag_496:\n      0x00\n      swap2\n      dup3\n      mstore\n      0x20\n      swap1\n      swap2\n      keccak256\n      0x03\n      swap1\n      swap2\n      mul\n      add\n        /* \"contracts/roy.sol\":5044:5067  refs[j].referralAddress */\n      sload\n      sub(shl(0xa0, 0x01), 0x01)\n      and\n        /* \"contracts/roy.sol\":5044:5081  refs[j].referralAddress == msg.sender */\n      sub\n        /* \"contracts/roy.sol\":5040:5236  if (refs[j].referralAddress == msg.sender) {... */\n      tag_498\n      jumpi\n        /* \"contracts/roy.sol\":5133:5145  directReward */\n      dup4\n        /* \"contracts/roy.sol\":5109:5113  refs */\n      dup3\n        /* \"contracts/roy.sol\":5114:5115  j */\n      dup3\n        /* \"contracts/roy.sol\":5109:5116  refs[j] */\n      dup2\n      sload\n      dup2\n      lt\n      tag_500\n      jumpi\n      tag_500\n      tag_195\n      jump\t// in\n    tag_500:\n      swap1\n      0x00\n      mstore\n      keccak256(0x00, 0x20)\n      swap1\n      0x03\n      mul\n      add\n        /* \"contracts/roy.sol\":5109:5129  refs[j].incomeEarned */\n      0x01\n      add\n      0x00\n        /* \"contracts/roy.sol\":5109:5145  refs[j].incomeEarned += directReward */\n      dup3\n      dup3\n      sload\n      tag_502\n      swap2\n      swap1\n      tag_224\n      jump\t// in\n    tag_502:\n      swap1\n      swap2\n      sstore\n      pop\n        /* \"contracts/roy.sol\":5208:5213  break */\n      tag_493\n      swap1\n      pop\n      jump\n        /* \"contracts/roy.sol\":5040:5236  if (refs[j].referralAddress == msg.sender) {... */\n    tag_498:\n        /* \"contracts/roy.sol\":5013:5016  j++ */\n      0x01\n      add\n        /* \"contracts/roy.sol\":4976:5254  for (uint256 j = 0; j < refs.length; j++) {... */\n      jump(tag_492)\n    tag_493:\n      pop\n        /* \"contracts/roy.sol\":4147:5268  {... */\n      pop\n      pop\n      pop\n        /* \"contracts/roy.sol\":4103:6168  if (i == 0) {... */\n      jump(tag_523)\n        /* \"contracts/roy.sol\":4129:5731  if (isFirstStake) {... */\n    tag_462:\n        /* \"contracts/roy.sol\":5330:5333  100 */\n      0x64\n        /* \"contracts/roy.sol\":5311:5323  levelRewards */\n      0x09\n        /* \"contracts/roy.sol\":5324:5325  i */\n      dup4\n        /* \"contracts/roy.sol\":5311:5326  levelRewards[i] */\n      0xff\n      and\n      0x05\n      dup2\n      lt\n      tag_505\n      jumpi\n      tag_505\n      tag_195\n      jump\t// in\n    tag_505:\n      0x20\n      dup2\n      div\n      swap2\n      swap1\n      swap2\n      add\n      sload\n        /* \"contracts/roy.sol\":5302:5326  amount * levelRewards[i] */\n      tag_507\n      swap2\n        /* \"contracts/roy.sol\":5311:5326  levelRewards[i] */\n      0x1f\n      and\n      0x0100\n      exp\n      swap1\n      div\n      0xff\n      and\n        /* \"contracts/roy.sol\":5302:5308  amount */\n      dup11\n        /* \"contracts/roy.sol\":5302:5326  amount * levelRewards[i] */\n      tag_219\n      jump\t// in\n    tag_507:\n        /* \"contracts/roy.sol\":5301:5333  (amount * levelRewards[i]) / 100 */\n      tag_508\n      swap2\n      swap1\n      tag_272\n      jump\t// in\n    tag_508:\n        /* \"contracts/roy.sol\":5359:5368  usdtToken */\n      sload(0x02)\n        /* \"contracts/roy.sol\":5359:5393  usdtToken.balanceOf(address(this)) */\n      mload(0x40)\n      shl(0xe0, 0x70a08231)\n      dup2\n      mstore\n        /* \"contracts/roy.sol\":5387:5391  this */\n      address\n        /* \"contracts/roy.sol\":5359:5393  usdtToken.balanceOf(address(this)) */\n      0x04\n      dup3\n      add\n        /* \"#utility.yul\":1224:1275   */\n      mstore\n        /* \"contracts/roy.sol\":5292:5333  reward = (amount * levelRewards[i]) / 100 */\n      swap2\n      swap3\n      pop\n      dup3\n      swap2\n      sub(shl(0xa0, 0x01), 0x01)\n        /* \"contracts/roy.sol\":5359:5368  usdtToken */\n      swap1\n      swap2\n      and\n      swap1\n        /* \"contracts/roy.sol\":5359:5378  usdtToken.balanceOf */\n      0x70a08231\n      swap1\n        /* \"#utility.yul\":1197:1215   */\n      0x24\n      add\n        /* \"contracts/roy.sol\":5359:5393  usdtToken.balanceOf(address(this)) */\n      0x20\n      mload(0x40)\n      dup1\n      dup4\n      sub\n      dup2\n      dup7\n      gas\n      staticcall\n      iszero\n      dup1\n      iszero\n      tag_511\n      jumpi\n      returndatacopy(0x00, 0x00, returndatasize)\n      revert(0x00, returndatasize)\n    tag_511:\n      pop\n      pop\n      pop\n      pop\n      mload(0x40)\n      returndatasize\n      not(0x1f)\n      0x1f\n      dup3\n      add\n      and\n      dup3\n      add\n      dup1\n      0x40\n      mstore\n      pop\n      dup2\n      add\n      swap1\n      tag_512\n      swap2\n      swap1\n      tag_281\n      jump\t// in\n    tag_512:\n        /* \"contracts/roy.sol\":5359:5403  usdtToken.balanceOf(address(this)) >= reward */\n      lt\n      iszero\n        /* \"contracts/roy.sol\":5351:5437  require(usdtToken.balanceOf(address(this)) >= reward, \"Insufficient contract balance\") */\n      tag_513\n      jumpi\n      mload(0x40)\n      shl(0xe5, 0x461bcd)\n      dup2\n      mstore\n      0x04\n      add\n      tag_201\n      swap1\n      tag_284\n      jump\t// in\n    tag_513:\n        /* \"contracts/roy.sol\":5463:5472  usdtToken */\n      sload(0x02)\n        /* \"contracts/roy.sol\":5463:5497  usdtToken.transfer(upline, reward) */\n      mload(0x40)\n      shl(0xe0, 0xa9059cbb)\n      dup2\n      mstore\n      sub(shl(0xa0, 0x01), 0x01)\n        /* \"#utility.yul\":10496:10528   */\n      dup6\n      dup2\n      and\n        /* \"contracts/roy.sol\":5463:5497  usdtToken.transfer(upline, reward) */\n      0x04\n      dup4\n      add\n        /* \"#utility.yul\":10478:10529   */\n      mstore\n        /* \"#utility.yul\":10545:10563   */\n      0x24\n      dup3\n      add\n        /* \"#utility.yul\":10538:10572   */\n      dup5\n      swap1\n      mstore\n        /* \"contracts/roy.sol\":5463:5472  usdtToken */\n      swap1\n      swap2\n      and\n      swap1\n        /* \"contracts/roy.sol\":5463:5481  usdtToken.transfer */\n      0xa9059cbb\n      swap1\n        /* \"#utility.yul\":10451:10469   */\n      0x44\n      add\n        /* \"contracts/roy.sol\":5463:5497  usdtToken.transfer(upline, reward) */\n      0x20\n      mload(0x40)\n      dup1\n      dup4\n      sub\n      dup2\n      0x00\n      dup8\n      gas\n      call\n      iszero\n      dup1\n      iszero\n      tag_517\n      jumpi\n      returndatacopy(0x00, 0x00, returndatasize)\n      revert(0x00, returndatasize)\n    tag_517:\n      pop\n      pop\n      pop\n      pop\n      mload(0x40)\n      returndatasize\n      not(0x1f)\n      0x1f\n      dup3\n      add\n      and\n      dup3\n      add\n      dup1\n      0x40\n      mstore\n      pop\n      dup2\n      add\n      swap1\n      tag_518\n      swap2\n      swap1\n      tag_293\n      jump\t// in\n    tag_518:\n        /* \"contracts/roy.sol\":5455:5532  require(usdtToken.transfer(upline, reward), \"Level 1 reward transfer failed\") */\n      tag_519\n      jumpi\n      mload(0x40)\n      shl(0xe5, 0x461bcd)\n      dup2\n      mstore\n        /* \"#utility.yul\":18966:18968   */\n      0x20\n        /* \"contracts/roy.sol\":5455:5532  require(usdtToken.transfer(upline, reward), \"Level 1 reward transfer failed\") */\n      0x04\n      dup3\n      add\n        /* \"#utility.yul\":18948:18969   */\n      mstore\n        /* \"#utility.yul\":19005:19007   */\n      0x1e\n        /* \"#utility.yul\":18985:19003   */\n      0x24\n      dup3\n      add\n        /* \"#utility.yul\":18978:19008   */\n      mstore\n        /* \"#utility.yul\":19044:19076   */\n      0x4c6576656c203120726577617264207472616e73666572206661696c65640000\n        /* \"#utility.yul\":19024:19042   */\n      0x44\n      dup3\n      add\n        /* \"#utility.yul\":19017:19077   */\n      mstore\n        /* \"#utility.yul\":19094:19112   */\n      0x64\n      add\n        /* \"contracts/roy.sol\":5455:5532  require(usdtToken.transfer(upline, reward), \"Level 1 reward transfer failed\") */\n      tag_201\n        /* \"#utility.yul\":18764:19118   */\n      jump\n        /* \"contracts/roy.sol\":5455:5532  require(usdtToken.transfer(upline, reward), \"Level 1 reward transfer failed\") */\n    tag_519:\n      sub(shl(0xa0, 0x01), 0x01)\n        /* \"contracts/roy.sol\":5551:5564  users[upline] */\n      dup4\n      and\n      0x00\n      swap1\n      dup2\n      mstore\n        /* \"contracts/roy.sol\":5551:5556  users */\n      0x03\n        /* \"contracts/roy.sol\":5551:5564  users[upline] */\n      0x20\n      mstore\n      0x40\n      dup2\n      keccak256\n        /* \"contracts/roy.sol\":5551:5576  users[upline].totalIncome */\n      0x02\n      add\n        /* \"contracts/roy.sol\":5551:5586  users[upline].totalIncome += reward */\n      dup1\n      sload\n        /* \"contracts/roy.sol\":5580:5586  reward */\n      dup4\n      swap3\n        /* \"contracts/roy.sol\":5551:5564  users[upline] */\n      swap1\n        /* \"contracts/roy.sol\":5551:5586  users[upline].totalIncome += reward */\n      tag_521\n      swap1\n        /* \"contracts/roy.sol\":5580:5586  reward */\n      dup5\n      swap1\n        /* \"contracts/roy.sol\":5551:5586  users[upline].totalIncome += reward */\n      tag_224\n      jump\t// in\n    tag_521:\n      swap1\n      swap2\n      sstore\n      pop\n      pop\n      sub(shl(0xa0, 0x01), 0x01)\n        /* \"contracts/roy.sol\":5604:5617  users[upline] */\n      dup4\n      and\n      0x00\n      swap1\n      dup2\n      mstore\n        /* \"contracts/roy.sol\":5604:5609  users */\n      0x03\n        /* \"contracts/roy.sol\":5604:5617  users[upline] */\n      0x20\n      dup2\n      swap1\n      mstore\n      0x40\n      dup3\n      keccak256\n        /* \"contracts/roy.sol\":5604:5629  users[upline].levelIncome */\n      add\n        /* \"contracts/roy.sol\":5604:5639  users[upline].levelIncome += reward */\n      dup1\n      sload\n        /* \"contracts/roy.sol\":5633:5639  reward */\n      dup4\n      swap3\n        /* \"contracts/roy.sol\":5604:5617  users[upline] */\n      swap1\n        /* \"contracts/roy.sol\":5604:5639  users[upline].levelIncome += reward */\n      tag_522\n      swap1\n        /* \"contracts/roy.sol\":5633:5639  reward */\n      dup5\n      swap1\n        /* \"contracts/roy.sol\":5604:5639  users[upline].levelIncome += reward */\n      tag_224\n      jump\t// in\n    tag_522:\n      swap1\n      swap2\n      sstore\n      pop\n        /* \"contracts/roy.sol\":4103:6168  if (i == 0) {... */\n      tag_523\n      swap1\n      pop\n      jump\n    tag_461:\n        /* \"contracts/roy.sol\":5799:5802  100 */\n      0x64\n        /* \"contracts/roy.sol\":5780:5792  levelRewards */\n      0x09\n        /* \"contracts/roy.sol\":5793:5794  i */\n      dup4\n        /* \"contracts/roy.sol\":5780:5795  levelRewards[i] */\n      0xff\n      and\n      0x05\n      dup2\n      lt\n      tag_525\n      jumpi\n      tag_525\n      tag_195\n      jump\t// in\n    tag_525:\n      0x20\n      dup2\n      div\n      swap2\n      swap1\n      swap2\n      add\n      sload\n        /* \"contracts/roy.sol\":5771:5795  amount * levelRewards[i] */\n      tag_527\n      swap2\n        /* \"contracts/roy.sol\":5780:5795  levelRewards[i] */\n      0x1f\n      and\n      0x0100\n      exp\n      swap1\n      div\n      0xff\n      and\n        /* \"contracts/roy.sol\":5771:5777  amount */\n      dup11\n        /* \"contracts/roy.sol\":5771:5795  amount * levelRewards[i] */\n      tag_219\n      jump\t// in\n    tag_527:\n        /* \"contracts/roy.sol\":5770:5802  (amount * levelRewards[i]) / 100 */\n      tag_528\n      swap2\n      swap1\n      tag_272\n      jump\t// in\n    tag_528:\n        /* \"contracts/roy.sol\":5824:5833  usdtToken */\n      sload(0x02)\n        /* \"contracts/roy.sol\":5824:5858  usdtToken.balanceOf(address(this)) */\n      mload(0x40)\n      shl(0xe0, 0x70a08231)\n      dup2\n      mstore\n        /* \"contracts/roy.sol\":5852:5856  this */\n      address\n        /* \"contracts/roy.sol\":5824:5858  usdtToken.balanceOf(address(this)) */\n      0x04\n      dup3\n      add\n        /* \"#utility.yul\":1224:1275   */\n      mstore\n        /* \"contracts/roy.sol\":5761:5802  reward = (amount * levelRewards[i]) / 100 */\n      swap2\n      swap3\n      pop\n      dup3\n      swap2\n      sub(shl(0xa0, 0x01), 0x01)\n        /* \"contracts/roy.sol\":5824:5833  usdtToken */\n      swap1\n      swap2\n      and\n      swap1\n        /* \"contracts/roy.sol\":5824:5843  usdtToken.balanceOf */\n      0x70a08231\n      swap1\n        /* \"#utility.yul\":1197:1215   */\n      0x24\n      add\n        /* \"contracts/roy.sol\":5824:5858  usdtToken.balanceOf(address(this)) */\n      0x20\n      mload(0x40)\n      dup1\n      dup4\n      sub\n      dup2\n      dup7\n      gas\n      staticcall\n      iszero\n      dup1\n      iszero\n      tag_531\n      jumpi\n      returndatacopy(0x00, 0x00, returndatasize)\n      revert(0x00, returndatasize)\n    tag_531:\n      pop\n      pop\n      pop\n      pop\n      mload(0x40)\n      returndatasize\n      not(0x1f)\n      0x1f\n      dup3\n      add\n      and\n      dup3\n      add\n      dup1\n      0x40\n      mstore\n      pop\n      dup2\n      add\n      swap1\n      tag_532\n      swap2\n      swap1\n      tag_281\n      jump\t// in\n    tag_532:\n        /* \"contracts/roy.sol\":5824:5868  usdtToken.balanceOf(address(this)) >= reward */\n      lt\n      iszero\n        /* \"contracts/roy.sol\":5816:5902  require(usdtToken.balanceOf(address(this)) >= reward, \"Insufficient contract balance\") */\n      tag_533\n      jumpi\n      mload(0x40)\n      shl(0xe5, 0x461bcd)\n      dup2\n      mstore\n      0x04\n      add\n      tag_201\n      swap1\n      tag_284\n      jump\t// in\n    tag_533:\n        /* \"contracts/roy.sol\":5924:5933  usdtToken */\n      sload(0x02)\n        /* \"contracts/roy.sol\":5924:5958  usdtToken.transfer(upline, reward) */\n      mload(0x40)\n      shl(0xe0, 0xa9059cbb)\n      dup2\n      mstore\n      sub(shl(0xa0, 0x01), 0x01)\n        /* \"#utility.yul\":10496:10528   */\n      dup6\n      dup2\n      and\n        /* \"contracts/roy.sol\":5924:5958  usdtToken.transfer(upline, reward) */\n      0x04\n      dup4\n      add\n        /* \"#utility.yul\":10478:10529   */\n      mstore\n        /* \"#utility.yul\":10545:10563   */\n      0x24\n      dup3\n      add\n        /* \"#utility.yul\":10538:10572   */\n      dup5\n      swap1\n      mstore\n        /* \"contracts/roy.sol\":5924:5933  usdtToken */\n      swap1\n      swap2\n      and\n      swap1\n        /* \"contracts/roy.sol\":5924:5942  usdtToken.transfer */\n      0xa9059cbb\n      swap1\n        /* \"#utility.yul\":10451:10469   */\n      0x44\n      add\n        /* \"contracts/roy.sol\":5924:5958  usdtToken.transfer(upline, reward) */\n      0x20\n      mload(0x40)\n      dup1\n      dup4\n      sub\n      dup2\n      0x00\n      dup8\n      gas\n      call\n      iszero\n      dup1\n      iszero\n      tag_537\n      jumpi\n      returndatacopy(0x00, 0x00, returndatasize)\n      revert(0x00, returndatasize)\n    tag_537:\n      pop\n      pop\n      pop\n      pop\n      mload(0x40)\n      returndatasize\n      not(0x1f)\n      0x1f\n      dup3\n      add\n      and\n      dup3\n      add\n      dup1\n      0x40\n      mstore\n      pop\n      dup2\n      add\n      swap1\n      tag_538\n      swap2\n      swap1\n      tag_293\n      jump\t// in\n    tag_538:\n        /* \"contracts/roy.sol\":5916:5991  require(usdtToken.transfer(upline, reward), \"Level reward transfer failed\") */\n      tag_539\n      jumpi\n      mload(0x40)\n      shl(0xe5, 0x461bcd)\n      dup2\n      mstore\n        /* \"#utility.yul\":19325:19327   */\n      0x20\n        /* \"contracts/roy.sol\":5916:5991  require(usdtToken.transfer(upline, reward), \"Level reward transfer failed\") */\n      0x04\n      dup3\n      add\n        /* \"#utility.yul\":19307:19328   */\n      mstore\n        /* \"#utility.yul\":19364:19366   */\n      0x1c\n        /* \"#utility.yul\":19344:19362   */\n      0x24\n      dup3\n      add\n        /* \"#utility.yul\":19337:19367   */\n      mstore\n        /* \"#utility.yul\":19403:19433   */\n      0x4c6576656c20726577617264207472616e73666572206661696c656400000000\n        /* \"#utility.yul\":19383:19401   */\n      0x44\n      dup3\n      add\n        /* \"#utility.yul\":19376:19434   */\n      mstore\n        /* \"#utility.yul\":19451:19469   */\n      0x64\n      add\n        /* \"contracts/roy.sol\":5916:5991  require(usdtToken.transfer(upline, reward), \"Level reward transfer failed\") */\n      tag_201\n        /* \"#utility.yul\":19123:19475   */\n      jump\n        /* \"contracts/roy.sol\":5916:5991  require(usdtToken.transfer(upline, reward), \"Level reward transfer failed\") */\n    tag_539:\n      sub(shl(0xa0, 0x01), 0x01)\n        /* \"contracts/roy.sol\":6006:6019  users[upline] */\n      dup4\n      and\n      0x00\n      swap1\n      dup2\n      mstore\n        /* \"contracts/roy.sol\":6006:6011  users */\n      0x03\n        /* \"contracts/roy.sol\":6006:6019  users[upline] */\n      0x20\n      mstore\n      0x40\n      dup2\n      keccak256\n        /* \"contracts/roy.sol\":6006:6031  users[upline].totalIncome */\n      0x02\n      add\n        /* \"contracts/roy.sol\":6006:6041  users[upline].totalIncome += reward */\n      dup1\n      sload\n        /* \"contracts/roy.sol\":6035:6041  reward */\n      dup4\n      swap3\n        /* \"contracts/roy.sol\":6006:6019  users[upline] */\n      swap1\n        /* \"contracts/roy.sol\":6006:6041  users[upline].totalIncome += reward */\n      tag_542\n      swap1\n        /* \"contracts/roy.sol\":6035:6041  reward */\n      dup5\n      swap1\n        /* \"contracts/roy.sol\":6006:6041  users[upline].totalIncome += reward */\n      tag_224\n      jump\t// in\n    tag_542:\n      swap1\n      swap2\n      sstore\n      pop\n      pop\n      sub(shl(0xa0, 0x01), 0x01)\n        /* \"contracts/roy.sol\":6055:6068  users[upline] */\n      dup4\n      and\n      0x00\n      swap1\n      dup2\n      mstore\n        /* \"contracts/roy.sol\":6055:6060  users */\n      0x03\n        /* \"contracts/roy.sol\":6055:6068  users[upline] */\n      0x20\n      dup2\n      swap1\n      mstore\n      0x40\n      dup3\n      keccak256\n        /* \"contracts/roy.sol\":6055:6080  users[upline].levelIncome */\n      add\n        /* \"contracts/roy.sol\":6055:6090  users[upline].levelIncome += reward */\n      dup1\n      sload\n        /* \"contracts/roy.sol\":6084:6090  reward */\n      dup4\n      swap3\n        /* \"contracts/roy.sol\":6055:6068  users[upline] */\n      swap1\n        /* \"contracts/roy.sol\":6055:6090  users[upline].levelIncome += reward */\n      tag_543\n      swap1\n        /* \"contracts/roy.sol\":6084:6090  reward */\n      dup5\n      swap1\n        /* \"contracts/roy.sol\":6055:6090  users[upline].levelIncome += reward */\n      tag_224\n      jump\t// in\n    tag_543:\n      swap1\n      swap2\n      sstore\n      pop\n      pop\n        /* \"contracts/roy.sol\":4103:6168  if (i == 0) {... */\n    tag_523:\n      pop\n      sub(shl(0xa0, 0x01), 0x01)\n        /* \"contracts/roy.sol\":6187:6200  users[upline] */\n      swap2\n      dup3\n      and\n      0x00\n      swap1\n      dup2\n      mstore\n        /* \"contracts/roy.sol\":6187:6192  users */\n      0x03\n        /* \"contracts/roy.sol\":6187:6200  users[upline] */\n      0x20\n      mstore\n      0x40\n      swap1\n      keccak256\n        /* \"contracts/roy.sol\":6187:6209  users[upline].referrer */\n      sload\n      swap1\n      swap2\n      and\n      swap1\n        /* \"contracts/roy.sol\":4059:4062  i++ */\n      dup1\n      tag_544\n      dup2\n      tag_545\n      jump\t// in\n    tag_544:\n      swap2\n      pop\n      pop\n        /* \"contracts/roy.sol\":3992:6216  for (uint8 i = 0; i < levelRewards.length && upline != address(0); i++) {... */\n      jump(tag_457)\n    tag_458:\n      pop\n        /* \"contracts/roy.sol\":3073:6218  {... */\n      pop\n      pop\n      pop\n      pop\n      pop\n        /* \"contracts/roy.sol\":3001:6218  function stake(uint256 numDays, uint256 amount) external onlyRegistered {... */\n      pop\n      pop\n      jump\t// out\n        /* \"contracts/roy.sol\":7531:8275  function getReferralIncomeDetails(address user)... */\n    tag_118:\n      sub(shl(0xa0, 0x01), 0x01)\n        /* \"contracts/roy.sol\":7807:7828  directReferrals[user] */\n      dup2\n      and\n        /* \"contracts/roy.sol\":7777:7804  ReferralInfo[] storage refs */\n      0x00\n        /* \"contracts/roy.sol\":7807:7828  directReferrals[user] */\n      swap1\n      dup2\n      mstore\n        /* \"contracts/roy.sol\":7807:7822  directReferrals */\n      0x04\n        /* \"contracts/roy.sol\":7807:7828  directReferrals[user] */\n      0x20\n      mstore\n      0x40\n      swap1\n      keccak256\n        /* \"contracts/roy.sol\":7854:7865  refs.length */\n      dup1\n      sload\n        /* \"contracts/roy.sol\":7639:7673  address[] memory referralAddresses */\n      0x60\n      swap2\n      dup3\n      swap2\n      dup3\n      swap2\n        /* \"contracts/roy.sol\":7807:7828  directReferrals[user] */\n      swap1\n        /* \"contracts/roy.sol\":7854:7865  refs.length */\n      dup1\n        /* \"contracts/roy.sol\":7896:7916  new address[](count) */\n      0xffffffffffffffff\n      dup2\n      gt\n      iszero\n      tag_550\n      jumpi\n      tag_550\n      tag_188\n      jump\t// in\n    tag_550:\n      mload(0x40)\n      swap1\n      dup1\n      dup3\n      mstore\n      dup1\n      0x20\n      mul\n      0x20\n      add\n      dup3\n      add\n      0x40\n      mstore\n      dup1\n      iszero\n      tag_551\n      jumpi\n      dup2\n      0x20\n      add\n      0x20\n      dup3\n      mul\n      dup1\n      calldatasize\n      dup4\n      calldatacopy\n      add\n      swap1\n      pop\n    tag_551:\n      pop\n        /* \"contracts/roy.sol\":7876:7916  referralAddresses = new address[](count) */\n      swap5\n      pop\n        /* \"contracts/roy.sol\":7950:7955  count */\n      dup1\n        /* \"contracts/roy.sol\":7936:7956  new uint256[](count) */\n      0xffffffffffffffff\n      dup2\n      gt\n      iszero\n      tag_553\n      jumpi\n      tag_553\n      tag_188\n      jump\t// in\n    tag_553:\n      mload(0x40)\n      swap1\n      dup1\n      dup3\n      mstore\n      dup1\n      0x20\n      mul\n      0x20\n      add\n      dup3\n      add\n      0x40\n      mstore\n      dup1\n      iszero\n      tag_554\n      jumpi\n      dup2\n      0x20\n      add\n      0x20\n      dup3\n      mul\n      dup1\n      calldatasize\n      dup4\n      calldatacopy\n      add\n      swap1\n      pop\n    tag_554:\n      pop\n        /* \"contracts/roy.sol\":7926:7956  incomes = new uint256[](count) */\n      swap4\n      pop\n        /* \"contracts/roy.sol\":7993:7998  count */\n      dup1\n        /* \"contracts/roy.sol\":7979:7999  new uint256[](count) */\n      0xffffffffffffffff\n      dup2\n      gt\n      iszero\n      tag_556\n      jumpi\n      tag_556\n      tag_188\n      jump\t// in\n    tag_556:\n      mload(0x40)\n      swap1\n      dup1\n      dup3\n      mstore\n      dup1\n      0x20\n      mul\n      0x20\n      add\n      dup3\n      add\n      0x40\n      mstore\n      dup1\n      iszero\n      tag_557\n      jumpi\n      dup2\n      0x20\n      add\n      0x20\n      dup3\n      mul\n      dup1\n      calldatasize\n      dup4\n      calldatacopy\n      add\n      swap1\n      pop\n    tag_557:\n      pop\n        /* \"contracts/roy.sol\":7966:7999  timestamps = new uint256[](count) */\n      swap3\n      pop\n        /* \"contracts/roy.sol\":8015:8024  uint256 i */\n      0x00\n        /* \"contracts/roy.sol\":8010:8211  for (uint256 i = 0; i < count; i++) {... */\n    tag_558:\n        /* \"contracts/roy.sol\":8034:8039  count */\n      dup2\n        /* \"contracts/roy.sol\":8030:8031  i */\n      dup2\n        /* \"contracts/roy.sol\":8030:8039  i < count */\n      lt\n        /* \"contracts/roy.sol\":8010:8211  for (uint256 i = 0; i < count; i++) {... */\n      iszero\n      tag_559\n      jumpi\n        /* \"contracts/roy.sol\":8083:8087  refs */\n      dup3\n        /* \"contracts/roy.sol\":8088:8089  i */\n      dup2\n        /* \"contracts/roy.sol\":8083:8090  refs[i] */\n      dup2\n      sload\n      dup2\n      lt\n      tag_562\n      jumpi\n      tag_562\n      tag_195\n      jump\t// in\n    tag_562:\n      0x00\n      swap2\n      dup3\n      mstore\n      0x20\n      swap1\n      swap2\n      keccak256\n      0x03\n      swap1\n      swap2\n      mul\n      add\n        /* \"contracts/roy.sol\":8083:8106  refs[i].referralAddress */\n      sload\n        /* \"contracts/roy.sol\":8060:8080  referralAddresses[i] */\n      dup7\n      mload\n      sub(shl(0xa0, 0x01), 0x01)\n        /* \"contracts/roy.sol\":8083:8106  refs[i].referralAddress */\n      swap1\n      swap2\n      and\n      swap1\n        /* \"contracts/roy.sol\":8060:8077  referralAddresses */\n      dup8\n      swap1\n        /* \"contracts/roy.sol\":8078:8079  i */\n      dup4\n      swap1\n        /* \"contracts/roy.sol\":8060:8080  referralAddresses[i] */\n      dup2\n      lt\n      tag_565\n      jumpi\n      tag_565\n      tag_195\n      jump\t// in\n    tag_565:\n      0x20\n      mul\n      0x20\n      add\n      add\n        /* \"contracts/roy.sol\":8060:8106  referralAddresses[i] = refs[i].referralAddress */\n      swap1\n      sub(shl(0xa0, 0x01), 0x01)\n      and\n      swap1\n      dup2\n      sub(shl(0xa0, 0x01), 0x01)\n      and\n      dup2\n      mstore\n      pop\n      pop\n        /* \"contracts/roy.sol\":8133:8137  refs */\n      dup3\n        /* \"contracts/roy.sol\":8138:8139  i */\n      dup2\n        /* \"contracts/roy.sol\":8133:8140  refs[i] */\n      dup2\n      sload\n      dup2\n      lt\n      tag_567\n      jumpi\n      tag_567\n      tag_195\n      jump\t// in\n    tag_567:\n      swap1\n      0x00\n      mstore\n      keccak256(0x00, 0x20)\n      swap1\n      0x03\n      mul\n      add\n        /* \"contracts/roy.sol\":8133:8153  refs[i].incomeEarned */\n      0x01\n      add\n      sload\n        /* \"contracts/roy.sol\":8120:8127  incomes */\n      dup6\n        /* \"contracts/roy.sol\":8128:8129  i */\n      dup3\n        /* \"contracts/roy.sol\":8120:8130  incomes[i] */\n      dup2\n      mload\n      dup2\n      lt\n      tag_570\n      jumpi\n      tag_570\n      tag_195\n      jump\t// in\n    tag_570:\n      0x20\n      mul\n      0x20\n      add\n      add\n        /* \"contracts/roy.sol\":8120:8153  incomes[i] = refs[i].incomeEarned */\n      dup2\n      dup2\n      mstore\n      pop\n      pop\n        /* \"contracts/roy.sol\":8183:8187  refs */\n      dup3\n        /* \"contracts/roy.sol\":8188:8189  i */\n      dup2\n        /* \"contracts/roy.sol\":8183:8190  refs[i] */\n      dup2\n      sload\n      dup2\n      lt\n      tag_572\n      jumpi\n      tag_572\n      tag_195\n      jump\t// in\n    tag_572:\n      swap1\n      0x00\n      mstore\n      keccak256(0x00, 0x20)\n      swap1\n      0x03\n      mul\n      add\n        /* \"contracts/roy.sol\":8183:8200  refs[i].timestamp */\n      0x02\n      add\n      sload\n        /* \"contracts/roy.sol\":8167:8177  timestamps */\n      dup5\n        /* \"contracts/roy.sol\":8178:8179  i */\n      dup3\n        /* \"contracts/roy.sol\":8167:8180  timestamps[i] */\n      dup2\n      mload\n      dup2\n      lt\n      tag_575\n      jumpi\n      tag_575\n      tag_195\n      jump\t// in\n    tag_575:\n      0x20\n      swap1\n      dup2\n      mul\n      swap2\n      swap1\n      swap2\n      add\n      add\n        /* \"contracts/roy.sol\":8167:8200  timestamps[i] = refs[i].timestamp */\n      mstore\n        /* \"contracts/roy.sol\":8041:8044  i++ */\n      0x01\n      add\n        /* \"contracts/roy.sol\":8010:8211  for (uint256 i = 0; i < count; i++) {... */\n      jump(tag_558)\n    tag_559:\n      pop\n        /* \"contracts/roy.sol\":8221:8268  return (referralAddresses, incomes, timestamps) */\n      pop\n      pop\n        /* \"contracts/roy.sol\":7531:8275  function getReferralIncomeDetails(address user)... */\n      swap2\n      swap4\n      swap1\n      swap3\n      pop\n      jump\t// out\n        /* \"contracts/roy.sol\":1818:1843  address[] public allUsers */\n    tag_123:\n      0x08\n      dup2\n      dup2\n      sload\n      dup2\n      lt\n      tag_576\n      jumpi\n      0x00\n      dup1\n      revert\n    tag_576:\n      0x00\n      swap2\n      dup3\n      mstore\n      0x20\n      swap1\n      swap2\n      keccak256\n      add\n      sload\n      sub(shl(0xa0, 0x01), 0x01)\n      and\n      swap1\n      pop\n      dup2\n      jump\t// out\n        /* \"contracts/roy.sol\":6362:7337  function getEstimatedReturn(uint256 amount, uint256 numDays)... */\n    tag_140:\n        /* \"contracts/roy.sol\":6470:6486  uint256 interest */\n      0x00\n        /* \"contracts/roy.sol\":6488:6507  uint256 totalReturn */\n      0x00\n        /* \"contracts/roy.sol\":6540:6541  0 */\n      0x00\n        /* \"contracts/roy.sol\":6531:6537  amount */\n      dup5\n        /* \"contracts/roy.sol\":6531:6541  amount > 0 */\n      gt\n        /* \"contracts/roy.sol\":6523:6575  require(amount > 0, \"Amount must be greater than 0\") */\n      tag_580\n      jumpi\n      mload(0x40)\n      shl(0xe5, 0x461bcd)\n      dup2\n      mstore\n        /* \"#utility.yul\":19862:19864   */\n      0x20\n        /* \"contracts/roy.sol\":6523:6575  require(amount > 0, \"Amount must be greater than 0\") */\n      0x04\n      dup3\n      add\n        /* \"#utility.yul\":19844:19865   */\n      mstore\n        /* \"#utility.yul\":19901:19903   */\n      0x1d\n        /* \"#utility.yul\":19881:19899   */\n      0x24\n      dup3\n      add\n        /* \"#utility.yul\":19874:19904   */\n      mstore\n        /* \"#utility.yul\":19940:19971   */\n      0x416d6f756e74206d7573742062652067726561746572207468616e2030000000\n        /* \"#utility.yul\":19920:19938   */\n      0x44\n      dup3\n      add\n        /* \"#utility.yul\":19913:19972   */\n      mstore\n        /* \"#utility.yul\":19989:20007   */\n      0x64\n      add\n        /* \"contracts/roy.sol\":6523:6575  require(amount > 0, \"Amount must be greater than 0\") */\n      tag_201\n        /* \"#utility.yul\":19660:20013   */\n      jump\n        /* \"contracts/roy.sol\":6523:6575  require(amount > 0, \"Amount must be greater than 0\") */\n    tag_580:\n        /* \"contracts/roy.sol\":6615:6616  0 */\n      0x00\n        /* \"contracts/roy.sol\":6593:6612  stakingAPY[numDays] */\n      dup4\n      dup2\n      mstore\n        /* \"contracts/roy.sol\":6593:6603  stakingAPY */\n      0x06\n        /* \"contracts/roy.sol\":6593:6612  stakingAPY[numDays] */\n      0x20\n      mstore\n      0x40\n      swap1\n      keccak256\n      sload\n        /* \"contracts/roy.sol\":6585:6645  require(stakingAPY[numDays] > 0, \"Invalid staking duration\") */\n      tag_583\n      jumpi\n      mload(0x40)\n      shl(0xe5, 0x461bcd)\n      dup2\n      mstore\n        /* \"#utility.yul\":17328:17330   */\n      0x20\n        /* \"contracts/roy.sol\":6585:6645  require(stakingAPY[numDays] > 0, \"Invalid staking duration\") */\n      0x04\n      dup3\n      add\n        /* \"#utility.yul\":17310:17331   */\n      mstore\n        /* \"#utility.yul\":17367:17369   */\n      0x18\n        /* \"#utility.yul\":17347:17365   */\n      0x24\n      dup3\n      add\n        /* \"#utility.yul\":17340:17370   */\n      mstore\n      shl(0x41, 0x24b73b30b634b21039ba30b5b4b73390323ab930ba34b7b7)\n        /* \"#utility.yul\":17386:17404   */\n      0x44\n      dup3\n      add\n        /* \"#utility.yul\":17379:17433   */\n      mstore\n        /* \"#utility.yul\":17450:17468   */\n      0x64\n      add\n        /* \"contracts/roy.sol\":6585:6645  require(stakingAPY[numDays] > 0, \"Invalid staking duration\") */\n      tag_201\n        /* \"#utility.yul\":17126:17474   */\n      jump\n        /* \"contracts/roy.sol\":6585:6645  require(stakingAPY[numDays] > 0, \"Invalid staking duration\") */\n    tag_583:\n        /* \"contracts/roy.sol\":6656:6667  uint256 apy */\n      0x00\n        /* \"contracts/roy.sol\":6670:6689  stakingAPY[numDays] */\n      dup4\n      dup2\n      mstore\n        /* \"contracts/roy.sol\":6670:6680  stakingAPY */\n      0x06\n        /* \"contracts/roy.sol\":6670:6689  stakingAPY[numDays] */\n      0x20\n      mstore\n      0x40\n      dup2\n      keccak256\n      sload\n      swap1\n        /* \"contracts/roy.sol\":6744:6746  30 */\n      0x1e\n        /* \"contracts/roy.sol\":6733:6746  numDays == 30 */\n      dup6\n      swap1\n      sub\n        /* \"contracts/roy.sol\":6729:7230  if (numDays == 30) {... */\n      tag_585\n      jumpi\n      pop\n        /* \"contracts/roy.sol\":6776:6784  100 * 30 */\n      0x0bb8\n        /* \"contracts/roy.sol\":6729:7230  if (numDays == 30) {... */\n      jump(tag_596)\n    tag_585:\n        /* \"contracts/roy.sol\":6805:6812  numDays */\n      dup5\n        /* \"contracts/roy.sol\":6816:6818  60 */\n      0x3c\n        /* \"contracts/roy.sol\":6805:6818  numDays == 60 */\n      sub\n        /* \"contracts/roy.sol\":6801:7230  if (numDays == 60) {... */\n      tag_587\n      jumpi\n      pop\n        /* \"contracts/roy.sol\":6848:6856  100 * 60 */\n      0x1770\n        /* \"contracts/roy.sol\":6801:7230  if (numDays == 60) {... */\n      jump(tag_596)\n    tag_587:\n        /* \"contracts/roy.sol\":6877:6884  numDays */\n      dup5\n        /* \"contracts/roy.sol\":6888:6890  90 */\n      0x5a\n        /* \"contracts/roy.sol\":6877:6890  numDays == 90 */\n      sub\n        /* \"contracts/roy.sol\":6873:7230  if (numDays == 90) {... */\n      tag_589\n      jumpi\n      pop\n        /* \"contracts/roy.sol\":6920:6928  100 * 90 */\n      0x2328\n        /* \"contracts/roy.sol\":6873:7230  if (numDays == 90) {... */\n      jump(tag_596)\n    tag_589:\n        /* \"contracts/roy.sol\":6949:6956  numDays */\n      dup5\n        /* \"contracts/roy.sol\":6960:6963  120 */\n      0x78\n        /* \"contracts/roy.sol\":6949:6963  numDays == 120 */\n      sub\n        /* \"contracts/roy.sol\":6945:7230  if (numDays == 120) {... */\n      tag_591\n      jumpi\n      pop\n        /* \"contracts/roy.sol\":6993:7002  100 * 120 */\n      0x2ee0\n        /* \"contracts/roy.sol\":6945:7230  if (numDays == 120) {... */\n      jump(tag_596)\n    tag_591:\n        /* \"contracts/roy.sol\":7023:7030  numDays */\n      dup5\n        /* \"contracts/roy.sol\":7034:7037  180 */\n      0xb4\n        /* \"contracts/roy.sol\":7023:7037  numDays == 180 */\n      sub\n        /* \"contracts/roy.sol\":7019:7230  if (numDays == 180) {... */\n      tag_593\n      jumpi\n      pop\n        /* \"contracts/roy.sol\":7067:7076  100 * 180 */\n      0x4650\n        /* \"contracts/roy.sol\":7019:7230  if (numDays == 180) {... */\n      jump(tag_596)\n    tag_593:\n        /* \"contracts/roy.sol\":7097:7104  numDays */\n      dup5\n        /* \"contracts/roy.sol\":7108:7111  365 */\n      0x016d\n        /* \"contracts/roy.sol\":7097:7111  numDays == 365 */\n      sub\n        /* \"contracts/roy.sol\":7093:7230  if (numDays == 365) {... */\n      tag_259\n      jumpi\n      pop\n        /* \"contracts/roy.sol\":7141:7150  100 * 365 */\n      0x8e94\n        /* \"contracts/roy.sol\":7093:7230  if (numDays == 365) {... */\n    tag_596:\n        /* \"contracts/roy.sol\":7278:7289  denominator */\n      dup1\n        /* \"contracts/roy.sol\":7267:7274  numDays */\n      dup6\n        /* \"contracts/roy.sol\":7252:7264  amount * apy */\n      tag_598\n        /* \"contracts/roy.sol\":7261:7264  apy */\n      dup5\n        /* \"contracts/roy.sol\":7252:7258  amount */\n      dup10\n        /* \"contracts/roy.sol\":7252:7264  amount * apy */\n      tag_219\n      jump\t// in\n    tag_598:\n        /* \"contracts/roy.sol\":7252:7274  amount * apy * numDays */\n      tag_599\n      swap2\n      swap1\n      tag_219\n      jump\t// in\n    tag_599:\n        /* \"contracts/roy.sol\":7251:7289  (amount * apy * numDays) / denominator */\n      tag_600\n      swap2\n      swap1\n      tag_272\n      jump\t// in\n    tag_600:\n        /* \"contracts/roy.sol\":7240:7289  interest = (amount * apy * numDays) / denominator */\n      swap4\n      pop\n        /* \"contracts/roy.sol\":7313:7330  amount + interest */\n      tag_601\n        /* \"contracts/roy.sol\":7240:7289  interest = (amount * apy * numDays) / denominator */\n      dup5\n        /* \"contracts/roy.sol\":7313:7319  amount */\n      dup8\n        /* \"contracts/roy.sol\":7313:7330  amount + interest */\n      tag_224\n      jump\t// in\n    tag_601:\n        /* \"contracts/roy.sol\":7299:7330  totalReturn = amount + interest */\n      swap3\n      pop\n        /* \"contracts/roy.sol\":6513:7337  {... */\n      pop\n      pop\n        /* \"contracts/roy.sol\":6362:7337  function getEstimatedReturn(uint256 amount, uint256 numDays)... */\n      swap3\n      pop\n      swap3\n      swap1\n      pop\n      jump\t// out\n        /* \"contracts/roy.sol\":7347:7520  function getUpline(address user) external view returns (address) {... */\n    tag_158:\n      sub(shl(0xa0, 0x01), 0x01)\n        /* \"contracts/roy.sol\":7430:7441  users[user] */\n      dup2\n      and\n        /* \"contracts/roy.sol\":7403:7410  address */\n      0x00\n        /* \"contracts/roy.sol\":7430:7441  users[user] */\n      swap1\n      dup2\n      mstore\n        /* \"contracts/roy.sol\":7430:7435  users */\n      0x03\n        /* \"contracts/roy.sol\":7430:7441  users[user] */\n      0x20\n      mstore\n      0x40\n      dup2\n      keccak256\n        /* \"contracts/roy.sol\":7430:7452  users[user].registered */\n      0x04\n      add\n      sload\n      0xff\n      and\n        /* \"contracts/roy.sol\":7422:7476  require(users[user].registered, \"User not registered\") */\n      tag_606\n      jumpi\n      mload(0x40)\n      shl(0xe5, 0x461bcd)\n      dup2\n      mstore\n        /* \"#utility.yul\":20220:20222   */\n      0x20\n        /* \"contracts/roy.sol\":7422:7476  require(users[user].registered, \"User not registered\") */\n      0x04\n      dup3\n      add\n        /* \"#utility.yul\":20202:20223   */\n      mstore\n        /* \"#utility.yul\":20259:20261   */\n      0x13\n        /* \"#utility.yul\":20239:20257   */\n      0x24\n      dup3\n      add\n        /* \"#utility.yul\":20232:20262   */\n      mstore\n      shl(0x6a, 0x155cd95c881b9bdd081c9959da5cdd195c9959)\n        /* \"#utility.yul\":20278:20296   */\n      0x44\n      dup3\n      add\n        /* \"#utility.yul\":20271:20320   */\n      mstore\n        /* \"#utility.yul\":20337:20355   */\n      0x64\n      add\n        /* \"contracts/roy.sol\":7422:7476  require(users[user].registered, \"User not registered\") */\n      tag_201\n        /* \"#utility.yul\":20018:20361   */\n      jump\n        /* \"contracts/roy.sol\":7422:7476  require(users[user].registered, \"User not registered\") */\n    tag_606:\n      pop\n      sub(shl(0xa0, 0x01), 0x01)\n        /* \"contracts/roy.sol\":7493:7504  users[user] */\n      swap1\n      dup2\n      and\n      0x00\n      swap1\n      dup2\n      mstore\n        /* \"contracts/roy.sol\":7493:7498  users */\n      0x03\n        /* \"contracts/roy.sol\":7493:7504  users[user] */\n      0x20\n      mstore\n      0x40\n      swap1\n      keccak256\n        /* \"contracts/roy.sol\":7493:7513  users[user].referrer */\n      sload\n      and\n      swap1\n        /* \"contracts/roy.sol\":7347:7520  function getUpline(address user) external view returns (address) {... */\n      jump\t// out\n        /* \"contracts/roy.sol\":19335:19648  function ownerTransfer(address to, uint256 amount) external onlyOwner {... */\n    tag_162:\n        /* \"contracts/roy.sol\":2201:2206  owner */\n      and(sub(shl(0xa0, 0x01), 0x01), sload(0x00))\n        /* \"contracts/roy.sol\":2187:2197  msg.sender */\n      caller\n        /* \"contracts/roy.sol\":2187:2206  msg.sender == owner */\n      eq\n        /* \"contracts/roy.sol\":2179:2235  require(msg.sender == owner, \"Only owner can call this\") */\n      tag_610\n      jumpi\n      mload(0x40)\n      shl(0xe5, 0x461bcd)\n      dup2\n      mstore\n      0x04\n      add\n      tag_201\n      swap1\n      tag_334\n      jump\t// in\n    tag_610:\n      sub(shl(0xa0, 0x01), 0x01)\n        /* \"contracts/roy.sol\":19423:19439  to != address(0) */\n      dup3\n      and\n        /* \"contracts/roy.sol\":19415:19469  require(to != address(0), \"Invalid recipient address\") */\n      tag_613\n      jumpi\n      mload(0x40)\n      shl(0xe5, 0x461bcd)\n      dup2\n      mstore\n        /* \"#utility.yul\":20568:20570   */\n      0x20\n        /* \"contracts/roy.sol\":19415:19469  require(to != address(0), \"Invalid recipient address\") */\n      0x04\n      dup3\n      add\n        /* \"#utility.yul\":20550:20571   */\n      mstore\n        /* \"#utility.yul\":20607:20609   */\n      0x19\n        /* \"#utility.yul\":20587:20605   */\n      0x24\n      dup3\n      add\n        /* \"#utility.yul\":20580:20610   */\n      mstore\n        /* \"#utility.yul\":20646:20673   */\n      0x496e76616c696420726563697069656e74206164647265737300000000000000\n        /* \"#utility.yul\":20626:20644   */\n      0x44\n      dup3\n      add\n        /* \"#utility.yul\":20619:20674   */\n      mstore\n        /* \"#utility.yul\":20691:20709   */\n      0x64\n      add\n        /* \"contracts/roy.sol\":19415:19469  require(to != address(0), \"Invalid recipient address\") */\n      tag_201\n        /* \"#utility.yul\":20366:20715   */\n      jump\n        /* \"contracts/roy.sol\":19415:19469  require(to != address(0), \"Invalid recipient address\") */\n    tag_613:\n        /* \"contracts/roy.sol\":19496:19497  0 */\n      0x00\n        /* \"contracts/roy.sol\":19487:19493  amount */\n      dup2\n        /* \"contracts/roy.sol\":19487:19497  amount > 0 */\n      gt\n        /* \"contracts/roy.sol\":19479:19534  require(amount > 0, \"Amount must be greater than zero\") */\n      tag_616\n      jumpi\n      mload(0x40)\n      shl(0xe5, 0x461bcd)\n      dup2\n      mstore\n        /* \"#utility.yul\":20922:20924   */\n      0x20\n        /* \"contracts/roy.sol\":19479:19534  require(amount > 0, \"Amount must be greater than zero\") */\n      0x04\n      dup3\n      add\n        /* \"#utility.yul\":20904:20925   */\n      dup2\n      swap1\n      mstore\n        /* \"#utility.yul\":20941:20959   */\n      0x24\n      dup3\n      add\n        /* \"#utility.yul\":20934:20964   */\n      mstore\n        /* \"#utility.yul\":21000:21034   */\n      0x416d6f756e74206d7573742062652067726561746572207468616e207a65726f\n        /* \"#utility.yul\":20980:20998   */\n      0x44\n      dup3\n      add\n        /* \"#utility.yul\":20973:21035   */\n      mstore\n        /* \"#utility.yul\":21052:21070   */\n      0x64\n      add\n        /* \"contracts/roy.sol\":19479:19534  require(amount > 0, \"Amount must be greater than zero\") */\n      tag_201\n        /* \"#utility.yul\":20720:21076   */\n      jump\n        /* \"contracts/roy.sol\":19479:19534  require(amount > 0, \"Amount must be greater than zero\") */\n    tag_616:\n        /* \"contracts/roy.sol\":19560:19569  usdtToken */\n      sload(0x02)\n        /* \"contracts/roy.sol\":19560:19590  usdtToken.transfer(to, amount) */\n      mload(0x40)\n      shl(0xe0, 0xa9059cbb)\n      dup2\n      mstore\n      sub(shl(0xa0, 0x01), 0x01)\n        /* \"#utility.yul\":10496:10528   */\n      dup5\n      dup2\n      and\n        /* \"contracts/roy.sol\":19560:19590  usdtToken.transfer(to, amount) */\n      0x04\n      dup4\n      add\n        /* \"#utility.yul\":10478:10529   */\n      mstore\n        /* \"#utility.yul\":10545:10563   */\n      0x24\n      dup3\n      add\n        /* \"#utility.yul\":10538:10572   */\n      dup5\n      swap1\n      mstore\n        /* \"contracts/roy.sol\":19545:19557  bool success */\n      0x00\n      swap3\n        /* \"contracts/roy.sol\":19560:19569  usdtToken */\n      and\n      swap1\n        /* \"contracts/roy.sol\":19560:19578  usdtToken.transfer */\n      0xa9059cbb\n      swap1\n        /* \"#utility.yul\":10451:10469   */\n      0x44\n      add\n        /* \"contracts/roy.sol\":19560:19590  usdtToken.transfer(to, amount) */\n      0x20\n      mload(0x40)\n      dup1\n      dup4\n      sub\n      dup2\n      0x00\n      dup8\n      gas\n      call\n      iszero\n      dup1\n      iszero\n      tag_621\n      jumpi\n      returndatacopy(0x00, 0x00, returndatasize)\n      revert(0x00, returndatasize)\n    tag_621:\n      pop\n      pop\n      pop\n      pop\n      mload(0x40)\n      returndatasize\n      not(0x1f)\n      0x1f\n      dup3\n      add\n      and\n      dup3\n      add\n      dup1\n      0x40\n      mstore\n      pop\n      dup2\n      add\n      swap1\n      tag_622\n      swap2\n      swap1\n      tag_293\n      jump\t// in\n    tag_622:\n        /* \"contracts/roy.sol\":19545:19590  bool success = usdtToken.transfer(to, amount) */\n      swap1\n      pop\n        /* \"contracts/roy.sol\":19608:19615  success */\n      dup1\n        /* \"contracts/roy.sol\":19600:19641  require(success, \"Token transfer failed\") */\n      tag_623\n      jumpi\n      mload(0x40)\n      shl(0xe5, 0x461bcd)\n      dup2\n      mstore\n        /* \"#utility.yul\":21283:21285   */\n      0x20\n        /* \"contracts/roy.sol\":19600:19641  require(success, \"Token transfer failed\") */\n      0x04\n      dup3\n      add\n        /* \"#utility.yul\":21265:21286   */\n      mstore\n        /* \"#utility.yul\":21322:21324   */\n      0x15\n        /* \"#utility.yul\":21302:21320   */\n      0x24\n      dup3\n      add\n        /* \"#utility.yul\":21295:21325   */\n      mstore\n      shl(0x5a, 0x151bdad95b881d1c985b9cd9995c8819985a5b1959)\n        /* \"#utility.yul\":21341:21359   */\n      0x44\n      dup3\n      add\n        /* \"#utility.yul\":21334:21385   */\n      mstore\n        /* \"#utility.yul\":21402:21420   */\n      0x64\n      add\n        /* \"contracts/roy.sol\":19600:19641  require(success, \"Token transfer failed\") */\n      tag_201\n        /* \"#utility.yul\":21081:21426   */\n      jump\n        /* \"contracts/roy.sol\":19600:19641  require(success, \"Token transfer failed\") */\n    tag_623:\n        /* \"contracts/roy.sol\":19405:19648  {... */\n      pop\n        /* \"contracts/roy.sol\":19335:19648  function ownerTransfer(address to, uint256 amount) external onlyOwner {... */\n      pop\n      pop\n      jump\t// out\n        /* \"contracts/roy.sol\":1849:1895  uint8[5] public levelRewards = [5, 3, 2, 1, 1] */\n    tag_165:\n      0x09\n      dup2\n      0x05\n      dup2\n      lt\n      tag_626\n      jumpi\n      0x00\n      dup1\n      revert\n    tag_626:\n      0x20\n      swap2\n      dup3\n      dup3\n      div\n      add\n      swap2\n      swap1\n      mod\n      swap2\n      pop\n      sload\n      swap1\n      0x0100\n      exp\n      swap1\n      div\n      0xff\n      and\n      dup2\n      jump\t// out\n        /* \"contracts/roy.sol\":16874:18942  function getLevelIncomeDistribution(address _user)... */\n    tag_169:\n        /* \"contracts/roy.sol\":16972:16996  LevelIncomeData[] memory */\n      0x60\n        /* \"contracts/roy.sol\":17012:17030  uint256 totalCount */\n      0x00\n      dup1\n        /* \"contracts/roy.sol\":17045:17585  for (uint256 i = 0; i < allUsers.length; i++) {... */\n    tag_629:\n        /* \"contracts/roy.sol\":17069:17077  allUsers */\n      0x08\n        /* \"contracts/roy.sol\":17069:17084  allUsers.length */\n      sload\n        /* \"contracts/roy.sol\":17065:17084  i < allUsers.length */\n      dup2\n      lt\n        /* \"contracts/roy.sol\":17045:17585  for (uint256 i = 0; i < allUsers.length; i++) {... */\n      iszero\n      tag_630\n      jumpi\n        /* \"contracts/roy.sol\":17105:17119  address staker */\n      0x00\n        /* \"contracts/roy.sol\":17122:17130  allUsers */\n      0x08\n        /* \"contracts/roy.sol\":17131:17132  i */\n      dup3\n        /* \"contracts/roy.sol\":17122:17133  allUsers[i] */\n      dup2\n      sload\n      dup2\n      lt\n      tag_633\n      jumpi\n      tag_633\n      tag_195\n      jump\t// in\n    tag_633:\n      0x00\n      swap2\n      dup3\n      mstore\n      0x20\n      dup1\n      dup4\n      keccak256\n      swap1\n      swap2\n      add\n      sload\n      sub(shl(0xa0, 0x01), 0x01)\n      and\n        /* \"contracts/roy.sol\":17171:17184  users[staker] */\n      dup1\n      dup4\n      mstore\n        /* \"contracts/roy.sol\":17171:17176  users */\n      0x03\n        /* \"contracts/roy.sol\":17171:17184  users[staker] */\n      dup3\n      mstore\n      0x40\n      dup1\n      dup5\n      keccak256\n        /* \"contracts/roy.sol\":17122:17133  allUsers[i] */\n      0x01\n        /* \"contracts/roy.sol\":17171:17191  users[staker].stakes */\n      add\n        /* \"contracts/roy.sol\":17147:17191  Stake[] memory stakes = users[staker].stakes */\n      dup1\n      sload\n      dup3\n      mload\n      dup2\n      dup7\n      mul\n      dup2\n      add\n      dup7\n      add\n      swap1\n      swap4\n      mstore\n      dup1\n      dup4\n      mstore\n        /* \"contracts/roy.sol\":17122:17133  allUsers[i] */\n      swap3\n      swap6\n      pop\n        /* \"contracts/roy.sol\":17147:17191  Stake[] memory stakes = users[staker].stakes */\n      swap1\n      swap3\n        /* \"contracts/roy.sol\":17171:17191  users[staker].stakes */\n      swap1\n      swap2\n        /* \"contracts/roy.sol\":17147:17191  Stake[] memory stakes = users[staker].stakes */\n      swap1\n        /* \"contracts/roy.sol\":17122:17133  allUsers[i] */\n      dup5\n      swap1\n        /* \"contracts/roy.sol\":17147:17191  Stake[] memory stakes = users[staker].stakes */\n      dup5\n      add\n    tag_635:\n      dup3\n      dup3\n      lt\n      iszero\n      tag_636\n      jumpi\n      0x00\n      dup5\n      dup2\n      mstore\n      0x20\n      swap1\n      dup2\n      swap1\n      keccak256\n      0x40\n      dup1\n      mload\n      0xc0\n      dup2\n      add\n      dup3\n      mstore\n      0x06\n      dup7\n      mul\n      swap1\n      swap3\n      add\n      dup1\n      sload\n      dup4\n      mstore\n      0x01\n      dup1\n      dup3\n      add\n      sload\n      dup5\n      dup7\n      add\n      mstore\n      0x02\n      dup3\n      add\n      sload\n      swap3\n      dup5\n      add\n      swap3\n      swap1\n      swap3\n      mstore\n      0x03\n      dup2\n      add\n      sload\n      0x60\n      dup5\n      add\n      mstore\n      0x04\n      dup2\n      add\n      sload\n      0x80\n      dup5\n      add\n      mstore\n      0x05\n      add\n      sload\n      0xff\n      and\n      iszero\n      iszero\n      0xa0\n      dup4\n      add\n      mstore\n      swap1\n      dup4\n      mstore\n      swap1\n      swap3\n      add\n      swap2\n      add\n      jump(tag_635)\n    tag_636:\n      pop\n      pop\n      pop\n      pop\n      sub(shl(0xa0, 0x01), 0x01)\n        /* \"contracts/roy.sol\":17222:17235  users[staker] */\n      dup4\n      dup2\n      and\n        /* \"contracts/roy.sol\":17205:17219  address upline */\n      0x00\n        /* \"contracts/roy.sol\":17222:17235  users[staker] */\n      swap1\n      dup2\n      mstore\n        /* \"contracts/roy.sol\":17222:17227  users */\n      0x03\n        /* \"contracts/roy.sol\":17222:17235  users[staker] */\n      0x20\n      mstore\n      0x40\n      dup2\n      keccak256\n        /* \"contracts/roy.sol\":17222:17244  users[staker].referrer */\n      sload\n        /* \"contracts/roy.sol\":17147:17191  Stake[] memory stakes = users[staker].stakes */\n      swap3\n      swap4\n      pop\n        /* \"contracts/roy.sol\":17222:17244  users[staker].referrer */\n      swap2\n      and\n      swap1\n        /* \"contracts/roy.sol\":17259:17575  for (... */\n    tag_638:\n        /* \"contracts/roy.sol\":17322:17341  levelRewards.length */\n      0x05\n        /* \"contracts/roy.sol\":17314:17319  level */\n      dup2\n        /* \"contracts/roy.sol\":17314:17341  level < levelRewards.length */\n      0xff\n      and\n      lt\n        /* \"contracts/roy.sol\":17314:17365  level < levelRewards.length && upline != address(0) */\n      dup1\n      iszero\n      tag_641\n      jumpi\n      pop\n      sub(shl(0xa0, 0x01), 0x01)\n        /* \"contracts/roy.sol\":17345:17365  upline != address(0) */\n      dup3\n      and\n      iszero\n      iszero\n        /* \"contracts/roy.sol\":17314:17365  level < levelRewards.length && upline != address(0) */\n    tag_641:\n        /* \"contracts/roy.sol\":17259:17575  for (... */\n      iszero\n      tag_639\n      jumpi\n        /* \"contracts/roy.sol\":17437:17442  _user */\n      dup8\n      sub(shl(0xa0, 0x01), 0x01)\n        /* \"contracts/roy.sol\":17427:17442  upline == _user */\n      and\n        /* \"contracts/roy.sol\":17427:17433  upline */\n      dup3\n      sub(shl(0xa0, 0x01), 0x01)\n        /* \"contracts/roy.sol\":17427:17442  upline == _user */\n      and\n      sub\n        /* \"contracts/roy.sol\":17423:17512  if (upline == _user) {... */\n      tag_642\n      jumpi\n        /* \"contracts/roy.sol\":17480:17493  stakes.length */\n      dup3\n      mload\n        /* \"contracts/roy.sol\":17466:17493  totalCount += stakes.length */\n      tag_643\n      swap1\n      dup8\n      tag_224\n      jump\t// in\n    tag_643:\n      swap6\n      pop\n        /* \"contracts/roy.sol\":17423:17512  if (upline == _user) {... */\n    tag_642:\n      sub(shl(0xa0, 0x01), 0x01)\n        /* \"contracts/roy.sol\":17538:17551  users[upline] */\n      swap2\n      dup3\n      and\n      0x00\n      swap1\n      dup2\n      mstore\n        /* \"contracts/roy.sol\":17538:17543  users */\n      0x03\n        /* \"contracts/roy.sol\":17538:17551  users[upline] */\n      0x20\n      mstore\n      0x40\n      swap1\n      keccak256\n        /* \"contracts/roy.sol\":17538:17560  users[upline].referrer */\n      sload\n      swap1\n      swap2\n      and\n      swap1\n        /* \"contracts/roy.sol\":17383:17390  level++ */\n      dup1\n      tag_644\n      dup2\n      tag_545\n      jump\t// in\n    tag_644:\n      swap2\n      pop\n      pop\n        /* \"contracts/roy.sol\":17259:17575  for (... */\n      jump(tag_638)\n    tag_639:\n      pop\n      pop\n        /* \"contracts/roy.sol\":17086:17089  i++ */\n      0x01\n      swap1\n      swap3\n      add\n      swap2\n      pop\n        /* \"contracts/roy.sol\":17045:17585  for (uint256 i = 0; i < allUsers.length; i++) {... */\n      tag_629\n      swap1\n      pop\n      jump\n    tag_630:\n      pop\n        /* \"contracts/roy.sol\":17595:17630  LevelIncomeData[] memory incomeData */\n      0x00\n        /* \"contracts/roy.sol\":17655:17665  totalCount */\n      dup2\n        /* \"contracts/roy.sol\":17633:17666  new LevelIncomeData[](totalCount) */\n      0xffffffffffffffff\n      dup2\n      gt\n      iszero\n      tag_646\n      jumpi\n      tag_646\n      tag_188\n      jump\t// in\n    tag_646:\n      mload(0x40)\n      swap1\n      dup1\n      dup3\n      mstore\n      dup1\n      0x20\n      mul\n      0x20\n      add\n      dup3\n      add\n      0x40\n      mstore\n      dup1\n      iszero\n      tag_647\n      jumpi\n      dup2\n      0x20\n      add\n    tag_648:\n      tag_649\n      mload(0x40)\n      dup1\n      0xe0\n      add\n      0x40\n      mstore\n      dup1\n      and(sub(shl(0xa0, 0x01), 0x01), 0x00)\n      dup2\n      mstore\n      0x20\n      add\n      0x00\n      dup2\n      mstore\n      0x20\n      add\n      0x00\n      dup2\n      mstore\n      0x20\n      add\n      0x00\n      dup2\n      mstore\n      0x20\n      add\n      and(sub(shl(0xa0, 0x01), 0x01), 0x00)\n      dup2\n      mstore\n      0x20\n      add\n      0x00\n      dup2\n      mstore\n      0x20\n      add\n      and(0xff, 0x00)\n      dup2\n      mstore\n      pop\n      swap1\n      jump\n    tag_649:\n      dup2\n      mstore\n      0x20\n      add\n      swap1\n      0x01\n      swap1\n      sub\n      swap1\n      dup2\n      tag_648\n      jumpi\n      swap1\n      pop\n    tag_647:\n      pop\n        /* \"contracts/roy.sol\":17595:17666  LevelIncomeData[] memory incomeData = new LevelIncomeData[](totalCount) */\n      swap1\n      pop\n        /* \"contracts/roy.sol\":17676:17689  uint256 index */\n      0x00\n      dup1\n        /* \"contracts/roy.sol\":17704:18908  for (uint256 i = 0; i < allUsers.length; i++) {... */\n    tag_651:\n        /* \"contracts/roy.sol\":17728:17736  allUsers */\n      0x08\n        /* \"contracts/roy.sol\":17728:17743  allUsers.length */\n      sload\n        /* \"contracts/roy.sol\":17724:17743  i < allUsers.length */\n      dup2\n      lt\n        /* \"contracts/roy.sol\":17704:18908  for (uint256 i = 0; i < allUsers.length; i++) {... */\n      iszero\n      tag_652\n      jumpi\n        /* \"contracts/roy.sol\":17764:17778  address staker */\n      0x00\n        /* \"contracts/roy.sol\":17781:17789  allUsers */\n      0x08\n        /* \"contracts/roy.sol\":17790:17791  i */\n      dup3\n        /* \"contracts/roy.sol\":17781:17792  allUsers[i] */\n      dup2\n      sload\n      dup2\n      lt\n      tag_655\n      jumpi\n      tag_655\n      tag_195\n      jump\t// in\n    tag_655:\n      0x00\n      swap2\n      dup3\n      mstore\n      0x20\n      dup1\n      dup4\n      keccak256\n      swap1\n      swap2\n      add\n      sload\n      sub(shl(0xa0, 0x01), 0x01)\n      and\n        /* \"contracts/roy.sol\":17830:17843  users[staker] */\n      dup1\n      dup4\n      mstore\n        /* \"contracts/roy.sol\":17830:17835  users */\n      0x03\n        /* \"contracts/roy.sol\":17830:17843  users[staker] */\n      dup3\n      mstore\n      0x40\n      dup1\n      dup5\n      keccak256\n        /* \"contracts/roy.sol\":17781:17792  allUsers[i] */\n      0x01\n        /* \"contracts/roy.sol\":17830:17850  users[staker].stakes */\n      add\n        /* \"contracts/roy.sol\":17806:17850  Stake[] memory stakes = users[staker].stakes */\n      dup1\n      sload\n      dup3\n      mload\n      dup2\n      dup7\n      mul\n      dup2\n      add\n      dup7\n      add\n      swap1\n      swap4\n      mstore\n      dup1\n      dup4\n      mstore\n        /* \"contracts/roy.sol\":17781:17792  allUsers[i] */\n      swap3\n      swap6\n      pop\n        /* \"contracts/roy.sol\":17806:17850  Stake[] memory stakes = users[staker].stakes */\n      swap1\n      swap3\n        /* \"contracts/roy.sol\":17830:17850  users[staker].stakes */\n      swap1\n      swap2\n        /* \"contracts/roy.sol\":17806:17850  Stake[] memory stakes = users[staker].stakes */\n      swap1\n        /* \"contracts/roy.sol\":17781:17792  allUsers[i] */\n      dup5\n      swap1\n        /* \"contracts/roy.sol\":17806:17850  Stake[] memory stakes = users[staker].stakes */\n      dup5\n      add\n    tag_657:\n      dup3\n      dup3\n      lt\n      iszero\n      tag_658\n      jumpi\n      0x00\n      dup5\n      dup2\n      mstore\n      0x20\n      swap1\n      dup2\n      swap1\n      keccak256\n      0x40\n      dup1\n      mload\n      0xc0\n      dup2\n      add\n      dup3\n      mstore\n      0x06\n      dup7\n      mul\n      swap1\n      swap3\n      add\n      dup1\n      sload\n      dup4\n      mstore\n      0x01\n      dup1\n      dup3\n      add\n      sload\n      dup5\n      dup7\n      add\n      mstore\n      0x02\n      dup3\n      add\n      sload\n      swap3\n      dup5\n      add\n      swap3\n      swap1\n      swap3\n      mstore\n      0x03\n      dup2\n      add\n      sload\n      0x60\n      dup5\n      add\n      mstore\n      0x04\n      dup2\n      add\n      sload\n      0x80\n      dup5\n      add\n      mstore\n      0x05\n      add\n      sload\n      0xff\n      and\n      iszero\n      iszero\n      0xa0\n      dup4\n      add\n      mstore\n      swap1\n      dup4\n      mstore\n      swap1\n      swap3\n      add\n      swap2\n      add\n      jump(tag_657)\n    tag_658:\n      pop\n      pop\n      pop\n      pop\n      sub(shl(0xa0, 0x01), 0x01)\n        /* \"contracts/roy.sol\":17881:17894  users[staker] */\n      dup4\n      dup2\n      and\n        /* \"contracts/roy.sol\":17864:17878  address upline */\n      0x00\n        /* \"contracts/roy.sol\":17881:17894  users[staker] */\n      swap1\n      dup2\n      mstore\n        /* \"contracts/roy.sol\":17881:17886  users */\n      0x03\n        /* \"contracts/roy.sol\":17881:17894  users[staker] */\n      0x20\n      mstore\n      0x40\n      dup2\n      keccak256\n        /* \"contracts/roy.sol\":17881:17903  users[staker].referrer */\n      sload\n        /* \"contracts/roy.sol\":17806:17850  Stake[] memory stakes = users[staker].stakes */\n      swap3\n      swap4\n      pop\n        /* \"contracts/roy.sol\":17881:17903  users[staker].referrer */\n      swap2\n      and\n      swap1\n        /* \"contracts/roy.sol\":17918:18898  for (... */\n    tag_660:\n        /* \"contracts/roy.sol\":17981:18000  levelRewards.length */\n      0x05\n        /* \"contracts/roy.sol\":17973:17978  level */\n      dup2\n        /* \"contracts/roy.sol\":17973:18000  level < levelRewards.length */\n      0xff\n      and\n      lt\n        /* \"contracts/roy.sol\":17973:18024  level < levelRewards.length && upline != address(0) */\n      dup1\n      iszero\n      tag_663\n      jumpi\n      pop\n      sub(shl(0xa0, 0x01), 0x01)\n        /* \"contracts/roy.sol\":18004:18024  upline != address(0) */\n      dup3\n      and\n      iszero\n      iszero\n        /* \"contracts/roy.sol\":17973:18024  level < levelRewards.length && upline != address(0) */\n    tag_663:\n        /* \"contracts/roy.sol\":17918:18898  for (... */\n      iszero\n      tag_661\n      jumpi\n        /* \"contracts/roy.sol\":18096:18101  _user */\n      dup10\n      sub(shl(0xa0, 0x01), 0x01)\n        /* \"contracts/roy.sol\":18086:18101  upline == _user */\n      and\n        /* \"contracts/roy.sol\":18086:18092  upline */\n      dup3\n      sub(shl(0xa0, 0x01), 0x01)\n        /* \"contracts/roy.sol\":18086:18101  upline == _user */\n      and\n      sub\n        /* \"contracts/roy.sol\":18082:18835  if (upline == _user) {... */\n      tag_664\n      jumpi\n        /* \"contracts/roy.sol\":18130:18139  uint256 j */\n      0x00\n        /* \"contracts/roy.sol\":18125:18817  for (uint256 j = 0; j < stakes.length; j++) {... */\n    tag_665:\n        /* \"contracts/roy.sol\":18149:18155  stakes */\n      dup4\n        /* \"contracts/roy.sol\":18149:18162  stakes.length */\n      mload\n        /* \"contracts/roy.sol\":18145:18146  j */\n      dup2\n        /* \"contracts/roy.sol\":18145:18162  j < stakes.length */\n      lt\n        /* \"contracts/roy.sol\":18125:18817  for (uint256 j = 0; j < stakes.length; j++) {... */\n      iszero\n      tag_666\n      jumpi\n        /* \"contracts/roy.sol\":18195:18213  Stake memory stake */\n      0x00\n        /* \"contracts/roy.sol\":18216:18222  stakes */\n      dup5\n        /* \"contracts/roy.sol\":18223:18224  j */\n      dup3\n        /* \"contracts/roy.sol\":18216:18225  stakes[j] */\n      dup2\n      mload\n      dup2\n      lt\n      tag_669\n      jumpi\n      tag_669\n      tag_195\n      jump\t// in\n    tag_669:\n      0x20\n      mul\n      0x20\n      add\n      add\n      mload\n        /* \"contracts/roy.sol\":18195:18225  Stake memory stake = stakes[j] */\n      swap1\n      pop\n        /* \"contracts/roy.sol\":18251:18265  uint256 income */\n      0x00\n        /* \"contracts/roy.sol\":18335:18338  100 */\n      0x64\n        /* \"contracts/roy.sol\":18284:18296  levelRewards */\n      0x09\n        /* \"contracts/roy.sol\":18297:18302  level */\n      dup6\n        /* \"contracts/roy.sol\":18284:18303  levelRewards[level] */\n      0xff\n      and\n      0x05\n      dup2\n      lt\n      tag_671\n      jumpi\n      tag_671\n      tag_195\n      jump\t// in\n    tag_671:\n      0x20\n      swap2\n      dup3\n      dup3\n      div\n      add\n      swap2\n      swap1\n      mod\n      swap1\n      sload\n      swap1\n      0x0100\n      exp\n      swap1\n      div\n      0xff\n      and\n        /* \"contracts/roy.sol\":18269:18303  stake.amount * levelRewards[level] */\n      0xff\n      and\n        /* \"contracts/roy.sol\":18269:18274  stake */\n      dup4\n        /* \"contracts/roy.sol\":18269:18281  stake.amount */\n      0x40\n      add\n      mload\n        /* \"contracts/roy.sol\":18269:18303  stake.amount * levelRewards[level] */\n      tag_673\n      swap2\n      swap1\n      tag_219\n      jump\t// in\n    tag_673:\n        /* \"contracts/roy.sol\":18268:18338  (stake.amount * levelRewards[level]) /... */\n      tag_674\n      swap2\n      swap1\n      tag_272\n      jump\t// in\n    tag_674:\n        /* \"contracts/roy.sol\":18251:18338  uint256 income = (stake.amount * levelRewards[level]) /... */\n      swap1\n      pop\n        /* \"contracts/roy.sol\":18387:18794  LevelIncomeData({... */\n      mload(0x40)\n      dup1\n      0xe0\n      add\n      0x40\n      mstore\n      dup1\n        /* \"contracts/roy.sol\":18450:18455  _user */\n      dup15\n      sub(shl(0xa0, 0x01), 0x01)\n        /* \"contracts/roy.sol\":18387:18794  LevelIncomeData({... */\n      and\n      dup2\n      mstore\n      0x20\n      add\n        /* \"contracts/roy.sol\":18494:18499  stake */\n      dup4\n        /* \"contracts/roy.sol\":18494:18507  stake.stakeId */\n      0x00\n      add\n      mload\n        /* \"contracts/roy.sol\":18387:18794  LevelIncomeData({... */\n      dup2\n      mstore\n      0x20\n      add\n        /* \"contracts/roy.sol\":18550:18555  stake */\n      dup4\n        /* \"contracts/roy.sol\":18550:18562  stake.amount */\n      0x40\n      add\n      mload\n        /* \"contracts/roy.sol\":18387:18794  LevelIncomeData({... */\n      dup2\n      mstore\n      0x20\n      add\n        /* \"contracts/roy.sol\":18608:18614  income */\n      dup3\n        /* \"contracts/roy.sol\":18387:18794  LevelIncomeData({... */\n      dup2\n      mstore\n      0x20\n      add\n        /* \"contracts/roy.sol\":18659:18665  staker */\n      dup9\n      sub(shl(0xa0, 0x01), 0x01)\n        /* \"contracts/roy.sol\":18387:18794  LevelIncomeData({... */\n      and\n      dup2\n      mstore\n      0x20\n      add\n        /* \"contracts/roy.sol\":18706:18711  stake */\n      dup4\n        /* \"contracts/roy.sol\":18706:18721  stake.timestamp */\n      0x60\n      add\n      mload\n        /* \"contracts/roy.sol\":18387:18794  LevelIncomeData({... */\n      dup2\n      mstore\n      0x20\n      add\n        /* \"contracts/roy.sol\":18758:18763  level */\n      dup6\n        /* \"contracts/roy.sol\":18766:18767  1 */\n      0x01\n        /* \"contracts/roy.sol\":18758:18767  level + 1 */\n      tag_675\n      swap2\n      swap1\n      tag_676\n      jump\t// in\n    tag_675:\n        /* \"contracts/roy.sol\":18387:18794  LevelIncomeData({... */\n      0xff\n      and\n      swap1\n      mstore\n        /* \"contracts/roy.sol\":18365:18375  incomeData */\n      dup11\n        /* \"contracts/roy.sol\":18376:18383  index++ */\n      dup11\n      tag_677\n      dup2\n      tag_455\n      jump\t// in\n    tag_677:\n      swap12\n      pop\n        /* \"contracts/roy.sol\":18365:18384  incomeData[index++] */\n      dup2\n      mload\n      dup2\n      lt\n      tag_679\n      jumpi\n      tag_679\n      tag_195\n      jump\t// in\n    tag_679:\n      0x20\n      swap1\n      dup2\n      mul\n      swap2\n      swap1\n      swap2\n      add\n      add\n        /* \"contracts/roy.sol\":18365:18794  incomeData[index++] = LevelIncomeData({... */\n      mstore\n      pop\n      pop\n        /* \"contracts/roy.sol\":18164:18167  j++ */\n      0x01\n      add\n        /* \"contracts/roy.sol\":18125:18817  for (uint256 j = 0; j < stakes.length; j++) {... */\n      jump(tag_665)\n    tag_666:\n      pop\n        /* \"contracts/roy.sol\":18082:18835  if (upline == _user) {... */\n    tag_664:\n      sub(shl(0xa0, 0x01), 0x01)\n        /* \"contracts/roy.sol\":18861:18874  users[upline] */\n      swap2\n      dup3\n      and\n      0x00\n      swap1\n      dup2\n      mstore\n        /* \"contracts/roy.sol\":18861:18866  users */\n      0x03\n        /* \"contracts/roy.sol\":18861:18874  users[upline] */\n      0x20\n      mstore\n      0x40\n      swap1\n      keccak256\n        /* \"contracts/roy.sol\":18861:18883  users[upline].referrer */\n      sload\n      swap1\n      swap2\n      and\n      swap1\n        /* \"contracts/roy.sol\":18042:18049  level++ */\n      dup1\n      tag_680\n      dup2\n      tag_545\n      jump\t// in\n    tag_680:\n      swap2\n      pop\n      pop\n        /* \"contracts/roy.sol\":17918:18898  for (... */\n      jump(tag_660)\n    tag_661:\n      pop\n      pop\n        /* \"contracts/roy.sol\":17745:17748  i++ */\n      0x01\n      swap1\n      swap3\n      add\n      swap2\n      pop\n        /* \"contracts/roy.sol\":17704:18908  for (uint256 i = 0; i < allUsers.length; i++) {... */\n      tag_651\n      swap1\n      pop\n      jump\n    tag_652:\n      pop\n        /* \"contracts/roy.sol\":18925:18935  incomeData */\n      swap1\n      swap5\n        /* \"contracts/roy.sol\":16874:18942  function getLevelIncomeDistribution(address _user)... */\n      swap4\n      pop\n      pop\n      pop\n      pop\n      jump\t// out\n    tag_345:\n      0x01\n      dup4\n      add\n      swap2\n      dup4\n      swap1\n      dup3\n      iszero\n      tag_681\n      jumpi\n      swap2\n      0x20\n      mul\n      dup3\n      add\n      0x00\n    tag_682:\n      dup4\n      dup3\n      gt\n      iszero\n      tag_683\n      jumpi\n      dup4\n      mload\n      dup4\n      dup3\n      0x0100\n      exp\n      dup2\n      sload\n      dup2\n      0xff\n      mul\n      not\n      and\n      swap1\n      dup4\n      0xff\n      and\n      mul\n      or\n      swap1\n      sstore\n      pop\n      swap3\n      0x20\n      add\n      swap3\n      0x01\n      add\n      0x20\n      dup2\n      0x00\n      add\n      div\n      swap3\n      dup4\n      add\n      swap3\n      0x01\n      sub\n      mul\n      jump(tag_682)\n    tag_683:\n      dup1\n      iszero\n      tag_684\n      jumpi\n      dup3\n      dup2\n      0x0100\n      exp\n      dup2\n      sload\n      swap1\n      0xff\n      mul\n      not\n      and\n      swap1\n      sstore\n      0x01\n      add\n      0x20\n      dup2\n      0x00\n      add\n      div\n      swap3\n      dup4\n      add\n      swap3\n      0x01\n      sub\n      mul\n      jump(tag_683)\n    tag_684:\n      pop\n    tag_681:\n      pop\n      tag_685\n      swap3\n      swap2\n      pop\n      tag_686\n      jump\t// in\n    tag_685:\n      pop\n      swap1\n      jump\t// out\n    tag_686:\n    tag_687:\n      dup1\n      dup3\n      gt\n      iszero\n      tag_685\n      jumpi\n      0x00\n      dup2\n      sstore\n      0x01\n      add\n      jump(tag_687)\n        /* \"#utility.yul\":14:187   */\n    tag_689:\n        /* \"#utility.yul\":82:102   */\n      dup1\n      calldataload\n      sub(shl(0xa0, 0x01), 0x01)\n        /* \"#utility.yul\":131:162   */\n      dup2\n      and\n        /* \"#utility.yul\":121:163   */\n      dup2\n      eq\n        /* \"#utility.yul\":111:181   */\n      tag_695\n      jumpi\n        /* \"#utility.yul\":177:178   */\n      0x00\n        /* \"#utility.yul\":174:175   */\n      0x00\n        /* \"#utility.yul\":167:179   */\n      revert\n        /* \"#utility.yul\":111:181   */\n    tag_695:\n        /* \"#utility.yul\":14:187   */\n      swap2\n      swap1\n      pop\n      jump\t// out\n        /* \"#utility.yul\":192:492   */\n    tag_45:\n        /* \"#utility.yul\":260:266   */\n      0x00\n        /* \"#utility.yul\":268:274   */\n      0x00\n        /* \"#utility.yul\":321:323   */\n      0x40\n        /* \"#utility.yul\":309:318   */\n      dup4\n        /* \"#utility.yul\":300:307   */\n      dup6\n        /* \"#utility.yul\":296:319   */\n      sub\n        /* \"#utility.yul\":292:324   */\n      slt\n        /* \"#utility.yul\":289:341   */\n      iszero\n      tag_697\n      jumpi\n        /* \"#utility.yul\":337:338   */\n      0x00\n        /* \"#utility.yul\":334:335   */\n      0x00\n        /* \"#utility.yul\":327:339   */\n      revert\n        /* \"#utility.yul\":289:341   */\n    tag_697:\n        /* \"#utility.yul\":360:389   */\n      tag_698\n        /* \"#utility.yul\":379:388   */\n      dup4\n        /* \"#utility.yul\":360:389   */\n      tag_689\n      jump\t// in\n    tag_698:\n        /* \"#utility.yul\":350:389   */\n      swap5\n        /* \"#utility.yul\":458:460   */\n      0x20\n        /* \"#utility.yul\":443:461   */\n      swap4\n      swap1\n      swap4\n      add\n        /* \"#utility.yul\":430:462   */\n      calldataload\n      swap4\n      pop\n      pop\n      pop\n        /* \"#utility.yul\":192:492   */\n      jump\t// out\n        /* \"#utility.yul\":847:1073   */\n    tag_51:\n        /* \"#utility.yul\":906:912   */\n      0x00\n        /* \"#utility.yul\":959:961   */\n      0x20\n        /* \"#utility.yul\":947:956   */\n      dup3\n        /* \"#utility.yul\":938:945   */\n      dup5\n        /* \"#utility.yul\":934:957   */\n      sub\n        /* \"#utility.yul\":930:962   */\n      slt\n        /* \"#utility.yul\":927:979   */\n      iszero\n      tag_701\n      jumpi\n        /* \"#utility.yul\":975:976   */\n      0x00\n        /* \"#utility.yul\":972:973   */\n      0x00\n        /* \"#utility.yul\":965:977   */\n      revert\n        /* \"#utility.yul\":927:979   */\n    tag_701:\n      pop\n        /* \"#utility.yul\":1020:1043   */\n      calldataload\n      swap2\n        /* \"#utility.yul\":847:1073   */\n      swap1\n      pop\n      jump\t// out\n        /* \"#utility.yul\":1286:1472   */\n    tag_57:\n        /* \"#utility.yul\":1345:1351   */\n      0x00\n        /* \"#utility.yul\":1398:1400   */\n      0x20\n        /* \"#utility.yul\":1386:1395   */\n      dup3\n        /* \"#utility.yul\":1377:1384   */\n      dup5\n        /* \"#utility.yul\":1373:1396   */\n      sub\n        /* \"#utility.yul\":1369:1401   */\n      slt\n        /* \"#utility.yul\":1366:1418   */\n      iszero\n      tag_704\n      jumpi\n        /* \"#utility.yul\":1414:1415   */\n      0x00\n        /* \"#utility.yul\":1411:1412   */\n      0x00\n        /* \"#utility.yul\":1404:1416   */\n      revert\n        /* \"#utility.yul\":1366:1418   */\n    tag_704:\n        /* \"#utility.yul\":1437:1466   */\n      tag_705\n        /* \"#utility.yul\":1456:1465   */\n      dup3\n        /* \"#utility.yul\":1437:1466   */\n      tag_689\n      jump\t// in\n    tag_705:\n        /* \"#utility.yul\":1427:1466   */\n      swap4\n        /* \"#utility.yul\":1286:1472   */\n      swap3\n      pop\n      pop\n      pop\n      jump\t// out\n        /* \"#utility.yul\":1666:2086   */\n    tag_690:\n        /* \"#utility.yul\":1719:1722   */\n      0x00\n        /* \"#utility.yul\":1757:1762   */\n      dup2\n        /* \"#utility.yul\":1751:1763   */\n      mload\n        /* \"#utility.yul\":1784:1790   */\n      dup1\n        /* \"#utility.yul\":1779:1782   */\n      dup5\n        /* \"#utility.yul\":1772:1791   */\n      mstore\n        /* \"#utility.yul\":1816:1820   */\n      0x20\n        /* \"#utility.yul\":1811:1814   */\n      dup5\n        /* \"#utility.yul\":1807:1821   */\n      add\n        /* \"#utility.yul\":1800:1821   */\n      swap4\n      pop\n        /* \"#utility.yul\":1855:1859   */\n      0x20\n        /* \"#utility.yul\":1848:1853   */\n      dup4\n        /* \"#utility.yul\":1844:1860   */\n      add\n        /* \"#utility.yul\":1878:1879   */\n      0x00\n        /* \"#utility.yul\":1888:2061   */\n    tag_708:\n        /* \"#utility.yul\":1902:1908   */\n      dup3\n        /* \"#utility.yul\":1899:1900   */\n      dup2\n        /* \"#utility.yul\":1896:1909   */\n      lt\n        /* \"#utility.yul\":1888:2061   */\n      iszero\n      tag_710\n      jumpi\n        /* \"#utility.yul\":1963:1976   */\n      dup2\n      mload\n        /* \"#utility.yul\":1951:1977   */\n      dup7\n      mstore\n        /* \"#utility.yul\":2006:2010   */\n      0x20\n        /* \"#utility.yul\":1997:2011   */\n      swap6\n      dup7\n      add\n      swap6\n        /* \"#utility.yul\":2034:2051   */\n      swap1\n      swap2\n      add\n      swap1\n        /* \"#utility.yul\":1924:1925   */\n      0x01\n        /* \"#utility.yul\":1917:1926   */\n      add\n        /* \"#utility.yul\":1888:2061   */\n      jump(tag_708)\n    tag_710:\n      pop\n        /* \"#utility.yul\":2077:2080   */\n      swap4\n      swap5\n        /* \"#utility.yul\":1666:2086   */\n      swap4\n      pop\n      pop\n      pop\n      pop\n      jump\t// out\n        /* \"#utility.yul\":2091:2352   */\n    tag_65:\n        /* \"#utility.yul\":2270:2272   */\n      0x20\n        /* \"#utility.yul\":2259:2268   */\n      dup2\n        /* \"#utility.yul\":2252:2273   */\n      mstore\n        /* \"#utility.yul\":2233:2237   */\n      0x00\n        /* \"#utility.yul\":2290:2346   */\n      tag_705\n        /* \"#utility.yul\":2342:2344   */\n      0x20\n        /* \"#utility.yul\":2331:2340   */\n      dup4\n        /* \"#utility.yul\":2327:2345   */\n      add\n        /* \"#utility.yul\":2319:2325   */\n      dup5\n        /* \"#utility.yul\":2290:2346   */\n      tag_690\n      jump\t// in\n        /* \"#utility.yul\":2357:2703   */\n    tag_77:\n        /* \"#utility.yul\":2425:2431   */\n      0x00\n        /* \"#utility.yul\":2433:2439   */\n      0x00\n        /* \"#utility.yul\":2486:2488   */\n      0x40\n        /* \"#utility.yul\":2474:2483   */\n      dup4\n        /* \"#utility.yul\":2465:2472   */\n      dup6\n        /* \"#utility.yul\":2461:2484   */\n      sub\n        /* \"#utility.yul\":2457:2489   */\n      slt\n        /* \"#utility.yul\":2454:2506   */\n      iszero\n      tag_714\n      jumpi\n        /* \"#utility.yul\":2502:2503   */\n      0x00\n        /* \"#utility.yul\":2499:2500   */\n      0x00\n        /* \"#utility.yul\":2492:2504   */\n      revert\n        /* \"#utility.yul\":2454:2506   */\n    tag_714:\n      pop\n      pop\n        /* \"#utility.yul\":2547:2570   */\n      dup1\n      calldataload\n      swap3\n        /* \"#utility.yul\":2667:2669   */\n      0x20\n        /* \"#utility.yul\":2652:2670   */\n      swap1\n      swap2\n      add\n        /* \"#utility.yul\":2639:2671   */\n      calldataload\n      swap2\n      pop\n        /* \"#utility.yul\":2357:2703   */\n      jump\t// out\n        /* \"#utility.yul\":2890:3017   */\n    tag_188:\n        /* \"#utility.yul\":2951:2961   */\n      0x4e487b71\n        /* \"#utility.yul\":2946:2949   */\n      0xe0\n        /* \"#utility.yul\":2942:2962   */\n      shl\n        /* \"#utility.yul\":2939:2940   */\n      0x00\n        /* \"#utility.yul\":2932:2963   */\n      mstore\n        /* \"#utility.yul\":2982:2986   */\n      0x41\n        /* \"#utility.yul\":2979:2980   */\n      0x04\n        /* \"#utility.yul\":2972:2987   */\n      mstore\n        /* \"#utility.yul\":3006:3010   */\n      0x24\n        /* \"#utility.yul\":3003:3004   */\n      0x00\n        /* \"#utility.yul\":2996:3011   */\n      revert\n        /* \"#utility.yul\":3022:3178   */\n    tag_691:\n        /* \"#utility.yul\":3088:3108   */\n      dup1\n      calldataload\n        /* \"#utility.yul\":3148:3152   */\n      0xff\n        /* \"#utility.yul\":3137:3153   */\n      dup2\n      and\n        /* \"#utility.yul\":3127:3154   */\n      dup2\n      eq\n        /* \"#utility.yul\":3117:3172   */\n      tag_695\n      jumpi\n        /* \"#utility.yul\":3168:3169   */\n      0x00\n        /* \"#utility.yul\":3165:3166   */\n      0x00\n        /* \"#utility.yul\":3158:3170   */\n      revert\n        /* \"#utility.yul\":3183:3946   */\n    tag_86:\n        /* \"#utility.yul\":3263:3269   */\n      0x00\n        /* \"#utility.yul\":3316:3319   */\n      0xa0\n        /* \"#utility.yul\":3304:3313   */\n      dup3\n        /* \"#utility.yul\":3295:3302   */\n      dup5\n        /* \"#utility.yul\":3291:3314   */\n      sub\n        /* \"#utility.yul\":3287:3320   */\n      slt\n        /* \"#utility.yul\":3284:3337   */\n      iszero\n      tag_720\n      jumpi\n        /* \"#utility.yul\":3333:3334   */\n      0x00\n        /* \"#utility.yul\":3330:3331   */\n      0x00\n        /* \"#utility.yul\":3323:3335   */\n      revert\n        /* \"#utility.yul\":3284:3337   */\n    tag_720:\n        /* \"#utility.yul\":3382:3389   */\n      dup3\n        /* \"#utility.yul\":3375:3379   */\n      0x1f\n        /* \"#utility.yul\":3364:3373   */\n      dup4\n        /* \"#utility.yul\":3360:3380   */\n      add\n        /* \"#utility.yul\":3356:3390   */\n      slt\n        /* \"#utility.yul\":3346:3408   */\n      tag_721\n      jumpi\n        /* \"#utility.yul\":3404:3405   */\n      0x00\n        /* \"#utility.yul\":3401:3402   */\n      0x00\n        /* \"#utility.yul\":3394:3406   */\n      revert\n        /* \"#utility.yul\":3346:3408   */\n    tag_721:\n        /* \"#utility.yul\":3437:3439   */\n      0x40\n        /* \"#utility.yul\":3431:3440   */\n      mload\n        /* \"#utility.yul\":3479:3482   */\n      0xa0\n        /* \"#utility.yul\":3471:3477   */\n      dup2\n        /* \"#utility.yul\":3467:3483   */\n      add\n        /* \"#utility.yul\":3549:3555   */\n      dup2\n        /* \"#utility.yul\":3537:3547   */\n      dup2\n        /* \"#utility.yul\":3534:3556   */\n      lt\n        /* \"#utility.yul\":3513:3531   */\n      0xffffffffffffffff\n        /* \"#utility.yul\":3501:3511   */\n      dup3\n        /* \"#utility.yul\":3498:3532   */\n      gt\n        /* \"#utility.yul\":3495:3557   */\n      or\n        /* \"#utility.yul\":3492:3580   */\n      iszero\n      tag_723\n      jumpi\n        /* \"#utility.yul\":3560:3578   */\n      tag_723\n      tag_188\n      jump\t// in\n    tag_723:\n        /* \"#utility.yul\":3596:3598   */\n      0x40\n        /* \"#utility.yul\":3589:3611   */\n      mstore\n        /* \"#utility.yul\":3631:3637   */\n      dup1\n        /* \"#utility.yul\":3675:3678   */\n      0xa0\n        /* \"#utility.yul\":3660:3679   */\n      dup5\n      add\n        /* \"#utility.yul\":3691:3710   */\n      dup6\n      dup2\n      gt\n        /* \"#utility.yul\":3688:3727   */\n      iszero\n      tag_724\n      jumpi\n        /* \"#utility.yul\":3723:3724   */\n      0x00\n        /* \"#utility.yul\":3720:3721   */\n      0x00\n        /* \"#utility.yul\":3713:3725   */\n      revert\n        /* \"#utility.yul\":3688:3727   */\n    tag_724:\n        /* \"#utility.yul\":3747:3756   */\n      dup5\n        /* \"#utility.yul\":3765:3915   */\n    tag_725:\n        /* \"#utility.yul\":3781:3787   */\n      dup2\n        /* \"#utility.yul\":3776:3779   */\n      dup2\n        /* \"#utility.yul\":3773:3788   */\n      lt\n        /* \"#utility.yul\":3765:3915   */\n      iszero\n      tag_727\n      jumpi\n        /* \"#utility.yul\":3849:3870   */\n      tag_728\n        /* \"#utility.yul\":3866:3869   */\n      dup2\n        /* \"#utility.yul\":3849:3870   */\n      tag_691\n      jump\t// in\n    tag_728:\n        /* \"#utility.yul\":3837:3871   */\n      dup4\n      mstore\n        /* \"#utility.yul\":3900:3904   */\n      0x20\n        /* \"#utility.yul\":3891:3905   */\n      swap3\n      dup4\n      add\n      swap3\n        /* \"#utility.yul\":3798:3812   */\n      add\n        /* \"#utility.yul\":3765:3915   */\n      jump(tag_725)\n    tag_727:\n      pop\n        /* \"#utility.yul\":3934:3940   */\n      swap2\n      swap6\n        /* \"#utility.yul\":3183:3946   */\n      swap5\n      pop\n      pop\n      pop\n      pop\n      pop\n      jump\t// out\n        /* \"#utility.yul\":4671:5693   */\n    tag_120:\n        /* \"#utility.yul\":5017:5019   */\n      0x60\n        /* \"#utility.yul\":5029:5050   */\n      dup1\n      dup3\n      mstore\n        /* \"#utility.yul\":5099:5112   */\n      dup5\n      mload\n        /* \"#utility.yul\":5002:5020   */\n      swap1\n      dup3\n      add\n        /* \"#utility.yul\":5121:5143   */\n      dup2\n      swap1\n      mstore\n        /* \"#utility.yul\":4969:4973   */\n      0x00\n      swap1\n        /* \"#utility.yul\":5213:5217   */\n      0x20\n        /* \"#utility.yul\":5201:5218   */\n      dup7\n      add\n      swap1\n        /* \"#utility.yul\":5174:5177   */\n      0x80\n        /* \"#utility.yul\":5159:5178   */\n      dup5\n      add\n      swap1\n        /* \"#utility.yul\":4969:4973   */\n      dup4\n        /* \"#utility.yul\":5246:5445   */\n    tag_731:\n        /* \"#utility.yul\":5260:5266   */\n      dup2\n        /* \"#utility.yul\":5257:5258   */\n      dup2\n        /* \"#utility.yul\":5254:5267   */\n      lt\n        /* \"#utility.yul\":5246:5445   */\n      iszero\n      tag_733\n      jumpi\n        /* \"#utility.yul\":5325:5338   */\n      dup4\n      mload\n      sub(shl(0xa0, 0x01), 0x01)\n        /* \"#utility.yul\":5321:5360   */\n      and\n        /* \"#utility.yul\":5309:5361   */\n      dup4\n      mstore\n        /* \"#utility.yul\":5390:5394   */\n      0x20\n        /* \"#utility.yul\":5418:5435   */\n      swap4\n      dup5\n      add\n      swap4\n        /* \"#utility.yul\":5381:5395   */\n      swap1\n      swap3\n      add\n      swap2\n        /* \"#utility.yul\":5357:5358   */\n      0x01\n        /* \"#utility.yul\":5275:5284   */\n      add\n        /* \"#utility.yul\":5246:5445   */\n      jump(tag_731)\n    tag_733:\n        /* \"#utility.yul\":5250:5253   */\n      pop\n      pop\n        /* \"#utility.yul\":5492:5501   */\n      dup4\n        /* \"#utility.yul\":5487:5490   */\n      dup2\n        /* \"#utility.yul\":5483:5502   */\n      sub\n        /* \"#utility.yul\":5476:5480   */\n      0x20\n        /* \"#utility.yul\":5465:5474   */\n      dup6\n        /* \"#utility.yul\":5461:5481   */\n      add\n        /* \"#utility.yul\":5454:5503   */\n      mstore\n        /* \"#utility.yul\":5526:5567   */\n      tag_734\n        /* \"#utility.yul\":5563:5566   */\n      dup2\n        /* \"#utility.yul\":5555:5561   */\n      dup8\n        /* \"#utility.yul\":5526:5567   */\n      tag_690\n      jump\t// in\n    tag_734:\n        /* \"#utility.yul\":5512:5567   */\n      swap2\n      pop\n      pop\n        /* \"#utility.yul\":5615:5624   */\n      dup3\n        /* \"#utility.yul\":5607:5613   */\n      dup2\n        /* \"#utility.yul\":5603:5625   */\n      sub\n        /* \"#utility.yul\":5598:5600   */\n      0x40\n        /* \"#utility.yul\":5587:5596   */\n      dup5\n        /* \"#utility.yul\":5583:5601   */\n      add\n        /* \"#utility.yul\":5576:5626   */\n      mstore\n        /* \"#utility.yul\":5643:5687   */\n      tag_735\n        /* \"#utility.yul\":5680:5686   */\n      dup2\n        /* \"#utility.yul\":5672:5678   */\n      dup6\n        /* \"#utility.yul\":5643:5687   */\n      tag_690\n      jump\t// in\n    tag_735:\n        /* \"#utility.yul\":5635:5687   */\n      swap7\n        /* \"#utility.yul\":4671:5693   */\n      swap6\n      pop\n      pop\n      pop\n      pop\n      pop\n      pop\n      jump\t// out\n        /* \"#utility.yul\":6796:7902   */\n    tag_171:\n        /* \"#utility.yul\":7050:7052   */\n      0x20\n        /* \"#utility.yul\":7062:7083   */\n      dup1\n      dup3\n      mstore\n        /* \"#utility.yul\":7132:7145   */\n      dup3\n      mload\n        /* \"#utility.yul\":7035:7053   */\n      dup3\n      dup3\n      add\n        /* \"#utility.yul\":7154:7176   */\n      dup2\n      swap1\n      mstore\n        /* \"#utility.yul\":7002:7006   */\n      0x00\n      swap2\n        /* \"#utility.yul\":7233:7248   */\n      dup5\n      add\n      swap1\n        /* \"#utility.yul\":7207:7209   */\n      0x40\n        /* \"#utility.yul\":7192:7210   */\n      dup5\n      add\n      swap1\n        /* \"#utility.yul\":7002:7006   */\n      dup4\n        /* \"#utility.yul\":7276:7876   */\n    tag_741:\n        /* \"#utility.yul\":7290:7296   */\n      dup2\n        /* \"#utility.yul\":7287:7288   */\n      dup2\n        /* \"#utility.yul\":7284:7297   */\n      lt\n        /* \"#utility.yul\":7276:7876   */\n      iszero\n      tag_743\n      jumpi\n        /* \"#utility.yul\":7355:7361   */\n      dup4\n        /* \"#utility.yul\":7349:7362   */\n      mload\n        /* \"#utility.yul\":7419:7420   */\n      0x01\n        /* \"#utility.yul\":7415:7416   */\n      dup1\n        /* \"#utility.yul\":7410:7413   */\n      0xa0\n        /* \"#utility.yul\":7406:7417   */\n      shl\n        /* \"#utility.yul\":7402:7421   */\n      sub\n        /* \"#utility.yul\":7397:7399   */\n      dup2\n        /* \"#utility.yul\":7391:7400   */\n      mload\n        /* \"#utility.yul\":7387:7422   */\n      and\n        /* \"#utility.yul\":7382:7385   */\n      dup5\n        /* \"#utility.yul\":7375:7423   */\n      mstore\n        /* \"#utility.yul\":7471:7473   */\n      0x20\n        /* \"#utility.yul\":7467:7469   */\n      dup2\n        /* \"#utility.yul\":7463:7474   */\n      add\n        /* \"#utility.yul\":7457:7475   */\n      mload\n        /* \"#utility.yul\":7452:7454   */\n      0x20\n        /* \"#utility.yul\":7447:7450   */\n      dup6\n        /* \"#utility.yul\":7443:7455   */\n      add\n        /* \"#utility.yul\":7436:7476   */\n      mstore\n        /* \"#utility.yul\":7524:7526   */\n      0x40\n        /* \"#utility.yul\":7520:7522   */\n      dup2\n        /* \"#utility.yul\":7516:7527   */\n      add\n        /* \"#utility.yul\":7510:7528   */\n      mload\n        /* \"#utility.yul\":7505:7507   */\n      0x40\n        /* \"#utility.yul\":7500:7503   */\n      dup6\n        /* \"#utility.yul\":7496:7508   */\n      add\n        /* \"#utility.yul\":7489:7529   */\n      mstore\n        /* \"#utility.yul\":7579:7583   */\n      0x60\n        /* \"#utility.yul\":7575:7577   */\n      dup2\n        /* \"#utility.yul\":7571:7584   */\n      add\n        /* \"#utility.yul\":7565:7585   */\n      mload\n        /* \"#utility.yul\":7558:7562   */\n      0x60\n        /* \"#utility.yul\":7553:7556   */\n      dup6\n        /* \"#utility.yul\":7549:7563   */\n      add\n        /* \"#utility.yul\":7542:7586   */\n      mstore\n        /* \"#utility.yul\":7665:7666   */\n      0x01\n        /* \"#utility.yul\":7661:7662   */\n      dup1\n        /* \"#utility.yul\":7656:7659   */\n      0xa0\n        /* \"#utility.yul\":7652:7663   */\n      shl\n        /* \"#utility.yul\":7648:7667   */\n      sub\n        /* \"#utility.yul\":7640:7644   */\n      0x80\n        /* \"#utility.yul\":7636:7638   */\n      dup3\n        /* \"#utility.yul\":7632:7645   */\n      add\n        /* \"#utility.yul\":7626:7646   */\n      mload\n        /* \"#utility.yul\":7622:7668   */\n      and\n        /* \"#utility.yul\":7615:7619   */\n      0x80\n        /* \"#utility.yul\":7610:7613   */\n      dup6\n        /* \"#utility.yul\":7606:7620   */\n      add\n        /* \"#utility.yul\":7599:7669   */\n      mstore\n        /* \"#utility.yul\":7719:7723   */\n      0xa0\n        /* \"#utility.yul\":7715:7717   */\n      dup2\n        /* \"#utility.yul\":7711:7724   */\n      add\n        /* \"#utility.yul\":7705:7725   */\n      mload\n        /* \"#utility.yul\":7698:7702   */\n      0xa0\n        /* \"#utility.yul\":7693:7696   */\n      dup6\n        /* \"#utility.yul\":7689:7703   */\n      add\n        /* \"#utility.yul\":7682:7726   */\n      mstore\n        /* \"#utility.yul\":7788:7792   */\n      0xff\n        /* \"#utility.yul\":7780:7784   */\n      0xc0\n        /* \"#utility.yul\":7776:7778   */\n      dup3\n        /* \"#utility.yul\":7772:7785   */\n      add\n        /* \"#utility.yul\":7766:7786   */\n      mload\n        /* \"#utility.yul\":7762:7793   */\n      and\n        /* \"#utility.yul\":7755:7759   */\n      0xc0\n        /* \"#utility.yul\":7750:7753   */\n      dup6\n        /* \"#utility.yul\":7746:7760   */\n      add\n        /* \"#utility.yul\":7739:7794   */\n      mstore\n      pop\n        /* \"#utility.yul\":7823:7827   */\n      0xe0\n        /* \"#utility.yul\":7818:7821   */\n      dup4\n        /* \"#utility.yul\":7814:7828   */\n      add\n        /* \"#utility.yul\":7807:7828   */\n      swap3\n      pop\n        /* \"#utility.yul\":7863:7865   */\n      0x20\n        /* \"#utility.yul\":7855:7861   */\n      dup5\n        /* \"#utility.yul\":7851:7866   */\n      add\n        /* \"#utility.yul\":7841:7866   */\n      swap4\n      pop\n        /* \"#utility.yul\":7312:7313   */\n      0x01\n        /* \"#utility.yul\":7309:7310   */\n      dup2\n        /* \"#utility.yul\":7305:7314   */\n      add\n        /* \"#utility.yul\":7300:7314   */\n      swap1\n      pop\n        /* \"#utility.yul\":7276:7876   */\n      jump(tag_741)\n    tag_743:\n      pop\n        /* \"#utility.yul\":7893:7896   */\n      swap1\n      swap6\n        /* \"#utility.yul\":6796:7902   */\n      swap5\n      pop\n      pop\n      pop\n      pop\n      pop\n      jump\t// out\n        /* \"#utility.yul\":7907:8034   */\n    tag_195:\n        /* \"#utility.yul\":7968:7978   */\n      0x4e487b71\n        /* \"#utility.yul\":7963:7966   */\n      0xe0\n        /* \"#utility.yul\":7959:7979   */\n      shl\n        /* \"#utility.yul\":7956:7957   */\n      0x00\n        /* \"#utility.yul\":7949:7980   */\n      mstore\n        /* \"#utility.yul\":7999:8003   */\n      0x32\n        /* \"#utility.yul\":7996:7997   */\n      0x04\n        /* \"#utility.yul\":7989:8004   */\n      mstore\n        /* \"#utility.yul\":8023:8027   */\n      0x24\n        /* \"#utility.yul\":8020:8021   */\n      0x00\n        /* \"#utility.yul\":8013:8028   */\n      revert\n        /* \"#utility.yul\":8039:8377   */\n    tag_202:\n        /* \"#utility.yul\":8241:8243   */\n      0x20\n        /* \"#utility.yul\":8223:8244   */\n      dup1\n      dup3\n      mstore\n        /* \"#utility.yul\":8280:8282   */\n      0x0e\n        /* \"#utility.yul\":8260:8278   */\n      swap1\n      dup3\n      add\n        /* \"#utility.yul\":8253:8283   */\n      mstore\n      shl(0x92, 0x139bdd081c9959da5cdd195c9959)\n        /* \"#utility.yul\":8314:8316   */\n      0x40\n        /* \"#utility.yul\":8299:8317   */\n      dup3\n      add\n        /* \"#utility.yul\":8292:8336   */\n      mstore\n        /* \"#utility.yul\":8368:8370   */\n      0x60\n        /* \"#utility.yul\":8353:8371   */\n      add\n      swap1\n        /* \"#utility.yul\":8039:8377   */\n      jump\t// out\n        /* \"#utility.yul\":8382:8509   */\n    tag_692:\n        /* \"#utility.yul\":8443:8453   */\n      0x4e487b71\n        /* \"#utility.yul\":8438:8441   */\n      0xe0\n        /* \"#utility.yul\":8434:8454   */\n      shl\n        /* \"#utility.yul\":8431:8432   */\n      0x00\n        /* \"#utility.yul\":8424:8455   */\n      mstore\n        /* \"#utility.yul\":8474:8478   */\n      0x11\n        /* \"#utility.yul\":8471:8472   */\n      0x04\n        /* \"#utility.yul\":8464:8479   */\n      mstore\n        /* \"#utility.yul\":8498:8502   */\n      0x24\n        /* \"#utility.yul\":8495:8496   */\n      0x00\n        /* \"#utility.yul\":8488:8503   */\n      revert\n        /* \"#utility.yul\":8514:8682   */\n    tag_219:\n        /* \"#utility.yul\":8587:8596   */\n      dup1\n      dup3\n      mul\n        /* \"#utility.yul\":8618:8627   */\n      dup2\n      iszero\n        /* \"#utility.yul\":8635:8650   */\n      dup3\n      dup3\n      div\n        /* \"#utility.yul\":8629:8651   */\n      dup5\n      eq\n        /* \"#utility.yul\":8615:8652   */\n      or\n        /* \"#utility.yul\":8605:8676   */\n      tag_749\n      jumpi\n        /* \"#utility.yul\":8656:8674   */\n      tag_749\n      tag_692\n      jump\t// in\n    tag_749:\n        /* \"#utility.yul\":8514:8682   */\n      swap3\n      swap2\n      pop\n      pop\n      jump\t// out\n        /* \"#utility.yul\":8687:8812   */\n    tag_224:\n        /* \"#utility.yul\":8752:8761   */\n      dup1\n      dup3\n      add\n        /* \"#utility.yul\":8773:8783   */\n      dup1\n      dup3\n      gt\n        /* \"#utility.yul\":8770:8806   */\n      iszero\n      tag_749\n      jumpi\n        /* \"#utility.yul\":8786:8804   */\n      tag_749\n      tag_692\n      jump\t// in\n        /* \"#utility.yul\":9535:9752   */\n    tag_272:\n        /* \"#utility.yul\":9575:9576   */\n      0x00\n        /* \"#utility.yul\":9601:9602   */\n      dup3\n        /* \"#utility.yul\":9591:9723   */\n      tag_756\n      jumpi\n        /* \"#utility.yul\":9645:9655   */\n      0x4e487b71\n        /* \"#utility.yul\":9640:9643   */\n      0xe0\n        /* \"#utility.yul\":9636:9656   */\n      shl\n        /* \"#utility.yul\":9633:9634   */\n      0x00\n        /* \"#utility.yul\":9626:9657   */\n      mstore\n        /* \"#utility.yul\":9680:9684   */\n      0x12\n        /* \"#utility.yul\":9677:9678   */\n      0x04\n        /* \"#utility.yul\":9670:9685   */\n      mstore\n        /* \"#utility.yul\":9708:9712   */\n      0x24\n        /* \"#utility.yul\":9705:9706   */\n      0x00\n        /* \"#utility.yul\":9698:9713   */\n      revert\n        /* \"#utility.yul\":9591:9723   */\n    tag_756:\n      pop\n        /* \"#utility.yul\":9737:9746   */\n      div\n      swap1\n        /* \"#utility.yul\":9535:9752   */\n      jump\t// out\n        /* \"#utility.yul\":9757:9941   */\n    tag_281:\n        /* \"#utility.yul\":9827:9833   */\n      0x00\n        /* \"#utility.yul\":9880:9882   */\n      0x20\n        /* \"#utility.yul\":9868:9877   */\n      dup3\n        /* \"#utility.yul\":9859:9866   */\n      dup5\n        /* \"#utility.yul\":9855:9878   */\n      sub\n        /* \"#utility.yul\":9851:9883   */\n      slt\n        /* \"#utility.yul\":9848:9900   */\n      iszero\n      tag_758\n      jumpi\n        /* \"#utility.yul\":9896:9897   */\n      0x00\n        /* \"#utility.yul\":9893:9894   */\n      0x00\n        /* \"#utility.yul\":9886:9898   */\n      revert\n        /* \"#utility.yul\":9848:9900   */\n    tag_758:\n      pop\n        /* \"#utility.yul\":9919:9935   */\n      mload\n      swap2\n        /* \"#utility.yul\":9757:9941   */\n      swap1\n      pop\n      jump\t// out\n        /* \"#utility.yul\":9946:10299   */\n    tag_284:\n        /* \"#utility.yul\":10148:10150   */\n      0x20\n        /* \"#utility.yul\":10130:10151   */\n      dup1\n      dup3\n      mstore\n        /* \"#utility.yul\":10187:10189   */\n      0x1d\n        /* \"#utility.yul\":10167:10185   */\n      swap1\n      dup3\n      add\n        /* \"#utility.yul\":10160:10190   */\n      mstore\n        /* \"#utility.yul\":10226:10257   */\n      0x496e73756666696369656e7420636f6e74726163742062616c616e6365000000\n        /* \"#utility.yul\":10221:10223   */\n      0x40\n        /* \"#utility.yul\":10206:10224   */\n      dup3\n      add\n        /* \"#utility.yul\":10199:10258   */\n      mstore\n        /* \"#utility.yul\":10290:10292   */\n      0x60\n        /* \"#utility.yul\":10275:10293   */\n      add\n      swap1\n        /* \"#utility.yul\":9946:10299   */\n      jump\t// out\n        /* \"#utility.yul\":10583:10860   */\n    tag_293:\n        /* \"#utility.yul\":10650:10656   */\n      0x00\n        /* \"#utility.yul\":10703:10705   */\n      0x20\n        /* \"#utility.yul\":10691:10700   */\n      dup3\n        /* \"#utility.yul\":10682:10689   */\n      dup5\n        /* \"#utility.yul\":10678:10701   */\n      sub\n        /* \"#utility.yul\":10674:10706   */\n      slt\n        /* \"#utility.yul\":10671:10723   */\n      iszero\n      tag_762\n      jumpi\n        /* \"#utility.yul\":10719:10720   */\n      0x00\n        /* \"#utility.yul\":10716:10717   */\n      0x00\n        /* \"#utility.yul\":10709:10721   */\n      revert\n        /* \"#utility.yul\":10671:10723   */\n    tag_762:\n        /* \"#utility.yul\":10751:10760   */\n      dup2\n        /* \"#utility.yul\":10745:10761   */\n      mload\n        /* \"#utility.yul\":10804:10809   */\n      dup1\n        /* \"#utility.yul\":10797:10810   */\n      iszero\n        /* \"#utility.yul\":10790:10811   */\n      iszero\n        /* \"#utility.yul\":10783:10788   */\n      dup2\n        /* \"#utility.yul\":10780:10812   */\n      eq\n        /* \"#utility.yul\":10770:10830   */\n      tag_705\n      jumpi\n        /* \"#utility.yul\":10826:10827   */\n      0x00\n        /* \"#utility.yul\":10823:10824   */\n      0x00\n        /* \"#utility.yul\":10816:10828   */\n      revert\n        /* \"#utility.yul\":13754:14102   */\n    tag_334:\n        /* \"#utility.yul\":13956:13958   */\n      0x20\n        /* \"#utility.yul\":13938:13959   */\n      dup1\n      dup3\n      mstore\n        /* \"#utility.yul\":13995:13997   */\n      0x18\n        /* \"#utility.yul\":13975:13993   */\n      swap1\n      dup3\n      add\n        /* \"#utility.yul\":13968:13998   */\n      mstore\n        /* \"#utility.yul\":14034:14060   */\n      0x4f6e6c79206f776e65722063616e2063616c6c20746869730000000000000000\n        /* \"#utility.yul\":14029:14031   */\n      0x40\n        /* \"#utility.yul\":14014:14032   */\n      dup3\n      add\n        /* \"#utility.yul\":14007:14061   */\n      mstore\n        /* \"#utility.yul\":14093:14095   */\n      0x60\n        /* \"#utility.yul\":14078:14096   */\n      add\n      swap1\n        /* \"#utility.yul\":13754:14102   */\n      jump\t// out\n        /* \"#utility.yul\":14863:14991   */\n    tag_374:\n        /* \"#utility.yul\":14930:14939   */\n      dup2\n      dup2\n      sub\n        /* \"#utility.yul\":14951:14962   */\n      dup2\n      dup2\n      gt\n        /* \"#utility.yul\":14948:14985   */\n      iszero\n      tag_749\n      jumpi\n        /* \"#utility.yul\":14965:14983   */\n      tag_749\n      tag_692\n      jump\t// in\n        /* \"#utility.yul\":18264:18399   */\n    tag_455:\n        /* \"#utility.yul\":18303:18306   */\n      0x00\n        /* \"#utility.yul\":18324:18341   */\n      0x01\n      dup3\n      add\n        /* \"#utility.yul\":18321:18364   */\n      tag_789\n      jumpi\n        /* \"#utility.yul\":18344:18362   */\n      tag_789\n      tag_692\n      jump\t// in\n    tag_789:\n      pop\n        /* \"#utility.yul\":18391:18392   */\n      0x01\n        /* \"#utility.yul\":18380:18393   */\n      add\n      swap1\n        /* \"#utility.yul\":18264:18399   */\n      jump\t// out\n        /* \"#utility.yul\":19480:19655   */\n    tag_545:\n        /* \"#utility.yul\":19517:19520   */\n      0x00\n        /* \"#utility.yul\":19561:19565   */\n      0xff\n        /* \"#utility.yul\":19554:19559   */\n      dup3\n        /* \"#utility.yul\":19550:19566   */\n      and\n        /* \"#utility.yul\":19590:19594   */\n      0xff\n        /* \"#utility.yul\":19581:19588   */\n      dup2\n        /* \"#utility.yul\":19578:19595   */\n      sub\n        /* \"#utility.yul\":19575:19618   */\n      tag_795\n      jumpi\n        /* \"#utility.yul\":19598:19616   */\n      tag_795\n      tag_692\n      jump\t// in\n    tag_795:\n        /* \"#utility.yul\":19647:19648   */\n      0x01\n        /* \"#utility.yul\":19634:19649   */\n      add\n      swap3\n        /* \"#utility.yul\":19480:19655   */\n      swap2\n      pop\n      pop\n      jump\t// out\n        /* \"#utility.yul\":21431:21579   */\n    tag_676:\n        /* \"#utility.yul\":21519:21523   */\n      0xff\n        /* \"#utility.yul\":21498:21510   */\n      dup2\n      dup2\n      and\n        /* \"#utility.yul\":21512:21524   */\n      dup4\n      dup3\n      and\n        /* \"#utility.yul\":21494:21525   */\n      add\n      swap1\n        /* \"#utility.yul\":21537:21550   */\n      dup2\n      gt\n        /* \"#utility.yul\":21534:21573   */\n      iszero\n      tag_749\n      jumpi\n        /* \"#utility.yul\":21553:21571   */\n      tag_749\n      tag_692\n      jump\t// in\n\n    auxdata: 0xa2646970667358221220fb862020ba1dd1635e4a510cbe5364ba838a634752f906b81dc1443a9513dd2964736f6c634300081e0033\n}\n",
				"bytecode": {
					"linkReferences": {},
					"object": "61012060405260056080818152600360a052600260c052600160e08190526101005261002e9160099190610190565b5034801561003a575f5ffd5b506040516135f63803806135f683398101604081905261005991610234565b5f8054336001600160a01b031991821681178355600280549092166001600160a01b039490941693909317815591815260036020908152604082206004908101805460ff191660019081179091556006928390527fb6ba906ff52451a7a924e2eaeb8aea3ebee7350a8703e5e417edb25358c7dcc1557f6ca6dcafc04b6e03616746c3528366f990e332021e35d59275be746d65cae0a7939093557f1727c0104c2870c3003671480695f7dab262614528b49265008e76fd3d48c5fe929092557f5451fe6494362676ddb91456d9957c85d968e6f82956407c931a14c023049e6a9190915560097ffb78eb295a86b096b5f095822bd250a277112be4103ea4a7608d96eca726b2c15561016d905260147f0bbf8adea84d189c39869a372ab30aeba9246eea044edc5a37ac100921b2c4e155610261565b600183019183908215610210579160200282015f5b838211156101e257835183826101000a81548160ff021916908360ff16021790555092602001926001016020815f010492830192600103026101a5565b801561020e5782816101000a81549060ff02191690556001016020815f010492830192600103026101e2565b505b5061021c929150610220565b5090565b5b8082111561021c575f8155600101610221565b5f60208284031215610244575f5ffd5b81516001600160a01b038116811461025a575f5ffd5b9392505050565b6133888061026e5f395ff3fe608060405234801561000f575f5ffd5b50600436106101f2575f3560e01c806398278efb11610114578063c2d3c677116100a9578063d85c896611610079578063d85c8966146105bf578063e45a57d0146105d2578063ef71ae56146105e5578063f6e8887314610605578063f7b17d1014610624575f5ffd5b8063c2d3c67714610543578063c3c5a5471461056e578063c5b89c0a14610306578063cb6f37ab146105ac575f5ffd5b8063a87430ba116100e4578063a87430ba14610471578063a98ad46c146104e0578063aa7ed462146104f3578063bd2971781461051b575f5ffd5b806398278efb1461040c5780639be572f6146104345780639d747bad1461043c578063a2bdedf41461045e575f5ffd5b80635bd4e16a1161018a578063797c7f5f1161015a578063797c7f5f1461036e5780637b0472f0146103c8578063875bb4e2146103db5780638da5cb5b146103fa575f5ffd5b80635bd4e16a14610306578063656596a5146103405780636c8c2156146103535780636f9fb98a14610366575f5ffd5b8063379607f5116101c5578063379607f5146102b85780633ea521ef146102cd5780634420e486146102e05780634850d2a2146102f3575f5ffd5b806305ad3935146101f65780631e43eb271461023357806321923bde1461027357806328fe703114610298575b5f5ffd5b610209610204366004612f2f565b61062d565b604080516001600160a01b0390941684526020840192909252908201526060015b60405180910390f35b61025b610241366004612f57565b60056020525f90815260409020546001600160a01b031681565b6040516001600160a01b03909116815260200161022a565b610286610281366004612f6e565b610675565b60405160ff909116815260200161022a565b6102ab6102a6366004612f6e565b6106c8565b60405161022a9190612fc8565b6102cb6102c6366004612f57565b61079e565b005b6102cb6102db366004612f57565b610dbe565b6102cb6102ee366004612f6e565b610e90565b6102cb610301366004612fda565b6110eb565b610332610314366004612f6e565b6001600160a01b03165f908152600360208190526040909120015490565b60405190815260200161022a565b6102cb61034e36600461301e565b611167565b6102cb610361366004612f57565b61119d565b6103326115e9565b61038161037c366004612f57565b611658565b604080516001600160a01b0390991689526020890197909752958701949094526060860192909252608085015260a084015260c0830152151560e08201526101000161022a565b6102cb6103d6366004612fda565b6118b3565b6103326103e9366004612f57565b60066020525f908152604090205481565b5f5461025b906001600160a01b031681565b61033261041a366004612f6e565b6001600160a01b03165f9081526004602052604090205490565b600854610332565b61044f61044a366004612f6e565b61243f565b60405161022a9392919061309f565b61025b61046c366004612f57565b61262c565b6104b461047f366004612f6e565b600360208190525f918252604090912080546002820154928201546004909201546001600160a01b0390911692919060ff1684565b604080516001600160a01b0390951685526020850193909352918301521515606082015260800161022a565b60025461025b906001600160a01b031681565b610332610501366004612f6e565b6001600160a01b03165f9081526007602052604090205490565b61052e610529366004612fda565b612654565b6040805192835260208301919091520161022a565b610332610551366004612f6e565b6001600160a01b03165f9081526003602052604090206002015490565b61059c61057c366004612f6e565b6001600160a01b03165f9081526003602052604090206004015460ff1690565b604051901515815260200161022a565b61025b6105ba366004612f6e565b6127a4565b6102cb6105cd366004612f2f565b612822565b6102866105e0366004612f57565b6129b0565b6105f86105f3366004612f6e565b6129d9565b60405161022a9190613114565b610332610613366004612f6e565b60076020525f908152604090205481565b61033260015481565b6004602052815f5260405f208181548110610646575f80fd5b5f9182526020909120600390910201805460018201546002909201546001600160a01b03909116935090915083565b6001600160a01b0381165f90815260046020526040812054600a811061069e5750600392915050565b600581106106af5750600292915050565b600181106106c05750600192915050565b505f92915050565b6001600160a01b0381165f908152600360205260408120600101546060918167ffffffffffffffff8111156106ff576106ff612ffa565b604051908082528060200260200182016040528015610728578160200160208202803683370190505b5090505f5b82811015610796576001600160a01b0385165f908152600360205260409020600101805482908110610761576107616131ad565b905f5260205f20906006020160010154828281518110610783576107836131ad565b602090810291909101015260010161072d565b509392505050565b335f9081526003602052604090206004015460ff166107d85760405162461bcd60e51b81526004016107cf906131c1565b60405180910390fd5b335f818152600360205260408120906001820190805b8254811015610d5e578583828154811061080a5761080a6131ad565b905f5260205f2090600602016001015414801561084c5750828181548110610834576108346131ad565b5f91825260209091206005600690920201015460ff16155b15610d5657828181548110610863576108636131ad565b905f5260205f209060060201600401546201518061088191906131fd565b838281548110610893576108936131ad565b905f5260205f209060060201600301546108ad919061321a565b4210156108fc5760405162461bcd60e51b815260206004820181905260248201527f5374616b696e6720706572696f64206e6f742079657420636f6d706c6574656460448201526064016107cf565b5f60065f858481548110610912576109126131ad565b905f5260205f2090600602016004015481526020019081526020015f205490505f848381548110610945576109456131ad565b905f5260205f20906006020160040154601e036109655750610bb8610aa8565b848381548110610977576109776131ad565b905f5260205f20906006020160040154603c036109975750611770610aa8565b8483815481106109a9576109a96131ad565b905f5260205f20906006020160040154605a036109c95750612328610aa8565b8483815481106109db576109db6131ad565b905f5260205f209060060201600401546078036109fb5750612ee0610aa8565b848381548110610a0d57610a0d6131ad565b905f5260205f2090600602016004015460b403610a2d5750614650610aa8565b848381548110610a3f57610a3f6131ad565b905f5260205f2090600602016004015461016d03610a605750618e94610aa8565b60405162461bcd60e51b815260206004820152601c60248201527f556e737570706f72746564207374616b696e67206475726174696f6e0000000060448201526064016107cf565b5f81868581548110610abc57610abc6131ad565b905f5260205f2090600602016004015484888781548110610adf57610adf6131ad565b905f5260205f20906006020160020154610af991906131fd565b610b0391906131fd565b610b0d919061322d565b90505f81878681548110610b2357610b236131ad565b905f5260205f20906006020160020154610b3d919061321a565b6002546040516370a0823160e01b815230600482015291925082916001600160a01b03909116906370a0823190602401602060405180830381865afa158015610b88573d5f5f3e3d5ffd5b505050506040513d601f19601f82011682018060405250810190610bac919061324c565b1015610bca5760405162461bcd60e51b81526004016107cf90613263565b6001878681548110610bde57610bde6131ad565b5f9182526020822060069190910201600501805460ff19169215159290921790915560025460405163a9059cbb60e01b81526001600160a01b038c81166004830152602482018590529091169063a9059cbb906044016020604051808303815f875af1158015610c50573d5f5f3e3d5ffd5b505050506040513d601f19601f82011682018060405250810190610c74919061329a565b905080610cba5760405162461bcd60e51b81526020600482015260146024820152731554d115081d1c985b9cd9995c8819985a5b195960621b60448201526064016107cf565b896001600160a01b03167f9cdcf2f7714cca3508c7f0110b04a90a80a3a8dd0e35de99689db74d28c5383e898881548110610cf757610cf76131ad565b905f5260205f2090600602015f01548a8981548110610d1857610d186131ad565b5f91825260209182902060026006909202010154604080519384529183015281018690526060015b60405180910390a2600196505050505050610d5e565b6001016107ee565b5080610db75760405162461bcd60e51b815260206004820152602260248201527f5374616b65206e6f7420666f756e64206f7220616c726561647920636c61696d604482015261195960f21b60648201526084016107cf565b5050505050565b5f546001600160a01b03163314610e175760405162461bcd60e51b815260206004820152601760248201527f4f6e6c79206f776e65722063616e20776974686472617700000000000000000060448201526064016107cf565b6002545f5460405163a9059cbb60e01b81526001600160a01b0391821660048201526024810184905291169063a9059cbb906044016020604051808303815f875af1158015610e68573d5f5f3e3d5ffd5b505050506040513d601f19601f82011682018060405250810190610e8c919061329a565b5050565b335f9081526003602052604090206004015460ff1615610ee75760405162461bcd60e51b8152602060048201526012602482015271105b1c9958591e481c9959da5cdd195c995960721b60448201526064016107cf565b336001600160a01b03821603610f375760405162461bcd60e51b815260206004820152601560248201527421b0b73737ba103932b332b9103cb7bab939b2b63360591b60448201526064016107cf565b6001600160a01b0381165f9081526003602052604090206004015460ff16610fa15760405162461bcd60e51b815260206004820152601760248201527f5265666572726572206e6f74207265676973746572656400000000000000000060448201526064016107cf565b6001600160a01b0381165f9081526003602052604090206001015461101c5760405162461bcd60e51b815260206004820152602b60248201527f5265666572726572206d757374207374616b65206265666f726520796f75206360448201526a30b7103932b3b4b9ba32b960a91b60648201526084016107cf565b335f81815260036020818152604080842080546001600160a01b039788166001600160a01b0319918216811783556004928301805460ff19166001908117909155600880548083019091557ff3f7a9fe364faab93b216da50a3214154f22a0a2b415b23a84c8169e8b636ee301805484168a17905590875291845282862083516060810185529788528785018781524294890194855281548085018355918852949096209651959094029095018054949096169390921692909217845590519183019190915551600290910155565b5f546001600160a01b031633146111145760405162461bcd60e51b81526004016107cf906132b9565b5f82116111565760405162461bcd60e51b815260206004820152601060248201526f044617973206d757374206265203e20360841b60448201526064016107cf565b5f9182526006602052604090912055565b5f546001600160a01b031633146111905760405162461bcd60e51b81526004016107cf906132b9565b610e8c6009826005612e70565b335f9081526003602052604090206004015460ff166111ce5760405162461bcd60e51b81526004016107cf906131c1565b335f818152600360205260408120906001820190805b8254811015610d5e5785838281548110611200576112006131ad565b905f5260205f20906006020160010154148015611242575082818154811061122a5761122a6131ad565b5f91825260209091206005600690920201015460ff16155b156115e157828181548110611259576112596131ad565b905f5260205f20906006020160030154621a5e00611277919061321a565b4210156112d95760405162461bcd60e51b815260206004820152602a60248201527f456d657267656e637920636c61696d20616c6c6f776564206f6e6c79206166746044820152696572203130206461797360b01b60648201526084016107cf565b5f8382815481106112ec576112ec6131ad565b5f91825260208220600260069092020101549150606461130d8360056131fd565b611317919061322d565b90505f61132482846132f0565b6002546040516370a0823160e01b815230600482015291925084916001600160a01b03909116906370a0823190602401602060405180830381865afa15801561136f573d5f5f3e3d5ffd5b505050506040513d601f19601f82011682018060405250810190611393919061324c565b10156113b15760405162461bcd60e51b81526004016107cf90613263565b60018685815481106113c5576113c56131ad565b5f9182526020822060069190910201600501805460ff19169215159290921790915560025460405163a9059cbb60e01b81526001600160a01b038b81166004830152602482018590529091169063a9059cbb906044016020604051808303815f875af1158015611437573d5f5f3e3d5ffd5b505050506040513d601f19601f8201168201806040525081019061145b919061329a565b9050806114a15760405162461bcd60e51b8152602060048201526014602482015273155cd95c881d1c985b9cd9995c8819985a5b195960621b60448201526064016107cf565b60025460405163a9059cbb60e01b815273eef21d3e729763275415156b3a96dc26f371753e6004820152602481018590525f916001600160a01b03169063a9059cbb906044016020604051808303815f875af1158015611503573d5f5f3e3d5ffd5b505050506040513d601f19601f82011682018060405250810190611527919061329a565b9050806115765760405162461bcd60e51b815260206004820152601960248201527f41646d696e20666565207472616e73666572206661696c65640000000000000060448201526064016107cf565b896001600160a01b03167f9cdcf2f7714cca3508c7f0110b04a90a80a3a8dd0e35de99689db74d28c5383e8988815481106115b3576115b36131ad565b5f9182526020822060069091020154604051610d409288919283526020830191909152604082015260600190565b6001016111e4565b6002546040516370a0823160e01b81523060048201525f916001600160a01b0316906370a0823190602401602060405180830381865afa15801561162f573d5f5f3e3d5ffd5b505050506040513d601f19601f82011682018060405250810190611653919061324c565b905090565b5f8181526005602052604081205481908190819081908190819081906001600160a01b0316806116bf5760405162461bcd60e51b8152602060048201526012602482015271125b9d985b1a59081c1bdcda5d1a5bdb925960721b60448201526064016107cf565b6001600160a01b0381165f90815260036020908152604080832060010180548251818502810185019093528083529192909190849084015b82821015611763575f8481526020908190206040805160c08101825260068602909201805483526001808201548486015260028201549284019290925260038101546060840152600481015460808401526005015460ff16151560a083015290835290920191016116f7565b509293505f925050505b815181101561186d578b828281518110611789576117896131ad565b60200260200101516020015103611865575f8282815181106117ad576117ad6131ad565b602002602001015190505f60065f836080015181526020019081526020015f205490505f8260800151620151806117e491906131fd565b83606001516117f3919061321a565b90505f8360a0015115801561180757508142105b90505f61016d606485876040015161181f91906131fd565b611829919061322d565b611833919061322d565b905087855f015186604001518760600151868886889f509f509f509f509f509f509f509f5050505050505050506118a8565b60010161176d565b5060405162461bcd60e51b815260206004820152600f60248201526e14dd185ad9481b9bdd08199bdd5b99608a1b60448201526064016107cf565b919395975091939597565b335f9081526003602052604090206004015460ff166118e45760405162461bcd60e51b81526004016107cf906131c1565b5f811161193f5760405162461bcd60e51b815260206004820152602360248201527f5374616b6520616d6f756e74206d75737420626520677265617465722074686160448201526206e20360ec1b60648201526084016107cf565b5f828152600660205260409020546119945760405162461bcd60e51b815260206004820152601860248201527724b73b30b634b21039ba30b5b4b73390323ab930ba34b7b760411b60448201526064016107cf565b335f908152600360205260409020546001600160a01b03168015611a2a576001600160a01b0381165f90815260036020526040902060010154611a2a5760405162461bcd60e51b815260206004820152602860248201527f5265666572726572206d757374207374616b65206265666f726520796f752063604482015267616e207374616b6560c01b60648201526084016107cf565b6002546040516323b872dd60e01b8152336004820152306024820152604481018490525f916001600160a01b0316906323b872dd906064016020604051808303815f875af1158015611a7e573d5f5f3e3d5ffd5b505050506040513d601f19601f82011682018060405250810190611aa2919061329a565b905080611ae85760405162461bcd60e51b81526020600482015260146024820152731554d115081d1c985b9cd9995c8819985a5b195960621b60448201526064016107cf565b5f60015f8154611af790613303565b919050819055905060035f336001600160a01b03166001600160a01b031681526020019081526020015f206001016040518060c0016040528060015481526020018381526020018681526020014281526020018781526020015f1515815250908060018154018082558091505060019003905f5260205f2090600602015f909190919091505f820151815f01556020820151816001015560408201518160020155606082015181600301556080820151816004015560a0820151816005015f6101000a81548160ff02191690831515021790555050503360055f8381526020019081526020015f205f6101000a8154816001600160a01b0302191690836001600160a01b031602179055505f60035f336001600160a01b03166001600160a01b031681526020019081526020015f206001018054905060011490505f60035f336001600160a01b03166001600160a01b031681526020019081526020015f205f015f9054906101000a90046001600160a01b031690505f5f90505b60058160ff16108015611c8d57506001600160a01b03821615155b15612435575f60ff82168103612218578315612026575f6064611cb18a60056131fd565b611cbb919061322d565b90505f6064611ccb8b60056131fd565b611cd5919061322d565b9050611ce1818361321a565b6002546040516370a0823160e01b81523060048201526001600160a01b03909116906370a0823190602401602060405180830381865afa158015611d27573d5f5f3e3d5ffd5b505050506040513d601f19601f82011682018060405250810190611d4b919061324c565b1015611d695760405162461bcd60e51b81526004016107cf90613263565b60025460405163a9059cbb60e01b81526001600160a01b038781166004830152602482018590529091169063a9059cbb906044016020604051808303815f875af1158015611db9573d5f5f3e3d5ffd5b505050506040513d601f19601f82011682018060405250810190611ddd919061329a565b611e295760405162461bcd60e51b815260206004820152601f60248201527f44697265637420726566657272616c207472616e73666572206661696c65640060448201526064016107cf565b60025460405163a9059cbb60e01b81526001600160a01b038781166004830152602482018490529091169063a9059cbb906044016020604051808303815f875af1158015611e79573d5f5f3e3d5ffd5b505050506040513d601f19601f82011682018060405250810190611e9d919061329a565b611ee95760405162461bcd60e51b815260206004820152601e60248201527f4c6576656c203120726577617264207472616e73666572206661696c6564000060448201526064016107cf565b6001600160a01b0385165f9081526007602052604081208054849290611f1090849061321a565b90915550611f209050818361321a565b6001600160a01b0386165f9081526003602052604081206002018054909190611f4a90849061321a565b90915550506001600160a01b0385165f9081526003602081905260408220018054839290611f7990849061321a565b90915550506001600160a01b0385165f908152600460205260408120905b815481101561201d57336001600160a01b0316828281548110611fbc57611fbc6131ad565b5f9182526020909120600390910201546001600160a01b0316036120155783828281548110611fed57611fed6131ad565b905f5260205f2090600302016001015f82825461200a919061321a565b9091555061201d9050565b600101611f97565b50505050612405565b606460098360ff166005811061203e5761203e6131ad565b60208104919091015461205d91601f166101000a900460ff168a6131fd565b612067919061322d565b6002546040516370a0823160e01b815230600482015291925082916001600160a01b03909116906370a0823190602401602060405180830381865afa1580156120b2573d5f5f3e3d5ffd5b505050506040513d601f19601f820116820180604052508101906120d6919061324c565b10156120f45760405162461bcd60e51b81526004016107cf90613263565b60025460405163a9059cbb60e01b81526001600160a01b038581166004830152602482018490529091169063a9059cbb906044016020604051808303815f875af1158015612144573d5f5f3e3d5ffd5b505050506040513d601f19601f82011682018060405250810190612168919061329a565b6121b45760405162461bcd60e51b815260206004820152601e60248201527f4c6576656c203120726577617264207472616e73666572206661696c6564000060448201526064016107cf565b6001600160a01b0383165f90815260036020526040812060020180548392906121de90849061321a565b90915550506001600160a01b0383165f908152600360208190526040822001805483929061220d90849061321a565b909155506124059050565b606460098360ff1660058110612230576122306131ad565b60208104919091015461224f91601f166101000a900460ff168a6131fd565b612259919061322d565b6002546040516370a0823160e01b815230600482015291925082916001600160a01b03909116906370a0823190602401602060405180830381865afa1580156122a4573d5f5f3e3d5ffd5b505050506040513d601f19601f820116820180604052508101906122c8919061324c565b10156122e65760405162461bcd60e51b81526004016107cf90613263565b60025460405163a9059cbb60e01b81526001600160a01b038581166004830152602482018490529091169063a9059cbb906044016020604051808303815f875af1158015612336573d5f5f3e3d5ffd5b505050506040513d601f19601f8201168201806040525081019061235a919061329a565b6123a65760405162461bcd60e51b815260206004820152601c60248201527f4c6576656c20726577617264207472616e73666572206661696c65640000000060448201526064016107cf565b6001600160a01b0383165f90815260036020526040812060020180548392906123d090849061321a565b90915550506001600160a01b0383165f90815260036020819052604082200180548392906123ff90849061321a565b90915550505b506001600160a01b039182165f90815260036020526040902054909116908061242d8161331b565b915050611c72565b5050505050505050565b6001600160a01b0381165f908152600460205260409020805460609182918291908067ffffffffffffffff81111561247957612479612ffa565b6040519080825280602002602001820160405280156124a2578160200160208202803683370190505b5094508067ffffffffffffffff8111156124be576124be612ffa565b6040519080825280602002602001820160405280156124e7578160200160208202803683370190505b5093508067ffffffffffffffff81111561250357612503612ffa565b60405190808252806020026020018201604052801561252c578160200160208202803683370190505b5092505f5b818110156126225782818154811061254b5761254b6131ad565b5f91825260209091206003909102015486516001600160a01b039091169087908390811061257b5761257b6131ad565b60200260200101906001600160a01b031690816001600160a01b0316815250508281815481106125ad576125ad6131ad565b905f5260205f209060030201600101548582815181106125cf576125cf6131ad565b6020026020010181815250508281815481106125ed576125ed6131ad565b905f5260205f2090600302016002015484828151811061260f5761260f6131ad565b6020908102919091010152600101612531565b5050509193909250565b6008818154811061263b575f80fd5b5f918252602090912001546001600160a01b0316905081565b5f5f5f84116126a55760405162461bcd60e51b815260206004820152601d60248201527f416d6f756e74206d7573742062652067726561746572207468616e203000000060448201526064016107cf565b5f838152600660205260409020546126fa5760405162461bcd60e51b815260206004820152601860248201527724b73b30b634b21039ba30b5b4b73390323ab930ba34b7b760411b60448201526064016107cf565b5f8381526006602052604081205490601e85900361271b5750610bb861276d565b84603c0361272c575061177061276d565b84605a0361273d575061232861276d565b8460780361274e5750612ee061276d565b8460b40361275f575061465061276d565b8461016d03610a605750618e945b808561277984896131fd565b61278391906131fd565b61278d919061322d565b9350612799848761321a565b925050509250929050565b6001600160a01b0381165f9081526003602052604081206004015460ff166128045760405162461bcd60e51b8152602060048201526013602482015272155cd95c881b9bdd081c9959da5cdd195c9959606a1b60448201526064016107cf565b506001600160a01b039081165f908152600360205260409020541690565b5f546001600160a01b0316331461284b5760405162461bcd60e51b81526004016107cf906132b9565b6001600160a01b0382166128a15760405162461bcd60e51b815260206004820152601960248201527f496e76616c696420726563697069656e7420616464726573730000000000000060448201526064016107cf565b5f81116128f05760405162461bcd60e51b815260206004820181905260248201527f416d6f756e74206d7573742062652067726561746572207468616e207a65726f60448201526064016107cf565b60025460405163a9059cbb60e01b81526001600160a01b038481166004830152602482018490525f92169063a9059cbb906044016020604051808303815f875af1158015612940573d5f5f3e3d5ffd5b505050506040513d601f19601f82011682018060405250810190612964919061329a565b9050806129ab5760405162461bcd60e51b8152602060048201526015602482015274151bdad95b881d1c985b9cd9995c8819985a5b1959605a1b60448201526064016107cf565b505050565b600981600581106129bf575f80fd5b60209182820401919006915054906101000a900460ff1681565b60605f805b600854811015612b56575f600882815481106129fc576129fc6131ad565b5f9182526020808320909101546001600160a01b031680835260038252604080842060010180548251818602810186019093528083529295509092909190849084015b82821015612aab575f8481526020908190206040805160c08101825260068602909201805483526001808201548486015260028201549284019290925260038101546060840152600481015460808401526005015460ff16151560a08301529083529092019101612a3f565b505050506001600160a01b038381165f908152600360205260408120549293509116905b60058160ff16108015612aea57506001600160a01b03821615155b15612b4657876001600160a01b0316826001600160a01b031603612b17578251612b14908761321a565b95505b6001600160a01b039182165f908152600360205260409020549091169080612b3e8161331b565b915050612acf565b5050600190920191506129de9050565b505f8167ffffffffffffffff811115612b7157612b71612ffa565b604051908082528060200260200182016040528015612bf057816020015b612bdd6040518060e001604052805f6001600160a01b031681526020015f81526020015f81526020015f81526020015f6001600160a01b031681526020015f81526020015f60ff1681525090565b815260200190600190039081612b8f5790505b5090505f805b600854811015612e66575f60088281548110612c1457612c146131ad565b5f9182526020808320909101546001600160a01b031680835260038252604080842060010180548251818602810186019093528083529295509092909190849084015b82821015612cc3575f8481526020908190206040805160c08101825260068602909201805483526001808201548486015260028201549284019290925260038101546060840152600481015460808401526005015460ff16151560a08301529083529092019101612c57565b505050506001600160a01b038381165f908152600360205260408120549293509116905b60058160ff16108015612d0257506001600160a01b03821615155b15612e5657896001600160a01b0316826001600160a01b031603612e27575f5b8351811015612e25575f848281518110612d3e57612d3e6131ad565b602002602001015190505f606460098560ff1660058110612d6157612d616131ad565b602091828204019190069054906101000a900460ff1660ff168360400151612d8991906131fd565b612d93919061322d565b90506040518060e001604052808e6001600160a01b03168152602001835f0151815260200183604001518152602001828152602001886001600160a01b0316815260200183606001518152602001856001612dee9190613339565b60ff1690528a8a612dfe81613303565b9b5081518110612e1057612e106131ad565b60209081029190910101525050600101612d22565b505b6001600160a01b039182165f908152600360205260409020549091169080612e4e8161331b565b915050612ce7565b505060019092019150612bf69050565b5090949350505050565b600183019183908215612ef0579160200282015f5b83821115612ec257835183826101000a81548160ff021916908360ff16021790555092602001926001016020815f01049283019260010302612e85565b8015612eee5782816101000a81549060ff02191690556001016020815f01049283019260010302612ec2565b505b50612efc929150612f00565b5090565b5b80821115612efc575f8155600101612f01565b80356001600160a01b0381168114612f2a575f5ffd5b919050565b5f5f60408385031215612f40575f5ffd5b612f4983612f14565b946020939093013593505050565b5f60208284031215612f67575f5ffd5b5035919050565b5f60208284031215612f7e575f5ffd5b612f8782612f14565b9392505050565b5f8151808452602084019350602083015f5b82811015612fbe578151865260209586019590910190600101612fa0565b5093949350505050565b602081525f612f876020830184612f8e565b5f5f60408385031215612feb575f5ffd5b50508035926020909101359150565b634e487b7160e01b5f52604160045260245ffd5b803560ff81168114612f2a575f5ffd5b5f60a0828403121561302e575f5ffd5b82601f83011261303c575f5ffd5b60405160a0810181811067ffffffffffffffff8211171561305f5761305f612ffa565b6040528060a0840185811115613073575f5ffd5b845b81811015613094576130868161300e565b835260209283019201613075565b509195945050505050565b606080825284519082018190525f9060208601906080840190835b818110156130e15783516001600160a01b03168352602093840193909201916001016130ba565b505083810360208501526130f58187612f8e565b915050828103604084015261310a8185612f8e565b9695505050505050565b602080825282518282018190525f918401906040840190835b818110156131a257835160018060a01b03815116845260208101516020850152604081015160408501526060810151606085015260018060a01b03608082015116608085015260a081015160a085015260ff60c08201511660c08501525060e08301925060208401935060018101905061312d565b509095945050505050565b634e487b7160e01b5f52603260045260245ffd5b6020808252600e908201526d139bdd081c9959da5cdd195c995960921b604082015260600190565b634e487b7160e01b5f52601160045260245ffd5b8082028115828204841417613214576132146131e9565b92915050565b80820180821115613214576132146131e9565b5f8261324757634e487b7160e01b5f52601260045260245ffd5b500490565b5f6020828403121561325c575f5ffd5b5051919050565b6020808252601d908201527f496e73756666696369656e7420636f6e74726163742062616c616e6365000000604082015260600190565b5f602082840312156132aa575f5ffd5b81518015158114612f87575f5ffd5b60208082526018908201527f4f6e6c79206f776e65722063616e2063616c6c20746869730000000000000000604082015260600190565b81810381811115613214576132146131e9565b5f60018201613314576133146131e9565b5060010190565b5f60ff821660ff8103613330576133306131e9565b60010192915050565b60ff8181168382160190811115613214576132146131e956fea2646970667358221220fb862020ba1dd1635e4a510cbe5364ba838a634752f906b81dc1443a9513dd2964736f6c634300081e0033",
					"opcodes": "PUSH2 0x120 PUSH1 0x40 MSTORE PUSH1 0x5 PUSH1 0x80 DUP2 DUP2 MSTORE PUSH1 0x3 PUSH1 0xA0 MSTORE PUSH1 0x2 PUSH1 0xC0 MSTORE PUSH1 0x1 PUSH1 0xE0 DUP2 SWAP1 MSTORE PUSH2 0x100 MSTORE PUSH2 0x2E SWAP2 PUSH1 0x9 SWAP2 SWAP1 PUSH2 0x190 JUMP JUMPDEST POP CALLVALUE DUP1 ISZERO PUSH2 0x3A JUMPI PUSH0 PUSH0 REVERT JUMPDEST POP PUSH1 0x40 MLOAD PUSH2 0x35F6 CODESIZE SUB DUP1 PUSH2 0x35F6 DUP4 CODECOPY DUP2 ADD PUSH1 0x40 DUP2 SWAP1 MSTORE PUSH2 0x59 SWAP2 PUSH2 0x234 JUMP JUMPDEST PUSH0 DUP1 SLOAD CALLER PUSH1 0x1 PUSH1 0x1 PUSH1 0xA0 SHL SUB NOT SWAP2 DUP3 AND DUP2 OR DUP4 SSTORE PUSH1 0x2 DUP1 SLOAD SWAP1 SWAP3 AND PUSH1 0x1 PUSH1 0x1 PUSH1 0xA0 SHL SUB SWAP5 SWAP1 SWAP5 AND SWAP4 SWAP1 SWAP4 OR DUP2 SSTORE SWAP2 DUP2 MSTORE PUSH1 0x3 PUSH1 0x20 SWAP1 DUP2 MSTORE PUSH1 0x40 DUP3 KECCAK256 PUSH1 0x4 SWAP1 DUP2 ADD DUP1 SLOAD PUSH1 0xFF NOT AND PUSH1 0x1 SWAP1 DUP2 OR SWAP1 SWAP2 SSTORE PUSH1 0x6 SWAP3 DUP4 SWAP1 MSTORE PUSH32 0xB6BA906FF52451A7A924E2EAEB8AEA3EBEE7350A8703E5E417EDB25358C7DCC1 SSTORE PUSH32 0x6CA6DCAFC04B6E03616746C3528366F990E332021E35D59275BE746D65CAE0A7 SWAP4 SWAP1 SWAP4 SSTORE PUSH32 0x1727C0104C2870C3003671480695F7DAB262614528B49265008E76FD3D48C5FE SWAP3 SWAP1 SWAP3 SSTORE PUSH32 0x5451FE6494362676DDB91456D9957C85D968E6F82956407C931A14C023049E6A SWAP2 SWAP1 SWAP2 SSTORE PUSH1 0x9 PUSH32 0xFB78EB295A86B096B5F095822BD250A277112BE4103EA4A7608D96ECA726B2C1 SSTORE PUSH2 0x16D SWAP1 MSTORE PUSH1 0x14 PUSH32 0xBBF8ADEA84D189C39869A372AB30AEBA9246EEA044EDC5A37AC100921B2C4E1 SSTORE PUSH2 0x261 JUMP JUMPDEST PUSH1 0x1 DUP4 ADD SWAP2 DUP4 SWAP1 DUP3 ISZERO PUSH2 0x210 JUMPI SWAP2 PUSH1 0x20 MUL DUP3 ADD PUSH0 JUMPDEST DUP4 DUP3 GT ISZERO PUSH2 0x1E2 JUMPI DUP4 MLOAD DUP4 DUP3 PUSH2 0x100 EXP DUP2 SLOAD DUP2 PUSH1 0xFF MUL NOT AND SWAP1 DUP4 PUSH1 0xFF AND MUL OR SWAP1 SSTORE POP SWAP3 PUSH1 0x20 ADD SWAP3 PUSH1 0x1 ADD PUSH1 0x20 DUP2 PUSH0 ADD DIV SWAP3 DUP4 ADD SWAP3 PUSH1 0x1 SUB MUL PUSH2 0x1A5 JUMP JUMPDEST DUP1 ISZERO PUSH2 0x20E JUMPI DUP3 DUP2 PUSH2 0x100 EXP DUP2 SLOAD SWAP1 PUSH1 0xFF MUL NOT AND SWAP1 SSTORE PUSH1 0x1 ADD PUSH1 0x20 DUP2 PUSH0 ADD DIV SWAP3 DUP4 ADD SWAP3 PUSH1 0x1 SUB MUL PUSH2 0x1E2 JUMP JUMPDEST POP JUMPDEST POP PUSH2 0x21C SWAP3 SWAP2 POP PUSH2 0x220 JUMP JUMPDEST POP SWAP1 JUMP JUMPDEST JUMPDEST DUP1 DUP3 GT ISZERO PUSH2 0x21C JUMPI PUSH0 DUP2 SSTORE PUSH1 0x1 ADD PUSH2 0x221 JUMP JUMPDEST PUSH0 PUSH1 0x20 DUP3 DUP5 SUB SLT ISZERO PUSH2 0x244 JUMPI PUSH0 PUSH0 REVERT JUMPDEST DUP2 MLOAD PUSH1 0x1 PUSH1 0x1 PUSH1 0xA0 SHL SUB DUP2 AND DUP2 EQ PUSH2 0x25A JUMPI PUSH0 PUSH0 REVERT JUMPDEST SWAP4 SWAP3 POP POP POP JUMP JUMPDEST PUSH2 0x3388 DUP1 PUSH2 0x26E PUSH0 CODECOPY PUSH0 RETURN INVALID PUSH1 0x80 PUSH1 0x40 MSTORE CALLVALUE DUP1 ISZERO PUSH2 0xF JUMPI PUSH0 PUSH0 REVERT JUMPDEST POP PUSH1 0x4 CALLDATASIZE LT PUSH2 0x1F2 JUMPI PUSH0 CALLDATALOAD PUSH1 0xE0 SHR DUP1 PUSH4 0x98278EFB GT PUSH2 0x114 JUMPI DUP1 PUSH4 0xC2D3C677 GT PUSH2 0xA9 JUMPI DUP1 PUSH4 0xD85C8966 GT PUSH2 0x79 JUMPI DUP1 PUSH4 0xD85C8966 EQ PUSH2 0x5BF JUMPI DUP1 PUSH4 0xE45A57D0 EQ PUSH2 0x5D2 JUMPI DUP1 PUSH4 0xEF71AE56 EQ PUSH2 0x5E5 JUMPI DUP1 PUSH4 0xF6E88873 EQ PUSH2 0x605 JUMPI DUP1 PUSH4 0xF7B17D10 EQ PUSH2 0x624 JUMPI PUSH0 PUSH0 REVERT JUMPDEST DUP1 PUSH4 0xC2D3C677 EQ PUSH2 0x543 JUMPI DUP1 PUSH4 0xC3C5A547 EQ PUSH2 0x56E JUMPI DUP1 PUSH4 0xC5B89C0A EQ PUSH2 0x306 JUMPI DUP1 PUSH4 0xCB6F37AB EQ PUSH2 0x5AC JUMPI PUSH0 PUSH0 REVERT JUMPDEST DUP1 PUSH4 0xA87430BA GT PUSH2 0xE4 JUMPI DUP1 PUSH4 0xA87430BA EQ PUSH2 0x471 JUMPI DUP1 PUSH4 0xA98AD46C EQ PUSH2 0x4E0 JUMPI DUP1 PUSH4 0xAA7ED462 EQ PUSH2 0x4F3 JUMPI DUP1 PUSH4 0xBD297178 EQ PUSH2 0x51B JUMPI PUSH0 PUSH0 REVERT JUMPDEST DUP1 PUSH4 0x98278EFB EQ PUSH2 0x40C JUMPI DUP1 PUSH4 0x9BE572F6 EQ PUSH2 0x434 JUMPI DUP1 PUSH4 0x9D747BAD EQ PUSH2 0x43C JUMPI DUP1 PUSH4 0xA2BDEDF4 EQ PUSH2 0x45E JUMPI PUSH0 PUSH0 REVERT JUMPDEST DUP1 PUSH4 0x5BD4E16A GT PUSH2 0x18A JUMPI DUP1 PUSH4 0x797C7F5F GT PUSH2 0x15A JUMPI DUP1 PUSH4 0x797C7F5F EQ PUSH2 0x36E JUMPI DUP1 PUSH4 0x7B0472F0 EQ PUSH2 0x3C8 JUMPI DUP1 PUSH4 0x875BB4E2 EQ PUSH2 0x3DB JUMPI DUP1 PUSH4 0x8DA5CB5B EQ PUSH2 0x3FA JUMPI PUSH0 PUSH0 REVERT JUMPDEST DUP1 PUSH4 0x5BD4E16A EQ PUSH2 0x306 JUMPI DUP1 PUSH4 0x656596A5 EQ PUSH2 0x340 JUMPI DUP1 PUSH4 0x6C8C2156 EQ PUSH2 0x353 JUMPI DUP1 PUSH4 0x6F9FB98A EQ PUSH2 0x366 JUMPI PUSH0 PUSH0 REVERT JUMPDEST DUP1 PUSH4 0x379607F5 GT PUSH2 0x1C5 JUMPI DUP1 PUSH4 0x379607F5 EQ PUSH2 0x2B8 JUMPI DUP1 PUSH4 0x3EA521EF EQ PUSH2 0x2CD JUMPI DUP1 PUSH4 0x4420E486 EQ PUSH2 0x2E0 JUMPI DUP1 PUSH4 0x4850D2A2 EQ PUSH2 0x2F3 JUMPI PUSH0 PUSH0 REVERT JUMPDEST DUP1 PUSH4 0x5AD3935 EQ PUSH2 0x1F6 JUMPI DUP1 PUSH4 0x1E43EB27 EQ PUSH2 0x233 JUMPI DUP1 PUSH4 0x21923BDE EQ PUSH2 0x273 JUMPI DUP1 PUSH4 0x28FE7031 EQ PUSH2 0x298 JUMPI JUMPDEST PUSH0 PUSH0 REVERT JUMPDEST PUSH2 0x209 PUSH2 0x204 CALLDATASIZE PUSH1 0x4 PUSH2 0x2F2F JUMP JUMPDEST PUSH2 0x62D JUMP JUMPDEST PUSH1 0x40 DUP1 MLOAD PUSH1 0x1 PUSH1 0x1 PUSH1 0xA0 SHL SUB SWAP1 SWAP5 AND DUP5 MSTORE PUSH1 0x20 DUP5 ADD SWAP3 SWAP1 SWAP3 MSTORE SWAP1 DUP3 ADD MSTORE PUSH1 0x60 ADD JUMPDEST PUSH1 0x40 MLOAD DUP1 SWAP2 SUB SWAP1 RETURN JUMPDEST PUSH2 0x25B PUSH2 0x241 CALLDATASIZE PUSH1 0x4 PUSH2 0x2F57 JUMP JUMPDEST PUSH1 0x5 PUSH1 0x20 MSTORE PUSH0 SWAP1 DUP2 MSTORE PUSH1 0x40 SWAP1 KECCAK256 SLOAD PUSH1 0x1 PUSH1 0x1 PUSH1 0xA0 SHL SUB AND DUP2 JUMP JUMPDEST PUSH1 0x40 MLOAD PUSH1 0x1 PUSH1 0x1 PUSH1 0xA0 SHL SUB SWAP1 SWAP2 AND DUP2 MSTORE PUSH1 0x20 ADD PUSH2 0x22A JUMP JUMPDEST PUSH2 0x286 PUSH2 0x281 CALLDATASIZE PUSH1 0x4 PUSH2 0x2F6E JUMP JUMPDEST PUSH2 0x675 JUMP JUMPDEST PUSH1 0x40 MLOAD PUSH1 0xFF SWAP1 SWAP2 AND DUP2 MSTORE PUSH1 0x20 ADD PUSH2 0x22A JUMP JUMPDEST PUSH2 0x2AB PUSH2 0x2A6 CALLDATASIZE PUSH1 0x4 PUSH2 0x2F6E JUMP JUMPDEST PUSH2 0x6C8 JUMP JUMPDEST PUSH1 0x40 MLOAD PUSH2 0x22A SWAP2 SWAP1 PUSH2 0x2FC8 JUMP JUMPDEST PUSH2 0x2CB PUSH2 0x2C6 CALLDATASIZE PUSH1 0x4 PUSH2 0x2F57 JUMP JUMPDEST PUSH2 0x79E JUMP JUMPDEST STOP JUMPDEST PUSH2 0x2CB PUSH2 0x2DB CALLDATASIZE PUSH1 0x4 PUSH2 0x2F57 JUMP JUMPDEST PUSH2 0xDBE JUMP JUMPDEST PUSH2 0x2CB PUSH2 0x2EE CALLDATASIZE PUSH1 0x4 PUSH2 0x2F6E JUMP JUMPDEST PUSH2 0xE90 JUMP JUMPDEST PUSH2 0x2CB PUSH2 0x301 CALLDATASIZE PUSH1 0x4 PUSH2 0x2FDA JUMP JUMPDEST PUSH2 0x10EB JUMP JUMPDEST PUSH2 0x332 PUSH2 0x314 CALLDATASIZE PUSH1 0x4 PUSH2 0x2F6E JUMP JUMPDEST PUSH1 0x1 PUSH1 0x1 PUSH1 0xA0 SHL SUB AND PUSH0 SWAP1 DUP2 MSTORE PUSH1 0x3 PUSH1 0x20 DUP2 SWAP1 MSTORE PUSH1 0x40 SWAP1 SWAP2 KECCAK256 ADD SLOAD SWAP1 JUMP JUMPDEST PUSH1 0x40 MLOAD SWAP1 DUP2 MSTORE PUSH1 0x20 ADD PUSH2 0x22A JUMP JUMPDEST PUSH2 0x2CB PUSH2 0x34E CALLDATASIZE PUSH1 0x4 PUSH2 0x301E JUMP JUMPDEST PUSH2 0x1167 JUMP JUMPDEST PUSH2 0x2CB PUSH2 0x361 CALLDATASIZE PUSH1 0x4 PUSH2 0x2F57 JUMP JUMPDEST PUSH2 0x119D JUMP JUMPDEST PUSH2 0x332 PUSH2 0x15E9 JUMP JUMPDEST PUSH2 0x381 PUSH2 0x37C CALLDATASIZE PUSH1 0x4 PUSH2 0x2F57 JUMP JUMPDEST PUSH2 0x1658 JUMP JUMPDEST PUSH1 0x40 DUP1 MLOAD PUSH1 0x1 PUSH1 0x1 PUSH1 0xA0 SHL SUB SWAP1 SWAP10 AND DUP10 MSTORE PUSH1 0x20 DUP10 ADD SWAP8 SWAP1 SWAP8 MSTORE SWAP6 DUP8 ADD SWAP5 SWAP1 SWAP5 MSTORE PUSH1 0x60 DUP7 ADD SWAP3 SWAP1 SWAP3 MSTORE PUSH1 0x80 DUP6 ADD MSTORE PUSH1 0xA0 DUP5 ADD MSTORE PUSH1 0xC0 DUP4 ADD MSTORE ISZERO ISZERO PUSH1 0xE0 DUP3 ADD MSTORE PUSH2 0x100 ADD PUSH2 0x22A JUMP JUMPDEST PUSH2 0x2CB PUSH2 0x3D6 CALLDATASIZE PUSH1 0x4 PUSH2 0x2FDA JUMP JUMPDEST PUSH2 0x18B3 JUMP JUMPDEST PUSH2 0x332 PUSH2 0x3E9 CALLDATASIZE PUSH1 0x4 PUSH2 0x2F57 JUMP JUMPDEST PUSH1 0x6 PUSH1 0x20 MSTORE PUSH0 SWAP1 DUP2 MSTORE PUSH1 0x40 SWAP1 KECCAK256 SLOAD DUP2 JUMP JUMPDEST PUSH0 SLOAD PUSH2 0x25B SWAP1 PUSH1 0x1 PUSH1 0x1 PUSH1 0xA0 SHL SUB AND DUP2 JUMP JUMPDEST PUSH2 0x332 PUSH2 0x41A CALLDATASIZE PUSH1 0x4 PUSH2 0x2F6E JUMP JUMPDEST PUSH1 0x1 PUSH1 0x1 PUSH1 0xA0 SHL SUB AND PUSH0 SWAP1 DUP2 MSTORE PUSH1 0x4 PUSH1 0x20 MSTORE PUSH1 0x40 SWAP1 KECCAK256 SLOAD SWAP1 JUMP JUMPDEST PUSH1 0x8 SLOAD PUSH2 0x332 JUMP JUMPDEST PUSH2 0x44F PUSH2 0x44A CALLDATASIZE PUSH1 0x4 PUSH2 0x2F6E JUMP JUMPDEST PUSH2 0x243F JUMP JUMPDEST PUSH1 0x40 MLOAD PUSH2 0x22A SWAP4 SWAP3 SWAP2 SWAP1 PUSH2 0x309F JUMP JUMPDEST PUSH2 0x25B PUSH2 0x46C CALLDATASIZE PUSH1 0x4 PUSH2 0x2F57 JUMP JUMPDEST PUSH2 0x262C JUMP JUMPDEST PUSH2 0x4B4 PUSH2 0x47F CALLDATASIZE PUSH1 0x4 PUSH2 0x2F6E JUMP JUMPDEST PUSH1 0x3 PUSH1 0x20 DUP2 SWAP1 MSTORE PUSH0 SWAP2 DUP3 MSTORE PUSH1 0x40 SWAP1 SWAP2 KECCAK256 DUP1 SLOAD PUSH1 0x2 DUP3 ADD SLOAD SWAP3 DUP3 ADD SLOAD PUSH1 0x4 SWAP1 SWAP3 ADD SLOAD PUSH1 0x1 PUSH1 0x1 PUSH1 0xA0 SHL SUB SWAP1 SWAP2 AND SWAP3 SWAP2 SWAP1 PUSH1 0xFF AND DUP5 JUMP JUMPDEST PUSH1 0x40 DUP1 MLOAD PUSH1 0x1 PUSH1 0x1 PUSH1 0xA0 SHL SUB SWAP1 SWAP6 AND DUP6 MSTORE PUSH1 0x20 DUP6 ADD SWAP4 SWAP1 SWAP4 MSTORE SWAP2 DUP4 ADD MSTORE ISZERO ISZERO PUSH1 0x60 DUP3 ADD MSTORE PUSH1 0x80 ADD PUSH2 0x22A JUMP JUMPDEST PUSH1 0x2 SLOAD PUSH2 0x25B SWAP1 PUSH1 0x1 PUSH1 0x1 PUSH1 0xA0 SHL SUB AND DUP2 JUMP JUMPDEST PUSH2 0x332 PUSH2 0x501 CALLDATASIZE PUSH1 0x4 PUSH2 0x2F6E JUMP JUMPDEST PUSH1 0x1 PUSH1 0x1 PUSH1 0xA0 SHL SUB AND PUSH0 SWAP1 DUP2 MSTORE PUSH1 0x7 PUSH1 0x20 MSTORE PUSH1 0x40 SWAP1 KECCAK256 SLOAD SWAP1 JUMP JUMPDEST PUSH2 0x52E PUSH2 0x529 CALLDATASIZE PUSH1 0x4 PUSH2 0x2FDA JUMP JUMPDEST PUSH2 0x2654 JUMP JUMPDEST PUSH1 0x40 DUP1 MLOAD SWAP3 DUP4 MSTORE PUSH1 0x20 DUP4 ADD SWAP2 SWAP1 SWAP2 MSTORE ADD PUSH2 0x22A JUMP JUMPDEST PUSH2 0x332 PUSH2 0x551 CALLDATASIZE PUSH1 0x4 PUSH2 0x2F6E JUMP JUMPDEST PUSH1 0x1 PUSH1 0x1 PUSH1 0xA0 SHL SUB AND PUSH0 SWAP1 DUP2 MSTORE PUSH1 0x3 PUSH1 0x20 MSTORE PUSH1 0x40 SWAP1 KECCAK256 PUSH1 0x2 ADD SLOAD SWAP1 JUMP JUMPDEST PUSH2 0x59C PUSH2 0x57C CALLDATASIZE PUSH1 0x4 PUSH2 0x2F6E JUMP JUMPDEST PUSH1 0x1 PUSH1 0x1 PUSH1 0xA0 SHL SUB AND PUSH0 SWAP1 DUP2 MSTORE PUSH1 0x3 PUSH1 0x20 MSTORE PUSH1 0x40 SWAP1 KECCAK256 PUSH1 0x4 ADD SLOAD PUSH1 0xFF AND SWAP1 JUMP JUMPDEST PUSH1 0x40 MLOAD SWAP1 ISZERO ISZERO DUP2 MSTORE PUSH1 0x20 ADD PUSH2 0x22A JUMP JUMPDEST PUSH2 0x25B PUSH2 0x5BA CALLDATASIZE PUSH1 0x4 PUSH2 0x2F6E JUMP JUMPDEST PUSH2 0x27A4 JUMP JUMPDEST PUSH2 0x2CB PUSH2 0x5CD CALLDATASIZE PUSH1 0x4 PUSH2 0x2F2F JUMP JUMPDEST PUSH2 0x2822 JUMP JUMPDEST PUSH2 0x286 PUSH2 0x5E0 CALLDATASIZE PUSH1 0x4 PUSH2 0x2F57 JUMP JUMPDEST PUSH2 0x29B0 JUMP JUMPDEST PUSH2 0x5F8 PUSH2 0x5F3 CALLDATASIZE PUSH1 0x4 PUSH2 0x2F6E JUMP JUMPDEST PUSH2 0x29D9 JUMP JUMPDEST PUSH1 0x40 MLOAD PUSH2 0x22A SWAP2 SWAP1 PUSH2 0x3114 JUMP JUMPDEST PUSH2 0x332 PUSH2 0x613 CALLDATASIZE PUSH1 0x4 PUSH2 0x2F6E JUMP JUMPDEST PUSH1 0x7 PUSH1 0x20 MSTORE PUSH0 SWAP1 DUP2 MSTORE PUSH1 0x40 SWAP1 KECCAK256 SLOAD DUP2 JUMP JUMPDEST PUSH2 0x332 PUSH1 0x1 SLOAD DUP2 JUMP JUMPDEST PUSH1 0x4 PUSH1 0x20 MSTORE DUP2 PUSH0 MSTORE PUSH1 0x40 PUSH0 KECCAK256 DUP2 DUP2 SLOAD DUP2 LT PUSH2 0x646 JUMPI PUSH0 DUP1 REVERT JUMPDEST PUSH0 SWAP2 DUP3 MSTORE PUSH1 0x20 SWAP1 SWAP2 KECCAK256 PUSH1 0x3 SWAP1 SWAP2 MUL ADD DUP1 SLOAD PUSH1 0x1 DUP3 ADD SLOAD PUSH1 0x2 SWAP1 SWAP3 ADD SLOAD PUSH1 0x1 PUSH1 0x1 PUSH1 0xA0 SHL SUB SWAP1 SWAP2 AND SWAP4 POP SWAP1 SWAP2 POP DUP4 JUMP JUMPDEST PUSH1 0x1 PUSH1 0x1 PUSH1 0xA0 SHL SUB DUP2 AND PUSH0 SWAP1 DUP2 MSTORE PUSH1 0x4 PUSH1 0x20 MSTORE PUSH1 0x40 DUP2 KECCAK256 SLOAD PUSH1 0xA DUP2 LT PUSH2 0x69E JUMPI POP PUSH1 0x3 SWAP3 SWAP2 POP POP JUMP JUMPDEST PUSH1 0x5 DUP2 LT PUSH2 0x6AF JUMPI POP PUSH1 0x2 SWAP3 SWAP2 POP POP JUMP JUMPDEST PUSH1 0x1 DUP2 LT PUSH2 0x6C0 JUMPI POP PUSH1 0x1 SWAP3 SWAP2 POP POP JUMP JUMPDEST POP PUSH0 SWAP3 SWAP2 POP POP JUMP JUMPDEST PUSH1 0x1 PUSH1 0x1 PUSH1 0xA0 SHL SUB DUP2 AND PUSH0 SWAP1 DUP2 MSTORE PUSH1 0x3 PUSH1 0x20 MSTORE PUSH1 0x40 DUP2 KECCAK256 PUSH1 0x1 ADD SLOAD PUSH1 0x60 SWAP2 DUP2 PUSH8 0xFFFFFFFFFFFFFFFF DUP2 GT ISZERO PUSH2 0x6FF JUMPI PUSH2 0x6FF PUSH2 0x2FFA JUMP JUMPDEST PUSH1 0x40 MLOAD SWAP1 DUP1 DUP3 MSTORE DUP1 PUSH1 0x20 MUL PUSH1 0x20 ADD DUP3 ADD PUSH1 0x40 MSTORE DUP1 ISZERO PUSH2 0x728 JUMPI DUP2 PUSH1 0x20 ADD PUSH1 0x20 DUP3 MUL DUP1 CALLDATASIZE DUP4 CALLDATACOPY ADD SWAP1 POP JUMPDEST POP SWAP1 POP PUSH0 JUMPDEST DUP3 DUP2 LT ISZERO PUSH2 0x796 JUMPI PUSH1 0x1 PUSH1 0x1 PUSH1 0xA0 SHL SUB DUP6 AND PUSH0 SWAP1 DUP2 MSTORE PUSH1 0x3 PUSH1 0x20 MSTORE PUSH1 0x40 SWAP1 KECCAK256 PUSH1 0x1 ADD DUP1 SLOAD DUP3 SWAP1 DUP2 LT PUSH2 0x761 JUMPI PUSH2 0x761 PUSH2 0x31AD JUMP JUMPDEST SWAP1 PUSH0 MSTORE PUSH1 0x20 PUSH0 KECCAK256 SWAP1 PUSH1 0x6 MUL ADD PUSH1 0x1 ADD SLOAD DUP3 DUP3 DUP2 MLOAD DUP2 LT PUSH2 0x783 JUMPI PUSH2 0x783 PUSH2 0x31AD JUMP JUMPDEST PUSH1 0x20 SWAP1 DUP2 MUL SWAP2 SWAP1 SWAP2 ADD ADD MSTORE PUSH1 0x1 ADD PUSH2 0x72D JUMP JUMPDEST POP SWAP4 SWAP3 POP POP POP JUMP JUMPDEST CALLER PUSH0 SWAP1 DUP2 MSTORE PUSH1 0x3 PUSH1 0x20 MSTORE PUSH1 0x40 SWAP1 KECCAK256 PUSH1 0x4 ADD SLOAD PUSH1 0xFF AND PUSH2 0x7D8 JUMPI PUSH1 0x40 MLOAD PUSH3 0x461BCD PUSH1 0xE5 SHL DUP2 MSTORE PUSH1 0x4 ADD PUSH2 0x7CF SWAP1 PUSH2 0x31C1 JUMP JUMPDEST PUSH1 0x40 MLOAD DUP1 SWAP2 SUB SWAP1 REVERT JUMPDEST CALLER PUSH0 DUP2 DUP2 MSTORE PUSH1 0x3 PUSH1 0x20 MSTORE PUSH1 0x40 DUP2 KECCAK256 SWAP1 PUSH1 0x1 DUP3 ADD SWAP1 DUP1 JUMPDEST DUP3 SLOAD DUP2 LT ISZERO PUSH2 0xD5E JUMPI DUP6 DUP4 DUP3 DUP2 SLOAD DUP2 LT PUSH2 0x80A JUMPI PUSH2 0x80A PUSH2 0x31AD JUMP JUMPDEST SWAP1 PUSH0 MSTORE PUSH1 0x20 PUSH0 KECCAK256 SWAP1 PUSH1 0x6 MUL ADD PUSH1 0x1 ADD SLOAD EQ DUP1 ISZERO PUSH2 0x84C JUMPI POP DUP3 DUP2 DUP2 SLOAD DUP2 LT PUSH2 0x834 JUMPI PUSH2 0x834 PUSH2 0x31AD JUMP JUMPDEST PUSH0 SWAP2 DUP3 MSTORE PUSH1 0x20 SWAP1 SWAP2 KECCAK256 PUSH1 0x5 PUSH1 0x6 SWAP1 SWAP3 MUL ADD ADD SLOAD PUSH1 0xFF AND ISZERO JUMPDEST ISZERO PUSH2 0xD56 JUMPI DUP3 DUP2 DUP2 SLOAD DUP2 LT PUSH2 0x863 JUMPI PUSH2 0x863 PUSH2 0x31AD JUMP JUMPDEST SWAP1 PUSH0 MSTORE PUSH1 0x20 PUSH0 KECCAK256 SWAP1 PUSH1 0x6 MUL ADD PUSH1 0x4 ADD SLOAD PUSH3 0x15180 PUSH2 0x881 SWAP2 SWAP1 PUSH2 0x31FD JUMP JUMPDEST DUP4 DUP3 DUP2 SLOAD DUP2 LT PUSH2 0x893 JUMPI PUSH2 0x893 PUSH2 0x31AD JUMP JUMPDEST SWAP1 PUSH0 MSTORE PUSH1 0x20 PUSH0 KECCAK256 SWAP1 PUSH1 0x6 MUL ADD PUSH1 0x3 ADD SLOAD PUSH2 0x8AD SWAP2 SWAP1 PUSH2 0x321A JUMP JUMPDEST TIMESTAMP LT ISZERO PUSH2 0x8FC JUMPI PUSH1 0x40 MLOAD PUSH3 0x461BCD PUSH1 0xE5 SHL DUP2 MSTORE PUSH1 0x20 PUSH1 0x4 DUP3 ADD DUP2 SWAP1 MSTORE PUSH1 0x24 DUP3 ADD MSTORE PUSH32 0x5374616B696E6720706572696F64206E6F742079657420636F6D706C65746564 PUSH1 0x44 DUP3 ADD MSTORE PUSH1 0x64 ADD PUSH2 0x7CF JUMP JUMPDEST PUSH0 PUSH1 0x6 PUSH0 DUP6 DUP5 DUP2 SLOAD DUP2 LT PUSH2 0x912 JUMPI PUSH2 0x912 PUSH2 0x31AD JUMP JUMPDEST SWAP1 PUSH0 MSTORE PUSH1 0x20 PUSH0 KECCAK256 SWAP1 PUSH1 0x6 MUL ADD PUSH1 0x4 ADD SLOAD DUP2 MSTORE PUSH1 0x20 ADD SWAP1 DUP2 MSTORE PUSH1 0x20 ADD PUSH0 KECCAK256 SLOAD SWAP1 POP PUSH0 DUP5 DUP4 DUP2 SLOAD DUP2 LT PUSH2 0x945 JUMPI PUSH2 0x945 PUSH2 0x31AD JUMP JUMPDEST SWAP1 PUSH0 MSTORE PUSH1 0x20 PUSH0 KECCAK256 SWAP1 PUSH1 0x6 MUL ADD PUSH1 0x4 ADD SLOAD PUSH1 0x1E SUB PUSH2 0x965 JUMPI POP PUSH2 0xBB8 PUSH2 0xAA8 JUMP JUMPDEST DUP5 DUP4 DUP2 SLOAD DUP2 LT PUSH2 0x977 JUMPI PUSH2 0x977 PUSH2 0x31AD JUMP JUMPDEST SWAP1 PUSH0 MSTORE PUSH1 0x20 PUSH0 KECCAK256 SWAP1 PUSH1 0x6 MUL ADD PUSH1 0x4 ADD SLOAD PUSH1 0x3C SUB PUSH2 0x997 JUMPI POP PUSH2 0x1770 PUSH2 0xAA8 JUMP JUMPDEST DUP5 DUP4 DUP2 SLOAD DUP2 LT PUSH2 0x9A9 JUMPI PUSH2 0x9A9 PUSH2 0x31AD JUMP JUMPDEST SWAP1 PUSH0 MSTORE PUSH1 0x20 PUSH0 KECCAK256 SWAP1 PUSH1 0x6 MUL ADD PUSH1 0x4 ADD SLOAD PUSH1 0x5A SUB PUSH2 0x9C9 JUMPI POP PUSH2 0x2328 PUSH2 0xAA8 JUMP JUMPDEST DUP5 DUP4 DUP2 SLOAD DUP2 LT PUSH2 0x9DB JUMPI PUSH2 0x9DB PUSH2 0x31AD JUMP JUMPDEST SWAP1 PUSH0 MSTORE PUSH1 0x20 PUSH0 KECCAK256 SWAP1 PUSH1 0x6 MUL ADD PUSH1 0x4 ADD SLOAD PUSH1 0x78 SUB PUSH2 0x9FB JUMPI POP PUSH2 0x2EE0 PUSH2 0xAA8 JUMP JUMPDEST DUP5 DUP4 DUP2 SLOAD DUP2 LT PUSH2 0xA0D JUMPI PUSH2 0xA0D PUSH2 0x31AD JUMP JUMPDEST SWAP1 PUSH0 MSTORE PUSH1 0x20 PUSH0 KECCAK256 SWAP1 PUSH1 0x6 MUL ADD PUSH1 0x4 ADD SLOAD PUSH1 0xB4 SUB PUSH2 0xA2D JUMPI POP PUSH2 0x4650 PUSH2 0xAA8 JUMP JUMPDEST DUP5 DUP4 DUP2 SLOAD DUP2 LT PUSH2 0xA3F JUMPI PUSH2 0xA3F PUSH2 0x31AD JUMP JUMPDEST SWAP1 PUSH0 MSTORE PUSH1 0x20 PUSH0 KECCAK256 SWAP1 PUSH1 0x6 MUL ADD PUSH1 0x4 ADD SLOAD PUSH2 0x16D SUB PUSH2 0xA60 JUMPI POP PUSH2 0x8E94 PUSH2 0xAA8 JUMP JUMPDEST PUSH1 0x40 MLOAD PUSH3 0x461BCD PUSH1 0xE5 SHL DUP2 MSTORE PUSH1 0x20 PUSH1 0x4 DUP3 ADD MSTORE PUSH1 0x1C PUSH1 0x24 DUP3 ADD MSTORE PUSH32 0x556E737570706F72746564207374616B696E67206475726174696F6E00000000 PUSH1 0x44 DUP3 ADD MSTORE PUSH1 0x64 ADD PUSH2 0x7CF JUMP JUMPDEST PUSH0 DUP2 DUP7 DUP6 DUP2 SLOAD DUP2 LT PUSH2 0xABC JUMPI PUSH2 0xABC PUSH2 0x31AD JUMP JUMPDEST SWAP1 PUSH0 MSTORE PUSH1 0x20 PUSH0 KECCAK256 SWAP1 PUSH1 0x6 MUL ADD PUSH1 0x4 ADD SLOAD DUP5 DUP9 DUP8 DUP2 SLOAD DUP2 LT PUSH2 0xADF JUMPI PUSH2 0xADF PUSH2 0x31AD JUMP JUMPDEST SWAP1 PUSH0 MSTORE PUSH1 0x20 PUSH0 KECCAK256 SWAP1 PUSH1 0x6 MUL ADD PUSH1 0x2 ADD SLOAD PUSH2 0xAF9 SWAP2 SWAP1 PUSH2 0x31FD JUMP JUMPDEST PUSH2 0xB03 SWAP2 SWAP1 PUSH2 0x31FD JUMP JUMPDEST PUSH2 0xB0D SWAP2 SWAP1 PUSH2 0x322D JUMP JUMPDEST SWAP1 POP PUSH0 DUP2 DUP8 DUP7 DUP2 SLOAD DUP2 LT PUSH2 0xB23 JUMPI PUSH2 0xB23 PUSH2 0x31AD JUMP JUMPDEST SWAP1 PUSH0 MSTORE PUSH1 0x20 PUSH0 KECCAK256 SWAP1 PUSH1 0x6 MUL ADD PUSH1 0x2 ADD SLOAD PUSH2 0xB3D SWAP2 SWAP1 PUSH2 0x321A JUMP JUMPDEST PUSH1 0x2 SLOAD PUSH1 0x40 MLOAD PUSH4 0x70A08231 PUSH1 0xE0 SHL DUP2 MSTORE ADDRESS PUSH1 0x4 DUP3 ADD MSTORE SWAP2 SWAP3 POP DUP3 SWAP2 PUSH1 0x1 PUSH1 0x1 PUSH1 0xA0 SHL SUB SWAP1 SWAP2 AND SWAP1 PUSH4 0x70A08231 SWAP1 PUSH1 0x24 ADD PUSH1 0x20 PUSH1 0x40 MLOAD DUP1 DUP4 SUB DUP2 DUP7 GAS STATICCALL ISZERO DUP1 ISZERO PUSH2 0xB88 JUMPI RETURNDATASIZE PUSH0 PUSH0 RETURNDATACOPY RETURNDATASIZE PUSH0 REVERT JUMPDEST POP POP POP POP PUSH1 0x40 MLOAD RETURNDATASIZE PUSH1 0x1F NOT PUSH1 0x1F DUP3 ADD AND DUP3 ADD DUP1 PUSH1 0x40 MSTORE POP DUP2 ADD SWAP1 PUSH2 0xBAC SWAP2 SWAP1 PUSH2 0x324C JUMP JUMPDEST LT ISZERO PUSH2 0xBCA JUMPI PUSH1 0x40 MLOAD PUSH3 0x461BCD PUSH1 0xE5 SHL DUP2 MSTORE PUSH1 0x4 ADD PUSH2 0x7CF SWAP1 PUSH2 0x3263 JUMP JUMPDEST PUSH1 0x1 DUP8 DUP7 DUP2 SLOAD DUP2 LT PUSH2 0xBDE JUMPI PUSH2 0xBDE PUSH2 0x31AD JUMP JUMPDEST PUSH0 SWAP2 DUP3 MSTORE PUSH1 0x20 DUP3 KECCAK256 PUSH1 0x6 SWAP2 SWAP1 SWAP2 MUL ADD PUSH1 0x5 ADD DUP1 SLOAD PUSH1 0xFF NOT AND SWAP3 ISZERO ISZERO SWAP3 SWAP1 SWAP3 OR SWAP1 SWAP2 SSTORE PUSH1 0x2 SLOAD PUSH1 0x40 MLOAD PUSH4 0xA9059CBB PUSH1 0xE0 SHL DUP2 MSTORE PUSH1 0x1 PUSH1 0x1 PUSH1 0xA0 SHL SUB DUP13 DUP2 AND PUSH1 0x4 DUP4 ADD MSTORE PUSH1 0x24 DUP3 ADD DUP6 SWAP1 MSTORE SWAP1 SWAP2 AND SWAP1 PUSH4 0xA9059CBB SWAP1 PUSH1 0x44 ADD PUSH1 0x20 PUSH1 0x40 MLOAD DUP1 DUP4 SUB DUP2 PUSH0 DUP8 GAS CALL ISZERO DUP1 ISZERO PUSH2 0xC50 JUMPI RETURNDATASIZE PUSH0 PUSH0 RETURNDATACOPY RETURNDATASIZE PUSH0 REVERT JUMPDEST POP POP POP POP PUSH1 0x40 MLOAD RETURNDATASIZE PUSH1 0x1F NOT PUSH1 0x1F DUP3 ADD AND DUP3 ADD DUP1 PUSH1 0x40 MSTORE POP DUP2 ADD SWAP1 PUSH2 0xC74 SWAP2 SWAP1 PUSH2 0x329A JUMP JUMPDEST SWAP1 POP DUP1 PUSH2 0xCBA JUMPI PUSH1 0x40 MLOAD PUSH3 0x461BCD PUSH1 0xE5 SHL DUP2 MSTORE PUSH1 0x20 PUSH1 0x4 DUP3 ADD MSTORE PUSH1 0x14 PUSH1 0x24 DUP3 ADD MSTORE PUSH20 0x1554D115081D1C985B9CD9995C8819985A5B1959 PUSH1 0x62 SHL PUSH1 0x44 DUP3 ADD MSTORE PUSH1 0x64 ADD PUSH2 0x7CF JUMP JUMPDEST DUP10 PUSH1 0x1 PUSH1 0x1 PUSH1 0xA0 SHL SUB AND PUSH32 0x9CDCF2F7714CCA3508C7F0110B04A90A80A3A8DD0E35DE99689DB74D28C5383E DUP10 DUP9 DUP2 SLOAD DUP2 LT PUSH2 0xCF7 JUMPI PUSH2 0xCF7 PUSH2 0x31AD JUMP JUMPDEST SWAP1 PUSH0 MSTORE PUSH1 0x20 PUSH0 KECCAK256 SWAP1 PUSH1 0x6 MUL ADD PUSH0 ADD SLOAD DUP11 DUP10 DUP2 SLOAD DUP2 LT PUSH2 0xD18 JUMPI PUSH2 0xD18 PUSH2 0x31AD JUMP JUMPDEST PUSH0 SWAP2 DUP3 MSTORE PUSH1 0x20 SWAP2 DUP3 SWAP1 KECCAK256 PUSH1 0x2 PUSH1 0x6 SWAP1 SWAP3 MUL ADD ADD SLOAD PUSH1 0x40 DUP1 MLOAD SWAP4 DUP5 MSTORE SWAP2 DUP4 ADD MSTORE DUP2 ADD DUP7 SWAP1 MSTORE PUSH1 0x60 ADD JUMPDEST PUSH1 0x40 MLOAD DUP1 SWAP2 SUB SWAP1 LOG2 PUSH1 0x1 SWAP7 POP POP POP POP POP POP PUSH2 0xD5E JUMP JUMPDEST PUSH1 0x1 ADD PUSH2 0x7EE JUMP JUMPDEST POP DUP1 PUSH2 0xDB7 JUMPI PUSH1 0x40 MLOAD PUSH3 0x461BCD PUSH1 0xE5 SHL DUP2 MSTORE PUSH1 0x20 PUSH1 0x4 DUP3 ADD MSTORE PUSH1 0x22 PUSH1 0x24 DUP3 ADD MSTORE PUSH32 0x5374616B65206E6F7420666F756E64206F7220616C726561647920636C61696D PUSH1 0x44 DUP3 ADD MSTORE PUSH2 0x1959 PUSH1 0xF2 SHL PUSH1 0x64 DUP3 ADD MSTORE PUSH1 0x84 ADD PUSH2 0x7CF JUMP JUMPDEST POP POP POP POP POP JUMP JUMPDEST PUSH0 SLOAD PUSH1 0x1 PUSH1 0x1 PUSH1 0xA0 SHL SUB AND CALLER EQ PUSH2 0xE17 JUMPI PUSH1 0x40 MLOAD PUSH3 0x461BCD PUSH1 0xE5 SHL DUP2 MSTORE PUSH1 0x20 PUSH1 0x4 DUP3 ADD MSTORE PUSH1 0x17 PUSH1 0x24 DUP3 ADD MSTORE PUSH32 0x4F6E6C79206F776E65722063616E207769746864726177000000000000000000 PUSH1 0x44 DUP3 ADD MSTORE PUSH1 0x64 ADD PUSH2 0x7CF JUMP JUMPDEST PUSH1 0x2 SLOAD PUSH0 SLOAD PUSH1 0x40 MLOAD PUSH4 0xA9059CBB PUSH1 0xE0 SHL DUP2 MSTORE PUSH1 0x1 PUSH1 0x1 PUSH1 0xA0 SHL SUB SWAP2 DUP3 AND PUSH1 0x4 DUP3 ADD MSTORE PUSH1 0x24 DUP2 ADD DUP5 SWAP1 MSTORE SWAP2 AND SWAP1 PUSH4 0xA9059CBB SWAP1 PUSH1 0x44 ADD PUSH1 0x20 PUSH1 0x40 MLOAD DUP1 DUP4 SUB DUP2 PUSH0 DUP8 GAS CALL ISZERO DUP1 ISZERO PUSH2 0xE68 JUMPI RETURNDATASIZE PUSH0 PUSH0 RETURNDATACOPY RETURNDATASIZE PUSH0 REVERT JUMPDEST POP POP POP POP PUSH1 0x40 MLOAD RETURNDATASIZE PUSH1 0x1F NOT PUSH1 0x1F DUP3 ADD AND DUP3 ADD DUP1 PUSH1 0x40 MSTORE POP DUP2 ADD SWAP1 PUSH2 0xE8C SWAP2 SWAP1 PUSH2 0x329A JUMP JUMPDEST POP POP JUMP JUMPDEST CALLER PUSH0 SWAP1 DUP2 MSTORE PUSH1 0x3 PUSH1 0x20 MSTORE PUSH1 0x40 SWAP1 KECCAK256 PUSH1 0x4 ADD SLOAD PUSH1 0xFF AND ISZERO PUSH2 0xEE7 JUMPI PUSH1 0x40 MLOAD PUSH3 0x461BCD PUSH1 0xE5 SHL DUP2 MSTORE PUSH1 0x20 PUSH1 0x4 DUP3 ADD MSTORE PUSH1 0x12 PUSH1 0x24 DUP3 ADD MSTORE PUSH18 0x105B1C9958591E481C9959DA5CDD195C9959 PUSH1 0x72 SHL PUSH1 0x44 DUP3 ADD MSTORE PUSH1 0x64 ADD PUSH2 0x7CF JUMP JUMPDEST CALLER PUSH1 0x1 PUSH1 0x1 PUSH1 0xA0 SHL SUB DUP3 AND SUB PUSH2 0xF37 JUMPI PUSH1 0x40 MLOAD PUSH3 0x461BCD PUSH1 0xE5 SHL DUP2 MSTORE PUSH1 0x20 PUSH1 0x4 DUP3 ADD MSTORE PUSH1 0x15 PUSH1 0x24 DUP3 ADD MSTORE PUSH21 0x21B0B73737BA103932B332B9103CB7BAB939B2B633 PUSH1 0x59 SHL PUSH1 0x44 DUP3 ADD MSTORE PUSH1 0x64 ADD PUSH2 0x7CF JUMP JUMPDEST PUSH1 0x1 PUSH1 0x1 PUSH1 0xA0 SHL SUB DUP2 AND PUSH0 SWAP1 DUP2 MSTORE PUSH1 0x3 PUSH1 0x20 MSTORE PUSH1 0x40 SWAP1 KECCAK256 PUSH1 0x4 ADD SLOAD PUSH1 0xFF AND PUSH2 0xFA1 JUMPI PUSH1 0x40 MLOAD PUSH3 0x461BCD PUSH1 0xE5 SHL DUP2 MSTORE PUSH1 0x20 PUSH1 0x4 DUP3 ADD MSTORE PUSH1 0x17 PUSH1 0x24 DUP3 ADD MSTORE PUSH32 0x5265666572726572206E6F742072656769737465726564000000000000000000 PUSH1 0x44 DUP3 ADD MSTORE PUSH1 0x64 ADD PUSH2 0x7CF JUMP JUMPDEST PUSH1 0x1 PUSH1 0x1 PUSH1 0xA0 SHL SUB DUP2 AND PUSH0 SWAP1 DUP2 MSTORE PUSH1 0x3 PUSH1 0x20 MSTORE PUSH1 0x40 SWAP1 KECCAK256 PUSH1 0x1 ADD SLOAD PUSH2 0x101C JUMPI PUSH1 0x40 MLOAD PUSH3 0x461BCD PUSH1 0xE5 SHL DUP2 MSTORE PUSH1 0x20 PUSH1 0x4 DUP3 ADD MSTORE PUSH1 0x2B PUSH1 0x24 DUP3 ADD MSTORE PUSH32 0x5265666572726572206D757374207374616B65206265666F726520796F752063 PUSH1 0x44 DUP3 ADD MSTORE PUSH11 0x30B7103932B3B4B9BA32B9 PUSH1 0xA9 SHL PUSH1 0x64 DUP3 ADD MSTORE PUSH1 0x84 ADD PUSH2 0x7CF JUMP JUMPDEST CALLER PUSH0 DUP2 DUP2 MSTORE PUSH1 0x3 PUSH1 0x20 DUP2 DUP2 MSTORE PUSH1 0x40 DUP1 DUP5 KECCAK256 DUP1 SLOAD PUSH1 0x1 PUSH1 0x1 PUSH1 0xA0 SHL SUB SWAP8 DUP9 AND PUSH1 0x1 PUSH1 0x1 PUSH1 0xA0 SHL SUB NOT SWAP2 DUP3 AND DUP2 OR DUP4 SSTORE PUSH1 0x4 SWAP3 DUP4 ADD DUP1 SLOAD PUSH1 0xFF NOT AND PUSH1 0x1 SWAP1 DUP2 OR SWAP1 SWAP2 SSTORE PUSH1 0x8 DUP1 SLOAD DUP1 DUP4 ADD SWAP1 SWAP2 SSTORE PUSH32 0xF3F7A9FE364FAAB93B216DA50A3214154F22A0A2B415B23A84C8169E8B636EE3 ADD DUP1 SLOAD DUP5 AND DUP11 OR SWAP1 SSTORE SWAP1 DUP8 MSTORE SWAP2 DUP5 MSTORE DUP3 DUP7 KECCAK256 DUP4 MLOAD PUSH1 0x60 DUP2 ADD DUP6 MSTORE SWAP8 DUP9 MSTORE DUP8 DUP6 ADD DUP8 DUP2 MSTORE TIMESTAMP SWAP5 DUP10 ADD SWAP5 DUP6 MSTORE DUP2 SLOAD DUP1 DUP6 ADD DUP4 SSTORE SWAP2 DUP9 MSTORE SWAP5 SWAP1 SWAP7 KECCAK256 SWAP7 MLOAD SWAP6 SWAP1 SWAP5 MUL SWAP1 SWAP6 ADD DUP1 SLOAD SWAP5 SWAP1 SWAP7 AND SWAP4 SWAP1 SWAP3 AND SWAP3 SWAP1 SWAP3 OR DUP5 SSTORE SWAP1 MLOAD SWAP2 DUP4 ADD SWAP2 SWAP1 SWAP2 SSTORE MLOAD PUSH1 0x2 SWAP1 SWAP2 ADD SSTORE JUMP JUMPDEST PUSH0 SLOAD PUSH1 0x1 PUSH1 0x1 PUSH1 0xA0 SHL SUB AND CALLER EQ PUSH2 0x1114 JUMPI PUSH1 0x40 MLOAD PUSH3 0x461BCD PUSH1 0xE5 SHL DUP2 MSTORE PUSH1 0x4 ADD PUSH2 0x7CF SWAP1 PUSH2 0x32B9 JUMP JUMPDEST PUSH0 DUP3 GT PUSH2 0x1156 JUMPI PUSH1 0x40 MLOAD PUSH3 0x461BCD PUSH1 0xE5 SHL DUP2 MSTORE PUSH1 0x20 PUSH1 0x4 DUP3 ADD MSTORE PUSH1 0x10 PUSH1 0x24 DUP3 ADD MSTORE PUSH16 0x44617973206D757374206265203E203 PUSH1 0x84 SHL PUSH1 0x44 DUP3 ADD MSTORE PUSH1 0x64 ADD PUSH2 0x7CF JUMP JUMPDEST PUSH0 SWAP2 DUP3 MSTORE PUSH1 0x6 PUSH1 0x20 MSTORE PUSH1 0x40 SWAP1 SWAP2 KECCAK256 SSTORE JUMP JUMPDEST PUSH0 SLOAD PUSH1 0x1 PUSH1 0x1 PUSH1 0xA0 SHL SUB AND CALLER EQ PUSH2 0x1190 JUMPI PUSH1 0x40 MLOAD PUSH3 0x461BCD PUSH1 0xE5 SHL DUP2 MSTORE PUSH1 0x4 ADD PUSH2 0x7CF SWAP1 PUSH2 0x32B9 JUMP JUMPDEST PUSH2 0xE8C PUSH1 0x9 DUP3 PUSH1 0x5 PUSH2 0x2E70 JUMP JUMPDEST CALLER PUSH0 SWAP1 DUP2 MSTORE PUSH1 0x3 PUSH1 0x20 MSTORE PUSH1 0x40 SWAP1 KECCAK256 PUSH1 0x4 ADD SLOAD PUSH1 0xFF AND PUSH2 0x11CE JUMPI PUSH1 0x40 MLOAD PUSH3 0x461BCD PUSH1 0xE5 SHL DUP2 MSTORE PUSH1 0x4 ADD PUSH2 0x7CF SWAP1 PUSH2 0x31C1 JUMP JUMPDEST CALLER PUSH0 DUP2 DUP2 MSTORE PUSH1 0x3 PUSH1 0x20 MSTORE PUSH1 0x40 DUP2 KECCAK256 SWAP1 PUSH1 0x1 DUP3 ADD SWAP1 DUP1 JUMPDEST DUP3 SLOAD DUP2 LT ISZERO PUSH2 0xD5E JUMPI DUP6 DUP4 DUP3 DUP2 SLOAD DUP2 LT PUSH2 0x1200 JUMPI PUSH2 0x1200 PUSH2 0x31AD JUMP JUMPDEST SWAP1 PUSH0 MSTORE PUSH1 0x20 PUSH0 KECCAK256 SWAP1 PUSH1 0x6 MUL ADD PUSH1 0x1 ADD SLOAD EQ DUP1 ISZERO PUSH2 0x1242 JUMPI POP DUP3 DUP2 DUP2 SLOAD DUP2 LT PUSH2 0x122A JUMPI PUSH2 0x122A PUSH2 0x31AD JUMP JUMPDEST PUSH0 SWAP2 DUP3 MSTORE PUSH1 0x20 SWAP1 SWAP2 KECCAK256 PUSH1 0x5 PUSH1 0x6 SWAP1 SWAP3 MUL ADD ADD SLOAD PUSH1 0xFF AND ISZERO JUMPDEST ISZERO PUSH2 0x15E1 JUMPI DUP3 DUP2 DUP2 SLOAD DUP2 LT PUSH2 0x1259 JUMPI PUSH2 0x1259 PUSH2 0x31AD JUMP JUMPDEST SWAP1 PUSH0 MSTORE PUSH1 0x20 PUSH0 KECCAK256 SWAP1 PUSH1 0x6 MUL ADD PUSH1 0x3 ADD SLOAD PUSH3 0x1A5E00 PUSH2 0x1277 SWAP2 SWAP1 PUSH2 0x321A JUMP JUMPDEST TIMESTAMP LT ISZERO PUSH2 0x12D9 JUMPI PUSH1 0x40 MLOAD PUSH3 0x461BCD PUSH1 0xE5 SHL DUP2 MSTORE PUSH1 0x20 PUSH1 0x4 DUP3 ADD MSTORE PUSH1 0x2A PUSH1 0x24 DUP3 ADD MSTORE PUSH32 0x456D657267656E637920636C61696D20616C6C6F776564206F6E6C7920616674 PUSH1 0x44 DUP3 ADD MSTORE PUSH10 0x65722031302064617973 PUSH1 0xB0 SHL PUSH1 0x64 DUP3 ADD MSTORE PUSH1 0x84 ADD PUSH2 0x7CF JUMP JUMPDEST PUSH0 DUP4 DUP3 DUP2 SLOAD DUP2 LT PUSH2 0x12EC JUMPI PUSH2 0x12EC PUSH2 0x31AD JUMP JUMPDEST PUSH0 SWAP2 DUP3 MSTORE PUSH1 0x20 DUP3 KECCAK256 PUSH1 0x2 PUSH1 0x6 SWAP1 SWAP3 MUL ADD ADD SLOAD SWAP2 POP PUSH1 0x64 PUSH2 0x130D DUP4 PUSH1 0x5 PUSH2 0x31FD JUMP JUMPDEST PUSH2 0x1317 SWAP2 SWAP1 PUSH2 0x322D JUMP JUMPDEST SWAP1 POP PUSH0 PUSH2 0x1324 DUP3 DUP5 PUSH2 0x32F0 JUMP JUMPDEST PUSH1 0x2 SLOAD PUSH1 0x40 MLOAD PUSH4 0x70A08231 PUSH1 0xE0 SHL DUP2 MSTORE ADDRESS PUSH1 0x4 DUP3 ADD MSTORE SWAP2 SWAP3 POP DUP5 SWAP2 PUSH1 0x1 PUSH1 0x1 PUSH1 0xA0 SHL SUB SWAP1 SWAP2 AND SWAP1 PUSH4 0x70A08231 SWAP1 PUSH1 0x24 ADD PUSH1 0x20 PUSH1 0x40 MLOAD DUP1 DUP4 SUB DUP2 DUP7 GAS STATICCALL ISZERO DUP1 ISZERO PUSH2 0x136F JUMPI RETURNDATASIZE PUSH0 PUSH0 RETURNDATACOPY RETURNDATASIZE PUSH0 REVERT JUMPDEST POP POP POP POP PUSH1 0x40 MLOAD RETURNDATASIZE PUSH1 0x1F NOT PUSH1 0x1F DUP3 ADD AND DUP3 ADD DUP1 PUSH1 0x40 MSTORE POP DUP2 ADD SWAP1 PUSH2 0x1393 SWAP2 SWAP1 PUSH2 0x324C JUMP JUMPDEST LT ISZERO PUSH2 0x13B1 JUMPI PUSH1 0x40 MLOAD PUSH3 0x461BCD PUSH1 0xE5 SHL DUP2 MSTORE PUSH1 0x4 ADD PUSH2 0x7CF SWAP1 PUSH2 0x3263 JUMP JUMPDEST PUSH1 0x1 DUP7 DUP6 DUP2 SLOAD DUP2 LT PUSH2 0x13C5 JUMPI PUSH2 0x13C5 PUSH2 0x31AD JUMP JUMPDEST PUSH0 SWAP2 DUP3 MSTORE PUSH1 0x20 DUP3 KECCAK256 PUSH1 0x6 SWAP2 SWAP1 SWAP2 MUL ADD PUSH1 0x5 ADD DUP1 SLOAD PUSH1 0xFF NOT AND SWAP3 ISZERO ISZERO SWAP3 SWAP1 SWAP3 OR SWAP1 SWAP2 SSTORE PUSH1 0x2 SLOAD PUSH1 0x40 MLOAD PUSH4 0xA9059CBB PUSH1 0xE0 SHL DUP2 MSTORE PUSH1 0x1 PUSH1 0x1 PUSH1 0xA0 SHL SUB DUP12 DUP2 AND PUSH1 0x4 DUP4 ADD MSTORE PUSH1 0x24 DUP3 ADD DUP6 SWAP1 MSTORE SWAP1 SWAP2 AND SWAP1 PUSH4 0xA9059CBB SWAP1 PUSH1 0x44 ADD PUSH1 0x20 PUSH1 0x40 MLOAD DUP1 DUP4 SUB DUP2 PUSH0 DUP8 GAS CALL ISZERO DUP1 ISZERO PUSH2 0x1437 JUMPI RETURNDATASIZE PUSH0 PUSH0 RETURNDATACOPY RETURNDATASIZE PUSH0 REVERT JUMPDEST POP POP POP POP PUSH1 0x40 MLOAD RETURNDATASIZE PUSH1 0x1F NOT PUSH1 0x1F DUP3 ADD AND DUP3 ADD DUP1 PUSH1 0x40 MSTORE POP DUP2 ADD SWAP1 PUSH2 0x145B SWAP2 SWAP1 PUSH2 0x329A JUMP JUMPDEST SWAP1 POP DUP1 PUSH2 0x14A1 JUMPI PUSH1 0x40 MLOAD PUSH3 0x461BCD PUSH1 0xE5 SHL DUP2 MSTORE PUSH1 0x20 PUSH1 0x4 DUP3 ADD MSTORE PUSH1 0x14 PUSH1 0x24 DUP3 ADD MSTORE PUSH20 0x155CD95C881D1C985B9CD9995C8819985A5B1959 PUSH1 0x62 SHL PUSH1 0x44 DUP3 ADD MSTORE PUSH1 0x64 ADD PUSH2 0x7CF JUMP JUMPDEST PUSH1 0x2 SLOAD PUSH1 0x40 MLOAD PUSH4 0xA9059CBB PUSH1 0xE0 SHL DUP2 MSTORE PUSH20 0xEEF21D3E729763275415156B3A96DC26F371753E PUSH1 0x4 DUP3 ADD MSTORE PUSH1 0x24 DUP2 ADD DUP6 SWAP1 MSTORE PUSH0 SWAP2 PUSH1 0x1 PUSH1 0x1 PUSH1 0xA0 SHL SUB AND SWAP1 PUSH4 0xA9059CBB SWAP1 PUSH1 0x44 ADD PUSH1 0x20 PUSH1 0x40 MLOAD DUP1 DUP4 SUB DUP2 PUSH0 DUP8 GAS CALL ISZERO DUP1 ISZERO PUSH2 0x1503 JUMPI RETURNDATASIZE PUSH0 PUSH0 RETURNDATACOPY RETURNDATASIZE PUSH0 REVERT JUMPDEST POP POP POP POP PUSH1 0x40 MLOAD RETURNDATASIZE PUSH1 0x1F NOT PUSH1 0x1F DUP3 ADD AND DUP3 ADD DUP1 PUSH1 0x40 MSTORE POP DUP2 ADD SWAP1 PUSH2 0x1527 SWAP2 SWAP1 PUSH2 0x329A JUMP JUMPDEST SWAP1 POP DUP1 PUSH2 0x1576 JUMPI PUSH1 0x40 MLOAD PUSH3 0x461BCD PUSH1 0xE5 SHL DUP2 MSTORE PUSH1 0x20 PUSH1 0x4 DUP3 ADD MSTORE PUSH1 0x19 PUSH1 0x24 DUP3 ADD MSTORE PUSH32 0x41646D696E20666565207472616E73666572206661696C656400000000000000 PUSH1 0x44 DUP3 ADD MSTORE PUSH1 0x64 ADD PUSH2 0x7CF JUMP JUMPDEST DUP10 PUSH1 0x1 PUSH1 0x1 PUSH1 0xA0 SHL SUB AND PUSH32 0x9CDCF2F7714CCA3508C7F0110B04A90A80A3A8DD0E35DE99689DB74D28C5383E DUP10 DUP9 DUP2 SLOAD DUP2 LT PUSH2 0x15B3 JUMPI PUSH2 0x15B3 PUSH2 0x31AD JUMP JUMPDEST PUSH0 SWAP2 DUP3 MSTORE PUSH1 0x20 DUP3 KECCAK256 PUSH1 0x6 SWAP1 SWAP2 MUL ADD SLOAD PUSH1 0x40 MLOAD PUSH2 0xD40 SWAP3 DUP9 SWAP2 SWAP3 DUP4 MSTORE PUSH1 0x20 DUP4 ADD SWAP2 SWAP1 SWAP2 MSTORE PUSH1 0x40 DUP3 ADD MSTORE PUSH1 0x60 ADD SWAP1 JUMP JUMPDEST PUSH1 0x1 ADD PUSH2 0x11E4 JUMP JUMPDEST PUSH1 0x2 SLOAD PUSH1 0x40 MLOAD PUSH4 0x70A08231 PUSH1 0xE0 SHL DUP2 MSTORE ADDRESS PUSH1 0x4 DUP3 ADD MSTORE PUSH0 SWAP2 PUSH1 0x1 PUSH1 0x1 PUSH1 0xA0 SHL SUB AND SWAP1 PUSH4 0x70A08231 SWAP1 PUSH1 0x24 ADD PUSH1 0x20 PUSH1 0x40 MLOAD DUP1 DUP4 SUB DUP2 DUP7 GAS STATICCALL ISZERO DUP1 ISZERO PUSH2 0x162F JUMPI RETURNDATASIZE PUSH0 PUSH0 RETURNDATACOPY RETURNDATASIZE PUSH0 REVERT JUMPDEST POP POP POP POP PUSH1 0x40 MLOAD RETURNDATASIZE PUSH1 0x1F NOT PUSH1 0x1F DUP3 ADD AND DUP3 ADD DUP1 PUSH1 0x40 MSTORE POP DUP2 ADD SWAP1 PUSH2 0x1653 SWAP2 SWAP1 PUSH2 0x324C JUMP JUMPDEST SWAP1 POP SWAP1 JUMP JUMPDEST PUSH0 DUP2 DUP2 MSTORE PUSH1 0x5 PUSH1 0x20 MSTORE PUSH1 0x40 DUP2 KECCAK256 SLOAD DUP2 SWAP1 DUP2 SWAP1 DUP2 SWAP1 DUP2 SWAP1 DUP2 SWAP1 DUP2 SWAP1 DUP2 SWAP1 PUSH1 0x1 PUSH1 0x1 PUSH1 0xA0 SHL SUB AND DUP1 PUSH2 0x16BF JUMPI PUSH1 0x40 MLOAD PUSH3 0x461BCD PUSH1 0xE5 SHL DUP2 MSTORE PUSH1 0x20 PUSH1 0x4 DUP3 ADD MSTORE PUSH1 0x12 PUSH1 0x24 DUP3 ADD MSTORE PUSH18 0x125B9D985B1A59081C1BDCDA5D1A5BDB9259 PUSH1 0x72 SHL PUSH1 0x44 DUP3 ADD MSTORE PUSH1 0x64 ADD PUSH2 0x7CF JUMP JUMPDEST PUSH1 0x1 PUSH1 0x1 PUSH1 0xA0 SHL SUB DUP2 AND PUSH0 SWAP1 DUP2 MSTORE PUSH1 0x3 PUSH1 0x20 SWAP1 DUP2 MSTORE PUSH1 0x40 DUP1 DUP4 KECCAK256 PUSH1 0x1 ADD DUP1 SLOAD DUP3 MLOAD DUP2 DUP6 MUL DUP2 ADD DUP6 ADD SWAP1 SWAP4 MSTORE DUP1 DUP4 MSTORE SWAP2 SWAP3 SWAP1 SWAP2 SWAP1 DUP5 SWAP1 DUP5 ADD JUMPDEST DUP3 DUP3 LT ISZERO PUSH2 0x1763 JUMPI PUSH0 DUP5 DUP2 MSTORE PUSH1 0x20 SWAP1 DUP2 SWAP1 KECCAK256 PUSH1 0x40 DUP1 MLOAD PUSH1 0xC0 DUP2 ADD DUP3 MSTORE PUSH1 0x6 DUP7 MUL SWAP1 SWAP3 ADD DUP1 SLOAD DUP4 MSTORE PUSH1 0x1 DUP1 DUP3 ADD SLOAD DUP5 DUP7 ADD MSTORE PUSH1 0x2 DUP3 ADD SLOAD SWAP3 DUP5 ADD SWAP3 SWAP1 SWAP3 MSTORE PUSH1 0x3 DUP2 ADD SLOAD PUSH1 0x60 DUP5 ADD MSTORE PUSH1 0x4 DUP2 ADD SLOAD PUSH1 0x80 DUP5 ADD MSTORE PUSH1 0x5 ADD SLOAD PUSH1 0xFF AND ISZERO ISZERO PUSH1 0xA0 DUP4 ADD MSTORE SWAP1 DUP4 MSTORE SWAP1 SWAP3 ADD SWAP2 ADD PUSH2 0x16F7 JUMP JUMPDEST POP SWAP3 SWAP4 POP PUSH0 SWAP3 POP POP POP JUMPDEST DUP2 MLOAD DUP2 LT ISZERO PUSH2 0x186D JUMPI DUP12 DUP3 DUP3 DUP2 MLOAD DUP2 LT PUSH2 0x1789 JUMPI PUSH2 0x1789 PUSH2 0x31AD JUMP JUMPDEST PUSH1 0x20 MUL PUSH1 0x20 ADD ADD MLOAD PUSH1 0x20 ADD MLOAD SUB PUSH2 0x1865 JUMPI PUSH0 DUP3 DUP3 DUP2 MLOAD DUP2 LT PUSH2 0x17AD JUMPI PUSH2 0x17AD PUSH2 0x31AD JUMP JUMPDEST PUSH1 0x20 MUL PUSH1 0x20 ADD ADD MLOAD SWAP1 POP PUSH0 PUSH1 0x6 PUSH0 DUP4 PUSH1 0x80 ADD MLOAD DUP2 MSTORE PUSH1 0x20 ADD SWAP1 DUP2 MSTORE PUSH1 0x20 ADD PUSH0 KECCAK256 SLOAD SWAP1 POP PUSH0 DUP3 PUSH1 0x80 ADD MLOAD PUSH3 0x15180 PUSH2 0x17E4 SWAP2 SWAP1 PUSH2 0x31FD JUMP JUMPDEST DUP4 PUSH1 0x60 ADD MLOAD PUSH2 0x17F3 SWAP2 SWAP1 PUSH2 0x321A JUMP JUMPDEST SWAP1 POP PUSH0 DUP4 PUSH1 0xA0 ADD MLOAD ISZERO DUP1 ISZERO PUSH2 0x1807 JUMPI POP DUP2 TIMESTAMP LT JUMPDEST SWAP1 POP PUSH0 PUSH2 0x16D PUSH1 0x64 DUP6 DUP8 PUSH1 0x40 ADD MLOAD PUSH2 0x181F SWAP2 SWAP1 PUSH2 0x31FD JUMP JUMPDEST PUSH2 0x1829 SWAP2 SWAP1 PUSH2 0x322D JUMP JUMPDEST PUSH2 0x1833 SWAP2 SWAP1 PUSH2 0x322D JUMP JUMPDEST SWAP1 POP DUP8 DUP6 PUSH0 ADD MLOAD DUP7 PUSH1 0x40 ADD MLOAD DUP8 PUSH1 0x60 ADD MLOAD DUP7 DUP9 DUP7 DUP9 SWAP16 POP SWAP16 POP SWAP16 POP SWAP16 POP SWAP16 POP SWAP16 POP SWAP16 POP SWAP16 POP POP POP POP POP POP POP POP POP PUSH2 0x18A8 JUMP JUMPDEST PUSH1 0x1 ADD PUSH2 0x176D JUMP JUMPDEST POP PUSH1 0x40 MLOAD PUSH3 0x461BCD PUSH1 0xE5 SHL DUP2 MSTORE PUSH1 0x20 PUSH1 0x4 DUP3 ADD MSTORE PUSH1 0xF PUSH1 0x24 DUP3 ADD MSTORE PUSH15 0x14DD185AD9481B9BDD08199BDD5B99 PUSH1 0x8A SHL PUSH1 0x44 DUP3 ADD MSTORE PUSH1 0x64 ADD PUSH2 0x7CF JUMP JUMPDEST SWAP2 SWAP4 SWAP6 SWAP8 POP SWAP2 SWAP4 SWAP6 SWAP8 JUMP JUMPDEST CALLER PUSH0 SWAP1 DUP2 MSTORE PUSH1 0x3 PUSH1 0x20 MSTORE PUSH1 0x40 SWAP1 KECCAK256 PUSH1 0x4 ADD SLOAD PUSH1 0xFF AND PUSH2 0x18E4 JUMPI PUSH1 0x40 MLOAD PUSH3 0x461BCD PUSH1 0xE5 SHL DUP2 MSTORE PUSH1 0x4 ADD PUSH2 0x7CF SWAP1 PUSH2 0x31C1 JUMP JUMPDEST PUSH0 DUP2 GT PUSH2 0x193F JUMPI PUSH1 0x40 MLOAD PUSH3 0x461BCD PUSH1 0xE5 SHL DUP2 MSTORE PUSH1 0x20 PUSH1 0x4 DUP3 ADD MSTORE PUSH1 0x23 PUSH1 0x24 DUP3 ADD MSTORE PUSH32 0x5374616B6520616D6F756E74206D757374206265206772656174657220746861 PUSH1 0x44 DUP3 ADD MSTORE PUSH3 0x6E203 PUSH1 0xEC SHL PUSH1 0x64 DUP3 ADD MSTORE PUSH1 0x84 ADD PUSH2 0x7CF JUMP JUMPDEST PUSH0 DUP3 DUP2 MSTORE PUSH1 0x6 PUSH1 0x20 MSTORE PUSH1 0x40 SWAP1 KECCAK256 SLOAD PUSH2 0x1994 JUMPI PUSH1 0x40 MLOAD PUSH3 0x461BCD PUSH1 0xE5 SHL DUP2 MSTORE PUSH1 0x20 PUSH1 0x4 DUP3 ADD MSTORE PUSH1 0x18 PUSH1 0x24 DUP3 ADD MSTORE PUSH24 0x24B73B30B634B21039BA30B5B4B73390323AB930BA34B7B7 PUSH1 0x41 SHL PUSH1 0x44 DUP3 ADD MSTORE PUSH1 0x64 ADD PUSH2 0x7CF JUMP JUMPDEST CALLER PUSH0 SWAP1 DUP2 MSTORE PUSH1 0x3 PUSH1 0x20 MSTORE PUSH1 0x40 SWAP1 KECCAK256 SLOAD PUSH1 0x1 PUSH1 0x1 PUSH1 0xA0 SHL SUB AND DUP1 ISZERO PUSH2 0x1A2A JUMPI PUSH1 0x1 PUSH1 0x1 PUSH1 0xA0 SHL SUB DUP2 AND PUSH0 SWAP1 DUP2 MSTORE PUSH1 0x3 PUSH1 0x20 MSTORE PUSH1 0x40 SWAP1 KECCAK256 PUSH1 0x1 ADD SLOAD PUSH2 0x1A2A JUMPI PUSH1 0x40 MLOAD PUSH3 0x461BCD PUSH1 0xE5 SHL DUP2 MSTORE PUSH1 0x20 PUSH1 0x4 DUP3 ADD MSTORE PUSH1 0x28 PUSH1 0x24 DUP3 ADD MSTORE PUSH32 0x5265666572726572206D757374207374616B65206265666F726520796F752063 PUSH1 0x44 DUP3 ADD MSTORE PUSH8 0x616E207374616B65 PUSH1 0xC0 SHL PUSH1 0x64 DUP3 ADD MSTORE PUSH1 0x84 ADD PUSH2 0x7CF JUMP JUMPDEST PUSH1 0x2 SLOAD PUSH1 0x40 MLOAD PUSH4 0x23B872DD PUSH1 0xE0 SHL DUP2 MSTORE CALLER PUSH1 0x4 DUP3 ADD MSTORE ADDRESS PUSH1 0x24 DUP3 ADD MSTORE PUSH1 0x44 DUP2 ADD DUP5 SWAP1 MSTORE PUSH0 SWAP2 PUSH1 0x1 PUSH1 0x1 PUSH1 0xA0 SHL SUB AND SWAP1 PUSH4 0x23B872DD SWAP1 PUSH1 0x64 ADD PUSH1 0x20 PUSH1 0x40 MLOAD DUP1 DUP4 SUB DUP2 PUSH0 DUP8 GAS CALL ISZERO DUP1 ISZERO PUSH2 0x1A7E JUMPI RETURNDATASIZE PUSH0 PUSH0 RETURNDATACOPY RETURNDATASIZE PUSH0 REVERT JUMPDEST POP POP POP POP PUSH1 0x40 MLOAD RETURNDATASIZE PUSH1 0x1F NOT PUSH1 0x1F DUP3 ADD AND DUP3 ADD DUP1 PUSH1 0x40 MSTORE POP DUP2 ADD SWAP1 PUSH2 0x1AA2 SWAP2 SWAP1 PUSH2 0x329A JUMP JUMPDEST SWAP1 POP DUP1 PUSH2 0x1AE8 JUMPI PUSH1 0x40 MLOAD PUSH3 0x461BCD PUSH1 0xE5 SHL DUP2 MSTORE PUSH1 0x20 PUSH1 0x4 DUP3 ADD MSTORE PUSH1 0x14 PUSH1 0x24 DUP3 ADD MSTORE PUSH20 0x1554D115081D1C985B9CD9995C8819985A5B1959 PUSH1 0x62 SHL PUSH1 0x44 DUP3 ADD MSTORE PUSH1 0x64 ADD PUSH2 0x7CF JUMP JUMPDEST PUSH0 PUSH1 0x1 PUSH0 DUP2 SLOAD PUSH2 0x1AF7 SWAP1 PUSH2 0x3303 JUMP JUMPDEST SWAP2 SWAP1 POP DUP2 SWAP1 SSTORE SWAP1 POP PUSH1 0x3 PUSH0 CALLER PUSH1 0x1 PUSH1 0x1 PUSH1 0xA0 SHL SUB AND PUSH1 0x1 PUSH1 0x1 PUSH1 0xA0 SHL SUB AND DUP2 MSTORE PUSH1 0x20 ADD SWAP1 DUP2 MSTORE PUSH1 0x20 ADD PUSH0 KECCAK256 PUSH1 0x1 ADD PUSH1 0x40 MLOAD DUP1 PUSH1 0xC0 ADD PUSH1 0x40 MSTORE DUP1 PUSH1 0x1 SLOAD DUP2 MSTORE PUSH1 0x20 ADD DUP4 DUP2 MSTORE PUSH1 0x20 ADD DUP7 DUP2 MSTORE PUSH1 0x20 ADD TIMESTAMP DUP2 MSTORE PUSH1 0x20 ADD DUP8 DUP2 MSTORE PUSH1 0x20 ADD PUSH0 ISZERO ISZERO DUP2 MSTORE POP SWAP1 DUP1 PUSH1 0x1 DUP2 SLOAD ADD DUP1 DUP3 SSTORE DUP1 SWAP2 POP POP PUSH1 0x1 SWAP1 SUB SWAP1 PUSH0 MSTORE PUSH1 0x20 PUSH0 KECCAK256 SWAP1 PUSH1 0x6 MUL ADD PUSH0 SWAP1 SWAP2 SWAP1 SWAP2 SWAP1 SWAP2 POP PUSH0 DUP3 ADD MLOAD DUP2 PUSH0 ADD SSTORE PUSH1 0x20 DUP3 ADD MLOAD DUP2 PUSH1 0x1 ADD SSTORE PUSH1 0x40 DUP3 ADD MLOAD DUP2 PUSH1 0x2 ADD SSTORE PUSH1 0x60 DUP3 ADD MLOAD DUP2 PUSH1 0x3 ADD SSTORE PUSH1 0x80 DUP3 ADD MLOAD DUP2 PUSH1 0x4 ADD SSTORE PUSH1 0xA0 DUP3 ADD MLOAD DUP2 PUSH1 0x5 ADD PUSH0 PUSH2 0x100 EXP DUP2 SLOAD DUP2 PUSH1 0xFF MUL NOT AND SWAP1 DUP4 ISZERO ISZERO MUL OR SWAP1 SSTORE POP POP POP CALLER PUSH1 0x5 PUSH0 DUP4 DUP2 MSTORE PUSH1 0x20 ADD SWAP1 DUP2 MSTORE PUSH1 0x20 ADD PUSH0 KECCAK256 PUSH0 PUSH2 0x100 EXP DUP2 SLOAD DUP2 PUSH1 0x1 PUSH1 0x1 PUSH1 0xA0 SHL SUB MUL NOT AND SWAP1 DUP4 PUSH1 0x1 PUSH1 0x1 PUSH1 0xA0 SHL SUB AND MUL OR SWAP1 SSTORE POP PUSH0 PUSH1 0x3 PUSH0 CALLER PUSH1 0x1 PUSH1 0x1 PUSH1 0xA0 SHL SUB AND PUSH1 0x1 PUSH1 0x1 PUSH1 0xA0 SHL SUB AND DUP2 MSTORE PUSH1 0x20 ADD SWAP1 DUP2 MSTORE PUSH1 0x20 ADD PUSH0 KECCAK256 PUSH1 0x1 ADD DUP1 SLOAD SWAP1 POP PUSH1 0x1 EQ SWAP1 POP PUSH0 PUSH1 0x3 PUSH0 CALLER PUSH1 0x1 PUSH1 0x1 PUSH1 0xA0 SHL SUB AND PUSH1 0x1 PUSH1 0x1 PUSH1 0xA0 SHL SUB AND DUP2 MSTORE PUSH1 0x20 ADD SWAP1 DUP2 MSTORE PUSH1 0x20 ADD PUSH0 KECCAK256 PUSH0 ADD PUSH0 SWAP1 SLOAD SWAP1 PUSH2 0x100 EXP SWAP1 DIV PUSH1 0x1 PUSH1 0x1 PUSH1 0xA0 SHL SUB AND SWAP1 POP PUSH0 PUSH0 SWAP1 POP JUMPDEST PUSH1 0x5 DUP2 PUSH1 0xFF AND LT DUP1 ISZERO PUSH2 0x1C8D JUMPI POP PUSH1 0x1 PUSH1 0x1 PUSH1 0xA0 SHL SUB DUP3 AND ISZERO ISZERO JUMPDEST ISZERO PUSH2 0x2435 JUMPI PUSH0 PUSH1 0xFF DUP3 AND DUP2 SUB PUSH2 0x2218 JUMPI DUP4 ISZERO PUSH2 0x2026 JUMPI PUSH0 PUSH1 0x64 PUSH2 0x1CB1 DUP11 PUSH1 0x5 PUSH2 0x31FD JUMP JUMPDEST PUSH2 0x1CBB SWAP2 SWAP1 PUSH2 0x322D JUMP JUMPDEST SWAP1 POP PUSH0 PUSH1 0x64 PUSH2 0x1CCB DUP12 PUSH1 0x5 PUSH2 0x31FD JUMP JUMPDEST PUSH2 0x1CD5 SWAP2 SWAP1 PUSH2 0x322D JUMP JUMPDEST SWAP1 POP PUSH2 0x1CE1 DUP2 DUP4 PUSH2 0x321A JUMP JUMPDEST PUSH1 0x2 SLOAD PUSH1 0x40 MLOAD PUSH4 0x70A08231 PUSH1 0xE0 SHL DUP2 MSTORE ADDRESS PUSH1 0x4 DUP3 ADD MSTORE PUSH1 0x1 PUSH1 0x1 PUSH1 0xA0 SHL SUB SWAP1 SWAP2 AND SWAP1 PUSH4 0x70A08231 SWAP1 PUSH1 0x24 ADD PUSH1 0x20 PUSH1 0x40 MLOAD DUP1 DUP4 SUB DUP2 DUP7 GAS STATICCALL ISZERO DUP1 ISZERO PUSH2 0x1D27 JUMPI RETURNDATASIZE PUSH0 PUSH0 RETURNDATACOPY RETURNDATASIZE PUSH0 REVERT JUMPDEST POP POP POP POP PUSH1 0x40 MLOAD RETURNDATASIZE PUSH1 0x1F NOT PUSH1 0x1F DUP3 ADD AND DUP3 ADD DUP1 PUSH1 0x40 MSTORE POP DUP2 ADD SWAP1 PUSH2 0x1D4B SWAP2 SWAP1 PUSH2 0x324C JUMP JUMPDEST LT ISZERO PUSH2 0x1D69 JUMPI PUSH1 0x40 MLOAD PUSH3 0x461BCD PUSH1 0xE5 SHL DUP2 MSTORE PUSH1 0x4 ADD PUSH2 0x7CF SWAP1 PUSH2 0x3263 JUMP JUMPDEST PUSH1 0x2 SLOAD PUSH1 0x40 MLOAD PUSH4 0xA9059CBB PUSH1 0xE0 SHL DUP2 MSTORE PUSH1 0x1 PUSH1 0x1 PUSH1 0xA0 SHL SUB DUP8 DUP2 AND PUSH1 0x4 DUP4 ADD MSTORE PUSH1 0x24 DUP3 ADD DUP6 SWAP1 MSTORE SWAP1 SWAP2 AND SWAP1 PUSH4 0xA9059CBB SWAP1 PUSH1 0x44 ADD PUSH1 0x20 PUSH1 0x40 MLOAD DUP1 DUP4 SUB DUP2 PUSH0 DUP8 GAS CALL ISZERO DUP1 ISZERO PUSH2 0x1DB9 JUMPI RETURNDATASIZE PUSH0 PUSH0 RETURNDATACOPY RETURNDATASIZE PUSH0 REVERT JUMPDEST POP POP POP POP PUSH1 0x40 MLOAD RETURNDATASIZE PUSH1 0x1F NOT PUSH1 0x1F DUP3 ADD AND DUP3 ADD DUP1 PUSH1 0x40 MSTORE POP DUP2 ADD SWAP1 PUSH2 0x1DDD SWAP2 SWAP1 PUSH2 0x329A JUMP JUMPDEST PUSH2 0x1E29 JUMPI PUSH1 0x40 MLOAD PUSH3 0x461BCD PUSH1 0xE5 SHL DUP2 MSTORE PUSH1 0x20 PUSH1 0x4 DUP3 ADD MSTORE PUSH1 0x1F PUSH1 0x24 DUP3 ADD MSTORE PUSH32 0x44697265637420726566657272616C207472616E73666572206661696C656400 PUSH1 0x44 DUP3 ADD MSTORE PUSH1 0x64 ADD PUSH2 0x7CF JUMP JUMPDEST PUSH1 0x2 SLOAD PUSH1 0x40 MLOAD PUSH4 0xA9059CBB PUSH1 0xE0 SHL DUP2 MSTORE PUSH1 0x1 PUSH1 0x1 PUSH1 0xA0 SHL SUB DUP8 DUP2 AND PUSH1 0x4 DUP4 ADD MSTORE PUSH1 0x24 DUP3 ADD DUP5 SWAP1 MSTORE SWAP1 SWAP2 AND SWAP1 PUSH4 0xA9059CBB SWAP1 PUSH1 0x44 ADD PUSH1 0x20 PUSH1 0x40 MLOAD DUP1 DUP4 SUB DUP2 PUSH0 DUP8 GAS CALL ISZERO DUP1 ISZERO PUSH2 0x1E79 JUMPI RETURNDATASIZE PUSH0 PUSH0 RETURNDATACOPY RETURNDATASIZE PUSH0 REVERT JUMPDEST POP POP POP POP PUSH1 0x40 MLOAD RETURNDATASIZE PUSH1 0x1F NOT PUSH1 0x1F DUP3 ADD AND DUP3 ADD DUP1 PUSH1 0x40 MSTORE POP DUP2 ADD SWAP1 PUSH2 0x1E9D SWAP2 SWAP1 PUSH2 0x329A JUMP JUMPDEST PUSH2 0x1EE9 JUMPI PUSH1 0x40 MLOAD PUSH3 0x461BCD PUSH1 0xE5 SHL DUP2 MSTORE PUSH1 0x20 PUSH1 0x4 DUP3 ADD MSTORE PUSH1 0x1E PUSH1 0x24 DUP3 ADD MSTORE PUSH32 0x4C6576656C203120726577617264207472616E73666572206661696C65640000 PUSH1 0x44 DUP3 ADD MSTORE PUSH1 0x64 ADD PUSH2 0x7CF JUMP JUMPDEST PUSH1 0x1 PUSH1 0x1 PUSH1 0xA0 SHL SUB DUP6 AND PUSH0 SWAP1 DUP2 MSTORE PUSH1 0x7 PUSH1 0x20 MSTORE PUSH1 0x40 DUP2 KECCAK256 DUP1 SLOAD DUP5 SWAP3 SWAP1 PUSH2 0x1F10 SWAP1 DUP5 SWAP1 PUSH2 0x321A JUMP JUMPDEST SWAP1 SWAP2 SSTORE POP PUSH2 0x1F20 SWAP1 POP DUP2 DUP4 PUSH2 0x321A JUMP JUMPDEST PUSH1 0x1 PUSH1 0x1 PUSH1 0xA0 SHL SUB DUP7 AND PUSH0 SWAP1 DUP2 MSTORE PUSH1 0x3 PUSH1 0x20 MSTORE PUSH1 0x40 DUP2 KECCAK256 PUSH1 0x2 ADD DUP1 SLOAD SWAP1 SWAP2 SWAP1 PUSH2 0x1F4A SWAP1 DUP5 SWAP1 PUSH2 0x321A JUMP JUMPDEST SWAP1 SWAP2 SSTORE POP POP PUSH1 0x1 PUSH1 0x1 PUSH1 0xA0 SHL SUB DUP6 AND PUSH0 SWAP1 DUP2 MSTORE PUSH1 0x3 PUSH1 0x20 DUP2 SWAP1 MSTORE PUSH1 0x40 DUP3 KECCAK256 ADD DUP1 SLOAD DUP4 SWAP3 SWAP1 PUSH2 0x1F79 SWAP1 DUP5 SWAP1 PUSH2 0x321A JUMP JUMPDEST SWAP1 SWAP2 SSTORE POP POP PUSH1 0x1 PUSH1 0x1 PUSH1 0xA0 SHL SUB DUP6 AND PUSH0 SWAP1 DUP2 MSTORE PUSH1 0x4 PUSH1 0x20 MSTORE PUSH1 0x40 DUP2 KECCAK256 SWAP1 JUMPDEST DUP2 SLOAD DUP2 LT ISZERO PUSH2 0x201D JUMPI CALLER PUSH1 0x1 PUSH1 0x1 PUSH1 0xA0 SHL SUB AND DUP3 DUP3 DUP2 SLOAD DUP2 LT PUSH2 0x1FBC JUMPI PUSH2 0x1FBC PUSH2 0x31AD JUMP JUMPDEST PUSH0 SWAP2 DUP3 MSTORE PUSH1 0x20 SWAP1 SWAP2 KECCAK256 PUSH1 0x3 SWAP1 SWAP2 MUL ADD SLOAD PUSH1 0x1 PUSH1 0x1 PUSH1 0xA0 SHL SUB AND SUB PUSH2 0x2015 JUMPI DUP4 DUP3 DUP3 DUP2 SLOAD DUP2 LT PUSH2 0x1FED JUMPI PUSH2 0x1FED PUSH2 0x31AD JUMP JUMPDEST SWAP1 PUSH0 MSTORE PUSH1 0x20 PUSH0 KECCAK256 SWAP1 PUSH1 0x3 MUL ADD PUSH1 0x1 ADD PUSH0 DUP3 DUP3 SLOAD PUSH2 0x200A SWAP2 SWAP1 PUSH2 0x321A JUMP JUMPDEST SWAP1 SWAP2 SSTORE POP PUSH2 0x201D SWAP1 POP JUMP JUMPDEST PUSH1 0x1 ADD PUSH2 0x1F97 JUMP JUMPDEST POP POP POP POP PUSH2 0x2405 JUMP JUMPDEST PUSH1 0x64 PUSH1 0x9 DUP4 PUSH1 0xFF AND PUSH1 0x5 DUP2 LT PUSH2 0x203E JUMPI PUSH2 0x203E PUSH2 0x31AD JUMP JUMPDEST PUSH1 0x20 DUP2 DIV SWAP2 SWAP1 SWAP2 ADD SLOAD PUSH2 0x205D SWAP2 PUSH1 0x1F AND PUSH2 0x100 EXP SWAP1 DIV PUSH1 0xFF AND DUP11 PUSH2 0x31FD JUMP JUMPDEST PUSH2 0x2067 SWAP2 SWAP1 PUSH2 0x322D JUMP JUMPDEST PUSH1 0x2 SLOAD PUSH1 0x40 MLOAD PUSH4 0x70A08231 PUSH1 0xE0 SHL DUP2 MSTORE ADDRESS PUSH1 0x4 DUP3 ADD MSTORE SWAP2 SWAP3 POP DUP3 SWAP2 PUSH1 0x1 PUSH1 0x1 PUSH1 0xA0 SHL SUB SWAP1 SWAP2 AND SWAP1 PUSH4 0x70A08231 SWAP1 PUSH1 0x24 ADD PUSH1 0x20 PUSH1 0x40 MLOAD DUP1 DUP4 SUB DUP2 DUP7 GAS STATICCALL ISZERO DUP1 ISZERO PUSH2 0x20B2 JUMPI RETURNDATASIZE PUSH0 PUSH0 RETURNDATACOPY RETURNDATASIZE PUSH0 REVERT JUMPDEST POP POP POP POP PUSH1 0x40 MLOAD RETURNDATASIZE PUSH1 0x1F NOT PUSH1 0x1F DUP3 ADD AND DUP3 ADD DUP1 PUSH1 0x40 MSTORE POP DUP2 ADD SWAP1 PUSH2 0x20D6 SWAP2 SWAP1 PUSH2 0x324C JUMP JUMPDEST LT ISZERO PUSH2 0x20F4 JUMPI PUSH1 0x40 MLOAD PUSH3 0x461BCD PUSH1 0xE5 SHL DUP2 MSTORE PUSH1 0x4 ADD PUSH2 0x7CF SWAP1 PUSH2 0x3263 JUMP JUMPDEST PUSH1 0x2 SLOAD PUSH1 0x40 MLOAD PUSH4 0xA9059CBB PUSH1 0xE0 SHL DUP2 MSTORE PUSH1 0x1 PUSH1 0x1 PUSH1 0xA0 SHL SUB DUP6 DUP2 AND PUSH1 0x4 DUP4 ADD MSTORE PUSH1 0x24 DUP3 ADD DUP5 SWAP1 MSTORE SWAP1 SWAP2 AND SWAP1 PUSH4 0xA9059CBB SWAP1 PUSH1 0x44 ADD PUSH1 0x20 PUSH1 0x40 MLOAD DUP1 DUP4 SUB DUP2 PUSH0 DUP8 GAS CALL ISZERO DUP1 ISZERO PUSH2 0x2144 JUMPI RETURNDATASIZE PUSH0 PUSH0 RETURNDATACOPY RETURNDATASIZE PUSH0 REVERT JUMPDEST POP POP POP POP PUSH1 0x40 MLOAD RETURNDATASIZE PUSH1 0x1F NOT PUSH1 0x1F DUP3 ADD AND DUP3 ADD DUP1 PUSH1 0x40 MSTORE POP DUP2 ADD SWAP1 PUSH2 0x2168 SWAP2 SWAP1 PUSH2 0x329A JUMP JUMPDEST PUSH2 0x21B4 JUMPI PUSH1 0x40 MLOAD PUSH3 0x461BCD PUSH1 0xE5 SHL DUP2 MSTORE PUSH1 0x20 PUSH1 0x4 DUP3 ADD MSTORE PUSH1 0x1E PUSH1 0x24 DUP3 ADD MSTORE PUSH32 0x4C6576656C203120726577617264207472616E73666572206661696C65640000 PUSH1 0x44 DUP3 ADD MSTORE PUSH1 0x64 ADD PUSH2 0x7CF JUMP JUMPDEST PUSH1 0x1 PUSH1 0x1 PUSH1 0xA0 SHL SUB DUP4 AND PUSH0 SWAP1 DUP2 MSTORE PUSH1 0x3 PUSH1 0x20 MSTORE PUSH1 0x40 DUP2 KECCAK256 PUSH1 0x2 ADD DUP1 SLOAD DUP4 SWAP3 SWAP1 PUSH2 0x21DE SWAP1 DUP5 SWAP1 PUSH2 0x321A JUMP JUMPDEST SWAP1 SWAP2 SSTORE POP POP PUSH1 0x1 PUSH1 0x1 PUSH1 0xA0 SHL SUB DUP4 AND PUSH0 SWAP1 DUP2 MSTORE PUSH1 0x3 PUSH1 0x20 DUP2 SWAP1 MSTORE PUSH1 0x40 DUP3 KECCAK256 ADD DUP1 SLOAD DUP4 SWAP3 SWAP1 PUSH2 0x220D SWAP1 DUP5 SWAP1 PUSH2 0x321A JUMP JUMPDEST SWAP1 SWAP2 SSTORE POP PUSH2 0x2405 SWAP1 POP JUMP JUMPDEST PUSH1 0x64 PUSH1 0x9 DUP4 PUSH1 0xFF AND PUSH1 0x5 DUP2 LT PUSH2 0x2230 JUMPI PUSH2 0x2230 PUSH2 0x31AD JUMP JUMPDEST PUSH1 0x20 DUP2 DIV SWAP2 SWAP1 SWAP2 ADD SLOAD PUSH2 0x224F SWAP2 PUSH1 0x1F AND PUSH2 0x100 EXP SWAP1 DIV PUSH1 0xFF AND DUP11 PUSH2 0x31FD JUMP JUMPDEST PUSH2 0x2259 SWAP2 SWAP1 PUSH2 0x322D JUMP JUMPDEST PUSH1 0x2 SLOAD PUSH1 0x40 MLOAD PUSH4 0x70A08231 PUSH1 0xE0 SHL DUP2 MSTORE ADDRESS PUSH1 0x4 DUP3 ADD MSTORE SWAP2 SWAP3 POP DUP3 SWAP2 PUSH1 0x1 PUSH1 0x1 PUSH1 0xA0 SHL SUB SWAP1 SWAP2 AND SWAP1 PUSH4 0x70A08231 SWAP1 PUSH1 0x24 ADD PUSH1 0x20 PUSH1 0x40 MLOAD DUP1 DUP4 SUB DUP2 DUP7 GAS STATICCALL ISZERO DUP1 ISZERO PUSH2 0x22A4 JUMPI RETURNDATASIZE PUSH0 PUSH0 RETURNDATACOPY RETURNDATASIZE PUSH0 REVERT JUMPDEST POP POP POP POP PUSH1 0x40 MLOAD RETURNDATASIZE PUSH1 0x1F NOT PUSH1 0x1F DUP3 ADD AND DUP3 ADD DUP1 PUSH1 0x40 MSTORE POP DUP2 ADD SWAP1 PUSH2 0x22C8 SWAP2 SWAP1 PUSH2 0x324C JUMP JUMPDEST LT ISZERO PUSH2 0x22E6 JUMPI PUSH1 0x40 MLOAD PUSH3 0x461BCD PUSH1 0xE5 SHL DUP2 MSTORE PUSH1 0x4 ADD PUSH2 0x7CF SWAP1 PUSH2 0x3263 JUMP JUMPDEST PUSH1 0x2 SLOAD PUSH1 0x40 MLOAD PUSH4 0xA9059CBB PUSH1 0xE0 SHL DUP2 MSTORE PUSH1 0x1 PUSH1 0x1 PUSH1 0xA0 SHL SUB DUP6 DUP2 AND PUSH1 0x4 DUP4 ADD MSTORE PUSH1 0x24 DUP3 ADD DUP5 SWAP1 MSTORE SWAP1 SWAP2 AND SWAP1 PUSH4 0xA9059CBB SWAP1 PUSH1 0x44 ADD PUSH1 0x20 PUSH1 0x40 MLOAD DUP1 DUP4 SUB DUP2 PUSH0 DUP8 GAS CALL ISZERO DUP1 ISZERO PUSH2 0x2336 JUMPI RETURNDATASIZE PUSH0 PUSH0 RETURNDATACOPY RETURNDATASIZE PUSH0 REVERT JUMPDEST POP POP POP POP PUSH1 0x40 MLOAD RETURNDATASIZE PUSH1 0x1F NOT PUSH1 0x1F DUP3 ADD AND DUP3 ADD DUP1 PUSH1 0x40 MSTORE POP DUP2 ADD SWAP1 PUSH2 0x235A SWAP2 SWAP1 PUSH2 0x329A JUMP JUMPDEST PUSH2 0x23A6 JUMPI PUSH1 0x40 MLOAD PUSH3 0x461BCD PUSH1 0xE5 SHL DUP2 MSTORE PUSH1 0x20 PUSH1 0x4 DUP3 ADD MSTORE PUSH1 0x1C PUSH1 0x24 DUP3 ADD MSTORE PUSH32 0x4C6576656C20726577617264207472616E73666572206661696C656400000000 PUSH1 0x44 DUP3 ADD MSTORE PUSH1 0x64 ADD PUSH2 0x7CF JUMP JUMPDEST PUSH1 0x1 PUSH1 0x1 PUSH1 0xA0 SHL SUB DUP4 AND PUSH0 SWAP1 DUP2 MSTORE PUSH1 0x3 PUSH1 0x20 MSTORE PUSH1 0x40 DUP2 KECCAK256 PUSH1 0x2 ADD DUP1 SLOAD DUP4 SWAP3 SWAP1 PUSH2 0x23D0 SWAP1 DUP5 SWAP1 PUSH2 0x321A JUMP JUMPDEST SWAP1 SWAP2 SSTORE POP POP PUSH1 0x1 PUSH1 0x1 PUSH1 0xA0 SHL SUB DUP4 AND PUSH0 SWAP1 DUP2 MSTORE PUSH1 0x3 PUSH1 0x20 DUP2 SWAP1 MSTORE PUSH1 0x40 DUP3 KECCAK256 ADD DUP1 SLOAD DUP4 SWAP3 SWAP1 PUSH2 0x23FF SWAP1 DUP5 SWAP1 PUSH2 0x321A JUMP JUMPDEST SWAP1 SWAP2 SSTORE POP POP JUMPDEST POP PUSH1 0x1 PUSH1 0x1 PUSH1 0xA0 SHL SUB SWAP2 DUP3 AND PUSH0 SWAP1 DUP2 MSTORE PUSH1 0x3 PUSH1 0x20 MSTORE PUSH1 0x40 SWAP1 KECCAK256 SLOAD SWAP1 SWAP2 AND SWAP1 DUP1 PUSH2 0x242D DUP2 PUSH2 0x331B JUMP JUMPDEST SWAP2 POP POP PUSH2 0x1C72 JUMP JUMPDEST POP POP POP POP POP POP POP POP JUMP JUMPDEST PUSH1 0x1 PUSH1 0x1 PUSH1 0xA0 SHL SUB DUP2 AND PUSH0 SWAP1 DUP2 MSTORE PUSH1 0x4 PUSH1 0x20 MSTORE PUSH1 0x40 SWAP1 KECCAK256 DUP1 SLOAD PUSH1 0x60 SWAP2 DUP3 SWAP2 DUP3 SWAP2 SWAP1 DUP1 PUSH8 0xFFFFFFFFFFFFFFFF DUP2 GT ISZERO PUSH2 0x2479 JUMPI PUSH2 0x2479 PUSH2 0x2FFA JUMP JUMPDEST PUSH1 0x40 MLOAD SWAP1 DUP1 DUP3 MSTORE DUP1 PUSH1 0x20 MUL PUSH1 0x20 ADD DUP3 ADD PUSH1 0x40 MSTORE DUP1 ISZERO PUSH2 0x24A2 JUMPI DUP2 PUSH1 0x20 ADD PUSH1 0x20 DUP3 MUL DUP1 CALLDATASIZE DUP4 CALLDATACOPY ADD SWAP1 POP JUMPDEST POP SWAP5 POP DUP1 PUSH8 0xFFFFFFFFFFFFFFFF DUP2 GT ISZERO PUSH2 0x24BE JUMPI PUSH2 0x24BE PUSH2 0x2FFA JUMP JUMPDEST PUSH1 0x40 MLOAD SWAP1 DUP1 DUP3 MSTORE DUP1 PUSH1 0x20 MUL PUSH1 0x20 ADD DUP3 ADD PUSH1 0x40 MSTORE DUP1 ISZERO PUSH2 0x24E7 JUMPI DUP2 PUSH1 0x20 ADD PUSH1 0x20 DUP3 MUL DUP1 CALLDATASIZE DUP4 CALLDATACOPY ADD SWAP1 POP JUMPDEST POP SWAP4 POP DUP1 PUSH8 0xFFFFFFFFFFFFFFFF DUP2 GT ISZERO PUSH2 0x2503 JUMPI PUSH2 0x2503 PUSH2 0x2FFA JUMP JUMPDEST PUSH1 0x40 MLOAD SWAP1 DUP1 DUP3 MSTORE DUP1 PUSH1 0x20 MUL PUSH1 0x20 ADD DUP3 ADD PUSH1 0x40 MSTORE DUP1 ISZERO PUSH2 0x252C JUMPI DUP2 PUSH1 0x20 ADD PUSH1 0x20 DUP3 MUL DUP1 CALLDATASIZE DUP4 CALLDATACOPY ADD SWAP1 POP JUMPDEST POP SWAP3 POP PUSH0 JUMPDEST DUP2 DUP2 LT ISZERO PUSH2 0x2622 JUMPI DUP3 DUP2 DUP2 SLOAD DUP2 LT PUSH2 0x254B JUMPI PUSH2 0x254B PUSH2 0x31AD JUMP JUMPDEST PUSH0 SWAP2 DUP3 MSTORE PUSH1 0x20 SWAP1 SWAP2 KECCAK256 PUSH1 0x3 SWAP1 SWAP2 MUL ADD SLOAD DUP7 MLOAD PUSH1 0x1 PUSH1 0x1 PUSH1 0xA0 SHL SUB SWAP1 SWAP2 AND SWAP1 DUP8 SWAP1 DUP4 SWAP1 DUP2 LT PUSH2 0x257B JUMPI PUSH2 0x257B PUSH2 0x31AD JUMP JUMPDEST PUSH1 0x20 MUL PUSH1 0x20 ADD ADD SWAP1 PUSH1 0x1 PUSH1 0x1 PUSH1 0xA0 SHL SUB AND SWAP1 DUP2 PUSH1 0x1 PUSH1 0x1 PUSH1 0xA0 SHL SUB AND DUP2 MSTORE POP POP DUP3 DUP2 DUP2 SLOAD DUP2 LT PUSH2 0x25AD JUMPI PUSH2 0x25AD PUSH2 0x31AD JUMP JUMPDEST SWAP1 PUSH0 MSTORE PUSH1 0x20 PUSH0 KECCAK256 SWAP1 PUSH1 0x3 MUL ADD PUSH1 0x1 ADD SLOAD DUP6 DUP3 DUP2 MLOAD DUP2 LT PUSH2 0x25CF JUMPI PUSH2 0x25CF PUSH2 0x31AD JUMP JUMPDEST PUSH1 0x20 MUL PUSH1 0x20 ADD ADD DUP2 DUP2 MSTORE POP POP DUP3 DUP2 DUP2 SLOAD DUP2 LT PUSH2 0x25ED JUMPI PUSH2 0x25ED PUSH2 0x31AD JUMP JUMPDEST SWAP1 PUSH0 MSTORE PUSH1 0x20 PUSH0 KECCAK256 SWAP1 PUSH1 0x3 MUL ADD PUSH1 0x2 ADD SLOAD DUP5 DUP3 DUP2 MLOAD DUP2 LT PUSH2 0x260F JUMPI PUSH2 0x260F PUSH2 0x31AD JUMP JUMPDEST PUSH1 0x20 SWAP1 DUP2 MUL SWAP2 SWAP1 SWAP2 ADD ADD MSTORE PUSH1 0x1 ADD PUSH2 0x2531 JUMP JUMPDEST POP POP POP SWAP2 SWAP4 SWAP1 SWAP3 POP JUMP JUMPDEST PUSH1 0x8 DUP2 DUP2 SLOAD DUP2 LT PUSH2 0x263B JUMPI PUSH0 DUP1 REVERT JUMPDEST PUSH0 SWAP2 DUP3 MSTORE PUSH1 0x20 SWAP1 SWAP2 KECCAK256 ADD SLOAD PUSH1 0x1 PUSH1 0x1 PUSH1 0xA0 SHL SUB AND SWAP1 POP DUP2 JUMP JUMPDEST PUSH0 PUSH0 PUSH0 DUP5 GT PUSH2 0x26A5 JUMPI PUSH1 0x40 MLOAD PUSH3 0x461BCD PUSH1 0xE5 SHL DUP2 MSTORE PUSH1 0x20 PUSH1 0x4 DUP3 ADD MSTORE PUSH1 0x1D PUSH1 0x24 DUP3 ADD MSTORE PUSH32 0x416D6F756E74206D7573742062652067726561746572207468616E2030000000 PUSH1 0x44 DUP3 ADD MSTORE PUSH1 0x64 ADD PUSH2 0x7CF JUMP JUMPDEST PUSH0 DUP4 DUP2 MSTORE PUSH1 0x6 PUSH1 0x20 MSTORE PUSH1 0x40 SWAP1 KECCAK256 SLOAD PUSH2 0x26FA JUMPI PUSH1 0x40 MLOAD PUSH3 0x461BCD PUSH1 0xE5 SHL DUP2 MSTORE PUSH1 0x20 PUSH1 0x4 DUP3 ADD MSTORE PUSH1 0x18 PUSH1 0x24 DUP3 ADD MSTORE PUSH24 0x24B73B30B634B21039BA30B5B4B73390323AB930BA34B7B7 PUSH1 0x41 SHL PUSH1 0x44 DUP3 ADD MSTORE PUSH1 0x64 ADD PUSH2 0x7CF JUMP JUMPDEST PUSH0 DUP4 DUP2 MSTORE PUSH1 0x6 PUSH1 0x20 MSTORE PUSH1 0x40 DUP2 KECCAK256 SLOAD SWAP1 PUSH1 0x1E DUP6 SWAP1 SUB PUSH2 0x271B JUMPI POP PUSH2 0xBB8 PUSH2 0x276D JUMP JUMPDEST DUP5 PUSH1 0x3C SUB PUSH2 0x272C JUMPI POP PUSH2 0x1770 PUSH2 0x276D JUMP JUMPDEST DUP5 PUSH1 0x5A SUB PUSH2 0x273D JUMPI POP PUSH2 0x2328 PUSH2 0x276D JUMP JUMPDEST DUP5 PUSH1 0x78 SUB PUSH2 0x274E JUMPI POP PUSH2 0x2EE0 PUSH2 0x276D JUMP JUMPDEST DUP5 PUSH1 0xB4 SUB PUSH2 0x275F JUMPI POP PUSH2 0x4650 PUSH2 0x276D JUMP JUMPDEST DUP5 PUSH2 0x16D SUB PUSH2 0xA60 JUMPI POP PUSH2 0x8E94 JUMPDEST DUP1 DUP6 PUSH2 0x2779 DUP5 DUP10 PUSH2 0x31FD JUMP JUMPDEST PUSH2 0x2783 SWAP2 SWAP1 PUSH2 0x31FD JUMP JUMPDEST PUSH2 0x278D SWAP2 SWAP1 PUSH2 0x322D JUMP JUMPDEST SWAP4 POP PUSH2 0x2799 DUP5 DUP8 PUSH2 0x321A JUMP JUMPDEST SWAP3 POP POP POP SWAP3 POP SWAP3 SWAP1 POP JUMP JUMPDEST PUSH1 0x1 PUSH1 0x1 PUSH1 0xA0 SHL SUB DUP2 AND PUSH0 SWAP1 DUP2 MSTORE PUSH1 0x3 PUSH1 0x20 MSTORE PUSH1 0x40 DUP2 KECCAK256 PUSH1 0x4 ADD SLOAD PUSH1 0xFF AND PUSH2 0x2804 JUMPI PUSH1 0x40 MLOAD PUSH3 0x461BCD PUSH1 0xE5 SHL DUP2 MSTORE PUSH1 0x20 PUSH1 0x4 DUP3 ADD MSTORE PUSH1 0x13 PUSH1 0x24 DUP3 ADD MSTORE PUSH19 0x155CD95C881B9BDD081C9959DA5CDD195C9959 PUSH1 0x6A SHL PUSH1 0x44 DUP3 ADD MSTORE PUSH1 0x64 ADD PUSH2 0x7CF JUMP JUMPDEST POP PUSH1 0x1 PUSH1 0x1 PUSH1 0xA0 SHL SUB SWAP1 DUP2 AND PUSH0 SWAP1 DUP2 MSTORE PUSH1 0x3 PUSH1 0x20 MSTORE PUSH1 0x40 SWAP1 KECCAK256 SLOAD AND SWAP1 JUMP JUMPDEST PUSH0 SLOAD PUSH1 0x1 PUSH1 0x1 PUSH1 0xA0 SHL SUB AND CALLER EQ PUSH2 0x284B JUMPI PUSH1 0x40 MLOAD PUSH3 0x461BCD PUSH1 0xE5 SHL DUP2 MSTORE PUSH1 0x4 ADD PUSH2 0x7CF SWAP1 PUSH2 0x32B9 JUMP JUMPDEST PUSH1 0x1 PUSH1 0x1 PUSH1 0xA0 SHL SUB DUP3 AND PUSH2 0x28A1 JUMPI PUSH1 0x40 MLOAD PUSH3 0x461BCD PUSH1 0xE5 SHL DUP2 MSTORE PUSH1 0x20 PUSH1 0x4 DUP3 ADD MSTORE PUSH1 0x19 PUSH1 0x24 DUP3 ADD MSTORE PUSH32 0x496E76616C696420726563697069656E74206164647265737300000000000000 PUSH1 0x44 DUP3 ADD MSTORE PUSH1 0x64 ADD PUSH2 0x7CF JUMP JUMPDEST PUSH0 DUP2 GT PUSH2 0x28F0 JUMPI PUSH1 0x40 MLOAD PUSH3 0x461BCD PUSH1 0xE5 SHL DUP2 MSTORE PUSH1 0x20 PUSH1 0x4 DUP3 ADD DUP2 SWAP1 MSTORE PUSH1 0x24 DUP3 ADD MSTORE PUSH32 0x416D6F756E74206D7573742062652067726561746572207468616E207A65726F PUSH1 0x44 DUP3 ADD MSTORE PUSH1 0x64 ADD PUSH2 0x7CF JUMP JUMPDEST PUSH1 0x2 SLOAD PUSH1 0x40 MLOAD PUSH4 0xA9059CBB PUSH1 0xE0 SHL DUP2 MSTORE PUSH1 0x1 PUSH1 0x1 PUSH1 0xA0 SHL SUB DUP5 DUP2 AND PUSH1 0x4 DUP4 ADD MSTORE PUSH1 0x24 DUP3 ADD DUP5 SWAP1 MSTORE PUSH0 SWAP3 AND SWAP1 PUSH4 0xA9059CBB SWAP1 PUSH1 0x44 ADD PUSH1 0x20 PUSH1 0x40 MLOAD DUP1 DUP4 SUB DUP2 PUSH0 DUP8 GAS CALL ISZERO DUP1 ISZERO PUSH2 0x2940 JUMPI RETURNDATASIZE PUSH0 PUSH0 RETURNDATACOPY RETURNDATASIZE PUSH0 REVERT JUMPDEST POP POP POP POP PUSH1 0x40 MLOAD RETURNDATASIZE PUSH1 0x1F NOT PUSH1 0x1F DUP3 ADD AND DUP3 ADD DUP1 PUSH1 0x40 MSTORE POP DUP2 ADD SWAP1 PUSH2 0x2964 SWAP2 SWAP1 PUSH2 0x329A JUMP JUMPDEST SWAP1 POP DUP1 PUSH2 0x29AB JUMPI PUSH1 0x40 MLOAD PUSH3 0x461BCD PUSH1 0xE5 SHL DUP2 MSTORE PUSH1 0x20 PUSH1 0x4 DUP3 ADD MSTORE PUSH1 0x15 PUSH1 0x24 DUP3 ADD MSTORE PUSH21 0x151BDAD95B881D1C985B9CD9995C8819985A5B1959 PUSH1 0x5A SHL PUSH1 0x44 DUP3 ADD MSTORE PUSH1 0x64 ADD PUSH2 0x7CF JUMP JUMPDEST POP POP POP JUMP JUMPDEST PUSH1 0x9 DUP2 PUSH1 0x5 DUP2 LT PUSH2 0x29BF JUMPI PUSH0 DUP1 REVERT JUMPDEST PUSH1 0x20 SWAP2 DUP3 DUP3 DIV ADD SWAP2 SWAP1 MOD SWAP2 POP SLOAD SWAP1 PUSH2 0x100 EXP SWAP1 DIV PUSH1 0xFF AND DUP2 JUMP JUMPDEST PUSH1 0x60 PUSH0 DUP1 JUMPDEST PUSH1 0x8 SLOAD DUP2 LT ISZERO PUSH2 0x2B56 JUMPI PUSH0 PUSH1 0x8 DUP3 DUP2 SLOAD DUP2 LT PUSH2 0x29FC JUMPI PUSH2 0x29FC PUSH2 0x31AD JUMP JUMPDEST PUSH0 SWAP2 DUP3 MSTORE PUSH1 0x20 DUP1 DUP4 KECCAK256 SWAP1 SWAP2 ADD SLOAD PUSH1 0x1 PUSH1 0x1 PUSH1 0xA0 SHL SUB AND DUP1 DUP4 MSTORE PUSH1 0x3 DUP3 MSTORE PUSH1 0x40 DUP1 DUP5 KECCAK256 PUSH1 0x1 ADD DUP1 SLOAD DUP3 MLOAD DUP2 DUP7 MUL DUP2 ADD DUP7 ADD SWAP1 SWAP4 MSTORE DUP1 DUP4 MSTORE SWAP3 SWAP6 POP SWAP1 SWAP3 SWAP1 SWAP2 SWAP1 DUP5 SWAP1 DUP5 ADD JUMPDEST DUP3 DUP3 LT ISZERO PUSH2 0x2AAB JUMPI PUSH0 DUP5 DUP2 MSTORE PUSH1 0x20 SWAP1 DUP2 SWAP1 KECCAK256 PUSH1 0x40 DUP1 MLOAD PUSH1 0xC0 DUP2 ADD DUP3 MSTORE PUSH1 0x6 DUP7 MUL SWAP1 SWAP3 ADD DUP1 SLOAD DUP4 MSTORE PUSH1 0x1 DUP1 DUP3 ADD SLOAD DUP5 DUP7 ADD MSTORE PUSH1 0x2 DUP3 ADD SLOAD SWAP3 DUP5 ADD SWAP3 SWAP1 SWAP3 MSTORE PUSH1 0x3 DUP2 ADD SLOAD PUSH1 0x60 DUP5 ADD MSTORE PUSH1 0x4 DUP2 ADD SLOAD PUSH1 0x80 DUP5 ADD MSTORE PUSH1 0x5 ADD SLOAD PUSH1 0xFF AND ISZERO ISZERO PUSH1 0xA0 DUP4 ADD MSTORE SWAP1 DUP4 MSTORE SWAP1 SWAP3 ADD SWAP2 ADD PUSH2 0x2A3F JUMP JUMPDEST POP POP POP POP PUSH1 0x1 PUSH1 0x1 PUSH1 0xA0 SHL SUB DUP4 DUP2 AND PUSH0 SWAP1 DUP2 MSTORE PUSH1 0x3 PUSH1 0x20 MSTORE PUSH1 0x40 DUP2 KECCAK256 SLOAD SWAP3 SWAP4 POP SWAP2 AND SWAP1 JUMPDEST PUSH1 0x5 DUP2 PUSH1 0xFF AND LT DUP1 ISZERO PUSH2 0x2AEA JUMPI POP PUSH1 0x1 PUSH1 0x1 PUSH1 0xA0 SHL SUB DUP3 AND ISZERO ISZERO JUMPDEST ISZERO PUSH2 0x2B46 JUMPI DUP8 PUSH1 0x1 PUSH1 0x1 PUSH1 0xA0 SHL SUB AND DUP3 PUSH1 0x1 PUSH1 0x1 PUSH1 0xA0 SHL SUB AND SUB PUSH2 0x2B17 JUMPI DUP3 MLOAD PUSH2 0x2B14 SWAP1 DUP8 PUSH2 0x321A JUMP JUMPDEST SWAP6 POP JUMPDEST PUSH1 0x1 PUSH1 0x1 PUSH1 0xA0 SHL SUB SWAP2 DUP3 AND PUSH0 SWAP1 DUP2 MSTORE PUSH1 0x3 PUSH1 0x20 MSTORE PUSH1 0x40 SWAP1 KECCAK256 SLOAD SWAP1 SWAP2 AND SWAP1 DUP1 PUSH2 0x2B3E DUP2 PUSH2 0x331B JUMP JUMPDEST SWAP2 POP POP PUSH2 0x2ACF JUMP JUMPDEST POP POP PUSH1 0x1 SWAP1 SWAP3 ADD SWAP2 POP PUSH2 0x29DE SWAP1 POP JUMP JUMPDEST POP PUSH0 DUP2 PUSH8 0xFFFFFFFFFFFFFFFF DUP2 GT ISZERO PUSH2 0x2B71 JUMPI PUSH2 0x2B71 PUSH2 0x2FFA JUMP JUMPDEST PUSH1 0x40 MLOAD SWAP1 DUP1 DUP3 MSTORE DUP1 PUSH1 0x20 MUL PUSH1 0x20 ADD DUP3 ADD PUSH1 0x40 MSTORE DUP1 ISZERO PUSH2 0x2BF0 JUMPI DUP2 PUSH1 0x20 ADD JUMPDEST PUSH2 0x2BDD PUSH1 0x40 MLOAD DUP1 PUSH1 0xE0 ADD PUSH1 0x40 MSTORE DUP1 PUSH0 PUSH1 0x1 PUSH1 0x1 PUSH1 0xA0 SHL SUB AND DUP2 MSTORE PUSH1 0x20 ADD PUSH0 DUP2 MSTORE PUSH1 0x20 ADD PUSH0 DUP2 MSTORE PUSH1 0x20 ADD PUSH0 DUP2 MSTORE PUSH1 0x20 ADD PUSH0 PUSH1 0x1 PUSH1 0x1 PUSH1 0xA0 SHL SUB AND DUP2 MSTORE PUSH1 0x20 ADD PUSH0 DUP2 MSTORE PUSH1 0x20 ADD PUSH0 PUSH1 0xFF AND DUP2 MSTORE POP SWAP1 JUMP JUMPDEST DUP2 MSTORE PUSH1 0x20 ADD SWAP1 PUSH1 0x1 SWAP1 SUB SWAP1 DUP2 PUSH2 0x2B8F JUMPI SWAP1 POP JUMPDEST POP SWAP1 POP PUSH0 DUP1 JUMPDEST PUSH1 0x8 SLOAD DUP2 LT ISZERO PUSH2 0x2E66 JUMPI PUSH0 PUSH1 0x8 DUP3 DUP2 SLOAD DUP2 LT PUSH2 0x2C14 JUMPI PUSH2 0x2C14 PUSH2 0x31AD JUMP JUMPDEST PUSH0 SWAP2 DUP3 MSTORE PUSH1 0x20 DUP1 DUP4 KECCAK256 SWAP1 SWAP2 ADD SLOAD PUSH1 0x1 PUSH1 0x1 PUSH1 0xA0 SHL SUB AND DUP1 DUP4 MSTORE PUSH1 0x3 DUP3 MSTORE PUSH1 0x40 DUP1 DUP5 KECCAK256 PUSH1 0x1 ADD DUP1 SLOAD DUP3 MLOAD DUP2 DUP7 MUL DUP2 ADD DUP7 ADD SWAP1 SWAP4 MSTORE DUP1 DUP4 MSTORE SWAP3 SWAP6 POP SWAP1 SWAP3 SWAP1 SWAP2 SWAP1 DUP5 SWAP1 DUP5 ADD JUMPDEST DUP3 DUP3 LT ISZERO PUSH2 0x2CC3 JUMPI PUSH0 DUP5 DUP2 MSTORE PUSH1 0x20 SWAP1 DUP2 SWAP1 KECCAK256 PUSH1 0x40 DUP1 MLOAD PUSH1 0xC0 DUP2 ADD DUP3 MSTORE PUSH1 0x6 DUP7 MUL SWAP1 SWAP3 ADD DUP1 SLOAD DUP4 MSTORE PUSH1 0x1 DUP1 DUP3 ADD SLOAD DUP5 DUP7 ADD MSTORE PUSH1 0x2 DUP3 ADD SLOAD SWAP3 DUP5 ADD SWAP3 SWAP1 SWAP3 MSTORE PUSH1 0x3 DUP2 ADD SLOAD PUSH1 0x60 DUP5 ADD MSTORE PUSH1 0x4 DUP2 ADD SLOAD PUSH1 0x80 DUP5 ADD MSTORE PUSH1 0x5 ADD SLOAD PUSH1 0xFF AND ISZERO ISZERO PUSH1 0xA0 DUP4 ADD MSTORE SWAP1 DUP4 MSTORE SWAP1 SWAP3 ADD SWAP2 ADD PUSH2 0x2C57 JUMP JUMPDEST POP POP POP POP PUSH1 0x1 PUSH1 0x1 PUSH1 0xA0 SHL SUB DUP4 DUP2 AND PUSH0 SWAP1 DUP2 MSTORE PUSH1 0x3 PUSH1 0x20 MSTORE PUSH1 0x40 DUP2 KECCAK256 SLOAD SWAP3 SWAP4 POP SWAP2 AND SWAP1 JUMPDEST PUSH1 0x5 DUP2 PUSH1 0xFF AND LT DUP1 ISZERO PUSH2 0x2D02 JUMPI POP PUSH1 0x1 PUSH1 0x1 PUSH1 0xA0 SHL SUB DUP3 AND ISZERO ISZERO JUMPDEST ISZERO PUSH2 0x2E56 JUMPI DUP10 PUSH1 0x1 PUSH1 0x1 PUSH1 0xA0 SHL SUB AND DUP3 PUSH1 0x1 PUSH1 0x1 PUSH1 0xA0 SHL SUB AND SUB PUSH2 0x2E27 JUMPI PUSH0 JUMPDEST DUP4 MLOAD DUP2 LT ISZERO PUSH2 0x2E25 JUMPI PUSH0 DUP5 DUP3 DUP2 MLOAD DUP2 LT PUSH2 0x2D3E JUMPI PUSH2 0x2D3E PUSH2 0x31AD JUMP JUMPDEST PUSH1 0x20 MUL PUSH1 0x20 ADD ADD MLOAD SWAP1 POP PUSH0 PUSH1 0x64 PUSH1 0x9 DUP6 PUSH1 0xFF AND PUSH1 0x5 DUP2 LT PUSH2 0x2D61 JUMPI PUSH2 0x2D61 PUSH2 0x31AD JUMP JUMPDEST PUSH1 0x20 SWAP2 DUP3 DUP3 DIV ADD SWAP2 SWAP1 MOD SWAP1 SLOAD SWAP1 PUSH2 0x100 EXP SWAP1 DIV PUSH1 0xFF AND PUSH1 0xFF AND DUP4 PUSH1 0x40 ADD MLOAD PUSH2 0x2D89 SWAP2 SWAP1 PUSH2 0x31FD JUMP JUMPDEST PUSH2 0x2D93 SWAP2 SWAP1 PUSH2 0x322D JUMP JUMPDEST SWAP1 POP PUSH1 0x40 MLOAD DUP1 PUSH1 0xE0 ADD PUSH1 0x40 MSTORE DUP1 DUP15 PUSH1 0x1 PUSH1 0x1 PUSH1 0xA0 SHL SUB AND DUP2 MSTORE PUSH1 0x20 ADD DUP4 PUSH0 ADD MLOAD DUP2 MSTORE PUSH1 0x20 ADD DUP4 PUSH1 0x40 ADD MLOAD DUP2 MSTORE PUSH1 0x20 ADD DUP3 DUP2 MSTORE PUSH1 0x20 ADD DUP9 PUSH1 0x1 PUSH1 0x1 PUSH1 0xA0 SHL SUB AND DUP2 MSTORE PUSH1 0x20 ADD DUP4 PUSH1 0x60 ADD MLOAD DUP2 MSTORE PUSH1 0x20 ADD DUP6 PUSH1 0x1 PUSH2 0x2DEE SWAP2 SWAP1 PUSH2 0x3339 JUMP JUMPDEST PUSH1 0xFF AND SWAP1 MSTORE DUP11 DUP11 PUSH2 0x2DFE DUP2 PUSH2 0x3303 JUMP JUMPDEST SWAP12 POP DUP2 MLOAD DUP2 LT PUSH2 0x2E10 JUMPI PUSH2 0x2E10 PUSH2 0x31AD JUMP JUMPDEST PUSH1 0x20 SWAP1 DUP2 MUL SWAP2 SWAP1 SWAP2 ADD ADD MSTORE POP POP PUSH1 0x1 ADD PUSH2 0x2D22 JUMP JUMPDEST POP JUMPDEST PUSH1 0x1 PUSH1 0x1 PUSH1 0xA0 SHL SUB SWAP2 DUP3 AND PUSH0 SWAP1 DUP2 MSTORE PUSH1 0x3 PUSH1 0x20 MSTORE PUSH1 0x40 SWAP1 KECCAK256 SLOAD SWAP1 SWAP2 AND SWAP1 DUP1 PUSH2 0x2E4E DUP2 PUSH2 0x331B JUMP JUMPDEST SWAP2 POP POP PUSH2 0x2CE7 JUMP JUMPDEST POP POP PUSH1 0x1 SWAP1 SWAP3 ADD SWAP2 POP PUSH2 0x2BF6 SWAP1 POP JUMP JUMPDEST POP SWAP1 SWAP5 SWAP4 POP POP POP POP JUMP JUMPDEST PUSH1 0x1 DUP4 ADD SWAP2 DUP4 SWAP1 DUP3 ISZERO PUSH2 0x2EF0 JUMPI SWAP2 PUSH1 0x20 MUL DUP3 ADD PUSH0 JUMPDEST DUP4 DUP3 GT ISZERO PUSH2 0x2EC2 JUMPI DUP4 MLOAD DUP4 DUP3 PUSH2 0x100 EXP DUP2 SLOAD DUP2 PUSH1 0xFF MUL NOT AND SWAP1 DUP4 PUSH1 0xFF AND MUL OR SWAP1 SSTORE POP SWAP3 PUSH1 0x20 ADD SWAP3 PUSH1 0x1 ADD PUSH1 0x20 DUP2 PUSH0 ADD DIV SWAP3 DUP4 ADD SWAP3 PUSH1 0x1 SUB MUL PUSH2 0x2E85 JUMP JUMPDEST DUP1 ISZERO PUSH2 0x2EEE JUMPI DUP3 DUP2 PUSH2 0x100 EXP DUP2 SLOAD SWAP1 PUSH1 0xFF MUL NOT AND SWAP1 SSTORE PUSH1 0x1 ADD PUSH1 0x20 DUP2 PUSH0 ADD DIV SWAP3 DUP4 ADD SWAP3 PUSH1 0x1 SUB MUL PUSH2 0x2EC2 JUMP JUMPDEST POP JUMPDEST POP PUSH2 0x2EFC SWAP3 SWAP2 POP PUSH2 0x2F00 JUMP JUMPDEST POP SWAP1 JUMP JUMPDEST JUMPDEST DUP1 DUP3 GT ISZERO PUSH2 0x2EFC JUMPI PUSH0 DUP2 SSTORE PUSH1 0x1 ADD PUSH2 0x2F01 JUMP JUMPDEST DUP1 CALLDATALOAD PUSH1 0x1 PUSH1 0x1 PUSH1 0xA0 SHL SUB DUP2 AND DUP2 EQ PUSH2 0x2F2A JUMPI PUSH0 PUSH0 REVERT JUMPDEST SWAP2 SWAP1 POP JUMP JUMPDEST PUSH0 PUSH0 PUSH1 0x40 DUP4 DUP6 SUB SLT ISZERO PUSH2 0x2F40 JUMPI PUSH0 PUSH0 REVERT JUMPDEST PUSH2 0x2F49 DUP4 PUSH2 0x2F14 JUMP JUMPDEST SWAP5 PUSH1 0x20 SWAP4 SWAP1 SWAP4 ADD CALLDATALOAD SWAP4 POP POP POP JUMP JUMPDEST PUSH0 PUSH1 0x20 DUP3 DUP5 SUB SLT ISZERO PUSH2 0x2F67 JUMPI PUSH0 PUSH0 REVERT JUMPDEST POP CALLDATALOAD SWAP2 SWAP1 POP JUMP JUMPDEST PUSH0 PUSH1 0x20 DUP3 DUP5 SUB SLT ISZERO PUSH2 0x2F7E JUMPI PUSH0 PUSH0 REVERT JUMPDEST PUSH2 0x2F87 DUP3 PUSH2 0x2F14 JUMP JUMPDEST SWAP4 SWAP3 POP POP POP JUMP JUMPDEST PUSH0 DUP2 MLOAD DUP1 DUP5 MSTORE PUSH1 0x20 DUP5 ADD SWAP4 POP PUSH1 0x20 DUP4 ADD PUSH0 JUMPDEST DUP3 DUP2 LT ISZERO PUSH2 0x2FBE JUMPI DUP2 MLOAD DUP7 MSTORE PUSH1 0x20 SWAP6 DUP7 ADD SWAP6 SWAP1 SWAP2 ADD SWAP1 PUSH1 0x1 ADD PUSH2 0x2FA0 JUMP JUMPDEST POP SWAP4 SWAP5 SWAP4 POP POP POP POP JUMP JUMPDEST PUSH1 0x20 DUP2 MSTORE PUSH0 PUSH2 0x2F87 PUSH1 0x20 DUP4 ADD DUP5 PUSH2 0x2F8E JUMP JUMPDEST PUSH0 PUSH0 PUSH1 0x40 DUP4 DUP6 SUB SLT ISZERO PUSH2 0x2FEB JUMPI PUSH0 PUSH0 REVERT JUMPDEST POP POP DUP1 CALLDATALOAD SWAP3 PUSH1 0x20 SWAP1 SWAP2 ADD CALLDATALOAD SWAP2 POP JUMP JUMPDEST PUSH4 0x4E487B71 PUSH1 0xE0 SHL PUSH0 MSTORE PUSH1 0x41 PUSH1 0x4 MSTORE PUSH1 0x24 PUSH0 REVERT JUMPDEST DUP1 CALLDATALOAD PUSH1 0xFF DUP2 AND DUP2 EQ PUSH2 0x2F2A JUMPI PUSH0 PUSH0 REVERT JUMPDEST PUSH0 PUSH1 0xA0 DUP3 DUP5 SUB SLT ISZERO PUSH2 0x302E JUMPI PUSH0 PUSH0 REVERT JUMPDEST DUP3 PUSH1 0x1F DUP4 ADD SLT PUSH2 0x303C JUMPI PUSH0 PUSH0 REVERT JUMPDEST PUSH1 0x40 MLOAD PUSH1 0xA0 DUP2 ADD DUP2 DUP2 LT PUSH8 0xFFFFFFFFFFFFFFFF DUP3 GT OR ISZERO PUSH2 0x305F JUMPI PUSH2 0x305F PUSH2 0x2FFA JUMP JUMPDEST PUSH1 0x40 MSTORE DUP1 PUSH1 0xA0 DUP5 ADD DUP6 DUP2 GT ISZERO PUSH2 0x3073 JUMPI PUSH0 PUSH0 REVERT JUMPDEST DUP5 JUMPDEST DUP2 DUP2 LT ISZERO PUSH2 0x3094 JUMPI PUSH2 0x3086 DUP2 PUSH2 0x300E JUMP JUMPDEST DUP4 MSTORE PUSH1 0x20 SWAP3 DUP4 ADD SWAP3 ADD PUSH2 0x3075 JUMP JUMPDEST POP SWAP2 SWAP6 SWAP5 POP POP POP POP POP JUMP JUMPDEST PUSH1 0x60 DUP1 DUP3 MSTORE DUP5 MLOAD SWAP1 DUP3 ADD DUP2 SWAP1 MSTORE PUSH0 SWAP1 PUSH1 0x20 DUP7 ADD SWAP1 PUSH1 0x80 DUP5 ADD SWAP1 DUP4 JUMPDEST DUP2 DUP2 LT ISZERO PUSH2 0x30E1 JUMPI DUP4 MLOAD PUSH1 0x1 PUSH1 0x1 PUSH1 0xA0 SHL SUB AND DUP4 MSTORE PUSH1 0x20 SWAP4 DUP5 ADD SWAP4 SWAP1 SWAP3 ADD SWAP2 PUSH1 0x1 ADD PUSH2 0x30BA JUMP JUMPDEST POP POP DUP4 DUP2 SUB PUSH1 0x20 DUP6 ADD MSTORE PUSH2 0x30F5 DUP2 DUP8 PUSH2 0x2F8E JUMP JUMPDEST SWAP2 POP POP DUP3 DUP2 SUB PUSH1 0x40 DUP5 ADD MSTORE PUSH2 0x310A DUP2 DUP6 PUSH2 0x2F8E JUMP JUMPDEST SWAP7 SWAP6 POP POP POP POP POP POP JUMP JUMPDEST PUSH1 0x20 DUP1 DUP3 MSTORE DUP3 MLOAD DUP3 DUP3 ADD DUP2 SWAP1 MSTORE PUSH0 SWAP2 DUP5 ADD SWAP1 PUSH1 0x40 DUP5 ADD SWAP1 DUP4 JUMPDEST DUP2 DUP2 LT ISZERO PUSH2 0x31A2 JUMPI DUP4 MLOAD PUSH1 0x1 DUP1 PUSH1 0xA0 SHL SUB DUP2 MLOAD AND DUP5 MSTORE PUSH1 0x20 DUP2 ADD MLOAD PUSH1 0x20 DUP6 ADD MSTORE PUSH1 0x40 DUP2 ADD MLOAD PUSH1 0x40 DUP6 ADD MSTORE PUSH1 0x60 DUP2 ADD MLOAD PUSH1 0x60 DUP6 ADD MSTORE PUSH1 0x1 DUP1 PUSH1 0xA0 SHL SUB PUSH1 0x80 DUP3 ADD MLOAD AND PUSH1 0x80 DUP6 ADD MSTORE PUSH1 0xA0 DUP2 ADD MLOAD PUSH1 0xA0 DUP6 ADD MSTORE PUSH1 0xFF PUSH1 0xC0 DUP3 ADD MLOAD AND PUSH1 0xC0 DUP6 ADD MSTORE POP PUSH1 0xE0 DUP4 ADD SWAP3 POP PUSH1 0x20 DUP5 ADD SWAP4 POP PUSH1 0x1 DUP2 ADD SWAP1 POP PUSH2 0x312D JUMP JUMPDEST POP SWAP1 SWAP6 SWAP5 POP POP POP POP POP JUMP JUMPDEST PUSH4 0x4E487B71 PUSH1 0xE0 SHL PUSH0 MSTORE PUSH1 0x32 PUSH1 0x4 MSTORE PUSH1 0x24 PUSH0 REVERT JUMPDEST PUSH1 0x20 DUP1 DUP3 MSTORE PUSH1 0xE SWAP1 DUP3 ADD MSTORE PUSH14 0x139BDD081C9959DA5CDD195C9959 PUSH1 0x92 SHL PUSH1 0x40 DUP3 ADD MSTORE PUSH1 0x60 ADD SWAP1 JUMP JUMPDEST PUSH4 0x4E487B71 PUSH1 0xE0 SHL PUSH0 MSTORE PUSH1 0x11 PUSH1 0x4 MSTORE PUSH1 0x24 PUSH0 REVERT JUMPDEST DUP1 DUP3 MUL DUP2 ISZERO DUP3 DUP3 DIV DUP5 EQ OR PUSH2 0x3214 JUMPI PUSH2 0x3214 PUSH2 0x31E9 JUMP JUMPDEST SWAP3 SWAP2 POP POP JUMP JUMPDEST DUP1 DUP3 ADD DUP1 DUP3 GT ISZERO PUSH2 0x3214 JUMPI PUSH2 0x3214 PUSH2 0x31E9 JUMP JUMPDEST PUSH0 DUP3 PUSH2 0x3247 JUMPI PUSH4 0x4E487B71 PUSH1 0xE0 SHL PUSH0 MSTORE PUSH1 0x12 PUSH1 0x4 MSTORE PUSH1 0x24 PUSH0 REVERT JUMPDEST POP DIV SWAP1 JUMP JUMPDEST PUSH0 PUSH1 0x20 DUP3 DUP5 SUB SLT ISZERO PUSH2 0x325C JUMPI PUSH0 PUSH0 REVERT JUMPDEST POP MLOAD SWAP2 SWAP1 POP JUMP JUMPDEST PUSH1 0x20 DUP1 DUP3 MSTORE PUSH1 0x1D SWAP1 DUP3 ADD MSTORE PUSH32 0x496E73756666696369656E7420636F6E74726163742062616C616E6365000000 PUSH1 0x40 DUP3 ADD MSTORE PUSH1 0x60 ADD SWAP1 JUMP JUMPDEST PUSH0 PUSH1 0x20 DUP3 DUP5 SUB SLT ISZERO PUSH2 0x32AA JUMPI PUSH0 PUSH0 REVERT JUMPDEST DUP2 MLOAD DUP1 ISZERO ISZERO DUP2 EQ PUSH2 0x2F87 JUMPI PUSH0 PUSH0 REVERT JUMPDEST PUSH1 0x20 DUP1 DUP3 MSTORE PUSH1 0x18 SWAP1 DUP3 ADD MSTORE PUSH32 0x4F6E6C79206F776E65722063616E2063616C6C20746869730000000000000000 PUSH1 0x40 DUP3 ADD MSTORE PUSH1 0x60 ADD SWAP1 JUMP JUMPDEST DUP2 DUP2 SUB DUP2 DUP2 GT ISZERO PUSH2 0x3214 JUMPI PUSH2 0x3214 PUSH2 0x31E9 JUMP JUMPDEST PUSH0 PUSH1 0x1 DUP3 ADD PUSH2 0x3314 JUMPI PUSH2 0x3314 PUSH2 0x31E9 JUMP JUMPDEST POP PUSH1 0x1 ADD SWAP1 JUMP JUMPDEST PUSH0 PUSH1 0xFF DUP3 AND PUSH1 0xFF DUP2 SUB PUSH2 0x3330 JUMPI PUSH2 0x3330 PUSH2 0x31E9 JUMP JUMPDEST PUSH1 0x1 ADD SWAP3 SWAP2 POP POP JUMP JUMPDEST PUSH1 0xFF DUP2 DUP2 AND DUP4 DUP3 AND ADD SWAP1 DUP2 GT ISZERO PUSH2 0x3214 JUMPI PUSH2 0x3214 PUSH2 0x31E9 JUMP INVALID LOG2 PUSH5 0x6970667358 0x22 SLT KECCAK256 EXTSTATICCALL DUP7 KECCAK256 KECCAK256 0xBA SAR DATALOADN 0x635E BLOBBASEFEE MLOAD 0xC 0xBE MSTORE8 PUSH5 0xBA838A6347 MSTORE EXTDELEGATECALL MOD 0xB8 SAR 0xC1 PREVRANDAO GASPRICE SWAP6 SGT 0xDD 0x29 PUSH5 0x736F6C6343 STOP ADDMOD 0x1E STOP CALLER "
				},
				"gasEstimates": {
					"creation": {
						"codeDepositCost": "2638400",
						"executionCost": "infinite",
						"totalCost": "infinite"
					},
					"external": {
						"allUsers(uint256)": "4723",
						"claim(uint256)": "infinite",
						"claimEmergency(uint256)": "infinite",
						"directReferralIncome(address)": "2626",
						"directReferrals(address,uint256)": "9103",
						"getContractBalance()": "infinite",
						"getDirectReferralCount(address)": "2580",
						"getDirectReferralIncome(address)": "2623",
						"getEstimatedReturn(uint256,uint256)": "infinite",
						"getLevelIncome(address)": "2592",
						"getLevelIncomeDistribution(address)": "infinite",
						"getPositionIds(address)": "infinite",
						"getReferralIncomeDetails(address)": "infinite",
						"getStakeByPositionId(uint256)": "infinite",
						"getTotalIncome(address)": "2585",
						"getTotalLevelIncome(address)": "2635",
						"getTotalUsers()": "2359",
						"getUpline(address)": "4904",
						"getUserLevel(address)": "2729",
						"isRegistered(address)": "2619",
						"levelRewards(uint256)": "4149",
						"owner()": "2446",
						"ownerTransfer(address,uint256)": "infinite",
						"positionIdToUser(uint256)": "2543",
						"register(address)": "179907",
						"setLevelRewards(uint8[5])": "infinite",
						"setStakingAPY(uint256,uint256)": "24685",
						"stake(uint256,uint256)": "infinite",
						"stakeCounter()": "2426",
						"stakingAPY(uint256)": "2524",
						"usdtToken()": "2403",
						"users(address)": "9026",
						"withdrawUSDT(uint256)": "infinite"
					}
				},
				"methodIdentifiers": {
					"allUsers(uint256)": "a2bdedf4",
					"claim(uint256)": "379607f5",
					"claimEmergency(uint256)": "6c8c2156",
					"directReferralIncome(address)": "f6e88873",
					"directReferrals(address,uint256)": "05ad3935",
					"getContractBalance()": "6f9fb98a",
					"getDirectReferralCount(address)": "98278efb",
					"getDirectReferralIncome(address)": "aa7ed462",
					"getEstimatedReturn(uint256,uint256)": "bd297178",
					"getLevelIncome(address)": "5bd4e16a",
					"getLevelIncomeDistribution(address)": "ef71ae56",
					"getPositionIds(address)": "28fe7031",
					"getReferralIncomeDetails(address)": "9d747bad",
					"getStakeByPositionId(uint256)": "797c7f5f",
					"getTotalIncome(address)": "c2d3c677",
					"getTotalLevelIncome(address)": "c5b89c0a",
					"getTotalUsers()": "9be572f6",
					"getUpline(address)": "cb6f37ab",
					"getUserLevel(address)": "21923bde",
					"isRegistered(address)": "c3c5a547",
					"levelRewards(uint256)": "e45a57d0",
					"owner()": "8da5cb5b",
					"ownerTransfer(address,uint256)": "d85c8966",
					"positionIdToUser(uint256)": "1e43eb27",
					"register(address)": "4420e486",
					"setLevelRewards(uint8[5])": "656596a5",
					"setStakingAPY(uint256,uint256)": "4850d2a2",
					"stake(uint256,uint256)": "7b0472f0",
					"stakeCounter()": "f7b17d10",
					"stakingAPY(uint256)": "875bb4e2",
					"usdtToken()": "a98ad46c",
					"users(address)": "a87430ba",
					"withdrawUSDT(uint256)": "3ea521ef"
				}
			},
			"storageLayout": {
				"storage": [
					{
						"astId": 31,
						"contract": "contracts/roy.sol:SikkaStakingDecentralize",
						"label": "owner",
						"offset": 0,
						"slot": "0",
						"type": "t_address"
					},
					{
						"astId": 33,
						"contract": "contracts/roy.sol:SikkaStakingDecentralize",
						"label": "stakeCounter",
						"offset": 0,
						"slot": "1",
						"type": "t_uint256"
					},
					{
						"astId": 36,
						"contract": "contracts/roy.sol:SikkaStakingDecentralize",
						"label": "usdtToken",
						"offset": 0,
						"slot": "2",
						"type": "t_contract(IERC20)29"
					},
					{
						"astId": 149,
						"contract": "contracts/roy.sol:SikkaStakingDecentralize",
						"label": "users",
						"offset": 0,
						"slot": "3",
						"type": "t_mapping(t_address,t_struct(User)129_storage)"
					},
					{
						"astId": 155,
						"contract": "contracts/roy.sol:SikkaStakingDecentralize",
						"label": "directReferrals",
						"offset": 0,
						"slot": "4",
						"type": "t_mapping(t_address,t_array(t_struct(ReferralInfo)116_storage)dyn_storage)"
					},
					{
						"astId": 159,
						"contract": "contracts/roy.sol:SikkaStakingDecentralize",
						"label": "positionIdToUser",
						"offset": 0,
						"slot": "5",
						"type": "t_mapping(t_uint256,t_address)"
					},
					{
						"astId": 163,
						"contract": "contracts/roy.sol:SikkaStakingDecentralize",
						"label": "stakingAPY",
						"offset": 0,
						"slot": "6",
						"type": "t_mapping(t_uint256,t_uint256)"
					},
					{
						"astId": 167,
						"contract": "contracts/roy.sol:SikkaStakingDecentralize",
						"label": "directReferralIncome",
						"offset": 0,
						"slot": "7",
						"type": "t_mapping(t_address,t_uint256)"
					},
					{
						"astId": 170,
						"contract": "contracts/roy.sol:SikkaStakingDecentralize",
						"label": "allUsers",
						"offset": 0,
						"slot": "8",
						"type": "t_array(t_address)dyn_storage"
					},
					{
						"astId": 180,
						"contract": "contracts/roy.sol:SikkaStakingDecentralize",
						"label": "levelRewards",
						"offset": 0,
						"slot": "9",
						"type": "t_array(t_uint8)5_storage"
					}
				],
				"types": {
					"t_address": {
						"encoding": "inplace",
						"label": "address",
						"numberOfBytes": "20"
					},
					"t_array(t_address)dyn_storage": {
						"base": "t_address",
						"encoding": "dynamic_array",
						"label": "address[]",
						"numberOfBytes": "32"
					},
					"t_array(t_struct(ReferralInfo)116_storage)dyn_storage": {
						"base": "t_struct(ReferralInfo)116_storage",
						"encoding": "dynamic_array",
						"label": "struct SikkaStakingDecentralize.ReferralInfo[]",
						"numberOfBytes": "32"
					},
					"t_array(t_struct(Stake)109_storage)dyn_storage": {
						"base": "t_struct(Stake)109_storage",
						"encoding": "dynamic_array",
						"label": "struct SikkaStakingDecentralize.Stake[]",
						"numberOfBytes": "32"
					},
					"t_array(t_uint8)5_storage": {
						"base": "t_uint8",
						"encoding": "inplace",
						"label": "uint8[5]",
						"numberOfBytes": "32"
					},
					"t_bool": {
						"encoding": "inplace",
						"label": "bool",
						"numberOfBytes": "1"
					},
					"t_contract(IERC20)29": {
						"encoding": "inplace",
						"label": "contract IERC20",
						"numberOfBytes": "20"
					},
					"t_mapping(t_address,t_array(t_struct(ReferralInfo)116_storage)dyn_storage)": {
						"encoding": "mapping",
						"key": "t_address",
						"label": "mapping(address => struct SikkaStakingDecentralize.ReferralInfo[])",
						"numberOfBytes": "32",
						"value": "t_array(t_struct(ReferralInfo)116_storage)dyn_storage"
					},
					"t_mapping(t_address,t_struct(User)129_storage)": {
						"encoding": "mapping",
						"key": "t_address",
						"label": "mapping(address => struct SikkaStakingDecentralize.User)",
						"numberOfBytes": "32",
						"value": "t_struct(User)129_storage"
					},
					"t_mapping(t_address,t_uint256)": {
						"encoding": "mapping",
						"key": "t_address",
						"label": "mapping(address => uint256)",
						"numberOfBytes": "32",
						"value": "t_uint256"
					},
					"t_mapping(t_uint256,t_address)": {
						"encoding": "mapping",
						"key": "t_uint256",
						"label": "mapping(uint256 => address)",
						"numberOfBytes": "32",
						"value": "t_address"
					},
					"t_mapping(t_uint256,t_uint256)": {
						"encoding": "mapping",
						"key": "t_uint256",
						"label": "mapping(uint256 => uint256)",
						"numberOfBytes": "32",
						"value": "t_uint256"
					},
					"t_struct(ReferralInfo)116_storage": {
						"encoding": "inplace",
						"label": "struct SikkaStakingDecentralize.ReferralInfo",
						"members": [
							{
								"astId": 111,
								"contract": "contracts/roy.sol:SikkaStakingDecentralize",
								"label": "referralAddress",
								"offset": 0,
								"slot": "0",
								"type": "t_address"
							},
							{
								"astId": 113,
								"contract": "contracts/roy.sol:SikkaStakingDecentralize",
								"label": "incomeEarned",
								"offset": 0,
								"slot": "1",
								"type": "t_uint256"
							},
							{
								"astId": 115,
								"contract": "contracts/roy.sol:SikkaStakingDecentralize",
								"label": "timestamp",
								"offset": 0,
								"slot": "2",
								"type": "t_uint256"
							}
						],
						"numberOfBytes": "96"
					},
					"t_struct(Stake)109_storage": {
						"encoding": "inplace",
						"label": "struct SikkaStakingDecentralize.Stake",
						"members": [
							{
								"astId": 98,
								"contract": "contracts/roy.sol:SikkaStakingDecentralize",
								"label": "stakeId",
								"offset": 0,
								"slot": "0",
								"type": "t_uint256"
							},
							{
								"astId": 100,
								"contract": "contracts/roy.sol:SikkaStakingDecentralize",
								"label": "positionId",
								"offset": 0,
								"slot": "1",
								"type": "t_uint256"
							},
							{
								"astId": 102,
								"contract": "contracts/roy.sol:SikkaStakingDecentralize",
								"label": "amount",
								"offset": 0,
								"slot": "2",
								"type": "t_uint256"
							},
							{
								"astId": 104,
								"contract": "contracts/roy.sol:SikkaStakingDecentralize",
								"label": "timestamp",
								"offset": 0,
								"slot": "3",
								"type": "t_uint256"
							},
							{
								"astId": 106,
								"contract": "contracts/roy.sol:SikkaStakingDecentralize",
								"label": "numDays",
								"offset": 0,
								"slot": "4",
								"type": "t_uint256"
							},
							{
								"astId": 108,
								"contract": "contracts/roy.sol:SikkaStakingDecentralize",
								"label": "claimed",
								"offset": 0,
								"slot": "5",
								"type": "t_bool"
							}
						],
						"numberOfBytes": "192"
					},
					"t_struct(User)129_storage": {
						"encoding": "inplace",
						"label": "struct SikkaStakingDecentralize.User",
						"members": [
							{
								"astId": 118,
								"contract": "contracts/roy.sol:SikkaStakingDecentralize",
								"label": "referrer",
								"offset": 0,
								"slot": "0",
								"type": "t_address"
							},
							{
								"astId": 122,
								"contract": "contracts/roy.sol:SikkaStakingDecentralize",
								"label": "stakes",
								"offset": 0,
								"slot": "1",
								"type": "t_array(t_struct(Stake)109_storage)dyn_storage"
							},
							{
								"astId": 124,
								"contract": "contracts/roy.sol:SikkaStakingDecentralize",
								"label": "totalIncome",
								"offset": 0,
								"slot": "2",
								"type": "t_uint256"
							},
							{
								"astId": 126,
								"contract": "contracts/roy.sol:SikkaStakingDecentralize",
								"label": "levelIncome",
								"offset": 0,
								"slot": "3",
								"type": "t_uint256"
							},
							{
								"astId": 128,
								"contract": "contracts/roy.sol:SikkaStakingDecentralize",
								"label": "registered",
								"offset": 0,
								"slot": "4",
								"type": "t_bool"
							}
						],
						"numberOfBytes": "160"
					},
					"t_uint256": {
						"encoding": "inplace",
						"label": "uint256",
						"numberOfBytes": "32"
					},
					"t_uint8": {
						"encoding": "inplace",
						"label": "uint8",
						"numberOfBytes": "1"
					}
				}
			},
			"userdoc": {
				"kind": "user",
				"methods": {},
				"version": 1
			}
		}
	}
}