{
	"contracts/3_Ballot.sol": {
		"MLMStaking": {
			"abi": [
				{
					"inputs": [
						{
							"internalType": "uint256",
							"name": "",
							"type": "uint256"
						}
					],
					"name": "allUsers",
					"outputs": [
						{
							"internalType": "address",
							"name": "",
							"type": "address"
						}
					],
					"stateMutability": "view",
					"type": "function"
				},
				{
					"inputs": [
						{
							"internalType": "address",
							"name": "",
							"type": "address"
						},
						{
							"internalType": "uint256",
							"name": "",
							"type": "uint256"
						}
					],
					"name": "directReferrals",
					"outputs": [
						{
							"internalType": "address",
							"name": "referralAddress",
							"type": "address"
						},
						{
							"internalType": "uint256",
							"name": "incomeEarned",
							"type": "uint256"
						},
						{
							"internalType": "uint256",
							"name": "timestamp",
							"type": "uint256"
						}
					],
					"stateMutability": "view",
					"type": "function"
				},
				{
					"inputs": [
						{
							"internalType": "address",
							"name": "_user",
							"type": "address"
						}
					],
					"name": "getLevelIncomeDistribution",
					"outputs": [
						{
							"components": [
								{
									"internalType": "address",
									"name": "receiverAddress",
									"type": "address"
								},
								{
									"internalType": "uint256",
									"name": "stakeId",
									"type": "uint256"
								},
								{
									"internalType": "uint256",
									"name": "stakeAmount",
									"type": "uint256"
								},
								{
									"internalType": "uint256",
									"name": "incomeReceived",
									"type": "uint256"
								},
								{
									"internalType": "address",
									"name": "uplineAddress",
									"type": "address"
								},
								{
									"internalType": "uint256",
									"name": "timestamp",
									"type": "uint256"
								},
								{
									"internalType": "uint8",
									"name": "level",
									"type": "uint8"
								}
							],
							"internalType": "struct MLMStaking.LevelIncomeData[]",
							"name": "",
							"type": "tuple[]"
						}
					],
					"stateMutability": "view",
					"type": "function"
				},
				{
					"inputs": [],
					"name": "getTotalUsers",
					"outputs": [
						{
							"internalType": "uint256",
							"name": "",
							"type": "uint256"
						}
					],
					"stateMutability": "view",
					"type": "function"
				},
				{
					"inputs": [
						{
							"internalType": "address",
							"name": "user",
							"type": "address"
						}
					],
					"name": "getUserStakes",
					"outputs": [
						{
							"components": [
								{
									"internalType": "uint256",
									"name": "stakeId",
									"type": "uint256"
								},
								{
									"internalType": "uint256",
									"name": "amount",
									"type": "uint256"
								},
								{
									"internalType": "uint256",
									"name": "timestamp",
									"type": "uint256"
								}
							],
							"internalType": "struct MLMStaking.Stake[]",
							"name": "",
							"type": "tuple[]"
						}
					],
					"stateMutability": "view",
					"type": "function"
				},
				{
					"inputs": [
						{
							"internalType": "uint256",
							"name": "",
							"type": "uint256"
						}
					],
					"name": "levelRewards",
					"outputs": [
						{
							"internalType": "uint8",
							"name": "",
							"type": "uint8"
						}
					],
					"stateMutability": "view",
					"type": "function"
				},
				{
					"inputs": [],
					"name": "nextPositionId",
					"outputs": [
						{
							"internalType": "uint256",
							"name": "",
							"type": "uint256"
						}
					],
					"stateMutability": "view",
					"type": "function"
				},
				{
					"inputs": [],
					"name": "nextStakeId",
					"outputs": [
						{
							"internalType": "uint256",
							"name": "",
							"type": "uint256"
						}
					],
					"stateMutability": "view",
					"type": "function"
				},
				{
					"inputs": [
						{
							"internalType": "uint256",
							"name": "",
							"type": "uint256"
						}
					],
					"name": "positionIdToUser",
					"outputs": [
						{
							"internalType": "address",
							"name": "",
							"type": "address"
						}
					],
					"stateMutability": "view",
					"type": "function"
				},
				{
					"inputs": [
						{
							"internalType": "address",
							"name": "referrer",
							"type": "address"
						}
					],
					"name": "register",
					"outputs": [],
					"stateMutability": "nonpayable",
					"type": "function"
				},
				{
					"inputs": [],
					"name": "stake",
					"outputs": [],
					"stateMutability": "payable",
					"type": "function"
				},
				{
					"inputs": [],
					"name": "stakeCounter",
					"outputs": [
						{
							"internalType": "uint256",
							"name": "",
							"type": "uint256"
						}
					],
					"stateMutability": "view",
					"type": "function"
				},
				{
					"inputs": [
						{
							"internalType": "address",
							"name": "",
							"type": "address"
						}
					],
					"name": "users",
					"outputs": [
						{
							"internalType": "address",
							"name": "referrer",
							"type": "address"
						},
						{
							"internalType": "bool",
							"name": "registered",
							"type": "bool"
						},
						{
							"internalType": "uint256",
							"name": "totalIncome",
							"type": "uint256"
						},
						{
							"internalType": "uint256",
							"name": "directReferralIncome",
							"type": "uint256"
						},
						{
							"internalType": "uint256",
							"name": "levelIncome",
							"type": "uint256"
						}
					],
					"stateMutability": "view",
					"type": "function"
				}
			],
			"devdoc": {
				"kind": "dev",
				"methods": {},
				"version": 1
			},
			"evm": {
				"assembly": "    /* \"contracts/3_Ballot.sol\":57:4539  contract MLMStaking {... */\n  mstore(0x40, 0x80)\n    /* \"contracts/3_Ballot.sol\":1128:1167  uint8[] public levelRewards = [5, 3, 2] */\n  mload(0x40)\n  dup1\n  0x60\n  add\n  0x40\n  mstore\n  dup1\n    /* \"contracts/3_Ballot.sol\":1159:1160  5 */\n  0x05\n    /* \"contracts/3_Ballot.sol\":1128:1167  uint8[] public levelRewards = [5, 3, 2] */\n  0xff\n  and\n  dup2\n  mstore\n  0x20\n  add\n    /* \"contracts/3_Ballot.sol\":1162:1163  3 */\n  0x03\n    /* \"contracts/3_Ballot.sol\":1128:1167  uint8[] public levelRewards = [5, 3, 2] */\n  0xff\n  and\n  dup2\n  mstore\n  0x20\n  add\n    /* \"contracts/3_Ballot.sol\":1165:1166  2 */\n  0x02\n    /* \"contracts/3_Ballot.sol\":1128:1167  uint8[] public levelRewards = [5, 3, 2] */\n  0xff\n  and\n  dup2\n  mstore\n  pop\n  0x07\n  swap1\n  0x03\n  tag_1\n  swap3\n  swap2\n  swap1\n  tag_2\n  jump\t// in\ntag_1:\n  pop\n    /* \"contracts/3_Ballot.sol\":57:4539  contract MLMStaking {... */\n  callvalue\n  dup1\n  iszero\n  tag_3\n  jumpi\n  0x00\n  dup1\n  revert\ntag_3:\n  pop\n  jump(tag_4)\ntag_2:\n  dup3\n  dup1\n  sload\n  dup3\n  dup3\n  sstore\n  swap1\n  0x00\n  mstore\n  keccak256(0x00, 0x20)\n  swap1\n  0x1f\n  add\n  0x20\n  swap1\n  div\n  dup2\n  add\n  swap3\n  dup3\n  iszero\n  tag_5\n  jumpi\n  swap2\n  0x20\n  mul\n  dup3\n  add\n  0x00\ntag_6:\n  dup4\n  dup3\n  gt\n  iszero\n  tag_7\n  jumpi\n  dup4\n  mload\n  dup4\n  dup3\n  0x0100\n  exp\n  dup2\n  sload\n  dup2\n  0xff\n  mul\n  not\n  and\n  swap1\n  dup4\n  0xff\n  and\n  mul\n  or\n  swap1\n  sstore\n  pop\n  swap3\n  0x20\n  add\n  swap3\n  0x01\n  add\n  0x20\n  dup2\n  0x00\n  add\n  div\n  swap3\n  dup4\n  add\n  swap3\n  0x01\n  sub\n  mul\n  jump(tag_6)\ntag_7:\n  dup1\n  iszero\n  tag_8\n  jumpi\n  dup3\n  dup2\n  0x0100\n  exp\n  dup2\n  sload\n  swap1\n  0xff\n  mul\n  not\n  and\n  swap1\n  sstore\n  0x01\n  add\n  0x20\n  dup2\n  0x00\n  add\n  div\n  swap3\n  dup4\n  add\n  swap3\n  0x01\n  sub\n  mul\n  jump(tag_7)\ntag_8:\n  pop\ntag_5:\n  pop\n  swap1\n  pop\n  tag_9\n  swap2\n  swap1\n  tag_10\n  jump\t// in\ntag_9:\n  pop\n  swap1\n  jump\t// out\ntag_10:\ntag_11:\n  dup1\n  dup3\n  gt\n  iszero\n  tag_12\n  jumpi\n  0x00\n  dup2\n  0x00\n  swap1\n  sstore\n  pop\n  0x01\n  add\n  jump(tag_11)\ntag_12:\n  pop\n  swap1\n  jump\t// out\ntag_4:\n  dataSize(sub_0)\n  dup1\n  dataOffset(sub_0)\n  0x00\n  codecopy\n  0x00\n  return\nstop\n\nsub_0: assembly {\n        /* \"contracts/3_Ballot.sol\":57:4539  contract MLMStaking {... */\n      mstore(0x40, 0x80)\n      jumpi(tag_1, lt(calldatasize, 0x04))\n      shr(0xe0, calldataload(0x00))\n      dup1\n      0x899346c7\n      gt\n      tag_15\n      jumpi\n      dup1\n      0xa87430ba\n      gt\n      tag_16\n      jumpi\n      dup1\n      0xa87430ba\n      eq\n      tag_11\n      jumpi\n      dup1\n      0xe45a57d0\n      eq\n      tag_12\n      jumpi\n      dup1\n      0xef71ae56\n      eq\n      tag_13\n      jumpi\n      dup1\n      0xf7b17d10\n      eq\n      tag_14\n      jumpi\n      jump(tag_1)\n    tag_16:\n      dup1\n      0x899346c7\n      eq\n      tag_8\n      jumpi\n      dup1\n      0x9be572f6\n      eq\n      tag_9\n      jumpi\n      dup1\n      0xa2bdedf4\n      eq\n      tag_10\n      jumpi\n      jump(tag_1)\n    tag_15:\n      dup1\n      0x05ad3935\n      eq\n      tag_2\n      jumpi\n      dup1\n      0x1e43eb27\n      eq\n      tag_3\n      jumpi\n      dup1\n      0x3a4b66f1\n      eq\n      tag_4\n      jumpi\n      dup1\n      0x4420e486\n      eq\n      tag_5\n      jumpi\n      dup1\n      0x75506c96\n      eq\n      tag_6\n      jumpi\n      dup1\n      0x842e2981\n      eq\n      tag_7\n      jumpi\n    tag_1:\n      0x00\n      dup1\n      revert\n        /* \"contracts/3_Ballot.sol\":866:923  mapping(address => ReferralInfo[]) public directReferrals */\n    tag_2:\n      callvalue\n      dup1\n      iszero\n      tag_17\n      jumpi\n      0x00\n      dup1\n      revert\n    tag_17:\n      pop\n      tag_18\n      0x04\n      dup1\n      calldatasize\n      sub\n      dup2\n      add\n      swap1\n      tag_19\n      swap2\n      swap1\n      tag_20\n      jump\t// in\n    tag_19:\n      tag_21\n      jump\t// in\n    tag_18:\n      mload(0x40)\n      tag_22\n      swap4\n      swap3\n      swap2\n      swap1\n      tag_23\n      jump\t// in\n    tag_22:\n      mload(0x40)\n      dup1\n      swap2\n      sub\n      swap1\n      return\n        /* \"contracts/3_Ballot.sol\":929:980  mapping(uint256 => address) public positionIdToUser */\n    tag_3:\n      callvalue\n      dup1\n      iszero\n      tag_24\n      jumpi\n      0x00\n      dup1\n      revert\n    tag_24:\n      pop\n      tag_25\n      0x04\n      dup1\n      calldatasize\n      sub\n      dup2\n      add\n      swap1\n      tag_26\n      swap2\n      swap1\n      tag_27\n      jump\t// in\n    tag_26:\n      tag_28\n      jump\t// in\n    tag_25:\n      mload(0x40)\n      tag_29\n      swap2\n      swap1\n      tag_30\n      jump\t// in\n    tag_29:\n      mload(0x40)\n      dup1\n      swap2\n      sub\n      swap1\n      return\n        /* \"contracts/3_Ballot.sol\":1557:2237  function stake() external payable {... */\n    tag_4:\n      tag_31\n      tag_32\n      jump\t// in\n    tag_31:\n      stop\n        /* \"contracts/3_Ballot.sol\":1248:1529  function register(address referrer) external {... */\n    tag_5:\n      callvalue\n      dup1\n      iszero\n      tag_33\n      jumpi\n      0x00\n      dup1\n      revert\n    tag_33:\n      pop\n      tag_34\n      0x04\n      dup1\n      calldatasize\n      sub\n      dup2\n      add\n      swap1\n      tag_35\n      swap2\n      swap1\n      tag_36\n      jump\t// in\n    tag_35:\n      tag_37\n      jump\t// in\n    tag_34:\n      stop\n        /* \"contracts/3_Ballot.sol\":1060:1086  uint256 public nextStakeId */\n    tag_6:\n      callvalue\n      dup1\n      iszero\n      tag_38\n      jumpi\n      0x00\n      dup1\n      revert\n    tag_38:\n      pop\n      tag_39\n      tag_40\n      jump\t// in\n    tag_39:\n      mload(0x40)\n      tag_41\n      swap2\n      swap1\n      tag_42\n      jump\t// in\n    tag_41:\n      mload(0x40)\n      dup1\n      swap2\n      sub\n      swap1\n      return\n        /* \"contracts/3_Ballot.sol\":4419:4537  function getUserStakes(address user) external view returns (Stake[] memory) {... */\n    tag_7:\n      callvalue\n      dup1\n      iszero\n      tag_43\n      jumpi\n      0x00\n      dup1\n      revert\n    tag_43:\n      pop\n      tag_44\n      0x04\n      dup1\n      calldatasize\n      sub\n      dup2\n      add\n      swap1\n      tag_45\n      swap2\n      swap1\n      tag_36\n      jump\t// in\n    tag_45:\n      tag_46\n      jump\t// in\n    tag_44:\n      mload(0x40)\n      tag_47\n      swap2\n      swap1\n      tag_48\n      jump\t// in\n    tag_47:\n      mload(0x40)\n      dup1\n      swap2\n      sub\n      swap1\n      return\n        /* \"contracts/3_Ballot.sol\":1092:1121  uint256 public nextPositionId */\n    tag_8:\n      callvalue\n      dup1\n      iszero\n      tag_49\n      jumpi\n      0x00\n      dup1\n      revert\n    tag_49:\n      pop\n      tag_50\n      tag_51\n      jump\t// in\n    tag_50:\n      mload(0x40)\n      tag_52\n      swap2\n      swap1\n      tag_42\n      jump\t// in\n    tag_52:\n      mload(0x40)\n      dup1\n      swap2\n      sub\n      swap1\n      return\n        /* \"contracts/3_Ballot.sol\":4281:4377  function getTotalUsers() external view returns (uint256) {... */\n    tag_9:\n      callvalue\n      dup1\n      iszero\n      tag_53\n      jumpi\n      0x00\n      dup1\n      revert\n    tag_53:\n      pop\n      tag_54\n      tag_55\n      jump\t// in\n    tag_54:\n      mload(0x40)\n      tag_56\n      swap2\n      swap1\n      tag_42\n      jump\t// in\n    tag_56:\n      mload(0x40)\n      dup1\n      swap2\n      sub\n      swap1\n      return\n        /* \"contracts/3_Ballot.sol\":993:1018  address[] public allUsers */\n    tag_10:\n      callvalue\n      dup1\n      iszero\n      tag_57\n      jumpi\n      0x00\n      dup1\n      revert\n    tag_57:\n      pop\n      tag_58\n      0x04\n      dup1\n      calldatasize\n      sub\n      dup2\n      add\n      swap1\n      tag_59\n      swap2\n      swap1\n      tag_27\n      jump\t// in\n    tag_59:\n      tag_60\n      jump\t// in\n    tag_58:\n      mload(0x40)\n      tag_61\n      swap2\n      swap1\n      tag_30\n      jump\t// in\n    tag_61:\n      mload(0x40)\n      dup1\n      swap2\n      sub\n      swap1\n      return\n        /* \"contracts/3_Ballot.sol\":823:860  mapping(address => User) public users */\n    tag_11:\n      callvalue\n      dup1\n      iszero\n      tag_62\n      jumpi\n      0x00\n      dup1\n      revert\n    tag_62:\n      pop\n      tag_63\n      0x04\n      dup1\n      calldatasize\n      sub\n      dup2\n      add\n      swap1\n      tag_64\n      swap2\n      swap1\n      tag_36\n      jump\t// in\n    tag_64:\n      tag_65\n      jump\t// in\n    tag_63:\n      mload(0x40)\n      tag_66\n      swap6\n      swap5\n      swap4\n      swap3\n      swap2\n      swap1\n      tag_67\n      jump\t// in\n    tag_66:\n      mload(0x40)\n      dup1\n      swap2\n      sub\n      swap1\n      return\n        /* \"contracts/3_Ballot.sol\":1128:1167  uint8[] public levelRewards = [5, 3, 2] */\n    tag_12:\n      callvalue\n      dup1\n      iszero\n      tag_68\n      jumpi\n      0x00\n      dup1\n      revert\n    tag_68:\n      pop\n      tag_69\n      0x04\n      dup1\n      calldatasize\n      sub\n      dup2\n      add\n      swap1\n      tag_70\n      swap2\n      swap1\n      tag_27\n      jump\t// in\n    tag_70:\n      tag_71\n      jump\t// in\n    tag_69:\n      mload(0x40)\n      tag_72\n      swap2\n      swap1\n      tag_73\n      jump\t// in\n    tag_72:\n      mload(0x40)\n      dup1\n      swap2\n      sub\n      swap1\n      return\n        /* \"contracts/3_Ballot.sol\":2301:4244  function getLevelIncomeDistribution(address _user) external view returns (LevelIncomeData[] memory) {... */\n    tag_13:\n      callvalue\n      dup1\n      iszero\n      tag_74\n      jumpi\n      0x00\n      dup1\n      revert\n    tag_74:\n      pop\n      tag_75\n      0x04\n      dup1\n      calldatasize\n      sub\n      dup2\n      add\n      swap1\n      tag_76\n      swap2\n      swap1\n      tag_36\n      jump\t// in\n    tag_76:\n      tag_77\n      jump\t// in\n    tag_75:\n      mload(0x40)\n      tag_78\n      swap2\n      swap1\n      tag_79\n      jump\t// in\n    tag_78:\n      mload(0x40)\n      dup1\n      swap2\n      sub\n      swap1\n      return\n        /* \"contracts/3_Ballot.sol\":1025:1052  uint256 public stakeCounter */\n    tag_14:\n      callvalue\n      dup1\n      iszero\n      tag_80\n      jumpi\n      0x00\n      dup1\n      revert\n    tag_80:\n      pop\n      tag_81\n      tag_82\n      jump\t// in\n    tag_81:\n      mload(0x40)\n      tag_83\n      swap2\n      swap1\n      tag_42\n      jump\t// in\n    tag_83:\n      mload(0x40)\n      dup1\n      swap2\n      sub\n      swap1\n      return\n        /* \"contracts/3_Ballot.sol\":866:923  mapping(address => ReferralInfo[]) public directReferrals */\n    tag_21:\n      mstore(0x20, 0x01)\n      dup2\n      0x00\n      mstore\n      keccak256(0x00, 0x40)\n      dup2\n      dup2\n      sload\n      dup2\n      lt\n      tag_84\n      jumpi\n      0x00\n      dup1\n      revert\n    tag_84:\n      swap1\n      0x00\n      mstore\n      keccak256(0x00, 0x20)\n      swap1\n      0x03\n      mul\n      add\n      0x00\n      swap2\n      pop\n      swap2\n      pop\n      pop\n      dup1\n      0x00\n      add\n      0x00\n      swap1\n      sload\n      swap1\n      0x0100\n      exp\n      swap1\n      div\n      0xffffffffffffffffffffffffffffffffffffffff\n      and\n      swap1\n      dup1\n      0x01\n      add\n      sload\n      swap1\n      dup1\n      0x02\n      add\n      sload\n      swap1\n      pop\n      dup4\n      jump\t// out\n        /* \"contracts/3_Ballot.sol\":929:980  mapping(uint256 => address) public positionIdToUser */\n    tag_28:\n      mstore(0x20, 0x02)\n      dup1\n      0x00\n      mstore\n      keccak256(0x00, 0x40)\n      0x00\n      swap2\n      pop\n      sload\n      swap1\n      0x0100\n      exp\n      swap1\n      div\n      0xffffffffffffffffffffffffffffffffffffffff\n      and\n      dup2\n      jump\t// out\n        /* \"contracts/3_Ballot.sol\":1557:2237  function stake() external payable {... */\n    tag_32:\n        /* \"contracts/3_Ballot.sol\":1621:1622  0 */\n      0x00\n        /* \"contracts/3_Ballot.sol\":1609:1618  msg.value */\n      callvalue\n        /* \"contracts/3_Ballot.sol\":1609:1622  msg.value > 0 */\n      gt\n        /* \"contracts/3_Ballot.sol\":1601:1648  require(msg.value > 0, \"Stake amount required\") */\n      tag_87\n      jumpi\n      mload(0x40)\n      0x08c379a000000000000000000000000000000000000000000000000000000000\n      dup2\n      mstore\n      0x04\n      add\n      tag_88\n      swap1\n      tag_89\n      jump\t// in\n    tag_88:\n      mload(0x40)\n      dup1\n      swap2\n      sub\n      swap1\n      revert\n    tag_87:\n        /* \"contracts/3_Ballot.sol\":1704:1705  0 */\n      0x00\n        /* \"contracts/3_Ballot.sol\":1666:1706  users[msg.sender].referrer != address(0) */\n      0xffffffffffffffffffffffffffffffffffffffff\n      and\n        /* \"contracts/3_Ballot.sol\":1666:1671  users */\n      0x00\n        /* \"contracts/3_Ballot.sol\":1666:1683  users[msg.sender] */\n      dup1\n        /* \"contracts/3_Ballot.sol\":1672:1682  msg.sender */\n      caller\n        /* \"contracts/3_Ballot.sol\":1666:1683  users[msg.sender] */\n      0xffffffffffffffffffffffffffffffffffffffff\n      and\n      0xffffffffffffffffffffffffffffffffffffffff\n      and\n      dup2\n      mstore\n      0x20\n      add\n      swap1\n      dup2\n      mstore\n      0x20\n      add\n      0x00\n      keccak256\n        /* \"contracts/3_Ballot.sol\":1666:1692  users[msg.sender].referrer */\n      0x00\n      add\n      0x00\n      swap1\n      sload\n      swap1\n      0x0100\n      exp\n      swap1\n      div\n      0xffffffffffffffffffffffffffffffffffffffff\n      and\n        /* \"contracts/3_Ballot.sol\":1666:1706  users[msg.sender].referrer != address(0) */\n      0xffffffffffffffffffffffffffffffffffffffff\n      and\n      sub\n        /* \"contracts/3_Ballot.sol\":1658:1725  require(users[msg.sender].referrer != address(0), \"Register first\") */\n      tag_90\n      jumpi\n      mload(0x40)\n      0x08c379a000000000000000000000000000000000000000000000000000000000\n      dup2\n      mstore\n      0x04\n      add\n      tag_91\n      swap1\n      tag_92\n      jump\t// in\n    tag_91:\n      mload(0x40)\n      dup1\n      swap2\n      sub\n      swap1\n      revert\n    tag_90:\n        /* \"contracts/3_Ballot.sol\":1736:1741  users */\n      0x00\n        /* \"contracts/3_Ballot.sol\":1736:1753  users[msg.sender] */\n      dup1\n        /* \"contracts/3_Ballot.sol\":1742:1752  msg.sender */\n      caller\n        /* \"contracts/3_Ballot.sol\":1736:1753  users[msg.sender] */\n      0xffffffffffffffffffffffffffffffffffffffff\n      and\n      0xffffffffffffffffffffffffffffffffffffffff\n      and\n      dup2\n      mstore\n      0x20\n      add\n      swap1\n      dup2\n      mstore\n      0x20\n      add\n      0x00\n      keccak256\n        /* \"contracts/3_Ballot.sol\":1736:1760  users[msg.sender].stakes */\n      0x01\n      add\n        /* \"contracts/3_Ballot.sol\":1766:1891  Stake({... */\n      mload(0x40)\n      dup1\n      0x60\n      add\n      0x40\n      mstore\n      dup1\n        /* \"contracts/3_Ballot.sol\":1797:1809  stakeCounter */\n      0x04\n      0x00\n        /* \"contracts/3_Ballot.sol\":1795:1809  ++stakeCounter */\n      dup2\n      sload\n      tag_93\n      swap1\n      tag_94\n      jump\t// in\n    tag_93:\n      swap2\n      swap1\n      pop\n      dup2\n      swap1\n      sstore\n        /* \"contracts/3_Ballot.sol\":1766:1891  Stake({... */\n      dup2\n      mstore\n      0x20\n      add\n        /* \"contracts/3_Ballot.sol\":1831:1840  msg.value */\n      callvalue\n        /* \"contracts/3_Ballot.sol\":1766:1891  Stake({... */\n      dup2\n      mstore\n      0x20\n      add\n        /* \"contracts/3_Ballot.sol\":1865:1880  block.timestamp */\n      timestamp\n        /* \"contracts/3_Ballot.sol\":1766:1891  Stake({... */\n      dup2\n      mstore\n      pop\n        /* \"contracts/3_Ballot.sol\":1736:1892  users[msg.sender].stakes.push(Stake({... */\n      swap1\n      dup1\n      0x01\n      dup2\n      sload\n      add\n      dup1\n      dup3\n      sstore\n      dup1\n      swap2\n      pop\n      pop\n      0x01\n      swap1\n      sub\n      swap1\n      0x00\n      mstore\n      keccak256(0x00, 0x20)\n      swap1\n      0x03\n      mul\n      add\n      0x00\n      swap1\n      swap2\n      swap1\n      swap2\n      swap1\n      swap2\n      pop\n      0x00\n      dup3\n      add\n      mload\n      dup2\n      0x00\n      add\n      sstore\n      0x20\n      dup3\n      add\n      mload\n      dup2\n      0x01\n      add\n      sstore\n      0x40\n      dup3\n      add\n      mload\n      dup2\n      0x02\n      add\n      sstore\n      pop\n      pop\n        /* \"contracts/3_Ballot.sol\":1938:1952  address upline */\n      0x00\n        /* \"contracts/3_Ballot.sol\":1955:1960  users */\n      dup1\n        /* \"contracts/3_Ballot.sol\":1955:1972  users[msg.sender] */\n      0x00\n        /* \"contracts/3_Ballot.sol\":1961:1971  msg.sender */\n      caller\n        /* \"contracts/3_Ballot.sol\":1955:1972  users[msg.sender] */\n      0xffffffffffffffffffffffffffffffffffffffff\n      and\n      0xffffffffffffffffffffffffffffffffffffffff\n      and\n      dup2\n      mstore\n      0x20\n      add\n      swap1\n      dup2\n      mstore\n      0x20\n      add\n      0x00\n      keccak256\n        /* \"contracts/3_Ballot.sol\":1955:1981  users[msg.sender].referrer */\n      0x00\n      add\n      0x00\n      swap1\n      sload\n      swap1\n      0x0100\n      exp\n      swap1\n      div\n      0xffffffffffffffffffffffffffffffffffffffff\n      and\n        /* \"contracts/3_Ballot.sol\":1938:1981  address upline = users[msg.sender].referrer */\n      swap1\n      pop\n        /* \"contracts/3_Ballot.sol\":1996:2003  uint8 i */\n      0x00\n        /* \"contracts/3_Ballot.sol\":1991:2231  for (uint8 i = 0; i < levelRewards.length && upline != address(0); i++) {... */\n    tag_96:\n        /* \"contracts/3_Ballot.sol\":2013:2025  levelRewards */\n      0x07\n        /* \"contracts/3_Ballot.sol\":2013:2032  levelRewards.length */\n      dup1\n      sload\n      swap1\n      pop\n        /* \"contracts/3_Ballot.sol\":2009:2010  i */\n      dup2\n        /* \"contracts/3_Ballot.sol\":2009:2032  i < levelRewards.length */\n      0xff\n      and\n      lt\n        /* \"contracts/3_Ballot.sol\":2009:2056  i < levelRewards.length && upline != address(0) */\n      dup1\n      iszero\n      tag_99\n      jumpi\n      pop\n        /* \"contracts/3_Ballot.sol\":2054:2055  0 */\n      0x00\n        /* \"contracts/3_Ballot.sol\":2036:2056  upline != address(0) */\n      0xffffffffffffffffffffffffffffffffffffffff\n      and\n        /* \"contracts/3_Ballot.sol\":2036:2042  upline */\n      dup3\n        /* \"contracts/3_Ballot.sol\":2036:2056  upline != address(0) */\n      0xffffffffffffffffffffffffffffffffffffffff\n      and\n      eq\n      iszero\n        /* \"contracts/3_Ballot.sol\":2009:2056  i < levelRewards.length && upline != address(0) */\n    tag_99:\n        /* \"contracts/3_Ballot.sol\":1991:2231  for (uint8 i = 0; i < levelRewards.length && upline != address(0); i++) {... */\n      iszero\n      tag_97\n      jumpi\n        /* \"contracts/3_Ballot.sol\":2077:2091  uint256 reward */\n      0x00\n        /* \"contracts/3_Ballot.sol\":2126:2129  100 */\n      0x64\n        /* \"contracts/3_Ballot.sol\":2107:2119  levelRewards */\n      0x07\n        /* \"contracts/3_Ballot.sol\":2120:2121  i */\n      dup4\n        /* \"contracts/3_Ballot.sol\":2107:2122  levelRewards[i] */\n      0xff\n      and\n      dup2\n      sload\n      dup2\n      lt\n      tag_100\n      jumpi\n      tag_101\n      tag_102\n      jump\t// in\n    tag_101:\n    tag_100:\n      swap1\n      0x00\n      mstore\n      keccak256(0x00, 0x20)\n      swap1\n      0x20\n      swap2\n      dup3\n      dup3\n      div\n      add\n      swap2\n      swap1\n      mod\n      swap1\n      sload\n      swap1\n      0x0100\n      exp\n      swap1\n      div\n      0xff\n      and\n        /* \"contracts/3_Ballot.sol\":2095:2122  msg.value * levelRewards[i] */\n      0xff\n      and\n        /* \"contracts/3_Ballot.sol\":2095:2104  msg.value */\n      callvalue\n        /* \"contracts/3_Ballot.sol\":2095:2122  msg.value * levelRewards[i] */\n      tag_104\n      swap2\n      swap1\n      tag_105\n      jump\t// in\n    tag_104:\n        /* \"contracts/3_Ballot.sol\":2094:2129  (msg.value * levelRewards[i]) / 100 */\n      tag_106\n      swap2\n      swap1\n      tag_107\n      jump\t// in\n    tag_106:\n        /* \"contracts/3_Ballot.sol\":2077:2129  uint256 reward = (msg.value * levelRewards[i]) / 100 */\n      swap1\n      pop\n        /* \"contracts/3_Ballot.sol\":2151:2157  upline */\n      dup3\n        /* \"contracts/3_Ballot.sol\":2143:2167  payable(upline).transfer */\n      0xffffffffffffffffffffffffffffffffffffffff\n      and\n        /* \"contracts/3_Ballot.sol\":2143:2175  payable(upline).transfer(reward) */\n      0x08fc\n        /* \"contracts/3_Ballot.sol\":2168:2174  reward */\n      dup3\n        /* \"contracts/3_Ballot.sol\":2143:2175  payable(upline).transfer(reward) */\n      swap1\n      dup2\n      iszero\n      mul\n      swap1\n      mload(0x40)\n      0x00\n      mload(0x40)\n      dup1\n      dup4\n      sub\n      dup2\n      dup6\n      dup9\n      dup9\n      call\n      swap4\n      pop\n      pop\n      pop\n      pop\n      iszero\n      dup1\n      iszero\n      tag_109\n      jumpi\n      returndatasize\n      0x00\n      dup1\n      returndatacopy\n      revert(0x00, returndatasize)\n    tag_109:\n      pop\n        /* \"contracts/3_Ballot.sol\":2198:2203  users */\n      0x00\n        /* \"contracts/3_Ballot.sol\":2198:2211  users[upline] */\n      dup1\n        /* \"contracts/3_Ballot.sol\":2204:2210  upline */\n      dup5\n        /* \"contracts/3_Ballot.sol\":2198:2211  users[upline] */\n      0xffffffffffffffffffffffffffffffffffffffff\n      and\n      0xffffffffffffffffffffffffffffffffffffffff\n      and\n      dup2\n      mstore\n      0x20\n      add\n      swap1\n      dup2\n      mstore\n      0x20\n      add\n      0x00\n      keccak256\n        /* \"contracts/3_Ballot.sol\":2198:2220  users[upline].referrer */\n      0x00\n      add\n      0x00\n      swap1\n      sload\n      swap1\n      0x0100\n      exp\n      swap1\n      div\n      0xffffffffffffffffffffffffffffffffffffffff\n      and\n        /* \"contracts/3_Ballot.sol\":2189:2220  upline = users[upline].referrer */\n      swap3\n      pop\n        /* \"contracts/3_Ballot.sol\":2063:2231  {... */\n      pop\n        /* \"contracts/3_Ballot.sol\":2058:2061  i++ */\n      dup1\n      dup1\n      tag_110\n      swap1\n      tag_111\n      jump\t// in\n    tag_110:\n      swap2\n      pop\n      pop\n        /* \"contracts/3_Ballot.sol\":1991:2231  for (uint8 i = 0; i < levelRewards.length && upline != address(0); i++) {... */\n      jump(tag_96)\n    tag_97:\n      pop\n        /* \"contracts/3_Ballot.sol\":1591:2237  {... */\n      pop\n        /* \"contracts/3_Ballot.sol\":1557:2237  function stake() external payable {... */\n      jump\t// out\n        /* \"contracts/3_Ballot.sol\":1248:1529  function register(address referrer) external {... */\n    tag_37:\n        /* \"contracts/3_Ballot.sol\":1349:1350  0 */\n      0x00\n        /* \"contracts/3_Ballot.sol\":1311:1351  users[msg.sender].referrer == address(0) */\n      0xffffffffffffffffffffffffffffffffffffffff\n      and\n        /* \"contracts/3_Ballot.sol\":1311:1316  users */\n      0x00\n        /* \"contracts/3_Ballot.sol\":1311:1328  users[msg.sender] */\n      dup1\n        /* \"contracts/3_Ballot.sol\":1317:1327  msg.sender */\n      caller\n        /* \"contracts/3_Ballot.sol\":1311:1328  users[msg.sender] */\n      0xffffffffffffffffffffffffffffffffffffffff\n      and\n      0xffffffffffffffffffffffffffffffffffffffff\n      and\n      dup2\n      mstore\n      0x20\n      add\n      swap1\n      dup2\n      mstore\n      0x20\n      add\n      0x00\n      keccak256\n        /* \"contracts/3_Ballot.sol\":1311:1337  users[msg.sender].referrer */\n      0x00\n      add\n      0x00\n      swap1\n      sload\n      swap1\n      0x0100\n      exp\n      swap1\n      div\n      0xffffffffffffffffffffffffffffffffffffffff\n      and\n        /* \"contracts/3_Ballot.sol\":1311:1351  users[msg.sender].referrer == address(0) */\n      0xffffffffffffffffffffffffffffffffffffffff\n      and\n      eq\n        /* \"contracts/3_Ballot.sol\":1303:1374  require(users[msg.sender].referrer == address(0), \"Already registered\") */\n      tag_113\n      jumpi\n      mload(0x40)\n      0x08c379a000000000000000000000000000000000000000000000000000000000\n      dup2\n      mstore\n      0x04\n      add\n      tag_114\n      swap1\n      tag_115\n      jump\t// in\n    tag_114:\n      mload(0x40)\n      dup1\n      swap2\n      sub\n      swap1\n      revert\n    tag_113:\n        /* \"contracts/3_Ballot.sol\":1404:1414  msg.sender */\n      caller\n        /* \"contracts/3_Ballot.sol\":1392:1414  referrer != msg.sender */\n      0xffffffffffffffffffffffffffffffffffffffff\n      and\n        /* \"contracts/3_Ballot.sol\":1392:1400  referrer */\n      dup2\n        /* \"contracts/3_Ballot.sol\":1392:1414  referrer != msg.sender */\n      0xffffffffffffffffffffffffffffffffffffffff\n      and\n      sub\n        /* \"contracts/3_Ballot.sol\":1384:1439  require(referrer != msg.sender, \"Can't refer yourself\") */\n      tag_116\n      jumpi\n      mload(0x40)\n      0x08c379a000000000000000000000000000000000000000000000000000000000\n      dup2\n      mstore\n      0x04\n      add\n      tag_117\n      swap1\n      tag_118\n      jump\t// in\n    tag_117:\n      mload(0x40)\n      dup1\n      swap2\n      sub\n      swap1\n      revert\n    tag_116:\n        /* \"contracts/3_Ballot.sol\":1479:1487  referrer */\n      dup1\n        /* \"contracts/3_Ballot.sol\":1450:1455  users */\n      0x00\n        /* \"contracts/3_Ballot.sol\":1450:1467  users[msg.sender] */\n      dup1\n        /* \"contracts/3_Ballot.sol\":1456:1466  msg.sender */\n      caller\n        /* \"contracts/3_Ballot.sol\":1450:1467  users[msg.sender] */\n      0xffffffffffffffffffffffffffffffffffffffff\n      and\n      0xffffffffffffffffffffffffffffffffffffffff\n      and\n      dup2\n      mstore\n      0x20\n      add\n      swap1\n      dup2\n      mstore\n      0x20\n      add\n      0x00\n      keccak256\n        /* \"contracts/3_Ballot.sol\":1450:1476  users[msg.sender].referrer */\n      0x00\n      add\n      0x00\n        /* \"contracts/3_Ballot.sol\":1450:1487  users[msg.sender].referrer = referrer */\n      0x0100\n      exp\n      dup2\n      sload\n      dup2\n      0xffffffffffffffffffffffffffffffffffffffff\n      mul\n      not\n      and\n      swap1\n      dup4\n      0xffffffffffffffffffffffffffffffffffffffff\n      and\n      mul\n      or\n      swap1\n      sstore\n      pop\n        /* \"contracts/3_Ballot.sol\":1497:1505  allUsers */\n      0x03\n        /* \"contracts/3_Ballot.sol\":1511:1521  msg.sender */\n      caller\n        /* \"contracts/3_Ballot.sol\":1497:1522  allUsers.push(msg.sender) */\n      swap1\n      dup1\n      0x01\n      dup2\n      sload\n      add\n      dup1\n      dup3\n      sstore\n      dup1\n      swap2\n      pop\n      pop\n      0x01\n      swap1\n      sub\n      swap1\n      0x00\n      mstore\n      keccak256(0x00, 0x20)\n      add\n      0x00\n      swap1\n      swap2\n      swap1\n      swap2\n      swap1\n      swap2\n      0x0100\n      exp\n      dup2\n      sload\n      dup2\n      0xffffffffffffffffffffffffffffffffffffffff\n      mul\n      not\n      and\n      swap1\n      dup4\n      0xffffffffffffffffffffffffffffffffffffffff\n      and\n      mul\n      or\n      swap1\n      sstore\n      pop\n        /* \"contracts/3_Ballot.sol\":1248:1529  function register(address referrer) external {... */\n      pop\n      jump\t// out\n        /* \"contracts/3_Ballot.sol\":1060:1086  uint256 public nextStakeId */\n    tag_40:\n      sload(0x05)\n      dup2\n      jump\t// out\n        /* \"contracts/3_Ballot.sol\":4419:4537  function getUserStakes(address user) external view returns (Stake[] memory) {... */\n    tag_46:\n        /* \"contracts/3_Ballot.sol\":4479:4493  Stake[] memory */\n      0x60\n        /* \"contracts/3_Ballot.sol\":4512:4517  users */\n      0x00\n        /* \"contracts/3_Ballot.sol\":4512:4523  users[user] */\n      dup1\n        /* \"contracts/3_Ballot.sol\":4518:4522  user */\n      dup4\n        /* \"contracts/3_Ballot.sol\":4512:4523  users[user] */\n      0xffffffffffffffffffffffffffffffffffffffff\n      and\n      0xffffffffffffffffffffffffffffffffffffffff\n      and\n      dup2\n      mstore\n      0x20\n      add\n      swap1\n      dup2\n      mstore\n      0x20\n      add\n      0x00\n      keccak256\n        /* \"contracts/3_Ballot.sol\":4512:4530  users[user].stakes */\n      0x01\n      add\n        /* \"contracts/3_Ballot.sol\":4505:4530  return users[user].stakes */\n      dup1\n      sload\n      dup1\n      0x20\n      mul\n      0x20\n      add\n      mload(0x40)\n      swap1\n      dup2\n      add\n      0x40\n      mstore\n      dup1\n      swap3\n      swap2\n      swap1\n      dup2\n      dup2\n      mstore\n      0x20\n      add\n      0x00\n      swap1\n    tag_121:\n      dup3\n      dup3\n      lt\n      iszero\n      tag_122\n      jumpi\n      dup4\n      dup3\n      swap1\n      0x00\n      mstore\n      keccak256(0x00, 0x20)\n      swap1\n      0x03\n      mul\n      add\n      mload(0x40)\n      dup1\n      0x60\n      add\n      0x40\n      mstore\n      swap1\n      dup2\n      0x00\n      dup3\n      add\n      sload\n      dup2\n      mstore\n      0x20\n      add\n      0x01\n      dup3\n      add\n      sload\n      dup2\n      mstore\n      0x20\n      add\n      0x02\n      dup3\n      add\n      sload\n      dup2\n      mstore\n      pop\n      pop\n      dup2\n      mstore\n      0x20\n      add\n      swap1\n      0x01\n      add\n      swap1\n      jump(tag_121)\n    tag_122:\n      pop\n      pop\n      pop\n      pop\n      swap1\n      pop\n        /* \"contracts/3_Ballot.sol\":4419:4537  function getUserStakes(address user) external view returns (Stake[] memory) {... */\n      swap2\n      swap1\n      pop\n      jump\t// out\n        /* \"contracts/3_Ballot.sol\":1092:1121  uint256 public nextPositionId */\n    tag_51:\n      sload(0x06)\n      dup2\n      jump\t// out\n        /* \"contracts/3_Ballot.sol\":4281:4377  function getTotalUsers() external view returns (uint256) {... */\n    tag_55:\n        /* \"contracts/3_Ballot.sol\":4329:4336  uint256 */\n      0x00\n        /* \"contracts/3_Ballot.sol\":4355:4363  allUsers */\n      0x03\n        /* \"contracts/3_Ballot.sol\":4355:4370  allUsers.length */\n      dup1\n      sload\n      swap1\n      pop\n        /* \"contracts/3_Ballot.sol\":4348:4370  return allUsers.length */\n      swap1\n      pop\n        /* \"contracts/3_Ballot.sol\":4281:4377  function getTotalUsers() external view returns (uint256) {... */\n      swap1\n      jump\t// out\n        /* \"contracts/3_Ballot.sol\":993:1018  address[] public allUsers */\n    tag_60:\n      0x03\n      dup2\n      dup2\n      sload\n      dup2\n      lt\n      tag_125\n      jumpi\n      0x00\n      dup1\n      revert\n    tag_125:\n      swap1\n      0x00\n      mstore\n      keccak256(0x00, 0x20)\n      add\n      0x00\n      swap2\n      pop\n      sload\n      swap1\n      0x0100\n      exp\n      swap1\n      div\n      0xffffffffffffffffffffffffffffffffffffffff\n      and\n      dup2\n      jump\t// out\n        /* \"contracts/3_Ballot.sol\":823:860  mapping(address => User) public users */\n    tag_65:\n      mstore(0x20, 0x00)\n      dup1\n      0x00\n      mstore\n      keccak256(0x00, 0x40)\n      0x00\n      swap2\n      pop\n      swap1\n      pop\n      dup1\n      0x00\n      add\n      0x00\n      swap1\n      sload\n      swap1\n      0x0100\n      exp\n      swap1\n      div\n      0xffffffffffffffffffffffffffffffffffffffff\n      and\n      swap1\n      dup1\n      0x00\n      add\n      0x14\n      swap1\n      sload\n      swap1\n      0x0100\n      exp\n      swap1\n      div\n      0xff\n      and\n      swap1\n      dup1\n      0x02\n      add\n      sload\n      swap1\n      dup1\n      0x03\n      add\n      sload\n      swap1\n      dup1\n      0x04\n      add\n      sload\n      swap1\n      pop\n      dup6\n      jump\t// out\n        /* \"contracts/3_Ballot.sol\":1128:1167  uint8[] public levelRewards = [5, 3, 2] */\n    tag_71:\n      0x07\n      dup2\n      dup2\n      sload\n      dup2\n      lt\n      tag_127\n      jumpi\n      0x00\n      dup1\n      revert\n    tag_127:\n      swap1\n      0x00\n      mstore\n      keccak256(0x00, 0x20)\n      swap1\n      0x20\n      swap2\n      dup3\n      dup3\n      div\n      add\n      swap2\n      swap1\n      mod\n      swap2\n      pop\n      sload\n      swap1\n      0x0100\n      exp\n      swap1\n      div\n      0xff\n      and\n      dup2\n      jump\t// out\n        /* \"contracts/3_Ballot.sol\":2301:4244  function getLevelIncomeDistribution(address _user) external view returns (LevelIncomeData[] memory) {... */\n    tag_77:\n        /* \"contracts/3_Ballot.sol\":2375:2399  LevelIncomeData[] memory */\n      0x60\n        /* \"contracts/3_Ballot.sol\":2411:2429  uint256 totalCount */\n      0x00\n        /* \"contracts/3_Ballot.sol\":2480:2489  uint256 i */\n      dup1\n        /* \"contracts/3_Ballot.sol\":2475:2953  for (uint256 i = 0; i < allUsers.length; i++) {... */\n    tag_130:\n        /* \"contracts/3_Ballot.sol\":2499:2507  allUsers */\n      0x03\n        /* \"contracts/3_Ballot.sol\":2499:2514  allUsers.length */\n      dup1\n      sload\n      swap1\n      pop\n        /* \"contracts/3_Ballot.sol\":2495:2496  i */\n      dup2\n        /* \"contracts/3_Ballot.sol\":2495:2514  i < allUsers.length */\n      lt\n        /* \"contracts/3_Ballot.sol\":2475:2953  for (uint256 i = 0; i < allUsers.length; i++) {... */\n      iszero\n      tag_131\n      jumpi\n        /* \"contracts/3_Ballot.sol\":2535:2549  address staker */\n      0x00\n        /* \"contracts/3_Ballot.sol\":2552:2560  allUsers */\n      0x03\n        /* \"contracts/3_Ballot.sol\":2561:2562  i */\n      dup3\n        /* \"contracts/3_Ballot.sol\":2552:2563  allUsers[i] */\n      dup2\n      sload\n      dup2\n      lt\n      tag_133\n      jumpi\n      tag_134\n      tag_102\n      jump\t// in\n    tag_134:\n    tag_133:\n      swap1\n      0x00\n      mstore\n      keccak256(0x00, 0x20)\n      add\n      0x00\n      swap1\n      sload\n      swap1\n      0x0100\n      exp\n      swap1\n      div\n      0xffffffffffffffffffffffffffffffffffffffff\n      and\n        /* \"contracts/3_Ballot.sol\":2535:2563  address staker = allUsers[i] */\n      swap1\n      pop\n        /* \"contracts/3_Ballot.sol\":2577:2598  Stake[] memory stakes */\n      0x00\n        /* \"contracts/3_Ballot.sol\":2601:2606  users */\n      dup1\n        /* \"contracts/3_Ballot.sol\":2601:2614  users[staker] */\n      0x00\n        /* \"contracts/3_Ballot.sol\":2607:2613  staker */\n      dup4\n        /* \"contracts/3_Ballot.sol\":2601:2614  users[staker] */\n      0xffffffffffffffffffffffffffffffffffffffff\n      and\n      0xffffffffffffffffffffffffffffffffffffffff\n      and\n      dup2\n      mstore\n      0x20\n      add\n      swap1\n      dup2\n      mstore\n      0x20\n      add\n      0x00\n      keccak256\n        /* \"contracts/3_Ballot.sol\":2601:2621  users[staker].stakes */\n      0x01\n      add\n        /* \"contracts/3_Ballot.sol\":2577:2621  Stake[] memory stakes = users[staker].stakes */\n      dup1\n      sload\n      dup1\n      0x20\n      mul\n      0x20\n      add\n      mload(0x40)\n      swap1\n      dup2\n      add\n      0x40\n      mstore\n      dup1\n      swap3\n      swap2\n      swap1\n      dup2\n      dup2\n      mstore\n      0x20\n      add\n      0x00\n      swap1\n    tag_136:\n      dup3\n      dup3\n      lt\n      iszero\n      tag_137\n      jumpi\n      dup4\n      dup3\n      swap1\n      0x00\n      mstore\n      keccak256(0x00, 0x20)\n      swap1\n      0x03\n      mul\n      add\n      mload(0x40)\n      dup1\n      0x60\n      add\n      0x40\n      mstore\n      swap1\n      dup2\n      0x00\n      dup3\n      add\n      sload\n      dup2\n      mstore\n      0x20\n      add\n      0x01\n      dup3\n      add\n      sload\n      dup2\n      mstore\n      0x20\n      add\n      0x02\n      dup3\n      add\n      sload\n      dup2\n      mstore\n      pop\n      pop\n      dup2\n      mstore\n      0x20\n      add\n      swap1\n      0x01\n      add\n      swap1\n      jump(tag_136)\n    tag_137:\n      pop\n      pop\n      pop\n      pop\n      swap1\n      pop\n        /* \"contracts/3_Ballot.sol\":2635:2649  address upline */\n      0x00\n        /* \"contracts/3_Ballot.sol\":2652:2657  users */\n      dup1\n        /* \"contracts/3_Ballot.sol\":2652:2665  users[staker] */\n      0x00\n        /* \"contracts/3_Ballot.sol\":2658:2664  staker */\n      dup5\n        /* \"contracts/3_Ballot.sol\":2652:2665  users[staker] */\n      0xffffffffffffffffffffffffffffffffffffffff\n      and\n      0xffffffffffffffffffffffffffffffffffffffff\n      and\n      dup2\n      mstore\n      0x20\n      add\n      swap1\n      dup2\n      mstore\n      0x20\n      add\n      0x00\n      keccak256\n        /* \"contracts/3_Ballot.sol\":2652:2674  users[staker].referrer */\n      0x00\n      add\n      0x00\n      swap1\n      sload\n      swap1\n      0x0100\n      exp\n      swap1\n      div\n      0xffffffffffffffffffffffffffffffffffffffff\n      and\n        /* \"contracts/3_Ballot.sol\":2635:2674  address upline = users[staker].referrer */\n      swap1\n      pop\n        /* \"contracts/3_Ballot.sol\":2694:2705  uint8 level */\n      0x00\n        /* \"contracts/3_Ballot.sol\":2689:2943  for (uint8 level = 0; level < levelRewards.length && upline != address(0); level++) {... */\n    tag_139:\n        /* \"contracts/3_Ballot.sol\":2719:2731  levelRewards */\n      0x07\n        /* \"contracts/3_Ballot.sol\":2719:2738  levelRewards.length */\n      dup1\n      sload\n      swap1\n      pop\n        /* \"contracts/3_Ballot.sol\":2711:2716  level */\n      dup2\n        /* \"contracts/3_Ballot.sol\":2711:2738  level < levelRewards.length */\n      0xff\n      and\n      lt\n        /* \"contracts/3_Ballot.sol\":2711:2762  level < levelRewards.length && upline != address(0) */\n      dup1\n      iszero\n      tag_142\n      jumpi\n      pop\n        /* \"contracts/3_Ballot.sol\":2760:2761  0 */\n      0x00\n        /* \"contracts/3_Ballot.sol\":2742:2762  upline != address(0) */\n      0xffffffffffffffffffffffffffffffffffffffff\n      and\n        /* \"contracts/3_Ballot.sol\":2742:2748  upline */\n      dup3\n        /* \"contracts/3_Ballot.sol\":2742:2762  upline != address(0) */\n      0xffffffffffffffffffffffffffffffffffffffff\n      and\n      eq\n      iszero\n        /* \"contracts/3_Ballot.sol\":2711:2762  level < levelRewards.length && upline != address(0) */\n    tag_142:\n        /* \"contracts/3_Ballot.sol\":2689:2943  for (uint8 level = 0; level < levelRewards.length && upline != address(0); level++) {... */\n      iszero\n      tag_140\n      jumpi\n        /* \"contracts/3_Ballot.sol\":2805:2810  _user */\n      dup8\n        /* \"contracts/3_Ballot.sol\":2795:2810  upline == _user */\n      0xffffffffffffffffffffffffffffffffffffffff\n      and\n        /* \"contracts/3_Ballot.sol\":2795:2801  upline */\n      dup3\n        /* \"contracts/3_Ballot.sol\":2795:2810  upline == _user */\n      0xffffffffffffffffffffffffffffffffffffffff\n      and\n      sub\n        /* \"contracts/3_Ballot.sol\":2791:2880  if (upline == _user) {... */\n      tag_143\n      jumpi\n        /* \"contracts/3_Ballot.sol\":2848:2854  stakes */\n      dup3\n        /* \"contracts/3_Ballot.sol\":2848:2861  stakes.length */\n      mload\n        /* \"contracts/3_Ballot.sol\":2834:2861  totalCount += stakes.length */\n      dup7\n      tag_144\n      swap2\n      swap1\n      tag_145\n      jump\t// in\n    tag_144:\n      swap6\n      pop\n        /* \"contracts/3_Ballot.sol\":2791:2880  if (upline == _user) {... */\n    tag_143:\n        /* \"contracts/3_Ballot.sol\":2906:2911  users */\n      0x00\n        /* \"contracts/3_Ballot.sol\":2906:2919  users[upline] */\n      dup1\n        /* \"contracts/3_Ballot.sol\":2912:2918  upline */\n      dup4\n        /* \"contracts/3_Ballot.sol\":2906:2919  users[upline] */\n      0xffffffffffffffffffffffffffffffffffffffff\n      and\n      0xffffffffffffffffffffffffffffffffffffffff\n      and\n      dup2\n      mstore\n      0x20\n      add\n      swap1\n      dup2\n      mstore\n      0x20\n      add\n      0x00\n      keccak256\n        /* \"contracts/3_Ballot.sol\":2906:2928  users[upline].referrer */\n      0x00\n      add\n      0x00\n      swap1\n      sload\n      swap1\n      0x0100\n      exp\n      swap1\n      div\n      0xffffffffffffffffffffffffffffffffffffffff\n      and\n        /* \"contracts/3_Ballot.sol\":2897:2928  upline = users[upline].referrer */\n      swap2\n      pop\n        /* \"contracts/3_Ballot.sol\":2764:2771  level++ */\n      dup1\n      dup1\n      tag_146\n      swap1\n      tag_111\n      jump\t// in\n    tag_146:\n      swap2\n      pop\n      pop\n        /* \"contracts/3_Ballot.sol\":2689:2943  for (uint8 level = 0; level < levelRewards.length && upline != address(0); level++) {... */\n      jump(tag_139)\n    tag_140:\n      pop\n        /* \"contracts/3_Ballot.sol\":2521:2953  {... */\n      pop\n      pop\n      pop\n        /* \"contracts/3_Ballot.sol\":2516:2519  i++ */\n      dup1\n      dup1\n      0x01\n      add\n      swap2\n      pop\n      pop\n        /* \"contracts/3_Ballot.sol\":2475:2953  for (uint256 i = 0; i < allUsers.length; i++) {... */\n      jump(tag_130)\n    tag_131:\n      pop\n        /* \"contracts/3_Ballot.sol\":2963:2998  LevelIncomeData[] memory incomeData */\n      0x00\n        /* \"contracts/3_Ballot.sol\":3023:3033  totalCount */\n      dup2\n        /* \"contracts/3_Ballot.sol\":3001:3034  new LevelIncomeData[](totalCount) */\n      0xffffffffffffffff\n      dup2\n      gt\n      iszero\n      tag_147\n      jumpi\n      tag_148\n      tag_149\n      jump\t// in\n    tag_148:\n    tag_147:\n      mload(0x40)\n      swap1\n      dup1\n      dup3\n      mstore\n      dup1\n      0x20\n      mul\n      0x20\n      add\n      dup3\n      add\n      0x40\n      mstore\n      dup1\n      iszero\n      tag_150\n      jumpi\n      dup2\n      0x20\n      add\n    tag_151:\n      tag_152\n      tag_153\n      jump\t// in\n    tag_152:\n      dup2\n      mstore\n      0x20\n      add\n      swap1\n      0x01\n      swap1\n      sub\n      swap1\n      dup2\n      tag_151\n      jumpi\n      swap1\n      pop\n    tag_150:\n      pop\n        /* \"contracts/3_Ballot.sol\":2963:3034  LevelIncomeData[] memory incomeData = new LevelIncomeData[](totalCount) */\n      swap1\n      pop\n        /* \"contracts/3_Ballot.sol\":3044:3057  uint256 index */\n      0x00\n        /* \"contracts/3_Ballot.sol\":3101:3110  uint256 i */\n      dup1\n        /* \"contracts/3_Ballot.sol\":3096:4210  for (uint256 i = 0; i < allUsers.length; i++) {... */\n    tag_154:\n        /* \"contracts/3_Ballot.sol\":3120:3128  allUsers */\n      0x03\n        /* \"contracts/3_Ballot.sol\":3120:3135  allUsers.length */\n      dup1\n      sload\n      swap1\n      pop\n        /* \"contracts/3_Ballot.sol\":3116:3117  i */\n      dup2\n        /* \"contracts/3_Ballot.sol\":3116:3135  i < allUsers.length */\n      lt\n        /* \"contracts/3_Ballot.sol\":3096:4210  for (uint256 i = 0; i < allUsers.length; i++) {... */\n      iszero\n      tag_155\n      jumpi\n        /* \"contracts/3_Ballot.sol\":3156:3170  address staker */\n      0x00\n        /* \"contracts/3_Ballot.sol\":3173:3181  allUsers */\n      0x03\n        /* \"contracts/3_Ballot.sol\":3182:3183  i */\n      dup3\n        /* \"contracts/3_Ballot.sol\":3173:3184  allUsers[i] */\n      dup2\n      sload\n      dup2\n      lt\n      tag_157\n      jumpi\n      tag_158\n      tag_102\n      jump\t// in\n    tag_158:\n    tag_157:\n      swap1\n      0x00\n      mstore\n      keccak256(0x00, 0x20)\n      add\n      0x00\n      swap1\n      sload\n      swap1\n      0x0100\n      exp\n      swap1\n      div\n      0xffffffffffffffffffffffffffffffffffffffff\n      and\n        /* \"contracts/3_Ballot.sol\":3156:3184  address staker = allUsers[i] */\n      swap1\n      pop\n        /* \"contracts/3_Ballot.sol\":3198:3219  Stake[] memory stakes */\n      0x00\n        /* \"contracts/3_Ballot.sol\":3222:3227  users */\n      dup1\n        /* \"contracts/3_Ballot.sol\":3222:3235  users[staker] */\n      0x00\n        /* \"contracts/3_Ballot.sol\":3228:3234  staker */\n      dup4\n        /* \"contracts/3_Ballot.sol\":3222:3235  users[staker] */\n      0xffffffffffffffffffffffffffffffffffffffff\n      and\n      0xffffffffffffffffffffffffffffffffffffffff\n      and\n      dup2\n      mstore\n      0x20\n      add\n      swap1\n      dup2\n      mstore\n      0x20\n      add\n      0x00\n      keccak256\n        /* \"contracts/3_Ballot.sol\":3222:3242  users[staker].stakes */\n      0x01\n      add\n        /* \"contracts/3_Ballot.sol\":3198:3242  Stake[] memory stakes = users[staker].stakes */\n      dup1\n      sload\n      dup1\n      0x20\n      mul\n      0x20\n      add\n      mload(0x40)\n      swap1\n      dup2\n      add\n      0x40\n      mstore\n      dup1\n      swap3\n      swap2\n      swap1\n      dup2\n      dup2\n      mstore\n      0x20\n      add\n      0x00\n      swap1\n    tag_160:\n      dup3\n      dup3\n      lt\n      iszero\n      tag_161\n      jumpi\n      dup4\n      dup3\n      swap1\n      0x00\n      mstore\n      keccak256(0x00, 0x20)\n      swap1\n      0x03\n      mul\n      add\n      mload(0x40)\n      dup1\n      0x60\n      add\n      0x40\n      mstore\n      swap1\n      dup2\n      0x00\n      dup3\n      add\n      sload\n      dup2\n      mstore\n      0x20\n      add\n      0x01\n      dup3\n      add\n      sload\n      dup2\n      mstore\n      0x20\n      add\n      0x02\n      dup3\n      add\n      sload\n      dup2\n      mstore\n      pop\n      pop\n      dup2\n      mstore\n      0x20\n      add\n      swap1\n      0x01\n      add\n      swap1\n      jump(tag_160)\n    tag_161:\n      pop\n      pop\n      pop\n      pop\n      swap1\n      pop\n        /* \"contracts/3_Ballot.sol\":3256:3270  address upline */\n      0x00\n        /* \"contracts/3_Ballot.sol\":3273:3278  users */\n      dup1\n        /* \"contracts/3_Ballot.sol\":3273:3286  users[staker] */\n      0x00\n        /* \"contracts/3_Ballot.sol\":3279:3285  staker */\n      dup5\n        /* \"contracts/3_Ballot.sol\":3273:3286  users[staker] */\n      0xffffffffffffffffffffffffffffffffffffffff\n      and\n      0xffffffffffffffffffffffffffffffffffffffff\n      and\n      dup2\n      mstore\n      0x20\n      add\n      swap1\n      dup2\n      mstore\n      0x20\n      add\n      0x00\n      keccak256\n        /* \"contracts/3_Ballot.sol\":3273:3295  users[staker].referrer */\n      0x00\n      add\n      0x00\n      swap1\n      sload\n      swap1\n      0x0100\n      exp\n      swap1\n      div\n      0xffffffffffffffffffffffffffffffffffffffff\n      and\n        /* \"contracts/3_Ballot.sol\":3256:3295  address upline = users[staker].referrer */\n      swap1\n      pop\n        /* \"contracts/3_Ballot.sol\":3315:3326  uint8 level */\n      0x00\n        /* \"contracts/3_Ballot.sol\":3310:4200  for (uint8 level = 0; level < levelRewards.length && upline != address(0); level++) {... */\n    tag_163:\n        /* \"contracts/3_Ballot.sol\":3340:3352  levelRewards */\n      0x07\n        /* \"contracts/3_Ballot.sol\":3340:3359  levelRewards.length */\n      dup1\n      sload\n      swap1\n      pop\n        /* \"contracts/3_Ballot.sol\":3332:3337  level */\n      dup2\n        /* \"contracts/3_Ballot.sol\":3332:3359  level < levelRewards.length */\n      0xff\n      and\n      lt\n        /* \"contracts/3_Ballot.sol\":3332:3383  level < levelRewards.length && upline != address(0) */\n      dup1\n      iszero\n      tag_166\n      jumpi\n      pop\n        /* \"contracts/3_Ballot.sol\":3381:3382  0 */\n      0x00\n        /* \"contracts/3_Ballot.sol\":3363:3383  upline != address(0) */\n      0xffffffffffffffffffffffffffffffffffffffff\n      and\n        /* \"contracts/3_Ballot.sol\":3363:3369  upline */\n      dup3\n        /* \"contracts/3_Ballot.sol\":3363:3383  upline != address(0) */\n      0xffffffffffffffffffffffffffffffffffffffff\n      and\n      eq\n      iszero\n        /* \"contracts/3_Ballot.sol\":3332:3383  level < levelRewards.length && upline != address(0) */\n    tag_166:\n        /* \"contracts/3_Ballot.sol\":3310:4200  for (uint8 level = 0; level < levelRewards.length && upline != address(0); level++) {... */\n      iszero\n      tag_164\n      jumpi\n        /* \"contracts/3_Ballot.sol\":3426:3431  _user */\n      dup10\n        /* \"contracts/3_Ballot.sol\":3416:3431  upline == _user */\n      0xffffffffffffffffffffffffffffffffffffffff\n      and\n        /* \"contracts/3_Ballot.sol\":3416:3422  upline */\n      dup3\n        /* \"contracts/3_Ballot.sol\":3416:3431  upline == _user */\n      0xffffffffffffffffffffffffffffffffffffffff\n      and\n      sub\n        /* \"contracts/3_Ballot.sol\":3412:4137  if (upline == _user) {... */\n      tag_167\n      jumpi\n        /* \"contracts/3_Ballot.sol\":3460:3469  uint256 j */\n      0x00\n        /* \"contracts/3_Ballot.sol\":3455:4119  for (uint256 j = 0; j < stakes.length; j++) {... */\n    tag_168:\n        /* \"contracts/3_Ballot.sol\":3479:3485  stakes */\n      dup4\n        /* \"contracts/3_Ballot.sol\":3479:3492  stakes.length */\n      mload\n        /* \"contracts/3_Ballot.sol\":3475:3476  j */\n      dup2\n        /* \"contracts/3_Ballot.sol\":3475:3492  j < stakes.length */\n      lt\n        /* \"contracts/3_Ballot.sol\":3455:4119  for (uint256 j = 0; j < stakes.length; j++) {... */\n      iszero\n      tag_169\n      jumpi\n        /* \"contracts/3_Ballot.sol\":3525:3543  Stake memory stake */\n      0x00\n        /* \"contracts/3_Ballot.sol\":3546:3552  stakes */\n      dup5\n        /* \"contracts/3_Ballot.sol\":3553:3554  j */\n      dup3\n        /* \"contracts/3_Ballot.sol\":3546:3555  stakes[j] */\n      dup2\n      mload\n      dup2\n      lt\n      tag_171\n      jumpi\n      tag_172\n      tag_102\n      jump\t// in\n    tag_172:\n    tag_171:\n      0x20\n      mul\n      0x20\n      add\n      add\n      mload\n        /* \"contracts/3_Ballot.sol\":3525:3555  Stake memory stake = stakes[j] */\n      swap1\n      pop\n        /* \"contracts/3_Ballot.sol\":3581:3595  uint256 income */\n      0x00\n        /* \"contracts/3_Ballot.sol\":3637:3640  100 */\n      0x64\n        /* \"contracts/3_Ballot.sol\":3614:3626  levelRewards */\n      0x07\n        /* \"contracts/3_Ballot.sol\":3627:3632  level */\n      dup6\n        /* \"contracts/3_Ballot.sol\":3614:3633  levelRewards[level] */\n      0xff\n      and\n      dup2\n      sload\n      dup2\n      lt\n      tag_173\n      jumpi\n      tag_174\n      tag_102\n      jump\t// in\n    tag_174:\n    tag_173:\n      swap1\n      0x00\n      mstore\n      keccak256(0x00, 0x20)\n      swap1\n      0x20\n      swap2\n      dup3\n      dup3\n      div\n      add\n      swap2\n      swap1\n      mod\n      swap1\n      sload\n      swap1\n      0x0100\n      exp\n      swap1\n      div\n      0xff\n      and\n        /* \"contracts/3_Ballot.sol\":3599:3633  stake.amount * levelRewards[level] */\n      0xff\n      and\n        /* \"contracts/3_Ballot.sol\":3599:3604  stake */\n      dup4\n        /* \"contracts/3_Ballot.sol\":3599:3611  stake.amount */\n      0x20\n      add\n      mload\n        /* \"contracts/3_Ballot.sol\":3599:3633  stake.amount * levelRewards[level] */\n      tag_176\n      swap2\n      swap1\n      tag_105\n      jump\t// in\n    tag_176:\n        /* \"contracts/3_Ballot.sol\":3598:3640  (stake.amount * levelRewards[level]) / 100 */\n      tag_177\n      swap2\n      swap1\n      tag_107\n      jump\t// in\n    tag_177:\n        /* \"contracts/3_Ballot.sol\":3581:3640  uint256 income = (stake.amount * levelRewards[level]) / 100 */\n      swap1\n      pop\n        /* \"contracts/3_Ballot.sol\":3689:4096  LevelIncomeData({... */\n      mload(0x40)\n      dup1\n      0xe0\n      add\n      0x40\n      mstore\n      dup1\n        /* \"contracts/3_Ballot.sol\":3752:3757  _user */\n      dup15\n        /* \"contracts/3_Ballot.sol\":3689:4096  LevelIncomeData({... */\n      0xffffffffffffffffffffffffffffffffffffffff\n      and\n      dup2\n      mstore\n      0x20\n      add\n        /* \"contracts/3_Ballot.sol\":3796:3801  stake */\n      dup4\n        /* \"contracts/3_Ballot.sol\":3796:3809  stake.stakeId */\n      0x00\n      add\n      mload\n        /* \"contracts/3_Ballot.sol\":3689:4096  LevelIncomeData({... */\n      dup2\n      mstore\n      0x20\n      add\n        /* \"contracts/3_Ballot.sol\":3852:3857  stake */\n      dup4\n        /* \"contracts/3_Ballot.sol\":3852:3864  stake.amount */\n      0x20\n      add\n      mload\n        /* \"contracts/3_Ballot.sol\":3689:4096  LevelIncomeData({... */\n      dup2\n      mstore\n      0x20\n      add\n        /* \"contracts/3_Ballot.sol\":3910:3916  income */\n      dup3\n        /* \"contracts/3_Ballot.sol\":3689:4096  LevelIncomeData({... */\n      dup2\n      mstore\n      0x20\n      add\n        /* \"contracts/3_Ballot.sol\":3961:3967  staker */\n      dup9\n        /* \"contracts/3_Ballot.sol\":3689:4096  LevelIncomeData({... */\n      0xffffffffffffffffffffffffffffffffffffffff\n      and\n      dup2\n      mstore\n      0x20\n      add\n        /* \"contracts/3_Ballot.sol\":4008:4013  stake */\n      dup4\n        /* \"contracts/3_Ballot.sol\":4008:4023  stake.timestamp */\n      0x40\n      add\n      mload\n        /* \"contracts/3_Ballot.sol\":3689:4096  LevelIncomeData({... */\n      dup2\n      mstore\n      0x20\n      add\n        /* \"contracts/3_Ballot.sol\":4068:4069  1 */\n      0x01\n        /* \"contracts/3_Ballot.sol\":4060:4065  level */\n      dup7\n        /* \"contracts/3_Ballot.sol\":4060:4069  level + 1 */\n      tag_178\n      swap2\n      swap1\n      tag_179\n      jump\t// in\n    tag_178:\n        /* \"contracts/3_Ballot.sol\":3689:4096  LevelIncomeData({... */\n      0xff\n      and\n      dup2\n      mstore\n      pop\n        /* \"contracts/3_Ballot.sol\":3667:3677  incomeData */\n      dup11\n        /* \"contracts/3_Ballot.sol\":3678:3685  index++ */\n      dup11\n      dup1\n      tag_180\n      swap1\n      tag_94\n      jump\t// in\n    tag_180:\n      swap12\n      pop\n        /* \"contracts/3_Ballot.sol\":3667:3686  incomeData[index++] */\n      dup2\n      mload\n      dup2\n      lt\n      tag_181\n      jumpi\n      tag_182\n      tag_102\n      jump\t// in\n    tag_182:\n    tag_181:\n      0x20\n      mul\n      0x20\n      add\n      add\n        /* \"contracts/3_Ballot.sol\":3667:4096  incomeData[index++] = LevelIncomeData({... */\n      dup2\n      swap1\n      mstore\n      pop\n        /* \"contracts/3_Ballot.sol\":3499:4119  {... */\n      pop\n      pop\n        /* \"contracts/3_Ballot.sol\":3494:3497  j++ */\n      dup1\n      dup1\n      0x01\n      add\n      swap2\n      pop\n      pop\n        /* \"contracts/3_Ballot.sol\":3455:4119  for (uint256 j = 0; j < stakes.length; j++) {... */\n      jump(tag_168)\n    tag_169:\n      pop\n        /* \"contracts/3_Ballot.sol\":3412:4137  if (upline == _user) {... */\n    tag_167:\n        /* \"contracts/3_Ballot.sol\":4163:4168  users */\n      0x00\n        /* \"contracts/3_Ballot.sol\":4163:4176  users[upline] */\n      dup1\n        /* \"contracts/3_Ballot.sol\":4169:4175  upline */\n      dup4\n        /* \"contracts/3_Ballot.sol\":4163:4176  users[upline] */\n      0xffffffffffffffffffffffffffffffffffffffff\n      and\n      0xffffffffffffffffffffffffffffffffffffffff\n      and\n      dup2\n      mstore\n      0x20\n      add\n      swap1\n      dup2\n      mstore\n      0x20\n      add\n      0x00\n      keccak256\n        /* \"contracts/3_Ballot.sol\":4163:4185  users[upline].referrer */\n      0x00\n      add\n      0x00\n      swap1\n      sload\n      swap1\n      0x0100\n      exp\n      swap1\n      div\n      0xffffffffffffffffffffffffffffffffffffffff\n      and\n        /* \"contracts/3_Ballot.sol\":4154:4185  upline = users[upline].referrer */\n      swap2\n      pop\n        /* \"contracts/3_Ballot.sol\":3385:3392  level++ */\n      dup1\n      dup1\n      tag_183\n      swap1\n      tag_111\n      jump\t// in\n    tag_183:\n      swap2\n      pop\n      pop\n        /* \"contracts/3_Ballot.sol\":3310:4200  for (uint8 level = 0; level < levelRewards.length && upline != address(0); level++) {... */\n      jump(tag_163)\n    tag_164:\n      pop\n        /* \"contracts/3_Ballot.sol\":3142:4210  {... */\n      pop\n      pop\n      pop\n        /* \"contracts/3_Ballot.sol\":3137:3140  i++ */\n      dup1\n      dup1\n      0x01\n      add\n      swap2\n      pop\n      pop\n        /* \"contracts/3_Ballot.sol\":3096:4210  for (uint256 i = 0; i < allUsers.length; i++) {... */\n      jump(tag_154)\n    tag_155:\n      pop\n        /* \"contracts/3_Ballot.sol\":4227:4237  incomeData */\n      dup2\n        /* \"contracts/3_Ballot.sol\":4220:4237  return incomeData */\n      swap4\n      pop\n      pop\n      pop\n      pop\n        /* \"contracts/3_Ballot.sol\":2301:4244  function getLevelIncomeDistribution(address _user) external view returns (LevelIncomeData[] memory) {... */\n      swap2\n      swap1\n      pop\n      jump\t// out\n        /* \"contracts/3_Ballot.sol\":1025:1052  uint256 public stakeCounter */\n    tag_82:\n      sload(0x04)\n      dup2\n      jump\t// out\n    tag_153:\n      mload(0x40)\n      dup1\n      0xe0\n      add\n      0x40\n      mstore\n      dup1\n      and(0xffffffffffffffffffffffffffffffffffffffff, 0x00)\n      dup2\n      mstore\n      0x20\n      add\n      0x00\n      dup2\n      mstore\n      0x20\n      add\n      0x00\n      dup2\n      mstore\n      0x20\n      add\n      0x00\n      dup2\n      mstore\n      0x20\n      add\n      and(0xffffffffffffffffffffffffffffffffffffffff, 0x00)\n      dup2\n      mstore\n      0x20\n      add\n      0x00\n      dup2\n      mstore\n      0x20\n      add\n      and(0xff, 0x00)\n      dup2\n      mstore\n      pop\n      swap1\n      jump\t// out\n        /* \"#utility.yul\":88:205   */\n    tag_185:\n        /* \"#utility.yul\":197:198   */\n      0x00\n        /* \"#utility.yul\":194:195   */\n      dup1\n        /* \"#utility.yul\":187:199   */\n      revert\n        /* \"#utility.yul\":334:460   */\n    tag_187:\n        /* \"#utility.yul\":371:378   */\n      0x00\n        /* \"#utility.yul\":411:453   */\n      0xffffffffffffffffffffffffffffffffffffffff\n        /* \"#utility.yul\":404:409   */\n      dup3\n        /* \"#utility.yul\":400:454   */\n      and\n        /* \"#utility.yul\":389:454   */\n      swap1\n      pop\n        /* \"#utility.yul\":334:460   */\n      swap2\n      swap1\n      pop\n      jump\t// out\n        /* \"#utility.yul\":466:562   */\n    tag_188:\n        /* \"#utility.yul\":503:510   */\n      0x00\n        /* \"#utility.yul\":532:556   */\n      tag_234\n        /* \"#utility.yul\":550:555   */\n      dup3\n        /* \"#utility.yul\":532:556   */\n      tag_187\n      jump\t// in\n    tag_234:\n        /* \"#utility.yul\":521:556   */\n      swap1\n      pop\n        /* \"#utility.yul\":466:562   */\n      swap2\n      swap1\n      pop\n      jump\t// out\n        /* \"#utility.yul\":568:690   */\n    tag_189:\n        /* \"#utility.yul\":641:665   */\n      tag_236\n        /* \"#utility.yul\":659:664   */\n      dup2\n        /* \"#utility.yul\":641:665   */\n      tag_188\n      jump\t// in\n    tag_236:\n        /* \"#utility.yul\":634:639   */\n      dup2\n        /* \"#utility.yul\":631:666   */\n      eq\n        /* \"#utility.yul\":621:684   */\n      tag_237\n      jumpi\n        /* \"#utility.yul\":680:681   */\n      0x00\n        /* \"#utility.yul\":677:678   */\n      dup1\n        /* \"#utility.yul\":670:682   */\n      revert\n        /* \"#utility.yul\":621:684   */\n    tag_237:\n        /* \"#utility.yul\":568:690   */\n      pop\n      jump\t// out\n        /* \"#utility.yul\":696:835   */\n    tag_190:\n        /* \"#utility.yul\":742:747   */\n      0x00\n        /* \"#utility.yul\":780:786   */\n      dup2\n        /* \"#utility.yul\":767:787   */\n      calldataload\n        /* \"#utility.yul\":758:787   */\n      swap1\n      pop\n        /* \"#utility.yul\":796:829   */\n      tag_239\n        /* \"#utility.yul\":823:828   */\n      dup2\n        /* \"#utility.yul\":796:829   */\n      tag_189\n      jump\t// in\n    tag_239:\n        /* \"#utility.yul\":696:835   */\n      swap3\n      swap2\n      pop\n      pop\n      jump\t// out\n        /* \"#utility.yul\":841:918   */\n    tag_191:\n        /* \"#utility.yul\":878:885   */\n      0x00\n        /* \"#utility.yul\":907:912   */\n      dup2\n        /* \"#utility.yul\":896:912   */\n      swap1\n      pop\n        /* \"#utility.yul\":841:918   */\n      swap2\n      swap1\n      pop\n      jump\t// out\n        /* \"#utility.yul\":924:1046   */\n    tag_192:\n        /* \"#utility.yul\":997:1021   */\n      tag_242\n        /* \"#utility.yul\":1015:1020   */\n      dup2\n        /* \"#utility.yul\":997:1021   */\n      tag_191\n      jump\t// in\n    tag_242:\n        /* \"#utility.yul\":990:995   */\n      dup2\n        /* \"#utility.yul\":987:1022   */\n      eq\n        /* \"#utility.yul\":977:1040   */\n      tag_243\n      jumpi\n        /* \"#utility.yul\":1036:1037   */\n      0x00\n        /* \"#utility.yul\":1033:1034   */\n      dup1\n        /* \"#utility.yul\":1026:1038   */\n      revert\n        /* \"#utility.yul\":977:1040   */\n    tag_243:\n        /* \"#utility.yul\":924:1046   */\n      pop\n      jump\t// out\n        /* \"#utility.yul\":1052:1191   */\n    tag_193:\n        /* \"#utility.yul\":1098:1103   */\n      0x00\n        /* \"#utility.yul\":1136:1142   */\n      dup2\n        /* \"#utility.yul\":1123:1143   */\n      calldataload\n        /* \"#utility.yul\":1114:1143   */\n      swap1\n      pop\n        /* \"#utility.yul\":1152:1185   */\n      tag_245\n        /* \"#utility.yul\":1179:1184   */\n      dup2\n        /* \"#utility.yul\":1152:1185   */\n      tag_192\n      jump\t// in\n    tag_245:\n        /* \"#utility.yul\":1052:1191   */\n      swap3\n      swap2\n      pop\n      pop\n      jump\t// out\n        /* \"#utility.yul\":1197:1671   */\n    tag_20:\n        /* \"#utility.yul\":1265:1271   */\n      0x00\n        /* \"#utility.yul\":1273:1279   */\n      dup1\n        /* \"#utility.yul\":1322:1324   */\n      0x40\n        /* \"#utility.yul\":1310:1319   */\n      dup4\n        /* \"#utility.yul\":1301:1308   */\n      dup6\n        /* \"#utility.yul\":1297:1320   */\n      sub\n        /* \"#utility.yul\":1293:1325   */\n      slt\n        /* \"#utility.yul\":1290:1409   */\n      iszero\n      tag_247\n      jumpi\n        /* \"#utility.yul\":1328:1407   */\n      tag_248\n      tag_185\n      jump\t// in\n    tag_248:\n        /* \"#utility.yul\":1290:1409   */\n    tag_247:\n        /* \"#utility.yul\":1448:1449   */\n      0x00\n        /* \"#utility.yul\":1473:1526   */\n      tag_249\n        /* \"#utility.yul\":1518:1525   */\n      dup6\n        /* \"#utility.yul\":1509:1515   */\n      dup3\n        /* \"#utility.yul\":1498:1507   */\n      dup7\n        /* \"#utility.yul\":1494:1516   */\n      add\n        /* \"#utility.yul\":1473:1526   */\n      tag_190\n      jump\t// in\n    tag_249:\n        /* \"#utility.yul\":1463:1526   */\n      swap3\n      pop\n        /* \"#utility.yul\":1419:1536   */\n      pop\n        /* \"#utility.yul\":1575:1577   */\n      0x20\n        /* \"#utility.yul\":1601:1654   */\n      tag_250\n        /* \"#utility.yul\":1646:1653   */\n      dup6\n        /* \"#utility.yul\":1637:1643   */\n      dup3\n        /* \"#utility.yul\":1626:1635   */\n      dup7\n        /* \"#utility.yul\":1622:1644   */\n      add\n        /* \"#utility.yul\":1601:1654   */\n      tag_193\n      jump\t// in\n    tag_250:\n        /* \"#utility.yul\":1591:1654   */\n      swap2\n      pop\n        /* \"#utility.yul\":1546:1664   */\n      pop\n        /* \"#utility.yul\":1197:1671   */\n      swap3\n      pop\n      swap3\n      swap1\n      pop\n      jump\t// out\n        /* \"#utility.yul\":1677:1795   */\n    tag_194:\n        /* \"#utility.yul\":1764:1788   */\n      tag_252\n        /* \"#utility.yul\":1782:1787   */\n      dup2\n        /* \"#utility.yul\":1764:1788   */\n      tag_188\n      jump\t// in\n    tag_252:\n        /* \"#utility.yul\":1759:1762   */\n      dup3\n        /* \"#utility.yul\":1752:1789   */\n      mstore\n        /* \"#utility.yul\":1677:1795   */\n      pop\n      pop\n      jump\t// out\n        /* \"#utility.yul\":1801:1919   */\n    tag_195:\n        /* \"#utility.yul\":1888:1912   */\n      tag_254\n        /* \"#utility.yul\":1906:1911   */\n      dup2\n        /* \"#utility.yul\":1888:1912   */\n      tag_191\n      jump\t// in\n    tag_254:\n        /* \"#utility.yul\":1883:1886   */\n      dup3\n        /* \"#utility.yul\":1876:1913   */\n      mstore\n        /* \"#utility.yul\":1801:1919   */\n      pop\n      pop\n      jump\t// out\n        /* \"#utility.yul\":1925:2367   */\n    tag_23:\n        /* \"#utility.yul\":2074:2078   */\n      0x00\n        /* \"#utility.yul\":2112:2114   */\n      0x60\n        /* \"#utility.yul\":2101:2110   */\n      dup3\n        /* \"#utility.yul\":2097:2115   */\n      add\n        /* \"#utility.yul\":2089:2115   */\n      swap1\n      pop\n        /* \"#utility.yul\":2125:2196   */\n      tag_256\n        /* \"#utility.yul\":2193:2194   */\n      0x00\n        /* \"#utility.yul\":2182:2191   */\n      dup4\n        /* \"#utility.yul\":2178:2195   */\n      add\n        /* \"#utility.yul\":2169:2175   */\n      dup7\n        /* \"#utility.yul\":2125:2196   */\n      tag_194\n      jump\t// in\n    tag_256:\n        /* \"#utility.yul\":2206:2278   */\n      tag_257\n        /* \"#utility.yul\":2274:2276   */\n      0x20\n        /* \"#utility.yul\":2263:2272   */\n      dup4\n        /* \"#utility.yul\":2259:2277   */\n      add\n        /* \"#utility.yul\":2250:2256   */\n      dup6\n        /* \"#utility.yul\":2206:2278   */\n      tag_195\n      jump\t// in\n    tag_257:\n        /* \"#utility.yul\":2288:2360   */\n      tag_258\n        /* \"#utility.yul\":2356:2358   */\n      0x40\n        /* \"#utility.yul\":2345:2354   */\n      dup4\n        /* \"#utility.yul\":2341:2359   */\n      add\n        /* \"#utility.yul\":2332:2338   */\n      dup5\n        /* \"#utility.yul\":2288:2360   */\n      tag_195\n      jump\t// in\n    tag_258:\n        /* \"#utility.yul\":1925:2367   */\n      swap5\n      swap4\n      pop\n      pop\n      pop\n      pop\n      jump\t// out\n        /* \"#utility.yul\":2373:2702   */\n    tag_27:\n        /* \"#utility.yul\":2432:2438   */\n      0x00\n        /* \"#utility.yul\":2481:2483   */\n      0x20\n        /* \"#utility.yul\":2469:2478   */\n      dup3\n        /* \"#utility.yul\":2460:2467   */\n      dup5\n        /* \"#utility.yul\":2456:2479   */\n      sub\n        /* \"#utility.yul\":2452:2484   */\n      slt\n        /* \"#utility.yul\":2449:2568   */\n      iszero\n      tag_260\n      jumpi\n        /* \"#utility.yul\":2487:2566   */\n      tag_261\n      tag_185\n      jump\t// in\n    tag_261:\n        /* \"#utility.yul\":2449:2568   */\n    tag_260:\n        /* \"#utility.yul\":2607:2608   */\n      0x00\n        /* \"#utility.yul\":2632:2685   */\n      tag_262\n        /* \"#utility.yul\":2677:2684   */\n      dup5\n        /* \"#utility.yul\":2668:2674   */\n      dup3\n        /* \"#utility.yul\":2657:2666   */\n      dup6\n        /* \"#utility.yul\":2653:2675   */\n      add\n        /* \"#utility.yul\":2632:2685   */\n      tag_193\n      jump\t// in\n    tag_262:\n        /* \"#utility.yul\":2622:2685   */\n      swap2\n      pop\n        /* \"#utility.yul\":2578:2695   */\n      pop\n        /* \"#utility.yul\":2373:2702   */\n      swap3\n      swap2\n      pop\n      pop\n      jump\t// out\n        /* \"#utility.yul\":2708:2930   */\n    tag_30:\n        /* \"#utility.yul\":2801:2805   */\n      0x00\n        /* \"#utility.yul\":2839:2841   */\n      0x20\n        /* \"#utility.yul\":2828:2837   */\n      dup3\n        /* \"#utility.yul\":2824:2842   */\n      add\n        /* \"#utility.yul\":2816:2842   */\n      swap1\n      pop\n        /* \"#utility.yul\":2852:2923   */\n      tag_264\n        /* \"#utility.yul\":2920:2921   */\n      0x00\n        /* \"#utility.yul\":2909:2918   */\n      dup4\n        /* \"#utility.yul\":2905:2922   */\n      add\n        /* \"#utility.yul\":2896:2902   */\n      dup5\n        /* \"#utility.yul\":2852:2923   */\n      tag_194\n      jump\t// in\n    tag_264:\n        /* \"#utility.yul\":2708:2930   */\n      swap3\n      swap2\n      pop\n      pop\n      jump\t// out\n        /* \"#utility.yul\":2936:3265   */\n    tag_36:\n        /* \"#utility.yul\":2995:3001   */\n      0x00\n        /* \"#utility.yul\":3044:3046   */\n      0x20\n        /* \"#utility.yul\":3032:3041   */\n      dup3\n        /* \"#utility.yul\":3023:3030   */\n      dup5\n        /* \"#utility.yul\":3019:3042   */\n      sub\n        /* \"#utility.yul\":3015:3047   */\n      slt\n        /* \"#utility.yul\":3012:3131   */\n      iszero\n      tag_266\n      jumpi\n        /* \"#utility.yul\":3050:3129   */\n      tag_267\n      tag_185\n      jump\t// in\n    tag_267:\n        /* \"#utility.yul\":3012:3131   */\n    tag_266:\n        /* \"#utility.yul\":3170:3171   */\n      0x00\n        /* \"#utility.yul\":3195:3248   */\n      tag_268\n        /* \"#utility.yul\":3240:3247   */\n      dup5\n        /* \"#utility.yul\":3231:3237   */\n      dup3\n        /* \"#utility.yul\":3220:3229   */\n      dup6\n        /* \"#utility.yul\":3216:3238   */\n      add\n        /* \"#utility.yul\":3195:3248   */\n      tag_190\n      jump\t// in\n    tag_268:\n        /* \"#utility.yul\":3185:3248   */\n      swap2\n      pop\n        /* \"#utility.yul\":3141:3258   */\n      pop\n        /* \"#utility.yul\":2936:3265   */\n      swap3\n      swap2\n      pop\n      pop\n      jump\t// out\n        /* \"#utility.yul\":3271:3493   */\n    tag_42:\n        /* \"#utility.yul\":3364:3368   */\n      0x00\n        /* \"#utility.yul\":3402:3404   */\n      0x20\n        /* \"#utility.yul\":3391:3400   */\n      dup3\n        /* \"#utility.yul\":3387:3405   */\n      add\n        /* \"#utility.yul\":3379:3405   */\n      swap1\n      pop\n        /* \"#utility.yul\":3415:3486   */\n      tag_270\n        /* \"#utility.yul\":3483:3484   */\n      0x00\n        /* \"#utility.yul\":3472:3481   */\n      dup4\n        /* \"#utility.yul\":3468:3485   */\n      add\n        /* \"#utility.yul\":3459:3465   */\n      dup5\n        /* \"#utility.yul\":3415:3486   */\n      tag_195\n      jump\t// in\n    tag_270:\n        /* \"#utility.yul\":3271:3493   */\n      swap3\n      swap2\n      pop\n      pop\n      jump\t// out\n        /* \"#utility.yul\":3499:3633   */\n    tag_196:\n        /* \"#utility.yul\":3586:3592   */\n      0x00\n        /* \"#utility.yul\":3620:3625   */\n      dup2\n        /* \"#utility.yul\":3614:3626   */\n      mload\n        /* \"#utility.yul\":3604:3626   */\n      swap1\n      pop\n        /* \"#utility.yul\":3499:3633   */\n      swap2\n      swap1\n      pop\n      jump\t// out\n        /* \"#utility.yul\":3639:3843   */\n    tag_197:\n        /* \"#utility.yul\":3758:3769   */\n      0x00\n        /* \"#utility.yul\":3792:3798   */\n      dup3\n        /* \"#utility.yul\":3787:3790   */\n      dup3\n        /* \"#utility.yul\":3780:3799   */\n      mstore\n        /* \"#utility.yul\":3832:3836   */\n      0x20\n        /* \"#utility.yul\":3827:3830   */\n      dup3\n        /* \"#utility.yul\":3823:3837   */\n      add\n        /* \"#utility.yul\":3808:3837   */\n      swap1\n      pop\n        /* \"#utility.yul\":3639:3843   */\n      swap3\n      swap2\n      pop\n      pop\n      jump\t// out\n        /* \"#utility.yul\":3849:4001   */\n    tag_198:\n        /* \"#utility.yul\":3936:3940   */\n      0x00\n        /* \"#utility.yul\":3959:3962   */\n      dup2\n        /* \"#utility.yul\":3951:3962   */\n      swap1\n      pop\n        /* \"#utility.yul\":3989:3993   */\n      0x20\n        /* \"#utility.yul\":3984:3987   */\n      dup3\n        /* \"#utility.yul\":3980:3994   */\n      add\n        /* \"#utility.yul\":3972:3994   */\n      swap1\n      pop\n        /* \"#utility.yul\":3849:4001   */\n      swap2\n      swap1\n      pop\n      jump\t// out\n        /* \"#utility.yul\":4007:4115   */\n    tag_199:\n        /* \"#utility.yul\":4084:4108   */\n      tag_275\n        /* \"#utility.yul\":4102:4107   */\n      dup2\n        /* \"#utility.yul\":4084:4108   */\n      tag_191\n      jump\t// in\n    tag_275:\n        /* \"#utility.yul\":4079:4082   */\n      dup3\n        /* \"#utility.yul\":4072:4109   */\n      mstore\n        /* \"#utility.yul\":4007:4115   */\n      pop\n      pop\n      jump\t// out\n        /* \"#utility.yul\":4179:4850   */\n    tag_200:\n        /* \"#utility.yul\":4306:4310   */\n      0x60\n        /* \"#utility.yul\":4301:4304   */\n      dup3\n        /* \"#utility.yul\":4297:4311   */\n      add\n        /* \"#utility.yul\":4396:4400   */\n      0x00\n        /* \"#utility.yul\":4389:4394   */\n      dup3\n        /* \"#utility.yul\":4385:4401   */\n      add\n        /* \"#utility.yul\":4379:4402   */\n      mload\n        /* \"#utility.yul\":4415:4478   */\n      tag_277\n        /* \"#utility.yul\":4472:4476   */\n      0x00\n        /* \"#utility.yul\":4467:4470   */\n      dup6\n        /* \"#utility.yul\":4463:4477   */\n      add\n        /* \"#utility.yul\":4449:4461   */\n      dup3\n        /* \"#utility.yul\":4415:4478   */\n      tag_199\n      jump\t// in\n    tag_277:\n        /* \"#utility.yul\":4321:4488   */\n      pop\n        /* \"#utility.yul\":4572:4576   */\n      0x20\n        /* \"#utility.yul\":4565:4570   */\n      dup3\n        /* \"#utility.yul\":4561:4577   */\n      add\n        /* \"#utility.yul\":4555:4578   */\n      mload\n        /* \"#utility.yul\":4591:4654   */\n      tag_278\n        /* \"#utility.yul\":4648:4652   */\n      0x20\n        /* \"#utility.yul\":4643:4646   */\n      dup6\n        /* \"#utility.yul\":4639:4653   */\n      add\n        /* \"#utility.yul\":4625:4637   */\n      dup3\n        /* \"#utility.yul\":4591:4654   */\n      tag_199\n      jump\t// in\n    tag_278:\n        /* \"#utility.yul\":4498:4664   */\n      pop\n        /* \"#utility.yul\":4751:4755   */\n      0x40\n        /* \"#utility.yul\":4744:4749   */\n      dup3\n        /* \"#utility.yul\":4740:4756   */\n      add\n        /* \"#utility.yul\":4734:4757   */\n      mload\n        /* \"#utility.yul\":4770:4833   */\n      tag_279\n        /* \"#utility.yul\":4827:4831   */\n      0x40\n        /* \"#utility.yul\":4822:4825   */\n      dup6\n        /* \"#utility.yul\":4818:4832   */\n      add\n        /* \"#utility.yul\":4804:4816   */\n      dup3\n        /* \"#utility.yul\":4770:4833   */\n      tag_199\n      jump\t// in\n    tag_279:\n        /* \"#utility.yul\":4674:4843   */\n      pop\n        /* \"#utility.yul\":4275:4850   */\n      pop\n        /* \"#utility.yul\":4179:4850   */\n      pop\n      pop\n      jump\t// out\n        /* \"#utility.yul\":4856:5115   */\n    tag_201:\n        /* \"#utility.yul\":4965:4975   */\n      0x00\n        /* \"#utility.yul\":4986:5072   */\n      tag_281\n        /* \"#utility.yul\":5068:5071   */\n      dup4\n        /* \"#utility.yul\":5060:5066   */\n      dup4\n        /* \"#utility.yul\":4986:5072   */\n      tag_200\n      jump\t// in\n    tag_281:\n        /* \"#utility.yul\":5104:5108   */\n      0x60\n        /* \"#utility.yul\":5099:5102   */\n      dup4\n        /* \"#utility.yul\":5095:5109   */\n      add\n        /* \"#utility.yul\":5081:5109   */\n      swap1\n      pop\n        /* \"#utility.yul\":4856:5115   */\n      swap3\n      swap2\n      pop\n      pop\n      jump\t// out\n        /* \"#utility.yul\":5121:5254   */\n    tag_202:\n        /* \"#utility.yul\":5211:5215   */\n      0x00\n        /* \"#utility.yul\":5243:5247   */\n      0x20\n        /* \"#utility.yul\":5238:5241   */\n      dup3\n        /* \"#utility.yul\":5234:5248   */\n      add\n        /* \"#utility.yul\":5226:5248   */\n      swap1\n      pop\n        /* \"#utility.yul\":5121:5254   */\n      swap2\n      swap1\n      pop\n      jump\t// out\n        /* \"#utility.yul\":5322:6214   */\n    tag_203:\n        /* \"#utility.yul\":5481:5484   */\n      0x00\n        /* \"#utility.yul\":5510:5584   */\n      tag_284\n        /* \"#utility.yul\":5578:5583   */\n      dup3\n        /* \"#utility.yul\":5510:5584   */\n      tag_196\n      jump\t// in\n    tag_284:\n        /* \"#utility.yul\":5600:5706   */\n      tag_285\n        /* \"#utility.yul\":5699:5705   */\n      dup2\n        /* \"#utility.yul\":5694:5697   */\n      dup6\n        /* \"#utility.yul\":5600:5706   */\n      tag_197\n      jump\t// in\n    tag_285:\n        /* \"#utility.yul\":5593:5706   */\n      swap4\n      pop\n        /* \"#utility.yul\":5730:5806   */\n      tag_286\n        /* \"#utility.yul\":5800:5805   */\n      dup4\n        /* \"#utility.yul\":5730:5806   */\n      tag_198\n      jump\t// in\n    tag_286:\n        /* \"#utility.yul\":5829:5836   */\n      dup1\n        /* \"#utility.yul\":5860:5861   */\n      0x00\n        /* \"#utility.yul\":5845:6189   */\n    tag_287:\n        /* \"#utility.yul\":5870:5876   */\n      dup4\n        /* \"#utility.yul\":5867:5868   */\n      dup2\n        /* \"#utility.yul\":5864:5877   */\n      lt\n        /* \"#utility.yul\":5845:6189   */\n      iszero\n      tag_289\n      jumpi\n        /* \"#utility.yul\":5946:5952   */\n      dup2\n        /* \"#utility.yul\":5940:5953   */\n      mload\n        /* \"#utility.yul\":5973:6076   */\n      tag_290\n        /* \"#utility.yul\":6072:6075   */\n      dup9\n        /* \"#utility.yul\":6057:6070   */\n      dup3\n        /* \"#utility.yul\":5973:6076   */\n      tag_201\n      jump\t// in\n    tag_290:\n        /* \"#utility.yul\":5966:6076   */\n      swap8\n      pop\n        /* \"#utility.yul\":6099:6179   */\n      tag_291\n        /* \"#utility.yul\":6172:6178   */\n      dup4\n        /* \"#utility.yul\":6099:6179   */\n      tag_202\n      jump\t// in\n    tag_291:\n        /* \"#utility.yul\":6089:6179   */\n      swap3\n      pop\n        /* \"#utility.yul\":5905:6189   */\n      pop\n        /* \"#utility.yul\":5892:5893   */\n      0x01\n        /* \"#utility.yul\":5889:5890   */\n      dup2\n        /* \"#utility.yul\":5885:5894   */\n      add\n        /* \"#utility.yul\":5880:5894   */\n      swap1\n      pop\n        /* \"#utility.yul\":5845:6189   */\n      jump(tag_287)\n    tag_289:\n        /* \"#utility.yul\":5849:5863   */\n      pop\n        /* \"#utility.yul\":6205:6208   */\n      dup6\n        /* \"#utility.yul\":6198:6208   */\n      swap4\n      pop\n        /* \"#utility.yul\":5486:6214   */\n      pop\n      pop\n      pop\n        /* \"#utility.yul\":5322:6214   */\n      swap3\n      swap2\n      pop\n      pop\n      jump\t// out\n        /* \"#utility.yul\":6220:6673   */\n    tag_48:\n        /* \"#utility.yul\":6403:6407   */\n      0x00\n        /* \"#utility.yul\":6441:6443   */\n      0x20\n        /* \"#utility.yul\":6430:6439   */\n      dup3\n        /* \"#utility.yul\":6426:6444   */\n      add\n        /* \"#utility.yul\":6418:6444   */\n      swap1\n      pop\n        /* \"#utility.yul\":6490:6499   */\n      dup2\n        /* \"#utility.yul\":6484:6488   */\n      dup2\n        /* \"#utility.yul\":6480:6500   */\n      sub\n        /* \"#utility.yul\":6476:6477   */\n      0x00\n        /* \"#utility.yul\":6465:6474   */\n      dup4\n        /* \"#utility.yul\":6461:6478   */\n      add\n        /* \"#utility.yul\":6454:6501   */\n      mstore\n        /* \"#utility.yul\":6518:6666   */\n      tag_293\n        /* \"#utility.yul\":6661:6665   */\n      dup2\n        /* \"#utility.yul\":6652:6658   */\n      dup5\n        /* \"#utility.yul\":6518:6666   */\n      tag_203\n      jump\t// in\n    tag_293:\n        /* \"#utility.yul\":6510:6666   */\n      swap1\n      pop\n        /* \"#utility.yul\":6220:6673   */\n      swap3\n      swap2\n      pop\n      pop\n      jump\t// out\n        /* \"#utility.yul\":6679:6769   */\n    tag_204:\n        /* \"#utility.yul\":6713:6720   */\n      0x00\n        /* \"#utility.yul\":6756:6761   */\n      dup2\n        /* \"#utility.yul\":6749:6762   */\n      iszero\n        /* \"#utility.yul\":6742:6763   */\n      iszero\n        /* \"#utility.yul\":6731:6763   */\n      swap1\n      pop\n        /* \"#utility.yul\":6679:6769   */\n      swap2\n      swap1\n      pop\n      jump\t// out\n        /* \"#utility.yul\":6775:6884   */\n    tag_205:\n        /* \"#utility.yul\":6856:6877   */\n      tag_296\n        /* \"#utility.yul\":6871:6876   */\n      dup2\n        /* \"#utility.yul\":6856:6877   */\n      tag_204\n      jump\t// in\n    tag_296:\n        /* \"#utility.yul\":6851:6854   */\n      dup3\n        /* \"#utility.yul\":6844:6878   */\n      mstore\n        /* \"#utility.yul\":6775:6884   */\n      pop\n      pop\n      jump\t// out\n        /* \"#utility.yul\":6890:7542   */\n    tag_67:\n        /* \"#utility.yul\":7089:7093   */\n      0x00\n        /* \"#utility.yul\":7127:7130   */\n      0xa0\n        /* \"#utility.yul\":7116:7125   */\n      dup3\n        /* \"#utility.yul\":7112:7131   */\n      add\n        /* \"#utility.yul\":7104:7131   */\n      swap1\n      pop\n        /* \"#utility.yul\":7141:7212   */\n      tag_298\n        /* \"#utility.yul\":7209:7210   */\n      0x00\n        /* \"#utility.yul\":7198:7207   */\n      dup4\n        /* \"#utility.yul\":7194:7211   */\n      add\n        /* \"#utility.yul\":7185:7191   */\n      dup9\n        /* \"#utility.yul\":7141:7212   */\n      tag_194\n      jump\t// in\n    tag_298:\n        /* \"#utility.yul\":7222:7288   */\n      tag_299\n        /* \"#utility.yul\":7284:7286   */\n      0x20\n        /* \"#utility.yul\":7273:7282   */\n      dup4\n        /* \"#utility.yul\":7269:7287   */\n      add\n        /* \"#utility.yul\":7260:7266   */\n      dup8\n        /* \"#utility.yul\":7222:7288   */\n      tag_205\n      jump\t// in\n    tag_299:\n        /* \"#utility.yul\":7298:7370   */\n      tag_300\n        /* \"#utility.yul\":7366:7368   */\n      0x40\n        /* \"#utility.yul\":7355:7364   */\n      dup4\n        /* \"#utility.yul\":7351:7369   */\n      add\n        /* \"#utility.yul\":7342:7348   */\n      dup7\n        /* \"#utility.yul\":7298:7370   */\n      tag_195\n      jump\t// in\n    tag_300:\n        /* \"#utility.yul\":7380:7452   */\n      tag_301\n        /* \"#utility.yul\":7448:7450   */\n      0x60\n        /* \"#utility.yul\":7437:7446   */\n      dup4\n        /* \"#utility.yul\":7433:7451   */\n      add\n        /* \"#utility.yul\":7424:7430   */\n      dup6\n        /* \"#utility.yul\":7380:7452   */\n      tag_195\n      jump\t// in\n    tag_301:\n        /* \"#utility.yul\":7462:7535   */\n      tag_302\n        /* \"#utility.yul\":7530:7533   */\n      0x80\n        /* \"#utility.yul\":7519:7528   */\n      dup4\n        /* \"#utility.yul\":7515:7534   */\n      add\n        /* \"#utility.yul\":7506:7512   */\n      dup5\n        /* \"#utility.yul\":7462:7535   */\n      tag_195\n      jump\t// in\n    tag_302:\n        /* \"#utility.yul\":6890:7542   */\n      swap7\n      swap6\n      pop\n      pop\n      pop\n      pop\n      pop\n      pop\n      jump\t// out\n        /* \"#utility.yul\":7548:7634   */\n    tag_206:\n        /* \"#utility.yul\":7583:7590   */\n      0x00\n        /* \"#utility.yul\":7623:7627   */\n      0xff\n        /* \"#utility.yul\":7616:7621   */\n      dup3\n        /* \"#utility.yul\":7612:7628   */\n      and\n        /* \"#utility.yul\":7601:7628   */\n      swap1\n      pop\n        /* \"#utility.yul\":7548:7634   */\n      swap2\n      swap1\n      pop\n      jump\t// out\n        /* \"#utility.yul\":7640:7752   */\n    tag_207:\n        /* \"#utility.yul\":7723:7745   */\n      tag_305\n        /* \"#utility.yul\":7739:7744   */\n      dup2\n        /* \"#utility.yul\":7723:7745   */\n      tag_206\n      jump\t// in\n    tag_305:\n        /* \"#utility.yul\":7718:7721   */\n      dup3\n        /* \"#utility.yul\":7711:7746   */\n      mstore\n        /* \"#utility.yul\":7640:7752   */\n      pop\n      pop\n      jump\t// out\n        /* \"#utility.yul\":7758:7972   */\n    tag_73:\n        /* \"#utility.yul\":7847:7851   */\n      0x00\n        /* \"#utility.yul\":7885:7887   */\n      0x20\n        /* \"#utility.yul\":7874:7883   */\n      dup3\n        /* \"#utility.yul\":7870:7888   */\n      add\n        /* \"#utility.yul\":7862:7888   */\n      swap1\n      pop\n        /* \"#utility.yul\":7898:7965   */\n      tag_307\n        /* \"#utility.yul\":7962:7963   */\n      0x00\n        /* \"#utility.yul\":7951:7960   */\n      dup4\n        /* \"#utility.yul\":7947:7964   */\n      add\n        /* \"#utility.yul\":7938:7944   */\n      dup5\n        /* \"#utility.yul\":7898:7965   */\n      tag_207\n      jump\t// in\n    tag_307:\n        /* \"#utility.yul\":7758:7972   */\n      swap3\n      swap2\n      pop\n      pop\n      jump\t// out\n        /* \"#utility.yul\":7978:8123   */\n    tag_208:\n        /* \"#utility.yul\":8076:8082   */\n      0x00\n        /* \"#utility.yul\":8110:8115   */\n      dup2\n        /* \"#utility.yul\":8104:8116   */\n      mload\n        /* \"#utility.yul\":8094:8116   */\n      swap1\n      pop\n        /* \"#utility.yul\":7978:8123   */\n      swap2\n      swap1\n      pop\n      jump\t// out\n        /* \"#utility.yul\":8129:8344   */\n    tag_209:\n        /* \"#utility.yul\":8259:8270   */\n      0x00\n        /* \"#utility.yul\":8293:8299   */\n      dup3\n        /* \"#utility.yul\":8288:8291   */\n      dup3\n        /* \"#utility.yul\":8281:8300   */\n      mstore\n        /* \"#utility.yul\":8333:8337   */\n      0x20\n        /* \"#utility.yul\":8328:8331   */\n      dup3\n        /* \"#utility.yul\":8324:8338   */\n      add\n        /* \"#utility.yul\":8309:8338   */\n      swap1\n      pop\n        /* \"#utility.yul\":8129:8344   */\n      swap3\n      swap2\n      pop\n      pop\n      jump\t// out\n        /* \"#utility.yul\":8350:8513   */\n    tag_210:\n        /* \"#utility.yul\":8448:8452   */\n      0x00\n        /* \"#utility.yul\":8471:8474   */\n      dup2\n        /* \"#utility.yul\":8463:8474   */\n      swap1\n      pop\n        /* \"#utility.yul\":8501:8505   */\n      0x20\n        /* \"#utility.yul\":8496:8499   */\n      dup3\n        /* \"#utility.yul\":8492:8506   */\n      add\n        /* \"#utility.yul\":8484:8506   */\n      swap1\n      pop\n        /* \"#utility.yul\":8350:8513   */\n      swap2\n      swap1\n      pop\n      jump\t// out\n        /* \"#utility.yul\":8519:8627   */\n    tag_211:\n        /* \"#utility.yul\":8596:8620   */\n      tag_312\n        /* \"#utility.yul\":8614:8619   */\n      dup2\n        /* \"#utility.yul\":8596:8620   */\n      tag_188\n      jump\t// in\n    tag_312:\n        /* \"#utility.yul\":8591:8594   */\n      dup3\n        /* \"#utility.yul\":8584:8621   */\n      mstore\n        /* \"#utility.yul\":8519:8627   */\n      pop\n      pop\n      jump\t// out\n        /* \"#utility.yul\":8633:8735   */\n    tag_212:\n        /* \"#utility.yul\":8706:8728   */\n      tag_314\n        /* \"#utility.yul\":8722:8727   */\n      dup2\n        /* \"#utility.yul\":8706:8728   */\n      tag_206\n      jump\t// in\n    tag_314:\n        /* \"#utility.yul\":8701:8704   */\n      dup3\n        /* \"#utility.yul\":8694:8729   */\n      mstore\n        /* \"#utility.yul\":8633:8735   */\n      pop\n      pop\n      jump\t// out\n        /* \"#utility.yul\":8819:10240   */\n    tag_213:\n        /* \"#utility.yul\":8968:8972   */\n      0xe0\n        /* \"#utility.yul\":8963:8966   */\n      dup3\n        /* \"#utility.yul\":8959:8973   */\n      add\n        /* \"#utility.yul\":9066:9070   */\n      0x00\n        /* \"#utility.yul\":9059:9064   */\n      dup3\n        /* \"#utility.yul\":9055:9071   */\n      add\n        /* \"#utility.yul\":9049:9072   */\n      mload\n        /* \"#utility.yul\":9085:9148   */\n      tag_316\n        /* \"#utility.yul\":9142:9146   */\n      0x00\n        /* \"#utility.yul\":9137:9140   */\n      dup6\n        /* \"#utility.yul\":9133:9147   */\n      add\n        /* \"#utility.yul\":9119:9131   */\n      dup3\n        /* \"#utility.yul\":9085:9148   */\n      tag_211\n      jump\t// in\n    tag_316:\n        /* \"#utility.yul\":8983:9158   */\n      pop\n        /* \"#utility.yul\":9243:9247   */\n      0x20\n        /* \"#utility.yul\":9236:9241   */\n      dup3\n        /* \"#utility.yul\":9232:9248   */\n      add\n        /* \"#utility.yul\":9226:9249   */\n      mload\n        /* \"#utility.yul\":9262:9325   */\n      tag_317\n        /* \"#utility.yul\":9319:9323   */\n      0x20\n        /* \"#utility.yul\":9314:9317   */\n      dup6\n        /* \"#utility.yul\":9310:9324   */\n      add\n        /* \"#utility.yul\":9296:9308   */\n      dup3\n        /* \"#utility.yul\":9262:9325   */\n      tag_199\n      jump\t// in\n    tag_317:\n        /* \"#utility.yul\":9168:9335   */\n      pop\n        /* \"#utility.yul\":9424:9428   */\n      0x40\n        /* \"#utility.yul\":9417:9422   */\n      dup3\n        /* \"#utility.yul\":9413:9429   */\n      add\n        /* \"#utility.yul\":9407:9430   */\n      mload\n        /* \"#utility.yul\":9443:9506   */\n      tag_318\n        /* \"#utility.yul\":9500:9504   */\n      0x40\n        /* \"#utility.yul\":9495:9498   */\n      dup6\n        /* \"#utility.yul\":9491:9505   */\n      add\n        /* \"#utility.yul\":9477:9489   */\n      dup3\n        /* \"#utility.yul\":9443:9506   */\n      tag_199\n      jump\t// in\n    tag_318:\n        /* \"#utility.yul\":9345:9516   */\n      pop\n        /* \"#utility.yul\":9608:9612   */\n      0x60\n        /* \"#utility.yul\":9601:9606   */\n      dup3\n        /* \"#utility.yul\":9597:9613   */\n      add\n        /* \"#utility.yul\":9591:9614   */\n      mload\n        /* \"#utility.yul\":9627:9690   */\n      tag_319\n        /* \"#utility.yul\":9684:9688   */\n      0x60\n        /* \"#utility.yul\":9679:9682   */\n      dup6\n        /* \"#utility.yul\":9675:9689   */\n      add\n        /* \"#utility.yul\":9661:9673   */\n      dup3\n        /* \"#utility.yul\":9627:9690   */\n      tag_199\n      jump\t// in\n    tag_319:\n        /* \"#utility.yul\":9526:9700   */\n      pop\n        /* \"#utility.yul\":9791:9795   */\n      0x80\n        /* \"#utility.yul\":9784:9789   */\n      dup3\n        /* \"#utility.yul\":9780:9796   */\n      add\n        /* \"#utility.yul\":9774:9797   */\n      mload\n        /* \"#utility.yul\":9810:9873   */\n      tag_320\n        /* \"#utility.yul\":9867:9871   */\n      0x80\n        /* \"#utility.yul\":9862:9865   */\n      dup6\n        /* \"#utility.yul\":9858:9872   */\n      add\n        /* \"#utility.yul\":9844:9856   */\n      dup3\n        /* \"#utility.yul\":9810:9873   */\n      tag_211\n      jump\t// in\n    tag_320:\n        /* \"#utility.yul\":9710:9883   */\n      pop\n        /* \"#utility.yul\":9970:9974   */\n      0xa0\n        /* \"#utility.yul\":9963:9968   */\n      dup3\n        /* \"#utility.yul\":9959:9975   */\n      add\n        /* \"#utility.yul\":9953:9976   */\n      mload\n        /* \"#utility.yul\":9989:10052   */\n      tag_321\n        /* \"#utility.yul\":10046:10050   */\n      0xa0\n        /* \"#utility.yul\":10041:10044   */\n      dup6\n        /* \"#utility.yul\":10037:10051   */\n      add\n        /* \"#utility.yul\":10023:10035   */\n      dup3\n        /* \"#utility.yul\":9989:10052   */\n      tag_199\n      jump\t// in\n    tag_321:\n        /* \"#utility.yul\":9893:10062   */\n      pop\n        /* \"#utility.yul\":10145:10149   */\n      0xc0\n        /* \"#utility.yul\":10138:10143   */\n      dup3\n        /* \"#utility.yul\":10134:10150   */\n      add\n        /* \"#utility.yul\":10128:10151   */\n      mload\n        /* \"#utility.yul\":10164:10223   */\n      tag_322\n        /* \"#utility.yul\":10217:10221   */\n      0xc0\n        /* \"#utility.yul\":10212:10215   */\n      dup6\n        /* \"#utility.yul\":10208:10222   */\n      add\n        /* \"#utility.yul\":10194:10206   */\n      dup3\n        /* \"#utility.yul\":10164:10223   */\n      tag_212\n      jump\t// in\n    tag_322:\n        /* \"#utility.yul\":10072:10233   */\n      pop\n        /* \"#utility.yul\":8937:10240   */\n      pop\n        /* \"#utility.yul\":8819:10240   */\n      pop\n      pop\n      jump\t// out\n        /* \"#utility.yul\":10246:10549   */\n    tag_214:\n        /* \"#utility.yul\":10377:10387   */\n      0x00\n        /* \"#utility.yul\":10398:10506   */\n      tag_324\n        /* \"#utility.yul\":10502:10505   */\n      dup4\n        /* \"#utility.yul\":10494:10500   */\n      dup4\n        /* \"#utility.yul\":10398:10506   */\n      tag_213\n      jump\t// in\n    tag_324:\n        /* \"#utility.yul\":10538:10542   */\n      0xe0\n        /* \"#utility.yul\":10533:10536   */\n      dup4\n        /* \"#utility.yul\":10529:10543   */\n      add\n        /* \"#utility.yul\":10515:10543   */\n      swap1\n      pop\n        /* \"#utility.yul\":10246:10549   */\n      swap3\n      swap2\n      pop\n      pop\n      jump\t// out\n        /* \"#utility.yul\":10555:10699   */\n    tag_215:\n        /* \"#utility.yul\":10656:10660   */\n      0x00\n        /* \"#utility.yul\":10688:10692   */\n      0x20\n        /* \"#utility.yul\":10683:10686   */\n      dup3\n        /* \"#utility.yul\":10679:10693   */\n      add\n        /* \"#utility.yul\":10671:10693   */\n      swap1\n      pop\n        /* \"#utility.yul\":10555:10699   */\n      swap2\n      swap1\n      pop\n      jump\t// out\n        /* \"#utility.yul\":10787:11767   */\n    tag_216:\n        /* \"#utility.yul\":10968:10971   */\n      0x00\n        /* \"#utility.yul\":10997:11082   */\n      tag_327\n        /* \"#utility.yul\":11076:11081   */\n      dup3\n        /* \"#utility.yul\":10997:11082   */\n      tag_208\n      jump\t// in\n    tag_327:\n        /* \"#utility.yul\":11098:11215   */\n      tag_328\n        /* \"#utility.yul\":11208:11214   */\n      dup2\n        /* \"#utility.yul\":11203:11206   */\n      dup6\n        /* \"#utility.yul\":11098:11215   */\n      tag_209\n      jump\t// in\n    tag_328:\n        /* \"#utility.yul\":11091:11215   */\n      swap4\n      pop\n        /* \"#utility.yul\":11239:11326   */\n      tag_329\n        /* \"#utility.yul\":11320:11325   */\n      dup4\n        /* \"#utility.yul\":11239:11326   */\n      tag_210\n      jump\t// in\n    tag_329:\n        /* \"#utility.yul\":11349:11356   */\n      dup1\n        /* \"#utility.yul\":11380:11381   */\n      0x00\n        /* \"#utility.yul\":11365:11742   */\n    tag_330:\n        /* \"#utility.yul\":11390:11396   */\n      dup4\n        /* \"#utility.yul\":11387:11388   */\n      dup2\n        /* \"#utility.yul\":11384:11397   */\n      lt\n        /* \"#utility.yul\":11365:11742   */\n      iszero\n      tag_332\n      jumpi\n        /* \"#utility.yul\":11466:11472   */\n      dup2\n        /* \"#utility.yul\":11460:11473   */\n      mload\n        /* \"#utility.yul\":11493:11618   */\n      tag_333\n        /* \"#utility.yul\":11614:11617   */\n      dup9\n        /* \"#utility.yul\":11599:11612   */\n      dup3\n        /* \"#utility.yul\":11493:11618   */\n      tag_214\n      jump\t// in\n    tag_333:\n        /* \"#utility.yul\":11486:11618   */\n      swap8\n      pop\n        /* \"#utility.yul\":11641:11732   */\n      tag_334\n        /* \"#utility.yul\":11725:11731   */\n      dup4\n        /* \"#utility.yul\":11641:11732   */\n      tag_215\n      jump\t// in\n    tag_334:\n        /* \"#utility.yul\":11631:11732   */\n      swap3\n      pop\n        /* \"#utility.yul\":11425:11742   */\n      pop\n        /* \"#utility.yul\":11412:11413   */\n      0x01\n        /* \"#utility.yul\":11409:11410   */\n      dup2\n        /* \"#utility.yul\":11405:11414   */\n      add\n        /* \"#utility.yul\":11400:11414   */\n      swap1\n      pop\n        /* \"#utility.yul\":11365:11742   */\n      jump(tag_330)\n    tag_332:\n        /* \"#utility.yul\":11369:11383   */\n      pop\n        /* \"#utility.yul\":11758:11761   */\n      dup6\n        /* \"#utility.yul\":11751:11761   */\n      swap4\n      pop\n        /* \"#utility.yul\":10973:11767   */\n      pop\n      pop\n      pop\n        /* \"#utility.yul\":10787:11767   */\n      swap3\n      swap2\n      pop\n      pop\n      jump\t// out\n        /* \"#utility.yul\":11773:12270   */\n    tag_79:\n        /* \"#utility.yul\":11978:11982   */\n      0x00\n        /* \"#utility.yul\":12016:12018   */\n      0x20\n        /* \"#utility.yul\":12005:12014   */\n      dup3\n        /* \"#utility.yul\":12001:12019   */\n      add\n        /* \"#utility.yul\":11993:12019   */\n      swap1\n      pop\n        /* \"#utility.yul\":12065:12074   */\n      dup2\n        /* \"#utility.yul\":12059:12063   */\n      dup2\n        /* \"#utility.yul\":12055:12075   */\n      sub\n        /* \"#utility.yul\":12051:12052   */\n      0x00\n        /* \"#utility.yul\":12040:12049   */\n      dup4\n        /* \"#utility.yul\":12036:12053   */\n      add\n        /* \"#utility.yul\":12029:12076   */\n      mstore\n        /* \"#utility.yul\":12093:12263   */\n      tag_336\n        /* \"#utility.yul\":12258:12262   */\n      dup2\n        /* \"#utility.yul\":12249:12255   */\n      dup5\n        /* \"#utility.yul\":12093:12263   */\n      tag_216\n      jump\t// in\n    tag_336:\n        /* \"#utility.yul\":12085:12263   */\n      swap1\n      pop\n        /* \"#utility.yul\":11773:12270   */\n      swap3\n      swap2\n      pop\n      pop\n      jump\t// out\n        /* \"#utility.yul\":12276:12445   */\n    tag_217:\n        /* \"#utility.yul\":12360:12371   */\n      0x00\n        /* \"#utility.yul\":12394:12400   */\n      dup3\n        /* \"#utility.yul\":12389:12392   */\n      dup3\n        /* \"#utility.yul\":12382:12401   */\n      mstore\n        /* \"#utility.yul\":12434:12438   */\n      0x20\n        /* \"#utility.yul\":12429:12432   */\n      dup3\n        /* \"#utility.yul\":12425:12439   */\n      add\n        /* \"#utility.yul\":12410:12439   */\n      swap1\n      pop\n        /* \"#utility.yul\":12276:12445   */\n      swap3\n      swap2\n      pop\n      pop\n      jump\t// out\n        /* \"#utility.yul\":12451:12622   */\n    tag_218:\n        /* \"#utility.yul\":12591:12614   */\n      0x5374616b6520616d6f756e742072657175697265640000000000000000000000\n        /* \"#utility.yul\":12587:12588   */\n      0x00\n        /* \"#utility.yul\":12579:12585   */\n      dup3\n        /* \"#utility.yul\":12575:12589   */\n      add\n        /* \"#utility.yul\":12568:12615   */\n      mstore\n        /* \"#utility.yul\":12451:12622   */\n      pop\n      jump\t// out\n        /* \"#utility.yul\":12628:12994   */\n    tag_219:\n        /* \"#utility.yul\":12770:12773   */\n      0x00\n        /* \"#utility.yul\":12791:12858   */\n      tag_340\n        /* \"#utility.yul\":12855:12857   */\n      0x15\n        /* \"#utility.yul\":12850:12853   */\n      dup4\n        /* \"#utility.yul\":12791:12858   */\n      tag_217\n      jump\t// in\n    tag_340:\n        /* \"#utility.yul\":12784:12858   */\n      swap2\n      pop\n        /* \"#utility.yul\":12867:12960   */\n      tag_341\n        /* \"#utility.yul\":12956:12959   */\n      dup3\n        /* \"#utility.yul\":12867:12960   */\n      tag_218\n      jump\t// in\n    tag_341:\n        /* \"#utility.yul\":12985:12987   */\n      0x20\n        /* \"#utility.yul\":12980:12983   */\n      dup3\n        /* \"#utility.yul\":12976:12988   */\n      add\n        /* \"#utility.yul\":12969:12988   */\n      swap1\n      pop\n        /* \"#utility.yul\":12628:12994   */\n      swap2\n      swap1\n      pop\n      jump\t// out\n        /* \"#utility.yul\":13000:13419   */\n    tag_89:\n        /* \"#utility.yul\":13166:13170   */\n      0x00\n        /* \"#utility.yul\":13204:13206   */\n      0x20\n        /* \"#utility.yul\":13193:13202   */\n      dup3\n        /* \"#utility.yul\":13189:13207   */\n      add\n        /* \"#utility.yul\":13181:13207   */\n      swap1\n      pop\n        /* \"#utility.yul\":13253:13262   */\n      dup2\n        /* \"#utility.yul\":13247:13251   */\n      dup2\n        /* \"#utility.yul\":13243:13263   */\n      sub\n        /* \"#utility.yul\":13239:13240   */\n      0x00\n        /* \"#utility.yul\":13228:13237   */\n      dup4\n        /* \"#utility.yul\":13224:13241   */\n      add\n        /* \"#utility.yul\":13217:13264   */\n      mstore\n        /* \"#utility.yul\":13281:13412   */\n      tag_343\n        /* \"#utility.yul\":13407:13411   */\n      dup2\n        /* \"#utility.yul\":13281:13412   */\n      tag_219\n      jump\t// in\n    tag_343:\n        /* \"#utility.yul\":13273:13412   */\n      swap1\n      pop\n        /* \"#utility.yul\":13000:13419   */\n      swap2\n      swap1\n      pop\n      jump\t// out\n        /* \"#utility.yul\":13425:13589   */\n    tag_220:\n        /* \"#utility.yul\":13565:13581   */\n      0x5265676973746572206669727374000000000000000000000000000000000000\n        /* \"#utility.yul\":13561:13562   */\n      0x00\n        /* \"#utility.yul\":13553:13559   */\n      dup3\n        /* \"#utility.yul\":13549:13563   */\n      add\n        /* \"#utility.yul\":13542:13582   */\n      mstore\n        /* \"#utility.yul\":13425:13589   */\n      pop\n      jump\t// out\n        /* \"#utility.yul\":13595:13961   */\n    tag_221:\n        /* \"#utility.yul\":13737:13740   */\n      0x00\n        /* \"#utility.yul\":13758:13825   */\n      tag_346\n        /* \"#utility.yul\":13822:13824   */\n      0x0e\n        /* \"#utility.yul\":13817:13820   */\n      dup4\n        /* \"#utility.yul\":13758:13825   */\n      tag_217\n      jump\t// in\n    tag_346:\n        /* \"#utility.yul\":13751:13825   */\n      swap2\n      pop\n        /* \"#utility.yul\":13834:13927   */\n      tag_347\n        /* \"#utility.yul\":13923:13926   */\n      dup3\n        /* \"#utility.yul\":13834:13927   */\n      tag_220\n      jump\t// in\n    tag_347:\n        /* \"#utility.yul\":13952:13954   */\n      0x20\n        /* \"#utility.yul\":13947:13950   */\n      dup3\n        /* \"#utility.yul\":13943:13955   */\n      add\n        /* \"#utility.yul\":13936:13955   */\n      swap1\n      pop\n        /* \"#utility.yul\":13595:13961   */\n      swap2\n      swap1\n      pop\n      jump\t// out\n        /* \"#utility.yul\":13967:14386   */\n    tag_92:\n        /* \"#utility.yul\":14133:14137   */\n      0x00\n        /* \"#utility.yul\":14171:14173   */\n      0x20\n        /* \"#utility.yul\":14160:14169   */\n      dup3\n        /* \"#utility.yul\":14156:14174   */\n      add\n        /* \"#utility.yul\":14148:14174   */\n      swap1\n      pop\n        /* \"#utility.yul\":14220:14229   */\n      dup2\n        /* \"#utility.yul\":14214:14218   */\n      dup2\n        /* \"#utility.yul\":14210:14230   */\n      sub\n        /* \"#utility.yul\":14206:14207   */\n      0x00\n        /* \"#utility.yul\":14195:14204   */\n      dup4\n        /* \"#utility.yul\":14191:14208   */\n      add\n        /* \"#utility.yul\":14184:14231   */\n      mstore\n        /* \"#utility.yul\":14248:14379   */\n      tag_349\n        /* \"#utility.yul\":14374:14378   */\n      dup2\n        /* \"#utility.yul\":14248:14379   */\n      tag_221\n      jump\t// in\n    tag_349:\n        /* \"#utility.yul\":14240:14379   */\n      swap1\n      pop\n        /* \"#utility.yul\":13967:14386   */\n      swap2\n      swap1\n      pop\n      jump\t// out\n        /* \"#utility.yul\":14392:14572   */\n    tag_222:\n        /* \"#utility.yul\":14440:14517   */\n      0x4e487b7100000000000000000000000000000000000000000000000000000000\n        /* \"#utility.yul\":14437:14438   */\n      0x00\n        /* \"#utility.yul\":14430:14518   */\n      mstore\n        /* \"#utility.yul\":14537:14541   */\n      0x11\n        /* \"#utility.yul\":14534:14535   */\n      0x04\n        /* \"#utility.yul\":14527:14542   */\n      mstore\n        /* \"#utility.yul\":14561:14565   */\n      0x24\n        /* \"#utility.yul\":14558:14559   */\n      0x00\n        /* \"#utility.yul\":14551:14566   */\n      revert\n        /* \"#utility.yul\":14578:14811   */\n    tag_94:\n        /* \"#utility.yul\":14617:14620   */\n      0x00\n        /* \"#utility.yul\":14640:14664   */\n      tag_352\n        /* \"#utility.yul\":14658:14663   */\n      dup3\n        /* \"#utility.yul\":14640:14664   */\n      tag_191\n      jump\t// in\n    tag_352:\n        /* \"#utility.yul\":14631:14664   */\n      swap2\n      pop\n        /* \"#utility.yul\":14686:14752   */\n      0xffffffffffffffffffffffffffffffffffffffffffffffffffffffffffffffff\n        /* \"#utility.yul\":14679:14684   */\n      dup3\n        /* \"#utility.yul\":14676:14753   */\n      sub\n        /* \"#utility.yul\":14673:14776   */\n      tag_353\n      jumpi\n        /* \"#utility.yul\":14756:14774   */\n      tag_354\n      tag_222\n      jump\t// in\n    tag_354:\n        /* \"#utility.yul\":14673:14776   */\n    tag_353:\n        /* \"#utility.yul\":14803:14804   */\n      0x01\n        /* \"#utility.yul\":14796:14801   */\n      dup3\n        /* \"#utility.yul\":14792:14805   */\n      add\n        /* \"#utility.yul\":14785:14805   */\n      swap1\n      pop\n        /* \"#utility.yul\":14578:14811   */\n      swap2\n      swap1\n      pop\n      jump\t// out\n        /* \"#utility.yul\":14817:14997   */\n    tag_102:\n        /* \"#utility.yul\":14865:14942   */\n      0x4e487b7100000000000000000000000000000000000000000000000000000000\n        /* \"#utility.yul\":14862:14863   */\n      0x00\n        /* \"#utility.yul\":14855:14943   */\n      mstore\n        /* \"#utility.yul\":14962:14966   */\n      0x32\n        /* \"#utility.yul\":14959:14960   */\n      0x04\n        /* \"#utility.yul\":14952:14967   */\n      mstore\n        /* \"#utility.yul\":14986:14990   */\n      0x24\n        /* \"#utility.yul\":14983:14984   */\n      0x00\n        /* \"#utility.yul\":14976:14991   */\n      revert\n        /* \"#utility.yul\":15003:15413   */\n    tag_105:\n        /* \"#utility.yul\":15043:15050   */\n      0x00\n        /* \"#utility.yul\":15066:15086   */\n      tag_357\n        /* \"#utility.yul\":15084:15085   */\n      dup3\n        /* \"#utility.yul\":15066:15086   */\n      tag_191\n      jump\t// in\n    tag_357:\n        /* \"#utility.yul\":15061:15086   */\n      swap2\n      pop\n        /* \"#utility.yul\":15100:15120   */\n      tag_358\n        /* \"#utility.yul\":15118:15119   */\n      dup4\n        /* \"#utility.yul\":15100:15120   */\n      tag_191\n      jump\t// in\n    tag_358:\n        /* \"#utility.yul\":15095:15120   */\n      swap3\n      pop\n        /* \"#utility.yul\":15155:15156   */\n      dup3\n        /* \"#utility.yul\":15152:15153   */\n      dup3\n        /* \"#utility.yul\":15148:15157   */\n      mul\n        /* \"#utility.yul\":15177:15207   */\n      tag_359\n        /* \"#utility.yul\":15195:15206   */\n      dup2\n        /* \"#utility.yul\":15177:15207   */\n      tag_191\n      jump\t// in\n    tag_359:\n        /* \"#utility.yul\":15166:15207   */\n      swap2\n      pop\n        /* \"#utility.yul\":15356:15357   */\n      dup3\n        /* \"#utility.yul\":15347:15354   */\n      dup3\n        /* \"#utility.yul\":15343:15358   */\n      div\n        /* \"#utility.yul\":15340:15341   */\n      dup5\n        /* \"#utility.yul\":15337:15359   */\n      eq\n        /* \"#utility.yul\":15317:15318   */\n      dup4\n        /* \"#utility.yul\":15310:15319   */\n      iszero\n        /* \"#utility.yul\":15290:15373   */\n      or\n        /* \"#utility.yul\":15267:15406   */\n      tag_360\n      jumpi\n        /* \"#utility.yul\":15386:15404   */\n      tag_361\n      tag_222\n      jump\t// in\n    tag_361:\n        /* \"#utility.yul\":15267:15406   */\n    tag_360:\n        /* \"#utility.yul\":15051:15413   */\n      pop\n        /* \"#utility.yul\":15003:15413   */\n      swap3\n      swap2\n      pop\n      pop\n      jump\t// out\n        /* \"#utility.yul\":15419:15599   */\n    tag_223:\n        /* \"#utility.yul\":15467:15544   */\n      0x4e487b7100000000000000000000000000000000000000000000000000000000\n        /* \"#utility.yul\":15464:15465   */\n      0x00\n        /* \"#utility.yul\":15457:15545   */\n      mstore\n        /* \"#utility.yul\":15564:15568   */\n      0x12\n        /* \"#utility.yul\":15561:15562   */\n      0x04\n        /* \"#utility.yul\":15554:15569   */\n      mstore\n        /* \"#utility.yul\":15588:15592   */\n      0x24\n        /* \"#utility.yul\":15585:15586   */\n      0x00\n        /* \"#utility.yul\":15578:15593   */\n      revert\n        /* \"#utility.yul\":15605:15790   */\n    tag_107:\n        /* \"#utility.yul\":15645:15646   */\n      0x00\n        /* \"#utility.yul\":15662:15682   */\n      tag_364\n        /* \"#utility.yul\":15680:15681   */\n      dup3\n        /* \"#utility.yul\":15662:15682   */\n      tag_191\n      jump\t// in\n    tag_364:\n        /* \"#utility.yul\":15657:15682   */\n      swap2\n      pop\n        /* \"#utility.yul\":15696:15716   */\n      tag_365\n        /* \"#utility.yul\":15714:15715   */\n      dup4\n        /* \"#utility.yul\":15696:15716   */\n      tag_191\n      jump\t// in\n    tag_365:\n        /* \"#utility.yul\":15691:15716   */\n      swap3\n      pop\n        /* \"#utility.yul\":15735:15736   */\n      dup3\n        /* \"#utility.yul\":15725:15760   */\n      tag_366\n      jumpi\n        /* \"#utility.yul\":15740:15758   */\n      tag_367\n      tag_223\n      jump\t// in\n    tag_367:\n        /* \"#utility.yul\":15725:15760   */\n    tag_366:\n        /* \"#utility.yul\":15782:15783   */\n      dup3\n        /* \"#utility.yul\":15779:15780   */\n      dup3\n        /* \"#utility.yul\":15775:15784   */\n      div\n        /* \"#utility.yul\":15770:15784   */\n      swap1\n      pop\n        /* \"#utility.yul\":15605:15790   */\n      swap3\n      swap2\n      pop\n      pop\n      jump\t// out\n        /* \"#utility.yul\":15796:15963   */\n    tag_111:\n        /* \"#utility.yul\":15833:15836   */\n      0x00\n        /* \"#utility.yul\":15856:15878   */\n      tag_369\n        /* \"#utility.yul\":15872:15877   */\n      dup3\n        /* \"#utility.yul\":15856:15878   */\n      tag_206\n      jump\t// in\n    tag_369:\n        /* \"#utility.yul\":15847:15878   */\n      swap2\n      pop\n        /* \"#utility.yul\":15900:15904   */\n      0xff\n        /* \"#utility.yul\":15893:15898   */\n      dup3\n        /* \"#utility.yul\":15890:15905   */\n      sub\n        /* \"#utility.yul\":15887:15928   */\n      tag_370\n      jumpi\n        /* \"#utility.yul\":15908:15926   */\n      tag_371\n      tag_222\n      jump\t// in\n    tag_371:\n        /* \"#utility.yul\":15887:15928   */\n    tag_370:\n        /* \"#utility.yul\":15955:15956   */\n      0x01\n        /* \"#utility.yul\":15948:15953   */\n      dup3\n        /* \"#utility.yul\":15944:15957   */\n      add\n        /* \"#utility.yul\":15937:15957   */\n      swap1\n      pop\n        /* \"#utility.yul\":15796:15963   */\n      swap2\n      swap1\n      pop\n      jump\t// out\n        /* \"#utility.yul\":15969:16137   */\n    tag_224:\n        /* \"#utility.yul\":16109:16129   */\n      0x416c726561647920726567697374657265640000000000000000000000000000\n        /* \"#utility.yul\":16105:16106   */\n      0x00\n        /* \"#utility.yul\":16097:16103   */\n      dup3\n        /* \"#utility.yul\":16093:16107   */\n      add\n        /* \"#utility.yul\":16086:16130   */\n      mstore\n        /* \"#utility.yul\":15969:16137   */\n      pop\n      jump\t// out\n        /* \"#utility.yul\":16143:16509   */\n    tag_225:\n        /* \"#utility.yul\":16285:16288   */\n      0x00\n        /* \"#utility.yul\":16306:16373   */\n      tag_374\n        /* \"#utility.yul\":16370:16372   */\n      0x12\n        /* \"#utility.yul\":16365:16368   */\n      dup4\n        /* \"#utility.yul\":16306:16373   */\n      tag_217\n      jump\t// in\n    tag_374:\n        /* \"#utility.yul\":16299:16373   */\n      swap2\n      pop\n        /* \"#utility.yul\":16382:16475   */\n      tag_375\n        /* \"#utility.yul\":16471:16474   */\n      dup3\n        /* \"#utility.yul\":16382:16475   */\n      tag_224\n      jump\t// in\n    tag_375:\n        /* \"#utility.yul\":16500:16502   */\n      0x20\n        /* \"#utility.yul\":16495:16498   */\n      dup3\n        /* \"#utility.yul\":16491:16503   */\n      add\n        /* \"#utility.yul\":16484:16503   */\n      swap1\n      pop\n        /* \"#utility.yul\":16143:16509   */\n      swap2\n      swap1\n      pop\n      jump\t// out\n        /* \"#utility.yul\":16515:16934   */\n    tag_115:\n        /* \"#utility.yul\":16681:16685   */\n      0x00\n        /* \"#utility.yul\":16719:16721   */\n      0x20\n        /* \"#utility.yul\":16708:16717   */\n      dup3\n        /* \"#utility.yul\":16704:16722   */\n      add\n        /* \"#utility.yul\":16696:16722   */\n      swap1\n      pop\n        /* \"#utility.yul\":16768:16777   */\n      dup2\n        /* \"#utility.yul\":16762:16766   */\n      dup2\n        /* \"#utility.yul\":16758:16778   */\n      sub\n        /* \"#utility.yul\":16754:16755   */\n      0x00\n        /* \"#utility.yul\":16743:16752   */\n      dup4\n        /* \"#utility.yul\":16739:16756   */\n      add\n        /* \"#utility.yul\":16732:16779   */\n      mstore\n        /* \"#utility.yul\":16796:16927   */\n      tag_377\n        /* \"#utility.yul\":16922:16926   */\n      dup2\n        /* \"#utility.yul\":16796:16927   */\n      tag_225\n      jump\t// in\n    tag_377:\n        /* \"#utility.yul\":16788:16927   */\n      swap1\n      pop\n        /* \"#utility.yul\":16515:16934   */\n      swap2\n      swap1\n      pop\n      jump\t// out\n        /* \"#utility.yul\":16940:17110   */\n    tag_226:\n        /* \"#utility.yul\":17080:17102   */\n      0x43616e277420726566657220796f757273656c66000000000000000000000000\n        /* \"#utility.yul\":17076:17077   */\n      0x00\n        /* \"#utility.yul\":17068:17074   */\n      dup3\n        /* \"#utility.yul\":17064:17078   */\n      add\n        /* \"#utility.yul\":17057:17103   */\n      mstore\n        /* \"#utility.yul\":16940:17110   */\n      pop\n      jump\t// out\n        /* \"#utility.yul\":17116:17482   */\n    tag_227:\n        /* \"#utility.yul\":17258:17261   */\n      0x00\n        /* \"#utility.yul\":17279:17346   */\n      tag_380\n        /* \"#utility.yul\":17343:17345   */\n      0x14\n        /* \"#utility.yul\":17338:17341   */\n      dup4\n        /* \"#utility.yul\":17279:17346   */\n      tag_217\n      jump\t// in\n    tag_380:\n        /* \"#utility.yul\":17272:17346   */\n      swap2\n      pop\n        /* \"#utility.yul\":17355:17448   */\n      tag_381\n        /* \"#utility.yul\":17444:17447   */\n      dup3\n        /* \"#utility.yul\":17355:17448   */\n      tag_226\n      jump\t// in\n    tag_381:\n        /* \"#utility.yul\":17473:17475   */\n      0x20\n        /* \"#utility.yul\":17468:17471   */\n      dup3\n        /* \"#utility.yul\":17464:17476   */\n      add\n        /* \"#utility.yul\":17457:17476   */\n      swap1\n      pop\n        /* \"#utility.yul\":17116:17482   */\n      swap2\n      swap1\n      pop\n      jump\t// out\n        /* \"#utility.yul\":17488:17907   */\n    tag_118:\n        /* \"#utility.yul\":17654:17658   */\n      0x00\n        /* \"#utility.yul\":17692:17694   */\n      0x20\n        /* \"#utility.yul\":17681:17690   */\n      dup3\n        /* \"#utility.yul\":17677:17695   */\n      add\n        /* \"#utility.yul\":17669:17695   */\n      swap1\n      pop\n        /* \"#utility.yul\":17741:17750   */\n      dup2\n        /* \"#utility.yul\":17735:17739   */\n      dup2\n        /* \"#utility.yul\":17731:17751   */\n      sub\n        /* \"#utility.yul\":17727:17728   */\n      0x00\n        /* \"#utility.yul\":17716:17725   */\n      dup4\n        /* \"#utility.yul\":17712:17729   */\n      add\n        /* \"#utility.yul\":17705:17752   */\n      mstore\n        /* \"#utility.yul\":17769:17900   */\n      tag_383\n        /* \"#utility.yul\":17895:17899   */\n      dup2\n        /* \"#utility.yul\":17769:17900   */\n      tag_227\n      jump\t// in\n    tag_383:\n        /* \"#utility.yul\":17761:17900   */\n      swap1\n      pop\n        /* \"#utility.yul\":17488:17907   */\n      swap2\n      swap1\n      pop\n      jump\t// out\n        /* \"#utility.yul\":17913:18104   */\n    tag_145:\n        /* \"#utility.yul\":17953:17956   */\n      0x00\n        /* \"#utility.yul\":17972:17992   */\n      tag_385\n        /* \"#utility.yul\":17990:17991   */\n      dup3\n        /* \"#utility.yul\":17972:17992   */\n      tag_191\n      jump\t// in\n    tag_385:\n        /* \"#utility.yul\":17967:17992   */\n      swap2\n      pop\n        /* \"#utility.yul\":18006:18026   */\n      tag_386\n        /* \"#utility.yul\":18024:18025   */\n      dup4\n        /* \"#utility.yul\":18006:18026   */\n      tag_191\n      jump\t// in\n    tag_386:\n        /* \"#utility.yul\":18001:18026   */\n      swap3\n      pop\n        /* \"#utility.yul\":18049:18050   */\n      dup3\n        /* \"#utility.yul\":18046:18047   */\n      dup3\n        /* \"#utility.yul\":18042:18051   */\n      add\n        /* \"#utility.yul\":18035:18051   */\n      swap1\n      pop\n        /* \"#utility.yul\":18070:18073   */\n      dup1\n        /* \"#utility.yul\":18067:18068   */\n      dup3\n        /* \"#utility.yul\":18064:18074   */\n      gt\n        /* \"#utility.yul\":18061:18097   */\n      iszero\n      tag_387\n      jumpi\n        /* \"#utility.yul\":18077:18095   */\n      tag_388\n      tag_222\n      jump\t// in\n    tag_388:\n        /* \"#utility.yul\":18061:18097   */\n    tag_387:\n        /* \"#utility.yul\":17913:18104   */\n      swap3\n      swap2\n      pop\n      pop\n      jump\t// out\n        /* \"#utility.yul\":18110:18290   */\n    tag_149:\n        /* \"#utility.yul\":18158:18235   */\n      0x4e487b7100000000000000000000000000000000000000000000000000000000\n        /* \"#utility.yul\":18155:18156   */\n      0x00\n        /* \"#utility.yul\":18148:18236   */\n      mstore\n        /* \"#utility.yul\":18255:18259   */\n      0x41\n        /* \"#utility.yul\":18252:18253   */\n      0x04\n        /* \"#utility.yul\":18245:18260   */\n      mstore\n        /* \"#utility.yul\":18279:18283   */\n      0x24\n        /* \"#utility.yul\":18276:18277   */\n      0x00\n        /* \"#utility.yul\":18269:18284   */\n      revert\n        /* \"#utility.yul\":18296:18484   */\n    tag_179:\n        /* \"#utility.yul\":18334:18337   */\n      0x00\n        /* \"#utility.yul\":18353:18371   */\n      tag_391\n        /* \"#utility.yul\":18369:18370   */\n      dup3\n        /* \"#utility.yul\":18353:18371   */\n      tag_206\n      jump\t// in\n    tag_391:\n        /* \"#utility.yul\":18348:18371   */\n      swap2\n      pop\n        /* \"#utility.yul\":18385:18403   */\n      tag_392\n        /* \"#utility.yul\":18401:18402   */\n      dup4\n        /* \"#utility.yul\":18385:18403   */\n      tag_206\n      jump\t// in\n    tag_392:\n        /* \"#utility.yul\":18380:18403   */\n      swap3\n      pop\n        /* \"#utility.yul\":18426:18427   */\n      dup3\n        /* \"#utility.yul\":18423:18424   */\n      dup3\n        /* \"#utility.yul\":18419:18428   */\n      add\n        /* \"#utility.yul\":18412:18428   */\n      swap1\n      pop\n        /* \"#utility.yul\":18449:18453   */\n      0xff\n        /* \"#utility.yul\":18444:18447   */\n      dup2\n        /* \"#utility.yul\":18441:18454   */\n      gt\n        /* \"#utility.yul\":18438:18477   */\n      iszero\n      tag_393\n      jumpi\n        /* \"#utility.yul\":18457:18475   */\n      tag_394\n      tag_222\n      jump\t// in\n    tag_394:\n        /* \"#utility.yul\":18438:18477   */\n    tag_393:\n        /* \"#utility.yul\":18296:18484   */\n      swap3\n      swap2\n      pop\n      pop\n      jump\t// out\n\n    auxdata: 0xa26469706673582212208a328f911fb770c227341c455e48fa07691f0cf1bd8b3d52609c522188c5a90464736f6c63430008190033\n}\n",
				"bytecode": {
					"linkReferences": {},
					"object": "60806040526040518060600160405280600560ff168152602001600360ff168152602001600260ff16815250600790600361003b92919061004d565b50348015610047575f80fd5b5061010a565b828054828255905f5260205f2090601f016020900481019282156100de579160200282015f5b838211156100b057835183826101000a81548160ff021916908360ff16021790555092602001926001016020815f01049283019260010302610073565b80156100dc5782816101000a81549060ff02191690556001016020815f010492830192600103026100b0565b505b5090506100eb91906100ef565b5090565b5b80821115610106575f815f9055506001016100f0565b5090565b611a8c806101175f395ff3fe6080604052600436106100c1575f3560e01c8063899346c71161007e578063a87430ba11610058578063a87430ba14610267578063e45a57d0146102a7578063ef71ae56146102e3578063f7b17d101461031f576100c1565b8063899346c7146101d75780639be572f614610201578063a2bdedf41461022b576100c1565b806305ad3935146100c55780631e43eb27146101035780633a4b66f11461013f5780634420e4861461014957806375506c9614610171578063842e29811461019b575b5f80fd5b3480156100d0575f80fd5b506100eb60048036038101906100e6919061126a565b610349565b6040516100fa939291906112c6565b60405180910390f35b34801561010e575f80fd5b50610129600480360381019061012491906112fb565b6103a8565b6040516101369190611326565b60405180910390f35b6101476103d8565b005b348015610154575f80fd5b5061016f600480360381019061016a919061133f565b61074f565b005b34801561017c575f80fd5b50610185610967565b604051610192919061136a565b60405180910390f35b3480156101a6575f80fd5b506101c160048036038101906101bc919061133f565b61096d565b6040516101ce919061147a565b60405180910390f35b3480156101e2575f80fd5b506101eb610a25565b6040516101f8919061136a565b60405180910390f35b34801561020c575f80fd5b50610215610a2b565b604051610222919061136a565b60405180910390f35b348015610236575f80fd5b50610251600480360381019061024c91906112fb565b610a37565b60405161025e9190611326565b60405180910390f35b348015610272575f80fd5b5061028d6004803603810190610288919061133f565b610a72565b60405161029e9594939291906114b4565b60405180910390f35b3480156102b2575f80fd5b506102cd60048036038101906102c891906112fb565b610ace565b6040516102da9190611520565b60405180910390f35b3480156102ee575f80fd5b506103096004803603810190610304919061133f565b610aff565b604051610316919061168b565b60405180910390f35b34801561032a575f80fd5b5061033361116e565b604051610340919061136a565b60405180910390f35b6001602052815f5260405f208181548110610362575f80fd5b905f5260205f2090600302015f9150915050805f015f9054906101000a900473ffffffffffffffffffffffffffffffffffffffff16908060010154908060020154905083565b6002602052805f5260405f205f915054906101000a900473ffffffffffffffffffffffffffffffffffffffff1681565b5f341161041a576040517f08c379a000000000000000000000000000000000000000000000000000000000815260040161041190611705565b60405180910390fd5b5f73ffffffffffffffffffffffffffffffffffffffff165f803373ffffffffffffffffffffffffffffffffffffffff1673ffffffffffffffffffffffffffffffffffffffff1681526020019081526020015f205f015f9054906101000a900473ffffffffffffffffffffffffffffffffffffffff1673ffffffffffffffffffffffffffffffffffffffff16036104e5576040517f08c379a00000000000000000000000000000000000000000000000000000000081526004016104dc9061176d565b60405180910390fd5b5f803373ffffffffffffffffffffffffffffffffffffffff1673ffffffffffffffffffffffffffffffffffffffff1681526020019081526020015f20600101604051806060016040528060045f815461053d906117b8565b919050819055815260200134815260200142815250908060018154018082558091505060019003905f5260205f2090600302015f909190919091505f820151815f0155602082015181600101556040820151816002015550505f805f3373ffffffffffffffffffffffffffffffffffffffff1673ffffffffffffffffffffffffffffffffffffffff1681526020019081526020015f205f015f9054906101000a900473ffffffffffffffffffffffffffffffffffffffff1690505f5b6007805490508160ff1610801561063c57505f73ffffffffffffffffffffffffffffffffffffffff168273ffffffffffffffffffffffffffffffffffffffff1614155b1561074b575f606460078360ff168154811061065b5761065a6117ff565b5b905f5260205f2090602091828204019190069054906101000a900460ff1660ff1634610687919061182c565b610691919061189a565b90508273ffffffffffffffffffffffffffffffffffffffff166108fc8290811502906040515f60405180830381858888f193505050501580156106d6573d5f803e3d5ffd5b505f808473ffffffffffffffffffffffffffffffffffffffff1673ffffffffffffffffffffffffffffffffffffffff1681526020019081526020015f205f015f9054906101000a900473ffffffffffffffffffffffffffffffffffffffff169250508080610743906118ca565b9150506105f9565b5050565b5f73ffffffffffffffffffffffffffffffffffffffff165f803373ffffffffffffffffffffffffffffffffffffffff1673ffffffffffffffffffffffffffffffffffffffff1681526020019081526020015f205f015f9054906101000a900473ffffffffffffffffffffffffffffffffffffffff1673ffffffffffffffffffffffffffffffffffffffff161461081a576040517f08c379a00000000000000000000000000000000000000000000000000000000081526004016108119061193c565b60405180910390fd5b3373ffffffffffffffffffffffffffffffffffffffff168173ffffffffffffffffffffffffffffffffffffffff1603610888576040517f08c379a000000000000000000000000000000000000000000000000000000000815260040161087f906119a4565b60405180910390fd5b805f803373ffffffffffffffffffffffffffffffffffffffff1673ffffffffffffffffffffffffffffffffffffffff1681526020019081526020015f205f015f6101000a81548173ffffffffffffffffffffffffffffffffffffffff021916908373ffffffffffffffffffffffffffffffffffffffff160217905550600333908060018154018082558091505060019003905f5260205f20015f9091909190916101000a81548173ffffffffffffffffffffffffffffffffffffffff021916908373ffffffffffffffffffffffffffffffffffffffff16021790555050565b60055481565b60605f808373ffffffffffffffffffffffffffffffffffffffff1673ffffffffffffffffffffffffffffffffffffffff1681526020019081526020015f20600101805480602002602001604051908101604052809291908181526020015f905b82821015610a1a578382905f5260205f2090600302016040518060600160405290815f820154815260200160018201548152602001600282015481525050815260200190600101906109cd565b505050509050919050565b60065481565b5f600380549050905090565b60038181548110610a46575f80fd5b905f5260205f20015f915054906101000a900473ffffffffffffffffffffffffffffffffffffffff1681565b5f602052805f5260405f205f91509050805f015f9054906101000a900473ffffffffffffffffffffffffffffffffffffffff1690805f0160149054906101000a900460ff16908060020154908060030154908060040154905085565b60078181548110610add575f80fd5b905f5260205f209060209182820401919006915054906101000a900460ff1681565b60605f805b600380549050811015610d74575f60038281548110610b2657610b256117ff565b5b905f5260205f20015f9054906101000a900473ffffffffffffffffffffffffffffffffffffffff1690505f805f8373ffffffffffffffffffffffffffffffffffffffff1673ffffffffffffffffffffffffffffffffffffffff1681526020019081526020015f20600101805480602002602001604051908101604052809291908181526020015f905b82821015610bfc578382905f5260205f2090600302016040518060600160405290815f82015481526020016001820154815260200160028201548152505081526020019060010190610baf565b5050505090505f805f8473ffffffffffffffffffffffffffffffffffffffff1673ffffffffffffffffffffffffffffffffffffffff1681526020019081526020015f205f015f9054906101000a900473ffffffffffffffffffffffffffffffffffffffff1690505f5b6007805490508160ff16108015610ca857505f73ffffffffffffffffffffffffffffffffffffffff168273ffffffffffffffffffffffffffffffffffffffff1614155b15610d63578773ffffffffffffffffffffffffffffffffffffffff168273ffffffffffffffffffffffffffffffffffffffff1603610cf057825186610ced91906119c2565b95505b5f808373ffffffffffffffffffffffffffffffffffffffff1673ffffffffffffffffffffffffffffffffffffffff1681526020019081526020015f205f015f9054906101000a900473ffffffffffffffffffffffffffffffffffffffff1691508080610d5b906118ca565b915050610c65565b505050508080600101915050610b04565b505f8167ffffffffffffffff811115610d9057610d8f6119f5565b5b604051908082528060200260200182016040528015610dc957816020015b610db6611174565b815260200190600190039081610dae5790505b5090505f805b600380549050811015611162575f60038281548110610df157610df06117ff565b5b905f5260205f20015f9054906101000a900473ffffffffffffffffffffffffffffffffffffffff1690505f805f8373ffffffffffffffffffffffffffffffffffffffff1673ffffffffffffffffffffffffffffffffffffffff1681526020019081526020015f20600101805480602002602001604051908101604052809291908181526020015f905b82821015610ec7578382905f5260205f2090600302016040518060600160405290815f82015481526020016001820154815260200160028201548152505081526020019060010190610e7a565b5050505090505f805f8473ffffffffffffffffffffffffffffffffffffffff1673ffffffffffffffffffffffffffffffffffffffff1681526020019081526020015f205f015f9054906101000a900473ffffffffffffffffffffffffffffffffffffffff1690505f5b6007805490508160ff16108015610f7357505f73ffffffffffffffffffffffffffffffffffffffff168273ffffffffffffffffffffffffffffffffffffffff1614155b15611151578973ffffffffffffffffffffffffffffffffffffffff168273ffffffffffffffffffffffffffffffffffffffff16036110de575f5b83518110156110dc575f848281518110610fca57610fc96117ff565b5b602002602001015190505f606460078560ff1681548110610fee57610fed6117ff565b5b905f5260205f2090602091828204019190069054906101000a900460ff1660ff16836020015161101e919061182c565b611028919061189a565b90506040518060e001604052808e73ffffffffffffffffffffffffffffffffffffffff168152602001835f01518152602001836020015181526020018281526020018873ffffffffffffffffffffffffffffffffffffffff1681526020018360400151815260200160018661109d9190611a22565b60ff168152508a8a806110af906117b8565b9b50815181106110c2576110c16117ff565b5b602002602001018190525050508080600101915050610fad565b505b5f808373ffffffffffffffffffffffffffffffffffffffff1673ffffffffffffffffffffffffffffffffffffffff1681526020019081526020015f205f015f9054906101000a900473ffffffffffffffffffffffffffffffffffffffff1691508080611149906118ca565b915050610f30565b505050508080600101915050610dcf565b50819350505050919050565b60045481565b6040518060e001604052805f73ffffffffffffffffffffffffffffffffffffffff1681526020015f81526020015f81526020015f81526020015f73ffffffffffffffffffffffffffffffffffffffff1681526020015f81526020015f60ff1681525090565b5f80fd5b5f73ffffffffffffffffffffffffffffffffffffffff82169050919050565b5f611206826111dd565b9050919050565b611216816111fc565b8114611220575f80fd5b50565b5f813590506112318161120d565b92915050565b5f819050919050565b61124981611237565b8114611253575f80fd5b50565b5f8135905061126481611240565b92915050565b5f80604083850312156112805761127f6111d9565b5b5f61128d85828601611223565b925050602061129e85828601611256565b9150509250929050565b6112b1816111fc565b82525050565b6112c081611237565b82525050565b5f6060820190506112d95f8301866112a8565b6112e660208301856112b7565b6112f360408301846112b7565b949350505050565b5f602082840312156113105761130f6111d9565b5b5f61131d84828501611256565b91505092915050565b5f6020820190506113395f8301846112a8565b92915050565b5f60208284031215611354576113536111d9565b5b5f61136184828501611223565b91505092915050565b5f60208201905061137d5f8301846112b7565b92915050565b5f81519050919050565b5f82825260208201905092915050565b5f819050602082019050919050565b6113b581611237565b82525050565b606082015f8201516113cf5f8501826113ac565b5060208201516113e260208501826113ac565b5060408201516113f560408501826113ac565b50505050565b5f61140683836113bb565b60608301905092915050565b5f602082019050919050565b5f61142882611383565b611432818561138d565b935061143d8361139d565b805f5b8381101561146d57815161145488826113fb565b975061145f83611412565b925050600181019050611440565b5085935050505092915050565b5f6020820190508181035f830152611492818461141e565b905092915050565b5f8115159050919050565b6114ae8161149a565b82525050565b5f60a0820190506114c75f8301886112a8565b6114d460208301876114a5565b6114e160408301866112b7565b6114ee60608301856112b7565b6114fb60808301846112b7565b9695505050505050565b5f60ff82169050919050565b61151a81611505565b82525050565b5f6020820190506115335f830184611511565b92915050565b5f81519050919050565b5f82825260208201905092915050565b5f819050602082019050919050565b61156b816111fc565b82525050565b61157a81611505565b82525050565b60e082015f8201516115945f850182611562565b5060208201516115a760208501826113ac565b5060408201516115ba60408501826113ac565b5060608201516115cd60608501826113ac565b5060808201516115e06080850182611562565b5060a08201516115f360a08501826113ac565b5060c082015161160660c0850182611571565b50505050565b5f6116178383611580565b60e08301905092915050565b5f602082019050919050565b5f61163982611539565b6116438185611543565b935061164e83611553565b805f5b8381101561167e578151611665888261160c565b975061167083611623565b925050600181019050611651565b5085935050505092915050565b5f6020820190508181035f8301526116a3818461162f565b905092915050565b5f82825260208201905092915050565b7f5374616b6520616d6f756e7420726571756972656400000000000000000000005f82015250565b5f6116ef6015836116ab565b91506116fa826116bb565b602082019050919050565b5f6020820190508181035f83015261171c816116e3565b9050919050565b7f52656769737465722066697273740000000000000000000000000000000000005f82015250565b5f611757600e836116ab565b915061176282611723565b602082019050919050565b5f6020820190508181035f8301526117848161174b565b9050919050565b7f4e487b71000000000000000000000000000000000000000000000000000000005f52601160045260245ffd5b5f6117c282611237565b91507fffffffffffffffffffffffffffffffffffffffffffffffffffffffffffffffff82036117f4576117f361178b565b5b600182019050919050565b7f4e487b71000000000000000000000000000000000000000000000000000000005f52603260045260245ffd5b5f61183682611237565b915061184183611237565b925082820261184f81611237565b915082820484148315176118665761186561178b565b5b5092915050565b7f4e487b71000000000000000000000000000000000000000000000000000000005f52601260045260245ffd5b5f6118a482611237565b91506118af83611237565b9250826118bf576118be61186d565b5b828204905092915050565b5f6118d482611505565b915060ff82036118e7576118e661178b565b5b600182019050919050565b7f416c7265616479207265676973746572656400000000000000000000000000005f82015250565b5f6119266012836116ab565b9150611931826118f2565b602082019050919050565b5f6020820190508181035f8301526119538161191a565b9050919050565b7f43616e277420726566657220796f757273656c660000000000000000000000005f82015250565b5f61198e6014836116ab565b91506119998261195a565b602082019050919050565b5f6020820190508181035f8301526119bb81611982565b9050919050565b5f6119cc82611237565b91506119d783611237565b92508282019050808211156119ef576119ee61178b565b5b92915050565b7f4e487b71000000000000000000000000000000000000000000000000000000005f52604160045260245ffd5b5f611a2c82611505565b9150611a3783611505565b9250828201905060ff811115611a5057611a4f61178b565b5b9291505056fea26469706673582212208a328f911fb770c227341c455e48fa07691f0cf1bd8b3d52609c522188c5a90464736f6c63430008190033",
					"opcodes": "PUSH1 0x80 PUSH1 0x40 MSTORE PUSH1 0x40 MLOAD DUP1 PUSH1 0x60 ADD PUSH1 0x40 MSTORE DUP1 PUSH1 0x5 PUSH1 0xFF AND DUP2 MSTORE PUSH1 0x20 ADD PUSH1 0x3 PUSH1 0xFF AND DUP2 MSTORE PUSH1 0x20 ADD PUSH1 0x2 PUSH1 0xFF AND DUP2 MSTORE POP PUSH1 0x7 SWAP1 PUSH1 0x3 PUSH2 0x3B SWAP3 SWAP2 SWAP1 PUSH2 0x4D JUMP JUMPDEST POP CALLVALUE DUP1 ISZERO PUSH2 0x47 JUMPI PUSH0 DUP1 REVERT JUMPDEST POP PUSH2 0x10A JUMP JUMPDEST DUP3 DUP1 SLOAD DUP3 DUP3 SSTORE SWAP1 PUSH0 MSTORE PUSH1 0x20 PUSH0 KECCAK256 SWAP1 PUSH1 0x1F ADD PUSH1 0x20 SWAP1 DIV DUP2 ADD SWAP3 DUP3 ISZERO PUSH2 0xDE JUMPI SWAP2 PUSH1 0x20 MUL DUP3 ADD PUSH0 JUMPDEST DUP4 DUP3 GT ISZERO PUSH2 0xB0 JUMPI DUP4 MLOAD DUP4 DUP3 PUSH2 0x100 EXP DUP2 SLOAD DUP2 PUSH1 0xFF MUL NOT AND SWAP1 DUP4 PUSH1 0xFF AND MUL OR SWAP1 SSTORE POP SWAP3 PUSH1 0x20 ADD SWAP3 PUSH1 0x1 ADD PUSH1 0x20 DUP2 PUSH0 ADD DIV SWAP3 DUP4 ADD SWAP3 PUSH1 0x1 SUB MUL PUSH2 0x73 JUMP JUMPDEST DUP1 ISZERO PUSH2 0xDC JUMPI DUP3 DUP2 PUSH2 0x100 EXP DUP2 SLOAD SWAP1 PUSH1 0xFF MUL NOT AND SWAP1 SSTORE PUSH1 0x1 ADD PUSH1 0x20 DUP2 PUSH0 ADD DIV SWAP3 DUP4 ADD SWAP3 PUSH1 0x1 SUB MUL PUSH2 0xB0 JUMP JUMPDEST POP JUMPDEST POP SWAP1 POP PUSH2 0xEB SWAP2 SWAP1 PUSH2 0xEF JUMP JUMPDEST POP SWAP1 JUMP JUMPDEST JUMPDEST DUP1 DUP3 GT ISZERO PUSH2 0x106 JUMPI PUSH0 DUP2 PUSH0 SWAP1 SSTORE POP PUSH1 0x1 ADD PUSH2 0xF0 JUMP JUMPDEST POP SWAP1 JUMP JUMPDEST PUSH2 0x1A8C DUP1 PUSH2 0x117 PUSH0 CODECOPY PUSH0 RETURN INVALID PUSH1 0x80 PUSH1 0x40 MSTORE PUSH1 0x4 CALLDATASIZE LT PUSH2 0xC1 JUMPI PUSH0 CALLDATALOAD PUSH1 0xE0 SHR DUP1 PUSH4 0x899346C7 GT PUSH2 0x7E JUMPI DUP1 PUSH4 0xA87430BA GT PUSH2 0x58 JUMPI DUP1 PUSH4 0xA87430BA EQ PUSH2 0x267 JUMPI DUP1 PUSH4 0xE45A57D0 EQ PUSH2 0x2A7 JUMPI DUP1 PUSH4 0xEF71AE56 EQ PUSH2 0x2E3 JUMPI DUP1 PUSH4 0xF7B17D10 EQ PUSH2 0x31F JUMPI PUSH2 0xC1 JUMP JUMPDEST DUP1 PUSH4 0x899346C7 EQ PUSH2 0x1D7 JUMPI DUP1 PUSH4 0x9BE572F6 EQ PUSH2 0x201 JUMPI DUP1 PUSH4 0xA2BDEDF4 EQ PUSH2 0x22B JUMPI PUSH2 0xC1 JUMP JUMPDEST DUP1 PUSH4 0x5AD3935 EQ PUSH2 0xC5 JUMPI DUP1 PUSH4 0x1E43EB27 EQ PUSH2 0x103 JUMPI DUP1 PUSH4 0x3A4B66F1 EQ PUSH2 0x13F JUMPI DUP1 PUSH4 0x4420E486 EQ PUSH2 0x149 JUMPI DUP1 PUSH4 0x75506C96 EQ PUSH2 0x171 JUMPI DUP1 PUSH4 0x842E2981 EQ PUSH2 0x19B JUMPI JUMPDEST PUSH0 DUP1 REVERT JUMPDEST CALLVALUE DUP1 ISZERO PUSH2 0xD0 JUMPI PUSH0 DUP1 REVERT JUMPDEST POP PUSH2 0xEB PUSH1 0x4 DUP1 CALLDATASIZE SUB DUP2 ADD SWAP1 PUSH2 0xE6 SWAP2 SWAP1 PUSH2 0x126A JUMP JUMPDEST PUSH2 0x349 JUMP JUMPDEST PUSH1 0x40 MLOAD PUSH2 0xFA SWAP4 SWAP3 SWAP2 SWAP1 PUSH2 0x12C6 JUMP JUMPDEST PUSH1 0x40 MLOAD DUP1 SWAP2 SUB SWAP1 RETURN JUMPDEST CALLVALUE DUP1 ISZERO PUSH2 0x10E JUMPI PUSH0 DUP1 REVERT JUMPDEST POP PUSH2 0x129 PUSH1 0x4 DUP1 CALLDATASIZE SUB DUP2 ADD SWAP1 PUSH2 0x124 SWAP2 SWAP1 PUSH2 0x12FB JUMP JUMPDEST PUSH2 0x3A8 JUMP JUMPDEST PUSH1 0x40 MLOAD PUSH2 0x136 SWAP2 SWAP1 PUSH2 0x1326 JUMP JUMPDEST PUSH1 0x40 MLOAD DUP1 SWAP2 SUB SWAP1 RETURN JUMPDEST PUSH2 0x147 PUSH2 0x3D8 JUMP JUMPDEST STOP JUMPDEST CALLVALUE DUP1 ISZERO PUSH2 0x154 JUMPI PUSH0 DUP1 REVERT JUMPDEST POP PUSH2 0x16F PUSH1 0x4 DUP1 CALLDATASIZE SUB DUP2 ADD SWAP1 PUSH2 0x16A SWAP2 SWAP1 PUSH2 0x133F JUMP JUMPDEST PUSH2 0x74F JUMP JUMPDEST STOP JUMPDEST CALLVALUE DUP1 ISZERO PUSH2 0x17C JUMPI PUSH0 DUP1 REVERT JUMPDEST POP PUSH2 0x185 PUSH2 0x967 JUMP JUMPDEST PUSH1 0x40 MLOAD PUSH2 0x192 SWAP2 SWAP1 PUSH2 0x136A JUMP JUMPDEST PUSH1 0x40 MLOAD DUP1 SWAP2 SUB SWAP1 RETURN JUMPDEST CALLVALUE DUP1 ISZERO PUSH2 0x1A6 JUMPI PUSH0 DUP1 REVERT JUMPDEST POP PUSH2 0x1C1 PUSH1 0x4 DUP1 CALLDATASIZE SUB DUP2 ADD SWAP1 PUSH2 0x1BC SWAP2 SWAP1 PUSH2 0x133F JUMP JUMPDEST PUSH2 0x96D JUMP JUMPDEST PUSH1 0x40 MLOAD PUSH2 0x1CE SWAP2 SWAP1 PUSH2 0x147A JUMP JUMPDEST PUSH1 0x40 MLOAD DUP1 SWAP2 SUB SWAP1 RETURN JUMPDEST CALLVALUE DUP1 ISZERO PUSH2 0x1E2 JUMPI PUSH0 DUP1 REVERT JUMPDEST POP PUSH2 0x1EB PUSH2 0xA25 JUMP JUMPDEST PUSH1 0x40 MLOAD PUSH2 0x1F8 SWAP2 SWAP1 PUSH2 0x136A JUMP JUMPDEST PUSH1 0x40 MLOAD DUP1 SWAP2 SUB SWAP1 RETURN JUMPDEST CALLVALUE DUP1 ISZERO PUSH2 0x20C JUMPI PUSH0 DUP1 REVERT JUMPDEST POP PUSH2 0x215 PUSH2 0xA2B JUMP JUMPDEST PUSH1 0x40 MLOAD PUSH2 0x222 SWAP2 SWAP1 PUSH2 0x136A JUMP JUMPDEST PUSH1 0x40 MLOAD DUP1 SWAP2 SUB SWAP1 RETURN JUMPDEST CALLVALUE DUP1 ISZERO PUSH2 0x236 JUMPI PUSH0 DUP1 REVERT JUMPDEST POP PUSH2 0x251 PUSH1 0x4 DUP1 CALLDATASIZE SUB DUP2 ADD SWAP1 PUSH2 0x24C SWAP2 SWAP1 PUSH2 0x12FB JUMP JUMPDEST PUSH2 0xA37 JUMP JUMPDEST PUSH1 0x40 MLOAD PUSH2 0x25E SWAP2 SWAP1 PUSH2 0x1326 JUMP JUMPDEST PUSH1 0x40 MLOAD DUP1 SWAP2 SUB SWAP1 RETURN JUMPDEST CALLVALUE DUP1 ISZERO PUSH2 0x272 JUMPI PUSH0 DUP1 REVERT JUMPDEST POP PUSH2 0x28D PUSH1 0x4 DUP1 CALLDATASIZE SUB DUP2 ADD SWAP1 PUSH2 0x288 SWAP2 SWAP1 PUSH2 0x133F JUMP JUMPDEST PUSH2 0xA72 JUMP JUMPDEST PUSH1 0x40 MLOAD PUSH2 0x29E SWAP6 SWAP5 SWAP4 SWAP3 SWAP2 SWAP1 PUSH2 0x14B4 JUMP JUMPDEST PUSH1 0x40 MLOAD DUP1 SWAP2 SUB SWAP1 RETURN JUMPDEST CALLVALUE DUP1 ISZERO PUSH2 0x2B2 JUMPI PUSH0 DUP1 REVERT JUMPDEST POP PUSH2 0x2CD PUSH1 0x4 DUP1 CALLDATASIZE SUB DUP2 ADD SWAP1 PUSH2 0x2C8 SWAP2 SWAP1 PUSH2 0x12FB JUMP JUMPDEST PUSH2 0xACE JUMP JUMPDEST PUSH1 0x40 MLOAD PUSH2 0x2DA SWAP2 SWAP1 PUSH2 0x1520 JUMP JUMPDEST PUSH1 0x40 MLOAD DUP1 SWAP2 SUB SWAP1 RETURN JUMPDEST CALLVALUE DUP1 ISZERO PUSH2 0x2EE JUMPI PUSH0 DUP1 REVERT JUMPDEST POP PUSH2 0x309 PUSH1 0x4 DUP1 CALLDATASIZE SUB DUP2 ADD SWAP1 PUSH2 0x304 SWAP2 SWAP1 PUSH2 0x133F JUMP JUMPDEST PUSH2 0xAFF JUMP JUMPDEST PUSH1 0x40 MLOAD PUSH2 0x316 SWAP2 SWAP1 PUSH2 0x168B JUMP JUMPDEST PUSH1 0x40 MLOAD DUP1 SWAP2 SUB SWAP1 RETURN JUMPDEST CALLVALUE DUP1 ISZERO PUSH2 0x32A JUMPI PUSH0 DUP1 REVERT JUMPDEST POP PUSH2 0x333 PUSH2 0x116E JUMP JUMPDEST PUSH1 0x40 MLOAD PUSH2 0x340 SWAP2 SWAP1 PUSH2 0x136A JUMP JUMPDEST PUSH1 0x40 MLOAD DUP1 SWAP2 SUB SWAP1 RETURN JUMPDEST PUSH1 0x1 PUSH1 0x20 MSTORE DUP2 PUSH0 MSTORE PUSH1 0x40 PUSH0 KECCAK256 DUP2 DUP2 SLOAD DUP2 LT PUSH2 0x362 JUMPI PUSH0 DUP1 REVERT JUMPDEST SWAP1 PUSH0 MSTORE PUSH1 0x20 PUSH0 KECCAK256 SWAP1 PUSH1 0x3 MUL ADD PUSH0 SWAP2 POP SWAP2 POP POP DUP1 PUSH0 ADD PUSH0 SWAP1 SLOAD SWAP1 PUSH2 0x100 EXP SWAP1 DIV PUSH20 0xFFFFFFFFFFFFFFFFFFFFFFFFFFFFFFFFFFFFFFFF AND SWAP1 DUP1 PUSH1 0x1 ADD SLOAD SWAP1 DUP1 PUSH1 0x2 ADD SLOAD SWAP1 POP DUP4 JUMP JUMPDEST PUSH1 0x2 PUSH1 0x20 MSTORE DUP1 PUSH0 MSTORE PUSH1 0x40 PUSH0 KECCAK256 PUSH0 SWAP2 POP SLOAD SWAP1 PUSH2 0x100 EXP SWAP1 DIV PUSH20 0xFFFFFFFFFFFFFFFFFFFFFFFFFFFFFFFFFFFFFFFF AND DUP2 JUMP JUMPDEST PUSH0 CALLVALUE GT PUSH2 0x41A JUMPI PUSH1 0x40 MLOAD PUSH32 0x8C379A000000000000000000000000000000000000000000000000000000000 DUP2 MSTORE PUSH1 0x4 ADD PUSH2 0x411 SWAP1 PUSH2 0x1705 JUMP JUMPDEST PUSH1 0x40 MLOAD DUP1 SWAP2 SUB SWAP1 REVERT JUMPDEST PUSH0 PUSH20 0xFFFFFFFFFFFFFFFFFFFFFFFFFFFFFFFFFFFFFFFF AND PUSH0 DUP1 CALLER PUSH20 0xFFFFFFFFFFFFFFFFFFFFFFFFFFFFFFFFFFFFFFFF AND PUSH20 0xFFFFFFFFFFFFFFFFFFFFFFFFFFFFFFFFFFFFFFFF AND DUP2 MSTORE PUSH1 0x20 ADD SWAP1 DUP2 MSTORE PUSH1 0x20 ADD PUSH0 KECCAK256 PUSH0 ADD PUSH0 SWAP1 SLOAD SWAP1 PUSH2 0x100 EXP SWAP1 DIV PUSH20 0xFFFFFFFFFFFFFFFFFFFFFFFFFFFFFFFFFFFFFFFF AND PUSH20 0xFFFFFFFFFFFFFFFFFFFFFFFFFFFFFFFFFFFFFFFF AND SUB PUSH2 0x4E5 JUMPI PUSH1 0x40 MLOAD PUSH32 0x8C379A000000000000000000000000000000000000000000000000000000000 DUP2 MSTORE PUSH1 0x4 ADD PUSH2 0x4DC SWAP1 PUSH2 0x176D JUMP JUMPDEST PUSH1 0x40 MLOAD DUP1 SWAP2 SUB SWAP1 REVERT JUMPDEST PUSH0 DUP1 CALLER PUSH20 0xFFFFFFFFFFFFFFFFFFFFFFFFFFFFFFFFFFFFFFFF AND PUSH20 0xFFFFFFFFFFFFFFFFFFFFFFFFFFFFFFFFFFFFFFFF AND DUP2 MSTORE PUSH1 0x20 ADD SWAP1 DUP2 MSTORE PUSH1 0x20 ADD PUSH0 KECCAK256 PUSH1 0x1 ADD PUSH1 0x40 MLOAD DUP1 PUSH1 0x60 ADD PUSH1 0x40 MSTORE DUP1 PUSH1 0x4 PUSH0 DUP2 SLOAD PUSH2 0x53D SWAP1 PUSH2 0x17B8 JUMP JUMPDEST SWAP2 SWAP1 POP DUP2 SWAP1 SSTORE DUP2 MSTORE PUSH1 0x20 ADD CALLVALUE DUP2 MSTORE PUSH1 0x20 ADD TIMESTAMP DUP2 MSTORE POP SWAP1 DUP1 PUSH1 0x1 DUP2 SLOAD ADD DUP1 DUP3 SSTORE DUP1 SWAP2 POP POP PUSH1 0x1 SWAP1 SUB SWAP1 PUSH0 MSTORE PUSH1 0x20 PUSH0 KECCAK256 SWAP1 PUSH1 0x3 MUL ADD PUSH0 SWAP1 SWAP2 SWAP1 SWAP2 SWAP1 SWAP2 POP PUSH0 DUP3 ADD MLOAD DUP2 PUSH0 ADD SSTORE PUSH1 0x20 DUP3 ADD MLOAD DUP2 PUSH1 0x1 ADD SSTORE PUSH1 0x40 DUP3 ADD MLOAD DUP2 PUSH1 0x2 ADD SSTORE POP POP PUSH0 DUP1 PUSH0 CALLER PUSH20 0xFFFFFFFFFFFFFFFFFFFFFFFFFFFFFFFFFFFFFFFF AND PUSH20 0xFFFFFFFFFFFFFFFFFFFFFFFFFFFFFFFFFFFFFFFF AND DUP2 MSTORE PUSH1 0x20 ADD SWAP1 DUP2 MSTORE PUSH1 0x20 ADD PUSH0 KECCAK256 PUSH0 ADD PUSH0 SWAP1 SLOAD SWAP1 PUSH2 0x100 EXP SWAP1 DIV PUSH20 0xFFFFFFFFFFFFFFFFFFFFFFFFFFFFFFFFFFFFFFFF AND SWAP1 POP PUSH0 JUMPDEST PUSH1 0x7 DUP1 SLOAD SWAP1 POP DUP2 PUSH1 0xFF AND LT DUP1 ISZERO PUSH2 0x63C JUMPI POP PUSH0 PUSH20 0xFFFFFFFFFFFFFFFFFFFFFFFFFFFFFFFFFFFFFFFF AND DUP3 PUSH20 0xFFFFFFFFFFFFFFFFFFFFFFFFFFFFFFFFFFFFFFFF AND EQ ISZERO JUMPDEST ISZERO PUSH2 0x74B JUMPI PUSH0 PUSH1 0x64 PUSH1 0x7 DUP4 PUSH1 0xFF AND DUP2 SLOAD DUP2 LT PUSH2 0x65B JUMPI PUSH2 0x65A PUSH2 0x17FF JUMP JUMPDEST JUMPDEST SWAP1 PUSH0 MSTORE PUSH1 0x20 PUSH0 KECCAK256 SWAP1 PUSH1 0x20 SWAP2 DUP3 DUP3 DIV ADD SWAP2 SWAP1 MOD SWAP1 SLOAD SWAP1 PUSH2 0x100 EXP SWAP1 DIV PUSH1 0xFF AND PUSH1 0xFF AND CALLVALUE PUSH2 0x687 SWAP2 SWAP1 PUSH2 0x182C JUMP JUMPDEST PUSH2 0x691 SWAP2 SWAP1 PUSH2 0x189A JUMP JUMPDEST SWAP1 POP DUP3 PUSH20 0xFFFFFFFFFFFFFFFFFFFFFFFFFFFFFFFFFFFFFFFF AND PUSH2 0x8FC DUP3 SWAP1 DUP2 ISZERO MUL SWAP1 PUSH1 0x40 MLOAD PUSH0 PUSH1 0x40 MLOAD DUP1 DUP4 SUB DUP2 DUP6 DUP9 DUP9 CALL SWAP4 POP POP POP POP ISZERO DUP1 ISZERO PUSH2 0x6D6 JUMPI RETURNDATASIZE PUSH0 DUP1 RETURNDATACOPY RETURNDATASIZE PUSH0 REVERT JUMPDEST POP PUSH0 DUP1 DUP5 PUSH20 0xFFFFFFFFFFFFFFFFFFFFFFFFFFFFFFFFFFFFFFFF AND PUSH20 0xFFFFFFFFFFFFFFFFFFFFFFFFFFFFFFFFFFFFFFFF AND DUP2 MSTORE PUSH1 0x20 ADD SWAP1 DUP2 MSTORE PUSH1 0x20 ADD PUSH0 KECCAK256 PUSH0 ADD PUSH0 SWAP1 SLOAD SWAP1 PUSH2 0x100 EXP SWAP1 DIV PUSH20 0xFFFFFFFFFFFFFFFFFFFFFFFFFFFFFFFFFFFFFFFF AND SWAP3 POP POP DUP1 DUP1 PUSH2 0x743 SWAP1 PUSH2 0x18CA JUMP JUMPDEST SWAP2 POP POP PUSH2 0x5F9 JUMP JUMPDEST POP POP JUMP JUMPDEST PUSH0 PUSH20 0xFFFFFFFFFFFFFFFFFFFFFFFFFFFFFFFFFFFFFFFF AND PUSH0 DUP1 CALLER PUSH20 0xFFFFFFFFFFFFFFFFFFFFFFFFFFFFFFFFFFFFFFFF AND PUSH20 0xFFFFFFFFFFFFFFFFFFFFFFFFFFFFFFFFFFFFFFFF AND DUP2 MSTORE PUSH1 0x20 ADD SWAP1 DUP2 MSTORE PUSH1 0x20 ADD PUSH0 KECCAK256 PUSH0 ADD PUSH0 SWAP1 SLOAD SWAP1 PUSH2 0x100 EXP SWAP1 DIV PUSH20 0xFFFFFFFFFFFFFFFFFFFFFFFFFFFFFFFFFFFFFFFF AND PUSH20 0xFFFFFFFFFFFFFFFFFFFFFFFFFFFFFFFFFFFFFFFF AND EQ PUSH2 0x81A JUMPI PUSH1 0x40 MLOAD PUSH32 0x8C379A000000000000000000000000000000000000000000000000000000000 DUP2 MSTORE PUSH1 0x4 ADD PUSH2 0x811 SWAP1 PUSH2 0x193C JUMP JUMPDEST PUSH1 0x40 MLOAD DUP1 SWAP2 SUB SWAP1 REVERT JUMPDEST CALLER PUSH20 0xFFFFFFFFFFFFFFFFFFFFFFFFFFFFFFFFFFFFFFFF AND DUP2 PUSH20 0xFFFFFFFFFFFFFFFFFFFFFFFFFFFFFFFFFFFFFFFF AND SUB PUSH2 0x888 JUMPI PUSH1 0x40 MLOAD PUSH32 0x8C379A000000000000000000000000000000000000000000000000000000000 DUP2 MSTORE PUSH1 0x4 ADD PUSH2 0x87F SWAP1 PUSH2 0x19A4 JUMP JUMPDEST PUSH1 0x40 MLOAD DUP1 SWAP2 SUB SWAP1 REVERT JUMPDEST DUP1 PUSH0 DUP1 CALLER PUSH20 0xFFFFFFFFFFFFFFFFFFFFFFFFFFFFFFFFFFFFFFFF AND PUSH20 0xFFFFFFFFFFFFFFFFFFFFFFFFFFFFFFFFFFFFFFFF AND DUP2 MSTORE PUSH1 0x20 ADD SWAP1 DUP2 MSTORE PUSH1 0x20 ADD PUSH0 KECCAK256 PUSH0 ADD PUSH0 PUSH2 0x100 EXP DUP2 SLOAD DUP2 PUSH20 0xFFFFFFFFFFFFFFFFFFFFFFFFFFFFFFFFFFFFFFFF MUL NOT AND SWAP1 DUP4 PUSH20 0xFFFFFFFFFFFFFFFFFFFFFFFFFFFFFFFFFFFFFFFF AND MUL OR SWAP1 SSTORE POP PUSH1 0x3 CALLER SWAP1 DUP1 PUSH1 0x1 DUP2 SLOAD ADD DUP1 DUP3 SSTORE DUP1 SWAP2 POP POP PUSH1 0x1 SWAP1 SUB SWAP1 PUSH0 MSTORE PUSH1 0x20 PUSH0 KECCAK256 ADD PUSH0 SWAP1 SWAP2 SWAP1 SWAP2 SWAP1 SWAP2 PUSH2 0x100 EXP DUP2 SLOAD DUP2 PUSH20 0xFFFFFFFFFFFFFFFFFFFFFFFFFFFFFFFFFFFFFFFF MUL NOT AND SWAP1 DUP4 PUSH20 0xFFFFFFFFFFFFFFFFFFFFFFFFFFFFFFFFFFFFFFFF AND MUL OR SWAP1 SSTORE POP POP JUMP JUMPDEST PUSH1 0x5 SLOAD DUP2 JUMP JUMPDEST PUSH1 0x60 PUSH0 DUP1 DUP4 PUSH20 0xFFFFFFFFFFFFFFFFFFFFFFFFFFFFFFFFFFFFFFFF AND PUSH20 0xFFFFFFFFFFFFFFFFFFFFFFFFFFFFFFFFFFFFFFFF AND DUP2 MSTORE PUSH1 0x20 ADD SWAP1 DUP2 MSTORE PUSH1 0x20 ADD PUSH0 KECCAK256 PUSH1 0x1 ADD DUP1 SLOAD DUP1 PUSH1 0x20 MUL PUSH1 0x20 ADD PUSH1 0x40 MLOAD SWAP1 DUP2 ADD PUSH1 0x40 MSTORE DUP1 SWAP3 SWAP2 SWAP1 DUP2 DUP2 MSTORE PUSH1 0x20 ADD PUSH0 SWAP1 JUMPDEST DUP3 DUP3 LT ISZERO PUSH2 0xA1A JUMPI DUP4 DUP3 SWAP1 PUSH0 MSTORE PUSH1 0x20 PUSH0 KECCAK256 SWAP1 PUSH1 0x3 MUL ADD PUSH1 0x40 MLOAD DUP1 PUSH1 0x60 ADD PUSH1 0x40 MSTORE SWAP1 DUP2 PUSH0 DUP3 ADD SLOAD DUP2 MSTORE PUSH1 0x20 ADD PUSH1 0x1 DUP3 ADD SLOAD DUP2 MSTORE PUSH1 0x20 ADD PUSH1 0x2 DUP3 ADD SLOAD DUP2 MSTORE POP POP DUP2 MSTORE PUSH1 0x20 ADD SWAP1 PUSH1 0x1 ADD SWAP1 PUSH2 0x9CD JUMP JUMPDEST POP POP POP POP SWAP1 POP SWAP2 SWAP1 POP JUMP JUMPDEST PUSH1 0x6 SLOAD DUP2 JUMP JUMPDEST PUSH0 PUSH1 0x3 DUP1 SLOAD SWAP1 POP SWAP1 POP SWAP1 JUMP JUMPDEST PUSH1 0x3 DUP2 DUP2 SLOAD DUP2 LT PUSH2 0xA46 JUMPI PUSH0 DUP1 REVERT JUMPDEST SWAP1 PUSH0 MSTORE PUSH1 0x20 PUSH0 KECCAK256 ADD PUSH0 SWAP2 POP SLOAD SWAP1 PUSH2 0x100 EXP SWAP1 DIV PUSH20 0xFFFFFFFFFFFFFFFFFFFFFFFFFFFFFFFFFFFFFFFF AND DUP2 JUMP JUMPDEST PUSH0 PUSH1 0x20 MSTORE DUP1 PUSH0 MSTORE PUSH1 0x40 PUSH0 KECCAK256 PUSH0 SWAP2 POP SWAP1 POP DUP1 PUSH0 ADD PUSH0 SWAP1 SLOAD SWAP1 PUSH2 0x100 EXP SWAP1 DIV PUSH20 0xFFFFFFFFFFFFFFFFFFFFFFFFFFFFFFFFFFFFFFFF AND SWAP1 DUP1 PUSH0 ADD PUSH1 0x14 SWAP1 SLOAD SWAP1 PUSH2 0x100 EXP SWAP1 DIV PUSH1 0xFF AND SWAP1 DUP1 PUSH1 0x2 ADD SLOAD SWAP1 DUP1 PUSH1 0x3 ADD SLOAD SWAP1 DUP1 PUSH1 0x4 ADD SLOAD SWAP1 POP DUP6 JUMP JUMPDEST PUSH1 0x7 DUP2 DUP2 SLOAD DUP2 LT PUSH2 0xADD JUMPI PUSH0 DUP1 REVERT JUMPDEST SWAP1 PUSH0 MSTORE PUSH1 0x20 PUSH0 KECCAK256 SWAP1 PUSH1 0x20 SWAP2 DUP3 DUP3 DIV ADD SWAP2 SWAP1 MOD SWAP2 POP SLOAD SWAP1 PUSH2 0x100 EXP SWAP1 DIV PUSH1 0xFF AND DUP2 JUMP JUMPDEST PUSH1 0x60 PUSH0 DUP1 JUMPDEST PUSH1 0x3 DUP1 SLOAD SWAP1 POP DUP2 LT ISZERO PUSH2 0xD74 JUMPI PUSH0 PUSH1 0x3 DUP3 DUP2 SLOAD DUP2 LT PUSH2 0xB26 JUMPI PUSH2 0xB25 PUSH2 0x17FF JUMP JUMPDEST JUMPDEST SWAP1 PUSH0 MSTORE PUSH1 0x20 PUSH0 KECCAK256 ADD PUSH0 SWAP1 SLOAD SWAP1 PUSH2 0x100 EXP SWAP1 DIV PUSH20 0xFFFFFFFFFFFFFFFFFFFFFFFFFFFFFFFFFFFFFFFF AND SWAP1 POP PUSH0 DUP1 PUSH0 DUP4 PUSH20 0xFFFFFFFFFFFFFFFFFFFFFFFFFFFFFFFFFFFFFFFF AND PUSH20 0xFFFFFFFFFFFFFFFFFFFFFFFFFFFFFFFFFFFFFFFF AND DUP2 MSTORE PUSH1 0x20 ADD SWAP1 DUP2 MSTORE PUSH1 0x20 ADD PUSH0 KECCAK256 PUSH1 0x1 ADD DUP1 SLOAD DUP1 PUSH1 0x20 MUL PUSH1 0x20 ADD PUSH1 0x40 MLOAD SWAP1 DUP2 ADD PUSH1 0x40 MSTORE DUP1 SWAP3 SWAP2 SWAP1 DUP2 DUP2 MSTORE PUSH1 0x20 ADD PUSH0 SWAP1 JUMPDEST DUP3 DUP3 LT ISZERO PUSH2 0xBFC JUMPI DUP4 DUP3 SWAP1 PUSH0 MSTORE PUSH1 0x20 PUSH0 KECCAK256 SWAP1 PUSH1 0x3 MUL ADD PUSH1 0x40 MLOAD DUP1 PUSH1 0x60 ADD PUSH1 0x40 MSTORE SWAP1 DUP2 PUSH0 DUP3 ADD SLOAD DUP2 MSTORE PUSH1 0x20 ADD PUSH1 0x1 DUP3 ADD SLOAD DUP2 MSTORE PUSH1 0x20 ADD PUSH1 0x2 DUP3 ADD SLOAD DUP2 MSTORE POP POP DUP2 MSTORE PUSH1 0x20 ADD SWAP1 PUSH1 0x1 ADD SWAP1 PUSH2 0xBAF JUMP JUMPDEST POP POP POP POP SWAP1 POP PUSH0 DUP1 PUSH0 DUP5 PUSH20 0xFFFFFFFFFFFFFFFFFFFFFFFFFFFFFFFFFFFFFFFF AND PUSH20 0xFFFFFFFFFFFFFFFFFFFFFFFFFFFFFFFFFFFFFFFF AND DUP2 MSTORE PUSH1 0x20 ADD SWAP1 DUP2 MSTORE PUSH1 0x20 ADD PUSH0 KECCAK256 PUSH0 ADD PUSH0 SWAP1 SLOAD SWAP1 PUSH2 0x100 EXP SWAP1 DIV PUSH20 0xFFFFFFFFFFFFFFFFFFFFFFFFFFFFFFFFFFFFFFFF AND SWAP1 POP PUSH0 JUMPDEST PUSH1 0x7 DUP1 SLOAD SWAP1 POP DUP2 PUSH1 0xFF AND LT DUP1 ISZERO PUSH2 0xCA8 JUMPI POP PUSH0 PUSH20 0xFFFFFFFFFFFFFFFFFFFFFFFFFFFFFFFFFFFFFFFF AND DUP3 PUSH20 0xFFFFFFFFFFFFFFFFFFFFFFFFFFFFFFFFFFFFFFFF AND EQ ISZERO JUMPDEST ISZERO PUSH2 0xD63 JUMPI DUP8 PUSH20 0xFFFFFFFFFFFFFFFFFFFFFFFFFFFFFFFFFFFFFFFF AND DUP3 PUSH20 0xFFFFFFFFFFFFFFFFFFFFFFFFFFFFFFFFFFFFFFFF AND SUB PUSH2 0xCF0 JUMPI DUP3 MLOAD DUP7 PUSH2 0xCED SWAP2 SWAP1 PUSH2 0x19C2 JUMP JUMPDEST SWAP6 POP JUMPDEST PUSH0 DUP1 DUP4 PUSH20 0xFFFFFFFFFFFFFFFFFFFFFFFFFFFFFFFFFFFFFFFF AND PUSH20 0xFFFFFFFFFFFFFFFFFFFFFFFFFFFFFFFFFFFFFFFF AND DUP2 MSTORE PUSH1 0x20 ADD SWAP1 DUP2 MSTORE PUSH1 0x20 ADD PUSH0 KECCAK256 PUSH0 ADD PUSH0 SWAP1 SLOAD SWAP1 PUSH2 0x100 EXP SWAP1 DIV PUSH20 0xFFFFFFFFFFFFFFFFFFFFFFFFFFFFFFFFFFFFFFFF AND SWAP2 POP DUP1 DUP1 PUSH2 0xD5B SWAP1 PUSH2 0x18CA JUMP JUMPDEST SWAP2 POP POP PUSH2 0xC65 JUMP JUMPDEST POP POP POP POP DUP1 DUP1 PUSH1 0x1 ADD SWAP2 POP POP PUSH2 0xB04 JUMP JUMPDEST POP PUSH0 DUP2 PUSH8 0xFFFFFFFFFFFFFFFF DUP2 GT ISZERO PUSH2 0xD90 JUMPI PUSH2 0xD8F PUSH2 0x19F5 JUMP JUMPDEST JUMPDEST PUSH1 0x40 MLOAD SWAP1 DUP1 DUP3 MSTORE DUP1 PUSH1 0x20 MUL PUSH1 0x20 ADD DUP3 ADD PUSH1 0x40 MSTORE DUP1 ISZERO PUSH2 0xDC9 JUMPI DUP2 PUSH1 0x20 ADD JUMPDEST PUSH2 0xDB6 PUSH2 0x1174 JUMP JUMPDEST DUP2 MSTORE PUSH1 0x20 ADD SWAP1 PUSH1 0x1 SWAP1 SUB SWAP1 DUP2 PUSH2 0xDAE JUMPI SWAP1 POP JUMPDEST POP SWAP1 POP PUSH0 DUP1 JUMPDEST PUSH1 0x3 DUP1 SLOAD SWAP1 POP DUP2 LT ISZERO PUSH2 0x1162 JUMPI PUSH0 PUSH1 0x3 DUP3 DUP2 SLOAD DUP2 LT PUSH2 0xDF1 JUMPI PUSH2 0xDF0 PUSH2 0x17FF JUMP JUMPDEST JUMPDEST SWAP1 PUSH0 MSTORE PUSH1 0x20 PUSH0 KECCAK256 ADD PUSH0 SWAP1 SLOAD SWAP1 PUSH2 0x100 EXP SWAP1 DIV PUSH20 0xFFFFFFFFFFFFFFFFFFFFFFFFFFFFFFFFFFFFFFFF AND SWAP1 POP PUSH0 DUP1 PUSH0 DUP4 PUSH20 0xFFFFFFFFFFFFFFFFFFFFFFFFFFFFFFFFFFFFFFFF AND PUSH20 0xFFFFFFFFFFFFFFFFFFFFFFFFFFFFFFFFFFFFFFFF AND DUP2 MSTORE PUSH1 0x20 ADD SWAP1 DUP2 MSTORE PUSH1 0x20 ADD PUSH0 KECCAK256 PUSH1 0x1 ADD DUP1 SLOAD DUP1 PUSH1 0x20 MUL PUSH1 0x20 ADD PUSH1 0x40 MLOAD SWAP1 DUP2 ADD PUSH1 0x40 MSTORE DUP1 SWAP3 SWAP2 SWAP1 DUP2 DUP2 MSTORE PUSH1 0x20 ADD PUSH0 SWAP1 JUMPDEST DUP3 DUP3 LT ISZERO PUSH2 0xEC7 JUMPI DUP4 DUP3 SWAP1 PUSH0 MSTORE PUSH1 0x20 PUSH0 KECCAK256 SWAP1 PUSH1 0x3 MUL ADD PUSH1 0x40 MLOAD DUP1 PUSH1 0x60 ADD PUSH1 0x40 MSTORE SWAP1 DUP2 PUSH0 DUP3 ADD SLOAD DUP2 MSTORE PUSH1 0x20 ADD PUSH1 0x1 DUP3 ADD SLOAD DUP2 MSTORE PUSH1 0x20 ADD PUSH1 0x2 DUP3 ADD SLOAD DUP2 MSTORE POP POP DUP2 MSTORE PUSH1 0x20 ADD SWAP1 PUSH1 0x1 ADD SWAP1 PUSH2 0xE7A JUMP JUMPDEST POP POP POP POP SWAP1 POP PUSH0 DUP1 PUSH0 DUP5 PUSH20 0xFFFFFFFFFFFFFFFFFFFFFFFFFFFFFFFFFFFFFFFF AND PUSH20 0xFFFFFFFFFFFFFFFFFFFFFFFFFFFFFFFFFFFFFFFF AND DUP2 MSTORE PUSH1 0x20 ADD SWAP1 DUP2 MSTORE PUSH1 0x20 ADD PUSH0 KECCAK256 PUSH0 ADD PUSH0 SWAP1 SLOAD SWAP1 PUSH2 0x100 EXP SWAP1 DIV PUSH20 0xFFFFFFFFFFFFFFFFFFFFFFFFFFFFFFFFFFFFFFFF AND SWAP1 POP PUSH0 JUMPDEST PUSH1 0x7 DUP1 SLOAD SWAP1 POP DUP2 PUSH1 0xFF AND LT DUP1 ISZERO PUSH2 0xF73 JUMPI POP PUSH0 PUSH20 0xFFFFFFFFFFFFFFFFFFFFFFFFFFFFFFFFFFFFFFFF AND DUP3 PUSH20 0xFFFFFFFFFFFFFFFFFFFFFFFFFFFFFFFFFFFFFFFF AND EQ ISZERO JUMPDEST ISZERO PUSH2 0x1151 JUMPI DUP10 PUSH20 0xFFFFFFFFFFFFFFFFFFFFFFFFFFFFFFFFFFFFFFFF AND DUP3 PUSH20 0xFFFFFFFFFFFFFFFFFFFFFFFFFFFFFFFFFFFFFFFF AND SUB PUSH2 0x10DE JUMPI PUSH0 JUMPDEST DUP4 MLOAD DUP2 LT ISZERO PUSH2 0x10DC JUMPI PUSH0 DUP5 DUP3 DUP2 MLOAD DUP2 LT PUSH2 0xFCA JUMPI PUSH2 0xFC9 PUSH2 0x17FF JUMP JUMPDEST JUMPDEST PUSH1 0x20 MUL PUSH1 0x20 ADD ADD MLOAD SWAP1 POP PUSH0 PUSH1 0x64 PUSH1 0x7 DUP6 PUSH1 0xFF AND DUP2 SLOAD DUP2 LT PUSH2 0xFEE JUMPI PUSH2 0xFED PUSH2 0x17FF JUMP JUMPDEST JUMPDEST SWAP1 PUSH0 MSTORE PUSH1 0x20 PUSH0 KECCAK256 SWAP1 PUSH1 0x20 SWAP2 DUP3 DUP3 DIV ADD SWAP2 SWAP1 MOD SWAP1 SLOAD SWAP1 PUSH2 0x100 EXP SWAP1 DIV PUSH1 0xFF AND PUSH1 0xFF AND DUP4 PUSH1 0x20 ADD MLOAD PUSH2 0x101E SWAP2 SWAP1 PUSH2 0x182C JUMP JUMPDEST PUSH2 0x1028 SWAP2 SWAP1 PUSH2 0x189A JUMP JUMPDEST SWAP1 POP PUSH1 0x40 MLOAD DUP1 PUSH1 0xE0 ADD PUSH1 0x40 MSTORE DUP1 DUP15 PUSH20 0xFFFFFFFFFFFFFFFFFFFFFFFFFFFFFFFFFFFFFFFF AND DUP2 MSTORE PUSH1 0x20 ADD DUP4 PUSH0 ADD MLOAD DUP2 MSTORE PUSH1 0x20 ADD DUP4 PUSH1 0x20 ADD MLOAD DUP2 MSTORE PUSH1 0x20 ADD DUP3 DUP2 MSTORE PUSH1 0x20 ADD DUP9 PUSH20 0xFFFFFFFFFFFFFFFFFFFFFFFFFFFFFFFFFFFFFFFF AND DUP2 MSTORE PUSH1 0x20 ADD DUP4 PUSH1 0x40 ADD MLOAD DUP2 MSTORE PUSH1 0x20 ADD PUSH1 0x1 DUP7 PUSH2 0x109D SWAP2 SWAP1 PUSH2 0x1A22 JUMP JUMPDEST PUSH1 0xFF AND DUP2 MSTORE POP DUP11 DUP11 DUP1 PUSH2 0x10AF SWAP1 PUSH2 0x17B8 JUMP JUMPDEST SWAP12 POP DUP2 MLOAD DUP2 LT PUSH2 0x10C2 JUMPI PUSH2 0x10C1 PUSH2 0x17FF JUMP JUMPDEST JUMPDEST PUSH1 0x20 MUL PUSH1 0x20 ADD ADD DUP2 SWAP1 MSTORE POP POP POP DUP1 DUP1 PUSH1 0x1 ADD SWAP2 POP POP PUSH2 0xFAD JUMP JUMPDEST POP JUMPDEST PUSH0 DUP1 DUP4 PUSH20 0xFFFFFFFFFFFFFFFFFFFFFFFFFFFFFFFFFFFFFFFF AND PUSH20 0xFFFFFFFFFFFFFFFFFFFFFFFFFFFFFFFFFFFFFFFF AND DUP2 MSTORE PUSH1 0x20 ADD SWAP1 DUP2 MSTORE PUSH1 0x20 ADD PUSH0 KECCAK256 PUSH0 ADD PUSH0 SWAP1 SLOAD SWAP1 PUSH2 0x100 EXP SWAP1 DIV PUSH20 0xFFFFFFFFFFFFFFFFFFFFFFFFFFFFFFFFFFFFFFFF AND SWAP2 POP DUP1 DUP1 PUSH2 0x1149 SWAP1 PUSH2 0x18CA JUMP JUMPDEST SWAP2 POP POP PUSH2 0xF30 JUMP JUMPDEST POP POP POP POP DUP1 DUP1 PUSH1 0x1 ADD SWAP2 POP POP PUSH2 0xDCF JUMP JUMPDEST POP DUP2 SWAP4 POP POP POP POP SWAP2 SWAP1 POP JUMP JUMPDEST PUSH1 0x4 SLOAD DUP2 JUMP JUMPDEST PUSH1 0x40 MLOAD DUP1 PUSH1 0xE0 ADD PUSH1 0x40 MSTORE DUP1 PUSH0 PUSH20 0xFFFFFFFFFFFFFFFFFFFFFFFFFFFFFFFFFFFFFFFF AND DUP2 MSTORE PUSH1 0x20 ADD PUSH0 DUP2 MSTORE PUSH1 0x20 ADD PUSH0 DUP2 MSTORE PUSH1 0x20 ADD PUSH0 DUP2 MSTORE PUSH1 0x20 ADD PUSH0 PUSH20 0xFFFFFFFFFFFFFFFFFFFFFFFFFFFFFFFFFFFFFFFF AND DUP2 MSTORE PUSH1 0x20 ADD PUSH0 DUP2 MSTORE PUSH1 0x20 ADD PUSH0 PUSH1 0xFF AND DUP2 MSTORE POP SWAP1 JUMP JUMPDEST PUSH0 DUP1 REVERT JUMPDEST PUSH0 PUSH20 0xFFFFFFFFFFFFFFFFFFFFFFFFFFFFFFFFFFFFFFFF DUP3 AND SWAP1 POP SWAP2 SWAP1 POP JUMP JUMPDEST PUSH0 PUSH2 0x1206 DUP3 PUSH2 0x11DD JUMP JUMPDEST SWAP1 POP SWAP2 SWAP1 POP JUMP JUMPDEST PUSH2 0x1216 DUP2 PUSH2 0x11FC JUMP JUMPDEST DUP2 EQ PUSH2 0x1220 JUMPI PUSH0 DUP1 REVERT JUMPDEST POP JUMP JUMPDEST PUSH0 DUP2 CALLDATALOAD SWAP1 POP PUSH2 0x1231 DUP2 PUSH2 0x120D JUMP JUMPDEST SWAP3 SWAP2 POP POP JUMP JUMPDEST PUSH0 DUP2 SWAP1 POP SWAP2 SWAP1 POP JUMP JUMPDEST PUSH2 0x1249 DUP2 PUSH2 0x1237 JUMP JUMPDEST DUP2 EQ PUSH2 0x1253 JUMPI PUSH0 DUP1 REVERT JUMPDEST POP JUMP JUMPDEST PUSH0 DUP2 CALLDATALOAD SWAP1 POP PUSH2 0x1264 DUP2 PUSH2 0x1240 JUMP JUMPDEST SWAP3 SWAP2 POP POP JUMP JUMPDEST PUSH0 DUP1 PUSH1 0x40 DUP4 DUP6 SUB SLT ISZERO PUSH2 0x1280 JUMPI PUSH2 0x127F PUSH2 0x11D9 JUMP JUMPDEST JUMPDEST PUSH0 PUSH2 0x128D DUP6 DUP3 DUP7 ADD PUSH2 0x1223 JUMP JUMPDEST SWAP3 POP POP PUSH1 0x20 PUSH2 0x129E DUP6 DUP3 DUP7 ADD PUSH2 0x1256 JUMP JUMPDEST SWAP2 POP POP SWAP3 POP SWAP3 SWAP1 POP JUMP JUMPDEST PUSH2 0x12B1 DUP2 PUSH2 0x11FC JUMP JUMPDEST DUP3 MSTORE POP POP JUMP JUMPDEST PUSH2 0x12C0 DUP2 PUSH2 0x1237 JUMP JUMPDEST DUP3 MSTORE POP POP JUMP JUMPDEST PUSH0 PUSH1 0x60 DUP3 ADD SWAP1 POP PUSH2 0x12D9 PUSH0 DUP4 ADD DUP7 PUSH2 0x12A8 JUMP JUMPDEST PUSH2 0x12E6 PUSH1 0x20 DUP4 ADD DUP6 PUSH2 0x12B7 JUMP JUMPDEST PUSH2 0x12F3 PUSH1 0x40 DUP4 ADD DUP5 PUSH2 0x12B7 JUMP JUMPDEST SWAP5 SWAP4 POP POP POP POP JUMP JUMPDEST PUSH0 PUSH1 0x20 DUP3 DUP5 SUB SLT ISZERO PUSH2 0x1310 JUMPI PUSH2 0x130F PUSH2 0x11D9 JUMP JUMPDEST JUMPDEST PUSH0 PUSH2 0x131D DUP5 DUP3 DUP6 ADD PUSH2 0x1256 JUMP JUMPDEST SWAP2 POP POP SWAP3 SWAP2 POP POP JUMP JUMPDEST PUSH0 PUSH1 0x20 DUP3 ADD SWAP1 POP PUSH2 0x1339 PUSH0 DUP4 ADD DUP5 PUSH2 0x12A8 JUMP JUMPDEST SWAP3 SWAP2 POP POP JUMP JUMPDEST PUSH0 PUSH1 0x20 DUP3 DUP5 SUB SLT ISZERO PUSH2 0x1354 JUMPI PUSH2 0x1353 PUSH2 0x11D9 JUMP JUMPDEST JUMPDEST PUSH0 PUSH2 0x1361 DUP5 DUP3 DUP6 ADD PUSH2 0x1223 JUMP JUMPDEST SWAP2 POP POP SWAP3 SWAP2 POP POP JUMP JUMPDEST PUSH0 PUSH1 0x20 DUP3 ADD SWAP1 POP PUSH2 0x137D PUSH0 DUP4 ADD DUP5 PUSH2 0x12B7 JUMP JUMPDEST SWAP3 SWAP2 POP POP JUMP JUMPDEST PUSH0 DUP2 MLOAD SWAP1 POP SWAP2 SWAP1 POP JUMP JUMPDEST PUSH0 DUP3 DUP3 MSTORE PUSH1 0x20 DUP3 ADD SWAP1 POP SWAP3 SWAP2 POP POP JUMP JUMPDEST PUSH0 DUP2 SWAP1 POP PUSH1 0x20 DUP3 ADD SWAP1 POP SWAP2 SWAP1 POP JUMP JUMPDEST PUSH2 0x13B5 DUP2 PUSH2 0x1237 JUMP JUMPDEST DUP3 MSTORE POP POP JUMP JUMPDEST PUSH1 0x60 DUP3 ADD PUSH0 DUP3 ADD MLOAD PUSH2 0x13CF PUSH0 DUP6 ADD DUP3 PUSH2 0x13AC JUMP JUMPDEST POP PUSH1 0x20 DUP3 ADD MLOAD PUSH2 0x13E2 PUSH1 0x20 DUP6 ADD DUP3 PUSH2 0x13AC JUMP JUMPDEST POP PUSH1 0x40 DUP3 ADD MLOAD PUSH2 0x13F5 PUSH1 0x40 DUP6 ADD DUP3 PUSH2 0x13AC JUMP JUMPDEST POP POP POP POP JUMP JUMPDEST PUSH0 PUSH2 0x1406 DUP4 DUP4 PUSH2 0x13BB JUMP JUMPDEST PUSH1 0x60 DUP4 ADD SWAP1 POP SWAP3 SWAP2 POP POP JUMP JUMPDEST PUSH0 PUSH1 0x20 DUP3 ADD SWAP1 POP SWAP2 SWAP1 POP JUMP JUMPDEST PUSH0 PUSH2 0x1428 DUP3 PUSH2 0x1383 JUMP JUMPDEST PUSH2 0x1432 DUP2 DUP6 PUSH2 0x138D JUMP JUMPDEST SWAP4 POP PUSH2 0x143D DUP4 PUSH2 0x139D JUMP JUMPDEST DUP1 PUSH0 JUMPDEST DUP4 DUP2 LT ISZERO PUSH2 0x146D JUMPI DUP2 MLOAD PUSH2 0x1454 DUP9 DUP3 PUSH2 0x13FB JUMP JUMPDEST SWAP8 POP PUSH2 0x145F DUP4 PUSH2 0x1412 JUMP JUMPDEST SWAP3 POP POP PUSH1 0x1 DUP2 ADD SWAP1 POP PUSH2 0x1440 JUMP JUMPDEST POP DUP6 SWAP4 POP POP POP POP SWAP3 SWAP2 POP POP JUMP JUMPDEST PUSH0 PUSH1 0x20 DUP3 ADD SWAP1 POP DUP2 DUP2 SUB PUSH0 DUP4 ADD MSTORE PUSH2 0x1492 DUP2 DUP5 PUSH2 0x141E JUMP JUMPDEST SWAP1 POP SWAP3 SWAP2 POP POP JUMP JUMPDEST PUSH0 DUP2 ISZERO ISZERO SWAP1 POP SWAP2 SWAP1 POP JUMP JUMPDEST PUSH2 0x14AE DUP2 PUSH2 0x149A JUMP JUMPDEST DUP3 MSTORE POP POP JUMP JUMPDEST PUSH0 PUSH1 0xA0 DUP3 ADD SWAP1 POP PUSH2 0x14C7 PUSH0 DUP4 ADD DUP9 PUSH2 0x12A8 JUMP JUMPDEST PUSH2 0x14D4 PUSH1 0x20 DUP4 ADD DUP8 PUSH2 0x14A5 JUMP JUMPDEST PUSH2 0x14E1 PUSH1 0x40 DUP4 ADD DUP7 PUSH2 0x12B7 JUMP JUMPDEST PUSH2 0x14EE PUSH1 0x60 DUP4 ADD DUP6 PUSH2 0x12B7 JUMP JUMPDEST PUSH2 0x14FB PUSH1 0x80 DUP4 ADD DUP5 PUSH2 0x12B7 JUMP JUMPDEST SWAP7 SWAP6 POP POP POP POP POP POP JUMP JUMPDEST PUSH0 PUSH1 0xFF DUP3 AND SWAP1 POP SWAP2 SWAP1 POP JUMP JUMPDEST PUSH2 0x151A DUP2 PUSH2 0x1505 JUMP JUMPDEST DUP3 MSTORE POP POP JUMP JUMPDEST PUSH0 PUSH1 0x20 DUP3 ADD SWAP1 POP PUSH2 0x1533 PUSH0 DUP4 ADD DUP5 PUSH2 0x1511 JUMP JUMPDEST SWAP3 SWAP2 POP POP JUMP JUMPDEST PUSH0 DUP2 MLOAD SWAP1 POP SWAP2 SWAP1 POP JUMP JUMPDEST PUSH0 DUP3 DUP3 MSTORE PUSH1 0x20 DUP3 ADD SWAP1 POP SWAP3 SWAP2 POP POP JUMP JUMPDEST PUSH0 DUP2 SWAP1 POP PUSH1 0x20 DUP3 ADD SWAP1 POP SWAP2 SWAP1 POP JUMP JUMPDEST PUSH2 0x156B DUP2 PUSH2 0x11FC JUMP JUMPDEST DUP3 MSTORE POP POP JUMP JUMPDEST PUSH2 0x157A DUP2 PUSH2 0x1505 JUMP JUMPDEST DUP3 MSTORE POP POP JUMP JUMPDEST PUSH1 0xE0 DUP3 ADD PUSH0 DUP3 ADD MLOAD PUSH2 0x1594 PUSH0 DUP6 ADD DUP3 PUSH2 0x1562 JUMP JUMPDEST POP PUSH1 0x20 DUP3 ADD MLOAD PUSH2 0x15A7 PUSH1 0x20 DUP6 ADD DUP3 PUSH2 0x13AC JUMP JUMPDEST POP PUSH1 0x40 DUP3 ADD MLOAD PUSH2 0x15BA PUSH1 0x40 DUP6 ADD DUP3 PUSH2 0x13AC JUMP JUMPDEST POP PUSH1 0x60 DUP3 ADD MLOAD PUSH2 0x15CD PUSH1 0x60 DUP6 ADD DUP3 PUSH2 0x13AC JUMP JUMPDEST POP PUSH1 0x80 DUP3 ADD MLOAD PUSH2 0x15E0 PUSH1 0x80 DUP6 ADD DUP3 PUSH2 0x1562 JUMP JUMPDEST POP PUSH1 0xA0 DUP3 ADD MLOAD PUSH2 0x15F3 PUSH1 0xA0 DUP6 ADD DUP3 PUSH2 0x13AC JUMP JUMPDEST POP PUSH1 0xC0 DUP3 ADD MLOAD PUSH2 0x1606 PUSH1 0xC0 DUP6 ADD DUP3 PUSH2 0x1571 JUMP JUMPDEST POP POP POP POP JUMP JUMPDEST PUSH0 PUSH2 0x1617 DUP4 DUP4 PUSH2 0x1580 JUMP JUMPDEST PUSH1 0xE0 DUP4 ADD SWAP1 POP SWAP3 SWAP2 POP POP JUMP JUMPDEST PUSH0 PUSH1 0x20 DUP3 ADD SWAP1 POP SWAP2 SWAP1 POP JUMP JUMPDEST PUSH0 PUSH2 0x1639 DUP3 PUSH2 0x1539 JUMP JUMPDEST PUSH2 0x1643 DUP2 DUP6 PUSH2 0x1543 JUMP JUMPDEST SWAP4 POP PUSH2 0x164E DUP4 PUSH2 0x1553 JUMP JUMPDEST DUP1 PUSH0 JUMPDEST DUP4 DUP2 LT ISZERO PUSH2 0x167E JUMPI DUP2 MLOAD PUSH2 0x1665 DUP9 DUP3 PUSH2 0x160C JUMP JUMPDEST SWAP8 POP PUSH2 0x1670 DUP4 PUSH2 0x1623 JUMP JUMPDEST SWAP3 POP POP PUSH1 0x1 DUP2 ADD SWAP1 POP PUSH2 0x1651 JUMP JUMPDEST POP DUP6 SWAP4 POP POP POP POP SWAP3 SWAP2 POP POP JUMP JUMPDEST PUSH0 PUSH1 0x20 DUP3 ADD SWAP1 POP DUP2 DUP2 SUB PUSH0 DUP4 ADD MSTORE PUSH2 0x16A3 DUP2 DUP5 PUSH2 0x162F JUMP JUMPDEST SWAP1 POP SWAP3 SWAP2 POP POP JUMP JUMPDEST PUSH0 DUP3 DUP3 MSTORE PUSH1 0x20 DUP3 ADD SWAP1 POP SWAP3 SWAP2 POP POP JUMP JUMPDEST PUSH32 0x5374616B6520616D6F756E742072657175697265640000000000000000000000 PUSH0 DUP3 ADD MSTORE POP JUMP JUMPDEST PUSH0 PUSH2 0x16EF PUSH1 0x15 DUP4 PUSH2 0x16AB JUMP JUMPDEST SWAP2 POP PUSH2 0x16FA DUP3 PUSH2 0x16BB JUMP JUMPDEST PUSH1 0x20 DUP3 ADD SWAP1 POP SWAP2 SWAP1 POP JUMP JUMPDEST PUSH0 PUSH1 0x20 DUP3 ADD SWAP1 POP DUP2 DUP2 SUB PUSH0 DUP4 ADD MSTORE PUSH2 0x171C DUP2 PUSH2 0x16E3 JUMP JUMPDEST SWAP1 POP SWAP2 SWAP1 POP JUMP JUMPDEST PUSH32 0x5265676973746572206669727374000000000000000000000000000000000000 PUSH0 DUP3 ADD MSTORE POP JUMP JUMPDEST PUSH0 PUSH2 0x1757 PUSH1 0xE DUP4 PUSH2 0x16AB JUMP JUMPDEST SWAP2 POP PUSH2 0x1762 DUP3 PUSH2 0x1723 JUMP JUMPDEST PUSH1 0x20 DUP3 ADD SWAP1 POP SWAP2 SWAP1 POP JUMP JUMPDEST PUSH0 PUSH1 0x20 DUP3 ADD SWAP1 POP DUP2 DUP2 SUB PUSH0 DUP4 ADD MSTORE PUSH2 0x1784 DUP2 PUSH2 0x174B JUMP JUMPDEST SWAP1 POP SWAP2 SWAP1 POP JUMP JUMPDEST PUSH32 0x4E487B7100000000000000000000000000000000000000000000000000000000 PUSH0 MSTORE PUSH1 0x11 PUSH1 0x4 MSTORE PUSH1 0x24 PUSH0 REVERT JUMPDEST PUSH0 PUSH2 0x17C2 DUP3 PUSH2 0x1237 JUMP JUMPDEST SWAP2 POP PUSH32 0xFFFFFFFFFFFFFFFFFFFFFFFFFFFFFFFFFFFFFFFFFFFFFFFFFFFFFFFFFFFFFFFF DUP3 SUB PUSH2 0x17F4 JUMPI PUSH2 0x17F3 PUSH2 0x178B JUMP JUMPDEST JUMPDEST PUSH1 0x1 DUP3 ADD SWAP1 POP SWAP2 SWAP1 POP JUMP JUMPDEST PUSH32 0x4E487B7100000000000000000000000000000000000000000000000000000000 PUSH0 MSTORE PUSH1 0x32 PUSH1 0x4 MSTORE PUSH1 0x24 PUSH0 REVERT JUMPDEST PUSH0 PUSH2 0x1836 DUP3 PUSH2 0x1237 JUMP JUMPDEST SWAP2 POP PUSH2 0x1841 DUP4 PUSH2 0x1237 JUMP JUMPDEST SWAP3 POP DUP3 DUP3 MUL PUSH2 0x184F DUP2 PUSH2 0x1237 JUMP JUMPDEST SWAP2 POP DUP3 DUP3 DIV DUP5 EQ DUP4 ISZERO OR PUSH2 0x1866 JUMPI PUSH2 0x1865 PUSH2 0x178B JUMP JUMPDEST JUMPDEST POP SWAP3 SWAP2 POP POP JUMP JUMPDEST PUSH32 0x4E487B7100000000000000000000000000000000000000000000000000000000 PUSH0 MSTORE PUSH1 0x12 PUSH1 0x4 MSTORE PUSH1 0x24 PUSH0 REVERT JUMPDEST PUSH0 PUSH2 0x18A4 DUP3 PUSH2 0x1237 JUMP JUMPDEST SWAP2 POP PUSH2 0x18AF DUP4 PUSH2 0x1237 JUMP JUMPDEST SWAP3 POP DUP3 PUSH2 0x18BF JUMPI PUSH2 0x18BE PUSH2 0x186D JUMP JUMPDEST JUMPDEST DUP3 DUP3 DIV SWAP1 POP SWAP3 SWAP2 POP POP JUMP JUMPDEST PUSH0 PUSH2 0x18D4 DUP3 PUSH2 0x1505 JUMP JUMPDEST SWAP2 POP PUSH1 0xFF DUP3 SUB PUSH2 0x18E7 JUMPI PUSH2 0x18E6 PUSH2 0x178B JUMP JUMPDEST JUMPDEST PUSH1 0x1 DUP3 ADD SWAP1 POP SWAP2 SWAP1 POP JUMP JUMPDEST PUSH32 0x416C726561647920726567697374657265640000000000000000000000000000 PUSH0 DUP3 ADD MSTORE POP JUMP JUMPDEST PUSH0 PUSH2 0x1926 PUSH1 0x12 DUP4 PUSH2 0x16AB JUMP JUMPDEST SWAP2 POP PUSH2 0x1931 DUP3 PUSH2 0x18F2 JUMP JUMPDEST PUSH1 0x20 DUP3 ADD SWAP1 POP SWAP2 SWAP1 POP JUMP JUMPDEST PUSH0 PUSH1 0x20 DUP3 ADD SWAP1 POP DUP2 DUP2 SUB PUSH0 DUP4 ADD MSTORE PUSH2 0x1953 DUP2 PUSH2 0x191A JUMP JUMPDEST SWAP1 POP SWAP2 SWAP1 POP JUMP JUMPDEST PUSH32 0x43616E277420726566657220796F757273656C66000000000000000000000000 PUSH0 DUP3 ADD MSTORE POP JUMP JUMPDEST PUSH0 PUSH2 0x198E PUSH1 0x14 DUP4 PUSH2 0x16AB JUMP JUMPDEST SWAP2 POP PUSH2 0x1999 DUP3 PUSH2 0x195A JUMP JUMPDEST PUSH1 0x20 DUP3 ADD SWAP1 POP SWAP2 SWAP1 POP JUMP JUMPDEST PUSH0 PUSH1 0x20 DUP3 ADD SWAP1 POP DUP2 DUP2 SUB PUSH0 DUP4 ADD MSTORE PUSH2 0x19BB DUP2 PUSH2 0x1982 JUMP JUMPDEST SWAP1 POP SWAP2 SWAP1 POP JUMP JUMPDEST PUSH0 PUSH2 0x19CC DUP3 PUSH2 0x1237 JUMP JUMPDEST SWAP2 POP PUSH2 0x19D7 DUP4 PUSH2 0x1237 JUMP JUMPDEST SWAP3 POP DUP3 DUP3 ADD SWAP1 POP DUP1 DUP3 GT ISZERO PUSH2 0x19EF JUMPI PUSH2 0x19EE PUSH2 0x178B JUMP JUMPDEST JUMPDEST SWAP3 SWAP2 POP POP JUMP JUMPDEST PUSH32 0x4E487B7100000000000000000000000000000000000000000000000000000000 PUSH0 MSTORE PUSH1 0x41 PUSH1 0x4 MSTORE PUSH1 0x24 PUSH0 REVERT JUMPDEST PUSH0 PUSH2 0x1A2C DUP3 PUSH2 0x1505 JUMP JUMPDEST SWAP2 POP PUSH2 0x1A37 DUP4 PUSH2 0x1505 JUMP JUMPDEST SWAP3 POP DUP3 DUP3 ADD SWAP1 POP PUSH1 0xFF DUP2 GT ISZERO PUSH2 0x1A50 JUMPI PUSH2 0x1A4F PUSH2 0x178B JUMP JUMPDEST JUMPDEST SWAP3 SWAP2 POP POP JUMP INVALID LOG2 PUSH5 0x6970667358 0x22 SLT KECCAK256 DUP11 ORIGIN DUP16 SWAP2 0x1F 0xB7 PUSH17 0xC227341C455E48FA07691F0CF1BD8B3D52 PUSH1 0x9C MSTORE 0x21 DUP9 0xC5 0xA9 DIV PUSH5 0x736F6C6343 STOP ADDMOD NOT STOP CALLER "
				},
				"gasEstimates": {
					"creation": {
						"codeDepositCost": "1359200",
						"executionCost": "infinite",
						"totalCost": "infinite"
					},
					"external": {
						"allUsers(uint256)": "5011",
						"directReferrals(address,uint256)": "infinite",
						"getLevelIncomeDistribution(address)": "infinite",
						"getTotalUsers()": "2485",
						"getUserStakes(address)": "infinite",
						"levelRewards(uint256)": "6575",
						"nextPositionId()": "2448",
						"nextStakeId()": "2514",
						"positionIdToUser(uint256)": "2850",
						"register(address)": "75744",
						"stake()": "infinite",
						"stakeCounter()": "2513",
						"users(address)": "infinite"
					}
				},
				"methodIdentifiers": {
					"allUsers(uint256)": "a2bdedf4",
					"directReferrals(address,uint256)": "05ad3935",
					"getLevelIncomeDistribution(address)": "ef71ae56",
					"getTotalUsers()": "9be572f6",
					"getUserStakes(address)": "842e2981",
					"levelRewards(uint256)": "e45a57d0",
					"nextPositionId()": "899346c7",
					"nextStakeId()": "75506c96",
					"positionIdToUser(uint256)": "1e43eb27",
					"register(address)": "4420e486",
					"stake()": "3a4b66f1",
					"stakeCounter()": "f7b17d10",
					"users(address)": "a87430ba"
				}
			},
			"storageLayout": {
				"storage": [
					{
						"astId": 50,
						"contract": "contracts/3_Ballot.sol:MLMStaking",
						"label": "users",
						"offset": 0,
						"slot": "0",
						"type": "t_mapping(t_address,t_struct(User)23_storage)"
					},
					{
						"astId": 56,
						"contract": "contracts/3_Ballot.sol:MLMStaking",
						"label": "directReferrals",
						"offset": 0,
						"slot": "1",
						"type": "t_mapping(t_address,t_array(t_struct(ReferralInfo)30_storage)dyn_storage)"
					},
					{
						"astId": 60,
						"contract": "contracts/3_Ballot.sol:MLMStaking",
						"label": "positionIdToUser",
						"offset": 0,
						"slot": "2",
						"type": "t_mapping(t_uint256,t_address)"
					},
					{
						"astId": 63,
						"contract": "contracts/3_Ballot.sol:MLMStaking",
						"label": "allUsers",
						"offset": 0,
						"slot": "3",
						"type": "t_array(t_address)dyn_storage"
					},
					{
						"astId": 65,
						"contract": "contracts/3_Ballot.sol:MLMStaking",
						"label": "stakeCounter",
						"offset": 0,
						"slot": "4",
						"type": "t_uint256"
					},
					{
						"astId": 67,
						"contract": "contracts/3_Ballot.sol:MLMStaking",
						"label": "nextStakeId",
						"offset": 0,
						"slot": "5",
						"type": "t_uint256"
					},
					{
						"astId": 69,
						"contract": "contracts/3_Ballot.sol:MLMStaking",
						"label": "nextPositionId",
						"offset": 0,
						"slot": "6",
						"type": "t_uint256"
					},
					{
						"astId": 76,
						"contract": "contracts/3_Ballot.sol:MLMStaking",
						"label": "levelRewards",
						"offset": 0,
						"slot": "7",
						"type": "t_array(t_uint8)dyn_storage"
					}
				],
				"types": {
					"t_address": {
						"encoding": "inplace",
						"label": "address",
						"numberOfBytes": "20"
					},
					"t_array(t_address)dyn_storage": {
						"base": "t_address",
						"encoding": "dynamic_array",
						"label": "address[]",
						"numberOfBytes": "32"
					},
					"t_array(t_struct(ReferralInfo)30_storage)dyn_storage": {
						"base": "t_struct(ReferralInfo)30_storage",
						"encoding": "dynamic_array",
						"label": "struct MLMStaking.ReferralInfo[]",
						"numberOfBytes": "32"
					},
					"t_array(t_struct(Stake)8_storage)dyn_storage": {
						"base": "t_struct(Stake)8_storage",
						"encoding": "dynamic_array",
						"label": "struct MLMStaking.Stake[]",
						"numberOfBytes": "32"
					},
					"t_array(t_uint8)dyn_storage": {
						"base": "t_uint8",
						"encoding": "dynamic_array",
						"label": "uint8[]",
						"numberOfBytes": "32"
					},
					"t_bool": {
						"encoding": "inplace",
						"label": "bool",
						"numberOfBytes": "1"
					},
					"t_mapping(t_address,t_array(t_struct(ReferralInfo)30_storage)dyn_storage)": {
						"encoding": "mapping",
						"key": "t_address",
						"label": "mapping(address => struct MLMStaking.ReferralInfo[])",
						"numberOfBytes": "32",
						"value": "t_array(t_struct(ReferralInfo)30_storage)dyn_storage"
					},
					"t_mapping(t_address,t_struct(User)23_storage)": {
						"encoding": "mapping",
						"key": "t_address",
						"label": "mapping(address => struct MLMStaking.User)",
						"numberOfBytes": "32",
						"value": "t_struct(User)23_storage"
					},
					"t_mapping(t_uint256,t_address)": {
						"encoding": "mapping",
						"key": "t_uint256",
						"label": "mapping(uint256 => address)",
						"numberOfBytes": "32",
						"value": "t_address"
					},
					"t_struct(ReferralInfo)30_storage": {
						"encoding": "inplace",
						"label": "struct MLMStaking.ReferralInfo",
						"members": [
							{
								"astId": 25,
								"contract": "contracts/3_Ballot.sol:MLMStaking",
								"label": "referralAddress",
								"offset": 0,
								"slot": "0",
								"type": "t_address"
							},
							{
								"astId": 27,
								"contract": "contracts/3_Ballot.sol:MLMStaking",
								"label": "incomeEarned",
								"offset": 0,
								"slot": "1",
								"type": "t_uint256"
							},
							{
								"astId": 29,
								"contract": "contracts/3_Ballot.sol:MLMStaking",
								"label": "timestamp",
								"offset": 0,
								"slot": "2",
								"type": "t_uint256"
							}
						],
						"numberOfBytes": "96"
					},
					"t_struct(Stake)8_storage": {
						"encoding": "inplace",
						"label": "struct MLMStaking.Stake",
						"members": [
							{
								"astId": 3,
								"contract": "contracts/3_Ballot.sol:MLMStaking",
								"label": "stakeId",
								"offset": 0,
								"slot": "0",
								"type": "t_uint256"
							},
							{
								"astId": 5,
								"contract": "contracts/3_Ballot.sol:MLMStaking",
								"label": "amount",
								"offset": 0,
								"slot": "1",
								"type": "t_uint256"
							},
							{
								"astId": 7,
								"contract": "contracts/3_Ballot.sol:MLMStaking",
								"label": "timestamp",
								"offset": 0,
								"slot": "2",
								"type": "t_uint256"
							}
						],
						"numberOfBytes": "96"
					},
					"t_struct(User)23_storage": {
						"encoding": "inplace",
						"label": "struct MLMStaking.User",
						"members": [
							{
								"astId": 10,
								"contract": "contracts/3_Ballot.sol:MLMStaking",
								"label": "referrer",
								"offset": 0,
								"slot": "0",
								"type": "t_address"
							},
							{
								"astId": 12,
								"contract": "contracts/3_Ballot.sol:MLMStaking",
								"label": "registered",
								"offset": 20,
								"slot": "0",
								"type": "t_bool"
							},
							{
								"astId": 16,
								"contract": "contracts/3_Ballot.sol:MLMStaking",
								"label": "stakes",
								"offset": 0,
								"slot": "1",
								"type": "t_array(t_struct(Stake)8_storage)dyn_storage"
							},
							{
								"astId": 18,
								"contract": "contracts/3_Ballot.sol:MLMStaking",
								"label": "totalIncome",
								"offset": 0,
								"slot": "2",
								"type": "t_uint256"
							},
							{
								"astId": 20,
								"contract": "contracts/3_Ballot.sol:MLMStaking",
								"label": "directReferralIncome",
								"offset": 0,
								"slot": "3",
								"type": "t_uint256"
							},
							{
								"astId": 22,
								"contract": "contracts/3_Ballot.sol:MLMStaking",
								"label": "levelIncome",
								"offset": 0,
								"slot": "4",
								"type": "t_uint256"
							}
						],
						"numberOfBytes": "160"
					},
					"t_uint256": {
						"encoding": "inplace",
						"label": "uint256",
						"numberOfBytes": "32"
					},
					"t_uint8": {
						"encoding": "inplace",
						"label": "uint8",
						"numberOfBytes": "1"
					}
				}
			},
			"userdoc": {
				"kind": "user",
				"methods": {},
				"version": 1
			}
		}
	}
}