{
	"contracts/1_Storage.sol": {
		"SikkaStakingDecentralize": {
			"abi": [
				{
					"inputs": [
						{
							"internalType": "address",
							"name": "_usdtToken",
							"type": "address"
						}
					],
					"stateMutability": "nonpayable",
					"type": "constructor"
				},
				{
					"anonymous": false,
					"inputs": [
						{
							"indexed": true,
							"internalType": "address",
							"name": "user",
							"type": "address"
						},
						{
							"indexed": false,
							"internalType": "uint256",
							"name": "stakeId",
							"type": "uint256"
						},
						{
							"indexed": false,
							"internalType": "uint256",
							"name": "amount",
							"type": "uint256"
						},
						{
							"indexed": false,
							"internalType": "uint256",
							"name": "reward",
							"type": "uint256"
						}
					],
					"name": "Claimed",
					"type": "event"
				},
				{
					"anonymous": false,
					"inputs": [
						{
							"indexed": true,
							"internalType": "address",
							"name": "previousOwner",
							"type": "address"
						},
						{
							"indexed": true,
							"internalType": "address",
							"name": "newOwner",
							"type": "address"
						}
					],
					"name": "OwnershipTransferred",
					"type": "event"
				},
				{
					"inputs": [
						{
							"internalType": "uint256",
							"name": "",
							"type": "uint256"
						}
					],
					"name": "allUsers",
					"outputs": [
						{
							"internalType": "address",
							"name": "",
							"type": "address"
						}
					],
					"stateMutability": "view",
					"type": "function"
				},
				{
					"inputs": [
						{
							"internalType": "address",
							"name": "",
							"type": "address"
						}
					],
					"name": "directReferralIncome",
					"outputs": [
						{
							"internalType": "uint256",
							"name": "",
							"type": "uint256"
						}
					],
					"stateMutability": "view",
					"type": "function"
				},
				{
					"inputs": [
						{
							"internalType": "address",
							"name": "",
							"type": "address"
						},
						{
							"internalType": "uint256",
							"name": "",
							"type": "uint256"
						}
					],
					"name": "directReferrals",
					"outputs": [
						{
							"internalType": "address",
							"name": "referralAddress",
							"type": "address"
						},
						{
							"internalType": "uint256",
							"name": "incomeEarned",
							"type": "uint256"
						},
						{
							"internalType": "uint256",
							"name": "timestamp",
							"type": "uint256"
						}
					],
					"stateMutability": "view",
					"type": "function"
				},
				{
					"inputs": [
						{
							"internalType": "uint256",
							"name": "",
							"type": "uint256"
						}
					],
					"name": "levelRewards",
					"outputs": [
						{
							"internalType": "uint8",
							"name": "",
							"type": "uint8"
						}
					],
					"stateMutability": "view",
					"type": "function"
				},
				{
					"inputs": [],
					"name": "owner",
					"outputs": [
						{
							"internalType": "address",
							"name": "",
							"type": "address"
						}
					],
					"stateMutability": "view",
					"type": "function"
				},
				{
					"inputs": [
						{
							"internalType": "uint256",
							"name": "",
							"type": "uint256"
						}
					],
					"name": "positionIdToUser",
					"outputs": [
						{
							"internalType": "address",
							"name": "",
							"type": "address"
						}
					],
					"stateMutability": "view",
					"type": "function"
				},
				{
					"inputs": [
						{
							"internalType": "address",
							"name": "referrer",
							"type": "address"
						}
					],
					"name": "register",
					"outputs": [],
					"stateMutability": "nonpayable",
					"type": "function"
				},
				{
					"inputs": [
						{
							"internalType": "uint256",
							"name": "numDays",
							"type": "uint256"
						},
						{
							"internalType": "uint256",
							"name": "amount",
							"type": "uint256"
						}
					],
					"name": "stake",
					"outputs": [],
					"stateMutability": "nonpayable",
					"type": "function"
				},
				{
					"inputs": [],
					"name": "stakeCounter",
					"outputs": [
						{
							"internalType": "uint256",
							"name": "",
							"type": "uint256"
						}
					],
					"stateMutability": "view",
					"type": "function"
				},
				{
					"inputs": [
						{
							"internalType": "uint256",
							"name": "",
							"type": "uint256"
						}
					],
					"name": "stakingAPY",
					"outputs": [
						{
							"internalType": "uint256",
							"name": "",
							"type": "uint256"
						}
					],
					"stateMutability": "view",
					"type": "function"
				},
				{
					"inputs": [
						{
							"internalType": "address",
							"name": "newOwner",
							"type": "address"
						}
					],
					"name": "transferOwnership",
					"outputs": [],
					"stateMutability": "nonpayable",
					"type": "function"
				},
				{
					"inputs": [],
					"name": "usdtToken",
					"outputs": [
						{
							"internalType": "contract IERC20",
							"name": "",
							"type": "address"
						}
					],
					"stateMutability": "view",
					"type": "function"
				},
				{
					"inputs": [
						{
							"internalType": "address",
							"name": "",
							"type": "address"
						}
					],
					"name": "users",
					"outputs": [
						{
							"internalType": "address",
							"name": "referrer",
							"type": "address"
						},
						{
							"internalType": "uint256",
							"name": "totalIncome",
							"type": "uint256"
						},
						{
							"internalType": "uint256",
							"name": "levelIncome",
							"type": "uint256"
						},
						{
							"internalType": "bool",
							"name": "registered",
							"type": "bool"
						}
					],
					"stateMutability": "view",
					"type": "function"
				}
			],
			"devdoc": {
				"kind": "dev",
				"methods": {},
				"version": 1
			},
			"evm": {
				"assembly": "    /* \"contracts/1_Storage.sol\":382:6750  contract SikkaStakingDecentralize {... */\n  mstore(0x40, 0x80)\n    /* \"contracts/1_Storage.sol\":1836:1882  uint8[5] public levelRewards = [5, 3, 2, 1, 1] */\n  mload(0x40)\n  dup1\n  0xa0\n  add\n  0x40\n  mstore\n  dup1\n    /* \"contracts/1_Storage.sol\":1868:1869  5 */\n  0x05\n    /* \"contracts/1_Storage.sol\":1836:1882  uint8[5] public levelRewards = [5, 3, 2, 1, 1] */\n  0xff\n  and\n  dup2\n  mstore\n  0x20\n  add\n    /* \"contracts/1_Storage.sol\":1871:1872  3 */\n  0x03\n    /* \"contracts/1_Storage.sol\":1836:1882  uint8[5] public levelRewards = [5, 3, 2, 1, 1] */\n  0xff\n  and\n  dup2\n  mstore\n  0x20\n  add\n    /* \"contracts/1_Storage.sol\":1874:1875  2 */\n  0x02\n    /* \"contracts/1_Storage.sol\":1836:1882  uint8[5] public levelRewards = [5, 3, 2, 1, 1] */\n  0xff\n  and\n  dup2\n  mstore\n  0x20\n  add\n    /* \"contracts/1_Storage.sol\":1877:1878  1 */\n  0x01\n    /* \"contracts/1_Storage.sol\":1836:1882  uint8[5] public levelRewards = [5, 3, 2, 1, 1] */\n  0xff\n  and\n  dup2\n  mstore\n  0x20\n  add\n    /* \"contracts/1_Storage.sol\":1880:1881  1 */\n  0x01\n    /* \"contracts/1_Storage.sol\":1836:1882  uint8[5] public levelRewards = [5, 3, 2, 1, 1] */\n  0xff\n  and\n  dup2\n  mstore\n  pop\n  0x09\n  swap1\n  0x05\n  tag_1\n  swap3\n  swap2\n  swap1\n  tag_2\n  jump\t// in\ntag_1:\n  pop\n    /* \"contracts/1_Storage.sol\":511:831  constructor(address _usdtToken) {... */\n  callvalue\n  dup1\n  iszero\n  tag_3\n  jumpi\n  0x00\n  dup1\n  revert\ntag_3:\n  pop\n  mload(0x40)\n  sub(codesize, bytecodeSize)\n  dup1\n  bytecodeSize\n  dup4\n  codecopy\n  dup2\n  dup2\n  add\n  0x40\n  mstore\n  dup2\n  add\n  swap1\n  tag_4\n  swap2\n  swap1\n  tag_5\n  jump\t// in\ntag_4:\n    /* \"contracts/1_Storage.sol\":561:571  msg.sender */\n  caller\n    /* \"contracts/1_Storage.sol\":553:558  owner */\n  0x00\n  dup1\n    /* \"contracts/1_Storage.sol\":553:571  owner = msg.sender */\n  0x0100\n  exp\n  dup2\n  sload\n  dup2\n  0xffffffffffffffffffffffffffffffffffffffff\n  mul\n  not\n  and\n  swap1\n  dup4\n  0xffffffffffffffffffffffffffffffffffffffff\n  and\n  mul\n  or\n  swap1\n  sstore\n  pop\n    /* \"contracts/1_Storage.sol\":600:610  _usdtToken */\n  dup1\n    /* \"contracts/1_Storage.sol\":581:590  usdtToken */\n  0x02\n  0x00\n    /* \"contracts/1_Storage.sol\":581:611  usdtToken = IERC20(_usdtToken) */\n  0x0100\n  exp\n  dup2\n  sload\n  dup2\n  0xffffffffffffffffffffffffffffffffffffffff\n  mul\n  not\n  and\n  swap1\n  dup4\n  0xffffffffffffffffffffffffffffffffffffffff\n  and\n  mul\n  or\n  swap1\n  sstore\n  pop\n    /* \"contracts/1_Storage.sol\":647:651  true */\n  0x01\n    /* \"contracts/1_Storage.sol\":621:626  users */\n  0x03\n    /* \"contracts/1_Storage.sol\":621:633  users[owner] */\n  0x00\n    /* \"contracts/1_Storage.sol\":627:632  owner */\n  dup1\n  0x00\n  swap1\n  sload\n  swap1\n  0x0100\n  exp\n  swap1\n  div\n  0xffffffffffffffffffffffffffffffffffffffff\n  and\n    /* \"contracts/1_Storage.sol\":621:633  users[owner] */\n  0xffffffffffffffffffffffffffffffffffffffff\n  and\n  0xffffffffffffffffffffffffffffffffffffffff\n  and\n  dup2\n  mstore\n  0x20\n  add\n  swap1\n  dup2\n  mstore\n  0x20\n  add\n  0x00\n  keccak256\n    /* \"contracts/1_Storage.sol\":621:644  users[owner].registered */\n  0x04\n  add\n  0x00\n    /* \"contracts/1_Storage.sol\":621:651  users[owner].registered = true */\n  0x0100\n  exp\n  dup2\n  sload\n  dup2\n  0xff\n  mul\n  not\n  and\n  swap1\n  dup4\n  iszero\n  iszero\n  mul\n  or\n  swap1\n  sstore\n  pop\n    /* \"contracts/1_Storage.sol\":679:680  1 */\n  0x01\n    /* \"contracts/1_Storage.sol\":662:672  stakingAPY */\n  0x06\n    /* \"contracts/1_Storage.sol\":662:676  stakingAPY[30] */\n  0x00\n    /* \"contracts/1_Storage.sol\":673:675  30 */\n  0x1e\n    /* \"contracts/1_Storage.sol\":662:676  stakingAPY[30] */\n  dup2\n  mstore\n  0x20\n  add\n  swap1\n  dup2\n  mstore\n  0x20\n  add\n  0x00\n  keccak256\n    /* \"contracts/1_Storage.sol\":662:680  stakingAPY[30] = 1 */\n  dup2\n  swap1\n  sstore\n  pop\n    /* \"contracts/1_Storage.sol\":707:708  2 */\n  0x02\n    /* \"contracts/1_Storage.sol\":690:700  stakingAPY */\n  0x06\n    /* \"contracts/1_Storage.sol\":690:704  stakingAPY[60] */\n  0x00\n    /* \"contracts/1_Storage.sol\":701:703  60 */\n  0x3c\n    /* \"contracts/1_Storage.sol\":690:704  stakingAPY[60] */\n  dup2\n  mstore\n  0x20\n  add\n  swap1\n  dup2\n  mstore\n  0x20\n  add\n  0x00\n  keccak256\n    /* \"contracts/1_Storage.sol\":690:708  stakingAPY[60] = 2 */\n  dup2\n  swap1\n  sstore\n  pop\n    /* \"contracts/1_Storage.sol\":735:736  4 */\n  0x04\n    /* \"contracts/1_Storage.sol\":718:728  stakingAPY */\n  0x06\n    /* \"contracts/1_Storage.sol\":718:732  stakingAPY[90] */\n  0x00\n    /* \"contracts/1_Storage.sol\":729:731  90 */\n  0x5a\n    /* \"contracts/1_Storage.sol\":718:732  stakingAPY[90] */\n  dup2\n  mstore\n  0x20\n  add\n  swap1\n  dup2\n  mstore\n  0x20\n  add\n  0x00\n  keccak256\n    /* \"contracts/1_Storage.sol\":718:736  stakingAPY[90] = 4 */\n  dup2\n  swap1\n  sstore\n  pop\n    /* \"contracts/1_Storage.sol\":764:765  6 */\n  0x06\n    /* \"contracts/1_Storage.sol\":746:756  stakingAPY */\n  dup1\n    /* \"contracts/1_Storage.sol\":746:761  stakingAPY[120] */\n  0x00\n    /* \"contracts/1_Storage.sol\":757:760  120 */\n  0x78\n    /* \"contracts/1_Storage.sol\":746:761  stakingAPY[120] */\n  dup2\n  mstore\n  0x20\n  add\n  swap1\n  dup2\n  mstore\n  0x20\n  add\n  0x00\n  keccak256\n    /* \"contracts/1_Storage.sol\":746:765  stakingAPY[120] = 6 */\n  dup2\n  swap1\n  sstore\n  pop\n    /* \"contracts/1_Storage.sol\":793:794  9 */\n  0x09\n    /* \"contracts/1_Storage.sol\":775:785  stakingAPY */\n  0x06\n    /* \"contracts/1_Storage.sol\":775:790  stakingAPY[180] */\n  0x00\n    /* \"contracts/1_Storage.sol\":786:789  180 */\n  0xb4\n    /* \"contracts/1_Storage.sol\":775:790  stakingAPY[180] */\n  dup2\n  mstore\n  0x20\n  add\n  swap1\n  dup2\n  mstore\n  0x20\n  add\n  0x00\n  keccak256\n    /* \"contracts/1_Storage.sol\":775:794  stakingAPY[180] = 9 */\n  dup2\n  swap1\n  sstore\n  pop\n    /* \"contracts/1_Storage.sol\":822:824  20 */\n  0x14\n    /* \"contracts/1_Storage.sol\":804:814  stakingAPY */\n  0x06\n    /* \"contracts/1_Storage.sol\":804:819  stakingAPY[365] */\n  0x00\n    /* \"contracts/1_Storage.sol\":815:818  365 */\n  0x016d\n    /* \"contracts/1_Storage.sol\":804:819  stakingAPY[365] */\n  dup2\n  mstore\n  0x20\n  add\n  swap1\n  dup2\n  mstore\n  0x20\n  add\n  0x00\n  keccak256\n    /* \"contracts/1_Storage.sol\":804:824  stakingAPY[365] = 20 */\n  dup2\n  swap1\n  sstore\n  pop\n    /* \"contracts/1_Storage.sol\":511:831  constructor(address _usdtToken) {... */\n  pop\n    /* \"contracts/1_Storage.sol\":382:6750  contract SikkaStakingDecentralize {... */\n  jump(tag_8)\ntag_2:\n  dup3\n  add(0x1f, 0x05)\n  0x20\n  swap1\n  div\n  dup2\n  add\n  swap3\n  dup3\n  iszero\n  tag_9\n  jumpi\n  swap2\n  0x20\n  mul\n  dup3\n  add\n  0x00\ntag_10:\n  dup4\n  dup3\n  gt\n  iszero\n  tag_11\n  jumpi\n  dup4\n  mload\n  dup4\n  dup3\n  0x0100\n  exp\n  dup2\n  sload\n  dup2\n  0xff\n  mul\n  not\n  and\n  swap1\n  dup4\n  0xff\n  and\n  mul\n  or\n  swap1\n  sstore\n  pop\n  swap3\n  0x20\n  add\n  swap3\n  0x01\n  add\n  0x20\n  dup2\n  0x00\n  add\n  div\n  swap3\n  dup4\n  add\n  swap3\n  0x01\n  sub\n  mul\n  jump(tag_10)\ntag_11:\n  dup1\n  iszero\n  tag_12\n  jumpi\n  dup3\n  dup2\n  0x0100\n  exp\n  dup2\n  sload\n  swap1\n  0xff\n  mul\n  not\n  and\n  swap1\n  sstore\n  0x01\n  add\n  0x20\n  dup2\n  0x00\n  add\n  div\n  swap3\n  dup4\n  add\n  swap3\n  0x01\n  sub\n  mul\n  jump(tag_11)\ntag_12:\n  pop\ntag_9:\n  pop\n  swap1\n  pop\n  tag_13\n  swap2\n  swap1\n  tag_14\n  jump\t// in\ntag_13:\n  pop\n  swap1\n  jump\t// out\ntag_14:\ntag_15:\n  dup1\n  dup3\n  gt\n  iszero\n  tag_16\n  jumpi\n  0x00\n  dup2\n  0x00\n  swap1\n  sstore\n  pop\n  0x01\n  add\n  jump(tag_15)\ntag_16:\n  pop\n  swap1\n  jump\t// out\n    /* \"#utility.yul\":88:205   */\ntag_18:\n    /* \"#utility.yul\":197:198   */\n  0x00\n    /* \"#utility.yul\":194:195   */\n  dup1\n    /* \"#utility.yul\":187:199   */\n  revert\n    /* \"#utility.yul\":334:460   */\ntag_20:\n    /* \"#utility.yul\":371:378   */\n  0x00\n    /* \"#utility.yul\":411:453   */\n  0xffffffffffffffffffffffffffffffffffffffff\n    /* \"#utility.yul\":404:409   */\n  dup3\n    /* \"#utility.yul\":400:454   */\n  and\n    /* \"#utility.yul\":389:454   */\n  swap1\n  pop\n    /* \"#utility.yul\":334:460   */\n  swap2\n  swap1\n  pop\n  jump\t// out\n    /* \"#utility.yul\":466:562   */\ntag_21:\n    /* \"#utility.yul\":503:510   */\n  0x00\n    /* \"#utility.yul\":532:556   */\n  tag_30\n    /* \"#utility.yul\":550:555   */\n  dup3\n    /* \"#utility.yul\":532:556   */\n  tag_20\n  jump\t// in\ntag_30:\n    /* \"#utility.yul\":521:556   */\n  swap1\n  pop\n    /* \"#utility.yul\":466:562   */\n  swap2\n  swap1\n  pop\n  jump\t// out\n    /* \"#utility.yul\":568:690   */\ntag_22:\n    /* \"#utility.yul\":641:665   */\n  tag_32\n    /* \"#utility.yul\":659:664   */\n  dup2\n    /* \"#utility.yul\":641:665   */\n  tag_21\n  jump\t// in\ntag_32:\n    /* \"#utility.yul\":634:639   */\n  dup2\n    /* \"#utility.yul\":631:666   */\n  eq\n    /* \"#utility.yul\":621:684   */\n  tag_33\n  jumpi\n    /* \"#utility.yul\":680:681   */\n  0x00\n    /* \"#utility.yul\":677:678   */\n  dup1\n    /* \"#utility.yul\":670:682   */\n  revert\n    /* \"#utility.yul\":621:684   */\ntag_33:\n    /* \"#utility.yul\":568:690   */\n  pop\n  jump\t// out\n    /* \"#utility.yul\":696:839   */\ntag_23:\n    /* \"#utility.yul\":753:758   */\n  0x00\n    /* \"#utility.yul\":784:790   */\n  dup2\n    /* \"#utility.yul\":778:791   */\n  mload\n    /* \"#utility.yul\":769:791   */\n  swap1\n  pop\n    /* \"#utility.yul\":800:833   */\n  tag_35\n    /* \"#utility.yul\":827:832   */\n  dup2\n    /* \"#utility.yul\":800:833   */\n  tag_22\n  jump\t// in\ntag_35:\n    /* \"#utility.yul\":696:839   */\n  swap3\n  swap2\n  pop\n  pop\n  jump\t// out\n    /* \"#utility.yul\":845:1196   */\ntag_5:\n    /* \"#utility.yul\":915:921   */\n  0x00\n    /* \"#utility.yul\":964:966   */\n  0x20\n    /* \"#utility.yul\":952:961   */\n  dup3\n    /* \"#utility.yul\":943:950   */\n  dup5\n    /* \"#utility.yul\":939:962   */\n  sub\n    /* \"#utility.yul\":935:967   */\n  slt\n    /* \"#utility.yul\":932:1051   */\n  iszero\n  tag_37\n  jumpi\n    /* \"#utility.yul\":970:1049   */\n  tag_38\n  tag_18\n  jump\t// in\ntag_38:\n    /* \"#utility.yul\":932:1051   */\ntag_37:\n    /* \"#utility.yul\":1090:1091   */\n  0x00\n    /* \"#utility.yul\":1115:1179   */\n  tag_39\n    /* \"#utility.yul\":1171:1178   */\n  dup5\n    /* \"#utility.yul\":1162:1168   */\n  dup3\n    /* \"#utility.yul\":1151:1160   */\n  dup6\n    /* \"#utility.yul\":1147:1169   */\n  add\n    /* \"#utility.yul\":1115:1179   */\n  tag_23\n  jump\t// in\ntag_39:\n    /* \"#utility.yul\":1105:1179   */\n  swap2\n  pop\n    /* \"#utility.yul\":1061:1189   */\n  pop\n    /* \"#utility.yul\":845:1196   */\n  swap3\n  swap2\n  pop\n  pop\n  jump\t// out\n    /* \"contracts/1_Storage.sol\":382:6750  contract SikkaStakingDecentralize {... */\ntag_8:\n  dataSize(sub_0)\n  dup1\n  dataOffset(sub_0)\n  0x00\n  codecopy\n  0x00\n  return\nstop\n\nsub_0: assembly {\n        /* \"contracts/1_Storage.sol\":382:6750  contract SikkaStakingDecentralize {... */\n      mstore(0x40, 0x80)\n      callvalue\n      dup1\n      iszero\n      tag_1\n      jumpi\n      0x00\n      dup1\n      revert\n    tag_1:\n      pop\n      jumpi(tag_2, lt(calldatasize, 0x04))\n      shr(0xe0, calldataload(0x00))\n      dup1\n      0xa2bdedf4\n      gt\n      tag_16\n      jumpi\n      dup1\n      0xe45a57d0\n      gt\n      tag_17\n      jumpi\n      dup1\n      0xe45a57d0\n      eq\n      tag_12\n      jumpi\n      dup1\n      0xf2fde38b\n      eq\n      tag_13\n      jumpi\n      dup1\n      0xf6e88873\n      eq\n      tag_14\n      jumpi\n      dup1\n      0xf7b17d10\n      eq\n      tag_15\n      jumpi\n      jump(tag_2)\n    tag_17:\n      dup1\n      0xa2bdedf4\n      eq\n      tag_9\n      jumpi\n      dup1\n      0xa87430ba\n      eq\n      tag_10\n      jumpi\n      dup1\n      0xa98ad46c\n      eq\n      tag_11\n      jumpi\n      jump(tag_2)\n    tag_16:\n      dup1\n      0x05ad3935\n      eq\n      tag_3\n      jumpi\n      dup1\n      0x1e43eb27\n      eq\n      tag_4\n      jumpi\n      dup1\n      0x4420e486\n      eq\n      tag_5\n      jumpi\n      dup1\n      0x7b0472f0\n      eq\n      tag_6\n      jumpi\n      dup1\n      0x875bb4e2\n      eq\n      tag_7\n      jumpi\n      dup1\n      0x8da5cb5b\n      eq\n      tag_8\n      jumpi\n    tag_2:\n      0x00\n      dup1\n      revert\n        /* \"contracts/1_Storage.sol\":1572:1629  mapping(address => ReferralInfo[]) public directReferrals */\n    tag_3:\n      tag_18\n      0x04\n      dup1\n      calldatasize\n      sub\n      dup2\n      add\n      swap1\n      tag_19\n      swap2\n      swap1\n      tag_20\n      jump\t// in\n    tag_19:\n      tag_21\n      jump\t// in\n    tag_18:\n      mload(0x40)\n      tag_22\n      swap4\n      swap3\n      swap2\n      swap1\n      tag_23\n      jump\t// in\n    tag_22:\n      mload(0x40)\n      dup1\n      swap2\n      sub\n      swap1\n      return\n        /* \"contracts/1_Storage.sol\":1635:1686  mapping(uint256 => address) public positionIdToUser */\n    tag_4:\n      tag_24\n      0x04\n      dup1\n      calldatasize\n      sub\n      dup2\n      add\n      swap1\n      tag_25\n      swap2\n      swap1\n      tag_26\n      jump\t// in\n    tag_25:\n      tag_27\n      jump\t// in\n    tag_24:\n      mload(0x40)\n      tag_28\n      swap2\n      swap1\n      tag_29\n      jump\t// in\n    tag_28:\n      mload(0x40)\n      dup1\n      swap2\n      sub\n      swap1\n      return\n        /* \"contracts/1_Storage.sol\":2334:3036  function register(address referrer) external {... */\n    tag_5:\n      tag_30\n      0x04\n      dup1\n      calldatasize\n      sub\n      dup2\n      add\n      swap1\n      tag_31\n      swap2\n      swap1\n      tag_32\n      jump\t// in\n    tag_31:\n      tag_33\n      jump\t// in\n    tag_30:\n      stop\n        /* \"contracts/1_Storage.sol\":3042:6215  function stake(uint256 numDays, uint256 amount) external onlyRegistered {... */\n    tag_6:\n      tag_34\n      0x04\n      dup1\n      calldatasize\n      sub\n      dup2\n      add\n      swap1\n      tag_35\n      swap2\n      swap1\n      tag_36\n      jump\t// in\n    tag_35:\n      tag_37\n      jump\t// in\n    tag_34:\n      stop\n        /* \"contracts/1_Storage.sol\":1692:1737  mapping(uint256 => uint256) public stakingAPY */\n    tag_7:\n      tag_38\n      0x04\n      dup1\n      calldatasize\n      sub\n      dup2\n      add\n      swap1\n      tag_39\n      swap2\n      swap1\n      tag_26\n      jump\t// in\n    tag_39:\n      tag_40\n      jump\t// in\n    tag_38:\n      mload(0x40)\n      tag_41\n      swap2\n      swap1\n      tag_42\n      jump\t// in\n    tag_41:\n      mload(0x40)\n      dup1\n      swap2\n      sub\n      swap1\n      return\n        /* \"contracts/1_Storage.sol\":422:442  address public owner */\n    tag_8:\n      tag_43\n      tag_44\n      jump\t// in\n    tag_43:\n      mload(0x40)\n      tag_45\n      swap2\n      swap1\n      tag_29\n      jump\t// in\n    tag_45:\n      mload(0x40)\n      dup1\n      swap2\n      sub\n      swap1\n      return\n        /* \"contracts/1_Storage.sol\":1805:1830  address[] public allUsers */\n    tag_9:\n      tag_46\n      0x04\n      dup1\n      calldatasize\n      sub\n      dup2\n      add\n      swap1\n      tag_47\n      swap2\n      swap1\n      tag_26\n      jump\t// in\n    tag_47:\n      tag_48\n      jump\t// in\n    tag_46:\n      mload(0x40)\n      tag_49\n      swap2\n      swap1\n      tag_29\n      jump\t// in\n    tag_49:\n      mload(0x40)\n      dup1\n      swap2\n      sub\n      swap1\n      return\n        /* \"contracts/1_Storage.sol\":1529:1566  mapping(address => User) public users */\n    tag_10:\n      tag_50\n      0x04\n      dup1\n      calldatasize\n      sub\n      dup2\n      add\n      swap1\n      tag_51\n      swap2\n      swap1\n      tag_32\n      jump\t// in\n    tag_51:\n      tag_52\n      jump\t// in\n    tag_50:\n      mload(0x40)\n      tag_53\n      swap5\n      swap4\n      swap3\n      swap2\n      swap1\n      tag_54\n      jump\t// in\n    tag_53:\n      mload(0x40)\n      dup1\n      swap2\n      sub\n      swap1\n      return\n        /* \"contracts/1_Storage.sol\":481:504  IERC20 public usdtToken */\n    tag_11:\n      tag_55\n      tag_56\n      jump\t// in\n    tag_55:\n      mload(0x40)\n      tag_57\n      swap2\n      swap1\n      tag_58\n      jump\t// in\n    tag_57:\n      mload(0x40)\n      dup1\n      swap2\n      sub\n      swap1\n      return\n        /* \"contracts/1_Storage.sol\":1836:1882  uint8[5] public levelRewards = [5, 3, 2, 1, 1] */\n    tag_12:\n      tag_59\n      0x04\n      dup1\n      calldatasize\n      sub\n      dup2\n      add\n      swap1\n      tag_60\n      swap2\n      swap1\n      tag_26\n      jump\t// in\n    tag_60:\n      tag_61\n      jump\t// in\n    tag_59:\n      mload(0x40)\n      tag_62\n      swap2\n      swap1\n      tag_63\n      jump\t// in\n    tag_62:\n      mload(0x40)\n      dup1\n      swap2\n      sub\n      swap1\n      return\n        /* \"contracts/1_Storage.sol\":6260:6748  function transferOwnership(address newOwner) external onlyOwner {... */\n    tag_13:\n      tag_64\n      0x04\n      dup1\n      calldatasize\n      sub\n      dup2\n      add\n      swap1\n      tag_65\n      swap2\n      swap1\n      tag_32\n      jump\t// in\n    tag_65:\n      tag_66\n      jump\t// in\n    tag_64:\n      stop\n        /* \"contracts/1_Storage.sol\":1743:1798  mapping(address => uint256) public directReferralIncome */\n    tag_14:\n      tag_67\n      0x04\n      dup1\n      calldatasize\n      sub\n      dup2\n      add\n      swap1\n      tag_68\n      swap2\n      swap1\n      tag_32\n      jump\t// in\n    tag_68:\n      tag_69\n      jump\t// in\n    tag_67:\n      mload(0x40)\n      tag_70\n      swap2\n      swap1\n      tag_42\n      jump\t// in\n    tag_70:\n      mload(0x40)\n      dup1\n      swap2\n      sub\n      swap1\n      return\n        /* \"contracts/1_Storage.sol\":448:475  uint256 public stakeCounter */\n    tag_15:\n      tag_71\n      tag_72\n      jump\t// in\n    tag_71:\n      mload(0x40)\n      tag_73\n      swap2\n      swap1\n      tag_42\n      jump\t// in\n    tag_73:\n      mload(0x40)\n      dup1\n      swap2\n      sub\n      swap1\n      return\n        /* \"contracts/1_Storage.sol\":1572:1629  mapping(address => ReferralInfo[]) public directReferrals */\n    tag_21:\n      mstore(0x20, 0x04)\n      dup2\n      0x00\n      mstore\n      keccak256(0x00, 0x40)\n      dup2\n      dup2\n      sload\n      dup2\n      lt\n      tag_74\n      jumpi\n      0x00\n      dup1\n      revert\n    tag_74:\n      swap1\n      0x00\n      mstore\n      keccak256(0x00, 0x20)\n      swap1\n      0x03\n      mul\n      add\n      0x00\n      swap2\n      pop\n      swap2\n      pop\n      pop\n      dup1\n      0x00\n      add\n      0x00\n      swap1\n      sload\n      swap1\n      0x0100\n      exp\n      swap1\n      div\n      0xffffffffffffffffffffffffffffffffffffffff\n      and\n      swap1\n      dup1\n      0x01\n      add\n      sload\n      swap1\n      dup1\n      0x02\n      add\n      sload\n      swap1\n      pop\n      dup4\n      jump\t// out\n        /* \"contracts/1_Storage.sol\":1635:1686  mapping(uint256 => address) public positionIdToUser */\n    tag_27:\n      mstore(0x20, 0x05)\n      dup1\n      0x00\n      mstore\n      keccak256(0x00, 0x40)\n      0x00\n      swap2\n      pop\n      sload\n      swap1\n      0x0100\n      exp\n      swap1\n      div\n      0xffffffffffffffffffffffffffffffffffffffff\n      and\n      dup2\n      jump\t// out\n        /* \"contracts/1_Storage.sol\":2334:3036  function register(address referrer) external {... */\n    tag_33:\n        /* \"contracts/1_Storage.sol\":2398:2403  users */\n      0x03\n        /* \"contracts/1_Storage.sol\":2398:2415  users[msg.sender] */\n      0x00\n        /* \"contracts/1_Storage.sol\":2404:2414  msg.sender */\n      caller\n        /* \"contracts/1_Storage.sol\":2398:2415  users[msg.sender] */\n      0xffffffffffffffffffffffffffffffffffffffff\n      and\n      0xffffffffffffffffffffffffffffffffffffffff\n      and\n      dup2\n      mstore\n      0x20\n      add\n      swap1\n      dup2\n      mstore\n      0x20\n      add\n      0x00\n      keccak256\n        /* \"contracts/1_Storage.sol\":2398:2426  users[msg.sender].registered */\n      0x04\n      add\n      0x00\n      swap1\n      sload\n      swap1\n      0x0100\n      exp\n      swap1\n      div\n      0xff\n      and\n        /* \"contracts/1_Storage.sol\":2397:2426  !users[msg.sender].registered */\n      iszero\n        /* \"contracts/1_Storage.sol\":2389:2449  require(!users[msg.sender].registered, \"Already registered\") */\n      tag_77\n      jumpi\n      mload(0x40)\n      0x08c379a000000000000000000000000000000000000000000000000000000000\n      dup2\n      mstore\n      0x04\n      add\n      tag_78\n      swap1\n      tag_79\n      jump\t// in\n    tag_78:\n      mload(0x40)\n      dup1\n      swap2\n      sub\n      swap1\n      revert\n    tag_77:\n        /* \"contracts/1_Storage.sol\":2479:2489  msg.sender */\n      caller\n        /* \"contracts/1_Storage.sol\":2467:2489  referrer != msg.sender */\n      0xffffffffffffffffffffffffffffffffffffffff\n      and\n        /* \"contracts/1_Storage.sol\":2467:2475  referrer */\n      dup2\n        /* \"contracts/1_Storage.sol\":2467:2489  referrer != msg.sender */\n      0xffffffffffffffffffffffffffffffffffffffff\n      and\n      sub\n        /* \"contracts/1_Storage.sol\":2459:2515  require(referrer != msg.sender, \"Cannot refer yourself\") */\n      tag_80\n      jumpi\n      mload(0x40)\n      0x08c379a000000000000000000000000000000000000000000000000000000000\n      dup2\n      mstore\n      0x04\n      add\n      tag_81\n      swap1\n      tag_82\n      jump\t// in\n    tag_81:\n      mload(0x40)\n      dup1\n      swap2\n      sub\n      swap1\n      revert\n    tag_80:\n        /* \"contracts/1_Storage.sol\":2533:2538  users */\n      0x03\n        /* \"contracts/1_Storage.sol\":2533:2548  users[referrer] */\n      0x00\n        /* \"contracts/1_Storage.sol\":2539:2547  referrer */\n      dup3\n        /* \"contracts/1_Storage.sol\":2533:2548  users[referrer] */\n      0xffffffffffffffffffffffffffffffffffffffff\n      and\n      0xffffffffffffffffffffffffffffffffffffffff\n      and\n      dup2\n      mstore\n      0x20\n      add\n      swap1\n      dup2\n      mstore\n      0x20\n      add\n      0x00\n      keccak256\n        /* \"contracts/1_Storage.sol\":2533:2559  users[referrer].registered */\n      0x04\n      add\n      0x00\n      swap1\n      sload\n      swap1\n      0x0100\n      exp\n      swap1\n      div\n      0xff\n      and\n        /* \"contracts/1_Storage.sol\":2525:2587  require(users[referrer].registered, \"Referrer not registered\") */\n      tag_83\n      jumpi\n      mload(0x40)\n      0x08c379a000000000000000000000000000000000000000000000000000000000\n      dup2\n      mstore\n      0x04\n      add\n      tag_84\n      swap1\n      tag_85\n      jump\t// in\n    tag_84:\n      mload(0x40)\n      dup1\n      swap2\n      sub\n      swap1\n      revert\n    tag_83:\n        /* \"contracts/1_Storage.sol\":2637:2638  0 */\n      0x00\n        /* \"contracts/1_Storage.sol\":2605:2610  users */\n      0x03\n        /* \"contracts/1_Storage.sol\":2605:2620  users[referrer] */\n      0x00\n        /* \"contracts/1_Storage.sol\":2611:2619  referrer */\n      dup4\n        /* \"contracts/1_Storage.sol\":2605:2620  users[referrer] */\n      0xffffffffffffffffffffffffffffffffffffffff\n      and\n      0xffffffffffffffffffffffffffffffffffffffff\n      and\n      dup2\n      mstore\n      0x20\n      add\n      swap1\n      dup2\n      mstore\n      0x20\n      add\n      0x00\n      keccak256\n        /* \"contracts/1_Storage.sol\":2605:2627  users[referrer].stakes */\n      0x01\n      add\n        /* \"contracts/1_Storage.sol\":2605:2634  users[referrer].stakes.length */\n      dup1\n      sload\n      swap1\n      pop\n        /* \"contracts/1_Storage.sol\":2605:2638  users[referrer].stakes.length > 0 */\n      gt\n        /* \"contracts/1_Storage.sol\":2597:2686  require(users[referrer].stakes.length > 0, \"Referrer must stake before you can register\") */\n      tag_86\n      jumpi\n      mload(0x40)\n      0x08c379a000000000000000000000000000000000000000000000000000000000\n      dup2\n      mstore\n      0x04\n      add\n      tag_87\n      swap1\n      tag_88\n      jump\t// in\n    tag_87:\n      mload(0x40)\n      dup1\n      swap2\n      sub\n      swap1\n      revert\n    tag_86:\n        /* \"contracts/1_Storage.sol\":2726:2734  referrer */\n      dup1\n        /* \"contracts/1_Storage.sol\":2697:2702  users */\n      0x03\n        /* \"contracts/1_Storage.sol\":2697:2714  users[msg.sender] */\n      0x00\n        /* \"contracts/1_Storage.sol\":2703:2713  msg.sender */\n      caller\n        /* \"contracts/1_Storage.sol\":2697:2714  users[msg.sender] */\n      0xffffffffffffffffffffffffffffffffffffffff\n      and\n      0xffffffffffffffffffffffffffffffffffffffff\n      and\n      dup2\n      mstore\n      0x20\n      add\n      swap1\n      dup2\n      mstore\n      0x20\n      add\n      0x00\n      keccak256\n        /* \"contracts/1_Storage.sol\":2697:2723  users[msg.sender].referrer */\n      0x00\n      add\n      0x00\n        /* \"contracts/1_Storage.sol\":2697:2734  users[msg.sender].referrer = referrer */\n      0x0100\n      exp\n      dup2\n      sload\n      dup2\n      0xffffffffffffffffffffffffffffffffffffffff\n      mul\n      not\n      and\n      swap1\n      dup4\n      0xffffffffffffffffffffffffffffffffffffffff\n      and\n      mul\n      or\n      swap1\n      sstore\n      pop\n        /* \"contracts/1_Storage.sol\":2775:2779  true */\n      0x01\n        /* \"contracts/1_Storage.sol\":2744:2749  users */\n      0x03\n        /* \"contracts/1_Storage.sol\":2744:2761  users[msg.sender] */\n      0x00\n        /* \"contracts/1_Storage.sol\":2750:2760  msg.sender */\n      caller\n        /* \"contracts/1_Storage.sol\":2744:2761  users[msg.sender] */\n      0xffffffffffffffffffffffffffffffffffffffff\n      and\n      0xffffffffffffffffffffffffffffffffffffffff\n      and\n      dup2\n      mstore\n      0x20\n      add\n      swap1\n      dup2\n      mstore\n      0x20\n      add\n      0x00\n      keccak256\n        /* \"contracts/1_Storage.sol\":2744:2772  users[msg.sender].registered */\n      0x04\n      add\n      0x00\n        /* \"contracts/1_Storage.sol\":2744:2779  users[msg.sender].registered = true */\n      0x0100\n      exp\n      dup2\n      sload\n      dup2\n      0xff\n      mul\n      not\n      and\n      swap1\n      dup4\n      iszero\n      iszero\n      mul\n      or\n      swap1\n      sstore\n      pop\n        /* \"contracts/1_Storage.sol\":2789:2797  allUsers */\n      0x08\n        /* \"contracts/1_Storage.sol\":2803:2813  msg.sender */\n      caller\n        /* \"contracts/1_Storage.sol\":2789:2814  allUsers.push(msg.sender) */\n      swap1\n      dup1\n      0x01\n      dup2\n      sload\n      add\n      dup1\n      dup3\n      sstore\n      dup1\n      swap2\n      pop\n      pop\n      0x01\n      swap1\n      sub\n      swap1\n      0x00\n      mstore\n      keccak256(0x00, 0x20)\n      add\n      0x00\n      swap1\n      swap2\n      swap1\n      swap2\n      swap1\n      swap2\n      0x0100\n      exp\n      dup2\n      sload\n      dup2\n      0xffffffffffffffffffffffffffffffffffffffff\n      mul\n      not\n      and\n      swap1\n      dup4\n      0xffffffffffffffffffffffffffffffffffffffff\n      and\n      mul\n      or\n      swap1\n      sstore\n      pop\n        /* \"contracts/1_Storage.sol\":2825:2840  directReferrals */\n      0x04\n        /* \"contracts/1_Storage.sol\":2825:2850  directReferrals[referrer] */\n      0x00\n        /* \"contracts/1_Storage.sol\":2841:2849  referrer */\n      dup3\n        /* \"contracts/1_Storage.sol\":2825:2850  directReferrals[referrer] */\n      0xffffffffffffffffffffffffffffffffffffffff\n      and\n      0xffffffffffffffffffffffffffffffffffffffff\n      and\n      dup2\n      mstore\n      0x20\n      add\n      swap1\n      dup2\n      mstore\n      0x20\n      add\n      0x00\n      keccak256\n        /* \"contracts/1_Storage.sol\":2869:3019  ReferralInfo({... */\n      mload(0x40)\n      dup1\n      0x60\n      add\n      0x40\n      mstore\n      dup1\n        /* \"contracts/1_Storage.sol\":2917:2927  msg.sender */\n      caller\n        /* \"contracts/1_Storage.sol\":2869:3019  ReferralInfo({... */\n      0xffffffffffffffffffffffffffffffffffffffff\n      and\n      dup2\n      mstore\n      0x20\n      add\n        /* \"contracts/1_Storage.sol\":2959:2960  0 */\n      0x00\n        /* \"contracts/1_Storage.sol\":2869:3019  ReferralInfo({... */\n      dup2\n      mstore\n      0x20\n      add\n        /* \"contracts/1_Storage.sol\":2989:3004  block.timestamp */\n      timestamp\n        /* \"contracts/1_Storage.sol\":2869:3019  ReferralInfo({... */\n      dup2\n      mstore\n      pop\n        /* \"contracts/1_Storage.sol\":2825:3029  directReferrals[referrer].push(... */\n      swap1\n      dup1\n      0x01\n      dup2\n      sload\n      add\n      dup1\n      dup3\n      sstore\n      dup1\n      swap2\n      pop\n      pop\n      0x01\n      swap1\n      sub\n      swap1\n      0x00\n      mstore\n      keccak256(0x00, 0x20)\n      swap1\n      0x03\n      mul\n      add\n      0x00\n      swap1\n      swap2\n      swap1\n      swap2\n      swap1\n      swap2\n      pop\n      0x00\n      dup3\n      add\n      mload\n      dup2\n      0x00\n      add\n      exp(0x0100, 0x00)\n      dup2\n      sload\n      dup2\n      0xffffffffffffffffffffffffffffffffffffffff\n      mul\n      not\n      and\n      swap1\n      dup4\n      0xffffffffffffffffffffffffffffffffffffffff\n      and\n      mul\n      or\n      swap1\n      sstore\n      pop\n      0x20\n      dup3\n      add\n      mload\n      dup2\n      0x01\n      add\n      sstore\n      0x40\n      dup3\n      add\n      mload\n      dup2\n      0x02\n      add\n      sstore\n      pop\n      pop\n        /* \"contracts/1_Storage.sol\":2334:3036  function register(address referrer) external {... */\n      pop\n      jump\t// out\n        /* \"contracts/1_Storage.sol\":3042:6215  function stake(uint256 numDays, uint256 amount) external onlyRegistered {... */\n    tag_37:\n        /* \"contracts/1_Storage.sol\":2152:2157  users */\n      0x03\n        /* \"contracts/1_Storage.sol\":2152:2169  users[msg.sender] */\n      0x00\n        /* \"contracts/1_Storage.sol\":2158:2168  msg.sender */\n      caller\n        /* \"contracts/1_Storage.sol\":2152:2169  users[msg.sender] */\n      0xffffffffffffffffffffffffffffffffffffffff\n      and\n      0xffffffffffffffffffffffffffffffffffffffff\n      and\n      dup2\n      mstore\n      0x20\n      add\n      swap1\n      dup2\n      mstore\n      0x20\n      add\n      0x00\n      keccak256\n        /* \"contracts/1_Storage.sol\":2152:2180  users[msg.sender].registered */\n      0x04\n      add\n      0x00\n      swap1\n      sload\n      swap1\n      0x0100\n      exp\n      swap1\n      div\n      0xff\n      and\n        /* \"contracts/1_Storage.sol\":2144:2199  require(users[msg.sender].registered, \"Not registered\") */\n      tag_92\n      jumpi\n      mload(0x40)\n      0x08c379a000000000000000000000000000000000000000000000000000000000\n      dup2\n      mstore\n      0x04\n      add\n      tag_93\n      swap1\n      tag_94\n      jump\t// in\n    tag_93:\n      mload(0x40)\n      dup1\n      swap2\n      sub\n      swap1\n      revert\n    tag_92:\n        /* \"contracts/1_Storage.sol\":3141:3142  0 */\n      0x00\n        /* \"contracts/1_Storage.sol\":3132:3138  amount */\n      dup2\n        /* \"contracts/1_Storage.sol\":3132:3142  amount > 0 */\n      gt\n        /* \"contracts/1_Storage.sol\":3124:3182  require(amount > 0, \"Stake amount must be greater than 0\") */\n      tag_96\n      jumpi\n      mload(0x40)\n      0x08c379a000000000000000000000000000000000000000000000000000000000\n      dup2\n      mstore\n      0x04\n      add\n      tag_97\n      swap1\n      tag_98\n      jump\t// in\n    tag_97:\n      mload(0x40)\n      dup1\n      swap2\n      sub\n      swap1\n      revert\n    tag_96:\n        /* \"contracts/1_Storage.sol\":3222:3223  0 */\n      0x00\n        /* \"contracts/1_Storage.sol\":3200:3210  stakingAPY */\n      0x06\n        /* \"contracts/1_Storage.sol\":3200:3219  stakingAPY[numDays] */\n      0x00\n        /* \"contracts/1_Storage.sol\":3211:3218  numDays */\n      dup5\n        /* \"contracts/1_Storage.sol\":3200:3219  stakingAPY[numDays] */\n      dup2\n      mstore\n      0x20\n      add\n      swap1\n      dup2\n      mstore\n      0x20\n      add\n      0x00\n      keccak256\n      sload\n        /* \"contracts/1_Storage.sol\":3200:3223  stakingAPY[numDays] > 0 */\n      gt\n        /* \"contracts/1_Storage.sol\":3192:3252  require(stakingAPY[numDays] > 0, \"Invalid staking duration\") */\n      tag_99\n      jumpi\n      mload(0x40)\n      0x08c379a000000000000000000000000000000000000000000000000000000000\n      dup2\n      mstore\n      0x04\n      add\n      tag_100\n      swap1\n      tag_101\n      jump\t// in\n    tag_100:\n      mload(0x40)\n      dup1\n      swap2\n      sub\n      swap1\n      revert\n    tag_99:\n        /* \"contracts/1_Storage.sol\":3263:3279  address referrer */\n      0x00\n        /* \"contracts/1_Storage.sol\":3282:3287  users */\n      0x03\n        /* \"contracts/1_Storage.sol\":3282:3299  users[msg.sender] */\n      0x00\n        /* \"contracts/1_Storage.sol\":3288:3298  msg.sender */\n      caller\n        /* \"contracts/1_Storage.sol\":3282:3299  users[msg.sender] */\n      0xffffffffffffffffffffffffffffffffffffffff\n      and\n      0xffffffffffffffffffffffffffffffffffffffff\n      and\n      dup2\n      mstore\n      0x20\n      add\n      swap1\n      dup2\n      mstore\n      0x20\n      add\n      0x00\n      keccak256\n        /* \"contracts/1_Storage.sol\":3282:3308  users[msg.sender].referrer */\n      0x00\n      add\n      0x00\n      swap1\n      sload\n      swap1\n      0x0100\n      exp\n      swap1\n      div\n      0xffffffffffffffffffffffffffffffffffffffff\n      and\n        /* \"contracts/1_Storage.sol\":3263:3308  address referrer = users[msg.sender].referrer */\n      swap1\n      pop\n        /* \"contracts/1_Storage.sol\":3343:3344  0 */\n      0x00\n        /* \"contracts/1_Storage.sol\":3323:3345  referrer != address(0) */\n      0xffffffffffffffffffffffffffffffffffffffff\n      and\n        /* \"contracts/1_Storage.sol\":3323:3331  referrer */\n      dup2\n        /* \"contracts/1_Storage.sol\":3323:3345  referrer != address(0) */\n      0xffffffffffffffffffffffffffffffffffffffff\n      and\n      eq\n        /* \"contracts/1_Storage.sol\":3319:3458  if (referrer != address(0)) {... */\n      tag_102\n      jumpi\n        /* \"contracts/1_Storage.sol\":3401:3402  0 */\n      0x00\n        /* \"contracts/1_Storage.sol\":3369:3374  users */\n      0x03\n        /* \"contracts/1_Storage.sol\":3369:3384  users[referrer] */\n      0x00\n        /* \"contracts/1_Storage.sol\":3375:3383  referrer */\n      dup4\n        /* \"contracts/1_Storage.sol\":3369:3384  users[referrer] */\n      0xffffffffffffffffffffffffffffffffffffffff\n      and\n      0xffffffffffffffffffffffffffffffffffffffff\n      and\n      dup2\n      mstore\n      0x20\n      add\n      swap1\n      dup2\n      mstore\n      0x20\n      add\n      0x00\n      keccak256\n        /* \"contracts/1_Storage.sol\":3369:3391  users[referrer].stakes */\n      0x01\n      add\n        /* \"contracts/1_Storage.sol\":3369:3398  users[referrer].stakes.length */\n      dup1\n      sload\n      swap1\n      pop\n        /* \"contracts/1_Storage.sol\":3369:3402  users[referrer].stakes.length > 0 */\n      gt\n        /* \"contracts/1_Storage.sol\":3361:3447  require(users[referrer].stakes.length > 0, \"Referrer must stake before you can stake\") */\n      tag_103\n      jumpi\n      mload(0x40)\n      0x08c379a000000000000000000000000000000000000000000000000000000000\n      dup2\n      mstore\n      0x04\n      add\n      tag_104\n      swap1\n      tag_105\n      jump\t// in\n    tag_104:\n      mload(0x40)\n      dup1\n      swap2\n      sub\n      swap1\n      revert\n    tag_103:\n        /* \"contracts/1_Storage.sol\":3319:3458  if (referrer != address(0)) {... */\n    tag_102:\n        /* \"contracts/1_Storage.sol\":3468:3480  bool success */\n      0x00\n        /* \"contracts/1_Storage.sol\":3483:3492  usdtToken */\n      0x02\n      0x00\n      swap1\n      sload\n      swap1\n      0x0100\n      exp\n      swap1\n      div\n      0xffffffffffffffffffffffffffffffffffffffff\n      and\n        /* \"contracts/1_Storage.sol\":3483:3505  usdtToken.transferFrom */\n      0xffffffffffffffffffffffffffffffffffffffff\n      and\n      0x23b872dd\n        /* \"contracts/1_Storage.sol\":3506:3516  msg.sender */\n      caller\n        /* \"contracts/1_Storage.sol\":3526:3530  this */\n      address\n        /* \"contracts/1_Storage.sol\":3533:3539  amount */\n      dup7\n        /* \"contracts/1_Storage.sol\":3483:3540  usdtToken.transferFrom(msg.sender, address(this), amount) */\n      mload(0x40)\n      dup5\n      0xffffffff\n      and\n      0xe0\n      shl\n      dup2\n      mstore\n      0x04\n      add\n      tag_106\n      swap4\n      swap3\n      swap2\n      swap1\n      tag_107\n      jump\t// in\n    tag_106:\n      0x20\n      mload(0x40)\n      dup1\n      dup4\n      sub\n      dup2\n      0x00\n      dup8\n      gas\n      call\n      iszero\n      dup1\n      iszero\n      tag_109\n      jumpi\n      returndatasize\n      0x00\n      dup1\n      returndatacopy\n      revert(0x00, returndatasize)\n    tag_109:\n      pop\n      pop\n      pop\n      pop\n      mload(0x40)\n      returndatasize\n      not(0x1f)\n      0x1f\n      dup3\n      add\n      and\n      dup3\n      add\n      dup1\n      0x40\n      mstore\n      pop\n      dup2\n      add\n      swap1\n      tag_110\n      swap2\n      swap1\n      tag_111\n      jump\t// in\n    tag_110:\n        /* \"contracts/1_Storage.sol\":3468:3540  bool success = usdtToken.transferFrom(msg.sender, address(this), amount) */\n      swap1\n      pop\n        /* \"contracts/1_Storage.sol\":3558:3565  success */\n      dup1\n        /* \"contracts/1_Storage.sol\":3550:3590  require(success, \"USDT transfer failed\") */\n      tag_112\n      jumpi\n      mload(0x40)\n      0x08c379a000000000000000000000000000000000000000000000000000000000\n      dup2\n      mstore\n      0x04\n      add\n      tag_113\n      swap1\n      tag_114\n      jump\t// in\n    tag_113:\n      mload(0x40)\n      dup1\n      swap2\n      sub\n      swap1\n      revert\n    tag_112:\n        /* \"contracts/1_Storage.sol\":3601:3619  uint256 positionId */\n      0x00\n        /* \"contracts/1_Storage.sol\":3624:3636  stakeCounter */\n      0x01\n      0x00\n        /* \"contracts/1_Storage.sol\":3622:3636  ++stakeCounter */\n      dup2\n      sload\n      tag_115\n      swap1\n      tag_116\n      jump\t// in\n    tag_115:\n      swap2\n      swap1\n      pop\n      dup2\n      swap1\n      sstore\n        /* \"contracts/1_Storage.sol\":3601:3636  uint256 positionId = ++stakeCounter */\n      swap1\n      pop\n        /* \"contracts/1_Storage.sol\":3647:3652  users */\n      0x03\n        /* \"contracts/1_Storage.sol\":3647:3664  users[msg.sender] */\n      0x00\n        /* \"contracts/1_Storage.sol\":3653:3663  msg.sender */\n      caller\n        /* \"contracts/1_Storage.sol\":3647:3664  users[msg.sender] */\n      0xffffffffffffffffffffffffffffffffffffffff\n      and\n      0xffffffffffffffffffffffffffffffffffffffff\n      and\n      dup2\n      mstore\n      0x20\n      add\n      swap1\n      dup2\n      mstore\n      0x20\n      add\n      0x00\n      keccak256\n        /* \"contracts/1_Storage.sol\":3647:3671  users[msg.sender].stakes */\n      0x01\n      add\n        /* \"contracts/1_Storage.sol\":3690:3932  Stake({... */\n      mload(0x40)\n      dup1\n      0xc0\n      add\n      0x40\n      mstore\n      dup1\n        /* \"contracts/1_Storage.sol\":3723:3735  stakeCounter */\n      sload(0x01)\n        /* \"contracts/1_Storage.sol\":3690:3932  Stake({... */\n      dup2\n      mstore\n      0x20\n      add\n        /* \"contracts/1_Storage.sol\":3765:3775  positionId */\n      dup4\n        /* \"contracts/1_Storage.sol\":3690:3932  Stake({... */\n      dup2\n      mstore\n      0x20\n      add\n        /* \"contracts/1_Storage.sol\":3801:3807  amount */\n      dup7\n        /* \"contracts/1_Storage.sol\":3690:3932  Stake({... */\n      dup2\n      mstore\n      0x20\n      add\n        /* \"contracts/1_Storage.sol\":3836:3851  block.timestamp */\n      timestamp\n        /* \"contracts/1_Storage.sol\":3690:3932  Stake({... */\n      dup2\n      mstore\n      0x20\n      add\n        /* \"contracts/1_Storage.sol\":3878:3885  numDays */\n      dup8\n        /* \"contracts/1_Storage.sol\":3690:3932  Stake({... */\n      dup2\n      mstore\n      0x20\n      add\n        /* \"contracts/1_Storage.sol\":3912:3917  false */\n      0x00\n        /* \"contracts/1_Storage.sol\":3690:3932  Stake({... */\n      iszero\n      iszero\n      dup2\n      mstore\n      pop\n        /* \"contracts/1_Storage.sol\":3647:3942  users[msg.sender].stakes.push(... */\n      swap1\n      dup1\n      0x01\n      dup2\n      sload\n      add\n      dup1\n      dup3\n      sstore\n      dup1\n      swap2\n      pop\n      pop\n      0x01\n      swap1\n      sub\n      swap1\n      0x00\n      mstore\n      keccak256(0x00, 0x20)\n      swap1\n      0x06\n      mul\n      add\n      0x00\n      swap1\n      swap2\n      swap1\n      swap2\n      swap1\n      swap2\n      pop\n      0x00\n      dup3\n      add\n      mload\n      dup2\n      0x00\n      add\n      sstore\n      0x20\n      dup3\n      add\n      mload\n      dup2\n      0x01\n      add\n      sstore\n      0x40\n      dup3\n      add\n      mload\n      dup2\n      0x02\n      add\n      sstore\n      0x60\n      dup3\n      add\n      mload\n      dup2\n      0x03\n      add\n      sstore\n      0x80\n      dup3\n      add\n      mload\n      dup2\n      0x04\n      add\n      sstore\n      0xa0\n      dup3\n      add\n      mload\n      dup2\n      0x05\n      add\n      exp(0x0100, 0x00)\n      dup2\n      sload\n      dup2\n      0xff\n      mul\n      not\n      and\n      swap1\n      dup4\n      iszero\n      iszero\n      mul\n      or\n      swap1\n      sstore\n      pop\n      pop\n      pop\n        /* \"contracts/1_Storage.sol\":3984:3994  msg.sender */\n      caller\n        /* \"contracts/1_Storage.sol\":3953:3969  positionIdToUser */\n      0x05\n        /* \"contracts/1_Storage.sol\":3953:3981  positionIdToUser[positionId] */\n      0x00\n        /* \"contracts/1_Storage.sol\":3970:3980  positionId */\n      dup4\n        /* \"contracts/1_Storage.sol\":3953:3981  positionIdToUser[positionId] */\n      dup2\n      mstore\n      0x20\n      add\n      swap1\n      dup2\n      mstore\n      0x20\n      add\n      0x00\n      keccak256\n      0x00\n        /* \"contracts/1_Storage.sol\":3953:3994  positionIdToUser[positionId] = msg.sender */\n      0x0100\n      exp\n      dup2\n      sload\n      dup2\n      0xffffffffffffffffffffffffffffffffffffffff\n      mul\n      not\n      and\n      swap1\n      dup4\n      0xffffffffffffffffffffffffffffffffffffffff\n      and\n      mul\n      or\n      swap1\n      sstore\n      pop\n        /* \"contracts/1_Storage.sol\":4005:4022  bool isFirstStake */\n      0x00\n        /* \"contracts/1_Storage.sol\":4060:4061  1 */\n      0x01\n        /* \"contracts/1_Storage.sol\":4025:4030  users */\n      0x03\n        /* \"contracts/1_Storage.sol\":4025:4042  users[msg.sender] */\n      0x00\n        /* \"contracts/1_Storage.sol\":4031:4041  msg.sender */\n      caller\n        /* \"contracts/1_Storage.sol\":4025:4042  users[msg.sender] */\n      0xffffffffffffffffffffffffffffffffffffffff\n      and\n      0xffffffffffffffffffffffffffffffffffffffff\n      and\n      dup2\n      mstore\n      0x20\n      add\n      swap1\n      dup2\n      mstore\n      0x20\n      add\n      0x00\n      keccak256\n        /* \"contracts/1_Storage.sol\":4025:4049  users[msg.sender].stakes */\n      0x01\n      add\n        /* \"contracts/1_Storage.sol\":4025:4056  users[msg.sender].stakes.length */\n      dup1\n      sload\n      swap1\n      pop\n        /* \"contracts/1_Storage.sol\":4025:4061  users[msg.sender].stakes.length == 1 */\n      eq\n        /* \"contracts/1_Storage.sol\":4005:4061  bool isFirstStake = users[msg.sender].stakes.length == 1 */\n      swap1\n      pop\n        /* \"contracts/1_Storage.sol\":4071:4085  address upline */\n      0x00\n        /* \"contracts/1_Storage.sol\":4088:4093  users */\n      0x03\n        /* \"contracts/1_Storage.sol\":4088:4105  users[msg.sender] */\n      0x00\n        /* \"contracts/1_Storage.sol\":4094:4104  msg.sender */\n      caller\n        /* \"contracts/1_Storage.sol\":4088:4105  users[msg.sender] */\n      0xffffffffffffffffffffffffffffffffffffffff\n      and\n      0xffffffffffffffffffffffffffffffffffffffff\n      and\n      dup2\n      mstore\n      0x20\n      add\n      swap1\n      dup2\n      mstore\n      0x20\n      add\n      0x00\n      keccak256\n        /* \"contracts/1_Storage.sol\":4088:4114  users[msg.sender].referrer */\n      0x00\n      add\n      0x00\n      swap1\n      sload\n      swap1\n      0x0100\n      exp\n      swap1\n      div\n      0xffffffffffffffffffffffffffffffffffffffff\n      and\n        /* \"contracts/1_Storage.sol\":4071:4114  address upline = users[msg.sender].referrer */\n      swap1\n      pop\n        /* \"contracts/1_Storage.sol\":4130:4137  uint8 i */\n      0x00\n        /* \"contracts/1_Storage.sol\":4125:6209  for (uint8 i = 0; i < levelRewards.length && upline != address(0); i++) {... */\n    tag_118:\n        /* \"contracts/1_Storage.sol\":4147:4166  levelRewards.length */\n      0x05\n        /* \"contracts/1_Storage.sol\":4143:4144  i */\n      dup2\n        /* \"contracts/1_Storage.sol\":4143:4166  i < levelRewards.length */\n      0xff\n      and\n      lt\n        /* \"contracts/1_Storage.sol\":4143:4190  i < levelRewards.length && upline != address(0) */\n      dup1\n      iszero\n      tag_121\n      jumpi\n      pop\n        /* \"contracts/1_Storage.sol\":4188:4189  0 */\n      0x00\n        /* \"contracts/1_Storage.sol\":4170:4190  upline != address(0) */\n      0xffffffffffffffffffffffffffffffffffffffff\n      and\n        /* \"contracts/1_Storage.sol\":4170:4176  upline */\n      dup3\n        /* \"contracts/1_Storage.sol\":4170:4190  upline != address(0) */\n      0xffffffffffffffffffffffffffffffffffffffff\n      and\n      eq\n      iszero\n        /* \"contracts/1_Storage.sol\":4143:4190  i < levelRewards.length && upline != address(0) */\n    tag_121:\n        /* \"contracts/1_Storage.sol\":4125:6209  for (uint8 i = 0; i < levelRewards.length && upline != address(0); i++) {... */\n      iszero\n      tag_119\n      jumpi\n        /* \"contracts/1_Storage.sol\":4211:4225  uint256 reward */\n      0x00\n        /* \"contracts/1_Storage.sol\":4253:4254  0 */\n      dup1\n        /* \"contracts/1_Storage.sol\":4248:4249  i */\n      dup3\n        /* \"contracts/1_Storage.sol\":4248:4254  i == 0 */\n      0xff\n      and\n      sub\n        /* \"contracts/1_Storage.sol\":4244:6153  if (i == 0) {... */\n      tag_122\n      jumpi\n        /* \"contracts/1_Storage.sol\":4278:4290  isFirstStake */\n      dup4\n        /* \"contracts/1_Storage.sol\":4274:5755  if (isFirstStake) {... */\n      iszero\n      tag_123\n      jumpi\n        /* \"contracts/1_Storage.sol\":4314:4334  uint256 directReward */\n      0x00\n        /* \"contracts/1_Storage.sol\":4352:4355  100 */\n      0x64\n        /* \"contracts/1_Storage.sol\":4347:4348  5 */\n      0x05\n        /* \"contracts/1_Storage.sol\":4338:4344  amount */\n      dup11\n        /* \"contracts/1_Storage.sol\":4338:4348  amount * 5 */\n      tag_124\n      swap2\n      swap1\n      tag_125\n      jump\t// in\n    tag_124:\n        /* \"contracts/1_Storage.sol\":4337:4355  (amount * 5) / 100 */\n      tag_126\n      swap2\n      swap1\n      tag_127\n      jump\t// in\n    tag_126:\n        /* \"contracts/1_Storage.sol\":4314:4355  uint256 directReward = (amount * 5) / 100 */\n      swap1\n      pop\n        /* \"contracts/1_Storage.sol\":4377:4397  uint256 level1Reward */\n      0x00\n        /* \"contracts/1_Storage.sol\":4415:4418  100 */\n      0x64\n        /* \"contracts/1_Storage.sol\":4410:4411  5 */\n      0x05\n        /* \"contracts/1_Storage.sol\":4401:4407  amount */\n      dup12\n        /* \"contracts/1_Storage.sol\":4401:4411  amount * 5 */\n      tag_128\n      swap2\n      swap1\n      tag_125\n      jump\t// in\n    tag_128:\n        /* \"contracts/1_Storage.sol\":4400:4418  (amount * 5) / 100 */\n      tag_129\n      swap2\n      swap1\n      tag_127\n      jump\t// in\n    tag_129:\n        /* \"contracts/1_Storage.sol\":4377:4418  uint256 level1Reward = (amount * 5) / 100 */\n      swap1\n      pop\n        /* \"contracts/1_Storage.sol\":4502:4514  level1Reward */\n      dup1\n        /* \"contracts/1_Storage.sol\":4487:4499  directReward */\n      dup3\n        /* \"contracts/1_Storage.sol\":4487:4514  directReward + level1Reward */\n      tag_130\n      swap2\n      swap1\n      tag_131\n      jump\t// in\n    tag_130:\n        /* \"contracts/1_Storage.sol\":4449:4458  usdtToken */\n      0x02\n      0x00\n      swap1\n      sload\n      swap1\n      0x0100\n      exp\n      swap1\n      div\n      0xffffffffffffffffffffffffffffffffffffffff\n      and\n        /* \"contracts/1_Storage.sol\":4449:4468  usdtToken.balanceOf */\n      0xffffffffffffffffffffffffffffffffffffffff\n      and\n      0x70a08231\n        /* \"contracts/1_Storage.sol\":4477:4481  this */\n      address\n        /* \"contracts/1_Storage.sol\":4449:4483  usdtToken.balanceOf(address(this)) */\n      mload(0x40)\n      dup3\n      0xffffffff\n      and\n      0xe0\n      shl\n      dup2\n      mstore\n      0x04\n      add\n      tag_132\n      swap2\n      swap1\n      tag_29\n      jump\t// in\n    tag_132:\n      0x20\n      mload(0x40)\n      dup1\n      dup4\n      sub\n      dup2\n      dup7\n      gas\n      staticcall\n      iszero\n      dup1\n      iszero\n      tag_134\n      jumpi\n      returndatasize\n      0x00\n      dup1\n      returndatacopy\n      revert(0x00, returndatasize)\n    tag_134:\n      pop\n      pop\n      pop\n      pop\n      mload(0x40)\n      returndatasize\n      not(0x1f)\n      0x1f\n      dup3\n      add\n      and\n      dup3\n      add\n      dup1\n      0x40\n      mstore\n      pop\n      dup2\n      add\n      swap1\n      tag_135\n      swap2\n      swap1\n      tag_136\n      jump\t// in\n    tag_135:\n        /* \"contracts/1_Storage.sol\":4449:4514  usdtToken.balanceOf(address(this)) >= directReward + level1Reward */\n      lt\n      iszero\n        /* \"contracts/1_Storage.sol\":4441:4548  require(usdtToken.balanceOf(address(this)) >= directReward + level1Reward, \"Insufficient contract balance\") */\n      tag_137\n      jumpi\n      mload(0x40)\n      0x08c379a000000000000000000000000000000000000000000000000000000000\n      dup2\n      mstore\n      0x04\n      add\n      tag_138\n      swap1\n      tag_139\n      jump\t// in\n    tag_138:\n      mload(0x40)\n      dup1\n      swap2\n      sub\n      swap1\n      revert\n    tag_137:\n        /* \"contracts/1_Storage.sol\":4579:4588  usdtToken */\n      0x02\n      0x00\n      swap1\n      sload\n      swap1\n      0x0100\n      exp\n      swap1\n      div\n      0xffffffffffffffffffffffffffffffffffffffff\n      and\n        /* \"contracts/1_Storage.sol\":4579:4597  usdtToken.transfer */\n      0xffffffffffffffffffffffffffffffffffffffff\n      and\n      0xa9059cbb\n        /* \"contracts/1_Storage.sol\":4598:4604  upline */\n      dup7\n        /* \"contracts/1_Storage.sol\":4606:4618  directReward */\n      dup5\n        /* \"contracts/1_Storage.sol\":4579:4619  usdtToken.transfer(upline, directReward) */\n      mload(0x40)\n      dup4\n      0xffffffff\n      and\n      0xe0\n      shl\n      dup2\n      mstore\n      0x04\n      add\n      tag_140\n      swap3\n      swap2\n      swap1\n      tag_141\n      jump\t// in\n    tag_140:\n      0x20\n      mload(0x40)\n      dup1\n      dup4\n      sub\n      dup2\n      0x00\n      dup8\n      gas\n      call\n      iszero\n      dup1\n      iszero\n      tag_143\n      jumpi\n      returndatasize\n      0x00\n      dup1\n      returndatacopy\n      revert(0x00, returndatasize)\n    tag_143:\n      pop\n      pop\n      pop\n      pop\n      mload(0x40)\n      returndatasize\n      not(0x1f)\n      0x1f\n      dup3\n      add\n      and\n      dup3\n      add\n      dup1\n      0x40\n      mstore\n      pop\n      dup2\n      add\n      swap1\n      tag_144\n      swap2\n      swap1\n      tag_111\n      jump\t// in\n    tag_144:\n        /* \"contracts/1_Storage.sol\":4571:4655  require(usdtToken.transfer(upline, directReward), \"Direct referral transfer failed\") */\n      tag_145\n      jumpi\n      mload(0x40)\n      0x08c379a000000000000000000000000000000000000000000000000000000000\n      dup2\n      mstore\n      0x04\n      add\n      tag_146\n      swap1\n      tag_147\n      jump\t// in\n    tag_146:\n      mload(0x40)\n      dup1\n      swap2\n      sub\n      swap1\n      revert\n    tag_145:\n        /* \"contracts/1_Storage.sol\":4685:4694  usdtToken */\n      0x02\n      0x00\n      swap1\n      sload\n      swap1\n      0x0100\n      exp\n      swap1\n      div\n      0xffffffffffffffffffffffffffffffffffffffff\n      and\n        /* \"contracts/1_Storage.sol\":4685:4703  usdtToken.transfer */\n      0xffffffffffffffffffffffffffffffffffffffff\n      and\n      0xa9059cbb\n        /* \"contracts/1_Storage.sol\":4704:4710  upline */\n      dup7\n        /* \"contracts/1_Storage.sol\":4712:4724  level1Reward */\n      dup4\n        /* \"contracts/1_Storage.sol\":4685:4725  usdtToken.transfer(upline, level1Reward) */\n      mload(0x40)\n      dup4\n      0xffffffff\n      and\n      0xe0\n      shl\n      dup2\n      mstore\n      0x04\n      add\n      tag_148\n      swap3\n      swap2\n      swap1\n      tag_141\n      jump\t// in\n    tag_148:\n      0x20\n      mload(0x40)\n      dup1\n      dup4\n      sub\n      dup2\n      0x00\n      dup8\n      gas\n      call\n      iszero\n      dup1\n      iszero\n      tag_150\n      jumpi\n      returndatasize\n      0x00\n      dup1\n      returndatacopy\n      revert(0x00, returndatasize)\n    tag_150:\n      pop\n      pop\n      pop\n      pop\n      mload(0x40)\n      returndatasize\n      not(0x1f)\n      0x1f\n      dup3\n      add\n      and\n      dup3\n      add\n      dup1\n      0x40\n      mstore\n      pop\n      dup2\n      add\n      swap1\n      tag_151\n      swap2\n      swap1\n      tag_111\n      jump\t// in\n    tag_151:\n        /* \"contracts/1_Storage.sol\":4677:4760  require(usdtToken.transfer(upline, level1Reward), \"Level 1 reward transfer failed\") */\n      tag_152\n      jumpi\n      mload(0x40)\n      0x08c379a000000000000000000000000000000000000000000000000000000000\n      dup2\n      mstore\n      0x04\n      add\n      tag_153\n      swap1\n      tag_154\n      jump\t// in\n    tag_153:\n      mload(0x40)\n      dup1\n      swap2\n      sub\n      swap1\n      revert\n    tag_152:\n        /* \"contracts/1_Storage.sol\":4815:4827  directReward */\n      dup2\n        /* \"contracts/1_Storage.sol\":4783:4803  directReferralIncome */\n      0x07\n        /* \"contracts/1_Storage.sol\":4783:4811  directReferralIncome[upline] */\n      0x00\n        /* \"contracts/1_Storage.sol\":4804:4810  upline */\n      dup8\n        /* \"contracts/1_Storage.sol\":4783:4811  directReferralIncome[upline] */\n      0xffffffffffffffffffffffffffffffffffffffff\n      and\n      0xffffffffffffffffffffffffffffffffffffffff\n      and\n      dup2\n      mstore\n      0x20\n      add\n      swap1\n      dup2\n      mstore\n      0x20\n      add\n      0x00\n      keccak256\n      0x00\n        /* \"contracts/1_Storage.sol\":4783:4827  directReferralIncome[upline] += directReward */\n      dup3\n      dup3\n      sload\n      tag_155\n      swap2\n      swap1\n      tag_131\n      jump\t// in\n    tag_155:\n      swap3\n      pop\n      pop\n      dup2\n      swap1\n      sstore\n      pop\n        /* \"contracts/1_Storage.sol\":4893:4905  level1Reward */\n      dup1\n        /* \"contracts/1_Storage.sol\":4878:4890  directReward */\n      dup3\n        /* \"contracts/1_Storage.sol\":4878:4905  directReward + level1Reward */\n      tag_156\n      swap2\n      swap1\n      tag_131\n      jump\t// in\n    tag_156:\n        /* \"contracts/1_Storage.sol\":4849:4854  users */\n      0x03\n        /* \"contracts/1_Storage.sol\":4849:4862  users[upline] */\n      0x00\n        /* \"contracts/1_Storage.sol\":4855:4861  upline */\n      dup8\n        /* \"contracts/1_Storage.sol\":4849:4862  users[upline] */\n      0xffffffffffffffffffffffffffffffffffffffff\n      and\n      0xffffffffffffffffffffffffffffffffffffffff\n      and\n      dup2\n      mstore\n      0x20\n      add\n      swap1\n      dup2\n      mstore\n      0x20\n      add\n      0x00\n      keccak256\n        /* \"contracts/1_Storage.sol\":4849:4874  users[upline].totalIncome */\n      0x02\n      add\n      0x00\n        /* \"contracts/1_Storage.sol\":4849:4905  users[upline].totalIncome += directReward + level1Reward */\n      dup3\n      dup3\n      sload\n      tag_157\n      swap2\n      swap1\n      tag_131\n      jump\t// in\n    tag_157:\n      swap3\n      pop\n      pop\n      dup2\n      swap1\n      sstore\n      pop\n        /* \"contracts/1_Storage.sol\":4956:4968  level1Reward */\n      dup1\n        /* \"contracts/1_Storage.sol\":4927:4932  users */\n      0x03\n        /* \"contracts/1_Storage.sol\":4927:4940  users[upline] */\n      0x00\n        /* \"contracts/1_Storage.sol\":4933:4939  upline */\n      dup8\n        /* \"contracts/1_Storage.sol\":4927:4940  users[upline] */\n      0xffffffffffffffffffffffffffffffffffffffff\n      and\n      0xffffffffffffffffffffffffffffffffffffffff\n      and\n      dup2\n      mstore\n      0x20\n      add\n      swap1\n      dup2\n      mstore\n      0x20\n      add\n      0x00\n      keccak256\n        /* \"contracts/1_Storage.sol\":4927:4952  users[upline].levelIncome */\n      0x03\n      add\n      0x00\n        /* \"contracts/1_Storage.sol\":4927:4968  users[upline].levelIncome += level1Reward */\n      dup3\n      dup3\n      sload\n      tag_158\n      swap2\n      swap1\n      tag_131\n      jump\t// in\n    tag_158:\n      swap3\n      pop\n      pop\n      dup2\n      swap1\n      sstore\n      pop\n        /* \"contracts/1_Storage.sol\":4991:5018  ReferralInfo[] storage refs */\n      0x00\n        /* \"contracts/1_Storage.sol\":5021:5036  directReferrals */\n      0x04\n        /* \"contracts/1_Storage.sol\":5021:5044  directReferrals[upline] */\n      0x00\n        /* \"contracts/1_Storage.sol\":5037:5043  upline */\n      dup8\n        /* \"contracts/1_Storage.sol\":5021:5044  directReferrals[upline] */\n      0xffffffffffffffffffffffffffffffffffffffff\n      and\n      0xffffffffffffffffffffffffffffffffffffffff\n      and\n      dup2\n      mstore\n      0x20\n      add\n      swap1\n      dup2\n      mstore\n      0x20\n      add\n      0x00\n      keccak256\n        /* \"contracts/1_Storage.sol\":4991:5044  ReferralInfo[] storage refs = directReferrals[upline] */\n      swap1\n      pop\n        /* \"contracts/1_Storage.sol\":5071:5080  uint256 j */\n      0x00\n        /* \"contracts/1_Storage.sol\":5066:5327  for (uint256 j = 0; j < refs.length; j++) {... */\n    tag_159:\n        /* \"contracts/1_Storage.sol\":5090:5094  refs */\n      dup2\n        /* \"contracts/1_Storage.sol\":5090:5101  refs.length */\n      dup1\n      sload\n      swap1\n      pop\n        /* \"contracts/1_Storage.sol\":5086:5087  j */\n      dup2\n        /* \"contracts/1_Storage.sol\":5086:5101  j < refs.length */\n      lt\n        /* \"contracts/1_Storage.sol\":5066:5327  for (uint256 j = 0; j < refs.length; j++) {... */\n      iszero\n      tag_160\n      jumpi\n        /* \"contracts/1_Storage.sol\":5165:5175  msg.sender */\n      caller\n        /* \"contracts/1_Storage.sol\":5138:5175  refs[j].referralAddress == msg.sender */\n      0xffffffffffffffffffffffffffffffffffffffff\n      and\n        /* \"contracts/1_Storage.sol\":5138:5142  refs */\n      dup3\n        /* \"contracts/1_Storage.sol\":5143:5144  j */\n      dup3\n        /* \"contracts/1_Storage.sol\":5138:5145  refs[j] */\n      dup2\n      sload\n      dup2\n      lt\n      tag_162\n      jumpi\n      tag_163\n      tag_164\n      jump\t// in\n    tag_163:\n    tag_162:\n      swap1\n      0x00\n      mstore\n      keccak256(0x00, 0x20)\n      swap1\n      0x03\n      mul\n      add\n        /* \"contracts/1_Storage.sol\":5138:5161  refs[j].referralAddress */\n      0x00\n      add\n      0x00\n      swap1\n      sload\n      swap1\n      0x0100\n      exp\n      swap1\n      div\n      0xffffffffffffffffffffffffffffffffffffffff\n      and\n        /* \"contracts/1_Storage.sol\":5138:5175  refs[j].referralAddress == msg.sender */\n      0xffffffffffffffffffffffffffffffffffffffff\n      and\n      sub\n        /* \"contracts/1_Storage.sol\":5134:5305  if (refs[j].referralAddress == msg.sender) {... */\n      tag_166\n      jumpi\n        /* \"contracts/1_Storage.sol\":5231:5243  directReward */\n      dup4\n        /* \"contracts/1_Storage.sol\":5207:5211  refs */\n      dup3\n        /* \"contracts/1_Storage.sol\":5212:5213  j */\n      dup3\n        /* \"contracts/1_Storage.sol\":5207:5214  refs[j] */\n      dup2\n      sload\n      dup2\n      lt\n      tag_167\n      jumpi\n      tag_168\n      tag_164\n      jump\t// in\n    tag_168:\n    tag_167:\n      swap1\n      0x00\n      mstore\n      keccak256(0x00, 0x20)\n      swap1\n      0x03\n      mul\n      add\n        /* \"contracts/1_Storage.sol\":5207:5227  refs[j].incomeEarned */\n      0x01\n      add\n      0x00\n        /* \"contracts/1_Storage.sol\":5207:5243  refs[j].incomeEarned += directReward */\n      dup3\n      dup3\n      sload\n      tag_170\n      swap2\n      swap1\n      tag_131\n      jump\t// in\n    tag_170:\n      swap3\n      pop\n      pop\n      dup2\n      swap1\n      sstore\n      pop\n        /* \"contracts/1_Storage.sol\":5273:5278  break */\n      jump(tag_160)\n        /* \"contracts/1_Storage.sol\":5134:5305  if (refs[j].referralAddress == msg.sender) {... */\n    tag_166:\n        /* \"contracts/1_Storage.sol\":5103:5106  j++ */\n      dup1\n      dup1\n      0x01\n      add\n      swap2\n      pop\n      pop\n        /* \"contracts/1_Storage.sol\":5066:5327  for (uint256 j = 0; j < refs.length; j++) {... */\n      jump(tag_159)\n    tag_160:\n      pop\n        /* \"contracts/1_Storage.sol\":4292:5345  {... */\n      pop\n      pop\n      pop\n        /* \"contracts/1_Storage.sol\":4274:5755  if (isFirstStake) {... */\n      jump(tag_171)\n    tag_123:\n        /* \"contracts/1_Storage.sol\":5411:5414  100 */\n      0x64\n        /* \"contracts/1_Storage.sol\":5392:5404  levelRewards */\n      0x09\n        /* \"contracts/1_Storage.sol\":5405:5406  i */\n      dup4\n        /* \"contracts/1_Storage.sol\":5392:5407  levelRewards[i] */\n      0xff\n      and\n      0x05\n      dup2\n      lt\n      tag_172\n      jumpi\n      tag_173\n      tag_164\n      jump\t// in\n    tag_173:\n    tag_172:\n      0x20\n      swap2\n      dup3\n      dup3\n      div\n      add\n      swap2\n      swap1\n      mod\n      swap1\n      sload\n      swap1\n      0x0100\n      exp\n      swap1\n      div\n      0xff\n      and\n        /* \"contracts/1_Storage.sol\":5383:5407  amount * levelRewards[i] */\n      0xff\n      and\n        /* \"contracts/1_Storage.sol\":5383:5389  amount */\n      dup10\n        /* \"contracts/1_Storage.sol\":5383:5407  amount * levelRewards[i] */\n      tag_175\n      swap2\n      swap1\n      tag_125\n      jump\t// in\n    tag_175:\n        /* \"contracts/1_Storage.sol\":5382:5414  (amount * levelRewards[i]) / 100 */\n      tag_176\n      swap2\n      swap1\n      tag_127\n      jump\t// in\n    tag_176:\n        /* \"contracts/1_Storage.sol\":5373:5414  reward = (amount * levelRewards[i]) / 100 */\n      swap1\n      pop\n        /* \"contracts/1_Storage.sol\":5482:5488  reward */\n      dup1\n        /* \"contracts/1_Storage.sol\":5444:5453  usdtToken */\n      0x02\n      0x00\n      swap1\n      sload\n      swap1\n      0x0100\n      exp\n      swap1\n      div\n      0xffffffffffffffffffffffffffffffffffffffff\n      and\n        /* \"contracts/1_Storage.sol\":5444:5463  usdtToken.balanceOf */\n      0xffffffffffffffffffffffffffffffffffffffff\n      and\n      0x70a08231\n        /* \"contracts/1_Storage.sol\":5472:5476  this */\n      address\n        /* \"contracts/1_Storage.sol\":5444:5478  usdtToken.balanceOf(address(this)) */\n      mload(0x40)\n      dup3\n      0xffffffff\n      and\n      0xe0\n      shl\n      dup2\n      mstore\n      0x04\n      add\n      tag_177\n      swap2\n      swap1\n      tag_29\n      jump\t// in\n    tag_177:\n      0x20\n      mload(0x40)\n      dup1\n      dup4\n      sub\n      dup2\n      dup7\n      gas\n      staticcall\n      iszero\n      dup1\n      iszero\n      tag_179\n      jumpi\n      returndatasize\n      0x00\n      dup1\n      returndatacopy\n      revert(0x00, returndatasize)\n    tag_179:\n      pop\n      pop\n      pop\n      pop\n      mload(0x40)\n      returndatasize\n      not(0x1f)\n      0x1f\n      dup3\n      add\n      and\n      dup3\n      add\n      dup1\n      0x40\n      mstore\n      pop\n      dup2\n      add\n      swap1\n      tag_180\n      swap2\n      swap1\n      tag_136\n      jump\t// in\n    tag_180:\n        /* \"contracts/1_Storage.sol\":5444:5488  usdtToken.balanceOf(address(this)) >= reward */\n      lt\n      iszero\n        /* \"contracts/1_Storage.sol\":5436:5522  require(usdtToken.balanceOf(address(this)) >= reward, \"Insufficient contract balance\") */\n      tag_181\n      jumpi\n      mload(0x40)\n      0x08c379a000000000000000000000000000000000000000000000000000000000\n      dup2\n      mstore\n      0x04\n      add\n      tag_182\n      swap1\n      tag_139\n      jump\t// in\n    tag_182:\n      mload(0x40)\n      dup1\n      swap2\n      sub\n      swap1\n      revert\n    tag_181:\n        /* \"contracts/1_Storage.sol\":5552:5561  usdtToken */\n      0x02\n      0x00\n      swap1\n      sload\n      swap1\n      0x0100\n      exp\n      swap1\n      div\n      0xffffffffffffffffffffffffffffffffffffffff\n      and\n        /* \"contracts/1_Storage.sol\":5552:5570  usdtToken.transfer */\n      0xffffffffffffffffffffffffffffffffffffffff\n      and\n      0xa9059cbb\n        /* \"contracts/1_Storage.sol\":5571:5577  upline */\n      dup5\n        /* \"contracts/1_Storage.sol\":5579:5585  reward */\n      dup4\n        /* \"contracts/1_Storage.sol\":5552:5586  usdtToken.transfer(upline, reward) */\n      mload(0x40)\n      dup4\n      0xffffffff\n      and\n      0xe0\n      shl\n      dup2\n      mstore\n      0x04\n      add\n      tag_183\n      swap3\n      swap2\n      swap1\n      tag_141\n      jump\t// in\n    tag_183:\n      0x20\n      mload(0x40)\n      dup1\n      dup4\n      sub\n      dup2\n      0x00\n      dup8\n      gas\n      call\n      iszero\n      dup1\n      iszero\n      tag_185\n      jumpi\n      returndatasize\n      0x00\n      dup1\n      returndatacopy\n      revert(0x00, returndatasize)\n    tag_185:\n      pop\n      pop\n      pop\n      pop\n      mload(0x40)\n      returndatasize\n      not(0x1f)\n      0x1f\n      dup3\n      add\n      and\n      dup3\n      add\n      dup1\n      0x40\n      mstore\n      pop\n      dup2\n      add\n      swap1\n      tag_186\n      swap2\n      swap1\n      tag_111\n      jump\t// in\n    tag_186:\n        /* \"contracts/1_Storage.sol\":5544:5621  require(usdtToken.transfer(upline, reward), \"Level 1 reward transfer failed\") */\n      tag_187\n      jumpi\n      mload(0x40)\n      0x08c379a000000000000000000000000000000000000000000000000000000000\n      dup2\n      mstore\n      0x04\n      add\n      tag_188\n      swap1\n      tag_154\n      jump\t// in\n    tag_188:\n      mload(0x40)\n      dup1\n      swap2\n      sub\n      swap1\n      revert\n    tag_187:\n        /* \"contracts/1_Storage.sol\":5673:5679  reward */\n      dup1\n        /* \"contracts/1_Storage.sol\":5644:5649  users */\n      0x03\n        /* \"contracts/1_Storage.sol\":5644:5657  users[upline] */\n      0x00\n        /* \"contracts/1_Storage.sol\":5650:5656  upline */\n      dup6\n        /* \"contracts/1_Storage.sol\":5644:5657  users[upline] */\n      0xffffffffffffffffffffffffffffffffffffffff\n      and\n      0xffffffffffffffffffffffffffffffffffffffff\n      and\n      dup2\n      mstore\n      0x20\n      add\n      swap1\n      dup2\n      mstore\n      0x20\n      add\n      0x00\n      keccak256\n        /* \"contracts/1_Storage.sol\":5644:5669  users[upline].totalIncome */\n      0x02\n      add\n      0x00\n        /* \"contracts/1_Storage.sol\":5644:5679  users[upline].totalIncome += reward */\n      dup3\n      dup3\n      sload\n      tag_189\n      swap2\n      swap1\n      tag_131\n      jump\t// in\n    tag_189:\n      swap3\n      pop\n      pop\n      dup2\n      swap1\n      sstore\n      pop\n        /* \"contracts/1_Storage.sol\":5730:5736  reward */\n      dup1\n        /* \"contracts/1_Storage.sol\":5701:5706  users */\n      0x03\n        /* \"contracts/1_Storage.sol\":5701:5714  users[upline] */\n      0x00\n        /* \"contracts/1_Storage.sol\":5707:5713  upline */\n      dup6\n        /* \"contracts/1_Storage.sol\":5701:5714  users[upline] */\n      0xffffffffffffffffffffffffffffffffffffffff\n      and\n      0xffffffffffffffffffffffffffffffffffffffff\n      and\n      dup2\n      mstore\n      0x20\n      add\n      swap1\n      dup2\n      mstore\n      0x20\n      add\n      0x00\n      keccak256\n        /* \"contracts/1_Storage.sol\":5701:5726  users[upline].levelIncome */\n      0x03\n      add\n      0x00\n        /* \"contracts/1_Storage.sol\":5701:5736  users[upline].levelIncome += reward */\n      dup3\n      dup3\n      sload\n      tag_190\n      swap2\n      swap1\n      tag_131\n      jump\t// in\n    tag_190:\n      swap3\n      pop\n      pop\n      dup2\n      swap1\n      sstore\n      pop\n        /* \"contracts/1_Storage.sol\":4274:5755  if (isFirstStake) {... */\n    tag_171:\n        /* \"contracts/1_Storage.sol\":4244:6153  if (i == 0) {... */\n      jump(tag_191)\n    tag_122:\n        /* \"contracts/1_Storage.sol\":5831:5834  100 */\n      0x64\n        /* \"contracts/1_Storage.sol\":5812:5824  levelRewards */\n      0x09\n        /* \"contracts/1_Storage.sol\":5825:5826  i */\n      dup4\n        /* \"contracts/1_Storage.sol\":5812:5827  levelRewards[i] */\n      0xff\n      and\n      0x05\n      dup2\n      lt\n      tag_192\n      jumpi\n      tag_193\n      tag_164\n      jump\t// in\n    tag_193:\n    tag_192:\n      0x20\n      swap2\n      dup3\n      dup3\n      div\n      add\n      swap2\n      swap1\n      mod\n      swap1\n      sload\n      swap1\n      0x0100\n      exp\n      swap1\n      div\n      0xff\n      and\n        /* \"contracts/1_Storage.sol\":5803:5827  amount * levelRewards[i] */\n      0xff\n      and\n        /* \"contracts/1_Storage.sol\":5803:5809  amount */\n      dup10\n        /* \"contracts/1_Storage.sol\":5803:5827  amount * levelRewards[i] */\n      tag_195\n      swap2\n      swap1\n      tag_125\n      jump\t// in\n    tag_195:\n        /* \"contracts/1_Storage.sol\":5802:5834  (amount * levelRewards[i]) / 100 */\n      tag_196\n      swap2\n      swap1\n      tag_127\n      jump\t// in\n    tag_196:\n        /* \"contracts/1_Storage.sol\":5793:5834  reward = (amount * levelRewards[i]) / 100 */\n      swap1\n      pop\n        /* \"contracts/1_Storage.sol\":5898:5904  reward */\n      dup1\n        /* \"contracts/1_Storage.sol\":5860:5869  usdtToken */\n      0x02\n      0x00\n      swap1\n      sload\n      swap1\n      0x0100\n      exp\n      swap1\n      div\n      0xffffffffffffffffffffffffffffffffffffffff\n      and\n        /* \"contracts/1_Storage.sol\":5860:5879  usdtToken.balanceOf */\n      0xffffffffffffffffffffffffffffffffffffffff\n      and\n      0x70a08231\n        /* \"contracts/1_Storage.sol\":5888:5892  this */\n      address\n        /* \"contracts/1_Storage.sol\":5860:5894  usdtToken.balanceOf(address(this)) */\n      mload(0x40)\n      dup3\n      0xffffffff\n      and\n      0xe0\n      shl\n      dup2\n      mstore\n      0x04\n      add\n      tag_197\n      swap2\n      swap1\n      tag_29\n      jump\t// in\n    tag_197:\n      0x20\n      mload(0x40)\n      dup1\n      dup4\n      sub\n      dup2\n      dup7\n      gas\n      staticcall\n      iszero\n      dup1\n      iszero\n      tag_199\n      jumpi\n      returndatasize\n      0x00\n      dup1\n      returndatacopy\n      revert(0x00, returndatasize)\n    tag_199:\n      pop\n      pop\n      pop\n      pop\n      mload(0x40)\n      returndatasize\n      not(0x1f)\n      0x1f\n      dup3\n      add\n      and\n      dup3\n      add\n      dup1\n      0x40\n      mstore\n      pop\n      dup2\n      add\n      swap1\n      tag_200\n      swap2\n      swap1\n      tag_136\n      jump\t// in\n    tag_200:\n        /* \"contracts/1_Storage.sol\":5860:5904  usdtToken.balanceOf(address(this)) >= reward */\n      lt\n      iszero\n        /* \"contracts/1_Storage.sol\":5852:5938  require(usdtToken.balanceOf(address(this)) >= reward, \"Insufficient contract balance\") */\n      tag_201\n      jumpi\n      mload(0x40)\n      0x08c379a000000000000000000000000000000000000000000000000000000000\n      dup2\n      mstore\n      0x04\n      add\n      tag_202\n      swap1\n      tag_139\n      jump\t// in\n    tag_202:\n      mload(0x40)\n      dup1\n      swap2\n      sub\n      swap1\n      revert\n    tag_201:\n        /* \"contracts/1_Storage.sol\":5964:5973  usdtToken */\n      0x02\n      0x00\n      swap1\n      sload\n      swap1\n      0x0100\n      exp\n      swap1\n      div\n      0xffffffffffffffffffffffffffffffffffffffff\n      and\n        /* \"contracts/1_Storage.sol\":5964:5982  usdtToken.transfer */\n      0xffffffffffffffffffffffffffffffffffffffff\n      and\n      0xa9059cbb\n        /* \"contracts/1_Storage.sol\":5983:5989  upline */\n      dup5\n        /* \"contracts/1_Storage.sol\":5991:5997  reward */\n      dup4\n        /* \"contracts/1_Storage.sol\":5964:5998  usdtToken.transfer(upline, reward) */\n      mload(0x40)\n      dup4\n      0xffffffff\n      and\n      0xe0\n      shl\n      dup2\n      mstore\n      0x04\n      add\n      tag_203\n      swap3\n      swap2\n      swap1\n      tag_141\n      jump\t// in\n    tag_203:\n      0x20\n      mload(0x40)\n      dup1\n      dup4\n      sub\n      dup2\n      0x00\n      dup8\n      gas\n      call\n      iszero\n      dup1\n      iszero\n      tag_205\n      jumpi\n      returndatasize\n      0x00\n      dup1\n      returndatacopy\n      revert(0x00, returndatasize)\n    tag_205:\n      pop\n      pop\n      pop\n      pop\n      mload(0x40)\n      returndatasize\n      not(0x1f)\n      0x1f\n      dup3\n      add\n      and\n      dup3\n      add\n      dup1\n      0x40\n      mstore\n      pop\n      dup2\n      add\n      swap1\n      tag_206\n      swap2\n      swap1\n      tag_111\n      jump\t// in\n    tag_206:\n        /* \"contracts/1_Storage.sol\":5956:6031  require(usdtToken.transfer(upline, reward), \"Level reward transfer failed\") */\n      tag_207\n      jumpi\n      mload(0x40)\n      0x08c379a000000000000000000000000000000000000000000000000000000000\n      dup2\n      mstore\n      0x04\n      add\n      tag_208\n      swap1\n      tag_209\n      jump\t// in\n    tag_208:\n      mload(0x40)\n      dup1\n      swap2\n      sub\n      swap1\n      revert\n    tag_207:\n        /* \"contracts/1_Storage.sol\":6079:6085  reward */\n      dup1\n        /* \"contracts/1_Storage.sol\":6050:6055  users */\n      0x03\n        /* \"contracts/1_Storage.sol\":6050:6063  users[upline] */\n      0x00\n        /* \"contracts/1_Storage.sol\":6056:6062  upline */\n      dup6\n        /* \"contracts/1_Storage.sol\":6050:6063  users[upline] */\n      0xffffffffffffffffffffffffffffffffffffffff\n      and\n      0xffffffffffffffffffffffffffffffffffffffff\n      and\n      dup2\n      mstore\n      0x20\n      add\n      swap1\n      dup2\n      mstore\n      0x20\n      add\n      0x00\n      keccak256\n        /* \"contracts/1_Storage.sol\":6050:6075  users[upline].totalIncome */\n      0x02\n      add\n      0x00\n        /* \"contracts/1_Storage.sol\":6050:6085  users[upline].totalIncome += reward */\n      dup3\n      dup3\n      sload\n      tag_210\n      swap2\n      swap1\n      tag_131\n      jump\t// in\n    tag_210:\n      swap3\n      pop\n      pop\n      dup2\n      swap1\n      sstore\n      pop\n        /* \"contracts/1_Storage.sol\":6132:6138  reward */\n      dup1\n        /* \"contracts/1_Storage.sol\":6103:6108  users */\n      0x03\n        /* \"contracts/1_Storage.sol\":6103:6116  users[upline] */\n      0x00\n        /* \"contracts/1_Storage.sol\":6109:6115  upline */\n      dup6\n        /* \"contracts/1_Storage.sol\":6103:6116  users[upline] */\n      0xffffffffffffffffffffffffffffffffffffffff\n      and\n      0xffffffffffffffffffffffffffffffffffffffff\n      and\n      dup2\n      mstore\n      0x20\n      add\n      swap1\n      dup2\n      mstore\n      0x20\n      add\n      0x00\n      keccak256\n        /* \"contracts/1_Storage.sol\":6103:6128  users[upline].levelIncome */\n      0x03\n      add\n      0x00\n        /* \"contracts/1_Storage.sol\":6103:6138  users[upline].levelIncome += reward */\n      dup3\n      dup3\n      sload\n      tag_211\n      swap2\n      swap1\n      tag_131\n      jump\t// in\n    tag_211:\n      swap3\n      pop\n      pop\n      dup2\n      swap1\n      sstore\n      pop\n        /* \"contracts/1_Storage.sol\":4244:6153  if (i == 0) {... */\n    tag_191:\n        /* \"contracts/1_Storage.sol\":6176:6181  users */\n      0x03\n        /* \"contracts/1_Storage.sol\":6176:6189  users[upline] */\n      0x00\n        /* \"contracts/1_Storage.sol\":6182:6188  upline */\n      dup5\n        /* \"contracts/1_Storage.sol\":6176:6189  users[upline] */\n      0xffffffffffffffffffffffffffffffffffffffff\n      and\n      0xffffffffffffffffffffffffffffffffffffffff\n      and\n      dup2\n      mstore\n      0x20\n      add\n      swap1\n      dup2\n      mstore\n      0x20\n      add\n      0x00\n      keccak256\n        /* \"contracts/1_Storage.sol\":6176:6198  users[upline].referrer */\n      0x00\n      add\n      0x00\n      swap1\n      sload\n      swap1\n      0x0100\n      exp\n      swap1\n      div\n      0xffffffffffffffffffffffffffffffffffffffff\n      and\n        /* \"contracts/1_Storage.sol\":6167:6198  upline = users[upline].referrer */\n      swap3\n      pop\n        /* \"contracts/1_Storage.sol\":4197:6209  {... */\n      pop\n        /* \"contracts/1_Storage.sol\":4192:4195  i++ */\n      dup1\n      dup1\n      tag_212\n      swap1\n      tag_213\n      jump\t// in\n    tag_212:\n      swap2\n      pop\n      pop\n        /* \"contracts/1_Storage.sol\":4125:6209  for (uint8 i = 0; i < levelRewards.length && upline != address(0); i++) {... */\n      jump(tag_118)\n    tag_119:\n      pop\n        /* \"contracts/1_Storage.sol\":3114:6215  {... */\n      pop\n      pop\n      pop\n      pop\n      pop\n        /* \"contracts/1_Storage.sol\":3042:6215  function stake(uint256 numDays, uint256 amount) external onlyRegistered {... */\n      pop\n      pop\n      jump\t// out\n        /* \"contracts/1_Storage.sol\":1692:1737  mapping(uint256 => uint256) public stakingAPY */\n    tag_40:\n      mstore(0x20, 0x06)\n      dup1\n      0x00\n      mstore\n      keccak256(0x00, 0x40)\n      0x00\n      swap2\n      pop\n      swap1\n      pop\n      sload\n      dup2\n      jump\t// out\n        /* \"contracts/1_Storage.sol\":422:442  address public owner */\n    tag_44:\n      0x00\n      dup1\n      sload\n      swap1\n      0x0100\n      exp\n      swap1\n      div\n      0xffffffffffffffffffffffffffffffffffffffff\n      and\n      dup2\n      jump\t// out\n        /* \"contracts/1_Storage.sol\":1805:1830  address[] public allUsers */\n    tag_48:\n      0x08\n      dup2\n      dup2\n      sload\n      dup2\n      lt\n      tag_214\n      jumpi\n      0x00\n      dup1\n      revert\n    tag_214:\n      swap1\n      0x00\n      mstore\n      keccak256(0x00, 0x20)\n      add\n      0x00\n      swap2\n      pop\n      sload\n      swap1\n      0x0100\n      exp\n      swap1\n      div\n      0xffffffffffffffffffffffffffffffffffffffff\n      and\n      dup2\n      jump\t// out\n        /* \"contracts/1_Storage.sol\":1529:1566  mapping(address => User) public users */\n    tag_52:\n      mstore(0x20, 0x03)\n      dup1\n      0x00\n      mstore\n      keccak256(0x00, 0x40)\n      0x00\n      swap2\n      pop\n      swap1\n      pop\n      dup1\n      0x00\n      add\n      0x00\n      swap1\n      sload\n      swap1\n      0x0100\n      exp\n      swap1\n      div\n      0xffffffffffffffffffffffffffffffffffffffff\n      and\n      swap1\n      dup1\n      0x02\n      add\n      sload\n      swap1\n      dup1\n      0x03\n      add\n      sload\n      swap1\n      dup1\n      0x04\n      add\n      0x00\n      swap1\n      sload\n      swap1\n      0x0100\n      exp\n      swap1\n      div\n      0xff\n      and\n      swap1\n      pop\n      dup5\n      jump\t// out\n        /* \"contracts/1_Storage.sol\":481:504  IERC20 public usdtToken */\n    tag_56:\n      0x02\n      0x00\n      swap1\n      sload\n      swap1\n      0x0100\n      exp\n      swap1\n      div\n      0xffffffffffffffffffffffffffffffffffffffff\n      and\n      dup2\n      jump\t// out\n        /* \"contracts/1_Storage.sol\":1836:1882  uint8[5] public levelRewards = [5, 3, 2, 1, 1] */\n    tag_61:\n      0x09\n      dup2\n      0x05\n      dup2\n      lt\n      tag_216\n      jumpi\n      0x00\n      dup1\n      revert\n    tag_216:\n      0x20\n      swap2\n      dup3\n      dup3\n      div\n      add\n      swap2\n      swap1\n      mod\n      swap2\n      pop\n      sload\n      swap1\n      0x0100\n      exp\n      swap1\n      div\n      0xff\n      and\n      dup2\n      jump\t// out\n        /* \"contracts/1_Storage.sol\":6260:6748  function transferOwnership(address newOwner) external onlyOwner {... */\n    tag_66:\n        /* \"contracts/1_Storage.sol\":2276:2281  owner */\n      0x00\n      dup1\n      sload\n      swap1\n      0x0100\n      exp\n      swap1\n      div\n      0xffffffffffffffffffffffffffffffffffffffff\n      and\n        /* \"contracts/1_Storage.sol\":2262:2281  msg.sender == owner */\n      0xffffffffffffffffffffffffffffffffffffffff\n      and\n        /* \"contracts/1_Storage.sol\":2262:2272  msg.sender */\n      caller\n        /* \"contracts/1_Storage.sol\":2262:2281  msg.sender == owner */\n      0xffffffffffffffffffffffffffffffffffffffff\n      and\n      eq\n        /* \"contracts/1_Storage.sol\":2254:2310  require(msg.sender == owner, \"Only owner can call this\") */\n      tag_219\n      jumpi\n      mload(0x40)\n      0x08c379a000000000000000000000000000000000000000000000000000000000\n      dup2\n      mstore\n      0x04\n      add\n      tag_220\n      swap1\n      tag_221\n      jump\t// in\n    tag_220:\n      mload(0x40)\n      dup1\n      swap2\n      sub\n      swap1\n      revert\n    tag_219:\n        /* \"contracts/1_Storage.sol\":6362:6363  0 */\n      0x00\n        /* \"contracts/1_Storage.sol\":6342:6364  newOwner != address(0) */\n      0xffffffffffffffffffffffffffffffffffffffff\n      and\n        /* \"contracts/1_Storage.sol\":6342:6350  newOwner */\n      dup2\n        /* \"contracts/1_Storage.sol\":6342:6364  newOwner != address(0) */\n      0xffffffffffffffffffffffffffffffffffffffff\n      and\n      sub\n        /* \"contracts/1_Storage.sol\":6334:6398  require(newOwner != address(0), \"New owner is the zero address\") */\n      tag_223\n      jumpi\n      mload(0x40)\n      0x08c379a000000000000000000000000000000000000000000000000000000000\n      dup2\n      mstore\n      0x04\n      add\n      tag_224\n      swap1\n      tag_225\n      jump\t// in\n    tag_224:\n      mload(0x40)\n      dup1\n      swap2\n      sub\n      swap1\n      revert\n    tag_223:\n        /* \"contracts/1_Storage.sol\":6428:6433  owner */\n      0x00\n      dup1\n      sload\n      swap1\n      0x0100\n      exp\n      swap1\n      div\n      0xffffffffffffffffffffffffffffffffffffffff\n      and\n        /* \"contracts/1_Storage.sol\":6416:6433  newOwner != owner */\n      0xffffffffffffffffffffffffffffffffffffffff\n      and\n        /* \"contracts/1_Storage.sol\":6416:6424  newOwner */\n      dup2\n        /* \"contracts/1_Storage.sol\":6416:6433  newOwner != owner */\n      0xffffffffffffffffffffffffffffffffffffffff\n      and\n      sub\n        /* \"contracts/1_Storage.sol\":6408:6476  require(newOwner != owner, \"New owner is the same as current owner\") */\n      tag_226\n      jumpi\n      mload(0x40)\n      0x08c379a000000000000000000000000000000000000000000000000000000000\n      dup2\n      mstore\n      0x04\n      add\n      tag_227\n      swap1\n      tag_228\n      jump\t// in\n    tag_227:\n      mload(0x40)\n      dup1\n      swap2\n      sub\n      swap1\n      revert\n    tag_226:\n        /* \"contracts/1_Storage.sol\":6487:6508  address previousOwner */\n      0x00\n        /* \"contracts/1_Storage.sol\":6511:6516  owner */\n      dup1\n      0x00\n      swap1\n      sload\n      swap1\n      0x0100\n      exp\n      swap1\n      div\n      0xffffffffffffffffffffffffffffffffffffffff\n      and\n        /* \"contracts/1_Storage.sol\":6487:6516  address previousOwner = owner */\n      swap1\n      pop\n        /* \"contracts/1_Storage.sol\":6534:6542  newOwner */\n      dup2\n        /* \"contracts/1_Storage.sol\":6526:6531  owner */\n      0x00\n      dup1\n        /* \"contracts/1_Storage.sol\":6526:6542  owner = newOwner */\n      0x0100\n      exp\n      dup2\n      sload\n      dup2\n      0xffffffffffffffffffffffffffffffffffffffff\n      mul\n      not\n      and\n      swap1\n      dup4\n      0xffffffffffffffffffffffffffffffffffffffff\n      and\n      mul\n      or\n      swap1\n      sstore\n      pop\n        /* \"contracts/1_Storage.sol\":6558:6563  users */\n      0x03\n        /* \"contracts/1_Storage.sol\":6558:6573  users[newOwner] */\n      0x00\n        /* \"contracts/1_Storage.sol\":6564:6572  newOwner */\n      dup4\n        /* \"contracts/1_Storage.sol\":6558:6573  users[newOwner] */\n      0xffffffffffffffffffffffffffffffffffffffff\n      and\n      0xffffffffffffffffffffffffffffffffffffffff\n      and\n      dup2\n      mstore\n      0x20\n      add\n      swap1\n      dup2\n      mstore\n      0x20\n      add\n      0x00\n      keccak256\n        /* \"contracts/1_Storage.sol\":6558:6584  users[newOwner].registered */\n      0x04\n      add\n      0x00\n      swap1\n      sload\n      swap1\n      0x0100\n      exp\n      swap1\n      div\n      0xff\n      and\n        /* \"contracts/1_Storage.sol\":6553:6681  if (!users[newOwner].registered) {... */\n      tag_229\n      jumpi\n        /* \"contracts/1_Storage.sol\":6629:6633  true */\n      0x01\n        /* \"contracts/1_Storage.sol\":6600:6605  users */\n      0x03\n        /* \"contracts/1_Storage.sol\":6600:6615  users[newOwner] */\n      0x00\n        /* \"contracts/1_Storage.sol\":6606:6614  newOwner */\n      dup5\n        /* \"contracts/1_Storage.sol\":6600:6615  users[newOwner] */\n      0xffffffffffffffffffffffffffffffffffffffff\n      and\n      0xffffffffffffffffffffffffffffffffffffffff\n      and\n      dup2\n      mstore\n      0x20\n      add\n      swap1\n      dup2\n      mstore\n      0x20\n      add\n      0x00\n      keccak256\n        /* \"contracts/1_Storage.sol\":6600:6626  users[newOwner].registered */\n      0x04\n      add\n      0x00\n        /* \"contracts/1_Storage.sol\":6600:6633  users[newOwner].registered = true */\n      0x0100\n      exp\n      dup2\n      sload\n      dup2\n      0xff\n      mul\n      not\n      and\n      swap1\n      dup4\n      iszero\n      iszero\n      mul\n      or\n      swap1\n      sstore\n      pop\n        /* \"contracts/1_Storage.sol\":6647:6655  allUsers */\n      0x08\n        /* \"contracts/1_Storage.sol\":6661:6669  newOwner */\n      dup3\n        /* \"contracts/1_Storage.sol\":6647:6670  allUsers.push(newOwner) */\n      swap1\n      dup1\n      0x01\n      dup2\n      sload\n      add\n      dup1\n      dup3\n      sstore\n      dup1\n      swap2\n      pop\n      pop\n      0x01\n      swap1\n      sub\n      swap1\n      0x00\n      mstore\n      keccak256(0x00, 0x20)\n      add\n      0x00\n      swap1\n      swap2\n      swap1\n      swap2\n      swap1\n      swap2\n      0x0100\n      exp\n      dup2\n      sload\n      dup2\n      0xffffffffffffffffffffffffffffffffffffffff\n      mul\n      not\n      and\n      swap1\n      dup4\n      0xffffffffffffffffffffffffffffffffffffffff\n      and\n      mul\n      or\n      swap1\n      sstore\n      pop\n        /* \"contracts/1_Storage.sol\":6553:6681  if (!users[newOwner].registered) {... */\n    tag_229:\n        /* \"contracts/1_Storage.sol\":6732:6740  newOwner */\n      dup2\n        /* \"contracts/1_Storage.sol\":6696:6741  OwnershipTransferred(previousOwner, newOwner) */\n      0xffffffffffffffffffffffffffffffffffffffff\n      and\n        /* \"contracts/1_Storage.sol\":6717:6730  previousOwner */\n      dup2\n        /* \"contracts/1_Storage.sol\":6696:6741  OwnershipTransferred(previousOwner, newOwner) */\n      0xffffffffffffffffffffffffffffffffffffffff\n      and\n      0x8be0079c531659141344cd1fd0a4f28419497f9722a3daafe3b4186f6b6457e0\n      mload(0x40)\n      mload(0x40)\n      dup1\n      swap2\n      sub\n      swap1\n      log3\n        /* \"contracts/1_Storage.sol\":6324:6748  {... */\n      pop\n        /* \"contracts/1_Storage.sol\":6260:6748  function transferOwnership(address newOwner) external onlyOwner {... */\n      pop\n      jump\t// out\n        /* \"contracts/1_Storage.sol\":1743:1798  mapping(address => uint256) public directReferralIncome */\n    tag_69:\n      mstore(0x20, 0x07)\n      dup1\n      0x00\n      mstore\n      keccak256(0x00, 0x40)\n      0x00\n      swap2\n      pop\n      swap1\n      pop\n      sload\n      dup2\n      jump\t// out\n        /* \"contracts/1_Storage.sol\":448:475  uint256 public stakeCounter */\n    tag_72:\n      sload(0x01)\n      dup2\n      jump\t// out\n        /* \"#utility.yul\":88:205   */\n    tag_232:\n        /* \"#utility.yul\":197:198   */\n      0x00\n        /* \"#utility.yul\":194:195   */\n      dup1\n        /* \"#utility.yul\":187:199   */\n      revert\n        /* \"#utility.yul\":334:460   */\n    tag_234:\n        /* \"#utility.yul\":371:378   */\n      0x00\n        /* \"#utility.yul\":411:453   */\n      0xffffffffffffffffffffffffffffffffffffffff\n        /* \"#utility.yul\":404:409   */\n      dup3\n        /* \"#utility.yul\":400:454   */\n      and\n        /* \"#utility.yul\":389:454   */\n      swap1\n      pop\n        /* \"#utility.yul\":334:460   */\n      swap2\n      swap1\n      pop\n      jump\t// out\n        /* \"#utility.yul\":466:562   */\n    tag_235:\n        /* \"#utility.yul\":503:510   */\n      0x00\n        /* \"#utility.yul\":532:556   */\n      tag_296\n        /* \"#utility.yul\":550:555   */\n      dup3\n        /* \"#utility.yul\":532:556   */\n      tag_234\n      jump\t// in\n    tag_296:\n        /* \"#utility.yul\":521:556   */\n      swap1\n      pop\n        /* \"#utility.yul\":466:562   */\n      swap2\n      swap1\n      pop\n      jump\t// out\n        /* \"#utility.yul\":568:690   */\n    tag_236:\n        /* \"#utility.yul\":641:665   */\n      tag_298\n        /* \"#utility.yul\":659:664   */\n      dup2\n        /* \"#utility.yul\":641:665   */\n      tag_235\n      jump\t// in\n    tag_298:\n        /* \"#utility.yul\":634:639   */\n      dup2\n        /* \"#utility.yul\":631:666   */\n      eq\n        /* \"#utility.yul\":621:684   */\n      tag_299\n      jumpi\n        /* \"#utility.yul\":680:681   */\n      0x00\n        /* \"#utility.yul\":677:678   */\n      dup1\n        /* \"#utility.yul\":670:682   */\n      revert\n        /* \"#utility.yul\":621:684   */\n    tag_299:\n        /* \"#utility.yul\":568:690   */\n      pop\n      jump\t// out\n        /* \"#utility.yul\":696:835   */\n    tag_237:\n        /* \"#utility.yul\":742:747   */\n      0x00\n        /* \"#utility.yul\":780:786   */\n      dup2\n        /* \"#utility.yul\":767:787   */\n      calldataload\n        /* \"#utility.yul\":758:787   */\n      swap1\n      pop\n        /* \"#utility.yul\":796:829   */\n      tag_301\n        /* \"#utility.yul\":823:828   */\n      dup2\n        /* \"#utility.yul\":796:829   */\n      tag_236\n      jump\t// in\n    tag_301:\n        /* \"#utility.yul\":696:835   */\n      swap3\n      swap2\n      pop\n      pop\n      jump\t// out\n        /* \"#utility.yul\":841:918   */\n    tag_238:\n        /* \"#utility.yul\":878:885   */\n      0x00\n        /* \"#utility.yul\":907:912   */\n      dup2\n        /* \"#utility.yul\":896:912   */\n      swap1\n      pop\n        /* \"#utility.yul\":841:918   */\n      swap2\n      swap1\n      pop\n      jump\t// out\n        /* \"#utility.yul\":924:1046   */\n    tag_239:\n        /* \"#utility.yul\":997:1021   */\n      tag_304\n        /* \"#utility.yul\":1015:1020   */\n      dup2\n        /* \"#utility.yul\":997:1021   */\n      tag_238\n      jump\t// in\n    tag_304:\n        /* \"#utility.yul\":990:995   */\n      dup2\n        /* \"#utility.yul\":987:1022   */\n      eq\n        /* \"#utility.yul\":977:1040   */\n      tag_305\n      jumpi\n        /* \"#utility.yul\":1036:1037   */\n      0x00\n        /* \"#utility.yul\":1033:1034   */\n      dup1\n        /* \"#utility.yul\":1026:1038   */\n      revert\n        /* \"#utility.yul\":977:1040   */\n    tag_305:\n        /* \"#utility.yul\":924:1046   */\n      pop\n      jump\t// out\n        /* \"#utility.yul\":1052:1191   */\n    tag_240:\n        /* \"#utility.yul\":1098:1103   */\n      0x00\n        /* \"#utility.yul\":1136:1142   */\n      dup2\n        /* \"#utility.yul\":1123:1143   */\n      calldataload\n        /* \"#utility.yul\":1114:1143   */\n      swap1\n      pop\n        /* \"#utility.yul\":1152:1185   */\n      tag_307\n        /* \"#utility.yul\":1179:1184   */\n      dup2\n        /* \"#utility.yul\":1152:1185   */\n      tag_239\n      jump\t// in\n    tag_307:\n        /* \"#utility.yul\":1052:1191   */\n      swap3\n      swap2\n      pop\n      pop\n      jump\t// out\n        /* \"#utility.yul\":1197:1671   */\n    tag_20:\n        /* \"#utility.yul\":1265:1271   */\n      0x00\n        /* \"#utility.yul\":1273:1279   */\n      dup1\n        /* \"#utility.yul\":1322:1324   */\n      0x40\n        /* \"#utility.yul\":1310:1319   */\n      dup4\n        /* \"#utility.yul\":1301:1308   */\n      dup6\n        /* \"#utility.yul\":1297:1320   */\n      sub\n        /* \"#utility.yul\":1293:1325   */\n      slt\n        /* \"#utility.yul\":1290:1409   */\n      iszero\n      tag_309\n      jumpi\n        /* \"#utility.yul\":1328:1407   */\n      tag_310\n      tag_232\n      jump\t// in\n    tag_310:\n        /* \"#utility.yul\":1290:1409   */\n    tag_309:\n        /* \"#utility.yul\":1448:1449   */\n      0x00\n        /* \"#utility.yul\":1473:1526   */\n      tag_311\n        /* \"#utility.yul\":1518:1525   */\n      dup6\n        /* \"#utility.yul\":1509:1515   */\n      dup3\n        /* \"#utility.yul\":1498:1507   */\n      dup7\n        /* \"#utility.yul\":1494:1516   */\n      add\n        /* \"#utility.yul\":1473:1526   */\n      tag_237\n      jump\t// in\n    tag_311:\n        /* \"#utility.yul\":1463:1526   */\n      swap3\n      pop\n        /* \"#utility.yul\":1419:1536   */\n      pop\n        /* \"#utility.yul\":1575:1577   */\n      0x20\n        /* \"#utility.yul\":1601:1654   */\n      tag_312\n        /* \"#utility.yul\":1646:1653   */\n      dup6\n        /* \"#utility.yul\":1637:1643   */\n      dup3\n        /* \"#utility.yul\":1626:1635   */\n      dup7\n        /* \"#utility.yul\":1622:1644   */\n      add\n        /* \"#utility.yul\":1601:1654   */\n      tag_240\n      jump\t// in\n    tag_312:\n        /* \"#utility.yul\":1591:1654   */\n      swap2\n      pop\n        /* \"#utility.yul\":1546:1664   */\n      pop\n        /* \"#utility.yul\":1197:1671   */\n      swap3\n      pop\n      swap3\n      swap1\n      pop\n      jump\t// out\n        /* \"#utility.yul\":1677:1795   */\n    tag_241:\n        /* \"#utility.yul\":1764:1788   */\n      tag_314\n        /* \"#utility.yul\":1782:1787   */\n      dup2\n        /* \"#utility.yul\":1764:1788   */\n      tag_235\n      jump\t// in\n    tag_314:\n        /* \"#utility.yul\":1759:1762   */\n      dup3\n        /* \"#utility.yul\":1752:1789   */\n      mstore\n        /* \"#utility.yul\":1677:1795   */\n      pop\n      pop\n      jump\t// out\n        /* \"#utility.yul\":1801:1919   */\n    tag_242:\n        /* \"#utility.yul\":1888:1912   */\n      tag_316\n        /* \"#utility.yul\":1906:1911   */\n      dup2\n        /* \"#utility.yul\":1888:1912   */\n      tag_238\n      jump\t// in\n    tag_316:\n        /* \"#utility.yul\":1883:1886   */\n      dup3\n        /* \"#utility.yul\":1876:1913   */\n      mstore\n        /* \"#utility.yul\":1801:1919   */\n      pop\n      pop\n      jump\t// out\n        /* \"#utility.yul\":1925:2367   */\n    tag_23:\n        /* \"#utility.yul\":2074:2078   */\n      0x00\n        /* \"#utility.yul\":2112:2114   */\n      0x60\n        /* \"#utility.yul\":2101:2110   */\n      dup3\n        /* \"#utility.yul\":2097:2115   */\n      add\n        /* \"#utility.yul\":2089:2115   */\n      swap1\n      pop\n        /* \"#utility.yul\":2125:2196   */\n      tag_318\n        /* \"#utility.yul\":2193:2194   */\n      0x00\n        /* \"#utility.yul\":2182:2191   */\n      dup4\n        /* \"#utility.yul\":2178:2195   */\n      add\n        /* \"#utility.yul\":2169:2175   */\n      dup7\n        /* \"#utility.yul\":2125:2196   */\n      tag_241\n      jump\t// in\n    tag_318:\n        /* \"#utility.yul\":2206:2278   */\n      tag_319\n        /* \"#utility.yul\":2274:2276   */\n      0x20\n        /* \"#utility.yul\":2263:2272   */\n      dup4\n        /* \"#utility.yul\":2259:2277   */\n      add\n        /* \"#utility.yul\":2250:2256   */\n      dup6\n        /* \"#utility.yul\":2206:2278   */\n      tag_242\n      jump\t// in\n    tag_319:\n        /* \"#utility.yul\":2288:2360   */\n      tag_320\n        /* \"#utility.yul\":2356:2358   */\n      0x40\n        /* \"#utility.yul\":2345:2354   */\n      dup4\n        /* \"#utility.yul\":2341:2359   */\n      add\n        /* \"#utility.yul\":2332:2338   */\n      dup5\n        /* \"#utility.yul\":2288:2360   */\n      tag_242\n      jump\t// in\n    tag_320:\n        /* \"#utility.yul\":1925:2367   */\n      swap5\n      swap4\n      pop\n      pop\n      pop\n      pop\n      jump\t// out\n        /* \"#utility.yul\":2373:2702   */\n    tag_26:\n        /* \"#utility.yul\":2432:2438   */\n      0x00\n        /* \"#utility.yul\":2481:2483   */\n      0x20\n        /* \"#utility.yul\":2469:2478   */\n      dup3\n        /* \"#utility.yul\":2460:2467   */\n      dup5\n        /* \"#utility.yul\":2456:2479   */\n      sub\n        /* \"#utility.yul\":2452:2484   */\n      slt\n        /* \"#utility.yul\":2449:2568   */\n      iszero\n      tag_322\n      jumpi\n        /* \"#utility.yul\":2487:2566   */\n      tag_323\n      tag_232\n      jump\t// in\n    tag_323:\n        /* \"#utility.yul\":2449:2568   */\n    tag_322:\n        /* \"#utility.yul\":2607:2608   */\n      0x00\n        /* \"#utility.yul\":2632:2685   */\n      tag_324\n        /* \"#utility.yul\":2677:2684   */\n      dup5\n        /* \"#utility.yul\":2668:2674   */\n      dup3\n        /* \"#utility.yul\":2657:2666   */\n      dup6\n        /* \"#utility.yul\":2653:2675   */\n      add\n        /* \"#utility.yul\":2632:2685   */\n      tag_240\n      jump\t// in\n    tag_324:\n        /* \"#utility.yul\":2622:2685   */\n      swap2\n      pop\n        /* \"#utility.yul\":2578:2695   */\n      pop\n        /* \"#utility.yul\":2373:2702   */\n      swap3\n      swap2\n      pop\n      pop\n      jump\t// out\n        /* \"#utility.yul\":2708:2930   */\n    tag_29:\n        /* \"#utility.yul\":2801:2805   */\n      0x00\n        /* \"#utility.yul\":2839:2841   */\n      0x20\n        /* \"#utility.yul\":2828:2837   */\n      dup3\n        /* \"#utility.yul\":2824:2842   */\n      add\n        /* \"#utility.yul\":2816:2842   */\n      swap1\n      pop\n        /* \"#utility.yul\":2852:2923   */\n      tag_326\n        /* \"#utility.yul\":2920:2921   */\n      0x00\n        /* \"#utility.yul\":2909:2918   */\n      dup4\n        /* \"#utility.yul\":2905:2922   */\n      add\n        /* \"#utility.yul\":2896:2902   */\n      dup5\n        /* \"#utility.yul\":2852:2923   */\n      tag_241\n      jump\t// in\n    tag_326:\n        /* \"#utility.yul\":2708:2930   */\n      swap3\n      swap2\n      pop\n      pop\n      jump\t// out\n        /* \"#utility.yul\":2936:3265   */\n    tag_32:\n        /* \"#utility.yul\":2995:3001   */\n      0x00\n        /* \"#utility.yul\":3044:3046   */\n      0x20\n        /* \"#utility.yul\":3032:3041   */\n      dup3\n        /* \"#utility.yul\":3023:3030   */\n      dup5\n        /* \"#utility.yul\":3019:3042   */\n      sub\n        /* \"#utility.yul\":3015:3047   */\n      slt\n        /* \"#utility.yul\":3012:3131   */\n      iszero\n      tag_328\n      jumpi\n        /* \"#utility.yul\":3050:3129   */\n      tag_329\n      tag_232\n      jump\t// in\n    tag_329:\n        /* \"#utility.yul\":3012:3131   */\n    tag_328:\n        /* \"#utility.yul\":3170:3171   */\n      0x00\n        /* \"#utility.yul\":3195:3248   */\n      tag_330\n        /* \"#utility.yul\":3240:3247   */\n      dup5\n        /* \"#utility.yul\":3231:3237   */\n      dup3\n        /* \"#utility.yul\":3220:3229   */\n      dup6\n        /* \"#utility.yul\":3216:3238   */\n      add\n        /* \"#utility.yul\":3195:3248   */\n      tag_237\n      jump\t// in\n    tag_330:\n        /* \"#utility.yul\":3185:3248   */\n      swap2\n      pop\n        /* \"#utility.yul\":3141:3258   */\n      pop\n        /* \"#utility.yul\":2936:3265   */\n      swap3\n      swap2\n      pop\n      pop\n      jump\t// out\n        /* \"#utility.yul\":3271:3745   */\n    tag_36:\n        /* \"#utility.yul\":3339:3345   */\n      0x00\n        /* \"#utility.yul\":3347:3353   */\n      dup1\n        /* \"#utility.yul\":3396:3398   */\n      0x40\n        /* \"#utility.yul\":3384:3393   */\n      dup4\n        /* \"#utility.yul\":3375:3382   */\n      dup6\n        /* \"#utility.yul\":3371:3394   */\n      sub\n        /* \"#utility.yul\":3367:3399   */\n      slt\n        /* \"#utility.yul\":3364:3483   */\n      iszero\n      tag_332\n      jumpi\n        /* \"#utility.yul\":3402:3481   */\n      tag_333\n      tag_232\n      jump\t// in\n    tag_333:\n        /* \"#utility.yul\":3364:3483   */\n    tag_332:\n        /* \"#utility.yul\":3522:3523   */\n      0x00\n        /* \"#utility.yul\":3547:3600   */\n      tag_334\n        /* \"#utility.yul\":3592:3599   */\n      dup6\n        /* \"#utility.yul\":3583:3589   */\n      dup3\n        /* \"#utility.yul\":3572:3581   */\n      dup7\n        /* \"#utility.yul\":3568:3590   */\n      add\n        /* \"#utility.yul\":3547:3600   */\n      tag_240\n      jump\t// in\n    tag_334:\n        /* \"#utility.yul\":3537:3600   */\n      swap3\n      pop\n        /* \"#utility.yul\":3493:3610   */\n      pop\n        /* \"#utility.yul\":3649:3651   */\n      0x20\n        /* \"#utility.yul\":3675:3728   */\n      tag_335\n        /* \"#utility.yul\":3720:3727   */\n      dup6\n        /* \"#utility.yul\":3711:3717   */\n      dup3\n        /* \"#utility.yul\":3700:3709   */\n      dup7\n        /* \"#utility.yul\":3696:3718   */\n      add\n        /* \"#utility.yul\":3675:3728   */\n      tag_240\n      jump\t// in\n    tag_335:\n        /* \"#utility.yul\":3665:3728   */\n      swap2\n      pop\n        /* \"#utility.yul\":3620:3738   */\n      pop\n        /* \"#utility.yul\":3271:3745   */\n      swap3\n      pop\n      swap3\n      swap1\n      pop\n      jump\t// out\n        /* \"#utility.yul\":3751:3973   */\n    tag_42:\n        /* \"#utility.yul\":3844:3848   */\n      0x00\n        /* \"#utility.yul\":3882:3884   */\n      0x20\n        /* \"#utility.yul\":3871:3880   */\n      dup3\n        /* \"#utility.yul\":3867:3885   */\n      add\n        /* \"#utility.yul\":3859:3885   */\n      swap1\n      pop\n        /* \"#utility.yul\":3895:3966   */\n      tag_337\n        /* \"#utility.yul\":3963:3964   */\n      0x00\n        /* \"#utility.yul\":3952:3961   */\n      dup4\n        /* \"#utility.yul\":3948:3965   */\n      add\n        /* \"#utility.yul\":3939:3945   */\n      dup5\n        /* \"#utility.yul\":3895:3966   */\n      tag_242\n      jump\t// in\n    tag_337:\n        /* \"#utility.yul\":3751:3973   */\n      swap3\n      swap2\n      pop\n      pop\n      jump\t// out\n        /* \"#utility.yul\":3979:4069   */\n    tag_243:\n        /* \"#utility.yul\":4013:4020   */\n      0x00\n        /* \"#utility.yul\":4056:4061   */\n      dup2\n        /* \"#utility.yul\":4049:4062   */\n      iszero\n        /* \"#utility.yul\":4042:4063   */\n      iszero\n        /* \"#utility.yul\":4031:4063   */\n      swap1\n      pop\n        /* \"#utility.yul\":3979:4069   */\n      swap2\n      swap1\n      pop\n      jump\t// out\n        /* \"#utility.yul\":4075:4184   */\n    tag_244:\n        /* \"#utility.yul\":4156:4177   */\n      tag_340\n        /* \"#utility.yul\":4171:4176   */\n      dup2\n        /* \"#utility.yul\":4156:4177   */\n      tag_243\n      jump\t// in\n    tag_340:\n        /* \"#utility.yul\":4151:4154   */\n      dup3\n        /* \"#utility.yul\":4144:4178   */\n      mstore\n        /* \"#utility.yul\":4075:4184   */\n      pop\n      pop\n      jump\t// out\n        /* \"#utility.yul\":4190:4731   */\n    tag_54:\n        /* \"#utility.yul\":4361:4365   */\n      0x00\n        /* \"#utility.yul\":4399:4402   */\n      0x80\n        /* \"#utility.yul\":4388:4397   */\n      dup3\n        /* \"#utility.yul\":4384:4403   */\n      add\n        /* \"#utility.yul\":4376:4403   */\n      swap1\n      pop\n        /* \"#utility.yul\":4413:4484   */\n      tag_342\n        /* \"#utility.yul\":4481:4482   */\n      0x00\n        /* \"#utility.yul\":4470:4479   */\n      dup4\n        /* \"#utility.yul\":4466:4483   */\n      add\n        /* \"#utility.yul\":4457:4463   */\n      dup8\n        /* \"#utility.yul\":4413:4484   */\n      tag_241\n      jump\t// in\n    tag_342:\n        /* \"#utility.yul\":4494:4566   */\n      tag_343\n        /* \"#utility.yul\":4562:4564   */\n      0x20\n        /* \"#utility.yul\":4551:4560   */\n      dup4\n        /* \"#utility.yul\":4547:4565   */\n      add\n        /* \"#utility.yul\":4538:4544   */\n      dup7\n        /* \"#utility.yul\":4494:4566   */\n      tag_242\n      jump\t// in\n    tag_343:\n        /* \"#utility.yul\":4576:4648   */\n      tag_344\n        /* \"#utility.yul\":4644:4646   */\n      0x40\n        /* \"#utility.yul\":4633:4642   */\n      dup4\n        /* \"#utility.yul\":4629:4647   */\n      add\n        /* \"#utility.yul\":4620:4626   */\n      dup6\n        /* \"#utility.yul\":4576:4648   */\n      tag_242\n      jump\t// in\n    tag_344:\n        /* \"#utility.yul\":4658:4724   */\n      tag_345\n        /* \"#utility.yul\":4720:4722   */\n      0x60\n        /* \"#utility.yul\":4709:4718   */\n      dup4\n        /* \"#utility.yul\":4705:4723   */\n      add\n        /* \"#utility.yul\":4696:4702   */\n      dup5\n        /* \"#utility.yul\":4658:4724   */\n      tag_244\n      jump\t// in\n    tag_345:\n        /* \"#utility.yul\":4190:4731   */\n      swap6\n      swap5\n      pop\n      pop\n      pop\n      pop\n      pop\n      jump\t// out\n        /* \"#utility.yul\":4737:4797   */\n    tag_245:\n        /* \"#utility.yul\":4765:4768   */\n      0x00\n        /* \"#utility.yul\":4786:4791   */\n      dup2\n        /* \"#utility.yul\":4779:4791   */\n      swap1\n      pop\n        /* \"#utility.yul\":4737:4797   */\n      swap2\n      swap1\n      pop\n      jump\t// out\n        /* \"#utility.yul\":4803:4945   */\n    tag_246:\n        /* \"#utility.yul\":4853:4862   */\n      0x00\n        /* \"#utility.yul\":4886:4939   */\n      tag_348\n        /* \"#utility.yul\":4904:4938   */\n      tag_349\n        /* \"#utility.yul\":4913:4937   */\n      tag_350\n        /* \"#utility.yul\":4931:4936   */\n      dup5\n        /* \"#utility.yul\":4913:4937   */\n      tag_234\n      jump\t// in\n    tag_350:\n        /* \"#utility.yul\":4904:4938   */\n      tag_245\n      jump\t// in\n    tag_349:\n        /* \"#utility.yul\":4886:4939   */\n      tag_234\n      jump\t// in\n    tag_348:\n        /* \"#utility.yul\":4873:4939   */\n      swap1\n      pop\n        /* \"#utility.yul\":4803:4945   */\n      swap2\n      swap1\n      pop\n      jump\t// out\n        /* \"#utility.yul\":4951:5077   */\n    tag_247:\n        /* \"#utility.yul\":5001:5010   */\n      0x00\n        /* \"#utility.yul\":5034:5071   */\n      tag_352\n        /* \"#utility.yul\":5065:5070   */\n      dup3\n        /* \"#utility.yul\":5034:5071   */\n      tag_246\n      jump\t// in\n    tag_352:\n        /* \"#utility.yul\":5021:5071   */\n      swap1\n      pop\n        /* \"#utility.yul\":4951:5077   */\n      swap2\n      swap1\n      pop\n      jump\t// out\n        /* \"#utility.yul\":5083:5222   */\n    tag_248:\n        /* \"#utility.yul\":5146:5155   */\n      0x00\n        /* \"#utility.yul\":5179:5216   */\n      tag_354\n        /* \"#utility.yul\":5210:5215   */\n      dup3\n        /* \"#utility.yul\":5179:5216   */\n      tag_247\n      jump\t// in\n    tag_354:\n        /* \"#utility.yul\":5166:5216   */\n      swap1\n      pop\n        /* \"#utility.yul\":5083:5222   */\n      swap2\n      swap1\n      pop\n      jump\t// out\n        /* \"#utility.yul\":5228:5385   */\n    tag_249:\n        /* \"#utility.yul\":5328:5378   */\n      tag_356\n        /* \"#utility.yul\":5372:5377   */\n      dup2\n        /* \"#utility.yul\":5328:5378   */\n      tag_248\n      jump\t// in\n    tag_356:\n        /* \"#utility.yul\":5323:5326   */\n      dup3\n        /* \"#utility.yul\":5316:5379   */\n      mstore\n        /* \"#utility.yul\":5228:5385   */\n      pop\n      pop\n      jump\t// out\n        /* \"#utility.yul\":5391:5639   */\n    tag_58:\n        /* \"#utility.yul\":5497:5501   */\n      0x00\n        /* \"#utility.yul\":5535:5537   */\n      0x20\n        /* \"#utility.yul\":5524:5533   */\n      dup3\n        /* \"#utility.yul\":5520:5538   */\n      add\n        /* \"#utility.yul\":5512:5538   */\n      swap1\n      pop\n        /* \"#utility.yul\":5548:5632   */\n      tag_358\n        /* \"#utility.yul\":5629:5630   */\n      0x00\n        /* \"#utility.yul\":5618:5627   */\n      dup4\n        /* \"#utility.yul\":5614:5631   */\n      add\n        /* \"#utility.yul\":5605:5611   */\n      dup5\n        /* \"#utility.yul\":5548:5632   */\n      tag_249\n      jump\t// in\n    tag_358:\n        /* \"#utility.yul\":5391:5639   */\n      swap3\n      swap2\n      pop\n      pop\n      jump\t// out\n        /* \"#utility.yul\":5645:5731   */\n    tag_250:\n        /* \"#utility.yul\":5680:5687   */\n      0x00\n        /* \"#utility.yul\":5720:5724   */\n      0xff\n        /* \"#utility.yul\":5713:5718   */\n      dup3\n        /* \"#utility.yul\":5709:5725   */\n      and\n        /* \"#utility.yul\":5698:5725   */\n      swap1\n      pop\n        /* \"#utility.yul\":5645:5731   */\n      swap2\n      swap1\n      pop\n      jump\t// out\n        /* \"#utility.yul\":5737:5849   */\n    tag_251:\n        /* \"#utility.yul\":5820:5842   */\n      tag_361\n        /* \"#utility.yul\":5836:5841   */\n      dup2\n        /* \"#utility.yul\":5820:5842   */\n      tag_250\n      jump\t// in\n    tag_361:\n        /* \"#utility.yul\":5815:5818   */\n      dup3\n        /* \"#utility.yul\":5808:5843   */\n      mstore\n        /* \"#utility.yul\":5737:5849   */\n      pop\n      pop\n      jump\t// out\n        /* \"#utility.yul\":5855:6069   */\n    tag_63:\n        /* \"#utility.yul\":5944:5948   */\n      0x00\n        /* \"#utility.yul\":5982:5984   */\n      0x20\n        /* \"#utility.yul\":5971:5980   */\n      dup3\n        /* \"#utility.yul\":5967:5985   */\n      add\n        /* \"#utility.yul\":5959:5985   */\n      swap1\n      pop\n        /* \"#utility.yul\":5995:6062   */\n      tag_363\n        /* \"#utility.yul\":6059:6060   */\n      0x00\n        /* \"#utility.yul\":6048:6057   */\n      dup4\n        /* \"#utility.yul\":6044:6061   */\n      add\n        /* \"#utility.yul\":6035:6041   */\n      dup5\n        /* \"#utility.yul\":5995:6062   */\n      tag_251\n      jump\t// in\n    tag_363:\n        /* \"#utility.yul\":5855:6069   */\n      swap3\n      swap2\n      pop\n      pop\n      jump\t// out\n        /* \"#utility.yul\":6075:6244   */\n    tag_252:\n        /* \"#utility.yul\":6159:6170   */\n      0x00\n        /* \"#utility.yul\":6193:6199   */\n      dup3\n        /* \"#utility.yul\":6188:6191   */\n      dup3\n        /* \"#utility.yul\":6181:6200   */\n      mstore\n        /* \"#utility.yul\":6233:6237   */\n      0x20\n        /* \"#utility.yul\":6228:6231   */\n      dup3\n        /* \"#utility.yul\":6224:6238   */\n      add\n        /* \"#utility.yul\":6209:6238   */\n      swap1\n      pop\n        /* \"#utility.yul\":6075:6244   */\n      swap3\n      swap2\n      pop\n      pop\n      jump\t// out\n        /* \"#utility.yul\":6250:6418   */\n    tag_253:\n        /* \"#utility.yul\":6390:6410   */\n      0x416c726561647920726567697374657265640000000000000000000000000000\n        /* \"#utility.yul\":6386:6387   */\n      0x00\n        /* \"#utility.yul\":6378:6384   */\n      dup3\n        /* \"#utility.yul\":6374:6388   */\n      add\n        /* \"#utility.yul\":6367:6411   */\n      mstore\n        /* \"#utility.yul\":6250:6418   */\n      pop\n      jump\t// out\n        /* \"#utility.yul\":6424:6790   */\n    tag_254:\n        /* \"#utility.yul\":6566:6569   */\n      0x00\n        /* \"#utility.yul\":6587:6654   */\n      tag_367\n        /* \"#utility.yul\":6651:6653   */\n      0x12\n        /* \"#utility.yul\":6646:6649   */\n      dup4\n        /* \"#utility.yul\":6587:6654   */\n      tag_252\n      jump\t// in\n    tag_367:\n        /* \"#utility.yul\":6580:6654   */\n      swap2\n      pop\n        /* \"#utility.yul\":6663:6756   */\n      tag_368\n        /* \"#utility.yul\":6752:6755   */\n      dup3\n        /* \"#utility.yul\":6663:6756   */\n      tag_253\n      jump\t// in\n    tag_368:\n        /* \"#utility.yul\":6781:6783   */\n      0x20\n        /* \"#utility.yul\":6776:6779   */\n      dup3\n        /* \"#utility.yul\":6772:6784   */\n      add\n        /* \"#utility.yul\":6765:6784   */\n      swap1\n      pop\n        /* \"#utility.yul\":6424:6790   */\n      swap2\n      swap1\n      pop\n      jump\t// out\n        /* \"#utility.yul\":6796:7215   */\n    tag_79:\n        /* \"#utility.yul\":6962:6966   */\n      0x00\n        /* \"#utility.yul\":7000:7002   */\n      0x20\n        /* \"#utility.yul\":6989:6998   */\n      dup3\n        /* \"#utility.yul\":6985:7003   */\n      add\n        /* \"#utility.yul\":6977:7003   */\n      swap1\n      pop\n        /* \"#utility.yul\":7049:7058   */\n      dup2\n        /* \"#utility.yul\":7043:7047   */\n      dup2\n        /* \"#utility.yul\":7039:7059   */\n      sub\n        /* \"#utility.yul\":7035:7036   */\n      0x00\n        /* \"#utility.yul\":7024:7033   */\n      dup4\n        /* \"#utility.yul\":7020:7037   */\n      add\n        /* \"#utility.yul\":7013:7060   */\n      mstore\n        /* \"#utility.yul\":7077:7208   */\n      tag_370\n        /* \"#utility.yul\":7203:7207   */\n      dup2\n        /* \"#utility.yul\":7077:7208   */\n      tag_254\n      jump\t// in\n    tag_370:\n        /* \"#utility.yul\":7069:7208   */\n      swap1\n      pop\n        /* \"#utility.yul\":6796:7215   */\n      swap2\n      swap1\n      pop\n      jump\t// out\n        /* \"#utility.yul\":7221:7392   */\n    tag_255:\n        /* \"#utility.yul\":7361:7384   */\n      0x43616e6e6f7420726566657220796f757273656c660000000000000000000000\n        /* \"#utility.yul\":7357:7358   */\n      0x00\n        /* \"#utility.yul\":7349:7355   */\n      dup3\n        /* \"#utility.yul\":7345:7359   */\n      add\n        /* \"#utility.yul\":7338:7385   */\n      mstore\n        /* \"#utility.yul\":7221:7392   */\n      pop\n      jump\t// out\n        /* \"#utility.yul\":7398:7764   */\n    tag_256:\n        /* \"#utility.yul\":7540:7543   */\n      0x00\n        /* \"#utility.yul\":7561:7628   */\n      tag_373\n        /* \"#utility.yul\":7625:7627   */\n      0x15\n        /* \"#utility.yul\":7620:7623   */\n      dup4\n        /* \"#utility.yul\":7561:7628   */\n      tag_252\n      jump\t// in\n    tag_373:\n        /* \"#utility.yul\":7554:7628   */\n      swap2\n      pop\n        /* \"#utility.yul\":7637:7730   */\n      tag_374\n        /* \"#utility.yul\":7726:7729   */\n      dup3\n        /* \"#utility.yul\":7637:7730   */\n      tag_255\n      jump\t// in\n    tag_374:\n        /* \"#utility.yul\":7755:7757   */\n      0x20\n        /* \"#utility.yul\":7750:7753   */\n      dup3\n        /* \"#utility.yul\":7746:7758   */\n      add\n        /* \"#utility.yul\":7739:7758   */\n      swap1\n      pop\n        /* \"#utility.yul\":7398:7764   */\n      swap2\n      swap1\n      pop\n      jump\t// out\n        /* \"#utility.yul\":7770:8189   */\n    tag_82:\n        /* \"#utility.yul\":7936:7940   */\n      0x00\n        /* \"#utility.yul\":7974:7976   */\n      0x20\n        /* \"#utility.yul\":7963:7972   */\n      dup3\n        /* \"#utility.yul\":7959:7977   */\n      add\n        /* \"#utility.yul\":7951:7977   */\n      swap1\n      pop\n        /* \"#utility.yul\":8023:8032   */\n      dup2\n        /* \"#utility.yul\":8017:8021   */\n      dup2\n        /* \"#utility.yul\":8013:8033   */\n      sub\n        /* \"#utility.yul\":8009:8010   */\n      0x00\n        /* \"#utility.yul\":7998:8007   */\n      dup4\n        /* \"#utility.yul\":7994:8011   */\n      add\n        /* \"#utility.yul\":7987:8034   */\n      mstore\n        /* \"#utility.yul\":8051:8182   */\n      tag_376\n        /* \"#utility.yul\":8177:8181   */\n      dup2\n        /* \"#utility.yul\":8051:8182   */\n      tag_256\n      jump\t// in\n    tag_376:\n        /* \"#utility.yul\":8043:8182   */\n      swap1\n      pop\n        /* \"#utility.yul\":7770:8189   */\n      swap2\n      swap1\n      pop\n      jump\t// out\n        /* \"#utility.yul\":8195:8368   */\n    tag_257:\n        /* \"#utility.yul\":8335:8360   */\n      0x5265666572726572206e6f742072656769737465726564000000000000000000\n        /* \"#utility.yul\":8331:8332   */\n      0x00\n        /* \"#utility.yul\":8323:8329   */\n      dup3\n        /* \"#utility.yul\":8319:8333   */\n      add\n        /* \"#utility.yul\":8312:8361   */\n      mstore\n        /* \"#utility.yul\":8195:8368   */\n      pop\n      jump\t// out\n        /* \"#utility.yul\":8374:8740   */\n    tag_258:\n        /* \"#utility.yul\":8516:8519   */\n      0x00\n        /* \"#utility.yul\":8537:8604   */\n      tag_379\n        /* \"#utility.yul\":8601:8603   */\n      0x17\n        /* \"#utility.yul\":8596:8599   */\n      dup4\n        /* \"#utility.yul\":8537:8604   */\n      tag_252\n      jump\t// in\n    tag_379:\n        /* \"#utility.yul\":8530:8604   */\n      swap2\n      pop\n        /* \"#utility.yul\":8613:8706   */\n      tag_380\n        /* \"#utility.yul\":8702:8705   */\n      dup3\n        /* \"#utility.yul\":8613:8706   */\n      tag_257\n      jump\t// in\n    tag_380:\n        /* \"#utility.yul\":8731:8733   */\n      0x20\n        /* \"#utility.yul\":8726:8729   */\n      dup3\n        /* \"#utility.yul\":8722:8734   */\n      add\n        /* \"#utility.yul\":8715:8734   */\n      swap1\n      pop\n        /* \"#utility.yul\":8374:8740   */\n      swap2\n      swap1\n      pop\n      jump\t// out\n        /* \"#utility.yul\":8746:9165   */\n    tag_85:\n        /* \"#utility.yul\":8912:8916   */\n      0x00\n        /* \"#utility.yul\":8950:8952   */\n      0x20\n        /* \"#utility.yul\":8939:8948   */\n      dup3\n        /* \"#utility.yul\":8935:8953   */\n      add\n        /* \"#utility.yul\":8927:8953   */\n      swap1\n      pop\n        /* \"#utility.yul\":8999:9008   */\n      dup2\n        /* \"#utility.yul\":8993:8997   */\n      dup2\n        /* \"#utility.yul\":8989:9009   */\n      sub\n        /* \"#utility.yul\":8985:8986   */\n      0x00\n        /* \"#utility.yul\":8974:8983   */\n      dup4\n        /* \"#utility.yul\":8970:8987   */\n      add\n        /* \"#utility.yul\":8963:9010   */\n      mstore\n        /* \"#utility.yul\":9027:9158   */\n      tag_382\n        /* \"#utility.yul\":9153:9157   */\n      dup2\n        /* \"#utility.yul\":9027:9158   */\n      tag_258\n      jump\t// in\n    tag_382:\n        /* \"#utility.yul\":9019:9158   */\n      swap1\n      pop\n        /* \"#utility.yul\":8746:9165   */\n      swap2\n      swap1\n      pop\n      jump\t// out\n        /* \"#utility.yul\":9171:9401   */\n    tag_259:\n        /* \"#utility.yul\":9311:9345   */\n      0x5265666572726572206d757374207374616b65206265666f726520796f752063\n        /* \"#utility.yul\":9307:9308   */\n      0x00\n        /* \"#utility.yul\":9299:9305   */\n      dup3\n        /* \"#utility.yul\":9295:9309   */\n      add\n        /* \"#utility.yul\":9288:9346   */\n      mstore\n        /* \"#utility.yul\":9380:9393   */\n      0x616e207265676973746572000000000000000000000000000000000000000000\n        /* \"#utility.yul\":9375:9377   */\n      0x20\n        /* \"#utility.yul\":9367:9373   */\n      dup3\n        /* \"#utility.yul\":9363:9378   */\n      add\n        /* \"#utility.yul\":9356:9394   */\n      mstore\n        /* \"#utility.yul\":9171:9401   */\n      pop\n      jump\t// out\n        /* \"#utility.yul\":9407:9773   */\n    tag_260:\n        /* \"#utility.yul\":9549:9552   */\n      0x00\n        /* \"#utility.yul\":9570:9637   */\n      tag_385\n        /* \"#utility.yul\":9634:9636   */\n      0x2b\n        /* \"#utility.yul\":9629:9632   */\n      dup4\n        /* \"#utility.yul\":9570:9637   */\n      tag_252\n      jump\t// in\n    tag_385:\n        /* \"#utility.yul\":9563:9637   */\n      swap2\n      pop\n        /* \"#utility.yul\":9646:9739   */\n      tag_386\n        /* \"#utility.yul\":9735:9738   */\n      dup3\n        /* \"#utility.yul\":9646:9739   */\n      tag_259\n      jump\t// in\n    tag_386:\n        /* \"#utility.yul\":9764:9766   */\n      0x40\n        /* \"#utility.yul\":9759:9762   */\n      dup3\n        /* \"#utility.yul\":9755:9767   */\n      add\n        /* \"#utility.yul\":9748:9767   */\n      swap1\n      pop\n        /* \"#utility.yul\":9407:9773   */\n      swap2\n      swap1\n      pop\n      jump\t// out\n        /* \"#utility.yul\":9779:10198   */\n    tag_88:\n        /* \"#utility.yul\":9945:9949   */\n      0x00\n        /* \"#utility.yul\":9983:9985   */\n      0x20\n        /* \"#utility.yul\":9972:9981   */\n      dup3\n        /* \"#utility.yul\":9968:9986   */\n      add\n        /* \"#utility.yul\":9960:9986   */\n      swap1\n      pop\n        /* \"#utility.yul\":10032:10041   */\n      dup2\n        /* \"#utility.yul\":10026:10030   */\n      dup2\n        /* \"#utility.yul\":10022:10042   */\n      sub\n        /* \"#utility.yul\":10018:10019   */\n      0x00\n        /* \"#utility.yul\":10007:10016   */\n      dup4\n        /* \"#utility.yul\":10003:10020   */\n      add\n        /* \"#utility.yul\":9996:10043   */\n      mstore\n        /* \"#utility.yul\":10060:10191   */\n      tag_388\n        /* \"#utility.yul\":10186:10190   */\n      dup2\n        /* \"#utility.yul\":10060:10191   */\n      tag_260\n      jump\t// in\n    tag_388:\n        /* \"#utility.yul\":10052:10191   */\n      swap1\n      pop\n        /* \"#utility.yul\":9779:10198   */\n      swap2\n      swap1\n      pop\n      jump\t// out\n        /* \"#utility.yul\":10204:10368   */\n    tag_261:\n        /* \"#utility.yul\":10344:10360   */\n      0x4e6f742072656769737465726564000000000000000000000000000000000000\n        /* \"#utility.yul\":10340:10341   */\n      0x00\n        /* \"#utility.yul\":10332:10338   */\n      dup3\n        /* \"#utility.yul\":10328:10342   */\n      add\n        /* \"#utility.yul\":10321:10361   */\n      mstore\n        /* \"#utility.yul\":10204:10368   */\n      pop\n      jump\t// out\n        /* \"#utility.yul\":10374:10740   */\n    tag_262:\n        /* \"#utility.yul\":10516:10519   */\n      0x00\n        /* \"#utility.yul\":10537:10604   */\n      tag_391\n        /* \"#utility.yul\":10601:10603   */\n      0x0e\n        /* \"#utility.yul\":10596:10599   */\n      dup4\n        /* \"#utility.yul\":10537:10604   */\n      tag_252\n      jump\t// in\n    tag_391:\n        /* \"#utility.yul\":10530:10604   */\n      swap2\n      pop\n        /* \"#utility.yul\":10613:10706   */\n      tag_392\n        /* \"#utility.yul\":10702:10705   */\n      dup3\n        /* \"#utility.yul\":10613:10706   */\n      tag_261\n      jump\t// in\n    tag_392:\n        /* \"#utility.yul\":10731:10733   */\n      0x20\n        /* \"#utility.yul\":10726:10729   */\n      dup3\n        /* \"#utility.yul\":10722:10734   */\n      add\n        /* \"#utility.yul\":10715:10734   */\n      swap1\n      pop\n        /* \"#utility.yul\":10374:10740   */\n      swap2\n      swap1\n      pop\n      jump\t// out\n        /* \"#utility.yul\":10746:11165   */\n    tag_94:\n        /* \"#utility.yul\":10912:10916   */\n      0x00\n        /* \"#utility.yul\":10950:10952   */\n      0x20\n        /* \"#utility.yul\":10939:10948   */\n      dup3\n        /* \"#utility.yul\":10935:10953   */\n      add\n        /* \"#utility.yul\":10927:10953   */\n      swap1\n      pop\n        /* \"#utility.yul\":10999:11008   */\n      dup2\n        /* \"#utility.yul\":10993:10997   */\n      dup2\n        /* \"#utility.yul\":10989:11009   */\n      sub\n        /* \"#utility.yul\":10985:10986   */\n      0x00\n        /* \"#utility.yul\":10974:10983   */\n      dup4\n        /* \"#utility.yul\":10970:10987   */\n      add\n        /* \"#utility.yul\":10963:11010   */\n      mstore\n        /* \"#utility.yul\":11027:11158   */\n      tag_394\n        /* \"#utility.yul\":11153:11157   */\n      dup2\n        /* \"#utility.yul\":11027:11158   */\n      tag_262\n      jump\t// in\n    tag_394:\n        /* \"#utility.yul\":11019:11158   */\n      swap1\n      pop\n        /* \"#utility.yul\":10746:11165   */\n      swap2\n      swap1\n      pop\n      jump\t// out\n        /* \"#utility.yul\":11171:11393   */\n    tag_263:\n        /* \"#utility.yul\":11311:11345   */\n      0x5374616b6520616d6f756e74206d757374206265206772656174657220746861\n        /* \"#utility.yul\":11307:11308   */\n      0x00\n        /* \"#utility.yul\":11299:11305   */\n      dup3\n        /* \"#utility.yul\":11295:11309   */\n      add\n        /* \"#utility.yul\":11288:11346   */\n      mstore\n        /* \"#utility.yul\":11380:11385   */\n      0x6e20300000000000000000000000000000000000000000000000000000000000\n        /* \"#utility.yul\":11375:11377   */\n      0x20\n        /* \"#utility.yul\":11367:11373   */\n      dup3\n        /* \"#utility.yul\":11363:11378   */\n      add\n        /* \"#utility.yul\":11356:11386   */\n      mstore\n        /* \"#utility.yul\":11171:11393   */\n      pop\n      jump\t// out\n        /* \"#utility.yul\":11399:11765   */\n    tag_264:\n        /* \"#utility.yul\":11541:11544   */\n      0x00\n        /* \"#utility.yul\":11562:11629   */\n      tag_397\n        /* \"#utility.yul\":11626:11628   */\n      0x23\n        /* \"#utility.yul\":11621:11624   */\n      dup4\n        /* \"#utility.yul\":11562:11629   */\n      tag_252\n      jump\t// in\n    tag_397:\n        /* \"#utility.yul\":11555:11629   */\n      swap2\n      pop\n        /* \"#utility.yul\":11638:11731   */\n      tag_398\n        /* \"#utility.yul\":11727:11730   */\n      dup3\n        /* \"#utility.yul\":11638:11731   */\n      tag_263\n      jump\t// in\n    tag_398:\n        /* \"#utility.yul\":11756:11758   */\n      0x40\n        /* \"#utility.yul\":11751:11754   */\n      dup3\n        /* \"#utility.yul\":11747:11759   */\n      add\n        /* \"#utility.yul\":11740:11759   */\n      swap1\n      pop\n        /* \"#utility.yul\":11399:11765   */\n      swap2\n      swap1\n      pop\n      jump\t// out\n        /* \"#utility.yul\":11771:12190   */\n    tag_98:\n        /* \"#utility.yul\":11937:11941   */\n      0x00\n        /* \"#utility.yul\":11975:11977   */\n      0x20\n        /* \"#utility.yul\":11964:11973   */\n      dup3\n        /* \"#utility.yul\":11960:11978   */\n      add\n        /* \"#utility.yul\":11952:11978   */\n      swap1\n      pop\n        /* \"#utility.yul\":12024:12033   */\n      dup2\n        /* \"#utility.yul\":12018:12022   */\n      dup2\n        /* \"#utility.yul\":12014:12034   */\n      sub\n        /* \"#utility.yul\":12010:12011   */\n      0x00\n        /* \"#utility.yul\":11999:12008   */\n      dup4\n        /* \"#utility.yul\":11995:12012   */\n      add\n        /* \"#utility.yul\":11988:12035   */\n      mstore\n        /* \"#utility.yul\":12052:12183   */\n      tag_400\n        /* \"#utility.yul\":12178:12182   */\n      dup2\n        /* \"#utility.yul\":12052:12183   */\n      tag_264\n      jump\t// in\n    tag_400:\n        /* \"#utility.yul\":12044:12183   */\n      swap1\n      pop\n        /* \"#utility.yul\":11771:12190   */\n      swap2\n      swap1\n      pop\n      jump\t// out\n        /* \"#utility.yul\":12196:12370   */\n    tag_265:\n        /* \"#utility.yul\":12336:12362   */\n      0x496e76616c6964207374616b696e67206475726174696f6e0000000000000000\n        /* \"#utility.yul\":12332:12333   */\n      0x00\n        /* \"#utility.yul\":12324:12330   */\n      dup3\n        /* \"#utility.yul\":12320:12334   */\n      add\n        /* \"#utility.yul\":12313:12363   */\n      mstore\n        /* \"#utility.yul\":12196:12370   */\n      pop\n      jump\t// out\n        /* \"#utility.yul\":12376:12742   */\n    tag_266:\n        /* \"#utility.yul\":12518:12521   */\n      0x00\n        /* \"#utility.yul\":12539:12606   */\n      tag_403\n        /* \"#utility.yul\":12603:12605   */\n      0x18\n        /* \"#utility.yul\":12598:12601   */\n      dup4\n        /* \"#utility.yul\":12539:12606   */\n      tag_252\n      jump\t// in\n    tag_403:\n        /* \"#utility.yul\":12532:12606   */\n      swap2\n      pop\n        /* \"#utility.yul\":12615:12708   */\n      tag_404\n        /* \"#utility.yul\":12704:12707   */\n      dup3\n        /* \"#utility.yul\":12615:12708   */\n      tag_265\n      jump\t// in\n    tag_404:\n        /* \"#utility.yul\":12733:12735   */\n      0x20\n        /* \"#utility.yul\":12728:12731   */\n      dup3\n        /* \"#utility.yul\":12724:12736   */\n      add\n        /* \"#utility.yul\":12717:12736   */\n      swap1\n      pop\n        /* \"#utility.yul\":12376:12742   */\n      swap2\n      swap1\n      pop\n      jump\t// out\n        /* \"#utility.yul\":12748:13167   */\n    tag_101:\n        /* \"#utility.yul\":12914:12918   */\n      0x00\n        /* \"#utility.yul\":12952:12954   */\n      0x20\n        /* \"#utility.yul\":12941:12950   */\n      dup3\n        /* \"#utility.yul\":12937:12955   */\n      add\n        /* \"#utility.yul\":12929:12955   */\n      swap1\n      pop\n        /* \"#utility.yul\":13001:13010   */\n      dup2\n        /* \"#utility.yul\":12995:12999   */\n      dup2\n        /* \"#utility.yul\":12991:13011   */\n      sub\n        /* \"#utility.yul\":12987:12988   */\n      0x00\n        /* \"#utility.yul\":12976:12985   */\n      dup4\n        /* \"#utility.yul\":12972:12989   */\n      add\n        /* \"#utility.yul\":12965:13012   */\n      mstore\n        /* \"#utility.yul\":13029:13160   */\n      tag_406\n        /* \"#utility.yul\":13155:13159   */\n      dup2\n        /* \"#utility.yul\":13029:13160   */\n      tag_266\n      jump\t// in\n    tag_406:\n        /* \"#utility.yul\":13021:13160   */\n      swap1\n      pop\n        /* \"#utility.yul\":12748:13167   */\n      swap2\n      swap1\n      pop\n      jump\t// out\n        /* \"#utility.yul\":13173:13400   */\n    tag_267:\n        /* \"#utility.yul\":13313:13347   */\n      0x5265666572726572206d757374207374616b65206265666f726520796f752063\n        /* \"#utility.yul\":13309:13310   */\n      0x00\n        /* \"#utility.yul\":13301:13307   */\n      dup3\n        /* \"#utility.yul\":13297:13311   */\n      add\n        /* \"#utility.yul\":13290:13348   */\n      mstore\n        /* \"#utility.yul\":13382:13392   */\n      0x616e207374616b65000000000000000000000000000000000000000000000000\n        /* \"#utility.yul\":13377:13379   */\n      0x20\n        /* \"#utility.yul\":13369:13375   */\n      dup3\n        /* \"#utility.yul\":13365:13380   */\n      add\n        /* \"#utility.yul\":13358:13393   */\n      mstore\n        /* \"#utility.yul\":13173:13400   */\n      pop\n      jump\t// out\n        /* \"#utility.yul\":13406:13772   */\n    tag_268:\n        /* \"#utility.yul\":13548:13551   */\n      0x00\n        /* \"#utility.yul\":13569:13636   */\n      tag_409\n        /* \"#utility.yul\":13633:13635   */\n      0x28\n        /* \"#utility.yul\":13628:13631   */\n      dup4\n        /* \"#utility.yul\":13569:13636   */\n      tag_252\n      jump\t// in\n    tag_409:\n        /* \"#utility.yul\":13562:13636   */\n      swap2\n      pop\n        /* \"#utility.yul\":13645:13738   */\n      tag_410\n        /* \"#utility.yul\":13734:13737   */\n      dup3\n        /* \"#utility.yul\":13645:13738   */\n      tag_267\n      jump\t// in\n    tag_410:\n        /* \"#utility.yul\":13763:13765   */\n      0x40\n        /* \"#utility.yul\":13758:13761   */\n      dup3\n        /* \"#utility.yul\":13754:13766   */\n      add\n        /* \"#utility.yul\":13747:13766   */\n      swap1\n      pop\n        /* \"#utility.yul\":13406:13772   */\n      swap2\n      swap1\n      pop\n      jump\t// out\n        /* \"#utility.yul\":13778:14197   */\n    tag_105:\n        /* \"#utility.yul\":13944:13948   */\n      0x00\n        /* \"#utility.yul\":13982:13984   */\n      0x20\n        /* \"#utility.yul\":13971:13980   */\n      dup3\n        /* \"#utility.yul\":13967:13985   */\n      add\n        /* \"#utility.yul\":13959:13985   */\n      swap1\n      pop\n        /* \"#utility.yul\":14031:14040   */\n      dup2\n        /* \"#utility.yul\":14025:14029   */\n      dup2\n        /* \"#utility.yul\":14021:14041   */\n      sub\n        /* \"#utility.yul\":14017:14018   */\n      0x00\n        /* \"#utility.yul\":14006:14015   */\n      dup4\n        /* \"#utility.yul\":14002:14019   */\n      add\n        /* \"#utility.yul\":13995:14042   */\n      mstore\n        /* \"#utility.yul\":14059:14190   */\n      tag_412\n        /* \"#utility.yul\":14185:14189   */\n      dup2\n        /* \"#utility.yul\":14059:14190   */\n      tag_268\n      jump\t// in\n    tag_412:\n        /* \"#utility.yul\":14051:14190   */\n      swap1\n      pop\n        /* \"#utility.yul\":13778:14197   */\n      swap2\n      swap1\n      pop\n      jump\t// out\n        /* \"#utility.yul\":14203:14645   */\n    tag_107:\n        /* \"#utility.yul\":14352:14356   */\n      0x00\n        /* \"#utility.yul\":14390:14392   */\n      0x60\n        /* \"#utility.yul\":14379:14388   */\n      dup3\n        /* \"#utility.yul\":14375:14393   */\n      add\n        /* \"#utility.yul\":14367:14393   */\n      swap1\n      pop\n        /* \"#utility.yul\":14403:14474   */\n      tag_414\n        /* \"#utility.yul\":14471:14472   */\n      0x00\n        /* \"#utility.yul\":14460:14469   */\n      dup4\n        /* \"#utility.yul\":14456:14473   */\n      add\n        /* \"#utility.yul\":14447:14453   */\n      dup7\n        /* \"#utility.yul\":14403:14474   */\n      tag_241\n      jump\t// in\n    tag_414:\n        /* \"#utility.yul\":14484:14556   */\n      tag_415\n        /* \"#utility.yul\":14552:14554   */\n      0x20\n        /* \"#utility.yul\":14541:14550   */\n      dup4\n        /* \"#utility.yul\":14537:14555   */\n      add\n        /* \"#utility.yul\":14528:14534   */\n      dup6\n        /* \"#utility.yul\":14484:14556   */\n      tag_241\n      jump\t// in\n    tag_415:\n        /* \"#utility.yul\":14566:14638   */\n      tag_416\n        /* \"#utility.yul\":14634:14636   */\n      0x40\n        /* \"#utility.yul\":14623:14632   */\n      dup4\n        /* \"#utility.yul\":14619:14637   */\n      add\n        /* \"#utility.yul\":14610:14616   */\n      dup5\n        /* \"#utility.yul\":14566:14638   */\n      tag_242\n      jump\t// in\n    tag_416:\n        /* \"#utility.yul\":14203:14645   */\n      swap5\n      swap4\n      pop\n      pop\n      pop\n      pop\n      jump\t// out\n        /* \"#utility.yul\":14651:14767   */\n    tag_269:\n        /* \"#utility.yul\":14721:14742   */\n      tag_418\n        /* \"#utility.yul\":14736:14741   */\n      dup2\n        /* \"#utility.yul\":14721:14742   */\n      tag_243\n      jump\t// in\n    tag_418:\n        /* \"#utility.yul\":14714:14719   */\n      dup2\n        /* \"#utility.yul\":14711:14743   */\n      eq\n        /* \"#utility.yul\":14701:14761   */\n      tag_419\n      jumpi\n        /* \"#utility.yul\":14757:14758   */\n      0x00\n        /* \"#utility.yul\":14754:14755   */\n      dup1\n        /* \"#utility.yul\":14747:14759   */\n      revert\n        /* \"#utility.yul\":14701:14761   */\n    tag_419:\n        /* \"#utility.yul\":14651:14767   */\n      pop\n      jump\t// out\n        /* \"#utility.yul\":14773:14910   */\n    tag_270:\n        /* \"#utility.yul\":14827:14832   */\n      0x00\n        /* \"#utility.yul\":14858:14864   */\n      dup2\n        /* \"#utility.yul\":14852:14865   */\n      mload\n        /* \"#utility.yul\":14843:14865   */\n      swap1\n      pop\n        /* \"#utility.yul\":14874:14904   */\n      tag_421\n        /* \"#utility.yul\":14898:14903   */\n      dup2\n        /* \"#utility.yul\":14874:14904   */\n      tag_269\n      jump\t// in\n    tag_421:\n        /* \"#utility.yul\":14773:14910   */\n      swap3\n      swap2\n      pop\n      pop\n      jump\t// out\n        /* \"#utility.yul\":14916:15261   */\n    tag_111:\n        /* \"#utility.yul\":14983:14989   */\n      0x00\n        /* \"#utility.yul\":15032:15034   */\n      0x20\n        /* \"#utility.yul\":15020:15029   */\n      dup3\n        /* \"#utility.yul\":15011:15018   */\n      dup5\n        /* \"#utility.yul\":15007:15030   */\n      sub\n        /* \"#utility.yul\":15003:15035   */\n      slt\n        /* \"#utility.yul\":15000:15119   */\n      iszero\n      tag_423\n      jumpi\n        /* \"#utility.yul\":15038:15117   */\n      tag_424\n      tag_232\n      jump\t// in\n    tag_424:\n        /* \"#utility.yul\":15000:15119   */\n    tag_423:\n        /* \"#utility.yul\":15158:15159   */\n      0x00\n        /* \"#utility.yul\":15183:15244   */\n      tag_425\n        /* \"#utility.yul\":15236:15243   */\n      dup5\n        /* \"#utility.yul\":15227:15233   */\n      dup3\n        /* \"#utility.yul\":15216:15225   */\n      dup6\n        /* \"#utility.yul\":15212:15234   */\n      add\n        /* \"#utility.yul\":15183:15244   */\n      tag_270\n      jump\t// in\n    tag_425:\n        /* \"#utility.yul\":15173:15244   */\n      swap2\n      pop\n        /* \"#utility.yul\":15129:15254   */\n      pop\n        /* \"#utility.yul\":14916:15261   */\n      swap3\n      swap2\n      pop\n      pop\n      jump\t// out\n        /* \"#utility.yul\":15267:15437   */\n    tag_271:\n        /* \"#utility.yul\":15407:15429   */\n      0x55534454207472616e73666572206661696c6564000000000000000000000000\n        /* \"#utility.yul\":15403:15404   */\n      0x00\n        /* \"#utility.yul\":15395:15401   */\n      dup3\n        /* \"#utility.yul\":15391:15405   */\n      add\n        /* \"#utility.yul\":15384:15430   */\n      mstore\n        /* \"#utility.yul\":15267:15437   */\n      pop\n      jump\t// out\n        /* \"#utility.yul\":15443:15809   */\n    tag_272:\n        /* \"#utility.yul\":15585:15588   */\n      0x00\n        /* \"#utility.yul\":15606:15673   */\n      tag_428\n        /* \"#utility.yul\":15670:15672   */\n      0x14\n        /* \"#utility.yul\":15665:15668   */\n      dup4\n        /* \"#utility.yul\":15606:15673   */\n      tag_252\n      jump\t// in\n    tag_428:\n        /* \"#utility.yul\":15599:15673   */\n      swap2\n      pop\n        /* \"#utility.yul\":15682:15775   */\n      tag_429\n        /* \"#utility.yul\":15771:15774   */\n      dup3\n        /* \"#utility.yul\":15682:15775   */\n      tag_271\n      jump\t// in\n    tag_429:\n        /* \"#utility.yul\":15800:15802   */\n      0x20\n        /* \"#utility.yul\":15795:15798   */\n      dup3\n        /* \"#utility.yul\":15791:15803   */\n      add\n        /* \"#utility.yul\":15784:15803   */\n      swap1\n      pop\n        /* \"#utility.yul\":15443:15809   */\n      swap2\n      swap1\n      pop\n      jump\t// out\n        /* \"#utility.yul\":15815:16234   */\n    tag_114:\n        /* \"#utility.yul\":15981:15985   */\n      0x00\n        /* \"#utility.yul\":16019:16021   */\n      0x20\n        /* \"#utility.yul\":16008:16017   */\n      dup3\n        /* \"#utility.yul\":16004:16022   */\n      add\n        /* \"#utility.yul\":15996:16022   */\n      swap1\n      pop\n        /* \"#utility.yul\":16068:16077   */\n      dup2\n        /* \"#utility.yul\":16062:16066   */\n      dup2\n        /* \"#utility.yul\":16058:16078   */\n      sub\n        /* \"#utility.yul\":16054:16055   */\n      0x00\n        /* \"#utility.yul\":16043:16052   */\n      dup4\n        /* \"#utility.yul\":16039:16056   */\n      add\n        /* \"#utility.yul\":16032:16079   */\n      mstore\n        /* \"#utility.yul\":16096:16227   */\n      tag_431\n        /* \"#utility.yul\":16222:16226   */\n      dup2\n        /* \"#utility.yul\":16096:16227   */\n      tag_272\n      jump\t// in\n    tag_431:\n        /* \"#utility.yul\":16088:16227   */\n      swap1\n      pop\n        /* \"#utility.yul\":15815:16234   */\n      swap2\n      swap1\n      pop\n      jump\t// out\n        /* \"#utility.yul\":16240:16420   */\n    tag_273:\n        /* \"#utility.yul\":16288:16365   */\n      0x4e487b7100000000000000000000000000000000000000000000000000000000\n        /* \"#utility.yul\":16285:16286   */\n      0x00\n        /* \"#utility.yul\":16278:16366   */\n      mstore\n        /* \"#utility.yul\":16385:16389   */\n      0x11\n        /* \"#utility.yul\":16382:16383   */\n      0x04\n        /* \"#utility.yul\":16375:16390   */\n      mstore\n        /* \"#utility.yul\":16409:16413   */\n      0x24\n        /* \"#utility.yul\":16406:16407   */\n      0x00\n        /* \"#utility.yul\":16399:16414   */\n      revert\n        /* \"#utility.yul\":16426:16659   */\n    tag_116:\n        /* \"#utility.yul\":16465:16468   */\n      0x00\n        /* \"#utility.yul\":16488:16512   */\n      tag_434\n        /* \"#utility.yul\":16506:16511   */\n      dup3\n        /* \"#utility.yul\":16488:16512   */\n      tag_238\n      jump\t// in\n    tag_434:\n        /* \"#utility.yul\":16479:16512   */\n      swap2\n      pop\n        /* \"#utility.yul\":16534:16600   */\n      0xffffffffffffffffffffffffffffffffffffffffffffffffffffffffffffffff\n        /* \"#utility.yul\":16527:16532   */\n      dup3\n        /* \"#utility.yul\":16524:16601   */\n      sub\n        /* \"#utility.yul\":16521:16624   */\n      tag_435\n      jumpi\n        /* \"#utility.yul\":16604:16622   */\n      tag_436\n      tag_273\n      jump\t// in\n    tag_436:\n        /* \"#utility.yul\":16521:16624   */\n    tag_435:\n        /* \"#utility.yul\":16651:16652   */\n      0x01\n        /* \"#utility.yul\":16644:16649   */\n      dup3\n        /* \"#utility.yul\":16640:16653   */\n      add\n        /* \"#utility.yul\":16633:16653   */\n      swap1\n      pop\n        /* \"#utility.yul\":16426:16659   */\n      swap2\n      swap1\n      pop\n      jump\t// out\n        /* \"#utility.yul\":16665:17075   */\n    tag_125:\n        /* \"#utility.yul\":16705:16712   */\n      0x00\n        /* \"#utility.yul\":16728:16748   */\n      tag_438\n        /* \"#utility.yul\":16746:16747   */\n      dup3\n        /* \"#utility.yul\":16728:16748   */\n      tag_238\n      jump\t// in\n    tag_438:\n        /* \"#utility.yul\":16723:16748   */\n      swap2\n      pop\n        /* \"#utility.yul\":16762:16782   */\n      tag_439\n        /* \"#utility.yul\":16780:16781   */\n      dup4\n        /* \"#utility.yul\":16762:16782   */\n      tag_238\n      jump\t// in\n    tag_439:\n        /* \"#utility.yul\":16757:16782   */\n      swap3\n      pop\n        /* \"#utility.yul\":16817:16818   */\n      dup3\n        /* \"#utility.yul\":16814:16815   */\n      dup3\n        /* \"#utility.yul\":16810:16819   */\n      mul\n        /* \"#utility.yul\":16839:16869   */\n      tag_440\n        /* \"#utility.yul\":16857:16868   */\n      dup2\n        /* \"#utility.yul\":16839:16869   */\n      tag_238\n      jump\t// in\n    tag_440:\n        /* \"#utility.yul\":16828:16869   */\n      swap2\n      pop\n        /* \"#utility.yul\":17018:17019   */\n      dup3\n        /* \"#utility.yul\":17009:17016   */\n      dup3\n        /* \"#utility.yul\":17005:17020   */\n      div\n        /* \"#utility.yul\":17002:17003   */\n      dup5\n        /* \"#utility.yul\":16999:17021   */\n      eq\n        /* \"#utility.yul\":16979:16980   */\n      dup4\n        /* \"#utility.yul\":16972:16981   */\n      iszero\n        /* \"#utility.yul\":16952:17035   */\n      or\n        /* \"#utility.yul\":16929:17068   */\n      tag_441\n      jumpi\n        /* \"#utility.yul\":17048:17066   */\n      tag_442\n      tag_273\n      jump\t// in\n    tag_442:\n        /* \"#utility.yul\":16929:17068   */\n    tag_441:\n        /* \"#utility.yul\":16713:17075   */\n      pop\n        /* \"#utility.yul\":16665:17075   */\n      swap3\n      swap2\n      pop\n      pop\n      jump\t// out\n        /* \"#utility.yul\":17081:17261   */\n    tag_274:\n        /* \"#utility.yul\":17129:17206   */\n      0x4e487b7100000000000000000000000000000000000000000000000000000000\n        /* \"#utility.yul\":17126:17127   */\n      0x00\n        /* \"#utility.yul\":17119:17207   */\n      mstore\n        /* \"#utility.yul\":17226:17230   */\n      0x12\n        /* \"#utility.yul\":17223:17224   */\n      0x04\n        /* \"#utility.yul\":17216:17231   */\n      mstore\n        /* \"#utility.yul\":17250:17254   */\n      0x24\n        /* \"#utility.yul\":17247:17248   */\n      0x00\n        /* \"#utility.yul\":17240:17255   */\n      revert\n        /* \"#utility.yul\":17267:17452   */\n    tag_127:\n        /* \"#utility.yul\":17307:17308   */\n      0x00\n        /* \"#utility.yul\":17324:17344   */\n      tag_445\n        /* \"#utility.yul\":17342:17343   */\n      dup3\n        /* \"#utility.yul\":17324:17344   */\n      tag_238\n      jump\t// in\n    tag_445:\n        /* \"#utility.yul\":17319:17344   */\n      swap2\n      pop\n        /* \"#utility.yul\":17358:17378   */\n      tag_446\n        /* \"#utility.yul\":17376:17377   */\n      dup4\n        /* \"#utility.yul\":17358:17378   */\n      tag_238\n      jump\t// in\n    tag_446:\n        /* \"#utility.yul\":17353:17378   */\n      swap3\n      pop\n        /* \"#utility.yul\":17397:17398   */\n      dup3\n        /* \"#utility.yul\":17387:17422   */\n      tag_447\n      jumpi\n        /* \"#utility.yul\":17402:17420   */\n      tag_448\n      tag_274\n      jump\t// in\n    tag_448:\n        /* \"#utility.yul\":17387:17422   */\n    tag_447:\n        /* \"#utility.yul\":17444:17445   */\n      dup3\n        /* \"#utility.yul\":17441:17442   */\n      dup3\n        /* \"#utility.yul\":17437:17446   */\n      div\n        /* \"#utility.yul\":17432:17446   */\n      swap1\n      pop\n        /* \"#utility.yul\":17267:17452   */\n      swap3\n      swap2\n      pop\n      pop\n      jump\t// out\n        /* \"#utility.yul\":17458:17649   */\n    tag_131:\n        /* \"#utility.yul\":17498:17501   */\n      0x00\n        /* \"#utility.yul\":17517:17537   */\n      tag_450\n        /* \"#utility.yul\":17535:17536   */\n      dup3\n        /* \"#utility.yul\":17517:17537   */\n      tag_238\n      jump\t// in\n    tag_450:\n        /* \"#utility.yul\":17512:17537   */\n      swap2\n      pop\n        /* \"#utility.yul\":17551:17571   */\n      tag_451\n        /* \"#utility.yul\":17569:17570   */\n      dup4\n        /* \"#utility.yul\":17551:17571   */\n      tag_238\n      jump\t// in\n    tag_451:\n        /* \"#utility.yul\":17546:17571   */\n      swap3\n      pop\n        /* \"#utility.yul\":17594:17595   */\n      dup3\n        /* \"#utility.yul\":17591:17592   */\n      dup3\n        /* \"#utility.yul\":17587:17596   */\n      add\n        /* \"#utility.yul\":17580:17596   */\n      swap1\n      pop\n        /* \"#utility.yul\":17615:17618   */\n      dup1\n        /* \"#utility.yul\":17612:17613   */\n      dup3\n        /* \"#utility.yul\":17609:17619   */\n      gt\n        /* \"#utility.yul\":17606:17642   */\n      iszero\n      tag_452\n      jumpi\n        /* \"#utility.yul\":17622:17640   */\n      tag_453\n      tag_273\n      jump\t// in\n    tag_453:\n        /* \"#utility.yul\":17606:17642   */\n    tag_452:\n        /* \"#utility.yul\":17458:17649   */\n      swap3\n      swap2\n      pop\n      pop\n      jump\t// out\n        /* \"#utility.yul\":17655:17798   */\n    tag_275:\n        /* \"#utility.yul\":17712:17717   */\n      0x00\n        /* \"#utility.yul\":17743:17749   */\n      dup2\n        /* \"#utility.yul\":17737:17750   */\n      mload\n        /* \"#utility.yul\":17728:17750   */\n      swap1\n      pop\n        /* \"#utility.yul\":17759:17792   */\n      tag_455\n        /* \"#utility.yul\":17786:17791   */\n      dup2\n        /* \"#utility.yul\":17759:17792   */\n      tag_239\n      jump\t// in\n    tag_455:\n        /* \"#utility.yul\":17655:17798   */\n      swap3\n      swap2\n      pop\n      pop\n      jump\t// out\n        /* \"#utility.yul\":17804:18155   */\n    tag_136:\n        /* \"#utility.yul\":17874:17880   */\n      0x00\n        /* \"#utility.yul\":17923:17925   */\n      0x20\n        /* \"#utility.yul\":17911:17920   */\n      dup3\n        /* \"#utility.yul\":17902:17909   */\n      dup5\n        /* \"#utility.yul\":17898:17921   */\n      sub\n        /* \"#utility.yul\":17894:17926   */\n      slt\n        /* \"#utility.yul\":17891:18010   */\n      iszero\n      tag_457\n      jumpi\n        /* \"#utility.yul\":17929:18008   */\n      tag_458\n      tag_232\n      jump\t// in\n    tag_458:\n        /* \"#utility.yul\":17891:18010   */\n    tag_457:\n        /* \"#utility.yul\":18049:18050   */\n      0x00\n        /* \"#utility.yul\":18074:18138   */\n      tag_459\n        /* \"#utility.yul\":18130:18137   */\n      dup5\n        /* \"#utility.yul\":18121:18127   */\n      dup3\n        /* \"#utility.yul\":18110:18119   */\n      dup6\n        /* \"#utility.yul\":18106:18128   */\n      add\n        /* \"#utility.yul\":18074:18138   */\n      tag_275\n      jump\t// in\n    tag_459:\n        /* \"#utility.yul\":18064:18138   */\n      swap2\n      pop\n        /* \"#utility.yul\":18020:18148   */\n      pop\n        /* \"#utility.yul\":17804:18155   */\n      swap3\n      swap2\n      pop\n      pop\n      jump\t// out\n        /* \"#utility.yul\":18161:18340   */\n    tag_276:\n        /* \"#utility.yul\":18301:18332   */\n      0x496e73756666696369656e7420636f6e74726163742062616c616e6365000000\n        /* \"#utility.yul\":18297:18298   */\n      0x00\n        /* \"#utility.yul\":18289:18295   */\n      dup3\n        /* \"#utility.yul\":18285:18299   */\n      add\n        /* \"#utility.yul\":18278:18333   */\n      mstore\n        /* \"#utility.yul\":18161:18340   */\n      pop\n      jump\t// out\n        /* \"#utility.yul\":18346:18712   */\n    tag_277:\n        /* \"#utility.yul\":18488:18491   */\n      0x00\n        /* \"#utility.yul\":18509:18576   */\n      tag_462\n        /* \"#utility.yul\":18573:18575   */\n      0x1d\n        /* \"#utility.yul\":18568:18571   */\n      dup4\n        /* \"#utility.yul\":18509:18576   */\n      tag_252\n      jump\t// in\n    tag_462:\n        /* \"#utility.yul\":18502:18576   */\n      swap2\n      pop\n        /* \"#utility.yul\":18585:18678   */\n      tag_463\n        /* \"#utility.yul\":18674:18677   */\n      dup3\n        /* \"#utility.yul\":18585:18678   */\n      tag_276\n      jump\t// in\n    tag_463:\n        /* \"#utility.yul\":18703:18705   */\n      0x20\n        /* \"#utility.yul\":18698:18701   */\n      dup3\n        /* \"#utility.yul\":18694:18706   */\n      add\n        /* \"#utility.yul\":18687:18706   */\n      swap1\n      pop\n        /* \"#utility.yul\":18346:18712   */\n      swap2\n      swap1\n      pop\n      jump\t// out\n        /* \"#utility.yul\":18718:19137   */\n    tag_139:\n        /* \"#utility.yul\":18884:18888   */\n      0x00\n        /* \"#utility.yul\":18922:18924   */\n      0x20\n        /* \"#utility.yul\":18911:18920   */\n      dup3\n        /* \"#utility.yul\":18907:18925   */\n      add\n        /* \"#utility.yul\":18899:18925   */\n      swap1\n      pop\n        /* \"#utility.yul\":18971:18980   */\n      dup2\n        /* \"#utility.yul\":18965:18969   */\n      dup2\n        /* \"#utility.yul\":18961:18981   */\n      sub\n        /* \"#utility.yul\":18957:18958   */\n      0x00\n        /* \"#utility.yul\":18946:18955   */\n      dup4\n        /* \"#utility.yul\":18942:18959   */\n      add\n        /* \"#utility.yul\":18935:18982   */\n      mstore\n        /* \"#utility.yul\":18999:19130   */\n      tag_465\n        /* \"#utility.yul\":19125:19129   */\n      dup2\n        /* \"#utility.yul\":18999:19130   */\n      tag_277\n      jump\t// in\n    tag_465:\n        /* \"#utility.yul\":18991:19130   */\n      swap1\n      pop\n        /* \"#utility.yul\":18718:19137   */\n      swap2\n      swap1\n      pop\n      jump\t// out\n        /* \"#utility.yul\":19143:19475   */\n    tag_141:\n        /* \"#utility.yul\":19264:19268   */\n      0x00\n        /* \"#utility.yul\":19302:19304   */\n      0x40\n        /* \"#utility.yul\":19291:19300   */\n      dup3\n        /* \"#utility.yul\":19287:19305   */\n      add\n        /* \"#utility.yul\":19279:19305   */\n      swap1\n      pop\n        /* \"#utility.yul\":19315:19386   */\n      tag_467\n        /* \"#utility.yul\":19383:19384   */\n      0x00\n        /* \"#utility.yul\":19372:19381   */\n      dup4\n        /* \"#utility.yul\":19368:19385   */\n      add\n        /* \"#utility.yul\":19359:19365   */\n      dup6\n        /* \"#utility.yul\":19315:19386   */\n      tag_241\n      jump\t// in\n    tag_467:\n        /* \"#utility.yul\":19396:19468   */\n      tag_468\n        /* \"#utility.yul\":19464:19466   */\n      0x20\n        /* \"#utility.yul\":19453:19462   */\n      dup4\n        /* \"#utility.yul\":19449:19467   */\n      add\n        /* \"#utility.yul\":19440:19446   */\n      dup5\n        /* \"#utility.yul\":19396:19468   */\n      tag_242\n      jump\t// in\n    tag_468:\n        /* \"#utility.yul\":19143:19475   */\n      swap4\n      swap3\n      pop\n      pop\n      pop\n      jump\t// out\n        /* \"#utility.yul\":19481:19662   */\n    tag_278:\n        /* \"#utility.yul\":19621:19654   */\n      0x44697265637420726566657272616c207472616e73666572206661696c656400\n        /* \"#utility.yul\":19617:19618   */\n      0x00\n        /* \"#utility.yul\":19609:19615   */\n      dup3\n        /* \"#utility.yul\":19605:19619   */\n      add\n        /* \"#utility.yul\":19598:19655   */\n      mstore\n        /* \"#utility.yul\":19481:19662   */\n      pop\n      jump\t// out\n        /* \"#utility.yul\":19668:20034   */\n    tag_279:\n        /* \"#utility.yul\":19810:19813   */\n      0x00\n        /* \"#utility.yul\":19831:19898   */\n      tag_471\n        /* \"#utility.yul\":19895:19897   */\n      0x1f\n        /* \"#utility.yul\":19890:19893   */\n      dup4\n        /* \"#utility.yul\":19831:19898   */\n      tag_252\n      jump\t// in\n    tag_471:\n        /* \"#utility.yul\":19824:19898   */\n      swap2\n      pop\n        /* \"#utility.yul\":19907:20000   */\n      tag_472\n        /* \"#utility.yul\":19996:19999   */\n      dup3\n        /* \"#utility.yul\":19907:20000   */\n      tag_278\n      jump\t// in\n    tag_472:\n        /* \"#utility.yul\":20025:20027   */\n      0x20\n        /* \"#utility.yul\":20020:20023   */\n      dup3\n        /* \"#utility.yul\":20016:20028   */\n      add\n        /* \"#utility.yul\":20009:20028   */\n      swap1\n      pop\n        /* \"#utility.yul\":19668:20034   */\n      swap2\n      swap1\n      pop\n      jump\t// out\n        /* \"#utility.yul\":20040:20459   */\n    tag_147:\n        /* \"#utility.yul\":20206:20210   */\n      0x00\n        /* \"#utility.yul\":20244:20246   */\n      0x20\n        /* \"#utility.yul\":20233:20242   */\n      dup3\n        /* \"#utility.yul\":20229:20247   */\n      add\n        /* \"#utility.yul\":20221:20247   */\n      swap1\n      pop\n        /* \"#utility.yul\":20293:20302   */\n      dup2\n        /* \"#utility.yul\":20287:20291   */\n      dup2\n        /* \"#utility.yul\":20283:20303   */\n      sub\n        /* \"#utility.yul\":20279:20280   */\n      0x00\n        /* \"#utility.yul\":20268:20277   */\n      dup4\n        /* \"#utility.yul\":20264:20281   */\n      add\n        /* \"#utility.yul\":20257:20304   */\n      mstore\n        /* \"#utility.yul\":20321:20452   */\n      tag_474\n        /* \"#utility.yul\":20447:20451   */\n      dup2\n        /* \"#utility.yul\":20321:20452   */\n      tag_279\n      jump\t// in\n    tag_474:\n        /* \"#utility.yul\":20313:20452   */\n      swap1\n      pop\n        /* \"#utility.yul\":20040:20459   */\n      swap2\n      swap1\n      pop\n      jump\t// out\n        /* \"#utility.yul\":20465:20645   */\n    tag_280:\n        /* \"#utility.yul\":20605:20637   */\n      0x4c6576656c203120726577617264207472616e73666572206661696c65640000\n        /* \"#utility.yul\":20601:20602   */\n      0x00\n        /* \"#utility.yul\":20593:20599   */\n      dup3\n        /* \"#utility.yul\":20589:20603   */\n      add\n        /* \"#utility.yul\":20582:20638   */\n      mstore\n        /* \"#utility.yul\":20465:20645   */\n      pop\n      jump\t// out\n        /* \"#utility.yul\":20651:21017   */\n    tag_281:\n        /* \"#utility.yul\":20793:20796   */\n      0x00\n        /* \"#utility.yul\":20814:20881   */\n      tag_477\n        /* \"#utility.yul\":20878:20880   */\n      0x1e\n        /* \"#utility.yul\":20873:20876   */\n      dup4\n        /* \"#utility.yul\":20814:20881   */\n      tag_252\n      jump\t// in\n    tag_477:\n        /* \"#utility.yul\":20807:20881   */\n      swap2\n      pop\n        /* \"#utility.yul\":20890:20983   */\n      tag_478\n        /* \"#utility.yul\":20979:20982   */\n      dup3\n        /* \"#utility.yul\":20890:20983   */\n      tag_280\n      jump\t// in\n    tag_478:\n        /* \"#utility.yul\":21008:21010   */\n      0x20\n        /* \"#utility.yul\":21003:21006   */\n      dup3\n        /* \"#utility.yul\":20999:21011   */\n      add\n        /* \"#utility.yul\":20992:21011   */\n      swap1\n      pop\n        /* \"#utility.yul\":20651:21017   */\n      swap2\n      swap1\n      pop\n      jump\t// out\n        /* \"#utility.yul\":21023:21442   */\n    tag_154:\n        /* \"#utility.yul\":21189:21193   */\n      0x00\n        /* \"#utility.yul\":21227:21229   */\n      0x20\n        /* \"#utility.yul\":21216:21225   */\n      dup3\n        /* \"#utility.yul\":21212:21230   */\n      add\n        /* \"#utility.yul\":21204:21230   */\n      swap1\n      pop\n        /* \"#utility.yul\":21276:21285   */\n      dup2\n        /* \"#utility.yul\":21270:21274   */\n      dup2\n        /* \"#utility.yul\":21266:21286   */\n      sub\n        /* \"#utility.yul\":21262:21263   */\n      0x00\n        /* \"#utility.yul\":21251:21260   */\n      dup4\n        /* \"#utility.yul\":21247:21264   */\n      add\n        /* \"#utility.yul\":21240:21287   */\n      mstore\n        /* \"#utility.yul\":21304:21435   */\n      tag_480\n        /* \"#utility.yul\":21430:21434   */\n      dup2\n        /* \"#utility.yul\":21304:21435   */\n      tag_281\n      jump\t// in\n    tag_480:\n        /* \"#utility.yul\":21296:21435   */\n      swap1\n      pop\n        /* \"#utility.yul\":21023:21442   */\n      swap2\n      swap1\n      pop\n      jump\t// out\n        /* \"#utility.yul\":21448:21628   */\n    tag_164:\n        /* \"#utility.yul\":21496:21573   */\n      0x4e487b7100000000000000000000000000000000000000000000000000000000\n        /* \"#utility.yul\":21493:21494   */\n      0x00\n        /* \"#utility.yul\":21486:21574   */\n      mstore\n        /* \"#utility.yul\":21593:21597   */\n      0x32\n        /* \"#utility.yul\":21590:21591   */\n      0x04\n        /* \"#utility.yul\":21583:21598   */\n      mstore\n        /* \"#utility.yul\":21617:21621   */\n      0x24\n        /* \"#utility.yul\":21614:21615   */\n      0x00\n        /* \"#utility.yul\":21607:21622   */\n      revert\n        /* \"#utility.yul\":21634:21812   */\n    tag_282:\n        /* \"#utility.yul\":21774:21804   */\n      0x4c6576656c20726577617264207472616e73666572206661696c656400000000\n        /* \"#utility.yul\":21770:21771   */\n      0x00\n        /* \"#utility.yul\":21762:21768   */\n      dup3\n        /* \"#utility.yul\":21758:21772   */\n      add\n        /* \"#utility.yul\":21751:21805   */\n      mstore\n        /* \"#utility.yul\":21634:21812   */\n      pop\n      jump\t// out\n        /* \"#utility.yul\":21818:22184   */\n    tag_283:\n        /* \"#utility.yul\":21960:21963   */\n      0x00\n        /* \"#utility.yul\":21981:22048   */\n      tag_484\n        /* \"#utility.yul\":22045:22047   */\n      0x1c\n        /* \"#utility.yul\":22040:22043   */\n      dup4\n        /* \"#utility.yul\":21981:22048   */\n      tag_252\n      jump\t// in\n    tag_484:\n        /* \"#utility.yul\":21974:22048   */\n      swap2\n      pop\n        /* \"#utility.yul\":22057:22150   */\n      tag_485\n        /* \"#utility.yul\":22146:22149   */\n      dup3\n        /* \"#utility.yul\":22057:22150   */\n      tag_282\n      jump\t// in\n    tag_485:\n        /* \"#utility.yul\":22175:22177   */\n      0x20\n        /* \"#utility.yul\":22170:22173   */\n      dup3\n        /* \"#utility.yul\":22166:22178   */\n      add\n        /* \"#utility.yul\":22159:22178   */\n      swap1\n      pop\n        /* \"#utility.yul\":21818:22184   */\n      swap2\n      swap1\n      pop\n      jump\t// out\n        /* \"#utility.yul\":22190:22609   */\n    tag_209:\n        /* \"#utility.yul\":22356:22360   */\n      0x00\n        /* \"#utility.yul\":22394:22396   */\n      0x20\n        /* \"#utility.yul\":22383:22392   */\n      dup3\n        /* \"#utility.yul\":22379:22397   */\n      add\n        /* \"#utility.yul\":22371:22397   */\n      swap1\n      pop\n        /* \"#utility.yul\":22443:22452   */\n      dup2\n        /* \"#utility.yul\":22437:22441   */\n      dup2\n        /* \"#utility.yul\":22433:22453   */\n      sub\n        /* \"#utility.yul\":22429:22430   */\n      0x00\n        /* \"#utility.yul\":22418:22427   */\n      dup4\n        /* \"#utility.yul\":22414:22431   */\n      add\n        /* \"#utility.yul\":22407:22454   */\n      mstore\n        /* \"#utility.yul\":22471:22602   */\n      tag_487\n        /* \"#utility.yul\":22597:22601   */\n      dup2\n        /* \"#utility.yul\":22471:22602   */\n      tag_283\n      jump\t// in\n    tag_487:\n        /* \"#utility.yul\":22463:22602   */\n      swap1\n      pop\n        /* \"#utility.yul\":22190:22609   */\n      swap2\n      swap1\n      pop\n      jump\t// out\n        /* \"#utility.yul\":22615:22782   */\n    tag_213:\n        /* \"#utility.yul\":22652:22655   */\n      0x00\n        /* \"#utility.yul\":22675:22697   */\n      tag_489\n        /* \"#utility.yul\":22691:22696   */\n      dup3\n        /* \"#utility.yul\":22675:22697   */\n      tag_250\n      jump\t// in\n    tag_489:\n        /* \"#utility.yul\":22666:22697   */\n      swap2\n      pop\n        /* \"#utility.yul\":22719:22723   */\n      0xff\n        /* \"#utility.yul\":22712:22717   */\n      dup3\n        /* \"#utility.yul\":22709:22724   */\n      sub\n        /* \"#utility.yul\":22706:22747   */\n      tag_490\n      jumpi\n        /* \"#utility.yul\":22727:22745   */\n      tag_491\n      tag_273\n      jump\t// in\n    tag_491:\n        /* \"#utility.yul\":22706:22747   */\n    tag_490:\n        /* \"#utility.yul\":22774:22775   */\n      0x01\n        /* \"#utility.yul\":22767:22772   */\n      dup3\n        /* \"#utility.yul\":22763:22776   */\n      add\n        /* \"#utility.yul\":22756:22776   */\n      swap1\n      pop\n        /* \"#utility.yul\":22615:22782   */\n      swap2\n      swap1\n      pop\n      jump\t// out\n        /* \"#utility.yul\":22788:22962   */\n    tag_284:\n        /* \"#utility.yul\":22928:22954   */\n      0x4f6e6c79206f776e65722063616e2063616c6c20746869730000000000000000\n        /* \"#utility.yul\":22924:22925   */\n      0x00\n        /* \"#utility.yul\":22916:22922   */\n      dup3\n        /* \"#utility.yul\":22912:22926   */\n      add\n        /* \"#utility.yul\":22905:22955   */\n      mstore\n        /* \"#utility.yul\":22788:22962   */\n      pop\n      jump\t// out\n        /* \"#utility.yul\":22968:23334   */\n    tag_285:\n        /* \"#utility.yul\":23110:23113   */\n      0x00\n        /* \"#utility.yul\":23131:23198   */\n      tag_494\n        /* \"#utility.yul\":23195:23197   */\n      0x18\n        /* \"#utility.yul\":23190:23193   */\n      dup4\n        /* \"#utility.yul\":23131:23198   */\n      tag_252\n      jump\t// in\n    tag_494:\n        /* \"#utility.yul\":23124:23198   */\n      swap2\n      pop\n        /* \"#utility.yul\":23207:23300   */\n      tag_495\n        /* \"#utility.yul\":23296:23299   */\n      dup3\n        /* \"#utility.yul\":23207:23300   */\n      tag_284\n      jump\t// in\n    tag_495:\n        /* \"#utility.yul\":23325:23327   */\n      0x20\n        /* \"#utility.yul\":23320:23323   */\n      dup3\n        /* \"#utility.yul\":23316:23328   */\n      add\n        /* \"#utility.yul\":23309:23328   */\n      swap1\n      pop\n        /* \"#utility.yul\":22968:23334   */\n      swap2\n      swap1\n      pop\n      jump\t// out\n        /* \"#utility.yul\":23340:23759   */\n    tag_221:\n        /* \"#utility.yul\":23506:23510   */\n      0x00\n        /* \"#utility.yul\":23544:23546   */\n      0x20\n        /* \"#utility.yul\":23533:23542   */\n      dup3\n        /* \"#utility.yul\":23529:23547   */\n      add\n        /* \"#utility.yul\":23521:23547   */\n      swap1\n      pop\n        /* \"#utility.yul\":23593:23602   */\n      dup2\n        /* \"#utility.yul\":23587:23591   */\n      dup2\n        /* \"#utility.yul\":23583:23603   */\n      sub\n        /* \"#utility.yul\":23579:23580   */\n      0x00\n        /* \"#utility.yul\":23568:23577   */\n      dup4\n        /* \"#utility.yul\":23564:23581   */\n      add\n        /* \"#utility.yul\":23557:23604   */\n      mstore\n        /* \"#utility.yul\":23621:23752   */\n      tag_497\n        /* \"#utility.yul\":23747:23751   */\n      dup2\n        /* \"#utility.yul\":23621:23752   */\n      tag_285\n      jump\t// in\n    tag_497:\n        /* \"#utility.yul\":23613:23752   */\n      swap1\n      pop\n        /* \"#utility.yul\":23340:23759   */\n      swap2\n      swap1\n      pop\n      jump\t// out\n        /* \"#utility.yul\":23765:23944   */\n    tag_286:\n        /* \"#utility.yul\":23905:23936   */\n      0x4e6577206f776e657220697320746865207a65726f2061646472657373000000\n        /* \"#utility.yul\":23901:23902   */\n      0x00\n        /* \"#utility.yul\":23893:23899   */\n      dup3\n        /* \"#utility.yul\":23889:23903   */\n      add\n        /* \"#utility.yul\":23882:23937   */\n      mstore\n        /* \"#utility.yul\":23765:23944   */\n      pop\n      jump\t// out\n        /* \"#utility.yul\":23950:24316   */\n    tag_287:\n        /* \"#utility.yul\":24092:24095   */\n      0x00\n        /* \"#utility.yul\":24113:24180   */\n      tag_500\n        /* \"#utility.yul\":24177:24179   */\n      0x1d\n        /* \"#utility.yul\":24172:24175   */\n      dup4\n        /* \"#utility.yul\":24113:24180   */\n      tag_252\n      jump\t// in\n    tag_500:\n        /* \"#utility.yul\":24106:24180   */\n      swap2\n      pop\n        /* \"#utility.yul\":24189:24282   */\n      tag_501\n        /* \"#utility.yul\":24278:24281   */\n      dup3\n        /* \"#utility.yul\":24189:24282   */\n      tag_286\n      jump\t// in\n    tag_501:\n        /* \"#utility.yul\":24307:24309   */\n      0x20\n        /* \"#utility.yul\":24302:24305   */\n      dup3\n        /* \"#utility.yul\":24298:24310   */\n      add\n        /* \"#utility.yul\":24291:24310   */\n      swap1\n      pop\n        /* \"#utility.yul\":23950:24316   */\n      swap2\n      swap1\n      pop\n      jump\t// out\n        /* \"#utility.yul\":24322:24741   */\n    tag_225:\n        /* \"#utility.yul\":24488:24492   */\n      0x00\n        /* \"#utility.yul\":24526:24528   */\n      0x20\n        /* \"#utility.yul\":24515:24524   */\n      dup3\n        /* \"#utility.yul\":24511:24529   */\n      add\n        /* \"#utility.yul\":24503:24529   */\n      swap1\n      pop\n        /* \"#utility.yul\":24575:24584   */\n      dup2\n        /* \"#utility.yul\":24569:24573   */\n      dup2\n        /* \"#utility.yul\":24565:24585   */\n      sub\n        /* \"#utility.yul\":24561:24562   */\n      0x00\n        /* \"#utility.yul\":24550:24559   */\n      dup4\n        /* \"#utility.yul\":24546:24563   */\n      add\n        /* \"#utility.yul\":24539:24586   */\n      mstore\n        /* \"#utility.yul\":24603:24734   */\n      tag_503\n        /* \"#utility.yul\":24729:24733   */\n      dup2\n        /* \"#utility.yul\":24603:24734   */\n      tag_287\n      jump\t// in\n    tag_503:\n        /* \"#utility.yul\":24595:24734   */\n      swap1\n      pop\n        /* \"#utility.yul\":24322:24741   */\n      swap2\n      swap1\n      pop\n      jump\t// out\n        /* \"#utility.yul\":24747:24972   */\n    tag_288:\n        /* \"#utility.yul\":24887:24921   */\n      0x4e6577206f776e6572206973207468652073616d652061732063757272656e74\n        /* \"#utility.yul\":24883:24884   */\n      0x00\n        /* \"#utility.yul\":24875:24881   */\n      dup3\n        /* \"#utility.yul\":24871:24885   */\n      add\n        /* \"#utility.yul\":24864:24922   */\n      mstore\n        /* \"#utility.yul\":24956:24964   */\n      0x206f776e65720000000000000000000000000000000000000000000000000000\n        /* \"#utility.yul\":24951:24953   */\n      0x20\n        /* \"#utility.yul\":24943:24949   */\n      dup3\n        /* \"#utility.yul\":24939:24954   */\n      add\n        /* \"#utility.yul\":24932:24965   */\n      mstore\n        /* \"#utility.yul\":24747:24972   */\n      pop\n      jump\t// out\n        /* \"#utility.yul\":24978:25344   */\n    tag_289:\n        /* \"#utility.yul\":25120:25123   */\n      0x00\n        /* \"#utility.yul\":25141:25208   */\n      tag_506\n        /* \"#utility.yul\":25205:25207   */\n      0x26\n        /* \"#utility.yul\":25200:25203   */\n      dup4\n        /* \"#utility.yul\":25141:25208   */\n      tag_252\n      jump\t// in\n    tag_506:\n        /* \"#utility.yul\":25134:25208   */\n      swap2\n      pop\n        /* \"#utility.yul\":25217:25310   */\n      tag_507\n        /* \"#utility.yul\":25306:25309   */\n      dup3\n        /* \"#utility.yul\":25217:25310   */\n      tag_288\n      jump\t// in\n    tag_507:\n        /* \"#utility.yul\":25335:25337   */\n      0x40\n        /* \"#utility.yul\":25330:25333   */\n      dup3\n        /* \"#utility.yul\":25326:25338   */\n      add\n        /* \"#utility.yul\":25319:25338   */\n      swap1\n      pop\n        /* \"#utility.yul\":24978:25344   */\n      swap2\n      swap1\n      pop\n      jump\t// out\n        /* \"#utility.yul\":25350:25769   */\n    tag_228:\n        /* \"#utility.yul\":25516:25520   */\n      0x00\n        /* \"#utility.yul\":25554:25556   */\n      0x20\n        /* \"#utility.yul\":25543:25552   */\n      dup3\n        /* \"#utility.yul\":25539:25557   */\n      add\n        /* \"#utility.yul\":25531:25557   */\n      swap1\n      pop\n        /* \"#utility.yul\":25603:25612   */\n      dup2\n        /* \"#utility.yul\":25597:25601   */\n      dup2\n        /* \"#utility.yul\":25593:25613   */\n      sub\n        /* \"#utility.yul\":25589:25590   */\n      0x00\n        /* \"#utility.yul\":25578:25587   */\n      dup4\n        /* \"#utility.yul\":25574:25591   */\n      add\n        /* \"#utility.yul\":25567:25614   */\n      mstore\n        /* \"#utility.yul\":25631:25762   */\n      tag_509\n        /* \"#utility.yul\":25757:25761   */\n      dup2\n        /* \"#utility.yul\":25631:25762   */\n      tag_289\n      jump\t// in\n    tag_509:\n        /* \"#utility.yul\":25623:25762   */\n      swap1\n      pop\n        /* \"#utility.yul\":25350:25769   */\n      swap2\n      swap1\n      pop\n      jump\t// out\n\n    auxdata: 0xa26469706673582212204881c3fc90c0d6339308c6d7be85d00c5c1da74c3a6c1f66d043b4a560163a8464736f6c63430008190033\n}\n",
				"bytecode": {
					"linkReferences": {},
					"object": "60806040526040518060a00160405280600560ff168152602001600360ff168152602001600260ff168152602001600160ff168152602001600160ff16815250600990600561004f92919061020a565b5034801561005b575f80fd5b50604051612c7e380380612c7e833981810160405281019061007d919061031a565b335f806101000a81548173ffffffffffffffffffffffffffffffffffffffff021916908373ffffffffffffffffffffffffffffffffffffffff1602179055508060025f6101000a81548173ffffffffffffffffffffffffffffffffffffffff021916908373ffffffffffffffffffffffffffffffffffffffff160217905550600160035f805f9054906101000a900473ffffffffffffffffffffffffffffffffffffffff1673ffffffffffffffffffffffffffffffffffffffff1673ffffffffffffffffffffffffffffffffffffffff1681526020019081526020015f206004015f6101000a81548160ff021916908315150217905550600160065f601e81526020019081526020015f2081905550600260065f603c81526020019081526020015f2081905550600460065f605a81526020019081526020015f20819055506006805f607881526020019081526020015f2081905550600960065f60b481526020019081526020015f2081905550601460065f61016d81526020019081526020015f208190555050610345565b826005601f01602090048101928215610290579160200282015f5b8382111561026257835183826101000a81548160ff021916908360ff16021790555092602001926001016020815f01049283019260010302610225565b801561028e5782816101000a81549060ff02191690556001016020815f01049283019260010302610262565b505b50905061029d91906102a1565b5090565b5b808211156102b8575f815f9055506001016102a2565b5090565b5f80fd5b5f73ffffffffffffffffffffffffffffffffffffffff82169050919050565b5f6102e9826102c0565b9050919050565b6102f9816102df565b8114610303575f80fd5b50565b5f81519050610314816102f0565b92915050565b5f6020828403121561032f5761032e6102bc565b5b5f61033c84828501610306565b91505092915050565b61292c806103525f395ff3fe608060405234801561000f575f80fd5b50600436106100cd575f3560e01c8063a2bdedf41161008a578063e45a57d011610064578063e45a57d01461023a578063f2fde38b1461026a578063f6e8887314610286578063f7b17d10146102b6576100cd565b8063a2bdedf4146101b9578063a87430ba146101e9578063a98ad46c1461021c576100cd565b806305ad3935146100d15780631e43eb27146101035780634420e486146101335780637b0472f01461014f578063875bb4e21461016b5780638da5cb5b1461019b575b5f80fd5b6100eb60048036038101906100e69190611ce8565b6102d4565b6040516100fa93929190611d44565b60405180910390f35b61011d60048036038101906101189190611d79565b610333565b60405161012a9190611da4565b60405180910390f35b61014d60048036038101906101489190611dbd565b610363565b005b61016960048036038101906101649190611de8565b610795565b005b61018560048036038101906101809190611d79565b6117d1565b6040516101929190611e26565b60405180910390f35b6101a36117e6565b6040516101b09190611da4565b60405180910390f35b6101d360048036038101906101ce9190611d79565b611809565b6040516101e09190611da4565b60405180910390f35b61020360048036038101906101fe9190611dbd565b611844565b6040516102139493929190611e59565b60405180910390f35b61022461189b565b6040516102319190611ef7565b60405180910390f35b610254600480360381019061024f9190611d79565b6118c0565b6040516102619190611f2b565b60405180910390f35b610284600480360381019061027f9190611dbd565b6118e9565b005b6102a0600480360381019061029b9190611dbd565b611c3c565b6040516102ad9190611e26565b60405180910390f35b6102be611c51565b6040516102cb9190611e26565b60405180910390f35b6004602052815f5260405f2081815481106102ed575f80fd5b905f5260205f2090600302015f9150915050805f015f9054906101000a900473ffffffffffffffffffffffffffffffffffffffff16908060010154908060020154905083565b6005602052805f5260405f205f915054906101000a900473ffffffffffffffffffffffffffffffffffffffff1681565b60035f3373ffffffffffffffffffffffffffffffffffffffff1673ffffffffffffffffffffffffffffffffffffffff1681526020019081526020015f206004015f9054906101000a900460ff16156103f0576040517f08c379a00000000000000000000000000000000000000000000000000000000081526004016103e790611f9e565b60405180910390fd5b3373ffffffffffffffffffffffffffffffffffffffff168173ffffffffffffffffffffffffffffffffffffffff160361045e576040517f08c379a000000000000000000000000000000000000000000000000000000000815260040161045590612006565b60405180910390fd5b60035f8273ffffffffffffffffffffffffffffffffffffffff1673ffffffffffffffffffffffffffffffffffffffff1681526020019081526020015f206004015f9054906101000a900460ff166104ea576040517f08c379a00000000000000000000000000000000000000000000000000000000081526004016104e19061206e565b60405180910390fd5b5f60035f8373ffffffffffffffffffffffffffffffffffffffff1673ffffffffffffffffffffffffffffffffffffffff1681526020019081526020015f20600101805490501161056f576040517f08c379a0000000000000000000000000000000000000000000000000000000008152600401610566906120fc565b60405180910390fd5b8060035f3373ffffffffffffffffffffffffffffffffffffffff1673ffffffffffffffffffffffffffffffffffffffff1681526020019081526020015f205f015f6101000a81548173ffffffffffffffffffffffffffffffffffffffff021916908373ffffffffffffffffffffffffffffffffffffffff160217905550600160035f3373ffffffffffffffffffffffffffffffffffffffff1673ffffffffffffffffffffffffffffffffffffffff1681526020019081526020015f206004015f6101000a81548160ff021916908315150217905550600833908060018154018082558091505060019003905f5260205f20015f9091909190916101000a81548173ffffffffffffffffffffffffffffffffffffffff021916908373ffffffffffffffffffffffffffffffffffffffff16021790555060045f8273ffffffffffffffffffffffffffffffffffffffff1673ffffffffffffffffffffffffffffffffffffffff1681526020019081526020015f2060405180606001604052803373ffffffffffffffffffffffffffffffffffffffff1681526020015f815260200142815250908060018154018082558091505060019003905f5260205f2090600302015f909190919091505f820151815f015f6101000a81548173ffffffffffffffffffffffffffffffffffffffff021916908373ffffffffffffffffffffffffffffffffffffffff1602179055506020820151816001015560408201518160020155505050565b60035f3373ffffffffffffffffffffffffffffffffffffffff1673ffffffffffffffffffffffffffffffffffffffff1681526020019081526020015f206004015f9054906101000a900460ff16610821576040517f08c379a000000000000000000000000000000000000000000000000000000000815260040161081890612164565b60405180910390fd5b5f8111610863576040517f08c379a000000000000000000000000000000000000000000000000000000000815260040161085a906121f2565b60405180910390fd5b5f60065f8481526020019081526020015f2054116108b6576040517f08c379a00000000000000000000000000000000000000000000000000000000081526004016108ad9061225a565b60405180910390fd5b5f60035f3373ffffffffffffffffffffffffffffffffffffffff1673ffffffffffffffffffffffffffffffffffffffff1681526020019081526020015f205f015f9054906101000a900473ffffffffffffffffffffffffffffffffffffffff1690505f73ffffffffffffffffffffffffffffffffffffffff168173ffffffffffffffffffffffffffffffffffffffff16146109d1575f60035f8373ffffffffffffffffffffffffffffffffffffffff1673ffffffffffffffffffffffffffffffffffffffff1681526020019081526020015f2060010180549050116109d0576040517f08c379a00000000000000000000000000000000000000000000000000000000081526004016109c7906122e8565b60405180910390fd5b5b5f60025f9054906101000a900473ffffffffffffffffffffffffffffffffffffffff1673ffffffffffffffffffffffffffffffffffffffff166323b872dd3330866040518463ffffffff1660e01b8152600401610a3093929190612306565b6020604051808303815f875af1158015610a4c573d5f803e3d5ffd5b505050506040513d601f19601f82011682018060405250810190610a709190612365565b905080610ab2576040517f08c379a0000000000000000000000000000000000000000000000000000000008152600401610aa9906123da565b60405180910390fd5b5f60015f8154610ac190612425565b919050819055905060035f3373ffffffffffffffffffffffffffffffffffffffff1673ffffffffffffffffffffffffffffffffffffffff1681526020019081526020015f206001016040518060c0016040528060015481526020018381526020018681526020014281526020018781526020015f1515815250908060018154018082558091505060019003905f5260205f2090600602015f909190919091505f820151815f01556020820151816001015560408201518160020155606082015181600301556080820151816004015560a0820151816005015f6101000a81548160ff02191690831515021790555050503360055f8381526020019081526020015f205f6101000a81548173ffffffffffffffffffffffffffffffffffffffff021916908373ffffffffffffffffffffffffffffffffffffffff1602179055505f600160035f3373ffffffffffffffffffffffffffffffffffffffff1673ffffffffffffffffffffffffffffffffffffffff1681526020019081526020015f20600101805490501490505f60035f3373ffffffffffffffffffffffffffffffffffffffff1673ffffffffffffffffffffffffffffffffffffffff1681526020019081526020015f205f015f9054906101000a900473ffffffffffffffffffffffffffffffffffffffff1690505f5b60058160ff16108015610ced57505f73ffffffffffffffffffffffffffffffffffffffff168273ffffffffffffffffffffffffffffffffffffffff1614155b156117c7575f808260ff16036114a65783156111f5575f606460058a610d13919061246c565b610d1d91906124da565b90505f606460058b610d2f919061246c565b610d3991906124da565b90508082610d47919061250a565b60025f9054906101000a900473ffffffffffffffffffffffffffffffffffffffff1673ffffffffffffffffffffffffffffffffffffffff166370a08231306040518263ffffffff1660e01b8152600401610da19190611da4565b602060405180830381865afa158015610dbc573d5f803e3d5ffd5b505050506040513d601f19601f82011682018060405250810190610de09190612551565b1015610e21576040517f08c379a0000000000000000000000000000000000000000000000000000000008152600401610e18906125c6565b60405180910390fd5b60025f9054906101000a900473ffffffffffffffffffffffffffffffffffffffff1673ffffffffffffffffffffffffffffffffffffffff1663a9059cbb86846040518363ffffffff1660e01b8152600401610e7d9291906125e4565b6020604051808303815f875af1158015610e99573d5f803e3d5ffd5b505050506040513d601f19601f82011682018060405250810190610ebd9190612365565b610efc576040517f08c379a0000000000000000000000000000000000000000000000000000000008152600401610ef390612655565b60405180910390fd5b60025f9054906101000a900473ffffffffffffffffffffffffffffffffffffffff1673ffffffffffffffffffffffffffffffffffffffff1663a9059cbb86836040518363ffffffff1660e01b8152600401610f589291906125e4565b6020604051808303815f875af1158015610f74573d5f803e3d5ffd5b505050506040513d601f19601f82011682018060405250810190610f989190612365565b610fd7576040517f08c379a0000000000000000000000000000000000000000000000000000000008152600401610fce906126bd565b60405180910390fd5b8160075f8773ffffffffffffffffffffffffffffffffffffffff1673ffffffffffffffffffffffffffffffffffffffff1681526020019081526020015f205f828254611023919061250a565b925050819055508082611036919061250a565b60035f8773ffffffffffffffffffffffffffffffffffffffff1673ffffffffffffffffffffffffffffffffffffffff1681526020019081526020015f206002015f828254611084919061250a565b925050819055508060035f8773ffffffffffffffffffffffffffffffffffffffff1673ffffffffffffffffffffffffffffffffffffffff1681526020019081526020015f206003015f8282546110da919061250a565b925050819055505f60045f8773ffffffffffffffffffffffffffffffffffffffff1673ffffffffffffffffffffffffffffffffffffffff1681526020019081526020015f2090505f5b81805490508110156111ec573373ffffffffffffffffffffffffffffffffffffffff16828281548110611159576111586126db565b5b905f5260205f2090600302015f015f9054906101000a900473ffffffffffffffffffffffffffffffffffffffff1673ffffffffffffffffffffffffffffffffffffffff16036111df57838282815481106111b6576111b56126db565b5b905f5260205f2090600302016001015f8282546111d3919061250a565b925050819055506111ec565b8080600101915050611123565b505050506114a1565b606460098360ff166005811061120e5761120d6126db565b5b602091828204019190069054906101000a900460ff1660ff1689611232919061246c565b61123c91906124da565b90508060025f9054906101000a900473ffffffffffffffffffffffffffffffffffffffff1673ffffffffffffffffffffffffffffffffffffffff166370a08231306040518263ffffffff1660e01b81526004016112999190611da4565b602060405180830381865afa1580156112b4573d5f803e3d5ffd5b505050506040513d601f19601f820116820180604052508101906112d89190612551565b1015611319576040517f08c379a0000000000000000000000000000000000000000000000000000000008152600401611310906125c6565b60405180910390fd5b60025f9054906101000a900473ffffffffffffffffffffffffffffffffffffffff1673ffffffffffffffffffffffffffffffffffffffff1663a9059cbb84836040518363ffffffff1660e01b81526004016113759291906125e4565b6020604051808303815f875af1158015611391573d5f803e3d5ffd5b505050506040513d601f19601f820116820180604052508101906113b59190612365565b6113f4576040517f08c379a00000000000000000000000000000000000000000000000000000000081526004016113eb906126bd565b60405180910390fd5b8060035f8573ffffffffffffffffffffffffffffffffffffffff1673ffffffffffffffffffffffffffffffffffffffff1681526020019081526020015f206002015f828254611443919061250a565b925050819055508060035f8573ffffffffffffffffffffffffffffffffffffffff1673ffffffffffffffffffffffffffffffffffffffff1681526020019081526020015f206003015f828254611499919061250a565b925050819055505b611752565b606460098360ff16600581106114bf576114be6126db565b5b602091828204019190069054906101000a900460ff1660ff16896114e3919061246c565b6114ed91906124da565b90508060025f9054906101000a900473ffffffffffffffffffffffffffffffffffffffff1673ffffffffffffffffffffffffffffffffffffffff166370a08231306040518263ffffffff1660e01b815260040161154a9190611da4565b602060405180830381865afa158015611565573d5f803e3d5ffd5b505050506040513d601f19601f820116820180604052508101906115899190612551565b10156115ca576040517f08c379a00000000000000000000000000000000000000000000000000000000081526004016115c1906125c6565b60405180910390fd5b60025f9054906101000a900473ffffffffffffffffffffffffffffffffffffffff1673ffffffffffffffffffffffffffffffffffffffff1663a9059cbb84836040518363ffffffff1660e01b81526004016116269291906125e4565b6020604051808303815f875af1158015611642573d5f803e3d5ffd5b505050506040513d601f19601f820116820180604052508101906116669190612365565b6116a5576040517f08c379a000000000000000000000000000000000000000000000000000000000815260040161169c90612752565b60405180910390fd5b8060035f8573ffffffffffffffffffffffffffffffffffffffff1673ffffffffffffffffffffffffffffffffffffffff1681526020019081526020015f206002015f8282546116f4919061250a565b925050819055508060035f8573ffffffffffffffffffffffffffffffffffffffff1673ffffffffffffffffffffffffffffffffffffffff1681526020019081526020015f206003015f82825461174a919061250a565b925050819055505b60035f8473ffffffffffffffffffffffffffffffffffffffff1673ffffffffffffffffffffffffffffffffffffffff1681526020019081526020015f205f015f9054906101000a900473ffffffffffffffffffffffffffffffffffffffff1692505080806117bf90612770565b915050610cae565b5050505050505050565b6006602052805f5260405f205f915090505481565b5f8054906101000a900473ffffffffffffffffffffffffffffffffffffffff1681565b60088181548110611818575f80fd5b905f5260205f20015f915054906101000a900473ffffffffffffffffffffffffffffffffffffffff1681565b6003602052805f5260405f205f91509050805f015f9054906101000a900473ffffffffffffffffffffffffffffffffffffffff1690806002015490806003015490806004015f9054906101000a900460ff16905084565b60025f9054906101000a900473ffffffffffffffffffffffffffffffffffffffff1681565b600981600581106118cf575f80fd5b60209182820401919006915054906101000a900460ff1681565b5f8054906101000a900473ffffffffffffffffffffffffffffffffffffffff1673ffffffffffffffffffffffffffffffffffffffff163373ffffffffffffffffffffffffffffffffffffffff1614611976576040517f08c379a000000000000000000000000000000000000000000000000000000000815260040161196d906127e2565b60405180910390fd5b5f73ffffffffffffffffffffffffffffffffffffffff168173ffffffffffffffffffffffffffffffffffffffff16036119e4576040517f08c379a00000000000000000000000000000000000000000000000000000000081526004016119db9061284a565b60405180910390fd5b5f8054906101000a900473ffffffffffffffffffffffffffffffffffffffff1673ffffffffffffffffffffffffffffffffffffffff168173ffffffffffffffffffffffffffffffffffffffff1603611a71576040517f08c379a0000000000000000000000000000000000000000000000000000000008152600401611a68906128d8565b60405180910390fd5b5f805f9054906101000a900473ffffffffffffffffffffffffffffffffffffffff169050815f806101000a81548173ffffffffffffffffffffffffffffffffffffffff021916908373ffffffffffffffffffffffffffffffffffffffff16021790555060035f8373ffffffffffffffffffffffffffffffffffffffff1673ffffffffffffffffffffffffffffffffffffffff1681526020019081526020015f206004015f9054906101000a900460ff16611bde57600160035f8473ffffffffffffffffffffffffffffffffffffffff1673ffffffffffffffffffffffffffffffffffffffff1681526020019081526020015f206004015f6101000a81548160ff021916908315150217905550600882908060018154018082558091505060019003905f5260205f20015f9091909190916101000a81548173ffffffffffffffffffffffffffffffffffffffff021916908373ffffffffffffffffffffffffffffffffffffffff1602179055505b8173ffffffffffffffffffffffffffffffffffffffff168173ffffffffffffffffffffffffffffffffffffffff167f8be0079c531659141344cd1fd0a4f28419497f9722a3daafe3b4186f6b6457e060405160405180910390a35050565b6007602052805f5260405f205f915090505481565b60015481565b5f80fd5b5f73ffffffffffffffffffffffffffffffffffffffff82169050919050565b5f611c8482611c5b565b9050919050565b611c9481611c7a565b8114611c9e575f80fd5b50565b5f81359050611caf81611c8b565b92915050565b5f819050919050565b611cc781611cb5565b8114611cd1575f80fd5b50565b5f81359050611ce281611cbe565b92915050565b5f8060408385031215611cfe57611cfd611c57565b5b5f611d0b85828601611ca1565b9250506020611d1c85828601611cd4565b9150509250929050565b611d2f81611c7a565b82525050565b611d3e81611cb5565b82525050565b5f606082019050611d575f830186611d26565b611d646020830185611d35565b611d716040830184611d35565b949350505050565b5f60208284031215611d8e57611d8d611c57565b5b5f611d9b84828501611cd4565b91505092915050565b5f602082019050611db75f830184611d26565b92915050565b5f60208284031215611dd257611dd1611c57565b5b5f611ddf84828501611ca1565b91505092915050565b5f8060408385031215611dfe57611dfd611c57565b5b5f611e0b85828601611cd4565b9250506020611e1c85828601611cd4565b9150509250929050565b5f602082019050611e395f830184611d35565b92915050565b5f8115159050919050565b611e5381611e3f565b82525050565b5f608082019050611e6c5f830187611d26565b611e796020830186611d35565b611e866040830185611d35565b611e936060830184611e4a565b95945050505050565b5f819050919050565b5f611ebf611eba611eb584611c5b565b611e9c565b611c5b565b9050919050565b5f611ed082611ea5565b9050919050565b5f611ee182611ec6565b9050919050565b611ef181611ed7565b82525050565b5f602082019050611f0a5f830184611ee8565b92915050565b5f60ff82169050919050565b611f2581611f10565b82525050565b5f602082019050611f3e5f830184611f1c565b92915050565b5f82825260208201905092915050565b7f416c7265616479207265676973746572656400000000000000000000000000005f82015250565b5f611f88601283611f44565b9150611f9382611f54565b602082019050919050565b5f6020820190508181035f830152611fb581611f7c565b9050919050565b7f43616e6e6f7420726566657220796f757273656c6600000000000000000000005f82015250565b5f611ff0601583611f44565b9150611ffb82611fbc565b602082019050919050565b5f6020820190508181035f83015261201d81611fe4565b9050919050565b7f5265666572726572206e6f7420726567697374657265640000000000000000005f82015250565b5f612058601783611f44565b915061206382612024565b602082019050919050565b5f6020820190508181035f8301526120858161204c565b9050919050565b7f5265666572726572206d757374207374616b65206265666f726520796f7520635f8201527f616e207265676973746572000000000000000000000000000000000000000000602082015250565b5f6120e6602b83611f44565b91506120f18261208c565b604082019050919050565b5f6020820190508181035f830152612113816120da565b9050919050565b7f4e6f7420726567697374657265640000000000000000000000000000000000005f82015250565b5f61214e600e83611f44565b91506121598261211a565b602082019050919050565b5f6020820190508181035f83015261217b81612142565b9050919050565b7f5374616b6520616d6f756e74206d7573742062652067726561746572207468615f8201527f6e20300000000000000000000000000000000000000000000000000000000000602082015250565b5f6121dc602383611f44565b91506121e782612182565b604082019050919050565b5f6020820190508181035f830152612209816121d0565b9050919050565b7f496e76616c6964207374616b696e67206475726174696f6e00000000000000005f82015250565b5f612244601883611f44565b915061224f82612210565b602082019050919050565b5f6020820190508181035f83015261227181612238565b9050919050565b7f5265666572726572206d757374207374616b65206265666f726520796f7520635f8201527f616e207374616b65000000000000000000000000000000000000000000000000602082015250565b5f6122d2602883611f44565b91506122dd82612278565b604082019050919050565b5f6020820190508181035f8301526122ff816122c6565b9050919050565b5f6060820190506123195f830186611d26565b6123266020830185611d26565b6123336040830184611d35565b949350505050565b61234481611e3f565b811461234e575f80fd5b50565b5f8151905061235f8161233b565b92915050565b5f6020828403121561237a57612379611c57565b5b5f61238784828501612351565b91505092915050565b7f55534454207472616e73666572206661696c65640000000000000000000000005f82015250565b5f6123c4601483611f44565b91506123cf82612390565b602082019050919050565b5f6020820190508181035f8301526123f1816123b8565b9050919050565b7f4e487b71000000000000000000000000000000000000000000000000000000005f52601160045260245ffd5b5f61242f82611cb5565b91507fffffffffffffffffffffffffffffffffffffffffffffffffffffffffffffffff8203612461576124606123f8565b5b600182019050919050565b5f61247682611cb5565b915061248183611cb5565b925082820261248f81611cb5565b915082820484148315176124a6576124a56123f8565b5b5092915050565b7f4e487b71000000000000000000000000000000000000000000000000000000005f52601260045260245ffd5b5f6124e482611cb5565b91506124ef83611cb5565b9250826124ff576124fe6124ad565b5b828204905092915050565b5f61251482611cb5565b915061251f83611cb5565b9250828201905080821115612537576125366123f8565b5b92915050565b5f8151905061254b81611cbe565b92915050565b5f6020828403121561256657612565611c57565b5b5f6125738482850161253d565b91505092915050565b7f496e73756666696369656e7420636f6e74726163742062616c616e63650000005f82015250565b5f6125b0601d83611f44565b91506125bb8261257c565b602082019050919050565b5f6020820190508181035f8301526125dd816125a4565b9050919050565b5f6040820190506125f75f830185611d26565b6126046020830184611d35565b9392505050565b7f44697265637420726566657272616c207472616e73666572206661696c6564005f82015250565b5f61263f601f83611f44565b915061264a8261260b565b602082019050919050565b5f6020820190508181035f83015261266c81612633565b9050919050565b7f4c6576656c203120726577617264207472616e73666572206661696c656400005f82015250565b5f6126a7601e83611f44565b91506126b282612673565b602082019050919050565b5f6020820190508181035f8301526126d48161269b565b9050919050565b7f4e487b71000000000000000000000000000000000000000000000000000000005f52603260045260245ffd5b7f4c6576656c20726577617264207472616e73666572206661696c6564000000005f82015250565b5f61273c601c83611f44565b915061274782612708565b602082019050919050565b5f6020820190508181035f83015261276981612730565b9050919050565b5f61277a82611f10565b915060ff820361278d5761278c6123f8565b5b600182019050919050565b7f4f6e6c79206f776e65722063616e2063616c6c207468697300000000000000005f82015250565b5f6127cc601883611f44565b91506127d782612798565b602082019050919050565b5f6020820190508181035f8301526127f9816127c0565b9050919050565b7f4e6577206f776e657220697320746865207a65726f20616464726573730000005f82015250565b5f612834601d83611f44565b915061283f82612800565b602082019050919050565b5f6020820190508181035f83015261286181612828565b9050919050565b7f4e6577206f776e6572206973207468652073616d652061732063757272656e745f8201527f206f776e65720000000000000000000000000000000000000000000000000000602082015250565b5f6128c2602683611f44565b91506128cd82612868565b604082019050919050565b5f6020820190508181035f8301526128ef816128b6565b905091905056fea26469706673582212204881c3fc90c0d6339308c6d7be85d00c5c1da74c3a6c1f66d043b4a560163a8464736f6c63430008190033",
					"opcodes": "PUSH1 0x80 PUSH1 0x40 MSTORE PUSH1 0x40 MLOAD DUP1 PUSH1 0xA0 ADD PUSH1 0x40 MSTORE DUP1 PUSH1 0x5 PUSH1 0xFF AND DUP2 MSTORE PUSH1 0x20 ADD PUSH1 0x3 PUSH1 0xFF AND DUP2 MSTORE PUSH1 0x20 ADD PUSH1 0x2 PUSH1 0xFF AND DUP2 MSTORE PUSH1 0x20 ADD PUSH1 0x1 PUSH1 0xFF AND DUP2 MSTORE PUSH1 0x20 ADD PUSH1 0x1 PUSH1 0xFF AND DUP2 MSTORE POP PUSH1 0x9 SWAP1 PUSH1 0x5 PUSH2 0x4F SWAP3 SWAP2 SWAP1 PUSH2 0x20A JUMP JUMPDEST POP CALLVALUE DUP1 ISZERO PUSH2 0x5B JUMPI PUSH0 DUP1 REVERT JUMPDEST POP PUSH1 0x40 MLOAD PUSH2 0x2C7E CODESIZE SUB DUP1 PUSH2 0x2C7E DUP4 CODECOPY DUP2 DUP2 ADD PUSH1 0x40 MSTORE DUP2 ADD SWAP1 PUSH2 0x7D SWAP2 SWAP1 PUSH2 0x31A JUMP JUMPDEST CALLER PUSH0 DUP1 PUSH2 0x100 EXP DUP2 SLOAD DUP2 PUSH20 0xFFFFFFFFFFFFFFFFFFFFFFFFFFFFFFFFFFFFFFFF MUL NOT AND SWAP1 DUP4 PUSH20 0xFFFFFFFFFFFFFFFFFFFFFFFFFFFFFFFFFFFFFFFF AND MUL OR SWAP1 SSTORE POP DUP1 PUSH1 0x2 PUSH0 PUSH2 0x100 EXP DUP2 SLOAD DUP2 PUSH20 0xFFFFFFFFFFFFFFFFFFFFFFFFFFFFFFFFFFFFFFFF MUL NOT AND SWAP1 DUP4 PUSH20 0xFFFFFFFFFFFFFFFFFFFFFFFFFFFFFFFFFFFFFFFF AND MUL OR SWAP1 SSTORE POP PUSH1 0x1 PUSH1 0x3 PUSH0 DUP1 PUSH0 SWAP1 SLOAD SWAP1 PUSH2 0x100 EXP SWAP1 DIV PUSH20 0xFFFFFFFFFFFFFFFFFFFFFFFFFFFFFFFFFFFFFFFF AND PUSH20 0xFFFFFFFFFFFFFFFFFFFFFFFFFFFFFFFFFFFFFFFF AND PUSH20 0xFFFFFFFFFFFFFFFFFFFFFFFFFFFFFFFFFFFFFFFF AND DUP2 MSTORE PUSH1 0x20 ADD SWAP1 DUP2 MSTORE PUSH1 0x20 ADD PUSH0 KECCAK256 PUSH1 0x4 ADD PUSH0 PUSH2 0x100 EXP DUP2 SLOAD DUP2 PUSH1 0xFF MUL NOT AND SWAP1 DUP4 ISZERO ISZERO MUL OR SWAP1 SSTORE POP PUSH1 0x1 PUSH1 0x6 PUSH0 PUSH1 0x1E DUP2 MSTORE PUSH1 0x20 ADD SWAP1 DUP2 MSTORE PUSH1 0x20 ADD PUSH0 KECCAK256 DUP2 SWAP1 SSTORE POP PUSH1 0x2 PUSH1 0x6 PUSH0 PUSH1 0x3C DUP2 MSTORE PUSH1 0x20 ADD SWAP1 DUP2 MSTORE PUSH1 0x20 ADD PUSH0 KECCAK256 DUP2 SWAP1 SSTORE POP PUSH1 0x4 PUSH1 0x6 PUSH0 PUSH1 0x5A DUP2 MSTORE PUSH1 0x20 ADD SWAP1 DUP2 MSTORE PUSH1 0x20 ADD PUSH0 KECCAK256 DUP2 SWAP1 SSTORE POP PUSH1 0x6 DUP1 PUSH0 PUSH1 0x78 DUP2 MSTORE PUSH1 0x20 ADD SWAP1 DUP2 MSTORE PUSH1 0x20 ADD PUSH0 KECCAK256 DUP2 SWAP1 SSTORE POP PUSH1 0x9 PUSH1 0x6 PUSH0 PUSH1 0xB4 DUP2 MSTORE PUSH1 0x20 ADD SWAP1 DUP2 MSTORE PUSH1 0x20 ADD PUSH0 KECCAK256 DUP2 SWAP1 SSTORE POP PUSH1 0x14 PUSH1 0x6 PUSH0 PUSH2 0x16D DUP2 MSTORE PUSH1 0x20 ADD SWAP1 DUP2 MSTORE PUSH1 0x20 ADD PUSH0 KECCAK256 DUP2 SWAP1 SSTORE POP POP PUSH2 0x345 JUMP JUMPDEST DUP3 PUSH1 0x5 PUSH1 0x1F ADD PUSH1 0x20 SWAP1 DIV DUP2 ADD SWAP3 DUP3 ISZERO PUSH2 0x290 JUMPI SWAP2 PUSH1 0x20 MUL DUP3 ADD PUSH0 JUMPDEST DUP4 DUP3 GT ISZERO PUSH2 0x262 JUMPI DUP4 MLOAD DUP4 DUP3 PUSH2 0x100 EXP DUP2 SLOAD DUP2 PUSH1 0xFF MUL NOT AND SWAP1 DUP4 PUSH1 0xFF AND MUL OR SWAP1 SSTORE POP SWAP3 PUSH1 0x20 ADD SWAP3 PUSH1 0x1 ADD PUSH1 0x20 DUP2 PUSH0 ADD DIV SWAP3 DUP4 ADD SWAP3 PUSH1 0x1 SUB MUL PUSH2 0x225 JUMP JUMPDEST DUP1 ISZERO PUSH2 0x28E JUMPI DUP3 DUP2 PUSH2 0x100 EXP DUP2 SLOAD SWAP1 PUSH1 0xFF MUL NOT AND SWAP1 SSTORE PUSH1 0x1 ADD PUSH1 0x20 DUP2 PUSH0 ADD DIV SWAP3 DUP4 ADD SWAP3 PUSH1 0x1 SUB MUL PUSH2 0x262 JUMP JUMPDEST POP JUMPDEST POP SWAP1 POP PUSH2 0x29D SWAP2 SWAP1 PUSH2 0x2A1 JUMP JUMPDEST POP SWAP1 JUMP JUMPDEST JUMPDEST DUP1 DUP3 GT ISZERO PUSH2 0x2B8 JUMPI PUSH0 DUP2 PUSH0 SWAP1 SSTORE POP PUSH1 0x1 ADD PUSH2 0x2A2 JUMP JUMPDEST POP SWAP1 JUMP JUMPDEST PUSH0 DUP1 REVERT JUMPDEST PUSH0 PUSH20 0xFFFFFFFFFFFFFFFFFFFFFFFFFFFFFFFFFFFFFFFF DUP3 AND SWAP1 POP SWAP2 SWAP1 POP JUMP JUMPDEST PUSH0 PUSH2 0x2E9 DUP3 PUSH2 0x2C0 JUMP JUMPDEST SWAP1 POP SWAP2 SWAP1 POP JUMP JUMPDEST PUSH2 0x2F9 DUP2 PUSH2 0x2DF JUMP JUMPDEST DUP2 EQ PUSH2 0x303 JUMPI PUSH0 DUP1 REVERT JUMPDEST POP JUMP JUMPDEST PUSH0 DUP2 MLOAD SWAP1 POP PUSH2 0x314 DUP2 PUSH2 0x2F0 JUMP JUMPDEST SWAP3 SWAP2 POP POP JUMP JUMPDEST PUSH0 PUSH1 0x20 DUP3 DUP5 SUB SLT ISZERO PUSH2 0x32F JUMPI PUSH2 0x32E PUSH2 0x2BC JUMP JUMPDEST JUMPDEST PUSH0 PUSH2 0x33C DUP5 DUP3 DUP6 ADD PUSH2 0x306 JUMP JUMPDEST SWAP2 POP POP SWAP3 SWAP2 POP POP JUMP JUMPDEST PUSH2 0x292C DUP1 PUSH2 0x352 PUSH0 CODECOPY PUSH0 RETURN INVALID PUSH1 0x80 PUSH1 0x40 MSTORE CALLVALUE DUP1 ISZERO PUSH2 0xF JUMPI PUSH0 DUP1 REVERT JUMPDEST POP PUSH1 0x4 CALLDATASIZE LT PUSH2 0xCD JUMPI PUSH0 CALLDATALOAD PUSH1 0xE0 SHR DUP1 PUSH4 0xA2BDEDF4 GT PUSH2 0x8A JUMPI DUP1 PUSH4 0xE45A57D0 GT PUSH2 0x64 JUMPI DUP1 PUSH4 0xE45A57D0 EQ PUSH2 0x23A JUMPI DUP1 PUSH4 0xF2FDE38B EQ PUSH2 0x26A JUMPI DUP1 PUSH4 0xF6E88873 EQ PUSH2 0x286 JUMPI DUP1 PUSH4 0xF7B17D10 EQ PUSH2 0x2B6 JUMPI PUSH2 0xCD JUMP JUMPDEST DUP1 PUSH4 0xA2BDEDF4 EQ PUSH2 0x1B9 JUMPI DUP1 PUSH4 0xA87430BA EQ PUSH2 0x1E9 JUMPI DUP1 PUSH4 0xA98AD46C EQ PUSH2 0x21C JUMPI PUSH2 0xCD JUMP JUMPDEST DUP1 PUSH4 0x5AD3935 EQ PUSH2 0xD1 JUMPI DUP1 PUSH4 0x1E43EB27 EQ PUSH2 0x103 JUMPI DUP1 PUSH4 0x4420E486 EQ PUSH2 0x133 JUMPI DUP1 PUSH4 0x7B0472F0 EQ PUSH2 0x14F JUMPI DUP1 PUSH4 0x875BB4E2 EQ PUSH2 0x16B JUMPI DUP1 PUSH4 0x8DA5CB5B EQ PUSH2 0x19B JUMPI JUMPDEST PUSH0 DUP1 REVERT JUMPDEST PUSH2 0xEB PUSH1 0x4 DUP1 CALLDATASIZE SUB DUP2 ADD SWAP1 PUSH2 0xE6 SWAP2 SWAP1 PUSH2 0x1CE8 JUMP JUMPDEST PUSH2 0x2D4 JUMP JUMPDEST PUSH1 0x40 MLOAD PUSH2 0xFA SWAP4 SWAP3 SWAP2 SWAP1 PUSH2 0x1D44 JUMP JUMPDEST PUSH1 0x40 MLOAD DUP1 SWAP2 SUB SWAP1 RETURN JUMPDEST PUSH2 0x11D PUSH1 0x4 DUP1 CALLDATASIZE SUB DUP2 ADD SWAP1 PUSH2 0x118 SWAP2 SWAP1 PUSH2 0x1D79 JUMP JUMPDEST PUSH2 0x333 JUMP JUMPDEST PUSH1 0x40 MLOAD PUSH2 0x12A SWAP2 SWAP1 PUSH2 0x1DA4 JUMP JUMPDEST PUSH1 0x40 MLOAD DUP1 SWAP2 SUB SWAP1 RETURN JUMPDEST PUSH2 0x14D PUSH1 0x4 DUP1 CALLDATASIZE SUB DUP2 ADD SWAP1 PUSH2 0x148 SWAP2 SWAP1 PUSH2 0x1DBD JUMP JUMPDEST PUSH2 0x363 JUMP JUMPDEST STOP JUMPDEST PUSH2 0x169 PUSH1 0x4 DUP1 CALLDATASIZE SUB DUP2 ADD SWAP1 PUSH2 0x164 SWAP2 SWAP1 PUSH2 0x1DE8 JUMP JUMPDEST PUSH2 0x795 JUMP JUMPDEST STOP JUMPDEST PUSH2 0x185 PUSH1 0x4 DUP1 CALLDATASIZE SUB DUP2 ADD SWAP1 PUSH2 0x180 SWAP2 SWAP1 PUSH2 0x1D79 JUMP JUMPDEST PUSH2 0x17D1 JUMP JUMPDEST PUSH1 0x40 MLOAD PUSH2 0x192 SWAP2 SWAP1 PUSH2 0x1E26 JUMP JUMPDEST PUSH1 0x40 MLOAD DUP1 SWAP2 SUB SWAP1 RETURN JUMPDEST PUSH2 0x1A3 PUSH2 0x17E6 JUMP JUMPDEST PUSH1 0x40 MLOAD PUSH2 0x1B0 SWAP2 SWAP1 PUSH2 0x1DA4 JUMP JUMPDEST PUSH1 0x40 MLOAD DUP1 SWAP2 SUB SWAP1 RETURN JUMPDEST PUSH2 0x1D3 PUSH1 0x4 DUP1 CALLDATASIZE SUB DUP2 ADD SWAP1 PUSH2 0x1CE SWAP2 SWAP1 PUSH2 0x1D79 JUMP JUMPDEST PUSH2 0x1809 JUMP JUMPDEST PUSH1 0x40 MLOAD PUSH2 0x1E0 SWAP2 SWAP1 PUSH2 0x1DA4 JUMP JUMPDEST PUSH1 0x40 MLOAD DUP1 SWAP2 SUB SWAP1 RETURN JUMPDEST PUSH2 0x203 PUSH1 0x4 DUP1 CALLDATASIZE SUB DUP2 ADD SWAP1 PUSH2 0x1FE SWAP2 SWAP1 PUSH2 0x1DBD JUMP JUMPDEST PUSH2 0x1844 JUMP JUMPDEST PUSH1 0x40 MLOAD PUSH2 0x213 SWAP5 SWAP4 SWAP3 SWAP2 SWAP1 PUSH2 0x1E59 JUMP JUMPDEST PUSH1 0x40 MLOAD DUP1 SWAP2 SUB SWAP1 RETURN JUMPDEST PUSH2 0x224 PUSH2 0x189B JUMP JUMPDEST PUSH1 0x40 MLOAD PUSH2 0x231 SWAP2 SWAP1 PUSH2 0x1EF7 JUMP JUMPDEST PUSH1 0x40 MLOAD DUP1 SWAP2 SUB SWAP1 RETURN JUMPDEST PUSH2 0x254 PUSH1 0x4 DUP1 CALLDATASIZE SUB DUP2 ADD SWAP1 PUSH2 0x24F SWAP2 SWAP1 PUSH2 0x1D79 JUMP JUMPDEST PUSH2 0x18C0 JUMP JUMPDEST PUSH1 0x40 MLOAD PUSH2 0x261 SWAP2 SWAP1 PUSH2 0x1F2B JUMP JUMPDEST PUSH1 0x40 MLOAD DUP1 SWAP2 SUB SWAP1 RETURN JUMPDEST PUSH2 0x284 PUSH1 0x4 DUP1 CALLDATASIZE SUB DUP2 ADD SWAP1 PUSH2 0x27F SWAP2 SWAP1 PUSH2 0x1DBD JUMP JUMPDEST PUSH2 0x18E9 JUMP JUMPDEST STOP JUMPDEST PUSH2 0x2A0 PUSH1 0x4 DUP1 CALLDATASIZE SUB DUP2 ADD SWAP1 PUSH2 0x29B SWAP2 SWAP1 PUSH2 0x1DBD JUMP JUMPDEST PUSH2 0x1C3C JUMP JUMPDEST PUSH1 0x40 MLOAD PUSH2 0x2AD SWAP2 SWAP1 PUSH2 0x1E26 JUMP JUMPDEST PUSH1 0x40 MLOAD DUP1 SWAP2 SUB SWAP1 RETURN JUMPDEST PUSH2 0x2BE PUSH2 0x1C51 JUMP JUMPDEST PUSH1 0x40 MLOAD PUSH2 0x2CB SWAP2 SWAP1 PUSH2 0x1E26 JUMP JUMPDEST PUSH1 0x40 MLOAD DUP1 SWAP2 SUB SWAP1 RETURN JUMPDEST PUSH1 0x4 PUSH1 0x20 MSTORE DUP2 PUSH0 MSTORE PUSH1 0x40 PUSH0 KECCAK256 DUP2 DUP2 SLOAD DUP2 LT PUSH2 0x2ED JUMPI PUSH0 DUP1 REVERT JUMPDEST SWAP1 PUSH0 MSTORE PUSH1 0x20 PUSH0 KECCAK256 SWAP1 PUSH1 0x3 MUL ADD PUSH0 SWAP2 POP SWAP2 POP POP DUP1 PUSH0 ADD PUSH0 SWAP1 SLOAD SWAP1 PUSH2 0x100 EXP SWAP1 DIV PUSH20 0xFFFFFFFFFFFFFFFFFFFFFFFFFFFFFFFFFFFFFFFF AND SWAP1 DUP1 PUSH1 0x1 ADD SLOAD SWAP1 DUP1 PUSH1 0x2 ADD SLOAD SWAP1 POP DUP4 JUMP JUMPDEST PUSH1 0x5 PUSH1 0x20 MSTORE DUP1 PUSH0 MSTORE PUSH1 0x40 PUSH0 KECCAK256 PUSH0 SWAP2 POP SLOAD SWAP1 PUSH2 0x100 EXP SWAP1 DIV PUSH20 0xFFFFFFFFFFFFFFFFFFFFFFFFFFFFFFFFFFFFFFFF AND DUP2 JUMP JUMPDEST PUSH1 0x3 PUSH0 CALLER PUSH20 0xFFFFFFFFFFFFFFFFFFFFFFFFFFFFFFFFFFFFFFFF AND PUSH20 0xFFFFFFFFFFFFFFFFFFFFFFFFFFFFFFFFFFFFFFFF AND DUP2 MSTORE PUSH1 0x20 ADD SWAP1 DUP2 MSTORE PUSH1 0x20 ADD PUSH0 KECCAK256 PUSH1 0x4 ADD PUSH0 SWAP1 SLOAD SWAP1 PUSH2 0x100 EXP SWAP1 DIV PUSH1 0xFF AND ISZERO PUSH2 0x3F0 JUMPI PUSH1 0x40 MLOAD PUSH32 0x8C379A000000000000000000000000000000000000000000000000000000000 DUP2 MSTORE PUSH1 0x4 ADD PUSH2 0x3E7 SWAP1 PUSH2 0x1F9E JUMP JUMPDEST PUSH1 0x40 MLOAD DUP1 SWAP2 SUB SWAP1 REVERT JUMPDEST CALLER PUSH20 0xFFFFFFFFFFFFFFFFFFFFFFFFFFFFFFFFFFFFFFFF AND DUP2 PUSH20 0xFFFFFFFFFFFFFFFFFFFFFFFFFFFFFFFFFFFFFFFF AND SUB PUSH2 0x45E JUMPI PUSH1 0x40 MLOAD PUSH32 0x8C379A000000000000000000000000000000000000000000000000000000000 DUP2 MSTORE PUSH1 0x4 ADD PUSH2 0x455 SWAP1 PUSH2 0x2006 JUMP JUMPDEST PUSH1 0x40 MLOAD DUP1 SWAP2 SUB SWAP1 REVERT JUMPDEST PUSH1 0x3 PUSH0 DUP3 PUSH20 0xFFFFFFFFFFFFFFFFFFFFFFFFFFFFFFFFFFFFFFFF AND PUSH20 0xFFFFFFFFFFFFFFFFFFFFFFFFFFFFFFFFFFFFFFFF AND DUP2 MSTORE PUSH1 0x20 ADD SWAP1 DUP2 MSTORE PUSH1 0x20 ADD PUSH0 KECCAK256 PUSH1 0x4 ADD PUSH0 SWAP1 SLOAD SWAP1 PUSH2 0x100 EXP SWAP1 DIV PUSH1 0xFF AND PUSH2 0x4EA JUMPI PUSH1 0x40 MLOAD PUSH32 0x8C379A000000000000000000000000000000000000000000000000000000000 DUP2 MSTORE PUSH1 0x4 ADD PUSH2 0x4E1 SWAP1 PUSH2 0x206E JUMP JUMPDEST PUSH1 0x40 MLOAD DUP1 SWAP2 SUB SWAP1 REVERT JUMPDEST PUSH0 PUSH1 0x3 PUSH0 DUP4 PUSH20 0xFFFFFFFFFFFFFFFFFFFFFFFFFFFFFFFFFFFFFFFF AND PUSH20 0xFFFFFFFFFFFFFFFFFFFFFFFFFFFFFFFFFFFFFFFF AND DUP2 MSTORE PUSH1 0x20 ADD SWAP1 DUP2 MSTORE PUSH1 0x20 ADD PUSH0 KECCAK256 PUSH1 0x1 ADD DUP1 SLOAD SWAP1 POP GT PUSH2 0x56F JUMPI PUSH1 0x40 MLOAD PUSH32 0x8C379A000000000000000000000000000000000000000000000000000000000 DUP2 MSTORE PUSH1 0x4 ADD PUSH2 0x566 SWAP1 PUSH2 0x20FC JUMP JUMPDEST PUSH1 0x40 MLOAD DUP1 SWAP2 SUB SWAP1 REVERT JUMPDEST DUP1 PUSH1 0x3 PUSH0 CALLER PUSH20 0xFFFFFFFFFFFFFFFFFFFFFFFFFFFFFFFFFFFFFFFF AND PUSH20 0xFFFFFFFFFFFFFFFFFFFFFFFFFFFFFFFFFFFFFFFF AND DUP2 MSTORE PUSH1 0x20 ADD SWAP1 DUP2 MSTORE PUSH1 0x20 ADD PUSH0 KECCAK256 PUSH0 ADD PUSH0 PUSH2 0x100 EXP DUP2 SLOAD DUP2 PUSH20 0xFFFFFFFFFFFFFFFFFFFFFFFFFFFFFFFFFFFFFFFF MUL NOT AND SWAP1 DUP4 PUSH20 0xFFFFFFFFFFFFFFFFFFFFFFFFFFFFFFFFFFFFFFFF AND MUL OR SWAP1 SSTORE POP PUSH1 0x1 PUSH1 0x3 PUSH0 CALLER PUSH20 0xFFFFFFFFFFFFFFFFFFFFFFFFFFFFFFFFFFFFFFFF AND PUSH20 0xFFFFFFFFFFFFFFFFFFFFFFFFFFFFFFFFFFFFFFFF AND DUP2 MSTORE PUSH1 0x20 ADD SWAP1 DUP2 MSTORE PUSH1 0x20 ADD PUSH0 KECCAK256 PUSH1 0x4 ADD PUSH0 PUSH2 0x100 EXP DUP2 SLOAD DUP2 PUSH1 0xFF MUL NOT AND SWAP1 DUP4 ISZERO ISZERO MUL OR SWAP1 SSTORE POP PUSH1 0x8 CALLER SWAP1 DUP1 PUSH1 0x1 DUP2 SLOAD ADD DUP1 DUP3 SSTORE DUP1 SWAP2 POP POP PUSH1 0x1 SWAP1 SUB SWAP1 PUSH0 MSTORE PUSH1 0x20 PUSH0 KECCAK256 ADD PUSH0 SWAP1 SWAP2 SWAP1 SWAP2 SWAP1 SWAP2 PUSH2 0x100 EXP DUP2 SLOAD DUP2 PUSH20 0xFFFFFFFFFFFFFFFFFFFFFFFFFFFFFFFFFFFFFFFF MUL NOT AND SWAP1 DUP4 PUSH20 0xFFFFFFFFFFFFFFFFFFFFFFFFFFFFFFFFFFFFFFFF AND MUL OR SWAP1 SSTORE POP PUSH1 0x4 PUSH0 DUP3 PUSH20 0xFFFFFFFFFFFFFFFFFFFFFFFFFFFFFFFFFFFFFFFF AND PUSH20 0xFFFFFFFFFFFFFFFFFFFFFFFFFFFFFFFFFFFFFFFF AND DUP2 MSTORE PUSH1 0x20 ADD SWAP1 DUP2 MSTORE PUSH1 0x20 ADD PUSH0 KECCAK256 PUSH1 0x40 MLOAD DUP1 PUSH1 0x60 ADD PUSH1 0x40 MSTORE DUP1 CALLER PUSH20 0xFFFFFFFFFFFFFFFFFFFFFFFFFFFFFFFFFFFFFFFF AND DUP2 MSTORE PUSH1 0x20 ADD PUSH0 DUP2 MSTORE PUSH1 0x20 ADD TIMESTAMP DUP2 MSTORE POP SWAP1 DUP1 PUSH1 0x1 DUP2 SLOAD ADD DUP1 DUP3 SSTORE DUP1 SWAP2 POP POP PUSH1 0x1 SWAP1 SUB SWAP1 PUSH0 MSTORE PUSH1 0x20 PUSH0 KECCAK256 SWAP1 PUSH1 0x3 MUL ADD PUSH0 SWAP1 SWAP2 SWAP1 SWAP2 SWAP1 SWAP2 POP PUSH0 DUP3 ADD MLOAD DUP2 PUSH0 ADD PUSH0 PUSH2 0x100 EXP DUP2 SLOAD DUP2 PUSH20 0xFFFFFFFFFFFFFFFFFFFFFFFFFFFFFFFFFFFFFFFF MUL NOT AND SWAP1 DUP4 PUSH20 0xFFFFFFFFFFFFFFFFFFFFFFFFFFFFFFFFFFFFFFFF AND MUL OR SWAP1 SSTORE POP PUSH1 0x20 DUP3 ADD MLOAD DUP2 PUSH1 0x1 ADD SSTORE PUSH1 0x40 DUP3 ADD MLOAD DUP2 PUSH1 0x2 ADD SSTORE POP POP POP JUMP JUMPDEST PUSH1 0x3 PUSH0 CALLER PUSH20 0xFFFFFFFFFFFFFFFFFFFFFFFFFFFFFFFFFFFFFFFF AND PUSH20 0xFFFFFFFFFFFFFFFFFFFFFFFFFFFFFFFFFFFFFFFF AND DUP2 MSTORE PUSH1 0x20 ADD SWAP1 DUP2 MSTORE PUSH1 0x20 ADD PUSH0 KECCAK256 PUSH1 0x4 ADD PUSH0 SWAP1 SLOAD SWAP1 PUSH2 0x100 EXP SWAP1 DIV PUSH1 0xFF AND PUSH2 0x821 JUMPI PUSH1 0x40 MLOAD PUSH32 0x8C379A000000000000000000000000000000000000000000000000000000000 DUP2 MSTORE PUSH1 0x4 ADD PUSH2 0x818 SWAP1 PUSH2 0x2164 JUMP JUMPDEST PUSH1 0x40 MLOAD DUP1 SWAP2 SUB SWAP1 REVERT JUMPDEST PUSH0 DUP2 GT PUSH2 0x863 JUMPI PUSH1 0x40 MLOAD PUSH32 0x8C379A000000000000000000000000000000000000000000000000000000000 DUP2 MSTORE PUSH1 0x4 ADD PUSH2 0x85A SWAP1 PUSH2 0x21F2 JUMP JUMPDEST PUSH1 0x40 MLOAD DUP1 SWAP2 SUB SWAP1 REVERT JUMPDEST PUSH0 PUSH1 0x6 PUSH0 DUP5 DUP2 MSTORE PUSH1 0x20 ADD SWAP1 DUP2 MSTORE PUSH1 0x20 ADD PUSH0 KECCAK256 SLOAD GT PUSH2 0x8B6 JUMPI PUSH1 0x40 MLOAD PUSH32 0x8C379A000000000000000000000000000000000000000000000000000000000 DUP2 MSTORE PUSH1 0x4 ADD PUSH2 0x8AD SWAP1 PUSH2 0x225A JUMP JUMPDEST PUSH1 0x40 MLOAD DUP1 SWAP2 SUB SWAP1 REVERT JUMPDEST PUSH0 PUSH1 0x3 PUSH0 CALLER PUSH20 0xFFFFFFFFFFFFFFFFFFFFFFFFFFFFFFFFFFFFFFFF AND PUSH20 0xFFFFFFFFFFFFFFFFFFFFFFFFFFFFFFFFFFFFFFFF AND DUP2 MSTORE PUSH1 0x20 ADD SWAP1 DUP2 MSTORE PUSH1 0x20 ADD PUSH0 KECCAK256 PUSH0 ADD PUSH0 SWAP1 SLOAD SWAP1 PUSH2 0x100 EXP SWAP1 DIV PUSH20 0xFFFFFFFFFFFFFFFFFFFFFFFFFFFFFFFFFFFFFFFF AND SWAP1 POP PUSH0 PUSH20 0xFFFFFFFFFFFFFFFFFFFFFFFFFFFFFFFFFFFFFFFF AND DUP2 PUSH20 0xFFFFFFFFFFFFFFFFFFFFFFFFFFFFFFFFFFFFFFFF AND EQ PUSH2 0x9D1 JUMPI PUSH0 PUSH1 0x3 PUSH0 DUP4 PUSH20 0xFFFFFFFFFFFFFFFFFFFFFFFFFFFFFFFFFFFFFFFF AND PUSH20 0xFFFFFFFFFFFFFFFFFFFFFFFFFFFFFFFFFFFFFFFF AND DUP2 MSTORE PUSH1 0x20 ADD SWAP1 DUP2 MSTORE PUSH1 0x20 ADD PUSH0 KECCAK256 PUSH1 0x1 ADD DUP1 SLOAD SWAP1 POP GT PUSH2 0x9D0 JUMPI PUSH1 0x40 MLOAD PUSH32 0x8C379A000000000000000000000000000000000000000000000000000000000 DUP2 MSTORE PUSH1 0x4 ADD PUSH2 0x9C7 SWAP1 PUSH2 0x22E8 JUMP JUMPDEST PUSH1 0x40 MLOAD DUP1 SWAP2 SUB SWAP1 REVERT JUMPDEST JUMPDEST PUSH0 PUSH1 0x2 PUSH0 SWAP1 SLOAD SWAP1 PUSH2 0x100 EXP SWAP1 DIV PUSH20 0xFFFFFFFFFFFFFFFFFFFFFFFFFFFFFFFFFFFFFFFF AND PUSH20 0xFFFFFFFFFFFFFFFFFFFFFFFFFFFFFFFFFFFFFFFF AND PUSH4 0x23B872DD CALLER ADDRESS DUP7 PUSH1 0x40 MLOAD DUP5 PUSH4 0xFFFFFFFF AND PUSH1 0xE0 SHL DUP2 MSTORE PUSH1 0x4 ADD PUSH2 0xA30 SWAP4 SWAP3 SWAP2 SWAP1 PUSH2 0x2306 JUMP JUMPDEST PUSH1 0x20 PUSH1 0x40 MLOAD DUP1 DUP4 SUB DUP2 PUSH0 DUP8 GAS CALL ISZERO DUP1 ISZERO PUSH2 0xA4C JUMPI RETURNDATASIZE PUSH0 DUP1 RETURNDATACOPY RETURNDATASIZE PUSH0 REVERT JUMPDEST POP POP POP POP PUSH1 0x40 MLOAD RETURNDATASIZE PUSH1 0x1F NOT PUSH1 0x1F DUP3 ADD AND DUP3 ADD DUP1 PUSH1 0x40 MSTORE POP DUP2 ADD SWAP1 PUSH2 0xA70 SWAP2 SWAP1 PUSH2 0x2365 JUMP JUMPDEST SWAP1 POP DUP1 PUSH2 0xAB2 JUMPI PUSH1 0x40 MLOAD PUSH32 0x8C379A000000000000000000000000000000000000000000000000000000000 DUP2 MSTORE PUSH1 0x4 ADD PUSH2 0xAA9 SWAP1 PUSH2 0x23DA JUMP JUMPDEST PUSH1 0x40 MLOAD DUP1 SWAP2 SUB SWAP1 REVERT JUMPDEST PUSH0 PUSH1 0x1 PUSH0 DUP2 SLOAD PUSH2 0xAC1 SWAP1 PUSH2 0x2425 JUMP JUMPDEST SWAP2 SWAP1 POP DUP2 SWAP1 SSTORE SWAP1 POP PUSH1 0x3 PUSH0 CALLER PUSH20 0xFFFFFFFFFFFFFFFFFFFFFFFFFFFFFFFFFFFFFFFF AND PUSH20 0xFFFFFFFFFFFFFFFFFFFFFFFFFFFFFFFFFFFFFFFF AND DUP2 MSTORE PUSH1 0x20 ADD SWAP1 DUP2 MSTORE PUSH1 0x20 ADD PUSH0 KECCAK256 PUSH1 0x1 ADD PUSH1 0x40 MLOAD DUP1 PUSH1 0xC0 ADD PUSH1 0x40 MSTORE DUP1 PUSH1 0x1 SLOAD DUP2 MSTORE PUSH1 0x20 ADD DUP4 DUP2 MSTORE PUSH1 0x20 ADD DUP7 DUP2 MSTORE PUSH1 0x20 ADD TIMESTAMP DUP2 MSTORE PUSH1 0x20 ADD DUP8 DUP2 MSTORE PUSH1 0x20 ADD PUSH0 ISZERO ISZERO DUP2 MSTORE POP SWAP1 DUP1 PUSH1 0x1 DUP2 SLOAD ADD DUP1 DUP3 SSTORE DUP1 SWAP2 POP POP PUSH1 0x1 SWAP1 SUB SWAP1 PUSH0 MSTORE PUSH1 0x20 PUSH0 KECCAK256 SWAP1 PUSH1 0x6 MUL ADD PUSH0 SWAP1 SWAP2 SWAP1 SWAP2 SWAP1 SWAP2 POP PUSH0 DUP3 ADD MLOAD DUP2 PUSH0 ADD SSTORE PUSH1 0x20 DUP3 ADD MLOAD DUP2 PUSH1 0x1 ADD SSTORE PUSH1 0x40 DUP3 ADD MLOAD DUP2 PUSH1 0x2 ADD SSTORE PUSH1 0x60 DUP3 ADD MLOAD DUP2 PUSH1 0x3 ADD SSTORE PUSH1 0x80 DUP3 ADD MLOAD DUP2 PUSH1 0x4 ADD SSTORE PUSH1 0xA0 DUP3 ADD MLOAD DUP2 PUSH1 0x5 ADD PUSH0 PUSH2 0x100 EXP DUP2 SLOAD DUP2 PUSH1 0xFF MUL NOT AND SWAP1 DUP4 ISZERO ISZERO MUL OR SWAP1 SSTORE POP POP POP CALLER PUSH1 0x5 PUSH0 DUP4 DUP2 MSTORE PUSH1 0x20 ADD SWAP1 DUP2 MSTORE PUSH1 0x20 ADD PUSH0 KECCAK256 PUSH0 PUSH2 0x100 EXP DUP2 SLOAD DUP2 PUSH20 0xFFFFFFFFFFFFFFFFFFFFFFFFFFFFFFFFFFFFFFFF MUL NOT AND SWAP1 DUP4 PUSH20 0xFFFFFFFFFFFFFFFFFFFFFFFFFFFFFFFFFFFFFFFF AND MUL OR SWAP1 SSTORE POP PUSH0 PUSH1 0x1 PUSH1 0x3 PUSH0 CALLER PUSH20 0xFFFFFFFFFFFFFFFFFFFFFFFFFFFFFFFFFFFFFFFF AND PUSH20 0xFFFFFFFFFFFFFFFFFFFFFFFFFFFFFFFFFFFFFFFF AND DUP2 MSTORE PUSH1 0x20 ADD SWAP1 DUP2 MSTORE PUSH1 0x20 ADD PUSH0 KECCAK256 PUSH1 0x1 ADD DUP1 SLOAD SWAP1 POP EQ SWAP1 POP PUSH0 PUSH1 0x3 PUSH0 CALLER PUSH20 0xFFFFFFFFFFFFFFFFFFFFFFFFFFFFFFFFFFFFFFFF AND PUSH20 0xFFFFFFFFFFFFFFFFFFFFFFFFFFFFFFFFFFFFFFFF AND DUP2 MSTORE PUSH1 0x20 ADD SWAP1 DUP2 MSTORE PUSH1 0x20 ADD PUSH0 KECCAK256 PUSH0 ADD PUSH0 SWAP1 SLOAD SWAP1 PUSH2 0x100 EXP SWAP1 DIV PUSH20 0xFFFFFFFFFFFFFFFFFFFFFFFFFFFFFFFFFFFFFFFF AND SWAP1 POP PUSH0 JUMPDEST PUSH1 0x5 DUP2 PUSH1 0xFF AND LT DUP1 ISZERO PUSH2 0xCED JUMPI POP PUSH0 PUSH20 0xFFFFFFFFFFFFFFFFFFFFFFFFFFFFFFFFFFFFFFFF AND DUP3 PUSH20 0xFFFFFFFFFFFFFFFFFFFFFFFFFFFFFFFFFFFFFFFF AND EQ ISZERO JUMPDEST ISZERO PUSH2 0x17C7 JUMPI PUSH0 DUP1 DUP3 PUSH1 0xFF AND SUB PUSH2 0x14A6 JUMPI DUP4 ISZERO PUSH2 0x11F5 JUMPI PUSH0 PUSH1 0x64 PUSH1 0x5 DUP11 PUSH2 0xD13 SWAP2 SWAP1 PUSH2 0x246C JUMP JUMPDEST PUSH2 0xD1D SWAP2 SWAP1 PUSH2 0x24DA JUMP JUMPDEST SWAP1 POP PUSH0 PUSH1 0x64 PUSH1 0x5 DUP12 PUSH2 0xD2F SWAP2 SWAP1 PUSH2 0x246C JUMP JUMPDEST PUSH2 0xD39 SWAP2 SWAP1 PUSH2 0x24DA JUMP JUMPDEST SWAP1 POP DUP1 DUP3 PUSH2 0xD47 SWAP2 SWAP1 PUSH2 0x250A JUMP JUMPDEST PUSH1 0x2 PUSH0 SWAP1 SLOAD SWAP1 PUSH2 0x100 EXP SWAP1 DIV PUSH20 0xFFFFFFFFFFFFFFFFFFFFFFFFFFFFFFFFFFFFFFFF AND PUSH20 0xFFFFFFFFFFFFFFFFFFFFFFFFFFFFFFFFFFFFFFFF AND PUSH4 0x70A08231 ADDRESS PUSH1 0x40 MLOAD DUP3 PUSH4 0xFFFFFFFF AND PUSH1 0xE0 SHL DUP2 MSTORE PUSH1 0x4 ADD PUSH2 0xDA1 SWAP2 SWAP1 PUSH2 0x1DA4 JUMP JUMPDEST PUSH1 0x20 PUSH1 0x40 MLOAD DUP1 DUP4 SUB DUP2 DUP7 GAS STATICCALL ISZERO DUP1 ISZERO PUSH2 0xDBC JUMPI RETURNDATASIZE PUSH0 DUP1 RETURNDATACOPY RETURNDATASIZE PUSH0 REVERT JUMPDEST POP POP POP POP PUSH1 0x40 MLOAD RETURNDATASIZE PUSH1 0x1F NOT PUSH1 0x1F DUP3 ADD AND DUP3 ADD DUP1 PUSH1 0x40 MSTORE POP DUP2 ADD SWAP1 PUSH2 0xDE0 SWAP2 SWAP1 PUSH2 0x2551 JUMP JUMPDEST LT ISZERO PUSH2 0xE21 JUMPI PUSH1 0x40 MLOAD PUSH32 0x8C379A000000000000000000000000000000000000000000000000000000000 DUP2 MSTORE PUSH1 0x4 ADD PUSH2 0xE18 SWAP1 PUSH2 0x25C6 JUMP JUMPDEST PUSH1 0x40 MLOAD DUP1 SWAP2 SUB SWAP1 REVERT JUMPDEST PUSH1 0x2 PUSH0 SWAP1 SLOAD SWAP1 PUSH2 0x100 EXP SWAP1 DIV PUSH20 0xFFFFFFFFFFFFFFFFFFFFFFFFFFFFFFFFFFFFFFFF AND PUSH20 0xFFFFFFFFFFFFFFFFFFFFFFFFFFFFFFFFFFFFFFFF AND PUSH4 0xA9059CBB DUP7 DUP5 PUSH1 0x40 MLOAD DUP4 PUSH4 0xFFFFFFFF AND PUSH1 0xE0 SHL DUP2 MSTORE PUSH1 0x4 ADD PUSH2 0xE7D SWAP3 SWAP2 SWAP1 PUSH2 0x25E4 JUMP JUMPDEST PUSH1 0x20 PUSH1 0x40 MLOAD DUP1 DUP4 SUB DUP2 PUSH0 DUP8 GAS CALL ISZERO DUP1 ISZERO PUSH2 0xE99 JUMPI RETURNDATASIZE PUSH0 DUP1 RETURNDATACOPY RETURNDATASIZE PUSH0 REVERT JUMPDEST POP POP POP POP PUSH1 0x40 MLOAD RETURNDATASIZE PUSH1 0x1F NOT PUSH1 0x1F DUP3 ADD AND DUP3 ADD DUP1 PUSH1 0x40 MSTORE POP DUP2 ADD SWAP1 PUSH2 0xEBD SWAP2 SWAP1 PUSH2 0x2365 JUMP JUMPDEST PUSH2 0xEFC JUMPI PUSH1 0x40 MLOAD PUSH32 0x8C379A000000000000000000000000000000000000000000000000000000000 DUP2 MSTORE PUSH1 0x4 ADD PUSH2 0xEF3 SWAP1 PUSH2 0x2655 JUMP JUMPDEST PUSH1 0x40 MLOAD DUP1 SWAP2 SUB SWAP1 REVERT JUMPDEST PUSH1 0x2 PUSH0 SWAP1 SLOAD SWAP1 PUSH2 0x100 EXP SWAP1 DIV PUSH20 0xFFFFFFFFFFFFFFFFFFFFFFFFFFFFFFFFFFFFFFFF AND PUSH20 0xFFFFFFFFFFFFFFFFFFFFFFFFFFFFFFFFFFFFFFFF AND PUSH4 0xA9059CBB DUP7 DUP4 PUSH1 0x40 MLOAD DUP4 PUSH4 0xFFFFFFFF AND PUSH1 0xE0 SHL DUP2 MSTORE PUSH1 0x4 ADD PUSH2 0xF58 SWAP3 SWAP2 SWAP1 PUSH2 0x25E4 JUMP JUMPDEST PUSH1 0x20 PUSH1 0x40 MLOAD DUP1 DUP4 SUB DUP2 PUSH0 DUP8 GAS CALL ISZERO DUP1 ISZERO PUSH2 0xF74 JUMPI RETURNDATASIZE PUSH0 DUP1 RETURNDATACOPY RETURNDATASIZE PUSH0 REVERT JUMPDEST POP POP POP POP PUSH1 0x40 MLOAD RETURNDATASIZE PUSH1 0x1F NOT PUSH1 0x1F DUP3 ADD AND DUP3 ADD DUP1 PUSH1 0x40 MSTORE POP DUP2 ADD SWAP1 PUSH2 0xF98 SWAP2 SWAP1 PUSH2 0x2365 JUMP JUMPDEST PUSH2 0xFD7 JUMPI PUSH1 0x40 MLOAD PUSH32 0x8C379A000000000000000000000000000000000000000000000000000000000 DUP2 MSTORE PUSH1 0x4 ADD PUSH2 0xFCE SWAP1 PUSH2 0x26BD JUMP JUMPDEST PUSH1 0x40 MLOAD DUP1 SWAP2 SUB SWAP1 REVERT JUMPDEST DUP2 PUSH1 0x7 PUSH0 DUP8 PUSH20 0xFFFFFFFFFFFFFFFFFFFFFFFFFFFFFFFFFFFFFFFF AND PUSH20 0xFFFFFFFFFFFFFFFFFFFFFFFFFFFFFFFFFFFFFFFF AND DUP2 MSTORE PUSH1 0x20 ADD SWAP1 DUP2 MSTORE PUSH1 0x20 ADD PUSH0 KECCAK256 PUSH0 DUP3 DUP3 SLOAD PUSH2 0x1023 SWAP2 SWAP1 PUSH2 0x250A JUMP JUMPDEST SWAP3 POP POP DUP2 SWAP1 SSTORE POP DUP1 DUP3 PUSH2 0x1036 SWAP2 SWAP1 PUSH2 0x250A JUMP JUMPDEST PUSH1 0x3 PUSH0 DUP8 PUSH20 0xFFFFFFFFFFFFFFFFFFFFFFFFFFFFFFFFFFFFFFFF AND PUSH20 0xFFFFFFFFFFFFFFFFFFFFFFFFFFFFFFFFFFFFFFFF AND DUP2 MSTORE PUSH1 0x20 ADD SWAP1 DUP2 MSTORE PUSH1 0x20 ADD PUSH0 KECCAK256 PUSH1 0x2 ADD PUSH0 DUP3 DUP3 SLOAD PUSH2 0x1084 SWAP2 SWAP1 PUSH2 0x250A JUMP JUMPDEST SWAP3 POP POP DUP2 SWAP1 SSTORE POP DUP1 PUSH1 0x3 PUSH0 DUP8 PUSH20 0xFFFFFFFFFFFFFFFFFFFFFFFFFFFFFFFFFFFFFFFF AND PUSH20 0xFFFFFFFFFFFFFFFFFFFFFFFFFFFFFFFFFFFFFFFF AND DUP2 MSTORE PUSH1 0x20 ADD SWAP1 DUP2 MSTORE PUSH1 0x20 ADD PUSH0 KECCAK256 PUSH1 0x3 ADD PUSH0 DUP3 DUP3 SLOAD PUSH2 0x10DA SWAP2 SWAP1 PUSH2 0x250A JUMP JUMPDEST SWAP3 POP POP DUP2 SWAP1 SSTORE POP PUSH0 PUSH1 0x4 PUSH0 DUP8 PUSH20 0xFFFFFFFFFFFFFFFFFFFFFFFFFFFFFFFFFFFFFFFF AND PUSH20 0xFFFFFFFFFFFFFFFFFFFFFFFFFFFFFFFFFFFFFFFF AND DUP2 MSTORE PUSH1 0x20 ADD SWAP1 DUP2 MSTORE PUSH1 0x20 ADD PUSH0 KECCAK256 SWAP1 POP PUSH0 JUMPDEST DUP2 DUP1 SLOAD SWAP1 POP DUP2 LT ISZERO PUSH2 0x11EC JUMPI CALLER PUSH20 0xFFFFFFFFFFFFFFFFFFFFFFFFFFFFFFFFFFFFFFFF AND DUP3 DUP3 DUP2 SLOAD DUP2 LT PUSH2 0x1159 JUMPI PUSH2 0x1158 PUSH2 0x26DB JUMP JUMPDEST JUMPDEST SWAP1 PUSH0 MSTORE PUSH1 0x20 PUSH0 KECCAK256 SWAP1 PUSH1 0x3 MUL ADD PUSH0 ADD PUSH0 SWAP1 SLOAD SWAP1 PUSH2 0x100 EXP SWAP1 DIV PUSH20 0xFFFFFFFFFFFFFFFFFFFFFFFFFFFFFFFFFFFFFFFF AND PUSH20 0xFFFFFFFFFFFFFFFFFFFFFFFFFFFFFFFFFFFFFFFF AND SUB PUSH2 0x11DF JUMPI DUP4 DUP3 DUP3 DUP2 SLOAD DUP2 LT PUSH2 0x11B6 JUMPI PUSH2 0x11B5 PUSH2 0x26DB JUMP JUMPDEST JUMPDEST SWAP1 PUSH0 MSTORE PUSH1 0x20 PUSH0 KECCAK256 SWAP1 PUSH1 0x3 MUL ADD PUSH1 0x1 ADD PUSH0 DUP3 DUP3 SLOAD PUSH2 0x11D3 SWAP2 SWAP1 PUSH2 0x250A JUMP JUMPDEST SWAP3 POP POP DUP2 SWAP1 SSTORE POP PUSH2 0x11EC JUMP JUMPDEST DUP1 DUP1 PUSH1 0x1 ADD SWAP2 POP POP PUSH2 0x1123 JUMP JUMPDEST POP POP POP POP PUSH2 0x14A1 JUMP JUMPDEST PUSH1 0x64 PUSH1 0x9 DUP4 PUSH1 0xFF AND PUSH1 0x5 DUP2 LT PUSH2 0x120E JUMPI PUSH2 0x120D PUSH2 0x26DB JUMP JUMPDEST JUMPDEST PUSH1 0x20 SWAP2 DUP3 DUP3 DIV ADD SWAP2 SWAP1 MOD SWAP1 SLOAD SWAP1 PUSH2 0x100 EXP SWAP1 DIV PUSH1 0xFF AND PUSH1 0xFF AND DUP10 PUSH2 0x1232 SWAP2 SWAP1 PUSH2 0x246C JUMP JUMPDEST PUSH2 0x123C SWAP2 SWAP1 PUSH2 0x24DA JUMP JUMPDEST SWAP1 POP DUP1 PUSH1 0x2 PUSH0 SWAP1 SLOAD SWAP1 PUSH2 0x100 EXP SWAP1 DIV PUSH20 0xFFFFFFFFFFFFFFFFFFFFFFFFFFFFFFFFFFFFFFFF AND PUSH20 0xFFFFFFFFFFFFFFFFFFFFFFFFFFFFFFFFFFFFFFFF AND PUSH4 0x70A08231 ADDRESS PUSH1 0x40 MLOAD DUP3 PUSH4 0xFFFFFFFF AND PUSH1 0xE0 SHL DUP2 MSTORE PUSH1 0x4 ADD PUSH2 0x1299 SWAP2 SWAP1 PUSH2 0x1DA4 JUMP JUMPDEST PUSH1 0x20 PUSH1 0x40 MLOAD DUP1 DUP4 SUB DUP2 DUP7 GAS STATICCALL ISZERO DUP1 ISZERO PUSH2 0x12B4 JUMPI RETURNDATASIZE PUSH0 DUP1 RETURNDATACOPY RETURNDATASIZE PUSH0 REVERT JUMPDEST POP POP POP POP PUSH1 0x40 MLOAD RETURNDATASIZE PUSH1 0x1F NOT PUSH1 0x1F DUP3 ADD AND DUP3 ADD DUP1 PUSH1 0x40 MSTORE POP DUP2 ADD SWAP1 PUSH2 0x12D8 SWAP2 SWAP1 PUSH2 0x2551 JUMP JUMPDEST LT ISZERO PUSH2 0x1319 JUMPI PUSH1 0x40 MLOAD PUSH32 0x8C379A000000000000000000000000000000000000000000000000000000000 DUP2 MSTORE PUSH1 0x4 ADD PUSH2 0x1310 SWAP1 PUSH2 0x25C6 JUMP JUMPDEST PUSH1 0x40 MLOAD DUP1 SWAP2 SUB SWAP1 REVERT JUMPDEST PUSH1 0x2 PUSH0 SWAP1 SLOAD SWAP1 PUSH2 0x100 EXP SWAP1 DIV PUSH20 0xFFFFFFFFFFFFFFFFFFFFFFFFFFFFFFFFFFFFFFFF AND PUSH20 0xFFFFFFFFFFFFFFFFFFFFFFFFFFFFFFFFFFFFFFFF AND PUSH4 0xA9059CBB DUP5 DUP4 PUSH1 0x40 MLOAD DUP4 PUSH4 0xFFFFFFFF AND PUSH1 0xE0 SHL DUP2 MSTORE PUSH1 0x4 ADD PUSH2 0x1375 SWAP3 SWAP2 SWAP1 PUSH2 0x25E4 JUMP JUMPDEST PUSH1 0x20 PUSH1 0x40 MLOAD DUP1 DUP4 SUB DUP2 PUSH0 DUP8 GAS CALL ISZERO DUP1 ISZERO PUSH2 0x1391 JUMPI RETURNDATASIZE PUSH0 DUP1 RETURNDATACOPY RETURNDATASIZE PUSH0 REVERT JUMPDEST POP POP POP POP PUSH1 0x40 MLOAD RETURNDATASIZE PUSH1 0x1F NOT PUSH1 0x1F DUP3 ADD AND DUP3 ADD DUP1 PUSH1 0x40 MSTORE POP DUP2 ADD SWAP1 PUSH2 0x13B5 SWAP2 SWAP1 PUSH2 0x2365 JUMP JUMPDEST PUSH2 0x13F4 JUMPI PUSH1 0x40 MLOAD PUSH32 0x8C379A000000000000000000000000000000000000000000000000000000000 DUP2 MSTORE PUSH1 0x4 ADD PUSH2 0x13EB SWAP1 PUSH2 0x26BD JUMP JUMPDEST PUSH1 0x40 MLOAD DUP1 SWAP2 SUB SWAP1 REVERT JUMPDEST DUP1 PUSH1 0x3 PUSH0 DUP6 PUSH20 0xFFFFFFFFFFFFFFFFFFFFFFFFFFFFFFFFFFFFFFFF AND PUSH20 0xFFFFFFFFFFFFFFFFFFFFFFFFFFFFFFFFFFFFFFFF AND DUP2 MSTORE PUSH1 0x20 ADD SWAP1 DUP2 MSTORE PUSH1 0x20 ADD PUSH0 KECCAK256 PUSH1 0x2 ADD PUSH0 DUP3 DUP3 SLOAD PUSH2 0x1443 SWAP2 SWAP1 PUSH2 0x250A JUMP JUMPDEST SWAP3 POP POP DUP2 SWAP1 SSTORE POP DUP1 PUSH1 0x3 PUSH0 DUP6 PUSH20 0xFFFFFFFFFFFFFFFFFFFFFFFFFFFFFFFFFFFFFFFF AND PUSH20 0xFFFFFFFFFFFFFFFFFFFFFFFFFFFFFFFFFFFFFFFF AND DUP2 MSTORE PUSH1 0x20 ADD SWAP1 DUP2 MSTORE PUSH1 0x20 ADD PUSH0 KECCAK256 PUSH1 0x3 ADD PUSH0 DUP3 DUP3 SLOAD PUSH2 0x1499 SWAP2 SWAP1 PUSH2 0x250A JUMP JUMPDEST SWAP3 POP POP DUP2 SWAP1 SSTORE POP JUMPDEST PUSH2 0x1752 JUMP JUMPDEST PUSH1 0x64 PUSH1 0x9 DUP4 PUSH1 0xFF AND PUSH1 0x5 DUP2 LT PUSH2 0x14BF JUMPI PUSH2 0x14BE PUSH2 0x26DB JUMP JUMPDEST JUMPDEST PUSH1 0x20 SWAP2 DUP3 DUP3 DIV ADD SWAP2 SWAP1 MOD SWAP1 SLOAD SWAP1 PUSH2 0x100 EXP SWAP1 DIV PUSH1 0xFF AND PUSH1 0xFF AND DUP10 PUSH2 0x14E3 SWAP2 SWAP1 PUSH2 0x246C JUMP JUMPDEST PUSH2 0x14ED SWAP2 SWAP1 PUSH2 0x24DA JUMP JUMPDEST SWAP1 POP DUP1 PUSH1 0x2 PUSH0 SWAP1 SLOAD SWAP1 PUSH2 0x100 EXP SWAP1 DIV PUSH20 0xFFFFFFFFFFFFFFFFFFFFFFFFFFFFFFFFFFFFFFFF AND PUSH20 0xFFFFFFFFFFFFFFFFFFFFFFFFFFFFFFFFFFFFFFFF AND PUSH4 0x70A08231 ADDRESS PUSH1 0x40 MLOAD DUP3 PUSH4 0xFFFFFFFF AND PUSH1 0xE0 SHL DUP2 MSTORE PUSH1 0x4 ADD PUSH2 0x154A SWAP2 SWAP1 PUSH2 0x1DA4 JUMP JUMPDEST PUSH1 0x20 PUSH1 0x40 MLOAD DUP1 DUP4 SUB DUP2 DUP7 GAS STATICCALL ISZERO DUP1 ISZERO PUSH2 0x1565 JUMPI RETURNDATASIZE PUSH0 DUP1 RETURNDATACOPY RETURNDATASIZE PUSH0 REVERT JUMPDEST POP POP POP POP PUSH1 0x40 MLOAD RETURNDATASIZE PUSH1 0x1F NOT PUSH1 0x1F DUP3 ADD AND DUP3 ADD DUP1 PUSH1 0x40 MSTORE POP DUP2 ADD SWAP1 PUSH2 0x1589 SWAP2 SWAP1 PUSH2 0x2551 JUMP JUMPDEST LT ISZERO PUSH2 0x15CA JUMPI PUSH1 0x40 MLOAD PUSH32 0x8C379A000000000000000000000000000000000000000000000000000000000 DUP2 MSTORE PUSH1 0x4 ADD PUSH2 0x15C1 SWAP1 PUSH2 0x25C6 JUMP JUMPDEST PUSH1 0x40 MLOAD DUP1 SWAP2 SUB SWAP1 REVERT JUMPDEST PUSH1 0x2 PUSH0 SWAP1 SLOAD SWAP1 PUSH2 0x100 EXP SWAP1 DIV PUSH20 0xFFFFFFFFFFFFFFFFFFFFFFFFFFFFFFFFFFFFFFFF AND PUSH20 0xFFFFFFFFFFFFFFFFFFFFFFFFFFFFFFFFFFFFFFFF AND PUSH4 0xA9059CBB DUP5 DUP4 PUSH1 0x40 MLOAD DUP4 PUSH4 0xFFFFFFFF AND PUSH1 0xE0 SHL DUP2 MSTORE PUSH1 0x4 ADD PUSH2 0x1626 SWAP3 SWAP2 SWAP1 PUSH2 0x25E4 JUMP JUMPDEST PUSH1 0x20 PUSH1 0x40 MLOAD DUP1 DUP4 SUB DUP2 PUSH0 DUP8 GAS CALL ISZERO DUP1 ISZERO PUSH2 0x1642 JUMPI RETURNDATASIZE PUSH0 DUP1 RETURNDATACOPY RETURNDATASIZE PUSH0 REVERT JUMPDEST POP POP POP POP PUSH1 0x40 MLOAD RETURNDATASIZE PUSH1 0x1F NOT PUSH1 0x1F DUP3 ADD AND DUP3 ADD DUP1 PUSH1 0x40 MSTORE POP DUP2 ADD SWAP1 PUSH2 0x1666 SWAP2 SWAP1 PUSH2 0x2365 JUMP JUMPDEST PUSH2 0x16A5 JUMPI PUSH1 0x40 MLOAD PUSH32 0x8C379A000000000000000000000000000000000000000000000000000000000 DUP2 MSTORE PUSH1 0x4 ADD PUSH2 0x169C SWAP1 PUSH2 0x2752 JUMP JUMPDEST PUSH1 0x40 MLOAD DUP1 SWAP2 SUB SWAP1 REVERT JUMPDEST DUP1 PUSH1 0x3 PUSH0 DUP6 PUSH20 0xFFFFFFFFFFFFFFFFFFFFFFFFFFFFFFFFFFFFFFFF AND PUSH20 0xFFFFFFFFFFFFFFFFFFFFFFFFFFFFFFFFFFFFFFFF AND DUP2 MSTORE PUSH1 0x20 ADD SWAP1 DUP2 MSTORE PUSH1 0x20 ADD PUSH0 KECCAK256 PUSH1 0x2 ADD PUSH0 DUP3 DUP3 SLOAD PUSH2 0x16F4 SWAP2 SWAP1 PUSH2 0x250A JUMP JUMPDEST SWAP3 POP POP DUP2 SWAP1 SSTORE POP DUP1 PUSH1 0x3 PUSH0 DUP6 PUSH20 0xFFFFFFFFFFFFFFFFFFFFFFFFFFFFFFFFFFFFFFFF AND PUSH20 0xFFFFFFFFFFFFFFFFFFFFFFFFFFFFFFFFFFFFFFFF AND DUP2 MSTORE PUSH1 0x20 ADD SWAP1 DUP2 MSTORE PUSH1 0x20 ADD PUSH0 KECCAK256 PUSH1 0x3 ADD PUSH0 DUP3 DUP3 SLOAD PUSH2 0x174A SWAP2 SWAP1 PUSH2 0x250A JUMP JUMPDEST SWAP3 POP POP DUP2 SWAP1 SSTORE POP JUMPDEST PUSH1 0x3 PUSH0 DUP5 PUSH20 0xFFFFFFFFFFFFFFFFFFFFFFFFFFFFFFFFFFFFFFFF AND PUSH20 0xFFFFFFFFFFFFFFFFFFFFFFFFFFFFFFFFFFFFFFFF AND DUP2 MSTORE PUSH1 0x20 ADD SWAP1 DUP2 MSTORE PUSH1 0x20 ADD PUSH0 KECCAK256 PUSH0 ADD PUSH0 SWAP1 SLOAD SWAP1 PUSH2 0x100 EXP SWAP1 DIV PUSH20 0xFFFFFFFFFFFFFFFFFFFFFFFFFFFFFFFFFFFFFFFF AND SWAP3 POP POP DUP1 DUP1 PUSH2 0x17BF SWAP1 PUSH2 0x2770 JUMP JUMPDEST SWAP2 POP POP PUSH2 0xCAE JUMP JUMPDEST POP POP POP POP POP POP POP POP JUMP JUMPDEST PUSH1 0x6 PUSH1 0x20 MSTORE DUP1 PUSH0 MSTORE PUSH1 0x40 PUSH0 KECCAK256 PUSH0 SWAP2 POP SWAP1 POP SLOAD DUP2 JUMP JUMPDEST PUSH0 DUP1 SLOAD SWAP1 PUSH2 0x100 EXP SWAP1 DIV PUSH20 0xFFFFFFFFFFFFFFFFFFFFFFFFFFFFFFFFFFFFFFFF AND DUP2 JUMP JUMPDEST PUSH1 0x8 DUP2 DUP2 SLOAD DUP2 LT PUSH2 0x1818 JUMPI PUSH0 DUP1 REVERT JUMPDEST SWAP1 PUSH0 MSTORE PUSH1 0x20 PUSH0 KECCAK256 ADD PUSH0 SWAP2 POP SLOAD SWAP1 PUSH2 0x100 EXP SWAP1 DIV PUSH20 0xFFFFFFFFFFFFFFFFFFFFFFFFFFFFFFFFFFFFFFFF AND DUP2 JUMP JUMPDEST PUSH1 0x3 PUSH1 0x20 MSTORE DUP1 PUSH0 MSTORE PUSH1 0x40 PUSH0 KECCAK256 PUSH0 SWAP2 POP SWAP1 POP DUP1 PUSH0 ADD PUSH0 SWAP1 SLOAD SWAP1 PUSH2 0x100 EXP SWAP1 DIV PUSH20 0xFFFFFFFFFFFFFFFFFFFFFFFFFFFFFFFFFFFFFFFF AND SWAP1 DUP1 PUSH1 0x2 ADD SLOAD SWAP1 DUP1 PUSH1 0x3 ADD SLOAD SWAP1 DUP1 PUSH1 0x4 ADD PUSH0 SWAP1 SLOAD SWAP1 PUSH2 0x100 EXP SWAP1 DIV PUSH1 0xFF AND SWAP1 POP DUP5 JUMP JUMPDEST PUSH1 0x2 PUSH0 SWAP1 SLOAD SWAP1 PUSH2 0x100 EXP SWAP1 DIV PUSH20 0xFFFFFFFFFFFFFFFFFFFFFFFFFFFFFFFFFFFFFFFF AND DUP2 JUMP JUMPDEST PUSH1 0x9 DUP2 PUSH1 0x5 DUP2 LT PUSH2 0x18CF JUMPI PUSH0 DUP1 REVERT JUMPDEST PUSH1 0x20 SWAP2 DUP3 DUP3 DIV ADD SWAP2 SWAP1 MOD SWAP2 POP SLOAD SWAP1 PUSH2 0x100 EXP SWAP1 DIV PUSH1 0xFF AND DUP2 JUMP JUMPDEST PUSH0 DUP1 SLOAD SWAP1 PUSH2 0x100 EXP SWAP1 DIV PUSH20 0xFFFFFFFFFFFFFFFFFFFFFFFFFFFFFFFFFFFFFFFF AND PUSH20 0xFFFFFFFFFFFFFFFFFFFFFFFFFFFFFFFFFFFFFFFF AND CALLER PUSH20 0xFFFFFFFFFFFFFFFFFFFFFFFFFFFFFFFFFFFFFFFF AND EQ PUSH2 0x1976 JUMPI PUSH1 0x40 MLOAD PUSH32 0x8C379A000000000000000000000000000000000000000000000000000000000 DUP2 MSTORE PUSH1 0x4 ADD PUSH2 0x196D SWAP1 PUSH2 0x27E2 JUMP JUMPDEST PUSH1 0x40 MLOAD DUP1 SWAP2 SUB SWAP1 REVERT JUMPDEST PUSH0 PUSH20 0xFFFFFFFFFFFFFFFFFFFFFFFFFFFFFFFFFFFFFFFF AND DUP2 PUSH20 0xFFFFFFFFFFFFFFFFFFFFFFFFFFFFFFFFFFFFFFFF AND SUB PUSH2 0x19E4 JUMPI PUSH1 0x40 MLOAD PUSH32 0x8C379A000000000000000000000000000000000000000000000000000000000 DUP2 MSTORE PUSH1 0x4 ADD PUSH2 0x19DB SWAP1 PUSH2 0x284A JUMP JUMPDEST PUSH1 0x40 MLOAD DUP1 SWAP2 SUB SWAP1 REVERT JUMPDEST PUSH0 DUP1 SLOAD SWAP1 PUSH2 0x100 EXP SWAP1 DIV PUSH20 0xFFFFFFFFFFFFFFFFFFFFFFFFFFFFFFFFFFFFFFFF AND PUSH20 0xFFFFFFFFFFFFFFFFFFFFFFFFFFFFFFFFFFFFFFFF AND DUP2 PUSH20 0xFFFFFFFFFFFFFFFFFFFFFFFFFFFFFFFFFFFFFFFF AND SUB PUSH2 0x1A71 JUMPI PUSH1 0x40 MLOAD PUSH32 0x8C379A000000000000000000000000000000000000000000000000000000000 DUP2 MSTORE PUSH1 0x4 ADD PUSH2 0x1A68 SWAP1 PUSH2 0x28D8 JUMP JUMPDEST PUSH1 0x40 MLOAD DUP1 SWAP2 SUB SWAP1 REVERT JUMPDEST PUSH0 DUP1 PUSH0 SWAP1 SLOAD SWAP1 PUSH2 0x100 EXP SWAP1 DIV PUSH20 0xFFFFFFFFFFFFFFFFFFFFFFFFFFFFFFFFFFFFFFFF AND SWAP1 POP DUP2 PUSH0 DUP1 PUSH2 0x100 EXP DUP2 SLOAD DUP2 PUSH20 0xFFFFFFFFFFFFFFFFFFFFFFFFFFFFFFFFFFFFFFFF MUL NOT AND SWAP1 DUP4 PUSH20 0xFFFFFFFFFFFFFFFFFFFFFFFFFFFFFFFFFFFFFFFF AND MUL OR SWAP1 SSTORE POP PUSH1 0x3 PUSH0 DUP4 PUSH20 0xFFFFFFFFFFFFFFFFFFFFFFFFFFFFFFFFFFFFFFFF AND PUSH20 0xFFFFFFFFFFFFFFFFFFFFFFFFFFFFFFFFFFFFFFFF AND DUP2 MSTORE PUSH1 0x20 ADD SWAP1 DUP2 MSTORE PUSH1 0x20 ADD PUSH0 KECCAK256 PUSH1 0x4 ADD PUSH0 SWAP1 SLOAD SWAP1 PUSH2 0x100 EXP SWAP1 DIV PUSH1 0xFF AND PUSH2 0x1BDE JUMPI PUSH1 0x1 PUSH1 0x3 PUSH0 DUP5 PUSH20 0xFFFFFFFFFFFFFFFFFFFFFFFFFFFFFFFFFFFFFFFF AND PUSH20 0xFFFFFFFFFFFFFFFFFFFFFFFFFFFFFFFFFFFFFFFF AND DUP2 MSTORE PUSH1 0x20 ADD SWAP1 DUP2 MSTORE PUSH1 0x20 ADD PUSH0 KECCAK256 PUSH1 0x4 ADD PUSH0 PUSH2 0x100 EXP DUP2 SLOAD DUP2 PUSH1 0xFF MUL NOT AND SWAP1 DUP4 ISZERO ISZERO MUL OR SWAP1 SSTORE POP PUSH1 0x8 DUP3 SWAP1 DUP1 PUSH1 0x1 DUP2 SLOAD ADD DUP1 DUP3 SSTORE DUP1 SWAP2 POP POP PUSH1 0x1 SWAP1 SUB SWAP1 PUSH0 MSTORE PUSH1 0x20 PUSH0 KECCAK256 ADD PUSH0 SWAP1 SWAP2 SWAP1 SWAP2 SWAP1 SWAP2 PUSH2 0x100 EXP DUP2 SLOAD DUP2 PUSH20 0xFFFFFFFFFFFFFFFFFFFFFFFFFFFFFFFFFFFFFFFF MUL NOT AND SWAP1 DUP4 PUSH20 0xFFFFFFFFFFFFFFFFFFFFFFFFFFFFFFFFFFFFFFFF AND MUL OR SWAP1 SSTORE POP JUMPDEST DUP2 PUSH20 0xFFFFFFFFFFFFFFFFFFFFFFFFFFFFFFFFFFFFFFFF AND DUP2 PUSH20 0xFFFFFFFFFFFFFFFFFFFFFFFFFFFFFFFFFFFFFFFF AND PUSH32 0x8BE0079C531659141344CD1FD0A4F28419497F9722A3DAAFE3B4186F6B6457E0 PUSH1 0x40 MLOAD PUSH1 0x40 MLOAD DUP1 SWAP2 SUB SWAP1 LOG3 POP POP JUMP JUMPDEST PUSH1 0x7 PUSH1 0x20 MSTORE DUP1 PUSH0 MSTORE PUSH1 0x40 PUSH0 KECCAK256 PUSH0 SWAP2 POP SWAP1 POP SLOAD DUP2 JUMP JUMPDEST PUSH1 0x1 SLOAD DUP2 JUMP JUMPDEST PUSH0 DUP1 REVERT JUMPDEST PUSH0 PUSH20 0xFFFFFFFFFFFFFFFFFFFFFFFFFFFFFFFFFFFFFFFF DUP3 AND SWAP1 POP SWAP2 SWAP1 POP JUMP JUMPDEST PUSH0 PUSH2 0x1C84 DUP3 PUSH2 0x1C5B JUMP JUMPDEST SWAP1 POP SWAP2 SWAP1 POP JUMP JUMPDEST PUSH2 0x1C94 DUP2 PUSH2 0x1C7A JUMP JUMPDEST DUP2 EQ PUSH2 0x1C9E JUMPI PUSH0 DUP1 REVERT JUMPDEST POP JUMP JUMPDEST PUSH0 DUP2 CALLDATALOAD SWAP1 POP PUSH2 0x1CAF DUP2 PUSH2 0x1C8B JUMP JUMPDEST SWAP3 SWAP2 POP POP JUMP JUMPDEST PUSH0 DUP2 SWAP1 POP SWAP2 SWAP1 POP JUMP JUMPDEST PUSH2 0x1CC7 DUP2 PUSH2 0x1CB5 JUMP JUMPDEST DUP2 EQ PUSH2 0x1CD1 JUMPI PUSH0 DUP1 REVERT JUMPDEST POP JUMP JUMPDEST PUSH0 DUP2 CALLDATALOAD SWAP1 POP PUSH2 0x1CE2 DUP2 PUSH2 0x1CBE JUMP JUMPDEST SWAP3 SWAP2 POP POP JUMP JUMPDEST PUSH0 DUP1 PUSH1 0x40 DUP4 DUP6 SUB SLT ISZERO PUSH2 0x1CFE JUMPI PUSH2 0x1CFD PUSH2 0x1C57 JUMP JUMPDEST JUMPDEST PUSH0 PUSH2 0x1D0B DUP6 DUP3 DUP7 ADD PUSH2 0x1CA1 JUMP JUMPDEST SWAP3 POP POP PUSH1 0x20 PUSH2 0x1D1C DUP6 DUP3 DUP7 ADD PUSH2 0x1CD4 JUMP JUMPDEST SWAP2 POP POP SWAP3 POP SWAP3 SWAP1 POP JUMP JUMPDEST PUSH2 0x1D2F DUP2 PUSH2 0x1C7A JUMP JUMPDEST DUP3 MSTORE POP POP JUMP JUMPDEST PUSH2 0x1D3E DUP2 PUSH2 0x1CB5 JUMP JUMPDEST DUP3 MSTORE POP POP JUMP JUMPDEST PUSH0 PUSH1 0x60 DUP3 ADD SWAP1 POP PUSH2 0x1D57 PUSH0 DUP4 ADD DUP7 PUSH2 0x1D26 JUMP JUMPDEST PUSH2 0x1D64 PUSH1 0x20 DUP4 ADD DUP6 PUSH2 0x1D35 JUMP JUMPDEST PUSH2 0x1D71 PUSH1 0x40 DUP4 ADD DUP5 PUSH2 0x1D35 JUMP JUMPDEST SWAP5 SWAP4 POP POP POP POP JUMP JUMPDEST PUSH0 PUSH1 0x20 DUP3 DUP5 SUB SLT ISZERO PUSH2 0x1D8E JUMPI PUSH2 0x1D8D PUSH2 0x1C57 JUMP JUMPDEST JUMPDEST PUSH0 PUSH2 0x1D9B DUP5 DUP3 DUP6 ADD PUSH2 0x1CD4 JUMP JUMPDEST SWAP2 POP POP SWAP3 SWAP2 POP POP JUMP JUMPDEST PUSH0 PUSH1 0x20 DUP3 ADD SWAP1 POP PUSH2 0x1DB7 PUSH0 DUP4 ADD DUP5 PUSH2 0x1D26 JUMP JUMPDEST SWAP3 SWAP2 POP POP JUMP JUMPDEST PUSH0 PUSH1 0x20 DUP3 DUP5 SUB SLT ISZERO PUSH2 0x1DD2 JUMPI PUSH2 0x1DD1 PUSH2 0x1C57 JUMP JUMPDEST JUMPDEST PUSH0 PUSH2 0x1DDF DUP5 DUP3 DUP6 ADD PUSH2 0x1CA1 JUMP JUMPDEST SWAP2 POP POP SWAP3 SWAP2 POP POP JUMP JUMPDEST PUSH0 DUP1 PUSH1 0x40 DUP4 DUP6 SUB SLT ISZERO PUSH2 0x1DFE JUMPI PUSH2 0x1DFD PUSH2 0x1C57 JUMP JUMPDEST JUMPDEST PUSH0 PUSH2 0x1E0B DUP6 DUP3 DUP7 ADD PUSH2 0x1CD4 JUMP JUMPDEST SWAP3 POP POP PUSH1 0x20 PUSH2 0x1E1C DUP6 DUP3 DUP7 ADD PUSH2 0x1CD4 JUMP JUMPDEST SWAP2 POP POP SWAP3 POP SWAP3 SWAP1 POP JUMP JUMPDEST PUSH0 PUSH1 0x20 DUP3 ADD SWAP1 POP PUSH2 0x1E39 PUSH0 DUP4 ADD DUP5 PUSH2 0x1D35 JUMP JUMPDEST SWAP3 SWAP2 POP POP JUMP JUMPDEST PUSH0 DUP2 ISZERO ISZERO SWAP1 POP SWAP2 SWAP1 POP JUMP JUMPDEST PUSH2 0x1E53 DUP2 PUSH2 0x1E3F JUMP JUMPDEST DUP3 MSTORE POP POP JUMP JUMPDEST PUSH0 PUSH1 0x80 DUP3 ADD SWAP1 POP PUSH2 0x1E6C PUSH0 DUP4 ADD DUP8 PUSH2 0x1D26 JUMP JUMPDEST PUSH2 0x1E79 PUSH1 0x20 DUP4 ADD DUP7 PUSH2 0x1D35 JUMP JUMPDEST PUSH2 0x1E86 PUSH1 0x40 DUP4 ADD DUP6 PUSH2 0x1D35 JUMP JUMPDEST PUSH2 0x1E93 PUSH1 0x60 DUP4 ADD DUP5 PUSH2 0x1E4A JUMP JUMPDEST SWAP6 SWAP5 POP POP POP POP POP JUMP JUMPDEST PUSH0 DUP2 SWAP1 POP SWAP2 SWAP1 POP JUMP JUMPDEST PUSH0 PUSH2 0x1EBF PUSH2 0x1EBA PUSH2 0x1EB5 DUP5 PUSH2 0x1C5B JUMP JUMPDEST PUSH2 0x1E9C JUMP JUMPDEST PUSH2 0x1C5B JUMP JUMPDEST SWAP1 POP SWAP2 SWAP1 POP JUMP JUMPDEST PUSH0 PUSH2 0x1ED0 DUP3 PUSH2 0x1EA5 JUMP JUMPDEST SWAP1 POP SWAP2 SWAP1 POP JUMP JUMPDEST PUSH0 PUSH2 0x1EE1 DUP3 PUSH2 0x1EC6 JUMP JUMPDEST SWAP1 POP SWAP2 SWAP1 POP JUMP JUMPDEST PUSH2 0x1EF1 DUP2 PUSH2 0x1ED7 JUMP JUMPDEST DUP3 MSTORE POP POP JUMP JUMPDEST PUSH0 PUSH1 0x20 DUP3 ADD SWAP1 POP PUSH2 0x1F0A PUSH0 DUP4 ADD DUP5 PUSH2 0x1EE8 JUMP JUMPDEST SWAP3 SWAP2 POP POP JUMP JUMPDEST PUSH0 PUSH1 0xFF DUP3 AND SWAP1 POP SWAP2 SWAP1 POP JUMP JUMPDEST PUSH2 0x1F25 DUP2 PUSH2 0x1F10 JUMP JUMPDEST DUP3 MSTORE POP POP JUMP JUMPDEST PUSH0 PUSH1 0x20 DUP3 ADD SWAP1 POP PUSH2 0x1F3E PUSH0 DUP4 ADD DUP5 PUSH2 0x1F1C JUMP JUMPDEST SWAP3 SWAP2 POP POP JUMP JUMPDEST PUSH0 DUP3 DUP3 MSTORE PUSH1 0x20 DUP3 ADD SWAP1 POP SWAP3 SWAP2 POP POP JUMP JUMPDEST PUSH32 0x416C726561647920726567697374657265640000000000000000000000000000 PUSH0 DUP3 ADD MSTORE POP JUMP JUMPDEST PUSH0 PUSH2 0x1F88 PUSH1 0x12 DUP4 PUSH2 0x1F44 JUMP JUMPDEST SWAP2 POP PUSH2 0x1F93 DUP3 PUSH2 0x1F54 JUMP JUMPDEST PUSH1 0x20 DUP3 ADD SWAP1 POP SWAP2 SWAP1 POP JUMP JUMPDEST PUSH0 PUSH1 0x20 DUP3 ADD SWAP1 POP DUP2 DUP2 SUB PUSH0 DUP4 ADD MSTORE PUSH2 0x1FB5 DUP2 PUSH2 0x1F7C JUMP JUMPDEST SWAP1 POP SWAP2 SWAP1 POP JUMP JUMPDEST PUSH32 0x43616E6E6F7420726566657220796F757273656C660000000000000000000000 PUSH0 DUP3 ADD MSTORE POP JUMP JUMPDEST PUSH0 PUSH2 0x1FF0 PUSH1 0x15 DUP4 PUSH2 0x1F44 JUMP JUMPDEST SWAP2 POP PUSH2 0x1FFB DUP3 PUSH2 0x1FBC JUMP JUMPDEST PUSH1 0x20 DUP3 ADD SWAP1 POP SWAP2 SWAP1 POP JUMP JUMPDEST PUSH0 PUSH1 0x20 DUP3 ADD SWAP1 POP DUP2 DUP2 SUB PUSH0 DUP4 ADD MSTORE PUSH2 0x201D DUP2 PUSH2 0x1FE4 JUMP JUMPDEST SWAP1 POP SWAP2 SWAP1 POP JUMP JUMPDEST PUSH32 0x5265666572726572206E6F742072656769737465726564000000000000000000 PUSH0 DUP3 ADD MSTORE POP JUMP JUMPDEST PUSH0 PUSH2 0x2058 PUSH1 0x17 DUP4 PUSH2 0x1F44 JUMP JUMPDEST SWAP2 POP PUSH2 0x2063 DUP3 PUSH2 0x2024 JUMP JUMPDEST PUSH1 0x20 DUP3 ADD SWAP1 POP SWAP2 SWAP1 POP JUMP JUMPDEST PUSH0 PUSH1 0x20 DUP3 ADD SWAP1 POP DUP2 DUP2 SUB PUSH0 DUP4 ADD MSTORE PUSH2 0x2085 DUP2 PUSH2 0x204C JUMP JUMPDEST SWAP1 POP SWAP2 SWAP1 POP JUMP JUMPDEST PUSH32 0x5265666572726572206D757374207374616B65206265666F726520796F752063 PUSH0 DUP3 ADD MSTORE PUSH32 0x616E207265676973746572000000000000000000000000000000000000000000 PUSH1 0x20 DUP3 ADD MSTORE POP JUMP JUMPDEST PUSH0 PUSH2 0x20E6 PUSH1 0x2B DUP4 PUSH2 0x1F44 JUMP JUMPDEST SWAP2 POP PUSH2 0x20F1 DUP3 PUSH2 0x208C JUMP JUMPDEST PUSH1 0x40 DUP3 ADD SWAP1 POP SWAP2 SWAP1 POP JUMP JUMPDEST PUSH0 PUSH1 0x20 DUP3 ADD SWAP1 POP DUP2 DUP2 SUB PUSH0 DUP4 ADD MSTORE PUSH2 0x2113 DUP2 PUSH2 0x20DA JUMP JUMPDEST SWAP1 POP SWAP2 SWAP1 POP JUMP JUMPDEST PUSH32 0x4E6F742072656769737465726564000000000000000000000000000000000000 PUSH0 DUP3 ADD MSTORE POP JUMP JUMPDEST PUSH0 PUSH2 0x214E PUSH1 0xE DUP4 PUSH2 0x1F44 JUMP JUMPDEST SWAP2 POP PUSH2 0x2159 DUP3 PUSH2 0x211A JUMP JUMPDEST PUSH1 0x20 DUP3 ADD SWAP1 POP SWAP2 SWAP1 POP JUMP JUMPDEST PUSH0 PUSH1 0x20 DUP3 ADD SWAP1 POP DUP2 DUP2 SUB PUSH0 DUP4 ADD MSTORE PUSH2 0x217B DUP2 PUSH2 0x2142 JUMP JUMPDEST SWAP1 POP SWAP2 SWAP1 POP JUMP JUMPDEST PUSH32 0x5374616B6520616D6F756E74206D757374206265206772656174657220746861 PUSH0 DUP3 ADD MSTORE PUSH32 0x6E20300000000000000000000000000000000000000000000000000000000000 PUSH1 0x20 DUP3 ADD MSTORE POP JUMP JUMPDEST PUSH0 PUSH2 0x21DC PUSH1 0x23 DUP4 PUSH2 0x1F44 JUMP JUMPDEST SWAP2 POP PUSH2 0x21E7 DUP3 PUSH2 0x2182 JUMP JUMPDEST PUSH1 0x40 DUP3 ADD SWAP1 POP SWAP2 SWAP1 POP JUMP JUMPDEST PUSH0 PUSH1 0x20 DUP3 ADD SWAP1 POP DUP2 DUP2 SUB PUSH0 DUP4 ADD MSTORE PUSH2 0x2209 DUP2 PUSH2 0x21D0 JUMP JUMPDEST SWAP1 POP SWAP2 SWAP1 POP JUMP JUMPDEST PUSH32 0x496E76616C6964207374616B696E67206475726174696F6E0000000000000000 PUSH0 DUP3 ADD MSTORE POP JUMP JUMPDEST PUSH0 PUSH2 0x2244 PUSH1 0x18 DUP4 PUSH2 0x1F44 JUMP JUMPDEST SWAP2 POP PUSH2 0x224F DUP3 PUSH2 0x2210 JUMP JUMPDEST PUSH1 0x20 DUP3 ADD SWAP1 POP SWAP2 SWAP1 POP JUMP JUMPDEST PUSH0 PUSH1 0x20 DUP3 ADD SWAP1 POP DUP2 DUP2 SUB PUSH0 DUP4 ADD MSTORE PUSH2 0x2271 DUP2 PUSH2 0x2238 JUMP JUMPDEST SWAP1 POP SWAP2 SWAP1 POP JUMP JUMPDEST PUSH32 0x5265666572726572206D757374207374616B65206265666F726520796F752063 PUSH0 DUP3 ADD MSTORE PUSH32 0x616E207374616B65000000000000000000000000000000000000000000000000 PUSH1 0x20 DUP3 ADD MSTORE POP JUMP JUMPDEST PUSH0 PUSH2 0x22D2 PUSH1 0x28 DUP4 PUSH2 0x1F44 JUMP JUMPDEST SWAP2 POP PUSH2 0x22DD DUP3 PUSH2 0x2278 JUMP JUMPDEST PUSH1 0x40 DUP3 ADD SWAP1 POP SWAP2 SWAP1 POP JUMP JUMPDEST PUSH0 PUSH1 0x20 DUP3 ADD SWAP1 POP DUP2 DUP2 SUB PUSH0 DUP4 ADD MSTORE PUSH2 0x22FF DUP2 PUSH2 0x22C6 JUMP JUMPDEST SWAP1 POP SWAP2 SWAP1 POP JUMP JUMPDEST PUSH0 PUSH1 0x60 DUP3 ADD SWAP1 POP PUSH2 0x2319 PUSH0 DUP4 ADD DUP7 PUSH2 0x1D26 JUMP JUMPDEST PUSH2 0x2326 PUSH1 0x20 DUP4 ADD DUP6 PUSH2 0x1D26 JUMP JUMPDEST PUSH2 0x2333 PUSH1 0x40 DUP4 ADD DUP5 PUSH2 0x1D35 JUMP JUMPDEST SWAP5 SWAP4 POP POP POP POP JUMP JUMPDEST PUSH2 0x2344 DUP2 PUSH2 0x1E3F JUMP JUMPDEST DUP2 EQ PUSH2 0x234E JUMPI PUSH0 DUP1 REVERT JUMPDEST POP JUMP JUMPDEST PUSH0 DUP2 MLOAD SWAP1 POP PUSH2 0x235F DUP2 PUSH2 0x233B JUMP JUMPDEST SWAP3 SWAP2 POP POP JUMP JUMPDEST PUSH0 PUSH1 0x20 DUP3 DUP5 SUB SLT ISZERO PUSH2 0x237A JUMPI PUSH2 0x2379 PUSH2 0x1C57 JUMP JUMPDEST JUMPDEST PUSH0 PUSH2 0x2387 DUP5 DUP3 DUP6 ADD PUSH2 0x2351 JUMP JUMPDEST SWAP2 POP POP SWAP3 SWAP2 POP POP JUMP JUMPDEST PUSH32 0x55534454207472616E73666572206661696C6564000000000000000000000000 PUSH0 DUP3 ADD MSTORE POP JUMP JUMPDEST PUSH0 PUSH2 0x23C4 PUSH1 0x14 DUP4 PUSH2 0x1F44 JUMP JUMPDEST SWAP2 POP PUSH2 0x23CF DUP3 PUSH2 0x2390 JUMP JUMPDEST PUSH1 0x20 DUP3 ADD SWAP1 POP SWAP2 SWAP1 POP JUMP JUMPDEST PUSH0 PUSH1 0x20 DUP3 ADD SWAP1 POP DUP2 DUP2 SUB PUSH0 DUP4 ADD MSTORE PUSH2 0x23F1 DUP2 PUSH2 0x23B8 JUMP JUMPDEST SWAP1 POP SWAP2 SWAP1 POP JUMP JUMPDEST PUSH32 0x4E487B7100000000000000000000000000000000000000000000000000000000 PUSH0 MSTORE PUSH1 0x11 PUSH1 0x4 MSTORE PUSH1 0x24 PUSH0 REVERT JUMPDEST PUSH0 PUSH2 0x242F DUP3 PUSH2 0x1CB5 JUMP JUMPDEST SWAP2 POP PUSH32 0xFFFFFFFFFFFFFFFFFFFFFFFFFFFFFFFFFFFFFFFFFFFFFFFFFFFFFFFFFFFFFFFF DUP3 SUB PUSH2 0x2461 JUMPI PUSH2 0x2460 PUSH2 0x23F8 JUMP JUMPDEST JUMPDEST PUSH1 0x1 DUP3 ADD SWAP1 POP SWAP2 SWAP1 POP JUMP JUMPDEST PUSH0 PUSH2 0x2476 DUP3 PUSH2 0x1CB5 JUMP JUMPDEST SWAP2 POP PUSH2 0x2481 DUP4 PUSH2 0x1CB5 JUMP JUMPDEST SWAP3 POP DUP3 DUP3 MUL PUSH2 0x248F DUP2 PUSH2 0x1CB5 JUMP JUMPDEST SWAP2 POP DUP3 DUP3 DIV DUP5 EQ DUP4 ISZERO OR PUSH2 0x24A6 JUMPI PUSH2 0x24A5 PUSH2 0x23F8 JUMP JUMPDEST JUMPDEST POP SWAP3 SWAP2 POP POP JUMP JUMPDEST PUSH32 0x4E487B7100000000000000000000000000000000000000000000000000000000 PUSH0 MSTORE PUSH1 0x12 PUSH1 0x4 MSTORE PUSH1 0x24 PUSH0 REVERT JUMPDEST PUSH0 PUSH2 0x24E4 DUP3 PUSH2 0x1CB5 JUMP JUMPDEST SWAP2 POP PUSH2 0x24EF DUP4 PUSH2 0x1CB5 JUMP JUMPDEST SWAP3 POP DUP3 PUSH2 0x24FF JUMPI PUSH2 0x24FE PUSH2 0x24AD JUMP JUMPDEST JUMPDEST DUP3 DUP3 DIV SWAP1 POP SWAP3 SWAP2 POP POP JUMP JUMPDEST PUSH0 PUSH2 0x2514 DUP3 PUSH2 0x1CB5 JUMP JUMPDEST SWAP2 POP PUSH2 0x251F DUP4 PUSH2 0x1CB5 JUMP JUMPDEST SWAP3 POP DUP3 DUP3 ADD SWAP1 POP DUP1 DUP3 GT ISZERO PUSH2 0x2537 JUMPI PUSH2 0x2536 PUSH2 0x23F8 JUMP JUMPDEST JUMPDEST SWAP3 SWAP2 POP POP JUMP JUMPDEST PUSH0 DUP2 MLOAD SWAP1 POP PUSH2 0x254B DUP2 PUSH2 0x1CBE JUMP JUMPDEST SWAP3 SWAP2 POP POP JUMP JUMPDEST PUSH0 PUSH1 0x20 DUP3 DUP5 SUB SLT ISZERO PUSH2 0x2566 JUMPI PUSH2 0x2565 PUSH2 0x1C57 JUMP JUMPDEST JUMPDEST PUSH0 PUSH2 0x2573 DUP5 DUP3 DUP6 ADD PUSH2 0x253D JUMP JUMPDEST SWAP2 POP POP SWAP3 SWAP2 POP POP JUMP JUMPDEST PUSH32 0x496E73756666696369656E7420636F6E74726163742062616C616E6365000000 PUSH0 DUP3 ADD MSTORE POP JUMP JUMPDEST PUSH0 PUSH2 0x25B0 PUSH1 0x1D DUP4 PUSH2 0x1F44 JUMP JUMPDEST SWAP2 POP PUSH2 0x25BB DUP3 PUSH2 0x257C JUMP JUMPDEST PUSH1 0x20 DUP3 ADD SWAP1 POP SWAP2 SWAP1 POP JUMP JUMPDEST PUSH0 PUSH1 0x20 DUP3 ADD SWAP1 POP DUP2 DUP2 SUB PUSH0 DUP4 ADD MSTORE PUSH2 0x25DD DUP2 PUSH2 0x25A4 JUMP JUMPDEST SWAP1 POP SWAP2 SWAP1 POP JUMP JUMPDEST PUSH0 PUSH1 0x40 DUP3 ADD SWAP1 POP PUSH2 0x25F7 PUSH0 DUP4 ADD DUP6 PUSH2 0x1D26 JUMP JUMPDEST PUSH2 0x2604 PUSH1 0x20 DUP4 ADD DUP5 PUSH2 0x1D35 JUMP JUMPDEST SWAP4 SWAP3 POP POP POP JUMP JUMPDEST PUSH32 0x44697265637420726566657272616C207472616E73666572206661696C656400 PUSH0 DUP3 ADD MSTORE POP JUMP JUMPDEST PUSH0 PUSH2 0x263F PUSH1 0x1F DUP4 PUSH2 0x1F44 JUMP JUMPDEST SWAP2 POP PUSH2 0x264A DUP3 PUSH2 0x260B JUMP JUMPDEST PUSH1 0x20 DUP3 ADD SWAP1 POP SWAP2 SWAP1 POP JUMP JUMPDEST PUSH0 PUSH1 0x20 DUP3 ADD SWAP1 POP DUP2 DUP2 SUB PUSH0 DUP4 ADD MSTORE PUSH2 0x266C DUP2 PUSH2 0x2633 JUMP JUMPDEST SWAP1 POP SWAP2 SWAP1 POP JUMP JUMPDEST PUSH32 0x4C6576656C203120726577617264207472616E73666572206661696C65640000 PUSH0 DUP3 ADD MSTORE POP JUMP JUMPDEST PUSH0 PUSH2 0x26A7 PUSH1 0x1E DUP4 PUSH2 0x1F44 JUMP JUMPDEST SWAP2 POP PUSH2 0x26B2 DUP3 PUSH2 0x2673 JUMP JUMPDEST PUSH1 0x20 DUP3 ADD SWAP1 POP SWAP2 SWAP1 POP JUMP JUMPDEST PUSH0 PUSH1 0x20 DUP3 ADD SWAP1 POP DUP2 DUP2 SUB PUSH0 DUP4 ADD MSTORE PUSH2 0x26D4 DUP2 PUSH2 0x269B JUMP JUMPDEST SWAP1 POP SWAP2 SWAP1 POP JUMP JUMPDEST PUSH32 0x4E487B7100000000000000000000000000000000000000000000000000000000 PUSH0 MSTORE PUSH1 0x32 PUSH1 0x4 MSTORE PUSH1 0x24 PUSH0 REVERT JUMPDEST PUSH32 0x4C6576656C20726577617264207472616E73666572206661696C656400000000 PUSH0 DUP3 ADD MSTORE POP JUMP JUMPDEST PUSH0 PUSH2 0x273C PUSH1 0x1C DUP4 PUSH2 0x1F44 JUMP JUMPDEST SWAP2 POP PUSH2 0x2747 DUP3 PUSH2 0x2708 JUMP JUMPDEST PUSH1 0x20 DUP3 ADD SWAP1 POP SWAP2 SWAP1 POP JUMP JUMPDEST PUSH0 PUSH1 0x20 DUP3 ADD SWAP1 POP DUP2 DUP2 SUB PUSH0 DUP4 ADD MSTORE PUSH2 0x2769 DUP2 PUSH2 0x2730 JUMP JUMPDEST SWAP1 POP SWAP2 SWAP1 POP JUMP JUMPDEST PUSH0 PUSH2 0x277A DUP3 PUSH2 0x1F10 JUMP JUMPDEST SWAP2 POP PUSH1 0xFF DUP3 SUB PUSH2 0x278D JUMPI PUSH2 0x278C PUSH2 0x23F8 JUMP JUMPDEST JUMPDEST PUSH1 0x1 DUP3 ADD SWAP1 POP SWAP2 SWAP1 POP JUMP JUMPDEST PUSH32 0x4F6E6C79206F776E65722063616E2063616C6C20746869730000000000000000 PUSH0 DUP3 ADD MSTORE POP JUMP JUMPDEST PUSH0 PUSH2 0x27CC PUSH1 0x18 DUP4 PUSH2 0x1F44 JUMP JUMPDEST SWAP2 POP PUSH2 0x27D7 DUP3 PUSH2 0x2798 JUMP JUMPDEST PUSH1 0x20 DUP3 ADD SWAP1 POP SWAP2 SWAP1 POP JUMP JUMPDEST PUSH0 PUSH1 0x20 DUP3 ADD SWAP1 POP DUP2 DUP2 SUB PUSH0 DUP4 ADD MSTORE PUSH2 0x27F9 DUP2 PUSH2 0x27C0 JUMP JUMPDEST SWAP1 POP SWAP2 SWAP1 POP JUMP JUMPDEST PUSH32 0x4E6577206F776E657220697320746865207A65726F2061646472657373000000 PUSH0 DUP3 ADD MSTORE POP JUMP JUMPDEST PUSH0 PUSH2 0x2834 PUSH1 0x1D DUP4 PUSH2 0x1F44 JUMP JUMPDEST SWAP2 POP PUSH2 0x283F DUP3 PUSH2 0x2800 JUMP JUMPDEST PUSH1 0x20 DUP3 ADD SWAP1 POP SWAP2 SWAP1 POP JUMP JUMPDEST PUSH0 PUSH1 0x20 DUP3 ADD SWAP1 POP DUP2 DUP2 SUB PUSH0 DUP4 ADD MSTORE PUSH2 0x2861 DUP2 PUSH2 0x2828 JUMP JUMPDEST SWAP1 POP SWAP2 SWAP1 POP JUMP JUMPDEST PUSH32 0x4E6577206F776E6572206973207468652073616D652061732063757272656E74 PUSH0 DUP3 ADD MSTORE PUSH32 0x206F776E65720000000000000000000000000000000000000000000000000000 PUSH1 0x20 DUP3 ADD MSTORE POP JUMP JUMPDEST PUSH0 PUSH2 0x28C2 PUSH1 0x26 DUP4 PUSH2 0x1F44 JUMP JUMPDEST SWAP2 POP PUSH2 0x28CD DUP3 PUSH2 0x2868 JUMP JUMPDEST PUSH1 0x40 DUP3 ADD SWAP1 POP SWAP2 SWAP1 POP JUMP JUMPDEST PUSH0 PUSH1 0x20 DUP3 ADD SWAP1 POP DUP2 DUP2 SUB PUSH0 DUP4 ADD MSTORE PUSH2 0x28EF DUP2 PUSH2 0x28B6 JUMP JUMPDEST SWAP1 POP SWAP2 SWAP1 POP JUMP INVALID LOG2 PUSH5 0x6970667358 0x22 SLT KECCAK256 BASEFEE DUP2 0xC3 0xFC SWAP1 0xC0 0xD6 CALLER SWAP4 ADDMOD 0xC6 0xD7 0xBE DUP6 0xD0 0xC TLOAD SAR 0xA7 0x4C GASPRICE PUSH13 0x1F66D043B4A560163A8464736F PUSH13 0x63430008190033000000000000 "
				},
				"gasEstimates": {
					"creation": {
						"codeDepositCost": "2108000",
						"executionCost": "infinite",
						"totalCost": "infinite"
					},
					"external": {
						"allUsers(uint256)": "4967",
						"directReferralIncome(address)": "2868",
						"directReferrals(address,uint256)": "infinite",
						"levelRewards(uint256)": "4401",
						"owner()": "2616",
						"positionIdToUser(uint256)": "2850",
						"register(address)": "180459",
						"stake(uint256,uint256)": "infinite",
						"stakeCounter()": "2513",
						"stakingAPY(uint256)": "infinite",
						"transferOwnership(address)": "108000",
						"usdtToken()": "infinite",
						"users(address)": "infinite"
					}
				},
				"methodIdentifiers": {
					"allUsers(uint256)": "a2bdedf4",
					"directReferralIncome(address)": "f6e88873",
					"directReferrals(address,uint256)": "05ad3935",
					"levelRewards(uint256)": "e45a57d0",
					"owner()": "8da5cb5b",
					"positionIdToUser(uint256)": "1e43eb27",
					"register(address)": "4420e486",
					"stake(uint256,uint256)": "7b0472f0",
					"stakeCounter()": "f7b17d10",
					"stakingAPY(uint256)": "875bb4e2",
					"transferOwnership(address)": "f2fde38b",
					"usdtToken()": "a98ad46c",
					"users(address)": "a87430ba"
				}
			},
			"storageLayout": {
				"storage": [
					{
						"astId": 31,
						"contract": "contracts/1_Storage.sol:SikkaStakingDecentralize",
						"label": "owner",
						"offset": 0,
						"slot": "0",
						"type": "t_address"
					},
					{
						"astId": 33,
						"contract": "contracts/1_Storage.sol:SikkaStakingDecentralize",
						"label": "stakeCounter",
						"offset": 0,
						"slot": "1",
						"type": "t_uint256"
					},
					{
						"astId": 36,
						"contract": "contracts/1_Storage.sol:SikkaStakingDecentralize",
						"label": "usdtToken",
						"offset": 0,
						"slot": "2",
						"type": "t_contract(IERC20)29"
					},
					{
						"astId": 149,
						"contract": "contracts/1_Storage.sol:SikkaStakingDecentralize",
						"label": "users",
						"offset": 0,
						"slot": "3",
						"type": "t_mapping(t_address,t_struct(User)129_storage)"
					},
					{
						"astId": 155,
						"contract": "contracts/1_Storage.sol:SikkaStakingDecentralize",
						"label": "directReferrals",
						"offset": 0,
						"slot": "4",
						"type": "t_mapping(t_address,t_array(t_struct(ReferralInfo)116_storage)dyn_storage)"
					},
					{
						"astId": 159,
						"contract": "contracts/1_Storage.sol:SikkaStakingDecentralize",
						"label": "positionIdToUser",
						"offset": 0,
						"slot": "5",
						"type": "t_mapping(t_uint256,t_address)"
					},
					{
						"astId": 163,
						"contract": "contracts/1_Storage.sol:SikkaStakingDecentralize",
						"label": "stakingAPY",
						"offset": 0,
						"slot": "6",
						"type": "t_mapping(t_uint256,t_uint256)"
					},
					{
						"astId": 167,
						"contract": "contracts/1_Storage.sol:SikkaStakingDecentralize",
						"label": "directReferralIncome",
						"offset": 0,
						"slot": "7",
						"type": "t_mapping(t_address,t_uint256)"
					},
					{
						"astId": 170,
						"contract": "contracts/1_Storage.sol:SikkaStakingDecentralize",
						"label": "allUsers",
						"offset": 0,
						"slot": "8",
						"type": "t_array(t_address)dyn_storage"
					},
					{
						"astId": 180,
						"contract": "contracts/1_Storage.sol:SikkaStakingDecentralize",
						"label": "levelRewards",
						"offset": 0,
						"slot": "9",
						"type": "t_array(t_uint8)5_storage"
					}
				],
				"types": {
					"t_address": {
						"encoding": "inplace",
						"label": "address",
						"numberOfBytes": "20"
					},
					"t_array(t_address)dyn_storage": {
						"base": "t_address",
						"encoding": "dynamic_array",
						"label": "address[]",
						"numberOfBytes": "32"
					},
					"t_array(t_struct(ReferralInfo)116_storage)dyn_storage": {
						"base": "t_struct(ReferralInfo)116_storage",
						"encoding": "dynamic_array",
						"label": "struct SikkaStakingDecentralize.ReferralInfo[]",
						"numberOfBytes": "32"
					},
					"t_array(t_struct(Stake)109_storage)dyn_storage": {
						"base": "t_struct(Stake)109_storage",
						"encoding": "dynamic_array",
						"label": "struct SikkaStakingDecentralize.Stake[]",
						"numberOfBytes": "32"
					},
					"t_array(t_uint8)5_storage": {
						"base": "t_uint8",
						"encoding": "inplace",
						"label": "uint8[5]",
						"numberOfBytes": "32"
					},
					"t_bool": {
						"encoding": "inplace",
						"label": "bool",
						"numberOfBytes": "1"
					},
					"t_contract(IERC20)29": {
						"encoding": "inplace",
						"label": "contract IERC20",
						"numberOfBytes": "20"
					},
					"t_mapping(t_address,t_array(t_struct(ReferralInfo)116_storage)dyn_storage)": {
						"encoding": "mapping",
						"key": "t_address",
						"label": "mapping(address => struct SikkaStakingDecentralize.ReferralInfo[])",
						"numberOfBytes": "32",
						"value": "t_array(t_struct(ReferralInfo)116_storage)dyn_storage"
					},
					"t_mapping(t_address,t_struct(User)129_storage)": {
						"encoding": "mapping",
						"key": "t_address",
						"label": "mapping(address => struct SikkaStakingDecentralize.User)",
						"numberOfBytes": "32",
						"value": "t_struct(User)129_storage"
					},
					"t_mapping(t_address,t_uint256)": {
						"encoding": "mapping",
						"key": "t_address",
						"label": "mapping(address => uint256)",
						"numberOfBytes": "32",
						"value": "t_uint256"
					},
					"t_mapping(t_uint256,t_address)": {
						"encoding": "mapping",
						"key": "t_uint256",
						"label": "mapping(uint256 => address)",
						"numberOfBytes": "32",
						"value": "t_address"
					},
					"t_mapping(t_uint256,t_uint256)": {
						"encoding": "mapping",
						"key": "t_uint256",
						"label": "mapping(uint256 => uint256)",
						"numberOfBytes": "32",
						"value": "t_uint256"
					},
					"t_struct(ReferralInfo)116_storage": {
						"encoding": "inplace",
						"label": "struct SikkaStakingDecentralize.ReferralInfo",
						"members": [
							{
								"astId": 111,
								"contract": "contracts/1_Storage.sol:SikkaStakingDecentralize",
								"label": "referralAddress",
								"offset": 0,
								"slot": "0",
								"type": "t_address"
							},
							{
								"astId": 113,
								"contract": "contracts/1_Storage.sol:SikkaStakingDecentralize",
								"label": "incomeEarned",
								"offset": 0,
								"slot": "1",
								"type": "t_uint256"
							},
							{
								"astId": 115,
								"contract": "contracts/1_Storage.sol:SikkaStakingDecentralize",
								"label": "timestamp",
								"offset": 0,
								"slot": "2",
								"type": "t_uint256"
							}
						],
						"numberOfBytes": "96"
					},
					"t_struct(Stake)109_storage": {
						"encoding": "inplace",
						"label": "struct SikkaStakingDecentralize.Stake",
						"members": [
							{
								"astId": 98,
								"contract": "contracts/1_Storage.sol:SikkaStakingDecentralize",
								"label": "stakeId",
								"offset": 0,
								"slot": "0",
								"type": "t_uint256"
							},
							{
								"astId": 100,
								"contract": "contracts/1_Storage.sol:SikkaStakingDecentralize",
								"label": "positionId",
								"offset": 0,
								"slot": "1",
								"type": "t_uint256"
							},
							{
								"astId": 102,
								"contract": "contracts/1_Storage.sol:SikkaStakingDecentralize",
								"label": "amount",
								"offset": 0,
								"slot": "2",
								"type": "t_uint256"
							},
							{
								"astId": 104,
								"contract": "contracts/1_Storage.sol:SikkaStakingDecentralize",
								"label": "timestamp",
								"offset": 0,
								"slot": "3",
								"type": "t_uint256"
							},
							{
								"astId": 106,
								"contract": "contracts/1_Storage.sol:SikkaStakingDecentralize",
								"label": "numDays",
								"offset": 0,
								"slot": "4",
								"type": "t_uint256"
							},
							{
								"astId": 108,
								"contract": "contracts/1_Storage.sol:SikkaStakingDecentralize",
								"label": "claimed",
								"offset": 0,
								"slot": "5",
								"type": "t_bool"
							}
						],
						"numberOfBytes": "192"
					},
					"t_struct(User)129_storage": {
						"encoding": "inplace",
						"label": "struct SikkaStakingDecentralize.User",
						"members": [
							{
								"astId": 118,
								"contract": "contracts/1_Storage.sol:SikkaStakingDecentralize",
								"label": "referrer",
								"offset": 0,
								"slot": "0",
								"type": "t_address"
							},
							{
								"astId": 122,
								"contract": "contracts/1_Storage.sol:SikkaStakingDecentralize",
								"label": "stakes",
								"offset": 0,
								"slot": "1",
								"type": "t_array(t_struct(Stake)109_storage)dyn_storage"
							},
							{
								"astId": 124,
								"contract": "contracts/1_Storage.sol:SikkaStakingDecentralize",
								"label": "totalIncome",
								"offset": 0,
								"slot": "2",
								"type": "t_uint256"
							},
							{
								"astId": 126,
								"contract": "contracts/1_Storage.sol:SikkaStakingDecentralize",
								"label": "levelIncome",
								"offset": 0,
								"slot": "3",
								"type": "t_uint256"
							},
							{
								"astId": 128,
								"contract": "contracts/1_Storage.sol:SikkaStakingDecentralize",
								"label": "registered",
								"offset": 0,
								"slot": "4",
								"type": "t_bool"
							}
						],
						"numberOfBytes": "160"
					},
					"t_uint256": {
						"encoding": "inplace",
						"label": "uint256",
						"numberOfBytes": "32"
					},
					"t_uint8": {
						"encoding": "inplace",
						"label": "uint8",
						"numberOfBytes": "1"
					}
				}
			},
			"userdoc": {
				"kind": "user",
				"methods": {},
				"version": 1
			}
		}
	}
}