{
	"contracts/sikkacoin.sol": {
		"MLMStaking": {
			"abi": [
				{
					"inputs": [
						{
							"internalType": "address",
							"name": "_owner",
							"type": "address"
						},
						{
							"internalType": "address",
							"name": "_tokenAddress",
							"type": "address"
						}
					],
					"stateMutability": "nonpayable",
					"type": "constructor"
				},
				{
					"anonymous": false,
					"inputs": [
						{
							"indexed": true,
							"internalType": "address",
							"name": "user",
							"type": "address"
						},
						{
							"indexed": true,
							"internalType": "uint256",
							"name": "positionId",
							"type": "uint256"
						},
						{
							"indexed": false,
							"internalType": "uint256",
							"name": "amount",
							"type": "uint256"
						},
						{
							"indexed": false,
							"internalType": "uint256",
							"name": "reward",
							"type": "uint256"
						}
					],
					"name": "Claimed",
					"type": "event"
				},
				{
					"anonymous": false,
					"inputs": [
						{
							"indexed": true,
							"internalType": "address",
							"name": "user",
							"type": "address"
						},
						{
							"indexed": true,
							"internalType": "address",
							"name": "referrer",
							"type": "address"
						}
					],
					"name": "Registered",
					"type": "event"
				},
				{
					"anonymous": false,
					"inputs": [
						{
							"indexed": true,
							"internalType": "address",
							"name": "user",
							"type": "address"
						},
						{
							"indexed": true,
							"internalType": "uint256",
							"name": "stakeId",
							"type": "uint256"
						},
						{
							"indexed": true,
							"internalType": "uint256",
							"name": "positionId",
							"type": "uint256"
						},
						{
							"indexed": false,
							"internalType": "uint256",
							"name": "amount",
							"type": "uint256"
						},
						{
							"indexed": false,
							"internalType": "uint256",
							"name": "timestamp",
							"type": "uint256"
						}
					],
					"name": "Staked",
					"type": "event"
				},
				{
					"inputs": [
						{
							"internalType": "uint256",
							"name": "_positionId",
							"type": "uint256"
						}
					],
					"name": "claim",
					"outputs": [],
					"stateMutability": "nonpayable",
					"type": "function"
				},
				{
					"inputs": [
						{
							"internalType": "address",
							"name": "",
							"type": "address"
						}
					],
					"name": "directReferralCount",
					"outputs": [
						{
							"internalType": "uint256",
							"name": "",
							"type": "uint256"
						}
					],
					"stateMutability": "view",
					"type": "function"
				},
				{
					"inputs": [
						{
							"internalType": "address",
							"name": "",
							"type": "address"
						}
					],
					"name": "directReferralIncome",
					"outputs": [
						{
							"internalType": "uint256",
							"name": "",
							"type": "uint256"
						}
					],
					"stateMutability": "view",
					"type": "function"
				},
				{
					"inputs": [
						{
							"internalType": "address",
							"name": "user",
							"type": "address"
						}
					],
					"name": "getDirectReferralCount",
					"outputs": [
						{
							"internalType": "uint256",
							"name": "",
							"type": "uint256"
						}
					],
					"stateMutability": "view",
					"type": "function"
				},
				{
					"inputs": [
						{
							"internalType": "address",
							"name": "user",
							"type": "address"
						}
					],
					"name": "getDirectReferralIncome",
					"outputs": [
						{
							"internalType": "uint256",
							"name": "",
							"type": "uint256"
						}
					],
					"stateMutability": "view",
					"type": "function"
				},
				{
					"inputs": [
						{
							"internalType": "uint256",
							"name": "amount",
							"type": "uint256"
						},
						{
							"internalType": "uint256",
							"name": "numDays",
							"type": "uint256"
						}
					],
					"name": "getEstimatedReturn",
					"outputs": [
						{
							"internalType": "uint256",
							"name": "reward",
							"type": "uint256"
						}
					],
					"stateMutability": "view",
					"type": "function"
				},
				{
					"inputs": [
						{
							"internalType": "address",
							"name": "_user",
							"type": "address"
						}
					],
					"name": "getPositionIds",
					"outputs": [
						{
							"internalType": "uint256[]",
							"name": "",
							"type": "uint256[]"
						}
					],
					"stateMutability": "view",
					"type": "function"
				},
				{
					"inputs": [
						{
							"internalType": "uint256",
							"name": "_positionId",
							"type": "uint256"
						}
					],
					"name": "getStakeByPositionId",
					"outputs": [
						{
							"internalType": "address",
							"name": "user",
							"type": "address"
						},
						{
							"internalType": "uint256",
							"name": "stakeId",
							"type": "uint256"
						},
						{
							"internalType": "uint256",
							"name": "amount",
							"type": "uint256"
						},
						{
							"internalType": "uint256",
							"name": "timestamp",
							"type": "uint256"
						},
						{
							"internalType": "uint256",
							"name": "numDays",
							"type": "uint256"
						},
						{
							"internalType": "bool",
							"name": "claimed",
							"type": "bool"
						}
					],
					"stateMutability": "view",
					"type": "function"
				},
				{
					"inputs": [
						{
							"internalType": "uint256",
							"name": "_positionId",
							"type": "uint256"
						}
					],
					"name": "getStakeDailyReward",
					"outputs": [
						{
							"internalType": "uint256",
							"name": "principal",
							"type": "uint256"
						},
						{
							"internalType": "uint256",
							"name": "apy",
							"type": "uint256"
						},
						{
							"internalType": "uint256",
							"name": "perDayReward",
							"type": "uint256"
						},
						{
							"internalType": "uint256",
							"name": "totalExpectedReward",
							"type": "uint256"
						},
						{
							"internalType": "uint256",
							"name": "durationInDays",
							"type": "uint256"
						}
					],
					"stateMutability": "view",
					"type": "function"
				},
				{
					"inputs": [
						{
							"internalType": "address",
							"name": "user",
							"type": "address"
						}
					],
					"name": "getTotalIncome",
					"outputs": [
						{
							"internalType": "uint256",
							"name": "",
							"type": "uint256"
						}
					],
					"stateMutability": "view",
					"type": "function"
				},
				{
					"inputs": [
						{
							"internalType": "address",
							"name": "user",
							"type": "address"
						}
					],
					"name": "getUserLevel",
					"outputs": [
						{
							"internalType": "uint256",
							"name": "",
							"type": "uint256"
						}
					],
					"stateMutability": "view",
					"type": "function"
				},
				{
					"inputs": [
						{
							"internalType": "address",
							"name": "user",
							"type": "address"
						}
					],
					"name": "isRegistered",
					"outputs": [
						{
							"internalType": "bool",
							"name": "",
							"type": "bool"
						}
					],
					"stateMutability": "view",
					"type": "function"
				},
				{
					"inputs": [
						{
							"internalType": "uint256",
							"name": "",
							"type": "uint256"
						}
					],
					"name": "levelRewards",
					"outputs": [
						{
							"internalType": "uint8",
							"name": "",
							"type": "uint8"
						}
					],
					"stateMutability": "view",
					"type": "function"
				},
				{
					"inputs": [],
					"name": "nextPositionId",
					"outputs": [
						{
							"internalType": "uint256",
							"name": "",
							"type": "uint256"
						}
					],
					"stateMutability": "view",
					"type": "function"
				},
				{
					"inputs": [],
					"name": "nextStakeId",
					"outputs": [
						{
							"internalType": "uint256",
							"name": "",
							"type": "uint256"
						}
					],
					"stateMutability": "view",
					"type": "function"
				},
				{
					"inputs": [],
					"name": "owner",
					"outputs": [
						{
							"internalType": "address",
							"name": "",
							"type": "address"
						}
					],
					"stateMutability": "view",
					"type": "function"
				},
				{
					"inputs": [
						{
							"internalType": "uint256",
							"name": "",
							"type": "uint256"
						}
					],
					"name": "positionIdToUser",
					"outputs": [
						{
							"internalType": "address",
							"name": "",
							"type": "address"
						}
					],
					"stateMutability": "view",
					"type": "function"
				},
				{
					"inputs": [
						{
							"internalType": "address",
							"name": "_referrer",
							"type": "address"
						}
					],
					"name": "register",
					"outputs": [],
					"stateMutability": "nonpayable",
					"type": "function"
				},
				{
					"inputs": [
						{
							"internalType": "uint256",
							"name": "numDays",
							"type": "uint256"
						},
						{
							"internalType": "uint256",
							"name": "amount",
							"type": "uint256"
						}
					],
					"name": "stake",
					"outputs": [],
					"stateMutability": "nonpayable",
					"type": "function"
				},
				{
					"inputs": [
						{
							"internalType": "uint256",
							"name": "",
							"type": "uint256"
						}
					],
					"name": "stakingAPY",
					"outputs": [
						{
							"internalType": "uint256",
							"name": "",
							"type": "uint256"
						}
					],
					"stateMutability": "view",
					"type": "function"
				},
				{
					"inputs": [],
					"name": "token",
					"outputs": [
						{
							"internalType": "contract IERC20",
							"name": "",
							"type": "address"
						}
					],
					"stateMutability": "view",
					"type": "function"
				},
				{
					"inputs": [
						{
							"internalType": "address",
							"name": "",
							"type": "address"
						}
					],
					"name": "totalIncome",
					"outputs": [
						{
							"internalType": "uint256",
							"name": "",
							"type": "uint256"
						}
					],
					"stateMutability": "view",
					"type": "function"
				},
				{
					"inputs": [
						{
							"internalType": "address",
							"name": "",
							"type": "address"
						}
					],
					"name": "users",
					"outputs": [
						{
							"internalType": "address",
							"name": "referrer",
							"type": "address"
						},
						{
							"internalType": "bool",
							"name": "registered",
							"type": "bool"
						}
					],
					"stateMutability": "view",
					"type": "function"
				},
				{
					"inputs": [
						{
							"internalType": "uint256",
							"name": "amount",
							"type": "uint256"
						}
					],
					"name": "withdraw",
					"outputs": [],
					"stateMutability": "nonpayable",
					"type": "function"
				}
			],
			"devdoc": {
				"kind": "dev",
				"methods": {},
				"version": 1
			},
			"evm": {
				"assembly": "    /* \"contracts/sikkacoin.sol\":575:9133  contract MLMStaking {... */\n  mstore(0x40, 0x80)\n    /* \"contracts/sikkacoin.sol\":1053:1097  uint8[5] public levelRewards = [5, 3, 2,1,1] */\n  mload(0x40)\n  dup1\n  0xa0\n  add\n  0x40\n  mstore\n  dup1\n    /* \"contracts/sikkacoin.sol\":1085:1086  5 */\n  0x05\n    /* \"contracts/sikkacoin.sol\":1053:1097  uint8[5] public levelRewards = [5, 3, 2,1,1] */\n  0xff\n  and\n  dup2\n  mstore\n  0x20\n  add\n    /* \"contracts/sikkacoin.sol\":1088:1089  3 */\n  0x03\n    /* \"contracts/sikkacoin.sol\":1053:1097  uint8[5] public levelRewards = [5, 3, 2,1,1] */\n  0xff\n  and\n  dup2\n  mstore\n  0x20\n  add\n    /* \"contracts/sikkacoin.sol\":1091:1092  2 */\n  0x02\n    /* \"contracts/sikkacoin.sol\":1053:1097  uint8[5] public levelRewards = [5, 3, 2,1,1] */\n  0xff\n  and\n  dup2\n  mstore\n  0x20\n  add\n    /* \"contracts/sikkacoin.sol\":1093:1094  1 */\n  0x01\n    /* \"contracts/sikkacoin.sol\":1053:1097  uint8[5] public levelRewards = [5, 3, 2,1,1] */\n  0xff\n  and\n  dup2\n  mstore\n  0x20\n  add\n    /* \"contracts/sikkacoin.sol\":1095:1096  1 */\n  0x01\n    /* \"contracts/sikkacoin.sol\":1053:1097  uint8[5] public levelRewards = [5, 3, 2,1,1] */\n  0xff\n  and\n  dup2\n  mstore\n  pop\n  0x04\n  swap1\n  0x05\n  tag_1\n  swap3\n  swap2\n  swap1\n  tag_2\n  jump\t// in\ntag_1:\n  pop\n    /* \"contracts/sikkacoin.sol\":1711:2148  constructor(address _owner, address _tokenAddress) {... */\n  callvalue\n  dup1\n  iszero\n  tag_3\n  jumpi\n  0x00\n  dup1\n  revert\ntag_3:\n  pop\n  mload(0x40)\n  sub(codesize, bytecodeSize)\n  dup1\n  bytecodeSize\n  dup4\n  codecopy\n  dup2\n  dup2\n  add\n  0x40\n  mstore\n  dup2\n  add\n  swap1\n  tag_4\n  swap2\n  swap1\n  tag_5\n  jump\t// in\ntag_4:\n    /* \"contracts/sikkacoin.sol\":1799:1800  0 */\n  0x00\n    /* \"contracts/sikkacoin.sol\":1781:1801  _owner != address(0) */\n  0xffffffffffffffffffffffffffffffffffffffff\n  and\n    /* \"contracts/sikkacoin.sol\":1781:1787  _owner */\n  dup3\n    /* \"contracts/sikkacoin.sol\":1781:1801  _owner != address(0) */\n  0xffffffffffffffffffffffffffffffffffffffff\n  and\n  sub\n    /* \"contracts/sikkacoin.sol\":1773:1834  require(_owner != address(0), \"Owner address cannot be zero\") */\n  tag_8\n  jumpi\n  mload(0x40)\n  0x08c379a000000000000000000000000000000000000000000000000000000000\n  dup2\n  mstore\n  0x04\n  add\n  tag_9\n  swap1\n  tag_10\n  jump\t// in\ntag_9:\n  mload(0x40)\n  dup1\n  swap2\n  sub\n  swap1\n  revert\ntag_8:\n    /* \"contracts/sikkacoin.sol\":1878:1879  0 */\n  0x00\n    /* \"contracts/sikkacoin.sol\":1853:1880  _tokenAddress != address(0) */\n  0xffffffffffffffffffffffffffffffffffffffff\n  and\n    /* \"contracts/sikkacoin.sol\":1853:1866  _tokenAddress */\n  dup2\n    /* \"contracts/sikkacoin.sol\":1853:1880  _tokenAddress != address(0) */\n  0xffffffffffffffffffffffffffffffffffffffff\n  and\n  sub\n    /* \"contracts/sikkacoin.sol\":1845:1913  require(_tokenAddress != address(0), \"Token address cannot be zero\") */\n  tag_11\n  jumpi\n  mload(0x40)\n  0x08c379a000000000000000000000000000000000000000000000000000000000\n  dup2\n  mstore\n  0x04\n  add\n  tag_12\n  swap1\n  tag_13\n  jump\t// in\ntag_12:\n  mload(0x40)\n  dup1\n  swap2\n  sub\n  swap1\n  revert\ntag_11:\n    /* \"contracts/sikkacoin.sol\":1932:1938  _owner */\n  dup2\n    /* \"contracts/sikkacoin.sol\":1924:1929  owner */\n  0x00\n  dup1\n    /* \"contracts/sikkacoin.sol\":1924:1938  owner = _owner */\n  0x0100\n  exp\n  dup2\n  sload\n  dup2\n  0xffffffffffffffffffffffffffffffffffffffff\n  mul\n  not\n  and\n  swap1\n  dup4\n  0xffffffffffffffffffffffffffffffffffffffff\n  and\n  mul\n  or\n  swap1\n  sstore\n  pop\n    /* \"contracts/sikkacoin.sol\":1964:1977  _tokenAddress */\n  dup1\n    /* \"contracts/sikkacoin.sol\":1949:1954  token */\n  0x01\n  0x00\n    /* \"contracts/sikkacoin.sol\":1949:1978  token = IERC20(_tokenAddress) */\n  0x0100\n  exp\n  dup2\n  sload\n  dup2\n  0xffffffffffffffffffffffffffffffffffffffff\n  mul\n  not\n  and\n  swap1\n  dup4\n  0xffffffffffffffffffffffffffffffffffffffff\n  and\n  mul\n  or\n  swap1\n  sstore\n  pop\n    /* \"contracts/sikkacoin.sol\":2015:2019  true */\n  0x01\n    /* \"contracts/sikkacoin.sol\":1989:1994  users */\n  0x02\n    /* \"contracts/sikkacoin.sol\":1989:2001  users[owner] */\n  0x00\n    /* \"contracts/sikkacoin.sol\":1995:2000  owner */\n  dup1\n  0x00\n  swap1\n  sload\n  swap1\n  0x0100\n  exp\n  swap1\n  div\n  0xffffffffffffffffffffffffffffffffffffffff\n  and\n    /* \"contracts/sikkacoin.sol\":1989:2001  users[owner] */\n  0xffffffffffffffffffffffffffffffffffffffff\n  and\n  0xffffffffffffffffffffffffffffffffffffffff\n  and\n  dup2\n  mstore\n  0x20\n  add\n  swap1\n  dup2\n  mstore\n  0x20\n  add\n  0x00\n  keccak256\n    /* \"contracts/sikkacoin.sol\":1989:2012  users[owner].registered */\n  0x00\n  add\n  0x14\n    /* \"contracts/sikkacoin.sol\":1989:2019  users[owner].registered = true */\n  0x0100\n  exp\n  dup2\n  sload\n  dup2\n  0xff\n  mul\n  not\n  and\n  swap1\n  dup4\n  iszero\n  iszero\n  mul\n  or\n  swap1\n  sstore\n  pop\n    /* \"contracts/sikkacoin.sol\":2049:2050  1 */\n  0x01\n    /* \"contracts/sikkacoin.sol\":2032:2042  stakingAPY */\n  0x0a\n    /* \"contracts/sikkacoin.sol\":2032:2046  stakingAPY[30] */\n  0x00\n    /* \"contracts/sikkacoin.sol\":2043:2045  30 */\n  0x1e\n    /* \"contracts/sikkacoin.sol\":2032:2046  stakingAPY[30] */\n  dup2\n  mstore\n  0x20\n  add\n  swap1\n  dup2\n  mstore\n  0x20\n  add\n  0x00\n  keccak256\n    /* \"contracts/sikkacoin.sol\":2032:2050  stakingAPY[30] = 1 */\n  dup2\n  swap1\n  sstore\n  pop\n    /* \"contracts/sikkacoin.sol\":2078:2079  3 */\n  0x03\n    /* \"contracts/sikkacoin.sol\":2061:2071  stakingAPY */\n  0x0a\n    /* \"contracts/sikkacoin.sol\":2061:2075  stakingAPY[90] */\n  0x00\n    /* \"contracts/sikkacoin.sol\":2072:2074  90 */\n  0x5a\n    /* \"contracts/sikkacoin.sol\":2061:2075  stakingAPY[90] */\n  dup2\n  mstore\n  0x20\n  add\n  swap1\n  dup2\n  mstore\n  0x20\n  add\n  0x00\n  keccak256\n    /* \"contracts/sikkacoin.sol\":2061:2079  stakingAPY[90] = 3 */\n  dup2\n  swap1\n  sstore\n  pop\n    /* \"contracts/sikkacoin.sol\":2108:2109  6 */\n  0x06\n    /* \"contracts/sikkacoin.sol\":2090:2100  stakingAPY */\n  0x0a\n    /* \"contracts/sikkacoin.sol\":2090:2105  stakingAPY[180] */\n  0x00\n    /* \"contracts/sikkacoin.sol\":2101:2104  180 */\n  0xb4\n    /* \"contracts/sikkacoin.sol\":2090:2105  stakingAPY[180] */\n  dup2\n  mstore\n  0x20\n  add\n  swap1\n  dup2\n  mstore\n  0x20\n  add\n  0x00\n  keccak256\n    /* \"contracts/sikkacoin.sol\":2090:2109  stakingAPY[180] = 6 */\n  dup2\n  swap1\n  sstore\n  pop\n    /* \"contracts/sikkacoin.sol\":2138:2140  12 */\n  0x0c\n    /* \"contracts/sikkacoin.sol\":2120:2130  stakingAPY */\n  0x0a\n    /* \"contracts/sikkacoin.sol\":2120:2135  stakingAPY[365] */\n  0x00\n    /* \"contracts/sikkacoin.sol\":2131:2134  365 */\n  0x016d\n    /* \"contracts/sikkacoin.sol\":2120:2135  stakingAPY[365] */\n  dup2\n  mstore\n  0x20\n  add\n  swap1\n  dup2\n  mstore\n  0x20\n  add\n  0x00\n  keccak256\n    /* \"contracts/sikkacoin.sol\":2120:2140  stakingAPY[365] = 12 */\n  dup2\n  swap1\n  sstore\n  pop\n    /* \"contracts/sikkacoin.sol\":1711:2148  constructor(address _owner, address _tokenAddress) {... */\n  pop\n  pop\n    /* \"contracts/sikkacoin.sol\":575:9133  contract MLMStaking {... */\n  jump(tag_14)\ntag_2:\n  dup3\n  add(0x1f, 0x05)\n  0x20\n  swap1\n  div\n  dup2\n  add\n  swap3\n  dup3\n  iszero\n  tag_15\n  jumpi\n  swap2\n  0x20\n  mul\n  dup3\n  add\n  0x00\ntag_16:\n  dup4\n  dup3\n  gt\n  iszero\n  tag_17\n  jumpi\n  dup4\n  mload\n  dup4\n  dup3\n  0x0100\n  exp\n  dup2\n  sload\n  dup2\n  0xff\n  mul\n  not\n  and\n  swap1\n  dup4\n  0xff\n  and\n  mul\n  or\n  swap1\n  sstore\n  pop\n  swap3\n  0x20\n  add\n  swap3\n  0x01\n  add\n  0x20\n  dup2\n  0x00\n  add\n  div\n  swap3\n  dup4\n  add\n  swap3\n  0x01\n  sub\n  mul\n  jump(tag_16)\ntag_17:\n  dup1\n  iszero\n  tag_18\n  jumpi\n  dup3\n  dup2\n  0x0100\n  exp\n  dup2\n  sload\n  swap1\n  0xff\n  mul\n  not\n  and\n  swap1\n  sstore\n  0x01\n  add\n  0x20\n  dup2\n  0x00\n  add\n  div\n  swap3\n  dup4\n  add\n  swap3\n  0x01\n  sub\n  mul\n  jump(tag_17)\ntag_18:\n  pop\ntag_15:\n  pop\n  swap1\n  pop\n  tag_19\n  swap2\n  swap1\n  tag_20\n  jump\t// in\ntag_19:\n  pop\n  swap1\n  jump\t// out\ntag_20:\ntag_21:\n  dup1\n  dup3\n  gt\n  iszero\n  tag_22\n  jumpi\n  0x00\n  dup2\n  0x00\n  swap1\n  sstore\n  pop\n  0x01\n  add\n  jump(tag_21)\ntag_22:\n  pop\n  swap1\n  jump\t// out\n    /* \"#utility.yul\":88:205   */\ntag_24:\n    /* \"#utility.yul\":197:198   */\n  0x00\n    /* \"#utility.yul\":194:195   */\n  dup1\n    /* \"#utility.yul\":187:199   */\n  revert\n    /* \"#utility.yul\":334:460   */\ntag_26:\n    /* \"#utility.yul\":371:378   */\n  0x00\n    /* \"#utility.yul\":411:453   */\n  0xffffffffffffffffffffffffffffffffffffffff\n    /* \"#utility.yul\":404:409   */\n  dup3\n    /* \"#utility.yul\":400:454   */\n  and\n    /* \"#utility.yul\":389:454   */\n  swap1\n  pop\n    /* \"#utility.yul\":334:460   */\n  swap2\n  swap1\n  pop\n  jump\t// out\n    /* \"#utility.yul\":466:562   */\ntag_27:\n    /* \"#utility.yul\":503:510   */\n  0x00\n    /* \"#utility.yul\":532:556   */\n  tag_41\n    /* \"#utility.yul\":550:555   */\n  dup3\n    /* \"#utility.yul\":532:556   */\n  tag_26\n  jump\t// in\ntag_41:\n    /* \"#utility.yul\":521:556   */\n  swap1\n  pop\n    /* \"#utility.yul\":466:562   */\n  swap2\n  swap1\n  pop\n  jump\t// out\n    /* \"#utility.yul\":568:690   */\ntag_28:\n    /* \"#utility.yul\":641:665   */\n  tag_43\n    /* \"#utility.yul\":659:664   */\n  dup2\n    /* \"#utility.yul\":641:665   */\n  tag_27\n  jump\t// in\ntag_43:\n    /* \"#utility.yul\":634:639   */\n  dup2\n    /* \"#utility.yul\":631:666   */\n  eq\n    /* \"#utility.yul\":621:684   */\n  tag_44\n  jumpi\n    /* \"#utility.yul\":680:681   */\n  0x00\n    /* \"#utility.yul\":677:678   */\n  dup1\n    /* \"#utility.yul\":670:682   */\n  revert\n    /* \"#utility.yul\":621:684   */\ntag_44:\n    /* \"#utility.yul\":568:690   */\n  pop\n  jump\t// out\n    /* \"#utility.yul\":696:839   */\ntag_29:\n    /* \"#utility.yul\":753:758   */\n  0x00\n    /* \"#utility.yul\":784:790   */\n  dup2\n    /* \"#utility.yul\":778:791   */\n  mload\n    /* \"#utility.yul\":769:791   */\n  swap1\n  pop\n    /* \"#utility.yul\":800:833   */\n  tag_46\n    /* \"#utility.yul\":827:832   */\n  dup2\n    /* \"#utility.yul\":800:833   */\n  tag_28\n  jump\t// in\ntag_46:\n    /* \"#utility.yul\":696:839   */\n  swap3\n  swap2\n  pop\n  pop\n  jump\t// out\n    /* \"#utility.yul\":845:1352   */\ntag_5:\n    /* \"#utility.yul\":924:930   */\n  0x00\n    /* \"#utility.yul\":932:938   */\n  dup1\n    /* \"#utility.yul\":981:983   */\n  0x40\n    /* \"#utility.yul\":969:978   */\n  dup4\n    /* \"#utility.yul\":960:967   */\n  dup6\n    /* \"#utility.yul\":956:979   */\n  sub\n    /* \"#utility.yul\":952:984   */\n  slt\n    /* \"#utility.yul\":949:1068   */\n  iszero\n  tag_48\n  jumpi\n    /* \"#utility.yul\":987:1066   */\n  tag_49\n  tag_24\n  jump\t// in\ntag_49:\n    /* \"#utility.yul\":949:1068   */\ntag_48:\n    /* \"#utility.yul\":1107:1108   */\n  0x00\n    /* \"#utility.yul\":1132:1196   */\n  tag_50\n    /* \"#utility.yul\":1188:1195   */\n  dup6\n    /* \"#utility.yul\":1179:1185   */\n  dup3\n    /* \"#utility.yul\":1168:1177   */\n  dup7\n    /* \"#utility.yul\":1164:1186   */\n  add\n    /* \"#utility.yul\":1132:1196   */\n  tag_29\n  jump\t// in\ntag_50:\n    /* \"#utility.yul\":1122:1196   */\n  swap3\n  pop\n    /* \"#utility.yul\":1078:1206   */\n  pop\n    /* \"#utility.yul\":1245:1247   */\n  0x20\n    /* \"#utility.yul\":1271:1335   */\n  tag_51\n    /* \"#utility.yul\":1327:1334   */\n  dup6\n    /* \"#utility.yul\":1318:1324   */\n  dup3\n    /* \"#utility.yul\":1307:1316   */\n  dup7\n    /* \"#utility.yul\":1303:1325   */\n  add\n    /* \"#utility.yul\":1271:1335   */\n  tag_29\n  jump\t// in\ntag_51:\n    /* \"#utility.yul\":1261:1335   */\n  swap2\n  pop\n    /* \"#utility.yul\":1216:1345   */\n  pop\n    /* \"#utility.yul\":845:1352   */\n  swap3\n  pop\n  swap3\n  swap1\n  pop\n  jump\t// out\n    /* \"#utility.yul\":1358:1527   */\ntag_30:\n    /* \"#utility.yul\":1442:1453   */\n  0x00\n    /* \"#utility.yul\":1476:1482   */\n  dup3\n    /* \"#utility.yul\":1471:1474   */\n  dup3\n    /* \"#utility.yul\":1464:1483   */\n  mstore\n    /* \"#utility.yul\":1516:1520   */\n  0x20\n    /* \"#utility.yul\":1511:1514   */\n  dup3\n    /* \"#utility.yul\":1507:1521   */\n  add\n    /* \"#utility.yul\":1492:1521   */\n  swap1\n  pop\n    /* \"#utility.yul\":1358:1527   */\n  swap3\n  swap2\n  pop\n  pop\n  jump\t// out\n    /* \"#utility.yul\":1533:1711   */\ntag_31:\n    /* \"#utility.yul\":1673:1703   */\n  0x4f776e657220616464726573732063616e6e6f74206265207a65726f00000000\n    /* \"#utility.yul\":1669:1670   */\n  0x00\n    /* \"#utility.yul\":1661:1667   */\n  dup3\n    /* \"#utility.yul\":1657:1671   */\n  add\n    /* \"#utility.yul\":1650:1704   */\n  mstore\n    /* \"#utility.yul\":1533:1711   */\n  pop\n  jump\t// out\n    /* \"#utility.yul\":1717:2083   */\ntag_32:\n    /* \"#utility.yul\":1859:1862   */\n  0x00\n    /* \"#utility.yul\":1880:1947   */\n  tag_55\n    /* \"#utility.yul\":1944:1946   */\n  0x1c\n    /* \"#utility.yul\":1939:1942   */\n  dup4\n    /* \"#utility.yul\":1880:1947   */\n  tag_30\n  jump\t// in\ntag_55:\n    /* \"#utility.yul\":1873:1947   */\n  swap2\n  pop\n    /* \"#utility.yul\":1956:2049   */\n  tag_56\n    /* \"#utility.yul\":2045:2048   */\n  dup3\n    /* \"#utility.yul\":1956:2049   */\n  tag_31\n  jump\t// in\ntag_56:\n    /* \"#utility.yul\":2074:2076   */\n  0x20\n    /* \"#utility.yul\":2069:2072   */\n  dup3\n    /* \"#utility.yul\":2065:2077   */\n  add\n    /* \"#utility.yul\":2058:2077   */\n  swap1\n  pop\n    /* \"#utility.yul\":1717:2083   */\n  swap2\n  swap1\n  pop\n  jump\t// out\n    /* \"#utility.yul\":2089:2508   */\ntag_10:\n    /* \"#utility.yul\":2255:2259   */\n  0x00\n    /* \"#utility.yul\":2293:2295   */\n  0x20\n    /* \"#utility.yul\":2282:2291   */\n  dup3\n    /* \"#utility.yul\":2278:2296   */\n  add\n    /* \"#utility.yul\":2270:2296   */\n  swap1\n  pop\n    /* \"#utility.yul\":2342:2351   */\n  dup2\n    /* \"#utility.yul\":2336:2340   */\n  dup2\n    /* \"#utility.yul\":2332:2352   */\n  sub\n    /* \"#utility.yul\":2328:2329   */\n  0x00\n    /* \"#utility.yul\":2317:2326   */\n  dup4\n    /* \"#utility.yul\":2313:2330   */\n  add\n    /* \"#utility.yul\":2306:2353   */\n  mstore\n    /* \"#utility.yul\":2370:2501   */\n  tag_58\n    /* \"#utility.yul\":2496:2500   */\n  dup2\n    /* \"#utility.yul\":2370:2501   */\n  tag_32\n  jump\t// in\ntag_58:\n    /* \"#utility.yul\":2362:2501   */\n  swap1\n  pop\n    /* \"#utility.yul\":2089:2508   */\n  swap2\n  swap1\n  pop\n  jump\t// out\n    /* \"#utility.yul\":2514:2692   */\ntag_33:\n    /* \"#utility.yul\":2654:2684   */\n  0x546f6b656e20616464726573732063616e6e6f74206265207a65726f00000000\n    /* \"#utility.yul\":2650:2651   */\n  0x00\n    /* \"#utility.yul\":2642:2648   */\n  dup3\n    /* \"#utility.yul\":2638:2652   */\n  add\n    /* \"#utility.yul\":2631:2685   */\n  mstore\n    /* \"#utility.yul\":2514:2692   */\n  pop\n  jump\t// out\n    /* \"#utility.yul\":2698:3064   */\ntag_34:\n    /* \"#utility.yul\":2840:2843   */\n  0x00\n    /* \"#utility.yul\":2861:2928   */\n  tag_61\n    /* \"#utility.yul\":2925:2927   */\n  0x1c\n    /* \"#utility.yul\":2920:2923   */\n  dup4\n    /* \"#utility.yul\":2861:2928   */\n  tag_30\n  jump\t// in\ntag_61:\n    /* \"#utility.yul\":2854:2928   */\n  swap2\n  pop\n    /* \"#utility.yul\":2937:3030   */\n  tag_62\n    /* \"#utility.yul\":3026:3029   */\n  dup3\n    /* \"#utility.yul\":2937:3030   */\n  tag_33\n  jump\t// in\ntag_62:\n    /* \"#utility.yul\":3055:3057   */\n  0x20\n    /* \"#utility.yul\":3050:3053   */\n  dup3\n    /* \"#utility.yul\":3046:3058   */\n  add\n    /* \"#utility.yul\":3039:3058   */\n  swap1\n  pop\n    /* \"#utility.yul\":2698:3064   */\n  swap2\n  swap1\n  pop\n  jump\t// out\n    /* \"#utility.yul\":3070:3489   */\ntag_13:\n    /* \"#utility.yul\":3236:3240   */\n  0x00\n    /* \"#utility.yul\":3274:3276   */\n  0x20\n    /* \"#utility.yul\":3263:3272   */\n  dup3\n    /* \"#utility.yul\":3259:3277   */\n  add\n    /* \"#utility.yul\":3251:3277   */\n  swap1\n  pop\n    /* \"#utility.yul\":3323:3332   */\n  dup2\n    /* \"#utility.yul\":3317:3321   */\n  dup2\n    /* \"#utility.yul\":3313:3333   */\n  sub\n    /* \"#utility.yul\":3309:3310   */\n  0x00\n    /* \"#utility.yul\":3298:3307   */\n  dup4\n    /* \"#utility.yul\":3294:3311   */\n  add\n    /* \"#utility.yul\":3287:3334   */\n  mstore\n    /* \"#utility.yul\":3351:3482   */\n  tag_64\n    /* \"#utility.yul\":3477:3481   */\n  dup2\n    /* \"#utility.yul\":3351:3482   */\n  tag_34\n  jump\t// in\ntag_64:\n    /* \"#utility.yul\":3343:3482   */\n  swap1\n  pop\n    /* \"#utility.yul\":3070:3489   */\n  swap2\n  swap1\n  pop\n  jump\t// out\n    /* \"contracts/sikkacoin.sol\":575:9133  contract MLMStaking {... */\ntag_14:\n  dataSize(sub_0)\n  dup1\n  dataOffset(sub_0)\n  0x00\n  codecopy\n  0x00\n  return\nstop\n\nsub_0: assembly {\n        /* \"contracts/sikkacoin.sol\":575:9133  contract MLMStaking {... */\n      mstore(0x40, 0x80)\n      callvalue\n      dup1\n      iszero\n      tag_1\n      jumpi\n      0x00\n      dup1\n      revert\n    tag_1:\n      pop\n      jumpi(tag_2, lt(calldatasize, 0x04))\n      shr(0xe0, calldataload(0x00))\n      dup1\n      0x899346c7\n      gt\n      tag_27\n      jumpi\n      dup1\n      0xbd297178\n      gt\n      tag_28\n      jumpi\n      dup1\n      0xbd297178\n      eq\n      tag_21\n      jumpi\n      dup1\n      0xc2d3c677\n      eq\n      tag_22\n      jumpi\n      dup1\n      0xc3c5a547\n      eq\n      tag_23\n      jumpi\n      dup1\n      0xe45a57d0\n      eq\n      tag_24\n      jumpi\n      dup1\n      0xf6e88873\n      eq\n      tag_25\n      jumpi\n      dup1\n      0xfc0c546a\n      eq\n      tag_26\n      jumpi\n      jump(tag_2)\n    tag_28:\n      dup1\n      0x899346c7\n      eq\n      tag_15\n      jumpi\n      dup1\n      0x8da5cb5b\n      eq\n      tag_16\n      jumpi\n      dup1\n      0x98278efb\n      eq\n      tag_17\n      jumpi\n      dup1\n      0xa87430ba\n      eq\n      tag_18\n      jumpi\n      dup1\n      0xaa7ed462\n      eq\n      tag_19\n      jumpi\n      dup1\n      0xb77b7dc9\n      eq\n      tag_20\n      jumpi\n      jump(tag_2)\n    tag_27:\n      dup1\n      0x4420e486\n      gt\n      tag_29\n      jumpi\n      dup1\n      0x4420e486\n      eq\n      tag_9\n      jumpi\n      dup1\n      0x75506c96\n      eq\n      tag_10\n      jumpi\n      dup1\n      0x797c7f5f\n      eq\n      tag_11\n      jumpi\n      dup1\n      0x7b0472f0\n      eq\n      tag_12\n      jumpi\n      dup1\n      0x862ba05f\n      eq\n      tag_13\n      jumpi\n      dup1\n      0x875bb4e2\n      eq\n      tag_14\n      jumpi\n      jump(tag_2)\n    tag_29:\n      dup1\n      0x1e43eb27\n      eq\n      tag_3\n      jumpi\n      dup1\n      0x21923bde\n      eq\n      tag_4\n      jumpi\n      dup1\n      0x28b496e5\n      eq\n      tag_5\n      jumpi\n      dup1\n      0x28fe7031\n      eq\n      tag_6\n      jumpi\n      dup1\n      0x2e1a7d4d\n      eq\n      tag_7\n      jumpi\n      dup1\n      0x379607f5\n      eq\n      tag_8\n      jumpi\n    tag_2:\n      0x00\n      dup1\n      revert\n        /* \"contracts/sikkacoin.sol\":993:1044  mapping(uint256 => address) public positionIdToUser */\n    tag_3:\n      tag_30\n      0x04\n      dup1\n      calldatasize\n      sub\n      dup2\n      add\n      swap1\n      tag_31\n      swap2\n      swap1\n      tag_32\n      jump\t// in\n    tag_31:\n      tag_33\n      jump\t// in\n    tag_30:\n      mload(0x40)\n      tag_34\n      swap2\n      swap1\n      tag_35\n      jump\t// in\n    tag_34:\n      mload(0x40)\n      dup1\n      swap2\n      sub\n      swap1\n      return\n        /* \"contracts/sikkacoin.sol\":8051:8540  function getUserLevel(address user) external view returns (uint256) {... */\n    tag_4:\n      tag_36\n      0x04\n      dup1\n      calldatasize\n      sub\n      dup2\n      add\n      swap1\n      tag_37\n      swap2\n      swap1\n      tag_38\n      jump\t// in\n    tag_37:\n      tag_39\n      jump\t// in\n    tag_36:\n      mload(0x40)\n      tag_40\n      swap2\n      swap1\n      tag_41\n      jump\t// in\n    tag_40:\n      mload(0x40)\n      dup1\n      swap2\n      sub\n      swap1\n      return\n        /* \"contracts/sikkacoin.sol\":5824:6928  function getStakeDailyReward(uint256 _positionId) external view returns (... */\n    tag_5:\n      tag_42\n      0x04\n      dup1\n      calldatasize\n      sub\n      dup2\n      add\n      swap1\n      tag_43\n      swap2\n      swap1\n      tag_32\n      jump\t// in\n    tag_43:\n      tag_44\n      jump\t// in\n    tag_42:\n      mload(0x40)\n      tag_45\n      swap6\n      swap5\n      swap4\n      swap3\n      swap2\n      swap1\n      tag_46\n      jump\t// in\n    tag_45:\n      mload(0x40)\n      dup1\n      swap2\n      sub\n      swap1\n      return\n        /* \"contracts/sikkacoin.sol\":7673:8043  function getPositionIds(address _user) external view returns (uint256[] memory) {... */\n    tag_6:\n      tag_47\n      0x04\n      dup1\n      calldatasize\n      sub\n      dup2\n      add\n      swap1\n      tag_48\n      swap2\n      swap1\n      tag_38\n      jump\t// in\n    tag_48:\n      tag_49\n      jump\t// in\n    tag_47:\n      mload(0x40)\n      tag_50\n      swap2\n      swap1\n      tag_51\n      jump\t// in\n    tag_50:\n      mload(0x40)\n      dup1\n      swap2\n      sub\n      swap1\n      return\n        /* \"contracts/sikkacoin.sol\":8945:9130  function withdraw(uint256 amount) external {... */\n    tag_7:\n      tag_52\n      0x04\n      dup1\n      calldatasize\n      sub\n      dup2\n      add\n      swap1\n      tag_53\n      swap2\n      swap1\n      tag_32\n      jump\t// in\n    tag_53:\n      tag_54\n      jump\t// in\n    tag_52:\n      stop\n        /* \"contracts/sikkacoin.sol\":4476:5699  function claim(uint256 _positionId) external onlyRegistered {... */\n    tag_8:\n      tag_55\n      0x04\n      dup1\n      calldatasize\n      sub\n      dup2\n      add\n      swap1\n      tag_56\n      swap2\n      swap1\n      tag_32\n      jump\t// in\n    tag_56:\n      tag_57\n      jump\t// in\n    tag_55:\n      stop\n        /* \"contracts/sikkacoin.sol\":2281:2739  function register(address _referrer) external {... */\n    tag_9:\n      tag_58\n      0x04\n      dup1\n      calldatasize\n      sub\n      dup2\n      add\n      swap1\n      tag_59\n      swap2\n      swap1\n      tag_38\n      jump\t// in\n    tag_59:\n      tag_60\n      jump\t// in\n    tag_58:\n      stop\n        /* \"contracts/sikkacoin.sol\":1104:1130  uint256 public nextStakeId */\n    tag_10:\n      tag_61\n      tag_62\n      jump\t// in\n    tag_61:\n      mload(0x40)\n      tag_63\n      swap2\n      swap1\n      tag_41\n      jump\t// in\n    tag_63:\n      mload(0x40)\n      dup1\n      swap2\n      sub\n      swap1\n      return\n        /* \"contracts/sikkacoin.sol\":6936:7665  function getStakeByPositionId(uint256 _positionId) external view returns (... */\n    tag_11:\n      tag_64\n      0x04\n      dup1\n      calldatasize\n      sub\n      dup2\n      add\n      swap1\n      tag_65\n      swap2\n      swap1\n      tag_32\n      jump\t// in\n    tag_65:\n      tag_66\n      jump\t// in\n    tag_64:\n      mload(0x40)\n      tag_67\n      swap7\n      swap6\n      swap5\n      swap4\n      swap3\n      swap2\n      swap1\n      tag_68\n      jump\t// in\n    tag_67:\n      mload(0x40)\n      dup1\n      swap2\n      sub\n      swap1\n      return\n        /* \"contracts/sikkacoin.sol\":2747:4112  function stake(uint256 numDays, uint256 amount) external onlyRegistered {... */\n    tag_12:\n      tag_69\n      0x04\n      dup1\n      calldatasize\n      sub\n      dup2\n      add\n      swap1\n      tag_70\n      swap2\n      swap1\n      tag_71\n      jump\t// in\n    tag_70:\n      tag_72\n      jump\t// in\n    tag_69:\n      stop\n        /* \"contracts/sikkacoin.sol\":1298:1344  mapping(address => uint256) public totalIncome */\n    tag_13:\n      tag_73\n      0x04\n      dup1\n      calldatasize\n      sub\n      dup2\n      add\n      swap1\n      tag_74\n      swap2\n      swap1\n      tag_38\n      jump\t// in\n    tag_74:\n      tag_75\n      jump\t// in\n    tag_73:\n      mload(0x40)\n      tag_76\n      swap2\n      swap1\n      tag_41\n      jump\t// in\n    tag_76:\n      mload(0x40)\n      dup1\n      swap2\n      sub\n      swap1\n      return\n        /* \"contracts/sikkacoin.sol\":1353:1398  mapping(uint256 => uint256) public stakingAPY */\n    tag_14:\n      tag_77\n      0x04\n      dup1\n      calldatasize\n      sub\n      dup2\n      add\n      swap1\n      tag_78\n      swap2\n      swap1\n      tag_32\n      jump\t// in\n    tag_78:\n      tag_79\n      jump\t// in\n    tag_77:\n      mload(0x40)\n      tag_80\n      swap2\n      swap1\n      tag_41\n      jump\t// in\n    tag_80:\n      mload(0x40)\n      dup1\n      swap2\n      sub\n      swap1\n      return\n        /* \"contracts/sikkacoin.sol\":1137:1166  uint256 public nextPositionId */\n    tag_15:\n      tag_81\n      tag_82\n      jump\t// in\n    tag_81:\n      mload(0x40)\n      tag_83\n      swap2\n      swap1\n      tag_41\n      jump\t// in\n    tag_83:\n      mload(0x40)\n      dup1\n      swap2\n      sub\n      swap1\n      return\n        /* \"contracts/sikkacoin.sol\":602:622  address public owner */\n    tag_16:\n      tag_84\n      tag_85\n      jump\t// in\n    tag_84:\n      mload(0x40)\n      tag_86\n      swap2\n      swap1\n      tag_35\n      jump\t// in\n    tag_86:\n      mload(0x40)\n      dup1\n      swap2\n      sub\n      swap1\n      return\n        /* \"contracts/sikkacoin.sol\":8548:8677  function getDirectReferralCount(address user) external view returns (uint256) {... */\n    tag_17:\n      tag_87\n      0x04\n      dup1\n      calldatasize\n      sub\n      dup2\n      add\n      swap1\n      tag_88\n      swap2\n      swap1\n      tag_38\n      jump\t// in\n    tag_88:\n      tag_89\n      jump\t// in\n    tag_87:\n      mload(0x40)\n      tag_90\n      swap2\n      swap1\n      tag_41\n      jump\t// in\n    tag_90:\n      mload(0x40)\n      dup1\n      swap2\n      sub\n      swap1\n      return\n        /* \"contracts/sikkacoin.sol\":949:986  mapping(address => User) public users */\n    tag_18:\n      tag_91\n      0x04\n      dup1\n      calldatasize\n      sub\n      dup2\n      add\n      swap1\n      tag_92\n      swap2\n      swap1\n      tag_38\n      jump\t// in\n    tag_92:\n      tag_93\n      jump\t// in\n    tag_91:\n      mload(0x40)\n      tag_94\n      swap3\n      swap2\n      swap1\n      tag_95\n      jump\t// in\n    tag_94:\n      mload(0x40)\n      dup1\n      swap2\n      sub\n      swap1\n      return\n        /* \"contracts/sikkacoin.sol\":8685:8816  function getDirectReferralIncome(address user) external view returns (uint256) {... */\n    tag_19:\n      tag_96\n      0x04\n      dup1\n      calldatasize\n      sub\n      dup2\n      add\n      swap1\n      tag_97\n      swap2\n      swap1\n      tag_38\n      jump\t// in\n    tag_97:\n      tag_98\n      jump\t// in\n    tag_96:\n      mload(0x40)\n      tag_99\n      swap2\n      swap1\n      tag_41\n      jump\t// in\n    tag_99:\n      mload(0x40)\n      dup1\n      swap2\n      sub\n      swap1\n      return\n        /* \"contracts/sikkacoin.sol\":1175:1229  mapping(address => uint256) public directReferralCount */\n    tag_20:\n      tag_100\n      0x04\n      dup1\n      calldatasize\n      sub\n      dup2\n      add\n      swap1\n      tag_101\n      swap2\n      swap1\n      tag_38\n      jump\t// in\n    tag_101:\n      tag_102\n      jump\t// in\n    tag_100:\n      mload(0x40)\n      tag_103\n      swap2\n      swap1\n      tag_41\n      jump\t// in\n    tag_103:\n      mload(0x40)\n      dup1\n      swap2\n      sub\n      swap1\n      return\n        /* \"contracts/sikkacoin.sol\":4120:4466  function getEstimatedReturn(uint256 amount, uint256 numDays) external view returns (uint256 reward) {... */\n    tag_21:\n      tag_104\n      0x04\n      dup1\n      calldatasize\n      sub\n      dup2\n      add\n      swap1\n      tag_105\n      swap2\n      swap1\n      tag_71\n      jump\t// in\n    tag_105:\n      tag_106\n      jump\t// in\n    tag_104:\n      mload(0x40)\n      tag_107\n      swap2\n      swap1\n      tag_41\n      jump\t// in\n    tag_107:\n      mload(0x40)\n      dup1\n      swap2\n      sub\n      swap1\n      return\n        /* \"contracts/sikkacoin.sol\":8824:8937  function getTotalIncome(address user) external view returns (uint256) {... */\n    tag_22:\n      tag_108\n      0x04\n      dup1\n      calldatasize\n      sub\n      dup2\n      add\n      swap1\n      tag_109\n      swap2\n      swap1\n      tag_38\n      jump\t// in\n    tag_109:\n      tag_110\n      jump\t// in\n    tag_108:\n      mload(0x40)\n      tag_111\n      swap2\n      swap1\n      tag_41\n      jump\t// in\n    tag_111:\n      mload(0x40)\n      dup1\n      swap2\n      sub\n      swap1\n      return\n        /* \"contracts/sikkacoin.sol\":5711:5816  function isRegistered(address user) external view returns (bool) {... */\n    tag_23:\n      tag_112\n      0x04\n      dup1\n      calldatasize\n      sub\n      dup2\n      add\n      swap1\n      tag_113\n      swap2\n      swap1\n      tag_38\n      jump\t// in\n    tag_113:\n      tag_114\n      jump\t// in\n    tag_112:\n      mload(0x40)\n      tag_115\n      swap2\n      swap1\n      tag_116\n      jump\t// in\n    tag_115:\n      mload(0x40)\n      dup1\n      swap2\n      sub\n      swap1\n      return\n        /* \"contracts/sikkacoin.sol\":1053:1097  uint8[5] public levelRewards = [5, 3, 2,1,1] */\n    tag_24:\n      tag_117\n      0x04\n      dup1\n      calldatasize\n      sub\n      dup2\n      add\n      swap1\n      tag_118\n      swap2\n      swap1\n      tag_32\n      jump\t// in\n    tag_118:\n      tag_119\n      jump\t// in\n    tag_117:\n      mload(0x40)\n      tag_120\n      swap2\n      swap1\n      tag_121\n      jump\t// in\n    tag_120:\n      mload(0x40)\n      dup1\n      swap2\n      sub\n      swap1\n      return\n        /* \"contracts/sikkacoin.sol\":1236:1291  mapping(address => uint256) public directReferralIncome */\n    tag_25:\n      tag_122\n      0x04\n      dup1\n      calldatasize\n      sub\n      dup2\n      add\n      swap1\n      tag_123\n      swap2\n      swap1\n      tag_38\n      jump\t// in\n    tag_123:\n      tag_124\n      jump\t// in\n    tag_122:\n      mload(0x40)\n      tag_125\n      swap2\n      swap1\n      tag_41\n      jump\t// in\n    tag_125:\n      mload(0x40)\n      dup1\n      swap2\n      sub\n      swap1\n      return\n        /* \"contracts/sikkacoin.sol\":629:648  IERC20 public token */\n    tag_26:\n      tag_126\n      tag_127\n      jump\t// in\n    tag_126:\n      mload(0x40)\n      tag_128\n      swap2\n      swap1\n      tag_129\n      jump\t// in\n    tag_128:\n      mload(0x40)\n      dup1\n      swap2\n      sub\n      swap1\n      return\n        /* \"contracts/sikkacoin.sol\":993:1044  mapping(uint256 => address) public positionIdToUser */\n    tag_33:\n      mstore(0x20, 0x03)\n      dup1\n      0x00\n      mstore\n      keccak256(0x00, 0x40)\n      0x00\n      swap2\n      pop\n      sload\n      swap1\n      0x0100\n      exp\n      swap1\n      div\n      0xffffffffffffffffffffffffffffffffffffffff\n      and\n      dup2\n      jump\t// out\n        /* \"contracts/sikkacoin.sol\":8051:8540  function getUserLevel(address user) external view returns (uint256) {... */\n    tag_39:\n        /* \"contracts/sikkacoin.sol\":8110:8117  uint256 */\n      0x00\n        /* \"contracts/sikkacoin.sol\":8138:8143  users */\n      0x02\n        /* \"contracts/sikkacoin.sol\":8138:8149  users[user] */\n      0x00\n        /* \"contracts/sikkacoin.sol\":8144:8148  user */\n      dup4\n        /* \"contracts/sikkacoin.sol\":8138:8149  users[user] */\n      0xffffffffffffffffffffffffffffffffffffffff\n      and\n      0xffffffffffffffffffffffffffffffffffffffff\n      and\n      dup2\n      mstore\n      0x20\n      add\n      swap1\n      dup2\n      mstore\n      0x20\n      add\n      0x00\n      keccak256\n        /* \"contracts/sikkacoin.sol\":8138:8160  users[user].registered */\n      0x00\n      add\n      0x14\n      swap1\n      sload\n      swap1\n      0x0100\n      exp\n      swap1\n      div\n      0xff\n      and\n        /* \"contracts/sikkacoin.sol\":8130:8184  require(users[user].registered, \"User not registered\") */\n      tag_131\n      jumpi\n      mload(0x40)\n      0x08c379a000000000000000000000000000000000000000000000000000000000\n      dup2\n      mstore\n      0x04\n      add\n      tag_132\n      swap1\n      tag_133\n      jump\t// in\n    tag_132:\n      mload(0x40)\n      dup1\n      swap2\n      sub\n      swap1\n      revert\n    tag_131:\n        /* \"contracts/sikkacoin.sol\":8197:8210  uint256 level */\n      0x00\n        /* \"contracts/sikkacoin.sol\":8225:8240  address current */\n      dup1\n        /* \"contracts/sikkacoin.sol\":8243:8247  user */\n      dup4\n        /* \"contracts/sikkacoin.sol\":8225:8247  address current = user */\n      swap1\n      pop\n        /* \"contracts/sikkacoin.sol\":8260:8424  while (users[current].referrer != address(0) && users[current].referrer != owner) {... */\n    tag_134:\n        /* \"contracts/sikkacoin.sol\":8302:8303  0 */\n      0x00\n        /* \"contracts/sikkacoin.sol\":8267:8304  users[current].referrer != address(0) */\n      0xffffffffffffffffffffffffffffffffffffffff\n      and\n        /* \"contracts/sikkacoin.sol\":8267:8272  users */\n      0x02\n        /* \"contracts/sikkacoin.sol\":8267:8281  users[current] */\n      0x00\n        /* \"contracts/sikkacoin.sol\":8273:8280  current */\n      dup4\n        /* \"contracts/sikkacoin.sol\":8267:8281  users[current] */\n      0xffffffffffffffffffffffffffffffffffffffff\n      and\n      0xffffffffffffffffffffffffffffffffffffffff\n      and\n      dup2\n      mstore\n      0x20\n      add\n      swap1\n      dup2\n      mstore\n      0x20\n      add\n      0x00\n      keccak256\n        /* \"contracts/sikkacoin.sol\":8267:8290  users[current].referrer */\n      0x00\n      add\n      0x00\n      swap1\n      sload\n      swap1\n      0x0100\n      exp\n      swap1\n      div\n      0xffffffffffffffffffffffffffffffffffffffff\n      and\n        /* \"contracts/sikkacoin.sol\":8267:8304  users[current].referrer != address(0) */\n      0xffffffffffffffffffffffffffffffffffffffff\n      and\n      eq\n      iszero\n        /* \"contracts/sikkacoin.sol\":8267:8340  users[current].referrer != address(0) && users[current].referrer != owner */\n      dup1\n      iszero\n      tag_136\n      jumpi\n      pop\n        /* \"contracts/sikkacoin.sol\":8335:8340  owner */\n      0x00\n      dup1\n      sload\n      swap1\n      0x0100\n      exp\n      swap1\n      div\n      0xffffffffffffffffffffffffffffffffffffffff\n      and\n        /* \"contracts/sikkacoin.sol\":8308:8340  users[current].referrer != owner */\n      0xffffffffffffffffffffffffffffffffffffffff\n      and\n        /* \"contracts/sikkacoin.sol\":8308:8313  users */\n      0x02\n        /* \"contracts/sikkacoin.sol\":8308:8322  users[current] */\n      0x00\n        /* \"contracts/sikkacoin.sol\":8314:8321  current */\n      dup4\n        /* \"contracts/sikkacoin.sol\":8308:8322  users[current] */\n      0xffffffffffffffffffffffffffffffffffffffff\n      and\n      0xffffffffffffffffffffffffffffffffffffffff\n      and\n      dup2\n      mstore\n      0x20\n      add\n      swap1\n      dup2\n      mstore\n      0x20\n      add\n      0x00\n      keccak256\n        /* \"contracts/sikkacoin.sol\":8308:8331  users[current].referrer */\n      0x00\n      add\n      0x00\n      swap1\n      sload\n      swap1\n      0x0100\n      exp\n      swap1\n      div\n      0xffffffffffffffffffffffffffffffffffffffff\n      and\n        /* \"contracts/sikkacoin.sol\":8308:8340  users[current].referrer != owner */\n      0xffffffffffffffffffffffffffffffffffffffff\n      and\n      eq\n      iszero\n        /* \"contracts/sikkacoin.sol\":8267:8340  users[current].referrer != address(0) && users[current].referrer != owner */\n    tag_136:\n        /* \"contracts/sikkacoin.sol\":8260:8424  while (users[current].referrer != address(0) && users[current].referrer != owner) {... */\n      iszero\n      tag_135\n      jumpi\n        /* \"contracts/sikkacoin.sol\":8357:8364  level++ */\n      dup2\n      dup1\n      tag_137\n      swap1\n      tag_138\n      jump\t// in\n    tag_137:\n      swap3\n      pop\n      pop\n        /* \"contracts/sikkacoin.sol\":8389:8394  users */\n      0x02\n        /* \"contracts/sikkacoin.sol\":8389:8403  users[current] */\n      0x00\n        /* \"contracts/sikkacoin.sol\":8395:8402  current */\n      dup3\n        /* \"contracts/sikkacoin.sol\":8389:8403  users[current] */\n      0xffffffffffffffffffffffffffffffffffffffff\n      and\n      0xffffffffffffffffffffffffffffffffffffffff\n      and\n      dup2\n      mstore\n      0x20\n      add\n      swap1\n      dup2\n      mstore\n      0x20\n      add\n      0x00\n      keccak256\n        /* \"contracts/sikkacoin.sol\":8389:8412  users[current].referrer */\n      0x00\n      add\n      0x00\n      swap1\n      sload\n      swap1\n      0x0100\n      exp\n      swap1\n      div\n      0xffffffffffffffffffffffffffffffffffffffff\n      and\n        /* \"contracts/sikkacoin.sol\":8379:8412  current = users[current].referrer */\n      swap1\n      pop\n        /* \"contracts/sikkacoin.sol\":8260:8424  while (users[current].referrer != address(0) && users[current].referrer != owner) {... */\n      jump(tag_134)\n    tag_135:\n        /* \"contracts/sikkacoin.sol\":8467:8472  owner */\n      0x00\n      dup1\n      sload\n      swap1\n      0x0100\n      exp\n      swap1\n      div\n      0xffffffffffffffffffffffffffffffffffffffff\n      and\n        /* \"contracts/sikkacoin.sol\":8440:8472  users[current].referrer == owner */\n      0xffffffffffffffffffffffffffffffffffffffff\n      and\n        /* \"contracts/sikkacoin.sol\":8440:8445  users */\n      0x02\n        /* \"contracts/sikkacoin.sol\":8440:8454  users[current] */\n      0x00\n        /* \"contracts/sikkacoin.sol\":8446:8453  current */\n      dup4\n        /* \"contracts/sikkacoin.sol\":8440:8454  users[current] */\n      0xffffffffffffffffffffffffffffffffffffffff\n      and\n      0xffffffffffffffffffffffffffffffffffffffff\n      and\n      dup2\n      mstore\n      0x20\n      add\n      swap1\n      dup2\n      mstore\n      0x20\n      add\n      0x00\n      keccak256\n        /* \"contracts/sikkacoin.sol\":8440:8463  users[current].referrer */\n      0x00\n      add\n      0x00\n      swap1\n      sload\n      swap1\n      0x0100\n      exp\n      swap1\n      div\n      0xffffffffffffffffffffffffffffffffffffffff\n      and\n        /* \"contracts/sikkacoin.sol\":8440:8472  users[current].referrer == owner */\n      0xffffffffffffffffffffffffffffffffffffffff\n      and\n      sub\n        /* \"contracts/sikkacoin.sol\":8436:8508  if (users[current].referrer == owner) {... */\n      tag_139\n      jumpi\n        /* \"contracts/sikkacoin.sol\":8489:8496  level++ */\n      dup2\n      dup1\n      tag_140\n      swap1\n      tag_138\n      jump\t// in\n    tag_140:\n      swap3\n      pop\n      pop\n        /* \"contracts/sikkacoin.sol\":8436:8508  if (users[current].referrer == owner) {... */\n    tag_139:\n        /* \"contracts/sikkacoin.sol\":8527:8532  level */\n      dup2\n        /* \"contracts/sikkacoin.sol\":8520:8532  return level */\n      swap3\n      pop\n      pop\n      pop\n        /* \"contracts/sikkacoin.sol\":8051:8540  function getUserLevel(address user) external view returns (uint256) {... */\n      swap2\n      swap1\n      pop\n      jump\t// out\n        /* \"contracts/sikkacoin.sol\":5824:6928  function getStakeDailyReward(uint256 _positionId) external view returns (... */\n    tag_44:\n        /* \"contracts/sikkacoin.sol\":5907:5924  uint256 principal */\n      0x00\n        /* \"contracts/sikkacoin.sol\":5935:5946  uint256 apy */\n      dup1\n        /* \"contracts/sikkacoin.sol\":5957:5977  uint256 perDayReward */\n      0x00\n        /* \"contracts/sikkacoin.sol\":5988:6015  uint256 totalExpectedReward */\n      dup1\n        /* \"contracts/sikkacoin.sol\":6026:6048  uint256 durationInDays */\n      0x00\n        /* \"contracts/sikkacoin.sol\":6067:6083  address userAddr */\n      dup1\n        /* \"contracts/sikkacoin.sol\":6086:6102  positionIdToUser */\n      0x03\n        /* \"contracts/sikkacoin.sol\":6086:6115  positionIdToUser[_positionId] */\n      0x00\n        /* \"contracts/sikkacoin.sol\":6103:6114  _positionId */\n      dup9\n        /* \"contracts/sikkacoin.sol\":6086:6115  positionIdToUser[_positionId] */\n      dup2\n      mstore\n      0x20\n      add\n      swap1\n      dup2\n      mstore\n      0x20\n      add\n      0x00\n      keccak256\n      0x00\n      swap1\n      sload\n      swap1\n      0x0100\n      exp\n      swap1\n      div\n      0xffffffffffffffffffffffffffffffffffffffff\n      and\n        /* \"contracts/sikkacoin.sol\":6067:6115  address userAddr = positionIdToUser[_positionId] */\n      swap1\n      pop\n        /* \"contracts/sikkacoin.sol\":6154:6155  0 */\n      0x00\n        /* \"contracts/sikkacoin.sol\":6134:6156  userAddr != address(0) */\n      0xffffffffffffffffffffffffffffffffffffffff\n      and\n        /* \"contracts/sikkacoin.sol\":6134:6142  userAddr */\n      dup2\n        /* \"contracts/sikkacoin.sol\":6134:6156  userAddr != address(0) */\n      0xffffffffffffffffffffffffffffffffffffffff\n      and\n      sub\n        /* \"contracts/sikkacoin.sol\":6126:6179  require(userAddr != address(0), \"Invalid positionId\") */\n      tag_142\n      jumpi\n      mload(0x40)\n      0x08c379a000000000000000000000000000000000000000000000000000000000\n      dup2\n      mstore\n      0x04\n      add\n      tag_143\n      swap1\n      tag_144\n      jump\t// in\n    tag_143:\n      mload(0x40)\n      dup1\n      swap2\n      sub\n      swap1\n      revert\n    tag_142:\n        /* \"contracts/sikkacoin.sol\":6192:6213  Stake[] memory stakes */\n      0x00\n        /* \"contracts/sikkacoin.sol\":6216:6221  users */\n      0x02\n        /* \"contracts/sikkacoin.sol\":6216:6231  users[userAddr] */\n      0x00\n        /* \"contracts/sikkacoin.sol\":6222:6230  userAddr */\n      dup4\n        /* \"contracts/sikkacoin.sol\":6216:6231  users[userAddr] */\n      0xffffffffffffffffffffffffffffffffffffffff\n      and\n      0xffffffffffffffffffffffffffffffffffffffff\n      and\n      dup2\n      mstore\n      0x20\n      add\n      swap1\n      dup2\n      mstore\n      0x20\n      add\n      0x00\n      keccak256\n        /* \"contracts/sikkacoin.sol\":6216:6238  users[userAddr].stakes */\n      0x01\n      add\n        /* \"contracts/sikkacoin.sol\":6192:6238  Stake[] memory stakes = users[userAddr].stakes */\n      dup1\n      sload\n      dup1\n      0x20\n      mul\n      0x20\n      add\n      mload(0x40)\n      swap1\n      dup2\n      add\n      0x40\n      mstore\n      dup1\n      swap3\n      swap2\n      swap1\n      dup2\n      dup2\n      mstore\n      0x20\n      add\n      0x00\n      swap1\n    tag_145:\n      dup3\n      dup3\n      lt\n      iszero\n      tag_146\n      jumpi\n      dup4\n      dup3\n      swap1\n      0x00\n      mstore\n      keccak256(0x00, 0x20)\n      swap1\n      0x06\n      mul\n      add\n      mload(0x40)\n      dup1\n      0xc0\n      add\n      0x40\n      mstore\n      swap1\n      dup2\n      0x00\n      dup3\n      add\n      sload\n      dup2\n      mstore\n      0x20\n      add\n      0x01\n      dup3\n      add\n      sload\n      dup2\n      mstore\n      0x20\n      add\n      0x02\n      dup3\n      add\n      sload\n      dup2\n      mstore\n      0x20\n      add\n      0x03\n      dup3\n      add\n      sload\n      dup2\n      mstore\n      0x20\n      add\n      0x04\n      dup3\n      add\n      sload\n      dup2\n      mstore\n      0x20\n      add\n      0x05\n      dup3\n      add\n      0x00\n      swap1\n      sload\n      swap1\n      0x0100\n      exp\n      swap1\n      div\n      0xff\n      and\n      iszero\n      iszero\n      iszero\n      iszero\n      dup2\n      mstore\n      pop\n      pop\n      dup2\n      mstore\n      0x20\n      add\n      swap1\n      0x01\n      add\n      swap1\n      jump(tag_145)\n    tag_146:\n      pop\n      pop\n      pop\n      pop\n      swap1\n      pop\n        /* \"contracts/sikkacoin.sol\":6254:6263  uint256 i */\n      0x00\n        /* \"contracts/sikkacoin.sol\":6249:6883  for (uint256 i = 0; i < stakes.length; i++) {... */\n    tag_148:\n        /* \"contracts/sikkacoin.sol\":6273:6279  stakes */\n      dup2\n        /* \"contracts/sikkacoin.sol\":6273:6286  stakes.length */\n      mload\n        /* \"contracts/sikkacoin.sol\":6269:6270  i */\n      dup2\n        /* \"contracts/sikkacoin.sol\":6269:6286  i < stakes.length */\n      lt\n        /* \"contracts/sikkacoin.sol\":6249:6883  for (uint256 i = 0; i < stakes.length; i++) {... */\n      iszero\n      tag_149\n      jumpi\n        /* \"contracts/sikkacoin.sol\":6336:6347  _positionId */\n      dup9\n        /* \"contracts/sikkacoin.sol\":6312:6318  stakes */\n      dup3\n        /* \"contracts/sikkacoin.sol\":6319:6320  i */\n      dup3\n        /* \"contracts/sikkacoin.sol\":6312:6321  stakes[i] */\n      dup2\n      mload\n      dup2\n      lt\n      tag_151\n      jumpi\n      tag_152\n      tag_153\n      jump\t// in\n    tag_152:\n    tag_151:\n      0x20\n      mul\n      0x20\n      add\n      add\n      mload\n        /* \"contracts/sikkacoin.sol\":6312:6332  stakes[i].positionId */\n      0x40\n      add\n      mload\n        /* \"contracts/sikkacoin.sol\":6312:6347  stakes[i].positionId == _positionId */\n      sub\n        /* \"contracts/sikkacoin.sol\":6308:6872  if (stakes[i].positionId == _positionId) {... */\n      tag_154\n      jumpi\n        /* \"contracts/sikkacoin.sol\":6368:6382  uint256 amount */\n      0x00\n        /* \"contracts/sikkacoin.sol\":6385:6391  stakes */\n      dup3\n        /* \"contracts/sikkacoin.sol\":6392:6393  i */\n      dup3\n        /* \"contracts/sikkacoin.sol\":6385:6394  stakes[i] */\n      dup2\n      mload\n      dup2\n      lt\n      tag_155\n      jumpi\n      tag_156\n      tag_153\n      jump\t// in\n    tag_156:\n    tag_155:\n      0x20\n      mul\n      0x20\n      add\n      add\n      mload\n        /* \"contracts/sikkacoin.sol\":6385:6401  stakes[i].amount */\n      0x20\n      add\n      mload\n        /* \"contracts/sikkacoin.sol\":6368:6401  uint256 amount = stakes[i].amount */\n      swap1\n      pop\n        /* \"contracts/sikkacoin.sol\":6420:6435  uint256 numDays */\n      0x00\n        /* \"contracts/sikkacoin.sol\":6438:6444  stakes */\n      dup4\n        /* \"contracts/sikkacoin.sol\":6445:6446  i */\n      dup4\n        /* \"contracts/sikkacoin.sol\":6438:6447  stakes[i] */\n      dup2\n      mload\n      dup2\n      lt\n      tag_157\n      jumpi\n      tag_158\n      tag_153\n      jump\t// in\n    tag_158:\n    tag_157:\n      0x20\n      mul\n      0x20\n      add\n      add\n      mload\n        /* \"contracts/sikkacoin.sol\":6438:6455  stakes[i].numDays */\n      0x80\n      add\n      mload\n        /* \"contracts/sikkacoin.sol\":6420:6455  uint256 numDays = stakes[i].numDays */\n      swap1\n      pop\n        /* \"contracts/sikkacoin.sol\":6474:6491  uint256 annualAPY */\n      0x00\n        /* \"contracts/sikkacoin.sol\":6494:6504  stakingAPY */\n      0x0a\n        /* \"contracts/sikkacoin.sol\":6494:6513  stakingAPY[numDays] */\n      0x00\n        /* \"contracts/sikkacoin.sol\":6505:6512  numDays */\n      dup4\n        /* \"contracts/sikkacoin.sol\":6494:6513  stakingAPY[numDays] */\n      dup2\n      mstore\n      0x20\n      add\n      swap1\n      dup2\n      mstore\n      0x20\n      add\n      0x00\n      keccak256\n      sload\n        /* \"contracts/sikkacoin.sol\":6474:6513  uint256 annualAPY = stakingAPY[numDays] */\n      swap1\n      pop\n        /* \"contracts/sikkacoin.sol\":6532:6551  uint256 totalReward */\n      0x00\n        /* \"contracts/sikkacoin.sol\":6588:6597  100 * 365 */\n      0x8e94\n        /* \"contracts/sikkacoin.sol\":6576:6583  numDays */\n      dup4\n        /* \"contracts/sikkacoin.sol\":6564:6573  annualAPY */\n      dup4\n        /* \"contracts/sikkacoin.sol\":6555:6561  amount */\n      dup7\n        /* \"contracts/sikkacoin.sol\":6555:6573  amount * annualAPY */\n      tag_159\n      swap2\n      swap1\n      tag_160\n      jump\t// in\n    tag_159:\n        /* \"contracts/sikkacoin.sol\":6555:6583  amount * annualAPY * numDays */\n      tag_161\n      swap2\n      swap1\n      tag_160\n      jump\t// in\n    tag_161:\n        /* \"contracts/sikkacoin.sol\":6554:6598  (amount * annualAPY * numDays) / (100 * 365) */\n      tag_162\n      swap2\n      swap1\n      tag_163\n      jump\t// in\n    tag_162:\n        /* \"contracts/sikkacoin.sol\":6532:6598  uint256 totalReward = (amount * annualAPY * numDays) / (100 * 365) */\n      swap1\n      pop\n        /* \"contracts/sikkacoin.sol\":6617:6631  uint256 perDay */\n      0x00\n        /* \"contracts/sikkacoin.sol\":6648:6655  numDays */\n      dup4\n        /* \"contracts/sikkacoin.sol\":6634:6645  totalReward */\n      dup3\n        /* \"contracts/sikkacoin.sol\":6634:6655  totalReward / numDays */\n      tag_164\n      swap2\n      swap1\n      tag_163\n      jump\t// in\n    tag_164:\n        /* \"contracts/sikkacoin.sol\":6617:6655  uint256 perDay = totalReward / numDays */\n      swap1\n      pop\n        /* \"contracts/sikkacoin.sol\":6706:6712  amount */\n      dup5\n        /* \"contracts/sikkacoin.sol\":6735:6744  annualAPY */\n      dup4\n        /* \"contracts/sikkacoin.sol\":6767:6773  perDay */\n      dup3\n        /* \"contracts/sikkacoin.sol\":6796:6807  totalReward */\n      dup5\n        /* \"contracts/sikkacoin.sol\":6830:6837  numDays */\n      dup8\n        /* \"contracts/sikkacoin.sol\":6676:6856  return (... */\n      swap13\n      pop\n      swap13\n      pop\n      swap13\n      pop\n      swap13\n      pop\n      swap13\n      pop\n      pop\n      pop\n      pop\n      pop\n      pop\n      pop\n      pop\n      pop\n      jump(tag_141)\n        /* \"contracts/sikkacoin.sol\":6308:6872  if (stakes[i].positionId == _positionId) {... */\n    tag_154:\n        /* \"contracts/sikkacoin.sol\":6288:6291  i++ */\n      dup1\n      dup1\n      0x01\n      add\n      swap2\n      pop\n      pop\n        /* \"contracts/sikkacoin.sol\":6249:6883  for (uint256 i = 0; i < stakes.length; i++) {... */\n      jump(tag_148)\n    tag_149:\n      pop\n        /* \"contracts/sikkacoin.sol\":6895:6920  revert(\"Stake not found\") */\n      mload(0x40)\n      0x08c379a000000000000000000000000000000000000000000000000000000000\n      dup2\n      mstore\n      0x04\n      add\n      tag_165\n      swap1\n      tag_166\n      jump\t// in\n    tag_165:\n      mload(0x40)\n      dup1\n      swap2\n      sub\n      swap1\n      revert\n        /* \"contracts/sikkacoin.sol\":5824:6928  function getStakeDailyReward(uint256 _positionId) external view returns (... */\n    tag_141:\n      swap2\n      swap4\n      swap6\n      swap1\n      swap3\n      swap5\n      pop\n      jump\t// out\n        /* \"contracts/sikkacoin.sol\":7673:8043  function getPositionIds(address _user) external view returns (uint256[] memory) {... */\n    tag_49:\n        /* \"contracts/sikkacoin.sol\":7735:7751  uint256[] memory */\n      0x60\n        /* \"contracts/sikkacoin.sol\":7764:7782  uint256 stakeCount */\n      0x00\n        /* \"contracts/sikkacoin.sol\":7785:7790  users */\n      0x02\n        /* \"contracts/sikkacoin.sol\":7785:7797  users[_user] */\n      0x00\n        /* \"contracts/sikkacoin.sol\":7791:7796  _user */\n      dup5\n        /* \"contracts/sikkacoin.sol\":7785:7797  users[_user] */\n      0xffffffffffffffffffffffffffffffffffffffff\n      and\n      0xffffffffffffffffffffffffffffffffffffffff\n      and\n      dup2\n      mstore\n      0x20\n      add\n      swap1\n      dup2\n      mstore\n      0x20\n      add\n      0x00\n      keccak256\n        /* \"contracts/sikkacoin.sol\":7785:7804  users[_user].stakes */\n      0x01\n      add\n        /* \"contracts/sikkacoin.sol\":7785:7811  users[_user].stakes.length */\n      dup1\n      sload\n      swap1\n      pop\n        /* \"contracts/sikkacoin.sol\":7764:7811  uint256 stakeCount = users[_user].stakes.length */\n      swap1\n      pop\n        /* \"contracts/sikkacoin.sol\":7822:7850  uint256[] memory positionIds */\n      0x00\n        /* \"contracts/sikkacoin.sol\":7867:7877  stakeCount */\n      dup2\n        /* \"contracts/sikkacoin.sol\":7853:7878  new uint256[](stakeCount) */\n      0xffffffffffffffff\n      dup2\n      gt\n      iszero\n      tag_168\n      jumpi\n      tag_169\n      tag_170\n      jump\t// in\n    tag_169:\n    tag_168:\n      mload(0x40)\n      swap1\n      dup1\n      dup3\n      mstore\n      dup1\n      0x20\n      mul\n      0x20\n      add\n      dup3\n      add\n      0x40\n      mstore\n      dup1\n      iszero\n      tag_171\n      jumpi\n      dup2\n      0x20\n      add\n      0x20\n      dup3\n      mul\n      dup1\n      calldatasize\n      dup4\n      calldatacopy\n      dup1\n      dup3\n      add\n      swap2\n      pop\n      pop\n      swap1\n      pop\n    tag_171:\n      pop\n        /* \"contracts/sikkacoin.sol\":7822:7878  uint256[] memory positionIds = new uint256[](stakeCount) */\n      swap1\n      pop\n        /* \"contracts/sikkacoin.sol\":7894:7903  uint256 i */\n      0x00\n        /* \"contracts/sikkacoin.sol\":7889:8007  for (uint256 i = 0; i < stakeCount; i++) {... */\n    tag_172:\n        /* \"contracts/sikkacoin.sol\":7913:7923  stakeCount */\n      dup3\n        /* \"contracts/sikkacoin.sol\":7909:7910  i */\n      dup2\n        /* \"contracts/sikkacoin.sol\":7909:7923  i < stakeCount */\n      lt\n        /* \"contracts/sikkacoin.sol\":7889:8007  for (uint256 i = 0; i < stakeCount; i++) {... */\n      iszero\n      tag_173\n      jumpi\n        /* \"contracts/sikkacoin.sol\":7962:7967  users */\n      0x02\n        /* \"contracts/sikkacoin.sol\":7962:7974  users[_user] */\n      0x00\n        /* \"contracts/sikkacoin.sol\":7968:7973  _user */\n      dup7\n        /* \"contracts/sikkacoin.sol\":7962:7974  users[_user] */\n      0xffffffffffffffffffffffffffffffffffffffff\n      and\n      0xffffffffffffffffffffffffffffffffffffffff\n      and\n      dup2\n      mstore\n      0x20\n      add\n      swap1\n      dup2\n      mstore\n      0x20\n      add\n      0x00\n      keccak256\n        /* \"contracts/sikkacoin.sol\":7962:7981  users[_user].stakes */\n      0x01\n      add\n        /* \"contracts/sikkacoin.sol\":7982:7983  i */\n      dup2\n        /* \"contracts/sikkacoin.sol\":7962:7984  users[_user].stakes[i] */\n      dup2\n      sload\n      dup2\n      lt\n      tag_175\n      jumpi\n      tag_176\n      tag_153\n      jump\t// in\n    tag_176:\n    tag_175:\n      swap1\n      0x00\n      mstore\n      keccak256(0x00, 0x20)\n      swap1\n      0x06\n      mul\n      add\n        /* \"contracts/sikkacoin.sol\":7962:7995  users[_user].stakes[i].positionId */\n      0x02\n      add\n      sload\n        /* \"contracts/sikkacoin.sol\":7945:7956  positionIds */\n      dup3\n        /* \"contracts/sikkacoin.sol\":7957:7958  i */\n      dup3\n        /* \"contracts/sikkacoin.sol\":7945:7959  positionIds[i] */\n      dup2\n      mload\n      dup2\n      lt\n      tag_178\n      jumpi\n      tag_179\n      tag_153\n      jump\t// in\n    tag_179:\n    tag_178:\n      0x20\n      mul\n      0x20\n      add\n      add\n        /* \"contracts/sikkacoin.sol\":7945:7995  positionIds[i] = users[_user].stakes[i].positionId */\n      dup2\n      dup2\n      mstore\n      pop\n      pop\n        /* \"contracts/sikkacoin.sol\":7925:7928  i++ */\n      dup1\n      dup1\n      0x01\n      add\n      swap2\n      pop\n      pop\n        /* \"contracts/sikkacoin.sol\":7889:8007  for (uint256 i = 0; i < stakeCount; i++) {... */\n      jump(tag_172)\n    tag_173:\n      pop\n        /* \"contracts/sikkacoin.sol\":8024:8035  positionIds */\n      dup1\n        /* \"contracts/sikkacoin.sol\":8017:8035  return positionIds */\n      swap3\n      pop\n      pop\n      pop\n        /* \"contracts/sikkacoin.sol\":7673:8043  function getPositionIds(address _user) external view returns (uint256[] memory) {... */\n      swap2\n      swap1\n      pop\n      jump\t// out\n        /* \"contracts/sikkacoin.sol\":8945:9130  function withdraw(uint256 amount) external {... */\n    tag_54:\n        /* \"contracts/sikkacoin.sol\":9021:9026  owner */\n      0x00\n      dup1\n      sload\n      swap1\n      0x0100\n      exp\n      swap1\n      div\n      0xffffffffffffffffffffffffffffffffffffffff\n      and\n        /* \"contracts/sikkacoin.sol\":9007:9026  msg.sender == owner */\n      0xffffffffffffffffffffffffffffffffffffffff\n      and\n        /* \"contracts/sikkacoin.sol\":9007:9017  msg.sender */\n      caller\n        /* \"contracts/sikkacoin.sol\":9007:9026  msg.sender == owner */\n      0xffffffffffffffffffffffffffffffffffffffff\n      and\n      eq\n        /* \"contracts/sikkacoin.sol\":8999:9054  require(msg.sender == owner, \"Only owner can withdraw\") */\n      tag_181\n      jumpi\n      mload(0x40)\n      0x08c379a000000000000000000000000000000000000000000000000000000000\n      dup2\n      mstore\n      0x04\n      add\n      tag_182\n      swap1\n      tag_183\n      jump\t// in\n    tag_182:\n      mload(0x40)\n      dup1\n      swap2\n      sub\n      swap1\n      revert\n    tag_181:\n        /* \"contracts/sikkacoin.sol\":9073:9078  token */\n      0x01\n      0x00\n      swap1\n      sload\n      swap1\n      0x0100\n      exp\n      swap1\n      div\n      0xffffffffffffffffffffffffffffffffffffffff\n      and\n        /* \"contracts/sikkacoin.sol\":9073:9087  token.transfer */\n      0xffffffffffffffffffffffffffffffffffffffff\n      and\n      0xa9059cbb\n        /* \"contracts/sikkacoin.sol\":9088:9093  owner */\n      0x00\n      dup1\n      sload\n      swap1\n      0x0100\n      exp\n      swap1\n      div\n      0xffffffffffffffffffffffffffffffffffffffff\n      and\n        /* \"contracts/sikkacoin.sol\":9095:9101  amount */\n      dup4\n        /* \"contracts/sikkacoin.sol\":9073:9102  token.transfer(owner, amount) */\n      mload(0x40)\n      dup4\n      0xffffffff\n      and\n      0xe0\n      shl\n      dup2\n      mstore\n      0x04\n      add\n      tag_184\n      swap3\n      swap2\n      swap1\n      tag_185\n      jump\t// in\n    tag_184:\n      0x20\n      mload(0x40)\n      dup1\n      dup4\n      sub\n      dup2\n      0x00\n      dup8\n      gas\n      call\n      iszero\n      dup1\n      iszero\n      tag_187\n      jumpi\n      returndatasize\n      0x00\n      dup1\n      returndatacopy\n      revert(0x00, returndatasize)\n    tag_187:\n      pop\n      pop\n      pop\n      pop\n      mload(0x40)\n      returndatasize\n      not(0x1f)\n      0x1f\n      dup3\n      add\n      and\n      dup3\n      add\n      dup1\n      0x40\n      mstore\n      pop\n      dup2\n      add\n      swap1\n      tag_188\n      swap2\n      swap1\n      tag_189\n      jump\t// in\n    tag_188:\n        /* \"contracts/sikkacoin.sol\":9065:9122  require(token.transfer(owner, amount), \"Withdraw failed\") */\n      tag_190\n      jumpi\n      mload(0x40)\n      0x08c379a000000000000000000000000000000000000000000000000000000000\n      dup2\n      mstore\n      0x04\n      add\n      tag_191\n      swap1\n      tag_192\n      jump\t// in\n    tag_191:\n      mload(0x40)\n      dup1\n      swap2\n      sub\n      swap1\n      revert\n    tag_190:\n        /* \"contracts/sikkacoin.sol\":8945:9130  function withdraw(uint256 amount) external {... */\n      pop\n      jump\t// out\n        /* \"contracts/sikkacoin.sol\":4476:5699  function claim(uint256 _positionId) external onlyRegistered {... */\n    tag_57:\n        /* \"contracts/sikkacoin.sol\":2201:2206  users */\n      0x02\n        /* \"contracts/sikkacoin.sol\":2201:2218  users[msg.sender] */\n      0x00\n        /* \"contracts/sikkacoin.sol\":2207:2217  msg.sender */\n      caller\n        /* \"contracts/sikkacoin.sol\":2201:2218  users[msg.sender] */\n      0xffffffffffffffffffffffffffffffffffffffff\n      and\n      0xffffffffffffffffffffffffffffffffffffffff\n      and\n      dup2\n      mstore\n      0x20\n      add\n      swap1\n      dup2\n      mstore\n      0x20\n      add\n      0x00\n      keccak256\n        /* \"contracts/sikkacoin.sol\":2201:2229  users[msg.sender].registered */\n      0x00\n      add\n      0x14\n      swap1\n      sload\n      swap1\n      0x0100\n      exp\n      swap1\n      div\n      0xff\n      and\n        /* \"contracts/sikkacoin.sol\":2193:2253  require(users[msg.sender].registered, \"User not registered\") */\n      tag_194\n      jumpi\n      mload(0x40)\n      0x08c379a000000000000000000000000000000000000000000000000000000000\n      dup2\n      mstore\n      0x04\n      add\n      tag_195\n      swap1\n      tag_133\n      jump\t// in\n    tag_195:\n      mload(0x40)\n      dup1\n      swap2\n      sub\n      swap1\n      revert\n    tag_194:\n        /* \"contracts/sikkacoin.sol\":4547:4563  address userAddr */\n      0x00\n        /* \"contracts/sikkacoin.sol\":4566:4582  positionIdToUser */\n      0x03\n        /* \"contracts/sikkacoin.sol\":4566:4595  positionIdToUser[_positionId] */\n      0x00\n        /* \"contracts/sikkacoin.sol\":4583:4594  _positionId */\n      dup4\n        /* \"contracts/sikkacoin.sol\":4566:4595  positionIdToUser[_positionId] */\n      dup2\n      mstore\n      0x20\n      add\n      swap1\n      dup2\n      mstore\n      0x20\n      add\n      0x00\n      keccak256\n      0x00\n      swap1\n      sload\n      swap1\n      0x0100\n      exp\n      swap1\n      div\n      0xffffffffffffffffffffffffffffffffffffffff\n      and\n        /* \"contracts/sikkacoin.sol\":4547:4595  address userAddr = positionIdToUser[_positionId] */\n      swap1\n      pop\n        /* \"contracts/sikkacoin.sol\":4626:4636  msg.sender */\n      caller\n        /* \"contracts/sikkacoin.sol\":4614:4636  userAddr == msg.sender */\n      0xffffffffffffffffffffffffffffffffffffffff\n      and\n        /* \"contracts/sikkacoin.sol\":4614:4622  userAddr */\n      dup2\n        /* \"contracts/sikkacoin.sol\":4614:4636  userAddr == msg.sender */\n      0xffffffffffffffffffffffffffffffffffffffff\n      and\n      eq\n        /* \"contracts/sikkacoin.sol\":4606:4655  require(userAddr == msg.sender, \"Not your stake\") */\n      tag_197\n      jumpi\n      mload(0x40)\n      0x08c379a000000000000000000000000000000000000000000000000000000000\n      dup2\n      mstore\n      0x04\n      add\n      tag_198\n      swap1\n      tag_199\n      jump\t// in\n    tag_198:\n      mload(0x40)\n      dup1\n      swap2\n      sub\n      swap1\n      revert\n    tag_197:\n        /* \"contracts/sikkacoin.sol\":4668:4690  Stake[] storage stakes */\n      0x00\n        /* \"contracts/sikkacoin.sol\":4693:4698  users */\n      0x02\n        /* \"contracts/sikkacoin.sol\":4693:4710  users[msg.sender] */\n      0x00\n        /* \"contracts/sikkacoin.sol\":4699:4709  msg.sender */\n      caller\n        /* \"contracts/sikkacoin.sol\":4693:4710  users[msg.sender] */\n      0xffffffffffffffffffffffffffffffffffffffff\n      and\n      0xffffffffffffffffffffffffffffffffffffffff\n      and\n      dup2\n      mstore\n      0x20\n      add\n      swap1\n      dup2\n      mstore\n      0x20\n      add\n      0x00\n      keccak256\n        /* \"contracts/sikkacoin.sol\":4693:4717  users[msg.sender].stakes */\n      0x01\n      add\n        /* \"contracts/sikkacoin.sol\":4668:4717  Stake[] storage stakes = users[msg.sender].stakes */\n      swap1\n      pop\n        /* \"contracts/sikkacoin.sol\":4735:4744  uint256 i */\n      0x00\n        /* \"contracts/sikkacoin.sol\":4730:5633  for (uint256 i = 0; i < stakes.length; i++) {... */\n    tag_200:\n        /* \"contracts/sikkacoin.sol\":4754:4760  stakes */\n      dup2\n        /* \"contracts/sikkacoin.sol\":4754:4767  stakes.length */\n      dup1\n      sload\n      swap1\n      pop\n        /* \"contracts/sikkacoin.sol\":4750:4751  i */\n      dup2\n        /* \"contracts/sikkacoin.sol\":4750:4767  i < stakes.length */\n      lt\n        /* \"contracts/sikkacoin.sol\":4730:5633  for (uint256 i = 0; i < stakes.length; i++) {... */\n      iszero\n      tag_201\n      jumpi\n        /* \"contracts/sikkacoin.sol\":4789:4804  Stake storage s */\n      0x00\n        /* \"contracts/sikkacoin.sol\":4807:4813  stakes */\n      dup3\n        /* \"contracts/sikkacoin.sol\":4814:4815  i */\n      dup3\n        /* \"contracts/sikkacoin.sol\":4807:4816  stakes[i] */\n      dup2\n      sload\n      dup2\n      lt\n      tag_203\n      jumpi\n      tag_204\n      tag_153\n      jump\t// in\n    tag_204:\n    tag_203:\n      swap1\n      0x00\n      mstore\n      keccak256(0x00, 0x20)\n      swap1\n      0x06\n      mul\n      add\n        /* \"contracts/sikkacoin.sol\":4789:4816  Stake storage s = stakes[i] */\n      swap1\n      pop\n        /* \"contracts/sikkacoin.sol\":4851:4862  _positionId */\n      dup5\n        /* \"contracts/sikkacoin.sol\":4835:4836  s */\n      dup2\n        /* \"contracts/sikkacoin.sol\":4835:4847  s.positionId */\n      0x02\n      add\n      sload\n        /* \"contracts/sikkacoin.sol\":4835:4862  s.positionId == _positionId */\n      sub\n        /* \"contracts/sikkacoin.sol\":4831:5622  if (s.positionId == _positionId) {... */\n      tag_206\n      jumpi\n        /* \"contracts/sikkacoin.sol\":4892:4893  s */\n      dup1\n        /* \"contracts/sikkacoin.sol\":4892:4901  s.claimed */\n      0x05\n      add\n      0x00\n      swap1\n      sload\n      swap1\n      0x0100\n      exp\n      swap1\n      div\n      0xff\n      and\n        /* \"contracts/sikkacoin.sol\":4891:4901  !s.claimed */\n      iszero\n        /* \"contracts/sikkacoin.sol\":4883:4921  require(!s.claimed, \"Already claimed\") */\n      tag_207\n      jumpi\n      mload(0x40)\n      0x08c379a000000000000000000000000000000000000000000000000000000000\n      dup2\n      mstore\n      0x04\n      add\n      tag_208\n      swap1\n      tag_209\n      jump\t// in\n    tag_208:\n      mload(0x40)\n      dup1\n      swap2\n      sub\n      swap1\n      revert\n    tag_207:\n        /* \"contracts/sikkacoin.sol\":4942:4961  uint256 elapsedDays */\n      0x00\n        /* \"contracts/sikkacoin.sol\":4998:5004  1 days */\n      0x015180\n        /* \"contracts/sikkacoin.sol\":4983:4984  s */\n      dup3\n        /* \"contracts/sikkacoin.sol\":4983:4994  s.timestamp */\n      0x03\n      add\n      sload\n        /* \"contracts/sikkacoin.sol\":4965:4980  block.timestamp */\n      timestamp\n        /* \"contracts/sikkacoin.sol\":4965:4994  block.timestamp - s.timestamp */\n      tag_210\n      swap2\n      swap1\n      tag_211\n      jump\t// in\n    tag_210:\n        /* \"contracts/sikkacoin.sol\":4964:5004  (block.timestamp - s.timestamp) / 1 days */\n      tag_212\n      swap2\n      swap1\n      tag_163\n      jump\t// in\n    tag_212:\n        /* \"contracts/sikkacoin.sol\":4942:5004  uint256 elapsedDays = (block.timestamp - s.timestamp) / 1 days */\n      swap1\n      pop\n        /* \"contracts/sikkacoin.sol\":5023:5037  uint256 reward */\n      0x00\n        /* \"contracts/sikkacoin.sol\":5081:5082  s */\n      dup3\n        /* \"contracts/sikkacoin.sol\":5081:5090  s.numDays */\n      0x04\n      add\n      sload\n        /* \"contracts/sikkacoin.sol\":5066:5077  elapsedDays */\n      dup3\n        /* \"contracts/sikkacoin.sol\":5066:5090  elapsedDays >= s.numDays */\n      lt\n        /* \"contracts/sikkacoin.sol\":5062:5370  if (elapsedDays >= s.numDays) {... */\n      tag_213\n      jumpi\n        /* \"contracts/sikkacoin.sol\":5161:5164  100 */\n      0x64\n        /* \"contracts/sikkacoin.sol\":5136:5146  stakingAPY */\n      0x0a\n        /* \"contracts/sikkacoin.sol\":5136:5157  stakingAPY[s.numDays] */\n      0x00\n        /* \"contracts/sikkacoin.sol\":5147:5148  s */\n      dup6\n        /* \"contracts/sikkacoin.sol\":5147:5156  s.numDays */\n      0x04\n      add\n      sload\n        /* \"contracts/sikkacoin.sol\":5136:5157  stakingAPY[s.numDays] */\n      dup2\n      mstore\n      0x20\n      add\n      swap1\n      dup2\n      mstore\n      0x20\n      add\n      0x00\n      keccak256\n      sload\n        /* \"contracts/sikkacoin.sol\":5125:5126  s */\n      dup5\n        /* \"contracts/sikkacoin.sol\":5125:5133  s.amount */\n      0x01\n      add\n      sload\n        /* \"contracts/sikkacoin.sol\":5125:5157  s.amount * stakingAPY[s.numDays] */\n      tag_214\n      swap2\n      swap1\n      tag_160\n      jump\t// in\n    tag_214:\n        /* \"contracts/sikkacoin.sol\":5124:5164  (s.amount * stakingAPY[s.numDays]) / 100 */\n      tag_215\n      swap2\n      swap1\n      tag_163\n      jump\t// in\n    tag_215:\n        /* \"contracts/sikkacoin.sol\":5115:5164  reward = (s.amount * stakingAPY[s.numDays]) / 100 */\n      swap1\n      pop\n        /* \"contracts/sikkacoin.sol\":5062:5370  if (elapsedDays >= s.numDays) {... */\n      jump(tag_216)\n    tag_213:\n        /* \"contracts/sikkacoin.sol\":5208:5210  20 */\n      0x14\n        /* \"contracts/sikkacoin.sol\":5194:5205  elapsedDays */\n      dup3\n        /* \"contracts/sikkacoin.sol\":5194:5210  elapsedDays < 20 */\n      lt\n        /* \"contracts/sikkacoin.sol\":5190:5370  if (elapsedDays < 20) {... */\n      iszero\n      tag_217\n      jumpi\n        /* \"contracts/sikkacoin.sol\":5244:5245  0 */\n      0x00\n        /* \"contracts/sikkacoin.sol\":5235:5245  reward = 0 */\n      swap1\n      pop\n        /* \"contracts/sikkacoin.sol\":5190:5370  if (elapsedDays < 20) {... */\n      jump(tag_218)\n    tag_217:\n        /* \"contracts/sikkacoin.sol\":5294:5350  revert(\"Cannot claim between 20 days and full duration\") */\n      mload(0x40)\n      0x08c379a000000000000000000000000000000000000000000000000000000000\n      dup2\n      mstore\n      0x04\n      add\n      tag_219\n      swap1\n      tag_220\n      jump\t// in\n    tag_219:\n      mload(0x40)\n      dup1\n      swap2\n      sub\n      swap1\n      revert\n        /* \"contracts/sikkacoin.sol\":5190:5370  if (elapsedDays < 20) {... */\n    tag_218:\n        /* \"contracts/sikkacoin.sol\":5062:5370  if (elapsedDays >= s.numDays) {... */\n    tag_216:\n        /* \"contracts/sikkacoin.sol\":5402:5406  true */\n      0x01\n        /* \"contracts/sikkacoin.sol\":5390:5391  s */\n      dup4\n        /* \"contracts/sikkacoin.sol\":5390:5399  s.claimed */\n      0x05\n      add\n      0x00\n        /* \"contracts/sikkacoin.sol\":5390:5406  s.claimed = true */\n      0x0100\n      exp\n      dup2\n      sload\n      dup2\n      0xff\n      mul\n      not\n      and\n      swap1\n      dup4\n      iszero\n      iszero\n      mul\n      or\n      swap1\n      sstore\n      pop\n        /* \"contracts/sikkacoin.sol\":5433:5438  token */\n      0x01\n      0x00\n      swap1\n      sload\n      swap1\n      0x0100\n      exp\n      swap1\n      div\n      0xffffffffffffffffffffffffffffffffffffffff\n      and\n        /* \"contracts/sikkacoin.sol\":5433:5447  token.transfer */\n      0xffffffffffffffffffffffffffffffffffffffff\n      and\n      0xa9059cbb\n        /* \"contracts/sikkacoin.sol\":5448:5458  msg.sender */\n      caller\n        /* \"contracts/sikkacoin.sol\":5471:5477  reward */\n      dup4\n        /* \"contracts/sikkacoin.sol\":5460:5461  s */\n      dup7\n        /* \"contracts/sikkacoin.sol\":5460:5468  s.amount */\n      0x01\n      add\n      sload\n        /* \"contracts/sikkacoin.sol\":5460:5477  s.amount + reward */\n      tag_221\n      swap2\n      swap1\n      tag_222\n      jump\t// in\n    tag_221:\n        /* \"contracts/sikkacoin.sol\":5433:5478  token.transfer(msg.sender, s.amount + reward) */\n      mload(0x40)\n      dup4\n      0xffffffff\n      and\n      0xe0\n      shl\n      dup2\n      mstore\n      0x04\n      add\n      tag_223\n      swap3\n      swap2\n      swap1\n      tag_185\n      jump\t// in\n    tag_223:\n      0x20\n      mload(0x40)\n      dup1\n      dup4\n      sub\n      dup2\n      0x00\n      dup8\n      gas\n      call\n      iszero\n      dup1\n      iszero\n      tag_225\n      jumpi\n      returndatasize\n      0x00\n      dup1\n      returndatacopy\n      revert(0x00, returndatasize)\n    tag_225:\n      pop\n      pop\n      pop\n      pop\n      mload(0x40)\n      returndatasize\n      not(0x1f)\n      0x1f\n      dup3\n      add\n      and\n      dup3\n      add\n      dup1\n      0x40\n      mstore\n      pop\n      dup2\n      add\n      swap1\n      tag_226\n      swap2\n      swap1\n      tag_189\n      jump\t// in\n    tag_226:\n        /* \"contracts/sikkacoin.sol\":5425:5504  require(token.transfer(msg.sender, s.amount + reward), \"Token transfer failed\") */\n      tag_227\n      jumpi\n      mload(0x40)\n      0x08c379a000000000000000000000000000000000000000000000000000000000\n      dup2\n      mstore\n      0x04\n      add\n      tag_228\n      swap1\n      tag_229\n      jump\t// in\n    tag_228:\n      mload(0x40)\n      dup1\n      swap2\n      sub\n      swap1\n      revert\n    tag_227:\n        /* \"contracts/sikkacoin.sol\":5550:5551  s */\n      dup3\n        /* \"contracts/sikkacoin.sol\":5550:5562  s.positionId */\n      0x02\n      add\n      sload\n        /* \"contracts/sikkacoin.sol\":5538:5548  msg.sender */\n      caller\n        /* \"contracts/sikkacoin.sol\":5530:5581  Claimed(msg.sender, s.positionId, s.amount, reward) */\n      0xffffffffffffffffffffffffffffffffffffffff\n      and\n      0x9cdcf2f7714cca3508c7f0110b04a90a80a3a8dd0e35de99689db74d28c5383e\n        /* \"contracts/sikkacoin.sol\":5564:5565  s */\n      dup6\n        /* \"contracts/sikkacoin.sol\":5564:5572  s.amount */\n      0x01\n      add\n      sload\n        /* \"contracts/sikkacoin.sol\":5574:5580  reward */\n      dup5\n        /* \"contracts/sikkacoin.sol\":5530:5581  Claimed(msg.sender, s.positionId, s.amount, reward) */\n      mload(0x40)\n      tag_230\n      swap3\n      swap2\n      swap1\n      tag_231\n      jump\t// in\n    tag_230:\n      mload(0x40)\n      dup1\n      swap2\n      sub\n      swap1\n      log3\n        /* \"contracts/sikkacoin.sol\":5600:5607  return; */\n      pop\n      pop\n      pop\n      pop\n      pop\n      pop\n      jump(tag_196)\n        /* \"contracts/sikkacoin.sol\":4831:5622  if (s.positionId == _positionId) {... */\n    tag_206:\n        /* \"contracts/sikkacoin.sol\":4774:5633  {... */\n      pop\n        /* \"contracts/sikkacoin.sol\":4769:4772  i++ */\n      dup1\n      dup1\n      0x01\n      add\n      swap2\n      pop\n      pop\n        /* \"contracts/sikkacoin.sol\":4730:5633  for (uint256 i = 0; i < stakes.length; i++) {... */\n      jump(tag_200)\n    tag_201:\n      pop\n        /* \"contracts/sikkacoin.sol\":5645:5691  revert(\"Stake not found for given positionId\") */\n      mload(0x40)\n      0x08c379a000000000000000000000000000000000000000000000000000000000\n      dup2\n      mstore\n      0x04\n      add\n      tag_232\n      swap1\n      tag_233\n      jump\t// in\n    tag_232:\n      mload(0x40)\n      dup1\n      swap2\n      sub\n      swap1\n      revert\n        /* \"contracts/sikkacoin.sol\":2264:2265  _ */\n    tag_196:\n        /* \"contracts/sikkacoin.sol\":4476:5699  function claim(uint256 _positionId) external onlyRegistered {... */\n      pop\n      jump\t// out\n        /* \"contracts/sikkacoin.sol\":2281:2739  function register(address _referrer) external {... */\n    tag_60:\n        /* \"contracts/sikkacoin.sol\":2347:2352  users */\n      0x02\n        /* \"contracts/sikkacoin.sol\":2347:2364  users[msg.sender] */\n      0x00\n        /* \"contracts/sikkacoin.sol\":2353:2363  msg.sender */\n      caller\n        /* \"contracts/sikkacoin.sol\":2347:2364  users[msg.sender] */\n      0xffffffffffffffffffffffffffffffffffffffff\n      and\n      0xffffffffffffffffffffffffffffffffffffffff\n      and\n      dup2\n      mstore\n      0x20\n      add\n      swap1\n      dup2\n      mstore\n      0x20\n      add\n      0x00\n      keccak256\n        /* \"contracts/sikkacoin.sol\":2347:2375  users[msg.sender].registered */\n      0x00\n      add\n      0x14\n      swap1\n      sload\n      swap1\n      0x0100\n      exp\n      swap1\n      div\n      0xff\n      and\n        /* \"contracts/sikkacoin.sol\":2346:2375  !users[msg.sender].registered */\n      iszero\n        /* \"contracts/sikkacoin.sol\":2338:2398  require(!users[msg.sender].registered, \"Already registered\") */\n      tag_235\n      jumpi\n      mload(0x40)\n      0x08c379a000000000000000000000000000000000000000000000000000000000\n      dup2\n      mstore\n      0x04\n      add\n      tag_236\n      swap1\n      tag_237\n      jump\t// in\n    tag_236:\n      mload(0x40)\n      dup1\n      swap2\n      sub\n      swap1\n      revert\n    tag_235:\n        /* \"contracts/sikkacoin.sol\":2430:2440  msg.sender */\n      caller\n        /* \"contracts/sikkacoin.sol\":2417:2440  _referrer != msg.sender */\n      0xffffffffffffffffffffffffffffffffffffffff\n      and\n        /* \"contracts/sikkacoin.sol\":2417:2426  _referrer */\n      dup2\n        /* \"contracts/sikkacoin.sol\":2417:2440  _referrer != msg.sender */\n      0xffffffffffffffffffffffffffffffffffffffff\n      and\n      sub\n        /* \"contracts/sikkacoin.sol\":2409:2466  require(_referrer != msg.sender, \"Cannot refer yourself\") */\n      tag_238\n      jumpi\n      mload(0x40)\n      0x08c379a000000000000000000000000000000000000000000000000000000000\n      dup2\n      mstore\n      0x04\n      add\n      tag_239\n      swap1\n      tag_240\n      jump\t// in\n    tag_239:\n      mload(0x40)\n      dup1\n      swap2\n      sub\n      swap1\n      revert\n    tag_238:\n        /* \"contracts/sikkacoin.sol\":2485:2490  users */\n      0x02\n        /* \"contracts/sikkacoin.sol\":2485:2501  users[_referrer] */\n      0x00\n        /* \"contracts/sikkacoin.sol\":2491:2500  _referrer */\n      dup3\n        /* \"contracts/sikkacoin.sol\":2485:2501  users[_referrer] */\n      0xffffffffffffffffffffffffffffffffffffffff\n      and\n      0xffffffffffffffffffffffffffffffffffffffff\n      and\n      dup2\n      mstore\n      0x20\n      add\n      swap1\n      dup2\n      mstore\n      0x20\n      add\n      0x00\n      keccak256\n        /* \"contracts/sikkacoin.sol\":2485:2512  users[_referrer].registered */\n      0x00\n      add\n      0x14\n      swap1\n      sload\n      swap1\n      0x0100\n      exp\n      swap1\n      div\n      0xff\n      and\n        /* \"contracts/sikkacoin.sol\":2477:2540  require(users[_referrer].registered, \"Referrer not registered\") */\n      tag_241\n      jumpi\n      mload(0x40)\n      0x08c379a000000000000000000000000000000000000000000000000000000000\n      dup2\n      mstore\n      0x04\n      add\n      tag_242\n      swap1\n      tag_243\n      jump\t// in\n    tag_242:\n      mload(0x40)\n      dup1\n      swap2\n      sub\n      swap1\n      revert\n    tag_241:\n        /* \"contracts/sikkacoin.sol\":2582:2591  _referrer */\n      dup1\n        /* \"contracts/sikkacoin.sol\":2553:2558  users */\n      0x02\n        /* \"contracts/sikkacoin.sol\":2553:2570  users[msg.sender] */\n      0x00\n        /* \"contracts/sikkacoin.sol\":2559:2569  msg.sender */\n      caller\n        /* \"contracts/sikkacoin.sol\":2553:2570  users[msg.sender] */\n      0xffffffffffffffffffffffffffffffffffffffff\n      and\n      0xffffffffffffffffffffffffffffffffffffffff\n      and\n      dup2\n      mstore\n      0x20\n      add\n      swap1\n      dup2\n      mstore\n      0x20\n      add\n      0x00\n      keccak256\n        /* \"contracts/sikkacoin.sol\":2553:2579  users[msg.sender].referrer */\n      0x00\n      add\n      0x00\n        /* \"contracts/sikkacoin.sol\":2553:2591  users[msg.sender].referrer = _referrer */\n      0x0100\n      exp\n      dup2\n      sload\n      dup2\n      0xffffffffffffffffffffffffffffffffffffffff\n      mul\n      not\n      and\n      swap1\n      dup4\n      0xffffffffffffffffffffffffffffffffffffffff\n      and\n      mul\n      or\n      swap1\n      sstore\n      pop\n        /* \"contracts/sikkacoin.sol\":2633:2637  true */\n      0x01\n        /* \"contracts/sikkacoin.sol\":2602:2607  users */\n      0x02\n        /* \"contracts/sikkacoin.sol\":2602:2619  users[msg.sender] */\n      0x00\n        /* \"contracts/sikkacoin.sol\":2608:2618  msg.sender */\n      caller\n        /* \"contracts/sikkacoin.sol\":2602:2619  users[msg.sender] */\n      0xffffffffffffffffffffffffffffffffffffffff\n      and\n      0xffffffffffffffffffffffffffffffffffffffff\n      and\n      dup2\n      mstore\n      0x20\n      add\n      swap1\n      dup2\n      mstore\n      0x20\n      add\n      0x00\n      keccak256\n        /* \"contracts/sikkacoin.sol\":2602:2630  users[msg.sender].registered */\n      0x00\n      add\n      0x14\n        /* \"contracts/sikkacoin.sol\":2602:2637  users[msg.sender].registered = true */\n      0x0100\n      exp\n      dup2\n      sload\n      dup2\n      0xff\n      mul\n      not\n      and\n      swap1\n      dup4\n      iszero\n      iszero\n      mul\n      or\n      swap1\n      sstore\n      pop\n        /* \"contracts/sikkacoin.sol\":2648:2667  directReferralCount */\n      0x07\n        /* \"contracts/sikkacoin.sol\":2648:2678  directReferralCount[_referrer] */\n      0x00\n        /* \"contracts/sikkacoin.sol\":2668:2677  _referrer */\n      dup3\n        /* \"contracts/sikkacoin.sol\":2648:2678  directReferralCount[_referrer] */\n      0xffffffffffffffffffffffffffffffffffffffff\n      and\n      0xffffffffffffffffffffffffffffffffffffffff\n      and\n      dup2\n      mstore\n      0x20\n      add\n      swap1\n      dup2\n      mstore\n      0x20\n      add\n      0x00\n      keccak256\n      0x00\n        /* \"contracts/sikkacoin.sol\":2648:2680  directReferralCount[_referrer]++ */\n      dup2\n      sload\n      dup1\n      swap3\n      swap2\n      swap1\n      tag_244\n      swap1\n      tag_138\n      jump\t// in\n    tag_244:\n      swap2\n      swap1\n      pop\n      sstore\n      pop\n        /* \"contracts/sikkacoin.sol\":2721:2730  _referrer */\n      dup1\n        /* \"contracts/sikkacoin.sol\":2698:2731  Registered(msg.sender, _referrer) */\n      0xffffffffffffffffffffffffffffffffffffffff\n      and\n        /* \"contracts/sikkacoin.sol\":2709:2719  msg.sender */\n      caller\n        /* \"contracts/sikkacoin.sol\":2698:2731  Registered(msg.sender, _referrer) */\n      0xffffffffffffffffffffffffffffffffffffffff\n      and\n      0x0a31ee9d46a828884b81003c8498156ea6aa15b9b54bdd0ef0b533d9eba57e55\n      mload(0x40)\n      mload(0x40)\n      dup1\n      swap2\n      sub\n      swap1\n      log3\n        /* \"contracts/sikkacoin.sol\":2281:2739  function register(address _referrer) external {... */\n      pop\n      jump\t// out\n        /* \"contracts/sikkacoin.sol\":1104:1130  uint256 public nextStakeId */\n    tag_62:\n      sload(0x05)\n      dup2\n      jump\t// out\n        /* \"contracts/sikkacoin.sol\":6936:7665  function getStakeByPositionId(uint256 _positionId) external view returns (... */\n    tag_66:\n        /* \"contracts/sikkacoin.sol\":7020:7032  address user */\n      0x00\n        /* \"contracts/sikkacoin.sol\":7043:7058  uint256 stakeId */\n      dup1\n        /* \"contracts/sikkacoin.sol\":7069:7083  uint256 amount */\n      0x00\n        /* \"contracts/sikkacoin.sol\":7094:7111  uint256 timestamp */\n      dup1\n        /* \"contracts/sikkacoin.sol\":7122:7137  uint256 numDays */\n      0x00\n        /* \"contracts/sikkacoin.sol\":7148:7160  bool claimed */\n      dup1\n        /* \"contracts/sikkacoin.sol\":7179:7195  address userAddr */\n      0x00\n        /* \"contracts/sikkacoin.sol\":7198:7214  positionIdToUser */\n      0x03\n        /* \"contracts/sikkacoin.sol\":7198:7227  positionIdToUser[_positionId] */\n      0x00\n        /* \"contracts/sikkacoin.sol\":7215:7226  _positionId */\n      dup10\n        /* \"contracts/sikkacoin.sol\":7198:7227  positionIdToUser[_positionId] */\n      dup2\n      mstore\n      0x20\n      add\n      swap1\n      dup2\n      mstore\n      0x20\n      add\n      0x00\n      keccak256\n      0x00\n      swap1\n      sload\n      swap1\n      0x0100\n      exp\n      swap1\n      div\n      0xffffffffffffffffffffffffffffffffffffffff\n      and\n        /* \"contracts/sikkacoin.sol\":7179:7227  address userAddr = positionIdToUser[_positionId] */\n      swap1\n      pop\n        /* \"contracts/sikkacoin.sol\":7266:7267  0 */\n      0x00\n        /* \"contracts/sikkacoin.sol\":7246:7268  userAddr != address(0) */\n      0xffffffffffffffffffffffffffffffffffffffff\n      and\n        /* \"contracts/sikkacoin.sol\":7246:7254  userAddr */\n      dup2\n        /* \"contracts/sikkacoin.sol\":7246:7268  userAddr != address(0) */\n      0xffffffffffffffffffffffffffffffffffffffff\n      and\n      sub\n        /* \"contracts/sikkacoin.sol\":7238:7291  require(userAddr != address(0), \"Invalid positionId\") */\n      tag_246\n      jumpi\n      mload(0x40)\n      0x08c379a000000000000000000000000000000000000000000000000000000000\n      dup2\n      mstore\n      0x04\n      add\n      tag_247\n      swap1\n      tag_144\n      jump\t// in\n    tag_247:\n      mload(0x40)\n      dup1\n      swap2\n      sub\n      swap1\n      revert\n    tag_246:\n        /* \"contracts/sikkacoin.sol\":7304:7325  Stake[] memory stakes */\n      0x00\n        /* \"contracts/sikkacoin.sol\":7328:7333  users */\n      0x02\n        /* \"contracts/sikkacoin.sol\":7328:7343  users[userAddr] */\n      0x00\n        /* \"contracts/sikkacoin.sol\":7334:7342  userAddr */\n      dup4\n        /* \"contracts/sikkacoin.sol\":7328:7343  users[userAddr] */\n      0xffffffffffffffffffffffffffffffffffffffff\n      and\n      0xffffffffffffffffffffffffffffffffffffffff\n      and\n      dup2\n      mstore\n      0x20\n      add\n      swap1\n      dup2\n      mstore\n      0x20\n      add\n      0x00\n      keccak256\n        /* \"contracts/sikkacoin.sol\":7328:7350  users[userAddr].stakes */\n      0x01\n      add\n        /* \"contracts/sikkacoin.sol\":7304:7350  Stake[] memory stakes = users[userAddr].stakes */\n      dup1\n      sload\n      dup1\n      0x20\n      mul\n      0x20\n      add\n      mload(0x40)\n      swap1\n      dup2\n      add\n      0x40\n      mstore\n      dup1\n      swap3\n      swap2\n      swap1\n      dup2\n      dup2\n      mstore\n      0x20\n      add\n      0x00\n      swap1\n    tag_248:\n      dup3\n      dup3\n      lt\n      iszero\n      tag_249\n      jumpi\n      dup4\n      dup3\n      swap1\n      0x00\n      mstore\n      keccak256(0x00, 0x20)\n      swap1\n      0x06\n      mul\n      add\n      mload(0x40)\n      dup1\n      0xc0\n      add\n      0x40\n      mstore\n      swap1\n      dup2\n      0x00\n      dup3\n      add\n      sload\n      dup2\n      mstore\n      0x20\n      add\n      0x01\n      dup3\n      add\n      sload\n      dup2\n      mstore\n      0x20\n      add\n      0x02\n      dup3\n      add\n      sload\n      dup2\n      mstore\n      0x20\n      add\n      0x03\n      dup3\n      add\n      sload\n      dup2\n      mstore\n      0x20\n      add\n      0x04\n      dup3\n      add\n      sload\n      dup2\n      mstore\n      0x20\n      add\n      0x05\n      dup3\n      add\n      0x00\n      swap1\n      sload\n      swap1\n      0x0100\n      exp\n      swap1\n      div\n      0xff\n      and\n      iszero\n      iszero\n      iszero\n      iszero\n      dup2\n      mstore\n      pop\n      pop\n      dup2\n      mstore\n      0x20\n      add\n      swap1\n      0x01\n      add\n      swap1\n      jump(tag_248)\n    tag_249:\n      pop\n      pop\n      pop\n      pop\n      swap1\n      pop\n        /* \"contracts/sikkacoin.sol\":7366:7375  uint256 i */\n      0x00\n        /* \"contracts/sikkacoin.sol\":7361:7620  for (uint256 i = 0; i < stakes.length; i++) {... */\n    tag_251:\n        /* \"contracts/sikkacoin.sol\":7385:7391  stakes */\n      dup2\n        /* \"contracts/sikkacoin.sol\":7385:7398  stakes.length */\n      mload\n        /* \"contracts/sikkacoin.sol\":7381:7382  i */\n      dup2\n        /* \"contracts/sikkacoin.sol\":7381:7398  i < stakes.length */\n      lt\n        /* \"contracts/sikkacoin.sol\":7361:7620  for (uint256 i = 0; i < stakes.length; i++) {... */\n      iszero\n      tag_252\n      jumpi\n        /* \"contracts/sikkacoin.sol\":7448:7459  _positionId */\n      dup10\n        /* \"contracts/sikkacoin.sol\":7424:7430  stakes */\n      dup3\n        /* \"contracts/sikkacoin.sol\":7431:7432  i */\n      dup3\n        /* \"contracts/sikkacoin.sol\":7424:7433  stakes[i] */\n      dup2\n      mload\n      dup2\n      lt\n      tag_254\n      jumpi\n      tag_255\n      tag_153\n      jump\t// in\n    tag_255:\n    tag_254:\n      0x20\n      mul\n      0x20\n      add\n      add\n      mload\n        /* \"contracts/sikkacoin.sol\":7424:7444  stakes[i].positionId */\n      0x40\n      add\n      mload\n        /* \"contracts/sikkacoin.sol\":7424:7459  stakes[i].positionId == _positionId */\n      sub\n        /* \"contracts/sikkacoin.sol\":7420:7609  if (stakes[i].positionId == _positionId) {... */\n      tag_256\n      jumpi\n        /* \"contracts/sikkacoin.sol\":7488:7496  userAddr */\n      dup3\n        /* \"contracts/sikkacoin.sol\":7498:7504  stakes */\n      dup3\n        /* \"contracts/sikkacoin.sol\":7505:7506  i */\n      dup3\n        /* \"contracts/sikkacoin.sol\":7498:7507  stakes[i] */\n      dup2\n      mload\n      dup2\n      lt\n      tag_257\n      jumpi\n      tag_258\n      tag_153\n      jump\t// in\n    tag_258:\n    tag_257:\n      0x20\n      mul\n      0x20\n      add\n      add\n      mload\n        /* \"contracts/sikkacoin.sol\":7498:7515  stakes[i].stakeId */\n      0x00\n      add\n      mload\n        /* \"contracts/sikkacoin.sol\":7517:7523  stakes */\n      dup4\n        /* \"contracts/sikkacoin.sol\":7524:7525  i */\n      dup4\n        /* \"contracts/sikkacoin.sol\":7517:7526  stakes[i] */\n      dup2\n      mload\n      dup2\n      lt\n      tag_259\n      jumpi\n      tag_260\n      tag_153\n      jump\t// in\n    tag_260:\n    tag_259:\n      0x20\n      mul\n      0x20\n      add\n      add\n      mload\n        /* \"contracts/sikkacoin.sol\":7517:7533  stakes[i].amount */\n      0x20\n      add\n      mload\n        /* \"contracts/sikkacoin.sol\":7535:7541  stakes */\n      dup5\n        /* \"contracts/sikkacoin.sol\":7542:7543  i */\n      dup5\n        /* \"contracts/sikkacoin.sol\":7535:7544  stakes[i] */\n      dup2\n      mload\n      dup2\n      lt\n      tag_261\n      jumpi\n      tag_262\n      tag_153\n      jump\t// in\n    tag_262:\n    tag_261:\n      0x20\n      mul\n      0x20\n      add\n      add\n      mload\n        /* \"contracts/sikkacoin.sol\":7535:7554  stakes[i].timestamp */\n      0x60\n      add\n      mload\n        /* \"contracts/sikkacoin.sol\":7556:7562  stakes */\n      dup6\n        /* \"contracts/sikkacoin.sol\":7563:7564  i */\n      dup6\n        /* \"contracts/sikkacoin.sol\":7556:7565  stakes[i] */\n      dup2\n      mload\n      dup2\n      lt\n      tag_263\n      jumpi\n      tag_264\n      tag_153\n      jump\t// in\n    tag_264:\n    tag_263:\n      0x20\n      mul\n      0x20\n      add\n      add\n      mload\n        /* \"contracts/sikkacoin.sol\":7556:7573  stakes[i].numDays */\n      0x80\n      add\n      mload\n        /* \"contracts/sikkacoin.sol\":7575:7581  stakes */\n      dup7\n        /* \"contracts/sikkacoin.sol\":7582:7583  i */\n      dup7\n        /* \"contracts/sikkacoin.sol\":7575:7584  stakes[i] */\n      dup2\n      mload\n      dup2\n      lt\n      tag_265\n      jumpi\n      tag_266\n      tag_153\n      jump\t// in\n    tag_266:\n    tag_265:\n      0x20\n      mul\n      0x20\n      add\n      add\n      mload\n        /* \"contracts/sikkacoin.sol\":7575:7592  stakes[i].claimed */\n      0xa0\n      add\n      mload\n        /* \"contracts/sikkacoin.sol\":7480:7593  return (userAddr, stakes[i].stakeId, stakes[i].amount, stakes[i].timestamp, stakes[i].numDays, stakes[i].claimed) */\n      swap9\n      pop\n      swap9\n      pop\n      swap9\n      pop\n      swap9\n      pop\n      swap9\n      pop\n      swap9\n      pop\n      pop\n      pop\n      pop\n      jump(tag_245)\n        /* \"contracts/sikkacoin.sol\":7420:7609  if (stakes[i].positionId == _positionId) {... */\n    tag_256:\n        /* \"contracts/sikkacoin.sol\":7400:7403  i++ */\n      dup1\n      dup1\n      0x01\n      add\n      swap2\n      pop\n      pop\n        /* \"contracts/sikkacoin.sol\":7361:7620  for (uint256 i = 0; i < stakes.length; i++) {... */\n      jump(tag_251)\n    tag_252:\n      pop\n        /* \"contracts/sikkacoin.sol\":7632:7657  revert(\"Stake not found\") */\n      mload(0x40)\n      0x08c379a000000000000000000000000000000000000000000000000000000000\n      dup2\n      mstore\n      0x04\n      add\n      tag_267\n      swap1\n      tag_166\n      jump\t// in\n    tag_267:\n      mload(0x40)\n      dup1\n      swap2\n      sub\n      swap1\n      revert\n        /* \"contracts/sikkacoin.sol\":6936:7665  function getStakeByPositionId(uint256 _positionId) external view returns (... */\n    tag_245:\n      swap2\n      swap4\n      swap6\n      pop\n      swap2\n      swap4\n      swap6\n      jump\t// out\n        /* \"contracts/sikkacoin.sol\":2747:4112  function stake(uint256 numDays, uint256 amount) external onlyRegistered {... */\n    tag_72:\n        /* \"contracts/sikkacoin.sol\":2201:2206  users */\n      0x02\n        /* \"contracts/sikkacoin.sol\":2201:2218  users[msg.sender] */\n      0x00\n        /* \"contracts/sikkacoin.sol\":2207:2217  msg.sender */\n      caller\n        /* \"contracts/sikkacoin.sol\":2201:2218  users[msg.sender] */\n      0xffffffffffffffffffffffffffffffffffffffff\n      and\n      0xffffffffffffffffffffffffffffffffffffffff\n      and\n      dup2\n      mstore\n      0x20\n      add\n      swap1\n      dup2\n      mstore\n      0x20\n      add\n      0x00\n      keccak256\n        /* \"contracts/sikkacoin.sol\":2201:2229  users[msg.sender].registered */\n      0x00\n      add\n      0x14\n      swap1\n      sload\n      swap1\n      0x0100\n      exp\n      swap1\n      div\n      0xff\n      and\n        /* \"contracts/sikkacoin.sol\":2193:2253  require(users[msg.sender].registered, \"User not registered\") */\n      tag_269\n      jumpi\n      mload(0x40)\n      0x08c379a000000000000000000000000000000000000000000000000000000000\n      dup2\n      mstore\n      0x04\n      add\n      tag_270\n      swap1\n      tag_133\n      jump\t// in\n    tag_270:\n      mload(0x40)\n      dup1\n      swap2\n      sub\n      swap1\n      revert\n    tag_269:\n        /* \"contracts/sikkacoin.sol\":2847:2848  0 */\n      0x00\n        /* \"contracts/sikkacoin.sol\":2838:2844  amount */\n      dup2\n        /* \"contracts/sikkacoin.sol\":2838:2848  amount > 0 */\n      gt\n        /* \"contracts/sikkacoin.sol\":2830:2882  require(amount > 0, \"Amount must be greater than 0\") */\n      tag_272\n      jumpi\n      mload(0x40)\n      0x08c379a000000000000000000000000000000000000000000000000000000000\n      dup2\n      mstore\n      0x04\n      add\n      tag_273\n      swap1\n      tag_274\n      jump\t// in\n    tag_273:\n      mload(0x40)\n      dup1\n      swap2\n      sub\n      swap1\n      revert\n    tag_272:\n        /* \"contracts/sikkacoin.sol\":2923:2924  0 */\n      0x00\n        /* \"contracts/sikkacoin.sol\":2901:2911  stakingAPY */\n      0x0a\n        /* \"contracts/sikkacoin.sol\":2901:2920  stakingAPY[numDays] */\n      0x00\n        /* \"contracts/sikkacoin.sol\":2912:2919  numDays */\n      dup5\n        /* \"contracts/sikkacoin.sol\":2901:2920  stakingAPY[numDays] */\n      dup2\n      mstore\n      0x20\n      add\n      swap1\n      dup2\n      mstore\n      0x20\n      add\n      0x00\n      keccak256\n      sload\n        /* \"contracts/sikkacoin.sol\":2901:2924  stakingAPY[numDays] > 0 */\n      gt\n        /* \"contracts/sikkacoin.sol\":2893:2953  require(stakingAPY[numDays] > 0, \"Invalid staking duration\") */\n      tag_275\n      jumpi\n      mload(0x40)\n      0x08c379a000000000000000000000000000000000000000000000000000000000\n      dup2\n      mstore\n      0x04\n      add\n      tag_276\n      swap1\n      tag_277\n      jump\t// in\n    tag_276:\n      mload(0x40)\n      dup1\n      swap2\n      sub\n      swap1\n      revert\n    tag_275:\n        /* \"contracts/sikkacoin.sol\":2974:2979  token */\n      0x01\n      0x00\n      swap1\n      sload\n      swap1\n      0x0100\n      exp\n      swap1\n      div\n      0xffffffffffffffffffffffffffffffffffffffff\n      and\n        /* \"contracts/sikkacoin.sol\":2974:2992  token.transferFrom */\n      0xffffffffffffffffffffffffffffffffffffffff\n      and\n      0x23b872dd\n        /* \"contracts/sikkacoin.sol\":2993:3003  msg.sender */\n      caller\n        /* \"contracts/sikkacoin.sol\":3013:3017  this */\n      address\n        /* \"contracts/sikkacoin.sol\":3020:3026  amount */\n      dup5\n        /* \"contracts/sikkacoin.sol\":2974:3027  token.transferFrom(msg.sender, address(this), amount) */\n      mload(0x40)\n      dup5\n      0xffffffff\n      and\n      0xe0\n      shl\n      dup2\n      mstore\n      0x04\n      add\n      tag_278\n      swap4\n      swap3\n      swap2\n      swap1\n      tag_279\n      jump\t// in\n    tag_278:\n      0x20\n      mload(0x40)\n      dup1\n      dup4\n      sub\n      dup2\n      0x00\n      dup8\n      gas\n      call\n      iszero\n      dup1\n      iszero\n      tag_281\n      jumpi\n      returndatasize\n      0x00\n      dup1\n      returndatacopy\n      revert(0x00, returndatasize)\n    tag_281:\n      pop\n      pop\n      pop\n      pop\n      mload(0x40)\n      returndatasize\n      not(0x1f)\n      0x1f\n      dup3\n      add\n      and\n      dup3\n      add\n      dup1\n      0x40\n      mstore\n      pop\n      dup2\n      add\n      swap1\n      tag_282\n      swap2\n      swap1\n      tag_189\n      jump\t// in\n    tag_282:\n        /* \"contracts/sikkacoin.sol\":2966:3053  require(token.transferFrom(msg.sender, address(this), amount), \"Token transfer failed\") */\n      tag_283\n      jumpi\n      mload(0x40)\n      0x08c379a000000000000000000000000000000000000000000000000000000000\n      dup2\n      mstore\n      0x04\n      add\n      tag_284\n      swap1\n      tag_229\n      jump\t// in\n    tag_284:\n      mload(0x40)\n      dup1\n      swap2\n      sub\n      swap1\n      revert\n    tag_283:\n        /* \"contracts/sikkacoin.sol\":3066:3081  uint256 stakeId */\n      0x00\n        /* \"contracts/sikkacoin.sol\":3084:3095  nextStakeId */\n      0x05\n      0x00\n        /* \"contracts/sikkacoin.sol\":3084:3097  nextStakeId++ */\n      dup2\n      sload\n      dup1\n      swap3\n      swap2\n      swap1\n      tag_285\n      swap1\n      tag_138\n      jump\t// in\n    tag_285:\n      swap2\n      swap1\n      pop\n      sstore\n        /* \"contracts/sikkacoin.sol\":3066:3097  uint256 stakeId = nextStakeId++ */\n      swap1\n      pop\n        /* \"contracts/sikkacoin.sol\":3108:3126  uint256 positionId */\n      0x00\n        /* \"contracts/sikkacoin.sol\":3129:3143  nextPositionId */\n      0x06\n      0x00\n        /* \"contracts/sikkacoin.sol\":3129:3145  nextPositionId++ */\n      dup2\n      sload\n      dup1\n      swap3\n      swap2\n      swap1\n      tag_286\n      swap1\n      tag_138\n      jump\t// in\n    tag_286:\n      swap2\n      swap1\n      pop\n      sstore\n        /* \"contracts/sikkacoin.sol\":3108:3145  uint256 positionId = nextPositionId++ */\n      swap1\n      pop\n        /* \"contracts/sikkacoin.sol\":3156:3173  uint256 timestamp */\n      0x00\n        /* \"contracts/sikkacoin.sol\":3176:3191  block.timestamp */\n      timestamp\n        /* \"contracts/sikkacoin.sol\":3156:3191  uint256 timestamp = block.timestamp */\n      swap1\n      pop\n        /* \"contracts/sikkacoin.sol\":3204:3209  users */\n      0x02\n        /* \"contracts/sikkacoin.sol\":3204:3221  users[msg.sender] */\n      0x00\n        /* \"contracts/sikkacoin.sol\":3210:3220  msg.sender */\n      caller\n        /* \"contracts/sikkacoin.sol\":3204:3221  users[msg.sender] */\n      0xffffffffffffffffffffffffffffffffffffffff\n      and\n      0xffffffffffffffffffffffffffffffffffffffff\n      and\n      dup2\n      mstore\n      0x20\n      add\n      swap1\n      dup2\n      mstore\n      0x20\n      add\n      0x00\n      keccak256\n        /* \"contracts/sikkacoin.sol\":3204:3228  users[msg.sender].stakes */\n      0x01\n      add\n        /* \"contracts/sikkacoin.sol\":3234:3444  Stake({... */\n      mload(0x40)\n      dup1\n      0xc0\n      add\n      0x40\n      mstore\n      dup1\n        /* \"contracts/sikkacoin.sol\":3264:3271  stakeId */\n      dup6\n        /* \"contracts/sikkacoin.sol\":3234:3444  Stake({... */\n      dup2\n      mstore\n      0x20\n      add\n        /* \"contracts/sikkacoin.sol\":3294:3300  amount */\n      dup7\n        /* \"contracts/sikkacoin.sol\":3234:3444  Stake({... */\n      dup2\n      mstore\n      0x20\n      add\n        /* \"contracts/sikkacoin.sol\":3327:3337  positionId */\n      dup5\n        /* \"contracts/sikkacoin.sol\":3234:3444  Stake({... */\n      dup2\n      mstore\n      0x20\n      add\n        /* \"contracts/sikkacoin.sol\":3363:3372  timestamp */\n      dup4\n        /* \"contracts/sikkacoin.sol\":3234:3444  Stake({... */\n      dup2\n      mstore\n      0x20\n      add\n        /* \"contracts/sikkacoin.sol\":3396:3403  numDays */\n      dup8\n        /* \"contracts/sikkacoin.sol\":3234:3444  Stake({... */\n      dup2\n      mstore\n      0x20\n      add\n        /* \"contracts/sikkacoin.sol\":3427:3432  false */\n      0x00\n        /* \"contracts/sikkacoin.sol\":3234:3444  Stake({... */\n      iszero\n      iszero\n      dup2\n      mstore\n      pop\n        /* \"contracts/sikkacoin.sol\":3204:3445  users[msg.sender].stakes.push(Stake({... */\n      swap1\n      dup1\n      0x01\n      dup2\n      sload\n      add\n      dup1\n      dup3\n      sstore\n      dup1\n      swap2\n      pop\n      pop\n      0x01\n      swap1\n      sub\n      swap1\n      0x00\n      mstore\n      keccak256(0x00, 0x20)\n      swap1\n      0x06\n      mul\n      add\n      0x00\n      swap1\n      swap2\n      swap1\n      swap2\n      swap1\n      swap2\n      pop\n      0x00\n      dup3\n      add\n      mload\n      dup2\n      0x00\n      add\n      sstore\n      0x20\n      dup3\n      add\n      mload\n      dup2\n      0x01\n      add\n      sstore\n      0x40\n      dup3\n      add\n      mload\n      dup2\n      0x02\n      add\n      sstore\n      0x60\n      dup3\n      add\n      mload\n      dup2\n      0x03\n      add\n      sstore\n      0x80\n      dup3\n      add\n      mload\n      dup2\n      0x04\n      add\n      sstore\n      0xa0\n      dup3\n      add\n      mload\n      dup2\n      0x05\n      add\n      exp(0x0100, 0x00)\n      dup2\n      sload\n      dup2\n      0xff\n      mul\n      not\n      and\n      swap1\n      dup4\n      iszero\n      iszero\n      mul\n      or\n      swap1\n      sstore\n      pop\n      pop\n      pop\n        /* \"contracts/sikkacoin.sol\":3489:3499  msg.sender */\n      caller\n        /* \"contracts/sikkacoin.sol\":3458:3474  positionIdToUser */\n      0x03\n        /* \"contracts/sikkacoin.sol\":3458:3486  positionIdToUser[positionId] */\n      0x00\n        /* \"contracts/sikkacoin.sol\":3475:3485  positionId */\n      dup5\n        /* \"contracts/sikkacoin.sol\":3458:3486  positionIdToUser[positionId] */\n      dup2\n      mstore\n      0x20\n      add\n      swap1\n      dup2\n      mstore\n      0x20\n      add\n      0x00\n      keccak256\n      0x00\n        /* \"contracts/sikkacoin.sol\":3458:3499  positionIdToUser[positionId] = msg.sender */\n      0x0100\n      exp\n      dup2\n      sload\n      dup2\n      0xffffffffffffffffffffffffffffffffffffffff\n      mul\n      not\n      and\n      swap1\n      dup4\n      0xffffffffffffffffffffffffffffffffffffffff\n      and\n      mul\n      or\n      swap1\n      sstore\n      pop\n        /* \"contracts/sikkacoin.sol\":3512:3526  address upline */\n      0x00\n        /* \"contracts/sikkacoin.sol\":3529:3534  users */\n      0x02\n        /* \"contracts/sikkacoin.sol\":3529:3546  users[msg.sender] */\n      0x00\n        /* \"contracts/sikkacoin.sol\":3535:3545  msg.sender */\n      caller\n        /* \"contracts/sikkacoin.sol\":3529:3546  users[msg.sender] */\n      0xffffffffffffffffffffffffffffffffffffffff\n      and\n      0xffffffffffffffffffffffffffffffffffffffff\n      and\n      dup2\n      mstore\n      0x20\n      add\n      swap1\n      dup2\n      mstore\n      0x20\n      add\n      0x00\n      keccak256\n        /* \"contracts/sikkacoin.sol\":3529:3555  users[msg.sender].referrer */\n      0x00\n      add\n      0x00\n      swap1\n      sload\n      swap1\n      0x0100\n      exp\n      swap1\n      div\n      0xffffffffffffffffffffffffffffffffffffffff\n      and\n        /* \"contracts/sikkacoin.sol\":3512:3555  address upline = users[msg.sender].referrer */\n      swap1\n      pop\n        /* \"contracts/sikkacoin.sol\":3571:3578  uint8 i */\n      0x00\n        /* \"contracts/sikkacoin.sol\":3566:4029  for (uint8 i = 0; i < levelRewards.length; i++) {... */\n    tag_288:\n        /* \"contracts/sikkacoin.sol\":3588:3607  levelRewards.length */\n      0x05\n        /* \"contracts/sikkacoin.sol\":3584:3585  i */\n      dup2\n        /* \"contracts/sikkacoin.sol\":3584:3607  i < levelRewards.length */\n      0xff\n      and\n      lt\n        /* \"contracts/sikkacoin.sol\":3566:4029  for (uint8 i = 0; i < levelRewards.length; i++) {... */\n      iszero\n      tag_289\n      jumpi\n        /* \"contracts/sikkacoin.sol\":3651:3652  0 */\n      0x00\n        /* \"contracts/sikkacoin.sol\":3633:3653  upline == address(0) */\n      0xffffffffffffffffffffffffffffffffffffffff\n      and\n        /* \"contracts/sikkacoin.sol\":3633:3639  upline */\n      dup3\n        /* \"contracts/sikkacoin.sol\":3633:3653  upline == address(0) */\n      0xffffffffffffffffffffffffffffffffffffffff\n      and\n      sub\n        /* \"contracts/sikkacoin.sol\":3629:3660  if (upline == address(0)) break */\n      iszero\n        /* \"contracts/sikkacoin.sol\":3655:3660  break */\n      tag_289\n        /* \"contracts/sikkacoin.sol\":3629:3660  if (upline == address(0)) break */\n      jumpi\n        /* \"contracts/sikkacoin.sol\":3677:3695  uint256 commission */\n      0x00\n        /* \"contracts/sikkacoin.sol\":3727:3730  100 */\n      0x64\n        /* \"contracts/sikkacoin.sol\":3708:3720  levelRewards */\n      0x04\n        /* \"contracts/sikkacoin.sol\":3721:3722  i */\n      dup4\n        /* \"contracts/sikkacoin.sol\":3708:3723  levelRewards[i] */\n      0xff\n      and\n      0x05\n      dup2\n      lt\n      tag_292\n      jumpi\n      tag_293\n      tag_153\n      jump\t// in\n    tag_293:\n    tag_292:\n      0x20\n      swap2\n      dup3\n      dup3\n      div\n      add\n      swap2\n      swap1\n      mod\n      swap1\n      sload\n      swap1\n      0x0100\n      exp\n      swap1\n      div\n      0xff\n      and\n        /* \"contracts/sikkacoin.sol\":3699:3723  amount * levelRewards[i] */\n      0xff\n      and\n        /* \"contracts/sikkacoin.sol\":3699:3705  amount */\n      dup9\n        /* \"contracts/sikkacoin.sol\":3699:3723  amount * levelRewards[i] */\n      tag_295\n      swap2\n      swap1\n      tag_160\n      jump\t// in\n    tag_295:\n        /* \"contracts/sikkacoin.sol\":3698:3730  (amount * levelRewards[i]) / 100 */\n      tag_296\n      swap2\n      swap1\n      tag_163\n      jump\t// in\n    tag_296:\n        /* \"contracts/sikkacoin.sol\":3677:3730  uint256 commission = (amount * levelRewards[i]) / 100 */\n      swap1\n      pop\n        /* \"contracts/sikkacoin.sol\":3753:3758  token */\n      0x01\n      0x00\n      swap1\n      sload\n      swap1\n      0x0100\n      exp\n      swap1\n      div\n      0xffffffffffffffffffffffffffffffffffffffff\n      and\n        /* \"contracts/sikkacoin.sol\":3753:3767  token.transfer */\n      0xffffffffffffffffffffffffffffffffffffffff\n      and\n      0xa9059cbb\n        /* \"contracts/sikkacoin.sol\":3768:3774  upline */\n      dup5\n        /* \"contracts/sikkacoin.sol\":3776:3786  commission */\n      dup4\n        /* \"contracts/sikkacoin.sol\":3753:3787  token.transfer(upline, commission) */\n      mload(0x40)\n      dup4\n      0xffffffff\n      and\n      0xe0\n      shl\n      dup2\n      mstore\n      0x04\n      add\n      tag_297\n      swap3\n      swap2\n      swap1\n      tag_185\n      jump\t// in\n    tag_297:\n      0x20\n      mload(0x40)\n      dup1\n      dup4\n      sub\n      dup2\n      0x00\n      dup8\n      gas\n      call\n      iszero\n      dup1\n      iszero\n      tag_299\n      jumpi\n      returndatasize\n      0x00\n      dup1\n      returndatacopy\n      revert(0x00, returndatasize)\n    tag_299:\n      pop\n      pop\n      pop\n      pop\n      mload(0x40)\n      returndatasize\n      not(0x1f)\n      0x1f\n      dup3\n      add\n      and\n      dup3\n      add\n      dup1\n      0x40\n      mstore\n      pop\n      dup2\n      add\n      swap1\n      tag_300\n      swap2\n      swap1\n      tag_189\n      jump\t// in\n    tag_300:\n        /* \"contracts/sikkacoin.sol\":3745:3816  require(token.transfer(upline, commission), \"Referral transfer failed\") */\n      tag_301\n      jumpi\n      mload(0x40)\n      0x08c379a000000000000000000000000000000000000000000000000000000000\n      dup2\n      mstore\n      0x04\n      add\n      tag_302\n      swap1\n      tag_303\n      jump\t// in\n    tag_302:\n      mload(0x40)\n      dup1\n      swap2\n      sub\n      swap1\n      revert\n    tag_301:\n        /* \"contracts/sikkacoin.sol\":3856:3866  commission */\n      dup1\n        /* \"contracts/sikkacoin.sol\":3833:3844  totalIncome */\n      0x09\n        /* \"contracts/sikkacoin.sol\":3833:3852  totalIncome[upline] */\n      0x00\n        /* \"contracts/sikkacoin.sol\":3845:3851  upline */\n      dup6\n        /* \"contracts/sikkacoin.sol\":3833:3852  totalIncome[upline] */\n      0xffffffffffffffffffffffffffffffffffffffff\n      and\n      0xffffffffffffffffffffffffffffffffffffffff\n      and\n      dup2\n      mstore\n      0x20\n      add\n      swap1\n      dup2\n      mstore\n      0x20\n      add\n      0x00\n      keccak256\n      0x00\n        /* \"contracts/sikkacoin.sol\":3833:3866  totalIncome[upline] += commission */\n      dup3\n      dup3\n      sload\n      tag_304\n      swap2\n      swap1\n      tag_222\n      jump\t// in\n    tag_304:\n      swap3\n      pop\n      pop\n      dup2\n      swap1\n      sstore\n      pop\n        /* \"contracts/sikkacoin.sol\":3890:3891  0 */\n      0x00\n        /* \"contracts/sikkacoin.sol\":3885:3886  i */\n      dup3\n        /* \"contracts/sikkacoin.sol\":3885:3891  i == 0 */\n      0xff\n      and\n      sub\n        /* \"contracts/sikkacoin.sol\":3881:3970  if (i == 0) {... */\n      tag_305\n      jumpi\n        /* \"contracts/sikkacoin.sol\":3944:3954  commission */\n      dup1\n        /* \"contracts/sikkacoin.sol\":3912:3932  directReferralIncome */\n      0x08\n        /* \"contracts/sikkacoin.sol\":3912:3940  directReferralIncome[upline] */\n      0x00\n        /* \"contracts/sikkacoin.sol\":3933:3939  upline */\n      dup6\n        /* \"contracts/sikkacoin.sol\":3912:3940  directReferralIncome[upline] */\n      0xffffffffffffffffffffffffffffffffffffffff\n      and\n      0xffffffffffffffffffffffffffffffffffffffff\n      and\n      dup2\n      mstore\n      0x20\n      add\n      swap1\n      dup2\n      mstore\n      0x20\n      add\n      0x00\n      keccak256\n      0x00\n        /* \"contracts/sikkacoin.sol\":3912:3954  directReferralIncome[upline] += commission */\n      dup3\n      dup3\n      sload\n      tag_306\n      swap2\n      swap1\n      tag_222\n      jump\t// in\n    tag_306:\n      swap3\n      pop\n      pop\n      dup2\n      swap1\n      sstore\n      pop\n        /* \"contracts/sikkacoin.sol\":3881:3970  if (i == 0) {... */\n    tag_305:\n        /* \"contracts/sikkacoin.sol\":3995:4000  users */\n      0x02\n        /* \"contracts/sikkacoin.sol\":3995:4008  users[upline] */\n      0x00\n        /* \"contracts/sikkacoin.sol\":4001:4007  upline */\n      dup5\n        /* \"contracts/sikkacoin.sol\":3995:4008  users[upline] */\n      0xffffffffffffffffffffffffffffffffffffffff\n      and\n      0xffffffffffffffffffffffffffffffffffffffff\n      and\n      dup2\n      mstore\n      0x20\n      add\n      swap1\n      dup2\n      mstore\n      0x20\n      add\n      0x00\n      keccak256\n        /* \"contracts/sikkacoin.sol\":3995:4017  users[upline].referrer */\n      0x00\n      add\n      0x00\n      swap1\n      sload\n      swap1\n      0x0100\n      exp\n      swap1\n      div\n      0xffffffffffffffffffffffffffffffffffffffff\n      and\n        /* \"contracts/sikkacoin.sol\":3986:4017  upline = users[upline].referrer */\n      swap3\n      pop\n        /* \"contracts/sikkacoin.sol\":3614:4029  {... */\n      pop\n        /* \"contracts/sikkacoin.sol\":3609:3612  i++ */\n      dup1\n      dup1\n      tag_307\n      swap1\n      tag_308\n      jump\t// in\n    tag_307:\n      swap2\n      pop\n      pop\n        /* \"contracts/sikkacoin.sol\":3566:4029  for (uint8 i = 0; i < levelRewards.length; i++) {... */\n      jump(tag_288)\n    tag_289:\n      pop\n        /* \"contracts/sikkacoin.sol\":4074:4084  positionId */\n      dup3\n        /* \"contracts/sikkacoin.sol\":4065:4072  stakeId */\n      dup5\n        /* \"contracts/sikkacoin.sol\":4053:4063  msg.sender */\n      caller\n        /* \"contracts/sikkacoin.sol\":4046:4104  Staked(msg.sender, stakeId, positionId, amount, timestamp) */\n      0xffffffffffffffffffffffffffffffffffffffff\n      and\n      0x9cfd25589d1eb8ad71e342a86a8524e83522e3936c0803048c08f6d9ad974f40\n        /* \"contracts/sikkacoin.sol\":4086:4092  amount */\n      dup9\n        /* \"contracts/sikkacoin.sol\":4094:4103  timestamp */\n      dup7\n        /* \"contracts/sikkacoin.sol\":4046:4104  Staked(msg.sender, stakeId, positionId, amount, timestamp) */\n      mload(0x40)\n      tag_309\n      swap3\n      swap2\n      swap1\n      tag_231\n      jump\t// in\n    tag_309:\n      mload(0x40)\n      dup1\n      swap2\n      sub\n      swap1\n      log4\n        /* \"contracts/sikkacoin.sol\":2819:4112  {... */\n      pop\n      pop\n      pop\n      pop\n        /* \"contracts/sikkacoin.sol\":2747:4112  function stake(uint256 numDays, uint256 amount) external onlyRegistered {... */\n      pop\n      pop\n      jump\t// out\n        /* \"contracts/sikkacoin.sol\":1298:1344  mapping(address => uint256) public totalIncome */\n    tag_75:\n      mstore(0x20, 0x09)\n      dup1\n      0x00\n      mstore\n      keccak256(0x00, 0x40)\n      0x00\n      swap2\n      pop\n      swap1\n      pop\n      sload\n      dup2\n      jump\t// out\n        /* \"contracts/sikkacoin.sol\":1353:1398  mapping(uint256 => uint256) public stakingAPY */\n    tag_79:\n      mstore(0x20, 0x0a)\n      dup1\n      0x00\n      mstore\n      keccak256(0x00, 0x40)\n      0x00\n      swap2\n      pop\n      swap1\n      pop\n      sload\n      dup2\n      jump\t// out\n        /* \"contracts/sikkacoin.sol\":1137:1166  uint256 public nextPositionId */\n    tag_82:\n      sload(0x06)\n      dup2\n      jump\t// out\n        /* \"contracts/sikkacoin.sol\":602:622  address public owner */\n    tag_85:\n      0x00\n      dup1\n      sload\n      swap1\n      0x0100\n      exp\n      swap1\n      div\n      0xffffffffffffffffffffffffffffffffffffffff\n      and\n      dup2\n      jump\t// out\n        /* \"contracts/sikkacoin.sol\":8548:8677  function getDirectReferralCount(address user) external view returns (uint256) {... */\n    tag_89:\n        /* \"contracts/sikkacoin.sol\":8617:8624  uint256 */\n      0x00\n        /* \"contracts/sikkacoin.sol\":8644:8663  directReferralCount */\n      0x07\n        /* \"contracts/sikkacoin.sol\":8644:8669  directReferralCount[user] */\n      0x00\n        /* \"contracts/sikkacoin.sol\":8664:8668  user */\n      dup4\n        /* \"contracts/sikkacoin.sol\":8644:8669  directReferralCount[user] */\n      0xffffffffffffffffffffffffffffffffffffffff\n      and\n      0xffffffffffffffffffffffffffffffffffffffff\n      and\n      dup2\n      mstore\n      0x20\n      add\n      swap1\n      dup2\n      mstore\n      0x20\n      add\n      0x00\n      keccak256\n      sload\n        /* \"contracts/sikkacoin.sol\":8637:8669  return directReferralCount[user] */\n      swap1\n      pop\n        /* \"contracts/sikkacoin.sol\":8548:8677  function getDirectReferralCount(address user) external view returns (uint256) {... */\n      swap2\n      swap1\n      pop\n      jump\t// out\n        /* \"contracts/sikkacoin.sol\":949:986  mapping(address => User) public users */\n    tag_93:\n      mstore(0x20, 0x02)\n      dup1\n      0x00\n      mstore\n      keccak256(0x00, 0x40)\n      0x00\n      swap2\n      pop\n      swap1\n      pop\n      dup1\n      0x00\n      add\n      0x00\n      swap1\n      sload\n      swap1\n      0x0100\n      exp\n      swap1\n      div\n      0xffffffffffffffffffffffffffffffffffffffff\n      and\n      swap1\n      dup1\n      0x00\n      add\n      0x14\n      swap1\n      sload\n      swap1\n      0x0100\n      exp\n      swap1\n      div\n      0xff\n      and\n      swap1\n      pop\n      dup3\n      jump\t// out\n        /* \"contracts/sikkacoin.sol\":8685:8816  function getDirectReferralIncome(address user) external view returns (uint256) {... */\n    tag_98:\n        /* \"contracts/sikkacoin.sol\":8755:8762  uint256 */\n      0x00\n        /* \"contracts/sikkacoin.sol\":8782:8802  directReferralIncome */\n      0x08\n        /* \"contracts/sikkacoin.sol\":8782:8808  directReferralIncome[user] */\n      0x00\n        /* \"contracts/sikkacoin.sol\":8803:8807  user */\n      dup4\n        /* \"contracts/sikkacoin.sol\":8782:8808  directReferralIncome[user] */\n      0xffffffffffffffffffffffffffffffffffffffff\n      and\n      0xffffffffffffffffffffffffffffffffffffffff\n      and\n      dup2\n      mstore\n      0x20\n      add\n      swap1\n      dup2\n      mstore\n      0x20\n      add\n      0x00\n      keccak256\n      sload\n        /* \"contracts/sikkacoin.sol\":8775:8808  return directReferralIncome[user] */\n      swap1\n      pop\n        /* \"contracts/sikkacoin.sol\":8685:8816  function getDirectReferralIncome(address user) external view returns (uint256) {... */\n      swap2\n      swap1\n      pop\n      jump\t// out\n        /* \"contracts/sikkacoin.sol\":1175:1229  mapping(address => uint256) public directReferralCount */\n    tag_102:\n      mstore(0x20, 0x07)\n      dup1\n      0x00\n      mstore\n      keccak256(0x00, 0x40)\n      0x00\n      swap2\n      pop\n      swap1\n      pop\n      sload\n      dup2\n      jump\t// out\n        /* \"contracts/sikkacoin.sol\":4120:4466  function getEstimatedReturn(uint256 amount, uint256 numDays) external view returns (uint256 reward) {... */\n    tag_106:\n        /* \"contracts/sikkacoin.sol\":4204:4218  uint256 reward */\n      0x00\n        /* \"contracts/sikkacoin.sol\":4244:4245  0 */\n      dup1\n        /* \"contracts/sikkacoin.sol\":4235:4241  amount */\n      dup4\n        /* \"contracts/sikkacoin.sol\":4235:4245  amount > 0 */\n      gt\n        /* \"contracts/sikkacoin.sol\":4227:4279  require(amount > 0, \"Amount must be greater than 0\") */\n      tag_313\n      jumpi\n      mload(0x40)\n      0x08c379a000000000000000000000000000000000000000000000000000000000\n      dup2\n      mstore\n      0x04\n      add\n      tag_314\n      swap1\n      tag_274\n      jump\t// in\n    tag_314:\n      mload(0x40)\n      dup1\n      swap2\n      sub\n      swap1\n      revert\n    tag_313:\n        /* \"contracts/sikkacoin.sol\":4316:4317  0 */\n      0x00\n        /* \"contracts/sikkacoin.sol\":4294:4304  stakingAPY */\n      0x0a\n        /* \"contracts/sikkacoin.sol\":4294:4313  stakingAPY[numDays] */\n      0x00\n        /* \"contracts/sikkacoin.sol\":4305:4312  numDays */\n      dup5\n        /* \"contracts/sikkacoin.sol\":4294:4313  stakingAPY[numDays] */\n      dup2\n      mstore\n      0x20\n      add\n      swap1\n      dup2\n      mstore\n      0x20\n      add\n      0x00\n      keccak256\n      sload\n        /* \"contracts/sikkacoin.sol\":4294:4317  stakingAPY[numDays] > 0 */\n      gt\n        /* \"contracts/sikkacoin.sol\":4286:4346  require(stakingAPY[numDays] > 0, \"Invalid staking duration\") */\n      tag_315\n      jumpi\n      mload(0x40)\n      0x08c379a000000000000000000000000000000000000000000000000000000000\n      dup2\n      mstore\n      0x04\n      add\n      tag_316\n      swap1\n      tag_277\n      jump\t// in\n    tag_316:\n      mload(0x40)\n      dup1\n      swap2\n      sub\n      swap1\n      revert\n    tag_315:\n        /* \"contracts/sikkacoin.sol\":4355:4366  uint256 apy */\n      0x00\n        /* \"contracts/sikkacoin.sol\":4369:4379  stakingAPY */\n      0x0a\n        /* \"contracts/sikkacoin.sol\":4369:4388  stakingAPY[numDays] */\n      0x00\n        /* \"contracts/sikkacoin.sol\":4380:4387  numDays */\n      dup5\n        /* \"contracts/sikkacoin.sol\":4369:4388  stakingAPY[numDays] */\n      dup2\n      mstore\n      0x20\n      add\n      swap1\n      dup2\n      mstore\n      0x20\n      add\n      0x00\n      keccak256\n      sload\n        /* \"contracts/sikkacoin.sol\":4355:4388  uint256 apy = stakingAPY[numDays] */\n      swap1\n      pop\n        /* \"contracts/sikkacoin.sol\":4432:4441  100 * 365 */\n      0x8e94\n        /* \"contracts/sikkacoin.sol\":4420:4427  numDays */\n      dup4\n        /* \"contracts/sikkacoin.sol\":4414:4417  apy */\n      dup3\n        /* \"contracts/sikkacoin.sol\":4405:4411  amount */\n      dup7\n        /* \"contracts/sikkacoin.sol\":4405:4417  amount * apy */\n      tag_317\n      swap2\n      swap1\n      tag_160\n      jump\t// in\n    tag_317:\n        /* \"contracts/sikkacoin.sol\":4405:4427  amount * apy * numDays */\n      tag_318\n      swap2\n      swap1\n      tag_160\n      jump\t// in\n    tag_318:\n        /* \"contracts/sikkacoin.sol\":4404:4442  (amount * apy * numDays) / (100 * 365) */\n      tag_319\n      swap2\n      swap1\n      tag_163\n      jump\t// in\n    tag_319:\n        /* \"contracts/sikkacoin.sol\":4395:4442  reward = (amount * apy * numDays) / (100 * 365) */\n      swap2\n      pop\n        /* \"contracts/sikkacoin.sol\":4449:4462  return reward */\n      pop\n        /* \"contracts/sikkacoin.sol\":4120:4466  function getEstimatedReturn(uint256 amount, uint256 numDays) external view returns (uint256 reward) {... */\n      swap3\n      swap2\n      pop\n      pop\n      jump\t// out\n        /* \"contracts/sikkacoin.sol\":8824:8937  function getTotalIncome(address user) external view returns (uint256) {... */\n    tag_110:\n        /* \"contracts/sikkacoin.sol\":8885:8892  uint256 */\n      0x00\n        /* \"contracts/sikkacoin.sol\":8912:8923  totalIncome */\n      0x09\n        /* \"contracts/sikkacoin.sol\":8912:8929  totalIncome[user] */\n      0x00\n        /* \"contracts/sikkacoin.sol\":8924:8928  user */\n      dup4\n        /* \"contracts/sikkacoin.sol\":8912:8929  totalIncome[user] */\n      0xffffffffffffffffffffffffffffffffffffffff\n      and\n      0xffffffffffffffffffffffffffffffffffffffff\n      and\n      dup2\n      mstore\n      0x20\n      add\n      swap1\n      dup2\n      mstore\n      0x20\n      add\n      0x00\n      keccak256\n      sload\n        /* \"contracts/sikkacoin.sol\":8905:8929  return totalIncome[user] */\n      swap1\n      pop\n        /* \"contracts/sikkacoin.sol\":8824:8937  function getTotalIncome(address user) external view returns (uint256) {... */\n      swap2\n      swap1\n      pop\n      jump\t// out\n        /* \"contracts/sikkacoin.sol\":5711:5816  function isRegistered(address user) external view returns (bool) {... */\n    tag_114:\n        /* \"contracts/sikkacoin.sol\":5770:5774  bool */\n      0x00\n        /* \"contracts/sikkacoin.sol\":5790:5795  users */\n      0x02\n        /* \"contracts/sikkacoin.sol\":5790:5801  users[user] */\n      0x00\n        /* \"contracts/sikkacoin.sol\":5796:5800  user */\n      dup4\n        /* \"contracts/sikkacoin.sol\":5790:5801  users[user] */\n      0xffffffffffffffffffffffffffffffffffffffff\n      and\n      0xffffffffffffffffffffffffffffffffffffffff\n      and\n      dup2\n      mstore\n      0x20\n      add\n      swap1\n      dup2\n      mstore\n      0x20\n      add\n      0x00\n      keccak256\n        /* \"contracts/sikkacoin.sol\":5790:5812  users[user].registered */\n      0x00\n      add\n      0x14\n      swap1\n      sload\n      swap1\n      0x0100\n      exp\n      swap1\n      div\n      0xff\n      and\n        /* \"contracts/sikkacoin.sol\":5783:5812  return users[user].registered */\n      swap1\n      pop\n        /* \"contracts/sikkacoin.sol\":5711:5816  function isRegistered(address user) external view returns (bool) {... */\n      swap2\n      swap1\n      pop\n      jump\t// out\n        /* \"contracts/sikkacoin.sol\":1053:1097  uint8[5] public levelRewards = [5, 3, 2,1,1] */\n    tag_119:\n      0x04\n      dup2\n      0x05\n      dup2\n      lt\n      tag_322\n      jumpi\n      0x00\n      dup1\n      revert\n    tag_322:\n      0x20\n      swap2\n      dup3\n      dup3\n      div\n      add\n      swap2\n      swap1\n      mod\n      swap2\n      pop\n      sload\n      swap1\n      0x0100\n      exp\n      swap1\n      div\n      0xff\n      and\n      dup2\n      jump\t// out\n        /* \"contracts/sikkacoin.sol\":1236:1291  mapping(address => uint256) public directReferralIncome */\n    tag_124:\n      mstore(0x20, 0x08)\n      dup1\n      0x00\n      mstore\n      keccak256(0x00, 0x40)\n      0x00\n      swap2\n      pop\n      swap1\n      pop\n      sload\n      dup2\n      jump\t// out\n        /* \"contracts/sikkacoin.sol\":629:648  IERC20 public token */\n    tag_127:\n      0x01\n      0x00\n      swap1\n      sload\n      swap1\n      0x0100\n      exp\n      swap1\n      div\n      0xffffffffffffffffffffffffffffffffffffffff\n      and\n      dup2\n      jump\t// out\n        /* \"#utility.yul\":88:205   */\n    tag_325:\n        /* \"#utility.yul\":197:198   */\n      0x00\n        /* \"#utility.yul\":194:195   */\n      dup1\n        /* \"#utility.yul\":187:199   */\n      revert\n        /* \"#utility.yul\":334:411   */\n    tag_327:\n        /* \"#utility.yul\":371:378   */\n      0x00\n        /* \"#utility.yul\":400:405   */\n      dup2\n        /* \"#utility.yul\":389:405   */\n      swap1\n      pop\n        /* \"#utility.yul\":334:411   */\n      swap2\n      swap1\n      pop\n      jump\t// out\n        /* \"#utility.yul\":417:539   */\n    tag_328:\n        /* \"#utility.yul\":490:514   */\n      tag_395\n        /* \"#utility.yul\":508:513   */\n      dup2\n        /* \"#utility.yul\":490:514   */\n      tag_327\n      jump\t// in\n    tag_395:\n        /* \"#utility.yul\":483:488   */\n      dup2\n        /* \"#utility.yul\":480:515   */\n      eq\n        /* \"#utility.yul\":470:533   */\n      tag_396\n      jumpi\n        /* \"#utility.yul\":529:530   */\n      0x00\n        /* \"#utility.yul\":526:527   */\n      dup1\n        /* \"#utility.yul\":519:531   */\n      revert\n        /* \"#utility.yul\":470:533   */\n    tag_396:\n        /* \"#utility.yul\":417:539   */\n      pop\n      jump\t// out\n        /* \"#utility.yul\":545:684   */\n    tag_329:\n        /* \"#utility.yul\":591:596   */\n      0x00\n        /* \"#utility.yul\":629:635   */\n      dup2\n        /* \"#utility.yul\":616:636   */\n      calldataload\n        /* \"#utility.yul\":607:636   */\n      swap1\n      pop\n        /* \"#utility.yul\":645:678   */\n      tag_398\n        /* \"#utility.yul\":672:677   */\n      dup2\n        /* \"#utility.yul\":645:678   */\n      tag_328\n      jump\t// in\n    tag_398:\n        /* \"#utility.yul\":545:684   */\n      swap3\n      swap2\n      pop\n      pop\n      jump\t// out\n        /* \"#utility.yul\":690:1019   */\n    tag_32:\n        /* \"#utility.yul\":749:755   */\n      0x00\n        /* \"#utility.yul\":798:800   */\n      0x20\n        /* \"#utility.yul\":786:795   */\n      dup3\n        /* \"#utility.yul\":777:784   */\n      dup5\n        /* \"#utility.yul\":773:796   */\n      sub\n        /* \"#utility.yul\":769:801   */\n      slt\n        /* \"#utility.yul\":766:885   */\n      iszero\n      tag_400\n      jumpi\n        /* \"#utility.yul\":804:883   */\n      tag_401\n      tag_325\n      jump\t// in\n    tag_401:\n        /* \"#utility.yul\":766:885   */\n    tag_400:\n        /* \"#utility.yul\":924:925   */\n      0x00\n        /* \"#utility.yul\":949:1002   */\n      tag_402\n        /* \"#utility.yul\":994:1001   */\n      dup5\n        /* \"#utility.yul\":985:991   */\n      dup3\n        /* \"#utility.yul\":974:983   */\n      dup6\n        /* \"#utility.yul\":970:992   */\n      add\n        /* \"#utility.yul\":949:1002   */\n      tag_329\n      jump\t// in\n    tag_402:\n        /* \"#utility.yul\":939:1002   */\n      swap2\n      pop\n        /* \"#utility.yul\":895:1012   */\n      pop\n        /* \"#utility.yul\":690:1019   */\n      swap3\n      swap2\n      pop\n      pop\n      jump\t// out\n        /* \"#utility.yul\":1025:1151   */\n    tag_330:\n        /* \"#utility.yul\":1062:1069   */\n      0x00\n        /* \"#utility.yul\":1102:1144   */\n      0xffffffffffffffffffffffffffffffffffffffff\n        /* \"#utility.yul\":1095:1100   */\n      dup3\n        /* \"#utility.yul\":1091:1145   */\n      and\n        /* \"#utility.yul\":1080:1145   */\n      swap1\n      pop\n        /* \"#utility.yul\":1025:1151   */\n      swap2\n      swap1\n      pop\n      jump\t// out\n        /* \"#utility.yul\":1157:1253   */\n    tag_331:\n        /* \"#utility.yul\":1194:1201   */\n      0x00\n        /* \"#utility.yul\":1223:1247   */\n      tag_405\n        /* \"#utility.yul\":1241:1246   */\n      dup3\n        /* \"#utility.yul\":1223:1247   */\n      tag_330\n      jump\t// in\n    tag_405:\n        /* \"#utility.yul\":1212:1247   */\n      swap1\n      pop\n        /* \"#utility.yul\":1157:1253   */\n      swap2\n      swap1\n      pop\n      jump\t// out\n        /* \"#utility.yul\":1259:1377   */\n    tag_332:\n        /* \"#utility.yul\":1346:1370   */\n      tag_407\n        /* \"#utility.yul\":1364:1369   */\n      dup2\n        /* \"#utility.yul\":1346:1370   */\n      tag_331\n      jump\t// in\n    tag_407:\n        /* \"#utility.yul\":1341:1344   */\n      dup3\n        /* \"#utility.yul\":1334:1371   */\n      mstore\n        /* \"#utility.yul\":1259:1377   */\n      pop\n      pop\n      jump\t// out\n        /* \"#utility.yul\":1383:1605   */\n    tag_35:\n        /* \"#utility.yul\":1476:1480   */\n      0x00\n        /* \"#utility.yul\":1514:1516   */\n      0x20\n        /* \"#utility.yul\":1503:1512   */\n      dup3\n        /* \"#utility.yul\":1499:1517   */\n      add\n        /* \"#utility.yul\":1491:1517   */\n      swap1\n      pop\n        /* \"#utility.yul\":1527:1598   */\n      tag_409\n        /* \"#utility.yul\":1595:1596   */\n      0x00\n        /* \"#utility.yul\":1584:1593   */\n      dup4\n        /* \"#utility.yul\":1580:1597   */\n      add\n        /* \"#utility.yul\":1571:1577   */\n      dup5\n        /* \"#utility.yul\":1527:1598   */\n      tag_332\n      jump\t// in\n    tag_409:\n        /* \"#utility.yul\":1383:1605   */\n      swap3\n      swap2\n      pop\n      pop\n      jump\t// out\n        /* \"#utility.yul\":1611:1733   */\n    tag_333:\n        /* \"#utility.yul\":1684:1708   */\n      tag_411\n        /* \"#utility.yul\":1702:1707   */\n      dup2\n        /* \"#utility.yul\":1684:1708   */\n      tag_331\n      jump\t// in\n    tag_411:\n        /* \"#utility.yul\":1677:1682   */\n      dup2\n        /* \"#utility.yul\":1674:1709   */\n      eq\n        /* \"#utility.yul\":1664:1727   */\n      tag_412\n      jumpi\n        /* \"#utility.yul\":1723:1724   */\n      0x00\n        /* \"#utility.yul\":1720:1721   */\n      dup1\n        /* \"#utility.yul\":1713:1725   */\n      revert\n        /* \"#utility.yul\":1664:1727   */\n    tag_412:\n        /* \"#utility.yul\":1611:1733   */\n      pop\n      jump\t// out\n        /* \"#utility.yul\":1739:1878   */\n    tag_334:\n        /* \"#utility.yul\":1785:1790   */\n      0x00\n        /* \"#utility.yul\":1823:1829   */\n      dup2\n        /* \"#utility.yul\":1810:1830   */\n      calldataload\n        /* \"#utility.yul\":1801:1830   */\n      swap1\n      pop\n        /* \"#utility.yul\":1839:1872   */\n      tag_414\n        /* \"#utility.yul\":1866:1871   */\n      dup2\n        /* \"#utility.yul\":1839:1872   */\n      tag_333\n      jump\t// in\n    tag_414:\n        /* \"#utility.yul\":1739:1878   */\n      swap3\n      swap2\n      pop\n      pop\n      jump\t// out\n        /* \"#utility.yul\":1884:2213   */\n    tag_38:\n        /* \"#utility.yul\":1943:1949   */\n      0x00\n        /* \"#utility.yul\":1992:1994   */\n      0x20\n        /* \"#utility.yul\":1980:1989   */\n      dup3\n        /* \"#utility.yul\":1971:1978   */\n      dup5\n        /* \"#utility.yul\":1967:1990   */\n      sub\n        /* \"#utility.yul\":1963:1995   */\n      slt\n        /* \"#utility.yul\":1960:2079   */\n      iszero\n      tag_416\n      jumpi\n        /* \"#utility.yul\":1998:2077   */\n      tag_417\n      tag_325\n      jump\t// in\n    tag_417:\n        /* \"#utility.yul\":1960:2079   */\n    tag_416:\n        /* \"#utility.yul\":2118:2119   */\n      0x00\n        /* \"#utility.yul\":2143:2196   */\n      tag_418\n        /* \"#utility.yul\":2188:2195   */\n      dup5\n        /* \"#utility.yul\":2179:2185   */\n      dup3\n        /* \"#utility.yul\":2168:2177   */\n      dup6\n        /* \"#utility.yul\":2164:2186   */\n      add\n        /* \"#utility.yul\":2143:2196   */\n      tag_334\n      jump\t// in\n    tag_418:\n        /* \"#utility.yul\":2133:2196   */\n      swap2\n      pop\n        /* \"#utility.yul\":2089:2206   */\n      pop\n        /* \"#utility.yul\":1884:2213   */\n      swap3\n      swap2\n      pop\n      pop\n      jump\t// out\n        /* \"#utility.yul\":2219:2337   */\n    tag_335:\n        /* \"#utility.yul\":2306:2330   */\n      tag_420\n        /* \"#utility.yul\":2324:2329   */\n      dup2\n        /* \"#utility.yul\":2306:2330   */\n      tag_327\n      jump\t// in\n    tag_420:\n        /* \"#utility.yul\":2301:2304   */\n      dup3\n        /* \"#utility.yul\":2294:2331   */\n      mstore\n        /* \"#utility.yul\":2219:2337   */\n      pop\n      pop\n      jump\t// out\n        /* \"#utility.yul\":2343:2565   */\n    tag_41:\n        /* \"#utility.yul\":2436:2440   */\n      0x00\n        /* \"#utility.yul\":2474:2476   */\n      0x20\n        /* \"#utility.yul\":2463:2472   */\n      dup3\n        /* \"#utility.yul\":2459:2477   */\n      add\n        /* \"#utility.yul\":2451:2477   */\n      swap1\n      pop\n        /* \"#utility.yul\":2487:2558   */\n      tag_422\n        /* \"#utility.yul\":2555:2556   */\n      0x00\n        /* \"#utility.yul\":2544:2553   */\n      dup4\n        /* \"#utility.yul\":2540:2557   */\n      add\n        /* \"#utility.yul\":2531:2537   */\n      dup5\n        /* \"#utility.yul\":2487:2558   */\n      tag_335\n      jump\t// in\n    tag_422:\n        /* \"#utility.yul\":2343:2565   */\n      swap3\n      swap2\n      pop\n      pop\n      jump\t// out\n        /* \"#utility.yul\":2571:3235   */\n    tag_46:\n        /* \"#utility.yul\":2776:2780   */\n      0x00\n        /* \"#utility.yul\":2814:2817   */\n      0xa0\n        /* \"#utility.yul\":2803:2812   */\n      dup3\n        /* \"#utility.yul\":2799:2818   */\n      add\n        /* \"#utility.yul\":2791:2818   */\n      swap1\n      pop\n        /* \"#utility.yul\":2828:2899   */\n      tag_424\n        /* \"#utility.yul\":2896:2897   */\n      0x00\n        /* \"#utility.yul\":2885:2894   */\n      dup4\n        /* \"#utility.yul\":2881:2898   */\n      add\n        /* \"#utility.yul\":2872:2878   */\n      dup9\n        /* \"#utility.yul\":2828:2899   */\n      tag_335\n      jump\t// in\n    tag_424:\n        /* \"#utility.yul\":2909:2981   */\n      tag_425\n        /* \"#utility.yul\":2977:2979   */\n      0x20\n        /* \"#utility.yul\":2966:2975   */\n      dup4\n        /* \"#utility.yul\":2962:2980   */\n      add\n        /* \"#utility.yul\":2953:2959   */\n      dup8\n        /* \"#utility.yul\":2909:2981   */\n      tag_335\n      jump\t// in\n    tag_425:\n        /* \"#utility.yul\":2991:3063   */\n      tag_426\n        /* \"#utility.yul\":3059:3061   */\n      0x40\n        /* \"#utility.yul\":3048:3057   */\n      dup4\n        /* \"#utility.yul\":3044:3062   */\n      add\n        /* \"#utility.yul\":3035:3041   */\n      dup7\n        /* \"#utility.yul\":2991:3063   */\n      tag_335\n      jump\t// in\n    tag_426:\n        /* \"#utility.yul\":3073:3145   */\n      tag_427\n        /* \"#utility.yul\":3141:3143   */\n      0x60\n        /* \"#utility.yul\":3130:3139   */\n      dup4\n        /* \"#utility.yul\":3126:3144   */\n      add\n        /* \"#utility.yul\":3117:3123   */\n      dup6\n        /* \"#utility.yul\":3073:3145   */\n      tag_335\n      jump\t// in\n    tag_427:\n        /* \"#utility.yul\":3155:3228   */\n      tag_428\n        /* \"#utility.yul\":3223:3226   */\n      0x80\n        /* \"#utility.yul\":3212:3221   */\n      dup4\n        /* \"#utility.yul\":3208:3227   */\n      add\n        /* \"#utility.yul\":3199:3205   */\n      dup5\n        /* \"#utility.yul\":3155:3228   */\n      tag_335\n      jump\t// in\n    tag_428:\n        /* \"#utility.yul\":2571:3235   */\n      swap7\n      swap6\n      pop\n      pop\n      pop\n      pop\n      pop\n      pop\n      jump\t// out\n        /* \"#utility.yul\":3241:3355   */\n    tag_336:\n        /* \"#utility.yul\":3308:3314   */\n      0x00\n        /* \"#utility.yul\":3342:3347   */\n      dup2\n        /* \"#utility.yul\":3336:3348   */\n      mload\n        /* \"#utility.yul\":3326:3348   */\n      swap1\n      pop\n        /* \"#utility.yul\":3241:3355   */\n      swap2\n      swap1\n      pop\n      jump\t// out\n        /* \"#utility.yul\":3361:3545   */\n    tag_337:\n        /* \"#utility.yul\":3460:3471   */\n      0x00\n        /* \"#utility.yul\":3494:3500   */\n      dup3\n        /* \"#utility.yul\":3489:3492   */\n      dup3\n        /* \"#utility.yul\":3482:3501   */\n      mstore\n        /* \"#utility.yul\":3534:3538   */\n      0x20\n        /* \"#utility.yul\":3529:3532   */\n      dup3\n        /* \"#utility.yul\":3525:3539   */\n      add\n        /* \"#utility.yul\":3510:3539   */\n      swap1\n      pop\n        /* \"#utility.yul\":3361:3545   */\n      swap3\n      swap2\n      pop\n      pop\n      jump\t// out\n        /* \"#utility.yul\":3551:3683   */\n    tag_338:\n        /* \"#utility.yul\":3618:3622   */\n      0x00\n        /* \"#utility.yul\":3641:3644   */\n      dup2\n        /* \"#utility.yul\":3633:3644   */\n      swap1\n      pop\n        /* \"#utility.yul\":3671:3675   */\n      0x20\n        /* \"#utility.yul\":3666:3669   */\n      dup3\n        /* \"#utility.yul\":3662:3676   */\n      add\n        /* \"#utility.yul\":3654:3676   */\n      swap1\n      pop\n        /* \"#utility.yul\":3551:3683   */\n      swap2\n      swap1\n      pop\n      jump\t// out\n        /* \"#utility.yul\":3689:3797   */\n    tag_339:\n        /* \"#utility.yul\":3766:3790   */\n      tag_433\n        /* \"#utility.yul\":3784:3789   */\n      dup2\n        /* \"#utility.yul\":3766:3790   */\n      tag_327\n      jump\t// in\n    tag_433:\n        /* \"#utility.yul\":3761:3764   */\n      dup3\n        /* \"#utility.yul\":3754:3791   */\n      mstore\n        /* \"#utility.yul\":3689:3797   */\n      pop\n      pop\n      jump\t// out\n        /* \"#utility.yul\":3803:3982   */\n    tag_340:\n        /* \"#utility.yul\":3872:3882   */\n      0x00\n        /* \"#utility.yul\":3893:3939   */\n      tag_435\n        /* \"#utility.yul\":3935:3938   */\n      dup4\n        /* \"#utility.yul\":3927:3933   */\n      dup4\n        /* \"#utility.yul\":3893:3939   */\n      tag_339\n      jump\t// in\n    tag_435:\n        /* \"#utility.yul\":3971:3975   */\n      0x20\n        /* \"#utility.yul\":3966:3969   */\n      dup4\n        /* \"#utility.yul\":3962:3976   */\n      add\n        /* \"#utility.yul\":3948:3976   */\n      swap1\n      pop\n        /* \"#utility.yul\":3803:3982   */\n      swap3\n      swap2\n      pop\n      pop\n      jump\t// out\n        /* \"#utility.yul\":3988:4101   */\n    tag_341:\n        /* \"#utility.yul\":4058:4062   */\n      0x00\n        /* \"#utility.yul\":4090:4094   */\n      0x20\n        /* \"#utility.yul\":4085:4088   */\n      dup3\n        /* \"#utility.yul\":4081:4095   */\n      add\n        /* \"#utility.yul\":4073:4095   */\n      swap1\n      pop\n        /* \"#utility.yul\":3988:4101   */\n      swap2\n      swap1\n      pop\n      jump\t// out\n        /* \"#utility.yul\":4137:4869   */\n    tag_342:\n        /* \"#utility.yul\":4256:4259   */\n      0x00\n        /* \"#utility.yul\":4285:4339   */\n      tag_438\n        /* \"#utility.yul\":4333:4338   */\n      dup3\n        /* \"#utility.yul\":4285:4339   */\n      tag_336\n      jump\t// in\n    tag_438:\n        /* \"#utility.yul\":4355:4441   */\n      tag_439\n        /* \"#utility.yul\":4434:4440   */\n      dup2\n        /* \"#utility.yul\":4429:4432   */\n      dup6\n        /* \"#utility.yul\":4355:4441   */\n      tag_337\n      jump\t// in\n    tag_439:\n        /* \"#utility.yul\":4348:4441   */\n      swap4\n      pop\n        /* \"#utility.yul\":4465:4521   */\n      tag_440\n        /* \"#utility.yul\":4515:4520   */\n      dup4\n        /* \"#utility.yul\":4465:4521   */\n      tag_338\n      jump\t// in\n    tag_440:\n        /* \"#utility.yul\":4544:4551   */\n      dup1\n        /* \"#utility.yul\":4575:4576   */\n      0x00\n        /* \"#utility.yul\":4560:4844   */\n    tag_441:\n        /* \"#utility.yul\":4585:4591   */\n      dup4\n        /* \"#utility.yul\":4582:4583   */\n      dup2\n        /* \"#utility.yul\":4579:4592   */\n      lt\n        /* \"#utility.yul\":4560:4844   */\n      iszero\n      tag_443\n      jumpi\n        /* \"#utility.yul\":4661:4667   */\n      dup2\n        /* \"#utility.yul\":4655:4668   */\n      mload\n        /* \"#utility.yul\":4688:4751   */\n      tag_444\n        /* \"#utility.yul\":4747:4750   */\n      dup9\n        /* \"#utility.yul\":4732:4745   */\n      dup3\n        /* \"#utility.yul\":4688:4751   */\n      tag_340\n      jump\t// in\n    tag_444:\n        /* \"#utility.yul\":4681:4751   */\n      swap8\n      pop\n        /* \"#utility.yul\":4774:4834   */\n      tag_445\n        /* \"#utility.yul\":4827:4833   */\n      dup4\n        /* \"#utility.yul\":4774:4834   */\n      tag_341\n      jump\t// in\n    tag_445:\n        /* \"#utility.yul\":4764:4834   */\n      swap3\n      pop\n        /* \"#utility.yul\":4620:4844   */\n      pop\n        /* \"#utility.yul\":4607:4608   */\n      0x01\n        /* \"#utility.yul\":4604:4605   */\n      dup2\n        /* \"#utility.yul\":4600:4609   */\n      add\n        /* \"#utility.yul\":4595:4609   */\n      swap1\n      pop\n        /* \"#utility.yul\":4560:4844   */\n      jump(tag_441)\n    tag_443:\n        /* \"#utility.yul\":4564:4578   */\n      pop\n        /* \"#utility.yul\":4860:4863   */\n      dup6\n        /* \"#utility.yul\":4853:4863   */\n      swap4\n      pop\n        /* \"#utility.yul\":4261:4869   */\n      pop\n      pop\n      pop\n        /* \"#utility.yul\":4137:4869   */\n      swap3\n      swap2\n      pop\n      pop\n      jump\t// out\n        /* \"#utility.yul\":4875:5248   */\n    tag_51:\n        /* \"#utility.yul\":5018:5022   */\n      0x00\n        /* \"#utility.yul\":5056:5058   */\n      0x20\n        /* \"#utility.yul\":5045:5054   */\n      dup3\n        /* \"#utility.yul\":5041:5059   */\n      add\n        /* \"#utility.yul\":5033:5059   */\n      swap1\n      pop\n        /* \"#utility.yul\":5105:5114   */\n      dup2\n        /* \"#utility.yul\":5099:5103   */\n      dup2\n        /* \"#utility.yul\":5095:5115   */\n      sub\n        /* \"#utility.yul\":5091:5092   */\n      0x00\n        /* \"#utility.yul\":5080:5089   */\n      dup4\n        /* \"#utility.yul\":5076:5093   */\n      add\n        /* \"#utility.yul\":5069:5116   */\n      mstore\n        /* \"#utility.yul\":5133:5241   */\n      tag_447\n        /* \"#utility.yul\":5236:5240   */\n      dup2\n        /* \"#utility.yul\":5227:5233   */\n      dup5\n        /* \"#utility.yul\":5133:5241   */\n      tag_342\n      jump\t// in\n    tag_447:\n        /* \"#utility.yul\":5125:5241   */\n      swap1\n      pop\n        /* \"#utility.yul\":4875:5248   */\n      swap3\n      swap2\n      pop\n      pop\n      jump\t// out\n        /* \"#utility.yul\":5254:5344   */\n    tag_343:\n        /* \"#utility.yul\":5288:5295   */\n      0x00\n        /* \"#utility.yul\":5331:5336   */\n      dup2\n        /* \"#utility.yul\":5324:5337   */\n      iszero\n        /* \"#utility.yul\":5317:5338   */\n      iszero\n        /* \"#utility.yul\":5306:5338   */\n      swap1\n      pop\n        /* \"#utility.yul\":5254:5344   */\n      swap2\n      swap1\n      pop\n      jump\t// out\n        /* \"#utility.yul\":5350:5459   */\n    tag_344:\n        /* \"#utility.yul\":5431:5452   */\n      tag_450\n        /* \"#utility.yul\":5446:5451   */\n      dup2\n        /* \"#utility.yul\":5431:5452   */\n      tag_343\n      jump\t// in\n    tag_450:\n        /* \"#utility.yul\":5426:5429   */\n      dup3\n        /* \"#utility.yul\":5419:5453   */\n      mstore\n        /* \"#utility.yul\":5350:5459   */\n      pop\n      pop\n      jump\t// out\n        /* \"#utility.yul\":5465:6228   */\n    tag_68:\n        /* \"#utility.yul\":5692:5696   */\n      0x00\n        /* \"#utility.yul\":5730:5733   */\n      0xc0\n        /* \"#utility.yul\":5719:5728   */\n      dup3\n        /* \"#utility.yul\":5715:5734   */\n      add\n        /* \"#utility.yul\":5707:5734   */\n      swap1\n      pop\n        /* \"#utility.yul\":5744:5815   */\n      tag_452\n        /* \"#utility.yul\":5812:5813   */\n      0x00\n        /* \"#utility.yul\":5801:5810   */\n      dup4\n        /* \"#utility.yul\":5797:5814   */\n      add\n        /* \"#utility.yul\":5788:5794   */\n      dup10\n        /* \"#utility.yul\":5744:5815   */\n      tag_332\n      jump\t// in\n    tag_452:\n        /* \"#utility.yul\":5825:5897   */\n      tag_453\n        /* \"#utility.yul\":5893:5895   */\n      0x20\n        /* \"#utility.yul\":5882:5891   */\n      dup4\n        /* \"#utility.yul\":5878:5896   */\n      add\n        /* \"#utility.yul\":5869:5875   */\n      dup9\n        /* \"#utility.yul\":5825:5897   */\n      tag_335\n      jump\t// in\n    tag_453:\n        /* \"#utility.yul\":5907:5979   */\n      tag_454\n        /* \"#utility.yul\":5975:5977   */\n      0x40\n        /* \"#utility.yul\":5964:5973   */\n      dup4\n        /* \"#utility.yul\":5960:5978   */\n      add\n        /* \"#utility.yul\":5951:5957   */\n      dup8\n        /* \"#utility.yul\":5907:5979   */\n      tag_335\n      jump\t// in\n    tag_454:\n        /* \"#utility.yul\":5989:6061   */\n      tag_455\n        /* \"#utility.yul\":6057:6059   */\n      0x60\n        /* \"#utility.yul\":6046:6055   */\n      dup4\n        /* \"#utility.yul\":6042:6060   */\n      add\n        /* \"#utility.yul\":6033:6039   */\n      dup7\n        /* \"#utility.yul\":5989:6061   */\n      tag_335\n      jump\t// in\n    tag_455:\n        /* \"#utility.yul\":6071:6144   */\n      tag_456\n        /* \"#utility.yul\":6139:6142   */\n      0x80\n        /* \"#utility.yul\":6128:6137   */\n      dup4\n        /* \"#utility.yul\":6124:6143   */\n      add\n        /* \"#utility.yul\":6115:6121   */\n      dup6\n        /* \"#utility.yul\":6071:6144   */\n      tag_335\n      jump\t// in\n    tag_456:\n        /* \"#utility.yul\":6154:6221   */\n      tag_457\n        /* \"#utility.yul\":6216:6219   */\n      0xa0\n        /* \"#utility.yul\":6205:6214   */\n      dup4\n        /* \"#utility.yul\":6201:6220   */\n      add\n        /* \"#utility.yul\":6192:6198   */\n      dup5\n        /* \"#utility.yul\":6154:6221   */\n      tag_344\n      jump\t// in\n    tag_457:\n        /* \"#utility.yul\":5465:6228   */\n      swap8\n      swap7\n      pop\n      pop\n      pop\n      pop\n      pop\n      pop\n      pop\n      jump\t// out\n        /* \"#utility.yul\":6234:6708   */\n    tag_71:\n        /* \"#utility.yul\":6302:6308   */\n      0x00\n        /* \"#utility.yul\":6310:6316   */\n      dup1\n        /* \"#utility.yul\":6359:6361   */\n      0x40\n        /* \"#utility.yul\":6347:6356   */\n      dup4\n        /* \"#utility.yul\":6338:6345   */\n      dup6\n        /* \"#utility.yul\":6334:6357   */\n      sub\n        /* \"#utility.yul\":6330:6362   */\n      slt\n        /* \"#utility.yul\":6327:6446   */\n      iszero\n      tag_459\n      jumpi\n        /* \"#utility.yul\":6365:6444   */\n      tag_460\n      tag_325\n      jump\t// in\n    tag_460:\n        /* \"#utility.yul\":6327:6446   */\n    tag_459:\n        /* \"#utility.yul\":6485:6486   */\n      0x00\n        /* \"#utility.yul\":6510:6563   */\n      tag_461\n        /* \"#utility.yul\":6555:6562   */\n      dup6\n        /* \"#utility.yul\":6546:6552   */\n      dup3\n        /* \"#utility.yul\":6535:6544   */\n      dup7\n        /* \"#utility.yul\":6531:6553   */\n      add\n        /* \"#utility.yul\":6510:6563   */\n      tag_329\n      jump\t// in\n    tag_461:\n        /* \"#utility.yul\":6500:6563   */\n      swap3\n      pop\n        /* \"#utility.yul\":6456:6573   */\n      pop\n        /* \"#utility.yul\":6612:6614   */\n      0x20\n        /* \"#utility.yul\":6638:6691   */\n      tag_462\n        /* \"#utility.yul\":6683:6690   */\n      dup6\n        /* \"#utility.yul\":6674:6680   */\n      dup3\n        /* \"#utility.yul\":6663:6672   */\n      dup7\n        /* \"#utility.yul\":6659:6681   */\n      add\n        /* \"#utility.yul\":6638:6691   */\n      tag_329\n      jump\t// in\n    tag_462:\n        /* \"#utility.yul\":6628:6691   */\n      swap2\n      pop\n        /* \"#utility.yul\":6583:6701   */\n      pop\n        /* \"#utility.yul\":6234:6708   */\n      swap3\n      pop\n      swap3\n      swap1\n      pop\n      jump\t// out\n        /* \"#utility.yul\":6714:7034   */\n    tag_95:\n        /* \"#utility.yul\":6829:6833   */\n      0x00\n        /* \"#utility.yul\":6867:6869   */\n      0x40\n        /* \"#utility.yul\":6856:6865   */\n      dup3\n        /* \"#utility.yul\":6852:6870   */\n      add\n        /* \"#utility.yul\":6844:6870   */\n      swap1\n      pop\n        /* \"#utility.yul\":6880:6951   */\n      tag_464\n        /* \"#utility.yul\":6948:6949   */\n      0x00\n        /* \"#utility.yul\":6937:6946   */\n      dup4\n        /* \"#utility.yul\":6933:6950   */\n      add\n        /* \"#utility.yul\":6924:6930   */\n      dup6\n        /* \"#utility.yul\":6880:6951   */\n      tag_332\n      jump\t// in\n    tag_464:\n        /* \"#utility.yul\":6961:7027   */\n      tag_465\n        /* \"#utility.yul\":7023:7025   */\n      0x20\n        /* \"#utility.yul\":7012:7021   */\n      dup4\n        /* \"#utility.yul\":7008:7026   */\n      add\n        /* \"#utility.yul\":6999:7005   */\n      dup5\n        /* \"#utility.yul\":6961:7027   */\n      tag_344\n      jump\t// in\n    tag_465:\n        /* \"#utility.yul\":6714:7034   */\n      swap4\n      swap3\n      pop\n      pop\n      pop\n      jump\t// out\n        /* \"#utility.yul\":7040:7250   */\n    tag_116:\n        /* \"#utility.yul\":7127:7131   */\n      0x00\n        /* \"#utility.yul\":7165:7167   */\n      0x20\n        /* \"#utility.yul\":7154:7163   */\n      dup3\n        /* \"#utility.yul\":7150:7168   */\n      add\n        /* \"#utility.yul\":7142:7168   */\n      swap1\n      pop\n        /* \"#utility.yul\":7178:7243   */\n      tag_467\n        /* \"#utility.yul\":7240:7241   */\n      0x00\n        /* \"#utility.yul\":7229:7238   */\n      dup4\n        /* \"#utility.yul\":7225:7242   */\n      add\n        /* \"#utility.yul\":7216:7222   */\n      dup5\n        /* \"#utility.yul\":7178:7243   */\n      tag_344\n      jump\t// in\n    tag_467:\n        /* \"#utility.yul\":7040:7250   */\n      swap3\n      swap2\n      pop\n      pop\n      jump\t// out\n        /* \"#utility.yul\":7256:7342   */\n    tag_345:\n        /* \"#utility.yul\":7291:7298   */\n      0x00\n        /* \"#utility.yul\":7331:7335   */\n      0xff\n        /* \"#utility.yul\":7324:7329   */\n      dup3\n        /* \"#utility.yul\":7320:7336   */\n      and\n        /* \"#utility.yul\":7309:7336   */\n      swap1\n      pop\n        /* \"#utility.yul\":7256:7342   */\n      swap2\n      swap1\n      pop\n      jump\t// out\n        /* \"#utility.yul\":7348:7460   */\n    tag_346:\n        /* \"#utility.yul\":7431:7453   */\n      tag_470\n        /* \"#utility.yul\":7447:7452   */\n      dup2\n        /* \"#utility.yul\":7431:7453   */\n      tag_345\n      jump\t// in\n    tag_470:\n        /* \"#utility.yul\":7426:7429   */\n      dup3\n        /* \"#utility.yul\":7419:7454   */\n      mstore\n        /* \"#utility.yul\":7348:7460   */\n      pop\n      pop\n      jump\t// out\n        /* \"#utility.yul\":7466:7680   */\n    tag_121:\n        /* \"#utility.yul\":7555:7559   */\n      0x00\n        /* \"#utility.yul\":7593:7595   */\n      0x20\n        /* \"#utility.yul\":7582:7591   */\n      dup3\n        /* \"#utility.yul\":7578:7596   */\n      add\n        /* \"#utility.yul\":7570:7596   */\n      swap1\n      pop\n        /* \"#utility.yul\":7606:7673   */\n      tag_472\n        /* \"#utility.yul\":7670:7671   */\n      0x00\n        /* \"#utility.yul\":7659:7668   */\n      dup4\n        /* \"#utility.yul\":7655:7672   */\n      add\n        /* \"#utility.yul\":7646:7652   */\n      dup5\n        /* \"#utility.yul\":7606:7673   */\n      tag_346\n      jump\t// in\n    tag_472:\n        /* \"#utility.yul\":7466:7680   */\n      swap3\n      swap2\n      pop\n      pop\n      jump\t// out\n        /* \"#utility.yul\":7686:7746   */\n    tag_347:\n        /* \"#utility.yul\":7714:7717   */\n      0x00\n        /* \"#utility.yul\":7735:7740   */\n      dup2\n        /* \"#utility.yul\":7728:7740   */\n      swap1\n      pop\n        /* \"#utility.yul\":7686:7746   */\n      swap2\n      swap1\n      pop\n      jump\t// out\n        /* \"#utility.yul\":7752:7894   */\n    tag_348:\n        /* \"#utility.yul\":7802:7811   */\n      0x00\n        /* \"#utility.yul\":7835:7888   */\n      tag_475\n        /* \"#utility.yul\":7853:7887   */\n      tag_476\n        /* \"#utility.yul\":7862:7886   */\n      tag_477\n        /* \"#utility.yul\":7880:7885   */\n      dup5\n        /* \"#utility.yul\":7862:7886   */\n      tag_330\n      jump\t// in\n    tag_477:\n        /* \"#utility.yul\":7853:7887   */\n      tag_347\n      jump\t// in\n    tag_476:\n        /* \"#utility.yul\":7835:7888   */\n      tag_330\n      jump\t// in\n    tag_475:\n        /* \"#utility.yul\":7822:7888   */\n      swap1\n      pop\n        /* \"#utility.yul\":7752:7894   */\n      swap2\n      swap1\n      pop\n      jump\t// out\n        /* \"#utility.yul\":7900:8026   */\n    tag_349:\n        /* \"#utility.yul\":7950:7959   */\n      0x00\n        /* \"#utility.yul\":7983:8020   */\n      tag_479\n        /* \"#utility.yul\":8014:8019   */\n      dup3\n        /* \"#utility.yul\":7983:8020   */\n      tag_348\n      jump\t// in\n    tag_479:\n        /* \"#utility.yul\":7970:8020   */\n      swap1\n      pop\n        /* \"#utility.yul\":7900:8026   */\n      swap2\n      swap1\n      pop\n      jump\t// out\n        /* \"#utility.yul\":8032:8171   */\n    tag_350:\n        /* \"#utility.yul\":8095:8104   */\n      0x00\n        /* \"#utility.yul\":8128:8165   */\n      tag_481\n        /* \"#utility.yul\":8159:8164   */\n      dup3\n        /* \"#utility.yul\":8128:8165   */\n      tag_349\n      jump\t// in\n    tag_481:\n        /* \"#utility.yul\":8115:8165   */\n      swap1\n      pop\n        /* \"#utility.yul\":8032:8171   */\n      swap2\n      swap1\n      pop\n      jump\t// out\n        /* \"#utility.yul\":8177:8334   */\n    tag_351:\n        /* \"#utility.yul\":8277:8327   */\n      tag_483\n        /* \"#utility.yul\":8321:8326   */\n      dup2\n        /* \"#utility.yul\":8277:8327   */\n      tag_350\n      jump\t// in\n    tag_483:\n        /* \"#utility.yul\":8272:8275   */\n      dup3\n        /* \"#utility.yul\":8265:8328   */\n      mstore\n        /* \"#utility.yul\":8177:8334   */\n      pop\n      pop\n      jump\t// out\n        /* \"#utility.yul\":8340:8588   */\n    tag_129:\n        /* \"#utility.yul\":8446:8450   */\n      0x00\n        /* \"#utility.yul\":8484:8486   */\n      0x20\n        /* \"#utility.yul\":8473:8482   */\n      dup3\n        /* \"#utility.yul\":8469:8487   */\n      add\n        /* \"#utility.yul\":8461:8487   */\n      swap1\n      pop\n        /* \"#utility.yul\":8497:8581   */\n      tag_485\n        /* \"#utility.yul\":8578:8579   */\n      0x00\n        /* \"#utility.yul\":8567:8576   */\n      dup4\n        /* \"#utility.yul\":8563:8580   */\n      add\n        /* \"#utility.yul\":8554:8560   */\n      dup5\n        /* \"#utility.yul\":8497:8581   */\n      tag_351\n      jump\t// in\n    tag_485:\n        /* \"#utility.yul\":8340:8588   */\n      swap3\n      swap2\n      pop\n      pop\n      jump\t// out\n        /* \"#utility.yul\":8594:8763   */\n    tag_352:\n        /* \"#utility.yul\":8678:8689   */\n      0x00\n        /* \"#utility.yul\":8712:8718   */\n      dup3\n        /* \"#utility.yul\":8707:8710   */\n      dup3\n        /* \"#utility.yul\":8700:8719   */\n      mstore\n        /* \"#utility.yul\":8752:8756   */\n      0x20\n        /* \"#utility.yul\":8747:8750   */\n      dup3\n        /* \"#utility.yul\":8743:8757   */\n      add\n        /* \"#utility.yul\":8728:8757   */\n      swap1\n      pop\n        /* \"#utility.yul\":8594:8763   */\n      swap3\n      swap2\n      pop\n      pop\n      jump\t// out\n        /* \"#utility.yul\":8769:8938   */\n    tag_353:\n        /* \"#utility.yul\":8909:8930   */\n      0x55736572206e6f74207265676973746572656400000000000000000000000000\n        /* \"#utility.yul\":8905:8906   */\n      0x00\n        /* \"#utility.yul\":8897:8903   */\n      dup3\n        /* \"#utility.yul\":8893:8907   */\n      add\n        /* \"#utility.yul\":8886:8931   */\n      mstore\n        /* \"#utility.yul\":8769:8938   */\n      pop\n      jump\t// out\n        /* \"#utility.yul\":8944:9310   */\n    tag_354:\n        /* \"#utility.yul\":9086:9089   */\n      0x00\n        /* \"#utility.yul\":9107:9174   */\n      tag_489\n        /* \"#utility.yul\":9171:9173   */\n      0x13\n        /* \"#utility.yul\":9166:9169   */\n      dup4\n        /* \"#utility.yul\":9107:9174   */\n      tag_352\n      jump\t// in\n    tag_489:\n        /* \"#utility.yul\":9100:9174   */\n      swap2\n      pop\n        /* \"#utility.yul\":9183:9276   */\n      tag_490\n        /* \"#utility.yul\":9272:9275   */\n      dup3\n        /* \"#utility.yul\":9183:9276   */\n      tag_353\n      jump\t// in\n    tag_490:\n        /* \"#utility.yul\":9301:9303   */\n      0x20\n        /* \"#utility.yul\":9296:9299   */\n      dup3\n        /* \"#utility.yul\":9292:9304   */\n      add\n        /* \"#utility.yul\":9285:9304   */\n      swap1\n      pop\n        /* \"#utility.yul\":8944:9310   */\n      swap2\n      swap1\n      pop\n      jump\t// out\n        /* \"#utility.yul\":9316:9735   */\n    tag_133:\n        /* \"#utility.yul\":9482:9486   */\n      0x00\n        /* \"#utility.yul\":9520:9522   */\n      0x20\n        /* \"#utility.yul\":9509:9518   */\n      dup3\n        /* \"#utility.yul\":9505:9523   */\n      add\n        /* \"#utility.yul\":9497:9523   */\n      swap1\n      pop\n        /* \"#utility.yul\":9569:9578   */\n      dup2\n        /* \"#utility.yul\":9563:9567   */\n      dup2\n        /* \"#utility.yul\":9559:9579   */\n      sub\n        /* \"#utility.yul\":9555:9556   */\n      0x00\n        /* \"#utility.yul\":9544:9553   */\n      dup4\n        /* \"#utility.yul\":9540:9557   */\n      add\n        /* \"#utility.yul\":9533:9580   */\n      mstore\n        /* \"#utility.yul\":9597:9728   */\n      tag_492\n        /* \"#utility.yul\":9723:9727   */\n      dup2\n        /* \"#utility.yul\":9597:9728   */\n      tag_354\n      jump\t// in\n    tag_492:\n        /* \"#utility.yul\":9589:9728   */\n      swap1\n      pop\n        /* \"#utility.yul\":9316:9735   */\n      swap2\n      swap1\n      pop\n      jump\t// out\n        /* \"#utility.yul\":9741:9921   */\n    tag_355:\n        /* \"#utility.yul\":9789:9866   */\n      0x4e487b7100000000000000000000000000000000000000000000000000000000\n        /* \"#utility.yul\":9786:9787   */\n      0x00\n        /* \"#utility.yul\":9779:9867   */\n      mstore\n        /* \"#utility.yul\":9886:9890   */\n      0x11\n        /* \"#utility.yul\":9883:9884   */\n      0x04\n        /* \"#utility.yul\":9876:9891   */\n      mstore\n        /* \"#utility.yul\":9910:9914   */\n      0x24\n        /* \"#utility.yul\":9907:9908   */\n      0x00\n        /* \"#utility.yul\":9900:9915   */\n      revert\n        /* \"#utility.yul\":9927:10160   */\n    tag_138:\n        /* \"#utility.yul\":9966:9969   */\n      0x00\n        /* \"#utility.yul\":9989:10013   */\n      tag_495\n        /* \"#utility.yul\":10007:10012   */\n      dup3\n        /* \"#utility.yul\":9989:10013   */\n      tag_327\n      jump\t// in\n    tag_495:\n        /* \"#utility.yul\":9980:10013   */\n      swap2\n      pop\n        /* \"#utility.yul\":10035:10101   */\n      0xffffffffffffffffffffffffffffffffffffffffffffffffffffffffffffffff\n        /* \"#utility.yul\":10028:10033   */\n      dup3\n        /* \"#utility.yul\":10025:10102   */\n      sub\n        /* \"#utility.yul\":10022:10125   */\n      tag_496\n      jumpi\n        /* \"#utility.yul\":10105:10123   */\n      tag_497\n      tag_355\n      jump\t// in\n    tag_497:\n        /* \"#utility.yul\":10022:10125   */\n    tag_496:\n        /* \"#utility.yul\":10152:10153   */\n      0x01\n        /* \"#utility.yul\":10145:10150   */\n      dup3\n        /* \"#utility.yul\":10141:10154   */\n      add\n        /* \"#utility.yul\":10134:10154   */\n      swap1\n      pop\n        /* \"#utility.yul\":9927:10160   */\n      swap2\n      swap1\n      pop\n      jump\t// out\n        /* \"#utility.yul\":10166:10334   */\n    tag_356:\n        /* \"#utility.yul\":10306:10326   */\n      0x496e76616c696420706f736974696f6e49640000000000000000000000000000\n        /* \"#utility.yul\":10302:10303   */\n      0x00\n        /* \"#utility.yul\":10294:10300   */\n      dup3\n        /* \"#utility.yul\":10290:10304   */\n      add\n        /* \"#utility.yul\":10283:10327   */\n      mstore\n        /* \"#utility.yul\":10166:10334   */\n      pop\n      jump\t// out\n        /* \"#utility.yul\":10340:10706   */\n    tag_357:\n        /* \"#utility.yul\":10482:10485   */\n      0x00\n        /* \"#utility.yul\":10503:10570   */\n      tag_500\n        /* \"#utility.yul\":10567:10569   */\n      0x12\n        /* \"#utility.yul\":10562:10565   */\n      dup4\n        /* \"#utility.yul\":10503:10570   */\n      tag_352\n      jump\t// in\n    tag_500:\n        /* \"#utility.yul\":10496:10570   */\n      swap2\n      pop\n        /* \"#utility.yul\":10579:10672   */\n      tag_501\n        /* \"#utility.yul\":10668:10671   */\n      dup3\n        /* \"#utility.yul\":10579:10672   */\n      tag_356\n      jump\t// in\n    tag_501:\n        /* \"#utility.yul\":10697:10699   */\n      0x20\n        /* \"#utility.yul\":10692:10695   */\n      dup3\n        /* \"#utility.yul\":10688:10700   */\n      add\n        /* \"#utility.yul\":10681:10700   */\n      swap1\n      pop\n        /* \"#utility.yul\":10340:10706   */\n      swap2\n      swap1\n      pop\n      jump\t// out\n        /* \"#utility.yul\":10712:11131   */\n    tag_144:\n        /* \"#utility.yul\":10878:10882   */\n      0x00\n        /* \"#utility.yul\":10916:10918   */\n      0x20\n        /* \"#utility.yul\":10905:10914   */\n      dup3\n        /* \"#utility.yul\":10901:10919   */\n      add\n        /* \"#utility.yul\":10893:10919   */\n      swap1\n      pop\n        /* \"#utility.yul\":10965:10974   */\n      dup2\n        /* \"#utility.yul\":10959:10963   */\n      dup2\n        /* \"#utility.yul\":10955:10975   */\n      sub\n        /* \"#utility.yul\":10951:10952   */\n      0x00\n        /* \"#utility.yul\":10940:10949   */\n      dup4\n        /* \"#utility.yul\":10936:10953   */\n      add\n        /* \"#utility.yul\":10929:10976   */\n      mstore\n        /* \"#utility.yul\":10993:11124   */\n      tag_503\n        /* \"#utility.yul\":11119:11123   */\n      dup2\n        /* \"#utility.yul\":10993:11124   */\n      tag_357\n      jump\t// in\n    tag_503:\n        /* \"#utility.yul\":10985:11124   */\n      swap1\n      pop\n        /* \"#utility.yul\":10712:11131   */\n      swap2\n      swap1\n      pop\n      jump\t// out\n        /* \"#utility.yul\":11137:11317   */\n    tag_153:\n        /* \"#utility.yul\":11185:11262   */\n      0x4e487b7100000000000000000000000000000000000000000000000000000000\n        /* \"#utility.yul\":11182:11183   */\n      0x00\n        /* \"#utility.yul\":11175:11263   */\n      mstore\n        /* \"#utility.yul\":11282:11286   */\n      0x32\n        /* \"#utility.yul\":11279:11280   */\n      0x04\n        /* \"#utility.yul\":11272:11287   */\n      mstore\n        /* \"#utility.yul\":11306:11310   */\n      0x24\n        /* \"#utility.yul\":11303:11304   */\n      0x00\n        /* \"#utility.yul\":11296:11311   */\n      revert\n        /* \"#utility.yul\":11323:11733   */\n    tag_160:\n        /* \"#utility.yul\":11363:11370   */\n      0x00\n        /* \"#utility.yul\":11386:11406   */\n      tag_506\n        /* \"#utility.yul\":11404:11405   */\n      dup3\n        /* \"#utility.yul\":11386:11406   */\n      tag_327\n      jump\t// in\n    tag_506:\n        /* \"#utility.yul\":11381:11406   */\n      swap2\n      pop\n        /* \"#utility.yul\":11420:11440   */\n      tag_507\n        /* \"#utility.yul\":11438:11439   */\n      dup4\n        /* \"#utility.yul\":11420:11440   */\n      tag_327\n      jump\t// in\n    tag_507:\n        /* \"#utility.yul\":11415:11440   */\n      swap3\n      pop\n        /* \"#utility.yul\":11475:11476   */\n      dup3\n        /* \"#utility.yul\":11472:11473   */\n      dup3\n        /* \"#utility.yul\":11468:11477   */\n      mul\n        /* \"#utility.yul\":11497:11527   */\n      tag_508\n        /* \"#utility.yul\":11515:11526   */\n      dup2\n        /* \"#utility.yul\":11497:11527   */\n      tag_327\n      jump\t// in\n    tag_508:\n        /* \"#utility.yul\":11486:11527   */\n      swap2\n      pop\n        /* \"#utility.yul\":11676:11677   */\n      dup3\n        /* \"#utility.yul\":11667:11674   */\n      dup3\n        /* \"#utility.yul\":11663:11678   */\n      div\n        /* \"#utility.yul\":11660:11661   */\n      dup5\n        /* \"#utility.yul\":11657:11679   */\n      eq\n        /* \"#utility.yul\":11637:11638   */\n      dup4\n        /* \"#utility.yul\":11630:11639   */\n      iszero\n        /* \"#utility.yul\":11610:11693   */\n      or\n        /* \"#utility.yul\":11587:11726   */\n      tag_509\n      jumpi\n        /* \"#utility.yul\":11706:11724   */\n      tag_510\n      tag_355\n      jump\t// in\n    tag_510:\n        /* \"#utility.yul\":11587:11726   */\n    tag_509:\n        /* \"#utility.yul\":11371:11733   */\n      pop\n        /* \"#utility.yul\":11323:11733   */\n      swap3\n      swap2\n      pop\n      pop\n      jump\t// out\n        /* \"#utility.yul\":11739:11919   */\n    tag_358:\n        /* \"#utility.yul\":11787:11864   */\n      0x4e487b7100000000000000000000000000000000000000000000000000000000\n        /* \"#utility.yul\":11784:11785   */\n      0x00\n        /* \"#utility.yul\":11777:11865   */\n      mstore\n        /* \"#utility.yul\":11884:11888   */\n      0x12\n        /* \"#utility.yul\":11881:11882   */\n      0x04\n        /* \"#utility.yul\":11874:11889   */\n      mstore\n        /* \"#utility.yul\":11908:11912   */\n      0x24\n        /* \"#utility.yul\":11905:11906   */\n      0x00\n        /* \"#utility.yul\":11898:11913   */\n      revert\n        /* \"#utility.yul\":11925:12110   */\n    tag_163:\n        /* \"#utility.yul\":11965:11966   */\n      0x00\n        /* \"#utility.yul\":11982:12002   */\n      tag_513\n        /* \"#utility.yul\":12000:12001   */\n      dup3\n        /* \"#utility.yul\":11982:12002   */\n      tag_327\n      jump\t// in\n    tag_513:\n        /* \"#utility.yul\":11977:12002   */\n      swap2\n      pop\n        /* \"#utility.yul\":12016:12036   */\n      tag_514\n        /* \"#utility.yul\":12034:12035   */\n      dup4\n        /* \"#utility.yul\":12016:12036   */\n      tag_327\n      jump\t// in\n    tag_514:\n        /* \"#utility.yul\":12011:12036   */\n      swap3\n      pop\n        /* \"#utility.yul\":12055:12056   */\n      dup3\n        /* \"#utility.yul\":12045:12080   */\n      tag_515\n      jumpi\n        /* \"#utility.yul\":12060:12078   */\n      tag_516\n      tag_358\n      jump\t// in\n    tag_516:\n        /* \"#utility.yul\":12045:12080   */\n    tag_515:\n        /* \"#utility.yul\":12102:12103   */\n      dup3\n        /* \"#utility.yul\":12099:12100   */\n      dup3\n        /* \"#utility.yul\":12095:12104   */\n      div\n        /* \"#utility.yul\":12090:12104   */\n      swap1\n      pop\n        /* \"#utility.yul\":11925:12110   */\n      swap3\n      swap2\n      pop\n      pop\n      jump\t// out\n        /* \"#utility.yul\":12116:12281   */\n    tag_359:\n        /* \"#utility.yul\":12256:12273   */\n      0x5374616b65206e6f7420666f756e640000000000000000000000000000000000\n        /* \"#utility.yul\":12252:12253   */\n      0x00\n        /* \"#utility.yul\":12244:12250   */\n      dup3\n        /* \"#utility.yul\":12240:12254   */\n      add\n        /* \"#utility.yul\":12233:12274   */\n      mstore\n        /* \"#utility.yul\":12116:12281   */\n      pop\n      jump\t// out\n        /* \"#utility.yul\":12287:12653   */\n    tag_360:\n        /* \"#utility.yul\":12429:12432   */\n      0x00\n        /* \"#utility.yul\":12450:12517   */\n      tag_519\n        /* \"#utility.yul\":12514:12516   */\n      0x0f\n        /* \"#utility.yul\":12509:12512   */\n      dup4\n        /* \"#utility.yul\":12450:12517   */\n      tag_352\n      jump\t// in\n    tag_519:\n        /* \"#utility.yul\":12443:12517   */\n      swap2\n      pop\n        /* \"#utility.yul\":12526:12619   */\n      tag_520\n        /* \"#utility.yul\":12615:12618   */\n      dup3\n        /* \"#utility.yul\":12526:12619   */\n      tag_359\n      jump\t// in\n    tag_520:\n        /* \"#utility.yul\":12644:12646   */\n      0x20\n        /* \"#utility.yul\":12639:12642   */\n      dup3\n        /* \"#utility.yul\":12635:12647   */\n      add\n        /* \"#utility.yul\":12628:12647   */\n      swap1\n      pop\n        /* \"#utility.yul\":12287:12653   */\n      swap2\n      swap1\n      pop\n      jump\t// out\n        /* \"#utility.yul\":12659:13078   */\n    tag_166:\n        /* \"#utility.yul\":12825:12829   */\n      0x00\n        /* \"#utility.yul\":12863:12865   */\n      0x20\n        /* \"#utility.yul\":12852:12861   */\n      dup3\n        /* \"#utility.yul\":12848:12866   */\n      add\n        /* \"#utility.yul\":12840:12866   */\n      swap1\n      pop\n        /* \"#utility.yul\":12912:12921   */\n      dup2\n        /* \"#utility.yul\":12906:12910   */\n      dup2\n        /* \"#utility.yul\":12902:12922   */\n      sub\n        /* \"#utility.yul\":12898:12899   */\n      0x00\n        /* \"#utility.yul\":12887:12896   */\n      dup4\n        /* \"#utility.yul\":12883:12900   */\n      add\n        /* \"#utility.yul\":12876:12923   */\n      mstore\n        /* \"#utility.yul\":12940:13071   */\n      tag_522\n        /* \"#utility.yul\":13066:13070   */\n      dup2\n        /* \"#utility.yul\":12940:13071   */\n      tag_360\n      jump\t// in\n    tag_522:\n        /* \"#utility.yul\":12932:13071   */\n      swap1\n      pop\n        /* \"#utility.yul\":12659:13078   */\n      swap2\n      swap1\n      pop\n      jump\t// out\n        /* \"#utility.yul\":13084:13264   */\n    tag_170:\n        /* \"#utility.yul\":13132:13209   */\n      0x4e487b7100000000000000000000000000000000000000000000000000000000\n        /* \"#utility.yul\":13129:13130   */\n      0x00\n        /* \"#utility.yul\":13122:13210   */\n      mstore\n        /* \"#utility.yul\":13229:13233   */\n      0x41\n        /* \"#utility.yul\":13226:13227   */\n      0x04\n        /* \"#utility.yul\":13219:13234   */\n      mstore\n        /* \"#utility.yul\":13253:13257   */\n      0x24\n        /* \"#utility.yul\":13250:13251   */\n      0x00\n        /* \"#utility.yul\":13243:13258   */\n      revert\n        /* \"#utility.yul\":13270:13443   */\n    tag_361:\n        /* \"#utility.yul\":13410:13435   */\n      0x4f6e6c79206f776e65722063616e207769746864726177000000000000000000\n        /* \"#utility.yul\":13406:13407   */\n      0x00\n        /* \"#utility.yul\":13398:13404   */\n      dup3\n        /* \"#utility.yul\":13394:13408   */\n      add\n        /* \"#utility.yul\":13387:13436   */\n      mstore\n        /* \"#utility.yul\":13270:13443   */\n      pop\n      jump\t// out\n        /* \"#utility.yul\":13449:13815   */\n    tag_362:\n        /* \"#utility.yul\":13591:13594   */\n      0x00\n        /* \"#utility.yul\":13612:13679   */\n      tag_526\n        /* \"#utility.yul\":13676:13678   */\n      0x17\n        /* \"#utility.yul\":13671:13674   */\n      dup4\n        /* \"#utility.yul\":13612:13679   */\n      tag_352\n      jump\t// in\n    tag_526:\n        /* \"#utility.yul\":13605:13679   */\n      swap2\n      pop\n        /* \"#utility.yul\":13688:13781   */\n      tag_527\n        /* \"#utility.yul\":13777:13780   */\n      dup3\n        /* \"#utility.yul\":13688:13781   */\n      tag_361\n      jump\t// in\n    tag_527:\n        /* \"#utility.yul\":13806:13808   */\n      0x20\n        /* \"#utility.yul\":13801:13804   */\n      dup3\n        /* \"#utility.yul\":13797:13809   */\n      add\n        /* \"#utility.yul\":13790:13809   */\n      swap1\n      pop\n        /* \"#utility.yul\":13449:13815   */\n      swap2\n      swap1\n      pop\n      jump\t// out\n        /* \"#utility.yul\":13821:14240   */\n    tag_183:\n        /* \"#utility.yul\":13987:13991   */\n      0x00\n        /* \"#utility.yul\":14025:14027   */\n      0x20\n        /* \"#utility.yul\":14014:14023   */\n      dup3\n        /* \"#utility.yul\":14010:14028   */\n      add\n        /* \"#utility.yul\":14002:14028   */\n      swap1\n      pop\n        /* \"#utility.yul\":14074:14083   */\n      dup2\n        /* \"#utility.yul\":14068:14072   */\n      dup2\n        /* \"#utility.yul\":14064:14084   */\n      sub\n        /* \"#utility.yul\":14060:14061   */\n      0x00\n        /* \"#utility.yul\":14049:14058   */\n      dup4\n        /* \"#utility.yul\":14045:14062   */\n      add\n        /* \"#utility.yul\":14038:14085   */\n      mstore\n        /* \"#utility.yul\":14102:14233   */\n      tag_529\n        /* \"#utility.yul\":14228:14232   */\n      dup2\n        /* \"#utility.yul\":14102:14233   */\n      tag_362\n      jump\t// in\n    tag_529:\n        /* \"#utility.yul\":14094:14233   */\n      swap1\n      pop\n        /* \"#utility.yul\":13821:14240   */\n      swap2\n      swap1\n      pop\n      jump\t// out\n        /* \"#utility.yul\":14246:14578   */\n    tag_185:\n        /* \"#utility.yul\":14367:14371   */\n      0x00\n        /* \"#utility.yul\":14405:14407   */\n      0x40\n        /* \"#utility.yul\":14394:14403   */\n      dup3\n        /* \"#utility.yul\":14390:14408   */\n      add\n        /* \"#utility.yul\":14382:14408   */\n      swap1\n      pop\n        /* \"#utility.yul\":14418:14489   */\n      tag_531\n        /* \"#utility.yul\":14486:14487   */\n      0x00\n        /* \"#utility.yul\":14475:14484   */\n      dup4\n        /* \"#utility.yul\":14471:14488   */\n      add\n        /* \"#utility.yul\":14462:14468   */\n      dup6\n        /* \"#utility.yul\":14418:14489   */\n      tag_332\n      jump\t// in\n    tag_531:\n        /* \"#utility.yul\":14499:14571   */\n      tag_532\n        /* \"#utility.yul\":14567:14569   */\n      0x20\n        /* \"#utility.yul\":14556:14565   */\n      dup4\n        /* \"#utility.yul\":14552:14570   */\n      add\n        /* \"#utility.yul\":14543:14549   */\n      dup5\n        /* \"#utility.yul\":14499:14571   */\n      tag_335\n      jump\t// in\n    tag_532:\n        /* \"#utility.yul\":14246:14578   */\n      swap4\n      swap3\n      pop\n      pop\n      pop\n      jump\t// out\n        /* \"#utility.yul\":14584:14700   */\n    tag_363:\n        /* \"#utility.yul\":14654:14675   */\n      tag_534\n        /* \"#utility.yul\":14669:14674   */\n      dup2\n        /* \"#utility.yul\":14654:14675   */\n      tag_343\n      jump\t// in\n    tag_534:\n        /* \"#utility.yul\":14647:14652   */\n      dup2\n        /* \"#utility.yul\":14644:14676   */\n      eq\n        /* \"#utility.yul\":14634:14694   */\n      tag_535\n      jumpi\n        /* \"#utility.yul\":14690:14691   */\n      0x00\n        /* \"#utility.yul\":14687:14688   */\n      dup1\n        /* \"#utility.yul\":14680:14692   */\n      revert\n        /* \"#utility.yul\":14634:14694   */\n    tag_535:\n        /* \"#utility.yul\":14584:14700   */\n      pop\n      jump\t// out\n        /* \"#utility.yul\":14706:14843   */\n    tag_364:\n        /* \"#utility.yul\":14760:14765   */\n      0x00\n        /* \"#utility.yul\":14791:14797   */\n      dup2\n        /* \"#utility.yul\":14785:14798   */\n      mload\n        /* \"#utility.yul\":14776:14798   */\n      swap1\n      pop\n        /* \"#utility.yul\":14807:14837   */\n      tag_537\n        /* \"#utility.yul\":14831:14836   */\n      dup2\n        /* \"#utility.yul\":14807:14837   */\n      tag_363\n      jump\t// in\n    tag_537:\n        /* \"#utility.yul\":14706:14843   */\n      swap3\n      swap2\n      pop\n      pop\n      jump\t// out\n        /* \"#utility.yul\":14849:15194   */\n    tag_189:\n        /* \"#utility.yul\":14916:14922   */\n      0x00\n        /* \"#utility.yul\":14965:14967   */\n      0x20\n        /* \"#utility.yul\":14953:14962   */\n      dup3\n        /* \"#utility.yul\":14944:14951   */\n      dup5\n        /* \"#utility.yul\":14940:14963   */\n      sub\n        /* \"#utility.yul\":14936:14968   */\n      slt\n        /* \"#utility.yul\":14933:15052   */\n      iszero\n      tag_539\n      jumpi\n        /* \"#utility.yul\":14971:15050   */\n      tag_540\n      tag_325\n      jump\t// in\n    tag_540:\n        /* \"#utility.yul\":14933:15052   */\n    tag_539:\n        /* \"#utility.yul\":15091:15092   */\n      0x00\n        /* \"#utility.yul\":15116:15177   */\n      tag_541\n        /* \"#utility.yul\":15169:15176   */\n      dup5\n        /* \"#utility.yul\":15160:15166   */\n      dup3\n        /* \"#utility.yul\":15149:15158   */\n      dup6\n        /* \"#utility.yul\":15145:15167   */\n      add\n        /* \"#utility.yul\":15116:15177   */\n      tag_364\n      jump\t// in\n    tag_541:\n        /* \"#utility.yul\":15106:15177   */\n      swap2\n      pop\n        /* \"#utility.yul\":15062:15187   */\n      pop\n        /* \"#utility.yul\":14849:15194   */\n      swap3\n      swap2\n      pop\n      pop\n      jump\t// out\n        /* \"#utility.yul\":15200:15365   */\n    tag_365:\n        /* \"#utility.yul\":15340:15357   */\n      0x5769746864726177206661696c65640000000000000000000000000000000000\n        /* \"#utility.yul\":15336:15337   */\n      0x00\n        /* \"#utility.yul\":15328:15334   */\n      dup3\n        /* \"#utility.yul\":15324:15338   */\n      add\n        /* \"#utility.yul\":15317:15358   */\n      mstore\n        /* \"#utility.yul\":15200:15365   */\n      pop\n      jump\t// out\n        /* \"#utility.yul\":15371:15737   */\n    tag_366:\n        /* \"#utility.yul\":15513:15516   */\n      0x00\n        /* \"#utility.yul\":15534:15601   */\n      tag_544\n        /* \"#utility.yul\":15598:15600   */\n      0x0f\n        /* \"#utility.yul\":15593:15596   */\n      dup4\n        /* \"#utility.yul\":15534:15601   */\n      tag_352\n      jump\t// in\n    tag_544:\n        /* \"#utility.yul\":15527:15601   */\n      swap2\n      pop\n        /* \"#utility.yul\":15610:15703   */\n      tag_545\n        /* \"#utility.yul\":15699:15702   */\n      dup3\n        /* \"#utility.yul\":15610:15703   */\n      tag_365\n      jump\t// in\n    tag_545:\n        /* \"#utility.yul\":15728:15730   */\n      0x20\n        /* \"#utility.yul\":15723:15726   */\n      dup3\n        /* \"#utility.yul\":15719:15731   */\n      add\n        /* \"#utility.yul\":15712:15731   */\n      swap1\n      pop\n        /* \"#utility.yul\":15371:15737   */\n      swap2\n      swap1\n      pop\n      jump\t// out\n        /* \"#utility.yul\":15743:16162   */\n    tag_192:\n        /* \"#utility.yul\":15909:15913   */\n      0x00\n        /* \"#utility.yul\":15947:15949   */\n      0x20\n        /* \"#utility.yul\":15936:15945   */\n      dup3\n        /* \"#utility.yul\":15932:15950   */\n      add\n        /* \"#utility.yul\":15924:15950   */\n      swap1\n      pop\n        /* \"#utility.yul\":15996:16005   */\n      dup2\n        /* \"#utility.yul\":15990:15994   */\n      dup2\n        /* \"#utility.yul\":15986:16006   */\n      sub\n        /* \"#utility.yul\":15982:15983   */\n      0x00\n        /* \"#utility.yul\":15971:15980   */\n      dup4\n        /* \"#utility.yul\":15967:15984   */\n      add\n        /* \"#utility.yul\":15960:16007   */\n      mstore\n        /* \"#utility.yul\":16024:16155   */\n      tag_547\n        /* \"#utility.yul\":16150:16154   */\n      dup2\n        /* \"#utility.yul\":16024:16155   */\n      tag_366\n      jump\t// in\n    tag_547:\n        /* \"#utility.yul\":16016:16155   */\n      swap1\n      pop\n        /* \"#utility.yul\":15743:16162   */\n      swap2\n      swap1\n      pop\n      jump\t// out\n        /* \"#utility.yul\":16168:16332   */\n    tag_367:\n        /* \"#utility.yul\":16308:16324   */\n      0x4e6f7420796f7572207374616b65000000000000000000000000000000000000\n        /* \"#utility.yul\":16304:16305   */\n      0x00\n        /* \"#utility.yul\":16296:16302   */\n      dup3\n        /* \"#utility.yul\":16292:16306   */\n      add\n        /* \"#utility.yul\":16285:16325   */\n      mstore\n        /* \"#utility.yul\":16168:16332   */\n      pop\n      jump\t// out\n        /* \"#utility.yul\":16338:16704   */\n    tag_368:\n        /* \"#utility.yul\":16480:16483   */\n      0x00\n        /* \"#utility.yul\":16501:16568   */\n      tag_550\n        /* \"#utility.yul\":16565:16567   */\n      0x0e\n        /* \"#utility.yul\":16560:16563   */\n      dup4\n        /* \"#utility.yul\":16501:16568   */\n      tag_352\n      jump\t// in\n    tag_550:\n        /* \"#utility.yul\":16494:16568   */\n      swap2\n      pop\n        /* \"#utility.yul\":16577:16670   */\n      tag_551\n        /* \"#utility.yul\":16666:16669   */\n      dup3\n        /* \"#utility.yul\":16577:16670   */\n      tag_367\n      jump\t// in\n    tag_551:\n        /* \"#utility.yul\":16695:16697   */\n      0x20\n        /* \"#utility.yul\":16690:16693   */\n      dup3\n        /* \"#utility.yul\":16686:16698   */\n      add\n        /* \"#utility.yul\":16679:16698   */\n      swap1\n      pop\n        /* \"#utility.yul\":16338:16704   */\n      swap2\n      swap1\n      pop\n      jump\t// out\n        /* \"#utility.yul\":16710:17129   */\n    tag_199:\n        /* \"#utility.yul\":16876:16880   */\n      0x00\n        /* \"#utility.yul\":16914:16916   */\n      0x20\n        /* \"#utility.yul\":16903:16912   */\n      dup3\n        /* \"#utility.yul\":16899:16917   */\n      add\n        /* \"#utility.yul\":16891:16917   */\n      swap1\n      pop\n        /* \"#utility.yul\":16963:16972   */\n      dup2\n        /* \"#utility.yul\":16957:16961   */\n      dup2\n        /* \"#utility.yul\":16953:16973   */\n      sub\n        /* \"#utility.yul\":16949:16950   */\n      0x00\n        /* \"#utility.yul\":16938:16947   */\n      dup4\n        /* \"#utility.yul\":16934:16951   */\n      add\n        /* \"#utility.yul\":16927:16974   */\n      mstore\n        /* \"#utility.yul\":16991:17122   */\n      tag_553\n        /* \"#utility.yul\":17117:17121   */\n      dup2\n        /* \"#utility.yul\":16991:17122   */\n      tag_368\n      jump\t// in\n    tag_553:\n        /* \"#utility.yul\":16983:17122   */\n      swap1\n      pop\n        /* \"#utility.yul\":16710:17129   */\n      swap2\n      swap1\n      pop\n      jump\t// out\n        /* \"#utility.yul\":17135:17300   */\n    tag_369:\n        /* \"#utility.yul\":17275:17292   */\n      0x416c726561647920636c61696d65640000000000000000000000000000000000\n        /* \"#utility.yul\":17271:17272   */\n      0x00\n        /* \"#utility.yul\":17263:17269   */\n      dup3\n        /* \"#utility.yul\":17259:17273   */\n      add\n        /* \"#utility.yul\":17252:17293   */\n      mstore\n        /* \"#utility.yul\":17135:17300   */\n      pop\n      jump\t// out\n        /* \"#utility.yul\":17306:17672   */\n    tag_370:\n        /* \"#utility.yul\":17448:17451   */\n      0x00\n        /* \"#utility.yul\":17469:17536   */\n      tag_556\n        /* \"#utility.yul\":17533:17535   */\n      0x0f\n        /* \"#utility.yul\":17528:17531   */\n      dup4\n        /* \"#utility.yul\":17469:17536   */\n      tag_352\n      jump\t// in\n    tag_556:\n        /* \"#utility.yul\":17462:17536   */\n      swap2\n      pop\n        /* \"#utility.yul\":17545:17638   */\n      tag_557\n        /* \"#utility.yul\":17634:17637   */\n      dup3\n        /* \"#utility.yul\":17545:17638   */\n      tag_369\n      jump\t// in\n    tag_557:\n        /* \"#utility.yul\":17663:17665   */\n      0x20\n        /* \"#utility.yul\":17658:17661   */\n      dup3\n        /* \"#utility.yul\":17654:17666   */\n      add\n        /* \"#utility.yul\":17647:17666   */\n      swap1\n      pop\n        /* \"#utility.yul\":17306:17672   */\n      swap2\n      swap1\n      pop\n      jump\t// out\n        /* \"#utility.yul\":17678:18097   */\n    tag_209:\n        /* \"#utility.yul\":17844:17848   */\n      0x00\n        /* \"#utility.yul\":17882:17884   */\n      0x20\n        /* \"#utility.yul\":17871:17880   */\n      dup3\n        /* \"#utility.yul\":17867:17885   */\n      add\n        /* \"#utility.yul\":17859:17885   */\n      swap1\n      pop\n        /* \"#utility.yul\":17931:17940   */\n      dup2\n        /* \"#utility.yul\":17925:17929   */\n      dup2\n        /* \"#utility.yul\":17921:17941   */\n      sub\n        /* \"#utility.yul\":17917:17918   */\n      0x00\n        /* \"#utility.yul\":17906:17915   */\n      dup4\n        /* \"#utility.yul\":17902:17919   */\n      add\n        /* \"#utility.yul\":17895:17942   */\n      mstore\n        /* \"#utility.yul\":17959:18090   */\n      tag_559\n        /* \"#utility.yul\":18085:18089   */\n      dup2\n        /* \"#utility.yul\":17959:18090   */\n      tag_370\n      jump\t// in\n    tag_559:\n        /* \"#utility.yul\":17951:18090   */\n      swap1\n      pop\n        /* \"#utility.yul\":17678:18097   */\n      swap2\n      swap1\n      pop\n      jump\t// out\n        /* \"#utility.yul\":18103:18297   */\n    tag_211:\n        /* \"#utility.yul\":18143:18147   */\n      0x00\n        /* \"#utility.yul\":18163:18183   */\n      tag_561\n        /* \"#utility.yul\":18181:18182   */\n      dup3\n        /* \"#utility.yul\":18163:18183   */\n      tag_327\n      jump\t// in\n    tag_561:\n        /* \"#utility.yul\":18158:18183   */\n      swap2\n      pop\n        /* \"#utility.yul\":18197:18217   */\n      tag_562\n        /* \"#utility.yul\":18215:18216   */\n      dup4\n        /* \"#utility.yul\":18197:18217   */\n      tag_327\n      jump\t// in\n    tag_562:\n        /* \"#utility.yul\":18192:18217   */\n      swap3\n      pop\n        /* \"#utility.yul\":18241:18242   */\n      dup3\n        /* \"#utility.yul\":18238:18239   */\n      dup3\n        /* \"#utility.yul\":18234:18243   */\n      sub\n        /* \"#utility.yul\":18226:18243   */\n      swap1\n      pop\n        /* \"#utility.yul\":18265:18266   */\n      dup2\n        /* \"#utility.yul\":18259:18263   */\n      dup2\n        /* \"#utility.yul\":18256:18267   */\n      gt\n        /* \"#utility.yul\":18253:18290   */\n      iszero\n      tag_563\n      jumpi\n        /* \"#utility.yul\":18270:18288   */\n      tag_564\n      tag_355\n      jump\t// in\n    tag_564:\n        /* \"#utility.yul\":18253:18290   */\n    tag_563:\n        /* \"#utility.yul\":18103:18297   */\n      swap3\n      swap2\n      pop\n      pop\n      jump\t// out\n        /* \"#utility.yul\":18303:18536   */\n    tag_371:\n        /* \"#utility.yul\":18443:18477   */\n      0x43616e6e6f7420636c61696d206265747765656e203230206461797320616e64\n        /* \"#utility.yul\":18439:18440   */\n      0x00\n        /* \"#utility.yul\":18431:18437   */\n      dup3\n        /* \"#utility.yul\":18427:18441   */\n      add\n        /* \"#utility.yul\":18420:18478   */\n      mstore\n        /* \"#utility.yul\":18512:18528   */\n      0x2066756c6c206475726174696f6e000000000000000000000000000000000000\n        /* \"#utility.yul\":18507:18509   */\n      0x20\n        /* \"#utility.yul\":18499:18505   */\n      dup3\n        /* \"#utility.yul\":18495:18510   */\n      add\n        /* \"#utility.yul\":18488:18529   */\n      mstore\n        /* \"#utility.yul\":18303:18536   */\n      pop\n      jump\t// out\n        /* \"#utility.yul\":18542:18908   */\n    tag_372:\n        /* \"#utility.yul\":18684:18687   */\n      0x00\n        /* \"#utility.yul\":18705:18772   */\n      tag_567\n        /* \"#utility.yul\":18769:18771   */\n      0x2e\n        /* \"#utility.yul\":18764:18767   */\n      dup4\n        /* \"#utility.yul\":18705:18772   */\n      tag_352\n      jump\t// in\n    tag_567:\n        /* \"#utility.yul\":18698:18772   */\n      swap2\n      pop\n        /* \"#utility.yul\":18781:18874   */\n      tag_568\n        /* \"#utility.yul\":18870:18873   */\n      dup3\n        /* \"#utility.yul\":18781:18874   */\n      tag_371\n      jump\t// in\n    tag_568:\n        /* \"#utility.yul\":18899:18901   */\n      0x40\n        /* \"#utility.yul\":18894:18897   */\n      dup3\n        /* \"#utility.yul\":18890:18902   */\n      add\n        /* \"#utility.yul\":18883:18902   */\n      swap1\n      pop\n        /* \"#utility.yul\":18542:18908   */\n      swap2\n      swap1\n      pop\n      jump\t// out\n        /* \"#utility.yul\":18914:19333   */\n    tag_220:\n        /* \"#utility.yul\":19080:19084   */\n      0x00\n        /* \"#utility.yul\":19118:19120   */\n      0x20\n        /* \"#utility.yul\":19107:19116   */\n      dup3\n        /* \"#utility.yul\":19103:19121   */\n      add\n        /* \"#utility.yul\":19095:19121   */\n      swap1\n      pop\n        /* \"#utility.yul\":19167:19176   */\n      dup2\n        /* \"#utility.yul\":19161:19165   */\n      dup2\n        /* \"#utility.yul\":19157:19177   */\n      sub\n        /* \"#utility.yul\":19153:19154   */\n      0x00\n        /* \"#utility.yul\":19142:19151   */\n      dup4\n        /* \"#utility.yul\":19138:19155   */\n      add\n        /* \"#utility.yul\":19131:19178   */\n      mstore\n        /* \"#utility.yul\":19195:19326   */\n      tag_570\n        /* \"#utility.yul\":19321:19325   */\n      dup2\n        /* \"#utility.yul\":19195:19326   */\n      tag_372\n      jump\t// in\n    tag_570:\n        /* \"#utility.yul\":19187:19326   */\n      swap1\n      pop\n        /* \"#utility.yul\":18914:19333   */\n      swap2\n      swap1\n      pop\n      jump\t// out\n        /* \"#utility.yul\":19339:19530   */\n    tag_222:\n        /* \"#utility.yul\":19379:19382   */\n      0x00\n        /* \"#utility.yul\":19398:19418   */\n      tag_572\n        /* \"#utility.yul\":19416:19417   */\n      dup3\n        /* \"#utility.yul\":19398:19418   */\n      tag_327\n      jump\t// in\n    tag_572:\n        /* \"#utility.yul\":19393:19418   */\n      swap2\n      pop\n        /* \"#utility.yul\":19432:19452   */\n      tag_573\n        /* \"#utility.yul\":19450:19451   */\n      dup4\n        /* \"#utility.yul\":19432:19452   */\n      tag_327\n      jump\t// in\n    tag_573:\n        /* \"#utility.yul\":19427:19452   */\n      swap3\n      pop\n        /* \"#utility.yul\":19475:19476   */\n      dup3\n        /* \"#utility.yul\":19472:19473   */\n      dup3\n        /* \"#utility.yul\":19468:19477   */\n      add\n        /* \"#utility.yul\":19461:19477   */\n      swap1\n      pop\n        /* \"#utility.yul\":19496:19499   */\n      dup1\n        /* \"#utility.yul\":19493:19494   */\n      dup3\n        /* \"#utility.yul\":19490:19500   */\n      gt\n        /* \"#utility.yul\":19487:19523   */\n      iszero\n      tag_574\n      jumpi\n        /* \"#utility.yul\":19503:19521   */\n      tag_575\n      tag_355\n      jump\t// in\n    tag_575:\n        /* \"#utility.yul\":19487:19523   */\n    tag_574:\n        /* \"#utility.yul\":19339:19530   */\n      swap3\n      swap2\n      pop\n      pop\n      jump\t// out\n        /* \"#utility.yul\":19536:19707   */\n    tag_373:\n        /* \"#utility.yul\":19676:19699   */\n      0x546f6b656e207472616e73666572206661696c65640000000000000000000000\n        /* \"#utility.yul\":19672:19673   */\n      0x00\n        /* \"#utility.yul\":19664:19670   */\n      dup3\n        /* \"#utility.yul\":19660:19674   */\n      add\n        /* \"#utility.yul\":19653:19700   */\n      mstore\n        /* \"#utility.yul\":19536:19707   */\n      pop\n      jump\t// out\n        /* \"#utility.yul\":19713:20079   */\n    tag_374:\n        /* \"#utility.yul\":19855:19858   */\n      0x00\n        /* \"#utility.yul\":19876:19943   */\n      tag_578\n        /* \"#utility.yul\":19940:19942   */\n      0x15\n        /* \"#utility.yul\":19935:19938   */\n      dup4\n        /* \"#utility.yul\":19876:19943   */\n      tag_352\n      jump\t// in\n    tag_578:\n        /* \"#utility.yul\":19869:19943   */\n      swap2\n      pop\n        /* \"#utility.yul\":19952:20045   */\n      tag_579\n        /* \"#utility.yul\":20041:20044   */\n      dup3\n        /* \"#utility.yul\":19952:20045   */\n      tag_373\n      jump\t// in\n    tag_579:\n        /* \"#utility.yul\":20070:20072   */\n      0x20\n        /* \"#utility.yul\":20065:20068   */\n      dup3\n        /* \"#utility.yul\":20061:20073   */\n      add\n        /* \"#utility.yul\":20054:20073   */\n      swap1\n      pop\n        /* \"#utility.yul\":19713:20079   */\n      swap2\n      swap1\n      pop\n      jump\t// out\n        /* \"#utility.yul\":20085:20504   */\n    tag_229:\n        /* \"#utility.yul\":20251:20255   */\n      0x00\n        /* \"#utility.yul\":20289:20291   */\n      0x20\n        /* \"#utility.yul\":20278:20287   */\n      dup3\n        /* \"#utility.yul\":20274:20292   */\n      add\n        /* \"#utility.yul\":20266:20292   */\n      swap1\n      pop\n        /* \"#utility.yul\":20338:20347   */\n      dup2\n        /* \"#utility.yul\":20332:20336   */\n      dup2\n        /* \"#utility.yul\":20328:20348   */\n      sub\n        /* \"#utility.yul\":20324:20325   */\n      0x00\n        /* \"#utility.yul\":20313:20322   */\n      dup4\n        /* \"#utility.yul\":20309:20326   */\n      add\n        /* \"#utility.yul\":20302:20349   */\n      mstore\n        /* \"#utility.yul\":20366:20497   */\n      tag_581\n        /* \"#utility.yul\":20492:20496   */\n      dup2\n        /* \"#utility.yul\":20366:20497   */\n      tag_374\n      jump\t// in\n    tag_581:\n        /* \"#utility.yul\":20358:20497   */\n      swap1\n      pop\n        /* \"#utility.yul\":20085:20504   */\n      swap2\n      swap1\n      pop\n      jump\t// out\n        /* \"#utility.yul\":20510:20842   */\n    tag_231:\n        /* \"#utility.yul\":20631:20635   */\n      0x00\n        /* \"#utility.yul\":20669:20671   */\n      0x40\n        /* \"#utility.yul\":20658:20667   */\n      dup3\n        /* \"#utility.yul\":20654:20672   */\n      add\n        /* \"#utility.yul\":20646:20672   */\n      swap1\n      pop\n        /* \"#utility.yul\":20682:20753   */\n      tag_583\n        /* \"#utility.yul\":20750:20751   */\n      0x00\n        /* \"#utility.yul\":20739:20748   */\n      dup4\n        /* \"#utility.yul\":20735:20752   */\n      add\n        /* \"#utility.yul\":20726:20732   */\n      dup6\n        /* \"#utility.yul\":20682:20753   */\n      tag_335\n      jump\t// in\n    tag_583:\n        /* \"#utility.yul\":20763:20835   */\n      tag_584\n        /* \"#utility.yul\":20831:20833   */\n      0x20\n        /* \"#utility.yul\":20820:20829   */\n      dup4\n        /* \"#utility.yul\":20816:20834   */\n      add\n        /* \"#utility.yul\":20807:20813   */\n      dup5\n        /* \"#utility.yul\":20763:20835   */\n      tag_335\n      jump\t// in\n    tag_584:\n        /* \"#utility.yul\":20510:20842   */\n      swap4\n      swap3\n      pop\n      pop\n      pop\n      jump\t// out\n        /* \"#utility.yul\":20848:21071   */\n    tag_375:\n        /* \"#utility.yul\":20988:21022   */\n      0x5374616b65206e6f7420666f756e6420666f7220676976656e20706f73697469\n        /* \"#utility.yul\":20984:20985   */\n      0x00\n        /* \"#utility.yul\":20976:20982   */\n      dup3\n        /* \"#utility.yul\":20972:20986   */\n      add\n        /* \"#utility.yul\":20965:21023   */\n      mstore\n        /* \"#utility.yul\":21057:21063   */\n      0x6f6e496400000000000000000000000000000000000000000000000000000000\n        /* \"#utility.yul\":21052:21054   */\n      0x20\n        /* \"#utility.yul\":21044:21050   */\n      dup3\n        /* \"#utility.yul\":21040:21055   */\n      add\n        /* \"#utility.yul\":21033:21064   */\n      mstore\n        /* \"#utility.yul\":20848:21071   */\n      pop\n      jump\t// out\n        /* \"#utility.yul\":21077:21443   */\n    tag_376:\n        /* \"#utility.yul\":21219:21222   */\n      0x00\n        /* \"#utility.yul\":21240:21307   */\n      tag_587\n        /* \"#utility.yul\":21304:21306   */\n      0x24\n        /* \"#utility.yul\":21299:21302   */\n      dup4\n        /* \"#utility.yul\":21240:21307   */\n      tag_352\n      jump\t// in\n    tag_587:\n        /* \"#utility.yul\":21233:21307   */\n      swap2\n      pop\n        /* \"#utility.yul\":21316:21409   */\n      tag_588\n        /* \"#utility.yul\":21405:21408   */\n      dup3\n        /* \"#utility.yul\":21316:21409   */\n      tag_375\n      jump\t// in\n    tag_588:\n        /* \"#utility.yul\":21434:21436   */\n      0x40\n        /* \"#utility.yul\":21429:21432   */\n      dup3\n        /* \"#utility.yul\":21425:21437   */\n      add\n        /* \"#utility.yul\":21418:21437   */\n      swap1\n      pop\n        /* \"#utility.yul\":21077:21443   */\n      swap2\n      swap1\n      pop\n      jump\t// out\n        /* \"#utility.yul\":21449:21868   */\n    tag_233:\n        /* \"#utility.yul\":21615:21619   */\n      0x00\n        /* \"#utility.yul\":21653:21655   */\n      0x20\n        /* \"#utility.yul\":21642:21651   */\n      dup3\n        /* \"#utility.yul\":21638:21656   */\n      add\n        /* \"#utility.yul\":21630:21656   */\n      swap1\n      pop\n        /* \"#utility.yul\":21702:21711   */\n      dup2\n        /* \"#utility.yul\":21696:21700   */\n      dup2\n        /* \"#utility.yul\":21692:21712   */\n      sub\n        /* \"#utility.yul\":21688:21689   */\n      0x00\n        /* \"#utility.yul\":21677:21686   */\n      dup4\n        /* \"#utility.yul\":21673:21690   */\n      add\n        /* \"#utility.yul\":21666:21713   */\n      mstore\n        /* \"#utility.yul\":21730:21861   */\n      tag_590\n        /* \"#utility.yul\":21856:21860   */\n      dup2\n        /* \"#utility.yul\":21730:21861   */\n      tag_376\n      jump\t// in\n    tag_590:\n        /* \"#utility.yul\":21722:21861   */\n      swap1\n      pop\n        /* \"#utility.yul\":21449:21868   */\n      swap2\n      swap1\n      pop\n      jump\t// out\n        /* \"#utility.yul\":21874:22042   */\n    tag_377:\n        /* \"#utility.yul\":22014:22034   */\n      0x416c726561647920726567697374657265640000000000000000000000000000\n        /* \"#utility.yul\":22010:22011   */\n      0x00\n        /* \"#utility.yul\":22002:22008   */\n      dup3\n        /* \"#utility.yul\":21998:22012   */\n      add\n        /* \"#utility.yul\":21991:22035   */\n      mstore\n        /* \"#utility.yul\":21874:22042   */\n      pop\n      jump\t// out\n        /* \"#utility.yul\":22048:22414   */\n    tag_378:\n        /* \"#utility.yul\":22190:22193   */\n      0x00\n        /* \"#utility.yul\":22211:22278   */\n      tag_593\n        /* \"#utility.yul\":22275:22277   */\n      0x12\n        /* \"#utility.yul\":22270:22273   */\n      dup4\n        /* \"#utility.yul\":22211:22278   */\n      tag_352\n      jump\t// in\n    tag_593:\n        /* \"#utility.yul\":22204:22278   */\n      swap2\n      pop\n        /* \"#utility.yul\":22287:22380   */\n      tag_594\n        /* \"#utility.yul\":22376:22379   */\n      dup3\n        /* \"#utility.yul\":22287:22380   */\n      tag_377\n      jump\t// in\n    tag_594:\n        /* \"#utility.yul\":22405:22407   */\n      0x20\n        /* \"#utility.yul\":22400:22403   */\n      dup3\n        /* \"#utility.yul\":22396:22408   */\n      add\n        /* \"#utility.yul\":22389:22408   */\n      swap1\n      pop\n        /* \"#utility.yul\":22048:22414   */\n      swap2\n      swap1\n      pop\n      jump\t// out\n        /* \"#utility.yul\":22420:22839   */\n    tag_237:\n        /* \"#utility.yul\":22586:22590   */\n      0x00\n        /* \"#utility.yul\":22624:22626   */\n      0x20\n        /* \"#utility.yul\":22613:22622   */\n      dup3\n        /* \"#utility.yul\":22609:22627   */\n      add\n        /* \"#utility.yul\":22601:22627   */\n      swap1\n      pop\n        /* \"#utility.yul\":22673:22682   */\n      dup2\n        /* \"#utility.yul\":22667:22671   */\n      dup2\n        /* \"#utility.yul\":22663:22683   */\n      sub\n        /* \"#utility.yul\":22659:22660   */\n      0x00\n        /* \"#utility.yul\":22648:22657   */\n      dup4\n        /* \"#utility.yul\":22644:22661   */\n      add\n        /* \"#utility.yul\":22637:22684   */\n      mstore\n        /* \"#utility.yul\":22701:22832   */\n      tag_596\n        /* \"#utility.yul\":22827:22831   */\n      dup2\n        /* \"#utility.yul\":22701:22832   */\n      tag_378\n      jump\t// in\n    tag_596:\n        /* \"#utility.yul\":22693:22832   */\n      swap1\n      pop\n        /* \"#utility.yul\":22420:22839   */\n      swap2\n      swap1\n      pop\n      jump\t// out\n        /* \"#utility.yul\":22845:23016   */\n    tag_379:\n        /* \"#utility.yul\":22985:23008   */\n      0x43616e6e6f7420726566657220796f757273656c660000000000000000000000\n        /* \"#utility.yul\":22981:22982   */\n      0x00\n        /* \"#utility.yul\":22973:22979   */\n      dup3\n        /* \"#utility.yul\":22969:22983   */\n      add\n        /* \"#utility.yul\":22962:23009   */\n      mstore\n        /* \"#utility.yul\":22845:23016   */\n      pop\n      jump\t// out\n        /* \"#utility.yul\":23022:23388   */\n    tag_380:\n        /* \"#utility.yul\":23164:23167   */\n      0x00\n        /* \"#utility.yul\":23185:23252   */\n      tag_599\n        /* \"#utility.yul\":23249:23251   */\n      0x15\n        /* \"#utility.yul\":23244:23247   */\n      dup4\n        /* \"#utility.yul\":23185:23252   */\n      tag_352\n      jump\t// in\n    tag_599:\n        /* \"#utility.yul\":23178:23252   */\n      swap2\n      pop\n        /* \"#utility.yul\":23261:23354   */\n      tag_600\n        /* \"#utility.yul\":23350:23353   */\n      dup3\n        /* \"#utility.yul\":23261:23354   */\n      tag_379\n      jump\t// in\n    tag_600:\n        /* \"#utility.yul\":23379:23381   */\n      0x20\n        /* \"#utility.yul\":23374:23377   */\n      dup3\n        /* \"#utility.yul\":23370:23382   */\n      add\n        /* \"#utility.yul\":23363:23382   */\n      swap1\n      pop\n        /* \"#utility.yul\":23022:23388   */\n      swap2\n      swap1\n      pop\n      jump\t// out\n        /* \"#utility.yul\":23394:23813   */\n    tag_240:\n        /* \"#utility.yul\":23560:23564   */\n      0x00\n        /* \"#utility.yul\":23598:23600   */\n      0x20\n        /* \"#utility.yul\":23587:23596   */\n      dup3\n        /* \"#utility.yul\":23583:23601   */\n      add\n        /* \"#utility.yul\":23575:23601   */\n      swap1\n      pop\n        /* \"#utility.yul\":23647:23656   */\n      dup2\n        /* \"#utility.yul\":23641:23645   */\n      dup2\n        /* \"#utility.yul\":23637:23657   */\n      sub\n        /* \"#utility.yul\":23633:23634   */\n      0x00\n        /* \"#utility.yul\":23622:23631   */\n      dup4\n        /* \"#utility.yul\":23618:23635   */\n      add\n        /* \"#utility.yul\":23611:23658   */\n      mstore\n        /* \"#utility.yul\":23675:23806   */\n      tag_602\n        /* \"#utility.yul\":23801:23805   */\n      dup2\n        /* \"#utility.yul\":23675:23806   */\n      tag_380\n      jump\t// in\n    tag_602:\n        /* \"#utility.yul\":23667:23806   */\n      swap1\n      pop\n        /* \"#utility.yul\":23394:23813   */\n      swap2\n      swap1\n      pop\n      jump\t// out\n        /* \"#utility.yul\":23819:23992   */\n    tag_381:\n        /* \"#utility.yul\":23959:23984   */\n      0x5265666572726572206e6f742072656769737465726564000000000000000000\n        /* \"#utility.yul\":23955:23956   */\n      0x00\n        /* \"#utility.yul\":23947:23953   */\n      dup3\n        /* \"#utility.yul\":23943:23957   */\n      add\n        /* \"#utility.yul\":23936:23985   */\n      mstore\n        /* \"#utility.yul\":23819:23992   */\n      pop\n      jump\t// out\n        /* \"#utility.yul\":23998:24364   */\n    tag_382:\n        /* \"#utility.yul\":24140:24143   */\n      0x00\n        /* \"#utility.yul\":24161:24228   */\n      tag_605\n        /* \"#utility.yul\":24225:24227   */\n      0x17\n        /* \"#utility.yul\":24220:24223   */\n      dup4\n        /* \"#utility.yul\":24161:24228   */\n      tag_352\n      jump\t// in\n    tag_605:\n        /* \"#utility.yul\":24154:24228   */\n      swap2\n      pop\n        /* \"#utility.yul\":24237:24330   */\n      tag_606\n        /* \"#utility.yul\":24326:24329   */\n      dup3\n        /* \"#utility.yul\":24237:24330   */\n      tag_381\n      jump\t// in\n    tag_606:\n        /* \"#utility.yul\":24355:24357   */\n      0x20\n        /* \"#utility.yul\":24350:24353   */\n      dup3\n        /* \"#utility.yul\":24346:24358   */\n      add\n        /* \"#utility.yul\":24339:24358   */\n      swap1\n      pop\n        /* \"#utility.yul\":23998:24364   */\n      swap2\n      swap1\n      pop\n      jump\t// out\n        /* \"#utility.yul\":24370:24789   */\n    tag_243:\n        /* \"#utility.yul\":24536:24540   */\n      0x00\n        /* \"#utility.yul\":24574:24576   */\n      0x20\n        /* \"#utility.yul\":24563:24572   */\n      dup3\n        /* \"#utility.yul\":24559:24577   */\n      add\n        /* \"#utility.yul\":24551:24577   */\n      swap1\n      pop\n        /* \"#utility.yul\":24623:24632   */\n      dup2\n        /* \"#utility.yul\":24617:24621   */\n      dup2\n        /* \"#utility.yul\":24613:24633   */\n      sub\n        /* \"#utility.yul\":24609:24610   */\n      0x00\n        /* \"#utility.yul\":24598:24607   */\n      dup4\n        /* \"#utility.yul\":24594:24611   */\n      add\n        /* \"#utility.yul\":24587:24634   */\n      mstore\n        /* \"#utility.yul\":24651:24782   */\n      tag_608\n        /* \"#utility.yul\":24777:24781   */\n      dup2\n        /* \"#utility.yul\":24651:24782   */\n      tag_382\n      jump\t// in\n    tag_608:\n        /* \"#utility.yul\":24643:24782   */\n      swap1\n      pop\n        /* \"#utility.yul\":24370:24789   */\n      swap2\n      swap1\n      pop\n      jump\t// out\n        /* \"#utility.yul\":24795:24974   */\n    tag_383:\n        /* \"#utility.yul\":24935:24966   */\n      0x416d6f756e74206d7573742062652067726561746572207468616e2030000000\n        /* \"#utility.yul\":24931:24932   */\n      0x00\n        /* \"#utility.yul\":24923:24929   */\n      dup3\n        /* \"#utility.yul\":24919:24933   */\n      add\n        /* \"#utility.yul\":24912:24967   */\n      mstore\n        /* \"#utility.yul\":24795:24974   */\n      pop\n      jump\t// out\n        /* \"#utility.yul\":24980:25346   */\n    tag_384:\n        /* \"#utility.yul\":25122:25125   */\n      0x00\n        /* \"#utility.yul\":25143:25210   */\n      tag_611\n        /* \"#utility.yul\":25207:25209   */\n      0x1d\n        /* \"#utility.yul\":25202:25205   */\n      dup4\n        /* \"#utility.yul\":25143:25210   */\n      tag_352\n      jump\t// in\n    tag_611:\n        /* \"#utility.yul\":25136:25210   */\n      swap2\n      pop\n        /* \"#utility.yul\":25219:25312   */\n      tag_612\n        /* \"#utility.yul\":25308:25311   */\n      dup3\n        /* \"#utility.yul\":25219:25312   */\n      tag_383\n      jump\t// in\n    tag_612:\n        /* \"#utility.yul\":25337:25339   */\n      0x20\n        /* \"#utility.yul\":25332:25335   */\n      dup3\n        /* \"#utility.yul\":25328:25340   */\n      add\n        /* \"#utility.yul\":25321:25340   */\n      swap1\n      pop\n        /* \"#utility.yul\":24980:25346   */\n      swap2\n      swap1\n      pop\n      jump\t// out\n        /* \"#utility.yul\":25352:25771   */\n    tag_274:\n        /* \"#utility.yul\":25518:25522   */\n      0x00\n        /* \"#utility.yul\":25556:25558   */\n      0x20\n        /* \"#utility.yul\":25545:25554   */\n      dup3\n        /* \"#utility.yul\":25541:25559   */\n      add\n        /* \"#utility.yul\":25533:25559   */\n      swap1\n      pop\n        /* \"#utility.yul\":25605:25614   */\n      dup2\n        /* \"#utility.yul\":25599:25603   */\n      dup2\n        /* \"#utility.yul\":25595:25615   */\n      sub\n        /* \"#utility.yul\":25591:25592   */\n      0x00\n        /* \"#utility.yul\":25580:25589   */\n      dup4\n        /* \"#utility.yul\":25576:25593   */\n      add\n        /* \"#utility.yul\":25569:25616   */\n      mstore\n        /* \"#utility.yul\":25633:25764   */\n      tag_614\n        /* \"#utility.yul\":25759:25763   */\n      dup2\n        /* \"#utility.yul\":25633:25764   */\n      tag_384\n      jump\t// in\n    tag_614:\n        /* \"#utility.yul\":25625:25764   */\n      swap1\n      pop\n        /* \"#utility.yul\":25352:25771   */\n      swap2\n      swap1\n      pop\n      jump\t// out\n        /* \"#utility.yul\":25777:25951   */\n    tag_385:\n        /* \"#utility.yul\":25917:25943   */\n      0x496e76616c6964207374616b696e67206475726174696f6e0000000000000000\n        /* \"#utility.yul\":25913:25914   */\n      0x00\n        /* \"#utility.yul\":25905:25911   */\n      dup3\n        /* \"#utility.yul\":25901:25915   */\n      add\n        /* \"#utility.yul\":25894:25944   */\n      mstore\n        /* \"#utility.yul\":25777:25951   */\n      pop\n      jump\t// out\n        /* \"#utility.yul\":25957:26323   */\n    tag_386:\n        /* \"#utility.yul\":26099:26102   */\n      0x00\n        /* \"#utility.yul\":26120:26187   */\n      tag_617\n        /* \"#utility.yul\":26184:26186   */\n      0x18\n        /* \"#utility.yul\":26179:26182   */\n      dup4\n        /* \"#utility.yul\":26120:26187   */\n      tag_352\n      jump\t// in\n    tag_617:\n        /* \"#utility.yul\":26113:26187   */\n      swap2\n      pop\n        /* \"#utility.yul\":26196:26289   */\n      tag_618\n        /* \"#utility.yul\":26285:26288   */\n      dup3\n        /* \"#utility.yul\":26196:26289   */\n      tag_385\n      jump\t// in\n    tag_618:\n        /* \"#utility.yul\":26314:26316   */\n      0x20\n        /* \"#utility.yul\":26309:26312   */\n      dup3\n        /* \"#utility.yul\":26305:26317   */\n      add\n        /* \"#utility.yul\":26298:26317   */\n      swap1\n      pop\n        /* \"#utility.yul\":25957:26323   */\n      swap2\n      swap1\n      pop\n      jump\t// out\n        /* \"#utility.yul\":26329:26748   */\n    tag_277:\n        /* \"#utility.yul\":26495:26499   */\n      0x00\n        /* \"#utility.yul\":26533:26535   */\n      0x20\n        /* \"#utility.yul\":26522:26531   */\n      dup3\n        /* \"#utility.yul\":26518:26536   */\n      add\n        /* \"#utility.yul\":26510:26536   */\n      swap1\n      pop\n        /* \"#utility.yul\":26582:26591   */\n      dup2\n        /* \"#utility.yul\":26576:26580   */\n      dup2\n        /* \"#utility.yul\":26572:26592   */\n      sub\n        /* \"#utility.yul\":26568:26569   */\n      0x00\n        /* \"#utility.yul\":26557:26566   */\n      dup4\n        /* \"#utility.yul\":26553:26570   */\n      add\n        /* \"#utility.yul\":26546:26593   */\n      mstore\n        /* \"#utility.yul\":26610:26741   */\n      tag_620\n        /* \"#utility.yul\":26736:26740   */\n      dup2\n        /* \"#utility.yul\":26610:26741   */\n      tag_386\n      jump\t// in\n    tag_620:\n        /* \"#utility.yul\":26602:26741   */\n      swap1\n      pop\n        /* \"#utility.yul\":26329:26748   */\n      swap2\n      swap1\n      pop\n      jump\t// out\n        /* \"#utility.yul\":26754:27196   */\n    tag_279:\n        /* \"#utility.yul\":26903:26907   */\n      0x00\n        /* \"#utility.yul\":26941:26943   */\n      0x60\n        /* \"#utility.yul\":26930:26939   */\n      dup3\n        /* \"#utility.yul\":26926:26944   */\n      add\n        /* \"#utility.yul\":26918:26944   */\n      swap1\n      pop\n        /* \"#utility.yul\":26954:27025   */\n      tag_622\n        /* \"#utility.yul\":27022:27023   */\n      0x00\n        /* \"#utility.yul\":27011:27020   */\n      dup4\n        /* \"#utility.yul\":27007:27024   */\n      add\n        /* \"#utility.yul\":26998:27004   */\n      dup7\n        /* \"#utility.yul\":26954:27025   */\n      tag_332\n      jump\t// in\n    tag_622:\n        /* \"#utility.yul\":27035:27107   */\n      tag_623\n        /* \"#utility.yul\":27103:27105   */\n      0x20\n        /* \"#utility.yul\":27092:27101   */\n      dup4\n        /* \"#utility.yul\":27088:27106   */\n      add\n        /* \"#utility.yul\":27079:27085   */\n      dup6\n        /* \"#utility.yul\":27035:27107   */\n      tag_332\n      jump\t// in\n    tag_623:\n        /* \"#utility.yul\":27117:27189   */\n      tag_624\n        /* \"#utility.yul\":27185:27187   */\n      0x40\n        /* \"#utility.yul\":27174:27183   */\n      dup4\n        /* \"#utility.yul\":27170:27188   */\n      add\n        /* \"#utility.yul\":27161:27167   */\n      dup5\n        /* \"#utility.yul\":27117:27189   */\n      tag_335\n      jump\t// in\n    tag_624:\n        /* \"#utility.yul\":26754:27196   */\n      swap5\n      swap4\n      pop\n      pop\n      pop\n      pop\n      jump\t// out\n        /* \"#utility.yul\":27202:27376   */\n    tag_387:\n        /* \"#utility.yul\":27342:27368   */\n      0x526566657272616c207472616e73666572206661696c65640000000000000000\n        /* \"#utility.yul\":27338:27339   */\n      0x00\n        /* \"#utility.yul\":27330:27336   */\n      dup3\n        /* \"#utility.yul\":27326:27340   */\n      add\n        /* \"#utility.yul\":27319:27369   */\n      mstore\n        /* \"#utility.yul\":27202:27376   */\n      pop\n      jump\t// out\n        /* \"#utility.yul\":27382:27748   */\n    tag_388:\n        /* \"#utility.yul\":27524:27527   */\n      0x00\n        /* \"#utility.yul\":27545:27612   */\n      tag_627\n        /* \"#utility.yul\":27609:27611   */\n      0x18\n        /* \"#utility.yul\":27604:27607   */\n      dup4\n        /* \"#utility.yul\":27545:27612   */\n      tag_352\n      jump\t// in\n    tag_627:\n        /* \"#utility.yul\":27538:27612   */\n      swap2\n      pop\n        /* \"#utility.yul\":27621:27714   */\n      tag_628\n        /* \"#utility.yul\":27710:27713   */\n      dup3\n        /* \"#utility.yul\":27621:27714   */\n      tag_387\n      jump\t// in\n    tag_628:\n        /* \"#utility.yul\":27739:27741   */\n      0x20\n        /* \"#utility.yul\":27734:27737   */\n      dup3\n        /* \"#utility.yul\":27730:27742   */\n      add\n        /* \"#utility.yul\":27723:27742   */\n      swap1\n      pop\n        /* \"#utility.yul\":27382:27748   */\n      swap2\n      swap1\n      pop\n      jump\t// out\n        /* \"#utility.yul\":27754:28173   */\n    tag_303:\n        /* \"#utility.yul\":27920:27924   */\n      0x00\n        /* \"#utility.yul\":27958:27960   */\n      0x20\n        /* \"#utility.yul\":27947:27956   */\n      dup3\n        /* \"#utility.yul\":27943:27961   */\n      add\n        /* \"#utility.yul\":27935:27961   */\n      swap1\n      pop\n        /* \"#utility.yul\":28007:28016   */\n      dup2\n        /* \"#utility.yul\":28001:28005   */\n      dup2\n        /* \"#utility.yul\":27997:28017   */\n      sub\n        /* \"#utility.yul\":27993:27994   */\n      0x00\n        /* \"#utility.yul\":27982:27991   */\n      dup4\n        /* \"#utility.yul\":27978:27995   */\n      add\n        /* \"#utility.yul\":27971:28018   */\n      mstore\n        /* \"#utility.yul\":28035:28166   */\n      tag_630\n        /* \"#utility.yul\":28161:28165   */\n      dup2\n        /* \"#utility.yul\":28035:28166   */\n      tag_388\n      jump\t// in\n    tag_630:\n        /* \"#utility.yul\":28027:28166   */\n      swap1\n      pop\n        /* \"#utility.yul\":27754:28173   */\n      swap2\n      swap1\n      pop\n      jump\t// out\n        /* \"#utility.yul\":28179:28346   */\n    tag_308:\n        /* \"#utility.yul\":28216:28219   */\n      0x00\n        /* \"#utility.yul\":28239:28261   */\n      tag_632\n        /* \"#utility.yul\":28255:28260   */\n      dup3\n        /* \"#utility.yul\":28239:28261   */\n      tag_345\n      jump\t// in\n    tag_632:\n        /* \"#utility.yul\":28230:28261   */\n      swap2\n      pop\n        /* \"#utility.yul\":28283:28287   */\n      0xff\n        /* \"#utility.yul\":28276:28281   */\n      dup3\n        /* \"#utility.yul\":28273:28288   */\n      sub\n        /* \"#utility.yul\":28270:28311   */\n      tag_633\n      jumpi\n        /* \"#utility.yul\":28291:28309   */\n      tag_634\n      tag_355\n      jump\t// in\n    tag_634:\n        /* \"#utility.yul\":28270:28311   */\n    tag_633:\n        /* \"#utility.yul\":28338:28339   */\n      0x01\n        /* \"#utility.yul\":28331:28336   */\n      dup3\n        /* \"#utility.yul\":28327:28340   */\n      add\n        /* \"#utility.yul\":28320:28340   */\n      swap1\n      pop\n        /* \"#utility.yul\":28179:28346   */\n      swap2\n      swap1\n      pop\n      jump\t// out\n\n    auxdata: 0xa26469706673582212202fd2ca7d743111c2d3f8097efec3f040ed278a48ccd09d77a237b27b63e2bce464736f6c63430008190033\n}\n",
				"bytecode": {
					"linkReferences": {},
					"object": "60806040526040518060a00160405280600560ff168152602001600360ff168152602001600260ff168152602001600160ff168152602001600160ff16815250600490600561004f9291906102b8565b5034801561005b575f80fd5b506040516134d93803806134d9833981810160405281019061007d91906103c8565b5f73ffffffffffffffffffffffffffffffffffffffff168273ffffffffffffffffffffffffffffffffffffffff16036100eb576040517f08c379a00000000000000000000000000000000000000000000000000000000081526004016100e290610460565b60405180910390fd5b5f73ffffffffffffffffffffffffffffffffffffffff168173ffffffffffffffffffffffffffffffffffffffff1603610159576040517f08c379a0000000000000000000000000000000000000000000000000000000008152600401610150906104c8565b60405180910390fd5b815f806101000a81548173ffffffffffffffffffffffffffffffffffffffff021916908373ffffffffffffffffffffffffffffffffffffffff1602179055508060015f6101000a81548173ffffffffffffffffffffffffffffffffffffffff021916908373ffffffffffffffffffffffffffffffffffffffff160217905550600160025f805f9054906101000a900473ffffffffffffffffffffffffffffffffffffffff1673ffffffffffffffffffffffffffffffffffffffff1673ffffffffffffffffffffffffffffffffffffffff1681526020019081526020015f205f0160146101000a81548160ff0219169083151502179055506001600a5f601e81526020019081526020015f20819055506003600a5f605a81526020019081526020015f20819055506006600a5f60b481526020019081526020015f2081905550600c600a5f61016d81526020019081526020015f208190555050506104e6565b826005601f0160209004810192821561033e579160200282015f5b8382111561031057835183826101000a81548160ff021916908360ff16021790555092602001926001016020815f010492830192600103026102d3565b801561033c5782816101000a81549060ff02191690556001016020815f01049283019260010302610310565b505b50905061034b919061034f565b5090565b5b80821115610366575f815f905550600101610350565b5090565b5f80fd5b5f73ffffffffffffffffffffffffffffffffffffffff82169050919050565b5f6103978261036e565b9050919050565b6103a78161038d565b81146103b1575f80fd5b50565b5f815190506103c28161039e565b92915050565b5f80604083850312156103de576103dd61036a565b5b5f6103eb858286016103b4565b92505060206103fc858286016103b4565b9150509250929050565b5f82825260208201905092915050565b7f4f776e657220616464726573732063616e6e6f74206265207a65726f000000005f82015250565b5f61044a601c83610406565b915061045582610416565b602082019050919050565b5f6020820190508181035f8301526104778161043e565b9050919050565b7f546f6b656e20616464726573732063616e6e6f74206265207a65726f000000005f82015250565b5f6104b2601c83610406565b91506104bd8261047e565b602082019050919050565b5f6020820190508181035f8301526104df816104a6565b9050919050565b612fe6806104f35f395ff3fe608060405234801561000f575f80fd5b5060043610610156575f3560e01c8063899346c7116100c1578063bd2971781161007a578063bd2971781461043e578063c2d3c6771461046e578063c3c5a5471461049e578063e45a57d0146104ce578063f6e88873146104fe578063fc0c546a1461052e57610156565b8063899346c7146103415780638da5cb5b1461035f57806398278efb1461037d578063a87430ba146103ad578063aa7ed462146103de578063b77b7dc91461040e57610156565b80634420e486116101135780634420e4861461025657806375506c9614610272578063797c7f5f146102905780637b0472f0146102c5578063862ba05f146102e1578063875bb4e21461031157610156565b80631e43eb271461015a57806321923bde1461018a57806328b496e5146101ba57806328fe7031146101ee5780632e1a7d4d1461021e578063379607f51461023a575b5f80fd5b610174600480360381019061016f919061223b565b61054c565b60405161018191906122a5565b60405180910390f35b6101a4600480360381019061019f91906122e8565b61057c565b6040516101b19190612322565b60405180910390f35b6101d460048036038101906101cf919061223b565b610894565b6040516101e595949392919061233b565b60405180910390f35b610208600480360381019061020391906122e8565b610b49565b6040516102159190612443565b60405180910390f35b6102386004803603810190610233919061223b565b610c81565b005b610254600480360381019061024f919061223b565b610e0b565b005b610270600480360381019061026b91906122e8565b611271565b005b61027a61157c565b6040516102879190612322565b60405180910390f35b6102aa60048036038101906102a5919061223b565b611582565b6040516102bc9695949392919061247d565b60405180910390f35b6102df60048036038101906102da91906124dc565b61183c565b005b6102fb60048036038101906102f691906122e8565b611eef565b6040516103089190612322565b60405180910390f35b61032b6004803603810190610326919061223b565b611f04565b6040516103389190612322565b60405180910390f35b610349611f19565b6040516103569190612322565b60405180910390f35b610367611f1f565b60405161037491906122a5565b60405180910390f35b610397600480360381019061039291906122e8565b611f42565b6040516103a49190612322565b60405180910390f35b6103c760048036038101906103c291906122e8565b611f88565b6040516103d592919061251a565b60405180910390f35b6103f860048036038101906103f391906122e8565b611fd3565b6040516104059190612322565b60405180910390f35b610428600480360381019061042391906122e8565b612019565b6040516104359190612322565b60405180910390f35b610458600480360381019061045391906124dc565b61202e565b6040516104659190612322565b60405180910390f35b610488600480360381019061048391906122e8565b612106565b6040516104959190612322565b60405180910390f35b6104b860048036038101906104b391906122e8565b61214c565b6040516104c59190612541565b60405180910390f35b6104e860048036038101906104e3919061223b565b6121a1565b6040516104f59190612575565b60405180910390f35b610518600480360381019061051391906122e8565b6121ca565b6040516105259190612322565b60405180910390f35b6105366121df565b60405161054391906125e9565b60405180910390f35b6003602052805f5260405f205f915054906101000a900473ffffffffffffffffffffffffffffffffffffffff1681565b5f60025f8373ffffffffffffffffffffffffffffffffffffffff1673ffffffffffffffffffffffffffffffffffffffff1681526020019081526020015f205f0160149054906101000a900460ff16610609576040517f08c379a00000000000000000000000000000000000000000000000000000000081526004016106009061265c565b60405180910390fd5b5f808390505b5f73ffffffffffffffffffffffffffffffffffffffff1660025f8373ffffffffffffffffffffffffffffffffffffffff1673ffffffffffffffffffffffffffffffffffffffff1681526020019081526020015f205f015f9054906101000a900473ffffffffffffffffffffffffffffffffffffffff1673ffffffffffffffffffffffffffffffffffffffff161415801561075257505f8054906101000a900473ffffffffffffffffffffffffffffffffffffffff1673ffffffffffffffffffffffffffffffffffffffff1660025f8373ffffffffffffffffffffffffffffffffffffffff1673ffffffffffffffffffffffffffffffffffffffff1681526020019081526020015f205f015f9054906101000a900473ffffffffffffffffffffffffffffffffffffffff1673ffffffffffffffffffffffffffffffffffffffff1614155b156107cb578180610762906126a7565b92505060025f8273ffffffffffffffffffffffffffffffffffffffff1673ffffffffffffffffffffffffffffffffffffffff1681526020019081526020015f205f015f9054906101000a900473ffffffffffffffffffffffffffffffffffffffff16905061060f565b5f8054906101000a900473ffffffffffffffffffffffffffffffffffffffff1673ffffffffffffffffffffffffffffffffffffffff1660025f8373ffffffffffffffffffffffffffffffffffffffff1673ffffffffffffffffffffffffffffffffffffffff1681526020019081526020015f205f015f9054906101000a900473ffffffffffffffffffffffffffffffffffffffff1673ffffffffffffffffffffffffffffffffffffffff160361088a578180610886906126a7565b9250505b8192505050919050565b5f805f805f8060035f8881526020019081526020015f205f9054906101000a900473ffffffffffffffffffffffffffffffffffffffff1690505f73ffffffffffffffffffffffffffffffffffffffff168173ffffffffffffffffffffffffffffffffffffffff160361093b576040517f08c379a000000000000000000000000000000000000000000000000000000000815260040161093290612738565b60405180910390fd5b5f60025f8373ffffffffffffffffffffffffffffffffffffffff1673ffffffffffffffffffffffffffffffffffffffff1681526020019081526020015f20600101805480602002602001604051908101604052809291908181526020015f905b82821015610a16578382905f5260205f2090600602016040518060c00160405290815f820154815260200160018201548152602001600282015481526020016003820154815260200160048201548152602001600582015f9054906101000a900460ff1615151515815250508152602001906001019061099b565b5050505090505f5b8151811015610b045788828281518110610a3b57610a3a612756565b5b60200260200101516040015103610af7575f828281518110610a6057610a5f612756565b5b60200260200101516020015190505f838381518110610a8257610a81612756565b5b60200260200101516080015190505f600a5f8381526020019081526020015f205490505f618e94838386610ab69190612783565b610ac09190612783565b610aca91906127f1565b90505f8382610ad991906127f1565b905084838284879c509c509c509c509c505050505050505050610b40565b8080600101915050610a1e565b506040517f08c379a0000000000000000000000000000000000000000000000000000000008152600401610b379061286b565b60405180910390fd5b91939590929450565b60605f60025f8473ffffffffffffffffffffffffffffffffffffffff1673ffffffffffffffffffffffffffffffffffffffff1681526020019081526020015f206001018054905090505f8167ffffffffffffffff811115610bad57610bac612889565b5b604051908082528060200260200182016040528015610bdb5781602001602082028036833780820191505090505b5090505f5b82811015610c765760025f8673ffffffffffffffffffffffffffffffffffffffff1673ffffffffffffffffffffffffffffffffffffffff1681526020019081526020015f206001018181548110610c3a57610c39612756565b5b905f5260205f20906006020160020154828281518110610c5d57610c5c612756565b5b6020026020010181815250508080600101915050610be0565b508092505050919050565b5f8054906101000a900473ffffffffffffffffffffffffffffffffffffffff1673ffffffffffffffffffffffffffffffffffffffff163373ffffffffffffffffffffffffffffffffffffffff1614610d0e576040517f08c379a0000000000000000000000000000000000000000000000000000000008152600401610d0590612900565b60405180910390fd5b60015f9054906101000a900473ffffffffffffffffffffffffffffffffffffffff1673ffffffffffffffffffffffffffffffffffffffff1663a9059cbb5f8054906101000a900473ffffffffffffffffffffffffffffffffffffffff16836040518363ffffffff1660e01b8152600401610d8992919061291e565b6020604051808303815f875af1158015610da5573d5f803e3d5ffd5b505050506040513d601f19601f82011682018060405250810190610dc9919061296f565b610e08576040517f08c379a0000000000000000000000000000000000000000000000000000000008152600401610dff906129e4565b60405180910390fd5b50565b60025f3373ffffffffffffffffffffffffffffffffffffffff1673ffffffffffffffffffffffffffffffffffffffff1681526020019081526020015f205f0160149054906101000a900460ff16610e97576040517f08c379a0000000000000000000000000000000000000000000000000000000008152600401610e8e9061265c565b60405180910390fd5b5f60035f8381526020019081526020015f205f9054906101000a900473ffffffffffffffffffffffffffffffffffffffff1690503373ffffffffffffffffffffffffffffffffffffffff168173ffffffffffffffffffffffffffffffffffffffff1614610f39576040517f08c379a0000000000000000000000000000000000000000000000000000000008152600401610f3090612a4c565b60405180910390fd5b5f60025f3373ffffffffffffffffffffffffffffffffffffffff1673ffffffffffffffffffffffffffffffffffffffff1681526020019081526020015f2060010190505f5b8180549050811015611232575f828281548110610f9e57610f9d612756565b5b905f5260205f20906006020190508481600201540361122457806005015f9054906101000a900460ff1615611008576040517f08c379a0000000000000000000000000000000000000000000000000000000008152600401610fff90612ab4565b60405180910390fd5b5f6201518082600301544261101d9190612ad2565b61102791906127f1565b90505f8260040154821061106d576064600a5f856004015481526020019081526020015f2054846001015461105c9190612783565b61106691906127f1565b90506110ba565b601482101561107e575f90506110b9565b6040517f08c379a00000000000000000000000000000000000000000000000000000000081526004016110b090612b75565b60405180910390fd5b5b6001836005015f6101000a81548160ff02191690831515021790555060015f9054906101000a900473ffffffffffffffffffffffffffffffffffffffff1673ffffffffffffffffffffffffffffffffffffffff1663a9059cbb338386600101546111249190612b93565b6040518363ffffffff1660e01b815260040161114192919061291e565b6020604051808303815f875af115801561115d573d5f803e3d5ffd5b505050506040513d601f19601f82011682018060405250810190611181919061296f565b6111c0576040517f08c379a00000000000000000000000000000000000000000000000000000000081526004016111b790612c10565b60405180910390fd5b82600201543373ffffffffffffffffffffffffffffffffffffffff167f9cdcf2f7714cca3508c7f0110b04a90a80a3a8dd0e35de99689db74d28c5383e856001015484604051611211929190612c2e565b60405180910390a350505050505061126e565b508080600101915050610f7e565b506040517f08c379a000000000000000000000000000000000000000000000000000000000815260040161126590612cc5565b60405180910390fd5b50565b60025f3373ffffffffffffffffffffffffffffffffffffffff1673ffffffffffffffffffffffffffffffffffffffff1681526020019081526020015f205f0160149054906101000a900460ff16156112fe576040517f08c379a00000000000000000000000000000000000000000000000000000000081526004016112f590612d2d565b60405180910390fd5b3373ffffffffffffffffffffffffffffffffffffffff168173ffffffffffffffffffffffffffffffffffffffff160361136c576040517f08c379a000000000000000000000000000000000000000000000000000000000815260040161136390612d95565b60405180910390fd5b60025f8273ffffffffffffffffffffffffffffffffffffffff1673ffffffffffffffffffffffffffffffffffffffff1681526020019081526020015f205f0160149054906101000a900460ff166113f8576040517f08c379a00000000000000000000000000000000000000000000000000000000081526004016113ef90612dfd565b60405180910390fd5b8060025f3373ffffffffffffffffffffffffffffffffffffffff1673ffffffffffffffffffffffffffffffffffffffff1681526020019081526020015f205f015f6101000a81548173ffffffffffffffffffffffffffffffffffffffff021916908373ffffffffffffffffffffffffffffffffffffffff160217905550600160025f3373ffffffffffffffffffffffffffffffffffffffff1673ffffffffffffffffffffffffffffffffffffffff1681526020019081526020015f205f0160146101000a81548160ff02191690831515021790555060075f8273ffffffffffffffffffffffffffffffffffffffff1673ffffffffffffffffffffffffffffffffffffffff1681526020019081526020015f205f81548092919061151a906126a7565b91905055508073ffffffffffffffffffffffffffffffffffffffff163373ffffffffffffffffffffffffffffffffffffffff167f0a31ee9d46a828884b81003c8498156ea6aa15b9b54bdd0ef0b533d9eba57e5560405160405180910390a350565b60055481565b5f805f805f805f60035f8981526020019081526020015f205f9054906101000a900473ffffffffffffffffffffffffffffffffffffffff1690505f73ffffffffffffffffffffffffffffffffffffffff168173ffffffffffffffffffffffffffffffffffffffff160361162a576040517f08c379a000000000000000000000000000000000000000000000000000000000815260040161162190612738565b60405180910390fd5b5f60025f8373ffffffffffffffffffffffffffffffffffffffff1673ffffffffffffffffffffffffffffffffffffffff1681526020019081526020015f20600101805480602002602001604051908101604052809291908181526020015f905b82821015611705578382905f5260205f2090600602016040518060c00160405290815f820154815260200160018201548152602001600282015481526020016003820154815260200160048201548152602001600582015f9054906101000a900460ff1615151515815250508152602001906001019061168a565b5050505090505f5b81518110156117f7578982828151811061172a57611729612756565b5b602002602001015160400151036117ea578282828151811061174f5761174e612756565b5b60200260200101515f015183838151811061176d5761176c612756565b5b60200260200101516020015184848151811061178c5761178b612756565b5b6020026020010151606001518585815181106117ab576117aa612756565b5b6020026020010151608001518686815181106117ca576117c9612756565b5b602002602001015160a00151985098509850985098509850505050611833565b808060010191505061170d565b506040517f08c379a000000000000000000000000000000000000000000000000000000000815260040161182a9061286b565b60405180910390fd5b91939550919395565b60025f3373ffffffffffffffffffffffffffffffffffffffff1673ffffffffffffffffffffffffffffffffffffffff1681526020019081526020015f205f0160149054906101000a900460ff166118c8576040517f08c379a00000000000000000000000000000000000000000000000000000000081526004016118bf9061265c565b60405180910390fd5b5f811161190a576040517f08c379a000000000000000000000000000000000000000000000000000000000815260040161190190612e65565b60405180910390fd5b5f600a5f8481526020019081526020015f20541161195d576040517f08c379a000000000000000000000000000000000000000000000000000000000815260040161195490612ecd565b60405180910390fd5b60015f9054906101000a900473ffffffffffffffffffffffffffffffffffffffff1673ffffffffffffffffffffffffffffffffffffffff166323b872dd3330846040518463ffffffff1660e01b81526004016119bb93929190612eeb565b6020604051808303815f875af11580156119d7573d5f803e3d5ffd5b505050506040513d601f19601f820116820180604052508101906119fb919061296f565b611a3a576040517f08c379a0000000000000000000000000000000000000000000000000000000008152600401611a3190612c10565b60405180910390fd5b5f60055f815480929190611a4d906126a7565b9190505590505f60065f815480929190611a66906126a7565b9190505590505f42905060025f3373ffffffffffffffffffffffffffffffffffffffff1673ffffffffffffffffffffffffffffffffffffffff1681526020019081526020015f206001016040518060c001604052808581526020018681526020018481526020018381526020018781526020015f1515815250908060018154018082558091505060019003905f5260205f2090600602015f909190919091505f820151815f01556020820151816001015560408201518160020155606082015181600301556080820151816004015560a0820151816005015f6101000a81548160ff02191690831515021790555050503360035f8481526020019081526020015f205f6101000a81548173ffffffffffffffffffffffffffffffffffffffff021916908373ffffffffffffffffffffffffffffffffffffffff1602179055505f60025f3373ffffffffffffffffffffffffffffffffffffffff1673ffffffffffffffffffffffffffffffffffffffff1681526020019081526020015f205f015f9054906101000a900473ffffffffffffffffffffffffffffffffffffffff1690505f5b60058160ff161015611e94575f73ffffffffffffffffffffffffffffffffffffffff168273ffffffffffffffffffffffffffffffffffffffff160315611e94575f606460048360ff1660058110611c6357611c62612756565b5b602091828204019190069054906101000a900460ff1660ff1688611c879190612783565b611c9191906127f1565b905060015f9054906101000a900473ffffffffffffffffffffffffffffffffffffffff1673ffffffffffffffffffffffffffffffffffffffff1663a9059cbb84836040518363ffffffff1660e01b8152600401611cef92919061291e565b6020604051808303815f875af1158015611d0b573d5f803e3d5ffd5b505050506040513d601f19601f82011682018060405250810190611d2f919061296f565b611d6e576040517f08c379a0000000000000000000000000000000000000000000000000000000008152600401611d6590612f6a565b60405180910390fd5b8060095f8573ffffffffffffffffffffffffffffffffffffffff1673ffffffffffffffffffffffffffffffffffffffff1681526020019081526020015f205f828254611dba9190612b93565b925050819055505f8260ff1603611e1f578060085f8573ffffffffffffffffffffffffffffffffffffffff1673ffffffffffffffffffffffffffffffffffffffff1681526020019081526020015f205f828254611e179190612b93565b925050819055505b60025f8473ffffffffffffffffffffffffffffffffffffffff1673ffffffffffffffffffffffffffffffffffffffff1681526020019081526020015f205f015f9054906101000a900473ffffffffffffffffffffffffffffffffffffffff169250508080611e8c90612f88565b915050611c09565b5082843373ffffffffffffffffffffffffffffffffffffffff167f9cfd25589d1eb8ad71e342a86a8524e83522e3936c0803048c08f6d9ad974f408886604051611edf929190612c2e565b60405180910390a4505050505050565b6009602052805f5260405f205f915090505481565b600a602052805f5260405f205f915090505481565b60065481565b5f8054906101000a900473ffffffffffffffffffffffffffffffffffffffff1681565b5f60075f8373ffffffffffffffffffffffffffffffffffffffff1673ffffffffffffffffffffffffffffffffffffffff1681526020019081526020015f20549050919050565b6002602052805f5260405f205f91509050805f015f9054906101000a900473ffffffffffffffffffffffffffffffffffffffff1690805f0160149054906101000a900460ff16905082565b5f60085f8373ffffffffffffffffffffffffffffffffffffffff1673ffffffffffffffffffffffffffffffffffffffff1681526020019081526020015f20549050919050565b6007602052805f5260405f205f915090505481565b5f808311612071576040517f08c379a000000000000000000000000000000000000000000000000000000000815260040161206890612e65565b60405180910390fd5b5f600a5f8481526020019081526020015f2054116120c4576040517f08c379a00000000000000000000000000000000000000000000000000000000081526004016120bb90612ecd565b60405180910390fd5b5f600a5f8481526020019081526020015f20549050618e948382866120e99190612783565b6120f39190612783565b6120fd91906127f1565b91505092915050565b5f60095f8373ffffffffffffffffffffffffffffffffffffffff1673ffffffffffffffffffffffffffffffffffffffff1681526020019081526020015f20549050919050565b5f60025f8373ffffffffffffffffffffffffffffffffffffffff1673ffffffffffffffffffffffffffffffffffffffff1681526020019081526020015f205f0160149054906101000a900460ff169050919050565b600481600581106121b0575f80fd5b60209182820401919006915054906101000a900460ff1681565b6008602052805f5260405f205f915090505481565b60015f9054906101000a900473ffffffffffffffffffffffffffffffffffffffff1681565b5f80fd5b5f819050919050565b61221a81612208565b8114612224575f80fd5b50565b5f8135905061223581612211565b92915050565b5f602082840312156122505761224f612204565b5b5f61225d84828501612227565b91505092915050565b5f73ffffffffffffffffffffffffffffffffffffffff82169050919050565b5f61228f82612266565b9050919050565b61229f81612285565b82525050565b5f6020820190506122b85f830184612296565b92915050565b6122c781612285565b81146122d1575f80fd5b50565b5f813590506122e2816122be565b92915050565b5f602082840312156122fd576122fc612204565b5b5f61230a848285016122d4565b91505092915050565b61231c81612208565b82525050565b5f6020820190506123355f830184612313565b92915050565b5f60a08201905061234e5f830188612313565b61235b6020830187612313565b6123686040830186612313565b6123756060830185612313565b6123826080830184612313565b9695505050505050565b5f81519050919050565b5f82825260208201905092915050565b5f819050602082019050919050565b6123be81612208565b82525050565b5f6123cf83836123b5565b60208301905092915050565b5f602082019050919050565b5f6123f18261238c565b6123fb8185612396565b9350612406836123a6565b805f5b8381101561243657815161241d88826123c4565b9750612428836123db565b925050600181019050612409565b5085935050505092915050565b5f6020820190508181035f83015261245b81846123e7565b905092915050565b5f8115159050919050565b61247781612463565b82525050565b5f60c0820190506124905f830189612296565b61249d6020830188612313565b6124aa6040830187612313565b6124b76060830186612313565b6124c46080830185612313565b6124d160a083018461246e565b979650505050505050565b5f80604083850312156124f2576124f1612204565b5b5f6124ff85828601612227565b925050602061251085828601612227565b9150509250929050565b5f60408201905061252d5f830185612296565b61253a602083018461246e565b9392505050565b5f6020820190506125545f83018461246e565b92915050565b5f60ff82169050919050565b61256f8161255a565b82525050565b5f6020820190506125885f830184612566565b92915050565b5f819050919050565b5f6125b16125ac6125a784612266565b61258e565b612266565b9050919050565b5f6125c282612597565b9050919050565b5f6125d3826125b8565b9050919050565b6125e3816125c9565b82525050565b5f6020820190506125fc5f8301846125da565b92915050565b5f82825260208201905092915050565b7f55736572206e6f742072656769737465726564000000000000000000000000005f82015250565b5f612646601383612602565b915061265182612612565b602082019050919050565b5f6020820190508181035f8301526126738161263a565b9050919050565b7f4e487b71000000000000000000000000000000000000000000000000000000005f52601160045260245ffd5b5f6126b182612208565b91507fffffffffffffffffffffffffffffffffffffffffffffffffffffffffffffffff82036126e3576126e261267a565b5b600182019050919050565b7f496e76616c696420706f736974696f6e496400000000000000000000000000005f82015250565b5f612722601283612602565b915061272d826126ee565b602082019050919050565b5f6020820190508181035f83015261274f81612716565b9050919050565b7f4e487b71000000000000000000000000000000000000000000000000000000005f52603260045260245ffd5b5f61278d82612208565b915061279883612208565b92508282026127a681612208565b915082820484148315176127bd576127bc61267a565b5b5092915050565b7f4e487b71000000000000000000000000000000000000000000000000000000005f52601260045260245ffd5b5f6127fb82612208565b915061280683612208565b925082612816576128156127c4565b5b828204905092915050565b7f5374616b65206e6f7420666f756e6400000000000000000000000000000000005f82015250565b5f612855600f83612602565b915061286082612821565b602082019050919050565b5f6020820190508181035f83015261288281612849565b9050919050565b7f4e487b71000000000000000000000000000000000000000000000000000000005f52604160045260245ffd5b7f4f6e6c79206f776e65722063616e2077697468647261770000000000000000005f82015250565b5f6128ea601783612602565b91506128f5826128b6565b602082019050919050565b5f6020820190508181035f830152612917816128de565b9050919050565b5f6040820190506129315f830185612296565b61293e6020830184612313565b9392505050565b61294e81612463565b8114612958575f80fd5b50565b5f8151905061296981612945565b92915050565b5f6020828403121561298457612983612204565b5b5f6129918482850161295b565b91505092915050565b7f5769746864726177206661696c656400000000000000000000000000000000005f82015250565b5f6129ce600f83612602565b91506129d98261299a565b602082019050919050565b5f6020820190508181035f8301526129fb816129c2565b9050919050565b7f4e6f7420796f7572207374616b650000000000000000000000000000000000005f82015250565b5f612a36600e83612602565b9150612a4182612a02565b602082019050919050565b5f6020820190508181035f830152612a6381612a2a565b9050919050565b7f416c726561647920636c61696d656400000000000000000000000000000000005f82015250565b5f612a9e600f83612602565b9150612aa982612a6a565b602082019050919050565b5f6020820190508181035f830152612acb81612a92565b9050919050565b5f612adc82612208565b9150612ae783612208565b9250828203905081811115612aff57612afe61267a565b5b92915050565b7f43616e6e6f7420636c61696d206265747765656e203230206461797320616e645f8201527f2066756c6c206475726174696f6e000000000000000000000000000000000000602082015250565b5f612b5f602e83612602565b9150612b6a82612b05565b604082019050919050565b5f6020820190508181035f830152612b8c81612b53565b9050919050565b5f612b9d82612208565b9150612ba883612208565b9250828201905080821115612bc057612bbf61267a565b5b92915050565b7f546f6b656e207472616e73666572206661696c656400000000000000000000005f82015250565b5f612bfa601583612602565b9150612c0582612bc6565b602082019050919050565b5f6020820190508181035f830152612c2781612bee565b9050919050565b5f604082019050612c415f830185612313565b612c4e6020830184612313565b9392505050565b7f5374616b65206e6f7420666f756e6420666f7220676976656e20706f736974695f8201527f6f6e496400000000000000000000000000000000000000000000000000000000602082015250565b5f612caf602483612602565b9150612cba82612c55565b604082019050919050565b5f6020820190508181035f830152612cdc81612ca3565b9050919050565b7f416c7265616479207265676973746572656400000000000000000000000000005f82015250565b5f612d17601283612602565b9150612d2282612ce3565b602082019050919050565b5f6020820190508181035f830152612d4481612d0b565b9050919050565b7f43616e6e6f7420726566657220796f757273656c6600000000000000000000005f82015250565b5f612d7f601583612602565b9150612d8a82612d4b565b602082019050919050565b5f6020820190508181035f830152612dac81612d73565b9050919050565b7f5265666572726572206e6f7420726567697374657265640000000000000000005f82015250565b5f612de7601783612602565b9150612df282612db3565b602082019050919050565b5f6020820190508181035f830152612e1481612ddb565b9050919050565b7f416d6f756e74206d7573742062652067726561746572207468616e20300000005f82015250565b5f612e4f601d83612602565b9150612e5a82612e1b565b602082019050919050565b5f6020820190508181035f830152612e7c81612e43565b9050919050565b7f496e76616c6964207374616b696e67206475726174696f6e00000000000000005f82015250565b5f612eb7601883612602565b9150612ec282612e83565b602082019050919050565b5f6020820190508181035f830152612ee481612eab565b9050919050565b5f606082019050612efe5f830186612296565b612f0b6020830185612296565b612f186040830184612313565b949350505050565b7f526566657272616c207472616e73666572206661696c656400000000000000005f82015250565b5f612f54601883612602565b9150612f5f82612f20565b602082019050919050565b5f6020820190508181035f830152612f8181612f48565b9050919050565b5f612f928261255a565b915060ff8203612fa557612fa461267a565b5b60018201905091905056fea26469706673582212202fd2ca7d743111c2d3f8097efec3f040ed278a48ccd09d77a237b27b63e2bce464736f6c63430008190033",
					"opcodes": "PUSH1 0x80 PUSH1 0x40 MSTORE PUSH1 0x40 MLOAD DUP1 PUSH1 0xA0 ADD PUSH1 0x40 MSTORE DUP1 PUSH1 0x5 PUSH1 0xFF AND DUP2 MSTORE PUSH1 0x20 ADD PUSH1 0x3 PUSH1 0xFF AND DUP2 MSTORE PUSH1 0x20 ADD PUSH1 0x2 PUSH1 0xFF AND DUP2 MSTORE PUSH1 0x20 ADD PUSH1 0x1 PUSH1 0xFF AND DUP2 MSTORE PUSH1 0x20 ADD PUSH1 0x1 PUSH1 0xFF AND DUP2 MSTORE POP PUSH1 0x4 SWAP1 PUSH1 0x5 PUSH2 0x4F SWAP3 SWAP2 SWAP1 PUSH2 0x2B8 JUMP JUMPDEST POP CALLVALUE DUP1 ISZERO PUSH2 0x5B JUMPI PUSH0 DUP1 REVERT JUMPDEST POP PUSH1 0x40 MLOAD PUSH2 0x34D9 CODESIZE SUB DUP1 PUSH2 0x34D9 DUP4 CODECOPY DUP2 DUP2 ADD PUSH1 0x40 MSTORE DUP2 ADD SWAP1 PUSH2 0x7D SWAP2 SWAP1 PUSH2 0x3C8 JUMP JUMPDEST PUSH0 PUSH20 0xFFFFFFFFFFFFFFFFFFFFFFFFFFFFFFFFFFFFFFFF AND DUP3 PUSH20 0xFFFFFFFFFFFFFFFFFFFFFFFFFFFFFFFFFFFFFFFF AND SUB PUSH2 0xEB JUMPI PUSH1 0x40 MLOAD PUSH32 0x8C379A000000000000000000000000000000000000000000000000000000000 DUP2 MSTORE PUSH1 0x4 ADD PUSH2 0xE2 SWAP1 PUSH2 0x460 JUMP JUMPDEST PUSH1 0x40 MLOAD DUP1 SWAP2 SUB SWAP1 REVERT JUMPDEST PUSH0 PUSH20 0xFFFFFFFFFFFFFFFFFFFFFFFFFFFFFFFFFFFFFFFF AND DUP2 PUSH20 0xFFFFFFFFFFFFFFFFFFFFFFFFFFFFFFFFFFFFFFFF AND SUB PUSH2 0x159 JUMPI PUSH1 0x40 MLOAD PUSH32 0x8C379A000000000000000000000000000000000000000000000000000000000 DUP2 MSTORE PUSH1 0x4 ADD PUSH2 0x150 SWAP1 PUSH2 0x4C8 JUMP JUMPDEST PUSH1 0x40 MLOAD DUP1 SWAP2 SUB SWAP1 REVERT JUMPDEST DUP2 PUSH0 DUP1 PUSH2 0x100 EXP DUP2 SLOAD DUP2 PUSH20 0xFFFFFFFFFFFFFFFFFFFFFFFFFFFFFFFFFFFFFFFF MUL NOT AND SWAP1 DUP4 PUSH20 0xFFFFFFFFFFFFFFFFFFFFFFFFFFFFFFFFFFFFFFFF AND MUL OR SWAP1 SSTORE POP DUP1 PUSH1 0x1 PUSH0 PUSH2 0x100 EXP DUP2 SLOAD DUP2 PUSH20 0xFFFFFFFFFFFFFFFFFFFFFFFFFFFFFFFFFFFFFFFF MUL NOT AND SWAP1 DUP4 PUSH20 0xFFFFFFFFFFFFFFFFFFFFFFFFFFFFFFFFFFFFFFFF AND MUL OR SWAP1 SSTORE POP PUSH1 0x1 PUSH1 0x2 PUSH0 DUP1 PUSH0 SWAP1 SLOAD SWAP1 PUSH2 0x100 EXP SWAP1 DIV PUSH20 0xFFFFFFFFFFFFFFFFFFFFFFFFFFFFFFFFFFFFFFFF AND PUSH20 0xFFFFFFFFFFFFFFFFFFFFFFFFFFFFFFFFFFFFFFFF AND PUSH20 0xFFFFFFFFFFFFFFFFFFFFFFFFFFFFFFFFFFFFFFFF AND DUP2 MSTORE PUSH1 0x20 ADD SWAP1 DUP2 MSTORE PUSH1 0x20 ADD PUSH0 KECCAK256 PUSH0 ADD PUSH1 0x14 PUSH2 0x100 EXP DUP2 SLOAD DUP2 PUSH1 0xFF MUL NOT AND SWAP1 DUP4 ISZERO ISZERO MUL OR SWAP1 SSTORE POP PUSH1 0x1 PUSH1 0xA PUSH0 PUSH1 0x1E DUP2 MSTORE PUSH1 0x20 ADD SWAP1 DUP2 MSTORE PUSH1 0x20 ADD PUSH0 KECCAK256 DUP2 SWAP1 SSTORE POP PUSH1 0x3 PUSH1 0xA PUSH0 PUSH1 0x5A DUP2 MSTORE PUSH1 0x20 ADD SWAP1 DUP2 MSTORE PUSH1 0x20 ADD PUSH0 KECCAK256 DUP2 SWAP1 SSTORE POP PUSH1 0x6 PUSH1 0xA PUSH0 PUSH1 0xB4 DUP2 MSTORE PUSH1 0x20 ADD SWAP1 DUP2 MSTORE PUSH1 0x20 ADD PUSH0 KECCAK256 DUP2 SWAP1 SSTORE POP PUSH1 0xC PUSH1 0xA PUSH0 PUSH2 0x16D DUP2 MSTORE PUSH1 0x20 ADD SWAP1 DUP2 MSTORE PUSH1 0x20 ADD PUSH0 KECCAK256 DUP2 SWAP1 SSTORE POP POP POP PUSH2 0x4E6 JUMP JUMPDEST DUP3 PUSH1 0x5 PUSH1 0x1F ADD PUSH1 0x20 SWAP1 DIV DUP2 ADD SWAP3 DUP3 ISZERO PUSH2 0x33E JUMPI SWAP2 PUSH1 0x20 MUL DUP3 ADD PUSH0 JUMPDEST DUP4 DUP3 GT ISZERO PUSH2 0x310 JUMPI DUP4 MLOAD DUP4 DUP3 PUSH2 0x100 EXP DUP2 SLOAD DUP2 PUSH1 0xFF MUL NOT AND SWAP1 DUP4 PUSH1 0xFF AND MUL OR SWAP1 SSTORE POP SWAP3 PUSH1 0x20 ADD SWAP3 PUSH1 0x1 ADD PUSH1 0x20 DUP2 PUSH0 ADD DIV SWAP3 DUP4 ADD SWAP3 PUSH1 0x1 SUB MUL PUSH2 0x2D3 JUMP JUMPDEST DUP1 ISZERO PUSH2 0x33C JUMPI DUP3 DUP2 PUSH2 0x100 EXP DUP2 SLOAD SWAP1 PUSH1 0xFF MUL NOT AND SWAP1 SSTORE PUSH1 0x1 ADD PUSH1 0x20 DUP2 PUSH0 ADD DIV SWAP3 DUP4 ADD SWAP3 PUSH1 0x1 SUB MUL PUSH2 0x310 JUMP JUMPDEST POP JUMPDEST POP SWAP1 POP PUSH2 0x34B SWAP2 SWAP1 PUSH2 0x34F JUMP JUMPDEST POP SWAP1 JUMP JUMPDEST JUMPDEST DUP1 DUP3 GT ISZERO PUSH2 0x366 JUMPI PUSH0 DUP2 PUSH0 SWAP1 SSTORE POP PUSH1 0x1 ADD PUSH2 0x350 JUMP JUMPDEST POP SWAP1 JUMP JUMPDEST PUSH0 DUP1 REVERT JUMPDEST PUSH0 PUSH20 0xFFFFFFFFFFFFFFFFFFFFFFFFFFFFFFFFFFFFFFFF DUP3 AND SWAP1 POP SWAP2 SWAP1 POP JUMP JUMPDEST PUSH0 PUSH2 0x397 DUP3 PUSH2 0x36E JUMP JUMPDEST SWAP1 POP SWAP2 SWAP1 POP JUMP JUMPDEST PUSH2 0x3A7 DUP2 PUSH2 0x38D JUMP JUMPDEST DUP2 EQ PUSH2 0x3B1 JUMPI PUSH0 DUP1 REVERT JUMPDEST POP JUMP JUMPDEST PUSH0 DUP2 MLOAD SWAP1 POP PUSH2 0x3C2 DUP2 PUSH2 0x39E JUMP JUMPDEST SWAP3 SWAP2 POP POP JUMP JUMPDEST PUSH0 DUP1 PUSH1 0x40 DUP4 DUP6 SUB SLT ISZERO PUSH2 0x3DE JUMPI PUSH2 0x3DD PUSH2 0x36A JUMP JUMPDEST JUMPDEST PUSH0 PUSH2 0x3EB DUP6 DUP3 DUP7 ADD PUSH2 0x3B4 JUMP JUMPDEST SWAP3 POP POP PUSH1 0x20 PUSH2 0x3FC DUP6 DUP3 DUP7 ADD PUSH2 0x3B4 JUMP JUMPDEST SWAP2 POP POP SWAP3 POP SWAP3 SWAP1 POP JUMP JUMPDEST PUSH0 DUP3 DUP3 MSTORE PUSH1 0x20 DUP3 ADD SWAP1 POP SWAP3 SWAP2 POP POP JUMP JUMPDEST PUSH32 0x4F776E657220616464726573732063616E6E6F74206265207A65726F00000000 PUSH0 DUP3 ADD MSTORE POP JUMP JUMPDEST PUSH0 PUSH2 0x44A PUSH1 0x1C DUP4 PUSH2 0x406 JUMP JUMPDEST SWAP2 POP PUSH2 0x455 DUP3 PUSH2 0x416 JUMP JUMPDEST PUSH1 0x20 DUP3 ADD SWAP1 POP SWAP2 SWAP1 POP JUMP JUMPDEST PUSH0 PUSH1 0x20 DUP3 ADD SWAP1 POP DUP2 DUP2 SUB PUSH0 DUP4 ADD MSTORE PUSH2 0x477 DUP2 PUSH2 0x43E JUMP JUMPDEST SWAP1 POP SWAP2 SWAP1 POP JUMP JUMPDEST PUSH32 0x546F6B656E20616464726573732063616E6E6F74206265207A65726F00000000 PUSH0 DUP3 ADD MSTORE POP JUMP JUMPDEST PUSH0 PUSH2 0x4B2 PUSH1 0x1C DUP4 PUSH2 0x406 JUMP JUMPDEST SWAP2 POP PUSH2 0x4BD DUP3 PUSH2 0x47E JUMP JUMPDEST PUSH1 0x20 DUP3 ADD SWAP1 POP SWAP2 SWAP1 POP JUMP JUMPDEST PUSH0 PUSH1 0x20 DUP3 ADD SWAP1 POP DUP2 DUP2 SUB PUSH0 DUP4 ADD MSTORE PUSH2 0x4DF DUP2 PUSH2 0x4A6 JUMP JUMPDEST SWAP1 POP SWAP2 SWAP1 POP JUMP JUMPDEST PUSH2 0x2FE6 DUP1 PUSH2 0x4F3 PUSH0 CODECOPY PUSH0 RETURN INVALID PUSH1 0x80 PUSH1 0x40 MSTORE CALLVALUE DUP1 ISZERO PUSH2 0xF JUMPI PUSH0 DUP1 REVERT JUMPDEST POP PUSH1 0x4 CALLDATASIZE LT PUSH2 0x156 JUMPI PUSH0 CALLDATALOAD PUSH1 0xE0 SHR DUP1 PUSH4 0x899346C7 GT PUSH2 0xC1 JUMPI DUP1 PUSH4 0xBD297178 GT PUSH2 0x7A JUMPI DUP1 PUSH4 0xBD297178 EQ PUSH2 0x43E JUMPI DUP1 PUSH4 0xC2D3C677 EQ PUSH2 0x46E JUMPI DUP1 PUSH4 0xC3C5A547 EQ PUSH2 0x49E JUMPI DUP1 PUSH4 0xE45A57D0 EQ PUSH2 0x4CE JUMPI DUP1 PUSH4 0xF6E88873 EQ PUSH2 0x4FE JUMPI DUP1 PUSH4 0xFC0C546A EQ PUSH2 0x52E JUMPI PUSH2 0x156 JUMP JUMPDEST DUP1 PUSH4 0x899346C7 EQ PUSH2 0x341 JUMPI DUP1 PUSH4 0x8DA5CB5B EQ PUSH2 0x35F JUMPI DUP1 PUSH4 0x98278EFB EQ PUSH2 0x37D JUMPI DUP1 PUSH4 0xA87430BA EQ PUSH2 0x3AD JUMPI DUP1 PUSH4 0xAA7ED462 EQ PUSH2 0x3DE JUMPI DUP1 PUSH4 0xB77B7DC9 EQ PUSH2 0x40E JUMPI PUSH2 0x156 JUMP JUMPDEST DUP1 PUSH4 0x4420E486 GT PUSH2 0x113 JUMPI DUP1 PUSH4 0x4420E486 EQ PUSH2 0x256 JUMPI DUP1 PUSH4 0x75506C96 EQ PUSH2 0x272 JUMPI DUP1 PUSH4 0x797C7F5F EQ PUSH2 0x290 JUMPI DUP1 PUSH4 0x7B0472F0 EQ PUSH2 0x2C5 JUMPI DUP1 PUSH4 0x862BA05F EQ PUSH2 0x2E1 JUMPI DUP1 PUSH4 0x875BB4E2 EQ PUSH2 0x311 JUMPI PUSH2 0x156 JUMP JUMPDEST DUP1 PUSH4 0x1E43EB27 EQ PUSH2 0x15A JUMPI DUP1 PUSH4 0x21923BDE EQ PUSH2 0x18A JUMPI DUP1 PUSH4 0x28B496E5 EQ PUSH2 0x1BA JUMPI DUP1 PUSH4 0x28FE7031 EQ PUSH2 0x1EE JUMPI DUP1 PUSH4 0x2E1A7D4D EQ PUSH2 0x21E JUMPI DUP1 PUSH4 0x379607F5 EQ PUSH2 0x23A JUMPI JUMPDEST PUSH0 DUP1 REVERT JUMPDEST PUSH2 0x174 PUSH1 0x4 DUP1 CALLDATASIZE SUB DUP2 ADD SWAP1 PUSH2 0x16F SWAP2 SWAP1 PUSH2 0x223B JUMP JUMPDEST PUSH2 0x54C JUMP JUMPDEST PUSH1 0x40 MLOAD PUSH2 0x181 SWAP2 SWAP1 PUSH2 0x22A5 JUMP JUMPDEST PUSH1 0x40 MLOAD DUP1 SWAP2 SUB SWAP1 RETURN JUMPDEST PUSH2 0x1A4 PUSH1 0x4 DUP1 CALLDATASIZE SUB DUP2 ADD SWAP1 PUSH2 0x19F SWAP2 SWAP1 PUSH2 0x22E8 JUMP JUMPDEST PUSH2 0x57C JUMP JUMPDEST PUSH1 0x40 MLOAD PUSH2 0x1B1 SWAP2 SWAP1 PUSH2 0x2322 JUMP JUMPDEST PUSH1 0x40 MLOAD DUP1 SWAP2 SUB SWAP1 RETURN JUMPDEST PUSH2 0x1D4 PUSH1 0x4 DUP1 CALLDATASIZE SUB DUP2 ADD SWAP1 PUSH2 0x1CF SWAP2 SWAP1 PUSH2 0x223B JUMP JUMPDEST PUSH2 0x894 JUMP JUMPDEST PUSH1 0x40 MLOAD PUSH2 0x1E5 SWAP6 SWAP5 SWAP4 SWAP3 SWAP2 SWAP1 PUSH2 0x233B JUMP JUMPDEST PUSH1 0x40 MLOAD DUP1 SWAP2 SUB SWAP1 RETURN JUMPDEST PUSH2 0x208 PUSH1 0x4 DUP1 CALLDATASIZE SUB DUP2 ADD SWAP1 PUSH2 0x203 SWAP2 SWAP1 PUSH2 0x22E8 JUMP JUMPDEST PUSH2 0xB49 JUMP JUMPDEST PUSH1 0x40 MLOAD PUSH2 0x215 SWAP2 SWAP1 PUSH2 0x2443 JUMP JUMPDEST PUSH1 0x40 MLOAD DUP1 SWAP2 SUB SWAP1 RETURN JUMPDEST PUSH2 0x238 PUSH1 0x4 DUP1 CALLDATASIZE SUB DUP2 ADD SWAP1 PUSH2 0x233 SWAP2 SWAP1 PUSH2 0x223B JUMP JUMPDEST PUSH2 0xC81 JUMP JUMPDEST STOP JUMPDEST PUSH2 0x254 PUSH1 0x4 DUP1 CALLDATASIZE SUB DUP2 ADD SWAP1 PUSH2 0x24F SWAP2 SWAP1 PUSH2 0x223B JUMP JUMPDEST PUSH2 0xE0B JUMP JUMPDEST STOP JUMPDEST PUSH2 0x270 PUSH1 0x4 DUP1 CALLDATASIZE SUB DUP2 ADD SWAP1 PUSH2 0x26B SWAP2 SWAP1 PUSH2 0x22E8 JUMP JUMPDEST PUSH2 0x1271 JUMP JUMPDEST STOP JUMPDEST PUSH2 0x27A PUSH2 0x157C JUMP JUMPDEST PUSH1 0x40 MLOAD PUSH2 0x287 SWAP2 SWAP1 PUSH2 0x2322 JUMP JUMPDEST PUSH1 0x40 MLOAD DUP1 SWAP2 SUB SWAP1 RETURN JUMPDEST PUSH2 0x2AA PUSH1 0x4 DUP1 CALLDATASIZE SUB DUP2 ADD SWAP1 PUSH2 0x2A5 SWAP2 SWAP1 PUSH2 0x223B JUMP JUMPDEST PUSH2 0x1582 JUMP JUMPDEST PUSH1 0x40 MLOAD PUSH2 0x2BC SWAP7 SWAP6 SWAP5 SWAP4 SWAP3 SWAP2 SWAP1 PUSH2 0x247D JUMP JUMPDEST PUSH1 0x40 MLOAD DUP1 SWAP2 SUB SWAP1 RETURN JUMPDEST PUSH2 0x2DF PUSH1 0x4 DUP1 CALLDATASIZE SUB DUP2 ADD SWAP1 PUSH2 0x2DA SWAP2 SWAP1 PUSH2 0x24DC JUMP JUMPDEST PUSH2 0x183C JUMP JUMPDEST STOP JUMPDEST PUSH2 0x2FB PUSH1 0x4 DUP1 CALLDATASIZE SUB DUP2 ADD SWAP1 PUSH2 0x2F6 SWAP2 SWAP1 PUSH2 0x22E8 JUMP JUMPDEST PUSH2 0x1EEF JUMP JUMPDEST PUSH1 0x40 MLOAD PUSH2 0x308 SWAP2 SWAP1 PUSH2 0x2322 JUMP JUMPDEST PUSH1 0x40 MLOAD DUP1 SWAP2 SUB SWAP1 RETURN JUMPDEST PUSH2 0x32B PUSH1 0x4 DUP1 CALLDATASIZE SUB DUP2 ADD SWAP1 PUSH2 0x326 SWAP2 SWAP1 PUSH2 0x223B JUMP JUMPDEST PUSH2 0x1F04 JUMP JUMPDEST PUSH1 0x40 MLOAD PUSH2 0x338 SWAP2 SWAP1 PUSH2 0x2322 JUMP JUMPDEST PUSH1 0x40 MLOAD DUP1 SWAP2 SUB SWAP1 RETURN JUMPDEST PUSH2 0x349 PUSH2 0x1F19 JUMP JUMPDEST PUSH1 0x40 MLOAD PUSH2 0x356 SWAP2 SWAP1 PUSH2 0x2322 JUMP JUMPDEST PUSH1 0x40 MLOAD DUP1 SWAP2 SUB SWAP1 RETURN JUMPDEST PUSH2 0x367 PUSH2 0x1F1F JUMP JUMPDEST PUSH1 0x40 MLOAD PUSH2 0x374 SWAP2 SWAP1 PUSH2 0x22A5 JUMP JUMPDEST PUSH1 0x40 MLOAD DUP1 SWAP2 SUB SWAP1 RETURN JUMPDEST PUSH2 0x397 PUSH1 0x4 DUP1 CALLDATASIZE SUB DUP2 ADD SWAP1 PUSH2 0x392 SWAP2 SWAP1 PUSH2 0x22E8 JUMP JUMPDEST PUSH2 0x1F42 JUMP JUMPDEST PUSH1 0x40 MLOAD PUSH2 0x3A4 SWAP2 SWAP1 PUSH2 0x2322 JUMP JUMPDEST PUSH1 0x40 MLOAD DUP1 SWAP2 SUB SWAP1 RETURN JUMPDEST PUSH2 0x3C7 PUSH1 0x4 DUP1 CALLDATASIZE SUB DUP2 ADD SWAP1 PUSH2 0x3C2 SWAP2 SWAP1 PUSH2 0x22E8 JUMP JUMPDEST PUSH2 0x1F88 JUMP JUMPDEST PUSH1 0x40 MLOAD PUSH2 0x3D5 SWAP3 SWAP2 SWAP1 PUSH2 0x251A JUMP JUMPDEST PUSH1 0x40 MLOAD DUP1 SWAP2 SUB SWAP1 RETURN JUMPDEST PUSH2 0x3F8 PUSH1 0x4 DUP1 CALLDATASIZE SUB DUP2 ADD SWAP1 PUSH2 0x3F3 SWAP2 SWAP1 PUSH2 0x22E8 JUMP JUMPDEST PUSH2 0x1FD3 JUMP JUMPDEST PUSH1 0x40 MLOAD PUSH2 0x405 SWAP2 SWAP1 PUSH2 0x2322 JUMP JUMPDEST PUSH1 0x40 MLOAD DUP1 SWAP2 SUB SWAP1 RETURN JUMPDEST PUSH2 0x428 PUSH1 0x4 DUP1 CALLDATASIZE SUB DUP2 ADD SWAP1 PUSH2 0x423 SWAP2 SWAP1 PUSH2 0x22E8 JUMP JUMPDEST PUSH2 0x2019 JUMP JUMPDEST PUSH1 0x40 MLOAD PUSH2 0x435 SWAP2 SWAP1 PUSH2 0x2322 JUMP JUMPDEST PUSH1 0x40 MLOAD DUP1 SWAP2 SUB SWAP1 RETURN JUMPDEST PUSH2 0x458 PUSH1 0x4 DUP1 CALLDATASIZE SUB DUP2 ADD SWAP1 PUSH2 0x453 SWAP2 SWAP1 PUSH2 0x24DC JUMP JUMPDEST PUSH2 0x202E JUMP JUMPDEST PUSH1 0x40 MLOAD PUSH2 0x465 SWAP2 SWAP1 PUSH2 0x2322 JUMP JUMPDEST PUSH1 0x40 MLOAD DUP1 SWAP2 SUB SWAP1 RETURN JUMPDEST PUSH2 0x488 PUSH1 0x4 DUP1 CALLDATASIZE SUB DUP2 ADD SWAP1 PUSH2 0x483 SWAP2 SWAP1 PUSH2 0x22E8 JUMP JUMPDEST PUSH2 0x2106 JUMP JUMPDEST PUSH1 0x40 MLOAD PUSH2 0x495 SWAP2 SWAP1 PUSH2 0x2322 JUMP JUMPDEST PUSH1 0x40 MLOAD DUP1 SWAP2 SUB SWAP1 RETURN JUMPDEST PUSH2 0x4B8 PUSH1 0x4 DUP1 CALLDATASIZE SUB DUP2 ADD SWAP1 PUSH2 0x4B3 SWAP2 SWAP1 PUSH2 0x22E8 JUMP JUMPDEST PUSH2 0x214C JUMP JUMPDEST PUSH1 0x40 MLOAD PUSH2 0x4C5 SWAP2 SWAP1 PUSH2 0x2541 JUMP JUMPDEST PUSH1 0x40 MLOAD DUP1 SWAP2 SUB SWAP1 RETURN JUMPDEST PUSH2 0x4E8 PUSH1 0x4 DUP1 CALLDATASIZE SUB DUP2 ADD SWAP1 PUSH2 0x4E3 SWAP2 SWAP1 PUSH2 0x223B JUMP JUMPDEST PUSH2 0x21A1 JUMP JUMPDEST PUSH1 0x40 MLOAD PUSH2 0x4F5 SWAP2 SWAP1 PUSH2 0x2575 JUMP JUMPDEST PUSH1 0x40 MLOAD DUP1 SWAP2 SUB SWAP1 RETURN JUMPDEST PUSH2 0x518 PUSH1 0x4 DUP1 CALLDATASIZE SUB DUP2 ADD SWAP1 PUSH2 0x513 SWAP2 SWAP1 PUSH2 0x22E8 JUMP JUMPDEST PUSH2 0x21CA JUMP JUMPDEST PUSH1 0x40 MLOAD PUSH2 0x525 SWAP2 SWAP1 PUSH2 0x2322 JUMP JUMPDEST PUSH1 0x40 MLOAD DUP1 SWAP2 SUB SWAP1 RETURN JUMPDEST PUSH2 0x536 PUSH2 0x21DF JUMP JUMPDEST PUSH1 0x40 MLOAD PUSH2 0x543 SWAP2 SWAP1 PUSH2 0x25E9 JUMP JUMPDEST PUSH1 0x40 MLOAD DUP1 SWAP2 SUB SWAP1 RETURN JUMPDEST PUSH1 0x3 PUSH1 0x20 MSTORE DUP1 PUSH0 MSTORE PUSH1 0x40 PUSH0 KECCAK256 PUSH0 SWAP2 POP SLOAD SWAP1 PUSH2 0x100 EXP SWAP1 DIV PUSH20 0xFFFFFFFFFFFFFFFFFFFFFFFFFFFFFFFFFFFFFFFF AND DUP2 JUMP JUMPDEST PUSH0 PUSH1 0x2 PUSH0 DUP4 PUSH20 0xFFFFFFFFFFFFFFFFFFFFFFFFFFFFFFFFFFFFFFFF AND PUSH20 0xFFFFFFFFFFFFFFFFFFFFFFFFFFFFFFFFFFFFFFFF AND DUP2 MSTORE PUSH1 0x20 ADD SWAP1 DUP2 MSTORE PUSH1 0x20 ADD PUSH0 KECCAK256 PUSH0 ADD PUSH1 0x14 SWAP1 SLOAD SWAP1 PUSH2 0x100 EXP SWAP1 DIV PUSH1 0xFF AND PUSH2 0x609 JUMPI PUSH1 0x40 MLOAD PUSH32 0x8C379A000000000000000000000000000000000000000000000000000000000 DUP2 MSTORE PUSH1 0x4 ADD PUSH2 0x600 SWAP1 PUSH2 0x265C JUMP JUMPDEST PUSH1 0x40 MLOAD DUP1 SWAP2 SUB SWAP1 REVERT JUMPDEST PUSH0 DUP1 DUP4 SWAP1 POP JUMPDEST PUSH0 PUSH20 0xFFFFFFFFFFFFFFFFFFFFFFFFFFFFFFFFFFFFFFFF AND PUSH1 0x2 PUSH0 DUP4 PUSH20 0xFFFFFFFFFFFFFFFFFFFFFFFFFFFFFFFFFFFFFFFF AND PUSH20 0xFFFFFFFFFFFFFFFFFFFFFFFFFFFFFFFFFFFFFFFF AND DUP2 MSTORE PUSH1 0x20 ADD SWAP1 DUP2 MSTORE PUSH1 0x20 ADD PUSH0 KECCAK256 PUSH0 ADD PUSH0 SWAP1 SLOAD SWAP1 PUSH2 0x100 EXP SWAP1 DIV PUSH20 0xFFFFFFFFFFFFFFFFFFFFFFFFFFFFFFFFFFFFFFFF AND PUSH20 0xFFFFFFFFFFFFFFFFFFFFFFFFFFFFFFFFFFFFFFFF AND EQ ISZERO DUP1 ISZERO PUSH2 0x752 JUMPI POP PUSH0 DUP1 SLOAD SWAP1 PUSH2 0x100 EXP SWAP1 DIV PUSH20 0xFFFFFFFFFFFFFFFFFFFFFFFFFFFFFFFFFFFFFFFF AND PUSH20 0xFFFFFFFFFFFFFFFFFFFFFFFFFFFFFFFFFFFFFFFF AND PUSH1 0x2 PUSH0 DUP4 PUSH20 0xFFFFFFFFFFFFFFFFFFFFFFFFFFFFFFFFFFFFFFFF AND PUSH20 0xFFFFFFFFFFFFFFFFFFFFFFFFFFFFFFFFFFFFFFFF AND DUP2 MSTORE PUSH1 0x20 ADD SWAP1 DUP2 MSTORE PUSH1 0x20 ADD PUSH0 KECCAK256 PUSH0 ADD PUSH0 SWAP1 SLOAD SWAP1 PUSH2 0x100 EXP SWAP1 DIV PUSH20 0xFFFFFFFFFFFFFFFFFFFFFFFFFFFFFFFFFFFFFFFF AND PUSH20 0xFFFFFFFFFFFFFFFFFFFFFFFFFFFFFFFFFFFFFFFF AND EQ ISZERO JUMPDEST ISZERO PUSH2 0x7CB JUMPI DUP2 DUP1 PUSH2 0x762 SWAP1 PUSH2 0x26A7 JUMP JUMPDEST SWAP3 POP POP PUSH1 0x2 PUSH0 DUP3 PUSH20 0xFFFFFFFFFFFFFFFFFFFFFFFFFFFFFFFFFFFFFFFF AND PUSH20 0xFFFFFFFFFFFFFFFFFFFFFFFFFFFFFFFFFFFFFFFF AND DUP2 MSTORE PUSH1 0x20 ADD SWAP1 DUP2 MSTORE PUSH1 0x20 ADD PUSH0 KECCAK256 PUSH0 ADD PUSH0 SWAP1 SLOAD SWAP1 PUSH2 0x100 EXP SWAP1 DIV PUSH20 0xFFFFFFFFFFFFFFFFFFFFFFFFFFFFFFFFFFFFFFFF AND SWAP1 POP PUSH2 0x60F JUMP JUMPDEST PUSH0 DUP1 SLOAD SWAP1 PUSH2 0x100 EXP SWAP1 DIV PUSH20 0xFFFFFFFFFFFFFFFFFFFFFFFFFFFFFFFFFFFFFFFF AND PUSH20 0xFFFFFFFFFFFFFFFFFFFFFFFFFFFFFFFFFFFFFFFF AND PUSH1 0x2 PUSH0 DUP4 PUSH20 0xFFFFFFFFFFFFFFFFFFFFFFFFFFFFFFFFFFFFFFFF AND PUSH20 0xFFFFFFFFFFFFFFFFFFFFFFFFFFFFFFFFFFFFFFFF AND DUP2 MSTORE PUSH1 0x20 ADD SWAP1 DUP2 MSTORE PUSH1 0x20 ADD PUSH0 KECCAK256 PUSH0 ADD PUSH0 SWAP1 SLOAD SWAP1 PUSH2 0x100 EXP SWAP1 DIV PUSH20 0xFFFFFFFFFFFFFFFFFFFFFFFFFFFFFFFFFFFFFFFF AND PUSH20 0xFFFFFFFFFFFFFFFFFFFFFFFFFFFFFFFFFFFFFFFF AND SUB PUSH2 0x88A JUMPI DUP2 DUP1 PUSH2 0x886 SWAP1 PUSH2 0x26A7 JUMP JUMPDEST SWAP3 POP POP JUMPDEST DUP2 SWAP3 POP POP POP SWAP2 SWAP1 POP JUMP JUMPDEST PUSH0 DUP1 PUSH0 DUP1 PUSH0 DUP1 PUSH1 0x3 PUSH0 DUP9 DUP2 MSTORE PUSH1 0x20 ADD SWAP1 DUP2 MSTORE PUSH1 0x20 ADD PUSH0 KECCAK256 PUSH0 SWAP1 SLOAD SWAP1 PUSH2 0x100 EXP SWAP1 DIV PUSH20 0xFFFFFFFFFFFFFFFFFFFFFFFFFFFFFFFFFFFFFFFF AND SWAP1 POP PUSH0 PUSH20 0xFFFFFFFFFFFFFFFFFFFFFFFFFFFFFFFFFFFFFFFF AND DUP2 PUSH20 0xFFFFFFFFFFFFFFFFFFFFFFFFFFFFFFFFFFFFFFFF AND SUB PUSH2 0x93B JUMPI PUSH1 0x40 MLOAD PUSH32 0x8C379A000000000000000000000000000000000000000000000000000000000 DUP2 MSTORE PUSH1 0x4 ADD PUSH2 0x932 SWAP1 PUSH2 0x2738 JUMP JUMPDEST PUSH1 0x40 MLOAD DUP1 SWAP2 SUB SWAP1 REVERT JUMPDEST PUSH0 PUSH1 0x2 PUSH0 DUP4 PUSH20 0xFFFFFFFFFFFFFFFFFFFFFFFFFFFFFFFFFFFFFFFF AND PUSH20 0xFFFFFFFFFFFFFFFFFFFFFFFFFFFFFFFFFFFFFFFF AND DUP2 MSTORE PUSH1 0x20 ADD SWAP1 DUP2 MSTORE PUSH1 0x20 ADD PUSH0 KECCAK256 PUSH1 0x1 ADD DUP1 SLOAD DUP1 PUSH1 0x20 MUL PUSH1 0x20 ADD PUSH1 0x40 MLOAD SWAP1 DUP2 ADD PUSH1 0x40 MSTORE DUP1 SWAP3 SWAP2 SWAP1 DUP2 DUP2 MSTORE PUSH1 0x20 ADD PUSH0 SWAP1 JUMPDEST DUP3 DUP3 LT ISZERO PUSH2 0xA16 JUMPI DUP4 DUP3 SWAP1 PUSH0 MSTORE PUSH1 0x20 PUSH0 KECCAK256 SWAP1 PUSH1 0x6 MUL ADD PUSH1 0x40 MLOAD DUP1 PUSH1 0xC0 ADD PUSH1 0x40 MSTORE SWAP1 DUP2 PUSH0 DUP3 ADD SLOAD DUP2 MSTORE PUSH1 0x20 ADD PUSH1 0x1 DUP3 ADD SLOAD DUP2 MSTORE PUSH1 0x20 ADD PUSH1 0x2 DUP3 ADD SLOAD DUP2 MSTORE PUSH1 0x20 ADD PUSH1 0x3 DUP3 ADD SLOAD DUP2 MSTORE PUSH1 0x20 ADD PUSH1 0x4 DUP3 ADD SLOAD DUP2 MSTORE PUSH1 0x20 ADD PUSH1 0x5 DUP3 ADD PUSH0 SWAP1 SLOAD SWAP1 PUSH2 0x100 EXP SWAP1 DIV PUSH1 0xFF AND ISZERO ISZERO ISZERO ISZERO DUP2 MSTORE POP POP DUP2 MSTORE PUSH1 0x20 ADD SWAP1 PUSH1 0x1 ADD SWAP1 PUSH2 0x99B JUMP JUMPDEST POP POP POP POP SWAP1 POP PUSH0 JUMPDEST DUP2 MLOAD DUP2 LT ISZERO PUSH2 0xB04 JUMPI DUP9 DUP3 DUP3 DUP2 MLOAD DUP2 LT PUSH2 0xA3B JUMPI PUSH2 0xA3A PUSH2 0x2756 JUMP JUMPDEST JUMPDEST PUSH1 0x20 MUL PUSH1 0x20 ADD ADD MLOAD PUSH1 0x40 ADD MLOAD SUB PUSH2 0xAF7 JUMPI PUSH0 DUP3 DUP3 DUP2 MLOAD DUP2 LT PUSH2 0xA60 JUMPI PUSH2 0xA5F PUSH2 0x2756 JUMP JUMPDEST JUMPDEST PUSH1 0x20 MUL PUSH1 0x20 ADD ADD MLOAD PUSH1 0x20 ADD MLOAD SWAP1 POP PUSH0 DUP4 DUP4 DUP2 MLOAD DUP2 LT PUSH2 0xA82 JUMPI PUSH2 0xA81 PUSH2 0x2756 JUMP JUMPDEST JUMPDEST PUSH1 0x20 MUL PUSH1 0x20 ADD ADD MLOAD PUSH1 0x80 ADD MLOAD SWAP1 POP PUSH0 PUSH1 0xA PUSH0 DUP4 DUP2 MSTORE PUSH1 0x20 ADD SWAP1 DUP2 MSTORE PUSH1 0x20 ADD PUSH0 KECCAK256 SLOAD SWAP1 POP PUSH0 PUSH2 0x8E94 DUP4 DUP4 DUP7 PUSH2 0xAB6 SWAP2 SWAP1 PUSH2 0x2783 JUMP JUMPDEST PUSH2 0xAC0 SWAP2 SWAP1 PUSH2 0x2783 JUMP JUMPDEST PUSH2 0xACA SWAP2 SWAP1 PUSH2 0x27F1 JUMP JUMPDEST SWAP1 POP PUSH0 DUP4 DUP3 PUSH2 0xAD9 SWAP2 SWAP1 PUSH2 0x27F1 JUMP JUMPDEST SWAP1 POP DUP5 DUP4 DUP3 DUP5 DUP8 SWAP13 POP SWAP13 POP SWAP13 POP SWAP13 POP SWAP13 POP POP POP POP POP POP POP POP POP PUSH2 0xB40 JUMP JUMPDEST DUP1 DUP1 PUSH1 0x1 ADD SWAP2 POP POP PUSH2 0xA1E JUMP JUMPDEST POP PUSH1 0x40 MLOAD PUSH32 0x8C379A000000000000000000000000000000000000000000000000000000000 DUP2 MSTORE PUSH1 0x4 ADD PUSH2 0xB37 SWAP1 PUSH2 0x286B JUMP JUMPDEST PUSH1 0x40 MLOAD DUP1 SWAP2 SUB SWAP1 REVERT JUMPDEST SWAP2 SWAP4 SWAP6 SWAP1 SWAP3 SWAP5 POP JUMP JUMPDEST PUSH1 0x60 PUSH0 PUSH1 0x2 PUSH0 DUP5 PUSH20 0xFFFFFFFFFFFFFFFFFFFFFFFFFFFFFFFFFFFFFFFF AND PUSH20 0xFFFFFFFFFFFFFFFFFFFFFFFFFFFFFFFFFFFFFFFF AND DUP2 MSTORE PUSH1 0x20 ADD SWAP1 DUP2 MSTORE PUSH1 0x20 ADD PUSH0 KECCAK256 PUSH1 0x1 ADD DUP1 SLOAD SWAP1 POP SWAP1 POP PUSH0 DUP2 PUSH8 0xFFFFFFFFFFFFFFFF DUP2 GT ISZERO PUSH2 0xBAD JUMPI PUSH2 0xBAC PUSH2 0x2889 JUMP JUMPDEST JUMPDEST PUSH1 0x40 MLOAD SWAP1 DUP1 DUP3 MSTORE DUP1 PUSH1 0x20 MUL PUSH1 0x20 ADD DUP3 ADD PUSH1 0x40 MSTORE DUP1 ISZERO PUSH2 0xBDB JUMPI DUP2 PUSH1 0x20 ADD PUSH1 0x20 DUP3 MUL DUP1 CALLDATASIZE DUP4 CALLDATACOPY DUP1 DUP3 ADD SWAP2 POP POP SWAP1 POP JUMPDEST POP SWAP1 POP PUSH0 JUMPDEST DUP3 DUP2 LT ISZERO PUSH2 0xC76 JUMPI PUSH1 0x2 PUSH0 DUP7 PUSH20 0xFFFFFFFFFFFFFFFFFFFFFFFFFFFFFFFFFFFFFFFF AND PUSH20 0xFFFFFFFFFFFFFFFFFFFFFFFFFFFFFFFFFFFFFFFF AND DUP2 MSTORE PUSH1 0x20 ADD SWAP1 DUP2 MSTORE PUSH1 0x20 ADD PUSH0 KECCAK256 PUSH1 0x1 ADD DUP2 DUP2 SLOAD DUP2 LT PUSH2 0xC3A JUMPI PUSH2 0xC39 PUSH2 0x2756 JUMP JUMPDEST JUMPDEST SWAP1 PUSH0 MSTORE PUSH1 0x20 PUSH0 KECCAK256 SWAP1 PUSH1 0x6 MUL ADD PUSH1 0x2 ADD SLOAD DUP3 DUP3 DUP2 MLOAD DUP2 LT PUSH2 0xC5D JUMPI PUSH2 0xC5C PUSH2 0x2756 JUMP JUMPDEST JUMPDEST PUSH1 0x20 MUL PUSH1 0x20 ADD ADD DUP2 DUP2 MSTORE POP POP DUP1 DUP1 PUSH1 0x1 ADD SWAP2 POP POP PUSH2 0xBE0 JUMP JUMPDEST POP DUP1 SWAP3 POP POP POP SWAP2 SWAP1 POP JUMP JUMPDEST PUSH0 DUP1 SLOAD SWAP1 PUSH2 0x100 EXP SWAP1 DIV PUSH20 0xFFFFFFFFFFFFFFFFFFFFFFFFFFFFFFFFFFFFFFFF AND PUSH20 0xFFFFFFFFFFFFFFFFFFFFFFFFFFFFFFFFFFFFFFFF AND CALLER PUSH20 0xFFFFFFFFFFFFFFFFFFFFFFFFFFFFFFFFFFFFFFFF AND EQ PUSH2 0xD0E JUMPI PUSH1 0x40 MLOAD PUSH32 0x8C379A000000000000000000000000000000000000000000000000000000000 DUP2 MSTORE PUSH1 0x4 ADD PUSH2 0xD05 SWAP1 PUSH2 0x2900 JUMP JUMPDEST PUSH1 0x40 MLOAD DUP1 SWAP2 SUB SWAP1 REVERT JUMPDEST PUSH1 0x1 PUSH0 SWAP1 SLOAD SWAP1 PUSH2 0x100 EXP SWAP1 DIV PUSH20 0xFFFFFFFFFFFFFFFFFFFFFFFFFFFFFFFFFFFFFFFF AND PUSH20 0xFFFFFFFFFFFFFFFFFFFFFFFFFFFFFFFFFFFFFFFF AND PUSH4 0xA9059CBB PUSH0 DUP1 SLOAD SWAP1 PUSH2 0x100 EXP SWAP1 DIV PUSH20 0xFFFFFFFFFFFFFFFFFFFFFFFFFFFFFFFFFFFFFFFF AND DUP4 PUSH1 0x40 MLOAD DUP4 PUSH4 0xFFFFFFFF AND PUSH1 0xE0 SHL DUP2 MSTORE PUSH1 0x4 ADD PUSH2 0xD89 SWAP3 SWAP2 SWAP1 PUSH2 0x291E JUMP JUMPDEST PUSH1 0x20 PUSH1 0x40 MLOAD DUP1 DUP4 SUB DUP2 PUSH0 DUP8 GAS CALL ISZERO DUP1 ISZERO PUSH2 0xDA5 JUMPI RETURNDATASIZE PUSH0 DUP1 RETURNDATACOPY RETURNDATASIZE PUSH0 REVERT JUMPDEST POP POP POP POP PUSH1 0x40 MLOAD RETURNDATASIZE PUSH1 0x1F NOT PUSH1 0x1F DUP3 ADD AND DUP3 ADD DUP1 PUSH1 0x40 MSTORE POP DUP2 ADD SWAP1 PUSH2 0xDC9 SWAP2 SWAP1 PUSH2 0x296F JUMP JUMPDEST PUSH2 0xE08 JUMPI PUSH1 0x40 MLOAD PUSH32 0x8C379A000000000000000000000000000000000000000000000000000000000 DUP2 MSTORE PUSH1 0x4 ADD PUSH2 0xDFF SWAP1 PUSH2 0x29E4 JUMP JUMPDEST PUSH1 0x40 MLOAD DUP1 SWAP2 SUB SWAP1 REVERT JUMPDEST POP JUMP JUMPDEST PUSH1 0x2 PUSH0 CALLER PUSH20 0xFFFFFFFFFFFFFFFFFFFFFFFFFFFFFFFFFFFFFFFF AND PUSH20 0xFFFFFFFFFFFFFFFFFFFFFFFFFFFFFFFFFFFFFFFF AND DUP2 MSTORE PUSH1 0x20 ADD SWAP1 DUP2 MSTORE PUSH1 0x20 ADD PUSH0 KECCAK256 PUSH0 ADD PUSH1 0x14 SWAP1 SLOAD SWAP1 PUSH2 0x100 EXP SWAP1 DIV PUSH1 0xFF AND PUSH2 0xE97 JUMPI PUSH1 0x40 MLOAD PUSH32 0x8C379A000000000000000000000000000000000000000000000000000000000 DUP2 MSTORE PUSH1 0x4 ADD PUSH2 0xE8E SWAP1 PUSH2 0x265C JUMP JUMPDEST PUSH1 0x40 MLOAD DUP1 SWAP2 SUB SWAP1 REVERT JUMPDEST PUSH0 PUSH1 0x3 PUSH0 DUP4 DUP2 MSTORE PUSH1 0x20 ADD SWAP1 DUP2 MSTORE PUSH1 0x20 ADD PUSH0 KECCAK256 PUSH0 SWAP1 SLOAD SWAP1 PUSH2 0x100 EXP SWAP1 DIV PUSH20 0xFFFFFFFFFFFFFFFFFFFFFFFFFFFFFFFFFFFFFFFF AND SWAP1 POP CALLER PUSH20 0xFFFFFFFFFFFFFFFFFFFFFFFFFFFFFFFFFFFFFFFF AND DUP2 PUSH20 0xFFFFFFFFFFFFFFFFFFFFFFFFFFFFFFFFFFFFFFFF AND EQ PUSH2 0xF39 JUMPI PUSH1 0x40 MLOAD PUSH32 0x8C379A000000000000000000000000000000000000000000000000000000000 DUP2 MSTORE PUSH1 0x4 ADD PUSH2 0xF30 SWAP1 PUSH2 0x2A4C JUMP JUMPDEST PUSH1 0x40 MLOAD DUP1 SWAP2 SUB SWAP1 REVERT JUMPDEST PUSH0 PUSH1 0x2 PUSH0 CALLER PUSH20 0xFFFFFFFFFFFFFFFFFFFFFFFFFFFFFFFFFFFFFFFF AND PUSH20 0xFFFFFFFFFFFFFFFFFFFFFFFFFFFFFFFFFFFFFFFF AND DUP2 MSTORE PUSH1 0x20 ADD SWAP1 DUP2 MSTORE PUSH1 0x20 ADD PUSH0 KECCAK256 PUSH1 0x1 ADD SWAP1 POP PUSH0 JUMPDEST DUP2 DUP1 SLOAD SWAP1 POP DUP2 LT ISZERO PUSH2 0x1232 JUMPI PUSH0 DUP3 DUP3 DUP2 SLOAD DUP2 LT PUSH2 0xF9E JUMPI PUSH2 0xF9D PUSH2 0x2756 JUMP JUMPDEST JUMPDEST SWAP1 PUSH0 MSTORE PUSH1 0x20 PUSH0 KECCAK256 SWAP1 PUSH1 0x6 MUL ADD SWAP1 POP DUP5 DUP2 PUSH1 0x2 ADD SLOAD SUB PUSH2 0x1224 JUMPI DUP1 PUSH1 0x5 ADD PUSH0 SWAP1 SLOAD SWAP1 PUSH2 0x100 EXP SWAP1 DIV PUSH1 0xFF AND ISZERO PUSH2 0x1008 JUMPI PUSH1 0x40 MLOAD PUSH32 0x8C379A000000000000000000000000000000000000000000000000000000000 DUP2 MSTORE PUSH1 0x4 ADD PUSH2 0xFFF SWAP1 PUSH2 0x2AB4 JUMP JUMPDEST PUSH1 0x40 MLOAD DUP1 SWAP2 SUB SWAP1 REVERT JUMPDEST PUSH0 PUSH3 0x15180 DUP3 PUSH1 0x3 ADD SLOAD TIMESTAMP PUSH2 0x101D SWAP2 SWAP1 PUSH2 0x2AD2 JUMP JUMPDEST PUSH2 0x1027 SWAP2 SWAP1 PUSH2 0x27F1 JUMP JUMPDEST SWAP1 POP PUSH0 DUP3 PUSH1 0x4 ADD SLOAD DUP3 LT PUSH2 0x106D JUMPI PUSH1 0x64 PUSH1 0xA PUSH0 DUP6 PUSH1 0x4 ADD SLOAD DUP2 MSTORE PUSH1 0x20 ADD SWAP1 DUP2 MSTORE PUSH1 0x20 ADD PUSH0 KECCAK256 SLOAD DUP5 PUSH1 0x1 ADD SLOAD PUSH2 0x105C SWAP2 SWAP1 PUSH2 0x2783 JUMP JUMPDEST PUSH2 0x1066 SWAP2 SWAP1 PUSH2 0x27F1 JUMP JUMPDEST SWAP1 POP PUSH2 0x10BA JUMP JUMPDEST PUSH1 0x14 DUP3 LT ISZERO PUSH2 0x107E JUMPI PUSH0 SWAP1 POP PUSH2 0x10B9 JUMP JUMPDEST PUSH1 0x40 MLOAD PUSH32 0x8C379A000000000000000000000000000000000000000000000000000000000 DUP2 MSTORE PUSH1 0x4 ADD PUSH2 0x10B0 SWAP1 PUSH2 0x2B75 JUMP JUMPDEST PUSH1 0x40 MLOAD DUP1 SWAP2 SUB SWAP1 REVERT JUMPDEST JUMPDEST PUSH1 0x1 DUP4 PUSH1 0x5 ADD PUSH0 PUSH2 0x100 EXP DUP2 SLOAD DUP2 PUSH1 0xFF MUL NOT AND SWAP1 DUP4 ISZERO ISZERO MUL OR SWAP1 SSTORE POP PUSH1 0x1 PUSH0 SWAP1 SLOAD SWAP1 PUSH2 0x100 EXP SWAP1 DIV PUSH20 0xFFFFFFFFFFFFFFFFFFFFFFFFFFFFFFFFFFFFFFFF AND PUSH20 0xFFFFFFFFFFFFFFFFFFFFFFFFFFFFFFFFFFFFFFFF AND PUSH4 0xA9059CBB CALLER DUP4 DUP7 PUSH1 0x1 ADD SLOAD PUSH2 0x1124 SWAP2 SWAP1 PUSH2 0x2B93 JUMP JUMPDEST PUSH1 0x40 MLOAD DUP4 PUSH4 0xFFFFFFFF AND PUSH1 0xE0 SHL DUP2 MSTORE PUSH1 0x4 ADD PUSH2 0x1141 SWAP3 SWAP2 SWAP1 PUSH2 0x291E JUMP JUMPDEST PUSH1 0x20 PUSH1 0x40 MLOAD DUP1 DUP4 SUB DUP2 PUSH0 DUP8 GAS CALL ISZERO DUP1 ISZERO PUSH2 0x115D JUMPI RETURNDATASIZE PUSH0 DUP1 RETURNDATACOPY RETURNDATASIZE PUSH0 REVERT JUMPDEST POP POP POP POP PUSH1 0x40 MLOAD RETURNDATASIZE PUSH1 0x1F NOT PUSH1 0x1F DUP3 ADD AND DUP3 ADD DUP1 PUSH1 0x40 MSTORE POP DUP2 ADD SWAP1 PUSH2 0x1181 SWAP2 SWAP1 PUSH2 0x296F JUMP JUMPDEST PUSH2 0x11C0 JUMPI PUSH1 0x40 MLOAD PUSH32 0x8C379A000000000000000000000000000000000000000000000000000000000 DUP2 MSTORE PUSH1 0x4 ADD PUSH2 0x11B7 SWAP1 PUSH2 0x2C10 JUMP JUMPDEST PUSH1 0x40 MLOAD DUP1 SWAP2 SUB SWAP1 REVERT JUMPDEST DUP3 PUSH1 0x2 ADD SLOAD CALLER PUSH20 0xFFFFFFFFFFFFFFFFFFFFFFFFFFFFFFFFFFFFFFFF AND PUSH32 0x9CDCF2F7714CCA3508C7F0110B04A90A80A3A8DD0E35DE99689DB74D28C5383E DUP6 PUSH1 0x1 ADD SLOAD DUP5 PUSH1 0x40 MLOAD PUSH2 0x1211 SWAP3 SWAP2 SWAP1 PUSH2 0x2C2E JUMP JUMPDEST PUSH1 0x40 MLOAD DUP1 SWAP2 SUB SWAP1 LOG3 POP POP POP POP POP POP PUSH2 0x126E JUMP JUMPDEST POP DUP1 DUP1 PUSH1 0x1 ADD SWAP2 POP POP PUSH2 0xF7E JUMP JUMPDEST POP PUSH1 0x40 MLOAD PUSH32 0x8C379A000000000000000000000000000000000000000000000000000000000 DUP2 MSTORE PUSH1 0x4 ADD PUSH2 0x1265 SWAP1 PUSH2 0x2CC5 JUMP JUMPDEST PUSH1 0x40 MLOAD DUP1 SWAP2 SUB SWAP1 REVERT JUMPDEST POP JUMP JUMPDEST PUSH1 0x2 PUSH0 CALLER PUSH20 0xFFFFFFFFFFFFFFFFFFFFFFFFFFFFFFFFFFFFFFFF AND PUSH20 0xFFFFFFFFFFFFFFFFFFFFFFFFFFFFFFFFFFFFFFFF AND DUP2 MSTORE PUSH1 0x20 ADD SWAP1 DUP2 MSTORE PUSH1 0x20 ADD PUSH0 KECCAK256 PUSH0 ADD PUSH1 0x14 SWAP1 SLOAD SWAP1 PUSH2 0x100 EXP SWAP1 DIV PUSH1 0xFF AND ISZERO PUSH2 0x12FE JUMPI PUSH1 0x40 MLOAD PUSH32 0x8C379A000000000000000000000000000000000000000000000000000000000 DUP2 MSTORE PUSH1 0x4 ADD PUSH2 0x12F5 SWAP1 PUSH2 0x2D2D JUMP JUMPDEST PUSH1 0x40 MLOAD DUP1 SWAP2 SUB SWAP1 REVERT JUMPDEST CALLER PUSH20 0xFFFFFFFFFFFFFFFFFFFFFFFFFFFFFFFFFFFFFFFF AND DUP2 PUSH20 0xFFFFFFFFFFFFFFFFFFFFFFFFFFFFFFFFFFFFFFFF AND SUB PUSH2 0x136C JUMPI PUSH1 0x40 MLOAD PUSH32 0x8C379A000000000000000000000000000000000000000000000000000000000 DUP2 MSTORE PUSH1 0x4 ADD PUSH2 0x1363 SWAP1 PUSH2 0x2D95 JUMP JUMPDEST PUSH1 0x40 MLOAD DUP1 SWAP2 SUB SWAP1 REVERT JUMPDEST PUSH1 0x2 PUSH0 DUP3 PUSH20 0xFFFFFFFFFFFFFFFFFFFFFFFFFFFFFFFFFFFFFFFF AND PUSH20 0xFFFFFFFFFFFFFFFFFFFFFFFFFFFFFFFFFFFFFFFF AND DUP2 MSTORE PUSH1 0x20 ADD SWAP1 DUP2 MSTORE PUSH1 0x20 ADD PUSH0 KECCAK256 PUSH0 ADD PUSH1 0x14 SWAP1 SLOAD SWAP1 PUSH2 0x100 EXP SWAP1 DIV PUSH1 0xFF AND PUSH2 0x13F8 JUMPI PUSH1 0x40 MLOAD PUSH32 0x8C379A000000000000000000000000000000000000000000000000000000000 DUP2 MSTORE PUSH1 0x4 ADD PUSH2 0x13EF SWAP1 PUSH2 0x2DFD JUMP JUMPDEST PUSH1 0x40 MLOAD DUP1 SWAP2 SUB SWAP1 REVERT JUMPDEST DUP1 PUSH1 0x2 PUSH0 CALLER PUSH20 0xFFFFFFFFFFFFFFFFFFFFFFFFFFFFFFFFFFFFFFFF AND PUSH20 0xFFFFFFFFFFFFFFFFFFFFFFFFFFFFFFFFFFFFFFFF AND DUP2 MSTORE PUSH1 0x20 ADD SWAP1 DUP2 MSTORE PUSH1 0x20 ADD PUSH0 KECCAK256 PUSH0 ADD PUSH0 PUSH2 0x100 EXP DUP2 SLOAD DUP2 PUSH20 0xFFFFFFFFFFFFFFFFFFFFFFFFFFFFFFFFFFFFFFFF MUL NOT AND SWAP1 DUP4 PUSH20 0xFFFFFFFFFFFFFFFFFFFFFFFFFFFFFFFFFFFFFFFF AND MUL OR SWAP1 SSTORE POP PUSH1 0x1 PUSH1 0x2 PUSH0 CALLER PUSH20 0xFFFFFFFFFFFFFFFFFFFFFFFFFFFFFFFFFFFFFFFF AND PUSH20 0xFFFFFFFFFFFFFFFFFFFFFFFFFFFFFFFFFFFFFFFF AND DUP2 MSTORE PUSH1 0x20 ADD SWAP1 DUP2 MSTORE PUSH1 0x20 ADD PUSH0 KECCAK256 PUSH0 ADD PUSH1 0x14 PUSH2 0x100 EXP DUP2 SLOAD DUP2 PUSH1 0xFF MUL NOT AND SWAP1 DUP4 ISZERO ISZERO MUL OR SWAP1 SSTORE POP PUSH1 0x7 PUSH0 DUP3 PUSH20 0xFFFFFFFFFFFFFFFFFFFFFFFFFFFFFFFFFFFFFFFF AND PUSH20 0xFFFFFFFFFFFFFFFFFFFFFFFFFFFFFFFFFFFFFFFF AND DUP2 MSTORE PUSH1 0x20 ADD SWAP1 DUP2 MSTORE PUSH1 0x20 ADD PUSH0 KECCAK256 PUSH0 DUP2 SLOAD DUP1 SWAP3 SWAP2 SWAP1 PUSH2 0x151A SWAP1 PUSH2 0x26A7 JUMP JUMPDEST SWAP2 SWAP1 POP SSTORE POP DUP1 PUSH20 0xFFFFFFFFFFFFFFFFFFFFFFFFFFFFFFFFFFFFFFFF AND CALLER PUSH20 0xFFFFFFFFFFFFFFFFFFFFFFFFFFFFFFFFFFFFFFFF AND PUSH32 0xA31EE9D46A828884B81003C8498156EA6AA15B9B54BDD0EF0B533D9EBA57E55 PUSH1 0x40 MLOAD PUSH1 0x40 MLOAD DUP1 SWAP2 SUB SWAP1 LOG3 POP JUMP JUMPDEST PUSH1 0x5 SLOAD DUP2 JUMP JUMPDEST PUSH0 DUP1 PUSH0 DUP1 PUSH0 DUP1 PUSH0 PUSH1 0x3 PUSH0 DUP10 DUP2 MSTORE PUSH1 0x20 ADD SWAP1 DUP2 MSTORE PUSH1 0x20 ADD PUSH0 KECCAK256 PUSH0 SWAP1 SLOAD SWAP1 PUSH2 0x100 EXP SWAP1 DIV PUSH20 0xFFFFFFFFFFFFFFFFFFFFFFFFFFFFFFFFFFFFFFFF AND SWAP1 POP PUSH0 PUSH20 0xFFFFFFFFFFFFFFFFFFFFFFFFFFFFFFFFFFFFFFFF AND DUP2 PUSH20 0xFFFFFFFFFFFFFFFFFFFFFFFFFFFFFFFFFFFFFFFF AND SUB PUSH2 0x162A JUMPI PUSH1 0x40 MLOAD PUSH32 0x8C379A000000000000000000000000000000000000000000000000000000000 DUP2 MSTORE PUSH1 0x4 ADD PUSH2 0x1621 SWAP1 PUSH2 0x2738 JUMP JUMPDEST PUSH1 0x40 MLOAD DUP1 SWAP2 SUB SWAP1 REVERT JUMPDEST PUSH0 PUSH1 0x2 PUSH0 DUP4 PUSH20 0xFFFFFFFFFFFFFFFFFFFFFFFFFFFFFFFFFFFFFFFF AND PUSH20 0xFFFFFFFFFFFFFFFFFFFFFFFFFFFFFFFFFFFFFFFF AND DUP2 MSTORE PUSH1 0x20 ADD SWAP1 DUP2 MSTORE PUSH1 0x20 ADD PUSH0 KECCAK256 PUSH1 0x1 ADD DUP1 SLOAD DUP1 PUSH1 0x20 MUL PUSH1 0x20 ADD PUSH1 0x40 MLOAD SWAP1 DUP2 ADD PUSH1 0x40 MSTORE DUP1 SWAP3 SWAP2 SWAP1 DUP2 DUP2 MSTORE PUSH1 0x20 ADD PUSH0 SWAP1 JUMPDEST DUP3 DUP3 LT ISZERO PUSH2 0x1705 JUMPI DUP4 DUP3 SWAP1 PUSH0 MSTORE PUSH1 0x20 PUSH0 KECCAK256 SWAP1 PUSH1 0x6 MUL ADD PUSH1 0x40 MLOAD DUP1 PUSH1 0xC0 ADD PUSH1 0x40 MSTORE SWAP1 DUP2 PUSH0 DUP3 ADD SLOAD DUP2 MSTORE PUSH1 0x20 ADD PUSH1 0x1 DUP3 ADD SLOAD DUP2 MSTORE PUSH1 0x20 ADD PUSH1 0x2 DUP3 ADD SLOAD DUP2 MSTORE PUSH1 0x20 ADD PUSH1 0x3 DUP3 ADD SLOAD DUP2 MSTORE PUSH1 0x20 ADD PUSH1 0x4 DUP3 ADD SLOAD DUP2 MSTORE PUSH1 0x20 ADD PUSH1 0x5 DUP3 ADD PUSH0 SWAP1 SLOAD SWAP1 PUSH2 0x100 EXP SWAP1 DIV PUSH1 0xFF AND ISZERO ISZERO ISZERO ISZERO DUP2 MSTORE POP POP DUP2 MSTORE PUSH1 0x20 ADD SWAP1 PUSH1 0x1 ADD SWAP1 PUSH2 0x168A JUMP JUMPDEST POP POP POP POP SWAP1 POP PUSH0 JUMPDEST DUP2 MLOAD DUP2 LT ISZERO PUSH2 0x17F7 JUMPI DUP10 DUP3 DUP3 DUP2 MLOAD DUP2 LT PUSH2 0x172A JUMPI PUSH2 0x1729 PUSH2 0x2756 JUMP JUMPDEST JUMPDEST PUSH1 0x20 MUL PUSH1 0x20 ADD ADD MLOAD PUSH1 0x40 ADD MLOAD SUB PUSH2 0x17EA JUMPI DUP3 DUP3 DUP3 DUP2 MLOAD DUP2 LT PUSH2 0x174F JUMPI PUSH2 0x174E PUSH2 0x2756 JUMP JUMPDEST JUMPDEST PUSH1 0x20 MUL PUSH1 0x20 ADD ADD MLOAD PUSH0 ADD MLOAD DUP4 DUP4 DUP2 MLOAD DUP2 LT PUSH2 0x176D JUMPI PUSH2 0x176C PUSH2 0x2756 JUMP JUMPDEST JUMPDEST PUSH1 0x20 MUL PUSH1 0x20 ADD ADD MLOAD PUSH1 0x20 ADD MLOAD DUP5 DUP5 DUP2 MLOAD DUP2 LT PUSH2 0x178C JUMPI PUSH2 0x178B PUSH2 0x2756 JUMP JUMPDEST JUMPDEST PUSH1 0x20 MUL PUSH1 0x20 ADD ADD MLOAD PUSH1 0x60 ADD MLOAD DUP6 DUP6 DUP2 MLOAD DUP2 LT PUSH2 0x17AB JUMPI PUSH2 0x17AA PUSH2 0x2756 JUMP JUMPDEST JUMPDEST PUSH1 0x20 MUL PUSH1 0x20 ADD ADD MLOAD PUSH1 0x80 ADD MLOAD DUP7 DUP7 DUP2 MLOAD DUP2 LT PUSH2 0x17CA JUMPI PUSH2 0x17C9 PUSH2 0x2756 JUMP JUMPDEST JUMPDEST PUSH1 0x20 MUL PUSH1 0x20 ADD ADD MLOAD PUSH1 0xA0 ADD MLOAD SWAP9 POP SWAP9 POP SWAP9 POP SWAP9 POP SWAP9 POP SWAP9 POP POP POP POP PUSH2 0x1833 JUMP JUMPDEST DUP1 DUP1 PUSH1 0x1 ADD SWAP2 POP POP PUSH2 0x170D JUMP JUMPDEST POP PUSH1 0x40 MLOAD PUSH32 0x8C379A000000000000000000000000000000000000000000000000000000000 DUP2 MSTORE PUSH1 0x4 ADD PUSH2 0x182A SWAP1 PUSH2 0x286B JUMP JUMPDEST PUSH1 0x40 MLOAD DUP1 SWAP2 SUB SWAP1 REVERT JUMPDEST SWAP2 SWAP4 SWAP6 POP SWAP2 SWAP4 SWAP6 JUMP JUMPDEST PUSH1 0x2 PUSH0 CALLER PUSH20 0xFFFFFFFFFFFFFFFFFFFFFFFFFFFFFFFFFFFFFFFF AND PUSH20 0xFFFFFFFFFFFFFFFFFFFFFFFFFFFFFFFFFFFFFFFF AND DUP2 MSTORE PUSH1 0x20 ADD SWAP1 DUP2 MSTORE PUSH1 0x20 ADD PUSH0 KECCAK256 PUSH0 ADD PUSH1 0x14 SWAP1 SLOAD SWAP1 PUSH2 0x100 EXP SWAP1 DIV PUSH1 0xFF AND PUSH2 0x18C8 JUMPI PUSH1 0x40 MLOAD PUSH32 0x8C379A000000000000000000000000000000000000000000000000000000000 DUP2 MSTORE PUSH1 0x4 ADD PUSH2 0x18BF SWAP1 PUSH2 0x265C JUMP JUMPDEST PUSH1 0x40 MLOAD DUP1 SWAP2 SUB SWAP1 REVERT JUMPDEST PUSH0 DUP2 GT PUSH2 0x190A JUMPI PUSH1 0x40 MLOAD PUSH32 0x8C379A000000000000000000000000000000000000000000000000000000000 DUP2 MSTORE PUSH1 0x4 ADD PUSH2 0x1901 SWAP1 PUSH2 0x2E65 JUMP JUMPDEST PUSH1 0x40 MLOAD DUP1 SWAP2 SUB SWAP1 REVERT JUMPDEST PUSH0 PUSH1 0xA PUSH0 DUP5 DUP2 MSTORE PUSH1 0x20 ADD SWAP1 DUP2 MSTORE PUSH1 0x20 ADD PUSH0 KECCAK256 SLOAD GT PUSH2 0x195D JUMPI PUSH1 0x40 MLOAD PUSH32 0x8C379A000000000000000000000000000000000000000000000000000000000 DUP2 MSTORE PUSH1 0x4 ADD PUSH2 0x1954 SWAP1 PUSH2 0x2ECD JUMP JUMPDEST PUSH1 0x40 MLOAD DUP1 SWAP2 SUB SWAP1 REVERT JUMPDEST PUSH1 0x1 PUSH0 SWAP1 SLOAD SWAP1 PUSH2 0x100 EXP SWAP1 DIV PUSH20 0xFFFFFFFFFFFFFFFFFFFFFFFFFFFFFFFFFFFFFFFF AND PUSH20 0xFFFFFFFFFFFFFFFFFFFFFFFFFFFFFFFFFFFFFFFF AND PUSH4 0x23B872DD CALLER ADDRESS DUP5 PUSH1 0x40 MLOAD DUP5 PUSH4 0xFFFFFFFF AND PUSH1 0xE0 SHL DUP2 MSTORE PUSH1 0x4 ADD PUSH2 0x19BB SWAP4 SWAP3 SWAP2 SWAP1 PUSH2 0x2EEB JUMP JUMPDEST PUSH1 0x20 PUSH1 0x40 MLOAD DUP1 DUP4 SUB DUP2 PUSH0 DUP8 GAS CALL ISZERO DUP1 ISZERO PUSH2 0x19D7 JUMPI RETURNDATASIZE PUSH0 DUP1 RETURNDATACOPY RETURNDATASIZE PUSH0 REVERT JUMPDEST POP POP POP POP PUSH1 0x40 MLOAD RETURNDATASIZE PUSH1 0x1F NOT PUSH1 0x1F DUP3 ADD AND DUP3 ADD DUP1 PUSH1 0x40 MSTORE POP DUP2 ADD SWAP1 PUSH2 0x19FB SWAP2 SWAP1 PUSH2 0x296F JUMP JUMPDEST PUSH2 0x1A3A JUMPI PUSH1 0x40 MLOAD PUSH32 0x8C379A000000000000000000000000000000000000000000000000000000000 DUP2 MSTORE PUSH1 0x4 ADD PUSH2 0x1A31 SWAP1 PUSH2 0x2C10 JUMP JUMPDEST PUSH1 0x40 MLOAD DUP1 SWAP2 SUB SWAP1 REVERT JUMPDEST PUSH0 PUSH1 0x5 PUSH0 DUP2 SLOAD DUP1 SWAP3 SWAP2 SWAP1 PUSH2 0x1A4D SWAP1 PUSH2 0x26A7 JUMP JUMPDEST SWAP2 SWAP1 POP SSTORE SWAP1 POP PUSH0 PUSH1 0x6 PUSH0 DUP2 SLOAD DUP1 SWAP3 SWAP2 SWAP1 PUSH2 0x1A66 SWAP1 PUSH2 0x26A7 JUMP JUMPDEST SWAP2 SWAP1 POP SSTORE SWAP1 POP PUSH0 TIMESTAMP SWAP1 POP PUSH1 0x2 PUSH0 CALLER PUSH20 0xFFFFFFFFFFFFFFFFFFFFFFFFFFFFFFFFFFFFFFFF AND PUSH20 0xFFFFFFFFFFFFFFFFFFFFFFFFFFFFFFFFFFFFFFFF AND DUP2 MSTORE PUSH1 0x20 ADD SWAP1 DUP2 MSTORE PUSH1 0x20 ADD PUSH0 KECCAK256 PUSH1 0x1 ADD PUSH1 0x40 MLOAD DUP1 PUSH1 0xC0 ADD PUSH1 0x40 MSTORE DUP1 DUP6 DUP2 MSTORE PUSH1 0x20 ADD DUP7 DUP2 MSTORE PUSH1 0x20 ADD DUP5 DUP2 MSTORE PUSH1 0x20 ADD DUP4 DUP2 MSTORE PUSH1 0x20 ADD DUP8 DUP2 MSTORE PUSH1 0x20 ADD PUSH0 ISZERO ISZERO DUP2 MSTORE POP SWAP1 DUP1 PUSH1 0x1 DUP2 SLOAD ADD DUP1 DUP3 SSTORE DUP1 SWAP2 POP POP PUSH1 0x1 SWAP1 SUB SWAP1 PUSH0 MSTORE PUSH1 0x20 PUSH0 KECCAK256 SWAP1 PUSH1 0x6 MUL ADD PUSH0 SWAP1 SWAP2 SWAP1 SWAP2 SWAP1 SWAP2 POP PUSH0 DUP3 ADD MLOAD DUP2 PUSH0 ADD SSTORE PUSH1 0x20 DUP3 ADD MLOAD DUP2 PUSH1 0x1 ADD SSTORE PUSH1 0x40 DUP3 ADD MLOAD DUP2 PUSH1 0x2 ADD SSTORE PUSH1 0x60 DUP3 ADD MLOAD DUP2 PUSH1 0x3 ADD SSTORE PUSH1 0x80 DUP3 ADD MLOAD DUP2 PUSH1 0x4 ADD SSTORE PUSH1 0xA0 DUP3 ADD MLOAD DUP2 PUSH1 0x5 ADD PUSH0 PUSH2 0x100 EXP DUP2 SLOAD DUP2 PUSH1 0xFF MUL NOT AND SWAP1 DUP4 ISZERO ISZERO MUL OR SWAP1 SSTORE POP POP POP CALLER PUSH1 0x3 PUSH0 DUP5 DUP2 MSTORE PUSH1 0x20 ADD SWAP1 DUP2 MSTORE PUSH1 0x20 ADD PUSH0 KECCAK256 PUSH0 PUSH2 0x100 EXP DUP2 SLOAD DUP2 PUSH20 0xFFFFFFFFFFFFFFFFFFFFFFFFFFFFFFFFFFFFFFFF MUL NOT AND SWAP1 DUP4 PUSH20 0xFFFFFFFFFFFFFFFFFFFFFFFFFFFFFFFFFFFFFFFF AND MUL OR SWAP1 SSTORE POP PUSH0 PUSH1 0x2 PUSH0 CALLER PUSH20 0xFFFFFFFFFFFFFFFFFFFFFFFFFFFFFFFFFFFFFFFF AND PUSH20 0xFFFFFFFFFFFFFFFFFFFFFFFFFFFFFFFFFFFFFFFF AND DUP2 MSTORE PUSH1 0x20 ADD SWAP1 DUP2 MSTORE PUSH1 0x20 ADD PUSH0 KECCAK256 PUSH0 ADD PUSH0 SWAP1 SLOAD SWAP1 PUSH2 0x100 EXP SWAP1 DIV PUSH20 0xFFFFFFFFFFFFFFFFFFFFFFFFFFFFFFFFFFFFFFFF AND SWAP1 POP PUSH0 JUMPDEST PUSH1 0x5 DUP2 PUSH1 0xFF AND LT ISZERO PUSH2 0x1E94 JUMPI PUSH0 PUSH20 0xFFFFFFFFFFFFFFFFFFFFFFFFFFFFFFFFFFFFFFFF AND DUP3 PUSH20 0xFFFFFFFFFFFFFFFFFFFFFFFFFFFFFFFFFFFFFFFF AND SUB ISZERO PUSH2 0x1E94 JUMPI PUSH0 PUSH1 0x64 PUSH1 0x4 DUP4 PUSH1 0xFF AND PUSH1 0x5 DUP2 LT PUSH2 0x1C63 JUMPI PUSH2 0x1C62 PUSH2 0x2756 JUMP JUMPDEST JUMPDEST PUSH1 0x20 SWAP2 DUP3 DUP3 DIV ADD SWAP2 SWAP1 MOD SWAP1 SLOAD SWAP1 PUSH2 0x100 EXP SWAP1 DIV PUSH1 0xFF AND PUSH1 0xFF AND DUP9 PUSH2 0x1C87 SWAP2 SWAP1 PUSH2 0x2783 JUMP JUMPDEST PUSH2 0x1C91 SWAP2 SWAP1 PUSH2 0x27F1 JUMP JUMPDEST SWAP1 POP PUSH1 0x1 PUSH0 SWAP1 SLOAD SWAP1 PUSH2 0x100 EXP SWAP1 DIV PUSH20 0xFFFFFFFFFFFFFFFFFFFFFFFFFFFFFFFFFFFFFFFF AND PUSH20 0xFFFFFFFFFFFFFFFFFFFFFFFFFFFFFFFFFFFFFFFF AND PUSH4 0xA9059CBB DUP5 DUP4 PUSH1 0x40 MLOAD DUP4 PUSH4 0xFFFFFFFF AND PUSH1 0xE0 SHL DUP2 MSTORE PUSH1 0x4 ADD PUSH2 0x1CEF SWAP3 SWAP2 SWAP1 PUSH2 0x291E JUMP JUMPDEST PUSH1 0x20 PUSH1 0x40 MLOAD DUP1 DUP4 SUB DUP2 PUSH0 DUP8 GAS CALL ISZERO DUP1 ISZERO PUSH2 0x1D0B JUMPI RETURNDATASIZE PUSH0 DUP1 RETURNDATACOPY RETURNDATASIZE PUSH0 REVERT JUMPDEST POP POP POP POP PUSH1 0x40 MLOAD RETURNDATASIZE PUSH1 0x1F NOT PUSH1 0x1F DUP3 ADD AND DUP3 ADD DUP1 PUSH1 0x40 MSTORE POP DUP2 ADD SWAP1 PUSH2 0x1D2F SWAP2 SWAP1 PUSH2 0x296F JUMP JUMPDEST PUSH2 0x1D6E JUMPI PUSH1 0x40 MLOAD PUSH32 0x8C379A000000000000000000000000000000000000000000000000000000000 DUP2 MSTORE PUSH1 0x4 ADD PUSH2 0x1D65 SWAP1 PUSH2 0x2F6A JUMP JUMPDEST PUSH1 0x40 MLOAD DUP1 SWAP2 SUB SWAP1 REVERT JUMPDEST DUP1 PUSH1 0x9 PUSH0 DUP6 PUSH20 0xFFFFFFFFFFFFFFFFFFFFFFFFFFFFFFFFFFFFFFFF AND PUSH20 0xFFFFFFFFFFFFFFFFFFFFFFFFFFFFFFFFFFFFFFFF AND DUP2 MSTORE PUSH1 0x20 ADD SWAP1 DUP2 MSTORE PUSH1 0x20 ADD PUSH0 KECCAK256 PUSH0 DUP3 DUP3 SLOAD PUSH2 0x1DBA SWAP2 SWAP1 PUSH2 0x2B93 JUMP JUMPDEST SWAP3 POP POP DUP2 SWAP1 SSTORE POP PUSH0 DUP3 PUSH1 0xFF AND SUB PUSH2 0x1E1F JUMPI DUP1 PUSH1 0x8 PUSH0 DUP6 PUSH20 0xFFFFFFFFFFFFFFFFFFFFFFFFFFFFFFFFFFFFFFFF AND PUSH20 0xFFFFFFFFFFFFFFFFFFFFFFFFFFFFFFFFFFFFFFFF AND DUP2 MSTORE PUSH1 0x20 ADD SWAP1 DUP2 MSTORE PUSH1 0x20 ADD PUSH0 KECCAK256 PUSH0 DUP3 DUP3 SLOAD PUSH2 0x1E17 SWAP2 SWAP1 PUSH2 0x2B93 JUMP JUMPDEST SWAP3 POP POP DUP2 SWAP1 SSTORE POP JUMPDEST PUSH1 0x2 PUSH0 DUP5 PUSH20 0xFFFFFFFFFFFFFFFFFFFFFFFFFFFFFFFFFFFFFFFF AND PUSH20 0xFFFFFFFFFFFFFFFFFFFFFFFFFFFFFFFFFFFFFFFF AND DUP2 MSTORE PUSH1 0x20 ADD SWAP1 DUP2 MSTORE PUSH1 0x20 ADD PUSH0 KECCAK256 PUSH0 ADD PUSH0 SWAP1 SLOAD SWAP1 PUSH2 0x100 EXP SWAP1 DIV PUSH20 0xFFFFFFFFFFFFFFFFFFFFFFFFFFFFFFFFFFFFFFFF AND SWAP3 POP POP DUP1 DUP1 PUSH2 0x1E8C SWAP1 PUSH2 0x2F88 JUMP JUMPDEST SWAP2 POP POP PUSH2 0x1C09 JUMP JUMPDEST POP DUP3 DUP5 CALLER PUSH20 0xFFFFFFFFFFFFFFFFFFFFFFFFFFFFFFFFFFFFFFFF AND PUSH32 0x9CFD25589D1EB8AD71E342A86A8524E83522E3936C0803048C08F6D9AD974F40 DUP9 DUP7 PUSH1 0x40 MLOAD PUSH2 0x1EDF SWAP3 SWAP2 SWAP1 PUSH2 0x2C2E JUMP JUMPDEST PUSH1 0x40 MLOAD DUP1 SWAP2 SUB SWAP1 LOG4 POP POP POP POP POP POP JUMP JUMPDEST PUSH1 0x9 PUSH1 0x20 MSTORE DUP1 PUSH0 MSTORE PUSH1 0x40 PUSH0 KECCAK256 PUSH0 SWAP2 POP SWAP1 POP SLOAD DUP2 JUMP JUMPDEST PUSH1 0xA PUSH1 0x20 MSTORE DUP1 PUSH0 MSTORE PUSH1 0x40 PUSH0 KECCAK256 PUSH0 SWAP2 POP SWAP1 POP SLOAD DUP2 JUMP JUMPDEST PUSH1 0x6 SLOAD DUP2 JUMP JUMPDEST PUSH0 DUP1 SLOAD SWAP1 PUSH2 0x100 EXP SWAP1 DIV PUSH20 0xFFFFFFFFFFFFFFFFFFFFFFFFFFFFFFFFFFFFFFFF AND DUP2 JUMP JUMPDEST PUSH0 PUSH1 0x7 PUSH0 DUP4 PUSH20 0xFFFFFFFFFFFFFFFFFFFFFFFFFFFFFFFFFFFFFFFF AND PUSH20 0xFFFFFFFFFFFFFFFFFFFFFFFFFFFFFFFFFFFFFFFF AND DUP2 MSTORE PUSH1 0x20 ADD SWAP1 DUP2 MSTORE PUSH1 0x20 ADD PUSH0 KECCAK256 SLOAD SWAP1 POP SWAP2 SWAP1 POP JUMP JUMPDEST PUSH1 0x2 PUSH1 0x20 MSTORE DUP1 PUSH0 MSTORE PUSH1 0x40 PUSH0 KECCAK256 PUSH0 SWAP2 POP SWAP1 POP DUP1 PUSH0 ADD PUSH0 SWAP1 SLOAD SWAP1 PUSH2 0x100 EXP SWAP1 DIV PUSH20 0xFFFFFFFFFFFFFFFFFFFFFFFFFFFFFFFFFFFFFFFF AND SWAP1 DUP1 PUSH0 ADD PUSH1 0x14 SWAP1 SLOAD SWAP1 PUSH2 0x100 EXP SWAP1 DIV PUSH1 0xFF AND SWAP1 POP DUP3 JUMP JUMPDEST PUSH0 PUSH1 0x8 PUSH0 DUP4 PUSH20 0xFFFFFFFFFFFFFFFFFFFFFFFFFFFFFFFFFFFFFFFF AND PUSH20 0xFFFFFFFFFFFFFFFFFFFFFFFFFFFFFFFFFFFFFFFF AND DUP2 MSTORE PUSH1 0x20 ADD SWAP1 DUP2 MSTORE PUSH1 0x20 ADD PUSH0 KECCAK256 SLOAD SWAP1 POP SWAP2 SWAP1 POP JUMP JUMPDEST PUSH1 0x7 PUSH1 0x20 MSTORE DUP1 PUSH0 MSTORE PUSH1 0x40 PUSH0 KECCAK256 PUSH0 SWAP2 POP SWAP1 POP SLOAD DUP2 JUMP JUMPDEST PUSH0 DUP1 DUP4 GT PUSH2 0x2071 JUMPI PUSH1 0x40 MLOAD PUSH32 0x8C379A000000000000000000000000000000000000000000000000000000000 DUP2 MSTORE PUSH1 0x4 ADD PUSH2 0x2068 SWAP1 PUSH2 0x2E65 JUMP JUMPDEST PUSH1 0x40 MLOAD DUP1 SWAP2 SUB SWAP1 REVERT JUMPDEST PUSH0 PUSH1 0xA PUSH0 DUP5 DUP2 MSTORE PUSH1 0x20 ADD SWAP1 DUP2 MSTORE PUSH1 0x20 ADD PUSH0 KECCAK256 SLOAD GT PUSH2 0x20C4 JUMPI PUSH1 0x40 MLOAD PUSH32 0x8C379A000000000000000000000000000000000000000000000000000000000 DUP2 MSTORE PUSH1 0x4 ADD PUSH2 0x20BB SWAP1 PUSH2 0x2ECD JUMP JUMPDEST PUSH1 0x40 MLOAD DUP1 SWAP2 SUB SWAP1 REVERT JUMPDEST PUSH0 PUSH1 0xA PUSH0 DUP5 DUP2 MSTORE PUSH1 0x20 ADD SWAP1 DUP2 MSTORE PUSH1 0x20 ADD PUSH0 KECCAK256 SLOAD SWAP1 POP PUSH2 0x8E94 DUP4 DUP3 DUP7 PUSH2 0x20E9 SWAP2 SWAP1 PUSH2 0x2783 JUMP JUMPDEST PUSH2 0x20F3 SWAP2 SWAP1 PUSH2 0x2783 JUMP JUMPDEST PUSH2 0x20FD SWAP2 SWAP1 PUSH2 0x27F1 JUMP JUMPDEST SWAP2 POP POP SWAP3 SWAP2 POP POP JUMP JUMPDEST PUSH0 PUSH1 0x9 PUSH0 DUP4 PUSH20 0xFFFFFFFFFFFFFFFFFFFFFFFFFFFFFFFFFFFFFFFF AND PUSH20 0xFFFFFFFFFFFFFFFFFFFFFFFFFFFFFFFFFFFFFFFF AND DUP2 MSTORE PUSH1 0x20 ADD SWAP1 DUP2 MSTORE PUSH1 0x20 ADD PUSH0 KECCAK256 SLOAD SWAP1 POP SWAP2 SWAP1 POP JUMP JUMPDEST PUSH0 PUSH1 0x2 PUSH0 DUP4 PUSH20 0xFFFFFFFFFFFFFFFFFFFFFFFFFFFFFFFFFFFFFFFF AND PUSH20 0xFFFFFFFFFFFFFFFFFFFFFFFFFFFFFFFFFFFFFFFF AND DUP2 MSTORE PUSH1 0x20 ADD SWAP1 DUP2 MSTORE PUSH1 0x20 ADD PUSH0 KECCAK256 PUSH0 ADD PUSH1 0x14 SWAP1 SLOAD SWAP1 PUSH2 0x100 EXP SWAP1 DIV PUSH1 0xFF AND SWAP1 POP SWAP2 SWAP1 POP JUMP JUMPDEST PUSH1 0x4 DUP2 PUSH1 0x5 DUP2 LT PUSH2 0x21B0 JUMPI PUSH0 DUP1 REVERT JUMPDEST PUSH1 0x20 SWAP2 DUP3 DUP3 DIV ADD SWAP2 SWAP1 MOD SWAP2 POP SLOAD SWAP1 PUSH2 0x100 EXP SWAP1 DIV PUSH1 0xFF AND DUP2 JUMP JUMPDEST PUSH1 0x8 PUSH1 0x20 MSTORE DUP1 PUSH0 MSTORE PUSH1 0x40 PUSH0 KECCAK256 PUSH0 SWAP2 POP SWAP1 POP SLOAD DUP2 JUMP JUMPDEST PUSH1 0x1 PUSH0 SWAP1 SLOAD SWAP1 PUSH2 0x100 EXP SWAP1 DIV PUSH20 0xFFFFFFFFFFFFFFFFFFFFFFFFFFFFFFFFFFFFFFFF AND DUP2 JUMP JUMPDEST PUSH0 DUP1 REVERT JUMPDEST PUSH0 DUP2 SWAP1 POP SWAP2 SWAP1 POP JUMP JUMPDEST PUSH2 0x221A DUP2 PUSH2 0x2208 JUMP JUMPDEST DUP2 EQ PUSH2 0x2224 JUMPI PUSH0 DUP1 REVERT JUMPDEST POP JUMP JUMPDEST PUSH0 DUP2 CALLDATALOAD SWAP1 POP PUSH2 0x2235 DUP2 PUSH2 0x2211 JUMP JUMPDEST SWAP3 SWAP2 POP POP JUMP JUMPDEST PUSH0 PUSH1 0x20 DUP3 DUP5 SUB SLT ISZERO PUSH2 0x2250 JUMPI PUSH2 0x224F PUSH2 0x2204 JUMP JUMPDEST JUMPDEST PUSH0 PUSH2 0x225D DUP5 DUP3 DUP6 ADD PUSH2 0x2227 JUMP JUMPDEST SWAP2 POP POP SWAP3 SWAP2 POP POP JUMP JUMPDEST PUSH0 PUSH20 0xFFFFFFFFFFFFFFFFFFFFFFFFFFFFFFFFFFFFFFFF DUP3 AND SWAP1 POP SWAP2 SWAP1 POP JUMP JUMPDEST PUSH0 PUSH2 0x228F DUP3 PUSH2 0x2266 JUMP JUMPDEST SWAP1 POP SWAP2 SWAP1 POP JUMP JUMPDEST PUSH2 0x229F DUP2 PUSH2 0x2285 JUMP JUMPDEST DUP3 MSTORE POP POP JUMP JUMPDEST PUSH0 PUSH1 0x20 DUP3 ADD SWAP1 POP PUSH2 0x22B8 PUSH0 DUP4 ADD DUP5 PUSH2 0x2296 JUMP JUMPDEST SWAP3 SWAP2 POP POP JUMP JUMPDEST PUSH2 0x22C7 DUP2 PUSH2 0x2285 JUMP JUMPDEST DUP2 EQ PUSH2 0x22D1 JUMPI PUSH0 DUP1 REVERT JUMPDEST POP JUMP JUMPDEST PUSH0 DUP2 CALLDATALOAD SWAP1 POP PUSH2 0x22E2 DUP2 PUSH2 0x22BE JUMP JUMPDEST SWAP3 SWAP2 POP POP JUMP JUMPDEST PUSH0 PUSH1 0x20 DUP3 DUP5 SUB SLT ISZERO PUSH2 0x22FD JUMPI PUSH2 0x22FC PUSH2 0x2204 JUMP JUMPDEST JUMPDEST PUSH0 PUSH2 0x230A DUP5 DUP3 DUP6 ADD PUSH2 0x22D4 JUMP JUMPDEST SWAP2 POP POP SWAP3 SWAP2 POP POP JUMP JUMPDEST PUSH2 0x231C DUP2 PUSH2 0x2208 JUMP JUMPDEST DUP3 MSTORE POP POP JUMP JUMPDEST PUSH0 PUSH1 0x20 DUP3 ADD SWAP1 POP PUSH2 0x2335 PUSH0 DUP4 ADD DUP5 PUSH2 0x2313 JUMP JUMPDEST SWAP3 SWAP2 POP POP JUMP JUMPDEST PUSH0 PUSH1 0xA0 DUP3 ADD SWAP1 POP PUSH2 0x234E PUSH0 DUP4 ADD DUP9 PUSH2 0x2313 JUMP JUMPDEST PUSH2 0x235B PUSH1 0x20 DUP4 ADD DUP8 PUSH2 0x2313 JUMP JUMPDEST PUSH2 0x2368 PUSH1 0x40 DUP4 ADD DUP7 PUSH2 0x2313 JUMP JUMPDEST PUSH2 0x2375 PUSH1 0x60 DUP4 ADD DUP6 PUSH2 0x2313 JUMP JUMPDEST PUSH2 0x2382 PUSH1 0x80 DUP4 ADD DUP5 PUSH2 0x2313 JUMP JUMPDEST SWAP7 SWAP6 POP POP POP POP POP POP JUMP JUMPDEST PUSH0 DUP2 MLOAD SWAP1 POP SWAP2 SWAP1 POP JUMP JUMPDEST PUSH0 DUP3 DUP3 MSTORE PUSH1 0x20 DUP3 ADD SWAP1 POP SWAP3 SWAP2 POP POP JUMP JUMPDEST PUSH0 DUP2 SWAP1 POP PUSH1 0x20 DUP3 ADD SWAP1 POP SWAP2 SWAP1 POP JUMP JUMPDEST PUSH2 0x23BE DUP2 PUSH2 0x2208 JUMP JUMPDEST DUP3 MSTORE POP POP JUMP JUMPDEST PUSH0 PUSH2 0x23CF DUP4 DUP4 PUSH2 0x23B5 JUMP JUMPDEST PUSH1 0x20 DUP4 ADD SWAP1 POP SWAP3 SWAP2 POP POP JUMP JUMPDEST PUSH0 PUSH1 0x20 DUP3 ADD SWAP1 POP SWAP2 SWAP1 POP JUMP JUMPDEST PUSH0 PUSH2 0x23F1 DUP3 PUSH2 0x238C JUMP JUMPDEST PUSH2 0x23FB DUP2 DUP6 PUSH2 0x2396 JUMP JUMPDEST SWAP4 POP PUSH2 0x2406 DUP4 PUSH2 0x23A6 JUMP JUMPDEST DUP1 PUSH0 JUMPDEST DUP4 DUP2 LT ISZERO PUSH2 0x2436 JUMPI DUP2 MLOAD PUSH2 0x241D DUP9 DUP3 PUSH2 0x23C4 JUMP JUMPDEST SWAP8 POP PUSH2 0x2428 DUP4 PUSH2 0x23DB JUMP JUMPDEST SWAP3 POP POP PUSH1 0x1 DUP2 ADD SWAP1 POP PUSH2 0x2409 JUMP JUMPDEST POP DUP6 SWAP4 POP POP POP POP SWAP3 SWAP2 POP POP JUMP JUMPDEST PUSH0 PUSH1 0x20 DUP3 ADD SWAP1 POP DUP2 DUP2 SUB PUSH0 DUP4 ADD MSTORE PUSH2 0x245B DUP2 DUP5 PUSH2 0x23E7 JUMP JUMPDEST SWAP1 POP SWAP3 SWAP2 POP POP JUMP JUMPDEST PUSH0 DUP2 ISZERO ISZERO SWAP1 POP SWAP2 SWAP1 POP JUMP JUMPDEST PUSH2 0x2477 DUP2 PUSH2 0x2463 JUMP JUMPDEST DUP3 MSTORE POP POP JUMP JUMPDEST PUSH0 PUSH1 0xC0 DUP3 ADD SWAP1 POP PUSH2 0x2490 PUSH0 DUP4 ADD DUP10 PUSH2 0x2296 JUMP JUMPDEST PUSH2 0x249D PUSH1 0x20 DUP4 ADD DUP9 PUSH2 0x2313 JUMP JUMPDEST PUSH2 0x24AA PUSH1 0x40 DUP4 ADD DUP8 PUSH2 0x2313 JUMP JUMPDEST PUSH2 0x24B7 PUSH1 0x60 DUP4 ADD DUP7 PUSH2 0x2313 JUMP JUMPDEST PUSH2 0x24C4 PUSH1 0x80 DUP4 ADD DUP6 PUSH2 0x2313 JUMP JUMPDEST PUSH2 0x24D1 PUSH1 0xA0 DUP4 ADD DUP5 PUSH2 0x246E JUMP JUMPDEST SWAP8 SWAP7 POP POP POP POP POP POP POP JUMP JUMPDEST PUSH0 DUP1 PUSH1 0x40 DUP4 DUP6 SUB SLT ISZERO PUSH2 0x24F2 JUMPI PUSH2 0x24F1 PUSH2 0x2204 JUMP JUMPDEST JUMPDEST PUSH0 PUSH2 0x24FF DUP6 DUP3 DUP7 ADD PUSH2 0x2227 JUMP JUMPDEST SWAP3 POP POP PUSH1 0x20 PUSH2 0x2510 DUP6 DUP3 DUP7 ADD PUSH2 0x2227 JUMP JUMPDEST SWAP2 POP POP SWAP3 POP SWAP3 SWAP1 POP JUMP JUMPDEST PUSH0 PUSH1 0x40 DUP3 ADD SWAP1 POP PUSH2 0x252D PUSH0 DUP4 ADD DUP6 PUSH2 0x2296 JUMP JUMPDEST PUSH2 0x253A PUSH1 0x20 DUP4 ADD DUP5 PUSH2 0x246E JUMP JUMPDEST SWAP4 SWAP3 POP POP POP JUMP JUMPDEST PUSH0 PUSH1 0x20 DUP3 ADD SWAP1 POP PUSH2 0x2554 PUSH0 DUP4 ADD DUP5 PUSH2 0x246E JUMP JUMPDEST SWAP3 SWAP2 POP POP JUMP JUMPDEST PUSH0 PUSH1 0xFF DUP3 AND SWAP1 POP SWAP2 SWAP1 POP JUMP JUMPDEST PUSH2 0x256F DUP2 PUSH2 0x255A JUMP JUMPDEST DUP3 MSTORE POP POP JUMP JUMPDEST PUSH0 PUSH1 0x20 DUP3 ADD SWAP1 POP PUSH2 0x2588 PUSH0 DUP4 ADD DUP5 PUSH2 0x2566 JUMP JUMPDEST SWAP3 SWAP2 POP POP JUMP JUMPDEST PUSH0 DUP2 SWAP1 POP SWAP2 SWAP1 POP JUMP JUMPDEST PUSH0 PUSH2 0x25B1 PUSH2 0x25AC PUSH2 0x25A7 DUP5 PUSH2 0x2266 JUMP JUMPDEST PUSH2 0x258E JUMP JUMPDEST PUSH2 0x2266 JUMP JUMPDEST SWAP1 POP SWAP2 SWAP1 POP JUMP JUMPDEST PUSH0 PUSH2 0x25C2 DUP3 PUSH2 0x2597 JUMP JUMPDEST SWAP1 POP SWAP2 SWAP1 POP JUMP JUMPDEST PUSH0 PUSH2 0x25D3 DUP3 PUSH2 0x25B8 JUMP JUMPDEST SWAP1 POP SWAP2 SWAP1 POP JUMP JUMPDEST PUSH2 0x25E3 DUP2 PUSH2 0x25C9 JUMP JUMPDEST DUP3 MSTORE POP POP JUMP JUMPDEST PUSH0 PUSH1 0x20 DUP3 ADD SWAP1 POP PUSH2 0x25FC PUSH0 DUP4 ADD DUP5 PUSH2 0x25DA JUMP JUMPDEST SWAP3 SWAP2 POP POP JUMP JUMPDEST PUSH0 DUP3 DUP3 MSTORE PUSH1 0x20 DUP3 ADD SWAP1 POP SWAP3 SWAP2 POP POP JUMP JUMPDEST PUSH32 0x55736572206E6F74207265676973746572656400000000000000000000000000 PUSH0 DUP3 ADD MSTORE POP JUMP JUMPDEST PUSH0 PUSH2 0x2646 PUSH1 0x13 DUP4 PUSH2 0x2602 JUMP JUMPDEST SWAP2 POP PUSH2 0x2651 DUP3 PUSH2 0x2612 JUMP JUMPDEST PUSH1 0x20 DUP3 ADD SWAP1 POP SWAP2 SWAP1 POP JUMP JUMPDEST PUSH0 PUSH1 0x20 DUP3 ADD SWAP1 POP DUP2 DUP2 SUB PUSH0 DUP4 ADD MSTORE PUSH2 0x2673 DUP2 PUSH2 0x263A JUMP JUMPDEST SWAP1 POP SWAP2 SWAP1 POP JUMP JUMPDEST PUSH32 0x4E487B7100000000000000000000000000000000000000000000000000000000 PUSH0 MSTORE PUSH1 0x11 PUSH1 0x4 MSTORE PUSH1 0x24 PUSH0 REVERT JUMPDEST PUSH0 PUSH2 0x26B1 DUP3 PUSH2 0x2208 JUMP JUMPDEST SWAP2 POP PUSH32 0xFFFFFFFFFFFFFFFFFFFFFFFFFFFFFFFFFFFFFFFFFFFFFFFFFFFFFFFFFFFFFFFF DUP3 SUB PUSH2 0x26E3 JUMPI PUSH2 0x26E2 PUSH2 0x267A JUMP JUMPDEST JUMPDEST PUSH1 0x1 DUP3 ADD SWAP1 POP SWAP2 SWAP1 POP JUMP JUMPDEST PUSH32 0x496E76616C696420706F736974696F6E49640000000000000000000000000000 PUSH0 DUP3 ADD MSTORE POP JUMP JUMPDEST PUSH0 PUSH2 0x2722 PUSH1 0x12 DUP4 PUSH2 0x2602 JUMP JUMPDEST SWAP2 POP PUSH2 0x272D DUP3 PUSH2 0x26EE JUMP JUMPDEST PUSH1 0x20 DUP3 ADD SWAP1 POP SWAP2 SWAP1 POP JUMP JUMPDEST PUSH0 PUSH1 0x20 DUP3 ADD SWAP1 POP DUP2 DUP2 SUB PUSH0 DUP4 ADD MSTORE PUSH2 0x274F DUP2 PUSH2 0x2716 JUMP JUMPDEST SWAP1 POP SWAP2 SWAP1 POP JUMP JUMPDEST PUSH32 0x4E487B7100000000000000000000000000000000000000000000000000000000 PUSH0 MSTORE PUSH1 0x32 PUSH1 0x4 MSTORE PUSH1 0x24 PUSH0 REVERT JUMPDEST PUSH0 PUSH2 0x278D DUP3 PUSH2 0x2208 JUMP JUMPDEST SWAP2 POP PUSH2 0x2798 DUP4 PUSH2 0x2208 JUMP JUMPDEST SWAP3 POP DUP3 DUP3 MUL PUSH2 0x27A6 DUP2 PUSH2 0x2208 JUMP JUMPDEST SWAP2 POP DUP3 DUP3 DIV DUP5 EQ DUP4 ISZERO OR PUSH2 0x27BD JUMPI PUSH2 0x27BC PUSH2 0x267A JUMP JUMPDEST JUMPDEST POP SWAP3 SWAP2 POP POP JUMP JUMPDEST PUSH32 0x4E487B7100000000000000000000000000000000000000000000000000000000 PUSH0 MSTORE PUSH1 0x12 PUSH1 0x4 MSTORE PUSH1 0x24 PUSH0 REVERT JUMPDEST PUSH0 PUSH2 0x27FB DUP3 PUSH2 0x2208 JUMP JUMPDEST SWAP2 POP PUSH2 0x2806 DUP4 PUSH2 0x2208 JUMP JUMPDEST SWAP3 POP DUP3 PUSH2 0x2816 JUMPI PUSH2 0x2815 PUSH2 0x27C4 JUMP JUMPDEST JUMPDEST DUP3 DUP3 DIV SWAP1 POP SWAP3 SWAP2 POP POP JUMP JUMPDEST PUSH32 0x5374616B65206E6F7420666F756E640000000000000000000000000000000000 PUSH0 DUP3 ADD MSTORE POP JUMP JUMPDEST PUSH0 PUSH2 0x2855 PUSH1 0xF DUP4 PUSH2 0x2602 JUMP JUMPDEST SWAP2 POP PUSH2 0x2860 DUP3 PUSH2 0x2821 JUMP JUMPDEST PUSH1 0x20 DUP3 ADD SWAP1 POP SWAP2 SWAP1 POP JUMP JUMPDEST PUSH0 PUSH1 0x20 DUP3 ADD SWAP1 POP DUP2 DUP2 SUB PUSH0 DUP4 ADD MSTORE PUSH2 0x2882 DUP2 PUSH2 0x2849 JUMP JUMPDEST SWAP1 POP SWAP2 SWAP1 POP JUMP JUMPDEST PUSH32 0x4E487B7100000000000000000000000000000000000000000000000000000000 PUSH0 MSTORE PUSH1 0x41 PUSH1 0x4 MSTORE PUSH1 0x24 PUSH0 REVERT JUMPDEST PUSH32 0x4F6E6C79206F776E65722063616E207769746864726177000000000000000000 PUSH0 DUP3 ADD MSTORE POP JUMP JUMPDEST PUSH0 PUSH2 0x28EA PUSH1 0x17 DUP4 PUSH2 0x2602 JUMP JUMPDEST SWAP2 POP PUSH2 0x28F5 DUP3 PUSH2 0x28B6 JUMP JUMPDEST PUSH1 0x20 DUP3 ADD SWAP1 POP SWAP2 SWAP1 POP JUMP JUMPDEST PUSH0 PUSH1 0x20 DUP3 ADD SWAP1 POP DUP2 DUP2 SUB PUSH0 DUP4 ADD MSTORE PUSH2 0x2917 DUP2 PUSH2 0x28DE JUMP JUMPDEST SWAP1 POP SWAP2 SWAP1 POP JUMP JUMPDEST PUSH0 PUSH1 0x40 DUP3 ADD SWAP1 POP PUSH2 0x2931 PUSH0 DUP4 ADD DUP6 PUSH2 0x2296 JUMP JUMPDEST PUSH2 0x293E PUSH1 0x20 DUP4 ADD DUP5 PUSH2 0x2313 JUMP JUMPDEST SWAP4 SWAP3 POP POP POP JUMP JUMPDEST PUSH2 0x294E DUP2 PUSH2 0x2463 JUMP JUMPDEST DUP2 EQ PUSH2 0x2958 JUMPI PUSH0 DUP1 REVERT JUMPDEST POP JUMP JUMPDEST PUSH0 DUP2 MLOAD SWAP1 POP PUSH2 0x2969 DUP2 PUSH2 0x2945 JUMP JUMPDEST SWAP3 SWAP2 POP POP JUMP JUMPDEST PUSH0 PUSH1 0x20 DUP3 DUP5 SUB SLT ISZERO PUSH2 0x2984 JUMPI PUSH2 0x2983 PUSH2 0x2204 JUMP JUMPDEST JUMPDEST PUSH0 PUSH2 0x2991 DUP5 DUP3 DUP6 ADD PUSH2 0x295B JUMP JUMPDEST SWAP2 POP POP SWAP3 SWAP2 POP POP JUMP JUMPDEST PUSH32 0x5769746864726177206661696C65640000000000000000000000000000000000 PUSH0 DUP3 ADD MSTORE POP JUMP JUMPDEST PUSH0 PUSH2 0x29CE PUSH1 0xF DUP4 PUSH2 0x2602 JUMP JUMPDEST SWAP2 POP PUSH2 0x29D9 DUP3 PUSH2 0x299A JUMP JUMPDEST PUSH1 0x20 DUP3 ADD SWAP1 POP SWAP2 SWAP1 POP JUMP JUMPDEST PUSH0 PUSH1 0x20 DUP3 ADD SWAP1 POP DUP2 DUP2 SUB PUSH0 DUP4 ADD MSTORE PUSH2 0x29FB DUP2 PUSH2 0x29C2 JUMP JUMPDEST SWAP1 POP SWAP2 SWAP1 POP JUMP JUMPDEST PUSH32 0x4E6F7420796F7572207374616B65000000000000000000000000000000000000 PUSH0 DUP3 ADD MSTORE POP JUMP JUMPDEST PUSH0 PUSH2 0x2A36 PUSH1 0xE DUP4 PUSH2 0x2602 JUMP JUMPDEST SWAP2 POP PUSH2 0x2A41 DUP3 PUSH2 0x2A02 JUMP JUMPDEST PUSH1 0x20 DUP3 ADD SWAP1 POP SWAP2 SWAP1 POP JUMP JUMPDEST PUSH0 PUSH1 0x20 DUP3 ADD SWAP1 POP DUP2 DUP2 SUB PUSH0 DUP4 ADD MSTORE PUSH2 0x2A63 DUP2 PUSH2 0x2A2A JUMP JUMPDEST SWAP1 POP SWAP2 SWAP1 POP JUMP JUMPDEST PUSH32 0x416C726561647920636C61696D65640000000000000000000000000000000000 PUSH0 DUP3 ADD MSTORE POP JUMP JUMPDEST PUSH0 PUSH2 0x2A9E PUSH1 0xF DUP4 PUSH2 0x2602 JUMP JUMPDEST SWAP2 POP PUSH2 0x2AA9 DUP3 PUSH2 0x2A6A JUMP JUMPDEST PUSH1 0x20 DUP3 ADD SWAP1 POP SWAP2 SWAP1 POP JUMP JUMPDEST PUSH0 PUSH1 0x20 DUP3 ADD SWAP1 POP DUP2 DUP2 SUB PUSH0 DUP4 ADD MSTORE PUSH2 0x2ACB DUP2 PUSH2 0x2A92 JUMP JUMPDEST SWAP1 POP SWAP2 SWAP1 POP JUMP JUMPDEST PUSH0 PUSH2 0x2ADC DUP3 PUSH2 0x2208 JUMP JUMPDEST SWAP2 POP PUSH2 0x2AE7 DUP4 PUSH2 0x2208 JUMP JUMPDEST SWAP3 POP DUP3 DUP3 SUB SWAP1 POP DUP2 DUP2 GT ISZERO PUSH2 0x2AFF JUMPI PUSH2 0x2AFE PUSH2 0x267A JUMP JUMPDEST JUMPDEST SWAP3 SWAP2 POP POP JUMP JUMPDEST PUSH32 0x43616E6E6F7420636C61696D206265747765656E203230206461797320616E64 PUSH0 DUP3 ADD MSTORE PUSH32 0x2066756C6C206475726174696F6E000000000000000000000000000000000000 PUSH1 0x20 DUP3 ADD MSTORE POP JUMP JUMPDEST PUSH0 PUSH2 0x2B5F PUSH1 0x2E DUP4 PUSH2 0x2602 JUMP JUMPDEST SWAP2 POP PUSH2 0x2B6A DUP3 PUSH2 0x2B05 JUMP JUMPDEST PUSH1 0x40 DUP3 ADD SWAP1 POP SWAP2 SWAP1 POP JUMP JUMPDEST PUSH0 PUSH1 0x20 DUP3 ADD SWAP1 POP DUP2 DUP2 SUB PUSH0 DUP4 ADD MSTORE PUSH2 0x2B8C DUP2 PUSH2 0x2B53 JUMP JUMPDEST SWAP1 POP SWAP2 SWAP1 POP JUMP JUMPDEST PUSH0 PUSH2 0x2B9D DUP3 PUSH2 0x2208 JUMP JUMPDEST SWAP2 POP PUSH2 0x2BA8 DUP4 PUSH2 0x2208 JUMP JUMPDEST SWAP3 POP DUP3 DUP3 ADD SWAP1 POP DUP1 DUP3 GT ISZERO PUSH2 0x2BC0 JUMPI PUSH2 0x2BBF PUSH2 0x267A JUMP JUMPDEST JUMPDEST SWAP3 SWAP2 POP POP JUMP JUMPDEST PUSH32 0x546F6B656E207472616E73666572206661696C65640000000000000000000000 PUSH0 DUP3 ADD MSTORE POP JUMP JUMPDEST PUSH0 PUSH2 0x2BFA PUSH1 0x15 DUP4 PUSH2 0x2602 JUMP JUMPDEST SWAP2 POP PUSH2 0x2C05 DUP3 PUSH2 0x2BC6 JUMP JUMPDEST PUSH1 0x20 DUP3 ADD SWAP1 POP SWAP2 SWAP1 POP JUMP JUMPDEST PUSH0 PUSH1 0x20 DUP3 ADD SWAP1 POP DUP2 DUP2 SUB PUSH0 DUP4 ADD MSTORE PUSH2 0x2C27 DUP2 PUSH2 0x2BEE JUMP JUMPDEST SWAP1 POP SWAP2 SWAP1 POP JUMP JUMPDEST PUSH0 PUSH1 0x40 DUP3 ADD SWAP1 POP PUSH2 0x2C41 PUSH0 DUP4 ADD DUP6 PUSH2 0x2313 JUMP JUMPDEST PUSH2 0x2C4E PUSH1 0x20 DUP4 ADD DUP5 PUSH2 0x2313 JUMP JUMPDEST SWAP4 SWAP3 POP POP POP JUMP JUMPDEST PUSH32 0x5374616B65206E6F7420666F756E6420666F7220676976656E20706F73697469 PUSH0 DUP3 ADD MSTORE PUSH32 0x6F6E496400000000000000000000000000000000000000000000000000000000 PUSH1 0x20 DUP3 ADD MSTORE POP JUMP JUMPDEST PUSH0 PUSH2 0x2CAF PUSH1 0x24 DUP4 PUSH2 0x2602 JUMP JUMPDEST SWAP2 POP PUSH2 0x2CBA DUP3 PUSH2 0x2C55 JUMP JUMPDEST PUSH1 0x40 DUP3 ADD SWAP1 POP SWAP2 SWAP1 POP JUMP JUMPDEST PUSH0 PUSH1 0x20 DUP3 ADD SWAP1 POP DUP2 DUP2 SUB PUSH0 DUP4 ADD MSTORE PUSH2 0x2CDC DUP2 PUSH2 0x2CA3 JUMP JUMPDEST SWAP1 POP SWAP2 SWAP1 POP JUMP JUMPDEST PUSH32 0x416C726561647920726567697374657265640000000000000000000000000000 PUSH0 DUP3 ADD MSTORE POP JUMP JUMPDEST PUSH0 PUSH2 0x2D17 PUSH1 0x12 DUP4 PUSH2 0x2602 JUMP JUMPDEST SWAP2 POP PUSH2 0x2D22 DUP3 PUSH2 0x2CE3 JUMP JUMPDEST PUSH1 0x20 DUP3 ADD SWAP1 POP SWAP2 SWAP1 POP JUMP JUMPDEST PUSH0 PUSH1 0x20 DUP3 ADD SWAP1 POP DUP2 DUP2 SUB PUSH0 DUP4 ADD MSTORE PUSH2 0x2D44 DUP2 PUSH2 0x2D0B JUMP JUMPDEST SWAP1 POP SWAP2 SWAP1 POP JUMP JUMPDEST PUSH32 0x43616E6E6F7420726566657220796F757273656C660000000000000000000000 PUSH0 DUP3 ADD MSTORE POP JUMP JUMPDEST PUSH0 PUSH2 0x2D7F PUSH1 0x15 DUP4 PUSH2 0x2602 JUMP JUMPDEST SWAP2 POP PUSH2 0x2D8A DUP3 PUSH2 0x2D4B JUMP JUMPDEST PUSH1 0x20 DUP3 ADD SWAP1 POP SWAP2 SWAP1 POP JUMP JUMPDEST PUSH0 PUSH1 0x20 DUP3 ADD SWAP1 POP DUP2 DUP2 SUB PUSH0 DUP4 ADD MSTORE PUSH2 0x2DAC DUP2 PUSH2 0x2D73 JUMP JUMPDEST SWAP1 POP SWAP2 SWAP1 POP JUMP JUMPDEST PUSH32 0x5265666572726572206E6F742072656769737465726564000000000000000000 PUSH0 DUP3 ADD MSTORE POP JUMP JUMPDEST PUSH0 PUSH2 0x2DE7 PUSH1 0x17 DUP4 PUSH2 0x2602 JUMP JUMPDEST SWAP2 POP PUSH2 0x2DF2 DUP3 PUSH2 0x2DB3 JUMP JUMPDEST PUSH1 0x20 DUP3 ADD SWAP1 POP SWAP2 SWAP1 POP JUMP JUMPDEST PUSH0 PUSH1 0x20 DUP3 ADD SWAP1 POP DUP2 DUP2 SUB PUSH0 DUP4 ADD MSTORE PUSH2 0x2E14 DUP2 PUSH2 0x2DDB JUMP JUMPDEST SWAP1 POP SWAP2 SWAP1 POP JUMP JUMPDEST PUSH32 0x416D6F756E74206D7573742062652067726561746572207468616E2030000000 PUSH0 DUP3 ADD MSTORE POP JUMP JUMPDEST PUSH0 PUSH2 0x2E4F PUSH1 0x1D DUP4 PUSH2 0x2602 JUMP JUMPDEST SWAP2 POP PUSH2 0x2E5A DUP3 PUSH2 0x2E1B JUMP JUMPDEST PUSH1 0x20 DUP3 ADD SWAP1 POP SWAP2 SWAP1 POP JUMP JUMPDEST PUSH0 PUSH1 0x20 DUP3 ADD SWAP1 POP DUP2 DUP2 SUB PUSH0 DUP4 ADD MSTORE PUSH2 0x2E7C DUP2 PUSH2 0x2E43 JUMP JUMPDEST SWAP1 POP SWAP2 SWAP1 POP JUMP JUMPDEST PUSH32 0x496E76616C6964207374616B696E67206475726174696F6E0000000000000000 PUSH0 DUP3 ADD MSTORE POP JUMP JUMPDEST PUSH0 PUSH2 0x2EB7 PUSH1 0x18 DUP4 PUSH2 0x2602 JUMP JUMPDEST SWAP2 POP PUSH2 0x2EC2 DUP3 PUSH2 0x2E83 JUMP JUMPDEST PUSH1 0x20 DUP3 ADD SWAP1 POP SWAP2 SWAP1 POP JUMP JUMPDEST PUSH0 PUSH1 0x20 DUP3 ADD SWAP1 POP DUP2 DUP2 SUB PUSH0 DUP4 ADD MSTORE PUSH2 0x2EE4 DUP2 PUSH2 0x2EAB JUMP JUMPDEST SWAP1 POP SWAP2 SWAP1 POP JUMP JUMPDEST PUSH0 PUSH1 0x60 DUP3 ADD SWAP1 POP PUSH2 0x2EFE PUSH0 DUP4 ADD DUP7 PUSH2 0x2296 JUMP JUMPDEST PUSH2 0x2F0B PUSH1 0x20 DUP4 ADD DUP6 PUSH2 0x2296 JUMP JUMPDEST PUSH2 0x2F18 PUSH1 0x40 DUP4 ADD DUP5 PUSH2 0x2313 JUMP JUMPDEST SWAP5 SWAP4 POP POP POP POP JUMP JUMPDEST PUSH32 0x526566657272616C207472616E73666572206661696C65640000000000000000 PUSH0 DUP3 ADD MSTORE POP JUMP JUMPDEST PUSH0 PUSH2 0x2F54 PUSH1 0x18 DUP4 PUSH2 0x2602 JUMP JUMPDEST SWAP2 POP PUSH2 0x2F5F DUP3 PUSH2 0x2F20 JUMP JUMPDEST PUSH1 0x20 DUP3 ADD SWAP1 POP SWAP2 SWAP1 POP JUMP JUMPDEST PUSH0 PUSH1 0x20 DUP3 ADD SWAP1 POP DUP2 DUP2 SUB PUSH0 DUP4 ADD MSTORE PUSH2 0x2F81 DUP2 PUSH2 0x2F48 JUMP JUMPDEST SWAP1 POP SWAP2 SWAP1 POP JUMP JUMPDEST PUSH0 PUSH2 0x2F92 DUP3 PUSH2 0x255A JUMP JUMPDEST SWAP2 POP PUSH1 0xFF DUP3 SUB PUSH2 0x2FA5 JUMPI PUSH2 0x2FA4 PUSH2 0x267A JUMP JUMPDEST JUMPDEST PUSH1 0x1 DUP3 ADD SWAP1 POP SWAP2 SWAP1 POP JUMP INVALID LOG2 PUSH5 0x6970667358 0x22 SLT KECCAK256 0x2F 0xD2 0xCA PUSH30 0x743111C2D3F8097EFEC3F040ED278A48CCD09D77A237B27B63E2BCE46473 PUSH16 0x6C634300081900330000000000000000 "
				},
				"gasEstimates": {
					"creation": {
						"codeDepositCost": "2452400",
						"executionCost": "infinite",
						"totalCost": "infinite"
					},
					"external": {
						"claim(uint256)": "infinite",
						"directReferralCount(address)": "2935",
						"directReferralIncome(address)": "2912",
						"getDirectReferralCount(address)": "2896",
						"getDirectReferralIncome(address)": "2940",
						"getEstimatedReturn(uint256,uint256)": "infinite",
						"getPositionIds(address)": "infinite",
						"getStakeByPositionId(uint256)": "infinite",
						"getStakeDailyReward(uint256)": "infinite",
						"getTotalIncome(address)": "2873",
						"getUserLevel(address)": "infinite",
						"isRegistered(address)": "2992",
						"levelRewards(uint256)": "4467",
						"nextPositionId()": "2448",
						"nextStakeId()": "2470",
						"owner()": "2550",
						"positionIdToUser(uint256)": "2851",
						"register(address)": "79853",
						"stake(uint256,uint256)": "infinite",
						"stakingAPY(uint256)": "infinite",
						"token()": "infinite",
						"totalIncome(address)": "2913",
						"users(address)": "infinite",
						"withdraw(uint256)": "infinite"
					}
				},
				"methodIdentifiers": {
					"claim(uint256)": "379607f5",
					"directReferralCount(address)": "b77b7dc9",
					"directReferralIncome(address)": "f6e88873",
					"getDirectReferralCount(address)": "98278efb",
					"getDirectReferralIncome(address)": "aa7ed462",
					"getEstimatedReturn(uint256,uint256)": "bd297178",
					"getPositionIds(address)": "28fe7031",
					"getStakeByPositionId(uint256)": "797c7f5f",
					"getStakeDailyReward(uint256)": "28b496e5",
					"getTotalIncome(address)": "c2d3c677",
					"getUserLevel(address)": "21923bde",
					"isRegistered(address)": "c3c5a547",
					"levelRewards(uint256)": "e45a57d0",
					"nextPositionId()": "899346c7",
					"nextStakeId()": "75506c96",
					"owner()": "8da5cb5b",
					"positionIdToUser(uint256)": "1e43eb27",
					"register(address)": "4420e486",
					"stake(uint256,uint256)": "7b0472f0",
					"stakingAPY(uint256)": "875bb4e2",
					"token()": "fc0c546a",
					"totalIncome(address)": "862ba05f",
					"users(address)": "a87430ba",
					"withdraw(uint256)": "2e1a7d4d"
				}
			},
			"storageLayout": {
				"storage": [
					{
						"astId": 54,
						"contract": "contracts/sikkacoin.sol:MLMStaking",
						"label": "owner",
						"offset": 0,
						"slot": "0",
						"type": "t_address"
					},
					{
						"astId": 57,
						"contract": "contracts/sikkacoin.sol:MLMStaking",
						"label": "token",
						"offset": 0,
						"slot": "1",
						"type": "t_contract(IERC20)52"
					},
					{
						"astId": 84,
						"contract": "contracts/sikkacoin.sol:MLMStaking",
						"label": "users",
						"offset": 0,
						"slot": "2",
						"type": "t_mapping(t_address,t_struct(User)79_storage)"
					},
					{
						"astId": 88,
						"contract": "contracts/sikkacoin.sol:MLMStaking",
						"label": "positionIdToUser",
						"offset": 0,
						"slot": "3",
						"type": "t_mapping(t_uint256,t_address)"
					},
					{
						"astId": 98,
						"contract": "contracts/sikkacoin.sol:MLMStaking",
						"label": "levelRewards",
						"offset": 0,
						"slot": "4",
						"type": "t_array(t_uint8)5_storage"
					},
					{
						"astId": 100,
						"contract": "contracts/sikkacoin.sol:MLMStaking",
						"label": "nextStakeId",
						"offset": 0,
						"slot": "5",
						"type": "t_uint256"
					},
					{
						"astId": 102,
						"contract": "contracts/sikkacoin.sol:MLMStaking",
						"label": "nextPositionId",
						"offset": 0,
						"slot": "6",
						"type": "t_uint256"
					},
					{
						"astId": 106,
						"contract": "contracts/sikkacoin.sol:MLMStaking",
						"label": "directReferralCount",
						"offset": 0,
						"slot": "7",
						"type": "t_mapping(t_address,t_uint256)"
					},
					{
						"astId": 110,
						"contract": "contracts/sikkacoin.sol:MLMStaking",
						"label": "directReferralIncome",
						"offset": 0,
						"slot": "8",
						"type": "t_mapping(t_address,t_uint256)"
					},
					{
						"astId": 114,
						"contract": "contracts/sikkacoin.sol:MLMStaking",
						"label": "totalIncome",
						"offset": 0,
						"slot": "9",
						"type": "t_mapping(t_address,t_uint256)"
					},
					{
						"astId": 118,
						"contract": "contracts/sikkacoin.sol:MLMStaking",
						"label": "stakingAPY",
						"offset": 0,
						"slot": "10",
						"type": "t_mapping(t_uint256,t_uint256)"
					}
				],
				"types": {
					"t_address": {
						"encoding": "inplace",
						"label": "address",
						"numberOfBytes": "20"
					},
					"t_array(t_struct(Stake)70_storage)dyn_storage": {
						"base": "t_struct(Stake)70_storage",
						"encoding": "dynamic_array",
						"label": "struct MLMStaking.Stake[]",
						"numberOfBytes": "32"
					},
					"t_array(t_uint8)5_storage": {
						"base": "t_uint8",
						"encoding": "inplace",
						"label": "uint8[5]",
						"numberOfBytes": "32"
					},
					"t_bool": {
						"encoding": "inplace",
						"label": "bool",
						"numberOfBytes": "1"
					},
					"t_contract(IERC20)52": {
						"encoding": "inplace",
						"label": "contract IERC20",
						"numberOfBytes": "20"
					},
					"t_mapping(t_address,t_struct(User)79_storage)": {
						"encoding": "mapping",
						"key": "t_address",
						"label": "mapping(address => struct MLMStaking.User)",
						"numberOfBytes": "32",
						"value": "t_struct(User)79_storage"
					},
					"t_mapping(t_address,t_uint256)": {
						"encoding": "mapping",
						"key": "t_address",
						"label": "mapping(address => uint256)",
						"numberOfBytes": "32",
						"value": "t_uint256"
					},
					"t_mapping(t_uint256,t_address)": {
						"encoding": "mapping",
						"key": "t_uint256",
						"label": "mapping(uint256 => address)",
						"numberOfBytes": "32",
						"value": "t_address"
					},
					"t_mapping(t_uint256,t_uint256)": {
						"encoding": "mapping",
						"key": "t_uint256",
						"label": "mapping(uint256 => uint256)",
						"numberOfBytes": "32",
						"value": "t_uint256"
					},
					"t_struct(Stake)70_storage": {
						"encoding": "inplace",
						"label": "struct MLMStaking.Stake",
						"members": [
							{
								"astId": 59,
								"contract": "contracts/sikkacoin.sol:MLMStaking",
								"label": "stakeId",
								"offset": 0,
								"slot": "0",
								"type": "t_uint256"
							},
							{
								"astId": 61,
								"contract": "contracts/sikkacoin.sol:MLMStaking",
								"label": "amount",
								"offset": 0,
								"slot": "1",
								"type": "t_uint256"
							},
							{
								"astId": 63,
								"contract": "contracts/sikkacoin.sol:MLMStaking",
								"label": "positionId",
								"offset": 0,
								"slot": "2",
								"type": "t_uint256"
							},
							{
								"astId": 65,
								"contract": "contracts/sikkacoin.sol:MLMStaking",
								"label": "timestamp",
								"offset": 0,
								"slot": "3",
								"type": "t_uint256"
							},
							{
								"astId": 67,
								"contract": "contracts/sikkacoin.sol:MLMStaking",
								"label": "numDays",
								"offset": 0,
								"slot": "4",
								"type": "t_uint256"
							},
							{
								"astId": 69,
								"contract": "contracts/sikkacoin.sol:MLMStaking",
								"label": "claimed",
								"offset": 0,
								"slot": "5",
								"type": "t_bool"
							}
						],
						"numberOfBytes": "192"
					},
					"t_struct(User)79_storage": {
						"encoding": "inplace",
						"label": "struct MLMStaking.User",
						"members": [
							{
								"astId": 72,
								"contract": "contracts/sikkacoin.sol:MLMStaking",
								"label": "referrer",
								"offset": 0,
								"slot": "0",
								"type": "t_address"
							},
							{
								"astId": 74,
								"contract": "contracts/sikkacoin.sol:MLMStaking",
								"label": "registered",
								"offset": 20,
								"slot": "0",
								"type": "t_bool"
							},
							{
								"astId": 78,
								"contract": "contracts/sikkacoin.sol:MLMStaking",
								"label": "stakes",
								"offset": 0,
								"slot": "1",
								"type": "t_array(t_struct(Stake)70_storage)dyn_storage"
							}
						],
						"numberOfBytes": "64"
					},
					"t_uint256": {
						"encoding": "inplace",
						"label": "uint256",
						"numberOfBytes": "32"
					},
					"t_uint8": {
						"encoding": "inplace",
						"label": "uint8",
						"numberOfBytes": "1"
					}
				}
			},
			"userdoc": {
				"kind": "user",
				"methods": {},
				"version": 1
			}
		}
	}
}