{
	"contracts/roy.sol": {
		"SikkaStakingDecentralize": {
			"abi": [
				{
					"inputs": [
						{
							"internalType": "address",
							"name": "_usdtToken",
							"type": "address"
						}
					],
					"stateMutability": "nonpayable",
					"type": "constructor"
				},
				{
					"anonymous": false,
					"inputs": [
						{
							"indexed": true,
							"internalType": "address",
							"name": "user",
							"type": "address"
						},
						{
							"indexed": false,
							"internalType": "uint256",
							"name": "stakeId",
							"type": "uint256"
						},
						{
							"indexed": false,
							"internalType": "uint256",
							"name": "amount",
							"type": "uint256"
						},
						{
							"indexed": false,
							"internalType": "uint256",
							"name": "reward",
							"type": "uint256"
						}
					],
					"name": "Claimed",
					"type": "event"
				},
				{
					"inputs": [
						{
							"internalType": "uint256",
							"name": "",
							"type": "uint256"
						}
					],
					"name": "allUsers",
					"outputs": [
						{
							"internalType": "address",
							"name": "",
							"type": "address"
						}
					],
					"stateMutability": "view",
					"type": "function"
				},
				{
					"inputs": [
						{
							"internalType": "uint256",
							"name": "_positionId",
							"type": "uint256"
						}
					],
					"name": "claim",
					"outputs": [],
					"stateMutability": "nonpayable",
					"type": "function"
				},
				{
					"inputs": [
						{
							"internalType": "uint256",
							"name": "_positionId",
							"type": "uint256"
						}
					],
					"name": "claimEmergency",
					"outputs": [],
					"stateMutability": "nonpayable",
					"type": "function"
				},
				{
					"inputs": [
						{
							"internalType": "address",
							"name": "",
							"type": "address"
						}
					],
					"name": "directReferralIncome",
					"outputs": [
						{
							"internalType": "uint256",
							"name": "",
							"type": "uint256"
						}
					],
					"stateMutability": "view",
					"type": "function"
				},
				{
					"inputs": [
						{
							"internalType": "address",
							"name": "",
							"type": "address"
						},
						{
							"internalType": "uint256",
							"name": "",
							"type": "uint256"
						}
					],
					"name": "directReferrals",
					"outputs": [
						{
							"internalType": "address",
							"name": "referralAddress",
							"type": "address"
						},
						{
							"internalType": "uint256",
							"name": "incomeEarned",
							"type": "uint256"
						},
						{
							"internalType": "uint256",
							"name": "timestamp",
							"type": "uint256"
						}
					],
					"stateMutability": "view",
					"type": "function"
				},
				{
					"inputs": [],
					"name": "getContractBalance",
					"outputs": [
						{
							"internalType": "uint256",
							"name": "",
							"type": "uint256"
						}
					],
					"stateMutability": "view",
					"type": "function"
				},
				{
					"inputs": [
						{
							"internalType": "address",
							"name": "user",
							"type": "address"
						}
					],
					"name": "getDirectReferralCount",
					"outputs": [
						{
							"internalType": "uint256",
							"name": "",
							"type": "uint256"
						}
					],
					"stateMutability": "view",
					"type": "function"
				},
				{
					"inputs": [
						{
							"internalType": "address",
							"name": "user",
							"type": "address"
						}
					],
					"name": "getDirectReferralIncome",
					"outputs": [
						{
							"internalType": "uint256",
							"name": "",
							"type": "uint256"
						}
					],
					"stateMutability": "view",
					"type": "function"
				},
				{
					"inputs": [
						{
							"internalType": "uint256",
							"name": "amount",
							"type": "uint256"
						},
						{
							"internalType": "uint256",
							"name": "numDays",
							"type": "uint256"
						}
					],
					"name": "getEstimatedReturn",
					"outputs": [
						{
							"internalType": "uint256",
							"name": "interest",
							"type": "uint256"
						},
						{
							"internalType": "uint256",
							"name": "totalReturn",
							"type": "uint256"
						}
					],
					"stateMutability": "view",
					"type": "function"
				},
				{
					"inputs": [
						{
							"internalType": "address",
							"name": "user",
							"type": "address"
						}
					],
					"name": "getLevelIncome",
					"outputs": [
						{
							"internalType": "uint256",
							"name": "",
							"type": "uint256"
						}
					],
					"stateMutability": "view",
					"type": "function"
				},
				{
					"inputs": [
						{
							"internalType": "address",
							"name": "_user",
							"type": "address"
						}
					],
					"name": "getLevelIncomeDistribution",
					"outputs": [
						{
							"components": [
								{
									"internalType": "address",
									"name": "receiverAddress",
									"type": "address"
								},
								{
									"internalType": "uint256",
									"name": "stakeId",
									"type": "uint256"
								},
								{
									"internalType": "uint256",
									"name": "stakeAmount",
									"type": "uint256"
								},
								{
									"internalType": "uint256",
									"name": "incomeReceived",
									"type": "uint256"
								},
								{
									"internalType": "address",
									"name": "uplineAddress",
									"type": "address"
								},
								{
									"internalType": "uint256",
									"name": "timestamp",
									"type": "uint256"
								},
								{
									"internalType": "uint8",
									"name": "level",
									"type": "uint8"
								}
							],
							"internalType": "struct SikkaStakingDecentralize.LevelIncomeData[]",
							"name": "",
							"type": "tuple[]"
						}
					],
					"stateMutability": "view",
					"type": "function"
				},
				{
					"inputs": [
						{
							"internalType": "address",
							"name": "_user",
							"type": "address"
						}
					],
					"name": "getPositionIds",
					"outputs": [
						{
							"internalType": "uint256[]",
							"name": "",
							"type": "uint256[]"
						}
					],
					"stateMutability": "view",
					"type": "function"
				},
				{
					"inputs": [
						{
							"internalType": "address",
							"name": "user",
							"type": "address"
						}
					],
					"name": "getReferralIncomeDetails",
					"outputs": [
						{
							"internalType": "address[]",
							"name": "referralAddresses",
							"type": "address[]"
						},
						{
							"internalType": "uint256[]",
							"name": "incomes",
							"type": "uint256[]"
						},
						{
							"internalType": "uint256[]",
							"name": "timestamps",
							"type": "uint256[]"
						}
					],
					"stateMutability": "view",
					"type": "function"
				},
				{
					"inputs": [
						{
							"internalType": "uint256",
							"name": "_positionId",
							"type": "uint256"
						}
					],
					"name": "getStakeByPositionId",
					"outputs": [
						{
							"internalType": "address",
							"name": "user",
							"type": "address"
						},
						{
							"internalType": "uint256",
							"name": "stakeId",
							"type": "uint256"
						},
						{
							"internalType": "uint256",
							"name": "amount",
							"type": "uint256"
						},
						{
							"internalType": "uint256",
							"name": "startDate",
							"type": "uint256"
						},
						{
							"internalType": "uint256",
							"name": "endDate",
							"type": "uint256"
						},
						{
							"internalType": "uint256",
							"name": "apy",
							"type": "uint256"
						},
						{
							"internalType": "uint256",
							"name": "perDayInterest",
							"type": "uint256"
						},
						{
							"internalType": "bool",
							"name": "status",
							"type": "bool"
						}
					],
					"stateMutability": "view",
					"type": "function"
				},
				{
					"inputs": [
						{
							"internalType": "address",
							"name": "user",
							"type": "address"
						}
					],
					"name": "getTotalIncome",
					"outputs": [
						{
							"internalType": "uint256",
							"name": "",
							"type": "uint256"
						}
					],
					"stateMutability": "view",
					"type": "function"
				},
				{
					"inputs": [
						{
							"internalType": "address",
							"name": "user",
							"type": "address"
						}
					],
					"name": "getTotalLevelIncome",
					"outputs": [
						{
							"internalType": "uint256",
							"name": "",
							"type": "uint256"
						}
					],
					"stateMutability": "view",
					"type": "function"
				},
				{
					"inputs": [],
					"name": "getTotalUsers",
					"outputs": [
						{
							"internalType": "uint256",
							"name": "",
							"type": "uint256"
						}
					],
					"stateMutability": "view",
					"type": "function"
				},
				{
					"inputs": [
						{
							"internalType": "address",
							"name": "user",
							"type": "address"
						}
					],
					"name": "getUserLevel",
					"outputs": [
						{
							"internalType": "uint8",
							"name": "",
							"type": "uint8"
						}
					],
					"stateMutability": "view",
					"type": "function"
				},
				{
					"inputs": [
						{
							"internalType": "address",
							"name": "user",
							"type": "address"
						}
					],
					"name": "isRegistered",
					"outputs": [
						{
							"internalType": "bool",
							"name": "",
							"type": "bool"
						}
					],
					"stateMutability": "view",
					"type": "function"
				},
				{
					"inputs": [
						{
							"internalType": "uint256",
							"name": "",
							"type": "uint256"
						}
					],
					"name": "levelRewards",
					"outputs": [
						{
							"internalType": "uint8",
							"name": "",
							"type": "uint8"
						}
					],
					"stateMutability": "view",
					"type": "function"
				},
				{
					"inputs": [],
					"name": "owner",
					"outputs": [
						{
							"internalType": "address",
							"name": "",
							"type": "address"
						}
					],
					"stateMutability": "view",
					"type": "function"
				},
				{
					"inputs": [
						{
							"internalType": "address",
							"name": "to",
							"type": "address"
						},
						{
							"internalType": "uint256",
							"name": "amount",
							"type": "uint256"
						}
					],
					"name": "ownerTransfer",
					"outputs": [],
					"stateMutability": "nonpayable",
					"type": "function"
				},
				{
					"inputs": [
						{
							"internalType": "uint256",
							"name": "",
							"type": "uint256"
						}
					],
					"name": "positionIdToUser",
					"outputs": [
						{
							"internalType": "address",
							"name": "",
							"type": "address"
						}
					],
					"stateMutability": "view",
					"type": "function"
				},
				{
					"inputs": [
						{
							"internalType": "address",
							"name": "referrer",
							"type": "address"
						}
					],
					"name": "register",
					"outputs": [],
					"stateMutability": "nonpayable",
					"type": "function"
				},
				{
					"inputs": [
						{
							"internalType": "uint8[5]",
							"name": "newRewards",
							"type": "uint8[5]"
						}
					],
					"name": "setLevelRewards",
					"outputs": [],
					"stateMutability": "nonpayable",
					"type": "function"
				},
				{
					"inputs": [
						{
							"internalType": "uint256",
							"name": "numDays",
							"type": "uint256"
						},
						{
							"internalType": "uint256",
							"name": "apy",
							"type": "uint256"
						}
					],
					"name": "setStakingAPY",
					"outputs": [],
					"stateMutability": "nonpayable",
					"type": "function"
				},
				{
					"inputs": [
						{
							"internalType": "uint256",
							"name": "numDays",
							"type": "uint256"
						},
						{
							"internalType": "uint256",
							"name": "amount",
							"type": "uint256"
						}
					],
					"name": "stake",
					"outputs": [],
					"stateMutability": "nonpayable",
					"type": "function"
				},
				{
					"inputs": [],
					"name": "stakeCounter",
					"outputs": [
						{
							"internalType": "uint256",
							"name": "",
							"type": "uint256"
						}
					],
					"stateMutability": "view",
					"type": "function"
				},
				{
					"inputs": [
						{
							"internalType": "uint256",
							"name": "",
							"type": "uint256"
						}
					],
					"name": "stakingAPY",
					"outputs": [
						{
							"internalType": "uint256",
							"name": "",
							"type": "uint256"
						}
					],
					"stateMutability": "view",
					"type": "function"
				},
				{
					"inputs": [],
					"name": "usdtToken",
					"outputs": [
						{
							"internalType": "contract IERC20",
							"name": "",
							"type": "address"
						}
					],
					"stateMutability": "view",
					"type": "function"
				},
				{
					"inputs": [
						{
							"internalType": "address",
							"name": "",
							"type": "address"
						}
					],
					"name": "users",
					"outputs": [
						{
							"internalType": "address",
							"name": "referrer",
							"type": "address"
						},
						{
							"internalType": "uint256",
							"name": "totalIncome",
							"type": "uint256"
						},
						{
							"internalType": "uint256",
							"name": "levelIncome",
							"type": "uint256"
						},
						{
							"internalType": "bool",
							"name": "registered",
							"type": "bool"
						}
					],
					"stateMutability": "view",
					"type": "function"
				},
				{
					"inputs": [
						{
							"internalType": "uint256",
							"name": "amount",
							"type": "uint256"
						}
					],
					"name": "withdrawUSDT",
					"outputs": [],
					"stateMutability": "nonpayable",
					"type": "function"
				}
			],
			"devdoc": {
				"kind": "dev",
				"methods": {},
				"version": 1
			},
			"evm": {
				"assembly": "    /* \"contracts/roy.sol\":1844:1890  uint8[5] public levelRewards = [5, 3, 2, 1, 1] */\n  0x0120\n    /* \"contracts/roy.sol\":384:20981  contract SikkaStakingDecentralize {... */\n  0x40\n    /* \"contracts/roy.sol\":1844:1890  uint8[5] public levelRewards = [5, 3, 2, 1, 1] */\n  mstore\n    /* \"contracts/roy.sol\":1876:1877  5 */\n  0x05\n    /* \"contracts/roy.sol\":384:20981  contract SikkaStakingDecentralize {... */\n  0x80\n    /* \"contracts/roy.sol\":1844:1890  uint8[5] public levelRewards = [5, 3, 2, 1, 1] */\n  dup2\n  dup2\n  mstore\n    /* \"contracts/roy.sol\":1879:1880  3 */\n  0x03\n    /* \"contracts/roy.sol\":1844:1890  uint8[5] public levelRewards = [5, 3, 2, 1, 1] */\n  0xa0\n  mstore\n    /* \"contracts/roy.sol\":1882:1883  2 */\n  0x02\n    /* \"contracts/roy.sol\":1844:1890  uint8[5] public levelRewards = [5, 3, 2, 1, 1] */\n  0xc0\n  mstore\n    /* \"contracts/roy.sol\":1885:1886  1 */\n  0x01\n    /* \"contracts/roy.sol\":1844:1890  uint8[5] public levelRewards = [5, 3, 2, 1, 1] */\n  0xe0\n  dup2\n  swap1\n  mstore\n  0x0100\n  mstore\n  tag_1\n  swap2\n  0x09\n  swap2\n    /* \"contracts/roy.sol\":384:20981  contract SikkaStakingDecentralize {... */\n  swap1\n    /* \"contracts/roy.sol\":1844:1890  uint8[5] public levelRewards = [5, 3, 2, 1, 1] */\n  tag_2\n  jump\t// in\ntag_1:\n  pop\n    /* \"contracts/roy.sol\":513:834  constructor(address _usdtToken) {... */\n  callvalue\n  dup1\n  iszero\n  tag_3\n  jumpi\n  0x00\n  dup1\n  revert\ntag_3:\n  pop\n  mload(0x40)\n  sub(codesize, bytecodeSize)\n  dup1\n  bytecodeSize\n  dup4\n  codecopy\n  dup2\n  add\n  0x40\n  dup2\n  swap1\n  mstore\n  tag_4\n  swap2\n  tag_5\n  jump\t// in\ntag_4:\n    /* \"contracts/roy.sol\":555:560  owner */\n  0x00\n    /* \"contracts/roy.sol\":555:573  owner = msg.sender */\n  dup1\n  sload\n    /* \"contracts/roy.sol\":563:573  msg.sender */\n  caller\n  not(sub(shl(0xa0, 0x01), 0x01))\n    /* \"contracts/roy.sol\":555:573  owner = msg.sender */\n  swap2\n  dup3\n  and\n  or\n  dup1\n  dup4\n  sstore\n    /* \"contracts/roy.sol\":583:592  usdtToken */\n  0x02\n    /* \"contracts/roy.sol\":583:613  usdtToken = IERC20(_usdtToken) */\n  dup1\n  sload\n  swap1\n  swap3\n  and\n  sub(shl(0xa0, 0x01), 0x01)\n  swap5\n  dup6\n  and\n  or\n  dup3\n  sstore\n    /* \"contracts/roy.sol\":629:634  owner */\n  swap3\n  swap1\n  swap3\n  and\n    /* \"contracts/roy.sol\":623:635  users[owner] */\n  dup2\n  mstore\n    /* \"contracts/roy.sol\":623:628  users */\n  0x03\n    /* \"contracts/roy.sol\":623:635  users[owner] */\n  0x20\n  swap1\n  dup2\n  mstore\n  0x40\n  dup3\n  keccak256\n    /* \"contracts/roy.sol\":623:646  users[owner].registered */\n  0x04\n  swap1\n  dup2\n  add\n    /* \"contracts/roy.sol\":623:653  users[owner].registered = true */\n  dup1\n  sload\n  not(0xff)\n  and\n  0x01\n  swap1\n  dup2\n  or\n  swap1\n  swap2\n  sstore\n    /* \"contracts/roy.sol\":664:674  stakingAPY */\n  0x06\n    /* \"contracts/roy.sol\":664:678  stakingAPY[30] */\n  swap3\n  dup4\n  swap1\n  mstore\n  0xb6ba906ff52451a7a924e2eaeb8aea3ebee7350a8703e5e417edb25358c7dcc1\n    /* \"contracts/roy.sol\":664:682  stakingAPY[30] = 1 */\n  sstore\n    /* \"contracts/roy.sol\":692:706  stakingAPY[60] */\n  0x6ca6dcafc04b6e03616746c3528366f990e332021e35d59275be746d65cae0a7\n    /* \"contracts/roy.sol\":692:710  stakingAPY[60] = 2 */\n  swap4\n  swap1\n  swap4\n  sstore\n    /* \"contracts/roy.sol\":721:735  stakingAPY[90] */\n  0x1727c0104c2870c3003671480695f7dab262614528b49265008e76fd3d48c5fe\n    /* \"contracts/roy.sol\":721:739  stakingAPY[90] = 4 */\n  swap3\n  swap1\n  swap3\n  sstore\n    /* \"contracts/roy.sol\":749:764  stakingAPY[120] */\n  0x5451fe6494362676ddb91456d9957c85d968e6f82956407c931a14c023049e6a\n    /* \"contracts/roy.sol\":749:768  stakingAPY[120] = 6 */\n  swap2\n  swap1\n  swap2\n  sstore\n    /* \"contracts/roy.sol\":796:797  9 */\n  0x09\n    /* \"contracts/roy.sol\":778:793  stakingAPY[180] */\n  0xfb78eb295a86b096b5f095822bd250a277112be4103ea4a7608d96eca726b2c1\n    /* \"contracts/roy.sol\":778:797  stakingAPY[180] = 9 */\n  sstore\n    /* \"contracts/roy.sol\":818:821  365 */\n  0x016d\n    /* \"contracts/roy.sol\":807:822  stakingAPY[365] */\n  swap1\n  mstore\n    /* \"contracts/roy.sol\":825:827  20 */\n  0x14\n    /* \"contracts/roy.sol\":807:822  stakingAPY[365] */\n  0x0bbf8adea84d189c39869a372ab30aeba9246eea044edc5a37ac100921b2c4e1\n    /* \"contracts/roy.sol\":807:827  stakingAPY[365] = 20 */\n  sstore\n    /* \"contracts/roy.sol\":384:20981  contract SikkaStakingDecentralize {... */\n  jump(tag_17)\ntag_2:\n  0x01\n  dup4\n  add\n  swap2\n  dup4\n  swap1\n  dup3\n  iszero\n  tag_9\n  jumpi\n  swap2\n  0x20\n  mul\n  dup3\n  add\n  0x00\ntag_10:\n  dup4\n  dup3\n  gt\n  iszero\n  tag_11\n  jumpi\n  dup4\n  mload\n  dup4\n  dup3\n  0x0100\n  exp\n  dup2\n  sload\n  dup2\n  0xff\n  mul\n  not\n  and\n  swap1\n  dup4\n  0xff\n  and\n  mul\n  or\n  swap1\n  sstore\n  pop\n  swap3\n  0x20\n  add\n  swap3\n  0x01\n  add\n  0x20\n  dup2\n  0x00\n  add\n  div\n  swap3\n  dup4\n  add\n  swap3\n  0x01\n  sub\n  mul\n  jump(tag_10)\ntag_11:\n  dup1\n  iszero\n  tag_12\n  jumpi\n  dup3\n  dup2\n  0x0100\n  exp\n  dup2\n  sload\n  swap1\n  0xff\n  mul\n  not\n  and\n  swap1\n  sstore\n  0x01\n  add\n  0x20\n  dup2\n  0x00\n  add\n  div\n  swap3\n  dup4\n  add\n  swap3\n  0x01\n  sub\n  mul\n  jump(tag_11)\ntag_12:\n  pop\ntag_9:\n  pop\n  tag_13\n  swap3\n  swap2\n  pop\n  tag_14\n  jump\t// in\ntag_13:\n  pop\n  swap1\n  jump\t// out\ntag_14:\ntag_15:\n  dup1\n  dup3\n  gt\n  iszero\n  tag_13\n  jumpi\n  0x00\n  dup2\n  sstore\n  0x01\n  add\n  jump(tag_15)\n    /* \"#utility.yul\":14:324   */\ntag_5:\n  0x00\n    /* \"#utility.yul\":137:139   */\n  0x20\n    /* \"#utility.yul\":125:134   */\n  dup3\n    /* \"#utility.yul\":116:123   */\n  dup5\n    /* \"#utility.yul\":112:135   */\n  sub\n    /* \"#utility.yul\":108:140   */\n  slt\n    /* \"#utility.yul\":105:107   */\n  iszero\n  tag_19\n  jumpi\n    /* \"#utility.yul\":158:164   */\n  dup1\n    /* \"#utility.yul\":150:156   */\n  dup2\n    /* \"#utility.yul\":143:165   */\n  revert\n    /* \"#utility.yul\":105:107   */\ntag_19:\n    /* \"#utility.yul\":189:205   */\n  dup2\n  mload\n  sub(shl(0xa0, 0x01), 0x01)\n    /* \"#utility.yul\":234:265   */\n  dup2\n  and\n    /* \"#utility.yul\":224:266   */\n  dup2\n  eq\n    /* \"#utility.yul\":214:216   */\n  tag_20\n  jumpi\n    /* \"#utility.yul\":285:291   */\n  dup2\n    /* \"#utility.yul\":277:283   */\n  dup3\n    /* \"#utility.yul\":270:292   */\n  revert\n    /* \"#utility.yul\":214:216   */\ntag_20:\n    /* \"#utility.yul\":313:318   */\n  swap4\n    /* \"#utility.yul\":95:324   */\n  swap3\n  pop\n  pop\n  pop\n  jump\t// out\ntag_17:\n    /* \"contracts/roy.sol\":384:20981  contract SikkaStakingDecentralize {... */\n  dataSize(sub_0)\n  dup1\n  dataOffset(sub_0)\n  0x00\n  codecopy\n  0x00\n  return\nstop\n\nsub_0: assembly {\n        /* \"contracts/roy.sol\":384:20981  contract SikkaStakingDecentralize {... */\n      mstore(0x40, 0x80)\n      callvalue\n      dup1\n      iszero\n      tag_1\n      jumpi\n      0x00\n      dup1\n      revert\n    tag_1:\n      pop\n      jumpi(tag_2, lt(calldatasize, 0x04))\n      shr(0xe0, calldataload(0x00))\n      dup1\n      0x98278efb\n      gt\n      tag_35\n      jumpi\n      dup1\n      0xc2d3c677\n      gt\n      tag_36\n      jumpi\n      dup1\n      0xe45a57d0\n      gt\n      tag_37\n      jumpi\n      dup1\n      0xe45a57d0\n      eq\n      tag_31\n      jumpi\n      dup1\n      0xef71ae56\n      eq\n      tag_32\n      jumpi\n      dup1\n      0xf6e88873\n      eq\n      tag_33\n      jumpi\n      dup1\n      0xf7b17d10\n      eq\n      tag_34\n      jumpi\n      jump(tag_2)\n    tag_37:\n      dup1\n      0xc2d3c677\n      eq\n      tag_27\n      jumpi\n      dup1\n      0xc3c5a547\n      eq\n      tag_28\n      jumpi\n      dup1\n      0xc5b89c0a\n      eq\n      tag_11\n      jumpi\n      dup1\n      0xd85c8966\n      eq\n      tag_30\n      jumpi\n      jump(tag_2)\n    tag_36:\n      dup1\n      0xa87430ba\n      gt\n      tag_38\n      jumpi\n      dup1\n      0xa87430ba\n      eq\n      tag_23\n      jumpi\n      dup1\n      0xa98ad46c\n      eq\n      tag_24\n      jumpi\n      dup1\n      0xaa7ed462\n      eq\n      tag_25\n      jumpi\n      dup1\n      0xbd297178\n      eq\n      tag_26\n      jumpi\n      jump(tag_2)\n    tag_38:\n      dup1\n      0x98278efb\n      eq\n      tag_19\n      jumpi\n      dup1\n      0x9be572f6\n      eq\n      tag_20\n      jumpi\n      dup1\n      0x9d747bad\n      eq\n      tag_21\n      jumpi\n      dup1\n      0xa2bdedf4\n      eq\n      tag_22\n      jumpi\n      jump(tag_2)\n    tag_35:\n      dup1\n      0x5bd4e16a\n      gt\n      tag_39\n      jumpi\n      dup1\n      0x797c7f5f\n      gt\n      tag_40\n      jumpi\n      dup1\n      0x797c7f5f\n      eq\n      tag_15\n      jumpi\n      dup1\n      0x7b0472f0\n      eq\n      tag_16\n      jumpi\n      dup1\n      0x875bb4e2\n      eq\n      tag_17\n      jumpi\n      dup1\n      0x8da5cb5b\n      eq\n      tag_18\n      jumpi\n      jump(tag_2)\n    tag_40:\n      dup1\n      0x5bd4e16a\n      eq\n      tag_11\n      jumpi\n      dup1\n      0x656596a5\n      eq\n      tag_12\n      jumpi\n      dup1\n      0x6c8c2156\n      eq\n      tag_13\n      jumpi\n      dup1\n      0x6f9fb98a\n      eq\n      tag_14\n      jumpi\n      jump(tag_2)\n    tag_39:\n      dup1\n      0x379607f5\n      gt\n      tag_41\n      jumpi\n      dup1\n      0x379607f5\n      eq\n      tag_7\n      jumpi\n      dup1\n      0x3ea521ef\n      eq\n      tag_8\n      jumpi\n      dup1\n      0x4420e486\n      eq\n      tag_9\n      jumpi\n      dup1\n      0x4850d2a2\n      eq\n      tag_10\n      jumpi\n      jump(tag_2)\n    tag_41:\n      dup1\n      0x05ad3935\n      eq\n      tag_3\n      jumpi\n      dup1\n      0x1e43eb27\n      eq\n      tag_4\n      jumpi\n      dup1\n      0x21923bde\n      eq\n      tag_5\n      jumpi\n      dup1\n      0x28fe7031\n      eq\n      tag_6\n      jumpi\n    tag_2:\n      0x00\n      dup1\n      revert\n        /* \"contracts/roy.sol\":1580:1637  mapping(address => ReferralInfo[]) public directReferrals */\n    tag_3:\n      tag_42\n      tag_43\n      calldatasize\n      0x04\n      tag_44\n      jump\t// in\n    tag_43:\n      tag_45\n      jump\t// in\n    tag_42:\n      mload(0x40)\n      tag_46\n      swap4\n      swap3\n      swap2\n      swap1\n      tag_47\n      jump\t// in\n    tag_46:\n      mload(0x40)\n      dup1\n      swap2\n      sub\n      swap1\n      return\n        /* \"contracts/roy.sol\":1643:1694  mapping(uint256 => address) public positionIdToUser */\n    tag_4:\n      tag_48\n      tag_49\n      calldatasize\n      0x04\n      tag_50\n      jump\t// in\n    tag_49:\n      tag_51\n      jump\t// in\n    tag_48:\n      mload(0x40)\n      tag_46\n      swap2\n      swap1\n      tag_53\n      jump\t// in\n        /* \"contracts/roy.sol\":17951:18199  function getUserLevel(address user) external view returns (uint8) {... */\n    tag_5:\n      tag_54\n      tag_55\n      calldatasize\n      0x04\n      tag_56\n      jump\t// in\n    tag_55:\n      tag_57\n      jump\t// in\n    tag_54:\n      mload(0x40)\n      tag_46\n      swap2\n      swap1\n      tag_59\n      jump\t// in\n        /* \"contracts/roy.sol\":16138:16492  function getPositionIds(address _user)... */\n    tag_6:\n      tag_60\n      tag_61\n      calldatasize\n      0x04\n      tag_56\n      jump\t// in\n    tag_61:\n      tag_62\n      jump\t// in\n    tag_60:\n      mload(0x40)\n      tag_46\n      swap2\n      swap1\n      tag_64\n      jump\t// in\n        /* \"contracts/roy.sol\":11567:13085  function claim(uint256 _positionId) external onlyRegistered {... */\n    tag_7:\n      tag_65\n      tag_66\n      calldatasize\n      0x04\n      tag_50\n      jump\t// in\n    tag_66:\n      tag_67\n      jump\t// in\n    tag_65:\n      stop\n        /* \"contracts/roy.sol\":20279:20441  function withdrawUSDT(uint256 amount) external {... */\n    tag_8:\n      tag_65\n      tag_69\n      calldatasize\n      0x04\n      tag_50\n      jump\t// in\n    tag_69:\n      tag_70\n      jump\t// in\n        /* \"contracts/roy.sol\":2252:2988  function register(address referrer) external {... */\n    tag_9:\n      tag_65\n      tag_72\n      calldatasize\n      0x04\n      tag_56\n      jump\t// in\n    tag_72:\n      tag_73\n      jump\t// in\n        /* \"contracts/roy.sol\":11248:11412  function setStakingAPY(uint256 numDays, uint256 apy) external onlyOwner {... */\n    tag_10:\n      tag_65\n      tag_75\n      calldatasize\n      0x04\n      tag_76\n      jump\t// in\n    tag_75:\n      tag_77\n      jump\t// in\n        /* \"contracts/roy.sol\":16825:16942  function getLevelIncome(address user) external view returns (uint256) {... */\n    tag_11:\n      tag_78\n      tag_79\n      calldatasize\n      0x04\n      tag_56\n      jump\t// in\n    tag_79:\n      tag_80\n      jump\t// in\n    tag_78:\n      mload(0x40)\n      tag_46\n      swap2\n      swap1\n      tag_82\n      jump\t// in\n        /* \"contracts/roy.sol\":11447:11561  function setLevelRewards(uint8[5] memory newRewards) external onlyOwner {... */\n    tag_12:\n      tag_65\n      tag_84\n      calldatasize\n      0x04\n      tag_85\n      jump\t// in\n    tag_84:\n      tag_86\n      jump\t// in\n        /* \"contracts/roy.sol\":13091:14752  function claimEmergency(uint256 _positionId) external onlyRegistered {... */\n    tag_13:\n      tag_65\n      tag_88\n      calldatasize\n      0x04\n      tag_50\n      jump\t// in\n    tag_88:\n      tag_89\n      jump\t// in\n        /* \"contracts/roy.sol\":10614:10734  function getContractBalance() external view returns (uint256) {... */\n    tag_14:\n      tag_78\n      tag_91\n      jump\t// in\n        /* \"contracts/roy.sol\":14758:16132  function getStakeByPositionId(uint256 _positionId)... */\n    tag_15:\n      tag_93\n      tag_94\n      calldatasize\n      0x04\n      tag_50\n      jump\t// in\n    tag_94:\n      tag_95\n      jump\t// in\n    tag_93:\n      mload(0x40)\n      tag_46\n      swap9\n      swap8\n      swap7\n      swap6\n      swap5\n      swap4\n      swap3\n      swap2\n      swap1\n      tag_97\n      jump\t// in\n        /* \"contracts/roy.sol\":6774:10609  function stake(uint256 numDays, uint256 amount) external onlyRegistered {... */\n    tag_16:\n      tag_65\n      tag_99\n      calldatasize\n      0x04\n      tag_76\n      jump\t// in\n    tag_99:\n      tag_100\n      jump\t// in\n        /* \"contracts/roy.sol\":1700:1745  mapping(uint256 => uint256) public stakingAPY */\n    tag_17:\n      tag_78\n      tag_102\n      calldatasize\n      0x04\n      tag_50\n      jump\t// in\n    tag_102:\n      tag_103\n      jump\t// in\n        /* \"contracts/roy.sol\":424:444  address public owner */\n    tag_18:\n      tag_48\n      tag_106\n      jump\t// in\n        /* \"contracts/roy.sol\":16498:16656  function getDirectReferralCount(address user)... */\n    tag_19:\n      tag_78\n      tag_109\n      calldatasize\n      0x04\n      tag_56\n      jump\t// in\n    tag_109:\n      tag_110\n      jump\t// in\n        /* \"contracts/roy.sol\":20564:20660  function getTotalUsers() external view returns (uint256) {... */\n    tag_20:\n      tag_78\n      tag_113\n      jump\t// in\n        /* \"contracts/roy.sol\":16950:17694  function getReferralIncomeDetails(address user)... */\n    tag_21:\n      tag_115\n      tag_116\n      calldatasize\n      0x04\n      tag_56\n      jump\t// in\n    tag_116:\n      tag_117\n      jump\t// in\n    tag_115:\n      mload(0x40)\n      tag_46\n      swap4\n      swap3\n      swap2\n      swap1\n      tag_119\n      jump\t// in\n        /* \"contracts/roy.sol\":1813:1838  address[] public allUsers */\n    tag_22:\n      tag_48\n      tag_121\n      calldatasize\n      0x04\n      tag_50\n      jump\t// in\n    tag_121:\n      tag_122\n      jump\t// in\n        /* \"contracts/roy.sol\":1537:1574  mapping(address => User) public users */\n    tag_23:\n      tag_124\n      tag_125\n      calldatasize\n      0x04\n      tag_56\n      jump\t// in\n    tag_125:\n      tag_126\n      jump\t// in\n    tag_124:\n      mload(0x40)\n      tag_46\n      swap5\n      swap4\n      swap3\n      swap2\n      swap1\n      tag_128\n      jump\t// in\n        /* \"contracts/roy.sol\":483:506  IERC20 public usdtToken */\n    tag_24:\n      tag_48\n      tag_130\n      jump\t// in\n        /* \"contracts/roy.sol\":16662:16819  function getDirectReferralIncome(address user)... */\n    tag_25:\n      tag_78\n      tag_134\n      calldatasize\n      0x04\n      tag_56\n      jump\t// in\n    tag_134:\n      tag_135\n      jump\t// in\n        /* \"contracts/roy.sol\":10740:11215  function getEstimatedReturn(uint256 amount, uint256 numDays)... */\n    tag_26:\n      tag_137\n      tag_138\n      calldatasize\n      0x04\n      tag_76\n      jump\t// in\n    tag_138:\n      tag_139\n      jump\t// in\n    tag_137:\n      mload(0x40)\n      tag_46\n      swap3\n      swap2\n      swap1\n      tag_141\n      jump\t// in\n        /* \"contracts/roy.sol\":17700:17817  function getTotalIncome(address user) external view returns (uint256) {... */\n    tag_27:\n      tag_78\n      tag_143\n      calldatasize\n      0x04\n      tag_56\n      jump\t// in\n    tag_143:\n      tag_144\n      jump\t// in\n        /* \"contracts/roy.sol\":20447:20558  function isRegistered(address user) external view returns (bool) {... */\n    tag_28:\n      tag_146\n      tag_147\n      calldatasize\n      0x04\n      tag_56\n      jump\t// in\n    tag_147:\n      tag_148\n      jump\t// in\n    tag_146:\n      mload(0x40)\n      tag_46\n      swap2\n      swap1\n      tag_150\n      jump\t// in\n        /* \"contracts/roy.sol\":20666:20979  function ownerTransfer(address to, uint256 amount) external onlyOwner {... */\n    tag_30:\n      tag_65\n      tag_156\n      calldatasize\n      0x04\n      tag_44\n      jump\t// in\n    tag_156:\n      tag_157\n      jump\t// in\n        /* \"contracts/roy.sol\":1844:1890  uint8[5] public levelRewards = [5, 3, 2, 1, 1] */\n    tag_31:\n      tag_54\n      tag_159\n      calldatasize\n      0x04\n      tag_50\n      jump\t// in\n    tag_159:\n      tag_160\n      jump\t// in\n        /* \"contracts/roy.sol\":18205:20273  function getLevelIncomeDistribution(address _user)... */\n    tag_32:\n      tag_162\n      tag_163\n      calldatasize\n      0x04\n      tag_56\n      jump\t// in\n    tag_163:\n      tag_164\n      jump\t// in\n    tag_162:\n      mload(0x40)\n      tag_46\n      swap2\n      swap1\n      tag_166\n      jump\t// in\n        /* \"contracts/roy.sol\":1751:1806  mapping(address => uint256) public directReferralIncome */\n    tag_33:\n      tag_78\n      tag_168\n      calldatasize\n      0x04\n      tag_56\n      jump\t// in\n    tag_168:\n      tag_169\n      jump\t// in\n        /* \"contracts/roy.sol\":450:477  uint256 public stakeCounter */\n    tag_34:\n      tag_78\n      tag_172\n      jump\t// in\n        /* \"contracts/roy.sol\":1580:1637  mapping(address => ReferralInfo[]) public directReferrals */\n    tag_45:\n      mstore(0x20, 0x04)\n      dup2\n      0x00\n      mstore\n      keccak256(0x00, 0x40)\n      dup2\n      dup2\n      sload\n      dup2\n      lt\n      tag_174\n      jumpi\n      0x00\n      dup1\n      revert\n    tag_174:\n      0x00\n      swap2\n      dup3\n      mstore\n      0x20\n      swap1\n      swap2\n      keccak256\n      0x03\n      swap1\n      swap2\n      mul\n      add\n      dup1\n      sload\n      0x01\n      dup3\n      add\n      sload\n      0x02\n      swap1\n      swap3\n      add\n      sload\n      sub(shl(0xa0, 0x01), 0x01)\n      swap1\n      swap2\n      and\n      swap4\n      pop\n      swap1\n      swap2\n      pop\n      dup4\n      jump\t// out\n        /* \"contracts/roy.sol\":1643:1694  mapping(uint256 => address) public positionIdToUser */\n    tag_51:\n      mstore(0x20, 0x05)\n      0x00\n      swap1\n      dup2\n      mstore\n      0x40\n      swap1\n      keccak256\n      sload\n      sub(shl(0xa0, 0x01), 0x01)\n      and\n      dup2\n      jump\t// out\n        /* \"contracts/roy.sol\":17951:18199  function getUserLevel(address user) external view returns (uint8) {... */\n    tag_57:\n      sub(shl(0xa0, 0x01), 0x01)\n        /* \"contracts/roy.sol\":18043:18064  directReferrals[user] */\n      dup2\n      and\n        /* \"contracts/roy.sol\":18010:18015  uint8 */\n      0x00\n        /* \"contracts/roy.sol\":18043:18064  directReferrals[user] */\n      swap1\n      dup2\n      mstore\n        /* \"contracts/roy.sol\":18043:18058  directReferrals */\n      0x04\n        /* \"contracts/roy.sol\":18043:18064  directReferrals[user] */\n      0x20\n      mstore\n      0x40\n      dup2\n      keccak256\n        /* \"contracts/roy.sol\":18043:18071  directReferrals[user].length */\n      sload\n        /* \"contracts/roy.sol\":18094:18096  10 */\n      0x0a\n        /* \"contracts/roy.sol\":18085:18096  count >= 10 */\n      dup2\n      lt\n        /* \"contracts/roy.sol\":18081:18106  if (count >= 10) return 3 */\n      tag_177\n      jumpi\n        /* \"contracts/roy.sol\":18105:18106  3 */\n      0x03\n        /* \"contracts/roy.sol\":18098:18106  return 3 */\n      swap2\n      pop\n      pop\n      jump(tag_176)\n        /* \"contracts/roy.sol\":18081:18106  if (count >= 10) return 3 */\n    tag_177:\n        /* \"contracts/roy.sol\":18129:18130  5 */\n      0x05\n        /* \"contracts/roy.sol\":18120:18125  count */\n      dup2\n        /* \"contracts/roy.sol\":18120:18130  count >= 5 */\n      lt\n        /* \"contracts/roy.sol\":18116:18140  if (count >= 5) return 2 */\n      tag_178\n      jumpi\n        /* \"contracts/roy.sol\":18139:18140  2 */\n      0x02\n        /* \"contracts/roy.sol\":18132:18140  return 2 */\n      swap2\n      pop\n      pop\n      jump(tag_176)\n        /* \"contracts/roy.sol\":18116:18140  if (count >= 5) return 2 */\n    tag_178:\n        /* \"contracts/roy.sol\":18163:18164  1 */\n      0x01\n        /* \"contracts/roy.sol\":18154:18159  count */\n      dup2\n        /* \"contracts/roy.sol\":18154:18164  count >= 1 */\n      lt\n        /* \"contracts/roy.sol\":18150:18174  if (count >= 1) return 1 */\n      tag_179\n      jumpi\n        /* \"contracts/roy.sol\":18173:18174  1 */\n      0x01\n        /* \"contracts/roy.sol\":18166:18174  return 1 */\n      swap2\n      pop\n      pop\n      jump(tag_176)\n        /* \"contracts/roy.sol\":18150:18174  if (count >= 1) return 1 */\n    tag_179:\n        /* \"contracts/roy.sol\":18191:18192  0 */\n      0x00\n        /* \"contracts/roy.sol\":18184:18192  return 0 */\n      swap2\n      pop\n      pop\n        /* \"contracts/roy.sol\":17951:18199  function getUserLevel(address user) external view returns (uint8) {... */\n    tag_176:\n      swap2\n      swap1\n      pop\n      jump\t// out\n        /* \"contracts/roy.sol\":16138:16492  function getPositionIds(address _user)... */\n    tag_62:\n      sub(shl(0xa0, 0x01), 0x01)\n        /* \"contracts/roy.sol\":16272:16284  users[_user] */\n      dup2\n      and\n        /* \"contracts/roy.sol\":16256:16269  uint256 count */\n      0x00\n        /* \"contracts/roy.sol\":16272:16284  users[_user] */\n      swap1\n      dup2\n      mstore\n        /* \"contracts/roy.sol\":16272:16277  users */\n      0x03\n        /* \"contracts/roy.sol\":16272:16284  users[_user] */\n      0x20\n      mstore\n      0x40\n      dup2\n      keccak256\n        /* \"contracts/roy.sol\":16272:16291  users[_user].stakes */\n      0x01\n      add\n        /* \"contracts/roy.sol\":16272:16298  users[_user].stakes.length */\n      sload\n        /* \"contracts/roy.sol\":16224:16240  uint256[] memory */\n      0x60\n      swap2\n        /* \"contracts/roy.sol\":16272:16298  users[_user].stakes.length */\n      dup2\n        /* \"contracts/roy.sol\":16331:16351  new uint256[](count) */\n      0xffffffffffffffff\n      dup2\n      gt\n      iszero\n      tag_181\n      jumpi\n      mstore(0x00, shl(0xe0, 0x4e487b71))\n      mstore(0x04, 0x41)\n      revert(0x00, 0x24)\n    tag_181:\n      mload(0x40)\n      swap1\n      dup1\n      dup3\n      mstore\n      dup1\n      0x20\n      mul\n      0x20\n      add\n      dup3\n      add\n      0x40\n      mstore\n      dup1\n      iszero\n      tag_182\n      jumpi\n      dup2\n      0x20\n      add\n      0x20\n      dup3\n      mul\n      dup1\n      calldatasize\n      dup4\n      calldatacopy\n      add\n      swap1\n      pop\n    tag_182:\n      pop\n        /* \"contracts/roy.sol\":16308:16351  uint256[] memory ids = new uint256[](count) */\n      swap1\n      pop\n        /* \"contracts/roy.sol\":16367:16376  uint256 i */\n      0x00\n        /* \"contracts/roy.sol\":16362:16465  for (uint256 i = 0; i < count; i++) {... */\n    tag_183:\n        /* \"contracts/roy.sol\":16386:16391  count */\n      dup3\n        /* \"contracts/roy.sol\":16382:16383  i */\n      dup2\n        /* \"contracts/roy.sol\":16382:16391  i < count */\n      lt\n        /* \"contracts/roy.sol\":16362:16465  for (uint256 i = 0; i < count; i++) {... */\n      iszero\n      tag_184\n      jumpi\n      sub(shl(0xa0, 0x01), 0x01)\n        /* \"contracts/roy.sol\":16421:16433  users[_user] */\n      dup6\n      and\n      0x00\n      swap1\n      dup2\n      mstore\n        /* \"contracts/roy.sol\":16421:16426  users */\n      0x03\n        /* \"contracts/roy.sol\":16421:16433  users[_user] */\n      0x20\n      mstore\n      0x40\n      swap1\n      keccak256\n        /* \"contracts/roy.sol\":16421:16440  users[_user].stakes */\n      0x01\n      add\n        /* \"contracts/roy.sol\":16421:16443  users[_user].stakes[i] */\n      dup1\n      sload\n        /* \"contracts/roy.sol\":16441:16442  i */\n      dup3\n      swap1\n        /* \"contracts/roy.sol\":16421:16443  users[_user].stakes[i] */\n      dup2\n      lt\n      tag_186\n      jumpi\n      mstore(0x00, shl(0xe0, 0x4e487b71))\n      mstore(0x04, 0x32)\n      revert(0x00, 0x24)\n    tag_186:\n      swap1\n      0x00\n      mstore\n      keccak256(0x00, 0x20)\n      swap1\n      0x06\n      mul\n      add\n        /* \"contracts/roy.sol\":16421:16454  users[_user].stakes[i].positionId */\n      0x01\n      add\n      sload\n        /* \"contracts/roy.sol\":16412:16415  ids */\n      dup3\n        /* \"contracts/roy.sol\":16416:16417  i */\n      dup3\n        /* \"contracts/roy.sol\":16412:16418  ids[i] */\n      dup2\n      mload\n      dup2\n      lt\n      tag_188\n      jumpi\n      mstore(0x00, shl(0xe0, 0x4e487b71))\n      mstore(0x04, 0x32)\n      revert(0x00, 0x24)\n    tag_188:\n      0x20\n      swap1\n      dup2\n      mul\n      swap2\n      swap1\n      swap2\n      add\n      add\n        /* \"contracts/roy.sol\":16412:16454  ids[i] = users[_user].stakes[i].positionId */\n      mstore\n        /* \"contracts/roy.sol\":16393:16396  i++ */\n      dup1\n      tag_189\n      dup2\n      tag_190\n      jump\t// in\n    tag_189:\n      swap2\n      pop\n      pop\n        /* \"contracts/roy.sol\":16362:16465  for (uint256 i = 0; i < count; i++) {... */\n      jump(tag_183)\n    tag_184:\n      pop\n        /* \"contracts/roy.sol\":16482:16485  ids */\n      swap4\n        /* \"contracts/roy.sol\":16138:16492  function getPositionIds(address _user)... */\n      swap3\n      pop\n      pop\n      pop\n      jump\t// out\n        /* \"contracts/roy.sol\":11567:13085  function claim(uint256 _positionId) external onlyRegistered {... */\n    tag_67:\n        /* \"contracts/roy.sol\":2076:2086  msg.sender */\n      caller\n        /* \"contracts/roy.sol\":2070:2087  users[msg.sender] */\n      0x00\n      swap1\n      dup2\n      mstore\n        /* \"contracts/roy.sol\":2070:2075  users */\n      0x03\n        /* \"contracts/roy.sol\":2070:2087  users[msg.sender] */\n      0x20\n      mstore\n      0x40\n      swap1\n      keccak256\n        /* \"contracts/roy.sol\":2070:2098  users[msg.sender].registered */\n      0x04\n      add\n      sload\n      0xff\n      and\n        /* \"contracts/roy.sol\":2062:2117  require(users[msg.sender].registered, \"Not registered\") */\n      tag_192\n      jumpi\n      mload(0x40)\n      shl(0xe5, 0x461bcd)\n      dup2\n      mstore\n      0x04\n      add\n      tag_193\n      swap1\n      tag_194\n      jump\t// in\n    tag_193:\n      mload(0x40)\n      dup1\n      swap2\n      sub\n      swap1\n      revert\n    tag_192:\n        /* \"contracts/roy.sol\":11659:11669  msg.sender */\n      caller\n        /* \"contracts/roy.sol\":11637:11656  address userAddress */\n      0x00\n        /* \"contracts/roy.sol\":11699:11717  users[userAddress] */\n      dup2\n      dup2\n      mstore\n        /* \"contracts/roy.sol\":11699:11704  users */\n      0x03\n        /* \"contracts/roy.sol\":11699:11717  users[userAddress] */\n      0x20\n      mstore\n      0x40\n      dup2\n      keccak256\n      swap1\n        /* \"contracts/roy.sol\":11752:11763  user.stakes */\n      0x01\n      dup3\n      add\n      swap1\n        /* \"contracts/roy.sol\":11637:11656  address userAddress */\n      dup1\n        /* \"contracts/roy.sol\":11803:13016  for (uint256 i = 0; i < stakes.length; i++) {... */\n    tag_196:\n        /* \"contracts/roy.sol\":11827:11840  stakes.length */\n      dup3\n      sload\n        /* \"contracts/roy.sol\":11823:11840  i < stakes.length */\n      dup2\n      lt\n        /* \"contracts/roy.sol\":11803:13016  for (uint256 i = 0; i < stakes.length; i++) {... */\n      iszero\n      tag_197\n      jumpi\n        /* \"contracts/roy.sol\":11889:11900  _positionId */\n      dup6\n        /* \"contracts/roy.sol\":11865:11871  stakes */\n      dup4\n        /* \"contracts/roy.sol\":11872:11873  i */\n      dup3\n        /* \"contracts/roy.sol\":11865:11874  stakes[i] */\n      dup2\n      sload\n      dup2\n      lt\n      tag_199\n      jumpi\n      mstore(0x00, shl(0xe0, 0x4e487b71))\n      mstore(0x04, 0x32)\n      revert(0x00, 0x24)\n    tag_199:\n      swap1\n      0x00\n      mstore\n      keccak256(0x00, 0x20)\n      swap1\n      0x06\n      mul\n      add\n        /* \"contracts/roy.sol\":11865:11885  stakes[i].positionId */\n      0x01\n      add\n      sload\n        /* \"contracts/roy.sol\":11865:11900  stakes[i].positionId == _positionId */\n      eq\n        /* \"contracts/roy.sol\":11865:11922  stakes[i].positionId == _positionId && !stakes[i].claimed */\n      dup1\n      iszero\n      tag_201\n      jumpi\n      pop\n        /* \"contracts/roy.sol\":11905:11911  stakes */\n      dup3\n        /* \"contracts/roy.sol\":11912:11913  i */\n      dup2\n        /* \"contracts/roy.sol\":11905:11914  stakes[i] */\n      dup2\n      sload\n      dup2\n      lt\n      tag_202\n      jumpi\n      mstore(0x00, shl(0xe0, 0x4e487b71))\n      mstore(0x04, 0x32)\n      revert(0x00, 0x24)\n    tag_202:\n      0x00\n      swap2\n      dup3\n      mstore\n      0x20\n      swap1\n      swap2\n      keccak256\n        /* \"contracts/roy.sol\":11905:11922  stakes[i].claimed */\n      0x05\n        /* \"contracts/roy.sol\":11905:11914  stakes[i] */\n      0x06\n      swap1\n      swap3\n      mul\n      add\n        /* \"contracts/roy.sol\":11905:11922  stakes[i].claimed */\n      add\n      sload\n      0xff\n      and\n        /* \"contracts/roy.sol\":11904:11922  !stakes[i].claimed */\n      iszero\n        /* \"contracts/roy.sol\":11865:11922  stakes[i].positionId == _positionId && !stakes[i].claimed */\n    tag_201:\n        /* \"contracts/roy.sol\":11861:13006  if (stakes[i].positionId == _positionId && !stakes[i].claimed) {... */\n      iszero\n      tag_204\n      jumpi\n        /* \"contracts/roy.sol\":12037:12043  stakes */\n      dup3\n        /* \"contracts/roy.sol\":12044:12045  i */\n      dup2\n        /* \"contracts/roy.sol\":12037:12046  stakes[i] */\n      dup2\n      sload\n      dup2\n      lt\n      tag_205\n      jumpi\n      mstore(0x00, shl(0xe0, 0x4e487b71))\n      mstore(0x04, 0x32)\n      revert(0x00, 0x24)\n    tag_205:\n      swap1\n      0x00\n      mstore\n      keccak256(0x00, 0x20)\n      swap1\n      0x06\n      mul\n      add\n        /* \"contracts/roy.sol\":12037:12054  stakes[i].numDays */\n      0x04\n      add\n      sload\n        /* \"contracts/roy.sol\":12057:12063  1 days */\n      0x015180\n        /* \"contracts/roy.sol\":12037:12063  stakes[i].numDays * 1 days */\n      tag_207\n      swap2\n      swap1\n      tag_208\n      jump\t// in\n    tag_207:\n        /* \"contracts/roy.sol\":12014:12020  stakes */\n      dup4\n        /* \"contracts/roy.sol\":12021:12022  i */\n      dup3\n        /* \"contracts/roy.sol\":12014:12023  stakes[i] */\n      dup2\n      sload\n      dup2\n      lt\n      tag_209\n      jumpi\n      mstore(0x00, shl(0xe0, 0x4e487b71))\n      mstore(0x04, 0x32)\n      revert(0x00, 0x24)\n    tag_209:\n      swap1\n      0x00\n      mstore\n      keccak256(0x00, 0x20)\n      swap1\n      0x06\n      mul\n      add\n        /* \"contracts/roy.sol\":12014:12033  stakes[i].timestamp */\n      0x03\n      add\n      sload\n        /* \"contracts/roy.sol\":12014:12064  stakes[i].timestamp + (stakes[i].numDays * 1 days) */\n      tag_211\n      swap2\n      swap1\n      tag_212\n      jump\t// in\n    tag_211:\n        /* \"contracts/roy.sol\":11971:11986  block.timestamp */\n      timestamp\n        /* \"contracts/roy.sol\":11971:12064  block.timestamp >=... */\n      lt\n      iszero\n        /* \"contracts/roy.sol\":11942:12138  require(... */\n      tag_213\n      jumpi\n      mload(0x40)\n      shl(0xe5, 0x461bcd)\n      dup2\n      mstore\n      0x04\n      add\n      tag_193\n      swap1\n      tag_215\n      jump\t// in\n    tag_213:\n        /* \"contracts/roy.sol\":12157:12168  uint256 apy */\n      0x00\n        /* \"contracts/roy.sol\":12171:12181  stakingAPY */\n      0x06\n        /* \"contracts/roy.sol\":12171:12200  stakingAPY[stakes[i].numDays] */\n      0x00\n        /* \"contracts/roy.sol\":12182:12188  stakes */\n      dup6\n        /* \"contracts/roy.sol\":12189:12190  i */\n      dup5\n        /* \"contracts/roy.sol\":12182:12191  stakes[i] */\n      dup2\n      sload\n      dup2\n      lt\n      tag_216\n      jumpi\n      mstore(0x00, shl(0xe0, 0x4e487b71))\n      mstore(0x04, 0x32)\n      revert(0x00, 0x24)\n    tag_216:\n      swap1\n      0x00\n      mstore\n      keccak256(0x00, 0x20)\n      swap1\n      0x06\n      mul\n      add\n        /* \"contracts/roy.sol\":12182:12199  stakes[i].numDays */\n      0x04\n      add\n      sload\n        /* \"contracts/roy.sol\":12171:12200  stakingAPY[stakes[i].numDays] */\n      dup2\n      mstore\n      0x20\n      add\n      swap1\n      dup2\n      mstore\n      0x20\n      add\n      0x00\n      keccak256\n      sload\n        /* \"contracts/roy.sol\":12157:12200  uint256 apy = stakingAPY[stakes[i].numDays] */\n      swap1\n      pop\n        /* \"contracts/roy.sol\":12218:12234  uint256 interest */\n      0x00\n        /* \"contracts/roy.sol\":12325:12334  100 * 365 */\n      0x8e94\n        /* \"contracts/roy.sol\":12303:12309  stakes */\n      dup6\n        /* \"contracts/roy.sol\":12310:12311  i */\n      dup5\n        /* \"contracts/roy.sol\":12303:12312  stakes[i] */\n      dup2\n      sload\n      dup2\n      lt\n      tag_218\n      jumpi\n      mstore(0x00, shl(0xe0, 0x4e487b71))\n      mstore(0x04, 0x32)\n      revert(0x00, 0x24)\n    tag_218:\n      swap1\n      0x00\n      mstore\n      keccak256(0x00, 0x20)\n      swap1\n      0x06\n      mul\n      add\n        /* \"contracts/roy.sol\":12303:12320  stakes[i].numDays */\n      0x04\n      add\n      sload\n        /* \"contracts/roy.sol\":12277:12280  apy */\n      dup4\n        /* \"contracts/roy.sol\":12238:12244  stakes */\n      dup8\n        /* \"contracts/roy.sol\":12245:12246  i */\n      dup7\n        /* \"contracts/roy.sol\":12238:12247  stakes[i] */\n      dup2\n      sload\n      dup2\n      lt\n      tag_220\n      jumpi\n      mstore(0x00, shl(0xe0, 0x4e487b71))\n      mstore(0x04, 0x32)\n      revert(0x00, 0x24)\n    tag_220:\n      swap1\n      0x00\n      mstore\n      keccak256(0x00, 0x20)\n      swap1\n      0x06\n      mul\n      add\n        /* \"contracts/roy.sol\":12238:12254  stakes[i].amount */\n      0x02\n      add\n      sload\n        /* \"contracts/roy.sol\":12238:12280  stakes[i].amount *... */\n      tag_222\n      swap2\n      swap1\n      tag_208\n      jump\t// in\n    tag_222:\n        /* \"contracts/roy.sol\":12238:12320  stakes[i].amount *... */\n      tag_223\n      swap2\n      swap1\n      tag_208\n      jump\t// in\n    tag_223:\n        /* \"contracts/roy.sol\":12237:12335  (stakes[i].amount *... */\n      tag_224\n      swap2\n      swap1\n      tag_225\n      jump\t// in\n    tag_224:\n        /* \"contracts/roy.sol\":12218:12335  uint256 interest = (stakes[i].amount *... */\n      swap1\n      pop\n        /* \"contracts/roy.sol\":12353:12372  uint256 totalAmount */\n      0x00\n        /* \"contracts/roy.sol\":12394:12402  interest */\n      dup2\n        /* \"contracts/roy.sol\":12375:12381  stakes */\n      dup7\n        /* \"contracts/roy.sol\":12382:12383  i */\n      dup6\n        /* \"contracts/roy.sol\":12375:12384  stakes[i] */\n      dup2\n      sload\n      dup2\n      lt\n      tag_226\n      jumpi\n      mstore(0x00, shl(0xe0, 0x4e487b71))\n      mstore(0x04, 0x32)\n      revert(0x00, 0x24)\n    tag_226:\n      swap1\n      0x00\n      mstore\n      keccak256(0x00, 0x20)\n      swap1\n      0x06\n      mul\n      add\n        /* \"contracts/roy.sol\":12375:12391  stakes[i].amount */\n      0x02\n      add\n      sload\n        /* \"contracts/roy.sol\":12375:12402  stakes[i].amount + interest */\n      tag_228\n      swap2\n      swap1\n      tag_212\n      jump\t// in\n    tag_228:\n        /* \"contracts/roy.sol\":12450:12459  usdtToken */\n      sload(0x02)\n        /* \"contracts/roy.sol\":12450:12484  usdtToken.balanceOf(address(this)) */\n      mload(0x40)\n      shl(0xe0, 0x70a08231)\n      dup2\n      mstore\n        /* \"contracts/roy.sol\":12353:12402  uint256 totalAmount = stakes[i].amount + interest */\n      swap2\n      swap3\n      pop\n      dup3\n      swap2\n      sub(shl(0xa0, 0x01), 0x01)\n        /* \"contracts/roy.sol\":12450:12459  usdtToken */\n      swap1\n      swap2\n      and\n      swap1\n        /* \"contracts/roy.sol\":12450:12469  usdtToken.balanceOf */\n      0x70a08231\n      swap1\n        /* \"contracts/roy.sol\":12450:12484  usdtToken.balanceOf(address(this)) */\n      tag_229\n      swap1\n        /* \"contracts/roy.sol\":12478:12482  this */\n      address\n      swap1\n        /* \"contracts/roy.sol\":12450:12484  usdtToken.balanceOf(address(this)) */\n      0x04\n      add\n      tag_53\n      jump\t// in\n    tag_229:\n      0x20\n      mload(0x40)\n      dup1\n      dup4\n      sub\n      dup2\n      dup7\n      dup1\n      extcodesize\n      iszero\n      dup1\n      iszero\n      tag_230\n      jumpi\n      0x00\n      dup1\n      revert\n    tag_230:\n      pop\n      gas\n      staticcall\n      iszero\n      dup1\n      iszero\n      tag_232\n      jumpi\n      returndatasize\n      0x00\n      dup1\n      returndatacopy\n      revert(0x00, returndatasize)\n    tag_232:\n      pop\n      pop\n      pop\n      pop\n      mload(0x40)\n      returndatasize\n      not(0x1f)\n      0x1f\n      dup3\n      add\n      and\n      dup3\n      add\n      dup1\n      0x40\n      mstore\n      pop\n      dup2\n      add\n      swap1\n      tag_233\n      swap2\n      swap1\n      tag_234\n      jump\t// in\n    tag_233:\n        /* \"contracts/roy.sol\":12450:12499  usdtToken.balanceOf(address(this)) >= totalAmount */\n      lt\n      iszero\n        /* \"contracts/roy.sol\":12421:12570  require(... */\n      tag_235\n      jumpi\n      mload(0x40)\n      shl(0xe5, 0x461bcd)\n      dup2\n      mstore\n      0x04\n      add\n      tag_193\n      swap1\n      tag_237\n      jump\t// in\n    tag_235:\n        /* \"contracts/roy.sol\":12609:12613  true */\n      0x01\n        /* \"contracts/roy.sol\":12589:12595  stakes */\n      dup7\n        /* \"contracts/roy.sol\":12596:12597  i */\n      dup6\n        /* \"contracts/roy.sol\":12589:12598  stakes[i] */\n      dup2\n      sload\n      dup2\n      lt\n      tag_238\n      jumpi\n      mstore(0x00, shl(0xe0, 0x4e487b71))\n      mstore(0x04, 0x32)\n      revert(0x00, 0x24)\n    tag_238:\n      0x00\n      swap2\n      dup3\n      mstore\n      0x20\n      dup3\n      keccak256\n      0x06\n      swap2\n      swap1\n      swap2\n      mul\n      add\n        /* \"contracts/roy.sol\":12589:12606  stakes[i].claimed */\n      0x05\n      add\n        /* \"contracts/roy.sol\":12589:12613  stakes[i].claimed = true */\n      dup1\n      sload\n      not(0xff)\n      and\n      swap3\n      iszero\n      iszero\n      swap3\n      swap1\n      swap3\n      or\n      swap1\n      swap2\n      sstore\n        /* \"contracts/roy.sol\":12646:12655  usdtToken */\n      sload(0x02)\n        /* \"contracts/roy.sol\":12646:12690  usdtToken.transfer(userAddress, totalAmount) */\n      mload(0x40)\n      shl(0xe0, 0xa9059cbb)\n      dup2\n      mstore\n      sub(shl(0xa0, 0x01), 0x01)\n        /* \"contracts/roy.sol\":12646:12655  usdtToken */\n      swap1\n      swap2\n      and\n      swap1\n        /* \"contracts/roy.sol\":12646:12664  usdtToken.transfer */\n      0xa9059cbb\n      swap1\n        /* \"contracts/roy.sol\":12646:12690  usdtToken.transfer(userAddress, totalAmount) */\n      tag_240\n      swap1\n        /* \"contracts/roy.sol\":12665:12676  userAddress */\n      dup13\n      swap1\n        /* \"contracts/roy.sol\":12678:12689  totalAmount */\n      dup7\n      swap1\n        /* \"contracts/roy.sol\":12646:12690  usdtToken.transfer(userAddress, totalAmount) */\n      0x04\n      add\n      tag_241\n      jump\t// in\n    tag_240:\n      0x20\n      mload(0x40)\n      dup1\n      dup4\n      sub\n      dup2\n      0x00\n      dup8\n      dup1\n      extcodesize\n      iszero\n      dup1\n      iszero\n      tag_242\n      jumpi\n      0x00\n      dup1\n      revert\n    tag_242:\n      pop\n      gas\n      call\n      iszero\n      dup1\n      iszero\n      tag_244\n      jumpi\n      returndatasize\n      0x00\n      dup1\n      returndatacopy\n      revert(0x00, returndatasize)\n    tag_244:\n      pop\n      pop\n      pop\n      pop\n      mload(0x40)\n      returndatasize\n      not(0x1f)\n      0x1f\n      dup3\n      add\n      and\n      dup3\n      add\n      dup1\n      0x40\n      mstore\n      pop\n      dup2\n      add\n      swap1\n      tag_245\n      swap2\n      swap1\n      tag_246\n      jump\t// in\n    tag_245:\n        /* \"contracts/roy.sol\":12631:12690  bool success = usdtToken.transfer(userAddress, totalAmount) */\n      swap1\n      pop\n        /* \"contracts/roy.sol\":12716:12723  success */\n      dup1\n        /* \"contracts/roy.sol\":12708:12748  require(success, \"USDT transfer failed\") */\n      tag_247\n      jumpi\n      mload(0x40)\n      shl(0xe5, 0x461bcd)\n      dup2\n      mstore\n      0x04\n      add\n      tag_193\n      swap1\n      tag_249\n      jump\t// in\n    tag_247:\n        /* \"contracts/roy.sol\":12801:12812  userAddress */\n      dup9\n      sub(shl(0xa0, 0x01), 0x01)\n        /* \"contracts/roy.sol\":12772:12937  Claimed(... */\n      and\n      0x9cdcf2f7714cca3508c7f0110b04a90a80a3a8dd0e35de99689db74d28c5383e\n        /* \"contracts/roy.sol\":12834:12840  stakes */\n      dup9\n        /* \"contracts/roy.sol\":12841:12842  i */\n      dup8\n        /* \"contracts/roy.sol\":12834:12843  stakes[i] */\n      dup2\n      sload\n      dup2\n      lt\n      tag_250\n      jumpi\n      mstore(0x00, shl(0xe0, 0x4e487b71))\n      mstore(0x04, 0x32)\n      revert(0x00, 0x24)\n    tag_250:\n      swap1\n      0x00\n      mstore\n      keccak256(0x00, 0x20)\n      swap1\n      0x06\n      mul\n      add\n        /* \"contracts/roy.sol\":12834:12851  stakes[i].stakeId */\n      0x00\n      add\n      sload\n        /* \"contracts/roy.sol\":12873:12879  stakes */\n      dup10\n        /* \"contracts/roy.sol\":12880:12881  i */\n      dup9\n        /* \"contracts/roy.sol\":12873:12882  stakes[i] */\n      dup2\n      sload\n      dup2\n      lt\n      tag_252\n      jumpi\n      mstore(0x00, shl(0xe0, 0x4e487b71))\n      mstore(0x04, 0x32)\n      revert(0x00, 0x24)\n    tag_252:\n      swap1\n      0x00\n      mstore\n      keccak256(0x00, 0x20)\n      swap1\n      0x06\n      mul\n      add\n        /* \"contracts/roy.sol\":12873:12889  stakes[i].amount */\n      0x02\n      add\n      sload\n        /* \"contracts/roy.sol\":12911:12919  interest */\n      dup7\n        /* \"contracts/roy.sol\":12772:12937  Claimed(... */\n      mload(0x40)\n      tag_254\n      swap4\n      swap3\n      swap2\n      swap1\n      tag_352\n      jump\t// in\n    tag_254:\n      mload(0x40)\n      dup1\n      swap2\n      sub\n      swap1\n      log2\n        /* \"contracts/roy.sol\":12964:12968  true */\n      0x01\n        /* \"contracts/roy.sol\":12956:12968  found = true */\n      swap6\n      pop\n        /* \"contracts/roy.sol\":12986:12991  break */\n      pop\n      pop\n      pop\n      pop\n      jump(tag_197)\n        /* \"contracts/roy.sol\":11861:13006  if (stakes[i].positionId == _positionId && !stakes[i].claimed) {... */\n    tag_204:\n        /* \"contracts/roy.sol\":11842:11845  i++ */\n      dup1\n      tag_256\n      dup2\n      tag_190\n      jump\t// in\n    tag_256:\n      swap2\n      pop\n      pop\n        /* \"contracts/roy.sol\":11803:13016  for (uint256 i = 0; i < stakes.length; i++) {... */\n      jump(tag_196)\n    tag_197:\n      pop\n        /* \"contracts/roy.sol\":13034:13039  found */\n      dup1\n        /* \"contracts/roy.sol\":13026:13078  require(found, \"Stake not found or already claimed\") */\n      tag_257\n      jumpi\n      mload(0x40)\n      shl(0xe5, 0x461bcd)\n      dup2\n      mstore\n      0x04\n      add\n      tag_193\n      swap1\n      tag_259\n      jump\t// in\n    tag_257:\n        /* \"contracts/roy.sol\":2127:2128  _ */\n      pop\n      pop\n      pop\n      pop\n        /* \"contracts/roy.sol\":11567:13085  function claim(uint256 _positionId) external onlyRegistered {... */\n      pop\n      jump\t// out\n        /* \"contracts/roy.sol\":20279:20441  function withdrawUSDT(uint256 amount) external {... */\n    tag_70:\n        /* \"contracts/roy.sol\":20358:20363  owner */\n      and(sub(shl(0xa0, 0x01), 0x01), sload(0x00))\n        /* \"contracts/roy.sol\":20344:20354  msg.sender */\n      caller\n        /* \"contracts/roy.sol\":20344:20363  msg.sender == owner */\n      eq\n        /* \"contracts/roy.sol\":20336:20391  require(msg.sender == owner, \"Only owner can withdraw\") */\n      tag_261\n      jumpi\n      mload(0x40)\n      shl(0xe5, 0x461bcd)\n      dup2\n      mstore\n      0x04\n      add\n      tag_193\n      swap1\n      tag_263\n      jump\t// in\n    tag_261:\n        /* \"contracts/roy.sol\":20401:20410  usdtToken */\n      sload(0x02)\n      0x00\n        /* \"contracts/roy.sol\":20420:20425  owner */\n      sload\n        /* \"contracts/roy.sol\":20401:20434  usdtToken.transfer(owner, amount) */\n      mload(0x40)\n      shl(0xe0, 0xa9059cbb)\n      dup2\n      mstore\n      sub(shl(0xa0, 0x01), 0x01)\n        /* \"contracts/roy.sol\":20401:20410  usdtToken */\n      swap3\n      dup4\n      and\n      swap3\n        /* \"contracts/roy.sol\":20401:20419  usdtToken.transfer */\n      0xa9059cbb\n      swap3\n        /* \"contracts/roy.sol\":20401:20434  usdtToken.transfer(owner, amount) */\n      tag_264\n      swap3\n        /* \"contracts/roy.sol\":20420:20425  owner */\n      swap2\n      and\n      swap1\n        /* \"contracts/roy.sol\":20427:20433  amount */\n      dup6\n      swap1\n        /* \"contracts/roy.sol\":20401:20434  usdtToken.transfer(owner, amount) */\n      0x04\n      add\n      tag_241\n      jump\t// in\n    tag_264:\n      0x20\n      mload(0x40)\n      dup1\n      dup4\n      sub\n      dup2\n      0x00\n      dup8\n      dup1\n      extcodesize\n      iszero\n      dup1\n      iszero\n      tag_265\n      jumpi\n      0x00\n      dup1\n      revert\n    tag_265:\n      pop\n      gas\n      call\n      iszero\n      dup1\n      iszero\n      tag_267\n      jumpi\n      returndatasize\n      0x00\n      dup1\n      returndatacopy\n      revert(0x00, returndatasize)\n    tag_267:\n      pop\n      pop\n      pop\n      pop\n      mload(0x40)\n      returndatasize\n      not(0x1f)\n      0x1f\n      dup3\n      add\n      and\n      dup3\n      add\n      dup1\n      0x40\n      mstore\n      pop\n      dup2\n      add\n      swap1\n      tag_268\n      swap2\n      swap1\n      tag_246\n      jump\t// in\n    tag_268:\n      pop\n        /* \"contracts/roy.sol\":20279:20441  function withdrawUSDT(uint256 amount) external {... */\n      pop\n      jump\t// out\n        /* \"contracts/roy.sol\":2252:2988  function register(address referrer) external {... */\n    tag_73:\n        /* \"contracts/roy.sol\":2322:2332  msg.sender */\n      caller\n        /* \"contracts/roy.sol\":2316:2333  users[msg.sender] */\n      0x00\n      swap1\n      dup2\n      mstore\n        /* \"contracts/roy.sol\":2316:2321  users */\n      0x03\n        /* \"contracts/roy.sol\":2316:2333  users[msg.sender] */\n      0x20\n      mstore\n      0x40\n      swap1\n      keccak256\n        /* \"contracts/roy.sol\":2316:2344  users[msg.sender].registered */\n      0x04\n      add\n      sload\n      0xff\n      and\n        /* \"contracts/roy.sol\":2315:2344  !users[msg.sender].registered */\n      iszero\n        /* \"contracts/roy.sol\":2307:2367  require(!users[msg.sender].registered, \"Already registered\") */\n      tag_270\n      jumpi\n      mload(0x40)\n      shl(0xe5, 0x461bcd)\n      dup2\n      mstore\n      0x04\n      add\n      tag_193\n      swap1\n      tag_272\n      jump\t// in\n    tag_270:\n      sub(shl(0xa0, 0x01), 0x01)\n        /* \"contracts/roy.sol\":2385:2407  referrer != msg.sender */\n      dup2\n      and\n        /* \"contracts/roy.sol\":2397:2407  msg.sender */\n      caller\n        /* \"contracts/roy.sol\":2385:2407  referrer != msg.sender */\n      eq\n      iszero\n        /* \"contracts/roy.sol\":2377:2433  require(referrer != msg.sender, \"Cannot refer yourself\") */\n      tag_273\n      jumpi\n      mload(0x40)\n      shl(0xe5, 0x461bcd)\n      dup2\n      mstore\n      0x04\n      add\n      tag_193\n      swap1\n      tag_275\n      jump\t// in\n    tag_273:\n      sub(shl(0xa0, 0x01), 0x01)\n        /* \"contracts/roy.sol\":2451:2466  users[referrer] */\n      dup2\n      and\n      0x00\n      swap1\n      dup2\n      mstore\n        /* \"contracts/roy.sol\":2451:2456  users */\n      0x03\n        /* \"contracts/roy.sol\":2451:2466  users[referrer] */\n      0x20\n      mstore\n      0x40\n      swap1\n      keccak256\n        /* \"contracts/roy.sol\":2451:2477  users[referrer].registered */\n      0x04\n      add\n      sload\n      0xff\n      and\n        /* \"contracts/roy.sol\":2443:2505  require(users[referrer].registered, \"Referrer not registered\") */\n      tag_276\n      jumpi\n      mload(0x40)\n      shl(0xe5, 0x461bcd)\n      dup2\n      mstore\n      0x04\n      add\n      tag_193\n      swap1\n      tag_278\n      jump\t// in\n    tag_276:\n      sub(shl(0xa0, 0x01), 0x01)\n        /* \"contracts/roy.sol\":2536:2551  users[referrer] */\n      dup2\n      and\n        /* \"contracts/roy.sol\":2568:2569  0 */\n      0x00\n        /* \"contracts/roy.sol\":2536:2551  users[referrer] */\n      swap1\n      dup2\n      mstore\n        /* \"contracts/roy.sol\":2536:2541  users */\n      0x03\n        /* \"contracts/roy.sol\":2536:2551  users[referrer] */\n      0x20\n      mstore\n      0x40\n      swap1\n      keccak256\n        /* \"contracts/roy.sol\":2536:2558  users[referrer].stakes */\n      0x01\n      add\n        /* \"contracts/roy.sol\":2536:2565  users[referrer].stakes.length */\n      sload\n        /* \"contracts/roy.sol\":2515:2638  require(... */\n      tag_279\n      jumpi\n      mload(0x40)\n      shl(0xe5, 0x461bcd)\n      dup2\n      mstore\n      0x04\n      add\n      tag_193\n      swap1\n      tag_281\n      jump\t// in\n    tag_279:\n        /* \"contracts/roy.sol\":2655:2665  msg.sender */\n      caller\n        /* \"contracts/roy.sol\":2649:2666  users[msg.sender] */\n      0x00\n      dup2\n      dup2\n      mstore\n        /* \"contracts/roy.sol\":2649:2654  users */\n      0x03\n        /* \"contracts/roy.sol\":2649:2666  users[msg.sender] */\n      0x20\n      dup2\n      dup2\n      mstore\n      0x40\n      dup1\n      dup5\n      keccak256\n        /* \"contracts/roy.sol\":2649:2686  users[msg.sender].referrer = referrer */\n      dup1\n      sload\n      sub(shl(0xa0, 0x01), 0x01)\n      swap8\n      dup9\n      and\n      not(sub(shl(0xa0, 0x01), 0x01))\n      swap2\n      dup3\n      and\n      dup2\n      or\n      dup4\n      sstore\n        /* \"contracts/roy.sol\":2696:2724  users[msg.sender].registered */\n      0x04\n      swap3\n      dup4\n      add\n        /* \"contracts/roy.sol\":2696:2731  users[msg.sender].registered = true */\n      dup1\n      sload\n      not(0xff)\n      and\n        /* \"contracts/roy.sol\":2649:2686  users[msg.sender].referrer = referrer */\n      0x01\n        /* \"contracts/roy.sol\":2696:2731  users[msg.sender].registered = true */\n      swap1\n      dup2\n      or\n      swap1\n      swap2\n      sstore\n        /* \"contracts/roy.sol\":2741:2749  allUsers */\n      0x08\n        /* \"contracts/roy.sol\":2741:2766  allUsers.push(msg.sender) */\n      dup1\n      sload\n      dup1\n      dup4\n      add\n      swap1\n      swap2\n      sstore\n      0xf3f7a9fe364faab93b216da50a3214154f22a0a2b415b23a84c8169e8b636ee3\n      add\n      dup1\n      sload\n      dup5\n      and\n      dup11\n      or\n      swap1\n      sstore\n        /* \"contracts/roy.sol\":2777:2802  directReferrals[referrer] */\n      swap1\n      dup8\n      mstore\n      swap2\n      dup5\n      mstore\n      dup3\n      dup7\n      keccak256\n        /* \"contracts/roy.sol\":2821:2971  ReferralInfo({... */\n      dup4\n      mload\n      0x60\n      dup2\n      add\n      dup6\n      mstore\n      swap8\n      dup9\n      mstore\n      dup8\n      dup6\n      add\n      dup8\n      dup2\n      mstore\n        /* \"contracts/roy.sol\":2941:2956  block.timestamp */\n      timestamp\n        /* \"contracts/roy.sol\":2821:2971  ReferralInfo({... */\n      swap5\n      dup10\n      add\n      swap5\n      dup6\n      mstore\n        /* \"contracts/roy.sol\":2777:2981  directReferrals[referrer].push(... */\n      dup2\n      sload\n      dup1\n      dup6\n      add\n      dup4\n      sstore\n      swap2\n      dup9\n      mstore\n      swap5\n      swap1\n      swap7\n      keccak256\n      swap7\n      mload\n      swap6\n      swap1\n      swap5\n      mul\n      swap1\n      swap6\n      add\n      dup1\n      sload\n      swap5\n      swap1\n      swap7\n      and\n      swap4\n      swap1\n      swap3\n      and\n      swap3\n      swap1\n      swap3\n      or\n      dup5\n      sstore\n      swap1\n      mload\n      swap2\n      dup4\n      add\n      swap2\n      swap1\n      swap2\n      sstore\n      mload\n      0x02\n      swap1\n      swap2\n      add\n      sstore\n        /* \"contracts/roy.sol\":2252:2988  function register(address referrer) external {... */\n      jump\t// out\n        /* \"contracts/roy.sol\":11248:11412  function setStakingAPY(uint256 numDays, uint256 apy) external onlyOwner {... */\n    tag_77:\n        /* \"contracts/roy.sol\":2194:2199  owner */\n      and(sub(shl(0xa0, 0x01), 0x01), sload(0x00))\n        /* \"contracts/roy.sol\":2180:2190  msg.sender */\n      caller\n        /* \"contracts/roy.sol\":2180:2199  msg.sender == owner */\n      eq\n        /* \"contracts/roy.sol\":2172:2228  require(msg.sender == owner, \"Only owner can call this\") */\n      tag_285\n      jumpi\n      mload(0x40)\n      shl(0xe5, 0x461bcd)\n      dup2\n      mstore\n      0x04\n      add\n      tag_193\n      swap1\n      tag_287\n      jump\t// in\n    tag_285:\n        /* \"contracts/roy.sol\":11348:11349  0 */\n      0x00\n        /* \"contracts/roy.sol\":11338:11345  numDays */\n      dup3\n        /* \"contracts/roy.sol\":11338:11349  numDays > 0 */\n      gt\n        /* \"contracts/roy.sol\":11330:11370  require(numDays > 0, \"Days must be > 0\") */\n      tag_289\n      jumpi\n      mload(0x40)\n      shl(0xe5, 0x461bcd)\n      dup2\n      mstore\n      0x04\n      add\n      tag_193\n      swap1\n      tag_291\n      jump\t// in\n    tag_289:\n        /* \"contracts/roy.sol\":11380:11399  stakingAPY[numDays] */\n      0x00\n      swap2\n      dup3\n      mstore\n        /* \"contracts/roy.sol\":11380:11390  stakingAPY */\n      0x06\n        /* \"contracts/roy.sol\":11380:11399  stakingAPY[numDays] */\n      0x20\n      mstore\n      0x40\n      swap1\n      swap2\n      keccak256\n        /* \"contracts/roy.sol\":11380:11405  stakingAPY[numDays] = apy */\n      sstore\n        /* \"contracts/roy.sol\":11248:11412  function setStakingAPY(uint256 numDays, uint256 apy) external onlyOwner {... */\n      jump\t// out\n        /* \"contracts/roy.sol\":16825:16942  function getLevelIncome(address user) external view returns (uint256) {... */\n    tag_80:\n      sub(shl(0xa0, 0x01), 0x01)\n        /* \"contracts/roy.sol\":16912:16923  users[user] */\n      and\n        /* \"contracts/roy.sol\":16886:16893  uint256 */\n      0x00\n        /* \"contracts/roy.sol\":16912:16923  users[user] */\n      swap1\n      dup2\n      mstore\n        /* \"contracts/roy.sol\":16912:16917  users */\n      0x03\n        /* \"contracts/roy.sol\":16912:16923  users[user] */\n      0x20\n      dup2\n      swap1\n      mstore\n      0x40\n      swap1\n      swap2\n      keccak256\n        /* \"contracts/roy.sol\":16912:16935  users[user].levelIncome */\n      add\n      sload\n      swap1\n        /* \"contracts/roy.sol\":16825:16942  function getLevelIncome(address user) external view returns (uint256) {... */\n      jump\t// out\n        /* \"contracts/roy.sol\":11447:11561  function setLevelRewards(uint8[5] memory newRewards) external onlyOwner {... */\n    tag_86:\n        /* \"contracts/roy.sol\":2194:2199  owner */\n      and(sub(shl(0xa0, 0x01), 0x01), sload(0x00))\n        /* \"contracts/roy.sol\":2180:2190  msg.sender */\n      caller\n        /* \"contracts/roy.sol\":2180:2199  msg.sender == owner */\n      eq\n        /* \"contracts/roy.sol\":2172:2228  require(msg.sender == owner, \"Only owner can call this\") */\n      tag_294\n      jumpi\n      mload(0x40)\n      shl(0xe5, 0x461bcd)\n      dup2\n      mstore\n      0x04\n      add\n      tag_193\n      swap1\n      tag_287\n      jump\t// in\n    tag_294:\n        /* \"contracts/roy.sol\":11529:11554  levelRewards = newRewards */\n      tag_268\n        /* \"contracts/roy.sol\":11529:11541  levelRewards */\n      0x09\n        /* \"contracts/roy.sol\":11544:11554  newRewards */\n      dup3\n        /* \"contracts/roy.sol\":11529:11554  levelRewards = newRewards */\n      0x05\n      tag_298\n      jump\t// in\n        /* \"contracts/roy.sol\":13091:14752  function claimEmergency(uint256 _positionId) external onlyRegistered {... */\n    tag_89:\n        /* \"contracts/roy.sol\":2076:2086  msg.sender */\n      caller\n        /* \"contracts/roy.sol\":2070:2087  users[msg.sender] */\n      0x00\n      swap1\n      dup2\n      mstore\n        /* \"contracts/roy.sol\":2070:2075  users */\n      0x03\n        /* \"contracts/roy.sol\":2070:2087  users[msg.sender] */\n      0x20\n      mstore\n      0x40\n      swap1\n      keccak256\n        /* \"contracts/roy.sol\":2070:2098  users[msg.sender].registered */\n      0x04\n      add\n      sload\n      0xff\n      and\n        /* \"contracts/roy.sol\":2062:2117  require(users[msg.sender].registered, \"Not registered\") */\n      tag_300\n      jumpi\n      mload(0x40)\n      shl(0xe5, 0x461bcd)\n      dup2\n      mstore\n      0x04\n      add\n      tag_193\n      swap1\n      tag_194\n      jump\t// in\n    tag_300:\n        /* \"contracts/roy.sol\":13192:13202  msg.sender */\n      caller\n        /* \"contracts/roy.sol\":13170:13189  address userAddress */\n      0x00\n        /* \"contracts/roy.sol\":13232:13250  users[userAddress] */\n      dup2\n      dup2\n      mstore\n        /* \"contracts/roy.sol\":13232:13237  users */\n      0x03\n        /* \"contracts/roy.sol\":13232:13250  users[userAddress] */\n      0x20\n      mstore\n      0x40\n      dup2\n      keccak256\n      swap1\n        /* \"contracts/roy.sol\":13285:13296  user.stakes */\n      0x01\n      dup3\n      add\n      swap1\n        /* \"contracts/roy.sol\":13170:13189  address userAddress */\n      dup1\n        /* \"contracts/roy.sol\":13336:14683  for (uint256 i = 0; i < stakes.length; i++) {... */\n    tag_303:\n        /* \"contracts/roy.sol\":13360:13373  stakes.length */\n      dup3\n      sload\n        /* \"contracts/roy.sol\":13356:13373  i < stakes.length */\n      dup2\n      lt\n        /* \"contracts/roy.sol\":13336:14683  for (uint256 i = 0; i < stakes.length; i++) {... */\n      iszero\n      tag_197\n      jumpi\n        /* \"contracts/roy.sol\":13422:13433  _positionId */\n      dup6\n        /* \"contracts/roy.sol\":13398:13404  stakes */\n      dup4\n        /* \"contracts/roy.sol\":13405:13406  i */\n      dup3\n        /* \"contracts/roy.sol\":13398:13407  stakes[i] */\n      dup2\n      sload\n      dup2\n      lt\n      tag_306\n      jumpi\n      mstore(0x00, shl(0xe0, 0x4e487b71))\n      mstore(0x04, 0x32)\n      revert(0x00, 0x24)\n    tag_306:\n      swap1\n      0x00\n      mstore\n      keccak256(0x00, 0x20)\n      swap1\n      0x06\n      mul\n      add\n        /* \"contracts/roy.sol\":13398:13418  stakes[i].positionId */\n      0x01\n      add\n      sload\n        /* \"contracts/roy.sol\":13398:13433  stakes[i].positionId == _positionId */\n      eq\n        /* \"contracts/roy.sol\":13398:13455  stakes[i].positionId == _positionId && !stakes[i].claimed */\n      dup1\n      iszero\n      tag_308\n      jumpi\n      pop\n        /* \"contracts/roy.sol\":13438:13444  stakes */\n      dup3\n        /* \"contracts/roy.sol\":13445:13446  i */\n      dup2\n        /* \"contracts/roy.sol\":13438:13447  stakes[i] */\n      dup2\n      sload\n      dup2\n      lt\n      tag_309\n      jumpi\n      mstore(0x00, shl(0xe0, 0x4e487b71))\n      mstore(0x04, 0x32)\n      revert(0x00, 0x24)\n    tag_309:\n      0x00\n      swap2\n      dup3\n      mstore\n      0x20\n      swap1\n      swap2\n      keccak256\n        /* \"contracts/roy.sol\":13438:13455  stakes[i].claimed */\n      0x05\n        /* \"contracts/roy.sol\":13438:13447  stakes[i] */\n      0x06\n      swap1\n      swap3\n      mul\n      add\n        /* \"contracts/roy.sol\":13438:13455  stakes[i].claimed */\n      add\n      sload\n      0xff\n      and\n        /* \"contracts/roy.sol\":13437:13455  !stakes[i].claimed */\n      iszero\n        /* \"contracts/roy.sol\":13398:13455  stakes[i].positionId == _positionId && !stakes[i].claimed */\n    tag_308:\n        /* \"contracts/roy.sol\":13394:14673  if (stakes[i].positionId == _positionId && !stakes[i].claimed) {... */\n      iszero\n      tag_311\n      jumpi\n        /* \"contracts/roy.sol\":13585:13591  stakes */\n      dup3\n        /* \"contracts/roy.sol\":13592:13593  i */\n      dup2\n        /* \"contracts/roy.sol\":13585:13594  stakes[i] */\n      dup2\n      sload\n      dup2\n      lt\n      tag_312\n      jumpi\n      mstore(0x00, shl(0xe0, 0x4e487b71))\n      mstore(0x04, 0x32)\n      revert(0x00, 0x24)\n    tag_312:\n      swap1\n      0x00\n      mstore\n      keccak256(0x00, 0x20)\n      swap1\n      0x06\n      mul\n      add\n        /* \"contracts/roy.sol\":13585:13604  stakes[i].timestamp */\n      0x03\n      add\n      sload\n        /* \"contracts/roy.sol\":13607:13614  10 days */\n      0x0d2f00\n        /* \"contracts/roy.sol\":13585:13614  stakes[i].timestamp + 10 days */\n      tag_314\n      swap2\n      swap1\n      tag_212\n      jump\t// in\n    tag_314:\n        /* \"contracts/roy.sol\":13566:13581  block.timestamp */\n      timestamp\n        /* \"contracts/roy.sol\":13566:13614  block.timestamp >= stakes[i].timestamp + 10 days */\n      lt\n      iszero\n        /* \"contracts/roy.sol\":13537:13698  require(... */\n      tag_315\n      jumpi\n      mload(0x40)\n      shl(0xe5, 0x461bcd)\n      dup2\n      mstore\n      0x04\n      add\n      tag_193\n      swap1\n      tag_317\n      jump\t// in\n    tag_315:\n        /* \"contracts/roy.sol\":13717:13731  uint256 amount */\n      0x00\n        /* \"contracts/roy.sol\":13734:13740  stakes */\n      dup4\n        /* \"contracts/roy.sol\":13741:13742  i */\n      dup3\n        /* \"contracts/roy.sol\":13734:13743  stakes[i] */\n      dup2\n      sload\n      dup2\n      lt\n      tag_318\n      jumpi\n      mstore(0x00, shl(0xe0, 0x4e487b71))\n      mstore(0x04, 0x32)\n      revert(0x00, 0x24)\n    tag_318:\n      0x00\n      swap2\n      dup3\n      mstore\n      0x20\n      dup3\n      keccak256\n        /* \"contracts/roy.sol\":13734:13750  stakes[i].amount */\n      0x02\n        /* \"contracts/roy.sol\":13734:13743  stakes[i] */\n      0x06\n      swap1\n      swap3\n      mul\n      add\n        /* \"contracts/roy.sol\":13734:13750  stakes[i].amount */\n      add\n      sload\n      swap2\n      pop\n        /* \"contracts/roy.sol\":13802:13805  100 */\n      0x64\n        /* \"contracts/roy.sol\":13788:13798  amount * 5 */\n      tag_320\n        /* \"contracts/roy.sol\":13734:13750  stakes[i].amount */\n      dup4\n        /* \"contracts/roy.sol\":13797:13798  5 */\n      0x05\n        /* \"contracts/roy.sol\":13788:13798  amount * 5 */\n      tag_208\n      jump\t// in\n    tag_320:\n        /* \"contracts/roy.sol\":13787:13805  (amount * 5) / 100 */\n      tag_321\n      swap2\n      swap1\n      tag_225\n      jump\t// in\n    tag_321:\n        /* \"contracts/roy.sol\":13768:13805  uint256 adminFee = (amount * 5) / 100 */\n      swap1\n      pop\n        /* \"contracts/roy.sol\":13823:13841  uint256 userAmount */\n      0x00\n        /* \"contracts/roy.sol\":13844:13861  amount - adminFee */\n      tag_322\n        /* \"contracts/roy.sol\":13768:13805  uint256 adminFee = (amount * 5) / 100 */\n      dup3\n        /* \"contracts/roy.sol\":13844:13850  amount */\n      dup5\n        /* \"contracts/roy.sol\":13844:13861  amount - adminFee */\n      tag_323\n      jump\t// in\n    tag_322:\n        /* \"contracts/roy.sol\":13909:13918  usdtToken */\n      sload(0x02)\n        /* \"contracts/roy.sol\":13909:13943  usdtToken.balanceOf(address(this)) */\n      mload(0x40)\n      shl(0xe0, 0x70a08231)\n      dup2\n      mstore\n        /* \"contracts/roy.sol\":13823:13861  uint256 userAmount = amount - adminFee */\n      swap2\n      swap3\n      pop\n        /* \"contracts/roy.sol\":13947:13953  amount */\n      dup5\n      swap2\n      sub(shl(0xa0, 0x01), 0x01)\n        /* \"contracts/roy.sol\":13909:13918  usdtToken */\n      swap1\n      swap2\n      and\n      swap1\n        /* \"contracts/roy.sol\":13909:13928  usdtToken.balanceOf */\n      0x70a08231\n      swap1\n        /* \"contracts/roy.sol\":13909:13943  usdtToken.balanceOf(address(this)) */\n      tag_324\n      swap1\n        /* \"contracts/roy.sol\":13937:13941  this */\n      address\n      swap1\n        /* \"contracts/roy.sol\":13909:13943  usdtToken.balanceOf(address(this)) */\n      0x04\n      add\n      tag_53\n      jump\t// in\n    tag_324:\n      0x20\n      mload(0x40)\n      dup1\n      dup4\n      sub\n      dup2\n      dup7\n      dup1\n      extcodesize\n      iszero\n      dup1\n      iszero\n      tag_325\n      jumpi\n      0x00\n      dup1\n      revert\n    tag_325:\n      pop\n      gas\n      staticcall\n      iszero\n      dup1\n      iszero\n      tag_327\n      jumpi\n      returndatasize\n      0x00\n      dup1\n      returndatacopy\n      revert(0x00, returndatasize)\n    tag_327:\n      pop\n      pop\n      pop\n      pop\n      mload(0x40)\n      returndatasize\n      not(0x1f)\n      0x1f\n      dup3\n      add\n      and\n      dup3\n      add\n      dup1\n      0x40\n      mstore\n      pop\n      dup2\n      add\n      swap1\n      tag_328\n      swap2\n      swap1\n      tag_234\n      jump\t// in\n    tag_328:\n        /* \"contracts/roy.sol\":13909:13953  usdtToken.balanceOf(address(this)) >= amount */\n      lt\n      iszero\n        /* \"contracts/roy.sol\":13880:14024  require(... */\n      tag_329\n      jumpi\n      mload(0x40)\n      shl(0xe5, 0x461bcd)\n      dup2\n      mstore\n      0x04\n      add\n      tag_193\n      swap1\n      tag_237\n      jump\t// in\n    tag_329:\n        /* \"contracts/roy.sol\":14063:14067  true */\n      0x01\n        /* \"contracts/roy.sol\":14043:14049  stakes */\n      dup7\n        /* \"contracts/roy.sol\":14050:14051  i */\n      dup6\n        /* \"contracts/roy.sol\":14043:14052  stakes[i] */\n      dup2\n      sload\n      dup2\n      lt\n      tag_331\n      jumpi\n      mstore(0x00, shl(0xe0, 0x4e487b71))\n      mstore(0x04, 0x32)\n      revert(0x00, 0x24)\n    tag_331:\n      0x00\n      swap2\n      dup3\n      mstore\n      0x20\n      dup3\n      keccak256\n      0x06\n      swap2\n      swap1\n      swap2\n      mul\n      add\n        /* \"contracts/roy.sol\":14043:14060  stakes[i].claimed */\n      0x05\n      add\n        /* \"contracts/roy.sol\":14043:14067  stakes[i].claimed = true */\n      dup1\n      sload\n      not(0xff)\n      and\n      swap3\n      iszero\n      iszero\n      swap3\n      swap1\n      swap3\n      or\n      swap1\n      swap2\n      sstore\n        /* \"contracts/roy.sol\":14146:14155  usdtToken */\n      sload(0x02)\n        /* \"contracts/roy.sol\":14146:14189  usdtToken.transfer(userAddress, userAmount) */\n      mload(0x40)\n      shl(0xe0, 0xa9059cbb)\n      dup2\n      mstore\n      sub(shl(0xa0, 0x01), 0x01)\n        /* \"contracts/roy.sol\":14146:14155  usdtToken */\n      swap1\n      swap2\n      and\n      swap1\n        /* \"contracts/roy.sol\":14146:14164  usdtToken.transfer */\n      0xa9059cbb\n      swap1\n        /* \"contracts/roy.sol\":14146:14189  usdtToken.transfer(userAddress, userAmount) */\n      tag_333\n      swap1\n        /* \"contracts/roy.sol\":14165:14176  userAddress */\n      dup13\n      swap1\n        /* \"contracts/roy.sol\":14178:14188  userAmount */\n      dup7\n      swap1\n        /* \"contracts/roy.sol\":14146:14189  usdtToken.transfer(userAddress, userAmount) */\n      0x04\n      add\n      tag_241\n      jump\t// in\n    tag_333:\n      0x20\n      mload(0x40)\n      dup1\n      dup4\n      sub\n      dup2\n      0x00\n      dup8\n      dup1\n      extcodesize\n      iszero\n      dup1\n      iszero\n      tag_334\n      jumpi\n      0x00\n      dup1\n      revert\n    tag_334:\n      pop\n      gas\n      call\n      iszero\n      dup1\n      iszero\n      tag_336\n      jumpi\n      returndatasize\n      0x00\n      dup1\n      returndatacopy\n      revert(0x00, returndatasize)\n    tag_336:\n      pop\n      pop\n      pop\n      pop\n      mload(0x40)\n      returndatasize\n      not(0x1f)\n      0x1f\n      dup3\n      add\n      and\n      dup3\n      add\n      dup1\n      0x40\n      mstore\n      pop\n      dup2\n      add\n      swap1\n      tag_337\n      swap2\n      swap1\n      tag_246\n      jump\t// in\n    tag_337:\n        /* \"contracts/roy.sol\":14127:14189  bool successUser = usdtToken.transfer(userAddress, userAmount) */\n      swap1\n      pop\n        /* \"contracts/roy.sol\":14215:14226  successUser */\n      dup1\n        /* \"contracts/roy.sol\":14207:14251  require(successUser, \"User transfer failed\") */\n      tag_338\n      jumpi\n      mload(0x40)\n      shl(0xe5, 0x461bcd)\n      dup2\n      mstore\n      0x04\n      add\n      tag_193\n      swap1\n      tag_340\n      jump\t// in\n    tag_338:\n        /* \"contracts/roy.sol\":14328:14337  usdtToken */\n      sload(0x02)\n        /* \"contracts/roy.sol\":14328:14458  usdtToken.transfer(... */\n      mload(0x40)\n      shl(0xe0, 0xa9059cbb)\n      dup2\n      mstore\n        /* \"contracts/roy.sol\":14308:14325  bool successAdmin */\n      0x00\n      swap2\n      sub(shl(0xa0, 0x01), 0x01)\n        /* \"contracts/roy.sol\":14328:14337  usdtToken */\n      and\n      swap1\n        /* \"contracts/roy.sol\":14328:14346  usdtToken.transfer */\n      0xa9059cbb\n      swap1\n        /* \"contracts/roy.sol\":14328:14458  usdtToken.transfer(... */\n      tag_341\n      swap1\n        /* \"contracts/roy.sol\":14368:14410  0x9aB49A6105a768ed88b8AfD9cca7f6886F739aAd */\n      0x9ab49a6105a768ed88b8afd9cca7f6886f739aad\n      swap1\n        /* \"contracts/roy.sol\":14432:14440  adminFee */\n      dup9\n      swap1\n        /* \"contracts/roy.sol\":14328:14458  usdtToken.transfer(... */\n      0x04\n      add\n      tag_241\n      jump\t// in\n    tag_341:\n      0x20\n      mload(0x40)\n      dup1\n      dup4\n      sub\n      dup2\n      0x00\n      dup8\n      dup1\n      extcodesize\n      iszero\n      dup1\n      iszero\n      tag_342\n      jumpi\n      0x00\n      dup1\n      revert\n    tag_342:\n      pop\n      gas\n      call\n      iszero\n      dup1\n      iszero\n      tag_344\n      jumpi\n      returndatasize\n      0x00\n      dup1\n      returndatacopy\n      revert(0x00, returndatasize)\n    tag_344:\n      pop\n      pop\n      pop\n      pop\n      mload(0x40)\n      returndatasize\n      not(0x1f)\n      0x1f\n      dup3\n      add\n      and\n      dup3\n      add\n      dup1\n      0x40\n      mstore\n      pop\n      dup2\n      add\n      swap1\n      tag_345\n      swap2\n      swap1\n      tag_246\n      jump\t// in\n    tag_345:\n        /* \"contracts/roy.sol\":14308:14458  bool successAdmin = usdtToken.transfer(... */\n      swap1\n      pop\n        /* \"contracts/roy.sol\":14484:14496  successAdmin */\n      dup1\n        /* \"contracts/roy.sol\":14476:14526  require(successAdmin, \"Admin fee transfer failed\") */\n      tag_346\n      jumpi\n      mload(0x40)\n      shl(0xe5, 0x461bcd)\n      dup2\n      mstore\n      0x04\n      add\n      tag_193\n      swap1\n      tag_348\n      jump\t// in\n    tag_346:\n        /* \"contracts/roy.sol\":14558:14569  userAddress */\n      dup10\n      sub(shl(0xa0, 0x01), 0x01)\n        /* \"contracts/roy.sol\":14550:14604  Claimed(userAddress, stakes[i].stakeId, userAmount, 0) */\n      and\n      0x9cdcf2f7714cca3508c7f0110b04a90a80a3a8dd0e35de99689db74d28c5383e\n        /* \"contracts/roy.sol\":14571:14577  stakes */\n      dup10\n        /* \"contracts/roy.sol\":14578:14579  i */\n      dup9\n        /* \"contracts/roy.sol\":14571:14580  stakes[i] */\n      dup2\n      sload\n      dup2\n      lt\n      tag_349\n      jumpi\n      mstore(0x00, shl(0xe0, 0x4e487b71))\n      mstore(0x04, 0x32)\n      revert(0x00, 0x24)\n    tag_349:\n      0x00\n      swap2\n      dup3\n      mstore\n      0x20\n      dup3\n      keccak256\n      0x06\n      swap1\n      swap2\n      mul\n      add\n        /* \"contracts/roy.sol\":14571:14588  stakes[i].stakeId */\n      sload\n        /* \"contracts/roy.sol\":14550:14604  Claimed(userAddress, stakes[i].stakeId, userAmount, 0) */\n      mload(0x40)\n      tag_351\n      swap3\n        /* \"contracts/roy.sol\":14590:14600  userAmount */\n      dup9\n      swap2\n        /* \"contracts/roy.sol\":14550:14604  Claimed(userAddress, stakes[i].stakeId, userAmount, 0) */\n      tag_352\n      jump\t// in\n    tag_351:\n      mload(0x40)\n      dup1\n      swap2\n      sub\n      swap1\n      log2\n        /* \"contracts/roy.sol\":14631:14635  true */\n      0x01\n        /* \"contracts/roy.sol\":14623:14635  found = true */\n      swap7\n      pop\n        /* \"contracts/roy.sol\":14653:14658  break */\n      pop\n      pop\n      pop\n      pop\n      pop\n      jump(tag_197)\n        /* \"contracts/roy.sol\":13394:14673  if (stakes[i].positionId == _positionId && !stakes[i].claimed) {... */\n    tag_311:\n        /* \"contracts/roy.sol\":13375:13378  i++ */\n      dup1\n      tag_353\n      dup2\n      tag_190\n      jump\t// in\n    tag_353:\n      swap2\n      pop\n      pop\n        /* \"contracts/roy.sol\":13336:14683  for (uint256 i = 0; i < stakes.length; i++) {... */\n      jump(tag_303)\n        /* \"contracts/roy.sol\":10614:10734  function getContractBalance() external view returns (uint256) {... */\n    tag_91:\n        /* \"contracts/roy.sol\":10693:10702  usdtToken */\n      sload(0x02)\n        /* \"contracts/roy.sol\":10693:10727  usdtToken.balanceOf(address(this)) */\n      mload(0x40)\n      shl(0xe0, 0x70a08231)\n      dup2\n      mstore\n        /* \"contracts/roy.sol\":10667:10674  uint256 */\n      0x00\n      swap2\n      sub(shl(0xa0, 0x01), 0x01)\n        /* \"contracts/roy.sol\":10693:10702  usdtToken */\n      and\n      swap1\n        /* \"contracts/roy.sol\":10693:10712  usdtToken.balanceOf */\n      0x70a08231\n      swap1\n        /* \"contracts/roy.sol\":10693:10727  usdtToken.balanceOf(address(this)) */\n      tag_357\n      swap1\n        /* \"contracts/roy.sol\":10721:10725  this */\n      address\n      swap1\n        /* \"contracts/roy.sol\":10693:10727  usdtToken.balanceOf(address(this)) */\n      0x04\n      add\n      tag_53\n      jump\t// in\n    tag_357:\n      0x20\n      mload(0x40)\n      dup1\n      dup4\n      sub\n      dup2\n      dup7\n      dup1\n      extcodesize\n      iszero\n      dup1\n      iszero\n      tag_358\n      jumpi\n      0x00\n      dup1\n      revert\n    tag_358:\n      pop\n      gas\n      staticcall\n      iszero\n      dup1\n      iszero\n      tag_360\n      jumpi\n      returndatasize\n      0x00\n      dup1\n      returndatacopy\n      revert(0x00, returndatasize)\n    tag_360:\n      pop\n      pop\n      pop\n      pop\n      mload(0x40)\n      returndatasize\n      not(0x1f)\n      0x1f\n      dup3\n      add\n      and\n      dup3\n      add\n      dup1\n      0x40\n      mstore\n      pop\n      dup2\n      add\n      swap1\n      tag_361\n      swap2\n      swap1\n      tag_234\n      jump\t// in\n    tag_361:\n        /* \"contracts/roy.sol\":10686:10727  return usdtToken.balanceOf(address(this)) */\n      swap1\n      pop\n        /* \"contracts/roy.sol\":10614:10734  function getContractBalance() external view returns (uint256) {... */\n      swap1\n      jump\t// out\n        /* \"contracts/roy.sol\":14758:16132  function getStakeByPositionId(uint256 _positionId)... */\n    tag_95:\n        /* \"contracts/roy.sol\":14869:14881  address user */\n      0x00\n        /* \"contracts/roy.sol\":15128:15157  positionIdToUser[_positionId] */\n      dup2\n      dup2\n      mstore\n        /* \"contracts/roy.sol\":15128:15144  positionIdToUser */\n      0x05\n        /* \"contracts/roy.sol\":15128:15157  positionIdToUser[_positionId] */\n      0x20\n      mstore\n      0x40\n      dup2\n      keccak256\n      sload\n        /* \"contracts/roy.sol\":14869:14881  address user */\n      dup2\n      swap1\n      dup2\n      swap1\n      dup2\n      swap1\n      dup2\n      swap1\n      dup2\n      swap1\n      dup2\n      swap1\n      dup2\n      swap1\n      sub(shl(0xa0, 0x01), 0x01)\n        /* \"contracts/roy.sol\":15128:15157  positionIdToUser[_positionId] */\n      and\n        /* \"contracts/roy.sol\":15175:15197  userAddr != address(0) */\n      dup1\n        /* \"contracts/roy.sol\":15167:15220  require(userAddr != address(0), \"Invalid positionId\") */\n      tag_363\n      jumpi\n      mload(0x40)\n      shl(0xe5, 0x461bcd)\n      dup2\n      mstore\n      0x04\n      add\n      tag_193\n      swap1\n      tag_365\n      jump\t// in\n    tag_363:\n      sub(shl(0xa0, 0x01), 0x01)\n        /* \"contracts/roy.sol\":15255:15270  users[userAddr] */\n      dup2\n      and\n        /* \"contracts/roy.sol\":15231:15252  Stake[] memory stakes */\n      0x00\n        /* \"contracts/roy.sol\":15255:15270  users[userAddr] */\n      swap1\n      dup2\n      mstore\n        /* \"contracts/roy.sol\":15255:15260  users */\n      0x03\n        /* \"contracts/roy.sol\":15255:15270  users[userAddr] */\n      0x20\n      swap1\n      dup2\n      mstore\n      0x40\n      dup1\n      dup4\n      keccak256\n        /* \"contracts/roy.sol\":15255:15277  users[userAddr].stakes */\n      0x01\n      add\n        /* \"contracts/roy.sol\":15231:15277  Stake[] memory stakes = users[userAddr].stakes */\n      dup1\n      sload\n      dup3\n      mload\n      dup2\n      dup6\n      mul\n      dup2\n      add\n      dup6\n      add\n      swap1\n      swap4\n      mstore\n      dup1\n      dup4\n      mstore\n      swap2\n      swap3\n        /* \"contracts/roy.sol\":15255:15277  users[userAddr].stakes */\n      swap1\n      swap2\n        /* \"contracts/roy.sol\":15231:15277  Stake[] memory stakes = users[userAddr].stakes */\n      swap1\n        /* \"contracts/roy.sol\":15231:15252  Stake[] memory stakes */\n      dup5\n      swap1\n        /* \"contracts/roy.sol\":15231:15277  Stake[] memory stakes = users[userAddr].stakes */\n      dup5\n      add\n    tag_366:\n      dup3\n      dup3\n      lt\n      iszero\n      tag_367\n      jumpi\n      0x00\n      dup5\n      dup2\n      mstore\n      0x20\n      swap1\n      dup2\n      swap1\n      keccak256\n      0x40\n      dup1\n      mload\n      0xc0\n      dup2\n      add\n      dup3\n      mstore\n      0x06\n      dup7\n      mul\n      swap1\n      swap3\n      add\n      dup1\n      sload\n      dup4\n      mstore\n      0x01\n      dup1\n      dup3\n      add\n      sload\n      dup5\n      dup7\n      add\n      mstore\n      0x02\n      dup3\n      add\n      sload\n      swap3\n      dup5\n      add\n      swap3\n      swap1\n      swap3\n      mstore\n      0x03\n      dup2\n      add\n      sload\n      0x60\n      dup5\n      add\n      mstore\n      0x04\n      dup2\n      add\n      sload\n      0x80\n      dup5\n      add\n      mstore\n      0x05\n      add\n      sload\n      0xff\n      and\n      iszero\n      iszero\n      0xa0\n      dup4\n      add\n      mstore\n      swap1\n      dup4\n      mstore\n      swap1\n      swap3\n      add\n      swap2\n      add\n      jump(tag_366)\n    tag_367:\n      pop\n      pop\n      pop\n      pop\n      swap1\n      pop\n        /* \"contracts/roy.sol\":15292:15301  uint256 i */\n      0x00\n        /* \"contracts/roy.sol\":15287:16090  for (uint256 i = 0; i < stakes.length; i++) {... */\n    tag_369:\n        /* \"contracts/roy.sol\":15311:15317  stakes */\n      dup2\n        /* \"contracts/roy.sol\":15311:15324  stakes.length */\n      mload\n        /* \"contracts/roy.sol\":15307:15308  i */\n      dup2\n        /* \"contracts/roy.sol\":15307:15324  i < stakes.length */\n      lt\n        /* \"contracts/roy.sol\":15287:16090  for (uint256 i = 0; i < stakes.length; i++) {... */\n      iszero\n      tag_370\n      jumpi\n        /* \"contracts/roy.sol\":15373:15384  _positionId */\n      dup12\n        /* \"contracts/roy.sol\":15349:15355  stakes */\n      dup3\n        /* \"contracts/roy.sol\":15356:15357  i */\n      dup3\n        /* \"contracts/roy.sol\":15349:15358  stakes[i] */\n      dup2\n      mload\n      dup2\n      lt\n      tag_372\n      jumpi\n      mstore(0x00, shl(0xe0, 0x4e487b71))\n      mstore(0x04, 0x32)\n      revert(0x00, 0x24)\n    tag_372:\n      0x20\n      mul\n      0x20\n      add\n      add\n      mload\n        /* \"contracts/roy.sol\":15349:15369  stakes[i].positionId */\n      0x20\n      add\n      mload\n        /* \"contracts/roy.sol\":15349:15384  stakes[i].positionId == _positionId */\n      eq\n        /* \"contracts/roy.sol\":15345:16080  if (stakes[i].positionId == _positionId) {... */\n      iszero\n      tag_373\n      jumpi\n        /* \"contracts/roy.sol\":15404:15418  Stake memory s */\n      0x00\n        /* \"contracts/roy.sol\":15421:15427  stakes */\n      dup3\n        /* \"contracts/roy.sol\":15428:15429  i */\n      dup3\n        /* \"contracts/roy.sol\":15421:15430  stakes[i] */\n      dup2\n      mload\n      dup2\n      lt\n      tag_374\n      jumpi\n      mstore(0x00, shl(0xe0, 0x4e487b71))\n      mstore(0x04, 0x32)\n      revert(0x00, 0x24)\n    tag_374:\n      0x20\n      mul\n      0x20\n      add\n      add\n      mload\n        /* \"contracts/roy.sol\":15404:15430  Stake memory s = stakes[i] */\n      swap1\n      pop\n        /* \"contracts/roy.sol\":15449:15464  uint256 apyRate */\n      0x00\n        /* \"contracts/roy.sol\":15467:15477  stakingAPY */\n      0x06\n        /* \"contracts/roy.sol\":15467:15488  stakingAPY[s.numDays] */\n      0x00\n        /* \"contracts/roy.sol\":15478:15479  s */\n      dup4\n        /* \"contracts/roy.sol\":15478:15487  s.numDays */\n      0x80\n      add\n      mload\n        /* \"contracts/roy.sol\":15467:15488  stakingAPY[s.numDays] */\n      dup2\n      mstore\n      0x20\n      add\n      swap1\n      dup2\n      mstore\n      0x20\n      add\n      0x00\n      keccak256\n      sload\n        /* \"contracts/roy.sol\":15449:15488  uint256 apyRate = stakingAPY[s.numDays] */\n      swap1\n      pop\n        /* \"contracts/roy.sol\":15506:15517  uint256 end */\n      0x00\n        /* \"contracts/roy.sol\":15535:15536  s */\n      dup3\n        /* \"contracts/roy.sol\":15535:15544  s.numDays */\n      0x80\n      add\n      mload\n        /* \"contracts/roy.sol\":15547:15553  1 days */\n      0x015180\n        /* \"contracts/roy.sol\":15535:15553  s.numDays * 1 days */\n      tag_375\n      swap2\n      swap1\n      tag_208\n      jump\t// in\n    tag_375:\n        /* \"contracts/roy.sol\":15520:15521  s */\n      dup4\n        /* \"contracts/roy.sol\":15520:15531  s.timestamp */\n      0x60\n      add\n      mload\n        /* \"contracts/roy.sol\":15520:15554  s.timestamp + (s.numDays * 1 days) */\n      tag_376\n      swap2\n      swap1\n      tag_212\n      jump\t// in\n    tag_376:\n        /* \"contracts/roy.sol\":15506:15554  uint256 end = s.timestamp + (s.numDays * 1 days) */\n      swap1\n      pop\n        /* \"contracts/roy.sol\":15572:15585  bool isActive */\n      0x00\n        /* \"contracts/roy.sol\":15589:15590  s */\n      dup4\n        /* \"contracts/roy.sol\":15589:15598  s.claimed */\n      0xa0\n      add\n      mload\n        /* \"contracts/roy.sol\":15588:15598  !s.claimed */\n      iszero\n        /* \"contracts/roy.sol\":15588:15623  !s.claimed && block.timestamp < end */\n      dup1\n      iszero\n      tag_377\n      jumpi\n      pop\n        /* \"contracts/roy.sol\":15620:15623  end */\n      dup2\n        /* \"contracts/roy.sol\":15602:15617  block.timestamp */\n      timestamp\n        /* \"contracts/roy.sol\":15602:15623  block.timestamp < end */\n      lt\n        /* \"contracts/roy.sol\":15588:15623  !s.claimed && block.timestamp < end */\n    tag_377:\n        /* \"contracts/roy.sol\":15572:15623  bool isActive = !s.claimed && block.timestamp < end */\n      swap1\n      pop\n        /* \"contracts/roy.sol\":15722:15743  uint256 dailyInterest */\n      0x00\n        /* \"contracts/roy.sol\":15775:15778  365 */\n      0x016d\n        /* \"contracts/roy.sol\":15769:15772  100 */\n      0x64\n        /* \"contracts/roy.sol\":15758:15765  apyRate */\n      dup6\n        /* \"contracts/roy.sol\":15747:15748  s */\n      dup8\n        /* \"contracts/roy.sol\":15747:15755  s.amount */\n      0x40\n      add\n      mload\n        /* \"contracts/roy.sol\":15747:15765  s.amount * apyRate */\n      tag_378\n      swap2\n      swap1\n      tag_208\n      jump\t// in\n    tag_378:\n        /* \"contracts/roy.sol\":15746:15772  (s.amount * apyRate) / 100 */\n      tag_379\n      swap2\n      swap1\n      tag_225\n      jump\t// in\n    tag_379:\n        /* \"contracts/roy.sol\":15746:15778  (s.amount * apyRate) / 100 / 365 */\n      tag_380\n      swap2\n      swap1\n      tag_225\n      jump\t// in\n    tag_380:\n        /* \"contracts/roy.sol\":15722:15778  uint256 dailyInterest = (s.amount * apyRate) / 100 / 365 */\n      swap1\n      pop\n        /* \"contracts/roy.sol\":15826:15834  userAddr */\n      dup8\n        /* \"contracts/roy.sol\":15856:15857  s */\n      dup6\n        /* \"contracts/roy.sol\":15856:15865  s.stakeId */\n      0x00\n      add\n      mload\n        /* \"contracts/roy.sol\":15887:15888  s */\n      dup7\n        /* \"contracts/roy.sol\":15887:15895  s.amount */\n      0x40\n      add\n      mload\n        /* \"contracts/roy.sol\":15917:15918  s */\n      dup8\n        /* \"contracts/roy.sol\":15917:15928  s.timestamp */\n      0x60\n      add\n      mload\n        /* \"contracts/roy.sol\":15950:15953  end */\n      dup7\n        /* \"contracts/roy.sol\":15975:15982  apyRate */\n      dup9\n        /* \"contracts/roy.sol\":16004:16017  dailyInterest */\n      dup7\n        /* \"contracts/roy.sol\":16039:16047  isActive */\n      dup9\n        /* \"contracts/roy.sol\":15797:16065  return (... */\n      swap16\n      pop\n      swap16\n      pop\n      swap16\n      pop\n      swap16\n      pop\n      swap16\n      pop\n      swap16\n      pop\n      swap16\n      pop\n      swap16\n      pop\n      pop\n      pop\n      pop\n      pop\n      pop\n      pop\n      pop\n      pop\n      jump(tag_362)\n        /* \"contracts/roy.sol\":15345:16080  if (stakes[i].positionId == _positionId) {... */\n    tag_373:\n        /* \"contracts/roy.sol\":15326:15329  i++ */\n      dup1\n      tag_381\n      dup2\n      tag_190\n      jump\t// in\n    tag_381:\n      swap2\n      pop\n      pop\n        /* \"contracts/roy.sol\":15287:16090  for (uint256 i = 0; i < stakes.length; i++) {... */\n      jump(tag_369)\n    tag_370:\n      pop\n        /* \"contracts/roy.sol\":16100:16125  revert(\"Stake not found\") */\n      mload(0x40)\n      shl(0xe5, 0x461bcd)\n      dup2\n      mstore\n      0x04\n      add\n      tag_193\n      swap1\n      tag_383\n      jump\t// in\n        /* \"contracts/roy.sol\":14758:16132  function getStakeByPositionId(uint256 _positionId)... */\n    tag_362:\n      swap2\n      swap4\n      swap6\n      swap8\n      pop\n      swap2\n      swap4\n      swap6\n      swap8\n      jump\t// out\n        /* \"contracts/roy.sol\":6774:10609  function stake(uint256 numDays, uint256 amount) external onlyRegistered {... */\n    tag_100:\n        /* \"contracts/roy.sol\":2076:2086  msg.sender */\n      caller\n        /* \"contracts/roy.sol\":2070:2087  users[msg.sender] */\n      0x00\n      swap1\n      dup2\n      mstore\n        /* \"contracts/roy.sol\":2070:2075  users */\n      0x03\n        /* \"contracts/roy.sol\":2070:2087  users[msg.sender] */\n      0x20\n      mstore\n      0x40\n      swap1\n      keccak256\n        /* \"contracts/roy.sol\":2070:2098  users[msg.sender].registered */\n      0x04\n      add\n      sload\n      0xff\n      and\n        /* \"contracts/roy.sol\":2062:2117  require(users[msg.sender].registered, \"Not registered\") */\n      tag_385\n      jumpi\n      mload(0x40)\n      shl(0xe5, 0x461bcd)\n      dup2\n      mstore\n      0x04\n      add\n      tag_193\n      swap1\n      tag_194\n      jump\t// in\n    tag_385:\n        /* \"contracts/roy.sol\":6873:6874  0 */\n      0x00\n        /* \"contracts/roy.sol\":6864:6870  amount */\n      dup2\n        /* \"contracts/roy.sol\":6864:6874  amount > 0 */\n      gt\n        /* \"contracts/roy.sol\":6856:6914  require(amount > 0, \"Stake amount must be greater than 0\") */\n      tag_388\n      jumpi\n      mload(0x40)\n      shl(0xe5, 0x461bcd)\n      dup2\n      mstore\n      0x04\n      add\n      tag_193\n      swap1\n      tag_390\n      jump\t// in\n    tag_388:\n        /* \"contracts/roy.sol\":6954:6955  0 */\n      0x00\n        /* \"contracts/roy.sol\":6932:6951  stakingAPY[numDays] */\n      dup3\n      dup2\n      mstore\n        /* \"contracts/roy.sol\":6932:6942  stakingAPY */\n      0x06\n        /* \"contracts/roy.sol\":6932:6951  stakingAPY[numDays] */\n      0x20\n      mstore\n      0x40\n      swap1\n      keccak256\n      sload\n        /* \"contracts/roy.sol\":6924:6984  require(stakingAPY[numDays] > 0, \"Invalid staking duration\") */\n      tag_391\n      jumpi\n      mload(0x40)\n      shl(0xe5, 0x461bcd)\n      dup2\n      mstore\n      0x04\n      add\n      tag_193\n      swap1\n      tag_393\n      jump\t// in\n    tag_391:\n        /* \"contracts/roy.sol\":7020:7030  msg.sender */\n      caller\n        /* \"contracts/roy.sol\":6995:7011  address referrer */\n      0x00\n        /* \"contracts/roy.sol\":7014:7031  users[msg.sender] */\n      swap1\n      dup2\n      mstore\n        /* \"contracts/roy.sol\":7014:7019  users */\n      0x03\n        /* \"contracts/roy.sol\":7014:7031  users[msg.sender] */\n      0x20\n      mstore\n      0x40\n      swap1\n      keccak256\n        /* \"contracts/roy.sol\":7014:7040  users[msg.sender].referrer */\n      sload\n      sub(shl(0xa0, 0x01), 0x01)\n      and\n        /* \"contracts/roy.sol\":7055:7077  referrer != address(0) */\n      dup1\n      iszero\n        /* \"contracts/roy.sol\":7051:7190  if (referrer != address(0)) {... */\n      tag_395\n      jumpi\n      sub(shl(0xa0, 0x01), 0x01)\n        /* \"contracts/roy.sol\":7101:7116  users[referrer] */\n      dup2\n      and\n        /* \"contracts/roy.sol\":7133:7134  0 */\n      0x00\n        /* \"contracts/roy.sol\":7101:7116  users[referrer] */\n      swap1\n      dup2\n      mstore\n        /* \"contracts/roy.sol\":7101:7106  users */\n      0x03\n        /* \"contracts/roy.sol\":7101:7116  users[referrer] */\n      0x20\n      mstore\n      0x40\n      swap1\n      keccak256\n        /* \"contracts/roy.sol\":7101:7123  users[referrer].stakes */\n      0x01\n      add\n        /* \"contracts/roy.sol\":7101:7130  users[referrer].stakes.length */\n      sload\n        /* \"contracts/roy.sol\":7093:7179  require(users[referrer].stakes.length > 0, \"Referrer must stake before you can stake\") */\n      tag_395\n      jumpi\n      mload(0x40)\n      shl(0xe5, 0x461bcd)\n      dup2\n      mstore\n      0x04\n      add\n      tag_193\n      swap1\n      tag_397\n      jump\t// in\n    tag_395:\n        /* \"contracts/roy.sol\":7215:7224  usdtToken */\n      sload(0x02)\n        /* \"contracts/roy.sol\":7215:7272  usdtToken.transferFrom(msg.sender, address(this), amount) */\n      mload(0x40)\n      shl(0xe0, 0x23b872dd)\n      dup2\n      mstore\n        /* \"contracts/roy.sol\":7200:7212  bool success */\n      0x00\n      swap2\n      sub(shl(0xa0, 0x01), 0x01)\n        /* \"contracts/roy.sol\":7215:7224  usdtToken */\n      and\n      swap1\n        /* \"contracts/roy.sol\":7215:7237  usdtToken.transferFrom */\n      0x23b872dd\n      swap1\n        /* \"contracts/roy.sol\":7215:7272  usdtToken.transferFrom(msg.sender, address(this), amount) */\n      tag_398\n      swap1\n        /* \"contracts/roy.sol\":7238:7248  msg.sender */\n      caller\n      swap1\n        /* \"contracts/roy.sol\":7258:7262  this */\n      address\n      swap1\n        /* \"contracts/roy.sol\":7265:7271  amount */\n      dup9\n      swap1\n        /* \"contracts/roy.sol\":7215:7272  usdtToken.transferFrom(msg.sender, address(this), amount) */\n      0x04\n      add\n      tag_399\n      jump\t// in\n    tag_398:\n      0x20\n      mload(0x40)\n      dup1\n      dup4\n      sub\n      dup2\n      0x00\n      dup8\n      dup1\n      extcodesize\n      iszero\n      dup1\n      iszero\n      tag_400\n      jumpi\n      0x00\n      dup1\n      revert\n    tag_400:\n      pop\n      gas\n      call\n      iszero\n      dup1\n      iszero\n      tag_402\n      jumpi\n      returndatasize\n      0x00\n      dup1\n      returndatacopy\n      revert(0x00, returndatasize)\n    tag_402:\n      pop\n      pop\n      pop\n      pop\n      mload(0x40)\n      returndatasize\n      not(0x1f)\n      0x1f\n      dup3\n      add\n      and\n      dup3\n      add\n      dup1\n      0x40\n      mstore\n      pop\n      dup2\n      add\n      swap1\n      tag_403\n      swap2\n      swap1\n      tag_246\n      jump\t// in\n    tag_403:\n        /* \"contracts/roy.sol\":7200:7272  bool success = usdtToken.transferFrom(msg.sender, address(this), amount) */\n      swap1\n      pop\n        /* \"contracts/roy.sol\":7290:7297  success */\n      dup1\n        /* \"contracts/roy.sol\":7282:7322  require(success, \"USDT transfer failed\") */\n      tag_404\n      jumpi\n      mload(0x40)\n      shl(0xe5, 0x461bcd)\n      dup2\n      mstore\n      0x04\n      add\n      tag_193\n      swap1\n      tag_249\n      jump\t// in\n    tag_404:\n        /* \"contracts/roy.sol\":7333:7351  uint256 positionId */\n      0x00\n        /* \"contracts/roy.sol\":7356:7368  stakeCounter */\n      0x01\n      0x00\n        /* \"contracts/roy.sol\":7354:7368  ++stakeCounter */\n      dup2\n      sload\n      tag_406\n      swap1\n      tag_190\n      jump\t// in\n    tag_406:\n      swap2\n      swap1\n      pop\n      dup2\n      swap1\n      sstore\n        /* \"contracts/roy.sol\":7333:7368  uint256 positionId = ++stakeCounter */\n      swap1\n      pop\n        /* \"contracts/roy.sol\":7379:7384  users */\n      0x03\n        /* \"contracts/roy.sol\":7379:7396  users[msg.sender] */\n      0x00\n        /* \"contracts/roy.sol\":7385:7395  msg.sender */\n      caller\n      sub(shl(0xa0, 0x01), 0x01)\n        /* \"contracts/roy.sol\":7379:7396  users[msg.sender] */\n      and\n      sub(shl(0xa0, 0x01), 0x01)\n      and\n      dup2\n      mstore\n      0x20\n      add\n      swap1\n      dup2\n      mstore\n      0x20\n      add\n      0x00\n      keccak256\n        /* \"contracts/roy.sol\":7379:7403  users[msg.sender].stakes */\n      0x01\n      add\n        /* \"contracts/roy.sol\":7422:7664  Stake({... */\n      mload(0x40)\n      dup1\n      0xc0\n      add\n      0x40\n      mstore\n      dup1\n        /* \"contracts/roy.sol\":7455:7467  stakeCounter */\n      sload(0x01)\n        /* \"contracts/roy.sol\":7422:7664  Stake({... */\n      dup2\n      mstore\n      0x20\n      add\n        /* \"contracts/roy.sol\":7497:7507  positionId */\n      dup4\n        /* \"contracts/roy.sol\":7422:7664  Stake({... */\n      dup2\n      mstore\n      0x20\n      add\n        /* \"contracts/roy.sol\":7533:7539  amount */\n      dup7\n        /* \"contracts/roy.sol\":7422:7664  Stake({... */\n      dup2\n      mstore\n      0x20\n      add\n        /* \"contracts/roy.sol\":7568:7583  block.timestamp */\n      timestamp\n        /* \"contracts/roy.sol\":7422:7664  Stake({... */\n      dup2\n      mstore\n      0x20\n      add\n        /* \"contracts/roy.sol\":7610:7617  numDays */\n      dup8\n        /* \"contracts/roy.sol\":7422:7664  Stake({... */\n      dup2\n      mstore\n      0x20\n      add\n        /* \"contracts/roy.sol\":7644:7649  false */\n      0x00\n        /* \"contracts/roy.sol\":7422:7664  Stake({... */\n      iszero\n      iszero\n      dup2\n      mstore\n      pop\n        /* \"contracts/roy.sol\":7379:7674  users[msg.sender].stakes.push(... */\n      swap1\n      dup1\n      0x01\n      dup2\n      sload\n      add\n      dup1\n      dup3\n      sstore\n      dup1\n      swap2\n      pop\n      pop\n      0x01\n      swap1\n      sub\n      swap1\n      0x00\n      mstore\n      keccak256(0x00, 0x20)\n      swap1\n      0x06\n      mul\n      add\n      0x00\n      swap1\n      swap2\n      swap1\n      swap2\n      swap1\n      swap2\n      pop\n      0x00\n      dup3\n      add\n      mload\n      dup2\n      0x00\n      add\n      sstore\n      0x20\n      dup3\n      add\n      mload\n      dup2\n      0x01\n      add\n      sstore\n      0x40\n      dup3\n      add\n      mload\n      dup2\n      0x02\n      add\n      sstore\n      0x60\n      dup3\n      add\n      mload\n      dup2\n      0x03\n      add\n      sstore\n      0x80\n      dup3\n      add\n      mload\n      dup2\n      0x04\n      add\n      sstore\n      0xa0\n      dup3\n      add\n      mload\n      dup2\n      0x05\n      add\n      exp(0x0100, 0x00)\n      dup2\n      sload\n      dup2\n      0xff\n      mul\n      not\n      and\n      swap1\n      dup4\n      iszero\n      iszero\n      mul\n      or\n      swap1\n      sstore\n      pop\n      pop\n      pop\n        /* \"contracts/roy.sol\":7716:7726  msg.sender */\n      caller\n        /* \"contracts/roy.sol\":7685:7701  positionIdToUser */\n      0x05\n        /* \"contracts/roy.sol\":7685:7713  positionIdToUser[positionId] */\n      0x00\n        /* \"contracts/roy.sol\":7702:7712  positionId */\n      dup4\n        /* \"contracts/roy.sol\":7685:7713  positionIdToUser[positionId] */\n      dup2\n      mstore\n      0x20\n      add\n      swap1\n      dup2\n      mstore\n      0x20\n      add\n      0x00\n      keccak256\n      0x00\n        /* \"contracts/roy.sol\":7685:7726  positionIdToUser[positionId] = msg.sender */\n      0x0100\n      exp\n      dup2\n      sload\n      dup2\n      sub(shl(0xa0, 0x01), 0x01)\n      mul\n      not\n      and\n      swap1\n      dup4\n      sub(shl(0xa0, 0x01), 0x01)\n      and\n      mul\n      or\n      swap1\n      sstore\n      pop\n        /* \"contracts/roy.sol\":7737:7754  bool isFirstStake */\n      0x00\n        /* \"contracts/roy.sol\":7757:7762  users */\n      0x03\n        /* \"contracts/roy.sol\":7757:7774  users[msg.sender] */\n      0x00\n        /* \"contracts/roy.sol\":7763:7773  msg.sender */\n      caller\n      sub(shl(0xa0, 0x01), 0x01)\n        /* \"contracts/roy.sol\":7757:7774  users[msg.sender] */\n      and\n      sub(shl(0xa0, 0x01), 0x01)\n      and\n      dup2\n      mstore\n      0x20\n      add\n      swap1\n      dup2\n      mstore\n      0x20\n      add\n      0x00\n      keccak256\n        /* \"contracts/roy.sol\":7757:7781  users[msg.sender].stakes */\n      0x01\n      add\n        /* \"contracts/roy.sol\":7757:7788  users[msg.sender].stakes.length */\n      dup1\n      sload\n      swap1\n      pop\n        /* \"contracts/roy.sol\":7792:7793  1 */\n      0x01\n        /* \"contracts/roy.sol\":7757:7793  users[msg.sender].stakes.length == 1 */\n      eq\n        /* \"contracts/roy.sol\":7737:7793  bool isFirstStake = users[msg.sender].stakes.length == 1 */\n      swap1\n      pop\n        /* \"contracts/roy.sol\":7804:7818  address upline */\n      0x00\n        /* \"contracts/roy.sol\":7821:7826  users */\n      0x03\n        /* \"contracts/roy.sol\":7821:7838  users[msg.sender] */\n      0x00\n        /* \"contracts/roy.sol\":7827:7837  msg.sender */\n      caller\n      sub(shl(0xa0, 0x01), 0x01)\n        /* \"contracts/roy.sol\":7821:7838  users[msg.sender] */\n      and\n      sub(shl(0xa0, 0x01), 0x01)\n      and\n      dup2\n      mstore\n      0x20\n      add\n      swap1\n      dup2\n      mstore\n      0x20\n      add\n      0x00\n      keccak256\n        /* \"contracts/roy.sol\":7821:7847  users[msg.sender].referrer */\n      0x00\n      add\n      0x00\n      swap1\n      sload\n      swap1\n      0x0100\n      exp\n      swap1\n      div\n      sub(shl(0xa0, 0x01), 0x01)\n      and\n        /* \"contracts/roy.sol\":7804:7847  address upline = users[msg.sender].referrer */\n      swap1\n      pop\n        /* \"contracts/roy.sol\":7863:7870  uint8 i */\n      0x00\n        /* \"contracts/roy.sol\":7858:10603  for (uint8 i = 0; i < levelRewards.length && upline != address(0); i++) {... */\n    tag_408:\n        /* \"contracts/roy.sol\":7880:7899  levelRewards.length */\n      0x05\n        /* \"contracts/roy.sol\":7876:7877  i */\n      dup2\n        /* \"contracts/roy.sol\":7876:7899  i < levelRewards.length */\n      0xff\n      and\n      lt\n        /* \"contracts/roy.sol\":7876:7923  i < levelRewards.length && upline != address(0) */\n      dup1\n      iszero\n      tag_411\n      jumpi\n      pop\n      sub(shl(0xa0, 0x01), 0x01)\n        /* \"contracts/roy.sol\":7903:7923  upline != address(0) */\n      dup3\n      and\n      iszero\n      iszero\n        /* \"contracts/roy.sol\":7876:7923  i < levelRewards.length && upline != address(0) */\n    tag_411:\n        /* \"contracts/roy.sol\":7858:10603  for (uint8 i = 0; i < levelRewards.length && upline != address(0); i++) {... */\n      iszero\n      tag_409\n      jumpi\n        /* \"contracts/roy.sol\":7944:7958  uint256 reward */\n      0x00\n        /* \"contracts/roy.sol\":7981:7987  i == 0 */\n      0xff\n      dup3\n      and\n        /* \"contracts/roy.sol\":7977:10108  if (i == 0) {... */\n      tag_412\n      jumpi\n        /* \"contracts/roy.sol\":8011:8023  isFirstStake */\n      dup4\n        /* \"contracts/roy.sol\":8007:9628  if (isFirstStake) {... */\n      iszero\n      tag_413\n      jumpi\n        /* \"contracts/roy.sol\":8093:8113  uint256 directReward */\n      0x00\n        /* \"contracts/roy.sol\":8131:8134  100 */\n      0x64\n        /* \"contracts/roy.sol\":8117:8127  amount * 5 */\n      tag_414\n        /* \"contracts/roy.sol\":8117:8123  amount */\n      dup11\n        /* \"contracts/roy.sol\":8126:8127  5 */\n      0x05\n        /* \"contracts/roy.sol\":8117:8127  amount * 5 */\n      tag_208\n      jump\t// in\n    tag_414:\n        /* \"contracts/roy.sol\":8116:8134  (amount * 5) / 100 */\n      tag_415\n      swap2\n      swap1\n      tag_225\n      jump\t// in\n    tag_415:\n        /* \"contracts/roy.sol\":8093:8134  uint256 directReward = (amount * 5) / 100 */\n      swap1\n      pop\n        /* \"contracts/roy.sol\":8156:8176  uint256 level1Reward */\n      0x00\n        /* \"contracts/roy.sol\":8194:8197  100 */\n      0x64\n        /* \"contracts/roy.sol\":8180:8190  amount * 5 */\n      tag_416\n        /* \"contracts/roy.sol\":8180:8186  amount */\n      dup12\n        /* \"contracts/roy.sol\":8189:8190  5 */\n      0x05\n        /* \"contracts/roy.sol\":8180:8190  amount * 5 */\n      tag_208\n      jump\t// in\n    tag_416:\n        /* \"contracts/roy.sol\":8179:8197  (amount * 5) / 100 */\n      tag_417\n      swap2\n      swap1\n      tag_225\n      jump\t// in\n    tag_417:\n        /* \"contracts/roy.sol\":8228:8237  usdtToken */\n      sload(0x02)\n        /* \"contracts/roy.sol\":8228:8262  usdtToken.balanceOf(address(this)) */\n      mload(0x40)\n      shl(0xe0, 0x70a08231)\n      dup2\n      mstore\n        /* \"contracts/roy.sol\":8156:8197  uint256 level1Reward = (amount * 5) / 100 */\n      swap2\n      swap3\n      pop\n        /* \"contracts/roy.sol\":8266:8278  directReward */\n      dup4\n      swap2\n      sub(shl(0xa0, 0x01), 0x01)\n        /* \"contracts/roy.sol\":8228:8237  usdtToken */\n      swap1\n      swap2\n      and\n      swap1\n        /* \"contracts/roy.sol\":8228:8247  usdtToken.balanceOf */\n      0x70a08231\n      swap1\n        /* \"contracts/roy.sol\":8228:8262  usdtToken.balanceOf(address(this)) */\n      tag_418\n      swap1\n        /* \"contracts/roy.sol\":8256:8260  this */\n      address\n      swap1\n        /* \"contracts/roy.sol\":8228:8262  usdtToken.balanceOf(address(this)) */\n      0x04\n      add\n      tag_53\n      jump\t// in\n    tag_418:\n      0x20\n      mload(0x40)\n      dup1\n      dup4\n      sub\n      dup2\n      dup7\n      dup1\n      extcodesize\n      iszero\n      dup1\n      iszero\n      tag_419\n      jumpi\n      0x00\n      dup1\n      revert\n    tag_419:\n      pop\n      gas\n      staticcall\n      iszero\n      dup1\n      iszero\n      tag_421\n      jumpi\n      returndatasize\n      0x00\n      dup1\n      returndatacopy\n      revert(0x00, returndatasize)\n    tag_421:\n      pop\n      pop\n      pop\n      pop\n      mload(0x40)\n      returndatasize\n      not(0x1f)\n      0x1f\n      dup3\n      add\n      and\n      dup3\n      add\n      dup1\n      0x40\n      mstore\n      pop\n      dup2\n      add\n      swap1\n      tag_422\n      swap2\n      swap1\n      tag_234\n      jump\t// in\n    tag_422:\n        /* \"contracts/roy.sol\":8228:8278  usdtToken.balanceOf(address(this)) >= directReward */\n      lt\n      iszero\n        /* \"contracts/roy.sol\":8220:8323  require(usdtToken.balanceOf(address(this)) >= directReward, \"Insufficient contract balance for direct\") */\n      tag_423\n      jumpi\n      mload(0x40)\n      shl(0xe5, 0x461bcd)\n      dup2\n      mstore\n      0x04\n      add\n      tag_193\n      swap1\n      tag_425\n      jump\t// in\n    tag_423:\n        /* \"contracts/roy.sol\":8366:8375  usdtToken */\n      sload(0x02)\n        /* \"contracts/roy.sol\":8366:8406  usdtToken.transfer(upline, directReward) */\n      mload(0x40)\n      shl(0xe0, 0xa9059cbb)\n      dup2\n      mstore\n        /* \"contracts/roy.sol\":8345:8363  bool directSuccess */\n      0x00\n      swap2\n      sub(shl(0xa0, 0x01), 0x01)\n        /* \"contracts/roy.sol\":8366:8375  usdtToken */\n      and\n      swap1\n        /* \"contracts/roy.sol\":8366:8384  usdtToken.transfer */\n      0xa9059cbb\n      swap1\n        /* \"contracts/roy.sol\":8366:8406  usdtToken.transfer(upline, directReward) */\n      tag_426\n      swap1\n        /* \"contracts/roy.sol\":8385:8391  upline */\n      dup10\n      swap1\n        /* \"contracts/roy.sol\":8393:8405  directReward */\n      dup8\n      swap1\n        /* \"contracts/roy.sol\":8366:8406  usdtToken.transfer(upline, directReward) */\n      0x04\n      add\n      tag_241\n      jump\t// in\n    tag_426:\n      0x20\n      mload(0x40)\n      dup1\n      dup4\n      sub\n      dup2\n      0x00\n      dup8\n      dup1\n      extcodesize\n      iszero\n      dup1\n      iszero\n      tag_427\n      jumpi\n      0x00\n      dup1\n      revert\n    tag_427:\n      pop\n      gas\n      call\n      iszero\n      dup1\n      iszero\n      tag_429\n      jumpi\n      returndatasize\n      0x00\n      dup1\n      returndatacopy\n      revert(0x00, returndatasize)\n    tag_429:\n      pop\n      pop\n      pop\n      pop\n      mload(0x40)\n      returndatasize\n      not(0x1f)\n      0x1f\n      dup3\n      add\n      and\n      dup3\n      add\n      dup1\n      0x40\n      mstore\n      pop\n      dup2\n      add\n      swap1\n      tag_430\n      swap2\n      swap1\n      tag_246\n      jump\t// in\n    tag_430:\n        /* \"contracts/roy.sol\":8345:8406  bool directSuccess = usdtToken.transfer(upline, directReward) */\n      swap1\n      pop\n        /* \"contracts/roy.sol\":8436:8449  directSuccess */\n      dup1\n        /* \"contracts/roy.sol\":8428:8485  require(directSuccess, \"Direct referral transfer failed\") */\n      tag_431\n      jumpi\n      mload(0x40)\n      shl(0xe5, 0x461bcd)\n      dup2\n      mstore\n      0x04\n      add\n      tag_193\n      swap1\n      tag_433\n      jump\t// in\n    tag_431:\n      sub(shl(0xa0, 0x01), 0x01)\n        /* \"contracts/roy.sol\":8508:8536  directReferralIncome[upline] */\n      dup7\n      and\n      0x00\n      swap1\n      dup2\n      mstore\n        /* \"contracts/roy.sol\":8508:8528  directReferralIncome */\n      0x07\n        /* \"contracts/roy.sol\":8508:8536  directReferralIncome[upline] */\n      0x20\n      mstore\n      0x40\n      dup2\n      keccak256\n        /* \"contracts/roy.sol\":8508:8552  directReferralIncome[upline] += directReward */\n      dup1\n      sload\n        /* \"contracts/roy.sol\":8540:8552  directReward */\n      dup6\n      swap3\n        /* \"contracts/roy.sol\":8508:8536  directReferralIncome[upline] */\n      swap1\n        /* \"contracts/roy.sol\":8508:8552  directReferralIncome[upline] += directReward */\n      tag_434\n      swap1\n        /* \"contracts/roy.sol\":8540:8552  directReward */\n      dup5\n      swap1\n        /* \"contracts/roy.sol\":8508:8552  directReferralIncome[upline] += directReward */\n      tag_212\n      jump\t// in\n    tag_434:\n      swap1\n      swap2\n      sstore\n      pop\n      pop\n      sub(shl(0xa0, 0x01), 0x01)\n        /* \"contracts/roy.sol\":8574:8587  users[upline] */\n      dup7\n      and\n      0x00\n      swap1\n      dup2\n      mstore\n        /* \"contracts/roy.sol\":8574:8579  users */\n      0x03\n        /* \"contracts/roy.sol\":8574:8587  users[upline] */\n      0x20\n      mstore\n      0x40\n      dup2\n      keccak256\n        /* \"contracts/roy.sol\":8574:8599  users[upline].totalIncome */\n      0x02\n      add\n        /* \"contracts/roy.sol\":8574:8615  users[upline].totalIncome += directReward */\n      dup1\n      sload\n        /* \"contracts/roy.sol\":8603:8615  directReward */\n      dup6\n      swap3\n        /* \"contracts/roy.sol\":8574:8587  users[upline] */\n      swap1\n        /* \"contracts/roy.sol\":8574:8615  users[upline].totalIncome += directReward */\n      tag_435\n      swap1\n        /* \"contracts/roy.sol\":8603:8615  directReward */\n      dup5\n      swap1\n        /* \"contracts/roy.sol\":8574:8615  users[upline].totalIncome += directReward */\n      tag_212\n      jump\t// in\n    tag_435:\n      swap1\n      swap2\n      sstore\n      pop\n      pop\n        /* \"contracts/roy.sol\":8646:8655  usdtToken */\n      sload(0x02)\n        /* \"contracts/roy.sol\":8646:8680  usdtToken.balanceOf(address(this)) */\n      mload(0x40)\n      shl(0xe0, 0x70a08231)\n      dup2\n      mstore\n        /* \"contracts/roy.sol\":8684:8696  level1Reward */\n      dup4\n      swap2\n      sub(shl(0xa0, 0x01), 0x01)\n        /* \"contracts/roy.sol\":8646:8655  usdtToken */\n      and\n      swap1\n        /* \"contracts/roy.sol\":8646:8665  usdtToken.balanceOf */\n      0x70a08231\n      swap1\n        /* \"contracts/roy.sol\":8646:8680  usdtToken.balanceOf(address(this)) */\n      tag_436\n      swap1\n        /* \"contracts/roy.sol\":8674:8678  this */\n      address\n      swap1\n        /* \"contracts/roy.sol\":8646:8680  usdtToken.balanceOf(address(this)) */\n      0x04\n      add\n      tag_53\n      jump\t// in\n    tag_436:\n      0x20\n      mload(0x40)\n      dup1\n      dup4\n      sub\n      dup2\n      dup7\n      dup1\n      extcodesize\n      iszero\n      dup1\n      iszero\n      tag_437\n      jumpi\n      0x00\n      dup1\n      revert\n    tag_437:\n      pop\n      gas\n      staticcall\n      iszero\n      dup1\n      iszero\n      tag_439\n      jumpi\n      returndatasize\n      0x00\n      dup1\n      returndatacopy\n      revert(0x00, returndatasize)\n    tag_439:\n      pop\n      pop\n      pop\n      pop\n      mload(0x40)\n      returndatasize\n      not(0x1f)\n      0x1f\n      dup3\n      add\n      and\n      dup3\n      add\n      dup1\n      0x40\n      mstore\n      pop\n      dup2\n      add\n      swap1\n      tag_440\n      swap2\n      swap1\n      tag_234\n      jump\t// in\n    tag_440:\n        /* \"contracts/roy.sol\":8646:8696  usdtToken.balanceOf(address(this)) >= level1Reward */\n      lt\n      iszero\n        /* \"contracts/roy.sol\":8638:8742  require(usdtToken.balanceOf(address(this)) >= level1Reward, \"Insufficient contract balance for level 1\") */\n      tag_441\n      jumpi\n      mload(0x40)\n      shl(0xe5, 0x461bcd)\n      dup2\n      mstore\n      0x04\n      add\n      tag_193\n      swap1\n      tag_443\n      jump\t// in\n    tag_441:\n        /* \"contracts/roy.sol\":8785:8794  usdtToken */\n      sload(0x02)\n        /* \"contracts/roy.sol\":8785:8825  usdtToken.transfer(upline, level1Reward) */\n      mload(0x40)\n      shl(0xe0, 0xa9059cbb)\n      dup2\n      mstore\n        /* \"contracts/roy.sol\":8764:8782  bool level1Success */\n      0x00\n      swap2\n      sub(shl(0xa0, 0x01), 0x01)\n        /* \"contracts/roy.sol\":8785:8794  usdtToken */\n      and\n      swap1\n        /* \"contracts/roy.sol\":8785:8803  usdtToken.transfer */\n      0xa9059cbb\n      swap1\n        /* \"contracts/roy.sol\":8785:8825  usdtToken.transfer(upline, level1Reward) */\n      tag_444\n      swap1\n        /* \"contracts/roy.sol\":8804:8810  upline */\n      dup11\n      swap1\n        /* \"contracts/roy.sol\":8812:8824  level1Reward */\n      dup8\n      swap1\n        /* \"contracts/roy.sol\":8785:8825  usdtToken.transfer(upline, level1Reward) */\n      0x04\n      add\n      tag_241\n      jump\t// in\n    tag_444:\n      0x20\n      mload(0x40)\n      dup1\n      dup4\n      sub\n      dup2\n      0x00\n      dup8\n      dup1\n      extcodesize\n      iszero\n      dup1\n      iszero\n      tag_445\n      jumpi\n      0x00\n      dup1\n      revert\n    tag_445:\n      pop\n      gas\n      call\n      iszero\n      dup1\n      iszero\n      tag_447\n      jumpi\n      returndatasize\n      0x00\n      dup1\n      returndatacopy\n      revert(0x00, returndatasize)\n    tag_447:\n      pop\n      pop\n      pop\n      pop\n      mload(0x40)\n      returndatasize\n      not(0x1f)\n      0x1f\n      dup3\n      add\n      and\n      dup3\n      add\n      dup1\n      0x40\n      mstore\n      pop\n      dup2\n      add\n      swap1\n      tag_448\n      swap2\n      swap1\n      tag_246\n      jump\t// in\n    tag_448:\n        /* \"contracts/roy.sol\":8764:8825  bool level1Success = usdtToken.transfer(upline, level1Reward) */\n      swap1\n      pop\n        /* \"contracts/roy.sol\":8855:8868  level1Success */\n      dup1\n        /* \"contracts/roy.sol\":8847:8903  require(level1Success, \"Level 1 reward transfer failed\") */\n      tag_449\n      jumpi\n      mload(0x40)\n      shl(0xe5, 0x461bcd)\n      dup2\n      mstore\n      0x04\n      add\n      tag_193\n      swap1\n      tag_451\n      jump\t// in\n    tag_449:\n      sub(shl(0xa0, 0x01), 0x01)\n        /* \"contracts/roy.sol\":8926:8939  users[upline] */\n      dup8\n      and\n      0x00\n      swap1\n      dup2\n      mstore\n        /* \"contracts/roy.sol\":8926:8931  users */\n      0x03\n        /* \"contracts/roy.sol\":8926:8939  users[upline] */\n      0x20\n      mstore\n      0x40\n      dup2\n      keccak256\n        /* \"contracts/roy.sol\":8926:8951  users[upline].totalIncome */\n      0x02\n      add\n        /* \"contracts/roy.sol\":8926:8967  users[upline].totalIncome += level1Reward */\n      dup1\n      sload\n        /* \"contracts/roy.sol\":8955:8967  level1Reward */\n      dup6\n      swap3\n        /* \"contracts/roy.sol\":8926:8939  users[upline] */\n      swap1\n        /* \"contracts/roy.sol\":8926:8967  users[upline].totalIncome += level1Reward */\n      tag_452\n      swap1\n        /* \"contracts/roy.sol\":8955:8967  level1Reward */\n      dup5\n      swap1\n        /* \"contracts/roy.sol\":8926:8967  users[upline].totalIncome += level1Reward */\n      tag_212\n      jump\t// in\n    tag_452:\n      swap1\n      swap2\n      sstore\n      pop\n      pop\n      sub(shl(0xa0, 0x01), 0x01)\n        /* \"contracts/roy.sol\":8989:9002  users[upline] */\n      dup8\n      and\n      0x00\n      swap1\n      dup2\n      mstore\n        /* \"contracts/roy.sol\":8989:8994  users */\n      0x03\n        /* \"contracts/roy.sol\":8989:9002  users[upline] */\n      0x20\n      dup2\n      swap1\n      mstore\n      0x40\n      dup3\n      keccak256\n        /* \"contracts/roy.sol\":8989:9014  users[upline].levelIncome */\n      add\n        /* \"contracts/roy.sol\":8989:9030  users[upline].levelIncome += level1Reward */\n      dup1\n      sload\n        /* \"contracts/roy.sol\":9018:9030  level1Reward */\n      dup6\n      swap3\n        /* \"contracts/roy.sol\":8989:9002  users[upline] */\n      swap1\n        /* \"contracts/roy.sol\":8989:9030  users[upline].levelIncome += level1Reward */\n      tag_453\n      swap1\n        /* \"contracts/roy.sol\":9018:9030  level1Reward */\n      dup5\n      swap1\n        /* \"contracts/roy.sol\":8989:9030  users[upline].levelIncome += level1Reward */\n      tag_212\n      jump\t// in\n    tag_453:\n      swap1\n      swap2\n      sstore\n      pop\n        /* \"contracts/roy.sol\":9062:9074  level1Reward */\n      swap3\n      swap5\n      pop\n        /* \"contracts/roy.sol\":8007:9628  if (isFirstStake) {... */\n      tag_454\n      swap4\n      pop\n      pop\n      pop\n      pop\n      jump\n    tag_413:\n        /* \"contracts/roy.sol\":9227:9230  100 */\n      0x64\n        /* \"contracts/roy.sol\":9208:9220  levelRewards */\n      0x09\n        /* \"contracts/roy.sol\":9221:9222  i */\n      dup4\n        /* \"contracts/roy.sol\":9208:9223  levelRewards[i] */\n      0xff\n      and\n      0x05\n      dup2\n      lt\n      tag_455\n      jumpi\n      mstore(0x00, shl(0xe0, 0x4e487b71))\n      mstore(0x04, 0x32)\n      revert(0x00, 0x24)\n    tag_455:\n      0x20\n      dup2\n      div\n      swap2\n      swap1\n      swap2\n      add\n      sload\n        /* \"contracts/roy.sol\":9199:9223  amount * levelRewards[i] */\n      tag_457\n      swap2\n        /* \"contracts/roy.sol\":9208:9223  levelRewards[i] */\n      0x1f\n      and\n      0x0100\n      exp\n      swap1\n      div\n      0xff\n      and\n        /* \"contracts/roy.sol\":9199:9205  amount */\n      dup11\n        /* \"contracts/roy.sol\":9199:9223  amount * levelRewards[i] */\n      tag_208\n      jump\t// in\n    tag_457:\n        /* \"contracts/roy.sol\":9198:9230  (amount * levelRewards[i]) / 100 */\n      tag_458\n      swap2\n      swap1\n      tag_225\n      jump\t// in\n    tag_458:\n        /* \"contracts/roy.sol\":9261:9270  usdtToken */\n      sload(0x02)\n        /* \"contracts/roy.sol\":9261:9295  usdtToken.balanceOf(address(this)) */\n      mload(0x40)\n      shl(0xe0, 0x70a08231)\n      dup2\n      mstore\n        /* \"contracts/roy.sol\":9189:9230  reward = (amount * levelRewards[i]) / 100 */\n      swap2\n      swap3\n      pop\n      dup3\n      swap2\n      sub(shl(0xa0, 0x01), 0x01)\n        /* \"contracts/roy.sol\":9261:9270  usdtToken */\n      swap1\n      swap2\n      and\n      swap1\n        /* \"contracts/roy.sol\":9261:9280  usdtToken.balanceOf */\n      0x70a08231\n      swap1\n        /* \"contracts/roy.sol\":9261:9295  usdtToken.balanceOf(address(this)) */\n      tag_459\n      swap1\n        /* \"contracts/roy.sol\":9289:9293  this */\n      address\n      swap1\n        /* \"contracts/roy.sol\":9261:9295  usdtToken.balanceOf(address(this)) */\n      0x04\n      add\n      tag_53\n      jump\t// in\n    tag_459:\n      0x20\n      mload(0x40)\n      dup1\n      dup4\n      sub\n      dup2\n      dup7\n      dup1\n      extcodesize\n      iszero\n      dup1\n      iszero\n      tag_460\n      jumpi\n      0x00\n      dup1\n      revert\n    tag_460:\n      pop\n      gas\n      staticcall\n      iszero\n      dup1\n      iszero\n      tag_462\n      jumpi\n      returndatasize\n      0x00\n      dup1\n      returndatacopy\n      revert(0x00, returndatasize)\n    tag_462:\n      pop\n      pop\n      pop\n      pop\n      mload(0x40)\n      returndatasize\n      not(0x1f)\n      0x1f\n      dup3\n      add\n      and\n      dup3\n      add\n      dup1\n      0x40\n      mstore\n      pop\n      dup2\n      add\n      swap1\n      tag_463\n      swap2\n      swap1\n      tag_234\n      jump\t// in\n    tag_463:\n        /* \"contracts/roy.sol\":9261:9305  usdtToken.balanceOf(address(this)) >= reward */\n      lt\n      iszero\n        /* \"contracts/roy.sol\":9253:9339  require(usdtToken.balanceOf(address(this)) >= reward, \"Insufficient contract balance\") */\n      tag_464\n      jumpi\n      mload(0x40)\n      shl(0xe5, 0x461bcd)\n      dup2\n      mstore\n      0x04\n      add\n      tag_193\n      swap1\n      tag_237\n      jump\t// in\n    tag_464:\n        /* \"contracts/roy.sol\":9382:9391  usdtToken */\n      sload(0x02)\n        /* \"contracts/roy.sol\":9382:9416  usdtToken.transfer(upline, reward) */\n      mload(0x40)\n      shl(0xe0, 0xa9059cbb)\n      dup2\n      mstore\n        /* \"contracts/roy.sol\":9361:9379  bool level1Success */\n      0x00\n      swap2\n      sub(shl(0xa0, 0x01), 0x01)\n        /* \"contracts/roy.sol\":9382:9391  usdtToken */\n      and\n      swap1\n        /* \"contracts/roy.sol\":9382:9400  usdtToken.transfer */\n      0xa9059cbb\n      swap1\n        /* \"contracts/roy.sol\":9382:9416  usdtToken.transfer(upline, reward) */\n      tag_466\n      swap1\n        /* \"contracts/roy.sol\":9401:9407  upline */\n      dup8\n      swap1\n        /* \"contracts/roy.sol\":9409:9415  reward */\n      dup7\n      swap1\n        /* \"contracts/roy.sol\":9382:9416  usdtToken.transfer(upline, reward) */\n      0x04\n      add\n      tag_241\n      jump\t// in\n    tag_466:\n      0x20\n      mload(0x40)\n      dup1\n      dup4\n      sub\n      dup2\n      0x00\n      dup8\n      dup1\n      extcodesize\n      iszero\n      dup1\n      iszero\n      tag_467\n      jumpi\n      0x00\n      dup1\n      revert\n    tag_467:\n      pop\n      gas\n      call\n      iszero\n      dup1\n      iszero\n      tag_469\n      jumpi\n      returndatasize\n      0x00\n      dup1\n      returndatacopy\n      revert(0x00, returndatasize)\n    tag_469:\n      pop\n      pop\n      pop\n      pop\n      mload(0x40)\n      returndatasize\n      not(0x1f)\n      0x1f\n      dup3\n      add\n      and\n      dup3\n      add\n      dup1\n      0x40\n      mstore\n      pop\n      dup2\n      add\n      swap1\n      tag_470\n      swap2\n      swap1\n      tag_246\n      jump\t// in\n    tag_470:\n        /* \"contracts/roy.sol\":9361:9416  bool level1Success = usdtToken.transfer(upline, reward) */\n      swap1\n      pop\n        /* \"contracts/roy.sol\":9446:9459  level1Success */\n      dup1\n        /* \"contracts/roy.sol\":9438:9494  require(level1Success, \"Level 1 reward transfer failed\") */\n      tag_471\n      jumpi\n      mload(0x40)\n      shl(0xe5, 0x461bcd)\n      dup2\n      mstore\n      0x04\n      add\n      tag_193\n      swap1\n      tag_451\n      jump\t// in\n    tag_471:\n      sub(shl(0xa0, 0x01), 0x01)\n        /* \"contracts/roy.sol\":9517:9530  users[upline] */\n      dup5\n      and\n      0x00\n      swap1\n      dup2\n      mstore\n        /* \"contracts/roy.sol\":9517:9522  users */\n      0x03\n        /* \"contracts/roy.sol\":9517:9530  users[upline] */\n      0x20\n      mstore\n      0x40\n      dup2\n      keccak256\n        /* \"contracts/roy.sol\":9517:9542  users[upline].totalIncome */\n      0x02\n      add\n        /* \"contracts/roy.sol\":9517:9552  users[upline].totalIncome += reward */\n      dup1\n      sload\n        /* \"contracts/roy.sol\":9546:9552  reward */\n      dup5\n      swap3\n        /* \"contracts/roy.sol\":9517:9530  users[upline] */\n      swap1\n        /* \"contracts/roy.sol\":9517:9552  users[upline].totalIncome += reward */\n      tag_473\n      swap1\n        /* \"contracts/roy.sol\":9546:9552  reward */\n      dup5\n      swap1\n        /* \"contracts/roy.sol\":9517:9552  users[upline].totalIncome += reward */\n      tag_212\n      jump\t// in\n    tag_473:\n      swap1\n      swap2\n      sstore\n      pop\n      pop\n      sub(shl(0xa0, 0x01), 0x01)\n        /* \"contracts/roy.sol\":9574:9587  users[upline] */\n      dup5\n      and\n      0x00\n      swap1\n      dup2\n      mstore\n        /* \"contracts/roy.sol\":9574:9579  users */\n      0x03\n        /* \"contracts/roy.sol\":9574:9587  users[upline] */\n      0x20\n      dup2\n      swap1\n      mstore\n      0x40\n      dup3\n      keccak256\n        /* \"contracts/roy.sol\":9574:9599  users[upline].levelIncome */\n      add\n        /* \"contracts/roy.sol\":9574:9609  users[upline].levelIncome += reward */\n      dup1\n      sload\n        /* \"contracts/roy.sol\":9603:9609  reward */\n      dup5\n      swap3\n        /* \"contracts/roy.sol\":9574:9587  users[upline] */\n      swap1\n        /* \"contracts/roy.sol\":9574:9609  users[upline].levelIncome += reward */\n      tag_474\n      swap1\n        /* \"contracts/roy.sol\":9603:9609  reward */\n      dup5\n      swap1\n        /* \"contracts/roy.sol\":9574:9609  users[upline].levelIncome += reward */\n      tag_212\n      jump\t// in\n    tag_474:\n      swap1\n      swap2\n      sstore\n      pop\n      pop\n      pop\n        /* \"contracts/roy.sol\":8007:9628  if (isFirstStake) {... */\n    tag_454:\n        /* \"contracts/roy.sol\":7977:10108  if (i == 0) {... */\n      jump(tag_475)\n    tag_412:\n        /* \"contracts/roy.sol\":9735:9738  100 */\n      0x64\n        /* \"contracts/roy.sol\":9716:9728  levelRewards */\n      0x09\n        /* \"contracts/roy.sol\":9729:9730  i */\n      dup4\n        /* \"contracts/roy.sol\":9716:9731  levelRewards[i] */\n      0xff\n      and\n      0x05\n      dup2\n      lt\n      tag_476\n      jumpi\n      mstore(0x00, shl(0xe0, 0x4e487b71))\n      mstore(0x04, 0x32)\n      revert(0x00, 0x24)\n    tag_476:\n      0x20\n      dup2\n      div\n      swap2\n      swap1\n      swap2\n      add\n      sload\n        /* \"contracts/roy.sol\":9707:9731  amount * levelRewards[i] */\n      tag_478\n      swap2\n        /* \"contracts/roy.sol\":9716:9731  levelRewards[i] */\n      0x1f\n      and\n      0x0100\n      exp\n      swap1\n      div\n      0xff\n      and\n        /* \"contracts/roy.sol\":9707:9713  amount */\n      dup11\n        /* \"contracts/roy.sol\":9707:9731  amount * levelRewards[i] */\n      tag_208\n      jump\t// in\n    tag_478:\n        /* \"contracts/roy.sol\":9706:9738  (amount * levelRewards[i]) / 100 */\n      tag_479\n      swap2\n      swap1\n      tag_225\n      jump\t// in\n    tag_479:\n        /* \"contracts/roy.sol\":9765:9774  usdtToken */\n      sload(0x02)\n        /* \"contracts/roy.sol\":9765:9799  usdtToken.balanceOf(address(this)) */\n      mload(0x40)\n      shl(0xe0, 0x70a08231)\n      dup2\n      mstore\n        /* \"contracts/roy.sol\":9697:9738  reward = (amount * levelRewards[i]) / 100 */\n      swap2\n      swap3\n      pop\n      dup3\n      swap2\n      sub(shl(0xa0, 0x01), 0x01)\n        /* \"contracts/roy.sol\":9765:9774  usdtToken */\n      swap1\n      swap2\n      and\n      swap1\n        /* \"contracts/roy.sol\":9765:9784  usdtToken.balanceOf */\n      0x70a08231\n      swap1\n        /* \"contracts/roy.sol\":9765:9799  usdtToken.balanceOf(address(this)) */\n      tag_480\n      swap1\n        /* \"contracts/roy.sol\":9793:9797  this */\n      address\n      swap1\n        /* \"contracts/roy.sol\":9765:9799  usdtToken.balanceOf(address(this)) */\n      0x04\n      add\n      tag_53\n      jump\t// in\n    tag_480:\n      0x20\n      mload(0x40)\n      dup1\n      dup4\n      sub\n      dup2\n      dup7\n      dup1\n      extcodesize\n      iszero\n      dup1\n      iszero\n      tag_481\n      jumpi\n      0x00\n      dup1\n      revert\n    tag_481:\n      pop\n      gas\n      staticcall\n      iszero\n      dup1\n      iszero\n      tag_483\n      jumpi\n      returndatasize\n      0x00\n      dup1\n      returndatacopy\n      revert(0x00, returndatasize)\n    tag_483:\n      pop\n      pop\n      pop\n      pop\n      mload(0x40)\n      returndatasize\n      not(0x1f)\n      0x1f\n      dup3\n      add\n      and\n      dup3\n      add\n      dup1\n      0x40\n      mstore\n      pop\n      dup2\n      add\n      swap1\n      tag_484\n      swap2\n      swap1\n      tag_234\n      jump\t// in\n    tag_484:\n        /* \"contracts/roy.sol\":9765:9809  usdtToken.balanceOf(address(this)) >= reward */\n      lt\n      iszero\n        /* \"contracts/roy.sol\":9757:9843  require(usdtToken.balanceOf(address(this)) >= reward, \"Insufficient contract balance\") */\n      tag_485\n      jumpi\n      mload(0x40)\n      shl(0xe5, 0x461bcd)\n      dup2\n      mstore\n      0x04\n      add\n      tag_193\n      swap1\n      tag_237\n      jump\t// in\n    tag_485:\n        /* \"contracts/roy.sol\":9881:9890  usdtToken */\n      sload(0x02)\n        /* \"contracts/roy.sol\":9881:9915  usdtToken.transfer(upline, reward) */\n      mload(0x40)\n      shl(0xe0, 0xa9059cbb)\n      dup2\n      mstore\n        /* \"contracts/roy.sol\":9861:9878  bool levelSuccess */\n      0x00\n      swap2\n      sub(shl(0xa0, 0x01), 0x01)\n        /* \"contracts/roy.sol\":9881:9890  usdtToken */\n      and\n      swap1\n        /* \"contracts/roy.sol\":9881:9899  usdtToken.transfer */\n      0xa9059cbb\n      swap1\n        /* \"contracts/roy.sol\":9881:9915  usdtToken.transfer(upline, reward) */\n      tag_487\n      swap1\n        /* \"contracts/roy.sol\":9900:9906  upline */\n      dup8\n      swap1\n        /* \"contracts/roy.sol\":9908:9914  reward */\n      dup7\n      swap1\n        /* \"contracts/roy.sol\":9881:9915  usdtToken.transfer(upline, reward) */\n      0x04\n      add\n      tag_241\n      jump\t// in\n    tag_487:\n      0x20\n      mload(0x40)\n      dup1\n      dup4\n      sub\n      dup2\n      0x00\n      dup8\n      dup1\n      extcodesize\n      iszero\n      dup1\n      iszero\n      tag_488\n      jumpi\n      0x00\n      dup1\n      revert\n    tag_488:\n      pop\n      gas\n      call\n      iszero\n      dup1\n      iszero\n      tag_490\n      jumpi\n      returndatasize\n      0x00\n      dup1\n      returndatacopy\n      revert(0x00, returndatasize)\n    tag_490:\n      pop\n      pop\n      pop\n      pop\n      mload(0x40)\n      returndatasize\n      not(0x1f)\n      0x1f\n      dup3\n      add\n      and\n      dup3\n      add\n      dup1\n      0x40\n      mstore\n      pop\n      dup2\n      add\n      swap1\n      tag_491\n      swap2\n      swap1\n      tag_246\n      jump\t// in\n    tag_491:\n        /* \"contracts/roy.sol\":9861:9915  bool levelSuccess = usdtToken.transfer(upline, reward) */\n      swap1\n      pop\n        /* \"contracts/roy.sol\":9941:9953  levelSuccess */\n      dup1\n        /* \"contracts/roy.sol\":9933:9986  require(levelSuccess, \"Level reward transfer failed\") */\n      tag_492\n      jumpi\n      mload(0x40)\n      shl(0xe5, 0x461bcd)\n      dup2\n      mstore\n      0x04\n      add\n      tag_193\n      swap1\n      tag_494\n      jump\t// in\n    tag_492:\n      sub(shl(0xa0, 0x01), 0x01)\n        /* \"contracts/roy.sol\":10005:10018  users[upline] */\n      dup5\n      and\n      0x00\n      swap1\n      dup2\n      mstore\n        /* \"contracts/roy.sol\":10005:10010  users */\n      0x03\n        /* \"contracts/roy.sol\":10005:10018  users[upline] */\n      0x20\n      mstore\n      0x40\n      dup2\n      keccak256\n        /* \"contracts/roy.sol\":10005:10030  users[upline].totalIncome */\n      0x02\n      add\n        /* \"contracts/roy.sol\":10005:10040  users[upline].totalIncome += reward */\n      dup1\n      sload\n        /* \"contracts/roy.sol\":10034:10040  reward */\n      dup5\n      swap3\n        /* \"contracts/roy.sol\":10005:10018  users[upline] */\n      swap1\n        /* \"contracts/roy.sol\":10005:10040  users[upline].totalIncome += reward */\n      tag_495\n      swap1\n        /* \"contracts/roy.sol\":10034:10040  reward */\n      dup5\n      swap1\n        /* \"contracts/roy.sol\":10005:10040  users[upline].totalIncome += reward */\n      tag_212\n      jump\t// in\n    tag_495:\n      swap1\n      swap2\n      sstore\n      pop\n      pop\n      sub(shl(0xa0, 0x01), 0x01)\n        /* \"contracts/roy.sol\":10058:10071  users[upline] */\n      dup5\n      and\n      0x00\n      swap1\n      dup2\n      mstore\n        /* \"contracts/roy.sol\":10058:10063  users */\n      0x03\n        /* \"contracts/roy.sol\":10058:10071  users[upline] */\n      0x20\n      dup2\n      swap1\n      mstore\n      0x40\n      dup3\n      keccak256\n        /* \"contracts/roy.sol\":10058:10083  users[upline].levelIncome */\n      add\n        /* \"contracts/roy.sol\":10058:10093  users[upline].levelIncome += reward */\n      dup1\n      sload\n        /* \"contracts/roy.sol\":10087:10093  reward */\n      dup5\n      swap3\n        /* \"contracts/roy.sol\":10058:10071  users[upline] */\n      swap1\n        /* \"contracts/roy.sol\":10058:10093  users[upline].levelIncome += reward */\n      tag_496\n      swap1\n        /* \"contracts/roy.sol\":10087:10093  reward */\n      dup5\n      swap1\n        /* \"contracts/roy.sol\":10058:10093  users[upline].levelIncome += reward */\n      tag_212\n      jump\t// in\n    tag_496:\n      swap1\n      swap2\n      sstore\n      pop\n      pop\n      pop\n        /* \"contracts/roy.sol\":7977:10108  if (i == 0) {... */\n    tag_475:\n        /* \"contracts/roy.sol\":10201:10207  i == 0 */\n      0xff\n      dup3\n      and\n        /* \"contracts/roy.sol\":10197:10547  if (i == 0) {... */\n      tag_497\n      jumpi\n      sub(shl(0xa0, 0x01), 0x01)\n        /* \"contracts/roy.sol\":10257:10280  directReferrals[upline] */\n      dup4\n      and\n        /* \"contracts/roy.sol\":10227:10254  ReferralInfo[] storage refs */\n      0x00\n        /* \"contracts/roy.sol\":10257:10280  directReferrals[upline] */\n      swap1\n      dup2\n      mstore\n        /* \"contracts/roy.sol\":10257:10272  directReferrals */\n      0x04\n        /* \"contracts/roy.sol\":10257:10280  directReferrals[upline] */\n      0x20\n      mstore\n      0x40\n      dup2\n      keccak256\n      swap1\n        /* \"contracts/roy.sol\":10298:10533  for (uint256 j = 0; j < refs.length; j++) {... */\n    tag_498:\n        /* \"contracts/roy.sol\":10322:10333  refs.length */\n      dup2\n      sload\n        /* \"contracts/roy.sol\":10318:10333  j < refs.length */\n      dup2\n      lt\n        /* \"contracts/roy.sol\":10298:10533  for (uint256 j = 0; j < refs.length; j++) {... */\n      iszero\n      tag_499\n      jumpi\n        /* \"contracts/roy.sol\":10393:10403  msg.sender */\n      caller\n      sub(shl(0xa0, 0x01), 0x01)\n        /* \"contracts/roy.sol\":10366:10403  refs[j].referralAddress == msg.sender */\n      and\n        /* \"contracts/roy.sol\":10366:10370  refs */\n      dup3\n        /* \"contracts/roy.sol\":10371:10372  j */\n      dup3\n        /* \"contracts/roy.sol\":10366:10373  refs[j] */\n      dup2\n      sload\n      dup2\n      lt\n      tag_501\n      jumpi\n      mstore(0x00, shl(0xe0, 0x4e487b71))\n      mstore(0x04, 0x32)\n      revert(0x00, 0x24)\n    tag_501:\n      0x00\n      swap2\n      dup3\n      mstore\n      0x20\n      swap1\n      swap2\n      keccak256\n      0x03\n      swap1\n      swap2\n      mul\n      add\n        /* \"contracts/roy.sol\":10366:10389  refs[j].referralAddress */\n      sload\n      sub(shl(0xa0, 0x01), 0x01)\n      and\n        /* \"contracts/roy.sol\":10366:10403  refs[j].referralAddress == msg.sender */\n      eq\n        /* \"contracts/roy.sol\":10362:10515  if (refs[j].referralAddress == msg.sender) {... */\n      iszero\n      tag_503\n      jumpi\n        /* \"contracts/roy.sol\":10455:10461  reward */\n      dup3\n        /* \"contracts/roy.sol\":10431:10435  refs */\n      dup3\n        /* \"contracts/roy.sol\":10436:10437  j */\n      dup3\n        /* \"contracts/roy.sol\":10431:10438  refs[j] */\n      dup2\n      sload\n      dup2\n      lt\n      tag_504\n      jumpi\n      mstore(0x00, shl(0xe0, 0x4e487b71))\n      mstore(0x04, 0x32)\n      revert(0x00, 0x24)\n    tag_504:\n      swap1\n      0x00\n      mstore\n      keccak256(0x00, 0x20)\n      swap1\n      0x03\n      mul\n      add\n        /* \"contracts/roy.sol\":10431:10451  refs[j].incomeEarned */\n      0x01\n      add\n      0x00\n        /* \"contracts/roy.sol\":10431:10461  refs[j].incomeEarned += reward */\n      dup3\n      dup3\n      sload\n      tag_506\n      swap2\n      swap1\n      tag_212\n      jump\t// in\n    tag_506:\n      swap1\n      swap2\n      sstore\n      pop\n        /* \"contracts/roy.sol\":10487:10492  break */\n      tag_499\n      swap1\n      pop\n      jump\n        /* \"contracts/roy.sol\":10362:10515  if (refs[j].referralAddress == msg.sender) {... */\n    tag_503:\n        /* \"contracts/roy.sol\":10335:10338  j++ */\n      dup1\n      tag_507\n      dup2\n      tag_190\n      jump\t// in\n    tag_507:\n      swap2\n      pop\n      pop\n        /* \"contracts/roy.sol\":10298:10533  for (uint256 j = 0; j < refs.length; j++) {... */\n      jump(tag_498)\n    tag_499:\n      pop\n        /* \"contracts/roy.sol\":10197:10547  if (i == 0) {... */\n      pop\n    tag_497:\n      pop\n      sub(shl(0xa0, 0x01), 0x01)\n        /* \"contracts/roy.sol\":10570:10583  users[upline] */\n      swap2\n      dup3\n      and\n      0x00\n      swap1\n      dup2\n      mstore\n        /* \"contracts/roy.sol\":10570:10575  users */\n      0x03\n        /* \"contracts/roy.sol\":10570:10583  users[upline] */\n      0x20\n      mstore\n      0x40\n      swap1\n      keccak256\n        /* \"contracts/roy.sol\":10570:10592  users[upline].referrer */\n      sload\n      swap1\n      swap2\n      and\n      swap1\n        /* \"contracts/roy.sol\":7925:7928  i++ */\n      dup1\n      tag_508\n      dup2\n      tag_509\n      jump\t// in\n    tag_508:\n      swap2\n      pop\n      pop\n        /* \"contracts/roy.sol\":7858:10603  for (uint8 i = 0; i < levelRewards.length && upline != address(0); i++) {... */\n      jump(tag_408)\n    tag_409:\n      pop\n        /* \"contracts/roy.sol\":2127:2128  _ */\n      pop\n      pop\n      pop\n      pop\n      pop\n        /* \"contracts/roy.sol\":6774:10609  function stake(uint256 numDays, uint256 amount) external onlyRegistered {... */\n      pop\n      pop\n      jump\t// out\n        /* \"contracts/roy.sol\":1700:1745  mapping(uint256 => uint256) public stakingAPY */\n    tag_103:\n      mstore(0x20, 0x06)\n      0x00\n      swap1\n      dup2\n      mstore\n      0x40\n      swap1\n      keccak256\n      sload\n      dup2\n      jump\t// out\n        /* \"contracts/roy.sol\":424:444  address public owner */\n    tag_106:\n      and(sub(shl(0xa0, 0x01), 0x01), sload(0x00))\n      dup2\n      jump\t// out\n        /* \"contracts/roy.sol\":16498:16656  function getDirectReferralCount(address user)... */\n    tag_110:\n      sub(shl(0xa0, 0x01), 0x01)\n        /* \"contracts/roy.sol\":16621:16642  directReferrals[user] */\n      and\n        /* \"contracts/roy.sol\":16591:16598  uint256 */\n      0x00\n        /* \"contracts/roy.sol\":16621:16642  directReferrals[user] */\n      swap1\n      dup2\n      mstore\n        /* \"contracts/roy.sol\":16621:16636  directReferrals */\n      0x04\n        /* \"contracts/roy.sol\":16621:16642  directReferrals[user] */\n      0x20\n      mstore\n      0x40\n      swap1\n      keccak256\n        /* \"contracts/roy.sol\":16621:16649  directReferrals[user].length */\n      sload\n      swap1\n        /* \"contracts/roy.sol\":16498:16656  function getDirectReferralCount(address user)... */\n      jump\t// out\n        /* \"contracts/roy.sol\":20564:20660  function getTotalUsers() external view returns (uint256) {... */\n    tag_113:\n        /* \"contracts/roy.sol\":20638:20646  allUsers */\n      0x08\n        /* \"contracts/roy.sol\":20638:20653  allUsers.length */\n      sload\n        /* \"contracts/roy.sol\":20564:20660  function getTotalUsers() external view returns (uint256) {... */\n      swap1\n      jump\t// out\n        /* \"contracts/roy.sol\":16950:17694  function getReferralIncomeDetails(address user)... */\n    tag_117:\n      sub(shl(0xa0, 0x01), 0x01)\n        /* \"contracts/roy.sol\":17226:17247  directReferrals[user] */\n      dup2\n      and\n        /* \"contracts/roy.sol\":17196:17223  ReferralInfo[] storage refs */\n      0x00\n        /* \"contracts/roy.sol\":17226:17247  directReferrals[user] */\n      swap1\n      dup2\n      mstore\n        /* \"contracts/roy.sol\":17226:17241  directReferrals */\n      0x04\n        /* \"contracts/roy.sol\":17226:17247  directReferrals[user] */\n      0x20\n      mstore\n      0x40\n      swap1\n      keccak256\n        /* \"contracts/roy.sol\":17273:17284  refs.length */\n      dup1\n      sload\n        /* \"contracts/roy.sol\":17058:17092  address[] memory referralAddresses */\n      0x60\n      swap2\n      dup3\n      swap2\n      dup3\n      swap2\n        /* \"contracts/roy.sol\":17226:17247  directReferrals[user] */\n      swap1\n        /* \"contracts/roy.sol\":17273:17284  refs.length */\n      dup1\n        /* \"contracts/roy.sol\":17315:17335  new address[](count) */\n      0xffffffffffffffff\n      dup2\n      gt\n      iszero\n      tag_513\n      jumpi\n      mstore(0x00, shl(0xe0, 0x4e487b71))\n      mstore(0x04, 0x41)\n      revert(0x00, 0x24)\n    tag_513:\n      mload(0x40)\n      swap1\n      dup1\n      dup3\n      mstore\n      dup1\n      0x20\n      mul\n      0x20\n      add\n      dup3\n      add\n      0x40\n      mstore\n      dup1\n      iszero\n      tag_514\n      jumpi\n      dup2\n      0x20\n      add\n      0x20\n      dup3\n      mul\n      dup1\n      calldatasize\n      dup4\n      calldatacopy\n      add\n      swap1\n      pop\n    tag_514:\n      pop\n        /* \"contracts/roy.sol\":17295:17335  referralAddresses = new address[](count) */\n      swap5\n      pop\n        /* \"contracts/roy.sol\":17369:17374  count */\n      dup1\n        /* \"contracts/roy.sol\":17355:17375  new uint256[](count) */\n      0xffffffffffffffff\n      dup2\n      gt\n      iszero\n      tag_515\n      jumpi\n      mstore(0x00, shl(0xe0, 0x4e487b71))\n      mstore(0x04, 0x41)\n      revert(0x00, 0x24)\n    tag_515:\n      mload(0x40)\n      swap1\n      dup1\n      dup3\n      mstore\n      dup1\n      0x20\n      mul\n      0x20\n      add\n      dup3\n      add\n      0x40\n      mstore\n      dup1\n      iszero\n      tag_516\n      jumpi\n      dup2\n      0x20\n      add\n      0x20\n      dup3\n      mul\n      dup1\n      calldatasize\n      dup4\n      calldatacopy\n      add\n      swap1\n      pop\n    tag_516:\n      pop\n        /* \"contracts/roy.sol\":17345:17375  incomes = new uint256[](count) */\n      swap4\n      pop\n        /* \"contracts/roy.sol\":17412:17417  count */\n      dup1\n        /* \"contracts/roy.sol\":17398:17418  new uint256[](count) */\n      0xffffffffffffffff\n      dup2\n      gt\n      iszero\n      tag_517\n      jumpi\n      mstore(0x00, shl(0xe0, 0x4e487b71))\n      mstore(0x04, 0x41)\n      revert(0x00, 0x24)\n    tag_517:\n      mload(0x40)\n      swap1\n      dup1\n      dup3\n      mstore\n      dup1\n      0x20\n      mul\n      0x20\n      add\n      dup3\n      add\n      0x40\n      mstore\n      dup1\n      iszero\n      tag_518\n      jumpi\n      dup2\n      0x20\n      add\n      0x20\n      dup3\n      mul\n      dup1\n      calldatasize\n      dup4\n      calldatacopy\n      add\n      swap1\n      pop\n    tag_518:\n      pop\n        /* \"contracts/roy.sol\":17385:17418  timestamps = new uint256[](count) */\n      swap3\n      pop\n        /* \"contracts/roy.sol\":17434:17443  uint256 i */\n      0x00\n        /* \"contracts/roy.sol\":17429:17630  for (uint256 i = 0; i < count; i++) {... */\n    tag_519:\n        /* \"contracts/roy.sol\":17453:17458  count */\n      dup2\n        /* \"contracts/roy.sol\":17449:17450  i */\n      dup2\n        /* \"contracts/roy.sol\":17449:17458  i < count */\n      lt\n        /* \"contracts/roy.sol\":17429:17630  for (uint256 i = 0; i < count; i++) {... */\n      iszero\n      tag_520\n      jumpi\n        /* \"contracts/roy.sol\":17502:17506  refs */\n      dup3\n        /* \"contracts/roy.sol\":17507:17508  i */\n      dup2\n        /* \"contracts/roy.sol\":17502:17509  refs[i] */\n      dup2\n      sload\n      dup2\n      lt\n      tag_522\n      jumpi\n      mstore(0x00, shl(0xe0, 0x4e487b71))\n      mstore(0x04, 0x32)\n      revert(0x00, 0x24)\n    tag_522:\n      0x00\n      swap2\n      dup3\n      mstore\n      0x20\n      swap1\n      swap2\n      keccak256\n      0x03\n      swap1\n      swap2\n      mul\n      add\n        /* \"contracts/roy.sol\":17502:17525  refs[i].referralAddress */\n      sload\n        /* \"contracts/roy.sol\":17479:17499  referralAddresses[i] */\n      dup7\n      mload\n      sub(shl(0xa0, 0x01), 0x01)\n        /* \"contracts/roy.sol\":17502:17525  refs[i].referralAddress */\n      swap1\n      swap2\n      and\n      swap1\n        /* \"contracts/roy.sol\":17479:17496  referralAddresses */\n      dup8\n      swap1\n        /* \"contracts/roy.sol\":17497:17498  i */\n      dup4\n      swap1\n        /* \"contracts/roy.sol\":17479:17499  referralAddresses[i] */\n      dup2\n      lt\n      tag_524\n      jumpi\n      mstore(0x00, shl(0xe0, 0x4e487b71))\n      mstore(0x04, 0x32)\n      revert(0x00, 0x24)\n    tag_524:\n      0x20\n      mul\n      0x20\n      add\n      add\n        /* \"contracts/roy.sol\":17479:17525  referralAddresses[i] = refs[i].referralAddress */\n      swap1\n      sub(shl(0xa0, 0x01), 0x01)\n      and\n      swap1\n      dup2\n      sub(shl(0xa0, 0x01), 0x01)\n      and\n      dup2\n      mstore\n      pop\n      pop\n        /* \"contracts/roy.sol\":17552:17556  refs */\n      dup3\n        /* \"contracts/roy.sol\":17557:17558  i */\n      dup2\n        /* \"contracts/roy.sol\":17552:17559  refs[i] */\n      dup2\n      sload\n      dup2\n      lt\n      tag_525\n      jumpi\n      mstore(0x00, shl(0xe0, 0x4e487b71))\n      mstore(0x04, 0x32)\n      revert(0x00, 0x24)\n    tag_525:\n      swap1\n      0x00\n      mstore\n      keccak256(0x00, 0x20)\n      swap1\n      0x03\n      mul\n      add\n        /* \"contracts/roy.sol\":17552:17572  refs[i].incomeEarned */\n      0x01\n      add\n      sload\n        /* \"contracts/roy.sol\":17539:17546  incomes */\n      dup6\n        /* \"contracts/roy.sol\":17547:17548  i */\n      dup3\n        /* \"contracts/roy.sol\":17539:17549  incomes[i] */\n      dup2\n      mload\n      dup2\n      lt\n      tag_527\n      jumpi\n      mstore(0x00, shl(0xe0, 0x4e487b71))\n      mstore(0x04, 0x32)\n      revert(0x00, 0x24)\n    tag_527:\n      0x20\n      mul\n      0x20\n      add\n      add\n        /* \"contracts/roy.sol\":17539:17572  incomes[i] = refs[i].incomeEarned */\n      dup2\n      dup2\n      mstore\n      pop\n      pop\n        /* \"contracts/roy.sol\":17602:17606  refs */\n      dup3\n        /* \"contracts/roy.sol\":17607:17608  i */\n      dup2\n        /* \"contracts/roy.sol\":17602:17609  refs[i] */\n      dup2\n      sload\n      dup2\n      lt\n      tag_528\n      jumpi\n      mstore(0x00, shl(0xe0, 0x4e487b71))\n      mstore(0x04, 0x32)\n      revert(0x00, 0x24)\n    tag_528:\n      swap1\n      0x00\n      mstore\n      keccak256(0x00, 0x20)\n      swap1\n      0x03\n      mul\n      add\n        /* \"contracts/roy.sol\":17602:17619  refs[i].timestamp */\n      0x02\n      add\n      sload\n        /* \"contracts/roy.sol\":17586:17596  timestamps */\n      dup5\n        /* \"contracts/roy.sol\":17597:17598  i */\n      dup3\n        /* \"contracts/roy.sol\":17586:17599  timestamps[i] */\n      dup2\n      mload\n      dup2\n      lt\n      tag_530\n      jumpi\n      mstore(0x00, shl(0xe0, 0x4e487b71))\n      mstore(0x04, 0x32)\n      revert(0x00, 0x24)\n    tag_530:\n      0x20\n      swap1\n      dup2\n      mul\n      swap2\n      swap1\n      swap2\n      add\n      add\n        /* \"contracts/roy.sol\":17586:17619  timestamps[i] = refs[i].timestamp */\n      mstore\n        /* \"contracts/roy.sol\":17460:17463  i++ */\n      dup1\n      tag_531\n      dup2\n      tag_190\n      jump\t// in\n    tag_531:\n      swap2\n      pop\n      pop\n        /* \"contracts/roy.sol\":17429:17630  for (uint256 i = 0; i < count; i++) {... */\n      jump(tag_519)\n    tag_520:\n      pop\n        /* \"contracts/roy.sol\":17640:17687  return (referralAddresses, incomes, timestamps) */\n      pop\n      pop\n        /* \"contracts/roy.sol\":16950:17694  function getReferralIncomeDetails(address user)... */\n      swap2\n      swap4\n      swap1\n      swap3\n      pop\n      jump\t// out\n        /* \"contracts/roy.sol\":1813:1838  address[] public allUsers */\n    tag_122:\n      0x08\n      dup2\n      dup2\n      sload\n      dup2\n      lt\n      tag_532\n      jumpi\n      0x00\n      dup1\n      revert\n    tag_532:\n      0x00\n      swap2\n      dup3\n      mstore\n      0x20\n      swap1\n      swap2\n      keccak256\n      add\n      sload\n      sub(shl(0xa0, 0x01), 0x01)\n      and\n      swap1\n      pop\n      dup2\n      jump\t// out\n        /* \"contracts/roy.sol\":1537:1574  mapping(address => User) public users */\n    tag_126:\n      0x03\n      0x20\n      dup2\n      swap1\n      mstore\n      0x00\n      swap2\n      dup3\n      mstore\n      0x40\n      swap1\n      swap2\n      keccak256\n      dup1\n      sload\n      0x02\n      dup3\n      add\n      sload\n      swap3\n      dup3\n      add\n      sload\n      0x04\n      swap1\n      swap3\n      add\n      sload\n      sub(shl(0xa0, 0x01), 0x01)\n      swap1\n      swap2\n      and\n      swap3\n      swap2\n      swap1\n      0xff\n      and\n      dup5\n      jump\t// out\n        /* \"contracts/roy.sol\":483:506  IERC20 public usdtToken */\n    tag_130:\n      and(sub(shl(0xa0, 0x01), 0x01), sload(0x02))\n      dup2\n      jump\t// out\n        /* \"contracts/roy.sol\":16662:16819  function getDirectReferralIncome(address user)... */\n    tag_135:\n      sub(shl(0xa0, 0x01), 0x01)\n        /* \"contracts/roy.sol\":16786:16812  directReferralIncome[user] */\n      and\n        /* \"contracts/roy.sol\":16756:16763  uint256 */\n      0x00\n        /* \"contracts/roy.sol\":16786:16812  directReferralIncome[user] */\n      swap1\n      dup2\n      mstore\n        /* \"contracts/roy.sol\":16786:16806  directReferralIncome */\n      0x07\n        /* \"contracts/roy.sol\":16786:16812  directReferralIncome[user] */\n      0x20\n      mstore\n      0x40\n      swap1\n      keccak256\n      sload\n      swap1\n        /* \"contracts/roy.sol\":16662:16819  function getDirectReferralIncome(address user)... */\n      jump\t// out\n        /* \"contracts/roy.sol\":10740:11215  function getEstimatedReturn(uint256 amount, uint256 numDays)... */\n    tag_139:\n        /* \"contracts/roy.sol\":10848:10864  uint256 interest */\n      0x00\n        /* \"contracts/roy.sol\":10866:10885  uint256 totalReturn */\n      dup1\n        /* \"contracts/roy.sol\":10918:10919  0 */\n      0x00\n        /* \"contracts/roy.sol\":10909:10915  amount */\n      dup5\n        /* \"contracts/roy.sol\":10909:10919  amount > 0 */\n      gt\n        /* \"contracts/roy.sol\":10901:10953  require(amount > 0, \"Amount must be greater than 0\") */\n      tag_536\n      jumpi\n      mload(0x40)\n      shl(0xe5, 0x461bcd)\n      dup2\n      mstore\n      0x04\n      add\n      tag_193\n      swap1\n      tag_538\n      jump\t// in\n    tag_536:\n        /* \"contracts/roy.sol\":10993:10994  0 */\n      0x00\n        /* \"contracts/roy.sol\":10971:10990  stakingAPY[numDays] */\n      dup4\n      dup2\n      mstore\n        /* \"contracts/roy.sol\":10971:10981  stakingAPY */\n      0x06\n        /* \"contracts/roy.sol\":10971:10990  stakingAPY[numDays] */\n      0x20\n      mstore\n      0x40\n      swap1\n      keccak256\n      sload\n        /* \"contracts/roy.sol\":10963:11023  require(stakingAPY[numDays] > 0, \"Invalid staking duration\") */\n      tag_539\n      jumpi\n      mload(0x40)\n      shl(0xe5, 0x461bcd)\n      dup2\n      mstore\n      0x04\n      add\n      tag_193\n      swap1\n      tag_393\n      jump\t// in\n    tag_539:\n        /* \"contracts/roy.sol\":11034:11045  uint256 apy */\n      0x00\n        /* \"contracts/roy.sol\":11048:11067  stakingAPY[numDays] */\n      dup4\n      dup2\n      mstore\n        /* \"contracts/roy.sol\":11048:11058  stakingAPY */\n      0x06\n        /* \"contracts/roy.sol\":11048:11067  stakingAPY[numDays] */\n      0x20\n      mstore\n      0x40\n      swap1\n      keccak256\n      sload\n        /* \"contracts/roy.sol\":11116:11125  100 * 365 */\n      0x8e94\n        /* \"contracts/roy.sol\":11059:11066  numDays */\n      dup5\n        /* \"contracts/roy.sol\":11089:11101  amount * apy */\n      tag_541\n        /* \"contracts/roy.sol\":11048:11067  stakingAPY[numDays] */\n      dup4\n        /* \"contracts/roy.sol\":11089:11095  amount */\n      dup9\n        /* \"contracts/roy.sol\":11089:11101  amount * apy */\n      tag_208\n      jump\t// in\n    tag_541:\n        /* \"contracts/roy.sol\":11089:11111  amount * apy * numDays */\n      tag_542\n      swap2\n      swap1\n      tag_208\n      jump\t// in\n    tag_542:\n        /* \"contracts/roy.sol\":11088:11126  (amount * apy * numDays) / (100 * 365) */\n      tag_543\n      swap2\n      swap1\n      tag_225\n      jump\t// in\n    tag_543:\n        /* \"contracts/roy.sol\":11077:11126  interest = (amount * apy * numDays) / (100 * 365) */\n      swap3\n      pop\n        /* \"contracts/roy.sol\":11150:11167  amount + interest */\n      tag_544\n        /* \"contracts/roy.sol\":11077:11126  interest = (amount * apy * numDays) / (100 * 365) */\n      dup4\n        /* \"contracts/roy.sol\":11150:11156  amount */\n      dup7\n        /* \"contracts/roy.sol\":11150:11167  amount + interest */\n      tag_212\n      jump\t// in\n    tag_544:\n        /* \"contracts/roy.sol\":11136:11167  totalReturn = amount + interest */\n      swap2\n      pop\n        /* \"contracts/roy.sol\":11178:11208  return (interest, totalReturn) */\n      pop\n        /* \"contracts/roy.sol\":10740:11215  function getEstimatedReturn(uint256 amount, uint256 numDays)... */\n      swap3\n      pop\n      swap3\n      swap1\n      pop\n      jump\t// out\n        /* \"contracts/roy.sol\":17700:17817  function getTotalIncome(address user) external view returns (uint256) {... */\n    tag_144:\n      sub(shl(0xa0, 0x01), 0x01)\n        /* \"contracts/roy.sol\":17787:17798  users[user] */\n      and\n        /* \"contracts/roy.sol\":17761:17768  uint256 */\n      0x00\n        /* \"contracts/roy.sol\":17787:17798  users[user] */\n      swap1\n      dup2\n      mstore\n        /* \"contracts/roy.sol\":17787:17792  users */\n      0x03\n        /* \"contracts/roy.sol\":17787:17798  users[user] */\n      0x20\n      mstore\n      0x40\n      swap1\n      keccak256\n        /* \"contracts/roy.sol\":17787:17810  users[user].totalIncome */\n      0x02\n      add\n      sload\n      swap1\n        /* \"contracts/roy.sol\":17700:17817  function getTotalIncome(address user) external view returns (uint256) {... */\n      jump\t// out\n        /* \"contracts/roy.sol\":20447:20558  function isRegistered(address user) external view returns (bool) {... */\n    tag_148:\n      sub(shl(0xa0, 0x01), 0x01)\n        /* \"contracts/roy.sol\":20529:20540  users[user] */\n      and\n        /* \"contracts/roy.sol\":20506:20510  bool */\n      0x00\n        /* \"contracts/roy.sol\":20529:20540  users[user] */\n      swap1\n      dup2\n      mstore\n        /* \"contracts/roy.sol\":20529:20534  users */\n      0x03\n        /* \"contracts/roy.sol\":20529:20540  users[user] */\n      0x20\n      mstore\n      0x40\n      swap1\n      keccak256\n        /* \"contracts/roy.sol\":20529:20551  users[user].registered */\n      0x04\n      add\n      sload\n      0xff\n      and\n      swap1\n        /* \"contracts/roy.sol\":20447:20558  function isRegistered(address user) external view returns (bool) {... */\n      jump\t// out\n        /* \"contracts/roy.sol\":20666:20979  function ownerTransfer(address to, uint256 amount) external onlyOwner {... */\n    tag_157:\n        /* \"contracts/roy.sol\":2194:2199  owner */\n      and(sub(shl(0xa0, 0x01), 0x01), sload(0x00))\n        /* \"contracts/roy.sol\":2180:2190  msg.sender */\n      caller\n        /* \"contracts/roy.sol\":2180:2199  msg.sender == owner */\n      eq\n        /* \"contracts/roy.sol\":2172:2228  require(msg.sender == owner, \"Only owner can call this\") */\n      tag_549\n      jumpi\n      mload(0x40)\n      shl(0xe5, 0x461bcd)\n      dup2\n      mstore\n      0x04\n      add\n      tag_193\n      swap1\n      tag_287\n      jump\t// in\n    tag_549:\n      sub(shl(0xa0, 0x01), 0x01)\n        /* \"contracts/roy.sol\":20754:20770  to != address(0) */\n      dup3\n      and\n        /* \"contracts/roy.sol\":20746:20800  require(to != address(0), \"Invalid recipient address\") */\n      tag_552\n      jumpi\n      mload(0x40)\n      shl(0xe5, 0x461bcd)\n      dup2\n      mstore\n      0x04\n      add\n      tag_193\n      swap1\n      tag_554\n      jump\t// in\n    tag_552:\n        /* \"contracts/roy.sol\":20827:20828  0 */\n      0x00\n        /* \"contracts/roy.sol\":20818:20824  amount */\n      dup2\n        /* \"contracts/roy.sol\":20818:20828  amount > 0 */\n      gt\n        /* \"contracts/roy.sol\":20810:20865  require(amount > 0, \"Amount must be greater than zero\") */\n      tag_555\n      jumpi\n      mload(0x40)\n      shl(0xe5, 0x461bcd)\n      dup2\n      mstore\n      0x04\n      add\n      tag_193\n      swap1\n      tag_557\n      jump\t// in\n    tag_555:\n        /* \"contracts/roy.sol\":20891:20900  usdtToken */\n      sload(0x02)\n        /* \"contracts/roy.sol\":20891:20921  usdtToken.transfer(to, amount) */\n      mload(0x40)\n      shl(0xe0, 0xa9059cbb)\n      dup2\n      mstore\n        /* \"contracts/roy.sol\":20876:20888  bool success */\n      0x00\n      swap2\n      sub(shl(0xa0, 0x01), 0x01)\n        /* \"contracts/roy.sol\":20891:20900  usdtToken */\n      and\n      swap1\n        /* \"contracts/roy.sol\":20891:20909  usdtToken.transfer */\n      0xa9059cbb\n      swap1\n        /* \"contracts/roy.sol\":20891:20921  usdtToken.transfer(to, amount) */\n      tag_558\n      swap1\n        /* \"contracts/roy.sol\":20910:20912  to */\n      dup7\n      swap1\n        /* \"contracts/roy.sol\":20914:20920  amount */\n      dup7\n      swap1\n        /* \"contracts/roy.sol\":20891:20921  usdtToken.transfer(to, amount) */\n      0x04\n      add\n      tag_241\n      jump\t// in\n    tag_558:\n      0x20\n      mload(0x40)\n      dup1\n      dup4\n      sub\n      dup2\n      0x00\n      dup8\n      dup1\n      extcodesize\n      iszero\n      dup1\n      iszero\n      tag_559\n      jumpi\n      0x00\n      dup1\n      revert\n    tag_559:\n      pop\n      gas\n      call\n      iszero\n      dup1\n      iszero\n      tag_561\n      jumpi\n      returndatasize\n      0x00\n      dup1\n      returndatacopy\n      revert(0x00, returndatasize)\n    tag_561:\n      pop\n      pop\n      pop\n      pop\n      mload(0x40)\n      returndatasize\n      not(0x1f)\n      0x1f\n      dup3\n      add\n      and\n      dup3\n      add\n      dup1\n      0x40\n      mstore\n      pop\n      dup2\n      add\n      swap1\n      tag_562\n      swap2\n      swap1\n      tag_246\n      jump\t// in\n    tag_562:\n        /* \"contracts/roy.sol\":20876:20921  bool success = usdtToken.transfer(to, amount) */\n      swap1\n      pop\n        /* \"contracts/roy.sol\":20939:20946  success */\n      dup1\n        /* \"contracts/roy.sol\":20931:20972  require(success, \"Token transfer failed\") */\n      tag_563\n      jumpi\n      mload(0x40)\n      shl(0xe5, 0x461bcd)\n      dup2\n      mstore\n      0x04\n      add\n      tag_193\n      swap1\n      tag_565\n      jump\t// in\n    tag_563:\n        /* \"contracts/roy.sol\":2238:2239  _ */\n      pop\n        /* \"contracts/roy.sol\":20666:20979  function ownerTransfer(address to, uint256 amount) external onlyOwner {... */\n      pop\n      pop\n      jump\t// out\n        /* \"contracts/roy.sol\":1844:1890  uint8[5] public levelRewards = [5, 3, 2, 1, 1] */\n    tag_160:\n      0x09\n      dup2\n      0x05\n      dup2\n      lt\n      tag_566\n      jumpi\n      0x00\n      dup1\n      revert\n    tag_566:\n      0x20\n      swap2\n      dup3\n      dup3\n      div\n      add\n      swap2\n      swap1\n      mod\n      swap2\n      pop\n      sload\n      swap1\n      0x0100\n      exp\n      swap1\n      div\n      0xff\n      and\n      dup2\n      jump\t// out\n        /* \"contracts/roy.sol\":18205:20273  function getLevelIncomeDistribution(address _user)... */\n    tag_164:\n        /* \"contracts/roy.sol\":18303:18327  LevelIncomeData[] memory */\n      0x60\n        /* \"contracts/roy.sol\":18343:18361  uint256 totalCount */\n      0x00\n        /* \"contracts/roy.sol\":18381:18390  uint256 i */\n      dup1\n        /* \"contracts/roy.sol\":18376:18916  for (uint256 i = 0; i < allUsers.length; i++) {... */\n    tag_569:\n        /* \"contracts/roy.sol\":18400:18408  allUsers */\n      0x08\n        /* \"contracts/roy.sol\":18400:18415  allUsers.length */\n      sload\n        /* \"contracts/roy.sol\":18396:18415  i < allUsers.length */\n      dup2\n      lt\n        /* \"contracts/roy.sol\":18376:18916  for (uint256 i = 0; i < allUsers.length; i++) {... */\n      iszero\n      tag_570\n      jumpi\n        /* \"contracts/roy.sol\":18436:18450  address staker */\n      0x00\n        /* \"contracts/roy.sol\":18453:18461  allUsers */\n      0x08\n        /* \"contracts/roy.sol\":18462:18463  i */\n      dup3\n        /* \"contracts/roy.sol\":18453:18464  allUsers[i] */\n      dup2\n      sload\n      dup2\n      lt\n      tag_572\n      jumpi\n      mstore(0x00, shl(0xe0, 0x4e487b71))\n      mstore(0x04, 0x32)\n      revert(0x00, 0x24)\n    tag_572:\n      0x00\n      swap2\n      dup3\n      mstore\n      0x20\n      dup1\n      dup4\n      keccak256\n      swap1\n      swap2\n      add\n      sload\n      sub(shl(0xa0, 0x01), 0x01)\n      and\n        /* \"contracts/roy.sol\":18502:18515  users[staker] */\n      dup1\n      dup4\n      mstore\n        /* \"contracts/roy.sol\":18502:18507  users */\n      0x03\n        /* \"contracts/roy.sol\":18502:18515  users[staker] */\n      dup3\n      mstore\n      0x40\n      dup1\n      dup5\n      keccak256\n        /* \"contracts/roy.sol\":18453:18464  allUsers[i] */\n      0x01\n        /* \"contracts/roy.sol\":18502:18522  users[staker].stakes */\n      add\n        /* \"contracts/roy.sol\":18478:18522  Stake[] memory stakes = users[staker].stakes */\n      dup1\n      sload\n      dup3\n      mload\n      dup2\n      dup7\n      mul\n      dup2\n      add\n      dup7\n      add\n      swap1\n      swap4\n      mstore\n      dup1\n      dup4\n      mstore\n        /* \"contracts/roy.sol\":18453:18464  allUsers[i] */\n      swap3\n      swap6\n      pop\n        /* \"contracts/roy.sol\":18478:18522  Stake[] memory stakes = users[staker].stakes */\n      swap1\n      swap3\n        /* \"contracts/roy.sol\":18502:18522  users[staker].stakes */\n      swap1\n      swap2\n        /* \"contracts/roy.sol\":18478:18522  Stake[] memory stakes = users[staker].stakes */\n      swap1\n        /* \"contracts/roy.sol\":18453:18464  allUsers[i] */\n      dup5\n      swap1\n        /* \"contracts/roy.sol\":18478:18522  Stake[] memory stakes = users[staker].stakes */\n      dup5\n      add\n    tag_574:\n      dup3\n      dup3\n      lt\n      iszero\n      tag_575\n      jumpi\n      0x00\n      dup5\n      dup2\n      mstore\n      0x20\n      swap1\n      dup2\n      swap1\n      keccak256\n      0x40\n      dup1\n      mload\n      0xc0\n      dup2\n      add\n      dup3\n      mstore\n      0x06\n      dup7\n      mul\n      swap1\n      swap3\n      add\n      dup1\n      sload\n      dup4\n      mstore\n      0x01\n      dup1\n      dup3\n      add\n      sload\n      dup5\n      dup7\n      add\n      mstore\n      0x02\n      dup3\n      add\n      sload\n      swap3\n      dup5\n      add\n      swap3\n      swap1\n      swap3\n      mstore\n      0x03\n      dup2\n      add\n      sload\n      0x60\n      dup5\n      add\n      mstore\n      0x04\n      dup2\n      add\n      sload\n      0x80\n      dup5\n      add\n      mstore\n      0x05\n      add\n      sload\n      0xff\n      and\n      iszero\n      iszero\n      0xa0\n      dup4\n      add\n      mstore\n      swap1\n      dup4\n      mstore\n      swap1\n      swap3\n      add\n      swap2\n      add\n      jump(tag_574)\n    tag_575:\n      pop\n      pop\n      pop\n      pop\n      sub(shl(0xa0, 0x01), 0x01)\n        /* \"contracts/roy.sol\":18553:18566  users[staker] */\n      dup4\n      dup2\n      and\n        /* \"contracts/roy.sol\":18536:18550  address upline */\n      0x00\n        /* \"contracts/roy.sol\":18553:18566  users[staker] */\n      swap1\n      dup2\n      mstore\n        /* \"contracts/roy.sol\":18553:18558  users */\n      0x03\n        /* \"contracts/roy.sol\":18553:18566  users[staker] */\n      0x20\n      mstore\n      0x40\n      dup2\n      keccak256\n        /* \"contracts/roy.sol\":18553:18575  users[staker].referrer */\n      sload\n        /* \"contracts/roy.sol\":18478:18522  Stake[] memory stakes = users[staker].stakes */\n      swap3\n      swap4\n      pop\n        /* \"contracts/roy.sol\":18553:18575  users[staker].referrer */\n      swap2\n      and\n      swap1\n        /* \"contracts/roy.sol\":18590:18906  for (... */\n    tag_577:\n        /* \"contracts/roy.sol\":18653:18672  levelRewards.length */\n      0x05\n        /* \"contracts/roy.sol\":18645:18650  level */\n      dup2\n        /* \"contracts/roy.sol\":18645:18672  level < levelRewards.length */\n      0xff\n      and\n      lt\n        /* \"contracts/roy.sol\":18645:18696  level < levelRewards.length && upline != address(0) */\n      dup1\n      iszero\n      tag_580\n      jumpi\n      pop\n      sub(shl(0xa0, 0x01), 0x01)\n        /* \"contracts/roy.sol\":18676:18696  upline != address(0) */\n      dup3\n      and\n      iszero\n      iszero\n        /* \"contracts/roy.sol\":18645:18696  level < levelRewards.length && upline != address(0) */\n    tag_580:\n        /* \"contracts/roy.sol\":18590:18906  for (... */\n      iszero\n      tag_578\n      jumpi\n        /* \"contracts/roy.sol\":18768:18773  _user */\n      dup8\n      sub(shl(0xa0, 0x01), 0x01)\n        /* \"contracts/roy.sol\":18758:18773  upline == _user */\n      and\n        /* \"contracts/roy.sol\":18758:18764  upline */\n      dup3\n      sub(shl(0xa0, 0x01), 0x01)\n        /* \"contracts/roy.sol\":18758:18773  upline == _user */\n      and\n      eq\n        /* \"contracts/roy.sol\":18754:18843  if (upline == _user) {... */\n      iszero\n      tag_581\n      jumpi\n        /* \"contracts/roy.sol\":18811:18824  stakes.length */\n      dup3\n      mload\n        /* \"contracts/roy.sol\":18797:18824  totalCount += stakes.length */\n      tag_582\n      swap1\n      dup8\n      tag_212\n      jump\t// in\n    tag_582:\n      swap6\n      pop\n        /* \"contracts/roy.sol\":18754:18843  if (upline == _user) {... */\n    tag_581:\n      sub(shl(0xa0, 0x01), 0x01)\n        /* \"contracts/roy.sol\":18869:18882  users[upline] */\n      swap2\n      dup3\n      and\n      0x00\n      swap1\n      dup2\n      mstore\n        /* \"contracts/roy.sol\":18869:18874  users */\n      0x03\n        /* \"contracts/roy.sol\":18869:18882  users[upline] */\n      0x20\n      mstore\n      0x40\n      swap1\n      keccak256\n        /* \"contracts/roy.sol\":18869:18891  users[upline].referrer */\n      sload\n      swap1\n      swap2\n      and\n      swap1\n        /* \"contracts/roy.sol\":18714:18721  level++ */\n      dup1\n      tag_583\n      dup2\n      tag_509\n      jump\t// in\n    tag_583:\n      swap2\n      pop\n      pop\n        /* \"contracts/roy.sol\":18590:18906  for (... */\n      jump(tag_577)\n    tag_578:\n      pop\n        /* \"contracts/roy.sol\":18376:18916  for (uint256 i = 0; i < allUsers.length; i++) {... */\n      pop\n      pop\n      pop\n        /* \"contracts/roy.sol\":18417:18420  i++ */\n      dup1\n      dup1\n      tag_584\n      swap1\n      tag_190\n      jump\t// in\n    tag_584:\n      swap2\n      pop\n      pop\n        /* \"contracts/roy.sol\":18376:18916  for (uint256 i = 0; i < allUsers.length; i++) {... */\n      jump(tag_569)\n    tag_570:\n      pop\n        /* \"contracts/roy.sol\":18926:18961  LevelIncomeData[] memory incomeData */\n      0x00\n        /* \"contracts/roy.sol\":18986:18996  totalCount */\n      dup2\n        /* \"contracts/roy.sol\":18964:18997  new LevelIncomeData[](totalCount) */\n      0xffffffffffffffff\n      dup2\n      gt\n      iszero\n      tag_585\n      jumpi\n      mstore(0x00, shl(0xe0, 0x4e487b71))\n      mstore(0x04, 0x41)\n      revert(0x00, 0x24)\n    tag_585:\n      mload(0x40)\n      swap1\n      dup1\n      dup3\n      mstore\n      dup1\n      0x20\n      mul\n      0x20\n      add\n      dup3\n      add\n      0x40\n      mstore\n      dup1\n      iszero\n      tag_586\n      jumpi\n      dup2\n      0x20\n      add\n    tag_587:\n      tag_588\n      tag_589\n      jump\t// in\n    tag_588:\n      dup2\n      mstore\n      0x20\n      add\n      swap1\n      0x01\n      swap1\n      sub\n      swap1\n      dup2\n      tag_587\n      jumpi\n      swap1\n      pop\n    tag_586:\n      pop\n        /* \"contracts/roy.sol\":18926:18997  LevelIncomeData[] memory incomeData = new LevelIncomeData[](totalCount) */\n      swap1\n      pop\n        /* \"contracts/roy.sol\":19007:19020  uint256 index */\n      0x00\n        /* \"contracts/roy.sol\":19040:19049  uint256 i */\n      dup1\n        /* \"contracts/roy.sol\":19035:20239  for (uint256 i = 0; i < allUsers.length; i++) {... */\n    tag_590:\n        /* \"contracts/roy.sol\":19059:19067  allUsers */\n      0x08\n        /* \"contracts/roy.sol\":19059:19074  allUsers.length */\n      sload\n        /* \"contracts/roy.sol\":19055:19074  i < allUsers.length */\n      dup2\n      lt\n        /* \"contracts/roy.sol\":19035:20239  for (uint256 i = 0; i < allUsers.length; i++) {... */\n      iszero\n      tag_591\n      jumpi\n        /* \"contracts/roy.sol\":19095:19109  address staker */\n      0x00\n        /* \"contracts/roy.sol\":19112:19120  allUsers */\n      0x08\n        /* \"contracts/roy.sol\":19121:19122  i */\n      dup3\n        /* \"contracts/roy.sol\":19112:19123  allUsers[i] */\n      dup2\n      sload\n      dup2\n      lt\n      tag_593\n      jumpi\n      mstore(0x00, shl(0xe0, 0x4e487b71))\n      mstore(0x04, 0x32)\n      revert(0x00, 0x24)\n    tag_593:\n      0x00\n      swap2\n      dup3\n      mstore\n      0x20\n      dup1\n      dup4\n      keccak256\n      swap1\n      swap2\n      add\n      sload\n      sub(shl(0xa0, 0x01), 0x01)\n      and\n        /* \"contracts/roy.sol\":19161:19174  users[staker] */\n      dup1\n      dup4\n      mstore\n        /* \"contracts/roy.sol\":19161:19166  users */\n      0x03\n        /* \"contracts/roy.sol\":19161:19174  users[staker] */\n      dup3\n      mstore\n      0x40\n      dup1\n      dup5\n      keccak256\n        /* \"contracts/roy.sol\":19112:19123  allUsers[i] */\n      0x01\n        /* \"contracts/roy.sol\":19161:19181  users[staker].stakes */\n      add\n        /* \"contracts/roy.sol\":19137:19181  Stake[] memory stakes = users[staker].stakes */\n      dup1\n      sload\n      dup3\n      mload\n      dup2\n      dup7\n      mul\n      dup2\n      add\n      dup7\n      add\n      swap1\n      swap4\n      mstore\n      dup1\n      dup4\n      mstore\n        /* \"contracts/roy.sol\":19112:19123  allUsers[i] */\n      swap3\n      swap6\n      pop\n        /* \"contracts/roy.sol\":19137:19181  Stake[] memory stakes = users[staker].stakes */\n      swap1\n      swap3\n        /* \"contracts/roy.sol\":19161:19181  users[staker].stakes */\n      swap1\n      swap2\n        /* \"contracts/roy.sol\":19137:19181  Stake[] memory stakes = users[staker].stakes */\n      swap1\n        /* \"contracts/roy.sol\":19112:19123  allUsers[i] */\n      dup5\n      swap1\n        /* \"contracts/roy.sol\":19137:19181  Stake[] memory stakes = users[staker].stakes */\n      dup5\n      add\n    tag_595:\n      dup3\n      dup3\n      lt\n      iszero\n      tag_596\n      jumpi\n      0x00\n      dup5\n      dup2\n      mstore\n      0x20\n      swap1\n      dup2\n      swap1\n      keccak256\n      0x40\n      dup1\n      mload\n      0xc0\n      dup2\n      add\n      dup3\n      mstore\n      0x06\n      dup7\n      mul\n      swap1\n      swap3\n      add\n      dup1\n      sload\n      dup4\n      mstore\n      0x01\n      dup1\n      dup3\n      add\n      sload\n      dup5\n      dup7\n      add\n      mstore\n      0x02\n      dup3\n      add\n      sload\n      swap3\n      dup5\n      add\n      swap3\n      swap1\n      swap3\n      mstore\n      0x03\n      dup2\n      add\n      sload\n      0x60\n      dup5\n      add\n      mstore\n      0x04\n      dup2\n      add\n      sload\n      0x80\n      dup5\n      add\n      mstore\n      0x05\n      add\n      sload\n      0xff\n      and\n      iszero\n      iszero\n      0xa0\n      dup4\n      add\n      mstore\n      swap1\n      dup4\n      mstore\n      swap1\n      swap3\n      add\n      swap2\n      add\n      jump(tag_595)\n    tag_596:\n      pop\n      pop\n      pop\n      pop\n      sub(shl(0xa0, 0x01), 0x01)\n        /* \"contracts/roy.sol\":19212:19225  users[staker] */\n      dup4\n      dup2\n      and\n        /* \"contracts/roy.sol\":19195:19209  address upline */\n      0x00\n        /* \"contracts/roy.sol\":19212:19225  users[staker] */\n      swap1\n      dup2\n      mstore\n        /* \"contracts/roy.sol\":19212:19217  users */\n      0x03\n        /* \"contracts/roy.sol\":19212:19225  users[staker] */\n      0x20\n      mstore\n      0x40\n      dup2\n      keccak256\n        /* \"contracts/roy.sol\":19212:19234  users[staker].referrer */\n      sload\n        /* \"contracts/roy.sol\":19137:19181  Stake[] memory stakes = users[staker].stakes */\n      swap3\n      swap4\n      pop\n        /* \"contracts/roy.sol\":19212:19234  users[staker].referrer */\n      swap2\n      and\n      swap1\n        /* \"contracts/roy.sol\":19249:20229  for (... */\n    tag_598:\n        /* \"contracts/roy.sol\":19312:19331  levelRewards.length */\n      0x05\n        /* \"contracts/roy.sol\":19304:19309  level */\n      dup2\n        /* \"contracts/roy.sol\":19304:19331  level < levelRewards.length */\n      0xff\n      and\n      lt\n        /* \"contracts/roy.sol\":19304:19355  level < levelRewards.length && upline != address(0) */\n      dup1\n      iszero\n      tag_601\n      jumpi\n      pop\n      sub(shl(0xa0, 0x01), 0x01)\n        /* \"contracts/roy.sol\":19335:19355  upline != address(0) */\n      dup3\n      and\n      iszero\n      iszero\n        /* \"contracts/roy.sol\":19304:19355  level < levelRewards.length && upline != address(0) */\n    tag_601:\n        /* \"contracts/roy.sol\":19249:20229  for (... */\n      iszero\n      tag_599\n      jumpi\n        /* \"contracts/roy.sol\":19427:19432  _user */\n      dup10\n      sub(shl(0xa0, 0x01), 0x01)\n        /* \"contracts/roy.sol\":19417:19432  upline == _user */\n      and\n        /* \"contracts/roy.sol\":19417:19423  upline */\n      dup3\n      sub(shl(0xa0, 0x01), 0x01)\n        /* \"contracts/roy.sol\":19417:19432  upline == _user */\n      and\n      eq\n        /* \"contracts/roy.sol\":19413:20166  if (upline == _user) {... */\n      iszero\n      tag_602\n      jumpi\n        /* \"contracts/roy.sol\":19461:19470  uint256 j */\n      0x00\n        /* \"contracts/roy.sol\":19456:20148  for (uint256 j = 0; j < stakes.length; j++) {... */\n    tag_603:\n        /* \"contracts/roy.sol\":19480:19486  stakes */\n      dup4\n        /* \"contracts/roy.sol\":19480:19493  stakes.length */\n      mload\n        /* \"contracts/roy.sol\":19476:19477  j */\n      dup2\n        /* \"contracts/roy.sol\":19476:19493  j < stakes.length */\n      lt\n        /* \"contracts/roy.sol\":19456:20148  for (uint256 j = 0; j < stakes.length; j++) {... */\n      iszero\n      tag_604\n      jumpi\n        /* \"contracts/roy.sol\":19526:19544  Stake memory stake */\n      0x00\n        /* \"contracts/roy.sol\":19547:19553  stakes */\n      dup5\n        /* \"contracts/roy.sol\":19554:19555  j */\n      dup3\n        /* \"contracts/roy.sol\":19547:19556  stakes[j] */\n      dup2\n      mload\n      dup2\n      lt\n      tag_606\n      jumpi\n      mstore(0x00, shl(0xe0, 0x4e487b71))\n      mstore(0x04, 0x32)\n      revert(0x00, 0x24)\n    tag_606:\n      0x20\n      mul\n      0x20\n      add\n      add\n      mload\n        /* \"contracts/roy.sol\":19526:19556  Stake memory stake = stakes[j] */\n      swap1\n      pop\n        /* \"contracts/roy.sol\":19582:19596  uint256 income */\n      0x00\n        /* \"contracts/roy.sol\":19666:19669  100 */\n      0x64\n        /* \"contracts/roy.sol\":19615:19627  levelRewards */\n      0x09\n        /* \"contracts/roy.sol\":19628:19633  level */\n      dup6\n        /* \"contracts/roy.sol\":19615:19634  levelRewards[level] */\n      0xff\n      and\n      0x05\n      dup2\n      lt\n      tag_607\n      jumpi\n      mstore(0x00, shl(0xe0, 0x4e487b71))\n      mstore(0x04, 0x32)\n      revert(0x00, 0x24)\n    tag_607:\n      0x20\n      swap2\n      dup3\n      dup3\n      div\n      add\n      swap2\n      swap1\n      mod\n      swap1\n      sload\n      swap1\n      0x0100\n      exp\n      swap1\n      div\n      0xff\n      and\n        /* \"contracts/roy.sol\":19600:19634  stake.amount * levelRewards[level] */\n      0xff\n      and\n        /* \"contracts/roy.sol\":19600:19605  stake */\n      dup4\n        /* \"contracts/roy.sol\":19600:19612  stake.amount */\n      0x40\n      add\n      mload\n        /* \"contracts/roy.sol\":19600:19634  stake.amount * levelRewards[level] */\n      tag_609\n      swap2\n      swap1\n      tag_208\n      jump\t// in\n    tag_609:\n        /* \"contracts/roy.sol\":19599:19669  (stake.amount * levelRewards[level]) /... */\n      tag_610\n      swap2\n      swap1\n      tag_225\n      jump\t// in\n    tag_610:\n        /* \"contracts/roy.sol\":19582:19669  uint256 income = (stake.amount * levelRewards[level]) /... */\n      swap1\n      pop\n        /* \"contracts/roy.sol\":19718:20125  LevelIncomeData({... */\n      mload(0x40)\n      dup1\n      0xe0\n      add\n      0x40\n      mstore\n      dup1\n        /* \"contracts/roy.sol\":19781:19786  _user */\n      dup15\n      sub(shl(0xa0, 0x01), 0x01)\n        /* \"contracts/roy.sol\":19718:20125  LevelIncomeData({... */\n      and\n      dup2\n      mstore\n      0x20\n      add\n        /* \"contracts/roy.sol\":19825:19830  stake */\n      dup4\n        /* \"contracts/roy.sol\":19825:19838  stake.stakeId */\n      0x00\n      add\n      mload\n        /* \"contracts/roy.sol\":19718:20125  LevelIncomeData({... */\n      dup2\n      mstore\n      0x20\n      add\n        /* \"contracts/roy.sol\":19881:19886  stake */\n      dup4\n        /* \"contracts/roy.sol\":19881:19893  stake.amount */\n      0x40\n      add\n      mload\n        /* \"contracts/roy.sol\":19718:20125  LevelIncomeData({... */\n      dup2\n      mstore\n      0x20\n      add\n        /* \"contracts/roy.sol\":19939:19945  income */\n      dup3\n        /* \"contracts/roy.sol\":19718:20125  LevelIncomeData({... */\n      dup2\n      mstore\n      0x20\n      add\n        /* \"contracts/roy.sol\":19990:19996  staker */\n      dup9\n      sub(shl(0xa0, 0x01), 0x01)\n        /* \"contracts/roy.sol\":19718:20125  LevelIncomeData({... */\n      and\n      dup2\n      mstore\n      0x20\n      add\n        /* \"contracts/roy.sol\":20037:20042  stake */\n      dup4\n        /* \"contracts/roy.sol\":20037:20052  stake.timestamp */\n      0x60\n      add\n      mload\n        /* \"contracts/roy.sol\":19718:20125  LevelIncomeData({... */\n      dup2\n      mstore\n      0x20\n      add\n        /* \"contracts/roy.sol\":20089:20094  level */\n      dup6\n        /* \"contracts/roy.sol\":20097:20098  1 */\n      0x01\n        /* \"contracts/roy.sol\":20089:20098  level + 1 */\n      tag_611\n      swap2\n      swap1\n      tag_612\n      jump\t// in\n    tag_611:\n        /* \"contracts/roy.sol\":19718:20125  LevelIncomeData({... */\n      0xff\n      and\n      swap1\n      mstore\n        /* \"contracts/roy.sol\":19696:19706  incomeData */\n      dup11\n        /* \"contracts/roy.sol\":19707:19714  index++ */\n      dup11\n      tag_613\n      dup2\n      tag_190\n      jump\t// in\n    tag_613:\n      swap12\n      pop\n        /* \"contracts/roy.sol\":19696:19715  incomeData[index++] */\n      dup2\n      mload\n      dup2\n      lt\n      tag_614\n      jumpi\n      mstore(0x00, shl(0xe0, 0x4e487b71))\n      mstore(0x04, 0x32)\n      revert(0x00, 0x24)\n    tag_614:\n      0x20\n      mul\n      0x20\n      add\n      add\n        /* \"contracts/roy.sol\":19696:20125  incomeData[index++] = LevelIncomeData({... */\n      dup2\n      swap1\n      mstore\n      pop\n        /* \"contracts/roy.sol\":19456:20148  for (uint256 j = 0; j < stakes.length; j++) {... */\n      pop\n      pop\n        /* \"contracts/roy.sol\":19495:19498  j++ */\n      dup1\n      dup1\n      tag_615\n      swap1\n      tag_190\n      jump\t// in\n    tag_615:\n      swap2\n      pop\n      pop\n        /* \"contracts/roy.sol\":19456:20148  for (uint256 j = 0; j < stakes.length; j++) {... */\n      jump(tag_603)\n    tag_604:\n      pop\n        /* \"contracts/roy.sol\":19413:20166  if (upline == _user) {... */\n    tag_602:\n      sub(shl(0xa0, 0x01), 0x01)\n        /* \"contracts/roy.sol\":20192:20205  users[upline] */\n      swap2\n      dup3\n      and\n      0x00\n      swap1\n      dup2\n      mstore\n        /* \"contracts/roy.sol\":20192:20197  users */\n      0x03\n        /* \"contracts/roy.sol\":20192:20205  users[upline] */\n      0x20\n      mstore\n      0x40\n      swap1\n      keccak256\n        /* \"contracts/roy.sol\":20192:20214  users[upline].referrer */\n      sload\n      swap1\n      swap2\n      and\n      swap1\n        /* \"contracts/roy.sol\":19373:19380  level++ */\n      dup1\n      tag_616\n      dup2\n      tag_509\n      jump\t// in\n    tag_616:\n      swap2\n      pop\n      pop\n        /* \"contracts/roy.sol\":19249:20229  for (... */\n      jump(tag_598)\n    tag_599:\n      pop\n        /* \"contracts/roy.sol\":19035:20239  for (uint256 i = 0; i < allUsers.length; i++) {... */\n      pop\n      pop\n      pop\n        /* \"contracts/roy.sol\":19076:19079  i++ */\n      dup1\n      dup1\n      tag_617\n      swap1\n      tag_190\n      jump\t// in\n    tag_617:\n      swap2\n      pop\n      pop\n        /* \"contracts/roy.sol\":19035:20239  for (uint256 i = 0; i < allUsers.length; i++) {... */\n      jump(tag_590)\n    tag_591:\n      pop\n        /* \"contracts/roy.sol\":20256:20266  incomeData */\n      swap1\n      swap5\n        /* \"contracts/roy.sol\":18205:20273  function getLevelIncomeDistribution(address _user)... */\n      swap4\n      pop\n      pop\n      pop\n      pop\n      jump\t// out\n        /* \"contracts/roy.sol\":1751:1806  mapping(address => uint256) public directReferralIncome */\n    tag_169:\n      mstore(0x20, 0x07)\n      0x00\n      swap1\n      dup2\n      mstore\n      0x40\n      swap1\n      keccak256\n      sload\n      dup2\n      jump\t// out\n        /* \"contracts/roy.sol\":450:477  uint256 public stakeCounter */\n    tag_172:\n      sload(0x01)\n      dup2\n      jump\t// out\n    tag_298:\n      0x01\n      dup4\n      add\n      swap2\n      dup4\n      swap1\n      dup3\n      iszero\n      tag_618\n      jumpi\n      swap2\n      0x20\n      mul\n      dup3\n      add\n      0x00\n    tag_619:\n      dup4\n      dup3\n      gt\n      iszero\n      tag_620\n      jumpi\n      dup4\n      mload\n      dup4\n      dup3\n      0x0100\n      exp\n      dup2\n      sload\n      dup2\n      0xff\n      mul\n      not\n      and\n      swap1\n      dup4\n      0xff\n      and\n      mul\n      or\n      swap1\n      sstore\n      pop\n      swap3\n      0x20\n      add\n      swap3\n      0x01\n      add\n      0x20\n      dup2\n      0x00\n      add\n      div\n      swap3\n      dup4\n      add\n      swap3\n      0x01\n      sub\n      mul\n      jump(tag_619)\n    tag_620:\n      dup1\n      iszero\n      tag_621\n      jumpi\n      dup3\n      dup2\n      0x0100\n      exp\n      dup2\n      sload\n      swap1\n      0xff\n      mul\n      not\n      and\n      swap1\n      sstore\n      0x01\n      add\n      0x20\n      dup2\n      0x00\n      add\n      div\n      swap3\n      dup4\n      add\n      swap3\n      0x01\n      sub\n      mul\n      jump(tag_620)\n    tag_621:\n      pop\n    tag_618:\n      pop\n      tag_622\n      swap3\n      swap2\n      pop\n      tag_623\n      jump\t// in\n    tag_622:\n      pop\n      swap1\n      jump\t// out\n    tag_589:\n      mload(0x40)\n      dup1\n      0xe0\n      add\n      0x40\n      mstore\n      dup1\n      and(sub(shl(0xa0, 0x01), 0x01), 0x00)\n      dup2\n      mstore\n      0x20\n      add\n      0x00\n      dup2\n      mstore\n      0x20\n      add\n      0x00\n      dup2\n      mstore\n      0x20\n      add\n      0x00\n      dup2\n      mstore\n      0x20\n      add\n      and(sub(shl(0xa0, 0x01), 0x01), 0x00)\n      dup2\n      mstore\n      0x20\n      add\n      0x00\n      dup2\n      mstore\n      0x20\n      add\n      and(0xff, 0x00)\n      dup2\n      mstore\n      pop\n      swap1\n      jump\t// out\n    tag_623:\n    tag_624:\n      dup1\n      dup3\n      gt\n      iszero\n      tag_622\n      jumpi\n      0x00\n      dup2\n      sstore\n      0x01\n      add\n      jump(tag_624)\n        /* \"#utility.yul\":14:189   */\n    tag_627:\n        /* \"#utility.yul\":84:104   */\n      dup1\n      calldataload\n      sub(shl(0xa0, 0x01), 0x01)\n        /* \"#utility.yul\":133:164   */\n      dup2\n      and\n        /* \"#utility.yul\":123:165   */\n      dup2\n      eq\n        /* \"#utility.yul\":113:115   */\n      tag_176\n      jumpi\n        /* \"#utility.yul\":179:180   */\n      0x00\n        /* \"#utility.yul\":176:177   */\n      dup1\n        /* \"#utility.yul\":169:181   */\n      revert\n        /* \"#utility.yul\":194:392   */\n    tag_56:\n      0x00\n        /* \"#utility.yul\":306:308   */\n      0x20\n        /* \"#utility.yul\":294:303   */\n      dup3\n        /* \"#utility.yul\":285:292   */\n      dup5\n        /* \"#utility.yul\":281:304   */\n      sub\n        /* \"#utility.yul\":277:309   */\n      slt\n        /* \"#utility.yul\":274:276   */\n      iszero\n      tag_631\n      jumpi\n        /* \"#utility.yul\":327:333   */\n      dup1\n        /* \"#utility.yul\":319:325   */\n      dup2\n        /* \"#utility.yul\":312:334   */\n      revert\n        /* \"#utility.yul\":274:276   */\n    tag_631:\n        /* \"#utility.yul\":355:386   */\n      tag_632\n        /* \"#utility.yul\":376:385   */\n      dup3\n        /* \"#utility.yul\":355:386   */\n      tag_627\n      jump\t// in\n    tag_632:\n        /* \"#utility.yul\":345:386   */\n      swap4\n        /* \"#utility.yul\":264:392   */\n      swap3\n      pop\n      pop\n      pop\n      jump\t// out\n        /* \"#utility.yul\":397:663   */\n    tag_44:\n      0x00\n      dup1\n        /* \"#utility.yul\":526:528   */\n      0x40\n        /* \"#utility.yul\":514:523   */\n      dup4\n        /* \"#utility.yul\":505:512   */\n      dup6\n        /* \"#utility.yul\":501:524   */\n      sub\n        /* \"#utility.yul\":497:529   */\n      slt\n        /* \"#utility.yul\":494:496   */\n      iszero\n      tag_634\n      jumpi\n        /* \"#utility.yul\":547:553   */\n      dup1\n        /* \"#utility.yul\":539:545   */\n      dup2\n        /* \"#utility.yul\":532:554   */\n      revert\n        /* \"#utility.yul\":494:496   */\n    tag_634:\n        /* \"#utility.yul\":575:606   */\n      tag_635\n        /* \"#utility.yul\":596:605   */\n      dup4\n        /* \"#utility.yul\":575:606   */\n      tag_627\n      jump\t// in\n    tag_635:\n        /* \"#utility.yul\":565:606   */\n      swap5\n        /* \"#utility.yul\":653:655   */\n      0x20\n        /* \"#utility.yul\":638:656   */\n      swap4\n      swap1\n      swap4\n      add\n        /* \"#utility.yul\":625:657   */\n      calldataload\n      swap4\n      pop\n      pop\n      pop\n        /* \"#utility.yul\":484:663   */\n      jump\t// out\n        /* \"#utility.yul\":668:1607   */\n    tag_85:\n      0x00\n        /* \"#utility.yul\":801:804   */\n      0xa0\n        /* \"#utility.yul\":789:798   */\n      dup3\n        /* \"#utility.yul\":780:787   */\n      dup5\n        /* \"#utility.yul\":776:799   */\n      sub\n        /* \"#utility.yul\":772:805   */\n      slt\n        /* \"#utility.yul\":769:771   */\n      iszero\n      tag_637\n      jumpi\n        /* \"#utility.yul\":823:829   */\n      dup1\n        /* \"#utility.yul\":815:821   */\n      dup2\n        /* \"#utility.yul\":808:830   */\n      revert\n        /* \"#utility.yul\":769:771   */\n    tag_637:\n        /* \"#utility.yul\":877:884   */\n      dup3\n        /* \"#utility.yul\":870:874   */\n      0x1f\n        /* \"#utility.yul\":859:868   */\n      dup4\n        /* \"#utility.yul\":855:875   */\n      add\n        /* \"#utility.yul\":851:885   */\n      slt\n        /* \"#utility.yul\":841:843   */\n      tag_638\n      jumpi\n        /* \"#utility.yul\":904:910   */\n      dup1\n        /* \"#utility.yul\":896:902   */\n      dup2\n        /* \"#utility.yul\":889:911   */\n      revert\n        /* \"#utility.yul\":841:843   */\n    tag_638:\n        /* \"#utility.yul\":942:944   */\n      0x40\n        /* \"#utility.yul\":936:945   */\n      mload\n        /* \"#utility.yul\":984:987   */\n      0xa0\n        /* \"#utility.yul\":976:982   */\n      dup2\n        /* \"#utility.yul\":972:988   */\n      add\n        /* \"#utility.yul\":1054:1060   */\n      dup2\n        /* \"#utility.yul\":1042:1052   */\n      dup2\n        /* \"#utility.yul\":1039:1061   */\n      lt\n        /* \"#utility.yul\":1018:1036   */\n      0xffffffffffffffff\n        /* \"#utility.yul\":1006:1016   */\n      dup3\n        /* \"#utility.yul\":1003:1037   */\n      gt\n        /* \"#utility.yul\":1000:1062   */\n      or\n        /* \"#utility.yul\":997:999   */\n      iszero\n      tag_640\n      jumpi\n        /* \"#utility.yul\":1065:1083   */\n      tag_640\n      tag_641\n      jump\t// in\n    tag_640:\n        /* \"#utility.yul\":1101:1103   */\n      0x40\n        /* \"#utility.yul\":1094:1116   */\n      mstore\n        /* \"#utility.yul\":1136:1142   */\n      dup1\n        /* \"#utility.yul\":1162:1171   */\n      dup4\n        /* \"#utility.yul\":1201:1204   */\n      0xa0\n        /* \"#utility.yul\":1186:1205   */\n      dup2\n      add\n        /* \"#utility.yul\":1183:1215   */\n      dup7\n      lt\n        /* \"#utility.yul\":1180:1182   */\n      iszero\n      tag_642\n      jumpi\n        /* \"#utility.yul\":1233:1239   */\n      dup4\n        /* \"#utility.yul\":1225:1231   */\n      dup5\n        /* \"#utility.yul\":1218:1240   */\n      revert\n        /* \"#utility.yul\":1180:1182   */\n    tag_642:\n        /* \"#utility.yul\":1260:1266   */\n      dup4\n        /* \"#utility.yul\":1275:1576   */\n    tag_643:\n        /* \"#utility.yul\":1289:1293   */\n      0x05\n        /* \"#utility.yul\":1286:1287   */\n      dup2\n        /* \"#utility.yul\":1283:1294   */\n      lt\n        /* \"#utility.yul\":1275:1576   */\n      iszero\n      tag_645\n      jumpi\n        /* \"#utility.yul\":1362:1365   */\n      dup2\n        /* \"#utility.yul\":1349:1366   */\n      calldataload\n        /* \"#utility.yul\":1410:1414   */\n      0xff\n        /* \"#utility.yul\":1403:1408   */\n      dup2\n        /* \"#utility.yul\":1399:1415   */\n      and\n        /* \"#utility.yul\":1392:1397   */\n      dup2\n        /* \"#utility.yul\":1389:1416   */\n      eq\n        /* \"#utility.yul\":1379:1381   */\n      tag_646\n      jumpi\n        /* \"#utility.yul\":1435:1441   */\n      dup6\n        /* \"#utility.yul\":1427:1433   */\n      dup7\n        /* \"#utility.yul\":1420:1442   */\n      revert\n        /* \"#utility.yul\":1379:1381   */\n    tag_646:\n        /* \"#utility.yul\":1457:1475   */\n      dup4\n      mstore\n        /* \"#utility.yul\":1498:1502   */\n      0x20\n        /* \"#utility.yul\":1522:1534   */\n      swap3\n      dup4\n      add\n      swap3\n        /* \"#utility.yul\":1554:1566   */\n      swap2\n      swap1\n      swap2\n      add\n      swap1\n        /* \"#utility.yul\":1309:1310   */\n      0x01\n        /* \"#utility.yul\":1302:1311   */\n      add\n        /* \"#utility.yul\":1275:1576   */\n      jump(tag_643)\n    tag_645:\n      pop\n        /* \"#utility.yul\":1595:1601   */\n      swap2\n      swap6\n        /* \"#utility.yul\":759:1607   */\n      swap5\n      pop\n      pop\n      pop\n      pop\n      pop\n      jump\t// out\n        /* \"#utility.yul\":1612:1909   */\n    tag_246:\n      0x00\n        /* \"#utility.yul\":1732:1734   */\n      0x20\n        /* \"#utility.yul\":1720:1729   */\n      dup3\n        /* \"#utility.yul\":1711:1718   */\n      dup5\n        /* \"#utility.yul\":1707:1730   */\n      sub\n        /* \"#utility.yul\":1703:1735   */\n      slt\n        /* \"#utility.yul\":1700:1702   */\n      iszero\n      tag_648\n      jumpi\n        /* \"#utility.yul\":1753:1759   */\n      dup1\n        /* \"#utility.yul\":1745:1751   */\n      dup2\n        /* \"#utility.yul\":1738:1760   */\n      revert\n        /* \"#utility.yul\":1700:1702   */\n    tag_648:\n        /* \"#utility.yul\":1790:1799   */\n      dup2\n        /* \"#utility.yul\":1784:1800   */\n      mload\n        /* \"#utility.yul\":1843:1848   */\n      dup1\n        /* \"#utility.yul\":1836:1849   */\n      iszero\n        /* \"#utility.yul\":1829:1850   */\n      iszero\n        /* \"#utility.yul\":1822:1827   */\n      dup2\n        /* \"#utility.yul\":1819:1851   */\n      eq\n        /* \"#utility.yul\":1809:1811   */\n      tag_632\n      jumpi\n        /* \"#utility.yul\":1870:1876   */\n      dup2\n        /* \"#utility.yul\":1862:1868   */\n      dup3\n        /* \"#utility.yul\":1855:1877   */\n      revert\n        /* \"#utility.yul\":1914:2104   */\n    tag_50:\n      0x00\n        /* \"#utility.yul\":2026:2028   */\n      0x20\n        /* \"#utility.yul\":2014:2023   */\n      dup3\n        /* \"#utility.yul\":2005:2012   */\n      dup5\n        /* \"#utility.yul\":2001:2024   */\n      sub\n        /* \"#utility.yul\":1997:2029   */\n      slt\n        /* \"#utility.yul\":1994:1996   */\n      iszero\n      tag_651\n      jumpi\n        /* \"#utility.yul\":2047:2053   */\n      dup1\n        /* \"#utility.yul\":2039:2045   */\n      dup2\n        /* \"#utility.yul\":2032:2054   */\n      revert\n        /* \"#utility.yul\":1994:1996   */\n    tag_651:\n      pop\n        /* \"#utility.yul\":2075:2098   */\n      calldataload\n      swap2\n        /* \"#utility.yul\":1984:2104   */\n      swap1\n      pop\n      jump\t// out\n        /* \"#utility.yul\":2109:2303   */\n    tag_234:\n      0x00\n        /* \"#utility.yul\":2232:2234   */\n      0x20\n        /* \"#utility.yul\":2220:2229   */\n      dup3\n        /* \"#utility.yul\":2211:2218   */\n      dup5\n        /* \"#utility.yul\":2207:2230   */\n      sub\n        /* \"#utility.yul\":2203:2235   */\n      slt\n        /* \"#utility.yul\":2200:2202   */\n      iszero\n      tag_653\n      jumpi\n        /* \"#utility.yul\":2253:2259   */\n      dup1\n        /* \"#utility.yul\":2245:2251   */\n      dup2\n        /* \"#utility.yul\":2238:2260   */\n      revert\n        /* \"#utility.yul\":2200:2202   */\n    tag_653:\n      pop\n        /* \"#utility.yul\":2281:2297   */\n      mload\n      swap2\n        /* \"#utility.yul\":2190:2303   */\n      swap1\n      pop\n      jump\t// out\n        /* \"#utility.yul\":2308:2566   */\n    tag_76:\n      0x00\n      dup1\n        /* \"#utility.yul\":2437:2439   */\n      0x40\n        /* \"#utility.yul\":2425:2434   */\n      dup4\n        /* \"#utility.yul\":2416:2423   */\n      dup6\n        /* \"#utility.yul\":2412:2435   */\n      sub\n        /* \"#utility.yul\":2408:2440   */\n      slt\n        /* \"#utility.yul\":2405:2407   */\n      iszero\n      tag_655\n      jumpi\n        /* \"#utility.yul\":2458:2464   */\n      dup2\n        /* \"#utility.yul\":2450:2456   */\n      dup3\n        /* \"#utility.yul\":2443:2465   */\n      revert\n        /* \"#utility.yul\":2405:2407   */\n    tag_655:\n      pop\n      pop\n        /* \"#utility.yul\":2486:2509   */\n      dup1\n      calldataload\n      swap3\n        /* \"#utility.yul\":2556:2558   */\n      0x20\n        /* \"#utility.yul\":2541:2559   */\n      swap1\n      swap2\n      add\n        /* \"#utility.yul\":2528:2560   */\n      calldataload\n      swap2\n      pop\n        /* \"#utility.yul\":2395:2566   */\n      jump\t// out\n        /* \"#utility.yul\":2571:3014   */\n    tag_656:\n      0x00\n        /* \"#utility.yul\":2668:2673   */\n      dup2\n        /* \"#utility.yul\":2662:2674   */\n      mload\n        /* \"#utility.yul\":2695:2701   */\n      dup1\n        /* \"#utility.yul\":2690:2693   */\n      dup5\n        /* \"#utility.yul\":2683:2702   */\n      mstore\n        /* \"#utility.yul\":2721:2725   */\n      0x20\n        /* \"#utility.yul\":2750:2752   */\n      dup1\n        /* \"#utility.yul\":2745:2748   */\n      dup6\n        /* \"#utility.yul\":2741:2753   */\n      add\n        /* \"#utility.yul\":2734:2753   */\n      swap5\n      pop\n        /* \"#utility.yul\":2787:2789   */\n      dup1\n        /* \"#utility.yul\":2780:2785   */\n      dup5\n        /* \"#utility.yul\":2776:2790   */\n      add\n        /* \"#utility.yul\":2808:2811   */\n      dup4\n        /* \"#utility.yul\":2820:2989   */\n    tag_658:\n        /* \"#utility.yul\":2834:2840   */\n      dup4\n        /* \"#utility.yul\":2831:2832   */\n      dup2\n        /* \"#utility.yul\":2828:2841   */\n      lt\n        /* \"#utility.yul\":2820:2989   */\n      iszero\n      tag_660\n      jumpi\n        /* \"#utility.yul\":2895:2908   */\n      dup2\n      mload\n        /* \"#utility.yul\":2883:2909   */\n      dup8\n      mstore\n        /* \"#utility.yul\":2929:2941   */\n      swap6\n      dup3\n      add\n      swap6\n        /* \"#utility.yul\":2964:2979   */\n      swap1\n      dup3\n      add\n      swap1\n        /* \"#utility.yul\":2856:2857   */\n      0x01\n        /* \"#utility.yul\":2849:2858   */\n      add\n        /* \"#utility.yul\":2820:2989   */\n      jump(tag_658)\n    tag_660:\n      pop\n        /* \"#utility.yul\":3005:3008   */\n      swap5\n      swap6\n        /* \"#utility.yul\":2638:3014   */\n      swap5\n      pop\n      pop\n      pop\n      pop\n      pop\n      jump\t// out\n        /* \"#utility.yul\":3019:3222   */\n    tag_53:\n      sub(shl(0xa0, 0x01), 0x01)\n        /* \"#utility.yul\":3183:3215   */\n      swap2\n      swap1\n      swap2\n      and\n        /* \"#utility.yul\":3165:3216   */\n      dup2\n      mstore\n        /* \"#utility.yul\":3153:3155   */\n      0x20\n        /* \"#utility.yul\":3138:3156   */\n      add\n      swap1\n        /* \"#utility.yul\":3120:3222   */\n      jump\t// out\n        /* \"#utility.yul\":3227:3602   */\n    tag_399:\n      sub(shl(0xa0, 0x01), 0x01)\n        /* \"#utility.yul\":3485:3500   */\n      swap4\n      dup5\n      and\n        /* \"#utility.yul\":3467:3501   */\n      dup2\n      mstore\n        /* \"#utility.yul\":3537:3552   */\n      swap2\n      swap1\n      swap3\n      and\n        /* \"#utility.yul\":3532:3534   */\n      0x20\n        /* \"#utility.yul\":3517:3535   */\n      dup3\n      add\n        /* \"#utility.yul\":3510:3553   */\n      mstore\n        /* \"#utility.yul\":3584:3586   */\n      0x40\n        /* \"#utility.yul\":3569:3587   */\n      dup2\n      add\n        /* \"#utility.yul\":3562:3596   */\n      swap2\n      swap1\n      swap2\n      mstore\n        /* \"#utility.yul\":3417:3419   */\n      0x60\n        /* \"#utility.yul\":3402:3420   */\n      add\n      swap1\n        /* \"#utility.yul\":3384:3602   */\n      jump\t// out\n        /* \"#utility.yul\":3607:3881   */\n    tag_241:\n      sub(shl(0xa0, 0x01), 0x01)\n        /* \"#utility.yul\":3799:3831   */\n      swap3\n      swap1\n      swap3\n      and\n        /* \"#utility.yul\":3781:3832   */\n      dup3\n      mstore\n        /* \"#utility.yul\":3863:3865   */\n      0x20\n        /* \"#utility.yul\":3848:3866   */\n      dup3\n      add\n        /* \"#utility.yul\":3841:3875   */\n      mstore\n        /* \"#utility.yul\":3769:3771   */\n      0x40\n        /* \"#utility.yul\":3754:3772   */\n      add\n      swap1\n        /* \"#utility.yul\":3736:3881   */\n      jump\t// out\n        /* \"#utility.yul\":3886:4231   */\n    tag_47:\n      sub(shl(0xa0, 0x01), 0x01)\n        /* \"#utility.yul\":4106:4138   */\n      swap4\n      swap1\n      swap4\n      and\n        /* \"#utility.yul\":4088:4139   */\n      dup4\n      mstore\n        /* \"#utility.yul\":4170:4172   */\n      0x20\n        /* \"#utility.yul\":4155:4173   */\n      dup4\n      add\n        /* \"#utility.yul\":4148:4182   */\n      swap2\n      swap1\n      swap2\n      mstore\n        /* \"#utility.yul\":4213:4215   */\n      0x40\n        /* \"#utility.yul\":4198:4216   */\n      dup3\n      add\n        /* \"#utility.yul\":4191:4225   */\n      mstore\n        /* \"#utility.yul\":4076:4078   */\n      0x60\n        /* \"#utility.yul\":4061:4079   */\n      add\n      swap1\n        /* \"#utility.yul\":4043:4231   */\n      jump\t// out\n        /* \"#utility.yul\":4236:4663   */\n    tag_128:\n      sub(shl(0xa0, 0x01), 0x01)\n        /* \"#utility.yul\":4479:4511   */\n      swap5\n      swap1\n      swap5\n      and\n        /* \"#utility.yul\":4461:4512   */\n      dup5\n      mstore\n        /* \"#utility.yul\":4543:4545   */\n      0x20\n        /* \"#utility.yul\":4528:4546   */\n      dup5\n      add\n        /* \"#utility.yul\":4521:4555   */\n      swap3\n      swap1\n      swap3\n      mstore\n        /* \"#utility.yul\":4586:4588   */\n      0x40\n        /* \"#utility.yul\":4571:4589   */\n      dup4\n      add\n        /* \"#utility.yul\":4564:4598   */\n      mstore\n        /* \"#utility.yul\":4641:4655   */\n      iszero\n        /* \"#utility.yul\":4634:4656   */\n      iszero\n        /* \"#utility.yul\":4629:4631   */\n      0x60\n        /* \"#utility.yul\":4614:4632   */\n      dup3\n      add\n        /* \"#utility.yul\":4607:4657   */\n      mstore\n        /* \"#utility.yul\":4448:4451   */\n      0x80\n        /* \"#utility.yul\":4433:4452   */\n      add\n      swap1\n        /* \"#utility.yul\":4415:4663   */\n      jump\t// out\n        /* \"#utility.yul\":4668:5383   */\n    tag_97:\n      sub(shl(0xa0, 0x01), 0x01)\n        /* \"#utility.yul\":5023:5055   */\n      swap9\n      swap1\n      swap9\n      and\n        /* \"#utility.yul\":5005:5056   */\n      dup9\n      mstore\n        /* \"#utility.yul\":5087:5089   */\n      0x20\n        /* \"#utility.yul\":5072:5090   */\n      dup9\n      add\n        /* \"#utility.yul\":5065:5099   */\n      swap7\n      swap1\n      swap7\n      mstore\n        /* \"#utility.yul\":5130:5132   */\n      0x40\n        /* \"#utility.yul\":5115:5133   */\n      dup8\n      add\n        /* \"#utility.yul\":5108:5142   */\n      swap5\n      swap1\n      swap5\n      mstore\n        /* \"#utility.yul\":5173:5175   */\n      0x60\n        /* \"#utility.yul\":5158:5176   */\n      dup7\n      add\n        /* \"#utility.yul\":5151:5185   */\n      swap3\n      swap1\n      swap3\n      mstore\n        /* \"#utility.yul\":5216:5219   */\n      0x80\n        /* \"#utility.yul\":5201:5220   */\n      dup6\n      add\n        /* \"#utility.yul\":5194:5229   */\n      mstore\n        /* \"#utility.yul\":5043:5046   */\n      0xa0\n        /* \"#utility.yul\":5245:5264   */\n      dup5\n      add\n        /* \"#utility.yul\":5238:5273   */\n      mstore\n        /* \"#utility.yul\":5304:5307   */\n      0xc0\n        /* \"#utility.yul\":5289:5308   */\n      dup4\n      add\n        /* \"#utility.yul\":5282:5317   */\n      mstore\n        /* \"#utility.yul\":5361:5375   */\n      iszero\n        /* \"#utility.yul\":5354:5376   */\n      iszero\n        /* \"#utility.yul\":5348:5351   */\n      0xe0\n        /* \"#utility.yul\":5333:5352   */\n      dup3\n      add\n        /* \"#utility.yul\":5326:5377   */\n      mstore\n        /* \"#utility.yul\":4992:4995   */\n      0x0100\n        /* \"#utility.yul\":4977:4996   */\n      add\n      swap1\n        /* \"#utility.yul\":4959:5383   */\n      jump\t// out\n        /* \"#utility.yul\":5388:6440   */\n    tag_119:\n        /* \"#utility.yul\":5734:5736   */\n      0x60\n        /* \"#utility.yul\":5746:5767   */\n      dup1\n      dup3\n      mstore\n        /* \"#utility.yul\":5816:5829   */\n      dup5\n      mload\n        /* \"#utility.yul\":5719:5737   */\n      swap1\n      dup3\n      add\n        /* \"#utility.yul\":5838:5860   */\n      dup2\n      swap1\n      mstore\n        /* \"#utility.yul\":5388:6440   */\n      0x00\n      swap1\n        /* \"#utility.yul\":5914:5918   */\n      0x20\n      swap1\n        /* \"#utility.yul\":5891:5894   */\n      0x80\n        /* \"#utility.yul\":5876:5895   */\n      dup5\n      add\n      swap1\n        /* \"#utility.yul\":5941:5956   */\n      dup3\n      dup9\n      add\n        /* \"#utility.yul\":5388:6440   */\n      dup5\n        /* \"#utility.yul\":5987:6182   */\n    tag_668:\n        /* \"#utility.yul\":6001:6007   */\n      dup3\n        /* \"#utility.yul\":5998:5999   */\n      dup2\n        /* \"#utility.yul\":5995:6008   */\n      lt\n        /* \"#utility.yul\":5987:6182   */\n      iszero\n      tag_670\n      jumpi\n        /* \"#utility.yul\":6066:6079   */\n      dup2\n      mload\n      sub(shl(0xa0, 0x01), 0x01)\n        /* \"#utility.yul\":6062:6101   */\n      and\n        /* \"#utility.yul\":6050:6102   */\n      dup5\n      mstore\n        /* \"#utility.yul\":6122:6134   */\n      swap3\n      dup5\n      add\n      swap3\n        /* \"#utility.yul\":6157:6172   */\n      swap1\n      dup5\n      add\n      swap1\n        /* \"#utility.yul\":6098:6099   */\n      0x01\n        /* \"#utility.yul\":6016:6025   */\n      add\n        /* \"#utility.yul\":5987:6182   */\n      jump(tag_668)\n    tag_670:\n        /* \"#utility.yul\":5991:5994   */\n      pop\n      pop\n      pop\n        /* \"#utility.yul\":6227:6236   */\n      dup4\n        /* \"#utility.yul\":6222:6225   */\n      dup2\n        /* \"#utility.yul\":6218:6237   */\n      sub\n        /* \"#utility.yul\":6213:6215   */\n      dup3\n        /* \"#utility.yul\":6202:6211   */\n      dup6\n        /* \"#utility.yul\":6198:6216   */\n      add\n        /* \"#utility.yul\":6191:6238   */\n      mstore\n        /* \"#utility.yul\":6261:6308   */\n      tag_671\n        /* \"#utility.yul\":6304:6307   */\n      dup2\n        /* \"#utility.yul\":6296:6302   */\n      dup8\n        /* \"#utility.yul\":6261:6308   */\n      tag_656\n      jump\t// in\n    tag_671:\n        /* \"#utility.yul\":6247:6308   */\n      swap2\n      pop\n      pop\n        /* \"#utility.yul\":6356:6365   */\n      dup3\n        /* \"#utility.yul\":6348:6354   */\n      dup2\n        /* \"#utility.yul\":6344:6366   */\n      sub\n        /* \"#utility.yul\":6339:6341   */\n      0x40\n        /* \"#utility.yul\":6328:6337   */\n      dup5\n        /* \"#utility.yul\":6324:6342   */\n      add\n        /* \"#utility.yul\":6317:6367   */\n      mstore\n        /* \"#utility.yul\":6384:6434   */\n      tag_672\n        /* \"#utility.yul\":6427:6433   */\n      dup2\n        /* \"#utility.yul\":6419:6425   */\n      dup6\n        /* \"#utility.yul\":6384:6434   */\n      tag_656\n      jump\t// in\n    tag_672:\n        /* \"#utility.yul\":6376:6434   */\n      swap7\n        /* \"#utility.yul\":5695:6440   */\n      swap6\n      pop\n      pop\n      pop\n      pop\n      pop\n      pop\n      jump\t// out\n        /* \"#utility.yul\":6445:7696   */\n    tag_166:\n        /* \"#utility.yul\":6680:6682   */\n      0x20\n        /* \"#utility.yul\":6732:6753   */\n      dup1\n      dup3\n      mstore\n        /* \"#utility.yul\":6802:6815   */\n      dup3\n      mload\n        /* \"#utility.yul\":6705:6723   */\n      dup3\n      dup3\n      add\n        /* \"#utility.yul\":6824:6846   */\n      dup2\n      swap1\n      mstore\n        /* \"#utility.yul\":6445:7696   */\n      0x00\n      swap2\n        /* \"#utility.yul\":6680:6682   */\n      swap1\n        /* \"#utility.yul\":6865:6867   */\n      0x40\n      swap1\n        /* \"#utility.yul\":6883:6901   */\n      dup2\n      dup6\n      add\n      swap1\n        /* \"#utility.yul\":6924:6939   */\n      dup7\n      dup5\n      add\n        /* \"#utility.yul\":6445:7696   */\n      dup6\n        /* \"#utility.yul\":6970:7670   */\n    tag_674:\n        /* \"#utility.yul\":6984:6990   */\n      dup3\n        /* \"#utility.yul\":6981:6982   */\n      dup2\n        /* \"#utility.yul\":6978:6991   */\n      lt\n        /* \"#utility.yul\":6970:7670   */\n      iszero\n      tag_676\n      jumpi\n        /* \"#utility.yul\":7043:7056   */\n      dup2\n      mload\n        /* \"#utility.yul\":7127:7136   */\n      dup1\n      mload\n      sub(shl(0xa0, 0x01), 0x01)\n        /* \"#utility.yul\":7123:7141   */\n      swap1\n      dup2\n      and\n        /* \"#utility.yul\":7111:7142   */\n      dup7\n      mstore\n        /* \"#utility.yul\":7182:7193   */\n      dup8\n      dup3\n      add\n        /* \"#utility.yul\":7176:7194   */\n      mload\n        /* \"#utility.yul\":7162:7174   */\n      dup9\n      dup8\n      add\n        /* \"#utility.yul\":7155:7195   */\n      mstore\n        /* \"#utility.yul\":7235:7246   */\n      dup7\n      dup3\n      add\n        /* \"#utility.yul\":7229:7247   */\n      mload\n        /* \"#utility.yul\":7215:7227   */\n      dup8\n      dup8\n      add\n        /* \"#utility.yul\":7208:7248   */\n      mstore\n        /* \"#utility.yul\":7271:7275   */\n      0x60\n        /* \"#utility.yul\":7315:7326   */\n      dup1\n      dup4\n      add\n        /* \"#utility.yul\":7309:7327   */\n      mload\n        /* \"#utility.yul\":7295:7307   */\n      swap1\n      dup8\n      add\n        /* \"#utility.yul\":7288:7328   */\n      mstore\n        /* \"#utility.yul\":7351:7355   */\n      0x80\n        /* \"#utility.yul\":7399:7410   */\n      dup1\n      dup4\n      add\n        /* \"#utility.yul\":7393:7411   */\n      mload\n        /* \"#utility.yul\":7389:7416   */\n      swap1\n      swap2\n      and\n        /* \"#utility.yul\":7375:7387   */\n      swap1\n      dup7\n      add\n        /* \"#utility.yul\":7368:7417   */\n      mstore\n        /* \"#utility.yul\":7087:7090   */\n      0xa0\n        /* \"#utility.yul\":7484:7495   */\n      dup1\n      dup3\n      add\n        /* \"#utility.yul\":7478:7496   */\n      mload\n        /* \"#utility.yul\":7464:7476   */\n      swap1\n      dup7\n      add\n        /* \"#utility.yul\":7457:7497   */\n      mstore\n        /* \"#utility.yul\":7520:7524   */\n      0xc0\n        /* \"#utility.yul\":7568:7579   */\n      swap1\n      dup2\n      add\n        /* \"#utility.yul\":7562:7580   */\n      mload\n        /* \"#utility.yul\":7582:7586   */\n      0xff\n        /* \"#utility.yul\":7558:7587   */\n      and\n        /* \"#utility.yul\":7544:7556   */\n      swap1\n      dup6\n      add\n        /* \"#utility.yul\":7537:7588   */\n      mstore\n        /* \"#utility.yul\":7617:7621   */\n      0xe0\n        /* \"#utility.yul\":7608:7622   */\n      swap1\n      swap4\n      add\n      swap3\n        /* \"#utility.yul\":7645:7660   */\n      swap1\n      dup6\n      add\n      swap1\n        /* \"#utility.yul\":7096:7097   */\n      0x01\n        /* \"#utility.yul\":6999:7008   */\n      add\n        /* \"#utility.yul\":6970:7670   */\n      jump(tag_674)\n    tag_676:\n      pop\n        /* \"#utility.yul\":7687:7690   */\n      swap2\n      swap8\n        /* \"#utility.yul\":6660:7696   */\n      swap7\n      pop\n      pop\n      pop\n      pop\n      pop\n      pop\n      pop\n      jump\t// out\n        /* \"#utility.yul\":7701:7968   */\n    tag_64:\n      0x00\n        /* \"#utility.yul\":7880:7882   */\n      0x20\n        /* \"#utility.yul\":7869:7878   */\n      dup3\n        /* \"#utility.yul\":7862:7883   */\n      mstore\n        /* \"#utility.yul\":7900:7962   */\n      tag_632\n        /* \"#utility.yul\":7958:7960   */\n      0x20\n        /* \"#utility.yul\":7947:7956   */\n      dup4\n        /* \"#utility.yul\":7943:7961   */\n      add\n        /* \"#utility.yul\":7935:7941   */\n      dup5\n        /* \"#utility.yul\":7900:7962   */\n      tag_656\n      jump\t// in\n        /* \"#utility.yul\":7973:8160   */\n    tag_150:\n        /* \"#utility.yul\":8138:8152   */\n      swap1\n      iszero\n        /* \"#utility.yul\":8131:8153   */\n      iszero\n        /* \"#utility.yul\":8113:8154   */\n      dup2\n      mstore\n        /* \"#utility.yul\":8101:8103   */\n      0x20\n        /* \"#utility.yul\":8086:8104   */\n      add\n      swap1\n        /* \"#utility.yul\":8068:8160   */\n      jump\t// out\n        /* \"#utility.yul\":8386:8733   */\n    tag_278:\n        /* \"#utility.yul\":8588:8590   */\n      0x20\n        /* \"#utility.yul\":8570:8591   */\n      dup1\n      dup3\n      mstore\n        /* \"#utility.yul\":8627:8629   */\n      0x17\n        /* \"#utility.yul\":8607:8625   */\n      swap1\n      dup3\n      add\n        /* \"#utility.yul\":8600:8630   */\n      mstore\n        /* \"#utility.yul\":8666:8691   */\n      0x5265666572726572206e6f742072656769737465726564000000000000000000\n        /* \"#utility.yul\":8661:8663   */\n      0x40\n        /* \"#utility.yul\":8646:8664   */\n      dup3\n      add\n        /* \"#utility.yul\":8639:8692   */\n      mstore\n        /* \"#utility.yul\":8724:8726   */\n      0x60\n        /* \"#utility.yul\":8709:8727   */\n      add\n      swap1\n        /* \"#utility.yul\":8560:8733   */\n      jump\t// out\n        /* \"#utility.yul\":8738:9076   */\n    tag_194:\n        /* \"#utility.yul\":8940:8942   */\n      0x20\n        /* \"#utility.yul\":8922:8943   */\n      dup1\n      dup3\n      mstore\n        /* \"#utility.yul\":8979:8981   */\n      0x0e\n        /* \"#utility.yul\":8959:8977   */\n      swap1\n      dup3\n      add\n        /* \"#utility.yul\":8952:8982   */\n      mstore\n      shl(0x92, 0x139bdd081c9959da5cdd195c9959)\n        /* \"#utility.yul\":9013:9015   */\n      0x40\n        /* \"#utility.yul\":8998:9016   */\n      dup3\n      add\n        /* \"#utility.yul\":8991:9035   */\n      mstore\n        /* \"#utility.yul\":9067:9069   */\n      0x60\n        /* \"#utility.yul\":9052:9070   */\n      add\n      swap1\n        /* \"#utility.yul\":8912:9076   */\n      jump\t// out\n        /* \"#utility.yul\":9081:9426   */\n    tag_275:\n        /* \"#utility.yul\":9283:9285   */\n      0x20\n        /* \"#utility.yul\":9265:9286   */\n      dup1\n      dup3\n      mstore\n        /* \"#utility.yul\":9322:9324   */\n      0x15\n        /* \"#utility.yul\":9302:9320   */\n      swap1\n      dup3\n      add\n        /* \"#utility.yul\":9295:9325   */\n      mstore\n      shl(0x59, 0x21b0b73737ba103932b332b9103cb7bab939b2b633)\n        /* \"#utility.yul\":9356:9358   */\n      0x40\n        /* \"#utility.yul\":9341:9359   */\n      dup3\n      add\n        /* \"#utility.yul\":9334:9385   */\n      mstore\n        /* \"#utility.yul\":9417:9419   */\n      0x60\n        /* \"#utility.yul\":9402:9420   */\n      add\n      swap1\n        /* \"#utility.yul\":9255:9426   */\n      jump\t// out\n        /* \"#utility.yul\":9431:9786   */\n    tag_433:\n        /* \"#utility.yul\":9633:9635   */\n      0x20\n        /* \"#utility.yul\":9615:9636   */\n      dup1\n      dup3\n      mstore\n        /* \"#utility.yul\":9672:9674   */\n      0x1f\n        /* \"#utility.yul\":9652:9670   */\n      swap1\n      dup3\n      add\n        /* \"#utility.yul\":9645:9675   */\n      mstore\n        /* \"#utility.yul\":9711:9744   */\n      0x44697265637420726566657272616c207472616e73666572206661696c656400\n        /* \"#utility.yul\":9706:9708   */\n      0x40\n        /* \"#utility.yul\":9691:9709   */\n      dup3\n      add\n        /* \"#utility.yul\":9684:9745   */\n      mstore\n        /* \"#utility.yul\":9777:9779   */\n      0x60\n        /* \"#utility.yul\":9762:9780   */\n      add\n      swap1\n        /* \"#utility.yul\":9605:9786   */\n      jump\t// out\n        /* \"#utility.yul\":9791:10145   */\n    tag_451:\n        /* \"#utility.yul\":9993:9995   */\n      0x20\n        /* \"#utility.yul\":9975:9996   */\n      dup1\n      dup3\n      mstore\n        /* \"#utility.yul\":10032:10034   */\n      0x1e\n        /* \"#utility.yul\":10012:10030   */\n      swap1\n      dup3\n      add\n        /* \"#utility.yul\":10005:10035   */\n      mstore\n        /* \"#utility.yul\":10071:10103   */\n      0x4c6576656c203120726577617264207472616e73666572206661696c65640000\n        /* \"#utility.yul\":10066:10068   */\n      0x40\n        /* \"#utility.yul\":10051:10069   */\n      dup3\n      add\n        /* \"#utility.yul\":10044:10104   */\n      mstore\n        /* \"#utility.yul\":10136:10138   */\n      0x60\n        /* \"#utility.yul\":10121:10139   */\n      add\n      swap1\n        /* \"#utility.yul\":9965:10145   */\n      jump\t// out\n        /* \"#utility.yul\":10150:10506   */\n    tag_557:\n        /* \"#utility.yul\":10352:10354   */\n      0x20\n        /* \"#utility.yul\":10334:10355   */\n      dup1\n      dup3\n      mstore\n        /* \"#utility.yul\":10371:10389   */\n      dup2\n      dup2\n      add\n        /* \"#utility.yul\":10364:10394   */\n      mstore\n        /* \"#utility.yul\":10430:10464   */\n      0x416d6f756e74206d7573742062652067726561746572207468616e207a65726f\n        /* \"#utility.yul\":10425:10427   */\n      0x40\n        /* \"#utility.yul\":10410:10428   */\n      dup3\n      add\n        /* \"#utility.yul\":10403:10465   */\n      mstore\n        /* \"#utility.yul\":10497:10499   */\n      0x60\n        /* \"#utility.yul\":10482:10500   */\n      add\n      swap1\n        /* \"#utility.yul\":10324:10506   */\n      jump\t// out\n        /* \"#utility.yul\":10511:10864   */\n    tag_538:\n        /* \"#utility.yul\":10713:10715   */\n      0x20\n        /* \"#utility.yul\":10695:10716   */\n      dup1\n      dup3\n      mstore\n        /* \"#utility.yul\":10752:10754   */\n      0x1d\n        /* \"#utility.yul\":10732:10750   */\n      swap1\n      dup3\n      add\n        /* \"#utility.yul\":10725:10755   */\n      mstore\n        /* \"#utility.yul\":10791:10822   */\n      0x416d6f756e74206d7573742062652067726561746572207468616e2030000000\n        /* \"#utility.yul\":10786:10788   */\n      0x40\n        /* \"#utility.yul\":10771:10789   */\n      dup3\n      add\n        /* \"#utility.yul\":10764:10823   */\n      mstore\n        /* \"#utility.yul\":10855:10857   */\n      0x60\n        /* \"#utility.yul\":10840:10858   */\n      add\n      swap1\n        /* \"#utility.yul\":10685:10864   */\n      jump\t// out\n        /* \"#utility.yul\":10869:11211   */\n    tag_272:\n        /* \"#utility.yul\":11071:11073   */\n      0x20\n        /* \"#utility.yul\":11053:11074   */\n      dup1\n      dup3\n      mstore\n        /* \"#utility.yul\":11110:11112   */\n      0x12\n        /* \"#utility.yul\":11090:11108   */\n      swap1\n      dup3\n      add\n        /* \"#utility.yul\":11083:11113   */\n      mstore\n      shl(0x72, 0x105b1c9958591e481c9959da5cdd195c9959)\n        /* \"#utility.yul\":11144:11146   */\n      0x40\n        /* \"#utility.yul\":11129:11147   */\n      dup3\n      add\n        /* \"#utility.yul\":11122:11170   */\n      mstore\n        /* \"#utility.yul\":11202:11204   */\n      0x60\n        /* \"#utility.yul\":11187:11205   */\n      add\n      swap1\n        /* \"#utility.yul\":11043:11211   */\n      jump\t// out\n        /* \"#utility.yul\":11216:11568   */\n    tag_494:\n        /* \"#utility.yul\":11418:11420   */\n      0x20\n        /* \"#utility.yul\":11400:11421   */\n      dup1\n      dup3\n      mstore\n        /* \"#utility.yul\":11457:11459   */\n      0x1c\n        /* \"#utility.yul\":11437:11455   */\n      swap1\n      dup3\n      add\n        /* \"#utility.yul\":11430:11460   */\n      mstore\n        /* \"#utility.yul\":11496:11526   */\n      0x4c6576656c20726577617264207472616e73666572206661696c656400000000\n        /* \"#utility.yul\":11491:11493   */\n      0x40\n        /* \"#utility.yul\":11476:11494   */\n      dup3\n      add\n        /* \"#utility.yul\":11469:11527   */\n      mstore\n        /* \"#utility.yul\":11559:11561   */\n      0x60\n        /* \"#utility.yul\":11544:11562   */\n      add\n      swap1\n        /* \"#utility.yul\":11390:11568   */\n      jump\t// out\n        /* \"#utility.yul\":11573:11978   */\n    tag_443:\n        /* \"#utility.yul\":11775:11777   */\n      0x20\n        /* \"#utility.yul\":11757:11778   */\n      dup1\n      dup3\n      mstore\n        /* \"#utility.yul\":11814:11816   */\n      0x29\n        /* \"#utility.yul\":11794:11812   */\n      swap1\n      dup3\n      add\n        /* \"#utility.yul\":11787:11817   */\n      mstore\n        /* \"#utility.yul\":11853:11887   */\n      0x496e73756666696369656e7420636f6e74726163742062616c616e636520666f\n        /* \"#utility.yul\":11848:11850   */\n      0x40\n        /* \"#utility.yul\":11833:11851   */\n      dup3\n      add\n        /* \"#utility.yul\":11826:11888   */\n      mstore\n      shl(0xb8, 0x72206c6576656c2031)\n        /* \"#utility.yul\":11919:11921   */\n      0x60\n        /* \"#utility.yul\":11904:11922   */\n      dup3\n      add\n        /* \"#utility.yul\":11897:11936   */\n      mstore\n        /* \"#utility.yul\":11968:11971   */\n      0x80\n        /* \"#utility.yul\":11953:11972   */\n      add\n      swap1\n        /* \"#utility.yul\":11747:11978   */\n      jump\t// out\n        /* \"#utility.yul\":11983:12387   */\n    tag_397:\n        /* \"#utility.yul\":12185:12187   */\n      0x20\n        /* \"#utility.yul\":12167:12188   */\n      dup1\n      dup3\n      mstore\n        /* \"#utility.yul\":12224:12226   */\n      0x28\n        /* \"#utility.yul\":12204:12222   */\n      swap1\n      dup3\n      add\n        /* \"#utility.yul\":12197:12227   */\n      mstore\n        /* \"#utility.yul\":12263:12297   */\n      0x5265666572726572206d757374207374616b65206265666f726520796f752063\n        /* \"#utility.yul\":12258:12260   */\n      0x40\n        /* \"#utility.yul\":12243:12261   */\n      dup3\n      add\n        /* \"#utility.yul\":12236:12298   */\n      mstore\n      shl(0xc0, 0x616e207374616b65)\n        /* \"#utility.yul\":12329:12331   */\n      0x60\n        /* \"#utility.yul\":12314:12332   */\n      dup3\n      add\n        /* \"#utility.yul\":12307:12345   */\n      mstore\n        /* \"#utility.yul\":12377:12380   */\n      0x80\n        /* \"#utility.yul\":12362:12381   */\n      add\n      swap1\n        /* \"#utility.yul\":12157:12387   */\n      jump\t// out\n        /* \"#utility.yul\":12392:12739   */\n    tag_263:\n        /* \"#utility.yul\":12594:12596   */\n      0x20\n        /* \"#utility.yul\":12576:12597   */\n      dup1\n      dup3\n      mstore\n        /* \"#utility.yul\":12633:12635   */\n      0x17\n        /* \"#utility.yul\":12613:12631   */\n      swap1\n      dup3\n      add\n        /* \"#utility.yul\":12606:12636   */\n      mstore\n        /* \"#utility.yul\":12672:12697   */\n      0x4f6e6c79206f776e65722063616e207769746864726177000000000000000000\n        /* \"#utility.yul\":12667:12669   */\n      0x40\n        /* \"#utility.yul\":12652:12670   */\n      dup3\n      add\n        /* \"#utility.yul\":12645:12698   */\n      mstore\n        /* \"#utility.yul\":12730:12732   */\n      0x60\n        /* \"#utility.yul\":12715:12733   */\n      add\n      swap1\n        /* \"#utility.yul\":12566:12739   */\n      jump\t// out\n        /* \"#utility.yul\":12744:13142   */\n    tag_259:\n        /* \"#utility.yul\":12946:12948   */\n      0x20\n        /* \"#utility.yul\":12928:12949   */\n      dup1\n      dup3\n      mstore\n        /* \"#utility.yul\":12985:12987   */\n      0x22\n        /* \"#utility.yul\":12965:12983   */\n      swap1\n      dup3\n      add\n        /* \"#utility.yul\":12958:12988   */\n      mstore\n        /* \"#utility.yul\":13024:13058   */\n      0x5374616b65206e6f7420666f756e64206f7220616c726561647920636c61696d\n        /* \"#utility.yul\":13019:13021   */\n      0x40\n        /* \"#utility.yul\":13004:13022   */\n      dup3\n      add\n        /* \"#utility.yul\":12997:13059   */\n      mstore\n      shl(0xf2, 0x1959)\n        /* \"#utility.yul\":13090:13092   */\n      0x60\n        /* \"#utility.yul\":13075:13093   */\n      dup3\n      add\n        /* \"#utility.yul\":13068:13100   */\n      mstore\n        /* \"#utility.yul\":13132:13135   */\n      0x80\n        /* \"#utility.yul\":13117:13136   */\n      add\n      swap1\n        /* \"#utility.yul\":12918:13142   */\n      jump\t// out\n        /* \"#utility.yul\":13147:13492   */\n    tag_565:\n        /* \"#utility.yul\":13349:13351   */\n      0x20\n        /* \"#utility.yul\":13331:13352   */\n      dup1\n      dup3\n      mstore\n        /* \"#utility.yul\":13388:13390   */\n      0x15\n        /* \"#utility.yul\":13368:13386   */\n      swap1\n      dup3\n      add\n        /* \"#utility.yul\":13361:13391   */\n      mstore\n      shl(0x5a, 0x151bdad95b881d1c985b9cd9995c8819985a5b1959)\n        /* \"#utility.yul\":13422:13424   */\n      0x40\n        /* \"#utility.yul\":13407:13425   */\n      dup3\n      add\n        /* \"#utility.yul\":13400:13451   */\n      mstore\n        /* \"#utility.yul\":13483:13485   */\n      0x60\n        /* \"#utility.yul\":13468:13486   */\n      add\n      swap1\n        /* \"#utility.yul\":13321:13492   */\n      jump\t// out\n        /* \"#utility.yul\":13497:13845   */\n    tag_393:\n        /* \"#utility.yul\":13699:13701   */\n      0x20\n        /* \"#utility.yul\":13681:13702   */\n      dup1\n      dup3\n      mstore\n        /* \"#utility.yul\":13738:13740   */\n      0x18\n        /* \"#utility.yul\":13718:13736   */\n      swap1\n      dup3\n      add\n        /* \"#utility.yul\":13711:13741   */\n      mstore\n        /* \"#utility.yul\":13777:13803   */\n      0x496e76616c6964207374616b696e67206475726174696f6e0000000000000000\n        /* \"#utility.yul\":13772:13774   */\n      0x40\n        /* \"#utility.yul\":13757:13775   */\n      dup3\n      add\n        /* \"#utility.yul\":13750:13804   */\n      mstore\n        /* \"#utility.yul\":13836:13838   */\n      0x60\n        /* \"#utility.yul\":13821:13839   */\n      add\n      swap1\n        /* \"#utility.yul\":13671:13845   */\n      jump\t// out\n        /* \"#utility.yul\":13850:14199   */\n    tag_554:\n        /* \"#utility.yul\":14052:14054   */\n      0x20\n        /* \"#utility.yul\":14034:14055   */\n      dup1\n      dup3\n      mstore\n        /* \"#utility.yul\":14091:14093   */\n      0x19\n        /* \"#utility.yul\":14071:14089   */\n      swap1\n      dup3\n      add\n        /* \"#utility.yul\":14064:14094   */\n      mstore\n        /* \"#utility.yul\":14130:14157   */\n      0x496e76616c696420726563697069656e74206164647265737300000000000000\n        /* \"#utility.yul\":14125:14127   */\n      0x40\n        /* \"#utility.yul\":14110:14128   */\n      dup3\n      add\n        /* \"#utility.yul\":14103:14158   */\n      mstore\n        /* \"#utility.yul\":14190:14192   */\n      0x60\n        /* \"#utility.yul\":14175:14193   */\n      add\n      swap1\n        /* \"#utility.yul\":14024:14199   */\n      jump\t// out\n        /* \"#utility.yul\":14204:14608   */\n    tag_425:\n        /* \"#utility.yul\":14406:14408   */\n      0x20\n        /* \"#utility.yul\":14388:14409   */\n      dup1\n      dup3\n      mstore\n        /* \"#utility.yul\":14445:14447   */\n      0x28\n        /* \"#utility.yul\":14425:14443   */\n      swap1\n      dup3\n      add\n        /* \"#utility.yul\":14418:14448   */\n      mstore\n        /* \"#utility.yul\":14484:14518   */\n      0x496e73756666696369656e7420636f6e74726163742062616c616e636520666f\n        /* \"#utility.yul\":14479:14481   */\n      0x40\n        /* \"#utility.yul\":14464:14482   */\n      dup3\n      add\n        /* \"#utility.yul\":14457:14519   */\n      mstore\n      shl(0xc2, 0x1c88191a5c9958dd)\n        /* \"#utility.yul\":14550:14552   */\n      0x60\n        /* \"#utility.yul\":14535:14553   */\n      dup3\n      add\n        /* \"#utility.yul\":14528:14566   */\n      mstore\n        /* \"#utility.yul\":14598:14601   */\n      0x80\n        /* \"#utility.yul\":14583:14602   */\n      add\n      swap1\n        /* \"#utility.yul\":14378:14608   */\n      jump\t// out\n        /* \"#utility.yul\":14613:14969   */\n    tag_215:\n        /* \"#utility.yul\":14815:14817   */\n      0x20\n        /* \"#utility.yul\":14797:14818   */\n      dup1\n      dup3\n      mstore\n        /* \"#utility.yul\":14834:14852   */\n      dup2\n      dup2\n      add\n        /* \"#utility.yul\":14827:14857   */\n      mstore\n        /* \"#utility.yul\":14893:14927   */\n      0x5374616b696e6720706572696f64206e6f742079657420636f6d706c65746564\n        /* \"#utility.yul\":14888:14890   */\n      0x40\n        /* \"#utility.yul\":14873:14891   */\n      dup3\n      add\n        /* \"#utility.yul\":14866:14928   */\n      mstore\n        /* \"#utility.yul\":14960:14962   */\n      0x60\n        /* \"#utility.yul\":14945:14963   */\n      add\n      swap1\n        /* \"#utility.yul\":14787:14969   */\n      jump\t// out\n        /* \"#utility.yul\":14974:15318   */\n    tag_249:\n        /* \"#utility.yul\":15176:15178   */\n      0x20\n        /* \"#utility.yul\":15158:15179   */\n      dup1\n      dup3\n      mstore\n        /* \"#utility.yul\":15215:15217   */\n      0x14\n        /* \"#utility.yul\":15195:15213   */\n      swap1\n      dup3\n      add\n        /* \"#utility.yul\":15188:15218   */\n      mstore\n      shl(0x62, 0x1554d115081d1c985b9cd9995c8819985a5b1959)\n        /* \"#utility.yul\":15249:15251   */\n      0x40\n        /* \"#utility.yul\":15234:15252   */\n      dup3\n      add\n        /* \"#utility.yul\":15227:15277   */\n      mstore\n        /* \"#utility.yul\":15309:15311   */\n      0x60\n        /* \"#utility.yul\":15294:15312   */\n      add\n      swap1\n        /* \"#utility.yul\":15148:15318   */\n      jump\t// out\n        /* \"#utility.yul\":15323:15730   */\n    tag_281:\n        /* \"#utility.yul\":15525:15527   */\n      0x20\n        /* \"#utility.yul\":15507:15528   */\n      dup1\n      dup3\n      mstore\n        /* \"#utility.yul\":15564:15566   */\n      0x2b\n        /* \"#utility.yul\":15544:15562   */\n      swap1\n      dup3\n      add\n        /* \"#utility.yul\":15537:15567   */\n      mstore\n        /* \"#utility.yul\":15603:15637   */\n      0x5265666572726572206d757374207374616b65206265666f726520796f752063\n        /* \"#utility.yul\":15598:15600   */\n      0x40\n        /* \"#utility.yul\":15583:15601   */\n      dup3\n      add\n        /* \"#utility.yul\":15576:15638   */\n      mstore\n      shl(0xa9, 0x30b7103932b3b4b9ba32b9)\n        /* \"#utility.yul\":15669:15671   */\n      0x60\n        /* \"#utility.yul\":15654:15672   */\n      dup3\n      add\n        /* \"#utility.yul\":15647:15688   */\n      mstore\n        /* \"#utility.yul\":15720:15723   */\n      0x80\n        /* \"#utility.yul\":15705:15724   */\n      add\n      swap1\n        /* \"#utility.yul\":15497:15730   */\n      jump\t// out\n        /* \"#utility.yul\":15735:16074   */\n    tag_383:\n        /* \"#utility.yul\":15937:15939   */\n      0x20\n        /* \"#utility.yul\":15919:15940   */\n      dup1\n      dup3\n      mstore\n        /* \"#utility.yul\":15976:15978   */\n      0x0f\n        /* \"#utility.yul\":15956:15974   */\n      swap1\n      dup3\n      add\n        /* \"#utility.yul\":15949:15979   */\n      mstore\n      shl(0x8a, 0x14dd185ad9481b9bdd08199bdd5b99)\n        /* \"#utility.yul\":16010:16012   */\n      0x40\n        /* \"#utility.yul\":15995:16013   */\n      dup3\n      add\n        /* \"#utility.yul\":15988:16033   */\n      mstore\n        /* \"#utility.yul\":16065:16067   */\n      0x60\n        /* \"#utility.yul\":16050:16068   */\n      add\n      swap1\n        /* \"#utility.yul\":15909:16074   */\n      jump\t// out\n        /* \"#utility.yul\":16079:16485   */\n    tag_317:\n        /* \"#utility.yul\":16281:16283   */\n      0x20\n        /* \"#utility.yul\":16263:16284   */\n      dup1\n      dup3\n      mstore\n        /* \"#utility.yul\":16320:16322   */\n      0x2a\n        /* \"#utility.yul\":16300:16318   */\n      swap1\n      dup3\n      add\n        /* \"#utility.yul\":16293:16323   */\n      mstore\n        /* \"#utility.yul\":16359:16393   */\n      0x456d657267656e637920636c61696d20616c6c6f776564206f6e6c7920616674\n        /* \"#utility.yul\":16354:16356   */\n      0x40\n        /* \"#utility.yul\":16339:16357   */\n      dup3\n      add\n        /* \"#utility.yul\":16332:16394   */\n      mstore\n      shl(0xb0, 0x65722031302064617973)\n        /* \"#utility.yul\":16425:16427   */\n      0x60\n        /* \"#utility.yul\":16410:16428   */\n      dup3\n      add\n        /* \"#utility.yul\":16403:16443   */\n      mstore\n        /* \"#utility.yul\":16475:16478   */\n      0x80\n        /* \"#utility.yul\":16460:16479   */\n      add\n      swap1\n        /* \"#utility.yul\":16253:16485   */\n      jump\t// out\n        /* \"#utility.yul\":16490:16889   */\n    tag_390:\n        /* \"#utility.yul\":16692:16694   */\n      0x20\n        /* \"#utility.yul\":16674:16695   */\n      dup1\n      dup3\n      mstore\n        /* \"#utility.yul\":16731:16733   */\n      0x23\n        /* \"#utility.yul\":16711:16729   */\n      swap1\n      dup3\n      add\n        /* \"#utility.yul\":16704:16734   */\n      mstore\n        /* \"#utility.yul\":16770:16804   */\n      0x5374616b6520616d6f756e74206d757374206265206772656174657220746861\n        /* \"#utility.yul\":16765:16767   */\n      0x40\n        /* \"#utility.yul\":16750:16768   */\n      dup3\n      add\n        /* \"#utility.yul\":16743:16805   */\n      mstore\n      shl(0xec, 0x06e203)\n        /* \"#utility.yul\":16836:16838   */\n      0x60\n        /* \"#utility.yul\":16821:16839   */\n      dup3\n      add\n        /* \"#utility.yul\":16814:16847   */\n      mstore\n        /* \"#utility.yul\":16879:16882   */\n      0x80\n        /* \"#utility.yul\":16864:16883   */\n      add\n      swap1\n        /* \"#utility.yul\":16664:16889   */\n      jump\t// out\n        /* \"#utility.yul\":16894:17238   */\n    tag_340:\n        /* \"#utility.yul\":17096:17098   */\n      0x20\n        /* \"#utility.yul\":17078:17099   */\n      dup1\n      dup3\n      mstore\n        /* \"#utility.yul\":17135:17137   */\n      0x14\n        /* \"#utility.yul\":17115:17133   */\n      swap1\n      dup3\n      add\n        /* \"#utility.yul\":17108:17138   */\n      mstore\n      shl(0x62, 0x155cd95c881d1c985b9cd9995c8819985a5b1959)\n        /* \"#utility.yul\":17169:17171   */\n      0x40\n        /* \"#utility.yul\":17154:17172   */\n      dup3\n      add\n        /* \"#utility.yul\":17147:17197   */\n      mstore\n        /* \"#utility.yul\":17229:17231   */\n      0x60\n        /* \"#utility.yul\":17214:17232   */\n      add\n      swap1\n        /* \"#utility.yul\":17068:17238   */\n      jump\t// out\n        /* \"#utility.yul\":17243:17592   */\n    tag_348:\n        /* \"#utility.yul\":17445:17447   */\n      0x20\n        /* \"#utility.yul\":17427:17448   */\n      dup1\n      dup3\n      mstore\n        /* \"#utility.yul\":17484:17486   */\n      0x19\n        /* \"#utility.yul\":17464:17482   */\n      swap1\n      dup3\n      add\n        /* \"#utility.yul\":17457:17487   */\n      mstore\n        /* \"#utility.yul\":17523:17550   */\n      0x41646d696e20666565207472616e73666572206661696c656400000000000000\n        /* \"#utility.yul\":17518:17520   */\n      0x40\n        /* \"#utility.yul\":17503:17521   */\n      dup3\n      add\n        /* \"#utility.yul\":17496:17551   */\n      mstore\n        /* \"#utility.yul\":17583:17585   */\n      0x60\n        /* \"#utility.yul\":17568:17586   */\n      add\n      swap1\n        /* \"#utility.yul\":17417:17592   */\n      jump\t// out\n        /* \"#utility.yul\":17597:17950   */\n    tag_237:\n        /* \"#utility.yul\":17799:17801   */\n      0x20\n        /* \"#utility.yul\":17781:17802   */\n      dup1\n      dup3\n      mstore\n        /* \"#utility.yul\":17838:17840   */\n      0x1d\n        /* \"#utility.yul\":17818:17836   */\n      swap1\n      dup3\n      add\n        /* \"#utility.yul\":17811:17841   */\n      mstore\n        /* \"#utility.yul\":17877:17908   */\n      0x496e73756666696369656e7420636f6e74726163742062616c616e6365000000\n        /* \"#utility.yul\":17872:17874   */\n      0x40\n        /* \"#utility.yul\":17857:17875   */\n      dup3\n      add\n        /* \"#utility.yul\":17850:17909   */\n      mstore\n        /* \"#utility.yul\":17941:17943   */\n      0x60\n        /* \"#utility.yul\":17926:17944   */\n      add\n      swap1\n        /* \"#utility.yul\":17771:17950   */\n      jump\t// out\n        /* \"#utility.yul\":17955:18303   */\n    tag_287:\n        /* \"#utility.yul\":18157:18159   */\n      0x20\n        /* \"#utility.yul\":18139:18160   */\n      dup1\n      dup3\n      mstore\n        /* \"#utility.yul\":18196:18198   */\n      0x18\n        /* \"#utility.yul\":18176:18194   */\n      swap1\n      dup3\n      add\n        /* \"#utility.yul\":18169:18199   */\n      mstore\n        /* \"#utility.yul\":18235:18261   */\n      0x4f6e6c79206f776e65722063616e2063616c6c20746869730000000000000000\n        /* \"#utility.yul\":18230:18232   */\n      0x40\n        /* \"#utility.yul\":18215:18233   */\n      dup3\n      add\n        /* \"#utility.yul\":18208:18262   */\n      mstore\n        /* \"#utility.yul\":18294:18296   */\n      0x60\n        /* \"#utility.yul\":18279:18297   */\n      add\n      swap1\n        /* \"#utility.yul\":18129:18303   */\n      jump\t// out\n        /* \"#utility.yul\":18308:18648   */\n    tag_291:\n        /* \"#utility.yul\":18510:18512   */\n      0x20\n        /* \"#utility.yul\":18492:18513   */\n      dup1\n      dup3\n      mstore\n        /* \"#utility.yul\":18549:18551   */\n      0x10\n        /* \"#utility.yul\":18529:18547   */\n      swap1\n      dup3\n      add\n        /* \"#utility.yul\":18522:18552   */\n      mstore\n      shl(0x84, 0x044617973206d757374206265203e203)\n        /* \"#utility.yul\":18583:18585   */\n      0x40\n        /* \"#utility.yul\":18568:18586   */\n      dup3\n      add\n        /* \"#utility.yul\":18561:18607   */\n      mstore\n        /* \"#utility.yul\":18639:18641   */\n      0x60\n        /* \"#utility.yul\":18624:18642   */\n      add\n      swap1\n        /* \"#utility.yul\":18482:18648   */\n      jump\t// out\n        /* \"#utility.yul\":18653:18995   */\n    tag_365:\n        /* \"#utility.yul\":18855:18857   */\n      0x20\n        /* \"#utility.yul\":18837:18858   */\n      dup1\n      dup3\n      mstore\n        /* \"#utility.yul\":18894:18896   */\n      0x12\n        /* \"#utility.yul\":18874:18892   */\n      swap1\n      dup3\n      add\n        /* \"#utility.yul\":18867:18897   */\n      mstore\n      shl(0x72, 0x125b9d985b1a59081c1bdcda5d1a5bdb9259)\n        /* \"#utility.yul\":18928:18930   */\n      0x40\n        /* \"#utility.yul\":18913:18931   */\n      dup3\n      add\n        /* \"#utility.yul\":18906:18954   */\n      mstore\n        /* \"#utility.yul\":18986:18988   */\n      0x60\n        /* \"#utility.yul\":18971:18989   */\n      add\n      swap1\n        /* \"#utility.yul\":18827:18995   */\n      jump\t// out\n        /* \"#utility.yul\":19000:19177   */\n    tag_82:\n        /* \"#utility.yul\":19146:19171   */\n      swap1\n      dup2\n      mstore\n        /* \"#utility.yul\":19134:19136   */\n      0x20\n        /* \"#utility.yul\":19119:19137   */\n      add\n      swap1\n        /* \"#utility.yul\":19101:19177   */\n      jump\t// out\n        /* \"#utility.yul\":19182:19430   */\n    tag_141:\n        /* \"#utility.yul\":19356:19381   */\n      swap2\n      dup3\n      mstore\n        /* \"#utility.yul\":19412:19414   */\n      0x20\n        /* \"#utility.yul\":19397:19415   */\n      dup3\n      add\n        /* \"#utility.yul\":19390:19424   */\n      mstore\n        /* \"#utility.yul\":19344:19346   */\n      0x40\n        /* \"#utility.yul\":19329:19347   */\n      add\n      swap1\n        /* \"#utility.yul\":19311:19430   */\n      jump\t// out\n        /* \"#utility.yul\":19435:19762   */\n    tag_352:\n        /* \"#utility.yul\":19645:19670   */\n      swap3\n      dup4\n      mstore\n        /* \"#utility.yul\":19701:19703   */\n      0x20\n        /* \"#utility.yul\":19686:19704   */\n      dup4\n      add\n        /* \"#utility.yul\":19679:19713   */\n      swap2\n      swap1\n      swap2\n      mstore\n        /* \"#utility.yul\":19744:19746   */\n      0x40\n        /* \"#utility.yul\":19729:19747   */\n      dup3\n      add\n        /* \"#utility.yul\":19722:19756   */\n      mstore\n        /* \"#utility.yul\":19633:19635   */\n      0x60\n        /* \"#utility.yul\":19618:19636   */\n      add\n      swap1\n        /* \"#utility.yul\":19600:19762   */\n      jump\t// out\n        /* \"#utility.yul\":20091:20275   */\n    tag_59:\n        /* \"#utility.yul\":20263:20267   */\n      0xff\n        /* \"#utility.yul\":20251:20268   */\n      swap2\n      swap1\n      swap2\n      and\n        /* \"#utility.yul\":20233:20269   */\n      dup2\n      mstore\n        /* \"#utility.yul\":20221:20223   */\n      0x20\n        /* \"#utility.yul\":20206:20224   */\n      add\n      swap1\n        /* \"#utility.yul\":20188:20275   */\n      jump\t// out\n        /* \"#utility.yul\":20280:20408   */\n    tag_212:\n      0x00\n        /* \"#utility.yul\":20351:20352   */\n      dup3\n        /* \"#utility.yul\":20347:20353   */\n      not\n        /* \"#utility.yul\":20344:20345   */\n      dup3\n        /* \"#utility.yul\":20341:20354   */\n      gt\n        /* \"#utility.yul\":20338:20340   */\n      iszero\n      tag_717\n      jumpi\n        /* \"#utility.yul\":20357:20375   */\n      tag_717\n      tag_718\n      jump\t// in\n    tag_717:\n      pop\n        /* \"#utility.yul\":20393:20402   */\n      add\n      swap1\n        /* \"#utility.yul\":20328:20408   */\n      jump\t// out\n        /* \"#utility.yul\":20413:20617   */\n    tag_612:\n      0x00\n        /* \"#utility.yul\":20487:20491   */\n      0xff\n        /* \"#utility.yul\":20484:20485   */\n      dup3\n        /* \"#utility.yul\":20480:20492   */\n      and\n        /* \"#utility.yul\":20519:20523   */\n      0xff\n        /* \"#utility.yul\":20516:20517   */\n      dup5\n        /* \"#utility.yul\":20512:20524   */\n      and\n        /* \"#utility.yul\":20554:20557   */\n      dup1\n        /* \"#utility.yul\":20548:20552   */\n      0xff\n        /* \"#utility.yul\":20544:20558   */\n      sub\n        /* \"#utility.yul\":20539:20542   */\n      dup3\n        /* \"#utility.yul\":20536:20559   */\n      gt\n        /* \"#utility.yul\":20533:20535   */\n      iszero\n      tag_721\n      jumpi\n        /* \"#utility.yul\":20562:20580   */\n      tag_721\n      tag_718\n      jump\t// in\n    tag_721:\n        /* \"#utility.yul\":20598:20611   */\n      add\n      swap4\n        /* \"#utility.yul\":20459:20617   */\n      swap3\n      pop\n      pop\n      pop\n      jump\t// out\n        /* \"#utility.yul\":20622:20839   */\n    tag_225:\n      0x00\n        /* \"#utility.yul\":20688:20689   */\n      dup3\n        /* \"#utility.yul\":20678:20680   */\n      tag_723\n      jumpi\n      shl(0xe0, 0x4e487b71)\n        /* \"#utility.yul\":20713:20744   */\n      dup2\n      mstore\n        /* \"#utility.yul\":20767:20771   */\n      0x12\n        /* \"#utility.yul\":20764:20765   */\n      0x04\n        /* \"#utility.yul\":20757:20772   */\n      mstore\n        /* \"#utility.yul\":20795:20799   */\n      0x24\n        /* \"#utility.yul\":20720:20721   */\n      dup2\n        /* \"#utility.yul\":20785:20800   */\n      revert\n        /* \"#utility.yul\":20678:20680   */\n    tag_723:\n      pop\n        /* \"#utility.yul\":20824:20833   */\n      div\n      swap1\n        /* \"#utility.yul\":20668:20839   */\n      jump\t// out\n        /* \"#utility.yul\":20844:21012   */\n    tag_208:\n      0x00\n        /* \"#utility.yul\":20950:20951   */\n      dup2\n        /* \"#utility.yul\":20946:20947   */\n      0x00\n        /* \"#utility.yul\":20942:20948   */\n      not\n        /* \"#utility.yul\":20938:20952   */\n      div\n        /* \"#utility.yul\":20935:20936   */\n      dup4\n        /* \"#utility.yul\":20932:20953   */\n      gt\n        /* \"#utility.yul\":20927:20928   */\n      dup3\n        /* \"#utility.yul\":20920:20929   */\n      iszero\n        /* \"#utility.yul\":20913:20930   */\n      iszero\n        /* \"#utility.yul\":20909:20954   */\n      and\n        /* \"#utility.yul\":20906:20908   */\n      iszero\n      tag_726\n      jumpi\n        /* \"#utility.yul\":20957:20975   */\n      tag_726\n      tag_718\n      jump\t// in\n    tag_726:\n      pop\n        /* \"#utility.yul\":20997:21006   */\n      mul\n      swap1\n        /* \"#utility.yul\":20896:21012   */\n      jump\t// out\n        /* \"#utility.yul\":21017:21142   */\n    tag_323:\n      0x00\n        /* \"#utility.yul\":21085:21086   */\n      dup3\n        /* \"#utility.yul\":21082:21083   */\n      dup3\n        /* \"#utility.yul\":21079:21087   */\n      lt\n        /* \"#utility.yul\":21076:21078   */\n      iszero\n      tag_729\n      jumpi\n        /* \"#utility.yul\":21090:21108   */\n      tag_729\n      tag_718\n      jump\t// in\n    tag_729:\n      pop\n        /* \"#utility.yul\":21127:21136   */\n      sub\n      swap1\n        /* \"#utility.yul\":21066:21142   */\n      jump\t// out\n        /* \"#utility.yul\":21147:21282   */\n    tag_190:\n      0x00\n      not(0x00)\n        /* \"#utility.yul\":21207:21224   */\n      dup3\n      eq\n        /* \"#utility.yul\":21204:21206   */\n      iszero\n      tag_732\n      jumpi\n        /* \"#utility.yul\":21227:21245   */\n      tag_732\n      tag_718\n      jump\t// in\n    tag_732:\n      pop\n        /* \"#utility.yul\":21274:21275   */\n      0x01\n        /* \"#utility.yul\":21263:21276   */\n      add\n      swap1\n        /* \"#utility.yul\":21194:21282   */\n      jump\t// out\n        /* \"#utility.yul\":21287:21462   */\n    tag_509:\n      0x00\n        /* \"#utility.yul\":21368:21372   */\n      0xff\n        /* \"#utility.yul\":21361:21366   */\n      dup3\n        /* \"#utility.yul\":21357:21373   */\n      and\n        /* \"#utility.yul\":21397:21401   */\n      0xff\n        /* \"#utility.yul\":21388:21395   */\n      dup2\n        /* \"#utility.yul\":21385:21402   */\n      eq\n        /* \"#utility.yul\":21382:21384   */\n      iszero\n      tag_735\n      jumpi\n        /* \"#utility.yul\":21405:21423   */\n      tag_735\n      tag_718\n      jump\t// in\n    tag_735:\n        /* \"#utility.yul\":21454:21455   */\n      0x01\n        /* \"#utility.yul\":21441:21456   */\n      add\n      swap3\n        /* \"#utility.yul\":21332:21462   */\n      swap2\n      pop\n      pop\n      jump\t// out\n        /* \"#utility.yul\":21467:21594   */\n    tag_718:\n        /* \"#utility.yul\":21528:21538   */\n      0x4e487b71\n        /* \"#utility.yul\":21523:21526   */\n      0xe0\n        /* \"#utility.yul\":21519:21539   */\n      shl\n        /* \"#utility.yul\":21516:21517   */\n      0x00\n        /* \"#utility.yul\":21509:21540   */\n      mstore\n        /* \"#utility.yul\":21559:21563   */\n      0x11\n        /* \"#utility.yul\":21556:21557   */\n      0x04\n        /* \"#utility.yul\":21549:21564   */\n      mstore\n        /* \"#utility.yul\":21583:21587   */\n      0x24\n        /* \"#utility.yul\":21580:21581   */\n      0x00\n        /* \"#utility.yul\":21573:21588   */\n      revert\n        /* \"#utility.yul\":21599:21726   */\n    tag_641:\n        /* \"#utility.yul\":21660:21670   */\n      0x4e487b71\n        /* \"#utility.yul\":21655:21658   */\n      0xe0\n        /* \"#utility.yul\":21651:21671   */\n      shl\n        /* \"#utility.yul\":21648:21649   */\n      0x00\n        /* \"#utility.yul\":21641:21672   */\n      mstore\n        /* \"#utility.yul\":21691:21695   */\n      0x41\n        /* \"#utility.yul\":21688:21689   */\n      0x04\n        /* \"#utility.yul\":21681:21696   */\n      mstore\n        /* \"#utility.yul\":21715:21719   */\n      0x24\n        /* \"#utility.yul\":21712:21713   */\n      0x00\n        /* \"#utility.yul\":21705:21720   */\n      revert\n\n    auxdata: 0xa26469706673582212201aef4beb5884c496a14ae026a7952b3d6e8508963fde82035faf129edcb4e17764736f6c63430008000033\n}\n",
				"bytecode": {
					"linkReferences": {},
					"object": "61012060405260056080818152600360a052600260c052600160e08190526101005262000030916009919062000199565b503480156200003e57600080fd5b5060405162003a9938038062003a9983398101604081905262000061916200024a565b60008054336001600160a01b031991821617808355600280549092166001600160a01b0394851617825592909216815260036020908152604082206004908101805460ff191660019081179091556006928390527fb6ba906ff52451a7a924e2eaeb8aea3ebee7350a8703e5e417edb25358c7dcc1557f6ca6dcafc04b6e03616746c3528366f990e332021e35d59275be746d65cae0a7939093557f1727c0104c2870c3003671480695f7dab262614528b49265008e76fd3d48c5fe929092557f5451fe6494362676ddb91456d9957c85d968e6f82956407c931a14c023049e6a9190915560097ffb78eb295a86b096b5f095822bd250a277112be4103ea4a7608d96eca726b2c15561016d905260147f0bbf8adea84d189c39869a372ab30aeba9246eea044edc5a37ac100921b2c4e1556200027a565b600183019183908215620002215791602002820160005b83821115620001f057835183826101000a81548160ff021916908360ff1602179055509260200192600101602081600001049283019260010302620001b0565b80156200021f5782816101000a81549060ff0219169055600101602081600001049283019260010302620001f0565b505b506200022f92915062000233565b5090565b5b808211156200022f576000815560010162000234565b6000602082840312156200025c578081fd5b81516001600160a01b038116811462000273578182fd5b9392505050565b61380f806200028a6000396000f3fe608060405234801561001057600080fd5b50600436106101f05760003560e01c806398278efb1161010f578063c2d3c677116100a2578063e45a57d011610071578063e45a57d014610466578063ef71ae5614610479578063f6e8887314610499578063f7b17d10146104ac576101f0565b8063c2d3c67714610420578063c3c5a54714610433578063c5b89c0a146102ce578063d85c896614610453576101f0565b8063a87430ba116100de578063a87430ba146103c1578063a98ad46c146103e4578063aa7ed462146103ec578063bd297178146103ff576101f0565b806398278efb146103715780639be572f6146103845780639d747bad1461038c578063a2bdedf4146103ae576101f0565b80635bd4e16a11610187578063797c7f5f11610156578063797c7f5f1461031c5780637b0472f014610343578063875bb4e2146103565780638da5cb5b14610369576101f0565b80635bd4e16a146102ce578063656596a5146102ee5780636c8c2156146103015780636f9fb98a14610314576101f0565b8063379607f5116101c3578063379607f5146102805780633ea521ef146102955780634420e486146102a85780634850d2a2146102bb576101f0565b806305ad3935146101f55780631e43eb271461022057806321923bde1461024057806328fe703114610260575b600080fd5b610208610203366004612cf5565b6104b4565b60405161021793929190612eab565b60405180910390f35b61023361022e366004612dcf565b610500565b6040516102179190612e5a565b61025361024e366004612cd4565b61051b565b60405161021791906136d1565b61027361026e366004612cd4565b610575565b604051610217919061303f565b61029361028e366004612dcf565b610684565b005b6102936102a3366004612dcf565b610b7b565b6102936102b6366004612cd4565b610c31565b6102936102c9366004612dff565b610dd0565b6102e16102dc366004612cd4565b610e2c565b60405161021791906136a4565b6102936102fc366004612d1e565b610e4b565b61029361030f366004612dcf565b610e82565b6102e16112dc565b61032f61032a366004612dcf565b611362565b604051610217989796959493929190612ef4565b610293610351366004612dff565b6115a7565b6102e1610364366004612dcf565b61217b565b61023361218d565b6102e161037f366004612cd4565b61219c565b6102e16121b7565b61039f61039a366004612cd4565b6121bd565b60405161021793929190612f37565b6102336103bc366004612dcf565b612439565b6103d46103cf366004612cd4565b612463565b6040516102179493929190612ecc565b610233612499565b6102e16103fa366004612cd4565b6124a8565b61041261040d366004612dff565b6124c3565b6040516102179291906136ad565b6102e161042e366004612cd4565b612558565b610446610441366004612cd4565b612576565b6040516102179190613052565b610293610461366004612cf5565b612597565b610253610474366004612dcf565b6126b0565b61048c610487366004612cd4565b6126da565b6040516102179190612fac565b6102e16104a7366004612cd4565b612bab565b6102e1612bbd565b600460205281600052604060002081815481106104d057600080fd5b60009182526020909120600390910201805460018201546002909201546001600160a01b03909116935090915083565b6005602052600090815260409020546001600160a01b031681565b6001600160a01b038116600090815260046020526040812054600a8110610546576003915050610570565b60058110610558576002915050610570565b6001811061056a576001915050610570565b60009150505b919050565b6001600160a01b0381166000908152600360205260408120600101546060918167ffffffffffffffff8111156105bb57634e487b7160e01b600052604160045260246000fd5b6040519080825280602002602001820160405280156105e4578160200160208202803683370190505b50905060005b8281101561067c576001600160a01b038516600090815260036020526040902060010180548290811061062d57634e487b7160e01b600052603260045260246000fd5b90600052602060002090600602016001015482828151811061065f57634e487b7160e01b600052603260045260246000fd5b60209081029190910101528061067481613772565b9150506105ea565b509392505050565b3360009081526003602052604090206004015460ff166106bf5760405162461bcd60e51b81526004016106b690613094565b60405180910390fd5b336000818152600360205260408120906001820190805b8254811015610b56578583828154811061070057634e487b7160e01b600052603260045260246000fd5b906000526020600020906006020160010154148015610753575082818154811061073a57634e487b7160e01b600052603260045260246000fd5b600091825260209091206005600690920201015460ff16155b15610b445782818154811061077857634e487b7160e01b600052603260045260246000fd5b90600052602060002090600602016004015462015180610798919061373c565b8382815481106107b857634e487b7160e01b600052603260045260246000fd5b9060005260206000209060060201600301546107d491906136df565b4210156107f35760405162461bcd60e51b81526004016106b690613417565b60006006600085848154811061081957634e487b7160e01b600052603260045260246000fd5b90600052602060002090600602016004015481526020019081526020016000205490506000618e9485848154811061086157634e487b7160e01b600052603260045260246000fd5b9060005260206000209060060201600401548387868154811061089457634e487b7160e01b600052603260045260246000fd5b9060005260206000209060060201600201546108b0919061373c565b6108ba919061373c565b6108c4919061371c565b90506000818685815481106108e957634e487b7160e01b600052603260045260246000fd5b90600052602060002090600602016002015461090591906136df565b6002546040516370a0823160e01b815291925082916001600160a01b03909116906370a082319061093a903090600401612e5a565b60206040518083038186803b15801561095257600080fd5b505afa158015610966573d6000803e3d6000fd5b505050506040513d601f19601f8201168201806040525081019061098a9190612de7565b10156109a85760405162461bcd60e51b81526004016106b6906135e0565b60018685815481106109ca57634e487b7160e01b600052603260045260246000fd5b60009182526020822060069190910201600501805460ff19169215159290921790915560025460405163a9059cbb60e01b81526001600160a01b039091169063a9059cbb90610a1f908c908690600401612e92565b602060405180830381600087803b158015610a3957600080fd5b505af1158015610a4d573d6000803e3d6000fd5b505050506040513d601f19601f82011682018060405250810190610a719190612daf565b905080610a905760405162461bcd60e51b81526004016106b69061344c565b886001600160a01b03167f9cdcf2f7714cca3508c7f0110b04a90a80a3a8dd0e35de99689db74d28c5383e888781548110610adb57634e487b7160e01b600052603260045260246000fd5b906000526020600020906006020160000154898881548110610b0d57634e487b7160e01b600052603260045260246000fd5b90600052602060002090600602016002015486604051610b2f939291906136bb565b60405180910390a26001955050505050610b56565b80610b4e81613772565b9150506106d6565b5080610b745760405162461bcd60e51b81526004016106b6906132f0565b5050505050565b6000546001600160a01b03163314610ba55760405162461bcd60e51b81526004016106b6906132b9565b60025460005460405163a9059cbb60e01b81526001600160a01b039283169263a9059cbb92610bdb929116908590600401612e92565b602060405180830381600087803b158015610bf557600080fd5b505af1158015610c09573d6000803e3d6000fd5b505050506040513d601f19601f82011682018060405250810190610c2d9190612daf565b5050565b3360009081526003602052604090206004015460ff1615610c645760405162461bcd60e51b81526004016106b6906131c5565b6001600160a01b038116331415610c8d5760405162461bcd60e51b81526004016106b6906130bc565b6001600160a01b03811660009081526003602052604090206004015460ff16610cc85760405162461bcd60e51b81526004016106b69061305d565b6001600160a01b038116600090815260036020526040902060010154610d005760405162461bcd60e51b81526004016106b69061347a565b33600081815260036020818152604080842080546001600160a01b039788166001600160a01b0319918216811783556004928301805460ff19166001908117909155600880548083019091557ff3f7a9fe364faab93b216da50a3214154f22a0a2b415b23a84c8169e8b636ee301805484168a17905590875291845282862083516060810185529788528785018781524294890194855281548085018355918852949096209651959094029095018054949096169390921692909217845590519183019190915551600290910155565b6000546001600160a01b03163314610dfa5760405162461bcd60e51b81526004016106b690613617565b60008211610e1a5760405162461bcd60e51b81526004016106b69061364e565b60009182526006602052604090912055565b6001600160a01b03166000908152600360208190526040909120015490565b6000546001600160a01b03163314610e755760405162461bcd60e51b81526004016106b690613617565b610c2d6009826005612bc3565b3360009081526003602052604090206004015460ff16610eb45760405162461bcd60e51b81526004016106b690613094565b336000818152600360205260408120906001820190805b8254811015610b565785838281548110610ef557634e487b7160e01b600052603260045260246000fd5b906000526020600020906006020160010154148015610f485750828181548110610f2f57634e487b7160e01b600052603260045260246000fd5b600091825260209091206005600690920201015460ff16155b156112ca57828181548110610f6d57634e487b7160e01b600052603260045260246000fd5b906000526020600020906006020160030154620d2f00610f8d91906136df565b421015610fac5760405162461bcd60e51b81526004016106b6906134ee565b6000838281548110610fce57634e487b7160e01b600052603260045260246000fd5b6000918252602082206002600690920201015491506064610ff083600561373c565b610ffa919061371c565b90506000611008828461375b565b6002546040516370a0823160e01b815291925084916001600160a01b03909116906370a082319061103d903090600401612e5a565b60206040518083038186803b15801561105557600080fd5b505afa158015611069573d6000803e3d6000fd5b505050506040513d601f19601f8201168201806040525081019061108d9190612de7565b10156110ab5760405162461bcd60e51b81526004016106b6906135e0565b60018685815481106110cd57634e487b7160e01b600052603260045260246000fd5b60009182526020822060069190910201600501805460ff19169215159290921790915560025460405163a9059cbb60e01b81526001600160a01b039091169063a9059cbb90611122908c908690600401612e92565b602060405180830381600087803b15801561113c57600080fd5b505af1158015611150573d6000803e3d6000fd5b505050506040513d601f19601f820116820180604052508101906111749190612daf565b9050806111935760405162461bcd60e51b81526004016106b69061357b565b60025460405163a9059cbb60e01b81526000916001600160a01b03169063a9059cbb906111da90739ab49a6105a768ed88b8afd9cca7f6886f739aad908890600401612e92565b602060405180830381600087803b1580156111f457600080fd5b505af1158015611208573d6000803e3d6000fd5b505050506040513d601f19601f8201168201806040525081019061122c9190612daf565b90508061124b5760405162461bcd60e51b81526004016106b6906135a9565b896001600160a01b03167f9cdcf2f7714cca3508c7f0110b04a90a80a3a8dd0e35de99689db74d28c5383e89888154811061129657634e487b7160e01b600052603260045260246000fd5b600091825260208220600690910201546040516112b49288916136bb565b60405180910390a2600196505050505050610b56565b806112d481613772565b915050610ecb565b6002546040516370a0823160e01b81526000916001600160a01b0316906370a082319061130d903090600401612e5a565b60206040518083038186803b15801561132557600080fd5b505afa158015611339573d6000803e3d6000fd5b505050506040513d601f19601f8201168201806040525081019061135d9190612de7565b905090565b60008181526005602052604081205481908190819081908190819081906001600160a01b0316806113a55760405162461bcd60e51b81526004016106b690613678565b6001600160a01b038116600090815260036020908152604080832060010180548251818502810185019093528083529192909190849084015b8282101561144b5760008481526020908190206040805160c08101825260068602909201805483526001808201548486015260028201549284019290925260038101546060840152600481015460808401526005015460ff16151560a083015290835290920191016113de565b50505050905060005b8151811015611583578b82828151811061147e57634e487b7160e01b600052603260045260246000fd5b60200260200101516020015114156115715760008282815181106114b257634e487b7160e01b600052603260045260246000fd5b602002602001015190506000600660008360800151815260200190815260200160002054905060008260800151620151806114ed919061373c565b83606001516114fc91906136df565b905060008360a0015115801561151157508142105b9050600061016d606485876040015161152a919061373c565b611534919061371c565b61153e919061371c565b905087856000015186604001518760600151868886889f509f509f509f509f509f509f509f50505050505050505061159c565b8061157b81613772565b915050611454565b5060405162461bcd60e51b81526004016106b6906134c5565b919395975091939597565b3360009081526003602052604090206004015460ff166115d95760405162461bcd60e51b81526004016106b690613094565b600081116115f95760405162461bcd60e51b81526004016106b690613538565b6000828152600660205260409020546116245760405162461bcd60e51b81526004016106b690613361565b336000908152600360205260409020546001600160a01b0316801561167b576001600160a01b03811660009081526003602052604090206001015461167b5760405162461bcd60e51b81526004016106b690613271565b6002546040516323b872dd60e01b81526000916001600160a01b0316906323b872dd906116b090339030908890600401612e6e565b602060405180830381600087803b1580156116ca57600080fd5b505af11580156116de573d6000803e3d6000fd5b505050506040513d601f19601f820116820180604052508101906117029190612daf565b9050806117215760405162461bcd60e51b81526004016106b69061344c565b600060016000815461173290613772565b919050819055905060036000336001600160a01b03166001600160a01b031681526020019081526020016000206001016040518060c001604052806001548152602001838152602001868152602001428152602001878152602001600015158152509080600181540180825580915050600190039060005260206000209060060201600090919091909150600082015181600001556020820151816001015560408201518160020155606082015181600301556080820151816004015560a08201518160050160006101000a81548160ff0219169083151502179055505050336005600083815260200190815260200160002060006101000a8154816001600160a01b0302191690836001600160a01b03160217905550600060036000336001600160a01b03166001600160a01b03168152602001908152602001600020600101805490506001149050600060036000336001600160a01b03166001600160a01b0316815260200190815260200160002060000160009054906101000a90046001600160a01b0316905060005b60058160ff161080156118da57506001600160a01b03821615155b1561217157600060ff8216611e72578315611c7557600060646118fe8a600561373c565b611908919061371c565b9050600060646119198b600561373c565b611923919061371c565b6002546040516370a0823160e01b815291925083916001600160a01b03909116906370a0823190611958903090600401612e5a565b60206040518083038186803b15801561197057600080fd5b505afa158015611984573d6000803e3d6000fd5b505050506040513d601f19601f820116820180604052508101906119a89190612de7565b10156119c65760405162461bcd60e51b81526004016106b6906133cf565b60025460405163a9059cbb60e01b81526000916001600160a01b03169063a9059cbb906119f99089908790600401612e92565b602060405180830381600087803b158015611a1357600080fd5b505af1158015611a27573d6000803e3d6000fd5b505050506040513d601f19601f82011682018060405250810190611a4b9190612daf565b905080611a6a5760405162461bcd60e51b81526004016106b6906130eb565b6001600160a01b03861660009081526007602052604081208054859290611a929084906136df565b90915550506001600160a01b03861660009081526003602052604081206002018054859290611ac29084906136df565b90915550506002546040516370a0823160e01b815283916001600160a01b0316906370a0823190611af7903090600401612e5a565b60206040518083038186803b158015611b0f57600080fd5b505afa158015611b23573d6000803e3d6000fd5b505050506040513d601f19601f82011682018060405250810190611b479190612de7565b1015611b655760405162461bcd60e51b81526004016106b690613228565b60025460405163a9059cbb60e01b81526000916001600160a01b03169063a9059cbb90611b98908a908790600401612e92565b602060405180830381600087803b158015611bb257600080fd5b505af1158015611bc6573d6000803e3d6000fd5b505050506040513d601f19601f82011682018060405250810190611bea9190612daf565b905080611c095760405162461bcd60e51b81526004016106b690613122565b6001600160a01b03871660009081526003602052604081206002018054859290611c349084906136df565b90915550506001600160a01b03871660009081526003602081905260408220018054859290611c649084906136df565b90915550929450611e6d9350505050565b606460098360ff1660058110611c9b57634e487b7160e01b600052603260045260246000fd5b602081049190910154611cba91601f166101000a900460ff168a61373c565b611cc4919061371c565b6002546040516370a0823160e01b815291925082916001600160a01b03909116906370a0823190611cf9903090600401612e5a565b60206040518083038186803b158015611d1157600080fd5b505afa158015611d25573d6000803e3d6000fd5b505050506040513d601f19601f82011682018060405250810190611d499190612de7565b1015611d675760405162461bcd60e51b81526004016106b6906135e0565b60025460405163a9059cbb60e01b81526000916001600160a01b03169063a9059cbb90611d9a9087908690600401612e92565b602060405180830381600087803b158015611db457600080fd5b505af1158015611dc8573d6000803e3d6000fd5b505050506040513d601f19601f82011682018060405250810190611dec9190612daf565b905080611e0b5760405162461bcd60e51b81526004016106b690613122565b6001600160a01b03841660009081526003602052604081206002018054849290611e369084906136df565b90915550506001600160a01b03841660009081526003602081905260408220018054849290611e669084906136df565b9091555050505b61206a565b606460098360ff1660058110611e9857634e487b7160e01b600052603260045260246000fd5b602081049190910154611eb791601f166101000a900460ff168a61373c565b611ec1919061371c565b6002546040516370a0823160e01b815291925082916001600160a01b03909116906370a0823190611ef6903090600401612e5a565b60206040518083038186803b158015611f0e57600080fd5b505afa158015611f22573d6000803e3d6000fd5b505050506040513d601f19601f82011682018060405250810190611f469190612de7565b1015611f645760405162461bcd60e51b81526004016106b6906135e0565b60025460405163a9059cbb60e01b81526000916001600160a01b03169063a9059cbb90611f979087908690600401612e92565b602060405180830381600087803b158015611fb157600080fd5b505af1158015611fc5573d6000803e3d6000fd5b505050506040513d601f19601f82011682018060405250810190611fe99190612daf565b9050806120085760405162461bcd60e51b81526004016106b6906131f1565b6001600160a01b038416600090815260036020526040812060020180548492906120339084906136df565b90915550506001600160a01b038416600090815260036020819052604082200180548492906120639084906136df565b9091555050505b60ff8216612140576001600160a01b0383166000908152600460205260408120905b815481101561213d57336001600160a01b03168282815481106120bf57634e487b7160e01b600052603260045260246000fd5b60009182526020909120600390910201546001600160a01b0316141561212b578282828154811061210057634e487b7160e01b600052603260045260246000fd5b9060005260206000209060030201600101600082825461212091906136df565b9091555061213d9050565b8061213581613772565b91505061208c565b50505b506001600160a01b0391821660009081526003602052604090205490911690806121698161378d565b9150506118bf565b5050505050505050565b60066020526000908152604090205481565b6000546001600160a01b031681565b6001600160a01b031660009081526004602052604090205490565b60085490565b6001600160a01b0381166000908152600460205260409020805460609182918291908067ffffffffffffffff81111561220657634e487b7160e01b600052604160045260246000fd5b60405190808252806020026020018201604052801561222f578160200160208202803683370190505b5094508067ffffffffffffffff81111561225957634e487b7160e01b600052604160045260246000fd5b604051908082528060200260200182016040528015612282578160200160208202803683370190505b5093508067ffffffffffffffff8111156122ac57634e487b7160e01b600052604160045260246000fd5b6040519080825280602002602001820160405280156122d5578160200160208202803683370190505b50925060005b8181101561242f5782818154811061230357634e487b7160e01b600052603260045260246000fd5b600091825260209091206003909102015486516001600160a01b039091169087908390811061234257634e487b7160e01b600052603260045260246000fd5b60200260200101906001600160a01b031690816001600160a01b03168152505082818154811061238257634e487b7160e01b600052603260045260246000fd5b9060005260206000209060030201600101548582815181106123b457634e487b7160e01b600052603260045260246000fd5b6020026020010181815250508281815481106123e057634e487b7160e01b600052603260045260246000fd5b90600052602060002090600302016002015484828151811061241257634e487b7160e01b600052603260045260246000fd5b60209081029190910101528061242781613772565b9150506122db565b5050509193909250565b6008818154811061244957600080fd5b6000918252602090912001546001600160a01b0316905081565b600360208190526000918252604090912080546002820154928201546004909201546001600160a01b0390911692919060ff1684565b6002546001600160a01b031681565b6001600160a01b031660009081526007602052604090205490565b600080600084116124e65760405162461bcd60e51b81526004016106b69061318e565b6000838152600660205260409020546125115760405162461bcd60e51b81526004016106b690613361565b600083815260066020526040902054618e948461252e838861373c565b612538919061373c565b612542919061371c565b925061254e83866136df565b9150509250929050565b6001600160a01b031660009081526003602052604090206002015490565b6001600160a01b031660009081526003602052604090206004015460ff1690565b6000546001600160a01b031633146125c15760405162461bcd60e51b81526004016106b690613617565b6001600160a01b0382166125e75760405162461bcd60e51b81526004016106b690613398565b600081116126075760405162461bcd60e51b81526004016106b690613159565b60025460405163a9059cbb60e01b81526000916001600160a01b03169063a9059cbb9061263a9086908690600401612e92565b602060405180830381600087803b15801561265457600080fd5b505af1158015612668573d6000803e3d6000fd5b505050506040513d601f19601f8201168201806040525081019061268c9190612daf565b9050806126ab5760405162461bcd60e51b81526004016106b690613332565b505050565b600981600581106126c057600080fd5b60209182820401919006915054906101000a900460ff1681565b60606000805b6008548110156128735760006008828154811061270d57634e487b7160e01b600052603260045260246000fd5b60009182526020808320909101546001600160a01b031680835260038252604080842060010180548251818602810186019093528083529295509092909190849084015b828210156127be5760008481526020908190206040805160c08101825260068602909201805483526001808201548486015260028201549284019290925260038101546060840152600481015460808401526005015460ff16151560a08301529083529092019101612751565b505050506001600160a01b038381166000908152600360205260408120549293509116905b60058160ff161080156127fe57506001600160a01b03821615155b1561285c57876001600160a01b0316826001600160a01b0316141561282c57825161282990876136df565b95505b6001600160a01b0391821660009081526003602052604090205490911690806128548161378d565b9150506127e3565b50505050808061286b90613772565b9150506126e0565b5060008167ffffffffffffffff81111561289d57634e487b7160e01b600052604160045260246000fd5b6040519080825280602002602001820160405280156128d657816020015b6128c3612c56565b8152602001906001900390816128bb5790505b5090506000805b600854811015612ba15760006008828154811061290a57634e487b7160e01b600052603260045260246000fd5b60009182526020808320909101546001600160a01b031680835260038252604080842060010180548251818602810186019093528083529295509092909190849084015b828210156129bb5760008481526020908190206040805160c08101825260068602909201805483526001808201548486015260028201549284019290925260038101546060840152600481015460808401526005015460ff16151560a0830152908352909201910161294e565b505050506001600160a01b038381166000908152600360205260408120549293509116905b60058160ff161080156129fb57506001600160a01b03821615155b15612b8a57896001600160a01b0316826001600160a01b03161415612b5a5760005b8351811015612b58576000848281518110612a4857634e487b7160e01b600052603260045260246000fd5b602002602001015190506000606460098560ff1660058110612a7a57634e487b7160e01b600052603260045260246000fd5b602091828204019190069054906101000a900460ff1660ff168360400151612aa2919061373c565b612aac919061371c565b90506040518060e001604052808e6001600160a01b031681526020018360000151815260200183604001518152602001828152602001886001600160a01b0316815260200183606001518152602001856001612b0891906136f7565b60ff1690528a8a612b1881613772565b9b5081518110612b3857634e487b7160e01b600052603260045260246000fd5b602002602001018190525050508080612b5090613772565b915050612a1d565b505b6001600160a01b039182166000908152600360205260409020549091169080612b828161378d565b9150506129e0565b505050508080612b9990613772565b9150506128dd565b5090949350505050565b60076020526000908152604090205481565b60015481565b600183019183908215612c465791602002820160005b83821115612c1757835183826101000a81548160ff021916908360ff1602179055509260200192600101602081600001049283019260010302612bd9565b8015612c445782816101000a81549060ff0219169055600101602081600001049283019260010302612c17565b505b50612c52929150612ca8565b5090565b6040518060e0016040528060006001600160a01b0316815260200160008152602001600081526020016000815260200160006001600160a01b0316815260200160008152602001600060ff1681525090565b5b80821115612c525760008155600101612ca9565b80356001600160a01b038116811461057057600080fd5b600060208284031215612ce5578081fd5b612cee82612cbd565b9392505050565b60008060408385031215612d07578081fd5b612d1083612cbd565b946020939093013593505050565b600060a08284031215612d2f578081fd5b82601f830112612d3d578081fd5b60405160a0810181811067ffffffffffffffff82111715612d6057612d606137c3565b604052808360a08101861015612d74578384fd5b835b6005811015612da457813560ff81168114612d8f578586fd5b83526020928301929190910190600101612d76565b509195945050505050565b600060208284031215612dc0578081fd5b81518015158114612cee578182fd5b600060208284031215612de0578081fd5b5035919050565b600060208284031215612df8578081fd5b5051919050565b60008060408385031215612e11578182fd5b50508035926020909101359150565b6000815180845260208085019450808401835b83811015612e4f57815187529582019590820190600101612e33565b509495945050505050565b6001600160a01b0391909116815260200190565b6001600160a01b039384168152919092166020820152604081019190915260600190565b6001600160a01b03929092168252602082015260400190565b6001600160a01b039390931683526020830191909152604082015260600190565b6001600160a01b03949094168452602084019290925260408301521515606082015260800190565b6001600160a01b03989098168852602088019690965260408701949094526060860192909252608085015260a084015260c0830152151560e08201526101000190565b606080825284519082018190526000906020906080840190828801845b82811015612f795781516001600160a01b031684529284019290840190600101612f54565b50505083810382850152612f8d8187612e20565b9150508281036040840152612fa28185612e20565b9695505050505050565b602080825282518282018190526000919060409081850190868401855b8281101561303257815180516001600160a01b03908116865287820151888701528682015187870152606080830151908701526080808301519091169086015260a0808201519086015260c09081015160ff169085015260e09093019290850190600101612fc9565b5091979650505050505050565b600060208252612cee6020830184612e20565b901515815260200190565b60208082526017908201527f5265666572726572206e6f742072656769737465726564000000000000000000604082015260600190565b6020808252600e908201526d139bdd081c9959da5cdd195c995960921b604082015260600190565b60208082526015908201527421b0b73737ba103932b332b9103cb7bab939b2b63360591b604082015260600190565b6020808252601f908201527f44697265637420726566657272616c207472616e73666572206661696c656400604082015260600190565b6020808252601e908201527f4c6576656c203120726577617264207472616e73666572206661696c65640000604082015260600190565b6020808252818101527f416d6f756e74206d7573742062652067726561746572207468616e207a65726f604082015260600190565b6020808252601d908201527f416d6f756e74206d7573742062652067726561746572207468616e2030000000604082015260600190565b602080825260129082015271105b1c9958591e481c9959da5cdd195c995960721b604082015260600190565b6020808252601c908201527f4c6576656c20726577617264207472616e73666572206661696c656400000000604082015260600190565b60208082526029908201527f496e73756666696369656e7420636f6e74726163742062616c616e636520666f60408201526872206c6576656c203160b81b606082015260800190565b60208082526028908201527f5265666572726572206d757374207374616b65206265666f726520796f752063604082015267616e207374616b6560c01b606082015260800190565b60208082526017908201527f4f6e6c79206f776e65722063616e207769746864726177000000000000000000604082015260600190565b60208082526022908201527f5374616b65206e6f7420666f756e64206f7220616c726561647920636c61696d604082015261195960f21b606082015260800190565b602080825260159082015274151bdad95b881d1c985b9cd9995c8819985a5b1959605a1b604082015260600190565b60208082526018908201527f496e76616c6964207374616b696e67206475726174696f6e0000000000000000604082015260600190565b60208082526019908201527f496e76616c696420726563697069656e74206164647265737300000000000000604082015260600190565b60208082526028908201527f496e73756666696369656e7420636f6e74726163742062616c616e636520666f6040820152671c88191a5c9958dd60c21b606082015260800190565b6020808252818101527f5374616b696e6720706572696f64206e6f742079657420636f6d706c65746564604082015260600190565b6020808252601490820152731554d115081d1c985b9cd9995c8819985a5b195960621b604082015260600190565b6020808252602b908201527f5265666572726572206d757374207374616b65206265666f726520796f75206360408201526a30b7103932b3b4b9ba32b960a91b606082015260800190565b6020808252600f908201526e14dd185ad9481b9bdd08199bdd5b99608a1b604082015260600190565b6020808252602a908201527f456d657267656e637920636c61696d20616c6c6f776564206f6e6c79206166746040820152696572203130206461797360b01b606082015260800190565b60208082526023908201527f5374616b6520616d6f756e74206d75737420626520677265617465722074686160408201526206e20360ec1b606082015260800190565b602080825260149082015273155cd95c881d1c985b9cd9995c8819985a5b195960621b604082015260600190565b60208082526019908201527f41646d696e20666565207472616e73666572206661696c656400000000000000604082015260600190565b6020808252601d908201527f496e73756666696369656e7420636f6e74726163742062616c616e6365000000604082015260600190565b60208082526018908201527f4f6e6c79206f776e65722063616e2063616c6c20746869730000000000000000604082015260600190565b60208082526010908201526f044617973206d757374206265203e20360841b604082015260600190565b602080825260129082015271125b9d985b1a59081c1bdcda5d1a5bdb925960721b604082015260600190565b90815260200190565b918252602082015260400190565b9283526020830191909152604082015260600190565b60ff91909116815260200190565b600082198211156136f2576136f26137ad565b500190565b600060ff821660ff84168060ff03821115613714576137146137ad565b019392505050565b60008261373757634e487b7160e01b81526012600452602481fd5b500490565b6000816000190483118215151615613756576137566137ad565b500290565b60008282101561376d5761376d6137ad565b500390565b6000600019821415613786576137866137ad565b5060010190565b600060ff821660ff8114156137a4576137a46137ad565b60010192915050565b634e487b7160e01b600052601160045260246000fd5b634e487b7160e01b600052604160045260246000fdfea26469706673582212201aef4beb5884c496a14ae026a7952b3d6e8508963fde82035faf129edcb4e17764736f6c63430008000033",
					"opcodes": "PUSH2 0x120 PUSH1 0x40 MSTORE PUSH1 0x5 PUSH1 0x80 DUP2 DUP2 MSTORE PUSH1 0x3 PUSH1 0xA0 MSTORE PUSH1 0x2 PUSH1 0xC0 MSTORE PUSH1 0x1 PUSH1 0xE0 DUP2 SWAP1 MSTORE PUSH2 0x100 MSTORE PUSH3 0x30 SWAP2 PUSH1 0x9 SWAP2 SWAP1 PUSH3 0x199 JUMP JUMPDEST POP CALLVALUE DUP1 ISZERO PUSH3 0x3E JUMPI PUSH1 0x0 DUP1 REVERT JUMPDEST POP PUSH1 0x40 MLOAD PUSH3 0x3A99 CODESIZE SUB DUP1 PUSH3 0x3A99 DUP4 CODECOPY DUP2 ADD PUSH1 0x40 DUP2 SWAP1 MSTORE PUSH3 0x61 SWAP2 PUSH3 0x24A JUMP JUMPDEST PUSH1 0x0 DUP1 SLOAD CALLER PUSH1 0x1 PUSH1 0x1 PUSH1 0xA0 SHL SUB NOT SWAP2 DUP3 AND OR DUP1 DUP4 SSTORE PUSH1 0x2 DUP1 SLOAD SWAP1 SWAP3 AND PUSH1 0x1 PUSH1 0x1 PUSH1 0xA0 SHL SUB SWAP5 DUP6 AND OR DUP3 SSTORE SWAP3 SWAP1 SWAP3 AND DUP2 MSTORE PUSH1 0x3 PUSH1 0x20 SWAP1 DUP2 MSTORE PUSH1 0x40 DUP3 KECCAK256 PUSH1 0x4 SWAP1 DUP2 ADD DUP1 SLOAD PUSH1 0xFF NOT AND PUSH1 0x1 SWAP1 DUP2 OR SWAP1 SWAP2 SSTORE PUSH1 0x6 SWAP3 DUP4 SWAP1 MSTORE PUSH32 0xB6BA906FF52451A7A924E2EAEB8AEA3EBEE7350A8703E5E417EDB25358C7DCC1 SSTORE PUSH32 0x6CA6DCAFC04B6E03616746C3528366F990E332021E35D59275BE746D65CAE0A7 SWAP4 SWAP1 SWAP4 SSTORE PUSH32 0x1727C0104C2870C3003671480695F7DAB262614528B49265008E76FD3D48C5FE SWAP3 SWAP1 SWAP3 SSTORE PUSH32 0x5451FE6494362676DDB91456D9957C85D968E6F82956407C931A14C023049E6A SWAP2 SWAP1 SWAP2 SSTORE PUSH1 0x9 PUSH32 0xFB78EB295A86B096B5F095822BD250A277112BE4103EA4A7608D96ECA726B2C1 SSTORE PUSH2 0x16D SWAP1 MSTORE PUSH1 0x14 PUSH32 0xBBF8ADEA84D189C39869A372AB30AEBA9246EEA044EDC5A37AC100921B2C4E1 SSTORE PUSH3 0x27A JUMP JUMPDEST PUSH1 0x1 DUP4 ADD SWAP2 DUP4 SWAP1 DUP3 ISZERO PUSH3 0x221 JUMPI SWAP2 PUSH1 0x20 MUL DUP3 ADD PUSH1 0x0 JUMPDEST DUP4 DUP3 GT ISZERO PUSH3 0x1F0 JUMPI DUP4 MLOAD DUP4 DUP3 PUSH2 0x100 EXP DUP2 SLOAD DUP2 PUSH1 0xFF MUL NOT AND SWAP1 DUP4 PUSH1 0xFF AND MUL OR SWAP1 SSTORE POP SWAP3 PUSH1 0x20 ADD SWAP3 PUSH1 0x1 ADD PUSH1 0x20 DUP2 PUSH1 0x0 ADD DIV SWAP3 DUP4 ADD SWAP3 PUSH1 0x1 SUB MUL PUSH3 0x1B0 JUMP JUMPDEST DUP1 ISZERO PUSH3 0x21F JUMPI DUP3 DUP2 PUSH2 0x100 EXP DUP2 SLOAD SWAP1 PUSH1 0xFF MUL NOT AND SWAP1 SSTORE PUSH1 0x1 ADD PUSH1 0x20 DUP2 PUSH1 0x0 ADD DIV SWAP3 DUP4 ADD SWAP3 PUSH1 0x1 SUB MUL PUSH3 0x1F0 JUMP JUMPDEST POP JUMPDEST POP PUSH3 0x22F SWAP3 SWAP2 POP PUSH3 0x233 JUMP JUMPDEST POP SWAP1 JUMP JUMPDEST JUMPDEST DUP1 DUP3 GT ISZERO PUSH3 0x22F JUMPI PUSH1 0x0 DUP2 SSTORE PUSH1 0x1 ADD PUSH3 0x234 JUMP JUMPDEST PUSH1 0x0 PUSH1 0x20 DUP3 DUP5 SUB SLT ISZERO PUSH3 0x25C JUMPI DUP1 DUP2 REVERT JUMPDEST DUP2 MLOAD PUSH1 0x1 PUSH1 0x1 PUSH1 0xA0 SHL SUB DUP2 AND DUP2 EQ PUSH3 0x273 JUMPI DUP2 DUP3 REVERT JUMPDEST SWAP4 SWAP3 POP POP POP JUMP JUMPDEST PUSH2 0x380F DUP1 PUSH3 0x28A PUSH1 0x0 CODECOPY PUSH1 0x0 RETURN INVALID PUSH1 0x80 PUSH1 0x40 MSTORE CALLVALUE DUP1 ISZERO PUSH2 0x10 JUMPI PUSH1 0x0 DUP1 REVERT JUMPDEST POP PUSH1 0x4 CALLDATASIZE LT PUSH2 0x1F0 JUMPI PUSH1 0x0 CALLDATALOAD PUSH1 0xE0 SHR DUP1 PUSH4 0x98278EFB GT PUSH2 0x10F JUMPI DUP1 PUSH4 0xC2D3C677 GT PUSH2 0xA2 JUMPI DUP1 PUSH4 0xE45A57D0 GT PUSH2 0x71 JUMPI DUP1 PUSH4 0xE45A57D0 EQ PUSH2 0x466 JUMPI DUP1 PUSH4 0xEF71AE56 EQ PUSH2 0x479 JUMPI DUP1 PUSH4 0xF6E88873 EQ PUSH2 0x499 JUMPI DUP1 PUSH4 0xF7B17D10 EQ PUSH2 0x4AC JUMPI PUSH2 0x1F0 JUMP JUMPDEST DUP1 PUSH4 0xC2D3C677 EQ PUSH2 0x420 JUMPI DUP1 PUSH4 0xC3C5A547 EQ PUSH2 0x433 JUMPI DUP1 PUSH4 0xC5B89C0A EQ PUSH2 0x2CE JUMPI DUP1 PUSH4 0xD85C8966 EQ PUSH2 0x453 JUMPI PUSH2 0x1F0 JUMP JUMPDEST DUP1 PUSH4 0xA87430BA GT PUSH2 0xDE JUMPI DUP1 PUSH4 0xA87430BA EQ PUSH2 0x3C1 JUMPI DUP1 PUSH4 0xA98AD46C EQ PUSH2 0x3E4 JUMPI DUP1 PUSH4 0xAA7ED462 EQ PUSH2 0x3EC JUMPI DUP1 PUSH4 0xBD297178 EQ PUSH2 0x3FF JUMPI PUSH2 0x1F0 JUMP JUMPDEST DUP1 PUSH4 0x98278EFB EQ PUSH2 0x371 JUMPI DUP1 PUSH4 0x9BE572F6 EQ PUSH2 0x384 JUMPI DUP1 PUSH4 0x9D747BAD EQ PUSH2 0x38C JUMPI DUP1 PUSH4 0xA2BDEDF4 EQ PUSH2 0x3AE JUMPI PUSH2 0x1F0 JUMP JUMPDEST DUP1 PUSH4 0x5BD4E16A GT PUSH2 0x187 JUMPI DUP1 PUSH4 0x797C7F5F GT PUSH2 0x156 JUMPI DUP1 PUSH4 0x797C7F5F EQ PUSH2 0x31C JUMPI DUP1 PUSH4 0x7B0472F0 EQ PUSH2 0x343 JUMPI DUP1 PUSH4 0x875BB4E2 EQ PUSH2 0x356 JUMPI DUP1 PUSH4 0x8DA5CB5B EQ PUSH2 0x369 JUMPI PUSH2 0x1F0 JUMP JUMPDEST DUP1 PUSH4 0x5BD4E16A EQ PUSH2 0x2CE JUMPI DUP1 PUSH4 0x656596A5 EQ PUSH2 0x2EE JUMPI DUP1 PUSH4 0x6C8C2156 EQ PUSH2 0x301 JUMPI DUP1 PUSH4 0x6F9FB98A EQ PUSH2 0x314 JUMPI PUSH2 0x1F0 JUMP JUMPDEST DUP1 PUSH4 0x379607F5 GT PUSH2 0x1C3 JUMPI DUP1 PUSH4 0x379607F5 EQ PUSH2 0x280 JUMPI DUP1 PUSH4 0x3EA521EF EQ PUSH2 0x295 JUMPI DUP1 PUSH4 0x4420E486 EQ PUSH2 0x2A8 JUMPI DUP1 PUSH4 0x4850D2A2 EQ PUSH2 0x2BB JUMPI PUSH2 0x1F0 JUMP JUMPDEST DUP1 PUSH4 0x5AD3935 EQ PUSH2 0x1F5 JUMPI DUP1 PUSH4 0x1E43EB27 EQ PUSH2 0x220 JUMPI DUP1 PUSH4 0x21923BDE EQ PUSH2 0x240 JUMPI DUP1 PUSH4 0x28FE7031 EQ PUSH2 0x260 JUMPI JUMPDEST PUSH1 0x0 DUP1 REVERT JUMPDEST PUSH2 0x208 PUSH2 0x203 CALLDATASIZE PUSH1 0x4 PUSH2 0x2CF5 JUMP JUMPDEST PUSH2 0x4B4 JUMP JUMPDEST PUSH1 0x40 MLOAD PUSH2 0x217 SWAP4 SWAP3 SWAP2 SWAP1 PUSH2 0x2EAB JUMP JUMPDEST PUSH1 0x40 MLOAD DUP1 SWAP2 SUB SWAP1 RETURN JUMPDEST PUSH2 0x233 PUSH2 0x22E CALLDATASIZE PUSH1 0x4 PUSH2 0x2DCF JUMP JUMPDEST PUSH2 0x500 JUMP JUMPDEST PUSH1 0x40 MLOAD PUSH2 0x217 SWAP2 SWAP1 PUSH2 0x2E5A JUMP JUMPDEST PUSH2 0x253 PUSH2 0x24E CALLDATASIZE PUSH1 0x4 PUSH2 0x2CD4 JUMP JUMPDEST PUSH2 0x51B JUMP JUMPDEST PUSH1 0x40 MLOAD PUSH2 0x217 SWAP2 SWAP1 PUSH2 0x36D1 JUMP JUMPDEST PUSH2 0x273 PUSH2 0x26E CALLDATASIZE PUSH1 0x4 PUSH2 0x2CD4 JUMP JUMPDEST PUSH2 0x575 JUMP JUMPDEST PUSH1 0x40 MLOAD PUSH2 0x217 SWAP2 SWAP1 PUSH2 0x303F JUMP JUMPDEST PUSH2 0x293 PUSH2 0x28E CALLDATASIZE PUSH1 0x4 PUSH2 0x2DCF JUMP JUMPDEST PUSH2 0x684 JUMP JUMPDEST STOP JUMPDEST PUSH2 0x293 PUSH2 0x2A3 CALLDATASIZE PUSH1 0x4 PUSH2 0x2DCF JUMP JUMPDEST PUSH2 0xB7B JUMP JUMPDEST PUSH2 0x293 PUSH2 0x2B6 CALLDATASIZE PUSH1 0x4 PUSH2 0x2CD4 JUMP JUMPDEST PUSH2 0xC31 JUMP JUMPDEST PUSH2 0x293 PUSH2 0x2C9 CALLDATASIZE PUSH1 0x4 PUSH2 0x2DFF JUMP JUMPDEST PUSH2 0xDD0 JUMP JUMPDEST PUSH2 0x2E1 PUSH2 0x2DC CALLDATASIZE PUSH1 0x4 PUSH2 0x2CD4 JUMP JUMPDEST PUSH2 0xE2C JUMP JUMPDEST PUSH1 0x40 MLOAD PUSH2 0x217 SWAP2 SWAP1 PUSH2 0x36A4 JUMP JUMPDEST PUSH2 0x293 PUSH2 0x2FC CALLDATASIZE PUSH1 0x4 PUSH2 0x2D1E JUMP JUMPDEST PUSH2 0xE4B JUMP JUMPDEST PUSH2 0x293 PUSH2 0x30F CALLDATASIZE PUSH1 0x4 PUSH2 0x2DCF JUMP JUMPDEST PUSH2 0xE82 JUMP JUMPDEST PUSH2 0x2E1 PUSH2 0x12DC JUMP JUMPDEST PUSH2 0x32F PUSH2 0x32A CALLDATASIZE PUSH1 0x4 PUSH2 0x2DCF JUMP JUMPDEST PUSH2 0x1362 JUMP JUMPDEST PUSH1 0x40 MLOAD PUSH2 0x217 SWAP9 SWAP8 SWAP7 SWAP6 SWAP5 SWAP4 SWAP3 SWAP2 SWAP1 PUSH2 0x2EF4 JUMP JUMPDEST PUSH2 0x293 PUSH2 0x351 CALLDATASIZE PUSH1 0x4 PUSH2 0x2DFF JUMP JUMPDEST PUSH2 0x15A7 JUMP JUMPDEST PUSH2 0x2E1 PUSH2 0x364 CALLDATASIZE PUSH1 0x4 PUSH2 0x2DCF JUMP JUMPDEST PUSH2 0x217B JUMP JUMPDEST PUSH2 0x233 PUSH2 0x218D JUMP JUMPDEST PUSH2 0x2E1 PUSH2 0x37F CALLDATASIZE PUSH1 0x4 PUSH2 0x2CD4 JUMP JUMPDEST PUSH2 0x219C JUMP JUMPDEST PUSH2 0x2E1 PUSH2 0x21B7 JUMP JUMPDEST PUSH2 0x39F PUSH2 0x39A CALLDATASIZE PUSH1 0x4 PUSH2 0x2CD4 JUMP JUMPDEST PUSH2 0x21BD JUMP JUMPDEST PUSH1 0x40 MLOAD PUSH2 0x217 SWAP4 SWAP3 SWAP2 SWAP1 PUSH2 0x2F37 JUMP JUMPDEST PUSH2 0x233 PUSH2 0x3BC CALLDATASIZE PUSH1 0x4 PUSH2 0x2DCF JUMP JUMPDEST PUSH2 0x2439 JUMP JUMPDEST PUSH2 0x3D4 PUSH2 0x3CF CALLDATASIZE PUSH1 0x4 PUSH2 0x2CD4 JUMP JUMPDEST PUSH2 0x2463 JUMP JUMPDEST PUSH1 0x40 MLOAD PUSH2 0x217 SWAP5 SWAP4 SWAP3 SWAP2 SWAP1 PUSH2 0x2ECC JUMP JUMPDEST PUSH2 0x233 PUSH2 0x2499 JUMP JUMPDEST PUSH2 0x2E1 PUSH2 0x3FA CALLDATASIZE PUSH1 0x4 PUSH2 0x2CD4 JUMP JUMPDEST PUSH2 0x24A8 JUMP JUMPDEST PUSH2 0x412 PUSH2 0x40D CALLDATASIZE PUSH1 0x4 PUSH2 0x2DFF JUMP JUMPDEST PUSH2 0x24C3 JUMP JUMPDEST PUSH1 0x40 MLOAD PUSH2 0x217 SWAP3 SWAP2 SWAP1 PUSH2 0x36AD JUMP JUMPDEST PUSH2 0x2E1 PUSH2 0x42E CALLDATASIZE PUSH1 0x4 PUSH2 0x2CD4 JUMP JUMPDEST PUSH2 0x2558 JUMP JUMPDEST PUSH2 0x446 PUSH2 0x441 CALLDATASIZE PUSH1 0x4 PUSH2 0x2CD4 JUMP JUMPDEST PUSH2 0x2576 JUMP JUMPDEST PUSH1 0x40 MLOAD PUSH2 0x217 SWAP2 SWAP1 PUSH2 0x3052 JUMP JUMPDEST PUSH2 0x293 PUSH2 0x461 CALLDATASIZE PUSH1 0x4 PUSH2 0x2CF5 JUMP JUMPDEST PUSH2 0x2597 JUMP JUMPDEST PUSH2 0x253 PUSH2 0x474 CALLDATASIZE PUSH1 0x4 PUSH2 0x2DCF JUMP JUMPDEST PUSH2 0x26B0 JUMP JUMPDEST PUSH2 0x48C PUSH2 0x487 CALLDATASIZE PUSH1 0x4 PUSH2 0x2CD4 JUMP JUMPDEST PUSH2 0x26DA JUMP JUMPDEST PUSH1 0x40 MLOAD PUSH2 0x217 SWAP2 SWAP1 PUSH2 0x2FAC JUMP JUMPDEST PUSH2 0x2E1 PUSH2 0x4A7 CALLDATASIZE PUSH1 0x4 PUSH2 0x2CD4 JUMP JUMPDEST PUSH2 0x2BAB JUMP JUMPDEST PUSH2 0x2E1 PUSH2 0x2BBD JUMP JUMPDEST PUSH1 0x4 PUSH1 0x20 MSTORE DUP2 PUSH1 0x0 MSTORE PUSH1 0x40 PUSH1 0x0 KECCAK256 DUP2 DUP2 SLOAD DUP2 LT PUSH2 0x4D0 JUMPI PUSH1 0x0 DUP1 REVERT JUMPDEST PUSH1 0x0 SWAP2 DUP3 MSTORE PUSH1 0x20 SWAP1 SWAP2 KECCAK256 PUSH1 0x3 SWAP1 SWAP2 MUL ADD DUP1 SLOAD PUSH1 0x1 DUP3 ADD SLOAD PUSH1 0x2 SWAP1 SWAP3 ADD SLOAD PUSH1 0x1 PUSH1 0x1 PUSH1 0xA0 SHL SUB SWAP1 SWAP2 AND SWAP4 POP SWAP1 SWAP2 POP DUP4 JUMP JUMPDEST PUSH1 0x5 PUSH1 0x20 MSTORE PUSH1 0x0 SWAP1 DUP2 MSTORE PUSH1 0x40 SWAP1 KECCAK256 SLOAD PUSH1 0x1 PUSH1 0x1 PUSH1 0xA0 SHL SUB AND DUP2 JUMP JUMPDEST PUSH1 0x1 PUSH1 0x1 PUSH1 0xA0 SHL SUB DUP2 AND PUSH1 0x0 SWAP1 DUP2 MSTORE PUSH1 0x4 PUSH1 0x20 MSTORE PUSH1 0x40 DUP2 KECCAK256 SLOAD PUSH1 0xA DUP2 LT PUSH2 0x546 JUMPI PUSH1 0x3 SWAP2 POP POP PUSH2 0x570 JUMP JUMPDEST PUSH1 0x5 DUP2 LT PUSH2 0x558 JUMPI PUSH1 0x2 SWAP2 POP POP PUSH2 0x570 JUMP JUMPDEST PUSH1 0x1 DUP2 LT PUSH2 0x56A JUMPI PUSH1 0x1 SWAP2 POP POP PUSH2 0x570 JUMP JUMPDEST PUSH1 0x0 SWAP2 POP POP JUMPDEST SWAP2 SWAP1 POP JUMP JUMPDEST PUSH1 0x1 PUSH1 0x1 PUSH1 0xA0 SHL SUB DUP2 AND PUSH1 0x0 SWAP1 DUP2 MSTORE PUSH1 0x3 PUSH1 0x20 MSTORE PUSH1 0x40 DUP2 KECCAK256 PUSH1 0x1 ADD SLOAD PUSH1 0x60 SWAP2 DUP2 PUSH8 0xFFFFFFFFFFFFFFFF DUP2 GT ISZERO PUSH2 0x5BB JUMPI PUSH4 0x4E487B71 PUSH1 0xE0 SHL PUSH1 0x0 MSTORE PUSH1 0x41 PUSH1 0x4 MSTORE PUSH1 0x24 PUSH1 0x0 REVERT JUMPDEST PUSH1 0x40 MLOAD SWAP1 DUP1 DUP3 MSTORE DUP1 PUSH1 0x20 MUL PUSH1 0x20 ADD DUP3 ADD PUSH1 0x40 MSTORE DUP1 ISZERO PUSH2 0x5E4 JUMPI DUP2 PUSH1 0x20 ADD PUSH1 0x20 DUP3 MUL DUP1 CALLDATASIZE DUP4 CALLDATACOPY ADD SWAP1 POP JUMPDEST POP SWAP1 POP PUSH1 0x0 JUMPDEST DUP3 DUP2 LT ISZERO PUSH2 0x67C JUMPI PUSH1 0x1 PUSH1 0x1 PUSH1 0xA0 SHL SUB DUP6 AND PUSH1 0x0 SWAP1 DUP2 MSTORE PUSH1 0x3 PUSH1 0x20 MSTORE PUSH1 0x40 SWAP1 KECCAK256 PUSH1 0x1 ADD DUP1 SLOAD DUP3 SWAP1 DUP2 LT PUSH2 0x62D JUMPI PUSH4 0x4E487B71 PUSH1 0xE0 SHL PUSH1 0x0 MSTORE PUSH1 0x32 PUSH1 0x4 MSTORE PUSH1 0x24 PUSH1 0x0 REVERT JUMPDEST SWAP1 PUSH1 0x0 MSTORE PUSH1 0x20 PUSH1 0x0 KECCAK256 SWAP1 PUSH1 0x6 MUL ADD PUSH1 0x1 ADD SLOAD DUP3 DUP3 DUP2 MLOAD DUP2 LT PUSH2 0x65F JUMPI PUSH4 0x4E487B71 PUSH1 0xE0 SHL PUSH1 0x0 MSTORE PUSH1 0x32 PUSH1 0x4 MSTORE PUSH1 0x24 PUSH1 0x0 REVERT JUMPDEST PUSH1 0x20 SWAP1 DUP2 MUL SWAP2 SWAP1 SWAP2 ADD ADD MSTORE DUP1 PUSH2 0x674 DUP2 PUSH2 0x3772 JUMP JUMPDEST SWAP2 POP POP PUSH2 0x5EA JUMP JUMPDEST POP SWAP4 SWAP3 POP POP POP JUMP JUMPDEST CALLER PUSH1 0x0 SWAP1 DUP2 MSTORE PUSH1 0x3 PUSH1 0x20 MSTORE PUSH1 0x40 SWAP1 KECCAK256 PUSH1 0x4 ADD SLOAD PUSH1 0xFF AND PUSH2 0x6BF JUMPI PUSH1 0x40 MLOAD PUSH3 0x461BCD PUSH1 0xE5 SHL DUP2 MSTORE PUSH1 0x4 ADD PUSH2 0x6B6 SWAP1 PUSH2 0x3094 JUMP JUMPDEST PUSH1 0x40 MLOAD DUP1 SWAP2 SUB SWAP1 REVERT JUMPDEST CALLER PUSH1 0x0 DUP2 DUP2 MSTORE PUSH1 0x3 PUSH1 0x20 MSTORE PUSH1 0x40 DUP2 KECCAK256 SWAP1 PUSH1 0x1 DUP3 ADD SWAP1 DUP1 JUMPDEST DUP3 SLOAD DUP2 LT ISZERO PUSH2 0xB56 JUMPI DUP6 DUP4 DUP3 DUP2 SLOAD DUP2 LT PUSH2 0x700 JUMPI PUSH4 0x4E487B71 PUSH1 0xE0 SHL PUSH1 0x0 MSTORE PUSH1 0x32 PUSH1 0x4 MSTORE PUSH1 0x24 PUSH1 0x0 REVERT JUMPDEST SWAP1 PUSH1 0x0 MSTORE PUSH1 0x20 PUSH1 0x0 KECCAK256 SWAP1 PUSH1 0x6 MUL ADD PUSH1 0x1 ADD SLOAD EQ DUP1 ISZERO PUSH2 0x753 JUMPI POP DUP3 DUP2 DUP2 SLOAD DUP2 LT PUSH2 0x73A JUMPI PUSH4 0x4E487B71 PUSH1 0xE0 SHL PUSH1 0x0 MSTORE PUSH1 0x32 PUSH1 0x4 MSTORE PUSH1 0x24 PUSH1 0x0 REVERT JUMPDEST PUSH1 0x0 SWAP2 DUP3 MSTORE PUSH1 0x20 SWAP1 SWAP2 KECCAK256 PUSH1 0x5 PUSH1 0x6 SWAP1 SWAP3 MUL ADD ADD SLOAD PUSH1 0xFF AND ISZERO JUMPDEST ISZERO PUSH2 0xB44 JUMPI DUP3 DUP2 DUP2 SLOAD DUP2 LT PUSH2 0x778 JUMPI PUSH4 0x4E487B71 PUSH1 0xE0 SHL PUSH1 0x0 MSTORE PUSH1 0x32 PUSH1 0x4 MSTORE PUSH1 0x24 PUSH1 0x0 REVERT JUMPDEST SWAP1 PUSH1 0x0 MSTORE PUSH1 0x20 PUSH1 0x0 KECCAK256 SWAP1 PUSH1 0x6 MUL ADD PUSH1 0x4 ADD SLOAD PUSH3 0x15180 PUSH2 0x798 SWAP2 SWAP1 PUSH2 0x373C JUMP JUMPDEST DUP4 DUP3 DUP2 SLOAD DUP2 LT PUSH2 0x7B8 JUMPI PUSH4 0x4E487B71 PUSH1 0xE0 SHL PUSH1 0x0 MSTORE PUSH1 0x32 PUSH1 0x4 MSTORE PUSH1 0x24 PUSH1 0x0 REVERT JUMPDEST SWAP1 PUSH1 0x0 MSTORE PUSH1 0x20 PUSH1 0x0 KECCAK256 SWAP1 PUSH1 0x6 MUL ADD PUSH1 0x3 ADD SLOAD PUSH2 0x7D4 SWAP2 SWAP1 PUSH2 0x36DF JUMP JUMPDEST TIMESTAMP LT ISZERO PUSH2 0x7F3 JUMPI PUSH1 0x40 MLOAD PUSH3 0x461BCD PUSH1 0xE5 SHL DUP2 MSTORE PUSH1 0x4 ADD PUSH2 0x6B6 SWAP1 PUSH2 0x3417 JUMP JUMPDEST PUSH1 0x0 PUSH1 0x6 PUSH1 0x0 DUP6 DUP5 DUP2 SLOAD DUP2 LT PUSH2 0x819 JUMPI PUSH4 0x4E487B71 PUSH1 0xE0 SHL PUSH1 0x0 MSTORE PUSH1 0x32 PUSH1 0x4 MSTORE PUSH1 0x24 PUSH1 0x0 REVERT JUMPDEST SWAP1 PUSH1 0x0 MSTORE PUSH1 0x20 PUSH1 0x0 KECCAK256 SWAP1 PUSH1 0x6 MUL ADD PUSH1 0x4 ADD SLOAD DUP2 MSTORE PUSH1 0x20 ADD SWAP1 DUP2 MSTORE PUSH1 0x20 ADD PUSH1 0x0 KECCAK256 SLOAD SWAP1 POP PUSH1 0x0 PUSH2 0x8E94 DUP6 DUP5 DUP2 SLOAD DUP2 LT PUSH2 0x861 JUMPI PUSH4 0x4E487B71 PUSH1 0xE0 SHL PUSH1 0x0 MSTORE PUSH1 0x32 PUSH1 0x4 MSTORE PUSH1 0x24 PUSH1 0x0 REVERT JUMPDEST SWAP1 PUSH1 0x0 MSTORE PUSH1 0x20 PUSH1 0x0 KECCAK256 SWAP1 PUSH1 0x6 MUL ADD PUSH1 0x4 ADD SLOAD DUP4 DUP8 DUP7 DUP2 SLOAD DUP2 LT PUSH2 0x894 JUMPI PUSH4 0x4E487B71 PUSH1 0xE0 SHL PUSH1 0x0 MSTORE PUSH1 0x32 PUSH1 0x4 MSTORE PUSH1 0x24 PUSH1 0x0 REVERT JUMPDEST SWAP1 PUSH1 0x0 MSTORE PUSH1 0x20 PUSH1 0x0 KECCAK256 SWAP1 PUSH1 0x6 MUL ADD PUSH1 0x2 ADD SLOAD PUSH2 0x8B0 SWAP2 SWAP1 PUSH2 0x373C JUMP JUMPDEST PUSH2 0x8BA SWAP2 SWAP1 PUSH2 0x373C JUMP JUMPDEST PUSH2 0x8C4 SWAP2 SWAP1 PUSH2 0x371C JUMP JUMPDEST SWAP1 POP PUSH1 0x0 DUP2 DUP7 DUP6 DUP2 SLOAD DUP2 LT PUSH2 0x8E9 JUMPI PUSH4 0x4E487B71 PUSH1 0xE0 SHL PUSH1 0x0 MSTORE PUSH1 0x32 PUSH1 0x4 MSTORE PUSH1 0x24 PUSH1 0x0 REVERT JUMPDEST SWAP1 PUSH1 0x0 MSTORE PUSH1 0x20 PUSH1 0x0 KECCAK256 SWAP1 PUSH1 0x6 MUL ADD PUSH1 0x2 ADD SLOAD PUSH2 0x905 SWAP2 SWAP1 PUSH2 0x36DF JUMP JUMPDEST PUSH1 0x2 SLOAD PUSH1 0x40 MLOAD PUSH4 0x70A08231 PUSH1 0xE0 SHL DUP2 MSTORE SWAP2 SWAP3 POP DUP3 SWAP2 PUSH1 0x1 PUSH1 0x1 PUSH1 0xA0 SHL SUB SWAP1 SWAP2 AND SWAP1 PUSH4 0x70A08231 SWAP1 PUSH2 0x93A SWAP1 ADDRESS SWAP1 PUSH1 0x4 ADD PUSH2 0x2E5A JUMP JUMPDEST PUSH1 0x20 PUSH1 0x40 MLOAD DUP1 DUP4 SUB DUP2 DUP7 DUP1 EXTCODESIZE ISZERO DUP1 ISZERO PUSH2 0x952 JUMPI PUSH1 0x0 DUP1 REVERT JUMPDEST POP GAS STATICCALL ISZERO DUP1 ISZERO PUSH2 0x966 JUMPI RETURNDATASIZE PUSH1 0x0 DUP1 RETURNDATACOPY RETURNDATASIZE PUSH1 0x0 REVERT JUMPDEST POP POP POP POP PUSH1 0x40 MLOAD RETURNDATASIZE PUSH1 0x1F NOT PUSH1 0x1F DUP3 ADD AND DUP3 ADD DUP1 PUSH1 0x40 MSTORE POP DUP2 ADD SWAP1 PUSH2 0x98A SWAP2 SWAP1 PUSH2 0x2DE7 JUMP JUMPDEST LT ISZERO PUSH2 0x9A8 JUMPI PUSH1 0x40 MLOAD PUSH3 0x461BCD PUSH1 0xE5 SHL DUP2 MSTORE PUSH1 0x4 ADD PUSH2 0x6B6 SWAP1 PUSH2 0x35E0 JUMP JUMPDEST PUSH1 0x1 DUP7 DUP6 DUP2 SLOAD DUP2 LT PUSH2 0x9CA JUMPI PUSH4 0x4E487B71 PUSH1 0xE0 SHL PUSH1 0x0 MSTORE PUSH1 0x32 PUSH1 0x4 MSTORE PUSH1 0x24 PUSH1 0x0 REVERT JUMPDEST PUSH1 0x0 SWAP2 DUP3 MSTORE PUSH1 0x20 DUP3 KECCAK256 PUSH1 0x6 SWAP2 SWAP1 SWAP2 MUL ADD PUSH1 0x5 ADD DUP1 SLOAD PUSH1 0xFF NOT AND SWAP3 ISZERO ISZERO SWAP3 SWAP1 SWAP3 OR SWAP1 SWAP2 SSTORE PUSH1 0x2 SLOAD PUSH1 0x40 MLOAD PUSH4 0xA9059CBB PUSH1 0xE0 SHL DUP2 MSTORE PUSH1 0x1 PUSH1 0x1 PUSH1 0xA0 SHL SUB SWAP1 SWAP2 AND SWAP1 PUSH4 0xA9059CBB SWAP1 PUSH2 0xA1F SWAP1 DUP13 SWAP1 DUP7 SWAP1 PUSH1 0x4 ADD PUSH2 0x2E92 JUMP JUMPDEST PUSH1 0x20 PUSH1 0x40 MLOAD DUP1 DUP4 SUB DUP2 PUSH1 0x0 DUP8 DUP1 EXTCODESIZE ISZERO DUP1 ISZERO PUSH2 0xA39 JUMPI PUSH1 0x0 DUP1 REVERT JUMPDEST POP GAS CALL ISZERO DUP1 ISZERO PUSH2 0xA4D JUMPI RETURNDATASIZE PUSH1 0x0 DUP1 RETURNDATACOPY RETURNDATASIZE PUSH1 0x0 REVERT JUMPDEST POP POP POP POP PUSH1 0x40 MLOAD RETURNDATASIZE PUSH1 0x1F NOT PUSH1 0x1F DUP3 ADD AND DUP3 ADD DUP1 PUSH1 0x40 MSTORE POP DUP2 ADD SWAP1 PUSH2 0xA71 SWAP2 SWAP1 PUSH2 0x2DAF JUMP JUMPDEST SWAP1 POP DUP1 PUSH2 0xA90 JUMPI PUSH1 0x40 MLOAD PUSH3 0x461BCD PUSH1 0xE5 SHL DUP2 MSTORE PUSH1 0x4 ADD PUSH2 0x6B6 SWAP1 PUSH2 0x344C JUMP JUMPDEST DUP9 PUSH1 0x1 PUSH1 0x1 PUSH1 0xA0 SHL SUB AND PUSH32 0x9CDCF2F7714CCA3508C7F0110B04A90A80A3A8DD0E35DE99689DB74D28C5383E DUP9 DUP8 DUP2 SLOAD DUP2 LT PUSH2 0xADB JUMPI PUSH4 0x4E487B71 PUSH1 0xE0 SHL PUSH1 0x0 MSTORE PUSH1 0x32 PUSH1 0x4 MSTORE PUSH1 0x24 PUSH1 0x0 REVERT JUMPDEST SWAP1 PUSH1 0x0 MSTORE PUSH1 0x20 PUSH1 0x0 KECCAK256 SWAP1 PUSH1 0x6 MUL ADD PUSH1 0x0 ADD SLOAD DUP10 DUP9 DUP2 SLOAD DUP2 LT PUSH2 0xB0D JUMPI PUSH4 0x4E487B71 PUSH1 0xE0 SHL PUSH1 0x0 MSTORE PUSH1 0x32 PUSH1 0x4 MSTORE PUSH1 0x24 PUSH1 0x0 REVERT JUMPDEST SWAP1 PUSH1 0x0 MSTORE PUSH1 0x20 PUSH1 0x0 KECCAK256 SWAP1 PUSH1 0x6 MUL ADD PUSH1 0x2 ADD SLOAD DUP7 PUSH1 0x40 MLOAD PUSH2 0xB2F SWAP4 SWAP3 SWAP2 SWAP1 PUSH2 0x36BB JUMP JUMPDEST PUSH1 0x40 MLOAD DUP1 SWAP2 SUB SWAP1 LOG2 PUSH1 0x1 SWAP6 POP POP POP POP POP PUSH2 0xB56 JUMP JUMPDEST DUP1 PUSH2 0xB4E DUP2 PUSH2 0x3772 JUMP JUMPDEST SWAP2 POP POP PUSH2 0x6D6 JUMP JUMPDEST POP DUP1 PUSH2 0xB74 JUMPI PUSH1 0x40 MLOAD PUSH3 0x461BCD PUSH1 0xE5 SHL DUP2 MSTORE PUSH1 0x4 ADD PUSH2 0x6B6 SWAP1 PUSH2 0x32F0 JUMP JUMPDEST POP POP POP POP POP JUMP JUMPDEST PUSH1 0x0 SLOAD PUSH1 0x1 PUSH1 0x1 PUSH1 0xA0 SHL SUB AND CALLER EQ PUSH2 0xBA5 JUMPI PUSH1 0x40 MLOAD PUSH3 0x461BCD PUSH1 0xE5 SHL DUP2 MSTORE PUSH1 0x4 ADD PUSH2 0x6B6 SWAP1 PUSH2 0x32B9 JUMP JUMPDEST PUSH1 0x2 SLOAD PUSH1 0x0 SLOAD PUSH1 0x40 MLOAD PUSH4 0xA9059CBB PUSH1 0xE0 SHL DUP2 MSTORE PUSH1 0x1 PUSH1 0x1 PUSH1 0xA0 SHL SUB SWAP3 DUP4 AND SWAP3 PUSH4 0xA9059CBB SWAP3 PUSH2 0xBDB SWAP3 SWAP2 AND SWAP1 DUP6 SWAP1 PUSH1 0x4 ADD PUSH2 0x2E92 JUMP JUMPDEST PUSH1 0x20 PUSH1 0x40 MLOAD DUP1 DUP4 SUB DUP2 PUSH1 0x0 DUP8 DUP1 EXTCODESIZE ISZERO DUP1 ISZERO PUSH2 0xBF5 JUMPI PUSH1 0x0 DUP1 REVERT JUMPDEST POP GAS CALL ISZERO DUP1 ISZERO PUSH2 0xC09 JUMPI RETURNDATASIZE PUSH1 0x0 DUP1 RETURNDATACOPY RETURNDATASIZE PUSH1 0x0 REVERT JUMPDEST POP POP POP POP PUSH1 0x40 MLOAD RETURNDATASIZE PUSH1 0x1F NOT PUSH1 0x1F DUP3 ADD AND DUP3 ADD DUP1 PUSH1 0x40 MSTORE POP DUP2 ADD SWAP1 PUSH2 0xC2D SWAP2 SWAP1 PUSH2 0x2DAF JUMP JUMPDEST POP POP JUMP JUMPDEST CALLER PUSH1 0x0 SWAP1 DUP2 MSTORE PUSH1 0x3 PUSH1 0x20 MSTORE PUSH1 0x40 SWAP1 KECCAK256 PUSH1 0x4 ADD SLOAD PUSH1 0xFF AND ISZERO PUSH2 0xC64 JUMPI PUSH1 0x40 MLOAD PUSH3 0x461BCD PUSH1 0xE5 SHL DUP2 MSTORE PUSH1 0x4 ADD PUSH2 0x6B6 SWAP1 PUSH2 0x31C5 JUMP JUMPDEST PUSH1 0x1 PUSH1 0x1 PUSH1 0xA0 SHL SUB DUP2 AND CALLER EQ ISZERO PUSH2 0xC8D JUMPI PUSH1 0x40 MLOAD PUSH3 0x461BCD PUSH1 0xE5 SHL DUP2 MSTORE PUSH1 0x4 ADD PUSH2 0x6B6 SWAP1 PUSH2 0x30BC JUMP JUMPDEST PUSH1 0x1 PUSH1 0x1 PUSH1 0xA0 SHL SUB DUP2 AND PUSH1 0x0 SWAP1 DUP2 MSTORE PUSH1 0x3 PUSH1 0x20 MSTORE PUSH1 0x40 SWAP1 KECCAK256 PUSH1 0x4 ADD SLOAD PUSH1 0xFF AND PUSH2 0xCC8 JUMPI PUSH1 0x40 MLOAD PUSH3 0x461BCD PUSH1 0xE5 SHL DUP2 MSTORE PUSH1 0x4 ADD PUSH2 0x6B6 SWAP1 PUSH2 0x305D JUMP JUMPDEST PUSH1 0x1 PUSH1 0x1 PUSH1 0xA0 SHL SUB DUP2 AND PUSH1 0x0 SWAP1 DUP2 MSTORE PUSH1 0x3 PUSH1 0x20 MSTORE PUSH1 0x40 SWAP1 KECCAK256 PUSH1 0x1 ADD SLOAD PUSH2 0xD00 JUMPI PUSH1 0x40 MLOAD PUSH3 0x461BCD PUSH1 0xE5 SHL DUP2 MSTORE PUSH1 0x4 ADD PUSH2 0x6B6 SWAP1 PUSH2 0x347A JUMP JUMPDEST CALLER PUSH1 0x0 DUP2 DUP2 MSTORE PUSH1 0x3 PUSH1 0x20 DUP2 DUP2 MSTORE PUSH1 0x40 DUP1 DUP5 KECCAK256 DUP1 SLOAD PUSH1 0x1 PUSH1 0x1 PUSH1 0xA0 SHL SUB SWAP8 DUP9 AND PUSH1 0x1 PUSH1 0x1 PUSH1 0xA0 SHL SUB NOT SWAP2 DUP3 AND DUP2 OR DUP4 SSTORE PUSH1 0x4 SWAP3 DUP4 ADD DUP1 SLOAD PUSH1 0xFF NOT AND PUSH1 0x1 SWAP1 DUP2 OR SWAP1 SWAP2 SSTORE PUSH1 0x8 DUP1 SLOAD DUP1 DUP4 ADD SWAP1 SWAP2 SSTORE PUSH32 0xF3F7A9FE364FAAB93B216DA50A3214154F22A0A2B415B23A84C8169E8B636EE3 ADD DUP1 SLOAD DUP5 AND DUP11 OR SWAP1 SSTORE SWAP1 DUP8 MSTORE SWAP2 DUP5 MSTORE DUP3 DUP7 KECCAK256 DUP4 MLOAD PUSH1 0x60 DUP2 ADD DUP6 MSTORE SWAP8 DUP9 MSTORE DUP8 DUP6 ADD DUP8 DUP2 MSTORE TIMESTAMP SWAP5 DUP10 ADD SWAP5 DUP6 MSTORE DUP2 SLOAD DUP1 DUP6 ADD DUP4 SSTORE SWAP2 DUP9 MSTORE SWAP5 SWAP1 SWAP7 KECCAK256 SWAP7 MLOAD SWAP6 SWAP1 SWAP5 MUL SWAP1 SWAP6 ADD DUP1 SLOAD SWAP5 SWAP1 SWAP7 AND SWAP4 SWAP1 SWAP3 AND SWAP3 SWAP1 SWAP3 OR DUP5 SSTORE SWAP1 MLOAD SWAP2 DUP4 ADD SWAP2 SWAP1 SWAP2 SSTORE MLOAD PUSH1 0x2 SWAP1 SWAP2 ADD SSTORE JUMP JUMPDEST PUSH1 0x0 SLOAD PUSH1 0x1 PUSH1 0x1 PUSH1 0xA0 SHL SUB AND CALLER EQ PUSH2 0xDFA JUMPI PUSH1 0x40 MLOAD PUSH3 0x461BCD PUSH1 0xE5 SHL DUP2 MSTORE PUSH1 0x4 ADD PUSH2 0x6B6 SWAP1 PUSH2 0x3617 JUMP JUMPDEST PUSH1 0x0 DUP3 GT PUSH2 0xE1A JUMPI PUSH1 0x40 MLOAD PUSH3 0x461BCD PUSH1 0xE5 SHL DUP2 MSTORE PUSH1 0x4 ADD PUSH2 0x6B6 SWAP1 PUSH2 0x364E JUMP JUMPDEST PUSH1 0x0 SWAP2 DUP3 MSTORE PUSH1 0x6 PUSH1 0x20 MSTORE PUSH1 0x40 SWAP1 SWAP2 KECCAK256 SSTORE JUMP JUMPDEST PUSH1 0x1 PUSH1 0x1 PUSH1 0xA0 SHL SUB AND PUSH1 0x0 SWAP1 DUP2 MSTORE PUSH1 0x3 PUSH1 0x20 DUP2 SWAP1 MSTORE PUSH1 0x40 SWAP1 SWAP2 KECCAK256 ADD SLOAD SWAP1 JUMP JUMPDEST PUSH1 0x0 SLOAD PUSH1 0x1 PUSH1 0x1 PUSH1 0xA0 SHL SUB AND CALLER EQ PUSH2 0xE75 JUMPI PUSH1 0x40 MLOAD PUSH3 0x461BCD PUSH1 0xE5 SHL DUP2 MSTORE PUSH1 0x4 ADD PUSH2 0x6B6 SWAP1 PUSH2 0x3617 JUMP JUMPDEST PUSH2 0xC2D PUSH1 0x9 DUP3 PUSH1 0x5 PUSH2 0x2BC3 JUMP JUMPDEST CALLER PUSH1 0x0 SWAP1 DUP2 MSTORE PUSH1 0x3 PUSH1 0x20 MSTORE PUSH1 0x40 SWAP1 KECCAK256 PUSH1 0x4 ADD SLOAD PUSH1 0xFF AND PUSH2 0xEB4 JUMPI PUSH1 0x40 MLOAD PUSH3 0x461BCD PUSH1 0xE5 SHL DUP2 MSTORE PUSH1 0x4 ADD PUSH2 0x6B6 SWAP1 PUSH2 0x3094 JUMP JUMPDEST CALLER PUSH1 0x0 DUP2 DUP2 MSTORE PUSH1 0x3 PUSH1 0x20 MSTORE PUSH1 0x40 DUP2 KECCAK256 SWAP1 PUSH1 0x1 DUP3 ADD SWAP1 DUP1 JUMPDEST DUP3 SLOAD DUP2 LT ISZERO PUSH2 0xB56 JUMPI DUP6 DUP4 DUP3 DUP2 SLOAD DUP2 LT PUSH2 0xEF5 JUMPI PUSH4 0x4E487B71 PUSH1 0xE0 SHL PUSH1 0x0 MSTORE PUSH1 0x32 PUSH1 0x4 MSTORE PUSH1 0x24 PUSH1 0x0 REVERT JUMPDEST SWAP1 PUSH1 0x0 MSTORE PUSH1 0x20 PUSH1 0x0 KECCAK256 SWAP1 PUSH1 0x6 MUL ADD PUSH1 0x1 ADD SLOAD EQ DUP1 ISZERO PUSH2 0xF48 JUMPI POP DUP3 DUP2 DUP2 SLOAD DUP2 LT PUSH2 0xF2F JUMPI PUSH4 0x4E487B71 PUSH1 0xE0 SHL PUSH1 0x0 MSTORE PUSH1 0x32 PUSH1 0x4 MSTORE PUSH1 0x24 PUSH1 0x0 REVERT JUMPDEST PUSH1 0x0 SWAP2 DUP3 MSTORE PUSH1 0x20 SWAP1 SWAP2 KECCAK256 PUSH1 0x5 PUSH1 0x6 SWAP1 SWAP3 MUL ADD ADD SLOAD PUSH1 0xFF AND ISZERO JUMPDEST ISZERO PUSH2 0x12CA JUMPI DUP3 DUP2 DUP2 SLOAD DUP2 LT PUSH2 0xF6D JUMPI PUSH4 0x4E487B71 PUSH1 0xE0 SHL PUSH1 0x0 MSTORE PUSH1 0x32 PUSH1 0x4 MSTORE PUSH1 0x24 PUSH1 0x0 REVERT JUMPDEST SWAP1 PUSH1 0x0 MSTORE PUSH1 0x20 PUSH1 0x0 KECCAK256 SWAP1 PUSH1 0x6 MUL ADD PUSH1 0x3 ADD SLOAD PUSH3 0xD2F00 PUSH2 0xF8D SWAP2 SWAP1 PUSH2 0x36DF JUMP JUMPDEST TIMESTAMP LT ISZERO PUSH2 0xFAC JUMPI PUSH1 0x40 MLOAD PUSH3 0x461BCD PUSH1 0xE5 SHL DUP2 MSTORE PUSH1 0x4 ADD PUSH2 0x6B6 SWAP1 PUSH2 0x34EE JUMP JUMPDEST PUSH1 0x0 DUP4 DUP3 DUP2 SLOAD DUP2 LT PUSH2 0xFCE JUMPI PUSH4 0x4E487B71 PUSH1 0xE0 SHL PUSH1 0x0 MSTORE PUSH1 0x32 PUSH1 0x4 MSTORE PUSH1 0x24 PUSH1 0x0 REVERT JUMPDEST PUSH1 0x0 SWAP2 DUP3 MSTORE PUSH1 0x20 DUP3 KECCAK256 PUSH1 0x2 PUSH1 0x6 SWAP1 SWAP3 MUL ADD ADD SLOAD SWAP2 POP PUSH1 0x64 PUSH2 0xFF0 DUP4 PUSH1 0x5 PUSH2 0x373C JUMP JUMPDEST PUSH2 0xFFA SWAP2 SWAP1 PUSH2 0x371C JUMP JUMPDEST SWAP1 POP PUSH1 0x0 PUSH2 0x1008 DUP3 DUP5 PUSH2 0x375B JUMP JUMPDEST PUSH1 0x2 SLOAD PUSH1 0x40 MLOAD PUSH4 0x70A08231 PUSH1 0xE0 SHL DUP2 MSTORE SWAP2 SWAP3 POP DUP5 SWAP2 PUSH1 0x1 PUSH1 0x1 PUSH1 0xA0 SHL SUB SWAP1 SWAP2 AND SWAP1 PUSH4 0x70A08231 SWAP1 PUSH2 0x103D SWAP1 ADDRESS SWAP1 PUSH1 0x4 ADD PUSH2 0x2E5A JUMP JUMPDEST PUSH1 0x20 PUSH1 0x40 MLOAD DUP1 DUP4 SUB DUP2 DUP7 DUP1 EXTCODESIZE ISZERO DUP1 ISZERO PUSH2 0x1055 JUMPI PUSH1 0x0 DUP1 REVERT JUMPDEST POP GAS STATICCALL ISZERO DUP1 ISZERO PUSH2 0x1069 JUMPI RETURNDATASIZE PUSH1 0x0 DUP1 RETURNDATACOPY RETURNDATASIZE PUSH1 0x0 REVERT JUMPDEST POP POP POP POP PUSH1 0x40 MLOAD RETURNDATASIZE PUSH1 0x1F NOT PUSH1 0x1F DUP3 ADD AND DUP3 ADD DUP1 PUSH1 0x40 MSTORE POP DUP2 ADD SWAP1 PUSH2 0x108D SWAP2 SWAP1 PUSH2 0x2DE7 JUMP JUMPDEST LT ISZERO PUSH2 0x10AB JUMPI PUSH1 0x40 MLOAD PUSH3 0x461BCD PUSH1 0xE5 SHL DUP2 MSTORE PUSH1 0x4 ADD PUSH2 0x6B6 SWAP1 PUSH2 0x35E0 JUMP JUMPDEST PUSH1 0x1 DUP7 DUP6 DUP2 SLOAD DUP2 LT PUSH2 0x10CD JUMPI PUSH4 0x4E487B71 PUSH1 0xE0 SHL PUSH1 0x0 MSTORE PUSH1 0x32 PUSH1 0x4 MSTORE PUSH1 0x24 PUSH1 0x0 REVERT JUMPDEST PUSH1 0x0 SWAP2 DUP3 MSTORE PUSH1 0x20 DUP3 KECCAK256 PUSH1 0x6 SWAP2 SWAP1 SWAP2 MUL ADD PUSH1 0x5 ADD DUP1 SLOAD PUSH1 0xFF NOT AND SWAP3 ISZERO ISZERO SWAP3 SWAP1 SWAP3 OR SWAP1 SWAP2 SSTORE PUSH1 0x2 SLOAD PUSH1 0x40 MLOAD PUSH4 0xA9059CBB PUSH1 0xE0 SHL DUP2 MSTORE PUSH1 0x1 PUSH1 0x1 PUSH1 0xA0 SHL SUB SWAP1 SWAP2 AND SWAP1 PUSH4 0xA9059CBB SWAP1 PUSH2 0x1122 SWAP1 DUP13 SWAP1 DUP7 SWAP1 PUSH1 0x4 ADD PUSH2 0x2E92 JUMP JUMPDEST PUSH1 0x20 PUSH1 0x40 MLOAD DUP1 DUP4 SUB DUP2 PUSH1 0x0 DUP8 DUP1 EXTCODESIZE ISZERO DUP1 ISZERO PUSH2 0x113C JUMPI PUSH1 0x0 DUP1 REVERT JUMPDEST POP GAS CALL ISZERO DUP1 ISZERO PUSH2 0x1150 JUMPI RETURNDATASIZE PUSH1 0x0 DUP1 RETURNDATACOPY RETURNDATASIZE PUSH1 0x0 REVERT JUMPDEST POP POP POP POP PUSH1 0x40 MLOAD RETURNDATASIZE PUSH1 0x1F NOT PUSH1 0x1F DUP3 ADD AND DUP3 ADD DUP1 PUSH1 0x40 MSTORE POP DUP2 ADD SWAP1 PUSH2 0x1174 SWAP2 SWAP1 PUSH2 0x2DAF JUMP JUMPDEST SWAP1 POP DUP1 PUSH2 0x1193 JUMPI PUSH1 0x40 MLOAD PUSH3 0x461BCD PUSH1 0xE5 SHL DUP2 MSTORE PUSH1 0x4 ADD PUSH2 0x6B6 SWAP1 PUSH2 0x357B JUMP JUMPDEST PUSH1 0x2 SLOAD PUSH1 0x40 MLOAD PUSH4 0xA9059CBB PUSH1 0xE0 SHL DUP2 MSTORE PUSH1 0x0 SWAP2 PUSH1 0x1 PUSH1 0x1 PUSH1 0xA0 SHL SUB AND SWAP1 PUSH4 0xA9059CBB SWAP1 PUSH2 0x11DA SWAP1 PUSH20 0x9AB49A6105A768ED88B8AFD9CCA7F6886F739AAD SWAP1 DUP9 SWAP1 PUSH1 0x4 ADD PUSH2 0x2E92 JUMP JUMPDEST PUSH1 0x20 PUSH1 0x40 MLOAD DUP1 DUP4 SUB DUP2 PUSH1 0x0 DUP8 DUP1 EXTCODESIZE ISZERO DUP1 ISZERO PUSH2 0x11F4 JUMPI PUSH1 0x0 DUP1 REVERT JUMPDEST POP GAS CALL ISZERO DUP1 ISZERO PUSH2 0x1208 JUMPI RETURNDATASIZE PUSH1 0x0 DUP1 RETURNDATACOPY RETURNDATASIZE PUSH1 0x0 REVERT JUMPDEST POP POP POP POP PUSH1 0x40 MLOAD RETURNDATASIZE PUSH1 0x1F NOT PUSH1 0x1F DUP3 ADD AND DUP3 ADD DUP1 PUSH1 0x40 MSTORE POP DUP2 ADD SWAP1 PUSH2 0x122C SWAP2 SWAP1 PUSH2 0x2DAF JUMP JUMPDEST SWAP1 POP DUP1 PUSH2 0x124B JUMPI PUSH1 0x40 MLOAD PUSH3 0x461BCD PUSH1 0xE5 SHL DUP2 MSTORE PUSH1 0x4 ADD PUSH2 0x6B6 SWAP1 PUSH2 0x35A9 JUMP JUMPDEST DUP10 PUSH1 0x1 PUSH1 0x1 PUSH1 0xA0 SHL SUB AND PUSH32 0x9CDCF2F7714CCA3508C7F0110B04A90A80A3A8DD0E35DE99689DB74D28C5383E DUP10 DUP9 DUP2 SLOAD DUP2 LT PUSH2 0x1296 JUMPI PUSH4 0x4E487B71 PUSH1 0xE0 SHL PUSH1 0x0 MSTORE PUSH1 0x32 PUSH1 0x4 MSTORE PUSH1 0x24 PUSH1 0x0 REVERT JUMPDEST PUSH1 0x0 SWAP2 DUP3 MSTORE PUSH1 0x20 DUP3 KECCAK256 PUSH1 0x6 SWAP1 SWAP2 MUL ADD SLOAD PUSH1 0x40 MLOAD PUSH2 0x12B4 SWAP3 DUP9 SWAP2 PUSH2 0x36BB JUMP JUMPDEST PUSH1 0x40 MLOAD DUP1 SWAP2 SUB SWAP1 LOG2 PUSH1 0x1 SWAP7 POP POP POP POP POP POP PUSH2 0xB56 JUMP JUMPDEST DUP1 PUSH2 0x12D4 DUP2 PUSH2 0x3772 JUMP JUMPDEST SWAP2 POP POP PUSH2 0xECB JUMP JUMPDEST PUSH1 0x2 SLOAD PUSH1 0x40 MLOAD PUSH4 0x70A08231 PUSH1 0xE0 SHL DUP2 MSTORE PUSH1 0x0 SWAP2 PUSH1 0x1 PUSH1 0x1 PUSH1 0xA0 SHL SUB AND SWAP1 PUSH4 0x70A08231 SWAP1 PUSH2 0x130D SWAP1 ADDRESS SWAP1 PUSH1 0x4 ADD PUSH2 0x2E5A JUMP JUMPDEST PUSH1 0x20 PUSH1 0x40 MLOAD DUP1 DUP4 SUB DUP2 DUP7 DUP1 EXTCODESIZE ISZERO DUP1 ISZERO PUSH2 0x1325 JUMPI PUSH1 0x0 DUP1 REVERT JUMPDEST POP GAS STATICCALL ISZERO DUP1 ISZERO PUSH2 0x1339 JUMPI RETURNDATASIZE PUSH1 0x0 DUP1 RETURNDATACOPY RETURNDATASIZE PUSH1 0x0 REVERT JUMPDEST POP POP POP POP PUSH1 0x40 MLOAD RETURNDATASIZE PUSH1 0x1F NOT PUSH1 0x1F DUP3 ADD AND DUP3 ADD DUP1 PUSH1 0x40 MSTORE POP DUP2 ADD SWAP1 PUSH2 0x135D SWAP2 SWAP1 PUSH2 0x2DE7 JUMP JUMPDEST SWAP1 POP SWAP1 JUMP JUMPDEST PUSH1 0x0 DUP2 DUP2 MSTORE PUSH1 0x5 PUSH1 0x20 MSTORE PUSH1 0x40 DUP2 KECCAK256 SLOAD DUP2 SWAP1 DUP2 SWAP1 DUP2 SWAP1 DUP2 SWAP1 DUP2 SWAP1 DUP2 SWAP1 DUP2 SWAP1 PUSH1 0x1 PUSH1 0x1 PUSH1 0xA0 SHL SUB AND DUP1 PUSH2 0x13A5 JUMPI PUSH1 0x40 MLOAD PUSH3 0x461BCD PUSH1 0xE5 SHL DUP2 MSTORE PUSH1 0x4 ADD PUSH2 0x6B6 SWAP1 PUSH2 0x3678 JUMP JUMPDEST PUSH1 0x1 PUSH1 0x1 PUSH1 0xA0 SHL SUB DUP2 AND PUSH1 0x0 SWAP1 DUP2 MSTORE PUSH1 0x3 PUSH1 0x20 SWAP1 DUP2 MSTORE PUSH1 0x40 DUP1 DUP4 KECCAK256 PUSH1 0x1 ADD DUP1 SLOAD DUP3 MLOAD DUP2 DUP6 MUL DUP2 ADD DUP6 ADD SWAP1 SWAP4 MSTORE DUP1 DUP4 MSTORE SWAP2 SWAP3 SWAP1 SWAP2 SWAP1 DUP5 SWAP1 DUP5 ADD JUMPDEST DUP3 DUP3 LT ISZERO PUSH2 0x144B JUMPI PUSH1 0x0 DUP5 DUP2 MSTORE PUSH1 0x20 SWAP1 DUP2 SWAP1 KECCAK256 PUSH1 0x40 DUP1 MLOAD PUSH1 0xC0 DUP2 ADD DUP3 MSTORE PUSH1 0x6 DUP7 MUL SWAP1 SWAP3 ADD DUP1 SLOAD DUP4 MSTORE PUSH1 0x1 DUP1 DUP3 ADD SLOAD DUP5 DUP7 ADD MSTORE PUSH1 0x2 DUP3 ADD SLOAD SWAP3 DUP5 ADD SWAP3 SWAP1 SWAP3 MSTORE PUSH1 0x3 DUP2 ADD SLOAD PUSH1 0x60 DUP5 ADD MSTORE PUSH1 0x4 DUP2 ADD SLOAD PUSH1 0x80 DUP5 ADD MSTORE PUSH1 0x5 ADD SLOAD PUSH1 0xFF AND ISZERO ISZERO PUSH1 0xA0 DUP4 ADD MSTORE SWAP1 DUP4 MSTORE SWAP1 SWAP3 ADD SWAP2 ADD PUSH2 0x13DE JUMP JUMPDEST POP POP POP POP SWAP1 POP PUSH1 0x0 JUMPDEST DUP2 MLOAD DUP2 LT ISZERO PUSH2 0x1583 JUMPI DUP12 DUP3 DUP3 DUP2 MLOAD DUP2 LT PUSH2 0x147E JUMPI PUSH4 0x4E487B71 PUSH1 0xE0 SHL PUSH1 0x0 MSTORE PUSH1 0x32 PUSH1 0x4 MSTORE PUSH1 0x24 PUSH1 0x0 REVERT JUMPDEST PUSH1 0x20 MUL PUSH1 0x20 ADD ADD MLOAD PUSH1 0x20 ADD MLOAD EQ ISZERO PUSH2 0x1571 JUMPI PUSH1 0x0 DUP3 DUP3 DUP2 MLOAD DUP2 LT PUSH2 0x14B2 JUMPI PUSH4 0x4E487B71 PUSH1 0xE0 SHL PUSH1 0x0 MSTORE PUSH1 0x32 PUSH1 0x4 MSTORE PUSH1 0x24 PUSH1 0x0 REVERT JUMPDEST PUSH1 0x20 MUL PUSH1 0x20 ADD ADD MLOAD SWAP1 POP PUSH1 0x0 PUSH1 0x6 PUSH1 0x0 DUP4 PUSH1 0x80 ADD MLOAD DUP2 MSTORE PUSH1 0x20 ADD SWAP1 DUP2 MSTORE PUSH1 0x20 ADD PUSH1 0x0 KECCAK256 SLOAD SWAP1 POP PUSH1 0x0 DUP3 PUSH1 0x80 ADD MLOAD PUSH3 0x15180 PUSH2 0x14ED SWAP2 SWAP1 PUSH2 0x373C JUMP JUMPDEST DUP4 PUSH1 0x60 ADD MLOAD PUSH2 0x14FC SWAP2 SWAP1 PUSH2 0x36DF JUMP JUMPDEST SWAP1 POP PUSH1 0x0 DUP4 PUSH1 0xA0 ADD MLOAD ISZERO DUP1 ISZERO PUSH2 0x1511 JUMPI POP DUP2 TIMESTAMP LT JUMPDEST SWAP1 POP PUSH1 0x0 PUSH2 0x16D PUSH1 0x64 DUP6 DUP8 PUSH1 0x40 ADD MLOAD PUSH2 0x152A SWAP2 SWAP1 PUSH2 0x373C JUMP JUMPDEST PUSH2 0x1534 SWAP2 SWAP1 PUSH2 0x371C JUMP JUMPDEST PUSH2 0x153E SWAP2 SWAP1 PUSH2 0x371C JUMP JUMPDEST SWAP1 POP DUP8 DUP6 PUSH1 0x0 ADD MLOAD DUP7 PUSH1 0x40 ADD MLOAD DUP8 PUSH1 0x60 ADD MLOAD DUP7 DUP9 DUP7 DUP9 SWAP16 POP SWAP16 POP SWAP16 POP SWAP16 POP SWAP16 POP SWAP16 POP SWAP16 POP SWAP16 POP POP POP POP POP POP POP POP POP PUSH2 0x159C JUMP JUMPDEST DUP1 PUSH2 0x157B DUP2 PUSH2 0x3772 JUMP JUMPDEST SWAP2 POP POP PUSH2 0x1454 JUMP JUMPDEST POP PUSH1 0x40 MLOAD PUSH3 0x461BCD PUSH1 0xE5 SHL DUP2 MSTORE PUSH1 0x4 ADD PUSH2 0x6B6 SWAP1 PUSH2 0x34C5 JUMP JUMPDEST SWAP2 SWAP4 SWAP6 SWAP8 POP SWAP2 SWAP4 SWAP6 SWAP8 JUMP JUMPDEST CALLER PUSH1 0x0 SWAP1 DUP2 MSTORE PUSH1 0x3 PUSH1 0x20 MSTORE PUSH1 0x40 SWAP1 KECCAK256 PUSH1 0x4 ADD SLOAD PUSH1 0xFF AND PUSH2 0x15D9 JUMPI PUSH1 0x40 MLOAD PUSH3 0x461BCD PUSH1 0xE5 SHL DUP2 MSTORE PUSH1 0x4 ADD PUSH2 0x6B6 SWAP1 PUSH2 0x3094 JUMP JUMPDEST PUSH1 0x0 DUP2 GT PUSH2 0x15F9 JUMPI PUSH1 0x40 MLOAD PUSH3 0x461BCD PUSH1 0xE5 SHL DUP2 MSTORE PUSH1 0x4 ADD PUSH2 0x6B6 SWAP1 PUSH2 0x3538 JUMP JUMPDEST PUSH1 0x0 DUP3 DUP2 MSTORE PUSH1 0x6 PUSH1 0x20 MSTORE PUSH1 0x40 SWAP1 KECCAK256 SLOAD PUSH2 0x1624 JUMPI PUSH1 0x40 MLOAD PUSH3 0x461BCD PUSH1 0xE5 SHL DUP2 MSTORE PUSH1 0x4 ADD PUSH2 0x6B6 SWAP1 PUSH2 0x3361 JUMP JUMPDEST CALLER PUSH1 0x0 SWAP1 DUP2 MSTORE PUSH1 0x3 PUSH1 0x20 MSTORE PUSH1 0x40 SWAP1 KECCAK256 SLOAD PUSH1 0x1 PUSH1 0x1 PUSH1 0xA0 SHL SUB AND DUP1 ISZERO PUSH2 0x167B JUMPI PUSH1 0x1 PUSH1 0x1 PUSH1 0xA0 SHL SUB DUP2 AND PUSH1 0x0 SWAP1 DUP2 MSTORE PUSH1 0x3 PUSH1 0x20 MSTORE PUSH1 0x40 SWAP1 KECCAK256 PUSH1 0x1 ADD SLOAD PUSH2 0x167B JUMPI PUSH1 0x40 MLOAD PUSH3 0x461BCD PUSH1 0xE5 SHL DUP2 MSTORE PUSH1 0x4 ADD PUSH2 0x6B6 SWAP1 PUSH2 0x3271 JUMP JUMPDEST PUSH1 0x2 SLOAD PUSH1 0x40 MLOAD PUSH4 0x23B872DD PUSH1 0xE0 SHL DUP2 MSTORE PUSH1 0x0 SWAP2 PUSH1 0x1 PUSH1 0x1 PUSH1 0xA0 SHL SUB AND SWAP1 PUSH4 0x23B872DD SWAP1 PUSH2 0x16B0 SWAP1 CALLER SWAP1 ADDRESS SWAP1 DUP9 SWAP1 PUSH1 0x4 ADD PUSH2 0x2E6E JUMP JUMPDEST PUSH1 0x20 PUSH1 0x40 MLOAD DUP1 DUP4 SUB DUP2 PUSH1 0x0 DUP8 DUP1 EXTCODESIZE ISZERO DUP1 ISZERO PUSH2 0x16CA JUMPI PUSH1 0x0 DUP1 REVERT JUMPDEST POP GAS CALL ISZERO DUP1 ISZERO PUSH2 0x16DE JUMPI RETURNDATASIZE PUSH1 0x0 DUP1 RETURNDATACOPY RETURNDATASIZE PUSH1 0x0 REVERT JUMPDEST POP POP POP POP PUSH1 0x40 MLOAD RETURNDATASIZE PUSH1 0x1F NOT PUSH1 0x1F DUP3 ADD AND DUP3 ADD DUP1 PUSH1 0x40 MSTORE POP DUP2 ADD SWAP1 PUSH2 0x1702 SWAP2 SWAP1 PUSH2 0x2DAF JUMP JUMPDEST SWAP1 POP DUP1 PUSH2 0x1721 JUMPI PUSH1 0x40 MLOAD PUSH3 0x461BCD PUSH1 0xE5 SHL DUP2 MSTORE PUSH1 0x4 ADD PUSH2 0x6B6 SWAP1 PUSH2 0x344C JUMP JUMPDEST PUSH1 0x0 PUSH1 0x1 PUSH1 0x0 DUP2 SLOAD PUSH2 0x1732 SWAP1 PUSH2 0x3772 JUMP JUMPDEST SWAP2 SWAP1 POP DUP2 SWAP1 SSTORE SWAP1 POP PUSH1 0x3 PUSH1 0x0 CALLER PUSH1 0x1 PUSH1 0x1 PUSH1 0xA0 SHL SUB AND PUSH1 0x1 PUSH1 0x1 PUSH1 0xA0 SHL SUB AND DUP2 MSTORE PUSH1 0x20 ADD SWAP1 DUP2 MSTORE PUSH1 0x20 ADD PUSH1 0x0 KECCAK256 PUSH1 0x1 ADD PUSH1 0x40 MLOAD DUP1 PUSH1 0xC0 ADD PUSH1 0x40 MSTORE DUP1 PUSH1 0x1 SLOAD DUP2 MSTORE PUSH1 0x20 ADD DUP4 DUP2 MSTORE PUSH1 0x20 ADD DUP7 DUP2 MSTORE PUSH1 0x20 ADD TIMESTAMP DUP2 MSTORE PUSH1 0x20 ADD DUP8 DUP2 MSTORE PUSH1 0x20 ADD PUSH1 0x0 ISZERO ISZERO DUP2 MSTORE POP SWAP1 DUP1 PUSH1 0x1 DUP2 SLOAD ADD DUP1 DUP3 SSTORE DUP1 SWAP2 POP POP PUSH1 0x1 SWAP1 SUB SWAP1 PUSH1 0x0 MSTORE PUSH1 0x20 PUSH1 0x0 KECCAK256 SWAP1 PUSH1 0x6 MUL ADD PUSH1 0x0 SWAP1 SWAP2 SWAP1 SWAP2 SWAP1 SWAP2 POP PUSH1 0x0 DUP3 ADD MLOAD DUP2 PUSH1 0x0 ADD SSTORE PUSH1 0x20 DUP3 ADD MLOAD DUP2 PUSH1 0x1 ADD SSTORE PUSH1 0x40 DUP3 ADD MLOAD DUP2 PUSH1 0x2 ADD SSTORE PUSH1 0x60 DUP3 ADD MLOAD DUP2 PUSH1 0x3 ADD SSTORE PUSH1 0x80 DUP3 ADD MLOAD DUP2 PUSH1 0x4 ADD SSTORE PUSH1 0xA0 DUP3 ADD MLOAD DUP2 PUSH1 0x5 ADD PUSH1 0x0 PUSH2 0x100 EXP DUP2 SLOAD DUP2 PUSH1 0xFF MUL NOT AND SWAP1 DUP4 ISZERO ISZERO MUL OR SWAP1 SSTORE POP POP POP CALLER PUSH1 0x5 PUSH1 0x0 DUP4 DUP2 MSTORE PUSH1 0x20 ADD SWAP1 DUP2 MSTORE PUSH1 0x20 ADD PUSH1 0x0 KECCAK256 PUSH1 0x0 PUSH2 0x100 EXP DUP2 SLOAD DUP2 PUSH1 0x1 PUSH1 0x1 PUSH1 0xA0 SHL SUB MUL NOT AND SWAP1 DUP4 PUSH1 0x1 PUSH1 0x1 PUSH1 0xA0 SHL SUB AND MUL OR SWAP1 SSTORE POP PUSH1 0x0 PUSH1 0x3 PUSH1 0x0 CALLER PUSH1 0x1 PUSH1 0x1 PUSH1 0xA0 SHL SUB AND PUSH1 0x1 PUSH1 0x1 PUSH1 0xA0 SHL SUB AND DUP2 MSTORE PUSH1 0x20 ADD SWAP1 DUP2 MSTORE PUSH1 0x20 ADD PUSH1 0x0 KECCAK256 PUSH1 0x1 ADD DUP1 SLOAD SWAP1 POP PUSH1 0x1 EQ SWAP1 POP PUSH1 0x0 PUSH1 0x3 PUSH1 0x0 CALLER PUSH1 0x1 PUSH1 0x1 PUSH1 0xA0 SHL SUB AND PUSH1 0x1 PUSH1 0x1 PUSH1 0xA0 SHL SUB AND DUP2 MSTORE PUSH1 0x20 ADD SWAP1 DUP2 MSTORE PUSH1 0x20 ADD PUSH1 0x0 KECCAK256 PUSH1 0x0 ADD PUSH1 0x0 SWAP1 SLOAD SWAP1 PUSH2 0x100 EXP SWAP1 DIV PUSH1 0x1 PUSH1 0x1 PUSH1 0xA0 SHL SUB AND SWAP1 POP PUSH1 0x0 JUMPDEST PUSH1 0x5 DUP2 PUSH1 0xFF AND LT DUP1 ISZERO PUSH2 0x18DA JUMPI POP PUSH1 0x1 PUSH1 0x1 PUSH1 0xA0 SHL SUB DUP3 AND ISZERO ISZERO JUMPDEST ISZERO PUSH2 0x2171 JUMPI PUSH1 0x0 PUSH1 0xFF DUP3 AND PUSH2 0x1E72 JUMPI DUP4 ISZERO PUSH2 0x1C75 JUMPI PUSH1 0x0 PUSH1 0x64 PUSH2 0x18FE DUP11 PUSH1 0x5 PUSH2 0x373C JUMP JUMPDEST PUSH2 0x1908 SWAP2 SWAP1 PUSH2 0x371C JUMP JUMPDEST SWAP1 POP PUSH1 0x0 PUSH1 0x64 PUSH2 0x1919 DUP12 PUSH1 0x5 PUSH2 0x373C JUMP JUMPDEST PUSH2 0x1923 SWAP2 SWAP1 PUSH2 0x371C JUMP JUMPDEST PUSH1 0x2 SLOAD PUSH1 0x40 MLOAD PUSH4 0x70A08231 PUSH1 0xE0 SHL DUP2 MSTORE SWAP2 SWAP3 POP DUP4 SWAP2 PUSH1 0x1 PUSH1 0x1 PUSH1 0xA0 SHL SUB SWAP1 SWAP2 AND SWAP1 PUSH4 0x70A08231 SWAP1 PUSH2 0x1958 SWAP1 ADDRESS SWAP1 PUSH1 0x4 ADD PUSH2 0x2E5A JUMP JUMPDEST PUSH1 0x20 PUSH1 0x40 MLOAD DUP1 DUP4 SUB DUP2 DUP7 DUP1 EXTCODESIZE ISZERO DUP1 ISZERO PUSH2 0x1970 JUMPI PUSH1 0x0 DUP1 REVERT JUMPDEST POP GAS STATICCALL ISZERO DUP1 ISZERO PUSH2 0x1984 JUMPI RETURNDATASIZE PUSH1 0x0 DUP1 RETURNDATACOPY RETURNDATASIZE PUSH1 0x0 REVERT JUMPDEST POP POP POP POP PUSH1 0x40 MLOAD RETURNDATASIZE PUSH1 0x1F NOT PUSH1 0x1F DUP3 ADD AND DUP3 ADD DUP1 PUSH1 0x40 MSTORE POP DUP2 ADD SWAP1 PUSH2 0x19A8 SWAP2 SWAP1 PUSH2 0x2DE7 JUMP JUMPDEST LT ISZERO PUSH2 0x19C6 JUMPI PUSH1 0x40 MLOAD PUSH3 0x461BCD PUSH1 0xE5 SHL DUP2 MSTORE PUSH1 0x4 ADD PUSH2 0x6B6 SWAP1 PUSH2 0x33CF JUMP JUMPDEST PUSH1 0x2 SLOAD PUSH1 0x40 MLOAD PUSH4 0xA9059CBB PUSH1 0xE0 SHL DUP2 MSTORE PUSH1 0x0 SWAP2 PUSH1 0x1 PUSH1 0x1 PUSH1 0xA0 SHL SUB AND SWAP1 PUSH4 0xA9059CBB SWAP1 PUSH2 0x19F9 SWAP1 DUP10 SWAP1 DUP8 SWAP1 PUSH1 0x4 ADD PUSH2 0x2E92 JUMP JUMPDEST PUSH1 0x20 PUSH1 0x40 MLOAD DUP1 DUP4 SUB DUP2 PUSH1 0x0 DUP8 DUP1 EXTCODESIZE ISZERO DUP1 ISZERO PUSH2 0x1A13 JUMPI PUSH1 0x0 DUP1 REVERT JUMPDEST POP GAS CALL ISZERO DUP1 ISZERO PUSH2 0x1A27 JUMPI RETURNDATASIZE PUSH1 0x0 DUP1 RETURNDATACOPY RETURNDATASIZE PUSH1 0x0 REVERT JUMPDEST POP POP POP POP PUSH1 0x40 MLOAD RETURNDATASIZE PUSH1 0x1F NOT PUSH1 0x1F DUP3 ADD AND DUP3 ADD DUP1 PUSH1 0x40 MSTORE POP DUP2 ADD SWAP1 PUSH2 0x1A4B SWAP2 SWAP1 PUSH2 0x2DAF JUMP JUMPDEST SWAP1 POP DUP1 PUSH2 0x1A6A JUMPI PUSH1 0x40 MLOAD PUSH3 0x461BCD PUSH1 0xE5 SHL DUP2 MSTORE PUSH1 0x4 ADD PUSH2 0x6B6 SWAP1 PUSH2 0x30EB JUMP JUMPDEST PUSH1 0x1 PUSH1 0x1 PUSH1 0xA0 SHL SUB DUP7 AND PUSH1 0x0 SWAP1 DUP2 MSTORE PUSH1 0x7 PUSH1 0x20 MSTORE PUSH1 0x40 DUP2 KECCAK256 DUP1 SLOAD DUP6 SWAP3 SWAP1 PUSH2 0x1A92 SWAP1 DUP5 SWAP1 PUSH2 0x36DF JUMP JUMPDEST SWAP1 SWAP2 SSTORE POP POP PUSH1 0x1 PUSH1 0x1 PUSH1 0xA0 SHL SUB DUP7 AND PUSH1 0x0 SWAP1 DUP2 MSTORE PUSH1 0x3 PUSH1 0x20 MSTORE PUSH1 0x40 DUP2 KECCAK256 PUSH1 0x2 ADD DUP1 SLOAD DUP6 SWAP3 SWAP1 PUSH2 0x1AC2 SWAP1 DUP5 SWAP1 PUSH2 0x36DF JUMP JUMPDEST SWAP1 SWAP2 SSTORE POP POP PUSH1 0x2 SLOAD PUSH1 0x40 MLOAD PUSH4 0x70A08231 PUSH1 0xE0 SHL DUP2 MSTORE DUP4 SWAP2 PUSH1 0x1 PUSH1 0x1 PUSH1 0xA0 SHL SUB AND SWAP1 PUSH4 0x70A08231 SWAP1 PUSH2 0x1AF7 SWAP1 ADDRESS SWAP1 PUSH1 0x4 ADD PUSH2 0x2E5A JUMP JUMPDEST PUSH1 0x20 PUSH1 0x40 MLOAD DUP1 DUP4 SUB DUP2 DUP7 DUP1 EXTCODESIZE ISZERO DUP1 ISZERO PUSH2 0x1B0F JUMPI PUSH1 0x0 DUP1 REVERT JUMPDEST POP GAS STATICCALL ISZERO DUP1 ISZERO PUSH2 0x1B23 JUMPI RETURNDATASIZE PUSH1 0x0 DUP1 RETURNDATACOPY RETURNDATASIZE PUSH1 0x0 REVERT JUMPDEST POP POP POP POP PUSH1 0x40 MLOAD RETURNDATASIZE PUSH1 0x1F NOT PUSH1 0x1F DUP3 ADD AND DUP3 ADD DUP1 PUSH1 0x40 MSTORE POP DUP2 ADD SWAP1 PUSH2 0x1B47 SWAP2 SWAP1 PUSH2 0x2DE7 JUMP JUMPDEST LT ISZERO PUSH2 0x1B65 JUMPI PUSH1 0x40 MLOAD PUSH3 0x461BCD PUSH1 0xE5 SHL DUP2 MSTORE PUSH1 0x4 ADD PUSH2 0x6B6 SWAP1 PUSH2 0x3228 JUMP JUMPDEST PUSH1 0x2 SLOAD PUSH1 0x40 MLOAD PUSH4 0xA9059CBB PUSH1 0xE0 SHL DUP2 MSTORE PUSH1 0x0 SWAP2 PUSH1 0x1 PUSH1 0x1 PUSH1 0xA0 SHL SUB AND SWAP1 PUSH4 0xA9059CBB SWAP1 PUSH2 0x1B98 SWAP1 DUP11 SWAP1 DUP8 SWAP1 PUSH1 0x4 ADD PUSH2 0x2E92 JUMP JUMPDEST PUSH1 0x20 PUSH1 0x40 MLOAD DUP1 DUP4 SUB DUP2 PUSH1 0x0 DUP8 DUP1 EXTCODESIZE ISZERO DUP1 ISZERO PUSH2 0x1BB2 JUMPI PUSH1 0x0 DUP1 REVERT JUMPDEST POP GAS CALL ISZERO DUP1 ISZERO PUSH2 0x1BC6 JUMPI RETURNDATASIZE PUSH1 0x0 DUP1 RETURNDATACOPY RETURNDATASIZE PUSH1 0x0 REVERT JUMPDEST POP POP POP POP PUSH1 0x40 MLOAD RETURNDATASIZE PUSH1 0x1F NOT PUSH1 0x1F DUP3 ADD AND DUP3 ADD DUP1 PUSH1 0x40 MSTORE POP DUP2 ADD SWAP1 PUSH2 0x1BEA SWAP2 SWAP1 PUSH2 0x2DAF JUMP JUMPDEST SWAP1 POP DUP1 PUSH2 0x1C09 JUMPI PUSH1 0x40 MLOAD PUSH3 0x461BCD PUSH1 0xE5 SHL DUP2 MSTORE PUSH1 0x4 ADD PUSH2 0x6B6 SWAP1 PUSH2 0x3122 JUMP JUMPDEST PUSH1 0x1 PUSH1 0x1 PUSH1 0xA0 SHL SUB DUP8 AND PUSH1 0x0 SWAP1 DUP2 MSTORE PUSH1 0x3 PUSH1 0x20 MSTORE PUSH1 0x40 DUP2 KECCAK256 PUSH1 0x2 ADD DUP1 SLOAD DUP6 SWAP3 SWAP1 PUSH2 0x1C34 SWAP1 DUP5 SWAP1 PUSH2 0x36DF JUMP JUMPDEST SWAP1 SWAP2 SSTORE POP POP PUSH1 0x1 PUSH1 0x1 PUSH1 0xA0 SHL SUB DUP8 AND PUSH1 0x0 SWAP1 DUP2 MSTORE PUSH1 0x3 PUSH1 0x20 DUP2 SWAP1 MSTORE PUSH1 0x40 DUP3 KECCAK256 ADD DUP1 SLOAD DUP6 SWAP3 SWAP1 PUSH2 0x1C64 SWAP1 DUP5 SWAP1 PUSH2 0x36DF JUMP JUMPDEST SWAP1 SWAP2 SSTORE POP SWAP3 SWAP5 POP PUSH2 0x1E6D SWAP4 POP POP POP POP JUMP JUMPDEST PUSH1 0x64 PUSH1 0x9 DUP4 PUSH1 0xFF AND PUSH1 0x5 DUP2 LT PUSH2 0x1C9B JUMPI PUSH4 0x4E487B71 PUSH1 0xE0 SHL PUSH1 0x0 MSTORE PUSH1 0x32 PUSH1 0x4 MSTORE PUSH1 0x24 PUSH1 0x0 REVERT JUMPDEST PUSH1 0x20 DUP2 DIV SWAP2 SWAP1 SWAP2 ADD SLOAD PUSH2 0x1CBA SWAP2 PUSH1 0x1F AND PUSH2 0x100 EXP SWAP1 DIV PUSH1 0xFF AND DUP11 PUSH2 0x373C JUMP JUMPDEST PUSH2 0x1CC4 SWAP2 SWAP1 PUSH2 0x371C JUMP JUMPDEST PUSH1 0x2 SLOAD PUSH1 0x40 MLOAD PUSH4 0x70A08231 PUSH1 0xE0 SHL DUP2 MSTORE SWAP2 SWAP3 POP DUP3 SWAP2 PUSH1 0x1 PUSH1 0x1 PUSH1 0xA0 SHL SUB SWAP1 SWAP2 AND SWAP1 PUSH4 0x70A08231 SWAP1 PUSH2 0x1CF9 SWAP1 ADDRESS SWAP1 PUSH1 0x4 ADD PUSH2 0x2E5A JUMP JUMPDEST PUSH1 0x20 PUSH1 0x40 MLOAD DUP1 DUP4 SUB DUP2 DUP7 DUP1 EXTCODESIZE ISZERO DUP1 ISZERO PUSH2 0x1D11 JUMPI PUSH1 0x0 DUP1 REVERT JUMPDEST POP GAS STATICCALL ISZERO DUP1 ISZERO PUSH2 0x1D25 JUMPI RETURNDATASIZE PUSH1 0x0 DUP1 RETURNDATACOPY RETURNDATASIZE PUSH1 0x0 REVERT JUMPDEST POP POP POP POP PUSH1 0x40 MLOAD RETURNDATASIZE PUSH1 0x1F NOT PUSH1 0x1F DUP3 ADD AND DUP3 ADD DUP1 PUSH1 0x40 MSTORE POP DUP2 ADD SWAP1 PUSH2 0x1D49 SWAP2 SWAP1 PUSH2 0x2DE7 JUMP JUMPDEST LT ISZERO PUSH2 0x1D67 JUMPI PUSH1 0x40 MLOAD PUSH3 0x461BCD PUSH1 0xE5 SHL DUP2 MSTORE PUSH1 0x4 ADD PUSH2 0x6B6 SWAP1 PUSH2 0x35E0 JUMP JUMPDEST PUSH1 0x2 SLOAD PUSH1 0x40 MLOAD PUSH4 0xA9059CBB PUSH1 0xE0 SHL DUP2 MSTORE PUSH1 0x0 SWAP2 PUSH1 0x1 PUSH1 0x1 PUSH1 0xA0 SHL SUB AND SWAP1 PUSH4 0xA9059CBB SWAP1 PUSH2 0x1D9A SWAP1 DUP8 SWAP1 DUP7 SWAP1 PUSH1 0x4 ADD PUSH2 0x2E92 JUMP JUMPDEST PUSH1 0x20 PUSH1 0x40 MLOAD DUP1 DUP4 SUB DUP2 PUSH1 0x0 DUP8 DUP1 EXTCODESIZE ISZERO DUP1 ISZERO PUSH2 0x1DB4 JUMPI PUSH1 0x0 DUP1 REVERT JUMPDEST POP GAS CALL ISZERO DUP1 ISZERO PUSH2 0x1DC8 JUMPI RETURNDATASIZE PUSH1 0x0 DUP1 RETURNDATACOPY RETURNDATASIZE PUSH1 0x0 REVERT JUMPDEST POP POP POP POP PUSH1 0x40 MLOAD RETURNDATASIZE PUSH1 0x1F NOT PUSH1 0x1F DUP3 ADD AND DUP3 ADD DUP1 PUSH1 0x40 MSTORE POP DUP2 ADD SWAP1 PUSH2 0x1DEC SWAP2 SWAP1 PUSH2 0x2DAF JUMP JUMPDEST SWAP1 POP DUP1 PUSH2 0x1E0B JUMPI PUSH1 0x40 MLOAD PUSH3 0x461BCD PUSH1 0xE5 SHL DUP2 MSTORE PUSH1 0x4 ADD PUSH2 0x6B6 SWAP1 PUSH2 0x3122 JUMP JUMPDEST PUSH1 0x1 PUSH1 0x1 PUSH1 0xA0 SHL SUB DUP5 AND PUSH1 0x0 SWAP1 DUP2 MSTORE PUSH1 0x3 PUSH1 0x20 MSTORE PUSH1 0x40 DUP2 KECCAK256 PUSH1 0x2 ADD DUP1 SLOAD DUP5 SWAP3 SWAP1 PUSH2 0x1E36 SWAP1 DUP5 SWAP1 PUSH2 0x36DF JUMP JUMPDEST SWAP1 SWAP2 SSTORE POP POP PUSH1 0x1 PUSH1 0x1 PUSH1 0xA0 SHL SUB DUP5 AND PUSH1 0x0 SWAP1 DUP2 MSTORE PUSH1 0x3 PUSH1 0x20 DUP2 SWAP1 MSTORE PUSH1 0x40 DUP3 KECCAK256 ADD DUP1 SLOAD DUP5 SWAP3 SWAP1 PUSH2 0x1E66 SWAP1 DUP5 SWAP1 PUSH2 0x36DF JUMP JUMPDEST SWAP1 SWAP2 SSTORE POP POP POP JUMPDEST PUSH2 0x206A JUMP JUMPDEST PUSH1 0x64 PUSH1 0x9 DUP4 PUSH1 0xFF AND PUSH1 0x5 DUP2 LT PUSH2 0x1E98 JUMPI PUSH4 0x4E487B71 PUSH1 0xE0 SHL PUSH1 0x0 MSTORE PUSH1 0x32 PUSH1 0x4 MSTORE PUSH1 0x24 PUSH1 0x0 REVERT JUMPDEST PUSH1 0x20 DUP2 DIV SWAP2 SWAP1 SWAP2 ADD SLOAD PUSH2 0x1EB7 SWAP2 PUSH1 0x1F AND PUSH2 0x100 EXP SWAP1 DIV PUSH1 0xFF AND DUP11 PUSH2 0x373C JUMP JUMPDEST PUSH2 0x1EC1 SWAP2 SWAP1 PUSH2 0x371C JUMP JUMPDEST PUSH1 0x2 SLOAD PUSH1 0x40 MLOAD PUSH4 0x70A08231 PUSH1 0xE0 SHL DUP2 MSTORE SWAP2 SWAP3 POP DUP3 SWAP2 PUSH1 0x1 PUSH1 0x1 PUSH1 0xA0 SHL SUB SWAP1 SWAP2 AND SWAP1 PUSH4 0x70A08231 SWAP1 PUSH2 0x1EF6 SWAP1 ADDRESS SWAP1 PUSH1 0x4 ADD PUSH2 0x2E5A JUMP JUMPDEST PUSH1 0x20 PUSH1 0x40 MLOAD DUP1 DUP4 SUB DUP2 DUP7 DUP1 EXTCODESIZE ISZERO DUP1 ISZERO PUSH2 0x1F0E JUMPI PUSH1 0x0 DUP1 REVERT JUMPDEST POP GAS STATICCALL ISZERO DUP1 ISZERO PUSH2 0x1F22 JUMPI RETURNDATASIZE PUSH1 0x0 DUP1 RETURNDATACOPY RETURNDATASIZE PUSH1 0x0 REVERT JUMPDEST POP POP POP POP PUSH1 0x40 MLOAD RETURNDATASIZE PUSH1 0x1F NOT PUSH1 0x1F DUP3 ADD AND DUP3 ADD DUP1 PUSH1 0x40 MSTORE POP DUP2 ADD SWAP1 PUSH2 0x1F46 SWAP2 SWAP1 PUSH2 0x2DE7 JUMP JUMPDEST LT ISZERO PUSH2 0x1F64 JUMPI PUSH1 0x40 MLOAD PUSH3 0x461BCD PUSH1 0xE5 SHL DUP2 MSTORE PUSH1 0x4 ADD PUSH2 0x6B6 SWAP1 PUSH2 0x35E0 JUMP JUMPDEST PUSH1 0x2 SLOAD PUSH1 0x40 MLOAD PUSH4 0xA9059CBB PUSH1 0xE0 SHL DUP2 MSTORE PUSH1 0x0 SWAP2 PUSH1 0x1 PUSH1 0x1 PUSH1 0xA0 SHL SUB AND SWAP1 PUSH4 0xA9059CBB SWAP1 PUSH2 0x1F97 SWAP1 DUP8 SWAP1 DUP7 SWAP1 PUSH1 0x4 ADD PUSH2 0x2E92 JUMP JUMPDEST PUSH1 0x20 PUSH1 0x40 MLOAD DUP1 DUP4 SUB DUP2 PUSH1 0x0 DUP8 DUP1 EXTCODESIZE ISZERO DUP1 ISZERO PUSH2 0x1FB1 JUMPI PUSH1 0x0 DUP1 REVERT JUMPDEST POP GAS CALL ISZERO DUP1 ISZERO PUSH2 0x1FC5 JUMPI RETURNDATASIZE PUSH1 0x0 DUP1 RETURNDATACOPY RETURNDATASIZE PUSH1 0x0 REVERT JUMPDEST POP POP POP POP PUSH1 0x40 MLOAD RETURNDATASIZE PUSH1 0x1F NOT PUSH1 0x1F DUP3 ADD AND DUP3 ADD DUP1 PUSH1 0x40 MSTORE POP DUP2 ADD SWAP1 PUSH2 0x1FE9 SWAP2 SWAP1 PUSH2 0x2DAF JUMP JUMPDEST SWAP1 POP DUP1 PUSH2 0x2008 JUMPI PUSH1 0x40 MLOAD PUSH3 0x461BCD PUSH1 0xE5 SHL DUP2 MSTORE PUSH1 0x4 ADD PUSH2 0x6B6 SWAP1 PUSH2 0x31F1 JUMP JUMPDEST PUSH1 0x1 PUSH1 0x1 PUSH1 0xA0 SHL SUB DUP5 AND PUSH1 0x0 SWAP1 DUP2 MSTORE PUSH1 0x3 PUSH1 0x20 MSTORE PUSH1 0x40 DUP2 KECCAK256 PUSH1 0x2 ADD DUP1 SLOAD DUP5 SWAP3 SWAP1 PUSH2 0x2033 SWAP1 DUP5 SWAP1 PUSH2 0x36DF JUMP JUMPDEST SWAP1 SWAP2 SSTORE POP POP PUSH1 0x1 PUSH1 0x1 PUSH1 0xA0 SHL SUB DUP5 AND PUSH1 0x0 SWAP1 DUP2 MSTORE PUSH1 0x3 PUSH1 0x20 DUP2 SWAP1 MSTORE PUSH1 0x40 DUP3 KECCAK256 ADD DUP1 SLOAD DUP5 SWAP3 SWAP1 PUSH2 0x2063 SWAP1 DUP5 SWAP1 PUSH2 0x36DF JUMP JUMPDEST SWAP1 SWAP2 SSTORE POP POP POP JUMPDEST PUSH1 0xFF DUP3 AND PUSH2 0x2140 JUMPI PUSH1 0x1 PUSH1 0x1 PUSH1 0xA0 SHL SUB DUP4 AND PUSH1 0x0 SWAP1 DUP2 MSTORE PUSH1 0x4 PUSH1 0x20 MSTORE PUSH1 0x40 DUP2 KECCAK256 SWAP1 JUMPDEST DUP2 SLOAD DUP2 LT ISZERO PUSH2 0x213D JUMPI CALLER PUSH1 0x1 PUSH1 0x1 PUSH1 0xA0 SHL SUB AND DUP3 DUP3 DUP2 SLOAD DUP2 LT PUSH2 0x20BF JUMPI PUSH4 0x4E487B71 PUSH1 0xE0 SHL PUSH1 0x0 MSTORE PUSH1 0x32 PUSH1 0x4 MSTORE PUSH1 0x24 PUSH1 0x0 REVERT JUMPDEST PUSH1 0x0 SWAP2 DUP3 MSTORE PUSH1 0x20 SWAP1 SWAP2 KECCAK256 PUSH1 0x3 SWAP1 SWAP2 MUL ADD SLOAD PUSH1 0x1 PUSH1 0x1 PUSH1 0xA0 SHL SUB AND EQ ISZERO PUSH2 0x212B JUMPI DUP3 DUP3 DUP3 DUP2 SLOAD DUP2 LT PUSH2 0x2100 JUMPI PUSH4 0x4E487B71 PUSH1 0xE0 SHL PUSH1 0x0 MSTORE PUSH1 0x32 PUSH1 0x4 MSTORE PUSH1 0x24 PUSH1 0x0 REVERT JUMPDEST SWAP1 PUSH1 0x0 MSTORE PUSH1 0x20 PUSH1 0x0 KECCAK256 SWAP1 PUSH1 0x3 MUL ADD PUSH1 0x1 ADD PUSH1 0x0 DUP3 DUP3 SLOAD PUSH2 0x2120 SWAP2 SWAP1 PUSH2 0x36DF JUMP JUMPDEST SWAP1 SWAP2 SSTORE POP PUSH2 0x213D SWAP1 POP JUMP JUMPDEST DUP1 PUSH2 0x2135 DUP2 PUSH2 0x3772 JUMP JUMPDEST SWAP2 POP POP PUSH2 0x208C JUMP JUMPDEST POP POP JUMPDEST POP PUSH1 0x1 PUSH1 0x1 PUSH1 0xA0 SHL SUB SWAP2 DUP3 AND PUSH1 0x0 SWAP1 DUP2 MSTORE PUSH1 0x3 PUSH1 0x20 MSTORE PUSH1 0x40 SWAP1 KECCAK256 SLOAD SWAP1 SWAP2 AND SWAP1 DUP1 PUSH2 0x2169 DUP2 PUSH2 0x378D JUMP JUMPDEST SWAP2 POP POP PUSH2 0x18BF JUMP JUMPDEST POP POP POP POP POP POP POP POP JUMP JUMPDEST PUSH1 0x6 PUSH1 0x20 MSTORE PUSH1 0x0 SWAP1 DUP2 MSTORE PUSH1 0x40 SWAP1 KECCAK256 SLOAD DUP2 JUMP JUMPDEST PUSH1 0x0 SLOAD PUSH1 0x1 PUSH1 0x1 PUSH1 0xA0 SHL SUB AND DUP2 JUMP JUMPDEST PUSH1 0x1 PUSH1 0x1 PUSH1 0xA0 SHL SUB AND PUSH1 0x0 SWAP1 DUP2 MSTORE PUSH1 0x4 PUSH1 0x20 MSTORE PUSH1 0x40 SWAP1 KECCAK256 SLOAD SWAP1 JUMP JUMPDEST PUSH1 0x8 SLOAD SWAP1 JUMP JUMPDEST PUSH1 0x1 PUSH1 0x1 PUSH1 0xA0 SHL SUB DUP2 AND PUSH1 0x0 SWAP1 DUP2 MSTORE PUSH1 0x4 PUSH1 0x20 MSTORE PUSH1 0x40 SWAP1 KECCAK256 DUP1 SLOAD PUSH1 0x60 SWAP2 DUP3 SWAP2 DUP3 SWAP2 SWAP1 DUP1 PUSH8 0xFFFFFFFFFFFFFFFF DUP2 GT ISZERO PUSH2 0x2206 JUMPI PUSH4 0x4E487B71 PUSH1 0xE0 SHL PUSH1 0x0 MSTORE PUSH1 0x41 PUSH1 0x4 MSTORE PUSH1 0x24 PUSH1 0x0 REVERT JUMPDEST PUSH1 0x40 MLOAD SWAP1 DUP1 DUP3 MSTORE DUP1 PUSH1 0x20 MUL PUSH1 0x20 ADD DUP3 ADD PUSH1 0x40 MSTORE DUP1 ISZERO PUSH2 0x222F JUMPI DUP2 PUSH1 0x20 ADD PUSH1 0x20 DUP3 MUL DUP1 CALLDATASIZE DUP4 CALLDATACOPY ADD SWAP1 POP JUMPDEST POP SWAP5 POP DUP1 PUSH8 0xFFFFFFFFFFFFFFFF DUP2 GT ISZERO PUSH2 0x2259 JUMPI PUSH4 0x4E487B71 PUSH1 0xE0 SHL PUSH1 0x0 MSTORE PUSH1 0x41 PUSH1 0x4 MSTORE PUSH1 0x24 PUSH1 0x0 REVERT JUMPDEST PUSH1 0x40 MLOAD SWAP1 DUP1 DUP3 MSTORE DUP1 PUSH1 0x20 MUL PUSH1 0x20 ADD DUP3 ADD PUSH1 0x40 MSTORE DUP1 ISZERO PUSH2 0x2282 JUMPI DUP2 PUSH1 0x20 ADD PUSH1 0x20 DUP3 MUL DUP1 CALLDATASIZE DUP4 CALLDATACOPY ADD SWAP1 POP JUMPDEST POP SWAP4 POP DUP1 PUSH8 0xFFFFFFFFFFFFFFFF DUP2 GT ISZERO PUSH2 0x22AC JUMPI PUSH4 0x4E487B71 PUSH1 0xE0 SHL PUSH1 0x0 MSTORE PUSH1 0x41 PUSH1 0x4 MSTORE PUSH1 0x24 PUSH1 0x0 REVERT JUMPDEST PUSH1 0x40 MLOAD SWAP1 DUP1 DUP3 MSTORE DUP1 PUSH1 0x20 MUL PUSH1 0x20 ADD DUP3 ADD PUSH1 0x40 MSTORE DUP1 ISZERO PUSH2 0x22D5 JUMPI DUP2 PUSH1 0x20 ADD PUSH1 0x20 DUP3 MUL DUP1 CALLDATASIZE DUP4 CALLDATACOPY ADD SWAP1 POP JUMPDEST POP SWAP3 POP PUSH1 0x0 JUMPDEST DUP2 DUP2 LT ISZERO PUSH2 0x242F JUMPI DUP3 DUP2 DUP2 SLOAD DUP2 LT PUSH2 0x2303 JUMPI PUSH4 0x4E487B71 PUSH1 0xE0 SHL PUSH1 0x0 MSTORE PUSH1 0x32 PUSH1 0x4 MSTORE PUSH1 0x24 PUSH1 0x0 REVERT JUMPDEST PUSH1 0x0 SWAP2 DUP3 MSTORE PUSH1 0x20 SWAP1 SWAP2 KECCAK256 PUSH1 0x3 SWAP1 SWAP2 MUL ADD SLOAD DUP7 MLOAD PUSH1 0x1 PUSH1 0x1 PUSH1 0xA0 SHL SUB SWAP1 SWAP2 AND SWAP1 DUP8 SWAP1 DUP4 SWAP1 DUP2 LT PUSH2 0x2342 JUMPI PUSH4 0x4E487B71 PUSH1 0xE0 SHL PUSH1 0x0 MSTORE PUSH1 0x32 PUSH1 0x4 MSTORE PUSH1 0x24 PUSH1 0x0 REVERT JUMPDEST PUSH1 0x20 MUL PUSH1 0x20 ADD ADD SWAP1 PUSH1 0x1 PUSH1 0x1 PUSH1 0xA0 SHL SUB AND SWAP1 DUP2 PUSH1 0x1 PUSH1 0x1 PUSH1 0xA0 SHL SUB AND DUP2 MSTORE POP POP DUP3 DUP2 DUP2 SLOAD DUP2 LT PUSH2 0x2382 JUMPI PUSH4 0x4E487B71 PUSH1 0xE0 SHL PUSH1 0x0 MSTORE PUSH1 0x32 PUSH1 0x4 MSTORE PUSH1 0x24 PUSH1 0x0 REVERT JUMPDEST SWAP1 PUSH1 0x0 MSTORE PUSH1 0x20 PUSH1 0x0 KECCAK256 SWAP1 PUSH1 0x3 MUL ADD PUSH1 0x1 ADD SLOAD DUP6 DUP3 DUP2 MLOAD DUP2 LT PUSH2 0x23B4 JUMPI PUSH4 0x4E487B71 PUSH1 0xE0 SHL PUSH1 0x0 MSTORE PUSH1 0x32 PUSH1 0x4 MSTORE PUSH1 0x24 PUSH1 0x0 REVERT JUMPDEST PUSH1 0x20 MUL PUSH1 0x20 ADD ADD DUP2 DUP2 MSTORE POP POP DUP3 DUP2 DUP2 SLOAD DUP2 LT PUSH2 0x23E0 JUMPI PUSH4 0x4E487B71 PUSH1 0xE0 SHL PUSH1 0x0 MSTORE PUSH1 0x32 PUSH1 0x4 MSTORE PUSH1 0x24 PUSH1 0x0 REVERT JUMPDEST SWAP1 PUSH1 0x0 MSTORE PUSH1 0x20 PUSH1 0x0 KECCAK256 SWAP1 PUSH1 0x3 MUL ADD PUSH1 0x2 ADD SLOAD DUP5 DUP3 DUP2 MLOAD DUP2 LT PUSH2 0x2412 JUMPI PUSH4 0x4E487B71 PUSH1 0xE0 SHL PUSH1 0x0 MSTORE PUSH1 0x32 PUSH1 0x4 MSTORE PUSH1 0x24 PUSH1 0x0 REVERT JUMPDEST PUSH1 0x20 SWAP1 DUP2 MUL SWAP2 SWAP1 SWAP2 ADD ADD MSTORE DUP1 PUSH2 0x2427 DUP2 PUSH2 0x3772 JUMP JUMPDEST SWAP2 POP POP PUSH2 0x22DB JUMP JUMPDEST POP POP POP SWAP2 SWAP4 SWAP1 SWAP3 POP JUMP JUMPDEST PUSH1 0x8 DUP2 DUP2 SLOAD DUP2 LT PUSH2 0x2449 JUMPI PUSH1 0x0 DUP1 REVERT JUMPDEST PUSH1 0x0 SWAP2 DUP3 MSTORE PUSH1 0x20 SWAP1 SWAP2 KECCAK256 ADD SLOAD PUSH1 0x1 PUSH1 0x1 PUSH1 0xA0 SHL SUB AND SWAP1 POP DUP2 JUMP JUMPDEST PUSH1 0x3 PUSH1 0x20 DUP2 SWAP1 MSTORE PUSH1 0x0 SWAP2 DUP3 MSTORE PUSH1 0x40 SWAP1 SWAP2 KECCAK256 DUP1 SLOAD PUSH1 0x2 DUP3 ADD SLOAD SWAP3 DUP3 ADD SLOAD PUSH1 0x4 SWAP1 SWAP3 ADD SLOAD PUSH1 0x1 PUSH1 0x1 PUSH1 0xA0 SHL SUB SWAP1 SWAP2 AND SWAP3 SWAP2 SWAP1 PUSH1 0xFF AND DUP5 JUMP JUMPDEST PUSH1 0x2 SLOAD PUSH1 0x1 PUSH1 0x1 PUSH1 0xA0 SHL SUB AND DUP2 JUMP JUMPDEST PUSH1 0x1 PUSH1 0x1 PUSH1 0xA0 SHL SUB AND PUSH1 0x0 SWAP1 DUP2 MSTORE PUSH1 0x7 PUSH1 0x20 MSTORE PUSH1 0x40 SWAP1 KECCAK256 SLOAD SWAP1 JUMP JUMPDEST PUSH1 0x0 DUP1 PUSH1 0x0 DUP5 GT PUSH2 0x24E6 JUMPI PUSH1 0x40 MLOAD PUSH3 0x461BCD PUSH1 0xE5 SHL DUP2 MSTORE PUSH1 0x4 ADD PUSH2 0x6B6 SWAP1 PUSH2 0x318E JUMP JUMPDEST PUSH1 0x0 DUP4 DUP2 MSTORE PUSH1 0x6 PUSH1 0x20 MSTORE PUSH1 0x40 SWAP1 KECCAK256 SLOAD PUSH2 0x2511 JUMPI PUSH1 0x40 MLOAD PUSH3 0x461BCD PUSH1 0xE5 SHL DUP2 MSTORE PUSH1 0x4 ADD PUSH2 0x6B6 SWAP1 PUSH2 0x3361 JUMP JUMPDEST PUSH1 0x0 DUP4 DUP2 MSTORE PUSH1 0x6 PUSH1 0x20 MSTORE PUSH1 0x40 SWAP1 KECCAK256 SLOAD PUSH2 0x8E94 DUP5 PUSH2 0x252E DUP4 DUP9 PUSH2 0x373C JUMP JUMPDEST PUSH2 0x2538 SWAP2 SWAP1 PUSH2 0x373C JUMP JUMPDEST PUSH2 0x2542 SWAP2 SWAP1 PUSH2 0x371C JUMP JUMPDEST SWAP3 POP PUSH2 0x254E DUP4 DUP7 PUSH2 0x36DF JUMP JUMPDEST SWAP2 POP POP SWAP3 POP SWAP3 SWAP1 POP JUMP JUMPDEST PUSH1 0x1 PUSH1 0x1 PUSH1 0xA0 SHL SUB AND PUSH1 0x0 SWAP1 DUP2 MSTORE PUSH1 0x3 PUSH1 0x20 MSTORE PUSH1 0x40 SWAP1 KECCAK256 PUSH1 0x2 ADD SLOAD SWAP1 JUMP JUMPDEST PUSH1 0x1 PUSH1 0x1 PUSH1 0xA0 SHL SUB AND PUSH1 0x0 SWAP1 DUP2 MSTORE PUSH1 0x3 PUSH1 0x20 MSTORE PUSH1 0x40 SWAP1 KECCAK256 PUSH1 0x4 ADD SLOAD PUSH1 0xFF AND SWAP1 JUMP JUMPDEST PUSH1 0x0 SLOAD PUSH1 0x1 PUSH1 0x1 PUSH1 0xA0 SHL SUB AND CALLER EQ PUSH2 0x25C1 JUMPI PUSH1 0x40 MLOAD PUSH3 0x461BCD PUSH1 0xE5 SHL DUP2 MSTORE PUSH1 0x4 ADD PUSH2 0x6B6 SWAP1 PUSH2 0x3617 JUMP JUMPDEST PUSH1 0x1 PUSH1 0x1 PUSH1 0xA0 SHL SUB DUP3 AND PUSH2 0x25E7 JUMPI PUSH1 0x40 MLOAD PUSH3 0x461BCD PUSH1 0xE5 SHL DUP2 MSTORE PUSH1 0x4 ADD PUSH2 0x6B6 SWAP1 PUSH2 0x3398 JUMP JUMPDEST PUSH1 0x0 DUP2 GT PUSH2 0x2607 JUMPI PUSH1 0x40 MLOAD PUSH3 0x461BCD PUSH1 0xE5 SHL DUP2 MSTORE PUSH1 0x4 ADD PUSH2 0x6B6 SWAP1 PUSH2 0x3159 JUMP JUMPDEST PUSH1 0x2 SLOAD PUSH1 0x40 MLOAD PUSH4 0xA9059CBB PUSH1 0xE0 SHL DUP2 MSTORE PUSH1 0x0 SWAP2 PUSH1 0x1 PUSH1 0x1 PUSH1 0xA0 SHL SUB AND SWAP1 PUSH4 0xA9059CBB SWAP1 PUSH2 0x263A SWAP1 DUP7 SWAP1 DUP7 SWAP1 PUSH1 0x4 ADD PUSH2 0x2E92 JUMP JUMPDEST PUSH1 0x20 PUSH1 0x40 MLOAD DUP1 DUP4 SUB DUP2 PUSH1 0x0 DUP8 DUP1 EXTCODESIZE ISZERO DUP1 ISZERO PUSH2 0x2654 JUMPI PUSH1 0x0 DUP1 REVERT JUMPDEST POP GAS CALL ISZERO DUP1 ISZERO PUSH2 0x2668 JUMPI RETURNDATASIZE PUSH1 0x0 DUP1 RETURNDATACOPY RETURNDATASIZE PUSH1 0x0 REVERT JUMPDEST POP POP POP POP PUSH1 0x40 MLOAD RETURNDATASIZE PUSH1 0x1F NOT PUSH1 0x1F DUP3 ADD AND DUP3 ADD DUP1 PUSH1 0x40 MSTORE POP DUP2 ADD SWAP1 PUSH2 0x268C SWAP2 SWAP1 PUSH2 0x2DAF JUMP JUMPDEST SWAP1 POP DUP1 PUSH2 0x26AB JUMPI PUSH1 0x40 MLOAD PUSH3 0x461BCD PUSH1 0xE5 SHL DUP2 MSTORE PUSH1 0x4 ADD PUSH2 0x6B6 SWAP1 PUSH2 0x3332 JUMP JUMPDEST POP POP POP JUMP JUMPDEST PUSH1 0x9 DUP2 PUSH1 0x5 DUP2 LT PUSH2 0x26C0 JUMPI PUSH1 0x0 DUP1 REVERT JUMPDEST PUSH1 0x20 SWAP2 DUP3 DUP3 DIV ADD SWAP2 SWAP1 MOD SWAP2 POP SLOAD SWAP1 PUSH2 0x100 EXP SWAP1 DIV PUSH1 0xFF AND DUP2 JUMP JUMPDEST PUSH1 0x60 PUSH1 0x0 DUP1 JUMPDEST PUSH1 0x8 SLOAD DUP2 LT ISZERO PUSH2 0x2873 JUMPI PUSH1 0x0 PUSH1 0x8 DUP3 DUP2 SLOAD DUP2 LT PUSH2 0x270D JUMPI PUSH4 0x4E487B71 PUSH1 0xE0 SHL PUSH1 0x0 MSTORE PUSH1 0x32 PUSH1 0x4 MSTORE PUSH1 0x24 PUSH1 0x0 REVERT JUMPDEST PUSH1 0x0 SWAP2 DUP3 MSTORE PUSH1 0x20 DUP1 DUP4 KECCAK256 SWAP1 SWAP2 ADD SLOAD PUSH1 0x1 PUSH1 0x1 PUSH1 0xA0 SHL SUB AND DUP1 DUP4 MSTORE PUSH1 0x3 DUP3 MSTORE PUSH1 0x40 DUP1 DUP5 KECCAK256 PUSH1 0x1 ADD DUP1 SLOAD DUP3 MLOAD DUP2 DUP7 MUL DUP2 ADD DUP7 ADD SWAP1 SWAP4 MSTORE DUP1 DUP4 MSTORE SWAP3 SWAP6 POP SWAP1 SWAP3 SWAP1 SWAP2 SWAP1 DUP5 SWAP1 DUP5 ADD JUMPDEST DUP3 DUP3 LT ISZERO PUSH2 0x27BE JUMPI PUSH1 0x0 DUP5 DUP2 MSTORE PUSH1 0x20 SWAP1 DUP2 SWAP1 KECCAK256 PUSH1 0x40 DUP1 MLOAD PUSH1 0xC0 DUP2 ADD DUP3 MSTORE PUSH1 0x6 DUP7 MUL SWAP1 SWAP3 ADD DUP1 SLOAD DUP4 MSTORE PUSH1 0x1 DUP1 DUP3 ADD SLOAD DUP5 DUP7 ADD MSTORE PUSH1 0x2 DUP3 ADD SLOAD SWAP3 DUP5 ADD SWAP3 SWAP1 SWAP3 MSTORE PUSH1 0x3 DUP2 ADD SLOAD PUSH1 0x60 DUP5 ADD MSTORE PUSH1 0x4 DUP2 ADD SLOAD PUSH1 0x80 DUP5 ADD MSTORE PUSH1 0x5 ADD SLOAD PUSH1 0xFF AND ISZERO ISZERO PUSH1 0xA0 DUP4 ADD MSTORE SWAP1 DUP4 MSTORE SWAP1 SWAP3 ADD SWAP2 ADD PUSH2 0x2751 JUMP JUMPDEST POP POP POP POP PUSH1 0x1 PUSH1 0x1 PUSH1 0xA0 SHL SUB DUP4 DUP2 AND PUSH1 0x0 SWAP1 DUP2 MSTORE PUSH1 0x3 PUSH1 0x20 MSTORE PUSH1 0x40 DUP2 KECCAK256 SLOAD SWAP3 SWAP4 POP SWAP2 AND SWAP1 JUMPDEST PUSH1 0x5 DUP2 PUSH1 0xFF AND LT DUP1 ISZERO PUSH2 0x27FE JUMPI POP PUSH1 0x1 PUSH1 0x1 PUSH1 0xA0 SHL SUB DUP3 AND ISZERO ISZERO JUMPDEST ISZERO PUSH2 0x285C JUMPI DUP8 PUSH1 0x1 PUSH1 0x1 PUSH1 0xA0 SHL SUB AND DUP3 PUSH1 0x1 PUSH1 0x1 PUSH1 0xA0 SHL SUB AND EQ ISZERO PUSH2 0x282C JUMPI DUP3 MLOAD PUSH2 0x2829 SWAP1 DUP8 PUSH2 0x36DF JUMP JUMPDEST SWAP6 POP JUMPDEST PUSH1 0x1 PUSH1 0x1 PUSH1 0xA0 SHL SUB SWAP2 DUP3 AND PUSH1 0x0 SWAP1 DUP2 MSTORE PUSH1 0x3 PUSH1 0x20 MSTORE PUSH1 0x40 SWAP1 KECCAK256 SLOAD SWAP1 SWAP2 AND SWAP1 DUP1 PUSH2 0x2854 DUP2 PUSH2 0x378D JUMP JUMPDEST SWAP2 POP POP PUSH2 0x27E3 JUMP JUMPDEST POP POP POP POP DUP1 DUP1 PUSH2 0x286B SWAP1 PUSH2 0x3772 JUMP JUMPDEST SWAP2 POP POP PUSH2 0x26E0 JUMP JUMPDEST POP PUSH1 0x0 DUP2 PUSH8 0xFFFFFFFFFFFFFFFF DUP2 GT ISZERO PUSH2 0x289D JUMPI PUSH4 0x4E487B71 PUSH1 0xE0 SHL PUSH1 0x0 MSTORE PUSH1 0x41 PUSH1 0x4 MSTORE PUSH1 0x24 PUSH1 0x0 REVERT JUMPDEST PUSH1 0x40 MLOAD SWAP1 DUP1 DUP3 MSTORE DUP1 PUSH1 0x20 MUL PUSH1 0x20 ADD DUP3 ADD PUSH1 0x40 MSTORE DUP1 ISZERO PUSH2 0x28D6 JUMPI DUP2 PUSH1 0x20 ADD JUMPDEST PUSH2 0x28C3 PUSH2 0x2C56 JUMP JUMPDEST DUP2 MSTORE PUSH1 0x20 ADD SWAP1 PUSH1 0x1 SWAP1 SUB SWAP1 DUP2 PUSH2 0x28BB JUMPI SWAP1 POP JUMPDEST POP SWAP1 POP PUSH1 0x0 DUP1 JUMPDEST PUSH1 0x8 SLOAD DUP2 LT ISZERO PUSH2 0x2BA1 JUMPI PUSH1 0x0 PUSH1 0x8 DUP3 DUP2 SLOAD DUP2 LT PUSH2 0x290A JUMPI PUSH4 0x4E487B71 PUSH1 0xE0 SHL PUSH1 0x0 MSTORE PUSH1 0x32 PUSH1 0x4 MSTORE PUSH1 0x24 PUSH1 0x0 REVERT JUMPDEST PUSH1 0x0 SWAP2 DUP3 MSTORE PUSH1 0x20 DUP1 DUP4 KECCAK256 SWAP1 SWAP2 ADD SLOAD PUSH1 0x1 PUSH1 0x1 PUSH1 0xA0 SHL SUB AND DUP1 DUP4 MSTORE PUSH1 0x3 DUP3 MSTORE PUSH1 0x40 DUP1 DUP5 KECCAK256 PUSH1 0x1 ADD DUP1 SLOAD DUP3 MLOAD DUP2 DUP7 MUL DUP2 ADD DUP7 ADD SWAP1 SWAP4 MSTORE DUP1 DUP4 MSTORE SWAP3 SWAP6 POP SWAP1 SWAP3 SWAP1 SWAP2 SWAP1 DUP5 SWAP1 DUP5 ADD JUMPDEST DUP3 DUP3 LT ISZERO PUSH2 0x29BB JUMPI PUSH1 0x0 DUP5 DUP2 MSTORE PUSH1 0x20 SWAP1 DUP2 SWAP1 KECCAK256 PUSH1 0x40 DUP1 MLOAD PUSH1 0xC0 DUP2 ADD DUP3 MSTORE PUSH1 0x6 DUP7 MUL SWAP1 SWAP3 ADD DUP1 SLOAD DUP4 MSTORE PUSH1 0x1 DUP1 DUP3 ADD SLOAD DUP5 DUP7 ADD MSTORE PUSH1 0x2 DUP3 ADD SLOAD SWAP3 DUP5 ADD SWAP3 SWAP1 SWAP3 MSTORE PUSH1 0x3 DUP2 ADD SLOAD PUSH1 0x60 DUP5 ADD MSTORE PUSH1 0x4 DUP2 ADD SLOAD PUSH1 0x80 DUP5 ADD MSTORE PUSH1 0x5 ADD SLOAD PUSH1 0xFF AND ISZERO ISZERO PUSH1 0xA0 DUP4 ADD MSTORE SWAP1 DUP4 MSTORE SWAP1 SWAP3 ADD SWAP2 ADD PUSH2 0x294E JUMP JUMPDEST POP POP POP POP PUSH1 0x1 PUSH1 0x1 PUSH1 0xA0 SHL SUB DUP4 DUP2 AND PUSH1 0x0 SWAP1 DUP2 MSTORE PUSH1 0x3 PUSH1 0x20 MSTORE PUSH1 0x40 DUP2 KECCAK256 SLOAD SWAP3 SWAP4 POP SWAP2 AND SWAP1 JUMPDEST PUSH1 0x5 DUP2 PUSH1 0xFF AND LT DUP1 ISZERO PUSH2 0x29FB JUMPI POP PUSH1 0x1 PUSH1 0x1 PUSH1 0xA0 SHL SUB DUP3 AND ISZERO ISZERO JUMPDEST ISZERO PUSH2 0x2B8A JUMPI DUP10 PUSH1 0x1 PUSH1 0x1 PUSH1 0xA0 SHL SUB AND DUP3 PUSH1 0x1 PUSH1 0x1 PUSH1 0xA0 SHL SUB AND EQ ISZERO PUSH2 0x2B5A JUMPI PUSH1 0x0 JUMPDEST DUP4 MLOAD DUP2 LT ISZERO PUSH2 0x2B58 JUMPI PUSH1 0x0 DUP5 DUP3 DUP2 MLOAD DUP2 LT PUSH2 0x2A48 JUMPI PUSH4 0x4E487B71 PUSH1 0xE0 SHL PUSH1 0x0 MSTORE PUSH1 0x32 PUSH1 0x4 MSTORE PUSH1 0x24 PUSH1 0x0 REVERT JUMPDEST PUSH1 0x20 MUL PUSH1 0x20 ADD ADD MLOAD SWAP1 POP PUSH1 0x0 PUSH1 0x64 PUSH1 0x9 DUP6 PUSH1 0xFF AND PUSH1 0x5 DUP2 LT PUSH2 0x2A7A JUMPI PUSH4 0x4E487B71 PUSH1 0xE0 SHL PUSH1 0x0 MSTORE PUSH1 0x32 PUSH1 0x4 MSTORE PUSH1 0x24 PUSH1 0x0 REVERT JUMPDEST PUSH1 0x20 SWAP2 DUP3 DUP3 DIV ADD SWAP2 SWAP1 MOD SWAP1 SLOAD SWAP1 PUSH2 0x100 EXP SWAP1 DIV PUSH1 0xFF AND PUSH1 0xFF AND DUP4 PUSH1 0x40 ADD MLOAD PUSH2 0x2AA2 SWAP2 SWAP1 PUSH2 0x373C JUMP JUMPDEST PUSH2 0x2AAC SWAP2 SWAP1 PUSH2 0x371C JUMP JUMPDEST SWAP1 POP PUSH1 0x40 MLOAD DUP1 PUSH1 0xE0 ADD PUSH1 0x40 MSTORE DUP1 DUP15 PUSH1 0x1 PUSH1 0x1 PUSH1 0xA0 SHL SUB AND DUP2 MSTORE PUSH1 0x20 ADD DUP4 PUSH1 0x0 ADD MLOAD DUP2 MSTORE PUSH1 0x20 ADD DUP4 PUSH1 0x40 ADD MLOAD DUP2 MSTORE PUSH1 0x20 ADD DUP3 DUP2 MSTORE PUSH1 0x20 ADD DUP9 PUSH1 0x1 PUSH1 0x1 PUSH1 0xA0 SHL SUB AND DUP2 MSTORE PUSH1 0x20 ADD DUP4 PUSH1 0x60 ADD MLOAD DUP2 MSTORE PUSH1 0x20 ADD DUP6 PUSH1 0x1 PUSH2 0x2B08 SWAP2 SWAP1 PUSH2 0x36F7 JUMP JUMPDEST PUSH1 0xFF AND SWAP1 MSTORE DUP11 DUP11 PUSH2 0x2B18 DUP2 PUSH2 0x3772 JUMP JUMPDEST SWAP12 POP DUP2 MLOAD DUP2 LT PUSH2 0x2B38 JUMPI PUSH4 0x4E487B71 PUSH1 0xE0 SHL PUSH1 0x0 MSTORE PUSH1 0x32 PUSH1 0x4 MSTORE PUSH1 0x24 PUSH1 0x0 REVERT JUMPDEST PUSH1 0x20 MUL PUSH1 0x20 ADD ADD DUP2 SWAP1 MSTORE POP POP POP DUP1 DUP1 PUSH2 0x2B50 SWAP1 PUSH2 0x3772 JUMP JUMPDEST SWAP2 POP POP PUSH2 0x2A1D JUMP JUMPDEST POP JUMPDEST PUSH1 0x1 PUSH1 0x1 PUSH1 0xA0 SHL SUB SWAP2 DUP3 AND PUSH1 0x0 SWAP1 DUP2 MSTORE PUSH1 0x3 PUSH1 0x20 MSTORE PUSH1 0x40 SWAP1 KECCAK256 SLOAD SWAP1 SWAP2 AND SWAP1 DUP1 PUSH2 0x2B82 DUP2 PUSH2 0x378D JUMP JUMPDEST SWAP2 POP POP PUSH2 0x29E0 JUMP JUMPDEST POP POP POP POP DUP1 DUP1 PUSH2 0x2B99 SWAP1 PUSH2 0x3772 JUMP JUMPDEST SWAP2 POP POP PUSH2 0x28DD JUMP JUMPDEST POP SWAP1 SWAP5 SWAP4 POP POP POP POP JUMP JUMPDEST PUSH1 0x7 PUSH1 0x20 MSTORE PUSH1 0x0 SWAP1 DUP2 MSTORE PUSH1 0x40 SWAP1 KECCAK256 SLOAD DUP2 JUMP JUMPDEST PUSH1 0x1 SLOAD DUP2 JUMP JUMPDEST PUSH1 0x1 DUP4 ADD SWAP2 DUP4 SWAP1 DUP3 ISZERO PUSH2 0x2C46 JUMPI SWAP2 PUSH1 0x20 MUL DUP3 ADD PUSH1 0x0 JUMPDEST DUP4 DUP3 GT ISZERO PUSH2 0x2C17 JUMPI DUP4 MLOAD DUP4 DUP3 PUSH2 0x100 EXP DUP2 SLOAD DUP2 PUSH1 0xFF MUL NOT AND SWAP1 DUP4 PUSH1 0xFF AND MUL OR SWAP1 SSTORE POP SWAP3 PUSH1 0x20 ADD SWAP3 PUSH1 0x1 ADD PUSH1 0x20 DUP2 PUSH1 0x0 ADD DIV SWAP3 DUP4 ADD SWAP3 PUSH1 0x1 SUB MUL PUSH2 0x2BD9 JUMP JUMPDEST DUP1 ISZERO PUSH2 0x2C44 JUMPI DUP3 DUP2 PUSH2 0x100 EXP DUP2 SLOAD SWAP1 PUSH1 0xFF MUL NOT AND SWAP1 SSTORE PUSH1 0x1 ADD PUSH1 0x20 DUP2 PUSH1 0x0 ADD DIV SWAP3 DUP4 ADD SWAP3 PUSH1 0x1 SUB MUL PUSH2 0x2C17 JUMP JUMPDEST POP JUMPDEST POP PUSH2 0x2C52 SWAP3 SWAP2 POP PUSH2 0x2CA8 JUMP JUMPDEST POP SWAP1 JUMP JUMPDEST PUSH1 0x40 MLOAD DUP1 PUSH1 0xE0 ADD PUSH1 0x40 MSTORE DUP1 PUSH1 0x0 PUSH1 0x1 PUSH1 0x1 PUSH1 0xA0 SHL SUB AND DUP2 MSTORE PUSH1 0x20 ADD PUSH1 0x0 DUP2 MSTORE PUSH1 0x20 ADD PUSH1 0x0 DUP2 MSTORE PUSH1 0x20 ADD PUSH1 0x0 DUP2 MSTORE PUSH1 0x20 ADD PUSH1 0x0 PUSH1 0x1 PUSH1 0x1 PUSH1 0xA0 SHL SUB AND DUP2 MSTORE PUSH1 0x20 ADD PUSH1 0x0 DUP2 MSTORE PUSH1 0x20 ADD PUSH1 0x0 PUSH1 0xFF AND DUP2 MSTORE POP SWAP1 JUMP JUMPDEST JUMPDEST DUP1 DUP3 GT ISZERO PUSH2 0x2C52 JUMPI PUSH1 0x0 DUP2 SSTORE PUSH1 0x1 ADD PUSH2 0x2CA9 JUMP JUMPDEST DUP1 CALLDATALOAD PUSH1 0x1 PUSH1 0x1 PUSH1 0xA0 SHL SUB DUP2 AND DUP2 EQ PUSH2 0x570 JUMPI PUSH1 0x0 DUP1 REVERT JUMPDEST PUSH1 0x0 PUSH1 0x20 DUP3 DUP5 SUB SLT ISZERO PUSH2 0x2CE5 JUMPI DUP1 DUP2 REVERT JUMPDEST PUSH2 0x2CEE DUP3 PUSH2 0x2CBD JUMP JUMPDEST SWAP4 SWAP3 POP POP POP JUMP JUMPDEST PUSH1 0x0 DUP1 PUSH1 0x40 DUP4 DUP6 SUB SLT ISZERO PUSH2 0x2D07 JUMPI DUP1 DUP2 REVERT JUMPDEST PUSH2 0x2D10 DUP4 PUSH2 0x2CBD JUMP JUMPDEST SWAP5 PUSH1 0x20 SWAP4 SWAP1 SWAP4 ADD CALLDATALOAD SWAP4 POP POP POP JUMP JUMPDEST PUSH1 0x0 PUSH1 0xA0 DUP3 DUP5 SUB SLT ISZERO PUSH2 0x2D2F JUMPI DUP1 DUP2 REVERT JUMPDEST DUP3 PUSH1 0x1F DUP4 ADD SLT PUSH2 0x2D3D JUMPI DUP1 DUP2 REVERT JUMPDEST PUSH1 0x40 MLOAD PUSH1 0xA0 DUP2 ADD DUP2 DUP2 LT PUSH8 0xFFFFFFFFFFFFFFFF DUP3 GT OR ISZERO PUSH2 0x2D60 JUMPI PUSH2 0x2D60 PUSH2 0x37C3 JUMP JUMPDEST PUSH1 0x40 MSTORE DUP1 DUP4 PUSH1 0xA0 DUP2 ADD DUP7 LT ISZERO PUSH2 0x2D74 JUMPI DUP4 DUP5 REVERT JUMPDEST DUP4 JUMPDEST PUSH1 0x5 DUP2 LT ISZERO PUSH2 0x2DA4 JUMPI DUP2 CALLDATALOAD PUSH1 0xFF DUP2 AND DUP2 EQ PUSH2 0x2D8F JUMPI DUP6 DUP7 REVERT JUMPDEST DUP4 MSTORE PUSH1 0x20 SWAP3 DUP4 ADD SWAP3 SWAP2 SWAP1 SWAP2 ADD SWAP1 PUSH1 0x1 ADD PUSH2 0x2D76 JUMP JUMPDEST POP SWAP2 SWAP6 SWAP5 POP POP POP POP POP JUMP JUMPDEST PUSH1 0x0 PUSH1 0x20 DUP3 DUP5 SUB SLT ISZERO PUSH2 0x2DC0 JUMPI DUP1 DUP2 REVERT JUMPDEST DUP2 MLOAD DUP1 ISZERO ISZERO DUP2 EQ PUSH2 0x2CEE JUMPI DUP2 DUP3 REVERT JUMPDEST PUSH1 0x0 PUSH1 0x20 DUP3 DUP5 SUB SLT ISZERO PUSH2 0x2DE0 JUMPI DUP1 DUP2 REVERT JUMPDEST POP CALLDATALOAD SWAP2 SWAP1 POP JUMP JUMPDEST PUSH1 0x0 PUSH1 0x20 DUP3 DUP5 SUB SLT ISZERO PUSH2 0x2DF8 JUMPI DUP1 DUP2 REVERT JUMPDEST POP MLOAD SWAP2 SWAP1 POP JUMP JUMPDEST PUSH1 0x0 DUP1 PUSH1 0x40 DUP4 DUP6 SUB SLT ISZERO PUSH2 0x2E11 JUMPI DUP2 DUP3 REVERT JUMPDEST POP POP DUP1 CALLDATALOAD SWAP3 PUSH1 0x20 SWAP1 SWAP2 ADD CALLDATALOAD SWAP2 POP JUMP JUMPDEST PUSH1 0x0 DUP2 MLOAD DUP1 DUP5 MSTORE PUSH1 0x20 DUP1 DUP6 ADD SWAP5 POP DUP1 DUP5 ADD DUP4 JUMPDEST DUP4 DUP2 LT ISZERO PUSH2 0x2E4F JUMPI DUP2 MLOAD DUP8 MSTORE SWAP6 DUP3 ADD SWAP6 SWAP1 DUP3 ADD SWAP1 PUSH1 0x1 ADD PUSH2 0x2E33 JUMP JUMPDEST POP SWAP5 SWAP6 SWAP5 POP POP POP POP POP JUMP JUMPDEST PUSH1 0x1 PUSH1 0x1 PUSH1 0xA0 SHL SUB SWAP2 SWAP1 SWAP2 AND DUP2 MSTORE PUSH1 0x20 ADD SWAP1 JUMP JUMPDEST PUSH1 0x1 PUSH1 0x1 PUSH1 0xA0 SHL SUB SWAP4 DUP5 AND DUP2 MSTORE SWAP2 SWAP1 SWAP3 AND PUSH1 0x20 DUP3 ADD MSTORE PUSH1 0x40 DUP2 ADD SWAP2 SWAP1 SWAP2 MSTORE PUSH1 0x60 ADD SWAP1 JUMP JUMPDEST PUSH1 0x1 PUSH1 0x1 PUSH1 0xA0 SHL SUB SWAP3 SWAP1 SWAP3 AND DUP3 MSTORE PUSH1 0x20 DUP3 ADD MSTORE PUSH1 0x40 ADD SWAP1 JUMP JUMPDEST PUSH1 0x1 PUSH1 0x1 PUSH1 0xA0 SHL SUB SWAP4 SWAP1 SWAP4 AND DUP4 MSTORE PUSH1 0x20 DUP4 ADD SWAP2 SWAP1 SWAP2 MSTORE PUSH1 0x40 DUP3 ADD MSTORE PUSH1 0x60 ADD SWAP1 JUMP JUMPDEST PUSH1 0x1 PUSH1 0x1 PUSH1 0xA0 SHL SUB SWAP5 SWAP1 SWAP5 AND DUP5 MSTORE PUSH1 0x20 DUP5 ADD SWAP3 SWAP1 SWAP3 MSTORE PUSH1 0x40 DUP4 ADD MSTORE ISZERO ISZERO PUSH1 0x60 DUP3 ADD MSTORE PUSH1 0x80 ADD SWAP1 JUMP JUMPDEST PUSH1 0x1 PUSH1 0x1 PUSH1 0xA0 SHL SUB SWAP9 SWAP1 SWAP9 AND DUP9 MSTORE PUSH1 0x20 DUP9 ADD SWAP7 SWAP1 SWAP7 MSTORE PUSH1 0x40 DUP8 ADD SWAP5 SWAP1 SWAP5 MSTORE PUSH1 0x60 DUP7 ADD SWAP3 SWAP1 SWAP3 MSTORE PUSH1 0x80 DUP6 ADD MSTORE PUSH1 0xA0 DUP5 ADD MSTORE PUSH1 0xC0 DUP4 ADD MSTORE ISZERO ISZERO PUSH1 0xE0 DUP3 ADD MSTORE PUSH2 0x100 ADD SWAP1 JUMP JUMPDEST PUSH1 0x60 DUP1 DUP3 MSTORE DUP5 MLOAD SWAP1 DUP3 ADD DUP2 SWAP1 MSTORE PUSH1 0x0 SWAP1 PUSH1 0x20 SWAP1 PUSH1 0x80 DUP5 ADD SWAP1 DUP3 DUP9 ADD DUP5 JUMPDEST DUP3 DUP2 LT ISZERO PUSH2 0x2F79 JUMPI DUP2 MLOAD PUSH1 0x1 PUSH1 0x1 PUSH1 0xA0 SHL SUB AND DUP5 MSTORE SWAP3 DUP5 ADD SWAP3 SWAP1 DUP5 ADD SWAP1 PUSH1 0x1 ADD PUSH2 0x2F54 JUMP JUMPDEST POP POP POP DUP4 DUP2 SUB DUP3 DUP6 ADD MSTORE PUSH2 0x2F8D DUP2 DUP8 PUSH2 0x2E20 JUMP JUMPDEST SWAP2 POP POP DUP3 DUP2 SUB PUSH1 0x40 DUP5 ADD MSTORE PUSH2 0x2FA2 DUP2 DUP6 PUSH2 0x2E20 JUMP JUMPDEST SWAP7 SWAP6 POP POP POP POP POP POP JUMP JUMPDEST PUSH1 0x20 DUP1 DUP3 MSTORE DUP3 MLOAD DUP3 DUP3 ADD DUP2 SWAP1 MSTORE PUSH1 0x0 SWAP2 SWAP1 PUSH1 0x40 SWAP1 DUP2 DUP6 ADD SWAP1 DUP7 DUP5 ADD DUP6 JUMPDEST DUP3 DUP2 LT ISZERO PUSH2 0x3032 JUMPI DUP2 MLOAD DUP1 MLOAD PUSH1 0x1 PUSH1 0x1 PUSH1 0xA0 SHL SUB SWAP1 DUP2 AND DUP7 MSTORE DUP8 DUP3 ADD MLOAD DUP9 DUP8 ADD MSTORE DUP7 DUP3 ADD MLOAD DUP8 DUP8 ADD MSTORE PUSH1 0x60 DUP1 DUP4 ADD MLOAD SWAP1 DUP8 ADD MSTORE PUSH1 0x80 DUP1 DUP4 ADD MLOAD SWAP1 SWAP2 AND SWAP1 DUP7 ADD MSTORE PUSH1 0xA0 DUP1 DUP3 ADD MLOAD SWAP1 DUP7 ADD MSTORE PUSH1 0xC0 SWAP1 DUP2 ADD MLOAD PUSH1 0xFF AND SWAP1 DUP6 ADD MSTORE PUSH1 0xE0 SWAP1 SWAP4 ADD SWAP3 SWAP1 DUP6 ADD SWAP1 PUSH1 0x1 ADD PUSH2 0x2FC9 JUMP JUMPDEST POP SWAP2 SWAP8 SWAP7 POP POP POP POP POP POP POP JUMP JUMPDEST PUSH1 0x0 PUSH1 0x20 DUP3 MSTORE PUSH2 0x2CEE PUSH1 0x20 DUP4 ADD DUP5 PUSH2 0x2E20 JUMP JUMPDEST SWAP1 ISZERO ISZERO DUP2 MSTORE PUSH1 0x20 ADD SWAP1 JUMP JUMPDEST PUSH1 0x20 DUP1 DUP3 MSTORE PUSH1 0x17 SWAP1 DUP3 ADD MSTORE PUSH32 0x5265666572726572206E6F742072656769737465726564000000000000000000 PUSH1 0x40 DUP3 ADD MSTORE PUSH1 0x60 ADD SWAP1 JUMP JUMPDEST PUSH1 0x20 DUP1 DUP3 MSTORE PUSH1 0xE SWAP1 DUP3 ADD MSTORE PUSH14 0x139BDD081C9959DA5CDD195C9959 PUSH1 0x92 SHL PUSH1 0x40 DUP3 ADD MSTORE PUSH1 0x60 ADD SWAP1 JUMP JUMPDEST PUSH1 0x20 DUP1 DUP3 MSTORE PUSH1 0x15 SWAP1 DUP3 ADD MSTORE PUSH21 0x21B0B73737BA103932B332B9103CB7BAB939B2B633 PUSH1 0x59 SHL PUSH1 0x40 DUP3 ADD MSTORE PUSH1 0x60 ADD SWAP1 JUMP JUMPDEST PUSH1 0x20 DUP1 DUP3 MSTORE PUSH1 0x1F SWAP1 DUP3 ADD MSTORE PUSH32 0x44697265637420726566657272616C207472616E73666572206661696C656400 PUSH1 0x40 DUP3 ADD MSTORE PUSH1 0x60 ADD SWAP1 JUMP JUMPDEST PUSH1 0x20 DUP1 DUP3 MSTORE PUSH1 0x1E SWAP1 DUP3 ADD MSTORE PUSH32 0x4C6576656C203120726577617264207472616E73666572206661696C65640000 PUSH1 0x40 DUP3 ADD MSTORE PUSH1 0x60 ADD SWAP1 JUMP JUMPDEST PUSH1 0x20 DUP1 DUP3 MSTORE DUP2 DUP2 ADD MSTORE PUSH32 0x416D6F756E74206D7573742062652067726561746572207468616E207A65726F PUSH1 0x40 DUP3 ADD MSTORE PUSH1 0x60 ADD SWAP1 JUMP JUMPDEST PUSH1 0x20 DUP1 DUP3 MSTORE PUSH1 0x1D SWAP1 DUP3 ADD MSTORE PUSH32 0x416D6F756E74206D7573742062652067726561746572207468616E2030000000 PUSH1 0x40 DUP3 ADD MSTORE PUSH1 0x60 ADD SWAP1 JUMP JUMPDEST PUSH1 0x20 DUP1 DUP3 MSTORE PUSH1 0x12 SWAP1 DUP3 ADD MSTORE PUSH18 0x105B1C9958591E481C9959DA5CDD195C9959 PUSH1 0x72 SHL PUSH1 0x40 DUP3 ADD MSTORE PUSH1 0x60 ADD SWAP1 JUMP JUMPDEST PUSH1 0x20 DUP1 DUP3 MSTORE PUSH1 0x1C SWAP1 DUP3 ADD MSTORE PUSH32 0x4C6576656C20726577617264207472616E73666572206661696C656400000000 PUSH1 0x40 DUP3 ADD MSTORE PUSH1 0x60 ADD SWAP1 JUMP JUMPDEST PUSH1 0x20 DUP1 DUP3 MSTORE PUSH1 0x29 SWAP1 DUP3 ADD MSTORE PUSH32 0x496E73756666696369656E7420636F6E74726163742062616C616E636520666F PUSH1 0x40 DUP3 ADD MSTORE PUSH9 0x72206C6576656C2031 PUSH1 0xB8 SHL PUSH1 0x60 DUP3 ADD MSTORE PUSH1 0x80 ADD SWAP1 JUMP JUMPDEST PUSH1 0x20 DUP1 DUP3 MSTORE PUSH1 0x28 SWAP1 DUP3 ADD MSTORE PUSH32 0x5265666572726572206D757374207374616B65206265666F726520796F752063 PUSH1 0x40 DUP3 ADD MSTORE PUSH8 0x616E207374616B65 PUSH1 0xC0 SHL PUSH1 0x60 DUP3 ADD MSTORE PUSH1 0x80 ADD SWAP1 JUMP JUMPDEST PUSH1 0x20 DUP1 DUP3 MSTORE PUSH1 0x17 SWAP1 DUP3 ADD MSTORE PUSH32 0x4F6E6C79206F776E65722063616E207769746864726177000000000000000000 PUSH1 0x40 DUP3 ADD MSTORE PUSH1 0x60 ADD SWAP1 JUMP JUMPDEST PUSH1 0x20 DUP1 DUP3 MSTORE PUSH1 0x22 SWAP1 DUP3 ADD MSTORE PUSH32 0x5374616B65206E6F7420666F756E64206F7220616C726561647920636C61696D PUSH1 0x40 DUP3 ADD MSTORE PUSH2 0x1959 PUSH1 0xF2 SHL PUSH1 0x60 DUP3 ADD MSTORE PUSH1 0x80 ADD SWAP1 JUMP JUMPDEST PUSH1 0x20 DUP1 DUP3 MSTORE PUSH1 0x15 SWAP1 DUP3 ADD MSTORE PUSH21 0x151BDAD95B881D1C985B9CD9995C8819985A5B1959 PUSH1 0x5A SHL PUSH1 0x40 DUP3 ADD MSTORE PUSH1 0x60 ADD SWAP1 JUMP JUMPDEST PUSH1 0x20 DUP1 DUP3 MSTORE PUSH1 0x18 SWAP1 DUP3 ADD MSTORE PUSH32 0x496E76616C6964207374616B696E67206475726174696F6E0000000000000000 PUSH1 0x40 DUP3 ADD MSTORE PUSH1 0x60 ADD SWAP1 JUMP JUMPDEST PUSH1 0x20 DUP1 DUP3 MSTORE PUSH1 0x19 SWAP1 DUP3 ADD MSTORE PUSH32 0x496E76616C696420726563697069656E74206164647265737300000000000000 PUSH1 0x40 DUP3 ADD MSTORE PUSH1 0x60 ADD SWAP1 JUMP JUMPDEST PUSH1 0x20 DUP1 DUP3 MSTORE PUSH1 0x28 SWAP1 DUP3 ADD MSTORE PUSH32 0x496E73756666696369656E7420636F6E74726163742062616C616E636520666F PUSH1 0x40 DUP3 ADD MSTORE PUSH8 0x1C88191A5C9958DD PUSH1 0xC2 SHL PUSH1 0x60 DUP3 ADD MSTORE PUSH1 0x80 ADD SWAP1 JUMP JUMPDEST PUSH1 0x20 DUP1 DUP3 MSTORE DUP2 DUP2 ADD MSTORE PUSH32 0x5374616B696E6720706572696F64206E6F742079657420636F6D706C65746564 PUSH1 0x40 DUP3 ADD MSTORE PUSH1 0x60 ADD SWAP1 JUMP JUMPDEST PUSH1 0x20 DUP1 DUP3 MSTORE PUSH1 0x14 SWAP1 DUP3 ADD MSTORE PUSH20 0x1554D115081D1C985B9CD9995C8819985A5B1959 PUSH1 0x62 SHL PUSH1 0x40 DUP3 ADD MSTORE PUSH1 0x60 ADD SWAP1 JUMP JUMPDEST PUSH1 0x20 DUP1 DUP3 MSTORE PUSH1 0x2B SWAP1 DUP3 ADD MSTORE PUSH32 0x5265666572726572206D757374207374616B65206265666F726520796F752063 PUSH1 0x40 DUP3 ADD MSTORE PUSH11 0x30B7103932B3B4B9BA32B9 PUSH1 0xA9 SHL PUSH1 0x60 DUP3 ADD MSTORE PUSH1 0x80 ADD SWAP1 JUMP JUMPDEST PUSH1 0x20 DUP1 DUP3 MSTORE PUSH1 0xF SWAP1 DUP3 ADD MSTORE PUSH15 0x14DD185AD9481B9BDD08199BDD5B99 PUSH1 0x8A SHL PUSH1 0x40 DUP3 ADD MSTORE PUSH1 0x60 ADD SWAP1 JUMP JUMPDEST PUSH1 0x20 DUP1 DUP3 MSTORE PUSH1 0x2A SWAP1 DUP3 ADD MSTORE PUSH32 0x456D657267656E637920636C61696D20616C6C6F776564206F6E6C7920616674 PUSH1 0x40 DUP3 ADD MSTORE PUSH10 0x65722031302064617973 PUSH1 0xB0 SHL PUSH1 0x60 DUP3 ADD MSTORE PUSH1 0x80 ADD SWAP1 JUMP JUMPDEST PUSH1 0x20 DUP1 DUP3 MSTORE PUSH1 0x23 SWAP1 DUP3 ADD MSTORE PUSH32 0x5374616B6520616D6F756E74206D757374206265206772656174657220746861 PUSH1 0x40 DUP3 ADD MSTORE PUSH3 0x6E203 PUSH1 0xEC SHL PUSH1 0x60 DUP3 ADD MSTORE PUSH1 0x80 ADD SWAP1 JUMP JUMPDEST PUSH1 0x20 DUP1 DUP3 MSTORE PUSH1 0x14 SWAP1 DUP3 ADD MSTORE PUSH20 0x155CD95C881D1C985B9CD9995C8819985A5B1959 PUSH1 0x62 SHL PUSH1 0x40 DUP3 ADD MSTORE PUSH1 0x60 ADD SWAP1 JUMP JUMPDEST PUSH1 0x20 DUP1 DUP3 MSTORE PUSH1 0x19 SWAP1 DUP3 ADD MSTORE PUSH32 0x41646D696E20666565207472616E73666572206661696C656400000000000000 PUSH1 0x40 DUP3 ADD MSTORE PUSH1 0x60 ADD SWAP1 JUMP JUMPDEST PUSH1 0x20 DUP1 DUP3 MSTORE PUSH1 0x1D SWAP1 DUP3 ADD MSTORE PUSH32 0x496E73756666696369656E7420636F6E74726163742062616C616E6365000000 PUSH1 0x40 DUP3 ADD MSTORE PUSH1 0x60 ADD SWAP1 JUMP JUMPDEST PUSH1 0x20 DUP1 DUP3 MSTORE PUSH1 0x18 SWAP1 DUP3 ADD MSTORE PUSH32 0x4F6E6C79206F776E65722063616E2063616C6C20746869730000000000000000 PUSH1 0x40 DUP3 ADD MSTORE PUSH1 0x60 ADD SWAP1 JUMP JUMPDEST PUSH1 0x20 DUP1 DUP3 MSTORE PUSH1 0x10 SWAP1 DUP3 ADD MSTORE PUSH16 0x44617973206D757374206265203E203 PUSH1 0x84 SHL PUSH1 0x40 DUP3 ADD MSTORE PUSH1 0x60 ADD SWAP1 JUMP JUMPDEST PUSH1 0x20 DUP1 DUP3 MSTORE PUSH1 0x12 SWAP1 DUP3 ADD MSTORE PUSH18 0x125B9D985B1A59081C1BDCDA5D1A5BDB9259 PUSH1 0x72 SHL PUSH1 0x40 DUP3 ADD MSTORE PUSH1 0x60 ADD SWAP1 JUMP JUMPDEST SWAP1 DUP2 MSTORE PUSH1 0x20 ADD SWAP1 JUMP JUMPDEST SWAP2 DUP3 MSTORE PUSH1 0x20 DUP3 ADD MSTORE PUSH1 0x40 ADD SWAP1 JUMP JUMPDEST SWAP3 DUP4 MSTORE PUSH1 0x20 DUP4 ADD SWAP2 SWAP1 SWAP2 MSTORE PUSH1 0x40 DUP3 ADD MSTORE PUSH1 0x60 ADD SWAP1 JUMP JUMPDEST PUSH1 0xFF SWAP2 SWAP1 SWAP2 AND DUP2 MSTORE PUSH1 0x20 ADD SWAP1 JUMP JUMPDEST PUSH1 0x0 DUP3 NOT DUP3 GT ISZERO PUSH2 0x36F2 JUMPI PUSH2 0x36F2 PUSH2 0x37AD JUMP JUMPDEST POP ADD SWAP1 JUMP JUMPDEST PUSH1 0x0 PUSH1 0xFF DUP3 AND PUSH1 0xFF DUP5 AND DUP1 PUSH1 0xFF SUB DUP3 GT ISZERO PUSH2 0x3714 JUMPI PUSH2 0x3714 PUSH2 0x37AD JUMP JUMPDEST ADD SWAP4 SWAP3 POP POP POP JUMP JUMPDEST PUSH1 0x0 DUP3 PUSH2 0x3737 JUMPI PUSH4 0x4E487B71 PUSH1 0xE0 SHL DUP2 MSTORE PUSH1 0x12 PUSH1 0x4 MSTORE PUSH1 0x24 DUP2 REVERT JUMPDEST POP DIV SWAP1 JUMP JUMPDEST PUSH1 0x0 DUP2 PUSH1 0x0 NOT DIV DUP4 GT DUP3 ISZERO ISZERO AND ISZERO PUSH2 0x3756 JUMPI PUSH2 0x3756 PUSH2 0x37AD JUMP JUMPDEST POP MUL SWAP1 JUMP JUMPDEST PUSH1 0x0 DUP3 DUP3 LT ISZERO PUSH2 0x376D JUMPI PUSH2 0x376D PUSH2 0x37AD JUMP JUMPDEST POP SUB SWAP1 JUMP JUMPDEST PUSH1 0x0 PUSH1 0x0 NOT DUP3 EQ ISZERO PUSH2 0x3786 JUMPI PUSH2 0x3786 PUSH2 0x37AD JUMP JUMPDEST POP PUSH1 0x1 ADD SWAP1 JUMP JUMPDEST PUSH1 0x0 PUSH1 0xFF DUP3 AND PUSH1 0xFF DUP2 EQ ISZERO PUSH2 0x37A4 JUMPI PUSH2 0x37A4 PUSH2 0x37AD JUMP JUMPDEST PUSH1 0x1 ADD SWAP3 SWAP2 POP POP JUMP JUMPDEST PUSH4 0x4E487B71 PUSH1 0xE0 SHL PUSH1 0x0 MSTORE PUSH1 0x11 PUSH1 0x4 MSTORE PUSH1 0x24 PUSH1 0x0 REVERT JUMPDEST PUSH4 0x4E487B71 PUSH1 0xE0 SHL PUSH1 0x0 MSTORE PUSH1 0x41 PUSH1 0x4 MSTORE PUSH1 0x24 PUSH1 0x0 REVERT INVALID LOG2 PUSH5 0x6970667358 0x22 SLT KECCAK256 BYTE 0xEF 0x4B 0xEB PC DUP5 0xC4 SWAP7 LOG1 0x4A 0xE0 0x26 0xA7 SWAP6 0x2B RETURNDATASIZE PUSH15 0x8508963FDE82035FAF129EDCB4E177 PUSH5 0x736F6C6343 STOP ADDMOD STOP STOP CALLER "
				},
				"gasEstimates": {
					"creation": {
						"codeDepositCost": "2870200",
						"executionCost": "infinite",
						"totalCost": "infinite"
					},
					"external": {
						"allUsers(uint256)": "2150",
						"claim(uint256)": "infinite",
						"claimEmergency(uint256)": "infinite",
						"directReferralIncome(address)": "1340",
						"directReferrals(address,uint256)": "3947",
						"getContractBalance()": "infinite",
						"getDirectReferralCount(address)": "1316",
						"getDirectReferralIncome(address)": "1359",
						"getEstimatedReturn(uint256,uint256)": "infinite",
						"getLevelIncome(address)": "1328",
						"getLevelIncomeDistribution(address)": "infinite",
						"getPositionIds(address)": "infinite",
						"getReferralIncomeDetails(address)": "infinite",
						"getStakeByPositionId(uint256)": "infinite",
						"getTotalIncome(address)": "1321",
						"getTotalLevelIncome(address)": "1371",
						"getTotalUsers()": "1096",
						"getUserLevel(address)": "infinite",
						"isRegistered(address)": "1355",
						"levelRewards(uint256)": "2853",
						"owner()": "1181",
						"ownerTransfer(address,uint256)": "infinite",
						"positionIdToUser(uint256)": "1282",
						"register(address)": "153516",
						"setLevelRewards(uint8[5])": "infinite",
						"setStakingAPY(uint256,uint256)": "21291",
						"stake(uint256,uint256)": "infinite",
						"stakeCounter()": "1138",
						"stakingAPY(uint256)": "1260",
						"usdtToken()": "1137",
						"users(address)": "3871",
						"withdrawUSDT(uint256)": "infinite"
					}
				},
				"methodIdentifiers": {
					"allUsers(uint256)": "a2bdedf4",
					"claim(uint256)": "379607f5",
					"claimEmergency(uint256)": "6c8c2156",
					"directReferralIncome(address)": "f6e88873",
					"directReferrals(address,uint256)": "05ad3935",
					"getContractBalance()": "6f9fb98a",
					"getDirectReferralCount(address)": "98278efb",
					"getDirectReferralIncome(address)": "aa7ed462",
					"getEstimatedReturn(uint256,uint256)": "bd297178",
					"getLevelIncome(address)": "5bd4e16a",
					"getLevelIncomeDistribution(address)": "ef71ae56",
					"getPositionIds(address)": "28fe7031",
					"getReferralIncomeDetails(address)": "9d747bad",
					"getStakeByPositionId(uint256)": "797c7f5f",
					"getTotalIncome(address)": "c2d3c677",
					"getTotalLevelIncome(address)": "c5b89c0a",
					"getTotalUsers()": "9be572f6",
					"getUserLevel(address)": "21923bde",
					"isRegistered(address)": "c3c5a547",
					"levelRewards(uint256)": "e45a57d0",
					"owner()": "8da5cb5b",
					"ownerTransfer(address,uint256)": "d85c8966",
					"positionIdToUser(uint256)": "1e43eb27",
					"register(address)": "4420e486",
					"setLevelRewards(uint8[5])": "656596a5",
					"setStakingAPY(uint256,uint256)": "4850d2a2",
					"stake(uint256,uint256)": "7b0472f0",
					"stakeCounter()": "f7b17d10",
					"stakingAPY(uint256)": "875bb4e2",
					"usdtToken()": "a98ad46c",
					"users(address)": "a87430ba",
					"withdrawUSDT(uint256)": "3ea521ef"
				}
			},
			"storageLayout": {
				"storage": [
					{
						"astId": 31,
						"contract": "contracts/roy.sol:SikkaStakingDecentralize",
						"label": "owner",
						"offset": 0,
						"slot": "0",
						"type": "t_address"
					},
					{
						"astId": 33,
						"contract": "contracts/roy.sol:SikkaStakingDecentralize",
						"label": "stakeCounter",
						"offset": 0,
						"slot": "1",
						"type": "t_uint256"
					},
					{
						"astId": 36,
						"contract": "contracts/roy.sol:SikkaStakingDecentralize",
						"label": "usdtToken",
						"offset": 0,
						"slot": "2",
						"type": "t_contract(IERC20)29"
					},
					{
						"astId": 149,
						"contract": "contracts/roy.sol:SikkaStakingDecentralize",
						"label": "users",
						"offset": 0,
						"slot": "3",
						"type": "t_mapping(t_address,t_struct(User)129_storage)"
					},
					{
						"astId": 155,
						"contract": "contracts/roy.sol:SikkaStakingDecentralize",
						"label": "directReferrals",
						"offset": 0,
						"slot": "4",
						"type": "t_mapping(t_address,t_array(t_struct(ReferralInfo)116_storage)dyn_storage)"
					},
					{
						"astId": 159,
						"contract": "contracts/roy.sol:SikkaStakingDecentralize",
						"label": "positionIdToUser",
						"offset": 0,
						"slot": "5",
						"type": "t_mapping(t_uint256,t_address)"
					},
					{
						"astId": 163,
						"contract": "contracts/roy.sol:SikkaStakingDecentralize",
						"label": "stakingAPY",
						"offset": 0,
						"slot": "6",
						"type": "t_mapping(t_uint256,t_uint256)"
					},
					{
						"astId": 167,
						"contract": "contracts/roy.sol:SikkaStakingDecentralize",
						"label": "directReferralIncome",
						"offset": 0,
						"slot": "7",
						"type": "t_mapping(t_address,t_uint256)"
					},
					{
						"astId": 170,
						"contract": "contracts/roy.sol:SikkaStakingDecentralize",
						"label": "allUsers",
						"offset": 0,
						"slot": "8",
						"type": "t_array(t_address)dyn_storage"
					},
					{
						"astId": 180,
						"contract": "contracts/roy.sol:SikkaStakingDecentralize",
						"label": "levelRewards",
						"offset": 0,
						"slot": "9",
						"type": "t_array(t_uint8)5_storage"
					}
				],
				"types": {
					"t_address": {
						"encoding": "inplace",
						"label": "address",
						"numberOfBytes": "20"
					},
					"t_array(t_address)dyn_storage": {
						"base": "t_address",
						"encoding": "dynamic_array",
						"label": "address[]",
						"numberOfBytes": "32"
					},
					"t_array(t_struct(ReferralInfo)116_storage)dyn_storage": {
						"base": "t_struct(ReferralInfo)116_storage",
						"encoding": "dynamic_array",
						"label": "struct SikkaStakingDecentralize.ReferralInfo[]",
						"numberOfBytes": "32"
					},
					"t_array(t_struct(Stake)109_storage)dyn_storage": {
						"base": "t_struct(Stake)109_storage",
						"encoding": "dynamic_array",
						"label": "struct SikkaStakingDecentralize.Stake[]",
						"numberOfBytes": "32"
					},
					"t_array(t_uint8)5_storage": {
						"base": "t_uint8",
						"encoding": "inplace",
						"label": "uint8[5]",
						"numberOfBytes": "32"
					},
					"t_bool": {
						"encoding": "inplace",
						"label": "bool",
						"numberOfBytes": "1"
					},
					"t_contract(IERC20)29": {
						"encoding": "inplace",
						"label": "contract IERC20",
						"numberOfBytes": "20"
					},
					"t_mapping(t_address,t_array(t_struct(ReferralInfo)116_storage)dyn_storage)": {
						"encoding": "mapping",
						"key": "t_address",
						"label": "mapping(address => struct SikkaStakingDecentralize.ReferralInfo[])",
						"numberOfBytes": "32",
						"value": "t_array(t_struct(ReferralInfo)116_storage)dyn_storage"
					},
					"t_mapping(t_address,t_struct(User)129_storage)": {
						"encoding": "mapping",
						"key": "t_address",
						"label": "mapping(address => struct SikkaStakingDecentralize.User)",
						"numberOfBytes": "32",
						"value": "t_struct(User)129_storage"
					},
					"t_mapping(t_address,t_uint256)": {
						"encoding": "mapping",
						"key": "t_address",
						"label": "mapping(address => uint256)",
						"numberOfBytes": "32",
						"value": "t_uint256"
					},
					"t_mapping(t_uint256,t_address)": {
						"encoding": "mapping",
						"key": "t_uint256",
						"label": "mapping(uint256 => address)",
						"numberOfBytes": "32",
						"value": "t_address"
					},
					"t_mapping(t_uint256,t_uint256)": {
						"encoding": "mapping",
						"key": "t_uint256",
						"label": "mapping(uint256 => uint256)",
						"numberOfBytes": "32",
						"value": "t_uint256"
					},
					"t_struct(ReferralInfo)116_storage": {
						"encoding": "inplace",
						"label": "struct SikkaStakingDecentralize.ReferralInfo",
						"members": [
							{
								"astId": 111,
								"contract": "contracts/roy.sol:SikkaStakingDecentralize",
								"label": "referralAddress",
								"offset": 0,
								"slot": "0",
								"type": "t_address"
							},
							{
								"astId": 113,
								"contract": "contracts/roy.sol:SikkaStakingDecentralize",
								"label": "incomeEarned",
								"offset": 0,
								"slot": "1",
								"type": "t_uint256"
							},
							{
								"astId": 115,
								"contract": "contracts/roy.sol:SikkaStakingDecentralize",
								"label": "timestamp",
								"offset": 0,
								"slot": "2",
								"type": "t_uint256"
							}
						],
						"numberOfBytes": "96"
					},
					"t_struct(Stake)109_storage": {
						"encoding": "inplace",
						"label": "struct SikkaStakingDecentralize.Stake",
						"members": [
							{
								"astId": 98,
								"contract": "contracts/roy.sol:SikkaStakingDecentralize",
								"label": "stakeId",
								"offset": 0,
								"slot": "0",
								"type": "t_uint256"
							},
							{
								"astId": 100,
								"contract": "contracts/roy.sol:SikkaStakingDecentralize",
								"label": "positionId",
								"offset": 0,
								"slot": "1",
								"type": "t_uint256"
							},
							{
								"astId": 102,
								"contract": "contracts/roy.sol:SikkaStakingDecentralize",
								"label": "amount",
								"offset": 0,
								"slot": "2",
								"type": "t_uint256"
							},
							{
								"astId": 104,
								"contract": "contracts/roy.sol:SikkaStakingDecentralize",
								"label": "timestamp",
								"offset": 0,
								"slot": "3",
								"type": "t_uint256"
							},
							{
								"astId": 106,
								"contract": "contracts/roy.sol:SikkaStakingDecentralize",
								"label": "numDays",
								"offset": 0,
								"slot": "4",
								"type": "t_uint256"
							},
							{
								"astId": 108,
								"contract": "contracts/roy.sol:SikkaStakingDecentralize",
								"label": "claimed",
								"offset": 0,
								"slot": "5",
								"type": "t_bool"
							}
						],
						"numberOfBytes": "192"
					},
					"t_struct(User)129_storage": {
						"encoding": "inplace",
						"label": "struct SikkaStakingDecentralize.User",
						"members": [
							{
								"astId": 118,
								"contract": "contracts/roy.sol:SikkaStakingDecentralize",
								"label": "referrer",
								"offset": 0,
								"slot": "0",
								"type": "t_address"
							},
							{
								"astId": 122,
								"contract": "contracts/roy.sol:SikkaStakingDecentralize",
								"label": "stakes",
								"offset": 0,
								"slot": "1",
								"type": "t_array(t_struct(Stake)109_storage)dyn_storage"
							},
							{
								"astId": 124,
								"contract": "contracts/roy.sol:SikkaStakingDecentralize",
								"label": "totalIncome",
								"offset": 0,
								"slot": "2",
								"type": "t_uint256"
							},
							{
								"astId": 126,
								"contract": "contracts/roy.sol:SikkaStakingDecentralize",
								"label": "levelIncome",
								"offset": 0,
								"slot": "3",
								"type": "t_uint256"
							},
							{
								"astId": 128,
								"contract": "contracts/roy.sol:SikkaStakingDecentralize",
								"label": "registered",
								"offset": 0,
								"slot": "4",
								"type": "t_bool"
							}
						],
						"numberOfBytes": "160"
					},
					"t_uint256": {
						"encoding": "inplace",
						"label": "uint256",
						"numberOfBytes": "32"
					},
					"t_uint8": {
						"encoding": "inplace",
						"label": "uint8",
						"numberOfBytes": "1"
					}
				}
			},
			"userdoc": {
				"kind": "user",
				"methods": {},
				"version": 1
			}
		}
	}
}