{
	"contracts/st.sol": {
		"NFTStaking": {
			"abi": [
				{
					"inputs": [
						{
							"internalType": "address",
							"name": "_usdtAddress",
							"type": "address"
						}
					],
					"stateMutability": "nonpayable",
					"type": "constructor"
				},
				{
					"anonymous": false,
					"inputs": [
						{
							"indexed": true,
							"internalType": "uint256",
							"name": "positionId",
							"type": "uint256"
						},
						{
							"indexed": true,
							"internalType": "address",
							"name": "staker",
							"type": "address"
						},
						{
							"indexed": false,
							"internalType": "uint256",
							"name": "tokenId",
							"type": "uint256"
						},
						{
							"indexed": false,
							"internalType": "uint256",
							"name": "amount",
							"type": "uint256"
						},
						{
							"indexed": false,
							"internalType": "uint256",
							"name": "unlockDate",
							"type": "uint256"
						}
					],
					"name": "NFTStaked",
					"type": "event"
				},
				{
					"anonymous": false,
					"inputs": [
						{
							"indexed": true,
							"internalType": "uint256",
							"name": "positionId",
							"type": "uint256"
						},
						{
							"indexed": true,
							"internalType": "address",
							"name": "staker",
							"type": "address"
						},
						{
							"indexed": false,
							"internalType": "uint256",
							"name": "amountWithdrawn",
							"type": "uint256"
						},
						{
							"indexed": false,
							"internalType": "uint256",
							"name": "interestEarned",
							"type": "uint256"
						}
					],
					"name": "NFTUnstaked",
					"type": "event"
				},
				{
					"anonymous": false,
					"inputs": [
						{
							"indexed": true,
							"internalType": "address",
							"name": "owner",
							"type": "address"
						},
						{
							"indexed": false,
							"internalType": "uint256",
							"name": "amount",
							"type": "uint256"
						}
					],
					"name": "Withdrawn",
					"type": "event"
				},
				{
					"inputs": [
						{
							"internalType": "uint256",
							"name": "positionId",
							"type": "uint256"
						}
					],
					"name": "calculatePreDaysInterest",
					"outputs": [
						{
							"internalType": "uint256",
							"name": "",
							"type": "uint256"
						}
					],
					"stateMutability": "view",
					"type": "function"
				},
				{
					"inputs": [],
					"name": "currentPositionId",
					"outputs": [
						{
							"internalType": "uint256",
							"name": "",
							"type": "uint256"
						}
					],
					"stateMutability": "view",
					"type": "function"
				},
				{
					"inputs": [
						{
							"internalType": "uint256",
							"name": "numDays",
							"type": "uint256"
						}
					],
					"name": "getAPY",
					"outputs": [
						{
							"internalType": "uint256",
							"name": "",
							"type": "uint256"
						}
					],
					"stateMutability": "view",
					"type": "function"
				},
				{
					"inputs": [
						{
							"internalType": "uint256",
							"name": "positionId",
							"type": "uint256"
						}
					],
					"name": "getPositionById",
					"outputs": [
						{
							"components": [
								{
									"internalType": "uint256",
									"name": "positionId",
									"type": "uint256"
								},
								{
									"internalType": "address",
									"name": "walletAddress",
									"type": "address"
								},
								{
									"internalType": "uint256",
									"name": "tokenId",
									"type": "uint256"
								},
								{
									"internalType": "uint256",
									"name": "createdDate",
									"type": "uint256"
								},
								{
									"internalType": "uint256",
									"name": "unlockDate",
									"type": "uint256"
								},
								{
									"internalType": "uint256",
									"name": "apy",
									"type": "uint256"
								},
								{
									"internalType": "uint256",
									"name": "amountStaked",
									"type": "uint256"
								},
								{
									"internalType": "uint256",
									"name": "totalInterest",
									"type": "uint256"
								},
								{
									"internalType": "bool",
									"name": "open",
									"type": "bool"
								}
							],
							"internalType": "struct NFTStaking.Position",
							"name": "",
							"type": "tuple"
						}
					],
					"stateMutability": "view",
					"type": "function"
				},
				{
					"inputs": [
						{
							"internalType": "address",
							"name": "walletAddress",
							"type": "address"
						}
					],
					"name": "getPositionIdsForAddress",
					"outputs": [
						{
							"internalType": "uint256[]",
							"name": "",
							"type": "uint256[]"
						}
					],
					"stateMutability": "view",
					"type": "function"
				},
				{
					"inputs": [
						{
							"internalType": "uint256",
							"name": "numDays",
							"type": "uint256"
						},
						{
							"internalType": "uint256",
							"name": "apy",
							"type": "uint256"
						}
					],
					"name": "modifyStakingAPY",
					"outputs": [],
					"stateMutability": "nonpayable",
					"type": "function"
				},
				{
					"inputs": [],
					"name": "nftUSDT",
					"outputs": [
						{
							"internalType": "contract IERC20",
							"name": "",
							"type": "address"
						}
					],
					"stateMutability": "view",
					"type": "function"
				},
				{
					"inputs": [],
					"name": "owner",
					"outputs": [
						{
							"internalType": "address",
							"name": "",
							"type": "address"
						}
					],
					"stateMutability": "view",
					"type": "function"
				},
				{
					"inputs": [
						{
							"internalType": "address",
							"name": "",
							"type": "address"
						},
						{
							"internalType": "uint256",
							"name": "",
							"type": "uint256"
						}
					],
					"name": "positionIdsByAddress",
					"outputs": [
						{
							"internalType": "uint256",
							"name": "",
							"type": "uint256"
						}
					],
					"stateMutability": "view",
					"type": "function"
				},
				{
					"inputs": [
						{
							"internalType": "uint256",
							"name": "",
							"type": "uint256"
						}
					],
					"name": "positions",
					"outputs": [
						{
							"internalType": "uint256",
							"name": "positionId",
							"type": "uint256"
						},
						{
							"internalType": "address",
							"name": "walletAddress",
							"type": "address"
						},
						{
							"internalType": "uint256",
							"name": "tokenId",
							"type": "uint256"
						},
						{
							"internalType": "uint256",
							"name": "createdDate",
							"type": "uint256"
						},
						{
							"internalType": "uint256",
							"name": "unlockDate",
							"type": "uint256"
						},
						{
							"internalType": "uint256",
							"name": "apy",
							"type": "uint256"
						},
						{
							"internalType": "uint256",
							"name": "amountStaked",
							"type": "uint256"
						},
						{
							"internalType": "uint256",
							"name": "totalInterest",
							"type": "uint256"
						},
						{
							"internalType": "bool",
							"name": "open",
							"type": "bool"
						}
					],
					"stateMutability": "view",
					"type": "function"
				},
				{
					"inputs": [
						{
							"internalType": "uint256",
							"name": "tokenId",
							"type": "uint256"
						},
						{
							"internalType": "uint256",
							"name": "numDays",
							"type": "uint256"
						},
						{
							"internalType": "uint256",
							"name": "amount",
							"type": "uint256"
						}
					],
					"name": "stakeNFT",
					"outputs": [],
					"stateMutability": "nonpayable",
					"type": "function"
				},
				{
					"inputs": [
						{
							"internalType": "uint256",
							"name": "",
							"type": "uint256"
						}
					],
					"name": "stakingAPY",
					"outputs": [
						{
							"internalType": "uint256",
							"name": "",
							"type": "uint256"
						}
					],
					"stateMutability": "view",
					"type": "function"
				},
				{
					"inputs": [
						{
							"internalType": "uint256",
							"name": "positionId",
							"type": "uint256"
						}
					],
					"name": "unstakeNFT",
					"outputs": [],
					"stateMutability": "nonpayable",
					"type": "function"
				},
				{
					"inputs": [
						{
							"internalType": "uint256",
							"name": "amount",
							"type": "uint256"
						}
					],
					"name": "withdraw",
					"outputs": [],
					"stateMutability": "nonpayable",
					"type": "function"
				}
			],
			"devdoc": {
				"kind": "dev",
				"methods": {},
				"version": 1
			},
			"evm": {
				"assembly": "    /* \"contracts/st.sol\":417:5766  contract NFTStaking {... */\n  mstore(0x40, 0x80)\n    /* \"contracts/st.sol\":1308:1620  constructor(address _usdtAddress) {... */\n  callvalue\n  dup1\n  iszero\n  tag_1\n  jumpi\n  0x00\n  dup1\n  revert\ntag_1:\n  pop\n  mload(0x40)\n  sub(codesize, bytecodeSize)\n  dup1\n  bytecodeSize\n  dup4\n  codecopy\n  dup2\n  add\n  0x40\n  dup2\n  swap1\n  mstore\n  tag_2\n  swap2\n  tag_3\n  jump\t// in\ntag_2:\n    /* \"contracts/st.sol\":1353:1358  owner */\n  0x00\n    /* \"contracts/st.sol\":1353:1371  owner = msg.sender */\n  dup1\n  sload\n    /* \"contracts/st.sol\":1361:1371  msg.sender */\n  caller\n  not(sub(shl(0xa0, 0x01), 0x01))\n    /* \"contracts/st.sol\":1353:1371  owner = msg.sender */\n  swap2\n  dup3\n  and\n  or\n  dup3\n  sstore\n  0x01\n    /* \"contracts/st.sol\":1382:1412  nftUSDT = IERC20(_usdtAddress) */\n  dup1\n  sload\n  swap1\n  swap2\n  and\n  sub(shl(0xa0, 0x01), 0x01)\n  swap4\n  swap1\n  swap4\n  and\n  swap3\n  swap1\n  swap3\n  or\n  dup3\n  sstore\n    /* \"contracts/st.sol\":1423:1440  currentPositionId */\n  0x02\n    /* \"contracts/st.sol\":1423:1444  currentPositionId = 1 */\n  swap2\n  dup3\n  sstore\n    /* \"contracts/st.sol\":1504:1514  stakingAPY */\n  0x05\n    /* \"contracts/st.sol\":1504:1518  stakingAPY[30] */\n  0x20\n  mstore\n  0x3fb1f8b5b572f385df2ff517fa4200d6781fd017f742a2f073e874e0dca7758b\n    /* \"contracts/st.sol\":1504:1522  stakingAPY[30] = 2 */\n  swap2\n  swap1\n  swap2\n  sstore\n    /* \"contracts/st.sol\":1550:1551  3 */\n  0x03\n    /* \"contracts/st.sol\":1533:1547  stakingAPY[90] */\n  0xaadf04b4a1bf84e121ab68e5c1cffab5aeb9be1a024ff9944a2a0bc167486609\n    /* \"contracts/st.sol\":1533:1551  stakingAPY[90] = 3 */\n  sstore\n    /* \"contracts/st.sol\":1580:1581  6 */\n  0x06\n    /* \"contracts/st.sol\":1562:1577  stakingAPY[180] */\n  0xec79235ffe9302935718f9bddc23f2c5c6c950ae49f49d137c786213c3618027\n    /* \"contracts/st.sol\":1562:1581  stakingAPY[180] = 6 */\n  sstore\n    /* \"contracts/st.sol\":1603:1606  365 */\n  0x016d\n    /* \"contracts/st.sol\":1592:1607  stakingAPY[365] */\n  swap1\n  mstore\n    /* \"contracts/st.sol\":1610:1612  12 */\n  0x0c\n    /* \"contracts/st.sol\":1592:1607  stakingAPY[365] */\n  0x54542a457831feeb9bd57bf2716ad5fa566bad2451f1bfa5bede1bae8242d18d\n    /* \"contracts/st.sol\":1592:1612  stakingAPY[365] = 12 */\n  sstore\n    /* \"contracts/st.sol\":417:5766  contract NFTStaking {... */\n  jump(tag_7)\n    /* \"#utility.yul\":14:304   */\ntag_3:\n    /* \"#utility.yul\":84:90   */\n  0x00\n    /* \"#utility.yul\":137:139   */\n  0x20\n    /* \"#utility.yul\":125:134   */\n  dup3\n    /* \"#utility.yul\":116:123   */\n  dup5\n    /* \"#utility.yul\":112:135   */\n  sub\n    /* \"#utility.yul\":108:140   */\n  slt\n    /* \"#utility.yul\":105:157   */\n  iszero\n  tag_9\n  jumpi\n    /* \"#utility.yul\":153:154   */\n  0x00\n    /* \"#utility.yul\":150:151   */\n  dup1\n    /* \"#utility.yul\":143:155   */\n  revert\n    /* \"#utility.yul\":105:157   */\ntag_9:\n    /* \"#utility.yul\":179:195   */\n  dup2\n  mload\n  sub(shl(0xa0, 0x01), 0x01)\n    /* \"#utility.yul\":224:255   */\n  dup2\n  and\n    /* \"#utility.yul\":214:256   */\n  dup2\n  eq\n    /* \"#utility.yul\":204:274   */\n  tag_10\n  jumpi\n    /* \"#utility.yul\":270:271   */\n  0x00\n    /* \"#utility.yul\":267:268   */\n  dup1\n    /* \"#utility.yul\":260:272   */\n  revert\n    /* \"#utility.yul\":204:274   */\ntag_10:\n    /* \"#utility.yul\":293:298   */\n  swap4\n    /* \"#utility.yul\":14:304   */\n  swap3\n  pop\n  pop\n  pop\n  jump\t// out\ntag_7:\n    /* \"contracts/st.sol\":417:5766  contract NFTStaking {... */\n  dataSize(sub_0)\n  dup1\n  dataOffset(sub_0)\n  0x00\n  codecopy\n  0x00\n  return\nstop\n\nsub_0: assembly {\n        /* \"contracts/st.sol\":417:5766  contract NFTStaking {... */\n      mstore(0x40, 0x80)\n      callvalue\n      dup1\n      iszero\n      tag_1\n      jumpi\n      0x00\n      dup1\n      revert\n    tag_1:\n      pop\n      jumpi(tag_2, lt(calldatasize, 0x04))\n      shr(0xe0, calldataload(0x00))\n      dup1\n      0x99fbab88\n      gt\n      tag_17\n      jumpi\n      dup1\n      0xb838ec86\n      gt\n      tag_18\n      jumpi\n      dup1\n      0xb838ec86\n      eq\n      tag_13\n      jumpi\n      dup1\n      0xc1dfa0bb\n      eq\n      tag_14\n      jumpi\n      dup1\n      0xc7d065bc\n      eq\n      tag_15\n      jumpi\n      dup1\n      0xeeee849b\n      eq\n      tag_16\n      jumpi\n      0x00\n      dup1\n      revert\n    tag_18:\n      dup1\n      0x99fbab88\n      eq\n      tag_10\n      jumpi\n      dup1\n      0x9d0f8ca1\n      eq\n      tag_11\n      jumpi\n      dup1\n      0xa7211ff8\n      eq\n      tag_12\n      jumpi\n      0x00\n      dup1\n      revert\n    tag_17:\n      dup1\n      0x45eae373\n      gt\n      tag_19\n      jumpi\n      dup1\n      0x45eae373\n      eq\n      tag_6\n      jumpi\n      dup1\n      0x857224ee\n      eq\n      tag_7\n      jumpi\n      dup1\n      0x875bb4e2\n      eq\n      tag_8\n      jumpi\n      dup1\n      0x8da5cb5b\n      eq\n      tag_9\n      jumpi\n      0x00\n      dup1\n      revert\n    tag_19:\n      dup1\n      0x1131c8cd\n      eq\n      tag_3\n      jumpi\n      dup1\n      0x2e1a7d4d\n      eq\n      tag_4\n      jumpi\n      dup1\n      0x40d98a44\n      eq\n      tag_5\n      jumpi\n    tag_2:\n      0x00\n      dup1\n      revert\n        /* \"contracts/st.sol\":784:816  uint256 public currentPositionId */\n    tag_3:\n      tag_20\n      sload(0x02)\n      dup2\n      jump\n    tag_20:\n      mload(0x40)\n        /* \"#utility.yul\":160:185   */\n      swap1\n      dup2\n      mstore\n        /* \"#utility.yul\":148:150   */\n      0x20\n        /* \"#utility.yul\":133:151   */\n      add\n        /* \"contracts/st.sol\":784:816  uint256 public currentPositionId */\n    tag_22:\n      mload(0x40)\n      dup1\n      swap2\n      sub\n      swap1\n      return\n        /* \"contracts/st.sol\":5461:5763  function withdraw(uint256 amount) external {... */\n    tag_4:\n      tag_24\n      tag_25\n      calldatasize\n      0x04\n      tag_26\n      jump\t// in\n    tag_25:\n      tag_27\n      jump\t// in\n    tag_24:\n      stop\n        /* \"contracts/st.sol\":5006:5165  function getPositionIdsForAddress(address walletAddress) external view returns (uint256[] memory) {... */\n    tag_5:\n      tag_28\n      tag_29\n      calldatasize\n      0x04\n      tag_30\n      jump\t// in\n    tag_29:\n      tag_31\n      jump\t// in\n    tag_28:\n      mload(0x40)\n      tag_22\n      swap2\n      swap1\n      tag_33\n      jump\t// in\n        /* \"contracts/st.sol\":875:932  mapping(address => uint256[]) public positionIdsByAddress */\n    tag_6:\n      tag_20\n      tag_35\n      calldatasize\n      0x04\n      tag_36\n      jump\t// in\n    tag_35:\n      tag_37\n      jump\t// in\n        /* \"contracts/st.sol\":5291:5453  function modifyStakingAPY(uint256 numDays, uint256 apy) external {... */\n    tag_7:\n      tag_24\n      tag_40\n      calldatasize\n      0x04\n      tag_41\n      jump\t// in\n    tag_40:\n      tag_42\n      jump\t// in\n        /* \"contracts/st.sol\":939:984  mapping(uint256 => uint256) public stakingAPY */\n    tag_8:\n      tag_20\n      tag_44\n      calldatasize\n      0x04\n      tag_26\n      jump\t// in\n    tag_44:\n      mstore(0x20, 0x05)\n      0x00\n      swap1\n      dup2\n      mstore\n      0x40\n      swap1\n      keccak256\n      sload\n      dup2\n      jump\n        /* \"contracts/st.sol\":444:464  address public owner */\n    tag_9:\n      sload(0x00)\n      tag_47\n      swap1\n      sub(shl(0xa0, 0x01), 0x01)\n      and\n      dup2\n      jump\n    tag_47:\n      mload(0x40)\n      sub(shl(0xa0, 0x01), 0x01)\n        /* \"#utility.yul\":2063:2095   */\n      swap1\n      swap2\n      and\n        /* \"#utility.yul\":2045:2096   */\n      dup2\n      mstore\n        /* \"#utility.yul\":2033:2035   */\n      0x20\n        /* \"#utility.yul\":2018:2036   */\n      add\n        /* \"contracts/st.sol\":444:464  address public owner */\n      tag_22\n        /* \"#utility.yul\":1899:2102   */\n      jump\n        /* \"contracts/st.sol\":823:868  mapping(uint256 => Position) public positions */\n    tag_10:\n      tag_51\n      tag_52\n      calldatasize\n      0x04\n      tag_26\n      jump\t// in\n    tag_52:\n      0x03\n      0x20\n      dup2\n      swap1\n      mstore\n      0x00\n      swap2\n      dup3\n      mstore\n      0x40\n      swap1\n      swap2\n      keccak256\n      dup1\n      sload\n      0x01\n      dup3\n      add\n      sload\n      0x02\n      dup4\n      add\n      sload\n      swap4\n      dup4\n      add\n      sload\n      0x04\n      dup5\n      add\n      sload\n      0x05\n      dup6\n      add\n      sload\n      0x06\n      dup7\n      add\n      sload\n      0x07\n      dup8\n      add\n      sload\n      0x08\n      swap1\n      swap8\n      add\n      sload\n      swap6\n      swap8\n      sub(shl(0xa0, 0x01), 0x01)\n      swap1\n      swap6\n      and\n      swap7\n      swap5\n      swap6\n      swap4\n      swap5\n      swap3\n      swap4\n      swap2\n      swap3\n      swap1\n      swap2\n      0xff\n      and\n      dup10\n      jump\n    tag_51:\n      0x40\n      dup1\n      mload\n        /* \"#utility.yul\":2472:2497   */\n      swap10\n      dup11\n      mstore\n      sub(shl(0xa0, 0x01), 0x01)\n        /* \"#utility.yul\":2533:2565   */\n      swap1\n      swap9\n      and\n        /* \"#utility.yul\":2528:2530   */\n      0x20\n        /* \"#utility.yul\":2513:2531   */\n      dup11\n      add\n        /* \"#utility.yul\":2506:2566   */\n      mstore\n        /* \"#utility.yul\":2582:2600   */\n      swap7\n      dup9\n      add\n        /* \"#utility.yul\":2575:2609   */\n      swap6\n      swap1\n      swap6\n      mstore\n        /* \"#utility.yul\":2640:2642   */\n      0x60\n        /* \"#utility.yul\":2625:2643   */\n      dup8\n      add\n        /* \"#utility.yul\":2618:2652   */\n      swap4\n      swap1\n      swap4\n      mstore\n        /* \"#utility.yul\":2683:2686   */\n      0x80\n        /* \"#utility.yul\":2668:2687   */\n      dup7\n      add\n        /* \"#utility.yul\":2661:2696   */\n      swap2\n      swap1\n      swap2\n      mstore\n        /* \"#utility.yul\":2553:2556   */\n      0xa0\n        /* \"#utility.yul\":2712:2731   */\n      dup6\n      add\n        /* \"#utility.yul\":2705:2740   */\n      mstore\n        /* \"#utility.yul\":2771:2774   */\n      0xc0\n        /* \"#utility.yul\":2756:2775   */\n      dup5\n      add\n        /* \"#utility.yul\":2749:2784   */\n      mstore\n        /* \"#utility.yul\":2815:2818   */\n      0xe0\n        /* \"#utility.yul\":2800:2819   */\n      dup4\n      add\n        /* \"#utility.yul\":2793:2828   */\n      mstore\n        /* \"#utility.yul\":2872:2886   */\n      iszero\n        /* \"#utility.yul\":2865:2887   */\n      iszero\n        /* \"#utility.yul\":2859:2862   */\n      0x0100\n        /* \"#utility.yul\":2844:2863   */\n      dup3\n      add\n        /* \"#utility.yul\":2837:2888   */\n      mstore\n        /* \"#utility.yul\":2459:2462   */\n      0x0120\n        /* \"#utility.yul\":2444:2463   */\n      add\n        /* \"contracts/st.sol\":823:868  mapping(uint256 => Position) public positions */\n      tag_22\n        /* \"#utility.yul\":2107:2894   */\n      jump\n        /* \"contracts/st.sol\":471:492  IERC20 public nftUSDT */\n    tag_11:\n      sload(0x01)\n      tag_47\n      swap1\n      sub(shl(0xa0, 0x01), 0x01)\n      and\n      dup2\n      jump\n        /* \"contracts/st.sol\":1651:2606  function stakeNFT(uint256 tokenId, uint256 numDays, uint256 amount) external {... */\n    tag_12:\n      tag_24\n      tag_61\n      calldatasize\n      0x04\n      tag_62\n      jump\t// in\n    tag_61:\n      tag_63\n      jump\t// in\n        /* \"contracts/st.sol\":4866:4998  function getPositionById(uint256 positionId) external view returns (Position memory) {... */\n    tag_13:\n      tag_64\n      tag_65\n      calldatasize\n      0x04\n      tag_26\n      jump\t// in\n    tag_65:\n      tag_66\n      jump\t// in\n    tag_64:\n      mload(0x40)\n      tag_22\n      swap2\n      swap1\n        /* \"#utility.yul\":3654:3667   */\n      dup2\n      mload\n        /* \"#utility.yul\":3636:3668   */\n      dup2\n      mstore\n        /* \"#utility.yul\":3728:3732   */\n      0x20\n        /* \"#utility.yul\":3716:3733   */\n      dup1\n      dup4\n      add\n        /* \"#utility.yul\":3710:3734   */\n      mload\n      sub(shl(0xa0, 0x01), 0x01)\n        /* \"#utility.yul\":3706:3756   */\n      and\n        /* \"#utility.yul\":3684:3704   */\n      swap1\n      dup3\n      add\n        /* \"#utility.yul\":3677:3757   */\n      mstore\n        /* \"#utility.yul\":3813:3817   */\n      0x40\n        /* \"#utility.yul\":3801:3818   */\n      dup1\n      dup4\n      add\n        /* \"#utility.yul\":3795:3819   */\n      mload\n        /* \"#utility.yul\":3773:3793   */\n      swap1\n      dup3\n      add\n        /* \"#utility.yul\":3766:3820   */\n      mstore\n        /* \"#utility.yul\":3876:3880   */\n      0x60\n        /* \"#utility.yul\":3864:3881   */\n      dup1\n      dup4\n      add\n        /* \"#utility.yul\":3858:3882   */\n      mload\n        /* \"#utility.yul\":3836:3856   */\n      swap1\n      dup3\n      add\n        /* \"#utility.yul\":3829:3883   */\n      mstore\n        /* \"#utility.yul\":3939:3943   */\n      0x80\n        /* \"#utility.yul\":3927:3944   */\n      dup1\n      dup4\n      add\n        /* \"#utility.yul\":3921:3945   */\n      mload\n        /* \"#utility.yul\":3899:3919   */\n      swap1\n      dup3\n      add\n        /* \"#utility.yul\":3892:3946   */\n      mstore\n        /* \"#utility.yul\":3744:3747   */\n      0xa0\n        /* \"#utility.yul\":3990:4007   */\n      dup1\n      dup4\n      add\n        /* \"#utility.yul\":3984:4008   */\n      mload\n        /* \"#utility.yul\":3962:3982   */\n      swap1\n      dup3\n      add\n        /* \"#utility.yul\":3955:4009   */\n      mstore\n        /* \"#utility.yul\":4065:4069   */\n      0xc0\n        /* \"#utility.yul\":4053:4070   */\n      dup1\n      dup4\n      add\n        /* \"#utility.yul\":4047:4071   */\n      mload\n        /* \"#utility.yul\":4025:4045   */\n      swap1\n      dup3\n      add\n        /* \"#utility.yul\":4018:4072   */\n      mstore\n        /* \"#utility.yul\":4128:4132   */\n      0xe0\n        /* \"#utility.yul\":4116:4133   */\n      dup1\n      dup4\n      add\n        /* \"#utility.yul\":4110:4134   */\n      mload\n        /* \"#utility.yul\":4088:4108   */\n      swap1\n      dup3\n      add\n        /* \"#utility.yul\":4081:4135   */\n      mstore\n        /* \"#utility.yul\":4154:4160   */\n      0x0100\n        /* \"#utility.yul\":4216:4231   */\n      swap2\n      dup3\n      add\n        /* \"#utility.yul\":4210:4232   */\n      mload\n        /* \"#utility.yul\":4203:4233   */\n      iszero\n        /* \"#utility.yul\":4196:4234   */\n      iszero\n        /* \"#utility.yul\":4176:4194   */\n      swap2\n      dup2\n      add\n        /* \"#utility.yul\":4169:4235   */\n      swap2\n      swap1\n      swap2\n      mstore\n        /* \"#utility.yul\":3623:3626   */\n      0x0120\n        /* \"#utility.yul\":3608:3627   */\n      add\n      swap1\n        /* \"#utility.yul\":3441:4241   */\n      jump\n        /* \"contracts/st.sol\":3517:4848  function unstakeNFT(uint256 positionId) external {... */\n    tag_14:\n      tag_24\n      tag_70\n      calldatasize\n      0x04\n      tag_26\n      jump\t// in\n    tag_70:\n      tag_71\n      jump\t// in\n        /* \"contracts/st.sol\":2919:3335  function calculatePreDaysInterest(uint256 positionId) external view returns (uint256) {... */\n    tag_15:\n      tag_20\n      tag_73\n      calldatasize\n      0x04\n      tag_26\n      jump\t// in\n    tag_73:\n      tag_74\n      jump\t// in\n        /* \"contracts/st.sol\":5173:5283  function getAPY(uint256 numDays) external view returns (uint256) {... */\n    tag_16:\n      tag_20\n      tag_77\n      calldatasize\n      0x04\n      tag_26\n      jump\t// in\n    tag_77:\n        /* \"contracts/st.sol\":5229:5236  uint256 */\n      0x00\n        /* \"contracts/st.sol\":5256:5275  stakingAPY[numDays] */\n      swap1\n      dup2\n      mstore\n        /* \"contracts/st.sol\":5256:5266  stakingAPY */\n      0x05\n        /* \"contracts/st.sol\":5256:5275  stakingAPY[numDays] */\n      0x20\n      mstore\n      0x40\n      swap1\n      keccak256\n      sload\n      swap1\n        /* \"contracts/st.sol\":5173:5283  function getAPY(uint256 numDays) external view returns (uint256) {... */\n      jump\n        /* \"contracts/st.sol\":5461:5763  function withdraw(uint256 amount) external {... */\n    tag_27:\n        /* \"contracts/st.sol\":5537:5542  owner */\n      and(sub(shl(0xa0, 0x01), 0x01), sload(0x00))\n        /* \"contracts/st.sol\":5523:5533  msg.sender */\n      caller\n        /* \"contracts/st.sol\":5523:5542  msg.sender == owner */\n      eq\n        /* \"contracts/st.sol\":5515:5557  require(msg.sender == owner, \"Only owner\") */\n      tag_81\n      jumpi\n      mload(0x40)\n      shl(0xe5, 0x461bcd)\n      dup2\n      mstore\n        /* \"#utility.yul\":4448:4450   */\n      0x20\n        /* \"contracts/st.sol\":5515:5557  require(msg.sender == owner, \"Only owner\") */\n      0x04\n      dup3\n      add\n        /* \"#utility.yul\":4430:4451   */\n      mstore\n        /* \"#utility.yul\":4487:4489   */\n      0x0a\n        /* \"#utility.yul\":4467:4485   */\n      0x24\n      dup3\n      add\n        /* \"#utility.yul\":4460:4490   */\n      mstore\n      shl(0xb1, 0x27b7363c9037bbb732b9)\n        /* \"#utility.yul\":4506:4524   */\n      0x44\n      dup3\n      add\n        /* \"#utility.yul\":4499:4539   */\n      mstore\n        /* \"#utility.yul\":4556:4574   */\n      0x64\n      add\n        /* \"contracts/st.sol\":5515:5557  require(msg.sender == owner, \"Only owner\") */\n    tag_82:\n      mload(0x40)\n      dup1\n      swap2\n      sub\n      swap1\n      revert\n    tag_81:\n        /* \"contracts/st.sol\":5576:5583  nftUSDT */\n      sload(0x01)\n        /* \"contracts/st.sol\":5576:5608  nftUSDT.balanceOf(address(this)) */\n      mload(0x40)\n      shl(0xe0, 0x70a08231)\n      dup2\n      mstore\n        /* \"contracts/st.sol\":5602:5606  this */\n      address\n        /* \"contracts/st.sol\":5576:5608  nftUSDT.balanceOf(address(this)) */\n      0x04\n      dup3\n      add\n        /* \"#utility.yul\":2045:2096   */\n      mstore\n        /* \"contracts/st.sol\":5612:5618  amount */\n      dup3\n      swap2\n      sub(shl(0xa0, 0x01), 0x01)\n        /* \"contracts/st.sol\":5576:5583  nftUSDT */\n      and\n      swap1\n        /* \"contracts/st.sol\":5576:5593  nftUSDT.balanceOf */\n      0x70a08231\n      swap1\n        /* \"#utility.yul\":2018:2036   */\n      0x24\n      add\n        /* \"contracts/st.sol\":5576:5608  nftUSDT.balanceOf(address(this)) */\n      0x20\n      mload(0x40)\n      dup1\n      dup4\n      sub\n      dup2\n      dup7\n      gas\n      staticcall\n      iszero\n      dup1\n      iszero\n      tag_86\n      jumpi\n      returndatasize\n      0x00\n      dup1\n      returndatacopy\n      revert(0x00, returndatasize)\n    tag_86:\n      pop\n      pop\n      pop\n      pop\n      mload(0x40)\n      returndatasize\n      not(0x1f)\n      0x1f\n      dup3\n      add\n      and\n      dup3\n      add\n      dup1\n      0x40\n      mstore\n      pop\n      dup2\n      add\n      swap1\n      tag_87\n      swap2\n      swap1\n      tag_88\n      jump\t// in\n    tag_87:\n        /* \"contracts/st.sol\":5576:5618  nftUSDT.balanceOf(address(this)) >= amount */\n      lt\n      iszero\n        /* \"contracts/st.sol\":5568:5643  require(nftUSDT.balanceOf(address(this)) >= amount, \"Insufficient balance\") */\n      tag_89\n      jumpi\n      mload(0x40)\n      shl(0xe5, 0x461bcd)\n      dup2\n      mstore\n        /* \"#utility.yul\":4976:4978   */\n      0x20\n        /* \"contracts/st.sol\":5568:5643  require(nftUSDT.balanceOf(address(this)) >= amount, \"Insufficient balance\") */\n      0x04\n      dup3\n      add\n        /* \"#utility.yul\":4958:4979   */\n      mstore\n        /* \"#utility.yul\":5015:5017   */\n      0x14\n        /* \"#utility.yul\":4995:5013   */\n      0x24\n      dup3\n      add\n        /* \"#utility.yul\":4988:5018   */\n      mstore\n      shl(0x60, 0x496e73756666696369656e742062616c616e6365)\n        /* \"#utility.yul\":5034:5052   */\n      0x44\n      dup3\n      add\n        /* \"#utility.yul\":5027:5077   */\n      mstore\n        /* \"#utility.yul\":5094:5112   */\n      0x64\n      add\n        /* \"contracts/st.sol\":5568:5643  require(nftUSDT.balanceOf(address(this)) >= amount, \"Insufficient balance\") */\n      tag_82\n        /* \"#utility.yul\":4774:5118   */\n      jump\n        /* \"contracts/st.sol\":5568:5643  require(nftUSDT.balanceOf(address(this)) >= amount, \"Insufficient balance\") */\n    tag_89:\n        /* \"contracts/st.sol\":5664:5671  nftUSDT */\n      sload(0x01)\n      0x00\n        /* \"contracts/st.sol\":5681:5686  owner */\n      sload\n        /* \"contracts/st.sol\":5664:5695  nftUSDT.transfer(owner, amount) */\n      mload(0x40)\n      shl(0xe0, 0xa9059cbb)\n      dup2\n      mstore\n      sub(shl(0xa0, 0x01), 0x01)\n        /* \"contracts/st.sol\":5681:5686  owner */\n      swap2\n      dup3\n      and\n        /* \"contracts/st.sol\":5664:5695  nftUSDT.transfer(owner, amount) */\n      0x04\n      dup3\n      add\n        /* \"#utility.yul\":5297:5348   */\n      mstore\n        /* \"#utility.yul\":5364:5382   */\n      0x24\n      dup2\n      add\n        /* \"#utility.yul\":5357:5391   */\n      dup5\n      swap1\n      mstore\n        /* \"contracts/st.sol\":5664:5671  nftUSDT */\n      swap2\n      and\n      swap1\n        /* \"contracts/st.sol\":5664:5680  nftUSDT.transfer */\n      0xa9059cbb\n      swap1\n        /* \"#utility.yul\":5270:5288   */\n      0x44\n      add\n        /* \"contracts/st.sol\":5664:5695  nftUSDT.transfer(owner, amount) */\n      0x20\n      mload(0x40)\n      dup1\n      dup4\n      sub\n      dup2\n      0x00\n      dup8\n      gas\n      call\n      iszero\n      dup1\n      iszero\n      tag_95\n      jumpi\n      returndatasize\n      0x00\n      dup1\n      returndatacopy\n      revert(0x00, returndatasize)\n    tag_95:\n      pop\n      pop\n      pop\n      pop\n      mload(0x40)\n      returndatasize\n      not(0x1f)\n      0x1f\n      dup3\n      add\n      and\n      dup3\n      add\n      dup1\n      0x40\n      mstore\n      pop\n      dup2\n      add\n      swap1\n      tag_96\n      swap2\n      swap1\n      tag_97\n      jump\t// in\n    tag_96:\n        /* \"contracts/st.sol\":5656:5715  require(nftUSDT.transfer(owner, amount), \"Withdraw failed\") */\n      tag_98\n      jumpi\n      mload(0x40)\n      shl(0xe5, 0x461bcd)\n      dup2\n      mstore\n        /* \"#utility.yul\":5886:5888   */\n      0x20\n        /* \"contracts/st.sol\":5656:5715  require(nftUSDT.transfer(owner, amount), \"Withdraw failed\") */\n      0x04\n      dup3\n      add\n        /* \"#utility.yul\":5868:5889   */\n      mstore\n        /* \"#utility.yul\":5925:5927   */\n      0x0f\n        /* \"#utility.yul\":5905:5923   */\n      0x24\n      dup3\n      add\n        /* \"#utility.yul\":5898:5928   */\n      mstore\n      shl(0x8a, 0x15da5d1a191c985dc819985a5b1959)\n        /* \"#utility.yul\":5944:5962   */\n      0x44\n      dup3\n      add\n        /* \"#utility.yul\":5937:5982   */\n      mstore\n        /* \"#utility.yul\":5999:6017   */\n      0x64\n      add\n        /* \"contracts/st.sol\":5656:5715  require(nftUSDT.transfer(owner, amount), \"Withdraw failed\") */\n      tag_82\n        /* \"#utility.yul\":5684:6023   */\n      jump\n        /* \"contracts/st.sol\":5656:5715  require(nftUSDT.transfer(owner, amount), \"Withdraw failed\") */\n    tag_98:\n        /* \"contracts/st.sol\":5741:5746  owner */\n      sload(0x00)\n        /* \"contracts/st.sol\":5731:5755  Withdrawn(owner, amount) */\n      mload(0x40)\n        /* \"#utility.yul\":160:185   */\n      dup3\n      dup2\n      mstore\n      sub(shl(0xa0, 0x01), 0x01)\n        /* \"contracts/st.sol\":5741:5746  owner */\n      swap1\n      swap2\n      and\n      swap1\n        /* \"contracts/st.sol\":5731:5755  Withdrawn(owner, amount) */\n      0x7084f5476618d8e60b11ef0d7d3f06914655adb8793e28ff7f018d4c76d505d5\n      swap1\n        /* \"#utility.yul\":148:150   */\n      0x20\n        /* \"#utility.yul\":133:151   */\n      add\n        /* \"contracts/st.sol\":5731:5755  Withdrawn(owner, amount) */\n      mload(0x40)\n      dup1\n      swap2\n      sub\n      swap1\n      log2\n        /* \"contracts/st.sol\":5461:5763  function withdraw(uint256 amount) external {... */\n      pop\n      jump\t// out\n        /* \"contracts/st.sol\":5006:5165  function getPositionIdsForAddress(address walletAddress) external view returns (uint256[] memory) {... */\n    tag_31:\n      sub(shl(0xa0, 0x01), 0x01)\n        /* \"contracts/st.sol\":5122:5157  positionIdsByAddress[walletAddress] */\n      dup2\n      and\n      0x00\n      swap1\n      dup2\n      mstore\n        /* \"contracts/st.sol\":5122:5142  positionIdsByAddress */\n      0x04\n        /* \"contracts/st.sol\":5122:5157  positionIdsByAddress[walletAddress] */\n      0x20\n      swap1\n      dup2\n      mstore\n      0x40\n      swap2\n      dup3\n      swap1\n      keccak256\n        /* \"contracts/st.sol\":5115:5157  return positionIdsByAddress[walletAddress] */\n      dup1\n      sload\n      dup4\n      mload\n      dup2\n      dup5\n      mul\n      dup2\n      add\n      dup5\n      add\n      swap1\n      swap5\n      mstore\n      dup1\n      dup5\n      mstore\n        /* \"contracts/st.sol\":5086:5102  uint256[] memory */\n      0x60\n      swap4\n        /* \"contracts/st.sol\":5115:5157  return positionIdsByAddress[walletAddress] */\n      swap3\n      dup4\n      add\n        /* \"contracts/st.sol\":5122:5157  positionIdsByAddress[walletAddress] */\n      dup3\n        /* \"contracts/st.sol\":5115:5157  return positionIdsByAddress[walletAddress] */\n      dup3\n      dup1\n      iszero\n      tag_103\n      jumpi\n      0x20\n      mul\n      dup3\n      add\n      swap2\n      swap1\n      0x00\n      mstore\n      keccak256(0x00, 0x20)\n      swap1\n    tag_104:\n      dup2\n      sload\n      dup2\n      mstore\n      0x20\n      add\n      swap1\n      0x01\n      add\n      swap1\n      dup1\n      dup4\n      gt\n      tag_104\n      jumpi\n    tag_103:\n      pop\n      pop\n      pop\n      pop\n      pop\n      swap1\n      pop\n        /* \"contracts/st.sol\":5006:5165  function getPositionIdsForAddress(address walletAddress) external view returns (uint256[] memory) {... */\n      swap2\n      swap1\n      pop\n      jump\t// out\n        /* \"contracts/st.sol\":875:932  mapping(address => uint256[]) public positionIdsByAddress */\n    tag_37:\n      mstore(0x20, 0x04)\n      dup2\n      0x00\n      mstore\n      keccak256(0x00, 0x40)\n      dup2\n      dup2\n      sload\n      dup2\n      lt\n      tag_105\n      jumpi\n      0x00\n      dup1\n      revert\n    tag_105:\n      swap1\n      0x00\n      mstore\n      keccak256(0x00, 0x20)\n      add\n      0x00\n      swap2\n      pop\n      swap2\n      pop\n      pop\n      sload\n      dup2\n      jump\t// out\n        /* \"contracts/st.sol\":5291:5453  function modifyStakingAPY(uint256 numDays, uint256 apy) external {... */\n    tag_42:\n        /* \"contracts/st.sol\":5389:5394  owner */\n      and(sub(shl(0xa0, 0x01), 0x01), sload(0x00))\n        /* \"contracts/st.sol\":5375:5385  msg.sender */\n      caller\n        /* \"contracts/st.sol\":5375:5394  msg.sender == owner */\n      eq\n        /* \"contracts/st.sol\":5367:5409  require(msg.sender == owner, \"Only owner\") */\n      tag_108\n      jumpi\n      mload(0x40)\n      shl(0xe5, 0x461bcd)\n      dup2\n      mstore\n        /* \"#utility.yul\":4448:4450   */\n      0x20\n        /* \"contracts/st.sol\":5367:5409  require(msg.sender == owner, \"Only owner\") */\n      0x04\n      dup3\n      add\n        /* \"#utility.yul\":4430:4451   */\n      mstore\n        /* \"#utility.yul\":4487:4489   */\n      0x0a\n        /* \"#utility.yul\":4467:4485   */\n      0x24\n      dup3\n      add\n        /* \"#utility.yul\":4460:4490   */\n      mstore\n      shl(0xb1, 0x27b7363c9037bbb732b9)\n        /* \"#utility.yul\":4506:4524   */\n      0x44\n      dup3\n      add\n        /* \"#utility.yul\":4499:4539   */\n      mstore\n        /* \"#utility.yul\":4556:4574   */\n      0x64\n      add\n        /* \"contracts/st.sol\":5367:5409  require(msg.sender == owner, \"Only owner\") */\n      tag_82\n        /* \"#utility.yul\":4246:4580   */\n      jump\n        /* \"contracts/st.sol\":5367:5409  require(msg.sender == owner, \"Only owner\") */\n    tag_108:\n        /* \"contracts/st.sol\":5420:5439  stakingAPY[numDays] */\n      0x00\n      swap2\n      dup3\n      mstore\n        /* \"contracts/st.sol\":5420:5430  stakingAPY */\n      0x05\n        /* \"contracts/st.sol\":5420:5439  stakingAPY[numDays] */\n      0x20\n      mstore\n      0x40\n      swap1\n      swap2\n      keccak256\n        /* \"contracts/st.sol\":5420:5445  stakingAPY[numDays] = apy */\n      sstore\n        /* \"contracts/st.sol\":5291:5453  function modifyStakingAPY(uint256 numDays, uint256 apy) external {... */\n      jump\t// out\n        /* \"contracts/st.sol\":1651:2606  function stakeNFT(uint256 tokenId, uint256 numDays, uint256 amount) external {... */\n    tag_63:\n        /* \"contracts/st.sol\":1769:1770  0 */\n      0x00\n        /* \"contracts/st.sol\":1747:1766  stakingAPY[numDays] */\n      dup3\n      dup2\n      mstore\n        /* \"contracts/st.sol\":1747:1757  stakingAPY */\n      0x05\n        /* \"contracts/st.sol\":1747:1766  stakingAPY[numDays] */\n      0x20\n      mstore\n      0x40\n      swap1\n      keccak256\n      sload\n        /* \"contracts/st.sol\":1739:1797  require(stakingAPY[numDays] > 0, \"Invalid staking period\") */\n      tag_111\n      jumpi\n      mload(0x40)\n      shl(0xe5, 0x461bcd)\n      dup2\n      mstore\n        /* \"#utility.yul\":6230:6232   */\n      0x20\n        /* \"contracts/st.sol\":1739:1797  require(stakingAPY[numDays] > 0, \"Invalid staking period\") */\n      0x04\n      dup3\n      add\n        /* \"#utility.yul\":6212:6233   */\n      mstore\n        /* \"#utility.yul\":6269:6271   */\n      0x16\n        /* \"#utility.yul\":6249:6267   */\n      0x24\n      dup3\n      add\n        /* \"#utility.yul\":6242:6272   */\n      mstore\n      shl(0x52, 0x125b9d985b1a59081cdd185ada5b99c81c195c9a5bd9)\n        /* \"#utility.yul\":6288:6306   */\n      0x44\n      dup3\n      add\n        /* \"#utility.yul\":6281:6333   */\n      mstore\n        /* \"#utility.yul\":6350:6368   */\n      0x64\n      add\n        /* \"contracts/st.sol\":1739:1797  require(stakingAPY[numDays] > 0, \"Invalid staking period\") */\n      tag_82\n        /* \"#utility.yul\":6028:6374   */\n      jump\n        /* \"contracts/st.sol\":1739:1797  require(stakingAPY[numDays] > 0, \"Invalid staking period\") */\n    tag_111:\n        /* \"contracts/st.sol\":1825:1826  0 */\n      0x00\n        /* \"contracts/st.sol\":1816:1822  amount */\n      dup2\n        /* \"contracts/st.sol\":1816:1826  amount > 0 */\n      gt\n        /* \"contracts/st.sol\":1808:1863  require(amount > 0, \"Amount must be greater than zero\") */\n      tag_114\n      jumpi\n      mload(0x40)\n      shl(0xe5, 0x461bcd)\n      dup2\n      mstore\n        /* \"#utility.yul\":6581:6583   */\n      0x20\n        /* \"contracts/st.sol\":1808:1863  require(amount > 0, \"Amount must be greater than zero\") */\n      0x04\n      dup3\n      add\n        /* \"#utility.yul\":6563:6584   */\n      dup2\n      swap1\n      mstore\n        /* \"#utility.yul\":6600:6618   */\n      0x24\n      dup3\n      add\n        /* \"#utility.yul\":6593:6623   */\n      mstore\n        /* \"#utility.yul\":6659:6693   */\n      0x416d6f756e74206d7573742062652067726561746572207468616e207a65726f\n        /* \"#utility.yul\":6639:6657   */\n      0x44\n      dup3\n      add\n        /* \"#utility.yul\":6632:6694   */\n      mstore\n        /* \"#utility.yul\":6711:6729   */\n      0x64\n      add\n        /* \"contracts/st.sol\":1808:1863  require(amount > 0, \"Amount must be greater than zero\") */\n      tag_82\n        /* \"#utility.yul\":6379:6735   */\n      jump\n        /* \"contracts/st.sol\":1808:1863  require(amount > 0, \"Amount must be greater than zero\") */\n    tag_114:\n        /* \"contracts/st.sol\":1884:1891  nftUSDT */\n      sload(0x01)\n        /* \"contracts/st.sol\":1884:1939  nftUSDT.transferFrom(msg.sender, address(this), amount) */\n      mload(0x40)\n      shl(0xe0, 0x23b872dd)\n      dup2\n      mstore\n        /* \"contracts/st.sol\":1905:1915  msg.sender */\n      caller\n        /* \"contracts/st.sol\":1884:1939  nftUSDT.transferFrom(msg.sender, address(this), amount) */\n      0x04\n      dup3\n      add\n        /* \"#utility.yul\":6980:7014   */\n      mstore\n        /* \"contracts/st.sol\":1925:1929  this */\n      address\n        /* \"#utility.yul\":7030:7048   */\n      0x24\n      dup3\n      add\n        /* \"#utility.yul\":7023:7066   */\n      mstore\n        /* \"#utility.yul\":7082:7100   */\n      0x44\n      dup2\n      add\n        /* \"#utility.yul\":7075:7109   */\n      dup4\n      swap1\n      mstore\n      sub(shl(0xa0, 0x01), 0x01)\n        /* \"contracts/st.sol\":1884:1891  nftUSDT */\n      swap1\n      swap2\n      and\n      swap1\n        /* \"contracts/st.sol\":1884:1904  nftUSDT.transferFrom */\n      0x23b872dd\n      swap1\n        /* \"#utility.yul\":6915:6933   */\n      0x64\n      add\n        /* \"contracts/st.sol\":1884:1939  nftUSDT.transferFrom(msg.sender, address(this), amount) */\n      0x20\n      mload(0x40)\n      dup1\n      dup4\n      sub\n      dup2\n      0x00\n      dup8\n      gas\n      call\n      iszero\n      dup1\n      iszero\n      tag_120\n      jumpi\n      returndatasize\n      0x00\n      dup1\n      returndatacopy\n      revert(0x00, returndatasize)\n    tag_120:\n      pop\n      pop\n      pop\n      pop\n      mload(0x40)\n      returndatasize\n      not(0x1f)\n      0x1f\n      dup3\n      add\n      and\n      dup3\n      add\n      dup1\n      0x40\n      mstore\n      pop\n      dup2\n      add\n      swap1\n      tag_121\n      swap2\n      swap1\n      tag_97\n      jump\t// in\n    tag_121:\n        /* \"contracts/st.sol\":1876:1965  require(nftUSDT.transferFrom(msg.sender, address(this), amount), \"Token transfer failed\") */\n      tag_122\n      jumpi\n      mload(0x40)\n      shl(0xe5, 0x461bcd)\n      dup2\n      mstore\n        /* \"#utility.yul\":7322:7324   */\n      0x20\n        /* \"contracts/st.sol\":1876:1965  require(nftUSDT.transferFrom(msg.sender, address(this), amount), \"Token transfer failed\") */\n      0x04\n      dup3\n      add\n        /* \"#utility.yul\":7304:7325   */\n      mstore\n        /* \"#utility.yul\":7361:7363   */\n      0x15\n        /* \"#utility.yul\":7341:7359   */\n      0x24\n      dup3\n      add\n        /* \"#utility.yul\":7334:7364   */\n      mstore\n      shl(0x5a, 0x151bdad95b881d1c985b9cd9995c8819985a5b1959)\n        /* \"#utility.yul\":7380:7398   */\n      0x44\n      dup3\n      add\n        /* \"#utility.yul\":7373:7424   */\n      mstore\n        /* \"#utility.yul\":7441:7459   */\n      0x64\n      add\n        /* \"contracts/st.sol\":1876:1965  require(nftUSDT.transferFrom(msg.sender, address(this), amount), \"Token transfer failed\") */\n      tag_82\n        /* \"#utility.yul\":7120:7465   */\n      jump\n        /* \"contracts/st.sol\":1876:1965  require(nftUSDT.transferFrom(msg.sender, address(this), amount), \"Token transfer failed\") */\n    tag_122:\n        /* \"contracts/st.sol\":1978:1989  uint256 apy */\n      0x00\n        /* \"contracts/st.sol\":1992:2011  stakingAPY[numDays] */\n      dup3\n      dup2\n      mstore\n        /* \"contracts/st.sol\":1992:2002  stakingAPY */\n      0x05\n        /* \"contracts/st.sol\":1992:2011  stakingAPY[numDays] */\n      0x20\n      mstore\n      0x40\n      dup2\n      keccak256\n      sload\n      swap1\n        /* \"contracts/st.sol\":2041:2080  calculateInterest(apy, numDays, amount) */\n      tag_125\n        /* \"contracts/st.sol\":1992:2011  stakingAPY[numDays] */\n      dup3\n        /* \"contracts/st.sol\":2003:2010  numDays */\n      dup6\n        /* \"contracts/st.sol\":2073:2079  amount */\n      dup6\n        /* \"contracts/st.sol\":2041:2058  calculateInterest */\n      tag_126\n        /* \"contracts/st.sol\":2041:2080  calculateInterest(apy, numDays, amount) */\n      jump\t// in\n    tag_125:\n        /* \"contracts/st.sol\":2124:2384  Position(... */\n      0x40\n      dup1\n      mload\n      0x0120\n      dup2\n      add\n      dup3\n      mstore\n        /* \"contracts/st.sol\":2147:2164  currentPositionId */\n      sload(0x02)\n        /* \"contracts/st.sol\":2124:2384  Position(... */\n      dup2\n      mstore\n        /* \"contracts/st.sol\":2179:2189  msg.sender */\n      caller\n        /* \"contracts/st.sol\":2124:2384  Position(... */\n      0x20\n      dup3\n      add\n      mstore\n      swap1\n      dup2\n      add\n      dup8\n      swap1\n      mstore\n        /* \"contracts/st.sol\":2226:2241  block.timestamp */\n      timestamp\n        /* \"contracts/st.sol\":2124:2384  Position(... */\n      0x60\n      dup3\n      add\n      mstore\n        /* \"contracts/st.sol\":2022:2080  uint256 interest = calculateInterest(apy, numDays, amount) */\n      swap1\n      swap2\n      pop\n        /* \"contracts/st.sol\":2124:2384  Position(... */\n      0x80\n      dup2\n      add\n        /* \"contracts/st.sol\":2275:2291  numDays * 1 days */\n      tag_127\n        /* \"contracts/st.sol\":2275:2282  numDays */\n      dup7\n        /* \"contracts/st.sol\":2285:2291  1 days */\n      0x015180\n        /* \"contracts/st.sol\":2275:2291  numDays * 1 days */\n      tag_128\n      jump\t// in\n    tag_127:\n        /* \"contracts/st.sol\":2256:2292  block.timestamp + (numDays * 1 days) */\n      tag_129\n      swap1\n        /* \"contracts/st.sol\":2256:2271  block.timestamp */\n      timestamp\n        /* \"contracts/st.sol\":2256:2292  block.timestamp + (numDays * 1 days) */\n      tag_130\n      jump\t// in\n    tag_129:\n        /* \"contracts/st.sol\":2124:2384  Position(... */\n      dup2\n      mstore\n      0x20\n      dup1\n      dup3\n      add\n      dup6\n      swap1\n      mstore\n      0x40\n      dup1\n      dup4\n      add\n      dup8\n      swap1\n      mstore\n      0x60\n      dup1\n      dup5\n      add\n      dup7\n      swap1\n      mstore\n        /* \"contracts/st.sol\":2369:2373  true */\n      0x01\n        /* \"contracts/st.sol\":2124:2384  Position(... */\n      0x80\n      swap5\n      dup6\n      add\n      dup2\n      swap1\n      mstore\n        /* \"contracts/st.sol\":2103:2120  currentPositionId */\n      0x02\n      dup1\n      sload\n      0x00\n        /* \"contracts/st.sol\":2093:2121  positions[currentPositionId] */\n      swap1\n      dup2\n      mstore\n        /* \"contracts/st.sol\":2093:2102  positions */\n      0x03\n        /* \"contracts/st.sol\":2093:2121  positions[currentPositionId] */\n      dup1\n      dup8\n      mstore\n      dup6\n      dup3\n      keccak256\n        /* \"contracts/st.sol\":2093:2384  positions[currentPositionId] = Position(... */\n      dup10\n      mload\n      dup2\n      sstore\n      dup10\n      dup9\n      add\n      mload\n      dup2\n      dup7\n      add\n      dup1\n      sload\n      not(sub(shl(0xa0, 0x01), 0x01))\n      and\n      sub(shl(0xa0, 0x01), 0x01)\n      swap1\n      swap3\n      and\n      swap2\n      swap1\n      swap2\n      or\n      swap1\n      sstore\n      dup10\n      dup8\n      add\n      mload\n      dup2\n      dup6\n      add\n      sstore\n      swap5\n      dup10\n      add\n      mload\n      swap1\n      dup6\n      add\n      sstore\n      swap6\n      dup8\n      add\n      mload\n      0x04\n      dup1\n      dup6\n      add\n      swap2\n      swap1\n      swap2\n      sstore\n      0xa0\n      dup9\n      add\n      mload\n      0x05\n      dup6\n      add\n      sstore\n      0xc0\n      dup9\n      add\n      mload\n      0x06\n      dup6\n      add\n      sstore\n      0xe0\n      dup9\n      add\n      mload\n      0x07\n      dup6\n      add\n      sstore\n      0x0100\n      swap1\n      swap8\n      add\n      mload\n      0x08\n      swap1\n      swap4\n      add\n      dup1\n      sload\n      not(0xff)\n      and\n      swap4\n      iszero\n      iszero\n      swap4\n      swap1\n      swap4\n      or\n      swap1\n      swap3\n      sstore\n        /* \"contracts/st.sol\":2418:2428  msg.sender */\n      caller\n        /* \"contracts/st.sol\":2397:2429  positionIdsByAddress[msg.sender] */\n      dup1\n      dup7\n      mstore\n      swap6\n      dup5\n      mstore\n      swap2\n      dup5\n      keccak256\n        /* \"contracts/st.sol\":2435:2452  currentPositionId */\n      dup2\n      sload\n        /* \"contracts/st.sol\":2397:2453  positionIdsByAddress[msg.sender].push(currentPositionId) */\n      dup2\n      sload\n      swap4\n      dup5\n      add\n      dup3\n      sstore\n      swap1\n      dup6\n      mstore\n      swap3\n      swap1\n      swap4\n      keccak256\n      add\n      sstore\n        /* \"contracts/st.sol\":2481:2498  currentPositionId */\n      sload\n        /* \"contracts/st.sol\":2471:2566  NFTStaked(currentPositionId, msg.sender, tokenId, amount, block.timestamp + (numDays * 1 days)) */\n      0x3a58274652ad3c1b21033919df479ac9d224eefab131449d295d924aa4eeecea\n        /* \"contracts/st.sol\":2512:2519  tokenId */\n      dup8\n        /* \"contracts/st.sol\":2124:2384  Position(... */\n      dup7\n        /* \"contracts/st.sol\":2548:2564  numDays * 1 days */\n      tag_132\n        /* \"contracts/st.sol\":2548:2555  numDays */\n      dup10\n        /* \"contracts/st.sol\":2558:2564  1 days */\n      0x015180\n        /* \"contracts/st.sol\":2548:2564  numDays * 1 days */\n      tag_128\n      jump\t// in\n    tag_132:\n        /* \"contracts/st.sol\":2529:2565  block.timestamp + (numDays * 1 days) */\n      tag_133\n      swap1\n        /* \"contracts/st.sol\":2529:2544  block.timestamp */\n      timestamp\n        /* \"contracts/st.sol\":2529:2565  block.timestamp + (numDays * 1 days) */\n      tag_130\n      jump\t// in\n    tag_133:\n        /* \"contracts/st.sol\":2471:2566  NFTStaked(currentPositionId, msg.sender, tokenId, amount, block.timestamp + (numDays * 1 days)) */\n      0x40\n      dup1\n      mload\n        /* \"#utility.yul\":8107:8132   */\n      swap4\n      dup5\n      mstore\n        /* \"#utility.yul\":8163:8165   */\n      0x20\n        /* \"#utility.yul\":8148:8166   */\n      dup5\n      add\n        /* \"#utility.yul\":8141:8175   */\n      swap3\n      swap1\n      swap3\n      mstore\n        /* \"#utility.yul\":8191:8209   */\n      swap1\n      dup3\n      add\n        /* \"#utility.yul\":8184:8218   */\n      mstore\n        /* \"#utility.yul\":8095:8097   */\n      0x60\n        /* \"#utility.yul\":8080:8098   */\n      add\n        /* \"contracts/st.sol\":2471:2566  NFTStaked(currentPositionId, msg.sender, tokenId, amount, block.timestamp + (numDays * 1 days)) */\n      mload(0x40)\n      dup1\n      swap2\n      sub\n      swap1\n      log3\n        /* \"contracts/st.sol\":2579:2596  currentPositionId */\n      0x02\n        /* \"contracts/st.sol\":2579:2598  currentPositionId++ */\n      dup1\n      sload\n      swap1\n        /* \"contracts/st.sol\":2579:2596  currentPositionId */\n      0x00\n        /* \"contracts/st.sol\":2579:2598  currentPositionId++ */\n      tag_136\n      dup4\n      tag_137\n      jump\t// in\n    tag_136:\n      swap2\n      swap1\n      pop\n      sstore\n      pop\n        /* \"contracts/st.sol\":1728:2606  {... */\n      pop\n      pop\n        /* \"contracts/st.sol\":1651:2606  function stakeNFT(uint256 tokenId, uint256 numDays, uint256 amount) external {... */\n      pop\n      pop\n      pop\n      jump\t// out\n        /* \"contracts/st.sol\":4866:4998  function getPositionById(uint256 positionId) external view returns (Position memory) {... */\n    tag_66:\n        /* \"contracts/st.sol\":4934:4949  Position memory */\n      tag_138\n      mload(0x40)\n      dup1\n      0x0120\n      add\n      0x40\n      mstore\n      dup1\n      0x00\n      dup2\n      mstore\n      0x20\n      add\n      and(sub(shl(0xa0, 0x01), 0x01), 0x00)\n      dup2\n      mstore\n      0x20\n      add\n      0x00\n      dup2\n      mstore\n      0x20\n      add\n      0x00\n      dup2\n      mstore\n      0x20\n      add\n      0x00\n      dup2\n      mstore\n      0x20\n      add\n      0x00\n      dup2\n      mstore\n      0x20\n      add\n      0x00\n      dup2\n      mstore\n      0x20\n      add\n      0x00\n      dup2\n      mstore\n      0x20\n      add\n      iszero(iszero(0x00))\n      dup2\n      mstore\n      pop\n      swap1\n      jump\n    tag_138:\n      pop\n        /* \"contracts/st.sol\":4969:4990  positions[positionId] */\n      0x00\n      swap1\n      dup2\n      mstore\n        /* \"contracts/st.sol\":4969:4978  positions */\n      0x03\n        /* \"contracts/st.sol\":4969:4990  positions[positionId] */\n      0x20\n      dup2\n      dup2\n      mstore\n      0x40\n      swap3\n      dup4\n      swap1\n      keccak256\n        /* \"contracts/st.sol\":4962:4990  return positions[positionId] */\n      dup4\n      mload\n      0x0120\n      dup2\n      add\n      dup6\n      mstore\n      dup2\n      sload\n      dup2\n      mstore\n      0x01\n      dup3\n      add\n      sload\n      sub(shl(0xa0, 0x01), 0x01)\n      and\n      swap3\n      dup2\n      add\n      swap3\n      swap1\n      swap3\n      mstore\n      0x02\n      dup2\n      add\n      sload\n      swap4\n      dup3\n      add\n      swap4\n      swap1\n      swap4\n      mstore\n      swap1\n      dup3\n      add\n      sload\n      0x60\n      dup3\n      add\n      mstore\n      0x04\n      dup3\n      add\n      sload\n      0x80\n      dup3\n      add\n      mstore\n      0x05\n      dup3\n      add\n      sload\n      0xa0\n      dup3\n      add\n      mstore\n      0x06\n      dup3\n      add\n      sload\n      0xc0\n      dup3\n      add\n      mstore\n      0x07\n      dup3\n      add\n      sload\n      0xe0\n      dup3\n      add\n      mstore\n      0x08\n      swap1\n      swap2\n      add\n      sload\n      0xff\n      and\n      iszero\n      iszero\n      0x0100\n      dup3\n      add\n      mstore\n      swap1\n        /* \"contracts/st.sol\":4866:4998  function getPositionById(uint256 positionId) external view returns (Position memory) {... */\n      jump\t// out\n        /* \"contracts/st.sol\":3517:4848  function unstakeNFT(uint256 positionId) external {... */\n    tag_71:\n        /* \"contracts/st.sol\":3577:3602  Position storage position */\n      0x00\n        /* \"contracts/st.sol\":3605:3626  positions[positionId] */\n      dup2\n      dup2\n      mstore\n        /* \"contracts/st.sol\":3605:3614  positions */\n      0x03\n        /* \"contracts/st.sol\":3605:3626  positions[positionId] */\n      0x20\n      mstore\n      0x40\n      swap1\n      keccak256\n        /* \"contracts/st.sol\":3645:3667  position.walletAddress */\n      0x01\n      dup2\n      add\n      sload\n      sub(shl(0xa0, 0x01), 0x01)\n      and\n        /* \"contracts/st.sol\":3671:3681  msg.sender */\n      caller\n        /* \"contracts/st.sol\":3645:3681  position.walletAddress == msg.sender */\n      eq\n        /* \"contracts/st.sol\":3637:3700  require(position.walletAddress == msg.sender, \"Not your stake\") */\n      tag_142\n      jumpi\n      mload(0x40)\n      shl(0xe5, 0x461bcd)\n      dup2\n      mstore\n        /* \"#utility.yul\":8571:8573   */\n      0x20\n        /* \"contracts/st.sol\":3637:3700  require(position.walletAddress == msg.sender, \"Not your stake\") */\n      0x04\n      dup3\n      add\n        /* \"#utility.yul\":8553:8574   */\n      mstore\n        /* \"#utility.yul\":8610:8612   */\n      0x0e\n        /* \"#utility.yul\":8590:8608   */\n      0x24\n      dup3\n      add\n        /* \"#utility.yul\":8583:8613   */\n      mstore\n      shl(0x90, 0x4e6f7420796f7572207374616b65)\n        /* \"#utility.yul\":8629:8647   */\n      0x44\n      dup3\n      add\n        /* \"#utility.yul\":8622:8666   */\n      mstore\n        /* \"#utility.yul\":8683:8701   */\n      0x64\n      add\n        /* \"contracts/st.sol\":3637:3700  require(position.walletAddress == msg.sender, \"Not your stake\") */\n      tag_82\n        /* \"#utility.yul\":8369:8707   */\n      jump\n        /* \"contracts/st.sol\":3637:3700  require(position.walletAddress == msg.sender, \"Not your stake\") */\n    tag_142:\n        /* \"contracts/st.sol\":3719:3732  position.open */\n      0x08\n      dup2\n      add\n      sload\n      0xff\n      and\n        /* \"contracts/st.sol\":3711:3753  require(position.open, \"Already unstaked\") */\n      tag_145\n      jumpi\n      mload(0x40)\n      shl(0xe5, 0x461bcd)\n      dup2\n      mstore\n        /* \"#utility.yul\":8914:8916   */\n      0x20\n        /* \"contracts/st.sol\":3711:3753  require(position.open, \"Already unstaked\") */\n      0x04\n      dup3\n      add\n        /* \"#utility.yul\":8896:8917   */\n      mstore\n        /* \"#utility.yul\":8953:8955   */\n      0x10\n        /* \"#utility.yul\":8933:8951   */\n      0x24\n      dup3\n      add\n        /* \"#utility.yul\":8926:8956   */\n      mstore\n      shl(0x82, 0x105b1c9958591e481d5b9cdd185ad959)\n        /* \"#utility.yul\":8972:8990   */\n      0x44\n      dup3\n      add\n        /* \"#utility.yul\":8965:9011   */\n      mstore\n        /* \"#utility.yul\":9028:9046   */\n      0x64\n      add\n        /* \"contracts/st.sol\":3711:3753  require(position.open, \"Already unstaked\") */\n      tag_82\n        /* \"#utility.yul\":8712:9052   */\n      jump\n        /* \"contracts/st.sol\":3711:3753  require(position.open, \"Already unstaked\") */\n    tag_145:\n        /* \"contracts/st.sol\":3766:3784  uint256 stakedDays */\n      0x00\n        /* \"contracts/st.sol\":3830:3836  1 days */\n      0x015180\n        /* \"contracts/st.sol\":3806:3814  position */\n      dup3\n        /* \"contracts/st.sol\":3806:3826  position.createdDate */\n      0x03\n      add\n      sload\n        /* \"contracts/st.sol\":3788:3803  block.timestamp */\n      timestamp\n        /* \"contracts/st.sol\":3788:3826  block.timestamp - position.createdDate */\n      tag_148\n      swap2\n      swap1\n      tag_149\n      jump\t// in\n    tag_148:\n        /* \"contracts/st.sol\":3787:3836  (block.timestamp - position.createdDate) / 1 days */\n      tag_150\n      swap2\n      swap1\n      tag_151\n      jump\t// in\n    tag_150:\n        /* \"contracts/st.sol\":3766:3836  uint256 stakedDays = (block.timestamp - position.createdDate) / 1 days */\n      swap1\n      pop\n        /* \"contracts/st.sol\":3847:3871  uint256 amountToTransfer */\n      0x00\n        /* \"contracts/st.sol\":3882:3904  uint256 interestEarned */\n      dup1\n        /* \"contracts/st.sol\":3940:3948  position */\n      dup4\n        /* \"contracts/st.sol\":3940:3959  position.unlockDate */\n      0x04\n      add\n      sload\n        /* \"contracts/st.sol\":3921:3936  block.timestamp */\n      timestamp\n        /* \"contracts/st.sol\":3921:3959  block.timestamp >= position.unlockDate */\n      lt\n        /* \"contracts/st.sol\":3917:4635  if (block.timestamp >= position.unlockDate) {... */\n      tag_152\n      jumpi\n        /* \"contracts/st.sol\":4065:4073  position */\n      dup4\n        /* \"contracts/st.sol\":4065:4087  position.totalInterest */\n      0x07\n      add\n      sload\n        /* \"contracts/st.sol\":4041:4049  position */\n      dup5\n        /* \"contracts/st.sol\":4041:4062  position.amountStaked */\n      0x06\n      add\n      sload\n        /* \"contracts/st.sol\":4041:4087  position.amountStaked + position.totalInterest */\n      tag_153\n      swap2\n      swap1\n      tag_130\n      jump\t// in\n    tag_153:\n        /* \"contracts/st.sol\":4022:4087  amountToTransfer = position.amountStaked + position.totalInterest */\n      swap2\n      pop\n        /* \"contracts/st.sol\":4119:4127  position */\n      dup4\n        /* \"contracts/st.sol\":4119:4141  position.totalInterest */\n      0x07\n      add\n      sload\n        /* \"contracts/st.sol\":4102:4141  interestEarned = position.totalInterest */\n      swap1\n      pop\n        /* \"contracts/st.sol\":3917:4635  if (block.timestamp >= position.unlockDate) {... */\n      jump(tag_156)\n    tag_152:\n        /* \"contracts/st.sol\":4176:4178  20 */\n      0x14\n        /* \"contracts/st.sol\":4163:4173  stakedDays */\n      dup4\n        /* \"contracts/st.sol\":4163:4178  stakedDays < 20 */\n      lt\n        /* \"contracts/st.sol\":4159:4635  if (stakedDays < 20) {... */\n      iszero\n      tag_155\n      jumpi\n      pop\n      pop\n        /* \"contracts/st.sol\":4272:4293  position.amountStaked */\n      0x06\n      dup3\n      add\n      sload\n        /* \"contracts/st.sol\":4325:4326  0 */\n      0x00\n        /* \"contracts/st.sol\":4159:4635  if (stakedDays < 20) {... */\n      jump(tag_156)\n    tag_155:\n        /* \"contracts/st.sol\":4421:4443  uint256 interestPerDay */\n      0x00\n        /* \"contracts/st.sol\":4487:4492  36500 */\n      0x8e94\n        /* \"contracts/st.sol\":4471:4479  position */\n      dup6\n        /* \"contracts/st.sol\":4471:4483  position.apy */\n      0x05\n      add\n      sload\n        /* \"contracts/st.sol\":4447:4455  position */\n      dup7\n        /* \"contracts/st.sol\":4447:4468  position.amountStaked */\n      0x06\n      add\n      sload\n        /* \"contracts/st.sol\":4447:4483  position.amountStaked * position.apy */\n      tag_157\n      swap2\n      swap1\n      tag_128\n      jump\t// in\n    tag_157:\n        /* \"contracts/st.sol\":4446:4492  (position.amountStaked * position.apy) / 36500 */\n      tag_158\n      swap2\n      swap1\n      tag_151\n      jump\t// in\n    tag_158:\n        /* \"contracts/st.sol\":4421:4492  uint256 interestPerDay = (position.amountStaked * position.apy) / 36500 */\n      swap1\n      pop\n        /* \"contracts/st.sol\":4524:4551  interestPerDay * stakedDays */\n      tag_159\n        /* \"contracts/st.sol\":4541:4551  stakedDays */\n      dup5\n        /* \"contracts/st.sol\":4421:4492  uint256 interestPerDay = (position.amountStaked * position.apy) / 36500 */\n      dup3\n        /* \"contracts/st.sol\":4524:4551  interestPerDay * stakedDays */\n      tag_128\n      jump\t// in\n    tag_159:\n        /* \"contracts/st.sol\":4507:4551  interestEarned = interestPerDay * stakedDays */\n      swap2\n      pop\n        /* \"contracts/st.sol\":4609:4623  interestEarned */\n      dup2\n        /* \"contracts/st.sol\":4585:4593  position */\n      dup6\n        /* \"contracts/st.sol\":4585:4606  position.amountStaked */\n      0x06\n      add\n      sload\n        /* \"contracts/st.sol\":4585:4623  position.amountStaked + interestEarned */\n      tag_160\n      swap2\n      swap1\n      tag_130\n      jump\t// in\n    tag_160:\n        /* \"contracts/st.sol\":4566:4623  amountToTransfer = position.amountStaked + interestEarned */\n      swap3\n      pop\n        /* \"contracts/st.sol\":4344:4635  {... */\n      pop\n        /* \"contracts/st.sol\":4159:4635  if (stakedDays < 20) {... */\n    tag_156:\n        /* \"contracts/st.sol\":4655:4662  nftUSDT */\n      sload(0x01)\n        /* \"contracts/st.sol\":4655:4701  nftUSDT.transfer(msg.sender, amountToTransfer) */\n      mload(0x40)\n      shl(0xe0, 0xa9059cbb)\n      dup2\n      mstore\n        /* \"contracts/st.sol\":4672:4682  msg.sender */\n      caller\n        /* \"contracts/st.sol\":4655:4701  nftUSDT.transfer(msg.sender, amountToTransfer) */\n      0x04\n      dup3\n      add\n        /* \"#utility.yul\":5297:5348   */\n      mstore\n        /* \"#utility.yul\":5364:5382   */\n      0x24\n      dup2\n      add\n        /* \"#utility.yul\":5357:5391   */\n      dup5\n      swap1\n      mstore\n      sub(shl(0xa0, 0x01), 0x01)\n        /* \"contracts/st.sol\":4655:4662  nftUSDT */\n      swap1\n      swap2\n      and\n      swap1\n        /* \"contracts/st.sol\":4655:4671  nftUSDT.transfer */\n      0xa9059cbb\n      swap1\n        /* \"#utility.yul\":5270:5288   */\n      0x44\n      add\n        /* \"contracts/st.sol\":4655:4701  nftUSDT.transfer(msg.sender, amountToTransfer) */\n      0x20\n      mload(0x40)\n      dup1\n      dup4\n      sub\n      dup2\n      0x00\n      dup8\n      gas\n      call\n      iszero\n      dup1\n      iszero\n      tag_163\n      jumpi\n      returndatasize\n      0x00\n      dup1\n      returndatacopy\n      revert(0x00, returndatasize)\n    tag_163:\n      pop\n      pop\n      pop\n      pop\n      mload(0x40)\n      returndatasize\n      not(0x1f)\n      0x1f\n      dup3\n      add\n      and\n      dup3\n      add\n      dup1\n      0x40\n      mstore\n      pop\n      dup2\n      add\n      swap1\n      tag_164\n      swap2\n      swap1\n      tag_97\n      jump\t// in\n    tag_164:\n        /* \"contracts/st.sol\":4647:4721  require(nftUSDT.transfer(msg.sender, amountToTransfer), \"Transfer failed\") */\n      tag_165\n      jumpi\n      mload(0x40)\n      shl(0xe5, 0x461bcd)\n      dup2\n      mstore\n        /* \"#utility.yul\":9614:9616   */\n      0x20\n        /* \"contracts/st.sol\":4647:4721  require(nftUSDT.transfer(msg.sender, amountToTransfer), \"Transfer failed\") */\n      0x04\n      dup3\n      add\n        /* \"#utility.yul\":9596:9617   */\n      mstore\n        /* \"#utility.yul\":9653:9655   */\n      0x0f\n        /* \"#utility.yul\":9633:9651   */\n      0x24\n      dup3\n      add\n        /* \"#utility.yul\":9626:9656   */\n      mstore\n      shl(0x8a, 0x151c985b9cd9995c8819985a5b1959)\n        /* \"#utility.yul\":9672:9690   */\n      0x44\n      dup3\n      add\n        /* \"#utility.yul\":9665:9710   */\n      mstore\n        /* \"#utility.yul\":9727:9745   */\n      0x64\n      add\n        /* \"contracts/st.sol\":4647:4721  require(nftUSDT.transfer(msg.sender, amountToTransfer), \"Transfer failed\") */\n      tag_82\n        /* \"#utility.yul\":9412:9751   */\n      jump\n        /* \"contracts/st.sol\":4647:4721  require(nftUSDT.transfer(msg.sender, amountToTransfer), \"Transfer failed\") */\n    tag_165:\n        /* \"contracts/st.sol\":4732:4745  position.open */\n      0x08\n      dup5\n      add\n        /* \"contracts/st.sol\":4732:4753  position.open = false */\n      dup1\n      sload\n      not(0xff)\n      and\n      swap1\n      sstore\n        /* \"contracts/st.sol\":4771:4840  NFTUnstaked(positionId, msg.sender, amountToTransfer, interestEarned) */\n      0x40\n      dup1\n      mload\n        /* \"#utility.yul\":9930:9955   */\n      dup4\n      dup2\n      mstore\n        /* \"#utility.yul\":9986:9988   */\n      0x20\n        /* \"#utility.yul\":9971:9989   */\n      dup2\n      add\n        /* \"#utility.yul\":9964:9998   */\n      dup4\n      swap1\n      mstore\n        /* \"contracts/st.sol\":4795:4805  msg.sender */\n      caller\n      swap2\n        /* \"contracts/st.sol\":4783:4793  positionId */\n      dup8\n      swap2\n        /* \"contracts/st.sol\":4771:4840  NFTUnstaked(positionId, msg.sender, amountToTransfer, interestEarned) */\n      0xd4fb60805a60894a62fe4eb89b3ad68f7bacfe2777738ddfe5ed694c0dcd1d52\n      swap2\n        /* \"#utility.yul\":9903:9921   */\n      add\n        /* \"contracts/st.sol\":4771:4840  NFTUnstaked(positionId, msg.sender, amountToTransfer, interestEarned) */\n      mload(0x40)\n      dup1\n      swap2\n      sub\n      swap1\n      log3\n        /* \"contracts/st.sol\":3566:4848  {... */\n      pop\n      pop\n      pop\n      pop\n        /* \"contracts/st.sol\":3517:4848  function unstakeNFT(uint256 positionId) external {... */\n      pop\n      jump\t// out\n        /* \"contracts/st.sol\":2919:3335  function calculatePreDaysInterest(uint256 positionId) external view returns (uint256) {... */\n    tag_74:\n        /* \"contracts/st.sol\":2996:3003  uint256 */\n      0x00\n        /* \"contracts/st.sol\":3044:3065  positions[positionId] */\n      dup2\n      dup2\n      mstore\n        /* \"contracts/st.sol\":3044:3053  positions */\n      0x03\n        /* \"contracts/st.sol\":3044:3065  positions[positionId] */\n      0x20\n      mstore\n      0x40\n      dup2\n      keccak256\n        /* \"contracts/st.sol\":3084:3097  position.open */\n      0x08\n      dup2\n      add\n      sload\n      0xff\n      and\n        /* \"contracts/st.sol\":3076:3117  require(position.open, \"Position closed\") */\n      tag_171\n      jumpi\n      mload(0x40)\n      shl(0xe5, 0x461bcd)\n      dup2\n      mstore\n        /* \"#utility.yul\":10211:10213   */\n      0x20\n        /* \"contracts/st.sol\":3076:3117  require(position.open, \"Position closed\") */\n      0x04\n      dup3\n      add\n        /* \"#utility.yul\":10193:10214   */\n      mstore\n        /* \"#utility.yul\":10250:10252   */\n      0x0f\n        /* \"#utility.yul\":10230:10248   */\n      0x24\n      dup3\n      add\n        /* \"#utility.yul\":10223:10253   */\n      mstore\n      shl(0x8a, 0x141bdcda5d1a5bdb8818db1bdcd959)\n        /* \"#utility.yul\":10269:10287   */\n      0x44\n      dup3\n      add\n        /* \"#utility.yul\":10262:10307   */\n      mstore\n        /* \"#utility.yul\":10324:10342   */\n      0x64\n      add\n        /* \"contracts/st.sol\":3076:3117  require(position.open, \"Position closed\") */\n      tag_82\n        /* \"#utility.yul\":10009:10348   */\n      jump\n        /* \"contracts/st.sol\":3076:3117  require(position.open, \"Position closed\") */\n    tag_171:\n        /* \"contracts/st.sol\":3130:3148  uint256 daysStaked */\n      0x00\n        /* \"contracts/st.sol\":3194:3200  1 days */\n      0x015180\n        /* \"contracts/st.sol\":3170:3178  position */\n      dup3\n        /* \"contracts/st.sol\":3170:3190  position.createdDate */\n      0x03\n      add\n      sload\n        /* \"contracts/st.sol\":3152:3167  block.timestamp */\n      timestamp\n        /* \"contracts/st.sol\":3152:3190  block.timestamp - position.createdDate */\n      tag_174\n      swap2\n      swap1\n      tag_149\n      jump\t// in\n    tag_174:\n        /* \"contracts/st.sol\":3151:3200  (block.timestamp - position.createdDate) / 1 days */\n      tag_175\n      swap2\n      swap1\n      tag_151\n      jump\t// in\n    tag_175:\n        /* \"contracts/st.sol\":3130:3200  uint256 daysStaked = (block.timestamp - position.createdDate) / 1 days */\n      swap1\n      pop\n        /* \"contracts/st.sol\":3211:3233  uint256 interestPerDay */\n      0x00\n        /* \"contracts/st.sol\":3277:3282  36500 */\n      0x8e94\n        /* \"contracts/st.sol\":3261:3269  position */\n      dup4\n        /* \"contracts/st.sol\":3261:3273  position.apy */\n      0x05\n      add\n      sload\n        /* \"contracts/st.sol\":3237:3245  position */\n      dup5\n        /* \"contracts/st.sol\":3237:3258  position.amountStaked */\n      0x06\n      add\n      sload\n        /* \"contracts/st.sol\":3237:3273  position.amountStaked * position.apy */\n      tag_176\n      swap2\n      swap1\n      tag_128\n      jump\t// in\n    tag_176:\n        /* \"contracts/st.sol\":3236:3282  (position.amountStaked * position.apy) / 36500 */\n      tag_177\n      swap2\n      swap1\n      tag_151\n      jump\t// in\n    tag_177:\n        /* \"contracts/st.sol\":3211:3282  uint256 interestPerDay = (position.amountStaked * position.apy) / 36500 */\n      swap1\n      pop\n        /* \"contracts/st.sol\":3300:3327  interestPerDay * daysStaked */\n      tag_178\n        /* \"contracts/st.sol\":3317:3327  daysStaked */\n      dup3\n        /* \"contracts/st.sol\":3211:3282  uint256 interestPerDay = (position.amountStaked * position.apy) / 36500 */\n      dup3\n        /* \"contracts/st.sol\":3300:3327  interestPerDay * daysStaked */\n      tag_128\n      jump\t// in\n    tag_178:\n        /* \"contracts/st.sol\":3293:3327  return interestPerDay * daysStaked */\n      swap6\n        /* \"contracts/st.sol\":2919:3335  function calculatePreDaysInterest(uint256 positionId) external view returns (uint256) {... */\n      swap5\n      pop\n      pop\n      pop\n      pop\n      pop\n      jump\t// out\n        /* \"contracts/st.sol\":2643:2861  function calculateInterest(uint256 apy, uint256 numDays, uint256 amount) private pure returns (uint256) {... */\n    tag_126:\n        /* \"contracts/st.sol\":2738:2745  uint256 */\n      0x00\n      dup1\n        /* \"contracts/st.sol\":2800:2803  100 */\n      0x64\n        /* \"contracts/st.sol\":2784:2796  apy * amount */\n      tag_181\n        /* \"contracts/st.sol\":2790:2796  amount */\n      dup5\n        /* \"contracts/st.sol\":2784:2787  apy */\n      dup8\n        /* \"contracts/st.sol\":2784:2796  apy * amount */\n      tag_128\n      jump\t// in\n    tag_181:\n        /* \"contracts/st.sol\":2783:2803  (apy * amount) / 100 */\n      tag_182\n      swap2\n      swap1\n      tag_151\n      jump\t// in\n    tag_182:\n        /* \"contracts/st.sol\":2758:2803  uint256 yearlyInterest = (apy * amount) / 100 */\n      swap1\n      pop\n        /* \"contracts/st.sol\":2850:2853  365 */\n      0x016d\n        /* \"contracts/st.sol\":2822:2846  yearlyInterest * numDays */\n      tag_183\n        /* \"contracts/st.sol\":2839:2846  numDays */\n      dup6\n        /* \"contracts/st.sol\":2758:2803  uint256 yearlyInterest = (apy * amount) / 100 */\n      dup4\n        /* \"contracts/st.sol\":2822:2846  yearlyInterest * numDays */\n      tag_128\n      jump\t// in\n    tag_183:\n        /* \"contracts/st.sol\":2821:2853  (yearlyInterest * numDays) / 365 */\n      tag_178\n      swap2\n      swap1\n      tag_151\n      jump\t// in\n        /* \"#utility.yul\":196:376   */\n    tag_26:\n        /* \"#utility.yul\":255:261   */\n      0x00\n        /* \"#utility.yul\":308:310   */\n      0x20\n        /* \"#utility.yul\":296:305   */\n      dup3\n        /* \"#utility.yul\":287:294   */\n      dup5\n        /* \"#utility.yul\":283:306   */\n      sub\n        /* \"#utility.yul\":279:311   */\n      slt\n        /* \"#utility.yul\":276:328   */\n      iszero\n      tag_190\n      jumpi\n        /* \"#utility.yul\":324:325   */\n      0x00\n        /* \"#utility.yul\":321:322   */\n      dup1\n        /* \"#utility.yul\":314:326   */\n      revert\n        /* \"#utility.yul\":276:328   */\n    tag_190:\n      pop\n        /* \"#utility.yul\":347:370   */\n      calldataload\n      swap2\n        /* \"#utility.yul\":196:376   */\n      swap1\n      pop\n      jump\t// out\n        /* \"#utility.yul\":381:554   */\n    tag_185:\n        /* \"#utility.yul\":449:469   */\n      dup1\n      calldataload\n      sub(shl(0xa0, 0x01), 0x01)\n        /* \"#utility.yul\":498:529   */\n      dup2\n      and\n        /* \"#utility.yul\":488:530   */\n      dup2\n      eq\n        /* \"#utility.yul\":478:548   */\n      tag_192\n      jumpi\n        /* \"#utility.yul\":544:545   */\n      0x00\n        /* \"#utility.yul\":541:542   */\n      dup1\n        /* \"#utility.yul\":534:546   */\n      revert\n        /* \"#utility.yul\":478:548   */\n    tag_192:\n        /* \"#utility.yul\":381:554   */\n      swap2\n      swap1\n      pop\n      jump\t// out\n        /* \"#utility.yul\":559:745   */\n    tag_30:\n        /* \"#utility.yul\":618:624   */\n      0x00\n        /* \"#utility.yul\":671:673   */\n      0x20\n        /* \"#utility.yul\":659:668   */\n      dup3\n        /* \"#utility.yul\":650:657   */\n      dup5\n        /* \"#utility.yul\":646:669   */\n      sub\n        /* \"#utility.yul\":642:674   */\n      slt\n        /* \"#utility.yul\":639:691   */\n      iszero\n      tag_194\n      jumpi\n        /* \"#utility.yul\":687:688   */\n      0x00\n        /* \"#utility.yul\":684:685   */\n      dup1\n        /* \"#utility.yul\":677:689   */\n      revert\n        /* \"#utility.yul\":639:691   */\n    tag_194:\n        /* \"#utility.yul\":710:739   */\n      tag_195\n        /* \"#utility.yul\":729:738   */\n      dup3\n        /* \"#utility.yul\":710:739   */\n      tag_185\n      jump\t// in\n    tag_195:\n        /* \"#utility.yul\":700:739   */\n      swap4\n        /* \"#utility.yul\":559:745   */\n      swap3\n      pop\n      pop\n      pop\n      jump\t// out\n        /* \"#utility.yul\":750:1382   */\n    tag_33:\n        /* \"#utility.yul\":921:923   */\n      0x20\n        /* \"#utility.yul\":973:994   */\n      dup1\n      dup3\n      mstore\n        /* \"#utility.yul\":1043:1056   */\n      dup3\n      mload\n        /* \"#utility.yul\":946:964   */\n      dup3\n      dup3\n      add\n        /* \"#utility.yul\":1065:1087   */\n      dup2\n      swap1\n      mstore\n        /* \"#utility.yul\":892:896   */\n      0x00\n      swap2\n        /* \"#utility.yul\":921:923   */\n      swap1\n        /* \"#utility.yul\":1144:1159   */\n      dup5\n      dup3\n      add\n      swap1\n        /* \"#utility.yul\":1118:1120   */\n      0x40\n        /* \"#utility.yul\":1103:1121   */\n      dup6\n      add\n      swap1\n        /* \"#utility.yul\":892:896   */\n      dup5\n        /* \"#utility.yul\":1187:1356   */\n    tag_197:\n        /* \"#utility.yul\":1201:1207   */\n      dup2\n        /* \"#utility.yul\":1198:1199   */\n      dup2\n        /* \"#utility.yul\":1195:1208   */\n      lt\n        /* \"#utility.yul\":1187:1356   */\n      iszero\n      tag_199\n      jumpi\n        /* \"#utility.yul\":1262:1275   */\n      dup4\n      mload\n        /* \"#utility.yul\":1250:1276   */\n      dup4\n      mstore\n        /* \"#utility.yul\":1331:1346   */\n      swap3\n      dup5\n      add\n      swap3\n        /* \"#utility.yul\":1296:1308   */\n      swap2\n      dup5\n      add\n      swap2\n        /* \"#utility.yul\":1223:1224   */\n      0x01\n        /* \"#utility.yul\":1216:1225   */\n      add\n        /* \"#utility.yul\":1187:1356   */\n      jump(tag_197)\n    tag_199:\n      pop\n        /* \"#utility.yul\":1373:1376   */\n      swap1\n      swap7\n        /* \"#utility.yul\":750:1382   */\n      swap6\n      pop\n      pop\n      pop\n      pop\n      pop\n      pop\n      jump\t// out\n        /* \"#utility.yul\":1387:1641   */\n    tag_36:\n        /* \"#utility.yul\":1455:1461   */\n      0x00\n        /* \"#utility.yul\":1463:1469   */\n      dup1\n        /* \"#utility.yul\":1516:1518   */\n      0x40\n        /* \"#utility.yul\":1504:1513   */\n      dup4\n        /* \"#utility.yul\":1495:1502   */\n      dup6\n        /* \"#utility.yul\":1491:1514   */\n      sub\n        /* \"#utility.yul\":1487:1519   */\n      slt\n        /* \"#utility.yul\":1484:1536   */\n      iszero\n      tag_201\n      jumpi\n        /* \"#utility.yul\":1532:1533   */\n      0x00\n        /* \"#utility.yul\":1529:1530   */\n      dup1\n        /* \"#utility.yul\":1522:1534   */\n      revert\n        /* \"#utility.yul\":1484:1536   */\n    tag_201:\n        /* \"#utility.yul\":1555:1584   */\n      tag_202\n        /* \"#utility.yul\":1574:1583   */\n      dup4\n        /* \"#utility.yul\":1555:1584   */\n      tag_185\n      jump\t// in\n    tag_202:\n        /* \"#utility.yul\":1545:1584   */\n      swap5\n        /* \"#utility.yul\":1631:1633   */\n      0x20\n        /* \"#utility.yul\":1616:1634   */\n      swap4\n      swap1\n      swap4\n      add\n        /* \"#utility.yul\":1603:1635   */\n      calldataload\n      swap4\n      pop\n      pop\n      pop\n        /* \"#utility.yul\":1387:1641   */\n      jump\t// out\n        /* \"#utility.yul\":1646:1894   */\n    tag_41:\n        /* \"#utility.yul\":1714:1720   */\n      0x00\n        /* \"#utility.yul\":1722:1728   */\n      dup1\n        /* \"#utility.yul\":1775:1777   */\n      0x40\n        /* \"#utility.yul\":1763:1772   */\n      dup4\n        /* \"#utility.yul\":1754:1761   */\n      dup6\n        /* \"#utility.yul\":1750:1773   */\n      sub\n        /* \"#utility.yul\":1746:1778   */\n      slt\n        /* \"#utility.yul\":1743:1795   */\n      iszero\n      tag_204\n      jumpi\n        /* \"#utility.yul\":1791:1792   */\n      0x00\n        /* \"#utility.yul\":1788:1789   */\n      dup1\n        /* \"#utility.yul\":1781:1793   */\n      revert\n        /* \"#utility.yul\":1743:1795   */\n    tag_204:\n      pop\n      pop\n        /* \"#utility.yul\":1814:1837   */\n      dup1\n      calldataload\n      swap3\n        /* \"#utility.yul\":1884:1886   */\n      0x20\n        /* \"#utility.yul\":1869:1887   */\n      swap1\n      swap2\n      add\n        /* \"#utility.yul\":1856:1888   */\n      calldataload\n      swap2\n      pop\n        /* \"#utility.yul\":1646:1894   */\n      jump\t// out\n        /* \"#utility.yul\":3120:3436   */\n    tag_62:\n        /* \"#utility.yul\":3197:3203   */\n      0x00\n        /* \"#utility.yul\":3205:3211   */\n      dup1\n        /* \"#utility.yul\":3213:3219   */\n      0x00\n        /* \"#utility.yul\":3266:3268   */\n      0x60\n        /* \"#utility.yul\":3254:3263   */\n      dup5\n        /* \"#utility.yul\":3245:3252   */\n      dup7\n        /* \"#utility.yul\":3241:3264   */\n      sub\n        /* \"#utility.yul\":3237:3269   */\n      slt\n        /* \"#utility.yul\":3234:3286   */\n      iszero\n      tag_209\n      jumpi\n        /* \"#utility.yul\":3282:3283   */\n      0x00\n        /* \"#utility.yul\":3279:3280   */\n      dup1\n        /* \"#utility.yul\":3272:3284   */\n      revert\n        /* \"#utility.yul\":3234:3286   */\n    tag_209:\n      pop\n      pop\n        /* \"#utility.yul\":3305:3328   */\n      dup2\n      calldataload\n      swap4\n        /* \"#utility.yul\":3375:3377   */\n      0x20\n        /* \"#utility.yul\":3360:3378   */\n      dup4\n      add\n        /* \"#utility.yul\":3347:3379   */\n      calldataload\n      swap4\n      pop\n        /* \"#utility.yul\":3426:3428   */\n      0x40\n        /* \"#utility.yul\":3411:3429   */\n      swap1\n      swap3\n      add\n        /* \"#utility.yul\":3398:3430   */\n      calldataload\n      swap2\n        /* \"#utility.yul\":3120:3436   */\n      swap1\n      pop\n      jump\t// out\n        /* \"#utility.yul\":4585:4769   */\n    tag_88:\n        /* \"#utility.yul\":4655:4661   */\n      0x00\n        /* \"#utility.yul\":4708:4710   */\n      0x20\n        /* \"#utility.yul\":4696:4705   */\n      dup3\n        /* \"#utility.yul\":4687:4694   */\n      dup5\n        /* \"#utility.yul\":4683:4706   */\n      sub\n        /* \"#utility.yul\":4679:4711   */\n      slt\n        /* \"#utility.yul\":4676:4728   */\n      iszero\n      tag_213\n      jumpi\n        /* \"#utility.yul\":4724:4725   */\n      0x00\n        /* \"#utility.yul\":4721:4722   */\n      dup1\n        /* \"#utility.yul\":4714:4726   */\n      revert\n        /* \"#utility.yul\":4676:4728   */\n    tag_213:\n      pop\n        /* \"#utility.yul\":4747:4763   */\n      mload\n      swap2\n        /* \"#utility.yul\":4585:4769   */\n      swap1\n      pop\n      jump\t// out\n        /* \"#utility.yul\":5402:5679   */\n    tag_97:\n        /* \"#utility.yul\":5469:5475   */\n      0x00\n        /* \"#utility.yul\":5522:5524   */\n      0x20\n        /* \"#utility.yul\":5510:5519   */\n      dup3\n        /* \"#utility.yul\":5501:5508   */\n      dup5\n        /* \"#utility.yul\":5497:5520   */\n      sub\n        /* \"#utility.yul\":5493:5525   */\n      slt\n        /* \"#utility.yul\":5490:5542   */\n      iszero\n      tag_217\n      jumpi\n        /* \"#utility.yul\":5538:5539   */\n      0x00\n        /* \"#utility.yul\":5535:5536   */\n      dup1\n        /* \"#utility.yul\":5528:5540   */\n      revert\n        /* \"#utility.yul\":5490:5542   */\n    tag_217:\n        /* \"#utility.yul\":5570:5579   */\n      dup2\n        /* \"#utility.yul\":5564:5580   */\n      mload\n        /* \"#utility.yul\":5623:5628   */\n      dup1\n        /* \"#utility.yul\":5616:5629   */\n      iszero\n        /* \"#utility.yul\":5609:5630   */\n      iszero\n        /* \"#utility.yul\":5602:5607   */\n      dup2\n        /* \"#utility.yul\":5599:5631   */\n      eq\n        /* \"#utility.yul\":5589:5649   */\n      tag_195\n      jumpi\n        /* \"#utility.yul\":5645:5646   */\n      0x00\n        /* \"#utility.yul\":5642:5643   */\n      dup1\n        /* \"#utility.yul\":5635:5647   */\n      revert\n        /* \"#utility.yul\":7470:7597   */\n    tag_186:\n        /* \"#utility.yul\":7531:7541   */\n      0x4e487b71\n        /* \"#utility.yul\":7526:7529   */\n      0xe0\n        /* \"#utility.yul\":7522:7542   */\n      shl\n        /* \"#utility.yul\":7519:7520   */\n      0x00\n        /* \"#utility.yul\":7512:7543   */\n      mstore\n        /* \"#utility.yul\":7562:7566   */\n      0x11\n        /* \"#utility.yul\":7559:7560   */\n      0x04\n        /* \"#utility.yul\":7552:7567   */\n      mstore\n        /* \"#utility.yul\":7586:7590   */\n      0x24\n        /* \"#utility.yul\":7583:7584   */\n      0x00\n        /* \"#utility.yul\":7576:7591   */\n      revert\n        /* \"#utility.yul\":7602:7770   */\n    tag_128:\n        /* \"#utility.yul\":7675:7684   */\n      dup1\n      dup3\n      mul\n        /* \"#utility.yul\":7706:7715   */\n      dup2\n      iszero\n        /* \"#utility.yul\":7723:7738   */\n      dup3\n      dup3\n      div\n        /* \"#utility.yul\":7717:7739   */\n      dup5\n      eq\n        /* \"#utility.yul\":7703:7740   */\n      or\n        /* \"#utility.yul\":7693:7764   */\n      tag_227\n      jumpi\n        /* \"#utility.yul\":7744:7762   */\n      tag_227\n      tag_186\n      jump\t// in\n    tag_227:\n        /* \"#utility.yul\":7602:7770   */\n      swap3\n      swap2\n      pop\n      pop\n      jump\t// out\n        /* \"#utility.yul\":7775:7900   */\n    tag_130:\n        /* \"#utility.yul\":7840:7849   */\n      dup1\n      dup3\n      add\n        /* \"#utility.yul\":7861:7871   */\n      dup1\n      dup3\n      gt\n        /* \"#utility.yul\":7858:7894   */\n      iszero\n      tag_227\n      jumpi\n        /* \"#utility.yul\":7874:7892   */\n      tag_227\n      tag_186\n      jump\t// in\n        /* \"#utility.yul\":8229:8364   */\n    tag_137:\n        /* \"#utility.yul\":8268:8271   */\n      0x00\n        /* \"#utility.yul\":8289:8306   */\n      0x01\n      dup3\n      add\n        /* \"#utility.yul\":8286:8329   */\n      tag_234\n      jumpi\n        /* \"#utility.yul\":8309:8327   */\n      tag_234\n      tag_186\n      jump\t// in\n    tag_234:\n      pop\n        /* \"#utility.yul\":8356:8357   */\n      0x01\n        /* \"#utility.yul\":8345:8358   */\n      add\n      swap1\n        /* \"#utility.yul\":8229:8364   */\n      jump\t// out\n        /* \"#utility.yul\":9057:9185   */\n    tag_149:\n        /* \"#utility.yul\":9124:9133   */\n      dup2\n      dup2\n      sub\n        /* \"#utility.yul\":9145:9156   */\n      dup2\n      dup2\n      gt\n        /* \"#utility.yul\":9142:9179   */\n      iszero\n      tag_227\n      jumpi\n        /* \"#utility.yul\":9159:9177   */\n      tag_227\n      tag_186\n      jump\t// in\n        /* \"#utility.yul\":9190:9407   */\n    tag_151:\n        /* \"#utility.yul\":9230:9231   */\n      0x00\n        /* \"#utility.yul\":9256:9257   */\n      dup3\n        /* \"#utility.yul\":9246:9378   */\n      tag_241\n      jumpi\n        /* \"#utility.yul\":9300:9310   */\n      0x4e487b71\n        /* \"#utility.yul\":9295:9298   */\n      0xe0\n        /* \"#utility.yul\":9291:9311   */\n      shl\n        /* \"#utility.yul\":9288:9289   */\n      0x00\n        /* \"#utility.yul\":9281:9312   */\n      mstore\n        /* \"#utility.yul\":9335:9339   */\n      0x12\n        /* \"#utility.yul\":9332:9333   */\n      0x04\n        /* \"#utility.yul\":9325:9340   */\n      mstore\n        /* \"#utility.yul\":9363:9367   */\n      0x24\n        /* \"#utility.yul\":9360:9361   */\n      0x00\n        /* \"#utility.yul\":9353:9368   */\n      revert\n        /* \"#utility.yul\":9246:9378   */\n    tag_241:\n      pop\n        /* \"#utility.yul\":9392:9401   */\n      div\n      swap1\n        /* \"#utility.yul\":9190:9407   */\n      jump\t// out\n\n    auxdata: 0xa2646970667358221220664e364577ba467b49d6b2db5ef56bbcbf6f5e638ddfa9380605bb7ab1bdf6ca64736f6c63430008140033\n}\n",
				"bytecode": {
					"linkReferences": {},
					"object": "608060405234801561000f575f80fd5b5060405161105a38038061105a83398101604081905261002e916100ff565b5f8054336001600160a01b0319918216178255600180549091166001600160a01b0393909316929092178255600291825560056020527f3fb1f8b5b572f385df2ff517fa4200d6781fd017f742a2f073e874e0dca7758b9190915560037faadf04b4a1bf84e121ab68e5c1cffab5aeb9be1a024ff9944a2a0bc1674866095560067fec79235ffe9302935718f9bddc23f2c5c6c950ae49f49d137c786213c36180275561016d9052600c7f54542a457831feeb9bd57bf2716ad5fa566bad2451f1bfa5bede1bae8242d18d5561012c565b5f6020828403121561010f575f80fd5b81516001600160a01b0381168114610125575f80fd5b9392505050565b610f21806101395f395ff3fe608060405234801561000f575f80fd5b50600436106100e5575f3560e01c806399fbab8811610088578063b838ec8611610063578063b838ec8614610283578063c1dfa0bb14610308578063c7d065bc1461031b578063eeee849b1461032e575f80fd5b806399fbab88146101a95780639d0f8ca11461025d578063a7211ff814610270575f80fd5b806345eae373116100c357806345eae3731461013a578063857224ee1461014d578063875bb4e2146101605780638da5cb5b1461017f575f80fd5b80631131c8cd146100e95780632e1a7d4d1461010557806340d98a441461011a575b5f80fd5b6100f260025481565b6040519081526020015b60405180910390f35b610118610113366004610d21565b61034d565b005b61012d610128366004610d53565b61053e565b6040516100fc9190610d73565b6100f2610148366004610db6565b6105a7565b61011861015b366004610dde565b6105d2565b6100f261016e366004610d21565b60056020525f908152604090205481565b5f54610191906001600160a01b031681565b6040516001600160a01b0390911681526020016100fc565b61020f6101b7366004610d21565b600360208190525f918252604090912080546001820154600283015493830154600484015460058501546006860154600787015460089097015495976001600160a01b03909516969495939492939192909160ff1689565b60408051998a526001600160a01b0390981660208a0152968801959095526060870193909352608086019190915260a085015260c084015260e08301521515610100820152610120016100fc565b600154610191906001600160a01b031681565b61011861027e366004610dfe565b610629565b610296610291366004610d21565b610924565b6040516100fc9190815181526020808301516001600160a01b03169082015260408083015190820152606080830151908201526080808301519082015260a0808301519082015260c0808301519082015260e08083015190820152610100918201511515918101919091526101200190565b610118610316366004610d21565b6109fa565b6100f2610329366004610d21565b610c45565b6100f261033c366004610d21565b5f9081526005602052604090205490565b5f546001600160a01b031633146103985760405162461bcd60e51b815260206004820152600a60248201526927b7363c9037bbb732b960b11b60448201526064015b60405180910390fd5b6001546040516370a0823160e01b815230600482015282916001600160a01b0316906370a0823190602401602060405180830381865afa1580156103de573d5f803e3d5ffd5b505050506040513d601f19601f820116820180604052508101906104029190610e27565b10156104475760405162461bcd60e51b8152602060048201526014602482015273496e73756666696369656e742062616c616e636560601b604482015260640161038f565b6001545f5460405163a9059cbb60e01b81526001600160a01b0391821660048201526024810184905291169063a9059cbb906044016020604051808303815f875af1158015610498573d5f803e3d5ffd5b505050506040513d601f19601f820116820180604052508101906104bc9190610e3e565b6104fa5760405162461bcd60e51b815260206004820152600f60248201526e15da5d1a191c985dc819985a5b1959608a1b604482015260640161038f565b5f546040518281526001600160a01b03909116907f7084f5476618d8e60b11ef0d7d3f06914655adb8793e28ff7f018d4c76d505d59060200160405180910390a250565b6001600160a01b0381165f9081526004602090815260409182902080548351818402810184019094528084526060939283018282801561059b57602002820191905f5260205f20905b815481526020019060010190808311610587575b50505050509050919050565b6004602052815f5260405f2081815481106105c0575f80fd5b905f5260205f20015f91509150505481565b5f546001600160a01b031633146106185760405162461bcd60e51b815260206004820152600a60248201526927b7363c9037bbb732b960b11b604482015260640161038f565b5f9182526005602052604090912055565b5f8281526005602052604090205461067c5760405162461bcd60e51b8152602060048201526016602482015275125b9d985b1a59081cdd185ada5b99c81c195c9a5bd960521b604482015260640161038f565b5f81116106cb5760405162461bcd60e51b815260206004820181905260248201527f416d6f756e74206d7573742062652067726561746572207468616e207a65726f604482015260640161038f565b6001546040516323b872dd60e01b8152336004820152306024820152604481018390526001600160a01b03909116906323b872dd906064016020604051808303815f875af115801561071f573d5f803e3d5ffd5b505050506040513d601f19601f820116820180604052508101906107439190610e3e565b6107875760405162461bcd60e51b8152602060048201526015602482015274151bdad95b881d1c985b9cd9995c8819985a5b1959605a1b604482015260640161038f565b5f82815260056020526040812054906107a1828585610cf0565b60408051610120810182526002548152336020820152908101879052426060820152909150608081016107d78662015180610e71565b6107e19042610e8e565b815260208082018590526040808301879052606080840186905260016080948501819052600280545f9081526003808752858220895181558988015181860180546001600160a01b0319166001600160a01b03909216919091179055898701518185015594890151908501559587015160048085019190915560a0880151600585015560c0880151600685015560e08801516007850155610100909701516008909301805460ff19169315159390931790925533808652958452918420815481549384018255908552929093200155547f3a58274652ad3c1b21033919df479ac9d224eefab131449d295d924aa4eeecea87866108e18962015180610e71565b6108eb9042610e8e565b6040805193845260208401929092529082015260600160405180910390a360028054905f61091883610ea1565b91905055505050505050565b6109756040518061012001604052805f81526020015f6001600160a01b031681526020015f81526020015f81526020015f81526020015f81526020015f81526020015f81526020015f151581525090565b505f908152600360208181526040928390208351610120810185528154815260018201546001600160a01b03169281019290925260028101549382019390935290820154606082015260048201546080820152600582015460a0820152600682015460c0820152600782015460e082015260089091015460ff16151561010082015290565b5f81815260036020526040902060018101546001600160a01b03163314610a545760405162461bcd60e51b815260206004820152600e60248201526d4e6f7420796f7572207374616b6560901b604482015260640161038f565b600881015460ff16610a9b5760405162461bcd60e51b815260206004820152601060248201526f105b1c9958591e481d5b9cdd185ad95960821b604482015260640161038f565b5f62015180826003015442610ab09190610eb9565b610aba9190610ecc565b90505f8083600401544210610aeb5783600701548460060154610add9190610e8e565b915083600701549050610b45565b6014831015610b0157505060068201545f610b45565b5f618e9485600501548660060154610b199190610e71565b610b239190610ecc565b9050610b2f8482610e71565b9150818560060154610b419190610e8e565b9250505b60015460405163a9059cbb60e01b8152336004820152602481018490526001600160a01b039091169063a9059cbb906044016020604051808303815f875af1158015610b93573d5f803e3d5ffd5b505050506040513d601f19601f82011682018060405250810190610bb79190610e3e565b610bf55760405162461bcd60e51b815260206004820152600f60248201526e151c985b9cd9995c8819985a5b1959608a1b604482015260640161038f565b60088401805460ff191690556040805183815260208101839052339187917fd4fb60805a60894a62fe4eb89b3ad68f7bacfe2777738ddfe5ed694c0dcd1d52910160405180910390a35050505050565b5f818152600360205260408120600881015460ff16610c985760405162461bcd60e51b815260206004820152600f60248201526e141bdcda5d1a5bdb8818db1bdcd959608a1b604482015260640161038f565b5f62015180826003015442610cad9190610eb9565b610cb79190610ecc565b90505f618e9483600501548460060154610cd19190610e71565b610cdb9190610ecc565b9050610ce78282610e71565b95945050505050565b5f806064610cfe8487610e71565b610d089190610ecc565b905061016d610d178583610e71565b610ce79190610ecc565b5f60208284031215610d31575f80fd5b5035919050565b80356001600160a01b0381168114610d4e575f80fd5b919050565b5f60208284031215610d63575f80fd5b610d6c82610d38565b9392505050565b602080825282518282018190525f9190848201906040850190845b81811015610daa57835183529284019291840191600101610d8e565b50909695505050505050565b5f8060408385031215610dc7575f80fd5b610dd083610d38565b946020939093013593505050565b5f8060408385031215610def575f80fd5b50508035926020909101359150565b5f805f60608486031215610e10575f80fd5b505081359360208301359350604090920135919050565b5f60208284031215610e37575f80fd5b5051919050565b5f60208284031215610e4e575f80fd5b81518015158114610d6c575f80fd5b634e487b7160e01b5f52601160045260245ffd5b8082028115828204841417610e8857610e88610e5d565b92915050565b80820180821115610e8857610e88610e5d565b5f60018201610eb257610eb2610e5d565b5060010190565b81810381811115610e8857610e88610e5d565b5f82610ee657634e487b7160e01b5f52601260045260245ffd5b50049056fea2646970667358221220664e364577ba467b49d6b2db5ef56bbcbf6f5e638ddfa9380605bb7ab1bdf6ca64736f6c63430008140033",
					"opcodes": "PUSH1 0x80 PUSH1 0x40 MSTORE CALLVALUE DUP1 ISZERO PUSH2 0xF JUMPI PUSH0 DUP1 REVERT JUMPDEST POP PUSH1 0x40 MLOAD PUSH2 0x105A CODESIZE SUB DUP1 PUSH2 0x105A DUP4 CODECOPY DUP2 ADD PUSH1 0x40 DUP2 SWAP1 MSTORE PUSH2 0x2E SWAP2 PUSH2 0xFF JUMP JUMPDEST PUSH0 DUP1 SLOAD CALLER PUSH1 0x1 PUSH1 0x1 PUSH1 0xA0 SHL SUB NOT SWAP2 DUP3 AND OR DUP3 SSTORE PUSH1 0x1 DUP1 SLOAD SWAP1 SWAP2 AND PUSH1 0x1 PUSH1 0x1 PUSH1 0xA0 SHL SUB SWAP4 SWAP1 SWAP4 AND SWAP3 SWAP1 SWAP3 OR DUP3 SSTORE PUSH1 0x2 SWAP2 DUP3 SSTORE PUSH1 0x5 PUSH1 0x20 MSTORE PUSH32 0x3FB1F8B5B572F385DF2FF517FA4200D6781FD017F742A2F073E874E0DCA7758B SWAP2 SWAP1 SWAP2 SSTORE PUSH1 0x3 PUSH32 0xAADF04B4A1BF84E121AB68E5C1CFFAB5AEB9BE1A024FF9944A2A0BC167486609 SSTORE PUSH1 0x6 PUSH32 0xEC79235FFE9302935718F9BDDC23F2C5C6C950AE49F49D137C786213C3618027 SSTORE PUSH2 0x16D SWAP1 MSTORE PUSH1 0xC PUSH32 0x54542A457831FEEB9BD57BF2716AD5FA566BAD2451F1BFA5BEDE1BAE8242D18D SSTORE PUSH2 0x12C JUMP JUMPDEST PUSH0 PUSH1 0x20 DUP3 DUP5 SUB SLT ISZERO PUSH2 0x10F JUMPI PUSH0 DUP1 REVERT JUMPDEST DUP2 MLOAD PUSH1 0x1 PUSH1 0x1 PUSH1 0xA0 SHL SUB DUP2 AND DUP2 EQ PUSH2 0x125 JUMPI PUSH0 DUP1 REVERT JUMPDEST SWAP4 SWAP3 POP POP POP JUMP JUMPDEST PUSH2 0xF21 DUP1 PUSH2 0x139 PUSH0 CODECOPY PUSH0 RETURN INVALID PUSH1 0x80 PUSH1 0x40 MSTORE CALLVALUE DUP1 ISZERO PUSH2 0xF JUMPI PUSH0 DUP1 REVERT JUMPDEST POP PUSH1 0x4 CALLDATASIZE LT PUSH2 0xE5 JUMPI PUSH0 CALLDATALOAD PUSH1 0xE0 SHR DUP1 PUSH4 0x99FBAB88 GT PUSH2 0x88 JUMPI DUP1 PUSH4 0xB838EC86 GT PUSH2 0x63 JUMPI DUP1 PUSH4 0xB838EC86 EQ PUSH2 0x283 JUMPI DUP1 PUSH4 0xC1DFA0BB EQ PUSH2 0x308 JUMPI DUP1 PUSH4 0xC7D065BC EQ PUSH2 0x31B JUMPI DUP1 PUSH4 0xEEEE849B EQ PUSH2 0x32E JUMPI PUSH0 DUP1 REVERT JUMPDEST DUP1 PUSH4 0x99FBAB88 EQ PUSH2 0x1A9 JUMPI DUP1 PUSH4 0x9D0F8CA1 EQ PUSH2 0x25D JUMPI DUP1 PUSH4 0xA7211FF8 EQ PUSH2 0x270 JUMPI PUSH0 DUP1 REVERT JUMPDEST DUP1 PUSH4 0x45EAE373 GT PUSH2 0xC3 JUMPI DUP1 PUSH4 0x45EAE373 EQ PUSH2 0x13A JUMPI DUP1 PUSH4 0x857224EE EQ PUSH2 0x14D JUMPI DUP1 PUSH4 0x875BB4E2 EQ PUSH2 0x160 JUMPI DUP1 PUSH4 0x8DA5CB5B EQ PUSH2 0x17F JUMPI PUSH0 DUP1 REVERT JUMPDEST DUP1 PUSH4 0x1131C8CD EQ PUSH2 0xE9 JUMPI DUP1 PUSH4 0x2E1A7D4D EQ PUSH2 0x105 JUMPI DUP1 PUSH4 0x40D98A44 EQ PUSH2 0x11A JUMPI JUMPDEST PUSH0 DUP1 REVERT JUMPDEST PUSH2 0xF2 PUSH1 0x2 SLOAD DUP2 JUMP JUMPDEST PUSH1 0x40 MLOAD SWAP1 DUP2 MSTORE PUSH1 0x20 ADD JUMPDEST PUSH1 0x40 MLOAD DUP1 SWAP2 SUB SWAP1 RETURN JUMPDEST PUSH2 0x118 PUSH2 0x113 CALLDATASIZE PUSH1 0x4 PUSH2 0xD21 JUMP JUMPDEST PUSH2 0x34D JUMP JUMPDEST STOP JUMPDEST PUSH2 0x12D PUSH2 0x128 CALLDATASIZE PUSH1 0x4 PUSH2 0xD53 JUMP JUMPDEST PUSH2 0x53E JUMP JUMPDEST PUSH1 0x40 MLOAD PUSH2 0xFC SWAP2 SWAP1 PUSH2 0xD73 JUMP JUMPDEST PUSH2 0xF2 PUSH2 0x148 CALLDATASIZE PUSH1 0x4 PUSH2 0xDB6 JUMP JUMPDEST PUSH2 0x5A7 JUMP JUMPDEST PUSH2 0x118 PUSH2 0x15B CALLDATASIZE PUSH1 0x4 PUSH2 0xDDE JUMP JUMPDEST PUSH2 0x5D2 JUMP JUMPDEST PUSH2 0xF2 PUSH2 0x16E CALLDATASIZE PUSH1 0x4 PUSH2 0xD21 JUMP JUMPDEST PUSH1 0x5 PUSH1 0x20 MSTORE PUSH0 SWAP1 DUP2 MSTORE PUSH1 0x40 SWAP1 KECCAK256 SLOAD DUP2 JUMP JUMPDEST PUSH0 SLOAD PUSH2 0x191 SWAP1 PUSH1 0x1 PUSH1 0x1 PUSH1 0xA0 SHL SUB AND DUP2 JUMP JUMPDEST PUSH1 0x40 MLOAD PUSH1 0x1 PUSH1 0x1 PUSH1 0xA0 SHL SUB SWAP1 SWAP2 AND DUP2 MSTORE PUSH1 0x20 ADD PUSH2 0xFC JUMP JUMPDEST PUSH2 0x20F PUSH2 0x1B7 CALLDATASIZE PUSH1 0x4 PUSH2 0xD21 JUMP JUMPDEST PUSH1 0x3 PUSH1 0x20 DUP2 SWAP1 MSTORE PUSH0 SWAP2 DUP3 MSTORE PUSH1 0x40 SWAP1 SWAP2 KECCAK256 DUP1 SLOAD PUSH1 0x1 DUP3 ADD SLOAD PUSH1 0x2 DUP4 ADD SLOAD SWAP4 DUP4 ADD SLOAD PUSH1 0x4 DUP5 ADD SLOAD PUSH1 0x5 DUP6 ADD SLOAD PUSH1 0x6 DUP7 ADD SLOAD PUSH1 0x7 DUP8 ADD SLOAD PUSH1 0x8 SWAP1 SWAP8 ADD SLOAD SWAP6 SWAP8 PUSH1 0x1 PUSH1 0x1 PUSH1 0xA0 SHL SUB SWAP1 SWAP6 AND SWAP7 SWAP5 SWAP6 SWAP4 SWAP5 SWAP3 SWAP4 SWAP2 SWAP3 SWAP1 SWAP2 PUSH1 0xFF AND DUP10 JUMP JUMPDEST PUSH1 0x40 DUP1 MLOAD SWAP10 DUP11 MSTORE PUSH1 0x1 PUSH1 0x1 PUSH1 0xA0 SHL SUB SWAP1 SWAP9 AND PUSH1 0x20 DUP11 ADD MSTORE SWAP7 DUP9 ADD SWAP6 SWAP1 SWAP6 MSTORE PUSH1 0x60 DUP8 ADD SWAP4 SWAP1 SWAP4 MSTORE PUSH1 0x80 DUP7 ADD SWAP2 SWAP1 SWAP2 MSTORE PUSH1 0xA0 DUP6 ADD MSTORE PUSH1 0xC0 DUP5 ADD MSTORE PUSH1 0xE0 DUP4 ADD MSTORE ISZERO ISZERO PUSH2 0x100 DUP3 ADD MSTORE PUSH2 0x120 ADD PUSH2 0xFC JUMP JUMPDEST PUSH1 0x1 SLOAD PUSH2 0x191 SWAP1 PUSH1 0x1 PUSH1 0x1 PUSH1 0xA0 SHL SUB AND DUP2 JUMP JUMPDEST PUSH2 0x118 PUSH2 0x27E CALLDATASIZE PUSH1 0x4 PUSH2 0xDFE JUMP JUMPDEST PUSH2 0x629 JUMP JUMPDEST PUSH2 0x296 PUSH2 0x291 CALLDATASIZE PUSH1 0x4 PUSH2 0xD21 JUMP JUMPDEST PUSH2 0x924 JUMP JUMPDEST PUSH1 0x40 MLOAD PUSH2 0xFC SWAP2 SWAP1 DUP2 MLOAD DUP2 MSTORE PUSH1 0x20 DUP1 DUP4 ADD MLOAD PUSH1 0x1 PUSH1 0x1 PUSH1 0xA0 SHL SUB AND SWAP1 DUP3 ADD MSTORE PUSH1 0x40 DUP1 DUP4 ADD MLOAD SWAP1 DUP3 ADD MSTORE PUSH1 0x60 DUP1 DUP4 ADD MLOAD SWAP1 DUP3 ADD MSTORE PUSH1 0x80 DUP1 DUP4 ADD MLOAD SWAP1 DUP3 ADD MSTORE PUSH1 0xA0 DUP1 DUP4 ADD MLOAD SWAP1 DUP3 ADD MSTORE PUSH1 0xC0 DUP1 DUP4 ADD MLOAD SWAP1 DUP3 ADD MSTORE PUSH1 0xE0 DUP1 DUP4 ADD MLOAD SWAP1 DUP3 ADD MSTORE PUSH2 0x100 SWAP2 DUP3 ADD MLOAD ISZERO ISZERO SWAP2 DUP2 ADD SWAP2 SWAP1 SWAP2 MSTORE PUSH2 0x120 ADD SWAP1 JUMP JUMPDEST PUSH2 0x118 PUSH2 0x316 CALLDATASIZE PUSH1 0x4 PUSH2 0xD21 JUMP JUMPDEST PUSH2 0x9FA JUMP JUMPDEST PUSH2 0xF2 PUSH2 0x329 CALLDATASIZE PUSH1 0x4 PUSH2 0xD21 JUMP JUMPDEST PUSH2 0xC45 JUMP JUMPDEST PUSH2 0xF2 PUSH2 0x33C CALLDATASIZE PUSH1 0x4 PUSH2 0xD21 JUMP JUMPDEST PUSH0 SWAP1 DUP2 MSTORE PUSH1 0x5 PUSH1 0x20 MSTORE PUSH1 0x40 SWAP1 KECCAK256 SLOAD SWAP1 JUMP JUMPDEST PUSH0 SLOAD PUSH1 0x1 PUSH1 0x1 PUSH1 0xA0 SHL SUB AND CALLER EQ PUSH2 0x398 JUMPI PUSH1 0x40 MLOAD PUSH3 0x461BCD PUSH1 0xE5 SHL DUP2 MSTORE PUSH1 0x20 PUSH1 0x4 DUP3 ADD MSTORE PUSH1 0xA PUSH1 0x24 DUP3 ADD MSTORE PUSH10 0x27B7363C9037BBB732B9 PUSH1 0xB1 SHL PUSH1 0x44 DUP3 ADD MSTORE PUSH1 0x64 ADD JUMPDEST PUSH1 0x40 MLOAD DUP1 SWAP2 SUB SWAP1 REVERT JUMPDEST PUSH1 0x1 SLOAD PUSH1 0x40 MLOAD PUSH4 0x70A08231 PUSH1 0xE0 SHL DUP2 MSTORE ADDRESS PUSH1 0x4 DUP3 ADD MSTORE DUP3 SWAP2 PUSH1 0x1 PUSH1 0x1 PUSH1 0xA0 SHL SUB AND SWAP1 PUSH4 0x70A08231 SWAP1 PUSH1 0x24 ADD PUSH1 0x20 PUSH1 0x40 MLOAD DUP1 DUP4 SUB DUP2 DUP7 GAS STATICCALL ISZERO DUP1 ISZERO PUSH2 0x3DE JUMPI RETURNDATASIZE PUSH0 DUP1 RETURNDATACOPY RETURNDATASIZE PUSH0 REVERT JUMPDEST POP POP POP POP PUSH1 0x40 MLOAD RETURNDATASIZE PUSH1 0x1F NOT PUSH1 0x1F DUP3 ADD AND DUP3 ADD DUP1 PUSH1 0x40 MSTORE POP DUP2 ADD SWAP1 PUSH2 0x402 SWAP2 SWAP1 PUSH2 0xE27 JUMP JUMPDEST LT ISZERO PUSH2 0x447 JUMPI PUSH1 0x40 MLOAD PUSH3 0x461BCD PUSH1 0xE5 SHL DUP2 MSTORE PUSH1 0x20 PUSH1 0x4 DUP3 ADD MSTORE PUSH1 0x14 PUSH1 0x24 DUP3 ADD MSTORE PUSH20 0x496E73756666696369656E742062616C616E6365 PUSH1 0x60 SHL PUSH1 0x44 DUP3 ADD MSTORE PUSH1 0x64 ADD PUSH2 0x38F JUMP JUMPDEST PUSH1 0x1 SLOAD PUSH0 SLOAD PUSH1 0x40 MLOAD PUSH4 0xA9059CBB PUSH1 0xE0 SHL DUP2 MSTORE PUSH1 0x1 PUSH1 0x1 PUSH1 0xA0 SHL SUB SWAP2 DUP3 AND PUSH1 0x4 DUP3 ADD MSTORE PUSH1 0x24 DUP2 ADD DUP5 SWAP1 MSTORE SWAP2 AND SWAP1 PUSH4 0xA9059CBB SWAP1 PUSH1 0x44 ADD PUSH1 0x20 PUSH1 0x40 MLOAD DUP1 DUP4 SUB DUP2 PUSH0 DUP8 GAS CALL ISZERO DUP1 ISZERO PUSH2 0x498 JUMPI RETURNDATASIZE PUSH0 DUP1 RETURNDATACOPY RETURNDATASIZE PUSH0 REVERT JUMPDEST POP POP POP POP PUSH1 0x40 MLOAD RETURNDATASIZE PUSH1 0x1F NOT PUSH1 0x1F DUP3 ADD AND DUP3 ADD DUP1 PUSH1 0x40 MSTORE POP DUP2 ADD SWAP1 PUSH2 0x4BC SWAP2 SWAP1 PUSH2 0xE3E JUMP JUMPDEST PUSH2 0x4FA JUMPI PUSH1 0x40 MLOAD PUSH3 0x461BCD PUSH1 0xE5 SHL DUP2 MSTORE PUSH1 0x20 PUSH1 0x4 DUP3 ADD MSTORE PUSH1 0xF PUSH1 0x24 DUP3 ADD MSTORE PUSH15 0x15DA5D1A191C985DC819985A5B1959 PUSH1 0x8A SHL PUSH1 0x44 DUP3 ADD MSTORE PUSH1 0x64 ADD PUSH2 0x38F JUMP JUMPDEST PUSH0 SLOAD PUSH1 0x40 MLOAD DUP3 DUP2 MSTORE PUSH1 0x1 PUSH1 0x1 PUSH1 0xA0 SHL SUB SWAP1 SWAP2 AND SWAP1 PUSH32 0x7084F5476618D8E60B11EF0D7D3F06914655ADB8793E28FF7F018D4C76D505D5 SWAP1 PUSH1 0x20 ADD PUSH1 0x40 MLOAD DUP1 SWAP2 SUB SWAP1 LOG2 POP JUMP JUMPDEST PUSH1 0x1 PUSH1 0x1 PUSH1 0xA0 SHL SUB DUP2 AND PUSH0 SWAP1 DUP2 MSTORE PUSH1 0x4 PUSH1 0x20 SWAP1 DUP2 MSTORE PUSH1 0x40 SWAP2 DUP3 SWAP1 KECCAK256 DUP1 SLOAD DUP4 MLOAD DUP2 DUP5 MUL DUP2 ADD DUP5 ADD SWAP1 SWAP5 MSTORE DUP1 DUP5 MSTORE PUSH1 0x60 SWAP4 SWAP3 DUP4 ADD DUP3 DUP3 DUP1 ISZERO PUSH2 0x59B JUMPI PUSH1 0x20 MUL DUP3 ADD SWAP2 SWAP1 PUSH0 MSTORE PUSH1 0x20 PUSH0 KECCAK256 SWAP1 JUMPDEST DUP2 SLOAD DUP2 MSTORE PUSH1 0x20 ADD SWAP1 PUSH1 0x1 ADD SWAP1 DUP1 DUP4 GT PUSH2 0x587 JUMPI JUMPDEST POP POP POP POP POP SWAP1 POP SWAP2 SWAP1 POP JUMP JUMPDEST PUSH1 0x4 PUSH1 0x20 MSTORE DUP2 PUSH0 MSTORE PUSH1 0x40 PUSH0 KECCAK256 DUP2 DUP2 SLOAD DUP2 LT PUSH2 0x5C0 JUMPI PUSH0 DUP1 REVERT JUMPDEST SWAP1 PUSH0 MSTORE PUSH1 0x20 PUSH0 KECCAK256 ADD PUSH0 SWAP2 POP SWAP2 POP POP SLOAD DUP2 JUMP JUMPDEST PUSH0 SLOAD PUSH1 0x1 PUSH1 0x1 PUSH1 0xA0 SHL SUB AND CALLER EQ PUSH2 0x618 JUMPI PUSH1 0x40 MLOAD PUSH3 0x461BCD PUSH1 0xE5 SHL DUP2 MSTORE PUSH1 0x20 PUSH1 0x4 DUP3 ADD MSTORE PUSH1 0xA PUSH1 0x24 DUP3 ADD MSTORE PUSH10 0x27B7363C9037BBB732B9 PUSH1 0xB1 SHL PUSH1 0x44 DUP3 ADD MSTORE PUSH1 0x64 ADD PUSH2 0x38F JUMP JUMPDEST PUSH0 SWAP2 DUP3 MSTORE PUSH1 0x5 PUSH1 0x20 MSTORE PUSH1 0x40 SWAP1 SWAP2 KECCAK256 SSTORE JUMP JUMPDEST PUSH0 DUP3 DUP2 MSTORE PUSH1 0x5 PUSH1 0x20 MSTORE PUSH1 0x40 SWAP1 KECCAK256 SLOAD PUSH2 0x67C JUMPI PUSH1 0x40 MLOAD PUSH3 0x461BCD PUSH1 0xE5 SHL DUP2 MSTORE PUSH1 0x20 PUSH1 0x4 DUP3 ADD MSTORE PUSH1 0x16 PUSH1 0x24 DUP3 ADD MSTORE PUSH22 0x125B9D985B1A59081CDD185ADA5B99C81C195C9A5BD9 PUSH1 0x52 SHL PUSH1 0x44 DUP3 ADD MSTORE PUSH1 0x64 ADD PUSH2 0x38F JUMP JUMPDEST PUSH0 DUP2 GT PUSH2 0x6CB JUMPI PUSH1 0x40 MLOAD PUSH3 0x461BCD PUSH1 0xE5 SHL DUP2 MSTORE PUSH1 0x20 PUSH1 0x4 DUP3 ADD DUP2 SWAP1 MSTORE PUSH1 0x24 DUP3 ADD MSTORE PUSH32 0x416D6F756E74206D7573742062652067726561746572207468616E207A65726F PUSH1 0x44 DUP3 ADD MSTORE PUSH1 0x64 ADD PUSH2 0x38F JUMP JUMPDEST PUSH1 0x1 SLOAD PUSH1 0x40 MLOAD PUSH4 0x23B872DD PUSH1 0xE0 SHL DUP2 MSTORE CALLER PUSH1 0x4 DUP3 ADD MSTORE ADDRESS PUSH1 0x24 DUP3 ADD MSTORE PUSH1 0x44 DUP2 ADD DUP4 SWAP1 MSTORE PUSH1 0x1 PUSH1 0x1 PUSH1 0xA0 SHL SUB SWAP1 SWAP2 AND SWAP1 PUSH4 0x23B872DD SWAP1 PUSH1 0x64 ADD PUSH1 0x20 PUSH1 0x40 MLOAD DUP1 DUP4 SUB DUP2 PUSH0 DUP8 GAS CALL ISZERO DUP1 ISZERO PUSH2 0x71F JUMPI RETURNDATASIZE PUSH0 DUP1 RETURNDATACOPY RETURNDATASIZE PUSH0 REVERT JUMPDEST POP POP POP POP PUSH1 0x40 MLOAD RETURNDATASIZE PUSH1 0x1F NOT PUSH1 0x1F DUP3 ADD AND DUP3 ADD DUP1 PUSH1 0x40 MSTORE POP DUP2 ADD SWAP1 PUSH2 0x743 SWAP2 SWAP1 PUSH2 0xE3E JUMP JUMPDEST PUSH2 0x787 JUMPI PUSH1 0x40 MLOAD PUSH3 0x461BCD PUSH1 0xE5 SHL DUP2 MSTORE PUSH1 0x20 PUSH1 0x4 DUP3 ADD MSTORE PUSH1 0x15 PUSH1 0x24 DUP3 ADD MSTORE PUSH21 0x151BDAD95B881D1C985B9CD9995C8819985A5B1959 PUSH1 0x5A SHL PUSH1 0x44 DUP3 ADD MSTORE PUSH1 0x64 ADD PUSH2 0x38F JUMP JUMPDEST PUSH0 DUP3 DUP2 MSTORE PUSH1 0x5 PUSH1 0x20 MSTORE PUSH1 0x40 DUP2 KECCAK256 SLOAD SWAP1 PUSH2 0x7A1 DUP3 DUP6 DUP6 PUSH2 0xCF0 JUMP JUMPDEST PUSH1 0x40 DUP1 MLOAD PUSH2 0x120 DUP2 ADD DUP3 MSTORE PUSH1 0x2 SLOAD DUP2 MSTORE CALLER PUSH1 0x20 DUP3 ADD MSTORE SWAP1 DUP2 ADD DUP8 SWAP1 MSTORE TIMESTAMP PUSH1 0x60 DUP3 ADD MSTORE SWAP1 SWAP2 POP PUSH1 0x80 DUP2 ADD PUSH2 0x7D7 DUP7 PUSH3 0x15180 PUSH2 0xE71 JUMP JUMPDEST PUSH2 0x7E1 SWAP1 TIMESTAMP PUSH2 0xE8E JUMP JUMPDEST DUP2 MSTORE PUSH1 0x20 DUP1 DUP3 ADD DUP6 SWAP1 MSTORE PUSH1 0x40 DUP1 DUP4 ADD DUP8 SWAP1 MSTORE PUSH1 0x60 DUP1 DUP5 ADD DUP7 SWAP1 MSTORE PUSH1 0x1 PUSH1 0x80 SWAP5 DUP6 ADD DUP2 SWAP1 MSTORE PUSH1 0x2 DUP1 SLOAD PUSH0 SWAP1 DUP2 MSTORE PUSH1 0x3 DUP1 DUP8 MSTORE DUP6 DUP3 KECCAK256 DUP10 MLOAD DUP2 SSTORE DUP10 DUP9 ADD MLOAD DUP2 DUP7 ADD DUP1 SLOAD PUSH1 0x1 PUSH1 0x1 PUSH1 0xA0 SHL SUB NOT AND PUSH1 0x1 PUSH1 0x1 PUSH1 0xA0 SHL SUB SWAP1 SWAP3 AND SWAP2 SWAP1 SWAP2 OR SWAP1 SSTORE DUP10 DUP8 ADD MLOAD DUP2 DUP6 ADD SSTORE SWAP5 DUP10 ADD MLOAD SWAP1 DUP6 ADD SSTORE SWAP6 DUP8 ADD MLOAD PUSH1 0x4 DUP1 DUP6 ADD SWAP2 SWAP1 SWAP2 SSTORE PUSH1 0xA0 DUP9 ADD MLOAD PUSH1 0x5 DUP6 ADD SSTORE PUSH1 0xC0 DUP9 ADD MLOAD PUSH1 0x6 DUP6 ADD SSTORE PUSH1 0xE0 DUP9 ADD MLOAD PUSH1 0x7 DUP6 ADD SSTORE PUSH2 0x100 SWAP1 SWAP8 ADD MLOAD PUSH1 0x8 SWAP1 SWAP4 ADD DUP1 SLOAD PUSH1 0xFF NOT AND SWAP4 ISZERO ISZERO SWAP4 SWAP1 SWAP4 OR SWAP1 SWAP3 SSTORE CALLER DUP1 DUP7 MSTORE SWAP6 DUP5 MSTORE SWAP2 DUP5 KECCAK256 DUP2 SLOAD DUP2 SLOAD SWAP4 DUP5 ADD DUP3 SSTORE SWAP1 DUP6 MSTORE SWAP3 SWAP1 SWAP4 KECCAK256 ADD SSTORE SLOAD PUSH32 0x3A58274652AD3C1B21033919DF479AC9D224EEFAB131449D295D924AA4EEECEA DUP8 DUP7 PUSH2 0x8E1 DUP10 PUSH3 0x15180 PUSH2 0xE71 JUMP JUMPDEST PUSH2 0x8EB SWAP1 TIMESTAMP PUSH2 0xE8E JUMP JUMPDEST PUSH1 0x40 DUP1 MLOAD SWAP4 DUP5 MSTORE PUSH1 0x20 DUP5 ADD SWAP3 SWAP1 SWAP3 MSTORE SWAP1 DUP3 ADD MSTORE PUSH1 0x60 ADD PUSH1 0x40 MLOAD DUP1 SWAP2 SUB SWAP1 LOG3 PUSH1 0x2 DUP1 SLOAD SWAP1 PUSH0 PUSH2 0x918 DUP4 PUSH2 0xEA1 JUMP JUMPDEST SWAP2 SWAP1 POP SSTORE POP POP POP POP POP POP JUMP JUMPDEST PUSH2 0x975 PUSH1 0x40 MLOAD DUP1 PUSH2 0x120 ADD PUSH1 0x40 MSTORE DUP1 PUSH0 DUP2 MSTORE PUSH1 0x20 ADD PUSH0 PUSH1 0x1 PUSH1 0x1 PUSH1 0xA0 SHL SUB AND DUP2 MSTORE PUSH1 0x20 ADD PUSH0 DUP2 MSTORE PUSH1 0x20 ADD PUSH0 DUP2 MSTORE PUSH1 0x20 ADD PUSH0 DUP2 MSTORE PUSH1 0x20 ADD PUSH0 DUP2 MSTORE PUSH1 0x20 ADD PUSH0 DUP2 MSTORE PUSH1 0x20 ADD PUSH0 DUP2 MSTORE PUSH1 0x20 ADD PUSH0 ISZERO ISZERO DUP2 MSTORE POP SWAP1 JUMP JUMPDEST POP PUSH0 SWAP1 DUP2 MSTORE PUSH1 0x3 PUSH1 0x20 DUP2 DUP2 MSTORE PUSH1 0x40 SWAP3 DUP4 SWAP1 KECCAK256 DUP4 MLOAD PUSH2 0x120 DUP2 ADD DUP6 MSTORE DUP2 SLOAD DUP2 MSTORE PUSH1 0x1 DUP3 ADD SLOAD PUSH1 0x1 PUSH1 0x1 PUSH1 0xA0 SHL SUB AND SWAP3 DUP2 ADD SWAP3 SWAP1 SWAP3 MSTORE PUSH1 0x2 DUP2 ADD SLOAD SWAP4 DUP3 ADD SWAP4 SWAP1 SWAP4 MSTORE SWAP1 DUP3 ADD SLOAD PUSH1 0x60 DUP3 ADD MSTORE PUSH1 0x4 DUP3 ADD SLOAD PUSH1 0x80 DUP3 ADD MSTORE PUSH1 0x5 DUP3 ADD SLOAD PUSH1 0xA0 DUP3 ADD MSTORE PUSH1 0x6 DUP3 ADD SLOAD PUSH1 0xC0 DUP3 ADD MSTORE PUSH1 0x7 DUP3 ADD SLOAD PUSH1 0xE0 DUP3 ADD MSTORE PUSH1 0x8 SWAP1 SWAP2 ADD SLOAD PUSH1 0xFF AND ISZERO ISZERO PUSH2 0x100 DUP3 ADD MSTORE SWAP1 JUMP JUMPDEST PUSH0 DUP2 DUP2 MSTORE PUSH1 0x3 PUSH1 0x20 MSTORE PUSH1 0x40 SWAP1 KECCAK256 PUSH1 0x1 DUP2 ADD SLOAD PUSH1 0x1 PUSH1 0x1 PUSH1 0xA0 SHL SUB AND CALLER EQ PUSH2 0xA54 JUMPI PUSH1 0x40 MLOAD PUSH3 0x461BCD PUSH1 0xE5 SHL DUP2 MSTORE PUSH1 0x20 PUSH1 0x4 DUP3 ADD MSTORE PUSH1 0xE PUSH1 0x24 DUP3 ADD MSTORE PUSH14 0x4E6F7420796F7572207374616B65 PUSH1 0x90 SHL PUSH1 0x44 DUP3 ADD MSTORE PUSH1 0x64 ADD PUSH2 0x38F JUMP JUMPDEST PUSH1 0x8 DUP2 ADD SLOAD PUSH1 0xFF AND PUSH2 0xA9B JUMPI PUSH1 0x40 MLOAD PUSH3 0x461BCD PUSH1 0xE5 SHL DUP2 MSTORE PUSH1 0x20 PUSH1 0x4 DUP3 ADD MSTORE PUSH1 0x10 PUSH1 0x24 DUP3 ADD MSTORE PUSH16 0x105B1C9958591E481D5B9CDD185AD959 PUSH1 0x82 SHL PUSH1 0x44 DUP3 ADD MSTORE PUSH1 0x64 ADD PUSH2 0x38F JUMP JUMPDEST PUSH0 PUSH3 0x15180 DUP3 PUSH1 0x3 ADD SLOAD TIMESTAMP PUSH2 0xAB0 SWAP2 SWAP1 PUSH2 0xEB9 JUMP JUMPDEST PUSH2 0xABA SWAP2 SWAP1 PUSH2 0xECC JUMP JUMPDEST SWAP1 POP PUSH0 DUP1 DUP4 PUSH1 0x4 ADD SLOAD TIMESTAMP LT PUSH2 0xAEB JUMPI DUP4 PUSH1 0x7 ADD SLOAD DUP5 PUSH1 0x6 ADD SLOAD PUSH2 0xADD SWAP2 SWAP1 PUSH2 0xE8E JUMP JUMPDEST SWAP2 POP DUP4 PUSH1 0x7 ADD SLOAD SWAP1 POP PUSH2 0xB45 JUMP JUMPDEST PUSH1 0x14 DUP4 LT ISZERO PUSH2 0xB01 JUMPI POP POP PUSH1 0x6 DUP3 ADD SLOAD PUSH0 PUSH2 0xB45 JUMP JUMPDEST PUSH0 PUSH2 0x8E94 DUP6 PUSH1 0x5 ADD SLOAD DUP7 PUSH1 0x6 ADD SLOAD PUSH2 0xB19 SWAP2 SWAP1 PUSH2 0xE71 JUMP JUMPDEST PUSH2 0xB23 SWAP2 SWAP1 PUSH2 0xECC JUMP JUMPDEST SWAP1 POP PUSH2 0xB2F DUP5 DUP3 PUSH2 0xE71 JUMP JUMPDEST SWAP2 POP DUP2 DUP6 PUSH1 0x6 ADD SLOAD PUSH2 0xB41 SWAP2 SWAP1 PUSH2 0xE8E JUMP JUMPDEST SWAP3 POP POP JUMPDEST PUSH1 0x1 SLOAD PUSH1 0x40 MLOAD PUSH4 0xA9059CBB PUSH1 0xE0 SHL DUP2 MSTORE CALLER PUSH1 0x4 DUP3 ADD MSTORE PUSH1 0x24 DUP2 ADD DUP5 SWAP1 MSTORE PUSH1 0x1 PUSH1 0x1 PUSH1 0xA0 SHL SUB SWAP1 SWAP2 AND SWAP1 PUSH4 0xA9059CBB SWAP1 PUSH1 0x44 ADD PUSH1 0x20 PUSH1 0x40 MLOAD DUP1 DUP4 SUB DUP2 PUSH0 DUP8 GAS CALL ISZERO DUP1 ISZERO PUSH2 0xB93 JUMPI RETURNDATASIZE PUSH0 DUP1 RETURNDATACOPY RETURNDATASIZE PUSH0 REVERT JUMPDEST POP POP POP POP PUSH1 0x40 MLOAD RETURNDATASIZE PUSH1 0x1F NOT PUSH1 0x1F DUP3 ADD AND DUP3 ADD DUP1 PUSH1 0x40 MSTORE POP DUP2 ADD SWAP1 PUSH2 0xBB7 SWAP2 SWAP1 PUSH2 0xE3E JUMP JUMPDEST PUSH2 0xBF5 JUMPI PUSH1 0x40 MLOAD PUSH3 0x461BCD PUSH1 0xE5 SHL DUP2 MSTORE PUSH1 0x20 PUSH1 0x4 DUP3 ADD MSTORE PUSH1 0xF PUSH1 0x24 DUP3 ADD MSTORE PUSH15 0x151C985B9CD9995C8819985A5B1959 PUSH1 0x8A SHL PUSH1 0x44 DUP3 ADD MSTORE PUSH1 0x64 ADD PUSH2 0x38F JUMP JUMPDEST PUSH1 0x8 DUP5 ADD DUP1 SLOAD PUSH1 0xFF NOT AND SWAP1 SSTORE PUSH1 0x40 DUP1 MLOAD DUP4 DUP2 MSTORE PUSH1 0x20 DUP2 ADD DUP4 SWAP1 MSTORE CALLER SWAP2 DUP8 SWAP2 PUSH32 0xD4FB60805A60894A62FE4EB89B3AD68F7BACFE2777738DDFE5ED694C0DCD1D52 SWAP2 ADD PUSH1 0x40 MLOAD DUP1 SWAP2 SUB SWAP1 LOG3 POP POP POP POP POP JUMP JUMPDEST PUSH0 DUP2 DUP2 MSTORE PUSH1 0x3 PUSH1 0x20 MSTORE PUSH1 0x40 DUP2 KECCAK256 PUSH1 0x8 DUP2 ADD SLOAD PUSH1 0xFF AND PUSH2 0xC98 JUMPI PUSH1 0x40 MLOAD PUSH3 0x461BCD PUSH1 0xE5 SHL DUP2 MSTORE PUSH1 0x20 PUSH1 0x4 DUP3 ADD MSTORE PUSH1 0xF PUSH1 0x24 DUP3 ADD MSTORE PUSH15 0x141BDCDA5D1A5BDB8818DB1BDCD959 PUSH1 0x8A SHL PUSH1 0x44 DUP3 ADD MSTORE PUSH1 0x64 ADD PUSH2 0x38F JUMP JUMPDEST PUSH0 PUSH3 0x15180 DUP3 PUSH1 0x3 ADD SLOAD TIMESTAMP PUSH2 0xCAD SWAP2 SWAP1 PUSH2 0xEB9 JUMP JUMPDEST PUSH2 0xCB7 SWAP2 SWAP1 PUSH2 0xECC JUMP JUMPDEST SWAP1 POP PUSH0 PUSH2 0x8E94 DUP4 PUSH1 0x5 ADD SLOAD DUP5 PUSH1 0x6 ADD SLOAD PUSH2 0xCD1 SWAP2 SWAP1 PUSH2 0xE71 JUMP JUMPDEST PUSH2 0xCDB SWAP2 SWAP1 PUSH2 0xECC JUMP JUMPDEST SWAP1 POP PUSH2 0xCE7 DUP3 DUP3 PUSH2 0xE71 JUMP JUMPDEST SWAP6 SWAP5 POP POP POP POP POP JUMP JUMPDEST PUSH0 DUP1 PUSH1 0x64 PUSH2 0xCFE DUP5 DUP8 PUSH2 0xE71 JUMP JUMPDEST PUSH2 0xD08 SWAP2 SWAP1 PUSH2 0xECC JUMP JUMPDEST SWAP1 POP PUSH2 0x16D PUSH2 0xD17 DUP6 DUP4 PUSH2 0xE71 JUMP JUMPDEST PUSH2 0xCE7 SWAP2 SWAP1 PUSH2 0xECC JUMP JUMPDEST PUSH0 PUSH1 0x20 DUP3 DUP5 SUB SLT ISZERO PUSH2 0xD31 JUMPI PUSH0 DUP1 REVERT JUMPDEST POP CALLDATALOAD SWAP2 SWAP1 POP JUMP JUMPDEST DUP1 CALLDATALOAD PUSH1 0x1 PUSH1 0x1 PUSH1 0xA0 SHL SUB DUP2 AND DUP2 EQ PUSH2 0xD4E JUMPI PUSH0 DUP1 REVERT JUMPDEST SWAP2 SWAP1 POP JUMP JUMPDEST PUSH0 PUSH1 0x20 DUP3 DUP5 SUB SLT ISZERO PUSH2 0xD63 JUMPI PUSH0 DUP1 REVERT JUMPDEST PUSH2 0xD6C DUP3 PUSH2 0xD38 JUMP JUMPDEST SWAP4 SWAP3 POP POP POP JUMP JUMPDEST PUSH1 0x20 DUP1 DUP3 MSTORE DUP3 MLOAD DUP3 DUP3 ADD DUP2 SWAP1 MSTORE PUSH0 SWAP2 SWAP1 DUP5 DUP3 ADD SWAP1 PUSH1 0x40 DUP6 ADD SWAP1 DUP5 JUMPDEST DUP2 DUP2 LT ISZERO PUSH2 0xDAA JUMPI DUP4 MLOAD DUP4 MSTORE SWAP3 DUP5 ADD SWAP3 SWAP2 DUP5 ADD SWAP2 PUSH1 0x1 ADD PUSH2 0xD8E JUMP JUMPDEST POP SWAP1 SWAP7 SWAP6 POP POP POP POP POP POP JUMP JUMPDEST PUSH0 DUP1 PUSH1 0x40 DUP4 DUP6 SUB SLT ISZERO PUSH2 0xDC7 JUMPI PUSH0 DUP1 REVERT JUMPDEST PUSH2 0xDD0 DUP4 PUSH2 0xD38 JUMP JUMPDEST SWAP5 PUSH1 0x20 SWAP4 SWAP1 SWAP4 ADD CALLDATALOAD SWAP4 POP POP POP JUMP JUMPDEST PUSH0 DUP1 PUSH1 0x40 DUP4 DUP6 SUB SLT ISZERO PUSH2 0xDEF JUMPI PUSH0 DUP1 REVERT JUMPDEST POP POP DUP1 CALLDATALOAD SWAP3 PUSH1 0x20 SWAP1 SWAP2 ADD CALLDATALOAD SWAP2 POP JUMP JUMPDEST PUSH0 DUP1 PUSH0 PUSH1 0x60 DUP5 DUP7 SUB SLT ISZERO PUSH2 0xE10 JUMPI PUSH0 DUP1 REVERT JUMPDEST POP POP DUP2 CALLDATALOAD SWAP4 PUSH1 0x20 DUP4 ADD CALLDATALOAD SWAP4 POP PUSH1 0x40 SWAP1 SWAP3 ADD CALLDATALOAD SWAP2 SWAP1 POP JUMP JUMPDEST PUSH0 PUSH1 0x20 DUP3 DUP5 SUB SLT ISZERO PUSH2 0xE37 JUMPI PUSH0 DUP1 REVERT JUMPDEST POP MLOAD SWAP2 SWAP1 POP JUMP JUMPDEST PUSH0 PUSH1 0x20 DUP3 DUP5 SUB SLT ISZERO PUSH2 0xE4E JUMPI PUSH0 DUP1 REVERT JUMPDEST DUP2 MLOAD DUP1 ISZERO ISZERO DUP2 EQ PUSH2 0xD6C JUMPI PUSH0 DUP1 REVERT JUMPDEST PUSH4 0x4E487B71 PUSH1 0xE0 SHL PUSH0 MSTORE PUSH1 0x11 PUSH1 0x4 MSTORE PUSH1 0x24 PUSH0 REVERT JUMPDEST DUP1 DUP3 MUL DUP2 ISZERO DUP3 DUP3 DIV DUP5 EQ OR PUSH2 0xE88 JUMPI PUSH2 0xE88 PUSH2 0xE5D JUMP JUMPDEST SWAP3 SWAP2 POP POP JUMP JUMPDEST DUP1 DUP3 ADD DUP1 DUP3 GT ISZERO PUSH2 0xE88 JUMPI PUSH2 0xE88 PUSH2 0xE5D JUMP JUMPDEST PUSH0 PUSH1 0x1 DUP3 ADD PUSH2 0xEB2 JUMPI PUSH2 0xEB2 PUSH2 0xE5D JUMP JUMPDEST POP PUSH1 0x1 ADD SWAP1 JUMP JUMPDEST DUP2 DUP2 SUB DUP2 DUP2 GT ISZERO PUSH2 0xE88 JUMPI PUSH2 0xE88 PUSH2 0xE5D JUMP JUMPDEST PUSH0 DUP3 PUSH2 0xEE6 JUMPI PUSH4 0x4E487B71 PUSH1 0xE0 SHL PUSH0 MSTORE PUSH1 0x12 PUSH1 0x4 MSTORE PUSH1 0x24 PUSH0 REVERT JUMPDEST POP DIV SWAP1 JUMP INVALID LOG2 PUSH5 0x6970667358 0x22 SLT KECCAK256 PUSH7 0x4E364577BA467B 0x49 0xD6 0xB2 0xDB 0x5E CREATE2 PUSH12 0xBCBF6F5E638DDFA9380605BB PUSH27 0xB1BDF6CA64736F6C63430008140033000000000000000000000000 "
				},
				"gasEstimates": {
					"creation": {
						"codeDepositCost": "774600",
						"executionCost": "infinite",
						"totalCost": "infinite"
					},
					"external": {
						"calculatePreDaysInterest(uint256)": "infinite",
						"currentPositionId()": "2307",
						"getAPY(uint256)": "2512",
						"getPositionById(uint256)": "20057",
						"getPositionIdsForAddress(address)": "infinite",
						"modifyStakingAPY(uint256,uint256)": "24597",
						"nftUSDT()": "2381",
						"owner()": "2424",
						"positionIdsByAddress(address,uint256)": "4749",
						"positions(uint256)": "19594",
						"stakeNFT(uint256,uint256,uint256)": "infinite",
						"stakingAPY(uint256)": "2491",
						"unstakeNFT(uint256)": "infinite",
						"withdraw(uint256)": "infinite"
					},
					"internal": {
						"calculateInterest(uint256,uint256,uint256)": "infinite"
					}
				},
				"methodIdentifiers": {
					"calculatePreDaysInterest(uint256)": "c7d065bc",
					"currentPositionId()": "1131c8cd",
					"getAPY(uint256)": "eeee849b",
					"getPositionById(uint256)": "b838ec86",
					"getPositionIdsForAddress(address)": "40d98a44",
					"modifyStakingAPY(uint256,uint256)": "857224ee",
					"nftUSDT()": "9d0f8ca1",
					"owner()": "8da5cb5b",
					"positionIdsByAddress(address,uint256)": "45eae373",
					"positions(uint256)": "99fbab88",
					"stakeNFT(uint256,uint256,uint256)": "a7211ff8",
					"stakingAPY(uint256)": "875bb4e2",
					"unstakeNFT(uint256)": "c1dfa0bb",
					"withdraw(uint256)": "2e1a7d4d"
				}
			},
			"storageLayout": {
				"storage": [
					{
						"astId": 31,
						"contract": "contracts/st.sol:NFTStaking",
						"label": "owner",
						"offset": 0,
						"slot": "0",
						"type": "t_address"
					},
					{
						"astId": 34,
						"contract": "contracts/st.sol:NFTStaking",
						"label": "nftUSDT",
						"offset": 0,
						"slot": "1",
						"type": "t_contract(IERC20)29"
					},
					{
						"astId": 55,
						"contract": "contracts/st.sol:NFTStaking",
						"label": "currentPositionId",
						"offset": 0,
						"slot": "2",
						"type": "t_uint256"
					},
					{
						"astId": 60,
						"contract": "contracts/st.sol:NFTStaking",
						"label": "positions",
						"offset": 0,
						"slot": "3",
						"type": "t_mapping(t_uint256,t_struct(Position)53_storage)"
					},
					{
						"astId": 65,
						"contract": "contracts/st.sol:NFTStaking",
						"label": "positionIdsByAddress",
						"offset": 0,
						"slot": "4",
						"type": "t_mapping(t_address,t_array(t_uint256)dyn_storage)"
					},
					{
						"astId": 69,
						"contract": "contracts/st.sol:NFTStaking",
						"label": "stakingAPY",
						"offset": 0,
						"slot": "5",
						"type": "t_mapping(t_uint256,t_uint256)"
					}
				],
				"types": {
					"t_address": {
						"encoding": "inplace",
						"label": "address",
						"numberOfBytes": "20"
					},
					"t_array(t_uint256)dyn_storage": {
						"base": "t_uint256",
						"encoding": "dynamic_array",
						"label": "uint256[]",
						"numberOfBytes": "32"
					},
					"t_bool": {
						"encoding": "inplace",
						"label": "bool",
						"numberOfBytes": "1"
					},
					"t_contract(IERC20)29": {
						"encoding": "inplace",
						"label": "contract IERC20",
						"numberOfBytes": "20"
					},
					"t_mapping(t_address,t_array(t_uint256)dyn_storage)": {
						"encoding": "mapping",
						"key": "t_address",
						"label": "mapping(address => uint256[])",
						"numberOfBytes": "32",
						"value": "t_array(t_uint256)dyn_storage"
					},
					"t_mapping(t_uint256,t_struct(Position)53_storage)": {
						"encoding": "mapping",
						"key": "t_uint256",
						"label": "mapping(uint256 => struct NFTStaking.Position)",
						"numberOfBytes": "32",
						"value": "t_struct(Position)53_storage"
					},
					"t_mapping(t_uint256,t_uint256)": {
						"encoding": "mapping",
						"key": "t_uint256",
						"label": "mapping(uint256 => uint256)",
						"numberOfBytes": "32",
						"value": "t_uint256"
					},
					"t_struct(Position)53_storage": {
						"encoding": "inplace",
						"label": "struct NFTStaking.Position",
						"members": [
							{
								"astId": 36,
								"contract": "contracts/st.sol:NFTStaking",
								"label": "positionId",
								"offset": 0,
								"slot": "0",
								"type": "t_uint256"
							},
							{
								"astId": 38,
								"contract": "contracts/st.sol:NFTStaking",
								"label": "walletAddress",
								"offset": 0,
								"slot": "1",
								"type": "t_address"
							},
							{
								"astId": 40,
								"contract": "contracts/st.sol:NFTStaking",
								"label": "tokenId",
								"offset": 0,
								"slot": "2",
								"type": "t_uint256"
							},
							{
								"astId": 42,
								"contract": "contracts/st.sol:NFTStaking",
								"label": "createdDate",
								"offset": 0,
								"slot": "3",
								"type": "t_uint256"
							},
							{
								"astId": 44,
								"contract": "contracts/st.sol:NFTStaking",
								"label": "unlockDate",
								"offset": 0,
								"slot": "4",
								"type": "t_uint256"
							},
							{
								"astId": 46,
								"contract": "contracts/st.sol:NFTStaking",
								"label": "apy",
								"offset": 0,
								"slot": "5",
								"type": "t_uint256"
							},
							{
								"astId": 48,
								"contract": "contracts/st.sol:NFTStaking",
								"label": "amountStaked",
								"offset": 0,
								"slot": "6",
								"type": "t_uint256"
							},
							{
								"astId": 50,
								"contract": "contracts/st.sol:NFTStaking",
								"label": "totalInterest",
								"offset": 0,
								"slot": "7",
								"type": "t_uint256"
							},
							{
								"astId": 52,
								"contract": "contracts/st.sol:NFTStaking",
								"label": "open",
								"offset": 0,
								"slot": "8",
								"type": "t_bool"
							}
						],
						"numberOfBytes": "288"
					},
					"t_uint256": {
						"encoding": "inplace",
						"label": "uint256",
						"numberOfBytes": "32"
					}
				}
			},
			"userdoc": {
				"kind": "user",
				"methods": {},
				"version": 1
			}
		}
	}
}