{
	"contracts/artifacts/stake.sol": {
		"StakingGame": {
			"abi": [
				{
					"inputs": [
						{
							"internalType": "address",
							"name": "_tokenAddress",
							"type": "address"
						}
					],
					"stateMutability": "payable",
					"type": "constructor"
				},
				{
					"anonymous": false,
					"inputs": [
						{
							"indexed": true,
							"internalType": "address",
							"name": "user",
							"type": "address"
						},
						{
							"indexed": false,
							"internalType": "uint256",
							"name": "amount",
							"type": "uint256"
						},
						{
							"indexed": false,
							"internalType": "uint256",
							"name": "level",
							"type": "uint256"
						}
					],
					"name": "IncomeDistributed",
					"type": "event"
				},
				{
					"anonymous": false,
					"inputs": [
						{
							"indexed": true,
							"internalType": "uint256",
							"name": "positionId",
							"type": "uint256"
						}
					],
					"name": "PositionClosed",
					"type": "event"
				},
				{
					"anonymous": false,
					"inputs": [
						{
							"indexed": true,
							"internalType": "address",
							"name": "referrer",
							"type": "address"
						},
						{
							"indexed": true,
							"internalType": "address",
							"name": "referee",
							"type": "address"
						},
						{
							"indexed": false,
							"internalType": "uint256",
							"name": "amount",
							"type": "uint256"
						}
					],
					"name": "Referral",
					"type": "event"
				},
				{
					"anonymous": false,
					"inputs": [
						{
							"indexed": true,
							"internalType": "uint256",
							"name": "positionId",
							"type": "uint256"
						},
						{
							"indexed": false,
							"internalType": "uint256",
							"name": "startDate",
							"type": "uint256"
						},
						{
							"indexed": false,
							"internalType": "uint256",
							"name": "endDate",
							"type": "uint256"
						}
					],
					"name": "StakeDates",
					"type": "event"
				},
				{
					"inputs": [
						{
							"internalType": "uint256",
							"name": "positionId",
							"type": "uint256"
						}
					],
					"name": "calculateDailyInterest",
					"outputs": [
						{
							"internalType": "uint256",
							"name": "",
							"type": "uint256"
						}
					],
					"stateMutability": "view",
					"type": "function"
				},
				{
					"inputs": [
						{
							"internalType": "uint256",
							"name": "positionId",
							"type": "uint256"
						},
						{
							"internalType": "uint256",
							"name": "newUnlockDate",
							"type": "uint256"
						}
					],
					"name": "changeUnlockDate",
					"outputs": [],
					"stateMutability": "nonpayable",
					"type": "function"
				},
				{
					"inputs": [
						{
							"internalType": "uint256",
							"name": "positionId",
							"type": "uint256"
						}
					],
					"name": "claimDailyInterest",
					"outputs": [],
					"stateMutability": "nonpayable",
					"type": "function"
				},
				{
					"inputs": [],
					"name": "claimDirectReferralIncome",
					"outputs": [],
					"stateMutability": "nonpayable",
					"type": "function"
				},
				{
					"inputs": [
						{
							"internalType": "uint256",
							"name": "positionId",
							"type": "uint256"
						}
					],
					"name": "closePosition",
					"outputs": [],
					"stateMutability": "nonpayable",
					"type": "function"
				},
				{
					"inputs": [],
					"name": "contractBalance",
					"outputs": [
						{
							"internalType": "uint256",
							"name": "",
							"type": "uint256"
						}
					],
					"stateMutability": "view",
					"type": "function"
				},
				{
					"inputs": [],
					"name": "currentLevel",
					"outputs": [
						{
							"internalType": "uint256",
							"name": "",
							"type": "uint256"
						}
					],
					"stateMutability": "view",
					"type": "function"
				},
				{
					"inputs": [],
					"name": "currentPositionId",
					"outputs": [
						{
							"internalType": "uint256",
							"name": "",
							"type": "uint256"
						}
					],
					"stateMutability": "view",
					"type": "function"
				},
				{
					"inputs": [
						{
							"internalType": "address",
							"name": "",
							"type": "address"
						}
					],
					"name": "directReferralCount",
					"outputs": [
						{
							"internalType": "uint256",
							"name": "",
							"type": "uint256"
						}
					],
					"stateMutability": "view",
					"type": "function"
				},
				{
					"inputs": [
						{
							"internalType": "address",
							"name": "",
							"type": "address"
						}
					],
					"name": "directReferralIncome",
					"outputs": [
						{
							"internalType": "uint256",
							"name": "",
							"type": "uint256"
						}
					],
					"stateMutability": "view",
					"type": "function"
				},
				{
					"inputs": [
						{
							"internalType": "uint256",
							"name": "positionId",
							"type": "uint256"
						}
					],
					"name": "emergencyClosePosition",
					"outputs": [],
					"stateMutability": "nonpayable",
					"type": "function"
				},
				{
					"inputs": [
						{
							"internalType": "uint256",
							"name": "positionId",
							"type": "uint256"
						}
					],
					"name": "getDaysUntilUnlock",
					"outputs": [
						{
							"internalType": "uint256",
							"name": "",
							"type": "uint256"
						}
					],
					"stateMutability": "view",
					"type": "function"
				},
				{
					"inputs": [
						{
							"internalType": "address",
							"name": "user",
							"type": "address"
						}
					],
					"name": "getDirectReferralIncome",
					"outputs": [
						{
							"internalType": "uint256",
							"name": "",
							"type": "uint256"
						}
					],
					"stateMutability": "view",
					"type": "function"
				},
				{
					"inputs": [
						{
							"internalType": "uint256",
							"name": "numDays",
							"type": "uint256"
						}
					],
					"name": "getInterestRate",
					"outputs": [
						{
							"internalType": "uint256",
							"name": "",
							"type": "uint256"
						}
					],
					"stateMutability": "view",
					"type": "function"
				},
				{
					"inputs": [],
					"name": "getLockPeriods",
					"outputs": [
						{
							"internalType": "uint256[]",
							"name": "",
							"type": "uint256[]"
						}
					],
					"stateMutability": "view",
					"type": "function"
				},
				{
					"inputs": [
						{
							"internalType": "uint256",
							"name": "positionId",
							"type": "uint256"
						}
					],
					"name": "getPositionById",
					"outputs": [
						{
							"components": [
								{
									"internalType": "uint256",
									"name": "positionId",
									"type": "uint256"
								},
								{
									"internalType": "address",
									"name": "walletAddress",
									"type": "address"
								},
								{
									"internalType": "uint256",
									"name": "createdDate",
									"type": "uint256"
								},
								{
									"internalType": "uint256",
									"name": "unlockDate",
									"type": "uint256"
								},
								{
									"internalType": "uint256",
									"name": "percentInterest",
									"type": "uint256"
								},
								{
									"internalType": "uint256",
									"name": "weiStaked",
									"type": "uint256"
								},
								{
									"internalType": "uint256",
									"name": "weiInterest",
									"type": "uint256"
								},
								{
									"internalType": "bool",
									"name": "open",
									"type": "bool"
								},
								{
									"internalType": "uint256",
									"name": "lastClaimedDate",
									"type": "uint256"
								}
							],
							"internalType": "struct StakingGame.Position",
							"name": "",
							"type": "tuple"
						}
					],
					"stateMutability": "view",
					"type": "function"
				},
				{
					"inputs": [
						{
							"internalType": "address",
							"name": "walletAddress",
							"type": "address"
						}
					],
					"name": "getPositionHistoryForAddress",
					"outputs": [
						{
							"components": [
								{
									"internalType": "uint256",
									"name": "positionId",
									"type": "uint256"
								},
								{
									"internalType": "address",
									"name": "walletAddress",
									"type": "address"
								},
								{
									"internalType": "uint256",
									"name": "createdDate",
									"type": "uint256"
								},
								{
									"internalType": "uint256",
									"name": "unlockDate",
									"type": "uint256"
								},
								{
									"internalType": "uint256",
									"name": "percentInterest",
									"type": "uint256"
								},
								{
									"internalType": "uint256",
									"name": "weiStaked",
									"type": "uint256"
								},
								{
									"internalType": "uint256",
									"name": "weiInterest",
									"type": "uint256"
								},
								{
									"internalType": "bool",
									"name": "open",
									"type": "bool"
								},
								{
									"internalType": "uint256",
									"name": "lastClaimedDate",
									"type": "uint256"
								}
							],
							"internalType": "struct StakingGame.Position[]",
							"name": "",
							"type": "tuple[]"
						}
					],
					"stateMutability": "view",
					"type": "function"
				},
				{
					"inputs": [
						{
							"internalType": "address",
							"name": "walletAddress",
							"type": "address"
						}
					],
					"name": "getPositionIdsForAddress",
					"outputs": [
						{
							"internalType": "uint256[]",
							"name": "",
							"type": "uint256[]"
						}
					],
					"stateMutability": "view",
					"type": "function"
				},
				{
					"inputs": [
						{
							"internalType": "address",
							"name": "user",
							"type": "address"
						}
					],
					"name": "getTotalReferrals",
					"outputs": [
						{
							"internalType": "uint256",
							"name": "",
							"type": "uint256"
						}
					],
					"stateMutability": "view",
					"type": "function"
				},
				{
					"inputs": [
						{
							"internalType": "address",
							"name": "user",
							"type": "address"
						}
					],
					"name": "getUserLevel",
					"outputs": [
						{
							"internalType": "uint256",
							"name": "",
							"type": "uint256"
						}
					],
					"stateMutability": "view",
					"type": "function"
				},
				{
					"inputs": [
						{
							"internalType": "uint256",
							"name": "positionId",
							"type": "uint256"
						}
					],
					"name": "getUserStakeDays",
					"outputs": [
						{
							"internalType": "uint256",
							"name": "",
							"type": "uint256"
						}
					],
					"stateMutability": "view",
					"type": "function"
				},
				{
					"inputs": [
						{
							"internalType": "uint256",
							"name": "",
							"type": "uint256"
						}
					],
					"name": "levelIncome",
					"outputs": [
						{
							"internalType": "uint256",
							"name": "",
							"type": "uint256"
						}
					],
					"stateMutability": "view",
					"type": "function"
				},
				{
					"inputs": [
						{
							"internalType": "uint256",
							"name": "",
							"type": "uint256"
						}
					],
					"name": "lockPeriods",
					"outputs": [
						{
							"internalType": "uint256",
							"name": "",
							"type": "uint256"
						}
					],
					"stateMutability": "view",
					"type": "function"
				},
				{
					"inputs": [
						{
							"internalType": "uint256",
							"name": "numDays",
							"type": "uint256"
						},
						{
							"internalType": "uint256",
							"name": "basisPoints",
							"type": "uint256"
						}
					],
					"name": "modifyLockPeriods",
					"outputs": [],
					"stateMutability": "nonpayable",
					"type": "function"
				},
				{
					"inputs": [],
					"name": "nextUserId",
					"outputs": [
						{
							"internalType": "uint256",
							"name": "",
							"type": "uint256"
						}
					],
					"stateMutability": "view",
					"type": "function"
				},
				{
					"inputs": [],
					"name": "owner",
					"outputs": [
						{
							"internalType": "address",
							"name": "",
							"type": "address"
						}
					],
					"stateMutability": "view",
					"type": "function"
				},
				{
					"inputs": [
						{
							"internalType": "address",
							"name": "",
							"type": "address"
						},
						{
							"internalType": "uint256",
							"name": "",
							"type": "uint256"
						}
					],
					"name": "positionHistoryByAddress",
					"outputs": [
						{
							"internalType": "uint256",
							"name": "positionId",
							"type": "uint256"
						},
						{
							"internalType": "address",
							"name": "walletAddress",
							"type": "address"
						},
						{
							"internalType": "uint256",
							"name": "createdDate",
							"type": "uint256"
						},
						{
							"internalType": "uint256",
							"name": "unlockDate",
							"type": "uint256"
						},
						{
							"internalType": "uint256",
							"name": "percentInterest",
							"type": "uint256"
						},
						{
							"internalType": "uint256",
							"name": "weiStaked",
							"type": "uint256"
						},
						{
							"internalType": "uint256",
							"name": "weiInterest",
							"type": "uint256"
						},
						{
							"internalType": "bool",
							"name": "open",
							"type": "bool"
						},
						{
							"internalType": "uint256",
							"name": "lastClaimedDate",
							"type": "uint256"
						}
					],
					"stateMutability": "view",
					"type": "function"
				},
				{
					"inputs": [
						{
							"internalType": "address",
							"name": "",
							"type": "address"
						},
						{
							"internalType": "uint256",
							"name": "",
							"type": "uint256"
						}
					],
					"name": "positionIdsByAddress",
					"outputs": [
						{
							"internalType": "uint256",
							"name": "",
							"type": "uint256"
						}
					],
					"stateMutability": "view",
					"type": "function"
				},
				{
					"inputs": [
						{
							"internalType": "uint256",
							"name": "",
							"type": "uint256"
						}
					],
					"name": "positions",
					"outputs": [
						{
							"internalType": "uint256",
							"name": "positionId",
							"type": "uint256"
						},
						{
							"internalType": "address",
							"name": "walletAddress",
							"type": "address"
						},
						{
							"internalType": "uint256",
							"name": "createdDate",
							"type": "uint256"
						},
						{
							"internalType": "uint256",
							"name": "unlockDate",
							"type": "uint256"
						},
						{
							"internalType": "uint256",
							"name": "percentInterest",
							"type": "uint256"
						},
						{
							"internalType": "uint256",
							"name": "weiStaked",
							"type": "uint256"
						},
						{
							"internalType": "uint256",
							"name": "weiInterest",
							"type": "uint256"
						},
						{
							"internalType": "bool",
							"name": "open",
							"type": "bool"
						},
						{
							"internalType": "uint256",
							"name": "lastClaimedDate",
							"type": "uint256"
						}
					],
					"stateMutability": "view",
					"type": "function"
				},
				{
					"inputs": [
						{
							"internalType": "uint256",
							"name": "numDays",
							"type": "uint256"
						},
						{
							"internalType": "uint256",
							"name": "amount",
							"type": "uint256"
						},
						{
							"internalType": "address",
							"name": "referrer",
							"type": "address"
						}
					],
					"name": "stakeToken",
					"outputs": [],
					"stateMutability": "nonpayable",
					"type": "function"
				},
				{
					"inputs": [
						{
							"internalType": "uint256",
							"name": "numDays",
							"type": "uint256"
						},
						{
							"internalType": "uint256",
							"name": "amount",
							"type": "uint256"
						}
					],
					"name": "staketoken",
					"outputs": [],
					"stateMutability": "nonpayable",
					"type": "function"
				},
				{
					"inputs": [
						{
							"internalType": "uint256",
							"name": "",
							"type": "uint256"
						}
					],
					"name": "tiers",
					"outputs": [
						{
							"internalType": "uint256",
							"name": "",
							"type": "uint256"
						}
					],
					"stateMutability": "view",
					"type": "function"
				},
				{
					"inputs": [],
					"name": "token",
					"outputs": [
						{
							"internalType": "contract IERC20",
							"name": "",
							"type": "address"
						}
					],
					"stateMutability": "view",
					"type": "function"
				},
				{
					"inputs": [
						{
							"internalType": "address",
							"name": "",
							"type": "address"
						}
					],
					"name": "users",
					"outputs": [
						{
							"internalType": "address",
							"name": "upline",
							"type": "address"
						},
						{
							"internalType": "uint256",
							"name": "totalEarned",
							"type": "uint256"
						},
						{
							"internalType": "uint256",
							"name": "referralsCount",
							"type": "uint256"
						},
						{
							"internalType": "uint256",
							"name": "currentLevel",
							"type": "uint256"
						},
						{
							"internalType": "uint256",
							"name": "directReferralsCount",
							"type": "uint256"
						}
					],
					"stateMutability": "view",
					"type": "function"
				},
				{
					"inputs": [],
					"name": "withdrawAll",
					"outputs": [],
					"stateMutability": "nonpayable",
					"type": "function"
				}
			],
			"devdoc": {
				"kind": "dev",
				"methods": {},
				"version": 1
			},
			"evm": {
				"assembly": "    /* \"contracts/artifacts/stake.sol\":528:17411  contract StakingGame {... */\n  mstore(0x40, 0x80)\n    /* \"contracts/artifacts/stake.sol\":2343:2344  1 */\n  0x01\n    /* \"contracts/artifacts/stake.sol\":2315:2344  uint256 public nextUserId = 1 */\n  0x09\n  sstore\n    /* \"contracts/artifacts/stake.sol\":2918:3720  constructor(address _tokenAddress) payable {... */\n  mload(0x40)\n  sub(codesize, bytecodeSize)\n  dup1\n  bytecodeSize\n  dup4\n  codecopy\n  dup2\n  dup2\n  add\n  0x40\n  mstore\n  dup2\n  add\n  swap1\n  tag_1\n  swap2\n  swap1\n  tag_2\n  jump\t// in\ntag_1:\n    /* \"contracts/artifacts/stake.sol\":2980:2990  msg.sender */\n  caller\n    /* \"contracts/artifacts/stake.sol\":2972:2977  owner */\n  0x00\n  dup1\n    /* \"contracts/artifacts/stake.sol\":2972:2990  owner = msg.sender */\n  0x0100\n  exp\n  dup2\n  sload\n  dup2\n  0xffffffffffffffffffffffffffffffffffffffff\n  mul\n  not\n  and\n  swap1\n  dup4\n  0xffffffffffffffffffffffffffffffffffffffff\n  and\n  mul\n  or\n  swap1\n  sstore\n  pop\n    /* \"contracts/artifacts/stake.sol\":3021:3022  1 */\n  0x01\n    /* \"contracts/artifacts/stake.sol\":3001:3018  currentPositionId */\n  0x03\n    /* \"contracts/artifacts/stake.sol\":3001:3022  currentPositionId = 1 */\n  dup2\n  swap1\n  sstore\n  pop\n    /* \"contracts/artifacts/stake.sol\":3048:3061  _tokenAddress */\n  dup1\n    /* \"contracts/artifacts/stake.sol\":3033:3038  token */\n  0x01\n  0x00\n    /* \"contracts/artifacts/stake.sol\":3033:3062  token = IERC20(_tokenAddress) */\n  0x0100\n  exp\n  dup2\n  sload\n  dup2\n  0xffffffffffffffffffffffffffffffffffffffff\n  mul\n  not\n  and\n  swap1\n  dup4\n  0xffffffffffffffffffffffffffffffffffffffff\n  and\n  mul\n  or\n  swap1\n  sstore\n  pop\n    /* \"contracts/artifacts/stake.sol\":3088:3089  1 */\n  0x01\n    /* \"contracts/artifacts/stake.sol\":3073:3085  currentLevel */\n  0x04\n    /* \"contracts/artifacts/stake.sol\":3073:3089  currentLevel = 1 */\n  dup2\n  swap1\n  sstore\n  pop\n    /* \"contracts/artifacts/stake.sol\":3133:3138  owner */\n  0x00\n  dup1\n  sload\n  swap1\n  0x0100\n  exp\n  swap1\n  div\n  0xffffffffffffffffffffffffffffffffffffffff\n  and\n    /* \"contracts/artifacts/stake.sol\":3105:3138  users[msg.sender].upline != owner */\n  0xffffffffffffffffffffffffffffffffffffffff\n  and\n    /* \"contracts/artifacts/stake.sol\":3105:3110  users */\n  0x02\n    /* \"contracts/artifacts/stake.sol\":3105:3122  users[msg.sender] */\n  0x00\n    /* \"contracts/artifacts/stake.sol\":3111:3121  msg.sender */\n  caller\n    /* \"contracts/artifacts/stake.sol\":3105:3122  users[msg.sender] */\n  0xffffffffffffffffffffffffffffffffffffffff\n  and\n  0xffffffffffffffffffffffffffffffffffffffff\n  and\n  dup2\n  mstore\n  0x20\n  add\n  swap1\n  dup2\n  mstore\n  0x20\n  add\n  0x00\n  keccak256\n    /* \"contracts/artifacts/stake.sol\":3105:3129  users[msg.sender].upline */\n  0x00\n  add\n  0x00\n  swap1\n  sload\n  swap1\n  0x0100\n  exp\n  swap1\n  div\n  0xffffffffffffffffffffffffffffffffffffffff\n  and\n    /* \"contracts/artifacts/stake.sol\":3105:3138  users[msg.sender].upline != owner */\n  0xffffffffffffffffffffffffffffffffffffffff\n  and\n  eq\n    /* \"contracts/artifacts/stake.sol\":3102:3253  if(users[msg.sender].upline != owner) {... */\n  tag_5\n  jumpi\n    /* \"contracts/artifacts/stake.sol\":3147:3152  users */\n  0x02\n    /* \"contracts/artifacts/stake.sol\":3147:3164  users[msg.sender] */\n  0x00\n    /* \"contracts/artifacts/stake.sol\":3153:3163  msg.sender */\n  caller\n    /* \"contracts/artifacts/stake.sol\":3147:3164  users[msg.sender] */\n  0xffffffffffffffffffffffffffffffffffffffff\n  and\n  0xffffffffffffffffffffffffffffffffffffffff\n  and\n  dup2\n  mstore\n  0x20\n  add\n  swap1\n  dup2\n  mstore\n  0x20\n  add\n  0x00\n  keccak256\n    /* \"contracts/artifacts/stake.sol\":3147:3179  users[msg.sender].referralsCount */\n  0x02\n  add\n  0x00\n    /* \"contracts/artifacts/stake.sol\":3147:3181  users[msg.sender].referralsCount++ */\n  dup2\n  sload\n  dup1\n  swap3\n  swap2\n  swap1\n  tag_6\n  swap1\n  tag_7\n  jump\t// in\ntag_6:\n  swap2\n  swap1\n  pop\n  sstore\n  pop\n    /* \"contracts/artifacts/stake.sol\":3102:3253  if(users[msg.sender].upline != owner) {... */\ntag_5:\n    /* \"contracts/artifacts/stake.sol\":3343:3348  10000 */\n  0x2710\n    /* \"contracts/artifacts/stake.sol\":3329:3334  tiers */\n  0x08\n    /* \"contracts/artifacts/stake.sol\":3329:3340  tiers[1000] */\n  0x00\n    /* \"contracts/artifacts/stake.sol\":3335:3339  1000 */\n  0x03e8\n    /* \"contracts/artifacts/stake.sol\":3329:3340  tiers[1000] */\n  dup2\n  mstore\n  0x20\n  add\n  swap1\n  dup2\n  mstore\n  0x20\n  add\n  0x00\n  keccak256\n    /* \"contracts/artifacts/stake.sol\":3329:3348  tiers[1000] = 10000 */\n  dup2\n  swap1\n  sstore\n  pop\n    /* \"contracts/artifacts/stake.sol\":3372:3377  10000 */\n  0x2710\n    /* \"contracts/artifacts/stake.sol\":3359:3364  tiers */\n  0x08\n    /* \"contracts/artifacts/stake.sol\":3359:3369  tiers[800] */\n  0x00\n    /* \"contracts/artifacts/stake.sol\":3365:3368  800 */\n  0x0320\n    /* \"contracts/artifacts/stake.sol\":3359:3369  tiers[800] */\n  dup2\n  mstore\n  0x20\n  add\n  swap1\n  dup2\n  mstore\n  0x20\n  add\n  0x00\n  keccak256\n    /* \"contracts/artifacts/stake.sol\":3359:3377  tiers[800] = 10000 */\n  dup2\n  swap1\n  sstore\n  pop\n    /* \"contracts/artifacts/stake.sol\":3390:3401  lockPeriods */\n  0x0a\n    /* \"contracts/artifacts/stake.sol\":3407:3411  1000 */\n  0x03e8\n    /* \"contracts/artifacts/stake.sol\":3390:3412  lockPeriods.push(1000) */\n  swap1\n  dup1\n  0x01\n  dup2\n  sload\n  add\n  dup1\n  dup3\n  sstore\n  dup1\n  swap2\n  pop\n  pop\n  0x01\n  swap1\n  sub\n  swap1\n  0x00\n  mstore\n  keccak256(0x00, 0x20)\n  add\n  0x00\n  swap1\n  swap2\n  swap1\n  swap2\n  swap1\n  swap2\n  pop\n  sstore\n    /* \"contracts/artifacts/stake.sol\":3423:3434  lockPeriods */\n  0x0a\n    /* \"contracts/artifacts/stake.sol\":3440:3443  800 */\n  0x0320\n    /* \"contracts/artifacts/stake.sol\":3423:3444  lockPeriods.push(800) */\n  swap1\n  dup1\n  0x01\n  dup2\n  sload\n  add\n  dup1\n  dup3\n  sstore\n  dup1\n  swap2\n  pop\n  pop\n  0x01\n  swap1\n  sub\n  swap1\n  0x00\n  mstore\n  keccak256(0x00, 0x20)\n  add\n  0x00\n  swap1\n  swap2\n  swap1\n  swap2\n  swap1\n  swap2\n  pop\n  sstore\n    /* \"contracts/artifacts/stake.sol\":3535:3537  10 */\n  0x0a\n    /* \"contracts/artifacts/stake.sol\":3518:3529  levelIncome */\n  0x0d\n    /* \"contracts/artifacts/stake.sol\":3518:3532  levelIncome[1] */\n  0x00\n    /* \"contracts/artifacts/stake.sol\":3530:3531  1 */\n  0x01\n    /* \"contracts/artifacts/stake.sol\":3518:3532  levelIncome[1] */\n  dup2\n  mstore\n  0x20\n  add\n  swap1\n  dup2\n  mstore\n  0x20\n  add\n  0x00\n  keccak256\n    /* \"contracts/artifacts/stake.sol\":3518:3537  levelIncome[1] = 10 */\n  dup2\n  swap1\n  sstore\n  pop\n    /* \"contracts/artifacts/stake.sol\":3590:3591  5 */\n  0x05\n    /* \"contracts/artifacts/stake.sol\":3573:3584  levelIncome */\n  0x0d\n    /* \"contracts/artifacts/stake.sol\":3573:3587  levelIncome[2] */\n  0x00\n    /* \"contracts/artifacts/stake.sol\":3585:3586  2 */\n  0x02\n    /* \"contracts/artifacts/stake.sol\":3573:3587  levelIncome[2] */\n  dup2\n  mstore\n  0x20\n  add\n  swap1\n  dup2\n  mstore\n  0x20\n  add\n  0x00\n  keccak256\n    /* \"contracts/artifacts/stake.sol\":3573:3591  levelIncome[2] = 5 */\n  dup2\n  swap1\n  sstore\n  pop\n    /* \"contracts/artifacts/stake.sol\":3644:3645  4 */\n  0x04\n    /* \"contracts/artifacts/stake.sol\":3627:3638  levelIncome */\n  0x0d\n    /* \"contracts/artifacts/stake.sol\":3627:3641  levelIncome[3] */\n  0x00\n    /* \"contracts/artifacts/stake.sol\":3639:3640  3 */\n  0x03\n    /* \"contracts/artifacts/stake.sol\":3627:3641  levelIncome[3] */\n  dup2\n  mstore\n  0x20\n  add\n  swap1\n  dup2\n  mstore\n  0x20\n  add\n  0x00\n  keccak256\n    /* \"contracts/artifacts/stake.sol\":3627:3645  levelIncome[3] = 4 */\n  dup2\n  swap1\n  sstore\n  pop\n    /* \"contracts/artifacts/stake.sol\":3673:3674  3 */\n  0x03\n    /* \"contracts/artifacts/stake.sol\":3656:3667  levelIncome */\n  0x0d\n    /* \"contracts/artifacts/stake.sol\":3656:3670  levelIncome[4] */\n  0x00\n    /* \"contracts/artifacts/stake.sol\":3668:3669  4 */\n  0x04\n    /* \"contracts/artifacts/stake.sol\":3656:3670  levelIncome[4] */\n  dup2\n  mstore\n  0x20\n  add\n  swap1\n  dup2\n  mstore\n  0x20\n  add\n  0x00\n  keccak256\n    /* \"contracts/artifacts/stake.sol\":3656:3674  levelIncome[4] = 3 */\n  dup2\n  swap1\n  sstore\n  pop\n    /* \"contracts/artifacts/stake.sol\":3702:3703  2 */\n  0x02\n    /* \"contracts/artifacts/stake.sol\":3685:3696  levelIncome */\n  0x0d\n    /* \"contracts/artifacts/stake.sol\":3685:3699  levelIncome[5] */\n  0x00\n    /* \"contracts/artifacts/stake.sol\":3697:3698  5 */\n  0x05\n    /* \"contracts/artifacts/stake.sol\":3685:3699  levelIncome[5] */\n  dup2\n  mstore\n  0x20\n  add\n  swap1\n  dup2\n  mstore\n  0x20\n  add\n  0x00\n  keccak256\n    /* \"contracts/artifacts/stake.sol\":3685:3703  levelIncome[5] = 2 */\n  dup2\n  swap1\n  sstore\n  pop\n    /* \"contracts/artifacts/stake.sol\":2918:3720  constructor(address _tokenAddress) payable {... */\n  pop\n    /* \"contracts/artifacts/stake.sol\":528:17411  contract StakingGame {... */\n  jump(tag_10)\n    /* \"#utility.yul\":88:205   */\ntag_12:\n    /* \"#utility.yul\":197:198   */\n  0x00\n    /* \"#utility.yul\":194:195   */\n  dup1\n    /* \"#utility.yul\":187:199   */\n  revert\n    /* \"#utility.yul\":334:460   */\ntag_14:\n    /* \"#utility.yul\":371:378   */\n  0x00\n    /* \"#utility.yul\":411:453   */\n  0xffffffffffffffffffffffffffffffffffffffff\n    /* \"#utility.yul\":404:409   */\n  dup3\n    /* \"#utility.yul\":400:454   */\n  and\n    /* \"#utility.yul\":389:454   */\n  swap1\n  pop\n    /* \"#utility.yul\":334:460   */\n  swap2\n  swap1\n  pop\n  jump\t// out\n    /* \"#utility.yul\":466:562   */\ntag_15:\n    /* \"#utility.yul\":503:510   */\n  0x00\n    /* \"#utility.yul\":532:556   */\n  tag_26\n    /* \"#utility.yul\":550:555   */\n  dup3\n    /* \"#utility.yul\":532:556   */\n  tag_14\n  jump\t// in\ntag_26:\n    /* \"#utility.yul\":521:556   */\n  swap1\n  pop\n    /* \"#utility.yul\":466:562   */\n  swap2\n  swap1\n  pop\n  jump\t// out\n    /* \"#utility.yul\":568:690   */\ntag_16:\n    /* \"#utility.yul\":641:665   */\n  tag_28\n    /* \"#utility.yul\":659:664   */\n  dup2\n    /* \"#utility.yul\":641:665   */\n  tag_15\n  jump\t// in\ntag_28:\n    /* \"#utility.yul\":634:639   */\n  dup2\n    /* \"#utility.yul\":631:666   */\n  eq\n    /* \"#utility.yul\":621:684   */\n  tag_29\n  jumpi\n    /* \"#utility.yul\":680:681   */\n  0x00\n    /* \"#utility.yul\":677:678   */\n  dup1\n    /* \"#utility.yul\":670:682   */\n  revert\n    /* \"#utility.yul\":621:684   */\ntag_29:\n    /* \"#utility.yul\":568:690   */\n  pop\n  jump\t// out\n    /* \"#utility.yul\":696:839   */\ntag_17:\n    /* \"#utility.yul\":753:758   */\n  0x00\n    /* \"#utility.yul\":784:790   */\n  dup2\n    /* \"#utility.yul\":778:791   */\n  mload\n    /* \"#utility.yul\":769:791   */\n  swap1\n  pop\n    /* \"#utility.yul\":800:833   */\n  tag_31\n    /* \"#utility.yul\":827:832   */\n  dup2\n    /* \"#utility.yul\":800:833   */\n  tag_16\n  jump\t// in\ntag_31:\n    /* \"#utility.yul\":696:839   */\n  swap3\n  swap2\n  pop\n  pop\n  jump\t// out\n    /* \"#utility.yul\":845:1196   */\ntag_2:\n    /* \"#utility.yul\":915:921   */\n  0x00\n    /* \"#utility.yul\":964:966   */\n  0x20\n    /* \"#utility.yul\":952:961   */\n  dup3\n    /* \"#utility.yul\":943:950   */\n  dup5\n    /* \"#utility.yul\":939:962   */\n  sub\n    /* \"#utility.yul\":935:967   */\n  slt\n    /* \"#utility.yul\":932:1051   */\n  iszero\n  tag_33\n  jumpi\n    /* \"#utility.yul\":970:1049   */\n  tag_34\n  tag_12\n  jump\t// in\ntag_34:\n    /* \"#utility.yul\":932:1051   */\ntag_33:\n    /* \"#utility.yul\":1090:1091   */\n  0x00\n    /* \"#utility.yul\":1115:1179   */\n  tag_35\n    /* \"#utility.yul\":1171:1178   */\n  dup5\n    /* \"#utility.yul\":1162:1168   */\n  dup3\n    /* \"#utility.yul\":1151:1160   */\n  dup6\n    /* \"#utility.yul\":1147:1169   */\n  add\n    /* \"#utility.yul\":1115:1179   */\n  tag_17\n  jump\t// in\ntag_35:\n    /* \"#utility.yul\":1105:1179   */\n  swap2\n  pop\n    /* \"#utility.yul\":1061:1189   */\n  pop\n    /* \"#utility.yul\":845:1196   */\n  swap3\n  swap2\n  pop\n  pop\n  jump\t// out\n    /* \"#utility.yul\":1202:1382   */\ntag_18:\n    /* \"#utility.yul\":1250:1327   */\n  0x4e487b7100000000000000000000000000000000000000000000000000000000\n    /* \"#utility.yul\":1247:1248   */\n  0x00\n    /* \"#utility.yul\":1240:1328   */\n  mstore\n    /* \"#utility.yul\":1347:1351   */\n  0x11\n    /* \"#utility.yul\":1344:1345   */\n  0x04\n    /* \"#utility.yul\":1337:1352   */\n  mstore\n    /* \"#utility.yul\":1371:1375   */\n  0x24\n    /* \"#utility.yul\":1368:1369   */\n  0x00\n    /* \"#utility.yul\":1361:1376   */\n  revert\n    /* \"#utility.yul\":1388:1465   */\ntag_19:\n    /* \"#utility.yul\":1425:1432   */\n  0x00\n    /* \"#utility.yul\":1454:1459   */\n  dup2\n    /* \"#utility.yul\":1443:1459   */\n  swap1\n  pop\n    /* \"#utility.yul\":1388:1465   */\n  swap2\n  swap1\n  pop\n  jump\t// out\n    /* \"#utility.yul\":1471:1704   */\ntag_7:\n    /* \"#utility.yul\":1510:1513   */\n  0x00\n    /* \"#utility.yul\":1533:1557   */\n  tag_39\n    /* \"#utility.yul\":1551:1556   */\n  dup3\n    /* \"#utility.yul\":1533:1557   */\n  tag_19\n  jump\t// in\ntag_39:\n    /* \"#utility.yul\":1524:1557   */\n  swap2\n  pop\n    /* \"#utility.yul\":1579:1645   */\n  0xffffffffffffffffffffffffffffffffffffffffffffffffffffffffffffffff\n    /* \"#utility.yul\":1572:1577   */\n  dup3\n    /* \"#utility.yul\":1569:1646   */\n  sub\n    /* \"#utility.yul\":1566:1669   */\n  tag_40\n  jumpi\n    /* \"#utility.yul\":1649:1667   */\n  tag_41\n  tag_18\n  jump\t// in\ntag_41:\n    /* \"#utility.yul\":1566:1669   */\ntag_40:\n    /* \"#utility.yul\":1696:1697   */\n  0x01\n    /* \"#utility.yul\":1689:1694   */\n  dup3\n    /* \"#utility.yul\":1685:1698   */\n  add\n    /* \"#utility.yul\":1678:1698   */\n  swap1\n  pop\n    /* \"#utility.yul\":1471:1704   */\n  swap2\n  swap1\n  pop\n  jump\t// out\n    /* \"contracts/artifacts/stake.sol\":528:17411  contract StakingGame {... */\ntag_10:\n  dataSize(sub_0)\n  dup1\n  dataOffset(sub_0)\n  0x00\n  codecopy\n  0x00\n  return\nstop\n\nsub_0: assembly {\n        /* \"contracts/artifacts/stake.sol\":528:17411  contract StakingGame {... */\n      mstore(0x40, 0x80)\n      callvalue\n      dup1\n      iszero\n      tag_1\n      jumpi\n      0x00\n      dup1\n      revert\n    tag_1:\n      pop\n      jumpi(tag_2, lt(calldatasize, 0x04))\n      shr(0xe0, calldataload(0x00))\n      dup1\n      0x99fbab88\n      gt\n      tag_38\n      jumpi\n      dup1\n      0xb77b7dc9\n      gt\n      tag_39\n      jumpi\n      dup1\n      0xd21b7abf\n      gt\n      tag_40\n      jumpi\n      dup1\n      0xd21b7abf\n      eq\n      tag_33\n      jumpi\n      dup1\n      0xd7406f5c\n      eq\n      tag_34\n      jumpi\n      dup1\n      0xf59a843a\n      eq\n      tag_35\n      jumpi\n      dup1\n      0xf6e88873\n      eq\n      tag_36\n      jumpi\n      dup1\n      0xfc0c546a\n      eq\n      tag_37\n      jumpi\n      jump(tag_2)\n    tag_40:\n      dup1\n      0xb77b7dc9\n      eq\n      tag_29\n      jumpi\n      dup1\n      0xb838ec86\n      eq\n      tag_30\n      jumpi\n      dup1\n      0xbc259107\n      eq\n      tag_31\n      jumpi\n      dup1\n      0xc7c9d055\n      eq\n      tag_32\n      jumpi\n      jump(tag_2)\n    tag_39:\n      dup1\n      0xa54586f8\n      gt\n      tag_41\n      jumpi\n      dup1\n      0xa54586f8\n      eq\n      tag_24\n      jumpi\n      dup1\n      0xa567ac2e\n      eq\n      tag_25\n      jumpi\n      dup1\n      0xa87430ba\n      eq\n      tag_26\n      jumpi\n      dup1\n      0xaa7ed462\n      eq\n      tag_27\n      jumpi\n      dup1\n      0xb0f0475b\n      eq\n      tag_28\n      jumpi\n      jump(tag_2)\n    tag_41:\n      dup1\n      0x99fbab88\n      eq\n      tag_20\n      jumpi\n      dup1\n      0x9dc4b9c9\n      eq\n      tag_21\n      jumpi\n      dup1\n      0xa126d601\n      eq\n      tag_22\n      jumpi\n      dup1\n      0xa1e6a255\n      eq\n      tag_23\n      jumpi\n      jump(tag_2)\n    tag_38:\n      dup1\n      0x40d98a44\n      gt\n      tag_42\n      jumpi\n      dup1\n      0x591d8fea\n      gt\n      tag_43\n      jumpi\n      dup1\n      0x591d8fea\n      eq\n      tag_15\n      jumpi\n      dup1\n      0x5bffa8ff\n      eq\n      tag_16\n      jumpi\n      dup1\n      0x853828b6\n      eq\n      tag_17\n      jumpi\n      dup1\n      0x8b7afe2e\n      eq\n      tag_18\n      jumpi\n      dup1\n      0x8da5cb5b\n      eq\n      tag_19\n      jumpi\n      jump(tag_2)\n    tag_43:\n      dup1\n      0x40d98a44\n      eq\n      tag_11\n      jumpi\n      dup1\n      0x41ee13be\n      eq\n      tag_12\n      jumpi\n      dup1\n      0x45eae373\n      eq\n      tag_13\n      jumpi\n      dup1\n      0x4c8f2a78\n      eq\n      tag_14\n      jumpi\n      jump(tag_2)\n    tag_42:\n      dup1\n      0x1df9758b\n      gt\n      tag_44\n      jumpi\n      dup1\n      0x1df9758b\n      eq\n      tag_7\n      jumpi\n      dup1\n      0x21923bde\n      eq\n      tag_8\n      jumpi\n      dup1\n      0x23e252f4\n      eq\n      tag_9\n      jumpi\n      dup1\n      0x2ad53440\n      eq\n      tag_10\n      jumpi\n      jump(tag_2)\n    tag_44:\n      dup1\n      0x039af9eb\n      eq\n      tag_3\n      jumpi\n      dup1\n      0x0c196a74\n      eq\n      tag_4\n      jumpi\n      dup1\n      0x1131c8cd\n      eq\n      tag_5\n      jumpi\n      dup1\n      0x1271fde0\n      eq\n      tag_6\n      jumpi\n    tag_2:\n      0x00\n      dup1\n      revert\n        /* \"contracts/artifacts/stake.sol\":1906:1946  mapping(uint256 => uint256) public tiers */\n    tag_3:\n      tag_45\n      0x04\n      dup1\n      calldatasize\n      sub\n      dup2\n      add\n      swap1\n      tag_46\n      swap2\n      swap1\n      tag_47\n      jump\t// in\n    tag_46:\n      tag_48\n      jump\t// in\n    tag_45:\n      mload(0x40)\n      tag_49\n      swap2\n      swap1\n      tag_50\n      jump\t// in\n    tag_49:\n      mload(0x40)\n      dup1\n      swap2\n      sub\n      swap1\n      return\n        /* \"contracts/artifacts/stake.sol\":6453:6567  function getInterestRate(uint256 numDays) external view returns (uint256) {... */\n    tag_4:\n      tag_51\n      0x04\n      dup1\n      calldatasize\n      sub\n      dup2\n      add\n      swap1\n      tag_52\n      swap2\n      swap1\n      tag_47\n      jump\t// in\n    tag_52:\n      tag_53\n      jump\t// in\n    tag_51:\n      mload(0x40)\n      tag_54\n      swap2\n      swap1\n      tag_50\n      jump\t// in\n    tag_54:\n      mload(0x40)\n      dup1\n      swap2\n      sub\n      swap1\n      return\n        /* \"contracts/artifacts/stake.sol\":1461:1493  uint256 public currentPositionId */\n    tag_5:\n      tag_55\n      tag_56\n      jump\t// in\n    tag_55:\n      mload(0x40)\n      tag_57\n      swap2\n      swap1\n      tag_50\n      jump\t// in\n    tag_57:\n      mload(0x40)\n      dup1\n      swap2\n      sub\n      swap1\n      return\n        /* \"contracts/artifacts/stake.sol\":16585:16716  function getTotalReferrals(address user) external view returns (uint256) {... */\n    tag_6:\n      tag_58\n      0x04\n      dup1\n      calldatasize\n      sub\n      dup2\n      add\n      swap1\n      tag_59\n      swap2\n      swap1\n      tag_60\n      jump\t// in\n    tag_59:\n      tag_61\n      jump\t// in\n    tag_58:\n      mload(0x40)\n      tag_62\n      swap2\n      swap1\n      tag_50\n      jump\t// in\n    tag_62:\n      mload(0x40)\n      dup1\n      swap2\n      sub\n      swap1\n      return\n        /* \"contracts/artifacts/stake.sol\":14684:15203  function getUserStakeDays(uint256 positionId) external view returns (uint256) {... */\n    tag_7:\n      tag_63\n      0x04\n      dup1\n      calldatasize\n      sub\n      dup2\n      add\n      swap1\n      tag_64\n      swap2\n      swap1\n      tag_47\n      jump\t// in\n    tag_64:\n      tag_65\n      jump\t// in\n    tag_63:\n      mload(0x40)\n      tag_66\n      swap2\n      swap1\n      tag_50\n      jump\t// in\n    tag_66:\n      mload(0x40)\n      dup1\n      swap2\n      sub\n      swap1\n      return\n        /* \"contracts/artifacts/stake.sol\":16776:16894  function getUserLevel(address user) external view returns (uint256) {... */\n    tag_8:\n      tag_67\n      0x04\n      dup1\n      calldatasize\n      sub\n      dup2\n      add\n      swap1\n      tag_68\n      swap2\n      swap1\n      tag_60\n      jump\t// in\n    tag_68:\n      tag_69\n      jump\t// in\n    tag_67:\n      mload(0x40)\n      tag_70\n      swap2\n      swap1\n      tag_50\n      jump\t// in\n    tag_70:\n      mload(0x40)\n      dup1\n      swap2\n      sub\n      swap1\n      return\n        /* \"contracts/artifacts/stake.sol\":4013:4184  function stakeToken(... */\n    tag_9:\n      tag_71\n      0x04\n      dup1\n      calldatasize\n      sub\n      dup2\n      add\n      swap1\n      tag_72\n      swap2\n      swap1\n      tag_73\n      jump\t// in\n    tag_72:\n      tag_74\n      jump\t// in\n    tag_71:\n      stop\n        /* \"contracts/artifacts/stake.sol\":3800:3921  function staketoken(uint256 numDays, uint256 amount) external {... */\n    tag_10:\n      tag_75\n      0x04\n      dup1\n      calldatasize\n      sub\n      dup2\n      add\n      swap1\n      tag_76\n      swap2\n      swap1\n      tag_77\n      jump\t// in\n    tag_76:\n      tag_78\n      jump\t// in\n    tag_75:\n      stop\n        /* \"contracts/artifacts/stake.sol\":7197:7388  function getPositionIdsForAddress(address walletAddress)... */\n    tag_11:\n      tag_79\n      0x04\n      dup1\n      calldatasize\n      sub\n      dup2\n      add\n      swap1\n      tag_80\n      swap2\n      swap1\n      tag_60\n      jump\t// in\n    tag_80:\n      tag_81\n      jump\t// in\n    tag_79:\n      mload(0x40)\n      tag_82\n      swap2\n      swap1\n      tag_83\n      jump\t// in\n    tag_82:\n      mload(0x40)\n      dup1\n      swap2\n      sub\n      swap1\n      return\n        /* \"contracts/artifacts/stake.sol\":6269:6373  function getLockPeriods() external view returns (uint256[] memory) {... */\n    tag_12:\n      tag_84\n      tag_85\n      jump\t// in\n    tag_84:\n      mload(0x40)\n      tag_86\n      swap2\n      swap1\n      tag_83\n      jump\t// in\n    tag_86:\n      mload(0x40)\n      dup1\n      swap2\n      sub\n      swap1\n      return\n        /* \"contracts/artifacts/stake.sol\":1768:1825  mapping(address => uint256[]) public positionIdsByAddress */\n    tag_13:\n      tag_87\n      0x04\n      dup1\n      calldatasize\n      sub\n      dup2\n      add\n      swap1\n      tag_88\n      swap2\n      swap1\n      tag_89\n      jump\t// in\n    tag_88:\n      tag_90\n      jump\t// in\n    tag_87:\n      mload(0x40)\n      tag_91\n      swap2\n      swap1\n      tag_50\n      jump\t// in\n    tag_91:\n      mload(0x40)\n      dup1\n      swap2\n      sub\n      swap1\n      return\n        /* \"contracts/artifacts/stake.sol\":2389:2417  uint256[] public lockPeriods */\n    tag_14:\n      tag_92\n      0x04\n      dup1\n      calldatasize\n      sub\n      dup2\n      add\n      swap1\n      tag_93\n      swap2\n      swap1\n      tag_47\n      jump\t// in\n    tag_93:\n      tag_94\n      jump\t// in\n    tag_92:\n      mload(0x40)\n      tag_95\n      swap2\n      swap1\n      tag_50\n      jump\t// in\n    tag_95:\n      mload(0x40)\n      dup1\n      swap2\n      sub\n      swap1\n      return\n        /* \"contracts/artifacts/stake.sol\":10071:11835  function claimDailyInterest(uint256 positionId) external {... */\n    tag_15:\n      tag_96\n      0x04\n      dup1\n      calldatasize\n      sub\n      dup2\n      add\n      swap1\n      tag_97\n      swap2\n      swap1\n      tag_47\n      jump\t// in\n    tag_97:\n      tag_98\n      jump\t// in\n    tag_96:\n      stop\n        /* \"contracts/artifacts/stake.sol\":8359:8885  function claimDirectReferralIncome() external {... */\n    tag_16:\n      tag_99\n      tag_100\n      jump\t// in\n    tag_99:\n      stop\n        /* \"contracts/artifacts/stake.sol\":17151:17391  function withdrawAll() external onlyOwner {... */\n    tag_17:\n      tag_101\n      tag_102\n      jump\t// in\n    tag_101:\n      stop\n        /* \"contracts/artifacts/stake.sol\":16958:17073  function contractBalance() external view returns (uint256) {... */\n    tag_18:\n      tag_103\n      tag_104\n      jump\t// in\n    tag_103:\n      mload(0x40)\n      tag_105\n      swap2\n      swap1\n      tag_50\n      jump\t// in\n    tag_105:\n      mload(0x40)\n      dup1\n      swap2\n      sub\n      swap1\n      return\n        /* \"contracts/artifacts/stake.sol\":586:606  address public owner */\n    tag_19:\n      tag_106\n      tag_107\n      jump\t// in\n    tag_106:\n      mload(0x40)\n      tag_108\n      swap2\n      swap1\n      tag_109\n      jump\t// in\n    tag_108:\n      mload(0x40)\n      dup1\n      swap2\n      sub\n      swap1\n      return\n        /* \"contracts/artifacts/stake.sol\":1661:1706  mapping(uint256 => Position) public positions */\n    tag_20:\n      tag_110\n      0x04\n      dup1\n      calldatasize\n      sub\n      dup2\n      add\n      swap1\n      tag_111\n      swap2\n      swap1\n      tag_47\n      jump\t// in\n    tag_111:\n      tag_112\n      jump\t// in\n    tag_110:\n      mload(0x40)\n      tag_113\n      swap10\n      swap9\n      swap8\n      swap7\n      swap6\n      swap5\n      swap4\n      swap3\n      swap2\n      swap1\n      tag_114\n      jump\t// in\n    tag_113:\n      mload(0x40)\n      dup1\n      swap2\n      sub\n      swap1\n      return\n        /* \"contracts/artifacts/stake.sol\":1502:1529  uint256 public currentLevel */\n    tag_21:\n      tag_115\n      tag_116\n      jump\t// in\n    tag_115:\n      mload(0x40)\n      tag_117\n      swap2\n      swap1\n      tag_50\n      jump\t// in\n    tag_117:\n      mload(0x40)\n      dup1\n      swap2\n      sub\n      swap1\n      return\n        /* \"contracts/artifacts/stake.sol\":13182:14594  function closePosition(uint256 positionId) external {... */\n    tag_22:\n      tag_118\n      0x04\n      dup1\n      calldatasize\n      sub\n      dup2\n      add\n      swap1\n      tag_119\n      swap2\n      swap1\n      tag_47\n      jump\t// in\n    tag_119:\n      tag_120\n      jump\t// in\n    tag_118:\n      stop\n        /* \"contracts/artifacts/stake.sol\":2315:2344  uint256 public nextUserId = 1 */\n    tag_23:\n      tag_121\n      tag_122\n      jump\t// in\n    tag_121:\n      mload(0x40)\n      tag_123\n      swap2\n      swap1\n      tag_50\n      jump\t// in\n    tag_123:\n      mload(0x40)\n      dup1\n      swap2\n      sub\n      swap1\n      return\n        /* \"contracts/artifacts/stake.sol\":1592:1654  mapping(address => Position[]) public positionHistoryByAddress */\n    tag_24:\n      tag_124\n      0x04\n      dup1\n      calldatasize\n      sub\n      dup2\n      add\n      swap1\n      tag_125\n      swap2\n      swap1\n      tag_89\n      jump\t// in\n    tag_125:\n      tag_126\n      jump\t// in\n    tag_124:\n      mload(0x40)\n      tag_127\n      swap10\n      swap9\n      swap8\n      swap7\n      swap6\n      swap5\n      swap4\n      swap3\n      swap2\n      swap1\n      tag_114\n      jump\t// in\n    tag_127:\n      mload(0x40)\n      dup1\n      swap2\n      sub\n      swap1\n      return\n        /* \"contracts/artifacts/stake.sol\":7463:7995  function getPositionHistoryForAddress(address walletAddress)... */\n    tag_25:\n      tag_128\n      0x04\n      dup1\n      calldatasize\n      sub\n      dup2\n      add\n      swap1\n      tag_129\n      swap2\n      swap1\n      tag_60\n      jump\t// in\n    tag_129:\n      tag_130\n      jump\t// in\n    tag_128:\n      mload(0x40)\n      tag_131\n      swap2\n      swap1\n      tag_132\n      jump\t// in\n    tag_131:\n      mload(0x40)\n      dup1\n      swap2\n      sub\n      swap1\n      return\n        /* \"contracts/artifacts/stake.sol\":1387:1424  mapping(address => User) public users */\n    tag_26:\n      tag_133\n      0x04\n      dup1\n      calldatasize\n      sub\n      dup2\n      add\n      swap1\n      tag_134\n      swap2\n      swap1\n      tag_60\n      jump\t// in\n    tag_134:\n      tag_135\n      jump\t// in\n    tag_133:\n      mload(0x40)\n      tag_136\n      swap6\n      swap5\n      swap4\n      swap3\n      swap2\n      swap1\n      tag_137\n      jump\t// in\n    tag_136:\n      mload(0x40)\n      dup1\n      swap2\n      sub\n      swap1\n      return\n        /* \"contracts/artifacts/stake.sol\":16393:16521  function getDirectReferralIncome(address user) external view returns (uint256) {... */\n    tag_27:\n      tag_138\n      0x04\n      dup1\n      calldatasize\n      sub\n      dup2\n      add\n      swap1\n      tag_139\n      swap2\n      swap1\n      tag_60\n      jump\t// in\n    tag_139:\n      tag_140\n      jump\t// in\n    tag_138:\n      mload(0x40)\n      tag_141\n      swap2\n      swap1\n      tag_50\n      jump\t// in\n    tag_141:\n      mload(0x40)\n      dup1\n      swap2\n      sub\n      swap1\n      return\n        /* \"contracts/artifacts/stake.sol\":5873:6211  function modifyLockPeriods(uint256 numDays, uint256 basisPoints) external {... */\n    tag_28:\n      tag_142\n      0x04\n      dup1\n      calldatasize\n      sub\n      dup2\n      add\n      swap1\n      tag_143\n      swap2\n      swap1\n      tag_77\n      jump\t// in\n    tag_143:\n      tag_144\n      jump\t// in\n    tag_142:\n      stop\n        /* \"contracts/artifacts/stake.sol\":2465:2519  mapping(address => uint256) public directReferralCount */\n    tag_29:\n      tag_145\n      0x04\n      dup1\n      calldatasize\n      sub\n      dup2\n      add\n      swap1\n      tag_146\n      swap2\n      swap1\n      tag_60\n      jump\t// in\n    tag_146:\n      tag_147\n      jump\t// in\n    tag_145:\n      mload(0x40)\n      tag_148\n      swap2\n      swap1\n      tag_50\n      jump\t// in\n    tag_148:\n      mload(0x40)\n      dup1\n      swap2\n      sub\n      swap1\n      return\n        /* \"contracts/artifacts/stake.sol\":6631:6795  function getPositionById(uint256 positionId)... */\n    tag_30:\n      tag_149\n      0x04\n      dup1\n      calldatasize\n      sub\n      dup2\n      add\n      swap1\n      tag_150\n      swap2\n      swap1\n      tag_47\n      jump\t// in\n    tag_150:\n      tag_151\n      jump\t// in\n    tag_149:\n      mload(0x40)\n      tag_152\n      swap2\n      swap1\n      tag_153\n      jump\t// in\n    tag_152:\n      mload(0x40)\n      dup1\n      swap2\n      sub\n      swap1\n      return\n        /* \"contracts/artifacts/stake.sol\":15211:15633  function getDaysUntilUnlock(uint256 positionId)... */\n    tag_31:\n      tag_154\n      0x04\n      dup1\n      calldatasize\n      sub\n      dup2\n      add\n      swap1\n      tag_155\n      swap2\n      swap1\n      tag_47\n      jump\t// in\n    tag_155:\n      tag_156\n      jump\t// in\n    tag_154:\n      mload(0x40)\n      tag_157\n      swap2\n      swap1\n      tag_50\n      jump\t// in\n    tag_157:\n      mload(0x40)\n      dup1\n      swap2\n      sub\n      swap1\n      return\n        /* \"contracts/artifacts/stake.sol\":6873:7112  function changeUnlockDate(uint256 positionId, uint256 newUnlockDate)... */\n    tag_32:\n      tag_158\n      0x04\n      dup1\n      calldatasize\n      sub\n      dup2\n      add\n      swap1\n      tag_159\n      swap2\n      swap1\n      tag_77\n      jump\t// in\n    tag_159:\n      tag_160\n      jump\t// in\n    tag_158:\n      stop\n        /* \"contracts/artifacts/stake.sol\":11905:13129  function emergencyClosePosition(uint256 positionId) external {... */\n    tag_33:\n      tag_161\n      0x04\n      dup1\n      calldatasize\n      sub\n      dup2\n      add\n      swap1\n      tag_162\n      swap2\n      swap1\n      tag_47\n      jump\t// in\n    tag_162:\n      tag_163\n      jump\t// in\n    tag_161:\n      stop\n        /* \"contracts/artifacts/stake.sol\":8986:9966  function calculateDailyInterest(uint256 positionId)... */\n    tag_34:\n      tag_164\n      0x04\n      dup1\n      calldatasize\n      sub\n      dup2\n      add\n      swap1\n      tag_165\n      swap2\n      swap1\n      tag_47\n      jump\t// in\n    tag_165:\n      tag_166\n      jump\t// in\n    tag_164:\n      mload(0x40)\n      tag_167\n      swap2\n      swap1\n      tag_50\n      jump\t// in\n    tag_167:\n      mload(0x40)\n      dup1\n      swap2\n      sub\n      swap1\n      return\n        /* \"contracts/artifacts/stake.sol\":2636:2682  mapping(uint256 => uint256) public levelIncome */\n    tag_35:\n      tag_168\n      0x04\n      dup1\n      calldatasize\n      sub\n      dup2\n      add\n      swap1\n      tag_169\n      swap2\n      swap1\n      tag_47\n      jump\t// in\n    tag_169:\n      tag_170\n      jump\t// in\n    tag_168:\n      mload(0x40)\n      tag_171\n      swap2\n      swap1\n      tag_50\n      jump\t// in\n    tag_171:\n      mload(0x40)\n      dup1\n      swap2\n      sub\n      swap1\n      return\n        /* \"contracts/artifacts/stake.sol\":2526:2581  mapping(address => uint256) public directReferralIncome */\n    tag_36:\n      tag_172\n      0x04\n      dup1\n      calldatasize\n      sub\n      dup2\n      add\n      swap1\n      tag_173\n      swap2\n      swap1\n      tag_60\n      jump\t// in\n    tag_173:\n      tag_174\n      jump\t// in\n    tag_172:\n      mload(0x40)\n      tag_175\n      swap2\n      swap1\n      tag_50\n      jump\t// in\n    tag_175:\n      mload(0x40)\n      dup1\n      swap2\n      sub\n      swap1\n      return\n        /* \"contracts/artifacts/stake.sol\":662:681  IERC20 public token */\n    tag_37:\n      tag_176\n      tag_177\n      jump\t// in\n    tag_176:\n      mload(0x40)\n      tag_178\n      swap2\n      swap1\n      tag_179\n      jump\t// in\n    tag_178:\n      mload(0x40)\n      dup1\n      swap2\n      sub\n      swap1\n      return\n        /* \"contracts/artifacts/stake.sol\":1906:1946  mapping(uint256 => uint256) public tiers */\n    tag_48:\n      mstore(0x20, 0x08)\n      dup1\n      0x00\n      mstore\n      keccak256(0x00, 0x40)\n      0x00\n      swap2\n      pop\n      swap1\n      pop\n      sload\n      dup2\n      jump\t// out\n        /* \"contracts/artifacts/stake.sol\":6453:6567  function getInterestRate(uint256 numDays) external view returns (uint256) {... */\n    tag_53:\n        /* \"contracts/artifacts/stake.sol\":6518:6525  uint256 */\n      0x00\n        /* \"contracts/artifacts/stake.sol\":6545:6550  tiers */\n      0x08\n        /* \"contracts/artifacts/stake.sol\":6545:6559  tiers[numDays] */\n      0x00\n        /* \"contracts/artifacts/stake.sol\":6551:6558  numDays */\n      dup4\n        /* \"contracts/artifacts/stake.sol\":6545:6559  tiers[numDays] */\n      dup2\n      mstore\n      0x20\n      add\n      swap1\n      dup2\n      mstore\n      0x20\n      add\n      0x00\n      keccak256\n      sload\n        /* \"contracts/artifacts/stake.sol\":6538:6559  return tiers[numDays] */\n      swap1\n      pop\n        /* \"contracts/artifacts/stake.sol\":6453:6567  function getInterestRate(uint256 numDays) external view returns (uint256) {... */\n      swap2\n      swap1\n      pop\n      jump\t// out\n        /* \"contracts/artifacts/stake.sol\":1461:1493  uint256 public currentPositionId */\n    tag_56:\n      sload(0x03)\n      dup2\n      jump\t// out\n        /* \"contracts/artifacts/stake.sol\":16585:16716  function getTotalReferrals(address user) external view returns (uint256) {... */\n    tag_61:\n        /* \"contracts/artifacts/stake.sol\":16649:16656  uint256 */\n      0x00\n        /* \"contracts/artifacts/stake.sol\":16676:16681  users */\n      0x02\n        /* \"contracts/artifacts/stake.sol\":16676:16687  users[user] */\n      0x00\n        /* \"contracts/artifacts/stake.sol\":16682:16686  user */\n      dup4\n        /* \"contracts/artifacts/stake.sol\":16676:16687  users[user] */\n      0xffffffffffffffffffffffffffffffffffffffff\n      and\n      0xffffffffffffffffffffffffffffffffffffffff\n      and\n      dup2\n      mstore\n      0x20\n      add\n      swap1\n      dup2\n      mstore\n      0x20\n      add\n      0x00\n      keccak256\n        /* \"contracts/artifacts/stake.sol\":16676:16708  users[user].directReferralsCount */\n      0x04\n      add\n      sload\n        /* \"contracts/artifacts/stake.sol\":16669:16708  return users[user].directReferralsCount */\n      swap1\n      pop\n        /* \"contracts/artifacts/stake.sol\":16585:16716  function getTotalReferrals(address user) external view returns (uint256) {... */\n      swap2\n      swap1\n      pop\n      jump\t// out\n        /* \"contracts/artifacts/stake.sol\":14684:15203  function getUserStakeDays(uint256 positionId) external view returns (uint256) {... */\n    tag_65:\n        /* \"contracts/artifacts/stake.sol\":14753:14760  uint256 */\n      0x00\n        /* \"contracts/artifacts/stake.sol\":14773:14797  Position memory position */\n      dup1\n        /* \"contracts/artifacts/stake.sol\":14800:14809  positions */\n      0x06\n        /* \"contracts/artifacts/stake.sol\":14800:14821  positions[positionId] */\n      0x00\n        /* \"contracts/artifacts/stake.sol\":14810:14820  positionId */\n      dup5\n        /* \"contracts/artifacts/stake.sol\":14800:14821  positions[positionId] */\n      dup2\n      mstore\n      0x20\n      add\n      swap1\n      dup2\n      mstore\n      0x20\n      add\n      0x00\n      keccak256\n        /* \"contracts/artifacts/stake.sol\":14773:14821  Position memory position = positions[positionId] */\n      mload(0x40)\n      dup1\n      0x0120\n      add\n      0x40\n      mstore\n      swap1\n      dup2\n      0x00\n      dup3\n      add\n      sload\n      dup2\n      mstore\n      0x20\n      add\n      0x01\n      dup3\n      add\n      0x00\n      swap1\n      sload\n      swap1\n      0x0100\n      exp\n      swap1\n      div\n      0xffffffffffffffffffffffffffffffffffffffff\n      and\n      0xffffffffffffffffffffffffffffffffffffffff\n      and\n      0xffffffffffffffffffffffffffffffffffffffff\n      and\n      dup2\n      mstore\n      0x20\n      add\n      0x02\n      dup3\n      add\n      sload\n      dup2\n      mstore\n      0x20\n      add\n      0x03\n      dup3\n      add\n      sload\n      dup2\n      mstore\n      0x20\n      add\n      0x04\n      dup3\n      add\n      sload\n      dup2\n      mstore\n      0x20\n      add\n      0x05\n      dup3\n      add\n      sload\n      dup2\n      mstore\n      0x20\n      add\n      0x06\n      dup3\n      add\n      sload\n      dup2\n      mstore\n      0x20\n      add\n      0x07\n      dup3\n      add\n      0x00\n      swap1\n      sload\n      swap1\n      0x0100\n      exp\n      swap1\n      div\n      0xff\n      and\n      iszero\n      iszero\n      iszero\n      iszero\n      dup2\n      mstore\n      0x20\n      add\n      0x08\n      dup3\n      add\n      sload\n      dup2\n      mstore\n      pop\n      pop\n      swap1\n      pop\n        /* \"contracts/artifacts/stake.sol\":14862:14863  0 */\n      0x00\n        /* \"contracts/artifacts/stake.sol\":14840:14848  position */\n      dup2\n        /* \"contracts/artifacts/stake.sol\":14840:14859  position.positionId */\n      0x00\n      add\n      mload\n        /* \"contracts/artifacts/stake.sol\":14840:14863  position.positionId > 0 */\n      gt\n        /* \"contracts/artifacts/stake.sol\":14832:14887  require(position.positionId > 0, \"Invalid position ID\") */\n      tag_183\n      jumpi\n      mload(0x40)\n      0x08c379a000000000000000000000000000000000000000000000000000000000\n      dup2\n      mstore\n      0x04\n      add\n      tag_184\n      swap1\n      tag_185\n      jump\t// in\n    tag_184:\n      mload(0x40)\n      dup1\n      swap2\n      sub\n      swap1\n      revert\n    tag_183:\n        /* \"contracts/artifacts/stake.sol\":14949:14966  uint256 stakeDays */\n      0x00\n        /* \"contracts/artifacts/stake.sol\":15000:15008  position */\n      dup2\n        /* \"contracts/artifacts/stake.sol\":15000:15019  position.unlockDate */\n      0x60\n      add\n      mload\n        /* \"contracts/artifacts/stake.sol\":14981:14996  block.timestamp */\n      timestamp\n        /* \"contracts/artifacts/stake.sol\":14981:15019  block.timestamp >= position.unlockDate */\n      lt\n        /* \"contracts/artifacts/stake.sol\":14977:15159  if (block.timestamp >= position.unlockDate) {... */\n      tag_186\n      jumpi\n        /* \"contracts/artifacts/stake.sol\":15048:15049  0 */\n      0x00\n        /* \"contracts/artifacts/stake.sol\":15036:15049  stakeDays = 0 */\n      swap1\n      pop\n        /* \"contracts/artifacts/stake.sol\":14977:15159  if (block.timestamp >= position.unlockDate) {... */\n      jump(tag_187)\n    tag_186:\n        /* \"contracts/artifacts/stake.sol\":15141:15147  1 days */\n      0x015180\n        /* \"contracts/artifacts/stake.sol\":15117:15125  position */\n      dup3\n        /* \"contracts/artifacts/stake.sol\":15117:15137  position.createdDate */\n      0x40\n      add\n      mload\n        /* \"contracts/artifacts/stake.sol\":15095:15103  position */\n      dup4\n        /* \"contracts/artifacts/stake.sol\":15095:15114  position.unlockDate */\n      0x60\n      add\n      mload\n        /* \"contracts/artifacts/stake.sol\":15095:15137  position.unlockDate - position.createdDate */\n      tag_188\n      swap2\n      swap1\n      tag_189\n      jump\t// in\n    tag_188:\n        /* \"contracts/artifacts/stake.sol\":15094:15147  (position.unlockDate - position.createdDate) / 1 days */\n      tag_190\n      swap2\n      swap1\n      tag_191\n      jump\t// in\n    tag_190:\n        /* \"contracts/artifacts/stake.sol\":15082:15147  stakeDays = (position.unlockDate - position.createdDate) / 1 days */\n      swap1\n      pop\n        /* \"contracts/artifacts/stake.sol\":14977:15159  if (block.timestamp >= position.unlockDate) {... */\n    tag_187:\n        /* \"contracts/artifacts/stake.sol\":15186:15195  stakeDays */\n      dup1\n        /* \"contracts/artifacts/stake.sol\":15179:15195  return stakeDays */\n      swap3\n      pop\n      pop\n      pop\n        /* \"contracts/artifacts/stake.sol\":14684:15203  function getUserStakeDays(uint256 positionId) external view returns (uint256) {... */\n      swap2\n      swap1\n      pop\n      jump\t// out\n        /* \"contracts/artifacts/stake.sol\":16776:16894  function getUserLevel(address user) external view returns (uint256) {... */\n    tag_69:\n        /* \"contracts/artifacts/stake.sol\":16835:16842  uint256 */\n      0x00\n        /* \"contracts/artifacts/stake.sol\":16862:16867  users */\n      0x02\n        /* \"contracts/artifacts/stake.sol\":16862:16873  users[user] */\n      0x00\n        /* \"contracts/artifacts/stake.sol\":16868:16872  user */\n      dup4\n        /* \"contracts/artifacts/stake.sol\":16862:16873  users[user] */\n      0xffffffffffffffffffffffffffffffffffffffff\n      and\n      0xffffffffffffffffffffffffffffffffffffffff\n      and\n      dup2\n      mstore\n      0x20\n      add\n      swap1\n      dup2\n      mstore\n      0x20\n      add\n      0x00\n      keccak256\n        /* \"contracts/artifacts/stake.sol\":16862:16886  users[user].currentLevel */\n      0x03\n      add\n      sload\n        /* \"contracts/artifacts/stake.sol\":16855:16886  return users[user].currentLevel */\n      swap1\n      pop\n        /* \"contracts/artifacts/stake.sol\":16776:16894  function getUserLevel(address user) external view returns (uint256) {... */\n      swap2\n      swap1\n      pop\n      jump\t// out\n        /* \"contracts/artifacts/stake.sol\":4013:4184  function stakeToken(... */\n    tag_74:\n        /* \"contracts/artifacts/stake.sol\":4138:4176  _stakeToken(numDays, amount, referrer) */\n      tag_194\n        /* \"contracts/artifacts/stake.sol\":4150:4157  numDays */\n      dup4\n        /* \"contracts/artifacts/stake.sol\":4159:4165  amount */\n      dup4\n        /* \"contracts/artifacts/stake.sol\":4167:4175  referrer */\n      dup4\n        /* \"contracts/artifacts/stake.sol\":4138:4149  _stakeToken */\n      tag_195\n        /* \"contracts/artifacts/stake.sol\":4138:4176  _stakeToken(numDays, amount, referrer) */\n      jump\t// in\n    tag_194:\n        /* \"contracts/artifacts/stake.sol\":4013:4184  function stakeToken(... */\n      pop\n      pop\n      pop\n      jump\t// out\n        /* \"contracts/artifacts/stake.sol\":3800:3921  function staketoken(uint256 numDays, uint256 amount) external {... */\n    tag_78:\n        /* \"contracts/artifacts/stake.sol\":3873:3913  _stakeToken(numDays, amount, address(0)) */\n      tag_197\n        /* \"contracts/artifacts/stake.sol\":3885:3892  numDays */\n      dup3\n        /* \"contracts/artifacts/stake.sol\":3894:3900  amount */\n      dup3\n        /* \"contracts/artifacts/stake.sol\":3910:3911  0 */\n      0x00\n        /* \"contracts/artifacts/stake.sol\":3873:3884  _stakeToken */\n      tag_195\n        /* \"contracts/artifacts/stake.sol\":3873:3913  _stakeToken(numDays, amount, address(0)) */\n      jump\t// in\n    tag_197:\n        /* \"contracts/artifacts/stake.sol\":3800:3921  function staketoken(uint256 numDays, uint256 amount) external {... */\n      pop\n      pop\n      jump\t// out\n        /* \"contracts/artifacts/stake.sol\":7197:7388  function getPositionIdsForAddress(address walletAddress)... */\n    tag_81:\n        /* \"contracts/artifacts/stake.sol\":7304:7320  uint256[] memory */\n      0x60\n        /* \"contracts/artifacts/stake.sol\":7345:7365  positionIdsByAddress */\n      0x07\n        /* \"contracts/artifacts/stake.sol\":7345:7380  positionIdsByAddress[walletAddress] */\n      0x00\n        /* \"contracts/artifacts/stake.sol\":7366:7379  walletAddress */\n      dup4\n        /* \"contracts/artifacts/stake.sol\":7345:7380  positionIdsByAddress[walletAddress] */\n      0xffffffffffffffffffffffffffffffffffffffff\n      and\n      0xffffffffffffffffffffffffffffffffffffffff\n      and\n      dup2\n      mstore\n      0x20\n      add\n      swap1\n      dup2\n      mstore\n      0x20\n      add\n      0x00\n      keccak256\n        /* \"contracts/artifacts/stake.sol\":7338:7380  return positionIdsByAddress[walletAddress] */\n      dup1\n      sload\n      dup1\n      0x20\n      mul\n      0x20\n      add\n      mload(0x40)\n      swap1\n      dup2\n      add\n      0x40\n      mstore\n      dup1\n      swap3\n      swap2\n      swap1\n      dup2\n      dup2\n      mstore\n      0x20\n      add\n      dup3\n      dup1\n      sload\n      dup1\n      iszero\n      tag_199\n      jumpi\n      0x20\n      mul\n      dup3\n      add\n      swap2\n      swap1\n      0x00\n      mstore\n      keccak256(0x00, 0x20)\n      swap1\n    tag_200:\n      dup2\n      sload\n      dup2\n      mstore\n      0x20\n      add\n      swap1\n      0x01\n      add\n      swap1\n      dup1\n      dup4\n      gt\n      tag_200\n      jumpi\n    tag_199:\n      pop\n      pop\n      pop\n      pop\n      pop\n      swap1\n      pop\n        /* \"contracts/artifacts/stake.sol\":7197:7388  function getPositionIdsForAddress(address walletAddress)... */\n      swap2\n      swap1\n      pop\n      jump\t// out\n        /* \"contracts/artifacts/stake.sol\":6269:6373  function getLockPeriods() external view returns (uint256[] memory) {... */\n    tag_85:\n        /* \"contracts/artifacts/stake.sol\":6318:6334  uint256[] memory */\n      0x60\n        /* \"contracts/artifacts/stake.sol\":6354:6365  lockPeriods */\n      0x0a\n        /* \"contracts/artifacts/stake.sol\":6347:6365  return lockPeriods */\n      dup1\n      sload\n      dup1\n      0x20\n      mul\n      0x20\n      add\n      mload(0x40)\n      swap1\n      dup2\n      add\n      0x40\n      mstore\n      dup1\n      swap3\n      swap2\n      swap1\n      dup2\n      dup2\n      mstore\n      0x20\n      add\n      dup3\n      dup1\n      sload\n      dup1\n      iszero\n      tag_202\n      jumpi\n      0x20\n      mul\n      dup3\n      add\n      swap2\n      swap1\n      0x00\n      mstore\n      keccak256(0x00, 0x20)\n      swap1\n    tag_203:\n      dup2\n      sload\n      dup2\n      mstore\n      0x20\n      add\n      swap1\n      0x01\n      add\n      swap1\n      dup1\n      dup4\n      gt\n      tag_203\n      jumpi\n    tag_202:\n      pop\n      pop\n      pop\n      pop\n      pop\n      swap1\n      pop\n        /* \"contracts/artifacts/stake.sol\":6269:6373  function getLockPeriods() external view returns (uint256[] memory) {... */\n      swap1\n      jump\t// out\n        /* \"contracts/artifacts/stake.sol\":1768:1825  mapping(address => uint256[]) public positionIdsByAddress */\n    tag_90:\n      mstore(0x20, 0x07)\n      dup2\n      0x00\n      mstore\n      keccak256(0x00, 0x40)\n      dup2\n      dup2\n      sload\n      dup2\n      lt\n      tag_204\n      jumpi\n      0x00\n      dup1\n      revert\n    tag_204:\n      swap1\n      0x00\n      mstore\n      keccak256(0x00, 0x20)\n      add\n      0x00\n      swap2\n      pop\n      swap2\n      pop\n      pop\n      sload\n      dup2\n      jump\t// out\n        /* \"contracts/artifacts/stake.sol\":2389:2417  uint256[] public lockPeriods */\n    tag_94:\n      0x0a\n      dup2\n      dup2\n      sload\n      dup2\n      lt\n      tag_206\n      jumpi\n      0x00\n      dup1\n      revert\n    tag_206:\n      swap1\n      0x00\n      mstore\n      keccak256(0x00, 0x20)\n      add\n      0x00\n      swap2\n      pop\n      swap1\n      pop\n      sload\n      dup2\n      jump\t// out\n        /* \"contracts/artifacts/stake.sol\":10071:11835  function claimDailyInterest(uint256 positionId) external {... */\n    tag_98:\n        /* \"contracts/artifacts/stake.sol\":10139:10164  Position storage position */\n      0x00\n        /* \"contracts/artifacts/stake.sol\":10167:10176  positions */\n      0x06\n        /* \"contracts/artifacts/stake.sol\":10167:10188  positions[positionId] */\n      0x00\n        /* \"contracts/artifacts/stake.sol\":10177:10187  positionId */\n      dup4\n        /* \"contracts/artifacts/stake.sol\":10167:10188  positions[positionId] */\n      dup2\n      mstore\n      0x20\n      add\n      swap1\n      dup2\n      mstore\n      0x20\n      add\n      0x00\n      keccak256\n        /* \"contracts/artifacts/stake.sol\":10139:10188  Position storage position = positions[positionId] */\n      swap1\n      pop\n        /* \"contracts/artifacts/stake.sol\":10281:10282  0 */\n      0x00\n        /* \"contracts/artifacts/stake.sol\":10259:10267  position */\n      dup2\n        /* \"contracts/artifacts/stake.sol\":10259:10278  position.positionId */\n      0x00\n      add\n      sload\n        /* \"contracts/artifacts/stake.sol\":10259:10282  position.positionId > 0 */\n      gt\n        /* \"contracts/artifacts/stake.sol\":10251:10306  require(position.positionId > 0, \"Invalid position ID\") */\n      tag_209\n      jumpi\n      mload(0x40)\n      0x08c379a000000000000000000000000000000000000000000000000000000000\n      dup2\n      mstore\n      0x04\n      add\n      tag_210\n      swap1\n      tag_185\n      jump\t// in\n    tag_210:\n      mload(0x40)\n      dup1\n      swap2\n      sub\n      swap1\n      revert\n    tag_209:\n        /* \"contracts/artifacts/stake.sol\":10325:10333  position */\n      dup1\n        /* \"contracts/artifacts/stake.sol\":10325:10338  position.open */\n      0x07\n      add\n      0x00\n      swap1\n      sload\n      swap1\n      0x0100\n      exp\n      swap1\n      div\n      0xff\n      and\n        /* \"contracts/artifacts/stake.sol\":10317:10361  require(position.open, \"Position is closed\") */\n      tag_211\n      jumpi\n      mload(0x40)\n      0x08c379a000000000000000000000000000000000000000000000000000000000\n      dup2\n      mstore\n      0x04\n      add\n      tag_212\n      swap1\n      tag_213\n      jump\t// in\n    tag_212:\n      mload(0x40)\n      dup1\n      swap2\n      sub\n      swap1\n      revert\n    tag_211:\n        /* \"contracts/artifacts/stake.sol\":10481:10491  msg.sender */\n      caller\n        /* \"contracts/artifacts/stake.sol\":10455:10491  position.walletAddress == msg.sender */\n      0xffffffffffffffffffffffffffffffffffffffff\n      and\n        /* \"contracts/artifacts/stake.sol\":10455:10463  position */\n      dup2\n        /* \"contracts/artifacts/stake.sol\":10455:10477  position.walletAddress */\n      0x01\n      add\n      0x00\n      swap1\n      sload\n      swap1\n      0x0100\n      exp\n      swap1\n      div\n      0xffffffffffffffffffffffffffffffffffffffff\n      and\n        /* \"contracts/artifacts/stake.sol\":10455:10491  position.walletAddress == msg.sender */\n      0xffffffffffffffffffffffffffffffffffffffff\n      and\n      eq\n        /* \"contracts/artifacts/stake.sol\":10433:10557  require(... */\n      tag_214\n      jumpi\n      mload(0x40)\n      0x08c379a000000000000000000000000000000000000000000000000000000000\n      dup2\n      mstore\n      0x04\n      add\n      tag_215\n      swap1\n      tag_216\n      jump\t// in\n    tag_215:\n      mload(0x40)\n      dup1\n      swap2\n      sub\n      swap1\n      revert\n    tag_214:\n        /* \"contracts/artifacts/stake.sol\":10616:10634  uint256 lockPeriod */\n      0x00\n        /* \"contracts/artifacts/stake.sol\":10697:10703  1 days */\n      0x015180\n        /* \"contracts/artifacts/stake.sol\":10660:10668  position */\n      dup3\n        /* \"contracts/artifacts/stake.sol\":10660:10680  position.createdDate */\n      0x02\n      add\n      sload\n        /* \"contracts/artifacts/stake.sol\":10638:10646  position */\n      dup4\n        /* \"contracts/artifacts/stake.sol\":10638:10657  position.unlockDate */\n      0x03\n      add\n      sload\n        /* \"contracts/artifacts/stake.sol\":10638:10680  position.unlockDate - position.createdDate */\n      tag_217\n      swap2\n      swap1\n      tag_189\n      jump\t// in\n    tag_217:\n        /* \"contracts/artifacts/stake.sol\":10637:10703  (position.unlockDate - position.createdDate) /... */\n      tag_218\n      swap2\n      swap1\n      tag_191\n      jump\t// in\n    tag_218:\n        /* \"contracts/artifacts/stake.sol\":10616:10703  uint256 lockPeriod = (position.unlockDate - position.createdDate) /... */\n      swap1\n      pop\n        /* \"contracts/artifacts/stake.sol\":10800:10804  1000 */\n      0x03e8\n        /* \"contracts/artifacts/stake.sol\":10786:10796  lockPeriod */\n      dup2\n        /* \"contracts/artifacts/stake.sol\":10786:10804  lockPeriod == 1000 */\n      eq\n        /* \"contracts/artifacts/stake.sol\":10764:10891  require(... */\n      tag_219\n      jumpi\n      mload(0x40)\n      0x08c379a000000000000000000000000000000000000000000000000000000000\n      dup2\n      mstore\n      0x04\n      add\n      tag_220\n      swap1\n      tag_221\n      jump\t// in\n    tag_220:\n      mload(0x40)\n      dup1\n      swap2\n      sub\n      swap1\n      revert\n    tag_219:\n        /* \"contracts/artifacts/stake.sol\":10966:10992  uint256 daysSinceLastClaim */\n      0x00\n        /* \"contracts/artifacts/stake.sol\":11055:11061  1 days */\n      0x015180\n        /* \"contracts/artifacts/stake.sol\":11027:11035  position */\n      dup4\n        /* \"contracts/artifacts/stake.sol\":11027:11051  position.lastClaimedDate */\n      0x08\n      add\n      sload\n        /* \"contracts/artifacts/stake.sol\":10996:11011  block.timestamp */\n      timestamp\n        /* \"contracts/artifacts/stake.sol\":10996:11051  block.timestamp -... */\n      tag_222\n      swap2\n      swap1\n      tag_189\n      jump\t// in\n    tag_222:\n        /* \"contracts/artifacts/stake.sol\":10995:11061  (block.timestamp -... */\n      tag_223\n      swap2\n      swap1\n      tag_191\n      jump\t// in\n    tag_223:\n        /* \"contracts/artifacts/stake.sol\":10966:11061  uint256 daysSinceLastClaim = (block.timestamp -... */\n      swap1\n      pop\n        /* \"contracts/artifacts/stake.sol\":11171:11172  0 */\n      0x00\n        /* \"contracts/artifacts/stake.sol\":11150:11168  daysSinceLastClaim */\n      dup2\n        /* \"contracts/artifacts/stake.sol\":11150:11172  daysSinceLastClaim > 0 */\n      gt\n        /* \"contracts/artifacts/stake.sol\":11142:11213  require(daysSinceLastClaim > 0, \"Can only claim interest once per day\") */\n      tag_224\n      jumpi\n      mload(0x40)\n      0x08c379a000000000000000000000000000000000000000000000000000000000\n      dup2\n      mstore\n      0x04\n      add\n      tag_225\n      swap1\n      tag_226\n      jump\t// in\n    tag_225:\n      mload(0x40)\n      dup1\n      swap2\n      sub\n      swap1\n      revert\n    tag_224:\n        /* \"contracts/artifacts/stake.sol\":11289:11314  uint256 dailyInterestRate */\n      0x00\n        /* \"contracts/artifacts/stake.sol\":11337:11347  lockPeriod */\n      dup3\n        /* \"contracts/artifacts/stake.sol\":11317:11322  tiers */\n      0x08\n        /* \"contracts/artifacts/stake.sol\":11317:11334  tiers[lockPeriod] */\n      0x00\n        /* \"contracts/artifacts/stake.sol\":11323:11333  lockPeriod */\n      dup6\n        /* \"contracts/artifacts/stake.sol\":11317:11334  tiers[lockPeriod] */\n      dup2\n      mstore\n      0x20\n      add\n      swap1\n      dup2\n      mstore\n      0x20\n      add\n      0x00\n      keccak256\n      sload\n        /* \"contracts/artifacts/stake.sol\":11317:11347  tiers[lockPeriod] / lockPeriod */\n      tag_227\n      swap2\n      swap1\n      tag_191\n      jump\t// in\n    tag_227:\n        /* \"contracts/artifacts/stake.sol\":11289:11347  uint256 dailyInterestRate = tiers[lockPeriod] / lockPeriod */\n      swap1\n      pop\n        /* \"contracts/artifacts/stake.sol\":11409:11432  uint256 interestToClaim */\n      0x00\n        /* \"contracts/artifacts/stake.sol\":11525:11530  10000 */\n      0x2710\n        /* \"contracts/artifacts/stake.sol\":11503:11521  daysSinceLastClaim */\n      dup4\n        /* \"contracts/artifacts/stake.sol\":11469:11477  position */\n      dup7\n        /* \"contracts/artifacts/stake.sol\":11469:11487  position.weiStaked */\n      0x05\n      add\n      sload\n        /* \"contracts/artifacts/stake.sol\":11436:11453  dailyInterestRate */\n      dup5\n        /* \"contracts/artifacts/stake.sol\":11436:11487  dailyInterestRate *... */\n      tag_228\n      swap2\n      swap1\n      tag_229\n      jump\t// in\n    tag_228:\n        /* \"contracts/artifacts/stake.sol\":11436:11521  dailyInterestRate *... */\n      tag_230\n      swap2\n      swap1\n      tag_229\n      jump\t// in\n    tag_230:\n        /* \"contracts/artifacts/stake.sol\":11435:11530  (dailyInterestRate *... */\n      tag_231\n      swap2\n      swap1\n      tag_191\n      jump\t// in\n    tag_231:\n        /* \"contracts/artifacts/stake.sol\":11409:11530  uint256 interestToClaim = (dailyInterestRate *... */\n      swap1\n      pop\n        /* \"contracts/artifacts/stake.sol\":11611:11626  block.timestamp */\n      timestamp\n        /* \"contracts/artifacts/stake.sol\":11584:11592  position */\n      dup6\n        /* \"contracts/artifacts/stake.sol\":11584:11608  position.lastClaimedDate */\n      0x08\n      add\n        /* \"contracts/artifacts/stake.sol\":11584:11626  position.lastClaimedDate = block.timestamp */\n      dup2\n      swap1\n      sstore\n      pop\n        /* \"contracts/artifacts/stake.sol\":11732:11737  token */\n      0x01\n      0x00\n      swap1\n      sload\n      swap1\n      0x0100\n      exp\n      swap1\n      div\n      0xffffffffffffffffffffffffffffffffffffffff\n      and\n        /* \"contracts/artifacts/stake.sol\":11732:11746  token.transfer */\n      0xffffffffffffffffffffffffffffffffffffffff\n      and\n      0xa9059cbb\n        /* \"contracts/artifacts/stake.sol\":11747:11757  msg.sender */\n      caller\n        /* \"contracts/artifacts/stake.sol\":11759:11774  interestToClaim */\n      dup4\n        /* \"contracts/artifacts/stake.sol\":11732:11775  token.transfer(msg.sender, interestToClaim) */\n      mload(0x40)\n      dup4\n      0xffffffff\n      and\n      0xe0\n      shl\n      dup2\n      mstore\n      0x04\n      add\n      tag_232\n      swap3\n      swap2\n      swap1\n      tag_233\n      jump\t// in\n    tag_232:\n      0x20\n      mload(0x40)\n      dup1\n      dup4\n      sub\n      dup2\n      0x00\n      dup8\n      gas\n      call\n      iszero\n      dup1\n      iszero\n      tag_235\n      jumpi\n      returndatasize\n      0x00\n      dup1\n      returndatacopy\n      revert(0x00, returndatasize)\n    tag_235:\n      pop\n      pop\n      pop\n      pop\n      mload(0x40)\n      returndatasize\n      not(0x1f)\n      0x1f\n      dup3\n      add\n      and\n      dup3\n      add\n      dup1\n      0x40\n      mstore\n      pop\n      dup2\n      add\n      swap1\n      tag_236\n      swap2\n      swap1\n      tag_237\n      jump\t// in\n    tag_236:\n        /* \"contracts/artifacts/stake.sol\":11710:11827  require(... */\n      tag_238\n      jumpi\n      mload(0x40)\n      0x08c379a000000000000000000000000000000000000000000000000000000000\n      dup2\n      mstore\n      0x04\n      add\n      tag_239\n      swap1\n      tag_240\n      jump\t// in\n    tag_239:\n      mload(0x40)\n      dup1\n      swap2\n      sub\n      swap1\n      revert\n    tag_238:\n        /* \"contracts/artifacts/stake.sol\":10128:11835  {... */\n      pop\n      pop\n      pop\n      pop\n      pop\n        /* \"contracts/artifacts/stake.sol\":10071:11835  function claimDailyInterest(uint256 positionId) external {... */\n      pop\n      jump\t// out\n        /* \"contracts/artifacts/stake.sol\":8359:8885  function claimDirectReferralIncome() external {... */\n    tag_100:\n        /* \"contracts/artifacts/stake.sol\":8416:8430  uint256 amount */\n      0x00\n        /* \"contracts/artifacts/stake.sol\":8433:8453  directReferralIncome */\n      0x0c\n        /* \"contracts/artifacts/stake.sol\":8433:8465  directReferralIncome[msg.sender] */\n      0x00\n        /* \"contracts/artifacts/stake.sol\":8454:8464  msg.sender */\n      caller\n        /* \"contracts/artifacts/stake.sol\":8433:8465  directReferralIncome[msg.sender] */\n      0xffffffffffffffffffffffffffffffffffffffff\n      and\n      0xffffffffffffffffffffffffffffffffffffffff\n      and\n      dup2\n      mstore\n      0x20\n      add\n      swap1\n      dup2\n      mstore\n      0x20\n      add\n      0x00\n      keccak256\n      sload\n        /* \"contracts/artifacts/stake.sol\":8416:8465  uint256 amount = directReferralIncome[msg.sender] */\n      swap1\n      pop\n        /* \"contracts/artifacts/stake.sol\":8539:8540  0 */\n      0x00\n        /* \"contracts/artifacts/stake.sol\":8530:8536  amount */\n      dup2\n        /* \"contracts/artifacts/stake.sol\":8530:8540  amount > 0 */\n      gt\n        /* \"contracts/artifacts/stake.sol\":8522:8579  require(amount > 0, \"No direct referral income to claim\") */\n      tag_242\n      jumpi\n      mload(0x40)\n      0x08c379a000000000000000000000000000000000000000000000000000000000\n      dup2\n      mstore\n      0x04\n      add\n      tag_243\n      swap1\n      tag_244\n      jump\t// in\n    tag_243:\n      mload(0x40)\n      dup1\n      swap2\n      sub\n      swap1\n      revert\n    tag_242:\n        /* \"contracts/artifacts/stake.sol\":8687:8688  0 */\n      0x00\n        /* \"contracts/artifacts/stake.sol\":8652:8672  directReferralIncome */\n      0x0c\n        /* \"contracts/artifacts/stake.sol\":8652:8684  directReferralIncome[msg.sender] */\n      0x00\n        /* \"contracts/artifacts/stake.sol\":8673:8683  msg.sender */\n      caller\n        /* \"contracts/artifacts/stake.sol\":8652:8684  directReferralIncome[msg.sender] */\n      0xffffffffffffffffffffffffffffffffffffffff\n      and\n      0xffffffffffffffffffffffffffffffffffffffff\n      and\n      dup2\n      mstore\n      0x20\n      add\n      swap1\n      dup2\n      mstore\n      0x20\n      add\n      0x00\n      keccak256\n        /* \"contracts/artifacts/stake.sol\":8652:8688  directReferralIncome[msg.sender] = 0 */\n      dup2\n      swap1\n      sstore\n      pop\n        /* \"contracts/artifacts/stake.sol\":8777:8782  token */\n      0x01\n      0x00\n      swap1\n      sload\n      swap1\n      0x0100\n      exp\n      swap1\n      div\n      0xffffffffffffffffffffffffffffffffffffffff\n      and\n        /* \"contracts/artifacts/stake.sol\":8777:8791  token.transfer */\n      0xffffffffffffffffffffffffffffffffffffffff\n      and\n      0xa9059cbb\n        /* \"contracts/artifacts/stake.sol\":8792:8802  msg.sender */\n      caller\n        /* \"contracts/artifacts/stake.sol\":8804:8810  amount */\n      dup4\n        /* \"contracts/artifacts/stake.sol\":8777:8811  token.transfer(msg.sender, amount) */\n      mload(0x40)\n      dup4\n      0xffffffff\n      and\n      0xe0\n      shl\n      dup2\n      mstore\n      0x04\n      add\n      tag_245\n      swap3\n      swap2\n      swap1\n      tag_233\n      jump\t// in\n    tag_245:\n      0x20\n      mload(0x40)\n      dup1\n      dup4\n      sub\n      dup2\n      0x00\n      dup8\n      gas\n      call\n      iszero\n      dup1\n      iszero\n      tag_247\n      jumpi\n      returndatasize\n      0x00\n      dup1\n      returndatacopy\n      revert(0x00, returndatasize)\n    tag_247:\n      pop\n      pop\n      pop\n      pop\n      mload(0x40)\n      returndatasize\n      not(0x1f)\n      0x1f\n      dup3\n      add\n      and\n      dup3\n      add\n      dup1\n      0x40\n      mstore\n      pop\n      dup2\n      add\n      swap1\n      tag_248\n      swap2\n      swap1\n      tag_237\n      jump\t// in\n    tag_248:\n        /* \"contracts/artifacts/stake.sol\":8755:8877  require(... */\n      tag_249\n      jumpi\n      mload(0x40)\n      0x08c379a000000000000000000000000000000000000000000000000000000000\n      dup2\n      mstore\n      0x04\n      add\n      tag_250\n      swap1\n      tag_251\n      jump\t// in\n    tag_250:\n      mload(0x40)\n      dup1\n      swap2\n      sub\n      swap1\n      revert\n    tag_249:\n        /* \"contracts/artifacts/stake.sol\":8405:8885  {... */\n      pop\n        /* \"contracts/artifacts/stake.sol\":8359:8885  function claimDirectReferralIncome() external {... */\n      jump\t// out\n        /* \"contracts/artifacts/stake.sol\":17151:17391  function withdrawAll() external onlyOwner {... */\n    tag_102:\n        /* \"contracts/artifacts/stake.sol\":2796:2801  owner */\n      0x00\n      dup1\n      sload\n      swap1\n      0x0100\n      exp\n      swap1\n      div\n      0xffffffffffffffffffffffffffffffffffffffff\n      and\n        /* \"contracts/artifacts/stake.sol\":2782:2801  msg.sender == owner */\n      0xffffffffffffffffffffffffffffffffffffffff\n      and\n        /* \"contracts/artifacts/stake.sol\":2782:2792  msg.sender */\n      caller\n        /* \"contracts/artifacts/stake.sol\":2782:2801  msg.sender == owner */\n      0xffffffffffffffffffffffffffffffffffffffff\n      and\n      eq\n        /* \"contracts/artifacts/stake.sol\":2774:2843  require(msg.sender == owner, \"Only the owner can call this function\") */\n      tag_253\n      jumpi\n      mload(0x40)\n      0x08c379a000000000000000000000000000000000000000000000000000000000\n      dup2\n      mstore\n      0x04\n      add\n      tag_254\n      swap1\n      tag_255\n      jump\t// in\n    tag_254:\n      mload(0x40)\n      dup1\n      swap2\n      sub\n      swap1\n      revert\n    tag_253:\n        /* \"contracts/artifacts/stake.sol\":17204:17219  uint256 balance */\n      0x00\n        /* \"contracts/artifacts/stake.sol\":17222:17227  token */\n      0x01\n      0x00\n      swap1\n      sload\n      swap1\n      0x0100\n      exp\n      swap1\n      div\n      0xffffffffffffffffffffffffffffffffffffffff\n      and\n        /* \"contracts/artifacts/stake.sol\":17222:17237  token.balanceOf */\n      0xffffffffffffffffffffffffffffffffffffffff\n      and\n      0x70a08231\n        /* \"contracts/artifacts/stake.sol\":17246:17250  this */\n      address\n        /* \"contracts/artifacts/stake.sol\":17222:17252  token.balanceOf(address(this)) */\n      mload(0x40)\n      dup3\n      0xffffffff\n      and\n      0xe0\n      shl\n      dup2\n      mstore\n      0x04\n      add\n      tag_257\n      swap2\n      swap1\n      tag_109\n      jump\t// in\n    tag_257:\n      0x20\n      mload(0x40)\n      dup1\n      dup4\n      sub\n      dup2\n      dup7\n      gas\n      staticcall\n      iszero\n      dup1\n      iszero\n      tag_259\n      jumpi\n      returndatasize\n      0x00\n      dup1\n      returndatacopy\n      revert(0x00, returndatasize)\n    tag_259:\n      pop\n      pop\n      pop\n      pop\n      mload(0x40)\n      returndatasize\n      not(0x1f)\n      0x1f\n      dup3\n      add\n      and\n      dup3\n      add\n      dup1\n      0x40\n      mstore\n      pop\n      dup2\n      add\n      swap1\n      tag_260\n      swap2\n      swap1\n      tag_261\n      jump\t// in\n    tag_260:\n        /* \"contracts/artifacts/stake.sol\":17204:17252  uint256 balance = token.balanceOf(address(this)) */\n      swap1\n      pop\n        /* \"contracts/artifacts/stake.sol\":17281:17282  0 */\n      0x00\n        /* \"contracts/artifacts/stake.sol\":17271:17278  balance */\n      dup2\n        /* \"contracts/artifacts/stake.sol\":17271:17282  balance > 0 */\n      gt\n        /* \"contracts/artifacts/stake.sol\":17263:17308  require(balance > 0, \"No tokens to withdraw\") */\n      tag_262\n      jumpi\n      mload(0x40)\n      0x08c379a000000000000000000000000000000000000000000000000000000000\n      dup2\n      mstore\n      0x04\n      add\n      tag_263\n      swap1\n      tag_264\n      jump\t// in\n    tag_263:\n      mload(0x40)\n      dup1\n      swap2\n      sub\n      swap1\n      revert\n    tag_262:\n        /* \"contracts/artifacts/stake.sol\":17327:17332  token */\n      0x01\n      0x00\n      swap1\n      sload\n      swap1\n      0x0100\n      exp\n      swap1\n      div\n      0xffffffffffffffffffffffffffffffffffffffff\n      and\n        /* \"contracts/artifacts/stake.sol\":17327:17341  token.transfer */\n      0xffffffffffffffffffffffffffffffffffffffff\n      and\n      0xa9059cbb\n        /* \"contracts/artifacts/stake.sol\":17342:17347  owner */\n      0x00\n      dup1\n      sload\n      swap1\n      0x0100\n      exp\n      swap1\n      div\n      0xffffffffffffffffffffffffffffffffffffffff\n      and\n        /* \"contracts/artifacts/stake.sol\":17349:17356  balance */\n      dup4\n        /* \"contracts/artifacts/stake.sol\":17327:17357  token.transfer(owner, balance) */\n      mload(0x40)\n      dup4\n      0xffffffff\n      and\n      0xe0\n      shl\n      dup2\n      mstore\n      0x04\n      add\n      tag_265\n      swap3\n      swap2\n      swap1\n      tag_233\n      jump\t// in\n    tag_265:\n      0x20\n      mload(0x40)\n      dup1\n      dup4\n      sub\n      dup2\n      0x00\n      dup8\n      gas\n      call\n      iszero\n      dup1\n      iszero\n      tag_267\n      jumpi\n      returndatasize\n      0x00\n      dup1\n      returndatacopy\n      revert(0x00, returndatasize)\n    tag_267:\n      pop\n      pop\n      pop\n      pop\n      mload(0x40)\n      returndatasize\n      not(0x1f)\n      0x1f\n      dup3\n      add\n      and\n      dup3\n      add\n      dup1\n      0x40\n      mstore\n      pop\n      dup2\n      add\n      swap1\n      tag_268\n      swap2\n      swap1\n      tag_237\n      jump\t// in\n    tag_268:\n        /* \"contracts/artifacts/stake.sol\":17319:17383  require(token.transfer(owner, balance), \"Token transfer failed\") */\n      tag_269\n      jumpi\n      mload(0x40)\n      0x08c379a000000000000000000000000000000000000000000000000000000000\n      dup2\n      mstore\n      0x04\n      add\n      tag_270\n      swap1\n      tag_271\n      jump\t// in\n    tag_270:\n      mload(0x40)\n      dup1\n      swap2\n      sub\n      swap1\n      revert\n    tag_269:\n        /* \"contracts/artifacts/stake.sol\":17193:17391  {... */\n      pop\n        /* \"contracts/artifacts/stake.sol\":17151:17391  function withdrawAll() external onlyOwner {... */\n      jump\t// out\n        /* \"contracts/artifacts/stake.sol\":16958:17073  function contractBalance() external view returns (uint256) {... */\n    tag_104:\n        /* \"contracts/artifacts/stake.sol\":17008:17015  uint256 */\n      0x00\n        /* \"contracts/artifacts/stake.sol\":17035:17040  token */\n      0x01\n      0x00\n      swap1\n      sload\n      swap1\n      0x0100\n      exp\n      swap1\n      div\n      0xffffffffffffffffffffffffffffffffffffffff\n      and\n        /* \"contracts/artifacts/stake.sol\":17035:17050  token.balanceOf */\n      0xffffffffffffffffffffffffffffffffffffffff\n      and\n      0x70a08231\n        /* \"contracts/artifacts/stake.sol\":17059:17063  this */\n      address\n        /* \"contracts/artifacts/stake.sol\":17035:17065  token.balanceOf(address(this)) */\n      mload(0x40)\n      dup3\n      0xffffffff\n      and\n      0xe0\n      shl\n      dup2\n      mstore\n      0x04\n      add\n      tag_273\n      swap2\n      swap1\n      tag_109\n      jump\t// in\n    tag_273:\n      0x20\n      mload(0x40)\n      dup1\n      dup4\n      sub\n      dup2\n      dup7\n      gas\n      staticcall\n      iszero\n      dup1\n      iszero\n      tag_275\n      jumpi\n      returndatasize\n      0x00\n      dup1\n      returndatacopy\n      revert(0x00, returndatasize)\n    tag_275:\n      pop\n      pop\n      pop\n      pop\n      mload(0x40)\n      returndatasize\n      not(0x1f)\n      0x1f\n      dup3\n      add\n      and\n      dup3\n      add\n      dup1\n      0x40\n      mstore\n      pop\n      dup2\n      add\n      swap1\n      tag_276\n      swap2\n      swap1\n      tag_261\n      jump\t// in\n    tag_276:\n        /* \"contracts/artifacts/stake.sol\":17028:17065  return token.balanceOf(address(this)) */\n      swap1\n      pop\n        /* \"contracts/artifacts/stake.sol\":16958:17073  function contractBalance() external view returns (uint256) {... */\n      swap1\n      jump\t// out\n        /* \"contracts/artifacts/stake.sol\":586:606  address public owner */\n    tag_107:\n      0x00\n      dup1\n      sload\n      swap1\n      0x0100\n      exp\n      swap1\n      div\n      0xffffffffffffffffffffffffffffffffffffffff\n      and\n      dup2\n      jump\t// out\n        /* \"contracts/artifacts/stake.sol\":1661:1706  mapping(uint256 => Position) public positions */\n    tag_112:\n      mstore(0x20, 0x06)\n      dup1\n      0x00\n      mstore\n      keccak256(0x00, 0x40)\n      0x00\n      swap2\n      pop\n      swap1\n      pop\n      dup1\n      0x00\n      add\n      sload\n      swap1\n      dup1\n      0x01\n      add\n      0x00\n      swap1\n      sload\n      swap1\n      0x0100\n      exp\n      swap1\n      div\n      0xffffffffffffffffffffffffffffffffffffffff\n      and\n      swap1\n      dup1\n      0x02\n      add\n      sload\n      swap1\n      dup1\n      0x03\n      add\n      sload\n      swap1\n      dup1\n      0x04\n      add\n      sload\n      swap1\n      dup1\n      0x05\n      add\n      sload\n      swap1\n      dup1\n      0x06\n      add\n      sload\n      swap1\n      dup1\n      0x07\n      add\n      0x00\n      swap1\n      sload\n      swap1\n      0x0100\n      exp\n      swap1\n      div\n      0xff\n      and\n      swap1\n      dup1\n      0x08\n      add\n      sload\n      swap1\n      pop\n      dup10\n      jump\t// out\n        /* \"contracts/artifacts/stake.sol\":1502:1529  uint256 public currentLevel */\n    tag_116:\n      sload(0x04)\n      dup2\n      jump\t// out\n        /* \"contracts/artifacts/stake.sol\":13182:14594  function closePosition(uint256 positionId) external {... */\n    tag_120:\n        /* \"contracts/artifacts/stake.sol\":13245:13270  Position storage position */\n      0x00\n        /* \"contracts/artifacts/stake.sol\":13273:13282  positions */\n      0x06\n        /* \"contracts/artifacts/stake.sol\":13273:13294  positions[positionId] */\n      0x00\n        /* \"contracts/artifacts/stake.sol\":13283:13293  positionId */\n      dup4\n        /* \"contracts/artifacts/stake.sol\":13273:13294  positions[positionId] */\n      dup2\n      mstore\n      0x20\n      add\n      swap1\n      dup2\n      mstore\n      0x20\n      add\n      0x00\n      keccak256\n        /* \"contracts/artifacts/stake.sol\":13245:13294  Position storage position = positions[positionId] */\n      swap1\n      pop\n        /* \"contracts/artifacts/stake.sol\":13357:13365  position */\n      dup1\n        /* \"contracts/artifacts/stake.sol\":13357:13370  position.open */\n      0x07\n      add\n      0x00\n      swap1\n      sload\n      swap1\n      0x0100\n      exp\n      swap1\n      div\n      0xff\n      and\n        /* \"contracts/artifacts/stake.sol\":13349:13401  require(position.open, \"Position is already closed\") */\n      tag_278\n      jumpi\n      mload(0x40)\n      0x08c379a000000000000000000000000000000000000000000000000000000000\n      dup2\n      mstore\n      0x04\n      add\n      tag_279\n      swap1\n      tag_280\n      jump\t// in\n    tag_279:\n      mload(0x40)\n      dup1\n      swap2\n      sub\n      swap1\n      revert\n    tag_278:\n        /* \"contracts/artifacts/stake.sol\":13529:13534  owner */\n      0x00\n      dup1\n      sload\n      swap1\n      0x0100\n      exp\n      swap1\n      div\n      0xffffffffffffffffffffffffffffffffffffffff\n      and\n        /* \"contracts/artifacts/stake.sol\":13515:13534  msg.sender == owner */\n      0xffffffffffffffffffffffffffffffffffffffff\n      and\n        /* \"contracts/artifacts/stake.sol\":13515:13525  msg.sender */\n      caller\n        /* \"contracts/artifacts/stake.sol\":13515:13534  msg.sender == owner */\n      0xffffffffffffffffffffffffffffffffffffffff\n      and\n      eq\n        /* \"contracts/artifacts/stake.sol\":13515:13574  msg.sender == owner || msg.sender == position.walletAddress */\n      dup1\n      tag_281\n      jumpi\n      pop\n        /* \"contracts/artifacts/stake.sol\":13552:13560  position */\n      dup1\n        /* \"contracts/artifacts/stake.sol\":13552:13574  position.walletAddress */\n      0x01\n      add\n      0x00\n      swap1\n      sload\n      swap1\n      0x0100\n      exp\n      swap1\n      div\n      0xffffffffffffffffffffffffffffffffffffffff\n      and\n        /* \"contracts/artifacts/stake.sol\":13538:13574  msg.sender == position.walletAddress */\n      0xffffffffffffffffffffffffffffffffffffffff\n      and\n        /* \"contracts/artifacts/stake.sol\":13538:13548  msg.sender */\n      caller\n        /* \"contracts/artifacts/stake.sol\":13538:13574  msg.sender == position.walletAddress */\n      0xffffffffffffffffffffffffffffffffffffffff\n      and\n      eq\n        /* \"contracts/artifacts/stake.sol\":13515:13574  msg.sender == owner || msg.sender == position.walletAddress */\n    tag_281:\n        /* \"contracts/artifacts/stake.sol\":13493:13614  require(... */\n      tag_282\n      jumpi\n      mload(0x40)\n      0x08c379a000000000000000000000000000000000000000000000000000000000\n      dup2\n      mstore\n      0x04\n      add\n      tag_283\n      swap1\n      tag_284\n      jump\t// in\n    tag_283:\n      mload(0x40)\n      dup1\n      swap2\n      sub\n      swap1\n      revert\n    tag_282:\n        /* \"contracts/artifacts/stake.sol\":13716:13724  position */\n      dup1\n        /* \"contracts/artifacts/stake.sol\":13716:13735  position.unlockDate */\n      0x03\n      add\n      sload\n        /* \"contracts/artifacts/stake.sol\":13697:13712  block.timestamp */\n      timestamp\n        /* \"contracts/artifacts/stake.sol\":13697:13735  block.timestamp >= position.unlockDate */\n      lt\n      iszero\n        /* \"contracts/artifacts/stake.sol\":13675:13786  require(... */\n      tag_285\n      jumpi\n      mload(0x40)\n      0x08c379a000000000000000000000000000000000000000000000000000000000\n      dup2\n      mstore\n      0x04\n      add\n      tag_286\n      swap1\n      tag_287\n      jump\t// in\n    tag_286:\n      mload(0x40)\n      dup1\n      swap2\n      sub\n      swap1\n      revert\n    tag_285:\n        /* \"contracts/artifacts/stake.sol\":13890:13895  token */\n      0x01\n      0x00\n      swap1\n      sload\n      swap1\n      0x0100\n      exp\n      swap1\n      div\n      0xffffffffffffffffffffffffffffffffffffffff\n      and\n        /* \"contracts/artifacts/stake.sol\":13890:13904  token.transfer */\n      0xffffffffffffffffffffffffffffffffffffffff\n      and\n      0xa9059cbb\n        /* \"contracts/artifacts/stake.sol\":13905:13913  position */\n      dup3\n        /* \"contracts/artifacts/stake.sol\":13905:13927  position.walletAddress */\n      0x01\n      add\n      0x00\n      swap1\n      sload\n      swap1\n      0x0100\n      exp\n      swap1\n      div\n      0xffffffffffffffffffffffffffffffffffffffff\n      and\n        /* \"contracts/artifacts/stake.sol\":13929:13937  position */\n      dup4\n        /* \"contracts/artifacts/stake.sol\":13929:13947  position.weiStaked */\n      0x05\n      add\n      sload\n        /* \"contracts/artifacts/stake.sol\":13890:13948  token.transfer(position.walletAddress, position.weiStaked) */\n      mload(0x40)\n      dup4\n      0xffffffff\n      and\n      0xe0\n      shl\n      dup2\n      mstore\n      0x04\n      add\n      tag_288\n      swap3\n      swap2\n      swap1\n      tag_233\n      jump\t// in\n    tag_288:\n      0x20\n      mload(0x40)\n      dup1\n      dup4\n      sub\n      dup2\n      0x00\n      dup8\n      gas\n      call\n      iszero\n      dup1\n      iszero\n      tag_290\n      jumpi\n      returndatasize\n      0x00\n      dup1\n      returndatacopy\n      revert(0x00, returndatasize)\n    tag_290:\n      pop\n      pop\n      pop\n      pop\n      mload(0x40)\n      returndatasize\n      not(0x1f)\n      0x1f\n      dup3\n      add\n      and\n      dup3\n      add\n      dup1\n      0x40\n      mstore\n      pop\n      dup2\n      add\n      swap1\n      tag_291\n      swap2\n      swap1\n      tag_237\n      jump\t// in\n    tag_291:\n        /* \"contracts/artifacts/stake.sol\":13868:13997  require(... */\n      tag_292\n      jumpi\n      mload(0x40)\n      0x08c379a000000000000000000000000000000000000000000000000000000000\n      dup2\n      mstore\n      0x04\n      add\n      tag_293\n      swap1\n      tag_271\n      jump\t// in\n    tag_293:\n      mload(0x40)\n      dup1\n      swap2\n      sub\n      swap1\n      revert\n    tag_292:\n        /* \"contracts/artifacts/stake.sol\":14112:14113  0 */\n      0x00\n        /* \"contracts/artifacts/stake.sol\":14089:14097  position */\n      dup2\n        /* \"contracts/artifacts/stake.sol\":14089:14109  position.weiInterest */\n      0x06\n      add\n      sload\n        /* \"contracts/artifacts/stake.sol\":14089:14113  position.weiInterest > 0 */\n      gt\n        /* \"contracts/artifacts/stake.sol\":14085:14288  if (position.weiInterest > 0) {... */\n      iszero\n      tag_294\n      jumpi\n        /* \"contracts/artifacts/stake.sol\":14156:14161  token */\n      0x01\n      0x00\n      swap1\n      sload\n      swap1\n      0x0100\n      exp\n      swap1\n      div\n      0xffffffffffffffffffffffffffffffffffffffff\n      and\n        /* \"contracts/artifacts/stake.sol\":14156:14170  token.transfer */\n      0xffffffffffffffffffffffffffffffffffffffff\n      and\n      0xa9059cbb\n        /* \"contracts/artifacts/stake.sol\":14171:14179  position */\n      dup3\n        /* \"contracts/artifacts/stake.sol\":14171:14193  position.walletAddress */\n      0x01\n      add\n      0x00\n      swap1\n      sload\n      swap1\n      0x0100\n      exp\n      swap1\n      div\n      0xffffffffffffffffffffffffffffffffffffffff\n      and\n        /* \"contracts/artifacts/stake.sol\":14195:14203  position */\n      dup4\n        /* \"contracts/artifacts/stake.sol\":14195:14215  position.weiInterest */\n      0x06\n      add\n      sload\n        /* \"contracts/artifacts/stake.sol\":14156:14216  token.transfer(position.walletAddress, position.weiInterest) */\n      mload(0x40)\n      dup4\n      0xffffffff\n      and\n      0xe0\n      shl\n      dup2\n      mstore\n      0x04\n      add\n      tag_295\n      swap3\n      swap2\n      swap1\n      tag_233\n      jump\t// in\n    tag_295:\n      0x20\n      mload(0x40)\n      dup1\n      dup4\n      sub\n      dup2\n      0x00\n      dup8\n      gas\n      call\n      iszero\n      dup1\n      iszero\n      tag_297\n      jumpi\n      returndatasize\n      0x00\n      dup1\n      returndatacopy\n      revert(0x00, returndatasize)\n    tag_297:\n      pop\n      pop\n      pop\n      pop\n      mload(0x40)\n      returndatasize\n      not(0x1f)\n      0x1f\n      dup3\n      add\n      and\n      dup3\n      add\n      dup1\n      0x40\n      mstore\n      pop\n      dup2\n      add\n      swap1\n      tag_298\n      swap2\n      swap1\n      tag_237\n      jump\t// in\n    tag_298:\n        /* \"contracts/artifacts/stake.sol\":14130:14276  require(... */\n      tag_299\n      jumpi\n      mload(0x40)\n      0x08c379a000000000000000000000000000000000000000000000000000000000\n      dup2\n      mstore\n      0x04\n      add\n      tag_300\n      swap1\n      tag_240\n      jump\t// in\n    tag_300:\n      mload(0x40)\n      dup1\n      swap2\n      sub\n      swap1\n      revert\n    tag_299:\n        /* \"contracts/artifacts/stake.sol\":14085:14288  if (position.weiInterest > 0) {... */\n    tag_294:\n        /* \"contracts/artifacts/stake.sol\":14347:14352  false */\n      0x00\n        /* \"contracts/artifacts/stake.sol\":14331:14339  position */\n      dup2\n        /* \"contracts/artifacts/stake.sol\":14331:14344  position.open */\n      0x07\n      add\n      0x00\n        /* \"contracts/artifacts/stake.sol\":14331:14352  position.open = false */\n      0x0100\n      exp\n      dup2\n      sload\n      dup2\n      0xff\n      mul\n      not\n      and\n      swap1\n      dup4\n      iszero\n      iszero\n      mul\n      or\n      swap1\n      sstore\n      pop\n        /* \"contracts/artifacts/stake.sol\":14435:14445  positionId */\n      dup2\n        /* \"contracts/artifacts/stake.sol\":14420:14446  PositionClosed(positionId) */\n      0xbf542298705ed6fd22ddf94ee2db731ced9191396e6e7f7b6862803555f9ff21\n      mload(0x40)\n      mload(0x40)\n      dup1\n      swap2\n      sub\n      swap1\n      log2\n        /* \"contracts/artifacts/stake.sol\":14522:14546  positionHistoryByAddress */\n      0x05\n        /* \"contracts/artifacts/stake.sol\":14522:14558  positionHistoryByAddress[msg.sender] */\n      0x00\n        /* \"contracts/artifacts/stake.sol\":14547:14557  msg.sender */\n      caller\n        /* \"contracts/artifacts/stake.sol\":14522:14558  positionHistoryByAddress[msg.sender] */\n      0xffffffffffffffffffffffffffffffffffffffff\n      and\n      0xffffffffffffffffffffffffffffffffffffffff\n      and\n      dup2\n      mstore\n      0x20\n      add\n      swap1\n      dup2\n      mstore\n      0x20\n      add\n      0x00\n      keccak256\n        /* \"contracts/artifacts/stake.sol\":14564:14573  positions */\n      0x06\n        /* \"contracts/artifacts/stake.sol\":14564:14585  positions[positionId] */\n      0x00\n        /* \"contracts/artifacts/stake.sol\":14574:14584  positionId */\n      dup5\n        /* \"contracts/artifacts/stake.sol\":14564:14585  positions[positionId] */\n      dup2\n      mstore\n      0x20\n      add\n      swap1\n      dup2\n      mstore\n      0x20\n      add\n      0x00\n      keccak256\n        /* \"contracts/artifacts/stake.sol\":14522:14586  positionHistoryByAddress[msg.sender].push(positions[positionId]) */\n      swap1\n      dup1\n      0x01\n      dup2\n      sload\n      add\n      dup1\n      dup3\n      sstore\n      dup1\n      swap2\n      pop\n      pop\n      0x01\n      swap1\n      sub\n      swap1\n      0x00\n      mstore\n      keccak256(0x00, 0x20)\n      swap1\n      0x09\n      mul\n      add\n      0x00\n      swap1\n      swap2\n      swap1\n      swap2\n      swap1\n      swap2\n      pop\n      0x00\n      dup3\n      add\n      sload\n      dup2\n      0x00\n      add\n      sstore\n      0x01\n      dup3\n      add\n      0x00\n      swap1\n      sload\n      swap1\n      0x0100\n      exp\n      swap1\n      div\n      0xffffffffffffffffffffffffffffffffffffffff\n      and\n      dup2\n      0x01\n      add\n      exp(0x0100, 0x00)\n      dup2\n      sload\n      dup2\n      0xffffffffffffffffffffffffffffffffffffffff\n      mul\n      not\n      and\n      swap1\n      dup4\n      0xffffffffffffffffffffffffffffffffffffffff\n      and\n      mul\n      or\n      swap1\n      sstore\n      pop\n      0x02\n      dup3\n      add\n      sload\n      dup2\n      0x02\n      add\n      sstore\n      0x03\n      dup3\n      add\n      sload\n      dup2\n      0x03\n      add\n      sstore\n      0x04\n      dup3\n      add\n      sload\n      dup2\n      0x04\n      add\n      sstore\n      0x05\n      dup3\n      add\n      sload\n      dup2\n      0x05\n      add\n      sstore\n      0x06\n      dup3\n      add\n      sload\n      dup2\n      0x06\n      add\n      sstore\n      0x07\n      dup3\n      add\n      0x00\n      swap1\n      sload\n      swap1\n      0x0100\n      exp\n      swap1\n      div\n      0xff\n      and\n      dup2\n      0x07\n      add\n      exp(0x0100, 0x00)\n      dup2\n      sload\n      dup2\n      0xff\n      mul\n      not\n      and\n      swap1\n      dup4\n      iszero\n      iszero\n      mul\n      or\n      swap1\n      sstore\n      pop\n      0x08\n      dup3\n      add\n      sload\n      dup2\n      0x08\n      add\n      sstore\n      pop\n      pop\n        /* \"contracts/artifacts/stake.sol\":13234:14594  {... */\n      pop\n        /* \"contracts/artifacts/stake.sol\":13182:14594  function closePosition(uint256 positionId) external {... */\n      pop\n      jump\t// out\n        /* \"contracts/artifacts/stake.sol\":2315:2344  uint256 public nextUserId = 1 */\n    tag_122:\n      sload(0x09)\n      dup2\n      jump\t// out\n        /* \"contracts/artifacts/stake.sol\":1592:1654  mapping(address => Position[]) public positionHistoryByAddress */\n    tag_126:\n      mstore(0x20, 0x05)\n      dup2\n      0x00\n      mstore\n      keccak256(0x00, 0x40)\n      dup2\n      dup2\n      sload\n      dup2\n      lt\n      tag_302\n      jumpi\n      0x00\n      dup1\n      revert\n    tag_302:\n      swap1\n      0x00\n      mstore\n      keccak256(0x00, 0x20)\n      swap1\n      0x09\n      mul\n      add\n      0x00\n      swap2\n      pop\n      swap2\n      pop\n      pop\n      dup1\n      0x00\n      add\n      sload\n      swap1\n      dup1\n      0x01\n      add\n      0x00\n      swap1\n      sload\n      swap1\n      0x0100\n      exp\n      swap1\n      div\n      0xffffffffffffffffffffffffffffffffffffffff\n      and\n      swap1\n      dup1\n      0x02\n      add\n      sload\n      swap1\n      dup1\n      0x03\n      add\n      sload\n      swap1\n      dup1\n      0x04\n      add\n      sload\n      swap1\n      dup1\n      0x05\n      add\n      sload\n      swap1\n      dup1\n      0x06\n      add\n      sload\n      swap1\n      dup1\n      0x07\n      add\n      0x00\n      swap1\n      sload\n      swap1\n      0x0100\n      exp\n      swap1\n      div\n      0xff\n      and\n      swap1\n      dup1\n      0x08\n      add\n      sload\n      swap1\n      pop\n      dup10\n      jump\t// out\n        /* \"contracts/artifacts/stake.sol\":7463:7995  function getPositionHistoryForAddress(address walletAddress)... */\n    tag_130:\n        /* \"contracts/artifacts/stake.sol\":7574:7591  Position[] memory */\n      0x60\n        /* \"contracts/artifacts/stake.sol\":7609:7637  uint256[] memory positionIds */\n      0x00\n        /* \"contracts/artifacts/stake.sol\":7640:7660  positionIdsByAddress */\n      0x07\n        /* \"contracts/artifacts/stake.sol\":7640:7675  positionIdsByAddress[walletAddress] */\n      0x00\n        /* \"contracts/artifacts/stake.sol\":7661:7674  walletAddress */\n      dup5\n        /* \"contracts/artifacts/stake.sol\":7640:7675  positionIdsByAddress[walletAddress] */\n      0xffffffffffffffffffffffffffffffffffffffff\n      and\n      0xffffffffffffffffffffffffffffffffffffffff\n      and\n      dup2\n      mstore\n      0x20\n      add\n      swap1\n      dup2\n      mstore\n      0x20\n      add\n      0x00\n      keccak256\n        /* \"contracts/artifacts/stake.sol\":7609:7675  uint256[] memory positionIds = positionIdsByAddress[walletAddress] */\n      dup1\n      sload\n      dup1\n      0x20\n      mul\n      0x20\n      add\n      mload(0x40)\n      swap1\n      dup2\n      add\n      0x40\n      mstore\n      dup1\n      swap3\n      swap2\n      swap1\n      dup2\n      dup2\n      mstore\n      0x20\n      add\n      dup3\n      dup1\n      sload\n      dup1\n      iszero\n      tag_305\n      jumpi\n      0x20\n      mul\n      dup3\n      add\n      swap2\n      swap1\n      0x00\n      mstore\n      keccak256(0x00, 0x20)\n      swap1\n    tag_306:\n      dup2\n      sload\n      dup2\n      mstore\n      0x20\n      add\n      swap1\n      0x01\n      add\n      swap1\n      dup1\n      dup4\n      gt\n      tag_306\n      jumpi\n    tag_305:\n      pop\n      pop\n      pop\n      pop\n      pop\n      swap1\n      pop\n        /* \"contracts/artifacts/stake.sol\":7686:7706  uint256 numPositions */\n      0x00\n        /* \"contracts/artifacts/stake.sol\":7709:7720  positionIds */\n      dup2\n        /* \"contracts/artifacts/stake.sol\":7709:7727  positionIds.length */\n      mload\n        /* \"contracts/artifacts/stake.sol\":7686:7727  uint256 numPositions = positionIds.length */\n      swap1\n      pop\n        /* \"contracts/artifacts/stake.sol\":7738:7763  Position[] memory history */\n      0x00\n        /* \"contracts/artifacts/stake.sol\":7781:7793  numPositions */\n      dup2\n        /* \"contracts/artifacts/stake.sol\":7766:7794  new Position[](numPositions) */\n      0xffffffffffffffff\n      dup2\n      gt\n      iszero\n      tag_307\n      jumpi\n      tag_308\n      tag_309\n      jump\t// in\n    tag_308:\n    tag_307:\n      mload(0x40)\n      swap1\n      dup1\n      dup3\n      mstore\n      dup1\n      0x20\n      mul\n      0x20\n      add\n      dup3\n      add\n      0x40\n      mstore\n      dup1\n      iszero\n      tag_310\n      jumpi\n      dup2\n      0x20\n      add\n    tag_311:\n      tag_312\n      tag_313\n      jump\t// in\n    tag_312:\n      dup2\n      mstore\n      0x20\n      add\n      swap1\n      0x01\n      swap1\n      sub\n      swap1\n      dup2\n      tag_311\n      jumpi\n      swap1\n      pop\n    tag_310:\n      pop\n        /* \"contracts/artifacts/stake.sol\":7738:7794  Position[] memory history = new Position[](numPositions) */\n      swap1\n      pop\n        /* \"contracts/artifacts/stake.sol\":7812:7821  uint256 i */\n      0x00\n        /* \"contracts/artifacts/stake.sol\":7807:7961  for (uint256 i = 0; i < numPositions; i++) {... */\n    tag_314:\n        /* \"contracts/artifacts/stake.sol\":7831:7843  numPositions */\n      dup3\n        /* \"contracts/artifacts/stake.sol\":7827:7828  i */\n      dup2\n        /* \"contracts/artifacts/stake.sol\":7827:7843  i < numPositions */\n      lt\n        /* \"contracts/artifacts/stake.sol\":7807:7961  for (uint256 i = 0; i < numPositions; i++) {... */\n      iszero\n      tag_315\n      jumpi\n        /* \"contracts/artifacts/stake.sol\":7865:7883  uint256 positionId */\n      0x00\n        /* \"contracts/artifacts/stake.sol\":7886:7897  positionIds */\n      dup5\n        /* \"contracts/artifacts/stake.sol\":7898:7899  i */\n      dup3\n        /* \"contracts/artifacts/stake.sol\":7886:7900  positionIds[i] */\n      dup2\n      mload\n      dup2\n      lt\n      tag_317\n      jumpi\n      tag_318\n      tag_319\n      jump\t// in\n    tag_318:\n    tag_317:\n      0x20\n      mul\n      0x20\n      add\n      add\n      mload\n        /* \"contracts/artifacts/stake.sol\":7865:7900  uint256 positionId = positionIds[i] */\n      swap1\n      pop\n        /* \"contracts/artifacts/stake.sol\":7928:7937  positions */\n      0x06\n        /* \"contracts/artifacts/stake.sol\":7928:7949  positions[positionId] */\n      0x00\n        /* \"contracts/artifacts/stake.sol\":7938:7948  positionId */\n      dup3\n        /* \"contracts/artifacts/stake.sol\":7928:7949  positions[positionId] */\n      dup2\n      mstore\n      0x20\n      add\n      swap1\n      dup2\n      mstore\n      0x20\n      add\n      0x00\n      keccak256\n        /* \"contracts/artifacts/stake.sol\":7915:7949  history[i] = positions[positionId] */\n      mload(0x40)\n      dup1\n      0x0120\n      add\n      0x40\n      mstore\n      swap1\n      dup2\n      0x00\n      dup3\n      add\n      sload\n      dup2\n      mstore\n      0x20\n      add\n      0x01\n      dup3\n      add\n      0x00\n      swap1\n      sload\n      swap1\n      0x0100\n      exp\n      swap1\n      div\n      0xffffffffffffffffffffffffffffffffffffffff\n      and\n      0xffffffffffffffffffffffffffffffffffffffff\n      and\n      0xffffffffffffffffffffffffffffffffffffffff\n      and\n      dup2\n      mstore\n      0x20\n      add\n      0x02\n      dup3\n      add\n      sload\n      dup2\n      mstore\n      0x20\n      add\n      0x03\n      dup3\n      add\n      sload\n      dup2\n      mstore\n      0x20\n      add\n      0x04\n      dup3\n      add\n      sload\n      dup2\n      mstore\n      0x20\n      add\n      0x05\n      dup3\n      add\n      sload\n      dup2\n      mstore\n      0x20\n      add\n      0x06\n      dup3\n      add\n      sload\n      dup2\n      mstore\n      0x20\n      add\n      0x07\n      dup3\n      add\n      0x00\n      swap1\n      sload\n      swap1\n      0x0100\n      exp\n      swap1\n      div\n      0xff\n      and\n      iszero\n      iszero\n      iszero\n      iszero\n      dup2\n      mstore\n      0x20\n      add\n      0x08\n      dup3\n      add\n      sload\n      dup2\n      mstore\n      pop\n      pop\n        /* \"contracts/artifacts/stake.sol\":7915:7922  history */\n      dup4\n        /* \"contracts/artifacts/stake.sol\":7923:7924  i */\n      dup4\n        /* \"contracts/artifacts/stake.sol\":7915:7925  history[i] */\n      dup2\n      mload\n      dup2\n      lt\n      tag_320\n      jumpi\n      tag_321\n      tag_319\n      jump\t// in\n    tag_321:\n    tag_320:\n      0x20\n      mul\n      0x20\n      add\n      add\n        /* \"contracts/artifacts/stake.sol\":7915:7949  history[i] = positions[positionId] */\n      dup2\n      swap1\n      mstore\n      pop\n        /* \"contracts/artifacts/stake.sol\":7850:7961  {... */\n      pop\n        /* \"contracts/artifacts/stake.sol\":7845:7848  i++ */\n      dup1\n      dup1\n      0x01\n      add\n      swap2\n      pop\n      pop\n        /* \"contracts/artifacts/stake.sol\":7807:7961  for (uint256 i = 0; i < numPositions; i++) {... */\n      jump(tag_314)\n    tag_315:\n      pop\n        /* \"contracts/artifacts/stake.sol\":7980:7987  history */\n      dup1\n        /* \"contracts/artifacts/stake.sol\":7973:7987  return history */\n      swap4\n      pop\n      pop\n      pop\n      pop\n        /* \"contracts/artifacts/stake.sol\":7463:7995  function getPositionHistoryForAddress(address walletAddress)... */\n      swap2\n      swap1\n      pop\n      jump\t// out\n        /* \"contracts/artifacts/stake.sol\":1387:1424  mapping(address => User) public users */\n    tag_135:\n      mstore(0x20, 0x02)\n      dup1\n      0x00\n      mstore\n      keccak256(0x00, 0x40)\n      0x00\n      swap2\n      pop\n      swap1\n      pop\n      dup1\n      0x00\n      add\n      0x00\n      swap1\n      sload\n      swap1\n      0x0100\n      exp\n      swap1\n      div\n      0xffffffffffffffffffffffffffffffffffffffff\n      and\n      swap1\n      dup1\n      0x01\n      add\n      sload\n      swap1\n      dup1\n      0x02\n      add\n      sload\n      swap1\n      dup1\n      0x03\n      add\n      sload\n      swap1\n      dup1\n      0x04\n      add\n      sload\n      swap1\n      pop\n      dup6\n      jump\t// out\n        /* \"contracts/artifacts/stake.sol\":16393:16521  function getDirectReferralIncome(address user) external view returns (uint256) {... */\n    tag_140:\n        /* \"contracts/artifacts/stake.sol\":16463:16470  uint256 */\n      0x00\n        /* \"contracts/artifacts/stake.sol\":16490:16495  users */\n      0x02\n        /* \"contracts/artifacts/stake.sol\":16490:16501  users[user] */\n      0x00\n        /* \"contracts/artifacts/stake.sol\":16496:16500  user */\n      dup4\n        /* \"contracts/artifacts/stake.sol\":16490:16501  users[user] */\n      0xffffffffffffffffffffffffffffffffffffffff\n      and\n      0xffffffffffffffffffffffffffffffffffffffff\n      and\n      dup2\n      mstore\n      0x20\n      add\n      swap1\n      dup2\n      mstore\n      0x20\n      add\n      0x00\n      keccak256\n        /* \"contracts/artifacts/stake.sol\":16490:16513  users[user].totalEarned */\n      0x01\n      add\n      sload\n        /* \"contracts/artifacts/stake.sol\":16483:16513  return users[user].totalEarned */\n      swap1\n      pop\n        /* \"contracts/artifacts/stake.sol\":16393:16521  function getDirectReferralIncome(address user) external view returns (uint256) {... */\n      swap2\n      swap1\n      pop\n      jump\t// out\n        /* \"contracts/artifacts/stake.sol\":5873:6211  function modifyLockPeriods(uint256 numDays, uint256 basisPoints) external {... */\n    tag_144:\n        /* \"contracts/artifacts/stake.sol\":5975:5985  msg.sender */\n      caller\n        /* \"contracts/artifacts/stake.sol\":5966:5985  owner == msg.sender */\n      0xffffffffffffffffffffffffffffffffffffffff\n      and\n        /* \"contracts/artifacts/stake.sol\":5966:5971  owner */\n      0x00\n      dup1\n      sload\n      swap1\n      0x0100\n      exp\n      swap1\n      div\n      0xffffffffffffffffffffffffffffffffffffffff\n      and\n        /* \"contracts/artifacts/stake.sol\":5966:5985  owner == msg.sender */\n      0xffffffffffffffffffffffffffffffffffffffff\n      and\n      eq\n        /* \"contracts/artifacts/stake.sol\":5958:6027  require(owner == msg.sender, \"Only owner may modify staking periods\") */\n      tag_324\n      jumpi\n      mload(0x40)\n      0x08c379a000000000000000000000000000000000000000000000000000000000\n      dup2\n      mstore\n      0x04\n      add\n      tag_325\n      swap1\n      tag_326\n      jump\t// in\n    tag_325:\n      mload(0x40)\n      dup1\n      swap2\n      sub\n      swap1\n      revert\n    tag_324:\n        /* \"contracts/artifacts/stake.sol\":6110:6121  basisPoints */\n      dup1\n        /* \"contracts/artifacts/stake.sol\":6093:6098  tiers */\n      0x08\n        /* \"contracts/artifacts/stake.sol\":6093:6107  tiers[numDays] */\n      0x00\n        /* \"contracts/artifacts/stake.sol\":6099:6106  numDays */\n      dup5\n        /* \"contracts/artifacts/stake.sol\":6093:6107  tiers[numDays] */\n      dup2\n      mstore\n      0x20\n      add\n      swap1\n      dup2\n      mstore\n      0x20\n      add\n      0x00\n      keccak256\n        /* \"contracts/artifacts/stake.sol\":6093:6121  tiers[numDays] = basisPoints */\n      dup2\n      swap1\n      sstore\n      pop\n        /* \"contracts/artifacts/stake.sol\":6178:6189  lockPeriods */\n      0x0a\n        /* \"contracts/artifacts/stake.sol\":6195:6202  numDays */\n      dup3\n        /* \"contracts/artifacts/stake.sol\":6178:6203  lockPeriods.push(numDays) */\n      swap1\n      dup1\n      0x01\n      dup2\n      sload\n      add\n      dup1\n      dup3\n      sstore\n      dup1\n      swap2\n      pop\n      pop\n      0x01\n      swap1\n      sub\n      swap1\n      0x00\n      mstore\n      keccak256(0x00, 0x20)\n      add\n      0x00\n      swap1\n      swap2\n      swap1\n      swap2\n      swap1\n      swap2\n      pop\n      sstore\n        /* \"contracts/artifacts/stake.sol\":5873:6211  function modifyLockPeriods(uint256 numDays, uint256 basisPoints) external {... */\n      pop\n      pop\n      jump\t// out\n        /* \"contracts/artifacts/stake.sol\":2465:2519  mapping(address => uint256) public directReferralCount */\n    tag_147:\n      mstore(0x20, 0x0b)\n      dup1\n      0x00\n      mstore\n      keccak256(0x00, 0x40)\n      0x00\n      swap2\n      pop\n      swap1\n      pop\n      sload\n      dup2\n      jump\t// out\n        /* \"contracts/artifacts/stake.sol\":6631:6795  function getPositionById(uint256 positionId)... */\n    tag_151:\n        /* \"contracts/artifacts/stake.sol\":6726:6741  Position memory */\n      tag_328\n      tag_313\n      jump\t// in\n    tag_328:\n        /* \"contracts/artifacts/stake.sol\":6766:6775  positions */\n      0x06\n        /* \"contracts/artifacts/stake.sol\":6766:6787  positions[positionId] */\n      0x00\n        /* \"contracts/artifacts/stake.sol\":6776:6786  positionId */\n      dup4\n        /* \"contracts/artifacts/stake.sol\":6766:6787  positions[positionId] */\n      dup2\n      mstore\n      0x20\n      add\n      swap1\n      dup2\n      mstore\n      0x20\n      add\n      0x00\n      keccak256\n        /* \"contracts/artifacts/stake.sol\":6759:6787  return positions[positionId] */\n      mload(0x40)\n      dup1\n      0x0120\n      add\n      0x40\n      mstore\n      swap1\n      dup2\n      0x00\n      dup3\n      add\n      sload\n      dup2\n      mstore\n      0x20\n      add\n      0x01\n      dup3\n      add\n      0x00\n      swap1\n      sload\n      swap1\n      0x0100\n      exp\n      swap1\n      div\n      0xffffffffffffffffffffffffffffffffffffffff\n      and\n      0xffffffffffffffffffffffffffffffffffffffff\n      and\n      0xffffffffffffffffffffffffffffffffffffffff\n      and\n      dup2\n      mstore\n      0x20\n      add\n      0x02\n      dup3\n      add\n      sload\n      dup2\n      mstore\n      0x20\n      add\n      0x03\n      dup3\n      add\n      sload\n      dup2\n      mstore\n      0x20\n      add\n      0x04\n      dup3\n      add\n      sload\n      dup2\n      mstore\n      0x20\n      add\n      0x05\n      dup3\n      add\n      sload\n      dup2\n      mstore\n      0x20\n      add\n      0x06\n      dup3\n      add\n      sload\n      dup2\n      mstore\n      0x20\n      add\n      0x07\n      dup3\n      add\n      0x00\n      swap1\n      sload\n      swap1\n      0x0100\n      exp\n      swap1\n      div\n      0xff\n      and\n      iszero\n      iszero\n      iszero\n      iszero\n      dup2\n      mstore\n      0x20\n      add\n      0x08\n      dup3\n      add\n      sload\n      dup2\n      mstore\n      pop\n      pop\n      swap1\n      pop\n        /* \"contracts/artifacts/stake.sol\":6631:6795  function getPositionById(uint256 positionId)... */\n      swap2\n      swap1\n      pop\n      jump\t// out\n        /* \"contracts/artifacts/stake.sol\":15211:15633  function getDaysUntilUnlock(uint256 positionId)... */\n    tag_156:\n        /* \"contracts/artifacts/stake.sol\":15309:15316  uint256 */\n      0x00\n        /* \"contracts/artifacts/stake.sol\":15334:15358  Position memory position */\n      dup1\n        /* \"contracts/artifacts/stake.sol\":15361:15370  positions */\n      0x06\n        /* \"contracts/artifacts/stake.sol\":15361:15382  positions[positionId] */\n      0x00\n        /* \"contracts/artifacts/stake.sol\":15371:15381  positionId */\n      dup5\n        /* \"contracts/artifacts/stake.sol\":15361:15382  positions[positionId] */\n      dup2\n      mstore\n      0x20\n      add\n      swap1\n      dup2\n      mstore\n      0x20\n      add\n      0x00\n      keccak256\n        /* \"contracts/artifacts/stake.sol\":15334:15382  Position memory position = positions[positionId] */\n      mload(0x40)\n      dup1\n      0x0120\n      add\n      0x40\n      mstore\n      swap1\n      dup2\n      0x00\n      dup3\n      add\n      sload\n      dup2\n      mstore\n      0x20\n      add\n      0x01\n      dup3\n      add\n      0x00\n      swap1\n      sload\n      swap1\n      0x0100\n      exp\n      swap1\n      div\n      0xffffffffffffffffffffffffffffffffffffffff\n      and\n      0xffffffffffffffffffffffffffffffffffffffff\n      and\n      0xffffffffffffffffffffffffffffffffffffffff\n      and\n      dup2\n      mstore\n      0x20\n      add\n      0x02\n      dup3\n      add\n      sload\n      dup2\n      mstore\n      0x20\n      add\n      0x03\n      dup3\n      add\n      sload\n      dup2\n      mstore\n      0x20\n      add\n      0x04\n      dup3\n      add\n      sload\n      dup2\n      mstore\n      0x20\n      add\n      0x05\n      dup3\n      add\n      sload\n      dup2\n      mstore\n      0x20\n      add\n      0x06\n      dup3\n      add\n      sload\n      dup2\n      mstore\n      0x20\n      add\n      0x07\n      dup3\n      add\n      0x00\n      swap1\n      sload\n      swap1\n      0x0100\n      exp\n      swap1\n      div\n      0xff\n      and\n      iszero\n      iszero\n      iszero\n      iszero\n      dup2\n      mstore\n      0x20\n      add\n      0x08\n      dup3\n      add\n      sload\n      dup2\n      mstore\n      pop\n      pop\n      swap1\n      pop\n        /* \"contracts/artifacts/stake.sol\":15423:15424  0 */\n      0x00\n        /* \"contracts/artifacts/stake.sol\":15401:15409  position */\n      dup2\n        /* \"contracts/artifacts/stake.sol\":15401:15420  position.positionId */\n      0x00\n      add\n      mload\n        /* \"contracts/artifacts/stake.sol\":15401:15424  position.positionId > 0 */\n      gt\n        /* \"contracts/artifacts/stake.sol\":15393:15448  require(position.positionId > 0, \"Invalid position ID\") */\n      tag_331\n      jumpi\n      mload(0x40)\n      0x08c379a000000000000000000000000000000000000000000000000000000000\n      dup2\n      mstore\n      0x04\n      add\n      tag_332\n      swap1\n      tag_185\n      jump\t// in\n    tag_332:\n      mload(0x40)\n      dup1\n      swap2\n      sub\n      swap1\n      revert\n    tag_331:\n        /* \"contracts/artifacts/stake.sol\":15482:15490  position */\n      dup1\n        /* \"contracts/artifacts/stake.sol\":15482:15501  position.unlockDate */\n      0x60\n      add\n      mload\n        /* \"contracts/artifacts/stake.sol\":15463:15478  block.timestamp */\n      timestamp\n        /* \"contracts/artifacts/stake.sol\":15463:15501  block.timestamp >= position.unlockDate */\n      lt\n        /* \"contracts/artifacts/stake.sol\":15459:15626  if (block.timestamp >= position.unlockDate) {... */\n      tag_333\n      jumpi\n        /* \"contracts/artifacts/stake.sol\":15525:15526  0 */\n      0x00\n        /* \"contracts/artifacts/stake.sol\":15518:15526  return 0 */\n      swap2\n      pop\n      pop\n      jump(tag_330)\n        /* \"contracts/artifacts/stake.sol\":15459:15626  if (block.timestamp >= position.unlockDate) {... */\n    tag_333:\n        /* \"contracts/artifacts/stake.sol\":15608:15614  1 days */\n      0x015180\n        /* \"contracts/artifacts/stake.sol\":15589:15604  block.timestamp */\n      timestamp\n        /* \"contracts/artifacts/stake.sol\":15567:15575  position */\n      dup3\n        /* \"contracts/artifacts/stake.sol\":15567:15586  position.unlockDate */\n      0x60\n      add\n      mload\n        /* \"contracts/artifacts/stake.sol\":15567:15604  position.unlockDate - block.timestamp */\n      tag_335\n      swap2\n      swap1\n      tag_189\n      jump\t// in\n    tag_335:\n        /* \"contracts/artifacts/stake.sol\":15566:15614  (position.unlockDate - block.timestamp) / 1 days */\n      tag_336\n      swap2\n      swap1\n      tag_191\n      jump\t// in\n    tag_336:\n        /* \"contracts/artifacts/stake.sol\":15559:15614  return (position.unlockDate - block.timestamp) / 1 days */\n      swap2\n      pop\n      pop\n        /* \"contracts/artifacts/stake.sol\":15211:15633  function getDaysUntilUnlock(uint256 positionId)... */\n    tag_330:\n      swap2\n      swap1\n      pop\n      jump\t// out\n        /* \"contracts/artifacts/stake.sol\":6873:7112  function changeUnlockDate(uint256 positionId, uint256 newUnlockDate)... */\n    tag_160:\n        /* \"contracts/artifacts/stake.sol\":6993:7003  msg.sender */\n      caller\n        /* \"contracts/artifacts/stake.sol\":6984:7003  owner == msg.sender */\n      0xffffffffffffffffffffffffffffffffffffffff\n      and\n        /* \"contracts/artifacts/stake.sol\":6984:6989  owner */\n      0x00\n      dup1\n      sload\n      swap1\n      0x0100\n      exp\n      swap1\n      div\n      0xffffffffffffffffffffffffffffffffffffffff\n      and\n        /* \"contracts/artifacts/stake.sol\":6984:7003  owner == msg.sender */\n      0xffffffffffffffffffffffffffffffffffffffff\n      and\n      eq\n        /* \"contracts/artifacts/stake.sol\":6976:7045  require(owner == msg.sender, \"Only owner may modify staking periods\") */\n      tag_338\n      jumpi\n      mload(0x40)\n      0x08c379a000000000000000000000000000000000000000000000000000000000\n      dup2\n      mstore\n      0x04\n      add\n      tag_339\n      swap1\n      tag_326\n      jump\t// in\n    tag_339:\n      mload(0x40)\n      dup1\n      swap2\n      sub\n      swap1\n      revert\n    tag_338:\n        /* \"contracts/artifacts/stake.sol\":7091:7104  newUnlockDate */\n      dup1\n        /* \"contracts/artifacts/stake.sol\":7056:7065  positions */\n      0x06\n        /* \"contracts/artifacts/stake.sol\":7056:7077  positions[positionId] */\n      0x00\n        /* \"contracts/artifacts/stake.sol\":7066:7076  positionId */\n      dup5\n        /* \"contracts/artifacts/stake.sol\":7056:7077  positions[positionId] */\n      dup2\n      mstore\n      0x20\n      add\n      swap1\n      dup2\n      mstore\n      0x20\n      add\n      0x00\n      keccak256\n        /* \"contracts/artifacts/stake.sol\":7056:7088  positions[positionId].unlockDate */\n      0x03\n      add\n        /* \"contracts/artifacts/stake.sol\":7056:7104  positions[positionId].unlockDate = newUnlockDate */\n      dup2\n      swap1\n      sstore\n      pop\n        /* \"contracts/artifacts/stake.sol\":6873:7112  function changeUnlockDate(uint256 positionId, uint256 newUnlockDate)... */\n      pop\n      pop\n      jump\t// out\n        /* \"contracts/artifacts/stake.sol\":11905:13129  function emergencyClosePosition(uint256 positionId) external {... */\n    tag_163:\n        /* \"contracts/artifacts/stake.sol\":11977:12002  Position storage position */\n      0x00\n        /* \"contracts/artifacts/stake.sol\":12005:12014  positions */\n      0x06\n        /* \"contracts/artifacts/stake.sol\":12005:12026  positions[positionId] */\n      0x00\n        /* \"contracts/artifacts/stake.sol\":12015:12025  positionId */\n      dup4\n        /* \"contracts/artifacts/stake.sol\":12005:12026  positions[positionId] */\n      dup2\n      mstore\n      0x20\n      add\n      swap1\n      dup2\n      mstore\n      0x20\n      add\n      0x00\n      keccak256\n        /* \"contracts/artifacts/stake.sol\":11977:12026  Position storage position = positions[positionId] */\n      swap1\n      pop\n        /* \"contracts/artifacts/stake.sol\":12148:12158  msg.sender */\n      caller\n        /* \"contracts/artifacts/stake.sol\":12122:12158  position.walletAddress == msg.sender */\n      0xffffffffffffffffffffffffffffffffffffffff\n      and\n        /* \"contracts/artifacts/stake.sol\":12122:12130  position */\n      dup2\n        /* \"contracts/artifacts/stake.sol\":12122:12144  position.walletAddress */\n      0x01\n      add\n      0x00\n      swap1\n      sload\n      swap1\n      0x0100\n      exp\n      swap1\n      div\n      0xffffffffffffffffffffffffffffffffffffffff\n      and\n        /* \"contracts/artifacts/stake.sol\":12122:12158  position.walletAddress == msg.sender */\n      0xffffffffffffffffffffffffffffffffffffffff\n      and\n      eq\n        /* \"contracts/artifacts/stake.sol\":12100:12227  require(... */\n      tag_341\n      jumpi\n      mload(0x40)\n      0x08c379a000000000000000000000000000000000000000000000000000000000\n      dup2\n      mstore\n      0x04\n      add\n      tag_342\n      swap1\n      tag_343\n      jump\t// in\n    tag_342:\n      mload(0x40)\n      dup1\n      swap2\n      sub\n      swap1\n      revert\n    tag_341:\n        /* \"contracts/artifacts/stake.sol\":12263:12267  true */\n      0x01\n        /* \"contracts/artifacts/stake.sol\":12246:12267  position.open == true */\n      iszero\n      iszero\n        /* \"contracts/artifacts/stake.sol\":12246:12254  position */\n      dup2\n        /* \"contracts/artifacts/stake.sol\":12246:12259  position.open */\n      0x07\n      add\n      0x00\n      swap1\n      sload\n      swap1\n      0x0100\n      exp\n      swap1\n      div\n      0xff\n      and\n        /* \"contracts/artifacts/stake.sol\":12246:12267  position.open == true */\n      iszero\n      iszero\n      eq\n        /* \"contracts/artifacts/stake.sol\":12238:12290  require(position.open == true, \"Position is closed\") */\n      tag_344\n      jumpi\n      mload(0x40)\n      0x08c379a000000000000000000000000000000000000000000000000000000000\n      dup2\n      mstore\n      0x04\n      add\n      tag_345\n      swap1\n      tag_213\n      jump\t// in\n    tag_345:\n      mload(0x40)\n      dup1\n      swap2\n      sub\n      swap1\n      revert\n    tag_344:\n        /* \"contracts/artifacts/stake.sol\":12352:12370  uint256 lockPeriod */\n      0x00\n        /* \"contracts/artifacts/stake.sol\":12433:12439  1 days */\n      0x015180\n        /* \"contracts/artifacts/stake.sol\":12396:12404  position */\n      dup3\n        /* \"contracts/artifacts/stake.sol\":12396:12416  position.createdDate */\n      0x02\n      add\n      sload\n        /* \"contracts/artifacts/stake.sol\":12374:12382  position */\n      dup4\n        /* \"contracts/artifacts/stake.sol\":12374:12393  position.unlockDate */\n      0x03\n      add\n      sload\n        /* \"contracts/artifacts/stake.sol\":12374:12416  position.unlockDate - position.createdDate */\n      tag_346\n      swap2\n      swap1\n      tag_189\n      jump\t// in\n    tag_346:\n        /* \"contracts/artifacts/stake.sol\":12373:12439  (position.unlockDate - position.createdDate) /... */\n      tag_347\n      swap2\n      swap1\n      tag_191\n      jump\t// in\n    tag_347:\n        /* \"contracts/artifacts/stake.sol\":12352:12439  uint256 lockPeriod = (position.unlockDate - position.createdDate) /... */\n      swap1\n      pop\n        /* \"contracts/artifacts/stake.sol\":12486:12489  800 */\n      0x0320\n        /* \"contracts/artifacts/stake.sol\":12472:12482  lockPeriod */\n      dup2\n        /* \"contracts/artifacts/stake.sol\":12472:12489  lockPeriod == 800 */\n      eq\n        /* \"contracts/artifacts/stake.sol\":12450:12569  require(... */\n      tag_348\n      jumpi\n      mload(0x40)\n      0x08c379a000000000000000000000000000000000000000000000000000000000\n      dup2\n      mstore\n      0x04\n      add\n      tag_349\n      swap1\n      tag_350\n      jump\t// in\n    tag_349:\n      mload(0x40)\n      dup1\n      swap2\n      sub\n      swap1\n      revert\n    tag_348:\n        /* \"contracts/artifacts/stake.sol\":12629:12634  false */\n      0x00\n        /* \"contracts/artifacts/stake.sol\":12613:12621  position */\n      dup3\n        /* \"contracts/artifacts/stake.sol\":12613:12626  position.open */\n      0x07\n      add\n      0x00\n        /* \"contracts/artifacts/stake.sol\":12613:12634  position.open = false */\n      0x0100\n      exp\n      dup2\n      sload\n      dup2\n      0xff\n      mul\n      not\n      and\n      swap1\n      dup4\n      iszero\n      iszero\n      mul\n      or\n      swap1\n      sstore\n      pop\n        /* \"contracts/artifacts/stake.sol\":12669:12677  position */\n      dup2\n        /* \"contracts/artifacts/stake.sol\":12669:12688  position.unlockDate */\n      0x03\n      add\n      sload\n        /* \"contracts/artifacts/stake.sol\":12651:12666  block.timestamp */\n      timestamp\n        /* \"contracts/artifacts/stake.sol\":12651:12688  block.timestamp > position.unlockDate */\n      gt\n        /* \"contracts/artifacts/stake.sol\":12647:12995  if (block.timestamp > position.unlockDate) {... */\n      iszero\n      tag_351\n      jumpi\n        /* \"contracts/artifacts/stake.sol\":12705:12719  uint256 amount */\n      0x00\n        /* \"contracts/artifacts/stake.sol\":12743:12751  position */\n      dup3\n        /* \"contracts/artifacts/stake.sol\":12743:12763  position.weiInterest */\n      0x06\n      add\n      sload\n        /* \"contracts/artifacts/stake.sol\":12722:12730  position */\n      dup4\n        /* \"contracts/artifacts/stake.sol\":12722:12740  position.weiStaked */\n      0x05\n      add\n      sload\n        /* \"contracts/artifacts/stake.sol\":12722:12763  position.weiStaked + position.weiInterest */\n      tag_352\n      swap2\n      swap1\n      tag_353\n      jump\t// in\n    tag_352:\n        /* \"contracts/artifacts/stake.sol\":12705:12763  uint256 amount = position.weiStaked + position.weiInterest */\n      swap1\n      pop\n        /* \"contracts/artifacts/stake.sol\":12786:12796  msg.sender */\n      caller\n        /* \"contracts/artifacts/stake.sol\":12778:12802  payable(msg.sender).call */\n      0xffffffffffffffffffffffffffffffffffffffff\n      and\n        /* \"contracts/artifacts/stake.sol\":12810:12816  amount */\n      dup2\n        /* \"contracts/artifacts/stake.sol\":12778:12821  payable(msg.sender).call{value: amount}(\"\") */\n      mload(0x40)\n      tag_354\n      swap1\n      tag_355\n      jump\t// in\n    tag_354:\n      0x00\n      mload(0x40)\n      dup1\n      dup4\n      sub\n      dup2\n      dup6\n      dup8\n      gas\n      call\n      swap3\n      pop\n      pop\n      pop\n      returndatasize\n      dup1\n      0x00\n      dup2\n      eq\n      tag_358\n      jumpi\n      mload(0x40)\n      swap2\n      pop\n      and(add(returndatasize, 0x3f), not(0x1f))\n      dup3\n      add\n      0x40\n      mstore\n      returndatasize\n      dup3\n      mstore\n      returndatasize\n      0x00\n      0x20\n      dup5\n      add\n      returndatacopy\n      jump(tag_357)\n    tag_358:\n      0x60\n      swap2\n      pop\n    tag_357:\n      pop\n      pop\n      pop\n        /* \"contracts/artifacts/stake.sol\":12690:12833  {... */\n      pop\n        /* \"contracts/artifacts/stake.sol\":12647:12995  if (block.timestamp > position.unlockDate) {... */\n      jump(tag_359)\n    tag_351:\n        /* \"contracts/artifacts/stake.sol\":12880:12885  token */\n      0x01\n      0x00\n      swap1\n      sload\n      swap1\n      0x0100\n      exp\n      swap1\n      div\n      0xffffffffffffffffffffffffffffffffffffffff\n      and\n        /* \"contracts/artifacts/stake.sol\":12880:12894  token.transfer */\n      0xffffffffffffffffffffffffffffffffffffffff\n      and\n      0xa9059cbb\n        /* \"contracts/artifacts/stake.sol\":12895:12905  msg.sender */\n      caller\n        /* \"contracts/artifacts/stake.sol\":12907:12915  position */\n      dup5\n        /* \"contracts/artifacts/stake.sol\":12907:12925  position.weiStaked */\n      0x05\n      add\n      sload\n        /* \"contracts/artifacts/stake.sol\":12880:12926  token.transfer(msg.sender, position.weiStaked) */\n      mload(0x40)\n      dup4\n      0xffffffff\n      and\n      0xe0\n      shl\n      dup2\n      mstore\n      0x04\n      add\n      tag_360\n      swap3\n      swap2\n      swap1\n      tag_233\n      jump\t// in\n    tag_360:\n      0x20\n      mload(0x40)\n      dup1\n      dup4\n      sub\n      dup2\n      0x00\n      dup8\n      gas\n      call\n      iszero\n      dup1\n      iszero\n      tag_362\n      jumpi\n      returndatasize\n      0x00\n      dup1\n      returndatacopy\n      revert(0x00, returndatasize)\n    tag_362:\n      pop\n      pop\n      pop\n      pop\n      mload(0x40)\n      returndatasize\n      not(0x1f)\n      0x1f\n      dup3\n      add\n      and\n      dup3\n      add\n      dup1\n      0x40\n      mstore\n      pop\n      dup2\n      add\n      swap1\n      tag_363\n      swap2\n      swap1\n      tag_237\n      jump\t// in\n    tag_363:\n        /* \"contracts/artifacts/stake.sol\":12854:12983  require(... */\n      tag_364\n      jumpi\n      mload(0x40)\n      0x08c379a000000000000000000000000000000000000000000000000000000000\n      dup2\n      mstore\n      0x04\n      add\n      tag_365\n      swap1\n      tag_271\n      jump\t// in\n    tag_365:\n      mload(0x40)\n      dup1\n      swap2\n      sub\n      swap1\n      revert\n    tag_364:\n        /* \"contracts/artifacts/stake.sol\":12647:12995  if (block.timestamp > position.unlockDate) {... */\n    tag_359:\n        /* \"contracts/artifacts/stake.sol\":13070:13094  positionHistoryByAddress */\n      0x05\n        /* \"contracts/artifacts/stake.sol\":13070:13106  positionHistoryByAddress[msg.sender] */\n      0x00\n        /* \"contracts/artifacts/stake.sol\":13095:13105  msg.sender */\n      caller\n        /* \"contracts/artifacts/stake.sol\":13070:13106  positionHistoryByAddress[msg.sender] */\n      0xffffffffffffffffffffffffffffffffffffffff\n      and\n      0xffffffffffffffffffffffffffffffffffffffff\n      and\n      dup2\n      mstore\n      0x20\n      add\n      swap1\n      dup2\n      mstore\n      0x20\n      add\n      0x00\n      keccak256\n        /* \"contracts/artifacts/stake.sol\":13112:13120  position */\n      dup3\n        /* \"contracts/artifacts/stake.sol\":13070:13121  positionHistoryByAddress[msg.sender].push(position) */\n      swap1\n      dup1\n      0x01\n      dup2\n      sload\n      add\n      dup1\n      dup3\n      sstore\n      dup1\n      swap2\n      pop\n      pop\n      0x01\n      swap1\n      sub\n      swap1\n      0x00\n      mstore\n      keccak256(0x00, 0x20)\n      swap1\n      0x09\n      mul\n      add\n      0x00\n      swap1\n      swap2\n      swap1\n      swap2\n      swap1\n      swap2\n      pop\n      0x00\n      dup3\n      add\n      sload\n      dup2\n      0x00\n      add\n      sstore\n      0x01\n      dup3\n      add\n      0x00\n      swap1\n      sload\n      swap1\n      0x0100\n      exp\n      swap1\n      div\n      0xffffffffffffffffffffffffffffffffffffffff\n      and\n      dup2\n      0x01\n      add\n      exp(0x0100, 0x00)\n      dup2\n      sload\n      dup2\n      0xffffffffffffffffffffffffffffffffffffffff\n      mul\n      not\n      and\n      swap1\n      dup4\n      0xffffffffffffffffffffffffffffffffffffffff\n      and\n      mul\n      or\n      swap1\n      sstore\n      pop\n      0x02\n      dup3\n      add\n      sload\n      dup2\n      0x02\n      add\n      sstore\n      0x03\n      dup3\n      add\n      sload\n      dup2\n      0x03\n      add\n      sstore\n      0x04\n      dup3\n      add\n      sload\n      dup2\n      0x04\n      add\n      sstore\n      0x05\n      dup3\n      add\n      sload\n      dup2\n      0x05\n      add\n      sstore\n      0x06\n      dup3\n      add\n      sload\n      dup2\n      0x06\n      add\n      sstore\n      0x07\n      dup3\n      add\n      0x00\n      swap1\n      sload\n      swap1\n      0x0100\n      exp\n      swap1\n      div\n      0xff\n      and\n      dup2\n      0x07\n      add\n      exp(0x0100, 0x00)\n      dup2\n      sload\n      dup2\n      0xff\n      mul\n      not\n      and\n      swap1\n      dup4\n      iszero\n      iszero\n      mul\n      or\n      swap1\n      sstore\n      pop\n      0x08\n      dup3\n      add\n      sload\n      dup2\n      0x08\n      add\n      sstore\n      pop\n      pop\n        /* \"contracts/artifacts/stake.sol\":11966:13129  {... */\n      pop\n      pop\n        /* \"contracts/artifacts/stake.sol\":11905:13129  function emergencyClosePosition(uint256 positionId) external {... */\n      pop\n      jump\t// out\n        /* \"contracts/artifacts/stake.sol\":8986:9966  function calculateDailyInterest(uint256 positionId)... */\n    tag_166:\n        /* \"contracts/artifacts/stake.sol\":9088:9095  uint256 */\n      0x00\n        /* \"contracts/artifacts/stake.sol\":9155:9179  Position memory position */\n      dup1\n        /* \"contracts/artifacts/stake.sol\":9182:9191  positions */\n      0x06\n        /* \"contracts/artifacts/stake.sol\":9182:9203  positions[positionId] */\n      0x00\n        /* \"contracts/artifacts/stake.sol\":9192:9202  positionId */\n      dup5\n        /* \"contracts/artifacts/stake.sol\":9182:9203  positions[positionId] */\n      dup2\n      mstore\n      0x20\n      add\n      swap1\n      dup2\n      mstore\n      0x20\n      add\n      0x00\n      keccak256\n        /* \"contracts/artifacts/stake.sol\":9155:9203  Position memory position = positions[positionId] */\n      mload(0x40)\n      dup1\n      0x0120\n      add\n      0x40\n      mstore\n      swap1\n      dup2\n      0x00\n      dup3\n      add\n      sload\n      dup2\n      mstore\n      0x20\n      add\n      0x01\n      dup3\n      add\n      0x00\n      swap1\n      sload\n      swap1\n      0x0100\n      exp\n      swap1\n      div\n      0xffffffffffffffffffffffffffffffffffffffff\n      and\n      0xffffffffffffffffffffffffffffffffffffffff\n      and\n      0xffffffffffffffffffffffffffffffffffffffff\n      and\n      dup2\n      mstore\n      0x20\n      add\n      0x02\n      dup3\n      add\n      sload\n      dup2\n      mstore\n      0x20\n      add\n      0x03\n      dup3\n      add\n      sload\n      dup2\n      mstore\n      0x20\n      add\n      0x04\n      dup3\n      add\n      sload\n      dup2\n      mstore\n      0x20\n      add\n      0x05\n      dup3\n      add\n      sload\n      dup2\n      mstore\n      0x20\n      add\n      0x06\n      dup3\n      add\n      sload\n      dup2\n      mstore\n      0x20\n      add\n      0x07\n      dup3\n      add\n      0x00\n      swap1\n      sload\n      swap1\n      0x0100\n      exp\n      swap1\n      div\n      0xff\n      and\n      iszero\n      iszero\n      iszero\n      iszero\n      dup2\n      mstore\n      0x20\n      add\n      0x08\n      dup3\n      add\n      sload\n      dup2\n      mstore\n      pop\n      pop\n      swap1\n      pop\n        /* \"contracts/artifacts/stake.sol\":9296:9297  0 */\n      0x00\n        /* \"contracts/artifacts/stake.sol\":9274:9282  position */\n      dup2\n        /* \"contracts/artifacts/stake.sol\":9274:9293  position.positionId */\n      0x00\n      add\n      mload\n        /* \"contracts/artifacts/stake.sol\":9274:9297  position.positionId > 0 */\n      gt\n        /* \"contracts/artifacts/stake.sol\":9266:9321  require(position.positionId > 0, \"Invalid position ID\") */\n      tag_368\n      jumpi\n      mload(0x40)\n      0x08c379a000000000000000000000000000000000000000000000000000000000\n      dup2\n      mstore\n      0x04\n      add\n      tag_369\n      swap1\n      tag_185\n      jump\t// in\n    tag_369:\n      mload(0x40)\n      dup1\n      swap2\n      sub\n      swap1\n      revert\n    tag_368:\n        /* \"contracts/artifacts/stake.sol\":9340:9348  position */\n      dup1\n        /* \"contracts/artifacts/stake.sol\":9340:9353  position.open */\n      0xe0\n      add\n      mload\n        /* \"contracts/artifacts/stake.sol\":9332:9376  require(position.open, \"Position is closed\") */\n      tag_370\n      jumpi\n      mload(0x40)\n      0x08c379a000000000000000000000000000000000000000000000000000000000\n      dup2\n      mstore\n      0x04\n      add\n      tag_371\n      swap1\n      tag_213\n      jump\t// in\n    tag_371:\n      mload(0x40)\n      dup1\n      swap2\n      sub\n      swap1\n      revert\n    tag_370:\n        /* \"contracts/artifacts/stake.sol\":9431:9449  uint256 lockPeriod */\n      0x00\n        /* \"contracts/artifacts/stake.sol\":9512:9518  1 days */\n      0x015180\n        /* \"contracts/artifacts/stake.sol\":9475:9483  position */\n      dup3\n        /* \"contracts/artifacts/stake.sol\":9475:9495  position.createdDate */\n      0x40\n      add\n      mload\n        /* \"contracts/artifacts/stake.sol\":9453:9461  position */\n      dup4\n        /* \"contracts/artifacts/stake.sol\":9453:9472  position.unlockDate */\n      0x60\n      add\n      mload\n        /* \"contracts/artifacts/stake.sol\":9453:9495  position.unlockDate - position.createdDate */\n      tag_372\n      swap2\n      swap1\n      tag_189\n      jump\t// in\n    tag_372:\n        /* \"contracts/artifacts/stake.sol\":9452:9518  (position.unlockDate - position.createdDate) /... */\n      tag_373\n      swap2\n      swap1\n      tag_191\n      jump\t// in\n    tag_373:\n        /* \"contracts/artifacts/stake.sol\":9431:9518  uint256 lockPeriod = (position.unlockDate - position.createdDate) /... */\n      swap1\n      pop\n        /* \"contracts/artifacts/stake.sol\":9622:9623  0 */\n      0x00\n        /* \"contracts/artifacts/stake.sol\":9602:9607  tiers */\n      0x08\n        /* \"contracts/artifacts/stake.sol\":9602:9619  tiers[lockPeriod] */\n      0x00\n        /* \"contracts/artifacts/stake.sol\":9608:9618  lockPeriod */\n      dup4\n        /* \"contracts/artifacts/stake.sol\":9602:9619  tiers[lockPeriod] */\n      dup2\n      mstore\n      0x20\n      add\n      swap1\n      dup2\n      mstore\n      0x20\n      add\n      0x00\n      keccak256\n      sload\n        /* \"contracts/artifacts/stake.sol\":9602:9623  tiers[lockPeriod] > 0 */\n      gt\n        /* \"contracts/artifacts/stake.sol\":9594:9649  require(tiers[lockPeriod] > 0, \"Lock period not found\") */\n      tag_374\n      jumpi\n      mload(0x40)\n      0x08c379a000000000000000000000000000000000000000000000000000000000\n      dup2\n      mstore\n      0x04\n      add\n      tag_375\n      swap1\n      tag_376\n      jump\t// in\n    tag_375:\n      mload(0x40)\n      dup1\n      swap2\n      sub\n      swap1\n      revert\n    tag_374:\n        /* \"contracts/artifacts/stake.sol\":9725:9750  uint256 dailyInterestRate */\n      0x00\n        /* \"contracts/artifacts/stake.sol\":9773:9783  lockPeriod */\n      dup2\n        /* \"contracts/artifacts/stake.sol\":9753:9758  tiers */\n      0x08\n        /* \"contracts/artifacts/stake.sol\":9753:9770  tiers[lockPeriod] */\n      0x00\n        /* \"contracts/artifacts/stake.sol\":9759:9769  lockPeriod */\n      dup5\n        /* \"contracts/artifacts/stake.sol\":9753:9770  tiers[lockPeriod] */\n      dup2\n      mstore\n      0x20\n      add\n      swap1\n      dup2\n      mstore\n      0x20\n      add\n      0x00\n      keccak256\n      sload\n        /* \"contracts/artifacts/stake.sol\":9753:9783  tiers[lockPeriod] / lockPeriod */\n      tag_377\n      swap2\n      swap1\n      tag_191\n      jump\t// in\n    tag_377:\n        /* \"contracts/artifacts/stake.sol\":9725:9783  uint256 dailyInterestRate = tiers[lockPeriod] / lockPeriod */\n      swap1\n      pop\n        /* \"contracts/artifacts/stake.sol\":9840:9861  uint256 dailyInterest */\n      0x00\n        /* \"contracts/artifacts/stake.sol\":9920:9925  10000 */\n      0x2710\n        /* \"contracts/artifacts/stake.sol\":9885:9893  position */\n      dup5\n        /* \"contracts/artifacts/stake.sol\":9885:9903  position.weiStaked */\n      0xa0\n      add\n      mload\n        /* \"contracts/artifacts/stake.sol\":9865:9882  dailyInterestRate */\n      dup4\n        /* \"contracts/artifacts/stake.sol\":9865:9903  dailyInterestRate * position.weiStaked */\n      tag_378\n      swap2\n      swap1\n      tag_229\n      jump\t// in\n    tag_378:\n        /* \"contracts/artifacts/stake.sol\":9864:9925  (dailyInterestRate * position.weiStaked) /... */\n      tag_379\n      swap2\n      swap1\n      tag_191\n      jump\t// in\n    tag_379:\n        /* \"contracts/artifacts/stake.sol\":9840:9925  uint256 dailyInterest = (dailyInterestRate * position.weiStaked) /... */\n      swap1\n      pop\n        /* \"contracts/artifacts/stake.sol\":9945:9958  dailyInterest */\n      dup1\n        /* \"contracts/artifacts/stake.sol\":9938:9958  return dailyInterest */\n      swap5\n      pop\n      pop\n      pop\n      pop\n      pop\n        /* \"contracts/artifacts/stake.sol\":8986:9966  function calculateDailyInterest(uint256 positionId)... */\n      swap2\n      swap1\n      pop\n      jump\t// out\n        /* \"contracts/artifacts/stake.sol\":2636:2682  mapping(uint256 => uint256) public levelIncome */\n    tag_170:\n      mstore(0x20, 0x0d)\n      dup1\n      0x00\n      mstore\n      keccak256(0x00, 0x40)\n      0x00\n      swap2\n      pop\n      swap1\n      pop\n      sload\n      dup2\n      jump\t// out\n        /* \"contracts/artifacts/stake.sol\":2526:2581  mapping(address => uint256) public directReferralIncome */\n    tag_174:\n      mstore(0x20, 0x0c)\n      dup1\n      0x00\n      mstore\n      keccak256(0x00, 0x40)\n      0x00\n      swap2\n      pop\n      swap1\n      pop\n      sload\n      dup2\n      jump\t// out\n        /* \"contracts/artifacts/stake.sol\":662:681  IERC20 public token */\n    tag_177:\n      0x01\n      0x00\n      swap1\n      sload\n      swap1\n      0x0100\n      exp\n      swap1\n      div\n      0xffffffffffffffffffffffffffffffffffffffff\n      and\n      dup2\n      jump\t// out\n        /* \"contracts/artifacts/stake.sol\":4189:5803  function _stakeToken(... */\n    tag_195:\n        /* \"contracts/artifacts/stake.sol\":4320:4321  0 */\n      0x00\n        /* \"contracts/artifacts/stake.sol\":4303:4308  tiers */\n      0x08\n        /* \"contracts/artifacts/stake.sol\":4303:4317  tiers[numDays] */\n      0x00\n        /* \"contracts/artifacts/stake.sol\":4309:4316  numDays */\n      dup6\n        /* \"contracts/artifacts/stake.sol\":4303:4317  tiers[numDays] */\n      dup2\n      mstore\n      0x20\n      add\n      swap1\n      dup2\n      mstore\n      0x20\n      add\n      0x00\n      keccak256\n      sload\n        /* \"contracts/artifacts/stake.sol\":4303:4321  tiers[numDays] > 0 */\n      gt\n        /* \"contracts/artifacts/stake.sol\":4295:4343  require(tiers[numDays] > 0, \"Mapping not found\") */\n      tag_381\n      jumpi\n      mload(0x40)\n      0x08c379a000000000000000000000000000000000000000000000000000000000\n      dup2\n      mstore\n      0x04\n      add\n      tag_382\n      swap1\n      tag_383\n      jump\t// in\n    tag_382:\n      mload(0x40)\n      dup1\n      swap2\n      sub\n      swap1\n      revert\n    tag_381:\n        /* \"contracts/artifacts/stake.sol\":4370:4375  token */\n      0x01\n      0x00\n      swap1\n      sload\n      swap1\n      0x0100\n      exp\n      swap1\n      div\n      0xffffffffffffffffffffffffffffffffffffffff\n      and\n        /* \"contracts/artifacts/stake.sol\":4370:4388  token.transferFrom */\n      0xffffffffffffffffffffffffffffffffffffffff\n      and\n      0x23b872dd\n        /* \"contracts/artifacts/stake.sol\":4389:4399  msg.sender */\n      caller\n        /* \"contracts/artifacts/stake.sol\":4409:4413  this */\n      address\n        /* \"contracts/artifacts/stake.sol\":4416:4422  amount */\n      dup6\n        /* \"contracts/artifacts/stake.sol\":4370:4423  token.transferFrom(msg.sender, address(this), amount) */\n      mload(0x40)\n      dup5\n      0xffffffff\n      and\n      0xe0\n      shl\n      dup2\n      mstore\n      0x04\n      add\n      tag_384\n      swap4\n      swap3\n      swap2\n      swap1\n      tag_385\n      jump\t// in\n    tag_384:\n      0x20\n      mload(0x40)\n      dup1\n      dup4\n      sub\n      dup2\n      0x00\n      dup8\n      gas\n      call\n      iszero\n      dup1\n      iszero\n      tag_387\n      jumpi\n      returndatasize\n      0x00\n      dup1\n      returndatacopy\n      revert(0x00, returndatasize)\n    tag_387:\n      pop\n      pop\n      pop\n      pop\n      mload(0x40)\n      returndatasize\n      not(0x1f)\n      0x1f\n      dup3\n      add\n      and\n      dup3\n      add\n      dup1\n      0x40\n      mstore\n      pop\n      dup2\n      add\n      swap1\n      tag_388\n      swap2\n      swap1\n      tag_237\n      jump\t// in\n    tag_388:\n        /* \"contracts/artifacts/stake.sol\":4352:4464  require(... */\n      tag_389\n      jumpi\n      mload(0x40)\n      0x08c379a000000000000000000000000000000000000000000000000000000000\n      dup2\n      mstore\n      0x04\n      add\n      tag_390\n      swap1\n      tag_271\n      jump\t// in\n    tag_390:\n      mload(0x40)\n      dup1\n      swap2\n      sub\n      swap1\n      revert\n    tag_389:\n        /* \"contracts/artifacts/stake.sol\":4473:4499  uint256 referralCommission */\n      0x00\n        /* \"contracts/artifacts/stake.sol\":4552:4553  0 */\n      dup1\n        /* \"contracts/artifacts/stake.sol\":4516:4554  users[msg.sender].upline == address(0) */\n      0xffffffffffffffffffffffffffffffffffffffff\n      and\n        /* \"contracts/artifacts/stake.sol\":4516:4521  users */\n      0x02\n        /* \"contracts/artifacts/stake.sol\":4516:4533  users[msg.sender] */\n      0x00\n        /* \"contracts/artifacts/stake.sol\":4522:4532  msg.sender */\n      caller\n        /* \"contracts/artifacts/stake.sol\":4516:4533  users[msg.sender] */\n      0xffffffffffffffffffffffffffffffffffffffff\n      and\n      0xffffffffffffffffffffffffffffffffffffffff\n      and\n      dup2\n      mstore\n      0x20\n      add\n      swap1\n      dup2\n      mstore\n      0x20\n      add\n      0x00\n      keccak256\n        /* \"contracts/artifacts/stake.sol\":4516:4540  users[msg.sender].upline */\n      0x00\n      add\n      0x00\n      swap1\n      sload\n      swap1\n      0x0100\n      exp\n      swap1\n      div\n      0xffffffffffffffffffffffffffffffffffffffff\n      and\n        /* \"contracts/artifacts/stake.sol\":4516:4554  users[msg.sender].upline == address(0) */\n      0xffffffffffffffffffffffffffffffffffffffff\n      and\n      sub\n        /* \"contracts/artifacts/stake.sol\":4512:4859  if (users[msg.sender].upline == address(0)) {... */\n      tag_391\n      jumpi\n        /* \"contracts/artifacts/stake.sol\":4591:4592  0 */\n      0x00\n        /* \"contracts/artifacts/stake.sol\":4571:4593  referrer != address(0) */\n      0xffffffffffffffffffffffffffffffffffffffff\n      and\n        /* \"contracts/artifacts/stake.sol\":4571:4579  referrer */\n      dup3\n        /* \"contracts/artifacts/stake.sol\":4571:4593  referrer != address(0) */\n      0xffffffffffffffffffffffffffffffffffffffff\n      and\n      eq\n      iszero\n        /* \"contracts/artifacts/stake.sol\":4571:4619  referrer != address(0) && referrer != msg.sender */\n      dup1\n      iszero\n      tag_392\n      jumpi\n      pop\n        /* \"contracts/artifacts/stake.sol\":4609:4619  msg.sender */\n      caller\n        /* \"contracts/artifacts/stake.sol\":4597:4619  referrer != msg.sender */\n      0xffffffffffffffffffffffffffffffffffffffff\n      and\n        /* \"contracts/artifacts/stake.sol\":4597:4605  referrer */\n      dup3\n        /* \"contracts/artifacts/stake.sol\":4597:4619  referrer != msg.sender */\n      0xffffffffffffffffffffffffffffffffffffffff\n      and\n      eq\n      iszero\n        /* \"contracts/artifacts/stake.sol\":4571:4619  referrer != address(0) && referrer != msg.sender */\n    tag_392:\n        /* \"contracts/artifacts/stake.sol\":4567:4852  if (referrer != address(0) && referrer != msg.sender) {... */\n      iszero\n      tag_393\n      jumpi\n        /* \"contracts/artifacts/stake.sol\":4663:4671  referrer */\n      dup2\n        /* \"contracts/artifacts/stake.sol\":4636:4641  users */\n      0x02\n        /* \"contracts/artifacts/stake.sol\":4636:4653  users[msg.sender] */\n      0x00\n        /* \"contracts/artifacts/stake.sol\":4642:4652  msg.sender */\n      caller\n        /* \"contracts/artifacts/stake.sol\":4636:4653  users[msg.sender] */\n      0xffffffffffffffffffffffffffffffffffffffff\n      and\n      0xffffffffffffffffffffffffffffffffffffffff\n      and\n      dup2\n      mstore\n      0x20\n      add\n      swap1\n      dup2\n      mstore\n      0x20\n      add\n      0x00\n      keccak256\n        /* \"contracts/artifacts/stake.sol\":4636:4660  users[msg.sender].upline */\n      0x00\n      add\n      0x00\n        /* \"contracts/artifacts/stake.sol\":4636:4671  users[msg.sender].upline = referrer */\n      0x0100\n      exp\n      dup2\n      sload\n      dup2\n      0xffffffffffffffffffffffffffffffffffffffff\n      mul\n      not\n      and\n      swap1\n      dup4\n      0xffffffffffffffffffffffffffffffffffffffff\n      and\n      mul\n      or\n      swap1\n      sstore\n      pop\n        /* \"contracts/artifacts/stake.sol\":4686:4691  users */\n      0x02\n        /* \"contracts/artifacts/stake.sol\":4686:4701  users[referrer] */\n      0x00\n        /* \"contracts/artifacts/stake.sol\":4692:4700  referrer */\n      dup4\n        /* \"contracts/artifacts/stake.sol\":4686:4701  users[referrer] */\n      0xffffffffffffffffffffffffffffffffffffffff\n      and\n      0xffffffffffffffffffffffffffffffffffffffff\n      and\n      dup2\n      mstore\n      0x20\n      add\n      swap1\n      dup2\n      mstore\n      0x20\n      add\n      0x00\n      keccak256\n        /* \"contracts/artifacts/stake.sol\":4686:4722  users[referrer].directReferralsCount */\n      0x04\n      add\n      0x00\n        /* \"contracts/artifacts/stake.sol\":4686:4724  users[referrer].directReferralsCount++ */\n      dup2\n      sload\n      dup1\n      swap3\n      swap2\n      swap1\n      tag_394\n      swap1\n      tag_395\n      jump\t// in\n    tag_394:\n      swap2\n      swap1\n      pop\n      sstore\n      pop\n        /* \"contracts/artifacts/stake.sol\":4567:4852  if (referrer != address(0) && referrer != msg.sender) {... */\n      jump(tag_396)\n    tag_393:\n        /* \"contracts/artifacts/stake.sol\":4835:4840  owner */\n      0x00\n      dup1\n      sload\n      swap1\n      0x0100\n      exp\n      swap1\n      div\n      0xffffffffffffffffffffffffffffffffffffffff\n      and\n        /* \"contracts/artifacts/stake.sol\":4808:4813  users */\n      0x02\n        /* \"contracts/artifacts/stake.sol\":4808:4825  users[msg.sender] */\n      0x00\n        /* \"contracts/artifacts/stake.sol\":4814:4824  msg.sender */\n      caller\n        /* \"contracts/artifacts/stake.sol\":4808:4825  users[msg.sender] */\n      0xffffffffffffffffffffffffffffffffffffffff\n      and\n      0xffffffffffffffffffffffffffffffffffffffff\n      and\n      dup2\n      mstore\n      0x20\n      add\n      swap1\n      dup2\n      mstore\n      0x20\n      add\n      0x00\n      keccak256\n        /* \"contracts/artifacts/stake.sol\":4808:4832  users[msg.sender].upline */\n      0x00\n      add\n      0x00\n        /* \"contracts/artifacts/stake.sol\":4808:4840  users[msg.sender].upline = owner */\n      0x0100\n      exp\n      dup2\n      sload\n      dup2\n      0xffffffffffffffffffffffffffffffffffffffff\n      mul\n      not\n      and\n      swap1\n      dup4\n      0xffffffffffffffffffffffffffffffffffffffff\n      and\n      mul\n      or\n      swap1\n      sstore\n      pop\n        /* \"contracts/artifacts/stake.sol\":4567:4852  if (referrer != address(0) && referrer != msg.sender) {... */\n    tag_396:\n        /* \"contracts/artifacts/stake.sol\":4512:4859  if (users[msg.sender].upline == address(0)) {... */\n    tag_391:\n        /* \"contracts/artifacts/stake.sol\":4899:4904  owner */\n      0x00\n      dup1\n      sload\n      swap1\n      0x0100\n      exp\n      swap1\n      div\n      0xffffffffffffffffffffffffffffffffffffffff\n      and\n        /* \"contracts/artifacts/stake.sol\":4871:4904  users[msg.sender].upline != owner */\n      0xffffffffffffffffffffffffffffffffffffffff\n      and\n        /* \"contracts/artifacts/stake.sol\":4871:4876  users */\n      0x02\n        /* \"contracts/artifacts/stake.sol\":4871:4888  users[msg.sender] */\n      0x00\n        /* \"contracts/artifacts/stake.sol\":4877:4887  msg.sender */\n      caller\n        /* \"contracts/artifacts/stake.sol\":4871:4888  users[msg.sender] */\n      0xffffffffffffffffffffffffffffffffffffffff\n      and\n      0xffffffffffffffffffffffffffffffffffffffff\n      and\n      dup2\n      mstore\n      0x20\n      add\n      swap1\n      dup2\n      mstore\n      0x20\n      add\n      0x00\n      keccak256\n        /* \"contracts/artifacts/stake.sol\":4871:4895  users[msg.sender].upline */\n      0x00\n      add\n      0x00\n      swap1\n      sload\n      swap1\n      0x0100\n      exp\n      swap1\n      div\n      0xffffffffffffffffffffffffffffffffffffffff\n      and\n        /* \"contracts/artifacts/stake.sol\":4871:4904  users[msg.sender].upline != owner */\n      0xffffffffffffffffffffffffffffffffffffffff\n      and\n      eq\n        /* \"contracts/artifacts/stake.sol\":4867:5309  if (users[msg.sender].upline != owner) {... */\n      tag_397\n      jumpi\n        /* \"contracts/artifacts/stake.sol\":4966:4969  100 */\n      0x64\n        /* \"contracts/artifacts/stake.sol\":4948:4959  levelIncome */\n      0x0d\n        /* \"contracts/artifacts/stake.sol\":4948:4962  levelIncome[1] */\n      0x00\n        /* \"contracts/artifacts/stake.sol\":4960:4961  1 */\n      0x01\n        /* \"contracts/artifacts/stake.sol\":4948:4962  levelIncome[1] */\n      dup2\n      mstore\n      0x20\n      add\n      swap1\n      dup2\n      mstore\n      0x20\n      add\n      0x00\n      keccak256\n      sload\n        /* \"contracts/artifacts/stake.sol\":4939:4945  amount */\n      dup5\n        /* \"contracts/artifacts/stake.sol\":4939:4962  amount * levelIncome[1] */\n      tag_398\n      swap2\n      swap1\n      tag_229\n      jump\t// in\n    tag_398:\n        /* \"contracts/artifacts/stake.sol\":4938:4969  (amount * levelIncome[1]) / 100 */\n      tag_399\n      swap2\n      swap1\n      tag_191\n      jump\t// in\n    tag_399:\n        /* \"contracts/artifacts/stake.sol\":4917:4969  referralCommission = (amount * levelIncome[1]) / 100 */\n      swap1\n      pop\n        /* \"contracts/artifacts/stake.sol\":5199:5217  referralCommission */\n      dup1\n        /* \"contracts/artifacts/stake.sol\":5149:5169  directReferralIncome */\n      0x0c\n        /* \"contracts/artifacts/stake.sol\":5149:5195  directReferralIncome[users[msg.sender].upline] */\n      0x00\n        /* \"contracts/artifacts/stake.sol\":5170:5175  users */\n      0x02\n        /* \"contracts/artifacts/stake.sol\":5170:5187  users[msg.sender] */\n      0x00\n        /* \"contracts/artifacts/stake.sol\":5176:5186  msg.sender */\n      caller\n        /* \"contracts/artifacts/stake.sol\":5170:5187  users[msg.sender] */\n      0xffffffffffffffffffffffffffffffffffffffff\n      and\n      0xffffffffffffffffffffffffffffffffffffffff\n      and\n      dup2\n      mstore\n      0x20\n      add\n      swap1\n      dup2\n      mstore\n      0x20\n      add\n      0x00\n      keccak256\n        /* \"contracts/artifacts/stake.sol\":5170:5194  users[msg.sender].upline */\n      0x00\n      add\n      0x00\n      swap1\n      sload\n      swap1\n      0x0100\n      exp\n      swap1\n      div\n      0xffffffffffffffffffffffffffffffffffffffff\n      and\n        /* \"contracts/artifacts/stake.sol\":5149:5195  directReferralIncome[users[msg.sender].upline] */\n      0xffffffffffffffffffffffffffffffffffffffff\n      and\n      0xffffffffffffffffffffffffffffffffffffffff\n      and\n      dup2\n      mstore\n      0x20\n      add\n      swap1\n      dup2\n      mstore\n      0x20\n      add\n      0x00\n      keccak256\n      0x00\n        /* \"contracts/artifacts/stake.sol\":5149:5217  directReferralIncome[users[msg.sender].upline] += referralCommission */\n      dup3\n      dup3\n      sload\n      tag_400\n      swap2\n      swap1\n      tag_353\n      jump\t// in\n    tag_400:\n      swap3\n      pop\n      pop\n      dup2\n      swap1\n      sstore\n      pop\n        /* \"contracts/artifacts/stake.sol\":5270:5280  msg.sender */\n      caller\n        /* \"contracts/artifacts/stake.sol\":5235:5301  Referral(users[msg.sender].upline, msg.sender, referralCommission) */\n      0xffffffffffffffffffffffffffffffffffffffff\n      and\n        /* \"contracts/artifacts/stake.sol\":5244:5249  users */\n      0x02\n        /* \"contracts/artifacts/stake.sol\":5244:5261  users[msg.sender] */\n      0x00\n        /* \"contracts/artifacts/stake.sol\":5250:5260  msg.sender */\n      caller\n        /* \"contracts/artifacts/stake.sol\":5244:5261  users[msg.sender] */\n      0xffffffffffffffffffffffffffffffffffffffff\n      and\n      0xffffffffffffffffffffffffffffffffffffffff\n      and\n      dup2\n      mstore\n      0x20\n      add\n      swap1\n      dup2\n      mstore\n      0x20\n      add\n      0x00\n      keccak256\n        /* \"contracts/artifacts/stake.sol\":5244:5268  users[msg.sender].upline */\n      0x00\n      add\n      0x00\n      swap1\n      sload\n      swap1\n      0x0100\n      exp\n      swap1\n      div\n      0xffffffffffffffffffffffffffffffffffffffff\n      and\n        /* \"contracts/artifacts/stake.sol\":5235:5301  Referral(users[msg.sender].upline, msg.sender, referralCommission) */\n      0xffffffffffffffffffffffffffffffffffffffff\n      and\n      0xaeecfcda1271d292db728294b8ae465871ec039d51404caf49a7eb0ade51770a\n        /* \"contracts/artifacts/stake.sol\":5282:5300  referralCommission */\n      dup4\n        /* \"contracts/artifacts/stake.sol\":5235:5301  Referral(users[msg.sender].upline, msg.sender, referralCommission) */\n      mload(0x40)\n      tag_401\n      swap2\n      swap1\n      tag_50\n      jump\t// in\n    tag_401:\n      mload(0x40)\n      dup1\n      swap2\n      sub\n      swap1\n      log3\n        /* \"contracts/artifacts/stake.sol\":4867:5309  if (users[msg.sender].upline != owner) {... */\n    tag_397:\n        /* \"contracts/artifacts/stake.sol\":5348:5629  Position(... */\n      mload(0x40)\n      dup1\n      0x0120\n      add\n      0x40\n      mstore\n      dup1\n        /* \"contracts/artifacts/stake.sol\":5367:5384  currentPositionId */\n      sload(0x03)\n        /* \"contracts/artifacts/stake.sol\":5348:5629  Position(... */\n      dup2\n      mstore\n      0x20\n      add\n        /* \"contracts/artifacts/stake.sol\":5395:5405  msg.sender */\n      caller\n        /* \"contracts/artifacts/stake.sol\":5348:5629  Position(... */\n      0xffffffffffffffffffffffffffffffffffffffff\n      and\n      dup2\n      mstore\n      0x20\n      add\n        /* \"contracts/artifacts/stake.sol\":5416:5431  block.timestamp */\n      timestamp\n        /* \"contracts/artifacts/stake.sol\":5348:5629  Position(... */\n      dup2\n      mstore\n      0x20\n      add\n        /* \"contracts/artifacts/stake.sol\":5471:5477  1 days */\n      0x015180\n        /* \"contracts/artifacts/stake.sol\":5461:5468  numDays */\n      dup7\n        /* \"contracts/artifacts/stake.sol\":5461:5477  numDays * 1 days */\n      tag_402\n      swap2\n      swap1\n      tag_229\n      jump\t// in\n    tag_402:\n        /* \"contracts/artifacts/stake.sol\":5442:5457  block.timestamp */\n      timestamp\n        /* \"contracts/artifacts/stake.sol\":5442:5478  block.timestamp + (numDays * 1 days) */\n      tag_403\n      swap2\n      swap1\n      tag_353\n      jump\t// in\n    tag_403:\n        /* \"contracts/artifacts/stake.sol\":5348:5629  Position(... */\n      dup2\n      mstore\n      0x20\n      add\n        /* \"contracts/artifacts/stake.sol\":5489:5494  tiers */\n      0x08\n        /* \"contracts/artifacts/stake.sol\":5489:5503  tiers[numDays] */\n      0x00\n        /* \"contracts/artifacts/stake.sol\":5495:5502  numDays */\n      dup8\n        /* \"contracts/artifacts/stake.sol\":5489:5503  tiers[numDays] */\n      dup2\n      mstore\n      0x20\n      add\n      swap1\n      dup2\n      mstore\n      0x20\n      add\n      0x00\n      keccak256\n      sload\n        /* \"contracts/artifacts/stake.sol\":5348:5629  Position(... */\n      dup2\n      mstore\n      0x20\n      add\n        /* \"contracts/artifacts/stake.sol\":5514:5520  amount */\n      dup5\n        /* \"contracts/artifacts/stake.sol\":5348:5629  Position(... */\n      dup2\n      mstore\n      0x20\n      add\n        /* \"contracts/artifacts/stake.sol\":5531:5581  calculateInterest(tiers[numDays], numDays, amount) */\n      tag_404\n        /* \"contracts/artifacts/stake.sol\":5549:5554  tiers */\n      0x08\n        /* \"contracts/artifacts/stake.sol\":5549:5563  tiers[numDays] */\n      0x00\n        /* \"contracts/artifacts/stake.sol\":5555:5562  numDays */\n      dup9\n        /* \"contracts/artifacts/stake.sol\":5549:5563  tiers[numDays] */\n      dup2\n      mstore\n      0x20\n      add\n      swap1\n      dup2\n      mstore\n      0x20\n      add\n      0x00\n      keccak256\n      sload\n        /* \"contracts/artifacts/stake.sol\":5565:5572  numDays */\n      dup8\n        /* \"contracts/artifacts/stake.sol\":5574:5580  amount */\n      dup8\n        /* \"contracts/artifacts/stake.sol\":5531:5548  calculateInterest */\n      tag_405\n        /* \"contracts/artifacts/stake.sol\":5531:5581  calculateInterest(tiers[numDays], numDays, amount) */\n      jump\t// in\n    tag_404:\n        /* \"contracts/artifacts/stake.sol\":5348:5629  Position(... */\n      dup2\n      mstore\n      0x20\n      add\n        /* \"contracts/artifacts/stake.sol\":5592:5596  true */\n      0x01\n        /* \"contracts/artifacts/stake.sol\":5348:5629  Position(... */\n      iszero\n      iszero\n      dup2\n      mstore\n      0x20\n      add\n        /* \"contracts/artifacts/stake.sol\":5607:5622  block.timestamp */\n      timestamp\n        /* \"contracts/artifacts/stake.sol\":5348:5629  Position(... */\n      dup2\n      mstore\n      pop\n        /* \"contracts/artifacts/stake.sol\":5317:5326  positions */\n      0x06\n        /* \"contracts/artifacts/stake.sol\":5317:5345  positions[currentPositionId] */\n      0x00\n        /* \"contracts/artifacts/stake.sol\":5327:5344  currentPositionId */\n      sload(0x03)\n        /* \"contracts/artifacts/stake.sol\":5317:5345  positions[currentPositionId] */\n      dup2\n      mstore\n      0x20\n      add\n      swap1\n      dup2\n      mstore\n      0x20\n      add\n      0x00\n      keccak256\n        /* \"contracts/artifacts/stake.sol\":5317:5629  positions[currentPositionId] = Position(... */\n      0x00\n      dup3\n      add\n      mload\n      dup2\n      0x00\n      add\n      sstore\n      0x20\n      dup3\n      add\n      mload\n      dup2\n      0x01\n      add\n      exp(0x0100, 0x00)\n      dup2\n      sload\n      dup2\n      0xffffffffffffffffffffffffffffffffffffffff\n      mul\n      not\n      and\n      swap1\n      dup4\n      0xffffffffffffffffffffffffffffffffffffffff\n      and\n      mul\n      or\n      swap1\n      sstore\n      pop\n      0x40\n      dup3\n      add\n      mload\n      dup2\n      0x02\n      add\n      sstore\n      0x60\n      dup3\n      add\n      mload\n      dup2\n      0x03\n      add\n      sstore\n      0x80\n      dup3\n      add\n      mload\n      dup2\n      0x04\n      add\n      sstore\n      0xa0\n      dup3\n      add\n      mload\n      dup2\n      0x05\n      add\n      sstore\n      0xc0\n      dup3\n      add\n      mload\n      dup2\n      0x06\n      add\n      sstore\n      0xe0\n      dup3\n      add\n      mload\n      dup2\n      0x07\n      add\n      exp(0x0100, 0x00)\n      dup2\n      sload\n      dup2\n      0xff\n      mul\n      not\n      and\n      swap1\n      dup4\n      iszero\n      iszero\n      mul\n      or\n      swap1\n      sstore\n      pop\n      0x0100\n      dup3\n      add\n      mload\n      dup2\n      0x08\n      add\n      sstore\n      swap1\n      pop\n      pop\n        /* \"contracts/artifacts/stake.sol\":5638:5658  positionIdsByAddress */\n      0x07\n        /* \"contracts/artifacts/stake.sol\":5638:5670  positionIdsByAddress[msg.sender] */\n      0x00\n        /* \"contracts/artifacts/stake.sol\":5659:5669  msg.sender */\n      caller\n        /* \"contracts/artifacts/stake.sol\":5638:5670  positionIdsByAddress[msg.sender] */\n      0xffffffffffffffffffffffffffffffffffffffff\n      and\n      0xffffffffffffffffffffffffffffffffffffffff\n      and\n      dup2\n      mstore\n      0x20\n      add\n      swap1\n      dup2\n      mstore\n      0x20\n      add\n      0x00\n      keccak256\n        /* \"contracts/artifacts/stake.sol\":5676:5693  currentPositionId */\n      sload(0x03)\n        /* \"contracts/artifacts/stake.sol\":5638:5694  positionIdsByAddress[msg.sender].push(currentPositionId) */\n      swap1\n      dup1\n      0x01\n      dup2\n      sload\n      add\n      dup1\n      dup3\n      sstore\n      dup1\n      swap2\n      pop\n      pop\n      0x01\n      swap1\n      sub\n      swap1\n      0x00\n      mstore\n      keccak256(0x00, 0x20)\n      add\n      0x00\n      swap1\n      swap2\n      swap1\n      swap2\n      swap1\n      swap2\n      pop\n      sstore\n        /* \"contracts/artifacts/stake.sol\":5724:5725  1 */\n      0x01\n        /* \"contracts/artifacts/stake.sol\":5703:5720  currentPositionId */\n      0x03\n      0x00\n        /* \"contracts/artifacts/stake.sol\":5703:5725  currentPositionId += 1 */\n      dup3\n      dup3\n      sload\n      tag_407\n      swap2\n      swap1\n      tag_353\n      jump\t// in\n    tag_407:\n      swap3\n      pop\n      pop\n      dup2\n      swap1\n      sstore\n      pop\n        /* \"contracts/artifacts/stake.sol\":5771:5799  distributeIncome(msg.sender) */\n      tag_408\n        /* \"contracts/artifacts/stake.sol\":5788:5798  msg.sender */\n      caller\n        /* \"contracts/artifacts/stake.sol\":5771:5787  distributeIncome */\n      tag_409\n        /* \"contracts/artifacts/stake.sol\":5771:5799  distributeIncome(msg.sender) */\n      jump\t// in\n    tag_408:\n        /* \"contracts/artifacts/stake.sol\":4288:5803  {... */\n      pop\n        /* \"contracts/artifacts/stake.sol\":4189:5803  function _stakeToken(... */\n      pop\n      pop\n      pop\n      jump\t// out\n        /* \"contracts/artifacts/stake.sol\":8097:8299  function calculateInterest(... */\n    tag_405:\n        /* \"contracts/artifacts/stake.sol\":8234:8241  uint256 */\n      0x00\n        /* \"contracts/artifacts/stake.sol\":8286:8291  10000 */\n      0x2710\n        /* \"contracts/artifacts/stake.sol\":8276:8282  amount */\n      dup3\n        /* \"contracts/artifacts/stake.sol\":8262:8273  basisPoints */\n      dup6\n        /* \"contracts/artifacts/stake.sol\":8262:8282  basisPoints * amount */\n      tag_411\n      swap2\n      swap1\n      tag_229\n      jump\t// in\n    tag_411:\n        /* \"contracts/artifacts/stake.sol\":8261:8291  (basisPoints * amount) / 10000 */\n      tag_412\n      swap2\n      swap1\n      tag_191\n      jump\t// in\n    tag_412:\n        /* \"contracts/artifacts/stake.sol\":8254:8291  return (basisPoints * amount) / 10000 */\n      swap1\n      pop\n        /* \"contracts/artifacts/stake.sol\":8097:8299  function calculateInterest(... */\n      swap4\n      swap3\n      pop\n      pop\n      pop\n      jump\t// out\n        /* \"contracts/artifacts/stake.sol\":15730:16329  function distributeIncome(address staker) internal {... */\n    tag_409:\n        /* \"contracts/artifacts/stake.sol\":15792:15806  address upline */\n      0x00\n        /* \"contracts/artifacts/stake.sol\":15809:15814  users */\n      0x02\n        /* \"contracts/artifacts/stake.sol\":15809:15822  users[staker] */\n      0x00\n        /* \"contracts/artifacts/stake.sol\":15815:15821  staker */\n      dup4\n        /* \"contracts/artifacts/stake.sol\":15809:15822  users[staker] */\n      0xffffffffffffffffffffffffffffffffffffffff\n      and\n      0xffffffffffffffffffffffffffffffffffffffff\n      and\n      dup2\n      mstore\n      0x20\n      add\n      swap1\n      dup2\n      mstore\n      0x20\n      add\n      0x00\n      keccak256\n        /* \"contracts/artifacts/stake.sol\":15809:15829  users[staker].upline */\n      0x00\n      add\n      0x00\n      swap1\n      sload\n      swap1\n      0x0100\n      exp\n      swap1\n      div\n      0xffffffffffffffffffffffffffffffffffffffff\n      and\n        /* \"contracts/artifacts/stake.sol\":15792:15829  address upline = users[staker].upline */\n      swap1\n      pop\n        /* \"contracts/artifacts/stake.sol\":15847:15860  uint256 level */\n      0x00\n        /* \"contracts/artifacts/stake.sol\":15863:15864  1 */\n      0x01\n        /* \"contracts/artifacts/stake.sol\":15847:15864  uint256 level = 1 */\n      swap1\n      pop\n        /* \"contracts/artifacts/stake.sol\":15842:16322  for (uint256 level = 1; level <= 5; level++) {... */\n    tag_414:\n        /* \"contracts/artifacts/stake.sol\":15875:15876  5 */\n      0x05\n        /* \"contracts/artifacts/stake.sol\":15866:15871  level */\n      dup2\n        /* \"contracts/artifacts/stake.sol\":15866:15876  level <= 5 */\n      gt\n        /* \"contracts/artifacts/stake.sol\":15842:16322  for (uint256 level = 1; level <= 5; level++) {... */\n      tag_415\n      jumpi\n        /* \"contracts/artifacts/stake.sol\":15924:15925  0 */\n      0x00\n        /* \"contracts/artifacts/stake.sol\":15906:15926  upline == address(0) */\n      0xffffffffffffffffffffffffffffffffffffffff\n      and\n        /* \"contracts/artifacts/stake.sol\":15906:15912  upline */\n      dup3\n        /* \"contracts/artifacts/stake.sol\":15906:15926  upline == address(0) */\n      0xffffffffffffffffffffffffffffffffffffffff\n      and\n      sub\n        /* \"contracts/artifacts/stake.sol\":15902:15933  if (upline == address(0)) break */\n      iszero\n        /* \"contracts/artifacts/stake.sol\":15928:15933  break */\n      tag_415\n        /* \"contracts/artifacts/stake.sol\":15902:15933  if (upline == address(0)) break */\n      jumpi\n        /* \"contracts/artifacts/stake.sol\":15950:15964  uint256 income */\n      0x00\n        /* \"contracts/artifacts/stake.sol\":16052:16055  100 */\n      0x64\n        /* \"contracts/artifacts/stake.sol\":16030:16041  levelIncome */\n      0x0d\n        /* \"contracts/artifacts/stake.sol\":16030:16048  levelIncome[level] */\n      0x00\n        /* \"contracts/artifacts/stake.sol\":16042:16047  level */\n      dup5\n        /* \"contracts/artifacts/stake.sol\":16030:16048  levelIncome[level] */\n      dup2\n      mstore\n      0x20\n      add\n      swap1\n      dup2\n      mstore\n      0x20\n      add\n      0x00\n      keccak256\n      sload\n        /* \"contracts/artifacts/stake.sol\":15968:15977  positions */\n      0x06\n        /* \"contracts/artifacts/stake.sol\":15968:16000  positions[currentPositionId - 1] */\n      0x00\n        /* \"contracts/artifacts/stake.sol\":15998:15999  1 */\n      0x01\n        /* \"contracts/artifacts/stake.sol\":15978:15995  currentPositionId */\n      sload(0x03)\n        /* \"contracts/artifacts/stake.sol\":15978:15999  currentPositionId - 1 */\n      tag_418\n      swap2\n      swap1\n      tag_189\n      jump\t// in\n    tag_418:\n        /* \"contracts/artifacts/stake.sol\":15968:16000  positions[currentPositionId - 1] */\n      dup2\n      mstore\n      0x20\n      add\n      swap1\n      dup2\n      mstore\n      0x20\n      add\n      0x00\n      keccak256\n        /* \"contracts/artifacts/stake.sol\":15968:16010  positions[currentPositionId - 1].weiStaked */\n      0x05\n      add\n      sload\n        /* \"contracts/artifacts/stake.sol\":15968:16048  positions[currentPositionId - 1].weiStaked *... */\n      tag_419\n      swap2\n      swap1\n      tag_229\n      jump\t// in\n    tag_419:\n        /* \"contracts/artifacts/stake.sol\":15967:16055  (positions[currentPositionId - 1].weiStaked *... */\n      tag_420\n      swap2\n      swap1\n      tag_191\n      jump\t// in\n    tag_420:\n        /* \"contracts/artifacts/stake.sol\":15950:16055  uint256 income = (positions[currentPositionId - 1].weiStaked *... */\n      swap1\n      pop\n        /* \"contracts/artifacts/stake.sol\":16102:16108  income */\n      dup1\n        /* \"contracts/artifacts/stake.sol\":16073:16078  users */\n      0x02\n        /* \"contracts/artifacts/stake.sol\":16073:16086  users[upline] */\n      0x00\n        /* \"contracts/artifacts/stake.sol\":16079:16085  upline */\n      dup6\n        /* \"contracts/artifacts/stake.sol\":16073:16086  users[upline] */\n      0xffffffffffffffffffffffffffffffffffffffff\n      and\n      0xffffffffffffffffffffffffffffffffffffffff\n      and\n      dup2\n      mstore\n      0x20\n      add\n      swap1\n      dup2\n      mstore\n      0x20\n      add\n      0x00\n      keccak256\n        /* \"contracts/artifacts/stake.sol\":16073:16098  users[upline].totalEarned */\n      0x01\n      add\n      0x00\n        /* \"contracts/artifacts/stake.sol\":16073:16108  users[upline].totalEarned += income */\n      dup3\n      dup3\n      sload\n      tag_421\n      swap2\n      swap1\n      tag_353\n      jump\t// in\n    tag_421:\n      swap3\n      pop\n      pop\n      dup2\n      swap1\n      sstore\n      pop\n        /* \"contracts/artifacts/stake.sol\":16145:16150  token */\n      0x01\n      0x00\n      swap1\n      sload\n      swap1\n      0x0100\n      exp\n      swap1\n      div\n      0xffffffffffffffffffffffffffffffffffffffff\n      and\n        /* \"contracts/artifacts/stake.sol\":16145:16159  token.transfer */\n      0xffffffffffffffffffffffffffffffffffffffff\n      and\n      0xa9059cbb\n        /* \"contracts/artifacts/stake.sol\":16160:16166  upline */\n      dup5\n        /* \"contracts/artifacts/stake.sol\":16168:16174  income */\n      dup4\n        /* \"contracts/artifacts/stake.sol\":16145:16175  token.transfer(upline, income) */\n      mload(0x40)\n      dup4\n      0xffffffff\n      and\n      0xe0\n      shl\n      dup2\n      mstore\n      0x04\n      add\n      tag_422\n      swap3\n      swap2\n      swap1\n      tag_233\n      jump\t// in\n    tag_422:\n      0x20\n      mload(0x40)\n      dup1\n      dup4\n      sub\n      dup2\n      0x00\n      dup8\n      gas\n      call\n      iszero\n      dup1\n      iszero\n      tag_424\n      jumpi\n      returndatasize\n      0x00\n      dup1\n      returndatacopy\n      revert(0x00, returndatasize)\n    tag_424:\n      pop\n      pop\n      pop\n      pop\n      mload(0x40)\n      returndatasize\n      not(0x1f)\n      0x1f\n      dup3\n      add\n      and\n      dup3\n      add\n      dup1\n      0x40\n      mstore\n      pop\n      dup2\n      add\n      swap1\n      tag_425\n      swap2\n      swap1\n      tag_237\n      jump\t// in\n    tag_425:\n        /* \"contracts/artifacts/stake.sol\":16137:16202  require(token.transfer(upline, income), \"Income transfer failed\") */\n      tag_426\n      jumpi\n      mload(0x40)\n      0x08c379a000000000000000000000000000000000000000000000000000000000\n      dup2\n      mstore\n      0x04\n      add\n      tag_427\n      swap1\n      tag_428\n      jump\t// in\n    tag_427:\n      mload(0x40)\n      dup1\n      swap2\n      sub\n      swap1\n      revert\n    tag_426:\n        /* \"contracts/artifacts/stake.sol\":16242:16248  upline */\n      dup3\n        /* \"contracts/artifacts/stake.sol\":16224:16264  IncomeDistributed(upline, income, level) */\n      0xffffffffffffffffffffffffffffffffffffffff\n      and\n      0x83b5eadb65fb8fc1b70a3b205b38bb0c6a3e15e14bcbc9d4f366d6c772e6d83b\n        /* \"contracts/artifacts/stake.sol\":16250:16256  income */\n      dup3\n        /* \"contracts/artifacts/stake.sol\":16258:16263  level */\n      dup5\n        /* \"contracts/artifacts/stake.sol\":16224:16264  IncomeDistributed(upline, income, level) */\n      mload(0x40)\n      tag_429\n      swap3\n      swap2\n      swap1\n      tag_430\n      jump\t// in\n    tag_429:\n      mload(0x40)\n      dup1\n      swap2\n      sub\n      swap1\n      log2\n        /* \"contracts/artifacts/stake.sol\":16290:16295  users */\n      0x02\n        /* \"contracts/artifacts/stake.sol\":16290:16303  users[upline] */\n      0x00\n        /* \"contracts/artifacts/stake.sol\":16296:16302  upline */\n      dup5\n        /* \"contracts/artifacts/stake.sol\":16290:16303  users[upline] */\n      0xffffffffffffffffffffffffffffffffffffffff\n      and\n      0xffffffffffffffffffffffffffffffffffffffff\n      and\n      dup2\n      mstore\n      0x20\n      add\n      swap1\n      dup2\n      mstore\n      0x20\n      add\n      0x00\n      keccak256\n        /* \"contracts/artifacts/stake.sol\":16290:16310  users[upline].upline */\n      0x00\n      add\n      0x00\n      swap1\n      sload\n      swap1\n      0x0100\n      exp\n      swap1\n      div\n      0xffffffffffffffffffffffffffffffffffffffff\n      and\n        /* \"contracts/artifacts/stake.sol\":16281:16310  upline = users[upline].upline */\n      swap3\n      pop\n        /* \"contracts/artifacts/stake.sol\":15887:16322  {... */\n      pop\n        /* \"contracts/artifacts/stake.sol\":15878:15885  level++ */\n      dup1\n      dup1\n      tag_431\n      swap1\n      tag_395\n      jump\t// in\n    tag_431:\n      swap2\n      pop\n      pop\n        /* \"contracts/artifacts/stake.sol\":15842:16322  for (uint256 level = 1; level <= 5; level++) {... */\n      jump(tag_414)\n    tag_415:\n      pop\n        /* \"contracts/artifacts/stake.sol\":15781:16329  {... */\n      pop\n        /* \"contracts/artifacts/stake.sol\":15730:16329  function distributeIncome(address staker) internal {... */\n      pop\n      jump\t// out\n    tag_313:\n      mload(0x40)\n      dup1\n      0x0120\n      add\n      0x40\n      mstore\n      dup1\n      0x00\n      dup2\n      mstore\n      0x20\n      add\n      and(0xffffffffffffffffffffffffffffffffffffffff, 0x00)\n      dup2\n      mstore\n      0x20\n      add\n      0x00\n      dup2\n      mstore\n      0x20\n      add\n      0x00\n      dup2\n      mstore\n      0x20\n      add\n      0x00\n      dup2\n      mstore\n      0x20\n      add\n      0x00\n      dup2\n      mstore\n      0x20\n      add\n      0x00\n      dup2\n      mstore\n      0x20\n      add\n      iszero(iszero(0x00))\n      dup2\n      mstore\n      0x20\n      add\n      0x00\n      dup2\n      mstore\n      pop\n      swap1\n      jump\t// out\n        /* \"#utility.yul\":88:205   */\n    tag_433:\n        /* \"#utility.yul\":197:198   */\n      0x00\n        /* \"#utility.yul\":194:195   */\n      dup1\n        /* \"#utility.yul\":187:199   */\n      revert\n        /* \"#utility.yul\":334:411   */\n    tag_435:\n        /* \"#utility.yul\":371:378   */\n      0x00\n        /* \"#utility.yul\":400:405   */\n      dup2\n        /* \"#utility.yul\":389:405   */\n      swap1\n      pop\n        /* \"#utility.yul\":334:411   */\n      swap2\n      swap1\n      pop\n      jump\t// out\n        /* \"#utility.yul\":417:539   */\n    tag_436:\n        /* \"#utility.yul\":490:514   */\n      tag_523\n        /* \"#utility.yul\":508:513   */\n      dup2\n        /* \"#utility.yul\":490:514   */\n      tag_435\n      jump\t// in\n    tag_523:\n        /* \"#utility.yul\":483:488   */\n      dup2\n        /* \"#utility.yul\":480:515   */\n      eq\n        /* \"#utility.yul\":470:533   */\n      tag_524\n      jumpi\n        /* \"#utility.yul\":529:530   */\n      0x00\n        /* \"#utility.yul\":526:527   */\n      dup1\n        /* \"#utility.yul\":519:531   */\n      revert\n        /* \"#utility.yul\":470:533   */\n    tag_524:\n        /* \"#utility.yul\":417:539   */\n      pop\n      jump\t// out\n        /* \"#utility.yul\":545:684   */\n    tag_437:\n        /* \"#utility.yul\":591:596   */\n      0x00\n        /* \"#utility.yul\":629:635   */\n      dup2\n        /* \"#utility.yul\":616:636   */\n      calldataload\n        /* \"#utility.yul\":607:636   */\n      swap1\n      pop\n        /* \"#utility.yul\":645:678   */\n      tag_526\n        /* \"#utility.yul\":672:677   */\n      dup2\n        /* \"#utility.yul\":645:678   */\n      tag_436\n      jump\t// in\n    tag_526:\n        /* \"#utility.yul\":545:684   */\n      swap3\n      swap2\n      pop\n      pop\n      jump\t// out\n        /* \"#utility.yul\":690:1019   */\n    tag_47:\n        /* \"#utility.yul\":749:755   */\n      0x00\n        /* \"#utility.yul\":798:800   */\n      0x20\n        /* \"#utility.yul\":786:795   */\n      dup3\n        /* \"#utility.yul\":777:784   */\n      dup5\n        /* \"#utility.yul\":773:796   */\n      sub\n        /* \"#utility.yul\":769:801   */\n      slt\n        /* \"#utility.yul\":766:885   */\n      iszero\n      tag_528\n      jumpi\n        /* \"#utility.yul\":804:883   */\n      tag_529\n      tag_433\n      jump\t// in\n    tag_529:\n        /* \"#utility.yul\":766:885   */\n    tag_528:\n        /* \"#utility.yul\":924:925   */\n      0x00\n        /* \"#utility.yul\":949:1002   */\n      tag_530\n        /* \"#utility.yul\":994:1001   */\n      dup5\n        /* \"#utility.yul\":985:991   */\n      dup3\n        /* \"#utility.yul\":974:983   */\n      dup6\n        /* \"#utility.yul\":970:992   */\n      add\n        /* \"#utility.yul\":949:1002   */\n      tag_437\n      jump\t// in\n    tag_530:\n        /* \"#utility.yul\":939:1002   */\n      swap2\n      pop\n        /* \"#utility.yul\":895:1012   */\n      pop\n        /* \"#utility.yul\":690:1019   */\n      swap3\n      swap2\n      pop\n      pop\n      jump\t// out\n        /* \"#utility.yul\":1025:1143   */\n    tag_438:\n        /* \"#utility.yul\":1112:1136   */\n      tag_532\n        /* \"#utility.yul\":1130:1135   */\n      dup2\n        /* \"#utility.yul\":1112:1136   */\n      tag_435\n      jump\t// in\n    tag_532:\n        /* \"#utility.yul\":1107:1110   */\n      dup3\n        /* \"#utility.yul\":1100:1137   */\n      mstore\n        /* \"#utility.yul\":1025:1143   */\n      pop\n      pop\n      jump\t// out\n        /* \"#utility.yul\":1149:1371   */\n    tag_50:\n        /* \"#utility.yul\":1242:1246   */\n      0x00\n        /* \"#utility.yul\":1280:1282   */\n      0x20\n        /* \"#utility.yul\":1269:1278   */\n      dup3\n        /* \"#utility.yul\":1265:1283   */\n      add\n        /* \"#utility.yul\":1257:1283   */\n      swap1\n      pop\n        /* \"#utility.yul\":1293:1364   */\n      tag_534\n        /* \"#utility.yul\":1361:1362   */\n      0x00\n        /* \"#utility.yul\":1350:1359   */\n      dup4\n        /* \"#utility.yul\":1346:1363   */\n      add\n        /* \"#utility.yul\":1337:1343   */\n      dup5\n        /* \"#utility.yul\":1293:1364   */\n      tag_438\n      jump\t// in\n    tag_534:\n        /* \"#utility.yul\":1149:1371   */\n      swap3\n      swap2\n      pop\n      pop\n      jump\t// out\n        /* \"#utility.yul\":1377:1503   */\n    tag_439:\n        /* \"#utility.yul\":1414:1421   */\n      0x00\n        /* \"#utility.yul\":1454:1496   */\n      0xffffffffffffffffffffffffffffffffffffffff\n        /* \"#utility.yul\":1447:1452   */\n      dup3\n        /* \"#utility.yul\":1443:1497   */\n      and\n        /* \"#utility.yul\":1432:1497   */\n      swap1\n      pop\n        /* \"#utility.yul\":1377:1503   */\n      swap2\n      swap1\n      pop\n      jump\t// out\n        /* \"#utility.yul\":1509:1605   */\n    tag_440:\n        /* \"#utility.yul\":1546:1553   */\n      0x00\n        /* \"#utility.yul\":1575:1599   */\n      tag_537\n        /* \"#utility.yul\":1593:1598   */\n      dup3\n        /* \"#utility.yul\":1575:1599   */\n      tag_439\n      jump\t// in\n    tag_537:\n        /* \"#utility.yul\":1564:1599   */\n      swap1\n      pop\n        /* \"#utility.yul\":1509:1605   */\n      swap2\n      swap1\n      pop\n      jump\t// out\n        /* \"#utility.yul\":1611:1733   */\n    tag_441:\n        /* \"#utility.yul\":1684:1708   */\n      tag_539\n        /* \"#utility.yul\":1702:1707   */\n      dup2\n        /* \"#utility.yul\":1684:1708   */\n      tag_440\n      jump\t// in\n    tag_539:\n        /* \"#utility.yul\":1677:1682   */\n      dup2\n        /* \"#utility.yul\":1674:1709   */\n      eq\n        /* \"#utility.yul\":1664:1727   */\n      tag_540\n      jumpi\n        /* \"#utility.yul\":1723:1724   */\n      0x00\n        /* \"#utility.yul\":1720:1721   */\n      dup1\n        /* \"#utility.yul\":1713:1725   */\n      revert\n        /* \"#utility.yul\":1664:1727   */\n    tag_540:\n        /* \"#utility.yul\":1611:1733   */\n      pop\n      jump\t// out\n        /* \"#utility.yul\":1739:1878   */\n    tag_442:\n        /* \"#utility.yul\":1785:1790   */\n      0x00\n        /* \"#utility.yul\":1823:1829   */\n      dup2\n        /* \"#utility.yul\":1810:1830   */\n      calldataload\n        /* \"#utility.yul\":1801:1830   */\n      swap1\n      pop\n        /* \"#utility.yul\":1839:1872   */\n      tag_542\n        /* \"#utility.yul\":1866:1871   */\n      dup2\n        /* \"#utility.yul\":1839:1872   */\n      tag_441\n      jump\t// in\n    tag_542:\n        /* \"#utility.yul\":1739:1878   */\n      swap3\n      swap2\n      pop\n      pop\n      jump\t// out\n        /* \"#utility.yul\":1884:2213   */\n    tag_60:\n        /* \"#utility.yul\":1943:1949   */\n      0x00\n        /* \"#utility.yul\":1992:1994   */\n      0x20\n        /* \"#utility.yul\":1980:1989   */\n      dup3\n        /* \"#utility.yul\":1971:1978   */\n      dup5\n        /* \"#utility.yul\":1967:1990   */\n      sub\n        /* \"#utility.yul\":1963:1995   */\n      slt\n        /* \"#utility.yul\":1960:2079   */\n      iszero\n      tag_544\n      jumpi\n        /* \"#utility.yul\":1998:2077   */\n      tag_545\n      tag_433\n      jump\t// in\n    tag_545:\n        /* \"#utility.yul\":1960:2079   */\n    tag_544:\n        /* \"#utility.yul\":2118:2119   */\n      0x00\n        /* \"#utility.yul\":2143:2196   */\n      tag_546\n        /* \"#utility.yul\":2188:2195   */\n      dup5\n        /* \"#utility.yul\":2179:2185   */\n      dup3\n        /* \"#utility.yul\":2168:2177   */\n      dup6\n        /* \"#utility.yul\":2164:2186   */\n      add\n        /* \"#utility.yul\":2143:2196   */\n      tag_442\n      jump\t// in\n    tag_546:\n        /* \"#utility.yul\":2133:2196   */\n      swap2\n      pop\n        /* \"#utility.yul\":2089:2206   */\n      pop\n        /* \"#utility.yul\":1884:2213   */\n      swap3\n      swap2\n      pop\n      pop\n      jump\t// out\n        /* \"#utility.yul\":2219:2838   */\n    tag_73:\n        /* \"#utility.yul\":2296:2302   */\n      0x00\n        /* \"#utility.yul\":2304:2310   */\n      dup1\n        /* \"#utility.yul\":2312:2318   */\n      0x00\n        /* \"#utility.yul\":2361:2363   */\n      0x60\n        /* \"#utility.yul\":2349:2358   */\n      dup5\n        /* \"#utility.yul\":2340:2347   */\n      dup7\n        /* \"#utility.yul\":2336:2359   */\n      sub\n        /* \"#utility.yul\":2332:2364   */\n      slt\n        /* \"#utility.yul\":2329:2448   */\n      iszero\n      tag_548\n      jumpi\n        /* \"#utility.yul\":2367:2446   */\n      tag_549\n      tag_433\n      jump\t// in\n    tag_549:\n        /* \"#utility.yul\":2329:2448   */\n    tag_548:\n        /* \"#utility.yul\":2487:2488   */\n      0x00\n        /* \"#utility.yul\":2512:2565   */\n      tag_550\n        /* \"#utility.yul\":2557:2564   */\n      dup7\n        /* \"#utility.yul\":2548:2554   */\n      dup3\n        /* \"#utility.yul\":2537:2546   */\n      dup8\n        /* \"#utility.yul\":2533:2555   */\n      add\n        /* \"#utility.yul\":2512:2565   */\n      tag_437\n      jump\t// in\n    tag_550:\n        /* \"#utility.yul\":2502:2565   */\n      swap4\n      pop\n        /* \"#utility.yul\":2458:2575   */\n      pop\n        /* \"#utility.yul\":2614:2616   */\n      0x20\n        /* \"#utility.yul\":2640:2693   */\n      tag_551\n        /* \"#utility.yul\":2685:2692   */\n      dup7\n        /* \"#utility.yul\":2676:2682   */\n      dup3\n        /* \"#utility.yul\":2665:2674   */\n      dup8\n        /* \"#utility.yul\":2661:2683   */\n      add\n        /* \"#utility.yul\":2640:2693   */\n      tag_437\n      jump\t// in\n    tag_551:\n        /* \"#utility.yul\":2630:2693   */\n      swap3\n      pop\n        /* \"#utility.yul\":2585:2703   */\n      pop\n        /* \"#utility.yul\":2742:2744   */\n      0x40\n        /* \"#utility.yul\":2768:2821   */\n      tag_552\n        /* \"#utility.yul\":2813:2820   */\n      dup7\n        /* \"#utility.yul\":2804:2810   */\n      dup3\n        /* \"#utility.yul\":2793:2802   */\n      dup8\n        /* \"#utility.yul\":2789:2811   */\n      add\n        /* \"#utility.yul\":2768:2821   */\n      tag_442\n      jump\t// in\n    tag_552:\n        /* \"#utility.yul\":2758:2821   */\n      swap2\n      pop\n        /* \"#utility.yul\":2713:2831   */\n      pop\n        /* \"#utility.yul\":2219:2838   */\n      swap3\n      pop\n      swap3\n      pop\n      swap3\n      jump\t// out\n        /* \"#utility.yul\":2844:3318   */\n    tag_77:\n        /* \"#utility.yul\":2912:2918   */\n      0x00\n        /* \"#utility.yul\":2920:2926   */\n      dup1\n        /* \"#utility.yul\":2969:2971   */\n      0x40\n        /* \"#utility.yul\":2957:2966   */\n      dup4\n        /* \"#utility.yul\":2948:2955   */\n      dup6\n        /* \"#utility.yul\":2944:2967   */\n      sub\n        /* \"#utility.yul\":2940:2972   */\n      slt\n        /* \"#utility.yul\":2937:3056   */\n      iszero\n      tag_554\n      jumpi\n        /* \"#utility.yul\":2975:3054   */\n      tag_555\n      tag_433\n      jump\t// in\n    tag_555:\n        /* \"#utility.yul\":2937:3056   */\n    tag_554:\n        /* \"#utility.yul\":3095:3096   */\n      0x00\n        /* \"#utility.yul\":3120:3173   */\n      tag_556\n        /* \"#utility.yul\":3165:3172   */\n      dup6\n        /* \"#utility.yul\":3156:3162   */\n      dup3\n        /* \"#utility.yul\":3145:3154   */\n      dup7\n        /* \"#utility.yul\":3141:3163   */\n      add\n        /* \"#utility.yul\":3120:3173   */\n      tag_437\n      jump\t// in\n    tag_556:\n        /* \"#utility.yul\":3110:3173   */\n      swap3\n      pop\n        /* \"#utility.yul\":3066:3183   */\n      pop\n        /* \"#utility.yul\":3222:3224   */\n      0x20\n        /* \"#utility.yul\":3248:3301   */\n      tag_557\n        /* \"#utility.yul\":3293:3300   */\n      dup6\n        /* \"#utility.yul\":3284:3290   */\n      dup3\n        /* \"#utility.yul\":3273:3282   */\n      dup7\n        /* \"#utility.yul\":3269:3291   */\n      add\n        /* \"#utility.yul\":3248:3301   */\n      tag_437\n      jump\t// in\n    tag_557:\n        /* \"#utility.yul\":3238:3301   */\n      swap2\n      pop\n        /* \"#utility.yul\":3193:3311   */\n      pop\n        /* \"#utility.yul\":2844:3318   */\n      swap3\n      pop\n      swap3\n      swap1\n      pop\n      jump\t// out\n        /* \"#utility.yul\":3324:3438   */\n    tag_443:\n        /* \"#utility.yul\":3391:3397   */\n      0x00\n        /* \"#utility.yul\":3425:3430   */\n      dup2\n        /* \"#utility.yul\":3419:3431   */\n      mload\n        /* \"#utility.yul\":3409:3431   */\n      swap1\n      pop\n        /* \"#utility.yul\":3324:3438   */\n      swap2\n      swap1\n      pop\n      jump\t// out\n        /* \"#utility.yul\":3444:3628   */\n    tag_444:\n        /* \"#utility.yul\":3543:3554   */\n      0x00\n        /* \"#utility.yul\":3577:3583   */\n      dup3\n        /* \"#utility.yul\":3572:3575   */\n      dup3\n        /* \"#utility.yul\":3565:3584   */\n      mstore\n        /* \"#utility.yul\":3617:3621   */\n      0x20\n        /* \"#utility.yul\":3612:3615   */\n      dup3\n        /* \"#utility.yul\":3608:3622   */\n      add\n        /* \"#utility.yul\":3593:3622   */\n      swap1\n      pop\n        /* \"#utility.yul\":3444:3628   */\n      swap3\n      swap2\n      pop\n      pop\n      jump\t// out\n        /* \"#utility.yul\":3634:3766   */\n    tag_445:\n        /* \"#utility.yul\":3701:3705   */\n      0x00\n        /* \"#utility.yul\":3724:3727   */\n      dup2\n        /* \"#utility.yul\":3716:3727   */\n      swap1\n      pop\n        /* \"#utility.yul\":3754:3758   */\n      0x20\n        /* \"#utility.yul\":3749:3752   */\n      dup3\n        /* \"#utility.yul\":3745:3759   */\n      add\n        /* \"#utility.yul\":3737:3759   */\n      swap1\n      pop\n        /* \"#utility.yul\":3634:3766   */\n      swap2\n      swap1\n      pop\n      jump\t// out\n        /* \"#utility.yul\":3772:3880   */\n    tag_446:\n        /* \"#utility.yul\":3849:3873   */\n      tag_562\n        /* \"#utility.yul\":3867:3872   */\n      dup2\n        /* \"#utility.yul\":3849:3873   */\n      tag_435\n      jump\t// in\n    tag_562:\n        /* \"#utility.yul\":3844:3847   */\n      dup3\n        /* \"#utility.yul\":3837:3874   */\n      mstore\n        /* \"#utility.yul\":3772:3880   */\n      pop\n      pop\n      jump\t// out\n        /* \"#utility.yul\":3886:4065   */\n    tag_447:\n        /* \"#utility.yul\":3955:3965   */\n      0x00\n        /* \"#utility.yul\":3976:4022   */\n      tag_564\n        /* \"#utility.yul\":4018:4021   */\n      dup4\n        /* \"#utility.yul\":4010:4016   */\n      dup4\n        /* \"#utility.yul\":3976:4022   */\n      tag_446\n      jump\t// in\n    tag_564:\n        /* \"#utility.yul\":4054:4058   */\n      0x20\n        /* \"#utility.yul\":4049:4052   */\n      dup4\n        /* \"#utility.yul\":4045:4059   */\n      add\n        /* \"#utility.yul\":4031:4059   */\n      swap1\n      pop\n        /* \"#utility.yul\":3886:4065   */\n      swap3\n      swap2\n      pop\n      pop\n      jump\t// out\n        /* \"#utility.yul\":4071:4184   */\n    tag_448:\n        /* \"#utility.yul\":4141:4145   */\n      0x00\n        /* \"#utility.yul\":4173:4177   */\n      0x20\n        /* \"#utility.yul\":4168:4171   */\n      dup3\n        /* \"#utility.yul\":4164:4178   */\n      add\n        /* \"#utility.yul\":4156:4178   */\n      swap1\n      pop\n        /* \"#utility.yul\":4071:4184   */\n      swap2\n      swap1\n      pop\n      jump\t// out\n        /* \"#utility.yul\":4220:4952   */\n    tag_449:\n        /* \"#utility.yul\":4339:4342   */\n      0x00\n        /* \"#utility.yul\":4368:4422   */\n      tag_567\n        /* \"#utility.yul\":4416:4421   */\n      dup3\n        /* \"#utility.yul\":4368:4422   */\n      tag_443\n      jump\t// in\n    tag_567:\n        /* \"#utility.yul\":4438:4524   */\n      tag_568\n        /* \"#utility.yul\":4517:4523   */\n      dup2\n        /* \"#utility.yul\":4512:4515   */\n      dup6\n        /* \"#utility.yul\":4438:4524   */\n      tag_444\n      jump\t// in\n    tag_568:\n        /* \"#utility.yul\":4431:4524   */\n      swap4\n      pop\n        /* \"#utility.yul\":4548:4604   */\n      tag_569\n        /* \"#utility.yul\":4598:4603   */\n      dup4\n        /* \"#utility.yul\":4548:4604   */\n      tag_445\n      jump\t// in\n    tag_569:\n        /* \"#utility.yul\":4627:4634   */\n      dup1\n        /* \"#utility.yul\":4658:4659   */\n      0x00\n        /* \"#utility.yul\":4643:4927   */\n    tag_570:\n        /* \"#utility.yul\":4668:4674   */\n      dup4\n        /* \"#utility.yul\":4665:4666   */\n      dup2\n        /* \"#utility.yul\":4662:4675   */\n      lt\n        /* \"#utility.yul\":4643:4927   */\n      iszero\n      tag_572\n      jumpi\n        /* \"#utility.yul\":4744:4750   */\n      dup2\n        /* \"#utility.yul\":4738:4751   */\n      mload\n        /* \"#utility.yul\":4771:4834   */\n      tag_573\n        /* \"#utility.yul\":4830:4833   */\n      dup9\n        /* \"#utility.yul\":4815:4828   */\n      dup3\n        /* \"#utility.yul\":4771:4834   */\n      tag_447\n      jump\t// in\n    tag_573:\n        /* \"#utility.yul\":4764:4834   */\n      swap8\n      pop\n        /* \"#utility.yul\":4857:4917   */\n      tag_574\n        /* \"#utility.yul\":4910:4916   */\n      dup4\n        /* \"#utility.yul\":4857:4917   */\n      tag_448\n      jump\t// in\n    tag_574:\n        /* \"#utility.yul\":4847:4917   */\n      swap3\n      pop\n        /* \"#utility.yul\":4703:4927   */\n      pop\n        /* \"#utility.yul\":4690:4691   */\n      0x01\n        /* \"#utility.yul\":4687:4688   */\n      dup2\n        /* \"#utility.yul\":4683:4692   */\n      add\n        /* \"#utility.yul\":4678:4692   */\n      swap1\n      pop\n        /* \"#utility.yul\":4643:4927   */\n      jump(tag_570)\n    tag_572:\n        /* \"#utility.yul\":4647:4661   */\n      pop\n        /* \"#utility.yul\":4943:4946   */\n      dup6\n        /* \"#utility.yul\":4936:4946   */\n      swap4\n      pop\n        /* \"#utility.yul\":4344:4952   */\n      pop\n      pop\n      pop\n        /* \"#utility.yul\":4220:4952   */\n      swap3\n      swap2\n      pop\n      pop\n      jump\t// out\n        /* \"#utility.yul\":4958:5331   */\n    tag_83:\n        /* \"#utility.yul\":5101:5105   */\n      0x00\n        /* \"#utility.yul\":5139:5141   */\n      0x20\n        /* \"#utility.yul\":5128:5137   */\n      dup3\n        /* \"#utility.yul\":5124:5142   */\n      add\n        /* \"#utility.yul\":5116:5142   */\n      swap1\n      pop\n        /* \"#utility.yul\":5188:5197   */\n      dup2\n        /* \"#utility.yul\":5182:5186   */\n      dup2\n        /* \"#utility.yul\":5178:5198   */\n      sub\n        /* \"#utility.yul\":5174:5175   */\n      0x00\n        /* \"#utility.yul\":5163:5172   */\n      dup4\n        /* \"#utility.yul\":5159:5176   */\n      add\n        /* \"#utility.yul\":5152:5199   */\n      mstore\n        /* \"#utility.yul\":5216:5324   */\n      tag_576\n        /* \"#utility.yul\":5319:5323   */\n      dup2\n        /* \"#utility.yul\":5310:5316   */\n      dup5\n        /* \"#utility.yul\":5216:5324   */\n      tag_449\n      jump\t// in\n    tag_576:\n        /* \"#utility.yul\":5208:5324   */\n      swap1\n      pop\n        /* \"#utility.yul\":4958:5331   */\n      swap3\n      swap2\n      pop\n      pop\n      jump\t// out\n        /* \"#utility.yul\":5337:5811   */\n    tag_89:\n        /* \"#utility.yul\":5405:5411   */\n      0x00\n        /* \"#utility.yul\":5413:5419   */\n      dup1\n        /* \"#utility.yul\":5462:5464   */\n      0x40\n        /* \"#utility.yul\":5450:5459   */\n      dup4\n        /* \"#utility.yul\":5441:5448   */\n      dup6\n        /* \"#utility.yul\":5437:5460   */\n      sub\n        /* \"#utility.yul\":5433:5465   */\n      slt\n        /* \"#utility.yul\":5430:5549   */\n      iszero\n      tag_578\n      jumpi\n        /* \"#utility.yul\":5468:5547   */\n      tag_579\n      tag_433\n      jump\t// in\n    tag_579:\n        /* \"#utility.yul\":5430:5549   */\n    tag_578:\n        /* \"#utility.yul\":5588:5589   */\n      0x00\n        /* \"#utility.yul\":5613:5666   */\n      tag_580\n        /* \"#utility.yul\":5658:5665   */\n      dup6\n        /* \"#utility.yul\":5649:5655   */\n      dup3\n        /* \"#utility.yul\":5638:5647   */\n      dup7\n        /* \"#utility.yul\":5634:5656   */\n      add\n        /* \"#utility.yul\":5613:5666   */\n      tag_442\n      jump\t// in\n    tag_580:\n        /* \"#utility.yul\":5603:5666   */\n      swap3\n      pop\n        /* \"#utility.yul\":5559:5676   */\n      pop\n        /* \"#utility.yul\":5715:5717   */\n      0x20\n        /* \"#utility.yul\":5741:5794   */\n      tag_581\n        /* \"#utility.yul\":5786:5793   */\n      dup6\n        /* \"#utility.yul\":5777:5783   */\n      dup3\n        /* \"#utility.yul\":5766:5775   */\n      dup7\n        /* \"#utility.yul\":5762:5784   */\n      add\n        /* \"#utility.yul\":5741:5794   */\n      tag_437\n      jump\t// in\n    tag_581:\n        /* \"#utility.yul\":5731:5794   */\n      swap2\n      pop\n        /* \"#utility.yul\":5686:5804   */\n      pop\n        /* \"#utility.yul\":5337:5811   */\n      swap3\n      pop\n      swap3\n      swap1\n      pop\n      jump\t// out\n        /* \"#utility.yul\":5817:5935   */\n    tag_450:\n        /* \"#utility.yul\":5904:5928   */\n      tag_583\n        /* \"#utility.yul\":5922:5927   */\n      dup2\n        /* \"#utility.yul\":5904:5928   */\n      tag_440\n      jump\t// in\n    tag_583:\n        /* \"#utility.yul\":5899:5902   */\n      dup3\n        /* \"#utility.yul\":5892:5929   */\n      mstore\n        /* \"#utility.yul\":5817:5935   */\n      pop\n      pop\n      jump\t// out\n        /* \"#utility.yul\":5941:6163   */\n    tag_109:\n        /* \"#utility.yul\":6034:6038   */\n      0x00\n        /* \"#utility.yul\":6072:6074   */\n      0x20\n        /* \"#utility.yul\":6061:6070   */\n      dup3\n        /* \"#utility.yul\":6057:6075   */\n      add\n        /* \"#utility.yul\":6049:6075   */\n      swap1\n      pop\n        /* \"#utility.yul\":6085:6156   */\n      tag_585\n        /* \"#utility.yul\":6153:6154   */\n      0x00\n        /* \"#utility.yul\":6142:6151   */\n      dup4\n        /* \"#utility.yul\":6138:6155   */\n      add\n        /* \"#utility.yul\":6129:6135   */\n      dup5\n        /* \"#utility.yul\":6085:6156   */\n      tag_450\n      jump\t// in\n    tag_585:\n        /* \"#utility.yul\":5941:6163   */\n      swap3\n      swap2\n      pop\n      pop\n      jump\t// out\n        /* \"#utility.yul\":6169:6259   */\n    tag_451:\n        /* \"#utility.yul\":6203:6210   */\n      0x00\n        /* \"#utility.yul\":6246:6251   */\n      dup2\n        /* \"#utility.yul\":6239:6252   */\n      iszero\n        /* \"#utility.yul\":6232:6253   */\n      iszero\n        /* \"#utility.yul\":6221:6253   */\n      swap1\n      pop\n        /* \"#utility.yul\":6169:6259   */\n      swap2\n      swap1\n      pop\n      jump\t// out\n        /* \"#utility.yul\":6265:6374   */\n    tag_452:\n        /* \"#utility.yul\":6346:6367   */\n      tag_588\n        /* \"#utility.yul\":6361:6366   */\n      dup2\n        /* \"#utility.yul\":6346:6367   */\n      tag_451\n      jump\t// in\n    tag_588:\n        /* \"#utility.yul\":6341:6344   */\n      dup3\n        /* \"#utility.yul\":6334:6368   */\n      mstore\n        /* \"#utility.yul\":6265:6374   */\n      pop\n      pop\n      jump\t// out\n        /* \"#utility.yul\":6380:7476   */\n    tag_114:\n        /* \"#utility.yul\":6691:6695   */\n      0x00\n        /* \"#utility.yul\":6729:6732   */\n      0x0120\n        /* \"#utility.yul\":6718:6727   */\n      dup3\n        /* \"#utility.yul\":6714:6733   */\n      add\n        /* \"#utility.yul\":6706:6733   */\n      swap1\n      pop\n        /* \"#utility.yul\":6743:6814   */\n      tag_590\n        /* \"#utility.yul\":6811:6812   */\n      0x00\n        /* \"#utility.yul\":6800:6809   */\n      dup4\n        /* \"#utility.yul\":6796:6813   */\n      add\n        /* \"#utility.yul\":6787:6793   */\n      dup13\n        /* \"#utility.yul\":6743:6814   */\n      tag_438\n      jump\t// in\n    tag_590:\n        /* \"#utility.yul\":6824:6896   */\n      tag_591\n        /* \"#utility.yul\":6892:6894   */\n      0x20\n        /* \"#utility.yul\":6881:6890   */\n      dup4\n        /* \"#utility.yul\":6877:6895   */\n      add\n        /* \"#utility.yul\":6868:6874   */\n      dup12\n        /* \"#utility.yul\":6824:6896   */\n      tag_450\n      jump\t// in\n    tag_591:\n        /* \"#utility.yul\":6906:6978   */\n      tag_592\n        /* \"#utility.yul\":6974:6976   */\n      0x40\n        /* \"#utility.yul\":6963:6972   */\n      dup4\n        /* \"#utility.yul\":6959:6977   */\n      add\n        /* \"#utility.yul\":6950:6956   */\n      dup11\n        /* \"#utility.yul\":6906:6978   */\n      tag_438\n      jump\t// in\n    tag_592:\n        /* \"#utility.yul\":6988:7060   */\n      tag_593\n        /* \"#utility.yul\":7056:7058   */\n      0x60\n        /* \"#utility.yul\":7045:7054   */\n      dup4\n        /* \"#utility.yul\":7041:7059   */\n      add\n        /* \"#utility.yul\":7032:7038   */\n      dup10\n        /* \"#utility.yul\":6988:7060   */\n      tag_438\n      jump\t// in\n    tag_593:\n        /* \"#utility.yul\":7070:7143   */\n      tag_594\n        /* \"#utility.yul\":7138:7141   */\n      0x80\n        /* \"#utility.yul\":7127:7136   */\n      dup4\n        /* \"#utility.yul\":7123:7142   */\n      add\n        /* \"#utility.yul\":7114:7120   */\n      dup9\n        /* \"#utility.yul\":7070:7143   */\n      tag_438\n      jump\t// in\n    tag_594:\n        /* \"#utility.yul\":7153:7226   */\n      tag_595\n        /* \"#utility.yul\":7221:7224   */\n      0xa0\n        /* \"#utility.yul\":7210:7219   */\n      dup4\n        /* \"#utility.yul\":7206:7225   */\n      add\n        /* \"#utility.yul\":7197:7203   */\n      dup8\n        /* \"#utility.yul\":7153:7226   */\n      tag_438\n      jump\t// in\n    tag_595:\n        /* \"#utility.yul\":7236:7309   */\n      tag_596\n        /* \"#utility.yul\":7304:7307   */\n      0xc0\n        /* \"#utility.yul\":7293:7302   */\n      dup4\n        /* \"#utility.yul\":7289:7308   */\n      add\n        /* \"#utility.yul\":7280:7286   */\n      dup7\n        /* \"#utility.yul\":7236:7309   */\n      tag_438\n      jump\t// in\n    tag_596:\n        /* \"#utility.yul\":7319:7386   */\n      tag_597\n        /* \"#utility.yul\":7381:7384   */\n      0xe0\n        /* \"#utility.yul\":7370:7379   */\n      dup4\n        /* \"#utility.yul\":7366:7385   */\n      add\n        /* \"#utility.yul\":7357:7363   */\n      dup6\n        /* \"#utility.yul\":7319:7386   */\n      tag_452\n      jump\t// in\n    tag_597:\n        /* \"#utility.yul\":7396:7469   */\n      tag_598\n        /* \"#utility.yul\":7464:7467   */\n      0x0100\n        /* \"#utility.yul\":7453:7462   */\n      dup4\n        /* \"#utility.yul\":7449:7468   */\n      add\n        /* \"#utility.yul\":7440:7446   */\n      dup5\n        /* \"#utility.yul\":7396:7469   */\n      tag_438\n      jump\t// in\n    tag_598:\n        /* \"#utility.yul\":6380:7476   */\n      swap11\n      swap10\n      pop\n      pop\n      pop\n      pop\n      pop\n      pop\n      pop\n      pop\n      pop\n      pop\n      jump\t// out\n        /* \"#utility.yul\":7482:7620   */\n    tag_453:\n        /* \"#utility.yul\":7573:7579   */\n      0x00\n        /* \"#utility.yul\":7607:7612   */\n      dup2\n        /* \"#utility.yul\":7601:7613   */\n      mload\n        /* \"#utility.yul\":7591:7613   */\n      swap1\n      pop\n        /* \"#utility.yul\":7482:7620   */\n      swap2\n      swap1\n      pop\n      jump\t// out\n        /* \"#utility.yul\":7626:7834   */\n    tag_454:\n        /* \"#utility.yul\":7749:7760   */\n      0x00\n        /* \"#utility.yul\":7783:7789   */\n      dup3\n        /* \"#utility.yul\":7778:7781   */\n      dup3\n        /* \"#utility.yul\":7771:7790   */\n      mstore\n        /* \"#utility.yul\":7823:7827   */\n      0x20\n        /* \"#utility.yul\":7818:7821   */\n      dup3\n        /* \"#utility.yul\":7814:7828   */\n      add\n        /* \"#utility.yul\":7799:7828   */\n      swap1\n      pop\n        /* \"#utility.yul\":7626:7834   */\n      swap3\n      swap2\n      pop\n      pop\n      jump\t// out\n        /* \"#utility.yul\":7840:7996   */\n    tag_455:\n        /* \"#utility.yul\":7931:7935   */\n      0x00\n        /* \"#utility.yul\":7954:7957   */\n      dup2\n        /* \"#utility.yul\":7946:7957   */\n      swap1\n      pop\n        /* \"#utility.yul\":7984:7988   */\n      0x20\n        /* \"#utility.yul\":7979:7982   */\n      dup3\n        /* \"#utility.yul\":7975:7989   */\n      add\n        /* \"#utility.yul\":7967:7989   */\n      swap1\n      pop\n        /* \"#utility.yul\":7840:7996   */\n      swap2\n      swap1\n      pop\n      jump\t// out\n        /* \"#utility.yul\":8002:8110   */\n    tag_456:\n        /* \"#utility.yul\":8079:8103   */\n      tag_603\n        /* \"#utility.yul\":8097:8102   */\n      dup2\n        /* \"#utility.yul\":8079:8103   */\n      tag_440\n      jump\t// in\n    tag_603:\n        /* \"#utility.yul\":8074:8077   */\n      dup3\n        /* \"#utility.yul\":8067:8104   */\n      mstore\n        /* \"#utility.yul\":8002:8110   */\n      pop\n      pop\n      jump\t// out\n        /* \"#utility.yul\":8116:8215   */\n    tag_457:\n        /* \"#utility.yul\":8187:8208   */\n      tag_605\n        /* \"#utility.yul\":8202:8207   */\n      dup2\n        /* \"#utility.yul\":8187:8208   */\n      tag_451\n      jump\t// in\n    tag_605:\n        /* \"#utility.yul\":8182:8185   */\n      dup3\n        /* \"#utility.yul\":8175:8209   */\n      mstore\n        /* \"#utility.yul\":8116:8215   */\n      pop\n      pop\n      jump\t// out\n        /* \"#utility.yul\":8287:10062   */\n    tag_458:\n        /* \"#utility.yul\":8422:8428   */\n      0x0120\n        /* \"#utility.yul\":8417:8420   */\n      dup3\n        /* \"#utility.yul\":8413:8429   */\n      add\n        /* \"#utility.yul\":8517:8521   */\n      0x00\n        /* \"#utility.yul\":8510:8515   */\n      dup3\n        /* \"#utility.yul\":8506:8522   */\n      add\n        /* \"#utility.yul\":8500:8523   */\n      mload\n        /* \"#utility.yul\":8536:8599   */\n      tag_607\n        /* \"#utility.yul\":8593:8597   */\n      0x00\n        /* \"#utility.yul\":8588:8591   */\n      dup6\n        /* \"#utility.yul\":8584:8598   */\n      add\n        /* \"#utility.yul\":8570:8582   */\n      dup3\n        /* \"#utility.yul\":8536:8599   */\n      tag_446\n      jump\t// in\n    tag_607:\n        /* \"#utility.yul\":8439:8609   */\n      pop\n        /* \"#utility.yul\":8700:8704   */\n      0x20\n        /* \"#utility.yul\":8693:8698   */\n      dup3\n        /* \"#utility.yul\":8689:8705   */\n      add\n        /* \"#utility.yul\":8683:8706   */\n      mload\n        /* \"#utility.yul\":8719:8782   */\n      tag_608\n        /* \"#utility.yul\":8776:8780   */\n      0x20\n        /* \"#utility.yul\":8771:8774   */\n      dup6\n        /* \"#utility.yul\":8767:8781   */\n      add\n        /* \"#utility.yul\":8753:8765   */\n      dup3\n        /* \"#utility.yul\":8719:8782   */\n      tag_456\n      jump\t// in\n    tag_608:\n        /* \"#utility.yul\":8619:8792   */\n      pop\n        /* \"#utility.yul\":8881:8885   */\n      0x40\n        /* \"#utility.yul\":8874:8879   */\n      dup3\n        /* \"#utility.yul\":8870:8886   */\n      add\n        /* \"#utility.yul\":8864:8887   */\n      mload\n        /* \"#utility.yul\":8900:8963   */\n      tag_609\n        /* \"#utility.yul\":8957:8961   */\n      0x40\n        /* \"#utility.yul\":8952:8955   */\n      dup6\n        /* \"#utility.yul\":8948:8962   */\n      add\n        /* \"#utility.yul\":8934:8946   */\n      dup3\n        /* \"#utility.yul\":8900:8963   */\n      tag_446\n      jump\t// in\n    tag_609:\n        /* \"#utility.yul\":8802:8973   */\n      pop\n        /* \"#utility.yul\":9061:9065   */\n      0x60\n        /* \"#utility.yul\":9054:9059   */\n      dup3\n        /* \"#utility.yul\":9050:9066   */\n      add\n        /* \"#utility.yul\":9044:9067   */\n      mload\n        /* \"#utility.yul\":9080:9143   */\n      tag_610\n        /* \"#utility.yul\":9137:9141   */\n      0x60\n        /* \"#utility.yul\":9132:9135   */\n      dup6\n        /* \"#utility.yul\":9128:9142   */\n      add\n        /* \"#utility.yul\":9114:9126   */\n      dup3\n        /* \"#utility.yul\":9080:9143   */\n      tag_446\n      jump\t// in\n    tag_610:\n        /* \"#utility.yul\":8983:9153   */\n      pop\n        /* \"#utility.yul\":9246:9250   */\n      0x80\n        /* \"#utility.yul\":9239:9244   */\n      dup3\n        /* \"#utility.yul\":9235:9251   */\n      add\n        /* \"#utility.yul\":9229:9252   */\n      mload\n        /* \"#utility.yul\":9265:9328   */\n      tag_611\n        /* \"#utility.yul\":9322:9326   */\n      0x80\n        /* \"#utility.yul\":9317:9320   */\n      dup6\n        /* \"#utility.yul\":9313:9327   */\n      add\n        /* \"#utility.yul\":9299:9311   */\n      dup3\n        /* \"#utility.yul\":9265:9328   */\n      tag_446\n      jump\t// in\n    tag_611:\n        /* \"#utility.yul\":9163:9338   */\n      pop\n        /* \"#utility.yul\":9425:9429   */\n      0xa0\n        /* \"#utility.yul\":9418:9423   */\n      dup3\n        /* \"#utility.yul\":9414:9430   */\n      add\n        /* \"#utility.yul\":9408:9431   */\n      mload\n        /* \"#utility.yul\":9444:9507   */\n      tag_612\n        /* \"#utility.yul\":9501:9505   */\n      0xa0\n        /* \"#utility.yul\":9496:9499   */\n      dup6\n        /* \"#utility.yul\":9492:9506   */\n      add\n        /* \"#utility.yul\":9478:9490   */\n      dup3\n        /* \"#utility.yul\":9444:9507   */\n      tag_446\n      jump\t// in\n    tag_612:\n        /* \"#utility.yul\":9348:9517   */\n      pop\n        /* \"#utility.yul\":9606:9610   */\n      0xc0\n        /* \"#utility.yul\":9599:9604   */\n      dup3\n        /* \"#utility.yul\":9595:9611   */\n      add\n        /* \"#utility.yul\":9589:9612   */\n      mload\n        /* \"#utility.yul\":9625:9688   */\n      tag_613\n        /* \"#utility.yul\":9682:9686   */\n      0xc0\n        /* \"#utility.yul\":9677:9680   */\n      dup6\n        /* \"#utility.yul\":9673:9687   */\n      add\n        /* \"#utility.yul\":9659:9671   */\n      dup3\n        /* \"#utility.yul\":9625:9688   */\n      tag_446\n      jump\t// in\n    tag_613:\n        /* \"#utility.yul\":9527:9698   */\n      pop\n        /* \"#utility.yul\":9780:9784   */\n      0xe0\n        /* \"#utility.yul\":9773:9778   */\n      dup3\n        /* \"#utility.yul\":9769:9785   */\n      add\n        /* \"#utility.yul\":9763:9786   */\n      mload\n        /* \"#utility.yul\":9799:9856   */\n      tag_614\n        /* \"#utility.yul\":9850:9854   */\n      0xe0\n        /* \"#utility.yul\":9845:9848   */\n      dup6\n        /* \"#utility.yul\":9841:9855   */\n      add\n        /* \"#utility.yul\":9827:9839   */\n      dup3\n        /* \"#utility.yul\":9799:9856   */\n      tag_457\n      jump\t// in\n    tag_614:\n        /* \"#utility.yul\":9708:9866   */\n      pop\n        /* \"#utility.yul\":9959:9965   */\n      0x0100\n        /* \"#utility.yul\":9952:9957   */\n      dup3\n        /* \"#utility.yul\":9948:9966   */\n      add\n        /* \"#utility.yul\":9942:9967   */\n      mload\n        /* \"#utility.yul\":9980:10045   */\n      tag_615\n        /* \"#utility.yul\":10037:10043   */\n      0x0100\n        /* \"#utility.yul\":10032:10035   */\n      dup6\n        /* \"#utility.yul\":10028:10044   */\n      add\n        /* \"#utility.yul\":10014:10026   */\n      dup3\n        /* \"#utility.yul\":9980:10045   */\n      tag_446\n      jump\t// in\n    tag_615:\n        /* \"#utility.yul\":9876:10055   */\n      pop\n        /* \"#utility.yul\":8391:10062   */\n      pop\n        /* \"#utility.yul\":8287:10062   */\n      pop\n      pop\n      jump\t// out\n        /* \"#utility.yul\":10068:10345   */\n    tag_459:\n        /* \"#utility.yul\":10185:10195   */\n      0x00\n        /* \"#utility.yul\":10206:10300   */\n      tag_617\n        /* \"#utility.yul\":10296:10299   */\n      dup4\n        /* \"#utility.yul\":10288:10294   */\n      dup4\n        /* \"#utility.yul\":10206:10300   */\n      tag_458\n      jump\t// in\n    tag_617:\n        /* \"#utility.yul\":10332:10338   */\n      0x0120\n        /* \"#utility.yul\":10327:10330   */\n      dup4\n        /* \"#utility.yul\":10323:10339   */\n      add\n        /* \"#utility.yul\":10309:10339   */\n      swap1\n      pop\n        /* \"#utility.yul\":10068:10345   */\n      swap3\n      swap2\n      pop\n      pop\n      jump\t// out\n        /* \"#utility.yul\":10351:10488   */\n    tag_460:\n        /* \"#utility.yul\":10445:10449   */\n      0x00\n        /* \"#utility.yul\":10477:10481   */\n      0x20\n        /* \"#utility.yul\":10472:10475   */\n      dup3\n        /* \"#utility.yul\":10468:10482   */\n      add\n        /* \"#utility.yul\":10460:10482   */\n      swap1\n      pop\n        /* \"#utility.yul\":10351:10488   */\n      swap2\n      swap1\n      pop\n      jump\t// out\n        /* \"#utility.yul\":10564:11488   */\n    tag_461:\n        /* \"#utility.yul\":10731:10734   */\n      0x00\n        /* \"#utility.yul\":10760:10838   */\n      tag_620\n        /* \"#utility.yul\":10832:10837   */\n      dup3\n        /* \"#utility.yul\":10760:10838   */\n      tag_453\n      jump\t// in\n    tag_620:\n        /* \"#utility.yul\":10854:10964   */\n      tag_621\n        /* \"#utility.yul\":10957:10963   */\n      dup2\n        /* \"#utility.yul\":10952:10955   */\n      dup6\n        /* \"#utility.yul\":10854:10964   */\n      tag_454\n      jump\t// in\n    tag_621:\n        /* \"#utility.yul\":10847:10964   */\n      swap4\n      pop\n        /* \"#utility.yul\":10988:11068   */\n      tag_622\n        /* \"#utility.yul\":11062:11067   */\n      dup4\n        /* \"#utility.yul\":10988:11068   */\n      tag_455\n      jump\t// in\n    tag_622:\n        /* \"#utility.yul\":11091:11098   */\n      dup1\n        /* \"#utility.yul\":11122:11123   */\n      0x00\n        /* \"#utility.yul\":11107:11463   */\n    tag_623:\n        /* \"#utility.yul\":11132:11138   */\n      dup4\n        /* \"#utility.yul\":11129:11130   */\n      dup2\n        /* \"#utility.yul\":11126:11139   */\n      lt\n        /* \"#utility.yul\":11107:11463   */\n      iszero\n      tag_625\n      jumpi\n        /* \"#utility.yul\":11208:11214   */\n      dup2\n        /* \"#utility.yul\":11202:11215   */\n      mload\n        /* \"#utility.yul\":11235:11346   */\n      tag_626\n        /* \"#utility.yul\":11342:11345   */\n      dup9\n        /* \"#utility.yul\":11327:11340   */\n      dup3\n        /* \"#utility.yul\":11235:11346   */\n      tag_459\n      jump\t// in\n    tag_626:\n        /* \"#utility.yul\":11228:11346   */\n      swap8\n      pop\n        /* \"#utility.yul\":11369:11453   */\n      tag_627\n        /* \"#utility.yul\":11446:11452   */\n      dup4\n        /* \"#utility.yul\":11369:11453   */\n      tag_460\n      jump\t// in\n    tag_627:\n        /* \"#utility.yul\":11359:11453   */\n      swap3\n      pop\n        /* \"#utility.yul\":11167:11463   */\n      pop\n        /* \"#utility.yul\":11154:11155   */\n      0x01\n        /* \"#utility.yul\":11151:11152   */\n      dup2\n        /* \"#utility.yul\":11147:11156   */\n      add\n        /* \"#utility.yul\":11142:11156   */\n      swap1\n      pop\n        /* \"#utility.yul\":11107:11463   */\n      jump(tag_623)\n    tag_625:\n        /* \"#utility.yul\":11111:11125   */\n      pop\n        /* \"#utility.yul\":11479:11482   */\n      dup6\n        /* \"#utility.yul\":11472:11482   */\n      swap4\n      pop\n        /* \"#utility.yul\":10736:11488   */\n      pop\n      pop\n      pop\n        /* \"#utility.yul\":10564:11488   */\n      swap3\n      swap2\n      pop\n      pop\n      jump\t// out\n        /* \"#utility.yul\":11494:11963   */\n    tag_132:\n        /* \"#utility.yul\":11685:11689   */\n      0x00\n        /* \"#utility.yul\":11723:11725   */\n      0x20\n        /* \"#utility.yul\":11712:11721   */\n      dup3\n        /* \"#utility.yul\":11708:11726   */\n      add\n        /* \"#utility.yul\":11700:11726   */\n      swap1\n      pop\n        /* \"#utility.yul\":11772:11781   */\n      dup2\n        /* \"#utility.yul\":11766:11770   */\n      dup2\n        /* \"#utility.yul\":11762:11782   */\n      sub\n        /* \"#utility.yul\":11758:11759   */\n      0x00\n        /* \"#utility.yul\":11747:11756   */\n      dup4\n        /* \"#utility.yul\":11743:11760   */\n      add\n        /* \"#utility.yul\":11736:11783   */\n      mstore\n        /* \"#utility.yul\":11800:11956   */\n      tag_629\n        /* \"#utility.yul\":11951:11955   */\n      dup2\n        /* \"#utility.yul\":11942:11948   */\n      dup5\n        /* \"#utility.yul\":11800:11956   */\n      tag_461\n      jump\t// in\n    tag_629:\n        /* \"#utility.yul\":11792:11956   */\n      swap1\n      pop\n        /* \"#utility.yul\":11494:11963   */\n      swap3\n      swap2\n      pop\n      pop\n      jump\t// out\n        /* \"#utility.yul\":11969:12633   */\n    tag_137:\n        /* \"#utility.yul\":12174:12178   */\n      0x00\n        /* \"#utility.yul\":12212:12215   */\n      0xa0\n        /* \"#utility.yul\":12201:12210   */\n      dup3\n        /* \"#utility.yul\":12197:12216   */\n      add\n        /* \"#utility.yul\":12189:12216   */\n      swap1\n      pop\n        /* \"#utility.yul\":12226:12297   */\n      tag_631\n        /* \"#utility.yul\":12294:12295   */\n      0x00\n        /* \"#utility.yul\":12283:12292   */\n      dup4\n        /* \"#utility.yul\":12279:12296   */\n      add\n        /* \"#utility.yul\":12270:12276   */\n      dup9\n        /* \"#utility.yul\":12226:12297   */\n      tag_450\n      jump\t// in\n    tag_631:\n        /* \"#utility.yul\":12307:12379   */\n      tag_632\n        /* \"#utility.yul\":12375:12377   */\n      0x20\n        /* \"#utility.yul\":12364:12373   */\n      dup4\n        /* \"#utility.yul\":12360:12378   */\n      add\n        /* \"#utility.yul\":12351:12357   */\n      dup8\n        /* \"#utility.yul\":12307:12379   */\n      tag_438\n      jump\t// in\n    tag_632:\n        /* \"#utility.yul\":12389:12461   */\n      tag_633\n        /* \"#utility.yul\":12457:12459   */\n      0x40\n        /* \"#utility.yul\":12446:12455   */\n      dup4\n        /* \"#utility.yul\":12442:12460   */\n      add\n        /* \"#utility.yul\":12433:12439   */\n      dup7\n        /* \"#utility.yul\":12389:12461   */\n      tag_438\n      jump\t// in\n    tag_633:\n        /* \"#utility.yul\":12471:12543   */\n      tag_634\n        /* \"#utility.yul\":12539:12541   */\n      0x60\n        /* \"#utility.yul\":12528:12537   */\n      dup4\n        /* \"#utility.yul\":12524:12542   */\n      add\n        /* \"#utility.yul\":12515:12521   */\n      dup6\n        /* \"#utility.yul\":12471:12543   */\n      tag_438\n      jump\t// in\n    tag_634:\n        /* \"#utility.yul\":12553:12626   */\n      tag_635\n        /* \"#utility.yul\":12621:12624   */\n      0x80\n        /* \"#utility.yul\":12610:12619   */\n      dup4\n        /* \"#utility.yul\":12606:12625   */\n      add\n        /* \"#utility.yul\":12597:12603   */\n      dup5\n        /* \"#utility.yul\":12553:12626   */\n      tag_438\n      jump\t// in\n    tag_635:\n        /* \"#utility.yul\":11969:12633   */\n      swap7\n      swap6\n      pop\n      pop\n      pop\n      pop\n      pop\n      pop\n      jump\t// out\n        /* \"#utility.yul\":12705:14490   */\n    tag_462:\n        /* \"#utility.yul\":12850:12856   */\n      0x0120\n        /* \"#utility.yul\":12845:12848   */\n      dup3\n        /* \"#utility.yul\":12841:12857   */\n      add\n        /* \"#utility.yul\":12945:12949   */\n      0x00\n        /* \"#utility.yul\":12938:12943   */\n      dup3\n        /* \"#utility.yul\":12934:12950   */\n      add\n        /* \"#utility.yul\":12928:12951   */\n      mload\n        /* \"#utility.yul\":12964:13027   */\n      tag_637\n        /* \"#utility.yul\":13021:13025   */\n      0x00\n        /* \"#utility.yul\":13016:13019   */\n      dup6\n        /* \"#utility.yul\":13012:13026   */\n      add\n        /* \"#utility.yul\":12998:13010   */\n      dup3\n        /* \"#utility.yul\":12964:13027   */\n      tag_446\n      jump\t// in\n    tag_637:\n        /* \"#utility.yul\":12867:13037   */\n      pop\n        /* \"#utility.yul\":13128:13132   */\n      0x20\n        /* \"#utility.yul\":13121:13126   */\n      dup3\n        /* \"#utility.yul\":13117:13133   */\n      add\n        /* \"#utility.yul\":13111:13134   */\n      mload\n        /* \"#utility.yul\":13147:13210   */\n      tag_638\n        /* \"#utility.yul\":13204:13208   */\n      0x20\n        /* \"#utility.yul\":13199:13202   */\n      dup6\n        /* \"#utility.yul\":13195:13209   */\n      add\n        /* \"#utility.yul\":13181:13193   */\n      dup3\n        /* \"#utility.yul\":13147:13210   */\n      tag_456\n      jump\t// in\n    tag_638:\n        /* \"#utility.yul\":13047:13220   */\n      pop\n        /* \"#utility.yul\":13309:13313   */\n      0x40\n        /* \"#utility.yul\":13302:13307   */\n      dup3\n        /* \"#utility.yul\":13298:13314   */\n      add\n        /* \"#utility.yul\":13292:13315   */\n      mload\n        /* \"#utility.yul\":13328:13391   */\n      tag_639\n        /* \"#utility.yul\":13385:13389   */\n      0x40\n        /* \"#utility.yul\":13380:13383   */\n      dup6\n        /* \"#utility.yul\":13376:13390   */\n      add\n        /* \"#utility.yul\":13362:13374   */\n      dup3\n        /* \"#utility.yul\":13328:13391   */\n      tag_446\n      jump\t// in\n    tag_639:\n        /* \"#utility.yul\":13230:13401   */\n      pop\n        /* \"#utility.yul\":13489:13493   */\n      0x60\n        /* \"#utility.yul\":13482:13487   */\n      dup3\n        /* \"#utility.yul\":13478:13494   */\n      add\n        /* \"#utility.yul\":13472:13495   */\n      mload\n        /* \"#utility.yul\":13508:13571   */\n      tag_640\n        /* \"#utility.yul\":13565:13569   */\n      0x60\n        /* \"#utility.yul\":13560:13563   */\n      dup6\n        /* \"#utility.yul\":13556:13570   */\n      add\n        /* \"#utility.yul\":13542:13554   */\n      dup3\n        /* \"#utility.yul\":13508:13571   */\n      tag_446\n      jump\t// in\n    tag_640:\n        /* \"#utility.yul\":13411:13581   */\n      pop\n        /* \"#utility.yul\":13674:13678   */\n      0x80\n        /* \"#utility.yul\":13667:13672   */\n      dup3\n        /* \"#utility.yul\":13663:13679   */\n      add\n        /* \"#utility.yul\":13657:13680   */\n      mload\n        /* \"#utility.yul\":13693:13756   */\n      tag_641\n        /* \"#utility.yul\":13750:13754   */\n      0x80\n        /* \"#utility.yul\":13745:13748   */\n      dup6\n        /* \"#utility.yul\":13741:13755   */\n      add\n        /* \"#utility.yul\":13727:13739   */\n      dup3\n        /* \"#utility.yul\":13693:13756   */\n      tag_446\n      jump\t// in\n    tag_641:\n        /* \"#utility.yul\":13591:13766   */\n      pop\n        /* \"#utility.yul\":13853:13857   */\n      0xa0\n        /* \"#utility.yul\":13846:13851   */\n      dup3\n        /* \"#utility.yul\":13842:13858   */\n      add\n        /* \"#utility.yul\":13836:13859   */\n      mload\n        /* \"#utility.yul\":13872:13935   */\n      tag_642\n        /* \"#utility.yul\":13929:13933   */\n      0xa0\n        /* \"#utility.yul\":13924:13927   */\n      dup6\n        /* \"#utility.yul\":13920:13934   */\n      add\n        /* \"#utility.yul\":13906:13918   */\n      dup3\n        /* \"#utility.yul\":13872:13935   */\n      tag_446\n      jump\t// in\n    tag_642:\n        /* \"#utility.yul\":13776:13945   */\n      pop\n        /* \"#utility.yul\":14034:14038   */\n      0xc0\n        /* \"#utility.yul\":14027:14032   */\n      dup3\n        /* \"#utility.yul\":14023:14039   */\n      add\n        /* \"#utility.yul\":14017:14040   */\n      mload\n        /* \"#utility.yul\":14053:14116   */\n      tag_643\n        /* \"#utility.yul\":14110:14114   */\n      0xc0\n        /* \"#utility.yul\":14105:14108   */\n      dup6\n        /* \"#utility.yul\":14101:14115   */\n      add\n        /* \"#utility.yul\":14087:14099   */\n      dup3\n        /* \"#utility.yul\":14053:14116   */\n      tag_446\n      jump\t// in\n    tag_643:\n        /* \"#utility.yul\":13955:14126   */\n      pop\n        /* \"#utility.yul\":14208:14212   */\n      0xe0\n        /* \"#utility.yul\":14201:14206   */\n      dup3\n        /* \"#utility.yul\":14197:14213   */\n      add\n        /* \"#utility.yul\":14191:14214   */\n      mload\n        /* \"#utility.yul\":14227:14284   */\n      tag_644\n        /* \"#utility.yul\":14278:14282   */\n      0xe0\n        /* \"#utility.yul\":14273:14276   */\n      dup6\n        /* \"#utility.yul\":14269:14283   */\n      add\n        /* \"#utility.yul\":14255:14267   */\n      dup3\n        /* \"#utility.yul\":14227:14284   */\n      tag_457\n      jump\t// in\n    tag_644:\n        /* \"#utility.yul\":14136:14294   */\n      pop\n        /* \"#utility.yul\":14387:14393   */\n      0x0100\n        /* \"#utility.yul\":14380:14385   */\n      dup3\n        /* \"#utility.yul\":14376:14394   */\n      add\n        /* \"#utility.yul\":14370:14395   */\n      mload\n        /* \"#utility.yul\":14408:14473   */\n      tag_645\n        /* \"#utility.yul\":14465:14471   */\n      0x0100\n        /* \"#utility.yul\":14460:14463   */\n      dup6\n        /* \"#utility.yul\":14456:14472   */\n      add\n        /* \"#utility.yul\":14442:14454   */\n      dup3\n        /* \"#utility.yul\":14408:14473   */\n      tag_446\n      jump\t// in\n    tag_645:\n        /* \"#utility.yul\":14304:14483   */\n      pop\n        /* \"#utility.yul\":12819:14490   */\n      pop\n        /* \"#utility.yul\":12705:14490   */\n      pop\n      pop\n      jump\t// out\n        /* \"#utility.yul\":14496:14815   */\n    tag_153:\n        /* \"#utility.yul\":14637:14641   */\n      0x00\n        /* \"#utility.yul\":14675:14678   */\n      0x0120\n        /* \"#utility.yul\":14664:14673   */\n      dup3\n        /* \"#utility.yul\":14660:14679   */\n      add\n        /* \"#utility.yul\":14652:14679   */\n      swap1\n      pop\n        /* \"#utility.yul\":14689:14808   */\n      tag_647\n        /* \"#utility.yul\":14805:14806   */\n      0x00\n        /* \"#utility.yul\":14794:14803   */\n      dup4\n        /* \"#utility.yul\":14790:14807   */\n      add\n        /* \"#utility.yul\":14781:14787   */\n      dup5\n        /* \"#utility.yul\":14689:14808   */\n      tag_462\n      jump\t// in\n    tag_647:\n        /* \"#utility.yul\":14496:14815   */\n      swap3\n      swap2\n      pop\n      pop\n      jump\t// out\n        /* \"#utility.yul\":14821:14881   */\n    tag_463:\n        /* \"#utility.yul\":14849:14852   */\n      0x00\n        /* \"#utility.yul\":14870:14875   */\n      dup2\n        /* \"#utility.yul\":14863:14875   */\n      swap1\n      pop\n        /* \"#utility.yul\":14821:14881   */\n      swap2\n      swap1\n      pop\n      jump\t// out\n        /* \"#utility.yul\":14887:15029   */\n    tag_464:\n        /* \"#utility.yul\":14937:14946   */\n      0x00\n        /* \"#utility.yul\":14970:15023   */\n      tag_650\n        /* \"#utility.yul\":14988:15022   */\n      tag_651\n        /* \"#utility.yul\":14997:15021   */\n      tag_652\n        /* \"#utility.yul\":15015:15020   */\n      dup5\n        /* \"#utility.yul\":14997:15021   */\n      tag_439\n      jump\t// in\n    tag_652:\n        /* \"#utility.yul\":14988:15022   */\n      tag_463\n      jump\t// in\n    tag_651:\n        /* \"#utility.yul\":14970:15023   */\n      tag_439\n      jump\t// in\n    tag_650:\n        /* \"#utility.yul\":14957:15023   */\n      swap1\n      pop\n        /* \"#utility.yul\":14887:15029   */\n      swap2\n      swap1\n      pop\n      jump\t// out\n        /* \"#utility.yul\":15035:15161   */\n    tag_465:\n        /* \"#utility.yul\":15085:15094   */\n      0x00\n        /* \"#utility.yul\":15118:15155   */\n      tag_654\n        /* \"#utility.yul\":15149:15154   */\n      dup3\n        /* \"#utility.yul\":15118:15155   */\n      tag_464\n      jump\t// in\n    tag_654:\n        /* \"#utility.yul\":15105:15155   */\n      swap1\n      pop\n        /* \"#utility.yul\":15035:15161   */\n      swap2\n      swap1\n      pop\n      jump\t// out\n        /* \"#utility.yul\":15167:15306   */\n    tag_466:\n        /* \"#utility.yul\":15230:15239   */\n      0x00\n        /* \"#utility.yul\":15263:15300   */\n      tag_656\n        /* \"#utility.yul\":15294:15299   */\n      dup3\n        /* \"#utility.yul\":15263:15300   */\n      tag_465\n      jump\t// in\n    tag_656:\n        /* \"#utility.yul\":15250:15300   */\n      swap1\n      pop\n        /* \"#utility.yul\":15167:15306   */\n      swap2\n      swap1\n      pop\n      jump\t// out\n        /* \"#utility.yul\":15312:15469   */\n    tag_467:\n        /* \"#utility.yul\":15412:15462   */\n      tag_658\n        /* \"#utility.yul\":15456:15461   */\n      dup2\n        /* \"#utility.yul\":15412:15462   */\n      tag_466\n      jump\t// in\n    tag_658:\n        /* \"#utility.yul\":15407:15410   */\n      dup3\n        /* \"#utility.yul\":15400:15463   */\n      mstore\n        /* \"#utility.yul\":15312:15469   */\n      pop\n      pop\n      jump\t// out\n        /* \"#utility.yul\":15475:15723   */\n    tag_179:\n        /* \"#utility.yul\":15581:15585   */\n      0x00\n        /* \"#utility.yul\":15619:15621   */\n      0x20\n        /* \"#utility.yul\":15608:15617   */\n      dup3\n        /* \"#utility.yul\":15604:15622   */\n      add\n        /* \"#utility.yul\":15596:15622   */\n      swap1\n      pop\n        /* \"#utility.yul\":15632:15716   */\n      tag_660\n        /* \"#utility.yul\":15713:15714   */\n      0x00\n        /* \"#utility.yul\":15702:15711   */\n      dup4\n        /* \"#utility.yul\":15698:15715   */\n      add\n        /* \"#utility.yul\":15689:15695   */\n      dup5\n        /* \"#utility.yul\":15632:15716   */\n      tag_467\n      jump\t// in\n    tag_660:\n        /* \"#utility.yul\":15475:15723   */\n      swap3\n      swap2\n      pop\n      pop\n      jump\t// out\n        /* \"#utility.yul\":15729:15898   */\n    tag_468:\n        /* \"#utility.yul\":15813:15824   */\n      0x00\n        /* \"#utility.yul\":15847:15853   */\n      dup3\n        /* \"#utility.yul\":15842:15845   */\n      dup3\n        /* \"#utility.yul\":15835:15854   */\n      mstore\n        /* \"#utility.yul\":15887:15891   */\n      0x20\n        /* \"#utility.yul\":15882:15885   */\n      dup3\n        /* \"#utility.yul\":15878:15892   */\n      add\n        /* \"#utility.yul\":15863:15892   */\n      swap1\n      pop\n        /* \"#utility.yul\":15729:15898   */\n      swap3\n      swap2\n      pop\n      pop\n      jump\t// out\n        /* \"#utility.yul\":15904:16073   */\n    tag_469:\n        /* \"#utility.yul\":16044:16065   */\n      0x496e76616c696420706f736974696f6e20494400000000000000000000000000\n        /* \"#utility.yul\":16040:16041   */\n      0x00\n        /* \"#utility.yul\":16032:16038   */\n      dup3\n        /* \"#utility.yul\":16028:16042   */\n      add\n        /* \"#utility.yul\":16021:16066   */\n      mstore\n        /* \"#utility.yul\":15904:16073   */\n      pop\n      jump\t// out\n        /* \"#utility.yul\":16079:16445   */\n    tag_470:\n        /* \"#utility.yul\":16221:16224   */\n      0x00\n        /* \"#utility.yul\":16242:16309   */\n      tag_664\n        /* \"#utility.yul\":16306:16308   */\n      0x13\n        /* \"#utility.yul\":16301:16304   */\n      dup4\n        /* \"#utility.yul\":16242:16309   */\n      tag_468\n      jump\t// in\n    tag_664:\n        /* \"#utility.yul\":16235:16309   */\n      swap2\n      pop\n        /* \"#utility.yul\":16318:16411   */\n      tag_665\n        /* \"#utility.yul\":16407:16410   */\n      dup3\n        /* \"#utility.yul\":16318:16411   */\n      tag_469\n      jump\t// in\n    tag_665:\n        /* \"#utility.yul\":16436:16438   */\n      0x20\n        /* \"#utility.yul\":16431:16434   */\n      dup3\n        /* \"#utility.yul\":16427:16439   */\n      add\n        /* \"#utility.yul\":16420:16439   */\n      swap1\n      pop\n        /* \"#utility.yul\":16079:16445   */\n      swap2\n      swap1\n      pop\n      jump\t// out\n        /* \"#utility.yul\":16451:16870   */\n    tag_185:\n        /* \"#utility.yul\":16617:16621   */\n      0x00\n        /* \"#utility.yul\":16655:16657   */\n      0x20\n        /* \"#utility.yul\":16644:16653   */\n      dup3\n        /* \"#utility.yul\":16640:16658   */\n      add\n        /* \"#utility.yul\":16632:16658   */\n      swap1\n      pop\n        /* \"#utility.yul\":16704:16713   */\n      dup2\n        /* \"#utility.yul\":16698:16702   */\n      dup2\n        /* \"#utility.yul\":16694:16714   */\n      sub\n        /* \"#utility.yul\":16690:16691   */\n      0x00\n        /* \"#utility.yul\":16679:16688   */\n      dup4\n        /* \"#utility.yul\":16675:16692   */\n      add\n        /* \"#utility.yul\":16668:16715   */\n      mstore\n        /* \"#utility.yul\":16732:16863   */\n      tag_667\n        /* \"#utility.yul\":16858:16862   */\n      dup2\n        /* \"#utility.yul\":16732:16863   */\n      tag_470\n      jump\t// in\n    tag_667:\n        /* \"#utility.yul\":16724:16863   */\n      swap1\n      pop\n        /* \"#utility.yul\":16451:16870   */\n      swap2\n      swap1\n      pop\n      jump\t// out\n        /* \"#utility.yul\":16876:17056   */\n    tag_471:\n        /* \"#utility.yul\":16924:17001   */\n      0x4e487b7100000000000000000000000000000000000000000000000000000000\n        /* \"#utility.yul\":16921:16922   */\n      0x00\n        /* \"#utility.yul\":16914:17002   */\n      mstore\n        /* \"#utility.yul\":17021:17025   */\n      0x11\n        /* \"#utility.yul\":17018:17019   */\n      0x04\n        /* \"#utility.yul\":17011:17026   */\n      mstore\n        /* \"#utility.yul\":17045:17049   */\n      0x24\n        /* \"#utility.yul\":17042:17043   */\n      0x00\n        /* \"#utility.yul\":17035:17050   */\n      revert\n        /* \"#utility.yul\":17062:17256   */\n    tag_189:\n        /* \"#utility.yul\":17102:17106   */\n      0x00\n        /* \"#utility.yul\":17122:17142   */\n      tag_670\n        /* \"#utility.yul\":17140:17141   */\n      dup3\n        /* \"#utility.yul\":17122:17142   */\n      tag_435\n      jump\t// in\n    tag_670:\n        /* \"#utility.yul\":17117:17142   */\n      swap2\n      pop\n        /* \"#utility.yul\":17156:17176   */\n      tag_671\n        /* \"#utility.yul\":17174:17175   */\n      dup4\n        /* \"#utility.yul\":17156:17176   */\n      tag_435\n      jump\t// in\n    tag_671:\n        /* \"#utility.yul\":17151:17176   */\n      swap3\n      pop\n        /* \"#utility.yul\":17200:17201   */\n      dup3\n        /* \"#utility.yul\":17197:17198   */\n      dup3\n        /* \"#utility.yul\":17193:17202   */\n      sub\n        /* \"#utility.yul\":17185:17202   */\n      swap1\n      pop\n        /* \"#utility.yul\":17224:17225   */\n      dup2\n        /* \"#utility.yul\":17218:17222   */\n      dup2\n        /* \"#utility.yul\":17215:17226   */\n      gt\n        /* \"#utility.yul\":17212:17249   */\n      iszero\n      tag_672\n      jumpi\n        /* \"#utility.yul\":17229:17247   */\n      tag_673\n      tag_471\n      jump\t// in\n    tag_673:\n        /* \"#utility.yul\":17212:17249   */\n    tag_672:\n        /* \"#utility.yul\":17062:17256   */\n      swap3\n      swap2\n      pop\n      pop\n      jump\t// out\n        /* \"#utility.yul\":17262:17442   */\n    tag_472:\n        /* \"#utility.yul\":17310:17387   */\n      0x4e487b7100000000000000000000000000000000000000000000000000000000\n        /* \"#utility.yul\":17307:17308   */\n      0x00\n        /* \"#utility.yul\":17300:17388   */\n      mstore\n        /* \"#utility.yul\":17407:17411   */\n      0x12\n        /* \"#utility.yul\":17404:17405   */\n      0x04\n        /* \"#utility.yul\":17397:17412   */\n      mstore\n        /* \"#utility.yul\":17431:17435   */\n      0x24\n        /* \"#utility.yul\":17428:17429   */\n      0x00\n        /* \"#utility.yul\":17421:17436   */\n      revert\n        /* \"#utility.yul\":17448:17633   */\n    tag_191:\n        /* \"#utility.yul\":17488:17489   */\n      0x00\n        /* \"#utility.yul\":17505:17525   */\n      tag_676\n        /* \"#utility.yul\":17523:17524   */\n      dup3\n        /* \"#utility.yul\":17505:17525   */\n      tag_435\n      jump\t// in\n    tag_676:\n        /* \"#utility.yul\":17500:17525   */\n      swap2\n      pop\n        /* \"#utility.yul\":17539:17559   */\n      tag_677\n        /* \"#utility.yul\":17557:17558   */\n      dup4\n        /* \"#utility.yul\":17539:17559   */\n      tag_435\n      jump\t// in\n    tag_677:\n        /* \"#utility.yul\":17534:17559   */\n      swap3\n      pop\n        /* \"#utility.yul\":17578:17579   */\n      dup3\n        /* \"#utility.yul\":17568:17603   */\n      tag_678\n      jumpi\n        /* \"#utility.yul\":17583:17601   */\n      tag_679\n      tag_472\n      jump\t// in\n    tag_679:\n        /* \"#utility.yul\":17568:17603   */\n    tag_678:\n        /* \"#utility.yul\":17625:17626   */\n      dup3\n        /* \"#utility.yul\":17622:17623   */\n      dup3\n        /* \"#utility.yul\":17618:17627   */\n      div\n        /* \"#utility.yul\":17613:17627   */\n      swap1\n      pop\n        /* \"#utility.yul\":17448:17633   */\n      swap3\n      swap2\n      pop\n      pop\n      jump\t// out\n        /* \"#utility.yul\":17639:17807   */\n    tag_473:\n        /* \"#utility.yul\":17779:17799   */\n      0x506f736974696f6e20697320636c6f7365640000000000000000000000000000\n        /* \"#utility.yul\":17775:17776   */\n      0x00\n        /* \"#utility.yul\":17767:17773   */\n      dup3\n        /* \"#utility.yul\":17763:17777   */\n      add\n        /* \"#utility.yul\":17756:17800   */\n      mstore\n        /* \"#utility.yul\":17639:17807   */\n      pop\n      jump\t// out\n        /* \"#utility.yul\":17813:18179   */\n    tag_474:\n        /* \"#utility.yul\":17955:17958   */\n      0x00\n        /* \"#utility.yul\":17976:18043   */\n      tag_682\n        /* \"#utility.yul\":18040:18042   */\n      0x12\n        /* \"#utility.yul\":18035:18038   */\n      dup4\n        /* \"#utility.yul\":17976:18043   */\n      tag_468\n      jump\t// in\n    tag_682:\n        /* \"#utility.yul\":17969:18043   */\n      swap2\n      pop\n        /* \"#utility.yul\":18052:18145   */\n      tag_683\n        /* \"#utility.yul\":18141:18144   */\n      dup3\n        /* \"#utility.yul\":18052:18145   */\n      tag_473\n      jump\t// in\n    tag_683:\n        /* \"#utility.yul\":18170:18172   */\n      0x20\n        /* \"#utility.yul\":18165:18168   */\n      dup3\n        /* \"#utility.yul\":18161:18173   */\n      add\n        /* \"#utility.yul\":18154:18173   */\n      swap1\n      pop\n        /* \"#utility.yul\":17813:18179   */\n      swap2\n      swap1\n      pop\n      jump\t// out\n        /* \"#utility.yul\":18185:18604   */\n    tag_213:\n        /* \"#utility.yul\":18351:18355   */\n      0x00\n        /* \"#utility.yul\":18389:18391   */\n      0x20\n        /* \"#utility.yul\":18378:18387   */\n      dup3\n        /* \"#utility.yul\":18374:18392   */\n      add\n        /* \"#utility.yul\":18366:18392   */\n      swap1\n      pop\n        /* \"#utility.yul\":18438:18447   */\n      dup2\n        /* \"#utility.yul\":18432:18436   */\n      dup2\n        /* \"#utility.yul\":18428:18448   */\n      sub\n        /* \"#utility.yul\":18424:18425   */\n      0x00\n        /* \"#utility.yul\":18413:18422   */\n      dup4\n        /* \"#utility.yul\":18409:18426   */\n      add\n        /* \"#utility.yul\":18402:18449   */\n      mstore\n        /* \"#utility.yul\":18466:18597   */\n      tag_685\n        /* \"#utility.yul\":18592:18596   */\n      dup2\n        /* \"#utility.yul\":18466:18597   */\n      tag_474\n      jump\t// in\n    tag_685:\n        /* \"#utility.yul\":18458:18597   */\n      swap1\n      pop\n        /* \"#utility.yul\":18185:18604   */\n      swap2\n      swap1\n      pop\n      jump\t// out\n        /* \"#utility.yul\":18610:18835   */\n    tag_475:\n        /* \"#utility.yul\":18750:18784   */\n      0x4f6e6c7920706f736974696f6e206f776e65722063616e20636c61696d20696e\n        /* \"#utility.yul\":18746:18747   */\n      0x00\n        /* \"#utility.yul\":18738:18744   */\n      dup3\n        /* \"#utility.yul\":18734:18748   */\n      add\n        /* \"#utility.yul\":18727:18785   */\n      mstore\n        /* \"#utility.yul\":18819:18827   */\n      0x7465726573740000000000000000000000000000000000000000000000000000\n        /* \"#utility.yul\":18814:18816   */\n      0x20\n        /* \"#utility.yul\":18806:18812   */\n      dup3\n        /* \"#utility.yul\":18802:18817   */\n      add\n        /* \"#utility.yul\":18795:18828   */\n      mstore\n        /* \"#utility.yul\":18610:18835   */\n      pop\n      jump\t// out\n        /* \"#utility.yul\":18841:19207   */\n    tag_476:\n        /* \"#utility.yul\":18983:18986   */\n      0x00\n        /* \"#utility.yul\":19004:19071   */\n      tag_688\n        /* \"#utility.yul\":19068:19070   */\n      0x26\n        /* \"#utility.yul\":19063:19066   */\n      dup4\n        /* \"#utility.yul\":19004:19071   */\n      tag_468\n      jump\t// in\n    tag_688:\n        /* \"#utility.yul\":18997:19071   */\n      swap2\n      pop\n        /* \"#utility.yul\":19080:19173   */\n      tag_689\n        /* \"#utility.yul\":19169:19172   */\n      dup3\n        /* \"#utility.yul\":19080:19173   */\n      tag_475\n      jump\t// in\n    tag_689:\n        /* \"#utility.yul\":19198:19200   */\n      0x40\n        /* \"#utility.yul\":19193:19196   */\n      dup3\n        /* \"#utility.yul\":19189:19201   */\n      add\n        /* \"#utility.yul\":19182:19201   */\n      swap1\n      pop\n        /* \"#utility.yul\":18841:19207   */\n      swap2\n      swap1\n      pop\n      jump\t// out\n        /* \"#utility.yul\":19213:19632   */\n    tag_216:\n        /* \"#utility.yul\":19379:19383   */\n      0x00\n        /* \"#utility.yul\":19417:19419   */\n      0x20\n        /* \"#utility.yul\":19406:19415   */\n      dup3\n        /* \"#utility.yul\":19402:19420   */\n      add\n        /* \"#utility.yul\":19394:19420   */\n      swap1\n      pop\n        /* \"#utility.yul\":19466:19475   */\n      dup2\n        /* \"#utility.yul\":19460:19464   */\n      dup2\n        /* \"#utility.yul\":19456:19476   */\n      sub\n        /* \"#utility.yul\":19452:19453   */\n      0x00\n        /* \"#utility.yul\":19441:19450   */\n      dup4\n        /* \"#utility.yul\":19437:19454   */\n      add\n        /* \"#utility.yul\":19430:19477   */\n      mstore\n        /* \"#utility.yul\":19494:19625   */\n      tag_691\n        /* \"#utility.yul\":19620:19624   */\n      dup2\n        /* \"#utility.yul\":19494:19625   */\n      tag_476\n      jump\t// in\n    tag_691:\n        /* \"#utility.yul\":19486:19625   */\n      swap1\n      pop\n        /* \"#utility.yul\":19213:19632   */\n      swap2\n      swap1\n      pop\n      jump\t// out\n        /* \"#utility.yul\":19638:19884   */\n    tag_477:\n        /* \"#utility.yul\":19778:19812   */\n      0x4461696c7920696e7465726573742063616e206f6e6c7920626520636c61696d\n        /* \"#utility.yul\":19774:19775   */\n      0x00\n        /* \"#utility.yul\":19766:19772   */\n      dup3\n        /* \"#utility.yul\":19762:19776   */\n      add\n        /* \"#utility.yul\":19755:19813   */\n      mstore\n        /* \"#utility.yul\":19847:19876   */\n      0x656420666f7220313030302d646179206c6f636b20706572696f640000000000\n        /* \"#utility.yul\":19842:19844   */\n      0x20\n        /* \"#utility.yul\":19834:19840   */\n      dup3\n        /* \"#utility.yul\":19830:19845   */\n      add\n        /* \"#utility.yul\":19823:19877   */\n      mstore\n        /* \"#utility.yul\":19638:19884   */\n      pop\n      jump\t// out\n        /* \"#utility.yul\":19890:20256   */\n    tag_478:\n        /* \"#utility.yul\":20032:20035   */\n      0x00\n        /* \"#utility.yul\":20053:20120   */\n      tag_694\n        /* \"#utility.yul\":20117:20119   */\n      0x3b\n        /* \"#utility.yul\":20112:20115   */\n      dup4\n        /* \"#utility.yul\":20053:20120   */\n      tag_468\n      jump\t// in\n    tag_694:\n        /* \"#utility.yul\":20046:20120   */\n      swap2\n      pop\n        /* \"#utility.yul\":20129:20222   */\n      tag_695\n        /* \"#utility.yul\":20218:20221   */\n      dup3\n        /* \"#utility.yul\":20129:20222   */\n      tag_477\n      jump\t// in\n    tag_695:\n        /* \"#utility.yul\":20247:20249   */\n      0x40\n        /* \"#utility.yul\":20242:20245   */\n      dup3\n        /* \"#utility.yul\":20238:20250   */\n      add\n        /* \"#utility.yul\":20231:20250   */\n      swap1\n      pop\n        /* \"#utility.yul\":19890:20256   */\n      swap2\n      swap1\n      pop\n      jump\t// out\n        /* \"#utility.yul\":20262:20681   */\n    tag_221:\n        /* \"#utility.yul\":20428:20432   */\n      0x00\n        /* \"#utility.yul\":20466:20468   */\n      0x20\n        /* \"#utility.yul\":20455:20464   */\n      dup3\n        /* \"#utility.yul\":20451:20469   */\n      add\n        /* \"#utility.yul\":20443:20469   */\n      swap1\n      pop\n        /* \"#utility.yul\":20515:20524   */\n      dup2\n        /* \"#utility.yul\":20509:20513   */\n      dup2\n        /* \"#utility.yul\":20505:20525   */\n      sub\n        /* \"#utility.yul\":20501:20502   */\n      0x00\n        /* \"#utility.yul\":20490:20499   */\n      dup4\n        /* \"#utility.yul\":20486:20503   */\n      add\n        /* \"#utility.yul\":20479:20526   */\n      mstore\n        /* \"#utility.yul\":20543:20674   */\n      tag_697\n        /* \"#utility.yul\":20669:20673   */\n      dup2\n        /* \"#utility.yul\":20543:20674   */\n      tag_478\n      jump\t// in\n    tag_697:\n        /* \"#utility.yul\":20535:20674   */\n      swap1\n      pop\n        /* \"#utility.yul\":20262:20681   */\n      swap2\n      swap1\n      pop\n      jump\t// out\n        /* \"#utility.yul\":20687:20910   */\n    tag_479:\n        /* \"#utility.yul\":20827:20861   */\n      0x43616e206f6e6c7920636c61696d20696e746572657374206f6e636520706572\n        /* \"#utility.yul\":20823:20824   */\n      0x00\n        /* \"#utility.yul\":20815:20821   */\n      dup3\n        /* \"#utility.yul\":20811:20825   */\n      add\n        /* \"#utility.yul\":20804:20862   */\n      mstore\n        /* \"#utility.yul\":20896:20902   */\n      0x2064617900000000000000000000000000000000000000000000000000000000\n        /* \"#utility.yul\":20891:20893   */\n      0x20\n        /* \"#utility.yul\":20883:20889   */\n      dup3\n        /* \"#utility.yul\":20879:20894   */\n      add\n        /* \"#utility.yul\":20872:20903   */\n      mstore\n        /* \"#utility.yul\":20687:20910   */\n      pop\n      jump\t// out\n        /* \"#utility.yul\":20916:21282   */\n    tag_480:\n        /* \"#utility.yul\":21058:21061   */\n      0x00\n        /* \"#utility.yul\":21079:21146   */\n      tag_700\n        /* \"#utility.yul\":21143:21145   */\n      0x24\n        /* \"#utility.yul\":21138:21141   */\n      dup4\n        /* \"#utility.yul\":21079:21146   */\n      tag_468\n      jump\t// in\n    tag_700:\n        /* \"#utility.yul\":21072:21146   */\n      swap2\n      pop\n        /* \"#utility.yul\":21155:21248   */\n      tag_701\n        /* \"#utility.yul\":21244:21247   */\n      dup3\n        /* \"#utility.yul\":21155:21248   */\n      tag_479\n      jump\t// in\n    tag_701:\n        /* \"#utility.yul\":21273:21275   */\n      0x40\n        /* \"#utility.yul\":21268:21271   */\n      dup3\n        /* \"#utility.yul\":21264:21276   */\n      add\n        /* \"#utility.yul\":21257:21276   */\n      swap1\n      pop\n        /* \"#utility.yul\":20916:21282   */\n      swap2\n      swap1\n      pop\n      jump\t// out\n        /* \"#utility.yul\":21288:21707   */\n    tag_226:\n        /* \"#utility.yul\":21454:21458   */\n      0x00\n        /* \"#utility.yul\":21492:21494   */\n      0x20\n        /* \"#utility.yul\":21481:21490   */\n      dup3\n        /* \"#utility.yul\":21477:21495   */\n      add\n        /* \"#utility.yul\":21469:21495   */\n      swap1\n      pop\n        /* \"#utility.yul\":21541:21550   */\n      dup2\n        /* \"#utility.yul\":21535:21539   */\n      dup2\n        /* \"#utility.yul\":21531:21551   */\n      sub\n        /* \"#utility.yul\":21527:21528   */\n      0x00\n        /* \"#utility.yul\":21516:21525   */\n      dup4\n        /* \"#utility.yul\":21512:21529   */\n      add\n        /* \"#utility.yul\":21505:21552   */\n      mstore\n        /* \"#utility.yul\":21569:21700   */\n      tag_703\n        /* \"#utility.yul\":21695:21699   */\n      dup2\n        /* \"#utility.yul\":21569:21700   */\n      tag_480\n      jump\t// in\n    tag_703:\n        /* \"#utility.yul\":21561:21700   */\n      swap1\n      pop\n        /* \"#utility.yul\":21288:21707   */\n      swap2\n      swap1\n      pop\n      jump\t// out\n        /* \"#utility.yul\":21713:22123   */\n    tag_229:\n        /* \"#utility.yul\":21753:21760   */\n      0x00\n        /* \"#utility.yul\":21776:21796   */\n      tag_705\n        /* \"#utility.yul\":21794:21795   */\n      dup3\n        /* \"#utility.yul\":21776:21796   */\n      tag_435\n      jump\t// in\n    tag_705:\n        /* \"#utility.yul\":21771:21796   */\n      swap2\n      pop\n        /* \"#utility.yul\":21810:21830   */\n      tag_706\n        /* \"#utility.yul\":21828:21829   */\n      dup4\n        /* \"#utility.yul\":21810:21830   */\n      tag_435\n      jump\t// in\n    tag_706:\n        /* \"#utility.yul\":21805:21830   */\n      swap3\n      pop\n        /* \"#utility.yul\":21865:21866   */\n      dup3\n        /* \"#utility.yul\":21862:21863   */\n      dup3\n        /* \"#utility.yul\":21858:21867   */\n      mul\n        /* \"#utility.yul\":21887:21917   */\n      tag_707\n        /* \"#utility.yul\":21905:21916   */\n      dup2\n        /* \"#utility.yul\":21887:21917   */\n      tag_435\n      jump\t// in\n    tag_707:\n        /* \"#utility.yul\":21876:21917   */\n      swap2\n      pop\n        /* \"#utility.yul\":22066:22067   */\n      dup3\n        /* \"#utility.yul\":22057:22064   */\n      dup3\n        /* \"#utility.yul\":22053:22068   */\n      div\n        /* \"#utility.yul\":22050:22051   */\n      dup5\n        /* \"#utility.yul\":22047:22069   */\n      eq\n        /* \"#utility.yul\":22027:22028   */\n      dup4\n        /* \"#utility.yul\":22020:22029   */\n      iszero\n        /* \"#utility.yul\":22000:22083   */\n      or\n        /* \"#utility.yul\":21977:22116   */\n      tag_708\n      jumpi\n        /* \"#utility.yul\":22096:22114   */\n      tag_709\n      tag_471\n      jump\t// in\n    tag_709:\n        /* \"#utility.yul\":21977:22116   */\n    tag_708:\n        /* \"#utility.yul\":21761:22123   */\n      pop\n        /* \"#utility.yul\":21713:22123   */\n      swap3\n      swap2\n      pop\n      pop\n      jump\t// out\n        /* \"#utility.yul\":22129:22461   */\n    tag_233:\n        /* \"#utility.yul\":22250:22254   */\n      0x00\n        /* \"#utility.yul\":22288:22290   */\n      0x40\n        /* \"#utility.yul\":22277:22286   */\n      dup3\n        /* \"#utility.yul\":22273:22291   */\n      add\n        /* \"#utility.yul\":22265:22291   */\n      swap1\n      pop\n        /* \"#utility.yul\":22301:22372   */\n      tag_711\n        /* \"#utility.yul\":22369:22370   */\n      0x00\n        /* \"#utility.yul\":22358:22367   */\n      dup4\n        /* \"#utility.yul\":22354:22371   */\n      add\n        /* \"#utility.yul\":22345:22351   */\n      dup6\n        /* \"#utility.yul\":22301:22372   */\n      tag_450\n      jump\t// in\n    tag_711:\n        /* \"#utility.yul\":22382:22454   */\n      tag_712\n        /* \"#utility.yul\":22450:22452   */\n      0x20\n        /* \"#utility.yul\":22439:22448   */\n      dup4\n        /* \"#utility.yul\":22435:22453   */\n      add\n        /* \"#utility.yul\":22426:22432   */\n      dup5\n        /* \"#utility.yul\":22382:22454   */\n      tag_438\n      jump\t// in\n    tag_712:\n        /* \"#utility.yul\":22129:22461   */\n      swap4\n      swap3\n      pop\n      pop\n      pop\n      jump\t// out\n        /* \"#utility.yul\":22467:22583   */\n    tag_481:\n        /* \"#utility.yul\":22537:22558   */\n      tag_714\n        /* \"#utility.yul\":22552:22557   */\n      dup2\n        /* \"#utility.yul\":22537:22558   */\n      tag_451\n      jump\t// in\n    tag_714:\n        /* \"#utility.yul\":22530:22535   */\n      dup2\n        /* \"#utility.yul\":22527:22559   */\n      eq\n        /* \"#utility.yul\":22517:22577   */\n      tag_715\n      jumpi\n        /* \"#utility.yul\":22573:22574   */\n      0x00\n        /* \"#utility.yul\":22570:22571   */\n      dup1\n        /* \"#utility.yul\":22563:22575   */\n      revert\n        /* \"#utility.yul\":22517:22577   */\n    tag_715:\n        /* \"#utility.yul\":22467:22583   */\n      pop\n      jump\t// out\n        /* \"#utility.yul\":22589:22726   */\n    tag_482:\n        /* \"#utility.yul\":22643:22648   */\n      0x00\n        /* \"#utility.yul\":22674:22680   */\n      dup2\n        /* \"#utility.yul\":22668:22681   */\n      mload\n        /* \"#utility.yul\":22659:22681   */\n      swap1\n      pop\n        /* \"#utility.yul\":22690:22720   */\n      tag_717\n        /* \"#utility.yul\":22714:22719   */\n      dup2\n        /* \"#utility.yul\":22690:22720   */\n      tag_481\n      jump\t// in\n    tag_717:\n        /* \"#utility.yul\":22589:22726   */\n      swap3\n      swap2\n      pop\n      pop\n      jump\t// out\n        /* \"#utility.yul\":22732:23077   */\n    tag_237:\n        /* \"#utility.yul\":22799:22805   */\n      0x00\n        /* \"#utility.yul\":22848:22850   */\n      0x20\n        /* \"#utility.yul\":22836:22845   */\n      dup3\n        /* \"#utility.yul\":22827:22834   */\n      dup5\n        /* \"#utility.yul\":22823:22846   */\n      sub\n        /* \"#utility.yul\":22819:22851   */\n      slt\n        /* \"#utility.yul\":22816:22935   */\n      iszero\n      tag_719\n      jumpi\n        /* \"#utility.yul\":22854:22933   */\n      tag_720\n      tag_433\n      jump\t// in\n    tag_720:\n        /* \"#utility.yul\":22816:22935   */\n    tag_719:\n        /* \"#utility.yul\":22974:22975   */\n      0x00\n        /* \"#utility.yul\":22999:23060   */\n      tag_721\n        /* \"#utility.yul\":23052:23059   */\n      dup5\n        /* \"#utility.yul\":23043:23049   */\n      dup3\n        /* \"#utility.yul\":23032:23041   */\n      dup6\n        /* \"#utility.yul\":23028:23050   */\n      add\n        /* \"#utility.yul\":22999:23060   */\n      tag_482\n      jump\t// in\n    tag_721:\n        /* \"#utility.yul\":22989:23060   */\n      swap2\n      pop\n        /* \"#utility.yul\":22945:23070   */\n      pop\n        /* \"#utility.yul\":22732:23077   */\n      swap3\n      swap2\n      pop\n      pop\n      jump\t// out\n        /* \"#utility.yul\":23083:23257   */\n    tag_483:\n        /* \"#utility.yul\":23223:23249   */\n      0x496e746572657374207472616e73666572206661696c65640000000000000000\n        /* \"#utility.yul\":23219:23220   */\n      0x00\n        /* \"#utility.yul\":23211:23217   */\n      dup3\n        /* \"#utility.yul\":23207:23221   */\n      add\n        /* \"#utility.yul\":23200:23250   */\n      mstore\n        /* \"#utility.yul\":23083:23257   */\n      pop\n      jump\t// out\n        /* \"#utility.yul\":23263:23629   */\n    tag_484:\n        /* \"#utility.yul\":23405:23408   */\n      0x00\n        /* \"#utility.yul\":23426:23493   */\n      tag_724\n        /* \"#utility.yul\":23490:23492   */\n      0x18\n        /* \"#utility.yul\":23485:23488   */\n      dup4\n        /* \"#utility.yul\":23426:23493   */\n      tag_468\n      jump\t// in\n    tag_724:\n        /* \"#utility.yul\":23419:23493   */\n      swap2\n      pop\n        /* \"#utility.yul\":23502:23595   */\n      tag_725\n        /* \"#utility.yul\":23591:23594   */\n      dup3\n        /* \"#utility.yul\":23502:23595   */\n      tag_483\n      jump\t// in\n    tag_725:\n        /* \"#utility.yul\":23620:23622   */\n      0x20\n        /* \"#utility.yul\":23615:23618   */\n      dup3\n        /* \"#utility.yul\":23611:23623   */\n      add\n        /* \"#utility.yul\":23604:23623   */\n      swap1\n      pop\n        /* \"#utility.yul\":23263:23629   */\n      swap2\n      swap1\n      pop\n      jump\t// out\n        /* \"#utility.yul\":23635:24054   */\n    tag_240:\n        /* \"#utility.yul\":23801:23805   */\n      0x00\n        /* \"#utility.yul\":23839:23841   */\n      0x20\n        /* \"#utility.yul\":23828:23837   */\n      dup3\n        /* \"#utility.yul\":23824:23842   */\n      add\n        /* \"#utility.yul\":23816:23842   */\n      swap1\n      pop\n        /* \"#utility.yul\":23888:23897   */\n      dup2\n        /* \"#utility.yul\":23882:23886   */\n      dup2\n        /* \"#utility.yul\":23878:23898   */\n      sub\n        /* \"#utility.yul\":23874:23875   */\n      0x00\n        /* \"#utility.yul\":23863:23872   */\n      dup4\n        /* \"#utility.yul\":23859:23876   */\n      add\n        /* \"#utility.yul\":23852:23899   */\n      mstore\n        /* \"#utility.yul\":23916:24047   */\n      tag_727\n        /* \"#utility.yul\":24042:24046   */\n      dup2\n        /* \"#utility.yul\":23916:24047   */\n      tag_484\n      jump\t// in\n    tag_727:\n        /* \"#utility.yul\":23908:24047   */\n      swap1\n      pop\n        /* \"#utility.yul\":23635:24054   */\n      swap2\n      swap1\n      pop\n      jump\t// out\n        /* \"#utility.yul\":24060:24281   */\n    tag_485:\n        /* \"#utility.yul\":24200:24234   */\n      0x4e6f2064697265637420726566657272616c20696e636f6d6520746f20636c61\n        /* \"#utility.yul\":24196:24197   */\n      0x00\n        /* \"#utility.yul\":24188:24194   */\n      dup3\n        /* \"#utility.yul\":24184:24198   */\n      add\n        /* \"#utility.yul\":24177:24235   */\n      mstore\n        /* \"#utility.yul\":24269:24273   */\n      0x696d000000000000000000000000000000000000000000000000000000000000\n        /* \"#utility.yul\":24264:24266   */\n      0x20\n        /* \"#utility.yul\":24256:24262   */\n      dup3\n        /* \"#utility.yul\":24252:24267   */\n      add\n        /* \"#utility.yul\":24245:24274   */\n      mstore\n        /* \"#utility.yul\":24060:24281   */\n      pop\n      jump\t// out\n        /* \"#utility.yul\":24287:24653   */\n    tag_486:\n        /* \"#utility.yul\":24429:24432   */\n      0x00\n        /* \"#utility.yul\":24450:24517   */\n      tag_730\n        /* \"#utility.yul\":24514:24516   */\n      0x22\n        /* \"#utility.yul\":24509:24512   */\n      dup4\n        /* \"#utility.yul\":24450:24517   */\n      tag_468\n      jump\t// in\n    tag_730:\n        /* \"#utility.yul\":24443:24517   */\n      swap2\n      pop\n        /* \"#utility.yul\":24526:24619   */\n      tag_731\n        /* \"#utility.yul\":24615:24618   */\n      dup3\n        /* \"#utility.yul\":24526:24619   */\n      tag_485\n      jump\t// in\n    tag_731:\n        /* \"#utility.yul\":24644:24646   */\n      0x40\n        /* \"#utility.yul\":24639:24642   */\n      dup3\n        /* \"#utility.yul\":24635:24647   */\n      add\n        /* \"#utility.yul\":24628:24647   */\n      swap1\n      pop\n        /* \"#utility.yul\":24287:24653   */\n      swap2\n      swap1\n      pop\n      jump\t// out\n        /* \"#utility.yul\":24659:25078   */\n    tag_244:\n        /* \"#utility.yul\":24825:24829   */\n      0x00\n        /* \"#utility.yul\":24863:24865   */\n      0x20\n        /* \"#utility.yul\":24852:24861   */\n      dup3\n        /* \"#utility.yul\":24848:24866   */\n      add\n        /* \"#utility.yul\":24840:24866   */\n      swap1\n      pop\n        /* \"#utility.yul\":24912:24921   */\n      dup2\n        /* \"#utility.yul\":24906:24910   */\n      dup2\n        /* \"#utility.yul\":24902:24922   */\n      sub\n        /* \"#utility.yul\":24898:24899   */\n      0x00\n        /* \"#utility.yul\":24887:24896   */\n      dup4\n        /* \"#utility.yul\":24883:24900   */\n      add\n        /* \"#utility.yul\":24876:24923   */\n      mstore\n        /* \"#utility.yul\":24940:25071   */\n      tag_733\n        /* \"#utility.yul\":25066:25070   */\n      dup2\n        /* \"#utility.yul\":24940:25071   */\n      tag_486\n      jump\t// in\n    tag_733:\n        /* \"#utility.yul\":24932:25071   */\n      swap1\n      pop\n        /* \"#utility.yul\":24659:25078   */\n      swap2\n      swap1\n      pop\n      jump\t// out\n        /* \"#utility.yul\":25084:25309   */\n    tag_487:\n        /* \"#utility.yul\":25224:25258   */\n      0x44697265637420726566657272616c20696e636f6d65207472616e7366657220\n        /* \"#utility.yul\":25220:25221   */\n      0x00\n        /* \"#utility.yul\":25212:25218   */\n      dup3\n        /* \"#utility.yul\":25208:25222   */\n      add\n        /* \"#utility.yul\":25201:25259   */\n      mstore\n        /* \"#utility.yul\":25293:25301   */\n      0x6661696c65640000000000000000000000000000000000000000000000000000\n        /* \"#utility.yul\":25288:25290   */\n      0x20\n        /* \"#utility.yul\":25280:25286   */\n      dup3\n        /* \"#utility.yul\":25276:25291   */\n      add\n        /* \"#utility.yul\":25269:25302   */\n      mstore\n        /* \"#utility.yul\":25084:25309   */\n      pop\n      jump\t// out\n        /* \"#utility.yul\":25315:25681   */\n    tag_488:\n        /* \"#utility.yul\":25457:25460   */\n      0x00\n        /* \"#utility.yul\":25478:25545   */\n      tag_736\n        /* \"#utility.yul\":25542:25544   */\n      0x26\n        /* \"#utility.yul\":25537:25540   */\n      dup4\n        /* \"#utility.yul\":25478:25545   */\n      tag_468\n      jump\t// in\n    tag_736:\n        /* \"#utility.yul\":25471:25545   */\n      swap2\n      pop\n        /* \"#utility.yul\":25554:25647   */\n      tag_737\n        /* \"#utility.yul\":25643:25646   */\n      dup3\n        /* \"#utility.yul\":25554:25647   */\n      tag_487\n      jump\t// in\n    tag_737:\n        /* \"#utility.yul\":25672:25674   */\n      0x40\n        /* \"#utility.yul\":25667:25670   */\n      dup3\n        /* \"#utility.yul\":25663:25675   */\n      add\n        /* \"#utility.yul\":25656:25675   */\n      swap1\n      pop\n        /* \"#utility.yul\":25315:25681   */\n      swap2\n      swap1\n      pop\n      jump\t// out\n        /* \"#utility.yul\":25687:26106   */\n    tag_251:\n        /* \"#utility.yul\":25853:25857   */\n      0x00\n        /* \"#utility.yul\":25891:25893   */\n      0x20\n        /* \"#utility.yul\":25880:25889   */\n      dup3\n        /* \"#utility.yul\":25876:25894   */\n      add\n        /* \"#utility.yul\":25868:25894   */\n      swap1\n      pop\n        /* \"#utility.yul\":25940:25949   */\n      dup2\n        /* \"#utility.yul\":25934:25938   */\n      dup2\n        /* \"#utility.yul\":25930:25950   */\n      sub\n        /* \"#utility.yul\":25926:25927   */\n      0x00\n        /* \"#utility.yul\":25915:25924   */\n      dup4\n        /* \"#utility.yul\":25911:25928   */\n      add\n        /* \"#utility.yul\":25904:25951   */\n      mstore\n        /* \"#utility.yul\":25968:26099   */\n      tag_739\n        /* \"#utility.yul\":26094:26098   */\n      dup2\n        /* \"#utility.yul\":25968:26099   */\n      tag_488\n      jump\t// in\n    tag_739:\n        /* \"#utility.yul\":25960:26099   */\n      swap1\n      pop\n        /* \"#utility.yul\":25687:26106   */\n      swap2\n      swap1\n      pop\n      jump\t// out\n        /* \"#utility.yul\":26112:26336   */\n    tag_489:\n        /* \"#utility.yul\":26252:26286   */\n      0x4f6e6c7920746865206f776e65722063616e2063616c6c20746869732066756e\n        /* \"#utility.yul\":26248:26249   */\n      0x00\n        /* \"#utility.yul\":26240:26246   */\n      dup3\n        /* \"#utility.yul\":26236:26250   */\n      add\n        /* \"#utility.yul\":26229:26287   */\n      mstore\n        /* \"#utility.yul\":26321:26328   */\n      0x6374696f6e000000000000000000000000000000000000000000000000000000\n        /* \"#utility.yul\":26316:26318   */\n      0x20\n        /* \"#utility.yul\":26308:26314   */\n      dup3\n        /* \"#utility.yul\":26304:26319   */\n      add\n        /* \"#utility.yul\":26297:26329   */\n      mstore\n        /* \"#utility.yul\":26112:26336   */\n      pop\n      jump\t// out\n        /* \"#utility.yul\":26342:26708   */\n    tag_490:\n        /* \"#utility.yul\":26484:26487   */\n      0x00\n        /* \"#utility.yul\":26505:26572   */\n      tag_742\n        /* \"#utility.yul\":26569:26571   */\n      0x25\n        /* \"#utility.yul\":26564:26567   */\n      dup4\n        /* \"#utility.yul\":26505:26572   */\n      tag_468\n      jump\t// in\n    tag_742:\n        /* \"#utility.yul\":26498:26572   */\n      swap2\n      pop\n        /* \"#utility.yul\":26581:26674   */\n      tag_743\n        /* \"#utility.yul\":26670:26673   */\n      dup3\n        /* \"#utility.yul\":26581:26674   */\n      tag_489\n      jump\t// in\n    tag_743:\n        /* \"#utility.yul\":26699:26701   */\n      0x40\n        /* \"#utility.yul\":26694:26697   */\n      dup3\n        /* \"#utility.yul\":26690:26702   */\n      add\n        /* \"#utility.yul\":26683:26702   */\n      swap1\n      pop\n        /* \"#utility.yul\":26342:26708   */\n      swap2\n      swap1\n      pop\n      jump\t// out\n        /* \"#utility.yul\":26714:27133   */\n    tag_255:\n        /* \"#utility.yul\":26880:26884   */\n      0x00\n        /* \"#utility.yul\":26918:26920   */\n      0x20\n        /* \"#utility.yul\":26907:26916   */\n      dup3\n        /* \"#utility.yul\":26903:26921   */\n      add\n        /* \"#utility.yul\":26895:26921   */\n      swap1\n      pop\n        /* \"#utility.yul\":26967:26976   */\n      dup2\n        /* \"#utility.yul\":26961:26965   */\n      dup2\n        /* \"#utility.yul\":26957:26977   */\n      sub\n        /* \"#utility.yul\":26953:26954   */\n      0x00\n        /* \"#utility.yul\":26942:26951   */\n      dup4\n        /* \"#utility.yul\":26938:26955   */\n      add\n        /* \"#utility.yul\":26931:26978   */\n      mstore\n        /* \"#utility.yul\":26995:27126   */\n      tag_745\n        /* \"#utility.yul\":27121:27125   */\n      dup2\n        /* \"#utility.yul\":26995:27126   */\n      tag_490\n      jump\t// in\n    tag_745:\n        /* \"#utility.yul\":26987:27126   */\n      swap1\n      pop\n        /* \"#utility.yul\":26714:27133   */\n      swap2\n      swap1\n      pop\n      jump\t// out\n        /* \"#utility.yul\":27139:27282   */\n    tag_491:\n        /* \"#utility.yul\":27196:27201   */\n      0x00\n        /* \"#utility.yul\":27227:27233   */\n      dup2\n        /* \"#utility.yul\":27221:27234   */\n      mload\n        /* \"#utility.yul\":27212:27234   */\n      swap1\n      pop\n        /* \"#utility.yul\":27243:27276   */\n      tag_747\n        /* \"#utility.yul\":27270:27275   */\n      dup2\n        /* \"#utility.yul\":27243:27276   */\n      tag_436\n      jump\t// in\n    tag_747:\n        /* \"#utility.yul\":27139:27282   */\n      swap3\n      swap2\n      pop\n      pop\n      jump\t// out\n        /* \"#utility.yul\":27288:27639   */\n    tag_261:\n        /* \"#utility.yul\":27358:27364   */\n      0x00\n        /* \"#utility.yul\":27407:27409   */\n      0x20\n        /* \"#utility.yul\":27395:27404   */\n      dup3\n        /* \"#utility.yul\":27386:27393   */\n      dup5\n        /* \"#utility.yul\":27382:27405   */\n      sub\n        /* \"#utility.yul\":27378:27410   */\n      slt\n        /* \"#utility.yul\":27375:27494   */\n      iszero\n      tag_749\n      jumpi\n        /* \"#utility.yul\":27413:27492   */\n      tag_750\n      tag_433\n      jump\t// in\n    tag_750:\n        /* \"#utility.yul\":27375:27494   */\n    tag_749:\n        /* \"#utility.yul\":27533:27534   */\n      0x00\n        /* \"#utility.yul\":27558:27622   */\n      tag_751\n        /* \"#utility.yul\":27614:27621   */\n      dup5\n        /* \"#utility.yul\":27605:27611   */\n      dup3\n        /* \"#utility.yul\":27594:27603   */\n      dup6\n        /* \"#utility.yul\":27590:27612   */\n      add\n        /* \"#utility.yul\":27558:27622   */\n      tag_491\n      jump\t// in\n    tag_751:\n        /* \"#utility.yul\":27548:27622   */\n      swap2\n      pop\n        /* \"#utility.yul\":27504:27632   */\n      pop\n        /* \"#utility.yul\":27288:27639   */\n      swap3\n      swap2\n      pop\n      pop\n      jump\t// out\n        /* \"#utility.yul\":27645:27816   */\n    tag_492:\n        /* \"#utility.yul\":27785:27808   */\n      0x4e6f20746f6b656e7320746f2077697468647261770000000000000000000000\n        /* \"#utility.yul\":27781:27782   */\n      0x00\n        /* \"#utility.yul\":27773:27779   */\n      dup3\n        /* \"#utility.yul\":27769:27783   */\n      add\n        /* \"#utility.yul\":27762:27809   */\n      mstore\n        /* \"#utility.yul\":27645:27816   */\n      pop\n      jump\t// out\n        /* \"#utility.yul\":27822:28188   */\n    tag_493:\n        /* \"#utility.yul\":27964:27967   */\n      0x00\n        /* \"#utility.yul\":27985:28052   */\n      tag_754\n        /* \"#utility.yul\":28049:28051   */\n      0x15\n        /* \"#utility.yul\":28044:28047   */\n      dup4\n        /* \"#utility.yul\":27985:28052   */\n      tag_468\n      jump\t// in\n    tag_754:\n        /* \"#utility.yul\":27978:28052   */\n      swap2\n      pop\n        /* \"#utility.yul\":28061:28154   */\n      tag_755\n        /* \"#utility.yul\":28150:28153   */\n      dup3\n        /* \"#utility.yul\":28061:28154   */\n      tag_492\n      jump\t// in\n    tag_755:\n        /* \"#utility.yul\":28179:28181   */\n      0x20\n        /* \"#utility.yul\":28174:28177   */\n      dup3\n        /* \"#utility.yul\":28170:28182   */\n      add\n        /* \"#utility.yul\":28163:28182   */\n      swap1\n      pop\n        /* \"#utility.yul\":27822:28188   */\n      swap2\n      swap1\n      pop\n      jump\t// out\n        /* \"#utility.yul\":28194:28613   */\n    tag_264:\n        /* \"#utility.yul\":28360:28364   */\n      0x00\n        /* \"#utility.yul\":28398:28400   */\n      0x20\n        /* \"#utility.yul\":28387:28396   */\n      dup3\n        /* \"#utility.yul\":28383:28401   */\n      add\n        /* \"#utility.yul\":28375:28401   */\n      swap1\n      pop\n        /* \"#utility.yul\":28447:28456   */\n      dup2\n        /* \"#utility.yul\":28441:28445   */\n      dup2\n        /* \"#utility.yul\":28437:28457   */\n      sub\n        /* \"#utility.yul\":28433:28434   */\n      0x00\n        /* \"#utility.yul\":28422:28431   */\n      dup4\n        /* \"#utility.yul\":28418:28435   */\n      add\n        /* \"#utility.yul\":28411:28458   */\n      mstore\n        /* \"#utility.yul\":28475:28606   */\n      tag_757\n        /* \"#utility.yul\":28601:28605   */\n      dup2\n        /* \"#utility.yul\":28475:28606   */\n      tag_493\n      jump\t// in\n    tag_757:\n        /* \"#utility.yul\":28467:28606   */\n      swap1\n      pop\n        /* \"#utility.yul\":28194:28613   */\n      swap2\n      swap1\n      pop\n      jump\t// out\n        /* \"#utility.yul\":28619:28790   */\n    tag_494:\n        /* \"#utility.yul\":28759:28782   */\n      0x546f6b656e207472616e73666572206661696c65640000000000000000000000\n        /* \"#utility.yul\":28755:28756   */\n      0x00\n        /* \"#utility.yul\":28747:28753   */\n      dup3\n        /* \"#utility.yul\":28743:28757   */\n      add\n        /* \"#utility.yul\":28736:28783   */\n      mstore\n        /* \"#utility.yul\":28619:28790   */\n      pop\n      jump\t// out\n        /* \"#utility.yul\":28796:29162   */\n    tag_495:\n        /* \"#utility.yul\":28938:28941   */\n      0x00\n        /* \"#utility.yul\":28959:29026   */\n      tag_760\n        /* \"#utility.yul\":29023:29025   */\n      0x15\n        /* \"#utility.yul\":29018:29021   */\n      dup4\n        /* \"#utility.yul\":28959:29026   */\n      tag_468\n      jump\t// in\n    tag_760:\n        /* \"#utility.yul\":28952:29026   */\n      swap2\n      pop\n        /* \"#utility.yul\":29035:29128   */\n      tag_761\n        /* \"#utility.yul\":29124:29127   */\n      dup3\n        /* \"#utility.yul\":29035:29128   */\n      tag_494\n      jump\t// in\n    tag_761:\n        /* \"#utility.yul\":29153:29155   */\n      0x20\n        /* \"#utility.yul\":29148:29151   */\n      dup3\n        /* \"#utility.yul\":29144:29156   */\n      add\n        /* \"#utility.yul\":29137:29156   */\n      swap1\n      pop\n        /* \"#utility.yul\":28796:29162   */\n      swap2\n      swap1\n      pop\n      jump\t// out\n        /* \"#utility.yul\":29168:29587   */\n    tag_271:\n        /* \"#utility.yul\":29334:29338   */\n      0x00\n        /* \"#utility.yul\":29372:29374   */\n      0x20\n        /* \"#utility.yul\":29361:29370   */\n      dup3\n        /* \"#utility.yul\":29357:29375   */\n      add\n        /* \"#utility.yul\":29349:29375   */\n      swap1\n      pop\n        /* \"#utility.yul\":29421:29430   */\n      dup2\n        /* \"#utility.yul\":29415:29419   */\n      dup2\n        /* \"#utility.yul\":29411:29431   */\n      sub\n        /* \"#utility.yul\":29407:29408   */\n      0x00\n        /* \"#utility.yul\":29396:29405   */\n      dup4\n        /* \"#utility.yul\":29392:29409   */\n      add\n        /* \"#utility.yul\":29385:29432   */\n      mstore\n        /* \"#utility.yul\":29449:29580   */\n      tag_763\n        /* \"#utility.yul\":29575:29579   */\n      dup2\n        /* \"#utility.yul\":29449:29580   */\n      tag_495\n      jump\t// in\n    tag_763:\n        /* \"#utility.yul\":29441:29580   */\n      swap1\n      pop\n        /* \"#utility.yul\":29168:29587   */\n      swap2\n      swap1\n      pop\n      jump\t// out\n        /* \"#utility.yul\":29593:29769   */\n    tag_496:\n        /* \"#utility.yul\":29733:29761   */\n      0x506f736974696f6e20697320616c726561647920636c6f736564000000000000\n        /* \"#utility.yul\":29729:29730   */\n      0x00\n        /* \"#utility.yul\":29721:29727   */\n      dup3\n        /* \"#utility.yul\":29717:29731   */\n      add\n        /* \"#utility.yul\":29710:29762   */\n      mstore\n        /* \"#utility.yul\":29593:29769   */\n      pop\n      jump\t// out\n        /* \"#utility.yul\":29775:30141   */\n    tag_497:\n        /* \"#utility.yul\":29917:29920   */\n      0x00\n        /* \"#utility.yul\":29938:30005   */\n      tag_766\n        /* \"#utility.yul\":30002:30004   */\n      0x1a\n        /* \"#utility.yul\":29997:30000   */\n      dup4\n        /* \"#utility.yul\":29938:30005   */\n      tag_468\n      jump\t// in\n    tag_766:\n        /* \"#utility.yul\":29931:30005   */\n      swap2\n      pop\n        /* \"#utility.yul\":30014:30107   */\n      tag_767\n        /* \"#utility.yul\":30103:30106   */\n      dup3\n        /* \"#utility.yul\":30014:30107   */\n      tag_496\n      jump\t// in\n    tag_767:\n        /* \"#utility.yul\":30132:30134   */\n      0x20\n        /* \"#utility.yul\":30127:30130   */\n      dup3\n        /* \"#utility.yul\":30123:30135   */\n      add\n        /* \"#utility.yul\":30116:30135   */\n      swap1\n      pop\n        /* \"#utility.yul\":29775:30141   */\n      swap2\n      swap1\n      pop\n      jump\t// out\n        /* \"#utility.yul\":30147:30566   */\n    tag_280:\n        /* \"#utility.yul\":30313:30317   */\n      0x00\n        /* \"#utility.yul\":30351:30353   */\n      0x20\n        /* \"#utility.yul\":30340:30349   */\n      dup3\n        /* \"#utility.yul\":30336:30354   */\n      add\n        /* \"#utility.yul\":30328:30354   */\n      swap1\n      pop\n        /* \"#utility.yul\":30400:30409   */\n      dup2\n        /* \"#utility.yul\":30394:30398   */\n      dup2\n        /* \"#utility.yul\":30390:30410   */\n      sub\n        /* \"#utility.yul\":30386:30387   */\n      0x00\n        /* \"#utility.yul\":30375:30384   */\n      dup4\n        /* \"#utility.yul\":30371:30388   */\n      add\n        /* \"#utility.yul\":30364:30411   */\n      mstore\n        /* \"#utility.yul\":30428:30559   */\n      tag_769\n        /* \"#utility.yul\":30554:30558   */\n      dup2\n        /* \"#utility.yul\":30428:30559   */\n      tag_497\n      jump\t// in\n    tag_769:\n        /* \"#utility.yul\":30420:30559   */\n      swap1\n      pop\n        /* \"#utility.yul\":30147:30566   */\n      swap2\n      swap1\n      pop\n      jump\t// out\n        /* \"#utility.yul\":30572:30734   */\n    tag_498:\n        /* \"#utility.yul\":30712:30726   */\n      0x556e617574686f72697a65640000000000000000000000000000000000000000\n        /* \"#utility.yul\":30708:30709   */\n      0x00\n        /* \"#utility.yul\":30700:30706   */\n      dup3\n        /* \"#utility.yul\":30696:30710   */\n      add\n        /* \"#utility.yul\":30689:30727   */\n      mstore\n        /* \"#utility.yul\":30572:30734   */\n      pop\n      jump\t// out\n        /* \"#utility.yul\":30740:31106   */\n    tag_499:\n        /* \"#utility.yul\":30882:30885   */\n      0x00\n        /* \"#utility.yul\":30903:30970   */\n      tag_772\n        /* \"#utility.yul\":30967:30969   */\n      0x0c\n        /* \"#utility.yul\":30962:30965   */\n      dup4\n        /* \"#utility.yul\":30903:30970   */\n      tag_468\n      jump\t// in\n    tag_772:\n        /* \"#utility.yul\":30896:30970   */\n      swap2\n      pop\n        /* \"#utility.yul\":30979:31072   */\n      tag_773\n        /* \"#utility.yul\":31068:31071   */\n      dup3\n        /* \"#utility.yul\":30979:31072   */\n      tag_498\n      jump\t// in\n    tag_773:\n        /* \"#utility.yul\":31097:31099   */\n      0x20\n        /* \"#utility.yul\":31092:31095   */\n      dup3\n        /* \"#utility.yul\":31088:31100   */\n      add\n        /* \"#utility.yul\":31081:31100   */\n      swap1\n      pop\n        /* \"#utility.yul\":30740:31106   */\n      swap2\n      swap1\n      pop\n      jump\t// out\n        /* \"#utility.yul\":31112:31531   */\n    tag_284:\n        /* \"#utility.yul\":31278:31282   */\n      0x00\n        /* \"#utility.yul\":31316:31318   */\n      0x20\n        /* \"#utility.yul\":31305:31314   */\n      dup3\n        /* \"#utility.yul\":31301:31319   */\n      add\n        /* \"#utility.yul\":31293:31319   */\n      swap1\n      pop\n        /* \"#utility.yul\":31365:31374   */\n      dup2\n        /* \"#utility.yul\":31359:31363   */\n      dup2\n        /* \"#utility.yul\":31355:31375   */\n      sub\n        /* \"#utility.yul\":31351:31352   */\n      0x00\n        /* \"#utility.yul\":31340:31349   */\n      dup4\n        /* \"#utility.yul\":31336:31353   */\n      add\n        /* \"#utility.yul\":31329:31376   */\n      mstore\n        /* \"#utility.yul\":31393:31524   */\n      tag_775\n        /* \"#utility.yul\":31519:31523   */\n      dup2\n        /* \"#utility.yul\":31393:31524   */\n      tag_499\n      jump\t// in\n    tag_775:\n        /* \"#utility.yul\":31385:31524   */\n      swap1\n      pop\n        /* \"#utility.yul\":31112:31531   */\n      swap2\n      swap1\n      pop\n      jump\t// out\n        /* \"#utility.yul\":31537:31710   */\n    tag_500:\n        /* \"#utility.yul\":31677:31702   */\n      0x556e6c6f636b2064617465206e6f742072656163686564000000000000000000\n        /* \"#utility.yul\":31673:31674   */\n      0x00\n        /* \"#utility.yul\":31665:31671   */\n      dup3\n        /* \"#utility.yul\":31661:31675   */\n      add\n        /* \"#utility.yul\":31654:31703   */\n      mstore\n        /* \"#utility.yul\":31537:31710   */\n      pop\n      jump\t// out\n        /* \"#utility.yul\":31716:32082   */\n    tag_501:\n        /* \"#utility.yul\":31858:31861   */\n      0x00\n        /* \"#utility.yul\":31879:31946   */\n      tag_778\n        /* \"#utility.yul\":31943:31945   */\n      0x17\n        /* \"#utility.yul\":31938:31941   */\n      dup4\n        /* \"#utility.yul\":31879:31946   */\n      tag_468\n      jump\t// in\n    tag_778:\n        /* \"#utility.yul\":31872:31946   */\n      swap2\n      pop\n        /* \"#utility.yul\":31955:32048   */\n      tag_779\n        /* \"#utility.yul\":32044:32047   */\n      dup3\n        /* \"#utility.yul\":31955:32048   */\n      tag_500\n      jump\t// in\n    tag_779:\n        /* \"#utility.yul\":32073:32075   */\n      0x20\n        /* \"#utility.yul\":32068:32071   */\n      dup3\n        /* \"#utility.yul\":32064:32076   */\n      add\n        /* \"#utility.yul\":32057:32076   */\n      swap1\n      pop\n        /* \"#utility.yul\":31716:32082   */\n      swap2\n      swap1\n      pop\n      jump\t// out\n        /* \"#utility.yul\":32088:32507   */\n    tag_287:\n        /* \"#utility.yul\":32254:32258   */\n      0x00\n        /* \"#utility.yul\":32292:32294   */\n      0x20\n        /* \"#utility.yul\":32281:32290   */\n      dup3\n        /* \"#utility.yul\":32277:32295   */\n      add\n        /* \"#utility.yul\":32269:32295   */\n      swap1\n      pop\n        /* \"#utility.yul\":32341:32350   */\n      dup2\n        /* \"#utility.yul\":32335:32339   */\n      dup2\n        /* \"#utility.yul\":32331:32351   */\n      sub\n        /* \"#utility.yul\":32327:32328   */\n      0x00\n        /* \"#utility.yul\":32316:32325   */\n      dup4\n        /* \"#utility.yul\":32312:32329   */\n      add\n        /* \"#utility.yul\":32305:32352   */\n      mstore\n        /* \"#utility.yul\":32369:32500   */\n      tag_781\n        /* \"#utility.yul\":32495:32499   */\n      dup2\n        /* \"#utility.yul\":32369:32500   */\n      tag_501\n      jump\t// in\n    tag_781:\n        /* \"#utility.yul\":32361:32500   */\n      swap1\n      pop\n        /* \"#utility.yul\":32088:32507   */\n      swap2\n      swap1\n      pop\n      jump\t// out\n        /* \"#utility.yul\":32513:32693   */\n    tag_309:\n        /* \"#utility.yul\":32561:32638   */\n      0x4e487b7100000000000000000000000000000000000000000000000000000000\n        /* \"#utility.yul\":32558:32559   */\n      0x00\n        /* \"#utility.yul\":32551:32639   */\n      mstore\n        /* \"#utility.yul\":32658:32662   */\n      0x41\n        /* \"#utility.yul\":32655:32656   */\n      0x04\n        /* \"#utility.yul\":32648:32663   */\n      mstore\n        /* \"#utility.yul\":32682:32686   */\n      0x24\n        /* \"#utility.yul\":32679:32680   */\n      0x00\n        /* \"#utility.yul\":32672:32687   */\n      revert\n        /* \"#utility.yul\":32699:32879   */\n    tag_319:\n        /* \"#utility.yul\":32747:32824   */\n      0x4e487b7100000000000000000000000000000000000000000000000000000000\n        /* \"#utility.yul\":32744:32745   */\n      0x00\n        /* \"#utility.yul\":32737:32825   */\n      mstore\n        /* \"#utility.yul\":32844:32848   */\n      0x32\n        /* \"#utility.yul\":32841:32842   */\n      0x04\n        /* \"#utility.yul\":32834:32849   */\n      mstore\n        /* \"#utility.yul\":32868:32872   */\n      0x24\n        /* \"#utility.yul\":32865:32866   */\n      0x00\n        /* \"#utility.yul\":32858:32873   */\n      revert\n        /* \"#utility.yul\":32885:33109   */\n    tag_502:\n        /* \"#utility.yul\":33025:33059   */\n      0x4f6e6c79206f776e6572206d6179206d6f64696679207374616b696e67207065\n        /* \"#utility.yul\":33021:33022   */\n      0x00\n        /* \"#utility.yul\":33013:33019   */\n      dup3\n        /* \"#utility.yul\":33009:33023   */\n      add\n        /* \"#utility.yul\":33002:33060   */\n      mstore\n        /* \"#utility.yul\":33094:33101   */\n      0x72696f6473000000000000000000000000000000000000000000000000000000\n        /* \"#utility.yul\":33089:33091   */\n      0x20\n        /* \"#utility.yul\":33081:33087   */\n      dup3\n        /* \"#utility.yul\":33077:33092   */\n      add\n        /* \"#utility.yul\":33070:33102   */\n      mstore\n        /* \"#utility.yul\":32885:33109   */\n      pop\n      jump\t// out\n        /* \"#utility.yul\":33115:33481   */\n    tag_503:\n        /* \"#utility.yul\":33257:33260   */\n      0x00\n        /* \"#utility.yul\":33278:33345   */\n      tag_786\n        /* \"#utility.yul\":33342:33344   */\n      0x25\n        /* \"#utility.yul\":33337:33340   */\n      dup4\n        /* \"#utility.yul\":33278:33345   */\n      tag_468\n      jump\t// in\n    tag_786:\n        /* \"#utility.yul\":33271:33345   */\n      swap2\n      pop\n        /* \"#utility.yul\":33354:33447   */\n      tag_787\n        /* \"#utility.yul\":33443:33446   */\n      dup3\n        /* \"#utility.yul\":33354:33447   */\n      tag_502\n      jump\t// in\n    tag_787:\n        /* \"#utility.yul\":33472:33474   */\n      0x40\n        /* \"#utility.yul\":33467:33470   */\n      dup3\n        /* \"#utility.yul\":33463:33475   */\n      add\n        /* \"#utility.yul\":33456:33475   */\n      swap1\n      pop\n        /* \"#utility.yul\":33115:33481   */\n      swap2\n      swap1\n      pop\n      jump\t// out\n        /* \"#utility.yul\":33487:33906   */\n    tag_326:\n        /* \"#utility.yul\":33653:33657   */\n      0x00\n        /* \"#utility.yul\":33691:33693   */\n      0x20\n        /* \"#utility.yul\":33680:33689   */\n      dup3\n        /* \"#utility.yul\":33676:33694   */\n      add\n        /* \"#utility.yul\":33668:33694   */\n      swap1\n      pop\n        /* \"#utility.yul\":33740:33749   */\n      dup2\n        /* \"#utility.yul\":33734:33738   */\n      dup2\n        /* \"#utility.yul\":33730:33750   */\n      sub\n        /* \"#utility.yul\":33726:33727   */\n      0x00\n        /* \"#utility.yul\":33715:33724   */\n      dup4\n        /* \"#utility.yul\":33711:33728   */\n      add\n        /* \"#utility.yul\":33704:33751   */\n      mstore\n        /* \"#utility.yul\":33768:33899   */\n      tag_789\n        /* \"#utility.yul\":33894:33898   */\n      dup2\n        /* \"#utility.yul\":33768:33899   */\n      tag_503\n      jump\t// in\n    tag_789:\n        /* \"#utility.yul\":33760:33899   */\n      swap1\n      pop\n        /* \"#utility.yul\":33487:33906   */\n      swap2\n      swap1\n      pop\n      jump\t// out\n        /* \"#utility.yul\":33912:34140   */\n    tag_504:\n        /* \"#utility.yul\":34052:34086   */\n      0x4f6e6c7920706f736974696f6e2063726561746f72206d6179206d6f64696679\n        /* \"#utility.yul\":34048:34049   */\n      0x00\n        /* \"#utility.yul\":34040:34046   */\n      dup3\n        /* \"#utility.yul\":34036:34050   */\n      add\n        /* \"#utility.yul\":34029:34087   */\n      mstore\n        /* \"#utility.yul\":34121:34132   */\n      0x20706f736974696f6e0000000000000000000000000000000000000000000000\n        /* \"#utility.yul\":34116:34118   */\n      0x20\n        /* \"#utility.yul\":34108:34114   */\n      dup3\n        /* \"#utility.yul\":34104:34119   */\n      add\n        /* \"#utility.yul\":34097:34133   */\n      mstore\n        /* \"#utility.yul\":33912:34140   */\n      pop\n      jump\t// out\n        /* \"#utility.yul\":34146:34512   */\n    tag_505:\n        /* \"#utility.yul\":34288:34291   */\n      0x00\n        /* \"#utility.yul\":34309:34376   */\n      tag_792\n        /* \"#utility.yul\":34373:34375   */\n      0x29\n        /* \"#utility.yul\":34368:34371   */\n      dup4\n        /* \"#utility.yul\":34309:34376   */\n      tag_468\n      jump\t// in\n    tag_792:\n        /* \"#utility.yul\":34302:34376   */\n      swap2\n      pop\n        /* \"#utility.yul\":34385:34478   */\n      tag_793\n        /* \"#utility.yul\":34474:34477   */\n      dup3\n        /* \"#utility.yul\":34385:34478   */\n      tag_504\n      jump\t// in\n    tag_793:\n        /* \"#utility.yul\":34503:34505   */\n      0x40\n        /* \"#utility.yul\":34498:34501   */\n      dup3\n        /* \"#utility.yul\":34494:34506   */\n      add\n        /* \"#utility.yul\":34487:34506   */\n      swap1\n      pop\n        /* \"#utility.yul\":34146:34512   */\n      swap2\n      swap1\n      pop\n      jump\t// out\n        /* \"#utility.yul\":34518:34937   */\n    tag_343:\n        /* \"#utility.yul\":34684:34688   */\n      0x00\n        /* \"#utility.yul\":34722:34724   */\n      0x20\n        /* \"#utility.yul\":34711:34720   */\n      dup3\n        /* \"#utility.yul\":34707:34725   */\n      add\n        /* \"#utility.yul\":34699:34725   */\n      swap1\n      pop\n        /* \"#utility.yul\":34771:34780   */\n      dup2\n        /* \"#utility.yul\":34765:34769   */\n      dup2\n        /* \"#utility.yul\":34761:34781   */\n      sub\n        /* \"#utility.yul\":34757:34758   */\n      0x00\n        /* \"#utility.yul\":34746:34755   */\n      dup4\n        /* \"#utility.yul\":34742:34759   */\n      add\n        /* \"#utility.yul\":34735:34782   */\n      mstore\n        /* \"#utility.yul\":34799:34930   */\n      tag_795\n        /* \"#utility.yul\":34925:34929   */\n      dup2\n        /* \"#utility.yul\":34799:34930   */\n      tag_505\n      jump\t// in\n    tag_795:\n        /* \"#utility.yul\":34791:34930   */\n      swap1\n      pop\n        /* \"#utility.yul\":34518:34937   */\n      swap2\n      swap1\n      pop\n      jump\t// out\n        /* \"#utility.yul\":34943:35182   */\n    tag_506:\n        /* \"#utility.yul\":35083:35117   */\n      0x456d657267656e637920636c6f7365206f6e6c7920616c6c6f77656420666f72\n        /* \"#utility.yul\":35079:35080   */\n      0x00\n        /* \"#utility.yul\":35071:35077   */\n      dup3\n        /* \"#utility.yul\":35067:35081   */\n      add\n        /* \"#utility.yul\":35060:35118   */\n      mstore\n        /* \"#utility.yul\":35152:35174   */\n      0x203830302d646179206c6f636b20706572696f64000000000000000000000000\n        /* \"#utility.yul\":35147:35149   */\n      0x20\n        /* \"#utility.yul\":35139:35145   */\n      dup3\n        /* \"#utility.yul\":35135:35150   */\n      add\n        /* \"#utility.yul\":35128:35175   */\n      mstore\n        /* \"#utility.yul\":34943:35182   */\n      pop\n      jump\t// out\n        /* \"#utility.yul\":35188:35554   */\n    tag_507:\n        /* \"#utility.yul\":35330:35333   */\n      0x00\n        /* \"#utility.yul\":35351:35418   */\n      tag_798\n        /* \"#utility.yul\":35415:35417   */\n      0x34\n        /* \"#utility.yul\":35410:35413   */\n      dup4\n        /* \"#utility.yul\":35351:35418   */\n      tag_468\n      jump\t// in\n    tag_798:\n        /* \"#utility.yul\":35344:35418   */\n      swap2\n      pop\n        /* \"#utility.yul\":35427:35520   */\n      tag_799\n        /* \"#utility.yul\":35516:35519   */\n      dup3\n        /* \"#utility.yul\":35427:35520   */\n      tag_506\n      jump\t// in\n    tag_799:\n        /* \"#utility.yul\":35545:35547   */\n      0x40\n        /* \"#utility.yul\":35540:35543   */\n      dup3\n        /* \"#utility.yul\":35536:35548   */\n      add\n        /* \"#utility.yul\":35529:35548   */\n      swap1\n      pop\n        /* \"#utility.yul\":35188:35554   */\n      swap2\n      swap1\n      pop\n      jump\t// out\n        /* \"#utility.yul\":35560:35979   */\n    tag_350:\n        /* \"#utility.yul\":35726:35730   */\n      0x00\n        /* \"#utility.yul\":35764:35766   */\n      0x20\n        /* \"#utility.yul\":35753:35762   */\n      dup3\n        /* \"#utility.yul\":35749:35767   */\n      add\n        /* \"#utility.yul\":35741:35767   */\n      swap1\n      pop\n        /* \"#utility.yul\":35813:35822   */\n      dup2\n        /* \"#utility.yul\":35807:35811   */\n      dup2\n        /* \"#utility.yul\":35803:35823   */\n      sub\n        /* \"#utility.yul\":35799:35800   */\n      0x00\n        /* \"#utility.yul\":35788:35797   */\n      dup4\n        /* \"#utility.yul\":35784:35801   */\n      add\n        /* \"#utility.yul\":35777:35824   */\n      mstore\n        /* \"#utility.yul\":35841:35972   */\n      tag_801\n        /* \"#utility.yul\":35967:35971   */\n      dup2\n        /* \"#utility.yul\":35841:35972   */\n      tag_507\n      jump\t// in\n    tag_801:\n        /* \"#utility.yul\":35833:35972   */\n      swap1\n      pop\n        /* \"#utility.yul\":35560:35979   */\n      swap2\n      swap1\n      pop\n      jump\t// out\n        /* \"#utility.yul\":35985:36176   */\n    tag_353:\n        /* \"#utility.yul\":36025:36028   */\n      0x00\n        /* \"#utility.yul\":36044:36064   */\n      tag_803\n        /* \"#utility.yul\":36062:36063   */\n      dup3\n        /* \"#utility.yul\":36044:36064   */\n      tag_435\n      jump\t// in\n    tag_803:\n        /* \"#utility.yul\":36039:36064   */\n      swap2\n      pop\n        /* \"#utility.yul\":36078:36098   */\n      tag_804\n        /* \"#utility.yul\":36096:36097   */\n      dup4\n        /* \"#utility.yul\":36078:36098   */\n      tag_435\n      jump\t// in\n    tag_804:\n        /* \"#utility.yul\":36073:36098   */\n      swap3\n      pop\n        /* \"#utility.yul\":36121:36122   */\n      dup3\n        /* \"#utility.yul\":36118:36119   */\n      dup3\n        /* \"#utility.yul\":36114:36123   */\n      add\n        /* \"#utility.yul\":36107:36123   */\n      swap1\n      pop\n        /* \"#utility.yul\":36142:36145   */\n      dup1\n        /* \"#utility.yul\":36139:36140   */\n      dup3\n        /* \"#utility.yul\":36136:36146   */\n      gt\n        /* \"#utility.yul\":36133:36169   */\n      iszero\n      tag_805\n      jumpi\n        /* \"#utility.yul\":36149:36167   */\n      tag_806\n      tag_471\n      jump\t// in\n    tag_806:\n        /* \"#utility.yul\":36133:36169   */\n    tag_805:\n        /* \"#utility.yul\":35985:36176   */\n      swap3\n      swap2\n      pop\n      pop\n      jump\t// out\n        /* \"#utility.yul\":36182:36329   */\n    tag_508:\n        /* \"#utility.yul\":36283:36294   */\n      0x00\n        /* \"#utility.yul\":36320:36323   */\n      dup2\n        /* \"#utility.yul\":36305:36323   */\n      swap1\n      pop\n        /* \"#utility.yul\":36182:36329   */\n      swap3\n      swap2\n      pop\n      pop\n      jump\t// out\n        /* \"#utility.yul\":36335:36449   */\n    tag_509:\n      pop\n      jump\t// out\n        /* \"#utility.yul\":36455:36853   */\n    tag_510:\n        /* \"#utility.yul\":36614:36617   */\n      0x00\n        /* \"#utility.yul\":36635:36718   */\n      tag_810\n        /* \"#utility.yul\":36716:36717   */\n      0x00\n        /* \"#utility.yul\":36711:36714   */\n      dup4\n        /* \"#utility.yul\":36635:36718   */\n      tag_508\n      jump\t// in\n    tag_810:\n        /* \"#utility.yul\":36628:36718   */\n      swap2\n      pop\n        /* \"#utility.yul\":36727:36820   */\n      tag_811\n        /* \"#utility.yul\":36816:36819   */\n      dup3\n        /* \"#utility.yul\":36727:36820   */\n      tag_509\n      jump\t// in\n    tag_811:\n        /* \"#utility.yul\":36845:36846   */\n      0x00\n        /* \"#utility.yul\":36840:36843   */\n      dup3\n        /* \"#utility.yul\":36836:36847   */\n      add\n        /* \"#utility.yul\":36829:36847   */\n      swap1\n      pop\n        /* \"#utility.yul\":36455:36853   */\n      swap2\n      swap1\n      pop\n      jump\t// out\n        /* \"#utility.yul\":36859:37238   */\n    tag_355:\n        /* \"#utility.yul\":37043:37046   */\n      0x00\n        /* \"#utility.yul\":37065:37212   */\n      tag_813\n        /* \"#utility.yul\":37208:37211   */\n      dup3\n        /* \"#utility.yul\":37065:37212   */\n      tag_510\n      jump\t// in\n    tag_813:\n        /* \"#utility.yul\":37058:37212   */\n      swap2\n      pop\n        /* \"#utility.yul\":37229:37232   */\n      dup2\n        /* \"#utility.yul\":37222:37232   */\n      swap1\n      pop\n        /* \"#utility.yul\":36859:37238   */\n      swap2\n      swap1\n      pop\n      jump\t// out\n        /* \"#utility.yul\":37244:37415   */\n    tag_511:\n        /* \"#utility.yul\":37384:37407   */\n      0x4c6f636b20706572696f64206e6f7420666f756e640000000000000000000000\n        /* \"#utility.yul\":37380:37381   */\n      0x00\n        /* \"#utility.yul\":37372:37378   */\n      dup3\n        /* \"#utility.yul\":37368:37382   */\n      add\n        /* \"#utility.yul\":37361:37408   */\n      mstore\n        /* \"#utility.yul\":37244:37415   */\n      pop\n      jump\t// out\n        /* \"#utility.yul\":37421:37787   */\n    tag_512:\n        /* \"#utility.yul\":37563:37566   */\n      0x00\n        /* \"#utility.yul\":37584:37651   */\n      tag_816\n        /* \"#utility.yul\":37648:37650   */\n      0x15\n        /* \"#utility.yul\":37643:37646   */\n      dup4\n        /* \"#utility.yul\":37584:37651   */\n      tag_468\n      jump\t// in\n    tag_816:\n        /* \"#utility.yul\":37577:37651   */\n      swap2\n      pop\n        /* \"#utility.yul\":37660:37753   */\n      tag_817\n        /* \"#utility.yul\":37749:37752   */\n      dup3\n        /* \"#utility.yul\":37660:37753   */\n      tag_511\n      jump\t// in\n    tag_817:\n        /* \"#utility.yul\":37778:37780   */\n      0x20\n        /* \"#utility.yul\":37773:37776   */\n      dup3\n        /* \"#utility.yul\":37769:37781   */\n      add\n        /* \"#utility.yul\":37762:37781   */\n      swap1\n      pop\n        /* \"#utility.yul\":37421:37787   */\n      swap2\n      swap1\n      pop\n      jump\t// out\n        /* \"#utility.yul\":37793:38212   */\n    tag_376:\n        /* \"#utility.yul\":37959:37963   */\n      0x00\n        /* \"#utility.yul\":37997:37999   */\n      0x20\n        /* \"#utility.yul\":37986:37995   */\n      dup3\n        /* \"#utility.yul\":37982:38000   */\n      add\n        /* \"#utility.yul\":37974:38000   */\n      swap1\n      pop\n        /* \"#utility.yul\":38046:38055   */\n      dup2\n        /* \"#utility.yul\":38040:38044   */\n      dup2\n        /* \"#utility.yul\":38036:38056   */\n      sub\n        /* \"#utility.yul\":38032:38033   */\n      0x00\n        /* \"#utility.yul\":38021:38030   */\n      dup4\n        /* \"#utility.yul\":38017:38034   */\n      add\n        /* \"#utility.yul\":38010:38057   */\n      mstore\n        /* \"#utility.yul\":38074:38205   */\n      tag_819\n        /* \"#utility.yul\":38200:38204   */\n      dup2\n        /* \"#utility.yul\":38074:38205   */\n      tag_512\n      jump\t// in\n    tag_819:\n        /* \"#utility.yul\":38066:38205   */\n      swap1\n      pop\n        /* \"#utility.yul\":37793:38212   */\n      swap2\n      swap1\n      pop\n      jump\t// out\n        /* \"#utility.yul\":38218:38385   */\n    tag_513:\n        /* \"#utility.yul\":38358:38377   */\n      0x4d617070696e67206e6f7420666f756e64000000000000000000000000000000\n        /* \"#utility.yul\":38354:38355   */\n      0x00\n        /* \"#utility.yul\":38346:38352   */\n      dup3\n        /* \"#utility.yul\":38342:38356   */\n      add\n        /* \"#utility.yul\":38335:38378   */\n      mstore\n        /* \"#utility.yul\":38218:38385   */\n      pop\n      jump\t// out\n        /* \"#utility.yul\":38391:38757   */\n    tag_514:\n        /* \"#utility.yul\":38533:38536   */\n      0x00\n        /* \"#utility.yul\":38554:38621   */\n      tag_822\n        /* \"#utility.yul\":38618:38620   */\n      0x11\n        /* \"#utility.yul\":38613:38616   */\n      dup4\n        /* \"#utility.yul\":38554:38621   */\n      tag_468\n      jump\t// in\n    tag_822:\n        /* \"#utility.yul\":38547:38621   */\n      swap2\n      pop\n        /* \"#utility.yul\":38630:38723   */\n      tag_823\n        /* \"#utility.yul\":38719:38722   */\n      dup3\n        /* \"#utility.yul\":38630:38723   */\n      tag_513\n      jump\t// in\n    tag_823:\n        /* \"#utility.yul\":38748:38750   */\n      0x20\n        /* \"#utility.yul\":38743:38746   */\n      dup3\n        /* \"#utility.yul\":38739:38751   */\n      add\n        /* \"#utility.yul\":38732:38751   */\n      swap1\n      pop\n        /* \"#utility.yul\":38391:38757   */\n      swap2\n      swap1\n      pop\n      jump\t// out\n        /* \"#utility.yul\":38763:39182   */\n    tag_383:\n        /* \"#utility.yul\":38929:38933   */\n      0x00\n        /* \"#utility.yul\":38967:38969   */\n      0x20\n        /* \"#utility.yul\":38956:38965   */\n      dup3\n        /* \"#utility.yul\":38952:38970   */\n      add\n        /* \"#utility.yul\":38944:38970   */\n      swap1\n      pop\n        /* \"#utility.yul\":39016:39025   */\n      dup2\n        /* \"#utility.yul\":39010:39014   */\n      dup2\n        /* \"#utility.yul\":39006:39026   */\n      sub\n        /* \"#utility.yul\":39002:39003   */\n      0x00\n        /* \"#utility.yul\":38991:39000   */\n      dup4\n        /* \"#utility.yul\":38987:39004   */\n      add\n        /* \"#utility.yul\":38980:39027   */\n      mstore\n        /* \"#utility.yul\":39044:39175   */\n      tag_825\n        /* \"#utility.yul\":39170:39174   */\n      dup2\n        /* \"#utility.yul\":39044:39175   */\n      tag_514\n      jump\t// in\n    tag_825:\n        /* \"#utility.yul\":39036:39175   */\n      swap1\n      pop\n        /* \"#utility.yul\":38763:39182   */\n      swap2\n      swap1\n      pop\n      jump\t// out\n        /* \"#utility.yul\":39188:39630   */\n    tag_385:\n        /* \"#utility.yul\":39337:39341   */\n      0x00\n        /* \"#utility.yul\":39375:39377   */\n      0x60\n        /* \"#utility.yul\":39364:39373   */\n      dup3\n        /* \"#utility.yul\":39360:39378   */\n      add\n        /* \"#utility.yul\":39352:39378   */\n      swap1\n      pop\n        /* \"#utility.yul\":39388:39459   */\n      tag_827\n        /* \"#utility.yul\":39456:39457   */\n      0x00\n        /* \"#utility.yul\":39445:39454   */\n      dup4\n        /* \"#utility.yul\":39441:39458   */\n      add\n        /* \"#utility.yul\":39432:39438   */\n      dup7\n        /* \"#utility.yul\":39388:39459   */\n      tag_450\n      jump\t// in\n    tag_827:\n        /* \"#utility.yul\":39469:39541   */\n      tag_828\n        /* \"#utility.yul\":39537:39539   */\n      0x20\n        /* \"#utility.yul\":39526:39535   */\n      dup4\n        /* \"#utility.yul\":39522:39540   */\n      add\n        /* \"#utility.yul\":39513:39519   */\n      dup6\n        /* \"#utility.yul\":39469:39541   */\n      tag_450\n      jump\t// in\n    tag_828:\n        /* \"#utility.yul\":39551:39623   */\n      tag_829\n        /* \"#utility.yul\":39619:39621   */\n      0x40\n        /* \"#utility.yul\":39608:39617   */\n      dup4\n        /* \"#utility.yul\":39604:39622   */\n      add\n        /* \"#utility.yul\":39595:39601   */\n      dup5\n        /* \"#utility.yul\":39551:39623   */\n      tag_438\n      jump\t// in\n    tag_829:\n        /* \"#utility.yul\":39188:39630   */\n      swap5\n      swap4\n      pop\n      pop\n      pop\n      pop\n      jump\t// out\n        /* \"#utility.yul\":39636:39869   */\n    tag_395:\n        /* \"#utility.yul\":39675:39678   */\n      0x00\n        /* \"#utility.yul\":39698:39722   */\n      tag_831\n        /* \"#utility.yul\":39716:39721   */\n      dup3\n        /* \"#utility.yul\":39698:39722   */\n      tag_435\n      jump\t// in\n    tag_831:\n        /* \"#utility.yul\":39689:39722   */\n      swap2\n      pop\n        /* \"#utility.yul\":39744:39810   */\n      0xffffffffffffffffffffffffffffffffffffffffffffffffffffffffffffffff\n        /* \"#utility.yul\":39737:39742   */\n      dup3\n        /* \"#utility.yul\":39734:39811   */\n      sub\n        /* \"#utility.yul\":39731:39834   */\n      tag_832\n      jumpi\n        /* \"#utility.yul\":39814:39832   */\n      tag_833\n      tag_471\n      jump\t// in\n    tag_833:\n        /* \"#utility.yul\":39731:39834   */\n    tag_832:\n        /* \"#utility.yul\":39861:39862   */\n      0x01\n        /* \"#utility.yul\":39854:39859   */\n      dup3\n        /* \"#utility.yul\":39850:39863   */\n      add\n        /* \"#utility.yul\":39843:39863   */\n      swap1\n      pop\n        /* \"#utility.yul\":39636:39869   */\n      swap2\n      swap1\n      pop\n      jump\t// out\n        /* \"#utility.yul\":39875:40047   */\n    tag_515:\n        /* \"#utility.yul\":40015:40039   */\n      0x496e636f6d65207472616e73666572206661696c656400000000000000000000\n        /* \"#utility.yul\":40011:40012   */\n      0x00\n        /* \"#utility.yul\":40003:40009   */\n      dup3\n        /* \"#utility.yul\":39999:40013   */\n      add\n        /* \"#utility.yul\":39992:40040   */\n      mstore\n        /* \"#utility.yul\":39875:40047   */\n      pop\n      jump\t// out\n        /* \"#utility.yul\":40053:40419   */\n    tag_516:\n        /* \"#utility.yul\":40195:40198   */\n      0x00\n        /* \"#utility.yul\":40216:40283   */\n      tag_836\n        /* \"#utility.yul\":40280:40282   */\n      0x16\n        /* \"#utility.yul\":40275:40278   */\n      dup4\n        /* \"#utility.yul\":40216:40283   */\n      tag_468\n      jump\t// in\n    tag_836:\n        /* \"#utility.yul\":40209:40283   */\n      swap2\n      pop\n        /* \"#utility.yul\":40292:40385   */\n      tag_837\n        /* \"#utility.yul\":40381:40384   */\n      dup3\n        /* \"#utility.yul\":40292:40385   */\n      tag_515\n      jump\t// in\n    tag_837:\n        /* \"#utility.yul\":40410:40412   */\n      0x20\n        /* \"#utility.yul\":40405:40408   */\n      dup3\n        /* \"#utility.yul\":40401:40413   */\n      add\n        /* \"#utility.yul\":40394:40413   */\n      swap1\n      pop\n        /* \"#utility.yul\":40053:40419   */\n      swap2\n      swap1\n      pop\n      jump\t// out\n        /* \"#utility.yul\":40425:40844   */\n    tag_428:\n        /* \"#utility.yul\":40591:40595   */\n      0x00\n        /* \"#utility.yul\":40629:40631   */\n      0x20\n        /* \"#utility.yul\":40618:40627   */\n      dup3\n        /* \"#utility.yul\":40614:40632   */\n      add\n        /* \"#utility.yul\":40606:40632   */\n      swap1\n      pop\n        /* \"#utility.yul\":40678:40687   */\n      dup2\n        /* \"#utility.yul\":40672:40676   */\n      dup2\n        /* \"#utility.yul\":40668:40688   */\n      sub\n        /* \"#utility.yul\":40664:40665   */\n      0x00\n        /* \"#utility.yul\":40653:40662   */\n      dup4\n        /* \"#utility.yul\":40649:40666   */\n      add\n        /* \"#utility.yul\":40642:40689   */\n      mstore\n        /* \"#utility.yul\":40706:40837   */\n      tag_839\n        /* \"#utility.yul\":40832:40836   */\n      dup2\n        /* \"#utility.yul\":40706:40837   */\n      tag_516\n      jump\t// in\n    tag_839:\n        /* \"#utility.yul\":40698:40837   */\n      swap1\n      pop\n        /* \"#utility.yul\":40425:40844   */\n      swap2\n      swap1\n      pop\n      jump\t// out\n        /* \"#utility.yul\":40850:41182   */\n    tag_430:\n        /* \"#utility.yul\":40971:40975   */\n      0x00\n        /* \"#utility.yul\":41009:41011   */\n      0x40\n        /* \"#utility.yul\":40998:41007   */\n      dup3\n        /* \"#utility.yul\":40994:41012   */\n      add\n        /* \"#utility.yul\":40986:41012   */\n      swap1\n      pop\n        /* \"#utility.yul\":41022:41093   */\n      tag_841\n        /* \"#utility.yul\":41090:41091   */\n      0x00\n        /* \"#utility.yul\":41079:41088   */\n      dup4\n        /* \"#utility.yul\":41075:41092   */\n      add\n        /* \"#utility.yul\":41066:41072   */\n      dup6\n        /* \"#utility.yul\":41022:41093   */\n      tag_438\n      jump\t// in\n    tag_841:\n        /* \"#utility.yul\":41103:41175   */\n      tag_842\n        /* \"#utility.yul\":41171:41173   */\n      0x20\n        /* \"#utility.yul\":41160:41169   */\n      dup4\n        /* \"#utility.yul\":41156:41174   */\n      add\n        /* \"#utility.yul\":41147:41153   */\n      dup5\n        /* \"#utility.yul\":41103:41175   */\n      tag_438\n      jump\t// in\n    tag_842:\n        /* \"#utility.yul\":40850:41182   */\n      swap4\n      swap3\n      pop\n      pop\n      pop\n      jump\t// out\n\n    auxdata: 0xa2646970667358221220cd62e7bf0c366975922c03cc1b90850323e56561c384e82ccdb180952991732364736f6c63430008190033\n}\n",
				"bytecode": {
					"linkReferences": {},
					"object": "608060405260016009556040516148f43803806148f4833981810160405281019061002a919061031f565b335f806101000a81548173ffffffffffffffffffffffffffffffffffffffff021916908373ffffffffffffffffffffffffffffffffffffffff16021790555060016003819055508060015f6101000a81548173ffffffffffffffffffffffffffffffffffffffff021916908373ffffffffffffffffffffffffffffffffffffffff16021790555060016004819055505f8054906101000a900473ffffffffffffffffffffffffffffffffffffffff1673ffffffffffffffffffffffffffffffffffffffff1660025f3373ffffffffffffffffffffffffffffffffffffffff1673ffffffffffffffffffffffffffffffffffffffff1681526020019081526020015f205f015f9054906101000a900473ffffffffffffffffffffffffffffffffffffffff1673ffffffffffffffffffffffffffffffffffffffff16146101bf5760025f3373ffffffffffffffffffffffffffffffffffffffff1673ffffffffffffffffffffffffffffffffffffffff1681526020019081526020015f206002015f8154809291906101b990610380565b91905055505b61271060085f6103e881526020019081526020015f208190555061271060085f61032081526020019081526020015f2081905550600a6103e8908060018154018082558091505060019003905f5260205f20015f9091909190915055600a610320908060018154018082558091505060019003905f5260205f20015f9091909190915055600a600d5f600181526020019081526020015f20819055506005600d5f600281526020019081526020015f20819055506004600d5f600381526020019081526020015f20819055506003600d5f600481526020019081526020015f20819055506002600d5f600581526020019081526020015f2081905550506103c7565b5f80fd5b5f73ffffffffffffffffffffffffffffffffffffffff82169050919050565b5f6102ee826102c5565b9050919050565b6102fe816102e4565b8114610308575f80fd5b50565b5f81519050610319816102f5565b92915050565b5f60208284031215610334576103336102c1565b5b5f6103418482850161030b565b91505092915050565b7f4e487b71000000000000000000000000000000000000000000000000000000005f52601160045260245ffd5b5f819050919050565b5f61038a82610377565b91507fffffffffffffffffffffffffffffffffffffffffffffffffffffffffffffffff82036103bc576103bb61034a565b5b600182019050919050565b614520806103d45f395ff3fe608060405234801561000f575f80fd5b506004361061020f575f3560e01c806399fbab8811610123578063b77b7dc9116100ab578063d21b7abf1161007a578063d21b7abf14610697578063d7406f5c146106b3578063f59a843a146106e3578063f6e8887314610713578063fc0c546a146107435761020f565b8063b77b7dc9146105eb578063b838ec861461061b578063bc2591071461064b578063c7c9d0551461067b5761020f565b8063a54586f8116100f2578063a54586f814610503578063a567ac2e1461053b578063a87430ba1461056b578063aa7ed4621461059f578063b0f0475b146105cf5761020f565b806399fbab88146104735780639dc4b9c9146104ab578063a126d601146104c9578063a1e6a255146104e55761020f565b806340d98a44116101a6578063591d8fea11610175578063591d8fea146104075780635bffa8ff14610423578063853828b61461042d5780638b7afe2e146104375780638da5cb5b146104555761020f565b806340d98a441461035957806341ee13be1461038957806345eae373146103a75780634c8f2a78146103d75761020f565b80631df9758b116101e25780631df9758b146102c157806321923bde146102f157806323e252f4146103215780632ad534401461033d5761020f565b8063039af9eb146102135780630c196a74146102435780631131c8cd146102735780631271fde014610291575b5f80fd5b61022d600480360381019061022891906131c2565b610761565b60405161023a91906131fc565b60405180910390f35b61025d600480360381019061025891906131c2565b610776565b60405161026a91906131fc565b60405180910390f35b61027b610790565b60405161028891906131fc565b60405180910390f35b6102ab60048036038101906102a6919061326f565b610796565b6040516102b891906131fc565b60405180910390f35b6102db60048036038101906102d691906131c2565b6107df565b6040516102e891906131fc565b60405180910390f35b61030b6004803603810190610306919061326f565b61093c565b60405161031891906131fc565b60405180910390f35b61033b6004803603810190610336919061329a565b610985565b005b610357600480360381019061035291906132ea565b610995565b005b610373600480360381019061036e919061326f565b6109a4565b60405161038091906133df565b60405180910390f35b610391610a37565b60405161039e91906133df565b60405180910390f35b6103c160048036038101906103bc91906133ff565b610a8d565b6040516103ce91906131fc565b60405180910390f35b6103f160048036038101906103ec91906131c2565b610ab8565b6040516103fe91906131fc565b60405180910390f35b610421600480360381019061041c91906131c2565b610ad8565b005b61042b610e15565b005b610435610fb8565b005b61043f611220565b60405161044c91906131fc565b60405180910390f35b61045d6112bf565b60405161046a919061344c565b60405180910390f35b61048d600480360381019061048891906131c2565b6112e2565b6040516104a29998979695949392919061347f565b60405180910390f35b6104b3611357565b6040516104c091906131fc565b60405180910390f35b6104e360048036038101906104de91906131c2565b61135d565b005b6104ed611895565b6040516104fa91906131fc565b60405180910390f35b61051d600480360381019061051891906133ff565b61189b565b6040516105329998979695949392919061347f565b60405180910390f35b6105556004803603810190610550919061326f565b61192a565b6040516105629190613686565b60405180910390f35b6105856004803603810190610580919061326f565b611b46565b6040516105969594939291906136a6565b60405180910390f35b6105b960048036038101906105b4919061326f565b611b97565b6040516105c691906131fc565b60405180910390f35b6105e960048036038101906105e491906132ea565b611be0565b005b6106056004803603810190610600919061326f565b611cad565b60405161061291906131fc565b60405180910390f35b610635600480360381019061063091906131c2565b611cc2565b60405161064291906137ac565b60405180910390f35b610665600480360381019061066091906131c2565b611da2565b60405161067291906131fc565b60405180910390f35b610695600480360381019061069091906132ea565b611ef7565b005b6106b160048036038101906106ac91906131c2565b611fa1565b005b6106cd60048036038101906106c891906131c2565b6123cf565b6040516106da91906131fc565b60405180910390f35b6106fd60048036038101906106f891906131c2565b6125f1565b60405161070a91906131fc565b60405180910390f35b61072d6004803603810190610728919061326f565b612606565b60405161073a91906131fc565b60405180910390f35b61074b61261b565b6040516107589190613821565b60405180910390f35b6008602052805f5260405f205f915090505481565b5f60085f8381526020019081526020015f20549050919050565b60035481565b5f60025f8373ffffffffffffffffffffffffffffffffffffffff1673ffffffffffffffffffffffffffffffffffffffff1681526020019081526020015f20600401549050919050565b5f8060065f8481526020019081526020015f20604051806101200160405290815f8201548152602001600182015f9054906101000a900473ffffffffffffffffffffffffffffffffffffffff1673ffffffffffffffffffffffffffffffffffffffff1673ffffffffffffffffffffffffffffffffffffffff1681526020016002820154815260200160038201548152602001600482015481526020016005820154815260200160068201548152602001600782015f9054906101000a900460ff1615151515815260200160088201548152505090505f815f0151116108f9576040517f08c379a00000000000000000000000000000000000000000000000000000000081526004016108f090613894565b60405180910390fd5b5f8160600151421061090d575f9050610932565b620151808260400151836060015161092591906138df565b61092f919061393f565b90505b8092505050919050565b5f60025f8373ffffffffffffffffffffffffffffffffffffffff1673ffffffffffffffffffffffffffffffffffffffff1681526020019081526020015f20600301549050919050565b610990838383612640565b505050565b6109a082825f612640565b5050565b606060075f8373ffffffffffffffffffffffffffffffffffffffff1673ffffffffffffffffffffffffffffffffffffffff1681526020019081526020015f20805480602002602001604051908101604052809291908181526020018280548015610a2b57602002820191905f5260205f20905b815481526020019060010190808311610a17575b50505050509050919050565b6060600a805480602002602001604051908101604052809291908181526020018280548015610a8357602002820191905f5260205f20905b815481526020019060010190808311610a6f575b5050505050905090565b6007602052815f5260405f208181548110610aa6575f80fd5b905f5260205f20015f91509150505481565b600a8181548110610ac7575f80fd5b905f5260205f20015f915090505481565b5f60065f8381526020019081526020015f2090505f815f015411610b31576040517f08c379a0000000000000000000000000000000000000000000000000000000008152600401610b2890613894565b60405180910390fd5b806007015f9054906101000a900460ff16610b81576040517f08c379a0000000000000000000000000000000000000000000000000000000008152600401610b78906139b9565b60405180910390fd5b3373ffffffffffffffffffffffffffffffffffffffff16816001015f9054906101000a900473ffffffffffffffffffffffffffffffffffffffff1673ffffffffffffffffffffffffffffffffffffffff1614610c12576040517f08c379a0000000000000000000000000000000000000000000000000000000008152600401610c0990613a47565b60405180910390fd5b5f6201518082600201548360030154610c2b91906138df565b610c35919061393f565b90506103e88114610c7b576040517f08c379a0000000000000000000000000000000000000000000000000000000008152600401610c7290613ad5565b60405180910390fd5b5f62015180836008015442610c9091906138df565b610c9a919061393f565b90505f8111610cde576040517f08c379a0000000000000000000000000000000000000000000000000000000008152600401610cd590613b63565b60405180910390fd5b5f8260085f8581526020019081526020015f2054610cfc919061393f565b90505f61271083866005015484610d139190613b81565b610d1d9190613b81565b610d27919061393f565b905042856008018190555060015f9054906101000a900473ffffffffffffffffffffffffffffffffffffffff1673ffffffffffffffffffffffffffffffffffffffff1663a9059cbb33836040518363ffffffff1660e01b8152600401610d8e929190613bc2565b6020604051808303815f875af1158015610daa573d5f803e3d5ffd5b505050506040513d601f19601f82011682018060405250810190610dce9190613c13565b610e0d576040517f08c379a0000000000000000000000000000000000000000000000000000000008152600401610e0490613c88565b60405180910390fd5b505050505050565b5f600c5f3373ffffffffffffffffffffffffffffffffffffffff1673ffffffffffffffffffffffffffffffffffffffff1681526020019081526020015f205490505f8111610e98576040517f08c379a0000000000000000000000000000000000000000000000000000000008152600401610e8f90613d16565b60405180910390fd5b5f600c5f3373ffffffffffffffffffffffffffffffffffffffff1673ffffffffffffffffffffffffffffffffffffffff1681526020019081526020015f208190555060015f9054906101000a900473ffffffffffffffffffffffffffffffffffffffff1673ffffffffffffffffffffffffffffffffffffffff1663a9059cbb33836040518363ffffffff1660e01b8152600401610f36929190613bc2565b6020604051808303815f875af1158015610f52573d5f803e3d5ffd5b505050506040513d601f19601f82011682018060405250810190610f769190613c13565b610fb5576040517f08c379a0000000000000000000000000000000000000000000000000000000008152600401610fac90613da4565b60405180910390fd5b50565b5f8054906101000a900473ffffffffffffffffffffffffffffffffffffffff1673ffffffffffffffffffffffffffffffffffffffff163373ffffffffffffffffffffffffffffffffffffffff1614611045576040517f08c379a000000000000000000000000000000000000000000000000000000000815260040161103c90613e32565b60405180910390fd5b5f60015f9054906101000a900473ffffffffffffffffffffffffffffffffffffffff1673ffffffffffffffffffffffffffffffffffffffff166370a08231306040518263ffffffff1660e01b81526004016110a0919061344c565b602060405180830381865afa1580156110bb573d5f803e3d5ffd5b505050506040513d601f19601f820116820180604052508101906110df9190613e64565b90505f8111611123576040517f08c379a000000000000000000000000000000000000000000000000000000000815260040161111a90613ed9565b60405180910390fd5b60015f9054906101000a900473ffffffffffffffffffffffffffffffffffffffff1673ffffffffffffffffffffffffffffffffffffffff1663a9059cbb5f8054906101000a900473ffffffffffffffffffffffffffffffffffffffff16836040518363ffffffff1660e01b815260040161119e929190613bc2565b6020604051808303815f875af11580156111ba573d5f803e3d5ffd5b505050506040513d601f19601f820116820180604052508101906111de9190613c13565b61121d576040517f08c379a000000000000000000000000000000000000000000000000000000000815260040161121490613f41565b60405180910390fd5b50565b5f60015f9054906101000a900473ffffffffffffffffffffffffffffffffffffffff1673ffffffffffffffffffffffffffffffffffffffff166370a08231306040518263ffffffff1660e01b815260040161127b919061344c565b602060405180830381865afa158015611296573d5f803e3d5ffd5b505050506040513d601f19601f820116820180604052508101906112ba9190613e64565b905090565b5f8054906101000a900473ffffffffffffffffffffffffffffffffffffffff1681565b6006602052805f5260405f205f91509050805f015490806001015f9054906101000a900473ffffffffffffffffffffffffffffffffffffffff1690806002015490806003015490806004015490806005015490806006015490806007015f9054906101000a900460ff16908060080154905089565b60045481565b5f60065f8381526020019081526020015f209050806007015f9054906101000a900460ff166113c1576040517f08c379a00000000000000000000000000000000000000000000000000000000081526004016113b890613fa9565b60405180910390fd5b5f8054906101000a900473ffffffffffffffffffffffffffffffffffffffff1673ffffffffffffffffffffffffffffffffffffffff163373ffffffffffffffffffffffffffffffffffffffff1614806114685750806001015f9054906101000a900473ffffffffffffffffffffffffffffffffffffffff1673ffffffffffffffffffffffffffffffffffffffff163373ffffffffffffffffffffffffffffffffffffffff16145b6114a7576040517f08c379a000000000000000000000000000000000000000000000000000000000815260040161149e90614011565b60405180910390fd5b80600301544210156114ee576040517f08c379a00000000000000000000000000000000000000000000000000000000081526004016114e590614079565b60405180910390fd5b60015f9054906101000a900473ffffffffffffffffffffffffffffffffffffffff1673ffffffffffffffffffffffffffffffffffffffff1663a9059cbb826001015f9054906101000a900473ffffffffffffffffffffffffffffffffffffffff1683600501546040518363ffffffff1660e01b8152600401611571929190613bc2565b6020604051808303815f875af115801561158d573d5f803e3d5ffd5b505050506040513d601f19601f820116820180604052508101906115b19190613c13565b6115f0576040517f08c379a00000000000000000000000000000000000000000000000000000000081526004016115e790613f41565b60405180910390fd5b5f816006015411156116ff5760015f9054906101000a900473ffffffffffffffffffffffffffffffffffffffff1673ffffffffffffffffffffffffffffffffffffffff1663a9059cbb826001015f9054906101000a900473ffffffffffffffffffffffffffffffffffffffff1683600601546040518363ffffffff1660e01b815260040161167f929190613bc2565b6020604051808303815f875af115801561169b573d5f803e3d5ffd5b505050506040513d601f19601f820116820180604052508101906116bf9190613c13565b6116fe576040517f08c379a00000000000000000000000000000000000000000000000000000000081526004016116f590613c88565b60405180910390fd5b5b5f816007015f6101000a81548160ff021916908315150217905550817fbf542298705ed6fd22ddf94ee2db731ced9191396e6e7f7b6862803555f9ff2160405160405180910390a260055f3373ffffffffffffffffffffffffffffffffffffffff1673ffffffffffffffffffffffffffffffffffffffff1681526020019081526020015f2060065f8481526020019081526020015f20908060018154018082558091505060019003905f5260205f2090600902015f909190919091505f820154815f0155600182015f9054906101000a900473ffffffffffffffffffffffffffffffffffffffff16816001015f6101000a81548173ffffffffffffffffffffffffffffffffffffffff021916908373ffffffffffffffffffffffffffffffffffffffff1602179055506002820154816002015560038201548160030155600482015481600401556005820154816005015560068201548160060155600782015f9054906101000a900460ff16816007015f6101000a81548160ff0219169083151502179055506008820154816008015550505050565b60095481565b6005602052815f5260405f2081815481106118b4575f80fd5b905f5260205f2090600902015f9150915050805f015490806001015f9054906101000a900473ffffffffffffffffffffffffffffffffffffffff1690806002015490806003015490806004015490806005015490806006015490806007015f9054906101000a900460ff16908060080154905089565b60605f60075f8473ffffffffffffffffffffffffffffffffffffffff1673ffffffffffffffffffffffffffffffffffffffff1681526020019081526020015f208054806020026020016040519081016040528092919081815260200182805480156119b257602002820191905f5260205f20905b81548152602001906001019080831161199e575b505050505090505f815190505f8167ffffffffffffffff8111156119d9576119d8614097565b5b604051908082528060200260200182016040528015611a1257816020015b6119ff613130565b8152602001906001900390816119f75790505b5090505f5b82811015611b3a575f848281518110611a3357611a326140c4565b5b6020026020010151905060065f8281526020019081526020015f20604051806101200160405290815f8201548152602001600182015f9054906101000a900473ffffffffffffffffffffffffffffffffffffffff1673ffffffffffffffffffffffffffffffffffffffff1673ffffffffffffffffffffffffffffffffffffffff1681526020016002820154815260200160038201548152602001600482015481526020016005820154815260200160068201548152602001600782015f9054906101000a900460ff16151515158152602001600882015481525050838381518110611b2157611b206140c4565b5b6020026020010181905250508080600101915050611a17565b50809350505050919050565b6002602052805f5260405f205f91509050805f015f9054906101000a900473ffffffffffffffffffffffffffffffffffffffff16908060010154908060020154908060030154908060040154905085565b5f60025f8373ffffffffffffffffffffffffffffffffffffffff1673ffffffffffffffffffffffffffffffffffffffff1681526020019081526020015f20600101549050919050565b3373ffffffffffffffffffffffffffffffffffffffff165f8054906101000a900473ffffffffffffffffffffffffffffffffffffffff1673ffffffffffffffffffffffffffffffffffffffff1614611c6d576040517f08c379a0000000000000000000000000000000000000000000000000000000008152600401611c6490614161565b60405180910390fd5b8060085f8481526020019081526020015f2081905550600a82908060018154018082558091505060019003905f5260205f20015f90919091909150555050565b600b602052805f5260405f205f915090505481565b611cca613130565b60065f8381526020019081526020015f20604051806101200160405290815f8201548152602001600182015f9054906101000a900473ffffffffffffffffffffffffffffffffffffffff1673ffffffffffffffffffffffffffffffffffffffff1673ffffffffffffffffffffffffffffffffffffffff1681526020016002820154815260200160038201548152602001600482015481526020016005820154815260200160068201548152602001600782015f9054906101000a900460ff161515151581526020016008820154815250509050919050565b5f8060065f8481526020019081526020015f20604051806101200160405290815f8201548152602001600182015f9054906101000a900473ffffffffffffffffffffffffffffffffffffffff1673ffffffffffffffffffffffffffffffffffffffff1673ffffffffffffffffffffffffffffffffffffffff1681526020016002820154815260200160038201548152602001600482015481526020016005820154815260200160068201548152602001600782015f9054906101000a900460ff1615151515815260200160088201548152505090505f815f015111611ebc576040517f08c379a0000000000000000000000000000000000000000000000000000000008152600401611eb390613894565b60405180910390fd5b80606001514210611ed0575f915050611ef2565b62015180428260600151611ee491906138df565b611eee919061393f565b9150505b919050565b3373ffffffffffffffffffffffffffffffffffffffff165f8054906101000a900473ffffffffffffffffffffffffffffffffffffffff1673ffffffffffffffffffffffffffffffffffffffff1614611f84576040517f08c379a0000000000000000000000000000000000000000000000000000000008152600401611f7b90614161565b60405180910390fd5b8060065f8481526020019081526020015f20600301819055505050565b5f60065f8381526020019081526020015f2090503373ffffffffffffffffffffffffffffffffffffffff16816001015f9054906101000a900473ffffffffffffffffffffffffffffffffffffffff1673ffffffffffffffffffffffffffffffffffffffff1614612046576040517f08c379a000000000000000000000000000000000000000000000000000000000815260040161203d906141ef565b60405180910390fd5b60011515816007015f9054906101000a900460ff1615151461209d576040517f08c379a0000000000000000000000000000000000000000000000000000000008152600401612094906139b9565b60405180910390fd5b5f62015180826002015483600301546120b691906138df565b6120c0919061393f565b90506103208114612106576040517f08c379a00000000000000000000000000000000000000000000000000000000081526004016120fd9061427d565b60405180910390fd5b5f826007015f6101000a81548160ff02191690831515021790555081600301544211156121b0575f82600601548360050154612142919061429b565b90503373ffffffffffffffffffffffffffffffffffffffff1681604051612168906142fb565b5f6040518083038185875af1925050503d805f81146121a2576040519150601f19603f3d011682016040523d82523d5f602084013e6121a7565b606091505b50505050612290565b60015f9054906101000a900473ffffffffffffffffffffffffffffffffffffffff1673ffffffffffffffffffffffffffffffffffffffff1663a9059cbb3384600501546040518363ffffffff1660e01b8152600401612210929190613bc2565b6020604051808303815f875af115801561222c573d5f803e3d5ffd5b505050506040513d601f19601f820116820180604052508101906122509190613c13565b61228f576040517f08c379a000000000000000000000000000000000000000000000000000000000815260040161228690613f41565b60405180910390fd5b5b60055f3373ffffffffffffffffffffffffffffffffffffffff1673ffffffffffffffffffffffffffffffffffffffff1681526020019081526020015f2082908060018154018082558091505060019003905f5260205f2090600902015f909190919091505f820154815f0155600182015f9054906101000a900473ffffffffffffffffffffffffffffffffffffffff16816001015f6101000a81548173ffffffffffffffffffffffffffffffffffffffff021916908373ffffffffffffffffffffffffffffffffffffffff1602179055506002820154816002015560038201548160030155600482015481600401556005820154816005015560068201548160060155600782015f9054906101000a900460ff16816007015f6101000a81548160ff021916908315150217905550600882015481600801555050505050565b5f8060065f8481526020019081526020015f20604051806101200160405290815f8201548152602001600182015f9054906101000a900473ffffffffffffffffffffffffffffffffffffffff1673ffffffffffffffffffffffffffffffffffffffff1673ffffffffffffffffffffffffffffffffffffffff1681526020016002820154815260200160038201548152602001600482015481526020016005820154815260200160068201548152602001600782015f9054906101000a900460ff1615151515815260200160088201548152505090505f815f0151116124e9576040517f08c379a00000000000000000000000000000000000000000000000000000000081526004016124e090613894565b60405180910390fd5b8060e0015161252d576040517f08c379a0000000000000000000000000000000000000000000000000000000008152600401612524906139b9565b60405180910390fd5b5f620151808260400151836060015161254691906138df565b612550919061393f565b90505f60085f8381526020019081526020015f2054116125a5576040517f08c379a000000000000000000000000000000000000000000000000000000000815260040161259c90614359565b60405180910390fd5b5f8160085f8481526020019081526020015f20546125c3919061393f565b90505f6127108460a00151836125d99190613b81565b6125e3919061393f565b905080945050505050919050565b600d602052805f5260405f205f915090505481565b600c602052805f5260405f205f915090505481565b60015f9054906101000a900473ffffffffffffffffffffffffffffffffffffffff1681565b5f60085f8581526020019081526020015f205411612693576040517f08c379a000000000000000000000000000000000000000000000000000000000815260040161268a906143c1565b60405180910390fd5b60015f9054906101000a900473ffffffffffffffffffffffffffffffffffffffff1673ffffffffffffffffffffffffffffffffffffffff166323b872dd3330856040518463ffffffff1660e01b81526004016126f1939291906143df565b6020604051808303815f875af115801561270d573d5f803e3d5ffd5b505050506040513d601f19601f820116820180604052508101906127319190613c13565b612770576040517f08c379a000000000000000000000000000000000000000000000000000000000815260040161276790613f41565b60405180910390fd5b5f8073ffffffffffffffffffffffffffffffffffffffff1660025f3373ffffffffffffffffffffffffffffffffffffffff1673ffffffffffffffffffffffffffffffffffffffff1681526020019081526020015f205f015f9054906101000a900473ffffffffffffffffffffffffffffffffffffffff1673ffffffffffffffffffffffffffffffffffffffff16036129e4575f73ffffffffffffffffffffffffffffffffffffffff168273ffffffffffffffffffffffffffffffffffffffff161415801561286a57503373ffffffffffffffffffffffffffffffffffffffff168273ffffffffffffffffffffffffffffffffffffffff1614155b15612946578160025f3373ffffffffffffffffffffffffffffffffffffffff1673ffffffffffffffffffffffffffffffffffffffff1681526020019081526020015f205f015f6101000a81548173ffffffffffffffffffffffffffffffffffffffff021916908373ffffffffffffffffffffffffffffffffffffffff16021790555060025f8373ffffffffffffffffffffffffffffffffffffffff1673ffffffffffffffffffffffffffffffffffffffff1681526020019081526020015f206004015f81548092919061293c90614414565b91905055506129e3565b5f8054906101000a900473ffffffffffffffffffffffffffffffffffffffff1660025f3373ffffffffffffffffffffffffffffffffffffffff1673ffffffffffffffffffffffffffffffffffffffff1681526020019081526020015f205f015f6101000a81548173ffffffffffffffffffffffffffffffffffffffff021916908373ffffffffffffffffffffffffffffffffffffffff1602179055505b5b5f8054906101000a900473ffffffffffffffffffffffffffffffffffffffff1673ffffffffffffffffffffffffffffffffffffffff1660025f3373ffffffffffffffffffffffffffffffffffffffff1673ffffffffffffffffffffffffffffffffffffffff1681526020019081526020015f205f015f9054906101000a900473ffffffffffffffffffffffffffffffffffffffff1673ffffffffffffffffffffffffffffffffffffffff1614612c35576064600d5f600181526020019081526020015f205484612ab49190613b81565b612abe919061393f565b905080600c5f60025f3373ffffffffffffffffffffffffffffffffffffffff1673ffffffffffffffffffffffffffffffffffffffff1681526020019081526020015f205f015f9054906101000a900473ffffffffffffffffffffffffffffffffffffffff1673ffffffffffffffffffffffffffffffffffffffff1673ffffffffffffffffffffffffffffffffffffffff1681526020019081526020015f205f828254612b6a919061429b565b925050819055503373ffffffffffffffffffffffffffffffffffffffff1660025f3373ffffffffffffffffffffffffffffffffffffffff1673ffffffffffffffffffffffffffffffffffffffff1681526020019081526020015f205f015f9054906101000a900473ffffffffffffffffffffffffffffffffffffffff1673ffffffffffffffffffffffffffffffffffffffff167faeecfcda1271d292db728294b8ae465871ec039d51404caf49a7eb0ade51770a83604051612c2c91906131fc565b60405180910390a35b60405180610120016040528060035481526020013373ffffffffffffffffffffffffffffffffffffffff1681526020014281526020016201518086612c7a9190613b81565b42612c85919061429b565b815260200160085f8781526020019081526020015f20548152602001848152602001612cc360085f8881526020019081526020015f20548787612e20565b81526020016001151581526020014281525060065f60035481526020019081526020015f205f820151815f01556020820151816001015f6101000a81548173ffffffffffffffffffffffffffffffffffffffff021916908373ffffffffffffffffffffffffffffffffffffffff16021790555060408201518160020155606082015181600301556080820151816004015560a0820151816005015560c0820151816006015560e0820151816007015f6101000a81548160ff021916908315150217905550610100820151816008015590505060075f3373ffffffffffffffffffffffffffffffffffffffff1673ffffffffffffffffffffffffffffffffffffffff1681526020019081526020015f20600354908060018154018082558091505060019003905f5260205f20015f9091909190915055600160035f828254612e0a919061429b565b92505081905550612e1a33612e43565b50505050565b5f6127108285612e309190613b81565b612e3a919061393f565b90509392505050565b5f60025f8373ffffffffffffffffffffffffffffffffffffffff1673ffffffffffffffffffffffffffffffffffffffff1681526020019081526020015f205f015f9054906101000a900473ffffffffffffffffffffffffffffffffffffffff1690505f600190505b6005811161312b575f73ffffffffffffffffffffffffffffffffffffffff168273ffffffffffffffffffffffffffffffffffffffff16031561312b575f6064600d5f8481526020019081526020015f205460065f6001600354612f0e91906138df565b81526020019081526020015f2060050154612f299190613b81565b612f33919061393f565b90508060025f8573ffffffffffffffffffffffffffffffffffffffff1673ffffffffffffffffffffffffffffffffffffffff1681526020019081526020015f206001015f828254612f84919061429b565b9250508190555060015f9054906101000a900473ffffffffffffffffffffffffffffffffffffffff1673ffffffffffffffffffffffffffffffffffffffff1663a9059cbb84836040518363ffffffff1660e01b8152600401612fe7929190613bc2565b6020604051808303815f875af1158015613003573d5f803e3d5ffd5b505050506040513d601f19601f820116820180604052508101906130279190613c13565b613066576040517f08c379a000000000000000000000000000000000000000000000000000000000815260040161305d906144a5565b60405180910390fd5b8273ffffffffffffffffffffffffffffffffffffffff167f83b5eadb65fb8fc1b70a3b205b38bb0c6a3e15e14bcbc9d4f366d6c772e6d83b82846040516130ae9291906144c3565b60405180910390a260025f8473ffffffffffffffffffffffffffffffffffffffff1673ffffffffffffffffffffffffffffffffffffffff1681526020019081526020015f205f015f9054906101000a900473ffffffffffffffffffffffffffffffffffffffff16925050808061312390614414565b915050612eab565b505050565b6040518061012001604052805f81526020015f73ffffffffffffffffffffffffffffffffffffffff1681526020015f81526020015f81526020015f81526020015f81526020015f81526020015f151581526020015f81525090565b5f80fd5b5f819050919050565b6131a18161318f565b81146131ab575f80fd5b50565b5f813590506131bc81613198565b92915050565b5f602082840312156131d7576131d661318b565b5b5f6131e4848285016131ae565b91505092915050565b6131f68161318f565b82525050565b5f60208201905061320f5f8301846131ed565b92915050565b5f73ffffffffffffffffffffffffffffffffffffffff82169050919050565b5f61323e82613215565b9050919050565b61324e81613234565b8114613258575f80fd5b50565b5f8135905061326981613245565b92915050565b5f602082840312156132845761328361318b565b5b5f6132918482850161325b565b91505092915050565b5f805f606084860312156132b1576132b061318b565b5b5f6132be868287016131ae565b93505060206132cf868287016131ae565b92505060406132e08682870161325b565b9150509250925092565b5f8060408385031215613300576132ff61318b565b5b5f61330d858286016131ae565b925050602061331e858286016131ae565b9150509250929050565b5f81519050919050565b5f82825260208201905092915050565b5f819050602082019050919050565b61335a8161318f565b82525050565b5f61336b8383613351565b60208301905092915050565b5f602082019050919050565b5f61338d82613328565b6133978185613332565b93506133a283613342565b805f5b838110156133d25781516133b98882613360565b97506133c483613377565b9250506001810190506133a5565b5085935050505092915050565b5f6020820190508181035f8301526133f78184613383565b905092915050565b5f80604083850312156134155761341461318b565b5b5f6134228582860161325b565b9250506020613433858286016131ae565b9150509250929050565b61344681613234565b82525050565b5f60208201905061345f5f83018461343d565b92915050565b5f8115159050919050565b61347981613465565b82525050565b5f610120820190506134935f83018c6131ed565b6134a0602083018b61343d565b6134ad604083018a6131ed565b6134ba60608301896131ed565b6134c760808301886131ed565b6134d460a08301876131ed565b6134e160c08301866131ed565b6134ee60e0830185613470565b6134fc6101008301846131ed565b9a9950505050505050505050565b5f81519050919050565b5f82825260208201905092915050565b5f819050602082019050919050565b61353c81613234565b82525050565b61354b81613465565b82525050565b61012082015f8201516135665f850182613351565b5060208201516135796020850182613533565b50604082015161358c6040850182613351565b50606082015161359f6060850182613351565b5060808201516135b26080850182613351565b5060a08201516135c560a0850182613351565b5060c08201516135d860c0850182613351565b5060e08201516135eb60e0850182613542565b50610100820151613600610100850182613351565b50505050565b5f6136118383613551565b6101208301905092915050565b5f602082019050919050565b5f6136348261350a565b61363e8185613514565b935061364983613524565b805f5b838110156136795781516136608882613606565b975061366b8361361e565b92505060018101905061364c565b5085935050505092915050565b5f6020820190508181035f83015261369e818461362a565b905092915050565b5f60a0820190506136b95f83018861343d565b6136c660208301876131ed565b6136d360408301866131ed565b6136e060608301856131ed565b6136ed60808301846131ed565b9695505050505050565b61012082015f82015161370c5f850182613351565b50602082015161371f6020850182613533565b5060408201516137326040850182613351565b5060608201516137456060850182613351565b5060808201516137586080850182613351565b5060a082015161376b60a0850182613351565b5060c082015161377e60c0850182613351565b5060e082015161379160e0850182613542565b506101008201516137a6610100850182613351565b50505050565b5f610120820190506137c05f8301846136f7565b92915050565b5f819050919050565b5f6137e96137e46137df84613215565b6137c6565b613215565b9050919050565b5f6137fa826137cf565b9050919050565b5f61380b826137f0565b9050919050565b61381b81613801565b82525050565b5f6020820190506138345f830184613812565b92915050565b5f82825260208201905092915050565b7f496e76616c696420706f736974696f6e204944000000000000000000000000005f82015250565b5f61387e60138361383a565b91506138898261384a565b602082019050919050565b5f6020820190508181035f8301526138ab81613872565b9050919050565b7f4e487b71000000000000000000000000000000000000000000000000000000005f52601160045260245ffd5b5f6138e98261318f565b91506138f48361318f565b925082820390508181111561390c5761390b6138b2565b5b92915050565b7f4e487b71000000000000000000000000000000000000000000000000000000005f52601260045260245ffd5b5f6139498261318f565b91506139548361318f565b92508261396457613963613912565b5b828204905092915050565b7f506f736974696f6e20697320636c6f73656400000000000000000000000000005f82015250565b5f6139a360128361383a565b91506139ae8261396f565b602082019050919050565b5f6020820190508181035f8301526139d081613997565b9050919050565b7f4f6e6c7920706f736974696f6e206f776e65722063616e20636c61696d20696e5f8201527f7465726573740000000000000000000000000000000000000000000000000000602082015250565b5f613a3160268361383a565b9150613a3c826139d7565b604082019050919050565b5f6020820190508181035f830152613a5e81613a25565b9050919050565b7f4461696c7920696e7465726573742063616e206f6e6c7920626520636c61696d5f8201527f656420666f7220313030302d646179206c6f636b20706572696f640000000000602082015250565b5f613abf603b8361383a565b9150613aca82613a65565b604082019050919050565b5f6020820190508181035f830152613aec81613ab3565b9050919050565b7f43616e206f6e6c7920636c61696d20696e746572657374206f6e6365207065725f8201527f2064617900000000000000000000000000000000000000000000000000000000602082015250565b5f613b4d60248361383a565b9150613b5882613af3565b604082019050919050565b5f6020820190508181035f830152613b7a81613b41565b9050919050565b5f613b8b8261318f565b9150613b968361318f565b9250828202613ba48161318f565b91508282048414831517613bbb57613bba6138b2565b5b5092915050565b5f604082019050613bd55f83018561343d565b613be260208301846131ed565b9392505050565b613bf281613465565b8114613bfc575f80fd5b50565b5f81519050613c0d81613be9565b92915050565b5f60208284031215613c2857613c2761318b565b5b5f613c3584828501613bff565b91505092915050565b7f496e746572657374207472616e73666572206661696c656400000000000000005f82015250565b5f613c7260188361383a565b9150613c7d82613c3e565b602082019050919050565b5f6020820190508181035f830152613c9f81613c66565b9050919050565b7f4e6f2064697265637420726566657272616c20696e636f6d6520746f20636c615f8201527f696d000000000000000000000000000000000000000000000000000000000000602082015250565b5f613d0060228361383a565b9150613d0b82613ca6565b604082019050919050565b5f6020820190508181035f830152613d2d81613cf4565b9050919050565b7f44697265637420726566657272616c20696e636f6d65207472616e73666572205f8201527f6661696c65640000000000000000000000000000000000000000000000000000602082015250565b5f613d8e60268361383a565b9150613d9982613d34565b604082019050919050565b5f6020820190508181035f830152613dbb81613d82565b9050919050565b7f4f6e6c7920746865206f776e65722063616e2063616c6c20746869732066756e5f8201527f6374696f6e000000000000000000000000000000000000000000000000000000602082015250565b5f613e1c60258361383a565b9150613e2782613dc2565b604082019050919050565b5f6020820190508181035f830152613e4981613e10565b9050919050565b5f81519050613e5e81613198565b92915050565b5f60208284031215613e7957613e7861318b565b5b5f613e8684828501613e50565b91505092915050565b7f4e6f20746f6b656e7320746f20776974686472617700000000000000000000005f82015250565b5f613ec360158361383a565b9150613ece82613e8f565b602082019050919050565b5f6020820190508181035f830152613ef081613eb7565b9050919050565b7f546f6b656e207472616e73666572206661696c656400000000000000000000005f82015250565b5f613f2b60158361383a565b9150613f3682613ef7565b602082019050919050565b5f6020820190508181035f830152613f5881613f1f565b9050919050565b7f506f736974696f6e20697320616c726561647920636c6f7365640000000000005f82015250565b5f613f93601a8361383a565b9150613f9e82613f5f565b602082019050919050565b5f6020820190508181035f830152613fc081613f87565b9050919050565b7f556e617574686f72697a656400000000000000000000000000000000000000005f82015250565b5f613ffb600c8361383a565b915061400682613fc7565b602082019050919050565b5f6020820190508181035f83015261402881613fef565b9050919050565b7f556e6c6f636b2064617465206e6f7420726561636865640000000000000000005f82015250565b5f61406360178361383a565b915061406e8261402f565b602082019050919050565b5f6020820190508181035f83015261409081614057565b9050919050565b7f4e487b71000000000000000000000000000000000000000000000000000000005f52604160045260245ffd5b7f4e487b71000000000000000000000000000000000000000000000000000000005f52603260045260245ffd5b7f4f6e6c79206f776e6572206d6179206d6f64696679207374616b696e672070655f8201527f72696f6473000000000000000000000000000000000000000000000000000000602082015250565b5f61414b60258361383a565b9150614156826140f1565b604082019050919050565b5f6020820190508181035f8301526141788161413f565b9050919050565b7f4f6e6c7920706f736974696f6e2063726561746f72206d6179206d6f646966795f8201527f20706f736974696f6e0000000000000000000000000000000000000000000000602082015250565b5f6141d960298361383a565b91506141e48261417f565b604082019050919050565b5f6020820190508181035f830152614206816141cd565b9050919050565b7f456d657267656e637920636c6f7365206f6e6c7920616c6c6f77656420666f725f8201527f203830302d646179206c6f636b20706572696f64000000000000000000000000602082015250565b5f61426760348361383a565b91506142728261420d565b604082019050919050565b5f6020820190508181035f8301526142948161425b565b9050919050565b5f6142a58261318f565b91506142b08361318f565b92508282019050808211156142c8576142c76138b2565b5b92915050565b5f81905092915050565b50565b5f6142e65f836142ce565b91506142f1826142d8565b5f82019050919050565b5f614305826142db565b9150819050919050565b7f4c6f636b20706572696f64206e6f7420666f756e6400000000000000000000005f82015250565b5f61434360158361383a565b915061434e8261430f565b602082019050919050565b5f6020820190508181035f83015261437081614337565b9050919050565b7f4d617070696e67206e6f7420666f756e640000000000000000000000000000005f82015250565b5f6143ab60118361383a565b91506143b682614377565b602082019050919050565b5f6020820190508181035f8301526143d88161439f565b9050919050565b5f6060820190506143f25f83018661343d565b6143ff602083018561343d565b61440c60408301846131ed565b949350505050565b5f61441e8261318f565b91507fffffffffffffffffffffffffffffffffffffffffffffffffffffffffffffffff82036144505761444f6138b2565b5b600182019050919050565b7f496e636f6d65207472616e73666572206661696c6564000000000000000000005f82015250565b5f61448f60168361383a565b915061449a8261445b565b602082019050919050565b5f6020820190508181035f8301526144bc81614483565b9050919050565b5f6040820190506144d65f8301856131ed565b6144e360208301846131ed565b939250505056fea2646970667358221220cd62e7bf0c366975922c03cc1b90850323e56561c384e82ccdb180952991732364736f6c63430008190033",
					"opcodes": "PUSH1 0x80 PUSH1 0x40 MSTORE PUSH1 0x1 PUSH1 0x9 SSTORE PUSH1 0x40 MLOAD PUSH2 0x48F4 CODESIZE SUB DUP1 PUSH2 0x48F4 DUP4 CODECOPY DUP2 DUP2 ADD PUSH1 0x40 MSTORE DUP2 ADD SWAP1 PUSH2 0x2A SWAP2 SWAP1 PUSH2 0x31F JUMP JUMPDEST CALLER PUSH0 DUP1 PUSH2 0x100 EXP DUP2 SLOAD DUP2 PUSH20 0xFFFFFFFFFFFFFFFFFFFFFFFFFFFFFFFFFFFFFFFF MUL NOT AND SWAP1 DUP4 PUSH20 0xFFFFFFFFFFFFFFFFFFFFFFFFFFFFFFFFFFFFFFFF AND MUL OR SWAP1 SSTORE POP PUSH1 0x1 PUSH1 0x3 DUP2 SWAP1 SSTORE POP DUP1 PUSH1 0x1 PUSH0 PUSH2 0x100 EXP DUP2 SLOAD DUP2 PUSH20 0xFFFFFFFFFFFFFFFFFFFFFFFFFFFFFFFFFFFFFFFF MUL NOT AND SWAP1 DUP4 PUSH20 0xFFFFFFFFFFFFFFFFFFFFFFFFFFFFFFFFFFFFFFFF AND MUL OR SWAP1 SSTORE POP PUSH1 0x1 PUSH1 0x4 DUP2 SWAP1 SSTORE POP PUSH0 DUP1 SLOAD SWAP1 PUSH2 0x100 EXP SWAP1 DIV PUSH20 0xFFFFFFFFFFFFFFFFFFFFFFFFFFFFFFFFFFFFFFFF AND PUSH20 0xFFFFFFFFFFFFFFFFFFFFFFFFFFFFFFFFFFFFFFFF AND PUSH1 0x2 PUSH0 CALLER PUSH20 0xFFFFFFFFFFFFFFFFFFFFFFFFFFFFFFFFFFFFFFFF AND PUSH20 0xFFFFFFFFFFFFFFFFFFFFFFFFFFFFFFFFFFFFFFFF AND DUP2 MSTORE PUSH1 0x20 ADD SWAP1 DUP2 MSTORE PUSH1 0x20 ADD PUSH0 KECCAK256 PUSH0 ADD PUSH0 SWAP1 SLOAD SWAP1 PUSH2 0x100 EXP SWAP1 DIV PUSH20 0xFFFFFFFFFFFFFFFFFFFFFFFFFFFFFFFFFFFFFFFF AND PUSH20 0xFFFFFFFFFFFFFFFFFFFFFFFFFFFFFFFFFFFFFFFF AND EQ PUSH2 0x1BF JUMPI PUSH1 0x2 PUSH0 CALLER PUSH20 0xFFFFFFFFFFFFFFFFFFFFFFFFFFFFFFFFFFFFFFFF AND PUSH20 0xFFFFFFFFFFFFFFFFFFFFFFFFFFFFFFFFFFFFFFFF AND DUP2 MSTORE PUSH1 0x20 ADD SWAP1 DUP2 MSTORE PUSH1 0x20 ADD PUSH0 KECCAK256 PUSH1 0x2 ADD PUSH0 DUP2 SLOAD DUP1 SWAP3 SWAP2 SWAP1 PUSH2 0x1B9 SWAP1 PUSH2 0x380 JUMP JUMPDEST SWAP2 SWAP1 POP SSTORE POP JUMPDEST PUSH2 0x2710 PUSH1 0x8 PUSH0 PUSH2 0x3E8 DUP2 MSTORE PUSH1 0x20 ADD SWAP1 DUP2 MSTORE PUSH1 0x20 ADD PUSH0 KECCAK256 DUP2 SWAP1 SSTORE POP PUSH2 0x2710 PUSH1 0x8 PUSH0 PUSH2 0x320 DUP2 MSTORE PUSH1 0x20 ADD SWAP1 DUP2 MSTORE PUSH1 0x20 ADD PUSH0 KECCAK256 DUP2 SWAP1 SSTORE POP PUSH1 0xA PUSH2 0x3E8 SWAP1 DUP1 PUSH1 0x1 DUP2 SLOAD ADD DUP1 DUP3 SSTORE DUP1 SWAP2 POP POP PUSH1 0x1 SWAP1 SUB SWAP1 PUSH0 MSTORE PUSH1 0x20 PUSH0 KECCAK256 ADD PUSH0 SWAP1 SWAP2 SWAP1 SWAP2 SWAP1 SWAP2 POP SSTORE PUSH1 0xA PUSH2 0x320 SWAP1 DUP1 PUSH1 0x1 DUP2 SLOAD ADD DUP1 DUP3 SSTORE DUP1 SWAP2 POP POP PUSH1 0x1 SWAP1 SUB SWAP1 PUSH0 MSTORE PUSH1 0x20 PUSH0 KECCAK256 ADD PUSH0 SWAP1 SWAP2 SWAP1 SWAP2 SWAP1 SWAP2 POP SSTORE PUSH1 0xA PUSH1 0xD PUSH0 PUSH1 0x1 DUP2 MSTORE PUSH1 0x20 ADD SWAP1 DUP2 MSTORE PUSH1 0x20 ADD PUSH0 KECCAK256 DUP2 SWAP1 SSTORE POP PUSH1 0x5 PUSH1 0xD PUSH0 PUSH1 0x2 DUP2 MSTORE PUSH1 0x20 ADD SWAP1 DUP2 MSTORE PUSH1 0x20 ADD PUSH0 KECCAK256 DUP2 SWAP1 SSTORE POP PUSH1 0x4 PUSH1 0xD PUSH0 PUSH1 0x3 DUP2 MSTORE PUSH1 0x20 ADD SWAP1 DUP2 MSTORE PUSH1 0x20 ADD PUSH0 KECCAK256 DUP2 SWAP1 SSTORE POP PUSH1 0x3 PUSH1 0xD PUSH0 PUSH1 0x4 DUP2 MSTORE PUSH1 0x20 ADD SWAP1 DUP2 MSTORE PUSH1 0x20 ADD PUSH0 KECCAK256 DUP2 SWAP1 SSTORE POP PUSH1 0x2 PUSH1 0xD PUSH0 PUSH1 0x5 DUP2 MSTORE PUSH1 0x20 ADD SWAP1 DUP2 MSTORE PUSH1 0x20 ADD PUSH0 KECCAK256 DUP2 SWAP1 SSTORE POP POP PUSH2 0x3C7 JUMP JUMPDEST PUSH0 DUP1 REVERT JUMPDEST PUSH0 PUSH20 0xFFFFFFFFFFFFFFFFFFFFFFFFFFFFFFFFFFFFFFFF DUP3 AND SWAP1 POP SWAP2 SWAP1 POP JUMP JUMPDEST PUSH0 PUSH2 0x2EE DUP3 PUSH2 0x2C5 JUMP JUMPDEST SWAP1 POP SWAP2 SWAP1 POP JUMP JUMPDEST PUSH2 0x2FE DUP2 PUSH2 0x2E4 JUMP JUMPDEST DUP2 EQ PUSH2 0x308 JUMPI PUSH0 DUP1 REVERT JUMPDEST POP JUMP JUMPDEST PUSH0 DUP2 MLOAD SWAP1 POP PUSH2 0x319 DUP2 PUSH2 0x2F5 JUMP JUMPDEST SWAP3 SWAP2 POP POP JUMP JUMPDEST PUSH0 PUSH1 0x20 DUP3 DUP5 SUB SLT ISZERO PUSH2 0x334 JUMPI PUSH2 0x333 PUSH2 0x2C1 JUMP JUMPDEST JUMPDEST PUSH0 PUSH2 0x341 DUP5 DUP3 DUP6 ADD PUSH2 0x30B JUMP JUMPDEST SWAP2 POP POP SWAP3 SWAP2 POP POP JUMP JUMPDEST PUSH32 0x4E487B7100000000000000000000000000000000000000000000000000000000 PUSH0 MSTORE PUSH1 0x11 PUSH1 0x4 MSTORE PUSH1 0x24 PUSH0 REVERT JUMPDEST PUSH0 DUP2 SWAP1 POP SWAP2 SWAP1 POP JUMP JUMPDEST PUSH0 PUSH2 0x38A DUP3 PUSH2 0x377 JUMP JUMPDEST SWAP2 POP PUSH32 0xFFFFFFFFFFFFFFFFFFFFFFFFFFFFFFFFFFFFFFFFFFFFFFFFFFFFFFFFFFFFFFFF DUP3 SUB PUSH2 0x3BC JUMPI PUSH2 0x3BB PUSH2 0x34A JUMP JUMPDEST JUMPDEST PUSH1 0x1 DUP3 ADD SWAP1 POP SWAP2 SWAP1 POP JUMP JUMPDEST PUSH2 0x4520 DUP1 PUSH2 0x3D4 PUSH0 CODECOPY PUSH0 RETURN INVALID PUSH1 0x80 PUSH1 0x40 MSTORE CALLVALUE DUP1 ISZERO PUSH2 0xF JUMPI PUSH0 DUP1 REVERT JUMPDEST POP PUSH1 0x4 CALLDATASIZE LT PUSH2 0x20F JUMPI PUSH0 CALLDATALOAD PUSH1 0xE0 SHR DUP1 PUSH4 0x99FBAB88 GT PUSH2 0x123 JUMPI DUP1 PUSH4 0xB77B7DC9 GT PUSH2 0xAB JUMPI DUP1 PUSH4 0xD21B7ABF GT PUSH2 0x7A JUMPI DUP1 PUSH4 0xD21B7ABF EQ PUSH2 0x697 JUMPI DUP1 PUSH4 0xD7406F5C EQ PUSH2 0x6B3 JUMPI DUP1 PUSH4 0xF59A843A EQ PUSH2 0x6E3 JUMPI DUP1 PUSH4 0xF6E88873 EQ PUSH2 0x713 JUMPI DUP1 PUSH4 0xFC0C546A EQ PUSH2 0x743 JUMPI PUSH2 0x20F JUMP JUMPDEST DUP1 PUSH4 0xB77B7DC9 EQ PUSH2 0x5EB JUMPI DUP1 PUSH4 0xB838EC86 EQ PUSH2 0x61B JUMPI DUP1 PUSH4 0xBC259107 EQ PUSH2 0x64B JUMPI DUP1 PUSH4 0xC7C9D055 EQ PUSH2 0x67B JUMPI PUSH2 0x20F JUMP JUMPDEST DUP1 PUSH4 0xA54586F8 GT PUSH2 0xF2 JUMPI DUP1 PUSH4 0xA54586F8 EQ PUSH2 0x503 JUMPI DUP1 PUSH4 0xA567AC2E EQ PUSH2 0x53B JUMPI DUP1 PUSH4 0xA87430BA EQ PUSH2 0x56B JUMPI DUP1 PUSH4 0xAA7ED462 EQ PUSH2 0x59F JUMPI DUP1 PUSH4 0xB0F0475B EQ PUSH2 0x5CF JUMPI PUSH2 0x20F JUMP JUMPDEST DUP1 PUSH4 0x99FBAB88 EQ PUSH2 0x473 JUMPI DUP1 PUSH4 0x9DC4B9C9 EQ PUSH2 0x4AB JUMPI DUP1 PUSH4 0xA126D601 EQ PUSH2 0x4C9 JUMPI DUP1 PUSH4 0xA1E6A255 EQ PUSH2 0x4E5 JUMPI PUSH2 0x20F JUMP JUMPDEST DUP1 PUSH4 0x40D98A44 GT PUSH2 0x1A6 JUMPI DUP1 PUSH4 0x591D8FEA GT PUSH2 0x175 JUMPI DUP1 PUSH4 0x591D8FEA EQ PUSH2 0x407 JUMPI DUP1 PUSH4 0x5BFFA8FF EQ PUSH2 0x423 JUMPI DUP1 PUSH4 0x853828B6 EQ PUSH2 0x42D JUMPI DUP1 PUSH4 0x8B7AFE2E EQ PUSH2 0x437 JUMPI DUP1 PUSH4 0x8DA5CB5B EQ PUSH2 0x455 JUMPI PUSH2 0x20F JUMP JUMPDEST DUP1 PUSH4 0x40D98A44 EQ PUSH2 0x359 JUMPI DUP1 PUSH4 0x41EE13BE EQ PUSH2 0x389 JUMPI DUP1 PUSH4 0x45EAE373 EQ PUSH2 0x3A7 JUMPI DUP1 PUSH4 0x4C8F2A78 EQ PUSH2 0x3D7 JUMPI PUSH2 0x20F JUMP JUMPDEST DUP1 PUSH4 0x1DF9758B GT PUSH2 0x1E2 JUMPI DUP1 PUSH4 0x1DF9758B EQ PUSH2 0x2C1 JUMPI DUP1 PUSH4 0x21923BDE EQ PUSH2 0x2F1 JUMPI DUP1 PUSH4 0x23E252F4 EQ PUSH2 0x321 JUMPI DUP1 PUSH4 0x2AD53440 EQ PUSH2 0x33D JUMPI PUSH2 0x20F JUMP JUMPDEST DUP1 PUSH4 0x39AF9EB EQ PUSH2 0x213 JUMPI DUP1 PUSH4 0xC196A74 EQ PUSH2 0x243 JUMPI DUP1 PUSH4 0x1131C8CD EQ PUSH2 0x273 JUMPI DUP1 PUSH4 0x1271FDE0 EQ PUSH2 0x291 JUMPI JUMPDEST PUSH0 DUP1 REVERT JUMPDEST PUSH2 0x22D PUSH1 0x4 DUP1 CALLDATASIZE SUB DUP2 ADD SWAP1 PUSH2 0x228 SWAP2 SWAP1 PUSH2 0x31C2 JUMP JUMPDEST PUSH2 0x761 JUMP JUMPDEST PUSH1 0x40 MLOAD PUSH2 0x23A SWAP2 SWAP1 PUSH2 0x31FC JUMP JUMPDEST PUSH1 0x40 MLOAD DUP1 SWAP2 SUB SWAP1 RETURN JUMPDEST PUSH2 0x25D PUSH1 0x4 DUP1 CALLDATASIZE SUB DUP2 ADD SWAP1 PUSH2 0x258 SWAP2 SWAP1 PUSH2 0x31C2 JUMP JUMPDEST PUSH2 0x776 JUMP JUMPDEST PUSH1 0x40 MLOAD PUSH2 0x26A SWAP2 SWAP1 PUSH2 0x31FC JUMP JUMPDEST PUSH1 0x40 MLOAD DUP1 SWAP2 SUB SWAP1 RETURN JUMPDEST PUSH2 0x27B PUSH2 0x790 JUMP JUMPDEST PUSH1 0x40 MLOAD PUSH2 0x288 SWAP2 SWAP1 PUSH2 0x31FC JUMP JUMPDEST PUSH1 0x40 MLOAD DUP1 SWAP2 SUB SWAP1 RETURN JUMPDEST PUSH2 0x2AB PUSH1 0x4 DUP1 CALLDATASIZE SUB DUP2 ADD SWAP1 PUSH2 0x2A6 SWAP2 SWAP1 PUSH2 0x326F JUMP JUMPDEST PUSH2 0x796 JUMP JUMPDEST PUSH1 0x40 MLOAD PUSH2 0x2B8 SWAP2 SWAP1 PUSH2 0x31FC JUMP JUMPDEST PUSH1 0x40 MLOAD DUP1 SWAP2 SUB SWAP1 RETURN JUMPDEST PUSH2 0x2DB PUSH1 0x4 DUP1 CALLDATASIZE SUB DUP2 ADD SWAP1 PUSH2 0x2D6 SWAP2 SWAP1 PUSH2 0x31C2 JUMP JUMPDEST PUSH2 0x7DF JUMP JUMPDEST PUSH1 0x40 MLOAD PUSH2 0x2E8 SWAP2 SWAP1 PUSH2 0x31FC JUMP JUMPDEST PUSH1 0x40 MLOAD DUP1 SWAP2 SUB SWAP1 RETURN JUMPDEST PUSH2 0x30B PUSH1 0x4 DUP1 CALLDATASIZE SUB DUP2 ADD SWAP1 PUSH2 0x306 SWAP2 SWAP1 PUSH2 0x326F JUMP JUMPDEST PUSH2 0x93C JUMP JUMPDEST PUSH1 0x40 MLOAD PUSH2 0x318 SWAP2 SWAP1 PUSH2 0x31FC JUMP JUMPDEST PUSH1 0x40 MLOAD DUP1 SWAP2 SUB SWAP1 RETURN JUMPDEST PUSH2 0x33B PUSH1 0x4 DUP1 CALLDATASIZE SUB DUP2 ADD SWAP1 PUSH2 0x336 SWAP2 SWAP1 PUSH2 0x329A JUMP JUMPDEST PUSH2 0x985 JUMP JUMPDEST STOP JUMPDEST PUSH2 0x357 PUSH1 0x4 DUP1 CALLDATASIZE SUB DUP2 ADD SWAP1 PUSH2 0x352 SWAP2 SWAP1 PUSH2 0x32EA JUMP JUMPDEST PUSH2 0x995 JUMP JUMPDEST STOP JUMPDEST PUSH2 0x373 PUSH1 0x4 DUP1 CALLDATASIZE SUB DUP2 ADD SWAP1 PUSH2 0x36E SWAP2 SWAP1 PUSH2 0x326F JUMP JUMPDEST PUSH2 0x9A4 JUMP JUMPDEST PUSH1 0x40 MLOAD PUSH2 0x380 SWAP2 SWAP1 PUSH2 0x33DF JUMP JUMPDEST PUSH1 0x40 MLOAD DUP1 SWAP2 SUB SWAP1 RETURN JUMPDEST PUSH2 0x391 PUSH2 0xA37 JUMP JUMPDEST PUSH1 0x40 MLOAD PUSH2 0x39E SWAP2 SWAP1 PUSH2 0x33DF JUMP JUMPDEST PUSH1 0x40 MLOAD DUP1 SWAP2 SUB SWAP1 RETURN JUMPDEST PUSH2 0x3C1 PUSH1 0x4 DUP1 CALLDATASIZE SUB DUP2 ADD SWAP1 PUSH2 0x3BC SWAP2 SWAP1 PUSH2 0x33FF JUMP JUMPDEST PUSH2 0xA8D JUMP JUMPDEST PUSH1 0x40 MLOAD PUSH2 0x3CE SWAP2 SWAP1 PUSH2 0x31FC JUMP JUMPDEST PUSH1 0x40 MLOAD DUP1 SWAP2 SUB SWAP1 RETURN JUMPDEST PUSH2 0x3F1 PUSH1 0x4 DUP1 CALLDATASIZE SUB DUP2 ADD SWAP1 PUSH2 0x3EC SWAP2 SWAP1 PUSH2 0x31C2 JUMP JUMPDEST PUSH2 0xAB8 JUMP JUMPDEST PUSH1 0x40 MLOAD PUSH2 0x3FE SWAP2 SWAP1 PUSH2 0x31FC JUMP JUMPDEST PUSH1 0x40 MLOAD DUP1 SWAP2 SUB SWAP1 RETURN JUMPDEST PUSH2 0x421 PUSH1 0x4 DUP1 CALLDATASIZE SUB DUP2 ADD SWAP1 PUSH2 0x41C SWAP2 SWAP1 PUSH2 0x31C2 JUMP JUMPDEST PUSH2 0xAD8 JUMP JUMPDEST STOP JUMPDEST PUSH2 0x42B PUSH2 0xE15 JUMP JUMPDEST STOP JUMPDEST PUSH2 0x435 PUSH2 0xFB8 JUMP JUMPDEST STOP JUMPDEST PUSH2 0x43F PUSH2 0x1220 JUMP JUMPDEST PUSH1 0x40 MLOAD PUSH2 0x44C SWAP2 SWAP1 PUSH2 0x31FC JUMP JUMPDEST PUSH1 0x40 MLOAD DUP1 SWAP2 SUB SWAP1 RETURN JUMPDEST PUSH2 0x45D PUSH2 0x12BF JUMP JUMPDEST PUSH1 0x40 MLOAD PUSH2 0x46A SWAP2 SWAP1 PUSH2 0x344C JUMP JUMPDEST PUSH1 0x40 MLOAD DUP1 SWAP2 SUB SWAP1 RETURN JUMPDEST PUSH2 0x48D PUSH1 0x4 DUP1 CALLDATASIZE SUB DUP2 ADD SWAP1 PUSH2 0x488 SWAP2 SWAP1 PUSH2 0x31C2 JUMP JUMPDEST PUSH2 0x12E2 JUMP JUMPDEST PUSH1 0x40 MLOAD PUSH2 0x4A2 SWAP10 SWAP9 SWAP8 SWAP7 SWAP6 SWAP5 SWAP4 SWAP3 SWAP2 SWAP1 PUSH2 0x347F JUMP JUMPDEST PUSH1 0x40 MLOAD DUP1 SWAP2 SUB SWAP1 RETURN JUMPDEST PUSH2 0x4B3 PUSH2 0x1357 JUMP JUMPDEST PUSH1 0x40 MLOAD PUSH2 0x4C0 SWAP2 SWAP1 PUSH2 0x31FC JUMP JUMPDEST PUSH1 0x40 MLOAD DUP1 SWAP2 SUB SWAP1 RETURN JUMPDEST PUSH2 0x4E3 PUSH1 0x4 DUP1 CALLDATASIZE SUB DUP2 ADD SWAP1 PUSH2 0x4DE SWAP2 SWAP1 PUSH2 0x31C2 JUMP JUMPDEST PUSH2 0x135D JUMP JUMPDEST STOP JUMPDEST PUSH2 0x4ED PUSH2 0x1895 JUMP JUMPDEST PUSH1 0x40 MLOAD PUSH2 0x4FA SWAP2 SWAP1 PUSH2 0x31FC JUMP JUMPDEST PUSH1 0x40 MLOAD DUP1 SWAP2 SUB SWAP1 RETURN JUMPDEST PUSH2 0x51D PUSH1 0x4 DUP1 CALLDATASIZE SUB DUP2 ADD SWAP1 PUSH2 0x518 SWAP2 SWAP1 PUSH2 0x33FF JUMP JUMPDEST PUSH2 0x189B JUMP JUMPDEST PUSH1 0x40 MLOAD PUSH2 0x532 SWAP10 SWAP9 SWAP8 SWAP7 SWAP6 SWAP5 SWAP4 SWAP3 SWAP2 SWAP1 PUSH2 0x347F JUMP JUMPDEST PUSH1 0x40 MLOAD DUP1 SWAP2 SUB SWAP1 RETURN JUMPDEST PUSH2 0x555 PUSH1 0x4 DUP1 CALLDATASIZE SUB DUP2 ADD SWAP1 PUSH2 0x550 SWAP2 SWAP1 PUSH2 0x326F JUMP JUMPDEST PUSH2 0x192A JUMP JUMPDEST PUSH1 0x40 MLOAD PUSH2 0x562 SWAP2 SWAP1 PUSH2 0x3686 JUMP JUMPDEST PUSH1 0x40 MLOAD DUP1 SWAP2 SUB SWAP1 RETURN JUMPDEST PUSH2 0x585 PUSH1 0x4 DUP1 CALLDATASIZE SUB DUP2 ADD SWAP1 PUSH2 0x580 SWAP2 SWAP1 PUSH2 0x326F JUMP JUMPDEST PUSH2 0x1B46 JUMP JUMPDEST PUSH1 0x40 MLOAD PUSH2 0x596 SWAP6 SWAP5 SWAP4 SWAP3 SWAP2 SWAP1 PUSH2 0x36A6 JUMP JUMPDEST PUSH1 0x40 MLOAD DUP1 SWAP2 SUB SWAP1 RETURN JUMPDEST PUSH2 0x5B9 PUSH1 0x4 DUP1 CALLDATASIZE SUB DUP2 ADD SWAP1 PUSH2 0x5B4 SWAP2 SWAP1 PUSH2 0x326F JUMP JUMPDEST PUSH2 0x1B97 JUMP JUMPDEST PUSH1 0x40 MLOAD PUSH2 0x5C6 SWAP2 SWAP1 PUSH2 0x31FC JUMP JUMPDEST PUSH1 0x40 MLOAD DUP1 SWAP2 SUB SWAP1 RETURN JUMPDEST PUSH2 0x5E9 PUSH1 0x4 DUP1 CALLDATASIZE SUB DUP2 ADD SWAP1 PUSH2 0x5E4 SWAP2 SWAP1 PUSH2 0x32EA JUMP JUMPDEST PUSH2 0x1BE0 JUMP JUMPDEST STOP JUMPDEST PUSH2 0x605 PUSH1 0x4 DUP1 CALLDATASIZE SUB DUP2 ADD SWAP1 PUSH2 0x600 SWAP2 SWAP1 PUSH2 0x326F JUMP JUMPDEST PUSH2 0x1CAD JUMP JUMPDEST PUSH1 0x40 MLOAD PUSH2 0x612 SWAP2 SWAP1 PUSH2 0x31FC JUMP JUMPDEST PUSH1 0x40 MLOAD DUP1 SWAP2 SUB SWAP1 RETURN JUMPDEST PUSH2 0x635 PUSH1 0x4 DUP1 CALLDATASIZE SUB DUP2 ADD SWAP1 PUSH2 0x630 SWAP2 SWAP1 PUSH2 0x31C2 JUMP JUMPDEST PUSH2 0x1CC2 JUMP JUMPDEST PUSH1 0x40 MLOAD PUSH2 0x642 SWAP2 SWAP1 PUSH2 0x37AC JUMP JUMPDEST PUSH1 0x40 MLOAD DUP1 SWAP2 SUB SWAP1 RETURN JUMPDEST PUSH2 0x665 PUSH1 0x4 DUP1 CALLDATASIZE SUB DUP2 ADD SWAP1 PUSH2 0x660 SWAP2 SWAP1 PUSH2 0x31C2 JUMP JUMPDEST PUSH2 0x1DA2 JUMP JUMPDEST PUSH1 0x40 MLOAD PUSH2 0x672 SWAP2 SWAP1 PUSH2 0x31FC JUMP JUMPDEST PUSH1 0x40 MLOAD DUP1 SWAP2 SUB SWAP1 RETURN JUMPDEST PUSH2 0x695 PUSH1 0x4 DUP1 CALLDATASIZE SUB DUP2 ADD SWAP1 PUSH2 0x690 SWAP2 SWAP1 PUSH2 0x32EA JUMP JUMPDEST PUSH2 0x1EF7 JUMP JUMPDEST STOP JUMPDEST PUSH2 0x6B1 PUSH1 0x4 DUP1 CALLDATASIZE SUB DUP2 ADD SWAP1 PUSH2 0x6AC SWAP2 SWAP1 PUSH2 0x31C2 JUMP JUMPDEST PUSH2 0x1FA1 JUMP JUMPDEST STOP JUMPDEST PUSH2 0x6CD PUSH1 0x4 DUP1 CALLDATASIZE SUB DUP2 ADD SWAP1 PUSH2 0x6C8 SWAP2 SWAP1 PUSH2 0x31C2 JUMP JUMPDEST PUSH2 0x23CF JUMP JUMPDEST PUSH1 0x40 MLOAD PUSH2 0x6DA SWAP2 SWAP1 PUSH2 0x31FC JUMP JUMPDEST PUSH1 0x40 MLOAD DUP1 SWAP2 SUB SWAP1 RETURN JUMPDEST PUSH2 0x6FD PUSH1 0x4 DUP1 CALLDATASIZE SUB DUP2 ADD SWAP1 PUSH2 0x6F8 SWAP2 SWAP1 PUSH2 0x31C2 JUMP JUMPDEST PUSH2 0x25F1 JUMP JUMPDEST PUSH1 0x40 MLOAD PUSH2 0x70A SWAP2 SWAP1 PUSH2 0x31FC JUMP JUMPDEST PUSH1 0x40 MLOAD DUP1 SWAP2 SUB SWAP1 RETURN JUMPDEST PUSH2 0x72D PUSH1 0x4 DUP1 CALLDATASIZE SUB DUP2 ADD SWAP1 PUSH2 0x728 SWAP2 SWAP1 PUSH2 0x326F JUMP JUMPDEST PUSH2 0x2606 JUMP JUMPDEST PUSH1 0x40 MLOAD PUSH2 0x73A SWAP2 SWAP1 PUSH2 0x31FC JUMP JUMPDEST PUSH1 0x40 MLOAD DUP1 SWAP2 SUB SWAP1 RETURN JUMPDEST PUSH2 0x74B PUSH2 0x261B JUMP JUMPDEST PUSH1 0x40 MLOAD PUSH2 0x758 SWAP2 SWAP1 PUSH2 0x3821 JUMP JUMPDEST PUSH1 0x40 MLOAD DUP1 SWAP2 SUB SWAP1 RETURN JUMPDEST PUSH1 0x8 PUSH1 0x20 MSTORE DUP1 PUSH0 MSTORE PUSH1 0x40 PUSH0 KECCAK256 PUSH0 SWAP2 POP SWAP1 POP SLOAD DUP2 JUMP JUMPDEST PUSH0 PUSH1 0x8 PUSH0 DUP4 DUP2 MSTORE PUSH1 0x20 ADD SWAP1 DUP2 MSTORE PUSH1 0x20 ADD PUSH0 KECCAK256 SLOAD SWAP1 POP SWAP2 SWAP1 POP JUMP JUMPDEST PUSH1 0x3 SLOAD DUP2 JUMP JUMPDEST PUSH0 PUSH1 0x2 PUSH0 DUP4 PUSH20 0xFFFFFFFFFFFFFFFFFFFFFFFFFFFFFFFFFFFFFFFF AND PUSH20 0xFFFFFFFFFFFFFFFFFFFFFFFFFFFFFFFFFFFFFFFF AND DUP2 MSTORE PUSH1 0x20 ADD SWAP1 DUP2 MSTORE PUSH1 0x20 ADD PUSH0 KECCAK256 PUSH1 0x4 ADD SLOAD SWAP1 POP SWAP2 SWAP1 POP JUMP JUMPDEST PUSH0 DUP1 PUSH1 0x6 PUSH0 DUP5 DUP2 MSTORE PUSH1 0x20 ADD SWAP1 DUP2 MSTORE PUSH1 0x20 ADD PUSH0 KECCAK256 PUSH1 0x40 MLOAD DUP1 PUSH2 0x120 ADD PUSH1 0x40 MSTORE SWAP1 DUP2 PUSH0 DUP3 ADD SLOAD DUP2 MSTORE PUSH1 0x20 ADD PUSH1 0x1 DUP3 ADD PUSH0 SWAP1 SLOAD SWAP1 PUSH2 0x100 EXP SWAP1 DIV PUSH20 0xFFFFFFFFFFFFFFFFFFFFFFFFFFFFFFFFFFFFFFFF AND PUSH20 0xFFFFFFFFFFFFFFFFFFFFFFFFFFFFFFFFFFFFFFFF AND PUSH20 0xFFFFFFFFFFFFFFFFFFFFFFFFFFFFFFFFFFFFFFFF AND DUP2 MSTORE PUSH1 0x20 ADD PUSH1 0x2 DUP3 ADD SLOAD DUP2 MSTORE PUSH1 0x20 ADD PUSH1 0x3 DUP3 ADD SLOAD DUP2 MSTORE PUSH1 0x20 ADD PUSH1 0x4 DUP3 ADD SLOAD DUP2 MSTORE PUSH1 0x20 ADD PUSH1 0x5 DUP3 ADD SLOAD DUP2 MSTORE PUSH1 0x20 ADD PUSH1 0x6 DUP3 ADD SLOAD DUP2 MSTORE PUSH1 0x20 ADD PUSH1 0x7 DUP3 ADD PUSH0 SWAP1 SLOAD SWAP1 PUSH2 0x100 EXP SWAP1 DIV PUSH1 0xFF AND ISZERO ISZERO ISZERO ISZERO DUP2 MSTORE PUSH1 0x20 ADD PUSH1 0x8 DUP3 ADD SLOAD DUP2 MSTORE POP POP SWAP1 POP PUSH0 DUP2 PUSH0 ADD MLOAD GT PUSH2 0x8F9 JUMPI PUSH1 0x40 MLOAD PUSH32 0x8C379A000000000000000000000000000000000000000000000000000000000 DUP2 MSTORE PUSH1 0x4 ADD PUSH2 0x8F0 SWAP1 PUSH2 0x3894 JUMP JUMPDEST PUSH1 0x40 MLOAD DUP1 SWAP2 SUB SWAP1 REVERT JUMPDEST PUSH0 DUP2 PUSH1 0x60 ADD MLOAD TIMESTAMP LT PUSH2 0x90D JUMPI PUSH0 SWAP1 POP PUSH2 0x932 JUMP JUMPDEST PUSH3 0x15180 DUP3 PUSH1 0x40 ADD MLOAD DUP4 PUSH1 0x60 ADD MLOAD PUSH2 0x925 SWAP2 SWAP1 PUSH2 0x38DF JUMP JUMPDEST PUSH2 0x92F SWAP2 SWAP1 PUSH2 0x393F JUMP JUMPDEST SWAP1 POP JUMPDEST DUP1 SWAP3 POP POP POP SWAP2 SWAP1 POP JUMP JUMPDEST PUSH0 PUSH1 0x2 PUSH0 DUP4 PUSH20 0xFFFFFFFFFFFFFFFFFFFFFFFFFFFFFFFFFFFFFFFF AND PUSH20 0xFFFFFFFFFFFFFFFFFFFFFFFFFFFFFFFFFFFFFFFF AND DUP2 MSTORE PUSH1 0x20 ADD SWAP1 DUP2 MSTORE PUSH1 0x20 ADD PUSH0 KECCAK256 PUSH1 0x3 ADD SLOAD SWAP1 POP SWAP2 SWAP1 POP JUMP JUMPDEST PUSH2 0x990 DUP4 DUP4 DUP4 PUSH2 0x2640 JUMP JUMPDEST POP POP POP JUMP JUMPDEST PUSH2 0x9A0 DUP3 DUP3 PUSH0 PUSH2 0x2640 JUMP JUMPDEST POP POP JUMP JUMPDEST PUSH1 0x60 PUSH1 0x7 PUSH0 DUP4 PUSH20 0xFFFFFFFFFFFFFFFFFFFFFFFFFFFFFFFFFFFFFFFF AND PUSH20 0xFFFFFFFFFFFFFFFFFFFFFFFFFFFFFFFFFFFFFFFF AND DUP2 MSTORE PUSH1 0x20 ADD SWAP1 DUP2 MSTORE PUSH1 0x20 ADD PUSH0 KECCAK256 DUP1 SLOAD DUP1 PUSH1 0x20 MUL PUSH1 0x20 ADD PUSH1 0x40 MLOAD SWAP1 DUP2 ADD PUSH1 0x40 MSTORE DUP1 SWAP3 SWAP2 SWAP1 DUP2 DUP2 MSTORE PUSH1 0x20 ADD DUP3 DUP1 SLOAD DUP1 ISZERO PUSH2 0xA2B JUMPI PUSH1 0x20 MUL DUP3 ADD SWAP2 SWAP1 PUSH0 MSTORE PUSH1 0x20 PUSH0 KECCAK256 SWAP1 JUMPDEST DUP2 SLOAD DUP2 MSTORE PUSH1 0x20 ADD SWAP1 PUSH1 0x1 ADD SWAP1 DUP1 DUP4 GT PUSH2 0xA17 JUMPI JUMPDEST POP POP POP POP POP SWAP1 POP SWAP2 SWAP1 POP JUMP JUMPDEST PUSH1 0x60 PUSH1 0xA DUP1 SLOAD DUP1 PUSH1 0x20 MUL PUSH1 0x20 ADD PUSH1 0x40 MLOAD SWAP1 DUP2 ADD PUSH1 0x40 MSTORE DUP1 SWAP3 SWAP2 SWAP1 DUP2 DUP2 MSTORE PUSH1 0x20 ADD DUP3 DUP1 SLOAD DUP1 ISZERO PUSH2 0xA83 JUMPI PUSH1 0x20 MUL DUP3 ADD SWAP2 SWAP1 PUSH0 MSTORE PUSH1 0x20 PUSH0 KECCAK256 SWAP1 JUMPDEST DUP2 SLOAD DUP2 MSTORE PUSH1 0x20 ADD SWAP1 PUSH1 0x1 ADD SWAP1 DUP1 DUP4 GT PUSH2 0xA6F JUMPI JUMPDEST POP POP POP POP POP SWAP1 POP SWAP1 JUMP JUMPDEST PUSH1 0x7 PUSH1 0x20 MSTORE DUP2 PUSH0 MSTORE PUSH1 0x40 PUSH0 KECCAK256 DUP2 DUP2 SLOAD DUP2 LT PUSH2 0xAA6 JUMPI PUSH0 DUP1 REVERT JUMPDEST SWAP1 PUSH0 MSTORE PUSH1 0x20 PUSH0 KECCAK256 ADD PUSH0 SWAP2 POP SWAP2 POP POP SLOAD DUP2 JUMP JUMPDEST PUSH1 0xA DUP2 DUP2 SLOAD DUP2 LT PUSH2 0xAC7 JUMPI PUSH0 DUP1 REVERT JUMPDEST SWAP1 PUSH0 MSTORE PUSH1 0x20 PUSH0 KECCAK256 ADD PUSH0 SWAP2 POP SWAP1 POP SLOAD DUP2 JUMP JUMPDEST PUSH0 PUSH1 0x6 PUSH0 DUP4 DUP2 MSTORE PUSH1 0x20 ADD SWAP1 DUP2 MSTORE PUSH1 0x20 ADD PUSH0 KECCAK256 SWAP1 POP PUSH0 DUP2 PUSH0 ADD SLOAD GT PUSH2 0xB31 JUMPI PUSH1 0x40 MLOAD PUSH32 0x8C379A000000000000000000000000000000000000000000000000000000000 DUP2 MSTORE PUSH1 0x4 ADD PUSH2 0xB28 SWAP1 PUSH2 0x3894 JUMP JUMPDEST PUSH1 0x40 MLOAD DUP1 SWAP2 SUB SWAP1 REVERT JUMPDEST DUP1 PUSH1 0x7 ADD PUSH0 SWAP1 SLOAD SWAP1 PUSH2 0x100 EXP SWAP1 DIV PUSH1 0xFF AND PUSH2 0xB81 JUMPI PUSH1 0x40 MLOAD PUSH32 0x8C379A000000000000000000000000000000000000000000000000000000000 DUP2 MSTORE PUSH1 0x4 ADD PUSH2 0xB78 SWAP1 PUSH2 0x39B9 JUMP JUMPDEST PUSH1 0x40 MLOAD DUP1 SWAP2 SUB SWAP1 REVERT JUMPDEST CALLER PUSH20 0xFFFFFFFFFFFFFFFFFFFFFFFFFFFFFFFFFFFFFFFF AND DUP2 PUSH1 0x1 ADD PUSH0 SWAP1 SLOAD SWAP1 PUSH2 0x100 EXP SWAP1 DIV PUSH20 0xFFFFFFFFFFFFFFFFFFFFFFFFFFFFFFFFFFFFFFFF AND PUSH20 0xFFFFFFFFFFFFFFFFFFFFFFFFFFFFFFFFFFFFFFFF AND EQ PUSH2 0xC12 JUMPI PUSH1 0x40 MLOAD PUSH32 0x8C379A000000000000000000000000000000000000000000000000000000000 DUP2 MSTORE PUSH1 0x4 ADD PUSH2 0xC09 SWAP1 PUSH2 0x3A47 JUMP JUMPDEST PUSH1 0x40 MLOAD DUP1 SWAP2 SUB SWAP1 REVERT JUMPDEST PUSH0 PUSH3 0x15180 DUP3 PUSH1 0x2 ADD SLOAD DUP4 PUSH1 0x3 ADD SLOAD PUSH2 0xC2B SWAP2 SWAP1 PUSH2 0x38DF JUMP JUMPDEST PUSH2 0xC35 SWAP2 SWAP1 PUSH2 0x393F JUMP JUMPDEST SWAP1 POP PUSH2 0x3E8 DUP2 EQ PUSH2 0xC7B JUMPI PUSH1 0x40 MLOAD PUSH32 0x8C379A000000000000000000000000000000000000000000000000000000000 DUP2 MSTORE PUSH1 0x4 ADD PUSH2 0xC72 SWAP1 PUSH2 0x3AD5 JUMP JUMPDEST PUSH1 0x40 MLOAD DUP1 SWAP2 SUB SWAP1 REVERT JUMPDEST PUSH0 PUSH3 0x15180 DUP4 PUSH1 0x8 ADD SLOAD TIMESTAMP PUSH2 0xC90 SWAP2 SWAP1 PUSH2 0x38DF JUMP JUMPDEST PUSH2 0xC9A SWAP2 SWAP1 PUSH2 0x393F JUMP JUMPDEST SWAP1 POP PUSH0 DUP2 GT PUSH2 0xCDE JUMPI PUSH1 0x40 MLOAD PUSH32 0x8C379A000000000000000000000000000000000000000000000000000000000 DUP2 MSTORE PUSH1 0x4 ADD PUSH2 0xCD5 SWAP1 PUSH2 0x3B63 JUMP JUMPDEST PUSH1 0x40 MLOAD DUP1 SWAP2 SUB SWAP1 REVERT JUMPDEST PUSH0 DUP3 PUSH1 0x8 PUSH0 DUP6 DUP2 MSTORE PUSH1 0x20 ADD SWAP1 DUP2 MSTORE PUSH1 0x20 ADD PUSH0 KECCAK256 SLOAD PUSH2 0xCFC SWAP2 SWAP1 PUSH2 0x393F JUMP JUMPDEST SWAP1 POP PUSH0 PUSH2 0x2710 DUP4 DUP7 PUSH1 0x5 ADD SLOAD DUP5 PUSH2 0xD13 SWAP2 SWAP1 PUSH2 0x3B81 JUMP JUMPDEST PUSH2 0xD1D SWAP2 SWAP1 PUSH2 0x3B81 JUMP JUMPDEST PUSH2 0xD27 SWAP2 SWAP1 PUSH2 0x393F JUMP JUMPDEST SWAP1 POP TIMESTAMP DUP6 PUSH1 0x8 ADD DUP2 SWAP1 SSTORE POP PUSH1 0x1 PUSH0 SWAP1 SLOAD SWAP1 PUSH2 0x100 EXP SWAP1 DIV PUSH20 0xFFFFFFFFFFFFFFFFFFFFFFFFFFFFFFFFFFFFFFFF AND PUSH20 0xFFFFFFFFFFFFFFFFFFFFFFFFFFFFFFFFFFFFFFFF AND PUSH4 0xA9059CBB CALLER DUP4 PUSH1 0x40 MLOAD DUP4 PUSH4 0xFFFFFFFF AND PUSH1 0xE0 SHL DUP2 MSTORE PUSH1 0x4 ADD PUSH2 0xD8E SWAP3 SWAP2 SWAP1 PUSH2 0x3BC2 JUMP JUMPDEST PUSH1 0x20 PUSH1 0x40 MLOAD DUP1 DUP4 SUB DUP2 PUSH0 DUP8 GAS CALL ISZERO DUP1 ISZERO PUSH2 0xDAA JUMPI RETURNDATASIZE PUSH0 DUP1 RETURNDATACOPY RETURNDATASIZE PUSH0 REVERT JUMPDEST POP POP POP POP PUSH1 0x40 MLOAD RETURNDATASIZE PUSH1 0x1F NOT PUSH1 0x1F DUP3 ADD AND DUP3 ADD DUP1 PUSH1 0x40 MSTORE POP DUP2 ADD SWAP1 PUSH2 0xDCE SWAP2 SWAP1 PUSH2 0x3C13 JUMP JUMPDEST PUSH2 0xE0D JUMPI PUSH1 0x40 MLOAD PUSH32 0x8C379A000000000000000000000000000000000000000000000000000000000 DUP2 MSTORE PUSH1 0x4 ADD PUSH2 0xE04 SWAP1 PUSH2 0x3C88 JUMP JUMPDEST PUSH1 0x40 MLOAD DUP1 SWAP2 SUB SWAP1 REVERT JUMPDEST POP POP POP POP POP POP JUMP JUMPDEST PUSH0 PUSH1 0xC PUSH0 CALLER PUSH20 0xFFFFFFFFFFFFFFFFFFFFFFFFFFFFFFFFFFFFFFFF AND PUSH20 0xFFFFFFFFFFFFFFFFFFFFFFFFFFFFFFFFFFFFFFFF AND DUP2 MSTORE PUSH1 0x20 ADD SWAP1 DUP2 MSTORE PUSH1 0x20 ADD PUSH0 KECCAK256 SLOAD SWAP1 POP PUSH0 DUP2 GT PUSH2 0xE98 JUMPI PUSH1 0x40 MLOAD PUSH32 0x8C379A000000000000000000000000000000000000000000000000000000000 DUP2 MSTORE PUSH1 0x4 ADD PUSH2 0xE8F SWAP1 PUSH2 0x3D16 JUMP JUMPDEST PUSH1 0x40 MLOAD DUP1 SWAP2 SUB SWAP1 REVERT JUMPDEST PUSH0 PUSH1 0xC PUSH0 CALLER PUSH20 0xFFFFFFFFFFFFFFFFFFFFFFFFFFFFFFFFFFFFFFFF AND PUSH20 0xFFFFFFFFFFFFFFFFFFFFFFFFFFFFFFFFFFFFFFFF AND DUP2 MSTORE PUSH1 0x20 ADD SWAP1 DUP2 MSTORE PUSH1 0x20 ADD PUSH0 KECCAK256 DUP2 SWAP1 SSTORE POP PUSH1 0x1 PUSH0 SWAP1 SLOAD SWAP1 PUSH2 0x100 EXP SWAP1 DIV PUSH20 0xFFFFFFFFFFFFFFFFFFFFFFFFFFFFFFFFFFFFFFFF AND PUSH20 0xFFFFFFFFFFFFFFFFFFFFFFFFFFFFFFFFFFFFFFFF AND PUSH4 0xA9059CBB CALLER DUP4 PUSH1 0x40 MLOAD DUP4 PUSH4 0xFFFFFFFF AND PUSH1 0xE0 SHL DUP2 MSTORE PUSH1 0x4 ADD PUSH2 0xF36 SWAP3 SWAP2 SWAP1 PUSH2 0x3BC2 JUMP JUMPDEST PUSH1 0x20 PUSH1 0x40 MLOAD DUP1 DUP4 SUB DUP2 PUSH0 DUP8 GAS CALL ISZERO DUP1 ISZERO PUSH2 0xF52 JUMPI RETURNDATASIZE PUSH0 DUP1 RETURNDATACOPY RETURNDATASIZE PUSH0 REVERT JUMPDEST POP POP POP POP PUSH1 0x40 MLOAD RETURNDATASIZE PUSH1 0x1F NOT PUSH1 0x1F DUP3 ADD AND DUP3 ADD DUP1 PUSH1 0x40 MSTORE POP DUP2 ADD SWAP1 PUSH2 0xF76 SWAP2 SWAP1 PUSH2 0x3C13 JUMP JUMPDEST PUSH2 0xFB5 JUMPI PUSH1 0x40 MLOAD PUSH32 0x8C379A000000000000000000000000000000000000000000000000000000000 DUP2 MSTORE PUSH1 0x4 ADD PUSH2 0xFAC SWAP1 PUSH2 0x3DA4 JUMP JUMPDEST PUSH1 0x40 MLOAD DUP1 SWAP2 SUB SWAP1 REVERT JUMPDEST POP JUMP JUMPDEST PUSH0 DUP1 SLOAD SWAP1 PUSH2 0x100 EXP SWAP1 DIV PUSH20 0xFFFFFFFFFFFFFFFFFFFFFFFFFFFFFFFFFFFFFFFF AND PUSH20 0xFFFFFFFFFFFFFFFFFFFFFFFFFFFFFFFFFFFFFFFF AND CALLER PUSH20 0xFFFFFFFFFFFFFFFFFFFFFFFFFFFFFFFFFFFFFFFF AND EQ PUSH2 0x1045 JUMPI PUSH1 0x40 MLOAD PUSH32 0x8C379A000000000000000000000000000000000000000000000000000000000 DUP2 MSTORE PUSH1 0x4 ADD PUSH2 0x103C SWAP1 PUSH2 0x3E32 JUMP JUMPDEST PUSH1 0x40 MLOAD DUP1 SWAP2 SUB SWAP1 REVERT JUMPDEST PUSH0 PUSH1 0x1 PUSH0 SWAP1 SLOAD SWAP1 PUSH2 0x100 EXP SWAP1 DIV PUSH20 0xFFFFFFFFFFFFFFFFFFFFFFFFFFFFFFFFFFFFFFFF AND PUSH20 0xFFFFFFFFFFFFFFFFFFFFFFFFFFFFFFFFFFFFFFFF AND PUSH4 0x70A08231 ADDRESS PUSH1 0x40 MLOAD DUP3 PUSH4 0xFFFFFFFF AND PUSH1 0xE0 SHL DUP2 MSTORE PUSH1 0x4 ADD PUSH2 0x10A0 SWAP2 SWAP1 PUSH2 0x344C JUMP JUMPDEST PUSH1 0x20 PUSH1 0x40 MLOAD DUP1 DUP4 SUB DUP2 DUP7 GAS STATICCALL ISZERO DUP1 ISZERO PUSH2 0x10BB JUMPI RETURNDATASIZE PUSH0 DUP1 RETURNDATACOPY RETURNDATASIZE PUSH0 REVERT JUMPDEST POP POP POP POP PUSH1 0x40 MLOAD RETURNDATASIZE PUSH1 0x1F NOT PUSH1 0x1F DUP3 ADD AND DUP3 ADD DUP1 PUSH1 0x40 MSTORE POP DUP2 ADD SWAP1 PUSH2 0x10DF SWAP2 SWAP1 PUSH2 0x3E64 JUMP JUMPDEST SWAP1 POP PUSH0 DUP2 GT PUSH2 0x1123 JUMPI PUSH1 0x40 MLOAD PUSH32 0x8C379A000000000000000000000000000000000000000000000000000000000 DUP2 MSTORE PUSH1 0x4 ADD PUSH2 0x111A SWAP1 PUSH2 0x3ED9 JUMP JUMPDEST PUSH1 0x40 MLOAD DUP1 SWAP2 SUB SWAP1 REVERT JUMPDEST PUSH1 0x1 PUSH0 SWAP1 SLOAD SWAP1 PUSH2 0x100 EXP SWAP1 DIV PUSH20 0xFFFFFFFFFFFFFFFFFFFFFFFFFFFFFFFFFFFFFFFF AND PUSH20 0xFFFFFFFFFFFFFFFFFFFFFFFFFFFFFFFFFFFFFFFF AND PUSH4 0xA9059CBB PUSH0 DUP1 SLOAD SWAP1 PUSH2 0x100 EXP SWAP1 DIV PUSH20 0xFFFFFFFFFFFFFFFFFFFFFFFFFFFFFFFFFFFFFFFF AND DUP4 PUSH1 0x40 MLOAD DUP4 PUSH4 0xFFFFFFFF AND PUSH1 0xE0 SHL DUP2 MSTORE PUSH1 0x4 ADD PUSH2 0x119E SWAP3 SWAP2 SWAP1 PUSH2 0x3BC2 JUMP JUMPDEST PUSH1 0x20 PUSH1 0x40 MLOAD DUP1 DUP4 SUB DUP2 PUSH0 DUP8 GAS CALL ISZERO DUP1 ISZERO PUSH2 0x11BA JUMPI RETURNDATASIZE PUSH0 DUP1 RETURNDATACOPY RETURNDATASIZE PUSH0 REVERT JUMPDEST POP POP POP POP PUSH1 0x40 MLOAD RETURNDATASIZE PUSH1 0x1F NOT PUSH1 0x1F DUP3 ADD AND DUP3 ADD DUP1 PUSH1 0x40 MSTORE POP DUP2 ADD SWAP1 PUSH2 0x11DE SWAP2 SWAP1 PUSH2 0x3C13 JUMP JUMPDEST PUSH2 0x121D JUMPI PUSH1 0x40 MLOAD PUSH32 0x8C379A000000000000000000000000000000000000000000000000000000000 DUP2 MSTORE PUSH1 0x4 ADD PUSH2 0x1214 SWAP1 PUSH2 0x3F41 JUMP JUMPDEST PUSH1 0x40 MLOAD DUP1 SWAP2 SUB SWAP1 REVERT JUMPDEST POP JUMP JUMPDEST PUSH0 PUSH1 0x1 PUSH0 SWAP1 SLOAD SWAP1 PUSH2 0x100 EXP SWAP1 DIV PUSH20 0xFFFFFFFFFFFFFFFFFFFFFFFFFFFFFFFFFFFFFFFF AND PUSH20 0xFFFFFFFFFFFFFFFFFFFFFFFFFFFFFFFFFFFFFFFF AND PUSH4 0x70A08231 ADDRESS PUSH1 0x40 MLOAD DUP3 PUSH4 0xFFFFFFFF AND PUSH1 0xE0 SHL DUP2 MSTORE PUSH1 0x4 ADD PUSH2 0x127B SWAP2 SWAP1 PUSH2 0x344C JUMP JUMPDEST PUSH1 0x20 PUSH1 0x40 MLOAD DUP1 DUP4 SUB DUP2 DUP7 GAS STATICCALL ISZERO DUP1 ISZERO PUSH2 0x1296 JUMPI RETURNDATASIZE PUSH0 DUP1 RETURNDATACOPY RETURNDATASIZE PUSH0 REVERT JUMPDEST POP POP POP POP PUSH1 0x40 MLOAD RETURNDATASIZE PUSH1 0x1F NOT PUSH1 0x1F DUP3 ADD AND DUP3 ADD DUP1 PUSH1 0x40 MSTORE POP DUP2 ADD SWAP1 PUSH2 0x12BA SWAP2 SWAP1 PUSH2 0x3E64 JUMP JUMPDEST SWAP1 POP SWAP1 JUMP JUMPDEST PUSH0 DUP1 SLOAD SWAP1 PUSH2 0x100 EXP SWAP1 DIV PUSH20 0xFFFFFFFFFFFFFFFFFFFFFFFFFFFFFFFFFFFFFFFF AND DUP2 JUMP JUMPDEST PUSH1 0x6 PUSH1 0x20 MSTORE DUP1 PUSH0 MSTORE PUSH1 0x40 PUSH0 KECCAK256 PUSH0 SWAP2 POP SWAP1 POP DUP1 PUSH0 ADD SLOAD SWAP1 DUP1 PUSH1 0x1 ADD PUSH0 SWAP1 SLOAD SWAP1 PUSH2 0x100 EXP SWAP1 DIV PUSH20 0xFFFFFFFFFFFFFFFFFFFFFFFFFFFFFFFFFFFFFFFF AND SWAP1 DUP1 PUSH1 0x2 ADD SLOAD SWAP1 DUP1 PUSH1 0x3 ADD SLOAD SWAP1 DUP1 PUSH1 0x4 ADD SLOAD SWAP1 DUP1 PUSH1 0x5 ADD SLOAD SWAP1 DUP1 PUSH1 0x6 ADD SLOAD SWAP1 DUP1 PUSH1 0x7 ADD PUSH0 SWAP1 SLOAD SWAP1 PUSH2 0x100 EXP SWAP1 DIV PUSH1 0xFF AND SWAP1 DUP1 PUSH1 0x8 ADD SLOAD SWAP1 POP DUP10 JUMP JUMPDEST PUSH1 0x4 SLOAD DUP2 JUMP JUMPDEST PUSH0 PUSH1 0x6 PUSH0 DUP4 DUP2 MSTORE PUSH1 0x20 ADD SWAP1 DUP2 MSTORE PUSH1 0x20 ADD PUSH0 KECCAK256 SWAP1 POP DUP1 PUSH1 0x7 ADD PUSH0 SWAP1 SLOAD SWAP1 PUSH2 0x100 EXP SWAP1 DIV PUSH1 0xFF AND PUSH2 0x13C1 JUMPI PUSH1 0x40 MLOAD PUSH32 0x8C379A000000000000000000000000000000000000000000000000000000000 DUP2 MSTORE PUSH1 0x4 ADD PUSH2 0x13B8 SWAP1 PUSH2 0x3FA9 JUMP JUMPDEST PUSH1 0x40 MLOAD DUP1 SWAP2 SUB SWAP1 REVERT JUMPDEST PUSH0 DUP1 SLOAD SWAP1 PUSH2 0x100 EXP SWAP1 DIV PUSH20 0xFFFFFFFFFFFFFFFFFFFFFFFFFFFFFFFFFFFFFFFF AND PUSH20 0xFFFFFFFFFFFFFFFFFFFFFFFFFFFFFFFFFFFFFFFF AND CALLER PUSH20 0xFFFFFFFFFFFFFFFFFFFFFFFFFFFFFFFFFFFFFFFF AND EQ DUP1 PUSH2 0x1468 JUMPI POP DUP1 PUSH1 0x1 ADD PUSH0 SWAP1 SLOAD SWAP1 PUSH2 0x100 EXP SWAP1 DIV PUSH20 0xFFFFFFFFFFFFFFFFFFFFFFFFFFFFFFFFFFFFFFFF AND PUSH20 0xFFFFFFFFFFFFFFFFFFFFFFFFFFFFFFFFFFFFFFFF AND CALLER PUSH20 0xFFFFFFFFFFFFFFFFFFFFFFFFFFFFFFFFFFFFFFFF AND EQ JUMPDEST PUSH2 0x14A7 JUMPI PUSH1 0x40 MLOAD PUSH32 0x8C379A000000000000000000000000000000000000000000000000000000000 DUP2 MSTORE PUSH1 0x4 ADD PUSH2 0x149E SWAP1 PUSH2 0x4011 JUMP JUMPDEST PUSH1 0x40 MLOAD DUP1 SWAP2 SUB SWAP1 REVERT JUMPDEST DUP1 PUSH1 0x3 ADD SLOAD TIMESTAMP LT ISZERO PUSH2 0x14EE JUMPI PUSH1 0x40 MLOAD PUSH32 0x8C379A000000000000000000000000000000000000000000000000000000000 DUP2 MSTORE PUSH1 0x4 ADD PUSH2 0x14E5 SWAP1 PUSH2 0x4079 JUMP JUMPDEST PUSH1 0x40 MLOAD DUP1 SWAP2 SUB SWAP1 REVERT JUMPDEST PUSH1 0x1 PUSH0 SWAP1 SLOAD SWAP1 PUSH2 0x100 EXP SWAP1 DIV PUSH20 0xFFFFFFFFFFFFFFFFFFFFFFFFFFFFFFFFFFFFFFFF AND PUSH20 0xFFFFFFFFFFFFFFFFFFFFFFFFFFFFFFFFFFFFFFFF AND PUSH4 0xA9059CBB DUP3 PUSH1 0x1 ADD PUSH0 SWAP1 SLOAD SWAP1 PUSH2 0x100 EXP SWAP1 DIV PUSH20 0xFFFFFFFFFFFFFFFFFFFFFFFFFFFFFFFFFFFFFFFF AND DUP4 PUSH1 0x5 ADD SLOAD PUSH1 0x40 MLOAD DUP4 PUSH4 0xFFFFFFFF AND PUSH1 0xE0 SHL DUP2 MSTORE PUSH1 0x4 ADD PUSH2 0x1571 SWAP3 SWAP2 SWAP1 PUSH2 0x3BC2 JUMP JUMPDEST PUSH1 0x20 PUSH1 0x40 MLOAD DUP1 DUP4 SUB DUP2 PUSH0 DUP8 GAS CALL ISZERO DUP1 ISZERO PUSH2 0x158D JUMPI RETURNDATASIZE PUSH0 DUP1 RETURNDATACOPY RETURNDATASIZE PUSH0 REVERT JUMPDEST POP POP POP POP PUSH1 0x40 MLOAD RETURNDATASIZE PUSH1 0x1F NOT PUSH1 0x1F DUP3 ADD AND DUP3 ADD DUP1 PUSH1 0x40 MSTORE POP DUP2 ADD SWAP1 PUSH2 0x15B1 SWAP2 SWAP1 PUSH2 0x3C13 JUMP JUMPDEST PUSH2 0x15F0 JUMPI PUSH1 0x40 MLOAD PUSH32 0x8C379A000000000000000000000000000000000000000000000000000000000 DUP2 MSTORE PUSH1 0x4 ADD PUSH2 0x15E7 SWAP1 PUSH2 0x3F41 JUMP JUMPDEST PUSH1 0x40 MLOAD DUP1 SWAP2 SUB SWAP1 REVERT JUMPDEST PUSH0 DUP2 PUSH1 0x6 ADD SLOAD GT ISZERO PUSH2 0x16FF JUMPI PUSH1 0x1 PUSH0 SWAP1 SLOAD SWAP1 PUSH2 0x100 EXP SWAP1 DIV PUSH20 0xFFFFFFFFFFFFFFFFFFFFFFFFFFFFFFFFFFFFFFFF AND PUSH20 0xFFFFFFFFFFFFFFFFFFFFFFFFFFFFFFFFFFFFFFFF AND PUSH4 0xA9059CBB DUP3 PUSH1 0x1 ADD PUSH0 SWAP1 SLOAD SWAP1 PUSH2 0x100 EXP SWAP1 DIV PUSH20 0xFFFFFFFFFFFFFFFFFFFFFFFFFFFFFFFFFFFFFFFF AND DUP4 PUSH1 0x6 ADD SLOAD PUSH1 0x40 MLOAD DUP4 PUSH4 0xFFFFFFFF AND PUSH1 0xE0 SHL DUP2 MSTORE PUSH1 0x4 ADD PUSH2 0x167F SWAP3 SWAP2 SWAP1 PUSH2 0x3BC2 JUMP JUMPDEST PUSH1 0x20 PUSH1 0x40 MLOAD DUP1 DUP4 SUB DUP2 PUSH0 DUP8 GAS CALL ISZERO DUP1 ISZERO PUSH2 0x169B JUMPI RETURNDATASIZE PUSH0 DUP1 RETURNDATACOPY RETURNDATASIZE PUSH0 REVERT JUMPDEST POP POP POP POP PUSH1 0x40 MLOAD RETURNDATASIZE PUSH1 0x1F NOT PUSH1 0x1F DUP3 ADD AND DUP3 ADD DUP1 PUSH1 0x40 MSTORE POP DUP2 ADD SWAP1 PUSH2 0x16BF SWAP2 SWAP1 PUSH2 0x3C13 JUMP JUMPDEST PUSH2 0x16FE JUMPI PUSH1 0x40 MLOAD PUSH32 0x8C379A000000000000000000000000000000000000000000000000000000000 DUP2 MSTORE PUSH1 0x4 ADD PUSH2 0x16F5 SWAP1 PUSH2 0x3C88 JUMP JUMPDEST PUSH1 0x40 MLOAD DUP1 SWAP2 SUB SWAP1 REVERT JUMPDEST JUMPDEST PUSH0 DUP2 PUSH1 0x7 ADD PUSH0 PUSH2 0x100 EXP DUP2 SLOAD DUP2 PUSH1 0xFF MUL NOT AND SWAP1 DUP4 ISZERO ISZERO MUL OR SWAP1 SSTORE POP DUP2 PUSH32 0xBF542298705ED6FD22DDF94EE2DB731CED9191396E6E7F7B6862803555F9FF21 PUSH1 0x40 MLOAD PUSH1 0x40 MLOAD DUP1 SWAP2 SUB SWAP1 LOG2 PUSH1 0x5 PUSH0 CALLER PUSH20 0xFFFFFFFFFFFFFFFFFFFFFFFFFFFFFFFFFFFFFFFF AND PUSH20 0xFFFFFFFFFFFFFFFFFFFFFFFFFFFFFFFFFFFFFFFF AND DUP2 MSTORE PUSH1 0x20 ADD SWAP1 DUP2 MSTORE PUSH1 0x20 ADD PUSH0 KECCAK256 PUSH1 0x6 PUSH0 DUP5 DUP2 MSTORE PUSH1 0x20 ADD SWAP1 DUP2 MSTORE PUSH1 0x20 ADD PUSH0 KECCAK256 SWAP1 DUP1 PUSH1 0x1 DUP2 SLOAD ADD DUP1 DUP3 SSTORE DUP1 SWAP2 POP POP PUSH1 0x1 SWAP1 SUB SWAP1 PUSH0 MSTORE PUSH1 0x20 PUSH0 KECCAK256 SWAP1 PUSH1 0x9 MUL ADD PUSH0 SWAP1 SWAP2 SWAP1 SWAP2 SWAP1 SWAP2 POP PUSH0 DUP3 ADD SLOAD DUP2 PUSH0 ADD SSTORE PUSH1 0x1 DUP3 ADD PUSH0 SWAP1 SLOAD SWAP1 PUSH2 0x100 EXP SWAP1 DIV PUSH20 0xFFFFFFFFFFFFFFFFFFFFFFFFFFFFFFFFFFFFFFFF AND DUP2 PUSH1 0x1 ADD PUSH0 PUSH2 0x100 EXP DUP2 SLOAD DUP2 PUSH20 0xFFFFFFFFFFFFFFFFFFFFFFFFFFFFFFFFFFFFFFFF MUL NOT AND SWAP1 DUP4 PUSH20 0xFFFFFFFFFFFFFFFFFFFFFFFFFFFFFFFFFFFFFFFF AND MUL OR SWAP1 SSTORE POP PUSH1 0x2 DUP3 ADD SLOAD DUP2 PUSH1 0x2 ADD SSTORE PUSH1 0x3 DUP3 ADD SLOAD DUP2 PUSH1 0x3 ADD SSTORE PUSH1 0x4 DUP3 ADD SLOAD DUP2 PUSH1 0x4 ADD SSTORE PUSH1 0x5 DUP3 ADD SLOAD DUP2 PUSH1 0x5 ADD SSTORE PUSH1 0x6 DUP3 ADD SLOAD DUP2 PUSH1 0x6 ADD SSTORE PUSH1 0x7 DUP3 ADD PUSH0 SWAP1 SLOAD SWAP1 PUSH2 0x100 EXP SWAP1 DIV PUSH1 0xFF AND DUP2 PUSH1 0x7 ADD PUSH0 PUSH2 0x100 EXP DUP2 SLOAD DUP2 PUSH1 0xFF MUL NOT AND SWAP1 DUP4 ISZERO ISZERO MUL OR SWAP1 SSTORE POP PUSH1 0x8 DUP3 ADD SLOAD DUP2 PUSH1 0x8 ADD SSTORE POP POP POP POP JUMP JUMPDEST PUSH1 0x9 SLOAD DUP2 JUMP JUMPDEST PUSH1 0x5 PUSH1 0x20 MSTORE DUP2 PUSH0 MSTORE PUSH1 0x40 PUSH0 KECCAK256 DUP2 DUP2 SLOAD DUP2 LT PUSH2 0x18B4 JUMPI PUSH0 DUP1 REVERT JUMPDEST SWAP1 PUSH0 MSTORE PUSH1 0x20 PUSH0 KECCAK256 SWAP1 PUSH1 0x9 MUL ADD PUSH0 SWAP2 POP SWAP2 POP POP DUP1 PUSH0 ADD SLOAD SWAP1 DUP1 PUSH1 0x1 ADD PUSH0 SWAP1 SLOAD SWAP1 PUSH2 0x100 EXP SWAP1 DIV PUSH20 0xFFFFFFFFFFFFFFFFFFFFFFFFFFFFFFFFFFFFFFFF AND SWAP1 DUP1 PUSH1 0x2 ADD SLOAD SWAP1 DUP1 PUSH1 0x3 ADD SLOAD SWAP1 DUP1 PUSH1 0x4 ADD SLOAD SWAP1 DUP1 PUSH1 0x5 ADD SLOAD SWAP1 DUP1 PUSH1 0x6 ADD SLOAD SWAP1 DUP1 PUSH1 0x7 ADD PUSH0 SWAP1 SLOAD SWAP1 PUSH2 0x100 EXP SWAP1 DIV PUSH1 0xFF AND SWAP1 DUP1 PUSH1 0x8 ADD SLOAD SWAP1 POP DUP10 JUMP JUMPDEST PUSH1 0x60 PUSH0 PUSH1 0x7 PUSH0 DUP5 PUSH20 0xFFFFFFFFFFFFFFFFFFFFFFFFFFFFFFFFFFFFFFFF AND PUSH20 0xFFFFFFFFFFFFFFFFFFFFFFFFFFFFFFFFFFFFFFFF AND DUP2 MSTORE PUSH1 0x20 ADD SWAP1 DUP2 MSTORE PUSH1 0x20 ADD PUSH0 KECCAK256 DUP1 SLOAD DUP1 PUSH1 0x20 MUL PUSH1 0x20 ADD PUSH1 0x40 MLOAD SWAP1 DUP2 ADD PUSH1 0x40 MSTORE DUP1 SWAP3 SWAP2 SWAP1 DUP2 DUP2 MSTORE PUSH1 0x20 ADD DUP3 DUP1 SLOAD DUP1 ISZERO PUSH2 0x19B2 JUMPI PUSH1 0x20 MUL DUP3 ADD SWAP2 SWAP1 PUSH0 MSTORE PUSH1 0x20 PUSH0 KECCAK256 SWAP1 JUMPDEST DUP2 SLOAD DUP2 MSTORE PUSH1 0x20 ADD SWAP1 PUSH1 0x1 ADD SWAP1 DUP1 DUP4 GT PUSH2 0x199E JUMPI JUMPDEST POP POP POP POP POP SWAP1 POP PUSH0 DUP2 MLOAD SWAP1 POP PUSH0 DUP2 PUSH8 0xFFFFFFFFFFFFFFFF DUP2 GT ISZERO PUSH2 0x19D9 JUMPI PUSH2 0x19D8 PUSH2 0x4097 JUMP JUMPDEST JUMPDEST PUSH1 0x40 MLOAD SWAP1 DUP1 DUP3 MSTORE DUP1 PUSH1 0x20 MUL PUSH1 0x20 ADD DUP3 ADD PUSH1 0x40 MSTORE DUP1 ISZERO PUSH2 0x1A12 JUMPI DUP2 PUSH1 0x20 ADD JUMPDEST PUSH2 0x19FF PUSH2 0x3130 JUMP JUMPDEST DUP2 MSTORE PUSH1 0x20 ADD SWAP1 PUSH1 0x1 SWAP1 SUB SWAP1 DUP2 PUSH2 0x19F7 JUMPI SWAP1 POP JUMPDEST POP SWAP1 POP PUSH0 JUMPDEST DUP3 DUP2 LT ISZERO PUSH2 0x1B3A JUMPI PUSH0 DUP5 DUP3 DUP2 MLOAD DUP2 LT PUSH2 0x1A33 JUMPI PUSH2 0x1A32 PUSH2 0x40C4 JUMP JUMPDEST JUMPDEST PUSH1 0x20 MUL PUSH1 0x20 ADD ADD MLOAD SWAP1 POP PUSH1 0x6 PUSH0 DUP3 DUP2 MSTORE PUSH1 0x20 ADD SWAP1 DUP2 MSTORE PUSH1 0x20 ADD PUSH0 KECCAK256 PUSH1 0x40 MLOAD DUP1 PUSH2 0x120 ADD PUSH1 0x40 MSTORE SWAP1 DUP2 PUSH0 DUP3 ADD SLOAD DUP2 MSTORE PUSH1 0x20 ADD PUSH1 0x1 DUP3 ADD PUSH0 SWAP1 SLOAD SWAP1 PUSH2 0x100 EXP SWAP1 DIV PUSH20 0xFFFFFFFFFFFFFFFFFFFFFFFFFFFFFFFFFFFFFFFF AND PUSH20 0xFFFFFFFFFFFFFFFFFFFFFFFFFFFFFFFFFFFFFFFF AND PUSH20 0xFFFFFFFFFFFFFFFFFFFFFFFFFFFFFFFFFFFFFFFF AND DUP2 MSTORE PUSH1 0x20 ADD PUSH1 0x2 DUP3 ADD SLOAD DUP2 MSTORE PUSH1 0x20 ADD PUSH1 0x3 DUP3 ADD SLOAD DUP2 MSTORE PUSH1 0x20 ADD PUSH1 0x4 DUP3 ADD SLOAD DUP2 MSTORE PUSH1 0x20 ADD PUSH1 0x5 DUP3 ADD SLOAD DUP2 MSTORE PUSH1 0x20 ADD PUSH1 0x6 DUP3 ADD SLOAD DUP2 MSTORE PUSH1 0x20 ADD PUSH1 0x7 DUP3 ADD PUSH0 SWAP1 SLOAD SWAP1 PUSH2 0x100 EXP SWAP1 DIV PUSH1 0xFF AND ISZERO ISZERO ISZERO ISZERO DUP2 MSTORE PUSH1 0x20 ADD PUSH1 0x8 DUP3 ADD SLOAD DUP2 MSTORE POP POP DUP4 DUP4 DUP2 MLOAD DUP2 LT PUSH2 0x1B21 JUMPI PUSH2 0x1B20 PUSH2 0x40C4 JUMP JUMPDEST JUMPDEST PUSH1 0x20 MUL PUSH1 0x20 ADD ADD DUP2 SWAP1 MSTORE POP POP DUP1 DUP1 PUSH1 0x1 ADD SWAP2 POP POP PUSH2 0x1A17 JUMP JUMPDEST POP DUP1 SWAP4 POP POP POP POP SWAP2 SWAP1 POP JUMP JUMPDEST PUSH1 0x2 PUSH1 0x20 MSTORE DUP1 PUSH0 MSTORE PUSH1 0x40 PUSH0 KECCAK256 PUSH0 SWAP2 POP SWAP1 POP DUP1 PUSH0 ADD PUSH0 SWAP1 SLOAD SWAP1 PUSH2 0x100 EXP SWAP1 DIV PUSH20 0xFFFFFFFFFFFFFFFFFFFFFFFFFFFFFFFFFFFFFFFF AND SWAP1 DUP1 PUSH1 0x1 ADD SLOAD SWAP1 DUP1 PUSH1 0x2 ADD SLOAD SWAP1 DUP1 PUSH1 0x3 ADD SLOAD SWAP1 DUP1 PUSH1 0x4 ADD SLOAD SWAP1 POP DUP6 JUMP JUMPDEST PUSH0 PUSH1 0x2 PUSH0 DUP4 PUSH20 0xFFFFFFFFFFFFFFFFFFFFFFFFFFFFFFFFFFFFFFFF AND PUSH20 0xFFFFFFFFFFFFFFFFFFFFFFFFFFFFFFFFFFFFFFFF AND DUP2 MSTORE PUSH1 0x20 ADD SWAP1 DUP2 MSTORE PUSH1 0x20 ADD PUSH0 KECCAK256 PUSH1 0x1 ADD SLOAD SWAP1 POP SWAP2 SWAP1 POP JUMP JUMPDEST CALLER PUSH20 0xFFFFFFFFFFFFFFFFFFFFFFFFFFFFFFFFFFFFFFFF AND PUSH0 DUP1 SLOAD SWAP1 PUSH2 0x100 EXP SWAP1 DIV PUSH20 0xFFFFFFFFFFFFFFFFFFFFFFFFFFFFFFFFFFFFFFFF AND PUSH20 0xFFFFFFFFFFFFFFFFFFFFFFFFFFFFFFFFFFFFFFFF AND EQ PUSH2 0x1C6D JUMPI PUSH1 0x40 MLOAD PUSH32 0x8C379A000000000000000000000000000000000000000000000000000000000 DUP2 MSTORE PUSH1 0x4 ADD PUSH2 0x1C64 SWAP1 PUSH2 0x4161 JUMP JUMPDEST PUSH1 0x40 MLOAD DUP1 SWAP2 SUB SWAP1 REVERT JUMPDEST DUP1 PUSH1 0x8 PUSH0 DUP5 DUP2 MSTORE PUSH1 0x20 ADD SWAP1 DUP2 MSTORE PUSH1 0x20 ADD PUSH0 KECCAK256 DUP2 SWAP1 SSTORE POP PUSH1 0xA DUP3 SWAP1 DUP1 PUSH1 0x1 DUP2 SLOAD ADD DUP1 DUP3 SSTORE DUP1 SWAP2 POP POP PUSH1 0x1 SWAP1 SUB SWAP1 PUSH0 MSTORE PUSH1 0x20 PUSH0 KECCAK256 ADD PUSH0 SWAP1 SWAP2 SWAP1 SWAP2 SWAP1 SWAP2 POP SSTORE POP POP JUMP JUMPDEST PUSH1 0xB PUSH1 0x20 MSTORE DUP1 PUSH0 MSTORE PUSH1 0x40 PUSH0 KECCAK256 PUSH0 SWAP2 POP SWAP1 POP SLOAD DUP2 JUMP JUMPDEST PUSH2 0x1CCA PUSH2 0x3130 JUMP JUMPDEST PUSH1 0x6 PUSH0 DUP4 DUP2 MSTORE PUSH1 0x20 ADD SWAP1 DUP2 MSTORE PUSH1 0x20 ADD PUSH0 KECCAK256 PUSH1 0x40 MLOAD DUP1 PUSH2 0x120 ADD PUSH1 0x40 MSTORE SWAP1 DUP2 PUSH0 DUP3 ADD SLOAD DUP2 MSTORE PUSH1 0x20 ADD PUSH1 0x1 DUP3 ADD PUSH0 SWAP1 SLOAD SWAP1 PUSH2 0x100 EXP SWAP1 DIV PUSH20 0xFFFFFFFFFFFFFFFFFFFFFFFFFFFFFFFFFFFFFFFF AND PUSH20 0xFFFFFFFFFFFFFFFFFFFFFFFFFFFFFFFFFFFFFFFF AND PUSH20 0xFFFFFFFFFFFFFFFFFFFFFFFFFFFFFFFFFFFFFFFF AND DUP2 MSTORE PUSH1 0x20 ADD PUSH1 0x2 DUP3 ADD SLOAD DUP2 MSTORE PUSH1 0x20 ADD PUSH1 0x3 DUP3 ADD SLOAD DUP2 MSTORE PUSH1 0x20 ADD PUSH1 0x4 DUP3 ADD SLOAD DUP2 MSTORE PUSH1 0x20 ADD PUSH1 0x5 DUP3 ADD SLOAD DUP2 MSTORE PUSH1 0x20 ADD PUSH1 0x6 DUP3 ADD SLOAD DUP2 MSTORE PUSH1 0x20 ADD PUSH1 0x7 DUP3 ADD PUSH0 SWAP1 SLOAD SWAP1 PUSH2 0x100 EXP SWAP1 DIV PUSH1 0xFF AND ISZERO ISZERO ISZERO ISZERO DUP2 MSTORE PUSH1 0x20 ADD PUSH1 0x8 DUP3 ADD SLOAD DUP2 MSTORE POP POP SWAP1 POP SWAP2 SWAP1 POP JUMP JUMPDEST PUSH0 DUP1 PUSH1 0x6 PUSH0 DUP5 DUP2 MSTORE PUSH1 0x20 ADD SWAP1 DUP2 MSTORE PUSH1 0x20 ADD PUSH0 KECCAK256 PUSH1 0x40 MLOAD DUP1 PUSH2 0x120 ADD PUSH1 0x40 MSTORE SWAP1 DUP2 PUSH0 DUP3 ADD SLOAD DUP2 MSTORE PUSH1 0x20 ADD PUSH1 0x1 DUP3 ADD PUSH0 SWAP1 SLOAD SWAP1 PUSH2 0x100 EXP SWAP1 DIV PUSH20 0xFFFFFFFFFFFFFFFFFFFFFFFFFFFFFFFFFFFFFFFF AND PUSH20 0xFFFFFFFFFFFFFFFFFFFFFFFFFFFFFFFFFFFFFFFF AND PUSH20 0xFFFFFFFFFFFFFFFFFFFFFFFFFFFFFFFFFFFFFFFF AND DUP2 MSTORE PUSH1 0x20 ADD PUSH1 0x2 DUP3 ADD SLOAD DUP2 MSTORE PUSH1 0x20 ADD PUSH1 0x3 DUP3 ADD SLOAD DUP2 MSTORE PUSH1 0x20 ADD PUSH1 0x4 DUP3 ADD SLOAD DUP2 MSTORE PUSH1 0x20 ADD PUSH1 0x5 DUP3 ADD SLOAD DUP2 MSTORE PUSH1 0x20 ADD PUSH1 0x6 DUP3 ADD SLOAD DUP2 MSTORE PUSH1 0x20 ADD PUSH1 0x7 DUP3 ADD PUSH0 SWAP1 SLOAD SWAP1 PUSH2 0x100 EXP SWAP1 DIV PUSH1 0xFF AND ISZERO ISZERO ISZERO ISZERO DUP2 MSTORE PUSH1 0x20 ADD PUSH1 0x8 DUP3 ADD SLOAD DUP2 MSTORE POP POP SWAP1 POP PUSH0 DUP2 PUSH0 ADD MLOAD GT PUSH2 0x1EBC JUMPI PUSH1 0x40 MLOAD PUSH32 0x8C379A000000000000000000000000000000000000000000000000000000000 DUP2 MSTORE PUSH1 0x4 ADD PUSH2 0x1EB3 SWAP1 PUSH2 0x3894 JUMP JUMPDEST PUSH1 0x40 MLOAD DUP1 SWAP2 SUB SWAP1 REVERT JUMPDEST DUP1 PUSH1 0x60 ADD MLOAD TIMESTAMP LT PUSH2 0x1ED0 JUMPI PUSH0 SWAP2 POP POP PUSH2 0x1EF2 JUMP JUMPDEST PUSH3 0x15180 TIMESTAMP DUP3 PUSH1 0x60 ADD MLOAD PUSH2 0x1EE4 SWAP2 SWAP1 PUSH2 0x38DF JUMP JUMPDEST PUSH2 0x1EEE SWAP2 SWAP1 PUSH2 0x393F JUMP JUMPDEST SWAP2 POP POP JUMPDEST SWAP2 SWAP1 POP JUMP JUMPDEST CALLER PUSH20 0xFFFFFFFFFFFFFFFFFFFFFFFFFFFFFFFFFFFFFFFF AND PUSH0 DUP1 SLOAD SWAP1 PUSH2 0x100 EXP SWAP1 DIV PUSH20 0xFFFFFFFFFFFFFFFFFFFFFFFFFFFFFFFFFFFFFFFF AND PUSH20 0xFFFFFFFFFFFFFFFFFFFFFFFFFFFFFFFFFFFFFFFF AND EQ PUSH2 0x1F84 JUMPI PUSH1 0x40 MLOAD PUSH32 0x8C379A000000000000000000000000000000000000000000000000000000000 DUP2 MSTORE PUSH1 0x4 ADD PUSH2 0x1F7B SWAP1 PUSH2 0x4161 JUMP JUMPDEST PUSH1 0x40 MLOAD DUP1 SWAP2 SUB SWAP1 REVERT JUMPDEST DUP1 PUSH1 0x6 PUSH0 DUP5 DUP2 MSTORE PUSH1 0x20 ADD SWAP1 DUP2 MSTORE PUSH1 0x20 ADD PUSH0 KECCAK256 PUSH1 0x3 ADD DUP2 SWAP1 SSTORE POP POP POP JUMP JUMPDEST PUSH0 PUSH1 0x6 PUSH0 DUP4 DUP2 MSTORE PUSH1 0x20 ADD SWAP1 DUP2 MSTORE PUSH1 0x20 ADD PUSH0 KECCAK256 SWAP1 POP CALLER PUSH20 0xFFFFFFFFFFFFFFFFFFFFFFFFFFFFFFFFFFFFFFFF AND DUP2 PUSH1 0x1 ADD PUSH0 SWAP1 SLOAD SWAP1 PUSH2 0x100 EXP SWAP1 DIV PUSH20 0xFFFFFFFFFFFFFFFFFFFFFFFFFFFFFFFFFFFFFFFF AND PUSH20 0xFFFFFFFFFFFFFFFFFFFFFFFFFFFFFFFFFFFFFFFF AND EQ PUSH2 0x2046 JUMPI PUSH1 0x40 MLOAD PUSH32 0x8C379A000000000000000000000000000000000000000000000000000000000 DUP2 MSTORE PUSH1 0x4 ADD PUSH2 0x203D SWAP1 PUSH2 0x41EF JUMP JUMPDEST PUSH1 0x40 MLOAD DUP1 SWAP2 SUB SWAP1 REVERT JUMPDEST PUSH1 0x1 ISZERO ISZERO DUP2 PUSH1 0x7 ADD PUSH0 SWAP1 SLOAD SWAP1 PUSH2 0x100 EXP SWAP1 DIV PUSH1 0xFF AND ISZERO ISZERO EQ PUSH2 0x209D JUMPI PUSH1 0x40 MLOAD PUSH32 0x8C379A000000000000000000000000000000000000000000000000000000000 DUP2 MSTORE PUSH1 0x4 ADD PUSH2 0x2094 SWAP1 PUSH2 0x39B9 JUMP JUMPDEST PUSH1 0x40 MLOAD DUP1 SWAP2 SUB SWAP1 REVERT JUMPDEST PUSH0 PUSH3 0x15180 DUP3 PUSH1 0x2 ADD SLOAD DUP4 PUSH1 0x3 ADD SLOAD PUSH2 0x20B6 SWAP2 SWAP1 PUSH2 0x38DF JUMP JUMPDEST PUSH2 0x20C0 SWAP2 SWAP1 PUSH2 0x393F JUMP JUMPDEST SWAP1 POP PUSH2 0x320 DUP2 EQ PUSH2 0x2106 JUMPI PUSH1 0x40 MLOAD PUSH32 0x8C379A000000000000000000000000000000000000000000000000000000000 DUP2 MSTORE PUSH1 0x4 ADD PUSH2 0x20FD SWAP1 PUSH2 0x427D JUMP JUMPDEST PUSH1 0x40 MLOAD DUP1 SWAP2 SUB SWAP1 REVERT JUMPDEST PUSH0 DUP3 PUSH1 0x7 ADD PUSH0 PUSH2 0x100 EXP DUP2 SLOAD DUP2 PUSH1 0xFF MUL NOT AND SWAP1 DUP4 ISZERO ISZERO MUL OR SWAP1 SSTORE POP DUP2 PUSH1 0x3 ADD SLOAD TIMESTAMP GT ISZERO PUSH2 0x21B0 JUMPI PUSH0 DUP3 PUSH1 0x6 ADD SLOAD DUP4 PUSH1 0x5 ADD SLOAD PUSH2 0x2142 SWAP2 SWAP1 PUSH2 0x429B JUMP JUMPDEST SWAP1 POP CALLER PUSH20 0xFFFFFFFFFFFFFFFFFFFFFFFFFFFFFFFFFFFFFFFF AND DUP2 PUSH1 0x40 MLOAD PUSH2 0x2168 SWAP1 PUSH2 0x42FB JUMP JUMPDEST PUSH0 PUSH1 0x40 MLOAD DUP1 DUP4 SUB DUP2 DUP6 DUP8 GAS CALL SWAP3 POP POP POP RETURNDATASIZE DUP1 PUSH0 DUP2 EQ PUSH2 0x21A2 JUMPI PUSH1 0x40 MLOAD SWAP2 POP PUSH1 0x1F NOT PUSH1 0x3F RETURNDATASIZE ADD AND DUP3 ADD PUSH1 0x40 MSTORE RETURNDATASIZE DUP3 MSTORE RETURNDATASIZE PUSH0 PUSH1 0x20 DUP5 ADD RETURNDATACOPY PUSH2 0x21A7 JUMP JUMPDEST PUSH1 0x60 SWAP2 POP JUMPDEST POP POP POP POP PUSH2 0x2290 JUMP JUMPDEST PUSH1 0x1 PUSH0 SWAP1 SLOAD SWAP1 PUSH2 0x100 EXP SWAP1 DIV PUSH20 0xFFFFFFFFFFFFFFFFFFFFFFFFFFFFFFFFFFFFFFFF AND PUSH20 0xFFFFFFFFFFFFFFFFFFFFFFFFFFFFFFFFFFFFFFFF AND PUSH4 0xA9059CBB CALLER DUP5 PUSH1 0x5 ADD SLOAD PUSH1 0x40 MLOAD DUP4 PUSH4 0xFFFFFFFF AND PUSH1 0xE0 SHL DUP2 MSTORE PUSH1 0x4 ADD PUSH2 0x2210 SWAP3 SWAP2 SWAP1 PUSH2 0x3BC2 JUMP JUMPDEST PUSH1 0x20 PUSH1 0x40 MLOAD DUP1 DUP4 SUB DUP2 PUSH0 DUP8 GAS CALL ISZERO DUP1 ISZERO PUSH2 0x222C JUMPI RETURNDATASIZE PUSH0 DUP1 RETURNDATACOPY RETURNDATASIZE PUSH0 REVERT JUMPDEST POP POP POP POP PUSH1 0x40 MLOAD RETURNDATASIZE PUSH1 0x1F NOT PUSH1 0x1F DUP3 ADD AND DUP3 ADD DUP1 PUSH1 0x40 MSTORE POP DUP2 ADD SWAP1 PUSH2 0x2250 SWAP2 SWAP1 PUSH2 0x3C13 JUMP JUMPDEST PUSH2 0x228F JUMPI PUSH1 0x40 MLOAD PUSH32 0x8C379A000000000000000000000000000000000000000000000000000000000 DUP2 MSTORE PUSH1 0x4 ADD PUSH2 0x2286 SWAP1 PUSH2 0x3F41 JUMP JUMPDEST PUSH1 0x40 MLOAD DUP1 SWAP2 SUB SWAP1 REVERT JUMPDEST JUMPDEST PUSH1 0x5 PUSH0 CALLER PUSH20 0xFFFFFFFFFFFFFFFFFFFFFFFFFFFFFFFFFFFFFFFF AND PUSH20 0xFFFFFFFFFFFFFFFFFFFFFFFFFFFFFFFFFFFFFFFF AND DUP2 MSTORE PUSH1 0x20 ADD SWAP1 DUP2 MSTORE PUSH1 0x20 ADD PUSH0 KECCAK256 DUP3 SWAP1 DUP1 PUSH1 0x1 DUP2 SLOAD ADD DUP1 DUP3 SSTORE DUP1 SWAP2 POP POP PUSH1 0x1 SWAP1 SUB SWAP1 PUSH0 MSTORE PUSH1 0x20 PUSH0 KECCAK256 SWAP1 PUSH1 0x9 MUL ADD PUSH0 SWAP1 SWAP2 SWAP1 SWAP2 SWAP1 SWAP2 POP PUSH0 DUP3 ADD SLOAD DUP2 PUSH0 ADD SSTORE PUSH1 0x1 DUP3 ADD PUSH0 SWAP1 SLOAD SWAP1 PUSH2 0x100 EXP SWAP1 DIV PUSH20 0xFFFFFFFFFFFFFFFFFFFFFFFFFFFFFFFFFFFFFFFF AND DUP2 PUSH1 0x1 ADD PUSH0 PUSH2 0x100 EXP DUP2 SLOAD DUP2 PUSH20 0xFFFFFFFFFFFFFFFFFFFFFFFFFFFFFFFFFFFFFFFF MUL NOT AND SWAP1 DUP4 PUSH20 0xFFFFFFFFFFFFFFFFFFFFFFFFFFFFFFFFFFFFFFFF AND MUL OR SWAP1 SSTORE POP PUSH1 0x2 DUP3 ADD SLOAD DUP2 PUSH1 0x2 ADD SSTORE PUSH1 0x3 DUP3 ADD SLOAD DUP2 PUSH1 0x3 ADD SSTORE PUSH1 0x4 DUP3 ADD SLOAD DUP2 PUSH1 0x4 ADD SSTORE PUSH1 0x5 DUP3 ADD SLOAD DUP2 PUSH1 0x5 ADD SSTORE PUSH1 0x6 DUP3 ADD SLOAD DUP2 PUSH1 0x6 ADD SSTORE PUSH1 0x7 DUP3 ADD PUSH0 SWAP1 SLOAD SWAP1 PUSH2 0x100 EXP SWAP1 DIV PUSH1 0xFF AND DUP2 PUSH1 0x7 ADD PUSH0 PUSH2 0x100 EXP DUP2 SLOAD DUP2 PUSH1 0xFF MUL NOT AND SWAP1 DUP4 ISZERO ISZERO MUL OR SWAP1 SSTORE POP PUSH1 0x8 DUP3 ADD SLOAD DUP2 PUSH1 0x8 ADD SSTORE POP POP POP POP POP JUMP JUMPDEST PUSH0 DUP1 PUSH1 0x6 PUSH0 DUP5 DUP2 MSTORE PUSH1 0x20 ADD SWAP1 DUP2 MSTORE PUSH1 0x20 ADD PUSH0 KECCAK256 PUSH1 0x40 MLOAD DUP1 PUSH2 0x120 ADD PUSH1 0x40 MSTORE SWAP1 DUP2 PUSH0 DUP3 ADD SLOAD DUP2 MSTORE PUSH1 0x20 ADD PUSH1 0x1 DUP3 ADD PUSH0 SWAP1 SLOAD SWAP1 PUSH2 0x100 EXP SWAP1 DIV PUSH20 0xFFFFFFFFFFFFFFFFFFFFFFFFFFFFFFFFFFFFFFFF AND PUSH20 0xFFFFFFFFFFFFFFFFFFFFFFFFFFFFFFFFFFFFFFFF AND PUSH20 0xFFFFFFFFFFFFFFFFFFFFFFFFFFFFFFFFFFFFFFFF AND DUP2 MSTORE PUSH1 0x20 ADD PUSH1 0x2 DUP3 ADD SLOAD DUP2 MSTORE PUSH1 0x20 ADD PUSH1 0x3 DUP3 ADD SLOAD DUP2 MSTORE PUSH1 0x20 ADD PUSH1 0x4 DUP3 ADD SLOAD DUP2 MSTORE PUSH1 0x20 ADD PUSH1 0x5 DUP3 ADD SLOAD DUP2 MSTORE PUSH1 0x20 ADD PUSH1 0x6 DUP3 ADD SLOAD DUP2 MSTORE PUSH1 0x20 ADD PUSH1 0x7 DUP3 ADD PUSH0 SWAP1 SLOAD SWAP1 PUSH2 0x100 EXP SWAP1 DIV PUSH1 0xFF AND ISZERO ISZERO ISZERO ISZERO DUP2 MSTORE PUSH1 0x20 ADD PUSH1 0x8 DUP3 ADD SLOAD DUP2 MSTORE POP POP SWAP1 POP PUSH0 DUP2 PUSH0 ADD MLOAD GT PUSH2 0x24E9 JUMPI PUSH1 0x40 MLOAD PUSH32 0x8C379A000000000000000000000000000000000000000000000000000000000 DUP2 MSTORE PUSH1 0x4 ADD PUSH2 0x24E0 SWAP1 PUSH2 0x3894 JUMP JUMPDEST PUSH1 0x40 MLOAD DUP1 SWAP2 SUB SWAP1 REVERT JUMPDEST DUP1 PUSH1 0xE0 ADD MLOAD PUSH2 0x252D JUMPI PUSH1 0x40 MLOAD PUSH32 0x8C379A000000000000000000000000000000000000000000000000000000000 DUP2 MSTORE PUSH1 0x4 ADD PUSH2 0x2524 SWAP1 PUSH2 0x39B9 JUMP JUMPDEST PUSH1 0x40 MLOAD DUP1 SWAP2 SUB SWAP1 REVERT JUMPDEST PUSH0 PUSH3 0x15180 DUP3 PUSH1 0x40 ADD MLOAD DUP4 PUSH1 0x60 ADD MLOAD PUSH2 0x2546 SWAP2 SWAP1 PUSH2 0x38DF JUMP JUMPDEST PUSH2 0x2550 SWAP2 SWAP1 PUSH2 0x393F JUMP JUMPDEST SWAP1 POP PUSH0 PUSH1 0x8 PUSH0 DUP4 DUP2 MSTORE PUSH1 0x20 ADD SWAP1 DUP2 MSTORE PUSH1 0x20 ADD PUSH0 KECCAK256 SLOAD GT PUSH2 0x25A5 JUMPI PUSH1 0x40 MLOAD PUSH32 0x8C379A000000000000000000000000000000000000000000000000000000000 DUP2 MSTORE PUSH1 0x4 ADD PUSH2 0x259C SWAP1 PUSH2 0x4359 JUMP JUMPDEST PUSH1 0x40 MLOAD DUP1 SWAP2 SUB SWAP1 REVERT JUMPDEST PUSH0 DUP2 PUSH1 0x8 PUSH0 DUP5 DUP2 MSTORE PUSH1 0x20 ADD SWAP1 DUP2 MSTORE PUSH1 0x20 ADD PUSH0 KECCAK256 SLOAD PUSH2 0x25C3 SWAP2 SWAP1 PUSH2 0x393F JUMP JUMPDEST SWAP1 POP PUSH0 PUSH2 0x2710 DUP5 PUSH1 0xA0 ADD MLOAD DUP4 PUSH2 0x25D9 SWAP2 SWAP1 PUSH2 0x3B81 JUMP JUMPDEST PUSH2 0x25E3 SWAP2 SWAP1 PUSH2 0x393F JUMP JUMPDEST SWAP1 POP DUP1 SWAP5 POP POP POP POP POP SWAP2 SWAP1 POP JUMP JUMPDEST PUSH1 0xD PUSH1 0x20 MSTORE DUP1 PUSH0 MSTORE PUSH1 0x40 PUSH0 KECCAK256 PUSH0 SWAP2 POP SWAP1 POP SLOAD DUP2 JUMP JUMPDEST PUSH1 0xC PUSH1 0x20 MSTORE DUP1 PUSH0 MSTORE PUSH1 0x40 PUSH0 KECCAK256 PUSH0 SWAP2 POP SWAP1 POP SLOAD DUP2 JUMP JUMPDEST PUSH1 0x1 PUSH0 SWAP1 SLOAD SWAP1 PUSH2 0x100 EXP SWAP1 DIV PUSH20 0xFFFFFFFFFFFFFFFFFFFFFFFFFFFFFFFFFFFFFFFF AND DUP2 JUMP JUMPDEST PUSH0 PUSH1 0x8 PUSH0 DUP6 DUP2 MSTORE PUSH1 0x20 ADD SWAP1 DUP2 MSTORE PUSH1 0x20 ADD PUSH0 KECCAK256 SLOAD GT PUSH2 0x2693 JUMPI PUSH1 0x40 MLOAD PUSH32 0x8C379A000000000000000000000000000000000000000000000000000000000 DUP2 MSTORE PUSH1 0x4 ADD PUSH2 0x268A SWAP1 PUSH2 0x43C1 JUMP JUMPDEST PUSH1 0x40 MLOAD DUP1 SWAP2 SUB SWAP1 REVERT JUMPDEST PUSH1 0x1 PUSH0 SWAP1 SLOAD SWAP1 PUSH2 0x100 EXP SWAP1 DIV PUSH20 0xFFFFFFFFFFFFFFFFFFFFFFFFFFFFFFFFFFFFFFFF AND PUSH20 0xFFFFFFFFFFFFFFFFFFFFFFFFFFFFFFFFFFFFFFFF AND PUSH4 0x23B872DD CALLER ADDRESS DUP6 PUSH1 0x40 MLOAD DUP5 PUSH4 0xFFFFFFFF AND PUSH1 0xE0 SHL DUP2 MSTORE PUSH1 0x4 ADD PUSH2 0x26F1 SWAP4 SWAP3 SWAP2 SWAP1 PUSH2 0x43DF JUMP JUMPDEST PUSH1 0x20 PUSH1 0x40 MLOAD DUP1 DUP4 SUB DUP2 PUSH0 DUP8 GAS CALL ISZERO DUP1 ISZERO PUSH2 0x270D JUMPI RETURNDATASIZE PUSH0 DUP1 RETURNDATACOPY RETURNDATASIZE PUSH0 REVERT JUMPDEST POP POP POP POP PUSH1 0x40 MLOAD RETURNDATASIZE PUSH1 0x1F NOT PUSH1 0x1F DUP3 ADD AND DUP3 ADD DUP1 PUSH1 0x40 MSTORE POP DUP2 ADD SWAP1 PUSH2 0x2731 SWAP2 SWAP1 PUSH2 0x3C13 JUMP JUMPDEST PUSH2 0x2770 JUMPI PUSH1 0x40 MLOAD PUSH32 0x8C379A000000000000000000000000000000000000000000000000000000000 DUP2 MSTORE PUSH1 0x4 ADD PUSH2 0x2767 SWAP1 PUSH2 0x3F41 JUMP JUMPDEST PUSH1 0x40 MLOAD DUP1 SWAP2 SUB SWAP1 REVERT JUMPDEST PUSH0 DUP1 PUSH20 0xFFFFFFFFFFFFFFFFFFFFFFFFFFFFFFFFFFFFFFFF AND PUSH1 0x2 PUSH0 CALLER PUSH20 0xFFFFFFFFFFFFFFFFFFFFFFFFFFFFFFFFFFFFFFFF AND PUSH20 0xFFFFFFFFFFFFFFFFFFFFFFFFFFFFFFFFFFFFFFFF AND DUP2 MSTORE PUSH1 0x20 ADD SWAP1 DUP2 MSTORE PUSH1 0x20 ADD PUSH0 KECCAK256 PUSH0 ADD PUSH0 SWAP1 SLOAD SWAP1 PUSH2 0x100 EXP SWAP1 DIV PUSH20 0xFFFFFFFFFFFFFFFFFFFFFFFFFFFFFFFFFFFFFFFF AND PUSH20 0xFFFFFFFFFFFFFFFFFFFFFFFFFFFFFFFFFFFFFFFF AND SUB PUSH2 0x29E4 JUMPI PUSH0 PUSH20 0xFFFFFFFFFFFFFFFFFFFFFFFFFFFFFFFFFFFFFFFF AND DUP3 PUSH20 0xFFFFFFFFFFFFFFFFFFFFFFFFFFFFFFFFFFFFFFFF AND EQ ISZERO DUP1 ISZERO PUSH2 0x286A JUMPI POP CALLER PUSH20 0xFFFFFFFFFFFFFFFFFFFFFFFFFFFFFFFFFFFFFFFF AND DUP3 PUSH20 0xFFFFFFFFFFFFFFFFFFFFFFFFFFFFFFFFFFFFFFFF AND EQ ISZERO JUMPDEST ISZERO PUSH2 0x2946 JUMPI DUP2 PUSH1 0x2 PUSH0 CALLER PUSH20 0xFFFFFFFFFFFFFFFFFFFFFFFFFFFFFFFFFFFFFFFF AND PUSH20 0xFFFFFFFFFFFFFFFFFFFFFFFFFFFFFFFFFFFFFFFF AND DUP2 MSTORE PUSH1 0x20 ADD SWAP1 DUP2 MSTORE PUSH1 0x20 ADD PUSH0 KECCAK256 PUSH0 ADD PUSH0 PUSH2 0x100 EXP DUP2 SLOAD DUP2 PUSH20 0xFFFFFFFFFFFFFFFFFFFFFFFFFFFFFFFFFFFFFFFF MUL NOT AND SWAP1 DUP4 PUSH20 0xFFFFFFFFFFFFFFFFFFFFFFFFFFFFFFFFFFFFFFFF AND MUL OR SWAP1 SSTORE POP PUSH1 0x2 PUSH0 DUP4 PUSH20 0xFFFFFFFFFFFFFFFFFFFFFFFFFFFFFFFFFFFFFFFF AND PUSH20 0xFFFFFFFFFFFFFFFFFFFFFFFFFFFFFFFFFFFFFFFF AND DUP2 MSTORE PUSH1 0x20 ADD SWAP1 DUP2 MSTORE PUSH1 0x20 ADD PUSH0 KECCAK256 PUSH1 0x4 ADD PUSH0 DUP2 SLOAD DUP1 SWAP3 SWAP2 SWAP1 PUSH2 0x293C SWAP1 PUSH2 0x4414 JUMP JUMPDEST SWAP2 SWAP1 POP SSTORE POP PUSH2 0x29E3 JUMP JUMPDEST PUSH0 DUP1 SLOAD SWAP1 PUSH2 0x100 EXP SWAP1 DIV PUSH20 0xFFFFFFFFFFFFFFFFFFFFFFFFFFFFFFFFFFFFFFFF AND PUSH1 0x2 PUSH0 CALLER PUSH20 0xFFFFFFFFFFFFFFFFFFFFFFFFFFFFFFFFFFFFFFFF AND PUSH20 0xFFFFFFFFFFFFFFFFFFFFFFFFFFFFFFFFFFFFFFFF AND DUP2 MSTORE PUSH1 0x20 ADD SWAP1 DUP2 MSTORE PUSH1 0x20 ADD PUSH0 KECCAK256 PUSH0 ADD PUSH0 PUSH2 0x100 EXP DUP2 SLOAD DUP2 PUSH20 0xFFFFFFFFFFFFFFFFFFFFFFFFFFFFFFFFFFFFFFFF MUL NOT AND SWAP1 DUP4 PUSH20 0xFFFFFFFFFFFFFFFFFFFFFFFFFFFFFFFFFFFFFFFF AND MUL OR SWAP1 SSTORE POP JUMPDEST JUMPDEST PUSH0 DUP1 SLOAD SWAP1 PUSH2 0x100 EXP SWAP1 DIV PUSH20 0xFFFFFFFFFFFFFFFFFFFFFFFFFFFFFFFFFFFFFFFF AND PUSH20 0xFFFFFFFFFFFFFFFFFFFFFFFFFFFFFFFFFFFFFFFF AND PUSH1 0x2 PUSH0 CALLER PUSH20 0xFFFFFFFFFFFFFFFFFFFFFFFFFFFFFFFFFFFFFFFF AND PUSH20 0xFFFFFFFFFFFFFFFFFFFFFFFFFFFFFFFFFFFFFFFF AND DUP2 MSTORE PUSH1 0x20 ADD SWAP1 DUP2 MSTORE PUSH1 0x20 ADD PUSH0 KECCAK256 PUSH0 ADD PUSH0 SWAP1 SLOAD SWAP1 PUSH2 0x100 EXP SWAP1 DIV PUSH20 0xFFFFFFFFFFFFFFFFFFFFFFFFFFFFFFFFFFFFFFFF AND PUSH20 0xFFFFFFFFFFFFFFFFFFFFFFFFFFFFFFFFFFFFFFFF AND EQ PUSH2 0x2C35 JUMPI PUSH1 0x64 PUSH1 0xD PUSH0 PUSH1 0x1 DUP2 MSTORE PUSH1 0x20 ADD SWAP1 DUP2 MSTORE PUSH1 0x20 ADD PUSH0 KECCAK256 SLOAD DUP5 PUSH2 0x2AB4 SWAP2 SWAP1 PUSH2 0x3B81 JUMP JUMPDEST PUSH2 0x2ABE SWAP2 SWAP1 PUSH2 0x393F JUMP JUMPDEST SWAP1 POP DUP1 PUSH1 0xC PUSH0 PUSH1 0x2 PUSH0 CALLER PUSH20 0xFFFFFFFFFFFFFFFFFFFFFFFFFFFFFFFFFFFFFFFF AND PUSH20 0xFFFFFFFFFFFFFFFFFFFFFFFFFFFFFFFFFFFFFFFF AND DUP2 MSTORE PUSH1 0x20 ADD SWAP1 DUP2 MSTORE PUSH1 0x20 ADD PUSH0 KECCAK256 PUSH0 ADD PUSH0 SWAP1 SLOAD SWAP1 PUSH2 0x100 EXP SWAP1 DIV PUSH20 0xFFFFFFFFFFFFFFFFFFFFFFFFFFFFFFFFFFFFFFFF AND PUSH20 0xFFFFFFFFFFFFFFFFFFFFFFFFFFFFFFFFFFFFFFFF AND PUSH20 0xFFFFFFFFFFFFFFFFFFFFFFFFFFFFFFFFFFFFFFFF AND DUP2 MSTORE PUSH1 0x20 ADD SWAP1 DUP2 MSTORE PUSH1 0x20 ADD PUSH0 KECCAK256 PUSH0 DUP3 DUP3 SLOAD PUSH2 0x2B6A SWAP2 SWAP1 PUSH2 0x429B JUMP JUMPDEST SWAP3 POP POP DUP2 SWAP1 SSTORE POP CALLER PUSH20 0xFFFFFFFFFFFFFFFFFFFFFFFFFFFFFFFFFFFFFFFF AND PUSH1 0x2 PUSH0 CALLER PUSH20 0xFFFFFFFFFFFFFFFFFFFFFFFFFFFFFFFFFFFFFFFF AND PUSH20 0xFFFFFFFFFFFFFFFFFFFFFFFFFFFFFFFFFFFFFFFF AND DUP2 MSTORE PUSH1 0x20 ADD SWAP1 DUP2 MSTORE PUSH1 0x20 ADD PUSH0 KECCAK256 PUSH0 ADD PUSH0 SWAP1 SLOAD SWAP1 PUSH2 0x100 EXP SWAP1 DIV PUSH20 0xFFFFFFFFFFFFFFFFFFFFFFFFFFFFFFFFFFFFFFFF AND PUSH20 0xFFFFFFFFFFFFFFFFFFFFFFFFFFFFFFFFFFFFFFFF AND PUSH32 0xAEECFCDA1271D292DB728294B8AE465871EC039D51404CAF49A7EB0ADE51770A DUP4 PUSH1 0x40 MLOAD PUSH2 0x2C2C SWAP2 SWAP1 PUSH2 0x31FC JUMP JUMPDEST PUSH1 0x40 MLOAD DUP1 SWAP2 SUB SWAP1 LOG3 JUMPDEST PUSH1 0x40 MLOAD DUP1 PUSH2 0x120 ADD PUSH1 0x40 MSTORE DUP1 PUSH1 0x3 SLOAD DUP2 MSTORE PUSH1 0x20 ADD CALLER PUSH20 0xFFFFFFFFFFFFFFFFFFFFFFFFFFFFFFFFFFFFFFFF AND DUP2 MSTORE PUSH1 0x20 ADD TIMESTAMP DUP2 MSTORE PUSH1 0x20 ADD PUSH3 0x15180 DUP7 PUSH2 0x2C7A SWAP2 SWAP1 PUSH2 0x3B81 JUMP JUMPDEST TIMESTAMP PUSH2 0x2C85 SWAP2 SWAP1 PUSH2 0x429B JUMP JUMPDEST DUP2 MSTORE PUSH1 0x20 ADD PUSH1 0x8 PUSH0 DUP8 DUP2 MSTORE PUSH1 0x20 ADD SWAP1 DUP2 MSTORE PUSH1 0x20 ADD PUSH0 KECCAK256 SLOAD DUP2 MSTORE PUSH1 0x20 ADD DUP5 DUP2 MSTORE PUSH1 0x20 ADD PUSH2 0x2CC3 PUSH1 0x8 PUSH0 DUP9 DUP2 MSTORE PUSH1 0x20 ADD SWAP1 DUP2 MSTORE PUSH1 0x20 ADD PUSH0 KECCAK256 SLOAD DUP8 DUP8 PUSH2 0x2E20 JUMP JUMPDEST DUP2 MSTORE PUSH1 0x20 ADD PUSH1 0x1 ISZERO ISZERO DUP2 MSTORE PUSH1 0x20 ADD TIMESTAMP DUP2 MSTORE POP PUSH1 0x6 PUSH0 PUSH1 0x3 SLOAD DUP2 MSTORE PUSH1 0x20 ADD SWAP1 DUP2 MSTORE PUSH1 0x20 ADD PUSH0 KECCAK256 PUSH0 DUP3 ADD MLOAD DUP2 PUSH0 ADD SSTORE PUSH1 0x20 DUP3 ADD MLOAD DUP2 PUSH1 0x1 ADD PUSH0 PUSH2 0x100 EXP DUP2 SLOAD DUP2 PUSH20 0xFFFFFFFFFFFFFFFFFFFFFFFFFFFFFFFFFFFFFFFF MUL NOT AND SWAP1 DUP4 PUSH20 0xFFFFFFFFFFFFFFFFFFFFFFFFFFFFFFFFFFFFFFFF AND MUL OR SWAP1 SSTORE POP PUSH1 0x40 DUP3 ADD MLOAD DUP2 PUSH1 0x2 ADD SSTORE PUSH1 0x60 DUP3 ADD MLOAD DUP2 PUSH1 0x3 ADD SSTORE PUSH1 0x80 DUP3 ADD MLOAD DUP2 PUSH1 0x4 ADD SSTORE PUSH1 0xA0 DUP3 ADD MLOAD DUP2 PUSH1 0x5 ADD SSTORE PUSH1 0xC0 DUP3 ADD MLOAD DUP2 PUSH1 0x6 ADD SSTORE PUSH1 0xE0 DUP3 ADD MLOAD DUP2 PUSH1 0x7 ADD PUSH0 PUSH2 0x100 EXP DUP2 SLOAD DUP2 PUSH1 0xFF MUL NOT AND SWAP1 DUP4 ISZERO ISZERO MUL OR SWAP1 SSTORE POP PUSH2 0x100 DUP3 ADD MLOAD DUP2 PUSH1 0x8 ADD SSTORE SWAP1 POP POP PUSH1 0x7 PUSH0 CALLER PUSH20 0xFFFFFFFFFFFFFFFFFFFFFFFFFFFFFFFFFFFFFFFF AND PUSH20 0xFFFFFFFFFFFFFFFFFFFFFFFFFFFFFFFFFFFFFFFF AND DUP2 MSTORE PUSH1 0x20 ADD SWAP1 DUP2 MSTORE PUSH1 0x20 ADD PUSH0 KECCAK256 PUSH1 0x3 SLOAD SWAP1 DUP1 PUSH1 0x1 DUP2 SLOAD ADD DUP1 DUP3 SSTORE DUP1 SWAP2 POP POP PUSH1 0x1 SWAP1 SUB SWAP1 PUSH0 MSTORE PUSH1 0x20 PUSH0 KECCAK256 ADD PUSH0 SWAP1 SWAP2 SWAP1 SWAP2 SWAP1 SWAP2 POP SSTORE PUSH1 0x1 PUSH1 0x3 PUSH0 DUP3 DUP3 SLOAD PUSH2 0x2E0A SWAP2 SWAP1 PUSH2 0x429B JUMP JUMPDEST SWAP3 POP POP DUP2 SWAP1 SSTORE POP PUSH2 0x2E1A CALLER PUSH2 0x2E43 JUMP JUMPDEST POP POP POP POP JUMP JUMPDEST PUSH0 PUSH2 0x2710 DUP3 DUP6 PUSH2 0x2E30 SWAP2 SWAP1 PUSH2 0x3B81 JUMP JUMPDEST PUSH2 0x2E3A SWAP2 SWAP1 PUSH2 0x393F JUMP JUMPDEST SWAP1 POP SWAP4 SWAP3 POP POP POP JUMP JUMPDEST PUSH0 PUSH1 0x2 PUSH0 DUP4 PUSH20 0xFFFFFFFFFFFFFFFFFFFFFFFFFFFFFFFFFFFFFFFF AND PUSH20 0xFFFFFFFFFFFFFFFFFFFFFFFFFFFFFFFFFFFFFFFF AND DUP2 MSTORE PUSH1 0x20 ADD SWAP1 DUP2 MSTORE PUSH1 0x20 ADD PUSH0 KECCAK256 PUSH0 ADD PUSH0 SWAP1 SLOAD SWAP1 PUSH2 0x100 EXP SWAP1 DIV PUSH20 0xFFFFFFFFFFFFFFFFFFFFFFFFFFFFFFFFFFFFFFFF AND SWAP1 POP PUSH0 PUSH1 0x1 SWAP1 POP JUMPDEST PUSH1 0x5 DUP2 GT PUSH2 0x312B JUMPI PUSH0 PUSH20 0xFFFFFFFFFFFFFFFFFFFFFFFFFFFFFFFFFFFFFFFF AND DUP3 PUSH20 0xFFFFFFFFFFFFFFFFFFFFFFFFFFFFFFFFFFFFFFFF AND SUB ISZERO PUSH2 0x312B JUMPI PUSH0 PUSH1 0x64 PUSH1 0xD PUSH0 DUP5 DUP2 MSTORE PUSH1 0x20 ADD SWAP1 DUP2 MSTORE PUSH1 0x20 ADD PUSH0 KECCAK256 SLOAD PUSH1 0x6 PUSH0 PUSH1 0x1 PUSH1 0x3 SLOAD PUSH2 0x2F0E SWAP2 SWAP1 PUSH2 0x38DF JUMP JUMPDEST DUP2 MSTORE PUSH1 0x20 ADD SWAP1 DUP2 MSTORE PUSH1 0x20 ADD PUSH0 KECCAK256 PUSH1 0x5 ADD SLOAD PUSH2 0x2F29 SWAP2 SWAP1 PUSH2 0x3B81 JUMP JUMPDEST PUSH2 0x2F33 SWAP2 SWAP1 PUSH2 0x393F JUMP JUMPDEST SWAP1 POP DUP1 PUSH1 0x2 PUSH0 DUP6 PUSH20 0xFFFFFFFFFFFFFFFFFFFFFFFFFFFFFFFFFFFFFFFF AND PUSH20 0xFFFFFFFFFFFFFFFFFFFFFFFFFFFFFFFFFFFFFFFF AND DUP2 MSTORE PUSH1 0x20 ADD SWAP1 DUP2 MSTORE PUSH1 0x20 ADD PUSH0 KECCAK256 PUSH1 0x1 ADD PUSH0 DUP3 DUP3 SLOAD PUSH2 0x2F84 SWAP2 SWAP1 PUSH2 0x429B JUMP JUMPDEST SWAP3 POP POP DUP2 SWAP1 SSTORE POP PUSH1 0x1 PUSH0 SWAP1 SLOAD SWAP1 PUSH2 0x100 EXP SWAP1 DIV PUSH20 0xFFFFFFFFFFFFFFFFFFFFFFFFFFFFFFFFFFFFFFFF AND PUSH20 0xFFFFFFFFFFFFFFFFFFFFFFFFFFFFFFFFFFFFFFFF AND PUSH4 0xA9059CBB DUP5 DUP4 PUSH1 0x40 MLOAD DUP4 PUSH4 0xFFFFFFFF AND PUSH1 0xE0 SHL DUP2 MSTORE PUSH1 0x4 ADD PUSH2 0x2FE7 SWAP3 SWAP2 SWAP1 PUSH2 0x3BC2 JUMP JUMPDEST PUSH1 0x20 PUSH1 0x40 MLOAD DUP1 DUP4 SUB DUP2 PUSH0 DUP8 GAS CALL ISZERO DUP1 ISZERO PUSH2 0x3003 JUMPI RETURNDATASIZE PUSH0 DUP1 RETURNDATACOPY RETURNDATASIZE PUSH0 REVERT JUMPDEST POP POP POP POP PUSH1 0x40 MLOAD RETURNDATASIZE PUSH1 0x1F NOT PUSH1 0x1F DUP3 ADD AND DUP3 ADD DUP1 PUSH1 0x40 MSTORE POP DUP2 ADD SWAP1 PUSH2 0x3027 SWAP2 SWAP1 PUSH2 0x3C13 JUMP JUMPDEST PUSH2 0x3066 JUMPI PUSH1 0x40 MLOAD PUSH32 0x8C379A000000000000000000000000000000000000000000000000000000000 DUP2 MSTORE PUSH1 0x4 ADD PUSH2 0x305D SWAP1 PUSH2 0x44A5 JUMP JUMPDEST PUSH1 0x40 MLOAD DUP1 SWAP2 SUB SWAP1 REVERT JUMPDEST DUP3 PUSH20 0xFFFFFFFFFFFFFFFFFFFFFFFFFFFFFFFFFFFFFFFF AND PUSH32 0x83B5EADB65FB8FC1B70A3B205B38BB0C6A3E15E14BCBC9D4F366D6C772E6D83B DUP3 DUP5 PUSH1 0x40 MLOAD PUSH2 0x30AE SWAP3 SWAP2 SWAP1 PUSH2 0x44C3 JUMP JUMPDEST PUSH1 0x40 MLOAD DUP1 SWAP2 SUB SWAP1 LOG2 PUSH1 0x2 PUSH0 DUP5 PUSH20 0xFFFFFFFFFFFFFFFFFFFFFFFFFFFFFFFFFFFFFFFF AND PUSH20 0xFFFFFFFFFFFFFFFFFFFFFFFFFFFFFFFFFFFFFFFF AND DUP2 MSTORE PUSH1 0x20 ADD SWAP1 DUP2 MSTORE PUSH1 0x20 ADD PUSH0 KECCAK256 PUSH0 ADD PUSH0 SWAP1 SLOAD SWAP1 PUSH2 0x100 EXP SWAP1 DIV PUSH20 0xFFFFFFFFFFFFFFFFFFFFFFFFFFFFFFFFFFFFFFFF AND SWAP3 POP POP DUP1 DUP1 PUSH2 0x3123 SWAP1 PUSH2 0x4414 JUMP JUMPDEST SWAP2 POP POP PUSH2 0x2EAB JUMP JUMPDEST POP POP POP JUMP JUMPDEST PUSH1 0x40 MLOAD DUP1 PUSH2 0x120 ADD PUSH1 0x40 MSTORE DUP1 PUSH0 DUP2 MSTORE PUSH1 0x20 ADD PUSH0 PUSH20 0xFFFFFFFFFFFFFFFFFFFFFFFFFFFFFFFFFFFFFFFF AND DUP2 MSTORE PUSH1 0x20 ADD PUSH0 DUP2 MSTORE PUSH1 0x20 ADD PUSH0 DUP2 MSTORE PUSH1 0x20 ADD PUSH0 DUP2 MSTORE PUSH1 0x20 ADD PUSH0 DUP2 MSTORE PUSH1 0x20 ADD PUSH0 DUP2 MSTORE PUSH1 0x20 ADD PUSH0 ISZERO ISZERO DUP2 MSTORE PUSH1 0x20 ADD PUSH0 DUP2 MSTORE POP SWAP1 JUMP JUMPDEST PUSH0 DUP1 REVERT JUMPDEST PUSH0 DUP2 SWAP1 POP SWAP2 SWAP1 POP JUMP JUMPDEST PUSH2 0x31A1 DUP2 PUSH2 0x318F JUMP JUMPDEST DUP2 EQ PUSH2 0x31AB JUMPI PUSH0 DUP1 REVERT JUMPDEST POP JUMP JUMPDEST PUSH0 DUP2 CALLDATALOAD SWAP1 POP PUSH2 0x31BC DUP2 PUSH2 0x3198 JUMP JUMPDEST SWAP3 SWAP2 POP POP JUMP JUMPDEST PUSH0 PUSH1 0x20 DUP3 DUP5 SUB SLT ISZERO PUSH2 0x31D7 JUMPI PUSH2 0x31D6 PUSH2 0x318B JUMP JUMPDEST JUMPDEST PUSH0 PUSH2 0x31E4 DUP5 DUP3 DUP6 ADD PUSH2 0x31AE JUMP JUMPDEST SWAP2 POP POP SWAP3 SWAP2 POP POP JUMP JUMPDEST PUSH2 0x31F6 DUP2 PUSH2 0x318F JUMP JUMPDEST DUP3 MSTORE POP POP JUMP JUMPDEST PUSH0 PUSH1 0x20 DUP3 ADD SWAP1 POP PUSH2 0x320F PUSH0 DUP4 ADD DUP5 PUSH2 0x31ED JUMP JUMPDEST SWAP3 SWAP2 POP POP JUMP JUMPDEST PUSH0 PUSH20 0xFFFFFFFFFFFFFFFFFFFFFFFFFFFFFFFFFFFFFFFF DUP3 AND SWAP1 POP SWAP2 SWAP1 POP JUMP JUMPDEST PUSH0 PUSH2 0x323E DUP3 PUSH2 0x3215 JUMP JUMPDEST SWAP1 POP SWAP2 SWAP1 POP JUMP JUMPDEST PUSH2 0x324E DUP2 PUSH2 0x3234 JUMP JUMPDEST DUP2 EQ PUSH2 0x3258 JUMPI PUSH0 DUP1 REVERT JUMPDEST POP JUMP JUMPDEST PUSH0 DUP2 CALLDATALOAD SWAP1 POP PUSH2 0x3269 DUP2 PUSH2 0x3245 JUMP JUMPDEST SWAP3 SWAP2 POP POP JUMP JUMPDEST PUSH0 PUSH1 0x20 DUP3 DUP5 SUB SLT ISZERO PUSH2 0x3284 JUMPI PUSH2 0x3283 PUSH2 0x318B JUMP JUMPDEST JUMPDEST PUSH0 PUSH2 0x3291 DUP5 DUP3 DUP6 ADD PUSH2 0x325B JUMP JUMPDEST SWAP2 POP POP SWAP3 SWAP2 POP POP JUMP JUMPDEST PUSH0 DUP1 PUSH0 PUSH1 0x60 DUP5 DUP7 SUB SLT ISZERO PUSH2 0x32B1 JUMPI PUSH2 0x32B0 PUSH2 0x318B JUMP JUMPDEST JUMPDEST PUSH0 PUSH2 0x32BE DUP7 DUP3 DUP8 ADD PUSH2 0x31AE JUMP JUMPDEST SWAP4 POP POP PUSH1 0x20 PUSH2 0x32CF DUP7 DUP3 DUP8 ADD PUSH2 0x31AE JUMP JUMPDEST SWAP3 POP POP PUSH1 0x40 PUSH2 0x32E0 DUP7 DUP3 DUP8 ADD PUSH2 0x325B JUMP JUMPDEST SWAP2 POP POP SWAP3 POP SWAP3 POP SWAP3 JUMP JUMPDEST PUSH0 DUP1 PUSH1 0x40 DUP4 DUP6 SUB SLT ISZERO PUSH2 0x3300 JUMPI PUSH2 0x32FF PUSH2 0x318B JUMP JUMPDEST JUMPDEST PUSH0 PUSH2 0x330D DUP6 DUP3 DUP7 ADD PUSH2 0x31AE JUMP JUMPDEST SWAP3 POP POP PUSH1 0x20 PUSH2 0x331E DUP6 DUP3 DUP7 ADD PUSH2 0x31AE JUMP JUMPDEST SWAP2 POP POP SWAP3 POP SWAP3 SWAP1 POP JUMP JUMPDEST PUSH0 DUP2 MLOAD SWAP1 POP SWAP2 SWAP1 POP JUMP JUMPDEST PUSH0 DUP3 DUP3 MSTORE PUSH1 0x20 DUP3 ADD SWAP1 POP SWAP3 SWAP2 POP POP JUMP JUMPDEST PUSH0 DUP2 SWAP1 POP PUSH1 0x20 DUP3 ADD SWAP1 POP SWAP2 SWAP1 POP JUMP JUMPDEST PUSH2 0x335A DUP2 PUSH2 0x318F JUMP JUMPDEST DUP3 MSTORE POP POP JUMP JUMPDEST PUSH0 PUSH2 0x336B DUP4 DUP4 PUSH2 0x3351 JUMP JUMPDEST PUSH1 0x20 DUP4 ADD SWAP1 POP SWAP3 SWAP2 POP POP JUMP JUMPDEST PUSH0 PUSH1 0x20 DUP3 ADD SWAP1 POP SWAP2 SWAP1 POP JUMP JUMPDEST PUSH0 PUSH2 0x338D DUP3 PUSH2 0x3328 JUMP JUMPDEST PUSH2 0x3397 DUP2 DUP6 PUSH2 0x3332 JUMP JUMPDEST SWAP4 POP PUSH2 0x33A2 DUP4 PUSH2 0x3342 JUMP JUMPDEST DUP1 PUSH0 JUMPDEST DUP4 DUP2 LT ISZERO PUSH2 0x33D2 JUMPI DUP2 MLOAD PUSH2 0x33B9 DUP9 DUP3 PUSH2 0x3360 JUMP JUMPDEST SWAP8 POP PUSH2 0x33C4 DUP4 PUSH2 0x3377 JUMP JUMPDEST SWAP3 POP POP PUSH1 0x1 DUP2 ADD SWAP1 POP PUSH2 0x33A5 JUMP JUMPDEST POP DUP6 SWAP4 POP POP POP POP SWAP3 SWAP2 POP POP JUMP JUMPDEST PUSH0 PUSH1 0x20 DUP3 ADD SWAP1 POP DUP2 DUP2 SUB PUSH0 DUP4 ADD MSTORE PUSH2 0x33F7 DUP2 DUP5 PUSH2 0x3383 JUMP JUMPDEST SWAP1 POP SWAP3 SWAP2 POP POP JUMP JUMPDEST PUSH0 DUP1 PUSH1 0x40 DUP4 DUP6 SUB SLT ISZERO PUSH2 0x3415 JUMPI PUSH2 0x3414 PUSH2 0x318B JUMP JUMPDEST JUMPDEST PUSH0 PUSH2 0x3422 DUP6 DUP3 DUP7 ADD PUSH2 0x325B JUMP JUMPDEST SWAP3 POP POP PUSH1 0x20 PUSH2 0x3433 DUP6 DUP3 DUP7 ADD PUSH2 0x31AE JUMP JUMPDEST SWAP2 POP POP SWAP3 POP SWAP3 SWAP1 POP JUMP JUMPDEST PUSH2 0x3446 DUP2 PUSH2 0x3234 JUMP JUMPDEST DUP3 MSTORE POP POP JUMP JUMPDEST PUSH0 PUSH1 0x20 DUP3 ADD SWAP1 POP PUSH2 0x345F PUSH0 DUP4 ADD DUP5 PUSH2 0x343D JUMP JUMPDEST SWAP3 SWAP2 POP POP JUMP JUMPDEST PUSH0 DUP2 ISZERO ISZERO SWAP1 POP SWAP2 SWAP1 POP JUMP JUMPDEST PUSH2 0x3479 DUP2 PUSH2 0x3465 JUMP JUMPDEST DUP3 MSTORE POP POP JUMP JUMPDEST PUSH0 PUSH2 0x120 DUP3 ADD SWAP1 POP PUSH2 0x3493 PUSH0 DUP4 ADD DUP13 PUSH2 0x31ED JUMP JUMPDEST PUSH2 0x34A0 PUSH1 0x20 DUP4 ADD DUP12 PUSH2 0x343D JUMP JUMPDEST PUSH2 0x34AD PUSH1 0x40 DUP4 ADD DUP11 PUSH2 0x31ED JUMP JUMPDEST PUSH2 0x34BA PUSH1 0x60 DUP4 ADD DUP10 PUSH2 0x31ED JUMP JUMPDEST PUSH2 0x34C7 PUSH1 0x80 DUP4 ADD DUP9 PUSH2 0x31ED JUMP JUMPDEST PUSH2 0x34D4 PUSH1 0xA0 DUP4 ADD DUP8 PUSH2 0x31ED JUMP JUMPDEST PUSH2 0x34E1 PUSH1 0xC0 DUP4 ADD DUP7 PUSH2 0x31ED JUMP JUMPDEST PUSH2 0x34EE PUSH1 0xE0 DUP4 ADD DUP6 PUSH2 0x3470 JUMP JUMPDEST PUSH2 0x34FC PUSH2 0x100 DUP4 ADD DUP5 PUSH2 0x31ED JUMP JUMPDEST SWAP11 SWAP10 POP POP POP POP POP POP POP POP POP POP JUMP JUMPDEST PUSH0 DUP2 MLOAD SWAP1 POP SWAP2 SWAP1 POP JUMP JUMPDEST PUSH0 DUP3 DUP3 MSTORE PUSH1 0x20 DUP3 ADD SWAP1 POP SWAP3 SWAP2 POP POP JUMP JUMPDEST PUSH0 DUP2 SWAP1 POP PUSH1 0x20 DUP3 ADD SWAP1 POP SWAP2 SWAP1 POP JUMP JUMPDEST PUSH2 0x353C DUP2 PUSH2 0x3234 JUMP JUMPDEST DUP3 MSTORE POP POP JUMP JUMPDEST PUSH2 0x354B DUP2 PUSH2 0x3465 JUMP JUMPDEST DUP3 MSTORE POP POP JUMP JUMPDEST PUSH2 0x120 DUP3 ADD PUSH0 DUP3 ADD MLOAD PUSH2 0x3566 PUSH0 DUP6 ADD DUP3 PUSH2 0x3351 JUMP JUMPDEST POP PUSH1 0x20 DUP3 ADD MLOAD PUSH2 0x3579 PUSH1 0x20 DUP6 ADD DUP3 PUSH2 0x3533 JUMP JUMPDEST POP PUSH1 0x40 DUP3 ADD MLOAD PUSH2 0x358C PUSH1 0x40 DUP6 ADD DUP3 PUSH2 0x3351 JUMP JUMPDEST POP PUSH1 0x60 DUP3 ADD MLOAD PUSH2 0x359F PUSH1 0x60 DUP6 ADD DUP3 PUSH2 0x3351 JUMP JUMPDEST POP PUSH1 0x80 DUP3 ADD MLOAD PUSH2 0x35B2 PUSH1 0x80 DUP6 ADD DUP3 PUSH2 0x3351 JUMP JUMPDEST POP PUSH1 0xA0 DUP3 ADD MLOAD PUSH2 0x35C5 PUSH1 0xA0 DUP6 ADD DUP3 PUSH2 0x3351 JUMP JUMPDEST POP PUSH1 0xC0 DUP3 ADD MLOAD PUSH2 0x35D8 PUSH1 0xC0 DUP6 ADD DUP3 PUSH2 0x3351 JUMP JUMPDEST POP PUSH1 0xE0 DUP3 ADD MLOAD PUSH2 0x35EB PUSH1 0xE0 DUP6 ADD DUP3 PUSH2 0x3542 JUMP JUMPDEST POP PUSH2 0x100 DUP3 ADD MLOAD PUSH2 0x3600 PUSH2 0x100 DUP6 ADD DUP3 PUSH2 0x3351 JUMP JUMPDEST POP POP POP POP JUMP JUMPDEST PUSH0 PUSH2 0x3611 DUP4 DUP4 PUSH2 0x3551 JUMP JUMPDEST PUSH2 0x120 DUP4 ADD SWAP1 POP SWAP3 SWAP2 POP POP JUMP JUMPDEST PUSH0 PUSH1 0x20 DUP3 ADD SWAP1 POP SWAP2 SWAP1 POP JUMP JUMPDEST PUSH0 PUSH2 0x3634 DUP3 PUSH2 0x350A JUMP JUMPDEST PUSH2 0x363E DUP2 DUP6 PUSH2 0x3514 JUMP JUMPDEST SWAP4 POP PUSH2 0x3649 DUP4 PUSH2 0x3524 JUMP JUMPDEST DUP1 PUSH0 JUMPDEST DUP4 DUP2 LT ISZERO PUSH2 0x3679 JUMPI DUP2 MLOAD PUSH2 0x3660 DUP9 DUP3 PUSH2 0x3606 JUMP JUMPDEST SWAP8 POP PUSH2 0x366B DUP4 PUSH2 0x361E JUMP JUMPDEST SWAP3 POP POP PUSH1 0x1 DUP2 ADD SWAP1 POP PUSH2 0x364C JUMP JUMPDEST POP DUP6 SWAP4 POP POP POP POP SWAP3 SWAP2 POP POP JUMP JUMPDEST PUSH0 PUSH1 0x20 DUP3 ADD SWAP1 POP DUP2 DUP2 SUB PUSH0 DUP4 ADD MSTORE PUSH2 0x369E DUP2 DUP5 PUSH2 0x362A JUMP JUMPDEST SWAP1 POP SWAP3 SWAP2 POP POP JUMP JUMPDEST PUSH0 PUSH1 0xA0 DUP3 ADD SWAP1 POP PUSH2 0x36B9 PUSH0 DUP4 ADD DUP9 PUSH2 0x343D JUMP JUMPDEST PUSH2 0x36C6 PUSH1 0x20 DUP4 ADD DUP8 PUSH2 0x31ED JUMP JUMPDEST PUSH2 0x36D3 PUSH1 0x40 DUP4 ADD DUP7 PUSH2 0x31ED JUMP JUMPDEST PUSH2 0x36E0 PUSH1 0x60 DUP4 ADD DUP6 PUSH2 0x31ED JUMP JUMPDEST PUSH2 0x36ED PUSH1 0x80 DUP4 ADD DUP5 PUSH2 0x31ED JUMP JUMPDEST SWAP7 SWAP6 POP POP POP POP POP POP JUMP JUMPDEST PUSH2 0x120 DUP3 ADD PUSH0 DUP3 ADD MLOAD PUSH2 0x370C PUSH0 DUP6 ADD DUP3 PUSH2 0x3351 JUMP JUMPDEST POP PUSH1 0x20 DUP3 ADD MLOAD PUSH2 0x371F PUSH1 0x20 DUP6 ADD DUP3 PUSH2 0x3533 JUMP JUMPDEST POP PUSH1 0x40 DUP3 ADD MLOAD PUSH2 0x3732 PUSH1 0x40 DUP6 ADD DUP3 PUSH2 0x3351 JUMP JUMPDEST POP PUSH1 0x60 DUP3 ADD MLOAD PUSH2 0x3745 PUSH1 0x60 DUP6 ADD DUP3 PUSH2 0x3351 JUMP JUMPDEST POP PUSH1 0x80 DUP3 ADD MLOAD PUSH2 0x3758 PUSH1 0x80 DUP6 ADD DUP3 PUSH2 0x3351 JUMP JUMPDEST POP PUSH1 0xA0 DUP3 ADD MLOAD PUSH2 0x376B PUSH1 0xA0 DUP6 ADD DUP3 PUSH2 0x3351 JUMP JUMPDEST POP PUSH1 0xC0 DUP3 ADD MLOAD PUSH2 0x377E PUSH1 0xC0 DUP6 ADD DUP3 PUSH2 0x3351 JUMP JUMPDEST POP PUSH1 0xE0 DUP3 ADD MLOAD PUSH2 0x3791 PUSH1 0xE0 DUP6 ADD DUP3 PUSH2 0x3542 JUMP JUMPDEST POP PUSH2 0x100 DUP3 ADD MLOAD PUSH2 0x37A6 PUSH2 0x100 DUP6 ADD DUP3 PUSH2 0x3351 JUMP JUMPDEST POP POP POP POP JUMP JUMPDEST PUSH0 PUSH2 0x120 DUP3 ADD SWAP1 POP PUSH2 0x37C0 PUSH0 DUP4 ADD DUP5 PUSH2 0x36F7 JUMP JUMPDEST SWAP3 SWAP2 POP POP JUMP JUMPDEST PUSH0 DUP2 SWAP1 POP SWAP2 SWAP1 POP JUMP JUMPDEST PUSH0 PUSH2 0x37E9 PUSH2 0x37E4 PUSH2 0x37DF DUP5 PUSH2 0x3215 JUMP JUMPDEST PUSH2 0x37C6 JUMP JUMPDEST PUSH2 0x3215 JUMP JUMPDEST SWAP1 POP SWAP2 SWAP1 POP JUMP JUMPDEST PUSH0 PUSH2 0x37FA DUP3 PUSH2 0x37CF JUMP JUMPDEST SWAP1 POP SWAP2 SWAP1 POP JUMP JUMPDEST PUSH0 PUSH2 0x380B DUP3 PUSH2 0x37F0 JUMP JUMPDEST SWAP1 POP SWAP2 SWAP1 POP JUMP JUMPDEST PUSH2 0x381B DUP2 PUSH2 0x3801 JUMP JUMPDEST DUP3 MSTORE POP POP JUMP JUMPDEST PUSH0 PUSH1 0x20 DUP3 ADD SWAP1 POP PUSH2 0x3834 PUSH0 DUP4 ADD DUP5 PUSH2 0x3812 JUMP JUMPDEST SWAP3 SWAP2 POP POP JUMP JUMPDEST PUSH0 DUP3 DUP3 MSTORE PUSH1 0x20 DUP3 ADD SWAP1 POP SWAP3 SWAP2 POP POP JUMP JUMPDEST PUSH32 0x496E76616C696420706F736974696F6E20494400000000000000000000000000 PUSH0 DUP3 ADD MSTORE POP JUMP JUMPDEST PUSH0 PUSH2 0x387E PUSH1 0x13 DUP4 PUSH2 0x383A JUMP JUMPDEST SWAP2 POP PUSH2 0x3889 DUP3 PUSH2 0x384A JUMP JUMPDEST PUSH1 0x20 DUP3 ADD SWAP1 POP SWAP2 SWAP1 POP JUMP JUMPDEST PUSH0 PUSH1 0x20 DUP3 ADD SWAP1 POP DUP2 DUP2 SUB PUSH0 DUP4 ADD MSTORE PUSH2 0x38AB DUP2 PUSH2 0x3872 JUMP JUMPDEST SWAP1 POP SWAP2 SWAP1 POP JUMP JUMPDEST PUSH32 0x4E487B7100000000000000000000000000000000000000000000000000000000 PUSH0 MSTORE PUSH1 0x11 PUSH1 0x4 MSTORE PUSH1 0x24 PUSH0 REVERT JUMPDEST PUSH0 PUSH2 0x38E9 DUP3 PUSH2 0x318F JUMP JUMPDEST SWAP2 POP PUSH2 0x38F4 DUP4 PUSH2 0x318F JUMP JUMPDEST SWAP3 POP DUP3 DUP3 SUB SWAP1 POP DUP2 DUP2 GT ISZERO PUSH2 0x390C JUMPI PUSH2 0x390B PUSH2 0x38B2 JUMP JUMPDEST JUMPDEST SWAP3 SWAP2 POP POP JUMP JUMPDEST PUSH32 0x4E487B7100000000000000000000000000000000000000000000000000000000 PUSH0 MSTORE PUSH1 0x12 PUSH1 0x4 MSTORE PUSH1 0x24 PUSH0 REVERT JUMPDEST PUSH0 PUSH2 0x3949 DUP3 PUSH2 0x318F JUMP JUMPDEST SWAP2 POP PUSH2 0x3954 DUP4 PUSH2 0x318F JUMP JUMPDEST SWAP3 POP DUP3 PUSH2 0x3964 JUMPI PUSH2 0x3963 PUSH2 0x3912 JUMP JUMPDEST JUMPDEST DUP3 DUP3 DIV SWAP1 POP SWAP3 SWAP2 POP POP JUMP JUMPDEST PUSH32 0x506F736974696F6E20697320636C6F7365640000000000000000000000000000 PUSH0 DUP3 ADD MSTORE POP JUMP JUMPDEST PUSH0 PUSH2 0x39A3 PUSH1 0x12 DUP4 PUSH2 0x383A JUMP JUMPDEST SWAP2 POP PUSH2 0x39AE DUP3 PUSH2 0x396F JUMP JUMPDEST PUSH1 0x20 DUP3 ADD SWAP1 POP SWAP2 SWAP1 POP JUMP JUMPDEST PUSH0 PUSH1 0x20 DUP3 ADD SWAP1 POP DUP2 DUP2 SUB PUSH0 DUP4 ADD MSTORE PUSH2 0x39D0 DUP2 PUSH2 0x3997 JUMP JUMPDEST SWAP1 POP SWAP2 SWAP1 POP JUMP JUMPDEST PUSH32 0x4F6E6C7920706F736974696F6E206F776E65722063616E20636C61696D20696E PUSH0 DUP3 ADD MSTORE PUSH32 0x7465726573740000000000000000000000000000000000000000000000000000 PUSH1 0x20 DUP3 ADD MSTORE POP JUMP JUMPDEST PUSH0 PUSH2 0x3A31 PUSH1 0x26 DUP4 PUSH2 0x383A JUMP JUMPDEST SWAP2 POP PUSH2 0x3A3C DUP3 PUSH2 0x39D7 JUMP JUMPDEST PUSH1 0x40 DUP3 ADD SWAP1 POP SWAP2 SWAP1 POP JUMP JUMPDEST PUSH0 PUSH1 0x20 DUP3 ADD SWAP1 POP DUP2 DUP2 SUB PUSH0 DUP4 ADD MSTORE PUSH2 0x3A5E DUP2 PUSH2 0x3A25 JUMP JUMPDEST SWAP1 POP SWAP2 SWAP1 POP JUMP JUMPDEST PUSH32 0x4461696C7920696E7465726573742063616E206F6E6C7920626520636C61696D PUSH0 DUP3 ADD MSTORE PUSH32 0x656420666F7220313030302D646179206C6F636B20706572696F640000000000 PUSH1 0x20 DUP3 ADD MSTORE POP JUMP JUMPDEST PUSH0 PUSH2 0x3ABF PUSH1 0x3B DUP4 PUSH2 0x383A JUMP JUMPDEST SWAP2 POP PUSH2 0x3ACA DUP3 PUSH2 0x3A65 JUMP JUMPDEST PUSH1 0x40 DUP3 ADD SWAP1 POP SWAP2 SWAP1 POP JUMP JUMPDEST PUSH0 PUSH1 0x20 DUP3 ADD SWAP1 POP DUP2 DUP2 SUB PUSH0 DUP4 ADD MSTORE PUSH2 0x3AEC DUP2 PUSH2 0x3AB3 JUMP JUMPDEST SWAP1 POP SWAP2 SWAP1 POP JUMP JUMPDEST PUSH32 0x43616E206F6E6C7920636C61696D20696E746572657374206F6E636520706572 PUSH0 DUP3 ADD MSTORE PUSH32 0x2064617900000000000000000000000000000000000000000000000000000000 PUSH1 0x20 DUP3 ADD MSTORE POP JUMP JUMPDEST PUSH0 PUSH2 0x3B4D PUSH1 0x24 DUP4 PUSH2 0x383A JUMP JUMPDEST SWAP2 POP PUSH2 0x3B58 DUP3 PUSH2 0x3AF3 JUMP JUMPDEST PUSH1 0x40 DUP3 ADD SWAP1 POP SWAP2 SWAP1 POP JUMP JUMPDEST PUSH0 PUSH1 0x20 DUP3 ADD SWAP1 POP DUP2 DUP2 SUB PUSH0 DUP4 ADD MSTORE PUSH2 0x3B7A DUP2 PUSH2 0x3B41 JUMP JUMPDEST SWAP1 POP SWAP2 SWAP1 POP JUMP JUMPDEST PUSH0 PUSH2 0x3B8B DUP3 PUSH2 0x318F JUMP JUMPDEST SWAP2 POP PUSH2 0x3B96 DUP4 PUSH2 0x318F JUMP JUMPDEST SWAP3 POP DUP3 DUP3 MUL PUSH2 0x3BA4 DUP2 PUSH2 0x318F JUMP JUMPDEST SWAP2 POP DUP3 DUP3 DIV DUP5 EQ DUP4 ISZERO OR PUSH2 0x3BBB JUMPI PUSH2 0x3BBA PUSH2 0x38B2 JUMP JUMPDEST JUMPDEST POP SWAP3 SWAP2 POP POP JUMP JUMPDEST PUSH0 PUSH1 0x40 DUP3 ADD SWAP1 POP PUSH2 0x3BD5 PUSH0 DUP4 ADD DUP6 PUSH2 0x343D JUMP JUMPDEST PUSH2 0x3BE2 PUSH1 0x20 DUP4 ADD DUP5 PUSH2 0x31ED JUMP JUMPDEST SWAP4 SWAP3 POP POP POP JUMP JUMPDEST PUSH2 0x3BF2 DUP2 PUSH2 0x3465 JUMP JUMPDEST DUP2 EQ PUSH2 0x3BFC JUMPI PUSH0 DUP1 REVERT JUMPDEST POP JUMP JUMPDEST PUSH0 DUP2 MLOAD SWAP1 POP PUSH2 0x3C0D DUP2 PUSH2 0x3BE9 JUMP JUMPDEST SWAP3 SWAP2 POP POP JUMP JUMPDEST PUSH0 PUSH1 0x20 DUP3 DUP5 SUB SLT ISZERO PUSH2 0x3C28 JUMPI PUSH2 0x3C27 PUSH2 0x318B JUMP JUMPDEST JUMPDEST PUSH0 PUSH2 0x3C35 DUP5 DUP3 DUP6 ADD PUSH2 0x3BFF JUMP JUMPDEST SWAP2 POP POP SWAP3 SWAP2 POP POP JUMP JUMPDEST PUSH32 0x496E746572657374207472616E73666572206661696C65640000000000000000 PUSH0 DUP3 ADD MSTORE POP JUMP JUMPDEST PUSH0 PUSH2 0x3C72 PUSH1 0x18 DUP4 PUSH2 0x383A JUMP JUMPDEST SWAP2 POP PUSH2 0x3C7D DUP3 PUSH2 0x3C3E JUMP JUMPDEST PUSH1 0x20 DUP3 ADD SWAP1 POP SWAP2 SWAP1 POP JUMP JUMPDEST PUSH0 PUSH1 0x20 DUP3 ADD SWAP1 POP DUP2 DUP2 SUB PUSH0 DUP4 ADD MSTORE PUSH2 0x3C9F DUP2 PUSH2 0x3C66 JUMP JUMPDEST SWAP1 POP SWAP2 SWAP1 POP JUMP JUMPDEST PUSH32 0x4E6F2064697265637420726566657272616C20696E636F6D6520746F20636C61 PUSH0 DUP3 ADD MSTORE PUSH32 0x696D000000000000000000000000000000000000000000000000000000000000 PUSH1 0x20 DUP3 ADD MSTORE POP JUMP JUMPDEST PUSH0 PUSH2 0x3D00 PUSH1 0x22 DUP4 PUSH2 0x383A JUMP JUMPDEST SWAP2 POP PUSH2 0x3D0B DUP3 PUSH2 0x3CA6 JUMP JUMPDEST PUSH1 0x40 DUP3 ADD SWAP1 POP SWAP2 SWAP1 POP JUMP JUMPDEST PUSH0 PUSH1 0x20 DUP3 ADD SWAP1 POP DUP2 DUP2 SUB PUSH0 DUP4 ADD MSTORE PUSH2 0x3D2D DUP2 PUSH2 0x3CF4 JUMP JUMPDEST SWAP1 POP SWAP2 SWAP1 POP JUMP JUMPDEST PUSH32 0x44697265637420726566657272616C20696E636F6D65207472616E7366657220 PUSH0 DUP3 ADD MSTORE PUSH32 0x6661696C65640000000000000000000000000000000000000000000000000000 PUSH1 0x20 DUP3 ADD MSTORE POP JUMP JUMPDEST PUSH0 PUSH2 0x3D8E PUSH1 0x26 DUP4 PUSH2 0x383A JUMP JUMPDEST SWAP2 POP PUSH2 0x3D99 DUP3 PUSH2 0x3D34 JUMP JUMPDEST PUSH1 0x40 DUP3 ADD SWAP1 POP SWAP2 SWAP1 POP JUMP JUMPDEST PUSH0 PUSH1 0x20 DUP3 ADD SWAP1 POP DUP2 DUP2 SUB PUSH0 DUP4 ADD MSTORE PUSH2 0x3DBB DUP2 PUSH2 0x3D82 JUMP JUMPDEST SWAP1 POP SWAP2 SWAP1 POP JUMP JUMPDEST PUSH32 0x4F6E6C7920746865206F776E65722063616E2063616C6C20746869732066756E PUSH0 DUP3 ADD MSTORE PUSH32 0x6374696F6E000000000000000000000000000000000000000000000000000000 PUSH1 0x20 DUP3 ADD MSTORE POP JUMP JUMPDEST PUSH0 PUSH2 0x3E1C PUSH1 0x25 DUP4 PUSH2 0x383A JUMP JUMPDEST SWAP2 POP PUSH2 0x3E27 DUP3 PUSH2 0x3DC2 JUMP JUMPDEST PUSH1 0x40 DUP3 ADD SWAP1 POP SWAP2 SWAP1 POP JUMP JUMPDEST PUSH0 PUSH1 0x20 DUP3 ADD SWAP1 POP DUP2 DUP2 SUB PUSH0 DUP4 ADD MSTORE PUSH2 0x3E49 DUP2 PUSH2 0x3E10 JUMP JUMPDEST SWAP1 POP SWAP2 SWAP1 POP JUMP JUMPDEST PUSH0 DUP2 MLOAD SWAP1 POP PUSH2 0x3E5E DUP2 PUSH2 0x3198 JUMP JUMPDEST SWAP3 SWAP2 POP POP JUMP JUMPDEST PUSH0 PUSH1 0x20 DUP3 DUP5 SUB SLT ISZERO PUSH2 0x3E79 JUMPI PUSH2 0x3E78 PUSH2 0x318B JUMP JUMPDEST JUMPDEST PUSH0 PUSH2 0x3E86 DUP5 DUP3 DUP6 ADD PUSH2 0x3E50 JUMP JUMPDEST SWAP2 POP POP SWAP3 SWAP2 POP POP JUMP JUMPDEST PUSH32 0x4E6F20746F6B656E7320746F2077697468647261770000000000000000000000 PUSH0 DUP3 ADD MSTORE POP JUMP JUMPDEST PUSH0 PUSH2 0x3EC3 PUSH1 0x15 DUP4 PUSH2 0x383A JUMP JUMPDEST SWAP2 POP PUSH2 0x3ECE DUP3 PUSH2 0x3E8F JUMP JUMPDEST PUSH1 0x20 DUP3 ADD SWAP1 POP SWAP2 SWAP1 POP JUMP JUMPDEST PUSH0 PUSH1 0x20 DUP3 ADD SWAP1 POP DUP2 DUP2 SUB PUSH0 DUP4 ADD MSTORE PUSH2 0x3EF0 DUP2 PUSH2 0x3EB7 JUMP JUMPDEST SWAP1 POP SWAP2 SWAP1 POP JUMP JUMPDEST PUSH32 0x546F6B656E207472616E73666572206661696C65640000000000000000000000 PUSH0 DUP3 ADD MSTORE POP JUMP JUMPDEST PUSH0 PUSH2 0x3F2B PUSH1 0x15 DUP4 PUSH2 0x383A JUMP JUMPDEST SWAP2 POP PUSH2 0x3F36 DUP3 PUSH2 0x3EF7 JUMP JUMPDEST PUSH1 0x20 DUP3 ADD SWAP1 POP SWAP2 SWAP1 POP JUMP JUMPDEST PUSH0 PUSH1 0x20 DUP3 ADD SWAP1 POP DUP2 DUP2 SUB PUSH0 DUP4 ADD MSTORE PUSH2 0x3F58 DUP2 PUSH2 0x3F1F JUMP JUMPDEST SWAP1 POP SWAP2 SWAP1 POP JUMP JUMPDEST PUSH32 0x506F736974696F6E20697320616C726561647920636C6F736564000000000000 PUSH0 DUP3 ADD MSTORE POP JUMP JUMPDEST PUSH0 PUSH2 0x3F93 PUSH1 0x1A DUP4 PUSH2 0x383A JUMP JUMPDEST SWAP2 POP PUSH2 0x3F9E DUP3 PUSH2 0x3F5F JUMP JUMPDEST PUSH1 0x20 DUP3 ADD SWAP1 POP SWAP2 SWAP1 POP JUMP JUMPDEST PUSH0 PUSH1 0x20 DUP3 ADD SWAP1 POP DUP2 DUP2 SUB PUSH0 DUP4 ADD MSTORE PUSH2 0x3FC0 DUP2 PUSH2 0x3F87 JUMP JUMPDEST SWAP1 POP SWAP2 SWAP1 POP JUMP JUMPDEST PUSH32 0x556E617574686F72697A65640000000000000000000000000000000000000000 PUSH0 DUP3 ADD MSTORE POP JUMP JUMPDEST PUSH0 PUSH2 0x3FFB PUSH1 0xC DUP4 PUSH2 0x383A JUMP JUMPDEST SWAP2 POP PUSH2 0x4006 DUP3 PUSH2 0x3FC7 JUMP JUMPDEST PUSH1 0x20 DUP3 ADD SWAP1 POP SWAP2 SWAP1 POP JUMP JUMPDEST PUSH0 PUSH1 0x20 DUP3 ADD SWAP1 POP DUP2 DUP2 SUB PUSH0 DUP4 ADD MSTORE PUSH2 0x4028 DUP2 PUSH2 0x3FEF JUMP JUMPDEST SWAP1 POP SWAP2 SWAP1 POP JUMP JUMPDEST PUSH32 0x556E6C6F636B2064617465206E6F742072656163686564000000000000000000 PUSH0 DUP3 ADD MSTORE POP JUMP JUMPDEST PUSH0 PUSH2 0x4063 PUSH1 0x17 DUP4 PUSH2 0x383A JUMP JUMPDEST SWAP2 POP PUSH2 0x406E DUP3 PUSH2 0x402F JUMP JUMPDEST PUSH1 0x20 DUP3 ADD SWAP1 POP SWAP2 SWAP1 POP JUMP JUMPDEST PUSH0 PUSH1 0x20 DUP3 ADD SWAP1 POP DUP2 DUP2 SUB PUSH0 DUP4 ADD MSTORE PUSH2 0x4090 DUP2 PUSH2 0x4057 JUMP JUMPDEST SWAP1 POP SWAP2 SWAP1 POP JUMP JUMPDEST PUSH32 0x4E487B7100000000000000000000000000000000000000000000000000000000 PUSH0 MSTORE PUSH1 0x41 PUSH1 0x4 MSTORE PUSH1 0x24 PUSH0 REVERT JUMPDEST PUSH32 0x4E487B7100000000000000000000000000000000000000000000000000000000 PUSH0 MSTORE PUSH1 0x32 PUSH1 0x4 MSTORE PUSH1 0x24 PUSH0 REVERT JUMPDEST PUSH32 0x4F6E6C79206F776E6572206D6179206D6F64696679207374616B696E67207065 PUSH0 DUP3 ADD MSTORE PUSH32 0x72696F6473000000000000000000000000000000000000000000000000000000 PUSH1 0x20 DUP3 ADD MSTORE POP JUMP JUMPDEST PUSH0 PUSH2 0x414B PUSH1 0x25 DUP4 PUSH2 0x383A JUMP JUMPDEST SWAP2 POP PUSH2 0x4156 DUP3 PUSH2 0x40F1 JUMP JUMPDEST PUSH1 0x40 DUP3 ADD SWAP1 POP SWAP2 SWAP1 POP JUMP JUMPDEST PUSH0 PUSH1 0x20 DUP3 ADD SWAP1 POP DUP2 DUP2 SUB PUSH0 DUP4 ADD MSTORE PUSH2 0x4178 DUP2 PUSH2 0x413F JUMP JUMPDEST SWAP1 POP SWAP2 SWAP1 POP JUMP JUMPDEST PUSH32 0x4F6E6C7920706F736974696F6E2063726561746F72206D6179206D6F64696679 PUSH0 DUP3 ADD MSTORE PUSH32 0x20706F736974696F6E0000000000000000000000000000000000000000000000 PUSH1 0x20 DUP3 ADD MSTORE POP JUMP JUMPDEST PUSH0 PUSH2 0x41D9 PUSH1 0x29 DUP4 PUSH2 0x383A JUMP JUMPDEST SWAP2 POP PUSH2 0x41E4 DUP3 PUSH2 0x417F JUMP JUMPDEST PUSH1 0x40 DUP3 ADD SWAP1 POP SWAP2 SWAP1 POP JUMP JUMPDEST PUSH0 PUSH1 0x20 DUP3 ADD SWAP1 POP DUP2 DUP2 SUB PUSH0 DUP4 ADD MSTORE PUSH2 0x4206 DUP2 PUSH2 0x41CD JUMP JUMPDEST SWAP1 POP SWAP2 SWAP1 POP JUMP JUMPDEST PUSH32 0x456D657267656E637920636C6F7365206F6E6C7920616C6C6F77656420666F72 PUSH0 DUP3 ADD MSTORE PUSH32 0x203830302D646179206C6F636B20706572696F64000000000000000000000000 PUSH1 0x20 DUP3 ADD MSTORE POP JUMP JUMPDEST PUSH0 PUSH2 0x4267 PUSH1 0x34 DUP4 PUSH2 0x383A JUMP JUMPDEST SWAP2 POP PUSH2 0x4272 DUP3 PUSH2 0x420D JUMP JUMPDEST PUSH1 0x40 DUP3 ADD SWAP1 POP SWAP2 SWAP1 POP JUMP JUMPDEST PUSH0 PUSH1 0x20 DUP3 ADD SWAP1 POP DUP2 DUP2 SUB PUSH0 DUP4 ADD MSTORE PUSH2 0x4294 DUP2 PUSH2 0x425B JUMP JUMPDEST SWAP1 POP SWAP2 SWAP1 POP JUMP JUMPDEST PUSH0 PUSH2 0x42A5 DUP3 PUSH2 0x318F JUMP JUMPDEST SWAP2 POP PUSH2 0x42B0 DUP4 PUSH2 0x318F JUMP JUMPDEST SWAP3 POP DUP3 DUP3 ADD SWAP1 POP DUP1 DUP3 GT ISZERO PUSH2 0x42C8 JUMPI PUSH2 0x42C7 PUSH2 0x38B2 JUMP JUMPDEST JUMPDEST SWAP3 SWAP2 POP POP JUMP JUMPDEST PUSH0 DUP2 SWAP1 POP SWAP3 SWAP2 POP POP JUMP JUMPDEST POP JUMP JUMPDEST PUSH0 PUSH2 0x42E6 PUSH0 DUP4 PUSH2 0x42CE JUMP JUMPDEST SWAP2 POP PUSH2 0x42F1 DUP3 PUSH2 0x42D8 JUMP JUMPDEST PUSH0 DUP3 ADD SWAP1 POP SWAP2 SWAP1 POP JUMP JUMPDEST PUSH0 PUSH2 0x4305 DUP3 PUSH2 0x42DB JUMP JUMPDEST SWAP2 POP DUP2 SWAP1 POP SWAP2 SWAP1 POP JUMP JUMPDEST PUSH32 0x4C6F636B20706572696F64206E6F7420666F756E640000000000000000000000 PUSH0 DUP3 ADD MSTORE POP JUMP JUMPDEST PUSH0 PUSH2 0x4343 PUSH1 0x15 DUP4 PUSH2 0x383A JUMP JUMPDEST SWAP2 POP PUSH2 0x434E DUP3 PUSH2 0x430F JUMP JUMPDEST PUSH1 0x20 DUP3 ADD SWAP1 POP SWAP2 SWAP1 POP JUMP JUMPDEST PUSH0 PUSH1 0x20 DUP3 ADD SWAP1 POP DUP2 DUP2 SUB PUSH0 DUP4 ADD MSTORE PUSH2 0x4370 DUP2 PUSH2 0x4337 JUMP JUMPDEST SWAP1 POP SWAP2 SWAP1 POP JUMP JUMPDEST PUSH32 0x4D617070696E67206E6F7420666F756E64000000000000000000000000000000 PUSH0 DUP3 ADD MSTORE POP JUMP JUMPDEST PUSH0 PUSH2 0x43AB PUSH1 0x11 DUP4 PUSH2 0x383A JUMP JUMPDEST SWAP2 POP PUSH2 0x43B6 DUP3 PUSH2 0x4377 JUMP JUMPDEST PUSH1 0x20 DUP3 ADD SWAP1 POP SWAP2 SWAP1 POP JUMP JUMPDEST PUSH0 PUSH1 0x20 DUP3 ADD SWAP1 POP DUP2 DUP2 SUB PUSH0 DUP4 ADD MSTORE PUSH2 0x43D8 DUP2 PUSH2 0x439F JUMP JUMPDEST SWAP1 POP SWAP2 SWAP1 POP JUMP JUMPDEST PUSH0 PUSH1 0x60 DUP3 ADD SWAP1 POP PUSH2 0x43F2 PUSH0 DUP4 ADD DUP7 PUSH2 0x343D JUMP JUMPDEST PUSH2 0x43FF PUSH1 0x20 DUP4 ADD DUP6 PUSH2 0x343D JUMP JUMPDEST PUSH2 0x440C PUSH1 0x40 DUP4 ADD DUP5 PUSH2 0x31ED JUMP JUMPDEST SWAP5 SWAP4 POP POP POP POP JUMP JUMPDEST PUSH0 PUSH2 0x441E DUP3 PUSH2 0x318F JUMP JUMPDEST SWAP2 POP PUSH32 0xFFFFFFFFFFFFFFFFFFFFFFFFFFFFFFFFFFFFFFFFFFFFFFFFFFFFFFFFFFFFFFFF DUP3 SUB PUSH2 0x4450 JUMPI PUSH2 0x444F PUSH2 0x38B2 JUMP JUMPDEST JUMPDEST PUSH1 0x1 DUP3 ADD SWAP1 POP SWAP2 SWAP1 POP JUMP JUMPDEST PUSH32 0x496E636F6D65207472616E73666572206661696C656400000000000000000000 PUSH0 DUP3 ADD MSTORE POP JUMP JUMPDEST PUSH0 PUSH2 0x448F PUSH1 0x16 DUP4 PUSH2 0x383A JUMP JUMPDEST SWAP2 POP PUSH2 0x449A DUP3 PUSH2 0x445B JUMP JUMPDEST PUSH1 0x20 DUP3 ADD SWAP1 POP SWAP2 SWAP1 POP JUMP JUMPDEST PUSH0 PUSH1 0x20 DUP3 ADD SWAP1 POP DUP2 DUP2 SUB PUSH0 DUP4 ADD MSTORE PUSH2 0x44BC DUP2 PUSH2 0x4483 JUMP JUMPDEST SWAP1 POP SWAP2 SWAP1 POP JUMP JUMPDEST PUSH0 PUSH1 0x40 DUP3 ADD SWAP1 POP PUSH2 0x44D6 PUSH0 DUP4 ADD DUP6 PUSH2 0x31ED JUMP JUMPDEST PUSH2 0x44E3 PUSH1 0x20 DUP4 ADD DUP5 PUSH2 0x31ED JUMP JUMPDEST SWAP4 SWAP3 POP POP POP JUMP INVALID LOG2 PUSH5 0x6970667358 0x22 SLT KECCAK256 0xCD PUSH3 0xE7BF0C CALLDATASIZE PUSH10 0x75922C03CC1B90850323 0xE5 PUSH6 0x61C384E82CCD 0xB1 DUP1 SWAP6 0x29 SWAP2 PUSH20 0x2364736F6C634300081900330000000000000000 "
				},
				"gasEstimates": {
					"creation": {
						"codeDepositCost": "3539200",
						"executionCost": "infinite",
						"totalCost": "infinite"
					},
					"external": {
						"calculateDailyInterest(uint256)": "infinite",
						"changeUnlockDate(uint256,uint256)": "infinite",
						"claimDailyInterest(uint256)": "infinite",
						"claimDirectReferralIncome()": "infinite",
						"closePosition(uint256)": "infinite",
						"contractBalance()": "infinite",
						"currentLevel()": "2493",
						"currentPositionId()": "2516",
						"directReferralCount(address)": "2847",
						"directReferralIncome(address)": "2912",
						"emergencyClosePosition(uint256)": "infinite",
						"getDaysUntilUnlock(uint256)": "infinite",
						"getDirectReferralIncome(address)": "2946",
						"getInterestRate(uint256)": "infinite",
						"getLockPeriods()": "infinite",
						"getPositionById(uint256)": "infinite",
						"getPositionHistoryForAddress(address)": "infinite",
						"getPositionIdsForAddress(address)": "infinite",
						"getTotalReferrals(address)": "2948",
						"getUserLevel(address)": "2903",
						"getUserStakeDays(uint256)": "infinite",
						"levelIncome(uint256)": "infinite",
						"lockPeriods(uint256)": "infinite",
						"modifyLockPeriods(uint256,uint256)": "infinite",
						"nextUserId()": "2537",
						"owner()": "2638",
						"positionHistoryByAddress(address,uint256)": "infinite",
						"positionIdsByAddress(address,uint256)": "infinite",
						"positions(uint256)": "infinite",
						"stakeToken(uint256,uint256,address)": "infinite",
						"staketoken(uint256,uint256)": "infinite",
						"tiers(uint256)": "infinite",
						"token()": "infinite",
						"users(address)": "infinite",
						"withdrawAll()": "infinite"
					},
					"internal": {
						"_stakeToken(uint256,uint256,address)": "infinite",
						"calculateInterest(uint256,uint256,uint256)": "infinite",
						"distributeIncome(address)": "infinite"
					}
				},
				"methodIdentifiers": {
					"calculateDailyInterest(uint256)": "d7406f5c",
					"changeUnlockDate(uint256,uint256)": "c7c9d055",
					"claimDailyInterest(uint256)": "591d8fea",
					"claimDirectReferralIncome()": "5bffa8ff",
					"closePosition(uint256)": "a126d601",
					"contractBalance()": "8b7afe2e",
					"currentLevel()": "9dc4b9c9",
					"currentPositionId()": "1131c8cd",
					"directReferralCount(address)": "b77b7dc9",
					"directReferralIncome(address)": "f6e88873",
					"emergencyClosePosition(uint256)": "d21b7abf",
					"getDaysUntilUnlock(uint256)": "bc259107",
					"getDirectReferralIncome(address)": "aa7ed462",
					"getInterestRate(uint256)": "0c196a74",
					"getLockPeriods()": "41ee13be",
					"getPositionById(uint256)": "b838ec86",
					"getPositionHistoryForAddress(address)": "a567ac2e",
					"getPositionIdsForAddress(address)": "40d98a44",
					"getTotalReferrals(address)": "1271fde0",
					"getUserLevel(address)": "21923bde",
					"getUserStakeDays(uint256)": "1df9758b",
					"levelIncome(uint256)": "f59a843a",
					"lockPeriods(uint256)": "4c8f2a78",
					"modifyLockPeriods(uint256,uint256)": "b0f0475b",
					"nextUserId()": "a1e6a255",
					"owner()": "8da5cb5b",
					"positionHistoryByAddress(address,uint256)": "a54586f8",
					"positionIdsByAddress(address,uint256)": "45eae373",
					"positions(uint256)": "99fbab88",
					"stakeToken(uint256,uint256,address)": "23e252f4",
					"staketoken(uint256,uint256)": "2ad53440",
					"tiers(uint256)": "039af9eb",
					"token()": "fc0c546a",
					"users(address)": "a87430ba",
					"withdrawAll()": "853828b6"
				}
			},
			"storageLayout": {
				"storage": [
					{
						"astId": 31,
						"contract": "contracts/artifacts/stake.sol:StakingGame",
						"label": "owner",
						"offset": 0,
						"slot": "0",
						"type": "t_address"
					},
					{
						"astId": 34,
						"contract": "contracts/artifacts/stake.sol:StakingGame",
						"label": "token",
						"offset": 0,
						"slot": "1",
						"type": "t_contract(IERC20)29"
					},
					{
						"astId": 69,
						"contract": "contracts/artifacts/stake.sol:StakingGame",
						"label": "users",
						"offset": 0,
						"slot": "2",
						"type": "t_mapping(t_address,t_struct(User)64_storage)"
					},
					{
						"astId": 71,
						"contract": "contracts/artifacts/stake.sol:StakingGame",
						"label": "currentPositionId",
						"offset": 0,
						"slot": "3",
						"type": "t_uint256"
					},
					{
						"astId": 73,
						"contract": "contracts/artifacts/stake.sol:StakingGame",
						"label": "currentLevel",
						"offset": 0,
						"slot": "4",
						"type": "t_uint256"
					},
					{
						"astId": 79,
						"contract": "contracts/artifacts/stake.sol:StakingGame",
						"label": "positionHistoryByAddress",
						"offset": 0,
						"slot": "5",
						"type": "t_mapping(t_address,t_array(t_struct(Position)53_storage)dyn_storage)"
					},
					{
						"astId": 84,
						"contract": "contracts/artifacts/stake.sol:StakingGame",
						"label": "positions",
						"offset": 0,
						"slot": "6",
						"type": "t_mapping(t_uint256,t_struct(Position)53_storage)"
					},
					{
						"astId": 93,
						"contract": "contracts/artifacts/stake.sol:StakingGame",
						"label": "positionIdsByAddress",
						"offset": 0,
						"slot": "7",
						"type": "t_mapping(t_address,t_array(t_uint256)dyn_storage)"
					},
					{
						"astId": 97,
						"contract": "contracts/artifacts/stake.sol:StakingGame",
						"label": "tiers",
						"offset": 0,
						"slot": "8",
						"type": "t_mapping(t_uint256,t_uint256)"
					},
					{
						"astId": 124,
						"contract": "contracts/artifacts/stake.sol:StakingGame",
						"label": "nextUserId",
						"offset": 0,
						"slot": "9",
						"type": "t_uint256"
					},
					{
						"astId": 127,
						"contract": "contracts/artifacts/stake.sol:StakingGame",
						"label": "lockPeriods",
						"offset": 0,
						"slot": "10",
						"type": "t_array(t_uint256)dyn_storage"
					},
					{
						"astId": 131,
						"contract": "contracts/artifacts/stake.sol:StakingGame",
						"label": "directReferralCount",
						"offset": 0,
						"slot": "11",
						"type": "t_mapping(t_address,t_uint256)"
					},
					{
						"astId": 135,
						"contract": "contracts/artifacts/stake.sol:StakingGame",
						"label": "directReferralIncome",
						"offset": 0,
						"slot": "12",
						"type": "t_mapping(t_address,t_uint256)"
					},
					{
						"astId": 139,
						"contract": "contracts/artifacts/stake.sol:StakingGame",
						"label": "levelIncome",
						"offset": 0,
						"slot": "13",
						"type": "t_mapping(t_uint256,t_uint256)"
					}
				],
				"types": {
					"t_address": {
						"encoding": "inplace",
						"label": "address",
						"numberOfBytes": "20"
					},
					"t_array(t_struct(Position)53_storage)dyn_storage": {
						"base": "t_struct(Position)53_storage",
						"encoding": "dynamic_array",
						"label": "struct StakingGame.Position[]",
						"numberOfBytes": "32"
					},
					"t_array(t_uint256)dyn_storage": {
						"base": "t_uint256",
						"encoding": "dynamic_array",
						"label": "uint256[]",
						"numberOfBytes": "32"
					},
					"t_bool": {
						"encoding": "inplace",
						"label": "bool",
						"numberOfBytes": "1"
					},
					"t_contract(IERC20)29": {
						"encoding": "inplace",
						"label": "contract IERC20",
						"numberOfBytes": "20"
					},
					"t_mapping(t_address,t_array(t_struct(Position)53_storage)dyn_storage)": {
						"encoding": "mapping",
						"key": "t_address",
						"label": "mapping(address => struct StakingGame.Position[])",
						"numberOfBytes": "32",
						"value": "t_array(t_struct(Position)53_storage)dyn_storage"
					},
					"t_mapping(t_address,t_array(t_uint256)dyn_storage)": {
						"encoding": "mapping",
						"key": "t_address",
						"label": "mapping(address => uint256[])",
						"numberOfBytes": "32",
						"value": "t_array(t_uint256)dyn_storage"
					},
					"t_mapping(t_address,t_struct(User)64_storage)": {
						"encoding": "mapping",
						"key": "t_address",
						"label": "mapping(address => struct StakingGame.User)",
						"numberOfBytes": "32",
						"value": "t_struct(User)64_storage"
					},
					"t_mapping(t_address,t_uint256)": {
						"encoding": "mapping",
						"key": "t_address",
						"label": "mapping(address => uint256)",
						"numberOfBytes": "32",
						"value": "t_uint256"
					},
					"t_mapping(t_uint256,t_struct(Position)53_storage)": {
						"encoding": "mapping",
						"key": "t_uint256",
						"label": "mapping(uint256 => struct StakingGame.Position)",
						"numberOfBytes": "32",
						"value": "t_struct(Position)53_storage"
					},
					"t_mapping(t_uint256,t_uint256)": {
						"encoding": "mapping",
						"key": "t_uint256",
						"label": "mapping(uint256 => uint256)",
						"numberOfBytes": "32",
						"value": "t_uint256"
					},
					"t_struct(Position)53_storage": {
						"encoding": "inplace",
						"label": "struct StakingGame.Position",
						"members": [
							{
								"astId": 36,
								"contract": "contracts/artifacts/stake.sol:StakingGame",
								"label": "positionId",
								"offset": 0,
								"slot": "0",
								"type": "t_uint256"
							},
							{
								"astId": 38,
								"contract": "contracts/artifacts/stake.sol:StakingGame",
								"label": "walletAddress",
								"offset": 0,
								"slot": "1",
								"type": "t_address"
							},
							{
								"astId": 40,
								"contract": "contracts/artifacts/stake.sol:StakingGame",
								"label": "createdDate",
								"offset": 0,
								"slot": "2",
								"type": "t_uint256"
							},
							{
								"astId": 42,
								"contract": "contracts/artifacts/stake.sol:StakingGame",
								"label": "unlockDate",
								"offset": 0,
								"slot": "3",
								"type": "t_uint256"
							},
							{
								"astId": 44,
								"contract": "contracts/artifacts/stake.sol:StakingGame",
								"label": "percentInterest",
								"offset": 0,
								"slot": "4",
								"type": "t_uint256"
							},
							{
								"astId": 46,
								"contract": "contracts/artifacts/stake.sol:StakingGame",
								"label": "weiStaked",
								"offset": 0,
								"slot": "5",
								"type": "t_uint256"
							},
							{
								"astId": 48,
								"contract": "contracts/artifacts/stake.sol:StakingGame",
								"label": "weiInterest",
								"offset": 0,
								"slot": "6",
								"type": "t_uint256"
							},
							{
								"astId": 50,
								"contract": "contracts/artifacts/stake.sol:StakingGame",
								"label": "open",
								"offset": 0,
								"slot": "7",
								"type": "t_bool"
							},
							{
								"astId": 52,
								"contract": "contracts/artifacts/stake.sol:StakingGame",
								"label": "lastClaimedDate",
								"offset": 0,
								"slot": "8",
								"type": "t_uint256"
							}
						],
						"numberOfBytes": "288"
					},
					"t_struct(User)64_storage": {
						"encoding": "inplace",
						"label": "struct StakingGame.User",
						"members": [
							{
								"astId": 55,
								"contract": "contracts/artifacts/stake.sol:StakingGame",
								"label": "upline",
								"offset": 0,
								"slot": "0",
								"type": "t_address"
							},
							{
								"astId": 57,
								"contract": "contracts/artifacts/stake.sol:StakingGame",
								"label": "totalEarned",
								"offset": 0,
								"slot": "1",
								"type": "t_uint256"
							},
							{
								"astId": 59,
								"contract": "contracts/artifacts/stake.sol:StakingGame",
								"label": "referralsCount",
								"offset": 0,
								"slot": "2",
								"type": "t_uint256"
							},
							{
								"astId": 61,
								"contract": "contracts/artifacts/stake.sol:StakingGame",
								"label": "currentLevel",
								"offset": 0,
								"slot": "3",
								"type": "t_uint256"
							},
							{
								"astId": 63,
								"contract": "contracts/artifacts/stake.sol:StakingGame",
								"label": "directReferralsCount",
								"offset": 0,
								"slot": "4",
								"type": "t_uint256"
							}
						],
						"numberOfBytes": "160"
					},
					"t_uint256": {
						"encoding": "inplace",
						"label": "uint256",
						"numberOfBytes": "32"
					}
				}
			},
			"userdoc": {
				"kind": "user",
				"methods": {},
				"version": 1
			}
		}
	}
}