{
	"data": {
		"bytecode": {
			"linkReferences": {},
			"object": "608060405234801561000f575f80fd5b50335f806101000a81548173ffffffffffffffffffffffffffffffffffffffff021916908373ffffffffffffffffffffffffffffffffffffffff160217905550601e60025f600160ff1681526020019081526020015f2081905550601460025f600260ff1681526020019081526020015f2081905550600a60025f600360ff1681526020019081526020015f20819055505f600490505b60098160ff16116100e157600560025f8360ff1660ff1681526020019081526020015f208190555080806100d99061039a565b9150506100a6565b50600a60025f600a60ff1681526020019081526020015f2081905550674563918244f4000060035f600160ff1681526020019081526020015f2081905550670de0b6b3a764000060035f600260ff1681526020019081526020015f2081905550671bc16d674ec8000060035f600360ff1681526020019081526020015f2081905550671bc16d674ec8000060035f600460ff1681526020019081526020015f2081905550671bc16d674ec8000060035f600560ff1681526020019081526020015f20819055506729a2241af62c000060035f600660ff1681526020019081526020015f20819055506729a2241af62c000060035f600760ff1681526020019081526020015f20819055506729a2241af62c000060035f600860ff1681526020019081526020015f20819055506729a2241af62c000060035f600960ff1681526020019081526020015f2081905550674563918244f4000060035f600a60ff1681526020019081526020015f2081905550600160045f600160ff1681526020019081526020015f2081905550600260045f600260ff1681526020019081526020015f20819055506004805f600360ff1681526020019081526020015f20819055506004805f600460ff1681526020019081526020015f20819055506004805f600560ff1681526020019081526020015f2081905550600660045f600660ff1681526020019081526020015f2081905550600660045f600760ff1681526020019081526020015f2081905550600660045f600860ff1681526020019081526020015f2081905550600660045f600960ff1681526020019081526020015f2081905550600660045f600a60ff1681526020019081526020015f20819055506103c2565b7f4e487b71000000000000000000000000000000000000000000000000000000005f52601160045260245ffd5b5f60ff82169050919050565b5f6103a48261038e565b915060ff82036103b7576103b6610361565b5b600182019050919050565b611549806103cf5f395ff3fe608060405260043610610090575f3560e01c8063a87430ba11610058578063a87430ba14610186578063bd54da73146101c5578063e7f9afc314610201578063e8b5e51f1461023d578063f851a4401461024757610090565b806304c76af0146100945780634420e486146100aa57806354ba8d9f146100d2578063679835941461010e5780637fc01c391461014a575b5f80fd5b34801561009f575f80fd5b506100a8610271565b005b3480156100b5575f80fd5b506100d060048036038101906100cb9190610f2f565b610363565b005b3480156100dd575f80fd5b506100f860048036038101906100f39190610f90565b6106e9565b6040516101059190610fd3565b60405180910390f35b348015610119575f80fd5b50610134600480360381019061012f9190610f90565b6106fe565b6040516101419190610fd3565b60405180910390f35b348015610155575f80fd5b50610170600480360381019061016b9190610f90565b610713565b60405161017d9190610fd3565b60405180910390f35b348015610191575f80fd5b506101ac60048036038101906101a79190610f2f565b610728565b6040516101bc9493929190610ffb565b60405180910390f35b3480156101d0575f80fd5b506101eb60048036038101906101e69190610f2f565b610773565b6040516101f891906110f5565b60405180910390f35b34801561020c575f80fd5b5061022760048036038101906102229190611115565b61083e565b604051610234919061116d565b60405180910390f35b610245610905565b005b348015610252575f80fd5b5061025b610acd565b6040516102689190611186565b60405180910390f35b5f8054906101000a900473ffffffffffffffffffffffffffffffffffffffff1673ffffffffffffffffffffffffffffffffffffffff163373ffffffffffffffffffffffffffffffffffffffff16146102fe576040517f08c379a00000000000000000000000000000000000000000000000000000000081526004016102f5906111f9565b60405180910390fd5b5f8054906101000a900473ffffffffffffffffffffffffffffffffffffffff1673ffffffffffffffffffffffffffffffffffffffff166108fc4790811502906040515f60405180830381858888f19350505050158015610360573d5f803e3d5ffd5b50565b5f73ffffffffffffffffffffffffffffffffffffffff1660015f3373ffffffffffffffffffffffffffffffffffffffff1673ffffffffffffffffffffffffffffffffffffffff1681526020019081526020015f205f015f9054906101000a900473ffffffffffffffffffffffffffffffffffffffff1673ffffffffffffffffffffffffffffffffffffffff161461042f576040517f08c379a000000000000000000000000000000000000000000000000000000000815260040161042690611261565b60405180910390fd5b3373ffffffffffffffffffffffffffffffffffffffff168173ffffffffffffffffffffffffffffffffffffffff161415801561049757505f73ffffffffffffffffffffffffffffffffffffffff168173ffffffffffffffffffffffffffffffffffffffff1614155b6104d6576040517f08c379a00000000000000000000000000000000000000000000000000000000081526004016104cd906112c9565b60405180910390fd5b8060015f3373ffffffffffffffffffffffffffffffffffffffff1673ffffffffffffffffffffffffffffffffffffffff1681526020019081526020015f205f015f6101000a81548173ffffffffffffffffffffffffffffffffffffffff021916908373ffffffffffffffffffffffffffffffffffffffff1602179055506001805f8373ffffffffffffffffffffffffffffffffffffffff1673ffffffffffffffffffffffffffffffffffffffff1681526020019081526020015f206002015f8282546105a29190611314565b9250508190555060015f8273ffffffffffffffffffffffffffffffffffffffff1673ffffffffffffffffffffffffffffffffffffffff1681526020019081526020015f2060030133908060018154018082558091505060019003905f5260205f20015f9091909190916101000a81548173ffffffffffffffffffffffffffffffffffffffff021916908373ffffffffffffffffffffffffffffffffffffffff1602179055504260015f3373ffffffffffffffffffffffffffffffffffffffff1673ffffffffffffffffffffffffffffffffffffffff1681526020019081526020015f20600401819055508073ffffffffffffffffffffffffffffffffffffffff163373ffffffffffffffffffffffffffffffffffffffff167f0a31ee9d46a828884b81003c8498156ea6aa15b9b54bdd0ef0b533d9eba57e5560405160405180910390a350565b6002602052805f5260405f205f915090505481565b6003602052805f5260405f205f915090505481565b6004602052805f5260405f205f915090505481565b6001602052805f5260405f205f91509050805f015f9054906101000a900473ffffffffffffffffffffffffffffffffffffffff16908060010154908060020154908060040154905084565b606060015f8373ffffffffffffffffffffffffffffffffffffffff1673ffffffffffffffffffffffffffffffffffffffff1681526020019081526020015f2060030180548060200260200160405190810160405280929190818152602001828054801561083257602002820191905f5260205f20905b815f9054906101000a900473ffffffffffffffffffffffffffffffffffffffff1673ffffffffffffffffffffffffffffffffffffffff16815260200190600101908083116107e9575b50505050509050919050565b5f60035f8360ff1660ff1681526020019081526020015f205460015f8573ffffffffffffffffffffffffffffffffffffffff1673ffffffffffffffffffffffffffffffffffffffff1681526020019081526020015f2060010154101580156108fd575060045f8360ff1660ff1681526020019081526020015f205460015f8573ffffffffffffffffffffffffffffffffffffffff1673ffffffffffffffffffffffffffffffffffffffff1681526020019081526020015f206002015410155b905092915050565b5f73ffffffffffffffffffffffffffffffffffffffff1660015f3373ffffffffffffffffffffffffffffffffffffffff1673ffffffffffffffffffffffffffffffffffffffff1681526020019081526020015f205f015f9054906101000a900473ffffffffffffffffffffffffffffffffffffffff1673ffffffffffffffffffffffffffffffffffffffff16036109d1576040517f08c379a00000000000000000000000000000000000000000000000000000000081526004016109c890611391565b60405180910390fd5b5f3411610a13576040517f08c379a0000000000000000000000000000000000000000000000000000000008152600401610a0a906113f9565b60405180910390fd5b3460015f3373ffffffffffffffffffffffffffffffffffffffff1673ffffffffffffffffffffffffffffffffffffffff1681526020019081526020015f206001015f828254610a629190611314565b925050819055503373ffffffffffffffffffffffffffffffffffffffff167fc3f75dfc78f6efac88ad5abb5e606276b903647d97b2a62a1ef89840a658bbc334604051610aaf9190610fd3565b60405180910390a2610ac13334610af0565b610acb3334610c51565b565b5f8054906101000a900473ffffffffffffffffffffffffffffffffffffffff1681565b5f60015f8473ffffffffffffffffffffffffffffffffffffffff1673ffffffffffffffffffffffffffffffffffffffff1681526020019081526020015f205f015f9054906101000a900473ffffffffffffffffffffffffffffffffffffffff1690505f73ffffffffffffffffffffffffffffffffffffffff168173ffffffffffffffffffffffffffffffffffffffff1614610c4c575f6064601e84610b959190611417565b610b9f9190611485565b90508173ffffffffffffffffffffffffffffffffffffffff166108fc8290811502906040515f60405180830381858888f19350505050158015610be4573d5f803e3d5ffd5b508173ffffffffffffffffffffffffffffffffffffffff168473ffffffffffffffffffffffffffffffffffffffff167fa8d525aac785ea6bd6d783480d5c28ecbe28f03ab479a77935c9da19304bd19083604051610c429190610fd3565b60405180910390a3505b505050565b5f60015f8473ffffffffffffffffffffffffffffffffffffffff1673ffffffffffffffffffffffffffffffffffffffff1681526020019081526020015f205f015f9054906101000a900473ffffffffffffffffffffffffffffffffffffffff1690505f600190505b600a8160ff1611610e5a575f73ffffffffffffffffffffffffffffffffffffffff168273ffffffffffffffffffffffffffffffffffffffff160315610e5a57610d02828261083e565b15610de6575f606460025f8460ff1660ff1681526020019081526020015f205485610d2d9190611417565b610d379190611485565b90508273ffffffffffffffffffffffffffffffffffffffff166108fc8290811502906040515f60405180830381858888f19350505050158015610d7c573d5f803e3d5ffd5b508273ffffffffffffffffffffffffffffffffffffffff168573ffffffffffffffffffffffffffffffffffffffff167fb16479bdac5b7099d9236d6fc6be3b30ff54188f4fd961686e1e1dc7ecb880378484604051610ddc9291906114c4565b60405180910390a3505b60015f8373ffffffffffffffffffffffffffffffffffffffff1673ffffffffffffffffffffffffffffffffffffffff1681526020019081526020015f205f015f9054906101000a900473ffffffffffffffffffffffffffffffffffffffff1691508080610e52906114eb565b915050610cb9565b505f4790505f811115610ecb575f8054906101000a900473ffffffffffffffffffffffffffffffffffffffff1673ffffffffffffffffffffffffffffffffffffffff166108fc8290811502906040515f60405180830381858888f19350505050158015610ec9573d5f803e3d5ffd5b505b50505050565b5f80fd5b5f73ffffffffffffffffffffffffffffffffffffffff82169050919050565b5f610efe82610ed5565b9050919050565b610f0e81610ef4565b8114610f18575f80fd5b50565b5f81359050610f2981610f05565b92915050565b5f60208284031215610f4457610f43610ed1565b5b5f610f5184828501610f1b565b91505092915050565b5f60ff82169050919050565b610f6f81610f5a565b8114610f79575f80fd5b50565b5f81359050610f8a81610f66565b92915050565b5f60208284031215610fa557610fa4610ed1565b5b5f610fb284828501610f7c565b91505092915050565b5f819050919050565b610fcd81610fbb565b82525050565b5f602082019050610fe65f830184610fc4565b92915050565b610ff581610ef4565b82525050565b5f60808201905061100e5f830187610fec565b61101b6020830186610fc4565b6110286040830185610fc4565b6110356060830184610fc4565b95945050505050565b5f81519050919050565b5f82825260208201905092915050565b5f819050602082019050919050565b61107081610ef4565b82525050565b5f6110818383611067565b60208301905092915050565b5f602082019050919050565b5f6110a38261103e565b6110ad8185611048565b93506110b883611058565b805f5b838110156110e85781516110cf8882611076565b97506110da8361108d565b9250506001810190506110bb565b5085935050505092915050565b5f6020820190508181035f83015261110d8184611099565b905092915050565b5f806040838503121561112b5761112a610ed1565b5b5f61113885828601610f1b565b925050602061114985828601610f7c565b9150509250929050565b5f8115159050919050565b61116781611153565b82525050565b5f6020820190506111805f83018461115e565b92915050565b5f6020820190506111995f830184610fec565b92915050565b5f82825260208201905092915050565b7f4f6e6c792061646d696e000000000000000000000000000000000000000000005f82015250565b5f6111e3600a8361119f565b91506111ee826111af565b602082019050919050565b5f6020820190508181035f830152611210816111d7565b9050919050565b7f416c7265616479207265676973746572656400000000000000000000000000005f82015250565b5f61124b60128361119f565b915061125682611217565b602082019050919050565b5f6020820190508181035f8301526112788161123f565b9050919050565b7f496e76616c6964207265666572726572000000000000000000000000000000005f82015250565b5f6112b360108361119f565b91506112be8261127f565b602082019050919050565b5f6020820190508181035f8301526112e0816112a7565b9050919050565b7f4e487b71000000000000000000000000000000000000000000000000000000005f52601160045260245ffd5b5f61131e82610fbb565b915061132983610fbb565b9250828201905080821115611341576113406112e7565b5b92915050565b7f4e6f7420726567697374657265640000000000000000000000000000000000005f82015250565b5f61137b600e8361119f565b915061138682611347565b602082019050919050565b5f6020820190508181035f8301526113a88161136f565b9050919050565b7f5a65726f20696e766573746d656e7400000000000000000000000000000000005f82015250565b5f6113e3600f8361119f565b91506113ee826113af565b602082019050919050565b5f6020820190508181035f830152611410816113d7565b9050919050565b5f61142182610fbb565b915061142c83610fbb565b925082820261143a81610fbb565b91508282048414831517611451576114506112e7565b5b5092915050565b7f4e487b71000000000000000000000000000000000000000000000000000000005f52601260045260245ffd5b5f61148f82610fbb565b915061149a83610fbb565b9250826114aa576114a9611458565b5b828204905092915050565b6114be81610f5a565b82525050565b5f6040820190506114d75f8301856114b5565b6114e46020830184610fc4565b9392505050565b5f6114f582610f5a565b915060ff8203611508576115076112e7565b5b60018201905091905056fea26469706673582212202aff35000f87d3bfaf3985156810e484d0699edf96a7457c48f2ffcbad52e2c264736f6c63430008190033",
			"opcodes": "PUSH1 0x80 PUSH1 0x40 MSTORE CALLVALUE DUP1 ISZERO PUSH2 0xF JUMPI PUSH0 DUP1 REVERT JUMPDEST POP CALLER PUSH0 DUP1 PUSH2 0x100 EXP DUP2 SLOAD DUP2 PUSH20 0xFFFFFFFFFFFFFFFFFFFFFFFFFFFFFFFFFFFFFFFF MUL NOT AND SWAP1 DUP4 PUSH20 0xFFFFFFFFFFFFFFFFFFFFFFFFFFFFFFFFFFFFFFFF AND MUL OR SWAP1 SSTORE POP PUSH1 0x1E PUSH1 0x2 PUSH0 PUSH1 0x1 PUSH1 0xFF AND DUP2 MSTORE PUSH1 0x20 ADD SWAP1 DUP2 MSTORE PUSH1 0x20 ADD PUSH0 KECCAK256 DUP2 SWAP1 SSTORE POP PUSH1 0x14 PUSH1 0x2 PUSH0 PUSH1 0x2 PUSH1 0xFF AND DUP2 MSTORE PUSH1 0x20 ADD SWAP1 DUP2 MSTORE PUSH1 0x20 ADD PUSH0 KECCAK256 DUP2 SWAP1 SSTORE POP PUSH1 0xA PUSH1 0x2 PUSH0 PUSH1 0x3 PUSH1 0xFF AND DUP2 MSTORE PUSH1 0x20 ADD SWAP1 DUP2 MSTORE PUSH1 0x20 ADD PUSH0 KECCAK256 DUP2 SWAP1 SSTORE POP PUSH0 PUSH1 0x4 SWAP1 POP JUMPDEST PUSH1 0x9 DUP2 PUSH1 0xFF AND GT PUSH2 0xE1 JUMPI PUSH1 0x5 PUSH1 0x2 PUSH0 DUP4 PUSH1 0xFF AND PUSH1 0xFF AND DUP2 MSTORE PUSH1 0x20 ADD SWAP1 DUP2 MSTORE PUSH1 0x20 ADD PUSH0 KECCAK256 DUP2 SWAP1 SSTORE POP DUP1 DUP1 PUSH2 0xD9 SWAP1 PUSH2 0x39A JUMP JUMPDEST SWAP2 POP POP PUSH2 0xA6 JUMP JUMPDEST POP PUSH1 0xA PUSH1 0x2 PUSH0 PUSH1 0xA PUSH1 0xFF AND DUP2 MSTORE PUSH1 0x20 ADD SWAP1 DUP2 MSTORE PUSH1 0x20 ADD PUSH0 KECCAK256 DUP2 SWAP1 SSTORE POP PUSH8 0x4563918244F40000 PUSH1 0x3 PUSH0 PUSH1 0x1 PUSH1 0xFF AND DUP2 MSTORE PUSH1 0x20 ADD SWAP1 DUP2 MSTORE PUSH1 0x20 ADD PUSH0 KECCAK256 DUP2 SWAP1 SSTORE POP PUSH8 0xDE0B6B3A7640000 PUSH1 0x3 PUSH0 PUSH1 0x2 PUSH1 0xFF AND DUP2 MSTORE PUSH1 0x20 ADD SWAP1 DUP2 MSTORE PUSH1 0x20 ADD PUSH0 KECCAK256 DUP2 SWAP1 SSTORE POP PUSH8 0x1BC16D674EC80000 PUSH1 0x3 PUSH0 PUSH1 0x3 PUSH1 0xFF AND DUP2 MSTORE PUSH1 0x20 ADD SWAP1 DUP2 MSTORE PUSH1 0x20 ADD PUSH0 KECCAK256 DUP2 SWAP1 SSTORE POP PUSH8 0x1BC16D674EC80000 PUSH1 0x3 PUSH0 PUSH1 0x4 PUSH1 0xFF AND DUP2 MSTORE PUSH1 0x20 ADD SWAP1 DUP2 MSTORE PUSH1 0x20 ADD PUSH0 KECCAK256 DUP2 SWAP1 SSTORE POP PUSH8 0x1BC16D674EC80000 PUSH1 0x3 PUSH0 PUSH1 0x5 PUSH1 0xFF AND DUP2 MSTORE PUSH1 0x20 ADD SWAP1 DUP2 MSTORE PUSH1 0x20 ADD PUSH0 KECCAK256 DUP2 SWAP1 SSTORE POP PUSH8 0x29A2241AF62C0000 PUSH1 0x3 PUSH0 PUSH1 0x6 PUSH1 0xFF AND DUP2 MSTORE PUSH1 0x20 ADD SWAP1 DUP2 MSTORE PUSH1 0x20 ADD PUSH0 KECCAK256 DUP2 SWAP1 SSTORE POP PUSH8 0x29A2241AF62C0000 PUSH1 0x3 PUSH0 PUSH1 0x7 PUSH1 0xFF AND DUP2 MSTORE PUSH1 0x20 ADD SWAP1 DUP2 MSTORE PUSH1 0x20 ADD PUSH0 KECCAK256 DUP2 SWAP1 SSTORE POP PUSH8 0x29A2241AF62C0000 PUSH1 0x3 PUSH0 PUSH1 0x8 PUSH1 0xFF AND DUP2 MSTORE PUSH1 0x20 ADD SWAP1 DUP2 MSTORE PUSH1 0x20 ADD PUSH0 KECCAK256 DUP2 SWAP1 SSTORE POP PUSH8 0x29A2241AF62C0000 PUSH1 0x3 PUSH0 PUSH1 0x9 PUSH1 0xFF AND DUP2 MSTORE PUSH1 0x20 ADD SWAP1 DUP2 MSTORE PUSH1 0x20 ADD PUSH0 KECCAK256 DUP2 SWAP1 SSTORE POP PUSH8 0x4563918244F40000 PUSH1 0x3 PUSH0 PUSH1 0xA PUSH1 0xFF AND DUP2 MSTORE PUSH1 0x20 ADD SWAP1 DUP2 MSTORE PUSH1 0x20 ADD PUSH0 KECCAK256 DUP2 SWAP1 SSTORE POP PUSH1 0x1 PUSH1 0x4 PUSH0 PUSH1 0x1 PUSH1 0xFF AND DUP2 MSTORE PUSH1 0x20 ADD SWAP1 DUP2 MSTORE PUSH1 0x20 ADD PUSH0 KECCAK256 DUP2 SWAP1 SSTORE POP PUSH1 0x2 PUSH1 0x4 PUSH0 PUSH1 0x2 PUSH1 0xFF AND DUP2 MSTORE PUSH1 0x20 ADD SWAP1 DUP2 MSTORE PUSH1 0x20 ADD PUSH0 KECCAK256 DUP2 SWAP1 SSTORE POP PUSH1 0x4 DUP1 PUSH0 PUSH1 0x3 PUSH1 0xFF AND DUP2 MSTORE PUSH1 0x20 ADD SWAP1 DUP2 MSTORE PUSH1 0x20 ADD PUSH0 KECCAK256 DUP2 SWAP1 SSTORE POP PUSH1 0x4 DUP1 PUSH0 PUSH1 0x4 PUSH1 0xFF AND DUP2 MSTORE PUSH1 0x20 ADD SWAP1 DUP2 MSTORE PUSH1 0x20 ADD PUSH0 KECCAK256 DUP2 SWAP1 SSTORE POP PUSH1 0x4 DUP1 PUSH0 PUSH1 0x5 PUSH1 0xFF AND DUP2 MSTORE PUSH1 0x20 ADD SWAP1 DUP2 MSTORE PUSH1 0x20 ADD PUSH0 KECCAK256 DUP2 SWAP1 SSTORE POP PUSH1 0x6 PUSH1 0x4 PUSH0 PUSH1 0x6 PUSH1 0xFF AND DUP2 MSTORE PUSH1 0x20 ADD SWAP1 DUP2 MSTORE PUSH1 0x20 ADD PUSH0 KECCAK256 DUP2 SWAP1 SSTORE POP PUSH1 0x6 PUSH1 0x4 PUSH0 PUSH1 0x7 PUSH1 0xFF AND DUP2 MSTORE PUSH1 0x20 ADD SWAP1 DUP2 MSTORE PUSH1 0x20 ADD PUSH0 KECCAK256 DUP2 SWAP1 SSTORE POP PUSH1 0x6 PUSH1 0x4 PUSH0 PUSH1 0x8 PUSH1 0xFF AND DUP2 MSTORE PUSH1 0x20 ADD SWAP1 DUP2 MSTORE PUSH1 0x20 ADD PUSH0 KECCAK256 DUP2 SWAP1 SSTORE POP PUSH1 0x6 PUSH1 0x4 PUSH0 PUSH1 0x9 PUSH1 0xFF AND DUP2 MSTORE PUSH1 0x20 ADD SWAP1 DUP2 MSTORE PUSH1 0x20 ADD PUSH0 KECCAK256 DUP2 SWAP1 SSTORE POP PUSH1 0x6 PUSH1 0x4 PUSH0 PUSH1 0xA PUSH1 0xFF AND DUP2 MSTORE PUSH1 0x20 ADD SWAP1 DUP2 MSTORE PUSH1 0x20 ADD PUSH0 KECCAK256 DUP2 SWAP1 SSTORE POP PUSH2 0x3C2 JUMP JUMPDEST PUSH32 0x4E487B7100000000000000000000000000000000000000000000000000000000 PUSH0 MSTORE PUSH1 0x11 PUSH1 0x4 MSTORE PUSH1 0x24 PUSH0 REVERT JUMPDEST PUSH0 PUSH1 0xFF DUP3 AND SWAP1 POP SWAP2 SWAP1 POP JUMP JUMPDEST PUSH0 PUSH2 0x3A4 DUP3 PUSH2 0x38E JUMP JUMPDEST SWAP2 POP PUSH1 0xFF DUP3 SUB PUSH2 0x3B7 JUMPI PUSH2 0x3B6 PUSH2 0x361 JUMP JUMPDEST JUMPDEST PUSH1 0x1 DUP3 ADD SWAP1 POP SWAP2 SWAP1 POP JUMP JUMPDEST PUSH2 0x1549 DUP1 PUSH2 0x3CF PUSH0 CODECOPY PUSH0 RETURN INVALID PUSH1 0x80 PUSH1 0x40 MSTORE PUSH1 0x4 CALLDATASIZE LT PUSH2 0x90 JUMPI PUSH0 CALLDATALOAD PUSH1 0xE0 SHR DUP1 PUSH4 0xA87430BA GT PUSH2 0x58 JUMPI DUP1 PUSH4 0xA87430BA EQ PUSH2 0x186 JUMPI DUP1 PUSH4 0xBD54DA73 EQ PUSH2 0x1C5 JUMPI DUP1 PUSH4 0xE7F9AFC3 EQ PUSH2 0x201 JUMPI DUP1 PUSH4 0xE8B5E51F EQ PUSH2 0x23D JUMPI DUP1 PUSH4 0xF851A440 EQ PUSH2 0x247 JUMPI PUSH2 0x90 JUMP JUMPDEST DUP1 PUSH4 0x4C76AF0 EQ PUSH2 0x94 JUMPI DUP1 PUSH4 0x4420E486 EQ PUSH2 0xAA JUMPI DUP1 PUSH4 0x54BA8D9F EQ PUSH2 0xD2 JUMPI DUP1 PUSH4 0x67983594 EQ PUSH2 0x10E JUMPI DUP1 PUSH4 0x7FC01C39 EQ PUSH2 0x14A JUMPI JUMPDEST PUSH0 DUP1 REVERT JUMPDEST CALLVALUE DUP1 ISZERO PUSH2 0x9F JUMPI PUSH0 DUP1 REVERT JUMPDEST POP PUSH2 0xA8 PUSH2 0x271 JUMP JUMPDEST STOP JUMPDEST CALLVALUE DUP1 ISZERO PUSH2 0xB5 JUMPI PUSH0 DUP1 REVERT JUMPDEST POP PUSH2 0xD0 PUSH1 0x4 DUP1 CALLDATASIZE SUB DUP2 ADD SWAP1 PUSH2 0xCB SWAP2 SWAP1 PUSH2 0xF2F JUMP JUMPDEST PUSH2 0x363 JUMP JUMPDEST STOP JUMPDEST CALLVALUE DUP1 ISZERO PUSH2 0xDD JUMPI PUSH0 DUP1 REVERT JUMPDEST POP PUSH2 0xF8 PUSH1 0x4 DUP1 CALLDATASIZE SUB DUP2 ADD SWAP1 PUSH2 0xF3 SWAP2 SWAP1 PUSH2 0xF90 JUMP JUMPDEST PUSH2 0x6E9 JUMP JUMPDEST PUSH1 0x40 MLOAD PUSH2 0x105 SWAP2 SWAP1 PUSH2 0xFD3 JUMP JUMPDEST PUSH1 0x40 MLOAD DUP1 SWAP2 SUB SWAP1 RETURN JUMPDEST CALLVALUE DUP1 ISZERO PUSH2 0x119 JUMPI PUSH0 DUP1 REVERT JUMPDEST POP PUSH2 0x134 PUSH1 0x4 DUP1 CALLDATASIZE SUB DUP2 ADD SWAP1 PUSH2 0x12F SWAP2 SWAP1 PUSH2 0xF90 JUMP JUMPDEST PUSH2 0x6FE JUMP JUMPDEST PUSH1 0x40 MLOAD PUSH2 0x141 SWAP2 SWAP1 PUSH2 0xFD3 JUMP JUMPDEST PUSH1 0x40 MLOAD DUP1 SWAP2 SUB SWAP1 RETURN JUMPDEST CALLVALUE DUP1 ISZERO PUSH2 0x155 JUMPI PUSH0 DUP1 REVERT JUMPDEST POP PUSH2 0x170 PUSH1 0x4 DUP1 CALLDATASIZE SUB DUP2 ADD SWAP1 PUSH2 0x16B SWAP2 SWAP1 PUSH2 0xF90 JUMP JUMPDEST PUSH2 0x713 JUMP JUMPDEST PUSH1 0x40 MLOAD PUSH2 0x17D SWAP2 SWAP1 PUSH2 0xFD3 JUMP JUMPDEST PUSH1 0x40 MLOAD DUP1 SWAP2 SUB SWAP1 RETURN JUMPDEST CALLVALUE DUP1 ISZERO PUSH2 0x191 JUMPI PUSH0 DUP1 REVERT JUMPDEST POP PUSH2 0x1AC PUSH1 0x4 DUP1 CALLDATASIZE SUB DUP2 ADD SWAP1 PUSH2 0x1A7 SWAP2 SWAP1 PUSH2 0xF2F JUMP JUMPDEST PUSH2 0x728 JUMP JUMPDEST PUSH1 0x40 MLOAD PUSH2 0x1BC SWAP5 SWAP4 SWAP3 SWAP2 SWAP1 PUSH2 0xFFB JUMP JUMPDEST PUSH1 0x40 MLOAD DUP1 SWAP2 SUB SWAP1 RETURN JUMPDEST CALLVALUE DUP1 ISZERO PUSH2 0x1D0 JUMPI PUSH0 DUP1 REVERT JUMPDEST POP PUSH2 0x1EB PUSH1 0x4 DUP1 CALLDATASIZE SUB DUP2 ADD SWAP1 PUSH2 0x1E6 SWAP2 SWAP1 PUSH2 0xF2F JUMP JUMPDEST PUSH2 0x773 JUMP JUMPDEST PUSH1 0x40 MLOAD PUSH2 0x1F8 SWAP2 SWAP1 PUSH2 0x10F5 JUMP JUMPDEST PUSH1 0x40 MLOAD DUP1 SWAP2 SUB SWAP1 RETURN JUMPDEST CALLVALUE DUP1 ISZERO PUSH2 0x20C JUMPI PUSH0 DUP1 REVERT JUMPDEST POP PUSH2 0x227 PUSH1 0x4 DUP1 CALLDATASIZE SUB DUP2 ADD SWAP1 PUSH2 0x222 SWAP2 SWAP1 PUSH2 0x1115 JUMP JUMPDEST PUSH2 0x83E JUMP JUMPDEST PUSH1 0x40 MLOAD PUSH2 0x234 SWAP2 SWAP1 PUSH2 0x116D JUMP JUMPDEST PUSH1 0x40 MLOAD DUP1 SWAP2 SUB SWAP1 RETURN JUMPDEST PUSH2 0x245 PUSH2 0x905 JUMP JUMPDEST STOP JUMPDEST CALLVALUE DUP1 ISZERO PUSH2 0x252 JUMPI PUSH0 DUP1 REVERT JUMPDEST POP PUSH2 0x25B PUSH2 0xACD JUMP JUMPDEST PUSH1 0x40 MLOAD PUSH2 0x268 SWAP2 SWAP1 PUSH2 0x1186 JUMP JUMPDEST PUSH1 0x40 MLOAD DUP1 SWAP2 SUB SWAP1 RETURN JUMPDEST PUSH0 DUP1 SLOAD SWAP1 PUSH2 0x100 EXP SWAP1 DIV PUSH20 0xFFFFFFFFFFFFFFFFFFFFFFFFFFFFFFFFFFFFFFFF AND PUSH20 0xFFFFFFFFFFFFFFFFFFFFFFFFFFFFFFFFFFFFFFFF AND CALLER PUSH20 0xFFFFFFFFFFFFFFFFFFFFFFFFFFFFFFFFFFFFFFFF AND EQ PUSH2 0x2FE JUMPI PUSH1 0x40 MLOAD PUSH32 0x8C379A000000000000000000000000000000000000000000000000000000000 DUP2 MSTORE PUSH1 0x4 ADD PUSH2 0x2F5 SWAP1 PUSH2 0x11F9 JUMP JUMPDEST PUSH1 0x40 MLOAD DUP1 SWAP2 SUB SWAP1 REVERT JUMPDEST PUSH0 DUP1 SLOAD SWAP1 PUSH2 0x100 EXP SWAP1 DIV PUSH20 0xFFFFFFFFFFFFFFFFFFFFFFFFFFFFFFFFFFFFFFFF AND PUSH20 0xFFFFFFFFFFFFFFFFFFFFFFFFFFFFFFFFFFFFFFFF AND PUSH2 0x8FC SELFBALANCE SWAP1 DUP2 ISZERO MUL SWAP1 PUSH1 0x40 MLOAD PUSH0 PUSH1 0x40 MLOAD DUP1 DUP4 SUB DUP2 DUP6 DUP9 DUP9 CALL SWAP4 POP POP POP POP ISZERO DUP1 ISZERO PUSH2 0x360 JUMPI RETURNDATASIZE PUSH0 DUP1 RETURNDATACOPY RETURNDATASIZE PUSH0 REVERT JUMPDEST POP JUMP JUMPDEST PUSH0 PUSH20 0xFFFFFFFFFFFFFFFFFFFFFFFFFFFFFFFFFFFFFFFF AND PUSH1 0x1 PUSH0 CALLER PUSH20 0xFFFFFFFFFFFFFFFFFFFFFFFFFFFFFFFFFFFFFFFF AND PUSH20 0xFFFFFFFFFFFFFFFFFFFFFFFFFFFFFFFFFFFFFFFF AND DUP2 MSTORE PUSH1 0x20 ADD SWAP1 DUP2 MSTORE PUSH1 0x20 ADD PUSH0 KECCAK256 PUSH0 ADD PUSH0 SWAP1 SLOAD SWAP1 PUSH2 0x100 EXP SWAP1 DIV PUSH20 0xFFFFFFFFFFFFFFFFFFFFFFFFFFFFFFFFFFFFFFFF AND PUSH20 0xFFFFFFFFFFFFFFFFFFFFFFFFFFFFFFFFFFFFFFFF AND EQ PUSH2 0x42F JUMPI PUSH1 0x40 MLOAD PUSH32 0x8C379A000000000000000000000000000000000000000000000000000000000 DUP2 MSTORE PUSH1 0x4 ADD PUSH2 0x426 SWAP1 PUSH2 0x1261 JUMP JUMPDEST PUSH1 0x40 MLOAD DUP1 SWAP2 SUB SWAP1 REVERT JUMPDEST CALLER PUSH20 0xFFFFFFFFFFFFFFFFFFFFFFFFFFFFFFFFFFFFFFFF AND DUP2 PUSH20 0xFFFFFFFFFFFFFFFFFFFFFFFFFFFFFFFFFFFFFFFF AND EQ ISZERO DUP1 ISZERO PUSH2 0x497 JUMPI POP PUSH0 PUSH20 0xFFFFFFFFFFFFFFFFFFFFFFFFFFFFFFFFFFFFFFFF AND DUP2 PUSH20 0xFFFFFFFFFFFFFFFFFFFFFFFFFFFFFFFFFFFFFFFF AND EQ ISZERO JUMPDEST PUSH2 0x4D6 JUMPI PUSH1 0x40 MLOAD PUSH32 0x8C379A000000000000000000000000000000000000000000000000000000000 DUP2 MSTORE PUSH1 0x4 ADD PUSH2 0x4CD SWAP1 PUSH2 0x12C9 JUMP JUMPDEST PUSH1 0x40 MLOAD DUP1 SWAP2 SUB SWAP1 REVERT JUMPDEST DUP1 PUSH1 0x1 PUSH0 CALLER PUSH20 0xFFFFFFFFFFFFFFFFFFFFFFFFFFFFFFFFFFFFFFFF AND PUSH20 0xFFFFFFFFFFFFFFFFFFFFFFFFFFFFFFFFFFFFFFFF AND DUP2 MSTORE PUSH1 0x20 ADD SWAP1 DUP2 MSTORE PUSH1 0x20 ADD PUSH0 KECCAK256 PUSH0 ADD PUSH0 PUSH2 0x100 EXP DUP2 SLOAD DUP2 PUSH20 0xFFFFFFFFFFFFFFFFFFFFFFFFFFFFFFFFFFFFFFFF MUL NOT AND SWAP1 DUP4 PUSH20 0xFFFFFFFFFFFFFFFFFFFFFFFFFFFFFFFFFFFFFFFF AND MUL OR SWAP1 SSTORE POP PUSH1 0x1 DUP1 PUSH0 DUP4 PUSH20 0xFFFFFFFFFFFFFFFFFFFFFFFFFFFFFFFFFFFFFFFF AND PUSH20 0xFFFFFFFFFFFFFFFFFFFFFFFFFFFFFFFFFFFFFFFF AND DUP2 MSTORE PUSH1 0x20 ADD SWAP1 DUP2 MSTORE PUSH1 0x20 ADD PUSH0 KECCAK256 PUSH1 0x2 ADD PUSH0 DUP3 DUP3 SLOAD PUSH2 0x5A2 SWAP2 SWAP1 PUSH2 0x1314 JUMP JUMPDEST SWAP3 POP POP DUP2 SWAP1 SSTORE POP PUSH1 0x1 PUSH0 DUP3 PUSH20 0xFFFFFFFFFFFFFFFFFFFFFFFFFFFFFFFFFFFFFFFF AND PUSH20 0xFFFFFFFFFFFFFFFFFFFFFFFFFFFFFFFFFFFFFFFF AND DUP2 MSTORE PUSH1 0x20 ADD SWAP1 DUP2 MSTORE PUSH1 0x20 ADD PUSH0 KECCAK256 PUSH1 0x3 ADD CALLER SWAP1 DUP1 PUSH1 0x1 DUP2 SLOAD ADD DUP1 DUP3 SSTORE DUP1 SWAP2 POP POP PUSH1 0x1 SWAP1 SUB SWAP1 PUSH0 MSTORE PUSH1 0x20 PUSH0 KECCAK256 ADD PUSH0 SWAP1 SWAP2 SWAP1 SWAP2 SWAP1 SWAP2 PUSH2 0x100 EXP DUP2 SLOAD DUP2 PUSH20 0xFFFFFFFFFFFFFFFFFFFFFFFFFFFFFFFFFFFFFFFF MUL NOT AND SWAP1 DUP4 PUSH20 0xFFFFFFFFFFFFFFFFFFFFFFFFFFFFFFFFFFFFFFFF AND MUL OR SWAP1 SSTORE POP TIMESTAMP PUSH1 0x1 PUSH0 CALLER PUSH20 0xFFFFFFFFFFFFFFFFFFFFFFFFFFFFFFFFFFFFFFFF AND PUSH20 0xFFFFFFFFFFFFFFFFFFFFFFFFFFFFFFFFFFFFFFFF AND DUP2 MSTORE PUSH1 0x20 ADD SWAP1 DUP2 MSTORE PUSH1 0x20 ADD PUSH0 KECCAK256 PUSH1 0x4 ADD DUP2 SWAP1 SSTORE POP DUP1 PUSH20 0xFFFFFFFFFFFFFFFFFFFFFFFFFFFFFFFFFFFFFFFF AND CALLER PUSH20 0xFFFFFFFFFFFFFFFFFFFFFFFFFFFFFFFFFFFFFFFF AND PUSH32 0xA31EE9D46A828884B81003C8498156EA6AA15B9B54BDD0EF0B533D9EBA57E55 PUSH1 0x40 MLOAD PUSH1 0x40 MLOAD DUP1 SWAP2 SUB SWAP1 LOG3 POP JUMP JUMPDEST PUSH1 0x2 PUSH1 0x20 MSTORE DUP1 PUSH0 MSTORE PUSH1 0x40 PUSH0 KECCAK256 PUSH0 SWAP2 POP SWAP1 POP SLOAD DUP2 JUMP JUMPDEST PUSH1 0x3 PUSH1 0x20 MSTORE DUP1 PUSH0 MSTORE PUSH1 0x40 PUSH0 KECCAK256 PUSH0 SWAP2 POP SWAP1 POP SLOAD DUP2 JUMP JUMPDEST PUSH1 0x4 PUSH1 0x20 MSTORE DUP1 PUSH0 MSTORE PUSH1 0x40 PUSH0 KECCAK256 PUSH0 SWAP2 POP SWAP1 POP SLOAD DUP2 JUMP JUMPDEST PUSH1 0x1 PUSH1 0x20 MSTORE DUP1 PUSH0 MSTORE PUSH1 0x40 PUSH0 KECCAK256 PUSH0 SWAP2 POP SWAP1 POP DUP1 PUSH0 ADD PUSH0 SWAP1 SLOAD SWAP1 PUSH2 0x100 EXP SWAP1 DIV PUSH20 0xFFFFFFFFFFFFFFFFFFFFFFFFFFFFFFFFFFFFFFFF AND SWAP1 DUP1 PUSH1 0x1 ADD SLOAD SWAP1 DUP1 PUSH1 0x2 ADD SLOAD SWAP1 DUP1 PUSH1 0x4 ADD SLOAD SWAP1 POP DUP5 JUMP JUMPDEST PUSH1 0x60 PUSH1 0x1 PUSH0 DUP4 PUSH20 0xFFFFFFFFFFFFFFFFFFFFFFFFFFFFFFFFFFFFFFFF AND PUSH20 0xFFFFFFFFFFFFFFFFFFFFFFFFFFFFFFFFFFFFFFFF AND DUP2 MSTORE PUSH1 0x20 ADD SWAP1 DUP2 MSTORE PUSH1 0x20 ADD PUSH0 KECCAK256 PUSH1 0x3 ADD DUP1 SLOAD DUP1 PUSH1 0x20 MUL PUSH1 0x20 ADD PUSH1 0x40 MLOAD SWAP1 DUP2 ADD PUSH1 0x40 MSTORE DUP1 SWAP3 SWAP2 SWAP1 DUP2 DUP2 MSTORE PUSH1 0x20 ADD DUP3 DUP1 SLOAD DUP1 ISZERO PUSH2 0x832 JUMPI PUSH1 0x20 MUL DUP3 ADD SWAP2 SWAP1 PUSH0 MSTORE PUSH1 0x20 PUSH0 KECCAK256 SWAP1 JUMPDEST DUP2 PUSH0 SWAP1 SLOAD SWAP1 PUSH2 0x100 EXP SWAP1 DIV PUSH20 0xFFFFFFFFFFFFFFFFFFFFFFFFFFFFFFFFFFFFFFFF AND PUSH20 0xFFFFFFFFFFFFFFFFFFFFFFFFFFFFFFFFFFFFFFFF AND DUP2 MSTORE PUSH1 0x20 ADD SWAP1 PUSH1 0x1 ADD SWAP1 DUP1 DUP4 GT PUSH2 0x7E9 JUMPI JUMPDEST POP POP POP POP POP SWAP1 POP SWAP2 SWAP1 POP JUMP JUMPDEST PUSH0 PUSH1 0x3 PUSH0 DUP4 PUSH1 0xFF AND PUSH1 0xFF AND DUP2 MSTORE PUSH1 0x20 ADD SWAP1 DUP2 MSTORE PUSH1 0x20 ADD PUSH0 KECCAK256 SLOAD PUSH1 0x1 PUSH0 DUP6 PUSH20 0xFFFFFFFFFFFFFFFFFFFFFFFFFFFFFFFFFFFFFFFF AND PUSH20 0xFFFFFFFFFFFFFFFFFFFFFFFFFFFFFFFFFFFFFFFF AND DUP2 MSTORE PUSH1 0x20 ADD SWAP1 DUP2 MSTORE PUSH1 0x20 ADD PUSH0 KECCAK256 PUSH1 0x1 ADD SLOAD LT ISZERO DUP1 ISZERO PUSH2 0x8FD JUMPI POP PUSH1 0x4 PUSH0 DUP4 PUSH1 0xFF AND PUSH1 0xFF AND DUP2 MSTORE PUSH1 0x20 ADD SWAP1 DUP2 MSTORE PUSH1 0x20 ADD PUSH0 KECCAK256 SLOAD PUSH1 0x1 PUSH0 DUP6 PUSH20 0xFFFFFFFFFFFFFFFFFFFFFFFFFFFFFFFFFFFFFFFF AND PUSH20 0xFFFFFFFFFFFFFFFFFFFFFFFFFFFFFFFFFFFFFFFF AND DUP2 MSTORE PUSH1 0x20 ADD SWAP1 DUP2 MSTORE PUSH1 0x20 ADD PUSH0 KECCAK256 PUSH1 0x2 ADD SLOAD LT ISZERO JUMPDEST SWAP1 POP SWAP3 SWAP2 POP POP JUMP JUMPDEST PUSH0 PUSH20 0xFFFFFFFFFFFFFFFFFFFFFFFFFFFFFFFFFFFFFFFF AND PUSH1 0x1 PUSH0 CALLER PUSH20 0xFFFFFFFFFFFFFFFFFFFFFFFFFFFFFFFFFFFFFFFF AND PUSH20 0xFFFFFFFFFFFFFFFFFFFFFFFFFFFFFFFFFFFFFFFF AND DUP2 MSTORE PUSH1 0x20 ADD SWAP1 DUP2 MSTORE PUSH1 0x20 ADD PUSH0 KECCAK256 PUSH0 ADD PUSH0 SWAP1 SLOAD SWAP1 PUSH2 0x100 EXP SWAP1 DIV PUSH20 0xFFFFFFFFFFFFFFFFFFFFFFFFFFFFFFFFFFFFFFFF AND PUSH20 0xFFFFFFFFFFFFFFFFFFFFFFFFFFFFFFFFFFFFFFFF AND SUB PUSH2 0x9D1 JUMPI PUSH1 0x40 MLOAD PUSH32 0x8C379A000000000000000000000000000000000000000000000000000000000 DUP2 MSTORE PUSH1 0x4 ADD PUSH2 0x9C8 SWAP1 PUSH2 0x1391 JUMP JUMPDEST PUSH1 0x40 MLOAD DUP1 SWAP2 SUB SWAP1 REVERT JUMPDEST PUSH0 CALLVALUE GT PUSH2 0xA13 JUMPI PUSH1 0x40 MLOAD PUSH32 0x8C379A000000000000000000000000000000000000000000000000000000000 DUP2 MSTORE PUSH1 0x4 ADD PUSH2 0xA0A SWAP1 PUSH2 0x13F9 JUMP JUMPDEST PUSH1 0x40 MLOAD DUP1 SWAP2 SUB SWAP1 REVERT JUMPDEST CALLVALUE PUSH1 0x1 PUSH0 CALLER PUSH20 0xFFFFFFFFFFFFFFFFFFFFFFFFFFFFFFFFFFFFFFFF AND PUSH20 0xFFFFFFFFFFFFFFFFFFFFFFFFFFFFFFFFFFFFFFFF AND DUP2 MSTORE PUSH1 0x20 ADD SWAP1 DUP2 MSTORE PUSH1 0x20 ADD PUSH0 KECCAK256 PUSH1 0x1 ADD PUSH0 DUP3 DUP3 SLOAD PUSH2 0xA62 SWAP2 SWAP1 PUSH2 0x1314 JUMP JUMPDEST SWAP3 POP POP DUP2 SWAP1 SSTORE POP CALLER PUSH20 0xFFFFFFFFFFFFFFFFFFFFFFFFFFFFFFFFFFFFFFFF AND PUSH32 0xC3F75DFC78F6EFAC88AD5ABB5E606276B903647D97B2A62A1EF89840A658BBC3 CALLVALUE PUSH1 0x40 MLOAD PUSH2 0xAAF SWAP2 SWAP1 PUSH2 0xFD3 JUMP JUMPDEST PUSH1 0x40 MLOAD DUP1 SWAP2 SUB SWAP1 LOG2 PUSH2 0xAC1 CALLER CALLVALUE PUSH2 0xAF0 JUMP JUMPDEST PUSH2 0xACB CALLER CALLVALUE PUSH2 0xC51 JUMP JUMPDEST JUMP JUMPDEST PUSH0 DUP1 SLOAD SWAP1 PUSH2 0x100 EXP SWAP1 DIV PUSH20 0xFFFFFFFFFFFFFFFFFFFFFFFFFFFFFFFFFFFFFFFF AND DUP2 JUMP JUMPDEST PUSH0 PUSH1 0x1 PUSH0 DUP5 PUSH20 0xFFFFFFFFFFFFFFFFFFFFFFFFFFFFFFFFFFFFFFFF AND PUSH20 0xFFFFFFFFFFFFFFFFFFFFFFFFFFFFFFFFFFFFFFFF AND DUP2 MSTORE PUSH1 0x20 ADD SWAP1 DUP2 MSTORE PUSH1 0x20 ADD PUSH0 KECCAK256 PUSH0 ADD PUSH0 SWAP1 SLOAD SWAP1 PUSH2 0x100 EXP SWAP1 DIV PUSH20 0xFFFFFFFFFFFFFFFFFFFFFFFFFFFFFFFFFFFFFFFF AND SWAP1 POP PUSH0 PUSH20 0xFFFFFFFFFFFFFFFFFFFFFFFFFFFFFFFFFFFFFFFF AND DUP2 PUSH20 0xFFFFFFFFFFFFFFFFFFFFFFFFFFFFFFFFFFFFFFFF AND EQ PUSH2 0xC4C JUMPI PUSH0 PUSH1 0x64 PUSH1 0x1E DUP5 PUSH2 0xB95 SWAP2 SWAP1 PUSH2 0x1417 JUMP JUMPDEST PUSH2 0xB9F SWAP2 SWAP1 PUSH2 0x1485 JUMP JUMPDEST SWAP1 POP DUP2 PUSH20 0xFFFFFFFFFFFFFFFFFFFFFFFFFFFFFFFFFFFFFFFF AND PUSH2 0x8FC DUP3 SWAP1 DUP2 ISZERO MUL SWAP1 PUSH1 0x40 MLOAD PUSH0 PUSH1 0x40 MLOAD DUP1 DUP4 SUB DUP2 DUP6 DUP9 DUP9 CALL SWAP4 POP POP POP POP ISZERO DUP1 ISZERO PUSH2 0xBE4 JUMPI RETURNDATASIZE PUSH0 DUP1 RETURNDATACOPY RETURNDATASIZE PUSH0 REVERT JUMPDEST POP DUP2 PUSH20 0xFFFFFFFFFFFFFFFFFFFFFFFFFFFFFFFFFFFFFFFF AND DUP5 PUSH20 0xFFFFFFFFFFFFFFFFFFFFFFFFFFFFFFFFFFFFFFFF AND PUSH32 0xA8D525AAC785EA6BD6D783480D5C28ECBE28F03AB479A77935C9DA19304BD190 DUP4 PUSH1 0x40 MLOAD PUSH2 0xC42 SWAP2 SWAP1 PUSH2 0xFD3 JUMP JUMPDEST PUSH1 0x40 MLOAD DUP1 SWAP2 SUB SWAP1 LOG3 POP JUMPDEST POP POP POP JUMP JUMPDEST PUSH0 PUSH1 0x1 PUSH0 DUP5 PUSH20 0xFFFFFFFFFFFFFFFFFFFFFFFFFFFFFFFFFFFFFFFF AND PUSH20 0xFFFFFFFFFFFFFFFFFFFFFFFFFFFFFFFFFFFFFFFF AND DUP2 MSTORE PUSH1 0x20 ADD SWAP1 DUP2 MSTORE PUSH1 0x20 ADD PUSH0 KECCAK256 PUSH0 ADD PUSH0 SWAP1 SLOAD SWAP1 PUSH2 0x100 EXP SWAP1 DIV PUSH20 0xFFFFFFFFFFFFFFFFFFFFFFFFFFFFFFFFFFFFFFFF AND SWAP1 POP PUSH0 PUSH1 0x1 SWAP1 POP JUMPDEST PUSH1 0xA DUP2 PUSH1 0xFF AND GT PUSH2 0xE5A JUMPI PUSH0 PUSH20 0xFFFFFFFFFFFFFFFFFFFFFFFFFFFFFFFFFFFFFFFF AND DUP3 PUSH20 0xFFFFFFFFFFFFFFFFFFFFFFFFFFFFFFFFFFFFFFFF AND SUB ISZERO PUSH2 0xE5A JUMPI PUSH2 0xD02 DUP3 DUP3 PUSH2 0x83E JUMP JUMPDEST ISZERO PUSH2 0xDE6 JUMPI PUSH0 PUSH1 0x64 PUSH1 0x2 PUSH0 DUP5 PUSH1 0xFF AND PUSH1 0xFF AND DUP2 MSTORE PUSH1 0x20 ADD SWAP1 DUP2 MSTORE PUSH1 0x20 ADD PUSH0 KECCAK256 SLOAD DUP6 PUSH2 0xD2D SWAP2 SWAP1 PUSH2 0x1417 JUMP JUMPDEST PUSH2 0xD37 SWAP2 SWAP1 PUSH2 0x1485 JUMP JUMPDEST SWAP1 POP DUP3 PUSH20 0xFFFFFFFFFFFFFFFFFFFFFFFFFFFFFFFFFFFFFFFF AND PUSH2 0x8FC DUP3 SWAP1 DUP2 ISZERO MUL SWAP1 PUSH1 0x40 MLOAD PUSH0 PUSH1 0x40 MLOAD DUP1 DUP4 SUB DUP2 DUP6 DUP9 DUP9 CALL SWAP4 POP POP POP POP ISZERO DUP1 ISZERO PUSH2 0xD7C JUMPI RETURNDATASIZE PUSH0 DUP1 RETURNDATACOPY RETURNDATASIZE PUSH0 REVERT JUMPDEST POP DUP3 PUSH20 0xFFFFFFFFFFFFFFFFFFFFFFFFFFFFFFFFFFFFFFFF AND DUP6 PUSH20 0xFFFFFFFFFFFFFFFFFFFFFFFFFFFFFFFFFFFFFFFF AND PUSH32 0xB16479BDAC5B7099D9236D6FC6BE3B30FF54188F4FD961686E1E1DC7ECB88037 DUP5 DUP5 PUSH1 0x40 MLOAD PUSH2 0xDDC SWAP3 SWAP2 SWAP1 PUSH2 0x14C4 JUMP JUMPDEST PUSH1 0x40 MLOAD DUP1 SWAP2 SUB SWAP1 LOG3 POP JUMPDEST PUSH1 0x1 PUSH0 DUP4 PUSH20 0xFFFFFFFFFFFFFFFFFFFFFFFFFFFFFFFFFFFFFFFF AND PUSH20 0xFFFFFFFFFFFFFFFFFFFFFFFFFFFFFFFFFFFFFFFF AND DUP2 MSTORE PUSH1 0x20 ADD SWAP1 DUP2 MSTORE PUSH1 0x20 ADD PUSH0 KECCAK256 PUSH0 ADD PUSH0 SWAP1 SLOAD SWAP1 PUSH2 0x100 EXP SWAP1 DIV PUSH20 0xFFFFFFFFFFFFFFFFFFFFFFFFFFFFFFFFFFFFFFFF AND SWAP2 POP DUP1 DUP1 PUSH2 0xE52 SWAP1 PUSH2 0x14EB JUMP JUMPDEST SWAP2 POP POP PUSH2 0xCB9 JUMP JUMPDEST POP PUSH0 SELFBALANCE SWAP1 POP PUSH0 DUP2 GT ISZERO PUSH2 0xECB JUMPI PUSH0 DUP1 SLOAD SWAP1 PUSH2 0x100 EXP SWAP1 DIV PUSH20 0xFFFFFFFFFFFFFFFFFFFFFFFFFFFFFFFFFFFFFFFF AND PUSH20 0xFFFFFFFFFFFFFFFFFFFFFFFFFFFFFFFFFFFFFFFF AND PUSH2 0x8FC DUP3 SWAP1 DUP2 ISZERO MUL SWAP1 PUSH1 0x40 MLOAD PUSH0 PUSH1 0x40 MLOAD DUP1 DUP4 SUB DUP2 DUP6 DUP9 DUP9 CALL SWAP4 POP POP POP POP ISZERO DUP1 ISZERO PUSH2 0xEC9 JUMPI RETURNDATASIZE PUSH0 DUP1 RETURNDATACOPY RETURNDATASIZE PUSH0 REVERT JUMPDEST POP JUMPDEST POP POP POP POP JUMP JUMPDEST PUSH0 DUP1 REVERT JUMPDEST PUSH0 PUSH20 0xFFFFFFFFFFFFFFFFFFFFFFFFFFFFFFFFFFFFFFFF DUP3 AND SWAP1 POP SWAP2 SWAP1 POP JUMP JUMPDEST PUSH0 PUSH2 0xEFE DUP3 PUSH2 0xED5 JUMP JUMPDEST SWAP1 POP SWAP2 SWAP1 POP JUMP JUMPDEST PUSH2 0xF0E DUP2 PUSH2 0xEF4 JUMP JUMPDEST DUP2 EQ PUSH2 0xF18 JUMPI PUSH0 DUP1 REVERT JUMPDEST POP JUMP JUMPDEST PUSH0 DUP2 CALLDATALOAD SWAP1 POP PUSH2 0xF29 DUP2 PUSH2 0xF05 JUMP JUMPDEST SWAP3 SWAP2 POP POP JUMP JUMPDEST PUSH0 PUSH1 0x20 DUP3 DUP5 SUB SLT ISZERO PUSH2 0xF44 JUMPI PUSH2 0xF43 PUSH2 0xED1 JUMP JUMPDEST JUMPDEST PUSH0 PUSH2 0xF51 DUP5 DUP3 DUP6 ADD PUSH2 0xF1B JUMP JUMPDEST SWAP2 POP POP SWAP3 SWAP2 POP POP JUMP JUMPDEST PUSH0 PUSH1 0xFF DUP3 AND SWAP1 POP SWAP2 SWAP1 POP JUMP JUMPDEST PUSH2 0xF6F DUP2 PUSH2 0xF5A JUMP JUMPDEST DUP2 EQ PUSH2 0xF79 JUMPI PUSH0 DUP1 REVERT JUMPDEST POP JUMP JUMPDEST PUSH0 DUP2 CALLDATALOAD SWAP1 POP PUSH2 0xF8A DUP2 PUSH2 0xF66 JUMP JUMPDEST SWAP3 SWAP2 POP POP JUMP JUMPDEST PUSH0 PUSH1 0x20 DUP3 DUP5 SUB SLT ISZERO PUSH2 0xFA5 JUMPI PUSH2 0xFA4 PUSH2 0xED1 JUMP JUMPDEST JUMPDEST PUSH0 PUSH2 0xFB2 DUP5 DUP3 DUP6 ADD PUSH2 0xF7C JUMP JUMPDEST SWAP2 POP POP SWAP3 SWAP2 POP POP JUMP JUMPDEST PUSH0 DUP2 SWAP1 POP SWAP2 SWAP1 POP JUMP JUMPDEST PUSH2 0xFCD DUP2 PUSH2 0xFBB JUMP JUMPDEST DUP3 MSTORE POP POP JUMP JUMPDEST PUSH0 PUSH1 0x20 DUP3 ADD SWAP1 POP PUSH2 0xFE6 PUSH0 DUP4 ADD DUP5 PUSH2 0xFC4 JUMP JUMPDEST SWAP3 SWAP2 POP POP JUMP JUMPDEST PUSH2 0xFF5 DUP2 PUSH2 0xEF4 JUMP JUMPDEST DUP3 MSTORE POP POP JUMP JUMPDEST PUSH0 PUSH1 0x80 DUP3 ADD SWAP1 POP PUSH2 0x100E PUSH0 DUP4 ADD DUP8 PUSH2 0xFEC JUMP JUMPDEST PUSH2 0x101B PUSH1 0x20 DUP4 ADD DUP7 PUSH2 0xFC4 JUMP JUMPDEST PUSH2 0x1028 PUSH1 0x40 DUP4 ADD DUP6 PUSH2 0xFC4 JUMP JUMPDEST PUSH2 0x1035 PUSH1 0x60 DUP4 ADD DUP5 PUSH2 0xFC4 JUMP JUMPDEST SWAP6 SWAP5 POP POP POP POP POP JUMP JUMPDEST PUSH0 DUP2 MLOAD SWAP1 POP SWAP2 SWAP1 POP JUMP JUMPDEST PUSH0 DUP3 DUP3 MSTORE PUSH1 0x20 DUP3 ADD SWAP1 POP SWAP3 SWAP2 POP POP JUMP JUMPDEST PUSH0 DUP2 SWAP1 POP PUSH1 0x20 DUP3 ADD SWAP1 POP SWAP2 SWAP1 POP JUMP JUMPDEST PUSH2 0x1070 DUP2 PUSH2 0xEF4 JUMP JUMPDEST DUP3 MSTORE POP POP JUMP JUMPDEST PUSH0 PUSH2 0x1081 DUP4 DUP4 PUSH2 0x1067 JUMP JUMPDEST PUSH1 0x20 DUP4 ADD SWAP1 POP SWAP3 SWAP2 POP POP JUMP JUMPDEST PUSH0 PUSH1 0x20 DUP3 ADD SWAP1 POP SWAP2 SWAP1 POP JUMP JUMPDEST PUSH0 PUSH2 0x10A3 DUP3 PUSH2 0x103E JUMP JUMPDEST PUSH2 0x10AD DUP2 DUP6 PUSH2 0x1048 JUMP JUMPDEST SWAP4 POP PUSH2 0x10B8 DUP4 PUSH2 0x1058 JUMP JUMPDEST DUP1 PUSH0 JUMPDEST DUP4 DUP2 LT ISZERO PUSH2 0x10E8 JUMPI DUP2 MLOAD PUSH2 0x10CF DUP9 DUP3 PUSH2 0x1076 JUMP JUMPDEST SWAP8 POP PUSH2 0x10DA DUP4 PUSH2 0x108D JUMP JUMPDEST SWAP3 POP POP PUSH1 0x1 DUP2 ADD SWAP1 POP PUSH2 0x10BB JUMP JUMPDEST POP DUP6 SWAP4 POP POP POP POP SWAP3 SWAP2 POP POP JUMP JUMPDEST PUSH0 PUSH1 0x20 DUP3 ADD SWAP1 POP DUP2 DUP2 SUB PUSH0 DUP4 ADD MSTORE PUSH2 0x110D DUP2 DUP5 PUSH2 0x1099 JUMP JUMPDEST SWAP1 POP SWAP3 SWAP2 POP POP JUMP JUMPDEST PUSH0 DUP1 PUSH1 0x40 DUP4 DUP6 SUB SLT ISZERO PUSH2 0x112B JUMPI PUSH2 0x112A PUSH2 0xED1 JUMP JUMPDEST JUMPDEST PUSH0 PUSH2 0x1138 DUP6 DUP3 DUP7 ADD PUSH2 0xF1B JUMP JUMPDEST SWAP3 POP POP PUSH1 0x20 PUSH2 0x1149 DUP6 DUP3 DUP7 ADD PUSH2 0xF7C JUMP JUMPDEST SWAP2 POP POP SWAP3 POP SWAP3 SWAP1 POP JUMP JUMPDEST PUSH0 DUP2 ISZERO ISZERO SWAP1 POP SWAP2 SWAP1 POP JUMP JUMPDEST PUSH2 0x1167 DUP2 PUSH2 0x1153 JUMP JUMPDEST DUP3 MSTORE POP POP JUMP JUMPDEST PUSH0 PUSH1 0x20 DUP3 ADD SWAP1 POP PUSH2 0x1180 PUSH0 DUP4 ADD DUP5 PUSH2 0x115E JUMP JUMPDEST SWAP3 SWAP2 POP POP JUMP JUMPDEST PUSH0 PUSH1 0x20 DUP3 ADD SWAP1 POP PUSH2 0x1199 PUSH0 DUP4 ADD DUP5 PUSH2 0xFEC JUMP JUMPDEST SWAP3 SWAP2 POP POP JUMP JUMPDEST PUSH0 DUP3 DUP3 MSTORE PUSH1 0x20 DUP3 ADD SWAP1 POP SWAP3 SWAP2 POP POP JUMP JUMPDEST PUSH32 0x4F6E6C792061646D696E00000000000000000000000000000000000000000000 PUSH0 DUP3 ADD MSTORE POP JUMP JUMPDEST PUSH0 PUSH2 0x11E3 PUSH1 0xA DUP4 PUSH2 0x119F JUMP JUMPDEST SWAP2 POP PUSH2 0x11EE DUP3 PUSH2 0x11AF JUMP JUMPDEST PUSH1 0x20 DUP3 ADD SWAP1 POP SWAP2 SWAP1 POP JUMP JUMPDEST PUSH0 PUSH1 0x20 DUP3 ADD SWAP1 POP DUP2 DUP2 SUB PUSH0 DUP4 ADD MSTORE PUSH2 0x1210 DUP2 PUSH2 0x11D7 JUMP JUMPDEST SWAP1 POP SWAP2 SWAP1 POP JUMP JUMPDEST PUSH32 0x416C726561647920726567697374657265640000000000000000000000000000 PUSH0 DUP3 ADD MSTORE POP JUMP JUMPDEST PUSH0 PUSH2 0x124B PUSH1 0x12 DUP4 PUSH2 0x119F JUMP JUMPDEST SWAP2 POP PUSH2 0x1256 DUP3 PUSH2 0x1217 JUMP JUMPDEST PUSH1 0x20 DUP3 ADD SWAP1 POP SWAP2 SWAP1 POP JUMP JUMPDEST PUSH0 PUSH1 0x20 DUP3 ADD SWAP1 POP DUP2 DUP2 SUB PUSH0 DUP4 ADD MSTORE PUSH2 0x1278 DUP2 PUSH2 0x123F JUMP JUMPDEST SWAP1 POP SWAP2 SWAP1 POP JUMP JUMPDEST PUSH32 0x496E76616C696420726566657272657200000000000000000000000000000000 PUSH0 DUP3 ADD MSTORE POP JUMP JUMPDEST PUSH0 PUSH2 0x12B3 PUSH1 0x10 DUP4 PUSH2 0x119F JUMP JUMPDEST SWAP2 POP PUSH2 0x12BE DUP3 PUSH2 0x127F JUMP JUMPDEST PUSH1 0x20 DUP3 ADD SWAP1 POP SWAP2 SWAP1 POP JUMP JUMPDEST PUSH0 PUSH1 0x20 DUP3 ADD SWAP1 POP DUP2 DUP2 SUB PUSH0 DUP4 ADD MSTORE PUSH2 0x12E0 DUP2 PUSH2 0x12A7 JUMP JUMPDEST SWAP1 POP SWAP2 SWAP1 POP JUMP JUMPDEST PUSH32 0x4E487B7100000000000000000000000000000000000000000000000000000000 PUSH0 MSTORE PUSH1 0x11 PUSH1 0x4 MSTORE PUSH1 0x24 PUSH0 REVERT JUMPDEST PUSH0 PUSH2 0x131E DUP3 PUSH2 0xFBB JUMP JUMPDEST SWAP2 POP PUSH2 0x1329 DUP4 PUSH2 0xFBB JUMP JUMPDEST SWAP3 POP DUP3 DUP3 ADD SWAP1 POP DUP1 DUP3 GT ISZERO PUSH2 0x1341 JUMPI PUSH2 0x1340 PUSH2 0x12E7 JUMP JUMPDEST JUMPDEST SWAP3 SWAP2 POP POP JUMP JUMPDEST PUSH32 0x4E6F742072656769737465726564000000000000000000000000000000000000 PUSH0 DUP3 ADD MSTORE POP JUMP JUMPDEST PUSH0 PUSH2 0x137B PUSH1 0xE DUP4 PUSH2 0x119F JUMP JUMPDEST SWAP2 POP PUSH2 0x1386 DUP3 PUSH2 0x1347 JUMP JUMPDEST PUSH1 0x20 DUP3 ADD SWAP1 POP SWAP2 SWAP1 POP JUMP JUMPDEST PUSH0 PUSH1 0x20 DUP3 ADD SWAP1 POP DUP2 DUP2 SUB PUSH0 DUP4 ADD MSTORE PUSH2 0x13A8 DUP2 PUSH2 0x136F JUMP JUMPDEST SWAP1 POP SWAP2 SWAP1 POP JUMP JUMPDEST PUSH32 0x5A65726F20696E766573746D656E740000000000000000000000000000000000 PUSH0 DUP3 ADD MSTORE POP JUMP JUMPDEST PUSH0 PUSH2 0x13E3 PUSH1 0xF DUP4 PUSH2 0x119F JUMP JUMPDEST SWAP2 POP PUSH2 0x13EE DUP3 PUSH2 0x13AF JUMP JUMPDEST PUSH1 0x20 DUP3 ADD SWAP1 POP SWAP2 SWAP1 POP JUMP JUMPDEST PUSH0 PUSH1 0x20 DUP3 ADD SWAP1 POP DUP2 DUP2 SUB PUSH0 DUP4 ADD MSTORE PUSH2 0x1410 DUP2 PUSH2 0x13D7 JUMP JUMPDEST SWAP1 POP SWAP2 SWAP1 POP JUMP JUMPDEST PUSH0 PUSH2 0x1421 DUP3 PUSH2 0xFBB JUMP JUMPDEST SWAP2 POP PUSH2 0x142C DUP4 PUSH2 0xFBB JUMP JUMPDEST SWAP3 POP DUP3 DUP3 MUL PUSH2 0x143A DUP2 PUSH2 0xFBB JUMP JUMPDEST SWAP2 POP DUP3 DUP3 DIV DUP5 EQ DUP4 ISZERO OR PUSH2 0x1451 JUMPI PUSH2 0x1450 PUSH2 0x12E7 JUMP JUMPDEST JUMPDEST POP SWAP3 SWAP2 POP POP JUMP JUMPDEST PUSH32 0x4E487B7100000000000000000000000000000000000000000000000000000000 PUSH0 MSTORE PUSH1 0x12 PUSH1 0x4 MSTORE PUSH1 0x24 PUSH0 REVERT JUMPDEST PUSH0 PUSH2 0x148F DUP3 PUSH2 0xFBB JUMP JUMPDEST SWAP2 POP PUSH2 0x149A DUP4 PUSH2 0xFBB JUMP JUMPDEST SWAP3 POP DUP3 PUSH2 0x14AA JUMPI PUSH2 0x14A9 PUSH2 0x1458 JUMP JUMPDEST JUMPDEST DUP3 DUP3 DIV SWAP1 POP SWAP3 SWAP2 POP POP JUMP JUMPDEST PUSH2 0x14BE DUP2 PUSH2 0xF5A JUMP JUMPDEST DUP3 MSTORE POP POP JUMP JUMPDEST PUSH0 PUSH1 0x40 DUP3 ADD SWAP1 POP PUSH2 0x14D7 PUSH0 DUP4 ADD DUP6 PUSH2 0x14B5 JUMP JUMPDEST PUSH2 0x14E4 PUSH1 0x20 DUP4 ADD DUP5 PUSH2 0xFC4 JUMP JUMPDEST SWAP4 SWAP3 POP POP POP JUMP JUMPDEST PUSH0 PUSH2 0x14F5 DUP3 PUSH2 0xF5A JUMP JUMPDEST SWAP2 POP PUSH1 0xFF DUP3 SUB PUSH2 0x1508 JUMPI PUSH2 0x1507 PUSH2 0x12E7 JUMP JUMPDEST JUMPDEST PUSH1 0x1 DUP3 ADD SWAP1 POP SWAP2 SWAP1 POP JUMP INVALID LOG2 PUSH5 0x6970667358 0x22 SLT KECCAK256 0x2A SELFDESTRUCT CALLDATALOAD STOP 0xF DUP8 0xD3 0xBF 0xAF CODECOPY DUP6 ISZERO PUSH9 0x10E484D0699EDF96A7 GASLIMIT PUSH29 0x48F2FFCBAD52E2C264736F6C6343000819003300000000000000000000 "
		},
		"gasEstimates": {
			"creation": {
				"codeDepositCost": "1089800",
				"executionCost": "infinite",
				"totalCost": "infinite"
			},
			"external": {
				"_isEligible(address,uint8)": "9675",
				"admin()": "2593",
				"getDirects(address)": "infinite",
				"invest()": "infinite",
				"levelIncome(uint8)": "2805",
				"levelMinDirects(uint8)": "2849",
				"levelMinInvestment(uint8)": "2827",
				"register(address)": "infinite",
				"users(address)": "infinite",
				"withdrawAdmin()": "infinite"
			},
			"internal": {
				"_distributeDirect(address,uint256)": "infinite",
				"_distributeLevels(address,uint256)": "infinite"
			}
		},
		"methodIdentifiers": {
			"_isEligible(address,uint8)": "e7f9afc3",
			"admin()": "f851a440",
			"getDirects(address)": "bd54da73",
			"invest()": "e8b5e51f",
			"levelIncome(uint8)": "54ba8d9f",
			"levelMinDirects(uint8)": "7fc01c39",
			"levelMinInvestment(uint8)": "67983594",
			"register(address)": "4420e486",
			"users(address)": "a87430ba",
			"withdrawAdmin()": "04c76af0"
		}
	},
	"abi": [
		{
			"inputs": [],
			"stateMutability": "nonpayable",
			"type": "constructor"
		},
		{
			"anonymous": false,
			"inputs": [
				{
					"indexed": true,
					"internalType": "address",
					"name": "from",
					"type": "address"
				},
				{
					"indexed": true,
					"internalType": "address",
					"name": "to",
					"type": "address"
				},
				{
					"indexed": false,
					"internalType": "uint256",
					"name": "amount",
					"type": "uint256"
				}
			],
			"name": "DirectIncome",
			"type": "event"
		},
		{
			"anonymous": false,
			"inputs": [
				{
					"indexed": true,
					"internalType": "address",
					"name": "user",
					"type": "address"
				},
				{
					"indexed": false,
					"internalType": "uint256",
					"name": "amount",
					"type": "uint256"
				}
			],
			"name": "Invested",
			"type": "event"
		},
		{
			"anonymous": false,
			"inputs": [
				{
					"indexed": true,
					"internalType": "address",
					"name": "from",
					"type": "address"
				},
				{
					"indexed": true,
					"internalType": "address",
					"name": "to",
					"type": "address"
				},
				{
					"indexed": false,
					"internalType": "uint8",
					"name": "level",
					"type": "uint8"
				},
				{
					"indexed": false,
					"internalType": "uint256",
					"name": "amount",
					"type": "uint256"
				}
			],
			"name": "LevelIncomePaid",
			"type": "event"
		},
		{
			"anonymous": false,
			"inputs": [
				{
					"indexed": true,
					"internalType": "address",
					"name": "user",
					"type": "address"
				},
				{
					"indexed": true,
					"internalType": "address",
					"name": "referrer",
					"type": "address"
				}
			],
			"name": "Registered",
			"type": "event"
		},
		{
			"inputs": [
				{
					"internalType": "address",
					"name": "_user",
					"type": "address"
				},
				{
					"internalType": "uint8",
					"name": "_level",
					"type": "uint8"
				}
			],
			"name": "_isEligible",
			"outputs": [
				{
					"internalType": "bool",
					"name": "",
					"type": "bool"
				}
			],
			"stateMutability": "view",
			"type": "function"
		},
		{
			"inputs": [],
			"name": "admin",
			"outputs": [
				{
					"internalType": "address",
					"name": "",
					"type": "address"
				}
			],
			"stateMutability": "view",
			"type": "function"
		},
		{
			"inputs": [
				{
					"internalType": "address",
					"name": "_user",
					"type": "address"
				}
			],
			"name": "getDirects",
			"outputs": [
				{
					"internalType": "address[]",
					"name": "",
					"type": "address[]"
				}
			],
			"stateMutability": "view",
			"type": "function"
		},
		{
			"inputs": [],
			"name": "invest",
			"outputs": [],
			"stateMutability": "payable",
			"type": "function"
		},
		{
			"inputs": [
				{
					"internalType": "uint8",
					"name": "",
					"type": "uint8"
				}
			],
			"name": "levelIncome",
			"outputs": [
				{
					"internalType": "uint256",
					"name": "",
					"type": "uint256"
				}
			],
			"stateMutability": "view",
			"type": "function"
		},
		{
			"inputs": [
				{
					"internalType": "uint8",
					"name": "",
					"type": "uint8"
				}
			],
			"name": "levelMinDirects",
			"outputs": [
				{
					"internalType": "uint256",
					"name": "",
					"type": "uint256"
				}
			],
			"stateMutability": "view",
			"type": "function"
		},
		{
			"inputs": [
				{
					"internalType": "uint8",
					"name": "",
					"type": "uint8"
				}
			],
			"name": "levelMinInvestment",
			"outputs": [
				{
					"internalType": "uint256",
					"name": "",
					"type": "uint256"
				}
			],
			"stateMutability": "view",
			"type": "function"
		},
		{
			"inputs": [
				{
					"internalType": "address",
					"name": "_referrer",
					"type": "address"
				}
			],
			"name": "register",
			"outputs": [],
			"stateMutability": "nonpayable",
			"type": "function"
		},
		{
			"inputs": [
				{
					"internalType": "address",
					"name": "",
					"type": "address"
				}
			],
			"name": "users",
			"outputs": [
				{
					"internalType": "address",
					"name": "referrer",
					"type": "address"
				},
				{
					"internalType": "uint256",
					"name": "selfInvestment",
					"type": "uint256"
				},
				{
					"internalType": "uint256",
					"name": "directCount",
					"type": "uint256"
				},
				{
					"internalType": "uint256",
					"name": "registrationTime",
					"type": "uint256"
				}
			],
			"stateMutability": "view",
			"type": "function"
		},
		{
			"inputs": [],
			"name": "withdrawAdmin",
			"outputs": [],
			"stateMutability": "nonpayable",
			"type": "function"
		}
	]
}