{
	"data": {
		"bytecode": {
			"linkReferences": {},
			"object": "61012060405260056080818152600360a052600260c052600160e08190526101005261002e9160099190610190565b5034801561003a575f5ffd5b506040516135f63803806135f683398101604081905261005991610234565b5f8054336001600160a01b031991821681178355600280549092166001600160a01b039490941693909317815591815260036020908152604082206004908101805460ff191660019081179091556006928390527fb6ba906ff52451a7a924e2eaeb8aea3ebee7350a8703e5e417edb25358c7dcc1557f6ca6dcafc04b6e03616746c3528366f990e332021e35d59275be746d65cae0a7939093557f1727c0104c2870c3003671480695f7dab262614528b49265008e76fd3d48c5fe929092557f5451fe6494362676ddb91456d9957c85d968e6f82956407c931a14c023049e6a9190915560097ffb78eb295a86b096b5f095822bd250a277112be4103ea4a7608d96eca726b2c15561016d905260147f0bbf8adea84d189c39869a372ab30aeba9246eea044edc5a37ac100921b2c4e155610261565b600183019183908215610210579160200282015f5b838211156101e257835183826101000a81548160ff021916908360ff16021790555092602001926001016020815f010492830192600103026101a5565b801561020e5782816101000a81549060ff02191690556001016020815f010492830192600103026101e2565b505b5061021c929150610220565b5090565b5b8082111561021c575f8155600101610221565b5f60208284031215610244575f5ffd5b81516001600160a01b038116811461025a575f5ffd5b9392505050565b6133888061026e5f395ff3fe608060405234801561000f575f5ffd5b50600436106101f2575f3560e01c806398278efb11610114578063c2d3c677116100a9578063d85c896611610079578063d85c8966146105bf578063e45a57d0146105d2578063ef71ae56146105e5578063f6e8887314610605578063f7b17d1014610624575f5ffd5b8063c2d3c67714610543578063c3c5a5471461056e578063c5b89c0a14610306578063cb6f37ab146105ac575f5ffd5b8063a87430ba116100e4578063a87430ba14610471578063a98ad46c146104e0578063aa7ed462146104f3578063bd2971781461051b575f5ffd5b806398278efb1461040c5780639be572f6146104345780639d747bad1461043c578063a2bdedf41461045e575f5ffd5b80635bd4e16a1161018a578063797c7f5f1161015a578063797c7f5f1461036e5780637b0472f0146103c8578063875bb4e2146103db5780638da5cb5b146103fa575f5ffd5b80635bd4e16a14610306578063656596a5146103405780636c8c2156146103535780636f9fb98a14610366575f5ffd5b8063379607f5116101c5578063379607f5146102b85780633ea521ef146102cd5780634420e486146102e05780634850d2a2146102f3575f5ffd5b806305ad3935146101f65780631e43eb271461023357806321923bde1461027357806328fe703114610298575b5f5ffd5b610209610204366004612f2f565b61062d565b604080516001600160a01b0390941684526020840192909252908201526060015b60405180910390f35b61025b610241366004612f57565b60056020525f90815260409020546001600160a01b031681565b6040516001600160a01b03909116815260200161022a565b610286610281366004612f6e565b610675565b60405160ff909116815260200161022a565b6102ab6102a6366004612f6e565b6106c8565b60405161022a9190612fc8565b6102cb6102c6366004612f57565b61079e565b005b6102cb6102db366004612f57565b610dbe565b6102cb6102ee366004612f6e565b610e90565b6102cb610301366004612fda565b6110eb565b610332610314366004612f6e565b6001600160a01b03165f908152600360208190526040909120015490565b60405190815260200161022a565b6102cb61034e36600461301e565b611167565b6102cb610361366004612f57565b61119d565b6103326115e9565b61038161037c366004612f57565b611658565b604080516001600160a01b0390991689526020890197909752958701949094526060860192909252608085015260a084015260c0830152151560e08201526101000161022a565b6102cb6103d6366004612fda565b6118b3565b6103326103e9366004612f57565b60066020525f908152604090205481565b5f5461025b906001600160a01b031681565b61033261041a366004612f6e565b6001600160a01b03165f9081526004602052604090205490565b600854610332565b61044f61044a366004612f6e565b61243f565b60405161022a9392919061309f565b61025b61046c366004612f57565b61262c565b6104b461047f366004612f6e565b600360208190525f918252604090912080546002820154928201546004909201546001600160a01b0390911692919060ff1684565b604080516001600160a01b0390951685526020850193909352918301521515606082015260800161022a565b60025461025b906001600160a01b031681565b610332610501366004612f6e565b6001600160a01b03165f9081526007602052604090205490565b61052e610529366004612fda565b612654565b6040805192835260208301919091520161022a565b610332610551366004612f6e565b6001600160a01b03165f9081526003602052604090206002015490565b61059c61057c366004612f6e565b6001600160a01b03165f9081526003602052604090206004015460ff1690565b604051901515815260200161022a565b61025b6105ba366004612f6e565b6127a4565b6102cb6105cd366004612f2f565b612822565b6102866105e0366004612f57565b6129b0565b6105f86105f3366004612f6e565b6129d9565b60405161022a9190613114565b610332610613366004612f6e565b60076020525f908152604090205481565b61033260015481565b6004602052815f5260405f208181548110610646575f80fd5b5f9182526020909120600390910201805460018201546002909201546001600160a01b03909116935090915083565b6001600160a01b0381165f90815260046020526040812054600a811061069e5750600392915050565b600581106106af5750600292915050565b600181106106c05750600192915050565b505f92915050565b6001600160a01b0381165f908152600360205260408120600101546060918167ffffffffffffffff8111156106ff576106ff612ffa565b604051908082528060200260200182016040528015610728578160200160208202803683370190505b5090505f5b82811015610796576001600160a01b0385165f908152600360205260409020600101805482908110610761576107616131ad565b905f5260205f20906006020160010154828281518110610783576107836131ad565b602090810291909101015260010161072d565b509392505050565b335f9081526003602052604090206004015460ff166107d85760405162461bcd60e51b81526004016107cf906131c1565b60405180910390fd5b335f818152600360205260408120906001820190805b8254811015610d5e578583828154811061080a5761080a6131ad565b905f5260205f2090600602016001015414801561084c5750828181548110610834576108346131ad565b5f91825260209091206005600690920201015460ff16155b15610d5657828181548110610863576108636131ad565b905f5260205f209060060201600401546201518061088191906131fd565b838281548110610893576108936131ad565b905f5260205f209060060201600301546108ad919061321a565b4210156108fc5760405162461bcd60e51b815260206004820181905260248201527f5374616b696e6720706572696f64206e6f742079657420636f6d706c6574656460448201526064016107cf565b5f60065f858481548110610912576109126131ad565b905f5260205f2090600602016004015481526020019081526020015f205490505f848381548110610945576109456131ad565b905f5260205f20906006020160040154601e036109655750610bb8610aa8565b848381548110610977576109776131ad565b905f5260205f20906006020160040154603c036109975750611770610aa8565b8483815481106109a9576109a96131ad565b905f5260205f20906006020160040154605a036109c95750612328610aa8565b8483815481106109db576109db6131ad565b905f5260205f209060060201600401546078036109fb5750612ee0610aa8565b848381548110610a0d57610a0d6131ad565b905f5260205f2090600602016004015460b403610a2d5750614650610aa8565b848381548110610a3f57610a3f6131ad565b905f5260205f2090600602016004015461016d03610a605750618e94610aa8565b60405162461bcd60e51b815260206004820152601c60248201527f556e737570706f72746564207374616b696e67206475726174696f6e0000000060448201526064016107cf565b5f81868581548110610abc57610abc6131ad565b905f5260205f2090600602016004015484888781548110610adf57610adf6131ad565b905f5260205f20906006020160020154610af991906131fd565b610b0391906131fd565b610b0d919061322d565b90505f81878681548110610b2357610b236131ad565b905f5260205f20906006020160020154610b3d919061321a565b6002546040516370a0823160e01b815230600482015291925082916001600160a01b03909116906370a0823190602401602060405180830381865afa158015610b88573d5f5f3e3d5ffd5b505050506040513d601f19601f82011682018060405250810190610bac919061324c565b1015610bca5760405162461bcd60e51b81526004016107cf90613263565b6001878681548110610bde57610bde6131ad565b5f9182526020822060069190910201600501805460ff19169215159290921790915560025460405163a9059cbb60e01b81526001600160a01b038c81166004830152602482018590529091169063a9059cbb906044016020604051808303815f875af1158015610c50573d5f5f3e3d5ffd5b505050506040513d601f19601f82011682018060405250810190610c74919061329a565b905080610cba5760405162461bcd60e51b81526020600482015260146024820152731554d115081d1c985b9cd9995c8819985a5b195960621b60448201526064016107cf565b896001600160a01b03167f9cdcf2f7714cca3508c7f0110b04a90a80a3a8dd0e35de99689db74d28c5383e898881548110610cf757610cf76131ad565b905f5260205f2090600602015f01548a8981548110610d1857610d186131ad565b5f91825260209182902060026006909202010154604080519384529183015281018690526060015b60405180910390a2600196505050505050610d5e565b6001016107ee565b5080610db75760405162461bcd60e51b815260206004820152602260248201527f5374616b65206e6f7420666f756e64206f7220616c726561647920636c61696d604482015261195960f21b60648201526084016107cf565b5050505050565b5f546001600160a01b03163314610e175760405162461bcd60e51b815260206004820152601760248201527f4f6e6c79206f776e65722063616e20776974686472617700000000000000000060448201526064016107cf565b6002545f5460405163a9059cbb60e01b81526001600160a01b0391821660048201526024810184905291169063a9059cbb906044016020604051808303815f875af1158015610e68573d5f5f3e3d5ffd5b505050506040513d601f19601f82011682018060405250810190610e8c919061329a565b5050565b335f9081526003602052604090206004015460ff1615610ee75760405162461bcd60e51b8152602060048201526012602482015271105b1c9958591e481c9959da5cdd195c995960721b60448201526064016107cf565b336001600160a01b03821603610f375760405162461bcd60e51b815260206004820152601560248201527421b0b73737ba103932b332b9103cb7bab939b2b63360591b60448201526064016107cf565b6001600160a01b0381165f9081526003602052604090206004015460ff16610fa15760405162461bcd60e51b815260206004820152601760248201527f5265666572726572206e6f74207265676973746572656400000000000000000060448201526064016107cf565b6001600160a01b0381165f9081526003602052604090206001015461101c5760405162461bcd60e51b815260206004820152602b60248201527f5265666572726572206d757374207374616b65206265666f726520796f75206360448201526a30b7103932b3b4b9ba32b960a91b60648201526084016107cf565b335f81815260036020818152604080842080546001600160a01b039788166001600160a01b0319918216811783556004928301805460ff19166001908117909155600880548083019091557ff3f7a9fe364faab93b216da50a3214154f22a0a2b415b23a84c8169e8b636ee301805484168a17905590875291845282862083516060810185529788528785018781524294890194855281548085018355918852949096209651959094029095018054949096169390921692909217845590519183019190915551600290910155565b5f546001600160a01b031633146111145760405162461bcd60e51b81526004016107cf906132b9565b5f82116111565760405162461bcd60e51b815260206004820152601060248201526f044617973206d757374206265203e20360841b60448201526064016107cf565b5f9182526006602052604090912055565b5f546001600160a01b031633146111905760405162461bcd60e51b81526004016107cf906132b9565b610e8c6009826005612e70565b335f9081526003602052604090206004015460ff166111ce5760405162461bcd60e51b81526004016107cf906131c1565b335f818152600360205260408120906001820190805b8254811015610d5e5785838281548110611200576112006131ad565b905f5260205f20906006020160010154148015611242575082818154811061122a5761122a6131ad565b5f91825260209091206005600690920201015460ff16155b156115e157828181548110611259576112596131ad565b905f5260205f20906006020160030154621a5e00611277919061321a565b4210156112d95760405162461bcd60e51b815260206004820152602a60248201527f456d657267656e637920636c61696d20616c6c6f776564206f6e6c79206166746044820152696572203130206461797360b01b60648201526084016107cf565b5f8382815481106112ec576112ec6131ad565b5f91825260208220600260069092020101549150606461130d8360056131fd565b611317919061322d565b90505f61132482846132f0565b6002546040516370a0823160e01b815230600482015291925084916001600160a01b03909116906370a0823190602401602060405180830381865afa15801561136f573d5f5f3e3d5ffd5b505050506040513d601f19601f82011682018060405250810190611393919061324c565b10156113b15760405162461bcd60e51b81526004016107cf90613263565b60018685815481106113c5576113c56131ad565b5f9182526020822060069190910201600501805460ff19169215159290921790915560025460405163a9059cbb60e01b81526001600160a01b038b81166004830152602482018590529091169063a9059cbb906044016020604051808303815f875af1158015611437573d5f5f3e3d5ffd5b505050506040513d601f19601f8201168201806040525081019061145b919061329a565b9050806114a15760405162461bcd60e51b8152602060048201526014602482015273155cd95c881d1c985b9cd9995c8819985a5b195960621b60448201526064016107cf565b60025460405163a9059cbb60e01b815273eef21d3e729763275415156b3a96dc26f371753e6004820152602481018590525f916001600160a01b03169063a9059cbb906044016020604051808303815f875af1158015611503573d5f5f3e3d5ffd5b505050506040513d601f19601f82011682018060405250810190611527919061329a565b9050806115765760405162461bcd60e51b815260206004820152601960248201527f41646d696e20666565207472616e73666572206661696c65640000000000000060448201526064016107cf565b896001600160a01b03167f9cdcf2f7714cca3508c7f0110b04a90a80a3a8dd0e35de99689db74d28c5383e8988815481106115b3576115b36131ad565b5f9182526020822060069091020154604051610d409288919283526020830191909152604082015260600190565b6001016111e4565b6002546040516370a0823160e01b81523060048201525f916001600160a01b0316906370a0823190602401602060405180830381865afa15801561162f573d5f5f3e3d5ffd5b505050506040513d601f19601f82011682018060405250810190611653919061324c565b905090565b5f8181526005602052604081205481908190819081908190819081906001600160a01b0316806116bf5760405162461bcd60e51b8152602060048201526012602482015271125b9d985b1a59081c1bdcda5d1a5bdb925960721b60448201526064016107cf565b6001600160a01b0381165f90815260036020908152604080832060010180548251818502810185019093528083529192909190849084015b82821015611763575f8481526020908190206040805160c08101825260068602909201805483526001808201548486015260028201549284019290925260038101546060840152600481015460808401526005015460ff16151560a083015290835290920191016116f7565b509293505f925050505b815181101561186d578b828281518110611789576117896131ad565b60200260200101516020015103611865575f8282815181106117ad576117ad6131ad565b602002602001015190505f60065f836080015181526020019081526020015f205490505f8260800151620151806117e491906131fd565b83606001516117f3919061321a565b90505f8360a0015115801561180757508142105b90505f61016d606485876040015161181f91906131fd565b611829919061322d565b611833919061322d565b905087855f015186604001518760600151868886889f509f509f509f509f509f509f509f5050505050505050506118a8565b60010161176d565b5060405162461bcd60e51b815260206004820152600f60248201526e14dd185ad9481b9bdd08199bdd5b99608a1b60448201526064016107cf565b919395975091939597565b335f9081526003602052604090206004015460ff166118e45760405162461bcd60e51b81526004016107cf906131c1565b5f811161193f5760405162461bcd60e51b815260206004820152602360248201527f5374616b6520616d6f756e74206d75737420626520677265617465722074686160448201526206e20360ec1b60648201526084016107cf565b5f828152600660205260409020546119945760405162461bcd60e51b815260206004820152601860248201527724b73b30b634b21039ba30b5b4b73390323ab930ba34b7b760411b60448201526064016107cf565b335f908152600360205260409020546001600160a01b03168015611a2a576001600160a01b0381165f90815260036020526040902060010154611a2a5760405162461bcd60e51b815260206004820152602860248201527f5265666572726572206d757374207374616b65206265666f726520796f752063604482015267616e207374616b6560c01b60648201526084016107cf565b6002546040516323b872dd60e01b8152336004820152306024820152604481018490525f916001600160a01b0316906323b872dd906064016020604051808303815f875af1158015611a7e573d5f5f3e3d5ffd5b505050506040513d601f19601f82011682018060405250810190611aa2919061329a565b905080611ae85760405162461bcd60e51b81526020600482015260146024820152731554d115081d1c985b9cd9995c8819985a5b195960621b60448201526064016107cf565b5f60015f8154611af790613303565b919050819055905060035f336001600160a01b03166001600160a01b031681526020019081526020015f206001016040518060c0016040528060015481526020018381526020018681526020014281526020018781526020015f1515815250908060018154018082558091505060019003905f5260205f2090600602015f909190919091505f820151815f01556020820151816001015560408201518160020155606082015181600301556080820151816004015560a0820151816005015f6101000a81548160ff02191690831515021790555050503360055f8381526020019081526020015f205f6101000a8154816001600160a01b0302191690836001600160a01b031602179055505f60035f336001600160a01b03166001600160a01b031681526020019081526020015f206001018054905060011490505f60035f336001600160a01b03166001600160a01b031681526020019081526020015f205f015f9054906101000a90046001600160a01b031690505f5f90505b60058160ff16108015611c8d57506001600160a01b03821615155b15612435575f60ff82168103612218578315612026575f6064611cb18a60056131fd565b611cbb919061322d565b90505f6064611ccb8b60056131fd565b611cd5919061322d565b9050611ce1818361321a565b6002546040516370a0823160e01b81523060048201526001600160a01b03909116906370a0823190602401602060405180830381865afa158015611d27573d5f5f3e3d5ffd5b505050506040513d601f19601f82011682018060405250810190611d4b919061324c565b1015611d695760405162461bcd60e51b81526004016107cf90613263565b60025460405163a9059cbb60e01b81526001600160a01b038781166004830152602482018590529091169063a9059cbb906044016020604051808303815f875af1158015611db9573d5f5f3e3d5ffd5b505050506040513d601f19601f82011682018060405250810190611ddd919061329a565b611e295760405162461bcd60e51b815260206004820152601f60248201527f44697265637420726566657272616c207472616e73666572206661696c65640060448201526064016107cf565b60025460405163a9059cbb60e01b81526001600160a01b038781166004830152602482018490529091169063a9059cbb906044016020604051808303815f875af1158015611e79573d5f5f3e3d5ffd5b505050506040513d601f19601f82011682018060405250810190611e9d919061329a565b611ee95760405162461bcd60e51b815260206004820152601e60248201527f4c6576656c203120726577617264207472616e73666572206661696c6564000060448201526064016107cf565b6001600160a01b0385165f9081526007602052604081208054849290611f1090849061321a565b90915550611f209050818361321a565b6001600160a01b0386165f9081526003602052604081206002018054909190611f4a90849061321a565b90915550506001600160a01b0385165f9081526003602081905260408220018054839290611f7990849061321a565b90915550506001600160a01b0385165f908152600460205260408120905b815481101561201d57336001600160a01b0316828281548110611fbc57611fbc6131ad565b5f9182526020909120600390910201546001600160a01b0316036120155783828281548110611fed57611fed6131ad565b905f5260205f2090600302016001015f82825461200a919061321a565b9091555061201d9050565b600101611f97565b50505050612405565b606460098360ff166005811061203e5761203e6131ad565b60208104919091015461205d91601f166101000a900460ff168a6131fd565b612067919061322d565b6002546040516370a0823160e01b815230600482015291925082916001600160a01b03909116906370a0823190602401602060405180830381865afa1580156120b2573d5f5f3e3d5ffd5b505050506040513d601f19601f820116820180604052508101906120d6919061324c565b10156120f45760405162461bcd60e51b81526004016107cf90613263565b60025460405163a9059cbb60e01b81526001600160a01b038581166004830152602482018490529091169063a9059cbb906044016020604051808303815f875af1158015612144573d5f5f3e3d5ffd5b505050506040513d601f19601f82011682018060405250810190612168919061329a565b6121b45760405162461bcd60e51b815260206004820152601e60248201527f4c6576656c203120726577617264207472616e73666572206661696c6564000060448201526064016107cf565b6001600160a01b0383165f90815260036020526040812060020180548392906121de90849061321a565b90915550506001600160a01b0383165f908152600360208190526040822001805483929061220d90849061321a565b909155506124059050565b606460098360ff1660058110612230576122306131ad565b60208104919091015461224f91601f166101000a900460ff168a6131fd565b612259919061322d565b6002546040516370a0823160e01b815230600482015291925082916001600160a01b03909116906370a0823190602401602060405180830381865afa1580156122a4573d5f5f3e3d5ffd5b505050506040513d601f19601f820116820180604052508101906122c8919061324c565b10156122e65760405162461bcd60e51b81526004016107cf90613263565b60025460405163a9059cbb60e01b81526001600160a01b038581166004830152602482018490529091169063a9059cbb906044016020604051808303815f875af1158015612336573d5f5f3e3d5ffd5b505050506040513d601f19601f8201168201806040525081019061235a919061329a565b6123a65760405162461bcd60e51b815260206004820152601c60248201527f4c6576656c20726577617264207472616e73666572206661696c65640000000060448201526064016107cf565b6001600160a01b0383165f90815260036020526040812060020180548392906123d090849061321a565b90915550506001600160a01b0383165f90815260036020819052604082200180548392906123ff90849061321a565b90915550505b506001600160a01b039182165f90815260036020526040902054909116908061242d8161331b565b915050611c72565b5050505050505050565b6001600160a01b0381165f908152600460205260409020805460609182918291908067ffffffffffffffff81111561247957612479612ffa565b6040519080825280602002602001820160405280156124a2578160200160208202803683370190505b5094508067ffffffffffffffff8111156124be576124be612ffa565b6040519080825280602002602001820160405280156124e7578160200160208202803683370190505b5093508067ffffffffffffffff81111561250357612503612ffa565b60405190808252806020026020018201604052801561252c578160200160208202803683370190505b5092505f5b818110156126225782818154811061254b5761254b6131ad565b5f91825260209091206003909102015486516001600160a01b039091169087908390811061257b5761257b6131ad565b60200260200101906001600160a01b031690816001600160a01b0316815250508281815481106125ad576125ad6131ad565b905f5260205f209060030201600101548582815181106125cf576125cf6131ad565b6020026020010181815250508281815481106125ed576125ed6131ad565b905f5260205f2090600302016002015484828151811061260f5761260f6131ad565b6020908102919091010152600101612531565b5050509193909250565b6008818154811061263b575f80fd5b5f918252602090912001546001600160a01b0316905081565b5f5f5f84116126a55760405162461bcd60e51b815260206004820152601d60248201527f416d6f756e74206d7573742062652067726561746572207468616e203000000060448201526064016107cf565b5f838152600660205260409020546126fa5760405162461bcd60e51b815260206004820152601860248201527724b73b30b634b21039ba30b5b4b73390323ab930ba34b7b760411b60448201526064016107cf565b5f8381526006602052604081205490601e85900361271b5750610bb861276d565b84603c0361272c575061177061276d565b84605a0361273d575061232861276d565b8460780361274e5750612ee061276d565b8460b40361275f575061465061276d565b8461016d03610a605750618e945b808561277984896131fd565b61278391906131fd565b61278d919061322d565b9350612799848761321a565b925050509250929050565b6001600160a01b0381165f9081526003602052604081206004015460ff166128045760405162461bcd60e51b8152602060048201526013602482015272155cd95c881b9bdd081c9959da5cdd195c9959606a1b60448201526064016107cf565b506001600160a01b039081165f908152600360205260409020541690565b5f546001600160a01b0316331461284b5760405162461bcd60e51b81526004016107cf906132b9565b6001600160a01b0382166128a15760405162461bcd60e51b815260206004820152601960248201527f496e76616c696420726563697069656e7420616464726573730000000000000060448201526064016107cf565b5f81116128f05760405162461bcd60e51b815260206004820181905260248201527f416d6f756e74206d7573742062652067726561746572207468616e207a65726f60448201526064016107cf565b60025460405163a9059cbb60e01b81526001600160a01b038481166004830152602482018490525f92169063a9059cbb906044016020604051808303815f875af1158015612940573d5f5f3e3d5ffd5b505050506040513d601f19601f82011682018060405250810190612964919061329a565b9050806129ab5760405162461bcd60e51b8152602060048201526015602482015274151bdad95b881d1c985b9cd9995c8819985a5b1959605a1b60448201526064016107cf565b505050565b600981600581106129bf575f80fd5b60209182820401919006915054906101000a900460ff1681565b60605f805b600854811015612b56575f600882815481106129fc576129fc6131ad565b5f9182526020808320909101546001600160a01b031680835260038252604080842060010180548251818602810186019093528083529295509092909190849084015b82821015612aab575f8481526020908190206040805160c08101825260068602909201805483526001808201548486015260028201549284019290925260038101546060840152600481015460808401526005015460ff16151560a08301529083529092019101612a3f565b505050506001600160a01b038381165f908152600360205260408120549293509116905b60058160ff16108015612aea57506001600160a01b03821615155b15612b4657876001600160a01b0316826001600160a01b031603612b17578251612b14908761321a565b95505b6001600160a01b039182165f908152600360205260409020549091169080612b3e8161331b565b915050612acf565b5050600190920191506129de9050565b505f8167ffffffffffffffff811115612b7157612b71612ffa565b604051908082528060200260200182016040528015612bf057816020015b612bdd6040518060e001604052805f6001600160a01b031681526020015f81526020015f81526020015f81526020015f6001600160a01b031681526020015f81526020015f60ff1681525090565b815260200190600190039081612b8f5790505b5090505f805b600854811015612e66575f60088281548110612c1457612c146131ad565b5f9182526020808320909101546001600160a01b031680835260038252604080842060010180548251818602810186019093528083529295509092909190849084015b82821015612cc3575f8481526020908190206040805160c08101825260068602909201805483526001808201548486015260028201549284019290925260038101546060840152600481015460808401526005015460ff16151560a08301529083529092019101612c57565b505050506001600160a01b038381165f908152600360205260408120549293509116905b60058160ff16108015612d0257506001600160a01b03821615155b15612e5657896001600160a01b0316826001600160a01b031603612e27575f5b8351811015612e25575f848281518110612d3e57612d3e6131ad565b602002602001015190505f606460098560ff1660058110612d6157612d616131ad565b602091828204019190069054906101000a900460ff1660ff168360400151612d8991906131fd565b612d93919061322d565b90506040518060e001604052808e6001600160a01b03168152602001835f0151815260200183604001518152602001828152602001886001600160a01b0316815260200183606001518152602001856001612dee9190613339565b60ff1690528a8a612dfe81613303565b9b5081518110612e1057612e106131ad565b60209081029190910101525050600101612d22565b505b6001600160a01b039182165f908152600360205260409020549091169080612e4e8161331b565b915050612ce7565b505060019092019150612bf69050565b5090949350505050565b600183019183908215612ef0579160200282015f5b83821115612ec257835183826101000a81548160ff021916908360ff16021790555092602001926001016020815f01049283019260010302612e85565b8015612eee5782816101000a81549060ff02191690556001016020815f01049283019260010302612ec2565b505b50612efc929150612f00565b5090565b5b80821115612efc575f8155600101612f01565b80356001600160a01b0381168114612f2a575f5ffd5b919050565b5f5f60408385031215612f40575f5ffd5b612f4983612f14565b946020939093013593505050565b5f60208284031215612f67575f5ffd5b5035919050565b5f60208284031215612f7e575f5ffd5b612f8782612f14565b9392505050565b5f8151808452602084019350602083015f5b82811015612fbe578151865260209586019590910190600101612fa0565b5093949350505050565b602081525f612f876020830184612f8e565b5f5f60408385031215612feb575f5ffd5b50508035926020909101359150565b634e487b7160e01b5f52604160045260245ffd5b803560ff81168114612f2a575f5ffd5b5f60a0828403121561302e575f5ffd5b82601f83011261303c575f5ffd5b60405160a0810181811067ffffffffffffffff8211171561305f5761305f612ffa565b6040528060a0840185811115613073575f5ffd5b845b81811015613094576130868161300e565b835260209283019201613075565b509195945050505050565b606080825284519082018190525f9060208601906080840190835b818110156130e15783516001600160a01b03168352602093840193909201916001016130ba565b505083810360208501526130f58187612f8e565b915050828103604084015261310a8185612f8e565b9695505050505050565b602080825282518282018190525f918401906040840190835b818110156131a257835160018060a01b03815116845260208101516020850152604081015160408501526060810151606085015260018060a01b03608082015116608085015260a081015160a085015260ff60c08201511660c08501525060e08301925060208401935060018101905061312d565b509095945050505050565b634e487b7160e01b5f52603260045260245ffd5b6020808252600e908201526d139bdd081c9959da5cdd195c995960921b604082015260600190565b634e487b7160e01b5f52601160045260245ffd5b8082028115828204841417613214576132146131e9565b92915050565b80820180821115613214576132146131e9565b5f8261324757634e487b7160e01b5f52601260045260245ffd5b500490565b5f6020828403121561325c575f5ffd5b5051919050565b6020808252601d908201527f496e73756666696369656e7420636f6e74726163742062616c616e6365000000604082015260600190565b5f602082840312156132aa575f5ffd5b81518015158114612f87575f5ffd5b60208082526018908201527f4f6e6c79206f776e65722063616e2063616c6c20746869730000000000000000604082015260600190565b81810381811115613214576132146131e9565b5f60018201613314576133146131e9565b5060010190565b5f60ff821660ff8103613330576133306131e9565b60010192915050565b60ff8181168382160190811115613214576132146131e956fea2646970667358221220fb862020ba1dd1635e4a510cbe5364ba838a634752f906b81dc1443a9513dd2964736f6c634300081e0033",
			"opcodes": "PUSH2 0x120 PUSH1 0x40 MSTORE PUSH1 0x5 PUSH1 0x80 DUP2 DUP2 MSTORE PUSH1 0x3 PUSH1 0xA0 MSTORE PUSH1 0x2 PUSH1 0xC0 MSTORE PUSH1 0x1 PUSH1 0xE0 DUP2 SWAP1 MSTORE PUSH2 0x100 MSTORE PUSH2 0x2E SWAP2 PUSH1 0x9 SWAP2 SWAP1 PUSH2 0x190 JUMP JUMPDEST POP CALLVALUE DUP1 ISZERO PUSH2 0x3A JUMPI PUSH0 PUSH0 REVERT JUMPDEST POP PUSH1 0x40 MLOAD PUSH2 0x35F6 CODESIZE SUB DUP1 PUSH2 0x35F6 DUP4 CODECOPY DUP2 ADD PUSH1 0x40 DUP2 SWAP1 MSTORE PUSH2 0x59 SWAP2 PUSH2 0x234 JUMP JUMPDEST PUSH0 DUP1 SLOAD CALLER PUSH1 0x1 PUSH1 0x1 PUSH1 0xA0 SHL SUB NOT SWAP2 DUP3 AND DUP2 OR DUP4 SSTORE PUSH1 0x2 DUP1 SLOAD SWAP1 SWAP3 AND PUSH1 0x1 PUSH1 0x1 PUSH1 0xA0 SHL SUB SWAP5 SWAP1 SWAP5 AND SWAP4 SWAP1 SWAP4 OR DUP2 SSTORE SWAP2 DUP2 MSTORE PUSH1 0x3 PUSH1 0x20 SWAP1 DUP2 MSTORE PUSH1 0x40 DUP3 KECCAK256 PUSH1 0x4 SWAP1 DUP2 ADD DUP1 SLOAD PUSH1 0xFF NOT AND PUSH1 0x1 SWAP1 DUP2 OR SWAP1 SWAP2 SSTORE PUSH1 0x6 SWAP3 DUP4 SWAP1 MSTORE PUSH32 0xB6BA906FF52451A7A924E2EAEB8AEA3EBEE7350A8703E5E417EDB25358C7DCC1 SSTORE PUSH32 0x6CA6DCAFC04B6E03616746C3528366F990E332021E35D59275BE746D65CAE0A7 SWAP4 SWAP1 SWAP4 SSTORE PUSH32 0x1727C0104C2870C3003671480695F7DAB262614528B49265008E76FD3D48C5FE SWAP3 SWAP1 SWAP3 SSTORE PUSH32 0x5451FE6494362676DDB91456D9957C85D968E6F82956407C931A14C023049E6A SWAP2 SWAP1 SWAP2 SSTORE PUSH1 0x9 PUSH32 0xFB78EB295A86B096B5F095822BD250A277112BE4103EA4A7608D96ECA726B2C1 SSTORE PUSH2 0x16D SWAP1 MSTORE PUSH1 0x14 PUSH32 0xBBF8ADEA84D189C39869A372AB30AEBA9246EEA044EDC5A37AC100921B2C4E1 SSTORE PUSH2 0x261 JUMP JUMPDEST PUSH1 0x1 DUP4 ADD SWAP2 DUP4 SWAP1 DUP3 ISZERO PUSH2 0x210 JUMPI SWAP2 PUSH1 0x20 MUL DUP3 ADD PUSH0 JUMPDEST DUP4 DUP3 GT ISZERO PUSH2 0x1E2 JUMPI DUP4 MLOAD DUP4 DUP3 PUSH2 0x100 EXP DUP2 SLOAD DUP2 PUSH1 0xFF MUL NOT AND SWAP1 DUP4 PUSH1 0xFF AND MUL OR SWAP1 SSTORE POP SWAP3 PUSH1 0x20 ADD SWAP3 PUSH1 0x1 ADD PUSH1 0x20 DUP2 PUSH0 ADD DIV SWAP3 DUP4 ADD SWAP3 PUSH1 0x1 SUB MUL PUSH2 0x1A5 JUMP JUMPDEST DUP1 ISZERO PUSH2 0x20E JUMPI DUP3 DUP2 PUSH2 0x100 EXP DUP2 SLOAD SWAP1 PUSH1 0xFF MUL NOT AND SWAP1 SSTORE PUSH1 0x1 ADD PUSH1 0x20 DUP2 PUSH0 ADD DIV SWAP3 DUP4 ADD SWAP3 PUSH1 0x1 SUB MUL PUSH2 0x1E2 JUMP JUMPDEST POP JUMPDEST POP PUSH2 0x21C SWAP3 SWAP2 POP PUSH2 0x220 JUMP JUMPDEST POP SWAP1 JUMP JUMPDEST JUMPDEST DUP1 DUP3 GT ISZERO PUSH2 0x21C JUMPI PUSH0 DUP2 SSTORE PUSH1 0x1 ADD PUSH2 0x221 JUMP JUMPDEST PUSH0 PUSH1 0x20 DUP3 DUP5 SUB SLT ISZERO PUSH2 0x244 JUMPI PUSH0 PUSH0 REVERT JUMPDEST DUP2 MLOAD PUSH1 0x1 PUSH1 0x1 PUSH1 0xA0 SHL SUB DUP2 AND DUP2 EQ PUSH2 0x25A JUMPI PUSH0 PUSH0 REVERT JUMPDEST SWAP4 SWAP3 POP POP POP JUMP JUMPDEST PUSH2 0x3388 DUP1 PUSH2 0x26E PUSH0 CODECOPY PUSH0 RETURN INVALID PUSH1 0x80 PUSH1 0x40 MSTORE CALLVALUE DUP1 ISZERO PUSH2 0xF JUMPI PUSH0 PUSH0 REVERT JUMPDEST POP PUSH1 0x4 CALLDATASIZE LT PUSH2 0x1F2 JUMPI PUSH0 CALLDATALOAD PUSH1 0xE0 SHR DUP1 PUSH4 0x98278EFB GT PUSH2 0x114 JUMPI DUP1 PUSH4 0xC2D3C677 GT PUSH2 0xA9 JUMPI DUP1 PUSH4 0xD85C8966 GT PUSH2 0x79 JUMPI DUP1 PUSH4 0xD85C8966 EQ PUSH2 0x5BF JUMPI DUP1 PUSH4 0xE45A57D0 EQ PUSH2 0x5D2 JUMPI DUP1 PUSH4 0xEF71AE56 EQ PUSH2 0x5E5 JUMPI DUP1 PUSH4 0xF6E88873 EQ PUSH2 0x605 JUMPI DUP1 PUSH4 0xF7B17D10 EQ PUSH2 0x624 JUMPI PUSH0 PUSH0 REVERT JUMPDEST DUP1 PUSH4 0xC2D3C677 EQ PUSH2 0x543 JUMPI DUP1 PUSH4 0xC3C5A547 EQ PUSH2 0x56E JUMPI DUP1 PUSH4 0xC5B89C0A EQ PUSH2 0x306 JUMPI DUP1 PUSH4 0xCB6F37AB EQ PUSH2 0x5AC JUMPI PUSH0 PUSH0 REVERT JUMPDEST DUP1 PUSH4 0xA87430BA GT PUSH2 0xE4 JUMPI DUP1 PUSH4 0xA87430BA EQ PUSH2 0x471 JUMPI DUP1 PUSH4 0xA98AD46C EQ PUSH2 0x4E0 JUMPI DUP1 PUSH4 0xAA7ED462 EQ PUSH2 0x4F3 JUMPI DUP1 PUSH4 0xBD297178 EQ PUSH2 0x51B JUMPI PUSH0 PUSH0 REVERT JUMPDEST DUP1 PUSH4 0x98278EFB EQ PUSH2 0x40C JUMPI DUP1 PUSH4 0x9BE572F6 EQ PUSH2 0x434 JUMPI DUP1 PUSH4 0x9D747BAD EQ PUSH2 0x43C JUMPI DUP1 PUSH4 0xA2BDEDF4 EQ PUSH2 0x45E JUMPI PUSH0 PUSH0 REVERT JUMPDEST DUP1 PUSH4 0x5BD4E16A GT PUSH2 0x18A JUMPI DUP1 PUSH4 0x797C7F5F GT PUSH2 0x15A JUMPI DUP1 PUSH4 0x797C7F5F EQ PUSH2 0x36E JUMPI DUP1 PUSH4 0x7B0472F0 EQ PUSH2 0x3C8 JUMPI DUP1 PUSH4 0x875BB4E2 EQ PUSH2 0x3DB JUMPI DUP1 PUSH4 0x8DA5CB5B EQ PUSH2 0x3FA JUMPI PUSH0 PUSH0 REVERT JUMPDEST DUP1 PUSH4 0x5BD4E16A EQ PUSH2 0x306 JUMPI DUP1 PUSH4 0x656596A5 EQ PUSH2 0x340 JUMPI DUP1 PUSH4 0x6C8C2156 EQ PUSH2 0x353 JUMPI DUP1 PUSH4 0x6F9FB98A EQ PUSH2 0x366 JUMPI PUSH0 PUSH0 REVERT JUMPDEST DUP1 PUSH4 0x379607F5 GT PUSH2 0x1C5 JUMPI DUP1 PUSH4 0x379607F5 EQ PUSH2 0x2B8 JUMPI DUP1 PUSH4 0x3EA521EF EQ PUSH2 0x2CD JUMPI DUP1 PUSH4 0x4420E486 EQ PUSH2 0x2E0 JUMPI DUP1 PUSH4 0x4850D2A2 EQ PUSH2 0x2F3 JUMPI PUSH0 PUSH0 REVERT JUMPDEST DUP1 PUSH4 0x5AD3935 EQ PUSH2 0x1F6 JUMPI DUP1 PUSH4 0x1E43EB27 EQ PUSH2 0x233 JUMPI DUP1 PUSH4 0x21923BDE EQ PUSH2 0x273 JUMPI DUP1 PUSH4 0x28FE7031 EQ PUSH2 0x298 JUMPI JUMPDEST PUSH0 PUSH0 REVERT JUMPDEST PUSH2 0x209 PUSH2 0x204 CALLDATASIZE PUSH1 0x4 PUSH2 0x2F2F JUMP JUMPDEST PUSH2 0x62D JUMP JUMPDEST PUSH1 0x40 DUP1 MLOAD PUSH1 0x1 PUSH1 0x1 PUSH1 0xA0 SHL SUB SWAP1 SWAP5 AND DUP5 MSTORE PUSH1 0x20 DUP5 ADD SWAP3 SWAP1 SWAP3 MSTORE SWAP1 DUP3 ADD MSTORE PUSH1 0x60 ADD JUMPDEST PUSH1 0x40 MLOAD DUP1 SWAP2 SUB SWAP1 RETURN JUMPDEST PUSH2 0x25B PUSH2 0x241 CALLDATASIZE PUSH1 0x4 PUSH2 0x2F57 JUMP JUMPDEST PUSH1 0x5 PUSH1 0x20 MSTORE PUSH0 SWAP1 DUP2 MSTORE PUSH1 0x40 SWAP1 KECCAK256 SLOAD PUSH1 0x1 PUSH1 0x1 PUSH1 0xA0 SHL SUB AND DUP2 JUMP JUMPDEST PUSH1 0x40 MLOAD PUSH1 0x1 PUSH1 0x1 PUSH1 0xA0 SHL SUB SWAP1 SWAP2 AND DUP2 MSTORE PUSH1 0x20 ADD PUSH2 0x22A JUMP JUMPDEST PUSH2 0x286 PUSH2 0x281 CALLDATASIZE PUSH1 0x4 PUSH2 0x2F6E JUMP JUMPDEST PUSH2 0x675 JUMP JUMPDEST PUSH1 0x40 MLOAD PUSH1 0xFF SWAP1 SWAP2 AND DUP2 MSTORE PUSH1 0x20 ADD PUSH2 0x22A JUMP JUMPDEST PUSH2 0x2AB PUSH2 0x2A6 CALLDATASIZE PUSH1 0x4 PUSH2 0x2F6E JUMP JUMPDEST PUSH2 0x6C8 JUMP JUMPDEST PUSH1 0x40 MLOAD PUSH2 0x22A SWAP2 SWAP1 PUSH2 0x2FC8 JUMP JUMPDEST PUSH2 0x2CB PUSH2 0x2C6 CALLDATASIZE PUSH1 0x4 PUSH2 0x2F57 JUMP JUMPDEST PUSH2 0x79E JUMP JUMPDEST STOP JUMPDEST PUSH2 0x2CB PUSH2 0x2DB CALLDATASIZE PUSH1 0x4 PUSH2 0x2F57 JUMP JUMPDEST PUSH2 0xDBE JUMP JUMPDEST PUSH2 0x2CB PUSH2 0x2EE CALLDATASIZE PUSH1 0x4 PUSH2 0x2F6E JUMP JUMPDEST PUSH2 0xE90 JUMP JUMPDEST PUSH2 0x2CB PUSH2 0x301 CALLDATASIZE PUSH1 0x4 PUSH2 0x2FDA JUMP JUMPDEST PUSH2 0x10EB JUMP JUMPDEST PUSH2 0x332 PUSH2 0x314 CALLDATASIZE PUSH1 0x4 PUSH2 0x2F6E JUMP JUMPDEST PUSH1 0x1 PUSH1 0x1 PUSH1 0xA0 SHL SUB AND PUSH0 SWAP1 DUP2 MSTORE PUSH1 0x3 PUSH1 0x20 DUP2 SWAP1 MSTORE PUSH1 0x40 SWAP1 SWAP2 KECCAK256 ADD SLOAD SWAP1 JUMP JUMPDEST PUSH1 0x40 MLOAD SWAP1 DUP2 MSTORE PUSH1 0x20 ADD PUSH2 0x22A JUMP JUMPDEST PUSH2 0x2CB PUSH2 0x34E CALLDATASIZE PUSH1 0x4 PUSH2 0x301E JUMP JUMPDEST PUSH2 0x1167 JUMP JUMPDEST PUSH2 0x2CB PUSH2 0x361 CALLDATASIZE PUSH1 0x4 PUSH2 0x2F57 JUMP JUMPDEST PUSH2 0x119D JUMP JUMPDEST PUSH2 0x332 PUSH2 0x15E9 JUMP JUMPDEST PUSH2 0x381 PUSH2 0x37C CALLDATASIZE PUSH1 0x4 PUSH2 0x2F57 JUMP JUMPDEST PUSH2 0x1658 JUMP JUMPDEST PUSH1 0x40 DUP1 MLOAD PUSH1 0x1 PUSH1 0x1 PUSH1 0xA0 SHL SUB SWAP1 SWAP10 AND DUP10 MSTORE PUSH1 0x20 DUP10 ADD SWAP8 SWAP1 SWAP8 MSTORE SWAP6 DUP8 ADD SWAP5 SWAP1 SWAP5 MSTORE PUSH1 0x60 DUP7 ADD SWAP3 SWAP1 SWAP3 MSTORE PUSH1 0x80 DUP6 ADD MSTORE PUSH1 0xA0 DUP5 ADD MSTORE PUSH1 0xC0 DUP4 ADD MSTORE ISZERO ISZERO PUSH1 0xE0 DUP3 ADD MSTORE PUSH2 0x100 ADD PUSH2 0x22A JUMP JUMPDEST PUSH2 0x2CB PUSH2 0x3D6 CALLDATASIZE PUSH1 0x4 PUSH2 0x2FDA JUMP JUMPDEST PUSH2 0x18B3 JUMP JUMPDEST PUSH2 0x332 PUSH2 0x3E9 CALLDATASIZE PUSH1 0x4 PUSH2 0x2F57 JUMP JUMPDEST PUSH1 0x6 PUSH1 0x20 MSTORE PUSH0 SWAP1 DUP2 MSTORE PUSH1 0x40 SWAP1 KECCAK256 SLOAD DUP2 JUMP JUMPDEST PUSH0 SLOAD PUSH2 0x25B SWAP1 PUSH1 0x1 PUSH1 0x1 PUSH1 0xA0 SHL SUB AND DUP2 JUMP JUMPDEST PUSH2 0x332 PUSH2 0x41A CALLDATASIZE PUSH1 0x4 PUSH2 0x2F6E JUMP JUMPDEST PUSH1 0x1 PUSH1 0x1 PUSH1 0xA0 SHL SUB AND PUSH0 SWAP1 DUP2 MSTORE PUSH1 0x4 PUSH1 0x20 MSTORE PUSH1 0x40 SWAP1 KECCAK256 SLOAD SWAP1 JUMP JUMPDEST PUSH1 0x8 SLOAD PUSH2 0x332 JUMP JUMPDEST PUSH2 0x44F PUSH2 0x44A CALLDATASIZE PUSH1 0x4 PUSH2 0x2F6E JUMP JUMPDEST PUSH2 0x243F JUMP JUMPDEST PUSH1 0x40 MLOAD PUSH2 0x22A SWAP4 SWAP3 SWAP2 SWAP1 PUSH2 0x309F JUMP JUMPDEST PUSH2 0x25B PUSH2 0x46C CALLDATASIZE PUSH1 0x4 PUSH2 0x2F57 JUMP JUMPDEST PUSH2 0x262C JUMP JUMPDEST PUSH2 0x4B4 PUSH2 0x47F CALLDATASIZE PUSH1 0x4 PUSH2 0x2F6E JUMP JUMPDEST PUSH1 0x3 PUSH1 0x20 DUP2 SWAP1 MSTORE PUSH0 SWAP2 DUP3 MSTORE PUSH1 0x40 SWAP1 SWAP2 KECCAK256 DUP1 SLOAD PUSH1 0x2 DUP3 ADD SLOAD SWAP3 DUP3 ADD SLOAD PUSH1 0x4 SWAP1 SWAP3 ADD SLOAD PUSH1 0x1 PUSH1 0x1 PUSH1 0xA0 SHL SUB SWAP1 SWAP2 AND SWAP3 SWAP2 SWAP1 PUSH1 0xFF AND DUP5 JUMP JUMPDEST PUSH1 0x40 DUP1 MLOAD PUSH1 0x1 PUSH1 0x1 PUSH1 0xA0 SHL SUB SWAP1 SWAP6 AND DUP6 MSTORE PUSH1 0x20 DUP6 ADD SWAP4 SWAP1 SWAP4 MSTORE SWAP2 DUP4 ADD MSTORE ISZERO ISZERO PUSH1 0x60 DUP3 ADD MSTORE PUSH1 0x80 ADD PUSH2 0x22A JUMP JUMPDEST PUSH1 0x2 SLOAD PUSH2 0x25B SWAP1 PUSH1 0x1 PUSH1 0x1 PUSH1 0xA0 SHL SUB AND DUP2 JUMP JUMPDEST PUSH2 0x332 PUSH2 0x501 CALLDATASIZE PUSH1 0x4 PUSH2 0x2F6E JUMP JUMPDEST PUSH1 0x1 PUSH1 0x1 PUSH1 0xA0 SHL SUB AND PUSH0 SWAP1 DUP2 MSTORE PUSH1 0x7 PUSH1 0x20 MSTORE PUSH1 0x40 SWAP1 KECCAK256 SLOAD SWAP1 JUMP JUMPDEST PUSH2 0x52E PUSH2 0x529 CALLDATASIZE PUSH1 0x4 PUSH2 0x2FDA JUMP JUMPDEST PUSH2 0x2654 JUMP JUMPDEST PUSH1 0x40 DUP1 MLOAD SWAP3 DUP4 MSTORE PUSH1 0x20 DUP4 ADD SWAP2 SWAP1 SWAP2 MSTORE ADD PUSH2 0x22A JUMP JUMPDEST PUSH2 0x332 PUSH2 0x551 CALLDATASIZE PUSH1 0x4 PUSH2 0x2F6E JUMP JUMPDEST PUSH1 0x1 PUSH1 0x1 PUSH1 0xA0 SHL SUB AND PUSH0 SWAP1 DUP2 MSTORE PUSH1 0x3 PUSH1 0x20 MSTORE PUSH1 0x40 SWAP1 KECCAK256 PUSH1 0x2 ADD SLOAD SWAP1 JUMP JUMPDEST PUSH2 0x59C PUSH2 0x57C CALLDATASIZE PUSH1 0x4 PUSH2 0x2F6E JUMP JUMPDEST PUSH1 0x1 PUSH1 0x1 PUSH1 0xA0 SHL SUB AND PUSH0 SWAP1 DUP2 MSTORE PUSH1 0x3 PUSH1 0x20 MSTORE PUSH1 0x40 SWAP1 KECCAK256 PUSH1 0x4 ADD SLOAD PUSH1 0xFF AND SWAP1 JUMP JUMPDEST PUSH1 0x40 MLOAD SWAP1 ISZERO ISZERO DUP2 MSTORE PUSH1 0x20 ADD PUSH2 0x22A JUMP JUMPDEST PUSH2 0x25B PUSH2 0x5BA CALLDATASIZE PUSH1 0x4 PUSH2 0x2F6E JUMP JUMPDEST PUSH2 0x27A4 JUMP JUMPDEST PUSH2 0x2CB PUSH2 0x5CD CALLDATASIZE PUSH1 0x4 PUSH2 0x2F2F JUMP JUMPDEST PUSH2 0x2822 JUMP JUMPDEST PUSH2 0x286 PUSH2 0x5E0 CALLDATASIZE PUSH1 0x4 PUSH2 0x2F57 JUMP JUMPDEST PUSH2 0x29B0 JUMP JUMPDEST PUSH2 0x5F8 PUSH2 0x5F3 CALLDATASIZE PUSH1 0x4 PUSH2 0x2F6E JUMP JUMPDEST PUSH2 0x29D9 JUMP JUMPDEST PUSH1 0x40 MLOAD PUSH2 0x22A SWAP2 SWAP1 PUSH2 0x3114 JUMP JUMPDEST PUSH2 0x332 PUSH2 0x613 CALLDATASIZE PUSH1 0x4 PUSH2 0x2F6E JUMP JUMPDEST PUSH1 0x7 PUSH1 0x20 MSTORE PUSH0 SWAP1 DUP2 MSTORE PUSH1 0x40 SWAP1 KECCAK256 SLOAD DUP2 JUMP JUMPDEST PUSH2 0x332 PUSH1 0x1 SLOAD DUP2 JUMP JUMPDEST PUSH1 0x4 PUSH1 0x20 MSTORE DUP2 PUSH0 MSTORE PUSH1 0x40 PUSH0 KECCAK256 DUP2 DUP2 SLOAD DUP2 LT PUSH2 0x646 JUMPI PUSH0 DUP1 REVERT JUMPDEST PUSH0 SWAP2 DUP3 MSTORE PUSH1 0x20 SWAP1 SWAP2 KECCAK256 PUSH1 0x3 SWAP1 SWAP2 MUL ADD DUP1 SLOAD PUSH1 0x1 DUP3 ADD SLOAD PUSH1 0x2 SWAP1 SWAP3 ADD SLOAD PUSH1 0x1 PUSH1 0x1 PUSH1 0xA0 SHL SUB SWAP1 SWAP2 AND SWAP4 POP SWAP1 SWAP2 POP DUP4 JUMP JUMPDEST PUSH1 0x1 PUSH1 0x1 PUSH1 0xA0 SHL SUB DUP2 AND PUSH0 SWAP1 DUP2 MSTORE PUSH1 0x4 PUSH1 0x20 MSTORE PUSH1 0x40 DUP2 KECCAK256 SLOAD PUSH1 0xA DUP2 LT PUSH2 0x69E JUMPI POP PUSH1 0x3 SWAP3 SWAP2 POP POP JUMP JUMPDEST PUSH1 0x5 DUP2 LT PUSH2 0x6AF JUMPI POP PUSH1 0x2 SWAP3 SWAP2 POP POP JUMP JUMPDEST PUSH1 0x1 DUP2 LT PUSH2 0x6C0 JUMPI POP PUSH1 0x1 SWAP3 SWAP2 POP POP JUMP JUMPDEST POP PUSH0 SWAP3 SWAP2 POP POP JUMP JUMPDEST PUSH1 0x1 PUSH1 0x1 PUSH1 0xA0 SHL SUB DUP2 AND PUSH0 SWAP1 DUP2 MSTORE PUSH1 0x3 PUSH1 0x20 MSTORE PUSH1 0x40 DUP2 KECCAK256 PUSH1 0x1 ADD SLOAD PUSH1 0x60 SWAP2 DUP2 PUSH8 0xFFFFFFFFFFFFFFFF DUP2 GT ISZERO PUSH2 0x6FF JUMPI PUSH2 0x6FF PUSH2 0x2FFA JUMP JUMPDEST PUSH1 0x40 MLOAD SWAP1 DUP1 DUP3 MSTORE DUP1 PUSH1 0x20 MUL PUSH1 0x20 ADD DUP3 ADD PUSH1 0x40 MSTORE DUP1 ISZERO PUSH2 0x728 JUMPI DUP2 PUSH1 0x20 ADD PUSH1 0x20 DUP3 MUL DUP1 CALLDATASIZE DUP4 CALLDATACOPY ADD SWAP1 POP JUMPDEST POP SWAP1 POP PUSH0 JUMPDEST DUP3 DUP2 LT ISZERO PUSH2 0x796 JUMPI PUSH1 0x1 PUSH1 0x1 PUSH1 0xA0 SHL SUB DUP6 AND PUSH0 SWAP1 DUP2 MSTORE PUSH1 0x3 PUSH1 0x20 MSTORE PUSH1 0x40 SWAP1 KECCAK256 PUSH1 0x1 ADD DUP1 SLOAD DUP3 SWAP1 DUP2 LT PUSH2 0x761 JUMPI PUSH2 0x761 PUSH2 0x31AD JUMP JUMPDEST SWAP1 PUSH0 MSTORE PUSH1 0x20 PUSH0 KECCAK256 SWAP1 PUSH1 0x6 MUL ADD PUSH1 0x1 ADD SLOAD DUP3 DUP3 DUP2 MLOAD DUP2 LT PUSH2 0x783 JUMPI PUSH2 0x783 PUSH2 0x31AD JUMP JUMPDEST PUSH1 0x20 SWAP1 DUP2 MUL SWAP2 SWAP1 SWAP2 ADD ADD MSTORE PUSH1 0x1 ADD PUSH2 0x72D JUMP JUMPDEST POP SWAP4 SWAP3 POP POP POP JUMP JUMPDEST CALLER PUSH0 SWAP1 DUP2 MSTORE PUSH1 0x3 PUSH1 0x20 MSTORE PUSH1 0x40 SWAP1 KECCAK256 PUSH1 0x4 ADD SLOAD PUSH1 0xFF AND PUSH2 0x7D8 JUMPI PUSH1 0x40 MLOAD PUSH3 0x461BCD PUSH1 0xE5 SHL DUP2 MSTORE PUSH1 0x4 ADD PUSH2 0x7CF SWAP1 PUSH2 0x31C1 JUMP JUMPDEST PUSH1 0x40 MLOAD DUP1 SWAP2 SUB SWAP1 REVERT JUMPDEST CALLER PUSH0 DUP2 DUP2 MSTORE PUSH1 0x3 PUSH1 0x20 MSTORE PUSH1 0x40 DUP2 KECCAK256 SWAP1 PUSH1 0x1 DUP3 ADD SWAP1 DUP1 JUMPDEST DUP3 SLOAD DUP2 LT ISZERO PUSH2 0xD5E JUMPI DUP6 DUP4 DUP3 DUP2 SLOAD DUP2 LT PUSH2 0x80A JUMPI PUSH2 0x80A PUSH2 0x31AD JUMP JUMPDEST SWAP1 PUSH0 MSTORE PUSH1 0x20 PUSH0 KECCAK256 SWAP1 PUSH1 0x6 MUL ADD PUSH1 0x1 ADD SLOAD EQ DUP1 ISZERO PUSH2 0x84C JUMPI POP DUP3 DUP2 DUP2 SLOAD DUP2 LT PUSH2 0x834 JUMPI PUSH2 0x834 PUSH2 0x31AD JUMP JUMPDEST PUSH0 SWAP2 DUP3 MSTORE PUSH1 0x20 SWAP1 SWAP2 KECCAK256 PUSH1 0x5 PUSH1 0x6 SWAP1 SWAP3 MUL ADD ADD SLOAD PUSH1 0xFF AND ISZERO JUMPDEST ISZERO PUSH2 0xD56 JUMPI DUP3 DUP2 DUP2 SLOAD DUP2 LT PUSH2 0x863 JUMPI PUSH2 0x863 PUSH2 0x31AD JUMP JUMPDEST SWAP1 PUSH0 MSTORE PUSH1 0x20 PUSH0 KECCAK256 SWAP1 PUSH1 0x6 MUL ADD PUSH1 0x4 ADD SLOAD PUSH3 0x15180 PUSH2 0x881 SWAP2 SWAP1 PUSH2 0x31FD JUMP JUMPDEST DUP4 DUP3 DUP2 SLOAD DUP2 LT PUSH2 0x893 JUMPI PUSH2 0x893 PUSH2 0x31AD JUMP JUMPDEST SWAP1 PUSH0 MSTORE PUSH1 0x20 PUSH0 KECCAK256 SWAP1 PUSH1 0x6 MUL ADD PUSH1 0x3 ADD SLOAD PUSH2 0x8AD SWAP2 SWAP1 PUSH2 0x321A JUMP JUMPDEST TIMESTAMP LT ISZERO PUSH2 0x8FC JUMPI PUSH1 0x40 MLOAD PUSH3 0x461BCD PUSH1 0xE5 SHL DUP2 MSTORE PUSH1 0x20 PUSH1 0x4 DUP3 ADD DUP2 SWAP1 MSTORE PUSH1 0x24 DUP3 ADD MSTORE PUSH32 0x5374616B696E6720706572696F64206E6F742079657420636F6D706C65746564 PUSH1 0x44 DUP3 ADD MSTORE PUSH1 0x64 ADD PUSH2 0x7CF JUMP JUMPDEST PUSH0 PUSH1 0x6 PUSH0 DUP6 DUP5 DUP2 SLOAD DUP2 LT PUSH2 0x912 JUMPI PUSH2 0x912 PUSH2 0x31AD JUMP JUMPDEST SWAP1 PUSH0 MSTORE PUSH1 0x20 PUSH0 KECCAK256 SWAP1 PUSH1 0x6 MUL ADD PUSH1 0x4 ADD SLOAD DUP2 MSTORE PUSH1 0x20 ADD SWAP1 DUP2 MSTORE PUSH1 0x20 ADD PUSH0 KECCAK256 SLOAD SWAP1 POP PUSH0 DUP5 DUP4 DUP2 SLOAD DUP2 LT PUSH2 0x945 JUMPI PUSH2 0x945 PUSH2 0x31AD JUMP JUMPDEST SWAP1 PUSH0 MSTORE PUSH1 0x20 PUSH0 KECCAK256 SWAP1 PUSH1 0x6 MUL ADD PUSH1 0x4 ADD SLOAD PUSH1 0x1E SUB PUSH2 0x965 JUMPI POP PUSH2 0xBB8 PUSH2 0xAA8 JUMP JUMPDEST DUP5 DUP4 DUP2 SLOAD DUP2 LT PUSH2 0x977 JUMPI PUSH2 0x977 PUSH2 0x31AD JUMP JUMPDEST SWAP1 PUSH0 MSTORE PUSH1 0x20 PUSH0 KECCAK256 SWAP1 PUSH1 0x6 MUL ADD PUSH1 0x4 ADD SLOAD PUSH1 0x3C SUB PUSH2 0x997 JUMPI POP PUSH2 0x1770 PUSH2 0xAA8 JUMP JUMPDEST DUP5 DUP4 DUP2 SLOAD DUP2 LT PUSH2 0x9A9 JUMPI PUSH2 0x9A9 PUSH2 0x31AD JUMP JUMPDEST SWAP1 PUSH0 MSTORE PUSH1 0x20 PUSH0 KECCAK256 SWAP1 PUSH1 0x6 MUL ADD PUSH1 0x4 ADD SLOAD PUSH1 0x5A SUB PUSH2 0x9C9 JUMPI POP PUSH2 0x2328 PUSH2 0xAA8 JUMP JUMPDEST DUP5 DUP4 DUP2 SLOAD DUP2 LT PUSH2 0x9DB JUMPI PUSH2 0x9DB PUSH2 0x31AD JUMP JUMPDEST SWAP1 PUSH0 MSTORE PUSH1 0x20 PUSH0 KECCAK256 SWAP1 PUSH1 0x6 MUL ADD PUSH1 0x4 ADD SLOAD PUSH1 0x78 SUB PUSH2 0x9FB JUMPI POP PUSH2 0x2EE0 PUSH2 0xAA8 JUMP JUMPDEST DUP5 DUP4 DUP2 SLOAD DUP2 LT PUSH2 0xA0D JUMPI PUSH2 0xA0D PUSH2 0x31AD JUMP JUMPDEST SWAP1 PUSH0 MSTORE PUSH1 0x20 PUSH0 KECCAK256 SWAP1 PUSH1 0x6 MUL ADD PUSH1 0x4 ADD SLOAD PUSH1 0xB4 SUB PUSH2 0xA2D JUMPI POP PUSH2 0x4650 PUSH2 0xAA8 JUMP JUMPDEST DUP5 DUP4 DUP2 SLOAD DUP2 LT PUSH2 0xA3F JUMPI PUSH2 0xA3F PUSH2 0x31AD JUMP JUMPDEST SWAP1 PUSH0 MSTORE PUSH1 0x20 PUSH0 KECCAK256 SWAP1 PUSH1 0x6 MUL ADD PUSH1 0x4 ADD SLOAD PUSH2 0x16D SUB PUSH2 0xA60 JUMPI POP PUSH2 0x8E94 PUSH2 0xAA8 JUMP JUMPDEST PUSH1 0x40 MLOAD PUSH3 0x461BCD PUSH1 0xE5 SHL DUP2 MSTORE PUSH1 0x20 PUSH1 0x4 DUP3 ADD MSTORE PUSH1 0x1C PUSH1 0x24 DUP3 ADD MSTORE PUSH32 0x556E737570706F72746564207374616B696E67206475726174696F6E00000000 PUSH1 0x44 DUP3 ADD MSTORE PUSH1 0x64 ADD PUSH2 0x7CF JUMP JUMPDEST PUSH0 DUP2 DUP7 DUP6 DUP2 SLOAD DUP2 LT PUSH2 0xABC JUMPI PUSH2 0xABC PUSH2 0x31AD JUMP JUMPDEST SWAP1 PUSH0 MSTORE PUSH1 0x20 PUSH0 KECCAK256 SWAP1 PUSH1 0x6 MUL ADD PUSH1 0x4 ADD SLOAD DUP5 DUP9 DUP8 DUP2 SLOAD DUP2 LT PUSH2 0xADF JUMPI PUSH2 0xADF PUSH2 0x31AD JUMP JUMPDEST SWAP1 PUSH0 MSTORE PUSH1 0x20 PUSH0 KECCAK256 SWAP1 PUSH1 0x6 MUL ADD PUSH1 0x2 ADD SLOAD PUSH2 0xAF9 SWAP2 SWAP1 PUSH2 0x31FD JUMP JUMPDEST PUSH2 0xB03 SWAP2 SWAP1 PUSH2 0x31FD JUMP JUMPDEST PUSH2 0xB0D SWAP2 SWAP1 PUSH2 0x322D JUMP JUMPDEST SWAP1 POP PUSH0 DUP2 DUP8 DUP7 DUP2 SLOAD DUP2 LT PUSH2 0xB23 JUMPI PUSH2 0xB23 PUSH2 0x31AD JUMP JUMPDEST SWAP1 PUSH0 MSTORE PUSH1 0x20 PUSH0 KECCAK256 SWAP1 PUSH1 0x6 MUL ADD PUSH1 0x2 ADD SLOAD PUSH2 0xB3D SWAP2 SWAP1 PUSH2 0x321A JUMP JUMPDEST PUSH1 0x2 SLOAD PUSH1 0x40 MLOAD PUSH4 0x70A08231 PUSH1 0xE0 SHL DUP2 MSTORE ADDRESS PUSH1 0x4 DUP3 ADD MSTORE SWAP2 SWAP3 POP DUP3 SWAP2 PUSH1 0x1 PUSH1 0x1 PUSH1 0xA0 SHL SUB SWAP1 SWAP2 AND SWAP1 PUSH4 0x70A08231 SWAP1 PUSH1 0x24 ADD PUSH1 0x20 PUSH1 0x40 MLOAD DUP1 DUP4 SUB DUP2 DUP7 GAS STATICCALL ISZERO DUP1 ISZERO PUSH2 0xB88 JUMPI RETURNDATASIZE PUSH0 PUSH0 RETURNDATACOPY RETURNDATASIZE PUSH0 REVERT JUMPDEST POP POP POP POP PUSH1 0x40 MLOAD RETURNDATASIZE PUSH1 0x1F NOT PUSH1 0x1F DUP3 ADD AND DUP3 ADD DUP1 PUSH1 0x40 MSTORE POP DUP2 ADD SWAP1 PUSH2 0xBAC SWAP2 SWAP1 PUSH2 0x324C JUMP JUMPDEST LT ISZERO PUSH2 0xBCA JUMPI PUSH1 0x40 MLOAD PUSH3 0x461BCD PUSH1 0xE5 SHL DUP2 MSTORE PUSH1 0x4 ADD PUSH2 0x7CF SWAP1 PUSH2 0x3263 JUMP JUMPDEST PUSH1 0x1 DUP8 DUP7 DUP2 SLOAD DUP2 LT PUSH2 0xBDE JUMPI PUSH2 0xBDE PUSH2 0x31AD JUMP JUMPDEST PUSH0 SWAP2 DUP3 MSTORE PUSH1 0x20 DUP3 KECCAK256 PUSH1 0x6 SWAP2 SWAP1 SWAP2 MUL ADD PUSH1 0x5 ADD DUP1 SLOAD PUSH1 0xFF NOT AND SWAP3 ISZERO ISZERO SWAP3 SWAP1 SWAP3 OR SWAP1 SWAP2 SSTORE PUSH1 0x2 SLOAD PUSH1 0x40 MLOAD PUSH4 0xA9059CBB PUSH1 0xE0 SHL DUP2 MSTORE PUSH1 0x1 PUSH1 0x1 PUSH1 0xA0 SHL SUB DUP13 DUP2 AND PUSH1 0x4 DUP4 ADD MSTORE PUSH1 0x24 DUP3 ADD DUP6 SWAP1 MSTORE SWAP1 SWAP2 AND SWAP1 PUSH4 0xA9059CBB SWAP1 PUSH1 0x44 ADD PUSH1 0x20 PUSH1 0x40 MLOAD DUP1 DUP4 SUB DUP2 PUSH0 DUP8 GAS CALL ISZERO DUP1 ISZERO PUSH2 0xC50 JUMPI RETURNDATASIZE PUSH0 PUSH0 RETURNDATACOPY RETURNDATASIZE PUSH0 REVERT JUMPDEST POP POP POP POP PUSH1 0x40 MLOAD RETURNDATASIZE PUSH1 0x1F NOT PUSH1 0x1F DUP3 ADD AND DUP3 ADD DUP1 PUSH1 0x40 MSTORE POP DUP2 ADD SWAP1 PUSH2 0xC74 SWAP2 SWAP1 PUSH2 0x329A JUMP JUMPDEST SWAP1 POP DUP1 PUSH2 0xCBA JUMPI PUSH1 0x40 MLOAD PUSH3 0x461BCD PUSH1 0xE5 SHL DUP2 MSTORE PUSH1 0x20 PUSH1 0x4 DUP3 ADD MSTORE PUSH1 0x14 PUSH1 0x24 DUP3 ADD MSTORE PUSH20 0x1554D115081D1C985B9CD9995C8819985A5B1959 PUSH1 0x62 SHL PUSH1 0x44 DUP3 ADD MSTORE PUSH1 0x64 ADD PUSH2 0x7CF JUMP JUMPDEST DUP10 PUSH1 0x1 PUSH1 0x1 PUSH1 0xA0 SHL SUB AND PUSH32 0x9CDCF2F7714CCA3508C7F0110B04A90A80A3A8DD0E35DE99689DB74D28C5383E DUP10 DUP9 DUP2 SLOAD DUP2 LT PUSH2 0xCF7 JUMPI PUSH2 0xCF7 PUSH2 0x31AD JUMP JUMPDEST SWAP1 PUSH0 MSTORE PUSH1 0x20 PUSH0 KECCAK256 SWAP1 PUSH1 0x6 MUL ADD PUSH0 ADD SLOAD DUP11 DUP10 DUP2 SLOAD DUP2 LT PUSH2 0xD18 JUMPI PUSH2 0xD18 PUSH2 0x31AD JUMP JUMPDEST PUSH0 SWAP2 DUP3 MSTORE PUSH1 0x20 SWAP2 DUP3 SWAP1 KECCAK256 PUSH1 0x2 PUSH1 0x6 SWAP1 SWAP3 MUL ADD ADD SLOAD PUSH1 0x40 DUP1 MLOAD SWAP4 DUP5 MSTORE SWAP2 DUP4 ADD MSTORE DUP2 ADD DUP7 SWAP1 MSTORE PUSH1 0x60 ADD JUMPDEST PUSH1 0x40 MLOAD DUP1 SWAP2 SUB SWAP1 LOG2 PUSH1 0x1 SWAP7 POP POP POP POP POP POP PUSH2 0xD5E JUMP JUMPDEST PUSH1 0x1 ADD PUSH2 0x7EE JUMP JUMPDEST POP DUP1 PUSH2 0xDB7 JUMPI PUSH1 0x40 MLOAD PUSH3 0x461BCD PUSH1 0xE5 SHL DUP2 MSTORE PUSH1 0x20 PUSH1 0x4 DUP3 ADD MSTORE PUSH1 0x22 PUSH1 0x24 DUP3 ADD MSTORE PUSH32 0x5374616B65206E6F7420666F756E64206F7220616C726561647920636C61696D PUSH1 0x44 DUP3 ADD MSTORE PUSH2 0x1959 PUSH1 0xF2 SHL PUSH1 0x64 DUP3 ADD MSTORE PUSH1 0x84 ADD PUSH2 0x7CF JUMP JUMPDEST POP POP POP POP POP JUMP JUMPDEST PUSH0 SLOAD PUSH1 0x1 PUSH1 0x1 PUSH1 0xA0 SHL SUB AND CALLER EQ PUSH2 0xE17 JUMPI PUSH1 0x40 MLOAD PUSH3 0x461BCD PUSH1 0xE5 SHL DUP2 MSTORE PUSH1 0x20 PUSH1 0x4 DUP3 ADD MSTORE PUSH1 0x17 PUSH1 0x24 DUP3 ADD MSTORE PUSH32 0x4F6E6C79206F776E65722063616E207769746864726177000000000000000000 PUSH1 0x44 DUP3 ADD MSTORE PUSH1 0x64 ADD PUSH2 0x7CF JUMP JUMPDEST PUSH1 0x2 SLOAD PUSH0 SLOAD PUSH1 0x40 MLOAD PUSH4 0xA9059CBB PUSH1 0xE0 SHL DUP2 MSTORE PUSH1 0x1 PUSH1 0x1 PUSH1 0xA0 SHL SUB SWAP2 DUP3 AND PUSH1 0x4 DUP3 ADD MSTORE PUSH1 0x24 DUP2 ADD DUP5 SWAP1 MSTORE SWAP2 AND SWAP1 PUSH4 0xA9059CBB SWAP1 PUSH1 0x44 ADD PUSH1 0x20 PUSH1 0x40 MLOAD DUP1 DUP4 SUB DUP2 PUSH0 DUP8 GAS CALL ISZERO DUP1 ISZERO PUSH2 0xE68 JUMPI RETURNDATASIZE PUSH0 PUSH0 RETURNDATACOPY RETURNDATASIZE PUSH0 REVERT JUMPDEST POP POP POP POP PUSH1 0x40 MLOAD RETURNDATASIZE PUSH1 0x1F NOT PUSH1 0x1F DUP3 ADD AND DUP3 ADD DUP1 PUSH1 0x40 MSTORE POP DUP2 ADD SWAP1 PUSH2 0xE8C SWAP2 SWAP1 PUSH2 0x329A JUMP JUMPDEST POP POP JUMP JUMPDEST CALLER PUSH0 SWAP1 DUP2 MSTORE PUSH1 0x3 PUSH1 0x20 MSTORE PUSH1 0x40 SWAP1 KECCAK256 PUSH1 0x4 ADD SLOAD PUSH1 0xFF AND ISZERO PUSH2 0xEE7 JUMPI PUSH1 0x40 MLOAD PUSH3 0x461BCD PUSH1 0xE5 SHL DUP2 MSTORE PUSH1 0x20 PUSH1 0x4 DUP3 ADD MSTORE PUSH1 0x12 PUSH1 0x24 DUP3 ADD MSTORE PUSH18 0x105B1C9958591E481C9959DA5CDD195C9959 PUSH1 0x72 SHL PUSH1 0x44 DUP3 ADD MSTORE PUSH1 0x64 ADD PUSH2 0x7CF JUMP JUMPDEST CALLER PUSH1 0x1 PUSH1 0x1 PUSH1 0xA0 SHL SUB DUP3 AND SUB PUSH2 0xF37 JUMPI PUSH1 0x40 MLOAD PUSH3 0x461BCD PUSH1 0xE5 SHL DUP2 MSTORE PUSH1 0x20 PUSH1 0x4 DUP3 ADD MSTORE PUSH1 0x15 PUSH1 0x24 DUP3 ADD MSTORE PUSH21 0x21B0B73737BA103932B332B9103CB7BAB939B2B633 PUSH1 0x59 SHL PUSH1 0x44 DUP3 ADD MSTORE PUSH1 0x64 ADD PUSH2 0x7CF JUMP JUMPDEST PUSH1 0x1 PUSH1 0x1 PUSH1 0xA0 SHL SUB DUP2 AND PUSH0 SWAP1 DUP2 MSTORE PUSH1 0x3 PUSH1 0x20 MSTORE PUSH1 0x40 SWAP1 KECCAK256 PUSH1 0x4 ADD SLOAD PUSH1 0xFF AND PUSH2 0xFA1 JUMPI PUSH1 0x40 MLOAD PUSH3 0x461BCD PUSH1 0xE5 SHL DUP2 MSTORE PUSH1 0x20 PUSH1 0x4 DUP3 ADD MSTORE PUSH1 0x17 PUSH1 0x24 DUP3 ADD MSTORE PUSH32 0x5265666572726572206E6F742072656769737465726564000000000000000000 PUSH1 0x44 DUP3 ADD MSTORE PUSH1 0x64 ADD PUSH2 0x7CF JUMP JUMPDEST PUSH1 0x1 PUSH1 0x1 PUSH1 0xA0 SHL SUB DUP2 AND PUSH0 SWAP1 DUP2 MSTORE PUSH1 0x3 PUSH1 0x20 MSTORE PUSH1 0x40 SWAP1 KECCAK256 PUSH1 0x1 ADD SLOAD PUSH2 0x101C JUMPI PUSH1 0x40 MLOAD PUSH3 0x461BCD PUSH1 0xE5 SHL DUP2 MSTORE PUSH1 0x20 PUSH1 0x4 DUP3 ADD MSTORE PUSH1 0x2B PUSH1 0x24 DUP3 ADD MSTORE PUSH32 0x5265666572726572206D757374207374616B65206265666F726520796F752063 PUSH1 0x44 DUP3 ADD MSTORE PUSH11 0x30B7103932B3B4B9BA32B9 PUSH1 0xA9 SHL PUSH1 0x64 DUP3 ADD MSTORE PUSH1 0x84 ADD PUSH2 0x7CF JUMP JUMPDEST CALLER PUSH0 DUP2 DUP2 MSTORE PUSH1 0x3 PUSH1 0x20 DUP2 DUP2 MSTORE PUSH1 0x40 DUP1 DUP5 KECCAK256 DUP1 SLOAD PUSH1 0x1 PUSH1 0x1 PUSH1 0xA0 SHL SUB SWAP8 DUP9 AND PUSH1 0x1 PUSH1 0x1 PUSH1 0xA0 SHL SUB NOT SWAP2 DUP3 AND DUP2 OR DUP4 SSTORE PUSH1 0x4 SWAP3 DUP4 ADD DUP1 SLOAD PUSH1 0xFF NOT AND PUSH1 0x1 SWAP1 DUP2 OR SWAP1 SWAP2 SSTORE PUSH1 0x8 DUP1 SLOAD DUP1 DUP4 ADD SWAP1 SWAP2 SSTORE PUSH32 0xF3F7A9FE364FAAB93B216DA50A3214154F22A0A2B415B23A84C8169E8B636EE3 ADD DUP1 SLOAD DUP5 AND DUP11 OR SWAP1 SSTORE SWAP1 DUP8 MSTORE SWAP2 DUP5 MSTORE DUP3 DUP7 KECCAK256 DUP4 MLOAD PUSH1 0x60 DUP2 ADD DUP6 MSTORE SWAP8 DUP9 MSTORE DUP8 DUP6 ADD DUP8 DUP2 MSTORE TIMESTAMP SWAP5 DUP10 ADD SWAP5 DUP6 MSTORE DUP2 SLOAD DUP1 DUP6 ADD DUP4 SSTORE SWAP2 DUP9 MSTORE SWAP5 SWAP1 SWAP7 KECCAK256 SWAP7 MLOAD SWAP6 SWAP1 SWAP5 MUL SWAP1 SWAP6 ADD DUP1 SLOAD SWAP5 SWAP1 SWAP7 AND SWAP4 SWAP1 SWAP3 AND SWAP3 SWAP1 SWAP3 OR DUP5 SSTORE SWAP1 MLOAD SWAP2 DUP4 ADD SWAP2 SWAP1 SWAP2 SSTORE MLOAD PUSH1 0x2 SWAP1 SWAP2 ADD SSTORE JUMP JUMPDEST PUSH0 SLOAD PUSH1 0x1 PUSH1 0x1 PUSH1 0xA0 SHL SUB AND CALLER EQ PUSH2 0x1114 JUMPI PUSH1 0x40 MLOAD PUSH3 0x461BCD PUSH1 0xE5 SHL DUP2 MSTORE PUSH1 0x4 ADD PUSH2 0x7CF SWAP1 PUSH2 0x32B9 JUMP JUMPDEST PUSH0 DUP3 GT PUSH2 0x1156 JUMPI PUSH1 0x40 MLOAD PUSH3 0x461BCD PUSH1 0xE5 SHL DUP2 MSTORE PUSH1 0x20 PUSH1 0x4 DUP3 ADD MSTORE PUSH1 0x10 PUSH1 0x24 DUP3 ADD MSTORE PUSH16 0x44617973206D757374206265203E203 PUSH1 0x84 SHL PUSH1 0x44 DUP3 ADD MSTORE PUSH1 0x64 ADD PUSH2 0x7CF JUMP JUMPDEST PUSH0 SWAP2 DUP3 MSTORE PUSH1 0x6 PUSH1 0x20 MSTORE PUSH1 0x40 SWAP1 SWAP2 KECCAK256 SSTORE JUMP JUMPDEST PUSH0 SLOAD PUSH1 0x1 PUSH1 0x1 PUSH1 0xA0 SHL SUB AND CALLER EQ PUSH2 0x1190 JUMPI PUSH1 0x40 MLOAD PUSH3 0x461BCD PUSH1 0xE5 SHL DUP2 MSTORE PUSH1 0x4 ADD PUSH2 0x7CF SWAP1 PUSH2 0x32B9 JUMP JUMPDEST PUSH2 0xE8C PUSH1 0x9 DUP3 PUSH1 0x5 PUSH2 0x2E70 JUMP JUMPDEST CALLER PUSH0 SWAP1 DUP2 MSTORE PUSH1 0x3 PUSH1 0x20 MSTORE PUSH1 0x40 SWAP1 KECCAK256 PUSH1 0x4 ADD SLOAD PUSH1 0xFF AND PUSH2 0x11CE JUMPI PUSH1 0x40 MLOAD PUSH3 0x461BCD PUSH1 0xE5 SHL DUP2 MSTORE PUSH1 0x4 ADD PUSH2 0x7CF SWAP1 PUSH2 0x31C1 JUMP JUMPDEST CALLER PUSH0 DUP2 DUP2 MSTORE PUSH1 0x3 PUSH1 0x20 MSTORE PUSH1 0x40 DUP2 KECCAK256 SWAP1 PUSH1 0x1 DUP3 ADD SWAP1 DUP1 JUMPDEST DUP3 SLOAD DUP2 LT ISZERO PUSH2 0xD5E JUMPI DUP6 DUP4 DUP3 DUP2 SLOAD DUP2 LT PUSH2 0x1200 JUMPI PUSH2 0x1200 PUSH2 0x31AD JUMP JUMPDEST SWAP1 PUSH0 MSTORE PUSH1 0x20 PUSH0 KECCAK256 SWAP1 PUSH1 0x6 MUL ADD PUSH1 0x1 ADD SLOAD EQ DUP1 ISZERO PUSH2 0x1242 JUMPI POP DUP3 DUP2 DUP2 SLOAD DUP2 LT PUSH2 0x122A JUMPI PUSH2 0x122A PUSH2 0x31AD JUMP JUMPDEST PUSH0 SWAP2 DUP3 MSTORE PUSH1 0x20 SWAP1 SWAP2 KECCAK256 PUSH1 0x5 PUSH1 0x6 SWAP1 SWAP3 MUL ADD ADD SLOAD PUSH1 0xFF AND ISZERO JUMPDEST ISZERO PUSH2 0x15E1 JUMPI DUP3 DUP2 DUP2 SLOAD DUP2 LT PUSH2 0x1259 JUMPI PUSH2 0x1259 PUSH2 0x31AD JUMP JUMPDEST SWAP1 PUSH0 MSTORE PUSH1 0x20 PUSH0 KECCAK256 SWAP1 PUSH1 0x6 MUL ADD PUSH1 0x3 ADD SLOAD PUSH3 0x1A5E00 PUSH2 0x1277 SWAP2 SWAP1 PUSH2 0x321A JUMP JUMPDEST TIMESTAMP LT ISZERO PUSH2 0x12D9 JUMPI PUSH1 0x40 MLOAD PUSH3 0x461BCD PUSH1 0xE5 SHL DUP2 MSTORE PUSH1 0x20 PUSH1 0x4 DUP3 ADD MSTORE PUSH1 0x2A PUSH1 0x24 DUP3 ADD MSTORE PUSH32 0x456D657267656E637920636C61696D20616C6C6F776564206F6E6C7920616674 PUSH1 0x44 DUP3 ADD MSTORE PUSH10 0x65722031302064617973 PUSH1 0xB0 SHL PUSH1 0x64 DUP3 ADD MSTORE PUSH1 0x84 ADD PUSH2 0x7CF JUMP JUMPDEST PUSH0 DUP4 DUP3 DUP2 SLOAD DUP2 LT PUSH2 0x12EC JUMPI PUSH2 0x12EC PUSH2 0x31AD JUMP JUMPDEST PUSH0 SWAP2 DUP3 MSTORE PUSH1 0x20 DUP3 KECCAK256 PUSH1 0x2 PUSH1 0x6 SWAP1 SWAP3 MUL ADD ADD SLOAD SWAP2 POP PUSH1 0x64 PUSH2 0x130D DUP4 PUSH1 0x5 PUSH2 0x31FD JUMP JUMPDEST PUSH2 0x1317 SWAP2 SWAP1 PUSH2 0x322D JUMP JUMPDEST SWAP1 POP PUSH0 PUSH2 0x1324 DUP3 DUP5 PUSH2 0x32F0 JUMP JUMPDEST PUSH1 0x2 SLOAD PUSH1 0x40 MLOAD PUSH4 0x70A08231 PUSH1 0xE0 SHL DUP2 MSTORE ADDRESS PUSH1 0x4 DUP3 ADD MSTORE SWAP2 SWAP3 POP DUP5 SWAP2 PUSH1 0x1 PUSH1 0x1 PUSH1 0xA0 SHL SUB SWAP1 SWAP2 AND SWAP1 PUSH4 0x70A08231 SWAP1 PUSH1 0x24 ADD PUSH1 0x20 PUSH1 0x40 MLOAD DUP1 DUP4 SUB DUP2 DUP7 GAS STATICCALL ISZERO DUP1 ISZERO PUSH2 0x136F JUMPI RETURNDATASIZE PUSH0 PUSH0 RETURNDATACOPY RETURNDATASIZE PUSH0 REVERT JUMPDEST POP POP POP POP PUSH1 0x40 MLOAD RETURNDATASIZE PUSH1 0x1F NOT PUSH1 0x1F DUP3 ADD AND DUP3 ADD DUP1 PUSH1 0x40 MSTORE POP DUP2 ADD SWAP1 PUSH2 0x1393 SWAP2 SWAP1 PUSH2 0x324C JUMP JUMPDEST LT ISZERO PUSH2 0x13B1 JUMPI PUSH1 0x40 MLOAD PUSH3 0x461BCD PUSH1 0xE5 SHL DUP2 MSTORE PUSH1 0x4 ADD PUSH2 0x7CF SWAP1 PUSH2 0x3263 JUMP JUMPDEST PUSH1 0x1 DUP7 DUP6 DUP2 SLOAD DUP2 LT PUSH2 0x13C5 JUMPI PUSH2 0x13C5 PUSH2 0x31AD JUMP JUMPDEST PUSH0 SWAP2 DUP3 MSTORE PUSH1 0x20 DUP3 KECCAK256 PUSH1 0x6 SWAP2 SWAP1 SWAP2 MUL ADD PUSH1 0x5 ADD DUP1 SLOAD PUSH1 0xFF NOT AND SWAP3 ISZERO ISZERO SWAP3 SWAP1 SWAP3 OR SWAP1 SWAP2 SSTORE PUSH1 0x2 SLOAD PUSH1 0x40 MLOAD PUSH4 0xA9059CBB PUSH1 0xE0 SHL DUP2 MSTORE PUSH1 0x1 PUSH1 0x1 PUSH1 0xA0 SHL SUB DUP12 DUP2 AND PUSH1 0x4 DUP4 ADD MSTORE PUSH1 0x24 DUP3 ADD DUP6 SWAP1 MSTORE SWAP1 SWAP2 AND SWAP1 PUSH4 0xA9059CBB SWAP1 PUSH1 0x44 ADD PUSH1 0x20 PUSH1 0x40 MLOAD DUP1 DUP4 SUB DUP2 PUSH0 DUP8 GAS CALL ISZERO DUP1 ISZERO PUSH2 0x1437 JUMPI RETURNDATASIZE PUSH0 PUSH0 RETURNDATACOPY RETURNDATASIZE PUSH0 REVERT JUMPDEST POP POP POP POP PUSH1 0x40 MLOAD RETURNDATASIZE PUSH1 0x1F NOT PUSH1 0x1F DUP3 ADD AND DUP3 ADD DUP1 PUSH1 0x40 MSTORE POP DUP2 ADD SWAP1 PUSH2 0x145B SWAP2 SWAP1 PUSH2 0x329A JUMP JUMPDEST SWAP1 POP DUP1 PUSH2 0x14A1 JUMPI PUSH1 0x40 MLOAD PUSH3 0x461BCD PUSH1 0xE5 SHL DUP2 MSTORE PUSH1 0x20 PUSH1 0x4 DUP3 ADD MSTORE PUSH1 0x14 PUSH1 0x24 DUP3 ADD MSTORE PUSH20 0x155CD95C881D1C985B9CD9995C8819985A5B1959 PUSH1 0x62 SHL PUSH1 0x44 DUP3 ADD MSTORE PUSH1 0x64 ADD PUSH2 0x7CF JUMP JUMPDEST PUSH1 0x2 SLOAD PUSH1 0x40 MLOAD PUSH4 0xA9059CBB PUSH1 0xE0 SHL DUP2 MSTORE PUSH20 0xEEF21D3E729763275415156B3A96DC26F371753E PUSH1 0x4 DUP3 ADD MSTORE PUSH1 0x24 DUP2 ADD DUP6 SWAP1 MSTORE PUSH0 SWAP2 PUSH1 0x1 PUSH1 0x1 PUSH1 0xA0 SHL SUB AND SWAP1 PUSH4 0xA9059CBB SWAP1 PUSH1 0x44 ADD PUSH1 0x20 PUSH1 0x40 MLOAD DUP1 DUP4 SUB DUP2 PUSH0 DUP8 GAS CALL ISZERO DUP1 ISZERO PUSH2 0x1503 JUMPI RETURNDATASIZE PUSH0 PUSH0 RETURNDATACOPY RETURNDATASIZE PUSH0 REVERT JUMPDEST POP POP POP POP PUSH1 0x40 MLOAD RETURNDATASIZE PUSH1 0x1F NOT PUSH1 0x1F DUP3 ADD AND DUP3 ADD DUP1 PUSH1 0x40 MSTORE POP DUP2 ADD SWAP1 PUSH2 0x1527 SWAP2 SWAP1 PUSH2 0x329A JUMP JUMPDEST SWAP1 POP DUP1 PUSH2 0x1576 JUMPI PUSH1 0x40 MLOAD PUSH3 0x461BCD PUSH1 0xE5 SHL DUP2 MSTORE PUSH1 0x20 PUSH1 0x4 DUP3 ADD MSTORE PUSH1 0x19 PUSH1 0x24 DUP3 ADD MSTORE PUSH32 0x41646D696E20666565207472616E73666572206661696C656400000000000000 PUSH1 0x44 DUP3 ADD MSTORE PUSH1 0x64 ADD PUSH2 0x7CF JUMP JUMPDEST DUP10 PUSH1 0x1 PUSH1 0x1 PUSH1 0xA0 SHL SUB AND PUSH32 0x9CDCF2F7714CCA3508C7F0110B04A90A80A3A8DD0E35DE99689DB74D28C5383E DUP10 DUP9 DUP2 SLOAD DUP2 LT PUSH2 0x15B3 JUMPI PUSH2 0x15B3 PUSH2 0x31AD JUMP JUMPDEST PUSH0 SWAP2 DUP3 MSTORE PUSH1 0x20 DUP3 KECCAK256 PUSH1 0x6 SWAP1 SWAP2 MUL ADD SLOAD PUSH1 0x40 MLOAD PUSH2 0xD40 SWAP3 DUP9 SWAP2 SWAP3 DUP4 MSTORE PUSH1 0x20 DUP4 ADD SWAP2 SWAP1 SWAP2 MSTORE PUSH1 0x40 DUP3 ADD MSTORE PUSH1 0x60 ADD SWAP1 JUMP JUMPDEST PUSH1 0x1 ADD PUSH2 0x11E4 JUMP JUMPDEST PUSH1 0x2 SLOAD PUSH1 0x40 MLOAD PUSH4 0x70A08231 PUSH1 0xE0 SHL DUP2 MSTORE ADDRESS PUSH1 0x4 DUP3 ADD MSTORE PUSH0 SWAP2 PUSH1 0x1 PUSH1 0x1 PUSH1 0xA0 SHL SUB AND SWAP1 PUSH4 0x70A08231 SWAP1 PUSH1 0x24 ADD PUSH1 0x20 PUSH1 0x40 MLOAD DUP1 DUP4 SUB DUP2 DUP7 GAS STATICCALL ISZERO DUP1 ISZERO PUSH2 0x162F JUMPI RETURNDATASIZE PUSH0 PUSH0 RETURNDATACOPY RETURNDATASIZE PUSH0 REVERT JUMPDEST POP POP POP POP PUSH1 0x40 MLOAD RETURNDATASIZE PUSH1 0x1F NOT PUSH1 0x1F DUP3 ADD AND DUP3 ADD DUP1 PUSH1 0x40 MSTORE POP DUP2 ADD SWAP1 PUSH2 0x1653 SWAP2 SWAP1 PUSH2 0x324C JUMP JUMPDEST SWAP1 POP SWAP1 JUMP JUMPDEST PUSH0 DUP2 DUP2 MSTORE PUSH1 0x5 PUSH1 0x20 MSTORE PUSH1 0x40 DUP2 KECCAK256 SLOAD DUP2 SWAP1 DUP2 SWAP1 DUP2 SWAP1 DUP2 SWAP1 DUP2 SWAP1 DUP2 SWAP1 DUP2 SWAP1 PUSH1 0x1 PUSH1 0x1 PUSH1 0xA0 SHL SUB AND DUP1 PUSH2 0x16BF JUMPI PUSH1 0x40 MLOAD PUSH3 0x461BCD PUSH1 0xE5 SHL DUP2 MSTORE PUSH1 0x20 PUSH1 0x4 DUP3 ADD MSTORE PUSH1 0x12 PUSH1 0x24 DUP3 ADD MSTORE PUSH18 0x125B9D985B1A59081C1BDCDA5D1A5BDB9259 PUSH1 0x72 SHL PUSH1 0x44 DUP3 ADD MSTORE PUSH1 0x64 ADD PUSH2 0x7CF JUMP JUMPDEST PUSH1 0x1 PUSH1 0x1 PUSH1 0xA0 SHL SUB DUP2 AND PUSH0 SWAP1 DUP2 MSTORE PUSH1 0x3 PUSH1 0x20 SWAP1 DUP2 MSTORE PUSH1 0x40 DUP1 DUP4 KECCAK256 PUSH1 0x1 ADD DUP1 SLOAD DUP3 MLOAD DUP2 DUP6 MUL DUP2 ADD DUP6 ADD SWAP1 SWAP4 MSTORE DUP1 DUP4 MSTORE SWAP2 SWAP3 SWAP1 SWAP2 SWAP1 DUP5 SWAP1 DUP5 ADD JUMPDEST DUP3 DUP3 LT ISZERO PUSH2 0x1763 JUMPI PUSH0 DUP5 DUP2 MSTORE PUSH1 0x20 SWAP1 DUP2 SWAP1 KECCAK256 PUSH1 0x40 DUP1 MLOAD PUSH1 0xC0 DUP2 ADD DUP3 MSTORE PUSH1 0x6 DUP7 MUL SWAP1 SWAP3 ADD DUP1 SLOAD DUP4 MSTORE PUSH1 0x1 DUP1 DUP3 ADD SLOAD DUP5 DUP7 ADD MSTORE PUSH1 0x2 DUP3 ADD SLOAD SWAP3 DUP5 ADD SWAP3 SWAP1 SWAP3 MSTORE PUSH1 0x3 DUP2 ADD SLOAD PUSH1 0x60 DUP5 ADD MSTORE PUSH1 0x4 DUP2 ADD SLOAD PUSH1 0x80 DUP5 ADD MSTORE PUSH1 0x5 ADD SLOAD PUSH1 0xFF AND ISZERO ISZERO PUSH1 0xA0 DUP4 ADD MSTORE SWAP1 DUP4 MSTORE SWAP1 SWAP3 ADD SWAP2 ADD PUSH2 0x16F7 JUMP JUMPDEST POP SWAP3 SWAP4 POP PUSH0 SWAP3 POP POP POP JUMPDEST DUP2 MLOAD DUP2 LT ISZERO PUSH2 0x186D JUMPI DUP12 DUP3 DUP3 DUP2 MLOAD DUP2 LT PUSH2 0x1789 JUMPI PUSH2 0x1789 PUSH2 0x31AD JUMP JUMPDEST PUSH1 0x20 MUL PUSH1 0x20 ADD ADD MLOAD PUSH1 0x20 ADD MLOAD SUB PUSH2 0x1865 JUMPI PUSH0 DUP3 DUP3 DUP2 MLOAD DUP2 LT PUSH2 0x17AD JUMPI PUSH2 0x17AD PUSH2 0x31AD JUMP JUMPDEST PUSH1 0x20 MUL PUSH1 0x20 ADD ADD MLOAD SWAP1 POP PUSH0 PUSH1 0x6 PUSH0 DUP4 PUSH1 0x80 ADD MLOAD DUP2 MSTORE PUSH1 0x20 ADD SWAP1 DUP2 MSTORE PUSH1 0x20 ADD PUSH0 KECCAK256 SLOAD SWAP1 POP PUSH0 DUP3 PUSH1 0x80 ADD MLOAD PUSH3 0x15180 PUSH2 0x17E4 SWAP2 SWAP1 PUSH2 0x31FD JUMP JUMPDEST DUP4 PUSH1 0x60 ADD MLOAD PUSH2 0x17F3 SWAP2 SWAP1 PUSH2 0x321A JUMP JUMPDEST SWAP1 POP PUSH0 DUP4 PUSH1 0xA0 ADD MLOAD ISZERO DUP1 ISZERO PUSH2 0x1807 JUMPI POP DUP2 TIMESTAMP LT JUMPDEST SWAP1 POP PUSH0 PUSH2 0x16D PUSH1 0x64 DUP6 DUP8 PUSH1 0x40 ADD MLOAD PUSH2 0x181F SWAP2 SWAP1 PUSH2 0x31FD JUMP JUMPDEST PUSH2 0x1829 SWAP2 SWAP1 PUSH2 0x322D JUMP JUMPDEST PUSH2 0x1833 SWAP2 SWAP1 PUSH2 0x322D JUMP JUMPDEST SWAP1 POP DUP8 DUP6 PUSH0 ADD MLOAD DUP7 PUSH1 0x40 ADD MLOAD DUP8 PUSH1 0x60 ADD MLOAD DUP7 DUP9 DUP7 DUP9 SWAP16 POP SWAP16 POP SWAP16 POP SWAP16 POP SWAP16 POP SWAP16 POP SWAP16 POP SWAP16 POP POP POP POP POP POP POP POP POP PUSH2 0x18A8 JUMP JUMPDEST PUSH1 0x1 ADD PUSH2 0x176D JUMP JUMPDEST POP PUSH1 0x40 MLOAD PUSH3 0x461BCD PUSH1 0xE5 SHL DUP2 MSTORE PUSH1 0x20 PUSH1 0x4 DUP3 ADD MSTORE PUSH1 0xF PUSH1 0x24 DUP3 ADD MSTORE PUSH15 0x14DD185AD9481B9BDD08199BDD5B99 PUSH1 0x8A SHL PUSH1 0x44 DUP3 ADD MSTORE PUSH1 0x64 ADD PUSH2 0x7CF JUMP JUMPDEST SWAP2 SWAP4 SWAP6 SWAP8 POP SWAP2 SWAP4 SWAP6 SWAP8 JUMP JUMPDEST CALLER PUSH0 SWAP1 DUP2 MSTORE PUSH1 0x3 PUSH1 0x20 MSTORE PUSH1 0x40 SWAP1 KECCAK256 PUSH1 0x4 ADD SLOAD PUSH1 0xFF AND PUSH2 0x18E4 JUMPI PUSH1 0x40 MLOAD PUSH3 0x461BCD PUSH1 0xE5 SHL DUP2 MSTORE PUSH1 0x4 ADD PUSH2 0x7CF SWAP1 PUSH2 0x31C1 JUMP JUMPDEST PUSH0 DUP2 GT PUSH2 0x193F JUMPI PUSH1 0x40 MLOAD PUSH3 0x461BCD PUSH1 0xE5 SHL DUP2 MSTORE PUSH1 0x20 PUSH1 0x4 DUP3 ADD MSTORE PUSH1 0x23 PUSH1 0x24 DUP3 ADD MSTORE PUSH32 0x5374616B6520616D6F756E74206D757374206265206772656174657220746861 PUSH1 0x44 DUP3 ADD MSTORE PUSH3 0x6E203 PUSH1 0xEC SHL PUSH1 0x64 DUP3 ADD MSTORE PUSH1 0x84 ADD PUSH2 0x7CF JUMP JUMPDEST PUSH0 DUP3 DUP2 MSTORE PUSH1 0x6 PUSH1 0x20 MSTORE PUSH1 0x40 SWAP1 KECCAK256 SLOAD PUSH2 0x1994 JUMPI PUSH1 0x40 MLOAD PUSH3 0x461BCD PUSH1 0xE5 SHL DUP2 MSTORE PUSH1 0x20 PUSH1 0x4 DUP3 ADD MSTORE PUSH1 0x18 PUSH1 0x24 DUP3 ADD MSTORE PUSH24 0x24B73B30B634B21039BA30B5B4B73390323AB930BA34B7B7 PUSH1 0x41 SHL PUSH1 0x44 DUP3 ADD MSTORE PUSH1 0x64 ADD PUSH2 0x7CF JUMP JUMPDEST CALLER PUSH0 SWAP1 DUP2 MSTORE PUSH1 0x3 PUSH1 0x20 MSTORE PUSH1 0x40 SWAP1 KECCAK256 SLOAD PUSH1 0x1 PUSH1 0x1 PUSH1 0xA0 SHL SUB AND DUP1 ISZERO PUSH2 0x1A2A JUMPI PUSH1 0x1 PUSH1 0x1 PUSH1 0xA0 SHL SUB DUP2 AND PUSH0 SWAP1 DUP2 MSTORE PUSH1 0x3 PUSH1 0x20 MSTORE PUSH1 0x40 SWAP1 KECCAK256 PUSH1 0x1 ADD SLOAD PUSH2 0x1A2A JUMPI PUSH1 0x40 MLOAD PUSH3 0x461BCD PUSH1 0xE5 SHL DUP2 MSTORE PUSH1 0x20 PUSH1 0x4 DUP3 ADD MSTORE PUSH1 0x28 PUSH1 0x24 DUP3 ADD MSTORE PUSH32 0x5265666572726572206D757374207374616B65206265666F726520796F752063 PUSH1 0x44 DUP3 ADD MSTORE PUSH8 0x616E207374616B65 PUSH1 0xC0 SHL PUSH1 0x64 DUP3 ADD MSTORE PUSH1 0x84 ADD PUSH2 0x7CF JUMP JUMPDEST PUSH1 0x2 SLOAD PUSH1 0x40 MLOAD PUSH4 0x23B872DD PUSH1 0xE0 SHL DUP2 MSTORE CALLER PUSH1 0x4 DUP3 ADD MSTORE ADDRESS PUSH1 0x24 DUP3 ADD MSTORE PUSH1 0x44 DUP2 ADD DUP5 SWAP1 MSTORE PUSH0 SWAP2 PUSH1 0x1 PUSH1 0x1 PUSH1 0xA0 SHL SUB AND SWAP1 PUSH4 0x23B872DD SWAP1 PUSH1 0x64 ADD PUSH1 0x20 PUSH1 0x40 MLOAD DUP1 DUP4 SUB DUP2 PUSH0 DUP8 GAS CALL ISZERO DUP1 ISZERO PUSH2 0x1A7E JUMPI RETURNDATASIZE PUSH0 PUSH0 RETURNDATACOPY RETURNDATASIZE PUSH0 REVERT JUMPDEST POP POP POP POP PUSH1 0x40 MLOAD RETURNDATASIZE PUSH1 0x1F NOT PUSH1 0x1F DUP3 ADD AND DUP3 ADD DUP1 PUSH1 0x40 MSTORE POP DUP2 ADD SWAP1 PUSH2 0x1AA2 SWAP2 SWAP1 PUSH2 0x329A JUMP JUMPDEST SWAP1 POP DUP1 PUSH2 0x1AE8 JUMPI PUSH1 0x40 MLOAD PUSH3 0x461BCD PUSH1 0xE5 SHL DUP2 MSTORE PUSH1 0x20 PUSH1 0x4 DUP3 ADD MSTORE PUSH1 0x14 PUSH1 0x24 DUP3 ADD MSTORE PUSH20 0x1554D115081D1C985B9CD9995C8819985A5B1959 PUSH1 0x62 SHL PUSH1 0x44 DUP3 ADD MSTORE PUSH1 0x64 ADD PUSH2 0x7CF JUMP JUMPDEST PUSH0 PUSH1 0x1 PUSH0 DUP2 SLOAD PUSH2 0x1AF7 SWAP1 PUSH2 0x3303 JUMP JUMPDEST SWAP2 SWAP1 POP DUP2 SWAP1 SSTORE SWAP1 POP PUSH1 0x3 PUSH0 CALLER PUSH1 0x1 PUSH1 0x1 PUSH1 0xA0 SHL SUB AND PUSH1 0x1 PUSH1 0x1 PUSH1 0xA0 SHL SUB AND DUP2 MSTORE PUSH1 0x20 ADD SWAP1 DUP2 MSTORE PUSH1 0x20 ADD PUSH0 KECCAK256 PUSH1 0x1 ADD PUSH1 0x40 MLOAD DUP1 PUSH1 0xC0 ADD PUSH1 0x40 MSTORE DUP1 PUSH1 0x1 SLOAD DUP2 MSTORE PUSH1 0x20 ADD DUP4 DUP2 MSTORE PUSH1 0x20 ADD DUP7 DUP2 MSTORE PUSH1 0x20 ADD TIMESTAMP DUP2 MSTORE PUSH1 0x20 ADD DUP8 DUP2 MSTORE PUSH1 0x20 ADD PUSH0 ISZERO ISZERO DUP2 MSTORE POP SWAP1 DUP1 PUSH1 0x1 DUP2 SLOAD ADD DUP1 DUP3 SSTORE DUP1 SWAP2 POP POP PUSH1 0x1 SWAP1 SUB SWAP1 PUSH0 MSTORE PUSH1 0x20 PUSH0 KECCAK256 SWAP1 PUSH1 0x6 MUL ADD PUSH0 SWAP1 SWAP2 SWAP1 SWAP2 SWAP1 SWAP2 POP PUSH0 DUP3 ADD MLOAD DUP2 PUSH0 ADD SSTORE PUSH1 0x20 DUP3 ADD MLOAD DUP2 PUSH1 0x1 ADD SSTORE PUSH1 0x40 DUP3 ADD MLOAD DUP2 PUSH1 0x2 ADD SSTORE PUSH1 0x60 DUP3 ADD MLOAD DUP2 PUSH1 0x3 ADD SSTORE PUSH1 0x80 DUP3 ADD MLOAD DUP2 PUSH1 0x4 ADD SSTORE PUSH1 0xA0 DUP3 ADD MLOAD DUP2 PUSH1 0x5 ADD PUSH0 PUSH2 0x100 EXP DUP2 SLOAD DUP2 PUSH1 0xFF MUL NOT AND SWAP1 DUP4 ISZERO ISZERO MUL OR SWAP1 SSTORE POP POP POP CALLER PUSH1 0x5 PUSH0 DUP4 DUP2 MSTORE PUSH1 0x20 ADD SWAP1 DUP2 MSTORE PUSH1 0x20 ADD PUSH0 KECCAK256 PUSH0 PUSH2 0x100 EXP DUP2 SLOAD DUP2 PUSH1 0x1 PUSH1 0x1 PUSH1 0xA0 SHL SUB MUL NOT AND SWAP1 DUP4 PUSH1 0x1 PUSH1 0x1 PUSH1 0xA0 SHL SUB AND MUL OR SWAP1 SSTORE POP PUSH0 PUSH1 0x3 PUSH0 CALLER PUSH1 0x1 PUSH1 0x1 PUSH1 0xA0 SHL SUB AND PUSH1 0x1 PUSH1 0x1 PUSH1 0xA0 SHL SUB AND DUP2 MSTORE PUSH1 0x20 ADD SWAP1 DUP2 MSTORE PUSH1 0x20 ADD PUSH0 KECCAK256 PUSH1 0x1 ADD DUP1 SLOAD SWAP1 POP PUSH1 0x1 EQ SWAP1 POP PUSH0 PUSH1 0x3 PUSH0 CALLER PUSH1 0x1 PUSH1 0x1 PUSH1 0xA0 SHL SUB AND PUSH1 0x1 PUSH1 0x1 PUSH1 0xA0 SHL SUB AND DUP2 MSTORE PUSH1 0x20 ADD SWAP1 DUP2 MSTORE PUSH1 0x20 ADD PUSH0 KECCAK256 PUSH0 ADD PUSH0 SWAP1 SLOAD SWAP1 PUSH2 0x100 EXP SWAP1 DIV PUSH1 0x1 PUSH1 0x1 PUSH1 0xA0 SHL SUB AND SWAP1 POP PUSH0 PUSH0 SWAP1 POP JUMPDEST PUSH1 0x5 DUP2 PUSH1 0xFF AND LT DUP1 ISZERO PUSH2 0x1C8D JUMPI POP PUSH1 0x1 PUSH1 0x1 PUSH1 0xA0 SHL SUB DUP3 AND ISZERO ISZERO JUMPDEST ISZERO PUSH2 0x2435 JUMPI PUSH0 PUSH1 0xFF DUP3 AND DUP2 SUB PUSH2 0x2218 JUMPI DUP4 ISZERO PUSH2 0x2026 JUMPI PUSH0 PUSH1 0x64 PUSH2 0x1CB1 DUP11 PUSH1 0x5 PUSH2 0x31FD JUMP JUMPDEST PUSH2 0x1CBB SWAP2 SWAP1 PUSH2 0x322D JUMP JUMPDEST SWAP1 POP PUSH0 PUSH1 0x64 PUSH2 0x1CCB DUP12 PUSH1 0x5 PUSH2 0x31FD JUMP JUMPDEST PUSH2 0x1CD5 SWAP2 SWAP1 PUSH2 0x322D JUMP JUMPDEST SWAP1 POP PUSH2 0x1CE1 DUP2 DUP4 PUSH2 0x321A JUMP JUMPDEST PUSH1 0x2 SLOAD PUSH1 0x40 MLOAD PUSH4 0x70A08231 PUSH1 0xE0 SHL DUP2 MSTORE ADDRESS PUSH1 0x4 DUP3 ADD MSTORE PUSH1 0x1 PUSH1 0x1 PUSH1 0xA0 SHL SUB SWAP1 SWAP2 AND SWAP1 PUSH4 0x70A08231 SWAP1 PUSH1 0x24 ADD PUSH1 0x20 PUSH1 0x40 MLOAD DUP1 DUP4 SUB DUP2 DUP7 GAS STATICCALL ISZERO DUP1 ISZERO PUSH2 0x1D27 JUMPI RETURNDATASIZE PUSH0 PUSH0 RETURNDATACOPY RETURNDATASIZE PUSH0 REVERT JUMPDEST POP POP POP POP PUSH1 0x40 MLOAD RETURNDATASIZE PUSH1 0x1F NOT PUSH1 0x1F DUP3 ADD AND DUP3 ADD DUP1 PUSH1 0x40 MSTORE POP DUP2 ADD SWAP1 PUSH2 0x1D4B SWAP2 SWAP1 PUSH2 0x324C JUMP JUMPDEST LT ISZERO PUSH2 0x1D69 JUMPI PUSH1 0x40 MLOAD PUSH3 0x461BCD PUSH1 0xE5 SHL DUP2 MSTORE PUSH1 0x4 ADD PUSH2 0x7CF SWAP1 PUSH2 0x3263 JUMP JUMPDEST PUSH1 0x2 SLOAD PUSH1 0x40 MLOAD PUSH4 0xA9059CBB PUSH1 0xE0 SHL DUP2 MSTORE PUSH1 0x1 PUSH1 0x1 PUSH1 0xA0 SHL SUB DUP8 DUP2 AND PUSH1 0x4 DUP4 ADD MSTORE PUSH1 0x24 DUP3 ADD DUP6 SWAP1 MSTORE SWAP1 SWAP2 AND SWAP1 PUSH4 0xA9059CBB SWAP1 PUSH1 0x44 ADD PUSH1 0x20 PUSH1 0x40 MLOAD DUP1 DUP4 SUB DUP2 PUSH0 DUP8 GAS CALL ISZERO DUP1 ISZERO PUSH2 0x1DB9 JUMPI RETURNDATASIZE PUSH0 PUSH0 RETURNDATACOPY RETURNDATASIZE PUSH0 REVERT JUMPDEST POP POP POP POP PUSH1 0x40 MLOAD RETURNDATASIZE PUSH1 0x1F NOT PUSH1 0x1F DUP3 ADD AND DUP3 ADD DUP1 PUSH1 0x40 MSTORE POP DUP2 ADD SWAP1 PUSH2 0x1DDD SWAP2 SWAP1 PUSH2 0x329A JUMP JUMPDEST PUSH2 0x1E29 JUMPI PUSH1 0x40 MLOAD PUSH3 0x461BCD PUSH1 0xE5 SHL DUP2 MSTORE PUSH1 0x20 PUSH1 0x4 DUP3 ADD MSTORE PUSH1 0x1F PUSH1 0x24 DUP3 ADD MSTORE PUSH32 0x44697265637420726566657272616C207472616E73666572206661696C656400 PUSH1 0x44 DUP3 ADD MSTORE PUSH1 0x64 ADD PUSH2 0x7CF JUMP JUMPDEST PUSH1 0x2 SLOAD PUSH1 0x40 MLOAD PUSH4 0xA9059CBB PUSH1 0xE0 SHL DUP2 MSTORE PUSH1 0x1 PUSH1 0x1 PUSH1 0xA0 SHL SUB DUP8 DUP2 AND PUSH1 0x4 DUP4 ADD MSTORE PUSH1 0x24 DUP3 ADD DUP5 SWAP1 MSTORE SWAP1 SWAP2 AND SWAP1 PUSH4 0xA9059CBB SWAP1 PUSH1 0x44 ADD PUSH1 0x20 PUSH1 0x40 MLOAD DUP1 DUP4 SUB DUP2 PUSH0 DUP8 GAS CALL ISZERO DUP1 ISZERO PUSH2 0x1E79 JUMPI RETURNDATASIZE PUSH0 PUSH0 RETURNDATACOPY RETURNDATASIZE PUSH0 REVERT JUMPDEST POP POP POP POP PUSH1 0x40 MLOAD RETURNDATASIZE PUSH1 0x1F NOT PUSH1 0x1F DUP3 ADD AND DUP3 ADD DUP1 PUSH1 0x40 MSTORE POP DUP2 ADD SWAP1 PUSH2 0x1E9D SWAP2 SWAP1 PUSH2 0x329A JUMP JUMPDEST PUSH2 0x1EE9 JUMPI PUSH1 0x40 MLOAD PUSH3 0x461BCD PUSH1 0xE5 SHL DUP2 MSTORE PUSH1 0x20 PUSH1 0x4 DUP3 ADD MSTORE PUSH1 0x1E PUSH1 0x24 DUP3 ADD MSTORE PUSH32 0x4C6576656C203120726577617264207472616E73666572206661696C65640000 PUSH1 0x44 DUP3 ADD MSTORE PUSH1 0x64 ADD PUSH2 0x7CF JUMP JUMPDEST PUSH1 0x1 PUSH1 0x1 PUSH1 0xA0 SHL SUB DUP6 AND PUSH0 SWAP1 DUP2 MSTORE PUSH1 0x7 PUSH1 0x20 MSTORE PUSH1 0x40 DUP2 KECCAK256 DUP1 SLOAD DUP5 SWAP3 SWAP1 PUSH2 0x1F10 SWAP1 DUP5 SWAP1 PUSH2 0x321A JUMP JUMPDEST SWAP1 SWAP2 SSTORE POP PUSH2 0x1F20 SWAP1 POP DUP2 DUP4 PUSH2 0x321A JUMP JUMPDEST PUSH1 0x1 PUSH1 0x1 PUSH1 0xA0 SHL SUB DUP7 AND PUSH0 SWAP1 DUP2 MSTORE PUSH1 0x3 PUSH1 0x20 MSTORE PUSH1 0x40 DUP2 KECCAK256 PUSH1 0x2 ADD DUP1 SLOAD SWAP1 SWAP2 SWAP1 PUSH2 0x1F4A SWAP1 DUP5 SWAP1 PUSH2 0x321A JUMP JUMPDEST SWAP1 SWAP2 SSTORE POP POP PUSH1 0x1 PUSH1 0x1 PUSH1 0xA0 SHL SUB DUP6 AND PUSH0 SWAP1 DUP2 MSTORE PUSH1 0x3 PUSH1 0x20 DUP2 SWAP1 MSTORE PUSH1 0x40 DUP3 KECCAK256 ADD DUP1 SLOAD DUP4 SWAP3 SWAP1 PUSH2 0x1F79 SWAP1 DUP5 SWAP1 PUSH2 0x321A JUMP JUMPDEST SWAP1 SWAP2 SSTORE POP POP PUSH1 0x1 PUSH1 0x1 PUSH1 0xA0 SHL SUB DUP6 AND PUSH0 SWAP1 DUP2 MSTORE PUSH1 0x4 PUSH1 0x20 MSTORE PUSH1 0x40 DUP2 KECCAK256 SWAP1 JUMPDEST DUP2 SLOAD DUP2 LT ISZERO PUSH2 0x201D JUMPI CALLER PUSH1 0x1 PUSH1 0x1 PUSH1 0xA0 SHL SUB AND DUP3 DUP3 DUP2 SLOAD DUP2 LT PUSH2 0x1FBC JUMPI PUSH2 0x1FBC PUSH2 0x31AD JUMP JUMPDEST PUSH0 SWAP2 DUP3 MSTORE PUSH1 0x20 SWAP1 SWAP2 KECCAK256 PUSH1 0x3 SWAP1 SWAP2 MUL ADD SLOAD PUSH1 0x1 PUSH1 0x1 PUSH1 0xA0 SHL SUB AND SUB PUSH2 0x2015 JUMPI DUP4 DUP3 DUP3 DUP2 SLOAD DUP2 LT PUSH2 0x1FED JUMPI PUSH2 0x1FED PUSH2 0x31AD JUMP JUMPDEST SWAP1 PUSH0 MSTORE PUSH1 0x20 PUSH0 KECCAK256 SWAP1 PUSH1 0x3 MUL ADD PUSH1 0x1 ADD PUSH0 DUP3 DUP3 SLOAD PUSH2 0x200A SWAP2 SWAP1 PUSH2 0x321A JUMP JUMPDEST SWAP1 SWAP2 SSTORE POP PUSH2 0x201D SWAP1 POP JUMP JUMPDEST PUSH1 0x1 ADD PUSH2 0x1F97 JUMP JUMPDEST POP POP POP POP PUSH2 0x2405 JUMP JUMPDEST PUSH1 0x64 PUSH1 0x9 DUP4 PUSH1 0xFF AND PUSH1 0x5 DUP2 LT PUSH2 0x203E JUMPI PUSH2 0x203E PUSH2 0x31AD JUMP JUMPDEST PUSH1 0x20 DUP2 DIV SWAP2 SWAP1 SWAP2 ADD SLOAD PUSH2 0x205D SWAP2 PUSH1 0x1F AND PUSH2 0x100 EXP SWAP1 DIV PUSH1 0xFF AND DUP11 PUSH2 0x31FD JUMP JUMPDEST PUSH2 0x2067 SWAP2 SWAP1 PUSH2 0x322D JUMP JUMPDEST PUSH1 0x2 SLOAD PUSH1 0x40 MLOAD PUSH4 0x70A08231 PUSH1 0xE0 SHL DUP2 MSTORE ADDRESS PUSH1 0x4 DUP3 ADD MSTORE SWAP2 SWAP3 POP DUP3 SWAP2 PUSH1 0x1 PUSH1 0x1 PUSH1 0xA0 SHL SUB SWAP1 SWAP2 AND SWAP1 PUSH4 0x70A08231 SWAP1 PUSH1 0x24 ADD PUSH1 0x20 PUSH1 0x40 MLOAD DUP1 DUP4 SUB DUP2 DUP7 GAS STATICCALL ISZERO DUP1 ISZERO PUSH2 0x20B2 JUMPI RETURNDATASIZE PUSH0 PUSH0 RETURNDATACOPY RETURNDATASIZE PUSH0 REVERT JUMPDEST POP POP POP POP PUSH1 0x40 MLOAD RETURNDATASIZE PUSH1 0x1F NOT PUSH1 0x1F DUP3 ADD AND DUP3 ADD DUP1 PUSH1 0x40 MSTORE POP DUP2 ADD SWAP1 PUSH2 0x20D6 SWAP2 SWAP1 PUSH2 0x324C JUMP JUMPDEST LT ISZERO PUSH2 0x20F4 JUMPI PUSH1 0x40 MLOAD PUSH3 0x461BCD PUSH1 0xE5 SHL DUP2 MSTORE PUSH1 0x4 ADD PUSH2 0x7CF SWAP1 PUSH2 0x3263 JUMP JUMPDEST PUSH1 0x2 SLOAD PUSH1 0x40 MLOAD PUSH4 0xA9059CBB PUSH1 0xE0 SHL DUP2 MSTORE PUSH1 0x1 PUSH1 0x1 PUSH1 0xA0 SHL SUB DUP6 DUP2 AND PUSH1 0x4 DUP4 ADD MSTORE PUSH1 0x24 DUP3 ADD DUP5 SWAP1 MSTORE SWAP1 SWAP2 AND SWAP1 PUSH4 0xA9059CBB SWAP1 PUSH1 0x44 ADD PUSH1 0x20 PUSH1 0x40 MLOAD DUP1 DUP4 SUB DUP2 PUSH0 DUP8 GAS CALL ISZERO DUP1 ISZERO PUSH2 0x2144 JUMPI RETURNDATASIZE PUSH0 PUSH0 RETURNDATACOPY RETURNDATASIZE PUSH0 REVERT JUMPDEST POP POP POP POP PUSH1 0x40 MLOAD RETURNDATASIZE PUSH1 0x1F NOT PUSH1 0x1F DUP3 ADD AND DUP3 ADD DUP1 PUSH1 0x40 MSTORE POP DUP2 ADD SWAP1 PUSH2 0x2168 SWAP2 SWAP1 PUSH2 0x329A JUMP JUMPDEST PUSH2 0x21B4 JUMPI PUSH1 0x40 MLOAD PUSH3 0x461BCD PUSH1 0xE5 SHL DUP2 MSTORE PUSH1 0x20 PUSH1 0x4 DUP3 ADD MSTORE PUSH1 0x1E PUSH1 0x24 DUP3 ADD MSTORE PUSH32 0x4C6576656C203120726577617264207472616E73666572206661696C65640000 PUSH1 0x44 DUP3 ADD MSTORE PUSH1 0x64 ADD PUSH2 0x7CF JUMP JUMPDEST PUSH1 0x1 PUSH1 0x1 PUSH1 0xA0 SHL SUB DUP4 AND PUSH0 SWAP1 DUP2 MSTORE PUSH1 0x3 PUSH1 0x20 MSTORE PUSH1 0x40 DUP2 KECCAK256 PUSH1 0x2 ADD DUP1 SLOAD DUP4 SWAP3 SWAP1 PUSH2 0x21DE SWAP1 DUP5 SWAP1 PUSH2 0x321A JUMP JUMPDEST SWAP1 SWAP2 SSTORE POP POP PUSH1 0x1 PUSH1 0x1 PUSH1 0xA0 SHL SUB DUP4 AND PUSH0 SWAP1 DUP2 MSTORE PUSH1 0x3 PUSH1 0x20 DUP2 SWAP1 MSTORE PUSH1 0x40 DUP3 KECCAK256 ADD DUP1 SLOAD DUP4 SWAP3 SWAP1 PUSH2 0x220D SWAP1 DUP5 SWAP1 PUSH2 0x321A JUMP JUMPDEST SWAP1 SWAP2 SSTORE POP PUSH2 0x2405 SWAP1 POP JUMP JUMPDEST PUSH1 0x64 PUSH1 0x9 DUP4 PUSH1 0xFF AND PUSH1 0x5 DUP2 LT PUSH2 0x2230 JUMPI PUSH2 0x2230 PUSH2 0x31AD JUMP JUMPDEST PUSH1 0x20 DUP2 DIV SWAP2 SWAP1 SWAP2 ADD SLOAD PUSH2 0x224F SWAP2 PUSH1 0x1F AND PUSH2 0x100 EXP SWAP1 DIV PUSH1 0xFF AND DUP11 PUSH2 0x31FD JUMP JUMPDEST PUSH2 0x2259 SWAP2 SWAP1 PUSH2 0x322D JUMP JUMPDEST PUSH1 0x2 SLOAD PUSH1 0x40 MLOAD PUSH4 0x70A08231 PUSH1 0xE0 SHL DUP2 MSTORE ADDRESS PUSH1 0x4 DUP3 ADD MSTORE SWAP2 SWAP3 POP DUP3 SWAP2 PUSH1 0x1 PUSH1 0x1 PUSH1 0xA0 SHL SUB SWAP1 SWAP2 AND SWAP1 PUSH4 0x70A08231 SWAP1 PUSH1 0x24 ADD PUSH1 0x20 PUSH1 0x40 MLOAD DUP1 DUP4 SUB DUP2 DUP7 GAS STATICCALL ISZERO DUP1 ISZERO PUSH2 0x22A4 JUMPI RETURNDATASIZE PUSH0 PUSH0 RETURNDATACOPY RETURNDATASIZE PUSH0 REVERT JUMPDEST POP POP POP POP PUSH1 0x40 MLOAD RETURNDATASIZE PUSH1 0x1F NOT PUSH1 0x1F DUP3 ADD AND DUP3 ADD DUP1 PUSH1 0x40 MSTORE POP DUP2 ADD SWAP1 PUSH2 0x22C8 SWAP2 SWAP1 PUSH2 0x324C JUMP JUMPDEST LT ISZERO PUSH2 0x22E6 JUMPI PUSH1 0x40 MLOAD PUSH3 0x461BCD PUSH1 0xE5 SHL DUP2 MSTORE PUSH1 0x4 ADD PUSH2 0x7CF SWAP1 PUSH2 0x3263 JUMP JUMPDEST PUSH1 0x2 SLOAD PUSH1 0x40 MLOAD PUSH4 0xA9059CBB PUSH1 0xE0 SHL DUP2 MSTORE PUSH1 0x1 PUSH1 0x1 PUSH1 0xA0 SHL SUB DUP6 DUP2 AND PUSH1 0x4 DUP4 ADD MSTORE PUSH1 0x24 DUP3 ADD DUP5 SWAP1 MSTORE SWAP1 SWAP2 AND SWAP1 PUSH4 0xA9059CBB SWAP1 PUSH1 0x44 ADD PUSH1 0x20 PUSH1 0x40 MLOAD DUP1 DUP4 SUB DUP2 PUSH0 DUP8 GAS CALL ISZERO DUP1 ISZERO PUSH2 0x2336 JUMPI RETURNDATASIZE PUSH0 PUSH0 RETURNDATACOPY RETURNDATASIZE PUSH0 REVERT JUMPDEST POP POP POP POP PUSH1 0x40 MLOAD RETURNDATASIZE PUSH1 0x1F NOT PUSH1 0x1F DUP3 ADD AND DUP3 ADD DUP1 PUSH1 0x40 MSTORE POP DUP2 ADD SWAP1 PUSH2 0x235A SWAP2 SWAP1 PUSH2 0x329A JUMP JUMPDEST PUSH2 0x23A6 JUMPI PUSH1 0x40 MLOAD PUSH3 0x461BCD PUSH1 0xE5 SHL DUP2 MSTORE PUSH1 0x20 PUSH1 0x4 DUP3 ADD MSTORE PUSH1 0x1C PUSH1 0x24 DUP3 ADD MSTORE PUSH32 0x4C6576656C20726577617264207472616E73666572206661696C656400000000 PUSH1 0x44 DUP3 ADD MSTORE PUSH1 0x64 ADD PUSH2 0x7CF JUMP JUMPDEST PUSH1 0x1 PUSH1 0x1 PUSH1 0xA0 SHL SUB DUP4 AND PUSH0 SWAP1 DUP2 MSTORE PUSH1 0x3 PUSH1 0x20 MSTORE PUSH1 0x40 DUP2 KECCAK256 PUSH1 0x2 ADD DUP1 SLOAD DUP4 SWAP3 SWAP1 PUSH2 0x23D0 SWAP1 DUP5 SWAP1 PUSH2 0x321A JUMP JUMPDEST SWAP1 SWAP2 SSTORE POP POP PUSH1 0x1 PUSH1 0x1 PUSH1 0xA0 SHL SUB DUP4 AND PUSH0 SWAP1 DUP2 MSTORE PUSH1 0x3 PUSH1 0x20 DUP2 SWAP1 MSTORE PUSH1 0x40 DUP3 KECCAK256 ADD DUP1 SLOAD DUP4 SWAP3 SWAP1 PUSH2 0x23FF SWAP1 DUP5 SWAP1 PUSH2 0x321A JUMP JUMPDEST SWAP1 SWAP2 SSTORE POP POP JUMPDEST POP PUSH1 0x1 PUSH1 0x1 PUSH1 0xA0 SHL SUB SWAP2 DUP3 AND PUSH0 SWAP1 DUP2 MSTORE PUSH1 0x3 PUSH1 0x20 MSTORE PUSH1 0x40 SWAP1 KECCAK256 SLOAD SWAP1 SWAP2 AND SWAP1 DUP1 PUSH2 0x242D DUP2 PUSH2 0x331B JUMP JUMPDEST SWAP2 POP POP PUSH2 0x1C72 JUMP JUMPDEST POP POP POP POP POP POP POP POP JUMP JUMPDEST PUSH1 0x1 PUSH1 0x1 PUSH1 0xA0 SHL SUB DUP2 AND PUSH0 SWAP1 DUP2 MSTORE PUSH1 0x4 PUSH1 0x20 MSTORE PUSH1 0x40 SWAP1 KECCAK256 DUP1 SLOAD PUSH1 0x60 SWAP2 DUP3 SWAP2 DUP3 SWAP2 SWAP1 DUP1 PUSH8 0xFFFFFFFFFFFFFFFF DUP2 GT ISZERO PUSH2 0x2479 JUMPI PUSH2 0x2479 PUSH2 0x2FFA JUMP JUMPDEST PUSH1 0x40 MLOAD SWAP1 DUP1 DUP3 MSTORE DUP1 PUSH1 0x20 MUL PUSH1 0x20 ADD DUP3 ADD PUSH1 0x40 MSTORE DUP1 ISZERO PUSH2 0x24A2 JUMPI DUP2 PUSH1 0x20 ADD PUSH1 0x20 DUP3 MUL DUP1 CALLDATASIZE DUP4 CALLDATACOPY ADD SWAP1 POP JUMPDEST POP SWAP5 POP DUP1 PUSH8 0xFFFFFFFFFFFFFFFF DUP2 GT ISZERO PUSH2 0x24BE JUMPI PUSH2 0x24BE PUSH2 0x2FFA JUMP JUMPDEST PUSH1 0x40 MLOAD SWAP1 DUP1 DUP3 MSTORE DUP1 PUSH1 0x20 MUL PUSH1 0x20 ADD DUP3 ADD PUSH1 0x40 MSTORE DUP1 ISZERO PUSH2 0x24E7 JUMPI DUP2 PUSH1 0x20 ADD PUSH1 0x20 DUP3 MUL DUP1 CALLDATASIZE DUP4 CALLDATACOPY ADD SWAP1 POP JUMPDEST POP SWAP4 POP DUP1 PUSH8 0xFFFFFFFFFFFFFFFF DUP2 GT ISZERO PUSH2 0x2503 JUMPI PUSH2 0x2503 PUSH2 0x2FFA JUMP JUMPDEST PUSH1 0x40 MLOAD SWAP1 DUP1 DUP3 MSTORE DUP1 PUSH1 0x20 MUL PUSH1 0x20 ADD DUP3 ADD PUSH1 0x40 MSTORE DUP1 ISZERO PUSH2 0x252C JUMPI DUP2 PUSH1 0x20 ADD PUSH1 0x20 DUP3 MUL DUP1 CALLDATASIZE DUP4 CALLDATACOPY ADD SWAP1 POP JUMPDEST POP SWAP3 POP PUSH0 JUMPDEST DUP2 DUP2 LT ISZERO PUSH2 0x2622 JUMPI DUP3 DUP2 DUP2 SLOAD DUP2 LT PUSH2 0x254B JUMPI PUSH2 0x254B PUSH2 0x31AD JUMP JUMPDEST PUSH0 SWAP2 DUP3 MSTORE PUSH1 0x20 SWAP1 SWAP2 KECCAK256 PUSH1 0x3 SWAP1 SWAP2 MUL ADD SLOAD DUP7 MLOAD PUSH1 0x1 PUSH1 0x1 PUSH1 0xA0 SHL SUB SWAP1 SWAP2 AND SWAP1 DUP8 SWAP1 DUP4 SWAP1 DUP2 LT PUSH2 0x257B JUMPI PUSH2 0x257B PUSH2 0x31AD JUMP JUMPDEST PUSH1 0x20 MUL PUSH1 0x20 ADD ADD SWAP1 PUSH1 0x1 PUSH1 0x1 PUSH1 0xA0 SHL SUB AND SWAP1 DUP2 PUSH1 0x1 PUSH1 0x1 PUSH1 0xA0 SHL SUB AND DUP2 MSTORE POP POP DUP3 DUP2 DUP2 SLOAD DUP2 LT PUSH2 0x25AD JUMPI PUSH2 0x25AD PUSH2 0x31AD JUMP JUMPDEST SWAP1 PUSH0 MSTORE PUSH1 0x20 PUSH0 KECCAK256 SWAP1 PUSH1 0x3 MUL ADD PUSH1 0x1 ADD SLOAD DUP6 DUP3 DUP2 MLOAD DUP2 LT PUSH2 0x25CF JUMPI PUSH2 0x25CF PUSH2 0x31AD JUMP JUMPDEST PUSH1 0x20 MUL PUSH1 0x20 ADD ADD DUP2 DUP2 MSTORE POP POP DUP3 DUP2 DUP2 SLOAD DUP2 LT PUSH2 0x25ED JUMPI PUSH2 0x25ED PUSH2 0x31AD JUMP JUMPDEST SWAP1 PUSH0 MSTORE PUSH1 0x20 PUSH0 KECCAK256 SWAP1 PUSH1 0x3 MUL ADD PUSH1 0x2 ADD SLOAD DUP5 DUP3 DUP2 MLOAD DUP2 LT PUSH2 0x260F JUMPI PUSH2 0x260F PUSH2 0x31AD JUMP JUMPDEST PUSH1 0x20 SWAP1 DUP2 MUL SWAP2 SWAP1 SWAP2 ADD ADD MSTORE PUSH1 0x1 ADD PUSH2 0x2531 JUMP JUMPDEST POP POP POP SWAP2 SWAP4 SWAP1 SWAP3 POP JUMP JUMPDEST PUSH1 0x8 DUP2 DUP2 SLOAD DUP2 LT PUSH2 0x263B JUMPI PUSH0 DUP1 REVERT JUMPDEST PUSH0 SWAP2 DUP3 MSTORE PUSH1 0x20 SWAP1 SWAP2 KECCAK256 ADD SLOAD PUSH1 0x1 PUSH1 0x1 PUSH1 0xA0 SHL SUB AND SWAP1 POP DUP2 JUMP JUMPDEST PUSH0 PUSH0 PUSH0 DUP5 GT PUSH2 0x26A5 JUMPI PUSH1 0x40 MLOAD PUSH3 0x461BCD PUSH1 0xE5 SHL DUP2 MSTORE PUSH1 0x20 PUSH1 0x4 DUP3 ADD MSTORE PUSH1 0x1D PUSH1 0x24 DUP3 ADD MSTORE PUSH32 0x416D6F756E74206D7573742062652067726561746572207468616E2030000000 PUSH1 0x44 DUP3 ADD MSTORE PUSH1 0x64 ADD PUSH2 0x7CF JUMP JUMPDEST PUSH0 DUP4 DUP2 MSTORE PUSH1 0x6 PUSH1 0x20 MSTORE PUSH1 0x40 SWAP1 KECCAK256 SLOAD PUSH2 0x26FA JUMPI PUSH1 0x40 MLOAD PUSH3 0x461BCD PUSH1 0xE5 SHL DUP2 MSTORE PUSH1 0x20 PUSH1 0x4 DUP3 ADD MSTORE PUSH1 0x18 PUSH1 0x24 DUP3 ADD MSTORE PUSH24 0x24B73B30B634B21039BA30B5B4B73390323AB930BA34B7B7 PUSH1 0x41 SHL PUSH1 0x44 DUP3 ADD MSTORE PUSH1 0x64 ADD PUSH2 0x7CF JUMP JUMPDEST PUSH0 DUP4 DUP2 MSTORE PUSH1 0x6 PUSH1 0x20 MSTORE PUSH1 0x40 DUP2 KECCAK256 SLOAD SWAP1 PUSH1 0x1E DUP6 SWAP1 SUB PUSH2 0x271B JUMPI POP PUSH2 0xBB8 PUSH2 0x276D JUMP JUMPDEST DUP5 PUSH1 0x3C SUB PUSH2 0x272C JUMPI POP PUSH2 0x1770 PUSH2 0x276D JUMP JUMPDEST DUP5 PUSH1 0x5A SUB PUSH2 0x273D JUMPI POP PUSH2 0x2328 PUSH2 0x276D JUMP JUMPDEST DUP5 PUSH1 0x78 SUB PUSH2 0x274E JUMPI POP PUSH2 0x2EE0 PUSH2 0x276D JUMP JUMPDEST DUP5 PUSH1 0xB4 SUB PUSH2 0x275F JUMPI POP PUSH2 0x4650 PUSH2 0x276D JUMP JUMPDEST DUP5 PUSH2 0x16D SUB PUSH2 0xA60 JUMPI POP PUSH2 0x8E94 JUMPDEST DUP1 DUP6 PUSH2 0x2779 DUP5 DUP10 PUSH2 0x31FD JUMP JUMPDEST PUSH2 0x2783 SWAP2 SWAP1 PUSH2 0x31FD JUMP JUMPDEST PUSH2 0x278D SWAP2 SWAP1 PUSH2 0x322D JUMP JUMPDEST SWAP4 POP PUSH2 0x2799 DUP5 DUP8 PUSH2 0x321A JUMP JUMPDEST SWAP3 POP POP POP SWAP3 POP SWAP3 SWAP1 POP JUMP JUMPDEST PUSH1 0x1 PUSH1 0x1 PUSH1 0xA0 SHL SUB DUP2 AND PUSH0 SWAP1 DUP2 MSTORE PUSH1 0x3 PUSH1 0x20 MSTORE PUSH1 0x40 DUP2 KECCAK256 PUSH1 0x4 ADD SLOAD PUSH1 0xFF AND PUSH2 0x2804 JUMPI PUSH1 0x40 MLOAD PUSH3 0x461BCD PUSH1 0xE5 SHL DUP2 MSTORE PUSH1 0x20 PUSH1 0x4 DUP3 ADD MSTORE PUSH1 0x13 PUSH1 0x24 DUP3 ADD MSTORE PUSH19 0x155CD95C881B9BDD081C9959DA5CDD195C9959 PUSH1 0x6A SHL PUSH1 0x44 DUP3 ADD MSTORE PUSH1 0x64 ADD PUSH2 0x7CF JUMP JUMPDEST POP PUSH1 0x1 PUSH1 0x1 PUSH1 0xA0 SHL SUB SWAP1 DUP2 AND PUSH0 SWAP1 DUP2 MSTORE PUSH1 0x3 PUSH1 0x20 MSTORE PUSH1 0x40 SWAP1 KECCAK256 SLOAD AND SWAP1 JUMP JUMPDEST PUSH0 SLOAD PUSH1 0x1 PUSH1 0x1 PUSH1 0xA0 SHL SUB AND CALLER EQ PUSH2 0x284B JUMPI PUSH1 0x40 MLOAD PUSH3 0x461BCD PUSH1 0xE5 SHL DUP2 MSTORE PUSH1 0x4 ADD PUSH2 0x7CF SWAP1 PUSH2 0x32B9 JUMP JUMPDEST PUSH1 0x1 PUSH1 0x1 PUSH1 0xA0 SHL SUB DUP3 AND PUSH2 0x28A1 JUMPI PUSH1 0x40 MLOAD PUSH3 0x461BCD PUSH1 0xE5 SHL DUP2 MSTORE PUSH1 0x20 PUSH1 0x4 DUP3 ADD MSTORE PUSH1 0x19 PUSH1 0x24 DUP3 ADD MSTORE PUSH32 0x496E76616C696420726563697069656E74206164647265737300000000000000 PUSH1 0x44 DUP3 ADD MSTORE PUSH1 0x64 ADD PUSH2 0x7CF JUMP JUMPDEST PUSH0 DUP2 GT PUSH2 0x28F0 JUMPI PUSH1 0x40 MLOAD PUSH3 0x461BCD PUSH1 0xE5 SHL DUP2 MSTORE PUSH1 0x20 PUSH1 0x4 DUP3 ADD DUP2 SWAP1 MSTORE PUSH1 0x24 DUP3 ADD MSTORE PUSH32 0x416D6F756E74206D7573742062652067726561746572207468616E207A65726F PUSH1 0x44 DUP3 ADD MSTORE PUSH1 0x64 ADD PUSH2 0x7CF JUMP JUMPDEST PUSH1 0x2 SLOAD PUSH1 0x40 MLOAD PUSH4 0xA9059CBB PUSH1 0xE0 SHL DUP2 MSTORE PUSH1 0x1 PUSH1 0x1 PUSH1 0xA0 SHL SUB DUP5 DUP2 AND PUSH1 0x4 DUP4 ADD MSTORE PUSH1 0x24 DUP3 ADD DUP5 SWAP1 MSTORE PUSH0 SWAP3 AND SWAP1 PUSH4 0xA9059CBB SWAP1 PUSH1 0x44 ADD PUSH1 0x20 PUSH1 0x40 MLOAD DUP1 DUP4 SUB DUP2 PUSH0 DUP8 GAS CALL ISZERO DUP1 ISZERO PUSH2 0x2940 JUMPI RETURNDATASIZE PUSH0 PUSH0 RETURNDATACOPY RETURNDATASIZE PUSH0 REVERT JUMPDEST POP POP POP POP PUSH1 0x40 MLOAD RETURNDATASIZE PUSH1 0x1F NOT PUSH1 0x1F DUP3 ADD AND DUP3 ADD DUP1 PUSH1 0x40 MSTORE POP DUP2 ADD SWAP1 PUSH2 0x2964 SWAP2 SWAP1 PUSH2 0x329A JUMP JUMPDEST SWAP1 POP DUP1 PUSH2 0x29AB JUMPI PUSH1 0x40 MLOAD PUSH3 0x461BCD PUSH1 0xE5 SHL DUP2 MSTORE PUSH1 0x20 PUSH1 0x4 DUP3 ADD MSTORE PUSH1 0x15 PUSH1 0x24 DUP3 ADD MSTORE PUSH21 0x151BDAD95B881D1C985B9CD9995C8819985A5B1959 PUSH1 0x5A SHL PUSH1 0x44 DUP3 ADD MSTORE PUSH1 0x64 ADD PUSH2 0x7CF JUMP JUMPDEST POP POP POP JUMP JUMPDEST PUSH1 0x9 DUP2 PUSH1 0x5 DUP2 LT PUSH2 0x29BF JUMPI PUSH0 DUP1 REVERT JUMPDEST PUSH1 0x20 SWAP2 DUP3 DUP3 DIV ADD SWAP2 SWAP1 MOD SWAP2 POP SLOAD SWAP1 PUSH2 0x100 EXP SWAP1 DIV PUSH1 0xFF AND DUP2 JUMP JUMPDEST PUSH1 0x60 PUSH0 DUP1 JUMPDEST PUSH1 0x8 SLOAD DUP2 LT ISZERO PUSH2 0x2B56 JUMPI PUSH0 PUSH1 0x8 DUP3 DUP2 SLOAD DUP2 LT PUSH2 0x29FC JUMPI PUSH2 0x29FC PUSH2 0x31AD JUMP JUMPDEST PUSH0 SWAP2 DUP3 MSTORE PUSH1 0x20 DUP1 DUP4 KECCAK256 SWAP1 SWAP2 ADD SLOAD PUSH1 0x1 PUSH1 0x1 PUSH1 0xA0 SHL SUB AND DUP1 DUP4 MSTORE PUSH1 0x3 DUP3 MSTORE PUSH1 0x40 DUP1 DUP5 KECCAK256 PUSH1 0x1 ADD DUP1 SLOAD DUP3 MLOAD DUP2 DUP7 MUL DUP2 ADD DUP7 ADD SWAP1 SWAP4 MSTORE DUP1 DUP4 MSTORE SWAP3 SWAP6 POP SWAP1 SWAP3 SWAP1 SWAP2 SWAP1 DUP5 SWAP1 DUP5 ADD JUMPDEST DUP3 DUP3 LT ISZERO PUSH2 0x2AAB JUMPI PUSH0 DUP5 DUP2 MSTORE PUSH1 0x20 SWAP1 DUP2 SWAP1 KECCAK256 PUSH1 0x40 DUP1 MLOAD PUSH1 0xC0 DUP2 ADD DUP3 MSTORE PUSH1 0x6 DUP7 MUL SWAP1 SWAP3 ADD DUP1 SLOAD DUP4 MSTORE PUSH1 0x1 DUP1 DUP3 ADD SLOAD DUP5 DUP7 ADD MSTORE PUSH1 0x2 DUP3 ADD SLOAD SWAP3 DUP5 ADD SWAP3 SWAP1 SWAP3 MSTORE PUSH1 0x3 DUP2 ADD SLOAD PUSH1 0x60 DUP5 ADD MSTORE PUSH1 0x4 DUP2 ADD SLOAD PUSH1 0x80 DUP5 ADD MSTORE PUSH1 0x5 ADD SLOAD PUSH1 0xFF AND ISZERO ISZERO PUSH1 0xA0 DUP4 ADD MSTORE SWAP1 DUP4 MSTORE SWAP1 SWAP3 ADD SWAP2 ADD PUSH2 0x2A3F JUMP JUMPDEST POP POP POP POP PUSH1 0x1 PUSH1 0x1 PUSH1 0xA0 SHL SUB DUP4 DUP2 AND PUSH0 SWAP1 DUP2 MSTORE PUSH1 0x3 PUSH1 0x20 MSTORE PUSH1 0x40 DUP2 KECCAK256 SLOAD SWAP3 SWAP4 POP SWAP2 AND SWAP1 JUMPDEST PUSH1 0x5 DUP2 PUSH1 0xFF AND LT DUP1 ISZERO PUSH2 0x2AEA JUMPI POP PUSH1 0x1 PUSH1 0x1 PUSH1 0xA0 SHL SUB DUP3 AND ISZERO ISZERO JUMPDEST ISZERO PUSH2 0x2B46 JUMPI DUP8 PUSH1 0x1 PUSH1 0x1 PUSH1 0xA0 SHL SUB AND DUP3 PUSH1 0x1 PUSH1 0x1 PUSH1 0xA0 SHL SUB AND SUB PUSH2 0x2B17 JUMPI DUP3 MLOAD PUSH2 0x2B14 SWAP1 DUP8 PUSH2 0x321A JUMP JUMPDEST SWAP6 POP JUMPDEST PUSH1 0x1 PUSH1 0x1 PUSH1 0xA0 SHL SUB SWAP2 DUP3 AND PUSH0 SWAP1 DUP2 MSTORE PUSH1 0x3 PUSH1 0x20 MSTORE PUSH1 0x40 SWAP1 KECCAK256 SLOAD SWAP1 SWAP2 AND SWAP1 DUP1 PUSH2 0x2B3E DUP2 PUSH2 0x331B JUMP JUMPDEST SWAP2 POP POP PUSH2 0x2ACF JUMP JUMPDEST POP POP PUSH1 0x1 SWAP1 SWAP3 ADD SWAP2 POP PUSH2 0x29DE SWAP1 POP JUMP JUMPDEST POP PUSH0 DUP2 PUSH8 0xFFFFFFFFFFFFFFFF DUP2 GT ISZERO PUSH2 0x2B71 JUMPI PUSH2 0x2B71 PUSH2 0x2FFA JUMP JUMPDEST PUSH1 0x40 MLOAD SWAP1 DUP1 DUP3 MSTORE DUP1 PUSH1 0x20 MUL PUSH1 0x20 ADD DUP3 ADD PUSH1 0x40 MSTORE DUP1 ISZERO PUSH2 0x2BF0 JUMPI DUP2 PUSH1 0x20 ADD JUMPDEST PUSH2 0x2BDD PUSH1 0x40 MLOAD DUP1 PUSH1 0xE0 ADD PUSH1 0x40 MSTORE DUP1 PUSH0 PUSH1 0x1 PUSH1 0x1 PUSH1 0xA0 SHL SUB AND DUP2 MSTORE PUSH1 0x20 ADD PUSH0 DUP2 MSTORE PUSH1 0x20 ADD PUSH0 DUP2 MSTORE PUSH1 0x20 ADD PUSH0 DUP2 MSTORE PUSH1 0x20 ADD PUSH0 PUSH1 0x1 PUSH1 0x1 PUSH1 0xA0 SHL SUB AND DUP2 MSTORE PUSH1 0x20 ADD PUSH0 DUP2 MSTORE PUSH1 0x20 ADD PUSH0 PUSH1 0xFF AND DUP2 MSTORE POP SWAP1 JUMP JUMPDEST DUP2 MSTORE PUSH1 0x20 ADD SWAP1 PUSH1 0x1 SWAP1 SUB SWAP1 DUP2 PUSH2 0x2B8F JUMPI SWAP1 POP JUMPDEST POP SWAP1 POP PUSH0 DUP1 JUMPDEST PUSH1 0x8 SLOAD DUP2 LT ISZERO PUSH2 0x2E66 JUMPI PUSH0 PUSH1 0x8 DUP3 DUP2 SLOAD DUP2 LT PUSH2 0x2C14 JUMPI PUSH2 0x2C14 PUSH2 0x31AD JUMP JUMPDEST PUSH0 SWAP2 DUP3 MSTORE PUSH1 0x20 DUP1 DUP4 KECCAK256 SWAP1 SWAP2 ADD SLOAD PUSH1 0x1 PUSH1 0x1 PUSH1 0xA0 SHL SUB AND DUP1 DUP4 MSTORE PUSH1 0x3 DUP3 MSTORE PUSH1 0x40 DUP1 DUP5 KECCAK256 PUSH1 0x1 ADD DUP1 SLOAD DUP3 MLOAD DUP2 DUP7 MUL DUP2 ADD DUP7 ADD SWAP1 SWAP4 MSTORE DUP1 DUP4 MSTORE SWAP3 SWAP6 POP SWAP1 SWAP3 SWAP1 SWAP2 SWAP1 DUP5 SWAP1 DUP5 ADD JUMPDEST DUP3 DUP3 LT ISZERO PUSH2 0x2CC3 JUMPI PUSH0 DUP5 DUP2 MSTORE PUSH1 0x20 SWAP1 DUP2 SWAP1 KECCAK256 PUSH1 0x40 DUP1 MLOAD PUSH1 0xC0 DUP2 ADD DUP3 MSTORE PUSH1 0x6 DUP7 MUL SWAP1 SWAP3 ADD DUP1 SLOAD DUP4 MSTORE PUSH1 0x1 DUP1 DUP3 ADD SLOAD DUP5 DUP7 ADD MSTORE PUSH1 0x2 DUP3 ADD SLOAD SWAP3 DUP5 ADD SWAP3 SWAP1 SWAP3 MSTORE PUSH1 0x3 DUP2 ADD SLOAD PUSH1 0x60 DUP5 ADD MSTORE PUSH1 0x4 DUP2 ADD SLOAD PUSH1 0x80 DUP5 ADD MSTORE PUSH1 0x5 ADD SLOAD PUSH1 0xFF AND ISZERO ISZERO PUSH1 0xA0 DUP4 ADD MSTORE SWAP1 DUP4 MSTORE SWAP1 SWAP3 ADD SWAP2 ADD PUSH2 0x2C57 JUMP JUMPDEST POP POP POP POP PUSH1 0x1 PUSH1 0x1 PUSH1 0xA0 SHL SUB DUP4 DUP2 AND PUSH0 SWAP1 DUP2 MSTORE PUSH1 0x3 PUSH1 0x20 MSTORE PUSH1 0x40 DUP2 KECCAK256 SLOAD SWAP3 SWAP4 POP SWAP2 AND SWAP1 JUMPDEST PUSH1 0x5 DUP2 PUSH1 0xFF AND LT DUP1 ISZERO PUSH2 0x2D02 JUMPI POP PUSH1 0x1 PUSH1 0x1 PUSH1 0xA0 SHL SUB DUP3 AND ISZERO ISZERO JUMPDEST ISZERO PUSH2 0x2E56 JUMPI DUP10 PUSH1 0x1 PUSH1 0x1 PUSH1 0xA0 SHL SUB AND DUP3 PUSH1 0x1 PUSH1 0x1 PUSH1 0xA0 SHL SUB AND SUB PUSH2 0x2E27 JUMPI PUSH0 JUMPDEST DUP4 MLOAD DUP2 LT ISZERO PUSH2 0x2E25 JUMPI PUSH0 DUP5 DUP3 DUP2 MLOAD DUP2 LT PUSH2 0x2D3E JUMPI PUSH2 0x2D3E PUSH2 0x31AD JUMP JUMPDEST PUSH1 0x20 MUL PUSH1 0x20 ADD ADD MLOAD SWAP1 POP PUSH0 PUSH1 0x64 PUSH1 0x9 DUP6 PUSH1 0xFF AND PUSH1 0x5 DUP2 LT PUSH2 0x2D61 JUMPI PUSH2 0x2D61 PUSH2 0x31AD JUMP JUMPDEST PUSH1 0x20 SWAP2 DUP3 DUP3 DIV ADD SWAP2 SWAP1 MOD SWAP1 SLOAD SWAP1 PUSH2 0x100 EXP SWAP1 DIV PUSH1 0xFF AND PUSH1 0xFF AND DUP4 PUSH1 0x40 ADD MLOAD PUSH2 0x2D89 SWAP2 SWAP1 PUSH2 0x31FD JUMP JUMPDEST PUSH2 0x2D93 SWAP2 SWAP1 PUSH2 0x322D JUMP JUMPDEST SWAP1 POP PUSH1 0x40 MLOAD DUP1 PUSH1 0xE0 ADD PUSH1 0x40 MSTORE DUP1 DUP15 PUSH1 0x1 PUSH1 0x1 PUSH1 0xA0 SHL SUB AND DUP2 MSTORE PUSH1 0x20 ADD DUP4 PUSH0 ADD MLOAD DUP2 MSTORE PUSH1 0x20 ADD DUP4 PUSH1 0x40 ADD MLOAD DUP2 MSTORE PUSH1 0x20 ADD DUP3 DUP2 MSTORE PUSH1 0x20 ADD DUP9 PUSH1 0x1 PUSH1 0x1 PUSH1 0xA0 SHL SUB AND DUP2 MSTORE PUSH1 0x20 ADD DUP4 PUSH1 0x60 ADD MLOAD DUP2 MSTORE PUSH1 0x20 ADD DUP6 PUSH1 0x1 PUSH2 0x2DEE SWAP2 SWAP1 PUSH2 0x3339 JUMP JUMPDEST PUSH1 0xFF AND SWAP1 MSTORE DUP11 DUP11 PUSH2 0x2DFE DUP2 PUSH2 0x3303 JUMP JUMPDEST SWAP12 POP DUP2 MLOAD DUP2 LT PUSH2 0x2E10 JUMPI PUSH2 0x2E10 PUSH2 0x31AD JUMP JUMPDEST PUSH1 0x20 SWAP1 DUP2 MUL SWAP2 SWAP1 SWAP2 ADD ADD MSTORE POP POP PUSH1 0x1 ADD PUSH2 0x2D22 JUMP JUMPDEST POP JUMPDEST PUSH1 0x1 PUSH1 0x1 PUSH1 0xA0 SHL SUB SWAP2 DUP3 AND PUSH0 SWAP1 DUP2 MSTORE PUSH1 0x3 PUSH1 0x20 MSTORE PUSH1 0x40 SWAP1 KECCAK256 SLOAD SWAP1 SWAP2 AND SWAP1 DUP1 PUSH2 0x2E4E DUP2 PUSH2 0x331B JUMP JUMPDEST SWAP2 POP POP PUSH2 0x2CE7 JUMP JUMPDEST POP POP PUSH1 0x1 SWAP1 SWAP3 ADD SWAP2 POP PUSH2 0x2BF6 SWAP1 POP JUMP JUMPDEST POP SWAP1 SWAP5 SWAP4 POP POP POP POP JUMP JUMPDEST PUSH1 0x1 DUP4 ADD SWAP2 DUP4 SWAP1 DUP3 ISZERO PUSH2 0x2EF0 JUMPI SWAP2 PUSH1 0x20 MUL DUP3 ADD PUSH0 JUMPDEST DUP4 DUP3 GT ISZERO PUSH2 0x2EC2 JUMPI DUP4 MLOAD DUP4 DUP3 PUSH2 0x100 EXP DUP2 SLOAD DUP2 PUSH1 0xFF MUL NOT AND SWAP1 DUP4 PUSH1 0xFF AND MUL OR SWAP1 SSTORE POP SWAP3 PUSH1 0x20 ADD SWAP3 PUSH1 0x1 ADD PUSH1 0x20 DUP2 PUSH0 ADD DIV SWAP3 DUP4 ADD SWAP3 PUSH1 0x1 SUB MUL PUSH2 0x2E85 JUMP JUMPDEST DUP1 ISZERO PUSH2 0x2EEE JUMPI DUP3 DUP2 PUSH2 0x100 EXP DUP2 SLOAD SWAP1 PUSH1 0xFF MUL NOT AND SWAP1 SSTORE PUSH1 0x1 ADD PUSH1 0x20 DUP2 PUSH0 ADD DIV SWAP3 DUP4 ADD SWAP3 PUSH1 0x1 SUB MUL PUSH2 0x2EC2 JUMP JUMPDEST POP JUMPDEST POP PUSH2 0x2EFC SWAP3 SWAP2 POP PUSH2 0x2F00 JUMP JUMPDEST POP SWAP1 JUMP JUMPDEST JUMPDEST DUP1 DUP3 GT ISZERO PUSH2 0x2EFC JUMPI PUSH0 DUP2 SSTORE PUSH1 0x1 ADD PUSH2 0x2F01 JUMP JUMPDEST DUP1 CALLDATALOAD PUSH1 0x1 PUSH1 0x1 PUSH1 0xA0 SHL SUB DUP2 AND DUP2 EQ PUSH2 0x2F2A JUMPI PUSH0 PUSH0 REVERT JUMPDEST SWAP2 SWAP1 POP JUMP JUMPDEST PUSH0 PUSH0 PUSH1 0x40 DUP4 DUP6 SUB SLT ISZERO PUSH2 0x2F40 JUMPI PUSH0 PUSH0 REVERT JUMPDEST PUSH2 0x2F49 DUP4 PUSH2 0x2F14 JUMP JUMPDEST SWAP5 PUSH1 0x20 SWAP4 SWAP1 SWAP4 ADD CALLDATALOAD SWAP4 POP POP POP JUMP JUMPDEST PUSH0 PUSH1 0x20 DUP3 DUP5 SUB SLT ISZERO PUSH2 0x2F67 JUMPI PUSH0 PUSH0 REVERT JUMPDEST POP CALLDATALOAD SWAP2 SWAP1 POP JUMP JUMPDEST PUSH0 PUSH1 0x20 DUP3 DUP5 SUB SLT ISZERO PUSH2 0x2F7E JUMPI PUSH0 PUSH0 REVERT JUMPDEST PUSH2 0x2F87 DUP3 PUSH2 0x2F14 JUMP JUMPDEST SWAP4 SWAP3 POP POP POP JUMP JUMPDEST PUSH0 DUP2 MLOAD DUP1 DUP5 MSTORE PUSH1 0x20 DUP5 ADD SWAP4 POP PUSH1 0x20 DUP4 ADD PUSH0 JUMPDEST DUP3 DUP2 LT ISZERO PUSH2 0x2FBE JUMPI DUP2 MLOAD DUP7 MSTORE PUSH1 0x20 SWAP6 DUP7 ADD SWAP6 SWAP1 SWAP2 ADD SWAP1 PUSH1 0x1 ADD PUSH2 0x2FA0 JUMP JUMPDEST POP SWAP4 SWAP5 SWAP4 POP POP POP POP JUMP JUMPDEST PUSH1 0x20 DUP2 MSTORE PUSH0 PUSH2 0x2F87 PUSH1 0x20 DUP4 ADD DUP5 PUSH2 0x2F8E JUMP JUMPDEST PUSH0 PUSH0 PUSH1 0x40 DUP4 DUP6 SUB SLT ISZERO PUSH2 0x2FEB JUMPI PUSH0 PUSH0 REVERT JUMPDEST POP POP DUP1 CALLDATALOAD SWAP3 PUSH1 0x20 SWAP1 SWAP2 ADD CALLDATALOAD SWAP2 POP JUMP JUMPDEST PUSH4 0x4E487B71 PUSH1 0xE0 SHL PUSH0 MSTORE PUSH1 0x41 PUSH1 0x4 MSTORE PUSH1 0x24 PUSH0 REVERT JUMPDEST DUP1 CALLDATALOAD PUSH1 0xFF DUP2 AND DUP2 EQ PUSH2 0x2F2A JUMPI PUSH0 PUSH0 REVERT JUMPDEST PUSH0 PUSH1 0xA0 DUP3 DUP5 SUB SLT ISZERO PUSH2 0x302E JUMPI PUSH0 PUSH0 REVERT JUMPDEST DUP3 PUSH1 0x1F DUP4 ADD SLT PUSH2 0x303C JUMPI PUSH0 PUSH0 REVERT JUMPDEST PUSH1 0x40 MLOAD PUSH1 0xA0 DUP2 ADD DUP2 DUP2 LT PUSH8 0xFFFFFFFFFFFFFFFF DUP3 GT OR ISZERO PUSH2 0x305F JUMPI PUSH2 0x305F PUSH2 0x2FFA JUMP JUMPDEST PUSH1 0x40 MSTORE DUP1 PUSH1 0xA0 DUP5 ADD DUP6 DUP2 GT ISZERO PUSH2 0x3073 JUMPI PUSH0 PUSH0 REVERT JUMPDEST DUP5 JUMPDEST DUP2 DUP2 LT ISZERO PUSH2 0x3094 JUMPI PUSH2 0x3086 DUP2 PUSH2 0x300E JUMP JUMPDEST DUP4 MSTORE PUSH1 0x20 SWAP3 DUP4 ADD SWAP3 ADD PUSH2 0x3075 JUMP JUMPDEST POP SWAP2 SWAP6 SWAP5 POP POP POP POP POP JUMP JUMPDEST PUSH1 0x60 DUP1 DUP3 MSTORE DUP5 MLOAD SWAP1 DUP3 ADD DUP2 SWAP1 MSTORE PUSH0 SWAP1 PUSH1 0x20 DUP7 ADD SWAP1 PUSH1 0x80 DUP5 ADD SWAP1 DUP4 JUMPDEST DUP2 DUP2 LT ISZERO PUSH2 0x30E1 JUMPI DUP4 MLOAD PUSH1 0x1 PUSH1 0x1 PUSH1 0xA0 SHL SUB AND DUP4 MSTORE PUSH1 0x20 SWAP4 DUP5 ADD SWAP4 SWAP1 SWAP3 ADD SWAP2 PUSH1 0x1 ADD PUSH2 0x30BA JUMP JUMPDEST POP POP DUP4 DUP2 SUB PUSH1 0x20 DUP6 ADD MSTORE PUSH2 0x30F5 DUP2 DUP8 PUSH2 0x2F8E JUMP JUMPDEST SWAP2 POP POP DUP3 DUP2 SUB PUSH1 0x40 DUP5 ADD MSTORE PUSH2 0x310A DUP2 DUP6 PUSH2 0x2F8E JUMP JUMPDEST SWAP7 SWAP6 POP POP POP POP POP POP JUMP JUMPDEST PUSH1 0x20 DUP1 DUP3 MSTORE DUP3 MLOAD DUP3 DUP3 ADD DUP2 SWAP1 MSTORE PUSH0 SWAP2 DUP5 ADD SWAP1 PUSH1 0x40 DUP5 ADD SWAP1 DUP4 JUMPDEST DUP2 DUP2 LT ISZERO PUSH2 0x31A2 JUMPI DUP4 MLOAD PUSH1 0x1 DUP1 PUSH1 0xA0 SHL SUB DUP2 MLOAD AND DUP5 MSTORE PUSH1 0x20 DUP2 ADD MLOAD PUSH1 0x20 DUP6 ADD MSTORE PUSH1 0x40 DUP2 ADD MLOAD PUSH1 0x40 DUP6 ADD MSTORE PUSH1 0x60 DUP2 ADD MLOAD PUSH1 0x60 DUP6 ADD MSTORE PUSH1 0x1 DUP1 PUSH1 0xA0 SHL SUB PUSH1 0x80 DUP3 ADD MLOAD AND PUSH1 0x80 DUP6 ADD MSTORE PUSH1 0xA0 DUP2 ADD MLOAD PUSH1 0xA0 DUP6 ADD MSTORE PUSH1 0xFF PUSH1 0xC0 DUP3 ADD MLOAD AND PUSH1 0xC0 DUP6 ADD MSTORE POP PUSH1 0xE0 DUP4 ADD SWAP3 POP PUSH1 0x20 DUP5 ADD SWAP4 POP PUSH1 0x1 DUP2 ADD SWAP1 POP PUSH2 0x312D JUMP JUMPDEST POP SWAP1 SWAP6 SWAP5 POP POP POP POP POP JUMP JUMPDEST PUSH4 0x4E487B71 PUSH1 0xE0 SHL PUSH0 MSTORE PUSH1 0x32 PUSH1 0x4 MSTORE PUSH1 0x24 PUSH0 REVERT JUMPDEST PUSH1 0x20 DUP1 DUP3 MSTORE PUSH1 0xE SWAP1 DUP3 ADD MSTORE PUSH14 0x139BDD081C9959DA5CDD195C9959 PUSH1 0x92 SHL PUSH1 0x40 DUP3 ADD MSTORE PUSH1 0x60 ADD SWAP1 JUMP JUMPDEST PUSH4 0x4E487B71 PUSH1 0xE0 SHL PUSH0 MSTORE PUSH1 0x11 PUSH1 0x4 MSTORE PUSH1 0x24 PUSH0 REVERT JUMPDEST DUP1 DUP3 MUL DUP2 ISZERO DUP3 DUP3 DIV DUP5 EQ OR PUSH2 0x3214 JUMPI PUSH2 0x3214 PUSH2 0x31E9 JUMP JUMPDEST SWAP3 SWAP2 POP POP JUMP JUMPDEST DUP1 DUP3 ADD DUP1 DUP3 GT ISZERO PUSH2 0x3214 JUMPI PUSH2 0x3214 PUSH2 0x31E9 JUMP JUMPDEST PUSH0 DUP3 PUSH2 0x3247 JUMPI PUSH4 0x4E487B71 PUSH1 0xE0 SHL PUSH0 MSTORE PUSH1 0x12 PUSH1 0x4 MSTORE PUSH1 0x24 PUSH0 REVERT JUMPDEST POP DIV SWAP1 JUMP JUMPDEST PUSH0 PUSH1 0x20 DUP3 DUP5 SUB SLT ISZERO PUSH2 0x325C JUMPI PUSH0 PUSH0 REVERT JUMPDEST POP MLOAD SWAP2 SWAP1 POP JUMP JUMPDEST PUSH1 0x20 DUP1 DUP3 MSTORE PUSH1 0x1D SWAP1 DUP3 ADD MSTORE PUSH32 0x496E73756666696369656E7420636F6E74726163742062616C616E6365000000 PUSH1 0x40 DUP3 ADD MSTORE PUSH1 0x60 ADD SWAP1 JUMP JUMPDEST PUSH0 PUSH1 0x20 DUP3 DUP5 SUB SLT ISZERO PUSH2 0x32AA JUMPI PUSH0 PUSH0 REVERT JUMPDEST DUP2 MLOAD DUP1 ISZERO ISZERO DUP2 EQ PUSH2 0x2F87 JUMPI PUSH0 PUSH0 REVERT JUMPDEST PUSH1 0x20 DUP1 DUP3 MSTORE PUSH1 0x18 SWAP1 DUP3 ADD MSTORE PUSH32 0x4F6E6C79206F776E65722063616E2063616C6C20746869730000000000000000 PUSH1 0x40 DUP3 ADD MSTORE PUSH1 0x60 ADD SWAP1 JUMP JUMPDEST DUP2 DUP2 SUB DUP2 DUP2 GT ISZERO PUSH2 0x3214 JUMPI PUSH2 0x3214 PUSH2 0x31E9 JUMP JUMPDEST PUSH0 PUSH1 0x1 DUP3 ADD PUSH2 0x3314 JUMPI PUSH2 0x3314 PUSH2 0x31E9 JUMP JUMPDEST POP PUSH1 0x1 ADD SWAP1 JUMP JUMPDEST PUSH0 PUSH1 0xFF DUP3 AND PUSH1 0xFF DUP2 SUB PUSH2 0x3330 JUMPI PUSH2 0x3330 PUSH2 0x31E9 JUMP JUMPDEST PUSH1 0x1 ADD SWAP3 SWAP2 POP POP JUMP JUMPDEST PUSH1 0xFF DUP2 DUP2 AND DUP4 DUP3 AND ADD SWAP1 DUP2 GT ISZERO PUSH2 0x3214 JUMPI PUSH2 0x3214 PUSH2 0x31E9 JUMP INVALID LOG2 PUSH5 0x6970667358 0x22 SLT KECCAK256 EXTSTATICCALL DUP7 KECCAK256 KECCAK256 0xBA SAR DATALOADN 0x635E BLOBBASEFEE MLOAD 0xC 0xBE MSTORE8 PUSH5 0xBA838A6347 MSTORE EXTDELEGATECALL MOD 0xB8 SAR 0xC1 PREVRANDAO GASPRICE SWAP6 SGT 0xDD 0x29 PUSH5 0x736F6C6343 STOP ADDMOD 0x1E STOP CALLER "
		},
		"gasEstimates": {
			"creation": {
				"codeDepositCost": "2638400",
				"executionCost": "infinite",
				"totalCost": "infinite"
			},
			"external": {
				"allUsers(uint256)": "4723",
				"claim(uint256)": "infinite",
				"claimEmergency(uint256)": "infinite",
				"directReferralIncome(address)": "2626",
				"directReferrals(address,uint256)": "9103",
				"getContractBalance()": "infinite",
				"getDirectReferralCount(address)": "2580",
				"getDirectReferralIncome(address)": "2623",
				"getEstimatedReturn(uint256,uint256)": "infinite",
				"getLevelIncome(address)": "2592",
				"getLevelIncomeDistribution(address)": "infinite",
				"getPositionIds(address)": "infinite",
				"getReferralIncomeDetails(address)": "infinite",
				"getStakeByPositionId(uint256)": "infinite",
				"getTotalIncome(address)": "2585",
				"getTotalLevelIncome(address)": "2635",
				"getTotalUsers()": "2359",
				"getUpline(address)": "4904",
				"getUserLevel(address)": "2729",
				"isRegistered(address)": "2619",
				"levelRewards(uint256)": "4149",
				"owner()": "2446",
				"ownerTransfer(address,uint256)": "infinite",
				"positionIdToUser(uint256)": "2543",
				"register(address)": "179907",
				"setLevelRewards(uint8[5])": "infinite",
				"setStakingAPY(uint256,uint256)": "24685",
				"stake(uint256,uint256)": "infinite",
				"stakeCounter()": "2426",
				"stakingAPY(uint256)": "2524",
				"usdtToken()": "2403",
				"users(address)": "9026",
				"withdrawUSDT(uint256)": "infinite"
			}
		},
		"methodIdentifiers": {
			"allUsers(uint256)": "a2bdedf4",
			"claim(uint256)": "379607f5",
			"claimEmergency(uint256)": "6c8c2156",
			"directReferralIncome(address)": "f6e88873",
			"directReferrals(address,uint256)": "05ad3935",
			"getContractBalance()": "6f9fb98a",
			"getDirectReferralCount(address)": "98278efb",
			"getDirectReferralIncome(address)": "aa7ed462",
			"getEstimatedReturn(uint256,uint256)": "bd297178",
			"getLevelIncome(address)": "5bd4e16a",
			"getLevelIncomeDistribution(address)": "ef71ae56",
			"getPositionIds(address)": "28fe7031",
			"getReferralIncomeDetails(address)": "9d747bad",
			"getStakeByPositionId(uint256)": "797c7f5f",
			"getTotalIncome(address)": "c2d3c677",
			"getTotalLevelIncome(address)": "c5b89c0a",
			"getTotalUsers()": "9be572f6",
			"getUpline(address)": "cb6f37ab",
			"getUserLevel(address)": "21923bde",
			"isRegistered(address)": "c3c5a547",
			"levelRewards(uint256)": "e45a57d0",
			"owner()": "8da5cb5b",
			"ownerTransfer(address,uint256)": "d85c8966",
			"positionIdToUser(uint256)": "1e43eb27",
			"register(address)": "4420e486",
			"setLevelRewards(uint8[5])": "656596a5",
			"setStakingAPY(uint256,uint256)": "4850d2a2",
			"stake(uint256,uint256)": "7b0472f0",
			"stakeCounter()": "f7b17d10",
			"stakingAPY(uint256)": "875bb4e2",
			"usdtToken()": "a98ad46c",
			"users(address)": "a87430ba",
			"withdrawUSDT(uint256)": "3ea521ef"
		}
	},
	"abi": [
		{
			"inputs": [
				{
					"internalType": "address",
					"name": "_usdtToken",
					"type": "address"
				}
			],
			"stateMutability": "nonpayable",
			"type": "constructor"
		},
		{
			"anonymous": false,
			"inputs": [
				{
					"indexed": true,
					"internalType": "address",
					"name": "user",
					"type": "address"
				},
				{
					"indexed": false,
					"internalType": "uint256",
					"name": "stakeId",
					"type": "uint256"
				},
				{
					"indexed": false,
					"internalType": "uint256",
					"name": "amount",
					"type": "uint256"
				},
				{
					"indexed": false,
					"internalType": "uint256",
					"name": "reward",
					"type": "uint256"
				}
			],
			"name": "Claimed",
			"type": "event"
		},
		{
			"inputs": [
				{
					"internalType": "uint256",
					"name": "",
					"type": "uint256"
				}
			],
			"name": "allUsers",
			"outputs": [
				{
					"internalType": "address",
					"name": "",
					"type": "address"
				}
			],
			"stateMutability": "view",
			"type": "function"
		},
		{
			"inputs": [
				{
					"internalType": "uint256",
					"name": "_positionId",
					"type": "uint256"
				}
			],
			"name": "claim",
			"outputs": [],
			"stateMutability": "nonpayable",
			"type": "function"
		},
		{
			"inputs": [
				{
					"internalType": "uint256",
					"name": "_positionId",
					"type": "uint256"
				}
			],
			"name": "claimEmergency",
			"outputs": [],
			"stateMutability": "nonpayable",
			"type": "function"
		},
		{
			"inputs": [
				{
					"internalType": "address",
					"name": "",
					"type": "address"
				}
			],
			"name": "directReferralIncome",
			"outputs": [
				{
					"internalType": "uint256",
					"name": "",
					"type": "uint256"
				}
			],
			"stateMutability": "view",
			"type": "function"
		},
		{
			"inputs": [
				{
					"internalType": "address",
					"name": "",
					"type": "address"
				},
				{
					"internalType": "uint256",
					"name": "",
					"type": "uint256"
				}
			],
			"name": "directReferrals",
			"outputs": [
				{
					"internalType": "address",
					"name": "referralAddress",
					"type": "address"
				},
				{
					"internalType": "uint256",
					"name": "incomeEarned",
					"type": "uint256"
				},
				{
					"internalType": "uint256",
					"name": "timestamp",
					"type": "uint256"
				}
			],
			"stateMutability": "view",
			"type": "function"
		},
		{
			"inputs": [],
			"name": "getContractBalance",
			"outputs": [
				{
					"internalType": "uint256",
					"name": "",
					"type": "uint256"
				}
			],
			"stateMutability": "view",
			"type": "function"
		},
		{
			"inputs": [
				{
					"internalType": "address",
					"name": "user",
					"type": "address"
				}
			],
			"name": "getDirectReferralCount",
			"outputs": [
				{
					"internalType": "uint256",
					"name": "",
					"type": "uint256"
				}
			],
			"stateMutability": "view",
			"type": "function"
		},
		{
			"inputs": [
				{
					"internalType": "address",
					"name": "user",
					"type": "address"
				}
			],
			"name": "getDirectReferralIncome",
			"outputs": [
				{
					"internalType": "uint256",
					"name": "",
					"type": "uint256"
				}
			],
			"stateMutability": "view",
			"type": "function"
		},
		{
			"inputs": [
				{
					"internalType": "uint256",
					"name": "amount",
					"type": "uint256"
				},
				{
					"internalType": "uint256",
					"name": "numDays",
					"type": "uint256"
				}
			],
			"name": "getEstimatedReturn",
			"outputs": [
				{
					"internalType": "uint256",
					"name": "interest",
					"type": "uint256"
				},
				{
					"internalType": "uint256",
					"name": "totalReturn",
					"type": "uint256"
				}
			],
			"stateMutability": "view",
			"type": "function"
		},
		{
			"inputs": [
				{
					"internalType": "address",
					"name": "user",
					"type": "address"
				}
			],
			"name": "getLevelIncome",
			"outputs": [
				{
					"internalType": "uint256",
					"name": "",
					"type": "uint256"
				}
			],
			"stateMutability": "view",
			"type": "function"
		},
		{
			"inputs": [
				{
					"internalType": "address",
					"name": "_user",
					"type": "address"
				}
			],
			"name": "getLevelIncomeDistribution",
			"outputs": [
				{
					"components": [
						{
							"internalType": "address",
							"name": "receiverAddress",
							"type": "address"
						},
						{
							"internalType": "uint256",
							"name": "stakeId",
							"type": "uint256"
						},
						{
							"internalType": "uint256",
							"name": "stakeAmount",
							"type": "uint256"
						},
						{
							"internalType": "uint256",
							"name": "incomeReceived",
							"type": "uint256"
						},
						{
							"internalType": "address",
							"name": "uplineAddress",
							"type": "address"
						},
						{
							"internalType": "uint256",
							"name": "timestamp",
							"type": "uint256"
						},
						{
							"internalType": "uint8",
							"name": "level",
							"type": "uint8"
						}
					],
					"internalType": "struct SikkaStakingDecentralize.LevelIncomeData[]",
					"name": "",
					"type": "tuple[]"
				}
			],
			"stateMutability": "view",
			"type": "function"
		},
		{
			"inputs": [
				{
					"internalType": "address",
					"name": "_user",
					"type": "address"
				}
			],
			"name": "getPositionIds",
			"outputs": [
				{
					"internalType": "uint256[]",
					"name": "",
					"type": "uint256[]"
				}
			],
			"stateMutability": "view",
			"type": "function"
		},
		{
			"inputs": [
				{
					"internalType": "address",
					"name": "user",
					"type": "address"
				}
			],
			"name": "getReferralIncomeDetails",
			"outputs": [
				{
					"internalType": "address[]",
					"name": "referralAddresses",
					"type": "address[]"
				},
				{
					"internalType": "uint256[]",
					"name": "incomes",
					"type": "uint256[]"
				},
				{
					"internalType": "uint256[]",
					"name": "timestamps",
					"type": "uint256[]"
				}
			],
			"stateMutability": "view",
			"type": "function"
		},
		{
			"inputs": [
				{
					"internalType": "uint256",
					"name": "_positionId",
					"type": "uint256"
				}
			],
			"name": "getStakeByPositionId",
			"outputs": [
				{
					"internalType": "address",
					"name": "user",
					"type": "address"
				},
				{
					"internalType": "uint256",
					"name": "stakeId",
					"type": "uint256"
				},
				{
					"internalType": "uint256",
					"name": "amount",
					"type": "uint256"
				},
				{
					"internalType": "uint256",
					"name": "startDate",
					"type": "uint256"
				},
				{
					"internalType": "uint256",
					"name": "endDate",
					"type": "uint256"
				},
				{
					"internalType": "uint256",
					"name": "apy",
					"type": "uint256"
				},
				{
					"internalType": "uint256",
					"name": "perDayInterest",
					"type": "uint256"
				},
				{
					"internalType": "bool",
					"name": "status",
					"type": "bool"
				}
			],
			"stateMutability": "view",
			"type": "function"
		},
		{
			"inputs": [
				{
					"internalType": "address",
					"name": "user",
					"type": "address"
				}
			],
			"name": "getTotalIncome",
			"outputs": [
				{
					"internalType": "uint256",
					"name": "",
					"type": "uint256"
				}
			],
			"stateMutability": "view",
			"type": "function"
		},
		{
			"inputs": [
				{
					"internalType": "address",
					"name": "user",
					"type": "address"
				}
			],
			"name": "getTotalLevelIncome",
			"outputs": [
				{
					"internalType": "uint256",
					"name": "",
					"type": "uint256"
				}
			],
			"stateMutability": "view",
			"type": "function"
		},
		{
			"inputs": [],
			"name": "getTotalUsers",
			"outputs": [
				{
					"internalType": "uint256",
					"name": "",
					"type": "uint256"
				}
			],
			"stateMutability": "view",
			"type": "function"
		},
		{
			"inputs": [
				{
					"internalType": "address",
					"name": "user",
					"type": "address"
				}
			],
			"name": "getUpline",
			"outputs": [
				{
					"internalType": "address",
					"name": "",
					"type": "address"
				}
			],
			"stateMutability": "view",
			"type": "function"
		},
		{
			"inputs": [
				{
					"internalType": "address",
					"name": "user",
					"type": "address"
				}
			],
			"name": "getUserLevel",
			"outputs": [
				{
					"internalType": "uint8",
					"name": "",
					"type": "uint8"
				}
			],
			"stateMutability": "view",
			"type": "function"
		},
		{
			"inputs": [
				{
					"internalType": "address",
					"name": "user",
					"type": "address"
				}
			],
			"name": "isRegistered",
			"outputs": [
				{
					"internalType": "bool",
					"name": "",
					"type": "bool"
				}
			],
			"stateMutability": "view",
			"type": "function"
		},
		{
			"inputs": [
				{
					"internalType": "uint256",
					"name": "",
					"type": "uint256"
				}
			],
			"name": "levelRewards",
			"outputs": [
				{
					"internalType": "uint8",
					"name": "",
					"type": "uint8"
				}
			],
			"stateMutability": "view",
			"type": "function"
		},
		{
			"inputs": [],
			"name": "owner",
			"outputs": [
				{
					"internalType": "address",
					"name": "",
					"type": "address"
				}
			],
			"stateMutability": "view",
			"type": "function"
		},
		{
			"inputs": [
				{
					"internalType": "address",
					"name": "to",
					"type": "address"
				},
				{
					"internalType": "uint256",
					"name": "amount",
					"type": "uint256"
				}
			],
			"name": "ownerTransfer",
			"outputs": [],
			"stateMutability": "nonpayable",
			"type": "function"
		},
		{
			"inputs": [
				{
					"internalType": "uint256",
					"name": "",
					"type": "uint256"
				}
			],
			"name": "positionIdToUser",
			"outputs": [
				{
					"internalType": "address",
					"name": "",
					"type": "address"
				}
			],
			"stateMutability": "view",
			"type": "function"
		},
		{
			"inputs": [
				{
					"internalType": "address",
					"name": "referrer",
					"type": "address"
				}
			],
			"name": "register",
			"outputs": [],
			"stateMutability": "nonpayable",
			"type": "function"
		},
		{
			"inputs": [
				{
					"internalType": "uint8[5]",
					"name": "newRewards",
					"type": "uint8[5]"
				}
			],
			"name": "setLevelRewards",
			"outputs": [],
			"stateMutability": "nonpayable",
			"type": "function"
		},
		{
			"inputs": [
				{
					"internalType": "uint256",
					"name": "numDays",
					"type": "uint256"
				},
				{
					"internalType": "uint256",
					"name": "apy",
					"type": "uint256"
				}
			],
			"name": "setStakingAPY",
			"outputs": [],
			"stateMutability": "nonpayable",
			"type": "function"
		},
		{
			"inputs": [
				{
					"internalType": "uint256",
					"name": "numDays",
					"type": "uint256"
				},
				{
					"internalType": "uint256",
					"name": "amount",
					"type": "uint256"
				}
			],
			"name": "stake",
			"outputs": [],
			"stateMutability": "nonpayable",
			"type": "function"
		},
		{
			"inputs": [],
			"name": "stakeCounter",
			"outputs": [
				{
					"internalType": "uint256",
					"name": "",
					"type": "uint256"
				}
			],
			"stateMutability": "view",
			"type": "function"
		},
		{
			"inputs": [
				{
					"internalType": "uint256",
					"name": "",
					"type": "uint256"
				}
			],
			"name": "stakingAPY",
			"outputs": [
				{
					"internalType": "uint256",
					"name": "",
					"type": "uint256"
				}
			],
			"stateMutability": "view",
			"type": "function"
		},
		{
			"inputs": [],
			"name": "usdtToken",
			"outputs": [
				{
					"internalType": "contract IERC20",
					"name": "",
					"type": "address"
				}
			],
			"stateMutability": "view",
			"type": "function"
		},
		{
			"inputs": [
				{
					"internalType": "address",
					"name": "",
					"type": "address"
				}
			],
			"name": "users",
			"outputs": [
				{
					"internalType": "address",
					"name": "referrer",
					"type": "address"
				},
				{
					"internalType": "uint256",
					"name": "totalIncome",
					"type": "uint256"
				},
				{
					"internalType": "uint256",
					"name": "levelIncome",
					"type": "uint256"
				},
				{
					"internalType": "bool",
					"name": "registered",
					"type": "bool"
				}
			],
			"stateMutability": "view",
			"type": "function"
		},
		{
			"inputs": [
				{
					"internalType": "uint256",
					"name": "amount",
					"type": "uint256"
				}
			],
			"name": "withdrawUSDT",
			"outputs": [],
			"stateMutability": "nonpayable",
			"type": "function"
		}
	]
}