{
	"data": {
		"bytecode": {
			"linkReferences": {},
			"object": "61012060405260056080818152600360a052600260c052600160e08190526101005261002e9160099190610190565b5034801561003a575f5ffd5b50604051612f87380380612f8783398101604081905261005991610234565b5f8054336001600160a01b031991821681178355600280549092166001600160a01b039490941693909317815591815260036020908152604082206004908101805460ff191660019081179091556006928390527fb6ba906ff52451a7a924e2eaeb8aea3ebee7350a8703e5e417edb25358c7dcc1557f6ca6dcafc04b6e03616746c3528366f990e332021e35d59275be746d65cae0a7939093557f1727c0104c2870c3003671480695f7dab262614528b49265008e76fd3d48c5fe929092557f5451fe6494362676ddb91456d9957c85d968e6f82956407c931a14c023049e6a9190915560097ffb78eb295a86b096b5f095822bd250a277112be4103ea4a7608d96eca726b2c15561016d905260147f0bbf8adea84d189c39869a372ab30aeba9246eea044edc5a37ac100921b2c4e155610261565b600183019183908215610210579160200282015f5b838211156101e257835183826101000a81548160ff021916908360ff16021790555092602001926001016020815f010492830192600103026101a5565b801561020e5782816101000a81549060ff02191690556001016020815f010492830192600103026101e2565b505b5061021c929150610220565b5090565b5b8082111561021c575f8155600101610221565b5f60208284031215610244575f5ffd5b81516001600160a01b038116811461025a575f5ffd5b9392505050565b612d198061026e5f395ff3fe608060405234801561000f575f5ffd5b50600436106101e7575f3560e01c806398278efb11610109578063c2d3c6771161009e578063e45a57d01161006e578063e45a57d0146105b4578063ef71ae56146105c7578063f6e88873146105e7578063f7b17d1014610606575f5ffd5b8063c2d3c67714610538578063c3c5a54714610563578063c5b89c0a146102fb578063d85c8966146105a1575f5ffd5b8063a87430ba116100d9578063a87430ba14610466578063a98ad46c146104d5578063aa7ed462146104e8578063bd29717814610510575f5ffd5b806398278efb146104015780639be572f6146104295780639d747bad14610431578063a2bdedf414610453575f5ffd5b80635bd4e16a1161017f578063797c7f5f1161014f578063797c7f5f146103635780637b0472f0146103bd578063875bb4e2146103d05780638da5cb5b146103ef575f5ffd5b80635bd4e16a146102fb578063656596a5146103355780636c8c2156146103485780636f9fb98a1461035b575f5ffd5b8063379607f5116101ba578063379607f5146102ad5780633ea521ef146102c25780634420e486146102d55780634850d2a2146102e8575f5ffd5b806305ad3935146101eb5780631e43eb271461022857806321923bde1461026857806328fe70311461028d575b5f5ffd5b6101fe6101f93660046128c0565b61060f565b604080516001600160a01b0390941684526020840192909252908201526060015b60405180910390f35b6102506102363660046128e8565b60056020525f90815260409020546001600160a01b031681565b6040516001600160a01b03909116815260200161021f565b61027b6102763660046128ff565b610657565b60405160ff909116815260200161021f565b6102a061029b3660046128ff565b6106aa565b60405161021f9190612959565b6102c06102bb3660046128e8565b610780565b005b6102c06102d03660046128e8565b610c2a565b6102c06102e33660046128ff565b610cfc565b6102c06102f636600461296b565b610f57565b6103276103093660046128ff565b6001600160a01b03165f908152600360208190526040909120015490565b60405190815260200161021f565b6102c06103433660046129af565b610fd3565b6102c06103563660046128e8565b611009565b61032761146b565b6103766103713660046128e8565b6114da565b604080516001600160a01b0390991689526020890197909752958701949094526060860192909252608085015260a084015260c0830152151560e08201526101000161021f565b6102c06103cb36600461296b565b611735565b6103276103de3660046128e8565b60066020525f908152604090205481565b5f54610250906001600160a01b031681565b61032761040f3660046128ff565b6001600160a01b03165f9081526004602052604090205490565b600854610327565b61044461043f3660046128ff565b611eb2565b60405161021f93929190612a30565b6102506104613660046128e8565b61209f565b6104a96104743660046128ff565b600360208190525f918252604090912080546002820154928201546004909201546001600160a01b0390911692919060ff1684565b604080516001600160a01b0390951685526020850193909352918301521515606082015260800161021f565b600254610250906001600160a01b031681565b6103276104f63660046128ff565b6001600160a01b03165f9081526007602052604090205490565b61052361051e36600461296b565b6120c7565b6040805192835260208301919091520161021f565b6103276105463660046128ff565b6001600160a01b03165f9081526003602052604090206002015490565b6105916105713660046128ff565b6001600160a01b03165f9081526003602052604090206004015460ff1690565b604051901515815260200161021f565b6102c06105af3660046128c0565b6121b3565b61027b6105c23660046128e8565b612341565b6105da6105d53660046128ff565b61236a565b60405161021f9190612aa5565b6103276105f53660046128ff565b60076020525f908152604090205481565b61032760015481565b6004602052815f5260405f208181548110610628575f80fd5b5f9182526020909120600390910201805460018201546002909201546001600160a01b03909116935090915083565b6001600160a01b0381165f90815260046020526040812054600a81106106805750600392915050565b600581106106915750600292915050565b600181106106a25750600192915050565b505f92915050565b6001600160a01b0381165f908152600360205260408120600101546060918167ffffffffffffffff8111156106e1576106e161298b565b60405190808252806020026020018201604052801561070a578160200160208202803683370190505b5090505f5b82811015610778576001600160a01b0385165f90815260036020526040902060010180548290811061074357610743612b3e565b905f5260205f2090600602016001015482828151811061076557610765612b3e565b602090810291909101015260010161070f565b509392505050565b335f9081526003602052604090206004015460ff166107ba5760405162461bcd60e51b81526004016107b190612b52565b60405180910390fd5b335f818152600360205260408120906001820190805b8254811015610bca57858382815481106107ec576107ec612b3e565b905f5260205f2090600602016001015414801561082e575082818154811061081657610816612b3e565b5f91825260209091206005600690920201015460ff16155b15610bc25782818154811061084557610845612b3e565b905f5260205f20906006020160040154620151806108639190612b8e565b83828154811061087557610875612b3e565b905f5260205f2090600602016003015461088f9190612bab565b4210156108de5760405162461bcd60e51b815260206004820181905260248201527f5374616b696e6720706572696f64206e6f742079657420636f6d706c6574656460448201526064016107b1565b5f60065f8584815481106108f4576108f4612b3e565b905f5260205f2090600602016004015481526020019081526020015f205490505f618e9485848154811061092a5761092a612b3e565b905f5260205f209060060201600401548387868154811061094d5761094d612b3e565b905f5260205f209060060201600201546109679190612b8e565b6109719190612b8e565b61097b9190612bbe565b90505f8186858154811061099157610991612b3e565b905f5260205f209060060201600201546109ab9190612bab565b6002546040516370a0823160e01b815230600482015291925082916001600160a01b03909116906370a0823190602401602060405180830381865afa1580156109f6573d5f5f3e3d5ffd5b505050506040513d601f19601f82011682018060405250810190610a1a9190612bdd565b1015610a385760405162461bcd60e51b81526004016107b190612bf4565b6001868581548110610a4c57610a4c612b3e565b5f9182526020822060069190910201600501805460ff19169215159290921790915560025460405163a9059cbb60e01b81526001600160a01b038b81166004830152602482018590529091169063a9059cbb906044016020604051808303815f875af1158015610abe573d5f5f3e3d5ffd5b505050506040513d601f19601f82011682018060405250810190610ae29190612c2b565b905080610b285760405162461bcd60e51b81526020600482015260146024820152731554d115081d1c985b9cd9995c8819985a5b195960621b60448201526064016107b1565b886001600160a01b03167f9cdcf2f7714cca3508c7f0110b04a90a80a3a8dd0e35de99689db74d28c5383e888781548110610b6557610b65612b3e565b905f5260205f2090600602015f0154898881548110610b8657610b86612b3e565b5f918252602091829020600260069092020101546040805193845291830152810186905260600160405180910390a26001955050505050610bca565b6001016107d0565b5080610c235760405162461bcd60e51b815260206004820152602260248201527f5374616b65206e6f7420666f756e64206f7220616c726561647920636c61696d604482015261195960f21b60648201526084016107b1565b5050505050565b5f546001600160a01b03163314610c835760405162461bcd60e51b815260206004820152601760248201527f4f6e6c79206f776e65722063616e20776974686472617700000000000000000060448201526064016107b1565b6002545f5460405163a9059cbb60e01b81526001600160a01b0391821660048201526024810184905291169063a9059cbb906044016020604051808303815f875af1158015610cd4573d5f5f3e3d5ffd5b505050506040513d601f19601f82011682018060405250810190610cf89190612c2b565b5050565b335f9081526003602052604090206004015460ff1615610d535760405162461bcd60e51b8152602060048201526012602482015271105b1c9958591e481c9959da5cdd195c995960721b60448201526064016107b1565b336001600160a01b03821603610da35760405162461bcd60e51b815260206004820152601560248201527421b0b73737ba103932b332b9103cb7bab939b2b63360591b60448201526064016107b1565b6001600160a01b0381165f9081526003602052604090206004015460ff16610e0d5760405162461bcd60e51b815260206004820152601760248201527f5265666572726572206e6f74207265676973746572656400000000000000000060448201526064016107b1565b6001600160a01b0381165f90815260036020526040902060010154610e885760405162461bcd60e51b815260206004820152602b60248201527f5265666572726572206d757374207374616b65206265666f726520796f75206360448201526a30b7103932b3b4b9ba32b960a91b60648201526084016107b1565b335f81815260036020818152604080842080546001600160a01b039788166001600160a01b0319918216811783556004928301805460ff19166001908117909155600880548083019091557ff3f7a9fe364faab93b216da50a3214154f22a0a2b415b23a84c8169e8b636ee301805484168a17905590875291845282862083516060810185529788528785018781524294890194855281548085018355918852949096209651959094029095018054949096169390921692909217845590519183019190915551600290910155565b5f546001600160a01b03163314610f805760405162461bcd60e51b81526004016107b190612c4a565b5f8211610fc25760405162461bcd60e51b815260206004820152601060248201526f044617973206d757374206265203e20360841b60448201526064016107b1565b5f9182526006602052604090912055565b5f546001600160a01b03163314610ffc5760405162461bcd60e51b81526004016107b190612c4a565b610cf86009826005612801565b335f9081526003602052604090206004015460ff1661103a5760405162461bcd60e51b81526004016107b190612b52565b335f818152600360205260408120906001820190805b8254811015610bca578583828154811061106c5761106c612b3e565b905f5260205f209060060201600101541480156110ae575082818154811061109657611096612b3e565b5f91825260209091206005600690920201015460ff16155b15611463578281815481106110c5576110c5612b3e565b905f5260205f20906006020160030154620d2f006110e39190612bab565b4210156111455760405162461bcd60e51b815260206004820152602a60248201527f456d657267656e637920636c61696d20616c6c6f776564206f6e6c79206166746044820152696572203130206461797360b01b60648201526084016107b1565b5f83828154811061115857611158612b3e565b5f918252602082206002600690920201015491506064611179836005612b8e565b6111839190612bbe565b90505f6111908284612c81565b6002546040516370a0823160e01b815230600482015291925084916001600160a01b03909116906370a0823190602401602060405180830381865afa1580156111db573d5f5f3e3d5ffd5b505050506040513d601f19601f820116820180604052508101906111ff9190612bdd565b101561121d5760405162461bcd60e51b81526004016107b190612bf4565b600186858154811061123157611231612b3e565b5f9182526020822060069190910201600501805460ff19169215159290921790915560025460405163a9059cbb60e01b81526001600160a01b038b81166004830152602482018590529091169063a9059cbb906044016020604051808303815f875af11580156112a3573d5f5f3e3d5ffd5b505050506040513d601f19601f820116820180604052508101906112c79190612c2b565b90508061130d5760405162461bcd60e51b8152602060048201526014602482015273155cd95c881d1c985b9cd9995c8819985a5b195960621b60448201526064016107b1565b60025460405163a9059cbb60e01b8152739ab49a6105a768ed88b8afd9cca7f6886f739aad6004820152602481018590525f916001600160a01b03169063a9059cbb906044016020604051808303815f875af115801561136f573d5f5f3e3d5ffd5b505050506040513d601f19601f820116820180604052508101906113939190612c2b565b9050806113e25760405162461bcd60e51b815260206004820152601960248201527f41646d696e20666565207472616e73666572206661696c65640000000000000060448201526064016107b1565b896001600160a01b03167f9cdcf2f7714cca3508c7f0110b04a90a80a3a8dd0e35de99689db74d28c5383e89888154811061141f5761141f612b3e565b5f918252602082206006909102015460405161144d9288919283526020830191909152604082015260600190565b60405180910390a2600196505050505050610bca565b600101611050565b6002546040516370a0823160e01b81523060048201525f916001600160a01b0316906370a0823190602401602060405180830381865afa1580156114b1573d5f5f3e3d5ffd5b505050506040513d601f19601f820116820180604052508101906114d59190612bdd565b905090565b5f8181526005602052604081205481908190819081908190819081906001600160a01b0316806115415760405162461bcd60e51b8152602060048201526012602482015271125b9d985b1a59081c1bdcda5d1a5bdb925960721b60448201526064016107b1565b6001600160a01b0381165f90815260036020908152604080832060010180548251818502810185019093528083529192909190849084015b828210156115e5575f8481526020908190206040805160c08101825260068602909201805483526001808201548486015260028201549284019290925260038101546060840152600481015460808401526005015460ff16151560a08301529083529092019101611579565b509293505f925050505b81518110156116ef578b82828151811061160b5761160b612b3e565b602002602001015160200151036116e7575f82828151811061162f5761162f612b3e565b602002602001015190505f60065f836080015181526020019081526020015f205490505f8260800151620151806116669190612b8e565b83606001516116759190612bab565b90505f8360a0015115801561168957508142105b90505f61016d60648587604001516116a19190612b8e565b6116ab9190612bbe565b6116b59190612bbe565b905087855f015186604001518760600151868886889f509f509f509f509f509f509f509f50505050505050505061172a565b6001016115ef565b5060405162461bcd60e51b815260206004820152600f60248201526e14dd185ad9481b9bdd08199bdd5b99608a1b60448201526064016107b1565b919395975091939597565b335f9081526003602052604090206004015460ff166117665760405162461bcd60e51b81526004016107b190612b52565b5f81116117c15760405162461bcd60e51b815260206004820152602360248201527f5374616b6520616d6f756e74206d75737420626520677265617465722074686160448201526206e20360ec1b60648201526084016107b1565b5f828152600660205260409020546118165760405162461bcd60e51b815260206004820152601860248201527724b73b30b634b21039ba30b5b4b73390323ab930ba34b7b760411b60448201526064016107b1565b335f908152600360205260409020546001600160a01b031680156118ac576001600160a01b0381165f908152600360205260409020600101546118ac5760405162461bcd60e51b815260206004820152602860248201527f5265666572726572206d757374207374616b65206265666f726520796f752063604482015267616e207374616b6560c01b60648201526084016107b1565b6002546040516323b872dd60e01b8152336004820152306024820152604481018490525f916001600160a01b0316906323b872dd906064016020604051808303815f875af1158015611900573d5f5f3e3d5ffd5b505050506040513d601f19601f820116820180604052508101906119249190612c2b565b90508061196a5760405162461bcd60e51b81526020600482015260146024820152731554d115081d1c985b9cd9995c8819985a5b195960621b60448201526064016107b1565b5f60015f815461197990612c94565b919050819055905060035f336001600160a01b03166001600160a01b031681526020019081526020015f206001016040518060c0016040528060015481526020018381526020018681526020014281526020018781526020015f1515815250908060018154018082558091505060019003905f5260205f2090600602015f909190919091505f820151815f01556020820151816001015560408201518160020155606082015181600301556080820151816004015560a0820151816005015f6101000a81548160ff02191690831515021790555050503360055f8381526020019081526020015f205f6101000a8154816001600160a01b0302191690836001600160a01b031602179055505f60035f336001600160a01b03166001600160a01b031681526020019081526020015f205f015f9054906101000a90046001600160a01b031690505f60035f336001600160a01b03166001600160a01b031681526020019081526020015f206001018054905060011490505f5f90505b60058160ff16108015611b0f57506001600160a01b03831615155b15611ea8575f60ff82168103611bdb578215611b43576064611b3289600a612b8e565b611b3c9190612bbe565b9050611b87565b606460098360ff1660058110611b5b57611b5b612b3e565b602081049190910154611b7a91601f166101000a900460ff168a612b8e565b611b849190612bbe565b90505b82611b92575f611ba9565b6064611b9f896005612b8e565b611ba99190612bbe565b6001600160a01b0385165f9081526007602052604081208054909190611bd0908490612bab565b90915550611c1f9050565b606460098360ff1660058110611bf357611bf3612b3e565b602081049190910154611c1291601f166101000a900460ff168a612b8e565b611c1c9190612bbe565b90505b6002546040516370a0823160e01b815230600482015282916001600160a01b0316906370a0823190602401602060405180830381865afa158015611c65573d5f5f3e3d5ffd5b505050506040513d601f19601f82011682018060405250810190611c899190612bdd565b1015611ca75760405162461bcd60e51b81526004016107b190612bf4565b60025460405163a9059cbb60e01b81526001600160a01b038681166004830152602482018490525f92169063a9059cbb906044016020604051808303815f875af1158015611cf7573d5f5f3e3d5ffd5b505050506040513d601f19601f82011682018060405250810190611d1b9190612c2b565b905080611d635760405162461bcd60e51b815260206004820152601660248201527514995dd85c99081d1c985b9cd9995c8819985a5b195960521b60448201526064016107b1565b6001600160a01b0385165f9081526003602052604081206002018054849290611d8d908490612bab565b909155505060ff8316151580611da1575083155b15611dd6576001600160a01b0385165f9081526003602081905260408220018054849290611dd0908490612bab565b90915550505b6001600160a01b0385165f908152600460205260408120905b8154811015611e7557336001600160a01b0316828281548110611e1457611e14612b3e565b5f9182526020909120600390910201546001600160a01b031603611e6d5783828281548110611e4557611e45612b3e565b905f5260205f2090600302016001015f828254611e629190612bab565b90915550611e759050565b600101611def565b5050506001600160a01b039384165f90815260036020526040902054909316925080611ea081612cac565b915050611af4565b5050505050505050565b6001600160a01b0381165f908152600460205260409020805460609182918291908067ffffffffffffffff811115611eec57611eec61298b565b604051908082528060200260200182016040528015611f15578160200160208202803683370190505b5094508067ffffffffffffffff811115611f3157611f3161298b565b604051908082528060200260200182016040528015611f5a578160200160208202803683370190505b5093508067ffffffffffffffff811115611f7657611f7661298b565b604051908082528060200260200182016040528015611f9f578160200160208202803683370190505b5092505f5b8181101561209557828181548110611fbe57611fbe612b3e565b5f91825260209091206003909102015486516001600160a01b0390911690879083908110611fee57611fee612b3e565b60200260200101906001600160a01b031690816001600160a01b03168152505082818154811061202057612020612b3e565b905f5260205f2090600302016001015485828151811061204257612042612b3e565b60200260200101818152505082818154811061206057612060612b3e565b905f5260205f2090600302016002015484828151811061208257612082612b3e565b6020908102919091010152600101611fa4565b5050509193909250565b600881815481106120ae575f80fd5b5f918252602090912001546001600160a01b0316905081565b5f5f5f84116121185760405162461bcd60e51b815260206004820152601d60248201527f416d6f756e74206d7573742062652067726561746572207468616e203000000060448201526064016107b1565b5f8381526006602052604090205461216d5760405162461bcd60e51b815260206004820152601860248201527724b73b30b634b21039ba30b5b4b73390323ab930ba34b7b760411b60448201526064016107b1565b5f83815260066020526040902054618e94846121898388612b8e565b6121939190612b8e565b61219d9190612bbe565b92506121a98386612bab565b9150509250929050565b5f546001600160a01b031633146121dc5760405162461bcd60e51b81526004016107b190612c4a565b6001600160a01b0382166122325760405162461bcd60e51b815260206004820152601960248201527f496e76616c696420726563697069656e7420616464726573730000000000000060448201526064016107b1565b5f81116122815760405162461bcd60e51b815260206004820181905260248201527f416d6f756e74206d7573742062652067726561746572207468616e207a65726f60448201526064016107b1565b60025460405163a9059cbb60e01b81526001600160a01b038481166004830152602482018490525f92169063a9059cbb906044016020604051808303815f875af11580156122d1573d5f5f3e3d5ffd5b505050506040513d601f19601f820116820180604052508101906122f59190612c2b565b90508061233c5760405162461bcd60e51b8152602060048201526015602482015274151bdad95b881d1c985b9cd9995c8819985a5b1959605a1b60448201526064016107b1565b505050565b60098160058110612350575f80fd5b60209182820401919006915054906101000a900460ff1681565b60605f805b6008548110156124e7575f6008828154811061238d5761238d612b3e565b5f9182526020808320909101546001600160a01b031680835260038252604080842060010180548251818602810186019093528083529295509092909190849084015b8282101561243c575f8481526020908190206040805160c08101825260068602909201805483526001808201548486015260028201549284019290925260038101546060840152600481015460808401526005015460ff16151560a083015290835290920191016123d0565b505050506001600160a01b038381165f908152600360205260408120549293509116905b60058160ff1610801561247b57506001600160a01b03821615155b156124d757876001600160a01b0316826001600160a01b0316036124a85782516124a59087612bab565b95505b6001600160a01b039182165f9081526003602052604090205490911690806124cf81612cac565b915050612460565b50506001909201915061236f9050565b505f8167ffffffffffffffff8111156125025761250261298b565b60405190808252806020026020018201604052801561258157816020015b61256e6040518060e001604052805f6001600160a01b031681526020015f81526020015f81526020015f81526020015f6001600160a01b031681526020015f81526020015f60ff1681525090565b8152602001906001900390816125205790505b5090505f805b6008548110156127f7575f600882815481106125a5576125a5612b3e565b5f9182526020808320909101546001600160a01b031680835260038252604080842060010180548251818602810186019093528083529295509092909190849084015b82821015612654575f8481526020908190206040805160c08101825260068602909201805483526001808201548486015260028201549284019290925260038101546060840152600481015460808401526005015460ff16151560a083015290835290920191016125e8565b505050506001600160a01b038381165f908152600360205260408120549293509116905b60058160ff1610801561269357506001600160a01b03821615155b156127e757896001600160a01b0316826001600160a01b0316036127b8575f5b83518110156127b6575f8482815181106126cf576126cf612b3e565b602002602001015190505f606460098560ff16600581106126f2576126f2612b3e565b602091828204019190069054906101000a900460ff1660ff16836040015161271a9190612b8e565b6127249190612bbe565b90506040518060e001604052808e6001600160a01b03168152602001835f0151815260200183604001518152602001828152602001886001600160a01b031681526020018360600151815260200185600161277f9190612cca565b60ff1690528a8a61278f81612c94565b9b50815181106127a1576127a1612b3e565b602090810291909101015250506001016126b3565b505b6001600160a01b039182165f9081526003602052604090205490911690806127df81612cac565b915050612678565b5050600190920191506125879050565b5090949350505050565b600183019183908215612881579160200282015f5b8382111561285357835183826101000a81548160ff021916908360ff16021790555092602001926001016020815f01049283019260010302612816565b801561287f5782816101000a81549060ff02191690556001016020815f01049283019260010302612853565b505b5061288d929150612891565b5090565b5b8082111561288d575f8155600101612892565b80356001600160a01b03811681146128bb575f5ffd5b919050565b5f5f604083850312156128d1575f5ffd5b6128da836128a5565b946020939093013593505050565b5f602082840312156128f8575f5ffd5b5035919050565b5f6020828403121561290f575f5ffd5b612918826128a5565b9392505050565b5f8151808452602084019350602083015f5b8281101561294f578151865260209586019590910190600101612931565b5093949350505050565b602081525f612918602083018461291f565b5f5f6040838503121561297c575f5ffd5b50508035926020909101359150565b634e487b7160e01b5f52604160045260245ffd5b803560ff811681146128bb575f5ffd5b5f60a082840312156129bf575f5ffd5b82601f8301126129cd575f5ffd5b60405160a0810181811067ffffffffffffffff821117156129f0576129f061298b565b6040528060a0840185811115612a04575f5ffd5b845b81811015612a2557612a178161299f565b835260209283019201612a06565b509195945050505050565b606080825284519082018190525f9060208601906080840190835b81811015612a725783516001600160a01b0316835260209384019390920191600101612a4b565b50508381036020850152612a86818761291f565b9150508281036040840152612a9b818561291f565b9695505050505050565b602080825282518282018190525f918401906040840190835b81811015612b3357835160018060a01b03815116845260208101516020850152604081015160408501526060810151606085015260018060a01b03608082015116608085015260a081015160a085015260ff60c08201511660c08501525060e083019250602084019350600181019050612abe565b509095945050505050565b634e487b7160e01b5f52603260045260245ffd5b6020808252600e908201526d139bdd081c9959da5cdd195c995960921b604082015260600190565b634e487b7160e01b5f52601160045260245ffd5b8082028115828204841417612ba557612ba5612b7a565b92915050565b80820180821115612ba557612ba5612b7a565b5f82612bd857634e487b7160e01b5f52601260045260245ffd5b500490565b5f60208284031215612bed575f5ffd5b5051919050565b6020808252601d908201527f496e73756666696369656e7420636f6e74726163742062616c616e6365000000604082015260600190565b5f60208284031215612c3b575f5ffd5b81518015158114612918575f5ffd5b60208082526018908201527f4f6e6c79206f776e65722063616e2063616c6c20746869730000000000000000604082015260600190565b81810381811115612ba557612ba5612b7a565b5f60018201612ca557612ca5612b7a565b5060010190565b5f60ff821660ff8103612cc157612cc1612b7a565b60010192915050565b60ff8181168382160190811115612ba557612ba5612b7a56fea2646970667358221220b8e860df044713468b1b0786a2a7202fe85db4573eb914a1f6670c2b5d948bed64736f6c634300081e0033",
			"opcodes": "PUSH2 0x120 PUSH1 0x40 MSTORE PUSH1 0x5 PUSH1 0x80 DUP2 DUP2 MSTORE PUSH1 0x3 PUSH1 0xA0 MSTORE PUSH1 0x2 PUSH1 0xC0 MSTORE PUSH1 0x1 PUSH1 0xE0 DUP2 SWAP1 MSTORE PUSH2 0x100 MSTORE PUSH2 0x2E SWAP2 PUSH1 0x9 SWAP2 SWAP1 PUSH2 0x190 JUMP JUMPDEST POP CALLVALUE DUP1 ISZERO PUSH2 0x3A JUMPI PUSH0 PUSH0 REVERT JUMPDEST POP PUSH1 0x40 MLOAD PUSH2 0x2F87 CODESIZE SUB DUP1 PUSH2 0x2F87 DUP4 CODECOPY DUP2 ADD PUSH1 0x40 DUP2 SWAP1 MSTORE PUSH2 0x59 SWAP2 PUSH2 0x234 JUMP JUMPDEST PUSH0 DUP1 SLOAD CALLER PUSH1 0x1 PUSH1 0x1 PUSH1 0xA0 SHL SUB NOT SWAP2 DUP3 AND DUP2 OR DUP4 SSTORE PUSH1 0x2 DUP1 SLOAD SWAP1 SWAP3 AND PUSH1 0x1 PUSH1 0x1 PUSH1 0xA0 SHL SUB SWAP5 SWAP1 SWAP5 AND SWAP4 SWAP1 SWAP4 OR DUP2 SSTORE SWAP2 DUP2 MSTORE PUSH1 0x3 PUSH1 0x20 SWAP1 DUP2 MSTORE PUSH1 0x40 DUP3 KECCAK256 PUSH1 0x4 SWAP1 DUP2 ADD DUP1 SLOAD PUSH1 0xFF NOT AND PUSH1 0x1 SWAP1 DUP2 OR SWAP1 SWAP2 SSTORE PUSH1 0x6 SWAP3 DUP4 SWAP1 MSTORE PUSH32 0xB6BA906FF52451A7A924E2EAEB8AEA3EBEE7350A8703E5E417EDB25358C7DCC1 SSTORE PUSH32 0x6CA6DCAFC04B6E03616746C3528366F990E332021E35D59275BE746D65CAE0A7 SWAP4 SWAP1 SWAP4 SSTORE PUSH32 0x1727C0104C2870C3003671480695F7DAB262614528B49265008E76FD3D48C5FE SWAP3 SWAP1 SWAP3 SSTORE PUSH32 0x5451FE6494362676DDB91456D9957C85D968E6F82956407C931A14C023049E6A SWAP2 SWAP1 SWAP2 SSTORE PUSH1 0x9 PUSH32 0xFB78EB295A86B096B5F095822BD250A277112BE4103EA4A7608D96ECA726B2C1 SSTORE PUSH2 0x16D SWAP1 MSTORE PUSH1 0x14 PUSH32 0xBBF8ADEA84D189C39869A372AB30AEBA9246EEA044EDC5A37AC100921B2C4E1 SSTORE PUSH2 0x261 JUMP JUMPDEST PUSH1 0x1 DUP4 ADD SWAP2 DUP4 SWAP1 DUP3 ISZERO PUSH2 0x210 JUMPI SWAP2 PUSH1 0x20 MUL DUP3 ADD PUSH0 JUMPDEST DUP4 DUP3 GT ISZERO PUSH2 0x1E2 JUMPI DUP4 MLOAD DUP4 DUP3 PUSH2 0x100 EXP DUP2 SLOAD DUP2 PUSH1 0xFF MUL NOT AND SWAP1 DUP4 PUSH1 0xFF AND MUL OR SWAP1 SSTORE POP SWAP3 PUSH1 0x20 ADD SWAP3 PUSH1 0x1 ADD PUSH1 0x20 DUP2 PUSH0 ADD DIV SWAP3 DUP4 ADD SWAP3 PUSH1 0x1 SUB MUL PUSH2 0x1A5 JUMP JUMPDEST DUP1 ISZERO PUSH2 0x20E JUMPI DUP3 DUP2 PUSH2 0x100 EXP DUP2 SLOAD SWAP1 PUSH1 0xFF MUL NOT AND SWAP1 SSTORE PUSH1 0x1 ADD PUSH1 0x20 DUP2 PUSH0 ADD DIV SWAP3 DUP4 ADD SWAP3 PUSH1 0x1 SUB MUL PUSH2 0x1E2 JUMP JUMPDEST POP JUMPDEST POP PUSH2 0x21C SWAP3 SWAP2 POP PUSH2 0x220 JUMP JUMPDEST POP SWAP1 JUMP JUMPDEST JUMPDEST DUP1 DUP3 GT ISZERO PUSH2 0x21C JUMPI PUSH0 DUP2 SSTORE PUSH1 0x1 ADD PUSH2 0x221 JUMP JUMPDEST PUSH0 PUSH1 0x20 DUP3 DUP5 SUB SLT ISZERO PUSH2 0x244 JUMPI PUSH0 PUSH0 REVERT JUMPDEST DUP2 MLOAD PUSH1 0x1 PUSH1 0x1 PUSH1 0xA0 SHL SUB DUP2 AND DUP2 EQ PUSH2 0x25A JUMPI PUSH0 PUSH0 REVERT JUMPDEST SWAP4 SWAP3 POP POP POP JUMP JUMPDEST PUSH2 0x2D19 DUP1 PUSH2 0x26E PUSH0 CODECOPY PUSH0 RETURN INVALID PUSH1 0x80 PUSH1 0x40 MSTORE CALLVALUE DUP1 ISZERO PUSH2 0xF JUMPI PUSH0 PUSH0 REVERT JUMPDEST POP PUSH1 0x4 CALLDATASIZE LT PUSH2 0x1E7 JUMPI PUSH0 CALLDATALOAD PUSH1 0xE0 SHR DUP1 PUSH4 0x98278EFB GT PUSH2 0x109 JUMPI DUP1 PUSH4 0xC2D3C677 GT PUSH2 0x9E JUMPI DUP1 PUSH4 0xE45A57D0 GT PUSH2 0x6E JUMPI DUP1 PUSH4 0xE45A57D0 EQ PUSH2 0x5B4 JUMPI DUP1 PUSH4 0xEF71AE56 EQ PUSH2 0x5C7 JUMPI DUP1 PUSH4 0xF6E88873 EQ PUSH2 0x5E7 JUMPI DUP1 PUSH4 0xF7B17D10 EQ PUSH2 0x606 JUMPI PUSH0 PUSH0 REVERT JUMPDEST DUP1 PUSH4 0xC2D3C677 EQ PUSH2 0x538 JUMPI DUP1 PUSH4 0xC3C5A547 EQ PUSH2 0x563 JUMPI DUP1 PUSH4 0xC5B89C0A EQ PUSH2 0x2FB JUMPI DUP1 PUSH4 0xD85C8966 EQ PUSH2 0x5A1 JUMPI PUSH0 PUSH0 REVERT JUMPDEST DUP1 PUSH4 0xA87430BA GT PUSH2 0xD9 JUMPI DUP1 PUSH4 0xA87430BA EQ PUSH2 0x466 JUMPI DUP1 PUSH4 0xA98AD46C EQ PUSH2 0x4D5 JUMPI DUP1 PUSH4 0xAA7ED462 EQ PUSH2 0x4E8 JUMPI DUP1 PUSH4 0xBD297178 EQ PUSH2 0x510 JUMPI PUSH0 PUSH0 REVERT JUMPDEST DUP1 PUSH4 0x98278EFB EQ PUSH2 0x401 JUMPI DUP1 PUSH4 0x9BE572F6 EQ PUSH2 0x429 JUMPI DUP1 PUSH4 0x9D747BAD EQ PUSH2 0x431 JUMPI DUP1 PUSH4 0xA2BDEDF4 EQ PUSH2 0x453 JUMPI PUSH0 PUSH0 REVERT JUMPDEST DUP1 PUSH4 0x5BD4E16A GT PUSH2 0x17F JUMPI DUP1 PUSH4 0x797C7F5F GT PUSH2 0x14F JUMPI DUP1 PUSH4 0x797C7F5F EQ PUSH2 0x363 JUMPI DUP1 PUSH4 0x7B0472F0 EQ PUSH2 0x3BD JUMPI DUP1 PUSH4 0x875BB4E2 EQ PUSH2 0x3D0 JUMPI DUP1 PUSH4 0x8DA5CB5B EQ PUSH2 0x3EF JUMPI PUSH0 PUSH0 REVERT JUMPDEST DUP1 PUSH4 0x5BD4E16A EQ PUSH2 0x2FB JUMPI DUP1 PUSH4 0x656596A5 EQ PUSH2 0x335 JUMPI DUP1 PUSH4 0x6C8C2156 EQ PUSH2 0x348 JUMPI DUP1 PUSH4 0x6F9FB98A EQ PUSH2 0x35B JUMPI PUSH0 PUSH0 REVERT JUMPDEST DUP1 PUSH4 0x379607F5 GT PUSH2 0x1BA JUMPI DUP1 PUSH4 0x379607F5 EQ PUSH2 0x2AD JUMPI DUP1 PUSH4 0x3EA521EF EQ PUSH2 0x2C2 JUMPI DUP1 PUSH4 0x4420E486 EQ PUSH2 0x2D5 JUMPI DUP1 PUSH4 0x4850D2A2 EQ PUSH2 0x2E8 JUMPI PUSH0 PUSH0 REVERT JUMPDEST DUP1 PUSH4 0x5AD3935 EQ PUSH2 0x1EB JUMPI DUP1 PUSH4 0x1E43EB27 EQ PUSH2 0x228 JUMPI DUP1 PUSH4 0x21923BDE EQ PUSH2 0x268 JUMPI DUP1 PUSH4 0x28FE7031 EQ PUSH2 0x28D JUMPI JUMPDEST PUSH0 PUSH0 REVERT JUMPDEST PUSH2 0x1FE PUSH2 0x1F9 CALLDATASIZE PUSH1 0x4 PUSH2 0x28C0 JUMP JUMPDEST PUSH2 0x60F JUMP JUMPDEST PUSH1 0x40 DUP1 MLOAD PUSH1 0x1 PUSH1 0x1 PUSH1 0xA0 SHL SUB SWAP1 SWAP5 AND DUP5 MSTORE PUSH1 0x20 DUP5 ADD SWAP3 SWAP1 SWAP3 MSTORE SWAP1 DUP3 ADD MSTORE PUSH1 0x60 ADD JUMPDEST PUSH1 0x40 MLOAD DUP1 SWAP2 SUB SWAP1 RETURN JUMPDEST PUSH2 0x250 PUSH2 0x236 CALLDATASIZE PUSH1 0x4 PUSH2 0x28E8 JUMP JUMPDEST PUSH1 0x5 PUSH1 0x20 MSTORE PUSH0 SWAP1 DUP2 MSTORE PUSH1 0x40 SWAP1 KECCAK256 SLOAD PUSH1 0x1 PUSH1 0x1 PUSH1 0xA0 SHL SUB AND DUP2 JUMP JUMPDEST PUSH1 0x40 MLOAD PUSH1 0x1 PUSH1 0x1 PUSH1 0xA0 SHL SUB SWAP1 SWAP2 AND DUP2 MSTORE PUSH1 0x20 ADD PUSH2 0x21F JUMP JUMPDEST PUSH2 0x27B PUSH2 0x276 CALLDATASIZE PUSH1 0x4 PUSH2 0x28FF JUMP JUMPDEST PUSH2 0x657 JUMP JUMPDEST PUSH1 0x40 MLOAD PUSH1 0xFF SWAP1 SWAP2 AND DUP2 MSTORE PUSH1 0x20 ADD PUSH2 0x21F JUMP JUMPDEST PUSH2 0x2A0 PUSH2 0x29B CALLDATASIZE PUSH1 0x4 PUSH2 0x28FF JUMP JUMPDEST PUSH2 0x6AA JUMP JUMPDEST PUSH1 0x40 MLOAD PUSH2 0x21F SWAP2 SWAP1 PUSH2 0x2959 JUMP JUMPDEST PUSH2 0x2C0 PUSH2 0x2BB CALLDATASIZE PUSH1 0x4 PUSH2 0x28E8 JUMP JUMPDEST PUSH2 0x780 JUMP JUMPDEST STOP JUMPDEST PUSH2 0x2C0 PUSH2 0x2D0 CALLDATASIZE PUSH1 0x4 PUSH2 0x28E8 JUMP JUMPDEST PUSH2 0xC2A JUMP JUMPDEST PUSH2 0x2C0 PUSH2 0x2E3 CALLDATASIZE PUSH1 0x4 PUSH2 0x28FF JUMP JUMPDEST PUSH2 0xCFC JUMP JUMPDEST PUSH2 0x2C0 PUSH2 0x2F6 CALLDATASIZE PUSH1 0x4 PUSH2 0x296B JUMP JUMPDEST PUSH2 0xF57 JUMP JUMPDEST PUSH2 0x327 PUSH2 0x309 CALLDATASIZE PUSH1 0x4 PUSH2 0x28FF JUMP JUMPDEST PUSH1 0x1 PUSH1 0x1 PUSH1 0xA0 SHL SUB AND PUSH0 SWAP1 DUP2 MSTORE PUSH1 0x3 PUSH1 0x20 DUP2 SWAP1 MSTORE PUSH1 0x40 SWAP1 SWAP2 KECCAK256 ADD SLOAD SWAP1 JUMP JUMPDEST PUSH1 0x40 MLOAD SWAP1 DUP2 MSTORE PUSH1 0x20 ADD PUSH2 0x21F JUMP JUMPDEST PUSH2 0x2C0 PUSH2 0x343 CALLDATASIZE PUSH1 0x4 PUSH2 0x29AF JUMP JUMPDEST PUSH2 0xFD3 JUMP JUMPDEST PUSH2 0x2C0 PUSH2 0x356 CALLDATASIZE PUSH1 0x4 PUSH2 0x28E8 JUMP JUMPDEST PUSH2 0x1009 JUMP JUMPDEST PUSH2 0x327 PUSH2 0x146B JUMP JUMPDEST PUSH2 0x376 PUSH2 0x371 CALLDATASIZE PUSH1 0x4 PUSH2 0x28E8 JUMP JUMPDEST PUSH2 0x14DA JUMP JUMPDEST PUSH1 0x40 DUP1 MLOAD PUSH1 0x1 PUSH1 0x1 PUSH1 0xA0 SHL SUB SWAP1 SWAP10 AND DUP10 MSTORE PUSH1 0x20 DUP10 ADD SWAP8 SWAP1 SWAP8 MSTORE SWAP6 DUP8 ADD SWAP5 SWAP1 SWAP5 MSTORE PUSH1 0x60 DUP7 ADD SWAP3 SWAP1 SWAP3 MSTORE PUSH1 0x80 DUP6 ADD MSTORE PUSH1 0xA0 DUP5 ADD MSTORE PUSH1 0xC0 DUP4 ADD MSTORE ISZERO ISZERO PUSH1 0xE0 DUP3 ADD MSTORE PUSH2 0x100 ADD PUSH2 0x21F JUMP JUMPDEST PUSH2 0x2C0 PUSH2 0x3CB CALLDATASIZE PUSH1 0x4 PUSH2 0x296B JUMP JUMPDEST PUSH2 0x1735 JUMP JUMPDEST PUSH2 0x327 PUSH2 0x3DE CALLDATASIZE PUSH1 0x4 PUSH2 0x28E8 JUMP JUMPDEST PUSH1 0x6 PUSH1 0x20 MSTORE PUSH0 SWAP1 DUP2 MSTORE PUSH1 0x40 SWAP1 KECCAK256 SLOAD DUP2 JUMP JUMPDEST PUSH0 SLOAD PUSH2 0x250 SWAP1 PUSH1 0x1 PUSH1 0x1 PUSH1 0xA0 SHL SUB AND DUP2 JUMP JUMPDEST PUSH2 0x327 PUSH2 0x40F CALLDATASIZE PUSH1 0x4 PUSH2 0x28FF JUMP JUMPDEST PUSH1 0x1 PUSH1 0x1 PUSH1 0xA0 SHL SUB AND PUSH0 SWAP1 DUP2 MSTORE PUSH1 0x4 PUSH1 0x20 MSTORE PUSH1 0x40 SWAP1 KECCAK256 SLOAD SWAP1 JUMP JUMPDEST PUSH1 0x8 SLOAD PUSH2 0x327 JUMP JUMPDEST PUSH2 0x444 PUSH2 0x43F CALLDATASIZE PUSH1 0x4 PUSH2 0x28FF JUMP JUMPDEST PUSH2 0x1EB2 JUMP JUMPDEST PUSH1 0x40 MLOAD PUSH2 0x21F SWAP4 SWAP3 SWAP2 SWAP1 PUSH2 0x2A30 JUMP JUMPDEST PUSH2 0x250 PUSH2 0x461 CALLDATASIZE PUSH1 0x4 PUSH2 0x28E8 JUMP JUMPDEST PUSH2 0x209F JUMP JUMPDEST PUSH2 0x4A9 PUSH2 0x474 CALLDATASIZE PUSH1 0x4 PUSH2 0x28FF JUMP JUMPDEST PUSH1 0x3 PUSH1 0x20 DUP2 SWAP1 MSTORE PUSH0 SWAP2 DUP3 MSTORE PUSH1 0x40 SWAP1 SWAP2 KECCAK256 DUP1 SLOAD PUSH1 0x2 DUP3 ADD SLOAD SWAP3 DUP3 ADD SLOAD PUSH1 0x4 SWAP1 SWAP3 ADD SLOAD PUSH1 0x1 PUSH1 0x1 PUSH1 0xA0 SHL SUB SWAP1 SWAP2 AND SWAP3 SWAP2 SWAP1 PUSH1 0xFF AND DUP5 JUMP JUMPDEST PUSH1 0x40 DUP1 MLOAD PUSH1 0x1 PUSH1 0x1 PUSH1 0xA0 SHL SUB SWAP1 SWAP6 AND DUP6 MSTORE PUSH1 0x20 DUP6 ADD SWAP4 SWAP1 SWAP4 MSTORE SWAP2 DUP4 ADD MSTORE ISZERO ISZERO PUSH1 0x60 DUP3 ADD MSTORE PUSH1 0x80 ADD PUSH2 0x21F JUMP JUMPDEST PUSH1 0x2 SLOAD PUSH2 0x250 SWAP1 PUSH1 0x1 PUSH1 0x1 PUSH1 0xA0 SHL SUB AND DUP2 JUMP JUMPDEST PUSH2 0x327 PUSH2 0x4F6 CALLDATASIZE PUSH1 0x4 PUSH2 0x28FF JUMP JUMPDEST PUSH1 0x1 PUSH1 0x1 PUSH1 0xA0 SHL SUB AND PUSH0 SWAP1 DUP2 MSTORE PUSH1 0x7 PUSH1 0x20 MSTORE PUSH1 0x40 SWAP1 KECCAK256 SLOAD SWAP1 JUMP JUMPDEST PUSH2 0x523 PUSH2 0x51E CALLDATASIZE PUSH1 0x4 PUSH2 0x296B JUMP JUMPDEST PUSH2 0x20C7 JUMP JUMPDEST PUSH1 0x40 DUP1 MLOAD SWAP3 DUP4 MSTORE PUSH1 0x20 DUP4 ADD SWAP2 SWAP1 SWAP2 MSTORE ADD PUSH2 0x21F JUMP JUMPDEST PUSH2 0x327 PUSH2 0x546 CALLDATASIZE PUSH1 0x4 PUSH2 0x28FF JUMP JUMPDEST PUSH1 0x1 PUSH1 0x1 PUSH1 0xA0 SHL SUB AND PUSH0 SWAP1 DUP2 MSTORE PUSH1 0x3 PUSH1 0x20 MSTORE PUSH1 0x40 SWAP1 KECCAK256 PUSH1 0x2 ADD SLOAD SWAP1 JUMP JUMPDEST PUSH2 0x591 PUSH2 0x571 CALLDATASIZE PUSH1 0x4 PUSH2 0x28FF JUMP JUMPDEST PUSH1 0x1 PUSH1 0x1 PUSH1 0xA0 SHL SUB AND PUSH0 SWAP1 DUP2 MSTORE PUSH1 0x3 PUSH1 0x20 MSTORE PUSH1 0x40 SWAP1 KECCAK256 PUSH1 0x4 ADD SLOAD PUSH1 0xFF AND SWAP1 JUMP JUMPDEST PUSH1 0x40 MLOAD SWAP1 ISZERO ISZERO DUP2 MSTORE PUSH1 0x20 ADD PUSH2 0x21F JUMP JUMPDEST PUSH2 0x2C0 PUSH2 0x5AF CALLDATASIZE PUSH1 0x4 PUSH2 0x28C0 JUMP JUMPDEST PUSH2 0x21B3 JUMP JUMPDEST PUSH2 0x27B PUSH2 0x5C2 CALLDATASIZE PUSH1 0x4 PUSH2 0x28E8 JUMP JUMPDEST PUSH2 0x2341 JUMP JUMPDEST PUSH2 0x5DA PUSH2 0x5D5 CALLDATASIZE PUSH1 0x4 PUSH2 0x28FF JUMP JUMPDEST PUSH2 0x236A JUMP JUMPDEST PUSH1 0x40 MLOAD PUSH2 0x21F SWAP2 SWAP1 PUSH2 0x2AA5 JUMP JUMPDEST PUSH2 0x327 PUSH2 0x5F5 CALLDATASIZE PUSH1 0x4 PUSH2 0x28FF JUMP JUMPDEST PUSH1 0x7 PUSH1 0x20 MSTORE PUSH0 SWAP1 DUP2 MSTORE PUSH1 0x40 SWAP1 KECCAK256 SLOAD DUP2 JUMP JUMPDEST PUSH2 0x327 PUSH1 0x1 SLOAD DUP2 JUMP JUMPDEST PUSH1 0x4 PUSH1 0x20 MSTORE DUP2 PUSH0 MSTORE PUSH1 0x40 PUSH0 KECCAK256 DUP2 DUP2 SLOAD DUP2 LT PUSH2 0x628 JUMPI PUSH0 DUP1 REVERT JUMPDEST PUSH0 SWAP2 DUP3 MSTORE PUSH1 0x20 SWAP1 SWAP2 KECCAK256 PUSH1 0x3 SWAP1 SWAP2 MUL ADD DUP1 SLOAD PUSH1 0x1 DUP3 ADD SLOAD PUSH1 0x2 SWAP1 SWAP3 ADD SLOAD PUSH1 0x1 PUSH1 0x1 PUSH1 0xA0 SHL SUB SWAP1 SWAP2 AND SWAP4 POP SWAP1 SWAP2 POP DUP4 JUMP JUMPDEST PUSH1 0x1 PUSH1 0x1 PUSH1 0xA0 SHL SUB DUP2 AND PUSH0 SWAP1 DUP2 MSTORE PUSH1 0x4 PUSH1 0x20 MSTORE PUSH1 0x40 DUP2 KECCAK256 SLOAD PUSH1 0xA DUP2 LT PUSH2 0x680 JUMPI POP PUSH1 0x3 SWAP3 SWAP2 POP POP JUMP JUMPDEST PUSH1 0x5 DUP2 LT PUSH2 0x691 JUMPI POP PUSH1 0x2 SWAP3 SWAP2 POP POP JUMP JUMPDEST PUSH1 0x1 DUP2 LT PUSH2 0x6A2 JUMPI POP PUSH1 0x1 SWAP3 SWAP2 POP POP JUMP JUMPDEST POP PUSH0 SWAP3 SWAP2 POP POP JUMP JUMPDEST PUSH1 0x1 PUSH1 0x1 PUSH1 0xA0 SHL SUB DUP2 AND PUSH0 SWAP1 DUP2 MSTORE PUSH1 0x3 PUSH1 0x20 MSTORE PUSH1 0x40 DUP2 KECCAK256 PUSH1 0x1 ADD SLOAD PUSH1 0x60 SWAP2 DUP2 PUSH8 0xFFFFFFFFFFFFFFFF DUP2 GT ISZERO PUSH2 0x6E1 JUMPI PUSH2 0x6E1 PUSH2 0x298B JUMP JUMPDEST PUSH1 0x40 MLOAD SWAP1 DUP1 DUP3 MSTORE DUP1 PUSH1 0x20 MUL PUSH1 0x20 ADD DUP3 ADD PUSH1 0x40 MSTORE DUP1 ISZERO PUSH2 0x70A JUMPI DUP2 PUSH1 0x20 ADD PUSH1 0x20 DUP3 MUL DUP1 CALLDATASIZE DUP4 CALLDATACOPY ADD SWAP1 POP JUMPDEST POP SWAP1 POP PUSH0 JUMPDEST DUP3 DUP2 LT ISZERO PUSH2 0x778 JUMPI PUSH1 0x1 PUSH1 0x1 PUSH1 0xA0 SHL SUB DUP6 AND PUSH0 SWAP1 DUP2 MSTORE PUSH1 0x3 PUSH1 0x20 MSTORE PUSH1 0x40 SWAP1 KECCAK256 PUSH1 0x1 ADD DUP1 SLOAD DUP3 SWAP1 DUP2 LT PUSH2 0x743 JUMPI PUSH2 0x743 PUSH2 0x2B3E JUMP JUMPDEST SWAP1 PUSH0 MSTORE PUSH1 0x20 PUSH0 KECCAK256 SWAP1 PUSH1 0x6 MUL ADD PUSH1 0x1 ADD SLOAD DUP3 DUP3 DUP2 MLOAD DUP2 LT PUSH2 0x765 JUMPI PUSH2 0x765 PUSH2 0x2B3E JUMP JUMPDEST PUSH1 0x20 SWAP1 DUP2 MUL SWAP2 SWAP1 SWAP2 ADD ADD MSTORE PUSH1 0x1 ADD PUSH2 0x70F JUMP JUMPDEST POP SWAP4 SWAP3 POP POP POP JUMP JUMPDEST CALLER PUSH0 SWAP1 DUP2 MSTORE PUSH1 0x3 PUSH1 0x20 MSTORE PUSH1 0x40 SWAP1 KECCAK256 PUSH1 0x4 ADD SLOAD PUSH1 0xFF AND PUSH2 0x7BA JUMPI PUSH1 0x40 MLOAD PUSH3 0x461BCD PUSH1 0xE5 SHL DUP2 MSTORE PUSH1 0x4 ADD PUSH2 0x7B1 SWAP1 PUSH2 0x2B52 JUMP JUMPDEST PUSH1 0x40 MLOAD DUP1 SWAP2 SUB SWAP1 REVERT JUMPDEST CALLER PUSH0 DUP2 DUP2 MSTORE PUSH1 0x3 PUSH1 0x20 MSTORE PUSH1 0x40 DUP2 KECCAK256 SWAP1 PUSH1 0x1 DUP3 ADD SWAP1 DUP1 JUMPDEST DUP3 SLOAD DUP2 LT ISZERO PUSH2 0xBCA JUMPI DUP6 DUP4 DUP3 DUP2 SLOAD DUP2 LT PUSH2 0x7EC JUMPI PUSH2 0x7EC PUSH2 0x2B3E JUMP JUMPDEST SWAP1 PUSH0 MSTORE PUSH1 0x20 PUSH0 KECCAK256 SWAP1 PUSH1 0x6 MUL ADD PUSH1 0x1 ADD SLOAD EQ DUP1 ISZERO PUSH2 0x82E JUMPI POP DUP3 DUP2 DUP2 SLOAD DUP2 LT PUSH2 0x816 JUMPI PUSH2 0x816 PUSH2 0x2B3E JUMP JUMPDEST PUSH0 SWAP2 DUP3 MSTORE PUSH1 0x20 SWAP1 SWAP2 KECCAK256 PUSH1 0x5 PUSH1 0x6 SWAP1 SWAP3 MUL ADD ADD SLOAD PUSH1 0xFF AND ISZERO JUMPDEST ISZERO PUSH2 0xBC2 JUMPI DUP3 DUP2 DUP2 SLOAD DUP2 LT PUSH2 0x845 JUMPI PUSH2 0x845 PUSH2 0x2B3E JUMP JUMPDEST SWAP1 PUSH0 MSTORE PUSH1 0x20 PUSH0 KECCAK256 SWAP1 PUSH1 0x6 MUL ADD PUSH1 0x4 ADD SLOAD PUSH3 0x15180 PUSH2 0x863 SWAP2 SWAP1 PUSH2 0x2B8E JUMP JUMPDEST DUP4 DUP3 DUP2 SLOAD DUP2 LT PUSH2 0x875 JUMPI PUSH2 0x875 PUSH2 0x2B3E JUMP JUMPDEST SWAP1 PUSH0 MSTORE PUSH1 0x20 PUSH0 KECCAK256 SWAP1 PUSH1 0x6 MUL ADD PUSH1 0x3 ADD SLOAD PUSH2 0x88F SWAP2 SWAP1 PUSH2 0x2BAB JUMP JUMPDEST TIMESTAMP LT ISZERO PUSH2 0x8DE JUMPI PUSH1 0x40 MLOAD PUSH3 0x461BCD PUSH1 0xE5 SHL DUP2 MSTORE PUSH1 0x20 PUSH1 0x4 DUP3 ADD DUP2 SWAP1 MSTORE PUSH1 0x24 DUP3 ADD MSTORE PUSH32 0x5374616B696E6720706572696F64206E6F742079657420636F6D706C65746564 PUSH1 0x44 DUP3 ADD MSTORE PUSH1 0x64 ADD PUSH2 0x7B1 JUMP JUMPDEST PUSH0 PUSH1 0x6 PUSH0 DUP6 DUP5 DUP2 SLOAD DUP2 LT PUSH2 0x8F4 JUMPI PUSH2 0x8F4 PUSH2 0x2B3E JUMP JUMPDEST SWAP1 PUSH0 MSTORE PUSH1 0x20 PUSH0 KECCAK256 SWAP1 PUSH1 0x6 MUL ADD PUSH1 0x4 ADD SLOAD DUP2 MSTORE PUSH1 0x20 ADD SWAP1 DUP2 MSTORE PUSH1 0x20 ADD PUSH0 KECCAK256 SLOAD SWAP1 POP PUSH0 PUSH2 0x8E94 DUP6 DUP5 DUP2 SLOAD DUP2 LT PUSH2 0x92A JUMPI PUSH2 0x92A PUSH2 0x2B3E JUMP JUMPDEST SWAP1 PUSH0 MSTORE PUSH1 0x20 PUSH0 KECCAK256 SWAP1 PUSH1 0x6 MUL ADD PUSH1 0x4 ADD SLOAD DUP4 DUP8 DUP7 DUP2 SLOAD DUP2 LT PUSH2 0x94D JUMPI PUSH2 0x94D PUSH2 0x2B3E JUMP JUMPDEST SWAP1 PUSH0 MSTORE PUSH1 0x20 PUSH0 KECCAK256 SWAP1 PUSH1 0x6 MUL ADD PUSH1 0x2 ADD SLOAD PUSH2 0x967 SWAP2 SWAP1 PUSH2 0x2B8E JUMP JUMPDEST PUSH2 0x971 SWAP2 SWAP1 PUSH2 0x2B8E JUMP JUMPDEST PUSH2 0x97B SWAP2 SWAP1 PUSH2 0x2BBE JUMP JUMPDEST SWAP1 POP PUSH0 DUP2 DUP7 DUP6 DUP2 SLOAD DUP2 LT PUSH2 0x991 JUMPI PUSH2 0x991 PUSH2 0x2B3E JUMP JUMPDEST SWAP1 PUSH0 MSTORE PUSH1 0x20 PUSH0 KECCAK256 SWAP1 PUSH1 0x6 MUL ADD PUSH1 0x2 ADD SLOAD PUSH2 0x9AB SWAP2 SWAP1 PUSH2 0x2BAB JUMP JUMPDEST PUSH1 0x2 SLOAD PUSH1 0x40 MLOAD PUSH4 0x70A08231 PUSH1 0xE0 SHL DUP2 MSTORE ADDRESS PUSH1 0x4 DUP3 ADD MSTORE SWAP2 SWAP3 POP DUP3 SWAP2 PUSH1 0x1 PUSH1 0x1 PUSH1 0xA0 SHL SUB SWAP1 SWAP2 AND SWAP1 PUSH4 0x70A08231 SWAP1 PUSH1 0x24 ADD PUSH1 0x20 PUSH1 0x40 MLOAD DUP1 DUP4 SUB DUP2 DUP7 GAS STATICCALL ISZERO DUP1 ISZERO PUSH2 0x9F6 JUMPI RETURNDATASIZE PUSH0 PUSH0 RETURNDATACOPY RETURNDATASIZE PUSH0 REVERT JUMPDEST POP POP POP POP PUSH1 0x40 MLOAD RETURNDATASIZE PUSH1 0x1F NOT PUSH1 0x1F DUP3 ADD AND DUP3 ADD DUP1 PUSH1 0x40 MSTORE POP DUP2 ADD SWAP1 PUSH2 0xA1A SWAP2 SWAP1 PUSH2 0x2BDD JUMP JUMPDEST LT ISZERO PUSH2 0xA38 JUMPI PUSH1 0x40 MLOAD PUSH3 0x461BCD PUSH1 0xE5 SHL DUP2 MSTORE PUSH1 0x4 ADD PUSH2 0x7B1 SWAP1 PUSH2 0x2BF4 JUMP JUMPDEST PUSH1 0x1 DUP7 DUP6 DUP2 SLOAD DUP2 LT PUSH2 0xA4C JUMPI PUSH2 0xA4C PUSH2 0x2B3E JUMP JUMPDEST PUSH0 SWAP2 DUP3 MSTORE PUSH1 0x20 DUP3 KECCAK256 PUSH1 0x6 SWAP2 SWAP1 SWAP2 MUL ADD PUSH1 0x5 ADD DUP1 SLOAD PUSH1 0xFF NOT AND SWAP3 ISZERO ISZERO SWAP3 SWAP1 SWAP3 OR SWAP1 SWAP2 SSTORE PUSH1 0x2 SLOAD PUSH1 0x40 MLOAD PUSH4 0xA9059CBB PUSH1 0xE0 SHL DUP2 MSTORE PUSH1 0x1 PUSH1 0x1 PUSH1 0xA0 SHL SUB DUP12 DUP2 AND PUSH1 0x4 DUP4 ADD MSTORE PUSH1 0x24 DUP3 ADD DUP6 SWAP1 MSTORE SWAP1 SWAP2 AND SWAP1 PUSH4 0xA9059CBB SWAP1 PUSH1 0x44 ADD PUSH1 0x20 PUSH1 0x40 MLOAD DUP1 DUP4 SUB DUP2 PUSH0 DUP8 GAS CALL ISZERO DUP1 ISZERO PUSH2 0xABE JUMPI RETURNDATASIZE PUSH0 PUSH0 RETURNDATACOPY RETURNDATASIZE PUSH0 REVERT JUMPDEST POP POP POP POP PUSH1 0x40 MLOAD RETURNDATASIZE PUSH1 0x1F NOT PUSH1 0x1F DUP3 ADD AND DUP3 ADD DUP1 PUSH1 0x40 MSTORE POP DUP2 ADD SWAP1 PUSH2 0xAE2 SWAP2 SWAP1 PUSH2 0x2C2B JUMP JUMPDEST SWAP1 POP DUP1 PUSH2 0xB28 JUMPI PUSH1 0x40 MLOAD PUSH3 0x461BCD PUSH1 0xE5 SHL DUP2 MSTORE PUSH1 0x20 PUSH1 0x4 DUP3 ADD MSTORE PUSH1 0x14 PUSH1 0x24 DUP3 ADD MSTORE PUSH20 0x1554D115081D1C985B9CD9995C8819985A5B1959 PUSH1 0x62 SHL PUSH1 0x44 DUP3 ADD MSTORE PUSH1 0x64 ADD PUSH2 0x7B1 JUMP JUMPDEST DUP9 PUSH1 0x1 PUSH1 0x1 PUSH1 0xA0 SHL SUB AND PUSH32 0x9CDCF2F7714CCA3508C7F0110B04A90A80A3A8DD0E35DE99689DB74D28C5383E DUP9 DUP8 DUP2 SLOAD DUP2 LT PUSH2 0xB65 JUMPI PUSH2 0xB65 PUSH2 0x2B3E JUMP JUMPDEST SWAP1 PUSH0 MSTORE PUSH1 0x20 PUSH0 KECCAK256 SWAP1 PUSH1 0x6 MUL ADD PUSH0 ADD SLOAD DUP10 DUP9 DUP2 SLOAD DUP2 LT PUSH2 0xB86 JUMPI PUSH2 0xB86 PUSH2 0x2B3E JUMP JUMPDEST PUSH0 SWAP2 DUP3 MSTORE PUSH1 0x20 SWAP2 DUP3 SWAP1 KECCAK256 PUSH1 0x2 PUSH1 0x6 SWAP1 SWAP3 MUL ADD ADD SLOAD PUSH1 0x40 DUP1 MLOAD SWAP4 DUP5 MSTORE SWAP2 DUP4 ADD MSTORE DUP2 ADD DUP7 SWAP1 MSTORE PUSH1 0x60 ADD PUSH1 0x40 MLOAD DUP1 SWAP2 SUB SWAP1 LOG2 PUSH1 0x1 SWAP6 POP POP POP POP POP PUSH2 0xBCA JUMP JUMPDEST PUSH1 0x1 ADD PUSH2 0x7D0 JUMP JUMPDEST POP DUP1 PUSH2 0xC23 JUMPI PUSH1 0x40 MLOAD PUSH3 0x461BCD PUSH1 0xE5 SHL DUP2 MSTORE PUSH1 0x20 PUSH1 0x4 DUP3 ADD MSTORE PUSH1 0x22 PUSH1 0x24 DUP3 ADD MSTORE PUSH32 0x5374616B65206E6F7420666F756E64206F7220616C726561647920636C61696D PUSH1 0x44 DUP3 ADD MSTORE PUSH2 0x1959 PUSH1 0xF2 SHL PUSH1 0x64 DUP3 ADD MSTORE PUSH1 0x84 ADD PUSH2 0x7B1 JUMP JUMPDEST POP POP POP POP POP JUMP JUMPDEST PUSH0 SLOAD PUSH1 0x1 PUSH1 0x1 PUSH1 0xA0 SHL SUB AND CALLER EQ PUSH2 0xC83 JUMPI PUSH1 0x40 MLOAD PUSH3 0x461BCD PUSH1 0xE5 SHL DUP2 MSTORE PUSH1 0x20 PUSH1 0x4 DUP3 ADD MSTORE PUSH1 0x17 PUSH1 0x24 DUP3 ADD MSTORE PUSH32 0x4F6E6C79206F776E65722063616E207769746864726177000000000000000000 PUSH1 0x44 DUP3 ADD MSTORE PUSH1 0x64 ADD PUSH2 0x7B1 JUMP JUMPDEST PUSH1 0x2 SLOAD PUSH0 SLOAD PUSH1 0x40 MLOAD PUSH4 0xA9059CBB PUSH1 0xE0 SHL DUP2 MSTORE PUSH1 0x1 PUSH1 0x1 PUSH1 0xA0 SHL SUB SWAP2 DUP3 AND PUSH1 0x4 DUP3 ADD MSTORE PUSH1 0x24 DUP2 ADD DUP5 SWAP1 MSTORE SWAP2 AND SWAP1 PUSH4 0xA9059CBB SWAP1 PUSH1 0x44 ADD PUSH1 0x20 PUSH1 0x40 MLOAD DUP1 DUP4 SUB DUP2 PUSH0 DUP8 GAS CALL ISZERO DUP1 ISZERO PUSH2 0xCD4 JUMPI RETURNDATASIZE PUSH0 PUSH0 RETURNDATACOPY RETURNDATASIZE PUSH0 REVERT JUMPDEST POP POP POP POP PUSH1 0x40 MLOAD RETURNDATASIZE PUSH1 0x1F NOT PUSH1 0x1F DUP3 ADD AND DUP3 ADD DUP1 PUSH1 0x40 MSTORE POP DUP2 ADD SWAP1 PUSH2 0xCF8 SWAP2 SWAP1 PUSH2 0x2C2B JUMP JUMPDEST POP POP JUMP JUMPDEST CALLER PUSH0 SWAP1 DUP2 MSTORE PUSH1 0x3 PUSH1 0x20 MSTORE PUSH1 0x40 SWAP1 KECCAK256 PUSH1 0x4 ADD SLOAD PUSH1 0xFF AND ISZERO PUSH2 0xD53 JUMPI PUSH1 0x40 MLOAD PUSH3 0x461BCD PUSH1 0xE5 SHL DUP2 MSTORE PUSH1 0x20 PUSH1 0x4 DUP3 ADD MSTORE PUSH1 0x12 PUSH1 0x24 DUP3 ADD MSTORE PUSH18 0x105B1C9958591E481C9959DA5CDD195C9959 PUSH1 0x72 SHL PUSH1 0x44 DUP3 ADD MSTORE PUSH1 0x64 ADD PUSH2 0x7B1 JUMP JUMPDEST CALLER PUSH1 0x1 PUSH1 0x1 PUSH1 0xA0 SHL SUB DUP3 AND SUB PUSH2 0xDA3 JUMPI PUSH1 0x40 MLOAD PUSH3 0x461BCD PUSH1 0xE5 SHL DUP2 MSTORE PUSH1 0x20 PUSH1 0x4 DUP3 ADD MSTORE PUSH1 0x15 PUSH1 0x24 DUP3 ADD MSTORE PUSH21 0x21B0B73737BA103932B332B9103CB7BAB939B2B633 PUSH1 0x59 SHL PUSH1 0x44 DUP3 ADD MSTORE PUSH1 0x64 ADD PUSH2 0x7B1 JUMP JUMPDEST PUSH1 0x1 PUSH1 0x1 PUSH1 0xA0 SHL SUB DUP2 AND PUSH0 SWAP1 DUP2 MSTORE PUSH1 0x3 PUSH1 0x20 MSTORE PUSH1 0x40 SWAP1 KECCAK256 PUSH1 0x4 ADD SLOAD PUSH1 0xFF AND PUSH2 0xE0D JUMPI PUSH1 0x40 MLOAD PUSH3 0x461BCD PUSH1 0xE5 SHL DUP2 MSTORE PUSH1 0x20 PUSH1 0x4 DUP3 ADD MSTORE PUSH1 0x17 PUSH1 0x24 DUP3 ADD MSTORE PUSH32 0x5265666572726572206E6F742072656769737465726564000000000000000000 PUSH1 0x44 DUP3 ADD MSTORE PUSH1 0x64 ADD PUSH2 0x7B1 JUMP JUMPDEST PUSH1 0x1 PUSH1 0x1 PUSH1 0xA0 SHL SUB DUP2 AND PUSH0 SWAP1 DUP2 MSTORE PUSH1 0x3 PUSH1 0x20 MSTORE PUSH1 0x40 SWAP1 KECCAK256 PUSH1 0x1 ADD SLOAD PUSH2 0xE88 JUMPI PUSH1 0x40 MLOAD PUSH3 0x461BCD PUSH1 0xE5 SHL DUP2 MSTORE PUSH1 0x20 PUSH1 0x4 DUP3 ADD MSTORE PUSH1 0x2B PUSH1 0x24 DUP3 ADD MSTORE PUSH32 0x5265666572726572206D757374207374616B65206265666F726520796F752063 PUSH1 0x44 DUP3 ADD MSTORE PUSH11 0x30B7103932B3B4B9BA32B9 PUSH1 0xA9 SHL PUSH1 0x64 DUP3 ADD MSTORE PUSH1 0x84 ADD PUSH2 0x7B1 JUMP JUMPDEST CALLER PUSH0 DUP2 DUP2 MSTORE PUSH1 0x3 PUSH1 0x20 DUP2 DUP2 MSTORE PUSH1 0x40 DUP1 DUP5 KECCAK256 DUP1 SLOAD PUSH1 0x1 PUSH1 0x1 PUSH1 0xA0 SHL SUB SWAP8 DUP9 AND PUSH1 0x1 PUSH1 0x1 PUSH1 0xA0 SHL SUB NOT SWAP2 DUP3 AND DUP2 OR DUP4 SSTORE PUSH1 0x4 SWAP3 DUP4 ADD DUP1 SLOAD PUSH1 0xFF NOT AND PUSH1 0x1 SWAP1 DUP2 OR SWAP1 SWAP2 SSTORE PUSH1 0x8 DUP1 SLOAD DUP1 DUP4 ADD SWAP1 SWAP2 SSTORE PUSH32 0xF3F7A9FE364FAAB93B216DA50A3214154F22A0A2B415B23A84C8169E8B636EE3 ADD DUP1 SLOAD DUP5 AND DUP11 OR SWAP1 SSTORE SWAP1 DUP8 MSTORE SWAP2 DUP5 MSTORE DUP3 DUP7 KECCAK256 DUP4 MLOAD PUSH1 0x60 DUP2 ADD DUP6 MSTORE SWAP8 DUP9 MSTORE DUP8 DUP6 ADD DUP8 DUP2 MSTORE TIMESTAMP SWAP5 DUP10 ADD SWAP5 DUP6 MSTORE DUP2 SLOAD DUP1 DUP6 ADD DUP4 SSTORE SWAP2 DUP9 MSTORE SWAP5 SWAP1 SWAP7 KECCAK256 SWAP7 MLOAD SWAP6 SWAP1 SWAP5 MUL SWAP1 SWAP6 ADD DUP1 SLOAD SWAP5 SWAP1 SWAP7 AND SWAP4 SWAP1 SWAP3 AND SWAP3 SWAP1 SWAP3 OR DUP5 SSTORE SWAP1 MLOAD SWAP2 DUP4 ADD SWAP2 SWAP1 SWAP2 SSTORE MLOAD PUSH1 0x2 SWAP1 SWAP2 ADD SSTORE JUMP JUMPDEST PUSH0 SLOAD PUSH1 0x1 PUSH1 0x1 PUSH1 0xA0 SHL SUB AND CALLER EQ PUSH2 0xF80 JUMPI PUSH1 0x40 MLOAD PUSH3 0x461BCD PUSH1 0xE5 SHL DUP2 MSTORE PUSH1 0x4 ADD PUSH2 0x7B1 SWAP1 PUSH2 0x2C4A JUMP JUMPDEST PUSH0 DUP3 GT PUSH2 0xFC2 JUMPI PUSH1 0x40 MLOAD PUSH3 0x461BCD PUSH1 0xE5 SHL DUP2 MSTORE PUSH1 0x20 PUSH1 0x4 DUP3 ADD MSTORE PUSH1 0x10 PUSH1 0x24 DUP3 ADD MSTORE PUSH16 0x44617973206D757374206265203E203 PUSH1 0x84 SHL PUSH1 0x44 DUP3 ADD MSTORE PUSH1 0x64 ADD PUSH2 0x7B1 JUMP JUMPDEST PUSH0 SWAP2 DUP3 MSTORE PUSH1 0x6 PUSH1 0x20 MSTORE PUSH1 0x40 SWAP1 SWAP2 KECCAK256 SSTORE JUMP JUMPDEST PUSH0 SLOAD PUSH1 0x1 PUSH1 0x1 PUSH1 0xA0 SHL SUB AND CALLER EQ PUSH2 0xFFC JUMPI PUSH1 0x40 MLOAD PUSH3 0x461BCD PUSH1 0xE5 SHL DUP2 MSTORE PUSH1 0x4 ADD PUSH2 0x7B1 SWAP1 PUSH2 0x2C4A JUMP JUMPDEST PUSH2 0xCF8 PUSH1 0x9 DUP3 PUSH1 0x5 PUSH2 0x2801 JUMP JUMPDEST CALLER PUSH0 SWAP1 DUP2 MSTORE PUSH1 0x3 PUSH1 0x20 MSTORE PUSH1 0x40 SWAP1 KECCAK256 PUSH1 0x4 ADD SLOAD PUSH1 0xFF AND PUSH2 0x103A JUMPI PUSH1 0x40 MLOAD PUSH3 0x461BCD PUSH1 0xE5 SHL DUP2 MSTORE PUSH1 0x4 ADD PUSH2 0x7B1 SWAP1 PUSH2 0x2B52 JUMP JUMPDEST CALLER PUSH0 DUP2 DUP2 MSTORE PUSH1 0x3 PUSH1 0x20 MSTORE PUSH1 0x40 DUP2 KECCAK256 SWAP1 PUSH1 0x1 DUP3 ADD SWAP1 DUP1 JUMPDEST DUP3 SLOAD DUP2 LT ISZERO PUSH2 0xBCA JUMPI DUP6 DUP4 DUP3 DUP2 SLOAD DUP2 LT PUSH2 0x106C JUMPI PUSH2 0x106C PUSH2 0x2B3E JUMP JUMPDEST SWAP1 PUSH0 MSTORE PUSH1 0x20 PUSH0 KECCAK256 SWAP1 PUSH1 0x6 MUL ADD PUSH1 0x1 ADD SLOAD EQ DUP1 ISZERO PUSH2 0x10AE JUMPI POP DUP3 DUP2 DUP2 SLOAD DUP2 LT PUSH2 0x1096 JUMPI PUSH2 0x1096 PUSH2 0x2B3E JUMP JUMPDEST PUSH0 SWAP2 DUP3 MSTORE PUSH1 0x20 SWAP1 SWAP2 KECCAK256 PUSH1 0x5 PUSH1 0x6 SWAP1 SWAP3 MUL ADD ADD SLOAD PUSH1 0xFF AND ISZERO JUMPDEST ISZERO PUSH2 0x1463 JUMPI DUP3 DUP2 DUP2 SLOAD DUP2 LT PUSH2 0x10C5 JUMPI PUSH2 0x10C5 PUSH2 0x2B3E JUMP JUMPDEST SWAP1 PUSH0 MSTORE PUSH1 0x20 PUSH0 KECCAK256 SWAP1 PUSH1 0x6 MUL ADD PUSH1 0x3 ADD SLOAD PUSH3 0xD2F00 PUSH2 0x10E3 SWAP2 SWAP1 PUSH2 0x2BAB JUMP JUMPDEST TIMESTAMP LT ISZERO PUSH2 0x1145 JUMPI PUSH1 0x40 MLOAD PUSH3 0x461BCD PUSH1 0xE5 SHL DUP2 MSTORE PUSH1 0x20 PUSH1 0x4 DUP3 ADD MSTORE PUSH1 0x2A PUSH1 0x24 DUP3 ADD MSTORE PUSH32 0x456D657267656E637920636C61696D20616C6C6F776564206F6E6C7920616674 PUSH1 0x44 DUP3 ADD MSTORE PUSH10 0x65722031302064617973 PUSH1 0xB0 SHL PUSH1 0x64 DUP3 ADD MSTORE PUSH1 0x84 ADD PUSH2 0x7B1 JUMP JUMPDEST PUSH0 DUP4 DUP3 DUP2 SLOAD DUP2 LT PUSH2 0x1158 JUMPI PUSH2 0x1158 PUSH2 0x2B3E JUMP JUMPDEST PUSH0 SWAP2 DUP3 MSTORE PUSH1 0x20 DUP3 KECCAK256 PUSH1 0x2 PUSH1 0x6 SWAP1 SWAP3 MUL ADD ADD SLOAD SWAP2 POP PUSH1 0x64 PUSH2 0x1179 DUP4 PUSH1 0x5 PUSH2 0x2B8E JUMP JUMPDEST PUSH2 0x1183 SWAP2 SWAP1 PUSH2 0x2BBE JUMP JUMPDEST SWAP1 POP PUSH0 PUSH2 0x1190 DUP3 DUP5 PUSH2 0x2C81 JUMP JUMPDEST PUSH1 0x2 SLOAD PUSH1 0x40 MLOAD PUSH4 0x70A08231 PUSH1 0xE0 SHL DUP2 MSTORE ADDRESS PUSH1 0x4 DUP3 ADD MSTORE SWAP2 SWAP3 POP DUP5 SWAP2 PUSH1 0x1 PUSH1 0x1 PUSH1 0xA0 SHL SUB SWAP1 SWAP2 AND SWAP1 PUSH4 0x70A08231 SWAP1 PUSH1 0x24 ADD PUSH1 0x20 PUSH1 0x40 MLOAD DUP1 DUP4 SUB DUP2 DUP7 GAS STATICCALL ISZERO DUP1 ISZERO PUSH2 0x11DB JUMPI RETURNDATASIZE PUSH0 PUSH0 RETURNDATACOPY RETURNDATASIZE PUSH0 REVERT JUMPDEST POP POP POP POP PUSH1 0x40 MLOAD RETURNDATASIZE PUSH1 0x1F NOT PUSH1 0x1F DUP3 ADD AND DUP3 ADD DUP1 PUSH1 0x40 MSTORE POP DUP2 ADD SWAP1 PUSH2 0x11FF SWAP2 SWAP1 PUSH2 0x2BDD JUMP JUMPDEST LT ISZERO PUSH2 0x121D JUMPI PUSH1 0x40 MLOAD PUSH3 0x461BCD PUSH1 0xE5 SHL DUP2 MSTORE PUSH1 0x4 ADD PUSH2 0x7B1 SWAP1 PUSH2 0x2BF4 JUMP JUMPDEST PUSH1 0x1 DUP7 DUP6 DUP2 SLOAD DUP2 LT PUSH2 0x1231 JUMPI PUSH2 0x1231 PUSH2 0x2B3E JUMP JUMPDEST PUSH0 SWAP2 DUP3 MSTORE PUSH1 0x20 DUP3 KECCAK256 PUSH1 0x6 SWAP2 SWAP1 SWAP2 MUL ADD PUSH1 0x5 ADD DUP1 SLOAD PUSH1 0xFF NOT AND SWAP3 ISZERO ISZERO SWAP3 SWAP1 SWAP3 OR SWAP1 SWAP2 SSTORE PUSH1 0x2 SLOAD PUSH1 0x40 MLOAD PUSH4 0xA9059CBB PUSH1 0xE0 SHL DUP2 MSTORE PUSH1 0x1 PUSH1 0x1 PUSH1 0xA0 SHL SUB DUP12 DUP2 AND PUSH1 0x4 DUP4 ADD MSTORE PUSH1 0x24 DUP3 ADD DUP6 SWAP1 MSTORE SWAP1 SWAP2 AND SWAP1 PUSH4 0xA9059CBB SWAP1 PUSH1 0x44 ADD PUSH1 0x20 PUSH1 0x40 MLOAD DUP1 DUP4 SUB DUP2 PUSH0 DUP8 GAS CALL ISZERO DUP1 ISZERO PUSH2 0x12A3 JUMPI RETURNDATASIZE PUSH0 PUSH0 RETURNDATACOPY RETURNDATASIZE PUSH0 REVERT JUMPDEST POP POP POP POP PUSH1 0x40 MLOAD RETURNDATASIZE PUSH1 0x1F NOT PUSH1 0x1F DUP3 ADD AND DUP3 ADD DUP1 PUSH1 0x40 MSTORE POP DUP2 ADD SWAP1 PUSH2 0x12C7 SWAP2 SWAP1 PUSH2 0x2C2B JUMP JUMPDEST SWAP1 POP DUP1 PUSH2 0x130D JUMPI PUSH1 0x40 MLOAD PUSH3 0x461BCD PUSH1 0xE5 SHL DUP2 MSTORE PUSH1 0x20 PUSH1 0x4 DUP3 ADD MSTORE PUSH1 0x14 PUSH1 0x24 DUP3 ADD MSTORE PUSH20 0x155CD95C881D1C985B9CD9995C8819985A5B1959 PUSH1 0x62 SHL PUSH1 0x44 DUP3 ADD MSTORE PUSH1 0x64 ADD PUSH2 0x7B1 JUMP JUMPDEST PUSH1 0x2 SLOAD PUSH1 0x40 MLOAD PUSH4 0xA9059CBB PUSH1 0xE0 SHL DUP2 MSTORE PUSH20 0x9AB49A6105A768ED88B8AFD9CCA7F6886F739AAD PUSH1 0x4 DUP3 ADD MSTORE PUSH1 0x24 DUP2 ADD DUP6 SWAP1 MSTORE PUSH0 SWAP2 PUSH1 0x1 PUSH1 0x1 PUSH1 0xA0 SHL SUB AND SWAP1 PUSH4 0xA9059CBB SWAP1 PUSH1 0x44 ADD PUSH1 0x20 PUSH1 0x40 MLOAD DUP1 DUP4 SUB DUP2 PUSH0 DUP8 GAS CALL ISZERO DUP1 ISZERO PUSH2 0x136F JUMPI RETURNDATASIZE PUSH0 PUSH0 RETURNDATACOPY RETURNDATASIZE PUSH0 REVERT JUMPDEST POP POP POP POP PUSH1 0x40 MLOAD RETURNDATASIZE PUSH1 0x1F NOT PUSH1 0x1F DUP3 ADD AND DUP3 ADD DUP1 PUSH1 0x40 MSTORE POP DUP2 ADD SWAP1 PUSH2 0x1393 SWAP2 SWAP1 PUSH2 0x2C2B JUMP JUMPDEST SWAP1 POP DUP1 PUSH2 0x13E2 JUMPI PUSH1 0x40 MLOAD PUSH3 0x461BCD PUSH1 0xE5 SHL DUP2 MSTORE PUSH1 0x20 PUSH1 0x4 DUP3 ADD MSTORE PUSH1 0x19 PUSH1 0x24 DUP3 ADD MSTORE PUSH32 0x41646D696E20666565207472616E73666572206661696C656400000000000000 PUSH1 0x44 DUP3 ADD MSTORE PUSH1 0x64 ADD PUSH2 0x7B1 JUMP JUMPDEST DUP10 PUSH1 0x1 PUSH1 0x1 PUSH1 0xA0 SHL SUB AND PUSH32 0x9CDCF2F7714CCA3508C7F0110B04A90A80A3A8DD0E35DE99689DB74D28C5383E DUP10 DUP9 DUP2 SLOAD DUP2 LT PUSH2 0x141F JUMPI PUSH2 0x141F PUSH2 0x2B3E JUMP JUMPDEST PUSH0 SWAP2 DUP3 MSTORE PUSH1 0x20 DUP3 KECCAK256 PUSH1 0x6 SWAP1 SWAP2 MUL ADD SLOAD PUSH1 0x40 MLOAD PUSH2 0x144D SWAP3 DUP9 SWAP2 SWAP3 DUP4 MSTORE PUSH1 0x20 DUP4 ADD SWAP2 SWAP1 SWAP2 MSTORE PUSH1 0x40 DUP3 ADD MSTORE PUSH1 0x60 ADD SWAP1 JUMP JUMPDEST PUSH1 0x40 MLOAD DUP1 SWAP2 SUB SWAP1 LOG2 PUSH1 0x1 SWAP7 POP POP POP POP POP POP PUSH2 0xBCA JUMP JUMPDEST PUSH1 0x1 ADD PUSH2 0x1050 JUMP JUMPDEST PUSH1 0x2 SLOAD PUSH1 0x40 MLOAD PUSH4 0x70A08231 PUSH1 0xE0 SHL DUP2 MSTORE ADDRESS PUSH1 0x4 DUP3 ADD MSTORE PUSH0 SWAP2 PUSH1 0x1 PUSH1 0x1 PUSH1 0xA0 SHL SUB AND SWAP1 PUSH4 0x70A08231 SWAP1 PUSH1 0x24 ADD PUSH1 0x20 PUSH1 0x40 MLOAD DUP1 DUP4 SUB DUP2 DUP7 GAS STATICCALL ISZERO DUP1 ISZERO PUSH2 0x14B1 JUMPI RETURNDATASIZE PUSH0 PUSH0 RETURNDATACOPY RETURNDATASIZE PUSH0 REVERT JUMPDEST POP POP POP POP PUSH1 0x40 MLOAD RETURNDATASIZE PUSH1 0x1F NOT PUSH1 0x1F DUP3 ADD AND DUP3 ADD DUP1 PUSH1 0x40 MSTORE POP DUP2 ADD SWAP1 PUSH2 0x14D5 SWAP2 SWAP1 PUSH2 0x2BDD JUMP JUMPDEST SWAP1 POP SWAP1 JUMP JUMPDEST PUSH0 DUP2 DUP2 MSTORE PUSH1 0x5 PUSH1 0x20 MSTORE PUSH1 0x40 DUP2 KECCAK256 SLOAD DUP2 SWAP1 DUP2 SWAP1 DUP2 SWAP1 DUP2 SWAP1 DUP2 SWAP1 DUP2 SWAP1 DUP2 SWAP1 PUSH1 0x1 PUSH1 0x1 PUSH1 0xA0 SHL SUB AND DUP1 PUSH2 0x1541 JUMPI PUSH1 0x40 MLOAD PUSH3 0x461BCD PUSH1 0xE5 SHL DUP2 MSTORE PUSH1 0x20 PUSH1 0x4 DUP3 ADD MSTORE PUSH1 0x12 PUSH1 0x24 DUP3 ADD MSTORE PUSH18 0x125B9D985B1A59081C1BDCDA5D1A5BDB9259 PUSH1 0x72 SHL PUSH1 0x44 DUP3 ADD MSTORE PUSH1 0x64 ADD PUSH2 0x7B1 JUMP JUMPDEST PUSH1 0x1 PUSH1 0x1 PUSH1 0xA0 SHL SUB DUP2 AND PUSH0 SWAP1 DUP2 MSTORE PUSH1 0x3 PUSH1 0x20 SWAP1 DUP2 MSTORE PUSH1 0x40 DUP1 DUP4 KECCAK256 PUSH1 0x1 ADD DUP1 SLOAD DUP3 MLOAD DUP2 DUP6 MUL DUP2 ADD DUP6 ADD SWAP1 SWAP4 MSTORE DUP1 DUP4 MSTORE SWAP2 SWAP3 SWAP1 SWAP2 SWAP1 DUP5 SWAP1 DUP5 ADD JUMPDEST DUP3 DUP3 LT ISZERO PUSH2 0x15E5 JUMPI PUSH0 DUP5 DUP2 MSTORE PUSH1 0x20 SWAP1 DUP2 SWAP1 KECCAK256 PUSH1 0x40 DUP1 MLOAD PUSH1 0xC0 DUP2 ADD DUP3 MSTORE PUSH1 0x6 DUP7 MUL SWAP1 SWAP3 ADD DUP1 SLOAD DUP4 MSTORE PUSH1 0x1 DUP1 DUP3 ADD SLOAD DUP5 DUP7 ADD MSTORE PUSH1 0x2 DUP3 ADD SLOAD SWAP3 DUP5 ADD SWAP3 SWAP1 SWAP3 MSTORE PUSH1 0x3 DUP2 ADD SLOAD PUSH1 0x60 DUP5 ADD MSTORE PUSH1 0x4 DUP2 ADD SLOAD PUSH1 0x80 DUP5 ADD MSTORE PUSH1 0x5 ADD SLOAD PUSH1 0xFF AND ISZERO ISZERO PUSH1 0xA0 DUP4 ADD MSTORE SWAP1 DUP4 MSTORE SWAP1 SWAP3 ADD SWAP2 ADD PUSH2 0x1579 JUMP JUMPDEST POP SWAP3 SWAP4 POP PUSH0 SWAP3 POP POP POP JUMPDEST DUP2 MLOAD DUP2 LT ISZERO PUSH2 0x16EF JUMPI DUP12 DUP3 DUP3 DUP2 MLOAD DUP2 LT PUSH2 0x160B JUMPI PUSH2 0x160B PUSH2 0x2B3E JUMP JUMPDEST PUSH1 0x20 MUL PUSH1 0x20 ADD ADD MLOAD PUSH1 0x20 ADD MLOAD SUB PUSH2 0x16E7 JUMPI PUSH0 DUP3 DUP3 DUP2 MLOAD DUP2 LT PUSH2 0x162F JUMPI PUSH2 0x162F PUSH2 0x2B3E JUMP JUMPDEST PUSH1 0x20 MUL PUSH1 0x20 ADD ADD MLOAD SWAP1 POP PUSH0 PUSH1 0x6 PUSH0 DUP4 PUSH1 0x80 ADD MLOAD DUP2 MSTORE PUSH1 0x20 ADD SWAP1 DUP2 MSTORE PUSH1 0x20 ADD PUSH0 KECCAK256 SLOAD SWAP1 POP PUSH0 DUP3 PUSH1 0x80 ADD MLOAD PUSH3 0x15180 PUSH2 0x1666 SWAP2 SWAP1 PUSH2 0x2B8E JUMP JUMPDEST DUP4 PUSH1 0x60 ADD MLOAD PUSH2 0x1675 SWAP2 SWAP1 PUSH2 0x2BAB JUMP JUMPDEST SWAP1 POP PUSH0 DUP4 PUSH1 0xA0 ADD MLOAD ISZERO DUP1 ISZERO PUSH2 0x1689 JUMPI POP DUP2 TIMESTAMP LT JUMPDEST SWAP1 POP PUSH0 PUSH2 0x16D PUSH1 0x64 DUP6 DUP8 PUSH1 0x40 ADD MLOAD PUSH2 0x16A1 SWAP2 SWAP1 PUSH2 0x2B8E JUMP JUMPDEST PUSH2 0x16AB SWAP2 SWAP1 PUSH2 0x2BBE JUMP JUMPDEST PUSH2 0x16B5 SWAP2 SWAP1 PUSH2 0x2BBE JUMP JUMPDEST SWAP1 POP DUP8 DUP6 PUSH0 ADD MLOAD DUP7 PUSH1 0x40 ADD MLOAD DUP8 PUSH1 0x60 ADD MLOAD DUP7 DUP9 DUP7 DUP9 SWAP16 POP SWAP16 POP SWAP16 POP SWAP16 POP SWAP16 POP SWAP16 POP SWAP16 POP SWAP16 POP POP POP POP POP POP POP POP POP PUSH2 0x172A JUMP JUMPDEST PUSH1 0x1 ADD PUSH2 0x15EF JUMP JUMPDEST POP PUSH1 0x40 MLOAD PUSH3 0x461BCD PUSH1 0xE5 SHL DUP2 MSTORE PUSH1 0x20 PUSH1 0x4 DUP3 ADD MSTORE PUSH1 0xF PUSH1 0x24 DUP3 ADD MSTORE PUSH15 0x14DD185AD9481B9BDD08199BDD5B99 PUSH1 0x8A SHL PUSH1 0x44 DUP3 ADD MSTORE PUSH1 0x64 ADD PUSH2 0x7B1 JUMP JUMPDEST SWAP2 SWAP4 SWAP6 SWAP8 POP SWAP2 SWAP4 SWAP6 SWAP8 JUMP JUMPDEST CALLER PUSH0 SWAP1 DUP2 MSTORE PUSH1 0x3 PUSH1 0x20 MSTORE PUSH1 0x40 SWAP1 KECCAK256 PUSH1 0x4 ADD SLOAD PUSH1 0xFF AND PUSH2 0x1766 JUMPI PUSH1 0x40 MLOAD PUSH3 0x461BCD PUSH1 0xE5 SHL DUP2 MSTORE PUSH1 0x4 ADD PUSH2 0x7B1 SWAP1 PUSH2 0x2B52 JUMP JUMPDEST PUSH0 DUP2 GT PUSH2 0x17C1 JUMPI PUSH1 0x40 MLOAD PUSH3 0x461BCD PUSH1 0xE5 SHL DUP2 MSTORE PUSH1 0x20 PUSH1 0x4 DUP3 ADD MSTORE PUSH1 0x23 PUSH1 0x24 DUP3 ADD MSTORE PUSH32 0x5374616B6520616D6F756E74206D757374206265206772656174657220746861 PUSH1 0x44 DUP3 ADD MSTORE PUSH3 0x6E203 PUSH1 0xEC SHL PUSH1 0x64 DUP3 ADD MSTORE PUSH1 0x84 ADD PUSH2 0x7B1 JUMP JUMPDEST PUSH0 DUP3 DUP2 MSTORE PUSH1 0x6 PUSH1 0x20 MSTORE PUSH1 0x40 SWAP1 KECCAK256 SLOAD PUSH2 0x1816 JUMPI PUSH1 0x40 MLOAD PUSH3 0x461BCD PUSH1 0xE5 SHL DUP2 MSTORE PUSH1 0x20 PUSH1 0x4 DUP3 ADD MSTORE PUSH1 0x18 PUSH1 0x24 DUP3 ADD MSTORE PUSH24 0x24B73B30B634B21039BA30B5B4B73390323AB930BA34B7B7 PUSH1 0x41 SHL PUSH1 0x44 DUP3 ADD MSTORE PUSH1 0x64 ADD PUSH2 0x7B1 JUMP JUMPDEST CALLER PUSH0 SWAP1 DUP2 MSTORE PUSH1 0x3 PUSH1 0x20 MSTORE PUSH1 0x40 SWAP1 KECCAK256 SLOAD PUSH1 0x1 PUSH1 0x1 PUSH1 0xA0 SHL SUB AND DUP1 ISZERO PUSH2 0x18AC JUMPI PUSH1 0x1 PUSH1 0x1 PUSH1 0xA0 SHL SUB DUP2 AND PUSH0 SWAP1 DUP2 MSTORE PUSH1 0x3 PUSH1 0x20 MSTORE PUSH1 0x40 SWAP1 KECCAK256 PUSH1 0x1 ADD SLOAD PUSH2 0x18AC JUMPI PUSH1 0x40 MLOAD PUSH3 0x461BCD PUSH1 0xE5 SHL DUP2 MSTORE PUSH1 0x20 PUSH1 0x4 DUP3 ADD MSTORE PUSH1 0x28 PUSH1 0x24 DUP3 ADD MSTORE PUSH32 0x5265666572726572206D757374207374616B65206265666F726520796F752063 PUSH1 0x44 DUP3 ADD MSTORE PUSH8 0x616E207374616B65 PUSH1 0xC0 SHL PUSH1 0x64 DUP3 ADD MSTORE PUSH1 0x84 ADD PUSH2 0x7B1 JUMP JUMPDEST PUSH1 0x2 SLOAD PUSH1 0x40 MLOAD PUSH4 0x23B872DD PUSH1 0xE0 SHL DUP2 MSTORE CALLER PUSH1 0x4 DUP3 ADD MSTORE ADDRESS PUSH1 0x24 DUP3 ADD MSTORE PUSH1 0x44 DUP2 ADD DUP5 SWAP1 MSTORE PUSH0 SWAP2 PUSH1 0x1 PUSH1 0x1 PUSH1 0xA0 SHL SUB AND SWAP1 PUSH4 0x23B872DD SWAP1 PUSH1 0x64 ADD PUSH1 0x20 PUSH1 0x40 MLOAD DUP1 DUP4 SUB DUP2 PUSH0 DUP8 GAS CALL ISZERO DUP1 ISZERO PUSH2 0x1900 JUMPI RETURNDATASIZE PUSH0 PUSH0 RETURNDATACOPY RETURNDATASIZE PUSH0 REVERT JUMPDEST POP POP POP POP PUSH1 0x40 MLOAD RETURNDATASIZE PUSH1 0x1F NOT PUSH1 0x1F DUP3 ADD AND DUP3 ADD DUP1 PUSH1 0x40 MSTORE POP DUP2 ADD SWAP1 PUSH2 0x1924 SWAP2 SWAP1 PUSH2 0x2C2B JUMP JUMPDEST SWAP1 POP DUP1 PUSH2 0x196A JUMPI PUSH1 0x40 MLOAD PUSH3 0x461BCD PUSH1 0xE5 SHL DUP2 MSTORE PUSH1 0x20 PUSH1 0x4 DUP3 ADD MSTORE PUSH1 0x14 PUSH1 0x24 DUP3 ADD MSTORE PUSH20 0x1554D115081D1C985B9CD9995C8819985A5B1959 PUSH1 0x62 SHL PUSH1 0x44 DUP3 ADD MSTORE PUSH1 0x64 ADD PUSH2 0x7B1 JUMP JUMPDEST PUSH0 PUSH1 0x1 PUSH0 DUP2 SLOAD PUSH2 0x1979 SWAP1 PUSH2 0x2C94 JUMP JUMPDEST SWAP2 SWAP1 POP DUP2 SWAP1 SSTORE SWAP1 POP PUSH1 0x3 PUSH0 CALLER PUSH1 0x1 PUSH1 0x1 PUSH1 0xA0 SHL SUB AND PUSH1 0x1 PUSH1 0x1 PUSH1 0xA0 SHL SUB AND DUP2 MSTORE PUSH1 0x20 ADD SWAP1 DUP2 MSTORE PUSH1 0x20 ADD PUSH0 KECCAK256 PUSH1 0x1 ADD PUSH1 0x40 MLOAD DUP1 PUSH1 0xC0 ADD PUSH1 0x40 MSTORE DUP1 PUSH1 0x1 SLOAD DUP2 MSTORE PUSH1 0x20 ADD DUP4 DUP2 MSTORE PUSH1 0x20 ADD DUP7 DUP2 MSTORE PUSH1 0x20 ADD TIMESTAMP DUP2 MSTORE PUSH1 0x20 ADD DUP8 DUP2 MSTORE PUSH1 0x20 ADD PUSH0 ISZERO ISZERO DUP2 MSTORE POP SWAP1 DUP1 PUSH1 0x1 DUP2 SLOAD ADD DUP1 DUP3 SSTORE DUP1 SWAP2 POP POP PUSH1 0x1 SWAP1 SUB SWAP1 PUSH0 MSTORE PUSH1 0x20 PUSH0 KECCAK256 SWAP1 PUSH1 0x6 MUL ADD PUSH0 SWAP1 SWAP2 SWAP1 SWAP2 SWAP1 SWAP2 POP PUSH0 DUP3 ADD MLOAD DUP2 PUSH0 ADD SSTORE PUSH1 0x20 DUP3 ADD MLOAD DUP2 PUSH1 0x1 ADD SSTORE PUSH1 0x40 DUP3 ADD MLOAD DUP2 PUSH1 0x2 ADD SSTORE PUSH1 0x60 DUP3 ADD MLOAD DUP2 PUSH1 0x3 ADD SSTORE PUSH1 0x80 DUP3 ADD MLOAD DUP2 PUSH1 0x4 ADD SSTORE PUSH1 0xA0 DUP3 ADD MLOAD DUP2 PUSH1 0x5 ADD PUSH0 PUSH2 0x100 EXP DUP2 SLOAD DUP2 PUSH1 0xFF MUL NOT AND SWAP1 DUP4 ISZERO ISZERO MUL OR SWAP1 SSTORE POP POP POP CALLER PUSH1 0x5 PUSH0 DUP4 DUP2 MSTORE PUSH1 0x20 ADD SWAP1 DUP2 MSTORE PUSH1 0x20 ADD PUSH0 KECCAK256 PUSH0 PUSH2 0x100 EXP DUP2 SLOAD DUP2 PUSH1 0x1 PUSH1 0x1 PUSH1 0xA0 SHL SUB MUL NOT AND SWAP1 DUP4 PUSH1 0x1 PUSH1 0x1 PUSH1 0xA0 SHL SUB AND MUL OR SWAP1 SSTORE POP PUSH0 PUSH1 0x3 PUSH0 CALLER PUSH1 0x1 PUSH1 0x1 PUSH1 0xA0 SHL SUB AND PUSH1 0x1 PUSH1 0x1 PUSH1 0xA0 SHL SUB AND DUP2 MSTORE PUSH1 0x20 ADD SWAP1 DUP2 MSTORE PUSH1 0x20 ADD PUSH0 KECCAK256 PUSH0 ADD PUSH0 SWAP1 SLOAD SWAP1 PUSH2 0x100 EXP SWAP1 DIV PUSH1 0x1 PUSH1 0x1 PUSH1 0xA0 SHL SUB AND SWAP1 POP PUSH0 PUSH1 0x3 PUSH0 CALLER PUSH1 0x1 PUSH1 0x1 PUSH1 0xA0 SHL SUB AND PUSH1 0x1 PUSH1 0x1 PUSH1 0xA0 SHL SUB AND DUP2 MSTORE PUSH1 0x20 ADD SWAP1 DUP2 MSTORE PUSH1 0x20 ADD PUSH0 KECCAK256 PUSH1 0x1 ADD DUP1 SLOAD SWAP1 POP PUSH1 0x1 EQ SWAP1 POP PUSH0 PUSH0 SWAP1 POP JUMPDEST PUSH1 0x5 DUP2 PUSH1 0xFF AND LT DUP1 ISZERO PUSH2 0x1B0F JUMPI POP PUSH1 0x1 PUSH1 0x1 PUSH1 0xA0 SHL SUB DUP4 AND ISZERO ISZERO JUMPDEST ISZERO PUSH2 0x1EA8 JUMPI PUSH0 PUSH1 0xFF DUP3 AND DUP2 SUB PUSH2 0x1BDB JUMPI DUP3 ISZERO PUSH2 0x1B43 JUMPI PUSH1 0x64 PUSH2 0x1B32 DUP10 PUSH1 0xA PUSH2 0x2B8E JUMP JUMPDEST PUSH2 0x1B3C SWAP2 SWAP1 PUSH2 0x2BBE JUMP JUMPDEST SWAP1 POP PUSH2 0x1B87 JUMP JUMPDEST PUSH1 0x64 PUSH1 0x9 DUP4 PUSH1 0xFF AND PUSH1 0x5 DUP2 LT PUSH2 0x1B5B JUMPI PUSH2 0x1B5B PUSH2 0x2B3E JUMP JUMPDEST PUSH1 0x20 DUP2 DIV SWAP2 SWAP1 SWAP2 ADD SLOAD PUSH2 0x1B7A SWAP2 PUSH1 0x1F AND PUSH2 0x100 EXP SWAP1 DIV PUSH1 0xFF AND DUP11 PUSH2 0x2B8E JUMP JUMPDEST PUSH2 0x1B84 SWAP2 SWAP1 PUSH2 0x2BBE JUMP JUMPDEST SWAP1 POP JUMPDEST DUP3 PUSH2 0x1B92 JUMPI PUSH0 PUSH2 0x1BA9 JUMP JUMPDEST PUSH1 0x64 PUSH2 0x1B9F DUP10 PUSH1 0x5 PUSH2 0x2B8E JUMP JUMPDEST PUSH2 0x1BA9 SWAP2 SWAP1 PUSH2 0x2BBE JUMP JUMPDEST PUSH1 0x1 PUSH1 0x1 PUSH1 0xA0 SHL SUB DUP6 AND PUSH0 SWAP1 DUP2 MSTORE PUSH1 0x7 PUSH1 0x20 MSTORE PUSH1 0x40 DUP2 KECCAK256 DUP1 SLOAD SWAP1 SWAP2 SWAP1 PUSH2 0x1BD0 SWAP1 DUP5 SWAP1 PUSH2 0x2BAB JUMP JUMPDEST SWAP1 SWAP2 SSTORE POP PUSH2 0x1C1F SWAP1 POP JUMP JUMPDEST PUSH1 0x64 PUSH1 0x9 DUP4 PUSH1 0xFF AND PUSH1 0x5 DUP2 LT PUSH2 0x1BF3 JUMPI PUSH2 0x1BF3 PUSH2 0x2B3E JUMP JUMPDEST PUSH1 0x20 DUP2 DIV SWAP2 SWAP1 SWAP2 ADD SLOAD PUSH2 0x1C12 SWAP2 PUSH1 0x1F AND PUSH2 0x100 EXP SWAP1 DIV PUSH1 0xFF AND DUP11 PUSH2 0x2B8E JUMP JUMPDEST PUSH2 0x1C1C SWAP2 SWAP1 PUSH2 0x2BBE JUMP JUMPDEST SWAP1 POP JUMPDEST PUSH1 0x2 SLOAD PUSH1 0x40 MLOAD PUSH4 0x70A08231 PUSH1 0xE0 SHL DUP2 MSTORE ADDRESS PUSH1 0x4 DUP3 ADD MSTORE DUP3 SWAP2 PUSH1 0x1 PUSH1 0x1 PUSH1 0xA0 SHL SUB AND SWAP1 PUSH4 0x70A08231 SWAP1 PUSH1 0x24 ADD PUSH1 0x20 PUSH1 0x40 MLOAD DUP1 DUP4 SUB DUP2 DUP7 GAS STATICCALL ISZERO DUP1 ISZERO PUSH2 0x1C65 JUMPI RETURNDATASIZE PUSH0 PUSH0 RETURNDATACOPY RETURNDATASIZE PUSH0 REVERT JUMPDEST POP POP POP POP PUSH1 0x40 MLOAD RETURNDATASIZE PUSH1 0x1F NOT PUSH1 0x1F DUP3 ADD AND DUP3 ADD DUP1 PUSH1 0x40 MSTORE POP DUP2 ADD SWAP1 PUSH2 0x1C89 SWAP2 SWAP1 PUSH2 0x2BDD JUMP JUMPDEST LT ISZERO PUSH2 0x1CA7 JUMPI PUSH1 0x40 MLOAD PUSH3 0x461BCD PUSH1 0xE5 SHL DUP2 MSTORE PUSH1 0x4 ADD PUSH2 0x7B1 SWAP1 PUSH2 0x2BF4 JUMP JUMPDEST PUSH1 0x2 SLOAD PUSH1 0x40 MLOAD PUSH4 0xA9059CBB PUSH1 0xE0 SHL DUP2 MSTORE PUSH1 0x1 PUSH1 0x1 PUSH1 0xA0 SHL SUB DUP7 DUP2 AND PUSH1 0x4 DUP4 ADD MSTORE PUSH1 0x24 DUP3 ADD DUP5 SWAP1 MSTORE PUSH0 SWAP3 AND SWAP1 PUSH4 0xA9059CBB SWAP1 PUSH1 0x44 ADD PUSH1 0x20 PUSH1 0x40 MLOAD DUP1 DUP4 SUB DUP2 PUSH0 DUP8 GAS CALL ISZERO DUP1 ISZERO PUSH2 0x1CF7 JUMPI RETURNDATASIZE PUSH0 PUSH0 RETURNDATACOPY RETURNDATASIZE PUSH0 REVERT JUMPDEST POP POP POP POP PUSH1 0x40 MLOAD RETURNDATASIZE PUSH1 0x1F NOT PUSH1 0x1F DUP3 ADD AND DUP3 ADD DUP1 PUSH1 0x40 MSTORE POP DUP2 ADD SWAP1 PUSH2 0x1D1B SWAP2 SWAP1 PUSH2 0x2C2B JUMP JUMPDEST SWAP1 POP DUP1 PUSH2 0x1D63 JUMPI PUSH1 0x40 MLOAD PUSH3 0x461BCD PUSH1 0xE5 SHL DUP2 MSTORE PUSH1 0x20 PUSH1 0x4 DUP3 ADD MSTORE PUSH1 0x16 PUSH1 0x24 DUP3 ADD MSTORE PUSH22 0x14995DD85C99081D1C985B9CD9995C8819985A5B1959 PUSH1 0x52 SHL PUSH1 0x44 DUP3 ADD MSTORE PUSH1 0x64 ADD PUSH2 0x7B1 JUMP JUMPDEST PUSH1 0x1 PUSH1 0x1 PUSH1 0xA0 SHL SUB DUP6 AND PUSH0 SWAP1 DUP2 MSTORE PUSH1 0x3 PUSH1 0x20 MSTORE PUSH1 0x40 DUP2 KECCAK256 PUSH1 0x2 ADD DUP1 SLOAD DUP5 SWAP3 SWAP1 PUSH2 0x1D8D SWAP1 DUP5 SWAP1 PUSH2 0x2BAB JUMP JUMPDEST SWAP1 SWAP2 SSTORE POP POP PUSH1 0xFF DUP4 AND ISZERO ISZERO DUP1 PUSH2 0x1DA1 JUMPI POP DUP4 ISZERO JUMPDEST ISZERO PUSH2 0x1DD6 JUMPI PUSH1 0x1 PUSH1 0x1 PUSH1 0xA0 SHL SUB DUP6 AND PUSH0 SWAP1 DUP2 MSTORE PUSH1 0x3 PUSH1 0x20 DUP2 SWAP1 MSTORE PUSH1 0x40 DUP3 KECCAK256 ADD DUP1 SLOAD DUP5 SWAP3 SWAP1 PUSH2 0x1DD0 SWAP1 DUP5 SWAP1 PUSH2 0x2BAB JUMP JUMPDEST SWAP1 SWAP2 SSTORE POP POP JUMPDEST PUSH1 0x1 PUSH1 0x1 PUSH1 0xA0 SHL SUB DUP6 AND PUSH0 SWAP1 DUP2 MSTORE PUSH1 0x4 PUSH1 0x20 MSTORE PUSH1 0x40 DUP2 KECCAK256 SWAP1 JUMPDEST DUP2 SLOAD DUP2 LT ISZERO PUSH2 0x1E75 JUMPI CALLER PUSH1 0x1 PUSH1 0x1 PUSH1 0xA0 SHL SUB AND DUP3 DUP3 DUP2 SLOAD DUP2 LT PUSH2 0x1E14 JUMPI PUSH2 0x1E14 PUSH2 0x2B3E JUMP JUMPDEST PUSH0 SWAP2 DUP3 MSTORE PUSH1 0x20 SWAP1 SWAP2 KECCAK256 PUSH1 0x3 SWAP1 SWAP2 MUL ADD SLOAD PUSH1 0x1 PUSH1 0x1 PUSH1 0xA0 SHL SUB AND SUB PUSH2 0x1E6D JUMPI DUP4 DUP3 DUP3 DUP2 SLOAD DUP2 LT PUSH2 0x1E45 JUMPI PUSH2 0x1E45 PUSH2 0x2B3E JUMP JUMPDEST SWAP1 PUSH0 MSTORE PUSH1 0x20 PUSH0 KECCAK256 SWAP1 PUSH1 0x3 MUL ADD PUSH1 0x1 ADD PUSH0 DUP3 DUP3 SLOAD PUSH2 0x1E62 SWAP2 SWAP1 PUSH2 0x2BAB JUMP JUMPDEST SWAP1 SWAP2 SSTORE POP PUSH2 0x1E75 SWAP1 POP JUMP JUMPDEST PUSH1 0x1 ADD PUSH2 0x1DEF JUMP JUMPDEST POP POP POP PUSH1 0x1 PUSH1 0x1 PUSH1 0xA0 SHL SUB SWAP4 DUP5 AND PUSH0 SWAP1 DUP2 MSTORE PUSH1 0x3 PUSH1 0x20 MSTORE PUSH1 0x40 SWAP1 KECCAK256 SLOAD SWAP1 SWAP4 AND SWAP3 POP DUP1 PUSH2 0x1EA0 DUP2 PUSH2 0x2CAC JUMP JUMPDEST SWAP2 POP POP PUSH2 0x1AF4 JUMP JUMPDEST POP POP POP POP POP POP POP POP JUMP JUMPDEST PUSH1 0x1 PUSH1 0x1 PUSH1 0xA0 SHL SUB DUP2 AND PUSH0 SWAP1 DUP2 MSTORE PUSH1 0x4 PUSH1 0x20 MSTORE PUSH1 0x40 SWAP1 KECCAK256 DUP1 SLOAD PUSH1 0x60 SWAP2 DUP3 SWAP2 DUP3 SWAP2 SWAP1 DUP1 PUSH8 0xFFFFFFFFFFFFFFFF DUP2 GT ISZERO PUSH2 0x1EEC JUMPI PUSH2 0x1EEC PUSH2 0x298B JUMP JUMPDEST PUSH1 0x40 MLOAD SWAP1 DUP1 DUP3 MSTORE DUP1 PUSH1 0x20 MUL PUSH1 0x20 ADD DUP3 ADD PUSH1 0x40 MSTORE DUP1 ISZERO PUSH2 0x1F15 JUMPI DUP2 PUSH1 0x20 ADD PUSH1 0x20 DUP3 MUL DUP1 CALLDATASIZE DUP4 CALLDATACOPY ADD SWAP1 POP JUMPDEST POP SWAP5 POP DUP1 PUSH8 0xFFFFFFFFFFFFFFFF DUP2 GT ISZERO PUSH2 0x1F31 JUMPI PUSH2 0x1F31 PUSH2 0x298B JUMP JUMPDEST PUSH1 0x40 MLOAD SWAP1 DUP1 DUP3 MSTORE DUP1 PUSH1 0x20 MUL PUSH1 0x20 ADD DUP3 ADD PUSH1 0x40 MSTORE DUP1 ISZERO PUSH2 0x1F5A JUMPI DUP2 PUSH1 0x20 ADD PUSH1 0x20 DUP3 MUL DUP1 CALLDATASIZE DUP4 CALLDATACOPY ADD SWAP1 POP JUMPDEST POP SWAP4 POP DUP1 PUSH8 0xFFFFFFFFFFFFFFFF DUP2 GT ISZERO PUSH2 0x1F76 JUMPI PUSH2 0x1F76 PUSH2 0x298B JUMP JUMPDEST PUSH1 0x40 MLOAD SWAP1 DUP1 DUP3 MSTORE DUP1 PUSH1 0x20 MUL PUSH1 0x20 ADD DUP3 ADD PUSH1 0x40 MSTORE DUP1 ISZERO PUSH2 0x1F9F JUMPI DUP2 PUSH1 0x20 ADD PUSH1 0x20 DUP3 MUL DUP1 CALLDATASIZE DUP4 CALLDATACOPY ADD SWAP1 POP JUMPDEST POP SWAP3 POP PUSH0 JUMPDEST DUP2 DUP2 LT ISZERO PUSH2 0x2095 JUMPI DUP3 DUP2 DUP2 SLOAD DUP2 LT PUSH2 0x1FBE JUMPI PUSH2 0x1FBE PUSH2 0x2B3E JUMP JUMPDEST PUSH0 SWAP2 DUP3 MSTORE PUSH1 0x20 SWAP1 SWAP2 KECCAK256 PUSH1 0x3 SWAP1 SWAP2 MUL ADD SLOAD DUP7 MLOAD PUSH1 0x1 PUSH1 0x1 PUSH1 0xA0 SHL SUB SWAP1 SWAP2 AND SWAP1 DUP8 SWAP1 DUP4 SWAP1 DUP2 LT PUSH2 0x1FEE JUMPI PUSH2 0x1FEE PUSH2 0x2B3E JUMP JUMPDEST PUSH1 0x20 MUL PUSH1 0x20 ADD ADD SWAP1 PUSH1 0x1 PUSH1 0x1 PUSH1 0xA0 SHL SUB AND SWAP1 DUP2 PUSH1 0x1 PUSH1 0x1 PUSH1 0xA0 SHL SUB AND DUP2 MSTORE POP POP DUP3 DUP2 DUP2 SLOAD DUP2 LT PUSH2 0x2020 JUMPI PUSH2 0x2020 PUSH2 0x2B3E JUMP JUMPDEST SWAP1 PUSH0 MSTORE PUSH1 0x20 PUSH0 KECCAK256 SWAP1 PUSH1 0x3 MUL ADD PUSH1 0x1 ADD SLOAD DUP6 DUP3 DUP2 MLOAD DUP2 LT PUSH2 0x2042 JUMPI PUSH2 0x2042 PUSH2 0x2B3E JUMP JUMPDEST PUSH1 0x20 MUL PUSH1 0x20 ADD ADD DUP2 DUP2 MSTORE POP POP DUP3 DUP2 DUP2 SLOAD DUP2 LT PUSH2 0x2060 JUMPI PUSH2 0x2060 PUSH2 0x2B3E JUMP JUMPDEST SWAP1 PUSH0 MSTORE PUSH1 0x20 PUSH0 KECCAK256 SWAP1 PUSH1 0x3 MUL ADD PUSH1 0x2 ADD SLOAD DUP5 DUP3 DUP2 MLOAD DUP2 LT PUSH2 0x2082 JUMPI PUSH2 0x2082 PUSH2 0x2B3E JUMP JUMPDEST PUSH1 0x20 SWAP1 DUP2 MUL SWAP2 SWAP1 SWAP2 ADD ADD MSTORE PUSH1 0x1 ADD PUSH2 0x1FA4 JUMP JUMPDEST POP POP POP SWAP2 SWAP4 SWAP1 SWAP3 POP JUMP JUMPDEST PUSH1 0x8 DUP2 DUP2 SLOAD DUP2 LT PUSH2 0x20AE JUMPI PUSH0 DUP1 REVERT JUMPDEST PUSH0 SWAP2 DUP3 MSTORE PUSH1 0x20 SWAP1 SWAP2 KECCAK256 ADD SLOAD PUSH1 0x1 PUSH1 0x1 PUSH1 0xA0 SHL SUB AND SWAP1 POP DUP2 JUMP JUMPDEST PUSH0 PUSH0 PUSH0 DUP5 GT PUSH2 0x2118 JUMPI PUSH1 0x40 MLOAD PUSH3 0x461BCD PUSH1 0xE5 SHL DUP2 MSTORE PUSH1 0x20 PUSH1 0x4 DUP3 ADD MSTORE PUSH1 0x1D PUSH1 0x24 DUP3 ADD MSTORE PUSH32 0x416D6F756E74206D7573742062652067726561746572207468616E2030000000 PUSH1 0x44 DUP3 ADD MSTORE PUSH1 0x64 ADD PUSH2 0x7B1 JUMP JUMPDEST PUSH0 DUP4 DUP2 MSTORE PUSH1 0x6 PUSH1 0x20 MSTORE PUSH1 0x40 SWAP1 KECCAK256 SLOAD PUSH2 0x216D JUMPI PUSH1 0x40 MLOAD PUSH3 0x461BCD PUSH1 0xE5 SHL DUP2 MSTORE PUSH1 0x20 PUSH1 0x4 DUP3 ADD MSTORE PUSH1 0x18 PUSH1 0x24 DUP3 ADD MSTORE PUSH24 0x24B73B30B634B21039BA30B5B4B73390323AB930BA34B7B7 PUSH1 0x41 SHL PUSH1 0x44 DUP3 ADD MSTORE PUSH1 0x64 ADD PUSH2 0x7B1 JUMP JUMPDEST PUSH0 DUP4 DUP2 MSTORE PUSH1 0x6 PUSH1 0x20 MSTORE PUSH1 0x40 SWAP1 KECCAK256 SLOAD PUSH2 0x8E94 DUP5 PUSH2 0x2189 DUP4 DUP9 PUSH2 0x2B8E JUMP JUMPDEST PUSH2 0x2193 SWAP2 SWAP1 PUSH2 0x2B8E JUMP JUMPDEST PUSH2 0x219D SWAP2 SWAP1 PUSH2 0x2BBE JUMP JUMPDEST SWAP3 POP PUSH2 0x21A9 DUP4 DUP7 PUSH2 0x2BAB JUMP JUMPDEST SWAP2 POP POP SWAP3 POP SWAP3 SWAP1 POP JUMP JUMPDEST PUSH0 SLOAD PUSH1 0x1 PUSH1 0x1 PUSH1 0xA0 SHL SUB AND CALLER EQ PUSH2 0x21DC JUMPI PUSH1 0x40 MLOAD PUSH3 0x461BCD PUSH1 0xE5 SHL DUP2 MSTORE PUSH1 0x4 ADD PUSH2 0x7B1 SWAP1 PUSH2 0x2C4A JUMP JUMPDEST PUSH1 0x1 PUSH1 0x1 PUSH1 0xA0 SHL SUB DUP3 AND PUSH2 0x2232 JUMPI PUSH1 0x40 MLOAD PUSH3 0x461BCD PUSH1 0xE5 SHL DUP2 MSTORE PUSH1 0x20 PUSH1 0x4 DUP3 ADD MSTORE PUSH1 0x19 PUSH1 0x24 DUP3 ADD MSTORE PUSH32 0x496E76616C696420726563697069656E74206164647265737300000000000000 PUSH1 0x44 DUP3 ADD MSTORE PUSH1 0x64 ADD PUSH2 0x7B1 JUMP JUMPDEST PUSH0 DUP2 GT PUSH2 0x2281 JUMPI PUSH1 0x40 MLOAD PUSH3 0x461BCD PUSH1 0xE5 SHL DUP2 MSTORE PUSH1 0x20 PUSH1 0x4 DUP3 ADD DUP2 SWAP1 MSTORE PUSH1 0x24 DUP3 ADD MSTORE PUSH32 0x416D6F756E74206D7573742062652067726561746572207468616E207A65726F PUSH1 0x44 DUP3 ADD MSTORE PUSH1 0x64 ADD PUSH2 0x7B1 JUMP JUMPDEST PUSH1 0x2 SLOAD PUSH1 0x40 MLOAD PUSH4 0xA9059CBB PUSH1 0xE0 SHL DUP2 MSTORE PUSH1 0x1 PUSH1 0x1 PUSH1 0xA0 SHL SUB DUP5 DUP2 AND PUSH1 0x4 DUP4 ADD MSTORE PUSH1 0x24 DUP3 ADD DUP5 SWAP1 MSTORE PUSH0 SWAP3 AND SWAP1 PUSH4 0xA9059CBB SWAP1 PUSH1 0x44 ADD PUSH1 0x20 PUSH1 0x40 MLOAD DUP1 DUP4 SUB DUP2 PUSH0 DUP8 GAS CALL ISZERO DUP1 ISZERO PUSH2 0x22D1 JUMPI RETURNDATASIZE PUSH0 PUSH0 RETURNDATACOPY RETURNDATASIZE PUSH0 REVERT JUMPDEST POP POP POP POP PUSH1 0x40 MLOAD RETURNDATASIZE PUSH1 0x1F NOT PUSH1 0x1F DUP3 ADD AND DUP3 ADD DUP1 PUSH1 0x40 MSTORE POP DUP2 ADD SWAP1 PUSH2 0x22F5 SWAP2 SWAP1 PUSH2 0x2C2B JUMP JUMPDEST SWAP1 POP DUP1 PUSH2 0x233C JUMPI PUSH1 0x40 MLOAD PUSH3 0x461BCD PUSH1 0xE5 SHL DUP2 MSTORE PUSH1 0x20 PUSH1 0x4 DUP3 ADD MSTORE PUSH1 0x15 PUSH1 0x24 DUP3 ADD MSTORE PUSH21 0x151BDAD95B881D1C985B9CD9995C8819985A5B1959 PUSH1 0x5A SHL PUSH1 0x44 DUP3 ADD MSTORE PUSH1 0x64 ADD PUSH2 0x7B1 JUMP JUMPDEST POP POP POP JUMP JUMPDEST PUSH1 0x9 DUP2 PUSH1 0x5 DUP2 LT PUSH2 0x2350 JUMPI PUSH0 DUP1 REVERT JUMPDEST PUSH1 0x20 SWAP2 DUP3 DUP3 DIV ADD SWAP2 SWAP1 MOD SWAP2 POP SLOAD SWAP1 PUSH2 0x100 EXP SWAP1 DIV PUSH1 0xFF AND DUP2 JUMP JUMPDEST PUSH1 0x60 PUSH0 DUP1 JUMPDEST PUSH1 0x8 SLOAD DUP2 LT ISZERO PUSH2 0x24E7 JUMPI PUSH0 PUSH1 0x8 DUP3 DUP2 SLOAD DUP2 LT PUSH2 0x238D JUMPI PUSH2 0x238D PUSH2 0x2B3E JUMP JUMPDEST PUSH0 SWAP2 DUP3 MSTORE PUSH1 0x20 DUP1 DUP4 KECCAK256 SWAP1 SWAP2 ADD SLOAD PUSH1 0x1 PUSH1 0x1 PUSH1 0xA0 SHL SUB AND DUP1 DUP4 MSTORE PUSH1 0x3 DUP3 MSTORE PUSH1 0x40 DUP1 DUP5 KECCAK256 PUSH1 0x1 ADD DUP1 SLOAD DUP3 MLOAD DUP2 DUP7 MUL DUP2 ADD DUP7 ADD SWAP1 SWAP4 MSTORE DUP1 DUP4 MSTORE SWAP3 SWAP6 POP SWAP1 SWAP3 SWAP1 SWAP2 SWAP1 DUP5 SWAP1 DUP5 ADD JUMPDEST DUP3 DUP3 LT ISZERO PUSH2 0x243C JUMPI PUSH0 DUP5 DUP2 MSTORE PUSH1 0x20 SWAP1 DUP2 SWAP1 KECCAK256 PUSH1 0x40 DUP1 MLOAD PUSH1 0xC0 DUP2 ADD DUP3 MSTORE PUSH1 0x6 DUP7 MUL SWAP1 SWAP3 ADD DUP1 SLOAD DUP4 MSTORE PUSH1 0x1 DUP1 DUP3 ADD SLOAD DUP5 DUP7 ADD MSTORE PUSH1 0x2 DUP3 ADD SLOAD SWAP3 DUP5 ADD SWAP3 SWAP1 SWAP3 MSTORE PUSH1 0x3 DUP2 ADD SLOAD PUSH1 0x60 DUP5 ADD MSTORE PUSH1 0x4 DUP2 ADD SLOAD PUSH1 0x80 DUP5 ADD MSTORE PUSH1 0x5 ADD SLOAD PUSH1 0xFF AND ISZERO ISZERO PUSH1 0xA0 DUP4 ADD MSTORE SWAP1 DUP4 MSTORE SWAP1 SWAP3 ADD SWAP2 ADD PUSH2 0x23D0 JUMP JUMPDEST POP POP POP POP PUSH1 0x1 PUSH1 0x1 PUSH1 0xA0 SHL SUB DUP4 DUP2 AND PUSH0 SWAP1 DUP2 MSTORE PUSH1 0x3 PUSH1 0x20 MSTORE PUSH1 0x40 DUP2 KECCAK256 SLOAD SWAP3 SWAP4 POP SWAP2 AND SWAP1 JUMPDEST PUSH1 0x5 DUP2 PUSH1 0xFF AND LT DUP1 ISZERO PUSH2 0x247B JUMPI POP PUSH1 0x1 PUSH1 0x1 PUSH1 0xA0 SHL SUB DUP3 AND ISZERO ISZERO JUMPDEST ISZERO PUSH2 0x24D7 JUMPI DUP8 PUSH1 0x1 PUSH1 0x1 PUSH1 0xA0 SHL SUB AND DUP3 PUSH1 0x1 PUSH1 0x1 PUSH1 0xA0 SHL SUB AND SUB PUSH2 0x24A8 JUMPI DUP3 MLOAD PUSH2 0x24A5 SWAP1 DUP8 PUSH2 0x2BAB JUMP JUMPDEST SWAP6 POP JUMPDEST PUSH1 0x1 PUSH1 0x1 PUSH1 0xA0 SHL SUB SWAP2 DUP3 AND PUSH0 SWAP1 DUP2 MSTORE PUSH1 0x3 PUSH1 0x20 MSTORE PUSH1 0x40 SWAP1 KECCAK256 SLOAD SWAP1 SWAP2 AND SWAP1 DUP1 PUSH2 0x24CF DUP2 PUSH2 0x2CAC JUMP JUMPDEST SWAP2 POP POP PUSH2 0x2460 JUMP JUMPDEST POP POP PUSH1 0x1 SWAP1 SWAP3 ADD SWAP2 POP PUSH2 0x236F SWAP1 POP JUMP JUMPDEST POP PUSH0 DUP2 PUSH8 0xFFFFFFFFFFFFFFFF DUP2 GT ISZERO PUSH2 0x2502 JUMPI PUSH2 0x2502 PUSH2 0x298B JUMP JUMPDEST PUSH1 0x40 MLOAD SWAP1 DUP1 DUP3 MSTORE DUP1 PUSH1 0x20 MUL PUSH1 0x20 ADD DUP3 ADD PUSH1 0x40 MSTORE DUP1 ISZERO PUSH2 0x2581 JUMPI DUP2 PUSH1 0x20 ADD JUMPDEST PUSH2 0x256E PUSH1 0x40 MLOAD DUP1 PUSH1 0xE0 ADD PUSH1 0x40 MSTORE DUP1 PUSH0 PUSH1 0x1 PUSH1 0x1 PUSH1 0xA0 SHL SUB AND DUP2 MSTORE PUSH1 0x20 ADD PUSH0 DUP2 MSTORE PUSH1 0x20 ADD PUSH0 DUP2 MSTORE PUSH1 0x20 ADD PUSH0 DUP2 MSTORE PUSH1 0x20 ADD PUSH0 PUSH1 0x1 PUSH1 0x1 PUSH1 0xA0 SHL SUB AND DUP2 MSTORE PUSH1 0x20 ADD PUSH0 DUP2 MSTORE PUSH1 0x20 ADD PUSH0 PUSH1 0xFF AND DUP2 MSTORE POP SWAP1 JUMP JUMPDEST DUP2 MSTORE PUSH1 0x20 ADD SWAP1 PUSH1 0x1 SWAP1 SUB SWAP1 DUP2 PUSH2 0x2520 JUMPI SWAP1 POP JUMPDEST POP SWAP1 POP PUSH0 DUP1 JUMPDEST PUSH1 0x8 SLOAD DUP2 LT ISZERO PUSH2 0x27F7 JUMPI PUSH0 PUSH1 0x8 DUP3 DUP2 SLOAD DUP2 LT PUSH2 0x25A5 JUMPI PUSH2 0x25A5 PUSH2 0x2B3E JUMP JUMPDEST PUSH0 SWAP2 DUP3 MSTORE PUSH1 0x20 DUP1 DUP4 KECCAK256 SWAP1 SWAP2 ADD SLOAD PUSH1 0x1 PUSH1 0x1 PUSH1 0xA0 SHL SUB AND DUP1 DUP4 MSTORE PUSH1 0x3 DUP3 MSTORE PUSH1 0x40 DUP1 DUP5 KECCAK256 PUSH1 0x1 ADD DUP1 SLOAD DUP3 MLOAD DUP2 DUP7 MUL DUP2 ADD DUP7 ADD SWAP1 SWAP4 MSTORE DUP1 DUP4 MSTORE SWAP3 SWAP6 POP SWAP1 SWAP3 SWAP1 SWAP2 SWAP1 DUP5 SWAP1 DUP5 ADD JUMPDEST DUP3 DUP3 LT ISZERO PUSH2 0x2654 JUMPI PUSH0 DUP5 DUP2 MSTORE PUSH1 0x20 SWAP1 DUP2 SWAP1 KECCAK256 PUSH1 0x40 DUP1 MLOAD PUSH1 0xC0 DUP2 ADD DUP3 MSTORE PUSH1 0x6 DUP7 MUL SWAP1 SWAP3 ADD DUP1 SLOAD DUP4 MSTORE PUSH1 0x1 DUP1 DUP3 ADD SLOAD DUP5 DUP7 ADD MSTORE PUSH1 0x2 DUP3 ADD SLOAD SWAP3 DUP5 ADD SWAP3 SWAP1 SWAP3 MSTORE PUSH1 0x3 DUP2 ADD SLOAD PUSH1 0x60 DUP5 ADD MSTORE PUSH1 0x4 DUP2 ADD SLOAD PUSH1 0x80 DUP5 ADD MSTORE PUSH1 0x5 ADD SLOAD PUSH1 0xFF AND ISZERO ISZERO PUSH1 0xA0 DUP4 ADD MSTORE SWAP1 DUP4 MSTORE SWAP1 SWAP3 ADD SWAP2 ADD PUSH2 0x25E8 JUMP JUMPDEST POP POP POP POP PUSH1 0x1 PUSH1 0x1 PUSH1 0xA0 SHL SUB DUP4 DUP2 AND PUSH0 SWAP1 DUP2 MSTORE PUSH1 0x3 PUSH1 0x20 MSTORE PUSH1 0x40 DUP2 KECCAK256 SLOAD SWAP3 SWAP4 POP SWAP2 AND SWAP1 JUMPDEST PUSH1 0x5 DUP2 PUSH1 0xFF AND LT DUP1 ISZERO PUSH2 0x2693 JUMPI POP PUSH1 0x1 PUSH1 0x1 PUSH1 0xA0 SHL SUB DUP3 AND ISZERO ISZERO JUMPDEST ISZERO PUSH2 0x27E7 JUMPI DUP10 PUSH1 0x1 PUSH1 0x1 PUSH1 0xA0 SHL SUB AND DUP3 PUSH1 0x1 PUSH1 0x1 PUSH1 0xA0 SHL SUB AND SUB PUSH2 0x27B8 JUMPI PUSH0 JUMPDEST DUP4 MLOAD DUP2 LT ISZERO PUSH2 0x27B6 JUMPI PUSH0 DUP5 DUP3 DUP2 MLOAD DUP2 LT PUSH2 0x26CF JUMPI PUSH2 0x26CF PUSH2 0x2B3E JUMP JUMPDEST PUSH1 0x20 MUL PUSH1 0x20 ADD ADD MLOAD SWAP1 POP PUSH0 PUSH1 0x64 PUSH1 0x9 DUP6 PUSH1 0xFF AND PUSH1 0x5 DUP2 LT PUSH2 0x26F2 JUMPI PUSH2 0x26F2 PUSH2 0x2B3E JUMP JUMPDEST PUSH1 0x20 SWAP2 DUP3 DUP3 DIV ADD SWAP2 SWAP1 MOD SWAP1 SLOAD SWAP1 PUSH2 0x100 EXP SWAP1 DIV PUSH1 0xFF AND PUSH1 0xFF AND DUP4 PUSH1 0x40 ADD MLOAD PUSH2 0x271A SWAP2 SWAP1 PUSH2 0x2B8E JUMP JUMPDEST PUSH2 0x2724 SWAP2 SWAP1 PUSH2 0x2BBE JUMP JUMPDEST SWAP1 POP PUSH1 0x40 MLOAD DUP1 PUSH1 0xE0 ADD PUSH1 0x40 MSTORE DUP1 DUP15 PUSH1 0x1 PUSH1 0x1 PUSH1 0xA0 SHL SUB AND DUP2 MSTORE PUSH1 0x20 ADD DUP4 PUSH0 ADD MLOAD DUP2 MSTORE PUSH1 0x20 ADD DUP4 PUSH1 0x40 ADD MLOAD DUP2 MSTORE PUSH1 0x20 ADD DUP3 DUP2 MSTORE PUSH1 0x20 ADD DUP9 PUSH1 0x1 PUSH1 0x1 PUSH1 0xA0 SHL SUB AND DUP2 MSTORE PUSH1 0x20 ADD DUP4 PUSH1 0x60 ADD MLOAD DUP2 MSTORE PUSH1 0x20 ADD DUP6 PUSH1 0x1 PUSH2 0x277F SWAP2 SWAP1 PUSH2 0x2CCA JUMP JUMPDEST PUSH1 0xFF AND SWAP1 MSTORE DUP11 DUP11 PUSH2 0x278F DUP2 PUSH2 0x2C94 JUMP JUMPDEST SWAP12 POP DUP2 MLOAD DUP2 LT PUSH2 0x27A1 JUMPI PUSH2 0x27A1 PUSH2 0x2B3E JUMP JUMPDEST PUSH1 0x20 SWAP1 DUP2 MUL SWAP2 SWAP1 SWAP2 ADD ADD MSTORE POP POP PUSH1 0x1 ADD PUSH2 0x26B3 JUMP JUMPDEST POP JUMPDEST PUSH1 0x1 PUSH1 0x1 PUSH1 0xA0 SHL SUB SWAP2 DUP3 AND PUSH0 SWAP1 DUP2 MSTORE PUSH1 0x3 PUSH1 0x20 MSTORE PUSH1 0x40 SWAP1 KECCAK256 SLOAD SWAP1 SWAP2 AND SWAP1 DUP1 PUSH2 0x27DF DUP2 PUSH2 0x2CAC JUMP JUMPDEST SWAP2 POP POP PUSH2 0x2678 JUMP JUMPDEST POP POP PUSH1 0x1 SWAP1 SWAP3 ADD SWAP2 POP PUSH2 0x2587 SWAP1 POP JUMP JUMPDEST POP SWAP1 SWAP5 SWAP4 POP POP POP POP JUMP JUMPDEST PUSH1 0x1 DUP4 ADD SWAP2 DUP4 SWAP1 DUP3 ISZERO PUSH2 0x2881 JUMPI SWAP2 PUSH1 0x20 MUL DUP3 ADD PUSH0 JUMPDEST DUP4 DUP3 GT ISZERO PUSH2 0x2853 JUMPI DUP4 MLOAD DUP4 DUP3 PUSH2 0x100 EXP DUP2 SLOAD DUP2 PUSH1 0xFF MUL NOT AND SWAP1 DUP4 PUSH1 0xFF AND MUL OR SWAP1 SSTORE POP SWAP3 PUSH1 0x20 ADD SWAP3 PUSH1 0x1 ADD PUSH1 0x20 DUP2 PUSH0 ADD DIV SWAP3 DUP4 ADD SWAP3 PUSH1 0x1 SUB MUL PUSH2 0x2816 JUMP JUMPDEST DUP1 ISZERO PUSH2 0x287F JUMPI DUP3 DUP2 PUSH2 0x100 EXP DUP2 SLOAD SWAP1 PUSH1 0xFF MUL NOT AND SWAP1 SSTORE PUSH1 0x1 ADD PUSH1 0x20 DUP2 PUSH0 ADD DIV SWAP3 DUP4 ADD SWAP3 PUSH1 0x1 SUB MUL PUSH2 0x2853 JUMP JUMPDEST POP JUMPDEST POP PUSH2 0x288D SWAP3 SWAP2 POP PUSH2 0x2891 JUMP JUMPDEST POP SWAP1 JUMP JUMPDEST JUMPDEST DUP1 DUP3 GT ISZERO PUSH2 0x288D JUMPI PUSH0 DUP2 SSTORE PUSH1 0x1 ADD PUSH2 0x2892 JUMP JUMPDEST DUP1 CALLDATALOAD PUSH1 0x1 PUSH1 0x1 PUSH1 0xA0 SHL SUB DUP2 AND DUP2 EQ PUSH2 0x28BB JUMPI PUSH0 PUSH0 REVERT JUMPDEST SWAP2 SWAP1 POP JUMP JUMPDEST PUSH0 PUSH0 PUSH1 0x40 DUP4 DUP6 SUB SLT ISZERO PUSH2 0x28D1 JUMPI PUSH0 PUSH0 REVERT JUMPDEST PUSH2 0x28DA DUP4 PUSH2 0x28A5 JUMP JUMPDEST SWAP5 PUSH1 0x20 SWAP4 SWAP1 SWAP4 ADD CALLDATALOAD SWAP4 POP POP POP JUMP JUMPDEST PUSH0 PUSH1 0x20 DUP3 DUP5 SUB SLT ISZERO PUSH2 0x28F8 JUMPI PUSH0 PUSH0 REVERT JUMPDEST POP CALLDATALOAD SWAP2 SWAP1 POP JUMP JUMPDEST PUSH0 PUSH1 0x20 DUP3 DUP5 SUB SLT ISZERO PUSH2 0x290F JUMPI PUSH0 PUSH0 REVERT JUMPDEST PUSH2 0x2918 DUP3 PUSH2 0x28A5 JUMP JUMPDEST SWAP4 SWAP3 POP POP POP JUMP JUMPDEST PUSH0 DUP2 MLOAD DUP1 DUP5 MSTORE PUSH1 0x20 DUP5 ADD SWAP4 POP PUSH1 0x20 DUP4 ADD PUSH0 JUMPDEST DUP3 DUP2 LT ISZERO PUSH2 0x294F JUMPI DUP2 MLOAD DUP7 MSTORE PUSH1 0x20 SWAP6 DUP7 ADD SWAP6 SWAP1 SWAP2 ADD SWAP1 PUSH1 0x1 ADD PUSH2 0x2931 JUMP JUMPDEST POP SWAP4 SWAP5 SWAP4 POP POP POP POP JUMP JUMPDEST PUSH1 0x20 DUP2 MSTORE PUSH0 PUSH2 0x2918 PUSH1 0x20 DUP4 ADD DUP5 PUSH2 0x291F JUMP JUMPDEST PUSH0 PUSH0 PUSH1 0x40 DUP4 DUP6 SUB SLT ISZERO PUSH2 0x297C JUMPI PUSH0 PUSH0 REVERT JUMPDEST POP POP DUP1 CALLDATALOAD SWAP3 PUSH1 0x20 SWAP1 SWAP2 ADD CALLDATALOAD SWAP2 POP JUMP JUMPDEST PUSH4 0x4E487B71 PUSH1 0xE0 SHL PUSH0 MSTORE PUSH1 0x41 PUSH1 0x4 MSTORE PUSH1 0x24 PUSH0 REVERT JUMPDEST DUP1 CALLDATALOAD PUSH1 0xFF DUP2 AND DUP2 EQ PUSH2 0x28BB JUMPI PUSH0 PUSH0 REVERT JUMPDEST PUSH0 PUSH1 0xA0 DUP3 DUP5 SUB SLT ISZERO PUSH2 0x29BF JUMPI PUSH0 PUSH0 REVERT JUMPDEST DUP3 PUSH1 0x1F DUP4 ADD SLT PUSH2 0x29CD JUMPI PUSH0 PUSH0 REVERT JUMPDEST PUSH1 0x40 MLOAD PUSH1 0xA0 DUP2 ADD DUP2 DUP2 LT PUSH8 0xFFFFFFFFFFFFFFFF DUP3 GT OR ISZERO PUSH2 0x29F0 JUMPI PUSH2 0x29F0 PUSH2 0x298B JUMP JUMPDEST PUSH1 0x40 MSTORE DUP1 PUSH1 0xA0 DUP5 ADD DUP6 DUP2 GT ISZERO PUSH2 0x2A04 JUMPI PUSH0 PUSH0 REVERT JUMPDEST DUP5 JUMPDEST DUP2 DUP2 LT ISZERO PUSH2 0x2A25 JUMPI PUSH2 0x2A17 DUP2 PUSH2 0x299F JUMP JUMPDEST DUP4 MSTORE PUSH1 0x20 SWAP3 DUP4 ADD SWAP3 ADD PUSH2 0x2A06 JUMP JUMPDEST POP SWAP2 SWAP6 SWAP5 POP POP POP POP POP JUMP JUMPDEST PUSH1 0x60 DUP1 DUP3 MSTORE DUP5 MLOAD SWAP1 DUP3 ADD DUP2 SWAP1 MSTORE PUSH0 SWAP1 PUSH1 0x20 DUP7 ADD SWAP1 PUSH1 0x80 DUP5 ADD SWAP1 DUP4 JUMPDEST DUP2 DUP2 LT ISZERO PUSH2 0x2A72 JUMPI DUP4 MLOAD PUSH1 0x1 PUSH1 0x1 PUSH1 0xA0 SHL SUB AND DUP4 MSTORE PUSH1 0x20 SWAP4 DUP5 ADD SWAP4 SWAP1 SWAP3 ADD SWAP2 PUSH1 0x1 ADD PUSH2 0x2A4B JUMP JUMPDEST POP POP DUP4 DUP2 SUB PUSH1 0x20 DUP6 ADD MSTORE PUSH2 0x2A86 DUP2 DUP8 PUSH2 0x291F JUMP JUMPDEST SWAP2 POP POP DUP3 DUP2 SUB PUSH1 0x40 DUP5 ADD MSTORE PUSH2 0x2A9B DUP2 DUP6 PUSH2 0x291F JUMP JUMPDEST SWAP7 SWAP6 POP POP POP POP POP POP JUMP JUMPDEST PUSH1 0x20 DUP1 DUP3 MSTORE DUP3 MLOAD DUP3 DUP3 ADD DUP2 SWAP1 MSTORE PUSH0 SWAP2 DUP5 ADD SWAP1 PUSH1 0x40 DUP5 ADD SWAP1 DUP4 JUMPDEST DUP2 DUP2 LT ISZERO PUSH2 0x2B33 JUMPI DUP4 MLOAD PUSH1 0x1 DUP1 PUSH1 0xA0 SHL SUB DUP2 MLOAD AND DUP5 MSTORE PUSH1 0x20 DUP2 ADD MLOAD PUSH1 0x20 DUP6 ADD MSTORE PUSH1 0x40 DUP2 ADD MLOAD PUSH1 0x40 DUP6 ADD MSTORE PUSH1 0x60 DUP2 ADD MLOAD PUSH1 0x60 DUP6 ADD MSTORE PUSH1 0x1 DUP1 PUSH1 0xA0 SHL SUB PUSH1 0x80 DUP3 ADD MLOAD AND PUSH1 0x80 DUP6 ADD MSTORE PUSH1 0xA0 DUP2 ADD MLOAD PUSH1 0xA0 DUP6 ADD MSTORE PUSH1 0xFF PUSH1 0xC0 DUP3 ADD MLOAD AND PUSH1 0xC0 DUP6 ADD MSTORE POP PUSH1 0xE0 DUP4 ADD SWAP3 POP PUSH1 0x20 DUP5 ADD SWAP4 POP PUSH1 0x1 DUP2 ADD SWAP1 POP PUSH2 0x2ABE JUMP JUMPDEST POP SWAP1 SWAP6 SWAP5 POP POP POP POP POP JUMP JUMPDEST PUSH4 0x4E487B71 PUSH1 0xE0 SHL PUSH0 MSTORE PUSH1 0x32 PUSH1 0x4 MSTORE PUSH1 0x24 PUSH0 REVERT JUMPDEST PUSH1 0x20 DUP1 DUP3 MSTORE PUSH1 0xE SWAP1 DUP3 ADD MSTORE PUSH14 0x139BDD081C9959DA5CDD195C9959 PUSH1 0x92 SHL PUSH1 0x40 DUP3 ADD MSTORE PUSH1 0x60 ADD SWAP1 JUMP JUMPDEST PUSH4 0x4E487B71 PUSH1 0xE0 SHL PUSH0 MSTORE PUSH1 0x11 PUSH1 0x4 MSTORE PUSH1 0x24 PUSH0 REVERT JUMPDEST DUP1 DUP3 MUL DUP2 ISZERO DUP3 DUP3 DIV DUP5 EQ OR PUSH2 0x2BA5 JUMPI PUSH2 0x2BA5 PUSH2 0x2B7A JUMP JUMPDEST SWAP3 SWAP2 POP POP JUMP JUMPDEST DUP1 DUP3 ADD DUP1 DUP3 GT ISZERO PUSH2 0x2BA5 JUMPI PUSH2 0x2BA5 PUSH2 0x2B7A JUMP JUMPDEST PUSH0 DUP3 PUSH2 0x2BD8 JUMPI PUSH4 0x4E487B71 PUSH1 0xE0 SHL PUSH0 MSTORE PUSH1 0x12 PUSH1 0x4 MSTORE PUSH1 0x24 PUSH0 REVERT JUMPDEST POP DIV SWAP1 JUMP JUMPDEST PUSH0 PUSH1 0x20 DUP3 DUP5 SUB SLT ISZERO PUSH2 0x2BED JUMPI PUSH0 PUSH0 REVERT JUMPDEST POP MLOAD SWAP2 SWAP1 POP JUMP JUMPDEST PUSH1 0x20 DUP1 DUP3 MSTORE PUSH1 0x1D SWAP1 DUP3 ADD MSTORE PUSH32 0x496E73756666696369656E7420636F6E74726163742062616C616E6365000000 PUSH1 0x40 DUP3 ADD MSTORE PUSH1 0x60 ADD SWAP1 JUMP JUMPDEST PUSH0 PUSH1 0x20 DUP3 DUP5 SUB SLT ISZERO PUSH2 0x2C3B JUMPI PUSH0 PUSH0 REVERT JUMPDEST DUP2 MLOAD DUP1 ISZERO ISZERO DUP2 EQ PUSH2 0x2918 JUMPI PUSH0 PUSH0 REVERT JUMPDEST PUSH1 0x20 DUP1 DUP3 MSTORE PUSH1 0x18 SWAP1 DUP3 ADD MSTORE PUSH32 0x4F6E6C79206F776E65722063616E2063616C6C20746869730000000000000000 PUSH1 0x40 DUP3 ADD MSTORE PUSH1 0x60 ADD SWAP1 JUMP JUMPDEST DUP2 DUP2 SUB DUP2 DUP2 GT ISZERO PUSH2 0x2BA5 JUMPI PUSH2 0x2BA5 PUSH2 0x2B7A JUMP JUMPDEST PUSH0 PUSH1 0x1 DUP3 ADD PUSH2 0x2CA5 JUMPI PUSH2 0x2CA5 PUSH2 0x2B7A JUMP JUMPDEST POP PUSH1 0x1 ADD SWAP1 JUMP JUMPDEST PUSH0 PUSH1 0xFF DUP3 AND PUSH1 0xFF DUP2 SUB PUSH2 0x2CC1 JUMPI PUSH2 0x2CC1 PUSH2 0x2B7A JUMP JUMPDEST PUSH1 0x1 ADD SWAP3 SWAP2 POP POP JUMP JUMPDEST PUSH1 0xFF DUP2 DUP2 AND DUP4 DUP3 AND ADD SWAP1 DUP2 GT ISZERO PUSH2 0x2BA5 JUMPI PUSH2 0x2BA5 PUSH2 0x2B7A JUMP INVALID LOG2 PUSH5 0x6970667358 0x22 SLT KECCAK256 0xB8 0xE8 PUSH1 0xDF DIV SELFBALANCE SGT CHAINID DUP12 SHL SMOD DUP7 LOG2 0xA7 KECCAK256 0x2F 0xE8 TSTORE 0xB4 JUMPI RETURNDATACOPY 0xB9 EQ LOG1 0xF6 PUSH8 0xC2B5D948BED6473 PUSH16 0x6C634300081E00330000000000000000 "
		},
		"gasEstimates": {
			"creation": {
				"codeDepositCost": "2309000",
				"executionCost": "infinite",
				"totalCost": "infinite"
			},
			"external": {
				"allUsers(uint256)": "4723",
				"claim(uint256)": "infinite",
				"claimEmergency(uint256)": "infinite",
				"directReferralIncome(address)": "2604",
				"directReferrals(address,uint256)": "9103",
				"getContractBalance()": "infinite",
				"getDirectReferralCount(address)": "2580",
				"getDirectReferralIncome(address)": "2623",
				"getEstimatedReturn(uint256,uint256)": "infinite",
				"getLevelIncome(address)": "2592",
				"getLevelIncomeDistribution(address)": "infinite",
				"getPositionIds(address)": "infinite",
				"getReferralIncomeDetails(address)": "infinite",
				"getStakeByPositionId(uint256)": "infinite",
				"getTotalIncome(address)": "2585",
				"getTotalLevelIncome(address)": "2635",
				"getTotalUsers()": "2359",
				"getUserLevel(address)": "2729",
				"isRegistered(address)": "2619",
				"levelRewards(uint256)": "4127",
				"owner()": "2446",
				"ownerTransfer(address,uint256)": "infinite",
				"positionIdToUser(uint256)": "2543",
				"register(address)": "179907",
				"setLevelRewards(uint8[5])": "infinite",
				"setStakingAPY(uint256,uint256)": "24685",
				"stake(uint256,uint256)": "infinite",
				"stakeCounter()": "2404",
				"stakingAPY(uint256)": "2524",
				"usdtToken()": "2403",
				"users(address)": "9026",
				"withdrawUSDT(uint256)": "infinite"
			}
		},
		"methodIdentifiers": {
			"allUsers(uint256)": "a2bdedf4",
			"claim(uint256)": "379607f5",
			"claimEmergency(uint256)": "6c8c2156",
			"directReferralIncome(address)": "f6e88873",
			"directReferrals(address,uint256)": "05ad3935",
			"getContractBalance()": "6f9fb98a",
			"getDirectReferralCount(address)": "98278efb",
			"getDirectReferralIncome(address)": "aa7ed462",
			"getEstimatedReturn(uint256,uint256)": "bd297178",
			"getLevelIncome(address)": "5bd4e16a",
			"getLevelIncomeDistribution(address)": "ef71ae56",
			"getPositionIds(address)": "28fe7031",
			"getReferralIncomeDetails(address)": "9d747bad",
			"getStakeByPositionId(uint256)": "797c7f5f",
			"getTotalIncome(address)": "c2d3c677",
			"getTotalLevelIncome(address)": "c5b89c0a",
			"getTotalUsers()": "9be572f6",
			"getUserLevel(address)": "21923bde",
			"isRegistered(address)": "c3c5a547",
			"levelRewards(uint256)": "e45a57d0",
			"owner()": "8da5cb5b",
			"ownerTransfer(address,uint256)": "d85c8966",
			"positionIdToUser(uint256)": "1e43eb27",
			"register(address)": "4420e486",
			"setLevelRewards(uint8[5])": "656596a5",
			"setStakingAPY(uint256,uint256)": "4850d2a2",
			"stake(uint256,uint256)": "7b0472f0",
			"stakeCounter()": "f7b17d10",
			"stakingAPY(uint256)": "875bb4e2",
			"usdtToken()": "a98ad46c",
			"users(address)": "a87430ba",
			"withdrawUSDT(uint256)": "3ea521ef"
		}
	},
	"abi": [
		{
			"inputs": [
				{
					"internalType": "address",
					"name": "_usdtToken",
					"type": "address"
				}
			],
			"stateMutability": "nonpayable",
			"type": "constructor"
		},
		{
			"anonymous": false,
			"inputs": [
				{
					"indexed": true,
					"internalType": "address",
					"name": "user",
					"type": "address"
				},
				{
					"indexed": false,
					"internalType": "uint256",
					"name": "stakeId",
					"type": "uint256"
				},
				{
					"indexed": false,
					"internalType": "uint256",
					"name": "amount",
					"type": "uint256"
				},
				{
					"indexed": false,
					"internalType": "uint256",
					"name": "reward",
					"type": "uint256"
				}
			],
			"name": "Claimed",
			"type": "event"
		},
		{
			"inputs": [
				{
					"internalType": "uint256",
					"name": "",
					"type": "uint256"
				}
			],
			"name": "allUsers",
			"outputs": [
				{
					"internalType": "address",
					"name": "",
					"type": "address"
				}
			],
			"stateMutability": "view",
			"type": "function"
		},
		{
			"inputs": [
				{
					"internalType": "uint256",
					"name": "_positionId",
					"type": "uint256"
				}
			],
			"name": "claim",
			"outputs": [],
			"stateMutability": "nonpayable",
			"type": "function"
		},
		{
			"inputs": [
				{
					"internalType": "uint256",
					"name": "_positionId",
					"type": "uint256"
				}
			],
			"name": "claimEmergency",
			"outputs": [],
			"stateMutability": "nonpayable",
			"type": "function"
		},
		{
			"inputs": [
				{
					"internalType": "address",
					"name": "",
					"type": "address"
				}
			],
			"name": "directReferralIncome",
			"outputs": [
				{
					"internalType": "uint256",
					"name": "",
					"type": "uint256"
				}
			],
			"stateMutability": "view",
			"type": "function"
		},
		{
			"inputs": [
				{
					"internalType": "address",
					"name": "",
					"type": "address"
				},
				{
					"internalType": "uint256",
					"name": "",
					"type": "uint256"
				}
			],
			"name": "directReferrals",
			"outputs": [
				{
					"internalType": "address",
					"name": "referralAddress",
					"type": "address"
				},
				{
					"internalType": "uint256",
					"name": "incomeEarned",
					"type": "uint256"
				},
				{
					"internalType": "uint256",
					"name": "timestamp",
					"type": "uint256"
				}
			],
			"stateMutability": "view",
			"type": "function"
		},
		{
			"inputs": [],
			"name": "getContractBalance",
			"outputs": [
				{
					"internalType": "uint256",
					"name": "",
					"type": "uint256"
				}
			],
			"stateMutability": "view",
			"type": "function"
		},
		{
			"inputs": [
				{
					"internalType": "address",
					"name": "user",
					"type": "address"
				}
			],
			"name": "getDirectReferralCount",
			"outputs": [
				{
					"internalType": "uint256",
					"name": "",
					"type": "uint256"
				}
			],
			"stateMutability": "view",
			"type": "function"
		},
		{
			"inputs": [
				{
					"internalType": "address",
					"name": "user",
					"type": "address"
				}
			],
			"name": "getDirectReferralIncome",
			"outputs": [
				{
					"internalType": "uint256",
					"name": "",
					"type": "uint256"
				}
			],
			"stateMutability": "view",
			"type": "function"
		},
		{
			"inputs": [
				{
					"internalType": "uint256",
					"name": "amount",
					"type": "uint256"
				},
				{
					"internalType": "uint256",
					"name": "numDays",
					"type": "uint256"
				}
			],
			"name": "getEstimatedReturn",
			"outputs": [
				{
					"internalType": "uint256",
					"name": "interest",
					"type": "uint256"
				},
				{
					"internalType": "uint256",
					"name": "totalReturn",
					"type": "uint256"
				}
			],
			"stateMutability": "view",
			"type": "function"
		},
		{
			"inputs": [
				{
					"internalType": "address",
					"name": "user",
					"type": "address"
				}
			],
			"name": "getLevelIncome",
			"outputs": [
				{
					"internalType": "uint256",
					"name": "",
					"type": "uint256"
				}
			],
			"stateMutability": "view",
			"type": "function"
		},
		{
			"inputs": [
				{
					"internalType": "address",
					"name": "_user",
					"type": "address"
				}
			],
			"name": "getLevelIncomeDistribution",
			"outputs": [
				{
					"components": [
						{
							"internalType": "address",
							"name": "receiverAddress",
							"type": "address"
						},
						{
							"internalType": "uint256",
							"name": "stakeId",
							"type": "uint256"
						},
						{
							"internalType": "uint256",
							"name": "stakeAmount",
							"type": "uint256"
						},
						{
							"internalType": "uint256",
							"name": "incomeReceived",
							"type": "uint256"
						},
						{
							"internalType": "address",
							"name": "uplineAddress",
							"type": "address"
						},
						{
							"internalType": "uint256",
							"name": "timestamp",
							"type": "uint256"
						},
						{
							"internalType": "uint8",
							"name": "level",
							"type": "uint8"
						}
					],
					"internalType": "struct SikT.LevelIncomeData[]",
					"name": "",
					"type": "tuple[]"
				}
			],
			"stateMutability": "view",
			"type": "function"
		},
		{
			"inputs": [
				{
					"internalType": "address",
					"name": "_user",
					"type": "address"
				}
			],
			"name": "getPositionIds",
			"outputs": [
				{
					"internalType": "uint256[]",
					"name": "",
					"type": "uint256[]"
				}
			],
			"stateMutability": "view",
			"type": "function"
		},
		{
			"inputs": [
				{
					"internalType": "address",
					"name": "user",
					"type": "address"
				}
			],
			"name": "getReferralIncomeDetails",
			"outputs": [
				{
					"internalType": "address[]",
					"name": "referralAddresses",
					"type": "address[]"
				},
				{
					"internalType": "uint256[]",
					"name": "incomes",
					"type": "uint256[]"
				},
				{
					"internalType": "uint256[]",
					"name": "timestamps",
					"type": "uint256[]"
				}
			],
			"stateMutability": "view",
			"type": "function"
		},
		{
			"inputs": [
				{
					"internalType": "uint256",
					"name": "_positionId",
					"type": "uint256"
				}
			],
			"name": "getStakeByPositionId",
			"outputs": [
				{
					"internalType": "address",
					"name": "user",
					"type": "address"
				},
				{
					"internalType": "uint256",
					"name": "stakeId",
					"type": "uint256"
				},
				{
					"internalType": "uint256",
					"name": "amount",
					"type": "uint256"
				},
				{
					"internalType": "uint256",
					"name": "startDate",
					"type": "uint256"
				},
				{
					"internalType": "uint256",
					"name": "endDate",
					"type": "uint256"
				},
				{
					"internalType": "uint256",
					"name": "apy",
					"type": "uint256"
				},
				{
					"internalType": "uint256",
					"name": "perDayInterest",
					"type": "uint256"
				},
				{
					"internalType": "bool",
					"name": "status",
					"type": "bool"
				}
			],
			"stateMutability": "view",
			"type": "function"
		},
		{
			"inputs": [
				{
					"internalType": "address",
					"name": "user",
					"type": "address"
				}
			],
			"name": "getTotalIncome",
			"outputs": [
				{
					"internalType": "uint256",
					"name": "",
					"type": "uint256"
				}
			],
			"stateMutability": "view",
			"type": "function"
		},
		{
			"inputs": [
				{
					"internalType": "address",
					"name": "user",
					"type": "address"
				}
			],
			"name": "getTotalLevelIncome",
			"outputs": [
				{
					"internalType": "uint256",
					"name": "",
					"type": "uint256"
				}
			],
			"stateMutability": "view",
			"type": "function"
		},
		{
			"inputs": [],
			"name": "getTotalUsers",
			"outputs": [
				{
					"internalType": "uint256",
					"name": "",
					"type": "uint256"
				}
			],
			"stateMutability": "view",
			"type": "function"
		},
		{
			"inputs": [
				{
					"internalType": "address",
					"name": "user",
					"type": "address"
				}
			],
			"name": "getUserLevel",
			"outputs": [
				{
					"internalType": "uint8",
					"name": "",
					"type": "uint8"
				}
			],
			"stateMutability": "view",
			"type": "function"
		},
		{
			"inputs": [
				{
					"internalType": "address",
					"name": "user",
					"type": "address"
				}
			],
			"name": "isRegistered",
			"outputs": [
				{
					"internalType": "bool",
					"name": "",
					"type": "bool"
				}
			],
			"stateMutability": "view",
			"type": "function"
		},
		{
			"inputs": [
				{
					"internalType": "uint256",
					"name": "",
					"type": "uint256"
				}
			],
			"name": "levelRewards",
			"outputs": [
				{
					"internalType": "uint8",
					"name": "",
					"type": "uint8"
				}
			],
			"stateMutability": "view",
			"type": "function"
		},
		{
			"inputs": [],
			"name": "owner",
			"outputs": [
				{
					"internalType": "address",
					"name": "",
					"type": "address"
				}
			],
			"stateMutability": "view",
			"type": "function"
		},
		{
			"inputs": [
				{
					"internalType": "address",
					"name": "to",
					"type": "address"
				},
				{
					"internalType": "uint256",
					"name": "amount",
					"type": "uint256"
				}
			],
			"name": "ownerTransfer",
			"outputs": [],
			"stateMutability": "nonpayable",
			"type": "function"
		},
		{
			"inputs": [
				{
					"internalType": "uint256",
					"name": "",
					"type": "uint256"
				}
			],
			"name": "positionIdToUser",
			"outputs": [
				{
					"internalType": "address",
					"name": "",
					"type": "address"
				}
			],
			"stateMutability": "view",
			"type": "function"
		},
		{
			"inputs": [
				{
					"internalType": "address",
					"name": "referrer",
					"type": "address"
				}
			],
			"name": "register",
			"outputs": [],
			"stateMutability": "nonpayable",
			"type": "function"
		},
		{
			"inputs": [
				{
					"internalType": "uint8[5]",
					"name": "newRewards",
					"type": "uint8[5]"
				}
			],
			"name": "setLevelRewards",
			"outputs": [],
			"stateMutability": "nonpayable",
			"type": "function"
		},
		{
			"inputs": [
				{
					"internalType": "uint256",
					"name": "numDays",
					"type": "uint256"
				},
				{
					"internalType": "uint256",
					"name": "apy",
					"type": "uint256"
				}
			],
			"name": "setStakingAPY",
			"outputs": [],
			"stateMutability": "nonpayable",
			"type": "function"
		},
		{
			"inputs": [
				{
					"internalType": "uint256",
					"name": "numDays",
					"type": "uint256"
				},
				{
					"internalType": "uint256",
					"name": "amount",
					"type": "uint256"
				}
			],
			"name": "stake",
			"outputs": [],
			"stateMutability": "nonpayable",
			"type": "function"
		},
		{
			"inputs": [],
			"name": "stakeCounter",
			"outputs": [
				{
					"internalType": "uint256",
					"name": "",
					"type": "uint256"
				}
			],
			"stateMutability": "view",
			"type": "function"
		},
		{
			"inputs": [
				{
					"internalType": "uint256",
					"name": "",
					"type": "uint256"
				}
			],
			"name": "stakingAPY",
			"outputs": [
				{
					"internalType": "uint256",
					"name": "",
					"type": "uint256"
				}
			],
			"stateMutability": "view",
			"type": "function"
		},
		{
			"inputs": [],
			"name": "usdtToken",
			"outputs": [
				{
					"internalType": "contract IERC20",
					"name": "",
					"type": "address"
				}
			],
			"stateMutability": "view",
			"type": "function"
		},
		{
			"inputs": [
				{
					"internalType": "address",
					"name": "",
					"type": "address"
				}
			],
			"name": "users",
			"outputs": [
				{
					"internalType": "address",
					"name": "referrer",
					"type": "address"
				},
				{
					"internalType": "uint256",
					"name": "totalIncome",
					"type": "uint256"
				},
				{
					"internalType": "uint256",
					"name": "levelIncome",
					"type": "uint256"
				},
				{
					"internalType": "bool",
					"name": "registered",
					"type": "bool"
				}
			],
			"stateMutability": "view",
			"type": "function"
		},
		{
			"inputs": [
				{
					"internalType": "uint256",
					"name": "amount",
					"type": "uint256"
				}
			],
			"name": "withdrawUSDT",
			"outputs": [],
			"stateMutability": "nonpayable",
			"type": "function"
		}
	]
}