{
	"data": {
		"bytecode": {
			"linkReferences": {},
			"object": "608060405260016009556040516148f43803806148f4833981810160405281019061002a919061031f565b335f806101000a81548173ffffffffffffffffffffffffffffffffffffffff021916908373ffffffffffffffffffffffffffffffffffffffff16021790555060016003819055508060015f6101000a81548173ffffffffffffffffffffffffffffffffffffffff021916908373ffffffffffffffffffffffffffffffffffffffff16021790555060016004819055505f8054906101000a900473ffffffffffffffffffffffffffffffffffffffff1673ffffffffffffffffffffffffffffffffffffffff1660025f3373ffffffffffffffffffffffffffffffffffffffff1673ffffffffffffffffffffffffffffffffffffffff1681526020019081526020015f205f015f9054906101000a900473ffffffffffffffffffffffffffffffffffffffff1673ffffffffffffffffffffffffffffffffffffffff16146101bf5760025f3373ffffffffffffffffffffffffffffffffffffffff1673ffffffffffffffffffffffffffffffffffffffff1681526020019081526020015f206002015f8154809291906101b990610380565b91905055505b61271060085f6103e881526020019081526020015f208190555061271060085f61032081526020019081526020015f2081905550600a6103e8908060018154018082558091505060019003905f5260205f20015f9091909190915055600a610320908060018154018082558091505060019003905f5260205f20015f9091909190915055600a600d5f600181526020019081526020015f20819055506005600d5f600281526020019081526020015f20819055506004600d5f600381526020019081526020015f20819055506003600d5f600481526020019081526020015f20819055506002600d5f600581526020019081526020015f2081905550506103c7565b5f80fd5b5f73ffffffffffffffffffffffffffffffffffffffff82169050919050565b5f6102ee826102c5565b9050919050565b6102fe816102e4565b8114610308575f80fd5b50565b5f81519050610319816102f5565b92915050565b5f60208284031215610334576103336102c1565b5b5f6103418482850161030b565b91505092915050565b7f4e487b71000000000000000000000000000000000000000000000000000000005f52601160045260245ffd5b5f819050919050565b5f61038a82610377565b91507fffffffffffffffffffffffffffffffffffffffffffffffffffffffffffffffff82036103bc576103bb61034a565b5b600182019050919050565b614520806103d45f395ff3fe608060405234801561000f575f80fd5b506004361061020f575f3560e01c806399fbab8811610123578063b77b7dc9116100ab578063d21b7abf1161007a578063d21b7abf14610697578063d7406f5c146106b3578063f59a843a146106e3578063f6e8887314610713578063fc0c546a146107435761020f565b8063b77b7dc9146105eb578063b838ec861461061b578063bc2591071461064b578063c7c9d0551461067b5761020f565b8063a54586f8116100f2578063a54586f814610503578063a567ac2e1461053b578063a87430ba1461056b578063aa7ed4621461059f578063b0f0475b146105cf5761020f565b806399fbab88146104735780639dc4b9c9146104ab578063a126d601146104c9578063a1e6a255146104e55761020f565b806340d98a44116101a6578063591d8fea11610175578063591d8fea146104075780635bffa8ff14610423578063853828b61461042d5780638b7afe2e146104375780638da5cb5b146104555761020f565b806340d98a441461035957806341ee13be1461038957806345eae373146103a75780634c8f2a78146103d75761020f565b80631df9758b116101e25780631df9758b146102c157806321923bde146102f157806323e252f4146103215780632ad534401461033d5761020f565b8063039af9eb146102135780630c196a74146102435780631131c8cd146102735780631271fde014610291575b5f80fd5b61022d600480360381019061022891906131c2565b610761565b60405161023a91906131fc565b60405180910390f35b61025d600480360381019061025891906131c2565b610776565b60405161026a91906131fc565b60405180910390f35b61027b610790565b60405161028891906131fc565b60405180910390f35b6102ab60048036038101906102a6919061326f565b610796565b6040516102b891906131fc565b60405180910390f35b6102db60048036038101906102d691906131c2565b6107df565b6040516102e891906131fc565b60405180910390f35b61030b6004803603810190610306919061326f565b61093c565b60405161031891906131fc565b60405180910390f35b61033b6004803603810190610336919061329a565b610985565b005b610357600480360381019061035291906132ea565b610995565b005b610373600480360381019061036e919061326f565b6109a4565b60405161038091906133df565b60405180910390f35b610391610a37565b60405161039e91906133df565b60405180910390f35b6103c160048036038101906103bc91906133ff565b610a8d565b6040516103ce91906131fc565b60405180910390f35b6103f160048036038101906103ec91906131c2565b610ab8565b6040516103fe91906131fc565b60405180910390f35b610421600480360381019061041c91906131c2565b610ad8565b005b61042b610e15565b005b610435610fb8565b005b61043f611220565b60405161044c91906131fc565b60405180910390f35b61045d6112bf565b60405161046a919061344c565b60405180910390f35b61048d600480360381019061048891906131c2565b6112e2565b6040516104a29998979695949392919061347f565b60405180910390f35b6104b3611357565b6040516104c091906131fc565b60405180910390f35b6104e360048036038101906104de91906131c2565b61135d565b005b6104ed611895565b6040516104fa91906131fc565b60405180910390f35b61051d600480360381019061051891906133ff565b61189b565b6040516105329998979695949392919061347f565b60405180910390f35b6105556004803603810190610550919061326f565b61192a565b6040516105629190613686565b60405180910390f35b6105856004803603810190610580919061326f565b611b46565b6040516105969594939291906136a6565b60405180910390f35b6105b960048036038101906105b4919061326f565b611b97565b6040516105c691906131fc565b60405180910390f35b6105e960048036038101906105e491906132ea565b611be0565b005b6106056004803603810190610600919061326f565b611cad565b60405161061291906131fc565b60405180910390f35b610635600480360381019061063091906131c2565b611cc2565b60405161064291906137ac565b60405180910390f35b610665600480360381019061066091906131c2565b611da2565b60405161067291906131fc565b60405180910390f35b610695600480360381019061069091906132ea565b611ef7565b005b6106b160048036038101906106ac91906131c2565b611fa1565b005b6106cd60048036038101906106c891906131c2565b6123cf565b6040516106da91906131fc565b60405180910390f35b6106fd60048036038101906106f891906131c2565b6125f1565b60405161070a91906131fc565b60405180910390f35b61072d6004803603810190610728919061326f565b612606565b60405161073a91906131fc565b60405180910390f35b61074b61261b565b6040516107589190613821565b60405180910390f35b6008602052805f5260405f205f915090505481565b5f60085f8381526020019081526020015f20549050919050565b60035481565b5f60025f8373ffffffffffffffffffffffffffffffffffffffff1673ffffffffffffffffffffffffffffffffffffffff1681526020019081526020015f20600401549050919050565b5f8060065f8481526020019081526020015f20604051806101200160405290815f8201548152602001600182015f9054906101000a900473ffffffffffffffffffffffffffffffffffffffff1673ffffffffffffffffffffffffffffffffffffffff1673ffffffffffffffffffffffffffffffffffffffff1681526020016002820154815260200160038201548152602001600482015481526020016005820154815260200160068201548152602001600782015f9054906101000a900460ff1615151515815260200160088201548152505090505f815f0151116108f9576040517f08c379a00000000000000000000000000000000000000000000000000000000081526004016108f090613894565b60405180910390fd5b5f8160600151421061090d575f9050610932565b620151808260400151836060015161092591906138df565b61092f919061393f565b90505b8092505050919050565b5f60025f8373ffffffffffffffffffffffffffffffffffffffff1673ffffffffffffffffffffffffffffffffffffffff1681526020019081526020015f20600301549050919050565b610990838383612640565b505050565b6109a082825f612640565b5050565b606060075f8373ffffffffffffffffffffffffffffffffffffffff1673ffffffffffffffffffffffffffffffffffffffff1681526020019081526020015f20805480602002602001604051908101604052809291908181526020018280548015610a2b57602002820191905f5260205f20905b815481526020019060010190808311610a17575b50505050509050919050565b6060600a805480602002602001604051908101604052809291908181526020018280548015610a8357602002820191905f5260205f20905b815481526020019060010190808311610a6f575b5050505050905090565b6007602052815f5260405f208181548110610aa6575f80fd5b905f5260205f20015f91509150505481565b600a8181548110610ac7575f80fd5b905f5260205f20015f915090505481565b5f60065f8381526020019081526020015f2090505f815f015411610b31576040517f08c379a0000000000000000000000000000000000000000000000000000000008152600401610b2890613894565b60405180910390fd5b806007015f9054906101000a900460ff16610b81576040517f08c379a0000000000000000000000000000000000000000000000000000000008152600401610b78906139b9565b60405180910390fd5b3373ffffffffffffffffffffffffffffffffffffffff16816001015f9054906101000a900473ffffffffffffffffffffffffffffffffffffffff1673ffffffffffffffffffffffffffffffffffffffff1614610c12576040517f08c379a0000000000000000000000000000000000000000000000000000000008152600401610c0990613a47565b60405180910390fd5b5f6201518082600201548360030154610c2b91906138df565b610c35919061393f565b90506103e88114610c7b576040517f08c379a0000000000000000000000000000000000000000000000000000000008152600401610c7290613ad5565b60405180910390fd5b5f62015180836008015442610c9091906138df565b610c9a919061393f565b90505f8111610cde576040517f08c379a0000000000000000000000000000000000000000000000000000000008152600401610cd590613b63565b60405180910390fd5b5f8260085f8581526020019081526020015f2054610cfc919061393f565b90505f61271083866005015484610d139190613b81565b610d1d9190613b81565b610d27919061393f565b905042856008018190555060015f9054906101000a900473ffffffffffffffffffffffffffffffffffffffff1673ffffffffffffffffffffffffffffffffffffffff1663a9059cbb33836040518363ffffffff1660e01b8152600401610d8e929190613bc2565b6020604051808303815f875af1158015610daa573d5f803e3d5ffd5b505050506040513d601f19601f82011682018060405250810190610dce9190613c13565b610e0d576040517f08c379a0000000000000000000000000000000000000000000000000000000008152600401610e0490613c88565b60405180910390fd5b505050505050565b5f600c5f3373ffffffffffffffffffffffffffffffffffffffff1673ffffffffffffffffffffffffffffffffffffffff1681526020019081526020015f205490505f8111610e98576040517f08c379a0000000000000000000000000000000000000000000000000000000008152600401610e8f90613d16565b60405180910390fd5b5f600c5f3373ffffffffffffffffffffffffffffffffffffffff1673ffffffffffffffffffffffffffffffffffffffff1681526020019081526020015f208190555060015f9054906101000a900473ffffffffffffffffffffffffffffffffffffffff1673ffffffffffffffffffffffffffffffffffffffff1663a9059cbb33836040518363ffffffff1660e01b8152600401610f36929190613bc2565b6020604051808303815f875af1158015610f52573d5f803e3d5ffd5b505050506040513d601f19601f82011682018060405250810190610f769190613c13565b610fb5576040517f08c379a0000000000000000000000000000000000000000000000000000000008152600401610fac90613da4565b60405180910390fd5b50565b5f8054906101000a900473ffffffffffffffffffffffffffffffffffffffff1673ffffffffffffffffffffffffffffffffffffffff163373ffffffffffffffffffffffffffffffffffffffff1614611045576040517f08c379a000000000000000000000000000000000000000000000000000000000815260040161103c90613e32565b60405180910390fd5b5f60015f9054906101000a900473ffffffffffffffffffffffffffffffffffffffff1673ffffffffffffffffffffffffffffffffffffffff166370a08231306040518263ffffffff1660e01b81526004016110a0919061344c565b602060405180830381865afa1580156110bb573d5f803e3d5ffd5b505050506040513d601f19601f820116820180604052508101906110df9190613e64565b90505f8111611123576040517f08c379a000000000000000000000000000000000000000000000000000000000815260040161111a90613ed9565b60405180910390fd5b60015f9054906101000a900473ffffffffffffffffffffffffffffffffffffffff1673ffffffffffffffffffffffffffffffffffffffff1663a9059cbb5f8054906101000a900473ffffffffffffffffffffffffffffffffffffffff16836040518363ffffffff1660e01b815260040161119e929190613bc2565b6020604051808303815f875af11580156111ba573d5f803e3d5ffd5b505050506040513d601f19601f820116820180604052508101906111de9190613c13565b61121d576040517f08c379a000000000000000000000000000000000000000000000000000000000815260040161121490613f41565b60405180910390fd5b50565b5f60015f9054906101000a900473ffffffffffffffffffffffffffffffffffffffff1673ffffffffffffffffffffffffffffffffffffffff166370a08231306040518263ffffffff1660e01b815260040161127b919061344c565b602060405180830381865afa158015611296573d5f803e3d5ffd5b505050506040513d601f19601f820116820180604052508101906112ba9190613e64565b905090565b5f8054906101000a900473ffffffffffffffffffffffffffffffffffffffff1681565b6006602052805f5260405f205f91509050805f015490806001015f9054906101000a900473ffffffffffffffffffffffffffffffffffffffff1690806002015490806003015490806004015490806005015490806006015490806007015f9054906101000a900460ff16908060080154905089565b60045481565b5f60065f8381526020019081526020015f209050806007015f9054906101000a900460ff166113c1576040517f08c379a00000000000000000000000000000000000000000000000000000000081526004016113b890613fa9565b60405180910390fd5b5f8054906101000a900473ffffffffffffffffffffffffffffffffffffffff1673ffffffffffffffffffffffffffffffffffffffff163373ffffffffffffffffffffffffffffffffffffffff1614806114685750806001015f9054906101000a900473ffffffffffffffffffffffffffffffffffffffff1673ffffffffffffffffffffffffffffffffffffffff163373ffffffffffffffffffffffffffffffffffffffff16145b6114a7576040517f08c379a000000000000000000000000000000000000000000000000000000000815260040161149e90614011565b60405180910390fd5b80600301544210156114ee576040517f08c379a00000000000000000000000000000000000000000000000000000000081526004016114e590614079565b60405180910390fd5b60015f9054906101000a900473ffffffffffffffffffffffffffffffffffffffff1673ffffffffffffffffffffffffffffffffffffffff1663a9059cbb826001015f9054906101000a900473ffffffffffffffffffffffffffffffffffffffff1683600501546040518363ffffffff1660e01b8152600401611571929190613bc2565b6020604051808303815f875af115801561158d573d5f803e3d5ffd5b505050506040513d601f19601f820116820180604052508101906115b19190613c13565b6115f0576040517f08c379a00000000000000000000000000000000000000000000000000000000081526004016115e790613f41565b60405180910390fd5b5f816006015411156116ff5760015f9054906101000a900473ffffffffffffffffffffffffffffffffffffffff1673ffffffffffffffffffffffffffffffffffffffff1663a9059cbb826001015f9054906101000a900473ffffffffffffffffffffffffffffffffffffffff1683600601546040518363ffffffff1660e01b815260040161167f929190613bc2565b6020604051808303815f875af115801561169b573d5f803e3d5ffd5b505050506040513d601f19601f820116820180604052508101906116bf9190613c13565b6116fe576040517f08c379a00000000000000000000000000000000000000000000000000000000081526004016116f590613c88565b60405180910390fd5b5b5f816007015f6101000a81548160ff021916908315150217905550817fbf542298705ed6fd22ddf94ee2db731ced9191396e6e7f7b6862803555f9ff2160405160405180910390a260055f3373ffffffffffffffffffffffffffffffffffffffff1673ffffffffffffffffffffffffffffffffffffffff1681526020019081526020015f2060065f8481526020019081526020015f20908060018154018082558091505060019003905f5260205f2090600902015f909190919091505f820154815f0155600182015f9054906101000a900473ffffffffffffffffffffffffffffffffffffffff16816001015f6101000a81548173ffffffffffffffffffffffffffffffffffffffff021916908373ffffffffffffffffffffffffffffffffffffffff1602179055506002820154816002015560038201548160030155600482015481600401556005820154816005015560068201548160060155600782015f9054906101000a900460ff16816007015f6101000a81548160ff0219169083151502179055506008820154816008015550505050565b60095481565b6005602052815f5260405f2081815481106118b4575f80fd5b905f5260205f2090600902015f9150915050805f015490806001015f9054906101000a900473ffffffffffffffffffffffffffffffffffffffff1690806002015490806003015490806004015490806005015490806006015490806007015f9054906101000a900460ff16908060080154905089565b60605f60075f8473ffffffffffffffffffffffffffffffffffffffff1673ffffffffffffffffffffffffffffffffffffffff1681526020019081526020015f208054806020026020016040519081016040528092919081815260200182805480156119b257602002820191905f5260205f20905b81548152602001906001019080831161199e575b505050505090505f815190505f8167ffffffffffffffff8111156119d9576119d8614097565b5b604051908082528060200260200182016040528015611a1257816020015b6119ff613130565b8152602001906001900390816119f75790505b5090505f5b82811015611b3a575f848281518110611a3357611a326140c4565b5b6020026020010151905060065f8281526020019081526020015f20604051806101200160405290815f8201548152602001600182015f9054906101000a900473ffffffffffffffffffffffffffffffffffffffff1673ffffffffffffffffffffffffffffffffffffffff1673ffffffffffffffffffffffffffffffffffffffff1681526020016002820154815260200160038201548152602001600482015481526020016005820154815260200160068201548152602001600782015f9054906101000a900460ff16151515158152602001600882015481525050838381518110611b2157611b206140c4565b5b6020026020010181905250508080600101915050611a17565b50809350505050919050565b6002602052805f5260405f205f91509050805f015f9054906101000a900473ffffffffffffffffffffffffffffffffffffffff16908060010154908060020154908060030154908060040154905085565b5f60025f8373ffffffffffffffffffffffffffffffffffffffff1673ffffffffffffffffffffffffffffffffffffffff1681526020019081526020015f20600101549050919050565b3373ffffffffffffffffffffffffffffffffffffffff165f8054906101000a900473ffffffffffffffffffffffffffffffffffffffff1673ffffffffffffffffffffffffffffffffffffffff1614611c6d576040517f08c379a0000000000000000000000000000000000000000000000000000000008152600401611c6490614161565b60405180910390fd5b8060085f8481526020019081526020015f2081905550600a82908060018154018082558091505060019003905f5260205f20015f90919091909150555050565b600b602052805f5260405f205f915090505481565b611cca613130565b60065f8381526020019081526020015f20604051806101200160405290815f8201548152602001600182015f9054906101000a900473ffffffffffffffffffffffffffffffffffffffff1673ffffffffffffffffffffffffffffffffffffffff1673ffffffffffffffffffffffffffffffffffffffff1681526020016002820154815260200160038201548152602001600482015481526020016005820154815260200160068201548152602001600782015f9054906101000a900460ff161515151581526020016008820154815250509050919050565b5f8060065f8481526020019081526020015f20604051806101200160405290815f8201548152602001600182015f9054906101000a900473ffffffffffffffffffffffffffffffffffffffff1673ffffffffffffffffffffffffffffffffffffffff1673ffffffffffffffffffffffffffffffffffffffff1681526020016002820154815260200160038201548152602001600482015481526020016005820154815260200160068201548152602001600782015f9054906101000a900460ff1615151515815260200160088201548152505090505f815f015111611ebc576040517f08c379a0000000000000000000000000000000000000000000000000000000008152600401611eb390613894565b60405180910390fd5b80606001514210611ed0575f915050611ef2565b62015180428260600151611ee491906138df565b611eee919061393f565b9150505b919050565b3373ffffffffffffffffffffffffffffffffffffffff165f8054906101000a900473ffffffffffffffffffffffffffffffffffffffff1673ffffffffffffffffffffffffffffffffffffffff1614611f84576040517f08c379a0000000000000000000000000000000000000000000000000000000008152600401611f7b90614161565b60405180910390fd5b8060065f8481526020019081526020015f20600301819055505050565b5f60065f8381526020019081526020015f2090503373ffffffffffffffffffffffffffffffffffffffff16816001015f9054906101000a900473ffffffffffffffffffffffffffffffffffffffff1673ffffffffffffffffffffffffffffffffffffffff1614612046576040517f08c379a000000000000000000000000000000000000000000000000000000000815260040161203d906141ef565b60405180910390fd5b60011515816007015f9054906101000a900460ff1615151461209d576040517f08c379a0000000000000000000000000000000000000000000000000000000008152600401612094906139b9565b60405180910390fd5b5f62015180826002015483600301546120b691906138df565b6120c0919061393f565b90506103208114612106576040517f08c379a00000000000000000000000000000000000000000000000000000000081526004016120fd9061427d565b60405180910390fd5b5f826007015f6101000a81548160ff02191690831515021790555081600301544211156121b0575f82600601548360050154612142919061429b565b90503373ffffffffffffffffffffffffffffffffffffffff1681604051612168906142fb565b5f6040518083038185875af1925050503d805f81146121a2576040519150601f19603f3d011682016040523d82523d5f602084013e6121a7565b606091505b50505050612290565b60015f9054906101000a900473ffffffffffffffffffffffffffffffffffffffff1673ffffffffffffffffffffffffffffffffffffffff1663a9059cbb3384600501546040518363ffffffff1660e01b8152600401612210929190613bc2565b6020604051808303815f875af115801561222c573d5f803e3d5ffd5b505050506040513d601f19601f820116820180604052508101906122509190613c13565b61228f576040517f08c379a000000000000000000000000000000000000000000000000000000000815260040161228690613f41565b60405180910390fd5b5b60055f3373ffffffffffffffffffffffffffffffffffffffff1673ffffffffffffffffffffffffffffffffffffffff1681526020019081526020015f2082908060018154018082558091505060019003905f5260205f2090600902015f909190919091505f820154815f0155600182015f9054906101000a900473ffffffffffffffffffffffffffffffffffffffff16816001015f6101000a81548173ffffffffffffffffffffffffffffffffffffffff021916908373ffffffffffffffffffffffffffffffffffffffff1602179055506002820154816002015560038201548160030155600482015481600401556005820154816005015560068201548160060155600782015f9054906101000a900460ff16816007015f6101000a81548160ff021916908315150217905550600882015481600801555050505050565b5f8060065f8481526020019081526020015f20604051806101200160405290815f8201548152602001600182015f9054906101000a900473ffffffffffffffffffffffffffffffffffffffff1673ffffffffffffffffffffffffffffffffffffffff1673ffffffffffffffffffffffffffffffffffffffff1681526020016002820154815260200160038201548152602001600482015481526020016005820154815260200160068201548152602001600782015f9054906101000a900460ff1615151515815260200160088201548152505090505f815f0151116124e9576040517f08c379a00000000000000000000000000000000000000000000000000000000081526004016124e090613894565b60405180910390fd5b8060e0015161252d576040517f08c379a0000000000000000000000000000000000000000000000000000000008152600401612524906139b9565b60405180910390fd5b5f620151808260400151836060015161254691906138df565b612550919061393f565b90505f60085f8381526020019081526020015f2054116125a5576040517f08c379a000000000000000000000000000000000000000000000000000000000815260040161259c90614359565b60405180910390fd5b5f8160085f8481526020019081526020015f20546125c3919061393f565b90505f6127108460a00151836125d99190613b81565b6125e3919061393f565b905080945050505050919050565b600d602052805f5260405f205f915090505481565b600c602052805f5260405f205f915090505481565b60015f9054906101000a900473ffffffffffffffffffffffffffffffffffffffff1681565b5f60085f8581526020019081526020015f205411612693576040517f08c379a000000000000000000000000000000000000000000000000000000000815260040161268a906143c1565b60405180910390fd5b60015f9054906101000a900473ffffffffffffffffffffffffffffffffffffffff1673ffffffffffffffffffffffffffffffffffffffff166323b872dd3330856040518463ffffffff1660e01b81526004016126f1939291906143df565b6020604051808303815f875af115801561270d573d5f803e3d5ffd5b505050506040513d601f19601f820116820180604052508101906127319190613c13565b612770576040517f08c379a000000000000000000000000000000000000000000000000000000000815260040161276790613f41565b60405180910390fd5b5f8073ffffffffffffffffffffffffffffffffffffffff1660025f3373ffffffffffffffffffffffffffffffffffffffff1673ffffffffffffffffffffffffffffffffffffffff1681526020019081526020015f205f015f9054906101000a900473ffffffffffffffffffffffffffffffffffffffff1673ffffffffffffffffffffffffffffffffffffffff16036129e4575f73ffffffffffffffffffffffffffffffffffffffff168273ffffffffffffffffffffffffffffffffffffffff161415801561286a57503373ffffffffffffffffffffffffffffffffffffffff168273ffffffffffffffffffffffffffffffffffffffff1614155b15612946578160025f3373ffffffffffffffffffffffffffffffffffffffff1673ffffffffffffffffffffffffffffffffffffffff1681526020019081526020015f205f015f6101000a81548173ffffffffffffffffffffffffffffffffffffffff021916908373ffffffffffffffffffffffffffffffffffffffff16021790555060025f8373ffffffffffffffffffffffffffffffffffffffff1673ffffffffffffffffffffffffffffffffffffffff1681526020019081526020015f206004015f81548092919061293c90614414565b91905055506129e3565b5f8054906101000a900473ffffffffffffffffffffffffffffffffffffffff1660025f3373ffffffffffffffffffffffffffffffffffffffff1673ffffffffffffffffffffffffffffffffffffffff1681526020019081526020015f205f015f6101000a81548173ffffffffffffffffffffffffffffffffffffffff021916908373ffffffffffffffffffffffffffffffffffffffff1602179055505b5b5f8054906101000a900473ffffffffffffffffffffffffffffffffffffffff1673ffffffffffffffffffffffffffffffffffffffff1660025f3373ffffffffffffffffffffffffffffffffffffffff1673ffffffffffffffffffffffffffffffffffffffff1681526020019081526020015f205f015f9054906101000a900473ffffffffffffffffffffffffffffffffffffffff1673ffffffffffffffffffffffffffffffffffffffff1614612c35576064600d5f600181526020019081526020015f205484612ab49190613b81565b612abe919061393f565b905080600c5f60025f3373ffffffffffffffffffffffffffffffffffffffff1673ffffffffffffffffffffffffffffffffffffffff1681526020019081526020015f205f015f9054906101000a900473ffffffffffffffffffffffffffffffffffffffff1673ffffffffffffffffffffffffffffffffffffffff1673ffffffffffffffffffffffffffffffffffffffff1681526020019081526020015f205f828254612b6a919061429b565b925050819055503373ffffffffffffffffffffffffffffffffffffffff1660025f3373ffffffffffffffffffffffffffffffffffffffff1673ffffffffffffffffffffffffffffffffffffffff1681526020019081526020015f205f015f9054906101000a900473ffffffffffffffffffffffffffffffffffffffff1673ffffffffffffffffffffffffffffffffffffffff167faeecfcda1271d292db728294b8ae465871ec039d51404caf49a7eb0ade51770a83604051612c2c91906131fc565b60405180910390a35b60405180610120016040528060035481526020013373ffffffffffffffffffffffffffffffffffffffff1681526020014281526020016201518086612c7a9190613b81565b42612c85919061429b565b815260200160085f8781526020019081526020015f20548152602001848152602001612cc360085f8881526020019081526020015f20548787612e20565b81526020016001151581526020014281525060065f60035481526020019081526020015f205f820151815f01556020820151816001015f6101000a81548173ffffffffffffffffffffffffffffffffffffffff021916908373ffffffffffffffffffffffffffffffffffffffff16021790555060408201518160020155606082015181600301556080820151816004015560a0820151816005015560c0820151816006015560e0820151816007015f6101000a81548160ff021916908315150217905550610100820151816008015590505060075f3373ffffffffffffffffffffffffffffffffffffffff1673ffffffffffffffffffffffffffffffffffffffff1681526020019081526020015f20600354908060018154018082558091505060019003905f5260205f20015f9091909190915055600160035f828254612e0a919061429b565b92505081905550612e1a33612e43565b50505050565b5f6127108285612e309190613b81565b612e3a919061393f565b90509392505050565b5f60025f8373ffffffffffffffffffffffffffffffffffffffff1673ffffffffffffffffffffffffffffffffffffffff1681526020019081526020015f205f015f9054906101000a900473ffffffffffffffffffffffffffffffffffffffff1690505f600190505b6005811161312b575f73ffffffffffffffffffffffffffffffffffffffff168273ffffffffffffffffffffffffffffffffffffffff16031561312b575f6064600d5f8481526020019081526020015f205460065f6001600354612f0e91906138df565b81526020019081526020015f2060050154612f299190613b81565b612f33919061393f565b90508060025f8573ffffffffffffffffffffffffffffffffffffffff1673ffffffffffffffffffffffffffffffffffffffff1681526020019081526020015f206001015f828254612f84919061429b565b9250508190555060015f9054906101000a900473ffffffffffffffffffffffffffffffffffffffff1673ffffffffffffffffffffffffffffffffffffffff1663a9059cbb84836040518363ffffffff1660e01b8152600401612fe7929190613bc2565b6020604051808303815f875af1158015613003573d5f803e3d5ffd5b505050506040513d601f19601f820116820180604052508101906130279190613c13565b613066576040517f08c379a000000000000000000000000000000000000000000000000000000000815260040161305d906144a5565b60405180910390fd5b8273ffffffffffffffffffffffffffffffffffffffff167f83b5eadb65fb8fc1b70a3b205b38bb0c6a3e15e14bcbc9d4f366d6c772e6d83b82846040516130ae9291906144c3565b60405180910390a260025f8473ffffffffffffffffffffffffffffffffffffffff1673ffffffffffffffffffffffffffffffffffffffff1681526020019081526020015f205f015f9054906101000a900473ffffffffffffffffffffffffffffffffffffffff16925050808061312390614414565b915050612eab565b505050565b6040518061012001604052805f81526020015f73ffffffffffffffffffffffffffffffffffffffff1681526020015f81526020015f81526020015f81526020015f81526020015f81526020015f151581526020015f81525090565b5f80fd5b5f819050919050565b6131a18161318f565b81146131ab575f80fd5b50565b5f813590506131bc81613198565b92915050565b5f602082840312156131d7576131d661318b565b5b5f6131e4848285016131ae565b91505092915050565b6131f68161318f565b82525050565b5f60208201905061320f5f8301846131ed565b92915050565b5f73ffffffffffffffffffffffffffffffffffffffff82169050919050565b5f61323e82613215565b9050919050565b61324e81613234565b8114613258575f80fd5b50565b5f8135905061326981613245565b92915050565b5f602082840312156132845761328361318b565b5b5f6132918482850161325b565b91505092915050565b5f805f606084860312156132b1576132b061318b565b5b5f6132be868287016131ae565b93505060206132cf868287016131ae565b92505060406132e08682870161325b565b9150509250925092565b5f8060408385031215613300576132ff61318b565b5b5f61330d858286016131ae565b925050602061331e858286016131ae565b9150509250929050565b5f81519050919050565b5f82825260208201905092915050565b5f819050602082019050919050565b61335a8161318f565b82525050565b5f61336b8383613351565b60208301905092915050565b5f602082019050919050565b5f61338d82613328565b6133978185613332565b93506133a283613342565b805f5b838110156133d25781516133b98882613360565b97506133c483613377565b9250506001810190506133a5565b5085935050505092915050565b5f6020820190508181035f8301526133f78184613383565b905092915050565b5f80604083850312156134155761341461318b565b5b5f6134228582860161325b565b9250506020613433858286016131ae565b9150509250929050565b61344681613234565b82525050565b5f60208201905061345f5f83018461343d565b92915050565b5f8115159050919050565b61347981613465565b82525050565b5f610120820190506134935f83018c6131ed565b6134a0602083018b61343d565b6134ad604083018a6131ed565b6134ba60608301896131ed565b6134c760808301886131ed565b6134d460a08301876131ed565b6134e160c08301866131ed565b6134ee60e0830185613470565b6134fc6101008301846131ed565b9a9950505050505050505050565b5f81519050919050565b5f82825260208201905092915050565b5f819050602082019050919050565b61353c81613234565b82525050565b61354b81613465565b82525050565b61012082015f8201516135665f850182613351565b5060208201516135796020850182613533565b50604082015161358c6040850182613351565b50606082015161359f6060850182613351565b5060808201516135b26080850182613351565b5060a08201516135c560a0850182613351565b5060c08201516135d860c0850182613351565b5060e08201516135eb60e0850182613542565b50610100820151613600610100850182613351565b50505050565b5f6136118383613551565b6101208301905092915050565b5f602082019050919050565b5f6136348261350a565b61363e8185613514565b935061364983613524565b805f5b838110156136795781516136608882613606565b975061366b8361361e565b92505060018101905061364c565b5085935050505092915050565b5f6020820190508181035f83015261369e818461362a565b905092915050565b5f60a0820190506136b95f83018861343d565b6136c660208301876131ed565b6136d360408301866131ed565b6136e060608301856131ed565b6136ed60808301846131ed565b9695505050505050565b61012082015f82015161370c5f850182613351565b50602082015161371f6020850182613533565b5060408201516137326040850182613351565b5060608201516137456060850182613351565b5060808201516137586080850182613351565b5060a082015161376b60a0850182613351565b5060c082015161377e60c0850182613351565b5060e082015161379160e0850182613542565b506101008201516137a6610100850182613351565b50505050565b5f610120820190506137c05f8301846136f7565b92915050565b5f819050919050565b5f6137e96137e46137df84613215565b6137c6565b613215565b9050919050565b5f6137fa826137cf565b9050919050565b5f61380b826137f0565b9050919050565b61381b81613801565b82525050565b5f6020820190506138345f830184613812565b92915050565b5f82825260208201905092915050565b7f496e76616c696420706f736974696f6e204944000000000000000000000000005f82015250565b5f61387e60138361383a565b91506138898261384a565b602082019050919050565b5f6020820190508181035f8301526138ab81613872565b9050919050565b7f4e487b71000000000000000000000000000000000000000000000000000000005f52601160045260245ffd5b5f6138e98261318f565b91506138f48361318f565b925082820390508181111561390c5761390b6138b2565b5b92915050565b7f4e487b71000000000000000000000000000000000000000000000000000000005f52601260045260245ffd5b5f6139498261318f565b91506139548361318f565b92508261396457613963613912565b5b828204905092915050565b7f506f736974696f6e20697320636c6f73656400000000000000000000000000005f82015250565b5f6139a360128361383a565b91506139ae8261396f565b602082019050919050565b5f6020820190508181035f8301526139d081613997565b9050919050565b7f4f6e6c7920706f736974696f6e206f776e65722063616e20636c61696d20696e5f8201527f7465726573740000000000000000000000000000000000000000000000000000602082015250565b5f613a3160268361383a565b9150613a3c826139d7565b604082019050919050565b5f6020820190508181035f830152613a5e81613a25565b9050919050565b7f4461696c7920696e7465726573742063616e206f6e6c7920626520636c61696d5f8201527f656420666f7220313030302d646179206c6f636b20706572696f640000000000602082015250565b5f613abf603b8361383a565b9150613aca82613a65565b604082019050919050565b5f6020820190508181035f830152613aec81613ab3565b9050919050565b7f43616e206f6e6c7920636c61696d20696e746572657374206f6e6365207065725f8201527f2064617900000000000000000000000000000000000000000000000000000000602082015250565b5f613b4d60248361383a565b9150613b5882613af3565b604082019050919050565b5f6020820190508181035f830152613b7a81613b41565b9050919050565b5f613b8b8261318f565b9150613b968361318f565b9250828202613ba48161318f565b91508282048414831517613bbb57613bba6138b2565b5b5092915050565b5f604082019050613bd55f83018561343d565b613be260208301846131ed565b9392505050565b613bf281613465565b8114613bfc575f80fd5b50565b5f81519050613c0d81613be9565b92915050565b5f60208284031215613c2857613c2761318b565b5b5f613c3584828501613bff565b91505092915050565b7f496e746572657374207472616e73666572206661696c656400000000000000005f82015250565b5f613c7260188361383a565b9150613c7d82613c3e565b602082019050919050565b5f6020820190508181035f830152613c9f81613c66565b9050919050565b7f4e6f2064697265637420726566657272616c20696e636f6d6520746f20636c615f8201527f696d000000000000000000000000000000000000000000000000000000000000602082015250565b5f613d0060228361383a565b9150613d0b82613ca6565b604082019050919050565b5f6020820190508181035f830152613d2d81613cf4565b9050919050565b7f44697265637420726566657272616c20696e636f6d65207472616e73666572205f8201527f6661696c65640000000000000000000000000000000000000000000000000000602082015250565b5f613d8e60268361383a565b9150613d9982613d34565b604082019050919050565b5f6020820190508181035f830152613dbb81613d82565b9050919050565b7f4f6e6c7920746865206f776e65722063616e2063616c6c20746869732066756e5f8201527f6374696f6e000000000000000000000000000000000000000000000000000000602082015250565b5f613e1c60258361383a565b9150613e2782613dc2565b604082019050919050565b5f6020820190508181035f830152613e4981613e10565b9050919050565b5f81519050613e5e81613198565b92915050565b5f60208284031215613e7957613e7861318b565b5b5f613e8684828501613e50565b91505092915050565b7f4e6f20746f6b656e7320746f20776974686472617700000000000000000000005f82015250565b5f613ec360158361383a565b9150613ece82613e8f565b602082019050919050565b5f6020820190508181035f830152613ef081613eb7565b9050919050565b7f546f6b656e207472616e73666572206661696c656400000000000000000000005f82015250565b5f613f2b60158361383a565b9150613f3682613ef7565b602082019050919050565b5f6020820190508181035f830152613f5881613f1f565b9050919050565b7f506f736974696f6e20697320616c726561647920636c6f7365640000000000005f82015250565b5f613f93601a8361383a565b9150613f9e82613f5f565b602082019050919050565b5f6020820190508181035f830152613fc081613f87565b9050919050565b7f556e617574686f72697a656400000000000000000000000000000000000000005f82015250565b5f613ffb600c8361383a565b915061400682613fc7565b602082019050919050565b5f6020820190508181035f83015261402881613fef565b9050919050565b7f556e6c6f636b2064617465206e6f7420726561636865640000000000000000005f82015250565b5f61406360178361383a565b915061406e8261402f565b602082019050919050565b5f6020820190508181035f83015261409081614057565b9050919050565b7f4e487b71000000000000000000000000000000000000000000000000000000005f52604160045260245ffd5b7f4e487b71000000000000000000000000000000000000000000000000000000005f52603260045260245ffd5b7f4f6e6c79206f776e6572206d6179206d6f64696679207374616b696e672070655f8201527f72696f6473000000000000000000000000000000000000000000000000000000602082015250565b5f61414b60258361383a565b9150614156826140f1565b604082019050919050565b5f6020820190508181035f8301526141788161413f565b9050919050565b7f4f6e6c7920706f736974696f6e2063726561746f72206d6179206d6f646966795f8201527f20706f736974696f6e0000000000000000000000000000000000000000000000602082015250565b5f6141d960298361383a565b91506141e48261417f565b604082019050919050565b5f6020820190508181035f830152614206816141cd565b9050919050565b7f456d657267656e637920636c6f7365206f6e6c7920616c6c6f77656420666f725f8201527f203830302d646179206c6f636b20706572696f64000000000000000000000000602082015250565b5f61426760348361383a565b91506142728261420d565b604082019050919050565b5f6020820190508181035f8301526142948161425b565b9050919050565b5f6142a58261318f565b91506142b08361318f565b92508282019050808211156142c8576142c76138b2565b5b92915050565b5f81905092915050565b50565b5f6142e65f836142ce565b91506142f1826142d8565b5f82019050919050565b5f614305826142db565b9150819050919050565b7f4c6f636b20706572696f64206e6f7420666f756e6400000000000000000000005f82015250565b5f61434360158361383a565b915061434e8261430f565b602082019050919050565b5f6020820190508181035f83015261437081614337565b9050919050565b7f4d617070696e67206e6f7420666f756e640000000000000000000000000000005f82015250565b5f6143ab60118361383a565b91506143b682614377565b602082019050919050565b5f6020820190508181035f8301526143d88161439f565b9050919050565b5f6060820190506143f25f83018661343d565b6143ff602083018561343d565b61440c60408301846131ed565b949350505050565b5f61441e8261318f565b91507fffffffffffffffffffffffffffffffffffffffffffffffffffffffffffffffff82036144505761444f6138b2565b5b600182019050919050565b7f496e636f6d65207472616e73666572206661696c6564000000000000000000005f82015250565b5f61448f60168361383a565b915061449a8261445b565b602082019050919050565b5f6020820190508181035f8301526144bc81614483565b9050919050565b5f6040820190506144d65f8301856131ed565b6144e360208301846131ed565b939250505056fea2646970667358221220cd62e7bf0c366975922c03cc1b90850323e56561c384e82ccdb180952991732364736f6c63430008190033",
			"opcodes": "PUSH1 0x80 PUSH1 0x40 MSTORE PUSH1 0x1 PUSH1 0x9 SSTORE PUSH1 0x40 MLOAD PUSH2 0x48F4 CODESIZE SUB DUP1 PUSH2 0x48F4 DUP4 CODECOPY DUP2 DUP2 ADD PUSH1 0x40 MSTORE DUP2 ADD SWAP1 PUSH2 0x2A SWAP2 SWAP1 PUSH2 0x31F JUMP JUMPDEST CALLER PUSH0 DUP1 PUSH2 0x100 EXP DUP2 SLOAD DUP2 PUSH20 0xFFFFFFFFFFFFFFFFFFFFFFFFFFFFFFFFFFFFFFFF MUL NOT AND SWAP1 DUP4 PUSH20 0xFFFFFFFFFFFFFFFFFFFFFFFFFFFFFFFFFFFFFFFF AND MUL OR SWAP1 SSTORE POP PUSH1 0x1 PUSH1 0x3 DUP2 SWAP1 SSTORE POP DUP1 PUSH1 0x1 PUSH0 PUSH2 0x100 EXP DUP2 SLOAD DUP2 PUSH20 0xFFFFFFFFFFFFFFFFFFFFFFFFFFFFFFFFFFFFFFFF MUL NOT AND SWAP1 DUP4 PUSH20 0xFFFFFFFFFFFFFFFFFFFFFFFFFFFFFFFFFFFFFFFF AND MUL OR SWAP1 SSTORE POP PUSH1 0x1 PUSH1 0x4 DUP2 SWAP1 SSTORE POP PUSH0 DUP1 SLOAD SWAP1 PUSH2 0x100 EXP SWAP1 DIV PUSH20 0xFFFFFFFFFFFFFFFFFFFFFFFFFFFFFFFFFFFFFFFF AND PUSH20 0xFFFFFFFFFFFFFFFFFFFFFFFFFFFFFFFFFFFFFFFF AND PUSH1 0x2 PUSH0 CALLER PUSH20 0xFFFFFFFFFFFFFFFFFFFFFFFFFFFFFFFFFFFFFFFF AND PUSH20 0xFFFFFFFFFFFFFFFFFFFFFFFFFFFFFFFFFFFFFFFF AND DUP2 MSTORE PUSH1 0x20 ADD SWAP1 DUP2 MSTORE PUSH1 0x20 ADD PUSH0 KECCAK256 PUSH0 ADD PUSH0 SWAP1 SLOAD SWAP1 PUSH2 0x100 EXP SWAP1 DIV PUSH20 0xFFFFFFFFFFFFFFFFFFFFFFFFFFFFFFFFFFFFFFFF AND PUSH20 0xFFFFFFFFFFFFFFFFFFFFFFFFFFFFFFFFFFFFFFFF AND EQ PUSH2 0x1BF JUMPI PUSH1 0x2 PUSH0 CALLER PUSH20 0xFFFFFFFFFFFFFFFFFFFFFFFFFFFFFFFFFFFFFFFF AND PUSH20 0xFFFFFFFFFFFFFFFFFFFFFFFFFFFFFFFFFFFFFFFF AND DUP2 MSTORE PUSH1 0x20 ADD SWAP1 DUP2 MSTORE PUSH1 0x20 ADD PUSH0 KECCAK256 PUSH1 0x2 ADD PUSH0 DUP2 SLOAD DUP1 SWAP3 SWAP2 SWAP1 PUSH2 0x1B9 SWAP1 PUSH2 0x380 JUMP JUMPDEST SWAP2 SWAP1 POP SSTORE POP JUMPDEST PUSH2 0x2710 PUSH1 0x8 PUSH0 PUSH2 0x3E8 DUP2 MSTORE PUSH1 0x20 ADD SWAP1 DUP2 MSTORE PUSH1 0x20 ADD PUSH0 KECCAK256 DUP2 SWAP1 SSTORE POP PUSH2 0x2710 PUSH1 0x8 PUSH0 PUSH2 0x320 DUP2 MSTORE PUSH1 0x20 ADD SWAP1 DUP2 MSTORE PUSH1 0x20 ADD PUSH0 KECCAK256 DUP2 SWAP1 SSTORE POP PUSH1 0xA PUSH2 0x3E8 SWAP1 DUP1 PUSH1 0x1 DUP2 SLOAD ADD DUP1 DUP3 SSTORE DUP1 SWAP2 POP POP PUSH1 0x1 SWAP1 SUB SWAP1 PUSH0 MSTORE PUSH1 0x20 PUSH0 KECCAK256 ADD PUSH0 SWAP1 SWAP2 SWAP1 SWAP2 SWAP1 SWAP2 POP SSTORE PUSH1 0xA PUSH2 0x320 SWAP1 DUP1 PUSH1 0x1 DUP2 SLOAD ADD DUP1 DUP3 SSTORE DUP1 SWAP2 POP POP PUSH1 0x1 SWAP1 SUB SWAP1 PUSH0 MSTORE PUSH1 0x20 PUSH0 KECCAK256 ADD PUSH0 SWAP1 SWAP2 SWAP1 SWAP2 SWAP1 SWAP2 POP SSTORE PUSH1 0xA PUSH1 0xD PUSH0 PUSH1 0x1 DUP2 MSTORE PUSH1 0x20 ADD SWAP1 DUP2 MSTORE PUSH1 0x20 ADD PUSH0 KECCAK256 DUP2 SWAP1 SSTORE POP PUSH1 0x5 PUSH1 0xD PUSH0 PUSH1 0x2 DUP2 MSTORE PUSH1 0x20 ADD SWAP1 DUP2 MSTORE PUSH1 0x20 ADD PUSH0 KECCAK256 DUP2 SWAP1 SSTORE POP PUSH1 0x4 PUSH1 0xD PUSH0 PUSH1 0x3 DUP2 MSTORE PUSH1 0x20 ADD SWAP1 DUP2 MSTORE PUSH1 0x20 ADD PUSH0 KECCAK256 DUP2 SWAP1 SSTORE POP PUSH1 0x3 PUSH1 0xD PUSH0 PUSH1 0x4 DUP2 MSTORE PUSH1 0x20 ADD SWAP1 DUP2 MSTORE PUSH1 0x20 ADD PUSH0 KECCAK256 DUP2 SWAP1 SSTORE POP PUSH1 0x2 PUSH1 0xD PUSH0 PUSH1 0x5 DUP2 MSTORE PUSH1 0x20 ADD SWAP1 DUP2 MSTORE PUSH1 0x20 ADD PUSH0 KECCAK256 DUP2 SWAP1 SSTORE POP POP PUSH2 0x3C7 JUMP JUMPDEST PUSH0 DUP1 REVERT JUMPDEST PUSH0 PUSH20 0xFFFFFFFFFFFFFFFFFFFFFFFFFFFFFFFFFFFFFFFF DUP3 AND SWAP1 POP SWAP2 SWAP1 POP JUMP JUMPDEST PUSH0 PUSH2 0x2EE DUP3 PUSH2 0x2C5 JUMP JUMPDEST SWAP1 POP SWAP2 SWAP1 POP JUMP JUMPDEST PUSH2 0x2FE DUP2 PUSH2 0x2E4 JUMP JUMPDEST DUP2 EQ PUSH2 0x308 JUMPI PUSH0 DUP1 REVERT JUMPDEST POP JUMP JUMPDEST PUSH0 DUP2 MLOAD SWAP1 POP PUSH2 0x319 DUP2 PUSH2 0x2F5 JUMP JUMPDEST SWAP3 SWAP2 POP POP JUMP JUMPDEST PUSH0 PUSH1 0x20 DUP3 DUP5 SUB SLT ISZERO PUSH2 0x334 JUMPI PUSH2 0x333 PUSH2 0x2C1 JUMP JUMPDEST JUMPDEST PUSH0 PUSH2 0x341 DUP5 DUP3 DUP6 ADD PUSH2 0x30B JUMP JUMPDEST SWAP2 POP POP SWAP3 SWAP2 POP POP JUMP JUMPDEST PUSH32 0x4E487B7100000000000000000000000000000000000000000000000000000000 PUSH0 MSTORE PUSH1 0x11 PUSH1 0x4 MSTORE PUSH1 0x24 PUSH0 REVERT JUMPDEST PUSH0 DUP2 SWAP1 POP SWAP2 SWAP1 POP JUMP JUMPDEST PUSH0 PUSH2 0x38A DUP3 PUSH2 0x377 JUMP JUMPDEST SWAP2 POP PUSH32 0xFFFFFFFFFFFFFFFFFFFFFFFFFFFFFFFFFFFFFFFFFFFFFFFFFFFFFFFFFFFFFFFF DUP3 SUB PUSH2 0x3BC JUMPI PUSH2 0x3BB PUSH2 0x34A JUMP JUMPDEST JUMPDEST PUSH1 0x1 DUP3 ADD SWAP1 POP SWAP2 SWAP1 POP JUMP JUMPDEST PUSH2 0x4520 DUP1 PUSH2 0x3D4 PUSH0 CODECOPY PUSH0 RETURN INVALID PUSH1 0x80 PUSH1 0x40 MSTORE CALLVALUE DUP1 ISZERO PUSH2 0xF JUMPI PUSH0 DUP1 REVERT JUMPDEST POP PUSH1 0x4 CALLDATASIZE LT PUSH2 0x20F JUMPI PUSH0 CALLDATALOAD PUSH1 0xE0 SHR DUP1 PUSH4 0x99FBAB88 GT PUSH2 0x123 JUMPI DUP1 PUSH4 0xB77B7DC9 GT PUSH2 0xAB JUMPI DUP1 PUSH4 0xD21B7ABF GT PUSH2 0x7A JUMPI DUP1 PUSH4 0xD21B7ABF EQ PUSH2 0x697 JUMPI DUP1 PUSH4 0xD7406F5C EQ PUSH2 0x6B3 JUMPI DUP1 PUSH4 0xF59A843A EQ PUSH2 0x6E3 JUMPI DUP1 PUSH4 0xF6E88873 EQ PUSH2 0x713 JUMPI DUP1 PUSH4 0xFC0C546A EQ PUSH2 0x743 JUMPI PUSH2 0x20F JUMP JUMPDEST DUP1 PUSH4 0xB77B7DC9 EQ PUSH2 0x5EB JUMPI DUP1 PUSH4 0xB838EC86 EQ PUSH2 0x61B JUMPI DUP1 PUSH4 0xBC259107 EQ PUSH2 0x64B JUMPI DUP1 PUSH4 0xC7C9D055 EQ PUSH2 0x67B JUMPI PUSH2 0x20F JUMP JUMPDEST DUP1 PUSH4 0xA54586F8 GT PUSH2 0xF2 JUMPI DUP1 PUSH4 0xA54586F8 EQ PUSH2 0x503 JUMPI DUP1 PUSH4 0xA567AC2E EQ PUSH2 0x53B JUMPI DUP1 PUSH4 0xA87430BA EQ PUSH2 0x56B JUMPI DUP1 PUSH4 0xAA7ED462 EQ PUSH2 0x59F JUMPI DUP1 PUSH4 0xB0F0475B EQ PUSH2 0x5CF JUMPI PUSH2 0x20F JUMP JUMPDEST DUP1 PUSH4 0x99FBAB88 EQ PUSH2 0x473 JUMPI DUP1 PUSH4 0x9DC4B9C9 EQ PUSH2 0x4AB JUMPI DUP1 PUSH4 0xA126D601 EQ PUSH2 0x4C9 JUMPI DUP1 PUSH4 0xA1E6A255 EQ PUSH2 0x4E5 JUMPI PUSH2 0x20F JUMP JUMPDEST DUP1 PUSH4 0x40D98A44 GT PUSH2 0x1A6 JUMPI DUP1 PUSH4 0x591D8FEA GT PUSH2 0x175 JUMPI DUP1 PUSH4 0x591D8FEA EQ PUSH2 0x407 JUMPI DUP1 PUSH4 0x5BFFA8FF EQ PUSH2 0x423 JUMPI DUP1 PUSH4 0x853828B6 EQ PUSH2 0x42D JUMPI DUP1 PUSH4 0x8B7AFE2E EQ PUSH2 0x437 JUMPI DUP1 PUSH4 0x8DA5CB5B EQ PUSH2 0x455 JUMPI PUSH2 0x20F JUMP JUMPDEST DUP1 PUSH4 0x40D98A44 EQ PUSH2 0x359 JUMPI DUP1 PUSH4 0x41EE13BE EQ PUSH2 0x389 JUMPI DUP1 PUSH4 0x45EAE373 EQ PUSH2 0x3A7 JUMPI DUP1 PUSH4 0x4C8F2A78 EQ PUSH2 0x3D7 JUMPI PUSH2 0x20F JUMP JUMPDEST DUP1 PUSH4 0x1DF9758B GT PUSH2 0x1E2 JUMPI DUP1 PUSH4 0x1DF9758B EQ PUSH2 0x2C1 JUMPI DUP1 PUSH4 0x21923BDE EQ PUSH2 0x2F1 JUMPI DUP1 PUSH4 0x23E252F4 EQ PUSH2 0x321 JUMPI DUP1 PUSH4 0x2AD53440 EQ PUSH2 0x33D JUMPI PUSH2 0x20F JUMP JUMPDEST DUP1 PUSH4 0x39AF9EB EQ PUSH2 0x213 JUMPI DUP1 PUSH4 0xC196A74 EQ PUSH2 0x243 JUMPI DUP1 PUSH4 0x1131C8CD EQ PUSH2 0x273 JUMPI DUP1 PUSH4 0x1271FDE0 EQ PUSH2 0x291 JUMPI JUMPDEST PUSH0 DUP1 REVERT JUMPDEST PUSH2 0x22D PUSH1 0x4 DUP1 CALLDATASIZE SUB DUP2 ADD SWAP1 PUSH2 0x228 SWAP2 SWAP1 PUSH2 0x31C2 JUMP JUMPDEST PUSH2 0x761 JUMP JUMPDEST PUSH1 0x40 MLOAD PUSH2 0x23A SWAP2 SWAP1 PUSH2 0x31FC JUMP JUMPDEST PUSH1 0x40 MLOAD DUP1 SWAP2 SUB SWAP1 RETURN JUMPDEST PUSH2 0x25D PUSH1 0x4 DUP1 CALLDATASIZE SUB DUP2 ADD SWAP1 PUSH2 0x258 SWAP2 SWAP1 PUSH2 0x31C2 JUMP JUMPDEST PUSH2 0x776 JUMP JUMPDEST PUSH1 0x40 MLOAD PUSH2 0x26A SWAP2 SWAP1 PUSH2 0x31FC JUMP JUMPDEST PUSH1 0x40 MLOAD DUP1 SWAP2 SUB SWAP1 RETURN JUMPDEST PUSH2 0x27B PUSH2 0x790 JUMP JUMPDEST PUSH1 0x40 MLOAD PUSH2 0x288 SWAP2 SWAP1 PUSH2 0x31FC JUMP JUMPDEST PUSH1 0x40 MLOAD DUP1 SWAP2 SUB SWAP1 RETURN JUMPDEST PUSH2 0x2AB PUSH1 0x4 DUP1 CALLDATASIZE SUB DUP2 ADD SWAP1 PUSH2 0x2A6 SWAP2 SWAP1 PUSH2 0x326F JUMP JUMPDEST PUSH2 0x796 JUMP JUMPDEST PUSH1 0x40 MLOAD PUSH2 0x2B8 SWAP2 SWAP1 PUSH2 0x31FC JUMP JUMPDEST PUSH1 0x40 MLOAD DUP1 SWAP2 SUB SWAP1 RETURN JUMPDEST PUSH2 0x2DB PUSH1 0x4 DUP1 CALLDATASIZE SUB DUP2 ADD SWAP1 PUSH2 0x2D6 SWAP2 SWAP1 PUSH2 0x31C2 JUMP JUMPDEST PUSH2 0x7DF JUMP JUMPDEST PUSH1 0x40 MLOAD PUSH2 0x2E8 SWAP2 SWAP1 PUSH2 0x31FC JUMP JUMPDEST PUSH1 0x40 MLOAD DUP1 SWAP2 SUB SWAP1 RETURN JUMPDEST PUSH2 0x30B PUSH1 0x4 DUP1 CALLDATASIZE SUB DUP2 ADD SWAP1 PUSH2 0x306 SWAP2 SWAP1 PUSH2 0x326F JUMP JUMPDEST PUSH2 0x93C JUMP JUMPDEST PUSH1 0x40 MLOAD PUSH2 0x318 SWAP2 SWAP1 PUSH2 0x31FC JUMP JUMPDEST PUSH1 0x40 MLOAD DUP1 SWAP2 SUB SWAP1 RETURN JUMPDEST PUSH2 0x33B PUSH1 0x4 DUP1 CALLDATASIZE SUB DUP2 ADD SWAP1 PUSH2 0x336 SWAP2 SWAP1 PUSH2 0x329A JUMP JUMPDEST PUSH2 0x985 JUMP JUMPDEST STOP JUMPDEST PUSH2 0x357 PUSH1 0x4 DUP1 CALLDATASIZE SUB DUP2 ADD SWAP1 PUSH2 0x352 SWAP2 SWAP1 PUSH2 0x32EA JUMP JUMPDEST PUSH2 0x995 JUMP JUMPDEST STOP JUMPDEST PUSH2 0x373 PUSH1 0x4 DUP1 CALLDATASIZE SUB DUP2 ADD SWAP1 PUSH2 0x36E SWAP2 SWAP1 PUSH2 0x326F JUMP JUMPDEST PUSH2 0x9A4 JUMP JUMPDEST PUSH1 0x40 MLOAD PUSH2 0x380 SWAP2 SWAP1 PUSH2 0x33DF JUMP JUMPDEST PUSH1 0x40 MLOAD DUP1 SWAP2 SUB SWAP1 RETURN JUMPDEST PUSH2 0x391 PUSH2 0xA37 JUMP JUMPDEST PUSH1 0x40 MLOAD PUSH2 0x39E SWAP2 SWAP1 PUSH2 0x33DF JUMP JUMPDEST PUSH1 0x40 MLOAD DUP1 SWAP2 SUB SWAP1 RETURN JUMPDEST PUSH2 0x3C1 PUSH1 0x4 DUP1 CALLDATASIZE SUB DUP2 ADD SWAP1 PUSH2 0x3BC SWAP2 SWAP1 PUSH2 0x33FF JUMP JUMPDEST PUSH2 0xA8D JUMP JUMPDEST PUSH1 0x40 MLOAD PUSH2 0x3CE SWAP2 SWAP1 PUSH2 0x31FC JUMP JUMPDEST PUSH1 0x40 MLOAD DUP1 SWAP2 SUB SWAP1 RETURN JUMPDEST PUSH2 0x3F1 PUSH1 0x4 DUP1 CALLDATASIZE SUB DUP2 ADD SWAP1 PUSH2 0x3EC SWAP2 SWAP1 PUSH2 0x31C2 JUMP JUMPDEST PUSH2 0xAB8 JUMP JUMPDEST PUSH1 0x40 MLOAD PUSH2 0x3FE SWAP2 SWAP1 PUSH2 0x31FC JUMP JUMPDEST PUSH1 0x40 MLOAD DUP1 SWAP2 SUB SWAP1 RETURN JUMPDEST PUSH2 0x421 PUSH1 0x4 DUP1 CALLDATASIZE SUB DUP2 ADD SWAP1 PUSH2 0x41C SWAP2 SWAP1 PUSH2 0x31C2 JUMP JUMPDEST PUSH2 0xAD8 JUMP JUMPDEST STOP JUMPDEST PUSH2 0x42B PUSH2 0xE15 JUMP JUMPDEST STOP JUMPDEST PUSH2 0x435 PUSH2 0xFB8 JUMP JUMPDEST STOP JUMPDEST PUSH2 0x43F PUSH2 0x1220 JUMP JUMPDEST PUSH1 0x40 MLOAD PUSH2 0x44C SWAP2 SWAP1 PUSH2 0x31FC JUMP JUMPDEST PUSH1 0x40 MLOAD DUP1 SWAP2 SUB SWAP1 RETURN JUMPDEST PUSH2 0x45D PUSH2 0x12BF JUMP JUMPDEST PUSH1 0x40 MLOAD PUSH2 0x46A SWAP2 SWAP1 PUSH2 0x344C JUMP JUMPDEST PUSH1 0x40 MLOAD DUP1 SWAP2 SUB SWAP1 RETURN JUMPDEST PUSH2 0x48D PUSH1 0x4 DUP1 CALLDATASIZE SUB DUP2 ADD SWAP1 PUSH2 0x488 SWAP2 SWAP1 PUSH2 0x31C2 JUMP JUMPDEST PUSH2 0x12E2 JUMP JUMPDEST PUSH1 0x40 MLOAD PUSH2 0x4A2 SWAP10 SWAP9 SWAP8 SWAP7 SWAP6 SWAP5 SWAP4 SWAP3 SWAP2 SWAP1 PUSH2 0x347F JUMP JUMPDEST PUSH1 0x40 MLOAD DUP1 SWAP2 SUB SWAP1 RETURN JUMPDEST PUSH2 0x4B3 PUSH2 0x1357 JUMP JUMPDEST PUSH1 0x40 MLOAD PUSH2 0x4C0 SWAP2 SWAP1 PUSH2 0x31FC JUMP JUMPDEST PUSH1 0x40 MLOAD DUP1 SWAP2 SUB SWAP1 RETURN JUMPDEST PUSH2 0x4E3 PUSH1 0x4 DUP1 CALLDATASIZE SUB DUP2 ADD SWAP1 PUSH2 0x4DE SWAP2 SWAP1 PUSH2 0x31C2 JUMP JUMPDEST PUSH2 0x135D JUMP JUMPDEST STOP JUMPDEST PUSH2 0x4ED PUSH2 0x1895 JUMP JUMPDEST PUSH1 0x40 MLOAD PUSH2 0x4FA SWAP2 SWAP1 PUSH2 0x31FC JUMP JUMPDEST PUSH1 0x40 MLOAD DUP1 SWAP2 SUB SWAP1 RETURN JUMPDEST PUSH2 0x51D PUSH1 0x4 DUP1 CALLDATASIZE SUB DUP2 ADD SWAP1 PUSH2 0x518 SWAP2 SWAP1 PUSH2 0x33FF JUMP JUMPDEST PUSH2 0x189B JUMP JUMPDEST PUSH1 0x40 MLOAD PUSH2 0x532 SWAP10 SWAP9 SWAP8 SWAP7 SWAP6 SWAP5 SWAP4 SWAP3 SWAP2 SWAP1 PUSH2 0x347F JUMP JUMPDEST PUSH1 0x40 MLOAD DUP1 SWAP2 SUB SWAP1 RETURN JUMPDEST PUSH2 0x555 PUSH1 0x4 DUP1 CALLDATASIZE SUB DUP2 ADD SWAP1 PUSH2 0x550 SWAP2 SWAP1 PUSH2 0x326F JUMP JUMPDEST PUSH2 0x192A JUMP JUMPDEST PUSH1 0x40 MLOAD PUSH2 0x562 SWAP2 SWAP1 PUSH2 0x3686 JUMP JUMPDEST PUSH1 0x40 MLOAD DUP1 SWAP2 SUB SWAP1 RETURN JUMPDEST PUSH2 0x585 PUSH1 0x4 DUP1 CALLDATASIZE SUB DUP2 ADD SWAP1 PUSH2 0x580 SWAP2 SWAP1 PUSH2 0x326F JUMP JUMPDEST PUSH2 0x1B46 JUMP JUMPDEST PUSH1 0x40 MLOAD PUSH2 0x596 SWAP6 SWAP5 SWAP4 SWAP3 SWAP2 SWAP1 PUSH2 0x36A6 JUMP JUMPDEST PUSH1 0x40 MLOAD DUP1 SWAP2 SUB SWAP1 RETURN JUMPDEST PUSH2 0x5B9 PUSH1 0x4 DUP1 CALLDATASIZE SUB DUP2 ADD SWAP1 PUSH2 0x5B4 SWAP2 SWAP1 PUSH2 0x326F JUMP JUMPDEST PUSH2 0x1B97 JUMP JUMPDEST PUSH1 0x40 MLOAD PUSH2 0x5C6 SWAP2 SWAP1 PUSH2 0x31FC JUMP JUMPDEST PUSH1 0x40 MLOAD DUP1 SWAP2 SUB SWAP1 RETURN JUMPDEST PUSH2 0x5E9 PUSH1 0x4 DUP1 CALLDATASIZE SUB DUP2 ADD SWAP1 PUSH2 0x5E4 SWAP2 SWAP1 PUSH2 0x32EA JUMP JUMPDEST PUSH2 0x1BE0 JUMP JUMPDEST STOP JUMPDEST PUSH2 0x605 PUSH1 0x4 DUP1 CALLDATASIZE SUB DUP2 ADD SWAP1 PUSH2 0x600 SWAP2 SWAP1 PUSH2 0x326F JUMP JUMPDEST PUSH2 0x1CAD JUMP JUMPDEST PUSH1 0x40 MLOAD PUSH2 0x612 SWAP2 SWAP1 PUSH2 0x31FC JUMP JUMPDEST PUSH1 0x40 MLOAD DUP1 SWAP2 SUB SWAP1 RETURN JUMPDEST PUSH2 0x635 PUSH1 0x4 DUP1 CALLDATASIZE SUB DUP2 ADD SWAP1 PUSH2 0x630 SWAP2 SWAP1 PUSH2 0x31C2 JUMP JUMPDEST PUSH2 0x1CC2 JUMP JUMPDEST PUSH1 0x40 MLOAD PUSH2 0x642 SWAP2 SWAP1 PUSH2 0x37AC JUMP JUMPDEST PUSH1 0x40 MLOAD DUP1 SWAP2 SUB SWAP1 RETURN JUMPDEST PUSH2 0x665 PUSH1 0x4 DUP1 CALLDATASIZE SUB DUP2 ADD SWAP1 PUSH2 0x660 SWAP2 SWAP1 PUSH2 0x31C2 JUMP JUMPDEST PUSH2 0x1DA2 JUMP JUMPDEST PUSH1 0x40 MLOAD PUSH2 0x672 SWAP2 SWAP1 PUSH2 0x31FC JUMP JUMPDEST PUSH1 0x40 MLOAD DUP1 SWAP2 SUB SWAP1 RETURN JUMPDEST PUSH2 0x695 PUSH1 0x4 DUP1 CALLDATASIZE SUB DUP2 ADD SWAP1 PUSH2 0x690 SWAP2 SWAP1 PUSH2 0x32EA JUMP JUMPDEST PUSH2 0x1EF7 JUMP JUMPDEST STOP JUMPDEST PUSH2 0x6B1 PUSH1 0x4 DUP1 CALLDATASIZE SUB DUP2 ADD SWAP1 PUSH2 0x6AC SWAP2 SWAP1 PUSH2 0x31C2 JUMP JUMPDEST PUSH2 0x1FA1 JUMP JUMPDEST STOP JUMPDEST PUSH2 0x6CD PUSH1 0x4 DUP1 CALLDATASIZE SUB DUP2 ADD SWAP1 PUSH2 0x6C8 SWAP2 SWAP1 PUSH2 0x31C2 JUMP JUMPDEST PUSH2 0x23CF JUMP JUMPDEST PUSH1 0x40 MLOAD PUSH2 0x6DA SWAP2 SWAP1 PUSH2 0x31FC JUMP JUMPDEST PUSH1 0x40 MLOAD DUP1 SWAP2 SUB SWAP1 RETURN JUMPDEST PUSH2 0x6FD PUSH1 0x4 DUP1 CALLDATASIZE SUB DUP2 ADD SWAP1 PUSH2 0x6F8 SWAP2 SWAP1 PUSH2 0x31C2 JUMP JUMPDEST PUSH2 0x25F1 JUMP JUMPDEST PUSH1 0x40 MLOAD PUSH2 0x70A SWAP2 SWAP1 PUSH2 0x31FC JUMP JUMPDEST PUSH1 0x40 MLOAD DUP1 SWAP2 SUB SWAP1 RETURN JUMPDEST PUSH2 0x72D PUSH1 0x4 DUP1 CALLDATASIZE SUB DUP2 ADD SWAP1 PUSH2 0x728 SWAP2 SWAP1 PUSH2 0x326F JUMP JUMPDEST PUSH2 0x2606 JUMP JUMPDEST PUSH1 0x40 MLOAD PUSH2 0x73A SWAP2 SWAP1 PUSH2 0x31FC JUMP JUMPDEST PUSH1 0x40 MLOAD DUP1 SWAP2 SUB SWAP1 RETURN JUMPDEST PUSH2 0x74B PUSH2 0x261B JUMP JUMPDEST PUSH1 0x40 MLOAD PUSH2 0x758 SWAP2 SWAP1 PUSH2 0x3821 JUMP JUMPDEST PUSH1 0x40 MLOAD DUP1 SWAP2 SUB SWAP1 RETURN JUMPDEST PUSH1 0x8 PUSH1 0x20 MSTORE DUP1 PUSH0 MSTORE PUSH1 0x40 PUSH0 KECCAK256 PUSH0 SWAP2 POP SWAP1 POP SLOAD DUP2 JUMP JUMPDEST PUSH0 PUSH1 0x8 PUSH0 DUP4 DUP2 MSTORE PUSH1 0x20 ADD SWAP1 DUP2 MSTORE PUSH1 0x20 ADD PUSH0 KECCAK256 SLOAD SWAP1 POP SWAP2 SWAP1 POP JUMP JUMPDEST PUSH1 0x3 SLOAD DUP2 JUMP JUMPDEST PUSH0 PUSH1 0x2 PUSH0 DUP4 PUSH20 0xFFFFFFFFFFFFFFFFFFFFFFFFFFFFFFFFFFFFFFFF AND PUSH20 0xFFFFFFFFFFFFFFFFFFFFFFFFFFFFFFFFFFFFFFFF AND DUP2 MSTORE PUSH1 0x20 ADD SWAP1 DUP2 MSTORE PUSH1 0x20 ADD PUSH0 KECCAK256 PUSH1 0x4 ADD SLOAD SWAP1 POP SWAP2 SWAP1 POP JUMP JUMPDEST PUSH0 DUP1 PUSH1 0x6 PUSH0 DUP5 DUP2 MSTORE PUSH1 0x20 ADD SWAP1 DUP2 MSTORE PUSH1 0x20 ADD PUSH0 KECCAK256 PUSH1 0x40 MLOAD DUP1 PUSH2 0x120 ADD PUSH1 0x40 MSTORE SWAP1 DUP2 PUSH0 DUP3 ADD SLOAD DUP2 MSTORE PUSH1 0x20 ADD PUSH1 0x1 DUP3 ADD PUSH0 SWAP1 SLOAD SWAP1 PUSH2 0x100 EXP SWAP1 DIV PUSH20 0xFFFFFFFFFFFFFFFFFFFFFFFFFFFFFFFFFFFFFFFF AND PUSH20 0xFFFFFFFFFFFFFFFFFFFFFFFFFFFFFFFFFFFFFFFF AND PUSH20 0xFFFFFFFFFFFFFFFFFFFFFFFFFFFFFFFFFFFFFFFF AND DUP2 MSTORE PUSH1 0x20 ADD PUSH1 0x2 DUP3 ADD SLOAD DUP2 MSTORE PUSH1 0x20 ADD PUSH1 0x3 DUP3 ADD SLOAD DUP2 MSTORE PUSH1 0x20 ADD PUSH1 0x4 DUP3 ADD SLOAD DUP2 MSTORE PUSH1 0x20 ADD PUSH1 0x5 DUP3 ADD SLOAD DUP2 MSTORE PUSH1 0x20 ADD PUSH1 0x6 DUP3 ADD SLOAD DUP2 MSTORE PUSH1 0x20 ADD PUSH1 0x7 DUP3 ADD PUSH0 SWAP1 SLOAD SWAP1 PUSH2 0x100 EXP SWAP1 DIV PUSH1 0xFF AND ISZERO ISZERO ISZERO ISZERO DUP2 MSTORE PUSH1 0x20 ADD PUSH1 0x8 DUP3 ADD SLOAD DUP2 MSTORE POP POP SWAP1 POP PUSH0 DUP2 PUSH0 ADD MLOAD GT PUSH2 0x8F9 JUMPI PUSH1 0x40 MLOAD PUSH32 0x8C379A000000000000000000000000000000000000000000000000000000000 DUP2 MSTORE PUSH1 0x4 ADD PUSH2 0x8F0 SWAP1 PUSH2 0x3894 JUMP JUMPDEST PUSH1 0x40 MLOAD DUP1 SWAP2 SUB SWAP1 REVERT JUMPDEST PUSH0 DUP2 PUSH1 0x60 ADD MLOAD TIMESTAMP LT PUSH2 0x90D JUMPI PUSH0 SWAP1 POP PUSH2 0x932 JUMP JUMPDEST PUSH3 0x15180 DUP3 PUSH1 0x40 ADD MLOAD DUP4 PUSH1 0x60 ADD MLOAD PUSH2 0x925 SWAP2 SWAP1 PUSH2 0x38DF JUMP JUMPDEST PUSH2 0x92F SWAP2 SWAP1 PUSH2 0x393F JUMP JUMPDEST SWAP1 POP JUMPDEST DUP1 SWAP3 POP POP POP SWAP2 SWAP1 POP JUMP JUMPDEST PUSH0 PUSH1 0x2 PUSH0 DUP4 PUSH20 0xFFFFFFFFFFFFFFFFFFFFFFFFFFFFFFFFFFFFFFFF AND PUSH20 0xFFFFFFFFFFFFFFFFFFFFFFFFFFFFFFFFFFFFFFFF AND DUP2 MSTORE PUSH1 0x20 ADD SWAP1 DUP2 MSTORE PUSH1 0x20 ADD PUSH0 KECCAK256 PUSH1 0x3 ADD SLOAD SWAP1 POP SWAP2 SWAP1 POP JUMP JUMPDEST PUSH2 0x990 DUP4 DUP4 DUP4 PUSH2 0x2640 JUMP JUMPDEST POP POP POP JUMP JUMPDEST PUSH2 0x9A0 DUP3 DUP3 PUSH0 PUSH2 0x2640 JUMP JUMPDEST POP POP JUMP JUMPDEST PUSH1 0x60 PUSH1 0x7 PUSH0 DUP4 PUSH20 0xFFFFFFFFFFFFFFFFFFFFFFFFFFFFFFFFFFFFFFFF AND PUSH20 0xFFFFFFFFFFFFFFFFFFFFFFFFFFFFFFFFFFFFFFFF AND DUP2 MSTORE PUSH1 0x20 ADD SWAP1 DUP2 MSTORE PUSH1 0x20 ADD PUSH0 KECCAK256 DUP1 SLOAD DUP1 PUSH1 0x20 MUL PUSH1 0x20 ADD PUSH1 0x40 MLOAD SWAP1 DUP2 ADD PUSH1 0x40 MSTORE DUP1 SWAP3 SWAP2 SWAP1 DUP2 DUP2 MSTORE PUSH1 0x20 ADD DUP3 DUP1 SLOAD DUP1 ISZERO PUSH2 0xA2B JUMPI PUSH1 0x20 MUL DUP3 ADD SWAP2 SWAP1 PUSH0 MSTORE PUSH1 0x20 PUSH0 KECCAK256 SWAP1 JUMPDEST DUP2 SLOAD DUP2 MSTORE PUSH1 0x20 ADD SWAP1 PUSH1 0x1 ADD SWAP1 DUP1 DUP4 GT PUSH2 0xA17 JUMPI JUMPDEST POP POP POP POP POP SWAP1 POP SWAP2 SWAP1 POP JUMP JUMPDEST PUSH1 0x60 PUSH1 0xA DUP1 SLOAD DUP1 PUSH1 0x20 MUL PUSH1 0x20 ADD PUSH1 0x40 MLOAD SWAP1 DUP2 ADD PUSH1 0x40 MSTORE DUP1 SWAP3 SWAP2 SWAP1 DUP2 DUP2 MSTORE PUSH1 0x20 ADD DUP3 DUP1 SLOAD DUP1 ISZERO PUSH2 0xA83 JUMPI PUSH1 0x20 MUL DUP3 ADD SWAP2 SWAP1 PUSH0 MSTORE PUSH1 0x20 PUSH0 KECCAK256 SWAP1 JUMPDEST DUP2 SLOAD DUP2 MSTORE PUSH1 0x20 ADD SWAP1 PUSH1 0x1 ADD SWAP1 DUP1 DUP4 GT PUSH2 0xA6F JUMPI JUMPDEST POP POP POP POP POP SWAP1 POP SWAP1 JUMP JUMPDEST PUSH1 0x7 PUSH1 0x20 MSTORE DUP2 PUSH0 MSTORE PUSH1 0x40 PUSH0 KECCAK256 DUP2 DUP2 SLOAD DUP2 LT PUSH2 0xAA6 JUMPI PUSH0 DUP1 REVERT JUMPDEST SWAP1 PUSH0 MSTORE PUSH1 0x20 PUSH0 KECCAK256 ADD PUSH0 SWAP2 POP SWAP2 POP POP SLOAD DUP2 JUMP JUMPDEST PUSH1 0xA DUP2 DUP2 SLOAD DUP2 LT PUSH2 0xAC7 JUMPI PUSH0 DUP1 REVERT JUMPDEST SWAP1 PUSH0 MSTORE PUSH1 0x20 PUSH0 KECCAK256 ADD PUSH0 SWAP2 POP SWAP1 POP SLOAD DUP2 JUMP JUMPDEST PUSH0 PUSH1 0x6 PUSH0 DUP4 DUP2 MSTORE PUSH1 0x20 ADD SWAP1 DUP2 MSTORE PUSH1 0x20 ADD PUSH0 KECCAK256 SWAP1 POP PUSH0 DUP2 PUSH0 ADD SLOAD GT PUSH2 0xB31 JUMPI PUSH1 0x40 MLOAD PUSH32 0x8C379A000000000000000000000000000000000000000000000000000000000 DUP2 MSTORE PUSH1 0x4 ADD PUSH2 0xB28 SWAP1 PUSH2 0x3894 JUMP JUMPDEST PUSH1 0x40 MLOAD DUP1 SWAP2 SUB SWAP1 REVERT JUMPDEST DUP1 PUSH1 0x7 ADD PUSH0 SWAP1 SLOAD SWAP1 PUSH2 0x100 EXP SWAP1 DIV PUSH1 0xFF AND PUSH2 0xB81 JUMPI PUSH1 0x40 MLOAD PUSH32 0x8C379A000000000000000000000000000000000000000000000000000000000 DUP2 MSTORE PUSH1 0x4 ADD PUSH2 0xB78 SWAP1 PUSH2 0x39B9 JUMP JUMPDEST PUSH1 0x40 MLOAD DUP1 SWAP2 SUB SWAP1 REVERT JUMPDEST CALLER PUSH20 0xFFFFFFFFFFFFFFFFFFFFFFFFFFFFFFFFFFFFFFFF AND DUP2 PUSH1 0x1 ADD PUSH0 SWAP1 SLOAD SWAP1 PUSH2 0x100 EXP SWAP1 DIV PUSH20 0xFFFFFFFFFFFFFFFFFFFFFFFFFFFFFFFFFFFFFFFF AND PUSH20 0xFFFFFFFFFFFFFFFFFFFFFFFFFFFFFFFFFFFFFFFF AND EQ PUSH2 0xC12 JUMPI PUSH1 0x40 MLOAD PUSH32 0x8C379A000000000000000000000000000000000000000000000000000000000 DUP2 MSTORE PUSH1 0x4 ADD PUSH2 0xC09 SWAP1 PUSH2 0x3A47 JUMP JUMPDEST PUSH1 0x40 MLOAD DUP1 SWAP2 SUB SWAP1 REVERT JUMPDEST PUSH0 PUSH3 0x15180 DUP3 PUSH1 0x2 ADD SLOAD DUP4 PUSH1 0x3 ADD SLOAD PUSH2 0xC2B SWAP2 SWAP1 PUSH2 0x38DF JUMP JUMPDEST PUSH2 0xC35 SWAP2 SWAP1 PUSH2 0x393F JUMP JUMPDEST SWAP1 POP PUSH2 0x3E8 DUP2 EQ PUSH2 0xC7B JUMPI PUSH1 0x40 MLOAD PUSH32 0x8C379A000000000000000000000000000000000000000000000000000000000 DUP2 MSTORE PUSH1 0x4 ADD PUSH2 0xC72 SWAP1 PUSH2 0x3AD5 JUMP JUMPDEST PUSH1 0x40 MLOAD DUP1 SWAP2 SUB SWAP1 REVERT JUMPDEST PUSH0 PUSH3 0x15180 DUP4 PUSH1 0x8 ADD SLOAD TIMESTAMP PUSH2 0xC90 SWAP2 SWAP1 PUSH2 0x38DF JUMP JUMPDEST PUSH2 0xC9A SWAP2 SWAP1 PUSH2 0x393F JUMP JUMPDEST SWAP1 POP PUSH0 DUP2 GT PUSH2 0xCDE JUMPI PUSH1 0x40 MLOAD PUSH32 0x8C379A000000000000000000000000000000000000000000000000000000000 DUP2 MSTORE PUSH1 0x4 ADD PUSH2 0xCD5 SWAP1 PUSH2 0x3B63 JUMP JUMPDEST PUSH1 0x40 MLOAD DUP1 SWAP2 SUB SWAP1 REVERT JUMPDEST PUSH0 DUP3 PUSH1 0x8 PUSH0 DUP6 DUP2 MSTORE PUSH1 0x20 ADD SWAP1 DUP2 MSTORE PUSH1 0x20 ADD PUSH0 KECCAK256 SLOAD PUSH2 0xCFC SWAP2 SWAP1 PUSH2 0x393F JUMP JUMPDEST SWAP1 POP PUSH0 PUSH2 0x2710 DUP4 DUP7 PUSH1 0x5 ADD SLOAD DUP5 PUSH2 0xD13 SWAP2 SWAP1 PUSH2 0x3B81 JUMP JUMPDEST PUSH2 0xD1D SWAP2 SWAP1 PUSH2 0x3B81 JUMP JUMPDEST PUSH2 0xD27 SWAP2 SWAP1 PUSH2 0x393F JUMP JUMPDEST SWAP1 POP TIMESTAMP DUP6 PUSH1 0x8 ADD DUP2 SWAP1 SSTORE POP PUSH1 0x1 PUSH0 SWAP1 SLOAD SWAP1 PUSH2 0x100 EXP SWAP1 DIV PUSH20 0xFFFFFFFFFFFFFFFFFFFFFFFFFFFFFFFFFFFFFFFF AND PUSH20 0xFFFFFFFFFFFFFFFFFFFFFFFFFFFFFFFFFFFFFFFF AND PUSH4 0xA9059CBB CALLER DUP4 PUSH1 0x40 MLOAD DUP4 PUSH4 0xFFFFFFFF AND PUSH1 0xE0 SHL DUP2 MSTORE PUSH1 0x4 ADD PUSH2 0xD8E SWAP3 SWAP2 SWAP1 PUSH2 0x3BC2 JUMP JUMPDEST PUSH1 0x20 PUSH1 0x40 MLOAD DUP1 DUP4 SUB DUP2 PUSH0 DUP8 GAS CALL ISZERO DUP1 ISZERO PUSH2 0xDAA JUMPI RETURNDATASIZE PUSH0 DUP1 RETURNDATACOPY RETURNDATASIZE PUSH0 REVERT JUMPDEST POP POP POP POP PUSH1 0x40 MLOAD RETURNDATASIZE PUSH1 0x1F NOT PUSH1 0x1F DUP3 ADD AND DUP3 ADD DUP1 PUSH1 0x40 MSTORE POP DUP2 ADD SWAP1 PUSH2 0xDCE SWAP2 SWAP1 PUSH2 0x3C13 JUMP JUMPDEST PUSH2 0xE0D JUMPI PUSH1 0x40 MLOAD PUSH32 0x8C379A000000000000000000000000000000000000000000000000000000000 DUP2 MSTORE PUSH1 0x4 ADD PUSH2 0xE04 SWAP1 PUSH2 0x3C88 JUMP JUMPDEST PUSH1 0x40 MLOAD DUP1 SWAP2 SUB SWAP1 REVERT JUMPDEST POP POP POP POP POP POP JUMP JUMPDEST PUSH0 PUSH1 0xC PUSH0 CALLER PUSH20 0xFFFFFFFFFFFFFFFFFFFFFFFFFFFFFFFFFFFFFFFF AND PUSH20 0xFFFFFFFFFFFFFFFFFFFFFFFFFFFFFFFFFFFFFFFF AND DUP2 MSTORE PUSH1 0x20 ADD SWAP1 DUP2 MSTORE PUSH1 0x20 ADD PUSH0 KECCAK256 SLOAD SWAP1 POP PUSH0 DUP2 GT PUSH2 0xE98 JUMPI PUSH1 0x40 MLOAD PUSH32 0x8C379A000000000000000000000000000000000000000000000000000000000 DUP2 MSTORE PUSH1 0x4 ADD PUSH2 0xE8F SWAP1 PUSH2 0x3D16 JUMP JUMPDEST PUSH1 0x40 MLOAD DUP1 SWAP2 SUB SWAP1 REVERT JUMPDEST PUSH0 PUSH1 0xC PUSH0 CALLER PUSH20 0xFFFFFFFFFFFFFFFFFFFFFFFFFFFFFFFFFFFFFFFF AND PUSH20 0xFFFFFFFFFFFFFFFFFFFFFFFFFFFFFFFFFFFFFFFF AND DUP2 MSTORE PUSH1 0x20 ADD SWAP1 DUP2 MSTORE PUSH1 0x20 ADD PUSH0 KECCAK256 DUP2 SWAP1 SSTORE POP PUSH1 0x1 PUSH0 SWAP1 SLOAD SWAP1 PUSH2 0x100 EXP SWAP1 DIV PUSH20 0xFFFFFFFFFFFFFFFFFFFFFFFFFFFFFFFFFFFFFFFF AND PUSH20 0xFFFFFFFFFFFFFFFFFFFFFFFFFFFFFFFFFFFFFFFF AND PUSH4 0xA9059CBB CALLER DUP4 PUSH1 0x40 MLOAD DUP4 PUSH4 0xFFFFFFFF AND PUSH1 0xE0 SHL DUP2 MSTORE PUSH1 0x4 ADD PUSH2 0xF36 SWAP3 SWAP2 SWAP1 PUSH2 0x3BC2 JUMP JUMPDEST PUSH1 0x20 PUSH1 0x40 MLOAD DUP1 DUP4 SUB DUP2 PUSH0 DUP8 GAS CALL ISZERO DUP1 ISZERO PUSH2 0xF52 JUMPI RETURNDATASIZE PUSH0 DUP1 RETURNDATACOPY RETURNDATASIZE PUSH0 REVERT JUMPDEST POP POP POP POP PUSH1 0x40 MLOAD RETURNDATASIZE PUSH1 0x1F NOT PUSH1 0x1F DUP3 ADD AND DUP3 ADD DUP1 PUSH1 0x40 MSTORE POP DUP2 ADD SWAP1 PUSH2 0xF76 SWAP2 SWAP1 PUSH2 0x3C13 JUMP JUMPDEST PUSH2 0xFB5 JUMPI PUSH1 0x40 MLOAD PUSH32 0x8C379A000000000000000000000000000000000000000000000000000000000 DUP2 MSTORE PUSH1 0x4 ADD PUSH2 0xFAC SWAP1 PUSH2 0x3DA4 JUMP JUMPDEST PUSH1 0x40 MLOAD DUP1 SWAP2 SUB SWAP1 REVERT JUMPDEST POP JUMP JUMPDEST PUSH0 DUP1 SLOAD SWAP1 PUSH2 0x100 EXP SWAP1 DIV PUSH20 0xFFFFFFFFFFFFFFFFFFFFFFFFFFFFFFFFFFFFFFFF AND PUSH20 0xFFFFFFFFFFFFFFFFFFFFFFFFFFFFFFFFFFFFFFFF AND CALLER PUSH20 0xFFFFFFFFFFFFFFFFFFFFFFFFFFFFFFFFFFFFFFFF AND EQ PUSH2 0x1045 JUMPI PUSH1 0x40 MLOAD PUSH32 0x8C379A000000000000000000000000000000000000000000000000000000000 DUP2 MSTORE PUSH1 0x4 ADD PUSH2 0x103C SWAP1 PUSH2 0x3E32 JUMP JUMPDEST PUSH1 0x40 MLOAD DUP1 SWAP2 SUB SWAP1 REVERT JUMPDEST PUSH0 PUSH1 0x1 PUSH0 SWAP1 SLOAD SWAP1 PUSH2 0x100 EXP SWAP1 DIV PUSH20 0xFFFFFFFFFFFFFFFFFFFFFFFFFFFFFFFFFFFFFFFF AND PUSH20 0xFFFFFFFFFFFFFFFFFFFFFFFFFFFFFFFFFFFFFFFF AND PUSH4 0x70A08231 ADDRESS PUSH1 0x40 MLOAD DUP3 PUSH4 0xFFFFFFFF AND PUSH1 0xE0 SHL DUP2 MSTORE PUSH1 0x4 ADD PUSH2 0x10A0 SWAP2 SWAP1 PUSH2 0x344C JUMP JUMPDEST PUSH1 0x20 PUSH1 0x40 MLOAD DUP1 DUP4 SUB DUP2 DUP7 GAS STATICCALL ISZERO DUP1 ISZERO PUSH2 0x10BB JUMPI RETURNDATASIZE PUSH0 DUP1 RETURNDATACOPY RETURNDATASIZE PUSH0 REVERT JUMPDEST POP POP POP POP PUSH1 0x40 MLOAD RETURNDATASIZE PUSH1 0x1F NOT PUSH1 0x1F DUP3 ADD AND DUP3 ADD DUP1 PUSH1 0x40 MSTORE POP DUP2 ADD SWAP1 PUSH2 0x10DF SWAP2 SWAP1 PUSH2 0x3E64 JUMP JUMPDEST SWAP1 POP PUSH0 DUP2 GT PUSH2 0x1123 JUMPI PUSH1 0x40 MLOAD PUSH32 0x8C379A000000000000000000000000000000000000000000000000000000000 DUP2 MSTORE PUSH1 0x4 ADD PUSH2 0x111A SWAP1 PUSH2 0x3ED9 JUMP JUMPDEST PUSH1 0x40 MLOAD DUP1 SWAP2 SUB SWAP1 REVERT JUMPDEST PUSH1 0x1 PUSH0 SWAP1 SLOAD SWAP1 PUSH2 0x100 EXP SWAP1 DIV PUSH20 0xFFFFFFFFFFFFFFFFFFFFFFFFFFFFFFFFFFFFFFFF AND PUSH20 0xFFFFFFFFFFFFFFFFFFFFFFFFFFFFFFFFFFFFFFFF AND PUSH4 0xA9059CBB PUSH0 DUP1 SLOAD SWAP1 PUSH2 0x100 EXP SWAP1 DIV PUSH20 0xFFFFFFFFFFFFFFFFFFFFFFFFFFFFFFFFFFFFFFFF AND DUP4 PUSH1 0x40 MLOAD DUP4 PUSH4 0xFFFFFFFF AND PUSH1 0xE0 SHL DUP2 MSTORE PUSH1 0x4 ADD PUSH2 0x119E SWAP3 SWAP2 SWAP1 PUSH2 0x3BC2 JUMP JUMPDEST PUSH1 0x20 PUSH1 0x40 MLOAD DUP1 DUP4 SUB DUP2 PUSH0 DUP8 GAS CALL ISZERO DUP1 ISZERO PUSH2 0x11BA JUMPI RETURNDATASIZE PUSH0 DUP1 RETURNDATACOPY RETURNDATASIZE PUSH0 REVERT JUMPDEST POP POP POP POP PUSH1 0x40 MLOAD RETURNDATASIZE PUSH1 0x1F NOT PUSH1 0x1F DUP3 ADD AND DUP3 ADD DUP1 PUSH1 0x40 MSTORE POP DUP2 ADD SWAP1 PUSH2 0x11DE SWAP2 SWAP1 PUSH2 0x3C13 JUMP JUMPDEST PUSH2 0x121D JUMPI PUSH1 0x40 MLOAD PUSH32 0x8C379A000000000000000000000000000000000000000000000000000000000 DUP2 MSTORE PUSH1 0x4 ADD PUSH2 0x1214 SWAP1 PUSH2 0x3F41 JUMP JUMPDEST PUSH1 0x40 MLOAD DUP1 SWAP2 SUB SWAP1 REVERT JUMPDEST POP JUMP JUMPDEST PUSH0 PUSH1 0x1 PUSH0 SWAP1 SLOAD SWAP1 PUSH2 0x100 EXP SWAP1 DIV PUSH20 0xFFFFFFFFFFFFFFFFFFFFFFFFFFFFFFFFFFFFFFFF AND PUSH20 0xFFFFFFFFFFFFFFFFFFFFFFFFFFFFFFFFFFFFFFFF AND PUSH4 0x70A08231 ADDRESS PUSH1 0x40 MLOAD DUP3 PUSH4 0xFFFFFFFF AND PUSH1 0xE0 SHL DUP2 MSTORE PUSH1 0x4 ADD PUSH2 0x127B SWAP2 SWAP1 PUSH2 0x344C JUMP JUMPDEST PUSH1 0x20 PUSH1 0x40 MLOAD DUP1 DUP4 SUB DUP2 DUP7 GAS STATICCALL ISZERO DUP1 ISZERO PUSH2 0x1296 JUMPI RETURNDATASIZE PUSH0 DUP1 RETURNDATACOPY RETURNDATASIZE PUSH0 REVERT JUMPDEST POP POP POP POP PUSH1 0x40 MLOAD RETURNDATASIZE PUSH1 0x1F NOT PUSH1 0x1F DUP3 ADD AND DUP3 ADD DUP1 PUSH1 0x40 MSTORE POP DUP2 ADD SWAP1 PUSH2 0x12BA SWAP2 SWAP1 PUSH2 0x3E64 JUMP JUMPDEST SWAP1 POP SWAP1 JUMP JUMPDEST PUSH0 DUP1 SLOAD SWAP1 PUSH2 0x100 EXP SWAP1 DIV PUSH20 0xFFFFFFFFFFFFFFFFFFFFFFFFFFFFFFFFFFFFFFFF AND DUP2 JUMP JUMPDEST PUSH1 0x6 PUSH1 0x20 MSTORE DUP1 PUSH0 MSTORE PUSH1 0x40 PUSH0 KECCAK256 PUSH0 SWAP2 POP SWAP1 POP DUP1 PUSH0 ADD SLOAD SWAP1 DUP1 PUSH1 0x1 ADD PUSH0 SWAP1 SLOAD SWAP1 PUSH2 0x100 EXP SWAP1 DIV PUSH20 0xFFFFFFFFFFFFFFFFFFFFFFFFFFFFFFFFFFFFFFFF AND SWAP1 DUP1 PUSH1 0x2 ADD SLOAD SWAP1 DUP1 PUSH1 0x3 ADD SLOAD SWAP1 DUP1 PUSH1 0x4 ADD SLOAD SWAP1 DUP1 PUSH1 0x5 ADD SLOAD SWAP1 DUP1 PUSH1 0x6 ADD SLOAD SWAP1 DUP1 PUSH1 0x7 ADD PUSH0 SWAP1 SLOAD SWAP1 PUSH2 0x100 EXP SWAP1 DIV PUSH1 0xFF AND SWAP1 DUP1 PUSH1 0x8 ADD SLOAD SWAP1 POP DUP10 JUMP JUMPDEST PUSH1 0x4 SLOAD DUP2 JUMP JUMPDEST PUSH0 PUSH1 0x6 PUSH0 DUP4 DUP2 MSTORE PUSH1 0x20 ADD SWAP1 DUP2 MSTORE PUSH1 0x20 ADD PUSH0 KECCAK256 SWAP1 POP DUP1 PUSH1 0x7 ADD PUSH0 SWAP1 SLOAD SWAP1 PUSH2 0x100 EXP SWAP1 DIV PUSH1 0xFF AND PUSH2 0x13C1 JUMPI PUSH1 0x40 MLOAD PUSH32 0x8C379A000000000000000000000000000000000000000000000000000000000 DUP2 MSTORE PUSH1 0x4 ADD PUSH2 0x13B8 SWAP1 PUSH2 0x3FA9 JUMP JUMPDEST PUSH1 0x40 MLOAD DUP1 SWAP2 SUB SWAP1 REVERT JUMPDEST PUSH0 DUP1 SLOAD SWAP1 PUSH2 0x100 EXP SWAP1 DIV PUSH20 0xFFFFFFFFFFFFFFFFFFFFFFFFFFFFFFFFFFFFFFFF AND PUSH20 0xFFFFFFFFFFFFFFFFFFFFFFFFFFFFFFFFFFFFFFFF AND CALLER PUSH20 0xFFFFFFFFFFFFFFFFFFFFFFFFFFFFFFFFFFFFFFFF AND EQ DUP1 PUSH2 0x1468 JUMPI POP DUP1 PUSH1 0x1 ADD PUSH0 SWAP1 SLOAD SWAP1 PUSH2 0x100 EXP SWAP1 DIV PUSH20 0xFFFFFFFFFFFFFFFFFFFFFFFFFFFFFFFFFFFFFFFF AND PUSH20 0xFFFFFFFFFFFFFFFFFFFFFFFFFFFFFFFFFFFFFFFF AND CALLER PUSH20 0xFFFFFFFFFFFFFFFFFFFFFFFFFFFFFFFFFFFFFFFF AND EQ JUMPDEST PUSH2 0x14A7 JUMPI PUSH1 0x40 MLOAD PUSH32 0x8C379A000000000000000000000000000000000000000000000000000000000 DUP2 MSTORE PUSH1 0x4 ADD PUSH2 0x149E SWAP1 PUSH2 0x4011 JUMP JUMPDEST PUSH1 0x40 MLOAD DUP1 SWAP2 SUB SWAP1 REVERT JUMPDEST DUP1 PUSH1 0x3 ADD SLOAD TIMESTAMP LT ISZERO PUSH2 0x14EE JUMPI PUSH1 0x40 MLOAD PUSH32 0x8C379A000000000000000000000000000000000000000000000000000000000 DUP2 MSTORE PUSH1 0x4 ADD PUSH2 0x14E5 SWAP1 PUSH2 0x4079 JUMP JUMPDEST PUSH1 0x40 MLOAD DUP1 SWAP2 SUB SWAP1 REVERT JUMPDEST PUSH1 0x1 PUSH0 SWAP1 SLOAD SWAP1 PUSH2 0x100 EXP SWAP1 DIV PUSH20 0xFFFFFFFFFFFFFFFFFFFFFFFFFFFFFFFFFFFFFFFF AND PUSH20 0xFFFFFFFFFFFFFFFFFFFFFFFFFFFFFFFFFFFFFFFF AND PUSH4 0xA9059CBB DUP3 PUSH1 0x1 ADD PUSH0 SWAP1 SLOAD SWAP1 PUSH2 0x100 EXP SWAP1 DIV PUSH20 0xFFFFFFFFFFFFFFFFFFFFFFFFFFFFFFFFFFFFFFFF AND DUP4 PUSH1 0x5 ADD SLOAD PUSH1 0x40 MLOAD DUP4 PUSH4 0xFFFFFFFF AND PUSH1 0xE0 SHL DUP2 MSTORE PUSH1 0x4 ADD PUSH2 0x1571 SWAP3 SWAP2 SWAP1 PUSH2 0x3BC2 JUMP JUMPDEST PUSH1 0x20 PUSH1 0x40 MLOAD DUP1 DUP4 SUB DUP2 PUSH0 DUP8 GAS CALL ISZERO DUP1 ISZERO PUSH2 0x158D JUMPI RETURNDATASIZE PUSH0 DUP1 RETURNDATACOPY RETURNDATASIZE PUSH0 REVERT JUMPDEST POP POP POP POP PUSH1 0x40 MLOAD RETURNDATASIZE PUSH1 0x1F NOT PUSH1 0x1F DUP3 ADD AND DUP3 ADD DUP1 PUSH1 0x40 MSTORE POP DUP2 ADD SWAP1 PUSH2 0x15B1 SWAP2 SWAP1 PUSH2 0x3C13 JUMP JUMPDEST PUSH2 0x15F0 JUMPI PUSH1 0x40 MLOAD PUSH32 0x8C379A000000000000000000000000000000000000000000000000000000000 DUP2 MSTORE PUSH1 0x4 ADD PUSH2 0x15E7 SWAP1 PUSH2 0x3F41 JUMP JUMPDEST PUSH1 0x40 MLOAD DUP1 SWAP2 SUB SWAP1 REVERT JUMPDEST PUSH0 DUP2 PUSH1 0x6 ADD SLOAD GT ISZERO PUSH2 0x16FF JUMPI PUSH1 0x1 PUSH0 SWAP1 SLOAD SWAP1 PUSH2 0x100 EXP SWAP1 DIV PUSH20 0xFFFFFFFFFFFFFFFFFFFFFFFFFFFFFFFFFFFFFFFF AND PUSH20 0xFFFFFFFFFFFFFFFFFFFFFFFFFFFFFFFFFFFFFFFF AND PUSH4 0xA9059CBB DUP3 PUSH1 0x1 ADD PUSH0 SWAP1 SLOAD SWAP1 PUSH2 0x100 EXP SWAP1 DIV PUSH20 0xFFFFFFFFFFFFFFFFFFFFFFFFFFFFFFFFFFFFFFFF AND DUP4 PUSH1 0x6 ADD SLOAD PUSH1 0x40 MLOAD DUP4 PUSH4 0xFFFFFFFF AND PUSH1 0xE0 SHL DUP2 MSTORE PUSH1 0x4 ADD PUSH2 0x167F SWAP3 SWAP2 SWAP1 PUSH2 0x3BC2 JUMP JUMPDEST PUSH1 0x20 PUSH1 0x40 MLOAD DUP1 DUP4 SUB DUP2 PUSH0 DUP8 GAS CALL ISZERO DUP1 ISZERO PUSH2 0x169B JUMPI RETURNDATASIZE PUSH0 DUP1 RETURNDATACOPY RETURNDATASIZE PUSH0 REVERT JUMPDEST POP POP POP POP PUSH1 0x40 MLOAD RETURNDATASIZE PUSH1 0x1F NOT PUSH1 0x1F DUP3 ADD AND DUP3 ADD DUP1 PUSH1 0x40 MSTORE POP DUP2 ADD SWAP1 PUSH2 0x16BF SWAP2 SWAP1 PUSH2 0x3C13 JUMP JUMPDEST PUSH2 0x16FE JUMPI PUSH1 0x40 MLOAD PUSH32 0x8C379A000000000000000000000000000000000000000000000000000000000 DUP2 MSTORE PUSH1 0x4 ADD PUSH2 0x16F5 SWAP1 PUSH2 0x3C88 JUMP JUMPDEST PUSH1 0x40 MLOAD DUP1 SWAP2 SUB SWAP1 REVERT JUMPDEST JUMPDEST PUSH0 DUP2 PUSH1 0x7 ADD PUSH0 PUSH2 0x100 EXP DUP2 SLOAD DUP2 PUSH1 0xFF MUL NOT AND SWAP1 DUP4 ISZERO ISZERO MUL OR SWAP1 SSTORE POP DUP2 PUSH32 0xBF542298705ED6FD22DDF94EE2DB731CED9191396E6E7F7B6862803555F9FF21 PUSH1 0x40 MLOAD PUSH1 0x40 MLOAD DUP1 SWAP2 SUB SWAP1 LOG2 PUSH1 0x5 PUSH0 CALLER PUSH20 0xFFFFFFFFFFFFFFFFFFFFFFFFFFFFFFFFFFFFFFFF AND PUSH20 0xFFFFFFFFFFFFFFFFFFFFFFFFFFFFFFFFFFFFFFFF AND DUP2 MSTORE PUSH1 0x20 ADD SWAP1 DUP2 MSTORE PUSH1 0x20 ADD PUSH0 KECCAK256 PUSH1 0x6 PUSH0 DUP5 DUP2 MSTORE PUSH1 0x20 ADD SWAP1 DUP2 MSTORE PUSH1 0x20 ADD PUSH0 KECCAK256 SWAP1 DUP1 PUSH1 0x1 DUP2 SLOAD ADD DUP1 DUP3 SSTORE DUP1 SWAP2 POP POP PUSH1 0x1 SWAP1 SUB SWAP1 PUSH0 MSTORE PUSH1 0x20 PUSH0 KECCAK256 SWAP1 PUSH1 0x9 MUL ADD PUSH0 SWAP1 SWAP2 SWAP1 SWAP2 SWAP1 SWAP2 POP PUSH0 DUP3 ADD SLOAD DUP2 PUSH0 ADD SSTORE PUSH1 0x1 DUP3 ADD PUSH0 SWAP1 SLOAD SWAP1 PUSH2 0x100 EXP SWAP1 DIV PUSH20 0xFFFFFFFFFFFFFFFFFFFFFFFFFFFFFFFFFFFFFFFF AND DUP2 PUSH1 0x1 ADD PUSH0 PUSH2 0x100 EXP DUP2 SLOAD DUP2 PUSH20 0xFFFFFFFFFFFFFFFFFFFFFFFFFFFFFFFFFFFFFFFF MUL NOT AND SWAP1 DUP4 PUSH20 0xFFFFFFFFFFFFFFFFFFFFFFFFFFFFFFFFFFFFFFFF AND MUL OR SWAP1 SSTORE POP PUSH1 0x2 DUP3 ADD SLOAD DUP2 PUSH1 0x2 ADD SSTORE PUSH1 0x3 DUP3 ADD SLOAD DUP2 PUSH1 0x3 ADD SSTORE PUSH1 0x4 DUP3 ADD SLOAD DUP2 PUSH1 0x4 ADD SSTORE PUSH1 0x5 DUP3 ADD SLOAD DUP2 PUSH1 0x5 ADD SSTORE PUSH1 0x6 DUP3 ADD SLOAD DUP2 PUSH1 0x6 ADD SSTORE PUSH1 0x7 DUP3 ADD PUSH0 SWAP1 SLOAD SWAP1 PUSH2 0x100 EXP SWAP1 DIV PUSH1 0xFF AND DUP2 PUSH1 0x7 ADD PUSH0 PUSH2 0x100 EXP DUP2 SLOAD DUP2 PUSH1 0xFF MUL NOT AND SWAP1 DUP4 ISZERO ISZERO MUL OR SWAP1 SSTORE POP PUSH1 0x8 DUP3 ADD SLOAD DUP2 PUSH1 0x8 ADD SSTORE POP POP POP POP JUMP JUMPDEST PUSH1 0x9 SLOAD DUP2 JUMP JUMPDEST PUSH1 0x5 PUSH1 0x20 MSTORE DUP2 PUSH0 MSTORE PUSH1 0x40 PUSH0 KECCAK256 DUP2 DUP2 SLOAD DUP2 LT PUSH2 0x18B4 JUMPI PUSH0 DUP1 REVERT JUMPDEST SWAP1 PUSH0 MSTORE PUSH1 0x20 PUSH0 KECCAK256 SWAP1 PUSH1 0x9 MUL ADD PUSH0 SWAP2 POP SWAP2 POP POP DUP1 PUSH0 ADD SLOAD SWAP1 DUP1 PUSH1 0x1 ADD PUSH0 SWAP1 SLOAD SWAP1 PUSH2 0x100 EXP SWAP1 DIV PUSH20 0xFFFFFFFFFFFFFFFFFFFFFFFFFFFFFFFFFFFFFFFF AND SWAP1 DUP1 PUSH1 0x2 ADD SLOAD SWAP1 DUP1 PUSH1 0x3 ADD SLOAD SWAP1 DUP1 PUSH1 0x4 ADD SLOAD SWAP1 DUP1 PUSH1 0x5 ADD SLOAD SWAP1 DUP1 PUSH1 0x6 ADD SLOAD SWAP1 DUP1 PUSH1 0x7 ADD PUSH0 SWAP1 SLOAD SWAP1 PUSH2 0x100 EXP SWAP1 DIV PUSH1 0xFF AND SWAP1 DUP1 PUSH1 0x8 ADD SLOAD SWAP1 POP DUP10 JUMP JUMPDEST PUSH1 0x60 PUSH0 PUSH1 0x7 PUSH0 DUP5 PUSH20 0xFFFFFFFFFFFFFFFFFFFFFFFFFFFFFFFFFFFFFFFF AND PUSH20 0xFFFFFFFFFFFFFFFFFFFFFFFFFFFFFFFFFFFFFFFF AND DUP2 MSTORE PUSH1 0x20 ADD SWAP1 DUP2 MSTORE PUSH1 0x20 ADD PUSH0 KECCAK256 DUP1 SLOAD DUP1 PUSH1 0x20 MUL PUSH1 0x20 ADD PUSH1 0x40 MLOAD SWAP1 DUP2 ADD PUSH1 0x40 MSTORE DUP1 SWAP3 SWAP2 SWAP1 DUP2 DUP2 MSTORE PUSH1 0x20 ADD DUP3 DUP1 SLOAD DUP1 ISZERO PUSH2 0x19B2 JUMPI PUSH1 0x20 MUL DUP3 ADD SWAP2 SWAP1 PUSH0 MSTORE PUSH1 0x20 PUSH0 KECCAK256 SWAP1 JUMPDEST DUP2 SLOAD DUP2 MSTORE PUSH1 0x20 ADD SWAP1 PUSH1 0x1 ADD SWAP1 DUP1 DUP4 GT PUSH2 0x199E JUMPI JUMPDEST POP POP POP POP POP SWAP1 POP PUSH0 DUP2 MLOAD SWAP1 POP PUSH0 DUP2 PUSH8 0xFFFFFFFFFFFFFFFF DUP2 GT ISZERO PUSH2 0x19D9 JUMPI PUSH2 0x19D8 PUSH2 0x4097 JUMP JUMPDEST JUMPDEST PUSH1 0x40 MLOAD SWAP1 DUP1 DUP3 MSTORE DUP1 PUSH1 0x20 MUL PUSH1 0x20 ADD DUP3 ADD PUSH1 0x40 MSTORE DUP1 ISZERO PUSH2 0x1A12 JUMPI DUP2 PUSH1 0x20 ADD JUMPDEST PUSH2 0x19FF PUSH2 0x3130 JUMP JUMPDEST DUP2 MSTORE PUSH1 0x20 ADD SWAP1 PUSH1 0x1 SWAP1 SUB SWAP1 DUP2 PUSH2 0x19F7 JUMPI SWAP1 POP JUMPDEST POP SWAP1 POP PUSH0 JUMPDEST DUP3 DUP2 LT ISZERO PUSH2 0x1B3A JUMPI PUSH0 DUP5 DUP3 DUP2 MLOAD DUP2 LT PUSH2 0x1A33 JUMPI PUSH2 0x1A32 PUSH2 0x40C4 JUMP JUMPDEST JUMPDEST PUSH1 0x20 MUL PUSH1 0x20 ADD ADD MLOAD SWAP1 POP PUSH1 0x6 PUSH0 DUP3 DUP2 MSTORE PUSH1 0x20 ADD SWAP1 DUP2 MSTORE PUSH1 0x20 ADD PUSH0 KECCAK256 PUSH1 0x40 MLOAD DUP1 PUSH2 0x120 ADD PUSH1 0x40 MSTORE SWAP1 DUP2 PUSH0 DUP3 ADD SLOAD DUP2 MSTORE PUSH1 0x20 ADD PUSH1 0x1 DUP3 ADD PUSH0 SWAP1 SLOAD SWAP1 PUSH2 0x100 EXP SWAP1 DIV PUSH20 0xFFFFFFFFFFFFFFFFFFFFFFFFFFFFFFFFFFFFFFFF AND PUSH20 0xFFFFFFFFFFFFFFFFFFFFFFFFFFFFFFFFFFFFFFFF AND PUSH20 0xFFFFFFFFFFFFFFFFFFFFFFFFFFFFFFFFFFFFFFFF AND DUP2 MSTORE PUSH1 0x20 ADD PUSH1 0x2 DUP3 ADD SLOAD DUP2 MSTORE PUSH1 0x20 ADD PUSH1 0x3 DUP3 ADD SLOAD DUP2 MSTORE PUSH1 0x20 ADD PUSH1 0x4 DUP3 ADD SLOAD DUP2 MSTORE PUSH1 0x20 ADD PUSH1 0x5 DUP3 ADD SLOAD DUP2 MSTORE PUSH1 0x20 ADD PUSH1 0x6 DUP3 ADD SLOAD DUP2 MSTORE PUSH1 0x20 ADD PUSH1 0x7 DUP3 ADD PUSH0 SWAP1 SLOAD SWAP1 PUSH2 0x100 EXP SWAP1 DIV PUSH1 0xFF AND ISZERO ISZERO ISZERO ISZERO DUP2 MSTORE PUSH1 0x20 ADD PUSH1 0x8 DUP3 ADD SLOAD DUP2 MSTORE POP POP DUP4 DUP4 DUP2 MLOAD DUP2 LT PUSH2 0x1B21 JUMPI PUSH2 0x1B20 PUSH2 0x40C4 JUMP JUMPDEST JUMPDEST PUSH1 0x20 MUL PUSH1 0x20 ADD ADD DUP2 SWAP1 MSTORE POP POP DUP1 DUP1 PUSH1 0x1 ADD SWAP2 POP POP PUSH2 0x1A17 JUMP JUMPDEST POP DUP1 SWAP4 POP POP POP POP SWAP2 SWAP1 POP JUMP JUMPDEST PUSH1 0x2 PUSH1 0x20 MSTORE DUP1 PUSH0 MSTORE PUSH1 0x40 PUSH0 KECCAK256 PUSH0 SWAP2 POP SWAP1 POP DUP1 PUSH0 ADD PUSH0 SWAP1 SLOAD SWAP1 PUSH2 0x100 EXP SWAP1 DIV PUSH20 0xFFFFFFFFFFFFFFFFFFFFFFFFFFFFFFFFFFFFFFFF AND SWAP1 DUP1 PUSH1 0x1 ADD SLOAD SWAP1 DUP1 PUSH1 0x2 ADD SLOAD SWAP1 DUP1 PUSH1 0x3 ADD SLOAD SWAP1 DUP1 PUSH1 0x4 ADD SLOAD SWAP1 POP DUP6 JUMP JUMPDEST PUSH0 PUSH1 0x2 PUSH0 DUP4 PUSH20 0xFFFFFFFFFFFFFFFFFFFFFFFFFFFFFFFFFFFFFFFF AND PUSH20 0xFFFFFFFFFFFFFFFFFFFFFFFFFFFFFFFFFFFFFFFF AND DUP2 MSTORE PUSH1 0x20 ADD SWAP1 DUP2 MSTORE PUSH1 0x20 ADD PUSH0 KECCAK256 PUSH1 0x1 ADD SLOAD SWAP1 POP SWAP2 SWAP1 POP JUMP JUMPDEST CALLER PUSH20 0xFFFFFFFFFFFFFFFFFFFFFFFFFFFFFFFFFFFFFFFF AND PUSH0 DUP1 SLOAD SWAP1 PUSH2 0x100 EXP SWAP1 DIV PUSH20 0xFFFFFFFFFFFFFFFFFFFFFFFFFFFFFFFFFFFFFFFF AND PUSH20 0xFFFFFFFFFFFFFFFFFFFFFFFFFFFFFFFFFFFFFFFF AND EQ PUSH2 0x1C6D JUMPI PUSH1 0x40 MLOAD PUSH32 0x8C379A000000000000000000000000000000000000000000000000000000000 DUP2 MSTORE PUSH1 0x4 ADD PUSH2 0x1C64 SWAP1 PUSH2 0x4161 JUMP JUMPDEST PUSH1 0x40 MLOAD DUP1 SWAP2 SUB SWAP1 REVERT JUMPDEST DUP1 PUSH1 0x8 PUSH0 DUP5 DUP2 MSTORE PUSH1 0x20 ADD SWAP1 DUP2 MSTORE PUSH1 0x20 ADD PUSH0 KECCAK256 DUP2 SWAP1 SSTORE POP PUSH1 0xA DUP3 SWAP1 DUP1 PUSH1 0x1 DUP2 SLOAD ADD DUP1 DUP3 SSTORE DUP1 SWAP2 POP POP PUSH1 0x1 SWAP1 SUB SWAP1 PUSH0 MSTORE PUSH1 0x20 PUSH0 KECCAK256 ADD PUSH0 SWAP1 SWAP2 SWAP1 SWAP2 SWAP1 SWAP2 POP SSTORE POP POP JUMP JUMPDEST PUSH1 0xB PUSH1 0x20 MSTORE DUP1 PUSH0 MSTORE PUSH1 0x40 PUSH0 KECCAK256 PUSH0 SWAP2 POP SWAP1 POP SLOAD DUP2 JUMP JUMPDEST PUSH2 0x1CCA PUSH2 0x3130 JUMP JUMPDEST PUSH1 0x6 PUSH0 DUP4 DUP2 MSTORE PUSH1 0x20 ADD SWAP1 DUP2 MSTORE PUSH1 0x20 ADD PUSH0 KECCAK256 PUSH1 0x40 MLOAD DUP1 PUSH2 0x120 ADD PUSH1 0x40 MSTORE SWAP1 DUP2 PUSH0 DUP3 ADD SLOAD DUP2 MSTORE PUSH1 0x20 ADD PUSH1 0x1 DUP3 ADD PUSH0 SWAP1 SLOAD SWAP1 PUSH2 0x100 EXP SWAP1 DIV PUSH20 0xFFFFFFFFFFFFFFFFFFFFFFFFFFFFFFFFFFFFFFFF AND PUSH20 0xFFFFFFFFFFFFFFFFFFFFFFFFFFFFFFFFFFFFFFFF AND PUSH20 0xFFFFFFFFFFFFFFFFFFFFFFFFFFFFFFFFFFFFFFFF AND DUP2 MSTORE PUSH1 0x20 ADD PUSH1 0x2 DUP3 ADD SLOAD DUP2 MSTORE PUSH1 0x20 ADD PUSH1 0x3 DUP3 ADD SLOAD DUP2 MSTORE PUSH1 0x20 ADD PUSH1 0x4 DUP3 ADD SLOAD DUP2 MSTORE PUSH1 0x20 ADD PUSH1 0x5 DUP3 ADD SLOAD DUP2 MSTORE PUSH1 0x20 ADD PUSH1 0x6 DUP3 ADD SLOAD DUP2 MSTORE PUSH1 0x20 ADD PUSH1 0x7 DUP3 ADD PUSH0 SWAP1 SLOAD SWAP1 PUSH2 0x100 EXP SWAP1 DIV PUSH1 0xFF AND ISZERO ISZERO ISZERO ISZERO DUP2 MSTORE PUSH1 0x20 ADD PUSH1 0x8 DUP3 ADD SLOAD DUP2 MSTORE POP POP SWAP1 POP SWAP2 SWAP1 POP JUMP JUMPDEST PUSH0 DUP1 PUSH1 0x6 PUSH0 DUP5 DUP2 MSTORE PUSH1 0x20 ADD SWAP1 DUP2 MSTORE PUSH1 0x20 ADD PUSH0 KECCAK256 PUSH1 0x40 MLOAD DUP1 PUSH2 0x120 ADD PUSH1 0x40 MSTORE SWAP1 DUP2 PUSH0 DUP3 ADD SLOAD DUP2 MSTORE PUSH1 0x20 ADD PUSH1 0x1 DUP3 ADD PUSH0 SWAP1 SLOAD SWAP1 PUSH2 0x100 EXP SWAP1 DIV PUSH20 0xFFFFFFFFFFFFFFFFFFFFFFFFFFFFFFFFFFFFFFFF AND PUSH20 0xFFFFFFFFFFFFFFFFFFFFFFFFFFFFFFFFFFFFFFFF AND PUSH20 0xFFFFFFFFFFFFFFFFFFFFFFFFFFFFFFFFFFFFFFFF AND DUP2 MSTORE PUSH1 0x20 ADD PUSH1 0x2 DUP3 ADD SLOAD DUP2 MSTORE PUSH1 0x20 ADD PUSH1 0x3 DUP3 ADD SLOAD DUP2 MSTORE PUSH1 0x20 ADD PUSH1 0x4 DUP3 ADD SLOAD DUP2 MSTORE PUSH1 0x20 ADD PUSH1 0x5 DUP3 ADD SLOAD DUP2 MSTORE PUSH1 0x20 ADD PUSH1 0x6 DUP3 ADD SLOAD DUP2 MSTORE PUSH1 0x20 ADD PUSH1 0x7 DUP3 ADD PUSH0 SWAP1 SLOAD SWAP1 PUSH2 0x100 EXP SWAP1 DIV PUSH1 0xFF AND ISZERO ISZERO ISZERO ISZERO DUP2 MSTORE PUSH1 0x20 ADD PUSH1 0x8 DUP3 ADD SLOAD DUP2 MSTORE POP POP SWAP1 POP PUSH0 DUP2 PUSH0 ADD MLOAD GT PUSH2 0x1EBC JUMPI PUSH1 0x40 MLOAD PUSH32 0x8C379A000000000000000000000000000000000000000000000000000000000 DUP2 MSTORE PUSH1 0x4 ADD PUSH2 0x1EB3 SWAP1 PUSH2 0x3894 JUMP JUMPDEST PUSH1 0x40 MLOAD DUP1 SWAP2 SUB SWAP1 REVERT JUMPDEST DUP1 PUSH1 0x60 ADD MLOAD TIMESTAMP LT PUSH2 0x1ED0 JUMPI PUSH0 SWAP2 POP POP PUSH2 0x1EF2 JUMP JUMPDEST PUSH3 0x15180 TIMESTAMP DUP3 PUSH1 0x60 ADD MLOAD PUSH2 0x1EE4 SWAP2 SWAP1 PUSH2 0x38DF JUMP JUMPDEST PUSH2 0x1EEE SWAP2 SWAP1 PUSH2 0x393F JUMP JUMPDEST SWAP2 POP POP JUMPDEST SWAP2 SWAP1 POP JUMP JUMPDEST CALLER PUSH20 0xFFFFFFFFFFFFFFFFFFFFFFFFFFFFFFFFFFFFFFFF AND PUSH0 DUP1 SLOAD SWAP1 PUSH2 0x100 EXP SWAP1 DIV PUSH20 0xFFFFFFFFFFFFFFFFFFFFFFFFFFFFFFFFFFFFFFFF AND PUSH20 0xFFFFFFFFFFFFFFFFFFFFFFFFFFFFFFFFFFFFFFFF AND EQ PUSH2 0x1F84 JUMPI PUSH1 0x40 MLOAD PUSH32 0x8C379A000000000000000000000000000000000000000000000000000000000 DUP2 MSTORE PUSH1 0x4 ADD PUSH2 0x1F7B SWAP1 PUSH2 0x4161 JUMP JUMPDEST PUSH1 0x40 MLOAD DUP1 SWAP2 SUB SWAP1 REVERT JUMPDEST DUP1 PUSH1 0x6 PUSH0 DUP5 DUP2 MSTORE PUSH1 0x20 ADD SWAP1 DUP2 MSTORE PUSH1 0x20 ADD PUSH0 KECCAK256 PUSH1 0x3 ADD DUP2 SWAP1 SSTORE POP POP POP JUMP JUMPDEST PUSH0 PUSH1 0x6 PUSH0 DUP4 DUP2 MSTORE PUSH1 0x20 ADD SWAP1 DUP2 MSTORE PUSH1 0x20 ADD PUSH0 KECCAK256 SWAP1 POP CALLER PUSH20 0xFFFFFFFFFFFFFFFFFFFFFFFFFFFFFFFFFFFFFFFF AND DUP2 PUSH1 0x1 ADD PUSH0 SWAP1 SLOAD SWAP1 PUSH2 0x100 EXP SWAP1 DIV PUSH20 0xFFFFFFFFFFFFFFFFFFFFFFFFFFFFFFFFFFFFFFFF AND PUSH20 0xFFFFFFFFFFFFFFFFFFFFFFFFFFFFFFFFFFFFFFFF AND EQ PUSH2 0x2046 JUMPI PUSH1 0x40 MLOAD PUSH32 0x8C379A000000000000000000000000000000000000000000000000000000000 DUP2 MSTORE PUSH1 0x4 ADD PUSH2 0x203D SWAP1 PUSH2 0x41EF JUMP JUMPDEST PUSH1 0x40 MLOAD DUP1 SWAP2 SUB SWAP1 REVERT JUMPDEST PUSH1 0x1 ISZERO ISZERO DUP2 PUSH1 0x7 ADD PUSH0 SWAP1 SLOAD SWAP1 PUSH2 0x100 EXP SWAP1 DIV PUSH1 0xFF AND ISZERO ISZERO EQ PUSH2 0x209D JUMPI PUSH1 0x40 MLOAD PUSH32 0x8C379A000000000000000000000000000000000000000000000000000000000 DUP2 MSTORE PUSH1 0x4 ADD PUSH2 0x2094 SWAP1 PUSH2 0x39B9 JUMP JUMPDEST PUSH1 0x40 MLOAD DUP1 SWAP2 SUB SWAP1 REVERT JUMPDEST PUSH0 PUSH3 0x15180 DUP3 PUSH1 0x2 ADD SLOAD DUP4 PUSH1 0x3 ADD SLOAD PUSH2 0x20B6 SWAP2 SWAP1 PUSH2 0x38DF JUMP JUMPDEST PUSH2 0x20C0 SWAP2 SWAP1 PUSH2 0x393F JUMP JUMPDEST SWAP1 POP PUSH2 0x320 DUP2 EQ PUSH2 0x2106 JUMPI PUSH1 0x40 MLOAD PUSH32 0x8C379A000000000000000000000000000000000000000000000000000000000 DUP2 MSTORE PUSH1 0x4 ADD PUSH2 0x20FD SWAP1 PUSH2 0x427D JUMP JUMPDEST PUSH1 0x40 MLOAD DUP1 SWAP2 SUB SWAP1 REVERT JUMPDEST PUSH0 DUP3 PUSH1 0x7 ADD PUSH0 PUSH2 0x100 EXP DUP2 SLOAD DUP2 PUSH1 0xFF MUL NOT AND SWAP1 DUP4 ISZERO ISZERO MUL OR SWAP1 SSTORE POP DUP2 PUSH1 0x3 ADD SLOAD TIMESTAMP GT ISZERO PUSH2 0x21B0 JUMPI PUSH0 DUP3 PUSH1 0x6 ADD SLOAD DUP4 PUSH1 0x5 ADD SLOAD PUSH2 0x2142 SWAP2 SWAP1 PUSH2 0x429B JUMP JUMPDEST SWAP1 POP CALLER PUSH20 0xFFFFFFFFFFFFFFFFFFFFFFFFFFFFFFFFFFFFFFFF AND DUP2 PUSH1 0x40 MLOAD PUSH2 0x2168 SWAP1 PUSH2 0x42FB JUMP JUMPDEST PUSH0 PUSH1 0x40 MLOAD DUP1 DUP4 SUB DUP2 DUP6 DUP8 GAS CALL SWAP3 POP POP POP RETURNDATASIZE DUP1 PUSH0 DUP2 EQ PUSH2 0x21A2 JUMPI PUSH1 0x40 MLOAD SWAP2 POP PUSH1 0x1F NOT PUSH1 0x3F RETURNDATASIZE ADD AND DUP3 ADD PUSH1 0x40 MSTORE RETURNDATASIZE DUP3 MSTORE RETURNDATASIZE PUSH0 PUSH1 0x20 DUP5 ADD RETURNDATACOPY PUSH2 0x21A7 JUMP JUMPDEST PUSH1 0x60 SWAP2 POP JUMPDEST POP POP POP POP PUSH2 0x2290 JUMP JUMPDEST PUSH1 0x1 PUSH0 SWAP1 SLOAD SWAP1 PUSH2 0x100 EXP SWAP1 DIV PUSH20 0xFFFFFFFFFFFFFFFFFFFFFFFFFFFFFFFFFFFFFFFF AND PUSH20 0xFFFFFFFFFFFFFFFFFFFFFFFFFFFFFFFFFFFFFFFF AND PUSH4 0xA9059CBB CALLER DUP5 PUSH1 0x5 ADD SLOAD PUSH1 0x40 MLOAD DUP4 PUSH4 0xFFFFFFFF AND PUSH1 0xE0 SHL DUP2 MSTORE PUSH1 0x4 ADD PUSH2 0x2210 SWAP3 SWAP2 SWAP1 PUSH2 0x3BC2 JUMP JUMPDEST PUSH1 0x20 PUSH1 0x40 MLOAD DUP1 DUP4 SUB DUP2 PUSH0 DUP8 GAS CALL ISZERO DUP1 ISZERO PUSH2 0x222C JUMPI RETURNDATASIZE PUSH0 DUP1 RETURNDATACOPY RETURNDATASIZE PUSH0 REVERT JUMPDEST POP POP POP POP PUSH1 0x40 MLOAD RETURNDATASIZE PUSH1 0x1F NOT PUSH1 0x1F DUP3 ADD AND DUP3 ADD DUP1 PUSH1 0x40 MSTORE POP DUP2 ADD SWAP1 PUSH2 0x2250 SWAP2 SWAP1 PUSH2 0x3C13 JUMP JUMPDEST PUSH2 0x228F JUMPI PUSH1 0x40 MLOAD PUSH32 0x8C379A000000000000000000000000000000000000000000000000000000000 DUP2 MSTORE PUSH1 0x4 ADD PUSH2 0x2286 SWAP1 PUSH2 0x3F41 JUMP JUMPDEST PUSH1 0x40 MLOAD DUP1 SWAP2 SUB SWAP1 REVERT JUMPDEST JUMPDEST PUSH1 0x5 PUSH0 CALLER PUSH20 0xFFFFFFFFFFFFFFFFFFFFFFFFFFFFFFFFFFFFFFFF AND PUSH20 0xFFFFFFFFFFFFFFFFFFFFFFFFFFFFFFFFFFFFFFFF AND DUP2 MSTORE PUSH1 0x20 ADD SWAP1 DUP2 MSTORE PUSH1 0x20 ADD PUSH0 KECCAK256 DUP3 SWAP1 DUP1 PUSH1 0x1 DUP2 SLOAD ADD DUP1 DUP3 SSTORE DUP1 SWAP2 POP POP PUSH1 0x1 SWAP1 SUB SWAP1 PUSH0 MSTORE PUSH1 0x20 PUSH0 KECCAK256 SWAP1 PUSH1 0x9 MUL ADD PUSH0 SWAP1 SWAP2 SWAP1 SWAP2 SWAP1 SWAP2 POP PUSH0 DUP3 ADD SLOAD DUP2 PUSH0 ADD SSTORE PUSH1 0x1 DUP3 ADD PUSH0 SWAP1 SLOAD SWAP1 PUSH2 0x100 EXP SWAP1 DIV PUSH20 0xFFFFFFFFFFFFFFFFFFFFFFFFFFFFFFFFFFFFFFFF AND DUP2 PUSH1 0x1 ADD PUSH0 PUSH2 0x100 EXP DUP2 SLOAD DUP2 PUSH20 0xFFFFFFFFFFFFFFFFFFFFFFFFFFFFFFFFFFFFFFFF MUL NOT AND SWAP1 DUP4 PUSH20 0xFFFFFFFFFFFFFFFFFFFFFFFFFFFFFFFFFFFFFFFF AND MUL OR SWAP1 SSTORE POP PUSH1 0x2 DUP3 ADD SLOAD DUP2 PUSH1 0x2 ADD SSTORE PUSH1 0x3 DUP3 ADD SLOAD DUP2 PUSH1 0x3 ADD SSTORE PUSH1 0x4 DUP3 ADD SLOAD DUP2 PUSH1 0x4 ADD SSTORE PUSH1 0x5 DUP3 ADD SLOAD DUP2 PUSH1 0x5 ADD SSTORE PUSH1 0x6 DUP3 ADD SLOAD DUP2 PUSH1 0x6 ADD SSTORE PUSH1 0x7 DUP3 ADD PUSH0 SWAP1 SLOAD SWAP1 PUSH2 0x100 EXP SWAP1 DIV PUSH1 0xFF AND DUP2 PUSH1 0x7 ADD PUSH0 PUSH2 0x100 EXP DUP2 SLOAD DUP2 PUSH1 0xFF MUL NOT AND SWAP1 DUP4 ISZERO ISZERO MUL OR SWAP1 SSTORE POP PUSH1 0x8 DUP3 ADD SLOAD DUP2 PUSH1 0x8 ADD SSTORE POP POP POP POP POP JUMP JUMPDEST PUSH0 DUP1 PUSH1 0x6 PUSH0 DUP5 DUP2 MSTORE PUSH1 0x20 ADD SWAP1 DUP2 MSTORE PUSH1 0x20 ADD PUSH0 KECCAK256 PUSH1 0x40 MLOAD DUP1 PUSH2 0x120 ADD PUSH1 0x40 MSTORE SWAP1 DUP2 PUSH0 DUP3 ADD SLOAD DUP2 MSTORE PUSH1 0x20 ADD PUSH1 0x1 DUP3 ADD PUSH0 SWAP1 SLOAD SWAP1 PUSH2 0x100 EXP SWAP1 DIV PUSH20 0xFFFFFFFFFFFFFFFFFFFFFFFFFFFFFFFFFFFFFFFF AND PUSH20 0xFFFFFFFFFFFFFFFFFFFFFFFFFFFFFFFFFFFFFFFF AND PUSH20 0xFFFFFFFFFFFFFFFFFFFFFFFFFFFFFFFFFFFFFFFF AND DUP2 MSTORE PUSH1 0x20 ADD PUSH1 0x2 DUP3 ADD SLOAD DUP2 MSTORE PUSH1 0x20 ADD PUSH1 0x3 DUP3 ADD SLOAD DUP2 MSTORE PUSH1 0x20 ADD PUSH1 0x4 DUP3 ADD SLOAD DUP2 MSTORE PUSH1 0x20 ADD PUSH1 0x5 DUP3 ADD SLOAD DUP2 MSTORE PUSH1 0x20 ADD PUSH1 0x6 DUP3 ADD SLOAD DUP2 MSTORE PUSH1 0x20 ADD PUSH1 0x7 DUP3 ADD PUSH0 SWAP1 SLOAD SWAP1 PUSH2 0x100 EXP SWAP1 DIV PUSH1 0xFF AND ISZERO ISZERO ISZERO ISZERO DUP2 MSTORE PUSH1 0x20 ADD PUSH1 0x8 DUP3 ADD SLOAD DUP2 MSTORE POP POP SWAP1 POP PUSH0 DUP2 PUSH0 ADD MLOAD GT PUSH2 0x24E9 JUMPI PUSH1 0x40 MLOAD PUSH32 0x8C379A000000000000000000000000000000000000000000000000000000000 DUP2 MSTORE PUSH1 0x4 ADD PUSH2 0x24E0 SWAP1 PUSH2 0x3894 JUMP JUMPDEST PUSH1 0x40 MLOAD DUP1 SWAP2 SUB SWAP1 REVERT JUMPDEST DUP1 PUSH1 0xE0 ADD MLOAD PUSH2 0x252D JUMPI PUSH1 0x40 MLOAD PUSH32 0x8C379A000000000000000000000000000000000000000000000000000000000 DUP2 MSTORE PUSH1 0x4 ADD PUSH2 0x2524 SWAP1 PUSH2 0x39B9 JUMP JUMPDEST PUSH1 0x40 MLOAD DUP1 SWAP2 SUB SWAP1 REVERT JUMPDEST PUSH0 PUSH3 0x15180 DUP3 PUSH1 0x40 ADD MLOAD DUP4 PUSH1 0x60 ADD MLOAD PUSH2 0x2546 SWAP2 SWAP1 PUSH2 0x38DF JUMP JUMPDEST PUSH2 0x2550 SWAP2 SWAP1 PUSH2 0x393F JUMP JUMPDEST SWAP1 POP PUSH0 PUSH1 0x8 PUSH0 DUP4 DUP2 MSTORE PUSH1 0x20 ADD SWAP1 DUP2 MSTORE PUSH1 0x20 ADD PUSH0 KECCAK256 SLOAD GT PUSH2 0x25A5 JUMPI PUSH1 0x40 MLOAD PUSH32 0x8C379A000000000000000000000000000000000000000000000000000000000 DUP2 MSTORE PUSH1 0x4 ADD PUSH2 0x259C SWAP1 PUSH2 0x4359 JUMP JUMPDEST PUSH1 0x40 MLOAD DUP1 SWAP2 SUB SWAP1 REVERT JUMPDEST PUSH0 DUP2 PUSH1 0x8 PUSH0 DUP5 DUP2 MSTORE PUSH1 0x20 ADD SWAP1 DUP2 MSTORE PUSH1 0x20 ADD PUSH0 KECCAK256 SLOAD PUSH2 0x25C3 SWAP2 SWAP1 PUSH2 0x393F JUMP JUMPDEST SWAP1 POP PUSH0 PUSH2 0x2710 DUP5 PUSH1 0xA0 ADD MLOAD DUP4 PUSH2 0x25D9 SWAP2 SWAP1 PUSH2 0x3B81 JUMP JUMPDEST PUSH2 0x25E3 SWAP2 SWAP1 PUSH2 0x393F JUMP JUMPDEST SWAP1 POP DUP1 SWAP5 POP POP POP POP POP SWAP2 SWAP1 POP JUMP JUMPDEST PUSH1 0xD PUSH1 0x20 MSTORE DUP1 PUSH0 MSTORE PUSH1 0x40 PUSH0 KECCAK256 PUSH0 SWAP2 POP SWAP1 POP SLOAD DUP2 JUMP JUMPDEST PUSH1 0xC PUSH1 0x20 MSTORE DUP1 PUSH0 MSTORE PUSH1 0x40 PUSH0 KECCAK256 PUSH0 SWAP2 POP SWAP1 POP SLOAD DUP2 JUMP JUMPDEST PUSH1 0x1 PUSH0 SWAP1 SLOAD SWAP1 PUSH2 0x100 EXP SWAP1 DIV PUSH20 0xFFFFFFFFFFFFFFFFFFFFFFFFFFFFFFFFFFFFFFFF AND DUP2 JUMP JUMPDEST PUSH0 PUSH1 0x8 PUSH0 DUP6 DUP2 MSTORE PUSH1 0x20 ADD SWAP1 DUP2 MSTORE PUSH1 0x20 ADD PUSH0 KECCAK256 SLOAD GT PUSH2 0x2693 JUMPI PUSH1 0x40 MLOAD PUSH32 0x8C379A000000000000000000000000000000000000000000000000000000000 DUP2 MSTORE PUSH1 0x4 ADD PUSH2 0x268A SWAP1 PUSH2 0x43C1 JUMP JUMPDEST PUSH1 0x40 MLOAD DUP1 SWAP2 SUB SWAP1 REVERT JUMPDEST PUSH1 0x1 PUSH0 SWAP1 SLOAD SWAP1 PUSH2 0x100 EXP SWAP1 DIV PUSH20 0xFFFFFFFFFFFFFFFFFFFFFFFFFFFFFFFFFFFFFFFF AND PUSH20 0xFFFFFFFFFFFFFFFFFFFFFFFFFFFFFFFFFFFFFFFF AND PUSH4 0x23B872DD CALLER ADDRESS DUP6 PUSH1 0x40 MLOAD DUP5 PUSH4 0xFFFFFFFF AND PUSH1 0xE0 SHL DUP2 MSTORE PUSH1 0x4 ADD PUSH2 0x26F1 SWAP4 SWAP3 SWAP2 SWAP1 PUSH2 0x43DF JUMP JUMPDEST PUSH1 0x20 PUSH1 0x40 MLOAD DUP1 DUP4 SUB DUP2 PUSH0 DUP8 GAS CALL ISZERO DUP1 ISZERO PUSH2 0x270D JUMPI RETURNDATASIZE PUSH0 DUP1 RETURNDATACOPY RETURNDATASIZE PUSH0 REVERT JUMPDEST POP POP POP POP PUSH1 0x40 MLOAD RETURNDATASIZE PUSH1 0x1F NOT PUSH1 0x1F DUP3 ADD AND DUP3 ADD DUP1 PUSH1 0x40 MSTORE POP DUP2 ADD SWAP1 PUSH2 0x2731 SWAP2 SWAP1 PUSH2 0x3C13 JUMP JUMPDEST PUSH2 0x2770 JUMPI PUSH1 0x40 MLOAD PUSH32 0x8C379A000000000000000000000000000000000000000000000000000000000 DUP2 MSTORE PUSH1 0x4 ADD PUSH2 0x2767 SWAP1 PUSH2 0x3F41 JUMP JUMPDEST PUSH1 0x40 MLOAD DUP1 SWAP2 SUB SWAP1 REVERT JUMPDEST PUSH0 DUP1 PUSH20 0xFFFFFFFFFFFFFFFFFFFFFFFFFFFFFFFFFFFFFFFF AND PUSH1 0x2 PUSH0 CALLER PUSH20 0xFFFFFFFFFFFFFFFFFFFFFFFFFFFFFFFFFFFFFFFF AND PUSH20 0xFFFFFFFFFFFFFFFFFFFFFFFFFFFFFFFFFFFFFFFF AND DUP2 MSTORE PUSH1 0x20 ADD SWAP1 DUP2 MSTORE PUSH1 0x20 ADD PUSH0 KECCAK256 PUSH0 ADD PUSH0 SWAP1 SLOAD SWAP1 PUSH2 0x100 EXP SWAP1 DIV PUSH20 0xFFFFFFFFFFFFFFFFFFFFFFFFFFFFFFFFFFFFFFFF AND PUSH20 0xFFFFFFFFFFFFFFFFFFFFFFFFFFFFFFFFFFFFFFFF AND SUB PUSH2 0x29E4 JUMPI PUSH0 PUSH20 0xFFFFFFFFFFFFFFFFFFFFFFFFFFFFFFFFFFFFFFFF AND DUP3 PUSH20 0xFFFFFFFFFFFFFFFFFFFFFFFFFFFFFFFFFFFFFFFF AND EQ ISZERO DUP1 ISZERO PUSH2 0x286A JUMPI POP CALLER PUSH20 0xFFFFFFFFFFFFFFFFFFFFFFFFFFFFFFFFFFFFFFFF AND DUP3 PUSH20 0xFFFFFFFFFFFFFFFFFFFFFFFFFFFFFFFFFFFFFFFF AND EQ ISZERO JUMPDEST ISZERO PUSH2 0x2946 JUMPI DUP2 PUSH1 0x2 PUSH0 CALLER PUSH20 0xFFFFFFFFFFFFFFFFFFFFFFFFFFFFFFFFFFFFFFFF AND PUSH20 0xFFFFFFFFFFFFFFFFFFFFFFFFFFFFFFFFFFFFFFFF AND DUP2 MSTORE PUSH1 0x20 ADD SWAP1 DUP2 MSTORE PUSH1 0x20 ADD PUSH0 KECCAK256 PUSH0 ADD PUSH0 PUSH2 0x100 EXP DUP2 SLOAD DUP2 PUSH20 0xFFFFFFFFFFFFFFFFFFFFFFFFFFFFFFFFFFFFFFFF MUL NOT AND SWAP1 DUP4 PUSH20 0xFFFFFFFFFFFFFFFFFFFFFFFFFFFFFFFFFFFFFFFF AND MUL OR SWAP1 SSTORE POP PUSH1 0x2 PUSH0 DUP4 PUSH20 0xFFFFFFFFFFFFFFFFFFFFFFFFFFFFFFFFFFFFFFFF AND PUSH20 0xFFFFFFFFFFFFFFFFFFFFFFFFFFFFFFFFFFFFFFFF AND DUP2 MSTORE PUSH1 0x20 ADD SWAP1 DUP2 MSTORE PUSH1 0x20 ADD PUSH0 KECCAK256 PUSH1 0x4 ADD PUSH0 DUP2 SLOAD DUP1 SWAP3 SWAP2 SWAP1 PUSH2 0x293C SWAP1 PUSH2 0x4414 JUMP JUMPDEST SWAP2 SWAP1 POP SSTORE POP PUSH2 0x29E3 JUMP JUMPDEST PUSH0 DUP1 SLOAD SWAP1 PUSH2 0x100 EXP SWAP1 DIV PUSH20 0xFFFFFFFFFFFFFFFFFFFFFFFFFFFFFFFFFFFFFFFF AND PUSH1 0x2 PUSH0 CALLER PUSH20 0xFFFFFFFFFFFFFFFFFFFFFFFFFFFFFFFFFFFFFFFF AND PUSH20 0xFFFFFFFFFFFFFFFFFFFFFFFFFFFFFFFFFFFFFFFF AND DUP2 MSTORE PUSH1 0x20 ADD SWAP1 DUP2 MSTORE PUSH1 0x20 ADD PUSH0 KECCAK256 PUSH0 ADD PUSH0 PUSH2 0x100 EXP DUP2 SLOAD DUP2 PUSH20 0xFFFFFFFFFFFFFFFFFFFFFFFFFFFFFFFFFFFFFFFF MUL NOT AND SWAP1 DUP4 PUSH20 0xFFFFFFFFFFFFFFFFFFFFFFFFFFFFFFFFFFFFFFFF AND MUL OR SWAP1 SSTORE POP JUMPDEST JUMPDEST PUSH0 DUP1 SLOAD SWAP1 PUSH2 0x100 EXP SWAP1 DIV PUSH20 0xFFFFFFFFFFFFFFFFFFFFFFFFFFFFFFFFFFFFFFFF AND PUSH20 0xFFFFFFFFFFFFFFFFFFFFFFFFFFFFFFFFFFFFFFFF AND PUSH1 0x2 PUSH0 CALLER PUSH20 0xFFFFFFFFFFFFFFFFFFFFFFFFFFFFFFFFFFFFFFFF AND PUSH20 0xFFFFFFFFFFFFFFFFFFFFFFFFFFFFFFFFFFFFFFFF AND DUP2 MSTORE PUSH1 0x20 ADD SWAP1 DUP2 MSTORE PUSH1 0x20 ADD PUSH0 KECCAK256 PUSH0 ADD PUSH0 SWAP1 SLOAD SWAP1 PUSH2 0x100 EXP SWAP1 DIV PUSH20 0xFFFFFFFFFFFFFFFFFFFFFFFFFFFFFFFFFFFFFFFF AND PUSH20 0xFFFFFFFFFFFFFFFFFFFFFFFFFFFFFFFFFFFFFFFF AND EQ PUSH2 0x2C35 JUMPI PUSH1 0x64 PUSH1 0xD PUSH0 PUSH1 0x1 DUP2 MSTORE PUSH1 0x20 ADD SWAP1 DUP2 MSTORE PUSH1 0x20 ADD PUSH0 KECCAK256 SLOAD DUP5 PUSH2 0x2AB4 SWAP2 SWAP1 PUSH2 0x3B81 JUMP JUMPDEST PUSH2 0x2ABE SWAP2 SWAP1 PUSH2 0x393F JUMP JUMPDEST SWAP1 POP DUP1 PUSH1 0xC PUSH0 PUSH1 0x2 PUSH0 CALLER PUSH20 0xFFFFFFFFFFFFFFFFFFFFFFFFFFFFFFFFFFFFFFFF AND PUSH20 0xFFFFFFFFFFFFFFFFFFFFFFFFFFFFFFFFFFFFFFFF AND DUP2 MSTORE PUSH1 0x20 ADD SWAP1 DUP2 MSTORE PUSH1 0x20 ADD PUSH0 KECCAK256 PUSH0 ADD PUSH0 SWAP1 SLOAD SWAP1 PUSH2 0x100 EXP SWAP1 DIV PUSH20 0xFFFFFFFFFFFFFFFFFFFFFFFFFFFFFFFFFFFFFFFF AND PUSH20 0xFFFFFFFFFFFFFFFFFFFFFFFFFFFFFFFFFFFFFFFF AND PUSH20 0xFFFFFFFFFFFFFFFFFFFFFFFFFFFFFFFFFFFFFFFF AND DUP2 MSTORE PUSH1 0x20 ADD SWAP1 DUP2 MSTORE PUSH1 0x20 ADD PUSH0 KECCAK256 PUSH0 DUP3 DUP3 SLOAD PUSH2 0x2B6A SWAP2 SWAP1 PUSH2 0x429B JUMP JUMPDEST SWAP3 POP POP DUP2 SWAP1 SSTORE POP CALLER PUSH20 0xFFFFFFFFFFFFFFFFFFFFFFFFFFFFFFFFFFFFFFFF AND PUSH1 0x2 PUSH0 CALLER PUSH20 0xFFFFFFFFFFFFFFFFFFFFFFFFFFFFFFFFFFFFFFFF AND PUSH20 0xFFFFFFFFFFFFFFFFFFFFFFFFFFFFFFFFFFFFFFFF AND DUP2 MSTORE PUSH1 0x20 ADD SWAP1 DUP2 MSTORE PUSH1 0x20 ADD PUSH0 KECCAK256 PUSH0 ADD PUSH0 SWAP1 SLOAD SWAP1 PUSH2 0x100 EXP SWAP1 DIV PUSH20 0xFFFFFFFFFFFFFFFFFFFFFFFFFFFFFFFFFFFFFFFF AND PUSH20 0xFFFFFFFFFFFFFFFFFFFFFFFFFFFFFFFFFFFFFFFF AND PUSH32 0xAEECFCDA1271D292DB728294B8AE465871EC039D51404CAF49A7EB0ADE51770A DUP4 PUSH1 0x40 MLOAD PUSH2 0x2C2C SWAP2 SWAP1 PUSH2 0x31FC JUMP JUMPDEST PUSH1 0x40 MLOAD DUP1 SWAP2 SUB SWAP1 LOG3 JUMPDEST PUSH1 0x40 MLOAD DUP1 PUSH2 0x120 ADD PUSH1 0x40 MSTORE DUP1 PUSH1 0x3 SLOAD DUP2 MSTORE PUSH1 0x20 ADD CALLER PUSH20 0xFFFFFFFFFFFFFFFFFFFFFFFFFFFFFFFFFFFFFFFF AND DUP2 MSTORE PUSH1 0x20 ADD TIMESTAMP DUP2 MSTORE PUSH1 0x20 ADD PUSH3 0x15180 DUP7 PUSH2 0x2C7A SWAP2 SWAP1 PUSH2 0x3B81 JUMP JUMPDEST TIMESTAMP PUSH2 0x2C85 SWAP2 SWAP1 PUSH2 0x429B JUMP JUMPDEST DUP2 MSTORE PUSH1 0x20 ADD PUSH1 0x8 PUSH0 DUP8 DUP2 MSTORE PUSH1 0x20 ADD SWAP1 DUP2 MSTORE PUSH1 0x20 ADD PUSH0 KECCAK256 SLOAD DUP2 MSTORE PUSH1 0x20 ADD DUP5 DUP2 MSTORE PUSH1 0x20 ADD PUSH2 0x2CC3 PUSH1 0x8 PUSH0 DUP9 DUP2 MSTORE PUSH1 0x20 ADD SWAP1 DUP2 MSTORE PUSH1 0x20 ADD PUSH0 KECCAK256 SLOAD DUP8 DUP8 PUSH2 0x2E20 JUMP JUMPDEST DUP2 MSTORE PUSH1 0x20 ADD PUSH1 0x1 ISZERO ISZERO DUP2 MSTORE PUSH1 0x20 ADD TIMESTAMP DUP2 MSTORE POP PUSH1 0x6 PUSH0 PUSH1 0x3 SLOAD DUP2 MSTORE PUSH1 0x20 ADD SWAP1 DUP2 MSTORE PUSH1 0x20 ADD PUSH0 KECCAK256 PUSH0 DUP3 ADD MLOAD DUP2 PUSH0 ADD SSTORE PUSH1 0x20 DUP3 ADD MLOAD DUP2 PUSH1 0x1 ADD PUSH0 PUSH2 0x100 EXP DUP2 SLOAD DUP2 PUSH20 0xFFFFFFFFFFFFFFFFFFFFFFFFFFFFFFFFFFFFFFFF MUL NOT AND SWAP1 DUP4 PUSH20 0xFFFFFFFFFFFFFFFFFFFFFFFFFFFFFFFFFFFFFFFF AND MUL OR SWAP1 SSTORE POP PUSH1 0x40 DUP3 ADD MLOAD DUP2 PUSH1 0x2 ADD SSTORE PUSH1 0x60 DUP3 ADD MLOAD DUP2 PUSH1 0x3 ADD SSTORE PUSH1 0x80 DUP3 ADD MLOAD DUP2 PUSH1 0x4 ADD SSTORE PUSH1 0xA0 DUP3 ADD MLOAD DUP2 PUSH1 0x5 ADD SSTORE PUSH1 0xC0 DUP3 ADD MLOAD DUP2 PUSH1 0x6 ADD SSTORE PUSH1 0xE0 DUP3 ADD MLOAD DUP2 PUSH1 0x7 ADD PUSH0 PUSH2 0x100 EXP DUP2 SLOAD DUP2 PUSH1 0xFF MUL NOT AND SWAP1 DUP4 ISZERO ISZERO MUL OR SWAP1 SSTORE POP PUSH2 0x100 DUP3 ADD MLOAD DUP2 PUSH1 0x8 ADD SSTORE SWAP1 POP POP PUSH1 0x7 PUSH0 CALLER PUSH20 0xFFFFFFFFFFFFFFFFFFFFFFFFFFFFFFFFFFFFFFFF AND PUSH20 0xFFFFFFFFFFFFFFFFFFFFFFFFFFFFFFFFFFFFFFFF AND DUP2 MSTORE PUSH1 0x20 ADD SWAP1 DUP2 MSTORE PUSH1 0x20 ADD PUSH0 KECCAK256 PUSH1 0x3 SLOAD SWAP1 DUP1 PUSH1 0x1 DUP2 SLOAD ADD DUP1 DUP3 SSTORE DUP1 SWAP2 POP POP PUSH1 0x1 SWAP1 SUB SWAP1 PUSH0 MSTORE PUSH1 0x20 PUSH0 KECCAK256 ADD PUSH0 SWAP1 SWAP2 SWAP1 SWAP2 SWAP1 SWAP2 POP SSTORE PUSH1 0x1 PUSH1 0x3 PUSH0 DUP3 DUP3 SLOAD PUSH2 0x2E0A SWAP2 SWAP1 PUSH2 0x429B JUMP JUMPDEST SWAP3 POP POP DUP2 SWAP1 SSTORE POP PUSH2 0x2E1A CALLER PUSH2 0x2E43 JUMP JUMPDEST POP POP POP POP JUMP JUMPDEST PUSH0 PUSH2 0x2710 DUP3 DUP6 PUSH2 0x2E30 SWAP2 SWAP1 PUSH2 0x3B81 JUMP JUMPDEST PUSH2 0x2E3A SWAP2 SWAP1 PUSH2 0x393F JUMP JUMPDEST SWAP1 POP SWAP4 SWAP3 POP POP POP JUMP JUMPDEST PUSH0 PUSH1 0x2 PUSH0 DUP4 PUSH20 0xFFFFFFFFFFFFFFFFFFFFFFFFFFFFFFFFFFFFFFFF AND PUSH20 0xFFFFFFFFFFFFFFFFFFFFFFFFFFFFFFFFFFFFFFFF AND DUP2 MSTORE PUSH1 0x20 ADD SWAP1 DUP2 MSTORE PUSH1 0x20 ADD PUSH0 KECCAK256 PUSH0 ADD PUSH0 SWAP1 SLOAD SWAP1 PUSH2 0x100 EXP SWAP1 DIV PUSH20 0xFFFFFFFFFFFFFFFFFFFFFFFFFFFFFFFFFFFFFFFF AND SWAP1 POP PUSH0 PUSH1 0x1 SWAP1 POP JUMPDEST PUSH1 0x5 DUP2 GT PUSH2 0x312B JUMPI PUSH0 PUSH20 0xFFFFFFFFFFFFFFFFFFFFFFFFFFFFFFFFFFFFFFFF AND DUP3 PUSH20 0xFFFFFFFFFFFFFFFFFFFFFFFFFFFFFFFFFFFFFFFF AND SUB ISZERO PUSH2 0x312B JUMPI PUSH0 PUSH1 0x64 PUSH1 0xD PUSH0 DUP5 DUP2 MSTORE PUSH1 0x20 ADD SWAP1 DUP2 MSTORE PUSH1 0x20 ADD PUSH0 KECCAK256 SLOAD PUSH1 0x6 PUSH0 PUSH1 0x1 PUSH1 0x3 SLOAD PUSH2 0x2F0E SWAP2 SWAP1 PUSH2 0x38DF JUMP JUMPDEST DUP2 MSTORE PUSH1 0x20 ADD SWAP1 DUP2 MSTORE PUSH1 0x20 ADD PUSH0 KECCAK256 PUSH1 0x5 ADD SLOAD PUSH2 0x2F29 SWAP2 SWAP1 PUSH2 0x3B81 JUMP JUMPDEST PUSH2 0x2F33 SWAP2 SWAP1 PUSH2 0x393F JUMP JUMPDEST SWAP1 POP DUP1 PUSH1 0x2 PUSH0 DUP6 PUSH20 0xFFFFFFFFFFFFFFFFFFFFFFFFFFFFFFFFFFFFFFFF AND PUSH20 0xFFFFFFFFFFFFFFFFFFFFFFFFFFFFFFFFFFFFFFFF AND DUP2 MSTORE PUSH1 0x20 ADD SWAP1 DUP2 MSTORE PUSH1 0x20 ADD PUSH0 KECCAK256 PUSH1 0x1 ADD PUSH0 DUP3 DUP3 SLOAD PUSH2 0x2F84 SWAP2 SWAP1 PUSH2 0x429B JUMP JUMPDEST SWAP3 POP POP DUP2 SWAP1 SSTORE POP PUSH1 0x1 PUSH0 SWAP1 SLOAD SWAP1 PUSH2 0x100 EXP SWAP1 DIV PUSH20 0xFFFFFFFFFFFFFFFFFFFFFFFFFFFFFFFFFFFFFFFF AND PUSH20 0xFFFFFFFFFFFFFFFFFFFFFFFFFFFFFFFFFFFFFFFF AND PUSH4 0xA9059CBB DUP5 DUP4 PUSH1 0x40 MLOAD DUP4 PUSH4 0xFFFFFFFF AND PUSH1 0xE0 SHL DUP2 MSTORE PUSH1 0x4 ADD PUSH2 0x2FE7 SWAP3 SWAP2 SWAP1 PUSH2 0x3BC2 JUMP JUMPDEST PUSH1 0x20 PUSH1 0x40 MLOAD DUP1 DUP4 SUB DUP2 PUSH0 DUP8 GAS CALL ISZERO DUP1 ISZERO PUSH2 0x3003 JUMPI RETURNDATASIZE PUSH0 DUP1 RETURNDATACOPY RETURNDATASIZE PUSH0 REVERT JUMPDEST POP POP POP POP PUSH1 0x40 MLOAD RETURNDATASIZE PUSH1 0x1F NOT PUSH1 0x1F DUP3 ADD AND DUP3 ADD DUP1 PUSH1 0x40 MSTORE POP DUP2 ADD SWAP1 PUSH2 0x3027 SWAP2 SWAP1 PUSH2 0x3C13 JUMP JUMPDEST PUSH2 0x3066 JUMPI PUSH1 0x40 MLOAD PUSH32 0x8C379A000000000000000000000000000000000000000000000000000000000 DUP2 MSTORE PUSH1 0x4 ADD PUSH2 0x305D SWAP1 PUSH2 0x44A5 JUMP JUMPDEST PUSH1 0x40 MLOAD DUP1 SWAP2 SUB SWAP1 REVERT JUMPDEST DUP3 PUSH20 0xFFFFFFFFFFFFFFFFFFFFFFFFFFFFFFFFFFFFFFFF AND PUSH32 0x83B5EADB65FB8FC1B70A3B205B38BB0C6A3E15E14BCBC9D4F366D6C772E6D83B DUP3 DUP5 PUSH1 0x40 MLOAD PUSH2 0x30AE SWAP3 SWAP2 SWAP1 PUSH2 0x44C3 JUMP JUMPDEST PUSH1 0x40 MLOAD DUP1 SWAP2 SUB SWAP1 LOG2 PUSH1 0x2 PUSH0 DUP5 PUSH20 0xFFFFFFFFFFFFFFFFFFFFFFFFFFFFFFFFFFFFFFFF AND PUSH20 0xFFFFFFFFFFFFFFFFFFFFFFFFFFFFFFFFFFFFFFFF AND DUP2 MSTORE PUSH1 0x20 ADD SWAP1 DUP2 MSTORE PUSH1 0x20 ADD PUSH0 KECCAK256 PUSH0 ADD PUSH0 SWAP1 SLOAD SWAP1 PUSH2 0x100 EXP SWAP1 DIV PUSH20 0xFFFFFFFFFFFFFFFFFFFFFFFFFFFFFFFFFFFFFFFF AND SWAP3 POP POP DUP1 DUP1 PUSH2 0x3123 SWAP1 PUSH2 0x4414 JUMP JUMPDEST SWAP2 POP POP PUSH2 0x2EAB JUMP JUMPDEST POP POP POP JUMP JUMPDEST PUSH1 0x40 MLOAD DUP1 PUSH2 0x120 ADD PUSH1 0x40 MSTORE DUP1 PUSH0 DUP2 MSTORE PUSH1 0x20 ADD PUSH0 PUSH20 0xFFFFFFFFFFFFFFFFFFFFFFFFFFFFFFFFFFFFFFFF AND DUP2 MSTORE PUSH1 0x20 ADD PUSH0 DUP2 MSTORE PUSH1 0x20 ADD PUSH0 DUP2 MSTORE PUSH1 0x20 ADD PUSH0 DUP2 MSTORE PUSH1 0x20 ADD PUSH0 DUP2 MSTORE PUSH1 0x20 ADD PUSH0 DUP2 MSTORE PUSH1 0x20 ADD PUSH0 ISZERO ISZERO DUP2 MSTORE PUSH1 0x20 ADD PUSH0 DUP2 MSTORE POP SWAP1 JUMP JUMPDEST PUSH0 DUP1 REVERT JUMPDEST PUSH0 DUP2 SWAP1 POP SWAP2 SWAP1 POP JUMP JUMPDEST PUSH2 0x31A1 DUP2 PUSH2 0x318F JUMP JUMPDEST DUP2 EQ PUSH2 0x31AB JUMPI PUSH0 DUP1 REVERT JUMPDEST POP JUMP JUMPDEST PUSH0 DUP2 CALLDATALOAD SWAP1 POP PUSH2 0x31BC DUP2 PUSH2 0x3198 JUMP JUMPDEST SWAP3 SWAP2 POP POP JUMP JUMPDEST PUSH0 PUSH1 0x20 DUP3 DUP5 SUB SLT ISZERO PUSH2 0x31D7 JUMPI PUSH2 0x31D6 PUSH2 0x318B JUMP JUMPDEST JUMPDEST PUSH0 PUSH2 0x31E4 DUP5 DUP3 DUP6 ADD PUSH2 0x31AE JUMP JUMPDEST SWAP2 POP POP SWAP3 SWAP2 POP POP JUMP JUMPDEST PUSH2 0x31F6 DUP2 PUSH2 0x318F JUMP JUMPDEST DUP3 MSTORE POP POP JUMP JUMPDEST PUSH0 PUSH1 0x20 DUP3 ADD SWAP1 POP PUSH2 0x320F PUSH0 DUP4 ADD DUP5 PUSH2 0x31ED JUMP JUMPDEST SWAP3 SWAP2 POP POP JUMP JUMPDEST PUSH0 PUSH20 0xFFFFFFFFFFFFFFFFFFFFFFFFFFFFFFFFFFFFFFFF DUP3 AND SWAP1 POP SWAP2 SWAP1 POP JUMP JUMPDEST PUSH0 PUSH2 0x323E DUP3 PUSH2 0x3215 JUMP JUMPDEST SWAP1 POP SWAP2 SWAP1 POP JUMP JUMPDEST PUSH2 0x324E DUP2 PUSH2 0x3234 JUMP JUMPDEST DUP2 EQ PUSH2 0x3258 JUMPI PUSH0 DUP1 REVERT JUMPDEST POP JUMP JUMPDEST PUSH0 DUP2 CALLDATALOAD SWAP1 POP PUSH2 0x3269 DUP2 PUSH2 0x3245 JUMP JUMPDEST SWAP3 SWAP2 POP POP JUMP JUMPDEST PUSH0 PUSH1 0x20 DUP3 DUP5 SUB SLT ISZERO PUSH2 0x3284 JUMPI PUSH2 0x3283 PUSH2 0x318B JUMP JUMPDEST JUMPDEST PUSH0 PUSH2 0x3291 DUP5 DUP3 DUP6 ADD PUSH2 0x325B JUMP JUMPDEST SWAP2 POP POP SWAP3 SWAP2 POP POP JUMP JUMPDEST PUSH0 DUP1 PUSH0 PUSH1 0x60 DUP5 DUP7 SUB SLT ISZERO PUSH2 0x32B1 JUMPI PUSH2 0x32B0 PUSH2 0x318B JUMP JUMPDEST JUMPDEST PUSH0 PUSH2 0x32BE DUP7 DUP3 DUP8 ADD PUSH2 0x31AE JUMP JUMPDEST SWAP4 POP POP PUSH1 0x20 PUSH2 0x32CF DUP7 DUP3 DUP8 ADD PUSH2 0x31AE JUMP JUMPDEST SWAP3 POP POP PUSH1 0x40 PUSH2 0x32E0 DUP7 DUP3 DUP8 ADD PUSH2 0x325B JUMP JUMPDEST SWAP2 POP POP SWAP3 POP SWAP3 POP SWAP3 JUMP JUMPDEST PUSH0 DUP1 PUSH1 0x40 DUP4 DUP6 SUB SLT ISZERO PUSH2 0x3300 JUMPI PUSH2 0x32FF PUSH2 0x318B JUMP JUMPDEST JUMPDEST PUSH0 PUSH2 0x330D DUP6 DUP3 DUP7 ADD PUSH2 0x31AE JUMP JUMPDEST SWAP3 POP POP PUSH1 0x20 PUSH2 0x331E DUP6 DUP3 DUP7 ADD PUSH2 0x31AE JUMP JUMPDEST SWAP2 POP POP SWAP3 POP SWAP3 SWAP1 POP JUMP JUMPDEST PUSH0 DUP2 MLOAD SWAP1 POP SWAP2 SWAP1 POP JUMP JUMPDEST PUSH0 DUP3 DUP3 MSTORE PUSH1 0x20 DUP3 ADD SWAP1 POP SWAP3 SWAP2 POP POP JUMP JUMPDEST PUSH0 DUP2 SWAP1 POP PUSH1 0x20 DUP3 ADD SWAP1 POP SWAP2 SWAP1 POP JUMP JUMPDEST PUSH2 0x335A DUP2 PUSH2 0x318F JUMP JUMPDEST DUP3 MSTORE POP POP JUMP JUMPDEST PUSH0 PUSH2 0x336B DUP4 DUP4 PUSH2 0x3351 JUMP JUMPDEST PUSH1 0x20 DUP4 ADD SWAP1 POP SWAP3 SWAP2 POP POP JUMP JUMPDEST PUSH0 PUSH1 0x20 DUP3 ADD SWAP1 POP SWAP2 SWAP1 POP JUMP JUMPDEST PUSH0 PUSH2 0x338D DUP3 PUSH2 0x3328 JUMP JUMPDEST PUSH2 0x3397 DUP2 DUP6 PUSH2 0x3332 JUMP JUMPDEST SWAP4 POP PUSH2 0x33A2 DUP4 PUSH2 0x3342 JUMP JUMPDEST DUP1 PUSH0 JUMPDEST DUP4 DUP2 LT ISZERO PUSH2 0x33D2 JUMPI DUP2 MLOAD PUSH2 0x33B9 DUP9 DUP3 PUSH2 0x3360 JUMP JUMPDEST SWAP8 POP PUSH2 0x33C4 DUP4 PUSH2 0x3377 JUMP JUMPDEST SWAP3 POP POP PUSH1 0x1 DUP2 ADD SWAP1 POP PUSH2 0x33A5 JUMP JUMPDEST POP DUP6 SWAP4 POP POP POP POP SWAP3 SWAP2 POP POP JUMP JUMPDEST PUSH0 PUSH1 0x20 DUP3 ADD SWAP1 POP DUP2 DUP2 SUB PUSH0 DUP4 ADD MSTORE PUSH2 0x33F7 DUP2 DUP5 PUSH2 0x3383 JUMP JUMPDEST SWAP1 POP SWAP3 SWAP2 POP POP JUMP JUMPDEST PUSH0 DUP1 PUSH1 0x40 DUP4 DUP6 SUB SLT ISZERO PUSH2 0x3415 JUMPI PUSH2 0x3414 PUSH2 0x318B JUMP JUMPDEST JUMPDEST PUSH0 PUSH2 0x3422 DUP6 DUP3 DUP7 ADD PUSH2 0x325B JUMP JUMPDEST SWAP3 POP POP PUSH1 0x20 PUSH2 0x3433 DUP6 DUP3 DUP7 ADD PUSH2 0x31AE JUMP JUMPDEST SWAP2 POP POP SWAP3 POP SWAP3 SWAP1 POP JUMP JUMPDEST PUSH2 0x3446 DUP2 PUSH2 0x3234 JUMP JUMPDEST DUP3 MSTORE POP POP JUMP JUMPDEST PUSH0 PUSH1 0x20 DUP3 ADD SWAP1 POP PUSH2 0x345F PUSH0 DUP4 ADD DUP5 PUSH2 0x343D JUMP JUMPDEST SWAP3 SWAP2 POP POP JUMP JUMPDEST PUSH0 DUP2 ISZERO ISZERO SWAP1 POP SWAP2 SWAP1 POP JUMP JUMPDEST PUSH2 0x3479 DUP2 PUSH2 0x3465 JUMP JUMPDEST DUP3 MSTORE POP POP JUMP JUMPDEST PUSH0 PUSH2 0x120 DUP3 ADD SWAP1 POP PUSH2 0x3493 PUSH0 DUP4 ADD DUP13 PUSH2 0x31ED JUMP JUMPDEST PUSH2 0x34A0 PUSH1 0x20 DUP4 ADD DUP12 PUSH2 0x343D JUMP JUMPDEST PUSH2 0x34AD PUSH1 0x40 DUP4 ADD DUP11 PUSH2 0x31ED JUMP JUMPDEST PUSH2 0x34BA PUSH1 0x60 DUP4 ADD DUP10 PUSH2 0x31ED JUMP JUMPDEST PUSH2 0x34C7 PUSH1 0x80 DUP4 ADD DUP9 PUSH2 0x31ED JUMP JUMPDEST PUSH2 0x34D4 PUSH1 0xA0 DUP4 ADD DUP8 PUSH2 0x31ED JUMP JUMPDEST PUSH2 0x34E1 PUSH1 0xC0 DUP4 ADD DUP7 PUSH2 0x31ED JUMP JUMPDEST PUSH2 0x34EE PUSH1 0xE0 DUP4 ADD DUP6 PUSH2 0x3470 JUMP JUMPDEST PUSH2 0x34FC PUSH2 0x100 DUP4 ADD DUP5 PUSH2 0x31ED JUMP JUMPDEST SWAP11 SWAP10 POP POP POP POP POP POP POP POP POP POP JUMP JUMPDEST PUSH0 DUP2 MLOAD SWAP1 POP SWAP2 SWAP1 POP JUMP JUMPDEST PUSH0 DUP3 DUP3 MSTORE PUSH1 0x20 DUP3 ADD SWAP1 POP SWAP3 SWAP2 POP POP JUMP JUMPDEST PUSH0 DUP2 SWAP1 POP PUSH1 0x20 DUP3 ADD SWAP1 POP SWAP2 SWAP1 POP JUMP JUMPDEST PUSH2 0x353C DUP2 PUSH2 0x3234 JUMP JUMPDEST DUP3 MSTORE POP POP JUMP JUMPDEST PUSH2 0x354B DUP2 PUSH2 0x3465 JUMP JUMPDEST DUP3 MSTORE POP POP JUMP JUMPDEST PUSH2 0x120 DUP3 ADD PUSH0 DUP3 ADD MLOAD PUSH2 0x3566 PUSH0 DUP6 ADD DUP3 PUSH2 0x3351 JUMP JUMPDEST POP PUSH1 0x20 DUP3 ADD MLOAD PUSH2 0x3579 PUSH1 0x20 DUP6 ADD DUP3 PUSH2 0x3533 JUMP JUMPDEST POP PUSH1 0x40 DUP3 ADD MLOAD PUSH2 0x358C PUSH1 0x40 DUP6 ADD DUP3 PUSH2 0x3351 JUMP JUMPDEST POP PUSH1 0x60 DUP3 ADD MLOAD PUSH2 0x359F PUSH1 0x60 DUP6 ADD DUP3 PUSH2 0x3351 JUMP JUMPDEST POP PUSH1 0x80 DUP3 ADD MLOAD PUSH2 0x35B2 PUSH1 0x80 DUP6 ADD DUP3 PUSH2 0x3351 JUMP JUMPDEST POP PUSH1 0xA0 DUP3 ADD MLOAD PUSH2 0x35C5 PUSH1 0xA0 DUP6 ADD DUP3 PUSH2 0x3351 JUMP JUMPDEST POP PUSH1 0xC0 DUP3 ADD MLOAD PUSH2 0x35D8 PUSH1 0xC0 DUP6 ADD DUP3 PUSH2 0x3351 JUMP JUMPDEST POP PUSH1 0xE0 DUP3 ADD MLOAD PUSH2 0x35EB PUSH1 0xE0 DUP6 ADD DUP3 PUSH2 0x3542 JUMP JUMPDEST POP PUSH2 0x100 DUP3 ADD MLOAD PUSH2 0x3600 PUSH2 0x100 DUP6 ADD DUP3 PUSH2 0x3351 JUMP JUMPDEST POP POP POP POP JUMP JUMPDEST PUSH0 PUSH2 0x3611 DUP4 DUP4 PUSH2 0x3551 JUMP JUMPDEST PUSH2 0x120 DUP4 ADD SWAP1 POP SWAP3 SWAP2 POP POP JUMP JUMPDEST PUSH0 PUSH1 0x20 DUP3 ADD SWAP1 POP SWAP2 SWAP1 POP JUMP JUMPDEST PUSH0 PUSH2 0x3634 DUP3 PUSH2 0x350A JUMP JUMPDEST PUSH2 0x363E DUP2 DUP6 PUSH2 0x3514 JUMP JUMPDEST SWAP4 POP PUSH2 0x3649 DUP4 PUSH2 0x3524 JUMP JUMPDEST DUP1 PUSH0 JUMPDEST DUP4 DUP2 LT ISZERO PUSH2 0x3679 JUMPI DUP2 MLOAD PUSH2 0x3660 DUP9 DUP3 PUSH2 0x3606 JUMP JUMPDEST SWAP8 POP PUSH2 0x366B DUP4 PUSH2 0x361E JUMP JUMPDEST SWAP3 POP POP PUSH1 0x1 DUP2 ADD SWAP1 POP PUSH2 0x364C JUMP JUMPDEST POP DUP6 SWAP4 POP POP POP POP SWAP3 SWAP2 POP POP JUMP JUMPDEST PUSH0 PUSH1 0x20 DUP3 ADD SWAP1 POP DUP2 DUP2 SUB PUSH0 DUP4 ADD MSTORE PUSH2 0x369E DUP2 DUP5 PUSH2 0x362A JUMP JUMPDEST SWAP1 POP SWAP3 SWAP2 POP POP JUMP JUMPDEST PUSH0 PUSH1 0xA0 DUP3 ADD SWAP1 POP PUSH2 0x36B9 PUSH0 DUP4 ADD DUP9 PUSH2 0x343D JUMP JUMPDEST PUSH2 0x36C6 PUSH1 0x20 DUP4 ADD DUP8 PUSH2 0x31ED JUMP JUMPDEST PUSH2 0x36D3 PUSH1 0x40 DUP4 ADD DUP7 PUSH2 0x31ED JUMP JUMPDEST PUSH2 0x36E0 PUSH1 0x60 DUP4 ADD DUP6 PUSH2 0x31ED JUMP JUMPDEST PUSH2 0x36ED PUSH1 0x80 DUP4 ADD DUP5 PUSH2 0x31ED JUMP JUMPDEST SWAP7 SWAP6 POP POP POP POP POP POP JUMP JUMPDEST PUSH2 0x120 DUP3 ADD PUSH0 DUP3 ADD MLOAD PUSH2 0x370C PUSH0 DUP6 ADD DUP3 PUSH2 0x3351 JUMP JUMPDEST POP PUSH1 0x20 DUP3 ADD MLOAD PUSH2 0x371F PUSH1 0x20 DUP6 ADD DUP3 PUSH2 0x3533 JUMP JUMPDEST POP PUSH1 0x40 DUP3 ADD MLOAD PUSH2 0x3732 PUSH1 0x40 DUP6 ADD DUP3 PUSH2 0x3351 JUMP JUMPDEST POP PUSH1 0x60 DUP3 ADD MLOAD PUSH2 0x3745 PUSH1 0x60 DUP6 ADD DUP3 PUSH2 0x3351 JUMP JUMPDEST POP PUSH1 0x80 DUP3 ADD MLOAD PUSH2 0x3758 PUSH1 0x80 DUP6 ADD DUP3 PUSH2 0x3351 JUMP JUMPDEST POP PUSH1 0xA0 DUP3 ADD MLOAD PUSH2 0x376B PUSH1 0xA0 DUP6 ADD DUP3 PUSH2 0x3351 JUMP JUMPDEST POP PUSH1 0xC0 DUP3 ADD MLOAD PUSH2 0x377E PUSH1 0xC0 DUP6 ADD DUP3 PUSH2 0x3351 JUMP JUMPDEST POP PUSH1 0xE0 DUP3 ADD MLOAD PUSH2 0x3791 PUSH1 0xE0 DUP6 ADD DUP3 PUSH2 0x3542 JUMP JUMPDEST POP PUSH2 0x100 DUP3 ADD MLOAD PUSH2 0x37A6 PUSH2 0x100 DUP6 ADD DUP3 PUSH2 0x3351 JUMP JUMPDEST POP POP POP POP JUMP JUMPDEST PUSH0 PUSH2 0x120 DUP3 ADD SWAP1 POP PUSH2 0x37C0 PUSH0 DUP4 ADD DUP5 PUSH2 0x36F7 JUMP JUMPDEST SWAP3 SWAP2 POP POP JUMP JUMPDEST PUSH0 DUP2 SWAP1 POP SWAP2 SWAP1 POP JUMP JUMPDEST PUSH0 PUSH2 0x37E9 PUSH2 0x37E4 PUSH2 0x37DF DUP5 PUSH2 0x3215 JUMP JUMPDEST PUSH2 0x37C6 JUMP JUMPDEST PUSH2 0x3215 JUMP JUMPDEST SWAP1 POP SWAP2 SWAP1 POP JUMP JUMPDEST PUSH0 PUSH2 0x37FA DUP3 PUSH2 0x37CF JUMP JUMPDEST SWAP1 POP SWAP2 SWAP1 POP JUMP JUMPDEST PUSH0 PUSH2 0x380B DUP3 PUSH2 0x37F0 JUMP JUMPDEST SWAP1 POP SWAP2 SWAP1 POP JUMP JUMPDEST PUSH2 0x381B DUP2 PUSH2 0x3801 JUMP JUMPDEST DUP3 MSTORE POP POP JUMP JUMPDEST PUSH0 PUSH1 0x20 DUP3 ADD SWAP1 POP PUSH2 0x3834 PUSH0 DUP4 ADD DUP5 PUSH2 0x3812 JUMP JUMPDEST SWAP3 SWAP2 POP POP JUMP JUMPDEST PUSH0 DUP3 DUP3 MSTORE PUSH1 0x20 DUP3 ADD SWAP1 POP SWAP3 SWAP2 POP POP JUMP JUMPDEST PUSH32 0x496E76616C696420706F736974696F6E20494400000000000000000000000000 PUSH0 DUP3 ADD MSTORE POP JUMP JUMPDEST PUSH0 PUSH2 0x387E PUSH1 0x13 DUP4 PUSH2 0x383A JUMP JUMPDEST SWAP2 POP PUSH2 0x3889 DUP3 PUSH2 0x384A JUMP JUMPDEST PUSH1 0x20 DUP3 ADD SWAP1 POP SWAP2 SWAP1 POP JUMP JUMPDEST PUSH0 PUSH1 0x20 DUP3 ADD SWAP1 POP DUP2 DUP2 SUB PUSH0 DUP4 ADD MSTORE PUSH2 0x38AB DUP2 PUSH2 0x3872 JUMP JUMPDEST SWAP1 POP SWAP2 SWAP1 POP JUMP JUMPDEST PUSH32 0x4E487B7100000000000000000000000000000000000000000000000000000000 PUSH0 MSTORE PUSH1 0x11 PUSH1 0x4 MSTORE PUSH1 0x24 PUSH0 REVERT JUMPDEST PUSH0 PUSH2 0x38E9 DUP3 PUSH2 0x318F JUMP JUMPDEST SWAP2 POP PUSH2 0x38F4 DUP4 PUSH2 0x318F JUMP JUMPDEST SWAP3 POP DUP3 DUP3 SUB SWAP1 POP DUP2 DUP2 GT ISZERO PUSH2 0x390C JUMPI PUSH2 0x390B PUSH2 0x38B2 JUMP JUMPDEST JUMPDEST SWAP3 SWAP2 POP POP JUMP JUMPDEST PUSH32 0x4E487B7100000000000000000000000000000000000000000000000000000000 PUSH0 MSTORE PUSH1 0x12 PUSH1 0x4 MSTORE PUSH1 0x24 PUSH0 REVERT JUMPDEST PUSH0 PUSH2 0x3949 DUP3 PUSH2 0x318F JUMP JUMPDEST SWAP2 POP PUSH2 0x3954 DUP4 PUSH2 0x318F JUMP JUMPDEST SWAP3 POP DUP3 PUSH2 0x3964 JUMPI PUSH2 0x3963 PUSH2 0x3912 JUMP JUMPDEST JUMPDEST DUP3 DUP3 DIV SWAP1 POP SWAP3 SWAP2 POP POP JUMP JUMPDEST PUSH32 0x506F736974696F6E20697320636C6F7365640000000000000000000000000000 PUSH0 DUP3 ADD MSTORE POP JUMP JUMPDEST PUSH0 PUSH2 0x39A3 PUSH1 0x12 DUP4 PUSH2 0x383A JUMP JUMPDEST SWAP2 POP PUSH2 0x39AE DUP3 PUSH2 0x396F JUMP JUMPDEST PUSH1 0x20 DUP3 ADD SWAP1 POP SWAP2 SWAP1 POP JUMP JUMPDEST PUSH0 PUSH1 0x20 DUP3 ADD SWAP1 POP DUP2 DUP2 SUB PUSH0 DUP4 ADD MSTORE PUSH2 0x39D0 DUP2 PUSH2 0x3997 JUMP JUMPDEST SWAP1 POP SWAP2 SWAP1 POP JUMP JUMPDEST PUSH32 0x4F6E6C7920706F736974696F6E206F776E65722063616E20636C61696D20696E PUSH0 DUP3 ADD MSTORE PUSH32 0x7465726573740000000000000000000000000000000000000000000000000000 PUSH1 0x20 DUP3 ADD MSTORE POP JUMP JUMPDEST PUSH0 PUSH2 0x3A31 PUSH1 0x26 DUP4 PUSH2 0x383A JUMP JUMPDEST SWAP2 POP PUSH2 0x3A3C DUP3 PUSH2 0x39D7 JUMP JUMPDEST PUSH1 0x40 DUP3 ADD SWAP1 POP SWAP2 SWAP1 POP JUMP JUMPDEST PUSH0 PUSH1 0x20 DUP3 ADD SWAP1 POP DUP2 DUP2 SUB PUSH0 DUP4 ADD MSTORE PUSH2 0x3A5E DUP2 PUSH2 0x3A25 JUMP JUMPDEST SWAP1 POP SWAP2 SWAP1 POP JUMP JUMPDEST PUSH32 0x4461696C7920696E7465726573742063616E206F6E6C7920626520636C61696D PUSH0 DUP3 ADD MSTORE PUSH32 0x656420666F7220313030302D646179206C6F636B20706572696F640000000000 PUSH1 0x20 DUP3 ADD MSTORE POP JUMP JUMPDEST PUSH0 PUSH2 0x3ABF PUSH1 0x3B DUP4 PUSH2 0x383A JUMP JUMPDEST SWAP2 POP PUSH2 0x3ACA DUP3 PUSH2 0x3A65 JUMP JUMPDEST PUSH1 0x40 DUP3 ADD SWAP1 POP SWAP2 SWAP1 POP JUMP JUMPDEST PUSH0 PUSH1 0x20 DUP3 ADD SWAP1 POP DUP2 DUP2 SUB PUSH0 DUP4 ADD MSTORE PUSH2 0x3AEC DUP2 PUSH2 0x3AB3 JUMP JUMPDEST SWAP1 POP SWAP2 SWAP1 POP JUMP JUMPDEST PUSH32 0x43616E206F6E6C7920636C61696D20696E746572657374206F6E636520706572 PUSH0 DUP3 ADD MSTORE PUSH32 0x2064617900000000000000000000000000000000000000000000000000000000 PUSH1 0x20 DUP3 ADD MSTORE POP JUMP JUMPDEST PUSH0 PUSH2 0x3B4D PUSH1 0x24 DUP4 PUSH2 0x383A JUMP JUMPDEST SWAP2 POP PUSH2 0x3B58 DUP3 PUSH2 0x3AF3 JUMP JUMPDEST PUSH1 0x40 DUP3 ADD SWAP1 POP SWAP2 SWAP1 POP JUMP JUMPDEST PUSH0 PUSH1 0x20 DUP3 ADD SWAP1 POP DUP2 DUP2 SUB PUSH0 DUP4 ADD MSTORE PUSH2 0x3B7A DUP2 PUSH2 0x3B41 JUMP JUMPDEST SWAP1 POP SWAP2 SWAP1 POP JUMP JUMPDEST PUSH0 PUSH2 0x3B8B DUP3 PUSH2 0x318F JUMP JUMPDEST SWAP2 POP PUSH2 0x3B96 DUP4 PUSH2 0x318F JUMP JUMPDEST SWAP3 POP DUP3 DUP3 MUL PUSH2 0x3BA4 DUP2 PUSH2 0x318F JUMP JUMPDEST SWAP2 POP DUP3 DUP3 DIV DUP5 EQ DUP4 ISZERO OR PUSH2 0x3BBB JUMPI PUSH2 0x3BBA PUSH2 0x38B2 JUMP JUMPDEST JUMPDEST POP SWAP3 SWAP2 POP POP JUMP JUMPDEST PUSH0 PUSH1 0x40 DUP3 ADD SWAP1 POP PUSH2 0x3BD5 PUSH0 DUP4 ADD DUP6 PUSH2 0x343D JUMP JUMPDEST PUSH2 0x3BE2 PUSH1 0x20 DUP4 ADD DUP5 PUSH2 0x31ED JUMP JUMPDEST SWAP4 SWAP3 POP POP POP JUMP JUMPDEST PUSH2 0x3BF2 DUP2 PUSH2 0x3465 JUMP JUMPDEST DUP2 EQ PUSH2 0x3BFC JUMPI PUSH0 DUP1 REVERT JUMPDEST POP JUMP JUMPDEST PUSH0 DUP2 MLOAD SWAP1 POP PUSH2 0x3C0D DUP2 PUSH2 0x3BE9 JUMP JUMPDEST SWAP3 SWAP2 POP POP JUMP JUMPDEST PUSH0 PUSH1 0x20 DUP3 DUP5 SUB SLT ISZERO PUSH2 0x3C28 JUMPI PUSH2 0x3C27 PUSH2 0x318B JUMP JUMPDEST JUMPDEST PUSH0 PUSH2 0x3C35 DUP5 DUP3 DUP6 ADD PUSH2 0x3BFF JUMP JUMPDEST SWAP2 POP POP SWAP3 SWAP2 POP POP JUMP JUMPDEST PUSH32 0x496E746572657374207472616E73666572206661696C65640000000000000000 PUSH0 DUP3 ADD MSTORE POP JUMP JUMPDEST PUSH0 PUSH2 0x3C72 PUSH1 0x18 DUP4 PUSH2 0x383A JUMP JUMPDEST SWAP2 POP PUSH2 0x3C7D DUP3 PUSH2 0x3C3E JUMP JUMPDEST PUSH1 0x20 DUP3 ADD SWAP1 POP SWAP2 SWAP1 POP JUMP JUMPDEST PUSH0 PUSH1 0x20 DUP3 ADD SWAP1 POP DUP2 DUP2 SUB PUSH0 DUP4 ADD MSTORE PUSH2 0x3C9F DUP2 PUSH2 0x3C66 JUMP JUMPDEST SWAP1 POP SWAP2 SWAP1 POP JUMP JUMPDEST PUSH32 0x4E6F2064697265637420726566657272616C20696E636F6D6520746F20636C61 PUSH0 DUP3 ADD MSTORE PUSH32 0x696D000000000000000000000000000000000000000000000000000000000000 PUSH1 0x20 DUP3 ADD MSTORE POP JUMP JUMPDEST PUSH0 PUSH2 0x3D00 PUSH1 0x22 DUP4 PUSH2 0x383A JUMP JUMPDEST SWAP2 POP PUSH2 0x3D0B DUP3 PUSH2 0x3CA6 JUMP JUMPDEST PUSH1 0x40 DUP3 ADD SWAP1 POP SWAP2 SWAP1 POP JUMP JUMPDEST PUSH0 PUSH1 0x20 DUP3 ADD SWAP1 POP DUP2 DUP2 SUB PUSH0 DUP4 ADD MSTORE PUSH2 0x3D2D DUP2 PUSH2 0x3CF4 JUMP JUMPDEST SWAP1 POP SWAP2 SWAP1 POP JUMP JUMPDEST PUSH32 0x44697265637420726566657272616C20696E636F6D65207472616E7366657220 PUSH0 DUP3 ADD MSTORE PUSH32 0x6661696C65640000000000000000000000000000000000000000000000000000 PUSH1 0x20 DUP3 ADD MSTORE POP JUMP JUMPDEST PUSH0 PUSH2 0x3D8E PUSH1 0x26 DUP4 PUSH2 0x383A JUMP JUMPDEST SWAP2 POP PUSH2 0x3D99 DUP3 PUSH2 0x3D34 JUMP JUMPDEST PUSH1 0x40 DUP3 ADD SWAP1 POP SWAP2 SWAP1 POP JUMP JUMPDEST PUSH0 PUSH1 0x20 DUP3 ADD SWAP1 POP DUP2 DUP2 SUB PUSH0 DUP4 ADD MSTORE PUSH2 0x3DBB DUP2 PUSH2 0x3D82 JUMP JUMPDEST SWAP1 POP SWAP2 SWAP1 POP JUMP JUMPDEST PUSH32 0x4F6E6C7920746865206F776E65722063616E2063616C6C20746869732066756E PUSH0 DUP3 ADD MSTORE PUSH32 0x6374696F6E000000000000000000000000000000000000000000000000000000 PUSH1 0x20 DUP3 ADD MSTORE POP JUMP JUMPDEST PUSH0 PUSH2 0x3E1C PUSH1 0x25 DUP4 PUSH2 0x383A JUMP JUMPDEST SWAP2 POP PUSH2 0x3E27 DUP3 PUSH2 0x3DC2 JUMP JUMPDEST PUSH1 0x40 DUP3 ADD SWAP1 POP SWAP2 SWAP1 POP JUMP JUMPDEST PUSH0 PUSH1 0x20 DUP3 ADD SWAP1 POP DUP2 DUP2 SUB PUSH0 DUP4 ADD MSTORE PUSH2 0x3E49 DUP2 PUSH2 0x3E10 JUMP JUMPDEST SWAP1 POP SWAP2 SWAP1 POP JUMP JUMPDEST PUSH0 DUP2 MLOAD SWAP1 POP PUSH2 0x3E5E DUP2 PUSH2 0x3198 JUMP JUMPDEST SWAP3 SWAP2 POP POP JUMP JUMPDEST PUSH0 PUSH1 0x20 DUP3 DUP5 SUB SLT ISZERO PUSH2 0x3E79 JUMPI PUSH2 0x3E78 PUSH2 0x318B JUMP JUMPDEST JUMPDEST PUSH0 PUSH2 0x3E86 DUP5 DUP3 DUP6 ADD PUSH2 0x3E50 JUMP JUMPDEST SWAP2 POP POP SWAP3 SWAP2 POP POP JUMP JUMPDEST PUSH32 0x4E6F20746F6B656E7320746F2077697468647261770000000000000000000000 PUSH0 DUP3 ADD MSTORE POP JUMP JUMPDEST PUSH0 PUSH2 0x3EC3 PUSH1 0x15 DUP4 PUSH2 0x383A JUMP JUMPDEST SWAP2 POP PUSH2 0x3ECE DUP3 PUSH2 0x3E8F JUMP JUMPDEST PUSH1 0x20 DUP3 ADD SWAP1 POP SWAP2 SWAP1 POP JUMP JUMPDEST PUSH0 PUSH1 0x20 DUP3 ADD SWAP1 POP DUP2 DUP2 SUB PUSH0 DUP4 ADD MSTORE PUSH2 0x3EF0 DUP2 PUSH2 0x3EB7 JUMP JUMPDEST SWAP1 POP SWAP2 SWAP1 POP JUMP JUMPDEST PUSH32 0x546F6B656E207472616E73666572206661696C65640000000000000000000000 PUSH0 DUP3 ADD MSTORE POP JUMP JUMPDEST PUSH0 PUSH2 0x3F2B PUSH1 0x15 DUP4 PUSH2 0x383A JUMP JUMPDEST SWAP2 POP PUSH2 0x3F36 DUP3 PUSH2 0x3EF7 JUMP JUMPDEST PUSH1 0x20 DUP3 ADD SWAP1 POP SWAP2 SWAP1 POP JUMP JUMPDEST PUSH0 PUSH1 0x20 DUP3 ADD SWAP1 POP DUP2 DUP2 SUB PUSH0 DUP4 ADD MSTORE PUSH2 0x3F58 DUP2 PUSH2 0x3F1F JUMP JUMPDEST SWAP1 POP SWAP2 SWAP1 POP JUMP JUMPDEST PUSH32 0x506F736974696F6E20697320616C726561647920636C6F736564000000000000 PUSH0 DUP3 ADD MSTORE POP JUMP JUMPDEST PUSH0 PUSH2 0x3F93 PUSH1 0x1A DUP4 PUSH2 0x383A JUMP JUMPDEST SWAP2 POP PUSH2 0x3F9E DUP3 PUSH2 0x3F5F JUMP JUMPDEST PUSH1 0x20 DUP3 ADD SWAP1 POP SWAP2 SWAP1 POP JUMP JUMPDEST PUSH0 PUSH1 0x20 DUP3 ADD SWAP1 POP DUP2 DUP2 SUB PUSH0 DUP4 ADD MSTORE PUSH2 0x3FC0 DUP2 PUSH2 0x3F87 JUMP JUMPDEST SWAP1 POP SWAP2 SWAP1 POP JUMP JUMPDEST PUSH32 0x556E617574686F72697A65640000000000000000000000000000000000000000 PUSH0 DUP3 ADD MSTORE POP JUMP JUMPDEST PUSH0 PUSH2 0x3FFB PUSH1 0xC DUP4 PUSH2 0x383A JUMP JUMPDEST SWAP2 POP PUSH2 0x4006 DUP3 PUSH2 0x3FC7 JUMP JUMPDEST PUSH1 0x20 DUP3 ADD SWAP1 POP SWAP2 SWAP1 POP JUMP JUMPDEST PUSH0 PUSH1 0x20 DUP3 ADD SWAP1 POP DUP2 DUP2 SUB PUSH0 DUP4 ADD MSTORE PUSH2 0x4028 DUP2 PUSH2 0x3FEF JUMP JUMPDEST SWAP1 POP SWAP2 SWAP1 POP JUMP JUMPDEST PUSH32 0x556E6C6F636B2064617465206E6F742072656163686564000000000000000000 PUSH0 DUP3 ADD MSTORE POP JUMP JUMPDEST PUSH0 PUSH2 0x4063 PUSH1 0x17 DUP4 PUSH2 0x383A JUMP JUMPDEST SWAP2 POP PUSH2 0x406E DUP3 PUSH2 0x402F JUMP JUMPDEST PUSH1 0x20 DUP3 ADD SWAP1 POP SWAP2 SWAP1 POP JUMP JUMPDEST PUSH0 PUSH1 0x20 DUP3 ADD SWAP1 POP DUP2 DUP2 SUB PUSH0 DUP4 ADD MSTORE PUSH2 0x4090 DUP2 PUSH2 0x4057 JUMP JUMPDEST SWAP1 POP SWAP2 SWAP1 POP JUMP JUMPDEST PUSH32 0x4E487B7100000000000000000000000000000000000000000000000000000000 PUSH0 MSTORE PUSH1 0x41 PUSH1 0x4 MSTORE PUSH1 0x24 PUSH0 REVERT JUMPDEST PUSH32 0x4E487B7100000000000000000000000000000000000000000000000000000000 PUSH0 MSTORE PUSH1 0x32 PUSH1 0x4 MSTORE PUSH1 0x24 PUSH0 REVERT JUMPDEST PUSH32 0x4F6E6C79206F776E6572206D6179206D6F64696679207374616B696E67207065 PUSH0 DUP3 ADD MSTORE PUSH32 0x72696F6473000000000000000000000000000000000000000000000000000000 PUSH1 0x20 DUP3 ADD MSTORE POP JUMP JUMPDEST PUSH0 PUSH2 0x414B PUSH1 0x25 DUP4 PUSH2 0x383A JUMP JUMPDEST SWAP2 POP PUSH2 0x4156 DUP3 PUSH2 0x40F1 JUMP JUMPDEST PUSH1 0x40 DUP3 ADD SWAP1 POP SWAP2 SWAP1 POP JUMP JUMPDEST PUSH0 PUSH1 0x20 DUP3 ADD SWAP1 POP DUP2 DUP2 SUB PUSH0 DUP4 ADD MSTORE PUSH2 0x4178 DUP2 PUSH2 0x413F JUMP JUMPDEST SWAP1 POP SWAP2 SWAP1 POP JUMP JUMPDEST PUSH32 0x4F6E6C7920706F736974696F6E2063726561746F72206D6179206D6F64696679 PUSH0 DUP3 ADD MSTORE PUSH32 0x20706F736974696F6E0000000000000000000000000000000000000000000000 PUSH1 0x20 DUP3 ADD MSTORE POP JUMP JUMPDEST PUSH0 PUSH2 0x41D9 PUSH1 0x29 DUP4 PUSH2 0x383A JUMP JUMPDEST SWAP2 POP PUSH2 0x41E4 DUP3 PUSH2 0x417F JUMP JUMPDEST PUSH1 0x40 DUP3 ADD SWAP1 POP SWAP2 SWAP1 POP JUMP JUMPDEST PUSH0 PUSH1 0x20 DUP3 ADD SWAP1 POP DUP2 DUP2 SUB PUSH0 DUP4 ADD MSTORE PUSH2 0x4206 DUP2 PUSH2 0x41CD JUMP JUMPDEST SWAP1 POP SWAP2 SWAP1 POP JUMP JUMPDEST PUSH32 0x456D657267656E637920636C6F7365206F6E6C7920616C6C6F77656420666F72 PUSH0 DUP3 ADD MSTORE PUSH32 0x203830302D646179206C6F636B20706572696F64000000000000000000000000 PUSH1 0x20 DUP3 ADD MSTORE POP JUMP JUMPDEST PUSH0 PUSH2 0x4267 PUSH1 0x34 DUP4 PUSH2 0x383A JUMP JUMPDEST SWAP2 POP PUSH2 0x4272 DUP3 PUSH2 0x420D JUMP JUMPDEST PUSH1 0x40 DUP3 ADD SWAP1 POP SWAP2 SWAP1 POP JUMP JUMPDEST PUSH0 PUSH1 0x20 DUP3 ADD SWAP1 POP DUP2 DUP2 SUB PUSH0 DUP4 ADD MSTORE PUSH2 0x4294 DUP2 PUSH2 0x425B JUMP JUMPDEST SWAP1 POP SWAP2 SWAP1 POP JUMP JUMPDEST PUSH0 PUSH2 0x42A5 DUP3 PUSH2 0x318F JUMP JUMPDEST SWAP2 POP PUSH2 0x42B0 DUP4 PUSH2 0x318F JUMP JUMPDEST SWAP3 POP DUP3 DUP3 ADD SWAP1 POP DUP1 DUP3 GT ISZERO PUSH2 0x42C8 JUMPI PUSH2 0x42C7 PUSH2 0x38B2 JUMP JUMPDEST JUMPDEST SWAP3 SWAP2 POP POP JUMP JUMPDEST PUSH0 DUP2 SWAP1 POP SWAP3 SWAP2 POP POP JUMP JUMPDEST POP JUMP JUMPDEST PUSH0 PUSH2 0x42E6 PUSH0 DUP4 PUSH2 0x42CE JUMP JUMPDEST SWAP2 POP PUSH2 0x42F1 DUP3 PUSH2 0x42D8 JUMP JUMPDEST PUSH0 DUP3 ADD SWAP1 POP SWAP2 SWAP1 POP JUMP JUMPDEST PUSH0 PUSH2 0x4305 DUP3 PUSH2 0x42DB JUMP JUMPDEST SWAP2 POP DUP2 SWAP1 POP SWAP2 SWAP1 POP JUMP JUMPDEST PUSH32 0x4C6F636B20706572696F64206E6F7420666F756E640000000000000000000000 PUSH0 DUP3 ADD MSTORE POP JUMP JUMPDEST PUSH0 PUSH2 0x4343 PUSH1 0x15 DUP4 PUSH2 0x383A JUMP JUMPDEST SWAP2 POP PUSH2 0x434E DUP3 PUSH2 0x430F JUMP JUMPDEST PUSH1 0x20 DUP3 ADD SWAP1 POP SWAP2 SWAP1 POP JUMP JUMPDEST PUSH0 PUSH1 0x20 DUP3 ADD SWAP1 POP DUP2 DUP2 SUB PUSH0 DUP4 ADD MSTORE PUSH2 0x4370 DUP2 PUSH2 0x4337 JUMP JUMPDEST SWAP1 POP SWAP2 SWAP1 POP JUMP JUMPDEST PUSH32 0x4D617070696E67206E6F7420666F756E64000000000000000000000000000000 PUSH0 DUP3 ADD MSTORE POP JUMP JUMPDEST PUSH0 PUSH2 0x43AB PUSH1 0x11 DUP4 PUSH2 0x383A JUMP JUMPDEST SWAP2 POP PUSH2 0x43B6 DUP3 PUSH2 0x4377 JUMP JUMPDEST PUSH1 0x20 DUP3 ADD SWAP1 POP SWAP2 SWAP1 POP JUMP JUMPDEST PUSH0 PUSH1 0x20 DUP3 ADD SWAP1 POP DUP2 DUP2 SUB PUSH0 DUP4 ADD MSTORE PUSH2 0x43D8 DUP2 PUSH2 0x439F JUMP JUMPDEST SWAP1 POP SWAP2 SWAP1 POP JUMP JUMPDEST PUSH0 PUSH1 0x60 DUP3 ADD SWAP1 POP PUSH2 0x43F2 PUSH0 DUP4 ADD DUP7 PUSH2 0x343D JUMP JUMPDEST PUSH2 0x43FF PUSH1 0x20 DUP4 ADD DUP6 PUSH2 0x343D JUMP JUMPDEST PUSH2 0x440C PUSH1 0x40 DUP4 ADD DUP5 PUSH2 0x31ED JUMP JUMPDEST SWAP5 SWAP4 POP POP POP POP JUMP JUMPDEST PUSH0 PUSH2 0x441E DUP3 PUSH2 0x318F JUMP JUMPDEST SWAP2 POP PUSH32 0xFFFFFFFFFFFFFFFFFFFFFFFFFFFFFFFFFFFFFFFFFFFFFFFFFFFFFFFFFFFFFFFF DUP3 SUB PUSH2 0x4450 JUMPI PUSH2 0x444F PUSH2 0x38B2 JUMP JUMPDEST JUMPDEST PUSH1 0x1 DUP3 ADD SWAP1 POP SWAP2 SWAP1 POP JUMP JUMPDEST PUSH32 0x496E636F6D65207472616E73666572206661696C656400000000000000000000 PUSH0 DUP3 ADD MSTORE POP JUMP JUMPDEST PUSH0 PUSH2 0x448F PUSH1 0x16 DUP4 PUSH2 0x383A JUMP JUMPDEST SWAP2 POP PUSH2 0x449A DUP3 PUSH2 0x445B JUMP JUMPDEST PUSH1 0x20 DUP3 ADD SWAP1 POP SWAP2 SWAP1 POP JUMP JUMPDEST PUSH0 PUSH1 0x20 DUP3 ADD SWAP1 POP DUP2 DUP2 SUB PUSH0 DUP4 ADD MSTORE PUSH2 0x44BC DUP2 PUSH2 0x4483 JUMP JUMPDEST SWAP1 POP SWAP2 SWAP1 POP JUMP JUMPDEST PUSH0 PUSH1 0x40 DUP3 ADD SWAP1 POP PUSH2 0x44D6 PUSH0 DUP4 ADD DUP6 PUSH2 0x31ED JUMP JUMPDEST PUSH2 0x44E3 PUSH1 0x20 DUP4 ADD DUP5 PUSH2 0x31ED JUMP JUMPDEST SWAP4 SWAP3 POP POP POP JUMP INVALID LOG2 PUSH5 0x6970667358 0x22 SLT KECCAK256 0xCD PUSH3 0xE7BF0C CALLDATASIZE PUSH10 0x75922C03CC1B90850323 0xE5 PUSH6 0x61C384E82CCD 0xB1 DUP1 SWAP6 0x29 SWAP2 PUSH20 0x2364736F6C634300081900330000000000000000 "
		},
		"gasEstimates": {
			"creation": {
				"codeDepositCost": "3539200",
				"executionCost": "infinite",
				"totalCost": "infinite"
			},
			"external": {
				"calculateDailyInterest(uint256)": "infinite",
				"changeUnlockDate(uint256,uint256)": "infinite",
				"claimDailyInterest(uint256)": "infinite",
				"claimDirectReferralIncome()": "infinite",
				"closePosition(uint256)": "infinite",
				"contractBalance()": "infinite",
				"currentLevel()": "2493",
				"currentPositionId()": "2516",
				"directReferralCount(address)": "2847",
				"directReferralIncome(address)": "2912",
				"emergencyClosePosition(uint256)": "infinite",
				"getDaysUntilUnlock(uint256)": "infinite",
				"getDirectReferralIncome(address)": "2946",
				"getInterestRate(uint256)": "infinite",
				"getLockPeriods()": "infinite",
				"getPositionById(uint256)": "infinite",
				"getPositionHistoryForAddress(address)": "infinite",
				"getPositionIdsForAddress(address)": "infinite",
				"getTotalReferrals(address)": "2948",
				"getUserLevel(address)": "2903",
				"getUserStakeDays(uint256)": "infinite",
				"levelIncome(uint256)": "infinite",
				"lockPeriods(uint256)": "infinite",
				"modifyLockPeriods(uint256,uint256)": "infinite",
				"nextUserId()": "2537",
				"owner()": "2638",
				"positionHistoryByAddress(address,uint256)": "infinite",
				"positionIdsByAddress(address,uint256)": "infinite",
				"positions(uint256)": "infinite",
				"stakeToken(uint256,uint256,address)": "infinite",
				"staketoken(uint256,uint256)": "infinite",
				"tiers(uint256)": "infinite",
				"token()": "infinite",
				"users(address)": "infinite",
				"withdrawAll()": "infinite"
			},
			"internal": {
				"_stakeToken(uint256,uint256,address)": "infinite",
				"calculateInterest(uint256,uint256,uint256)": "infinite",
				"distributeIncome(address)": "infinite"
			}
		},
		"methodIdentifiers": {
			"calculateDailyInterest(uint256)": "d7406f5c",
			"changeUnlockDate(uint256,uint256)": "c7c9d055",
			"claimDailyInterest(uint256)": "591d8fea",
			"claimDirectReferralIncome()": "5bffa8ff",
			"closePosition(uint256)": "a126d601",
			"contractBalance()": "8b7afe2e",
			"currentLevel()": "9dc4b9c9",
			"currentPositionId()": "1131c8cd",
			"directReferralCount(address)": "b77b7dc9",
			"directReferralIncome(address)": "f6e88873",
			"emergencyClosePosition(uint256)": "d21b7abf",
			"getDaysUntilUnlock(uint256)": "bc259107",
			"getDirectReferralIncome(address)": "aa7ed462",
			"getInterestRate(uint256)": "0c196a74",
			"getLockPeriods()": "41ee13be",
			"getPositionById(uint256)": "b838ec86",
			"getPositionHistoryForAddress(address)": "a567ac2e",
			"getPositionIdsForAddress(address)": "40d98a44",
			"getTotalReferrals(address)": "1271fde0",
			"getUserLevel(address)": "21923bde",
			"getUserStakeDays(uint256)": "1df9758b",
			"levelIncome(uint256)": "f59a843a",
			"lockPeriods(uint256)": "4c8f2a78",
			"modifyLockPeriods(uint256,uint256)": "b0f0475b",
			"nextUserId()": "a1e6a255",
			"owner()": "8da5cb5b",
			"positionHistoryByAddress(address,uint256)": "a54586f8",
			"positionIdsByAddress(address,uint256)": "45eae373",
			"positions(uint256)": "99fbab88",
			"stakeToken(uint256,uint256,address)": "23e252f4",
			"staketoken(uint256,uint256)": "2ad53440",
			"tiers(uint256)": "039af9eb",
			"token()": "fc0c546a",
			"users(address)": "a87430ba",
			"withdrawAll()": "853828b6"
		}
	},
	"abi": [
		{
			"inputs": [
				{
					"internalType": "address",
					"name": "_tokenAddress",
					"type": "address"
				}
			],
			"stateMutability": "payable",
			"type": "constructor"
		},
		{
			"anonymous": false,
			"inputs": [
				{
					"indexed": true,
					"internalType": "address",
					"name": "user",
					"type": "address"
				},
				{
					"indexed": false,
					"internalType": "uint256",
					"name": "amount",
					"type": "uint256"
				},
				{
					"indexed": false,
					"internalType": "uint256",
					"name": "level",
					"type": "uint256"
				}
			],
			"name": "IncomeDistributed",
			"type": "event"
		},
		{
			"anonymous": false,
			"inputs": [
				{
					"indexed": true,
					"internalType": "uint256",
					"name": "positionId",
					"type": "uint256"
				}
			],
			"name": "PositionClosed",
			"type": "event"
		},
		{
			"anonymous": false,
			"inputs": [
				{
					"indexed": true,
					"internalType": "address",
					"name": "referrer",
					"type": "address"
				},
				{
					"indexed": true,
					"internalType": "address",
					"name": "referee",
					"type": "address"
				},
				{
					"indexed": false,
					"internalType": "uint256",
					"name": "amount",
					"type": "uint256"
				}
			],
			"name": "Referral",
			"type": "event"
		},
		{
			"anonymous": false,
			"inputs": [
				{
					"indexed": true,
					"internalType": "uint256",
					"name": "positionId",
					"type": "uint256"
				},
				{
					"indexed": false,
					"internalType": "uint256",
					"name": "startDate",
					"type": "uint256"
				},
				{
					"indexed": false,
					"internalType": "uint256",
					"name": "endDate",
					"type": "uint256"
				}
			],
			"name": "StakeDates",
			"type": "event"
		},
		{
			"inputs": [
				{
					"internalType": "uint256",
					"name": "positionId",
					"type": "uint256"
				}
			],
			"name": "calculateDailyInterest",
			"outputs": [
				{
					"internalType": "uint256",
					"name": "",
					"type": "uint256"
				}
			],
			"stateMutability": "view",
			"type": "function"
		},
		{
			"inputs": [
				{
					"internalType": "uint256",
					"name": "positionId",
					"type": "uint256"
				},
				{
					"internalType": "uint256",
					"name": "newUnlockDate",
					"type": "uint256"
				}
			],
			"name": "changeUnlockDate",
			"outputs": [],
			"stateMutability": "nonpayable",
			"type": "function"
		},
		{
			"inputs": [
				{
					"internalType": "uint256",
					"name": "positionId",
					"type": "uint256"
				}
			],
			"name": "claimDailyInterest",
			"outputs": [],
			"stateMutability": "nonpayable",
			"type": "function"
		},
		{
			"inputs": [],
			"name": "claimDirectReferralIncome",
			"outputs": [],
			"stateMutability": "nonpayable",
			"type": "function"
		},
		{
			"inputs": [
				{
					"internalType": "uint256",
					"name": "positionId",
					"type": "uint256"
				}
			],
			"name": "closePosition",
			"outputs": [],
			"stateMutability": "nonpayable",
			"type": "function"
		},
		{
			"inputs": [],
			"name": "contractBalance",
			"outputs": [
				{
					"internalType": "uint256",
					"name": "",
					"type": "uint256"
				}
			],
			"stateMutability": "view",
			"type": "function"
		},
		{
			"inputs": [],
			"name": "currentLevel",
			"outputs": [
				{
					"internalType": "uint256",
					"name": "",
					"type": "uint256"
				}
			],
			"stateMutability": "view",
			"type": "function"
		},
		{
			"inputs": [],
			"name": "currentPositionId",
			"outputs": [
				{
					"internalType": "uint256",
					"name": "",
					"type": "uint256"
				}
			],
			"stateMutability": "view",
			"type": "function"
		},
		{
			"inputs": [
				{
					"internalType": "address",
					"name": "",
					"type": "address"
				}
			],
			"name": "directReferralCount",
			"outputs": [
				{
					"internalType": "uint256",
					"name": "",
					"type": "uint256"
				}
			],
			"stateMutability": "view",
			"type": "function"
		},
		{
			"inputs": [
				{
					"internalType": "address",
					"name": "",
					"type": "address"
				}
			],
			"name": "directReferralIncome",
			"outputs": [
				{
					"internalType": "uint256",
					"name": "",
					"type": "uint256"
				}
			],
			"stateMutability": "view",
			"type": "function"
		},
		{
			"inputs": [
				{
					"internalType": "uint256",
					"name": "positionId",
					"type": "uint256"
				}
			],
			"name": "emergencyClosePosition",
			"outputs": [],
			"stateMutability": "nonpayable",
			"type": "function"
		},
		{
			"inputs": [
				{
					"internalType": "uint256",
					"name": "positionId",
					"type": "uint256"
				}
			],
			"name": "getDaysUntilUnlock",
			"outputs": [
				{
					"internalType": "uint256",
					"name": "",
					"type": "uint256"
				}
			],
			"stateMutability": "view",
			"type": "function"
		},
		{
			"inputs": [
				{
					"internalType": "address",
					"name": "user",
					"type": "address"
				}
			],
			"name": "getDirectReferralIncome",
			"outputs": [
				{
					"internalType": "uint256",
					"name": "",
					"type": "uint256"
				}
			],
			"stateMutability": "view",
			"type": "function"
		},
		{
			"inputs": [
				{
					"internalType": "uint256",
					"name": "numDays",
					"type": "uint256"
				}
			],
			"name": "getInterestRate",
			"outputs": [
				{
					"internalType": "uint256",
					"name": "",
					"type": "uint256"
				}
			],
			"stateMutability": "view",
			"type": "function"
		},
		{
			"inputs": [],
			"name": "getLockPeriods",
			"outputs": [
				{
					"internalType": "uint256[]",
					"name": "",
					"type": "uint256[]"
				}
			],
			"stateMutability": "view",
			"type": "function"
		},
		{
			"inputs": [
				{
					"internalType": "uint256",
					"name": "positionId",
					"type": "uint256"
				}
			],
			"name": "getPositionById",
			"outputs": [
				{
					"components": [
						{
							"internalType": "uint256",
							"name": "positionId",
							"type": "uint256"
						},
						{
							"internalType": "address",
							"name": "walletAddress",
							"type": "address"
						},
						{
							"internalType": "uint256",
							"name": "createdDate",
							"type": "uint256"
						},
						{
							"internalType": "uint256",
							"name": "unlockDate",
							"type": "uint256"
						},
						{
							"internalType": "uint256",
							"name": "percentInterest",
							"type": "uint256"
						},
						{
							"internalType": "uint256",
							"name": "weiStaked",
							"type": "uint256"
						},
						{
							"internalType": "uint256",
							"name": "weiInterest",
							"type": "uint256"
						},
						{
							"internalType": "bool",
							"name": "open",
							"type": "bool"
						},
						{
							"internalType": "uint256",
							"name": "lastClaimedDate",
							"type": "uint256"
						}
					],
					"internalType": "struct StakingGame.Position",
					"name": "",
					"type": "tuple"
				}
			],
			"stateMutability": "view",
			"type": "function"
		},
		{
			"inputs": [
				{
					"internalType": "address",
					"name": "walletAddress",
					"type": "address"
				}
			],
			"name": "getPositionHistoryForAddress",
			"outputs": [
				{
					"components": [
						{
							"internalType": "uint256",
							"name": "positionId",
							"type": "uint256"
						},
						{
							"internalType": "address",
							"name": "walletAddress",
							"type": "address"
						},
						{
							"internalType": "uint256",
							"name": "createdDate",
							"type": "uint256"
						},
						{
							"internalType": "uint256",
							"name": "unlockDate",
							"type": "uint256"
						},
						{
							"internalType": "uint256",
							"name": "percentInterest",
							"type": "uint256"
						},
						{
							"internalType": "uint256",
							"name": "weiStaked",
							"type": "uint256"
						},
						{
							"internalType": "uint256",
							"name": "weiInterest",
							"type": "uint256"
						},
						{
							"internalType": "bool",
							"name": "open",
							"type": "bool"
						},
						{
							"internalType": "uint256",
							"name": "lastClaimedDate",
							"type": "uint256"
						}
					],
					"internalType": "struct StakingGame.Position[]",
					"name": "",
					"type": "tuple[]"
				}
			],
			"stateMutability": "view",
			"type": "function"
		},
		{
			"inputs": [
				{
					"internalType": "address",
					"name": "walletAddress",
					"type": "address"
				}
			],
			"name": "getPositionIdsForAddress",
			"outputs": [
				{
					"internalType": "uint256[]",
					"name": "",
					"type": "uint256[]"
				}
			],
			"stateMutability": "view",
			"type": "function"
		},
		{
			"inputs": [
				{
					"internalType": "address",
					"name": "user",
					"type": "address"
				}
			],
			"name": "getTotalReferrals",
			"outputs": [
				{
					"internalType": "uint256",
					"name": "",
					"type": "uint256"
				}
			],
			"stateMutability": "view",
			"type": "function"
		},
		{
			"inputs": [
				{
					"internalType": "address",
					"name": "user",
					"type": "address"
				}
			],
			"name": "getUserLevel",
			"outputs": [
				{
					"internalType": "uint256",
					"name": "",
					"type": "uint256"
				}
			],
			"stateMutability": "view",
			"type": "function"
		},
		{
			"inputs": [
				{
					"internalType": "uint256",
					"name": "positionId",
					"type": "uint256"
				}
			],
			"name": "getUserStakeDays",
			"outputs": [
				{
					"internalType": "uint256",
					"name": "",
					"type": "uint256"
				}
			],
			"stateMutability": "view",
			"type": "function"
		},
		{
			"inputs": [
				{
					"internalType": "uint256",
					"name": "",
					"type": "uint256"
				}
			],
			"name": "levelIncome",
			"outputs": [
				{
					"internalType": "uint256",
					"name": "",
					"type": "uint256"
				}
			],
			"stateMutability": "view",
			"type": "function"
		},
		{
			"inputs": [
				{
					"internalType": "uint256",
					"name": "",
					"type": "uint256"
				}
			],
			"name": "lockPeriods",
			"outputs": [
				{
					"internalType": "uint256",
					"name": "",
					"type": "uint256"
				}
			],
			"stateMutability": "view",
			"type": "function"
		},
		{
			"inputs": [
				{
					"internalType": "uint256",
					"name": "numDays",
					"type": "uint256"
				},
				{
					"internalType": "uint256",
					"name": "basisPoints",
					"type": "uint256"
				}
			],
			"name": "modifyLockPeriods",
			"outputs": [],
			"stateMutability": "nonpayable",
			"type": "function"
		},
		{
			"inputs": [],
			"name": "nextUserId",
			"outputs": [
				{
					"internalType": "uint256",
					"name": "",
					"type": "uint256"
				}
			],
			"stateMutability": "view",
			"type": "function"
		},
		{
			"inputs": [],
			"name": "owner",
			"outputs": [
				{
					"internalType": "address",
					"name": "",
					"type": "address"
				}
			],
			"stateMutability": "view",
			"type": "function"
		},
		{
			"inputs": [
				{
					"internalType": "address",
					"name": "",
					"type": "address"
				},
				{
					"internalType": "uint256",
					"name": "",
					"type": "uint256"
				}
			],
			"name": "positionHistoryByAddress",
			"outputs": [
				{
					"internalType": "uint256",
					"name": "positionId",
					"type": "uint256"
				},
				{
					"internalType": "address",
					"name": "walletAddress",
					"type": "address"
				},
				{
					"internalType": "uint256",
					"name": "createdDate",
					"type": "uint256"
				},
				{
					"internalType": "uint256",
					"name": "unlockDate",
					"type": "uint256"
				},
				{
					"internalType": "uint256",
					"name": "percentInterest",
					"type": "uint256"
				},
				{
					"internalType": "uint256",
					"name": "weiStaked",
					"type": "uint256"
				},
				{
					"internalType": "uint256",
					"name": "weiInterest",
					"type": "uint256"
				},
				{
					"internalType": "bool",
					"name": "open",
					"type": "bool"
				},
				{
					"internalType": "uint256",
					"name": "lastClaimedDate",
					"type": "uint256"
				}
			],
			"stateMutability": "view",
			"type": "function"
		},
		{
			"inputs": [
				{
					"internalType": "address",
					"name": "",
					"type": "address"
				},
				{
					"internalType": "uint256",
					"name": "",
					"type": "uint256"
				}
			],
			"name": "positionIdsByAddress",
			"outputs": [
				{
					"internalType": "uint256",
					"name": "",
					"type": "uint256"
				}
			],
			"stateMutability": "view",
			"type": "function"
		},
		{
			"inputs": [
				{
					"internalType": "uint256",
					"name": "",
					"type": "uint256"
				}
			],
			"name": "positions",
			"outputs": [
				{
					"internalType": "uint256",
					"name": "positionId",
					"type": "uint256"
				},
				{
					"internalType": "address",
					"name": "walletAddress",
					"type": "address"
				},
				{
					"internalType": "uint256",
					"name": "createdDate",
					"type": "uint256"
				},
				{
					"internalType": "uint256",
					"name": "unlockDate",
					"type": "uint256"
				},
				{
					"internalType": "uint256",
					"name": "percentInterest",
					"type": "uint256"
				},
				{
					"internalType": "uint256",
					"name": "weiStaked",
					"type": "uint256"
				},
				{
					"internalType": "uint256",
					"name": "weiInterest",
					"type": "uint256"
				},
				{
					"internalType": "bool",
					"name": "open",
					"type": "bool"
				},
				{
					"internalType": "uint256",
					"name": "lastClaimedDate",
					"type": "uint256"
				}
			],
			"stateMutability": "view",
			"type": "function"
		},
		{
			"inputs": [
				{
					"internalType": "uint256",
					"name": "numDays",
					"type": "uint256"
				},
				{
					"internalType": "uint256",
					"name": "amount",
					"type": "uint256"
				},
				{
					"internalType": "address",
					"name": "referrer",
					"type": "address"
				}
			],
			"name": "stakeToken",
			"outputs": [],
			"stateMutability": "nonpayable",
			"type": "function"
		},
		{
			"inputs": [
				{
					"internalType": "uint256",
					"name": "numDays",
					"type": "uint256"
				},
				{
					"internalType": "uint256",
					"name": "amount",
					"type": "uint256"
				}
			],
			"name": "staketoken",
			"outputs": [],
			"stateMutability": "nonpayable",
			"type": "function"
		},
		{
			"inputs": [
				{
					"internalType": "uint256",
					"name": "",
					"type": "uint256"
				}
			],
			"name": "tiers",
			"outputs": [
				{
					"internalType": "uint256",
					"name": "",
					"type": "uint256"
				}
			],
			"stateMutability": "view",
			"type": "function"
		},
		{
			"inputs": [],
			"name": "token",
			"outputs": [
				{
					"internalType": "contract IERC20",
					"name": "",
					"type": "address"
				}
			],
			"stateMutability": "view",
			"type": "function"
		},
		{
			"inputs": [
				{
					"internalType": "address",
					"name": "",
					"type": "address"
				}
			],
			"name": "users",
			"outputs": [
				{
					"internalType": "address",
					"name": "upline",
					"type": "address"
				},
				{
					"internalType": "uint256",
					"name": "totalEarned",
					"type": "uint256"
				},
				{
					"internalType": "uint256",
					"name": "referralsCount",
					"type": "uint256"
				},
				{
					"internalType": "uint256",
					"name": "currentLevel",
					"type": "uint256"
				},
				{
					"internalType": "uint256",
					"name": "directReferralsCount",
					"type": "uint256"
				}
			],
			"stateMutability": "view",
			"type": "function"
		},
		{
			"inputs": [],
			"name": "withdrawAll",
			"outputs": [],
			"stateMutability": "nonpayable",
			"type": "function"
		}
	]
}